{
	"contracts/SyCrowBarter.sol": {
		"SyCrowBarter": {
			"abi": [
				{
					"inputs": [],
					"stateMutability": "nonpayable",
					"type": "constructor"
				},
				{
					"anonymous": false,
					"inputs": [
						{
							"indexed": true,
							"internalType": "address",
							"name": "previousOwner",
							"type": "address"
						},
						{
							"indexed": true,
							"internalType": "address",
							"name": "newOwner",
							"type": "address"
						}
					],
					"name": "OwnershipTransferred",
					"type": "event"
				},
				{
					"inputs": [],
					"name": "_initialized",
					"outputs": [
						{
							"internalType": "bool",
							"name": "",
							"type": "bool"
						}
					],
					"stateMutability": "view",
					"type": "function"
				},
				{
					"inputs": [],
					"name": "factory",
					"outputs": [
						{
							"internalType": "address",
							"name": "",
							"type": "address"
						}
					],
					"stateMutability": "view",
					"type": "function"
				},
				{
					"inputs": [],
					"name": "getAmounts",
					"outputs": [
						{
							"internalType": "uint256",
							"name": "",
							"type": "uint256"
						},
						{
							"internalType": "uint256",
							"name": "",
							"type": "uint256"
						}
					],
					"stateMutability": "view",
					"type": "function"
				},
				{
					"inputs": [],
					"name": "getTokens",
					"outputs": [
						{
							"internalType": "address",
							"name": "",
							"type": "address"
						},
						{
							"internalType": "address",
							"name": "",
							"type": "address"
						}
					],
					"stateMutability": "view",
					"type": "function"
				},
				{
					"inputs": [
						{
							"internalType": "uint256",
							"name": "amount",
							"type": "uint256"
						}
					],
					"name": "getTradeOutAmount",
					"outputs": [
						{
							"internalType": "uint256",
							"name": "",
							"type": "uint256"
						}
					],
					"stateMutability": "view",
					"type": "function"
				},
				{
					"inputs": [],
					"name": "getTrades",
					"outputs": [
						{
							"internalType": "address[]",
							"name": "",
							"type": "address[]"
						},
						{
							"internalType": "uint256[]",
							"name": "",
							"type": "uint256[]"
						},
						{
							"internalType": "uint256[]",
							"name": "",
							"type": "uint256[]"
						}
					],
					"stateMutability": "view",
					"type": "function"
				},
				{
					"inputs": [
						{
							"internalType": "enum ISyCrowBarterType",
							"name": "barterType",
							"type": "uint8"
						},
						{
							"internalType": "address",
							"name": "inToken",
							"type": "address"
						},
						{
							"internalType": "address",
							"name": "outToken",
							"type": "address"
						},
						{
							"internalType": "uint256",
							"name": "amountDeposited",
							"type": "uint256"
						},
						{
							"internalType": "uint256",
							"name": "amountExpected",
							"type": "uint256"
						},
						{
							"internalType": "uint256",
							"name": "deadline",
							"type": "uint256"
						},
						{
							"internalType": "bool",
							"name": "allowMultiBarter",
							"type": "bool"
						},
						{
							"internalType": "address",
							"name": "_WETH",
							"type": "address"
						}
					],
					"name": "initialize",
					"outputs": [
						{
							"internalType": "bool",
							"name": "",
							"type": "bool"
						}
					],
					"stateMutability": "nonpayable",
					"type": "function"
				},
				{
					"inputs": [],
					"name": "owner",
					"outputs": [
						{
							"internalType": "address",
							"name": "",
							"type": "address"
						}
					],
					"stateMutability": "view",
					"type": "function"
				},
				{
					"inputs": [],
					"name": "renounceOwnership",
					"outputs": [],
					"stateMutability": "nonpayable",
					"type": "function"
				},
				{
					"inputs": [
						{
							"internalType": "uint256",
							"name": "inAmount",
							"type": "uint256"
						}
					],
					"name": "tradeEthForToken",
					"outputs": [],
					"stateMutability": "payable",
					"type": "function"
				},
				{
					"inputs": [],
					"name": "tradeEthForToken",
					"outputs": [],
					"stateMutability": "payable",
					"type": "function"
				},
				{
					"inputs": [
						{
							"internalType": "uint256",
							"name": "inAmount",
							"type": "uint256"
						}
					],
					"name": "tradeTokenForEth",
					"outputs": [],
					"stateMutability": "nonpayable",
					"type": "function"
				},
				{
					"inputs": [],
					"name": "tradeTokenForEth",
					"outputs": [],
					"stateMutability": "nonpayable",
					"type": "function"
				},
				{
					"inputs": [
						{
							"internalType": "uint256",
							"name": "inAmount",
							"type": "uint256"
						}
					],
					"name": "tradeTokenForToken",
					"outputs": [],
					"stateMutability": "nonpayable",
					"type": "function"
				},
				{
					"inputs": [],
					"name": "tradeTokenForToken",
					"outputs": [],
					"stateMutability": "nonpayable",
					"type": "function"
				},
				{
					"inputs": [
						{
							"internalType": "address",
							"name": "newOwner",
							"type": "address"
						}
					],
					"name": "transferOwnership",
					"outputs": [],
					"stateMutability": "nonpayable",
					"type": "function"
				},
				{
					"inputs": [],
					"name": "withdraw",
					"outputs": [],
					"stateMutability": "nonpayable",
					"type": "function"
				},
				{
					"inputs": [
						{
							"internalType": "address",
							"name": "_erc20TokenAddress",
							"type": "address"
						}
					],
					"name": "withdraw",
					"outputs": [],
					"stateMutability": "nonpayable",
					"type": "function"
				}
			],
			"devdoc": {
				"kind": "dev",
				"methods": {
					"owner()": {
						"details": "Returns the address of the current owner."
					},
					"renounceOwnership()": {
						"details": "Leaves the contract without owner. It will not be possible to call `onlyOwner` functions anymore. Can only be called by the current owner. NOTE: Renouncing ownership will leave the contract without an owner, thereby removing any functionality that is only available to the owner."
					},
					"transferOwnership(address)": {
						"details": "Transfers ownership of the contract to a new account (`newOwner`). Can only be called by the current owner."
					}
				},
				"version": 1
			},
			"evm": {
				"assembly": "    /* \"contracts/SyCrowBarter.sol\":269:11337  contract SyCrowBarter is ISyCrowBarter, Ownable {... */\n  mstore(0x40, 0xa0)\n    /* \"contracts/SyCrowBarter.sol\":496:501  false */\n  0x00\n    /* \"contracts/SyCrowBarter.sol\":469:501  bool public _initialized = false */\n  0x04\n  exp(0x0100, 0x00)\n  dup2\n  sload\n  dup2\n  0xff\n  mul\n  not\n  and\n  swap1\n  dup4\n  iszero\n  iszero\n  mul\n  or\n  swap1\n  sstore\n  pop\n    /* \"contracts/SyCrowBarter.sol\":1889:1940  constructor() {... */\n  callvalue\n  dup1\n  iszero\n  tag_1\n  jumpi\n  0x00\n  dup1\n  revert\ntag_1:\n  pop\n    /* \"@openzeppelin/contracts/access/Ownable.sol\":921:953  _transferOwnership(_msgSender()) */\n  tag_5\n    /* \"@openzeppelin/contracts/access/Ownable.sol\":940:952  _msgSender() */\n  tag_6\n    /* \"@openzeppelin/contracts/access/Ownable.sol\":940:950  _msgSender */\n  shl(0x20, tag_7)\n    /* \"@openzeppelin/contracts/access/Ownable.sol\":940:952  _msgSender() */\n  0x20\n  shr\n  jump\t// in\ntag_6:\n    /* \"@openzeppelin/contracts/access/Ownable.sol\":921:939  _transferOwnership */\n  shl(0x20, tag_8)\n    /* \"@openzeppelin/contracts/access/Ownable.sol\":921:953  _transferOwnership(_msgSender()) */\n  0x20\n  shr\n  jump\t// in\ntag_5:\n    /* \"contracts/SyCrowBarter.sol\":1923:1933  msg.sender */\n  caller\n    /* \"contracts/SyCrowBarter.sol\":1913:1933  factory = msg.sender */\n  0xffffffffffffffffffffffffffffffffffffffff\n  and\n  0x80\n  dup2\n  0xffffffffffffffffffffffffffffffffffffffff\n  and\n  dup2\n  mstore\n  pop\n  pop\n    /* \"contracts/SyCrowBarter.sol\":269:11337  contract SyCrowBarter is ISyCrowBarter, Ownable {... */\n  jump(tag_10)\n    /* \"@openzeppelin/contracts/utils/Context.sol\":640:736  function _msgSender() internal view virtual returns (address) {... */\ntag_7:\n    /* \"@openzeppelin/contracts/utils/Context.sol\":693:700  address */\n  0x00\n    /* \"@openzeppelin/contracts/utils/Context.sol\":719:729  msg.sender */\n  caller\n    /* \"@openzeppelin/contracts/utils/Context.sol\":712:729  return msg.sender */\n  swap1\n  pop\n    /* \"@openzeppelin/contracts/utils/Context.sol\":640:736  function _msgSender() internal view virtual returns (address) {... */\n  swap1\n  jump\t// out\n    /* \"@openzeppelin/contracts/access/Ownable.sol\":2270:2457  function _transferOwnership(address newOwner) internal virtual {... */\ntag_8:\n    /* \"@openzeppelin/contracts/access/Ownable.sol\":2343:2359  address oldOwner */\n  0x00\n    /* \"@openzeppelin/contracts/access/Ownable.sol\":2362:2368  _owner */\n  dup1\n  0x00\n  swap1\n  sload\n  swap1\n  0x0100\n  exp\n  swap1\n  div\n  0xffffffffffffffffffffffffffffffffffffffff\n  and\n    /* \"@openzeppelin/contracts/access/Ownable.sol\":2343:2368  address oldOwner = _owner */\n  swap1\n  pop\n    /* \"@openzeppelin/contracts/access/Ownable.sol\":2387:2395  newOwner */\n  dup2\n    /* \"@openzeppelin/contracts/access/Ownable.sol\":2378:2384  _owner */\n  0x00\n  dup1\n    /* \"@openzeppelin/contracts/access/Ownable.sol\":2378:2395  _owner = newOwner */\n  0x0100\n  exp\n  dup2\n  sload\n  dup2\n  0xffffffffffffffffffffffffffffffffffffffff\n  mul\n  not\n  and\n  swap1\n  dup4\n  0xffffffffffffffffffffffffffffffffffffffff\n  and\n  mul\n  or\n  swap1\n  sstore\n  pop\n    /* \"@openzeppelin/contracts/access/Ownable.sol\":2441:2449  newOwner */\n  dup2\n    /* \"@openzeppelin/contracts/access/Ownable.sol\":2410:2450  OwnershipTransferred(oldOwner, newOwner) */\n  0xffffffffffffffffffffffffffffffffffffffff\n  and\n    /* \"@openzeppelin/contracts/access/Ownable.sol\":2431:2439  oldOwner */\n  dup2\n    /* \"@openzeppelin/contracts/access/Ownable.sol\":2410:2450  OwnershipTransferred(oldOwner, newOwner) */\n  0xffffffffffffffffffffffffffffffffffffffff\n  and\n  0x8be0079c531659141344cd1fd0a4f28419497f9722a3daafe3b4186f6b6457e0\n  mload(0x40)\n  mload(0x40)\n  dup1\n  swap2\n  sub\n  swap1\n  log3\n    /* \"@openzeppelin/contracts/access/Ownable.sol\":2333:2457  {... */\n  pop\n    /* \"@openzeppelin/contracts/access/Ownable.sol\":2270:2457  function _transferOwnership(address newOwner) internal virtual {... */\n  pop\n  jump\t// out\n    /* \"contracts/SyCrowBarter.sol\":269:11337  contract SyCrowBarter is ISyCrowBarter, Ownable {... */\ntag_10:\n  mload(0x80)\n  codecopy(0x00, dataOffset(sub_0), dataSize(sub_0))\n  0x00\n  assignImmutable(\"0x26a975632f70533c9512e57b565b8ce8e2befee6b08dfbc27c4a897a20e2c1d6\")\n  return(0x00, dataSize(sub_0))\nstop\n\nsub_0: assembly {\n        /* \"contracts/SyCrowBarter.sol\":269:11337  contract SyCrowBarter is ISyCrowBarter, Ownable {... */\n      mstore(0x40, 0x80)\n      jumpi(tag_1, lt(calldatasize, 0x04))\n      shr(0xe0, calldataload(0x00))\n      dup1\n      0x8da5cb5b\n      gt\n      tag_20\n      jumpi\n      dup1\n      0xc45a0155\n      gt\n      tag_21\n      jumpi\n      dup1\n      0xc45a0155\n      eq\n      tag_15\n      jumpi\n      dup1\n      0xd7bdfc75\n      eq\n      tag_16\n      jumpi\n      dup1\n      0xdab5a8df\n      eq\n      tag_17\n      jumpi\n      dup1\n      0xe43372e9\n      eq\n      tag_18\n      jumpi\n      dup1\n      0xf2fde38b\n      eq\n      tag_19\n      jumpi\n      jump(tag_1)\n    tag_21:\n      dup1\n      0x8da5cb5b\n      eq\n      tag_11\n      jumpi\n      dup1\n      0xa09702b1\n      eq\n      tag_12\n      jumpi\n      dup1\n      0xaa6ca808\n      eq\n      tag_13\n      jumpi\n      dup1\n      0xabd050ea\n      eq\n      tag_14\n      jumpi\n      jump(tag_1)\n    tag_20:\n      dup1\n      0x3d370b4e\n      gt\n      tag_22\n      jumpi\n      dup1\n      0x3d370b4e\n      eq\n      tag_6\n      jumpi\n      dup1\n      0x4341f920\n      eq\n      tag_7\n      jumpi\n      dup1\n      0x51cff8d9\n      eq\n      tag_8\n      jumpi\n      dup1\n      0x5f5780e5\n      eq\n      tag_9\n      jumpi\n      dup1\n      0x715018a6\n      eq\n      tag_10\n      jumpi\n      jump(tag_1)\n    tag_22:\n      dup1\n      0x0d182605\n      eq\n      tag_2\n      jumpi\n      dup1\n      0x2ffc6887\n      eq\n      tag_3\n      jumpi\n      dup1\n      0x3072cf60\n      eq\n      tag_4\n      jumpi\n      dup1\n      0x3ccfd60b\n      eq\n      tag_5\n      jumpi\n    tag_1:\n      0x00\n      dup1\n      revert\n        /* \"contracts/SyCrowBarter.sol\":4343:4612  function tradeTokenForEth(uint256 inAmount)... */\n    tag_2:\n      callvalue\n      dup1\n      iszero\n      tag_23\n      jumpi\n      0x00\n      dup1\n      revert\n    tag_23:\n      pop\n      tag_24\n      0x04\n      dup1\n      calldatasize\n      sub\n      dup2\n      add\n      swap1\n      tag_25\n      swap2\n      swap1\n      tag_26\n      jump\t// in\n    tag_25:\n      tag_27\n      jump\t// in\n    tag_24:\n      stop\n        /* \"contracts/SyCrowBarter.sol\":4062:4337  function tradeTokenForToken(uint256 inAmount)... */\n    tag_3:\n      callvalue\n      dup1\n      iszero\n      tag_28\n      jumpi\n      0x00\n      dup1\n      revert\n    tag_28:\n      pop\n      tag_29\n      0x04\n      dup1\n      calldatasize\n      sub\n      dup2\n      add\n      swap1\n      tag_30\n      swap2\n      swap1\n      tag_26\n      jump\t// in\n    tag_30:\n      tag_31\n      jump\t// in\n    tag_29:\n      stop\n        /* \"contracts/SyCrowBarter.sol\":469:501  bool public _initialized = false */\n    tag_4:\n      callvalue\n      dup1\n      iszero\n      tag_32\n      jumpi\n      0x00\n      dup1\n      revert\n    tag_32:\n      pop\n      tag_33\n      tag_34\n      jump\t// in\n    tag_33:\n      mload(0x40)\n      tag_35\n      swap2\n      swap1\n      tag_36\n      jump\t// in\n    tag_35:\n      mload(0x40)\n      dup1\n      swap2\n      sub\n      swap1\n      return\n        /* \"contracts/SyCrowBarter.sol\":8575:10294  function withdraw() external override checkInActive initialized onlyOwner {... */\n    tag_5:\n      callvalue\n      dup1\n      iszero\n      tag_37\n      jumpi\n      0x00\n      dup1\n      revert\n    tag_37:\n      pop\n      tag_38\n      tag_39\n      jump\t// in\n    tag_38:\n      stop\n        /* \"contracts/SyCrowBarter.sol\":2972:3159  function getAmounts()... */\n    tag_6:\n      callvalue\n      dup1\n      iszero\n      tag_40\n      jumpi\n      0x00\n      dup1\n      revert\n    tag_40:\n      pop\n      tag_41\n      tag_42\n      jump\t// in\n    tag_41:\n      mload(0x40)\n      tag_43\n      swap3\n      swap2\n      swap1\n      tag_44\n      jump\t// in\n    tag_43:\n      mload(0x40)\n      dup1\n      swap2\n      sub\n      swap1\n      return\n        /* \"contracts/SyCrowBarter.sol\":4618:4903  function tradeEthForToken(uint256 inAmount)... */\n    tag_7:\n      tag_45\n      0x04\n      dup1\n      calldatasize\n      sub\n      dup2\n      add\n      swap1\n      tag_46\n      swap2\n      swap1\n      tag_26\n      jump\t// in\n    tag_46:\n      tag_47\n      jump\t// in\n    tag_45:\n      stop\n        /* \"contracts/SyCrowBarter.sol\":10300:10977  function withdraw(address _erc20TokenAddress)... */\n    tag_8:\n      callvalue\n      dup1\n      iszero\n      tag_48\n      jumpi\n      0x00\n      dup1\n      revert\n    tag_48:\n      pop\n      tag_49\n      0x04\n      dup1\n      calldatasize\n      sub\n      dup2\n      add\n      swap1\n      tag_50\n      swap2\n      swap1\n      tag_51\n      jump\t// in\n    tag_50:\n      tag_52\n      jump\t// in\n    tag_49:\n      stop\n        /* \"contracts/SyCrowBarter.sol\":1946:2966  function initialize(... */\n    tag_9:\n      callvalue\n      dup1\n      iszero\n      tag_53\n      jumpi\n      0x00\n      dup1\n      revert\n    tag_53:\n      pop\n      tag_54\n      0x04\n      dup1\n      calldatasize\n      sub\n      dup2\n      add\n      swap1\n      tag_55\n      swap2\n      swap1\n      tag_56\n      jump\t// in\n    tag_55:\n      tag_57\n      jump\t// in\n    tag_54:\n      mload(0x40)\n      tag_58\n      swap2\n      swap1\n      tag_36\n      jump\t// in\n    tag_58:\n      mload(0x40)\n      dup1\n      swap2\n      sub\n      swap1\n      return\n        /* \"@openzeppelin/contracts/access/Ownable.sol\":1668:1769  function renounceOwnership() public virtual onlyOwner {... */\n    tag_10:\n      callvalue\n      dup1\n      iszero\n      tag_59\n      jumpi\n      0x00\n      dup1\n      revert\n    tag_59:\n      pop\n      tag_60\n      tag_61\n      jump\t// in\n    tag_60:\n      stop\n        /* \"@openzeppelin/contracts/access/Ownable.sol\":1036:1121  function owner() public view virtual returns (address) {... */\n    tag_11:\n      callvalue\n      dup1\n      iszero\n      tag_62\n      jumpi\n      0x00\n      dup1\n      revert\n    tag_62:\n      pop\n      tag_63\n      tag_64\n      jump\t// in\n    tag_63:\n      mload(0x40)\n      tag_65\n      swap2\n      swap1\n      tag_66\n      jump\t// in\n    tag_65:\n      mload(0x40)\n      dup1\n      swap2\n      sub\n      swap1\n      return\n        /* \"contracts/SyCrowBarter.sol\":5155:5389  function tradeTokenForEth()... */\n    tag_12:\n      callvalue\n      dup1\n      iszero\n      tag_67\n      jumpi\n      0x00\n      dup1\n      revert\n    tag_67:\n      pop\n      tag_68\n      tag_69\n      jump\t// in\n    tag_68:\n      stop\n        /* \"contracts/SyCrowBarter.sol\":3165:3363  function getTokens()... */\n    tag_13:\n      callvalue\n      dup1\n      iszero\n      tag_70\n      jumpi\n      0x00\n      dup1\n      revert\n    tag_70:\n      pop\n      tag_71\n      tag_72\n      jump\t// in\n    tag_71:\n      mload(0x40)\n      tag_73\n      swap3\n      swap2\n      swap1\n      tag_74\n      jump\t// in\n    tag_73:\n      mload(0x40)\n      dup1\n      swap2\n      sub\n      swap1\n      return\n        /* \"contracts/SyCrowBarter.sol\":4909:5149  function tradeTokenForToken()... */\n    tag_14:\n      callvalue\n      dup1\n      iszero\n      tag_75\n      jumpi\n      0x00\n      dup1\n      revert\n    tag_75:\n      pop\n      tag_76\n      tag_77\n      jump\t// in\n    tag_76:\n      stop\n        /* \"contracts/SyCrowBarter.sol\":323:364  address public immutable override factory */\n    tag_15:\n      callvalue\n      dup1\n      iszero\n      tag_78\n      jumpi\n      0x00\n      dup1\n      revert\n    tag_78:\n      pop\n      tag_79\n      tag_80\n      jump\t// in\n    tag_79:\n      mload(0x40)\n      tag_81\n      swap2\n      swap1\n      tag_66\n      jump\t// in\n    tag_81:\n      mload(0x40)\n      dup1\n      swap2\n      sub\n      swap1\n      return\n        /* \"contracts/SyCrowBarter.sol\":5395:5645  function tradeEthForToken()... */\n    tag_16:\n      tag_82\n      tag_83\n      jump\t// in\n    tag_82:\n      stop\n        /* \"contracts/SyCrowBarter.sol\":10983:11156  function getTradeOutAmount(uint256 amount)... */\n    tag_17:\n      callvalue\n      dup1\n      iszero\n      tag_84\n      jumpi\n      0x00\n      dup1\n      revert\n    tag_84:\n      pop\n      tag_85\n      0x04\n      dup1\n      calldatasize\n      sub\n      dup2\n      add\n      swap1\n      tag_86\n      swap2\n      swap1\n      tag_26\n      jump\t// in\n    tag_86:\n      tag_87\n      jump\t// in\n    tag_85:\n      mload(0x40)\n      tag_88\n      swap2\n      swap1\n      tag_89\n      jump\t// in\n    tag_88:\n      mload(0x40)\n      dup1\n      swap2\n      sub\n      swap1\n      return\n        /* \"contracts/SyCrowBarter.sol\":3370:4056  function getTrades()... */\n    tag_18:\n      callvalue\n      dup1\n      iszero\n      tag_90\n      jumpi\n      0x00\n      dup1\n      revert\n    tag_90:\n      pop\n      tag_91\n      tag_92\n      jump\t// in\n    tag_91:\n      mload(0x40)\n      tag_93\n      swap4\n      swap3\n      swap2\n      swap1\n      tag_94\n      jump\t// in\n    tag_93:\n      mload(0x40)\n      dup1\n      swap2\n      sub\n      swap1\n      return\n        /* \"@openzeppelin/contracts/access/Ownable.sol\":1918:2116  function transferOwnership(address newOwner) public virtual onlyOwner {... */\n    tag_19:\n      callvalue\n      dup1\n      iszero\n      tag_95\n      jumpi\n      0x00\n      dup1\n      revert\n    tag_95:\n      pop\n      tag_96\n      0x04\n      dup1\n      calldatasize\n      sub\n      dup2\n      add\n      swap1\n      tag_97\n      swap2\n      swap1\n      tag_51\n      jump\t// in\n    tag_97:\n      tag_98\n      jump\t// in\n    tag_96:\n      stop\n        /* \"contracts/SyCrowBarter.sol\":4343:4612  function tradeTokenForEth(uint256 inAmount)... */\n    tag_27:\n        /* \"contracts/SyCrowBarter.sol\":968:983  block.timestamp */\n      timestamp\n        /* \"contracts/SyCrowBarter.sol\":955:964  _deadline */\n      sload(0x03)\n        /* \"contracts/SyCrowBarter.sol\":955:983  _deadline >= block.timestamp */\n      lt\n      iszero\n        /* \"contracts/SyCrowBarter.sol\":955:1021  _deadline >= block.timestamp && totalTradeAmount < _expectedAmount */\n      dup1\n      iszero\n      tag_100\n      jumpi\n      pop\n        /* \"contracts/SyCrowBarter.sol\":1006:1021  _expectedAmount */\n      sload(0x07)\n        /* \"contracts/SyCrowBarter.sol\":987:1003  totalTradeAmount */\n      sload(0x01)\n        /* \"contracts/SyCrowBarter.sol\":987:1021  totalTradeAmount < _expectedAmount */\n      lt\n        /* \"contracts/SyCrowBarter.sol\":955:1021  _deadline >= block.timestamp && totalTradeAmount < _expectedAmount */\n    tag_100:\n        /* \"contracts/SyCrowBarter.sol\":934:1069  require(... */\n      tag_101\n      jumpi\n      mload(0x40)\n      0x08c379a000000000000000000000000000000000000000000000000000000000\n      dup2\n      mstore\n      0x04\n      add\n      tag_102\n      swap1\n      tag_103\n      jump\t// in\n    tag_102:\n      mload(0x40)\n      dup1\n      swap2\n      sub\n      swap1\n      revert\n    tag_101:\n        /* \"contracts/SyCrowBarter.sol\":1486:1498  _initialized */\n      0x04\n      0x00\n      swap1\n      sload\n      swap1\n      0x0100\n      exp\n      swap1\n      div\n      0xff\n      and\n        /* \"contracts/SyCrowBarter.sol\":1478:1532  require(_initialized, \"SyCrowBarter: NOT_INITIALIZED\") */\n      tag_105\n      jumpi\n      mload(0x40)\n      0x08c379a000000000000000000000000000000000000000000000000000000000\n      dup2\n      mstore\n      0x04\n      add\n      tag_106\n      swap1\n      tag_107\n      jump\t// in\n    tag_106:\n      mload(0x40)\n      dup1\n      swap2\n      sub\n      swap1\n      revert\n    tag_105:\n        /* \"contracts/SyCrowBarter.sol\":1719:1752  ISyCrowBarterFactory isycrFactory */\n      0x00\n        /* \"contracts/SyCrowBarter.sol\":1776:1783  factory */\n      immutable(\"0x26a975632f70533c9512e57b565b8ce8e2befee6b08dfbc27c4a897a20e2c1d6\")\n        /* \"contracts/SyCrowBarter.sol\":1719:1784  ISyCrowBarterFactory isycrFactory = ISyCrowBarterFactory(factory) */\n      swap1\n      pop\n        /* \"contracts/SyCrowBarter.sol\":1803:1815  isycrFactory */\n      dup1\n        /* \"contracts/SyCrowBarter.sol\":1803:1824  isycrFactory.isPaused */\n      0xffffffffffffffffffffffffffffffffffffffff\n      and\n      0xb187bd26\n        /* \"contracts/SyCrowBarter.sol\":1803:1826  isycrFactory.isPaused() */\n      mload(0x40)\n      dup2\n      0xffffffff\n      and\n      0xe0\n      shl\n      dup2\n      mstore\n      0x04\n      add\n      0x20\n      mload(0x40)\n      dup1\n      dup4\n      sub\n      dup2\n      dup7\n      gas\n      staticcall\n      iszero\n      dup1\n      iszero\n      tag_110\n      jumpi\n      returndatasize\n      0x00\n      dup1\n      returndatacopy\n      revert(0x00, returndatasize)\n    tag_110:\n      pop\n      pop\n      pop\n      pop\n      mload(0x40)\n      returndatasize\n      not(0x1f)\n      0x1f\n      dup3\n      add\n      and\n      dup3\n      add\n      dup1\n      0x40\n      mstore\n      pop\n      dup2\n      add\n      swap1\n      tag_111\n      swap2\n      swap1\n      tag_112\n      jump\t// in\n    tag_111:\n        /* \"contracts/SyCrowBarter.sol\":1802:1826  !isycrFactory.isPaused() */\n      iszero\n        /* \"contracts/SyCrowBarter.sol\":1794:1865  require(!isycrFactory.isPaused(), \"SyCrowBarter: Base Contract Paused\") */\n      tag_113\n      jumpi\n      mload(0x40)\n      0x08c379a000000000000000000000000000000000000000000000000000000000\n      dup2\n      mstore\n      0x04\n      add\n      tag_114\n      swap1\n      tag_115\n      jump\t// in\n    tag_114:\n      mload(0x40)\n      dup1\n      swap2\n      sub\n      swap1\n      revert\n    tag_113:\n        /* \"contracts/SyCrowBarter.sol\":1603:1620  _allowMultiBarter */\n      0x08\n      0x00\n      swap1\n      sload\n      swap1\n      0x0100\n      exp\n      swap1\n      div\n      0xff\n      and\n        /* \"contracts/SyCrowBarter.sol\":1595:1662  require(_allowMultiBarter, \"SyCrowBarter: MULTI_TRADE_NOT_ENABLED\") */\n      tag_117\n      jumpi\n      mload(0x40)\n      0x08c379a000000000000000000000000000000000000000000000000000000000\n      dup2\n      mstore\n      0x04\n      add\n      tag_118\n      swap1\n      tag_119\n      jump\t// in\n    tag_118:\n      mload(0x40)\n      dup1\n      swap2\n      sub\n      swap1\n      revert\n    tag_117:\n        /* \"contracts/SyCrowBarter.sol\":4531:4562  ISyCrowBarterType.ETH_FOR_TOKEN */\n      0x00\n        /* \"contracts/SyCrowBarter.sol\":1180:1191  _barterType */\n      0x08\n      0x01\n      swap1\n      sload\n      swap1\n      0x0100\n      exp\n      swap1\n      div\n      0xff\n      and\n        /* \"contracts/SyCrowBarter.sol\":1166:1191  barterType == _barterType */\n      0x02\n      dup2\n      gt\n      iszero\n      tag_121\n      jumpi\n      tag_122\n      tag_123\n      jump\t// in\n    tag_122:\n    tag_121:\n        /* \"contracts/SyCrowBarter.sol\":1166:1176  barterType */\n      dup2\n        /* \"contracts/SyCrowBarter.sol\":1166:1191  barterType == _barterType */\n      0x02\n      dup2\n      gt\n      iszero\n      tag_124\n      jumpi\n      tag_125\n      tag_123\n      jump\t// in\n    tag_125:\n    tag_124:\n      eq\n        /* \"contracts/SyCrowBarter.sol\":1158:1229  require(barterType == _barterType, \"SyCrowBarter: INVALID_BARTER_TYPE\") */\n      tag_126\n      jumpi\n      mload(0x40)\n      0x08c379a000000000000000000000000000000000000000000000000000000000\n      dup2\n      mstore\n      0x04\n      add\n      tag_127\n      swap1\n      tag_128\n      jump\t// in\n    tag_127:\n      mload(0x40)\n      dup1\n      swap2\n      sub\n      swap1\n      revert\n    tag_126:\n        /* \"contracts/SyCrowBarter.sol\":4578:4605  _tradeTokenForEth(inAmount) */\n      tag_130\n        /* \"contracts/SyCrowBarter.sol\":4596:4604  inAmount */\n      dup4\n        /* \"contracts/SyCrowBarter.sol\":4578:4595  _tradeTokenForEth */\n      tag_131\n        /* \"contracts/SyCrowBarter.sol\":4578:4605  _tradeTokenForEth(inAmount) */\n      jump\t// in\n    tag_130:\n        /* \"contracts/SyCrowBarter.sol\":1672:1673  _ */\n      pop\n        /* \"contracts/SyCrowBarter.sol\":1709:1883  {... */\n      pop\n        /* \"contracts/SyCrowBarter.sol\":4343:4612  function tradeTokenForEth(uint256 inAmount)... */\n      pop\n      jump\t// out\n        /* \"contracts/SyCrowBarter.sol\":4062:4337  function tradeTokenForToken(uint256 inAmount)... */\n    tag_31:\n        /* \"contracts/SyCrowBarter.sol\":968:983  block.timestamp */\n      timestamp\n        /* \"contracts/SyCrowBarter.sol\":955:964  _deadline */\n      sload(0x03)\n        /* \"contracts/SyCrowBarter.sol\":955:983  _deadline >= block.timestamp */\n      lt\n      iszero\n        /* \"contracts/SyCrowBarter.sol\":955:1021  _deadline >= block.timestamp && totalTradeAmount < _expectedAmount */\n      dup1\n      iszero\n      tag_133\n      jumpi\n      pop\n        /* \"contracts/SyCrowBarter.sol\":1006:1021  _expectedAmount */\n      sload(0x07)\n        /* \"contracts/SyCrowBarter.sol\":987:1003  totalTradeAmount */\n      sload(0x01)\n        /* \"contracts/SyCrowBarter.sol\":987:1021  totalTradeAmount < _expectedAmount */\n      lt\n        /* \"contracts/SyCrowBarter.sol\":955:1021  _deadline >= block.timestamp && totalTradeAmount < _expectedAmount */\n    tag_133:\n        /* \"contracts/SyCrowBarter.sol\":934:1069  require(... */\n      tag_134\n      jumpi\n      mload(0x40)\n      0x08c379a000000000000000000000000000000000000000000000000000000000\n      dup2\n      mstore\n      0x04\n      add\n      tag_135\n      swap1\n      tag_103\n      jump\t// in\n    tag_135:\n      mload(0x40)\n      dup1\n      swap2\n      sub\n      swap1\n      revert\n    tag_134:\n        /* \"contracts/SyCrowBarter.sol\":1486:1498  _initialized */\n      0x04\n      0x00\n      swap1\n      sload\n      swap1\n      0x0100\n      exp\n      swap1\n      div\n      0xff\n      and\n        /* \"contracts/SyCrowBarter.sol\":1478:1532  require(_initialized, \"SyCrowBarter: NOT_INITIALIZED\") */\n      tag_137\n      jumpi\n      mload(0x40)\n      0x08c379a000000000000000000000000000000000000000000000000000000000\n      dup2\n      mstore\n      0x04\n      add\n      tag_138\n      swap1\n      tag_107\n      jump\t// in\n    tag_138:\n      mload(0x40)\n      dup1\n      swap2\n      sub\n      swap1\n      revert\n    tag_137:\n        /* \"contracts/SyCrowBarter.sol\":1719:1752  ISyCrowBarterFactory isycrFactory */\n      0x00\n        /* \"contracts/SyCrowBarter.sol\":1776:1783  factory */\n      immutable(\"0x26a975632f70533c9512e57b565b8ce8e2befee6b08dfbc27c4a897a20e2c1d6\")\n        /* \"contracts/SyCrowBarter.sol\":1719:1784  ISyCrowBarterFactory isycrFactory = ISyCrowBarterFactory(factory) */\n      swap1\n      pop\n        /* \"contracts/SyCrowBarter.sol\":1803:1815  isycrFactory */\n      dup1\n        /* \"contracts/SyCrowBarter.sol\":1803:1824  isycrFactory.isPaused */\n      0xffffffffffffffffffffffffffffffffffffffff\n      and\n      0xb187bd26\n        /* \"contracts/SyCrowBarter.sol\":1803:1826  isycrFactory.isPaused() */\n      mload(0x40)\n      dup2\n      0xffffffff\n      and\n      0xe0\n      shl\n      dup2\n      mstore\n      0x04\n      add\n      0x20\n      mload(0x40)\n      dup1\n      dup4\n      sub\n      dup2\n      dup7\n      gas\n      staticcall\n      iszero\n      dup1\n      iszero\n      tag_141\n      jumpi\n      returndatasize\n      0x00\n      dup1\n      returndatacopy\n      revert(0x00, returndatasize)\n    tag_141:\n      pop\n      pop\n      pop\n      pop\n      mload(0x40)\n      returndatasize\n      not(0x1f)\n      0x1f\n      dup3\n      add\n      and\n      dup3\n      add\n      dup1\n      0x40\n      mstore\n      pop\n      dup2\n      add\n      swap1\n      tag_142\n      swap2\n      swap1\n      tag_112\n      jump\t// in\n    tag_142:\n        /* \"contracts/SyCrowBarter.sol\":1802:1826  !isycrFactory.isPaused() */\n      iszero\n        /* \"contracts/SyCrowBarter.sol\":1794:1865  require(!isycrFactory.isPaused(), \"SyCrowBarter: Base Contract Paused\") */\n      tag_143\n      jumpi\n      mload(0x40)\n      0x08c379a000000000000000000000000000000000000000000000000000000000\n      dup2\n      mstore\n      0x04\n      add\n      tag_144\n      swap1\n      tag_115\n      jump\t// in\n    tag_144:\n      mload(0x40)\n      dup1\n      swap2\n      sub\n      swap1\n      revert\n    tag_143:\n        /* \"contracts/SyCrowBarter.sol\":1603:1620  _allowMultiBarter */\n      0x08\n      0x00\n      swap1\n      sload\n      swap1\n      0x0100\n      exp\n      swap1\n      div\n      0xff\n      and\n        /* \"contracts/SyCrowBarter.sol\":1595:1662  require(_allowMultiBarter, \"SyCrowBarter: MULTI_TRADE_NOT_ENABLED\") */\n      tag_146\n      jumpi\n      mload(0x40)\n      0x08c379a000000000000000000000000000000000000000000000000000000000\n      dup2\n      mstore\n      0x04\n      add\n      tag_147\n      swap1\n      tag_119\n      jump\t// in\n    tag_147:\n      mload(0x40)\n      dup1\n      swap2\n      sub\n      swap1\n      revert\n    tag_146:\n        /* \"contracts/SyCrowBarter.sol\":4252:4285  ISyCrowBarterType.TOKEN_FOR_TOKEN */\n      0x02\n        /* \"contracts/SyCrowBarter.sol\":1180:1191  _barterType */\n      0x08\n      0x01\n      swap1\n      sload\n      swap1\n      0x0100\n      exp\n      swap1\n      div\n      0xff\n      and\n        /* \"contracts/SyCrowBarter.sol\":1166:1191  barterType == _barterType */\n      0x02\n      dup2\n      gt\n      iszero\n      tag_149\n      jumpi\n      tag_150\n      tag_123\n      jump\t// in\n    tag_150:\n    tag_149:\n        /* \"contracts/SyCrowBarter.sol\":1166:1176  barterType */\n      dup2\n        /* \"contracts/SyCrowBarter.sol\":1166:1191  barterType == _barterType */\n      0x02\n      dup2\n      gt\n      iszero\n      tag_151\n      jumpi\n      tag_152\n      tag_123\n      jump\t// in\n    tag_152:\n    tag_151:\n      eq\n        /* \"contracts/SyCrowBarter.sol\":1158:1229  require(barterType == _barterType, \"SyCrowBarter: INVALID_BARTER_TYPE\") */\n      tag_153\n      jumpi\n      mload(0x40)\n      0x08c379a000000000000000000000000000000000000000000000000000000000\n      dup2\n      mstore\n      0x04\n      add\n      tag_154\n      swap1\n      tag_128\n      jump\t// in\n    tag_154:\n      mload(0x40)\n      dup1\n      swap2\n      sub\n      swap1\n      revert\n    tag_153:\n        /* \"contracts/SyCrowBarter.sol\":4301:4330  _tradeTokenForToken(inAmount) */\n      tag_156\n        /* \"contracts/SyCrowBarter.sol\":4321:4329  inAmount */\n      dup4\n        /* \"contracts/SyCrowBarter.sol\":4301:4320  _tradeTokenForToken */\n      tag_157\n        /* \"contracts/SyCrowBarter.sol\":4301:4330  _tradeTokenForToken(inAmount) */\n      jump\t// in\n    tag_156:\n        /* \"contracts/SyCrowBarter.sol\":1672:1673  _ */\n      pop\n        /* \"contracts/SyCrowBarter.sol\":1709:1883  {... */\n      pop\n        /* \"contracts/SyCrowBarter.sol\":4062:4337  function tradeTokenForToken(uint256 inAmount)... */\n      pop\n      jump\t// out\n        /* \"contracts/SyCrowBarter.sol\":469:501  bool public _initialized = false */\n    tag_34:\n      0x04\n      0x00\n      swap1\n      sload\n      swap1\n      0x0100\n      exp\n      swap1\n      div\n      0xff\n      and\n      dup2\n      jump\t// out\n        /* \"contracts/SyCrowBarter.sol\":8575:10294  function withdraw() external override checkInActive initialized onlyOwner {... */\n    tag_39:\n        /* \"contracts/SyCrowBarter.sol\":1321:1336  block.timestamp */\n      timestamp\n        /* \"contracts/SyCrowBarter.sol\":1309:1318  _deadline */\n      sload(0x03)\n        /* \"contracts/SyCrowBarter.sol\":1309:1336  _deadline < block.timestamp */\n      lt\n        /* \"contracts/SyCrowBarter.sol\":1309:1375  _deadline < block.timestamp || totalTradeAmount >= _expectedAmount */\n      dup1\n      tag_159\n      jumpi\n      pop\n        /* \"contracts/SyCrowBarter.sol\":1360:1375  _expectedAmount */\n      sload(0x07)\n        /* \"contracts/SyCrowBarter.sol\":1340:1356  totalTradeAmount */\n      sload(0x01)\n        /* \"contracts/SyCrowBarter.sol\":1340:1375  totalTradeAmount >= _expectedAmount */\n      lt\n      iszero\n        /* \"contracts/SyCrowBarter.sol\":1309:1375  _deadline < block.timestamp || totalTradeAmount >= _expectedAmount */\n    tag_159:\n        /* \"contracts/SyCrowBarter.sol\":1288:1421  require(... */\n      tag_160\n      jumpi\n      mload(0x40)\n      0x08c379a000000000000000000000000000000000000000000000000000000000\n      dup2\n      mstore\n      0x04\n      add\n      tag_161\n      swap1\n      tag_162\n      jump\t// in\n    tag_161:\n      mload(0x40)\n      dup1\n      swap2\n      sub\n      swap1\n      revert\n    tag_160:\n        /* \"contracts/SyCrowBarter.sol\":1486:1498  _initialized */\n      0x04\n      0x00\n      swap1\n      sload\n      swap1\n      0x0100\n      exp\n      swap1\n      div\n      0xff\n      and\n        /* \"contracts/SyCrowBarter.sol\":1478:1532  require(_initialized, \"SyCrowBarter: NOT_INITIALIZED\") */\n      tag_164\n      jumpi\n      mload(0x40)\n      0x08c379a000000000000000000000000000000000000000000000000000000000\n      dup2\n      mstore\n      0x04\n      add\n      tag_165\n      swap1\n      tag_107\n      jump\t// in\n    tag_165:\n      mload(0x40)\n      dup1\n      swap2\n      sub\n      swap1\n      revert\n    tag_164:\n        /* \"@openzeppelin/contracts/access/Ownable.sol\":1259:1271  _msgSender() */\n      tag_167\n        /* \"@openzeppelin/contracts/access/Ownable.sol\":1259:1269  _msgSender */\n      tag_168\n        /* \"@openzeppelin/contracts/access/Ownable.sol\":1259:1271  _msgSender() */\n      jump\t// in\n    tag_167:\n        /* \"@openzeppelin/contracts/access/Ownable.sol\":1248:1271  owner() == _msgSender() */\n      0xffffffffffffffffffffffffffffffffffffffff\n      and\n        /* \"@openzeppelin/contracts/access/Ownable.sol\":1248:1255  owner() */\n      tag_169\n        /* \"@openzeppelin/contracts/access/Ownable.sol\":1248:1253  owner */\n      tag_64\n        /* \"@openzeppelin/contracts/access/Ownable.sol\":1248:1255  owner() */\n      jump\t// in\n    tag_169:\n        /* \"@openzeppelin/contracts/access/Ownable.sol\":1248:1271  owner() == _msgSender() */\n      0xffffffffffffffffffffffffffffffffffffffff\n      and\n      eq\n        /* \"@openzeppelin/contracts/access/Ownable.sol\":1240:1308  require(owner() == _msgSender(), \"Ownable: caller is not the owner\") */\n      tag_170\n      jumpi\n      mload(0x40)\n      0x08c379a000000000000000000000000000000000000000000000000000000000\n      dup2\n      mstore\n      0x04\n      add\n      tag_171\n      swap1\n      tag_172\n      jump\t// in\n    tag_171:\n      mload(0x40)\n      dup1\n      swap2\n      sub\n      swap1\n      revert\n    tag_170:\n        /* \"contracts/SyCrowBarter.sol\":8659:8670  IWETH _weth */\n      0x00\n        /* \"contracts/SyCrowBarter.sol\":8679:8683  WETH */\n      0x02\n      0x00\n      swap1\n      sload\n      swap1\n      0x0100\n      exp\n      swap1\n      div\n      0xffffffffffffffffffffffffffffffffffffffff\n      and\n        /* \"contracts/SyCrowBarter.sol\":8659:8684  IWETH _weth = IWETH(WETH) */\n      swap1\n      pop\n        /* \"contracts/SyCrowBarter.sol\":8695:8713  uint256 ethBalance */\n      0x00\n        /* \"contracts/SyCrowBarter.sol\":8716:8721  _weth */\n      dup2\n        /* \"contracts/SyCrowBarter.sol\":8716:8731  _weth.balanceOf */\n      0xffffffffffffffffffffffffffffffffffffffff\n      and\n      0x70a08231\n        /* \"contracts/SyCrowBarter.sol\":8740:8744  this */\n      address\n        /* \"contracts/SyCrowBarter.sol\":8716:8746  _weth.balanceOf(address(this)) */\n      mload(0x40)\n      dup3\n      0xffffffff\n      and\n      0xe0\n      shl\n      dup2\n      mstore\n      0x04\n      add\n      tag_174\n      swap2\n      swap1\n      tag_66\n      jump\t// in\n    tag_174:\n      0x20\n      mload(0x40)\n      dup1\n      dup4\n      sub\n      dup2\n      dup7\n      gas\n      staticcall\n      iszero\n      dup1\n      iszero\n      tag_176\n      jumpi\n      returndatasize\n      0x00\n      dup1\n      returndatacopy\n      revert(0x00, returndatasize)\n    tag_176:\n      pop\n      pop\n      pop\n      pop\n      mload(0x40)\n      returndatasize\n      not(0x1f)\n      0x1f\n      dup3\n      add\n      and\n      dup3\n      add\n      dup1\n      0x40\n      mstore\n      pop\n      dup2\n      add\n      swap1\n      tag_177\n      swap2\n      swap1\n      tag_178\n      jump\t// in\n    tag_177:\n        /* \"contracts/SyCrowBarter.sol\":8695:8746  uint256 ethBalance = _weth.balanceOf(address(this)) */\n      swap1\n      pop\n        /* \"contracts/SyCrowBarter.sol\":8774:8775  0 */\n      0x00\n        /* \"contracts/SyCrowBarter.sol\":8761:8771  ethBalance */\n      dup2\n        /* \"contracts/SyCrowBarter.sol\":8761:8775  ethBalance > 0 */\n      gt\n        /* \"contracts/SyCrowBarter.sol\":8757:8902  if (ethBalance > 0) {... */\n      iszero\n      tag_179\n      jumpi\n        /* \"contracts/SyCrowBarter.sol\":8797:8801  WETH */\n      0x02\n      0x00\n      swap1\n      sload\n      swap1\n      0x0100\n      exp\n      swap1\n      div\n      0xffffffffffffffffffffffffffffffffffffffff\n      and\n        /* \"contracts/SyCrowBarter.sol\":8791:8811  IWETH(WETH).withdraw */\n      0xffffffffffffffffffffffffffffffffffffffff\n      and\n      0x2e1a7d4d\n        /* \"contracts/SyCrowBarter.sol\":8812:8822  ethBalance */\n      dup3\n        /* \"contracts/SyCrowBarter.sol\":8791:8823  IWETH(WETH).withdraw(ethBalance) */\n      mload(0x40)\n      dup3\n      0xffffffff\n      and\n      0xe0\n      shl\n      dup2\n      mstore\n      0x04\n      add\n      tag_180\n      swap2\n      swap1\n      tag_89\n      jump\t// in\n    tag_180:\n      0x00\n      mload(0x40)\n      dup1\n      dup4\n      sub\n      dup2\n      0x00\n      dup8\n      dup1\n      extcodesize\n      iszero\n      dup1\n      iszero\n      tag_181\n      jumpi\n      0x00\n      dup1\n      revert\n    tag_181:\n      pop\n      gas\n      call\n      iszero\n      dup1\n      iszero\n      tag_183\n      jumpi\n      returndatasize\n      0x00\n      dup1\n      returndatacopy\n      revert(0x00, returndatasize)\n    tag_183:\n      pop\n      pop\n      pop\n      pop\n        /* \"contracts/SyCrowBarter.sol\":8837:8891  TransferHelper.safeTransferETH(msg.sender, ethBalance) */\n      tag_184\n        /* \"contracts/SyCrowBarter.sol\":8868:8878  msg.sender */\n      caller\n        /* \"contracts/SyCrowBarter.sol\":8880:8890  ethBalance */\n      dup3\n        /* \"contracts/SyCrowBarter.sol\":8837:8867  TransferHelper.safeTransferETH */\n      tag_185\n        /* \"contracts/SyCrowBarter.sol\":8837:8891  TransferHelper.safeTransferETH(msg.sender, ethBalance) */\n      jump\t// in\n    tag_184:\n        /* \"contracts/SyCrowBarter.sol\":8757:8902  if (ethBalance > 0) {... */\n    tag_179:\n        /* \"contracts/SyCrowBarter.sol\":8912:8940  uint256 expectedTokenBalance */\n      0x00\n        /* \"contracts/SyCrowBarter.sol\":8950:8971  _expectedTokenAddress */\n      0x05\n      0x00\n      swap1\n      sload\n      swap1\n      0x0100\n      exp\n      swap1\n      div\n      0xffffffffffffffffffffffffffffffffffffffff\n      and\n        /* \"contracts/SyCrowBarter.sol\":8943:8982  IERC20(_expectedTokenAddress).balanceOf */\n      0xffffffffffffffffffffffffffffffffffffffff\n      and\n      0x70a08231\n        /* \"contracts/SyCrowBarter.sol\":9004:9008  this */\n      address\n        /* \"contracts/SyCrowBarter.sol\":8943:9019  IERC20(_expectedTokenAddress).balanceOf(... */\n      mload(0x40)\n      dup3\n      0xffffffff\n      and\n      0xe0\n      shl\n      dup2\n      mstore\n      0x04\n      add\n      tag_186\n      swap2\n      swap1\n      tag_66\n      jump\t// in\n    tag_186:\n      0x20\n      mload(0x40)\n      dup1\n      dup4\n      sub\n      dup2\n      dup7\n      gas\n      staticcall\n      iszero\n      dup1\n      iszero\n      tag_188\n      jumpi\n      returndatasize\n      0x00\n      dup1\n      returndatacopy\n      revert(0x00, returndatasize)\n    tag_188:\n      pop\n      pop\n      pop\n      pop\n      mload(0x40)\n      returndatasize\n      not(0x1f)\n      0x1f\n      dup3\n      add\n      and\n      dup3\n      add\n      dup1\n      0x40\n      mstore\n      pop\n      dup2\n      add\n      swap1\n      tag_189\n      swap2\n      swap1\n      tag_178\n      jump\t// in\n    tag_189:\n        /* \"contracts/SyCrowBarter.sol\":8912:9019  uint256 expectedTokenBalance = IERC20(_expectedTokenAddress).balanceOf(... */\n      swap1\n      pop\n        /* \"contracts/SyCrowBarter.sol\":9057:9058  0 */\n      0x00\n        /* \"contracts/SyCrowBarter.sol\":9034:9054  expectedTokenBalance */\n      dup2\n        /* \"contracts/SyCrowBarter.sol\":9034:9058  expectedTokenBalance > 0 */\n      gt\n        /* \"contracts/SyCrowBarter.sol\":9030:9231  if (expectedTokenBalance > 0) {... */\n      iszero\n      tag_190\n      jumpi\n        /* \"contracts/SyCrowBarter.sol\":9074:9220  TransferHelper.safeTransfer(... */\n      tag_191\n        /* \"contracts/SyCrowBarter.sol\":9119:9140  _expectedTokenAddress */\n      0x05\n      0x00\n      swap1\n      sload\n      swap1\n      0x0100\n      exp\n      swap1\n      div\n      0xffffffffffffffffffffffffffffffffffffffff\n      and\n        /* \"contracts/SyCrowBarter.sol\":9158:9168  msg.sender */\n      caller\n        /* \"contracts/SyCrowBarter.sol\":9186:9206  expectedTokenBalance */\n      dup4\n        /* \"contracts/SyCrowBarter.sol\":9074:9101  TransferHelper.safeTransfer */\n      tag_192\n        /* \"contracts/SyCrowBarter.sol\":9074:9220  TransferHelper.safeTransfer(... */\n      jump\t// in\n    tag_191:\n        /* \"contracts/SyCrowBarter.sol\":9030:9231  if (expectedTokenBalance > 0) {... */\n    tag_190:\n        /* \"contracts/SyCrowBarter.sol\":9241:9270  uint256 depositedTokenBalance */\n      0x00\n        /* \"contracts/SyCrowBarter.sol\":9280:9302  _depositedTokenAddress */\n      0x04\n      0x01\n      swap1\n      sload\n      swap1\n      0x0100\n      exp\n      swap1\n      div\n      0xffffffffffffffffffffffffffffffffffffffff\n      and\n        /* \"contracts/SyCrowBarter.sol\":9273:9326  IERC20(_depositedTokenAddress)... */\n      0xffffffffffffffffffffffffffffffffffffffff\n      and\n      0x70a08231\n        /* \"contracts/SyCrowBarter.sol\":9335:9339  this */\n      address\n        /* \"contracts/SyCrowBarter.sol\":9273:9341  IERC20(_depositedTokenAddress)... */\n      mload(0x40)\n      dup3\n      0xffffffff\n      and\n      0xe0\n      shl\n      dup2\n      mstore\n      0x04\n      add\n      tag_193\n      swap2\n      swap1\n      tag_66\n      jump\t// in\n    tag_193:\n      0x20\n      mload(0x40)\n      dup1\n      dup4\n      sub\n      dup2\n      dup7\n      gas\n      staticcall\n      iszero\n      dup1\n      iszero\n      tag_195\n      jumpi\n      returndatasize\n      0x00\n      dup1\n      returndatacopy\n      revert(0x00, returndatasize)\n    tag_195:\n      pop\n      pop\n      pop\n      pop\n      mload(0x40)\n      returndatasize\n      not(0x1f)\n      0x1f\n      dup3\n      add\n      and\n      dup3\n      add\n      dup1\n      0x40\n      mstore\n      pop\n      dup2\n      add\n      swap1\n      tag_196\n      swap2\n      swap1\n      tag_178\n      jump\t// in\n    tag_196:\n        /* \"contracts/SyCrowBarter.sol\":9241:9341  uint256 depositedTokenBalance = IERC20(_depositedTokenAddress)... */\n      swap1\n      pop\n        /* \"contracts/SyCrowBarter.sol\":9380:9381  0 */\n      0x00\n        /* \"contracts/SyCrowBarter.sol\":9356:9377  depositedTokenBalance */\n      dup2\n        /* \"contracts/SyCrowBarter.sol\":9356:9381  depositedTokenBalance > 0 */\n      gt\n        /* \"contracts/SyCrowBarter.sol\":9352:9556  if (depositedTokenBalance > 0) {... */\n      iszero\n      tag_197\n      jumpi\n        /* \"contracts/SyCrowBarter.sol\":9397:9545  TransferHelper.safeTransfer(... */\n      tag_198\n        /* \"contracts/SyCrowBarter.sol\":9442:9464  _depositedTokenAddress */\n      0x04\n      0x01\n      swap1\n      sload\n      swap1\n      0x0100\n      exp\n      swap1\n      div\n      0xffffffffffffffffffffffffffffffffffffffff\n      and\n        /* \"contracts/SyCrowBarter.sol\":9482:9492  msg.sender */\n      caller\n        /* \"contracts/SyCrowBarter.sol\":9510:9531  depositedTokenBalance */\n      dup4\n        /* \"contracts/SyCrowBarter.sol\":9397:9424  TransferHelper.safeTransfer */\n      tag_192\n        /* \"contracts/SyCrowBarter.sol\":9397:9545  TransferHelper.safeTransfer(... */\n      jump\t// in\n    tag_198:\n        /* \"contracts/SyCrowBarter.sol\":9352:9556  if (depositedTokenBalance > 0) {... */\n    tag_197:\n        /* \"contracts/SyCrowBarter.sol\":9565:9579  uint256 value1 */\n      0x00\n        /* \"contracts/SyCrowBarter.sol\":9593:9607  uint256 value2 */\n      dup1\n        /* \"contracts/SyCrowBarter.sol\":9641:9672  ISyCrowBarterType.ETH_FOR_TOKEN */\n      0x00\n        /* \"contracts/SyCrowBarter.sol\":9626:9672  _barterType == ISyCrowBarterType.ETH_FOR_TOKEN */\n      0x02\n      dup2\n      gt\n      iszero\n      tag_199\n      jumpi\n      tag_200\n      tag_123\n      jump\t// in\n    tag_200:\n    tag_199:\n        /* \"contracts/SyCrowBarter.sol\":9626:9637  _barterType */\n      0x08\n      0x01\n      swap1\n      sload\n      swap1\n      0x0100\n      exp\n      swap1\n      div\n      0xff\n      and\n        /* \"contracts/SyCrowBarter.sol\":9626:9672  _barterType == ISyCrowBarterType.ETH_FOR_TOKEN */\n      0x02\n      dup2\n      gt\n      iszero\n      tag_201\n      jumpi\n      tag_202\n      tag_123\n      jump\t// in\n    tag_202:\n    tag_201:\n      sub\n        /* \"contracts/SyCrowBarter.sol\":9622:10013  if (_barterType == ISyCrowBarterType.ETH_FOR_TOKEN) {... */\n      tag_203\n      jumpi\n        /* \"contracts/SyCrowBarter.sol\":9697:9707  ethBalance */\n      dup5\n        /* \"contracts/SyCrowBarter.sol\":9688:9707  value1 = ethBalance */\n      swap2\n      pop\n        /* \"contracts/SyCrowBarter.sol\":9730:9750  expectedTokenBalance */\n      dup4\n        /* \"contracts/SyCrowBarter.sol\":9721:9750  value2 = expectedTokenBalance */\n      swap1\n      pop\n        /* \"contracts/SyCrowBarter.sol\":9622:10013  if (_barterType == ISyCrowBarterType.ETH_FOR_TOKEN) {... */\n      jump(tag_204)\n    tag_203:\n        /* \"contracts/SyCrowBarter.sol\":9786:9819  ISyCrowBarterType.TOKEN_FOR_TOKEN */\n      0x02\n        /* \"contracts/SyCrowBarter.sol\":9771:9819  _barterType == ISyCrowBarterType.TOKEN_FOR_TOKEN */\n      dup1\n      dup2\n      gt\n      iszero\n      tag_205\n      jumpi\n      tag_206\n      tag_123\n      jump\t// in\n    tag_206:\n    tag_205:\n        /* \"contracts/SyCrowBarter.sol\":9771:9782  _barterType */\n      0x08\n      0x01\n      swap1\n      sload\n      swap1\n      0x0100\n      exp\n      swap1\n      div\n      0xff\n      and\n        /* \"contracts/SyCrowBarter.sol\":9771:9819  _barterType == ISyCrowBarterType.TOKEN_FOR_TOKEN */\n      0x02\n      dup2\n      gt\n      iszero\n      tag_207\n      jumpi\n      tag_208\n      tag_123\n      jump\t// in\n    tag_208:\n    tag_207:\n      sub\n        /* \"contracts/SyCrowBarter.sol\":9767:10013  if (_barterType == ISyCrowBarterType.TOKEN_FOR_TOKEN) {... */\n      tag_209\n      jumpi\n        /* \"contracts/SyCrowBarter.sol\":9844:9865  depositedTokenBalance */\n      dup3\n        /* \"contracts/SyCrowBarter.sol\":9835:9865  value1 = depositedTokenBalance */\n      swap2\n      pop\n        /* \"contracts/SyCrowBarter.sol\":9888:9908  expectedTokenBalance */\n      dup4\n        /* \"contracts/SyCrowBarter.sol\":9879:9908  value2 = expectedTokenBalance */\n      swap1\n      pop\n        /* \"contracts/SyCrowBarter.sol\":9767:10013  if (_barterType == ISyCrowBarterType.TOKEN_FOR_TOKEN) {... */\n      jump(tag_210)\n    tag_209:\n        /* \"contracts/SyCrowBarter.sol\":9948:9969  depositedTokenBalance */\n      dup3\n        /* \"contracts/SyCrowBarter.sol\":9939:9969  value1 = depositedTokenBalance */\n      swap2\n      pop\n        /* \"contracts/SyCrowBarter.sol\":9992:10002  ethBalance */\n      dup5\n        /* \"contracts/SyCrowBarter.sol\":9983:10002  value2 = ethBalance */\n      swap1\n      pop\n        /* \"contracts/SyCrowBarter.sol\":9767:10013  if (_barterType == ISyCrowBarterType.TOKEN_FOR_TOKEN) {... */\n    tag_210:\n        /* \"contracts/SyCrowBarter.sol\":9622:10013  if (_barterType == ISyCrowBarterType.ETH_FOR_TOKEN) {... */\n    tag_204:\n        /* \"contracts/SyCrowBarter.sol\":10023:10055  ISyCrowBarterFactory sycrFactory */\n      0x00\n        /* \"contracts/SyCrowBarter.sol\":10079:10086  factory */\n      immutable(\"0x26a975632f70533c9512e57b565b8ce8e2befee6b08dfbc27c4a897a20e2c1d6\")\n        /* \"contracts/SyCrowBarter.sol\":10023:10087  ISyCrowBarterFactory sycrFactory = ISyCrowBarterFactory(factory) */\n      swap1\n      pop\n        /* \"contracts/SyCrowBarter.sol\":10106:10117  sycrFactory */\n      dup1\n        /* \"contracts/SyCrowBarter.sol\":10106:10142  sycrFactory.notifyWithdrawFromBarter */\n      0xffffffffffffffffffffffffffffffffffffffff\n      and\n      0x33796a0e\n        /* \"contracts/SyCrowBarter.sol\":10164:10168  this */\n      address\n        /* \"contracts/SyCrowBarter.sol\":10183:10193  msg.sender */\n      caller\n        /* \"contracts/SyCrowBarter.sol\":10207:10213  value1 */\n      dup7\n        /* \"contracts/SyCrowBarter.sol\":10227:10233  value2 */\n      dup7\n        /* \"contracts/SyCrowBarter.sol\":10106:10243  sycrFactory.notifyWithdrawFromBarter(... */\n      mload(0x40)\n      dup6\n      0xffffffff\n      and\n      0xe0\n      shl\n      dup2\n      mstore\n      0x04\n      add\n      tag_211\n      swap5\n      swap4\n      swap3\n      swap2\n      swap1\n      tag_212\n      jump\t// in\n    tag_211:\n      0x00\n      mload(0x40)\n      dup1\n      dup4\n      sub\n      dup2\n      0x00\n      dup8\n      dup1\n      extcodesize\n      iszero\n      dup1\n      iszero\n      tag_213\n      jumpi\n      0x00\n      dup1\n      revert\n    tag_213:\n      pop\n      gas\n      call\n      iszero\n      dup1\n      iszero\n      tag_215\n      jumpi\n      returndatasize\n      0x00\n      dup1\n      returndatacopy\n      revert(0x00, returndatasize)\n    tag_215:\n      pop\n      pop\n      pop\n      pop\n        /* \"contracts/SyCrowBarter.sol\":10275:10285  msg.sender */\n      caller\n        /* \"contracts/SyCrowBarter.sol\":10254:10287  selfdestruct(payable(msg.sender)) */\n      0xffffffffffffffffffffffffffffffffffffffff\n      and\n      selfdestruct\n        /* \"contracts/SyCrowBarter.sol\":2972:3159  function getAmounts()... */\n    tag_42:\n        /* \"contracts/SyCrowBarter.sol\":3078:3085  uint256 */\n      0x00\n        /* \"contracts/SyCrowBarter.sol\":3087:3094  uint256 */\n      dup1\n        /* \"contracts/SyCrowBarter.sol\":1486:1498  _initialized */\n      0x04\n      0x00\n      swap1\n      sload\n      swap1\n      0x0100\n      exp\n      swap1\n      div\n      0xff\n      and\n        /* \"contracts/SyCrowBarter.sol\":1478:1532  require(_initialized, \"SyCrowBarter: NOT_INITIALIZED\") */\n      tag_217\n      jumpi\n      mload(0x40)\n      0x08c379a000000000000000000000000000000000000000000000000000000000\n      dup2\n      mstore\n      0x04\n      add\n      tag_218\n      swap1\n      tag_107\n      jump\t// in\n    tag_218:\n      mload(0x40)\n      dup1\n      swap2\n      sub\n      swap1\n      revert\n    tag_217:\n        /* \"contracts/SyCrowBarter.sol\":3118:3134  _depositedAmount */\n      sload(0x06)\n        /* \"contracts/SyCrowBarter.sol\":3136:3151  _expectedAmount */\n      sload(0x07)\n        /* \"contracts/SyCrowBarter.sol\":3110:3152  return (_depositedAmount, _expectedAmount) */\n      swap2\n      pop\n      swap2\n      pop\n        /* \"contracts/SyCrowBarter.sol\":2972:3159  function getAmounts()... */\n      swap1\n      swap2\n      jump\t// out\n        /* \"contracts/SyCrowBarter.sol\":4618:4903  function tradeEthForToken(uint256 inAmount)... */\n    tag_47:\n        /* \"contracts/SyCrowBarter.sol\":968:983  block.timestamp */\n      timestamp\n        /* \"contracts/SyCrowBarter.sol\":955:964  _deadline */\n      sload(0x03)\n        /* \"contracts/SyCrowBarter.sol\":955:983  _deadline >= block.timestamp */\n      lt\n      iszero\n        /* \"contracts/SyCrowBarter.sol\":955:1021  _deadline >= block.timestamp && totalTradeAmount < _expectedAmount */\n      dup1\n      iszero\n      tag_221\n      jumpi\n      pop\n        /* \"contracts/SyCrowBarter.sol\":1006:1021  _expectedAmount */\n      sload(0x07)\n        /* \"contracts/SyCrowBarter.sol\":987:1003  totalTradeAmount */\n      sload(0x01)\n        /* \"contracts/SyCrowBarter.sol\":987:1021  totalTradeAmount < _expectedAmount */\n      lt\n        /* \"contracts/SyCrowBarter.sol\":955:1021  _deadline >= block.timestamp && totalTradeAmount < _expectedAmount */\n    tag_221:\n        /* \"contracts/SyCrowBarter.sol\":934:1069  require(... */\n      tag_222\n      jumpi\n      mload(0x40)\n      0x08c379a000000000000000000000000000000000000000000000000000000000\n      dup2\n      mstore\n      0x04\n      add\n      tag_223\n      swap1\n      tag_103\n      jump\t// in\n    tag_223:\n      mload(0x40)\n      dup1\n      swap2\n      sub\n      swap1\n      revert\n    tag_222:\n        /* \"contracts/SyCrowBarter.sol\":1486:1498  _initialized */\n      0x04\n      0x00\n      swap1\n      sload\n      swap1\n      0x0100\n      exp\n      swap1\n      div\n      0xff\n      and\n        /* \"contracts/SyCrowBarter.sol\":1478:1532  require(_initialized, \"SyCrowBarter: NOT_INITIALIZED\") */\n      tag_225\n      jumpi\n      mload(0x40)\n      0x08c379a000000000000000000000000000000000000000000000000000000000\n      dup2\n      mstore\n      0x04\n      add\n      tag_226\n      swap1\n      tag_107\n      jump\t// in\n    tag_226:\n      mload(0x40)\n      dup1\n      swap2\n      sub\n      swap1\n      revert\n    tag_225:\n        /* \"contracts/SyCrowBarter.sol\":1719:1752  ISyCrowBarterFactory isycrFactory */\n      0x00\n        /* \"contracts/SyCrowBarter.sol\":1776:1783  factory */\n      immutable(\"0x26a975632f70533c9512e57b565b8ce8e2befee6b08dfbc27c4a897a20e2c1d6\")\n        /* \"contracts/SyCrowBarter.sol\":1719:1784  ISyCrowBarterFactory isycrFactory = ISyCrowBarterFactory(factory) */\n      swap1\n      pop\n        /* \"contracts/SyCrowBarter.sol\":1803:1815  isycrFactory */\n      dup1\n        /* \"contracts/SyCrowBarter.sol\":1803:1824  isycrFactory.isPaused */\n      0xffffffffffffffffffffffffffffffffffffffff\n      and\n      0xb187bd26\n        /* \"contracts/SyCrowBarter.sol\":1803:1826  isycrFactory.isPaused() */\n      mload(0x40)\n      dup2\n      0xffffffff\n      and\n      0xe0\n      shl\n      dup2\n      mstore\n      0x04\n      add\n      0x20\n      mload(0x40)\n      dup1\n      dup4\n      sub\n      dup2\n      dup7\n      gas\n      staticcall\n      iszero\n      dup1\n      iszero\n      tag_229\n      jumpi\n      returndatasize\n      0x00\n      dup1\n      returndatacopy\n      revert(0x00, returndatasize)\n    tag_229:\n      pop\n      pop\n      pop\n      pop\n      mload(0x40)\n      returndatasize\n      not(0x1f)\n      0x1f\n      dup3\n      add\n      and\n      dup3\n      add\n      dup1\n      0x40\n      mstore\n      pop\n      dup2\n      add\n      swap1\n      tag_230\n      swap2\n      swap1\n      tag_112\n      jump\t// in\n    tag_230:\n        /* \"contracts/SyCrowBarter.sol\":1802:1826  !isycrFactory.isPaused() */\n      iszero\n        /* \"contracts/SyCrowBarter.sol\":1794:1865  require(!isycrFactory.isPaused(), \"SyCrowBarter: Base Contract Paused\") */\n      tag_231\n      jumpi\n      mload(0x40)\n      0x08c379a000000000000000000000000000000000000000000000000000000000\n      dup2\n      mstore\n      0x04\n      add\n      tag_232\n      swap1\n      tag_115\n      jump\t// in\n    tag_232:\n      mload(0x40)\n      dup1\n      swap2\n      sub\n      swap1\n      revert\n    tag_231:\n        /* \"contracts/SyCrowBarter.sol\":1603:1620  _allowMultiBarter */\n      0x08\n      0x00\n      swap1\n      sload\n      swap1\n      0x0100\n      exp\n      swap1\n      div\n      0xff\n      and\n        /* \"contracts/SyCrowBarter.sol\":1595:1662  require(_allowMultiBarter, \"SyCrowBarter: MULTI_TRADE_NOT_ENABLED\") */\n      tag_234\n      jumpi\n      mload(0x40)\n      0x08c379a000000000000000000000000000000000000000000000000000000000\n      dup2\n      mstore\n      0x04\n      add\n      tag_235\n      swap1\n      tag_119\n      jump\t// in\n    tag_235:\n      mload(0x40)\n      dup1\n      swap2\n      sub\n      swap1\n      revert\n    tag_234:\n        /* \"contracts/SyCrowBarter.sol\":4822:4853  ISyCrowBarterType.TOKEN_FOR_ETH */\n      0x01\n        /* \"contracts/SyCrowBarter.sol\":1180:1191  _barterType */\n      0x08\n      0x01\n      swap1\n      sload\n      swap1\n      0x0100\n      exp\n      swap1\n      div\n      0xff\n      and\n        /* \"contracts/SyCrowBarter.sol\":1166:1191  barterType == _barterType */\n      0x02\n      dup2\n      gt\n      iszero\n      tag_237\n      jumpi\n      tag_238\n      tag_123\n      jump\t// in\n    tag_238:\n    tag_237:\n        /* \"contracts/SyCrowBarter.sol\":1166:1176  barterType */\n      dup2\n        /* \"contracts/SyCrowBarter.sol\":1166:1191  barterType == _barterType */\n      0x02\n      dup2\n      gt\n      iszero\n      tag_239\n      jumpi\n      tag_240\n      tag_123\n      jump\t// in\n    tag_240:\n    tag_239:\n      eq\n        /* \"contracts/SyCrowBarter.sol\":1158:1229  require(barterType == _barterType, \"SyCrowBarter: INVALID_BARTER_TYPE\") */\n      tag_241\n      jumpi\n      mload(0x40)\n      0x08c379a000000000000000000000000000000000000000000000000000000000\n      dup2\n      mstore\n      0x04\n      add\n      tag_242\n      swap1\n      tag_128\n      jump\t// in\n    tag_242:\n      mload(0x40)\n      dup1\n      swap2\n      sub\n      swap1\n      revert\n    tag_241:\n        /* \"contracts/SyCrowBarter.sol\":4869:4896  _tradeEthForToken(inAmount) */\n      tag_244\n        /* \"contracts/SyCrowBarter.sol\":4887:4895  inAmount */\n      dup4\n        /* \"contracts/SyCrowBarter.sol\":4869:4886  _tradeEthForToken */\n      tag_245\n        /* \"contracts/SyCrowBarter.sol\":4869:4896  _tradeEthForToken(inAmount) */\n      jump\t// in\n    tag_244:\n        /* \"contracts/SyCrowBarter.sol\":1672:1673  _ */\n      pop\n        /* \"contracts/SyCrowBarter.sol\":1709:1883  {... */\n      pop\n        /* \"contracts/SyCrowBarter.sol\":4618:4903  function tradeEthForToken(uint256 inAmount)... */\n      pop\n      jump\t// out\n        /* \"contracts/SyCrowBarter.sol\":10300:10977  function withdraw(address _erc20TokenAddress)... */\n    tag_52:\n        /* \"@openzeppelin/contracts/access/Ownable.sol\":1259:1271  _msgSender() */\n      tag_247\n        /* \"@openzeppelin/contracts/access/Ownable.sol\":1259:1269  _msgSender */\n      tag_168\n        /* \"@openzeppelin/contracts/access/Ownable.sol\":1259:1271  _msgSender() */\n      jump\t// in\n    tag_247:\n        /* \"@openzeppelin/contracts/access/Ownable.sol\":1248:1271  owner() == _msgSender() */\n      0xffffffffffffffffffffffffffffffffffffffff\n      and\n        /* \"@openzeppelin/contracts/access/Ownable.sol\":1248:1255  owner() */\n      tag_248\n        /* \"@openzeppelin/contracts/access/Ownable.sol\":1248:1253  owner */\n      tag_64\n        /* \"@openzeppelin/contracts/access/Ownable.sol\":1248:1255  owner() */\n      jump\t// in\n    tag_248:\n        /* \"@openzeppelin/contracts/access/Ownable.sol\":1248:1271  owner() == _msgSender() */\n      0xffffffffffffffffffffffffffffffffffffffff\n      and\n      eq\n        /* \"@openzeppelin/contracts/access/Ownable.sol\":1240:1308  require(owner() == _msgSender(), \"Ownable: caller is not the owner\") */\n      tag_249\n      jumpi\n      mload(0x40)\n      0x08c379a000000000000000000000000000000000000000000000000000000000\n      dup2\n      mstore\n      0x04\n      add\n      tag_250\n      swap1\n      tag_172\n      jump\t// in\n    tag_250:\n      mload(0x40)\n      dup1\n      swap2\n      sub\n      swap1\n      revert\n    tag_249:\n        /* \"contracts/SyCrowBarter.sol\":1486:1498  _initialized */\n      0x04\n      0x00\n      swap1\n      sload\n      swap1\n      0x0100\n      exp\n      swap1\n      div\n      0xff\n      and\n        /* \"contracts/SyCrowBarter.sol\":1478:1532  require(_initialized, \"SyCrowBarter: NOT_INITIALIZED\") */\n      tag_252\n      jumpi\n      mload(0x40)\n      0x08c379a000000000000000000000000000000000000000000000000000000000\n      dup2\n      mstore\n      0x04\n      add\n      tag_253\n      swap1\n      tag_107\n      jump\t// in\n    tag_253:\n      mload(0x40)\n      dup1\n      swap2\n      sub\n      swap1\n      revert\n    tag_252:\n        /* \"contracts/SyCrowBarter.sol\":10458:10479  _expectedTokenAddress */\n      0x05\n      0x00\n      swap1\n      sload\n      swap1\n      0x0100\n      exp\n      swap1\n      div\n      0xffffffffffffffffffffffffffffffffffffffff\n      and\n        /* \"contracts/SyCrowBarter.sol\":10436:10479  _erc20TokenAddress != _expectedTokenAddress */\n      0xffffffffffffffffffffffffffffffffffffffff\n      and\n        /* \"contracts/SyCrowBarter.sol\":10436:10454  _erc20TokenAddress */\n      dup2\n        /* \"contracts/SyCrowBarter.sol\":10436:10479  _erc20TokenAddress != _expectedTokenAddress */\n      0xffffffffffffffffffffffffffffffffffffffff\n      and\n      sub\n        /* \"contracts/SyCrowBarter.sol\":10415:10528  require(... */\n      tag_255\n      jumpi\n      mload(0x40)\n      0x08c379a000000000000000000000000000000000000000000000000000000000\n      dup2\n      mstore\n      0x04\n      add\n      tag_256\n      swap1\n      tag_257\n      jump\t// in\n    tag_256:\n      mload(0x40)\n      dup1\n      swap2\n      sub\n      swap1\n      revert\n    tag_255:\n        /* \"contracts/SyCrowBarter.sol\":10581:10603  _depositedTokenAddress */\n      0x04\n      0x01\n      swap1\n      sload\n      swap1\n      0x0100\n      exp\n      swap1\n      div\n      0xffffffffffffffffffffffffffffffffffffffff\n      and\n        /* \"contracts/SyCrowBarter.sol\":10559:10603  _erc20TokenAddress != _depositedTokenAddress */\n      0xffffffffffffffffffffffffffffffffffffffff\n      and\n        /* \"contracts/SyCrowBarter.sol\":10559:10577  _erc20TokenAddress */\n      dup2\n        /* \"contracts/SyCrowBarter.sol\":10559:10603  _erc20TokenAddress != _depositedTokenAddress */\n      0xffffffffffffffffffffffffffffffffffffffff\n      and\n      sub\n        /* \"contracts/SyCrowBarter.sol\":10538:10652  require(... */\n      tag_258\n      jumpi\n      mload(0x40)\n      0x08c379a000000000000000000000000000000000000000000000000000000000\n      dup2\n      mstore\n      0x04\n      add\n      tag_259\n      swap1\n      tag_257\n      jump\t// in\n    tag_259:\n      mload(0x40)\n      dup1\n      swap2\n      sub\n      swap1\n      revert\n    tag_258:\n        /* \"contracts/SyCrowBarter.sol\":10663:10688  uint256 erc20TokenBalance */\n      0x00\n        /* \"contracts/SyCrowBarter.sol\":10698:10716  _erc20TokenAddress */\n      dup2\n        /* \"contracts/SyCrowBarter.sol\":10691:10727  IERC20(_erc20TokenAddress).balanceOf */\n      0xffffffffffffffffffffffffffffffffffffffff\n      and\n      0x70a08231\n        /* \"contracts/SyCrowBarter.sol\":10749:10753  this */\n      address\n        /* \"contracts/SyCrowBarter.sol\":10691:10764  IERC20(_erc20TokenAddress).balanceOf(... */\n      mload(0x40)\n      dup3\n      0xffffffff\n      and\n      0xe0\n      shl\n      dup2\n      mstore\n      0x04\n      add\n      tag_260\n      swap2\n      swap1\n      tag_66\n      jump\t// in\n    tag_260:\n      0x20\n      mload(0x40)\n      dup1\n      dup4\n      sub\n      dup2\n      dup7\n      gas\n      staticcall\n      iszero\n      dup1\n      iszero\n      tag_262\n      jumpi\n      returndatasize\n      0x00\n      dup1\n      returndatacopy\n      revert(0x00, returndatasize)\n    tag_262:\n      pop\n      pop\n      pop\n      pop\n      mload(0x40)\n      returndatasize\n      not(0x1f)\n      0x1f\n      dup3\n      add\n      and\n      dup3\n      add\n      dup1\n      0x40\n      mstore\n      pop\n      dup2\n      add\n      swap1\n      tag_263\n      swap2\n      swap1\n      tag_178\n      jump\t// in\n    tag_263:\n        /* \"contracts/SyCrowBarter.sol\":10663:10764  uint256 erc20TokenBalance = IERC20(_erc20TokenAddress).balanceOf(... */\n      swap1\n      pop\n        /* \"contracts/SyCrowBarter.sol\":10799:10800  0 */\n      0x00\n        /* \"contracts/SyCrowBarter.sol\":10779:10796  erc20TokenBalance */\n      dup2\n        /* \"contracts/SyCrowBarter.sol\":10779:10800  erc20TokenBalance > 0 */\n      gt\n        /* \"contracts/SyCrowBarter.sol\":10775:10971  if (erc20TokenBalance > 0) {... */\n      iszero\n      tag_264\n      jumpi\n        /* \"contracts/SyCrowBarter.sol\":10816:10960  TransferHelper.safeTransfer(... */\n      tag_265\n        /* \"contracts/SyCrowBarter.sol\":10861:10883  _depositedTokenAddress */\n      0x04\n      0x01\n      swap1\n      sload\n      swap1\n      0x0100\n      exp\n      swap1\n      div\n      0xffffffffffffffffffffffffffffffffffffffff\n      and\n        /* \"contracts/SyCrowBarter.sol\":10901:10911  msg.sender */\n      caller\n        /* \"contracts/SyCrowBarter.sol\":10929:10946  erc20TokenBalance */\n      dup4\n        /* \"contracts/SyCrowBarter.sol\":10816:10843  TransferHelper.safeTransfer */\n      tag_192\n        /* \"contracts/SyCrowBarter.sol\":10816:10960  TransferHelper.safeTransfer(... */\n      jump\t// in\n    tag_265:\n        /* \"contracts/SyCrowBarter.sol\":10775:10971  if (erc20TokenBalance > 0) {... */\n    tag_264:\n        /* \"contracts/SyCrowBarter.sol\":10405:10977  {... */\n      pop\n        /* \"contracts/SyCrowBarter.sol\":10300:10977  function withdraw(address _erc20TokenAddress)... */\n      pop\n      jump\t// out\n        /* \"contracts/SyCrowBarter.sol\":1946:2966  function initialize(... */\n    tag_57:\n        /* \"contracts/SyCrowBarter.sol\":2224:2228  bool */\n      0x00\n        /* \"contracts/SyCrowBarter.sol\":2262:2269  factory */\n      immutable(\"0x26a975632f70533c9512e57b565b8ce8e2befee6b08dfbc27c4a897a20e2c1d6\")\n        /* \"contracts/SyCrowBarter.sol\":2248:2269  msg.sender == factory */\n      0xffffffffffffffffffffffffffffffffffffffff\n      and\n        /* \"contracts/SyCrowBarter.sol\":2248:2258  msg.sender */\n      caller\n        /* \"contracts/SyCrowBarter.sol\":2248:2269  msg.sender == factory */\n      0xffffffffffffffffffffffffffffffffffffffff\n      and\n      eq\n        /* \"contracts/SyCrowBarter.sol\":2240:2297  require(msg.sender == factory, \"SyCrowBarter: FORBIDDEN\") */\n      tag_267\n      jumpi\n      mload(0x40)\n      0x08c379a000000000000000000000000000000000000000000000000000000000\n      dup2\n      mstore\n      0x04\n      add\n      tag_268\n      swap1\n      tag_257\n      jump\t// in\n    tag_268:\n      mload(0x40)\n      dup1\n      swap2\n      sub\n      swap1\n      revert\n    tag_267:\n        /* \"contracts/SyCrowBarter.sol\":2317:2329  _initialized */\n      0x04\n      0x00\n      swap1\n      sload\n      swap1\n      0x0100\n      exp\n      swap1\n      div\n      0xff\n      and\n        /* \"contracts/SyCrowBarter.sol\":2316:2329  !_initialized */\n      iszero\n        /* \"contracts/SyCrowBarter.sol\":2308:2367  require(!_initialized, \"SyCrowBarter: ALREADY_INITIALIZED\") */\n      tag_269\n      jumpi\n      mload(0x40)\n      0x08c379a000000000000000000000000000000000000000000000000000000000\n      dup2\n      mstore\n      0x04\n      add\n      tag_270\n      swap1\n      tag_271\n      jump\t// in\n    tag_270:\n      mload(0x40)\n      dup1\n      swap2\n      sub\n      swap1\n      revert\n    tag_269:\n        /* \"contracts/SyCrowBarter.sol\":2396:2411  block.timestamp */\n      timestamp\n        /* \"contracts/SyCrowBarter.sol\":2385:2393  deadline */\n      dup5\n        /* \"contracts/SyCrowBarter.sol\":2385:2411  deadline < block.timestamp */\n      lt\n        /* \"contracts/SyCrowBarter.sol\":2377:2443  require(deadline < block.timestamp, \"SyCrowBarter: PAST_DEADLINE\") */\n      tag_272\n      jumpi\n      mload(0x40)\n      0x08c379a000000000000000000000000000000000000000000000000000000000\n      dup2\n      mstore\n      0x04\n      add\n      tag_273\n      swap1\n      tag_274\n      jump\t// in\n    tag_273:\n      mload(0x40)\n      dup1\n      swap2\n      sub\n      swap1\n      revert\n    tag_272:\n        /* \"contracts/SyCrowBarter.sol\":2519:2534  amountDeposited */\n      dup6\n        /* \"contracts/SyCrowBarter.sol\":2482:2489  inToken */\n      dup9\n        /* \"contracts/SyCrowBarter.sol\":2475:2500  IERC20(inToken).balanceOf */\n      0xffffffffffffffffffffffffffffffffffffffff\n      and\n      0x70a08231\n        /* \"contracts/SyCrowBarter.sol\":2509:2513  this */\n      address\n        /* \"contracts/SyCrowBarter.sol\":2475:2515  IERC20(inToken).balanceOf(address(this)) */\n      mload(0x40)\n      dup3\n      0xffffffff\n      and\n      0xe0\n      shl\n      dup2\n      mstore\n      0x04\n      add\n      tag_275\n      swap2\n      swap1\n      tag_66\n      jump\t// in\n    tag_275:\n      0x20\n      mload(0x40)\n      dup1\n      dup4\n      sub\n      dup2\n      dup7\n      gas\n      staticcall\n      iszero\n      dup1\n      iszero\n      tag_277\n      jumpi\n      returndatasize\n      0x00\n      dup1\n      returndatacopy\n      revert(0x00, returndatasize)\n    tag_277:\n      pop\n      pop\n      pop\n      pop\n      mload(0x40)\n      returndatasize\n      not(0x1f)\n      0x1f\n      dup3\n      add\n      and\n      dup3\n      add\n      dup1\n      0x40\n      mstore\n      pop\n      dup2\n      add\n      swap1\n      tag_278\n      swap2\n      swap1\n      tag_178\n      jump\t// in\n    tag_278:\n        /* \"contracts/SyCrowBarter.sol\":2475:2534  IERC20(inToken).balanceOf(address(this)) >= amountDeposited */\n      lt\n      iszero\n        /* \"contracts/SyCrowBarter.sol\":2454:2594  require(... */\n      tag_279\n      jumpi\n      mload(0x40)\n      0x08c379a000000000000000000000000000000000000000000000000000000000\n      dup2\n      mstore\n      0x04\n      add\n      tag_280\n      swap1\n      tag_281\n      jump\t// in\n    tag_280:\n      mload(0x40)\n      dup1\n      swap2\n      sub\n      swap1\n      revert\n    tag_279:\n        /* \"contracts/SyCrowBarter.sol\":2617:2625  deadline */\n      dup4\n        /* \"contracts/SyCrowBarter.sol\":2605:2614  _deadline */\n      0x03\n        /* \"contracts/SyCrowBarter.sol\":2605:2625  _deadline = deadline */\n      dup2\n      swap1\n      sstore\n      pop\n        /* \"contracts/SyCrowBarter.sol\":2661:2668  inToken */\n      dup8\n        /* \"contracts/SyCrowBarter.sol\":2636:2658  _depositedTokenAddress */\n      0x04\n      0x01\n        /* \"contracts/SyCrowBarter.sol\":2636:2668  _depositedTokenAddress = inToken */\n      0x0100\n      exp\n      dup2\n      sload\n      dup2\n      0xffffffffffffffffffffffffffffffffffffffff\n      mul\n      not\n      and\n      swap1\n      dup4\n      0xffffffffffffffffffffffffffffffffffffffff\n      and\n      mul\n      or\n      swap1\n      sstore\n      pop\n        /* \"contracts/SyCrowBarter.sol\":2702:2710  outToken */\n      dup7\n        /* \"contracts/SyCrowBarter.sol\":2678:2699  _expectedTokenAddress */\n      0x05\n      0x00\n        /* \"contracts/SyCrowBarter.sol\":2678:2710  _expectedTokenAddress = outToken */\n      0x0100\n      exp\n      dup2\n      sload\n      dup2\n      0xffffffffffffffffffffffffffffffffffffffff\n      mul\n      not\n      and\n      swap1\n      dup4\n      0xffffffffffffffffffffffffffffffffffffffff\n      and\n      mul\n      or\n      swap1\n      sstore\n      pop\n        /* \"contracts/SyCrowBarter.sol\":2740:2755  amountDeposited */\n      dup6\n        /* \"contracts/SyCrowBarter.sol\":2721:2737  _depositedAmount */\n      0x06\n        /* \"contracts/SyCrowBarter.sol\":2721:2755  _depositedAmount = amountDeposited */\n      dup2\n      swap1\n      sstore\n      pop\n        /* \"contracts/SyCrowBarter.sol\":2783:2797  amountExpected */\n      dup5\n        /* \"contracts/SyCrowBarter.sol\":2765:2780  _expectedAmount */\n      0x07\n        /* \"contracts/SyCrowBarter.sol\":2765:2797  _expectedAmount = amountExpected */\n      dup2\n      swap1\n      sstore\n      pop\n        /* \"contracts/SyCrowBarter.sol\":2822:2832  barterType */\n      dup9\n        /* \"contracts/SyCrowBarter.sol\":2808:2819  _barterType */\n      0x08\n      0x01\n        /* \"contracts/SyCrowBarter.sol\":2808:2832  _barterType = barterType */\n      0x0100\n      exp\n      dup2\n      sload\n      dup2\n      0xff\n      mul\n      not\n      and\n      swap1\n      dup4\n      0x02\n      dup2\n      gt\n      iszero\n      tag_282\n      jumpi\n      tag_283\n      tag_123\n      jump\t// in\n    tag_283:\n    tag_282:\n      mul\n      or\n      swap1\n      sstore\n      pop\n        /* \"contracts/SyCrowBarter.sol\":2862:2878  allowMultiBarter */\n      dup3\n        /* \"contracts/SyCrowBarter.sol\":2842:2859  _allowMultiBarter */\n      0x08\n      0x00\n        /* \"contracts/SyCrowBarter.sol\":2842:2878  _allowMultiBarter = allowMultiBarter */\n      0x0100\n      exp\n      dup2\n      sload\n      dup2\n      0xff\n      mul\n      not\n      and\n      swap1\n      dup4\n      iszero\n      iszero\n      mul\n      or\n      swap1\n      sstore\n      pop\n        /* \"contracts/SyCrowBarter.sol\":2895:2900  _WETH */\n      dup2\n        /* \"contracts/SyCrowBarter.sol\":2888:2892  WETH */\n      0x02\n      0x00\n        /* \"contracts/SyCrowBarter.sol\":2888:2900  WETH = _WETH */\n      0x0100\n      exp\n      dup2\n      sload\n      dup2\n      0xffffffffffffffffffffffffffffffffffffffff\n      mul\n      not\n      and\n      swap1\n      dup4\n      0xffffffffffffffffffffffffffffffffffffffff\n      and\n      mul\n      or\n      swap1\n      sstore\n      pop\n        /* \"contracts/SyCrowBarter.sol\":2925:2929  true */\n      0x01\n        /* \"contracts/SyCrowBarter.sol\":2910:2922  _initialized */\n      0x04\n      0x00\n        /* \"contracts/SyCrowBarter.sol\":2910:2929  _initialized = true */\n      0x0100\n      exp\n      dup2\n      sload\n      dup2\n      0xff\n      mul\n      not\n      and\n      swap1\n      dup4\n      iszero\n      iszero\n      mul\n      or\n      swap1\n      sstore\n      pop\n        /* \"contracts/SyCrowBarter.sol\":2947:2959  _initialized */\n      0x04\n      0x00\n      swap1\n      sload\n      swap1\n      0x0100\n      exp\n      swap1\n      div\n      0xff\n      and\n        /* \"contracts/SyCrowBarter.sol\":2940:2959  return _initialized */\n      swap1\n      pop\n        /* \"contracts/SyCrowBarter.sol\":1946:2966  function initialize(... */\n      swap9\n      swap8\n      pop\n      pop\n      pop\n      pop\n      pop\n      pop\n      pop\n      pop\n      jump\t// out\n        /* \"@openzeppelin/contracts/access/Ownable.sol\":1668:1769  function renounceOwnership() public virtual onlyOwner {... */\n    tag_61:\n        /* \"@openzeppelin/contracts/access/Ownable.sol\":1259:1271  _msgSender() */\n      tag_285\n        /* \"@openzeppelin/contracts/access/Ownable.sol\":1259:1269  _msgSender */\n      tag_168\n        /* \"@openzeppelin/contracts/access/Ownable.sol\":1259:1271  _msgSender() */\n      jump\t// in\n    tag_285:\n        /* \"@openzeppelin/contracts/access/Ownable.sol\":1248:1271  owner() == _msgSender() */\n      0xffffffffffffffffffffffffffffffffffffffff\n      and\n        /* \"@openzeppelin/contracts/access/Ownable.sol\":1248:1255  owner() */\n      tag_286\n        /* \"@openzeppelin/contracts/access/Ownable.sol\":1248:1253  owner */\n      tag_64\n        /* \"@openzeppelin/contracts/access/Ownable.sol\":1248:1255  owner() */\n      jump\t// in\n    tag_286:\n        /* \"@openzeppelin/contracts/access/Ownable.sol\":1248:1271  owner() == _msgSender() */\n      0xffffffffffffffffffffffffffffffffffffffff\n      and\n      eq\n        /* \"@openzeppelin/contracts/access/Ownable.sol\":1240:1308  require(owner() == _msgSender(), \"Ownable: caller is not the owner\") */\n      tag_287\n      jumpi\n      mload(0x40)\n      0x08c379a000000000000000000000000000000000000000000000000000000000\n      dup2\n      mstore\n      0x04\n      add\n      tag_288\n      swap1\n      tag_172\n      jump\t// in\n    tag_288:\n      mload(0x40)\n      dup1\n      swap2\n      sub\n      swap1\n      revert\n    tag_287:\n        /* \"@openzeppelin/contracts/access/Ownable.sol\":1732:1762  _transferOwnership(address(0)) */\n      tag_290\n        /* \"@openzeppelin/contracts/access/Ownable.sol\":1759:1760  0 */\n      0x00\n        /* \"@openzeppelin/contracts/access/Ownable.sol\":1732:1750  _transferOwnership */\n      tag_291\n        /* \"@openzeppelin/contracts/access/Ownable.sol\":1732:1762  _transferOwnership(address(0)) */\n      jump\t// in\n    tag_290:\n        /* \"@openzeppelin/contracts/access/Ownable.sol\":1668:1769  function renounceOwnership() public virtual onlyOwner {... */\n      jump\t// out\n        /* \"@openzeppelin/contracts/access/Ownable.sol\":1036:1121  function owner() public view virtual returns (address) {... */\n    tag_64:\n        /* \"@openzeppelin/contracts/access/Ownable.sol\":1082:1089  address */\n      0x00\n        /* \"@openzeppelin/contracts/access/Ownable.sol\":1108:1114  _owner */\n      dup1\n      0x00\n      swap1\n      sload\n      swap1\n      0x0100\n      exp\n      swap1\n      div\n      0xffffffffffffffffffffffffffffffffffffffff\n      and\n        /* \"@openzeppelin/contracts/access/Ownable.sol\":1101:1114  return _owner */\n      swap1\n      pop\n        /* \"@openzeppelin/contracts/access/Ownable.sol\":1036:1121  function owner() public view virtual returns (address) {... */\n      swap1\n      jump\t// out\n        /* \"contracts/SyCrowBarter.sol\":5155:5389  function tradeTokenForEth()... */\n    tag_69:\n        /* \"contracts/SyCrowBarter.sol\":968:983  block.timestamp */\n      timestamp\n        /* \"contracts/SyCrowBarter.sol\":955:964  _deadline */\n      sload(0x03)\n        /* \"contracts/SyCrowBarter.sol\":955:983  _deadline >= block.timestamp */\n      lt\n      iszero\n        /* \"contracts/SyCrowBarter.sol\":955:1021  _deadline >= block.timestamp && totalTradeAmount < _expectedAmount */\n      dup1\n      iszero\n      tag_294\n      jumpi\n      pop\n        /* \"contracts/SyCrowBarter.sol\":1006:1021  _expectedAmount */\n      sload(0x07)\n        /* \"contracts/SyCrowBarter.sol\":987:1003  totalTradeAmount */\n      sload(0x01)\n        /* \"contracts/SyCrowBarter.sol\":987:1021  totalTradeAmount < _expectedAmount */\n      lt\n        /* \"contracts/SyCrowBarter.sol\":955:1021  _deadline >= block.timestamp && totalTradeAmount < _expectedAmount */\n    tag_294:\n        /* \"contracts/SyCrowBarter.sol\":934:1069  require(... */\n      tag_295\n      jumpi\n      mload(0x40)\n      0x08c379a000000000000000000000000000000000000000000000000000000000\n      dup2\n      mstore\n      0x04\n      add\n      tag_296\n      swap1\n      tag_103\n      jump\t// in\n    tag_296:\n      mload(0x40)\n      dup1\n      swap2\n      sub\n      swap1\n      revert\n    tag_295:\n        /* \"contracts/SyCrowBarter.sol\":1486:1498  _initialized */\n      0x04\n      0x00\n      swap1\n      sload\n      swap1\n      0x0100\n      exp\n      swap1\n      div\n      0xff\n      and\n        /* \"contracts/SyCrowBarter.sol\":1478:1532  require(_initialized, \"SyCrowBarter: NOT_INITIALIZED\") */\n      tag_298\n      jumpi\n      mload(0x40)\n      0x08c379a000000000000000000000000000000000000000000000000000000000\n      dup2\n      mstore\n      0x04\n      add\n      tag_299\n      swap1\n      tag_107\n      jump\t// in\n    tag_299:\n      mload(0x40)\n      dup1\n      swap2\n      sub\n      swap1\n      revert\n    tag_298:\n        /* \"contracts/SyCrowBarter.sol\":1719:1752  ISyCrowBarterFactory isycrFactory */\n      0x00\n        /* \"contracts/SyCrowBarter.sol\":1776:1783  factory */\n      immutable(\"0x26a975632f70533c9512e57b565b8ce8e2befee6b08dfbc27c4a897a20e2c1d6\")\n        /* \"contracts/SyCrowBarter.sol\":1719:1784  ISyCrowBarterFactory isycrFactory = ISyCrowBarterFactory(factory) */\n      swap1\n      pop\n        /* \"contracts/SyCrowBarter.sol\":1803:1815  isycrFactory */\n      dup1\n        /* \"contracts/SyCrowBarter.sol\":1803:1824  isycrFactory.isPaused */\n      0xffffffffffffffffffffffffffffffffffffffff\n      and\n      0xb187bd26\n        /* \"contracts/SyCrowBarter.sol\":1803:1826  isycrFactory.isPaused() */\n      mload(0x40)\n      dup2\n      0xffffffff\n      and\n      0xe0\n      shl\n      dup2\n      mstore\n      0x04\n      add\n      0x20\n      mload(0x40)\n      dup1\n      dup4\n      sub\n      dup2\n      dup7\n      gas\n      staticcall\n      iszero\n      dup1\n      iszero\n      tag_302\n      jumpi\n      returndatasize\n      0x00\n      dup1\n      returndatacopy\n      revert(0x00, returndatasize)\n    tag_302:\n      pop\n      pop\n      pop\n      pop\n      mload(0x40)\n      returndatasize\n      not(0x1f)\n      0x1f\n      dup3\n      add\n      and\n      dup3\n      add\n      dup1\n      0x40\n      mstore\n      pop\n      dup2\n      add\n      swap1\n      tag_303\n      swap2\n      swap1\n      tag_112\n      jump\t// in\n    tag_303:\n        /* \"contracts/SyCrowBarter.sol\":1802:1826  !isycrFactory.isPaused() */\n      iszero\n        /* \"contracts/SyCrowBarter.sol\":1794:1865  require(!isycrFactory.isPaused(), \"SyCrowBarter: Base Contract Paused\") */\n      tag_304\n      jumpi\n      mload(0x40)\n      0x08c379a000000000000000000000000000000000000000000000000000000000\n      dup2\n      mstore\n      0x04\n      add\n      tag_305\n      swap1\n      tag_115\n      jump\t// in\n    tag_305:\n      mload(0x40)\n      dup1\n      swap2\n      sub\n      swap1\n      revert\n    tag_304:\n        /* \"contracts/SyCrowBarter.sol\":5301:5332  ISyCrowBarterType.ETH_FOR_TOKEN */\n      0x00\n        /* \"contracts/SyCrowBarter.sol\":1180:1191  _barterType */\n      0x08\n      0x01\n      swap1\n      sload\n      swap1\n      0x0100\n      exp\n      swap1\n      div\n      0xff\n      and\n        /* \"contracts/SyCrowBarter.sol\":1166:1191  barterType == _barterType */\n      0x02\n      dup2\n      gt\n      iszero\n      tag_307\n      jumpi\n      tag_308\n      tag_123\n      jump\t// in\n    tag_308:\n    tag_307:\n        /* \"contracts/SyCrowBarter.sol\":1166:1176  barterType */\n      dup2\n        /* \"contracts/SyCrowBarter.sol\":1166:1191  barterType == _barterType */\n      0x02\n      dup2\n      gt\n      iszero\n      tag_309\n      jumpi\n      tag_310\n      tag_123\n      jump\t// in\n    tag_310:\n    tag_309:\n      eq\n        /* \"contracts/SyCrowBarter.sol\":1158:1229  require(barterType == _barterType, \"SyCrowBarter: INVALID_BARTER_TYPE\") */\n      tag_311\n      jumpi\n      mload(0x40)\n      0x08c379a000000000000000000000000000000000000000000000000000000000\n      dup2\n      mstore\n      0x04\n      add\n      tag_312\n      swap1\n      tag_128\n      jump\t// in\n    tag_312:\n      mload(0x40)\n      dup1\n      swap2\n      sub\n      swap1\n      revert\n    tag_311:\n        /* \"contracts/SyCrowBarter.sol\":5348:5382  _tradeTokenForEth(_expectedAmount) */\n      tag_314\n        /* \"contracts/SyCrowBarter.sol\":5366:5381  _expectedAmount */\n      sload(0x07)\n        /* \"contracts/SyCrowBarter.sol\":5348:5365  _tradeTokenForEth */\n      tag_131\n        /* \"contracts/SyCrowBarter.sol\":5348:5382  _tradeTokenForEth(_expectedAmount) */\n      jump\t// in\n    tag_314:\n        /* \"contracts/SyCrowBarter.sol\":1875:1876  _ */\n      pop\n        /* \"contracts/SyCrowBarter.sol\":1709:1883  {... */\n      pop\n        /* \"contracts/SyCrowBarter.sol\":5155:5389  function tradeTokenForEth()... */\n      jump\t// out\n        /* \"contracts/SyCrowBarter.sol\":3165:3363  function getTokens()... */\n    tag_72:\n        /* \"contracts/SyCrowBarter.sol\":3270:3277  address */\n      0x00\n        /* \"contracts/SyCrowBarter.sol\":3279:3286  address */\n      dup1\n        /* \"contracts/SyCrowBarter.sol\":1486:1498  _initialized */\n      0x04\n      0x00\n      swap1\n      sload\n      swap1\n      0x0100\n      exp\n      swap1\n      div\n      0xff\n      and\n        /* \"contracts/SyCrowBarter.sol\":1478:1532  require(_initialized, \"SyCrowBarter: NOT_INITIALIZED\") */\n      tag_316\n      jumpi\n      mload(0x40)\n      0x08c379a000000000000000000000000000000000000000000000000000000000\n      dup2\n      mstore\n      0x04\n      add\n      tag_317\n      swap1\n      tag_107\n      jump\t// in\n    tag_317:\n      mload(0x40)\n      dup1\n      swap2\n      sub\n      swap1\n      revert\n    tag_316:\n        /* \"contracts/SyCrowBarter.sol\":3310:3332  _depositedTokenAddress */\n      0x04\n      0x01\n      swap1\n      sload\n      swap1\n      0x0100\n      exp\n      swap1\n      div\n      0xffffffffffffffffffffffffffffffffffffffff\n      and\n        /* \"contracts/SyCrowBarter.sol\":3334:3355  _expectedTokenAddress */\n      0x05\n      0x00\n      swap1\n      sload\n      swap1\n      0x0100\n      exp\n      swap1\n      div\n      0xffffffffffffffffffffffffffffffffffffffff\n      and\n        /* \"contracts/SyCrowBarter.sol\":3302:3356  return (_depositedTokenAddress, _expectedTokenAddress) */\n      swap2\n      pop\n      swap2\n      pop\n        /* \"contracts/SyCrowBarter.sol\":3165:3363  function getTokens()... */\n      swap1\n      swap2\n      jump\t// out\n        /* \"contracts/SyCrowBarter.sol\":4909:5149  function tradeTokenForToken()... */\n    tag_77:\n        /* \"contracts/SyCrowBarter.sol\":968:983  block.timestamp */\n      timestamp\n        /* \"contracts/SyCrowBarter.sol\":955:964  _deadline */\n      sload(0x03)\n        /* \"contracts/SyCrowBarter.sol\":955:983  _deadline >= block.timestamp */\n      lt\n      iszero\n        /* \"contracts/SyCrowBarter.sol\":955:1021  _deadline >= block.timestamp && totalTradeAmount < _expectedAmount */\n      dup1\n      iszero\n      tag_320\n      jumpi\n      pop\n        /* \"contracts/SyCrowBarter.sol\":1006:1021  _expectedAmount */\n      sload(0x07)\n        /* \"contracts/SyCrowBarter.sol\":987:1003  totalTradeAmount */\n      sload(0x01)\n        /* \"contracts/SyCrowBarter.sol\":987:1021  totalTradeAmount < _expectedAmount */\n      lt\n        /* \"contracts/SyCrowBarter.sol\":955:1021  _deadline >= block.timestamp && totalTradeAmount < _expectedAmount */\n    tag_320:\n        /* \"contracts/SyCrowBarter.sol\":934:1069  require(... */\n      tag_321\n      jumpi\n      mload(0x40)\n      0x08c379a000000000000000000000000000000000000000000000000000000000\n      dup2\n      mstore\n      0x04\n      add\n      tag_322\n      swap1\n      tag_103\n      jump\t// in\n    tag_322:\n      mload(0x40)\n      dup1\n      swap2\n      sub\n      swap1\n      revert\n    tag_321:\n        /* \"contracts/SyCrowBarter.sol\":1486:1498  _initialized */\n      0x04\n      0x00\n      swap1\n      sload\n      swap1\n      0x0100\n      exp\n      swap1\n      div\n      0xff\n      and\n        /* \"contracts/SyCrowBarter.sol\":1478:1532  require(_initialized, \"SyCrowBarter: NOT_INITIALIZED\") */\n      tag_324\n      jumpi\n      mload(0x40)\n      0x08c379a000000000000000000000000000000000000000000000000000000000\n      dup2\n      mstore\n      0x04\n      add\n      tag_325\n      swap1\n      tag_107\n      jump\t// in\n    tag_325:\n      mload(0x40)\n      dup1\n      swap2\n      sub\n      swap1\n      revert\n    tag_324:\n        /* \"contracts/SyCrowBarter.sol\":1719:1752  ISyCrowBarterFactory isycrFactory */\n      0x00\n        /* \"contracts/SyCrowBarter.sol\":1776:1783  factory */\n      immutable(\"0x26a975632f70533c9512e57b565b8ce8e2befee6b08dfbc27c4a897a20e2c1d6\")\n        /* \"contracts/SyCrowBarter.sol\":1719:1784  ISyCrowBarterFactory isycrFactory = ISyCrowBarterFactory(factory) */\n      swap1\n      pop\n        /* \"contracts/SyCrowBarter.sol\":1803:1815  isycrFactory */\n      dup1\n        /* \"contracts/SyCrowBarter.sol\":1803:1824  isycrFactory.isPaused */\n      0xffffffffffffffffffffffffffffffffffffffff\n      and\n      0xb187bd26\n        /* \"contracts/SyCrowBarter.sol\":1803:1826  isycrFactory.isPaused() */\n      mload(0x40)\n      dup2\n      0xffffffff\n      and\n      0xe0\n      shl\n      dup2\n      mstore\n      0x04\n      add\n      0x20\n      mload(0x40)\n      dup1\n      dup4\n      sub\n      dup2\n      dup7\n      gas\n      staticcall\n      iszero\n      dup1\n      iszero\n      tag_328\n      jumpi\n      returndatasize\n      0x00\n      dup1\n      returndatacopy\n      revert(0x00, returndatasize)\n    tag_328:\n      pop\n      pop\n      pop\n      pop\n      mload(0x40)\n      returndatasize\n      not(0x1f)\n      0x1f\n      dup3\n      add\n      and\n      dup3\n      add\n      dup1\n      0x40\n      mstore\n      pop\n      dup2\n      add\n      swap1\n      tag_329\n      swap2\n      swap1\n      tag_112\n      jump\t// in\n    tag_329:\n        /* \"contracts/SyCrowBarter.sol\":1802:1826  !isycrFactory.isPaused() */\n      iszero\n        /* \"contracts/SyCrowBarter.sol\":1794:1865  require(!isycrFactory.isPaused(), \"SyCrowBarter: Base Contract Paused\") */\n      tag_330\n      jumpi\n      mload(0x40)\n      0x08c379a000000000000000000000000000000000000000000000000000000000\n      dup2\n      mstore\n      0x04\n      add\n      tag_331\n      swap1\n      tag_115\n      jump\t// in\n    tag_331:\n      mload(0x40)\n      dup1\n      swap2\n      sub\n      swap1\n      revert\n    tag_330:\n        /* \"contracts/SyCrowBarter.sol\":5057:5090  ISyCrowBarterType.TOKEN_FOR_TOKEN */\n      0x02\n        /* \"contracts/SyCrowBarter.sol\":1180:1191  _barterType */\n      0x08\n      0x01\n      swap1\n      sload\n      swap1\n      0x0100\n      exp\n      swap1\n      div\n      0xff\n      and\n        /* \"contracts/SyCrowBarter.sol\":1166:1191  barterType == _barterType */\n      0x02\n      dup2\n      gt\n      iszero\n      tag_333\n      jumpi\n      tag_334\n      tag_123\n      jump\t// in\n    tag_334:\n    tag_333:\n        /* \"contracts/SyCrowBarter.sol\":1166:1176  barterType */\n      dup2\n        /* \"contracts/SyCrowBarter.sol\":1166:1191  barterType == _barterType */\n      0x02\n      dup2\n      gt\n      iszero\n      tag_335\n      jumpi\n      tag_336\n      tag_123\n      jump\t// in\n    tag_336:\n    tag_335:\n      eq\n        /* \"contracts/SyCrowBarter.sol\":1158:1229  require(barterType == _barterType, \"SyCrowBarter: INVALID_BARTER_TYPE\") */\n      tag_337\n      jumpi\n      mload(0x40)\n      0x08c379a000000000000000000000000000000000000000000000000000000000\n      dup2\n      mstore\n      0x04\n      add\n      tag_338\n      swap1\n      tag_128\n      jump\t// in\n    tag_338:\n      mload(0x40)\n      dup1\n      swap2\n      sub\n      swap1\n      revert\n    tag_337:\n        /* \"contracts/SyCrowBarter.sol\":5106:5142  _tradeTokenForToken(_expectedAmount) */\n      tag_340\n        /* \"contracts/SyCrowBarter.sol\":5126:5141  _expectedAmount */\n      sload(0x07)\n        /* \"contracts/SyCrowBarter.sol\":5106:5125  _tradeTokenForToken */\n      tag_157\n        /* \"contracts/SyCrowBarter.sol\":5106:5142  _tradeTokenForToken(_expectedAmount) */\n      jump\t// in\n    tag_340:\n        /* \"contracts/SyCrowBarter.sol\":1875:1876  _ */\n      pop\n        /* \"contracts/SyCrowBarter.sol\":1709:1883  {... */\n      pop\n        /* \"contracts/SyCrowBarter.sol\":4909:5149  function tradeTokenForToken()... */\n      jump\t// out\n        /* \"contracts/SyCrowBarter.sol\":323:364  address public immutable override factory */\n    tag_80:\n      immutable(\"0x26a975632f70533c9512e57b565b8ce8e2befee6b08dfbc27c4a897a20e2c1d6\")\n      dup2\n      jump\t// out\n        /* \"contracts/SyCrowBarter.sol\":5395:5645  function tradeEthForToken()... */\n    tag_83:\n        /* \"contracts/SyCrowBarter.sol\":968:983  block.timestamp */\n      timestamp\n        /* \"contracts/SyCrowBarter.sol\":955:964  _deadline */\n      sload(0x03)\n        /* \"contracts/SyCrowBarter.sol\":955:983  _deadline >= block.timestamp */\n      lt\n      iszero\n        /* \"contracts/SyCrowBarter.sol\":955:1021  _deadline >= block.timestamp && totalTradeAmount < _expectedAmount */\n      dup1\n      iszero\n      tag_342\n      jumpi\n      pop\n        /* \"contracts/SyCrowBarter.sol\":1006:1021  _expectedAmount */\n      sload(0x07)\n        /* \"contracts/SyCrowBarter.sol\":987:1003  totalTradeAmount */\n      sload(0x01)\n        /* \"contracts/SyCrowBarter.sol\":987:1021  totalTradeAmount < _expectedAmount */\n      lt\n        /* \"contracts/SyCrowBarter.sol\":955:1021  _deadline >= block.timestamp && totalTradeAmount < _expectedAmount */\n    tag_342:\n        /* \"contracts/SyCrowBarter.sol\":934:1069  require(... */\n      tag_343\n      jumpi\n      mload(0x40)\n      0x08c379a000000000000000000000000000000000000000000000000000000000\n      dup2\n      mstore\n      0x04\n      add\n      tag_344\n      swap1\n      tag_103\n      jump\t// in\n    tag_344:\n      mload(0x40)\n      dup1\n      swap2\n      sub\n      swap1\n      revert\n    tag_343:\n        /* \"contracts/SyCrowBarter.sol\":1486:1498  _initialized */\n      0x04\n      0x00\n      swap1\n      sload\n      swap1\n      0x0100\n      exp\n      swap1\n      div\n      0xff\n      and\n        /* \"contracts/SyCrowBarter.sol\":1478:1532  require(_initialized, \"SyCrowBarter: NOT_INITIALIZED\") */\n      tag_346\n      jumpi\n      mload(0x40)\n      0x08c379a000000000000000000000000000000000000000000000000000000000\n      dup2\n      mstore\n      0x04\n      add\n      tag_347\n      swap1\n      tag_107\n      jump\t// in\n    tag_347:\n      mload(0x40)\n      dup1\n      swap2\n      sub\n      swap1\n      revert\n    tag_346:\n        /* \"contracts/SyCrowBarter.sol\":1719:1752  ISyCrowBarterFactory isycrFactory */\n      0x00\n        /* \"contracts/SyCrowBarter.sol\":1776:1783  factory */\n      immutable(\"0x26a975632f70533c9512e57b565b8ce8e2befee6b08dfbc27c4a897a20e2c1d6\")\n        /* \"contracts/SyCrowBarter.sol\":1719:1784  ISyCrowBarterFactory isycrFactory = ISyCrowBarterFactory(factory) */\n      swap1\n      pop\n        /* \"contracts/SyCrowBarter.sol\":1803:1815  isycrFactory */\n      dup1\n        /* \"contracts/SyCrowBarter.sol\":1803:1824  isycrFactory.isPaused */\n      0xffffffffffffffffffffffffffffffffffffffff\n      and\n      0xb187bd26\n        /* \"contracts/SyCrowBarter.sol\":1803:1826  isycrFactory.isPaused() */\n      mload(0x40)\n      dup2\n      0xffffffff\n      and\n      0xe0\n      shl\n      dup2\n      mstore\n      0x04\n      add\n      0x20\n      mload(0x40)\n      dup1\n      dup4\n      sub\n      dup2\n      dup7\n      gas\n      staticcall\n      iszero\n      dup1\n      iszero\n      tag_350\n      jumpi\n      returndatasize\n      0x00\n      dup1\n      returndatacopy\n      revert(0x00, returndatasize)\n    tag_350:\n      pop\n      pop\n      pop\n      pop\n      mload(0x40)\n      returndatasize\n      not(0x1f)\n      0x1f\n      dup3\n      add\n      and\n      dup3\n      add\n      dup1\n      0x40\n      mstore\n      pop\n      dup2\n      add\n      swap1\n      tag_351\n      swap2\n      swap1\n      tag_112\n      jump\t// in\n    tag_351:\n        /* \"contracts/SyCrowBarter.sol\":1802:1826  !isycrFactory.isPaused() */\n      iszero\n        /* \"contracts/SyCrowBarter.sol\":1794:1865  require(!isycrFactory.isPaused(), \"SyCrowBarter: Base Contract Paused\") */\n      tag_352\n      jumpi\n      mload(0x40)\n      0x08c379a000000000000000000000000000000000000000000000000000000000\n      dup2\n      mstore\n      0x04\n      add\n      tag_353\n      swap1\n      tag_115\n      jump\t// in\n    tag_353:\n      mload(0x40)\n      dup1\n      swap2\n      sub\n      swap1\n      revert\n    tag_352:\n        /* \"contracts/SyCrowBarter.sol\":5557:5588  ISyCrowBarterType.TOKEN_FOR_ETH */\n      0x01\n        /* \"contracts/SyCrowBarter.sol\":1180:1191  _barterType */\n      0x08\n      0x01\n      swap1\n      sload\n      swap1\n      0x0100\n      exp\n      swap1\n      div\n      0xff\n      and\n        /* \"contracts/SyCrowBarter.sol\":1166:1191  barterType == _barterType */\n      0x02\n      dup2\n      gt\n      iszero\n      tag_355\n      jumpi\n      tag_356\n      tag_123\n      jump\t// in\n    tag_356:\n    tag_355:\n        /* \"contracts/SyCrowBarter.sol\":1166:1176  barterType */\n      dup2\n        /* \"contracts/SyCrowBarter.sol\":1166:1191  barterType == _barterType */\n      0x02\n      dup2\n      gt\n      iszero\n      tag_357\n      jumpi\n      tag_358\n      tag_123\n      jump\t// in\n    tag_358:\n    tag_357:\n      eq\n        /* \"contracts/SyCrowBarter.sol\":1158:1229  require(barterType == _barterType, \"SyCrowBarter: INVALID_BARTER_TYPE\") */\n      tag_359\n      jumpi\n      mload(0x40)\n      0x08c379a000000000000000000000000000000000000000000000000000000000\n      dup2\n      mstore\n      0x04\n      add\n      tag_360\n      swap1\n      tag_128\n      jump\t// in\n    tag_360:\n      mload(0x40)\n      dup1\n      swap2\n      sub\n      swap1\n      revert\n    tag_359:\n        /* \"contracts/SyCrowBarter.sol\":5604:5638  _tradeEthForToken(_expectedAmount) */\n      tag_362\n        /* \"contracts/SyCrowBarter.sol\":5622:5637  _expectedAmount */\n      sload(0x07)\n        /* \"contracts/SyCrowBarter.sol\":5604:5621  _tradeEthForToken */\n      tag_245\n        /* \"contracts/SyCrowBarter.sol\":5604:5638  _tradeEthForToken(_expectedAmount) */\n      jump\t// in\n    tag_362:\n        /* \"contracts/SyCrowBarter.sol\":1875:1876  _ */\n      pop\n        /* \"contracts/SyCrowBarter.sol\":1709:1883  {... */\n      pop\n        /* \"contracts/SyCrowBarter.sol\":5395:5645  function tradeEthForToken()... */\n      jump\t// out\n        /* \"contracts/SyCrowBarter.sol\":10983:11156  function getTradeOutAmount(uint256 amount)... */\n    tag_87:\n        /* \"contracts/SyCrowBarter.sol\":11093:11100  uint256 */\n      0x00\n        /* \"contracts/SyCrowBarter.sol\":1486:1498  _initialized */\n      0x04\n      0x00\n      swap1\n      sload\n      swap1\n      0x0100\n      exp\n      swap1\n      div\n      0xff\n      and\n        /* \"contracts/SyCrowBarter.sol\":1478:1532  require(_initialized, \"SyCrowBarter: NOT_INITIALIZED\") */\n      tag_364\n      jumpi\n      mload(0x40)\n      0x08c379a000000000000000000000000000000000000000000000000000000000\n      dup2\n      mstore\n      0x04\n      add\n      tag_365\n      swap1\n      tag_107\n      jump\t// in\n    tag_365:\n      mload(0x40)\n      dup1\n      swap2\n      sub\n      swap1\n      revert\n    tag_364:\n        /* \"contracts/SyCrowBarter.sol\":11123:11149  _getTradeOutAmount(amount) */\n      tag_367\n        /* \"contracts/SyCrowBarter.sol\":11142:11148  amount */\n      dup3\n        /* \"contracts/SyCrowBarter.sol\":11123:11141  _getTradeOutAmount */\n      tag_368\n        /* \"contracts/SyCrowBarter.sol\":11123:11149  _getTradeOutAmount(amount) */\n      jump\t// in\n    tag_367:\n        /* \"contracts/SyCrowBarter.sol\":11116:11149  return _getTradeOutAmount(amount) */\n      swap1\n      pop\n        /* \"contracts/SyCrowBarter.sol\":10983:11156  function getTradeOutAmount(uint256 amount)... */\n      swap2\n      swap1\n      pop\n      jump\t// out\n        /* \"contracts/SyCrowBarter.sol\":3370:4056  function getTrades()... */\n    tag_92:\n        /* \"contracts/SyCrowBarter.sol\":3488:3504  address[] memory */\n      0x60\n        /* \"contracts/SyCrowBarter.sol\":3518:3534  uint256[] memory */\n      dup1\n        /* \"contracts/SyCrowBarter.sol\":3548:3564  uint256[] memory */\n      0x60\n        /* \"contracts/SyCrowBarter.sol\":1486:1498  _initialized */\n      0x04\n      0x00\n      swap1\n      sload\n      swap1\n      0x0100\n      exp\n      swap1\n      div\n      0xff\n      and\n        /* \"contracts/SyCrowBarter.sol\":1478:1532  require(_initialized, \"SyCrowBarter: NOT_INITIALIZED\") */\n      tag_370\n      jumpi\n      mload(0x40)\n      0x08c379a000000000000000000000000000000000000000000000000000000000\n      dup2\n      mstore\n      0x04\n      add\n      tag_371\n      swap1\n      tag_107\n      jump\t// in\n    tag_371:\n      mload(0x40)\n      dup1\n      swap2\n      sub\n      swap1\n      revert\n    tag_370:\n        /* \"contracts/SyCrowBarter.sol\":3589:3615  address[] memory addresses */\n      0x00\n        /* \"contracts/SyCrowBarter.sol\":3632:3639  _trades */\n      0x09\n        /* \"contracts/SyCrowBarter.sol\":3632:3646  _trades.length */\n      dup1\n      sload\n      swap1\n      pop\n        /* \"contracts/SyCrowBarter.sol\":3618:3647  new address[](_trades.length) */\n      0xffffffffffffffff\n      dup2\n      gt\n      iszero\n      tag_373\n      jumpi\n      tag_374\n      tag_375\n      jump\t// in\n    tag_374:\n    tag_373:\n      mload(0x40)\n      swap1\n      dup1\n      dup3\n      mstore\n      dup1\n      0x20\n      mul\n      0x20\n      add\n      dup3\n      add\n      0x40\n      mstore\n      dup1\n      iszero\n      tag_376\n      jumpi\n      dup2\n      0x20\n      add\n      0x20\n      dup3\n      mul\n      dup1\n      calldatasize\n      dup4\n      calldatacopy\n      dup1\n      dup3\n      add\n      swap2\n      pop\n      pop\n      swap1\n      pop\n    tag_376:\n      pop\n        /* \"contracts/SyCrowBarter.sol\":3589:3647  address[] memory addresses = new address[](_trades.length) */\n      swap1\n      pop\n        /* \"contracts/SyCrowBarter.sol\":3657:3683  uint256[] memory amountsIn */\n      0x00\n        /* \"contracts/SyCrowBarter.sol\":3700:3707  _trades */\n      0x09\n        /* \"contracts/SyCrowBarter.sol\":3700:3714  _trades.length */\n      dup1\n      sload\n      swap1\n      pop\n        /* \"contracts/SyCrowBarter.sol\":3686:3715  new uint256[](_trades.length) */\n      0xffffffffffffffff\n      dup2\n      gt\n      iszero\n      tag_377\n      jumpi\n      tag_378\n      tag_375\n      jump\t// in\n    tag_378:\n    tag_377:\n      mload(0x40)\n      swap1\n      dup1\n      dup3\n      mstore\n      dup1\n      0x20\n      mul\n      0x20\n      add\n      dup3\n      add\n      0x40\n      mstore\n      dup1\n      iszero\n      tag_379\n      jumpi\n      dup2\n      0x20\n      add\n      0x20\n      dup3\n      mul\n      dup1\n      calldatasize\n      dup4\n      calldatacopy\n      dup1\n      dup3\n      add\n      swap2\n      pop\n      pop\n      swap1\n      pop\n    tag_379:\n      pop\n        /* \"contracts/SyCrowBarter.sol\":3657:3715  uint256[] memory amountsIn = new uint256[](_trades.length) */\n      swap1\n      pop\n        /* \"contracts/SyCrowBarter.sol\":3725:3752  uint256[] memory amountsOut */\n      0x00\n        /* \"contracts/SyCrowBarter.sol\":3769:3776  _trades */\n      0x09\n        /* \"contracts/SyCrowBarter.sol\":3769:3783  _trades.length */\n      dup1\n      sload\n      swap1\n      pop\n        /* \"contracts/SyCrowBarter.sol\":3755:3784  new uint256[](_trades.length) */\n      0xffffffffffffffff\n      dup2\n      gt\n      iszero\n      tag_380\n      jumpi\n      tag_381\n      tag_375\n      jump\t// in\n    tag_381:\n    tag_380:\n      mload(0x40)\n      swap1\n      dup1\n      dup3\n      mstore\n      dup1\n      0x20\n      mul\n      0x20\n      add\n      dup3\n      add\n      0x40\n      mstore\n      dup1\n      iszero\n      tag_382\n      jumpi\n      dup2\n      0x20\n      add\n      0x20\n      dup3\n      mul\n      dup1\n      calldatasize\n      dup4\n      calldatacopy\n      dup1\n      dup3\n      add\n      swap2\n      pop\n      pop\n      swap1\n      pop\n    tag_382:\n      pop\n        /* \"contracts/SyCrowBarter.sol\":3725:3784  uint256[] memory amountsOut = new uint256[](_trades.length) */\n      swap1\n      pop\n        /* \"contracts/SyCrowBarter.sol\":3800:3809  uint256 i */\n      0x00\n        /* \"contracts/SyCrowBarter.sol\":3795:3998  for (uint256 i = 0; i < _trades.length; i++) {... */\n    tag_383:\n        /* \"contracts/SyCrowBarter.sol\":3819:3826  _trades */\n      0x09\n        /* \"contracts/SyCrowBarter.sol\":3819:3833  _trades.length */\n      dup1\n      sload\n      swap1\n      pop\n        /* \"contracts/SyCrowBarter.sol\":3815:3816  i */\n      dup2\n        /* \"contracts/SyCrowBarter.sol\":3815:3833  i < _trades.length */\n      lt\n        /* \"contracts/SyCrowBarter.sol\":3795:3998  for (uint256 i = 0; i < _trades.length; i++) {... */\n      iszero\n      tag_384\n      jumpi\n        /* \"contracts/SyCrowBarter.sol\":3869:3876  _trades */\n      0x09\n        /* \"contracts/SyCrowBarter.sol\":3877:3878  i */\n      dup2\n        /* \"contracts/SyCrowBarter.sol\":3869:3879  _trades[i] */\n      dup2\n      sload\n      dup2\n      lt\n      tag_386\n      jumpi\n      tag_387\n      tag_388\n      jump\t// in\n    tag_387:\n    tag_386:\n      swap1\n      0x00\n      mstore\n      keccak256(0x00, 0x20)\n      swap1\n      0x03\n      mul\n      add\n        /* \"contracts/SyCrowBarter.sol\":3869:3887  _trades[i]._trader */\n      0x00\n      add\n      0x00\n      swap1\n      sload\n      swap1\n      0x0100\n      exp\n      swap1\n      div\n      0xffffffffffffffffffffffffffffffffffffffff\n      and\n        /* \"contracts/SyCrowBarter.sol\":3854:3863  addresses */\n      dup5\n        /* \"contracts/SyCrowBarter.sol\":3864:3865  i */\n      dup3\n        /* \"contracts/SyCrowBarter.sol\":3854:3866  addresses[i] */\n      dup2\n      mload\n      dup2\n      lt\n      tag_390\n      jumpi\n      tag_391\n      tag_388\n      jump\t// in\n    tag_391:\n    tag_390:\n      0x20\n      mul\n      0x20\n      add\n      add\n        /* \"contracts/SyCrowBarter.sol\":3854:3887  addresses[i] = _trades[i]._trader */\n      swap1\n      0xffffffffffffffffffffffffffffffffffffffff\n      and\n      swap1\n      dup2\n      0xffffffffffffffffffffffffffffffffffffffff\n      and\n      dup2\n      mstore\n      pop\n      pop\n        /* \"contracts/SyCrowBarter.sol\":3916:3923  _trades */\n      0x09\n        /* \"contracts/SyCrowBarter.sol\":3924:3925  i */\n      dup2\n        /* \"contracts/SyCrowBarter.sol\":3916:3926  _trades[i] */\n      dup2\n      sload\n      dup2\n      lt\n      tag_392\n      jumpi\n      tag_393\n      tag_388\n      jump\t// in\n    tag_393:\n    tag_392:\n      swap1\n      0x00\n      mstore\n      keccak256(0x00, 0x20)\n      swap1\n      0x03\n      mul\n      add\n        /* \"contracts/SyCrowBarter.sol\":3916:3936  _trades[i]._amountIn */\n      0x01\n      add\n      sload\n        /* \"contracts/SyCrowBarter.sol\":3901:3910  amountsIn */\n      dup4\n        /* \"contracts/SyCrowBarter.sol\":3911:3912  i */\n      dup3\n        /* \"contracts/SyCrowBarter.sol\":3901:3913  amountsIn[i] */\n      dup2\n      mload\n      dup2\n      lt\n      tag_395\n      jumpi\n      tag_396\n      tag_388\n      jump\t// in\n    tag_396:\n    tag_395:\n      0x20\n      mul\n      0x20\n      add\n      add\n        /* \"contracts/SyCrowBarter.sol\":3901:3936  amountsIn[i] = _trades[i]._amountIn */\n      dup2\n      dup2\n      mstore\n      pop\n      pop\n        /* \"contracts/SyCrowBarter.sol\":3966:3973  _trades */\n      0x09\n        /* \"contracts/SyCrowBarter.sol\":3974:3975  i */\n      dup2\n        /* \"contracts/SyCrowBarter.sol\":3966:3976  _trades[i] */\n      dup2\n      sload\n      dup2\n      lt\n      tag_397\n      jumpi\n      tag_398\n      tag_388\n      jump\t// in\n    tag_398:\n    tag_397:\n      swap1\n      0x00\n      mstore\n      keccak256(0x00, 0x20)\n      swap1\n      0x03\n      mul\n      add\n        /* \"contracts/SyCrowBarter.sol\":3966:3987  _trades[i]._amountOut */\n      0x02\n      add\n      sload\n        /* \"contracts/SyCrowBarter.sol\":3950:3960  amountsOut */\n      dup3\n        /* \"contracts/SyCrowBarter.sol\":3961:3962  i */\n      dup3\n        /* \"contracts/SyCrowBarter.sol\":3950:3963  amountsOut[i] */\n      dup2\n      mload\n      dup2\n      lt\n      tag_400\n      jumpi\n      tag_401\n      tag_388\n      jump\t// in\n    tag_401:\n    tag_400:\n      0x20\n      mul\n      0x20\n      add\n      add\n        /* \"contracts/SyCrowBarter.sol\":3950:3987  amountsOut[i] = _trades[i]._amountOut */\n      dup2\n      dup2\n      mstore\n      pop\n      pop\n        /* \"contracts/SyCrowBarter.sol\":3835:3838  i++ */\n      dup1\n      dup1\n      tag_402\n      swap1\n      tag_403\n      jump\t// in\n    tag_402:\n      swap2\n      pop\n      pop\n        /* \"contracts/SyCrowBarter.sol\":3795:3998  for (uint256 i = 0; i < _trades.length; i++) {... */\n      jump(tag_383)\n    tag_384:\n      pop\n        /* \"contracts/SyCrowBarter.sol\":4016:4025  addresses */\n      dup3\n        /* \"contracts/SyCrowBarter.sol\":4027:4036  amountsIn */\n      dup3\n        /* \"contracts/SyCrowBarter.sol\":4038:4048  amountsOut */\n      dup3\n        /* \"contracts/SyCrowBarter.sol\":4008:4049  return (addresses, amountsIn, amountsOut) */\n      swap6\n      pop\n      swap6\n      pop\n      swap6\n      pop\n      pop\n      pop\n      pop\n        /* \"contracts/SyCrowBarter.sol\":3370:4056  function getTrades()... */\n      swap1\n      swap2\n      swap3\n      jump\t// out\n        /* \"@openzeppelin/contracts/access/Ownable.sol\":1918:2116  function transferOwnership(address newOwner) public virtual onlyOwner {... */\n    tag_98:\n        /* \"@openzeppelin/contracts/access/Ownable.sol\":1259:1271  _msgSender() */\n      tag_405\n        /* \"@openzeppelin/contracts/access/Ownable.sol\":1259:1269  _msgSender */\n      tag_168\n        /* \"@openzeppelin/contracts/access/Ownable.sol\":1259:1271  _msgSender() */\n      jump\t// in\n    tag_405:\n        /* \"@openzeppelin/contracts/access/Ownable.sol\":1248:1271  owner() == _msgSender() */\n      0xffffffffffffffffffffffffffffffffffffffff\n      and\n        /* \"@openzeppelin/contracts/access/Ownable.sol\":1248:1255  owner() */\n      tag_406\n        /* \"@openzeppelin/contracts/access/Ownable.sol\":1248:1253  owner */\n      tag_64\n        /* \"@openzeppelin/contracts/access/Ownable.sol\":1248:1255  owner() */\n      jump\t// in\n    tag_406:\n        /* \"@openzeppelin/contracts/access/Ownable.sol\":1248:1271  owner() == _msgSender() */\n      0xffffffffffffffffffffffffffffffffffffffff\n      and\n      eq\n        /* \"@openzeppelin/contracts/access/Ownable.sol\":1240:1308  require(owner() == _msgSender(), \"Ownable: caller is not the owner\") */\n      tag_407\n      jumpi\n      mload(0x40)\n      0x08c379a000000000000000000000000000000000000000000000000000000000\n      dup2\n      mstore\n      0x04\n      add\n      tag_408\n      swap1\n      tag_172\n      jump\t// in\n    tag_408:\n      mload(0x40)\n      dup1\n      swap2\n      sub\n      swap1\n      revert\n    tag_407:\n        /* \"@openzeppelin/contracts/access/Ownable.sol\":2026:2027  0 */\n      0x00\n        /* \"@openzeppelin/contracts/access/Ownable.sol\":2006:2028  newOwner != address(0) */\n      0xffffffffffffffffffffffffffffffffffffffff\n      and\n        /* \"@openzeppelin/contracts/access/Ownable.sol\":2006:2014  newOwner */\n      dup2\n        /* \"@openzeppelin/contracts/access/Ownable.sol\":2006:2028  newOwner != address(0) */\n      0xffffffffffffffffffffffffffffffffffffffff\n      and\n      sub\n        /* \"@openzeppelin/contracts/access/Ownable.sol\":1998:2071  require(newOwner != address(0), \"Ownable: new owner is the zero address\") */\n      tag_410\n      jumpi\n      mload(0x40)\n      0x08c379a000000000000000000000000000000000000000000000000000000000\n      dup2\n      mstore\n      0x04\n      add\n      tag_411\n      swap1\n      tag_412\n      jump\t// in\n    tag_411:\n      mload(0x40)\n      dup1\n      swap2\n      sub\n      swap1\n      revert\n    tag_410:\n        /* \"@openzeppelin/contracts/access/Ownable.sol\":2081:2109  _transferOwnership(newOwner) */\n      tag_413\n        /* \"@openzeppelin/contracts/access/Ownable.sol\":2100:2108  newOwner */\n      dup2\n        /* \"@openzeppelin/contracts/access/Ownable.sol\":2081:2099  _transferOwnership */\n      tag_291\n        /* \"@openzeppelin/contracts/access/Ownable.sol\":2081:2109  _transferOwnership(newOwner) */\n      jump\t// in\n    tag_413:\n        /* \"@openzeppelin/contracts/access/Ownable.sol\":1918:2116  function transferOwnership(address newOwner) public virtual onlyOwner {... */\n      pop\n      jump\t// out\n        /* \"contracts/SyCrowBarter.sol\":6698:7707  function _tradeTokenForEth(uint256 inAmount) internal {... */\n    tag_131:\n        /* \"contracts/SyCrowBarter.sol\":6838:6846  inAmount */\n      dup1\n        /* \"contracts/SyCrowBarter.sol\":6790:6811  _expectedTokenAddress */\n      0x05\n      0x00\n      swap1\n      sload\n      swap1\n      0x0100\n      exp\n      swap1\n      div\n      0xffffffffffffffffffffffffffffffffffffffff\n      and\n        /* \"contracts/SyCrowBarter.sol\":6783:6822  IERC20(_expectedTokenAddress).balanceOf */\n      0xffffffffffffffffffffffffffffffffffffffff\n      and\n      0x70a08231\n        /* \"contracts/SyCrowBarter.sol\":6823:6833  msg.sender */\n      caller\n        /* \"contracts/SyCrowBarter.sol\":6783:6834  IERC20(_expectedTokenAddress).balanceOf(msg.sender) */\n      mload(0x40)\n      dup3\n      0xffffffff\n      and\n      0xe0\n      shl\n      dup2\n      mstore\n      0x04\n      add\n      tag_415\n      swap2\n      swap1\n      tag_66\n      jump\t// in\n    tag_415:\n      0x20\n      mload(0x40)\n      dup1\n      dup4\n      sub\n      dup2\n      dup7\n      gas\n      staticcall\n      iszero\n      dup1\n      iszero\n      tag_417\n      jumpi\n      returndatasize\n      0x00\n      dup1\n      returndatacopy\n      revert(0x00, returndatasize)\n    tag_417:\n      pop\n      pop\n      pop\n      pop\n      mload(0x40)\n      returndatasize\n      not(0x1f)\n      0x1f\n      dup3\n      add\n      and\n      dup3\n      add\n      dup1\n      0x40\n      mstore\n      pop\n      dup2\n      add\n      swap1\n      tag_418\n      swap2\n      swap1\n      tag_178\n      jump\t// in\n    tag_418:\n        /* \"contracts/SyCrowBarter.sol\":6783:6846  IERC20(_expectedTokenAddress).balanceOf(msg.sender) >= inAmount */\n      lt\n      iszero\n        /* \"contracts/SyCrowBarter.sol\":6762:6906  require(... */\n      tag_419\n      jumpi\n      mload(0x40)\n      0x08c379a000000000000000000000000000000000000000000000000000000000\n      dup2\n      mstore\n      0x04\n      add\n      tag_420\n      swap1\n      tag_421\n      jump\t// in\n    tag_420:\n      mload(0x40)\n      dup1\n      swap2\n      sub\n      swap1\n      revert\n    tag_419:\n        /* \"contracts/SyCrowBarter.sol\":6917:6934  uint256 outAmount */\n      0x00\n        /* \"contracts/SyCrowBarter.sol\":6937:6965  _getTradeOutAmount(inAmount) */\n      tag_422\n        /* \"contracts/SyCrowBarter.sol\":6956:6964  inAmount */\n      dup3\n        /* \"contracts/SyCrowBarter.sol\":6937:6955  _getTradeOutAmount */\n      tag_368\n        /* \"contracts/SyCrowBarter.sol\":6937:6965  _getTradeOutAmount(inAmount) */\n      jump\t// in\n    tag_422:\n        /* \"contracts/SyCrowBarter.sol\":6917:6965  uint256 outAmount = _getTradeOutAmount(inAmount) */\n      swap1\n      pop\n        /* \"contracts/SyCrowBarter.sol\":6976:6987  IWETH _weth */\n      0x00\n        /* \"contracts/SyCrowBarter.sol\":6996:7000  WETH */\n      0x02\n      0x00\n      swap1\n      sload\n      swap1\n      0x0100\n      exp\n      swap1\n      div\n      0xffffffffffffffffffffffffffffffffffffffff\n      and\n        /* \"contracts/SyCrowBarter.sol\":6976:7001  IWETH _weth = IWETH(WETH) */\n      swap1\n      pop\n        /* \"contracts/SyCrowBarter.sol\":7067:7076  outAmount */\n      dup2\n        /* \"contracts/SyCrowBarter.sol\":7033:7038  _weth */\n      dup2\n        /* \"contracts/SyCrowBarter.sol\":7033:7048  _weth.balanceOf */\n      0xffffffffffffffffffffffffffffffffffffffff\n      and\n      0x70a08231\n        /* \"contracts/SyCrowBarter.sol\":7057:7061  this */\n      address\n        /* \"contracts/SyCrowBarter.sol\":7033:7063  _weth.balanceOf(address(this)) */\n      mload(0x40)\n      dup3\n      0xffffffff\n      and\n      0xe0\n      shl\n      dup2\n      mstore\n      0x04\n      add\n      tag_423\n      swap2\n      swap1\n      tag_66\n      jump\t// in\n    tag_423:\n      0x20\n      mload(0x40)\n      dup1\n      dup4\n      sub\n      dup2\n      dup7\n      gas\n      staticcall\n      iszero\n      dup1\n      iszero\n      tag_425\n      jumpi\n      returndatasize\n      0x00\n      dup1\n      returndatacopy\n      revert(0x00, returndatasize)\n    tag_425:\n      pop\n      pop\n      pop\n      pop\n      mload(0x40)\n      returndatasize\n      not(0x1f)\n      0x1f\n      dup3\n      add\n      and\n      dup3\n      add\n      dup1\n      0x40\n      mstore\n      pop\n      dup2\n      add\n      swap1\n      tag_426\n      swap2\n      swap1\n      tag_178\n      jump\t// in\n    tag_426:\n        /* \"contracts/SyCrowBarter.sol\":7033:7076  _weth.balanceOf(address(this)) >= outAmount */\n      lt\n      iszero\n        /* \"contracts/SyCrowBarter.sol\":7012:7145  require(... */\n      tag_427\n      jumpi\n      mload(0x40)\n      0x08c379a000000000000000000000000000000000000000000000000000000000\n      dup2\n      mstore\n      0x04\n      add\n      tag_428\n      swap1\n      tag_429\n      jump\t// in\n    tag_428:\n      mload(0x40)\n      dup1\n      swap2\n      sub\n      swap1\n      revert\n    tag_427:\n        /* \"contracts/SyCrowBarter.sol\":7162:7166  WETH */\n      0x02\n      0x00\n      swap1\n      sload\n      swap1\n      0x0100\n      exp\n      swap1\n      div\n      0xffffffffffffffffffffffffffffffffffffffff\n      and\n        /* \"contracts/SyCrowBarter.sol\":7156:7176  IWETH(WETH).withdraw */\n      0xffffffffffffffffffffffffffffffffffffffff\n      and\n      0x2e1a7d4d\n        /* \"contracts/SyCrowBarter.sol\":7177:7186  outAmount */\n      dup4\n        /* \"contracts/SyCrowBarter.sol\":7156:7187  IWETH(WETH).withdraw(outAmount) */\n      mload(0x40)\n      dup3\n      0xffffffff\n      and\n      0xe0\n      shl\n      dup2\n      mstore\n      0x04\n      add\n      tag_430\n      swap2\n      swap1\n      tag_89\n      jump\t// in\n    tag_430:\n      0x00\n      mload(0x40)\n      dup1\n      dup4\n      sub\n      dup2\n      0x00\n      dup8\n      dup1\n      extcodesize\n      iszero\n      dup1\n      iszero\n      tag_431\n      jumpi\n      0x00\n      dup1\n      revert\n    tag_431:\n      pop\n      gas\n      call\n      iszero\n      dup1\n      iszero\n      tag_433\n      jumpi\n      returndatasize\n      0x00\n      dup1\n      returndatacopy\n      revert(0x00, returndatasize)\n    tag_433:\n      pop\n      pop\n      pop\n      pop\n        /* \"contracts/SyCrowBarter.sol\":7198:7347  TransferHelper.safeTransferFrom(... */\n      tag_434\n        /* \"contracts/SyCrowBarter.sol\":7243:7264  _expectedTokenAddress */\n      0x05\n      0x00\n      swap1\n      sload\n      swap1\n      0x0100\n      exp\n      swap1\n      div\n      0xffffffffffffffffffffffffffffffffffffffff\n      and\n        /* \"contracts/SyCrowBarter.sol\":7278:7288  msg.sender */\n      caller\n        /* \"contracts/SyCrowBarter.sol\":7310:7314  this */\n      address\n        /* \"contracts/SyCrowBarter.sol\":7329:7337  inAmount */\n      dup7\n        /* \"contracts/SyCrowBarter.sol\":7198:7229  TransferHelper.safeTransferFrom */\n      tag_435\n        /* \"contracts/SyCrowBarter.sol\":7198:7347  TransferHelper.safeTransferFrom(... */\n      jump\t// in\n    tag_434:\n        /* \"contracts/SyCrowBarter.sol\":7357:7410  TransferHelper.safeTransferETH(msg.sender, outAmount) */\n      tag_436\n        /* \"contracts/SyCrowBarter.sol\":7388:7398  msg.sender */\n      caller\n        /* \"contracts/SyCrowBarter.sol\":7400:7409  outAmount */\n      dup4\n        /* \"contracts/SyCrowBarter.sol\":7357:7387  TransferHelper.safeTransferETH */\n      tag_185\n        /* \"contracts/SyCrowBarter.sol\":7357:7410  TransferHelper.safeTransferETH(msg.sender, outAmount) */\n      jump\t// in\n    tag_436:\n        /* \"contracts/SyCrowBarter.sol\":7421:7428  _trades */\n      0x09\n        /* \"contracts/SyCrowBarter.sol\":7434:7477  BaterTrade(msg.sender, inAmount, outAmount) */\n      mload(0x40)\n      dup1\n      0x60\n      add\n      0x40\n      mstore\n      dup1\n        /* \"contracts/SyCrowBarter.sol\":7445:7455  msg.sender */\n      caller\n        /* \"contracts/SyCrowBarter.sol\":7434:7477  BaterTrade(msg.sender, inAmount, outAmount) */\n      0xffffffffffffffffffffffffffffffffffffffff\n      and\n      dup2\n      mstore\n      0x20\n      add\n        /* \"contracts/SyCrowBarter.sol\":7457:7465  inAmount */\n      dup6\n        /* \"contracts/SyCrowBarter.sol\":7434:7477  BaterTrade(msg.sender, inAmount, outAmount) */\n      dup2\n      mstore\n      0x20\n      add\n        /* \"contracts/SyCrowBarter.sol\":7467:7476  outAmount */\n      dup5\n        /* \"contracts/SyCrowBarter.sol\":7434:7477  BaterTrade(msg.sender, inAmount, outAmount) */\n      dup2\n      mstore\n      pop\n        /* \"contracts/SyCrowBarter.sol\":7421:7478  _trades.push(BaterTrade(msg.sender, inAmount, outAmount)) */\n      swap1\n      dup1\n      0x01\n      dup2\n      sload\n      add\n      dup1\n      dup3\n      sstore\n      dup1\n      swap2\n      pop\n      pop\n      0x01\n      swap1\n      sub\n      swap1\n      0x00\n      mstore\n      keccak256(0x00, 0x20)\n      swap1\n      0x03\n      mul\n      add\n      0x00\n      swap1\n      swap2\n      swap1\n      swap2\n      swap1\n      swap2\n      pop\n      0x00\n      dup3\n      add\n      mload\n      dup2\n      0x00\n      add\n      exp(0x0100, 0x00)\n      dup2\n      sload\n      dup2\n      0xffffffffffffffffffffffffffffffffffffffff\n      mul\n      not\n      and\n      swap1\n      dup4\n      0xffffffffffffffffffffffffffffffffffffffff\n      and\n      mul\n      or\n      swap1\n      sstore\n      pop\n      0x20\n      dup3\n      add\n      mload\n      dup2\n      0x01\n      add\n      sstore\n      0x40\n      dup3\n      add\n      mload\n      dup2\n      0x02\n      add\n      sstore\n      pop\n      pop\n        /* \"contracts/SyCrowBarter.sol\":7489:7521  ISyCrowBarterFactory sycrFactory */\n      0x00\n        /* \"contracts/SyCrowBarter.sol\":7545:7552  factory */\n      immutable(\"0x26a975632f70533c9512e57b565b8ce8e2befee6b08dfbc27c4a897a20e2c1d6\")\n        /* \"contracts/SyCrowBarter.sol\":7489:7553  ISyCrowBarterFactory sycrFactory = ISyCrowBarterFactory(factory) */\n      swap1\n      pop\n        /* \"contracts/SyCrowBarter.sol\":7563:7574  sycrFactory */\n      dup1\n        /* \"contracts/SyCrowBarter.sol\":7563:7594  sycrFactory.notifyTradeByBarter */\n      0xffffffffffffffffffffffffffffffffffffffff\n      and\n      0xf52701b7\n        /* \"contracts/SyCrowBarter.sol\":7616:7620  this */\n      address\n        /* \"contracts/SyCrowBarter.sol\":7635:7645  msg.sender */\n      caller\n        /* \"contracts/SyCrowBarter.sol\":7659:7667  inAmount */\n      dup8\n        /* \"contracts/SyCrowBarter.sol\":7681:7690  outAmount */\n      dup8\n        /* \"contracts/SyCrowBarter.sol\":7563:7700  sycrFactory.notifyTradeByBarter(... */\n      mload(0x40)\n      dup6\n      0xffffffff\n      and\n      0xe0\n      shl\n      dup2\n      mstore\n      0x04\n      add\n      tag_438\n      swap5\n      swap4\n      swap3\n      swap2\n      swap1\n      tag_212\n      jump\t// in\n    tag_438:\n      0x00\n      mload(0x40)\n      dup1\n      dup4\n      sub\n      dup2\n      0x00\n      dup8\n      dup1\n      extcodesize\n      iszero\n      dup1\n      iszero\n      tag_439\n      jumpi\n      0x00\n      dup1\n      revert\n    tag_439:\n      pop\n      gas\n      call\n      iszero\n      dup1\n      iszero\n      tag_441\n      jumpi\n      returndatasize\n      0x00\n      dup1\n      returndatacopy\n      revert(0x00, returndatasize)\n    tag_441:\n      pop\n      pop\n      pop\n      pop\n        /* \"contracts/SyCrowBarter.sol\":6752:7707  {... */\n      pop\n      pop\n      pop\n        /* \"contracts/SyCrowBarter.sol\":6698:7707  function _tradeTokenForEth(uint256 inAmount) internal {... */\n      pop\n      jump\t// out\n        /* \"contracts/SyCrowBarter.sol\":5651:6692  function _tradeTokenForToken(uint256 inAmount) internal {... */\n    tag_157:\n        /* \"contracts/SyCrowBarter.sol\":5793:5801  inAmount */\n      dup1\n        /* \"contracts/SyCrowBarter.sol\":5745:5766  _expectedTokenAddress */\n      0x05\n      0x00\n      swap1\n      sload\n      swap1\n      0x0100\n      exp\n      swap1\n      div\n      0xffffffffffffffffffffffffffffffffffffffff\n      and\n        /* \"contracts/SyCrowBarter.sol\":5738:5777  IERC20(_expectedTokenAddress).balanceOf */\n      0xffffffffffffffffffffffffffffffffffffffff\n      and\n      0x70a08231\n        /* \"contracts/SyCrowBarter.sol\":5778:5788  msg.sender */\n      caller\n        /* \"contracts/SyCrowBarter.sol\":5738:5789  IERC20(_expectedTokenAddress).balanceOf(msg.sender) */\n      mload(0x40)\n      dup3\n      0xffffffff\n      and\n      0xe0\n      shl\n      dup2\n      mstore\n      0x04\n      add\n      tag_443\n      swap2\n      swap1\n      tag_66\n      jump\t// in\n    tag_443:\n      0x20\n      mload(0x40)\n      dup1\n      dup4\n      sub\n      dup2\n      dup7\n      gas\n      staticcall\n      iszero\n      dup1\n      iszero\n      tag_445\n      jumpi\n      returndatasize\n      0x00\n      dup1\n      returndatacopy\n      revert(0x00, returndatasize)\n    tag_445:\n      pop\n      pop\n      pop\n      pop\n      mload(0x40)\n      returndatasize\n      not(0x1f)\n      0x1f\n      dup3\n      add\n      and\n      dup3\n      add\n      dup1\n      0x40\n      mstore\n      pop\n      dup2\n      add\n      swap1\n      tag_446\n      swap2\n      swap1\n      tag_178\n      jump\t// in\n    tag_446:\n        /* \"contracts/SyCrowBarter.sol\":5738:5801  IERC20(_expectedTokenAddress).balanceOf(msg.sender) >= inAmount */\n      lt\n      iszero\n        /* \"contracts/SyCrowBarter.sol\":5717:5861  require(... */\n      tag_447\n      jumpi\n      mload(0x40)\n      0x08c379a000000000000000000000000000000000000000000000000000000000\n      dup2\n      mstore\n      0x04\n      add\n      tag_448\n      swap1\n      tag_421\n      jump\t// in\n    tag_448:\n      mload(0x40)\n      dup1\n      swap2\n      sub\n      swap1\n      revert\n    tag_447:\n        /* \"contracts/SyCrowBarter.sol\":5872:5889  uint256 outAmount */\n      0x00\n        /* \"contracts/SyCrowBarter.sol\":5892:5920  _getTradeOutAmount(inAmount) */\n      tag_449\n        /* \"contracts/SyCrowBarter.sol\":5911:5919  inAmount */\n      dup3\n        /* \"contracts/SyCrowBarter.sol\":5892:5910  _getTradeOutAmount */\n      tag_368\n        /* \"contracts/SyCrowBarter.sol\":5892:5920  _getTradeOutAmount(inAmount) */\n      jump\t// in\n    tag_449:\n        /* \"contracts/SyCrowBarter.sol\":5872:5920  uint256 outAmount = _getTradeOutAmount(inAmount) */\n      swap1\n      pop\n        /* \"contracts/SyCrowBarter.sol\":6027:6036  outAmount */\n      dup1\n        /* \"contracts/SyCrowBarter.sol\":5959:5981  _depositedTokenAddress */\n      0x04\n      0x01\n      swap1\n      sload\n      swap1\n      0x0100\n      exp\n      swap1\n      div\n      0xffffffffffffffffffffffffffffffffffffffff\n      and\n        /* \"contracts/SyCrowBarter.sol\":5952:5992  IERC20(_depositedTokenAddress).balanceOf */\n      0xffffffffffffffffffffffffffffffffffffffff\n      and\n      0x70a08231\n        /* \"contracts/SyCrowBarter.sol\":6001:6005  this */\n      address\n        /* \"contracts/SyCrowBarter.sol\":5952:6007  IERC20(_depositedTokenAddress).balanceOf(address(this)) */\n      mload(0x40)\n      dup3\n      0xffffffff\n      and\n      0xe0\n      shl\n      dup2\n      mstore\n      0x04\n      add\n      tag_450\n      swap2\n      swap1\n      tag_66\n      jump\t// in\n    tag_450:\n      0x20\n      mload(0x40)\n      dup1\n      dup4\n      sub\n      dup2\n      dup7\n      gas\n      staticcall\n      iszero\n      dup1\n      iszero\n      tag_452\n      jumpi\n      returndatasize\n      0x00\n      dup1\n      returndatacopy\n      revert(0x00, returndatasize)\n    tag_452:\n      pop\n      pop\n      pop\n      pop\n      mload(0x40)\n      returndatasize\n      not(0x1f)\n      0x1f\n      dup3\n      add\n      and\n      dup3\n      add\n      dup1\n      0x40\n      mstore\n      pop\n      dup2\n      add\n      swap1\n      tag_453\n      swap2\n      swap1\n      tag_178\n      jump\t// in\n    tag_453:\n        /* \"contracts/SyCrowBarter.sol\":5952:6036  IERC20(_depositedTokenAddress).balanceOf(address(this)) >=... */\n      lt\n      iszero\n        /* \"contracts/SyCrowBarter.sol\":5931:6105  require(... */\n      tag_454\n      jumpi\n      mload(0x40)\n      0x08c379a000000000000000000000000000000000000000000000000000000000\n      dup2\n      mstore\n      0x04\n      add\n      tag_455\n      swap1\n      tag_429\n      jump\t// in\n    tag_455:\n      mload(0x40)\n      dup1\n      swap2\n      sub\n      swap1\n      revert\n    tag_454:\n        /* \"contracts/SyCrowBarter.sol\":6116:6265  TransferHelper.safeTransferFrom(... */\n      tag_456\n        /* \"contracts/SyCrowBarter.sol\":6161:6182  _expectedTokenAddress */\n      0x05\n      0x00\n      swap1\n      sload\n      swap1\n      0x0100\n      exp\n      swap1\n      div\n      0xffffffffffffffffffffffffffffffffffffffff\n      and\n        /* \"contracts/SyCrowBarter.sol\":6196:6206  msg.sender */\n      caller\n        /* \"contracts/SyCrowBarter.sol\":6228:6232  this */\n      address\n        /* \"contracts/SyCrowBarter.sol\":6247:6255  inAmount */\n      dup6\n        /* \"contracts/SyCrowBarter.sol\":6116:6147  TransferHelper.safeTransferFrom */\n      tag_435\n        /* \"contracts/SyCrowBarter.sol\":6116:6265  TransferHelper.safeTransferFrom(... */\n      jump\t// in\n    tag_456:\n        /* \"contracts/SyCrowBarter.sol\":6275:6395  TransferHelper.safeTransfer(... */\n      tag_457\n        /* \"contracts/SyCrowBarter.sol\":6316:6338  _depositedTokenAddress */\n      0x04\n      0x01\n      swap1\n      sload\n      swap1\n      0x0100\n      exp\n      swap1\n      div\n      0xffffffffffffffffffffffffffffffffffffffff\n      and\n        /* \"contracts/SyCrowBarter.sol\":6352:6362  msg.sender */\n      caller\n        /* \"contracts/SyCrowBarter.sol\":6376:6385  outAmount */\n      dup4\n        /* \"contracts/SyCrowBarter.sol\":6275:6302  TransferHelper.safeTransfer */\n      tag_192\n        /* \"contracts/SyCrowBarter.sol\":6275:6395  TransferHelper.safeTransfer(... */\n      jump\t// in\n    tag_457:\n        /* \"contracts/SyCrowBarter.sol\":6406:6413  _trades */\n      0x09\n        /* \"contracts/SyCrowBarter.sol\":6419:6462  BaterTrade(msg.sender, inAmount, outAmount) */\n      mload(0x40)\n      dup1\n      0x60\n      add\n      0x40\n      mstore\n      dup1\n        /* \"contracts/SyCrowBarter.sol\":6430:6440  msg.sender */\n      caller\n        /* \"contracts/SyCrowBarter.sol\":6419:6462  BaterTrade(msg.sender, inAmount, outAmount) */\n      0xffffffffffffffffffffffffffffffffffffffff\n      and\n      dup2\n      mstore\n      0x20\n      add\n        /* \"contracts/SyCrowBarter.sol\":6442:6450  inAmount */\n      dup5\n        /* \"contracts/SyCrowBarter.sol\":6419:6462  BaterTrade(msg.sender, inAmount, outAmount) */\n      dup2\n      mstore\n      0x20\n      add\n        /* \"contracts/SyCrowBarter.sol\":6452:6461  outAmount */\n      dup4\n        /* \"contracts/SyCrowBarter.sol\":6419:6462  BaterTrade(msg.sender, inAmount, outAmount) */\n      dup2\n      mstore\n      pop\n        /* \"contracts/SyCrowBarter.sol\":6406:6463  _trades.push(BaterTrade(msg.sender, inAmount, outAmount)) */\n      swap1\n      dup1\n      0x01\n      dup2\n      sload\n      add\n      dup1\n      dup3\n      sstore\n      dup1\n      swap2\n      pop\n      pop\n      0x01\n      swap1\n      sub\n      swap1\n      0x00\n      mstore\n      keccak256(0x00, 0x20)\n      swap1\n      0x03\n      mul\n      add\n      0x00\n      swap1\n      swap2\n      swap1\n      swap2\n      swap1\n      swap2\n      pop\n      0x00\n      dup3\n      add\n      mload\n      dup2\n      0x00\n      add\n      exp(0x0100, 0x00)\n      dup2\n      sload\n      dup2\n      0xffffffffffffffffffffffffffffffffffffffff\n      mul\n      not\n      and\n      swap1\n      dup4\n      0xffffffffffffffffffffffffffffffffffffffff\n      and\n      mul\n      or\n      swap1\n      sstore\n      pop\n      0x20\n      dup3\n      add\n      mload\n      dup2\n      0x01\n      add\n      sstore\n      0x40\n      dup3\n      add\n      mload\n      dup2\n      0x02\n      add\n      sstore\n      pop\n      pop\n        /* \"contracts/SyCrowBarter.sol\":6474:6506  ISyCrowBarterFactory sycrFactory */\n      0x00\n        /* \"contracts/SyCrowBarter.sol\":6530:6537  factory */\n      immutable(\"0x26a975632f70533c9512e57b565b8ce8e2befee6b08dfbc27c4a897a20e2c1d6\")\n        /* \"contracts/SyCrowBarter.sol\":6474:6538  ISyCrowBarterFactory sycrFactory = ISyCrowBarterFactory(factory) */\n      swap1\n      pop\n        /* \"contracts/SyCrowBarter.sol\":6548:6559  sycrFactory */\n      dup1\n        /* \"contracts/SyCrowBarter.sol\":6548:6579  sycrFactory.notifyTradeByBarter */\n      0xffffffffffffffffffffffffffffffffffffffff\n      and\n      0xf52701b7\n        /* \"contracts/SyCrowBarter.sol\":6601:6605  this */\n      address\n        /* \"contracts/SyCrowBarter.sol\":6620:6630  msg.sender */\n      caller\n        /* \"contracts/SyCrowBarter.sol\":6644:6652  inAmount */\n      dup7\n        /* \"contracts/SyCrowBarter.sol\":6666:6675  outAmount */\n      dup7\n        /* \"contracts/SyCrowBarter.sol\":6548:6685  sycrFactory.notifyTradeByBarter(... */\n      mload(0x40)\n      dup6\n      0xffffffff\n      and\n      0xe0\n      shl\n      dup2\n      mstore\n      0x04\n      add\n      tag_459\n      swap5\n      swap4\n      swap3\n      swap2\n      swap1\n      tag_212\n      jump\t// in\n    tag_459:\n      0x00\n      mload(0x40)\n      dup1\n      dup4\n      sub\n      dup2\n      0x00\n      dup8\n      dup1\n      extcodesize\n      iszero\n      dup1\n      iszero\n      tag_460\n      jumpi\n      0x00\n      dup1\n      revert\n    tag_460:\n      pop\n      gas\n      call\n      iszero\n      dup1\n      iszero\n      tag_462\n      jumpi\n      returndatasize\n      0x00\n      dup1\n      returndatacopy\n      revert(0x00, returndatasize)\n    tag_462:\n      pop\n      pop\n      pop\n      pop\n        /* \"contracts/SyCrowBarter.sol\":5707:6692  {... */\n      pop\n      pop\n        /* \"contracts/SyCrowBarter.sol\":5651:6692  function _tradeTokenForToken(uint256 inAmount) internal {... */\n      pop\n      jump\t// out\n        /* \"@openzeppelin/contracts/utils/Context.sol\":640:736  function _msgSender() internal view virtual returns (address) {... */\n    tag_168:\n        /* \"@openzeppelin/contracts/utils/Context.sol\":693:700  address */\n      0x00\n        /* \"@openzeppelin/contracts/utils/Context.sol\":719:729  msg.sender */\n      caller\n        /* \"@openzeppelin/contracts/utils/Context.sol\":712:729  return msg.sender */\n      swap1\n      pop\n        /* \"@openzeppelin/contracts/utils/Context.sol\":640:736  function _msgSender() internal view virtual returns (address) {... */\n      swap1\n      jump\t// out\n        /* \"contracts/libraries/TransferHelper.sol\":1333:1525  function safeTransferETH(address to, uint value) internal {... */\n    tag_185:\n        /* \"contracts/libraries/TransferHelper.sol\":1402:1414  bool success */\n      0x00\n        /* \"contracts/libraries/TransferHelper.sol\":1419:1421  to */\n      dup3\n        /* \"contracts/libraries/TransferHelper.sol\":1419:1426  to.call */\n      0xffffffffffffffffffffffffffffffffffffffff\n      and\n        /* \"contracts/libraries/TransferHelper.sol\":1433:1438  value */\n      dup3\n        /* \"contracts/libraries/TransferHelper.sol\":1450:1451  0 */\n      0x00\n        /* \"contracts/libraries/TransferHelper.sol\":1440:1452  new bytes(0) */\n      0xffffffffffffffff\n      dup2\n      gt\n      iszero\n      tag_465\n      jumpi\n      tag_466\n      tag_375\n      jump\t// in\n    tag_466:\n    tag_465:\n      mload(0x40)\n      swap1\n      dup1\n      dup3\n      mstore\n      dup1\n      0x1f\n      add\n      not(0x1f)\n      and\n      0x20\n      add\n      dup3\n      add\n      0x40\n      mstore\n      dup1\n      iszero\n      tag_467\n      jumpi\n      dup2\n      0x20\n      add\n      0x01\n      dup3\n      mul\n      dup1\n      calldatasize\n      dup4\n      calldatacopy\n      dup1\n      dup3\n      add\n      swap2\n      pop\n      pop\n      swap1\n      pop\n    tag_467:\n      pop\n        /* \"contracts/libraries/TransferHelper.sol\":1419:1453  to.call{value:value}(new bytes(0)) */\n      mload(0x40)\n      tag_468\n      swap2\n      swap1\n      tag_469\n      jump\t// in\n    tag_468:\n      0x00\n      mload(0x40)\n      dup1\n      dup4\n      sub\n      dup2\n      dup6\n      dup8\n      gas\n      call\n      swap3\n      pop\n      pop\n      pop\n      returndatasize\n      dup1\n      0x00\n      dup2\n      eq\n      tag_472\n      jumpi\n      mload(0x40)\n      swap2\n      pop\n      and(add(returndatasize, 0x3f), not(0x1f))\n      dup3\n      add\n      0x40\n      mstore\n      returndatasize\n      dup3\n      mstore\n      returndatasize\n      0x00\n      0x20\n      dup5\n      add\n      returndatacopy\n      jump(tag_471)\n    tag_472:\n      0x60\n      swap2\n      pop\n    tag_471:\n      pop\n        /* \"contracts/libraries/TransferHelper.sol\":1401:1453  (bool success,) = to.call{value:value}(new bytes(0)) */\n      pop\n      swap1\n      pop\n        /* \"contracts/libraries/TransferHelper.sol\":1471:1478  success */\n      dup1\n        /* \"contracts/libraries/TransferHelper.sol\":1463:1518  require(success, 'TransferHelper: ETH_TRANSFER_FAILED') */\n      tag_473\n      jumpi\n      mload(0x40)\n      0x08c379a000000000000000000000000000000000000000000000000000000000\n      dup2\n      mstore\n      0x04\n      add\n      tag_474\n      swap1\n      tag_475\n      jump\t// in\n    tag_474:\n      mload(0x40)\n      dup1\n      swap2\n      sub\n      swap1\n      revert\n    tag_473:\n        /* \"contracts/libraries/TransferHelper.sol\":1391:1525  {... */\n      pop\n        /* \"contracts/libraries/TransferHelper.sol\":1333:1525  function safeTransferETH(address to, uint value) internal {... */\n      pop\n      pop\n      jump\t// out\n        /* \"contracts/libraries/TransferHelper.sol\":566:923  function safeTransfer(address token, address to, uint value) internal {... */\n    tag_192:\n        /* \"contracts/libraries/TransferHelper.sol\":713:725  bool success */\n      0x00\n        /* \"contracts/libraries/TransferHelper.sol\":727:744  bytes memory data */\n      dup1\n        /* \"contracts/libraries/TransferHelper.sol\":748:753  token */\n      dup5\n        /* \"contracts/libraries/TransferHelper.sol\":748:758  token.call */\n      0xffffffffffffffffffffffffffffffffffffffff\n      and\n        /* \"contracts/libraries/TransferHelper.sol\":782:792  0xa9059cbb */\n      0xa9059cbb\n        /* \"contracts/libraries/TransferHelper.sol\":794:796  to */\n      dup6\n        /* \"contracts/libraries/TransferHelper.sol\":798:803  value */\n      dup6\n        /* \"contracts/libraries/TransferHelper.sol\":759:804  abi.encodeWithSelector(0xa9059cbb, to, value) */\n      add(0x24, mload(0x40))\n      tag_477\n      swap3\n      swap2\n      swap1\n      tag_478\n      jump\t// in\n    tag_477:\n      mload(0x40)\n      0x20\n      dup2\n      dup4\n      sub\n      sub\n      dup2\n      mstore\n      swap1\n      0x40\n      mstore\n      swap1\n      0xe0\n      shl\n      0x20\n      dup3\n      add\n      dup1\n      mload\n      0xffffffffffffffffffffffffffffffffffffffffffffffffffffffff\n      dup4\n      dup2\n      dup4\n      and\n      or\n      dup4\n      mstore\n      pop\n      pop\n      pop\n      pop\n        /* \"contracts/libraries/TransferHelper.sol\":748:805  token.call(abi.encodeWithSelector(0xa9059cbb, to, value)) */\n      mload(0x40)\n      tag_479\n      swap2\n      swap1\n      tag_469\n      jump\t// in\n    tag_479:\n      0x00\n      mload(0x40)\n      dup1\n      dup4\n      sub\n      dup2\n      0x00\n      dup7\n      gas\n      call\n      swap2\n      pop\n      pop\n      returndatasize\n      dup1\n      0x00\n      dup2\n      eq\n      tag_482\n      jumpi\n      mload(0x40)\n      swap2\n      pop\n      and(add(returndatasize, 0x3f), not(0x1f))\n      dup3\n      add\n      0x40\n      mstore\n      returndatasize\n      dup3\n      mstore\n      returndatasize\n      0x00\n      0x20\n      dup5\n      add\n      returndatacopy\n      jump(tag_481)\n    tag_482:\n      0x60\n      swap2\n      pop\n    tag_481:\n      pop\n        /* \"contracts/libraries/TransferHelper.sol\":712:805  (bool success, bytes memory data) = token.call(abi.encodeWithSelector(0xa9059cbb, to, value)) */\n      swap2\n      pop\n      swap2\n      pop\n        /* \"contracts/libraries/TransferHelper.sol\":823:830  success */\n      dup2\n        /* \"contracts/libraries/TransferHelper.sol\":823:880  success && (data.length == 0 || abi.decode(data, (bool))) */\n      dup1\n      iszero\n      tag_483\n      jumpi\n      pop\n        /* \"contracts/libraries/TransferHelper.sol\":850:851  0 */\n      0x00\n        /* \"contracts/libraries/TransferHelper.sol\":835:839  data */\n      dup2\n        /* \"contracts/libraries/TransferHelper.sol\":835:846  data.length */\n      mload\n        /* \"contracts/libraries/TransferHelper.sol\":835:851  data.length == 0 */\n      eq\n        /* \"contracts/libraries/TransferHelper.sol\":835:879  data.length == 0 || abi.decode(data, (bool)) */\n      dup1\n      tag_484\n      jumpi\n      pop\n        /* \"contracts/libraries/TransferHelper.sol\":866:870  data */\n      dup1\n        /* \"contracts/libraries/TransferHelper.sol\":855:879  abi.decode(data, (bool)) */\n      dup1\n      0x20\n      add\n      swap1\n      mload\n      dup2\n      add\n      swap1\n      tag_485\n      swap2\n      swap1\n      tag_112\n      jump\t// in\n    tag_485:\n        /* \"contracts/libraries/TransferHelper.sol\":835:879  data.length == 0 || abi.decode(data, (bool)) */\n    tag_484:\n        /* \"contracts/libraries/TransferHelper.sol\":823:880  success && (data.length == 0 || abi.decode(data, (bool))) */\n    tag_483:\n        /* \"contracts/libraries/TransferHelper.sol\":815:916  require(success && (data.length == 0 || abi.decode(data, (bool))), 'TransferHelper: TRANSFER_FAILED') */\n      tag_486\n      jumpi\n      mload(0x40)\n      0x08c379a000000000000000000000000000000000000000000000000000000000\n      dup2\n      mstore\n      0x04\n      add\n      tag_487\n      swap1\n      tag_488\n      jump\t// in\n    tag_487:\n      mload(0x40)\n      dup1\n      swap2\n      sub\n      swap1\n      revert\n    tag_486:\n        /* \"contracts/libraries/TransferHelper.sol\":636:923  {... */\n      pop\n      pop\n        /* \"contracts/libraries/TransferHelper.sol\":566:923  function safeTransfer(address token, address to, uint value) internal {... */\n      pop\n      pop\n      pop\n      jump\t// out\n        /* \"contracts/SyCrowBarter.sol\":7713:8569  function _tradeEthForToken(uint256 inAmount) internal {... */\n    tag_245:\n        /* \"contracts/SyCrowBarter.sol\":7797:7806  msg.value */\n      callvalue\n        /* \"contracts/SyCrowBarter.sol\":7785:7793  inAmount */\n      dup2\n        /* \"contracts/SyCrowBarter.sol\":7785:7806  inAmount == msg.value */\n      eq\n        /* \"contracts/SyCrowBarter.sol\":7777:7848  require(inAmount == msg.value, \"SyCrowBarter: MULTI_TRADE_NOT_ENABLED\") */\n      tag_490\n      jumpi\n      mload(0x40)\n      0x08c379a000000000000000000000000000000000000000000000000000000000\n      dup2\n      mstore\n      0x04\n      add\n      tag_491\n      swap1\n      tag_119\n      jump\t// in\n    tag_491:\n      mload(0x40)\n      dup1\n      swap2\n      sub\n      swap1\n      revert\n    tag_490:\n        /* \"contracts/SyCrowBarter.sol\":7859:7876  uint256 outAmount */\n      0x00\n        /* \"contracts/SyCrowBarter.sol\":7879:7907  _getTradeOutAmount(inAmount) */\n      tag_492\n        /* \"contracts/SyCrowBarter.sol\":7898:7906  inAmount */\n      dup3\n        /* \"contracts/SyCrowBarter.sol\":7879:7897  _getTradeOutAmount */\n      tag_368\n        /* \"contracts/SyCrowBarter.sol\":7879:7907  _getTradeOutAmount(inAmount) */\n      jump\t// in\n    tag_492:\n        /* \"contracts/SyCrowBarter.sol\":7859:7907  uint256 outAmount = _getTradeOutAmount(inAmount) */\n      swap1\n      pop\n        /* \"contracts/SyCrowBarter.sol\":8014:8023  outAmount */\n      dup1\n        /* \"contracts/SyCrowBarter.sol\":7946:7968  _depositedTokenAddress */\n      0x04\n      0x01\n      swap1\n      sload\n      swap1\n      0x0100\n      exp\n      swap1\n      div\n      0xffffffffffffffffffffffffffffffffffffffff\n      and\n        /* \"contracts/SyCrowBarter.sol\":7939:7979  IERC20(_depositedTokenAddress).balanceOf */\n      0xffffffffffffffffffffffffffffffffffffffff\n      and\n      0x70a08231\n        /* \"contracts/SyCrowBarter.sol\":7988:7992  this */\n      address\n        /* \"contracts/SyCrowBarter.sol\":7939:7994  IERC20(_depositedTokenAddress).balanceOf(address(this)) */\n      mload(0x40)\n      dup3\n      0xffffffff\n      and\n      0xe0\n      shl\n      dup2\n      mstore\n      0x04\n      add\n      tag_493\n      swap2\n      swap1\n      tag_66\n      jump\t// in\n    tag_493:\n      0x20\n      mload(0x40)\n      dup1\n      dup4\n      sub\n      dup2\n      dup7\n      gas\n      staticcall\n      iszero\n      dup1\n      iszero\n      tag_495\n      jumpi\n      returndatasize\n      0x00\n      dup1\n      returndatacopy\n      revert(0x00, returndatasize)\n    tag_495:\n      pop\n      pop\n      pop\n      pop\n      mload(0x40)\n      returndatasize\n      not(0x1f)\n      0x1f\n      dup3\n      add\n      and\n      dup3\n      add\n      dup1\n      0x40\n      mstore\n      pop\n      dup2\n      add\n      swap1\n      tag_496\n      swap2\n      swap1\n      tag_178\n      jump\t// in\n    tag_496:\n        /* \"contracts/SyCrowBarter.sol\":7939:8023  IERC20(_depositedTokenAddress).balanceOf(address(this)) >=... */\n      lt\n      iszero\n        /* \"contracts/SyCrowBarter.sol\":7918:8092  require(... */\n      tag_497\n      jumpi\n      mload(0x40)\n      0x08c379a000000000000000000000000000000000000000000000000000000000\n      dup2\n      mstore\n      0x04\n      add\n      tag_498\n      swap1\n      tag_429\n      jump\t// in\n    tag_498:\n      mload(0x40)\n      dup1\n      swap2\n      sub\n      swap1\n      revert\n    tag_497:\n        /* \"contracts/SyCrowBarter.sol\":8109:8113  WETH */\n      0x02\n      0x00\n      swap1\n      sload\n      swap1\n      0x0100\n      exp\n      swap1\n      div\n      0xffffffffffffffffffffffffffffffffffffffff\n      and\n        /* \"contracts/SyCrowBarter.sol\":8103:8122  IWETH(WETH).deposit */\n      0xffffffffffffffffffffffffffffffffffffffff\n      and\n      0xd0e30db0\n        /* \"contracts/SyCrowBarter.sol\":8130:8138  inAmount */\n      dup4\n        /* \"contracts/SyCrowBarter.sol\":8103:8141  IWETH(WETH).deposit{value: inAmount}() */\n      mload(0x40)\n      dup3\n      0xffffffff\n      and\n      0xe0\n      shl\n      dup2\n      mstore\n      0x04\n      add\n      0x00\n      mload(0x40)\n      dup1\n      dup4\n      sub\n      dup2\n      dup6\n      dup9\n      dup1\n      extcodesize\n      iszero\n      dup1\n      iszero\n      tag_499\n      jumpi\n      0x00\n      dup1\n      revert\n    tag_499:\n      pop\n      gas\n      call\n      iszero\n      dup1\n      iszero\n      tag_501\n      jumpi\n      returndatasize\n      0x00\n      dup1\n      returndatacopy\n      revert(0x00, returndatasize)\n    tag_501:\n      pop\n      pop\n      pop\n      pop\n      pop\n        /* \"contracts/SyCrowBarter.sol\":8152:8272  TransferHelper.safeTransfer(... */\n      tag_502\n        /* \"contracts/SyCrowBarter.sol\":8193:8215  _depositedTokenAddress */\n      0x04\n      0x01\n      swap1\n      sload\n      swap1\n      0x0100\n      exp\n      swap1\n      div\n      0xffffffffffffffffffffffffffffffffffffffff\n      and\n        /* \"contracts/SyCrowBarter.sol\":8229:8239  msg.sender */\n      caller\n        /* \"contracts/SyCrowBarter.sol\":8253:8262  outAmount */\n      dup4\n        /* \"contracts/SyCrowBarter.sol\":8152:8179  TransferHelper.safeTransfer */\n      tag_192\n        /* \"contracts/SyCrowBarter.sol\":8152:8272  TransferHelper.safeTransfer(... */\n      jump\t// in\n    tag_502:\n        /* \"contracts/SyCrowBarter.sol\":8283:8290  _trades */\n      0x09\n        /* \"contracts/SyCrowBarter.sol\":8296:8339  BaterTrade(msg.sender, inAmount, outAmount) */\n      mload(0x40)\n      dup1\n      0x60\n      add\n      0x40\n      mstore\n      dup1\n        /* \"contracts/SyCrowBarter.sol\":8307:8317  msg.sender */\n      caller\n        /* \"contracts/SyCrowBarter.sol\":8296:8339  BaterTrade(msg.sender, inAmount, outAmount) */\n      0xffffffffffffffffffffffffffffffffffffffff\n      and\n      dup2\n      mstore\n      0x20\n      add\n        /* \"contracts/SyCrowBarter.sol\":8319:8327  inAmount */\n      dup5\n        /* \"contracts/SyCrowBarter.sol\":8296:8339  BaterTrade(msg.sender, inAmount, outAmount) */\n      dup2\n      mstore\n      0x20\n      add\n        /* \"contracts/SyCrowBarter.sol\":8329:8338  outAmount */\n      dup4\n        /* \"contracts/SyCrowBarter.sol\":8296:8339  BaterTrade(msg.sender, inAmount, outAmount) */\n      dup2\n      mstore\n      pop\n        /* \"contracts/SyCrowBarter.sol\":8283:8340  _trades.push(BaterTrade(msg.sender, inAmount, outAmount)) */\n      swap1\n      dup1\n      0x01\n      dup2\n      sload\n      add\n      dup1\n      dup3\n      sstore\n      dup1\n      swap2\n      pop\n      pop\n      0x01\n      swap1\n      sub\n      swap1\n      0x00\n      mstore\n      keccak256(0x00, 0x20)\n      swap1\n      0x03\n      mul\n      add\n      0x00\n      swap1\n      swap2\n      swap1\n      swap2\n      swap1\n      swap2\n      pop\n      0x00\n      dup3\n      add\n      mload\n      dup2\n      0x00\n      add\n      exp(0x0100, 0x00)\n      dup2\n      sload\n      dup2\n      0xffffffffffffffffffffffffffffffffffffffff\n      mul\n      not\n      and\n      swap1\n      dup4\n      0xffffffffffffffffffffffffffffffffffffffff\n      and\n      mul\n      or\n      swap1\n      sstore\n      pop\n      0x20\n      dup3\n      add\n      mload\n      dup2\n      0x01\n      add\n      sstore\n      0x40\n      dup3\n      add\n      mload\n      dup2\n      0x02\n      add\n      sstore\n      pop\n      pop\n        /* \"contracts/SyCrowBarter.sol\":8351:8383  ISyCrowBarterFactory sycrFactory */\n      0x00\n        /* \"contracts/SyCrowBarter.sol\":8407:8414  factory */\n      immutable(\"0x26a975632f70533c9512e57b565b8ce8e2befee6b08dfbc27c4a897a20e2c1d6\")\n        /* \"contracts/SyCrowBarter.sol\":8351:8415  ISyCrowBarterFactory sycrFactory = ISyCrowBarterFactory(factory) */\n      swap1\n      pop\n        /* \"contracts/SyCrowBarter.sol\":8425:8436  sycrFactory */\n      dup1\n        /* \"contracts/SyCrowBarter.sol\":8425:8456  sycrFactory.notifyTradeByBarter */\n      0xffffffffffffffffffffffffffffffffffffffff\n      and\n      0xf52701b7\n        /* \"contracts/SyCrowBarter.sol\":8478:8482  this */\n      address\n        /* \"contracts/SyCrowBarter.sol\":8497:8507  msg.sender */\n      caller\n        /* \"contracts/SyCrowBarter.sol\":8521:8529  inAmount */\n      dup7\n        /* \"contracts/SyCrowBarter.sol\":8543:8552  outAmount */\n      dup7\n        /* \"contracts/SyCrowBarter.sol\":8425:8562  sycrFactory.notifyTradeByBarter(... */\n      mload(0x40)\n      dup6\n      0xffffffff\n      and\n      0xe0\n      shl\n      dup2\n      mstore\n      0x04\n      add\n      tag_504\n      swap5\n      swap4\n      swap3\n      swap2\n      swap1\n      tag_212\n      jump\t// in\n    tag_504:\n      0x00\n      mload(0x40)\n      dup1\n      dup4\n      sub\n      dup2\n      0x00\n      dup8\n      dup1\n      extcodesize\n      iszero\n      dup1\n      iszero\n      tag_505\n      jumpi\n      0x00\n      dup1\n      revert\n    tag_505:\n      pop\n      gas\n      call\n      iszero\n      dup1\n      iszero\n      tag_507\n      jumpi\n      returndatasize\n      0x00\n      dup1\n      returndatacopy\n      revert(0x00, returndatasize)\n    tag_507:\n      pop\n      pop\n      pop\n      pop\n        /* \"contracts/SyCrowBarter.sol\":7767:8569  {... */\n      pop\n      pop\n        /* \"contracts/SyCrowBarter.sol\":7713:8569  function _tradeEthForToken(uint256 inAmount) internal {... */\n      pop\n      jump\t// out\n        /* \"@openzeppelin/contracts/access/Ownable.sol\":2270:2457  function _transferOwnership(address newOwner) internal virtual {... */\n    tag_291:\n        /* \"@openzeppelin/contracts/access/Ownable.sol\":2343:2359  address oldOwner */\n      0x00\n        /* \"@openzeppelin/contracts/access/Ownable.sol\":2362:2368  _owner */\n      dup1\n      0x00\n      swap1\n      sload\n      swap1\n      0x0100\n      exp\n      swap1\n      div\n      0xffffffffffffffffffffffffffffffffffffffff\n      and\n        /* \"@openzeppelin/contracts/access/Ownable.sol\":2343:2368  address oldOwner = _owner */\n      swap1\n      pop\n        /* \"@openzeppelin/contracts/access/Ownable.sol\":2387:2395  newOwner */\n      dup2\n        /* \"@openzeppelin/contracts/access/Ownable.sol\":2378:2384  _owner */\n      0x00\n      dup1\n        /* \"@openzeppelin/contracts/access/Ownable.sol\":2378:2395  _owner = newOwner */\n      0x0100\n      exp\n      dup2\n      sload\n      dup2\n      0xffffffffffffffffffffffffffffffffffffffff\n      mul\n      not\n      and\n      swap1\n      dup4\n      0xffffffffffffffffffffffffffffffffffffffff\n      and\n      mul\n      or\n      swap1\n      sstore\n      pop\n        /* \"@openzeppelin/contracts/access/Ownable.sol\":2441:2449  newOwner */\n      dup2\n        /* \"@openzeppelin/contracts/access/Ownable.sol\":2410:2450  OwnershipTransferred(oldOwner, newOwner) */\n      0xffffffffffffffffffffffffffffffffffffffff\n      and\n        /* \"@openzeppelin/contracts/access/Ownable.sol\":2431:2439  oldOwner */\n      dup2\n        /* \"@openzeppelin/contracts/access/Ownable.sol\":2410:2450  OwnershipTransferred(oldOwner, newOwner) */\n      0xffffffffffffffffffffffffffffffffffffffff\n      and\n      0x8be0079c531659141344cd1fd0a4f28419497f9722a3daafe3b4186f6b6457e0\n      mload(0x40)\n      mload(0x40)\n      dup1\n      swap2\n      sub\n      swap1\n      log3\n        /* \"@openzeppelin/contracts/access/Ownable.sol\":2333:2457  {... */\n      pop\n        /* \"@openzeppelin/contracts/access/Ownable.sol\":2270:2457  function _transferOwnership(address newOwner) internal virtual {... */\n      pop\n      jump\t// out\n        /* \"contracts/SyCrowBarter.sol\":11162:11335  function _getTradeOutAmount(uint256 amount)... */\n    tag_368:\n        /* \"contracts/SyCrowBarter.sol\":11253:11260  uint256 */\n      0x00\n        /* \"contracts/SyCrowBarter.sol\":11313:11328  _expectedAmount */\n      sload(0x07)\n        /* \"contracts/SyCrowBarter.sol\":11293:11309  _depositedAmount */\n      sload(0x06)\n        /* \"contracts/SyCrowBarter.sol\":11284:11290  amount */\n      dup4\n        /* \"contracts/SyCrowBarter.sol\":11284:11309  amount * _depositedAmount */\n      tag_510\n      swap2\n      swap1\n      tag_511\n      jump\t// in\n    tag_510:\n        /* \"contracts/SyCrowBarter.sol\":11283:11328  (amount * _depositedAmount) / _expectedAmount */\n      tag_512\n      swap2\n      swap1\n      tag_513\n      jump\t// in\n    tag_512:\n        /* \"contracts/SyCrowBarter.sol\":11276:11328  return (amount * _depositedAmount) / _expectedAmount */\n      swap1\n      pop\n        /* \"contracts/SyCrowBarter.sol\":11162:11335  function _getTradeOutAmount(uint256 amount)... */\n      swap2\n      swap1\n      pop\n      jump\t// out\n        /* \"contracts/libraries/TransferHelper.sol\":929:1327  function safeTransferFrom(address token, address from, address to, uint value) internal {... */\n    tag_435:\n        /* \"contracts/libraries/TransferHelper.sol\":1106:1118  bool success */\n      0x00\n        /* \"contracts/libraries/TransferHelper.sol\":1120:1137  bytes memory data */\n      dup1\n        /* \"contracts/libraries/TransferHelper.sol\":1141:1146  token */\n      dup6\n        /* \"contracts/libraries/TransferHelper.sol\":1141:1151  token.call */\n      0xffffffffffffffffffffffffffffffffffffffff\n      and\n        /* \"contracts/libraries/TransferHelper.sol\":1175:1185  0x23b872dd */\n      0x23b872dd\n        /* \"contracts/libraries/TransferHelper.sol\":1187:1191  from */\n      dup7\n        /* \"contracts/libraries/TransferHelper.sol\":1193:1195  to */\n      dup7\n        /* \"contracts/libraries/TransferHelper.sol\":1197:1202  value */\n      dup7\n        /* \"contracts/libraries/TransferHelper.sol\":1152:1203  abi.encodeWithSelector(0x23b872dd, from, to, value) */\n      add(0x24, mload(0x40))\n      tag_515\n      swap4\n      swap3\n      swap2\n      swap1\n      tag_516\n      jump\t// in\n    tag_515:\n      mload(0x40)\n      0x20\n      dup2\n      dup4\n      sub\n      sub\n      dup2\n      mstore\n      swap1\n      0x40\n      mstore\n      swap1\n      0xe0\n      shl\n      0x20\n      dup3\n      add\n      dup1\n      mload\n      0xffffffffffffffffffffffffffffffffffffffffffffffffffffffff\n      dup4\n      dup2\n      dup4\n      and\n      or\n      dup4\n      mstore\n      pop\n      pop\n      pop\n      pop\n        /* \"contracts/libraries/TransferHelper.sol\":1141:1204  token.call(abi.encodeWithSelector(0x23b872dd, from, to, value)) */\n      mload(0x40)\n      tag_517\n      swap2\n      swap1\n      tag_469\n      jump\t// in\n    tag_517:\n      0x00\n      mload(0x40)\n      dup1\n      dup4\n      sub\n      dup2\n      0x00\n      dup7\n      gas\n      call\n      swap2\n      pop\n      pop\n      returndatasize\n      dup1\n      0x00\n      dup2\n      eq\n      tag_520\n      jumpi\n      mload(0x40)\n      swap2\n      pop\n      and(add(returndatasize, 0x3f), not(0x1f))\n      dup3\n      add\n      0x40\n      mstore\n      returndatasize\n      dup3\n      mstore\n      returndatasize\n      0x00\n      0x20\n      dup5\n      add\n      returndatacopy\n      jump(tag_519)\n    tag_520:\n      0x60\n      swap2\n      pop\n    tag_519:\n      pop\n        /* \"contracts/libraries/TransferHelper.sol\":1105:1204  (bool success, bytes memory data) = token.call(abi.encodeWithSelector(0x23b872dd, from, to, value)) */\n      swap2\n      pop\n      swap2\n      pop\n        /* \"contracts/libraries/TransferHelper.sol\":1222:1229  success */\n      dup2\n        /* \"contracts/libraries/TransferHelper.sol\":1222:1279  success && (data.length == 0 || abi.decode(data, (bool))) */\n      dup1\n      iszero\n      tag_521\n      jumpi\n      pop\n        /* \"contracts/libraries/TransferHelper.sol\":1249:1250  0 */\n      0x00\n        /* \"contracts/libraries/TransferHelper.sol\":1234:1238  data */\n      dup2\n        /* \"contracts/libraries/TransferHelper.sol\":1234:1245  data.length */\n      mload\n        /* \"contracts/libraries/TransferHelper.sol\":1234:1250  data.length == 0 */\n      eq\n        /* \"contracts/libraries/TransferHelper.sol\":1234:1278  data.length == 0 || abi.decode(data, (bool)) */\n      dup1\n      tag_522\n      jumpi\n      pop\n        /* \"contracts/libraries/TransferHelper.sol\":1265:1269  data */\n      dup1\n        /* \"contracts/libraries/TransferHelper.sol\":1254:1278  abi.decode(data, (bool)) */\n      dup1\n      0x20\n      add\n      swap1\n      mload\n      dup2\n      add\n      swap1\n      tag_523\n      swap2\n      swap1\n      tag_112\n      jump\t// in\n    tag_523:\n        /* \"contracts/libraries/TransferHelper.sol\":1234:1278  data.length == 0 || abi.decode(data, (bool)) */\n    tag_522:\n        /* \"contracts/libraries/TransferHelper.sol\":1222:1279  success && (data.length == 0 || abi.decode(data, (bool))) */\n    tag_521:\n        /* \"contracts/libraries/TransferHelper.sol\":1214:1320  require(success && (data.length == 0 || abi.decode(data, (bool))), 'TransferHelper: TRANSFER_FROM_FAILED') */\n      tag_524\n      jumpi\n      mload(0x40)\n      0x08c379a000000000000000000000000000000000000000000000000000000000\n      dup2\n      mstore\n      0x04\n      add\n      tag_525\n      swap1\n      tag_526\n      jump\t// in\n    tag_525:\n      mload(0x40)\n      dup1\n      swap2\n      sub\n      swap1\n      revert\n    tag_524:\n        /* \"contracts/libraries/TransferHelper.sol\":1017:1327  {... */\n      pop\n      pop\n        /* \"contracts/libraries/TransferHelper.sol\":929:1327  function safeTransferFrom(address token, address from, address to, uint value) internal {... */\n      pop\n      pop\n      pop\n      pop\n      jump\t// out\n        /* \"#utility.yul\":88:205   */\n    tag_528:\n        /* \"#utility.yul\":197:198   */\n      0x00\n        /* \"#utility.yul\":194:195   */\n      dup1\n        /* \"#utility.yul\":187:199   */\n      revert\n        /* \"#utility.yul\":334:411   */\n    tag_530:\n        /* \"#utility.yul\":371:378   */\n      0x00\n        /* \"#utility.yul\":400:405   */\n      dup2\n        /* \"#utility.yul\":389:405   */\n      swap1\n      pop\n        /* \"#utility.yul\":334:411   */\n      swap2\n      swap1\n      pop\n      jump\t// out\n        /* \"#utility.yul\":417:539   */\n    tag_531:\n        /* \"#utility.yul\":490:514   */\n      tag_608\n        /* \"#utility.yul\":508:513   */\n      dup2\n        /* \"#utility.yul\":490:514   */\n      tag_530\n      jump\t// in\n    tag_608:\n        /* \"#utility.yul\":483:488   */\n      dup2\n        /* \"#utility.yul\":480:515   */\n      eq\n        /* \"#utility.yul\":470:533   */\n      tag_609\n      jumpi\n        /* \"#utility.yul\":529:530   */\n      0x00\n        /* \"#utility.yul\":526:527   */\n      dup1\n        /* \"#utility.yul\":519:531   */\n      revert\n        /* \"#utility.yul\":470:533   */\n    tag_609:\n        /* \"#utility.yul\":417:539   */\n      pop\n      jump\t// out\n        /* \"#utility.yul\":545:684   */\n    tag_532:\n        /* \"#utility.yul\":591:596   */\n      0x00\n        /* \"#utility.yul\":629:635   */\n      dup2\n        /* \"#utility.yul\":616:636   */\n      calldataload\n        /* \"#utility.yul\":607:636   */\n      swap1\n      pop\n        /* \"#utility.yul\":645:678   */\n      tag_611\n        /* \"#utility.yul\":672:677   */\n      dup2\n        /* \"#utility.yul\":645:678   */\n      tag_531\n      jump\t// in\n    tag_611:\n        /* \"#utility.yul\":545:684   */\n      swap3\n      swap2\n      pop\n      pop\n      jump\t// out\n        /* \"#utility.yul\":690:1019   */\n    tag_26:\n        /* \"#utility.yul\":749:755   */\n      0x00\n        /* \"#utility.yul\":798:800   */\n      0x20\n        /* \"#utility.yul\":786:795   */\n      dup3\n        /* \"#utility.yul\":777:784   */\n      dup5\n        /* \"#utility.yul\":773:796   */\n      sub\n        /* \"#utility.yul\":769:801   */\n      slt\n        /* \"#utility.yul\":766:885   */\n      iszero\n      tag_613\n      jumpi\n        /* \"#utility.yul\":804:883   */\n      tag_614\n      tag_528\n      jump\t// in\n    tag_614:\n        /* \"#utility.yul\":766:885   */\n    tag_613:\n        /* \"#utility.yul\":924:925   */\n      0x00\n        /* \"#utility.yul\":949:1002   */\n      tag_615\n        /* \"#utility.yul\":994:1001   */\n      dup5\n        /* \"#utility.yul\":985:991   */\n      dup3\n        /* \"#utility.yul\":974:983   */\n      dup6\n        /* \"#utility.yul\":970:992   */\n      add\n        /* \"#utility.yul\":949:1002   */\n      tag_532\n      jump\t// in\n    tag_615:\n        /* \"#utility.yul\":939:1002   */\n      swap2\n      pop\n        /* \"#utility.yul\":895:1012   */\n      pop\n        /* \"#utility.yul\":690:1019   */\n      swap3\n      swap2\n      pop\n      pop\n      jump\t// out\n        /* \"#utility.yul\":1025:1115   */\n    tag_533:\n        /* \"#utility.yul\":1059:1066   */\n      0x00\n        /* \"#utility.yul\":1102:1107   */\n      dup2\n        /* \"#utility.yul\":1095:1108   */\n      iszero\n        /* \"#utility.yul\":1088:1109   */\n      iszero\n        /* \"#utility.yul\":1077:1109   */\n      swap1\n      pop\n        /* \"#utility.yul\":1025:1115   */\n      swap2\n      swap1\n      pop\n      jump\t// out\n        /* \"#utility.yul\":1121:1230   */\n    tag_534:\n        /* \"#utility.yul\":1202:1223   */\n      tag_618\n        /* \"#utility.yul\":1217:1222   */\n      dup2\n        /* \"#utility.yul\":1202:1223   */\n      tag_533\n      jump\t// in\n    tag_618:\n        /* \"#utility.yul\":1197:1200   */\n      dup3\n        /* \"#utility.yul\":1190:1224   */\n      mstore\n        /* \"#utility.yul\":1121:1230   */\n      pop\n      pop\n      jump\t// out\n        /* \"#utility.yul\":1236:1446   */\n    tag_36:\n        /* \"#utility.yul\":1323:1327   */\n      0x00\n        /* \"#utility.yul\":1361:1363   */\n      0x20\n        /* \"#utility.yul\":1350:1359   */\n      dup3\n        /* \"#utility.yul\":1346:1364   */\n      add\n        /* \"#utility.yul\":1338:1364   */\n      swap1\n      pop\n        /* \"#utility.yul\":1374:1439   */\n      tag_620\n        /* \"#utility.yul\":1436:1437   */\n      0x00\n        /* \"#utility.yul\":1425:1434   */\n      dup4\n        /* \"#utility.yul\":1421:1438   */\n      add\n        /* \"#utility.yul\":1412:1418   */\n      dup5\n        /* \"#utility.yul\":1374:1439   */\n      tag_534\n      jump\t// in\n    tag_620:\n        /* \"#utility.yul\":1236:1446   */\n      swap3\n      swap2\n      pop\n      pop\n      jump\t// out\n        /* \"#utility.yul\":1452:1570   */\n    tag_535:\n        /* \"#utility.yul\":1539:1563   */\n      tag_622\n        /* \"#utility.yul\":1557:1562   */\n      dup2\n        /* \"#utility.yul\":1539:1563   */\n      tag_530\n      jump\t// in\n    tag_622:\n        /* \"#utility.yul\":1534:1537   */\n      dup3\n        /* \"#utility.yul\":1527:1564   */\n      mstore\n        /* \"#utility.yul\":1452:1570   */\n      pop\n      pop\n      jump\t// out\n        /* \"#utility.yul\":1576:1908   */\n    tag_44:\n        /* \"#utility.yul\":1697:1701   */\n      0x00\n        /* \"#utility.yul\":1735:1737   */\n      0x40\n        /* \"#utility.yul\":1724:1733   */\n      dup3\n        /* \"#utility.yul\":1720:1738   */\n      add\n        /* \"#utility.yul\":1712:1738   */\n      swap1\n      pop\n        /* \"#utility.yul\":1748:1819   */\n      tag_624\n        /* \"#utility.yul\":1816:1817   */\n      0x00\n        /* \"#utility.yul\":1805:1814   */\n      dup4\n        /* \"#utility.yul\":1801:1818   */\n      add\n        /* \"#utility.yul\":1792:1798   */\n      dup6\n        /* \"#utility.yul\":1748:1819   */\n      tag_535\n      jump\t// in\n    tag_624:\n        /* \"#utility.yul\":1829:1901   */\n      tag_625\n        /* \"#utility.yul\":1897:1899   */\n      0x20\n        /* \"#utility.yul\":1886:1895   */\n      dup4\n        /* \"#utility.yul\":1882:1900   */\n      add\n        /* \"#utility.yul\":1873:1879   */\n      dup5\n        /* \"#utility.yul\":1829:1901   */\n      tag_535\n      jump\t// in\n    tag_625:\n        /* \"#utility.yul\":1576:1908   */\n      swap4\n      swap3\n      pop\n      pop\n      pop\n      jump\t// out\n        /* \"#utility.yul\":1914:2040   */\n    tag_536:\n        /* \"#utility.yul\":1951:1958   */\n      0x00\n        /* \"#utility.yul\":1991:2033   */\n      0xffffffffffffffffffffffffffffffffffffffff\n        /* \"#utility.yul\":1984:1989   */\n      dup3\n        /* \"#utility.yul\":1980:2034   */\n      and\n        /* \"#utility.yul\":1969:2034   */\n      swap1\n      pop\n        /* \"#utility.yul\":1914:2040   */\n      swap2\n      swap1\n      pop\n      jump\t// out\n        /* \"#utility.yul\":2046:2142   */\n    tag_537:\n        /* \"#utility.yul\":2083:2090   */\n      0x00\n        /* \"#utility.yul\":2112:2136   */\n      tag_628\n        /* \"#utility.yul\":2130:2135   */\n      dup3\n        /* \"#utility.yul\":2112:2136   */\n      tag_536\n      jump\t// in\n    tag_628:\n        /* \"#utility.yul\":2101:2136   */\n      swap1\n      pop\n        /* \"#utility.yul\":2046:2142   */\n      swap2\n      swap1\n      pop\n      jump\t// out\n        /* \"#utility.yul\":2148:2270   */\n    tag_538:\n        /* \"#utility.yul\":2221:2245   */\n      tag_630\n        /* \"#utility.yul\":2239:2244   */\n      dup2\n        /* \"#utility.yul\":2221:2245   */\n      tag_537\n      jump\t// in\n    tag_630:\n        /* \"#utility.yul\":2214:2219   */\n      dup2\n        /* \"#utility.yul\":2211:2246   */\n      eq\n        /* \"#utility.yul\":2201:2264   */\n      tag_631\n      jumpi\n        /* \"#utility.yul\":2260:2261   */\n      0x00\n        /* \"#utility.yul\":2257:2258   */\n      dup1\n        /* \"#utility.yul\":2250:2262   */\n      revert\n        /* \"#utility.yul\":2201:2264   */\n    tag_631:\n        /* \"#utility.yul\":2148:2270   */\n      pop\n      jump\t// out\n        /* \"#utility.yul\":2276:2415   */\n    tag_539:\n        /* \"#utility.yul\":2322:2327   */\n      0x00\n        /* \"#utility.yul\":2360:2366   */\n      dup2\n        /* \"#utility.yul\":2347:2367   */\n      calldataload\n        /* \"#utility.yul\":2338:2367   */\n      swap1\n      pop\n        /* \"#utility.yul\":2376:2409   */\n      tag_633\n        /* \"#utility.yul\":2403:2408   */\n      dup2\n        /* \"#utility.yul\":2376:2409   */\n      tag_538\n      jump\t// in\n    tag_633:\n        /* \"#utility.yul\":2276:2415   */\n      swap3\n      swap2\n      pop\n      pop\n      jump\t// out\n        /* \"#utility.yul\":2421:2750   */\n    tag_51:\n        /* \"#utility.yul\":2480:2486   */\n      0x00\n        /* \"#utility.yul\":2529:2531   */\n      0x20\n        /* \"#utility.yul\":2517:2526   */\n      dup3\n        /* \"#utility.yul\":2508:2515   */\n      dup5\n        /* \"#utility.yul\":2504:2527   */\n      sub\n        /* \"#utility.yul\":2500:2532   */\n      slt\n        /* \"#utility.yul\":2497:2616   */\n      iszero\n      tag_635\n      jumpi\n        /* \"#utility.yul\":2535:2614   */\n      tag_636\n      tag_528\n      jump\t// in\n    tag_636:\n        /* \"#utility.yul\":2497:2616   */\n    tag_635:\n        /* \"#utility.yul\":2655:2656   */\n      0x00\n        /* \"#utility.yul\":2680:2733   */\n      tag_637\n        /* \"#utility.yul\":2725:2732   */\n      dup5\n        /* \"#utility.yul\":2716:2722   */\n      dup3\n        /* \"#utility.yul\":2705:2714   */\n      dup6\n        /* \"#utility.yul\":2701:2723   */\n      add\n        /* \"#utility.yul\":2680:2733   */\n      tag_539\n      jump\t// in\n    tag_637:\n        /* \"#utility.yul\":2670:2733   */\n      swap2\n      pop\n        /* \"#utility.yul\":2626:2743   */\n      pop\n        /* \"#utility.yul\":2421:2750   */\n      swap3\n      swap2\n      pop\n      pop\n      jump\t// out\n        /* \"#utility.yul\":2756:2877   */\n    tag_540:\n        /* \"#utility.yul\":2851:2852   */\n      0x03\n        /* \"#utility.yul\":2844:2849   */\n      dup2\n        /* \"#utility.yul\":2841:2853   */\n      lt\n        /* \"#utility.yul\":2831:2871   */\n      tag_639\n      jumpi\n        /* \"#utility.yul\":2867:2868   */\n      0x00\n        /* \"#utility.yul\":2864:2865   */\n      dup1\n        /* \"#utility.yul\":2857:2869   */\n      revert\n        /* \"#utility.yul\":2831:2871   */\n    tag_639:\n        /* \"#utility.yul\":2756:2877   */\n      pop\n      jump\t// out\n        /* \"#utility.yul\":2883:3066   */\n    tag_541:\n        /* \"#utility.yul\":2951:2956   */\n      0x00\n        /* \"#utility.yul\":2989:2995   */\n      dup2\n        /* \"#utility.yul\":2976:2996   */\n      calldataload\n        /* \"#utility.yul\":2967:2996   */\n      swap1\n      pop\n        /* \"#utility.yul\":3005:3060   */\n      tag_641\n        /* \"#utility.yul\":3054:3059   */\n      dup2\n        /* \"#utility.yul\":3005:3060   */\n      tag_540\n      jump\t// in\n    tag_641:\n        /* \"#utility.yul\":2883:3066   */\n      swap3\n      swap2\n      pop\n      pop\n      jump\t// out\n        /* \"#utility.yul\":3072:3188   */\n    tag_542:\n        /* \"#utility.yul\":3142:3163   */\n      tag_643\n        /* \"#utility.yul\":3157:3162   */\n      dup2\n        /* \"#utility.yul\":3142:3163   */\n      tag_533\n      jump\t// in\n    tag_643:\n        /* \"#utility.yul\":3135:3140   */\n      dup2\n        /* \"#utility.yul\":3132:3164   */\n      eq\n        /* \"#utility.yul\":3122:3182   */\n      tag_644\n      jumpi\n        /* \"#utility.yul\":3178:3179   */\n      0x00\n        /* \"#utility.yul\":3175:3176   */\n      dup1\n        /* \"#utility.yul\":3168:3180   */\n      revert\n        /* \"#utility.yul\":3122:3182   */\n    tag_644:\n        /* \"#utility.yul\":3072:3188   */\n      pop\n      jump\t// out\n        /* \"#utility.yul\":3194:3327   */\n    tag_543:\n        /* \"#utility.yul\":3237:3242   */\n      0x00\n        /* \"#utility.yul\":3275:3281   */\n      dup2\n        /* \"#utility.yul\":3262:3282   */\n      calldataload\n        /* \"#utility.yul\":3253:3282   */\n      swap1\n      pop\n        /* \"#utility.yul\":3291:3321   */\n      tag_646\n        /* \"#utility.yul\":3315:3320   */\n      dup2\n        /* \"#utility.yul\":3291:3321   */\n      tag_542\n      jump\t// in\n    tag_646:\n        /* \"#utility.yul\":3194:3327   */\n      swap3\n      swap2\n      pop\n      pop\n      jump\t// out\n        /* \"#utility.yul\":3333:4720   */\n    tag_56:\n        /* \"#utility.yul\":3474:3480   */\n      0x00\n        /* \"#utility.yul\":3482:3488   */\n      dup1\n        /* \"#utility.yul\":3490:3496   */\n      0x00\n        /* \"#utility.yul\":3498:3504   */\n      dup1\n        /* \"#utility.yul\":3506:3512   */\n      0x00\n        /* \"#utility.yul\":3514:3520   */\n      dup1\n        /* \"#utility.yul\":3522:3528   */\n      0x00\n        /* \"#utility.yul\":3530:3536   */\n      dup1\n        /* \"#utility.yul\":3579:3582   */\n      0x0100\n        /* \"#utility.yul\":3567:3576   */\n      dup10\n        /* \"#utility.yul\":3558:3565   */\n      dup12\n        /* \"#utility.yul\":3554:3577   */\n      sub\n        /* \"#utility.yul\":3550:3583   */\n      slt\n        /* \"#utility.yul\":3547:3667   */\n      iszero\n      tag_648\n      jumpi\n        /* \"#utility.yul\":3586:3665   */\n      tag_649\n      tag_528\n      jump\t// in\n    tag_649:\n        /* \"#utility.yul\":3547:3667   */\n    tag_648:\n        /* \"#utility.yul\":3706:3707   */\n      0x00\n        /* \"#utility.yul\":3731:3806   */\n      tag_650\n        /* \"#utility.yul\":3798:3805   */\n      dup12\n        /* \"#utility.yul\":3789:3795   */\n      dup3\n        /* \"#utility.yul\":3778:3787   */\n      dup13\n        /* \"#utility.yul\":3774:3796   */\n      add\n        /* \"#utility.yul\":3731:3806   */\n      tag_541\n      jump\t// in\n    tag_650:\n        /* \"#utility.yul\":3721:3806   */\n      swap9\n      pop\n        /* \"#utility.yul\":3677:3816   */\n      pop\n        /* \"#utility.yul\":3855:3857   */\n      0x20\n        /* \"#utility.yul\":3881:3934   */\n      tag_651\n        /* \"#utility.yul\":3926:3933   */\n      dup12\n        /* \"#utility.yul\":3917:3923   */\n      dup3\n        /* \"#utility.yul\":3906:3915   */\n      dup13\n        /* \"#utility.yul\":3902:3924   */\n      add\n        /* \"#utility.yul\":3881:3934   */\n      tag_539\n      jump\t// in\n    tag_651:\n        /* \"#utility.yul\":3871:3934   */\n      swap8\n      pop\n        /* \"#utility.yul\":3826:3944   */\n      pop\n        /* \"#utility.yul\":3983:3985   */\n      0x40\n        /* \"#utility.yul\":4009:4062   */\n      tag_652\n        /* \"#utility.yul\":4054:4061   */\n      dup12\n        /* \"#utility.yul\":4045:4051   */\n      dup3\n        /* \"#utility.yul\":4034:4043   */\n      dup13\n        /* \"#utility.yul\":4030:4052   */\n      add\n        /* \"#utility.yul\":4009:4062   */\n      tag_539\n      jump\t// in\n    tag_652:\n        /* \"#utility.yul\":3999:4062   */\n      swap7\n      pop\n        /* \"#utility.yul\":3954:4072   */\n      pop\n        /* \"#utility.yul\":4111:4113   */\n      0x60\n        /* \"#utility.yul\":4137:4190   */\n      tag_653\n        /* \"#utility.yul\":4182:4189   */\n      dup12\n        /* \"#utility.yul\":4173:4179   */\n      dup3\n        /* \"#utility.yul\":4162:4171   */\n      dup13\n        /* \"#utility.yul\":4158:4180   */\n      add\n        /* \"#utility.yul\":4137:4190   */\n      tag_532\n      jump\t// in\n    tag_653:\n        /* \"#utility.yul\":4127:4190   */\n      swap6\n      pop\n        /* \"#utility.yul\":4082:4200   */\n      pop\n        /* \"#utility.yul\":4239:4242   */\n      0x80\n        /* \"#utility.yul\":4266:4319   */\n      tag_654\n        /* \"#utility.yul\":4311:4318   */\n      dup12\n        /* \"#utility.yul\":4302:4308   */\n      dup3\n        /* \"#utility.yul\":4291:4300   */\n      dup13\n        /* \"#utility.yul\":4287:4309   */\n      add\n        /* \"#utility.yul\":4266:4319   */\n      tag_532\n      jump\t// in\n    tag_654:\n        /* \"#utility.yul\":4256:4319   */\n      swap5\n      pop\n        /* \"#utility.yul\":4210:4329   */\n      pop\n        /* \"#utility.yul\":4368:4371   */\n      0xa0\n        /* \"#utility.yul\":4395:4448   */\n      tag_655\n        /* \"#utility.yul\":4440:4447   */\n      dup12\n        /* \"#utility.yul\":4431:4437   */\n      dup3\n        /* \"#utility.yul\":4420:4429   */\n      dup13\n        /* \"#utility.yul\":4416:4438   */\n      add\n        /* \"#utility.yul\":4395:4448   */\n      tag_532\n      jump\t// in\n    tag_655:\n        /* \"#utility.yul\":4385:4448   */\n      swap4\n      pop\n        /* \"#utility.yul\":4339:4458   */\n      pop\n        /* \"#utility.yul\":4497:4500   */\n      0xc0\n        /* \"#utility.yul\":4524:4574   */\n      tag_656\n        /* \"#utility.yul\":4566:4573   */\n      dup12\n        /* \"#utility.yul\":4557:4563   */\n      dup3\n        /* \"#utility.yul\":4546:4555   */\n      dup13\n        /* \"#utility.yul\":4542:4564   */\n      add\n        /* \"#utility.yul\":4524:4574   */\n      tag_543\n      jump\t// in\n    tag_656:\n        /* \"#utility.yul\":4514:4574   */\n      swap3\n      pop\n        /* \"#utility.yul\":4468:4584   */\n      pop\n        /* \"#utility.yul\":4623:4626   */\n      0xe0\n        /* \"#utility.yul\":4650:4703   */\n      tag_657\n        /* \"#utility.yul\":4695:4702   */\n      dup12\n        /* \"#utility.yul\":4686:4692   */\n      dup3\n        /* \"#utility.yul\":4675:4684   */\n      dup13\n        /* \"#utility.yul\":4671:4693   */\n      add\n        /* \"#utility.yul\":4650:4703   */\n      tag_539\n      jump\t// in\n    tag_657:\n        /* \"#utility.yul\":4640:4703   */\n      swap2\n      pop\n        /* \"#utility.yul\":4594:4713   */\n      pop\n        /* \"#utility.yul\":3333:4720   */\n      swap3\n      swap6\n      swap9\n      pop\n      swap3\n      swap6\n      swap9\n      swap1\n      swap4\n      swap7\n      pop\n      jump\t// out\n        /* \"#utility.yul\":4726:4844   */\n    tag_544:\n        /* \"#utility.yul\":4813:4837   */\n      tag_659\n        /* \"#utility.yul\":4831:4836   */\n      dup2\n        /* \"#utility.yul\":4813:4837   */\n      tag_537\n      jump\t// in\n    tag_659:\n        /* \"#utility.yul\":4808:4811   */\n      dup3\n        /* \"#utility.yul\":4801:4838   */\n      mstore\n        /* \"#utility.yul\":4726:4844   */\n      pop\n      pop\n      jump\t// out\n        /* \"#utility.yul\":4850:5072   */\n    tag_66:\n        /* \"#utility.yul\":4943:4947   */\n      0x00\n        /* \"#utility.yul\":4981:4983   */\n      0x20\n        /* \"#utility.yul\":4970:4979   */\n      dup3\n        /* \"#utility.yul\":4966:4984   */\n      add\n        /* \"#utility.yul\":4958:4984   */\n      swap1\n      pop\n        /* \"#utility.yul\":4994:5065   */\n      tag_661\n        /* \"#utility.yul\":5062:5063   */\n      0x00\n        /* \"#utility.yul\":5051:5060   */\n      dup4\n        /* \"#utility.yul\":5047:5064   */\n      add\n        /* \"#utility.yul\":5038:5044   */\n      dup5\n        /* \"#utility.yul\":4994:5065   */\n      tag_544\n      jump\t// in\n    tag_661:\n        /* \"#utility.yul\":4850:5072   */\n      swap3\n      swap2\n      pop\n      pop\n      jump\t// out\n        /* \"#utility.yul\":5078:5410   */\n    tag_74:\n        /* \"#utility.yul\":5199:5203   */\n      0x00\n        /* \"#utility.yul\":5237:5239   */\n      0x40\n        /* \"#utility.yul\":5226:5235   */\n      dup3\n        /* \"#utility.yul\":5222:5240   */\n      add\n        /* \"#utility.yul\":5214:5240   */\n      swap1\n      pop\n        /* \"#utility.yul\":5250:5321   */\n      tag_663\n        /* \"#utility.yul\":5318:5319   */\n      0x00\n        /* \"#utility.yul\":5307:5316   */\n      dup4\n        /* \"#utility.yul\":5303:5320   */\n      add\n        /* \"#utility.yul\":5294:5300   */\n      dup6\n        /* \"#utility.yul\":5250:5321   */\n      tag_544\n      jump\t// in\n    tag_663:\n        /* \"#utility.yul\":5331:5403   */\n      tag_664\n        /* \"#utility.yul\":5399:5401   */\n      0x20\n        /* \"#utility.yul\":5388:5397   */\n      dup4\n        /* \"#utility.yul\":5384:5402   */\n      add\n        /* \"#utility.yul\":5375:5381   */\n      dup5\n        /* \"#utility.yul\":5331:5403   */\n      tag_544\n      jump\t// in\n    tag_664:\n        /* \"#utility.yul\":5078:5410   */\n      swap4\n      swap3\n      pop\n      pop\n      pop\n      jump\t// out\n        /* \"#utility.yul\":5416:5638   */\n    tag_89:\n        /* \"#utility.yul\":5509:5513   */\n      0x00\n        /* \"#utility.yul\":5547:5549   */\n      0x20\n        /* \"#utility.yul\":5536:5545   */\n      dup3\n        /* \"#utility.yul\":5532:5550   */\n      add\n        /* \"#utility.yul\":5524:5550   */\n      swap1\n      pop\n        /* \"#utility.yul\":5560:5631   */\n      tag_666\n        /* \"#utility.yul\":5628:5629   */\n      0x00\n        /* \"#utility.yul\":5617:5626   */\n      dup4\n        /* \"#utility.yul\":5613:5630   */\n      add\n        /* \"#utility.yul\":5604:5610   */\n      dup5\n        /* \"#utility.yul\":5560:5631   */\n      tag_535\n      jump\t// in\n    tag_666:\n        /* \"#utility.yul\":5416:5638   */\n      swap3\n      swap2\n      pop\n      pop\n      jump\t// out\n        /* \"#utility.yul\":5644:5758   */\n    tag_545:\n        /* \"#utility.yul\":5711:5717   */\n      0x00\n        /* \"#utility.yul\":5745:5750   */\n      dup2\n        /* \"#utility.yul\":5739:5751   */\n      mload\n        /* \"#utility.yul\":5729:5751   */\n      swap1\n      pop\n        /* \"#utility.yul\":5644:5758   */\n      swap2\n      swap1\n      pop\n      jump\t// out\n        /* \"#utility.yul\":5764:5948   */\n    tag_546:\n        /* \"#utility.yul\":5863:5874   */\n      0x00\n        /* \"#utility.yul\":5897:5903   */\n      dup3\n        /* \"#utility.yul\":5892:5895   */\n      dup3\n        /* \"#utility.yul\":5885:5904   */\n      mstore\n        /* \"#utility.yul\":5937:5941   */\n      0x20\n        /* \"#utility.yul\":5932:5935   */\n      dup3\n        /* \"#utility.yul\":5928:5942   */\n      add\n        /* \"#utility.yul\":5913:5942   */\n      swap1\n      pop\n        /* \"#utility.yul\":5764:5948   */\n      swap3\n      swap2\n      pop\n      pop\n      jump\t// out\n        /* \"#utility.yul\":5954:6086   */\n    tag_547:\n        /* \"#utility.yul\":6021:6025   */\n      0x00\n        /* \"#utility.yul\":6044:6047   */\n      dup2\n        /* \"#utility.yul\":6036:6047   */\n      swap1\n      pop\n        /* \"#utility.yul\":6074:6078   */\n      0x20\n        /* \"#utility.yul\":6069:6072   */\n      dup3\n        /* \"#utility.yul\":6065:6079   */\n      add\n        /* \"#utility.yul\":6057:6079   */\n      swap1\n      pop\n        /* \"#utility.yul\":5954:6086   */\n      swap2\n      swap1\n      pop\n      jump\t// out\n        /* \"#utility.yul\":6092:6200   */\n    tag_548:\n        /* \"#utility.yul\":6169:6193   */\n      tag_671\n        /* \"#utility.yul\":6187:6192   */\n      dup2\n        /* \"#utility.yul\":6169:6193   */\n      tag_537\n      jump\t// in\n    tag_671:\n        /* \"#utility.yul\":6164:6167   */\n      dup3\n        /* \"#utility.yul\":6157:6194   */\n      mstore\n        /* \"#utility.yul\":6092:6200   */\n      pop\n      pop\n      jump\t// out\n        /* \"#utility.yul\":6206:6385   */\n    tag_549:\n        /* \"#utility.yul\":6275:6285   */\n      0x00\n        /* \"#utility.yul\":6296:6342   */\n      tag_673\n        /* \"#utility.yul\":6338:6341   */\n      dup4\n        /* \"#utility.yul\":6330:6336   */\n      dup4\n        /* \"#utility.yul\":6296:6342   */\n      tag_548\n      jump\t// in\n    tag_673:\n        /* \"#utility.yul\":6374:6378   */\n      0x20\n        /* \"#utility.yul\":6369:6372   */\n      dup4\n        /* \"#utility.yul\":6365:6379   */\n      add\n        /* \"#utility.yul\":6351:6379   */\n      swap1\n      pop\n        /* \"#utility.yul\":6206:6385   */\n      swap3\n      swap2\n      pop\n      pop\n      jump\t// out\n        /* \"#utility.yul\":6391:6504   */\n    tag_550:\n        /* \"#utility.yul\":6461:6465   */\n      0x00\n        /* \"#utility.yul\":6493:6497   */\n      0x20\n        /* \"#utility.yul\":6488:6491   */\n      dup3\n        /* \"#utility.yul\":6484:6498   */\n      add\n        /* \"#utility.yul\":6476:6498   */\n      swap1\n      pop\n        /* \"#utility.yul\":6391:6504   */\n      swap2\n      swap1\n      pop\n      jump\t// out\n        /* \"#utility.yul\":6540:7272   */\n    tag_551:\n        /* \"#utility.yul\":6659:6662   */\n      0x00\n        /* \"#utility.yul\":6688:6742   */\n      tag_676\n        /* \"#utility.yul\":6736:6741   */\n      dup3\n        /* \"#utility.yul\":6688:6742   */\n      tag_545\n      jump\t// in\n    tag_676:\n        /* \"#utility.yul\":6758:6844   */\n      tag_677\n        /* \"#utility.yul\":6837:6843   */\n      dup2\n        /* \"#utility.yul\":6832:6835   */\n      dup6\n        /* \"#utility.yul\":6758:6844   */\n      tag_546\n      jump\t// in\n    tag_677:\n        /* \"#utility.yul\":6751:6844   */\n      swap4\n      pop\n        /* \"#utility.yul\":6868:6924   */\n      tag_678\n        /* \"#utility.yul\":6918:6923   */\n      dup4\n        /* \"#utility.yul\":6868:6924   */\n      tag_547\n      jump\t// in\n    tag_678:\n        /* \"#utility.yul\":6947:6954   */\n      dup1\n        /* \"#utility.yul\":6978:6979   */\n      0x00\n        /* \"#utility.yul\":6963:7247   */\n    tag_679:\n        /* \"#utility.yul\":6988:6994   */\n      dup4\n        /* \"#utility.yul\":6985:6986   */\n      dup2\n        /* \"#utility.yul\":6982:6995   */\n      lt\n        /* \"#utility.yul\":6963:7247   */\n      iszero\n      tag_681\n      jumpi\n        /* \"#utility.yul\":7064:7070   */\n      dup2\n        /* \"#utility.yul\":7058:7071   */\n      mload\n        /* \"#utility.yul\":7091:7154   */\n      tag_682\n        /* \"#utility.yul\":7150:7153   */\n      dup9\n        /* \"#utility.yul\":7135:7148   */\n      dup3\n        /* \"#utility.yul\":7091:7154   */\n      tag_549\n      jump\t// in\n    tag_682:\n        /* \"#utility.yul\":7084:7154   */\n      swap8\n      pop\n        /* \"#utility.yul\":7177:7237   */\n      tag_683\n        /* \"#utility.yul\":7230:7236   */\n      dup4\n        /* \"#utility.yul\":7177:7237   */\n      tag_550\n      jump\t// in\n    tag_683:\n        /* \"#utility.yul\":7167:7237   */\n      swap3\n      pop\n        /* \"#utility.yul\":7023:7247   */\n      pop\n        /* \"#utility.yul\":7010:7011   */\n      0x01\n        /* \"#utility.yul\":7007:7008   */\n      dup2\n        /* \"#utility.yul\":7003:7012   */\n      add\n        /* \"#utility.yul\":6998:7012   */\n      swap1\n      pop\n        /* \"#utility.yul\":6963:7247   */\n      jump(tag_679)\n    tag_681:\n        /* \"#utility.yul\":6967:6981   */\n      pop\n        /* \"#utility.yul\":7263:7266   */\n      dup6\n        /* \"#utility.yul\":7256:7266   */\n      swap4\n      pop\n        /* \"#utility.yul\":6664:7272   */\n      pop\n      pop\n      pop\n        /* \"#utility.yul\":6540:7272   */\n      swap3\n      swap2\n      pop\n      pop\n      jump\t// out\n        /* \"#utility.yul\":7278:7392   */\n    tag_552:\n        /* \"#utility.yul\":7345:7351   */\n      0x00\n        /* \"#utility.yul\":7379:7384   */\n      dup2\n        /* \"#utility.yul\":7373:7385   */\n      mload\n        /* \"#utility.yul\":7363:7385   */\n      swap1\n      pop\n        /* \"#utility.yul\":7278:7392   */\n      swap2\n      swap1\n      pop\n      jump\t// out\n        /* \"#utility.yul\":7398:7582   */\n    tag_553:\n        /* \"#utility.yul\":7497:7508   */\n      0x00\n        /* \"#utility.yul\":7531:7537   */\n      dup3\n        /* \"#utility.yul\":7526:7529   */\n      dup3\n        /* \"#utility.yul\":7519:7538   */\n      mstore\n        /* \"#utility.yul\":7571:7575   */\n      0x20\n        /* \"#utility.yul\":7566:7569   */\n      dup3\n        /* \"#utility.yul\":7562:7576   */\n      add\n        /* \"#utility.yul\":7547:7576   */\n      swap1\n      pop\n        /* \"#utility.yul\":7398:7582   */\n      swap3\n      swap2\n      pop\n      pop\n      jump\t// out\n        /* \"#utility.yul\":7588:7720   */\n    tag_554:\n        /* \"#utility.yul\":7655:7659   */\n      0x00\n        /* \"#utility.yul\":7678:7681   */\n      dup2\n        /* \"#utility.yul\":7670:7681   */\n      swap1\n      pop\n        /* \"#utility.yul\":7708:7712   */\n      0x20\n        /* \"#utility.yul\":7703:7706   */\n      dup3\n        /* \"#utility.yul\":7699:7713   */\n      add\n        /* \"#utility.yul\":7691:7713   */\n      swap1\n      pop\n        /* \"#utility.yul\":7588:7720   */\n      swap2\n      swap1\n      pop\n      jump\t// out\n        /* \"#utility.yul\":7726:7834   */\n    tag_555:\n        /* \"#utility.yul\":7803:7827   */\n      tag_688\n        /* \"#utility.yul\":7821:7826   */\n      dup2\n        /* \"#utility.yul\":7803:7827   */\n      tag_530\n      jump\t// in\n    tag_688:\n        /* \"#utility.yul\":7798:7801   */\n      dup3\n        /* \"#utility.yul\":7791:7828   */\n      mstore\n        /* \"#utility.yul\":7726:7834   */\n      pop\n      pop\n      jump\t// out\n        /* \"#utility.yul\":7840:8019   */\n    tag_556:\n        /* \"#utility.yul\":7909:7919   */\n      0x00\n        /* \"#utility.yul\":7930:7976   */\n      tag_690\n        /* \"#utility.yul\":7972:7975   */\n      dup4\n        /* \"#utility.yul\":7964:7970   */\n      dup4\n        /* \"#utility.yul\":7930:7976   */\n      tag_555\n      jump\t// in\n    tag_690:\n        /* \"#utility.yul\":8008:8012   */\n      0x20\n        /* \"#utility.yul\":8003:8006   */\n      dup4\n        /* \"#utility.yul\":7999:8013   */\n      add\n        /* \"#utility.yul\":7985:8013   */\n      swap1\n      pop\n        /* \"#utility.yul\":7840:8019   */\n      swap3\n      swap2\n      pop\n      pop\n      jump\t// out\n        /* \"#utility.yul\":8025:8138   */\n    tag_557:\n        /* \"#utility.yul\":8095:8099   */\n      0x00\n        /* \"#utility.yul\":8127:8131   */\n      0x20\n        /* \"#utility.yul\":8122:8125   */\n      dup3\n        /* \"#utility.yul\":8118:8132   */\n      add\n        /* \"#utility.yul\":8110:8132   */\n      swap1\n      pop\n        /* \"#utility.yul\":8025:8138   */\n      swap2\n      swap1\n      pop\n      jump\t// out\n        /* \"#utility.yul\":8174:8906   */\n    tag_558:\n        /* \"#utility.yul\":8293:8296   */\n      0x00\n        /* \"#utility.yul\":8322:8376   */\n      tag_693\n        /* \"#utility.yul\":8370:8375   */\n      dup3\n        /* \"#utility.yul\":8322:8376   */\n      tag_552\n      jump\t// in\n    tag_693:\n        /* \"#utility.yul\":8392:8478   */\n      tag_694\n        /* \"#utility.yul\":8471:8477   */\n      dup2\n        /* \"#utility.yul\":8466:8469   */\n      dup6\n        /* \"#utility.yul\":8392:8478   */\n      tag_553\n      jump\t// in\n    tag_694:\n        /* \"#utility.yul\":8385:8478   */\n      swap4\n      pop\n        /* \"#utility.yul\":8502:8558   */\n      tag_695\n        /* \"#utility.yul\":8552:8557   */\n      dup4\n        /* \"#utility.yul\":8502:8558   */\n      tag_554\n      jump\t// in\n    tag_695:\n        /* \"#utility.yul\":8581:8588   */\n      dup1\n        /* \"#utility.yul\":8612:8613   */\n      0x00\n        /* \"#utility.yul\":8597:8881   */\n    tag_696:\n        /* \"#utility.yul\":8622:8628   */\n      dup4\n        /* \"#utility.yul\":8619:8620   */\n      dup2\n        /* \"#utility.yul\":8616:8629   */\n      lt\n        /* \"#utility.yul\":8597:8881   */\n      iszero\n      tag_698\n      jumpi\n        /* \"#utility.yul\":8698:8704   */\n      dup2\n        /* \"#utility.yul\":8692:8705   */\n      mload\n        /* \"#utility.yul\":8725:8788   */\n      tag_699\n        /* \"#utility.yul\":8784:8787   */\n      dup9\n        /* \"#utility.yul\":8769:8782   */\n      dup3\n        /* \"#utility.yul\":8725:8788   */\n      tag_556\n      jump\t// in\n    tag_699:\n        /* \"#utility.yul\":8718:8788   */\n      swap8\n      pop\n        /* \"#utility.yul\":8811:8871   */\n      tag_700\n        /* \"#utility.yul\":8864:8870   */\n      dup4\n        /* \"#utility.yul\":8811:8871   */\n      tag_557\n      jump\t// in\n    tag_700:\n        /* \"#utility.yul\":8801:8871   */\n      swap3\n      pop\n        /* \"#utility.yul\":8657:8881   */\n      pop\n        /* \"#utility.yul\":8644:8645   */\n      0x01\n        /* \"#utility.yul\":8641:8642   */\n      dup2\n        /* \"#utility.yul\":8637:8646   */\n      add\n        /* \"#utility.yul\":8632:8646   */\n      swap1\n      pop\n        /* \"#utility.yul\":8597:8881   */\n      jump(tag_696)\n    tag_698:\n        /* \"#utility.yul\":8601:8615   */\n      pop\n        /* \"#utility.yul\":8897:8900   */\n      dup6\n        /* \"#utility.yul\":8890:8900   */\n      swap4\n      pop\n        /* \"#utility.yul\":8298:8906   */\n      pop\n      pop\n      pop\n        /* \"#utility.yul\":8174:8906   */\n      swap3\n      swap2\n      pop\n      pop\n      jump\t// out\n        /* \"#utility.yul\":8912:9807   */\n    tag_94:\n        /* \"#utility.yul\":9211:9215   */\n      0x00\n        /* \"#utility.yul\":9249:9251   */\n      0x60\n        /* \"#utility.yul\":9238:9247   */\n      dup3\n        /* \"#utility.yul\":9234:9252   */\n      add\n        /* \"#utility.yul\":9226:9252   */\n      swap1\n      pop\n        /* \"#utility.yul\":9298:9307   */\n      dup2\n        /* \"#utility.yul\":9292:9296   */\n      dup2\n        /* \"#utility.yul\":9288:9308   */\n      sub\n        /* \"#utility.yul\":9284:9285   */\n      0x00\n        /* \"#utility.yul\":9273:9282   */\n      dup4\n        /* \"#utility.yul\":9269:9286   */\n      add\n        /* \"#utility.yul\":9262:9309   */\n      mstore\n        /* \"#utility.yul\":9326:9434   */\n      tag_702\n        /* \"#utility.yul\":9429:9433   */\n      dup2\n        /* \"#utility.yul\":9420:9426   */\n      dup7\n        /* \"#utility.yul\":9326:9434   */\n      tag_551\n      jump\t// in\n    tag_702:\n        /* \"#utility.yul\":9318:9434   */\n      swap1\n      pop\n        /* \"#utility.yul\":9481:9490   */\n      dup2\n        /* \"#utility.yul\":9475:9479   */\n      dup2\n        /* \"#utility.yul\":9471:9491   */\n      sub\n        /* \"#utility.yul\":9466:9468   */\n      0x20\n        /* \"#utility.yul\":9455:9464   */\n      dup4\n        /* \"#utility.yul\":9451:9469   */\n      add\n        /* \"#utility.yul\":9444:9492   */\n      mstore\n        /* \"#utility.yul\":9509:9617   */\n      tag_703\n        /* \"#utility.yul\":9612:9616   */\n      dup2\n        /* \"#utility.yul\":9603:9609   */\n      dup6\n        /* \"#utility.yul\":9509:9617   */\n      tag_558\n      jump\t// in\n    tag_703:\n        /* \"#utility.yul\":9501:9617   */\n      swap1\n      pop\n        /* \"#utility.yul\":9664:9673   */\n      dup2\n        /* \"#utility.yul\":9658:9662   */\n      dup2\n        /* \"#utility.yul\":9654:9674   */\n      sub\n        /* \"#utility.yul\":9649:9651   */\n      0x40\n        /* \"#utility.yul\":9638:9647   */\n      dup4\n        /* \"#utility.yul\":9634:9652   */\n      add\n        /* \"#utility.yul\":9627:9675   */\n      mstore\n        /* \"#utility.yul\":9692:9800   */\n      tag_704\n        /* \"#utility.yul\":9795:9799   */\n      dup2\n        /* \"#utility.yul\":9786:9792   */\n      dup5\n        /* \"#utility.yul\":9692:9800   */\n      tag_558\n      jump\t// in\n    tag_704:\n        /* \"#utility.yul\":9684:9800   */\n      swap1\n      pop\n        /* \"#utility.yul\":8912:9807   */\n      swap5\n      swap4\n      pop\n      pop\n      pop\n      pop\n      jump\t// out\n        /* \"#utility.yul\":9813:9982   */\n    tag_559:\n        /* \"#utility.yul\":9897:9908   */\n      0x00\n        /* \"#utility.yul\":9931:9937   */\n      dup3\n        /* \"#utility.yul\":9926:9929   */\n      dup3\n        /* \"#utility.yul\":9919:9938   */\n      mstore\n        /* \"#utility.yul\":9971:9975   */\n      0x20\n        /* \"#utility.yul\":9966:9969   */\n      dup3\n        /* \"#utility.yul\":9962:9976   */\n      add\n        /* \"#utility.yul\":9947:9976   */\n      swap1\n      pop\n        /* \"#utility.yul\":9813:9982   */\n      swap3\n      swap2\n      pop\n      pop\n      jump\t// out\n        /* \"#utility.yul\":9988:10160   */\n    tag_560:\n        /* \"#utility.yul\":10128:10152   */\n      0x537943726f774261727465723a20494e41435449564500000000000000000000\n        /* \"#utility.yul\":10124:10125   */\n      0x00\n        /* \"#utility.yul\":10116:10122   */\n      dup3\n        /* \"#utility.yul\":10112:10126   */\n      add\n        /* \"#utility.yul\":10105:10153   */\n      mstore\n        /* \"#utility.yul\":9988:10160   */\n      pop\n      jump\t// out\n        /* \"#utility.yul\":10166:10532   */\n    tag_561:\n        /* \"#utility.yul\":10308:10311   */\n      0x00\n        /* \"#utility.yul\":10329:10396   */\n      tag_708\n        /* \"#utility.yul\":10393:10395   */\n      0x16\n        /* \"#utility.yul\":10388:10391   */\n      dup4\n        /* \"#utility.yul\":10329:10396   */\n      tag_559\n      jump\t// in\n    tag_708:\n        /* \"#utility.yul\":10322:10396   */\n      swap2\n      pop\n        /* \"#utility.yul\":10405:10498   */\n      tag_709\n        /* \"#utility.yul\":10494:10497   */\n      dup3\n        /* \"#utility.yul\":10405:10498   */\n      tag_560\n      jump\t// in\n    tag_709:\n        /* \"#utility.yul\":10523:10525   */\n      0x20\n        /* \"#utility.yul\":10518:10521   */\n      dup3\n        /* \"#utility.yul\":10514:10526   */\n      add\n        /* \"#utility.yul\":10507:10526   */\n      swap1\n      pop\n        /* \"#utility.yul\":10166:10532   */\n      swap2\n      swap1\n      pop\n      jump\t// out\n        /* \"#utility.yul\":10538:10957   */\n    tag_103:\n        /* \"#utility.yul\":10704:10708   */\n      0x00\n        /* \"#utility.yul\":10742:10744   */\n      0x20\n        /* \"#utility.yul\":10731:10740   */\n      dup3\n        /* \"#utility.yul\":10727:10745   */\n      add\n        /* \"#utility.yul\":10719:10745   */\n      swap1\n      pop\n        /* \"#utility.yul\":10791:10800   */\n      dup2\n        /* \"#utility.yul\":10785:10789   */\n      dup2\n        /* \"#utility.yul\":10781:10801   */\n      sub\n        /* \"#utility.yul\":10777:10778   */\n      0x00\n        /* \"#utility.yul\":10766:10775   */\n      dup4\n        /* \"#utility.yul\":10762:10779   */\n      add\n        /* \"#utility.yul\":10755:10802   */\n      mstore\n        /* \"#utility.yul\":10819:10950   */\n      tag_711\n        /* \"#utility.yul\":10945:10949   */\n      dup2\n        /* \"#utility.yul\":10819:10950   */\n      tag_561\n      jump\t// in\n    tag_711:\n        /* \"#utility.yul\":10811:10950   */\n      swap1\n      pop\n        /* \"#utility.yul\":10538:10957   */\n      swap2\n      swap1\n      pop\n      jump\t// out\n        /* \"#utility.yul\":10963:11142   */\n    tag_562:\n        /* \"#utility.yul\":11103:11134   */\n      0x537943726f774261727465723a204e4f545f494e495449414c495a4544000000\n        /* \"#utility.yul\":11099:11100   */\n      0x00\n        /* \"#utility.yul\":11091:11097   */\n      dup3\n        /* \"#utility.yul\":11087:11101   */\n      add\n        /* \"#utility.yul\":11080:11135   */\n      mstore\n        /* \"#utility.yul\":10963:11142   */\n      pop\n      jump\t// out\n        /* \"#utility.yul\":11148:11514   */\n    tag_563:\n        /* \"#utility.yul\":11290:11293   */\n      0x00\n        /* \"#utility.yul\":11311:11378   */\n      tag_714\n        /* \"#utility.yul\":11375:11377   */\n      0x1d\n        /* \"#utility.yul\":11370:11373   */\n      dup4\n        /* \"#utility.yul\":11311:11378   */\n      tag_559\n      jump\t// in\n    tag_714:\n        /* \"#utility.yul\":11304:11378   */\n      swap2\n      pop\n        /* \"#utility.yul\":11387:11480   */\n      tag_715\n        /* \"#utility.yul\":11476:11479   */\n      dup3\n        /* \"#utility.yul\":11387:11480   */\n      tag_562\n      jump\t// in\n    tag_715:\n        /* \"#utility.yul\":11505:11507   */\n      0x20\n        /* \"#utility.yul\":11500:11503   */\n      dup3\n        /* \"#utility.yul\":11496:11508   */\n      add\n        /* \"#utility.yul\":11489:11508   */\n      swap1\n      pop\n        /* \"#utility.yul\":11148:11514   */\n      swap2\n      swap1\n      pop\n      jump\t// out\n        /* \"#utility.yul\":11520:11939   */\n    tag_107:\n        /* \"#utility.yul\":11686:11690   */\n      0x00\n        /* \"#utility.yul\":11724:11726   */\n      0x20\n        /* \"#utility.yul\":11713:11722   */\n      dup3\n        /* \"#utility.yul\":11709:11727   */\n      add\n        /* \"#utility.yul\":11701:11727   */\n      swap1\n      pop\n        /* \"#utility.yul\":11773:11782   */\n      dup2\n        /* \"#utility.yul\":11767:11771   */\n      dup2\n        /* \"#utility.yul\":11763:11783   */\n      sub\n        /* \"#utility.yul\":11759:11760   */\n      0x00\n        /* \"#utility.yul\":11748:11757   */\n      dup4\n        /* \"#utility.yul\":11744:11761   */\n      add\n        /* \"#utility.yul\":11737:11784   */\n      mstore\n        /* \"#utility.yul\":11801:11932   */\n      tag_717\n        /* \"#utility.yul\":11927:11931   */\n      dup2\n        /* \"#utility.yul\":11801:11932   */\n      tag_563\n      jump\t// in\n    tag_717:\n        /* \"#utility.yul\":11793:11932   */\n      swap1\n      pop\n        /* \"#utility.yul\":11520:11939   */\n      swap2\n      swap1\n      pop\n      jump\t// out\n        /* \"#utility.yul\":11945:12082   */\n    tag_564:\n        /* \"#utility.yul\":11999:12004   */\n      0x00\n        /* \"#utility.yul\":12030:12036   */\n      dup2\n        /* \"#utility.yul\":12024:12037   */\n      mload\n        /* \"#utility.yul\":12015:12037   */\n      swap1\n      pop\n        /* \"#utility.yul\":12046:12076   */\n      tag_719\n        /* \"#utility.yul\":12070:12075   */\n      dup2\n        /* \"#utility.yul\":12046:12076   */\n      tag_542\n      jump\t// in\n    tag_719:\n        /* \"#utility.yul\":11945:12082   */\n      swap3\n      swap2\n      pop\n      pop\n      jump\t// out\n        /* \"#utility.yul\":12088:12433   */\n    tag_112:\n        /* \"#utility.yul\":12155:12161   */\n      0x00\n        /* \"#utility.yul\":12204:12206   */\n      0x20\n        /* \"#utility.yul\":12192:12201   */\n      dup3\n        /* \"#utility.yul\":12183:12190   */\n      dup5\n        /* \"#utility.yul\":12179:12202   */\n      sub\n        /* \"#utility.yul\":12175:12207   */\n      slt\n        /* \"#utility.yul\":12172:12291   */\n      iszero\n      tag_721\n      jumpi\n        /* \"#utility.yul\":12210:12289   */\n      tag_722\n      tag_528\n      jump\t// in\n    tag_722:\n        /* \"#utility.yul\":12172:12291   */\n    tag_721:\n        /* \"#utility.yul\":12330:12331   */\n      0x00\n        /* \"#utility.yul\":12355:12416   */\n      tag_723\n        /* \"#utility.yul\":12408:12415   */\n      dup5\n        /* \"#utility.yul\":12399:12405   */\n      dup3\n        /* \"#utility.yul\":12388:12397   */\n      dup6\n        /* \"#utility.yul\":12384:12406   */\n      add\n        /* \"#utility.yul\":12355:12416   */\n      tag_564\n      jump\t// in\n    tag_723:\n        /* \"#utility.yul\":12345:12416   */\n      swap2\n      pop\n        /* \"#utility.yul\":12301:12426   */\n      pop\n        /* \"#utility.yul\":12088:12433   */\n      swap3\n      swap2\n      pop\n      pop\n      jump\t// out\n        /* \"#utility.yul\":12439:12660   */\n    tag_565:\n        /* \"#utility.yul\":12579:12613   */\n      0x537943726f774261727465723a204261736520436f6e74726163742050617573\n        /* \"#utility.yul\":12575:12576   */\n      0x00\n        /* \"#utility.yul\":12567:12573   */\n      dup3\n        /* \"#utility.yul\":12563:12577   */\n      add\n        /* \"#utility.yul\":12556:12614   */\n      mstore\n        /* \"#utility.yul\":12648:12652   */\n      0x6564000000000000000000000000000000000000000000000000000000000000\n        /* \"#utility.yul\":12643:12645   */\n      0x20\n        /* \"#utility.yul\":12635:12641   */\n      dup3\n        /* \"#utility.yul\":12631:12646   */\n      add\n        /* \"#utility.yul\":12624:12653   */\n      mstore\n        /* \"#utility.yul\":12439:12660   */\n      pop\n      jump\t// out\n        /* \"#utility.yul\":12666:13032   */\n    tag_566:\n        /* \"#utility.yul\":12808:12811   */\n      0x00\n        /* \"#utility.yul\":12829:12896   */\n      tag_726\n        /* \"#utility.yul\":12893:12895   */\n      0x22\n        /* \"#utility.yul\":12888:12891   */\n      dup4\n        /* \"#utility.yul\":12829:12896   */\n      tag_559\n      jump\t// in\n    tag_726:\n        /* \"#utility.yul\":12822:12896   */\n      swap2\n      pop\n        /* \"#utility.yul\":12905:12998   */\n      tag_727\n        /* \"#utility.yul\":12994:12997   */\n      dup3\n        /* \"#utility.yul\":12905:12998   */\n      tag_565\n      jump\t// in\n    tag_727:\n        /* \"#utility.yul\":13023:13025   */\n      0x40\n        /* \"#utility.yul\":13018:13021   */\n      dup3\n        /* \"#utility.yul\":13014:13026   */\n      add\n        /* \"#utility.yul\":13007:13026   */\n      swap1\n      pop\n        /* \"#utility.yul\":12666:13032   */\n      swap2\n      swap1\n      pop\n      jump\t// out\n        /* \"#utility.yul\":13038:13457   */\n    tag_115:\n        /* \"#utility.yul\":13204:13208   */\n      0x00\n        /* \"#utility.yul\":13242:13244   */\n      0x20\n        /* \"#utility.yul\":13231:13240   */\n      dup3\n        /* \"#utility.yul\":13227:13245   */\n      add\n        /* \"#utility.yul\":13219:13245   */\n      swap1\n      pop\n        /* \"#utility.yul\":13291:13300   */\n      dup2\n        /* \"#utility.yul\":13285:13289   */\n      dup2\n        /* \"#utility.yul\":13281:13301   */\n      sub\n        /* \"#utility.yul\":13277:13278   */\n      0x00\n        /* \"#utility.yul\":13266:13275   */\n      dup4\n        /* \"#utility.yul\":13262:13279   */\n      add\n        /* \"#utility.yul\":13255:13302   */\n      mstore\n        /* \"#utility.yul\":13319:13450   */\n      tag_729\n        /* \"#utility.yul\":13445:13449   */\n      dup2\n        /* \"#utility.yul\":13319:13450   */\n      tag_566\n      jump\t// in\n    tag_729:\n        /* \"#utility.yul\":13311:13450   */\n      swap1\n      pop\n        /* \"#utility.yul\":13038:13457   */\n      swap2\n      swap1\n      pop\n      jump\t// out\n        /* \"#utility.yul\":13463:13687   */\n    tag_567:\n        /* \"#utility.yul\":13603:13637   */\n      0x537943726f774261727465723a204d554c54495f54524144455f4e4f545f454e\n        /* \"#utility.yul\":13599:13600   */\n      0x00\n        /* \"#utility.yul\":13591:13597   */\n      dup3\n        /* \"#utility.yul\":13587:13601   */\n      add\n        /* \"#utility.yul\":13580:13638   */\n      mstore\n        /* \"#utility.yul\":13672:13679   */\n      0x41424c4544000000000000000000000000000000000000000000000000000000\n        /* \"#utility.yul\":13667:13669   */\n      0x20\n        /* \"#utility.yul\":13659:13665   */\n      dup3\n        /* \"#utility.yul\":13655:13670   */\n      add\n        /* \"#utility.yul\":13648:13680   */\n      mstore\n        /* \"#utility.yul\":13463:13687   */\n      pop\n      jump\t// out\n        /* \"#utility.yul\":13693:14059   */\n    tag_568:\n        /* \"#utility.yul\":13835:13838   */\n      0x00\n        /* \"#utility.yul\":13856:13923   */\n      tag_732\n        /* \"#utility.yul\":13920:13922   */\n      0x25\n        /* \"#utility.yul\":13915:13918   */\n      dup4\n        /* \"#utility.yul\":13856:13923   */\n      tag_559\n      jump\t// in\n    tag_732:\n        /* \"#utility.yul\":13849:13923   */\n      swap2\n      pop\n        /* \"#utility.yul\":13932:14025   */\n      tag_733\n        /* \"#utility.yul\":14021:14024   */\n      dup3\n        /* \"#utility.yul\":13932:14025   */\n      tag_567\n      jump\t// in\n    tag_733:\n        /* \"#utility.yul\":14050:14052   */\n      0x40\n        /* \"#utility.yul\":14045:14048   */\n      dup3\n        /* \"#utility.yul\":14041:14053   */\n      add\n        /* \"#utility.yul\":14034:14053   */\n      swap1\n      pop\n        /* \"#utility.yul\":13693:14059   */\n      swap2\n      swap1\n      pop\n      jump\t// out\n        /* \"#utility.yul\":14065:14484   */\n    tag_119:\n        /* \"#utility.yul\":14231:14235   */\n      0x00\n        /* \"#utility.yul\":14269:14271   */\n      0x20\n        /* \"#utility.yul\":14258:14267   */\n      dup3\n        /* \"#utility.yul\":14254:14272   */\n      add\n        /* \"#utility.yul\":14246:14272   */\n      swap1\n      pop\n        /* \"#utility.yul\":14318:14327   */\n      dup2\n        /* \"#utility.yul\":14312:14316   */\n      dup2\n        /* \"#utility.yul\":14308:14328   */\n      sub\n        /* \"#utility.yul\":14304:14305   */\n      0x00\n        /* \"#utility.yul\":14293:14302   */\n      dup4\n        /* \"#utility.yul\":14289:14306   */\n      add\n        /* \"#utility.yul\":14282:14329   */\n      mstore\n        /* \"#utility.yul\":14346:14477   */\n      tag_735\n        /* \"#utility.yul\":14472:14476   */\n      dup2\n        /* \"#utility.yul\":14346:14477   */\n      tag_568\n      jump\t// in\n    tag_735:\n        /* \"#utility.yul\":14338:14477   */\n      swap1\n      pop\n        /* \"#utility.yul\":14065:14484   */\n      swap2\n      swap1\n      pop\n      jump\t// out\n        /* \"#utility.yul\":14490:14670   */\n    tag_123:\n        /* \"#utility.yul\":14538:14615   */\n      0x4e487b7100000000000000000000000000000000000000000000000000000000\n        /* \"#utility.yul\":14535:14536   */\n      0x00\n        /* \"#utility.yul\":14528:14616   */\n      mstore\n        /* \"#utility.yul\":14635:14639   */\n      0x21\n        /* \"#utility.yul\":14632:14633   */\n      0x04\n        /* \"#utility.yul\":14625:14640   */\n      mstore\n        /* \"#utility.yul\":14659:14663   */\n      0x24\n        /* \"#utility.yul\":14656:14657   */\n      0x00\n        /* \"#utility.yul\":14649:14664   */\n      revert\n        /* \"#utility.yul\":14676:14896   */\n    tag_569:\n        /* \"#utility.yul\":14816:14850   */\n      0x537943726f774261727465723a20494e56414c49445f4241525445525f545950\n        /* \"#utility.yul\":14812:14813   */\n      0x00\n        /* \"#utility.yul\":14804:14810   */\n      dup3\n        /* \"#utility.yul\":14800:14814   */\n      add\n        /* \"#utility.yul\":14793:14851   */\n      mstore\n        /* \"#utility.yul\":14885:14888   */\n      0x4500000000000000000000000000000000000000000000000000000000000000\n        /* \"#utility.yul\":14880:14882   */\n      0x20\n        /* \"#utility.yul\":14872:14878   */\n      dup3\n        /* \"#utility.yul\":14868:14883   */\n      add\n        /* \"#utility.yul\":14861:14889   */\n      mstore\n        /* \"#utility.yul\":14676:14896   */\n      pop\n      jump\t// out\n        /* \"#utility.yul\":14902:15268   */\n    tag_570:\n        /* \"#utility.yul\":15044:15047   */\n      0x00\n        /* \"#utility.yul\":15065:15132   */\n      tag_739\n        /* \"#utility.yul\":15129:15131   */\n      0x21\n        /* \"#utility.yul\":15124:15127   */\n      dup4\n        /* \"#utility.yul\":15065:15132   */\n      tag_559\n      jump\t// in\n    tag_739:\n        /* \"#utility.yul\":15058:15132   */\n      swap2\n      pop\n        /* \"#utility.yul\":15141:15234   */\n      tag_740\n        /* \"#utility.yul\":15230:15233   */\n      dup3\n        /* \"#utility.yul\":15141:15234   */\n      tag_569\n      jump\t// in\n    tag_740:\n        /* \"#utility.yul\":15259:15261   */\n      0x40\n        /* \"#utility.yul\":15254:15257   */\n      dup3\n        /* \"#utility.yul\":15250:15262   */\n      add\n        /* \"#utility.yul\":15243:15262   */\n      swap1\n      pop\n        /* \"#utility.yul\":14902:15268   */\n      swap2\n      swap1\n      pop\n      jump\t// out\n        /* \"#utility.yul\":15274:15693   */\n    tag_128:\n        /* \"#utility.yul\":15440:15444   */\n      0x00\n        /* \"#utility.yul\":15478:15480   */\n      0x20\n        /* \"#utility.yul\":15467:15476   */\n      dup3\n        /* \"#utility.yul\":15463:15481   */\n      add\n        /* \"#utility.yul\":15455:15481   */\n      swap1\n      pop\n        /* \"#utility.yul\":15527:15536   */\n      dup2\n        /* \"#utility.yul\":15521:15525   */\n      dup2\n        /* \"#utility.yul\":15517:15537   */\n      sub\n        /* \"#utility.yul\":15513:15514   */\n      0x00\n        /* \"#utility.yul\":15502:15511   */\n      dup4\n        /* \"#utility.yul\":15498:15515   */\n      add\n        /* \"#utility.yul\":15491:15538   */\n      mstore\n        /* \"#utility.yul\":15555:15686   */\n      tag_742\n        /* \"#utility.yul\":15681:15685   */\n      dup2\n        /* \"#utility.yul\":15555:15686   */\n      tag_570\n      jump\t// in\n    tag_742:\n        /* \"#utility.yul\":15547:15686   */\n      swap1\n      pop\n        /* \"#utility.yul\":15274:15693   */\n      swap2\n      swap1\n      pop\n      jump\t// out\n        /* \"#utility.yul\":15699:15869   */\n    tag_571:\n        /* \"#utility.yul\":15839:15861   */\n      0x537943726f774261727465723a20414354495645000000000000000000000000\n        /* \"#utility.yul\":15835:15836   */\n      0x00\n        /* \"#utility.yul\":15827:15833   */\n      dup3\n        /* \"#utility.yul\":15823:15837   */\n      add\n        /* \"#utility.yul\":15816:15862   */\n      mstore\n        /* \"#utility.yul\":15699:15869   */\n      pop\n      jump\t// out\n        /* \"#utility.yul\":15875:16241   */\n    tag_572:\n        /* \"#utility.yul\":16017:16020   */\n      0x00\n        /* \"#utility.yul\":16038:16105   */\n      tag_745\n        /* \"#utility.yul\":16102:16104   */\n      0x14\n        /* \"#utility.yul\":16097:16100   */\n      dup4\n        /* \"#utility.yul\":16038:16105   */\n      tag_559\n      jump\t// in\n    tag_745:\n        /* \"#utility.yul\":16031:16105   */\n      swap2\n      pop\n        /* \"#utility.yul\":16114:16207   */\n      tag_746\n        /* \"#utility.yul\":16203:16206   */\n      dup3\n        /* \"#utility.yul\":16114:16207   */\n      tag_571\n      jump\t// in\n    tag_746:\n        /* \"#utility.yul\":16232:16234   */\n      0x20\n        /* \"#utility.yul\":16227:16230   */\n      dup3\n        /* \"#utility.yul\":16223:16235   */\n      add\n        /* \"#utility.yul\":16216:16235   */\n      swap1\n      pop\n        /* \"#utility.yul\":15875:16241   */\n      swap2\n      swap1\n      pop\n      jump\t// out\n        /* \"#utility.yul\":16247:16666   */\n    tag_162:\n        /* \"#utility.yul\":16413:16417   */\n      0x00\n        /* \"#utility.yul\":16451:16453   */\n      0x20\n        /* \"#utility.yul\":16440:16449   */\n      dup3\n        /* \"#utility.yul\":16436:16454   */\n      add\n        /* \"#utility.yul\":16428:16454   */\n      swap1\n      pop\n        /* \"#utility.yul\":16500:16509   */\n      dup2\n        /* \"#utility.yul\":16494:16498   */\n      dup2\n        /* \"#utility.yul\":16490:16510   */\n      sub\n        /* \"#utility.yul\":16486:16487   */\n      0x00\n        /* \"#utility.yul\":16475:16484   */\n      dup4\n        /* \"#utility.yul\":16471:16488   */\n      add\n        /* \"#utility.yul\":16464:16511   */\n      mstore\n        /* \"#utility.yul\":16528:16659   */\n      tag_748\n        /* \"#utility.yul\":16654:16658   */\n      dup2\n        /* \"#utility.yul\":16528:16659   */\n      tag_572\n      jump\t// in\n    tag_748:\n        /* \"#utility.yul\":16520:16659   */\n      swap1\n      pop\n        /* \"#utility.yul\":16247:16666   */\n      swap2\n      swap1\n      pop\n      jump\t// out\n        /* \"#utility.yul\":16672:16854   */\n    tag_573:\n        /* \"#utility.yul\":16812:16846   */\n      0x4f776e61626c653a2063616c6c6572206973206e6f7420746865206f776e6572\n        /* \"#utility.yul\":16808:16809   */\n      0x00\n        /* \"#utility.yul\":16800:16806   */\n      dup3\n        /* \"#utility.yul\":16796:16810   */\n      add\n        /* \"#utility.yul\":16789:16847   */\n      mstore\n        /* \"#utility.yul\":16672:16854   */\n      pop\n      jump\t// out\n        /* \"#utility.yul\":16860:17226   */\n    tag_574:\n        /* \"#utility.yul\":17002:17005   */\n      0x00\n        /* \"#utility.yul\":17023:17090   */\n      tag_751\n        /* \"#utility.yul\":17087:17089   */\n      0x20\n        /* \"#utility.yul\":17082:17085   */\n      dup4\n        /* \"#utility.yul\":17023:17090   */\n      tag_559\n      jump\t// in\n    tag_751:\n        /* \"#utility.yul\":17016:17090   */\n      swap2\n      pop\n        /* \"#utility.yul\":17099:17192   */\n      tag_752\n        /* \"#utility.yul\":17188:17191   */\n      dup3\n        /* \"#utility.yul\":17099:17192   */\n      tag_573\n      jump\t// in\n    tag_752:\n        /* \"#utility.yul\":17217:17219   */\n      0x20\n        /* \"#utility.yul\":17212:17215   */\n      dup3\n        /* \"#utility.yul\":17208:17220   */\n      add\n        /* \"#utility.yul\":17201:17220   */\n      swap1\n      pop\n        /* \"#utility.yul\":16860:17226   */\n      swap2\n      swap1\n      pop\n      jump\t// out\n        /* \"#utility.yul\":17232:17651   */\n    tag_172:\n        /* \"#utility.yul\":17398:17402   */\n      0x00\n        /* \"#utility.yul\":17436:17438   */\n      0x20\n        /* \"#utility.yul\":17425:17434   */\n      dup3\n        /* \"#utility.yul\":17421:17439   */\n      add\n        /* \"#utility.yul\":17413:17439   */\n      swap1\n      pop\n        /* \"#utility.yul\":17485:17494   */\n      dup2\n        /* \"#utility.yul\":17479:17483   */\n      dup2\n        /* \"#utility.yul\":17475:17495   */\n      sub\n        /* \"#utility.yul\":17471:17472   */\n      0x00\n        /* \"#utility.yul\":17460:17469   */\n      dup4\n        /* \"#utility.yul\":17456:17473   */\n      add\n        /* \"#utility.yul\":17449:17496   */\n      mstore\n        /* \"#utility.yul\":17513:17644   */\n      tag_754\n        /* \"#utility.yul\":17639:17643   */\n      dup2\n        /* \"#utility.yul\":17513:17644   */\n      tag_574\n      jump\t// in\n    tag_754:\n        /* \"#utility.yul\":17505:17644   */\n      swap1\n      pop\n        /* \"#utility.yul\":17232:17651   */\n      swap2\n      swap1\n      pop\n      jump\t// out\n        /* \"#utility.yul\":17657:17800   */\n    tag_575:\n        /* \"#utility.yul\":17714:17719   */\n      0x00\n        /* \"#utility.yul\":17745:17751   */\n      dup2\n        /* \"#utility.yul\":17739:17752   */\n      mload\n        /* \"#utility.yul\":17730:17752   */\n      swap1\n      pop\n        /* \"#utility.yul\":17761:17794   */\n      tag_756\n        /* \"#utility.yul\":17788:17793   */\n      dup2\n        /* \"#utility.yul\":17761:17794   */\n      tag_531\n      jump\t// in\n    tag_756:\n        /* \"#utility.yul\":17657:17800   */\n      swap3\n      swap2\n      pop\n      pop\n      jump\t// out\n        /* \"#utility.yul\":17806:18157   */\n    tag_178:\n        /* \"#utility.yul\":17876:17882   */\n      0x00\n        /* \"#utility.yul\":17925:17927   */\n      0x20\n        /* \"#utility.yul\":17913:17922   */\n      dup3\n        /* \"#utility.yul\":17904:17911   */\n      dup5\n        /* \"#utility.yul\":17900:17923   */\n      sub\n        /* \"#utility.yul\":17896:17928   */\n      slt\n        /* \"#utility.yul\":17893:18012   */\n      iszero\n      tag_758\n      jumpi\n        /* \"#utility.yul\":17931:18010   */\n      tag_759\n      tag_528\n      jump\t// in\n    tag_759:\n        /* \"#utility.yul\":17893:18012   */\n    tag_758:\n        /* \"#utility.yul\":18051:18052   */\n      0x00\n        /* \"#utility.yul\":18076:18140   */\n      tag_760\n        /* \"#utility.yul\":18132:18139   */\n      dup5\n        /* \"#utility.yul\":18123:18129   */\n      dup3\n        /* \"#utility.yul\":18112:18121   */\n      dup6\n        /* \"#utility.yul\":18108:18130   */\n      add\n        /* \"#utility.yul\":18076:18140   */\n      tag_575\n      jump\t// in\n    tag_760:\n        /* \"#utility.yul\":18066:18140   */\n      swap2\n      pop\n        /* \"#utility.yul\":18022:18150   */\n      pop\n        /* \"#utility.yul\":17806:18157   */\n      swap3\n      swap2\n      pop\n      pop\n      jump\t// out\n        /* \"#utility.yul\":18163:18716   */\n    tag_212:\n        /* \"#utility.yul\":18340:18344   */\n      0x00\n        /* \"#utility.yul\":18378:18381   */\n      0x80\n        /* \"#utility.yul\":18367:18376   */\n      dup3\n        /* \"#utility.yul\":18363:18382   */\n      add\n        /* \"#utility.yul\":18355:18382   */\n      swap1\n      pop\n        /* \"#utility.yul\":18392:18463   */\n      tag_762\n        /* \"#utility.yul\":18460:18461   */\n      0x00\n        /* \"#utility.yul\":18449:18458   */\n      dup4\n        /* \"#utility.yul\":18445:18462   */\n      add\n        /* \"#utility.yul\":18436:18442   */\n      dup8\n        /* \"#utility.yul\":18392:18463   */\n      tag_544\n      jump\t// in\n    tag_762:\n        /* \"#utility.yul\":18473:18545   */\n      tag_763\n        /* \"#utility.yul\":18541:18543   */\n      0x20\n        /* \"#utility.yul\":18530:18539   */\n      dup4\n        /* \"#utility.yul\":18526:18544   */\n      add\n        /* \"#utility.yul\":18517:18523   */\n      dup7\n        /* \"#utility.yul\":18473:18545   */\n      tag_544\n      jump\t// in\n    tag_763:\n        /* \"#utility.yul\":18555:18627   */\n      tag_764\n        /* \"#utility.yul\":18623:18625   */\n      0x40\n        /* \"#utility.yul\":18612:18621   */\n      dup4\n        /* \"#utility.yul\":18608:18626   */\n      add\n        /* \"#utility.yul\":18599:18605   */\n      dup6\n        /* \"#utility.yul\":18555:18627   */\n      tag_535\n      jump\t// in\n    tag_764:\n        /* \"#utility.yul\":18637:18709   */\n      tag_765\n        /* \"#utility.yul\":18705:18707   */\n      0x60\n        /* \"#utility.yul\":18694:18703   */\n      dup4\n        /* \"#utility.yul\":18690:18708   */\n      add\n        /* \"#utility.yul\":18681:18687   */\n      dup5\n        /* \"#utility.yul\":18637:18709   */\n      tag_535\n      jump\t// in\n    tag_765:\n        /* \"#utility.yul\":18163:18716   */\n      swap6\n      swap5\n      pop\n      pop\n      pop\n      pop\n      pop\n      jump\t// out\n        /* \"#utility.yul\":18722:18895   */\n    tag_576:\n        /* \"#utility.yul\":18862:18887   */\n      0x537943726f774261727465723a20464f5242494444454e000000000000000000\n        /* \"#utility.yul\":18858:18859   */\n      0x00\n        /* \"#utility.yul\":18850:18856   */\n      dup3\n        /* \"#utility.yul\":18846:18860   */\n      add\n        /* \"#utility.yul\":18839:18888   */\n      mstore\n        /* \"#utility.yul\":18722:18895   */\n      pop\n      jump\t// out\n        /* \"#utility.yul\":18901:19267   */\n    tag_577:\n        /* \"#utility.yul\":19043:19046   */\n      0x00\n        /* \"#utility.yul\":19064:19131   */\n      tag_768\n        /* \"#utility.yul\":19128:19130   */\n      0x17\n        /* \"#utility.yul\":19123:19126   */\n      dup4\n        /* \"#utility.yul\":19064:19131   */\n      tag_559\n      jump\t// in\n    tag_768:\n        /* \"#utility.yul\":19057:19131   */\n      swap2\n      pop\n        /* \"#utility.yul\":19140:19233   */\n      tag_769\n        /* \"#utility.yul\":19229:19232   */\n      dup3\n        /* \"#utility.yul\":19140:19233   */\n      tag_576\n      jump\t// in\n    tag_769:\n        /* \"#utility.yul\":19258:19260   */\n      0x20\n        /* \"#utility.yul\":19253:19256   */\n      dup3\n        /* \"#utility.yul\":19249:19261   */\n      add\n        /* \"#utility.yul\":19242:19261   */\n      swap1\n      pop\n        /* \"#utility.yul\":18901:19267   */\n      swap2\n      swap1\n      pop\n      jump\t// out\n        /* \"#utility.yul\":19273:19692   */\n    tag_257:\n        /* \"#utility.yul\":19439:19443   */\n      0x00\n        /* \"#utility.yul\":19477:19479   */\n      0x20\n        /* \"#utility.yul\":19466:19475   */\n      dup3\n        /* \"#utility.yul\":19462:19480   */\n      add\n        /* \"#utility.yul\":19454:19480   */\n      swap1\n      pop\n        /* \"#utility.yul\":19526:19535   */\n      dup2\n        /* \"#utility.yul\":19520:19524   */\n      dup2\n        /* \"#utility.yul\":19516:19536   */\n      sub\n        /* \"#utility.yul\":19512:19513   */\n      0x00\n        /* \"#utility.yul\":19501:19510   */\n      dup4\n        /* \"#utility.yul\":19497:19514   */\n      add\n        /* \"#utility.yul\":19490:19537   */\n      mstore\n        /* \"#utility.yul\":19554:19685   */\n      tag_771\n        /* \"#utility.yul\":19680:19684   */\n      dup2\n        /* \"#utility.yul\":19554:19685   */\n      tag_577\n      jump\t// in\n    tag_771:\n        /* \"#utility.yul\":19546:19685   */\n      swap1\n      pop\n        /* \"#utility.yul\":19273:19692   */\n      swap2\n      swap1\n      pop\n      jump\t// out\n        /* \"#utility.yul\":19698:19918   */\n    tag_578:\n        /* \"#utility.yul\":19838:19872   */\n      0x537943726f774261727465723a20414c52454144595f494e495449414c495a45\n        /* \"#utility.yul\":19834:19835   */\n      0x00\n        /* \"#utility.yul\":19826:19832   */\n      dup3\n        /* \"#utility.yul\":19822:19836   */\n      add\n        /* \"#utility.yul\":19815:19873   */\n      mstore\n        /* \"#utility.yul\":19907:19910   */\n      0x4400000000000000000000000000000000000000000000000000000000000000\n        /* \"#utility.yul\":19902:19904   */\n      0x20\n        /* \"#utility.yul\":19894:19900   */\n      dup3\n        /* \"#utility.yul\":19890:19905   */\n      add\n        /* \"#utility.yul\":19883:19911   */\n      mstore\n        /* \"#utility.yul\":19698:19918   */\n      pop\n      jump\t// out\n        /* \"#utility.yul\":19924:20290   */\n    tag_579:\n        /* \"#utility.yul\":20066:20069   */\n      0x00\n        /* \"#utility.yul\":20087:20154   */\n      tag_774\n        /* \"#utility.yul\":20151:20153   */\n      0x21\n        /* \"#utility.yul\":20146:20149   */\n      dup4\n        /* \"#utility.yul\":20087:20154   */\n      tag_559\n      jump\t// in\n    tag_774:\n        /* \"#utility.yul\":20080:20154   */\n      swap2\n      pop\n        /* \"#utility.yul\":20163:20256   */\n      tag_775\n        /* \"#utility.yul\":20252:20255   */\n      dup3\n        /* \"#utility.yul\":20163:20256   */\n      tag_578\n      jump\t// in\n    tag_775:\n        /* \"#utility.yul\":20281:20283   */\n      0x40\n        /* \"#utility.yul\":20276:20279   */\n      dup3\n        /* \"#utility.yul\":20272:20284   */\n      add\n        /* \"#utility.yul\":20265:20284   */\n      swap1\n      pop\n        /* \"#utility.yul\":19924:20290   */\n      swap2\n      swap1\n      pop\n      jump\t// out\n        /* \"#utility.yul\":20296:20715   */\n    tag_271:\n        /* \"#utility.yul\":20462:20466   */\n      0x00\n        /* \"#utility.yul\":20500:20502   */\n      0x20\n        /* \"#utility.yul\":20489:20498   */\n      dup3\n        /* \"#utility.yul\":20485:20503   */\n      add\n        /* \"#utility.yul\":20477:20503   */\n      swap1\n      pop\n        /* \"#utility.yul\":20549:20558   */\n      dup2\n        /* \"#utility.yul\":20543:20547   */\n      dup2\n        /* \"#utility.yul\":20539:20559   */\n      sub\n        /* \"#utility.yul\":20535:20536   */\n      0x00\n        /* \"#utility.yul\":20524:20533   */\n      dup4\n        /* \"#utility.yul\":20520:20537   */\n      add\n        /* \"#utility.yul\":20513:20560   */\n      mstore\n        /* \"#utility.yul\":20577:20708   */\n      tag_777\n        /* \"#utility.yul\":20703:20707   */\n      dup2\n        /* \"#utility.yul\":20577:20708   */\n      tag_579\n      jump\t// in\n    tag_777:\n        /* \"#utility.yul\":20569:20708   */\n      swap1\n      pop\n        /* \"#utility.yul\":20296:20715   */\n      swap2\n      swap1\n      pop\n      jump\t// out\n        /* \"#utility.yul\":20721:20898   */\n    tag_580:\n        /* \"#utility.yul\":20861:20890   */\n      0x537943726f774261727465723a20504153545f444541444c494e450000000000\n        /* \"#utility.yul\":20857:20858   */\n      0x00\n        /* \"#utility.yul\":20849:20855   */\n      dup3\n        /* \"#utility.yul\":20845:20859   */\n      add\n        /* \"#utility.yul\":20838:20891   */\n      mstore\n        /* \"#utility.yul\":20721:20898   */\n      pop\n      jump\t// out\n        /* \"#utility.yul\":20904:21270   */\n    tag_581:\n        /* \"#utility.yul\":21046:21049   */\n      0x00\n        /* \"#utility.yul\":21067:21134   */\n      tag_780\n        /* \"#utility.yul\":21131:21133   */\n      0x1b\n        /* \"#utility.yul\":21126:21129   */\n      dup4\n        /* \"#utility.yul\":21067:21134   */\n      tag_559\n      jump\t// in\n    tag_780:\n        /* \"#utility.yul\":21060:21134   */\n      swap2\n      pop\n        /* \"#utility.yul\":21143:21236   */\n      tag_781\n        /* \"#utility.yul\":21232:21235   */\n      dup3\n        /* \"#utility.yul\":21143:21236   */\n      tag_580\n      jump\t// in\n    tag_781:\n        /* \"#utility.yul\":21261:21263   */\n      0x20\n        /* \"#utility.yul\":21256:21259   */\n      dup3\n        /* \"#utility.yul\":21252:21264   */\n      add\n        /* \"#utility.yul\":21245:21264   */\n      swap1\n      pop\n        /* \"#utility.yul\":20904:21270   */\n      swap2\n      swap1\n      pop\n      jump\t// out\n        /* \"#utility.yul\":21276:21695   */\n    tag_274:\n        /* \"#utility.yul\":21442:21446   */\n      0x00\n        /* \"#utility.yul\":21480:21482   */\n      0x20\n        /* \"#utility.yul\":21469:21478   */\n      dup3\n        /* \"#utility.yul\":21465:21483   */\n      add\n        /* \"#utility.yul\":21457:21483   */\n      swap1\n      pop\n        /* \"#utility.yul\":21529:21538   */\n      dup2\n        /* \"#utility.yul\":21523:21527   */\n      dup2\n        /* \"#utility.yul\":21519:21539   */\n      sub\n        /* \"#utility.yul\":21515:21516   */\n      0x00\n        /* \"#utility.yul\":21504:21513   */\n      dup4\n        /* \"#utility.yul\":21500:21517   */\n      add\n        /* \"#utility.yul\":21493:21540   */\n      mstore\n        /* \"#utility.yul\":21557:21688   */\n      tag_783\n        /* \"#utility.yul\":21683:21687   */\n      dup2\n        /* \"#utility.yul\":21557:21688   */\n      tag_581\n      jump\t// in\n    tag_783:\n        /* \"#utility.yul\":21549:21688   */\n      swap1\n      pop\n        /* \"#utility.yul\":21276:21695   */\n      swap2\n      swap1\n      pop\n      jump\t// out\n        /* \"#utility.yul\":21701:21922   */\n    tag_582:\n        /* \"#utility.yul\":21841:21875   */\n      0x537943726f774261727465723a20494e53554646494349454e545f4445504f53\n        /* \"#utility.yul\":21837:21838   */\n      0x00\n        /* \"#utility.yul\":21829:21835   */\n      dup3\n        /* \"#utility.yul\":21825:21839   */\n      add\n        /* \"#utility.yul\":21818:21876   */\n      mstore\n        /* \"#utility.yul\":21910:21914   */\n      0x4954000000000000000000000000000000000000000000000000000000000000\n        /* \"#utility.yul\":21905:21907   */\n      0x20\n        /* \"#utility.yul\":21897:21903   */\n      dup3\n        /* \"#utility.yul\":21893:21908   */\n      add\n        /* \"#utility.yul\":21886:21915   */\n      mstore\n        /* \"#utility.yul\":21701:21922   */\n      pop\n      jump\t// out\n        /* \"#utility.yul\":21928:22294   */\n    tag_583:\n        /* \"#utility.yul\":22070:22073   */\n      0x00\n        /* \"#utility.yul\":22091:22158   */\n      tag_786\n        /* \"#utility.yul\":22155:22157   */\n      0x22\n        /* \"#utility.yul\":22150:22153   */\n      dup4\n        /* \"#utility.yul\":22091:22158   */\n      tag_559\n      jump\t// in\n    tag_786:\n        /* \"#utility.yul\":22084:22158   */\n      swap2\n      pop\n        /* \"#utility.yul\":22167:22260   */\n      tag_787\n        /* \"#utility.yul\":22256:22259   */\n      dup3\n        /* \"#utility.yul\":22167:22260   */\n      tag_582\n      jump\t// in\n    tag_787:\n        /* \"#utility.yul\":22285:22287   */\n      0x40\n        /* \"#utility.yul\":22280:22283   */\n      dup3\n        /* \"#utility.yul\":22276:22288   */\n      add\n        /* \"#utility.yul\":22269:22288   */\n      swap1\n      pop\n        /* \"#utility.yul\":21928:22294   */\n      swap2\n      swap1\n      pop\n      jump\t// out\n        /* \"#utility.yul\":22300:22719   */\n    tag_281:\n        /* \"#utility.yul\":22466:22470   */\n      0x00\n        /* \"#utility.yul\":22504:22506   */\n      0x20\n        /* \"#utility.yul\":22493:22502   */\n      dup3\n        /* \"#utility.yul\":22489:22507   */\n      add\n        /* \"#utility.yul\":22481:22507   */\n      swap1\n      pop\n        /* \"#utility.yul\":22553:22562   */\n      dup2\n        /* \"#utility.yul\":22547:22551   */\n      dup2\n        /* \"#utility.yul\":22543:22563   */\n      sub\n        /* \"#utility.yul\":22539:22540   */\n      0x00\n        /* \"#utility.yul\":22528:22537   */\n      dup4\n        /* \"#utility.yul\":22524:22541   */\n      add\n        /* \"#utility.yul\":22517:22564   */\n      mstore\n        /* \"#utility.yul\":22581:22712   */\n      tag_789\n        /* \"#utility.yul\":22707:22711   */\n      dup2\n        /* \"#utility.yul\":22581:22712   */\n      tag_583\n      jump\t// in\n    tag_789:\n        /* \"#utility.yul\":22573:22712   */\n      swap1\n      pop\n        /* \"#utility.yul\":22300:22719   */\n      swap2\n      swap1\n      pop\n      jump\t// out\n        /* \"#utility.yul\":22725:22905   */\n    tag_375:\n        /* \"#utility.yul\":22773:22850   */\n      0x4e487b7100000000000000000000000000000000000000000000000000000000\n        /* \"#utility.yul\":22770:22771   */\n      0x00\n        /* \"#utility.yul\":22763:22851   */\n      mstore\n        /* \"#utility.yul\":22870:22874   */\n      0x41\n        /* \"#utility.yul\":22867:22868   */\n      0x04\n        /* \"#utility.yul\":22860:22875   */\n      mstore\n        /* \"#utility.yul\":22894:22898   */\n      0x24\n        /* \"#utility.yul\":22891:22892   */\n      0x00\n        /* \"#utility.yul\":22884:22899   */\n      revert\n        /* \"#utility.yul\":22911:23091   */\n    tag_388:\n        /* \"#utility.yul\":22959:23036   */\n      0x4e487b7100000000000000000000000000000000000000000000000000000000\n        /* \"#utility.yul\":22956:22957   */\n      0x00\n        /* \"#utility.yul\":22949:23037   */\n      mstore\n        /* \"#utility.yul\":23056:23060   */\n      0x32\n        /* \"#utility.yul\":23053:23054   */\n      0x04\n        /* \"#utility.yul\":23046:23061   */\n      mstore\n        /* \"#utility.yul\":23080:23084   */\n      0x24\n        /* \"#utility.yul\":23077:23078   */\n      0x00\n        /* \"#utility.yul\":23070:23085   */\n      revert\n        /* \"#utility.yul\":23097:23277   */\n    tag_584:\n        /* \"#utility.yul\":23145:23222   */\n      0x4e487b7100000000000000000000000000000000000000000000000000000000\n        /* \"#utility.yul\":23142:23143   */\n      0x00\n        /* \"#utility.yul\":23135:23223   */\n      mstore\n        /* \"#utility.yul\":23242:23246   */\n      0x11\n        /* \"#utility.yul\":23239:23240   */\n      0x04\n        /* \"#utility.yul\":23232:23247   */\n      mstore\n        /* \"#utility.yul\":23266:23270   */\n      0x24\n        /* \"#utility.yul\":23263:23264   */\n      0x00\n        /* \"#utility.yul\":23256:23271   */\n      revert\n        /* \"#utility.yul\":23283:23516   */\n    tag_403:\n        /* \"#utility.yul\":23322:23325   */\n      0x00\n        /* \"#utility.yul\":23345:23369   */\n      tag_794\n        /* \"#utility.yul\":23363:23368   */\n      dup3\n        /* \"#utility.yul\":23345:23369   */\n      tag_530\n      jump\t// in\n    tag_794:\n        /* \"#utility.yul\":23336:23369   */\n      swap2\n      pop\n        /* \"#utility.yul\":23391:23457   */\n      0xffffffffffffffffffffffffffffffffffffffffffffffffffffffffffffffff\n        /* \"#utility.yul\":23384:23389   */\n      dup3\n        /* \"#utility.yul\":23381:23458   */\n      sub\n        /* \"#utility.yul\":23378:23481   */\n      tag_795\n      jumpi\n        /* \"#utility.yul\":23461:23479   */\n      tag_796\n      tag_584\n      jump\t// in\n    tag_796:\n        /* \"#utility.yul\":23378:23481   */\n    tag_795:\n        /* \"#utility.yul\":23508:23509   */\n      0x01\n        /* \"#utility.yul\":23501:23506   */\n      dup3\n        /* \"#utility.yul\":23497:23510   */\n      add\n        /* \"#utility.yul\":23490:23510   */\n      swap1\n      pop\n        /* \"#utility.yul\":23283:23516   */\n      swap2\n      swap1\n      pop\n      jump\t// out\n        /* \"#utility.yul\":23522:23747   */\n    tag_585:\n        /* \"#utility.yul\":23662:23696   */\n      0x4f776e61626c653a206e6577206f776e657220697320746865207a65726f2061\n        /* \"#utility.yul\":23658:23659   */\n      0x00\n        /* \"#utility.yul\":23650:23656   */\n      dup3\n        /* \"#utility.yul\":23646:23660   */\n      add\n        /* \"#utility.yul\":23639:23697   */\n      mstore\n        /* \"#utility.yul\":23731:23739   */\n      0x6464726573730000000000000000000000000000000000000000000000000000\n        /* \"#utility.yul\":23726:23728   */\n      0x20\n        /* \"#utility.yul\":23718:23724   */\n      dup3\n        /* \"#utility.yul\":23714:23729   */\n      add\n        /* \"#utility.yul\":23707:23740   */\n      mstore\n        /* \"#utility.yul\":23522:23747   */\n      pop\n      jump\t// out\n        /* \"#utility.yul\":23753:24119   */\n    tag_586:\n        /* \"#utility.yul\":23895:23898   */\n      0x00\n        /* \"#utility.yul\":23916:23983   */\n      tag_799\n        /* \"#utility.yul\":23980:23982   */\n      0x26\n        /* \"#utility.yul\":23975:23978   */\n      dup4\n        /* \"#utility.yul\":23916:23983   */\n      tag_559\n      jump\t// in\n    tag_799:\n        /* \"#utility.yul\":23909:23983   */\n      swap2\n      pop\n        /* \"#utility.yul\":23992:24085   */\n      tag_800\n        /* \"#utility.yul\":24081:24084   */\n      dup3\n        /* \"#utility.yul\":23992:24085   */\n      tag_585\n      jump\t// in\n    tag_800:\n        /* \"#utility.yul\":24110:24112   */\n      0x40\n        /* \"#utility.yul\":24105:24108   */\n      dup3\n        /* \"#utility.yul\":24101:24113   */\n      add\n        /* \"#utility.yul\":24094:24113   */\n      swap1\n      pop\n        /* \"#utility.yul\":23753:24119   */\n      swap2\n      swap1\n      pop\n      jump\t// out\n        /* \"#utility.yul\":24125:24544   */\n    tag_412:\n        /* \"#utility.yul\":24291:24295   */\n      0x00\n        /* \"#utility.yul\":24329:24331   */\n      0x20\n        /* \"#utility.yul\":24318:24327   */\n      dup3\n        /* \"#utility.yul\":24314:24332   */\n      add\n        /* \"#utility.yul\":24306:24332   */\n      swap1\n      pop\n        /* \"#utility.yul\":24378:24387   */\n      dup2\n        /* \"#utility.yul\":24372:24376   */\n      dup2\n        /* \"#utility.yul\":24368:24388   */\n      sub\n        /* \"#utility.yul\":24364:24365   */\n      0x00\n        /* \"#utility.yul\":24353:24362   */\n      dup4\n        /* \"#utility.yul\":24349:24366   */\n      add\n        /* \"#utility.yul\":24342:24389   */\n      mstore\n        /* \"#utility.yul\":24406:24537   */\n      tag_802\n        /* \"#utility.yul\":24532:24536   */\n      dup2\n        /* \"#utility.yul\":24406:24537   */\n      tag_586\n      jump\t// in\n    tag_802:\n        /* \"#utility.yul\":24398:24537   */\n      swap1\n      pop\n        /* \"#utility.yul\":24125:24544   */\n      swap2\n      swap1\n      pop\n      jump\t// out\n        /* \"#utility.yul\":24550:24771   */\n    tag_587:\n        /* \"#utility.yul\":24690:24724   */\n      0x537943726f774261727465723a20494e53554646494349454e545f42414c414e\n        /* \"#utility.yul\":24686:24687   */\n      0x00\n        /* \"#utility.yul\":24678:24684   */\n      dup3\n        /* \"#utility.yul\":24674:24688   */\n      add\n        /* \"#utility.yul\":24667:24725   */\n      mstore\n        /* \"#utility.yul\":24759:24763   */\n      0x4345000000000000000000000000000000000000000000000000000000000000\n        /* \"#utility.yul\":24754:24756   */\n      0x20\n        /* \"#utility.yul\":24746:24752   */\n      dup3\n        /* \"#utility.yul\":24742:24757   */\n      add\n        /* \"#utility.yul\":24735:24764   */\n      mstore\n        /* \"#utility.yul\":24550:24771   */\n      pop\n      jump\t// out\n        /* \"#utility.yul\":24777:25143   */\n    tag_588:\n        /* \"#utility.yul\":24919:24922   */\n      0x00\n        /* \"#utility.yul\":24940:25007   */\n      tag_805\n        /* \"#utility.yul\":25004:25006   */\n      0x22\n        /* \"#utility.yul\":24999:25002   */\n      dup4\n        /* \"#utility.yul\":24940:25007   */\n      tag_559\n      jump\t// in\n    tag_805:\n        /* \"#utility.yul\":24933:25007   */\n      swap2\n      pop\n        /* \"#utility.yul\":25016:25109   */\n      tag_806\n        /* \"#utility.yul\":25105:25108   */\n      dup3\n        /* \"#utility.yul\":25016:25109   */\n      tag_587\n      jump\t// in\n    tag_806:\n        /* \"#utility.yul\":25134:25136   */\n      0x40\n        /* \"#utility.yul\":25129:25132   */\n      dup3\n        /* \"#utility.yul\":25125:25137   */\n      add\n        /* \"#utility.yul\":25118:25137   */\n      swap1\n      pop\n        /* \"#utility.yul\":24777:25143   */\n      swap2\n      swap1\n      pop\n      jump\t// out\n        /* \"#utility.yul\":25149:25568   */\n    tag_421:\n        /* \"#utility.yul\":25315:25319   */\n      0x00\n        /* \"#utility.yul\":25353:25355   */\n      0x20\n        /* \"#utility.yul\":25342:25351   */\n      dup3\n        /* \"#utility.yul\":25338:25356   */\n      add\n        /* \"#utility.yul\":25330:25356   */\n      swap1\n      pop\n        /* \"#utility.yul\":25402:25411   */\n      dup2\n        /* \"#utility.yul\":25396:25400   */\n      dup2\n        /* \"#utility.yul\":25392:25412   */\n      sub\n        /* \"#utility.yul\":25388:25389   */\n      0x00\n        /* \"#utility.yul\":25377:25386   */\n      dup4\n        /* \"#utility.yul\":25373:25390   */\n      add\n        /* \"#utility.yul\":25366:25413   */\n      mstore\n        /* \"#utility.yul\":25430:25561   */\n      tag_808\n        /* \"#utility.yul\":25556:25560   */\n      dup2\n        /* \"#utility.yul\":25430:25561   */\n      tag_588\n      jump\t// in\n    tag_808:\n        /* \"#utility.yul\":25422:25561   */\n      swap1\n      pop\n        /* \"#utility.yul\":25149:25568   */\n      swap2\n      swap1\n      pop\n      jump\t// out\n        /* \"#utility.yul\":25574:25804   */\n    tag_589:\n        /* \"#utility.yul\":25714:25748   */\n      0x537943726f774261727465723a20494e53554646494349454e545f434f4e5452\n        /* \"#utility.yul\":25710:25711   */\n      0x00\n        /* \"#utility.yul\":25702:25708   */\n      dup3\n        /* \"#utility.yul\":25698:25712   */\n      add\n        /* \"#utility.yul\":25691:25749   */\n      mstore\n        /* \"#utility.yul\":25783:25796   */\n      0x4143545f42414c414e4345000000000000000000000000000000000000000000\n        /* \"#utility.yul\":25778:25780   */\n      0x20\n        /* \"#utility.yul\":25770:25776   */\n      dup3\n        /* \"#utility.yul\":25766:25781   */\n      add\n        /* \"#utility.yul\":25759:25797   */\n      mstore\n        /* \"#utility.yul\":25574:25804   */\n      pop\n      jump\t// out\n        /* \"#utility.yul\":25810:26176   */\n    tag_590:\n        /* \"#utility.yul\":25952:25955   */\n      0x00\n        /* \"#utility.yul\":25973:26040   */\n      tag_811\n        /* \"#utility.yul\":26037:26039   */\n      0x2b\n        /* \"#utility.yul\":26032:26035   */\n      dup4\n        /* \"#utility.yul\":25973:26040   */\n      tag_559\n      jump\t// in\n    tag_811:\n        /* \"#utility.yul\":25966:26040   */\n      swap2\n      pop\n        /* \"#utility.yul\":26049:26142   */\n      tag_812\n        /* \"#utility.yul\":26138:26141   */\n      dup3\n        /* \"#utility.yul\":26049:26142   */\n      tag_589\n      jump\t// in\n    tag_812:\n        /* \"#utility.yul\":26167:26169   */\n      0x40\n        /* \"#utility.yul\":26162:26165   */\n      dup3\n        /* \"#utility.yul\":26158:26170   */\n      add\n        /* \"#utility.yul\":26151:26170   */\n      swap1\n      pop\n        /* \"#utility.yul\":25810:26176   */\n      swap2\n      swap1\n      pop\n      jump\t// out\n        /* \"#utility.yul\":26182:26601   */\n    tag_429:\n        /* \"#utility.yul\":26348:26352   */\n      0x00\n        /* \"#utility.yul\":26386:26388   */\n      0x20\n        /* \"#utility.yul\":26375:26384   */\n      dup3\n        /* \"#utility.yul\":26371:26389   */\n      add\n        /* \"#utility.yul\":26363:26389   */\n      swap1\n      pop\n        /* \"#utility.yul\":26435:26444   */\n      dup2\n        /* \"#utility.yul\":26429:26433   */\n      dup2\n        /* \"#utility.yul\":26425:26445   */\n      sub\n        /* \"#utility.yul\":26421:26422   */\n      0x00\n        /* \"#utility.yul\":26410:26419   */\n      dup4\n        /* \"#utility.yul\":26406:26423   */\n      add\n        /* \"#utility.yul\":26399:26446   */\n      mstore\n        /* \"#utility.yul\":26463:26594   */\n      tag_814\n        /* \"#utility.yul\":26589:26593   */\n      dup2\n        /* \"#utility.yul\":26463:26594   */\n      tag_590\n      jump\t// in\n    tag_814:\n        /* \"#utility.yul\":26455:26594   */\n      swap1\n      pop\n        /* \"#utility.yul\":26182:26601   */\n      swap2\n      swap1\n      pop\n      jump\t// out\n        /* \"#utility.yul\":26607:26705   */\n    tag_591:\n        /* \"#utility.yul\":26658:26664   */\n      0x00\n        /* \"#utility.yul\":26692:26697   */\n      dup2\n        /* \"#utility.yul\":26686:26698   */\n      mload\n        /* \"#utility.yul\":26676:26698   */\n      swap1\n      pop\n        /* \"#utility.yul\":26607:26705   */\n      swap2\n      swap1\n      pop\n      jump\t// out\n        /* \"#utility.yul\":26711:26858   */\n    tag_592:\n        /* \"#utility.yul\":26812:26823   */\n      0x00\n        /* \"#utility.yul\":26849:26852   */\n      dup2\n        /* \"#utility.yul\":26834:26852   */\n      swap1\n      pop\n        /* \"#utility.yul\":26711:26858   */\n      swap3\n      swap2\n      pop\n      pop\n      jump\t// out\n        /* \"#utility.yul\":26864:27171   */\n    tag_593:\n        /* \"#utility.yul\":26932:26933   */\n      0x00\n        /* \"#utility.yul\":26942:27055   */\n    tag_818:\n        /* \"#utility.yul\":26956:26962   */\n      dup4\n        /* \"#utility.yul\":26953:26954   */\n      dup2\n        /* \"#utility.yul\":26950:26963   */\n      lt\n        /* \"#utility.yul\":26942:27055   */\n      iszero\n      tag_820\n      jumpi\n        /* \"#utility.yul\":27041:27042   */\n      dup1\n        /* \"#utility.yul\":27036:27039   */\n      dup3\n        /* \"#utility.yul\":27032:27043   */\n      add\n        /* \"#utility.yul\":27026:27044   */\n      mload\n        /* \"#utility.yul\":27022:27023   */\n      dup2\n        /* \"#utility.yul\":27017:27020   */\n      dup5\n        /* \"#utility.yul\":27013:27024   */\n      add\n        /* \"#utility.yul\":27006:27045   */\n      mstore\n        /* \"#utility.yul\":26978:26980   */\n      0x20\n        /* \"#utility.yul\":26975:26976   */\n      dup2\n        /* \"#utility.yul\":26971:26981   */\n      add\n        /* \"#utility.yul\":26966:26981   */\n      swap1\n      pop\n        /* \"#utility.yul\":26942:27055   */\n      jump(tag_818)\n    tag_820:\n        /* \"#utility.yul\":27073:27079   */\n      dup4\n        /* \"#utility.yul\":27070:27071   */\n      dup2\n        /* \"#utility.yul\":27067:27080   */\n      gt\n        /* \"#utility.yul\":27064:27165   */\n      iszero\n      tag_821\n      jumpi\n        /* \"#utility.yul\":27153:27154   */\n      0x00\n        /* \"#utility.yul\":27144:27150   */\n      dup5\n        /* \"#utility.yul\":27139:27142   */\n      dup5\n        /* \"#utility.yul\":27135:27151   */\n      add\n        /* \"#utility.yul\":27128:27155   */\n      mstore\n        /* \"#utility.yul\":27064:27165   */\n    tag_821:\n        /* \"#utility.yul\":26913:27171   */\n      pop\n        /* \"#utility.yul\":26864:27171   */\n      pop\n      pop\n      pop\n      jump\t// out\n        /* \"#utility.yul\":27177:27550   */\n    tag_594:\n        /* \"#utility.yul\":27281:27284   */\n      0x00\n        /* \"#utility.yul\":27309:27347   */\n      tag_823\n        /* \"#utility.yul\":27341:27346   */\n      dup3\n        /* \"#utility.yul\":27309:27347   */\n      tag_591\n      jump\t// in\n    tag_823:\n        /* \"#utility.yul\":27363:27451   */\n      tag_824\n        /* \"#utility.yul\":27444:27450   */\n      dup2\n        /* \"#utility.yul\":27439:27442   */\n      dup6\n        /* \"#utility.yul\":27363:27451   */\n      tag_592\n      jump\t// in\n    tag_824:\n        /* \"#utility.yul\":27356:27451   */\n      swap4\n      pop\n        /* \"#utility.yul\":27460:27512   */\n      tag_825\n        /* \"#utility.yul\":27505:27511   */\n      dup2\n        /* \"#utility.yul\":27500:27503   */\n      dup6\n        /* \"#utility.yul\":27493:27497   */\n      0x20\n        /* \"#utility.yul\":27486:27491   */\n      dup7\n        /* \"#utility.yul\":27482:27498   */\n      add\n        /* \"#utility.yul\":27460:27512   */\n      tag_593\n      jump\t// in\n    tag_825:\n        /* \"#utility.yul\":27537:27543   */\n      dup1\n        /* \"#utility.yul\":27532:27535   */\n      dup5\n        /* \"#utility.yul\":27528:27544   */\n      add\n        /* \"#utility.yul\":27521:27544   */\n      swap2\n      pop\n        /* \"#utility.yul\":27285:27550   */\n      pop\n        /* \"#utility.yul\":27177:27550   */\n      swap3\n      swap2\n      pop\n      pop\n      jump\t// out\n        /* \"#utility.yul\":27556:27827   */\n    tag_469:\n        /* \"#utility.yul\":27686:27689   */\n      0x00\n        /* \"#utility.yul\":27708:27801   */\n      tag_827\n        /* \"#utility.yul\":27797:27800   */\n      dup3\n        /* \"#utility.yul\":27788:27794   */\n      dup5\n        /* \"#utility.yul\":27708:27801   */\n      tag_594\n      jump\t// in\n    tag_827:\n        /* \"#utility.yul\":27701:27801   */\n      swap2\n      pop\n        /* \"#utility.yul\":27818:27821   */\n      dup2\n        /* \"#utility.yul\":27811:27821   */\n      swap1\n      pop\n        /* \"#utility.yul\":27556:27827   */\n      swap3\n      swap2\n      pop\n      pop\n      jump\t// out\n        /* \"#utility.yul\":27833:28055   */\n    tag_595:\n        /* \"#utility.yul\":27973:28007   */\n      0x5472616e7366657248656c7065723a204554485f5452414e534645525f464149\n        /* \"#utility.yul\":27969:27970   */\n      0x00\n        /* \"#utility.yul\":27961:27967   */\n      dup3\n        /* \"#utility.yul\":27957:27971   */\n      add\n        /* \"#utility.yul\":27950:28008   */\n      mstore\n        /* \"#utility.yul\":28042:28047   */\n      0x4c45440000000000000000000000000000000000000000000000000000000000\n        /* \"#utility.yul\":28037:28039   */\n      0x20\n        /* \"#utility.yul\":28029:28035   */\n      dup3\n        /* \"#utility.yul\":28025:28040   */\n      add\n        /* \"#utility.yul\":28018:28048   */\n      mstore\n        /* \"#utility.yul\":27833:28055   */\n      pop\n      jump\t// out\n        /* \"#utility.yul\":28061:28427   */\n    tag_596:\n        /* \"#utility.yul\":28203:28206   */\n      0x00\n        /* \"#utility.yul\":28224:28291   */\n      tag_830\n        /* \"#utility.yul\":28288:28290   */\n      0x23\n        /* \"#utility.yul\":28283:28286   */\n      dup4\n        /* \"#utility.yul\":28224:28291   */\n      tag_559\n      jump\t// in\n    tag_830:\n        /* \"#utility.yul\":28217:28291   */\n      swap2\n      pop\n        /* \"#utility.yul\":28300:28393   */\n      tag_831\n        /* \"#utility.yul\":28389:28392   */\n      dup3\n        /* \"#utility.yul\":28300:28393   */\n      tag_595\n      jump\t// in\n    tag_831:\n        /* \"#utility.yul\":28418:28420   */\n      0x40\n        /* \"#utility.yul\":28413:28416   */\n      dup3\n        /* \"#utility.yul\":28409:28421   */\n      add\n        /* \"#utility.yul\":28402:28421   */\n      swap1\n      pop\n        /* \"#utility.yul\":28061:28427   */\n      swap2\n      swap1\n      pop\n      jump\t// out\n        /* \"#utility.yul\":28433:28852   */\n    tag_475:\n        /* \"#utility.yul\":28599:28603   */\n      0x00\n        /* \"#utility.yul\":28637:28639   */\n      0x20\n        /* \"#utility.yul\":28626:28635   */\n      dup3\n        /* \"#utility.yul\":28622:28640   */\n      add\n        /* \"#utility.yul\":28614:28640   */\n      swap1\n      pop\n        /* \"#utility.yul\":28686:28695   */\n      dup2\n        /* \"#utility.yul\":28680:28684   */\n      dup2\n        /* \"#utility.yul\":28676:28696   */\n      sub\n        /* \"#utility.yul\":28672:28673   */\n      0x00\n        /* \"#utility.yul\":28661:28670   */\n      dup4\n        /* \"#utility.yul\":28657:28674   */\n      add\n        /* \"#utility.yul\":28650:28697   */\n      mstore\n        /* \"#utility.yul\":28714:28845   */\n      tag_833\n        /* \"#utility.yul\":28840:28844   */\n      dup2\n        /* \"#utility.yul\":28714:28845   */\n      tag_596\n      jump\t// in\n    tag_833:\n        /* \"#utility.yul\":28706:28845   */\n      swap1\n      pop\n        /* \"#utility.yul\":28433:28852   */\n      swap2\n      swap1\n      pop\n      jump\t// out\n        /* \"#utility.yul\":28858:29190   */\n    tag_478:\n        /* \"#utility.yul\":28979:28983   */\n      0x00\n        /* \"#utility.yul\":29017:29019   */\n      0x40\n        /* \"#utility.yul\":29006:29015   */\n      dup3\n        /* \"#utility.yul\":29002:29020   */\n      add\n        /* \"#utility.yul\":28994:29020   */\n      swap1\n      pop\n        /* \"#utility.yul\":29030:29101   */\n      tag_835\n        /* \"#utility.yul\":29098:29099   */\n      0x00\n        /* \"#utility.yul\":29087:29096   */\n      dup4\n        /* \"#utility.yul\":29083:29100   */\n      add\n        /* \"#utility.yul\":29074:29080   */\n      dup6\n        /* \"#utility.yul\":29030:29101   */\n      tag_544\n      jump\t// in\n    tag_835:\n        /* \"#utility.yul\":29111:29183   */\n      tag_836\n        /* \"#utility.yul\":29179:29181   */\n      0x20\n        /* \"#utility.yul\":29168:29177   */\n      dup4\n        /* \"#utility.yul\":29164:29182   */\n      add\n        /* \"#utility.yul\":29155:29161   */\n      dup5\n        /* \"#utility.yul\":29111:29183   */\n      tag_535\n      jump\t// in\n    tag_836:\n        /* \"#utility.yul\":28858:29190   */\n      swap4\n      swap3\n      pop\n      pop\n      pop\n      jump\t// out\n        /* \"#utility.yul\":29196:29377   */\n    tag_597:\n        /* \"#utility.yul\":29336:29369   */\n      0x5472616e7366657248656c7065723a205452414e534645525f4641494c454400\n        /* \"#utility.yul\":29332:29333   */\n      0x00\n        /* \"#utility.yul\":29324:29330   */\n      dup3\n        /* \"#utility.yul\":29320:29334   */\n      add\n        /* \"#utility.yul\":29313:29370   */\n      mstore\n        /* \"#utility.yul\":29196:29377   */\n      pop\n      jump\t// out\n        /* \"#utility.yul\":29383:29749   */\n    tag_598:\n        /* \"#utility.yul\":29525:29528   */\n      0x00\n        /* \"#utility.yul\":29546:29613   */\n      tag_839\n        /* \"#utility.yul\":29610:29612   */\n      0x1f\n        /* \"#utility.yul\":29605:29608   */\n      dup4\n        /* \"#utility.yul\":29546:29613   */\n      tag_559\n      jump\t// in\n    tag_839:\n        /* \"#utility.yul\":29539:29613   */\n      swap2\n      pop\n        /* \"#utility.yul\":29622:29715   */\n      tag_840\n        /* \"#utility.yul\":29711:29714   */\n      dup3\n        /* \"#utility.yul\":29622:29715   */\n      tag_597\n      jump\t// in\n    tag_840:\n        /* \"#utility.yul\":29740:29742   */\n      0x20\n        /* \"#utility.yul\":29735:29738   */\n      dup3\n        /* \"#utility.yul\":29731:29743   */\n      add\n        /* \"#utility.yul\":29724:29743   */\n      swap1\n      pop\n        /* \"#utility.yul\":29383:29749   */\n      swap2\n      swap1\n      pop\n      jump\t// out\n        /* \"#utility.yul\":29755:30174   */\n    tag_488:\n        /* \"#utility.yul\":29921:29925   */\n      0x00\n        /* \"#utility.yul\":29959:29961   */\n      0x20\n        /* \"#utility.yul\":29948:29957   */\n      dup3\n        /* \"#utility.yul\":29944:29962   */\n      add\n        /* \"#utility.yul\":29936:29962   */\n      swap1\n      pop\n        /* \"#utility.yul\":30008:30017   */\n      dup2\n        /* \"#utility.yul\":30002:30006   */\n      dup2\n        /* \"#utility.yul\":29998:30018   */\n      sub\n        /* \"#utility.yul\":29994:29995   */\n      0x00\n        /* \"#utility.yul\":29983:29992   */\n      dup4\n        /* \"#utility.yul\":29979:29996   */\n      add\n        /* \"#utility.yul\":29972:30019   */\n      mstore\n        /* \"#utility.yul\":30036:30167   */\n      tag_842\n        /* \"#utility.yul\":30162:30166   */\n      dup2\n        /* \"#utility.yul\":30036:30167   */\n      tag_598\n      jump\t// in\n    tag_842:\n        /* \"#utility.yul\":30028:30167   */\n      swap1\n      pop\n        /* \"#utility.yul\":29755:30174   */\n      swap2\n      swap1\n      pop\n      jump\t// out\n        /* \"#utility.yul\":30180:30528   */\n    tag_511:\n        /* \"#utility.yul\":30220:30227   */\n      0x00\n        /* \"#utility.yul\":30243:30263   */\n      tag_844\n        /* \"#utility.yul\":30261:30262   */\n      dup3\n        /* \"#utility.yul\":30243:30263   */\n      tag_530\n      jump\t// in\n    tag_844:\n        /* \"#utility.yul\":30238:30263   */\n      swap2\n      pop\n        /* \"#utility.yul\":30277:30297   */\n      tag_845\n        /* \"#utility.yul\":30295:30296   */\n      dup4\n        /* \"#utility.yul\":30277:30297   */\n      tag_530\n      jump\t// in\n    tag_845:\n        /* \"#utility.yul\":30272:30297   */\n      swap3\n      pop\n        /* \"#utility.yul\":30465:30466   */\n      dup2\n        /* \"#utility.yul\":30397:30463   */\n      0xffffffffffffffffffffffffffffffffffffffffffffffffffffffffffffffff\n        /* \"#utility.yul\":30393:30467   */\n      div\n        /* \"#utility.yul\":30390:30391   */\n      dup4\n        /* \"#utility.yul\":30387:30468   */\n      gt\n        /* \"#utility.yul\":30382:30383   */\n      dup3\n        /* \"#utility.yul\":30375:30384   */\n      iszero\n        /* \"#utility.yul\":30368:30385   */\n      iszero\n        /* \"#utility.yul\":30364:30469   */\n      and\n        /* \"#utility.yul\":30361:30492   */\n      iszero\n      tag_846\n      jumpi\n        /* \"#utility.yul\":30472:30490   */\n      tag_847\n      tag_584\n      jump\t// in\n    tag_847:\n        /* \"#utility.yul\":30361:30492   */\n    tag_846:\n        /* \"#utility.yul\":30520:30521   */\n      dup3\n        /* \"#utility.yul\":30517:30518   */\n      dup3\n        /* \"#utility.yul\":30513:30522   */\n      mul\n        /* \"#utility.yul\":30502:30522   */\n      swap1\n      pop\n        /* \"#utility.yul\":30180:30528   */\n      swap3\n      swap2\n      pop\n      pop\n      jump\t// out\n        /* \"#utility.yul\":30534:30714   */\n    tag_599:\n        /* \"#utility.yul\":30582:30659   */\n      0x4e487b7100000000000000000000000000000000000000000000000000000000\n        /* \"#utility.yul\":30579:30580   */\n      0x00\n        /* \"#utility.yul\":30572:30660   */\n      mstore\n        /* \"#utility.yul\":30679:30683   */\n      0x12\n        /* \"#utility.yul\":30676:30677   */\n      0x04\n        /* \"#utility.yul\":30669:30684   */\n      mstore\n        /* \"#utility.yul\":30703:30707   */\n      0x24\n        /* \"#utility.yul\":30700:30701   */\n      0x00\n        /* \"#utility.yul\":30693:30708   */\n      revert\n        /* \"#utility.yul\":30720:30905   */\n    tag_513:\n        /* \"#utility.yul\":30760:30761   */\n      0x00\n        /* \"#utility.yul\":30777:30797   */\n      tag_850\n        /* \"#utility.yul\":30795:30796   */\n      dup3\n        /* \"#utility.yul\":30777:30797   */\n      tag_530\n      jump\t// in\n    tag_850:\n        /* \"#utility.yul\":30772:30797   */\n      swap2\n      pop\n        /* \"#utility.yul\":30811:30831   */\n      tag_851\n        /* \"#utility.yul\":30829:30830   */\n      dup4\n        /* \"#utility.yul\":30811:30831   */\n      tag_530\n      jump\t// in\n    tag_851:\n        /* \"#utility.yul\":30806:30831   */\n      swap3\n      pop\n        /* \"#utility.yul\":30850:30851   */\n      dup3\n        /* \"#utility.yul\":30840:30875   */\n      tag_852\n      jumpi\n        /* \"#utility.yul\":30855:30873   */\n      tag_853\n      tag_599\n      jump\t// in\n    tag_853:\n        /* \"#utility.yul\":30840:30875   */\n    tag_852:\n        /* \"#utility.yul\":30897:30898   */\n      dup3\n        /* \"#utility.yul\":30894:30895   */\n      dup3\n        /* \"#utility.yul\":30890:30899   */\n      div\n        /* \"#utility.yul\":30885:30899   */\n      swap1\n      pop\n        /* \"#utility.yul\":30720:30905   */\n      swap3\n      swap2\n      pop\n      pop\n      jump\t// out\n        /* \"#utility.yul\":30911:31353   */\n    tag_516:\n        /* \"#utility.yul\":31060:31064   */\n      0x00\n        /* \"#utility.yul\":31098:31100   */\n      0x60\n        /* \"#utility.yul\":31087:31096   */\n      dup3\n        /* \"#utility.yul\":31083:31101   */\n      add\n        /* \"#utility.yul\":31075:31101   */\n      swap1\n      pop\n        /* \"#utility.yul\":31111:31182   */\n      tag_855\n        /* \"#utility.yul\":31179:31180   */\n      0x00\n        /* \"#utility.yul\":31168:31177   */\n      dup4\n        /* \"#utility.yul\":31164:31181   */\n      add\n        /* \"#utility.yul\":31155:31161   */\n      dup7\n        /* \"#utility.yul\":31111:31182   */\n      tag_544\n      jump\t// in\n    tag_855:\n        /* \"#utility.yul\":31192:31264   */\n      tag_856\n        /* \"#utility.yul\":31260:31262   */\n      0x20\n        /* \"#utility.yul\":31249:31258   */\n      dup4\n        /* \"#utility.yul\":31245:31263   */\n      add\n        /* \"#utility.yul\":31236:31242   */\n      dup6\n        /* \"#utility.yul\":31192:31264   */\n      tag_544\n      jump\t// in\n    tag_856:\n        /* \"#utility.yul\":31274:31346   */\n      tag_857\n        /* \"#utility.yul\":31342:31344   */\n      0x40\n        /* \"#utility.yul\":31331:31340   */\n      dup4\n        /* \"#utility.yul\":31327:31345   */\n      add\n        /* \"#utility.yul\":31318:31324   */\n      dup5\n        /* \"#utility.yul\":31274:31346   */\n      tag_535\n      jump\t// in\n    tag_857:\n        /* \"#utility.yul\":30911:31353   */\n      swap5\n      swap4\n      pop\n      pop\n      pop\n      pop\n      jump\t// out\n        /* \"#utility.yul\":31359:31582   */\n    tag_600:\n        /* \"#utility.yul\":31499:31533   */\n      0x5472616e7366657248656c7065723a205452414e534645525f46524f4d5f4641\n        /* \"#utility.yul\":31495:31496   */\n      0x00\n        /* \"#utility.yul\":31487:31493   */\n      dup3\n        /* \"#utility.yul\":31483:31497   */\n      add\n        /* \"#utility.yul\":31476:31534   */\n      mstore\n        /* \"#utility.yul\":31568:31574   */\n      0x494c454400000000000000000000000000000000000000000000000000000000\n        /* \"#utility.yul\":31563:31565   */\n      0x20\n        /* \"#utility.yul\":31555:31561   */\n      dup3\n        /* \"#utility.yul\":31551:31566   */\n      add\n        /* \"#utility.yul\":31544:31575   */\n      mstore\n        /* \"#utility.yul\":31359:31582   */\n      pop\n      jump\t// out\n        /* \"#utility.yul\":31588:31954   */\n    tag_601:\n        /* \"#utility.yul\":31730:31733   */\n      0x00\n        /* \"#utility.yul\":31751:31818   */\n      tag_860\n        /* \"#utility.yul\":31815:31817   */\n      0x24\n        /* \"#utility.yul\":31810:31813   */\n      dup4\n        /* \"#utility.yul\":31751:31818   */\n      tag_559\n      jump\t// in\n    tag_860:\n        /* \"#utility.yul\":31744:31818   */\n      swap2\n      pop\n        /* \"#utility.yul\":31827:31920   */\n      tag_861\n        /* \"#utility.yul\":31916:31919   */\n      dup3\n        /* \"#utility.yul\":31827:31920   */\n      tag_600\n      jump\t// in\n    tag_861:\n        /* \"#utility.yul\":31945:31947   */\n      0x40\n        /* \"#utility.yul\":31940:31943   */\n      dup3\n        /* \"#utility.yul\":31936:31948   */\n      add\n        /* \"#utility.yul\":31929:31948   */\n      swap1\n      pop\n        /* \"#utility.yul\":31588:31954   */\n      swap2\n      swap1\n      pop\n      jump\t// out\n        /* \"#utility.yul\":31960:32379   */\n    tag_526:\n        /* \"#utility.yul\":32126:32130   */\n      0x00\n        /* \"#utility.yul\":32164:32166   */\n      0x20\n        /* \"#utility.yul\":32153:32162   */\n      dup3\n        /* \"#utility.yul\":32149:32167   */\n      add\n        /* \"#utility.yul\":32141:32167   */\n      swap1\n      pop\n        /* \"#utility.yul\":32213:32222   */\n      dup2\n        /* \"#utility.yul\":32207:32211   */\n      dup2\n        /* \"#utility.yul\":32203:32223   */\n      sub\n        /* \"#utility.yul\":32199:32200   */\n      0x00\n        /* \"#utility.yul\":32188:32197   */\n      dup4\n        /* \"#utility.yul\":32184:32201   */\n      add\n        /* \"#utility.yul\":32177:32224   */\n      mstore\n        /* \"#utility.yul\":32241:32372   */\n      tag_863\n        /* \"#utility.yul\":32367:32371   */\n      dup2\n        /* \"#utility.yul\":32241:32372   */\n      tag_601\n      jump\t// in\n    tag_863:\n        /* \"#utility.yul\":32233:32372   */\n      swap1\n      pop\n        /* \"#utility.yul\":31960:32379   */\n      swap2\n      swap1\n      pop\n      jump\t// out\n\n    auxdata: 0xa26469706673582212206139be32568ec9108b7f5655a9f070fb84783638c2115609c9d89a016a699a4664736f6c634300080d0033\n}\n",
				"bytecode": {
					"linkReferences": {},
					"object": "60a06040526000600460006101000a81548160ff0219169083151502179055503480156200002c57600080fd5b506200004d620000416200008760201b60201c565b6200008f60201b60201c565b3373ffffffffffffffffffffffffffffffffffffffff1660808173ffffffffffffffffffffffffffffffffffffffff168152505062000153565b600033905090565b60008060009054906101000a900473ffffffffffffffffffffffffffffffffffffffff169050816000806101000a81548173ffffffffffffffffffffffffffffffffffffffff021916908373ffffffffffffffffffffffffffffffffffffffff1602179055508173ffffffffffffffffffffffffffffffffffffffff168173ffffffffffffffffffffffffffffffffffffffff167f8be0079c531659141344cd1fd0a4f28419497f9722a3daafe3b4186f6b6457e060405160405180910390a35050565b60805161418b620001bc6000396000818161045b015281816106a601528181610d0901528181610ebb015281816113070152818161178e01528181611a2b01528181611b8301528181611c4c015281816124e60152818161285f0152612dce015261418b6000f3fe6080604052600436106101095760003560e01c80638da5cb5b11610095578063c45a015511610064578063c45a0155146102ec578063d7bdfc7514610317578063dab5a8df14610321578063e43372e91461035e578063f2fde38b1461038b57610109565b80638da5cb5b14610267578063a09702b114610292578063aa6ca808146102a9578063abd050ea146102d557610109565b80633d370b4e116100dc5780633d370b4e146101a25780634341f920146101ce57806351cff8d9146101ea5780635f5780e514610213578063715018a61461025057610109565b80630d1826051461010e5780632ffc6887146101375780633072cf60146101605780633ccfd60b1461018b575b600080fd5b34801561011a57600080fd5b50610135600480360381019061013091906130c1565b6103b4565b005b34801561014357600080fd5b5061015e600480360381019061015991906130c1565b6105ff565b005b34801561016c57600080fd5b5061017561084a565b6040516101829190613109565b60405180910390f35b34801561019757600080fd5b506101a061085d565b005b3480156101ae57600080fd5b506101b7610db4565b6040516101c5929190613133565b60405180910390f35b6101e860048036038101906101e391906130c1565b610e14565b005b3480156101f657600080fd5b50610211600480360381019061020c91906131ba565b61105f565b005b34801561021f57600080fd5b5061023a60048036038101906102359190613238565b611303565b6040516102479190613109565b60405180910390f35b34801561025c57600080fd5b50610265611636565b005b34801561027357600080fd5b5061027c6116be565b60405161028991906132fd565b60405180910390f35b34801561029e57600080fd5b506102a76116e7565b005b3480156102b557600080fd5b506102be6118e4565b6040516102cc929190613318565b60405180910390f35b3480156102e157600080fd5b506102ea611984565b005b3480156102f857600080fd5b50610301611b81565b60405161030e91906132fd565b60405180910390f35b61031f611ba5565b005b34801561032d57600080fd5b50610348600480360381019061034391906130c1565b611da2565b6040516103559190613341565b60405180910390f35b34801561036a57600080fd5b50610373611e03565b604051610382939291906134d8565b60405180910390f35b34801561039757600080fd5b506103b260048036038101906103ad91906131ba565b61209f565b005b42600354101580156103c95750600754600154105b610408576040517f08c379a00000000000000000000000000000000000000000000000000000000081526004016103ff90613581565b60405180910390fd5b600460009054906101000a900460ff16610457576040517f08c379a000000000000000000000000000000000000000000000000000000000815260040161044e906135ed565b60405180910390fd5b60007f000000000000000000000000000000000000000000000000000000000000000090508073ffffffffffffffffffffffffffffffffffffffff1663b187bd266040518163ffffffff1660e01b8152600401602060405180830381865afa1580156104c7573d6000803e3d6000fd5b505050506040513d601f19601f820116820180604052508101906104eb9190613622565b1561052b576040517f08c379a0000000000000000000000000000000000000000000000000000000008152600401610522906136c1565b60405180910390fd5b600860009054906101000a900460ff1661057a576040517f08c379a000000000000000000000000000000000000000000000000000000000815260040161057190613753565b60405180910390fd5b6000600860019054906101000a900460ff16600281111561059e5761059d613773565b5b8160028111156105b1576105b0613773565b5b146105f1576040517f08c379a00000000000000000000000000000000000000000000000000000000081526004016105e890613814565b60405180910390fd5b6105fa83612196565b505050565b42600354101580156106145750600754600154105b610653576040517f08c379a000000000000000000000000000000000000000000000000000000000815260040161064a90613581565b60405180910390fd5b600460009054906101000a900460ff166106a2576040517f08c379a0000000000000000000000000000000000000000000000000000000008152600401610699906135ed565b60405180910390fd5b60007f000000000000000000000000000000000000000000000000000000000000000090508073ffffffffffffffffffffffffffffffffffffffff1663b187bd266040518163ffffffff1660e01b8152600401602060405180830381865afa158015610712573d6000803e3d6000fd5b505050506040513d601f19601f820116820180604052508101906107369190613622565b15610776576040517f08c379a000000000000000000000000000000000000000000000000000000000815260040161076d906136c1565b60405180910390fd5b600860009054906101000a900460ff166107c5576040517f08c379a00000000000000000000000000000000000000000000000000000000081526004016107bc90613753565b60405180910390fd5b6002600860019054906101000a900460ff1660028111156107e9576107e8613773565b5b8160028111156107fc576107fb613773565b5b1461083c576040517f08c379a000000000000000000000000000000000000000000000000000000000815260040161083390613814565b60405180910390fd5b6108458361257e565b505050565b600460009054906101000a900460ff1681565b426003541080610871575060075460015410155b6108b0576040517f08c379a00000000000000000000000000000000000000000000000000000000081526004016108a790613880565b60405180910390fd5b600460009054906101000a900460ff166108ff576040517f08c379a00000000000000000000000000000000000000000000000000000000081526004016108f6906135ed565b60405180910390fd5b6109076128f6565b73ffffffffffffffffffffffffffffffffffffffff166109256116be565b73ffffffffffffffffffffffffffffffffffffffff161461097b576040517f08c379a0000000000000000000000000000000000000000000000000000000008152600401610972906138ec565b60405180910390fd5b6000600260009054906101000a900473ffffffffffffffffffffffffffffffffffffffff16905060008173ffffffffffffffffffffffffffffffffffffffff166370a08231306040518263ffffffff1660e01b81526004016109dd91906132fd565b602060405180830381865afa1580156109fa573d6000803e3d6000fd5b505050506040513d601f19601f82011682018060405250810190610a1e9190613921565b90506000811115610ac157600260009054906101000a900473ffffffffffffffffffffffffffffffffffffffff1673ffffffffffffffffffffffffffffffffffffffff16632e1a7d4d826040518263ffffffff1660e01b8152600401610a849190613341565b600060405180830381600087803b158015610a9e57600080fd5b505af1158015610ab2573d6000803e3d6000fd5b50505050610ac033826128fe565b5b6000600560009054906101000a900473ffffffffffffffffffffffffffffffffffffffff1673ffffffffffffffffffffffffffffffffffffffff166370a08231306040518263ffffffff1660e01b8152600401610b1e91906132fd565b602060405180830381865afa158015610b3b573d6000803e3d6000fd5b505050506040513d601f19601f82011682018060405250810190610b5f9190613921565b90506000811115610b9857610b97600560009054906101000a900473ffffffffffffffffffffffffffffffffffffffff1633836129fe565b5b6000600460019054906101000a900473ffffffffffffffffffffffffffffffffffffffff1673ffffffffffffffffffffffffffffffffffffffff166370a08231306040518263ffffffff1660e01b8152600401610bf591906132fd565b602060405180830381865afa158015610c12573d6000803e3d6000fd5b505050506040513d601f19601f82011682018060405250810190610c369190613921565b90506000811115610c6f57610c6e600460019054906101000a900473ffffffffffffffffffffffffffffffffffffffff1633836129fe565b5b60008060006002811115610c8657610c85613773565b5b600860019054906101000a900460ff166002811115610ca857610ca7613773565b5b03610cb857849150839050610d05565b600280811115610ccb57610cca613773565b5b600860019054906101000a900460ff166002811115610ced57610cec613773565b5b03610cfd57829150839050610d04565b8291508490505b5b60007f000000000000000000000000000000000000000000000000000000000000000090508073ffffffffffffffffffffffffffffffffffffffff166333796a0e303386866040518563ffffffff1660e01b8152600401610d69949392919061394e565b600060405180830381600087803b158015610d8357600080fd5b505af1158015610d97573d6000803e3d6000fd5b505050503373ffffffffffffffffffffffffffffffffffffffff16ff5b600080600460009054906101000a900460ff16610e06576040517f08c379a0000000000000000000000000000000000000000000000000000000008152600401610dfd906135ed565b60405180910390fd5b600654600754915091509091565b4260035410158015610e295750600754600154105b610e68576040517f08c379a0000000000000000000000000000000000000000000000000000000008152600401610e5f90613581565b60405180910390fd5b600460009054906101000a900460ff16610eb7576040517f08c379a0000000000000000000000000000000000000000000000000000000008152600401610eae906135ed565b60405180910390fd5b60007f000000000000000000000000000000000000000000000000000000000000000090508073ffffffffffffffffffffffffffffffffffffffff1663b187bd266040518163ffffffff1660e01b8152600401602060405180830381865afa158015610f27573d6000803e3d6000fd5b505050506040513d601f19601f82011682018060405250810190610f4b9190613622565b15610f8b576040517f08c379a0000000000000000000000000000000000000000000000000000000008152600401610f82906136c1565b60405180910390fd5b600860009054906101000a900460ff16610fda576040517f08c379a0000000000000000000000000000000000000000000000000000000008152600401610fd190613753565b60405180910390fd5b6001600860019054906101000a900460ff166002811115610ffe57610ffd613773565b5b81600281111561101157611010613773565b5b14611051576040517f08c379a000000000000000000000000000000000000000000000000000000000815260040161104890613814565b60405180910390fd5b61105a83612b34565b505050565b6110676128f6565b73ffffffffffffffffffffffffffffffffffffffff166110856116be565b73ffffffffffffffffffffffffffffffffffffffff16146110db576040517f08c379a00000000000000000000000000000000000000000000000000000000081526004016110d2906138ec565b60405180910390fd5b600460009054906101000a900460ff1661112a576040517f08c379a0000000000000000000000000000000000000000000000000000000008152600401611121906135ed565b60405180910390fd5b600560009054906101000a900473ffffffffffffffffffffffffffffffffffffffff1673ffffffffffffffffffffffffffffffffffffffff168173ffffffffffffffffffffffffffffffffffffffff16036111ba576040517f08c379a00000000000000000000000000000000000000000000000000000000081526004016111b1906139df565b60405180910390fd5b600460019054906101000a900473ffffffffffffffffffffffffffffffffffffffff1673ffffffffffffffffffffffffffffffffffffffff168173ffffffffffffffffffffffffffffffffffffffff160361124a576040517f08c379a0000000000000000000000000000000000000000000000000000000008152600401611241906139df565b60405180910390fd5b60008173ffffffffffffffffffffffffffffffffffffffff166370a08231306040518263ffffffff1660e01b815260040161128591906132fd565b602060405180830381865afa1580156112a2573d6000803e3d6000fd5b505050506040513d601f19601f820116820180604052508101906112c69190613921565b905060008111156112ff576112fe600460019054906101000a900473ffffffffffffffffffffffffffffffffffffffff1633836129fe565b5b5050565b60007f000000000000000000000000000000000000000000000000000000000000000073ffffffffffffffffffffffffffffffffffffffff163373ffffffffffffffffffffffffffffffffffffffff1614611393576040517f08c379a000000000000000000000000000000000000000000000000000000000815260040161138a906139df565b60405180910390fd5b600460009054906101000a900460ff16156113e3576040517f08c379a00000000000000000000000000000000000000000000000000000000081526004016113da90613a71565b60405180910390fd5b428410611425576040517f08c379a000000000000000000000000000000000000000000000000000000000815260040161141c90613add565b60405180910390fd5b858873ffffffffffffffffffffffffffffffffffffffff166370a08231306040518263ffffffff1660e01b815260040161145f91906132fd565b602060405180830381865afa15801561147c573d6000803e3d6000fd5b505050506040513d601f19601f820116820180604052508101906114a09190613921565b10156114e1576040517f08c379a00000000000000000000000000000000000000000000000000000000081526004016114d890613b6f565b60405180910390fd5b8360038190555087600460016101000a81548173ffffffffffffffffffffffffffffffffffffffff021916908373ffffffffffffffffffffffffffffffffffffffff16021790555086600560006101000a81548173ffffffffffffffffffffffffffffffffffffffff021916908373ffffffffffffffffffffffffffffffffffffffff160217905550856006819055508460078190555088600860016101000a81548160ff0219169083600281111561159d5761159c613773565b5b021790555082600860006101000a81548160ff02191690831515021790555081600260006101000a81548173ffffffffffffffffffffffffffffffffffffffff021916908373ffffffffffffffffffffffffffffffffffffffff1602179055506001600460006101000a81548160ff021916908315150217905550600460009054906101000a900460ff16905098975050505050505050565b61163e6128f6565b73ffffffffffffffffffffffffffffffffffffffff1661165c6116be565b73ffffffffffffffffffffffffffffffffffffffff16146116b2576040517f08c379a00000000000000000000000000000000000000000000000000000000081526004016116a9906138ec565b60405180910390fd5b6116bc6000612e65565b565b60008060009054906101000a900473ffffffffffffffffffffffffffffffffffffffff16905090565b42600354101580156116fc5750600754600154105b61173b576040517f08c379a000000000000000000000000000000000000000000000000000000000815260040161173290613581565b60405180910390fd5b600460009054906101000a900460ff1661178a576040517f08c379a0000000000000000000000000000000000000000000000000000000008152600401611781906135ed565b60405180910390fd5b60007f000000000000000000000000000000000000000000000000000000000000000090508073ffffffffffffffffffffffffffffffffffffffff1663b187bd266040518163ffffffff1660e01b8152600401602060405180830381865afa1580156117fa573d6000803e3d6000fd5b505050506040513d601f19601f8201168201806040525081019061181e9190613622565b1561185e576040517f08c379a0000000000000000000000000000000000000000000000000000000008152600401611855906136c1565b60405180910390fd5b6000600860019054906101000a900460ff16600281111561188257611881613773565b5b81600281111561189557611894613773565b5b146118d5576040517f08c379a00000000000000000000000000000000000000000000000000000000081526004016118cc90613814565b60405180910390fd5b6118e0600754612196565b5050565b600080600460009054906101000a900460ff16611936576040517f08c379a000000000000000000000000000000000000000000000000000000000815260040161192d906135ed565b60405180910390fd5b600460019054906101000a900473ffffffffffffffffffffffffffffffffffffffff16600560009054906101000a900473ffffffffffffffffffffffffffffffffffffffff16915091509091565b42600354101580156119995750600754600154105b6119d8576040517f08c379a00000000000000000000000000000000000000000000000000000000081526004016119cf90613581565b60405180910390fd5b600460009054906101000a900460ff16611a27576040517f08c379a0000000000000000000000000000000000000000000000000000000008152600401611a1e906135ed565b60405180910390fd5b60007f000000000000000000000000000000000000000000000000000000000000000090508073ffffffffffffffffffffffffffffffffffffffff1663b187bd266040518163ffffffff1660e01b8152600401602060405180830381865afa158015611a97573d6000803e3d6000fd5b505050506040513d601f19601f82011682018060405250810190611abb9190613622565b15611afb576040517f08c379a0000000000000000000000000000000000000000000000000000000008152600401611af2906136c1565b60405180910390fd5b6002600860019054906101000a900460ff166002811115611b1f57611b1e613773565b5b816002811115611b3257611b31613773565b5b14611b72576040517f08c379a0000000000000000000000000000000000000000000000000000000008152600401611b6990613814565b60405180910390fd5b611b7d60075461257e565b5050565b7f000000000000000000000000000000000000000000000000000000000000000081565b4260035410158015611bba5750600754600154105b611bf9576040517f08c379a0000000000000000000000000000000000000000000000000000000008152600401611bf090613581565b60405180910390fd5b600460009054906101000a900460ff16611c48576040517f08c379a0000000000000000000000000000000000000000000000000000000008152600401611c3f906135ed565b60405180910390fd5b60007f000000000000000000000000000000000000000000000000000000000000000090508073ffffffffffffffffffffffffffffffffffffffff1663b187bd266040518163ffffffff1660e01b8152600401602060405180830381865afa158015611cb8573d6000803e3d6000fd5b505050506040513d601f19601f82011682018060405250810190611cdc9190613622565b15611d1c576040517f08c379a0000000000000000000000000000000000000000000000000000000008152600401611d13906136c1565b60405180910390fd5b6001600860019054906101000a900460ff166002811115611d4057611d3f613773565b5b816002811115611d5357611d52613773565b5b14611d93576040517f08c379a0000000000000000000000000000000000000000000000000000000008152600401611d8a90613814565b60405180910390fd5b611d9e600754612b34565b5050565b6000600460009054906101000a900460ff16611df3576040517f08c379a0000000000000000000000000000000000000000000000000000000008152600401611dea906135ed565b60405180910390fd5b611dfc82612f29565b9050919050565b6060806060600460009054906101000a900460ff16611e57576040517f08c379a0000000000000000000000000000000000000000000000000000000008152600401611e4e906135ed565b60405180910390fd5b600060098054905067ffffffffffffffff811115611e7857611e77613b8f565b5b604051908082528060200260200182016040528015611ea65781602001602082028036833780820191505090505b509050600060098054905067ffffffffffffffff811115611eca57611ec9613b8f565b5b604051908082528060200260200182016040528015611ef85781602001602082028036833780820191505090505b509050600060098054905067ffffffffffffffff811115611f1c57611f1b613b8f565b5b604051908082528060200260200182016040528015611f4a5781602001602082028036833780820191505090505b50905060005b60098054905081101561208d5760098181548110611f7157611f70613bbe565b5b906000526020600020906003020160000160009054906101000a900473ffffffffffffffffffffffffffffffffffffffff16848281518110611fb657611fb5613bbe565b5b602002602001019073ffffffffffffffffffffffffffffffffffffffff16908173ffffffffffffffffffffffffffffffffffffffff16815250506009818154811061200457612003613bbe565b5b90600052602060002090600302016001015483828151811061202957612028613bbe565b5b6020026020010181815250506009818154811061204957612048613bbe565b5b90600052602060002090600302016002015482828151811061206e5761206d613bbe565b5b602002602001018181525050808061208590613c1c565b915050611f50565b50828282955095509550505050909192565b6120a76128f6565b73ffffffffffffffffffffffffffffffffffffffff166120c56116be565b73ffffffffffffffffffffffffffffffffffffffff161461211b576040517f08c379a0000000000000000000000000000000000000000000000000000000008152600401612112906138ec565b60405180910390fd5b600073ffffffffffffffffffffffffffffffffffffffff168173ffffffffffffffffffffffffffffffffffffffff160361218a576040517f08c379a000000000000000000000000000000000000000000000000000000000815260040161218190613cd6565b60405180910390fd5b61219381612e65565b50565b80600560009054906101000a900473ffffffffffffffffffffffffffffffffffffffff1673ffffffffffffffffffffffffffffffffffffffff166370a08231336040518263ffffffff1660e01b81526004016121f291906132fd565b602060405180830381865afa15801561220f573d6000803e3d6000fd5b505050506040513d601f19601f820116820180604052508101906122339190613921565b1015612274576040517f08c379a000000000000000000000000000000000000000000000000000000000815260040161226b90613d68565b60405180910390fd5b600061227f82612f29565b90506000600260009054906101000a900473ffffffffffffffffffffffffffffffffffffffff169050818173ffffffffffffffffffffffffffffffffffffffff166370a08231306040518263ffffffff1660e01b81526004016122e291906132fd565b602060405180830381865afa1580156122ff573d6000803e3d6000fd5b505050506040513d601f19601f820116820180604052508101906123239190613921565b1015612364576040517f08c379a000000000000000000000000000000000000000000000000000000000815260040161235b90613dfa565b60405180910390fd5b600260009054906101000a900473ffffffffffffffffffffffffffffffffffffffff1673ffffffffffffffffffffffffffffffffffffffff16632e1a7d4d836040518263ffffffff1660e01b81526004016123bf9190613341565b600060405180830381600087803b1580156123d957600080fd5b505af11580156123ed573d6000803e3d6000fd5b5050505061241f600560009054906101000a900473ffffffffffffffffffffffffffffffffffffffff16333086612f4d565b61242933836128fe565b600960405180606001604052803373ffffffffffffffffffffffffffffffffffffffff16815260200185815260200184815250908060018154018082558091505060019003906000526020600020906003020160009091909190915060008201518160000160006101000a81548173ffffffffffffffffffffffffffffffffffffffff021916908373ffffffffffffffffffffffffffffffffffffffff1602179055506020820151816001015560408201518160020155505060007f000000000000000000000000000000000000000000000000000000000000000090508073ffffffffffffffffffffffffffffffffffffffff1663f52701b7303387876040518563ffffffff1660e01b8152600401612546949392919061394e565b600060405180830381600087803b15801561256057600080fd5b505af1158015612574573d6000803e3d6000fd5b5050505050505050565b80600560009054906101000a900473ffffffffffffffffffffffffffffffffffffffff1673ffffffffffffffffffffffffffffffffffffffff166370a08231336040518263ffffffff1660e01b81526004016125da91906132fd565b602060405180830381865afa1580156125f7573d6000803e3d6000fd5b505050506040513d601f19601f8201168201806040525081019061261b9190613921565b101561265c576040517f08c379a000000000000000000000000000000000000000000000000000000000815260040161265390613d68565b60405180910390fd5b600061266782612f29565b905080600460019054906101000a900473ffffffffffffffffffffffffffffffffffffffff1673ffffffffffffffffffffffffffffffffffffffff166370a08231306040518263ffffffff1660e01b81526004016126c591906132fd565b602060405180830381865afa1580156126e2573d6000803e3d6000fd5b505050506040513d601f19601f820116820180604052508101906127069190613921565b1015612747576040517f08c379a000000000000000000000000000000000000000000000000000000000815260040161273e90613dfa565b60405180910390fd5b612775600560009054906101000a900473ffffffffffffffffffffffffffffffffffffffff16333085612f4d565b6127a2600460019054906101000a900473ffffffffffffffffffffffffffffffffffffffff1633836129fe565b600960405180606001604052803373ffffffffffffffffffffffffffffffffffffffff16815260200184815260200183815250908060018154018082558091505060019003906000526020600020906003020160009091909190915060008201518160000160006101000a81548173ffffffffffffffffffffffffffffffffffffffff021916908373ffffffffffffffffffffffffffffffffffffffff1602179055506020820151816001015560408201518160020155505060007f000000000000000000000000000000000000000000000000000000000000000090508073ffffffffffffffffffffffffffffffffffffffff1663f52701b7303386866040518563ffffffff1660e01b81526004016128bf949392919061394e565b600060405180830381600087803b1580156128d957600080fd5b505af11580156128ed573d6000803e3d6000fd5b50505050505050565b600033905090565b60008273ffffffffffffffffffffffffffffffffffffffff1682600067ffffffffffffffff81111561293357612932613b8f565b5b6040519080825280601f01601f1916602001820160405280156129655781602001600182028036833780820191505090505b506040516129739190613e94565b60006040518083038185875af1925050503d80600081146129b0576040519150601f19603f3d011682016040523d82523d6000602084013e6129b5565b606091505b50509050806129f9576040517f08c379a00000000000000000000000000000000000000000000000000000000081526004016129f090613f1d565b60405180910390fd5b505050565b6000808473ffffffffffffffffffffffffffffffffffffffff1663a9059cbb8585604051602401612a30929190613f3d565b6040516020818303038152906040529060e01b6020820180517bffffffffffffffffffffffffffffffffffffffffffffffffffffffff8381831617835250505050604051612a7e9190613e94565b6000604051808303816000865af19150503d8060008114612abb576040519150601f19603f3d011682016040523d82523d6000602084013e612ac0565b606091505b5091509150818015612aee5750600081511480612aed575080806020019051810190612aec9190613622565b5b5b612b2d576040517f08c379a0000000000000000000000000000000000000000000000000000000008152600401612b2490613fb2565b60405180910390fd5b5050505050565b348114612b76576040517f08c379a0000000000000000000000000000000000000000000000000000000008152600401612b6d90613753565b60405180910390fd5b6000612b8182612f29565b905080600460019054906101000a900473ffffffffffffffffffffffffffffffffffffffff1673ffffffffffffffffffffffffffffffffffffffff166370a08231306040518263ffffffff1660e01b8152600401612bdf91906132fd565b602060405180830381865afa158015612bfc573d6000803e3d6000fd5b505050506040513d601f19601f82011682018060405250810190612c209190613921565b1015612c61576040517f08c379a0000000000000000000000000000000000000000000000000000000008152600401612c5890613dfa565b60405180910390fd5b600260009054906101000a900473ffffffffffffffffffffffffffffffffffffffff1673ffffffffffffffffffffffffffffffffffffffff1663d0e30db0836040518263ffffffff1660e01b81526004016000604051808303818588803b158015612ccb57600080fd5b505af1158015612cdf573d6000803e3d6000fd5b5050505050612d11600460019054906101000a900473ffffffffffffffffffffffffffffffffffffffff1633836129fe565b600960405180606001604052803373ffffffffffffffffffffffffffffffffffffffff16815260200184815260200183815250908060018154018082558091505060019003906000526020600020906003020160009091909190915060008201518160000160006101000a81548173ffffffffffffffffffffffffffffffffffffffff021916908373ffffffffffffffffffffffffffffffffffffffff1602179055506020820151816001015560408201518160020155505060007f000000000000000000000000000000000000000000000000000000000000000090508073ffffffffffffffffffffffffffffffffffffffff1663f52701b7303386866040518563ffffffff1660e01b8152600401612e2e949392919061394e565b600060405180830381600087803b158015612e4857600080fd5b505af1158015612e5c573d6000803e3d6000fd5b50505050505050565b60008060009054906101000a900473ffffffffffffffffffffffffffffffffffffffff169050816000806101000a81548173ffffffffffffffffffffffffffffffffffffffff021916908373ffffffffffffffffffffffffffffffffffffffff1602179055508173ffffffffffffffffffffffffffffffffffffffff168173ffffffffffffffffffffffffffffffffffffffff167f8be0079c531659141344cd1fd0a4f28419497f9722a3daafe3b4186f6b6457e060405160405180910390a35050565b600060075460065483612f3c9190613fd2565b612f46919061405b565b9050919050565b6000808573ffffffffffffffffffffffffffffffffffffffff166323b872dd868686604051602401612f819392919061408c565b6040516020818303038152906040529060e01b6020820180517bffffffffffffffffffffffffffffffffffffffffffffffffffffffff8381831617835250505050604051612fcf9190613e94565b6000604051808303816000865af19150503d806000811461300c576040519150601f19603f3d011682016040523d82523d6000602084013e613011565b606091505b509150915081801561303f575060008151148061303e57508080602001905181019061303d9190613622565b5b5b61307e576040517f08c379a000000000000000000000000000000000000000000000000000000000815260040161307590614135565b60405180910390fd5b505050505050565b600080fd5b6000819050919050565b61309e8161308b565b81146130a957600080fd5b50565b6000813590506130bb81613095565b92915050565b6000602082840312156130d7576130d6613086565b5b60006130e5848285016130ac565b91505092915050565b60008115159050919050565b613103816130ee565b82525050565b600060208201905061311e60008301846130fa565b92915050565b61312d8161308b565b82525050565b60006040820190506131486000830185613124565b6131556020830184613124565b9392505050565b600073ffffffffffffffffffffffffffffffffffffffff82169050919050565b60006131878261315c565b9050919050565b6131978161317c565b81146131a257600080fd5b50565b6000813590506131b48161318e565b92915050565b6000602082840312156131d0576131cf613086565b5b60006131de848285016131a5565b91505092915050565b600381106131f457600080fd5b50565b600081359050613206816131e7565b92915050565b613215816130ee565b811461322057600080fd5b50565b6000813590506132328161320c565b92915050565b600080600080600080600080610100898b03121561325957613258613086565b5b60006132678b828c016131f7565b98505060206132788b828c016131a5565b97505060406132898b828c016131a5565b965050606061329a8b828c016130ac565b95505060806132ab8b828c016130ac565b94505060a06132bc8b828c016130ac565b93505060c06132cd8b828c01613223565b92505060e06132de8b828c016131a5565b9150509295985092959890939650565b6132f78161317c565b82525050565b600060208201905061331260008301846132ee565b92915050565b600060408201905061332d60008301856132ee565b61333a60208301846132ee565b9392505050565b60006020820190506133566000830184613124565b92915050565b600081519050919050565b600082825260208201905092915050565b6000819050602082019050919050565b6133918161317c565b82525050565b60006133a38383613388565b60208301905092915050565b6000602082019050919050565b60006133c78261335c565b6133d18185613367565b93506133dc83613378565b8060005b8381101561340d5781516133f48882613397565b97506133ff836133af565b9250506001810190506133e0565b5085935050505092915050565b600081519050919050565b600082825260208201905092915050565b6000819050602082019050919050565b61344f8161308b565b82525050565b60006134618383613446565b60208301905092915050565b6000602082019050919050565b60006134858261341a565b61348f8185613425565b935061349a83613436565b8060005b838110156134cb5781516134b28882613455565b97506134bd8361346d565b92505060018101905061349e565b5085935050505092915050565b600060608201905081810360008301526134f281866133bc565b90508181036020830152613506818561347a565b9050818103604083015261351a818461347a565b9050949350505050565b600082825260208201905092915050565b7f537943726f774261727465723a20494e41435449564500000000000000000000600082015250565b600061356b601683613524565b915061357682613535565b602082019050919050565b6000602082019050818103600083015261359a8161355e565b9050919050565b7f537943726f774261727465723a204e4f545f494e495449414c495a4544000000600082015250565b60006135d7601d83613524565b91506135e2826135a1565b602082019050919050565b60006020820190508181036000830152613606816135ca565b9050919050565b60008151905061361c8161320c565b92915050565b60006020828403121561363857613637613086565b5b60006136468482850161360d565b91505092915050565b7f537943726f774261727465723a204261736520436f6e7472616374205061757360008201527f6564000000000000000000000000000000000000000000000000000000000000602082015250565b60006136ab602283613524565b91506136b68261364f565b604082019050919050565b600060208201905081810360008301526136da8161369e565b9050919050565b7f537943726f774261727465723a204d554c54495f54524144455f4e4f545f454e60008201527f41424c4544000000000000000000000000000000000000000000000000000000602082015250565b600061373d602583613524565b9150613748826136e1565b604082019050919050565b6000602082019050818103600083015261376c81613730565b9050919050565b7f4e487b7100000000000000000000000000000000000000000000000000000000600052602160045260246000fd5b7f537943726f774261727465723a20494e56414c49445f4241525445525f54595060008201527f4500000000000000000000000000000000000000000000000000000000000000602082015250565b60006137fe602183613524565b9150613809826137a2565b604082019050919050565b6000602082019050818103600083015261382d816137f1565b9050919050565b7f537943726f774261727465723a20414354495645000000000000000000000000600082015250565b600061386a601483613524565b915061387582613834565b602082019050919050565b600060208201905081810360008301526138998161385d565b9050919050565b7f4f776e61626c653a2063616c6c6572206973206e6f7420746865206f776e6572600082015250565b60006138d6602083613524565b91506138e1826138a0565b602082019050919050565b60006020820190508181036000830152613905816138c9565b9050919050565b60008151905061391b81613095565b92915050565b60006020828403121561393757613936613086565b5b60006139458482850161390c565b91505092915050565b600060808201905061396360008301876132ee565b61397060208301866132ee565b61397d6040830185613124565b61398a6060830184613124565b95945050505050565b7f537943726f774261727465723a20464f5242494444454e000000000000000000600082015250565b60006139c9601783613524565b91506139d482613993565b602082019050919050565b600060208201905081810360008301526139f8816139bc565b9050919050565b7f537943726f774261727465723a20414c52454144595f494e495449414c495a4560008201527f4400000000000000000000000000000000000000000000000000000000000000602082015250565b6000613a5b602183613524565b9150613a66826139ff565b604082019050919050565b60006020820190508181036000830152613a8a81613a4e565b9050919050565b7f537943726f774261727465723a20504153545f444541444c494e450000000000600082015250565b6000613ac7601b83613524565b9150613ad282613a91565b602082019050919050565b60006020820190508181036000830152613af681613aba565b9050919050565b7f537943726f774261727465723a20494e53554646494349454e545f4445504f5360008201527f4954000000000000000000000000000000000000000000000000000000000000602082015250565b6000613b59602283613524565b9150613b6482613afd565b604082019050919050565b60006020820190508181036000830152613b8881613b4c565b9050919050565b7f4e487b7100000000000000000000000000000000000000000000000000000000600052604160045260246000fd5b7f4e487b7100000000000000000000000000000000000000000000000000000000600052603260045260246000fd5b7f4e487b7100000000000000000000000000000000000000000000000000000000600052601160045260246000fd5b6000613c278261308b565b91507fffffffffffffffffffffffffffffffffffffffffffffffffffffffffffffffff8203613c5957613c58613bed565b5b600182019050919050565b7f4f776e61626c653a206e6577206f776e657220697320746865207a65726f206160008201527f6464726573730000000000000000000000000000000000000000000000000000602082015250565b6000613cc0602683613524565b9150613ccb82613c64565b604082019050919050565b60006020820190508181036000830152613cef81613cb3565b9050919050565b7f537943726f774261727465723a20494e53554646494349454e545f42414c414e60008201527f4345000000000000000000000000000000000000000000000000000000000000602082015250565b6000613d52602283613524565b9150613d5d82613cf6565b604082019050919050565b60006020820190508181036000830152613d8181613d45565b9050919050565b7f537943726f774261727465723a20494e53554646494349454e545f434f4e545260008201527f4143545f42414c414e4345000000000000000000000000000000000000000000602082015250565b6000613de4602b83613524565b9150613def82613d88565b604082019050919050565b60006020820190508181036000830152613e1381613dd7565b9050919050565b600081519050919050565b600081905092915050565b60005b83811015613e4e578082015181840152602081019050613e33565b83811115613e5d576000848401525b50505050565b6000613e6e82613e1a565b613e788185613e25565b9350613e88818560208601613e30565b80840191505092915050565b6000613ea08284613e63565b915081905092915050565b7f5472616e7366657248656c7065723a204554485f5452414e534645525f46414960008201527f4c45440000000000000000000000000000000000000000000000000000000000602082015250565b6000613f07602383613524565b9150613f1282613eab565b604082019050919050565b60006020820190508181036000830152613f3681613efa565b9050919050565b6000604082019050613f5260008301856132ee565b613f5f6020830184613124565b9392505050565b7f5472616e7366657248656c7065723a205452414e534645525f4641494c454400600082015250565b6000613f9c601f83613524565b9150613fa782613f66565b602082019050919050565b60006020820190508181036000830152613fcb81613f8f565b9050919050565b6000613fdd8261308b565b9150613fe88361308b565b9250817fffffffffffffffffffffffffffffffffffffffffffffffffffffffffffffffff048311821515161561402157614020613bed565b5b828202905092915050565b7f4e487b7100000000000000000000000000000000000000000000000000000000600052601260045260246000fd5b60006140668261308b565b91506140718361308b565b9250826140815761408061402c565b5b828204905092915050565b60006060820190506140a160008301866132ee565b6140ae60208301856132ee565b6140bb6040830184613124565b949350505050565b7f5472616e7366657248656c7065723a205452414e534645525f46524f4d5f464160008201527f494c454400000000000000000000000000000000000000000000000000000000602082015250565b600061411f602483613524565b915061412a826140c3565b604082019050919050565b6000602082019050818103600083015261414e81614112565b905091905056fea26469706673582212206139be32568ec9108b7f5655a9f070fb84783638c2115609c9d89a016a699a4664736f6c634300080d0033",
					"opcodes": "PUSH1 0xA0 PUSH1 0x40 MSTORE PUSH1 0x0 PUSH1 0x4 PUSH1 0x0 PUSH2 0x100 EXP DUP2 SLOAD DUP2 PUSH1 0xFF MUL NOT AND SWAP1 DUP4 ISZERO ISZERO MUL OR SWAP1 SSTORE POP CALLVALUE DUP1 ISZERO PUSH3 0x2C JUMPI PUSH1 0x0 DUP1 REVERT JUMPDEST POP PUSH3 0x4D PUSH3 0x41 PUSH3 0x87 PUSH1 0x20 SHL PUSH1 0x20 SHR JUMP JUMPDEST PUSH3 0x8F PUSH1 0x20 SHL PUSH1 0x20 SHR JUMP JUMPDEST CALLER PUSH20 0xFFFFFFFFFFFFFFFFFFFFFFFFFFFFFFFFFFFFFFFF AND PUSH1 0x80 DUP2 PUSH20 0xFFFFFFFFFFFFFFFFFFFFFFFFFFFFFFFFFFFFFFFF AND DUP2 MSTORE POP POP PUSH3 0x153 JUMP JUMPDEST PUSH1 0x0 CALLER SWAP1 POP SWAP1 JUMP JUMPDEST PUSH1 0x0 DUP1 PUSH1 0x0 SWAP1 SLOAD SWAP1 PUSH2 0x100 EXP SWAP1 DIV PUSH20 0xFFFFFFFFFFFFFFFFFFFFFFFFFFFFFFFFFFFFFFFF AND SWAP1 POP DUP2 PUSH1 0x0 DUP1 PUSH2 0x100 EXP DUP2 SLOAD DUP2 PUSH20 0xFFFFFFFFFFFFFFFFFFFFFFFFFFFFFFFFFFFFFFFF MUL NOT AND SWAP1 DUP4 PUSH20 0xFFFFFFFFFFFFFFFFFFFFFFFFFFFFFFFFFFFFFFFF AND MUL OR SWAP1 SSTORE POP DUP2 PUSH20 0xFFFFFFFFFFFFFFFFFFFFFFFFFFFFFFFFFFFFFFFF AND DUP2 PUSH20 0xFFFFFFFFFFFFFFFFFFFFFFFFFFFFFFFFFFFFFFFF AND PUSH32 0x8BE0079C531659141344CD1FD0A4F28419497F9722A3DAAFE3B4186F6B6457E0 PUSH1 0x40 MLOAD PUSH1 0x40 MLOAD DUP1 SWAP2 SUB SWAP1 LOG3 POP POP JUMP JUMPDEST PUSH1 0x80 MLOAD PUSH2 0x418B PUSH3 0x1BC PUSH1 0x0 CODECOPY PUSH1 0x0 DUP2 DUP2 PUSH2 0x45B ADD MSTORE DUP2 DUP2 PUSH2 0x6A6 ADD MSTORE DUP2 DUP2 PUSH2 0xD09 ADD MSTORE DUP2 DUP2 PUSH2 0xEBB ADD MSTORE DUP2 DUP2 PUSH2 0x1307 ADD MSTORE DUP2 DUP2 PUSH2 0x178E ADD MSTORE DUP2 DUP2 PUSH2 0x1A2B ADD MSTORE DUP2 DUP2 PUSH2 0x1B83 ADD MSTORE DUP2 DUP2 PUSH2 0x1C4C ADD MSTORE DUP2 DUP2 PUSH2 0x24E6 ADD MSTORE DUP2 DUP2 PUSH2 0x285F ADD MSTORE PUSH2 0x2DCE ADD MSTORE PUSH2 0x418B PUSH1 0x0 RETURN INVALID PUSH1 0x80 PUSH1 0x40 MSTORE PUSH1 0x4 CALLDATASIZE LT PUSH2 0x109 JUMPI PUSH1 0x0 CALLDATALOAD PUSH1 0xE0 SHR DUP1 PUSH4 0x8DA5CB5B GT PUSH2 0x95 JUMPI DUP1 PUSH4 0xC45A0155 GT PUSH2 0x64 JUMPI DUP1 PUSH4 0xC45A0155 EQ PUSH2 0x2EC JUMPI DUP1 PUSH4 0xD7BDFC75 EQ PUSH2 0x317 JUMPI DUP1 PUSH4 0xDAB5A8DF EQ PUSH2 0x321 JUMPI DUP1 PUSH4 0xE43372E9 EQ PUSH2 0x35E JUMPI DUP1 PUSH4 0xF2FDE38B EQ PUSH2 0x38B JUMPI PUSH2 0x109 JUMP JUMPDEST DUP1 PUSH4 0x8DA5CB5B EQ PUSH2 0x267 JUMPI DUP1 PUSH4 0xA09702B1 EQ PUSH2 0x292 JUMPI DUP1 PUSH4 0xAA6CA808 EQ PUSH2 0x2A9 JUMPI DUP1 PUSH4 0xABD050EA EQ PUSH2 0x2D5 JUMPI PUSH2 0x109 JUMP JUMPDEST DUP1 PUSH4 0x3D370B4E GT PUSH2 0xDC JUMPI DUP1 PUSH4 0x3D370B4E EQ PUSH2 0x1A2 JUMPI DUP1 PUSH4 0x4341F920 EQ PUSH2 0x1CE JUMPI DUP1 PUSH4 0x51CFF8D9 EQ PUSH2 0x1EA JUMPI DUP1 PUSH4 0x5F5780E5 EQ PUSH2 0x213 JUMPI DUP1 PUSH4 0x715018A6 EQ PUSH2 0x250 JUMPI PUSH2 0x109 JUMP JUMPDEST DUP1 PUSH4 0xD182605 EQ PUSH2 0x10E JUMPI DUP1 PUSH4 0x2FFC6887 EQ PUSH2 0x137 JUMPI DUP1 PUSH4 0x3072CF60 EQ PUSH2 0x160 JUMPI DUP1 PUSH4 0x3CCFD60B EQ PUSH2 0x18B JUMPI JUMPDEST PUSH1 0x0 DUP1 REVERT JUMPDEST CALLVALUE DUP1 ISZERO PUSH2 0x11A JUMPI PUSH1 0x0 DUP1 REVERT JUMPDEST POP PUSH2 0x135 PUSH1 0x4 DUP1 CALLDATASIZE SUB DUP2 ADD SWAP1 PUSH2 0x130 SWAP2 SWAP1 PUSH2 0x30C1 JUMP JUMPDEST PUSH2 0x3B4 JUMP JUMPDEST STOP JUMPDEST CALLVALUE DUP1 ISZERO PUSH2 0x143 JUMPI PUSH1 0x0 DUP1 REVERT JUMPDEST POP PUSH2 0x15E PUSH1 0x4 DUP1 CALLDATASIZE SUB DUP2 ADD SWAP1 PUSH2 0x159 SWAP2 SWAP1 PUSH2 0x30C1 JUMP JUMPDEST PUSH2 0x5FF JUMP JUMPDEST STOP JUMPDEST CALLVALUE DUP1 ISZERO PUSH2 0x16C JUMPI PUSH1 0x0 DUP1 REVERT JUMPDEST POP PUSH2 0x175 PUSH2 0x84A JUMP JUMPDEST PUSH1 0x40 MLOAD PUSH2 0x182 SWAP2 SWAP1 PUSH2 0x3109 JUMP JUMPDEST PUSH1 0x40 MLOAD DUP1 SWAP2 SUB SWAP1 RETURN JUMPDEST CALLVALUE DUP1 ISZERO PUSH2 0x197 JUMPI PUSH1 0x0 DUP1 REVERT JUMPDEST POP PUSH2 0x1A0 PUSH2 0x85D JUMP JUMPDEST STOP JUMPDEST CALLVALUE DUP1 ISZERO PUSH2 0x1AE JUMPI PUSH1 0x0 DUP1 REVERT JUMPDEST POP PUSH2 0x1B7 PUSH2 0xDB4 JUMP JUMPDEST PUSH1 0x40 MLOAD PUSH2 0x1C5 SWAP3 SWAP2 SWAP1 PUSH2 0x3133 JUMP JUMPDEST PUSH1 0x40 MLOAD DUP1 SWAP2 SUB SWAP1 RETURN JUMPDEST PUSH2 0x1E8 PUSH1 0x4 DUP1 CALLDATASIZE SUB DUP2 ADD SWAP1 PUSH2 0x1E3 SWAP2 SWAP1 PUSH2 0x30C1 JUMP JUMPDEST PUSH2 0xE14 JUMP JUMPDEST STOP JUMPDEST CALLVALUE DUP1 ISZERO PUSH2 0x1F6 JUMPI PUSH1 0x0 DUP1 REVERT JUMPDEST POP PUSH2 0x211 PUSH1 0x4 DUP1 CALLDATASIZE SUB DUP2 ADD SWAP1 PUSH2 0x20C SWAP2 SWAP1 PUSH2 0x31BA JUMP JUMPDEST PUSH2 0x105F JUMP JUMPDEST STOP JUMPDEST CALLVALUE DUP1 ISZERO PUSH2 0x21F JUMPI PUSH1 0x0 DUP1 REVERT JUMPDEST POP PUSH2 0x23A PUSH1 0x4 DUP1 CALLDATASIZE SUB DUP2 ADD SWAP1 PUSH2 0x235 SWAP2 SWAP1 PUSH2 0x3238 JUMP JUMPDEST PUSH2 0x1303 JUMP JUMPDEST PUSH1 0x40 MLOAD PUSH2 0x247 SWAP2 SWAP1 PUSH2 0x3109 JUMP JUMPDEST PUSH1 0x40 MLOAD DUP1 SWAP2 SUB SWAP1 RETURN JUMPDEST CALLVALUE DUP1 ISZERO PUSH2 0x25C JUMPI PUSH1 0x0 DUP1 REVERT JUMPDEST POP PUSH2 0x265 PUSH2 0x1636 JUMP JUMPDEST STOP JUMPDEST CALLVALUE DUP1 ISZERO PUSH2 0x273 JUMPI PUSH1 0x0 DUP1 REVERT JUMPDEST POP PUSH2 0x27C PUSH2 0x16BE JUMP JUMPDEST PUSH1 0x40 MLOAD PUSH2 0x289 SWAP2 SWAP1 PUSH2 0x32FD JUMP JUMPDEST PUSH1 0x40 MLOAD DUP1 SWAP2 SUB SWAP1 RETURN JUMPDEST CALLVALUE DUP1 ISZERO PUSH2 0x29E JUMPI PUSH1 0x0 DUP1 REVERT JUMPDEST POP PUSH2 0x2A7 PUSH2 0x16E7 JUMP JUMPDEST STOP JUMPDEST CALLVALUE DUP1 ISZERO PUSH2 0x2B5 JUMPI PUSH1 0x0 DUP1 REVERT JUMPDEST POP PUSH2 0x2BE PUSH2 0x18E4 JUMP JUMPDEST PUSH1 0x40 MLOAD PUSH2 0x2CC SWAP3 SWAP2 SWAP1 PUSH2 0x3318 JUMP JUMPDEST PUSH1 0x40 MLOAD DUP1 SWAP2 SUB SWAP1 RETURN JUMPDEST CALLVALUE DUP1 ISZERO PUSH2 0x2E1 JUMPI PUSH1 0x0 DUP1 REVERT JUMPDEST POP PUSH2 0x2EA PUSH2 0x1984 JUMP JUMPDEST STOP JUMPDEST CALLVALUE DUP1 ISZERO PUSH2 0x2F8 JUMPI PUSH1 0x0 DUP1 REVERT JUMPDEST POP PUSH2 0x301 PUSH2 0x1B81 JUMP JUMPDEST PUSH1 0x40 MLOAD PUSH2 0x30E SWAP2 SWAP1 PUSH2 0x32FD JUMP JUMPDEST PUSH1 0x40 MLOAD DUP1 SWAP2 SUB SWAP1 RETURN JUMPDEST PUSH2 0x31F PUSH2 0x1BA5 JUMP JUMPDEST STOP JUMPDEST CALLVALUE DUP1 ISZERO PUSH2 0x32D JUMPI PUSH1 0x0 DUP1 REVERT JUMPDEST POP PUSH2 0x348 PUSH1 0x4 DUP1 CALLDATASIZE SUB DUP2 ADD SWAP1 PUSH2 0x343 SWAP2 SWAP1 PUSH2 0x30C1 JUMP JUMPDEST PUSH2 0x1DA2 JUMP JUMPDEST PUSH1 0x40 MLOAD PUSH2 0x355 SWAP2 SWAP1 PUSH2 0x3341 JUMP JUMPDEST PUSH1 0x40 MLOAD DUP1 SWAP2 SUB SWAP1 RETURN JUMPDEST CALLVALUE DUP1 ISZERO PUSH2 0x36A JUMPI PUSH1 0x0 DUP1 REVERT JUMPDEST POP PUSH2 0x373 PUSH2 0x1E03 JUMP JUMPDEST PUSH1 0x40 MLOAD PUSH2 0x382 SWAP4 SWAP3 SWAP2 SWAP1 PUSH2 0x34D8 JUMP JUMPDEST PUSH1 0x40 MLOAD DUP1 SWAP2 SUB SWAP1 RETURN JUMPDEST CALLVALUE DUP1 ISZERO PUSH2 0x397 JUMPI PUSH1 0x0 DUP1 REVERT JUMPDEST POP PUSH2 0x3B2 PUSH1 0x4 DUP1 CALLDATASIZE SUB DUP2 ADD SWAP1 PUSH2 0x3AD SWAP2 SWAP1 PUSH2 0x31BA JUMP JUMPDEST PUSH2 0x209F JUMP JUMPDEST STOP JUMPDEST TIMESTAMP PUSH1 0x3 SLOAD LT ISZERO DUP1 ISZERO PUSH2 0x3C9 JUMPI POP PUSH1 0x7 SLOAD PUSH1 0x1 SLOAD LT JUMPDEST PUSH2 0x408 JUMPI PUSH1 0x40 MLOAD PUSH32 0x8C379A000000000000000000000000000000000000000000000000000000000 DUP2 MSTORE PUSH1 0x4 ADD PUSH2 0x3FF SWAP1 PUSH2 0x3581 JUMP JUMPDEST PUSH1 0x40 MLOAD DUP1 SWAP2 SUB SWAP1 REVERT JUMPDEST PUSH1 0x4 PUSH1 0x0 SWAP1 SLOAD SWAP1 PUSH2 0x100 EXP SWAP1 DIV PUSH1 0xFF AND PUSH2 0x457 JUMPI PUSH1 0x40 MLOAD PUSH32 0x8C379A000000000000000000000000000000000000000000000000000000000 DUP2 MSTORE PUSH1 0x4 ADD PUSH2 0x44E SWAP1 PUSH2 0x35ED JUMP JUMPDEST PUSH1 0x40 MLOAD DUP1 SWAP2 SUB SWAP1 REVERT JUMPDEST PUSH1 0x0 PUSH32 0x0 SWAP1 POP DUP1 PUSH20 0xFFFFFFFFFFFFFFFFFFFFFFFFFFFFFFFFFFFFFFFF AND PUSH4 0xB187BD26 PUSH1 0x40 MLOAD DUP2 PUSH4 0xFFFFFFFF AND PUSH1 0xE0 SHL DUP2 MSTORE PUSH1 0x4 ADD PUSH1 0x20 PUSH1 0x40 MLOAD DUP1 DUP4 SUB DUP2 DUP7 GAS STATICCALL ISZERO DUP1 ISZERO PUSH2 0x4C7 JUMPI RETURNDATASIZE PUSH1 0x0 DUP1 RETURNDATACOPY RETURNDATASIZE PUSH1 0x0 REVERT JUMPDEST POP POP POP POP PUSH1 0x40 MLOAD RETURNDATASIZE PUSH1 0x1F NOT PUSH1 0x1F DUP3 ADD AND DUP3 ADD DUP1 PUSH1 0x40 MSTORE POP DUP2 ADD SWAP1 PUSH2 0x4EB SWAP2 SWAP1 PUSH2 0x3622 JUMP JUMPDEST ISZERO PUSH2 0x52B JUMPI PUSH1 0x40 MLOAD PUSH32 0x8C379A000000000000000000000000000000000000000000000000000000000 DUP2 MSTORE PUSH1 0x4 ADD PUSH2 0x522 SWAP1 PUSH2 0x36C1 JUMP JUMPDEST PUSH1 0x40 MLOAD DUP1 SWAP2 SUB SWAP1 REVERT JUMPDEST PUSH1 0x8 PUSH1 0x0 SWAP1 SLOAD SWAP1 PUSH2 0x100 EXP SWAP1 DIV PUSH1 0xFF AND PUSH2 0x57A JUMPI PUSH1 0x40 MLOAD PUSH32 0x8C379A000000000000000000000000000000000000000000000000000000000 DUP2 MSTORE PUSH1 0x4 ADD PUSH2 0x571 SWAP1 PUSH2 0x3753 JUMP JUMPDEST PUSH1 0x40 MLOAD DUP1 SWAP2 SUB SWAP1 REVERT JUMPDEST PUSH1 0x0 PUSH1 0x8 PUSH1 0x1 SWAP1 SLOAD SWAP1 PUSH2 0x100 EXP SWAP1 DIV PUSH1 0xFF AND PUSH1 0x2 DUP2 GT ISZERO PUSH2 0x59E JUMPI PUSH2 0x59D PUSH2 0x3773 JUMP JUMPDEST JUMPDEST DUP2 PUSH1 0x2 DUP2 GT ISZERO PUSH2 0x5B1 JUMPI PUSH2 0x5B0 PUSH2 0x3773 JUMP JUMPDEST JUMPDEST EQ PUSH2 0x5F1 JUMPI PUSH1 0x40 MLOAD PUSH32 0x8C379A000000000000000000000000000000000000000000000000000000000 DUP2 MSTORE PUSH1 0x4 ADD PUSH2 0x5E8 SWAP1 PUSH2 0x3814 JUMP JUMPDEST PUSH1 0x40 MLOAD DUP1 SWAP2 SUB SWAP1 REVERT JUMPDEST PUSH2 0x5FA DUP4 PUSH2 0x2196 JUMP JUMPDEST POP POP POP JUMP JUMPDEST TIMESTAMP PUSH1 0x3 SLOAD LT ISZERO DUP1 ISZERO PUSH2 0x614 JUMPI POP PUSH1 0x7 SLOAD PUSH1 0x1 SLOAD LT JUMPDEST PUSH2 0x653 JUMPI PUSH1 0x40 MLOAD PUSH32 0x8C379A000000000000000000000000000000000000000000000000000000000 DUP2 MSTORE PUSH1 0x4 ADD PUSH2 0x64A SWAP1 PUSH2 0x3581 JUMP JUMPDEST PUSH1 0x40 MLOAD DUP1 SWAP2 SUB SWAP1 REVERT JUMPDEST PUSH1 0x4 PUSH1 0x0 SWAP1 SLOAD SWAP1 PUSH2 0x100 EXP SWAP1 DIV PUSH1 0xFF AND PUSH2 0x6A2 JUMPI PUSH1 0x40 MLOAD PUSH32 0x8C379A000000000000000000000000000000000000000000000000000000000 DUP2 MSTORE PUSH1 0x4 ADD PUSH2 0x699 SWAP1 PUSH2 0x35ED JUMP JUMPDEST PUSH1 0x40 MLOAD DUP1 SWAP2 SUB SWAP1 REVERT JUMPDEST PUSH1 0x0 PUSH32 0x0 SWAP1 POP DUP1 PUSH20 0xFFFFFFFFFFFFFFFFFFFFFFFFFFFFFFFFFFFFFFFF AND PUSH4 0xB187BD26 PUSH1 0x40 MLOAD DUP2 PUSH4 0xFFFFFFFF AND PUSH1 0xE0 SHL DUP2 MSTORE PUSH1 0x4 ADD PUSH1 0x20 PUSH1 0x40 MLOAD DUP1 DUP4 SUB DUP2 DUP7 GAS STATICCALL ISZERO DUP1 ISZERO PUSH2 0x712 JUMPI RETURNDATASIZE PUSH1 0x0 DUP1 RETURNDATACOPY RETURNDATASIZE PUSH1 0x0 REVERT JUMPDEST POP POP POP POP PUSH1 0x40 MLOAD RETURNDATASIZE PUSH1 0x1F NOT PUSH1 0x1F DUP3 ADD AND DUP3 ADD DUP1 PUSH1 0x40 MSTORE POP DUP2 ADD SWAP1 PUSH2 0x736 SWAP2 SWAP1 PUSH2 0x3622 JUMP JUMPDEST ISZERO PUSH2 0x776 JUMPI PUSH1 0x40 MLOAD PUSH32 0x8C379A000000000000000000000000000000000000000000000000000000000 DUP2 MSTORE PUSH1 0x4 ADD PUSH2 0x76D SWAP1 PUSH2 0x36C1 JUMP JUMPDEST PUSH1 0x40 MLOAD DUP1 SWAP2 SUB SWAP1 REVERT JUMPDEST PUSH1 0x8 PUSH1 0x0 SWAP1 SLOAD SWAP1 PUSH2 0x100 EXP SWAP1 DIV PUSH1 0xFF AND PUSH2 0x7C5 JUMPI PUSH1 0x40 MLOAD PUSH32 0x8C379A000000000000000000000000000000000000000000000000000000000 DUP2 MSTORE PUSH1 0x4 ADD PUSH2 0x7BC SWAP1 PUSH2 0x3753 JUMP JUMPDEST PUSH1 0x40 MLOAD DUP1 SWAP2 SUB SWAP1 REVERT JUMPDEST PUSH1 0x2 PUSH1 0x8 PUSH1 0x1 SWAP1 SLOAD SWAP1 PUSH2 0x100 EXP SWAP1 DIV PUSH1 0xFF AND PUSH1 0x2 DUP2 GT ISZERO PUSH2 0x7E9 JUMPI PUSH2 0x7E8 PUSH2 0x3773 JUMP JUMPDEST JUMPDEST DUP2 PUSH1 0x2 DUP2 GT ISZERO PUSH2 0x7FC JUMPI PUSH2 0x7FB PUSH2 0x3773 JUMP JUMPDEST JUMPDEST EQ PUSH2 0x83C JUMPI PUSH1 0x40 MLOAD PUSH32 0x8C379A000000000000000000000000000000000000000000000000000000000 DUP2 MSTORE PUSH1 0x4 ADD PUSH2 0x833 SWAP1 PUSH2 0x3814 JUMP JUMPDEST PUSH1 0x40 MLOAD DUP1 SWAP2 SUB SWAP1 REVERT JUMPDEST PUSH2 0x845 DUP4 PUSH2 0x257E JUMP JUMPDEST POP POP POP JUMP JUMPDEST PUSH1 0x4 PUSH1 0x0 SWAP1 SLOAD SWAP1 PUSH2 0x100 EXP SWAP1 DIV PUSH1 0xFF AND DUP2 JUMP JUMPDEST TIMESTAMP PUSH1 0x3 SLOAD LT DUP1 PUSH2 0x871 JUMPI POP PUSH1 0x7 SLOAD PUSH1 0x1 SLOAD LT ISZERO JUMPDEST PUSH2 0x8B0 JUMPI PUSH1 0x40 MLOAD PUSH32 0x8C379A000000000000000000000000000000000000000000000000000000000 DUP2 MSTORE PUSH1 0x4 ADD PUSH2 0x8A7 SWAP1 PUSH2 0x3880 JUMP JUMPDEST PUSH1 0x40 MLOAD DUP1 SWAP2 SUB SWAP1 REVERT JUMPDEST PUSH1 0x4 PUSH1 0x0 SWAP1 SLOAD SWAP1 PUSH2 0x100 EXP SWAP1 DIV PUSH1 0xFF AND PUSH2 0x8FF JUMPI PUSH1 0x40 MLOAD PUSH32 0x8C379A000000000000000000000000000000000000000000000000000000000 DUP2 MSTORE PUSH1 0x4 ADD PUSH2 0x8F6 SWAP1 PUSH2 0x35ED JUMP JUMPDEST PUSH1 0x40 MLOAD DUP1 SWAP2 SUB SWAP1 REVERT JUMPDEST PUSH2 0x907 PUSH2 0x28F6 JUMP JUMPDEST PUSH20 0xFFFFFFFFFFFFFFFFFFFFFFFFFFFFFFFFFFFFFFFF AND PUSH2 0x925 PUSH2 0x16BE JUMP JUMPDEST PUSH20 0xFFFFFFFFFFFFFFFFFFFFFFFFFFFFFFFFFFFFFFFF AND EQ PUSH2 0x97B JUMPI PUSH1 0x40 MLOAD PUSH32 0x8C379A000000000000000000000000000000000000000000000000000000000 DUP2 MSTORE PUSH1 0x4 ADD PUSH2 0x972 SWAP1 PUSH2 0x38EC JUMP JUMPDEST PUSH1 0x40 MLOAD DUP1 SWAP2 SUB SWAP1 REVERT JUMPDEST PUSH1 0x0 PUSH1 0x2 PUSH1 0x0 SWAP1 SLOAD SWAP1 PUSH2 0x100 EXP SWAP1 DIV PUSH20 0xFFFFFFFFFFFFFFFFFFFFFFFFFFFFFFFFFFFFFFFF AND SWAP1 POP PUSH1 0x0 DUP2 PUSH20 0xFFFFFFFFFFFFFFFFFFFFFFFFFFFFFFFFFFFFFFFF AND PUSH4 0x70A08231 ADDRESS PUSH1 0x40 MLOAD DUP3 PUSH4 0xFFFFFFFF AND PUSH1 0xE0 SHL DUP2 MSTORE PUSH1 0x4 ADD PUSH2 0x9DD SWAP2 SWAP1 PUSH2 0x32FD JUMP JUMPDEST PUSH1 0x20 PUSH1 0x40 MLOAD DUP1 DUP4 SUB DUP2 DUP7 GAS STATICCALL ISZERO DUP1 ISZERO PUSH2 0x9FA JUMPI RETURNDATASIZE PUSH1 0x0 DUP1 RETURNDATACOPY RETURNDATASIZE PUSH1 0x0 REVERT JUMPDEST POP POP POP POP PUSH1 0x40 MLOAD RETURNDATASIZE PUSH1 0x1F NOT PUSH1 0x1F DUP3 ADD AND DUP3 ADD DUP1 PUSH1 0x40 MSTORE POP DUP2 ADD SWAP1 PUSH2 0xA1E SWAP2 SWAP1 PUSH2 0x3921 JUMP JUMPDEST SWAP1 POP PUSH1 0x0 DUP2 GT ISZERO PUSH2 0xAC1 JUMPI PUSH1 0x2 PUSH1 0x0 SWAP1 SLOAD SWAP1 PUSH2 0x100 EXP SWAP1 DIV PUSH20 0xFFFFFFFFFFFFFFFFFFFFFFFFFFFFFFFFFFFFFFFF AND PUSH20 0xFFFFFFFFFFFFFFFFFFFFFFFFFFFFFFFFFFFFFFFF AND PUSH4 0x2E1A7D4D DUP3 PUSH1 0x40 MLOAD DUP3 PUSH4 0xFFFFFFFF AND PUSH1 0xE0 SHL DUP2 MSTORE PUSH1 0x4 ADD PUSH2 0xA84 SWAP2 SWAP1 PUSH2 0x3341 JUMP JUMPDEST PUSH1 0x0 PUSH1 0x40 MLOAD DUP1 DUP4 SUB DUP2 PUSH1 0x0 DUP8 DUP1 EXTCODESIZE ISZERO DUP1 ISZERO PUSH2 0xA9E JUMPI PUSH1 0x0 DUP1 REVERT JUMPDEST POP GAS CALL ISZERO DUP1 ISZERO PUSH2 0xAB2 JUMPI RETURNDATASIZE PUSH1 0x0 DUP1 RETURNDATACOPY RETURNDATASIZE PUSH1 0x0 REVERT JUMPDEST POP POP POP POP PUSH2 0xAC0 CALLER DUP3 PUSH2 0x28FE JUMP JUMPDEST JUMPDEST PUSH1 0x0 PUSH1 0x5 PUSH1 0x0 SWAP1 SLOAD SWAP1 PUSH2 0x100 EXP SWAP1 DIV PUSH20 0xFFFFFFFFFFFFFFFFFFFFFFFFFFFFFFFFFFFFFFFF AND PUSH20 0xFFFFFFFFFFFFFFFFFFFFFFFFFFFFFFFFFFFFFFFF AND PUSH4 0x70A08231 ADDRESS PUSH1 0x40 MLOAD DUP3 PUSH4 0xFFFFFFFF AND PUSH1 0xE0 SHL DUP2 MSTORE PUSH1 0x4 ADD PUSH2 0xB1E SWAP2 SWAP1 PUSH2 0x32FD JUMP JUMPDEST PUSH1 0x20 PUSH1 0x40 MLOAD DUP1 DUP4 SUB DUP2 DUP7 GAS STATICCALL ISZERO DUP1 ISZERO PUSH2 0xB3B JUMPI RETURNDATASIZE PUSH1 0x0 DUP1 RETURNDATACOPY RETURNDATASIZE PUSH1 0x0 REVERT JUMPDEST POP POP POP POP PUSH1 0x40 MLOAD RETURNDATASIZE PUSH1 0x1F NOT PUSH1 0x1F DUP3 ADD AND DUP3 ADD DUP1 PUSH1 0x40 MSTORE POP DUP2 ADD SWAP1 PUSH2 0xB5F SWAP2 SWAP1 PUSH2 0x3921 JUMP JUMPDEST SWAP1 POP PUSH1 0x0 DUP2 GT ISZERO PUSH2 0xB98 JUMPI PUSH2 0xB97 PUSH1 0x5 PUSH1 0x0 SWAP1 SLOAD SWAP1 PUSH2 0x100 EXP SWAP1 DIV PUSH20 0xFFFFFFFFFFFFFFFFFFFFFFFFFFFFFFFFFFFFFFFF AND CALLER DUP4 PUSH2 0x29FE JUMP JUMPDEST JUMPDEST PUSH1 0x0 PUSH1 0x4 PUSH1 0x1 SWAP1 SLOAD SWAP1 PUSH2 0x100 EXP SWAP1 DIV PUSH20 0xFFFFFFFFFFFFFFFFFFFFFFFFFFFFFFFFFFFFFFFF AND PUSH20 0xFFFFFFFFFFFFFFFFFFFFFFFFFFFFFFFFFFFFFFFF AND PUSH4 0x70A08231 ADDRESS PUSH1 0x40 MLOAD DUP3 PUSH4 0xFFFFFFFF AND PUSH1 0xE0 SHL DUP2 MSTORE PUSH1 0x4 ADD PUSH2 0xBF5 SWAP2 SWAP1 PUSH2 0x32FD JUMP JUMPDEST PUSH1 0x20 PUSH1 0x40 MLOAD DUP1 DUP4 SUB DUP2 DUP7 GAS STATICCALL ISZERO DUP1 ISZERO PUSH2 0xC12 JUMPI RETURNDATASIZE PUSH1 0x0 DUP1 RETURNDATACOPY RETURNDATASIZE PUSH1 0x0 REVERT JUMPDEST POP POP POP POP PUSH1 0x40 MLOAD RETURNDATASIZE PUSH1 0x1F NOT PUSH1 0x1F DUP3 ADD AND DUP3 ADD DUP1 PUSH1 0x40 MSTORE POP DUP2 ADD SWAP1 PUSH2 0xC36 SWAP2 SWAP1 PUSH2 0x3921 JUMP JUMPDEST SWAP1 POP PUSH1 0x0 DUP2 GT ISZERO PUSH2 0xC6F JUMPI PUSH2 0xC6E PUSH1 0x4 PUSH1 0x1 SWAP1 SLOAD SWAP1 PUSH2 0x100 EXP SWAP1 DIV PUSH20 0xFFFFFFFFFFFFFFFFFFFFFFFFFFFFFFFFFFFFFFFF AND CALLER DUP4 PUSH2 0x29FE JUMP JUMPDEST JUMPDEST PUSH1 0x0 DUP1 PUSH1 0x0 PUSH1 0x2 DUP2 GT ISZERO PUSH2 0xC86 JUMPI PUSH2 0xC85 PUSH2 0x3773 JUMP JUMPDEST JUMPDEST PUSH1 0x8 PUSH1 0x1 SWAP1 SLOAD SWAP1 PUSH2 0x100 EXP SWAP1 DIV PUSH1 0xFF AND PUSH1 0x2 DUP2 GT ISZERO PUSH2 0xCA8 JUMPI PUSH2 0xCA7 PUSH2 0x3773 JUMP JUMPDEST JUMPDEST SUB PUSH2 0xCB8 JUMPI DUP5 SWAP2 POP DUP4 SWAP1 POP PUSH2 0xD05 JUMP JUMPDEST PUSH1 0x2 DUP1 DUP2 GT ISZERO PUSH2 0xCCB JUMPI PUSH2 0xCCA PUSH2 0x3773 JUMP JUMPDEST JUMPDEST PUSH1 0x8 PUSH1 0x1 SWAP1 SLOAD SWAP1 PUSH2 0x100 EXP SWAP1 DIV PUSH1 0xFF AND PUSH1 0x2 DUP2 GT ISZERO PUSH2 0xCED JUMPI PUSH2 0xCEC PUSH2 0x3773 JUMP JUMPDEST JUMPDEST SUB PUSH2 0xCFD JUMPI DUP3 SWAP2 POP DUP4 SWAP1 POP PUSH2 0xD04 JUMP JUMPDEST DUP3 SWAP2 POP DUP5 SWAP1 POP JUMPDEST JUMPDEST PUSH1 0x0 PUSH32 0x0 SWAP1 POP DUP1 PUSH20 0xFFFFFFFFFFFFFFFFFFFFFFFFFFFFFFFFFFFFFFFF AND PUSH4 0x33796A0E ADDRESS CALLER DUP7 DUP7 PUSH1 0x40 MLOAD DUP6 PUSH4 0xFFFFFFFF AND PUSH1 0xE0 SHL DUP2 MSTORE PUSH1 0x4 ADD PUSH2 0xD69 SWAP5 SWAP4 SWAP3 SWAP2 SWAP1 PUSH2 0x394E JUMP JUMPDEST PUSH1 0x0 PUSH1 0x40 MLOAD DUP1 DUP4 SUB DUP2 PUSH1 0x0 DUP8 DUP1 EXTCODESIZE ISZERO DUP1 ISZERO PUSH2 0xD83 JUMPI PUSH1 0x0 DUP1 REVERT JUMPDEST POP GAS CALL ISZERO DUP1 ISZERO PUSH2 0xD97 JUMPI RETURNDATASIZE PUSH1 0x0 DUP1 RETURNDATACOPY RETURNDATASIZE PUSH1 0x0 REVERT JUMPDEST POP POP POP POP CALLER PUSH20 0xFFFFFFFFFFFFFFFFFFFFFFFFFFFFFFFFFFFFFFFF AND SELFDESTRUCT JUMPDEST PUSH1 0x0 DUP1 PUSH1 0x4 PUSH1 0x0 SWAP1 SLOAD SWAP1 PUSH2 0x100 EXP SWAP1 DIV PUSH1 0xFF AND PUSH2 0xE06 JUMPI PUSH1 0x40 MLOAD PUSH32 0x8C379A000000000000000000000000000000000000000000000000000000000 DUP2 MSTORE PUSH1 0x4 ADD PUSH2 0xDFD SWAP1 PUSH2 0x35ED JUMP JUMPDEST PUSH1 0x40 MLOAD DUP1 SWAP2 SUB SWAP1 REVERT JUMPDEST PUSH1 0x6 SLOAD PUSH1 0x7 SLOAD SWAP2 POP SWAP2 POP SWAP1 SWAP2 JUMP JUMPDEST TIMESTAMP PUSH1 0x3 SLOAD LT ISZERO DUP1 ISZERO PUSH2 0xE29 JUMPI POP PUSH1 0x7 SLOAD PUSH1 0x1 SLOAD LT JUMPDEST PUSH2 0xE68 JUMPI PUSH1 0x40 MLOAD PUSH32 0x8C379A000000000000000000000000000000000000000000000000000000000 DUP2 MSTORE PUSH1 0x4 ADD PUSH2 0xE5F SWAP1 PUSH2 0x3581 JUMP JUMPDEST PUSH1 0x40 MLOAD DUP1 SWAP2 SUB SWAP1 REVERT JUMPDEST PUSH1 0x4 PUSH1 0x0 SWAP1 SLOAD SWAP1 PUSH2 0x100 EXP SWAP1 DIV PUSH1 0xFF AND PUSH2 0xEB7 JUMPI PUSH1 0x40 MLOAD PUSH32 0x8C379A000000000000000000000000000000000000000000000000000000000 DUP2 MSTORE PUSH1 0x4 ADD PUSH2 0xEAE SWAP1 PUSH2 0x35ED JUMP JUMPDEST PUSH1 0x40 MLOAD DUP1 SWAP2 SUB SWAP1 REVERT JUMPDEST PUSH1 0x0 PUSH32 0x0 SWAP1 POP DUP1 PUSH20 0xFFFFFFFFFFFFFFFFFFFFFFFFFFFFFFFFFFFFFFFF AND PUSH4 0xB187BD26 PUSH1 0x40 MLOAD DUP2 PUSH4 0xFFFFFFFF AND PUSH1 0xE0 SHL DUP2 MSTORE PUSH1 0x4 ADD PUSH1 0x20 PUSH1 0x40 MLOAD DUP1 DUP4 SUB DUP2 DUP7 GAS STATICCALL ISZERO DUP1 ISZERO PUSH2 0xF27 JUMPI RETURNDATASIZE PUSH1 0x0 DUP1 RETURNDATACOPY RETURNDATASIZE PUSH1 0x0 REVERT JUMPDEST POP POP POP POP PUSH1 0x40 MLOAD RETURNDATASIZE PUSH1 0x1F NOT PUSH1 0x1F DUP3 ADD AND DUP3 ADD DUP1 PUSH1 0x40 MSTORE POP DUP2 ADD SWAP1 PUSH2 0xF4B SWAP2 SWAP1 PUSH2 0x3622 JUMP JUMPDEST ISZERO PUSH2 0xF8B JUMPI PUSH1 0x40 MLOAD PUSH32 0x8C379A000000000000000000000000000000000000000000000000000000000 DUP2 MSTORE PUSH1 0x4 ADD PUSH2 0xF82 SWAP1 PUSH2 0x36C1 JUMP JUMPDEST PUSH1 0x40 MLOAD DUP1 SWAP2 SUB SWAP1 REVERT JUMPDEST PUSH1 0x8 PUSH1 0x0 SWAP1 SLOAD SWAP1 PUSH2 0x100 EXP SWAP1 DIV PUSH1 0xFF AND PUSH2 0xFDA JUMPI PUSH1 0x40 MLOAD PUSH32 0x8C379A000000000000000000000000000000000000000000000000000000000 DUP2 MSTORE PUSH1 0x4 ADD PUSH2 0xFD1 SWAP1 PUSH2 0x3753 JUMP JUMPDEST PUSH1 0x40 MLOAD DUP1 SWAP2 SUB SWAP1 REVERT JUMPDEST PUSH1 0x1 PUSH1 0x8 PUSH1 0x1 SWAP1 SLOAD SWAP1 PUSH2 0x100 EXP SWAP1 DIV PUSH1 0xFF AND PUSH1 0x2 DUP2 GT ISZERO PUSH2 0xFFE JUMPI PUSH2 0xFFD PUSH2 0x3773 JUMP JUMPDEST JUMPDEST DUP2 PUSH1 0x2 DUP2 GT ISZERO PUSH2 0x1011 JUMPI PUSH2 0x1010 PUSH2 0x3773 JUMP JUMPDEST JUMPDEST EQ PUSH2 0x1051 JUMPI PUSH1 0x40 MLOAD PUSH32 0x8C379A000000000000000000000000000000000000000000000000000000000 DUP2 MSTORE PUSH1 0x4 ADD PUSH2 0x1048 SWAP1 PUSH2 0x3814 JUMP JUMPDEST PUSH1 0x40 MLOAD DUP1 SWAP2 SUB SWAP1 REVERT JUMPDEST PUSH2 0x105A DUP4 PUSH2 0x2B34 JUMP JUMPDEST POP POP POP JUMP JUMPDEST PUSH2 0x1067 PUSH2 0x28F6 JUMP JUMPDEST PUSH20 0xFFFFFFFFFFFFFFFFFFFFFFFFFFFFFFFFFFFFFFFF AND PUSH2 0x1085 PUSH2 0x16BE JUMP JUMPDEST PUSH20 0xFFFFFFFFFFFFFFFFFFFFFFFFFFFFFFFFFFFFFFFF AND EQ PUSH2 0x10DB JUMPI PUSH1 0x40 MLOAD PUSH32 0x8C379A000000000000000000000000000000000000000000000000000000000 DUP2 MSTORE PUSH1 0x4 ADD PUSH2 0x10D2 SWAP1 PUSH2 0x38EC JUMP JUMPDEST PUSH1 0x40 MLOAD DUP1 SWAP2 SUB SWAP1 REVERT JUMPDEST PUSH1 0x4 PUSH1 0x0 SWAP1 SLOAD SWAP1 PUSH2 0x100 EXP SWAP1 DIV PUSH1 0xFF AND PUSH2 0x112A JUMPI PUSH1 0x40 MLOAD PUSH32 0x8C379A000000000000000000000000000000000000000000000000000000000 DUP2 MSTORE PUSH1 0x4 ADD PUSH2 0x1121 SWAP1 PUSH2 0x35ED JUMP JUMPDEST PUSH1 0x40 MLOAD DUP1 SWAP2 SUB SWAP1 REVERT JUMPDEST PUSH1 0x5 PUSH1 0x0 SWAP1 SLOAD SWAP1 PUSH2 0x100 EXP SWAP1 DIV PUSH20 0xFFFFFFFFFFFFFFFFFFFFFFFFFFFFFFFFFFFFFFFF AND PUSH20 0xFFFFFFFFFFFFFFFFFFFFFFFFFFFFFFFFFFFFFFFF AND DUP2 PUSH20 0xFFFFFFFFFFFFFFFFFFFFFFFFFFFFFFFFFFFFFFFF AND SUB PUSH2 0x11BA JUMPI PUSH1 0x40 MLOAD PUSH32 0x8C379A000000000000000000000000000000000000000000000000000000000 DUP2 MSTORE PUSH1 0x4 ADD PUSH2 0x11B1 SWAP1 PUSH2 0x39DF JUMP JUMPDEST PUSH1 0x40 MLOAD DUP1 SWAP2 SUB SWAP1 REVERT JUMPDEST PUSH1 0x4 PUSH1 0x1 SWAP1 SLOAD SWAP1 PUSH2 0x100 EXP SWAP1 DIV PUSH20 0xFFFFFFFFFFFFFFFFFFFFFFFFFFFFFFFFFFFFFFFF AND PUSH20 0xFFFFFFFFFFFFFFFFFFFFFFFFFFFFFFFFFFFFFFFF AND DUP2 PUSH20 0xFFFFFFFFFFFFFFFFFFFFFFFFFFFFFFFFFFFFFFFF AND SUB PUSH2 0x124A JUMPI PUSH1 0x40 MLOAD PUSH32 0x8C379A000000000000000000000000000000000000000000000000000000000 DUP2 MSTORE PUSH1 0x4 ADD PUSH2 0x1241 SWAP1 PUSH2 0x39DF JUMP JUMPDEST PUSH1 0x40 MLOAD DUP1 SWAP2 SUB SWAP1 REVERT JUMPDEST PUSH1 0x0 DUP2 PUSH20 0xFFFFFFFFFFFFFFFFFFFFFFFFFFFFFFFFFFFFFFFF AND PUSH4 0x70A08231 ADDRESS PUSH1 0x40 MLOAD DUP3 PUSH4 0xFFFFFFFF AND PUSH1 0xE0 SHL DUP2 MSTORE PUSH1 0x4 ADD PUSH2 0x1285 SWAP2 SWAP1 PUSH2 0x32FD JUMP JUMPDEST PUSH1 0x20 PUSH1 0x40 MLOAD DUP1 DUP4 SUB DUP2 DUP7 GAS STATICCALL ISZERO DUP1 ISZERO PUSH2 0x12A2 JUMPI RETURNDATASIZE PUSH1 0x0 DUP1 RETURNDATACOPY RETURNDATASIZE PUSH1 0x0 REVERT JUMPDEST POP POP POP POP PUSH1 0x40 MLOAD RETURNDATASIZE PUSH1 0x1F NOT PUSH1 0x1F DUP3 ADD AND DUP3 ADD DUP1 PUSH1 0x40 MSTORE POP DUP2 ADD SWAP1 PUSH2 0x12C6 SWAP2 SWAP1 PUSH2 0x3921 JUMP JUMPDEST SWAP1 POP PUSH1 0x0 DUP2 GT ISZERO PUSH2 0x12FF JUMPI PUSH2 0x12FE PUSH1 0x4 PUSH1 0x1 SWAP1 SLOAD SWAP1 PUSH2 0x100 EXP SWAP1 DIV PUSH20 0xFFFFFFFFFFFFFFFFFFFFFFFFFFFFFFFFFFFFFFFF AND CALLER DUP4 PUSH2 0x29FE JUMP JUMPDEST JUMPDEST POP POP JUMP JUMPDEST PUSH1 0x0 PUSH32 0x0 PUSH20 0xFFFFFFFFFFFFFFFFFFFFFFFFFFFFFFFFFFFFFFFF AND CALLER PUSH20 0xFFFFFFFFFFFFFFFFFFFFFFFFFFFFFFFFFFFFFFFF AND EQ PUSH2 0x1393 JUMPI PUSH1 0x40 MLOAD PUSH32 0x8C379A000000000000000000000000000000000000000000000000000000000 DUP2 MSTORE PUSH1 0x4 ADD PUSH2 0x138A SWAP1 PUSH2 0x39DF JUMP JUMPDEST PUSH1 0x40 MLOAD DUP1 SWAP2 SUB SWAP1 REVERT JUMPDEST PUSH1 0x4 PUSH1 0x0 SWAP1 SLOAD SWAP1 PUSH2 0x100 EXP SWAP1 DIV PUSH1 0xFF AND ISZERO PUSH2 0x13E3 JUMPI PUSH1 0x40 MLOAD PUSH32 0x8C379A000000000000000000000000000000000000000000000000000000000 DUP2 MSTORE PUSH1 0x4 ADD PUSH2 0x13DA SWAP1 PUSH2 0x3A71 JUMP JUMPDEST PUSH1 0x40 MLOAD DUP1 SWAP2 SUB SWAP1 REVERT JUMPDEST TIMESTAMP DUP5 LT PUSH2 0x1425 JUMPI PUSH1 0x40 MLOAD PUSH32 0x8C379A000000000000000000000000000000000000000000000000000000000 DUP2 MSTORE PUSH1 0x4 ADD PUSH2 0x141C SWAP1 PUSH2 0x3ADD JUMP JUMPDEST PUSH1 0x40 MLOAD DUP1 SWAP2 SUB SWAP1 REVERT JUMPDEST DUP6 DUP9 PUSH20 0xFFFFFFFFFFFFFFFFFFFFFFFFFFFFFFFFFFFFFFFF AND PUSH4 0x70A08231 ADDRESS PUSH1 0x40 MLOAD DUP3 PUSH4 0xFFFFFFFF AND PUSH1 0xE0 SHL DUP2 MSTORE PUSH1 0x4 ADD PUSH2 0x145F SWAP2 SWAP1 PUSH2 0x32FD JUMP JUMPDEST PUSH1 0x20 PUSH1 0x40 MLOAD DUP1 DUP4 SUB DUP2 DUP7 GAS STATICCALL ISZERO DUP1 ISZERO PUSH2 0x147C JUMPI RETURNDATASIZE PUSH1 0x0 DUP1 RETURNDATACOPY RETURNDATASIZE PUSH1 0x0 REVERT JUMPDEST POP POP POP POP PUSH1 0x40 MLOAD RETURNDATASIZE PUSH1 0x1F NOT PUSH1 0x1F DUP3 ADD AND DUP3 ADD DUP1 PUSH1 0x40 MSTORE POP DUP2 ADD SWAP1 PUSH2 0x14A0 SWAP2 SWAP1 PUSH2 0x3921 JUMP JUMPDEST LT ISZERO PUSH2 0x14E1 JUMPI PUSH1 0x40 MLOAD PUSH32 0x8C379A000000000000000000000000000000000000000000000000000000000 DUP2 MSTORE PUSH1 0x4 ADD PUSH2 0x14D8 SWAP1 PUSH2 0x3B6F JUMP JUMPDEST PUSH1 0x40 MLOAD DUP1 SWAP2 SUB SWAP1 REVERT JUMPDEST DUP4 PUSH1 0x3 DUP2 SWAP1 SSTORE POP DUP8 PUSH1 0x4 PUSH1 0x1 PUSH2 0x100 EXP DUP2 SLOAD DUP2 PUSH20 0xFFFFFFFFFFFFFFFFFFFFFFFFFFFFFFFFFFFFFFFF MUL NOT AND SWAP1 DUP4 PUSH20 0xFFFFFFFFFFFFFFFFFFFFFFFFFFFFFFFFFFFFFFFF AND MUL OR SWAP1 SSTORE POP DUP7 PUSH1 0x5 PUSH1 0x0 PUSH2 0x100 EXP DUP2 SLOAD DUP2 PUSH20 0xFFFFFFFFFFFFFFFFFFFFFFFFFFFFFFFFFFFFFFFF MUL NOT AND SWAP1 DUP4 PUSH20 0xFFFFFFFFFFFFFFFFFFFFFFFFFFFFFFFFFFFFFFFF AND MUL OR SWAP1 SSTORE POP DUP6 PUSH1 0x6 DUP2 SWAP1 SSTORE POP DUP5 PUSH1 0x7 DUP2 SWAP1 SSTORE POP DUP9 PUSH1 0x8 PUSH1 0x1 PUSH2 0x100 EXP DUP2 SLOAD DUP2 PUSH1 0xFF MUL NOT AND SWAP1 DUP4 PUSH1 0x2 DUP2 GT ISZERO PUSH2 0x159D JUMPI PUSH2 0x159C PUSH2 0x3773 JUMP JUMPDEST JUMPDEST MUL OR SWAP1 SSTORE POP DUP3 PUSH1 0x8 PUSH1 0x0 PUSH2 0x100 EXP DUP2 SLOAD DUP2 PUSH1 0xFF MUL NOT AND SWAP1 DUP4 ISZERO ISZERO MUL OR SWAP1 SSTORE POP DUP2 PUSH1 0x2 PUSH1 0x0 PUSH2 0x100 EXP DUP2 SLOAD DUP2 PUSH20 0xFFFFFFFFFFFFFFFFFFFFFFFFFFFFFFFFFFFFFFFF MUL NOT AND SWAP1 DUP4 PUSH20 0xFFFFFFFFFFFFFFFFFFFFFFFFFFFFFFFFFFFFFFFF AND MUL OR SWAP1 SSTORE POP PUSH1 0x1 PUSH1 0x4 PUSH1 0x0 PUSH2 0x100 EXP DUP2 SLOAD DUP2 PUSH1 0xFF MUL NOT AND SWAP1 DUP4 ISZERO ISZERO MUL OR SWAP1 SSTORE POP PUSH1 0x4 PUSH1 0x0 SWAP1 SLOAD SWAP1 PUSH2 0x100 EXP SWAP1 DIV PUSH1 0xFF AND SWAP1 POP SWAP9 SWAP8 POP POP POP POP POP POP POP POP JUMP JUMPDEST PUSH2 0x163E PUSH2 0x28F6 JUMP JUMPDEST PUSH20 0xFFFFFFFFFFFFFFFFFFFFFFFFFFFFFFFFFFFFFFFF AND PUSH2 0x165C PUSH2 0x16BE JUMP JUMPDEST PUSH20 0xFFFFFFFFFFFFFFFFFFFFFFFFFFFFFFFFFFFFFFFF AND EQ PUSH2 0x16B2 JUMPI PUSH1 0x40 MLOAD PUSH32 0x8C379A000000000000000000000000000000000000000000000000000000000 DUP2 MSTORE PUSH1 0x4 ADD PUSH2 0x16A9 SWAP1 PUSH2 0x38EC JUMP JUMPDEST PUSH1 0x40 MLOAD DUP1 SWAP2 SUB SWAP1 REVERT JUMPDEST PUSH2 0x16BC PUSH1 0x0 PUSH2 0x2E65 JUMP JUMPDEST JUMP JUMPDEST PUSH1 0x0 DUP1 PUSH1 0x0 SWAP1 SLOAD SWAP1 PUSH2 0x100 EXP SWAP1 DIV PUSH20 0xFFFFFFFFFFFFFFFFFFFFFFFFFFFFFFFFFFFFFFFF AND SWAP1 POP SWAP1 JUMP JUMPDEST TIMESTAMP PUSH1 0x3 SLOAD LT ISZERO DUP1 ISZERO PUSH2 0x16FC JUMPI POP PUSH1 0x7 SLOAD PUSH1 0x1 SLOAD LT JUMPDEST PUSH2 0x173B JUMPI PUSH1 0x40 MLOAD PUSH32 0x8C379A000000000000000000000000000000000000000000000000000000000 DUP2 MSTORE PUSH1 0x4 ADD PUSH2 0x1732 SWAP1 PUSH2 0x3581 JUMP JUMPDEST PUSH1 0x40 MLOAD DUP1 SWAP2 SUB SWAP1 REVERT JUMPDEST PUSH1 0x4 PUSH1 0x0 SWAP1 SLOAD SWAP1 PUSH2 0x100 EXP SWAP1 DIV PUSH1 0xFF AND PUSH2 0x178A JUMPI PUSH1 0x40 MLOAD PUSH32 0x8C379A000000000000000000000000000000000000000000000000000000000 DUP2 MSTORE PUSH1 0x4 ADD PUSH2 0x1781 SWAP1 PUSH2 0x35ED JUMP JUMPDEST PUSH1 0x40 MLOAD DUP1 SWAP2 SUB SWAP1 REVERT JUMPDEST PUSH1 0x0 PUSH32 0x0 SWAP1 POP DUP1 PUSH20 0xFFFFFFFFFFFFFFFFFFFFFFFFFFFFFFFFFFFFFFFF AND PUSH4 0xB187BD26 PUSH1 0x40 MLOAD DUP2 PUSH4 0xFFFFFFFF AND PUSH1 0xE0 SHL DUP2 MSTORE PUSH1 0x4 ADD PUSH1 0x20 PUSH1 0x40 MLOAD DUP1 DUP4 SUB DUP2 DUP7 GAS STATICCALL ISZERO DUP1 ISZERO PUSH2 0x17FA JUMPI RETURNDATASIZE PUSH1 0x0 DUP1 RETURNDATACOPY RETURNDATASIZE PUSH1 0x0 REVERT JUMPDEST POP POP POP POP PUSH1 0x40 MLOAD RETURNDATASIZE PUSH1 0x1F NOT PUSH1 0x1F DUP3 ADD AND DUP3 ADD DUP1 PUSH1 0x40 MSTORE POP DUP2 ADD SWAP1 PUSH2 0x181E SWAP2 SWAP1 PUSH2 0x3622 JUMP JUMPDEST ISZERO PUSH2 0x185E JUMPI PUSH1 0x40 MLOAD PUSH32 0x8C379A000000000000000000000000000000000000000000000000000000000 DUP2 MSTORE PUSH1 0x4 ADD PUSH2 0x1855 SWAP1 PUSH2 0x36C1 JUMP JUMPDEST PUSH1 0x40 MLOAD DUP1 SWAP2 SUB SWAP1 REVERT JUMPDEST PUSH1 0x0 PUSH1 0x8 PUSH1 0x1 SWAP1 SLOAD SWAP1 PUSH2 0x100 EXP SWAP1 DIV PUSH1 0xFF AND PUSH1 0x2 DUP2 GT ISZERO PUSH2 0x1882 JUMPI PUSH2 0x1881 PUSH2 0x3773 JUMP JUMPDEST JUMPDEST DUP2 PUSH1 0x2 DUP2 GT ISZERO PUSH2 0x1895 JUMPI PUSH2 0x1894 PUSH2 0x3773 JUMP JUMPDEST JUMPDEST EQ PUSH2 0x18D5 JUMPI PUSH1 0x40 MLOAD PUSH32 0x8C379A000000000000000000000000000000000000000000000000000000000 DUP2 MSTORE PUSH1 0x4 ADD PUSH2 0x18CC SWAP1 PUSH2 0x3814 JUMP JUMPDEST PUSH1 0x40 MLOAD DUP1 SWAP2 SUB SWAP1 REVERT JUMPDEST PUSH2 0x18E0 PUSH1 0x7 SLOAD PUSH2 0x2196 JUMP JUMPDEST POP POP JUMP JUMPDEST PUSH1 0x0 DUP1 PUSH1 0x4 PUSH1 0x0 SWAP1 SLOAD SWAP1 PUSH2 0x100 EXP SWAP1 DIV PUSH1 0xFF AND PUSH2 0x1936 JUMPI PUSH1 0x40 MLOAD PUSH32 0x8C379A000000000000000000000000000000000000000000000000000000000 DUP2 MSTORE PUSH1 0x4 ADD PUSH2 0x192D SWAP1 PUSH2 0x35ED JUMP JUMPDEST PUSH1 0x40 MLOAD DUP1 SWAP2 SUB SWAP1 REVERT JUMPDEST PUSH1 0x4 PUSH1 0x1 SWAP1 SLOAD SWAP1 PUSH2 0x100 EXP SWAP1 DIV PUSH20 0xFFFFFFFFFFFFFFFFFFFFFFFFFFFFFFFFFFFFFFFF AND PUSH1 0x5 PUSH1 0x0 SWAP1 SLOAD SWAP1 PUSH2 0x100 EXP SWAP1 DIV PUSH20 0xFFFFFFFFFFFFFFFFFFFFFFFFFFFFFFFFFFFFFFFF AND SWAP2 POP SWAP2 POP SWAP1 SWAP2 JUMP JUMPDEST TIMESTAMP PUSH1 0x3 SLOAD LT ISZERO DUP1 ISZERO PUSH2 0x1999 JUMPI POP PUSH1 0x7 SLOAD PUSH1 0x1 SLOAD LT JUMPDEST PUSH2 0x19D8 JUMPI PUSH1 0x40 MLOAD PUSH32 0x8C379A000000000000000000000000000000000000000000000000000000000 DUP2 MSTORE PUSH1 0x4 ADD PUSH2 0x19CF SWAP1 PUSH2 0x3581 JUMP JUMPDEST PUSH1 0x40 MLOAD DUP1 SWAP2 SUB SWAP1 REVERT JUMPDEST PUSH1 0x4 PUSH1 0x0 SWAP1 SLOAD SWAP1 PUSH2 0x100 EXP SWAP1 DIV PUSH1 0xFF AND PUSH2 0x1A27 JUMPI PUSH1 0x40 MLOAD PUSH32 0x8C379A000000000000000000000000000000000000000000000000000000000 DUP2 MSTORE PUSH1 0x4 ADD PUSH2 0x1A1E SWAP1 PUSH2 0x35ED JUMP JUMPDEST PUSH1 0x40 MLOAD DUP1 SWAP2 SUB SWAP1 REVERT JUMPDEST PUSH1 0x0 PUSH32 0x0 SWAP1 POP DUP1 PUSH20 0xFFFFFFFFFFFFFFFFFFFFFFFFFFFFFFFFFFFFFFFF AND PUSH4 0xB187BD26 PUSH1 0x40 MLOAD DUP2 PUSH4 0xFFFFFFFF AND PUSH1 0xE0 SHL DUP2 MSTORE PUSH1 0x4 ADD PUSH1 0x20 PUSH1 0x40 MLOAD DUP1 DUP4 SUB DUP2 DUP7 GAS STATICCALL ISZERO DUP1 ISZERO PUSH2 0x1A97 JUMPI RETURNDATASIZE PUSH1 0x0 DUP1 RETURNDATACOPY RETURNDATASIZE PUSH1 0x0 REVERT JUMPDEST POP POP POP POP PUSH1 0x40 MLOAD RETURNDATASIZE PUSH1 0x1F NOT PUSH1 0x1F DUP3 ADD AND DUP3 ADD DUP1 PUSH1 0x40 MSTORE POP DUP2 ADD SWAP1 PUSH2 0x1ABB SWAP2 SWAP1 PUSH2 0x3622 JUMP JUMPDEST ISZERO PUSH2 0x1AFB JUMPI PUSH1 0x40 MLOAD PUSH32 0x8C379A000000000000000000000000000000000000000000000000000000000 DUP2 MSTORE PUSH1 0x4 ADD PUSH2 0x1AF2 SWAP1 PUSH2 0x36C1 JUMP JUMPDEST PUSH1 0x40 MLOAD DUP1 SWAP2 SUB SWAP1 REVERT JUMPDEST PUSH1 0x2 PUSH1 0x8 PUSH1 0x1 SWAP1 SLOAD SWAP1 PUSH2 0x100 EXP SWAP1 DIV PUSH1 0xFF AND PUSH1 0x2 DUP2 GT ISZERO PUSH2 0x1B1F JUMPI PUSH2 0x1B1E PUSH2 0x3773 JUMP JUMPDEST JUMPDEST DUP2 PUSH1 0x2 DUP2 GT ISZERO PUSH2 0x1B32 JUMPI PUSH2 0x1B31 PUSH2 0x3773 JUMP JUMPDEST JUMPDEST EQ PUSH2 0x1B72 JUMPI PUSH1 0x40 MLOAD PUSH32 0x8C379A000000000000000000000000000000000000000000000000000000000 DUP2 MSTORE PUSH1 0x4 ADD PUSH2 0x1B69 SWAP1 PUSH2 0x3814 JUMP JUMPDEST PUSH1 0x40 MLOAD DUP1 SWAP2 SUB SWAP1 REVERT JUMPDEST PUSH2 0x1B7D PUSH1 0x7 SLOAD PUSH2 0x257E JUMP JUMPDEST POP POP JUMP JUMPDEST PUSH32 0x0 DUP2 JUMP JUMPDEST TIMESTAMP PUSH1 0x3 SLOAD LT ISZERO DUP1 ISZERO PUSH2 0x1BBA JUMPI POP PUSH1 0x7 SLOAD PUSH1 0x1 SLOAD LT JUMPDEST PUSH2 0x1BF9 JUMPI PUSH1 0x40 MLOAD PUSH32 0x8C379A000000000000000000000000000000000000000000000000000000000 DUP2 MSTORE PUSH1 0x4 ADD PUSH2 0x1BF0 SWAP1 PUSH2 0x3581 JUMP JUMPDEST PUSH1 0x40 MLOAD DUP1 SWAP2 SUB SWAP1 REVERT JUMPDEST PUSH1 0x4 PUSH1 0x0 SWAP1 SLOAD SWAP1 PUSH2 0x100 EXP SWAP1 DIV PUSH1 0xFF AND PUSH2 0x1C48 JUMPI PUSH1 0x40 MLOAD PUSH32 0x8C379A000000000000000000000000000000000000000000000000000000000 DUP2 MSTORE PUSH1 0x4 ADD PUSH2 0x1C3F SWAP1 PUSH2 0x35ED JUMP JUMPDEST PUSH1 0x40 MLOAD DUP1 SWAP2 SUB SWAP1 REVERT JUMPDEST PUSH1 0x0 PUSH32 0x0 SWAP1 POP DUP1 PUSH20 0xFFFFFFFFFFFFFFFFFFFFFFFFFFFFFFFFFFFFFFFF AND PUSH4 0xB187BD26 PUSH1 0x40 MLOAD DUP2 PUSH4 0xFFFFFFFF AND PUSH1 0xE0 SHL DUP2 MSTORE PUSH1 0x4 ADD PUSH1 0x20 PUSH1 0x40 MLOAD DUP1 DUP4 SUB DUP2 DUP7 GAS STATICCALL ISZERO DUP1 ISZERO PUSH2 0x1CB8 JUMPI RETURNDATASIZE PUSH1 0x0 DUP1 RETURNDATACOPY RETURNDATASIZE PUSH1 0x0 REVERT JUMPDEST POP POP POP POP PUSH1 0x40 MLOAD RETURNDATASIZE PUSH1 0x1F NOT PUSH1 0x1F DUP3 ADD AND DUP3 ADD DUP1 PUSH1 0x40 MSTORE POP DUP2 ADD SWAP1 PUSH2 0x1CDC SWAP2 SWAP1 PUSH2 0x3622 JUMP JUMPDEST ISZERO PUSH2 0x1D1C JUMPI PUSH1 0x40 MLOAD PUSH32 0x8C379A000000000000000000000000000000000000000000000000000000000 DUP2 MSTORE PUSH1 0x4 ADD PUSH2 0x1D13 SWAP1 PUSH2 0x36C1 JUMP JUMPDEST PUSH1 0x40 MLOAD DUP1 SWAP2 SUB SWAP1 REVERT JUMPDEST PUSH1 0x1 PUSH1 0x8 PUSH1 0x1 SWAP1 SLOAD SWAP1 PUSH2 0x100 EXP SWAP1 DIV PUSH1 0xFF AND PUSH1 0x2 DUP2 GT ISZERO PUSH2 0x1D40 JUMPI PUSH2 0x1D3F PUSH2 0x3773 JUMP JUMPDEST JUMPDEST DUP2 PUSH1 0x2 DUP2 GT ISZERO PUSH2 0x1D53 JUMPI PUSH2 0x1D52 PUSH2 0x3773 JUMP JUMPDEST JUMPDEST EQ PUSH2 0x1D93 JUMPI PUSH1 0x40 MLOAD PUSH32 0x8C379A000000000000000000000000000000000000000000000000000000000 DUP2 MSTORE PUSH1 0x4 ADD PUSH2 0x1D8A SWAP1 PUSH2 0x3814 JUMP JUMPDEST PUSH1 0x40 MLOAD DUP1 SWAP2 SUB SWAP1 REVERT JUMPDEST PUSH2 0x1D9E PUSH1 0x7 SLOAD PUSH2 0x2B34 JUMP JUMPDEST POP POP JUMP JUMPDEST PUSH1 0x0 PUSH1 0x4 PUSH1 0x0 SWAP1 SLOAD SWAP1 PUSH2 0x100 EXP SWAP1 DIV PUSH1 0xFF AND PUSH2 0x1DF3 JUMPI PUSH1 0x40 MLOAD PUSH32 0x8C379A000000000000000000000000000000000000000000000000000000000 DUP2 MSTORE PUSH1 0x4 ADD PUSH2 0x1DEA SWAP1 PUSH2 0x35ED JUMP JUMPDEST PUSH1 0x40 MLOAD DUP1 SWAP2 SUB SWAP1 REVERT JUMPDEST PUSH2 0x1DFC DUP3 PUSH2 0x2F29 JUMP JUMPDEST SWAP1 POP SWAP2 SWAP1 POP JUMP JUMPDEST PUSH1 0x60 DUP1 PUSH1 0x60 PUSH1 0x4 PUSH1 0x0 SWAP1 SLOAD SWAP1 PUSH2 0x100 EXP SWAP1 DIV PUSH1 0xFF AND PUSH2 0x1E57 JUMPI PUSH1 0x40 MLOAD PUSH32 0x8C379A000000000000000000000000000000000000000000000000000000000 DUP2 MSTORE PUSH1 0x4 ADD PUSH2 0x1E4E SWAP1 PUSH2 0x35ED JUMP JUMPDEST PUSH1 0x40 MLOAD DUP1 SWAP2 SUB SWAP1 REVERT JUMPDEST PUSH1 0x0 PUSH1 0x9 DUP1 SLOAD SWAP1 POP PUSH8 0xFFFFFFFFFFFFFFFF DUP2 GT ISZERO PUSH2 0x1E78 JUMPI PUSH2 0x1E77 PUSH2 0x3B8F JUMP JUMPDEST JUMPDEST PUSH1 0x40 MLOAD SWAP1 DUP1 DUP3 MSTORE DUP1 PUSH1 0x20 MUL PUSH1 0x20 ADD DUP3 ADD PUSH1 0x40 MSTORE DUP1 ISZERO PUSH2 0x1EA6 JUMPI DUP2 PUSH1 0x20 ADD PUSH1 0x20 DUP3 MUL DUP1 CALLDATASIZE DUP4 CALLDATACOPY DUP1 DUP3 ADD SWAP2 POP POP SWAP1 POP JUMPDEST POP SWAP1 POP PUSH1 0x0 PUSH1 0x9 DUP1 SLOAD SWAP1 POP PUSH8 0xFFFFFFFFFFFFFFFF DUP2 GT ISZERO PUSH2 0x1ECA JUMPI PUSH2 0x1EC9 PUSH2 0x3B8F JUMP JUMPDEST JUMPDEST PUSH1 0x40 MLOAD SWAP1 DUP1 DUP3 MSTORE DUP1 PUSH1 0x20 MUL PUSH1 0x20 ADD DUP3 ADD PUSH1 0x40 MSTORE DUP1 ISZERO PUSH2 0x1EF8 JUMPI DUP2 PUSH1 0x20 ADD PUSH1 0x20 DUP3 MUL DUP1 CALLDATASIZE DUP4 CALLDATACOPY DUP1 DUP3 ADD SWAP2 POP POP SWAP1 POP JUMPDEST POP SWAP1 POP PUSH1 0x0 PUSH1 0x9 DUP1 SLOAD SWAP1 POP PUSH8 0xFFFFFFFFFFFFFFFF DUP2 GT ISZERO PUSH2 0x1F1C JUMPI PUSH2 0x1F1B PUSH2 0x3B8F JUMP JUMPDEST JUMPDEST PUSH1 0x40 MLOAD SWAP1 DUP1 DUP3 MSTORE DUP1 PUSH1 0x20 MUL PUSH1 0x20 ADD DUP3 ADD PUSH1 0x40 MSTORE DUP1 ISZERO PUSH2 0x1F4A JUMPI DUP2 PUSH1 0x20 ADD PUSH1 0x20 DUP3 MUL DUP1 CALLDATASIZE DUP4 CALLDATACOPY DUP1 DUP3 ADD SWAP2 POP POP SWAP1 POP JUMPDEST POP SWAP1 POP PUSH1 0x0 JUMPDEST PUSH1 0x9 DUP1 SLOAD SWAP1 POP DUP2 LT ISZERO PUSH2 0x208D JUMPI PUSH1 0x9 DUP2 DUP2 SLOAD DUP2 LT PUSH2 0x1F71 JUMPI PUSH2 0x1F70 PUSH2 0x3BBE JUMP JUMPDEST JUMPDEST SWAP1 PUSH1 0x0 MSTORE PUSH1 0x20 PUSH1 0x0 KECCAK256 SWAP1 PUSH1 0x3 MUL ADD PUSH1 0x0 ADD PUSH1 0x0 SWAP1 SLOAD SWAP1 PUSH2 0x100 EXP SWAP1 DIV PUSH20 0xFFFFFFFFFFFFFFFFFFFFFFFFFFFFFFFFFFFFFFFF AND DUP5 DUP3 DUP2 MLOAD DUP2 LT PUSH2 0x1FB6 JUMPI PUSH2 0x1FB5 PUSH2 0x3BBE JUMP JUMPDEST JUMPDEST PUSH1 0x20 MUL PUSH1 0x20 ADD ADD SWAP1 PUSH20 0xFFFFFFFFFFFFFFFFFFFFFFFFFFFFFFFFFFFFFFFF AND SWAP1 DUP2 PUSH20 0xFFFFFFFFFFFFFFFFFFFFFFFFFFFFFFFFFFFFFFFF AND DUP2 MSTORE POP POP PUSH1 0x9 DUP2 DUP2 SLOAD DUP2 LT PUSH2 0x2004 JUMPI PUSH2 0x2003 PUSH2 0x3BBE JUMP JUMPDEST JUMPDEST SWAP1 PUSH1 0x0 MSTORE PUSH1 0x20 PUSH1 0x0 KECCAK256 SWAP1 PUSH1 0x3 MUL ADD PUSH1 0x1 ADD SLOAD DUP4 DUP3 DUP2 MLOAD DUP2 LT PUSH2 0x2029 JUMPI PUSH2 0x2028 PUSH2 0x3BBE JUMP JUMPDEST JUMPDEST PUSH1 0x20 MUL PUSH1 0x20 ADD ADD DUP2 DUP2 MSTORE POP POP PUSH1 0x9 DUP2 DUP2 SLOAD DUP2 LT PUSH2 0x2049 JUMPI PUSH2 0x2048 PUSH2 0x3BBE JUMP JUMPDEST JUMPDEST SWAP1 PUSH1 0x0 MSTORE PUSH1 0x20 PUSH1 0x0 KECCAK256 SWAP1 PUSH1 0x3 MUL ADD PUSH1 0x2 ADD SLOAD DUP3 DUP3 DUP2 MLOAD DUP2 LT PUSH2 0x206E JUMPI PUSH2 0x206D PUSH2 0x3BBE JUMP JUMPDEST JUMPDEST PUSH1 0x20 MUL PUSH1 0x20 ADD ADD DUP2 DUP2 MSTORE POP POP DUP1 DUP1 PUSH2 0x2085 SWAP1 PUSH2 0x3C1C JUMP JUMPDEST SWAP2 POP POP PUSH2 0x1F50 JUMP JUMPDEST POP DUP3 DUP3 DUP3 SWAP6 POP SWAP6 POP SWAP6 POP POP POP POP SWAP1 SWAP2 SWAP3 JUMP JUMPDEST PUSH2 0x20A7 PUSH2 0x28F6 JUMP JUMPDEST PUSH20 0xFFFFFFFFFFFFFFFFFFFFFFFFFFFFFFFFFFFFFFFF AND PUSH2 0x20C5 PUSH2 0x16BE JUMP JUMPDEST PUSH20 0xFFFFFFFFFFFFFFFFFFFFFFFFFFFFFFFFFFFFFFFF AND EQ PUSH2 0x211B JUMPI PUSH1 0x40 MLOAD PUSH32 0x8C379A000000000000000000000000000000000000000000000000000000000 DUP2 MSTORE PUSH1 0x4 ADD PUSH2 0x2112 SWAP1 PUSH2 0x38EC JUMP JUMPDEST PUSH1 0x40 MLOAD DUP1 SWAP2 SUB SWAP1 REVERT JUMPDEST PUSH1 0x0 PUSH20 0xFFFFFFFFFFFFFFFFFFFFFFFFFFFFFFFFFFFFFFFF AND DUP2 PUSH20 0xFFFFFFFFFFFFFFFFFFFFFFFFFFFFFFFFFFFFFFFF AND SUB PUSH2 0x218A JUMPI PUSH1 0x40 MLOAD PUSH32 0x8C379A000000000000000000000000000000000000000000000000000000000 DUP2 MSTORE PUSH1 0x4 ADD PUSH2 0x2181 SWAP1 PUSH2 0x3CD6 JUMP JUMPDEST PUSH1 0x40 MLOAD DUP1 SWAP2 SUB SWAP1 REVERT JUMPDEST PUSH2 0x2193 DUP2 PUSH2 0x2E65 JUMP JUMPDEST POP JUMP JUMPDEST DUP1 PUSH1 0x5 PUSH1 0x0 SWAP1 SLOAD SWAP1 PUSH2 0x100 EXP SWAP1 DIV PUSH20 0xFFFFFFFFFFFFFFFFFFFFFFFFFFFFFFFFFFFFFFFF AND PUSH20 0xFFFFFFFFFFFFFFFFFFFFFFFFFFFFFFFFFFFFFFFF AND PUSH4 0x70A08231 CALLER PUSH1 0x40 MLOAD DUP3 PUSH4 0xFFFFFFFF AND PUSH1 0xE0 SHL DUP2 MSTORE PUSH1 0x4 ADD PUSH2 0x21F2 SWAP2 SWAP1 PUSH2 0x32FD JUMP JUMPDEST PUSH1 0x20 PUSH1 0x40 MLOAD DUP1 DUP4 SUB DUP2 DUP7 GAS STATICCALL ISZERO DUP1 ISZERO PUSH2 0x220F JUMPI RETURNDATASIZE PUSH1 0x0 DUP1 RETURNDATACOPY RETURNDATASIZE PUSH1 0x0 REVERT JUMPDEST POP POP POP POP PUSH1 0x40 MLOAD RETURNDATASIZE PUSH1 0x1F NOT PUSH1 0x1F DUP3 ADD AND DUP3 ADD DUP1 PUSH1 0x40 MSTORE POP DUP2 ADD SWAP1 PUSH2 0x2233 SWAP2 SWAP1 PUSH2 0x3921 JUMP JUMPDEST LT ISZERO PUSH2 0x2274 JUMPI PUSH1 0x40 MLOAD PUSH32 0x8C379A000000000000000000000000000000000000000000000000000000000 DUP2 MSTORE PUSH1 0x4 ADD PUSH2 0x226B SWAP1 PUSH2 0x3D68 JUMP JUMPDEST PUSH1 0x40 MLOAD DUP1 SWAP2 SUB SWAP1 REVERT JUMPDEST PUSH1 0x0 PUSH2 0x227F DUP3 PUSH2 0x2F29 JUMP JUMPDEST SWAP1 POP PUSH1 0x0 PUSH1 0x2 PUSH1 0x0 SWAP1 SLOAD SWAP1 PUSH2 0x100 EXP SWAP1 DIV PUSH20 0xFFFFFFFFFFFFFFFFFFFFFFFFFFFFFFFFFFFFFFFF AND SWAP1 POP DUP2 DUP2 PUSH20 0xFFFFFFFFFFFFFFFFFFFFFFFFFFFFFFFFFFFFFFFF AND PUSH4 0x70A08231 ADDRESS PUSH1 0x40 MLOAD DUP3 PUSH4 0xFFFFFFFF AND PUSH1 0xE0 SHL DUP2 MSTORE PUSH1 0x4 ADD PUSH2 0x22E2 SWAP2 SWAP1 PUSH2 0x32FD JUMP JUMPDEST PUSH1 0x20 PUSH1 0x40 MLOAD DUP1 DUP4 SUB DUP2 DUP7 GAS STATICCALL ISZERO DUP1 ISZERO PUSH2 0x22FF JUMPI RETURNDATASIZE PUSH1 0x0 DUP1 RETURNDATACOPY RETURNDATASIZE PUSH1 0x0 REVERT JUMPDEST POP POP POP POP PUSH1 0x40 MLOAD RETURNDATASIZE PUSH1 0x1F NOT PUSH1 0x1F DUP3 ADD AND DUP3 ADD DUP1 PUSH1 0x40 MSTORE POP DUP2 ADD SWAP1 PUSH2 0x2323 SWAP2 SWAP1 PUSH2 0x3921 JUMP JUMPDEST LT ISZERO PUSH2 0x2364 JUMPI PUSH1 0x40 MLOAD PUSH32 0x8C379A000000000000000000000000000000000000000000000000000000000 DUP2 MSTORE PUSH1 0x4 ADD PUSH2 0x235B SWAP1 PUSH2 0x3DFA JUMP JUMPDEST PUSH1 0x40 MLOAD DUP1 SWAP2 SUB SWAP1 REVERT JUMPDEST PUSH1 0x2 PUSH1 0x0 SWAP1 SLOAD SWAP1 PUSH2 0x100 EXP SWAP1 DIV PUSH20 0xFFFFFFFFFFFFFFFFFFFFFFFFFFFFFFFFFFFFFFFF AND PUSH20 0xFFFFFFFFFFFFFFFFFFFFFFFFFFFFFFFFFFFFFFFF AND PUSH4 0x2E1A7D4D DUP4 PUSH1 0x40 MLOAD DUP3 PUSH4 0xFFFFFFFF AND PUSH1 0xE0 SHL DUP2 MSTORE PUSH1 0x4 ADD PUSH2 0x23BF SWAP2 SWAP1 PUSH2 0x3341 JUMP JUMPDEST PUSH1 0x0 PUSH1 0x40 MLOAD DUP1 DUP4 SUB DUP2 PUSH1 0x0 DUP8 DUP1 EXTCODESIZE ISZERO DUP1 ISZERO PUSH2 0x23D9 JUMPI PUSH1 0x0 DUP1 REVERT JUMPDEST POP GAS CALL ISZERO DUP1 ISZERO PUSH2 0x23ED JUMPI RETURNDATASIZE PUSH1 0x0 DUP1 RETURNDATACOPY RETURNDATASIZE PUSH1 0x0 REVERT JUMPDEST POP POP POP POP PUSH2 0x241F PUSH1 0x5 PUSH1 0x0 SWAP1 SLOAD SWAP1 PUSH2 0x100 EXP SWAP1 DIV PUSH20 0xFFFFFFFFFFFFFFFFFFFFFFFFFFFFFFFFFFFFFFFF AND CALLER ADDRESS DUP7 PUSH2 0x2F4D JUMP JUMPDEST PUSH2 0x2429 CALLER DUP4 PUSH2 0x28FE JUMP JUMPDEST PUSH1 0x9 PUSH1 0x40 MLOAD DUP1 PUSH1 0x60 ADD PUSH1 0x40 MSTORE DUP1 CALLER PUSH20 0xFFFFFFFFFFFFFFFFFFFFFFFFFFFFFFFFFFFFFFFF AND DUP2 MSTORE PUSH1 0x20 ADD DUP6 DUP2 MSTORE PUSH1 0x20 ADD DUP5 DUP2 MSTORE POP SWAP1 DUP1 PUSH1 0x1 DUP2 SLOAD ADD DUP1 DUP3 SSTORE DUP1 SWAP2 POP POP PUSH1 0x1 SWAP1 SUB SWAP1 PUSH1 0x0 MSTORE PUSH1 0x20 PUSH1 0x0 KECCAK256 SWAP1 PUSH1 0x3 MUL ADD PUSH1 0x0 SWAP1 SWAP2 SWAP1 SWAP2 SWAP1 SWAP2 POP PUSH1 0x0 DUP3 ADD MLOAD DUP2 PUSH1 0x0 ADD PUSH1 0x0 PUSH2 0x100 EXP DUP2 SLOAD DUP2 PUSH20 0xFFFFFFFFFFFFFFFFFFFFFFFFFFFFFFFFFFFFFFFF MUL NOT AND SWAP1 DUP4 PUSH20 0xFFFFFFFFFFFFFFFFFFFFFFFFFFFFFFFFFFFFFFFF AND MUL OR SWAP1 SSTORE POP PUSH1 0x20 DUP3 ADD MLOAD DUP2 PUSH1 0x1 ADD SSTORE PUSH1 0x40 DUP3 ADD MLOAD DUP2 PUSH1 0x2 ADD SSTORE POP POP PUSH1 0x0 PUSH32 0x0 SWAP1 POP DUP1 PUSH20 0xFFFFFFFFFFFFFFFFFFFFFFFFFFFFFFFFFFFFFFFF AND PUSH4 0xF52701B7 ADDRESS CALLER DUP8 DUP8 PUSH1 0x40 MLOAD DUP6 PUSH4 0xFFFFFFFF AND PUSH1 0xE0 SHL DUP2 MSTORE PUSH1 0x4 ADD PUSH2 0x2546 SWAP5 SWAP4 SWAP3 SWAP2 SWAP1 PUSH2 0x394E JUMP JUMPDEST PUSH1 0x0 PUSH1 0x40 MLOAD DUP1 DUP4 SUB DUP2 PUSH1 0x0 DUP8 DUP1 EXTCODESIZE ISZERO DUP1 ISZERO PUSH2 0x2560 JUMPI PUSH1 0x0 DUP1 REVERT JUMPDEST POP GAS CALL ISZERO DUP1 ISZERO PUSH2 0x2574 JUMPI RETURNDATASIZE PUSH1 0x0 DUP1 RETURNDATACOPY RETURNDATASIZE PUSH1 0x0 REVERT JUMPDEST POP POP POP POP POP POP POP POP JUMP JUMPDEST DUP1 PUSH1 0x5 PUSH1 0x0 SWAP1 SLOAD SWAP1 PUSH2 0x100 EXP SWAP1 DIV PUSH20 0xFFFFFFFFFFFFFFFFFFFFFFFFFFFFFFFFFFFFFFFF AND PUSH20 0xFFFFFFFFFFFFFFFFFFFFFFFFFFFFFFFFFFFFFFFF AND PUSH4 0x70A08231 CALLER PUSH1 0x40 MLOAD DUP3 PUSH4 0xFFFFFFFF AND PUSH1 0xE0 SHL DUP2 MSTORE PUSH1 0x4 ADD PUSH2 0x25DA SWAP2 SWAP1 PUSH2 0x32FD JUMP JUMPDEST PUSH1 0x20 PUSH1 0x40 MLOAD DUP1 DUP4 SUB DUP2 DUP7 GAS STATICCALL ISZERO DUP1 ISZERO PUSH2 0x25F7 JUMPI RETURNDATASIZE PUSH1 0x0 DUP1 RETURNDATACOPY RETURNDATASIZE PUSH1 0x0 REVERT JUMPDEST POP POP POP POP PUSH1 0x40 MLOAD RETURNDATASIZE PUSH1 0x1F NOT PUSH1 0x1F DUP3 ADD AND DUP3 ADD DUP1 PUSH1 0x40 MSTORE POP DUP2 ADD SWAP1 PUSH2 0x261B SWAP2 SWAP1 PUSH2 0x3921 JUMP JUMPDEST LT ISZERO PUSH2 0x265C JUMPI PUSH1 0x40 MLOAD PUSH32 0x8C379A000000000000000000000000000000000000000000000000000000000 DUP2 MSTORE PUSH1 0x4 ADD PUSH2 0x2653 SWAP1 PUSH2 0x3D68 JUMP JUMPDEST PUSH1 0x40 MLOAD DUP1 SWAP2 SUB SWAP1 REVERT JUMPDEST PUSH1 0x0 PUSH2 0x2667 DUP3 PUSH2 0x2F29 JUMP JUMPDEST SWAP1 POP DUP1 PUSH1 0x4 PUSH1 0x1 SWAP1 SLOAD SWAP1 PUSH2 0x100 EXP SWAP1 DIV PUSH20 0xFFFFFFFFFFFFFFFFFFFFFFFFFFFFFFFFFFFFFFFF AND PUSH20 0xFFFFFFFFFFFFFFFFFFFFFFFFFFFFFFFFFFFFFFFF AND PUSH4 0x70A08231 ADDRESS PUSH1 0x40 MLOAD DUP3 PUSH4 0xFFFFFFFF AND PUSH1 0xE0 SHL DUP2 MSTORE PUSH1 0x4 ADD PUSH2 0x26C5 SWAP2 SWAP1 PUSH2 0x32FD JUMP JUMPDEST PUSH1 0x20 PUSH1 0x40 MLOAD DUP1 DUP4 SUB DUP2 DUP7 GAS STATICCALL ISZERO DUP1 ISZERO PUSH2 0x26E2 JUMPI RETURNDATASIZE PUSH1 0x0 DUP1 RETURNDATACOPY RETURNDATASIZE PUSH1 0x0 REVERT JUMPDEST POP POP POP POP PUSH1 0x40 MLOAD RETURNDATASIZE PUSH1 0x1F NOT PUSH1 0x1F DUP3 ADD AND DUP3 ADD DUP1 PUSH1 0x40 MSTORE POP DUP2 ADD SWAP1 PUSH2 0x2706 SWAP2 SWAP1 PUSH2 0x3921 JUMP JUMPDEST LT ISZERO PUSH2 0x2747 JUMPI PUSH1 0x40 MLOAD PUSH32 0x8C379A000000000000000000000000000000000000000000000000000000000 DUP2 MSTORE PUSH1 0x4 ADD PUSH2 0x273E SWAP1 PUSH2 0x3DFA JUMP JUMPDEST PUSH1 0x40 MLOAD DUP1 SWAP2 SUB SWAP1 REVERT JUMPDEST PUSH2 0x2775 PUSH1 0x5 PUSH1 0x0 SWAP1 SLOAD SWAP1 PUSH2 0x100 EXP SWAP1 DIV PUSH20 0xFFFFFFFFFFFFFFFFFFFFFFFFFFFFFFFFFFFFFFFF AND CALLER ADDRESS DUP6 PUSH2 0x2F4D JUMP JUMPDEST PUSH2 0x27A2 PUSH1 0x4 PUSH1 0x1 SWAP1 SLOAD SWAP1 PUSH2 0x100 EXP SWAP1 DIV PUSH20 0xFFFFFFFFFFFFFFFFFFFFFFFFFFFFFFFFFFFFFFFF AND CALLER DUP4 PUSH2 0x29FE JUMP JUMPDEST PUSH1 0x9 PUSH1 0x40 MLOAD DUP1 PUSH1 0x60 ADD PUSH1 0x40 MSTORE DUP1 CALLER PUSH20 0xFFFFFFFFFFFFFFFFFFFFFFFFFFFFFFFFFFFFFFFF AND DUP2 MSTORE PUSH1 0x20 ADD DUP5 DUP2 MSTORE PUSH1 0x20 ADD DUP4 DUP2 MSTORE POP SWAP1 DUP1 PUSH1 0x1 DUP2 SLOAD ADD DUP1 DUP3 SSTORE DUP1 SWAP2 POP POP PUSH1 0x1 SWAP1 SUB SWAP1 PUSH1 0x0 MSTORE PUSH1 0x20 PUSH1 0x0 KECCAK256 SWAP1 PUSH1 0x3 MUL ADD PUSH1 0x0 SWAP1 SWAP2 SWAP1 SWAP2 SWAP1 SWAP2 POP PUSH1 0x0 DUP3 ADD MLOAD DUP2 PUSH1 0x0 ADD PUSH1 0x0 PUSH2 0x100 EXP DUP2 SLOAD DUP2 PUSH20 0xFFFFFFFFFFFFFFFFFFFFFFFFFFFFFFFFFFFFFFFF MUL NOT AND SWAP1 DUP4 PUSH20 0xFFFFFFFFFFFFFFFFFFFFFFFFFFFFFFFFFFFFFFFF AND MUL OR SWAP1 SSTORE POP PUSH1 0x20 DUP3 ADD MLOAD DUP2 PUSH1 0x1 ADD SSTORE PUSH1 0x40 DUP3 ADD MLOAD DUP2 PUSH1 0x2 ADD SSTORE POP POP PUSH1 0x0 PUSH32 0x0 SWAP1 POP DUP1 PUSH20 0xFFFFFFFFFFFFFFFFFFFFFFFFFFFFFFFFFFFFFFFF AND PUSH4 0xF52701B7 ADDRESS CALLER DUP7 DUP7 PUSH1 0x40 MLOAD DUP6 PUSH4 0xFFFFFFFF AND PUSH1 0xE0 SHL DUP2 MSTORE PUSH1 0x4 ADD PUSH2 0x28BF SWAP5 SWAP4 SWAP3 SWAP2 SWAP1 PUSH2 0x394E JUMP JUMPDEST PUSH1 0x0 PUSH1 0x40 MLOAD DUP1 DUP4 SUB DUP2 PUSH1 0x0 DUP8 DUP1 EXTCODESIZE ISZERO DUP1 ISZERO PUSH2 0x28D9 JUMPI PUSH1 0x0 DUP1 REVERT JUMPDEST POP GAS CALL ISZERO DUP1 ISZERO PUSH2 0x28ED JUMPI RETURNDATASIZE PUSH1 0x0 DUP1 RETURNDATACOPY RETURNDATASIZE PUSH1 0x0 REVERT JUMPDEST POP POP POP POP POP POP POP JUMP JUMPDEST PUSH1 0x0 CALLER SWAP1 POP SWAP1 JUMP JUMPDEST PUSH1 0x0 DUP3 PUSH20 0xFFFFFFFFFFFFFFFFFFFFFFFFFFFFFFFFFFFFFFFF AND DUP3 PUSH1 0x0 PUSH8 0xFFFFFFFFFFFFFFFF DUP2 GT ISZERO PUSH2 0x2933 JUMPI PUSH2 0x2932 PUSH2 0x3B8F JUMP JUMPDEST JUMPDEST PUSH1 0x40 MLOAD SWAP1 DUP1 DUP3 MSTORE DUP1 PUSH1 0x1F ADD PUSH1 0x1F NOT AND PUSH1 0x20 ADD DUP3 ADD PUSH1 0x40 MSTORE DUP1 ISZERO PUSH2 0x2965 JUMPI DUP2 PUSH1 0x20 ADD PUSH1 0x1 DUP3 MUL DUP1 CALLDATASIZE DUP4 CALLDATACOPY DUP1 DUP3 ADD SWAP2 POP POP SWAP1 POP JUMPDEST POP PUSH1 0x40 MLOAD PUSH2 0x2973 SWAP2 SWAP1 PUSH2 0x3E94 JUMP JUMPDEST PUSH1 0x0 PUSH1 0x40 MLOAD DUP1 DUP4 SUB DUP2 DUP6 DUP8 GAS CALL SWAP3 POP POP POP RETURNDATASIZE DUP1 PUSH1 0x0 DUP2 EQ PUSH2 0x29B0 JUMPI PUSH1 0x40 MLOAD SWAP2 POP PUSH1 0x1F NOT PUSH1 0x3F RETURNDATASIZE ADD AND DUP3 ADD PUSH1 0x40 MSTORE RETURNDATASIZE DUP3 MSTORE RETURNDATASIZE PUSH1 0x0 PUSH1 0x20 DUP5 ADD RETURNDATACOPY PUSH2 0x29B5 JUMP JUMPDEST PUSH1 0x60 SWAP2 POP JUMPDEST POP POP SWAP1 POP DUP1 PUSH2 0x29F9 JUMPI PUSH1 0x40 MLOAD PUSH32 0x8C379A000000000000000000000000000000000000000000000000000000000 DUP2 MSTORE PUSH1 0x4 ADD PUSH2 0x29F0 SWAP1 PUSH2 0x3F1D JUMP JUMPDEST PUSH1 0x40 MLOAD DUP1 SWAP2 SUB SWAP1 REVERT JUMPDEST POP POP POP JUMP JUMPDEST PUSH1 0x0 DUP1 DUP5 PUSH20 0xFFFFFFFFFFFFFFFFFFFFFFFFFFFFFFFFFFFFFFFF AND PUSH4 0xA9059CBB DUP6 DUP6 PUSH1 0x40 MLOAD PUSH1 0x24 ADD PUSH2 0x2A30 SWAP3 SWAP2 SWAP1 PUSH2 0x3F3D JUMP JUMPDEST PUSH1 0x40 MLOAD PUSH1 0x20 DUP2 DUP4 SUB SUB DUP2 MSTORE SWAP1 PUSH1 0x40 MSTORE SWAP1 PUSH1 0xE0 SHL PUSH1 0x20 DUP3 ADD DUP1 MLOAD PUSH28 0xFFFFFFFFFFFFFFFFFFFFFFFFFFFFFFFFFFFFFFFFFFFFFFFFFFFFFFFF DUP4 DUP2 DUP4 AND OR DUP4 MSTORE POP POP POP POP PUSH1 0x40 MLOAD PUSH2 0x2A7E SWAP2 SWAP1 PUSH2 0x3E94 JUMP JUMPDEST PUSH1 0x0 PUSH1 0x40 MLOAD DUP1 DUP4 SUB DUP2 PUSH1 0x0 DUP7 GAS CALL SWAP2 POP POP RETURNDATASIZE DUP1 PUSH1 0x0 DUP2 EQ PUSH2 0x2ABB JUMPI PUSH1 0x40 MLOAD SWAP2 POP PUSH1 0x1F NOT PUSH1 0x3F RETURNDATASIZE ADD AND DUP3 ADD PUSH1 0x40 MSTORE RETURNDATASIZE DUP3 MSTORE RETURNDATASIZE PUSH1 0x0 PUSH1 0x20 DUP5 ADD RETURNDATACOPY PUSH2 0x2AC0 JUMP JUMPDEST PUSH1 0x60 SWAP2 POP JUMPDEST POP SWAP2 POP SWAP2 POP DUP2 DUP1 ISZERO PUSH2 0x2AEE JUMPI POP PUSH1 0x0 DUP2 MLOAD EQ DUP1 PUSH2 0x2AED JUMPI POP DUP1 DUP1 PUSH1 0x20 ADD SWAP1 MLOAD DUP2 ADD SWAP1 PUSH2 0x2AEC SWAP2 SWAP1 PUSH2 0x3622 JUMP JUMPDEST JUMPDEST JUMPDEST PUSH2 0x2B2D JUMPI PUSH1 0x40 MLOAD PUSH32 0x8C379A000000000000000000000000000000000000000000000000000000000 DUP2 MSTORE PUSH1 0x4 ADD PUSH2 0x2B24 SWAP1 PUSH2 0x3FB2 JUMP JUMPDEST PUSH1 0x40 MLOAD DUP1 SWAP2 SUB SWAP1 REVERT JUMPDEST POP POP POP POP POP JUMP JUMPDEST CALLVALUE DUP2 EQ PUSH2 0x2B76 JUMPI PUSH1 0x40 MLOAD PUSH32 0x8C379A000000000000000000000000000000000000000000000000000000000 DUP2 MSTORE PUSH1 0x4 ADD PUSH2 0x2B6D SWAP1 PUSH2 0x3753 JUMP JUMPDEST PUSH1 0x40 MLOAD DUP1 SWAP2 SUB SWAP1 REVERT JUMPDEST PUSH1 0x0 PUSH2 0x2B81 DUP3 PUSH2 0x2F29 JUMP JUMPDEST SWAP1 POP DUP1 PUSH1 0x4 PUSH1 0x1 SWAP1 SLOAD SWAP1 PUSH2 0x100 EXP SWAP1 DIV PUSH20 0xFFFFFFFFFFFFFFFFFFFFFFFFFFFFFFFFFFFFFFFF AND PUSH20 0xFFFFFFFFFFFFFFFFFFFFFFFFFFFFFFFFFFFFFFFF AND PUSH4 0x70A08231 ADDRESS PUSH1 0x40 MLOAD DUP3 PUSH4 0xFFFFFFFF AND PUSH1 0xE0 SHL DUP2 MSTORE PUSH1 0x4 ADD PUSH2 0x2BDF SWAP2 SWAP1 PUSH2 0x32FD JUMP JUMPDEST PUSH1 0x20 PUSH1 0x40 MLOAD DUP1 DUP4 SUB DUP2 DUP7 GAS STATICCALL ISZERO DUP1 ISZERO PUSH2 0x2BFC JUMPI RETURNDATASIZE PUSH1 0x0 DUP1 RETURNDATACOPY RETURNDATASIZE PUSH1 0x0 REVERT JUMPDEST POP POP POP POP PUSH1 0x40 MLOAD RETURNDATASIZE PUSH1 0x1F NOT PUSH1 0x1F DUP3 ADD AND DUP3 ADD DUP1 PUSH1 0x40 MSTORE POP DUP2 ADD SWAP1 PUSH2 0x2C20 SWAP2 SWAP1 PUSH2 0x3921 JUMP JUMPDEST LT ISZERO PUSH2 0x2C61 JUMPI PUSH1 0x40 MLOAD PUSH32 0x8C379A000000000000000000000000000000000000000000000000000000000 DUP2 MSTORE PUSH1 0x4 ADD PUSH2 0x2C58 SWAP1 PUSH2 0x3DFA JUMP JUMPDEST PUSH1 0x40 MLOAD DUP1 SWAP2 SUB SWAP1 REVERT JUMPDEST PUSH1 0x2 PUSH1 0x0 SWAP1 SLOAD SWAP1 PUSH2 0x100 EXP SWAP1 DIV PUSH20 0xFFFFFFFFFFFFFFFFFFFFFFFFFFFFFFFFFFFFFFFF AND PUSH20 0xFFFFFFFFFFFFFFFFFFFFFFFFFFFFFFFFFFFFFFFF AND PUSH4 0xD0E30DB0 DUP4 PUSH1 0x40 MLOAD DUP3 PUSH4 0xFFFFFFFF AND PUSH1 0xE0 SHL DUP2 MSTORE PUSH1 0x4 ADD PUSH1 0x0 PUSH1 0x40 MLOAD DUP1 DUP4 SUB DUP2 DUP6 DUP9 DUP1 EXTCODESIZE ISZERO DUP1 ISZERO PUSH2 0x2CCB JUMPI PUSH1 0x0 DUP1 REVERT JUMPDEST POP GAS CALL ISZERO DUP1 ISZERO PUSH2 0x2CDF JUMPI RETURNDATASIZE PUSH1 0x0 DUP1 RETURNDATACOPY RETURNDATASIZE PUSH1 0x0 REVERT JUMPDEST POP POP POP POP POP PUSH2 0x2D11 PUSH1 0x4 PUSH1 0x1 SWAP1 SLOAD SWAP1 PUSH2 0x100 EXP SWAP1 DIV PUSH20 0xFFFFFFFFFFFFFFFFFFFFFFFFFFFFFFFFFFFFFFFF AND CALLER DUP4 PUSH2 0x29FE JUMP JUMPDEST PUSH1 0x9 PUSH1 0x40 MLOAD DUP1 PUSH1 0x60 ADD PUSH1 0x40 MSTORE DUP1 CALLER PUSH20 0xFFFFFFFFFFFFFFFFFFFFFFFFFFFFFFFFFFFFFFFF AND DUP2 MSTORE PUSH1 0x20 ADD DUP5 DUP2 MSTORE PUSH1 0x20 ADD DUP4 DUP2 MSTORE POP SWAP1 DUP1 PUSH1 0x1 DUP2 SLOAD ADD DUP1 DUP3 SSTORE DUP1 SWAP2 POP POP PUSH1 0x1 SWAP1 SUB SWAP1 PUSH1 0x0 MSTORE PUSH1 0x20 PUSH1 0x0 KECCAK256 SWAP1 PUSH1 0x3 MUL ADD PUSH1 0x0 SWAP1 SWAP2 SWAP1 SWAP2 SWAP1 SWAP2 POP PUSH1 0x0 DUP3 ADD MLOAD DUP2 PUSH1 0x0 ADD PUSH1 0x0 PUSH2 0x100 EXP DUP2 SLOAD DUP2 PUSH20 0xFFFFFFFFFFFFFFFFFFFFFFFFFFFFFFFFFFFFFFFF MUL NOT AND SWAP1 DUP4 PUSH20 0xFFFFFFFFFFFFFFFFFFFFFFFFFFFFFFFFFFFFFFFF AND MUL OR SWAP1 SSTORE POP PUSH1 0x20 DUP3 ADD MLOAD DUP2 PUSH1 0x1 ADD SSTORE PUSH1 0x40 DUP3 ADD MLOAD DUP2 PUSH1 0x2 ADD SSTORE POP POP PUSH1 0x0 PUSH32 0x0 SWAP1 POP DUP1 PUSH20 0xFFFFFFFFFFFFFFFFFFFFFFFFFFFFFFFFFFFFFFFF AND PUSH4 0xF52701B7 ADDRESS CALLER DUP7 DUP7 PUSH1 0x40 MLOAD DUP6 PUSH4 0xFFFFFFFF AND PUSH1 0xE0 SHL DUP2 MSTORE PUSH1 0x4 ADD PUSH2 0x2E2E SWAP5 SWAP4 SWAP3 SWAP2 SWAP1 PUSH2 0x394E JUMP JUMPDEST PUSH1 0x0 PUSH1 0x40 MLOAD DUP1 DUP4 SUB DUP2 PUSH1 0x0 DUP8 DUP1 EXTCODESIZE ISZERO DUP1 ISZERO PUSH2 0x2E48 JUMPI PUSH1 0x0 DUP1 REVERT JUMPDEST POP GAS CALL ISZERO DUP1 ISZERO PUSH2 0x2E5C JUMPI RETURNDATASIZE PUSH1 0x0 DUP1 RETURNDATACOPY RETURNDATASIZE PUSH1 0x0 REVERT JUMPDEST POP POP POP POP POP POP POP JUMP JUMPDEST PUSH1 0x0 DUP1 PUSH1 0x0 SWAP1 SLOAD SWAP1 PUSH2 0x100 EXP SWAP1 DIV PUSH20 0xFFFFFFFFFFFFFFFFFFFFFFFFFFFFFFFFFFFFFFFF AND SWAP1 POP DUP2 PUSH1 0x0 DUP1 PUSH2 0x100 EXP DUP2 SLOAD DUP2 PUSH20 0xFFFFFFFFFFFFFFFFFFFFFFFFFFFFFFFFFFFFFFFF MUL NOT AND SWAP1 DUP4 PUSH20 0xFFFFFFFFFFFFFFFFFFFFFFFFFFFFFFFFFFFFFFFF AND MUL OR SWAP1 SSTORE POP DUP2 PUSH20 0xFFFFFFFFFFFFFFFFFFFFFFFFFFFFFFFFFFFFFFFF AND DUP2 PUSH20 0xFFFFFFFFFFFFFFFFFFFFFFFFFFFFFFFFFFFFFFFF AND PUSH32 0x8BE0079C531659141344CD1FD0A4F28419497F9722A3DAAFE3B4186F6B6457E0 PUSH1 0x40 MLOAD PUSH1 0x40 MLOAD DUP1 SWAP2 SUB SWAP1 LOG3 POP POP JUMP JUMPDEST PUSH1 0x0 PUSH1 0x7 SLOAD PUSH1 0x6 SLOAD DUP4 PUSH2 0x2F3C SWAP2 SWAP1 PUSH2 0x3FD2 JUMP JUMPDEST PUSH2 0x2F46 SWAP2 SWAP1 PUSH2 0x405B JUMP JUMPDEST SWAP1 POP SWAP2 SWAP1 POP JUMP JUMPDEST PUSH1 0x0 DUP1 DUP6 PUSH20 0xFFFFFFFFFFFFFFFFFFFFFFFFFFFFFFFFFFFFFFFF AND PUSH4 0x23B872DD DUP7 DUP7 DUP7 PUSH1 0x40 MLOAD PUSH1 0x24 ADD PUSH2 0x2F81 SWAP4 SWAP3 SWAP2 SWAP1 PUSH2 0x408C JUMP JUMPDEST PUSH1 0x40 MLOAD PUSH1 0x20 DUP2 DUP4 SUB SUB DUP2 MSTORE SWAP1 PUSH1 0x40 MSTORE SWAP1 PUSH1 0xE0 SHL PUSH1 0x20 DUP3 ADD DUP1 MLOAD PUSH28 0xFFFFFFFFFFFFFFFFFFFFFFFFFFFFFFFFFFFFFFFFFFFFFFFFFFFFFFFF DUP4 DUP2 DUP4 AND OR DUP4 MSTORE POP POP POP POP PUSH1 0x40 MLOAD PUSH2 0x2FCF SWAP2 SWAP1 PUSH2 0x3E94 JUMP JUMPDEST PUSH1 0x0 PUSH1 0x40 MLOAD DUP1 DUP4 SUB DUP2 PUSH1 0x0 DUP7 GAS CALL SWAP2 POP POP RETURNDATASIZE DUP1 PUSH1 0x0 DUP2 EQ PUSH2 0x300C JUMPI PUSH1 0x40 MLOAD SWAP2 POP PUSH1 0x1F NOT PUSH1 0x3F RETURNDATASIZE ADD AND DUP3 ADD PUSH1 0x40 MSTORE RETURNDATASIZE DUP3 MSTORE RETURNDATASIZE PUSH1 0x0 PUSH1 0x20 DUP5 ADD RETURNDATACOPY PUSH2 0x3011 JUMP JUMPDEST PUSH1 0x60 SWAP2 POP JUMPDEST POP SWAP2 POP SWAP2 POP DUP2 DUP1 ISZERO PUSH2 0x303F JUMPI POP PUSH1 0x0 DUP2 MLOAD EQ DUP1 PUSH2 0x303E JUMPI POP DUP1 DUP1 PUSH1 0x20 ADD SWAP1 MLOAD DUP2 ADD SWAP1 PUSH2 0x303D SWAP2 SWAP1 PUSH2 0x3622 JUMP JUMPDEST JUMPDEST JUMPDEST PUSH2 0x307E JUMPI PUSH1 0x40 MLOAD PUSH32 0x8C379A000000000000000000000000000000000000000000000000000000000 DUP2 MSTORE PUSH1 0x4 ADD PUSH2 0x3075 SWAP1 PUSH2 0x4135 JUMP JUMPDEST PUSH1 0x40 MLOAD DUP1 SWAP2 SUB SWAP1 REVERT JUMPDEST POP POP POP POP POP POP JUMP JUMPDEST PUSH1 0x0 DUP1 REVERT JUMPDEST PUSH1 0x0 DUP2 SWAP1 POP SWAP2 SWAP1 POP JUMP JUMPDEST PUSH2 0x309E DUP2 PUSH2 0x308B JUMP JUMPDEST DUP2 EQ PUSH2 0x30A9 JUMPI PUSH1 0x0 DUP1 REVERT JUMPDEST POP JUMP JUMPDEST PUSH1 0x0 DUP2 CALLDATALOAD SWAP1 POP PUSH2 0x30BB DUP2 PUSH2 0x3095 JUMP JUMPDEST SWAP3 SWAP2 POP POP JUMP JUMPDEST PUSH1 0x0 PUSH1 0x20 DUP3 DUP5 SUB SLT ISZERO PUSH2 0x30D7 JUMPI PUSH2 0x30D6 PUSH2 0x3086 JUMP JUMPDEST JUMPDEST PUSH1 0x0 PUSH2 0x30E5 DUP5 DUP3 DUP6 ADD PUSH2 0x30AC JUMP JUMPDEST SWAP2 POP POP SWAP3 SWAP2 POP POP JUMP JUMPDEST PUSH1 0x0 DUP2 ISZERO ISZERO SWAP1 POP SWAP2 SWAP1 POP JUMP JUMPDEST PUSH2 0x3103 DUP2 PUSH2 0x30EE JUMP JUMPDEST DUP3 MSTORE POP POP JUMP JUMPDEST PUSH1 0x0 PUSH1 0x20 DUP3 ADD SWAP1 POP PUSH2 0x311E PUSH1 0x0 DUP4 ADD DUP5 PUSH2 0x30FA JUMP JUMPDEST SWAP3 SWAP2 POP POP JUMP JUMPDEST PUSH2 0x312D DUP2 PUSH2 0x308B JUMP JUMPDEST DUP3 MSTORE POP POP JUMP JUMPDEST PUSH1 0x0 PUSH1 0x40 DUP3 ADD SWAP1 POP PUSH2 0x3148 PUSH1 0x0 DUP4 ADD DUP6 PUSH2 0x3124 JUMP JUMPDEST PUSH2 0x3155 PUSH1 0x20 DUP4 ADD DUP5 PUSH2 0x3124 JUMP JUMPDEST SWAP4 SWAP3 POP POP POP JUMP JUMPDEST PUSH1 0x0 PUSH20 0xFFFFFFFFFFFFFFFFFFFFFFFFFFFFFFFFFFFFFFFF DUP3 AND SWAP1 POP SWAP2 SWAP1 POP JUMP JUMPDEST PUSH1 0x0 PUSH2 0x3187 DUP3 PUSH2 0x315C JUMP JUMPDEST SWAP1 POP SWAP2 SWAP1 POP JUMP JUMPDEST PUSH2 0x3197 DUP2 PUSH2 0x317C JUMP JUMPDEST DUP2 EQ PUSH2 0x31A2 JUMPI PUSH1 0x0 DUP1 REVERT JUMPDEST POP JUMP JUMPDEST PUSH1 0x0 DUP2 CALLDATALOAD SWAP1 POP PUSH2 0x31B4 DUP2 PUSH2 0x318E JUMP JUMPDEST SWAP3 SWAP2 POP POP JUMP JUMPDEST PUSH1 0x0 PUSH1 0x20 DUP3 DUP5 SUB SLT ISZERO PUSH2 0x31D0 JUMPI PUSH2 0x31CF PUSH2 0x3086 JUMP JUMPDEST JUMPDEST PUSH1 0x0 PUSH2 0x31DE DUP5 DUP3 DUP6 ADD PUSH2 0x31A5 JUMP JUMPDEST SWAP2 POP POP SWAP3 SWAP2 POP POP JUMP JUMPDEST PUSH1 0x3 DUP2 LT PUSH2 0x31F4 JUMPI PUSH1 0x0 DUP1 REVERT JUMPDEST POP JUMP JUMPDEST PUSH1 0x0 DUP2 CALLDATALOAD SWAP1 POP PUSH2 0x3206 DUP2 PUSH2 0x31E7 JUMP JUMPDEST SWAP3 SWAP2 POP POP JUMP JUMPDEST PUSH2 0x3215 DUP2 PUSH2 0x30EE JUMP JUMPDEST DUP2 EQ PUSH2 0x3220 JUMPI PUSH1 0x0 DUP1 REVERT JUMPDEST POP JUMP JUMPDEST PUSH1 0x0 DUP2 CALLDATALOAD SWAP1 POP PUSH2 0x3232 DUP2 PUSH2 0x320C JUMP JUMPDEST SWAP3 SWAP2 POP POP JUMP JUMPDEST PUSH1 0x0 DUP1 PUSH1 0x0 DUP1 PUSH1 0x0 DUP1 PUSH1 0x0 DUP1 PUSH2 0x100 DUP10 DUP12 SUB SLT ISZERO PUSH2 0x3259 JUMPI PUSH2 0x3258 PUSH2 0x3086 JUMP JUMPDEST JUMPDEST PUSH1 0x0 PUSH2 0x3267 DUP12 DUP3 DUP13 ADD PUSH2 0x31F7 JUMP JUMPDEST SWAP9 POP POP PUSH1 0x20 PUSH2 0x3278 DUP12 DUP3 DUP13 ADD PUSH2 0x31A5 JUMP JUMPDEST SWAP8 POP POP PUSH1 0x40 PUSH2 0x3289 DUP12 DUP3 DUP13 ADD PUSH2 0x31A5 JUMP JUMPDEST SWAP7 POP POP PUSH1 0x60 PUSH2 0x329A DUP12 DUP3 DUP13 ADD PUSH2 0x30AC JUMP JUMPDEST SWAP6 POP POP PUSH1 0x80 PUSH2 0x32AB DUP12 DUP3 DUP13 ADD PUSH2 0x30AC JUMP JUMPDEST SWAP5 POP POP PUSH1 0xA0 PUSH2 0x32BC DUP12 DUP3 DUP13 ADD PUSH2 0x30AC JUMP JUMPDEST SWAP4 POP POP PUSH1 0xC0 PUSH2 0x32CD DUP12 DUP3 DUP13 ADD PUSH2 0x3223 JUMP JUMPDEST SWAP3 POP POP PUSH1 0xE0 PUSH2 0x32DE DUP12 DUP3 DUP13 ADD PUSH2 0x31A5 JUMP JUMPDEST SWAP2 POP POP SWAP3 SWAP6 SWAP9 POP SWAP3 SWAP6 SWAP9 SWAP1 SWAP4 SWAP7 POP JUMP JUMPDEST PUSH2 0x32F7 DUP2 PUSH2 0x317C JUMP JUMPDEST DUP3 MSTORE POP POP JUMP JUMPDEST PUSH1 0x0 PUSH1 0x20 DUP3 ADD SWAP1 POP PUSH2 0x3312 PUSH1 0x0 DUP4 ADD DUP5 PUSH2 0x32EE JUMP JUMPDEST SWAP3 SWAP2 POP POP JUMP JUMPDEST PUSH1 0x0 PUSH1 0x40 DUP3 ADD SWAP1 POP PUSH2 0x332D PUSH1 0x0 DUP4 ADD DUP6 PUSH2 0x32EE JUMP JUMPDEST PUSH2 0x333A PUSH1 0x20 DUP4 ADD DUP5 PUSH2 0x32EE JUMP JUMPDEST SWAP4 SWAP3 POP POP POP JUMP JUMPDEST PUSH1 0x0 PUSH1 0x20 DUP3 ADD SWAP1 POP PUSH2 0x3356 PUSH1 0x0 DUP4 ADD DUP5 PUSH2 0x3124 JUMP JUMPDEST SWAP3 SWAP2 POP POP JUMP JUMPDEST PUSH1 0x0 DUP2 MLOAD SWAP1 POP SWAP2 SWAP1 POP JUMP JUMPDEST PUSH1 0x0 DUP3 DUP3 MSTORE PUSH1 0x20 DUP3 ADD SWAP1 POP SWAP3 SWAP2 POP POP JUMP JUMPDEST PUSH1 0x0 DUP2 SWAP1 POP PUSH1 0x20 DUP3 ADD SWAP1 POP SWAP2 SWAP1 POP JUMP JUMPDEST PUSH2 0x3391 DUP2 PUSH2 0x317C JUMP JUMPDEST DUP3 MSTORE POP POP JUMP JUMPDEST PUSH1 0x0 PUSH2 0x33A3 DUP4 DUP4 PUSH2 0x3388 JUMP JUMPDEST PUSH1 0x20 DUP4 ADD SWAP1 POP SWAP3 SWAP2 POP POP JUMP JUMPDEST PUSH1 0x0 PUSH1 0x20 DUP3 ADD SWAP1 POP SWAP2 SWAP1 POP JUMP JUMPDEST PUSH1 0x0 PUSH2 0x33C7 DUP3 PUSH2 0x335C JUMP JUMPDEST PUSH2 0x33D1 DUP2 DUP6 PUSH2 0x3367 JUMP JUMPDEST SWAP4 POP PUSH2 0x33DC DUP4 PUSH2 0x3378 JUMP JUMPDEST DUP1 PUSH1 0x0 JUMPDEST DUP4 DUP2 LT ISZERO PUSH2 0x340D JUMPI DUP2 MLOAD PUSH2 0x33F4 DUP9 DUP3 PUSH2 0x3397 JUMP JUMPDEST SWAP8 POP PUSH2 0x33FF DUP4 PUSH2 0x33AF JUMP JUMPDEST SWAP3 POP POP PUSH1 0x1 DUP2 ADD SWAP1 POP PUSH2 0x33E0 JUMP JUMPDEST POP DUP6 SWAP4 POP POP POP POP SWAP3 SWAP2 POP POP JUMP JUMPDEST PUSH1 0x0 DUP2 MLOAD SWAP1 POP SWAP2 SWAP1 POP JUMP JUMPDEST PUSH1 0x0 DUP3 DUP3 MSTORE PUSH1 0x20 DUP3 ADD SWAP1 POP SWAP3 SWAP2 POP POP JUMP JUMPDEST PUSH1 0x0 DUP2 SWAP1 POP PUSH1 0x20 DUP3 ADD SWAP1 POP SWAP2 SWAP1 POP JUMP JUMPDEST PUSH2 0x344F DUP2 PUSH2 0x308B JUMP JUMPDEST DUP3 MSTORE POP POP JUMP JUMPDEST PUSH1 0x0 PUSH2 0x3461 DUP4 DUP4 PUSH2 0x3446 JUMP JUMPDEST PUSH1 0x20 DUP4 ADD SWAP1 POP SWAP3 SWAP2 POP POP JUMP JUMPDEST PUSH1 0x0 PUSH1 0x20 DUP3 ADD SWAP1 POP SWAP2 SWAP1 POP JUMP JUMPDEST PUSH1 0x0 PUSH2 0x3485 DUP3 PUSH2 0x341A JUMP JUMPDEST PUSH2 0x348F DUP2 DUP6 PUSH2 0x3425 JUMP JUMPDEST SWAP4 POP PUSH2 0x349A DUP4 PUSH2 0x3436 JUMP JUMPDEST DUP1 PUSH1 0x0 JUMPDEST DUP4 DUP2 LT ISZERO PUSH2 0x34CB JUMPI DUP2 MLOAD PUSH2 0x34B2 DUP9 DUP3 PUSH2 0x3455 JUMP JUMPDEST SWAP8 POP PUSH2 0x34BD DUP4 PUSH2 0x346D JUMP JUMPDEST SWAP3 POP POP PUSH1 0x1 DUP2 ADD SWAP1 POP PUSH2 0x349E JUMP JUMPDEST POP DUP6 SWAP4 POP POP POP POP SWAP3 SWAP2 POP POP JUMP JUMPDEST PUSH1 0x0 PUSH1 0x60 DUP3 ADD SWAP1 POP DUP2 DUP2 SUB PUSH1 0x0 DUP4 ADD MSTORE PUSH2 0x34F2 DUP2 DUP7 PUSH2 0x33BC JUMP JUMPDEST SWAP1 POP DUP2 DUP2 SUB PUSH1 0x20 DUP4 ADD MSTORE PUSH2 0x3506 DUP2 DUP6 PUSH2 0x347A JUMP JUMPDEST SWAP1 POP DUP2 DUP2 SUB PUSH1 0x40 DUP4 ADD MSTORE PUSH2 0x351A DUP2 DUP5 PUSH2 0x347A JUMP JUMPDEST SWAP1 POP SWAP5 SWAP4 POP POP POP POP JUMP JUMPDEST PUSH1 0x0 DUP3 DUP3 MSTORE PUSH1 0x20 DUP3 ADD SWAP1 POP SWAP3 SWAP2 POP POP JUMP JUMPDEST PUSH32 0x537943726F774261727465723A20494E41435449564500000000000000000000 PUSH1 0x0 DUP3 ADD MSTORE POP JUMP JUMPDEST PUSH1 0x0 PUSH2 0x356B PUSH1 0x16 DUP4 PUSH2 0x3524 JUMP JUMPDEST SWAP2 POP PUSH2 0x3576 DUP3 PUSH2 0x3535 JUMP JUMPDEST PUSH1 0x20 DUP3 ADD SWAP1 POP SWAP2 SWAP1 POP JUMP JUMPDEST PUSH1 0x0 PUSH1 0x20 DUP3 ADD SWAP1 POP DUP2 DUP2 SUB PUSH1 0x0 DUP4 ADD MSTORE PUSH2 0x359A DUP2 PUSH2 0x355E JUMP JUMPDEST SWAP1 POP SWAP2 SWAP1 POP JUMP JUMPDEST PUSH32 0x537943726F774261727465723A204E4F545F494E495449414C495A4544000000 PUSH1 0x0 DUP3 ADD MSTORE POP JUMP JUMPDEST PUSH1 0x0 PUSH2 0x35D7 PUSH1 0x1D DUP4 PUSH2 0x3524 JUMP JUMPDEST SWAP2 POP PUSH2 0x35E2 DUP3 PUSH2 0x35A1 JUMP JUMPDEST PUSH1 0x20 DUP3 ADD SWAP1 POP SWAP2 SWAP1 POP JUMP JUMPDEST PUSH1 0x0 PUSH1 0x20 DUP3 ADD SWAP1 POP DUP2 DUP2 SUB PUSH1 0x0 DUP4 ADD MSTORE PUSH2 0x3606 DUP2 PUSH2 0x35CA JUMP JUMPDEST SWAP1 POP SWAP2 SWAP1 POP JUMP JUMPDEST PUSH1 0x0 DUP2 MLOAD SWAP1 POP PUSH2 0x361C DUP2 PUSH2 0x320C JUMP JUMPDEST SWAP3 SWAP2 POP POP JUMP JUMPDEST PUSH1 0x0 PUSH1 0x20 DUP3 DUP5 SUB SLT ISZERO PUSH2 0x3638 JUMPI PUSH2 0x3637 PUSH2 0x3086 JUMP JUMPDEST JUMPDEST PUSH1 0x0 PUSH2 0x3646 DUP5 DUP3 DUP6 ADD PUSH2 0x360D JUMP JUMPDEST SWAP2 POP POP SWAP3 SWAP2 POP POP JUMP JUMPDEST PUSH32 0x537943726F774261727465723A204261736520436F6E74726163742050617573 PUSH1 0x0 DUP3 ADD MSTORE PUSH32 0x6564000000000000000000000000000000000000000000000000000000000000 PUSH1 0x20 DUP3 ADD MSTORE POP JUMP JUMPDEST PUSH1 0x0 PUSH2 0x36AB PUSH1 0x22 DUP4 PUSH2 0x3524 JUMP JUMPDEST SWAP2 POP PUSH2 0x36B6 DUP3 PUSH2 0x364F JUMP JUMPDEST PUSH1 0x40 DUP3 ADD SWAP1 POP SWAP2 SWAP1 POP JUMP JUMPDEST PUSH1 0x0 PUSH1 0x20 DUP3 ADD SWAP1 POP DUP2 DUP2 SUB PUSH1 0x0 DUP4 ADD MSTORE PUSH2 0x36DA DUP2 PUSH2 0x369E JUMP JUMPDEST SWAP1 POP SWAP2 SWAP1 POP JUMP JUMPDEST PUSH32 0x537943726F774261727465723A204D554C54495F54524144455F4E4F545F454E PUSH1 0x0 DUP3 ADD MSTORE PUSH32 0x41424C4544000000000000000000000000000000000000000000000000000000 PUSH1 0x20 DUP3 ADD MSTORE POP JUMP JUMPDEST PUSH1 0x0 PUSH2 0x373D PUSH1 0x25 DUP4 PUSH2 0x3524 JUMP JUMPDEST SWAP2 POP PUSH2 0x3748 DUP3 PUSH2 0x36E1 JUMP JUMPDEST PUSH1 0x40 DUP3 ADD SWAP1 POP SWAP2 SWAP1 POP JUMP JUMPDEST PUSH1 0x0 PUSH1 0x20 DUP3 ADD SWAP1 POP DUP2 DUP2 SUB PUSH1 0x0 DUP4 ADD MSTORE PUSH2 0x376C DUP2 PUSH2 0x3730 JUMP JUMPDEST SWAP1 POP SWAP2 SWAP1 POP JUMP JUMPDEST PUSH32 0x4E487B7100000000000000000000000000000000000000000000000000000000 PUSH1 0x0 MSTORE PUSH1 0x21 PUSH1 0x4 MSTORE PUSH1 0x24 PUSH1 0x0 REVERT JUMPDEST PUSH32 0x537943726F774261727465723A20494E56414C49445F4241525445525F545950 PUSH1 0x0 DUP3 ADD MSTORE PUSH32 0x4500000000000000000000000000000000000000000000000000000000000000 PUSH1 0x20 DUP3 ADD MSTORE POP JUMP JUMPDEST PUSH1 0x0 PUSH2 0x37FE PUSH1 0x21 DUP4 PUSH2 0x3524 JUMP JUMPDEST SWAP2 POP PUSH2 0x3809 DUP3 PUSH2 0x37A2 JUMP JUMPDEST PUSH1 0x40 DUP3 ADD SWAP1 POP SWAP2 SWAP1 POP JUMP JUMPDEST PUSH1 0x0 PUSH1 0x20 DUP3 ADD SWAP1 POP DUP2 DUP2 SUB PUSH1 0x0 DUP4 ADD MSTORE PUSH2 0x382D DUP2 PUSH2 0x37F1 JUMP JUMPDEST SWAP1 POP SWAP2 SWAP1 POP JUMP JUMPDEST PUSH32 0x537943726F774261727465723A20414354495645000000000000000000000000 PUSH1 0x0 DUP3 ADD MSTORE POP JUMP JUMPDEST PUSH1 0x0 PUSH2 0x386A PUSH1 0x14 DUP4 PUSH2 0x3524 JUMP JUMPDEST SWAP2 POP PUSH2 0x3875 DUP3 PUSH2 0x3834 JUMP JUMPDEST PUSH1 0x20 DUP3 ADD SWAP1 POP SWAP2 SWAP1 POP JUMP JUMPDEST PUSH1 0x0 PUSH1 0x20 DUP3 ADD SWAP1 POP DUP2 DUP2 SUB PUSH1 0x0 DUP4 ADD MSTORE PUSH2 0x3899 DUP2 PUSH2 0x385D JUMP JUMPDEST SWAP1 POP SWAP2 SWAP1 POP JUMP JUMPDEST PUSH32 0x4F776E61626C653A2063616C6C6572206973206E6F7420746865206F776E6572 PUSH1 0x0 DUP3 ADD MSTORE POP JUMP JUMPDEST PUSH1 0x0 PUSH2 0x38D6 PUSH1 0x20 DUP4 PUSH2 0x3524 JUMP JUMPDEST SWAP2 POP PUSH2 0x38E1 DUP3 PUSH2 0x38A0 JUMP JUMPDEST PUSH1 0x20 DUP3 ADD SWAP1 POP SWAP2 SWAP1 POP JUMP JUMPDEST PUSH1 0x0 PUSH1 0x20 DUP3 ADD SWAP1 POP DUP2 DUP2 SUB PUSH1 0x0 DUP4 ADD MSTORE PUSH2 0x3905 DUP2 PUSH2 0x38C9 JUMP JUMPDEST SWAP1 POP SWAP2 SWAP1 POP JUMP JUMPDEST PUSH1 0x0 DUP2 MLOAD SWAP1 POP PUSH2 0x391B DUP2 PUSH2 0x3095 JUMP JUMPDEST SWAP3 SWAP2 POP POP JUMP JUMPDEST PUSH1 0x0 PUSH1 0x20 DUP3 DUP5 SUB SLT ISZERO PUSH2 0x3937 JUMPI PUSH2 0x3936 PUSH2 0x3086 JUMP JUMPDEST JUMPDEST PUSH1 0x0 PUSH2 0x3945 DUP5 DUP3 DUP6 ADD PUSH2 0x390C JUMP JUMPDEST SWAP2 POP POP SWAP3 SWAP2 POP POP JUMP JUMPDEST PUSH1 0x0 PUSH1 0x80 DUP3 ADD SWAP1 POP PUSH2 0x3963 PUSH1 0x0 DUP4 ADD DUP8 PUSH2 0x32EE JUMP JUMPDEST PUSH2 0x3970 PUSH1 0x20 DUP4 ADD DUP7 PUSH2 0x32EE JUMP JUMPDEST PUSH2 0x397D PUSH1 0x40 DUP4 ADD DUP6 PUSH2 0x3124 JUMP JUMPDEST PUSH2 0x398A PUSH1 0x60 DUP4 ADD DUP5 PUSH2 0x3124 JUMP JUMPDEST SWAP6 SWAP5 POP POP POP POP POP JUMP JUMPDEST PUSH32 0x537943726F774261727465723A20464F5242494444454E000000000000000000 PUSH1 0x0 DUP3 ADD MSTORE POP JUMP JUMPDEST PUSH1 0x0 PUSH2 0x39C9 PUSH1 0x17 DUP4 PUSH2 0x3524 JUMP JUMPDEST SWAP2 POP PUSH2 0x39D4 DUP3 PUSH2 0x3993 JUMP JUMPDEST PUSH1 0x20 DUP3 ADD SWAP1 POP SWAP2 SWAP1 POP JUMP JUMPDEST PUSH1 0x0 PUSH1 0x20 DUP3 ADD SWAP1 POP DUP2 DUP2 SUB PUSH1 0x0 DUP4 ADD MSTORE PUSH2 0x39F8 DUP2 PUSH2 0x39BC JUMP JUMPDEST SWAP1 POP SWAP2 SWAP1 POP JUMP JUMPDEST PUSH32 0x537943726F774261727465723A20414C52454144595F494E495449414C495A45 PUSH1 0x0 DUP3 ADD MSTORE PUSH32 0x4400000000000000000000000000000000000000000000000000000000000000 PUSH1 0x20 DUP3 ADD MSTORE POP JUMP JUMPDEST PUSH1 0x0 PUSH2 0x3A5B PUSH1 0x21 DUP4 PUSH2 0x3524 JUMP JUMPDEST SWAP2 POP PUSH2 0x3A66 DUP3 PUSH2 0x39FF JUMP JUMPDEST PUSH1 0x40 DUP3 ADD SWAP1 POP SWAP2 SWAP1 POP JUMP JUMPDEST PUSH1 0x0 PUSH1 0x20 DUP3 ADD SWAP1 POP DUP2 DUP2 SUB PUSH1 0x0 DUP4 ADD MSTORE PUSH2 0x3A8A DUP2 PUSH2 0x3A4E JUMP JUMPDEST SWAP1 POP SWAP2 SWAP1 POP JUMP JUMPDEST PUSH32 0x537943726F774261727465723A20504153545F444541444C494E450000000000 PUSH1 0x0 DUP3 ADD MSTORE POP JUMP JUMPDEST PUSH1 0x0 PUSH2 0x3AC7 PUSH1 0x1B DUP4 PUSH2 0x3524 JUMP JUMPDEST SWAP2 POP PUSH2 0x3AD2 DUP3 PUSH2 0x3A91 JUMP JUMPDEST PUSH1 0x20 DUP3 ADD SWAP1 POP SWAP2 SWAP1 POP JUMP JUMPDEST PUSH1 0x0 PUSH1 0x20 DUP3 ADD SWAP1 POP DUP2 DUP2 SUB PUSH1 0x0 DUP4 ADD MSTORE PUSH2 0x3AF6 DUP2 PUSH2 0x3ABA JUMP JUMPDEST SWAP1 POP SWAP2 SWAP1 POP JUMP JUMPDEST PUSH32 0x537943726F774261727465723A20494E53554646494349454E545F4445504F53 PUSH1 0x0 DUP3 ADD MSTORE PUSH32 0x4954000000000000000000000000000000000000000000000000000000000000 PUSH1 0x20 DUP3 ADD MSTORE POP JUMP JUMPDEST PUSH1 0x0 PUSH2 0x3B59 PUSH1 0x22 DUP4 PUSH2 0x3524 JUMP JUMPDEST SWAP2 POP PUSH2 0x3B64 DUP3 PUSH2 0x3AFD JUMP JUMPDEST PUSH1 0x40 DUP3 ADD SWAP1 POP SWAP2 SWAP1 POP JUMP JUMPDEST PUSH1 0x0 PUSH1 0x20 DUP3 ADD SWAP1 POP DUP2 DUP2 SUB PUSH1 0x0 DUP4 ADD MSTORE PUSH2 0x3B88 DUP2 PUSH2 0x3B4C JUMP JUMPDEST SWAP1 POP SWAP2 SWAP1 POP JUMP JUMPDEST PUSH32 0x4E487B7100000000000000000000000000000000000000000000000000000000 PUSH1 0x0 MSTORE PUSH1 0x41 PUSH1 0x4 MSTORE PUSH1 0x24 PUSH1 0x0 REVERT JUMPDEST PUSH32 0x4E487B7100000000000000000000000000000000000000000000000000000000 PUSH1 0x0 MSTORE PUSH1 0x32 PUSH1 0x4 MSTORE PUSH1 0x24 PUSH1 0x0 REVERT JUMPDEST PUSH32 0x4E487B7100000000000000000000000000000000000000000000000000000000 PUSH1 0x0 MSTORE PUSH1 0x11 PUSH1 0x4 MSTORE PUSH1 0x24 PUSH1 0x0 REVERT JUMPDEST PUSH1 0x0 PUSH2 0x3C27 DUP3 PUSH2 0x308B JUMP JUMPDEST SWAP2 POP PUSH32 0xFFFFFFFFFFFFFFFFFFFFFFFFFFFFFFFFFFFFFFFFFFFFFFFFFFFFFFFFFFFFFFFF DUP3 SUB PUSH2 0x3C59 JUMPI PUSH2 0x3C58 PUSH2 0x3BED JUMP JUMPDEST JUMPDEST PUSH1 0x1 DUP3 ADD SWAP1 POP SWAP2 SWAP1 POP JUMP JUMPDEST PUSH32 0x4F776E61626C653A206E6577206F776E657220697320746865207A65726F2061 PUSH1 0x0 DUP3 ADD MSTORE PUSH32 0x6464726573730000000000000000000000000000000000000000000000000000 PUSH1 0x20 DUP3 ADD MSTORE POP JUMP JUMPDEST PUSH1 0x0 PUSH2 0x3CC0 PUSH1 0x26 DUP4 PUSH2 0x3524 JUMP JUMPDEST SWAP2 POP PUSH2 0x3CCB DUP3 PUSH2 0x3C64 JUMP JUMPDEST PUSH1 0x40 DUP3 ADD SWAP1 POP SWAP2 SWAP1 POP JUMP JUMPDEST PUSH1 0x0 PUSH1 0x20 DUP3 ADD SWAP1 POP DUP2 DUP2 SUB PUSH1 0x0 DUP4 ADD MSTORE PUSH2 0x3CEF DUP2 PUSH2 0x3CB3 JUMP JUMPDEST SWAP1 POP SWAP2 SWAP1 POP JUMP JUMPDEST PUSH32 0x537943726F774261727465723A20494E53554646494349454E545F42414C414E PUSH1 0x0 DUP3 ADD MSTORE PUSH32 0x4345000000000000000000000000000000000000000000000000000000000000 PUSH1 0x20 DUP3 ADD MSTORE POP JUMP JUMPDEST PUSH1 0x0 PUSH2 0x3D52 PUSH1 0x22 DUP4 PUSH2 0x3524 JUMP JUMPDEST SWAP2 POP PUSH2 0x3D5D DUP3 PUSH2 0x3CF6 JUMP JUMPDEST PUSH1 0x40 DUP3 ADD SWAP1 POP SWAP2 SWAP1 POP JUMP JUMPDEST PUSH1 0x0 PUSH1 0x20 DUP3 ADD SWAP1 POP DUP2 DUP2 SUB PUSH1 0x0 DUP4 ADD MSTORE PUSH2 0x3D81 DUP2 PUSH2 0x3D45 JUMP JUMPDEST SWAP1 POP SWAP2 SWAP1 POP JUMP JUMPDEST PUSH32 0x537943726F774261727465723A20494E53554646494349454E545F434F4E5452 PUSH1 0x0 DUP3 ADD MSTORE PUSH32 0x4143545F42414C414E4345000000000000000000000000000000000000000000 PUSH1 0x20 DUP3 ADD MSTORE POP JUMP JUMPDEST PUSH1 0x0 PUSH2 0x3DE4 PUSH1 0x2B DUP4 PUSH2 0x3524 JUMP JUMPDEST SWAP2 POP PUSH2 0x3DEF DUP3 PUSH2 0x3D88 JUMP JUMPDEST PUSH1 0x40 DUP3 ADD SWAP1 POP SWAP2 SWAP1 POP JUMP JUMPDEST PUSH1 0x0 PUSH1 0x20 DUP3 ADD SWAP1 POP DUP2 DUP2 SUB PUSH1 0x0 DUP4 ADD MSTORE PUSH2 0x3E13 DUP2 PUSH2 0x3DD7 JUMP JUMPDEST SWAP1 POP SWAP2 SWAP1 POP JUMP JUMPDEST PUSH1 0x0 DUP2 MLOAD SWAP1 POP SWAP2 SWAP1 POP JUMP JUMPDEST PUSH1 0x0 DUP2 SWAP1 POP SWAP3 SWAP2 POP POP JUMP JUMPDEST PUSH1 0x0 JUMPDEST DUP4 DUP2 LT ISZERO PUSH2 0x3E4E JUMPI DUP1 DUP3 ADD MLOAD DUP2 DUP5 ADD MSTORE PUSH1 0x20 DUP2 ADD SWAP1 POP PUSH2 0x3E33 JUMP JUMPDEST DUP4 DUP2 GT ISZERO PUSH2 0x3E5D JUMPI PUSH1 0x0 DUP5 DUP5 ADD MSTORE JUMPDEST POP POP POP POP JUMP JUMPDEST PUSH1 0x0 PUSH2 0x3E6E DUP3 PUSH2 0x3E1A JUMP JUMPDEST PUSH2 0x3E78 DUP2 DUP6 PUSH2 0x3E25 JUMP JUMPDEST SWAP4 POP PUSH2 0x3E88 DUP2 DUP6 PUSH1 0x20 DUP7 ADD PUSH2 0x3E30 JUMP JUMPDEST DUP1 DUP5 ADD SWAP2 POP POP SWAP3 SWAP2 POP POP JUMP JUMPDEST PUSH1 0x0 PUSH2 0x3EA0 DUP3 DUP5 PUSH2 0x3E63 JUMP JUMPDEST SWAP2 POP DUP2 SWAP1 POP SWAP3 SWAP2 POP POP JUMP JUMPDEST PUSH32 0x5472616E7366657248656C7065723A204554485F5452414E534645525F464149 PUSH1 0x0 DUP3 ADD MSTORE PUSH32 0x4C45440000000000000000000000000000000000000000000000000000000000 PUSH1 0x20 DUP3 ADD MSTORE POP JUMP JUMPDEST PUSH1 0x0 PUSH2 0x3F07 PUSH1 0x23 DUP4 PUSH2 0x3524 JUMP JUMPDEST SWAP2 POP PUSH2 0x3F12 DUP3 PUSH2 0x3EAB JUMP JUMPDEST PUSH1 0x40 DUP3 ADD SWAP1 POP SWAP2 SWAP1 POP JUMP JUMPDEST PUSH1 0x0 PUSH1 0x20 DUP3 ADD SWAP1 POP DUP2 DUP2 SUB PUSH1 0x0 DUP4 ADD MSTORE PUSH2 0x3F36 DUP2 PUSH2 0x3EFA JUMP JUMPDEST SWAP1 POP SWAP2 SWAP1 POP JUMP JUMPDEST PUSH1 0x0 PUSH1 0x40 DUP3 ADD SWAP1 POP PUSH2 0x3F52 PUSH1 0x0 DUP4 ADD DUP6 PUSH2 0x32EE JUMP JUMPDEST PUSH2 0x3F5F PUSH1 0x20 DUP4 ADD DUP5 PUSH2 0x3124 JUMP JUMPDEST SWAP4 SWAP3 POP POP POP JUMP JUMPDEST PUSH32 0x5472616E7366657248656C7065723A205452414E534645525F4641494C454400 PUSH1 0x0 DUP3 ADD MSTORE POP JUMP JUMPDEST PUSH1 0x0 PUSH2 0x3F9C PUSH1 0x1F DUP4 PUSH2 0x3524 JUMP JUMPDEST SWAP2 POP PUSH2 0x3FA7 DUP3 PUSH2 0x3F66 JUMP JUMPDEST PUSH1 0x20 DUP3 ADD SWAP1 POP SWAP2 SWAP1 POP JUMP JUMPDEST PUSH1 0x0 PUSH1 0x20 DUP3 ADD SWAP1 POP DUP2 DUP2 SUB PUSH1 0x0 DUP4 ADD MSTORE PUSH2 0x3FCB DUP2 PUSH2 0x3F8F JUMP JUMPDEST SWAP1 POP SWAP2 SWAP1 POP JUMP JUMPDEST PUSH1 0x0 PUSH2 0x3FDD DUP3 PUSH2 0x308B JUMP JUMPDEST SWAP2 POP PUSH2 0x3FE8 DUP4 PUSH2 0x308B JUMP JUMPDEST SWAP3 POP DUP2 PUSH32 0xFFFFFFFFFFFFFFFFFFFFFFFFFFFFFFFFFFFFFFFFFFFFFFFFFFFFFFFFFFFFFFFF DIV DUP4 GT DUP3 ISZERO ISZERO AND ISZERO PUSH2 0x4021 JUMPI PUSH2 0x4020 PUSH2 0x3BED JUMP JUMPDEST JUMPDEST DUP3 DUP3 MUL SWAP1 POP SWAP3 SWAP2 POP POP JUMP JUMPDEST PUSH32 0x4E487B7100000000000000000000000000000000000000000000000000000000 PUSH1 0x0 MSTORE PUSH1 0x12 PUSH1 0x4 MSTORE PUSH1 0x24 PUSH1 0x0 REVERT JUMPDEST PUSH1 0x0 PUSH2 0x4066 DUP3 PUSH2 0x308B JUMP JUMPDEST SWAP2 POP PUSH2 0x4071 DUP4 PUSH2 0x308B JUMP JUMPDEST SWAP3 POP DUP3 PUSH2 0x4081 JUMPI PUSH2 0x4080 PUSH2 0x402C JUMP JUMPDEST JUMPDEST DUP3 DUP3 DIV SWAP1 POP SWAP3 SWAP2 POP POP JUMP JUMPDEST PUSH1 0x0 PUSH1 0x60 DUP3 ADD SWAP1 POP PUSH2 0x40A1 PUSH1 0x0 DUP4 ADD DUP7 PUSH2 0x32EE JUMP JUMPDEST PUSH2 0x40AE PUSH1 0x20 DUP4 ADD DUP6 PUSH2 0x32EE JUMP JUMPDEST PUSH2 0x40BB PUSH1 0x40 DUP4 ADD DUP5 PUSH2 0x3124 JUMP JUMPDEST SWAP5 SWAP4 POP POP POP POP JUMP JUMPDEST PUSH32 0x5472616E7366657248656C7065723A205452414E534645525F46524F4D5F4641 PUSH1 0x0 DUP3 ADD MSTORE PUSH32 0x494C454400000000000000000000000000000000000000000000000000000000 PUSH1 0x20 DUP3 ADD MSTORE POP JUMP JUMPDEST PUSH1 0x0 PUSH2 0x411F PUSH1 0x24 DUP4 PUSH2 0x3524 JUMP JUMPDEST SWAP2 POP PUSH2 0x412A DUP3 PUSH2 0x40C3 JUMP JUMPDEST PUSH1 0x40 DUP3 ADD SWAP1 POP SWAP2 SWAP1 POP JUMP JUMPDEST PUSH1 0x0 PUSH1 0x20 DUP3 ADD SWAP1 POP DUP2 DUP2 SUB PUSH1 0x0 DUP4 ADD MSTORE PUSH2 0x414E DUP2 PUSH2 0x4112 JUMP JUMPDEST SWAP1 POP SWAP2 SWAP1 POP JUMP INVALID LOG2 PUSH5 0x6970667358 0x22 SLT KECCAK256 PUSH2 0x39BE ORIGIN JUMP DUP15 0xC9 LT DUP12 PUSH32 0x5655A9F070FB84783638C2115609C9D89A016A699A4664736F6C634300080D00 CALLER "
				},
				"gasEstimates": {
					"creation": {
						"codeDepositCost": "3355800",
						"executionCost": "infinite",
						"totalCost": "infinite"
					},
					"external": {
						"_initialized()": "2539",
						"factory()": "infinite",
						"getAmounts()": "infinite",
						"getTokens()": "infinite",
						"getTradeOutAmount(uint256)": "infinite",
						"getTrades()": "infinite",
						"initialize(uint8,address,address,uint256,uint256,uint256,bool,address)": "infinite",
						"owner()": "2545",
						"renounceOwnership()": "30485",
						"tradeEthForToken()": "infinite",
						"tradeEthForToken(uint256)": "infinite",
						"tradeTokenForEth()": "infinite",
						"tradeTokenForEth(uint256)": "infinite",
						"tradeTokenForToken()": "infinite",
						"tradeTokenForToken(uint256)": "infinite",
						"transferOwnership(address)": "30830",
						"withdraw()": "infinite",
						"withdraw(address)": "infinite"
					},
					"internal": {
						"_getTradeOutAmount(uint256)": "infinite",
						"_tradeEthForToken(uint256)": "infinite",
						"_tradeTokenForEth(uint256)": "infinite",
						"_tradeTokenForToken(uint256)": "infinite"
					}
				},
				"methodIdentifiers": {
					"_initialized()": "3072cf60",
					"factory()": "c45a0155",
					"getAmounts()": "3d370b4e",
					"getTokens()": "aa6ca808",
					"getTradeOutAmount(uint256)": "dab5a8df",
					"getTrades()": "e43372e9",
					"initialize(uint8,address,address,uint256,uint256,uint256,bool,address)": "5f5780e5",
					"owner()": "8da5cb5b",
					"renounceOwnership()": "715018a6",
					"tradeEthForToken()": "d7bdfc75",
					"tradeEthForToken(uint256)": "4341f920",
					"tradeTokenForEth()": "a09702b1",
					"tradeTokenForEth(uint256)": "0d182605",
					"tradeTokenForToken()": "abd050ea",
					"tradeTokenForToken(uint256)": "2ffc6887",
					"transferOwnership(address)": "f2fde38b",
					"withdraw()": "3ccfd60b",
					"withdraw(address)": "51cff8d9"
				}
			},
			"storageLayout": {
				"storage": [
					{
						"astId": 7,
						"contract": "contracts/SyCrowBarter.sol:SyCrowBarter",
						"label": "_owner",
						"offset": 0,
						"slot": "0",
						"type": "t_address"
					},
					{
						"astId": 142,
						"contract": "contracts/SyCrowBarter.sol:SyCrowBarter",
						"label": "totalTradeAmount",
						"offset": 0,
						"slot": "1",
						"type": "t_uint256"
					},
					{
						"astId": 144,
						"contract": "contracts/SyCrowBarter.sol:SyCrowBarter",
						"label": "WETH",
						"offset": 0,
						"slot": "2",
						"type": "t_address"
					},
					{
						"astId": 146,
						"contract": "contracts/SyCrowBarter.sol:SyCrowBarter",
						"label": "_deadline",
						"offset": 0,
						"slot": "3",
						"type": "t_uint256"
					},
					{
						"astId": 149,
						"contract": "contracts/SyCrowBarter.sol:SyCrowBarter",
						"label": "_initialized",
						"offset": 0,
						"slot": "4",
						"type": "t_bool"
					},
					{
						"astId": 151,
						"contract": "contracts/SyCrowBarter.sol:SyCrowBarter",
						"label": "_depositedTokenAddress",
						"offset": 1,
						"slot": "4",
						"type": "t_address"
					},
					{
						"astId": 153,
						"contract": "contracts/SyCrowBarter.sol:SyCrowBarter",
						"label": "_expectedTokenAddress",
						"offset": 0,
						"slot": "5",
						"type": "t_address"
					},
					{
						"astId": 155,
						"contract": "contracts/SyCrowBarter.sol:SyCrowBarter",
						"label": "_depositedAmount",
						"offset": 0,
						"slot": "6",
						"type": "t_uint256"
					},
					{
						"astId": 157,
						"contract": "contracts/SyCrowBarter.sol:SyCrowBarter",
						"label": "_expectedAmount",
						"offset": 0,
						"slot": "7",
						"type": "t_uint256"
					},
					{
						"astId": 159,
						"contract": "contracts/SyCrowBarter.sol:SyCrowBarter",
						"label": "_allowMultiBarter",
						"offset": 0,
						"slot": "8",
						"type": "t_bool"
					},
					{
						"astId": 162,
						"contract": "contracts/SyCrowBarter.sol:SyCrowBarter",
						"label": "_barterType",
						"offset": 1,
						"slot": "8",
						"type": "t_enum(ISyCrowBarterType)1239"
					},
					{
						"astId": 166,
						"contract": "contracts/SyCrowBarter.sol:SyCrowBarter",
						"label": "_trades",
						"offset": 0,
						"slot": "9",
						"type": "t_array(t_struct(BaterTrade)173_storage)dyn_storage"
					}
				],
				"types": {
					"t_address": {
						"encoding": "inplace",
						"label": "address",
						"numberOfBytes": "20"
					},
					"t_array(t_struct(BaterTrade)173_storage)dyn_storage": {
						"base": "t_struct(BaterTrade)173_storage",
						"encoding": "dynamic_array",
						"label": "struct SyCrowBarter.BaterTrade[]",
						"numberOfBytes": "32"
					},
					"t_bool": {
						"encoding": "inplace",
						"label": "bool",
						"numberOfBytes": "1"
					},
					"t_enum(ISyCrowBarterType)1239": {
						"encoding": "inplace",
						"label": "enum ISyCrowBarterType",
						"numberOfBytes": "1"
					},
					"t_struct(BaterTrade)173_storage": {
						"encoding": "inplace",
						"label": "struct SyCrowBarter.BaterTrade",
						"members": [
							{
								"astId": 168,
								"contract": "contracts/SyCrowBarter.sol:SyCrowBarter",
								"label": "_trader",
								"offset": 0,
								"slot": "0",
								"type": "t_address"
							},
							{
								"astId": 170,
								"contract": "contracts/SyCrowBarter.sol:SyCrowBarter",
								"label": "_amountIn",
								"offset": 0,
								"slot": "1",
								"type": "t_uint256"
							},
							{
								"astId": 172,
								"contract": "contracts/SyCrowBarter.sol:SyCrowBarter",
								"label": "_amountOut",
								"offset": 0,
								"slot": "2",
								"type": "t_uint256"
							}
						],
						"numberOfBytes": "96"
					},
					"t_uint256": {
						"encoding": "inplace",
						"label": "uint256",
						"numberOfBytes": "32"
					}
				}
			},
			"userdoc": {
				"kind": "user",
				"methods": {},
				"version": 1
			}
		}
	}
}