{
	"contracts/SyCrowBarter.sol": {
		"SyCrowBarter": {
			"abi": [
				{
					"inputs": [],
					"stateMutability": "nonpayable",
					"type": "constructor"
				},
				{
					"anonymous": false,
					"inputs": [
						{
							"indexed": true,
							"internalType": "address",
							"name": "previousOwner",
							"type": "address"
						},
						{
							"indexed": true,
							"internalType": "address",
							"name": "newOwner",
							"type": "address"
						}
					],
					"name": "OwnershipTransferred",
					"type": "event"
				},
				{
					"inputs": [],
					"name": "_initialized",
					"outputs": [
						{
							"internalType": "bool",
							"name": "",
							"type": "bool"
						}
					],
					"stateMutability": "view",
					"type": "function"
				},
				{
					"inputs": [],
					"name": "barterType",
					"outputs": [
						{
							"internalType": "enum ISyCrowBarterType",
							"name": "",
							"type": "uint8"
						}
					],
					"stateMutability": "view",
					"type": "function"
				},
				{
					"inputs": [],
					"name": "factory",
					"outputs": [
						{
							"internalType": "address",
							"name": "",
							"type": "address"
						}
					],
					"stateMutability": "view",
					"type": "function"
				},
				{
					"inputs": [],
					"name": "getAmounts",
					"outputs": [
						{
							"internalType": "uint256",
							"name": "",
							"type": "uint256"
						},
						{
							"internalType": "uint256",
							"name": "",
							"type": "uint256"
						}
					],
					"stateMutability": "view",
					"type": "function"
				},
				{
					"inputs": [],
					"name": "getTokens",
					"outputs": [
						{
							"internalType": "address",
							"name": "",
							"type": "address"
						},
						{
							"internalType": "address",
							"name": "",
							"type": "address"
						}
					],
					"stateMutability": "view",
					"type": "function"
				},
				{
					"inputs": [
						{
							"internalType": "uint256",
							"name": "amount",
							"type": "uint256"
						}
					],
					"name": "getTradeOutAmount",
					"outputs": [
						{
							"internalType": "uint256",
							"name": "",
							"type": "uint256"
						}
					],
					"stateMutability": "view",
					"type": "function"
				},
				{
					"inputs": [],
					"name": "getTrades",
					"outputs": [
						{
							"internalType": "address[]",
							"name": "",
							"type": "address[]"
						},
						{
							"internalType": "uint256[]",
							"name": "",
							"type": "uint256[]"
						},
						{
							"internalType": "uint256[]",
							"name": "",
							"type": "uint256[]"
						}
					],
					"stateMutability": "view",
					"type": "function"
				},
				{
					"inputs": [
						{
							"internalType": "enum ISyCrowBarterType",
							"name": "_barterType",
							"type": "uint8"
						},
						{
							"internalType": "address",
							"name": "inToken",
							"type": "address"
						},
						{
							"internalType": "address",
							"name": "outToken",
							"type": "address"
						},
						{
							"internalType": "uint256",
							"name": "amountDeposited",
							"type": "uint256"
						},
						{
							"internalType": "uint256",
							"name": "amountExpected",
							"type": "uint256"
						},
						{
							"internalType": "uint256",
							"name": "deadline",
							"type": "uint256"
						},
						{
							"internalType": "bool",
							"name": "allowMultiBarter",
							"type": "bool"
						},
						{
							"internalType": "address",
							"name": "_WETH",
							"type": "address"
						}
					],
					"name": "initialize",
					"outputs": [
						{
							"internalType": "bool",
							"name": "",
							"type": "bool"
						}
					],
					"stateMutability": "nonpayable",
					"type": "function"
				},
				{
					"inputs": [],
					"name": "owner",
					"outputs": [
						{
							"internalType": "address",
							"name": "",
							"type": "address"
						}
					],
					"stateMutability": "view",
					"type": "function"
				},
				{
					"inputs": [],
					"name": "renounceOwnership",
					"outputs": [],
					"stateMutability": "nonpayable",
					"type": "function"
				},
				{
					"inputs": [],
					"name": "totalTradeAmount",
					"outputs": [
						{
							"internalType": "uint256",
							"name": "",
							"type": "uint256"
						}
					],
					"stateMutability": "view",
					"type": "function"
				},
				{
					"inputs": [
						{
							"internalType": "uint256",
							"name": "inAmount",
							"type": "uint256"
						}
					],
					"name": "tradeEthForToken",
					"outputs": [],
					"stateMutability": "payable",
					"type": "function"
				},
				{
					"inputs": [],
					"name": "tradeEthForToken",
					"outputs": [],
					"stateMutability": "payable",
					"type": "function"
				},
				{
					"inputs": [
						{
							"internalType": "uint256",
							"name": "inAmount",
							"type": "uint256"
						}
					],
					"name": "tradeTokenForEth",
					"outputs": [],
					"stateMutability": "nonpayable",
					"type": "function"
				},
				{
					"inputs": [],
					"name": "tradeTokenForEth",
					"outputs": [],
					"stateMutability": "nonpayable",
					"type": "function"
				},
				{
					"inputs": [
						{
							"internalType": "uint256",
							"name": "inAmount",
							"type": "uint256"
						}
					],
					"name": "tradeTokenForToken",
					"outputs": [],
					"stateMutability": "nonpayable",
					"type": "function"
				},
				{
					"inputs": [],
					"name": "tradeTokenForToken",
					"outputs": [],
					"stateMutability": "nonpayable",
					"type": "function"
				},
				{
					"inputs": [
						{
							"internalType": "address",
							"name": "newOwner",
							"type": "address"
						}
					],
					"name": "transferOwnership",
					"outputs": [],
					"stateMutability": "nonpayable",
					"type": "function"
				},
				{
					"inputs": [],
					"name": "withdraw",
					"outputs": [],
					"stateMutability": "nonpayable",
					"type": "function"
				},
				{
					"inputs": [
						{
							"internalType": "address",
							"name": "_erc20TokenAddress",
							"type": "address"
						}
					],
					"name": "withdraw",
					"outputs": [],
					"stateMutability": "nonpayable",
					"type": "function"
				}
			],
			"devdoc": {
				"kind": "dev",
				"methods": {
					"owner()": {
						"details": "Returns the address of the current owner."
					},
					"renounceOwnership()": {
						"details": "Leaves the contract without owner. It will not be possible to call `onlyOwner` functions anymore. Can only be called by the current owner. NOTE: Renouncing ownership will leave the contract without an owner, thereby removing any functionality that is only available to the owner."
					},
					"transferOwnership(address)": {
						"details": "Transfers ownership of the contract to a new account (`newOwner`). Can only be called by the current owner."
					}
				},
				"version": 1
			},
			"evm": {
				"assembly": "    /* \"contracts/SyCrowBarter.sol\":269:11086  contract SyCrowBarter is ISyCrowBarter, Ownable {... */\n  mstore(0x40, 0xa0)\n    /* \"contracts/SyCrowBarter.sol\":536:541  false */\n  0x00\n    /* \"contracts/SyCrowBarter.sol\":509:541  bool public _initialized = false */\n  0x04\n  exp(0x0100, 0x00)\n  dup2\n  sload\n  dup2\n  0xff\n  mul\n  not\n  and\n  swap1\n  dup4\n  iszero\n  iszero\n  mul\n  or\n  swap1\n  sstore\n  pop\n    /* \"contracts/SyCrowBarter.sol\":1891:1942  constructor() {... */\n  callvalue\n  dup1\n  iszero\n  tag_1\n  jumpi\n  0x00\n  dup1\n  revert\ntag_1:\n  pop\n    /* \"@openzeppelin/contracts/access/Ownable.sol\":921:953  _transferOwnership(_msgSender()) */\n  tag_5\n    /* \"@openzeppelin/contracts/access/Ownable.sol\":940:952  _msgSender() */\n  tag_6\n    /* \"@openzeppelin/contracts/access/Ownable.sol\":940:950  _msgSender */\n  shl(0x20, tag_7)\n    /* \"@openzeppelin/contracts/access/Ownable.sol\":940:952  _msgSender() */\n  0x20\n  shr\n  jump\t// in\ntag_6:\n    /* \"@openzeppelin/contracts/access/Ownable.sol\":921:939  _transferOwnership */\n  shl(0x20, tag_8)\n    /* \"@openzeppelin/contracts/access/Ownable.sol\":921:953  _transferOwnership(_msgSender()) */\n  0x20\n  shr\n  jump\t// in\ntag_5:\n    /* \"contracts/SyCrowBarter.sol\":1925:1935  msg.sender */\n  caller\n    /* \"contracts/SyCrowBarter.sol\":1915:1935  factory = msg.sender */\n  0xffffffffffffffffffffffffffffffffffffffff\n  and\n  0x80\n  dup2\n  0xffffffffffffffffffffffffffffffffffffffff\n  and\n  dup2\n  mstore\n  pop\n  pop\n    /* \"contracts/SyCrowBarter.sol\":269:11086  contract SyCrowBarter is ISyCrowBarter, Ownable {... */\n  jump(tag_10)\n    /* \"@openzeppelin/contracts/utils/Context.sol\":640:736  function _msgSender() internal view virtual returns (address) {... */\ntag_7:\n    /* \"@openzeppelin/contracts/utils/Context.sol\":693:700  address */\n  0x00\n    /* \"@openzeppelin/contracts/utils/Context.sol\":719:729  msg.sender */\n  caller\n    /* \"@openzeppelin/contracts/utils/Context.sol\":712:729  return msg.sender */\n  swap1\n  pop\n    /* \"@openzeppelin/contracts/utils/Context.sol\":640:736  function _msgSender() internal view virtual returns (address) {... */\n  swap1\n  jump\t// out\n    /* \"@openzeppelin/contracts/access/Ownable.sol\":2270:2457  function _transferOwnership(address newOwner) internal virtual {... */\ntag_8:\n    /* \"@openzeppelin/contracts/access/Ownable.sol\":2343:2359  address oldOwner */\n  0x00\n    /* \"@openzeppelin/contracts/access/Ownable.sol\":2362:2368  _owner */\n  dup1\n  0x00\n  swap1\n  sload\n  swap1\n  0x0100\n  exp\n  swap1\n  div\n  0xffffffffffffffffffffffffffffffffffffffff\n  and\n    /* \"@openzeppelin/contracts/access/Ownable.sol\":2343:2368  address oldOwner = _owner */\n  swap1\n  pop\n    /* \"@openzeppelin/contracts/access/Ownable.sol\":2387:2395  newOwner */\n  dup2\n    /* \"@openzeppelin/contracts/access/Ownable.sol\":2378:2384  _owner */\n  0x00\n  dup1\n    /* \"@openzeppelin/contracts/access/Ownable.sol\":2378:2395  _owner = newOwner */\n  0x0100\n  exp\n  dup2\n  sload\n  dup2\n  0xffffffffffffffffffffffffffffffffffffffff\n  mul\n  not\n  and\n  swap1\n  dup4\n  0xffffffffffffffffffffffffffffffffffffffff\n  and\n  mul\n  or\n  swap1\n  sstore\n  pop\n    /* \"@openzeppelin/contracts/access/Ownable.sol\":2441:2449  newOwner */\n  dup2\n    /* \"@openzeppelin/contracts/access/Ownable.sol\":2410:2450  OwnershipTransferred(oldOwner, newOwner) */\n  0xffffffffffffffffffffffffffffffffffffffff\n  and\n    /* \"@openzeppelin/contracts/access/Ownable.sol\":2431:2439  oldOwner */\n  dup2\n    /* \"@openzeppelin/contracts/access/Ownable.sol\":2410:2450  OwnershipTransferred(oldOwner, newOwner) */\n  0xffffffffffffffffffffffffffffffffffffffff\n  and\n  0x8be0079c531659141344cd1fd0a4f28419497f9722a3daafe3b4186f6b6457e0\n  mload(0x40)\n  mload(0x40)\n  dup1\n  swap2\n  sub\n  swap1\n  log3\n    /* \"@openzeppelin/contracts/access/Ownable.sol\":2333:2457  {... */\n  pop\n    /* \"@openzeppelin/contracts/access/Ownable.sol\":2270:2457  function _transferOwnership(address newOwner) internal virtual {... */\n  pop\n  jump\t// out\n    /* \"contracts/SyCrowBarter.sol\":269:11086  contract SyCrowBarter is ISyCrowBarter, Ownable {... */\ntag_10:\n  mload(0x80)\n  codecopy(0x00, dataOffset(sub_0), dataSize(sub_0))\n  0x00\n  assignImmutable(\"0x26a975632f70533c9512e57b565b8ce8e2befee6b08dfbc27c4a897a20e2c1d6\")\n  return(0x00, dataSize(sub_0))\nstop\n\nsub_0: assembly {\n        /* \"contracts/SyCrowBarter.sol\":269:11086  contract SyCrowBarter is ISyCrowBarter, Ownable {... */\n      mstore(0x40, 0x80)\n      jumpi(tag_1, lt(calldatasize, 0x04))\n      shr(0xe0, calldataload(0x00))\n      dup1\n      0x89523742\n      gt\n      tag_22\n      jumpi\n      dup1\n      0xc45a0155\n      gt\n      tag_23\n      jumpi\n      dup1\n      0xc45a0155\n      eq\n      tag_17\n      jumpi\n      dup1\n      0xd7bdfc75\n      eq\n      tag_18\n      jumpi\n      dup1\n      0xdab5a8df\n      eq\n      tag_19\n      jumpi\n      dup1\n      0xe43372e9\n      eq\n      tag_20\n      jumpi\n      dup1\n      0xf2fde38b\n      eq\n      tag_21\n      jumpi\n      jump(tag_1)\n    tag_23:\n      dup1\n      0x89523742\n      eq\n      tag_12\n      jumpi\n      dup1\n      0x8da5cb5b\n      eq\n      tag_13\n      jumpi\n      dup1\n      0xa09702b1\n      eq\n      tag_14\n      jumpi\n      dup1\n      0xaa6ca808\n      eq\n      tag_15\n      jumpi\n      dup1\n      0xabd050ea\n      eq\n      tag_16\n      jumpi\n      jump(tag_1)\n    tag_22:\n      dup1\n      0x40a6f1ab\n      gt\n      tag_24\n      jumpi\n      dup1\n      0x40a6f1ab\n      eq\n      tag_7\n      jumpi\n      dup1\n      0x4341f920\n      eq\n      tag_8\n      jumpi\n      dup1\n      0x51cff8d9\n      eq\n      tag_9\n      jumpi\n      dup1\n      0x5f5780e5\n      eq\n      tag_10\n      jumpi\n      dup1\n      0x715018a6\n      eq\n      tag_11\n      jumpi\n      jump(tag_1)\n    tag_24:\n      dup1\n      0x0d182605\n      eq\n      tag_2\n      jumpi\n      dup1\n      0x2ffc6887\n      eq\n      tag_3\n      jumpi\n      dup1\n      0x3072cf60\n      eq\n      tag_4\n      jumpi\n      dup1\n      0x3ccfd60b\n      eq\n      tag_5\n      jumpi\n      dup1\n      0x3d370b4e\n      eq\n      tag_6\n      jumpi\n    tag_1:\n      0x00\n      dup1\n      revert\n        /* \"contracts/SyCrowBarter.sol\":4355:4624  function tradeTokenForEth(uint256 inAmount)... */\n    tag_2:\n      callvalue\n      dup1\n      iszero\n      tag_25\n      jumpi\n      0x00\n      dup1\n      revert\n    tag_25:\n      pop\n      tag_26\n      0x04\n      dup1\n      calldatasize\n      sub\n      dup2\n      add\n      swap1\n      tag_27\n      swap2\n      swap1\n      tag_28\n      jump\t// in\n    tag_27:\n      tag_29\n      jump\t// in\n    tag_26:\n      stop\n        /* \"contracts/SyCrowBarter.sol\":4074:4349  function tradeTokenForToken(uint256 inAmount)... */\n    tag_3:\n      callvalue\n      dup1\n      iszero\n      tag_30\n      jumpi\n      0x00\n      dup1\n      revert\n    tag_30:\n      pop\n      tag_31\n      0x04\n      dup1\n      calldatasize\n      sub\n      dup2\n      add\n      swap1\n      tag_32\n      swap2\n      swap1\n      tag_28\n      jump\t// in\n    tag_32:\n      tag_33\n      jump\t// in\n    tag_31:\n      stop\n        /* \"contracts/SyCrowBarter.sol\":509:541  bool public _initialized = false */\n    tag_4:\n      callvalue\n      dup1\n      iszero\n      tag_34\n      jumpi\n      0x00\n      dup1\n      revert\n    tag_34:\n      pop\n      tag_35\n      tag_36\n      jump\t// in\n    tag_35:\n      mload(0x40)\n      tag_37\n      swap2\n      swap1\n      tag_38\n      jump\t// in\n    tag_37:\n      mload(0x40)\n      dup1\n      swap2\n      sub\n      swap1\n      return\n        /* \"contracts/SyCrowBarter.sol\":8584:10301  function withdraw() external override checkInActive initialized onlyOwner {... */\n    tag_5:\n      callvalue\n      dup1\n      iszero\n      tag_39\n      jumpi\n      0x00\n      dup1\n      revert\n    tag_39:\n      pop\n      tag_40\n      tag_41\n      jump\t// in\n    tag_40:\n      stop\n        /* \"contracts/SyCrowBarter.sol\":2985:3172  function getAmounts()... */\n    tag_6:\n      callvalue\n      dup1\n      iszero\n      tag_42\n      jumpi\n      0x00\n      dup1\n      revert\n    tag_42:\n      pop\n      tag_43\n      tag_44\n      jump\t// in\n    tag_43:\n      mload(0x40)\n      tag_45\n      swap3\n      swap2\n      swap1\n      tag_46\n      jump\t// in\n    tag_45:\n      mload(0x40)\n      dup1\n      swap2\n      sub\n      swap1\n      return\n        /* \"contracts/SyCrowBarter.sol\":370:401  uint256 public totalTradeAmount */\n    tag_7:\n      callvalue\n      dup1\n      iszero\n      tag_47\n      jumpi\n      0x00\n      dup1\n      revert\n    tag_47:\n      pop\n      tag_48\n      tag_49\n      jump\t// in\n    tag_48:\n      mload(0x40)\n      tag_50\n      swap2\n      swap1\n      tag_51\n      jump\t// in\n    tag_50:\n      mload(0x40)\n      dup1\n      swap2\n      sub\n      swap1\n      return\n        /* \"contracts/SyCrowBarter.sol\":4630:4915  function tradeEthForToken(uint256 inAmount)... */\n    tag_8:\n      tag_52\n      0x04\n      dup1\n      calldatasize\n      sub\n      dup2\n      add\n      swap1\n      tag_53\n      swap2\n      swap1\n      tag_28\n      jump\t// in\n    tag_53:\n      tag_54\n      jump\t// in\n    tag_52:\n      stop\n        /* \"contracts/SyCrowBarter.sol\":10307:10908  function withdraw(address _erc20TokenAddress)... */\n    tag_9:\n      callvalue\n      dup1\n      iszero\n      tag_55\n      jumpi\n      0x00\n      dup1\n      revert\n    tag_55:\n      pop\n      tag_56\n      0x04\n      dup1\n      calldatasize\n      sub\n      dup2\n      add\n      swap1\n      tag_57\n      swap2\n      swap1\n      tag_58\n      jump\t// in\n    tag_57:\n      tag_59\n      jump\t// in\n    tag_56:\n      stop\n        /* \"contracts/SyCrowBarter.sol\":1948:2979  function initialize(... */\n    tag_10:\n      callvalue\n      dup1\n      iszero\n      tag_60\n      jumpi\n      0x00\n      dup1\n      revert\n    tag_60:\n      pop\n      tag_61\n      0x04\n      dup1\n      calldatasize\n      sub\n      dup2\n      add\n      swap1\n      tag_62\n      swap2\n      swap1\n      tag_63\n      jump\t// in\n    tag_62:\n      tag_64\n      jump\t// in\n    tag_61:\n      mload(0x40)\n      tag_65\n      swap2\n      swap1\n      tag_38\n      jump\t// in\n    tag_65:\n      mload(0x40)\n      dup1\n      swap2\n      sub\n      swap1\n      return\n        /* \"@openzeppelin/contracts/access/Ownable.sol\":1668:1769  function renounceOwnership() public virtual onlyOwner {... */\n    tag_11:\n      callvalue\n      dup1\n      iszero\n      tag_66\n      jumpi\n      0x00\n      dup1\n      revert\n    tag_66:\n      pop\n      tag_67\n      tag_68\n      jump\t// in\n    tag_67:\n      stop\n        /* \"contracts/SyCrowBarter.sol\":407:442  ISyCrowBarterType public barterType */\n    tag_12:\n      callvalue\n      dup1\n      iszero\n      tag_69\n      jumpi\n      0x00\n      dup1\n      revert\n    tag_69:\n      pop\n      tag_70\n      tag_71\n      jump\t// in\n    tag_70:\n      mload(0x40)\n      tag_72\n      swap2\n      swap1\n      tag_73\n      jump\t// in\n    tag_72:\n      mload(0x40)\n      dup1\n      swap2\n      sub\n      swap1\n      return\n        /* \"@openzeppelin/contracts/access/Ownable.sol\":1036:1121  function owner() public view virtual returns (address) {... */\n    tag_13:\n      callvalue\n      dup1\n      iszero\n      tag_74\n      jumpi\n      0x00\n      dup1\n      revert\n    tag_74:\n      pop\n      tag_75\n      tag_76\n      jump\t// in\n    tag_75:\n      mload(0x40)\n      tag_77\n      swap2\n      swap1\n      tag_78\n      jump\t// in\n    tag_77:\n      mload(0x40)\n      dup1\n      swap2\n      sub\n      swap1\n      return\n        /* \"contracts/SyCrowBarter.sol\":5167:5401  function tradeTokenForEth()... */\n    tag_14:\n      callvalue\n      dup1\n      iszero\n      tag_79\n      jumpi\n      0x00\n      dup1\n      revert\n    tag_79:\n      pop\n      tag_80\n      tag_81\n      jump\t// in\n    tag_80:\n      stop\n        /* \"contracts/SyCrowBarter.sol\":3178:3376  function getTokens()... */\n    tag_15:\n      callvalue\n      dup1\n      iszero\n      tag_82\n      jumpi\n      0x00\n      dup1\n      revert\n    tag_82:\n      pop\n      tag_83\n      tag_84\n      jump\t// in\n    tag_83:\n      mload(0x40)\n      tag_85\n      swap3\n      swap2\n      swap1\n      tag_86\n      jump\t// in\n    tag_85:\n      mload(0x40)\n      dup1\n      swap2\n      sub\n      swap1\n      return\n        /* \"contracts/SyCrowBarter.sol\":4921:5161  function tradeTokenForToken()... */\n    tag_16:\n      callvalue\n      dup1\n      iszero\n      tag_87\n      jumpi\n      0x00\n      dup1\n      revert\n    tag_87:\n      pop\n      tag_88\n      tag_89\n      jump\t// in\n    tag_88:\n      stop\n        /* \"contracts/SyCrowBarter.sol\":323:364  address public immutable override factory */\n    tag_17:\n      callvalue\n      dup1\n      iszero\n      tag_90\n      jumpi\n      0x00\n      dup1\n      revert\n    tag_90:\n      pop\n      tag_91\n      tag_92\n      jump\t// in\n    tag_91:\n      mload(0x40)\n      tag_93\n      swap2\n      swap1\n      tag_78\n      jump\t// in\n    tag_93:\n      mload(0x40)\n      dup1\n      swap2\n      sub\n      swap1\n      return\n        /* \"contracts/SyCrowBarter.sol\":5407:5657  function tradeEthForToken()... */\n    tag_18:\n      tag_94\n      tag_95\n      jump\t// in\n    tag_94:\n      stop\n        /* \"contracts/SyCrowBarter.sol\":10914:11084  function getTradeOutAmount(uint256 amount)... */\n    tag_19:\n      callvalue\n      dup1\n      iszero\n      tag_96\n      jumpi\n      0x00\n      dup1\n      revert\n    tag_96:\n      pop\n      tag_97\n      0x04\n      dup1\n      calldatasize\n      sub\n      dup2\n      add\n      swap1\n      tag_98\n      swap2\n      swap1\n      tag_28\n      jump\t// in\n    tag_98:\n      tag_99\n      jump\t// in\n    tag_97:\n      mload(0x40)\n      tag_100\n      swap2\n      swap1\n      tag_51\n      jump\t// in\n    tag_100:\n      mload(0x40)\n      dup1\n      swap2\n      sub\n      swap1\n      return\n        /* \"contracts/SyCrowBarter.sol\":3382:4068  function getTrades()... */\n    tag_20:\n      callvalue\n      dup1\n      iszero\n      tag_101\n      jumpi\n      0x00\n      dup1\n      revert\n    tag_101:\n      pop\n      tag_102\n      tag_103\n      jump\t// in\n    tag_102:\n      mload(0x40)\n      tag_104\n      swap4\n      swap3\n      swap2\n      swap1\n      tag_105\n      jump\t// in\n    tag_104:\n      mload(0x40)\n      dup1\n      swap2\n      sub\n      swap1\n      return\n        /* \"@openzeppelin/contracts/access/Ownable.sol\":1918:2116  function transferOwnership(address newOwner) public virtual onlyOwner {... */\n    tag_21:\n      callvalue\n      dup1\n      iszero\n      tag_106\n      jumpi\n      0x00\n      dup1\n      revert\n    tag_106:\n      pop\n      tag_107\n      0x04\n      dup1\n      calldatasize\n      sub\n      dup2\n      add\n      swap1\n      tag_108\n      swap2\n      swap1\n      tag_58\n      jump\t// in\n    tag_108:\n      tag_109\n      jump\t// in\n    tag_107:\n      stop\n        /* \"contracts/SyCrowBarter.sol\":4355:4624  function tradeTokenForEth(uint256 inAmount)... */\n    tag_29:\n        /* \"contracts/SyCrowBarter.sol\":969:984  block.timestamp */\n      timestamp\n        /* \"contracts/SyCrowBarter.sol\":956:965  _deadline */\n      sload(0x03)\n        /* \"contracts/SyCrowBarter.sol\":956:984  _deadline >= block.timestamp */\n      lt\n      iszero\n        /* \"contracts/SyCrowBarter.sol\":956:1022  _deadline >= block.timestamp && totalTradeAmount < _expectedAmount */\n      dup1\n      iszero\n      tag_111\n      jumpi\n      pop\n        /* \"contracts/SyCrowBarter.sol\":1007:1022  _expectedAmount */\n      sload(0x07)\n        /* \"contracts/SyCrowBarter.sol\":988:1004  totalTradeAmount */\n      sload(0x01)\n        /* \"contracts/SyCrowBarter.sol\":988:1022  totalTradeAmount < _expectedAmount */\n      lt\n        /* \"contracts/SyCrowBarter.sol\":956:1022  _deadline >= block.timestamp && totalTradeAmount < _expectedAmount */\n    tag_111:\n        /* \"contracts/SyCrowBarter.sol\":935:1070  require(... */\n      tag_112\n      jumpi\n      mload(0x40)\n      0x08c379a000000000000000000000000000000000000000000000000000000000\n      dup2\n      mstore\n      0x04\n      add\n      tag_113\n      swap1\n      tag_114\n      jump\t// in\n    tag_113:\n      mload(0x40)\n      dup1\n      swap2\n      sub\n      swap1\n      revert\n    tag_112:\n        /* \"contracts/SyCrowBarter.sol\":1488:1500  _initialized */\n      0x04\n      0x00\n      swap1\n      sload\n      swap1\n      0x0100\n      exp\n      swap1\n      div\n      0xff\n      and\n        /* \"contracts/SyCrowBarter.sol\":1480:1534  require(_initialized, \"SyCrowBarter: NOT_INITIALIZED\") */\n      tag_116\n      jumpi\n      mload(0x40)\n      0x08c379a000000000000000000000000000000000000000000000000000000000\n      dup2\n      mstore\n      0x04\n      add\n      tag_117\n      swap1\n      tag_118\n      jump\t// in\n    tag_117:\n      mload(0x40)\n      dup1\n      swap2\n      sub\n      swap1\n      revert\n    tag_116:\n        /* \"contracts/SyCrowBarter.sol\":1721:1754  ISyCrowBarterFactory isycrFactory */\n      0x00\n        /* \"contracts/SyCrowBarter.sol\":1778:1785  factory */\n      immutable(\"0x26a975632f70533c9512e57b565b8ce8e2befee6b08dfbc27c4a897a20e2c1d6\")\n        /* \"contracts/SyCrowBarter.sol\":1721:1786  ISyCrowBarterFactory isycrFactory = ISyCrowBarterFactory(factory) */\n      swap1\n      pop\n        /* \"contracts/SyCrowBarter.sol\":1805:1817  isycrFactory */\n      dup1\n        /* \"contracts/SyCrowBarter.sol\":1805:1826  isycrFactory.isPaused */\n      0xffffffffffffffffffffffffffffffffffffffff\n      and\n      0xb187bd26\n        /* \"contracts/SyCrowBarter.sol\":1805:1828  isycrFactory.isPaused() */\n      mload(0x40)\n      dup2\n      0xffffffff\n      and\n      0xe0\n      shl\n      dup2\n      mstore\n      0x04\n      add\n      0x20\n      mload(0x40)\n      dup1\n      dup4\n      sub\n      dup2\n      dup7\n      gas\n      staticcall\n      iszero\n      dup1\n      iszero\n      tag_121\n      jumpi\n      returndatasize\n      0x00\n      dup1\n      returndatacopy\n      revert(0x00, returndatasize)\n    tag_121:\n      pop\n      pop\n      pop\n      pop\n      mload(0x40)\n      returndatasize\n      not(0x1f)\n      0x1f\n      dup3\n      add\n      and\n      dup3\n      add\n      dup1\n      0x40\n      mstore\n      pop\n      dup2\n      add\n      swap1\n      tag_122\n      swap2\n      swap1\n      tag_123\n      jump\t// in\n    tag_122:\n        /* \"contracts/SyCrowBarter.sol\":1804:1828  !isycrFactory.isPaused() */\n      iszero\n        /* \"contracts/SyCrowBarter.sol\":1796:1867  require(!isycrFactory.isPaused(), \"SyCrowBarter: Base Contract Paused\") */\n      tag_124\n      jumpi\n      mload(0x40)\n      0x08c379a000000000000000000000000000000000000000000000000000000000\n      dup2\n      mstore\n      0x04\n      add\n      tag_125\n      swap1\n      tag_126\n      jump\t// in\n    tag_125:\n      mload(0x40)\n      dup1\n      swap2\n      sub\n      swap1\n      revert\n    tag_124:\n        /* \"contracts/SyCrowBarter.sol\":1605:1622  _allowMultiBarter */\n      0x08\n      0x00\n      swap1\n      sload\n      swap1\n      0x0100\n      exp\n      swap1\n      div\n      0xff\n      and\n        /* \"contracts/SyCrowBarter.sol\":1597:1664  require(_allowMultiBarter, \"SyCrowBarter: MULTI_TRADE_NOT_ENABLED\") */\n      tag_128\n      jumpi\n      mload(0x40)\n      0x08c379a000000000000000000000000000000000000000000000000000000000\n      dup2\n      mstore\n      0x04\n      add\n      tag_129\n      swap1\n      tag_130\n      jump\t// in\n    tag_129:\n      mload(0x40)\n      dup1\n      swap2\n      sub\n      swap1\n      revert\n    tag_128:\n        /* \"contracts/SyCrowBarter.sol\":4543:4574  ISyCrowBarterType.ETH_FOR_TOKEN */\n      0x00\n        /* \"contracts/SyCrowBarter.sol\":1183:1193  barterType */\n      0x02\n      0x00\n      swap1\n      sload\n      swap1\n      0x0100\n      exp\n      swap1\n      div\n      0xff\n      and\n        /* \"contracts/SyCrowBarter.sol\":1168:1193  _barterType == barterType */\n      0x02\n      dup2\n      gt\n      iszero\n      tag_132\n      jumpi\n      tag_133\n      tag_134\n      jump\t// in\n    tag_133:\n    tag_132:\n        /* \"contracts/SyCrowBarter.sol\":1168:1179  _barterType */\n      dup2\n        /* \"contracts/SyCrowBarter.sol\":1168:1193  _barterType == barterType */\n      0x02\n      dup2\n      gt\n      iszero\n      tag_135\n      jumpi\n      tag_136\n      tag_134\n      jump\t// in\n    tag_136:\n    tag_135:\n      eq\n        /* \"contracts/SyCrowBarter.sol\":1160:1231  require(_barterType == barterType, \"SyCrowBarter: INVALID_BARTER_TYPE\") */\n      tag_137\n      jumpi\n      mload(0x40)\n      0x08c379a000000000000000000000000000000000000000000000000000000000\n      dup2\n      mstore\n      0x04\n      add\n      tag_138\n      swap1\n      tag_139\n      jump\t// in\n    tag_138:\n      mload(0x40)\n      dup1\n      swap2\n      sub\n      swap1\n      revert\n    tag_137:\n        /* \"contracts/SyCrowBarter.sol\":4590:4617  _tradeTokenForEth(inAmount) */\n      tag_141\n        /* \"contracts/SyCrowBarter.sol\":4608:4616  inAmount */\n      dup4\n        /* \"contracts/SyCrowBarter.sol\":4590:4607  _tradeTokenForEth */\n      tag_142\n        /* \"contracts/SyCrowBarter.sol\":4590:4617  _tradeTokenForEth(inAmount) */\n      jump\t// in\n    tag_141:\n        /* \"contracts/SyCrowBarter.sol\":1674:1675  _ */\n      pop\n        /* \"contracts/SyCrowBarter.sol\":1711:1885  {... */\n      pop\n        /* \"contracts/SyCrowBarter.sol\":4355:4624  function tradeTokenForEth(uint256 inAmount)... */\n      pop\n      jump\t// out\n        /* \"contracts/SyCrowBarter.sol\":4074:4349  function tradeTokenForToken(uint256 inAmount)... */\n    tag_33:\n        /* \"contracts/SyCrowBarter.sol\":969:984  block.timestamp */\n      timestamp\n        /* \"contracts/SyCrowBarter.sol\":956:965  _deadline */\n      sload(0x03)\n        /* \"contracts/SyCrowBarter.sol\":956:984  _deadline >= block.timestamp */\n      lt\n      iszero\n        /* \"contracts/SyCrowBarter.sol\":956:1022  _deadline >= block.timestamp && totalTradeAmount < _expectedAmount */\n      dup1\n      iszero\n      tag_144\n      jumpi\n      pop\n        /* \"contracts/SyCrowBarter.sol\":1007:1022  _expectedAmount */\n      sload(0x07)\n        /* \"contracts/SyCrowBarter.sol\":988:1004  totalTradeAmount */\n      sload(0x01)\n        /* \"contracts/SyCrowBarter.sol\":988:1022  totalTradeAmount < _expectedAmount */\n      lt\n        /* \"contracts/SyCrowBarter.sol\":956:1022  _deadline >= block.timestamp && totalTradeAmount < _expectedAmount */\n    tag_144:\n        /* \"contracts/SyCrowBarter.sol\":935:1070  require(... */\n      tag_145\n      jumpi\n      mload(0x40)\n      0x08c379a000000000000000000000000000000000000000000000000000000000\n      dup2\n      mstore\n      0x04\n      add\n      tag_146\n      swap1\n      tag_114\n      jump\t// in\n    tag_146:\n      mload(0x40)\n      dup1\n      swap2\n      sub\n      swap1\n      revert\n    tag_145:\n        /* \"contracts/SyCrowBarter.sol\":1488:1500  _initialized */\n      0x04\n      0x00\n      swap1\n      sload\n      swap1\n      0x0100\n      exp\n      swap1\n      div\n      0xff\n      and\n        /* \"contracts/SyCrowBarter.sol\":1480:1534  require(_initialized, \"SyCrowBarter: NOT_INITIALIZED\") */\n      tag_148\n      jumpi\n      mload(0x40)\n      0x08c379a000000000000000000000000000000000000000000000000000000000\n      dup2\n      mstore\n      0x04\n      add\n      tag_149\n      swap1\n      tag_118\n      jump\t// in\n    tag_149:\n      mload(0x40)\n      dup1\n      swap2\n      sub\n      swap1\n      revert\n    tag_148:\n        /* \"contracts/SyCrowBarter.sol\":1721:1754  ISyCrowBarterFactory isycrFactory */\n      0x00\n        /* \"contracts/SyCrowBarter.sol\":1778:1785  factory */\n      immutable(\"0x26a975632f70533c9512e57b565b8ce8e2befee6b08dfbc27c4a897a20e2c1d6\")\n        /* \"contracts/SyCrowBarter.sol\":1721:1786  ISyCrowBarterFactory isycrFactory = ISyCrowBarterFactory(factory) */\n      swap1\n      pop\n        /* \"contracts/SyCrowBarter.sol\":1805:1817  isycrFactory */\n      dup1\n        /* \"contracts/SyCrowBarter.sol\":1805:1826  isycrFactory.isPaused */\n      0xffffffffffffffffffffffffffffffffffffffff\n      and\n      0xb187bd26\n        /* \"contracts/SyCrowBarter.sol\":1805:1828  isycrFactory.isPaused() */\n      mload(0x40)\n      dup2\n      0xffffffff\n      and\n      0xe0\n      shl\n      dup2\n      mstore\n      0x04\n      add\n      0x20\n      mload(0x40)\n      dup1\n      dup4\n      sub\n      dup2\n      dup7\n      gas\n      staticcall\n      iszero\n      dup1\n      iszero\n      tag_152\n      jumpi\n      returndatasize\n      0x00\n      dup1\n      returndatacopy\n      revert(0x00, returndatasize)\n    tag_152:\n      pop\n      pop\n      pop\n      pop\n      mload(0x40)\n      returndatasize\n      not(0x1f)\n      0x1f\n      dup3\n      add\n      and\n      dup3\n      add\n      dup1\n      0x40\n      mstore\n      pop\n      dup2\n      add\n      swap1\n      tag_153\n      swap2\n      swap1\n      tag_123\n      jump\t// in\n    tag_153:\n        /* \"contracts/SyCrowBarter.sol\":1804:1828  !isycrFactory.isPaused() */\n      iszero\n        /* \"contracts/SyCrowBarter.sol\":1796:1867  require(!isycrFactory.isPaused(), \"SyCrowBarter: Base Contract Paused\") */\n      tag_154\n      jumpi\n      mload(0x40)\n      0x08c379a000000000000000000000000000000000000000000000000000000000\n      dup2\n      mstore\n      0x04\n      add\n      tag_155\n      swap1\n      tag_126\n      jump\t// in\n    tag_155:\n      mload(0x40)\n      dup1\n      swap2\n      sub\n      swap1\n      revert\n    tag_154:\n        /* \"contracts/SyCrowBarter.sol\":1605:1622  _allowMultiBarter */\n      0x08\n      0x00\n      swap1\n      sload\n      swap1\n      0x0100\n      exp\n      swap1\n      div\n      0xff\n      and\n        /* \"contracts/SyCrowBarter.sol\":1597:1664  require(_allowMultiBarter, \"SyCrowBarter: MULTI_TRADE_NOT_ENABLED\") */\n      tag_157\n      jumpi\n      mload(0x40)\n      0x08c379a000000000000000000000000000000000000000000000000000000000\n      dup2\n      mstore\n      0x04\n      add\n      tag_158\n      swap1\n      tag_130\n      jump\t// in\n    tag_158:\n      mload(0x40)\n      dup1\n      swap2\n      sub\n      swap1\n      revert\n    tag_157:\n        /* \"contracts/SyCrowBarter.sol\":4264:4297  ISyCrowBarterType.TOKEN_FOR_TOKEN */\n      0x02\n        /* \"contracts/SyCrowBarter.sol\":1183:1193  barterType */\n      dup1\n      0x00\n      swap1\n      sload\n      swap1\n      0x0100\n      exp\n      swap1\n      div\n      0xff\n      and\n        /* \"contracts/SyCrowBarter.sol\":1168:1193  _barterType == barterType */\n      0x02\n      dup2\n      gt\n      iszero\n      tag_160\n      jumpi\n      tag_161\n      tag_134\n      jump\t// in\n    tag_161:\n    tag_160:\n        /* \"contracts/SyCrowBarter.sol\":1168:1179  _barterType */\n      dup2\n        /* \"contracts/SyCrowBarter.sol\":1168:1193  _barterType == barterType */\n      0x02\n      dup2\n      gt\n      iszero\n      tag_162\n      jumpi\n      tag_163\n      tag_134\n      jump\t// in\n    tag_163:\n    tag_162:\n      eq\n        /* \"contracts/SyCrowBarter.sol\":1160:1231  require(_barterType == barterType, \"SyCrowBarter: INVALID_BARTER_TYPE\") */\n      tag_164\n      jumpi\n      mload(0x40)\n      0x08c379a000000000000000000000000000000000000000000000000000000000\n      dup2\n      mstore\n      0x04\n      add\n      tag_165\n      swap1\n      tag_139\n      jump\t// in\n    tag_165:\n      mload(0x40)\n      dup1\n      swap2\n      sub\n      swap1\n      revert\n    tag_164:\n        /* \"contracts/SyCrowBarter.sol\":4313:4342  _tradeTokenForToken(inAmount) */\n      tag_167\n        /* \"contracts/SyCrowBarter.sol\":4333:4341  inAmount */\n      dup4\n        /* \"contracts/SyCrowBarter.sol\":4313:4332  _tradeTokenForToken */\n      tag_168\n        /* \"contracts/SyCrowBarter.sol\":4313:4342  _tradeTokenForToken(inAmount) */\n      jump\t// in\n    tag_167:\n        /* \"contracts/SyCrowBarter.sol\":1674:1675  _ */\n      pop\n        /* \"contracts/SyCrowBarter.sol\":1711:1885  {... */\n      pop\n        /* \"contracts/SyCrowBarter.sol\":4074:4349  function tradeTokenForToken(uint256 inAmount)... */\n      pop\n      jump\t// out\n        /* \"contracts/SyCrowBarter.sol\":509:541  bool public _initialized = false */\n    tag_36:\n      0x04\n      0x00\n      swap1\n      sload\n      swap1\n      0x0100\n      exp\n      swap1\n      div\n      0xff\n      and\n      dup2\n      jump\t// out\n        /* \"contracts/SyCrowBarter.sol\":8584:10301  function withdraw() external override checkInActive initialized onlyOwner {... */\n    tag_41:\n        /* \"contracts/SyCrowBarter.sol\":1323:1338  block.timestamp */\n      timestamp\n        /* \"contracts/SyCrowBarter.sol\":1311:1320  _deadline */\n      sload(0x03)\n        /* \"contracts/SyCrowBarter.sol\":1311:1338  _deadline < block.timestamp */\n      lt\n        /* \"contracts/SyCrowBarter.sol\":1311:1377  _deadline < block.timestamp || totalTradeAmount >= _expectedAmount */\n      dup1\n      tag_170\n      jumpi\n      pop\n        /* \"contracts/SyCrowBarter.sol\":1362:1377  _expectedAmount */\n      sload(0x07)\n        /* \"contracts/SyCrowBarter.sol\":1342:1358  totalTradeAmount */\n      sload(0x01)\n        /* \"contracts/SyCrowBarter.sol\":1342:1377  totalTradeAmount >= _expectedAmount */\n      lt\n      iszero\n        /* \"contracts/SyCrowBarter.sol\":1311:1377  _deadline < block.timestamp || totalTradeAmount >= _expectedAmount */\n    tag_170:\n        /* \"contracts/SyCrowBarter.sol\":1290:1423  require(... */\n      tag_171\n      jumpi\n      mload(0x40)\n      0x08c379a000000000000000000000000000000000000000000000000000000000\n      dup2\n      mstore\n      0x04\n      add\n      tag_172\n      swap1\n      tag_173\n      jump\t// in\n    tag_172:\n      mload(0x40)\n      dup1\n      swap2\n      sub\n      swap1\n      revert\n    tag_171:\n        /* \"contracts/SyCrowBarter.sol\":1488:1500  _initialized */\n      0x04\n      0x00\n      swap1\n      sload\n      swap1\n      0x0100\n      exp\n      swap1\n      div\n      0xff\n      and\n        /* \"contracts/SyCrowBarter.sol\":1480:1534  require(_initialized, \"SyCrowBarter: NOT_INITIALIZED\") */\n      tag_175\n      jumpi\n      mload(0x40)\n      0x08c379a000000000000000000000000000000000000000000000000000000000\n      dup2\n      mstore\n      0x04\n      add\n      tag_176\n      swap1\n      tag_118\n      jump\t// in\n    tag_176:\n      mload(0x40)\n      dup1\n      swap2\n      sub\n      swap1\n      revert\n    tag_175:\n        /* \"@openzeppelin/contracts/access/Ownable.sol\":1259:1271  _msgSender() */\n      tag_178\n        /* \"@openzeppelin/contracts/access/Ownable.sol\":1259:1269  _msgSender */\n      tag_179\n        /* \"@openzeppelin/contracts/access/Ownable.sol\":1259:1271  _msgSender() */\n      jump\t// in\n    tag_178:\n        /* \"@openzeppelin/contracts/access/Ownable.sol\":1248:1271  owner() == _msgSender() */\n      0xffffffffffffffffffffffffffffffffffffffff\n      and\n        /* \"@openzeppelin/contracts/access/Ownable.sol\":1248:1255  owner() */\n      tag_180\n        /* \"@openzeppelin/contracts/access/Ownable.sol\":1248:1253  owner */\n      tag_76\n        /* \"@openzeppelin/contracts/access/Ownable.sol\":1248:1255  owner() */\n      jump\t// in\n    tag_180:\n        /* \"@openzeppelin/contracts/access/Ownable.sol\":1248:1271  owner() == _msgSender() */\n      0xffffffffffffffffffffffffffffffffffffffff\n      and\n      eq\n        /* \"@openzeppelin/contracts/access/Ownable.sol\":1240:1308  require(owner() == _msgSender(), \"Ownable: caller is not the owner\") */\n      tag_181\n      jumpi\n      mload(0x40)\n      0x08c379a000000000000000000000000000000000000000000000000000000000\n      dup2\n      mstore\n      0x04\n      add\n      tag_182\n      swap1\n      tag_183\n      jump\t// in\n    tag_182:\n      mload(0x40)\n      dup1\n      swap2\n      sub\n      swap1\n      revert\n    tag_181:\n        /* \"contracts/SyCrowBarter.sol\":8668:8679  IWETH _weth */\n      0x00\n        /* \"contracts/SyCrowBarter.sol\":8688:8692  WETH */\n      0x02\n      0x01\n      swap1\n      sload\n      swap1\n      0x0100\n      exp\n      swap1\n      div\n      0xffffffffffffffffffffffffffffffffffffffff\n      and\n        /* \"contracts/SyCrowBarter.sol\":8668:8693  IWETH _weth = IWETH(WETH) */\n      swap1\n      pop\n        /* \"contracts/SyCrowBarter.sol\":8704:8722  uint256 ethBalance */\n      0x00\n        /* \"contracts/SyCrowBarter.sol\":8725:8730  _weth */\n      dup2\n        /* \"contracts/SyCrowBarter.sol\":8725:8740  _weth.balanceOf */\n      0xffffffffffffffffffffffffffffffffffffffff\n      and\n      0x70a08231\n        /* \"contracts/SyCrowBarter.sol\":8749:8753  this */\n      address\n        /* \"contracts/SyCrowBarter.sol\":8725:8755  _weth.balanceOf(address(this)) */\n      mload(0x40)\n      dup3\n      0xffffffff\n      and\n      0xe0\n      shl\n      dup2\n      mstore\n      0x04\n      add\n      tag_185\n      swap2\n      swap1\n      tag_78\n      jump\t// in\n    tag_185:\n      0x20\n      mload(0x40)\n      dup1\n      dup4\n      sub\n      dup2\n      dup7\n      gas\n      staticcall\n      iszero\n      dup1\n      iszero\n      tag_187\n      jumpi\n      returndatasize\n      0x00\n      dup1\n      returndatacopy\n      revert(0x00, returndatasize)\n    tag_187:\n      pop\n      pop\n      pop\n      pop\n      mload(0x40)\n      returndatasize\n      not(0x1f)\n      0x1f\n      dup3\n      add\n      and\n      dup3\n      add\n      dup1\n      0x40\n      mstore\n      pop\n      dup2\n      add\n      swap1\n      tag_188\n      swap2\n      swap1\n      tag_189\n      jump\t// in\n    tag_188:\n        /* \"contracts/SyCrowBarter.sol\":8704:8755  uint256 ethBalance = _weth.balanceOf(address(this)) */\n      swap1\n      pop\n        /* \"contracts/SyCrowBarter.sol\":8783:8784  0 */\n      0x00\n        /* \"contracts/SyCrowBarter.sol\":8770:8780  ethBalance */\n      dup2\n        /* \"contracts/SyCrowBarter.sol\":8770:8784  ethBalance > 0 */\n      gt\n        /* \"contracts/SyCrowBarter.sol\":8766:8911  if (ethBalance > 0) {... */\n      iszero\n      tag_190\n      jumpi\n        /* \"contracts/SyCrowBarter.sol\":8806:8810  WETH */\n      0x02\n      0x01\n      swap1\n      sload\n      swap1\n      0x0100\n      exp\n      swap1\n      div\n      0xffffffffffffffffffffffffffffffffffffffff\n      and\n        /* \"contracts/SyCrowBarter.sol\":8800:8820  IWETH(WETH).withdraw */\n      0xffffffffffffffffffffffffffffffffffffffff\n      and\n      0x2e1a7d4d\n        /* \"contracts/SyCrowBarter.sol\":8821:8831  ethBalance */\n      dup3\n        /* \"contracts/SyCrowBarter.sol\":8800:8832  IWETH(WETH).withdraw(ethBalance) */\n      mload(0x40)\n      dup3\n      0xffffffff\n      and\n      0xe0\n      shl\n      dup2\n      mstore\n      0x04\n      add\n      tag_191\n      swap2\n      swap1\n      tag_51\n      jump\t// in\n    tag_191:\n      0x00\n      mload(0x40)\n      dup1\n      dup4\n      sub\n      dup2\n      0x00\n      dup8\n      dup1\n      extcodesize\n      iszero\n      dup1\n      iszero\n      tag_192\n      jumpi\n      0x00\n      dup1\n      revert\n    tag_192:\n      pop\n      gas\n      call\n      iszero\n      dup1\n      iszero\n      tag_194\n      jumpi\n      returndatasize\n      0x00\n      dup1\n      returndatacopy\n      revert(0x00, returndatasize)\n    tag_194:\n      pop\n      pop\n      pop\n      pop\n        /* \"contracts/SyCrowBarter.sol\":8846:8900  TransferHelper.safeTransferETH(msg.sender, ethBalance) */\n      tag_195\n        /* \"contracts/SyCrowBarter.sol\":8877:8887  msg.sender */\n      caller\n        /* \"contracts/SyCrowBarter.sol\":8889:8899  ethBalance */\n      dup3\n        /* \"contracts/SyCrowBarter.sol\":8846:8876  TransferHelper.safeTransferETH */\n      tag_196\n        /* \"contracts/SyCrowBarter.sol\":8846:8900  TransferHelper.safeTransferETH(msg.sender, ethBalance) */\n      jump\t// in\n    tag_195:\n        /* \"contracts/SyCrowBarter.sol\":8766:8911  if (ethBalance > 0) {... */\n    tag_190:\n        /* \"contracts/SyCrowBarter.sol\":8921:8949  uint256 expectedTokenBalance */\n      0x00\n        /* \"contracts/SyCrowBarter.sol\":8959:8980  _expectedTokenAddress */\n      0x05\n      0x00\n      swap1\n      sload\n      swap1\n      0x0100\n      exp\n      swap1\n      div\n      0xffffffffffffffffffffffffffffffffffffffff\n      and\n        /* \"contracts/SyCrowBarter.sol\":8952:8991  IERC20(_expectedTokenAddress).balanceOf */\n      0xffffffffffffffffffffffffffffffffffffffff\n      and\n      0x70a08231\n        /* \"contracts/SyCrowBarter.sol\":9013:9017  this */\n      address\n        /* \"contracts/SyCrowBarter.sol\":8952:9028  IERC20(_expectedTokenAddress).balanceOf(... */\n      mload(0x40)\n      dup3\n      0xffffffff\n      and\n      0xe0\n      shl\n      dup2\n      mstore\n      0x04\n      add\n      tag_197\n      swap2\n      swap1\n      tag_78\n      jump\t// in\n    tag_197:\n      0x20\n      mload(0x40)\n      dup1\n      dup4\n      sub\n      dup2\n      dup7\n      gas\n      staticcall\n      iszero\n      dup1\n      iszero\n      tag_199\n      jumpi\n      returndatasize\n      0x00\n      dup1\n      returndatacopy\n      revert(0x00, returndatasize)\n    tag_199:\n      pop\n      pop\n      pop\n      pop\n      mload(0x40)\n      returndatasize\n      not(0x1f)\n      0x1f\n      dup3\n      add\n      and\n      dup3\n      add\n      dup1\n      0x40\n      mstore\n      pop\n      dup2\n      add\n      swap1\n      tag_200\n      swap2\n      swap1\n      tag_189\n      jump\t// in\n    tag_200:\n        /* \"contracts/SyCrowBarter.sol\":8921:9028  uint256 expectedTokenBalance = IERC20(_expectedTokenAddress).balanceOf(... */\n      swap1\n      pop\n        /* \"contracts/SyCrowBarter.sol\":9066:9067  0 */\n      0x00\n        /* \"contracts/SyCrowBarter.sol\":9043:9063  expectedTokenBalance */\n      dup2\n        /* \"contracts/SyCrowBarter.sol\":9043:9067  expectedTokenBalance > 0 */\n      gt\n        /* \"contracts/SyCrowBarter.sol\":9039:9240  if (expectedTokenBalance > 0) {... */\n      iszero\n      tag_201\n      jumpi\n        /* \"contracts/SyCrowBarter.sol\":9083:9229  TransferHelper.safeTransfer(... */\n      tag_202\n        /* \"contracts/SyCrowBarter.sol\":9128:9149  _expectedTokenAddress */\n      0x05\n      0x00\n      swap1\n      sload\n      swap1\n      0x0100\n      exp\n      swap1\n      div\n      0xffffffffffffffffffffffffffffffffffffffff\n      and\n        /* \"contracts/SyCrowBarter.sol\":9167:9177  msg.sender */\n      caller\n        /* \"contracts/SyCrowBarter.sol\":9195:9215  expectedTokenBalance */\n      dup4\n        /* \"contracts/SyCrowBarter.sol\":9083:9110  TransferHelper.safeTransfer */\n      tag_203\n        /* \"contracts/SyCrowBarter.sol\":9083:9229  TransferHelper.safeTransfer(... */\n      jump\t// in\n    tag_202:\n        /* \"contracts/SyCrowBarter.sol\":9039:9240  if (expectedTokenBalance > 0) {... */\n    tag_201:\n        /* \"contracts/SyCrowBarter.sol\":9250:9279  uint256 depositedTokenBalance */\n      0x00\n        /* \"contracts/SyCrowBarter.sol\":9289:9311  _depositedTokenAddress */\n      0x04\n      0x01\n      swap1\n      sload\n      swap1\n      0x0100\n      exp\n      swap1\n      div\n      0xffffffffffffffffffffffffffffffffffffffff\n      and\n        /* \"contracts/SyCrowBarter.sol\":9282:9335  IERC20(_depositedTokenAddress)... */\n      0xffffffffffffffffffffffffffffffffffffffff\n      and\n      0x70a08231\n        /* \"contracts/SyCrowBarter.sol\":9344:9348  this */\n      address\n        /* \"contracts/SyCrowBarter.sol\":9282:9350  IERC20(_depositedTokenAddress)... */\n      mload(0x40)\n      dup3\n      0xffffffff\n      and\n      0xe0\n      shl\n      dup2\n      mstore\n      0x04\n      add\n      tag_204\n      swap2\n      swap1\n      tag_78\n      jump\t// in\n    tag_204:\n      0x20\n      mload(0x40)\n      dup1\n      dup4\n      sub\n      dup2\n      dup7\n      gas\n      staticcall\n      iszero\n      dup1\n      iszero\n      tag_206\n      jumpi\n      returndatasize\n      0x00\n      dup1\n      returndatacopy\n      revert(0x00, returndatasize)\n    tag_206:\n      pop\n      pop\n      pop\n      pop\n      mload(0x40)\n      returndatasize\n      not(0x1f)\n      0x1f\n      dup3\n      add\n      and\n      dup3\n      add\n      dup1\n      0x40\n      mstore\n      pop\n      dup2\n      add\n      swap1\n      tag_207\n      swap2\n      swap1\n      tag_189\n      jump\t// in\n    tag_207:\n        /* \"contracts/SyCrowBarter.sol\":9250:9350  uint256 depositedTokenBalance = IERC20(_depositedTokenAddress)... */\n      swap1\n      pop\n        /* \"contracts/SyCrowBarter.sol\":9389:9390  0 */\n      0x00\n        /* \"contracts/SyCrowBarter.sol\":9365:9386  depositedTokenBalance */\n      dup2\n        /* \"contracts/SyCrowBarter.sol\":9365:9390  depositedTokenBalance > 0 */\n      gt\n        /* \"contracts/SyCrowBarter.sol\":9361:9565  if (depositedTokenBalance > 0) {... */\n      iszero\n      tag_208\n      jumpi\n        /* \"contracts/SyCrowBarter.sol\":9406:9554  TransferHelper.safeTransfer(... */\n      tag_209\n        /* \"contracts/SyCrowBarter.sol\":9451:9473  _depositedTokenAddress */\n      0x04\n      0x01\n      swap1\n      sload\n      swap1\n      0x0100\n      exp\n      swap1\n      div\n      0xffffffffffffffffffffffffffffffffffffffff\n      and\n        /* \"contracts/SyCrowBarter.sol\":9491:9501  msg.sender */\n      caller\n        /* \"contracts/SyCrowBarter.sol\":9519:9540  depositedTokenBalance */\n      dup4\n        /* \"contracts/SyCrowBarter.sol\":9406:9433  TransferHelper.safeTransfer */\n      tag_203\n        /* \"contracts/SyCrowBarter.sol\":9406:9554  TransferHelper.safeTransfer(... */\n      jump\t// in\n    tag_209:\n        /* \"contracts/SyCrowBarter.sol\":9361:9565  if (depositedTokenBalance > 0) {... */\n    tag_208:\n        /* \"contracts/SyCrowBarter.sol\":9574:9588  uint256 value1 */\n      0x00\n        /* \"contracts/SyCrowBarter.sol\":9602:9616  uint256 value2 */\n      dup1\n        /* \"contracts/SyCrowBarter.sol\":9649:9680  ISyCrowBarterType.ETH_FOR_TOKEN */\n      0x00\n        /* \"contracts/SyCrowBarter.sol\":9635:9680  barterType == ISyCrowBarterType.ETH_FOR_TOKEN */\n      0x02\n      dup2\n      gt\n      iszero\n      tag_210\n      jumpi\n      tag_211\n      tag_134\n      jump\t// in\n    tag_211:\n    tag_210:\n        /* \"contracts/SyCrowBarter.sol\":9635:9645  barterType */\n      0x02\n      0x00\n      swap1\n      sload\n      swap1\n      0x0100\n      exp\n      swap1\n      div\n      0xff\n      and\n        /* \"contracts/SyCrowBarter.sol\":9635:9680  barterType == ISyCrowBarterType.ETH_FOR_TOKEN */\n      0x02\n      dup2\n      gt\n      iszero\n      tag_212\n      jumpi\n      tag_213\n      tag_134\n      jump\t// in\n    tag_213:\n    tag_212:\n      sub\n        /* \"contracts/SyCrowBarter.sol\":9631:10020  if (barterType == ISyCrowBarterType.ETH_FOR_TOKEN) {... */\n      tag_214\n      jumpi\n        /* \"contracts/SyCrowBarter.sol\":9705:9715  ethBalance */\n      dup5\n        /* \"contracts/SyCrowBarter.sol\":9696:9715  value1 = ethBalance */\n      swap2\n      pop\n        /* \"contracts/SyCrowBarter.sol\":9738:9758  expectedTokenBalance */\n      dup4\n        /* \"contracts/SyCrowBarter.sol\":9729:9758  value2 = expectedTokenBalance */\n      swap1\n      pop\n        /* \"contracts/SyCrowBarter.sol\":9631:10020  if (barterType == ISyCrowBarterType.ETH_FOR_TOKEN) {... */\n      jump(tag_215)\n    tag_214:\n        /* \"contracts/SyCrowBarter.sol\":9793:9826  ISyCrowBarterType.TOKEN_FOR_TOKEN */\n      0x02\n        /* \"contracts/SyCrowBarter.sol\":9779:9826  barterType == ISyCrowBarterType.TOKEN_FOR_TOKEN */\n      dup1\n      dup2\n      gt\n      iszero\n      tag_216\n      jumpi\n      tag_217\n      tag_134\n      jump\t// in\n    tag_217:\n    tag_216:\n        /* \"contracts/SyCrowBarter.sol\":9779:9789  barterType */\n      0x02\n      0x00\n      swap1\n      sload\n      swap1\n      0x0100\n      exp\n      swap1\n      div\n      0xff\n      and\n        /* \"contracts/SyCrowBarter.sol\":9779:9826  barterType == ISyCrowBarterType.TOKEN_FOR_TOKEN */\n      0x02\n      dup2\n      gt\n      iszero\n      tag_218\n      jumpi\n      tag_219\n      tag_134\n      jump\t// in\n    tag_219:\n    tag_218:\n      sub\n        /* \"contracts/SyCrowBarter.sol\":9775:10020  if (barterType == ISyCrowBarterType.TOKEN_FOR_TOKEN) {... */\n      tag_220\n      jumpi\n        /* \"contracts/SyCrowBarter.sol\":9851:9872  depositedTokenBalance */\n      dup3\n        /* \"contracts/SyCrowBarter.sol\":9842:9872  value1 = depositedTokenBalance */\n      swap2\n      pop\n        /* \"contracts/SyCrowBarter.sol\":9895:9915  expectedTokenBalance */\n      dup4\n        /* \"contracts/SyCrowBarter.sol\":9886:9915  value2 = expectedTokenBalance */\n      swap1\n      pop\n        /* \"contracts/SyCrowBarter.sol\":9775:10020  if (barterType == ISyCrowBarterType.TOKEN_FOR_TOKEN) {... */\n      jump(tag_221)\n    tag_220:\n        /* \"contracts/SyCrowBarter.sol\":9955:9976  depositedTokenBalance */\n      dup3\n        /* \"contracts/SyCrowBarter.sol\":9946:9976  value1 = depositedTokenBalance */\n      swap2\n      pop\n        /* \"contracts/SyCrowBarter.sol\":9999:10009  ethBalance */\n      dup5\n        /* \"contracts/SyCrowBarter.sol\":9990:10009  value2 = ethBalance */\n      swap1\n      pop\n        /* \"contracts/SyCrowBarter.sol\":9775:10020  if (barterType == ISyCrowBarterType.TOKEN_FOR_TOKEN) {... */\n    tag_221:\n        /* \"contracts/SyCrowBarter.sol\":9631:10020  if (barterType == ISyCrowBarterType.ETH_FOR_TOKEN) {... */\n    tag_215:\n        /* \"contracts/SyCrowBarter.sol\":10030:10062  ISyCrowBarterFactory sycrFactory */\n      0x00\n        /* \"contracts/SyCrowBarter.sol\":10086:10093  factory */\n      immutable(\"0x26a975632f70533c9512e57b565b8ce8e2befee6b08dfbc27c4a897a20e2c1d6\")\n        /* \"contracts/SyCrowBarter.sol\":10030:10094  ISyCrowBarterFactory sycrFactory = ISyCrowBarterFactory(factory) */\n      swap1\n      pop\n        /* \"contracts/SyCrowBarter.sol\":10113:10124  sycrFactory */\n      dup1\n        /* \"contracts/SyCrowBarter.sol\":10113:10149  sycrFactory.notifyWithdrawFromBarter */\n      0xffffffffffffffffffffffffffffffffffffffff\n      and\n      0x33796a0e\n        /* \"contracts/SyCrowBarter.sol\":10171:10175  this */\n      address\n        /* \"contracts/SyCrowBarter.sol\":10190:10200  msg.sender */\n      caller\n        /* \"contracts/SyCrowBarter.sol\":10214:10220  value1 */\n      dup7\n        /* \"contracts/SyCrowBarter.sol\":10234:10240  value2 */\n      dup7\n        /* \"contracts/SyCrowBarter.sol\":10113:10250  sycrFactory.notifyWithdrawFromBarter(... */\n      mload(0x40)\n      dup6\n      0xffffffff\n      and\n      0xe0\n      shl\n      dup2\n      mstore\n      0x04\n      add\n      tag_222\n      swap5\n      swap4\n      swap3\n      swap2\n      swap1\n      tag_223\n      jump\t// in\n    tag_222:\n      0x00\n      mload(0x40)\n      dup1\n      dup4\n      sub\n      dup2\n      0x00\n      dup8\n      dup1\n      extcodesize\n      iszero\n      dup1\n      iszero\n      tag_224\n      jumpi\n      0x00\n      dup1\n      revert\n    tag_224:\n      pop\n      gas\n      call\n      iszero\n      dup1\n      iszero\n      tag_226\n      jumpi\n      returndatasize\n      0x00\n      dup1\n      returndatacopy\n      revert(0x00, returndatasize)\n    tag_226:\n      pop\n      pop\n      pop\n      pop\n        /* \"contracts/SyCrowBarter.sol\":10282:10292  msg.sender */\n      caller\n        /* \"contracts/SyCrowBarter.sol\":10261:10294  selfdestruct(payable(msg.sender)) */\n      0xffffffffffffffffffffffffffffffffffffffff\n      and\n      selfdestruct\n        /* \"contracts/SyCrowBarter.sol\":2985:3172  function getAmounts()... */\n    tag_44:\n        /* \"contracts/SyCrowBarter.sol\":3091:3098  uint256 */\n      0x00\n        /* \"contracts/SyCrowBarter.sol\":3100:3107  uint256 */\n      dup1\n        /* \"contracts/SyCrowBarter.sol\":1488:1500  _initialized */\n      0x04\n      0x00\n      swap1\n      sload\n      swap1\n      0x0100\n      exp\n      swap1\n      div\n      0xff\n      and\n        /* \"contracts/SyCrowBarter.sol\":1480:1534  require(_initialized, \"SyCrowBarter: NOT_INITIALIZED\") */\n      tag_228\n      jumpi\n      mload(0x40)\n      0x08c379a000000000000000000000000000000000000000000000000000000000\n      dup2\n      mstore\n      0x04\n      add\n      tag_229\n      swap1\n      tag_118\n      jump\t// in\n    tag_229:\n      mload(0x40)\n      dup1\n      swap2\n      sub\n      swap1\n      revert\n    tag_228:\n        /* \"contracts/SyCrowBarter.sol\":3131:3147  _depositedAmount */\n      sload(0x06)\n        /* \"contracts/SyCrowBarter.sol\":3149:3164  _expectedAmount */\n      sload(0x07)\n        /* \"contracts/SyCrowBarter.sol\":3123:3165  return (_depositedAmount, _expectedAmount) */\n      swap2\n      pop\n      swap2\n      pop\n        /* \"contracts/SyCrowBarter.sol\":2985:3172  function getAmounts()... */\n      swap1\n      swap2\n      jump\t// out\n        /* \"contracts/SyCrowBarter.sol\":370:401  uint256 public totalTradeAmount */\n    tag_49:\n      sload(0x01)\n      dup2\n      jump\t// out\n        /* \"contracts/SyCrowBarter.sol\":4630:4915  function tradeEthForToken(uint256 inAmount)... */\n    tag_54:\n        /* \"contracts/SyCrowBarter.sol\":969:984  block.timestamp */\n      timestamp\n        /* \"contracts/SyCrowBarter.sol\":956:965  _deadline */\n      sload(0x03)\n        /* \"contracts/SyCrowBarter.sol\":956:984  _deadline >= block.timestamp */\n      lt\n      iszero\n        /* \"contracts/SyCrowBarter.sol\":956:1022  _deadline >= block.timestamp && totalTradeAmount < _expectedAmount */\n      dup1\n      iszero\n      tag_232\n      jumpi\n      pop\n        /* \"contracts/SyCrowBarter.sol\":1007:1022  _expectedAmount */\n      sload(0x07)\n        /* \"contracts/SyCrowBarter.sol\":988:1004  totalTradeAmount */\n      sload(0x01)\n        /* \"contracts/SyCrowBarter.sol\":988:1022  totalTradeAmount < _expectedAmount */\n      lt\n        /* \"contracts/SyCrowBarter.sol\":956:1022  _deadline >= block.timestamp && totalTradeAmount < _expectedAmount */\n    tag_232:\n        /* \"contracts/SyCrowBarter.sol\":935:1070  require(... */\n      tag_233\n      jumpi\n      mload(0x40)\n      0x08c379a000000000000000000000000000000000000000000000000000000000\n      dup2\n      mstore\n      0x04\n      add\n      tag_234\n      swap1\n      tag_114\n      jump\t// in\n    tag_234:\n      mload(0x40)\n      dup1\n      swap2\n      sub\n      swap1\n      revert\n    tag_233:\n        /* \"contracts/SyCrowBarter.sol\":1488:1500  _initialized */\n      0x04\n      0x00\n      swap1\n      sload\n      swap1\n      0x0100\n      exp\n      swap1\n      div\n      0xff\n      and\n        /* \"contracts/SyCrowBarter.sol\":1480:1534  require(_initialized, \"SyCrowBarter: NOT_INITIALIZED\") */\n      tag_236\n      jumpi\n      mload(0x40)\n      0x08c379a000000000000000000000000000000000000000000000000000000000\n      dup2\n      mstore\n      0x04\n      add\n      tag_237\n      swap1\n      tag_118\n      jump\t// in\n    tag_237:\n      mload(0x40)\n      dup1\n      swap2\n      sub\n      swap1\n      revert\n    tag_236:\n        /* \"contracts/SyCrowBarter.sol\":1721:1754  ISyCrowBarterFactory isycrFactory */\n      0x00\n        /* \"contracts/SyCrowBarter.sol\":1778:1785  factory */\n      immutable(\"0x26a975632f70533c9512e57b565b8ce8e2befee6b08dfbc27c4a897a20e2c1d6\")\n        /* \"contracts/SyCrowBarter.sol\":1721:1786  ISyCrowBarterFactory isycrFactory = ISyCrowBarterFactory(factory) */\n      swap1\n      pop\n        /* \"contracts/SyCrowBarter.sol\":1805:1817  isycrFactory */\n      dup1\n        /* \"contracts/SyCrowBarter.sol\":1805:1826  isycrFactory.isPaused */\n      0xffffffffffffffffffffffffffffffffffffffff\n      and\n      0xb187bd26\n        /* \"contracts/SyCrowBarter.sol\":1805:1828  isycrFactory.isPaused() */\n      mload(0x40)\n      dup2\n      0xffffffff\n      and\n      0xe0\n      shl\n      dup2\n      mstore\n      0x04\n      add\n      0x20\n      mload(0x40)\n      dup1\n      dup4\n      sub\n      dup2\n      dup7\n      gas\n      staticcall\n      iszero\n      dup1\n      iszero\n      tag_240\n      jumpi\n      returndatasize\n      0x00\n      dup1\n      returndatacopy\n      revert(0x00, returndatasize)\n    tag_240:\n      pop\n      pop\n      pop\n      pop\n      mload(0x40)\n      returndatasize\n      not(0x1f)\n      0x1f\n      dup3\n      add\n      and\n      dup3\n      add\n      dup1\n      0x40\n      mstore\n      pop\n      dup2\n      add\n      swap1\n      tag_241\n      swap2\n      swap1\n      tag_123\n      jump\t// in\n    tag_241:\n        /* \"contracts/SyCrowBarter.sol\":1804:1828  !isycrFactory.isPaused() */\n      iszero\n        /* \"contracts/SyCrowBarter.sol\":1796:1867  require(!isycrFactory.isPaused(), \"SyCrowBarter: Base Contract Paused\") */\n      tag_242\n      jumpi\n      mload(0x40)\n      0x08c379a000000000000000000000000000000000000000000000000000000000\n      dup2\n      mstore\n      0x04\n      add\n      tag_243\n      swap1\n      tag_126\n      jump\t// in\n    tag_243:\n      mload(0x40)\n      dup1\n      swap2\n      sub\n      swap1\n      revert\n    tag_242:\n        /* \"contracts/SyCrowBarter.sol\":1605:1622  _allowMultiBarter */\n      0x08\n      0x00\n      swap1\n      sload\n      swap1\n      0x0100\n      exp\n      swap1\n      div\n      0xff\n      and\n        /* \"contracts/SyCrowBarter.sol\":1597:1664  require(_allowMultiBarter, \"SyCrowBarter: MULTI_TRADE_NOT_ENABLED\") */\n      tag_245\n      jumpi\n      mload(0x40)\n      0x08c379a000000000000000000000000000000000000000000000000000000000\n      dup2\n      mstore\n      0x04\n      add\n      tag_246\n      swap1\n      tag_130\n      jump\t// in\n    tag_246:\n      mload(0x40)\n      dup1\n      swap2\n      sub\n      swap1\n      revert\n    tag_245:\n        /* \"contracts/SyCrowBarter.sol\":4834:4865  ISyCrowBarterType.TOKEN_FOR_ETH */\n      0x01\n        /* \"contracts/SyCrowBarter.sol\":1183:1193  barterType */\n      0x02\n      0x00\n      swap1\n      sload\n      swap1\n      0x0100\n      exp\n      swap1\n      div\n      0xff\n      and\n        /* \"contracts/SyCrowBarter.sol\":1168:1193  _barterType == barterType */\n      0x02\n      dup2\n      gt\n      iszero\n      tag_248\n      jumpi\n      tag_249\n      tag_134\n      jump\t// in\n    tag_249:\n    tag_248:\n        /* \"contracts/SyCrowBarter.sol\":1168:1179  _barterType */\n      dup2\n        /* \"contracts/SyCrowBarter.sol\":1168:1193  _barterType == barterType */\n      0x02\n      dup2\n      gt\n      iszero\n      tag_250\n      jumpi\n      tag_251\n      tag_134\n      jump\t// in\n    tag_251:\n    tag_250:\n      eq\n        /* \"contracts/SyCrowBarter.sol\":1160:1231  require(_barterType == barterType, \"SyCrowBarter: INVALID_BARTER_TYPE\") */\n      tag_252\n      jumpi\n      mload(0x40)\n      0x08c379a000000000000000000000000000000000000000000000000000000000\n      dup2\n      mstore\n      0x04\n      add\n      tag_253\n      swap1\n      tag_139\n      jump\t// in\n    tag_253:\n      mload(0x40)\n      dup1\n      swap2\n      sub\n      swap1\n      revert\n    tag_252:\n        /* \"contracts/SyCrowBarter.sol\":4881:4908  _tradeEthForToken(inAmount) */\n      tag_255\n        /* \"contracts/SyCrowBarter.sol\":4899:4907  inAmount */\n      dup4\n        /* \"contracts/SyCrowBarter.sol\":4881:4898  _tradeEthForToken */\n      tag_256\n        /* \"contracts/SyCrowBarter.sol\":4881:4908  _tradeEthForToken(inAmount) */\n      jump\t// in\n    tag_255:\n        /* \"contracts/SyCrowBarter.sol\":1674:1675  _ */\n      pop\n        /* \"contracts/SyCrowBarter.sol\":1711:1885  {... */\n      pop\n        /* \"contracts/SyCrowBarter.sol\":4630:4915  function tradeEthForToken(uint256 inAmount)... */\n      pop\n      jump\t// out\n        /* \"contracts/SyCrowBarter.sol\":10307:10908  function withdraw(address _erc20TokenAddress)... */\n    tag_59:\n        /* \"@openzeppelin/contracts/access/Ownable.sol\":1259:1271  _msgSender() */\n      tag_258\n        /* \"@openzeppelin/contracts/access/Ownable.sol\":1259:1269  _msgSender */\n      tag_179\n        /* \"@openzeppelin/contracts/access/Ownable.sol\":1259:1271  _msgSender() */\n      jump\t// in\n    tag_258:\n        /* \"@openzeppelin/contracts/access/Ownable.sol\":1248:1271  owner() == _msgSender() */\n      0xffffffffffffffffffffffffffffffffffffffff\n      and\n        /* \"@openzeppelin/contracts/access/Ownable.sol\":1248:1255  owner() */\n      tag_259\n        /* \"@openzeppelin/contracts/access/Ownable.sol\":1248:1253  owner */\n      tag_76\n        /* \"@openzeppelin/contracts/access/Ownable.sol\":1248:1255  owner() */\n      jump\t// in\n    tag_259:\n        /* \"@openzeppelin/contracts/access/Ownable.sol\":1248:1271  owner() == _msgSender() */\n      0xffffffffffffffffffffffffffffffffffffffff\n      and\n      eq\n        /* \"@openzeppelin/contracts/access/Ownable.sol\":1240:1308  require(owner() == _msgSender(), \"Ownable: caller is not the owner\") */\n      tag_260\n      jumpi\n      mload(0x40)\n      0x08c379a000000000000000000000000000000000000000000000000000000000\n      dup2\n      mstore\n      0x04\n      add\n      tag_261\n      swap1\n      tag_183\n      jump\t// in\n    tag_261:\n      mload(0x40)\n      dup1\n      swap2\n      sub\n      swap1\n      revert\n    tag_260:\n        /* \"contracts/SyCrowBarter.sol\":1488:1500  _initialized */\n      0x04\n      0x00\n      swap1\n      sload\n      swap1\n      0x0100\n      exp\n      swap1\n      div\n      0xff\n      and\n        /* \"contracts/SyCrowBarter.sol\":1480:1534  require(_initialized, \"SyCrowBarter: NOT_INITIALIZED\") */\n      tag_263\n      jumpi\n      mload(0x40)\n      0x08c379a000000000000000000000000000000000000000000000000000000000\n      dup2\n      mstore\n      0x04\n      add\n      tag_264\n      swap1\n      tag_118\n      jump\t// in\n    tag_264:\n      mload(0x40)\n      dup1\n      swap2\n      sub\n      swap1\n      revert\n    tag_263:\n        /* \"contracts/SyCrowBarter.sol\":10465:10486  _expectedTokenAddress */\n      0x05\n      0x00\n      swap1\n      sload\n      swap1\n      0x0100\n      exp\n      swap1\n      div\n      0xffffffffffffffffffffffffffffffffffffffff\n      and\n        /* \"contracts/SyCrowBarter.sol\":10443:10486  _erc20TokenAddress != _expectedTokenAddress */\n      0xffffffffffffffffffffffffffffffffffffffff\n      and\n        /* \"contracts/SyCrowBarter.sol\":10443:10461  _erc20TokenAddress */\n      dup2\n        /* \"contracts/SyCrowBarter.sol\":10443:10486  _erc20TokenAddress != _expectedTokenAddress */\n      0xffffffffffffffffffffffffffffffffffffffff\n      and\n      eq\n      iszero\n        /* \"contracts/SyCrowBarter.sol\":10443:10534  _erc20TokenAddress != _expectedTokenAddress && _erc20TokenAddress != _depositedTokenAddress */\n      dup1\n      iszero\n      tag_266\n      jumpi\n      pop\n        /* \"contracts/SyCrowBarter.sol\":10512:10534  _depositedTokenAddress */\n      0x04\n      0x01\n      swap1\n      sload\n      swap1\n      0x0100\n      exp\n      swap1\n      div\n      0xffffffffffffffffffffffffffffffffffffffff\n      and\n        /* \"contracts/SyCrowBarter.sol\":10490:10534  _erc20TokenAddress != _depositedTokenAddress */\n      0xffffffffffffffffffffffffffffffffffffffff\n      and\n        /* \"contracts/SyCrowBarter.sol\":10490:10508  _erc20TokenAddress */\n      dup2\n        /* \"contracts/SyCrowBarter.sol\":10490:10534  _erc20TokenAddress != _depositedTokenAddress */\n      0xffffffffffffffffffffffffffffffffffffffff\n      and\n      eq\n      iszero\n        /* \"contracts/SyCrowBarter.sol\":10443:10534  _erc20TokenAddress != _expectedTokenAddress && _erc20TokenAddress != _depositedTokenAddress */\n    tag_266:\n        /* \"contracts/SyCrowBarter.sol\":10422:10583  require(... */\n      tag_267\n      jumpi\n      mload(0x40)\n      0x08c379a000000000000000000000000000000000000000000000000000000000\n      dup2\n      mstore\n      0x04\n      add\n      tag_268\n      swap1\n      tag_269\n      jump\t// in\n    tag_268:\n      mload(0x40)\n      dup1\n      swap2\n      sub\n      swap1\n      revert\n    tag_267:\n        /* \"contracts/SyCrowBarter.sol\":10594:10619  uint256 erc20TokenBalance */\n      0x00\n        /* \"contracts/SyCrowBarter.sol\":10629:10647  _erc20TokenAddress */\n      dup2\n        /* \"contracts/SyCrowBarter.sol\":10622:10658  IERC20(_erc20TokenAddress).balanceOf */\n      0xffffffffffffffffffffffffffffffffffffffff\n      and\n      0x70a08231\n        /* \"contracts/SyCrowBarter.sol\":10680:10684  this */\n      address\n        /* \"contracts/SyCrowBarter.sol\":10622:10695  IERC20(_erc20TokenAddress).balanceOf(... */\n      mload(0x40)\n      dup3\n      0xffffffff\n      and\n      0xe0\n      shl\n      dup2\n      mstore\n      0x04\n      add\n      tag_270\n      swap2\n      swap1\n      tag_78\n      jump\t// in\n    tag_270:\n      0x20\n      mload(0x40)\n      dup1\n      dup4\n      sub\n      dup2\n      dup7\n      gas\n      staticcall\n      iszero\n      dup1\n      iszero\n      tag_272\n      jumpi\n      returndatasize\n      0x00\n      dup1\n      returndatacopy\n      revert(0x00, returndatasize)\n    tag_272:\n      pop\n      pop\n      pop\n      pop\n      mload(0x40)\n      returndatasize\n      not(0x1f)\n      0x1f\n      dup3\n      add\n      and\n      dup3\n      add\n      dup1\n      0x40\n      mstore\n      pop\n      dup2\n      add\n      swap1\n      tag_273\n      swap2\n      swap1\n      tag_189\n      jump\t// in\n    tag_273:\n        /* \"contracts/SyCrowBarter.sol\":10594:10695  uint256 erc20TokenBalance = IERC20(_erc20TokenAddress).balanceOf(... */\n      swap1\n      pop\n        /* \"contracts/SyCrowBarter.sol\":10730:10731  0 */\n      0x00\n        /* \"contracts/SyCrowBarter.sol\":10710:10727  erc20TokenBalance */\n      dup2\n        /* \"contracts/SyCrowBarter.sol\":10710:10731  erc20TokenBalance > 0 */\n      gt\n        /* \"contracts/SyCrowBarter.sol\":10706:10902  if (erc20TokenBalance > 0) {... */\n      iszero\n      tag_274\n      jumpi\n        /* \"contracts/SyCrowBarter.sol\":10747:10891  TransferHelper.safeTransfer(... */\n      tag_275\n        /* \"contracts/SyCrowBarter.sol\":10792:10814  _depositedTokenAddress */\n      0x04\n      0x01\n      swap1\n      sload\n      swap1\n      0x0100\n      exp\n      swap1\n      div\n      0xffffffffffffffffffffffffffffffffffffffff\n      and\n        /* \"contracts/SyCrowBarter.sol\":10832:10842  msg.sender */\n      caller\n        /* \"contracts/SyCrowBarter.sol\":10860:10877  erc20TokenBalance */\n      dup4\n        /* \"contracts/SyCrowBarter.sol\":10747:10774  TransferHelper.safeTransfer */\n      tag_203\n        /* \"contracts/SyCrowBarter.sol\":10747:10891  TransferHelper.safeTransfer(... */\n      jump\t// in\n    tag_275:\n        /* \"contracts/SyCrowBarter.sol\":10706:10902  if (erc20TokenBalance > 0) {... */\n    tag_274:\n        /* \"contracts/SyCrowBarter.sol\":10412:10908  {... */\n      pop\n        /* \"contracts/SyCrowBarter.sol\":10307:10908  function withdraw(address _erc20TokenAddress)... */\n      pop\n      jump\t// out\n        /* \"contracts/SyCrowBarter.sol\":1948:2979  function initialize(... */\n    tag_64:\n        /* \"contracts/SyCrowBarter.sol\":2227:2231  bool */\n      0x00\n        /* \"contracts/SyCrowBarter.sol\":2265:2272  factory */\n      immutable(\"0x26a975632f70533c9512e57b565b8ce8e2befee6b08dfbc27c4a897a20e2c1d6\")\n        /* \"contracts/SyCrowBarter.sol\":2251:2272  msg.sender == factory */\n      0xffffffffffffffffffffffffffffffffffffffff\n      and\n        /* \"contracts/SyCrowBarter.sol\":2251:2261  msg.sender */\n      caller\n        /* \"contracts/SyCrowBarter.sol\":2251:2272  msg.sender == factory */\n      0xffffffffffffffffffffffffffffffffffffffff\n      and\n      eq\n        /* \"contracts/SyCrowBarter.sol\":2243:2300  require(msg.sender == factory, \"SyCrowBarter: FORBIDDEN\") */\n      tag_277\n      jumpi\n      mload(0x40)\n      0x08c379a000000000000000000000000000000000000000000000000000000000\n      dup2\n      mstore\n      0x04\n      add\n      tag_278\n      swap1\n      tag_269\n      jump\t// in\n    tag_278:\n      mload(0x40)\n      dup1\n      swap2\n      sub\n      swap1\n      revert\n    tag_277:\n        /* \"contracts/SyCrowBarter.sol\":2320:2332  _initialized */\n      0x04\n      0x00\n      swap1\n      sload\n      swap1\n      0x0100\n      exp\n      swap1\n      div\n      0xff\n      and\n        /* \"contracts/SyCrowBarter.sol\":2319:2332  !_initialized */\n      iszero\n        /* \"contracts/SyCrowBarter.sol\":2311:2370  require(!_initialized, \"SyCrowBarter: ALREADY_INITIALIZED\") */\n      tag_279\n      jumpi\n      mload(0x40)\n      0x08c379a000000000000000000000000000000000000000000000000000000000\n      dup2\n      mstore\n      0x04\n      add\n      tag_280\n      swap1\n      tag_281\n      jump\t// in\n    tag_280:\n      mload(0x40)\n      dup1\n      swap2\n      sub\n      swap1\n      revert\n    tag_279:\n        /* \"contracts/SyCrowBarter.sol\":2399:2414  block.timestamp */\n      timestamp\n        /* \"contracts/SyCrowBarter.sol\":2388:2396  deadline */\n      dup5\n        /* \"contracts/SyCrowBarter.sol\":2388:2414  deadline < block.timestamp */\n      lt\n        /* \"contracts/SyCrowBarter.sol\":2380:2446  require(deadline < block.timestamp, \"SyCrowBarter: PAST_DEADLINE\") */\n      tag_282\n      jumpi\n      mload(0x40)\n      0x08c379a000000000000000000000000000000000000000000000000000000000\n      dup2\n      mstore\n      0x04\n      add\n      tag_283\n      swap1\n      tag_284\n      jump\t// in\n    tag_283:\n      mload(0x40)\n      dup1\n      swap2\n      sub\n      swap1\n      revert\n    tag_282:\n        /* \"contracts/SyCrowBarter.sol\":2522:2537  amountDeposited */\n      dup6\n        /* \"contracts/SyCrowBarter.sol\":2485:2492  inToken */\n      dup9\n        /* \"contracts/SyCrowBarter.sol\":2478:2503  IERC20(inToken).balanceOf */\n      0xffffffffffffffffffffffffffffffffffffffff\n      and\n      0x70a08231\n        /* \"contracts/SyCrowBarter.sol\":2512:2516  this */\n      address\n        /* \"contracts/SyCrowBarter.sol\":2478:2518  IERC20(inToken).balanceOf(address(this)) */\n      mload(0x40)\n      dup3\n      0xffffffff\n      and\n      0xe0\n      shl\n      dup2\n      mstore\n      0x04\n      add\n      tag_285\n      swap2\n      swap1\n      tag_78\n      jump\t// in\n    tag_285:\n      0x20\n      mload(0x40)\n      dup1\n      dup4\n      sub\n      dup2\n      dup7\n      gas\n      staticcall\n      iszero\n      dup1\n      iszero\n      tag_287\n      jumpi\n      returndatasize\n      0x00\n      dup1\n      returndatacopy\n      revert(0x00, returndatasize)\n    tag_287:\n      pop\n      pop\n      pop\n      pop\n      mload(0x40)\n      returndatasize\n      not(0x1f)\n      0x1f\n      dup3\n      add\n      and\n      dup3\n      add\n      dup1\n      0x40\n      mstore\n      pop\n      dup2\n      add\n      swap1\n      tag_288\n      swap2\n      swap1\n      tag_189\n      jump\t// in\n    tag_288:\n        /* \"contracts/SyCrowBarter.sol\":2478:2537  IERC20(inToken).balanceOf(address(this)) >= amountDeposited */\n      lt\n      iszero\n        /* \"contracts/SyCrowBarter.sol\":2457:2597  require(... */\n      tag_289\n      jumpi\n      mload(0x40)\n      0x08c379a000000000000000000000000000000000000000000000000000000000\n      dup2\n      mstore\n      0x04\n      add\n      tag_290\n      swap1\n      tag_291\n      jump\t// in\n    tag_290:\n      mload(0x40)\n      dup1\n      swap2\n      sub\n      swap1\n      revert\n    tag_289:\n        /* \"contracts/SyCrowBarter.sol\":2620:2628  deadline */\n      dup4\n        /* \"contracts/SyCrowBarter.sol\":2608:2617  _deadline */\n      0x03\n        /* \"contracts/SyCrowBarter.sol\":2608:2628  _deadline = deadline */\n      dup2\n      swap1\n      sstore\n      pop\n        /* \"contracts/SyCrowBarter.sol\":2664:2671  inToken */\n      dup8\n        /* \"contracts/SyCrowBarter.sol\":2639:2661  _depositedTokenAddress */\n      0x04\n      0x01\n        /* \"contracts/SyCrowBarter.sol\":2639:2671  _depositedTokenAddress = inToken */\n      0x0100\n      exp\n      dup2\n      sload\n      dup2\n      0xffffffffffffffffffffffffffffffffffffffff\n      mul\n      not\n      and\n      swap1\n      dup4\n      0xffffffffffffffffffffffffffffffffffffffff\n      and\n      mul\n      or\n      swap1\n      sstore\n      pop\n        /* \"contracts/SyCrowBarter.sol\":2705:2713  outToken */\n      dup7\n        /* \"contracts/SyCrowBarter.sol\":2681:2702  _expectedTokenAddress */\n      0x05\n      0x00\n        /* \"contracts/SyCrowBarter.sol\":2681:2713  _expectedTokenAddress = outToken */\n      0x0100\n      exp\n      dup2\n      sload\n      dup2\n      0xffffffffffffffffffffffffffffffffffffffff\n      mul\n      not\n      and\n      swap1\n      dup4\n      0xffffffffffffffffffffffffffffffffffffffff\n      and\n      mul\n      or\n      swap1\n      sstore\n      pop\n        /* \"contracts/SyCrowBarter.sol\":2743:2758  amountDeposited */\n      dup6\n        /* \"contracts/SyCrowBarter.sol\":2724:2740  _depositedAmount */\n      0x06\n        /* \"contracts/SyCrowBarter.sol\":2724:2758  _depositedAmount = amountDeposited */\n      dup2\n      swap1\n      sstore\n      pop\n        /* \"contracts/SyCrowBarter.sol\":2786:2800  amountExpected */\n      dup5\n        /* \"contracts/SyCrowBarter.sol\":2768:2783  _expectedAmount */\n      0x07\n        /* \"contracts/SyCrowBarter.sol\":2768:2800  _expectedAmount = amountExpected */\n      dup2\n      swap1\n      sstore\n      pop\n        /* \"contracts/SyCrowBarter.sol\":2824:2835  _barterType */\n      dup9\n        /* \"contracts/SyCrowBarter.sol\":2811:2821  barterType */\n      0x02\n      0x00\n        /* \"contracts/SyCrowBarter.sol\":2811:2835  barterType = _barterType */\n      0x0100\n      exp\n      dup2\n      sload\n      dup2\n      0xff\n      mul\n      not\n      and\n      swap1\n      dup4\n      0x02\n      dup2\n      gt\n      iszero\n      tag_292\n      jumpi\n      tag_293\n      tag_134\n      jump\t// in\n    tag_293:\n    tag_292:\n      mul\n      or\n      swap1\n      sstore\n      pop\n        /* \"contracts/SyCrowBarter.sol\":2866:2882  allowMultiBarter */\n      dup3\n        /* \"contracts/SyCrowBarter.sol\":2846:2863  _allowMultiBarter */\n      0x08\n      0x00\n        /* \"contracts/SyCrowBarter.sol\":2846:2882  _allowMultiBarter = allowMultiBarter */\n      0x0100\n      exp\n      dup2\n      sload\n      dup2\n      0xff\n      mul\n      not\n      and\n      swap1\n      dup4\n      iszero\n      iszero\n      mul\n      or\n      swap1\n      sstore\n      pop\n        /* \"contracts/SyCrowBarter.sol\":2908:2913  _WETH */\n      dup2\n        /* \"contracts/SyCrowBarter.sol\":2901:2905  WETH */\n      0x02\n      0x01\n        /* \"contracts/SyCrowBarter.sol\":2901:2913  WETH = _WETH */\n      0x0100\n      exp\n      dup2\n      sload\n      dup2\n      0xffffffffffffffffffffffffffffffffffffffff\n      mul\n      not\n      and\n      swap1\n      dup4\n      0xffffffffffffffffffffffffffffffffffffffff\n      and\n      mul\n      or\n      swap1\n      sstore\n      pop\n        /* \"contracts/SyCrowBarter.sol\":2938:2942  true */\n      0x01\n        /* \"contracts/SyCrowBarter.sol\":2923:2935  _initialized */\n      0x04\n      0x00\n        /* \"contracts/SyCrowBarter.sol\":2923:2942  _initialized = true */\n      0x0100\n      exp\n      dup2\n      sload\n      dup2\n      0xff\n      mul\n      not\n      and\n      swap1\n      dup4\n      iszero\n      iszero\n      mul\n      or\n      swap1\n      sstore\n      pop\n        /* \"contracts/SyCrowBarter.sol\":2960:2972  _initialized */\n      0x04\n      0x00\n      swap1\n      sload\n      swap1\n      0x0100\n      exp\n      swap1\n      div\n      0xff\n      and\n        /* \"contracts/SyCrowBarter.sol\":2953:2972  return _initialized */\n      swap1\n      pop\n        /* \"contracts/SyCrowBarter.sol\":1948:2979  function initialize(... */\n      swap9\n      swap8\n      pop\n      pop\n      pop\n      pop\n      pop\n      pop\n      pop\n      pop\n      jump\t// out\n        /* \"@openzeppelin/contracts/access/Ownable.sol\":1668:1769  function renounceOwnership() public virtual onlyOwner {... */\n    tag_68:\n        /* \"@openzeppelin/contracts/access/Ownable.sol\":1259:1271  _msgSender() */\n      tag_295\n        /* \"@openzeppelin/contracts/access/Ownable.sol\":1259:1269  _msgSender */\n      tag_179\n        /* \"@openzeppelin/contracts/access/Ownable.sol\":1259:1271  _msgSender() */\n      jump\t// in\n    tag_295:\n        /* \"@openzeppelin/contracts/access/Ownable.sol\":1248:1271  owner() == _msgSender() */\n      0xffffffffffffffffffffffffffffffffffffffff\n      and\n        /* \"@openzeppelin/contracts/access/Ownable.sol\":1248:1255  owner() */\n      tag_296\n        /* \"@openzeppelin/contracts/access/Ownable.sol\":1248:1253  owner */\n      tag_76\n        /* \"@openzeppelin/contracts/access/Ownable.sol\":1248:1255  owner() */\n      jump\t// in\n    tag_296:\n        /* \"@openzeppelin/contracts/access/Ownable.sol\":1248:1271  owner() == _msgSender() */\n      0xffffffffffffffffffffffffffffffffffffffff\n      and\n      eq\n        /* \"@openzeppelin/contracts/access/Ownable.sol\":1240:1308  require(owner() == _msgSender(), \"Ownable: caller is not the owner\") */\n      tag_297\n      jumpi\n      mload(0x40)\n      0x08c379a000000000000000000000000000000000000000000000000000000000\n      dup2\n      mstore\n      0x04\n      add\n      tag_298\n      swap1\n      tag_183\n      jump\t// in\n    tag_298:\n      mload(0x40)\n      dup1\n      swap2\n      sub\n      swap1\n      revert\n    tag_297:\n        /* \"@openzeppelin/contracts/access/Ownable.sol\":1732:1762  _transferOwnership(address(0)) */\n      tag_300\n        /* \"@openzeppelin/contracts/access/Ownable.sol\":1759:1760  0 */\n      0x00\n        /* \"@openzeppelin/contracts/access/Ownable.sol\":1732:1750  _transferOwnership */\n      tag_301\n        /* \"@openzeppelin/contracts/access/Ownable.sol\":1732:1762  _transferOwnership(address(0)) */\n      jump\t// in\n    tag_300:\n        /* \"@openzeppelin/contracts/access/Ownable.sol\":1668:1769  function renounceOwnership() public virtual onlyOwner {... */\n      jump\t// out\n        /* \"contracts/SyCrowBarter.sol\":407:442  ISyCrowBarterType public barterType */\n    tag_71:\n      0x02\n      0x00\n      swap1\n      sload\n      swap1\n      0x0100\n      exp\n      swap1\n      div\n      0xff\n      and\n      dup2\n      jump\t// out\n        /* \"@openzeppelin/contracts/access/Ownable.sol\":1036:1121  function owner() public view virtual returns (address) {... */\n    tag_76:\n        /* \"@openzeppelin/contracts/access/Ownable.sol\":1082:1089  address */\n      0x00\n        /* \"@openzeppelin/contracts/access/Ownable.sol\":1108:1114  _owner */\n      dup1\n      0x00\n      swap1\n      sload\n      swap1\n      0x0100\n      exp\n      swap1\n      div\n      0xffffffffffffffffffffffffffffffffffffffff\n      and\n        /* \"@openzeppelin/contracts/access/Ownable.sol\":1101:1114  return _owner */\n      swap1\n      pop\n        /* \"@openzeppelin/contracts/access/Ownable.sol\":1036:1121  function owner() public view virtual returns (address) {... */\n      swap1\n      jump\t// out\n        /* \"contracts/SyCrowBarter.sol\":5167:5401  function tradeTokenForEth()... */\n    tag_81:\n        /* \"contracts/SyCrowBarter.sol\":969:984  block.timestamp */\n      timestamp\n        /* \"contracts/SyCrowBarter.sol\":956:965  _deadline */\n      sload(0x03)\n        /* \"contracts/SyCrowBarter.sol\":956:984  _deadline >= block.timestamp */\n      lt\n      iszero\n        /* \"contracts/SyCrowBarter.sol\":956:1022  _deadline >= block.timestamp && totalTradeAmount < _expectedAmount */\n      dup1\n      iszero\n      tag_304\n      jumpi\n      pop\n        /* \"contracts/SyCrowBarter.sol\":1007:1022  _expectedAmount */\n      sload(0x07)\n        /* \"contracts/SyCrowBarter.sol\":988:1004  totalTradeAmount */\n      sload(0x01)\n        /* \"contracts/SyCrowBarter.sol\":988:1022  totalTradeAmount < _expectedAmount */\n      lt\n        /* \"contracts/SyCrowBarter.sol\":956:1022  _deadline >= block.timestamp && totalTradeAmount < _expectedAmount */\n    tag_304:\n        /* \"contracts/SyCrowBarter.sol\":935:1070  require(... */\n      tag_305\n      jumpi\n      mload(0x40)\n      0x08c379a000000000000000000000000000000000000000000000000000000000\n      dup2\n      mstore\n      0x04\n      add\n      tag_306\n      swap1\n      tag_114\n      jump\t// in\n    tag_306:\n      mload(0x40)\n      dup1\n      swap2\n      sub\n      swap1\n      revert\n    tag_305:\n        /* \"contracts/SyCrowBarter.sol\":1488:1500  _initialized */\n      0x04\n      0x00\n      swap1\n      sload\n      swap1\n      0x0100\n      exp\n      swap1\n      div\n      0xff\n      and\n        /* \"contracts/SyCrowBarter.sol\":1480:1534  require(_initialized, \"SyCrowBarter: NOT_INITIALIZED\") */\n      tag_308\n      jumpi\n      mload(0x40)\n      0x08c379a000000000000000000000000000000000000000000000000000000000\n      dup2\n      mstore\n      0x04\n      add\n      tag_309\n      swap1\n      tag_118\n      jump\t// in\n    tag_309:\n      mload(0x40)\n      dup1\n      swap2\n      sub\n      swap1\n      revert\n    tag_308:\n        /* \"contracts/SyCrowBarter.sol\":1721:1754  ISyCrowBarterFactory isycrFactory */\n      0x00\n        /* \"contracts/SyCrowBarter.sol\":1778:1785  factory */\n      immutable(\"0x26a975632f70533c9512e57b565b8ce8e2befee6b08dfbc27c4a897a20e2c1d6\")\n        /* \"contracts/SyCrowBarter.sol\":1721:1786  ISyCrowBarterFactory isycrFactory = ISyCrowBarterFactory(factory) */\n      swap1\n      pop\n        /* \"contracts/SyCrowBarter.sol\":1805:1817  isycrFactory */\n      dup1\n        /* \"contracts/SyCrowBarter.sol\":1805:1826  isycrFactory.isPaused */\n      0xffffffffffffffffffffffffffffffffffffffff\n      and\n      0xb187bd26\n        /* \"contracts/SyCrowBarter.sol\":1805:1828  isycrFactory.isPaused() */\n      mload(0x40)\n      dup2\n      0xffffffff\n      and\n      0xe0\n      shl\n      dup2\n      mstore\n      0x04\n      add\n      0x20\n      mload(0x40)\n      dup1\n      dup4\n      sub\n      dup2\n      dup7\n      gas\n      staticcall\n      iszero\n      dup1\n      iszero\n      tag_312\n      jumpi\n      returndatasize\n      0x00\n      dup1\n      returndatacopy\n      revert(0x00, returndatasize)\n    tag_312:\n      pop\n      pop\n      pop\n      pop\n      mload(0x40)\n      returndatasize\n      not(0x1f)\n      0x1f\n      dup3\n      add\n      and\n      dup3\n      add\n      dup1\n      0x40\n      mstore\n      pop\n      dup2\n      add\n      swap1\n      tag_313\n      swap2\n      swap1\n      tag_123\n      jump\t// in\n    tag_313:\n        /* \"contracts/SyCrowBarter.sol\":1804:1828  !isycrFactory.isPaused() */\n      iszero\n        /* \"contracts/SyCrowBarter.sol\":1796:1867  require(!isycrFactory.isPaused(), \"SyCrowBarter: Base Contract Paused\") */\n      tag_314\n      jumpi\n      mload(0x40)\n      0x08c379a000000000000000000000000000000000000000000000000000000000\n      dup2\n      mstore\n      0x04\n      add\n      tag_315\n      swap1\n      tag_126\n      jump\t// in\n    tag_315:\n      mload(0x40)\n      dup1\n      swap2\n      sub\n      swap1\n      revert\n    tag_314:\n        /* \"contracts/SyCrowBarter.sol\":5313:5344  ISyCrowBarterType.ETH_FOR_TOKEN */\n      0x00\n        /* \"contracts/SyCrowBarter.sol\":1183:1193  barterType */\n      0x02\n      0x00\n      swap1\n      sload\n      swap1\n      0x0100\n      exp\n      swap1\n      div\n      0xff\n      and\n        /* \"contracts/SyCrowBarter.sol\":1168:1193  _barterType == barterType */\n      0x02\n      dup2\n      gt\n      iszero\n      tag_317\n      jumpi\n      tag_318\n      tag_134\n      jump\t// in\n    tag_318:\n    tag_317:\n        /* \"contracts/SyCrowBarter.sol\":1168:1179  _barterType */\n      dup2\n        /* \"contracts/SyCrowBarter.sol\":1168:1193  _barterType == barterType */\n      0x02\n      dup2\n      gt\n      iszero\n      tag_319\n      jumpi\n      tag_320\n      tag_134\n      jump\t// in\n    tag_320:\n    tag_319:\n      eq\n        /* \"contracts/SyCrowBarter.sol\":1160:1231  require(_barterType == barterType, \"SyCrowBarter: INVALID_BARTER_TYPE\") */\n      tag_321\n      jumpi\n      mload(0x40)\n      0x08c379a000000000000000000000000000000000000000000000000000000000\n      dup2\n      mstore\n      0x04\n      add\n      tag_322\n      swap1\n      tag_139\n      jump\t// in\n    tag_322:\n      mload(0x40)\n      dup1\n      swap2\n      sub\n      swap1\n      revert\n    tag_321:\n        /* \"contracts/SyCrowBarter.sol\":5360:5394  _tradeTokenForEth(_expectedAmount) */\n      tag_324\n        /* \"contracts/SyCrowBarter.sol\":5378:5393  _expectedAmount */\n      sload(0x07)\n        /* \"contracts/SyCrowBarter.sol\":5360:5377  _tradeTokenForEth */\n      tag_142\n        /* \"contracts/SyCrowBarter.sol\":5360:5394  _tradeTokenForEth(_expectedAmount) */\n      jump\t// in\n    tag_324:\n        /* \"contracts/SyCrowBarter.sol\":1877:1878  _ */\n      pop\n        /* \"contracts/SyCrowBarter.sol\":1711:1885  {... */\n      pop\n        /* \"contracts/SyCrowBarter.sol\":5167:5401  function tradeTokenForEth()... */\n      jump\t// out\n        /* \"contracts/SyCrowBarter.sol\":3178:3376  function getTokens()... */\n    tag_84:\n        /* \"contracts/SyCrowBarter.sol\":3283:3290  address */\n      0x00\n        /* \"contracts/SyCrowBarter.sol\":3292:3299  address */\n      dup1\n        /* \"contracts/SyCrowBarter.sol\":1488:1500  _initialized */\n      0x04\n      0x00\n      swap1\n      sload\n      swap1\n      0x0100\n      exp\n      swap1\n      div\n      0xff\n      and\n        /* \"contracts/SyCrowBarter.sol\":1480:1534  require(_initialized, \"SyCrowBarter: NOT_INITIALIZED\") */\n      tag_326\n      jumpi\n      mload(0x40)\n      0x08c379a000000000000000000000000000000000000000000000000000000000\n      dup2\n      mstore\n      0x04\n      add\n      tag_327\n      swap1\n      tag_118\n      jump\t// in\n    tag_327:\n      mload(0x40)\n      dup1\n      swap2\n      sub\n      swap1\n      revert\n    tag_326:\n        /* \"contracts/SyCrowBarter.sol\":3323:3345  _depositedTokenAddress */\n      0x04\n      0x01\n      swap1\n      sload\n      swap1\n      0x0100\n      exp\n      swap1\n      div\n      0xffffffffffffffffffffffffffffffffffffffff\n      and\n        /* \"contracts/SyCrowBarter.sol\":3347:3368  _expectedTokenAddress */\n      0x05\n      0x00\n      swap1\n      sload\n      swap1\n      0x0100\n      exp\n      swap1\n      div\n      0xffffffffffffffffffffffffffffffffffffffff\n      and\n        /* \"contracts/SyCrowBarter.sol\":3315:3369  return (_depositedTokenAddress, _expectedTokenAddress) */\n      swap2\n      pop\n      swap2\n      pop\n        /* \"contracts/SyCrowBarter.sol\":3178:3376  function getTokens()... */\n      swap1\n      swap2\n      jump\t// out\n        /* \"contracts/SyCrowBarter.sol\":4921:5161  function tradeTokenForToken()... */\n    tag_89:\n        /* \"contracts/SyCrowBarter.sol\":969:984  block.timestamp */\n      timestamp\n        /* \"contracts/SyCrowBarter.sol\":956:965  _deadline */\n      sload(0x03)\n        /* \"contracts/SyCrowBarter.sol\":956:984  _deadline >= block.timestamp */\n      lt\n      iszero\n        /* \"contracts/SyCrowBarter.sol\":956:1022  _deadline >= block.timestamp && totalTradeAmount < _expectedAmount */\n      dup1\n      iszero\n      tag_330\n      jumpi\n      pop\n        /* \"contracts/SyCrowBarter.sol\":1007:1022  _expectedAmount */\n      sload(0x07)\n        /* \"contracts/SyCrowBarter.sol\":988:1004  totalTradeAmount */\n      sload(0x01)\n        /* \"contracts/SyCrowBarter.sol\":988:1022  totalTradeAmount < _expectedAmount */\n      lt\n        /* \"contracts/SyCrowBarter.sol\":956:1022  _deadline >= block.timestamp && totalTradeAmount < _expectedAmount */\n    tag_330:\n        /* \"contracts/SyCrowBarter.sol\":935:1070  require(... */\n      tag_331\n      jumpi\n      mload(0x40)\n      0x08c379a000000000000000000000000000000000000000000000000000000000\n      dup2\n      mstore\n      0x04\n      add\n      tag_332\n      swap1\n      tag_114\n      jump\t// in\n    tag_332:\n      mload(0x40)\n      dup1\n      swap2\n      sub\n      swap1\n      revert\n    tag_331:\n        /* \"contracts/SyCrowBarter.sol\":1488:1500  _initialized */\n      0x04\n      0x00\n      swap1\n      sload\n      swap1\n      0x0100\n      exp\n      swap1\n      div\n      0xff\n      and\n        /* \"contracts/SyCrowBarter.sol\":1480:1534  require(_initialized, \"SyCrowBarter: NOT_INITIALIZED\") */\n      tag_334\n      jumpi\n      mload(0x40)\n      0x08c379a000000000000000000000000000000000000000000000000000000000\n      dup2\n      mstore\n      0x04\n      add\n      tag_335\n      swap1\n      tag_118\n      jump\t// in\n    tag_335:\n      mload(0x40)\n      dup1\n      swap2\n      sub\n      swap1\n      revert\n    tag_334:\n        /* \"contracts/SyCrowBarter.sol\":1721:1754  ISyCrowBarterFactory isycrFactory */\n      0x00\n        /* \"contracts/SyCrowBarter.sol\":1778:1785  factory */\n      immutable(\"0x26a975632f70533c9512e57b565b8ce8e2befee6b08dfbc27c4a897a20e2c1d6\")\n        /* \"contracts/SyCrowBarter.sol\":1721:1786  ISyCrowBarterFactory isycrFactory = ISyCrowBarterFactory(factory) */\n      swap1\n      pop\n        /* \"contracts/SyCrowBarter.sol\":1805:1817  isycrFactory */\n      dup1\n        /* \"contracts/SyCrowBarter.sol\":1805:1826  isycrFactory.isPaused */\n      0xffffffffffffffffffffffffffffffffffffffff\n      and\n      0xb187bd26\n        /* \"contracts/SyCrowBarter.sol\":1805:1828  isycrFactory.isPaused() */\n      mload(0x40)\n      dup2\n      0xffffffff\n      and\n      0xe0\n      shl\n      dup2\n      mstore\n      0x04\n      add\n      0x20\n      mload(0x40)\n      dup1\n      dup4\n      sub\n      dup2\n      dup7\n      gas\n      staticcall\n      iszero\n      dup1\n      iszero\n      tag_338\n      jumpi\n      returndatasize\n      0x00\n      dup1\n      returndatacopy\n      revert(0x00, returndatasize)\n    tag_338:\n      pop\n      pop\n      pop\n      pop\n      mload(0x40)\n      returndatasize\n      not(0x1f)\n      0x1f\n      dup3\n      add\n      and\n      dup3\n      add\n      dup1\n      0x40\n      mstore\n      pop\n      dup2\n      add\n      swap1\n      tag_339\n      swap2\n      swap1\n      tag_123\n      jump\t// in\n    tag_339:\n        /* \"contracts/SyCrowBarter.sol\":1804:1828  !isycrFactory.isPaused() */\n      iszero\n        /* \"contracts/SyCrowBarter.sol\":1796:1867  require(!isycrFactory.isPaused(), \"SyCrowBarter: Base Contract Paused\") */\n      tag_340\n      jumpi\n      mload(0x40)\n      0x08c379a000000000000000000000000000000000000000000000000000000000\n      dup2\n      mstore\n      0x04\n      add\n      tag_341\n      swap1\n      tag_126\n      jump\t// in\n    tag_341:\n      mload(0x40)\n      dup1\n      swap2\n      sub\n      swap1\n      revert\n    tag_340:\n        /* \"contracts/SyCrowBarter.sol\":5069:5102  ISyCrowBarterType.TOKEN_FOR_TOKEN */\n      0x02\n        /* \"contracts/SyCrowBarter.sol\":1183:1193  barterType */\n      dup1\n      0x00\n      swap1\n      sload\n      swap1\n      0x0100\n      exp\n      swap1\n      div\n      0xff\n      and\n        /* \"contracts/SyCrowBarter.sol\":1168:1193  _barterType == barterType */\n      0x02\n      dup2\n      gt\n      iszero\n      tag_343\n      jumpi\n      tag_344\n      tag_134\n      jump\t// in\n    tag_344:\n    tag_343:\n        /* \"contracts/SyCrowBarter.sol\":1168:1179  _barterType */\n      dup2\n        /* \"contracts/SyCrowBarter.sol\":1168:1193  _barterType == barterType */\n      0x02\n      dup2\n      gt\n      iszero\n      tag_345\n      jumpi\n      tag_346\n      tag_134\n      jump\t// in\n    tag_346:\n    tag_345:\n      eq\n        /* \"contracts/SyCrowBarter.sol\":1160:1231  require(_barterType == barterType, \"SyCrowBarter: INVALID_BARTER_TYPE\") */\n      tag_347\n      jumpi\n      mload(0x40)\n      0x08c379a000000000000000000000000000000000000000000000000000000000\n      dup2\n      mstore\n      0x04\n      add\n      tag_348\n      swap1\n      tag_139\n      jump\t// in\n    tag_348:\n      mload(0x40)\n      dup1\n      swap2\n      sub\n      swap1\n      revert\n    tag_347:\n        /* \"contracts/SyCrowBarter.sol\":5118:5154  _tradeTokenForToken(_expectedAmount) */\n      tag_350\n        /* \"contracts/SyCrowBarter.sol\":5138:5153  _expectedAmount */\n      sload(0x07)\n        /* \"contracts/SyCrowBarter.sol\":5118:5137  _tradeTokenForToken */\n      tag_168\n        /* \"contracts/SyCrowBarter.sol\":5118:5154  _tradeTokenForToken(_expectedAmount) */\n      jump\t// in\n    tag_350:\n        /* \"contracts/SyCrowBarter.sol\":1877:1878  _ */\n      pop\n        /* \"contracts/SyCrowBarter.sol\":1711:1885  {... */\n      pop\n        /* \"contracts/SyCrowBarter.sol\":4921:5161  function tradeTokenForToken()... */\n      jump\t// out\n        /* \"contracts/SyCrowBarter.sol\":323:364  address public immutable override factory */\n    tag_92:\n      immutable(\"0x26a975632f70533c9512e57b565b8ce8e2befee6b08dfbc27c4a897a20e2c1d6\")\n      dup2\n      jump\t// out\n        /* \"contracts/SyCrowBarter.sol\":5407:5657  function tradeEthForToken()... */\n    tag_95:\n        /* \"contracts/SyCrowBarter.sol\":969:984  block.timestamp */\n      timestamp\n        /* \"contracts/SyCrowBarter.sol\":956:965  _deadline */\n      sload(0x03)\n        /* \"contracts/SyCrowBarter.sol\":956:984  _deadline >= block.timestamp */\n      lt\n      iszero\n        /* \"contracts/SyCrowBarter.sol\":956:1022  _deadline >= block.timestamp && totalTradeAmount < _expectedAmount */\n      dup1\n      iszero\n      tag_352\n      jumpi\n      pop\n        /* \"contracts/SyCrowBarter.sol\":1007:1022  _expectedAmount */\n      sload(0x07)\n        /* \"contracts/SyCrowBarter.sol\":988:1004  totalTradeAmount */\n      sload(0x01)\n        /* \"contracts/SyCrowBarter.sol\":988:1022  totalTradeAmount < _expectedAmount */\n      lt\n        /* \"contracts/SyCrowBarter.sol\":956:1022  _deadline >= block.timestamp && totalTradeAmount < _expectedAmount */\n    tag_352:\n        /* \"contracts/SyCrowBarter.sol\":935:1070  require(... */\n      tag_353\n      jumpi\n      mload(0x40)\n      0x08c379a000000000000000000000000000000000000000000000000000000000\n      dup2\n      mstore\n      0x04\n      add\n      tag_354\n      swap1\n      tag_114\n      jump\t// in\n    tag_354:\n      mload(0x40)\n      dup1\n      swap2\n      sub\n      swap1\n      revert\n    tag_353:\n        /* \"contracts/SyCrowBarter.sol\":1488:1500  _initialized */\n      0x04\n      0x00\n      swap1\n      sload\n      swap1\n      0x0100\n      exp\n      swap1\n      div\n      0xff\n      and\n        /* \"contracts/SyCrowBarter.sol\":1480:1534  require(_initialized, \"SyCrowBarter: NOT_INITIALIZED\") */\n      tag_356\n      jumpi\n      mload(0x40)\n      0x08c379a000000000000000000000000000000000000000000000000000000000\n      dup2\n      mstore\n      0x04\n      add\n      tag_357\n      swap1\n      tag_118\n      jump\t// in\n    tag_357:\n      mload(0x40)\n      dup1\n      swap2\n      sub\n      swap1\n      revert\n    tag_356:\n        /* \"contracts/SyCrowBarter.sol\":1721:1754  ISyCrowBarterFactory isycrFactory */\n      0x00\n        /* \"contracts/SyCrowBarter.sol\":1778:1785  factory */\n      immutable(\"0x26a975632f70533c9512e57b565b8ce8e2befee6b08dfbc27c4a897a20e2c1d6\")\n        /* \"contracts/SyCrowBarter.sol\":1721:1786  ISyCrowBarterFactory isycrFactory = ISyCrowBarterFactory(factory) */\n      swap1\n      pop\n        /* \"contracts/SyCrowBarter.sol\":1805:1817  isycrFactory */\n      dup1\n        /* \"contracts/SyCrowBarter.sol\":1805:1826  isycrFactory.isPaused */\n      0xffffffffffffffffffffffffffffffffffffffff\n      and\n      0xb187bd26\n        /* \"contracts/SyCrowBarter.sol\":1805:1828  isycrFactory.isPaused() */\n      mload(0x40)\n      dup2\n      0xffffffff\n      and\n      0xe0\n      shl\n      dup2\n      mstore\n      0x04\n      add\n      0x20\n      mload(0x40)\n      dup1\n      dup4\n      sub\n      dup2\n      dup7\n      gas\n      staticcall\n      iszero\n      dup1\n      iszero\n      tag_360\n      jumpi\n      returndatasize\n      0x00\n      dup1\n      returndatacopy\n      revert(0x00, returndatasize)\n    tag_360:\n      pop\n      pop\n      pop\n      pop\n      mload(0x40)\n      returndatasize\n      not(0x1f)\n      0x1f\n      dup3\n      add\n      and\n      dup3\n      add\n      dup1\n      0x40\n      mstore\n      pop\n      dup2\n      add\n      swap1\n      tag_361\n      swap2\n      swap1\n      tag_123\n      jump\t// in\n    tag_361:\n        /* \"contracts/SyCrowBarter.sol\":1804:1828  !isycrFactory.isPaused() */\n      iszero\n        /* \"contracts/SyCrowBarter.sol\":1796:1867  require(!isycrFactory.isPaused(), \"SyCrowBarter: Base Contract Paused\") */\n      tag_362\n      jumpi\n      mload(0x40)\n      0x08c379a000000000000000000000000000000000000000000000000000000000\n      dup2\n      mstore\n      0x04\n      add\n      tag_363\n      swap1\n      tag_126\n      jump\t// in\n    tag_363:\n      mload(0x40)\n      dup1\n      swap2\n      sub\n      swap1\n      revert\n    tag_362:\n        /* \"contracts/SyCrowBarter.sol\":5569:5600  ISyCrowBarterType.TOKEN_FOR_ETH */\n      0x01\n        /* \"contracts/SyCrowBarter.sol\":1183:1193  barterType */\n      0x02\n      0x00\n      swap1\n      sload\n      swap1\n      0x0100\n      exp\n      swap1\n      div\n      0xff\n      and\n        /* \"contracts/SyCrowBarter.sol\":1168:1193  _barterType == barterType */\n      0x02\n      dup2\n      gt\n      iszero\n      tag_365\n      jumpi\n      tag_366\n      tag_134\n      jump\t// in\n    tag_366:\n    tag_365:\n        /* \"contracts/SyCrowBarter.sol\":1168:1179  _barterType */\n      dup2\n        /* \"contracts/SyCrowBarter.sol\":1168:1193  _barterType == barterType */\n      0x02\n      dup2\n      gt\n      iszero\n      tag_367\n      jumpi\n      tag_368\n      tag_134\n      jump\t// in\n    tag_368:\n    tag_367:\n      eq\n        /* \"contracts/SyCrowBarter.sol\":1160:1231  require(_barterType == barterType, \"SyCrowBarter: INVALID_BARTER_TYPE\") */\n      tag_369\n      jumpi\n      mload(0x40)\n      0x08c379a000000000000000000000000000000000000000000000000000000000\n      dup2\n      mstore\n      0x04\n      add\n      tag_370\n      swap1\n      tag_139\n      jump\t// in\n    tag_370:\n      mload(0x40)\n      dup1\n      swap2\n      sub\n      swap1\n      revert\n    tag_369:\n        /* \"contracts/SyCrowBarter.sol\":5616:5650  _tradeEthForToken(_expectedAmount) */\n      tag_372\n        /* \"contracts/SyCrowBarter.sol\":5634:5649  _expectedAmount */\n      sload(0x07)\n        /* \"contracts/SyCrowBarter.sol\":5616:5633  _tradeEthForToken */\n      tag_256\n        /* \"contracts/SyCrowBarter.sol\":5616:5650  _tradeEthForToken(_expectedAmount) */\n      jump\t// in\n    tag_372:\n        /* \"contracts/SyCrowBarter.sol\":1877:1878  _ */\n      pop\n        /* \"contracts/SyCrowBarter.sol\":1711:1885  {... */\n      pop\n        /* \"contracts/SyCrowBarter.sol\":5407:5657  function tradeEthForToken()... */\n      jump\t// out\n        /* \"contracts/SyCrowBarter.sol\":10914:11084  function getTradeOutAmount(uint256 amount)... */\n    tag_99:\n        /* \"contracts/SyCrowBarter.sol\":11002:11009  uint256 */\n      0x00\n        /* \"contracts/SyCrowBarter.sol\":11062:11077  _expectedAmount */\n      sload(0x07)\n        /* \"contracts/SyCrowBarter.sol\":11042:11058  _depositedAmount */\n      sload(0x06)\n        /* \"contracts/SyCrowBarter.sol\":11033:11039  amount */\n      dup4\n        /* \"contracts/SyCrowBarter.sol\":11033:11058  amount * _depositedAmount */\n      tag_374\n      swap2\n      swap1\n      tag_375\n      jump\t// in\n    tag_374:\n        /* \"contracts/SyCrowBarter.sol\":11032:11077  (amount * _depositedAmount) / _expectedAmount */\n      tag_376\n      swap2\n      swap1\n      tag_377\n      jump\t// in\n    tag_376:\n        /* \"contracts/SyCrowBarter.sol\":11025:11077  return (amount * _depositedAmount) / _expectedAmount */\n      swap1\n      pop\n        /* \"contracts/SyCrowBarter.sol\":10914:11084  function getTradeOutAmount(uint256 amount)... */\n      swap2\n      swap1\n      pop\n      jump\t// out\n        /* \"contracts/SyCrowBarter.sol\":3382:4068  function getTrades()... */\n    tag_103:\n        /* \"contracts/SyCrowBarter.sol\":3500:3516  address[] memory */\n      0x60\n        /* \"contracts/SyCrowBarter.sol\":3530:3546  uint256[] memory */\n      dup1\n        /* \"contracts/SyCrowBarter.sol\":3560:3576  uint256[] memory */\n      0x60\n        /* \"contracts/SyCrowBarter.sol\":1488:1500  _initialized */\n      0x04\n      0x00\n      swap1\n      sload\n      swap1\n      0x0100\n      exp\n      swap1\n      div\n      0xff\n      and\n        /* \"contracts/SyCrowBarter.sol\":1480:1534  require(_initialized, \"SyCrowBarter: NOT_INITIALIZED\") */\n      tag_379\n      jumpi\n      mload(0x40)\n      0x08c379a000000000000000000000000000000000000000000000000000000000\n      dup2\n      mstore\n      0x04\n      add\n      tag_380\n      swap1\n      tag_118\n      jump\t// in\n    tag_380:\n      mload(0x40)\n      dup1\n      swap2\n      sub\n      swap1\n      revert\n    tag_379:\n        /* \"contracts/SyCrowBarter.sol\":3601:3627  address[] memory addresses */\n      0x00\n        /* \"contracts/SyCrowBarter.sol\":3644:3651  _trades */\n      0x09\n        /* \"contracts/SyCrowBarter.sol\":3644:3658  _trades.length */\n      dup1\n      sload\n      swap1\n      pop\n        /* \"contracts/SyCrowBarter.sol\":3630:3659  new address[](_trades.length) */\n      0xffffffffffffffff\n      dup2\n      gt\n      iszero\n      tag_382\n      jumpi\n      tag_383\n      tag_384\n      jump\t// in\n    tag_383:\n    tag_382:\n      mload(0x40)\n      swap1\n      dup1\n      dup3\n      mstore\n      dup1\n      0x20\n      mul\n      0x20\n      add\n      dup3\n      add\n      0x40\n      mstore\n      dup1\n      iszero\n      tag_385\n      jumpi\n      dup2\n      0x20\n      add\n      0x20\n      dup3\n      mul\n      dup1\n      calldatasize\n      dup4\n      calldatacopy\n      dup1\n      dup3\n      add\n      swap2\n      pop\n      pop\n      swap1\n      pop\n    tag_385:\n      pop\n        /* \"contracts/SyCrowBarter.sol\":3601:3659  address[] memory addresses = new address[](_trades.length) */\n      swap1\n      pop\n        /* \"contracts/SyCrowBarter.sol\":3669:3695  uint256[] memory amountsIn */\n      0x00\n        /* \"contracts/SyCrowBarter.sol\":3712:3719  _trades */\n      0x09\n        /* \"contracts/SyCrowBarter.sol\":3712:3726  _trades.length */\n      dup1\n      sload\n      swap1\n      pop\n        /* \"contracts/SyCrowBarter.sol\":3698:3727  new uint256[](_trades.length) */\n      0xffffffffffffffff\n      dup2\n      gt\n      iszero\n      tag_386\n      jumpi\n      tag_387\n      tag_384\n      jump\t// in\n    tag_387:\n    tag_386:\n      mload(0x40)\n      swap1\n      dup1\n      dup3\n      mstore\n      dup1\n      0x20\n      mul\n      0x20\n      add\n      dup3\n      add\n      0x40\n      mstore\n      dup1\n      iszero\n      tag_388\n      jumpi\n      dup2\n      0x20\n      add\n      0x20\n      dup3\n      mul\n      dup1\n      calldatasize\n      dup4\n      calldatacopy\n      dup1\n      dup3\n      add\n      swap2\n      pop\n      pop\n      swap1\n      pop\n    tag_388:\n      pop\n        /* \"contracts/SyCrowBarter.sol\":3669:3727  uint256[] memory amountsIn = new uint256[](_trades.length) */\n      swap1\n      pop\n        /* \"contracts/SyCrowBarter.sol\":3737:3764  uint256[] memory amountsOut */\n      0x00\n        /* \"contracts/SyCrowBarter.sol\":3781:3788  _trades */\n      0x09\n        /* \"contracts/SyCrowBarter.sol\":3781:3795  _trades.length */\n      dup1\n      sload\n      swap1\n      pop\n        /* \"contracts/SyCrowBarter.sol\":3767:3796  new uint256[](_trades.length) */\n      0xffffffffffffffff\n      dup2\n      gt\n      iszero\n      tag_389\n      jumpi\n      tag_390\n      tag_384\n      jump\t// in\n    tag_390:\n    tag_389:\n      mload(0x40)\n      swap1\n      dup1\n      dup3\n      mstore\n      dup1\n      0x20\n      mul\n      0x20\n      add\n      dup3\n      add\n      0x40\n      mstore\n      dup1\n      iszero\n      tag_391\n      jumpi\n      dup2\n      0x20\n      add\n      0x20\n      dup3\n      mul\n      dup1\n      calldatasize\n      dup4\n      calldatacopy\n      dup1\n      dup3\n      add\n      swap2\n      pop\n      pop\n      swap1\n      pop\n    tag_391:\n      pop\n        /* \"contracts/SyCrowBarter.sol\":3737:3796  uint256[] memory amountsOut = new uint256[](_trades.length) */\n      swap1\n      pop\n        /* \"contracts/SyCrowBarter.sol\":3812:3821  uint256 i */\n      0x00\n        /* \"contracts/SyCrowBarter.sol\":3807:4010  for (uint256 i = 0; i < _trades.length; i++) {... */\n    tag_392:\n        /* \"contracts/SyCrowBarter.sol\":3831:3838  _trades */\n      0x09\n        /* \"contracts/SyCrowBarter.sol\":3831:3845  _trades.length */\n      dup1\n      sload\n      swap1\n      pop\n        /* \"contracts/SyCrowBarter.sol\":3827:3828  i */\n      dup2\n        /* \"contracts/SyCrowBarter.sol\":3827:3845  i < _trades.length */\n      lt\n        /* \"contracts/SyCrowBarter.sol\":3807:4010  for (uint256 i = 0; i < _trades.length; i++) {... */\n      iszero\n      tag_393\n      jumpi\n        /* \"contracts/SyCrowBarter.sol\":3881:3888  _trades */\n      0x09\n        /* \"contracts/SyCrowBarter.sol\":3889:3890  i */\n      dup2\n        /* \"contracts/SyCrowBarter.sol\":3881:3891  _trades[i] */\n      dup2\n      sload\n      dup2\n      lt\n      tag_395\n      jumpi\n      tag_396\n      tag_397\n      jump\t// in\n    tag_396:\n    tag_395:\n      swap1\n      0x00\n      mstore\n      keccak256(0x00, 0x20)\n      swap1\n      0x03\n      mul\n      add\n        /* \"contracts/SyCrowBarter.sol\":3881:3899  _trades[i]._trader */\n      0x00\n      add\n      0x00\n      swap1\n      sload\n      swap1\n      0x0100\n      exp\n      swap1\n      div\n      0xffffffffffffffffffffffffffffffffffffffff\n      and\n        /* \"contracts/SyCrowBarter.sol\":3866:3875  addresses */\n      dup5\n        /* \"contracts/SyCrowBarter.sol\":3876:3877  i */\n      dup3\n        /* \"contracts/SyCrowBarter.sol\":3866:3878  addresses[i] */\n      dup2\n      mload\n      dup2\n      lt\n      tag_399\n      jumpi\n      tag_400\n      tag_397\n      jump\t// in\n    tag_400:\n    tag_399:\n      0x20\n      mul\n      0x20\n      add\n      add\n        /* \"contracts/SyCrowBarter.sol\":3866:3899  addresses[i] = _trades[i]._trader */\n      swap1\n      0xffffffffffffffffffffffffffffffffffffffff\n      and\n      swap1\n      dup2\n      0xffffffffffffffffffffffffffffffffffffffff\n      and\n      dup2\n      mstore\n      pop\n      pop\n        /* \"contracts/SyCrowBarter.sol\":3928:3935  _trades */\n      0x09\n        /* \"contracts/SyCrowBarter.sol\":3936:3937  i */\n      dup2\n        /* \"contracts/SyCrowBarter.sol\":3928:3938  _trades[i] */\n      dup2\n      sload\n      dup2\n      lt\n      tag_401\n      jumpi\n      tag_402\n      tag_397\n      jump\t// in\n    tag_402:\n    tag_401:\n      swap1\n      0x00\n      mstore\n      keccak256(0x00, 0x20)\n      swap1\n      0x03\n      mul\n      add\n        /* \"contracts/SyCrowBarter.sol\":3928:3948  _trades[i]._amountIn */\n      0x01\n      add\n      sload\n        /* \"contracts/SyCrowBarter.sol\":3913:3922  amountsIn */\n      dup4\n        /* \"contracts/SyCrowBarter.sol\":3923:3924  i */\n      dup3\n        /* \"contracts/SyCrowBarter.sol\":3913:3925  amountsIn[i] */\n      dup2\n      mload\n      dup2\n      lt\n      tag_404\n      jumpi\n      tag_405\n      tag_397\n      jump\t// in\n    tag_405:\n    tag_404:\n      0x20\n      mul\n      0x20\n      add\n      add\n        /* \"contracts/SyCrowBarter.sol\":3913:3948  amountsIn[i] = _trades[i]._amountIn */\n      dup2\n      dup2\n      mstore\n      pop\n      pop\n        /* \"contracts/SyCrowBarter.sol\":3978:3985  _trades */\n      0x09\n        /* \"contracts/SyCrowBarter.sol\":3986:3987  i */\n      dup2\n        /* \"contracts/SyCrowBarter.sol\":3978:3988  _trades[i] */\n      dup2\n      sload\n      dup2\n      lt\n      tag_406\n      jumpi\n      tag_407\n      tag_397\n      jump\t// in\n    tag_407:\n    tag_406:\n      swap1\n      0x00\n      mstore\n      keccak256(0x00, 0x20)\n      swap1\n      0x03\n      mul\n      add\n        /* \"contracts/SyCrowBarter.sol\":3978:3999  _trades[i]._amountOut */\n      0x02\n      add\n      sload\n        /* \"contracts/SyCrowBarter.sol\":3962:3972  amountsOut */\n      dup3\n        /* \"contracts/SyCrowBarter.sol\":3973:3974  i */\n      dup3\n        /* \"contracts/SyCrowBarter.sol\":3962:3975  amountsOut[i] */\n      dup2\n      mload\n      dup2\n      lt\n      tag_409\n      jumpi\n      tag_410\n      tag_397\n      jump\t// in\n    tag_410:\n    tag_409:\n      0x20\n      mul\n      0x20\n      add\n      add\n        /* \"contracts/SyCrowBarter.sol\":3962:3999  amountsOut[i] = _trades[i]._amountOut */\n      dup2\n      dup2\n      mstore\n      pop\n      pop\n        /* \"contracts/SyCrowBarter.sol\":3847:3850  i++ */\n      dup1\n      dup1\n      tag_411\n      swap1\n      tag_412\n      jump\t// in\n    tag_411:\n      swap2\n      pop\n      pop\n        /* \"contracts/SyCrowBarter.sol\":3807:4010  for (uint256 i = 0; i < _trades.length; i++) {... */\n      jump(tag_392)\n    tag_393:\n      pop\n        /* \"contracts/SyCrowBarter.sol\":4028:4037  addresses */\n      dup3\n        /* \"contracts/SyCrowBarter.sol\":4039:4048  amountsIn */\n      dup3\n        /* \"contracts/SyCrowBarter.sol\":4050:4060  amountsOut */\n      dup3\n        /* \"contracts/SyCrowBarter.sol\":4020:4061  return (addresses, amountsIn, amountsOut) */\n      swap6\n      pop\n      swap6\n      pop\n      swap6\n      pop\n      pop\n      pop\n      pop\n        /* \"contracts/SyCrowBarter.sol\":3382:4068  function getTrades()... */\n      swap1\n      swap2\n      swap3\n      jump\t// out\n        /* \"@openzeppelin/contracts/access/Ownable.sol\":1918:2116  function transferOwnership(address newOwner) public virtual onlyOwner {... */\n    tag_109:\n        /* \"@openzeppelin/contracts/access/Ownable.sol\":1259:1271  _msgSender() */\n      tag_414\n        /* \"@openzeppelin/contracts/access/Ownable.sol\":1259:1269  _msgSender */\n      tag_179\n        /* \"@openzeppelin/contracts/access/Ownable.sol\":1259:1271  _msgSender() */\n      jump\t// in\n    tag_414:\n        /* \"@openzeppelin/contracts/access/Ownable.sol\":1248:1271  owner() == _msgSender() */\n      0xffffffffffffffffffffffffffffffffffffffff\n      and\n        /* \"@openzeppelin/contracts/access/Ownable.sol\":1248:1255  owner() */\n      tag_415\n        /* \"@openzeppelin/contracts/access/Ownable.sol\":1248:1253  owner */\n      tag_76\n        /* \"@openzeppelin/contracts/access/Ownable.sol\":1248:1255  owner() */\n      jump\t// in\n    tag_415:\n        /* \"@openzeppelin/contracts/access/Ownable.sol\":1248:1271  owner() == _msgSender() */\n      0xffffffffffffffffffffffffffffffffffffffff\n      and\n      eq\n        /* \"@openzeppelin/contracts/access/Ownable.sol\":1240:1308  require(owner() == _msgSender(), \"Ownable: caller is not the owner\") */\n      tag_416\n      jumpi\n      mload(0x40)\n      0x08c379a000000000000000000000000000000000000000000000000000000000\n      dup2\n      mstore\n      0x04\n      add\n      tag_417\n      swap1\n      tag_183\n      jump\t// in\n    tag_417:\n      mload(0x40)\n      dup1\n      swap2\n      sub\n      swap1\n      revert\n    tag_416:\n        /* \"@openzeppelin/contracts/access/Ownable.sol\":2026:2027  0 */\n      0x00\n        /* \"@openzeppelin/contracts/access/Ownable.sol\":2006:2028  newOwner != address(0) */\n      0xffffffffffffffffffffffffffffffffffffffff\n      and\n        /* \"@openzeppelin/contracts/access/Ownable.sol\":2006:2014  newOwner */\n      dup2\n        /* \"@openzeppelin/contracts/access/Ownable.sol\":2006:2028  newOwner != address(0) */\n      0xffffffffffffffffffffffffffffffffffffffff\n      and\n      sub\n        /* \"@openzeppelin/contracts/access/Ownable.sol\":1998:2071  require(newOwner != address(0), \"Ownable: new owner is the zero address\") */\n      tag_419\n      jumpi\n      mload(0x40)\n      0x08c379a000000000000000000000000000000000000000000000000000000000\n      dup2\n      mstore\n      0x04\n      add\n      tag_420\n      swap1\n      tag_421\n      jump\t// in\n    tag_420:\n      mload(0x40)\n      dup1\n      swap2\n      sub\n      swap1\n      revert\n    tag_419:\n        /* \"@openzeppelin/contracts/access/Ownable.sol\":2081:2109  _transferOwnership(newOwner) */\n      tag_422\n        /* \"@openzeppelin/contracts/access/Ownable.sol\":2100:2108  newOwner */\n      dup2\n        /* \"@openzeppelin/contracts/access/Ownable.sol\":2081:2099  _transferOwnership */\n      tag_301\n        /* \"@openzeppelin/contracts/access/Ownable.sol\":2081:2109  _transferOwnership(newOwner) */\n      jump\t// in\n    tag_422:\n        /* \"@openzeppelin/contracts/access/Ownable.sol\":1918:2116  function transferOwnership(address newOwner) public virtual onlyOwner {... */\n      pop\n      jump\t// out\n        /* \"contracts/SyCrowBarter.sol\":6709:7717  function _tradeTokenForEth(uint256 inAmount) internal {... */\n    tag_142:\n        /* \"contracts/SyCrowBarter.sol\":6849:6857  inAmount */\n      dup1\n        /* \"contracts/SyCrowBarter.sol\":6801:6822  _expectedTokenAddress */\n      0x05\n      0x00\n      swap1\n      sload\n      swap1\n      0x0100\n      exp\n      swap1\n      div\n      0xffffffffffffffffffffffffffffffffffffffff\n      and\n        /* \"contracts/SyCrowBarter.sol\":6794:6833  IERC20(_expectedTokenAddress).balanceOf */\n      0xffffffffffffffffffffffffffffffffffffffff\n      and\n      0x70a08231\n        /* \"contracts/SyCrowBarter.sol\":6834:6844  msg.sender */\n      caller\n        /* \"contracts/SyCrowBarter.sol\":6794:6845  IERC20(_expectedTokenAddress).balanceOf(msg.sender) */\n      mload(0x40)\n      dup3\n      0xffffffff\n      and\n      0xe0\n      shl\n      dup2\n      mstore\n      0x04\n      add\n      tag_424\n      swap2\n      swap1\n      tag_78\n      jump\t// in\n    tag_424:\n      0x20\n      mload(0x40)\n      dup1\n      dup4\n      sub\n      dup2\n      dup7\n      gas\n      staticcall\n      iszero\n      dup1\n      iszero\n      tag_426\n      jumpi\n      returndatasize\n      0x00\n      dup1\n      returndatacopy\n      revert(0x00, returndatasize)\n    tag_426:\n      pop\n      pop\n      pop\n      pop\n      mload(0x40)\n      returndatasize\n      not(0x1f)\n      0x1f\n      dup3\n      add\n      and\n      dup3\n      add\n      dup1\n      0x40\n      mstore\n      pop\n      dup2\n      add\n      swap1\n      tag_427\n      swap2\n      swap1\n      tag_189\n      jump\t// in\n    tag_427:\n        /* \"contracts/SyCrowBarter.sol\":6794:6857  IERC20(_expectedTokenAddress).balanceOf(msg.sender) >= inAmount */\n      lt\n      iszero\n        /* \"contracts/SyCrowBarter.sol\":6773:6917  require(... */\n      tag_428\n      jumpi\n      mload(0x40)\n      0x08c379a000000000000000000000000000000000000000000000000000000000\n      dup2\n      mstore\n      0x04\n      add\n      tag_429\n      swap1\n      tag_430\n      jump\t// in\n    tag_429:\n      mload(0x40)\n      dup1\n      swap2\n      sub\n      swap1\n      revert\n    tag_428:\n        /* \"contracts/SyCrowBarter.sol\":6928:6945  uint256 outAmount */\n      0x00\n        /* \"contracts/SyCrowBarter.sol\":6948:6975  getTradeOutAmount(inAmount) */\n      tag_431\n        /* \"contracts/SyCrowBarter.sol\":6966:6974  inAmount */\n      dup3\n        /* \"contracts/SyCrowBarter.sol\":6948:6965  getTradeOutAmount */\n      tag_99\n        /* \"contracts/SyCrowBarter.sol\":6948:6975  getTradeOutAmount(inAmount) */\n      jump\t// in\n    tag_431:\n        /* \"contracts/SyCrowBarter.sol\":6928:6975  uint256 outAmount = getTradeOutAmount(inAmount) */\n      swap1\n      pop\n        /* \"contracts/SyCrowBarter.sol\":6986:6997  IWETH _weth */\n      0x00\n        /* \"contracts/SyCrowBarter.sol\":7006:7010  WETH */\n      0x02\n      0x01\n      swap1\n      sload\n      swap1\n      0x0100\n      exp\n      swap1\n      div\n      0xffffffffffffffffffffffffffffffffffffffff\n      and\n        /* \"contracts/SyCrowBarter.sol\":6986:7011  IWETH _weth = IWETH(WETH) */\n      swap1\n      pop\n        /* \"contracts/SyCrowBarter.sol\":7077:7086  outAmount */\n      dup2\n        /* \"contracts/SyCrowBarter.sol\":7043:7048  _weth */\n      dup2\n        /* \"contracts/SyCrowBarter.sol\":7043:7058  _weth.balanceOf */\n      0xffffffffffffffffffffffffffffffffffffffff\n      and\n      0x70a08231\n        /* \"contracts/SyCrowBarter.sol\":7067:7071  this */\n      address\n        /* \"contracts/SyCrowBarter.sol\":7043:7073  _weth.balanceOf(address(this)) */\n      mload(0x40)\n      dup3\n      0xffffffff\n      and\n      0xe0\n      shl\n      dup2\n      mstore\n      0x04\n      add\n      tag_432\n      swap2\n      swap1\n      tag_78\n      jump\t// in\n    tag_432:\n      0x20\n      mload(0x40)\n      dup1\n      dup4\n      sub\n      dup2\n      dup7\n      gas\n      staticcall\n      iszero\n      dup1\n      iszero\n      tag_434\n      jumpi\n      returndatasize\n      0x00\n      dup1\n      returndatacopy\n      revert(0x00, returndatasize)\n    tag_434:\n      pop\n      pop\n      pop\n      pop\n      mload(0x40)\n      returndatasize\n      not(0x1f)\n      0x1f\n      dup3\n      add\n      and\n      dup3\n      add\n      dup1\n      0x40\n      mstore\n      pop\n      dup2\n      add\n      swap1\n      tag_435\n      swap2\n      swap1\n      tag_189\n      jump\t// in\n    tag_435:\n        /* \"contracts/SyCrowBarter.sol\":7043:7086  _weth.balanceOf(address(this)) >= outAmount */\n      lt\n      iszero\n        /* \"contracts/SyCrowBarter.sol\":7022:7155  require(... */\n      tag_436\n      jumpi\n      mload(0x40)\n      0x08c379a000000000000000000000000000000000000000000000000000000000\n      dup2\n      mstore\n      0x04\n      add\n      tag_437\n      swap1\n      tag_438\n      jump\t// in\n    tag_437:\n      mload(0x40)\n      dup1\n      swap2\n      sub\n      swap1\n      revert\n    tag_436:\n        /* \"contracts/SyCrowBarter.sol\":7172:7176  WETH */\n      0x02\n      0x01\n      swap1\n      sload\n      swap1\n      0x0100\n      exp\n      swap1\n      div\n      0xffffffffffffffffffffffffffffffffffffffff\n      and\n        /* \"contracts/SyCrowBarter.sol\":7166:7186  IWETH(WETH).withdraw */\n      0xffffffffffffffffffffffffffffffffffffffff\n      and\n      0x2e1a7d4d\n        /* \"contracts/SyCrowBarter.sol\":7187:7196  outAmount */\n      dup4\n        /* \"contracts/SyCrowBarter.sol\":7166:7197  IWETH(WETH).withdraw(outAmount) */\n      mload(0x40)\n      dup3\n      0xffffffff\n      and\n      0xe0\n      shl\n      dup2\n      mstore\n      0x04\n      add\n      tag_439\n      swap2\n      swap1\n      tag_51\n      jump\t// in\n    tag_439:\n      0x00\n      mload(0x40)\n      dup1\n      dup4\n      sub\n      dup2\n      0x00\n      dup8\n      dup1\n      extcodesize\n      iszero\n      dup1\n      iszero\n      tag_440\n      jumpi\n      0x00\n      dup1\n      revert\n    tag_440:\n      pop\n      gas\n      call\n      iszero\n      dup1\n      iszero\n      tag_442\n      jumpi\n      returndatasize\n      0x00\n      dup1\n      returndatacopy\n      revert(0x00, returndatasize)\n    tag_442:\n      pop\n      pop\n      pop\n      pop\n        /* \"contracts/SyCrowBarter.sol\":7208:7357  TransferHelper.safeTransferFrom(... */\n      tag_443\n        /* \"contracts/SyCrowBarter.sol\":7253:7274  _expectedTokenAddress */\n      0x05\n      0x00\n      swap1\n      sload\n      swap1\n      0x0100\n      exp\n      swap1\n      div\n      0xffffffffffffffffffffffffffffffffffffffff\n      and\n        /* \"contracts/SyCrowBarter.sol\":7288:7298  msg.sender */\n      caller\n        /* \"contracts/SyCrowBarter.sol\":7320:7324  this */\n      address\n        /* \"contracts/SyCrowBarter.sol\":7339:7347  inAmount */\n      dup7\n        /* \"contracts/SyCrowBarter.sol\":7208:7239  TransferHelper.safeTransferFrom */\n      tag_444\n        /* \"contracts/SyCrowBarter.sol\":7208:7357  TransferHelper.safeTransferFrom(... */\n      jump\t// in\n    tag_443:\n        /* \"contracts/SyCrowBarter.sol\":7367:7420  TransferHelper.safeTransferETH(msg.sender, outAmount) */\n      tag_445\n        /* \"contracts/SyCrowBarter.sol\":7398:7408  msg.sender */\n      caller\n        /* \"contracts/SyCrowBarter.sol\":7410:7419  outAmount */\n      dup4\n        /* \"contracts/SyCrowBarter.sol\":7367:7397  TransferHelper.safeTransferETH */\n      tag_196\n        /* \"contracts/SyCrowBarter.sol\":7367:7420  TransferHelper.safeTransferETH(msg.sender, outAmount) */\n      jump\t// in\n    tag_445:\n        /* \"contracts/SyCrowBarter.sol\":7431:7438  _trades */\n      0x09\n        /* \"contracts/SyCrowBarter.sol\":7444:7487  BaterTrade(msg.sender, inAmount, outAmount) */\n      mload(0x40)\n      dup1\n      0x60\n      add\n      0x40\n      mstore\n      dup1\n        /* \"contracts/SyCrowBarter.sol\":7455:7465  msg.sender */\n      caller\n        /* \"contracts/SyCrowBarter.sol\":7444:7487  BaterTrade(msg.sender, inAmount, outAmount) */\n      0xffffffffffffffffffffffffffffffffffffffff\n      and\n      dup2\n      mstore\n      0x20\n      add\n        /* \"contracts/SyCrowBarter.sol\":7467:7475  inAmount */\n      dup6\n        /* \"contracts/SyCrowBarter.sol\":7444:7487  BaterTrade(msg.sender, inAmount, outAmount) */\n      dup2\n      mstore\n      0x20\n      add\n        /* \"contracts/SyCrowBarter.sol\":7477:7486  outAmount */\n      dup5\n        /* \"contracts/SyCrowBarter.sol\":7444:7487  BaterTrade(msg.sender, inAmount, outAmount) */\n      dup2\n      mstore\n      pop\n        /* \"contracts/SyCrowBarter.sol\":7431:7488  _trades.push(BaterTrade(msg.sender, inAmount, outAmount)) */\n      swap1\n      dup1\n      0x01\n      dup2\n      sload\n      add\n      dup1\n      dup3\n      sstore\n      dup1\n      swap2\n      pop\n      pop\n      0x01\n      swap1\n      sub\n      swap1\n      0x00\n      mstore\n      keccak256(0x00, 0x20)\n      swap1\n      0x03\n      mul\n      add\n      0x00\n      swap1\n      swap2\n      swap1\n      swap2\n      swap1\n      swap2\n      pop\n      0x00\n      dup3\n      add\n      mload\n      dup2\n      0x00\n      add\n      exp(0x0100, 0x00)\n      dup2\n      sload\n      dup2\n      0xffffffffffffffffffffffffffffffffffffffff\n      mul\n      not\n      and\n      swap1\n      dup4\n      0xffffffffffffffffffffffffffffffffffffffff\n      and\n      mul\n      or\n      swap1\n      sstore\n      pop\n      0x20\n      dup3\n      add\n      mload\n      dup2\n      0x01\n      add\n      sstore\n      0x40\n      dup3\n      add\n      mload\n      dup2\n      0x02\n      add\n      sstore\n      pop\n      pop\n        /* \"contracts/SyCrowBarter.sol\":7499:7531  ISyCrowBarterFactory sycrFactory */\n      0x00\n        /* \"contracts/SyCrowBarter.sol\":7555:7562  factory */\n      immutable(\"0x26a975632f70533c9512e57b565b8ce8e2befee6b08dfbc27c4a897a20e2c1d6\")\n        /* \"contracts/SyCrowBarter.sol\":7499:7563  ISyCrowBarterFactory sycrFactory = ISyCrowBarterFactory(factory) */\n      swap1\n      pop\n        /* \"contracts/SyCrowBarter.sol\":7573:7584  sycrFactory */\n      dup1\n        /* \"contracts/SyCrowBarter.sol\":7573:7604  sycrFactory.notifyTradeByBarter */\n      0xffffffffffffffffffffffffffffffffffffffff\n      and\n      0xf52701b7\n        /* \"contracts/SyCrowBarter.sol\":7626:7630  this */\n      address\n        /* \"contracts/SyCrowBarter.sol\":7645:7655  msg.sender */\n      caller\n        /* \"contracts/SyCrowBarter.sol\":7669:7677  inAmount */\n      dup8\n        /* \"contracts/SyCrowBarter.sol\":7691:7700  outAmount */\n      dup8\n        /* \"contracts/SyCrowBarter.sol\":7573:7710  sycrFactory.notifyTradeByBarter(... */\n      mload(0x40)\n      dup6\n      0xffffffff\n      and\n      0xe0\n      shl\n      dup2\n      mstore\n      0x04\n      add\n      tag_447\n      swap5\n      swap4\n      swap3\n      swap2\n      swap1\n      tag_223\n      jump\t// in\n    tag_447:\n      0x00\n      mload(0x40)\n      dup1\n      dup4\n      sub\n      dup2\n      0x00\n      dup8\n      dup1\n      extcodesize\n      iszero\n      dup1\n      iszero\n      tag_448\n      jumpi\n      0x00\n      dup1\n      revert\n    tag_448:\n      pop\n      gas\n      call\n      iszero\n      dup1\n      iszero\n      tag_450\n      jumpi\n      returndatasize\n      0x00\n      dup1\n      returndatacopy\n      revert(0x00, returndatasize)\n    tag_450:\n      pop\n      pop\n      pop\n      pop\n        /* \"contracts/SyCrowBarter.sol\":6763:7717  {... */\n      pop\n      pop\n      pop\n        /* \"contracts/SyCrowBarter.sol\":6709:7717  function _tradeTokenForEth(uint256 inAmount) internal {... */\n      pop\n      jump\t// out\n        /* \"contracts/SyCrowBarter.sol\":5663:6703  function _tradeTokenForToken(uint256 inAmount) internal {... */\n    tag_168:\n        /* \"contracts/SyCrowBarter.sol\":5805:5813  inAmount */\n      dup1\n        /* \"contracts/SyCrowBarter.sol\":5757:5778  _expectedTokenAddress */\n      0x05\n      0x00\n      swap1\n      sload\n      swap1\n      0x0100\n      exp\n      swap1\n      div\n      0xffffffffffffffffffffffffffffffffffffffff\n      and\n        /* \"contracts/SyCrowBarter.sol\":5750:5789  IERC20(_expectedTokenAddress).balanceOf */\n      0xffffffffffffffffffffffffffffffffffffffff\n      and\n      0x70a08231\n        /* \"contracts/SyCrowBarter.sol\":5790:5800  msg.sender */\n      caller\n        /* \"contracts/SyCrowBarter.sol\":5750:5801  IERC20(_expectedTokenAddress).balanceOf(msg.sender) */\n      mload(0x40)\n      dup3\n      0xffffffff\n      and\n      0xe0\n      shl\n      dup2\n      mstore\n      0x04\n      add\n      tag_452\n      swap2\n      swap1\n      tag_78\n      jump\t// in\n    tag_452:\n      0x20\n      mload(0x40)\n      dup1\n      dup4\n      sub\n      dup2\n      dup7\n      gas\n      staticcall\n      iszero\n      dup1\n      iszero\n      tag_454\n      jumpi\n      returndatasize\n      0x00\n      dup1\n      returndatacopy\n      revert(0x00, returndatasize)\n    tag_454:\n      pop\n      pop\n      pop\n      pop\n      mload(0x40)\n      returndatasize\n      not(0x1f)\n      0x1f\n      dup3\n      add\n      and\n      dup3\n      add\n      dup1\n      0x40\n      mstore\n      pop\n      dup2\n      add\n      swap1\n      tag_455\n      swap2\n      swap1\n      tag_189\n      jump\t// in\n    tag_455:\n        /* \"contracts/SyCrowBarter.sol\":5750:5813  IERC20(_expectedTokenAddress).balanceOf(msg.sender) >= inAmount */\n      lt\n      iszero\n        /* \"contracts/SyCrowBarter.sol\":5729:5873  require(... */\n      tag_456\n      jumpi\n      mload(0x40)\n      0x08c379a000000000000000000000000000000000000000000000000000000000\n      dup2\n      mstore\n      0x04\n      add\n      tag_457\n      swap1\n      tag_430\n      jump\t// in\n    tag_457:\n      mload(0x40)\n      dup1\n      swap2\n      sub\n      swap1\n      revert\n    tag_456:\n        /* \"contracts/SyCrowBarter.sol\":5884:5901  uint256 outAmount */\n      0x00\n        /* \"contracts/SyCrowBarter.sol\":5904:5931  getTradeOutAmount(inAmount) */\n      tag_458\n        /* \"contracts/SyCrowBarter.sol\":5922:5930  inAmount */\n      dup3\n        /* \"contracts/SyCrowBarter.sol\":5904:5921  getTradeOutAmount */\n      tag_99\n        /* \"contracts/SyCrowBarter.sol\":5904:5931  getTradeOutAmount(inAmount) */\n      jump\t// in\n    tag_458:\n        /* \"contracts/SyCrowBarter.sol\":5884:5931  uint256 outAmount = getTradeOutAmount(inAmount) */\n      swap1\n      pop\n        /* \"contracts/SyCrowBarter.sol\":6038:6047  outAmount */\n      dup1\n        /* \"contracts/SyCrowBarter.sol\":5970:5992  _depositedTokenAddress */\n      0x04\n      0x01\n      swap1\n      sload\n      swap1\n      0x0100\n      exp\n      swap1\n      div\n      0xffffffffffffffffffffffffffffffffffffffff\n      and\n        /* \"contracts/SyCrowBarter.sol\":5963:6003  IERC20(_depositedTokenAddress).balanceOf */\n      0xffffffffffffffffffffffffffffffffffffffff\n      and\n      0x70a08231\n        /* \"contracts/SyCrowBarter.sol\":6012:6016  this */\n      address\n        /* \"contracts/SyCrowBarter.sol\":5963:6018  IERC20(_depositedTokenAddress).balanceOf(address(this)) */\n      mload(0x40)\n      dup3\n      0xffffffff\n      and\n      0xe0\n      shl\n      dup2\n      mstore\n      0x04\n      add\n      tag_459\n      swap2\n      swap1\n      tag_78\n      jump\t// in\n    tag_459:\n      0x20\n      mload(0x40)\n      dup1\n      dup4\n      sub\n      dup2\n      dup7\n      gas\n      staticcall\n      iszero\n      dup1\n      iszero\n      tag_461\n      jumpi\n      returndatasize\n      0x00\n      dup1\n      returndatacopy\n      revert(0x00, returndatasize)\n    tag_461:\n      pop\n      pop\n      pop\n      pop\n      mload(0x40)\n      returndatasize\n      not(0x1f)\n      0x1f\n      dup3\n      add\n      and\n      dup3\n      add\n      dup1\n      0x40\n      mstore\n      pop\n      dup2\n      add\n      swap1\n      tag_462\n      swap2\n      swap1\n      tag_189\n      jump\t// in\n    tag_462:\n        /* \"contracts/SyCrowBarter.sol\":5963:6047  IERC20(_depositedTokenAddress).balanceOf(address(this)) >=... */\n      lt\n      iszero\n        /* \"contracts/SyCrowBarter.sol\":5942:6116  require(... */\n      tag_463\n      jumpi\n      mload(0x40)\n      0x08c379a000000000000000000000000000000000000000000000000000000000\n      dup2\n      mstore\n      0x04\n      add\n      tag_464\n      swap1\n      tag_438\n      jump\t// in\n    tag_464:\n      mload(0x40)\n      dup1\n      swap2\n      sub\n      swap1\n      revert\n    tag_463:\n        /* \"contracts/SyCrowBarter.sol\":6127:6276  TransferHelper.safeTransferFrom(... */\n      tag_465\n        /* \"contracts/SyCrowBarter.sol\":6172:6193  _expectedTokenAddress */\n      0x05\n      0x00\n      swap1\n      sload\n      swap1\n      0x0100\n      exp\n      swap1\n      div\n      0xffffffffffffffffffffffffffffffffffffffff\n      and\n        /* \"contracts/SyCrowBarter.sol\":6207:6217  msg.sender */\n      caller\n        /* \"contracts/SyCrowBarter.sol\":6239:6243  this */\n      address\n        /* \"contracts/SyCrowBarter.sol\":6258:6266  inAmount */\n      dup6\n        /* \"contracts/SyCrowBarter.sol\":6127:6158  TransferHelper.safeTransferFrom */\n      tag_444\n        /* \"contracts/SyCrowBarter.sol\":6127:6276  TransferHelper.safeTransferFrom(... */\n      jump\t// in\n    tag_465:\n        /* \"contracts/SyCrowBarter.sol\":6286:6406  TransferHelper.safeTransfer(... */\n      tag_466\n        /* \"contracts/SyCrowBarter.sol\":6327:6349  _depositedTokenAddress */\n      0x04\n      0x01\n      swap1\n      sload\n      swap1\n      0x0100\n      exp\n      swap1\n      div\n      0xffffffffffffffffffffffffffffffffffffffff\n      and\n        /* \"contracts/SyCrowBarter.sol\":6363:6373  msg.sender */\n      caller\n        /* \"contracts/SyCrowBarter.sol\":6387:6396  outAmount */\n      dup4\n        /* \"contracts/SyCrowBarter.sol\":6286:6313  TransferHelper.safeTransfer */\n      tag_203\n        /* \"contracts/SyCrowBarter.sol\":6286:6406  TransferHelper.safeTransfer(... */\n      jump\t// in\n    tag_466:\n        /* \"contracts/SyCrowBarter.sol\":6417:6424  _trades */\n      0x09\n        /* \"contracts/SyCrowBarter.sol\":6430:6473  BaterTrade(msg.sender, inAmount, outAmount) */\n      mload(0x40)\n      dup1\n      0x60\n      add\n      0x40\n      mstore\n      dup1\n        /* \"contracts/SyCrowBarter.sol\":6441:6451  msg.sender */\n      caller\n        /* \"contracts/SyCrowBarter.sol\":6430:6473  BaterTrade(msg.sender, inAmount, outAmount) */\n      0xffffffffffffffffffffffffffffffffffffffff\n      and\n      dup2\n      mstore\n      0x20\n      add\n        /* \"contracts/SyCrowBarter.sol\":6453:6461  inAmount */\n      dup5\n        /* \"contracts/SyCrowBarter.sol\":6430:6473  BaterTrade(msg.sender, inAmount, outAmount) */\n      dup2\n      mstore\n      0x20\n      add\n        /* \"contracts/SyCrowBarter.sol\":6463:6472  outAmount */\n      dup4\n        /* \"contracts/SyCrowBarter.sol\":6430:6473  BaterTrade(msg.sender, inAmount, outAmount) */\n      dup2\n      mstore\n      pop\n        /* \"contracts/SyCrowBarter.sol\":6417:6474  _trades.push(BaterTrade(msg.sender, inAmount, outAmount)) */\n      swap1\n      dup1\n      0x01\n      dup2\n      sload\n      add\n      dup1\n      dup3\n      sstore\n      dup1\n      swap2\n      pop\n      pop\n      0x01\n      swap1\n      sub\n      swap1\n      0x00\n      mstore\n      keccak256(0x00, 0x20)\n      swap1\n      0x03\n      mul\n      add\n      0x00\n      swap1\n      swap2\n      swap1\n      swap2\n      swap1\n      swap2\n      pop\n      0x00\n      dup3\n      add\n      mload\n      dup2\n      0x00\n      add\n      exp(0x0100, 0x00)\n      dup2\n      sload\n      dup2\n      0xffffffffffffffffffffffffffffffffffffffff\n      mul\n      not\n      and\n      swap1\n      dup4\n      0xffffffffffffffffffffffffffffffffffffffff\n      and\n      mul\n      or\n      swap1\n      sstore\n      pop\n      0x20\n      dup3\n      add\n      mload\n      dup2\n      0x01\n      add\n      sstore\n      0x40\n      dup3\n      add\n      mload\n      dup2\n      0x02\n      add\n      sstore\n      pop\n      pop\n        /* \"contracts/SyCrowBarter.sol\":6485:6517  ISyCrowBarterFactory sycrFactory */\n      0x00\n        /* \"contracts/SyCrowBarter.sol\":6541:6548  factory */\n      immutable(\"0x26a975632f70533c9512e57b565b8ce8e2befee6b08dfbc27c4a897a20e2c1d6\")\n        /* \"contracts/SyCrowBarter.sol\":6485:6549  ISyCrowBarterFactory sycrFactory = ISyCrowBarterFactory(factory) */\n      swap1\n      pop\n        /* \"contracts/SyCrowBarter.sol\":6559:6570  sycrFactory */\n      dup1\n        /* \"contracts/SyCrowBarter.sol\":6559:6590  sycrFactory.notifyTradeByBarter */\n      0xffffffffffffffffffffffffffffffffffffffff\n      and\n      0xf52701b7\n        /* \"contracts/SyCrowBarter.sol\":6612:6616  this */\n      address\n        /* \"contracts/SyCrowBarter.sol\":6631:6641  msg.sender */\n      caller\n        /* \"contracts/SyCrowBarter.sol\":6655:6663  inAmount */\n      dup7\n        /* \"contracts/SyCrowBarter.sol\":6677:6686  outAmount */\n      dup7\n        /* \"contracts/SyCrowBarter.sol\":6559:6696  sycrFactory.notifyTradeByBarter(... */\n      mload(0x40)\n      dup6\n      0xffffffff\n      and\n      0xe0\n      shl\n      dup2\n      mstore\n      0x04\n      add\n      tag_468\n      swap5\n      swap4\n      swap3\n      swap2\n      swap1\n      tag_223\n      jump\t// in\n    tag_468:\n      0x00\n      mload(0x40)\n      dup1\n      dup4\n      sub\n      dup2\n      0x00\n      dup8\n      dup1\n      extcodesize\n      iszero\n      dup1\n      iszero\n      tag_469\n      jumpi\n      0x00\n      dup1\n      revert\n    tag_469:\n      pop\n      gas\n      call\n      iszero\n      dup1\n      iszero\n      tag_471\n      jumpi\n      returndatasize\n      0x00\n      dup1\n      returndatacopy\n      revert(0x00, returndatasize)\n    tag_471:\n      pop\n      pop\n      pop\n      pop\n        /* \"contracts/SyCrowBarter.sol\":5719:6703  {... */\n      pop\n      pop\n        /* \"contracts/SyCrowBarter.sol\":5663:6703  function _tradeTokenForToken(uint256 inAmount) internal {... */\n      pop\n      jump\t// out\n        /* \"@openzeppelin/contracts/utils/Context.sol\":640:736  function _msgSender() internal view virtual returns (address) {... */\n    tag_179:\n        /* \"@openzeppelin/contracts/utils/Context.sol\":693:700  address */\n      0x00\n        /* \"@openzeppelin/contracts/utils/Context.sol\":719:729  msg.sender */\n      caller\n        /* \"@openzeppelin/contracts/utils/Context.sol\":712:729  return msg.sender */\n      swap1\n      pop\n        /* \"@openzeppelin/contracts/utils/Context.sol\":640:736  function _msgSender() internal view virtual returns (address) {... */\n      swap1\n      jump\t// out\n        /* \"contracts/libraries/TransferHelper.sol\":1333:1525  function safeTransferETH(address to, uint value) internal {... */\n    tag_196:\n        /* \"contracts/libraries/TransferHelper.sol\":1402:1414  bool success */\n      0x00\n        /* \"contracts/libraries/TransferHelper.sol\":1419:1421  to */\n      dup3\n        /* \"contracts/libraries/TransferHelper.sol\":1419:1426  to.call */\n      0xffffffffffffffffffffffffffffffffffffffff\n      and\n        /* \"contracts/libraries/TransferHelper.sol\":1433:1438  value */\n      dup3\n        /* \"contracts/libraries/TransferHelper.sol\":1450:1451  0 */\n      0x00\n        /* \"contracts/libraries/TransferHelper.sol\":1440:1452  new bytes(0) */\n      0xffffffffffffffff\n      dup2\n      gt\n      iszero\n      tag_474\n      jumpi\n      tag_475\n      tag_384\n      jump\t// in\n    tag_475:\n    tag_474:\n      mload(0x40)\n      swap1\n      dup1\n      dup3\n      mstore\n      dup1\n      0x1f\n      add\n      not(0x1f)\n      and\n      0x20\n      add\n      dup3\n      add\n      0x40\n      mstore\n      dup1\n      iszero\n      tag_476\n      jumpi\n      dup2\n      0x20\n      add\n      0x01\n      dup3\n      mul\n      dup1\n      calldatasize\n      dup4\n      calldatacopy\n      dup1\n      dup3\n      add\n      swap2\n      pop\n      pop\n      swap1\n      pop\n    tag_476:\n      pop\n        /* \"contracts/libraries/TransferHelper.sol\":1419:1453  to.call{value:value}(new bytes(0)) */\n      mload(0x40)\n      tag_477\n      swap2\n      swap1\n      tag_478\n      jump\t// in\n    tag_477:\n      0x00\n      mload(0x40)\n      dup1\n      dup4\n      sub\n      dup2\n      dup6\n      dup8\n      gas\n      call\n      swap3\n      pop\n      pop\n      pop\n      returndatasize\n      dup1\n      0x00\n      dup2\n      eq\n      tag_481\n      jumpi\n      mload(0x40)\n      swap2\n      pop\n      and(add(returndatasize, 0x3f), not(0x1f))\n      dup3\n      add\n      0x40\n      mstore\n      returndatasize\n      dup3\n      mstore\n      returndatasize\n      0x00\n      0x20\n      dup5\n      add\n      returndatacopy\n      jump(tag_480)\n    tag_481:\n      0x60\n      swap2\n      pop\n    tag_480:\n      pop\n        /* \"contracts/libraries/TransferHelper.sol\":1401:1453  (bool success,) = to.call{value:value}(new bytes(0)) */\n      pop\n      swap1\n      pop\n        /* \"contracts/libraries/TransferHelper.sol\":1471:1478  success */\n      dup1\n        /* \"contracts/libraries/TransferHelper.sol\":1463:1518  require(success, 'TransferHelper: ETH_TRANSFER_FAILED') */\n      tag_482\n      jumpi\n      mload(0x40)\n      0x08c379a000000000000000000000000000000000000000000000000000000000\n      dup2\n      mstore\n      0x04\n      add\n      tag_483\n      swap1\n      tag_484\n      jump\t// in\n    tag_483:\n      mload(0x40)\n      dup1\n      swap2\n      sub\n      swap1\n      revert\n    tag_482:\n        /* \"contracts/libraries/TransferHelper.sol\":1391:1525  {... */\n      pop\n        /* \"contracts/libraries/TransferHelper.sol\":1333:1525  function safeTransferETH(address to, uint value) internal {... */\n      pop\n      pop\n      jump\t// out\n        /* \"contracts/libraries/TransferHelper.sol\":566:923  function safeTransfer(address token, address to, uint value) internal {... */\n    tag_203:\n        /* \"contracts/libraries/TransferHelper.sol\":713:725  bool success */\n      0x00\n        /* \"contracts/libraries/TransferHelper.sol\":727:744  bytes memory data */\n      dup1\n        /* \"contracts/libraries/TransferHelper.sol\":748:753  token */\n      dup5\n        /* \"contracts/libraries/TransferHelper.sol\":748:758  token.call */\n      0xffffffffffffffffffffffffffffffffffffffff\n      and\n        /* \"contracts/libraries/TransferHelper.sol\":782:792  0xa9059cbb */\n      0xa9059cbb\n        /* \"contracts/libraries/TransferHelper.sol\":794:796  to */\n      dup6\n        /* \"contracts/libraries/TransferHelper.sol\":798:803  value */\n      dup6\n        /* \"contracts/libraries/TransferHelper.sol\":759:804  abi.encodeWithSelector(0xa9059cbb, to, value) */\n      add(0x24, mload(0x40))\n      tag_486\n      swap3\n      swap2\n      swap1\n      tag_487\n      jump\t// in\n    tag_486:\n      mload(0x40)\n      0x20\n      dup2\n      dup4\n      sub\n      sub\n      dup2\n      mstore\n      swap1\n      0x40\n      mstore\n      swap1\n      0xe0\n      shl\n      0x20\n      dup3\n      add\n      dup1\n      mload\n      0xffffffffffffffffffffffffffffffffffffffffffffffffffffffff\n      dup4\n      dup2\n      dup4\n      and\n      or\n      dup4\n      mstore\n      pop\n      pop\n      pop\n      pop\n        /* \"contracts/libraries/TransferHelper.sol\":748:805  token.call(abi.encodeWithSelector(0xa9059cbb, to, value)) */\n      mload(0x40)\n      tag_488\n      swap2\n      swap1\n      tag_478\n      jump\t// in\n    tag_488:\n      0x00\n      mload(0x40)\n      dup1\n      dup4\n      sub\n      dup2\n      0x00\n      dup7\n      gas\n      call\n      swap2\n      pop\n      pop\n      returndatasize\n      dup1\n      0x00\n      dup2\n      eq\n      tag_491\n      jumpi\n      mload(0x40)\n      swap2\n      pop\n      and(add(returndatasize, 0x3f), not(0x1f))\n      dup3\n      add\n      0x40\n      mstore\n      returndatasize\n      dup3\n      mstore\n      returndatasize\n      0x00\n      0x20\n      dup5\n      add\n      returndatacopy\n      jump(tag_490)\n    tag_491:\n      0x60\n      swap2\n      pop\n    tag_490:\n      pop\n        /* \"contracts/libraries/TransferHelper.sol\":712:805  (bool success, bytes memory data) = token.call(abi.encodeWithSelector(0xa9059cbb, to, value)) */\n      swap2\n      pop\n      swap2\n      pop\n        /* \"contracts/libraries/TransferHelper.sol\":823:830  success */\n      dup2\n        /* \"contracts/libraries/TransferHelper.sol\":823:880  success && (data.length == 0 || abi.decode(data, (bool))) */\n      dup1\n      iszero\n      tag_492\n      jumpi\n      pop\n        /* \"contracts/libraries/TransferHelper.sol\":850:851  0 */\n      0x00\n        /* \"contracts/libraries/TransferHelper.sol\":835:839  data */\n      dup2\n        /* \"contracts/libraries/TransferHelper.sol\":835:846  data.length */\n      mload\n        /* \"contracts/libraries/TransferHelper.sol\":835:851  data.length == 0 */\n      eq\n        /* \"contracts/libraries/TransferHelper.sol\":835:879  data.length == 0 || abi.decode(data, (bool)) */\n      dup1\n      tag_493\n      jumpi\n      pop\n        /* \"contracts/libraries/TransferHelper.sol\":866:870  data */\n      dup1\n        /* \"contracts/libraries/TransferHelper.sol\":855:879  abi.decode(data, (bool)) */\n      dup1\n      0x20\n      add\n      swap1\n      mload\n      dup2\n      add\n      swap1\n      tag_494\n      swap2\n      swap1\n      tag_123\n      jump\t// in\n    tag_494:\n        /* \"contracts/libraries/TransferHelper.sol\":835:879  data.length == 0 || abi.decode(data, (bool)) */\n    tag_493:\n        /* \"contracts/libraries/TransferHelper.sol\":823:880  success && (data.length == 0 || abi.decode(data, (bool))) */\n    tag_492:\n        /* \"contracts/libraries/TransferHelper.sol\":815:916  require(success && (data.length == 0 || abi.decode(data, (bool))), 'TransferHelper: TRANSFER_FAILED') */\n      tag_495\n      jumpi\n      mload(0x40)\n      0x08c379a000000000000000000000000000000000000000000000000000000000\n      dup2\n      mstore\n      0x04\n      add\n      tag_496\n      swap1\n      tag_497\n      jump\t// in\n    tag_496:\n      mload(0x40)\n      dup1\n      swap2\n      sub\n      swap1\n      revert\n    tag_495:\n        /* \"contracts/libraries/TransferHelper.sol\":636:923  {... */\n      pop\n      pop\n        /* \"contracts/libraries/TransferHelper.sol\":566:923  function safeTransfer(address token, address to, uint value) internal {... */\n      pop\n      pop\n      pop\n      jump\t// out\n        /* \"contracts/SyCrowBarter.sol\":7723:8578  function _tradeEthForToken(uint256 inAmount) internal {... */\n    tag_256:\n        /* \"contracts/SyCrowBarter.sol\":7807:7816  msg.value */\n      callvalue\n        /* \"contracts/SyCrowBarter.sol\":7795:7803  inAmount */\n      dup2\n        /* \"contracts/SyCrowBarter.sol\":7795:7816  inAmount == msg.value */\n      eq\n        /* \"contracts/SyCrowBarter.sol\":7787:7858  require(inAmount == msg.value, \"SyCrowBarter: MULTI_TRADE_NOT_ENABLED\") */\n      tag_499\n      jumpi\n      mload(0x40)\n      0x08c379a000000000000000000000000000000000000000000000000000000000\n      dup2\n      mstore\n      0x04\n      add\n      tag_500\n      swap1\n      tag_130\n      jump\t// in\n    tag_500:\n      mload(0x40)\n      dup1\n      swap2\n      sub\n      swap1\n      revert\n    tag_499:\n        /* \"contracts/SyCrowBarter.sol\":7869:7886  uint256 outAmount */\n      0x00\n        /* \"contracts/SyCrowBarter.sol\":7889:7916  getTradeOutAmount(inAmount) */\n      tag_501\n        /* \"contracts/SyCrowBarter.sol\":7907:7915  inAmount */\n      dup3\n        /* \"contracts/SyCrowBarter.sol\":7889:7906  getTradeOutAmount */\n      tag_99\n        /* \"contracts/SyCrowBarter.sol\":7889:7916  getTradeOutAmount(inAmount) */\n      jump\t// in\n    tag_501:\n        /* \"contracts/SyCrowBarter.sol\":7869:7916  uint256 outAmount = getTradeOutAmount(inAmount) */\n      swap1\n      pop\n        /* \"contracts/SyCrowBarter.sol\":8023:8032  outAmount */\n      dup1\n        /* \"contracts/SyCrowBarter.sol\":7955:7977  _depositedTokenAddress */\n      0x04\n      0x01\n      swap1\n      sload\n      swap1\n      0x0100\n      exp\n      swap1\n      div\n      0xffffffffffffffffffffffffffffffffffffffff\n      and\n        /* \"contracts/SyCrowBarter.sol\":7948:7988  IERC20(_depositedTokenAddress).balanceOf */\n      0xffffffffffffffffffffffffffffffffffffffff\n      and\n      0x70a08231\n        /* \"contracts/SyCrowBarter.sol\":7997:8001  this */\n      address\n        /* \"contracts/SyCrowBarter.sol\":7948:8003  IERC20(_depositedTokenAddress).balanceOf(address(this)) */\n      mload(0x40)\n      dup3\n      0xffffffff\n      and\n      0xe0\n      shl\n      dup2\n      mstore\n      0x04\n      add\n      tag_502\n      swap2\n      swap1\n      tag_78\n      jump\t// in\n    tag_502:\n      0x20\n      mload(0x40)\n      dup1\n      dup4\n      sub\n      dup2\n      dup7\n      gas\n      staticcall\n      iszero\n      dup1\n      iszero\n      tag_504\n      jumpi\n      returndatasize\n      0x00\n      dup1\n      returndatacopy\n      revert(0x00, returndatasize)\n    tag_504:\n      pop\n      pop\n      pop\n      pop\n      mload(0x40)\n      returndatasize\n      not(0x1f)\n      0x1f\n      dup3\n      add\n      and\n      dup3\n      add\n      dup1\n      0x40\n      mstore\n      pop\n      dup2\n      add\n      swap1\n      tag_505\n      swap2\n      swap1\n      tag_189\n      jump\t// in\n    tag_505:\n        /* \"contracts/SyCrowBarter.sol\":7948:8032  IERC20(_depositedTokenAddress).balanceOf(address(this)) >=... */\n      lt\n      iszero\n        /* \"contracts/SyCrowBarter.sol\":7927:8101  require(... */\n      tag_506\n      jumpi\n      mload(0x40)\n      0x08c379a000000000000000000000000000000000000000000000000000000000\n      dup2\n      mstore\n      0x04\n      add\n      tag_507\n      swap1\n      tag_438\n      jump\t// in\n    tag_507:\n      mload(0x40)\n      dup1\n      swap2\n      sub\n      swap1\n      revert\n    tag_506:\n        /* \"contracts/SyCrowBarter.sol\":8118:8122  WETH */\n      0x02\n      0x01\n      swap1\n      sload\n      swap1\n      0x0100\n      exp\n      swap1\n      div\n      0xffffffffffffffffffffffffffffffffffffffff\n      and\n        /* \"contracts/SyCrowBarter.sol\":8112:8131  IWETH(WETH).deposit */\n      0xffffffffffffffffffffffffffffffffffffffff\n      and\n      0xd0e30db0\n        /* \"contracts/SyCrowBarter.sol\":8139:8147  inAmount */\n      dup4\n        /* \"contracts/SyCrowBarter.sol\":8112:8150  IWETH(WETH).deposit{value: inAmount}() */\n      mload(0x40)\n      dup3\n      0xffffffff\n      and\n      0xe0\n      shl\n      dup2\n      mstore\n      0x04\n      add\n      0x00\n      mload(0x40)\n      dup1\n      dup4\n      sub\n      dup2\n      dup6\n      dup9\n      dup1\n      extcodesize\n      iszero\n      dup1\n      iszero\n      tag_508\n      jumpi\n      0x00\n      dup1\n      revert\n    tag_508:\n      pop\n      gas\n      call\n      iszero\n      dup1\n      iszero\n      tag_510\n      jumpi\n      returndatasize\n      0x00\n      dup1\n      returndatacopy\n      revert(0x00, returndatasize)\n    tag_510:\n      pop\n      pop\n      pop\n      pop\n      pop\n        /* \"contracts/SyCrowBarter.sol\":8161:8281  TransferHelper.safeTransfer(... */\n      tag_511\n        /* \"contracts/SyCrowBarter.sol\":8202:8224  _depositedTokenAddress */\n      0x04\n      0x01\n      swap1\n      sload\n      swap1\n      0x0100\n      exp\n      swap1\n      div\n      0xffffffffffffffffffffffffffffffffffffffff\n      and\n        /* \"contracts/SyCrowBarter.sol\":8238:8248  msg.sender */\n      caller\n        /* \"contracts/SyCrowBarter.sol\":8262:8271  outAmount */\n      dup4\n        /* \"contracts/SyCrowBarter.sol\":8161:8188  TransferHelper.safeTransfer */\n      tag_203\n        /* \"contracts/SyCrowBarter.sol\":8161:8281  TransferHelper.safeTransfer(... */\n      jump\t// in\n    tag_511:\n        /* \"contracts/SyCrowBarter.sol\":8292:8299  _trades */\n      0x09\n        /* \"contracts/SyCrowBarter.sol\":8305:8348  BaterTrade(msg.sender, inAmount, outAmount) */\n      mload(0x40)\n      dup1\n      0x60\n      add\n      0x40\n      mstore\n      dup1\n        /* \"contracts/SyCrowBarter.sol\":8316:8326  msg.sender */\n      caller\n        /* \"contracts/SyCrowBarter.sol\":8305:8348  BaterTrade(msg.sender, inAmount, outAmount) */\n      0xffffffffffffffffffffffffffffffffffffffff\n      and\n      dup2\n      mstore\n      0x20\n      add\n        /* \"contracts/SyCrowBarter.sol\":8328:8336  inAmount */\n      dup5\n        /* \"contracts/SyCrowBarter.sol\":8305:8348  BaterTrade(msg.sender, inAmount, outAmount) */\n      dup2\n      mstore\n      0x20\n      add\n        /* \"contracts/SyCrowBarter.sol\":8338:8347  outAmount */\n      dup4\n        /* \"contracts/SyCrowBarter.sol\":8305:8348  BaterTrade(msg.sender, inAmount, outAmount) */\n      dup2\n      mstore\n      pop\n        /* \"contracts/SyCrowBarter.sol\":8292:8349  _trades.push(BaterTrade(msg.sender, inAmount, outAmount)) */\n      swap1\n      dup1\n      0x01\n      dup2\n      sload\n      add\n      dup1\n      dup3\n      sstore\n      dup1\n      swap2\n      pop\n      pop\n      0x01\n      swap1\n      sub\n      swap1\n      0x00\n      mstore\n      keccak256(0x00, 0x20)\n      swap1\n      0x03\n      mul\n      add\n      0x00\n      swap1\n      swap2\n      swap1\n      swap2\n      swap1\n      swap2\n      pop\n      0x00\n      dup3\n      add\n      mload\n      dup2\n      0x00\n      add\n      exp(0x0100, 0x00)\n      dup2\n      sload\n      dup2\n      0xffffffffffffffffffffffffffffffffffffffff\n      mul\n      not\n      and\n      swap1\n      dup4\n      0xffffffffffffffffffffffffffffffffffffffff\n      and\n      mul\n      or\n      swap1\n      sstore\n      pop\n      0x20\n      dup3\n      add\n      mload\n      dup2\n      0x01\n      add\n      sstore\n      0x40\n      dup3\n      add\n      mload\n      dup2\n      0x02\n      add\n      sstore\n      pop\n      pop\n        /* \"contracts/SyCrowBarter.sol\":8360:8392  ISyCrowBarterFactory sycrFactory */\n      0x00\n        /* \"contracts/SyCrowBarter.sol\":8416:8423  factory */\n      immutable(\"0x26a975632f70533c9512e57b565b8ce8e2befee6b08dfbc27c4a897a20e2c1d6\")\n        /* \"contracts/SyCrowBarter.sol\":8360:8424  ISyCrowBarterFactory sycrFactory = ISyCrowBarterFactory(factory) */\n      swap1\n      pop\n        /* \"contracts/SyCrowBarter.sol\":8434:8445  sycrFactory */\n      dup1\n        /* \"contracts/SyCrowBarter.sol\":8434:8465  sycrFactory.notifyTradeByBarter */\n      0xffffffffffffffffffffffffffffffffffffffff\n      and\n      0xf52701b7\n        /* \"contracts/SyCrowBarter.sol\":8487:8491  this */\n      address\n        /* \"contracts/SyCrowBarter.sol\":8506:8516  msg.sender */\n      caller\n        /* \"contracts/SyCrowBarter.sol\":8530:8538  inAmount */\n      dup7\n        /* \"contracts/SyCrowBarter.sol\":8552:8561  outAmount */\n      dup7\n        /* \"contracts/SyCrowBarter.sol\":8434:8571  sycrFactory.notifyTradeByBarter(... */\n      mload(0x40)\n      dup6\n      0xffffffff\n      and\n      0xe0\n      shl\n      dup2\n      mstore\n      0x04\n      add\n      tag_513\n      swap5\n      swap4\n      swap3\n      swap2\n      swap1\n      tag_223\n      jump\t// in\n    tag_513:\n      0x00\n      mload(0x40)\n      dup1\n      dup4\n      sub\n      dup2\n      0x00\n      dup8\n      dup1\n      extcodesize\n      iszero\n      dup1\n      iszero\n      tag_514\n      jumpi\n      0x00\n      dup1\n      revert\n    tag_514:\n      pop\n      gas\n      call\n      iszero\n      dup1\n      iszero\n      tag_516\n      jumpi\n      returndatasize\n      0x00\n      dup1\n      returndatacopy\n      revert(0x00, returndatasize)\n    tag_516:\n      pop\n      pop\n      pop\n      pop\n        /* \"contracts/SyCrowBarter.sol\":7777:8578  {... */\n      pop\n      pop\n        /* \"contracts/SyCrowBarter.sol\":7723:8578  function _tradeEthForToken(uint256 inAmount) internal {... */\n      pop\n      jump\t// out\n        /* \"@openzeppelin/contracts/access/Ownable.sol\":2270:2457  function _transferOwnership(address newOwner) internal virtual {... */\n    tag_301:\n        /* \"@openzeppelin/contracts/access/Ownable.sol\":2343:2359  address oldOwner */\n      0x00\n        /* \"@openzeppelin/contracts/access/Ownable.sol\":2362:2368  _owner */\n      dup1\n      0x00\n      swap1\n      sload\n      swap1\n      0x0100\n      exp\n      swap1\n      div\n      0xffffffffffffffffffffffffffffffffffffffff\n      and\n        /* \"@openzeppelin/contracts/access/Ownable.sol\":2343:2368  address oldOwner = _owner */\n      swap1\n      pop\n        /* \"@openzeppelin/contracts/access/Ownable.sol\":2387:2395  newOwner */\n      dup2\n        /* \"@openzeppelin/contracts/access/Ownable.sol\":2378:2384  _owner */\n      0x00\n      dup1\n        /* \"@openzeppelin/contracts/access/Ownable.sol\":2378:2395  _owner = newOwner */\n      0x0100\n      exp\n      dup2\n      sload\n      dup2\n      0xffffffffffffffffffffffffffffffffffffffff\n      mul\n      not\n      and\n      swap1\n      dup4\n      0xffffffffffffffffffffffffffffffffffffffff\n      and\n      mul\n      or\n      swap1\n      sstore\n      pop\n        /* \"@openzeppelin/contracts/access/Ownable.sol\":2441:2449  newOwner */\n      dup2\n        /* \"@openzeppelin/contracts/access/Ownable.sol\":2410:2450  OwnershipTransferred(oldOwner, newOwner) */\n      0xffffffffffffffffffffffffffffffffffffffff\n      and\n        /* \"@openzeppelin/contracts/access/Ownable.sol\":2431:2439  oldOwner */\n      dup2\n        /* \"@openzeppelin/contracts/access/Ownable.sol\":2410:2450  OwnershipTransferred(oldOwner, newOwner) */\n      0xffffffffffffffffffffffffffffffffffffffff\n      and\n      0x8be0079c531659141344cd1fd0a4f28419497f9722a3daafe3b4186f6b6457e0\n      mload(0x40)\n      mload(0x40)\n      dup1\n      swap2\n      sub\n      swap1\n      log3\n        /* \"@openzeppelin/contracts/access/Ownable.sol\":2333:2457  {... */\n      pop\n        /* \"@openzeppelin/contracts/access/Ownable.sol\":2270:2457  function _transferOwnership(address newOwner) internal virtual {... */\n      pop\n      jump\t// out\n        /* \"contracts/libraries/TransferHelper.sol\":929:1327  function safeTransferFrom(address token, address from, address to, uint value) internal {... */\n    tag_444:\n        /* \"contracts/libraries/TransferHelper.sol\":1106:1118  bool success */\n      0x00\n        /* \"contracts/libraries/TransferHelper.sol\":1120:1137  bytes memory data */\n      dup1\n        /* \"contracts/libraries/TransferHelper.sol\":1141:1146  token */\n      dup6\n        /* \"contracts/libraries/TransferHelper.sol\":1141:1151  token.call */\n      0xffffffffffffffffffffffffffffffffffffffff\n      and\n        /* \"contracts/libraries/TransferHelper.sol\":1175:1185  0x23b872dd */\n      0x23b872dd\n        /* \"contracts/libraries/TransferHelper.sol\":1187:1191  from */\n      dup7\n        /* \"contracts/libraries/TransferHelper.sol\":1193:1195  to */\n      dup7\n        /* \"contracts/libraries/TransferHelper.sol\":1197:1202  value */\n      dup7\n        /* \"contracts/libraries/TransferHelper.sol\":1152:1203  abi.encodeWithSelector(0x23b872dd, from, to, value) */\n      add(0x24, mload(0x40))\n      tag_519\n      swap4\n      swap3\n      swap2\n      swap1\n      tag_520\n      jump\t// in\n    tag_519:\n      mload(0x40)\n      0x20\n      dup2\n      dup4\n      sub\n      sub\n      dup2\n      mstore\n      swap1\n      0x40\n      mstore\n      swap1\n      0xe0\n      shl\n      0x20\n      dup3\n      add\n      dup1\n      mload\n      0xffffffffffffffffffffffffffffffffffffffffffffffffffffffff\n      dup4\n      dup2\n      dup4\n      and\n      or\n      dup4\n      mstore\n      pop\n      pop\n      pop\n      pop\n        /* \"contracts/libraries/TransferHelper.sol\":1141:1204  token.call(abi.encodeWithSelector(0x23b872dd, from, to, value)) */\n      mload(0x40)\n      tag_521\n      swap2\n      swap1\n      tag_478\n      jump\t// in\n    tag_521:\n      0x00\n      mload(0x40)\n      dup1\n      dup4\n      sub\n      dup2\n      0x00\n      dup7\n      gas\n      call\n      swap2\n      pop\n      pop\n      returndatasize\n      dup1\n      0x00\n      dup2\n      eq\n      tag_524\n      jumpi\n      mload(0x40)\n      swap2\n      pop\n      and(add(returndatasize, 0x3f), not(0x1f))\n      dup3\n      add\n      0x40\n      mstore\n      returndatasize\n      dup3\n      mstore\n      returndatasize\n      0x00\n      0x20\n      dup5\n      add\n      returndatacopy\n      jump(tag_523)\n    tag_524:\n      0x60\n      swap2\n      pop\n    tag_523:\n      pop\n        /* \"contracts/libraries/TransferHelper.sol\":1105:1204  (bool success, bytes memory data) = token.call(abi.encodeWithSelector(0x23b872dd, from, to, value)) */\n      swap2\n      pop\n      swap2\n      pop\n        /* \"contracts/libraries/TransferHelper.sol\":1222:1229  success */\n      dup2\n        /* \"contracts/libraries/TransferHelper.sol\":1222:1279  success && (data.length == 0 || abi.decode(data, (bool))) */\n      dup1\n      iszero\n      tag_525\n      jumpi\n      pop\n        /* \"contracts/libraries/TransferHelper.sol\":1249:1250  0 */\n      0x00\n        /* \"contracts/libraries/TransferHelper.sol\":1234:1238  data */\n      dup2\n        /* \"contracts/libraries/TransferHelper.sol\":1234:1245  data.length */\n      mload\n        /* \"contracts/libraries/TransferHelper.sol\":1234:1250  data.length == 0 */\n      eq\n        /* \"contracts/libraries/TransferHelper.sol\":1234:1278  data.length == 0 || abi.decode(data, (bool)) */\n      dup1\n      tag_526\n      jumpi\n      pop\n        /* \"contracts/libraries/TransferHelper.sol\":1265:1269  data */\n      dup1\n        /* \"contracts/libraries/TransferHelper.sol\":1254:1278  abi.decode(data, (bool)) */\n      dup1\n      0x20\n      add\n      swap1\n      mload\n      dup2\n      add\n      swap1\n      tag_527\n      swap2\n      swap1\n      tag_123\n      jump\t// in\n    tag_527:\n        /* \"contracts/libraries/TransferHelper.sol\":1234:1278  data.length == 0 || abi.decode(data, (bool)) */\n    tag_526:\n        /* \"contracts/libraries/TransferHelper.sol\":1222:1279  success && (data.length == 0 || abi.decode(data, (bool))) */\n    tag_525:\n        /* \"contracts/libraries/TransferHelper.sol\":1214:1320  require(success && (data.length == 0 || abi.decode(data, (bool))), 'TransferHelper: TRANSFER_FROM_FAILED') */\n      tag_528\n      jumpi\n      mload(0x40)\n      0x08c379a000000000000000000000000000000000000000000000000000000000\n      dup2\n      mstore\n      0x04\n      add\n      tag_529\n      swap1\n      tag_530\n      jump\t// in\n    tag_529:\n      mload(0x40)\n      dup1\n      swap2\n      sub\n      swap1\n      revert\n    tag_528:\n        /* \"contracts/libraries/TransferHelper.sol\":1017:1327  {... */\n      pop\n      pop\n        /* \"contracts/libraries/TransferHelper.sol\":929:1327  function safeTransferFrom(address token, address from, address to, uint value) internal {... */\n      pop\n      pop\n      pop\n      pop\n      jump\t// out\n        /* \"#utility.yul\":88:205   */\n    tag_532:\n        /* \"#utility.yul\":197:198   */\n      0x00\n        /* \"#utility.yul\":194:195   */\n      dup1\n        /* \"#utility.yul\":187:199   */\n      revert\n        /* \"#utility.yul\":334:411   */\n    tag_534:\n        /* \"#utility.yul\":371:378   */\n      0x00\n        /* \"#utility.yul\":400:405   */\n      dup2\n        /* \"#utility.yul\":389:405   */\n      swap1\n      pop\n        /* \"#utility.yul\":334:411   */\n      swap2\n      swap1\n      pop\n      jump\t// out\n        /* \"#utility.yul\":417:539   */\n    tag_535:\n        /* \"#utility.yul\":490:514   */\n      tag_616\n        /* \"#utility.yul\":508:513   */\n      dup2\n        /* \"#utility.yul\":490:514   */\n      tag_534\n      jump\t// in\n    tag_616:\n        /* \"#utility.yul\":483:488   */\n      dup2\n        /* \"#utility.yul\":480:515   */\n      eq\n        /* \"#utility.yul\":470:533   */\n      tag_617\n      jumpi\n        /* \"#utility.yul\":529:530   */\n      0x00\n        /* \"#utility.yul\":526:527   */\n      dup1\n        /* \"#utility.yul\":519:531   */\n      revert\n        /* \"#utility.yul\":470:533   */\n    tag_617:\n        /* \"#utility.yul\":417:539   */\n      pop\n      jump\t// out\n        /* \"#utility.yul\":545:684   */\n    tag_536:\n        /* \"#utility.yul\":591:596   */\n      0x00\n        /* \"#utility.yul\":629:635   */\n      dup2\n        /* \"#utility.yul\":616:636   */\n      calldataload\n        /* \"#utility.yul\":607:636   */\n      swap1\n      pop\n        /* \"#utility.yul\":645:678   */\n      tag_619\n        /* \"#utility.yul\":672:677   */\n      dup2\n        /* \"#utility.yul\":645:678   */\n      tag_535\n      jump\t// in\n    tag_619:\n        /* \"#utility.yul\":545:684   */\n      swap3\n      swap2\n      pop\n      pop\n      jump\t// out\n        /* \"#utility.yul\":690:1019   */\n    tag_28:\n        /* \"#utility.yul\":749:755   */\n      0x00\n        /* \"#utility.yul\":798:800   */\n      0x20\n        /* \"#utility.yul\":786:795   */\n      dup3\n        /* \"#utility.yul\":777:784   */\n      dup5\n        /* \"#utility.yul\":773:796   */\n      sub\n        /* \"#utility.yul\":769:801   */\n      slt\n        /* \"#utility.yul\":766:885   */\n      iszero\n      tag_621\n      jumpi\n        /* \"#utility.yul\":804:883   */\n      tag_622\n      tag_532\n      jump\t// in\n    tag_622:\n        /* \"#utility.yul\":766:885   */\n    tag_621:\n        /* \"#utility.yul\":924:925   */\n      0x00\n        /* \"#utility.yul\":949:1002   */\n      tag_623\n        /* \"#utility.yul\":994:1001   */\n      dup5\n        /* \"#utility.yul\":985:991   */\n      dup3\n        /* \"#utility.yul\":974:983   */\n      dup6\n        /* \"#utility.yul\":970:992   */\n      add\n        /* \"#utility.yul\":949:1002   */\n      tag_536\n      jump\t// in\n    tag_623:\n        /* \"#utility.yul\":939:1002   */\n      swap2\n      pop\n        /* \"#utility.yul\":895:1012   */\n      pop\n        /* \"#utility.yul\":690:1019   */\n      swap3\n      swap2\n      pop\n      pop\n      jump\t// out\n        /* \"#utility.yul\":1025:1115   */\n    tag_537:\n        /* \"#utility.yul\":1059:1066   */\n      0x00\n        /* \"#utility.yul\":1102:1107   */\n      dup2\n        /* \"#utility.yul\":1095:1108   */\n      iszero\n        /* \"#utility.yul\":1088:1109   */\n      iszero\n        /* \"#utility.yul\":1077:1109   */\n      swap1\n      pop\n        /* \"#utility.yul\":1025:1115   */\n      swap2\n      swap1\n      pop\n      jump\t// out\n        /* \"#utility.yul\":1121:1230   */\n    tag_538:\n        /* \"#utility.yul\":1202:1223   */\n      tag_626\n        /* \"#utility.yul\":1217:1222   */\n      dup2\n        /* \"#utility.yul\":1202:1223   */\n      tag_537\n      jump\t// in\n    tag_626:\n        /* \"#utility.yul\":1197:1200   */\n      dup3\n        /* \"#utility.yul\":1190:1224   */\n      mstore\n        /* \"#utility.yul\":1121:1230   */\n      pop\n      pop\n      jump\t// out\n        /* \"#utility.yul\":1236:1446   */\n    tag_38:\n        /* \"#utility.yul\":1323:1327   */\n      0x00\n        /* \"#utility.yul\":1361:1363   */\n      0x20\n        /* \"#utility.yul\":1350:1359   */\n      dup3\n        /* \"#utility.yul\":1346:1364   */\n      add\n        /* \"#utility.yul\":1338:1364   */\n      swap1\n      pop\n        /* \"#utility.yul\":1374:1439   */\n      tag_628\n        /* \"#utility.yul\":1436:1437   */\n      0x00\n        /* \"#utility.yul\":1425:1434   */\n      dup4\n        /* \"#utility.yul\":1421:1438   */\n      add\n        /* \"#utility.yul\":1412:1418   */\n      dup5\n        /* \"#utility.yul\":1374:1439   */\n      tag_538\n      jump\t// in\n    tag_628:\n        /* \"#utility.yul\":1236:1446   */\n      swap3\n      swap2\n      pop\n      pop\n      jump\t// out\n        /* \"#utility.yul\":1452:1570   */\n    tag_539:\n        /* \"#utility.yul\":1539:1563   */\n      tag_630\n        /* \"#utility.yul\":1557:1562   */\n      dup2\n        /* \"#utility.yul\":1539:1563   */\n      tag_534\n      jump\t// in\n    tag_630:\n        /* \"#utility.yul\":1534:1537   */\n      dup3\n        /* \"#utility.yul\":1527:1564   */\n      mstore\n        /* \"#utility.yul\":1452:1570   */\n      pop\n      pop\n      jump\t// out\n        /* \"#utility.yul\":1576:1908   */\n    tag_46:\n        /* \"#utility.yul\":1697:1701   */\n      0x00\n        /* \"#utility.yul\":1735:1737   */\n      0x40\n        /* \"#utility.yul\":1724:1733   */\n      dup3\n        /* \"#utility.yul\":1720:1738   */\n      add\n        /* \"#utility.yul\":1712:1738   */\n      swap1\n      pop\n        /* \"#utility.yul\":1748:1819   */\n      tag_632\n        /* \"#utility.yul\":1816:1817   */\n      0x00\n        /* \"#utility.yul\":1805:1814   */\n      dup4\n        /* \"#utility.yul\":1801:1818   */\n      add\n        /* \"#utility.yul\":1792:1798   */\n      dup6\n        /* \"#utility.yul\":1748:1819   */\n      tag_539\n      jump\t// in\n    tag_632:\n        /* \"#utility.yul\":1829:1901   */\n      tag_633\n        /* \"#utility.yul\":1897:1899   */\n      0x20\n        /* \"#utility.yul\":1886:1895   */\n      dup4\n        /* \"#utility.yul\":1882:1900   */\n      add\n        /* \"#utility.yul\":1873:1879   */\n      dup5\n        /* \"#utility.yul\":1829:1901   */\n      tag_539\n      jump\t// in\n    tag_633:\n        /* \"#utility.yul\":1576:1908   */\n      swap4\n      swap3\n      pop\n      pop\n      pop\n      jump\t// out\n        /* \"#utility.yul\":1914:2136   */\n    tag_51:\n        /* \"#utility.yul\":2007:2011   */\n      0x00\n        /* \"#utility.yul\":2045:2047   */\n      0x20\n        /* \"#utility.yul\":2034:2043   */\n      dup3\n        /* \"#utility.yul\":2030:2048   */\n      add\n        /* \"#utility.yul\":2022:2048   */\n      swap1\n      pop\n        /* \"#utility.yul\":2058:2129   */\n      tag_635\n        /* \"#utility.yul\":2126:2127   */\n      0x00\n        /* \"#utility.yul\":2115:2124   */\n      dup4\n        /* \"#utility.yul\":2111:2128   */\n      add\n        /* \"#utility.yul\":2102:2108   */\n      dup5\n        /* \"#utility.yul\":2058:2129   */\n      tag_539\n      jump\t// in\n    tag_635:\n        /* \"#utility.yul\":1914:2136   */\n      swap3\n      swap2\n      pop\n      pop\n      jump\t// out\n        /* \"#utility.yul\":2142:2268   */\n    tag_540:\n        /* \"#utility.yul\":2179:2186   */\n      0x00\n        /* \"#utility.yul\":2219:2261   */\n      0xffffffffffffffffffffffffffffffffffffffff\n        /* \"#utility.yul\":2212:2217   */\n      dup3\n        /* \"#utility.yul\":2208:2262   */\n      and\n        /* \"#utility.yul\":2197:2262   */\n      swap1\n      pop\n        /* \"#utility.yul\":2142:2268   */\n      swap2\n      swap1\n      pop\n      jump\t// out\n        /* \"#utility.yul\":2274:2370   */\n    tag_541:\n        /* \"#utility.yul\":2311:2318   */\n      0x00\n        /* \"#utility.yul\":2340:2364   */\n      tag_638\n        /* \"#utility.yul\":2358:2363   */\n      dup3\n        /* \"#utility.yul\":2340:2364   */\n      tag_540\n      jump\t// in\n    tag_638:\n        /* \"#utility.yul\":2329:2364   */\n      swap1\n      pop\n        /* \"#utility.yul\":2274:2370   */\n      swap2\n      swap1\n      pop\n      jump\t// out\n        /* \"#utility.yul\":2376:2498   */\n    tag_542:\n        /* \"#utility.yul\":2449:2473   */\n      tag_640\n        /* \"#utility.yul\":2467:2472   */\n      dup2\n        /* \"#utility.yul\":2449:2473   */\n      tag_541\n      jump\t// in\n    tag_640:\n        /* \"#utility.yul\":2442:2447   */\n      dup2\n        /* \"#utility.yul\":2439:2474   */\n      eq\n        /* \"#utility.yul\":2429:2492   */\n      tag_641\n      jumpi\n        /* \"#utility.yul\":2488:2489   */\n      0x00\n        /* \"#utility.yul\":2485:2486   */\n      dup1\n        /* \"#utility.yul\":2478:2490   */\n      revert\n        /* \"#utility.yul\":2429:2492   */\n    tag_641:\n        /* \"#utility.yul\":2376:2498   */\n      pop\n      jump\t// out\n        /* \"#utility.yul\":2504:2643   */\n    tag_543:\n        /* \"#utility.yul\":2550:2555   */\n      0x00\n        /* \"#utility.yul\":2588:2594   */\n      dup2\n        /* \"#utility.yul\":2575:2595   */\n      calldataload\n        /* \"#utility.yul\":2566:2595   */\n      swap1\n      pop\n        /* \"#utility.yul\":2604:2637   */\n      tag_643\n        /* \"#utility.yul\":2631:2636   */\n      dup2\n        /* \"#utility.yul\":2604:2637   */\n      tag_542\n      jump\t// in\n    tag_643:\n        /* \"#utility.yul\":2504:2643   */\n      swap3\n      swap2\n      pop\n      pop\n      jump\t// out\n        /* \"#utility.yul\":2649:2978   */\n    tag_58:\n        /* \"#utility.yul\":2708:2714   */\n      0x00\n        /* \"#utility.yul\":2757:2759   */\n      0x20\n        /* \"#utility.yul\":2745:2754   */\n      dup3\n        /* \"#utility.yul\":2736:2743   */\n      dup5\n        /* \"#utility.yul\":2732:2755   */\n      sub\n        /* \"#utility.yul\":2728:2760   */\n      slt\n        /* \"#utility.yul\":2725:2844   */\n      iszero\n      tag_645\n      jumpi\n        /* \"#utility.yul\":2763:2842   */\n      tag_646\n      tag_532\n      jump\t// in\n    tag_646:\n        /* \"#utility.yul\":2725:2844   */\n    tag_645:\n        /* \"#utility.yul\":2883:2884   */\n      0x00\n        /* \"#utility.yul\":2908:2961   */\n      tag_647\n        /* \"#utility.yul\":2953:2960   */\n      dup5\n        /* \"#utility.yul\":2944:2950   */\n      dup3\n        /* \"#utility.yul\":2933:2942   */\n      dup6\n        /* \"#utility.yul\":2929:2951   */\n      add\n        /* \"#utility.yul\":2908:2961   */\n      tag_543\n      jump\t// in\n    tag_647:\n        /* \"#utility.yul\":2898:2961   */\n      swap2\n      pop\n        /* \"#utility.yul\":2854:2971   */\n      pop\n        /* \"#utility.yul\":2649:2978   */\n      swap3\n      swap2\n      pop\n      pop\n      jump\t// out\n        /* \"#utility.yul\":2984:3105   */\n    tag_544:\n        /* \"#utility.yul\":3079:3080   */\n      0x03\n        /* \"#utility.yul\":3072:3077   */\n      dup2\n        /* \"#utility.yul\":3069:3081   */\n      lt\n        /* \"#utility.yul\":3059:3099   */\n      tag_649\n      jumpi\n        /* \"#utility.yul\":3095:3096   */\n      0x00\n        /* \"#utility.yul\":3092:3093   */\n      dup1\n        /* \"#utility.yul\":3085:3097   */\n      revert\n        /* \"#utility.yul\":3059:3099   */\n    tag_649:\n        /* \"#utility.yul\":2984:3105   */\n      pop\n      jump\t// out\n        /* \"#utility.yul\":3111:3294   */\n    tag_545:\n        /* \"#utility.yul\":3179:3184   */\n      0x00\n        /* \"#utility.yul\":3217:3223   */\n      dup2\n        /* \"#utility.yul\":3204:3224   */\n      calldataload\n        /* \"#utility.yul\":3195:3224   */\n      swap1\n      pop\n        /* \"#utility.yul\":3233:3288   */\n      tag_651\n        /* \"#utility.yul\":3282:3287   */\n      dup2\n        /* \"#utility.yul\":3233:3288   */\n      tag_544\n      jump\t// in\n    tag_651:\n        /* \"#utility.yul\":3111:3294   */\n      swap3\n      swap2\n      pop\n      pop\n      jump\t// out\n        /* \"#utility.yul\":3300:3416   */\n    tag_546:\n        /* \"#utility.yul\":3370:3391   */\n      tag_653\n        /* \"#utility.yul\":3385:3390   */\n      dup2\n        /* \"#utility.yul\":3370:3391   */\n      tag_537\n      jump\t// in\n    tag_653:\n        /* \"#utility.yul\":3363:3368   */\n      dup2\n        /* \"#utility.yul\":3360:3392   */\n      eq\n        /* \"#utility.yul\":3350:3410   */\n      tag_654\n      jumpi\n        /* \"#utility.yul\":3406:3407   */\n      0x00\n        /* \"#utility.yul\":3403:3404   */\n      dup1\n        /* \"#utility.yul\":3396:3408   */\n      revert\n        /* \"#utility.yul\":3350:3410   */\n    tag_654:\n        /* \"#utility.yul\":3300:3416   */\n      pop\n      jump\t// out\n        /* \"#utility.yul\":3422:3555   */\n    tag_547:\n        /* \"#utility.yul\":3465:3470   */\n      0x00\n        /* \"#utility.yul\":3503:3509   */\n      dup2\n        /* \"#utility.yul\":3490:3510   */\n      calldataload\n        /* \"#utility.yul\":3481:3510   */\n      swap1\n      pop\n        /* \"#utility.yul\":3519:3549   */\n      tag_656\n        /* \"#utility.yul\":3543:3548   */\n      dup2\n        /* \"#utility.yul\":3519:3549   */\n      tag_546\n      jump\t// in\n    tag_656:\n        /* \"#utility.yul\":3422:3555   */\n      swap3\n      swap2\n      pop\n      pop\n      jump\t// out\n        /* \"#utility.yul\":3561:4948   */\n    tag_63:\n        /* \"#utility.yul\":3702:3708   */\n      0x00\n        /* \"#utility.yul\":3710:3716   */\n      dup1\n        /* \"#utility.yul\":3718:3724   */\n      0x00\n        /* \"#utility.yul\":3726:3732   */\n      dup1\n        /* \"#utility.yul\":3734:3740   */\n      0x00\n        /* \"#utility.yul\":3742:3748   */\n      dup1\n        /* \"#utility.yul\":3750:3756   */\n      0x00\n        /* \"#utility.yul\":3758:3764   */\n      dup1\n        /* \"#utility.yul\":3807:3810   */\n      0x0100\n        /* \"#utility.yul\":3795:3804   */\n      dup10\n        /* \"#utility.yul\":3786:3793   */\n      dup12\n        /* \"#utility.yul\":3782:3805   */\n      sub\n        /* \"#utility.yul\":3778:3811   */\n      slt\n        /* \"#utility.yul\":3775:3895   */\n      iszero\n      tag_658\n      jumpi\n        /* \"#utility.yul\":3814:3893   */\n      tag_659\n      tag_532\n      jump\t// in\n    tag_659:\n        /* \"#utility.yul\":3775:3895   */\n    tag_658:\n        /* \"#utility.yul\":3934:3935   */\n      0x00\n        /* \"#utility.yul\":3959:4034   */\n      tag_660\n        /* \"#utility.yul\":4026:4033   */\n      dup12\n        /* \"#utility.yul\":4017:4023   */\n      dup3\n        /* \"#utility.yul\":4006:4015   */\n      dup13\n        /* \"#utility.yul\":4002:4024   */\n      add\n        /* \"#utility.yul\":3959:4034   */\n      tag_545\n      jump\t// in\n    tag_660:\n        /* \"#utility.yul\":3949:4034   */\n      swap9\n      pop\n        /* \"#utility.yul\":3905:4044   */\n      pop\n        /* \"#utility.yul\":4083:4085   */\n      0x20\n        /* \"#utility.yul\":4109:4162   */\n      tag_661\n        /* \"#utility.yul\":4154:4161   */\n      dup12\n        /* \"#utility.yul\":4145:4151   */\n      dup3\n        /* \"#utility.yul\":4134:4143   */\n      dup13\n        /* \"#utility.yul\":4130:4152   */\n      add\n        /* \"#utility.yul\":4109:4162   */\n      tag_543\n      jump\t// in\n    tag_661:\n        /* \"#utility.yul\":4099:4162   */\n      swap8\n      pop\n        /* \"#utility.yul\":4054:4172   */\n      pop\n        /* \"#utility.yul\":4211:4213   */\n      0x40\n        /* \"#utility.yul\":4237:4290   */\n      tag_662\n        /* \"#utility.yul\":4282:4289   */\n      dup12\n        /* \"#utility.yul\":4273:4279   */\n      dup3\n        /* \"#utility.yul\":4262:4271   */\n      dup13\n        /* \"#utility.yul\":4258:4280   */\n      add\n        /* \"#utility.yul\":4237:4290   */\n      tag_543\n      jump\t// in\n    tag_662:\n        /* \"#utility.yul\":4227:4290   */\n      swap7\n      pop\n        /* \"#utility.yul\":4182:4300   */\n      pop\n        /* \"#utility.yul\":4339:4341   */\n      0x60\n        /* \"#utility.yul\":4365:4418   */\n      tag_663\n        /* \"#utility.yul\":4410:4417   */\n      dup12\n        /* \"#utility.yul\":4401:4407   */\n      dup3\n        /* \"#utility.yul\":4390:4399   */\n      dup13\n        /* \"#utility.yul\":4386:4408   */\n      add\n        /* \"#utility.yul\":4365:4418   */\n      tag_536\n      jump\t// in\n    tag_663:\n        /* \"#utility.yul\":4355:4418   */\n      swap6\n      pop\n        /* \"#utility.yul\":4310:4428   */\n      pop\n        /* \"#utility.yul\":4467:4470   */\n      0x80\n        /* \"#utility.yul\":4494:4547   */\n      tag_664\n        /* \"#utility.yul\":4539:4546   */\n      dup12\n        /* \"#utility.yul\":4530:4536   */\n      dup3\n        /* \"#utility.yul\":4519:4528   */\n      dup13\n        /* \"#utility.yul\":4515:4537   */\n      add\n        /* \"#utility.yul\":4494:4547   */\n      tag_536\n      jump\t// in\n    tag_664:\n        /* \"#utility.yul\":4484:4547   */\n      swap5\n      pop\n        /* \"#utility.yul\":4438:4557   */\n      pop\n        /* \"#utility.yul\":4596:4599   */\n      0xa0\n        /* \"#utility.yul\":4623:4676   */\n      tag_665\n        /* \"#utility.yul\":4668:4675   */\n      dup12\n        /* \"#utility.yul\":4659:4665   */\n      dup3\n        /* \"#utility.yul\":4648:4657   */\n      dup13\n        /* \"#utility.yul\":4644:4666   */\n      add\n        /* \"#utility.yul\":4623:4676   */\n      tag_536\n      jump\t// in\n    tag_665:\n        /* \"#utility.yul\":4613:4676   */\n      swap4\n      pop\n        /* \"#utility.yul\":4567:4686   */\n      pop\n        /* \"#utility.yul\":4725:4728   */\n      0xc0\n        /* \"#utility.yul\":4752:4802   */\n      tag_666\n        /* \"#utility.yul\":4794:4801   */\n      dup12\n        /* \"#utility.yul\":4785:4791   */\n      dup3\n        /* \"#utility.yul\":4774:4783   */\n      dup13\n        /* \"#utility.yul\":4770:4792   */\n      add\n        /* \"#utility.yul\":4752:4802   */\n      tag_547\n      jump\t// in\n    tag_666:\n        /* \"#utility.yul\":4742:4802   */\n      swap3\n      pop\n        /* \"#utility.yul\":4696:4812   */\n      pop\n        /* \"#utility.yul\":4851:4854   */\n      0xe0\n        /* \"#utility.yul\":4878:4931   */\n      tag_667\n        /* \"#utility.yul\":4923:4930   */\n      dup12\n        /* \"#utility.yul\":4914:4920   */\n      dup3\n        /* \"#utility.yul\":4903:4912   */\n      dup13\n        /* \"#utility.yul\":4899:4921   */\n      add\n        /* \"#utility.yul\":4878:4931   */\n      tag_543\n      jump\t// in\n    tag_667:\n        /* \"#utility.yul\":4868:4931   */\n      swap2\n      pop\n        /* \"#utility.yul\":4822:4941   */\n      pop\n        /* \"#utility.yul\":3561:4948   */\n      swap3\n      swap6\n      swap9\n      pop\n      swap3\n      swap6\n      swap9\n      swap1\n      swap4\n      swap7\n      pop\n      jump\t// out\n        /* \"#utility.yul\":4954:5134   */\n    tag_134:\n        /* \"#utility.yul\":5002:5079   */\n      0x4e487b7100000000000000000000000000000000000000000000000000000000\n        /* \"#utility.yul\":4999:5000   */\n      0x00\n        /* \"#utility.yul\":4992:5080   */\n      mstore\n        /* \"#utility.yul\":5099:5103   */\n      0x21\n        /* \"#utility.yul\":5096:5097   */\n      0x04\n        /* \"#utility.yul\":5089:5104   */\n      mstore\n        /* \"#utility.yul\":5123:5127   */\n      0x24\n        /* \"#utility.yul\":5120:5121   */\n      0x00\n        /* \"#utility.yul\":5113:5128   */\n      revert\n        /* \"#utility.yul\":5140:5267   */\n    tag_548:\n        /* \"#utility.yul\":5235:5236   */\n      0x03\n        /* \"#utility.yul\":5228:5233   */\n      dup2\n        /* \"#utility.yul\":5225:5237   */\n      lt\n        /* \"#utility.yul\":5215:5261   */\n      tag_670\n      jumpi\n        /* \"#utility.yul\":5241:5259   */\n      tag_671\n      tag_134\n      jump\t// in\n    tag_671:\n        /* \"#utility.yul\":5215:5261   */\n    tag_670:\n        /* \"#utility.yul\":5140:5267   */\n      pop\n      jump\t// out\n        /* \"#utility.yul\":5273:5428   */\n    tag_549:\n        /* \"#utility.yul\":5332:5339   */\n      0x00\n        /* \"#utility.yul\":5361:5366   */\n      dup2\n        /* \"#utility.yul\":5350:5366   */\n      swap1\n      pop\n        /* \"#utility.yul\":5367:5422   */\n      tag_673\n        /* \"#utility.yul\":5416:5421   */\n      dup3\n        /* \"#utility.yul\":5367:5422   */\n      tag_548\n      jump\t// in\n    tag_673:\n        /* \"#utility.yul\":5273:5428   */\n      swap2\n      swap1\n      pop\n      jump\t// out\n        /* \"#utility.yul\":5434:5589   */\n    tag_550:\n        /* \"#utility.yul\":5504:5513   */\n      0x00\n        /* \"#utility.yul\":5537:5583   */\n      tag_675\n        /* \"#utility.yul\":5577:5582   */\n      dup3\n        /* \"#utility.yul\":5537:5583   */\n      tag_549\n      jump\t// in\n    tag_675:\n        /* \"#utility.yul\":5524:5583   */\n      swap1\n      pop\n        /* \"#utility.yul\":5434:5589   */\n      swap2\n      swap1\n      pop\n      jump\t// out\n        /* \"#utility.yul\":5595:5766   */\n    tag_551:\n        /* \"#utility.yul\":5702:5759   */\n      tag_677\n        /* \"#utility.yul\":5753:5758   */\n      dup2\n        /* \"#utility.yul\":5702:5759   */\n      tag_550\n      jump\t// in\n    tag_677:\n        /* \"#utility.yul\":5697:5700   */\n      dup3\n        /* \"#utility.yul\":5690:5760   */\n      mstore\n        /* \"#utility.yul\":5595:5766   */\n      pop\n      pop\n      jump\t// out\n        /* \"#utility.yul\":5772:6034   */\n    tag_73:\n        /* \"#utility.yul\":5885:5889   */\n      0x00\n        /* \"#utility.yul\":5923:5925   */\n      0x20\n        /* \"#utility.yul\":5912:5921   */\n      dup3\n        /* \"#utility.yul\":5908:5926   */\n      add\n        /* \"#utility.yul\":5900:5926   */\n      swap1\n      pop\n        /* \"#utility.yul\":5936:6027   */\n      tag_679\n        /* \"#utility.yul\":6024:6025   */\n      0x00\n        /* \"#utility.yul\":6013:6022   */\n      dup4\n        /* \"#utility.yul\":6009:6026   */\n      add\n        /* \"#utility.yul\":6000:6006   */\n      dup5\n        /* \"#utility.yul\":5936:6027   */\n      tag_551\n      jump\t// in\n    tag_679:\n        /* \"#utility.yul\":5772:6034   */\n      swap3\n      swap2\n      pop\n      pop\n      jump\t// out\n        /* \"#utility.yul\":6040:6158   */\n    tag_552:\n        /* \"#utility.yul\":6127:6151   */\n      tag_681\n        /* \"#utility.yul\":6145:6150   */\n      dup2\n        /* \"#utility.yul\":6127:6151   */\n      tag_541\n      jump\t// in\n    tag_681:\n        /* \"#utility.yul\":6122:6125   */\n      dup3\n        /* \"#utility.yul\":6115:6152   */\n      mstore\n        /* \"#utility.yul\":6040:6158   */\n      pop\n      pop\n      jump\t// out\n        /* \"#utility.yul\":6164:6386   */\n    tag_78:\n        /* \"#utility.yul\":6257:6261   */\n      0x00\n        /* \"#utility.yul\":6295:6297   */\n      0x20\n        /* \"#utility.yul\":6284:6293   */\n      dup3\n        /* \"#utility.yul\":6280:6298   */\n      add\n        /* \"#utility.yul\":6272:6298   */\n      swap1\n      pop\n        /* \"#utility.yul\":6308:6379   */\n      tag_683\n        /* \"#utility.yul\":6376:6377   */\n      0x00\n        /* \"#utility.yul\":6365:6374   */\n      dup4\n        /* \"#utility.yul\":6361:6378   */\n      add\n        /* \"#utility.yul\":6352:6358   */\n      dup5\n        /* \"#utility.yul\":6308:6379   */\n      tag_552\n      jump\t// in\n    tag_683:\n        /* \"#utility.yul\":6164:6386   */\n      swap3\n      swap2\n      pop\n      pop\n      jump\t// out\n        /* \"#utility.yul\":6392:6724   */\n    tag_86:\n        /* \"#utility.yul\":6513:6517   */\n      0x00\n        /* \"#utility.yul\":6551:6553   */\n      0x40\n        /* \"#utility.yul\":6540:6549   */\n      dup3\n        /* \"#utility.yul\":6536:6554   */\n      add\n        /* \"#utility.yul\":6528:6554   */\n      swap1\n      pop\n        /* \"#utility.yul\":6564:6635   */\n      tag_685\n        /* \"#utility.yul\":6632:6633   */\n      0x00\n        /* \"#utility.yul\":6621:6630   */\n      dup4\n        /* \"#utility.yul\":6617:6634   */\n      add\n        /* \"#utility.yul\":6608:6614   */\n      dup6\n        /* \"#utility.yul\":6564:6635   */\n      tag_552\n      jump\t// in\n    tag_685:\n        /* \"#utility.yul\":6645:6717   */\n      tag_686\n        /* \"#utility.yul\":6713:6715   */\n      0x20\n        /* \"#utility.yul\":6702:6711   */\n      dup4\n        /* \"#utility.yul\":6698:6716   */\n      add\n        /* \"#utility.yul\":6689:6695   */\n      dup5\n        /* \"#utility.yul\":6645:6717   */\n      tag_552\n      jump\t// in\n    tag_686:\n        /* \"#utility.yul\":6392:6724   */\n      swap4\n      swap3\n      pop\n      pop\n      pop\n      jump\t// out\n        /* \"#utility.yul\":6730:6844   */\n    tag_553:\n        /* \"#utility.yul\":6797:6803   */\n      0x00\n        /* \"#utility.yul\":6831:6836   */\n      dup2\n        /* \"#utility.yul\":6825:6837   */\n      mload\n        /* \"#utility.yul\":6815:6837   */\n      swap1\n      pop\n        /* \"#utility.yul\":6730:6844   */\n      swap2\n      swap1\n      pop\n      jump\t// out\n        /* \"#utility.yul\":6850:7034   */\n    tag_554:\n        /* \"#utility.yul\":6949:6960   */\n      0x00\n        /* \"#utility.yul\":6983:6989   */\n      dup3\n        /* \"#utility.yul\":6978:6981   */\n      dup3\n        /* \"#utility.yul\":6971:6990   */\n      mstore\n        /* \"#utility.yul\":7023:7027   */\n      0x20\n        /* \"#utility.yul\":7018:7021   */\n      dup3\n        /* \"#utility.yul\":7014:7028   */\n      add\n        /* \"#utility.yul\":6999:7028   */\n      swap1\n      pop\n        /* \"#utility.yul\":6850:7034   */\n      swap3\n      swap2\n      pop\n      pop\n      jump\t// out\n        /* \"#utility.yul\":7040:7172   */\n    tag_555:\n        /* \"#utility.yul\":7107:7111   */\n      0x00\n        /* \"#utility.yul\":7130:7133   */\n      dup2\n        /* \"#utility.yul\":7122:7133   */\n      swap1\n      pop\n        /* \"#utility.yul\":7160:7164   */\n      0x20\n        /* \"#utility.yul\":7155:7158   */\n      dup3\n        /* \"#utility.yul\":7151:7165   */\n      add\n        /* \"#utility.yul\":7143:7165   */\n      swap1\n      pop\n        /* \"#utility.yul\":7040:7172   */\n      swap2\n      swap1\n      pop\n      jump\t// out\n        /* \"#utility.yul\":7178:7286   */\n    tag_556:\n        /* \"#utility.yul\":7255:7279   */\n      tag_691\n        /* \"#utility.yul\":7273:7278   */\n      dup2\n        /* \"#utility.yul\":7255:7279   */\n      tag_541\n      jump\t// in\n    tag_691:\n        /* \"#utility.yul\":7250:7253   */\n      dup3\n        /* \"#utility.yul\":7243:7280   */\n      mstore\n        /* \"#utility.yul\":7178:7286   */\n      pop\n      pop\n      jump\t// out\n        /* \"#utility.yul\":7292:7471   */\n    tag_557:\n        /* \"#utility.yul\":7361:7371   */\n      0x00\n        /* \"#utility.yul\":7382:7428   */\n      tag_693\n        /* \"#utility.yul\":7424:7427   */\n      dup4\n        /* \"#utility.yul\":7416:7422   */\n      dup4\n        /* \"#utility.yul\":7382:7428   */\n      tag_556\n      jump\t// in\n    tag_693:\n        /* \"#utility.yul\":7460:7464   */\n      0x20\n        /* \"#utility.yul\":7455:7458   */\n      dup4\n        /* \"#utility.yul\":7451:7465   */\n      add\n        /* \"#utility.yul\":7437:7465   */\n      swap1\n      pop\n        /* \"#utility.yul\":7292:7471   */\n      swap3\n      swap2\n      pop\n      pop\n      jump\t// out\n        /* \"#utility.yul\":7477:7590   */\n    tag_558:\n        /* \"#utility.yul\":7547:7551   */\n      0x00\n        /* \"#utility.yul\":7579:7583   */\n      0x20\n        /* \"#utility.yul\":7574:7577   */\n      dup3\n        /* \"#utility.yul\":7570:7584   */\n      add\n        /* \"#utility.yul\":7562:7584   */\n      swap1\n      pop\n        /* \"#utility.yul\":7477:7590   */\n      swap2\n      swap1\n      pop\n      jump\t// out\n        /* \"#utility.yul\":7626:8358   */\n    tag_559:\n        /* \"#utility.yul\":7745:7748   */\n      0x00\n        /* \"#utility.yul\":7774:7828   */\n      tag_696\n        /* \"#utility.yul\":7822:7827   */\n      dup3\n        /* \"#utility.yul\":7774:7828   */\n      tag_553\n      jump\t// in\n    tag_696:\n        /* \"#utility.yul\":7844:7930   */\n      tag_697\n        /* \"#utility.yul\":7923:7929   */\n      dup2\n        /* \"#utility.yul\":7918:7921   */\n      dup6\n        /* \"#utility.yul\":7844:7930   */\n      tag_554\n      jump\t// in\n    tag_697:\n        /* \"#utility.yul\":7837:7930   */\n      swap4\n      pop\n        /* \"#utility.yul\":7954:8010   */\n      tag_698\n        /* \"#utility.yul\":8004:8009   */\n      dup4\n        /* \"#utility.yul\":7954:8010   */\n      tag_555\n      jump\t// in\n    tag_698:\n        /* \"#utility.yul\":8033:8040   */\n      dup1\n        /* \"#utility.yul\":8064:8065   */\n      0x00\n        /* \"#utility.yul\":8049:8333   */\n    tag_699:\n        /* \"#utility.yul\":8074:8080   */\n      dup4\n        /* \"#utility.yul\":8071:8072   */\n      dup2\n        /* \"#utility.yul\":8068:8081   */\n      lt\n        /* \"#utility.yul\":8049:8333   */\n      iszero\n      tag_701\n      jumpi\n        /* \"#utility.yul\":8150:8156   */\n      dup2\n        /* \"#utility.yul\":8144:8157   */\n      mload\n        /* \"#utility.yul\":8177:8240   */\n      tag_702\n        /* \"#utility.yul\":8236:8239   */\n      dup9\n        /* \"#utility.yul\":8221:8234   */\n      dup3\n        /* \"#utility.yul\":8177:8240   */\n      tag_557\n      jump\t// in\n    tag_702:\n        /* \"#utility.yul\":8170:8240   */\n      swap8\n      pop\n        /* \"#utility.yul\":8263:8323   */\n      tag_703\n        /* \"#utility.yul\":8316:8322   */\n      dup4\n        /* \"#utility.yul\":8263:8323   */\n      tag_558\n      jump\t// in\n    tag_703:\n        /* \"#utility.yul\":8253:8323   */\n      swap3\n      pop\n        /* \"#utility.yul\":8109:8333   */\n      pop\n        /* \"#utility.yul\":8096:8097   */\n      0x01\n        /* \"#utility.yul\":8093:8094   */\n      dup2\n        /* \"#utility.yul\":8089:8098   */\n      add\n        /* \"#utility.yul\":8084:8098   */\n      swap1\n      pop\n        /* \"#utility.yul\":8049:8333   */\n      jump(tag_699)\n    tag_701:\n        /* \"#utility.yul\":8053:8067   */\n      pop\n        /* \"#utility.yul\":8349:8352   */\n      dup6\n        /* \"#utility.yul\":8342:8352   */\n      swap4\n      pop\n        /* \"#utility.yul\":7750:8358   */\n      pop\n      pop\n      pop\n        /* \"#utility.yul\":7626:8358   */\n      swap3\n      swap2\n      pop\n      pop\n      jump\t// out\n        /* \"#utility.yul\":8364:8478   */\n    tag_560:\n        /* \"#utility.yul\":8431:8437   */\n      0x00\n        /* \"#utility.yul\":8465:8470   */\n      dup2\n        /* \"#utility.yul\":8459:8471   */\n      mload\n        /* \"#utility.yul\":8449:8471   */\n      swap1\n      pop\n        /* \"#utility.yul\":8364:8478   */\n      swap2\n      swap1\n      pop\n      jump\t// out\n        /* \"#utility.yul\":8484:8668   */\n    tag_561:\n        /* \"#utility.yul\":8583:8594   */\n      0x00\n        /* \"#utility.yul\":8617:8623   */\n      dup3\n        /* \"#utility.yul\":8612:8615   */\n      dup3\n        /* \"#utility.yul\":8605:8624   */\n      mstore\n        /* \"#utility.yul\":8657:8661   */\n      0x20\n        /* \"#utility.yul\":8652:8655   */\n      dup3\n        /* \"#utility.yul\":8648:8662   */\n      add\n        /* \"#utility.yul\":8633:8662   */\n      swap1\n      pop\n        /* \"#utility.yul\":8484:8668   */\n      swap3\n      swap2\n      pop\n      pop\n      jump\t// out\n        /* \"#utility.yul\":8674:8806   */\n    tag_562:\n        /* \"#utility.yul\":8741:8745   */\n      0x00\n        /* \"#utility.yul\":8764:8767   */\n      dup2\n        /* \"#utility.yul\":8756:8767   */\n      swap1\n      pop\n        /* \"#utility.yul\":8794:8798   */\n      0x20\n        /* \"#utility.yul\":8789:8792   */\n      dup3\n        /* \"#utility.yul\":8785:8799   */\n      add\n        /* \"#utility.yul\":8777:8799   */\n      swap1\n      pop\n        /* \"#utility.yul\":8674:8806   */\n      swap2\n      swap1\n      pop\n      jump\t// out\n        /* \"#utility.yul\":8812:8920   */\n    tag_563:\n        /* \"#utility.yul\":8889:8913   */\n      tag_708\n        /* \"#utility.yul\":8907:8912   */\n      dup2\n        /* \"#utility.yul\":8889:8913   */\n      tag_534\n      jump\t// in\n    tag_708:\n        /* \"#utility.yul\":8884:8887   */\n      dup3\n        /* \"#utility.yul\":8877:8914   */\n      mstore\n        /* \"#utility.yul\":8812:8920   */\n      pop\n      pop\n      jump\t// out\n        /* \"#utility.yul\":8926:9105   */\n    tag_564:\n        /* \"#utility.yul\":8995:9005   */\n      0x00\n        /* \"#utility.yul\":9016:9062   */\n      tag_710\n        /* \"#utility.yul\":9058:9061   */\n      dup4\n        /* \"#utility.yul\":9050:9056   */\n      dup4\n        /* \"#utility.yul\":9016:9062   */\n      tag_563\n      jump\t// in\n    tag_710:\n        /* \"#utility.yul\":9094:9098   */\n      0x20\n        /* \"#utility.yul\":9089:9092   */\n      dup4\n        /* \"#utility.yul\":9085:9099   */\n      add\n        /* \"#utility.yul\":9071:9099   */\n      swap1\n      pop\n        /* \"#utility.yul\":8926:9105   */\n      swap3\n      swap2\n      pop\n      pop\n      jump\t// out\n        /* \"#utility.yul\":9111:9224   */\n    tag_565:\n        /* \"#utility.yul\":9181:9185   */\n      0x00\n        /* \"#utility.yul\":9213:9217   */\n      0x20\n        /* \"#utility.yul\":9208:9211   */\n      dup3\n        /* \"#utility.yul\":9204:9218   */\n      add\n        /* \"#utility.yul\":9196:9218   */\n      swap1\n      pop\n        /* \"#utility.yul\":9111:9224   */\n      swap2\n      swap1\n      pop\n      jump\t// out\n        /* \"#utility.yul\":9260:9992   */\n    tag_566:\n        /* \"#utility.yul\":9379:9382   */\n      0x00\n        /* \"#utility.yul\":9408:9462   */\n      tag_713\n        /* \"#utility.yul\":9456:9461   */\n      dup3\n        /* \"#utility.yul\":9408:9462   */\n      tag_560\n      jump\t// in\n    tag_713:\n        /* \"#utility.yul\":9478:9564   */\n      tag_714\n        /* \"#utility.yul\":9557:9563   */\n      dup2\n        /* \"#utility.yul\":9552:9555   */\n      dup6\n        /* \"#utility.yul\":9478:9564   */\n      tag_561\n      jump\t// in\n    tag_714:\n        /* \"#utility.yul\":9471:9564   */\n      swap4\n      pop\n        /* \"#utility.yul\":9588:9644   */\n      tag_715\n        /* \"#utility.yul\":9638:9643   */\n      dup4\n        /* \"#utility.yul\":9588:9644   */\n      tag_562\n      jump\t// in\n    tag_715:\n        /* \"#utility.yul\":9667:9674   */\n      dup1\n        /* \"#utility.yul\":9698:9699   */\n      0x00\n        /* \"#utility.yul\":9683:9967   */\n    tag_716:\n        /* \"#utility.yul\":9708:9714   */\n      dup4\n        /* \"#utility.yul\":9705:9706   */\n      dup2\n        /* \"#utility.yul\":9702:9715   */\n      lt\n        /* \"#utility.yul\":9683:9967   */\n      iszero\n      tag_718\n      jumpi\n        /* \"#utility.yul\":9784:9790   */\n      dup2\n        /* \"#utility.yul\":9778:9791   */\n      mload\n        /* \"#utility.yul\":9811:9874   */\n      tag_719\n        /* \"#utility.yul\":9870:9873   */\n      dup9\n        /* \"#utility.yul\":9855:9868   */\n      dup3\n        /* \"#utility.yul\":9811:9874   */\n      tag_564\n      jump\t// in\n    tag_719:\n        /* \"#utility.yul\":9804:9874   */\n      swap8\n      pop\n        /* \"#utility.yul\":9897:9957   */\n      tag_720\n        /* \"#utility.yul\":9950:9956   */\n      dup4\n        /* \"#utility.yul\":9897:9957   */\n      tag_565\n      jump\t// in\n    tag_720:\n        /* \"#utility.yul\":9887:9957   */\n      swap3\n      pop\n        /* \"#utility.yul\":9743:9967   */\n      pop\n        /* \"#utility.yul\":9730:9731   */\n      0x01\n        /* \"#utility.yul\":9727:9728   */\n      dup2\n        /* \"#utility.yul\":9723:9732   */\n      add\n        /* \"#utility.yul\":9718:9732   */\n      swap1\n      pop\n        /* \"#utility.yul\":9683:9967   */\n      jump(tag_716)\n    tag_718:\n        /* \"#utility.yul\":9687:9701   */\n      pop\n        /* \"#utility.yul\":9983:9986   */\n      dup6\n        /* \"#utility.yul\":9976:9986   */\n      swap4\n      pop\n        /* \"#utility.yul\":9384:9992   */\n      pop\n      pop\n      pop\n        /* \"#utility.yul\":9260:9992   */\n      swap3\n      swap2\n      pop\n      pop\n      jump\t// out\n        /* \"#utility.yul\":9998:10893   */\n    tag_105:\n        /* \"#utility.yul\":10297:10301   */\n      0x00\n        /* \"#utility.yul\":10335:10337   */\n      0x60\n        /* \"#utility.yul\":10324:10333   */\n      dup3\n        /* \"#utility.yul\":10320:10338   */\n      add\n        /* \"#utility.yul\":10312:10338   */\n      swap1\n      pop\n        /* \"#utility.yul\":10384:10393   */\n      dup2\n        /* \"#utility.yul\":10378:10382   */\n      dup2\n        /* \"#utility.yul\":10374:10394   */\n      sub\n        /* \"#utility.yul\":10370:10371   */\n      0x00\n        /* \"#utility.yul\":10359:10368   */\n      dup4\n        /* \"#utility.yul\":10355:10372   */\n      add\n        /* \"#utility.yul\":10348:10395   */\n      mstore\n        /* \"#utility.yul\":10412:10520   */\n      tag_722\n        /* \"#utility.yul\":10515:10519   */\n      dup2\n        /* \"#utility.yul\":10506:10512   */\n      dup7\n        /* \"#utility.yul\":10412:10520   */\n      tag_559\n      jump\t// in\n    tag_722:\n        /* \"#utility.yul\":10404:10520   */\n      swap1\n      pop\n        /* \"#utility.yul\":10567:10576   */\n      dup2\n        /* \"#utility.yul\":10561:10565   */\n      dup2\n        /* \"#utility.yul\":10557:10577   */\n      sub\n        /* \"#utility.yul\":10552:10554   */\n      0x20\n        /* \"#utility.yul\":10541:10550   */\n      dup4\n        /* \"#utility.yul\":10537:10555   */\n      add\n        /* \"#utility.yul\":10530:10578   */\n      mstore\n        /* \"#utility.yul\":10595:10703   */\n      tag_723\n        /* \"#utility.yul\":10698:10702   */\n      dup2\n        /* \"#utility.yul\":10689:10695   */\n      dup6\n        /* \"#utility.yul\":10595:10703   */\n      tag_566\n      jump\t// in\n    tag_723:\n        /* \"#utility.yul\":10587:10703   */\n      swap1\n      pop\n        /* \"#utility.yul\":10750:10759   */\n      dup2\n        /* \"#utility.yul\":10744:10748   */\n      dup2\n        /* \"#utility.yul\":10740:10760   */\n      sub\n        /* \"#utility.yul\":10735:10737   */\n      0x40\n        /* \"#utility.yul\":10724:10733   */\n      dup4\n        /* \"#utility.yul\":10720:10738   */\n      add\n        /* \"#utility.yul\":10713:10761   */\n      mstore\n        /* \"#utility.yul\":10778:10886   */\n      tag_724\n        /* \"#utility.yul\":10881:10885   */\n      dup2\n        /* \"#utility.yul\":10872:10878   */\n      dup5\n        /* \"#utility.yul\":10778:10886   */\n      tag_566\n      jump\t// in\n    tag_724:\n        /* \"#utility.yul\":10770:10886   */\n      swap1\n      pop\n        /* \"#utility.yul\":9998:10893   */\n      swap5\n      swap4\n      pop\n      pop\n      pop\n      pop\n      jump\t// out\n        /* \"#utility.yul\":10899:11068   */\n    tag_567:\n        /* \"#utility.yul\":10983:10994   */\n      0x00\n        /* \"#utility.yul\":11017:11023   */\n      dup3\n        /* \"#utility.yul\":11012:11015   */\n      dup3\n        /* \"#utility.yul\":11005:11024   */\n      mstore\n        /* \"#utility.yul\":11057:11061   */\n      0x20\n        /* \"#utility.yul\":11052:11055   */\n      dup3\n        /* \"#utility.yul\":11048:11062   */\n      add\n        /* \"#utility.yul\":11033:11062   */\n      swap1\n      pop\n        /* \"#utility.yul\":10899:11068   */\n      swap3\n      swap2\n      pop\n      pop\n      jump\t// out\n        /* \"#utility.yul\":11074:11246   */\n    tag_568:\n        /* \"#utility.yul\":11214:11238   */\n      0x537943726f774261727465723a20494e41435449564500000000000000000000\n        /* \"#utility.yul\":11210:11211   */\n      0x00\n        /* \"#utility.yul\":11202:11208   */\n      dup3\n        /* \"#utility.yul\":11198:11212   */\n      add\n        /* \"#utility.yul\":11191:11239   */\n      mstore\n        /* \"#utility.yul\":11074:11246   */\n      pop\n      jump\t// out\n        /* \"#utility.yul\":11252:11618   */\n    tag_569:\n        /* \"#utility.yul\":11394:11397   */\n      0x00\n        /* \"#utility.yul\":11415:11482   */\n      tag_728\n        /* \"#utility.yul\":11479:11481   */\n      0x16\n        /* \"#utility.yul\":11474:11477   */\n      dup4\n        /* \"#utility.yul\":11415:11482   */\n      tag_567\n      jump\t// in\n    tag_728:\n        /* \"#utility.yul\":11408:11482   */\n      swap2\n      pop\n        /* \"#utility.yul\":11491:11584   */\n      tag_729\n        /* \"#utility.yul\":11580:11583   */\n      dup3\n        /* \"#utility.yul\":11491:11584   */\n      tag_568\n      jump\t// in\n    tag_729:\n        /* \"#utility.yul\":11609:11611   */\n      0x20\n        /* \"#utility.yul\":11604:11607   */\n      dup3\n        /* \"#utility.yul\":11600:11612   */\n      add\n        /* \"#utility.yul\":11593:11612   */\n      swap1\n      pop\n        /* \"#utility.yul\":11252:11618   */\n      swap2\n      swap1\n      pop\n      jump\t// out\n        /* \"#utility.yul\":11624:12043   */\n    tag_114:\n        /* \"#utility.yul\":11790:11794   */\n      0x00\n        /* \"#utility.yul\":11828:11830   */\n      0x20\n        /* \"#utility.yul\":11817:11826   */\n      dup3\n        /* \"#utility.yul\":11813:11831   */\n      add\n        /* \"#utility.yul\":11805:11831   */\n      swap1\n      pop\n        /* \"#utility.yul\":11877:11886   */\n      dup2\n        /* \"#utility.yul\":11871:11875   */\n      dup2\n        /* \"#utility.yul\":11867:11887   */\n      sub\n        /* \"#utility.yul\":11863:11864   */\n      0x00\n        /* \"#utility.yul\":11852:11861   */\n      dup4\n        /* \"#utility.yul\":11848:11865   */\n      add\n        /* \"#utility.yul\":11841:11888   */\n      mstore\n        /* \"#utility.yul\":11905:12036   */\n      tag_731\n        /* \"#utility.yul\":12031:12035   */\n      dup2\n        /* \"#utility.yul\":11905:12036   */\n      tag_569\n      jump\t// in\n    tag_731:\n        /* \"#utility.yul\":11897:12036   */\n      swap1\n      pop\n        /* \"#utility.yul\":11624:12043   */\n      swap2\n      swap1\n      pop\n      jump\t// out\n        /* \"#utility.yul\":12049:12228   */\n    tag_570:\n        /* \"#utility.yul\":12189:12220   */\n      0x537943726f774261727465723a204e4f545f494e495449414c495a4544000000\n        /* \"#utility.yul\":12185:12186   */\n      0x00\n        /* \"#utility.yul\":12177:12183   */\n      dup3\n        /* \"#utility.yul\":12173:12187   */\n      add\n        /* \"#utility.yul\":12166:12221   */\n      mstore\n        /* \"#utility.yul\":12049:12228   */\n      pop\n      jump\t// out\n        /* \"#utility.yul\":12234:12600   */\n    tag_571:\n        /* \"#utility.yul\":12376:12379   */\n      0x00\n        /* \"#utility.yul\":12397:12464   */\n      tag_734\n        /* \"#utility.yul\":12461:12463   */\n      0x1d\n        /* \"#utility.yul\":12456:12459   */\n      dup4\n        /* \"#utility.yul\":12397:12464   */\n      tag_567\n      jump\t// in\n    tag_734:\n        /* \"#utility.yul\":12390:12464   */\n      swap2\n      pop\n        /* \"#utility.yul\":12473:12566   */\n      tag_735\n        /* \"#utility.yul\":12562:12565   */\n      dup3\n        /* \"#utility.yul\":12473:12566   */\n      tag_570\n      jump\t// in\n    tag_735:\n        /* \"#utility.yul\":12591:12593   */\n      0x20\n        /* \"#utility.yul\":12586:12589   */\n      dup3\n        /* \"#utility.yul\":12582:12594   */\n      add\n        /* \"#utility.yul\":12575:12594   */\n      swap1\n      pop\n        /* \"#utility.yul\":12234:12600   */\n      swap2\n      swap1\n      pop\n      jump\t// out\n        /* \"#utility.yul\":12606:13025   */\n    tag_118:\n        /* \"#utility.yul\":12772:12776   */\n      0x00\n        /* \"#utility.yul\":12810:12812   */\n      0x20\n        /* \"#utility.yul\":12799:12808   */\n      dup3\n        /* \"#utility.yul\":12795:12813   */\n      add\n        /* \"#utility.yul\":12787:12813   */\n      swap1\n      pop\n        /* \"#utility.yul\":12859:12868   */\n      dup2\n        /* \"#utility.yul\":12853:12857   */\n      dup2\n        /* \"#utility.yul\":12849:12869   */\n      sub\n        /* \"#utility.yul\":12845:12846   */\n      0x00\n        /* \"#utility.yul\":12834:12843   */\n      dup4\n        /* \"#utility.yul\":12830:12847   */\n      add\n        /* \"#utility.yul\":12823:12870   */\n      mstore\n        /* \"#utility.yul\":12887:13018   */\n      tag_737\n        /* \"#utility.yul\":13013:13017   */\n      dup2\n        /* \"#utility.yul\":12887:13018   */\n      tag_571\n      jump\t// in\n    tag_737:\n        /* \"#utility.yul\":12879:13018   */\n      swap1\n      pop\n        /* \"#utility.yul\":12606:13025   */\n      swap2\n      swap1\n      pop\n      jump\t// out\n        /* \"#utility.yul\":13031:13168   */\n    tag_572:\n        /* \"#utility.yul\":13085:13090   */\n      0x00\n        /* \"#utility.yul\":13116:13122   */\n      dup2\n        /* \"#utility.yul\":13110:13123   */\n      mload\n        /* \"#utility.yul\":13101:13123   */\n      swap1\n      pop\n        /* \"#utility.yul\":13132:13162   */\n      tag_739\n        /* \"#utility.yul\":13156:13161   */\n      dup2\n        /* \"#utility.yul\":13132:13162   */\n      tag_546\n      jump\t// in\n    tag_739:\n        /* \"#utility.yul\":13031:13168   */\n      swap3\n      swap2\n      pop\n      pop\n      jump\t// out\n        /* \"#utility.yul\":13174:13519   */\n    tag_123:\n        /* \"#utility.yul\":13241:13247   */\n      0x00\n        /* \"#utility.yul\":13290:13292   */\n      0x20\n        /* \"#utility.yul\":13278:13287   */\n      dup3\n        /* \"#utility.yul\":13269:13276   */\n      dup5\n        /* \"#utility.yul\":13265:13288   */\n      sub\n        /* \"#utility.yul\":13261:13293   */\n      slt\n        /* \"#utility.yul\":13258:13377   */\n      iszero\n      tag_741\n      jumpi\n        /* \"#utility.yul\":13296:13375   */\n      tag_742\n      tag_532\n      jump\t// in\n    tag_742:\n        /* \"#utility.yul\":13258:13377   */\n    tag_741:\n        /* \"#utility.yul\":13416:13417   */\n      0x00\n        /* \"#utility.yul\":13441:13502   */\n      tag_743\n        /* \"#utility.yul\":13494:13501   */\n      dup5\n        /* \"#utility.yul\":13485:13491   */\n      dup3\n        /* \"#utility.yul\":13474:13483   */\n      dup6\n        /* \"#utility.yul\":13470:13492   */\n      add\n        /* \"#utility.yul\":13441:13502   */\n      tag_572\n      jump\t// in\n    tag_743:\n        /* \"#utility.yul\":13431:13502   */\n      swap2\n      pop\n        /* \"#utility.yul\":13387:13512   */\n      pop\n        /* \"#utility.yul\":13174:13519   */\n      swap3\n      swap2\n      pop\n      pop\n      jump\t// out\n        /* \"#utility.yul\":13525:13746   */\n    tag_573:\n        /* \"#utility.yul\":13665:13699   */\n      0x537943726f774261727465723a204261736520436f6e74726163742050617573\n        /* \"#utility.yul\":13661:13662   */\n      0x00\n        /* \"#utility.yul\":13653:13659   */\n      dup3\n        /* \"#utility.yul\":13649:13663   */\n      add\n        /* \"#utility.yul\":13642:13700   */\n      mstore\n        /* \"#utility.yul\":13734:13738   */\n      0x6564000000000000000000000000000000000000000000000000000000000000\n        /* \"#utility.yul\":13729:13731   */\n      0x20\n        /* \"#utility.yul\":13721:13727   */\n      dup3\n        /* \"#utility.yul\":13717:13732   */\n      add\n        /* \"#utility.yul\":13710:13739   */\n      mstore\n        /* \"#utility.yul\":13525:13746   */\n      pop\n      jump\t// out\n        /* \"#utility.yul\":13752:14118   */\n    tag_574:\n        /* \"#utility.yul\":13894:13897   */\n      0x00\n        /* \"#utility.yul\":13915:13982   */\n      tag_746\n        /* \"#utility.yul\":13979:13981   */\n      0x22\n        /* \"#utility.yul\":13974:13977   */\n      dup4\n        /* \"#utility.yul\":13915:13982   */\n      tag_567\n      jump\t// in\n    tag_746:\n        /* \"#utility.yul\":13908:13982   */\n      swap2\n      pop\n        /* \"#utility.yul\":13991:14084   */\n      tag_747\n        /* \"#utility.yul\":14080:14083   */\n      dup3\n        /* \"#utility.yul\":13991:14084   */\n      tag_573\n      jump\t// in\n    tag_747:\n        /* \"#utility.yul\":14109:14111   */\n      0x40\n        /* \"#utility.yul\":14104:14107   */\n      dup3\n        /* \"#utility.yul\":14100:14112   */\n      add\n        /* \"#utility.yul\":14093:14112   */\n      swap1\n      pop\n        /* \"#utility.yul\":13752:14118   */\n      swap2\n      swap1\n      pop\n      jump\t// out\n        /* \"#utility.yul\":14124:14543   */\n    tag_126:\n        /* \"#utility.yul\":14290:14294   */\n      0x00\n        /* \"#utility.yul\":14328:14330   */\n      0x20\n        /* \"#utility.yul\":14317:14326   */\n      dup3\n        /* \"#utility.yul\":14313:14331   */\n      add\n        /* \"#utility.yul\":14305:14331   */\n      swap1\n      pop\n        /* \"#utility.yul\":14377:14386   */\n      dup2\n        /* \"#utility.yul\":14371:14375   */\n      dup2\n        /* \"#utility.yul\":14367:14387   */\n      sub\n        /* \"#utility.yul\":14363:14364   */\n      0x00\n        /* \"#utility.yul\":14352:14361   */\n      dup4\n        /* \"#utility.yul\":14348:14365   */\n      add\n        /* \"#utility.yul\":14341:14388   */\n      mstore\n        /* \"#utility.yul\":14405:14536   */\n      tag_749\n        /* \"#utility.yul\":14531:14535   */\n      dup2\n        /* \"#utility.yul\":14405:14536   */\n      tag_574\n      jump\t// in\n    tag_749:\n        /* \"#utility.yul\":14397:14536   */\n      swap1\n      pop\n        /* \"#utility.yul\":14124:14543   */\n      swap2\n      swap1\n      pop\n      jump\t// out\n        /* \"#utility.yul\":14549:14773   */\n    tag_575:\n        /* \"#utility.yul\":14689:14723   */\n      0x537943726f774261727465723a204d554c54495f54524144455f4e4f545f454e\n        /* \"#utility.yul\":14685:14686   */\n      0x00\n        /* \"#utility.yul\":14677:14683   */\n      dup3\n        /* \"#utility.yul\":14673:14687   */\n      add\n        /* \"#utility.yul\":14666:14724   */\n      mstore\n        /* \"#utility.yul\":14758:14765   */\n      0x41424c4544000000000000000000000000000000000000000000000000000000\n        /* \"#utility.yul\":14753:14755   */\n      0x20\n        /* \"#utility.yul\":14745:14751   */\n      dup3\n        /* \"#utility.yul\":14741:14756   */\n      add\n        /* \"#utility.yul\":14734:14766   */\n      mstore\n        /* \"#utility.yul\":14549:14773   */\n      pop\n      jump\t// out\n        /* \"#utility.yul\":14779:15145   */\n    tag_576:\n        /* \"#utility.yul\":14921:14924   */\n      0x00\n        /* \"#utility.yul\":14942:15009   */\n      tag_752\n        /* \"#utility.yul\":15006:15008   */\n      0x25\n        /* \"#utility.yul\":15001:15004   */\n      dup4\n        /* \"#utility.yul\":14942:15009   */\n      tag_567\n      jump\t// in\n    tag_752:\n        /* \"#utility.yul\":14935:15009   */\n      swap2\n      pop\n        /* \"#utility.yul\":15018:15111   */\n      tag_753\n        /* \"#utility.yul\":15107:15110   */\n      dup3\n        /* \"#utility.yul\":15018:15111   */\n      tag_575\n      jump\t// in\n    tag_753:\n        /* \"#utility.yul\":15136:15138   */\n      0x40\n        /* \"#utility.yul\":15131:15134   */\n      dup3\n        /* \"#utility.yul\":15127:15139   */\n      add\n        /* \"#utility.yul\":15120:15139   */\n      swap1\n      pop\n        /* \"#utility.yul\":14779:15145   */\n      swap2\n      swap1\n      pop\n      jump\t// out\n        /* \"#utility.yul\":15151:15570   */\n    tag_130:\n        /* \"#utility.yul\":15317:15321   */\n      0x00\n        /* \"#utility.yul\":15355:15357   */\n      0x20\n        /* \"#utility.yul\":15344:15353   */\n      dup3\n        /* \"#utility.yul\":15340:15358   */\n      add\n        /* \"#utility.yul\":15332:15358   */\n      swap1\n      pop\n        /* \"#utility.yul\":15404:15413   */\n      dup2\n        /* \"#utility.yul\":15398:15402   */\n      dup2\n        /* \"#utility.yul\":15394:15414   */\n      sub\n        /* \"#utility.yul\":15390:15391   */\n      0x00\n        /* \"#utility.yul\":15379:15388   */\n      dup4\n        /* \"#utility.yul\":15375:15392   */\n      add\n        /* \"#utility.yul\":15368:15415   */\n      mstore\n        /* \"#utility.yul\":15432:15563   */\n      tag_755\n        /* \"#utility.yul\":15558:15562   */\n      dup2\n        /* \"#utility.yul\":15432:15563   */\n      tag_576\n      jump\t// in\n    tag_755:\n        /* \"#utility.yul\":15424:15563   */\n      swap1\n      pop\n        /* \"#utility.yul\":15151:15570   */\n      swap2\n      swap1\n      pop\n      jump\t// out\n        /* \"#utility.yul\":15576:15796   */\n    tag_577:\n        /* \"#utility.yul\":15716:15750   */\n      0x537943726f774261727465723a20494e56414c49445f4241525445525f545950\n        /* \"#utility.yul\":15712:15713   */\n      0x00\n        /* \"#utility.yul\":15704:15710   */\n      dup3\n        /* \"#utility.yul\":15700:15714   */\n      add\n        /* \"#utility.yul\":15693:15751   */\n      mstore\n        /* \"#utility.yul\":15785:15788   */\n      0x4500000000000000000000000000000000000000000000000000000000000000\n        /* \"#utility.yul\":15780:15782   */\n      0x20\n        /* \"#utility.yul\":15772:15778   */\n      dup3\n        /* \"#utility.yul\":15768:15783   */\n      add\n        /* \"#utility.yul\":15761:15789   */\n      mstore\n        /* \"#utility.yul\":15576:15796   */\n      pop\n      jump\t// out\n        /* \"#utility.yul\":15802:16168   */\n    tag_578:\n        /* \"#utility.yul\":15944:15947   */\n      0x00\n        /* \"#utility.yul\":15965:16032   */\n      tag_758\n        /* \"#utility.yul\":16029:16031   */\n      0x21\n        /* \"#utility.yul\":16024:16027   */\n      dup4\n        /* \"#utility.yul\":15965:16032   */\n      tag_567\n      jump\t// in\n    tag_758:\n        /* \"#utility.yul\":15958:16032   */\n      swap2\n      pop\n        /* \"#utility.yul\":16041:16134   */\n      tag_759\n        /* \"#utility.yul\":16130:16133   */\n      dup3\n        /* \"#utility.yul\":16041:16134   */\n      tag_577\n      jump\t// in\n    tag_759:\n        /* \"#utility.yul\":16159:16161   */\n      0x40\n        /* \"#utility.yul\":16154:16157   */\n      dup3\n        /* \"#utility.yul\":16150:16162   */\n      add\n        /* \"#utility.yul\":16143:16162   */\n      swap1\n      pop\n        /* \"#utility.yul\":15802:16168   */\n      swap2\n      swap1\n      pop\n      jump\t// out\n        /* \"#utility.yul\":16174:16593   */\n    tag_139:\n        /* \"#utility.yul\":16340:16344   */\n      0x00\n        /* \"#utility.yul\":16378:16380   */\n      0x20\n        /* \"#utility.yul\":16367:16376   */\n      dup3\n        /* \"#utility.yul\":16363:16381   */\n      add\n        /* \"#utility.yul\":16355:16381   */\n      swap1\n      pop\n        /* \"#utility.yul\":16427:16436   */\n      dup2\n        /* \"#utility.yul\":16421:16425   */\n      dup2\n        /* \"#utility.yul\":16417:16437   */\n      sub\n        /* \"#utility.yul\":16413:16414   */\n      0x00\n        /* \"#utility.yul\":16402:16411   */\n      dup4\n        /* \"#utility.yul\":16398:16415   */\n      add\n        /* \"#utility.yul\":16391:16438   */\n      mstore\n        /* \"#utility.yul\":16455:16586   */\n      tag_761\n        /* \"#utility.yul\":16581:16585   */\n      dup2\n        /* \"#utility.yul\":16455:16586   */\n      tag_578\n      jump\t// in\n    tag_761:\n        /* \"#utility.yul\":16447:16586   */\n      swap1\n      pop\n        /* \"#utility.yul\":16174:16593   */\n      swap2\n      swap1\n      pop\n      jump\t// out\n        /* \"#utility.yul\":16599:16769   */\n    tag_579:\n        /* \"#utility.yul\":16739:16761   */\n      0x537943726f774261727465723a20414354495645000000000000000000000000\n        /* \"#utility.yul\":16735:16736   */\n      0x00\n        /* \"#utility.yul\":16727:16733   */\n      dup3\n        /* \"#utility.yul\":16723:16737   */\n      add\n        /* \"#utility.yul\":16716:16762   */\n      mstore\n        /* \"#utility.yul\":16599:16769   */\n      pop\n      jump\t// out\n        /* \"#utility.yul\":16775:17141   */\n    tag_580:\n        /* \"#utility.yul\":16917:16920   */\n      0x00\n        /* \"#utility.yul\":16938:17005   */\n      tag_764\n        /* \"#utility.yul\":17002:17004   */\n      0x14\n        /* \"#utility.yul\":16997:17000   */\n      dup4\n        /* \"#utility.yul\":16938:17005   */\n      tag_567\n      jump\t// in\n    tag_764:\n        /* \"#utility.yul\":16931:17005   */\n      swap2\n      pop\n        /* \"#utility.yul\":17014:17107   */\n      tag_765\n        /* \"#utility.yul\":17103:17106   */\n      dup3\n        /* \"#utility.yul\":17014:17107   */\n      tag_579\n      jump\t// in\n    tag_765:\n        /* \"#utility.yul\":17132:17134   */\n      0x20\n        /* \"#utility.yul\":17127:17130   */\n      dup3\n        /* \"#utility.yul\":17123:17135   */\n      add\n        /* \"#utility.yul\":17116:17135   */\n      swap1\n      pop\n        /* \"#utility.yul\":16775:17141   */\n      swap2\n      swap1\n      pop\n      jump\t// out\n        /* \"#utility.yul\":17147:17566   */\n    tag_173:\n        /* \"#utility.yul\":17313:17317   */\n      0x00\n        /* \"#utility.yul\":17351:17353   */\n      0x20\n        /* \"#utility.yul\":17340:17349   */\n      dup3\n        /* \"#utility.yul\":17336:17354   */\n      add\n        /* \"#utility.yul\":17328:17354   */\n      swap1\n      pop\n        /* \"#utility.yul\":17400:17409   */\n      dup2\n        /* \"#utility.yul\":17394:17398   */\n      dup2\n        /* \"#utility.yul\":17390:17410   */\n      sub\n        /* \"#utility.yul\":17386:17387   */\n      0x00\n        /* \"#utility.yul\":17375:17384   */\n      dup4\n        /* \"#utility.yul\":17371:17388   */\n      add\n        /* \"#utility.yul\":17364:17411   */\n      mstore\n        /* \"#utility.yul\":17428:17559   */\n      tag_767\n        /* \"#utility.yul\":17554:17558   */\n      dup2\n        /* \"#utility.yul\":17428:17559   */\n      tag_580\n      jump\t// in\n    tag_767:\n        /* \"#utility.yul\":17420:17559   */\n      swap1\n      pop\n        /* \"#utility.yul\":17147:17566   */\n      swap2\n      swap1\n      pop\n      jump\t// out\n        /* \"#utility.yul\":17572:17754   */\n    tag_581:\n        /* \"#utility.yul\":17712:17746   */\n      0x4f776e61626c653a2063616c6c6572206973206e6f7420746865206f776e6572\n        /* \"#utility.yul\":17708:17709   */\n      0x00\n        /* \"#utility.yul\":17700:17706   */\n      dup3\n        /* \"#utility.yul\":17696:17710   */\n      add\n        /* \"#utility.yul\":17689:17747   */\n      mstore\n        /* \"#utility.yul\":17572:17754   */\n      pop\n      jump\t// out\n        /* \"#utility.yul\":17760:18126   */\n    tag_582:\n        /* \"#utility.yul\":17902:17905   */\n      0x00\n        /* \"#utility.yul\":17923:17990   */\n      tag_770\n        /* \"#utility.yul\":17987:17989   */\n      0x20\n        /* \"#utility.yul\":17982:17985   */\n      dup4\n        /* \"#utility.yul\":17923:17990   */\n      tag_567\n      jump\t// in\n    tag_770:\n        /* \"#utility.yul\":17916:17990   */\n      swap2\n      pop\n        /* \"#utility.yul\":17999:18092   */\n      tag_771\n        /* \"#utility.yul\":18088:18091   */\n      dup3\n        /* \"#utility.yul\":17999:18092   */\n      tag_581\n      jump\t// in\n    tag_771:\n        /* \"#utility.yul\":18117:18119   */\n      0x20\n        /* \"#utility.yul\":18112:18115   */\n      dup3\n        /* \"#utility.yul\":18108:18120   */\n      add\n        /* \"#utility.yul\":18101:18120   */\n      swap1\n      pop\n        /* \"#utility.yul\":17760:18126   */\n      swap2\n      swap1\n      pop\n      jump\t// out\n        /* \"#utility.yul\":18132:18551   */\n    tag_183:\n        /* \"#utility.yul\":18298:18302   */\n      0x00\n        /* \"#utility.yul\":18336:18338   */\n      0x20\n        /* \"#utility.yul\":18325:18334   */\n      dup3\n        /* \"#utility.yul\":18321:18339   */\n      add\n        /* \"#utility.yul\":18313:18339   */\n      swap1\n      pop\n        /* \"#utility.yul\":18385:18394   */\n      dup2\n        /* \"#utility.yul\":18379:18383   */\n      dup2\n        /* \"#utility.yul\":18375:18395   */\n      sub\n        /* \"#utility.yul\":18371:18372   */\n      0x00\n        /* \"#utility.yul\":18360:18369   */\n      dup4\n        /* \"#utility.yul\":18356:18373   */\n      add\n        /* \"#utility.yul\":18349:18396   */\n      mstore\n        /* \"#utility.yul\":18413:18544   */\n      tag_773\n        /* \"#utility.yul\":18539:18543   */\n      dup2\n        /* \"#utility.yul\":18413:18544   */\n      tag_582\n      jump\t// in\n    tag_773:\n        /* \"#utility.yul\":18405:18544   */\n      swap1\n      pop\n        /* \"#utility.yul\":18132:18551   */\n      swap2\n      swap1\n      pop\n      jump\t// out\n        /* \"#utility.yul\":18557:18700   */\n    tag_583:\n        /* \"#utility.yul\":18614:18619   */\n      0x00\n        /* \"#utility.yul\":18645:18651   */\n      dup2\n        /* \"#utility.yul\":18639:18652   */\n      mload\n        /* \"#utility.yul\":18630:18652   */\n      swap1\n      pop\n        /* \"#utility.yul\":18661:18694   */\n      tag_775\n        /* \"#utility.yul\":18688:18693   */\n      dup2\n        /* \"#utility.yul\":18661:18694   */\n      tag_535\n      jump\t// in\n    tag_775:\n        /* \"#utility.yul\":18557:18700   */\n      swap3\n      swap2\n      pop\n      pop\n      jump\t// out\n        /* \"#utility.yul\":18706:19057   */\n    tag_189:\n        /* \"#utility.yul\":18776:18782   */\n      0x00\n        /* \"#utility.yul\":18825:18827   */\n      0x20\n        /* \"#utility.yul\":18813:18822   */\n      dup3\n        /* \"#utility.yul\":18804:18811   */\n      dup5\n        /* \"#utility.yul\":18800:18823   */\n      sub\n        /* \"#utility.yul\":18796:18828   */\n      slt\n        /* \"#utility.yul\":18793:18912   */\n      iszero\n      tag_777\n      jumpi\n        /* \"#utility.yul\":18831:18910   */\n      tag_778\n      tag_532\n      jump\t// in\n    tag_778:\n        /* \"#utility.yul\":18793:18912   */\n    tag_777:\n        /* \"#utility.yul\":18951:18952   */\n      0x00\n        /* \"#utility.yul\":18976:19040   */\n      tag_779\n        /* \"#utility.yul\":19032:19039   */\n      dup5\n        /* \"#utility.yul\":19023:19029   */\n      dup3\n        /* \"#utility.yul\":19012:19021   */\n      dup6\n        /* \"#utility.yul\":19008:19030   */\n      add\n        /* \"#utility.yul\":18976:19040   */\n      tag_583\n      jump\t// in\n    tag_779:\n        /* \"#utility.yul\":18966:19040   */\n      swap2\n      pop\n        /* \"#utility.yul\":18922:19050   */\n      pop\n        /* \"#utility.yul\":18706:19057   */\n      swap3\n      swap2\n      pop\n      pop\n      jump\t// out\n        /* \"#utility.yul\":19063:19616   */\n    tag_223:\n        /* \"#utility.yul\":19240:19244   */\n      0x00\n        /* \"#utility.yul\":19278:19281   */\n      0x80\n        /* \"#utility.yul\":19267:19276   */\n      dup3\n        /* \"#utility.yul\":19263:19282   */\n      add\n        /* \"#utility.yul\":19255:19282   */\n      swap1\n      pop\n        /* \"#utility.yul\":19292:19363   */\n      tag_781\n        /* \"#utility.yul\":19360:19361   */\n      0x00\n        /* \"#utility.yul\":19349:19358   */\n      dup4\n        /* \"#utility.yul\":19345:19362   */\n      add\n        /* \"#utility.yul\":19336:19342   */\n      dup8\n        /* \"#utility.yul\":19292:19363   */\n      tag_552\n      jump\t// in\n    tag_781:\n        /* \"#utility.yul\":19373:19445   */\n      tag_782\n        /* \"#utility.yul\":19441:19443   */\n      0x20\n        /* \"#utility.yul\":19430:19439   */\n      dup4\n        /* \"#utility.yul\":19426:19444   */\n      add\n        /* \"#utility.yul\":19417:19423   */\n      dup7\n        /* \"#utility.yul\":19373:19445   */\n      tag_552\n      jump\t// in\n    tag_782:\n        /* \"#utility.yul\":19455:19527   */\n      tag_783\n        /* \"#utility.yul\":19523:19525   */\n      0x40\n        /* \"#utility.yul\":19512:19521   */\n      dup4\n        /* \"#utility.yul\":19508:19526   */\n      add\n        /* \"#utility.yul\":19499:19505   */\n      dup6\n        /* \"#utility.yul\":19455:19527   */\n      tag_539\n      jump\t// in\n    tag_783:\n        /* \"#utility.yul\":19537:19609   */\n      tag_784\n        /* \"#utility.yul\":19605:19607   */\n      0x60\n        /* \"#utility.yul\":19594:19603   */\n      dup4\n        /* \"#utility.yul\":19590:19608   */\n      add\n        /* \"#utility.yul\":19581:19587   */\n      dup5\n        /* \"#utility.yul\":19537:19609   */\n      tag_539\n      jump\t// in\n    tag_784:\n        /* \"#utility.yul\":19063:19616   */\n      swap6\n      swap5\n      pop\n      pop\n      pop\n      pop\n      pop\n      jump\t// out\n        /* \"#utility.yul\":19622:19795   */\n    tag_584:\n        /* \"#utility.yul\":19762:19787   */\n      0x537943726f774261727465723a20464f5242494444454e000000000000000000\n        /* \"#utility.yul\":19758:19759   */\n      0x00\n        /* \"#utility.yul\":19750:19756   */\n      dup3\n        /* \"#utility.yul\":19746:19760   */\n      add\n        /* \"#utility.yul\":19739:19788   */\n      mstore\n        /* \"#utility.yul\":19622:19795   */\n      pop\n      jump\t// out\n        /* \"#utility.yul\":19801:20167   */\n    tag_585:\n        /* \"#utility.yul\":19943:19946   */\n      0x00\n        /* \"#utility.yul\":19964:20031   */\n      tag_787\n        /* \"#utility.yul\":20028:20030   */\n      0x17\n        /* \"#utility.yul\":20023:20026   */\n      dup4\n        /* \"#utility.yul\":19964:20031   */\n      tag_567\n      jump\t// in\n    tag_787:\n        /* \"#utility.yul\":19957:20031   */\n      swap2\n      pop\n        /* \"#utility.yul\":20040:20133   */\n      tag_788\n        /* \"#utility.yul\":20129:20132   */\n      dup3\n        /* \"#utility.yul\":20040:20133   */\n      tag_584\n      jump\t// in\n    tag_788:\n        /* \"#utility.yul\":20158:20160   */\n      0x20\n        /* \"#utility.yul\":20153:20156   */\n      dup3\n        /* \"#utility.yul\":20149:20161   */\n      add\n        /* \"#utility.yul\":20142:20161   */\n      swap1\n      pop\n        /* \"#utility.yul\":19801:20167   */\n      swap2\n      swap1\n      pop\n      jump\t// out\n        /* \"#utility.yul\":20173:20592   */\n    tag_269:\n        /* \"#utility.yul\":20339:20343   */\n      0x00\n        /* \"#utility.yul\":20377:20379   */\n      0x20\n        /* \"#utility.yul\":20366:20375   */\n      dup3\n        /* \"#utility.yul\":20362:20380   */\n      add\n        /* \"#utility.yul\":20354:20380   */\n      swap1\n      pop\n        /* \"#utility.yul\":20426:20435   */\n      dup2\n        /* \"#utility.yul\":20420:20424   */\n      dup2\n        /* \"#utility.yul\":20416:20436   */\n      sub\n        /* \"#utility.yul\":20412:20413   */\n      0x00\n        /* \"#utility.yul\":20401:20410   */\n      dup4\n        /* \"#utility.yul\":20397:20414   */\n      add\n        /* \"#utility.yul\":20390:20437   */\n      mstore\n        /* \"#utility.yul\":20454:20585   */\n      tag_790\n        /* \"#utility.yul\":20580:20584   */\n      dup2\n        /* \"#utility.yul\":20454:20585   */\n      tag_585\n      jump\t// in\n    tag_790:\n        /* \"#utility.yul\":20446:20585   */\n      swap1\n      pop\n        /* \"#utility.yul\":20173:20592   */\n      swap2\n      swap1\n      pop\n      jump\t// out\n        /* \"#utility.yul\":20598:20818   */\n    tag_586:\n        /* \"#utility.yul\":20738:20772   */\n      0x537943726f774261727465723a20414c52454144595f494e495449414c495a45\n        /* \"#utility.yul\":20734:20735   */\n      0x00\n        /* \"#utility.yul\":20726:20732   */\n      dup3\n        /* \"#utility.yul\":20722:20736   */\n      add\n        /* \"#utility.yul\":20715:20773   */\n      mstore\n        /* \"#utility.yul\":20807:20810   */\n      0x4400000000000000000000000000000000000000000000000000000000000000\n        /* \"#utility.yul\":20802:20804   */\n      0x20\n        /* \"#utility.yul\":20794:20800   */\n      dup3\n        /* \"#utility.yul\":20790:20805   */\n      add\n        /* \"#utility.yul\":20783:20811   */\n      mstore\n        /* \"#utility.yul\":20598:20818   */\n      pop\n      jump\t// out\n        /* \"#utility.yul\":20824:21190   */\n    tag_587:\n        /* \"#utility.yul\":20966:20969   */\n      0x00\n        /* \"#utility.yul\":20987:21054   */\n      tag_793\n        /* \"#utility.yul\":21051:21053   */\n      0x21\n        /* \"#utility.yul\":21046:21049   */\n      dup4\n        /* \"#utility.yul\":20987:21054   */\n      tag_567\n      jump\t// in\n    tag_793:\n        /* \"#utility.yul\":20980:21054   */\n      swap2\n      pop\n        /* \"#utility.yul\":21063:21156   */\n      tag_794\n        /* \"#utility.yul\":21152:21155   */\n      dup3\n        /* \"#utility.yul\":21063:21156   */\n      tag_586\n      jump\t// in\n    tag_794:\n        /* \"#utility.yul\":21181:21183   */\n      0x40\n        /* \"#utility.yul\":21176:21179   */\n      dup3\n        /* \"#utility.yul\":21172:21184   */\n      add\n        /* \"#utility.yul\":21165:21184   */\n      swap1\n      pop\n        /* \"#utility.yul\":20824:21190   */\n      swap2\n      swap1\n      pop\n      jump\t// out\n        /* \"#utility.yul\":21196:21615   */\n    tag_281:\n        /* \"#utility.yul\":21362:21366   */\n      0x00\n        /* \"#utility.yul\":21400:21402   */\n      0x20\n        /* \"#utility.yul\":21389:21398   */\n      dup3\n        /* \"#utility.yul\":21385:21403   */\n      add\n        /* \"#utility.yul\":21377:21403   */\n      swap1\n      pop\n        /* \"#utility.yul\":21449:21458   */\n      dup2\n        /* \"#utility.yul\":21443:21447   */\n      dup2\n        /* \"#utility.yul\":21439:21459   */\n      sub\n        /* \"#utility.yul\":21435:21436   */\n      0x00\n        /* \"#utility.yul\":21424:21433   */\n      dup4\n        /* \"#utility.yul\":21420:21437   */\n      add\n        /* \"#utility.yul\":21413:21460   */\n      mstore\n        /* \"#utility.yul\":21477:21608   */\n      tag_796\n        /* \"#utility.yul\":21603:21607   */\n      dup2\n        /* \"#utility.yul\":21477:21608   */\n      tag_587\n      jump\t// in\n    tag_796:\n        /* \"#utility.yul\":21469:21608   */\n      swap1\n      pop\n        /* \"#utility.yul\":21196:21615   */\n      swap2\n      swap1\n      pop\n      jump\t// out\n        /* \"#utility.yul\":21621:21798   */\n    tag_588:\n        /* \"#utility.yul\":21761:21790   */\n      0x537943726f774261727465723a20504153545f444541444c494e450000000000\n        /* \"#utility.yul\":21757:21758   */\n      0x00\n        /* \"#utility.yul\":21749:21755   */\n      dup3\n        /* \"#utility.yul\":21745:21759   */\n      add\n        /* \"#utility.yul\":21738:21791   */\n      mstore\n        /* \"#utility.yul\":21621:21798   */\n      pop\n      jump\t// out\n        /* \"#utility.yul\":21804:22170   */\n    tag_589:\n        /* \"#utility.yul\":21946:21949   */\n      0x00\n        /* \"#utility.yul\":21967:22034   */\n      tag_799\n        /* \"#utility.yul\":22031:22033   */\n      0x1b\n        /* \"#utility.yul\":22026:22029   */\n      dup4\n        /* \"#utility.yul\":21967:22034   */\n      tag_567\n      jump\t// in\n    tag_799:\n        /* \"#utility.yul\":21960:22034   */\n      swap2\n      pop\n        /* \"#utility.yul\":22043:22136   */\n      tag_800\n        /* \"#utility.yul\":22132:22135   */\n      dup3\n        /* \"#utility.yul\":22043:22136   */\n      tag_588\n      jump\t// in\n    tag_800:\n        /* \"#utility.yul\":22161:22163   */\n      0x20\n        /* \"#utility.yul\":22156:22159   */\n      dup3\n        /* \"#utility.yul\":22152:22164   */\n      add\n        /* \"#utility.yul\":22145:22164   */\n      swap1\n      pop\n        /* \"#utility.yul\":21804:22170   */\n      swap2\n      swap1\n      pop\n      jump\t// out\n        /* \"#utility.yul\":22176:22595   */\n    tag_284:\n        /* \"#utility.yul\":22342:22346   */\n      0x00\n        /* \"#utility.yul\":22380:22382   */\n      0x20\n        /* \"#utility.yul\":22369:22378   */\n      dup3\n        /* \"#utility.yul\":22365:22383   */\n      add\n        /* \"#utility.yul\":22357:22383   */\n      swap1\n      pop\n        /* \"#utility.yul\":22429:22438   */\n      dup2\n        /* \"#utility.yul\":22423:22427   */\n      dup2\n        /* \"#utility.yul\":22419:22439   */\n      sub\n        /* \"#utility.yul\":22415:22416   */\n      0x00\n        /* \"#utility.yul\":22404:22413   */\n      dup4\n        /* \"#utility.yul\":22400:22417   */\n      add\n        /* \"#utility.yul\":22393:22440   */\n      mstore\n        /* \"#utility.yul\":22457:22588   */\n      tag_802\n        /* \"#utility.yul\":22583:22587   */\n      dup2\n        /* \"#utility.yul\":22457:22588   */\n      tag_589\n      jump\t// in\n    tag_802:\n        /* \"#utility.yul\":22449:22588   */\n      swap1\n      pop\n        /* \"#utility.yul\":22176:22595   */\n      swap2\n      swap1\n      pop\n      jump\t// out\n        /* \"#utility.yul\":22601:22822   */\n    tag_590:\n        /* \"#utility.yul\":22741:22775   */\n      0x537943726f774261727465723a20494e53554646494349454e545f4445504f53\n        /* \"#utility.yul\":22737:22738   */\n      0x00\n        /* \"#utility.yul\":22729:22735   */\n      dup3\n        /* \"#utility.yul\":22725:22739   */\n      add\n        /* \"#utility.yul\":22718:22776   */\n      mstore\n        /* \"#utility.yul\":22810:22814   */\n      0x4954000000000000000000000000000000000000000000000000000000000000\n        /* \"#utility.yul\":22805:22807   */\n      0x20\n        /* \"#utility.yul\":22797:22803   */\n      dup3\n        /* \"#utility.yul\":22793:22808   */\n      add\n        /* \"#utility.yul\":22786:22815   */\n      mstore\n        /* \"#utility.yul\":22601:22822   */\n      pop\n      jump\t// out\n        /* \"#utility.yul\":22828:23194   */\n    tag_591:\n        /* \"#utility.yul\":22970:22973   */\n      0x00\n        /* \"#utility.yul\":22991:23058   */\n      tag_805\n        /* \"#utility.yul\":23055:23057   */\n      0x22\n        /* \"#utility.yul\":23050:23053   */\n      dup4\n        /* \"#utility.yul\":22991:23058   */\n      tag_567\n      jump\t// in\n    tag_805:\n        /* \"#utility.yul\":22984:23058   */\n      swap2\n      pop\n        /* \"#utility.yul\":23067:23160   */\n      tag_806\n        /* \"#utility.yul\":23156:23159   */\n      dup3\n        /* \"#utility.yul\":23067:23160   */\n      tag_590\n      jump\t// in\n    tag_806:\n        /* \"#utility.yul\":23185:23187   */\n      0x40\n        /* \"#utility.yul\":23180:23183   */\n      dup3\n        /* \"#utility.yul\":23176:23188   */\n      add\n        /* \"#utility.yul\":23169:23188   */\n      swap1\n      pop\n        /* \"#utility.yul\":22828:23194   */\n      swap2\n      swap1\n      pop\n      jump\t// out\n        /* \"#utility.yul\":23200:23619   */\n    tag_291:\n        /* \"#utility.yul\":23366:23370   */\n      0x00\n        /* \"#utility.yul\":23404:23406   */\n      0x20\n        /* \"#utility.yul\":23393:23402   */\n      dup3\n        /* \"#utility.yul\":23389:23407   */\n      add\n        /* \"#utility.yul\":23381:23407   */\n      swap1\n      pop\n        /* \"#utility.yul\":23453:23462   */\n      dup2\n        /* \"#utility.yul\":23447:23451   */\n      dup2\n        /* \"#utility.yul\":23443:23463   */\n      sub\n        /* \"#utility.yul\":23439:23440   */\n      0x00\n        /* \"#utility.yul\":23428:23437   */\n      dup4\n        /* \"#utility.yul\":23424:23441   */\n      add\n        /* \"#utility.yul\":23417:23464   */\n      mstore\n        /* \"#utility.yul\":23481:23612   */\n      tag_808\n        /* \"#utility.yul\":23607:23611   */\n      dup2\n        /* \"#utility.yul\":23481:23612   */\n      tag_591\n      jump\t// in\n    tag_808:\n        /* \"#utility.yul\":23473:23612   */\n      swap1\n      pop\n        /* \"#utility.yul\":23200:23619   */\n      swap2\n      swap1\n      pop\n      jump\t// out\n        /* \"#utility.yul\":23625:23805   */\n    tag_592:\n        /* \"#utility.yul\":23673:23750   */\n      0x4e487b7100000000000000000000000000000000000000000000000000000000\n        /* \"#utility.yul\":23670:23671   */\n      0x00\n        /* \"#utility.yul\":23663:23751   */\n      mstore\n        /* \"#utility.yul\":23770:23774   */\n      0x11\n        /* \"#utility.yul\":23767:23768   */\n      0x04\n        /* \"#utility.yul\":23760:23775   */\n      mstore\n        /* \"#utility.yul\":23794:23798   */\n      0x24\n        /* \"#utility.yul\":23791:23792   */\n      0x00\n        /* \"#utility.yul\":23784:23799   */\n      revert\n        /* \"#utility.yul\":23811:24159   */\n    tag_375:\n        /* \"#utility.yul\":23851:23858   */\n      0x00\n        /* \"#utility.yul\":23874:23894   */\n      tag_811\n        /* \"#utility.yul\":23892:23893   */\n      dup3\n        /* \"#utility.yul\":23874:23894   */\n      tag_534\n      jump\t// in\n    tag_811:\n        /* \"#utility.yul\":23869:23894   */\n      swap2\n      pop\n        /* \"#utility.yul\":23908:23928   */\n      tag_812\n        /* \"#utility.yul\":23926:23927   */\n      dup4\n        /* \"#utility.yul\":23908:23928   */\n      tag_534\n      jump\t// in\n    tag_812:\n        /* \"#utility.yul\":23903:23928   */\n      swap3\n      pop\n        /* \"#utility.yul\":24096:24097   */\n      dup2\n        /* \"#utility.yul\":24028:24094   */\n      0xffffffffffffffffffffffffffffffffffffffffffffffffffffffffffffffff\n        /* \"#utility.yul\":24024:24098   */\n      div\n        /* \"#utility.yul\":24021:24022   */\n      dup4\n        /* \"#utility.yul\":24018:24099   */\n      gt\n        /* \"#utility.yul\":24013:24014   */\n      dup3\n        /* \"#utility.yul\":24006:24015   */\n      iszero\n        /* \"#utility.yul\":23999:24016   */\n      iszero\n        /* \"#utility.yul\":23995:24100   */\n      and\n        /* \"#utility.yul\":23992:24123   */\n      iszero\n      tag_813\n      jumpi\n        /* \"#utility.yul\":24103:24121   */\n      tag_814\n      tag_592\n      jump\t// in\n    tag_814:\n        /* \"#utility.yul\":23992:24123   */\n    tag_813:\n        /* \"#utility.yul\":24151:24152   */\n      dup3\n        /* \"#utility.yul\":24148:24149   */\n      dup3\n        /* \"#utility.yul\":24144:24153   */\n      mul\n        /* \"#utility.yul\":24133:24153   */\n      swap1\n      pop\n        /* \"#utility.yul\":23811:24159   */\n      swap3\n      swap2\n      pop\n      pop\n      jump\t// out\n        /* \"#utility.yul\":24165:24345   */\n    tag_593:\n        /* \"#utility.yul\":24213:24290   */\n      0x4e487b7100000000000000000000000000000000000000000000000000000000\n        /* \"#utility.yul\":24210:24211   */\n      0x00\n        /* \"#utility.yul\":24203:24291   */\n      mstore\n        /* \"#utility.yul\":24310:24314   */\n      0x12\n        /* \"#utility.yul\":24307:24308   */\n      0x04\n        /* \"#utility.yul\":24300:24315   */\n      mstore\n        /* \"#utility.yul\":24334:24338   */\n      0x24\n        /* \"#utility.yul\":24331:24332   */\n      0x00\n        /* \"#utility.yul\":24324:24339   */\n      revert\n        /* \"#utility.yul\":24351:24536   */\n    tag_377:\n        /* \"#utility.yul\":24391:24392   */\n      0x00\n        /* \"#utility.yul\":24408:24428   */\n      tag_817\n        /* \"#utility.yul\":24426:24427   */\n      dup3\n        /* \"#utility.yul\":24408:24428   */\n      tag_534\n      jump\t// in\n    tag_817:\n        /* \"#utility.yul\":24403:24428   */\n      swap2\n      pop\n        /* \"#utility.yul\":24442:24462   */\n      tag_818\n        /* \"#utility.yul\":24460:24461   */\n      dup4\n        /* \"#utility.yul\":24442:24462   */\n      tag_534\n      jump\t// in\n    tag_818:\n        /* \"#utility.yul\":24437:24462   */\n      swap3\n      pop\n        /* \"#utility.yul\":24481:24482   */\n      dup3\n        /* \"#utility.yul\":24471:24506   */\n      tag_819\n      jumpi\n        /* \"#utility.yul\":24486:24504   */\n      tag_820\n      tag_593\n      jump\t// in\n    tag_820:\n        /* \"#utility.yul\":24471:24506   */\n    tag_819:\n        /* \"#utility.yul\":24528:24529   */\n      dup3\n        /* \"#utility.yul\":24525:24526   */\n      dup3\n        /* \"#utility.yul\":24521:24530   */\n      div\n        /* \"#utility.yul\":24516:24530   */\n      swap1\n      pop\n        /* \"#utility.yul\":24351:24536   */\n      swap3\n      swap2\n      pop\n      pop\n      jump\t// out\n        /* \"#utility.yul\":24542:24722   */\n    tag_384:\n        /* \"#utility.yul\":24590:24667   */\n      0x4e487b7100000000000000000000000000000000000000000000000000000000\n        /* \"#utility.yul\":24587:24588   */\n      0x00\n        /* \"#utility.yul\":24580:24668   */\n      mstore\n        /* \"#utility.yul\":24687:24691   */\n      0x41\n        /* \"#utility.yul\":24684:24685   */\n      0x04\n        /* \"#utility.yul\":24677:24692   */\n      mstore\n        /* \"#utility.yul\":24711:24715   */\n      0x24\n        /* \"#utility.yul\":24708:24709   */\n      0x00\n        /* \"#utility.yul\":24701:24716   */\n      revert\n        /* \"#utility.yul\":24728:24908   */\n    tag_397:\n        /* \"#utility.yul\":24776:24853   */\n      0x4e487b7100000000000000000000000000000000000000000000000000000000\n        /* \"#utility.yul\":24773:24774   */\n      0x00\n        /* \"#utility.yul\":24766:24854   */\n      mstore\n        /* \"#utility.yul\":24873:24877   */\n      0x32\n        /* \"#utility.yul\":24870:24871   */\n      0x04\n        /* \"#utility.yul\":24863:24878   */\n      mstore\n        /* \"#utility.yul\":24897:24901   */\n      0x24\n        /* \"#utility.yul\":24894:24895   */\n      0x00\n        /* \"#utility.yul\":24887:24902   */\n      revert\n        /* \"#utility.yul\":24914:25147   */\n    tag_412:\n        /* \"#utility.yul\":24953:24956   */\n      0x00\n        /* \"#utility.yul\":24976:25000   */\n      tag_824\n        /* \"#utility.yul\":24994:24999   */\n      dup3\n        /* \"#utility.yul\":24976:25000   */\n      tag_534\n      jump\t// in\n    tag_824:\n        /* \"#utility.yul\":24967:25000   */\n      swap2\n      pop\n        /* \"#utility.yul\":25022:25088   */\n      0xffffffffffffffffffffffffffffffffffffffffffffffffffffffffffffffff\n        /* \"#utility.yul\":25015:25020   */\n      dup3\n        /* \"#utility.yul\":25012:25089   */\n      sub\n        /* \"#utility.yul\":25009:25112   */\n      tag_825\n      jumpi\n        /* \"#utility.yul\":25092:25110   */\n      tag_826\n      tag_592\n      jump\t// in\n    tag_826:\n        /* \"#utility.yul\":25009:25112   */\n    tag_825:\n        /* \"#utility.yul\":25139:25140   */\n      0x01\n        /* \"#utility.yul\":25132:25137   */\n      dup3\n        /* \"#utility.yul\":25128:25141   */\n      add\n        /* \"#utility.yul\":25121:25141   */\n      swap1\n      pop\n        /* \"#utility.yul\":24914:25147   */\n      swap2\n      swap1\n      pop\n      jump\t// out\n        /* \"#utility.yul\":25153:25378   */\n    tag_594:\n        /* \"#utility.yul\":25293:25327   */\n      0x4f776e61626c653a206e6577206f776e657220697320746865207a65726f2061\n        /* \"#utility.yul\":25289:25290   */\n      0x00\n        /* \"#utility.yul\":25281:25287   */\n      dup3\n        /* \"#utility.yul\":25277:25291   */\n      add\n        /* \"#utility.yul\":25270:25328   */\n      mstore\n        /* \"#utility.yul\":25362:25370   */\n      0x6464726573730000000000000000000000000000000000000000000000000000\n        /* \"#utility.yul\":25357:25359   */\n      0x20\n        /* \"#utility.yul\":25349:25355   */\n      dup3\n        /* \"#utility.yul\":25345:25360   */\n      add\n        /* \"#utility.yul\":25338:25371   */\n      mstore\n        /* \"#utility.yul\":25153:25378   */\n      pop\n      jump\t// out\n        /* \"#utility.yul\":25384:25750   */\n    tag_595:\n        /* \"#utility.yul\":25526:25529   */\n      0x00\n        /* \"#utility.yul\":25547:25614   */\n      tag_829\n        /* \"#utility.yul\":25611:25613   */\n      0x26\n        /* \"#utility.yul\":25606:25609   */\n      dup4\n        /* \"#utility.yul\":25547:25614   */\n      tag_567\n      jump\t// in\n    tag_829:\n        /* \"#utility.yul\":25540:25614   */\n      swap2\n      pop\n        /* \"#utility.yul\":25623:25716   */\n      tag_830\n        /* \"#utility.yul\":25712:25715   */\n      dup3\n        /* \"#utility.yul\":25623:25716   */\n      tag_594\n      jump\t// in\n    tag_830:\n        /* \"#utility.yul\":25741:25743   */\n      0x40\n        /* \"#utility.yul\":25736:25739   */\n      dup3\n        /* \"#utility.yul\":25732:25744   */\n      add\n        /* \"#utility.yul\":25725:25744   */\n      swap1\n      pop\n        /* \"#utility.yul\":25384:25750   */\n      swap2\n      swap1\n      pop\n      jump\t// out\n        /* \"#utility.yul\":25756:26175   */\n    tag_421:\n        /* \"#utility.yul\":25922:25926   */\n      0x00\n        /* \"#utility.yul\":25960:25962   */\n      0x20\n        /* \"#utility.yul\":25949:25958   */\n      dup3\n        /* \"#utility.yul\":25945:25963   */\n      add\n        /* \"#utility.yul\":25937:25963   */\n      swap1\n      pop\n        /* \"#utility.yul\":26009:26018   */\n      dup2\n        /* \"#utility.yul\":26003:26007   */\n      dup2\n        /* \"#utility.yul\":25999:26019   */\n      sub\n        /* \"#utility.yul\":25995:25996   */\n      0x00\n        /* \"#utility.yul\":25984:25993   */\n      dup4\n        /* \"#utility.yul\":25980:25997   */\n      add\n        /* \"#utility.yul\":25973:26020   */\n      mstore\n        /* \"#utility.yul\":26037:26168   */\n      tag_832\n        /* \"#utility.yul\":26163:26167   */\n      dup2\n        /* \"#utility.yul\":26037:26168   */\n      tag_595\n      jump\t// in\n    tag_832:\n        /* \"#utility.yul\":26029:26168   */\n      swap1\n      pop\n        /* \"#utility.yul\":25756:26175   */\n      swap2\n      swap1\n      pop\n      jump\t// out\n        /* \"#utility.yul\":26181:26402   */\n    tag_596:\n        /* \"#utility.yul\":26321:26355   */\n      0x537943726f774261727465723a20494e53554646494349454e545f42414c414e\n        /* \"#utility.yul\":26317:26318   */\n      0x00\n        /* \"#utility.yul\":26309:26315   */\n      dup3\n        /* \"#utility.yul\":26305:26319   */\n      add\n        /* \"#utility.yul\":26298:26356   */\n      mstore\n        /* \"#utility.yul\":26390:26394   */\n      0x4345000000000000000000000000000000000000000000000000000000000000\n        /* \"#utility.yul\":26385:26387   */\n      0x20\n        /* \"#utility.yul\":26377:26383   */\n      dup3\n        /* \"#utility.yul\":26373:26388   */\n      add\n        /* \"#utility.yul\":26366:26395   */\n      mstore\n        /* \"#utility.yul\":26181:26402   */\n      pop\n      jump\t// out\n        /* \"#utility.yul\":26408:26774   */\n    tag_597:\n        /* \"#utility.yul\":26550:26553   */\n      0x00\n        /* \"#utility.yul\":26571:26638   */\n      tag_835\n        /* \"#utility.yul\":26635:26637   */\n      0x22\n        /* \"#utility.yul\":26630:26633   */\n      dup4\n        /* \"#utility.yul\":26571:26638   */\n      tag_567\n      jump\t// in\n    tag_835:\n        /* \"#utility.yul\":26564:26638   */\n      swap2\n      pop\n        /* \"#utility.yul\":26647:26740   */\n      tag_836\n        /* \"#utility.yul\":26736:26739   */\n      dup3\n        /* \"#utility.yul\":26647:26740   */\n      tag_596\n      jump\t// in\n    tag_836:\n        /* \"#utility.yul\":26765:26767   */\n      0x40\n        /* \"#utility.yul\":26760:26763   */\n      dup3\n        /* \"#utility.yul\":26756:26768   */\n      add\n        /* \"#utility.yul\":26749:26768   */\n      swap1\n      pop\n        /* \"#utility.yul\":26408:26774   */\n      swap2\n      swap1\n      pop\n      jump\t// out\n        /* \"#utility.yul\":26780:27199   */\n    tag_430:\n        /* \"#utility.yul\":26946:26950   */\n      0x00\n        /* \"#utility.yul\":26984:26986   */\n      0x20\n        /* \"#utility.yul\":26973:26982   */\n      dup3\n        /* \"#utility.yul\":26969:26987   */\n      add\n        /* \"#utility.yul\":26961:26987   */\n      swap1\n      pop\n        /* \"#utility.yul\":27033:27042   */\n      dup2\n        /* \"#utility.yul\":27027:27031   */\n      dup2\n        /* \"#utility.yul\":27023:27043   */\n      sub\n        /* \"#utility.yul\":27019:27020   */\n      0x00\n        /* \"#utility.yul\":27008:27017   */\n      dup4\n        /* \"#utility.yul\":27004:27021   */\n      add\n        /* \"#utility.yul\":26997:27044   */\n      mstore\n        /* \"#utility.yul\":27061:27192   */\n      tag_838\n        /* \"#utility.yul\":27187:27191   */\n      dup2\n        /* \"#utility.yul\":27061:27192   */\n      tag_597\n      jump\t// in\n    tag_838:\n        /* \"#utility.yul\":27053:27192   */\n      swap1\n      pop\n        /* \"#utility.yul\":26780:27199   */\n      swap2\n      swap1\n      pop\n      jump\t// out\n        /* \"#utility.yul\":27205:27435   */\n    tag_598:\n        /* \"#utility.yul\":27345:27379   */\n      0x537943726f774261727465723a20494e53554646494349454e545f434f4e5452\n        /* \"#utility.yul\":27341:27342   */\n      0x00\n        /* \"#utility.yul\":27333:27339   */\n      dup3\n        /* \"#utility.yul\":27329:27343   */\n      add\n        /* \"#utility.yul\":27322:27380   */\n      mstore\n        /* \"#utility.yul\":27414:27427   */\n      0x4143545f42414c414e4345000000000000000000000000000000000000000000\n        /* \"#utility.yul\":27409:27411   */\n      0x20\n        /* \"#utility.yul\":27401:27407   */\n      dup3\n        /* \"#utility.yul\":27397:27412   */\n      add\n        /* \"#utility.yul\":27390:27428   */\n      mstore\n        /* \"#utility.yul\":27205:27435   */\n      pop\n      jump\t// out\n        /* \"#utility.yul\":27441:27807   */\n    tag_599:\n        /* \"#utility.yul\":27583:27586   */\n      0x00\n        /* \"#utility.yul\":27604:27671   */\n      tag_841\n        /* \"#utility.yul\":27668:27670   */\n      0x2b\n        /* \"#utility.yul\":27663:27666   */\n      dup4\n        /* \"#utility.yul\":27604:27671   */\n      tag_567\n      jump\t// in\n    tag_841:\n        /* \"#utility.yul\":27597:27671   */\n      swap2\n      pop\n        /* \"#utility.yul\":27680:27773   */\n      tag_842\n        /* \"#utility.yul\":27769:27772   */\n      dup3\n        /* \"#utility.yul\":27680:27773   */\n      tag_598\n      jump\t// in\n    tag_842:\n        /* \"#utility.yul\":27798:27800   */\n      0x40\n        /* \"#utility.yul\":27793:27796   */\n      dup3\n        /* \"#utility.yul\":27789:27801   */\n      add\n        /* \"#utility.yul\":27782:27801   */\n      swap1\n      pop\n        /* \"#utility.yul\":27441:27807   */\n      swap2\n      swap1\n      pop\n      jump\t// out\n        /* \"#utility.yul\":27813:28232   */\n    tag_438:\n        /* \"#utility.yul\":27979:27983   */\n      0x00\n        /* \"#utility.yul\":28017:28019   */\n      0x20\n        /* \"#utility.yul\":28006:28015   */\n      dup3\n        /* \"#utility.yul\":28002:28020   */\n      add\n        /* \"#utility.yul\":27994:28020   */\n      swap1\n      pop\n        /* \"#utility.yul\":28066:28075   */\n      dup2\n        /* \"#utility.yul\":28060:28064   */\n      dup2\n        /* \"#utility.yul\":28056:28076   */\n      sub\n        /* \"#utility.yul\":28052:28053   */\n      0x00\n        /* \"#utility.yul\":28041:28050   */\n      dup4\n        /* \"#utility.yul\":28037:28054   */\n      add\n        /* \"#utility.yul\":28030:28077   */\n      mstore\n        /* \"#utility.yul\":28094:28225   */\n      tag_844\n        /* \"#utility.yul\":28220:28224   */\n      dup2\n        /* \"#utility.yul\":28094:28225   */\n      tag_599\n      jump\t// in\n    tag_844:\n        /* \"#utility.yul\":28086:28225   */\n      swap1\n      pop\n        /* \"#utility.yul\":27813:28232   */\n      swap2\n      swap1\n      pop\n      jump\t// out\n        /* \"#utility.yul\":28238:28336   */\n    tag_600:\n        /* \"#utility.yul\":28289:28295   */\n      0x00\n        /* \"#utility.yul\":28323:28328   */\n      dup2\n        /* \"#utility.yul\":28317:28329   */\n      mload\n        /* \"#utility.yul\":28307:28329   */\n      swap1\n      pop\n        /* \"#utility.yul\":28238:28336   */\n      swap2\n      swap1\n      pop\n      jump\t// out\n        /* \"#utility.yul\":28342:28489   */\n    tag_601:\n        /* \"#utility.yul\":28443:28454   */\n      0x00\n        /* \"#utility.yul\":28480:28483   */\n      dup2\n        /* \"#utility.yul\":28465:28483   */\n      swap1\n      pop\n        /* \"#utility.yul\":28342:28489   */\n      swap3\n      swap2\n      pop\n      pop\n      jump\t// out\n        /* \"#utility.yul\":28495:28802   */\n    tag_602:\n        /* \"#utility.yul\":28563:28564   */\n      0x00\n        /* \"#utility.yul\":28573:28686   */\n    tag_848:\n        /* \"#utility.yul\":28587:28593   */\n      dup4\n        /* \"#utility.yul\":28584:28585   */\n      dup2\n        /* \"#utility.yul\":28581:28594   */\n      lt\n        /* \"#utility.yul\":28573:28686   */\n      iszero\n      tag_850\n      jumpi\n        /* \"#utility.yul\":28672:28673   */\n      dup1\n        /* \"#utility.yul\":28667:28670   */\n      dup3\n        /* \"#utility.yul\":28663:28674   */\n      add\n        /* \"#utility.yul\":28657:28675   */\n      mload\n        /* \"#utility.yul\":28653:28654   */\n      dup2\n        /* \"#utility.yul\":28648:28651   */\n      dup5\n        /* \"#utility.yul\":28644:28655   */\n      add\n        /* \"#utility.yul\":28637:28676   */\n      mstore\n        /* \"#utility.yul\":28609:28611   */\n      0x20\n        /* \"#utility.yul\":28606:28607   */\n      dup2\n        /* \"#utility.yul\":28602:28612   */\n      add\n        /* \"#utility.yul\":28597:28612   */\n      swap1\n      pop\n        /* \"#utility.yul\":28573:28686   */\n      jump(tag_848)\n    tag_850:\n        /* \"#utility.yul\":28704:28710   */\n      dup4\n        /* \"#utility.yul\":28701:28702   */\n      dup2\n        /* \"#utility.yul\":28698:28711   */\n      gt\n        /* \"#utility.yul\":28695:28796   */\n      iszero\n      tag_851\n      jumpi\n        /* \"#utility.yul\":28784:28785   */\n      0x00\n        /* \"#utility.yul\":28775:28781   */\n      dup5\n        /* \"#utility.yul\":28770:28773   */\n      dup5\n        /* \"#utility.yul\":28766:28782   */\n      add\n        /* \"#utility.yul\":28759:28786   */\n      mstore\n        /* \"#utility.yul\":28695:28796   */\n    tag_851:\n        /* \"#utility.yul\":28544:28802   */\n      pop\n        /* \"#utility.yul\":28495:28802   */\n      pop\n      pop\n      pop\n      jump\t// out\n        /* \"#utility.yul\":28808:29181   */\n    tag_603:\n        /* \"#utility.yul\":28912:28915   */\n      0x00\n        /* \"#utility.yul\":28940:28978   */\n      tag_853\n        /* \"#utility.yul\":28972:28977   */\n      dup3\n        /* \"#utility.yul\":28940:28978   */\n      tag_600\n      jump\t// in\n    tag_853:\n        /* \"#utility.yul\":28994:29082   */\n      tag_854\n        /* \"#utility.yul\":29075:29081   */\n      dup2\n        /* \"#utility.yul\":29070:29073   */\n      dup6\n        /* \"#utility.yul\":28994:29082   */\n      tag_601\n      jump\t// in\n    tag_854:\n        /* \"#utility.yul\":28987:29082   */\n      swap4\n      pop\n        /* \"#utility.yul\":29091:29143   */\n      tag_855\n        /* \"#utility.yul\":29136:29142   */\n      dup2\n        /* \"#utility.yul\":29131:29134   */\n      dup6\n        /* \"#utility.yul\":29124:29128   */\n      0x20\n        /* \"#utility.yul\":29117:29122   */\n      dup7\n        /* \"#utility.yul\":29113:29129   */\n      add\n        /* \"#utility.yul\":29091:29143   */\n      tag_602\n      jump\t// in\n    tag_855:\n        /* \"#utility.yul\":29168:29174   */\n      dup1\n        /* \"#utility.yul\":29163:29166   */\n      dup5\n        /* \"#utility.yul\":29159:29175   */\n      add\n        /* \"#utility.yul\":29152:29175   */\n      swap2\n      pop\n        /* \"#utility.yul\":28916:29181   */\n      pop\n        /* \"#utility.yul\":28808:29181   */\n      swap3\n      swap2\n      pop\n      pop\n      jump\t// out\n        /* \"#utility.yul\":29187:29458   */\n    tag_478:\n        /* \"#utility.yul\":29317:29320   */\n      0x00\n        /* \"#utility.yul\":29339:29432   */\n      tag_857\n        /* \"#utility.yul\":29428:29431   */\n      dup3\n        /* \"#utility.yul\":29419:29425   */\n      dup5\n        /* \"#utility.yul\":29339:29432   */\n      tag_603\n      jump\t// in\n    tag_857:\n        /* \"#utility.yul\":29332:29432   */\n      swap2\n      pop\n        /* \"#utility.yul\":29449:29452   */\n      dup2\n        /* \"#utility.yul\":29442:29452   */\n      swap1\n      pop\n        /* \"#utility.yul\":29187:29458   */\n      swap3\n      swap2\n      pop\n      pop\n      jump\t// out\n        /* \"#utility.yul\":29464:29686   */\n    tag_604:\n        /* \"#utility.yul\":29604:29638   */\n      0x5472616e7366657248656c7065723a204554485f5452414e534645525f464149\n        /* \"#utility.yul\":29600:29601   */\n      0x00\n        /* \"#utility.yul\":29592:29598   */\n      dup3\n        /* \"#utility.yul\":29588:29602   */\n      add\n        /* \"#utility.yul\":29581:29639   */\n      mstore\n        /* \"#utility.yul\":29673:29678   */\n      0x4c45440000000000000000000000000000000000000000000000000000000000\n        /* \"#utility.yul\":29668:29670   */\n      0x20\n        /* \"#utility.yul\":29660:29666   */\n      dup3\n        /* \"#utility.yul\":29656:29671   */\n      add\n        /* \"#utility.yul\":29649:29679   */\n      mstore\n        /* \"#utility.yul\":29464:29686   */\n      pop\n      jump\t// out\n        /* \"#utility.yul\":29692:30058   */\n    tag_605:\n        /* \"#utility.yul\":29834:29837   */\n      0x00\n        /* \"#utility.yul\":29855:29922   */\n      tag_860\n        /* \"#utility.yul\":29919:29921   */\n      0x23\n        /* \"#utility.yul\":29914:29917   */\n      dup4\n        /* \"#utility.yul\":29855:29922   */\n      tag_567\n      jump\t// in\n    tag_860:\n        /* \"#utility.yul\":29848:29922   */\n      swap2\n      pop\n        /* \"#utility.yul\":29931:30024   */\n      tag_861\n        /* \"#utility.yul\":30020:30023   */\n      dup3\n        /* \"#utility.yul\":29931:30024   */\n      tag_604\n      jump\t// in\n    tag_861:\n        /* \"#utility.yul\":30049:30051   */\n      0x40\n        /* \"#utility.yul\":30044:30047   */\n      dup3\n        /* \"#utility.yul\":30040:30052   */\n      add\n        /* \"#utility.yul\":30033:30052   */\n      swap1\n      pop\n        /* \"#utility.yul\":29692:30058   */\n      swap2\n      swap1\n      pop\n      jump\t// out\n        /* \"#utility.yul\":30064:30483   */\n    tag_484:\n        /* \"#utility.yul\":30230:30234   */\n      0x00\n        /* \"#utility.yul\":30268:30270   */\n      0x20\n        /* \"#utility.yul\":30257:30266   */\n      dup3\n        /* \"#utility.yul\":30253:30271   */\n      add\n        /* \"#utility.yul\":30245:30271   */\n      swap1\n      pop\n        /* \"#utility.yul\":30317:30326   */\n      dup2\n        /* \"#utility.yul\":30311:30315   */\n      dup2\n        /* \"#utility.yul\":30307:30327   */\n      sub\n        /* \"#utility.yul\":30303:30304   */\n      0x00\n        /* \"#utility.yul\":30292:30301   */\n      dup4\n        /* \"#utility.yul\":30288:30305   */\n      add\n        /* \"#utility.yul\":30281:30328   */\n      mstore\n        /* \"#utility.yul\":30345:30476   */\n      tag_863\n        /* \"#utility.yul\":30471:30475   */\n      dup2\n        /* \"#utility.yul\":30345:30476   */\n      tag_605\n      jump\t// in\n    tag_863:\n        /* \"#utility.yul\":30337:30476   */\n      swap1\n      pop\n        /* \"#utility.yul\":30064:30483   */\n      swap2\n      swap1\n      pop\n      jump\t// out\n        /* \"#utility.yul\":30489:30821   */\n    tag_487:\n        /* \"#utility.yul\":30610:30614   */\n      0x00\n        /* \"#utility.yul\":30648:30650   */\n      0x40\n        /* \"#utility.yul\":30637:30646   */\n      dup3\n        /* \"#utility.yul\":30633:30651   */\n      add\n        /* \"#utility.yul\":30625:30651   */\n      swap1\n      pop\n        /* \"#utility.yul\":30661:30732   */\n      tag_865\n        /* \"#utility.yul\":30729:30730   */\n      0x00\n        /* \"#utility.yul\":30718:30727   */\n      dup4\n        /* \"#utility.yul\":30714:30731   */\n      add\n        /* \"#utility.yul\":30705:30711   */\n      dup6\n        /* \"#utility.yul\":30661:30732   */\n      tag_552\n      jump\t// in\n    tag_865:\n        /* \"#utility.yul\":30742:30814   */\n      tag_866\n        /* \"#utility.yul\":30810:30812   */\n      0x20\n        /* \"#utility.yul\":30799:30808   */\n      dup4\n        /* \"#utility.yul\":30795:30813   */\n      add\n        /* \"#utility.yul\":30786:30792   */\n      dup5\n        /* \"#utility.yul\":30742:30814   */\n      tag_539\n      jump\t// in\n    tag_866:\n        /* \"#utility.yul\":30489:30821   */\n      swap4\n      swap3\n      pop\n      pop\n      pop\n      jump\t// out\n        /* \"#utility.yul\":30827:31008   */\n    tag_606:\n        /* \"#utility.yul\":30967:31000   */\n      0x5472616e7366657248656c7065723a205452414e534645525f4641494c454400\n        /* \"#utility.yul\":30963:30964   */\n      0x00\n        /* \"#utility.yul\":30955:30961   */\n      dup3\n        /* \"#utility.yul\":30951:30965   */\n      add\n        /* \"#utility.yul\":30944:31001   */\n      mstore\n        /* \"#utility.yul\":30827:31008   */\n      pop\n      jump\t// out\n        /* \"#utility.yul\":31014:31380   */\n    tag_607:\n        /* \"#utility.yul\":31156:31159   */\n      0x00\n        /* \"#utility.yul\":31177:31244   */\n      tag_869\n        /* \"#utility.yul\":31241:31243   */\n      0x1f\n        /* \"#utility.yul\":31236:31239   */\n      dup4\n        /* \"#utility.yul\":31177:31244   */\n      tag_567\n      jump\t// in\n    tag_869:\n        /* \"#utility.yul\":31170:31244   */\n      swap2\n      pop\n        /* \"#utility.yul\":31253:31346   */\n      tag_870\n        /* \"#utility.yul\":31342:31345   */\n      dup3\n        /* \"#utility.yul\":31253:31346   */\n      tag_606\n      jump\t// in\n    tag_870:\n        /* \"#utility.yul\":31371:31373   */\n      0x20\n        /* \"#utility.yul\":31366:31369   */\n      dup3\n        /* \"#utility.yul\":31362:31374   */\n      add\n        /* \"#utility.yul\":31355:31374   */\n      swap1\n      pop\n        /* \"#utility.yul\":31014:31380   */\n      swap2\n      swap1\n      pop\n      jump\t// out\n        /* \"#utility.yul\":31386:31805   */\n    tag_497:\n        /* \"#utility.yul\":31552:31556   */\n      0x00\n        /* \"#utility.yul\":31590:31592   */\n      0x20\n        /* \"#utility.yul\":31579:31588   */\n      dup3\n        /* \"#utility.yul\":31575:31593   */\n      add\n        /* \"#utility.yul\":31567:31593   */\n      swap1\n      pop\n        /* \"#utility.yul\":31639:31648   */\n      dup2\n        /* \"#utility.yul\":31633:31637   */\n      dup2\n        /* \"#utility.yul\":31629:31649   */\n      sub\n        /* \"#utility.yul\":31625:31626   */\n      0x00\n        /* \"#utility.yul\":31614:31623   */\n      dup4\n        /* \"#utility.yul\":31610:31627   */\n      add\n        /* \"#utility.yul\":31603:31650   */\n      mstore\n        /* \"#utility.yul\":31667:31798   */\n      tag_872\n        /* \"#utility.yul\":31793:31797   */\n      dup2\n        /* \"#utility.yul\":31667:31798   */\n      tag_607\n      jump\t// in\n    tag_872:\n        /* \"#utility.yul\":31659:31798   */\n      swap1\n      pop\n        /* \"#utility.yul\":31386:31805   */\n      swap2\n      swap1\n      pop\n      jump\t// out\n        /* \"#utility.yul\":31811:32253   */\n    tag_520:\n        /* \"#utility.yul\":31960:31964   */\n      0x00\n        /* \"#utility.yul\":31998:32000   */\n      0x60\n        /* \"#utility.yul\":31987:31996   */\n      dup3\n        /* \"#utility.yul\":31983:32001   */\n      add\n        /* \"#utility.yul\":31975:32001   */\n      swap1\n      pop\n        /* \"#utility.yul\":32011:32082   */\n      tag_874\n        /* \"#utility.yul\":32079:32080   */\n      0x00\n        /* \"#utility.yul\":32068:32077   */\n      dup4\n        /* \"#utility.yul\":32064:32081   */\n      add\n        /* \"#utility.yul\":32055:32061   */\n      dup7\n        /* \"#utility.yul\":32011:32082   */\n      tag_552\n      jump\t// in\n    tag_874:\n        /* \"#utility.yul\":32092:32164   */\n      tag_875\n        /* \"#utility.yul\":32160:32162   */\n      0x20\n        /* \"#utility.yul\":32149:32158   */\n      dup4\n        /* \"#utility.yul\":32145:32163   */\n      add\n        /* \"#utility.yul\":32136:32142   */\n      dup6\n        /* \"#utility.yul\":32092:32164   */\n      tag_552\n      jump\t// in\n    tag_875:\n        /* \"#utility.yul\":32174:32246   */\n      tag_876\n        /* \"#utility.yul\":32242:32244   */\n      0x40\n        /* \"#utility.yul\":32231:32240   */\n      dup4\n        /* \"#utility.yul\":32227:32245   */\n      add\n        /* \"#utility.yul\":32218:32224   */\n      dup5\n        /* \"#utility.yul\":32174:32246   */\n      tag_539\n      jump\t// in\n    tag_876:\n        /* \"#utility.yul\":31811:32253   */\n      swap5\n      swap4\n      pop\n      pop\n      pop\n      pop\n      jump\t// out\n        /* \"#utility.yul\":32259:32482   */\n    tag_608:\n        /* \"#utility.yul\":32399:32433   */\n      0x5472616e7366657248656c7065723a205452414e534645525f46524f4d5f4641\n        /* \"#utility.yul\":32395:32396   */\n      0x00\n        /* \"#utility.yul\":32387:32393   */\n      dup3\n        /* \"#utility.yul\":32383:32397   */\n      add\n        /* \"#utility.yul\":32376:32434   */\n      mstore\n        /* \"#utility.yul\":32468:32474   */\n      0x494c454400000000000000000000000000000000000000000000000000000000\n        /* \"#utility.yul\":32463:32465   */\n      0x20\n        /* \"#utility.yul\":32455:32461   */\n      dup3\n        /* \"#utility.yul\":32451:32466   */\n      add\n        /* \"#utility.yul\":32444:32475   */\n      mstore\n        /* \"#utility.yul\":32259:32482   */\n      pop\n      jump\t// out\n        /* \"#utility.yul\":32488:32854   */\n    tag_609:\n        /* \"#utility.yul\":32630:32633   */\n      0x00\n        /* \"#utility.yul\":32651:32718   */\n      tag_879\n        /* \"#utility.yul\":32715:32717   */\n      0x24\n        /* \"#utility.yul\":32710:32713   */\n      dup4\n        /* \"#utility.yul\":32651:32718   */\n      tag_567\n      jump\t// in\n    tag_879:\n        /* \"#utility.yul\":32644:32718   */\n      swap2\n      pop\n        /* \"#utility.yul\":32727:32820   */\n      tag_880\n        /* \"#utility.yul\":32816:32819   */\n      dup3\n        /* \"#utility.yul\":32727:32820   */\n      tag_608\n      jump\t// in\n    tag_880:\n        /* \"#utility.yul\":32845:32847   */\n      0x40\n        /* \"#utility.yul\":32840:32843   */\n      dup3\n        /* \"#utility.yul\":32836:32848   */\n      add\n        /* \"#utility.yul\":32829:32848   */\n      swap1\n      pop\n        /* \"#utility.yul\":32488:32854   */\n      swap2\n      swap1\n      pop\n      jump\t// out\n        /* \"#utility.yul\":32860:33279   */\n    tag_530:\n        /* \"#utility.yul\":33026:33030   */\n      0x00\n        /* \"#utility.yul\":33064:33066   */\n      0x20\n        /* \"#utility.yul\":33053:33062   */\n      dup3\n        /* \"#utility.yul\":33049:33067   */\n      add\n        /* \"#utility.yul\":33041:33067   */\n      swap1\n      pop\n        /* \"#utility.yul\":33113:33122   */\n      dup2\n        /* \"#utility.yul\":33107:33111   */\n      dup2\n        /* \"#utility.yul\":33103:33123   */\n      sub\n        /* \"#utility.yul\":33099:33100   */\n      0x00\n        /* \"#utility.yul\":33088:33097   */\n      dup4\n        /* \"#utility.yul\":33084:33101   */\n      add\n        /* \"#utility.yul\":33077:33124   */\n      mstore\n        /* \"#utility.yul\":33141:33272   */\n      tag_882\n        /* \"#utility.yul\":33267:33271   */\n      dup2\n        /* \"#utility.yul\":33141:33272   */\n      tag_609\n      jump\t// in\n    tag_882:\n        /* \"#utility.yul\":33133:33272   */\n      swap1\n      pop\n        /* \"#utility.yul\":32860:33279   */\n      swap2\n      swap1\n      pop\n      jump\t// out\n\n    auxdata: 0xa2646970667358221220325584455649f5a55b8b61677e2cfdf02dc2bd01199a65bdd19a3a53bf24b70b64736f6c634300080d0033\n}\n",
				"bytecode": {
					"linkReferences": {},
					"object": "60a06040526000600460006101000a81548160ff0219169083151502179055503480156200002c57600080fd5b506200004d620000416200008760201b60201c565b6200008f60201b60201c565b3373ffffffffffffffffffffffffffffffffffffffff1660808173ffffffffffffffffffffffffffffffffffffffff168152505062000153565b600033905090565b60008060009054906101000a900473ffffffffffffffffffffffffffffffffffffffff169050816000806101000a81548173ffffffffffffffffffffffffffffffffffffffff021916908373ffffffffffffffffffffffffffffffffffffffff1602179055508173ffffffffffffffffffffffffffffffffffffffff168173ffffffffffffffffffffffffffffffffffffffff167f8be0079c531659141344cd1fd0a4f28419497f9722a3daafe3b4186f6b6457e060405160405180910390a35050565b6080516141db620001bc600039600081816104c70152818161071201528181610d7401528181610f2c01528181611343015281816117dd01528181611a7a01528181611bd101528181611c9a015281816124f7015281816128700152612ddf01526141db6000f3fe60806040526004361061011f5760003560e01c806389523742116100a0578063c45a015511610064578063c45a015514610358578063d7bdfc7514610383578063dab5a8df1461038d578063e43372e9146103ca578063f2fde38b146103f75761011f565b806389523742146102a85780638da5cb5b146102d3578063a09702b1146102fe578063aa6ca80814610315578063abd050ea146103415761011f565b806340a6f1ab116100e757806340a6f1ab146101e45780634341f9201461020f57806351cff8d91461022b5780635f5780e514610254578063715018a6146102915761011f565b80630d182605146101245780632ffc68871461014d5780633072cf60146101765780633ccfd60b146101a15780633d370b4e146101b8575b600080fd5b34801561013057600080fd5b5061014b600480360381019061014691906130ae565b610420565b005b34801561015957600080fd5b50610174600480360381019061016f91906130ae565b61066b565b005b34801561018257600080fd5b5061018b6108b5565b60405161019891906130f6565b60405180910390f35b3480156101ad57600080fd5b506101b66108c8565b005b3480156101c457600080fd5b506101cd610e1f565b6040516101db929190613120565b60405180910390f35b3480156101f057600080fd5b506101f9610e7f565b6040516102069190613149565b60405180910390f35b610229600480360381019061022491906130ae565b610e85565b005b34801561023757600080fd5b50610252600480360381019061024d91906131c2565b6110d0565b005b34801561026057600080fd5b5061027b60048036038101906102769190613240565b61133f565b60405161028891906130f6565b60405180910390f35b34801561029d57600080fd5b506102a6611672565b005b3480156102b457600080fd5b506102bd6116fa565b6040516102ca919061336d565b60405180910390f35b3480156102df57600080fd5b506102e861170d565b6040516102f59190613397565b60405180910390f35b34801561030a57600080fd5b50610313611736565b005b34801561032157600080fd5b5061032a611933565b6040516103389291906133b2565b60405180910390f35b34801561034d57600080fd5b506103566119d3565b005b34801561036457600080fd5b5061036d611bcf565b60405161037a9190613397565b60405180910390f35b61038b611bf3565b005b34801561039957600080fd5b506103b460048036038101906103af91906130ae565b611df0565b6040516103c19190613149565b60405180910390f35b3480156103d657600080fd5b506103df611e14565b6040516103ee93929190613557565b60405180910390f35b34801561040357600080fd5b5061041e600480360381019061041991906131c2565b6120b0565b005b42600354101580156104355750600754600154105b610474576040517f08c379a000000000000000000000000000000000000000000000000000000000815260040161046b90613600565b60405180910390fd5b600460009054906101000a900460ff166104c3576040517f08c379a00000000000000000000000000000000000000000000000000000000081526004016104ba9061366c565b60405180910390fd5b60007f000000000000000000000000000000000000000000000000000000000000000090508073ffffffffffffffffffffffffffffffffffffffff1663b187bd266040518163ffffffff1660e01b8152600401602060405180830381865afa158015610533573d6000803e3d6000fd5b505050506040513d601f19601f8201168201806040525081019061055791906136a1565b15610597576040517f08c379a000000000000000000000000000000000000000000000000000000000815260040161058e90613740565b60405180910390fd5b600860009054906101000a900460ff166105e6576040517f08c379a00000000000000000000000000000000000000000000000000000000081526004016105dd906137d2565b60405180910390fd5b6000600260009054906101000a900460ff16600281111561060a576106096132f6565b5b81600281111561061d5761061c6132f6565b5b1461065d576040517f08c379a000000000000000000000000000000000000000000000000000000000815260040161065490613864565b60405180910390fd5b610666836121a7565b505050565b42600354101580156106805750600754600154105b6106bf576040517f08c379a00000000000000000000000000000000000000000000000000000000081526004016106b690613600565b60405180910390fd5b600460009054906101000a900460ff1661070e576040517f08c379a00000000000000000000000000000000000000000000000000000000081526004016107059061366c565b60405180910390fd5b60007f000000000000000000000000000000000000000000000000000000000000000090508073ffffffffffffffffffffffffffffffffffffffff1663b187bd266040518163ffffffff1660e01b8152600401602060405180830381865afa15801561077e573d6000803e3d6000fd5b505050506040513d601f19601f820116820180604052508101906107a291906136a1565b156107e2576040517f08c379a00000000000000000000000000000000000000000000000000000000081526004016107d990613740565b60405180910390fd5b600860009054906101000a900460ff16610831576040517f08c379a0000000000000000000000000000000000000000000000000000000008152600401610828906137d2565b60405180910390fd5b60028060009054906101000a900460ff166002811115610854576108536132f6565b5b816002811115610867576108666132f6565b5b146108a7576040517f08c379a000000000000000000000000000000000000000000000000000000000815260040161089e90613864565b60405180910390fd5b6108b08361258f565b505050565b600460009054906101000a900460ff1681565b4260035410806108dc575060075460015410155b61091b576040517f08c379a0000000000000000000000000000000000000000000000000000000008152600401610912906138d0565b60405180910390fd5b600460009054906101000a900460ff1661096a576040517f08c379a00000000000000000000000000000000000000000000000000000000081526004016109619061366c565b60405180910390fd5b610972612907565b73ffffffffffffffffffffffffffffffffffffffff1661099061170d565b73ffffffffffffffffffffffffffffffffffffffff16146109e6576040517f08c379a00000000000000000000000000000000000000000000000000000000081526004016109dd9061393c565b60405180910390fd5b6000600260019054906101000a900473ffffffffffffffffffffffffffffffffffffffff16905060008173ffffffffffffffffffffffffffffffffffffffff166370a08231306040518263ffffffff1660e01b8152600401610a489190613397565b602060405180830381865afa158015610a65573d6000803e3d6000fd5b505050506040513d601f19601f82011682018060405250810190610a899190613971565b90506000811115610b2c57600260019054906101000a900473ffffffffffffffffffffffffffffffffffffffff1673ffffffffffffffffffffffffffffffffffffffff16632e1a7d4d826040518263ffffffff1660e01b8152600401610aef9190613149565b600060405180830381600087803b158015610b0957600080fd5b505af1158015610b1d573d6000803e3d6000fd5b50505050610b2b338261290f565b5b6000600560009054906101000a900473ffffffffffffffffffffffffffffffffffffffff1673ffffffffffffffffffffffffffffffffffffffff166370a08231306040518263ffffffff1660e01b8152600401610b899190613397565b602060405180830381865afa158015610ba6573d6000803e3d6000fd5b505050506040513d601f19601f82011682018060405250810190610bca9190613971565b90506000811115610c0357610c02600560009054906101000a900473ffffffffffffffffffffffffffffffffffffffff163383612a0f565b5b6000600460019054906101000a900473ffffffffffffffffffffffffffffffffffffffff1673ffffffffffffffffffffffffffffffffffffffff166370a08231306040518263ffffffff1660e01b8152600401610c609190613397565b602060405180830381865afa158015610c7d573d6000803e3d6000fd5b505050506040513d601f19601f82011682018060405250810190610ca19190613971565b90506000811115610cda57610cd9600460019054906101000a900473ffffffffffffffffffffffffffffffffffffffff163383612a0f565b5b60008060006002811115610cf157610cf06132f6565b5b600260009054906101000a900460ff166002811115610d1357610d126132f6565b5b03610d2357849150839050610d70565b600280811115610d3657610d356132f6565b5b600260009054906101000a900460ff166002811115610d5857610d576132f6565b5b03610d6857829150839050610d6f565b8291508490505b5b60007f000000000000000000000000000000000000000000000000000000000000000090508073ffffffffffffffffffffffffffffffffffffffff166333796a0e303386866040518563ffffffff1660e01b8152600401610dd4949392919061399e565b600060405180830381600087803b158015610dee57600080fd5b505af1158015610e02573d6000803e3d6000fd5b505050503373ffffffffffffffffffffffffffffffffffffffff16ff5b600080600460009054906101000a900460ff16610e71576040517f08c379a0000000000000000000000000000000000000000000000000000000008152600401610e689061366c565b60405180910390fd5b600654600754915091509091565b60015481565b4260035410158015610e9a5750600754600154105b610ed9576040517f08c379a0000000000000000000000000000000000000000000000000000000008152600401610ed090613600565b60405180910390fd5b600460009054906101000a900460ff16610f28576040517f08c379a0000000000000000000000000000000000000000000000000000000008152600401610f1f9061366c565b60405180910390fd5b60007f000000000000000000000000000000000000000000000000000000000000000090508073ffffffffffffffffffffffffffffffffffffffff1663b187bd266040518163ffffffff1660e01b8152600401602060405180830381865afa158015610f98573d6000803e3d6000fd5b505050506040513d601f19601f82011682018060405250810190610fbc91906136a1565b15610ffc576040517f08c379a0000000000000000000000000000000000000000000000000000000008152600401610ff390613740565b60405180910390fd5b600860009054906101000a900460ff1661104b576040517f08c379a0000000000000000000000000000000000000000000000000000000008152600401611042906137d2565b60405180910390fd5b6001600260009054906101000a900460ff16600281111561106f5761106e6132f6565b5b816002811115611082576110816132f6565b5b146110c2576040517f08c379a00000000000000000000000000000000000000000000000000000000081526004016110b990613864565b60405180910390fd5b6110cb83612b45565b505050565b6110d8612907565b73ffffffffffffffffffffffffffffffffffffffff166110f661170d565b73ffffffffffffffffffffffffffffffffffffffff161461114c576040517f08c379a00000000000000000000000000000000000000000000000000000000081526004016111439061393c565b60405180910390fd5b600460009054906101000a900460ff1661119b576040517f08c379a00000000000000000000000000000000000000000000000000000000081526004016111929061366c565b60405180910390fd5b600560009054906101000a900473ffffffffffffffffffffffffffffffffffffffff1673ffffffffffffffffffffffffffffffffffffffff168173ffffffffffffffffffffffffffffffffffffffff16141580156112475750600460019054906101000a900473ffffffffffffffffffffffffffffffffffffffff1673ffffffffffffffffffffffffffffffffffffffff168173ffffffffffffffffffffffffffffffffffffffff1614155b611286576040517f08c379a000000000000000000000000000000000000000000000000000000000815260040161127d90613a2f565b60405180910390fd5b60008173ffffffffffffffffffffffffffffffffffffffff166370a08231306040518263ffffffff1660e01b81526004016112c19190613397565b602060405180830381865afa1580156112de573d6000803e3d6000fd5b505050506040513d601f19601f820116820180604052508101906113029190613971565b9050600081111561133b5761133a600460019054906101000a900473ffffffffffffffffffffffffffffffffffffffff163383612a0f565b5b5050565b60007f000000000000000000000000000000000000000000000000000000000000000073ffffffffffffffffffffffffffffffffffffffff163373ffffffffffffffffffffffffffffffffffffffff16146113cf576040517f08c379a00000000000000000000000000000000000000000000000000000000081526004016113c690613a2f565b60405180910390fd5b600460009054906101000a900460ff161561141f576040517f08c379a000000000000000000000000000000000000000000000000000000000815260040161141690613ac1565b60405180910390fd5b428410611461576040517f08c379a000000000000000000000000000000000000000000000000000000000815260040161145890613b2d565b60405180910390fd5b858873ffffffffffffffffffffffffffffffffffffffff166370a08231306040518263ffffffff1660e01b815260040161149b9190613397565b602060405180830381865afa1580156114b8573d6000803e3d6000fd5b505050506040513d601f19601f820116820180604052508101906114dc9190613971565b101561151d576040517f08c379a000000000000000000000000000000000000000000000000000000000815260040161151490613bbf565b60405180910390fd5b8360038190555087600460016101000a81548173ffffffffffffffffffffffffffffffffffffffff021916908373ffffffffffffffffffffffffffffffffffffffff16021790555086600560006101000a81548173ffffffffffffffffffffffffffffffffffffffff021916908373ffffffffffffffffffffffffffffffffffffffff160217905550856006819055508460078190555088600260006101000a81548160ff021916908360028111156115d9576115d86132f6565b5b021790555082600860006101000a81548160ff02191690831515021790555081600260016101000a81548173ffffffffffffffffffffffffffffffffffffffff021916908373ffffffffffffffffffffffffffffffffffffffff1602179055506001600460006101000a81548160ff021916908315150217905550600460009054906101000a900460ff16905098975050505050505050565b61167a612907565b73ffffffffffffffffffffffffffffffffffffffff1661169861170d565b73ffffffffffffffffffffffffffffffffffffffff16146116ee576040517f08c379a00000000000000000000000000000000000000000000000000000000081526004016116e59061393c565b60405180910390fd5b6116f86000612e76565b565b600260009054906101000a900460ff1681565b60008060009054906101000a900473ffffffffffffffffffffffffffffffffffffffff16905090565b426003541015801561174b5750600754600154105b61178a576040517f08c379a000000000000000000000000000000000000000000000000000000000815260040161178190613600565b60405180910390fd5b600460009054906101000a900460ff166117d9576040517f08c379a00000000000000000000000000000000000000000000000000000000081526004016117d09061366c565b60405180910390fd5b60007f000000000000000000000000000000000000000000000000000000000000000090508073ffffffffffffffffffffffffffffffffffffffff1663b187bd266040518163ffffffff1660e01b8152600401602060405180830381865afa158015611849573d6000803e3d6000fd5b505050506040513d601f19601f8201168201806040525081019061186d91906136a1565b156118ad576040517f08c379a00000000000000000000000000000000000000000000000000000000081526004016118a490613740565b60405180910390fd5b6000600260009054906101000a900460ff1660028111156118d1576118d06132f6565b5b8160028111156118e4576118e36132f6565b5b14611924576040517f08c379a000000000000000000000000000000000000000000000000000000000815260040161191b90613864565b60405180910390fd5b61192f6007546121a7565b5050565b600080600460009054906101000a900460ff16611985576040517f08c379a000000000000000000000000000000000000000000000000000000000815260040161197c9061366c565b60405180910390fd5b600460019054906101000a900473ffffffffffffffffffffffffffffffffffffffff16600560009054906101000a900473ffffffffffffffffffffffffffffffffffffffff16915091509091565b42600354101580156119e85750600754600154105b611a27576040517f08c379a0000000000000000000000000000000000000000000000000000000008152600401611a1e90613600565b60405180910390fd5b600460009054906101000a900460ff16611a76576040517f08c379a0000000000000000000000000000000000000000000000000000000008152600401611a6d9061366c565b60405180910390fd5b60007f000000000000000000000000000000000000000000000000000000000000000090508073ffffffffffffffffffffffffffffffffffffffff1663b187bd266040518163ffffffff1660e01b8152600401602060405180830381865afa158015611ae6573d6000803e3d6000fd5b505050506040513d601f19601f82011682018060405250810190611b0a91906136a1565b15611b4a576040517f08c379a0000000000000000000000000000000000000000000000000000000008152600401611b4190613740565b60405180910390fd5b60028060009054906101000a900460ff166002811115611b6d57611b6c6132f6565b5b816002811115611b8057611b7f6132f6565b5b14611bc0576040517f08c379a0000000000000000000000000000000000000000000000000000000008152600401611bb790613864565b60405180910390fd5b611bcb60075461258f565b5050565b7f000000000000000000000000000000000000000000000000000000000000000081565b4260035410158015611c085750600754600154105b611c47576040517f08c379a0000000000000000000000000000000000000000000000000000000008152600401611c3e90613600565b60405180910390fd5b600460009054906101000a900460ff16611c96576040517f08c379a0000000000000000000000000000000000000000000000000000000008152600401611c8d9061366c565b60405180910390fd5b60007f000000000000000000000000000000000000000000000000000000000000000090508073ffffffffffffffffffffffffffffffffffffffff1663b187bd266040518163ffffffff1660e01b8152600401602060405180830381865afa158015611d06573d6000803e3d6000fd5b505050506040513d601f19601f82011682018060405250810190611d2a91906136a1565b15611d6a576040517f08c379a0000000000000000000000000000000000000000000000000000000008152600401611d6190613740565b60405180910390fd5b6001600260009054906101000a900460ff166002811115611d8e57611d8d6132f6565b5b816002811115611da157611da06132f6565b5b14611de1576040517f08c379a0000000000000000000000000000000000000000000000000000000008152600401611dd890613864565b60405180910390fd5b611dec600754612b45565b5050565b600060075460065483611e039190613c0e565b611e0d9190613c97565b9050919050565b6060806060600460009054906101000a900460ff16611e68576040517f08c379a0000000000000000000000000000000000000000000000000000000008152600401611e5f9061366c565b60405180910390fd5b600060098054905067ffffffffffffffff811115611e8957611e88613cc8565b5b604051908082528060200260200182016040528015611eb75781602001602082028036833780820191505090505b509050600060098054905067ffffffffffffffff811115611edb57611eda613cc8565b5b604051908082528060200260200182016040528015611f095781602001602082028036833780820191505090505b509050600060098054905067ffffffffffffffff811115611f2d57611f2c613cc8565b5b604051908082528060200260200182016040528015611f5b5781602001602082028036833780820191505090505b50905060005b60098054905081101561209e5760098181548110611f8257611f81613cf7565b5b906000526020600020906003020160000160009054906101000a900473ffffffffffffffffffffffffffffffffffffffff16848281518110611fc757611fc6613cf7565b5b602002602001019073ffffffffffffffffffffffffffffffffffffffff16908173ffffffffffffffffffffffffffffffffffffffff16815250506009818154811061201557612014613cf7565b5b90600052602060002090600302016001015483828151811061203a57612039613cf7565b5b6020026020010181815250506009818154811061205a57612059613cf7565b5b90600052602060002090600302016002015482828151811061207f5761207e613cf7565b5b602002602001018181525050808061209690613d26565b915050611f61565b50828282955095509550505050909192565b6120b8612907565b73ffffffffffffffffffffffffffffffffffffffff166120d661170d565b73ffffffffffffffffffffffffffffffffffffffff161461212c576040517f08c379a00000000000000000000000000000000000000000000000000000000081526004016121239061393c565b60405180910390fd5b600073ffffffffffffffffffffffffffffffffffffffff168173ffffffffffffffffffffffffffffffffffffffff160361219b576040517f08c379a000000000000000000000000000000000000000000000000000000000815260040161219290613de0565b60405180910390fd5b6121a481612e76565b50565b80600560009054906101000a900473ffffffffffffffffffffffffffffffffffffffff1673ffffffffffffffffffffffffffffffffffffffff166370a08231336040518263ffffffff1660e01b81526004016122039190613397565b602060405180830381865afa158015612220573d6000803e3d6000fd5b505050506040513d601f19601f820116820180604052508101906122449190613971565b1015612285576040517f08c379a000000000000000000000000000000000000000000000000000000000815260040161227c90613e72565b60405180910390fd5b600061229082611df0565b90506000600260019054906101000a900473ffffffffffffffffffffffffffffffffffffffff169050818173ffffffffffffffffffffffffffffffffffffffff166370a08231306040518263ffffffff1660e01b81526004016122f39190613397565b602060405180830381865afa158015612310573d6000803e3d6000fd5b505050506040513d601f19601f820116820180604052508101906123349190613971565b1015612375576040517f08c379a000000000000000000000000000000000000000000000000000000000815260040161236c90613f04565b60405180910390fd5b600260019054906101000a900473ffffffffffffffffffffffffffffffffffffffff1673ffffffffffffffffffffffffffffffffffffffff16632e1a7d4d836040518263ffffffff1660e01b81526004016123d09190613149565b600060405180830381600087803b1580156123ea57600080fd5b505af11580156123fe573d6000803e3d6000fd5b50505050612430600560009054906101000a900473ffffffffffffffffffffffffffffffffffffffff16333086612f3a565b61243a338361290f565b600960405180606001604052803373ffffffffffffffffffffffffffffffffffffffff16815260200185815260200184815250908060018154018082558091505060019003906000526020600020906003020160009091909190915060008201518160000160006101000a81548173ffffffffffffffffffffffffffffffffffffffff021916908373ffffffffffffffffffffffffffffffffffffffff1602179055506020820151816001015560408201518160020155505060007f000000000000000000000000000000000000000000000000000000000000000090508073ffffffffffffffffffffffffffffffffffffffff1663f52701b7303387876040518563ffffffff1660e01b8152600401612557949392919061399e565b600060405180830381600087803b15801561257157600080fd5b505af1158015612585573d6000803e3d6000fd5b5050505050505050565b80600560009054906101000a900473ffffffffffffffffffffffffffffffffffffffff1673ffffffffffffffffffffffffffffffffffffffff166370a08231336040518263ffffffff1660e01b81526004016125eb9190613397565b602060405180830381865afa158015612608573d6000803e3d6000fd5b505050506040513d601f19601f8201168201806040525081019061262c9190613971565b101561266d576040517f08c379a000000000000000000000000000000000000000000000000000000000815260040161266490613e72565b60405180910390fd5b600061267882611df0565b905080600460019054906101000a900473ffffffffffffffffffffffffffffffffffffffff1673ffffffffffffffffffffffffffffffffffffffff166370a08231306040518263ffffffff1660e01b81526004016126d69190613397565b602060405180830381865afa1580156126f3573d6000803e3d6000fd5b505050506040513d601f19601f820116820180604052508101906127179190613971565b1015612758576040517f08c379a000000000000000000000000000000000000000000000000000000000815260040161274f90613f04565b60405180910390fd5b612786600560009054906101000a900473ffffffffffffffffffffffffffffffffffffffff16333085612f3a565b6127b3600460019054906101000a900473ffffffffffffffffffffffffffffffffffffffff163383612a0f565b600960405180606001604052803373ffffffffffffffffffffffffffffffffffffffff16815260200184815260200183815250908060018154018082558091505060019003906000526020600020906003020160009091909190915060008201518160000160006101000a81548173ffffffffffffffffffffffffffffffffffffffff021916908373ffffffffffffffffffffffffffffffffffffffff1602179055506020820151816001015560408201518160020155505060007f000000000000000000000000000000000000000000000000000000000000000090508073ffffffffffffffffffffffffffffffffffffffff1663f52701b7303386866040518563ffffffff1660e01b81526004016128d0949392919061399e565b600060405180830381600087803b1580156128ea57600080fd5b505af11580156128fe573d6000803e3d6000fd5b50505050505050565b600033905090565b60008273ffffffffffffffffffffffffffffffffffffffff1682600067ffffffffffffffff81111561294457612943613cc8565b5b6040519080825280601f01601f1916602001820160405280156129765781602001600182028036833780820191505090505b506040516129849190613f9e565b60006040518083038185875af1925050503d80600081146129c1576040519150601f19603f3d011682016040523d82523d6000602084013e6129c6565b606091505b5050905080612a0a576040517f08c379a0000000000000000000000000000000000000000000000000000000008152600401612a0190614027565b60405180910390fd5b505050565b6000808473ffffffffffffffffffffffffffffffffffffffff1663a9059cbb8585604051602401612a41929190614047565b6040516020818303038152906040529060e01b6020820180517bffffffffffffffffffffffffffffffffffffffffffffffffffffffff8381831617835250505050604051612a8f9190613f9e565b6000604051808303816000865af19150503d8060008114612acc576040519150601f19603f3d011682016040523d82523d6000602084013e612ad1565b606091505b5091509150818015612aff5750600081511480612afe575080806020019051810190612afd91906136a1565b5b5b612b3e576040517f08c379a0000000000000000000000000000000000000000000000000000000008152600401612b35906140bc565b60405180910390fd5b5050505050565b348114612b87576040517f08c379a0000000000000000000000000000000000000000000000000000000008152600401612b7e906137d2565b60405180910390fd5b6000612b9282611df0565b905080600460019054906101000a900473ffffffffffffffffffffffffffffffffffffffff1673ffffffffffffffffffffffffffffffffffffffff166370a08231306040518263ffffffff1660e01b8152600401612bf09190613397565b602060405180830381865afa158015612c0d573d6000803e3d6000fd5b505050506040513d601f19601f82011682018060405250810190612c319190613971565b1015612c72576040517f08c379a0000000000000000000000000000000000000000000000000000000008152600401612c6990613f04565b60405180910390fd5b600260019054906101000a900473ffffffffffffffffffffffffffffffffffffffff1673ffffffffffffffffffffffffffffffffffffffff1663d0e30db0836040518263ffffffff1660e01b81526004016000604051808303818588803b158015612cdc57600080fd5b505af1158015612cf0573d6000803e3d6000fd5b5050505050612d22600460019054906101000a900473ffffffffffffffffffffffffffffffffffffffff163383612a0f565b600960405180606001604052803373ffffffffffffffffffffffffffffffffffffffff16815260200184815260200183815250908060018154018082558091505060019003906000526020600020906003020160009091909190915060008201518160000160006101000a81548173ffffffffffffffffffffffffffffffffffffffff021916908373ffffffffffffffffffffffffffffffffffffffff1602179055506020820151816001015560408201518160020155505060007f000000000000000000000000000000000000000000000000000000000000000090508073ffffffffffffffffffffffffffffffffffffffff1663f52701b7303386866040518563ffffffff1660e01b8152600401612e3f949392919061399e565b600060405180830381600087803b158015612e5957600080fd5b505af1158015612e6d573d6000803e3d6000fd5b50505050505050565b60008060009054906101000a900473ffffffffffffffffffffffffffffffffffffffff169050816000806101000a81548173ffffffffffffffffffffffffffffffffffffffff021916908373ffffffffffffffffffffffffffffffffffffffff1602179055508173ffffffffffffffffffffffffffffffffffffffff168173ffffffffffffffffffffffffffffffffffffffff167f8be0079c531659141344cd1fd0a4f28419497f9722a3daafe3b4186f6b6457e060405160405180910390a35050565b6000808573ffffffffffffffffffffffffffffffffffffffff166323b872dd868686604051602401612f6e939291906140dc565b6040516020818303038152906040529060e01b6020820180517bffffffffffffffffffffffffffffffffffffffffffffffffffffffff8381831617835250505050604051612fbc9190613f9e565b6000604051808303816000865af19150503d8060008114612ff9576040519150601f19603f3d011682016040523d82523d6000602084013e612ffe565b606091505b509150915081801561302c575060008151148061302b57508080602001905181019061302a91906136a1565b5b5b61306b576040517f08c379a000000000000000000000000000000000000000000000000000000000815260040161306290614185565b60405180910390fd5b505050505050565b600080fd5b6000819050919050565b61308b81613078565b811461309657600080fd5b50565b6000813590506130a881613082565b92915050565b6000602082840312156130c4576130c3613073565b5b60006130d284828501613099565b91505092915050565b60008115159050919050565b6130f0816130db565b82525050565b600060208201905061310b60008301846130e7565b92915050565b61311a81613078565b82525050565b60006040820190506131356000830185613111565b6131426020830184613111565b9392505050565b600060208201905061315e6000830184613111565b92915050565b600073ffffffffffffffffffffffffffffffffffffffff82169050919050565b600061318f82613164565b9050919050565b61319f81613184565b81146131aa57600080fd5b50565b6000813590506131bc81613196565b92915050565b6000602082840312156131d8576131d7613073565b5b60006131e6848285016131ad565b91505092915050565b600381106131fc57600080fd5b50565b60008135905061320e816131ef565b92915050565b61321d816130db565b811461322857600080fd5b50565b60008135905061323a81613214565b92915050565b600080600080600080600080610100898b03121561326157613260613073565b5b600061326f8b828c016131ff565b98505060206132808b828c016131ad565b97505060406132918b828c016131ad565b96505060606132a28b828c01613099565b95505060806132b38b828c01613099565b94505060a06132c48b828c01613099565b93505060c06132d58b828c0161322b565b92505060e06132e68b828c016131ad565b9150509295985092959890939650565b7f4e487b7100000000000000000000000000000000000000000000000000000000600052602160045260246000fd5b60038110613336576133356132f6565b5b50565b600081905061334782613325565b919050565b600061335782613339565b9050919050565b6133678161334c565b82525050565b6000602082019050613382600083018461335e565b92915050565b61339181613184565b82525050565b60006020820190506133ac6000830184613388565b92915050565b60006040820190506133c76000830185613388565b6133d46020830184613388565b9392505050565b600081519050919050565b600082825260208201905092915050565b6000819050602082019050919050565b61341081613184565b82525050565b60006134228383613407565b60208301905092915050565b6000602082019050919050565b6000613446826133db565b61345081856133e6565b935061345b836133f7565b8060005b8381101561348c5781516134738882613416565b975061347e8361342e565b92505060018101905061345f565b5085935050505092915050565b600081519050919050565b600082825260208201905092915050565b6000819050602082019050919050565b6134ce81613078565b82525050565b60006134e083836134c5565b60208301905092915050565b6000602082019050919050565b600061350482613499565b61350e81856134a4565b9350613519836134b5565b8060005b8381101561354a57815161353188826134d4565b975061353c836134ec565b92505060018101905061351d565b5085935050505092915050565b60006060820190508181036000830152613571818661343b565b9050818103602083015261358581856134f9565b9050818103604083015261359981846134f9565b9050949350505050565b600082825260208201905092915050565b7f537943726f774261727465723a20494e41435449564500000000000000000000600082015250565b60006135ea6016836135a3565b91506135f5826135b4565b602082019050919050565b60006020820190508181036000830152613619816135dd565b9050919050565b7f537943726f774261727465723a204e4f545f494e495449414c495a4544000000600082015250565b6000613656601d836135a3565b915061366182613620565b602082019050919050565b6000602082019050818103600083015261368581613649565b9050919050565b60008151905061369b81613214565b92915050565b6000602082840312156136b7576136b6613073565b5b60006136c58482850161368c565b91505092915050565b7f537943726f774261727465723a204261736520436f6e7472616374205061757360008201527f6564000000000000000000000000000000000000000000000000000000000000602082015250565b600061372a6022836135a3565b9150613735826136ce565b604082019050919050565b600060208201905081810360008301526137598161371d565b9050919050565b7f537943726f774261727465723a204d554c54495f54524144455f4e4f545f454e60008201527f41424c4544000000000000000000000000000000000000000000000000000000602082015250565b60006137bc6025836135a3565b91506137c782613760565b604082019050919050565b600060208201905081810360008301526137eb816137af565b9050919050565b7f537943726f774261727465723a20494e56414c49445f4241525445525f54595060008201527f4500000000000000000000000000000000000000000000000000000000000000602082015250565b600061384e6021836135a3565b9150613859826137f2565b604082019050919050565b6000602082019050818103600083015261387d81613841565b9050919050565b7f537943726f774261727465723a20414354495645000000000000000000000000600082015250565b60006138ba6014836135a3565b91506138c582613884565b602082019050919050565b600060208201905081810360008301526138e9816138ad565b9050919050565b7f4f776e61626c653a2063616c6c6572206973206e6f7420746865206f776e6572600082015250565b60006139266020836135a3565b9150613931826138f0565b602082019050919050565b6000602082019050818103600083015261395581613919565b9050919050565b60008151905061396b81613082565b92915050565b60006020828403121561398757613986613073565b5b60006139958482850161395c565b91505092915050565b60006080820190506139b36000830187613388565b6139c06020830186613388565b6139cd6040830185613111565b6139da6060830184613111565b95945050505050565b7f537943726f774261727465723a20464f5242494444454e000000000000000000600082015250565b6000613a196017836135a3565b9150613a24826139e3565b602082019050919050565b60006020820190508181036000830152613a4881613a0c565b9050919050565b7f537943726f774261727465723a20414c52454144595f494e495449414c495a4560008201527f4400000000000000000000000000000000000000000000000000000000000000602082015250565b6000613aab6021836135a3565b9150613ab682613a4f565b604082019050919050565b60006020820190508181036000830152613ada81613a9e565b9050919050565b7f537943726f774261727465723a20504153545f444541444c494e450000000000600082015250565b6000613b17601b836135a3565b9150613b2282613ae1565b602082019050919050565b60006020820190508181036000830152613b4681613b0a565b9050919050565b7f537943726f774261727465723a20494e53554646494349454e545f4445504f5360008201527f4954000000000000000000000000000000000000000000000000000000000000602082015250565b6000613ba96022836135a3565b9150613bb482613b4d565b604082019050919050565b60006020820190508181036000830152613bd881613b9c565b9050919050565b7f4e487b7100000000000000000000000000000000000000000000000000000000600052601160045260246000fd5b6000613c1982613078565b9150613c2483613078565b9250817fffffffffffffffffffffffffffffffffffffffffffffffffffffffffffffffff0483118215151615613c5d57613c5c613bdf565b5b828202905092915050565b7f4e487b7100000000000000000000000000000000000000000000000000000000600052601260045260246000fd5b6000613ca282613078565b9150613cad83613078565b925082613cbd57613cbc613c68565b5b828204905092915050565b7f4e487b7100000000000000000000000000000000000000000000000000000000600052604160045260246000fd5b7f4e487b7100000000000000000000000000000000000000000000000000000000600052603260045260246000fd5b6000613d3182613078565b91507fffffffffffffffffffffffffffffffffffffffffffffffffffffffffffffffff8203613d6357613d62613bdf565b5b600182019050919050565b7f4f776e61626c653a206e6577206f776e657220697320746865207a65726f206160008201527f6464726573730000000000000000000000000000000000000000000000000000602082015250565b6000613dca6026836135a3565b9150613dd582613d6e565b604082019050919050565b60006020820190508181036000830152613df981613dbd565b9050919050565b7f537943726f774261727465723a20494e53554646494349454e545f42414c414e60008201527f4345000000000000000000000000000000000000000000000000000000000000602082015250565b6000613e5c6022836135a3565b9150613e6782613e00565b604082019050919050565b60006020820190508181036000830152613e8b81613e4f565b9050919050565b7f537943726f774261727465723a20494e53554646494349454e545f434f4e545260008201527f4143545f42414c414e4345000000000000000000000000000000000000000000602082015250565b6000613eee602b836135a3565b9150613ef982613e92565b604082019050919050565b60006020820190508181036000830152613f1d81613ee1565b9050919050565b600081519050919050565b600081905092915050565b60005b83811015613f58578082015181840152602081019050613f3d565b83811115613f67576000848401525b50505050565b6000613f7882613f24565b613f828185613f2f565b9350613f92818560208601613f3a565b80840191505092915050565b6000613faa8284613f6d565b915081905092915050565b7f5472616e7366657248656c7065723a204554485f5452414e534645525f46414960008201527f4c45440000000000000000000000000000000000000000000000000000000000602082015250565b60006140116023836135a3565b915061401c82613fb5565b604082019050919050565b6000602082019050818103600083015261404081614004565b9050919050565b600060408201905061405c6000830185613388565b6140696020830184613111565b9392505050565b7f5472616e7366657248656c7065723a205452414e534645525f4641494c454400600082015250565b60006140a6601f836135a3565b91506140b182614070565b602082019050919050565b600060208201905081810360008301526140d581614099565b9050919050565b60006060820190506140f16000830186613388565b6140fe6020830185613388565b61410b6040830184613111565b949350505050565b7f5472616e7366657248656c7065723a205452414e534645525f46524f4d5f464160008201527f494c454400000000000000000000000000000000000000000000000000000000602082015250565b600061416f6024836135a3565b915061417a82614113565b604082019050919050565b6000602082019050818103600083015261419e81614162565b905091905056fea2646970667358221220325584455649f5a55b8b61677e2cfdf02dc2bd01199a65bdd19a3a53bf24b70b64736f6c634300080d0033",
					"opcodes": "PUSH1 0xA0 PUSH1 0x40 MSTORE PUSH1 0x0 PUSH1 0x4 PUSH1 0x0 PUSH2 0x100 EXP DUP2 SLOAD DUP2 PUSH1 0xFF MUL NOT AND SWAP1 DUP4 ISZERO ISZERO MUL OR SWAP1 SSTORE POP CALLVALUE DUP1 ISZERO PUSH3 0x2C JUMPI PUSH1 0x0 DUP1 REVERT JUMPDEST POP PUSH3 0x4D PUSH3 0x41 PUSH3 0x87 PUSH1 0x20 SHL PUSH1 0x20 SHR JUMP JUMPDEST PUSH3 0x8F PUSH1 0x20 SHL PUSH1 0x20 SHR JUMP JUMPDEST CALLER PUSH20 0xFFFFFFFFFFFFFFFFFFFFFFFFFFFFFFFFFFFFFFFF AND PUSH1 0x80 DUP2 PUSH20 0xFFFFFFFFFFFFFFFFFFFFFFFFFFFFFFFFFFFFFFFF AND DUP2 MSTORE POP POP PUSH3 0x153 JUMP JUMPDEST PUSH1 0x0 CALLER SWAP1 POP SWAP1 JUMP JUMPDEST PUSH1 0x0 DUP1 PUSH1 0x0 SWAP1 SLOAD SWAP1 PUSH2 0x100 EXP SWAP1 DIV PUSH20 0xFFFFFFFFFFFFFFFFFFFFFFFFFFFFFFFFFFFFFFFF AND SWAP1 POP DUP2 PUSH1 0x0 DUP1 PUSH2 0x100 EXP DUP2 SLOAD DUP2 PUSH20 0xFFFFFFFFFFFFFFFFFFFFFFFFFFFFFFFFFFFFFFFF MUL NOT AND SWAP1 DUP4 PUSH20 0xFFFFFFFFFFFFFFFFFFFFFFFFFFFFFFFFFFFFFFFF AND MUL OR SWAP1 SSTORE POP DUP2 PUSH20 0xFFFFFFFFFFFFFFFFFFFFFFFFFFFFFFFFFFFFFFFF AND DUP2 PUSH20 0xFFFFFFFFFFFFFFFFFFFFFFFFFFFFFFFFFFFFFFFF AND PUSH32 0x8BE0079C531659141344CD1FD0A4F28419497F9722A3DAAFE3B4186F6B6457E0 PUSH1 0x40 MLOAD PUSH1 0x40 MLOAD DUP1 SWAP2 SUB SWAP1 LOG3 POP POP JUMP JUMPDEST PUSH1 0x80 MLOAD PUSH2 0x41DB PUSH3 0x1BC PUSH1 0x0 CODECOPY PUSH1 0x0 DUP2 DUP2 PUSH2 0x4C7 ADD MSTORE DUP2 DUP2 PUSH2 0x712 ADD MSTORE DUP2 DUP2 PUSH2 0xD74 ADD MSTORE DUP2 DUP2 PUSH2 0xF2C ADD MSTORE DUP2 DUP2 PUSH2 0x1343 ADD MSTORE DUP2 DUP2 PUSH2 0x17DD ADD MSTORE DUP2 DUP2 PUSH2 0x1A7A ADD MSTORE DUP2 DUP2 PUSH2 0x1BD1 ADD MSTORE DUP2 DUP2 PUSH2 0x1C9A ADD MSTORE DUP2 DUP2 PUSH2 0x24F7 ADD MSTORE DUP2 DUP2 PUSH2 0x2870 ADD MSTORE PUSH2 0x2DDF ADD MSTORE PUSH2 0x41DB PUSH1 0x0 RETURN INVALID PUSH1 0x80 PUSH1 0x40 MSTORE PUSH1 0x4 CALLDATASIZE LT PUSH2 0x11F JUMPI PUSH1 0x0 CALLDATALOAD PUSH1 0xE0 SHR DUP1 PUSH4 0x89523742 GT PUSH2 0xA0 JUMPI DUP1 PUSH4 0xC45A0155 GT PUSH2 0x64 JUMPI DUP1 PUSH4 0xC45A0155 EQ PUSH2 0x358 JUMPI DUP1 PUSH4 0xD7BDFC75 EQ PUSH2 0x383 JUMPI DUP1 PUSH4 0xDAB5A8DF EQ PUSH2 0x38D JUMPI DUP1 PUSH4 0xE43372E9 EQ PUSH2 0x3CA JUMPI DUP1 PUSH4 0xF2FDE38B EQ PUSH2 0x3F7 JUMPI PUSH2 0x11F JUMP JUMPDEST DUP1 PUSH4 0x89523742 EQ PUSH2 0x2A8 JUMPI DUP1 PUSH4 0x8DA5CB5B EQ PUSH2 0x2D3 JUMPI DUP1 PUSH4 0xA09702B1 EQ PUSH2 0x2FE JUMPI DUP1 PUSH4 0xAA6CA808 EQ PUSH2 0x315 JUMPI DUP1 PUSH4 0xABD050EA EQ PUSH2 0x341 JUMPI PUSH2 0x11F JUMP JUMPDEST DUP1 PUSH4 0x40A6F1AB GT PUSH2 0xE7 JUMPI DUP1 PUSH4 0x40A6F1AB EQ PUSH2 0x1E4 JUMPI DUP1 PUSH4 0x4341F920 EQ PUSH2 0x20F JUMPI DUP1 PUSH4 0x51CFF8D9 EQ PUSH2 0x22B JUMPI DUP1 PUSH4 0x5F5780E5 EQ PUSH2 0x254 JUMPI DUP1 PUSH4 0x715018A6 EQ PUSH2 0x291 JUMPI PUSH2 0x11F JUMP JUMPDEST DUP1 PUSH4 0xD182605 EQ PUSH2 0x124 JUMPI DUP1 PUSH4 0x2FFC6887 EQ PUSH2 0x14D JUMPI DUP1 PUSH4 0x3072CF60 EQ PUSH2 0x176 JUMPI DUP1 PUSH4 0x3CCFD60B EQ PUSH2 0x1A1 JUMPI DUP1 PUSH4 0x3D370B4E EQ PUSH2 0x1B8 JUMPI JUMPDEST PUSH1 0x0 DUP1 REVERT JUMPDEST CALLVALUE DUP1 ISZERO PUSH2 0x130 JUMPI PUSH1 0x0 DUP1 REVERT JUMPDEST POP PUSH2 0x14B PUSH1 0x4 DUP1 CALLDATASIZE SUB DUP2 ADD SWAP1 PUSH2 0x146 SWAP2 SWAP1 PUSH2 0x30AE JUMP JUMPDEST PUSH2 0x420 JUMP JUMPDEST STOP JUMPDEST CALLVALUE DUP1 ISZERO PUSH2 0x159 JUMPI PUSH1 0x0 DUP1 REVERT JUMPDEST POP PUSH2 0x174 PUSH1 0x4 DUP1 CALLDATASIZE SUB DUP2 ADD SWAP1 PUSH2 0x16F SWAP2 SWAP1 PUSH2 0x30AE JUMP JUMPDEST PUSH2 0x66B JUMP JUMPDEST STOP JUMPDEST CALLVALUE DUP1 ISZERO PUSH2 0x182 JUMPI PUSH1 0x0 DUP1 REVERT JUMPDEST POP PUSH2 0x18B PUSH2 0x8B5 JUMP JUMPDEST PUSH1 0x40 MLOAD PUSH2 0x198 SWAP2 SWAP1 PUSH2 0x30F6 JUMP JUMPDEST PUSH1 0x40 MLOAD DUP1 SWAP2 SUB SWAP1 RETURN JUMPDEST CALLVALUE DUP1 ISZERO PUSH2 0x1AD JUMPI PUSH1 0x0 DUP1 REVERT JUMPDEST POP PUSH2 0x1B6 PUSH2 0x8C8 JUMP JUMPDEST STOP JUMPDEST CALLVALUE DUP1 ISZERO PUSH2 0x1C4 JUMPI PUSH1 0x0 DUP1 REVERT JUMPDEST POP PUSH2 0x1CD PUSH2 0xE1F JUMP JUMPDEST PUSH1 0x40 MLOAD PUSH2 0x1DB SWAP3 SWAP2 SWAP1 PUSH2 0x3120 JUMP JUMPDEST PUSH1 0x40 MLOAD DUP1 SWAP2 SUB SWAP1 RETURN JUMPDEST CALLVALUE DUP1 ISZERO PUSH2 0x1F0 JUMPI PUSH1 0x0 DUP1 REVERT JUMPDEST POP PUSH2 0x1F9 PUSH2 0xE7F JUMP JUMPDEST PUSH1 0x40 MLOAD PUSH2 0x206 SWAP2 SWAP1 PUSH2 0x3149 JUMP JUMPDEST PUSH1 0x40 MLOAD DUP1 SWAP2 SUB SWAP1 RETURN JUMPDEST PUSH2 0x229 PUSH1 0x4 DUP1 CALLDATASIZE SUB DUP2 ADD SWAP1 PUSH2 0x224 SWAP2 SWAP1 PUSH2 0x30AE JUMP JUMPDEST PUSH2 0xE85 JUMP JUMPDEST STOP JUMPDEST CALLVALUE DUP1 ISZERO PUSH2 0x237 JUMPI PUSH1 0x0 DUP1 REVERT JUMPDEST POP PUSH2 0x252 PUSH1 0x4 DUP1 CALLDATASIZE SUB DUP2 ADD SWAP1 PUSH2 0x24D SWAP2 SWAP1 PUSH2 0x31C2 JUMP JUMPDEST PUSH2 0x10D0 JUMP JUMPDEST STOP JUMPDEST CALLVALUE DUP1 ISZERO PUSH2 0x260 JUMPI PUSH1 0x0 DUP1 REVERT JUMPDEST POP PUSH2 0x27B PUSH1 0x4 DUP1 CALLDATASIZE SUB DUP2 ADD SWAP1 PUSH2 0x276 SWAP2 SWAP1 PUSH2 0x3240 JUMP JUMPDEST PUSH2 0x133F JUMP JUMPDEST PUSH1 0x40 MLOAD PUSH2 0x288 SWAP2 SWAP1 PUSH2 0x30F6 JUMP JUMPDEST PUSH1 0x40 MLOAD DUP1 SWAP2 SUB SWAP1 RETURN JUMPDEST CALLVALUE DUP1 ISZERO PUSH2 0x29D JUMPI PUSH1 0x0 DUP1 REVERT JUMPDEST POP PUSH2 0x2A6 PUSH2 0x1672 JUMP JUMPDEST STOP JUMPDEST CALLVALUE DUP1 ISZERO PUSH2 0x2B4 JUMPI PUSH1 0x0 DUP1 REVERT JUMPDEST POP PUSH2 0x2BD PUSH2 0x16FA JUMP JUMPDEST PUSH1 0x40 MLOAD PUSH2 0x2CA SWAP2 SWAP1 PUSH2 0x336D JUMP JUMPDEST PUSH1 0x40 MLOAD DUP1 SWAP2 SUB SWAP1 RETURN JUMPDEST CALLVALUE DUP1 ISZERO PUSH2 0x2DF JUMPI PUSH1 0x0 DUP1 REVERT JUMPDEST POP PUSH2 0x2E8 PUSH2 0x170D JUMP JUMPDEST PUSH1 0x40 MLOAD PUSH2 0x2F5 SWAP2 SWAP1 PUSH2 0x3397 JUMP JUMPDEST PUSH1 0x40 MLOAD DUP1 SWAP2 SUB SWAP1 RETURN JUMPDEST CALLVALUE DUP1 ISZERO PUSH2 0x30A JUMPI PUSH1 0x0 DUP1 REVERT JUMPDEST POP PUSH2 0x313 PUSH2 0x1736 JUMP JUMPDEST STOP JUMPDEST CALLVALUE DUP1 ISZERO PUSH2 0x321 JUMPI PUSH1 0x0 DUP1 REVERT JUMPDEST POP PUSH2 0x32A PUSH2 0x1933 JUMP JUMPDEST PUSH1 0x40 MLOAD PUSH2 0x338 SWAP3 SWAP2 SWAP1 PUSH2 0x33B2 JUMP JUMPDEST PUSH1 0x40 MLOAD DUP1 SWAP2 SUB SWAP1 RETURN JUMPDEST CALLVALUE DUP1 ISZERO PUSH2 0x34D JUMPI PUSH1 0x0 DUP1 REVERT JUMPDEST POP PUSH2 0x356 PUSH2 0x19D3 JUMP JUMPDEST STOP JUMPDEST CALLVALUE DUP1 ISZERO PUSH2 0x364 JUMPI PUSH1 0x0 DUP1 REVERT JUMPDEST POP PUSH2 0x36D PUSH2 0x1BCF JUMP JUMPDEST PUSH1 0x40 MLOAD PUSH2 0x37A SWAP2 SWAP1 PUSH2 0x3397 JUMP JUMPDEST PUSH1 0x40 MLOAD DUP1 SWAP2 SUB SWAP1 RETURN JUMPDEST PUSH2 0x38B PUSH2 0x1BF3 JUMP JUMPDEST STOP JUMPDEST CALLVALUE DUP1 ISZERO PUSH2 0x399 JUMPI PUSH1 0x0 DUP1 REVERT JUMPDEST POP PUSH2 0x3B4 PUSH1 0x4 DUP1 CALLDATASIZE SUB DUP2 ADD SWAP1 PUSH2 0x3AF SWAP2 SWAP1 PUSH2 0x30AE JUMP JUMPDEST PUSH2 0x1DF0 JUMP JUMPDEST PUSH1 0x40 MLOAD PUSH2 0x3C1 SWAP2 SWAP1 PUSH2 0x3149 JUMP JUMPDEST PUSH1 0x40 MLOAD DUP1 SWAP2 SUB SWAP1 RETURN JUMPDEST CALLVALUE DUP1 ISZERO PUSH2 0x3D6 JUMPI PUSH1 0x0 DUP1 REVERT JUMPDEST POP PUSH2 0x3DF PUSH2 0x1E14 JUMP JUMPDEST PUSH1 0x40 MLOAD PUSH2 0x3EE SWAP4 SWAP3 SWAP2 SWAP1 PUSH2 0x3557 JUMP JUMPDEST PUSH1 0x40 MLOAD DUP1 SWAP2 SUB SWAP1 RETURN JUMPDEST CALLVALUE DUP1 ISZERO PUSH2 0x403 JUMPI PUSH1 0x0 DUP1 REVERT JUMPDEST POP PUSH2 0x41E PUSH1 0x4 DUP1 CALLDATASIZE SUB DUP2 ADD SWAP1 PUSH2 0x419 SWAP2 SWAP1 PUSH2 0x31C2 JUMP JUMPDEST PUSH2 0x20B0 JUMP JUMPDEST STOP JUMPDEST TIMESTAMP PUSH1 0x3 SLOAD LT ISZERO DUP1 ISZERO PUSH2 0x435 JUMPI POP PUSH1 0x7 SLOAD PUSH1 0x1 SLOAD LT JUMPDEST PUSH2 0x474 JUMPI PUSH1 0x40 MLOAD PUSH32 0x8C379A000000000000000000000000000000000000000000000000000000000 DUP2 MSTORE PUSH1 0x4 ADD PUSH2 0x46B SWAP1 PUSH2 0x3600 JUMP JUMPDEST PUSH1 0x40 MLOAD DUP1 SWAP2 SUB SWAP1 REVERT JUMPDEST PUSH1 0x4 PUSH1 0x0 SWAP1 SLOAD SWAP1 PUSH2 0x100 EXP SWAP1 DIV PUSH1 0xFF AND PUSH2 0x4C3 JUMPI PUSH1 0x40 MLOAD PUSH32 0x8C379A000000000000000000000000000000000000000000000000000000000 DUP2 MSTORE PUSH1 0x4 ADD PUSH2 0x4BA SWAP1 PUSH2 0x366C JUMP JUMPDEST PUSH1 0x40 MLOAD DUP1 SWAP2 SUB SWAP1 REVERT JUMPDEST PUSH1 0x0 PUSH32 0x0 SWAP1 POP DUP1 PUSH20 0xFFFFFFFFFFFFFFFFFFFFFFFFFFFFFFFFFFFFFFFF AND PUSH4 0xB187BD26 PUSH1 0x40 MLOAD DUP2 PUSH4 0xFFFFFFFF AND PUSH1 0xE0 SHL DUP2 MSTORE PUSH1 0x4 ADD PUSH1 0x20 PUSH1 0x40 MLOAD DUP1 DUP4 SUB DUP2 DUP7 GAS STATICCALL ISZERO DUP1 ISZERO PUSH2 0x533 JUMPI RETURNDATASIZE PUSH1 0x0 DUP1 RETURNDATACOPY RETURNDATASIZE PUSH1 0x0 REVERT JUMPDEST POP POP POP POP PUSH1 0x40 MLOAD RETURNDATASIZE PUSH1 0x1F NOT PUSH1 0x1F DUP3 ADD AND DUP3 ADD DUP1 PUSH1 0x40 MSTORE POP DUP2 ADD SWAP1 PUSH2 0x557 SWAP2 SWAP1 PUSH2 0x36A1 JUMP JUMPDEST ISZERO PUSH2 0x597 JUMPI PUSH1 0x40 MLOAD PUSH32 0x8C379A000000000000000000000000000000000000000000000000000000000 DUP2 MSTORE PUSH1 0x4 ADD PUSH2 0x58E SWAP1 PUSH2 0x3740 JUMP JUMPDEST PUSH1 0x40 MLOAD DUP1 SWAP2 SUB SWAP1 REVERT JUMPDEST PUSH1 0x8 PUSH1 0x0 SWAP1 SLOAD SWAP1 PUSH2 0x100 EXP SWAP1 DIV PUSH1 0xFF AND PUSH2 0x5E6 JUMPI PUSH1 0x40 MLOAD PUSH32 0x8C379A000000000000000000000000000000000000000000000000000000000 DUP2 MSTORE PUSH1 0x4 ADD PUSH2 0x5DD SWAP1 PUSH2 0x37D2 JUMP JUMPDEST PUSH1 0x40 MLOAD DUP1 SWAP2 SUB SWAP1 REVERT JUMPDEST PUSH1 0x0 PUSH1 0x2 PUSH1 0x0 SWAP1 SLOAD SWAP1 PUSH2 0x100 EXP SWAP1 DIV PUSH1 0xFF AND PUSH1 0x2 DUP2 GT ISZERO PUSH2 0x60A JUMPI PUSH2 0x609 PUSH2 0x32F6 JUMP JUMPDEST JUMPDEST DUP2 PUSH1 0x2 DUP2 GT ISZERO PUSH2 0x61D JUMPI PUSH2 0x61C PUSH2 0x32F6 JUMP JUMPDEST JUMPDEST EQ PUSH2 0x65D JUMPI PUSH1 0x40 MLOAD PUSH32 0x8C379A000000000000000000000000000000000000000000000000000000000 DUP2 MSTORE PUSH1 0x4 ADD PUSH2 0x654 SWAP1 PUSH2 0x3864 JUMP JUMPDEST PUSH1 0x40 MLOAD DUP1 SWAP2 SUB SWAP1 REVERT JUMPDEST PUSH2 0x666 DUP4 PUSH2 0x21A7 JUMP JUMPDEST POP POP POP JUMP JUMPDEST TIMESTAMP PUSH1 0x3 SLOAD LT ISZERO DUP1 ISZERO PUSH2 0x680 JUMPI POP PUSH1 0x7 SLOAD PUSH1 0x1 SLOAD LT JUMPDEST PUSH2 0x6BF JUMPI PUSH1 0x40 MLOAD PUSH32 0x8C379A000000000000000000000000000000000000000000000000000000000 DUP2 MSTORE PUSH1 0x4 ADD PUSH2 0x6B6 SWAP1 PUSH2 0x3600 JUMP JUMPDEST PUSH1 0x40 MLOAD DUP1 SWAP2 SUB SWAP1 REVERT JUMPDEST PUSH1 0x4 PUSH1 0x0 SWAP1 SLOAD SWAP1 PUSH2 0x100 EXP SWAP1 DIV PUSH1 0xFF AND PUSH2 0x70E JUMPI PUSH1 0x40 MLOAD PUSH32 0x8C379A000000000000000000000000000000000000000000000000000000000 DUP2 MSTORE PUSH1 0x4 ADD PUSH2 0x705 SWAP1 PUSH2 0x366C JUMP JUMPDEST PUSH1 0x40 MLOAD DUP1 SWAP2 SUB SWAP1 REVERT JUMPDEST PUSH1 0x0 PUSH32 0x0 SWAP1 POP DUP1 PUSH20 0xFFFFFFFFFFFFFFFFFFFFFFFFFFFFFFFFFFFFFFFF AND PUSH4 0xB187BD26 PUSH1 0x40 MLOAD DUP2 PUSH4 0xFFFFFFFF AND PUSH1 0xE0 SHL DUP2 MSTORE PUSH1 0x4 ADD PUSH1 0x20 PUSH1 0x40 MLOAD DUP1 DUP4 SUB DUP2 DUP7 GAS STATICCALL ISZERO DUP1 ISZERO PUSH2 0x77E JUMPI RETURNDATASIZE PUSH1 0x0 DUP1 RETURNDATACOPY RETURNDATASIZE PUSH1 0x0 REVERT JUMPDEST POP POP POP POP PUSH1 0x40 MLOAD RETURNDATASIZE PUSH1 0x1F NOT PUSH1 0x1F DUP3 ADD AND DUP3 ADD DUP1 PUSH1 0x40 MSTORE POP DUP2 ADD SWAP1 PUSH2 0x7A2 SWAP2 SWAP1 PUSH2 0x36A1 JUMP JUMPDEST ISZERO PUSH2 0x7E2 JUMPI PUSH1 0x40 MLOAD PUSH32 0x8C379A000000000000000000000000000000000000000000000000000000000 DUP2 MSTORE PUSH1 0x4 ADD PUSH2 0x7D9 SWAP1 PUSH2 0x3740 JUMP JUMPDEST PUSH1 0x40 MLOAD DUP1 SWAP2 SUB SWAP1 REVERT JUMPDEST PUSH1 0x8 PUSH1 0x0 SWAP1 SLOAD SWAP1 PUSH2 0x100 EXP SWAP1 DIV PUSH1 0xFF AND PUSH2 0x831 JUMPI PUSH1 0x40 MLOAD PUSH32 0x8C379A000000000000000000000000000000000000000000000000000000000 DUP2 MSTORE PUSH1 0x4 ADD PUSH2 0x828 SWAP1 PUSH2 0x37D2 JUMP JUMPDEST PUSH1 0x40 MLOAD DUP1 SWAP2 SUB SWAP1 REVERT JUMPDEST PUSH1 0x2 DUP1 PUSH1 0x0 SWAP1 SLOAD SWAP1 PUSH2 0x100 EXP SWAP1 DIV PUSH1 0xFF AND PUSH1 0x2 DUP2 GT ISZERO PUSH2 0x854 JUMPI PUSH2 0x853 PUSH2 0x32F6 JUMP JUMPDEST JUMPDEST DUP2 PUSH1 0x2 DUP2 GT ISZERO PUSH2 0x867 JUMPI PUSH2 0x866 PUSH2 0x32F6 JUMP JUMPDEST JUMPDEST EQ PUSH2 0x8A7 JUMPI PUSH1 0x40 MLOAD PUSH32 0x8C379A000000000000000000000000000000000000000000000000000000000 DUP2 MSTORE PUSH1 0x4 ADD PUSH2 0x89E SWAP1 PUSH2 0x3864 JUMP JUMPDEST PUSH1 0x40 MLOAD DUP1 SWAP2 SUB SWAP1 REVERT JUMPDEST PUSH2 0x8B0 DUP4 PUSH2 0x258F JUMP JUMPDEST POP POP POP JUMP JUMPDEST PUSH1 0x4 PUSH1 0x0 SWAP1 SLOAD SWAP1 PUSH2 0x100 EXP SWAP1 DIV PUSH1 0xFF AND DUP2 JUMP JUMPDEST TIMESTAMP PUSH1 0x3 SLOAD LT DUP1 PUSH2 0x8DC JUMPI POP PUSH1 0x7 SLOAD PUSH1 0x1 SLOAD LT ISZERO JUMPDEST PUSH2 0x91B JUMPI PUSH1 0x40 MLOAD PUSH32 0x8C379A000000000000000000000000000000000000000000000000000000000 DUP2 MSTORE PUSH1 0x4 ADD PUSH2 0x912 SWAP1 PUSH2 0x38D0 JUMP JUMPDEST PUSH1 0x40 MLOAD DUP1 SWAP2 SUB SWAP1 REVERT JUMPDEST PUSH1 0x4 PUSH1 0x0 SWAP1 SLOAD SWAP1 PUSH2 0x100 EXP SWAP1 DIV PUSH1 0xFF AND PUSH2 0x96A JUMPI PUSH1 0x40 MLOAD PUSH32 0x8C379A000000000000000000000000000000000000000000000000000000000 DUP2 MSTORE PUSH1 0x4 ADD PUSH2 0x961 SWAP1 PUSH2 0x366C JUMP JUMPDEST PUSH1 0x40 MLOAD DUP1 SWAP2 SUB SWAP1 REVERT JUMPDEST PUSH2 0x972 PUSH2 0x2907 JUMP JUMPDEST PUSH20 0xFFFFFFFFFFFFFFFFFFFFFFFFFFFFFFFFFFFFFFFF AND PUSH2 0x990 PUSH2 0x170D JUMP JUMPDEST PUSH20 0xFFFFFFFFFFFFFFFFFFFFFFFFFFFFFFFFFFFFFFFF AND EQ PUSH2 0x9E6 JUMPI PUSH1 0x40 MLOAD PUSH32 0x8C379A000000000000000000000000000000000000000000000000000000000 DUP2 MSTORE PUSH1 0x4 ADD PUSH2 0x9DD SWAP1 PUSH2 0x393C JUMP JUMPDEST PUSH1 0x40 MLOAD DUP1 SWAP2 SUB SWAP1 REVERT JUMPDEST PUSH1 0x0 PUSH1 0x2 PUSH1 0x1 SWAP1 SLOAD SWAP1 PUSH2 0x100 EXP SWAP1 DIV PUSH20 0xFFFFFFFFFFFFFFFFFFFFFFFFFFFFFFFFFFFFFFFF AND SWAP1 POP PUSH1 0x0 DUP2 PUSH20 0xFFFFFFFFFFFFFFFFFFFFFFFFFFFFFFFFFFFFFFFF AND PUSH4 0x70A08231 ADDRESS PUSH1 0x40 MLOAD DUP3 PUSH4 0xFFFFFFFF AND PUSH1 0xE0 SHL DUP2 MSTORE PUSH1 0x4 ADD PUSH2 0xA48 SWAP2 SWAP1 PUSH2 0x3397 JUMP JUMPDEST PUSH1 0x20 PUSH1 0x40 MLOAD DUP1 DUP4 SUB DUP2 DUP7 GAS STATICCALL ISZERO DUP1 ISZERO PUSH2 0xA65 JUMPI RETURNDATASIZE PUSH1 0x0 DUP1 RETURNDATACOPY RETURNDATASIZE PUSH1 0x0 REVERT JUMPDEST POP POP POP POP PUSH1 0x40 MLOAD RETURNDATASIZE PUSH1 0x1F NOT PUSH1 0x1F DUP3 ADD AND DUP3 ADD DUP1 PUSH1 0x40 MSTORE POP DUP2 ADD SWAP1 PUSH2 0xA89 SWAP2 SWAP1 PUSH2 0x3971 JUMP JUMPDEST SWAP1 POP PUSH1 0x0 DUP2 GT ISZERO PUSH2 0xB2C JUMPI PUSH1 0x2 PUSH1 0x1 SWAP1 SLOAD SWAP1 PUSH2 0x100 EXP SWAP1 DIV PUSH20 0xFFFFFFFFFFFFFFFFFFFFFFFFFFFFFFFFFFFFFFFF AND PUSH20 0xFFFFFFFFFFFFFFFFFFFFFFFFFFFFFFFFFFFFFFFF AND PUSH4 0x2E1A7D4D DUP3 PUSH1 0x40 MLOAD DUP3 PUSH4 0xFFFFFFFF AND PUSH1 0xE0 SHL DUP2 MSTORE PUSH1 0x4 ADD PUSH2 0xAEF SWAP2 SWAP1 PUSH2 0x3149 JUMP JUMPDEST PUSH1 0x0 PUSH1 0x40 MLOAD DUP1 DUP4 SUB DUP2 PUSH1 0x0 DUP8 DUP1 EXTCODESIZE ISZERO DUP1 ISZERO PUSH2 0xB09 JUMPI PUSH1 0x0 DUP1 REVERT JUMPDEST POP GAS CALL ISZERO DUP1 ISZERO PUSH2 0xB1D JUMPI RETURNDATASIZE PUSH1 0x0 DUP1 RETURNDATACOPY RETURNDATASIZE PUSH1 0x0 REVERT JUMPDEST POP POP POP POP PUSH2 0xB2B CALLER DUP3 PUSH2 0x290F JUMP JUMPDEST JUMPDEST PUSH1 0x0 PUSH1 0x5 PUSH1 0x0 SWAP1 SLOAD SWAP1 PUSH2 0x100 EXP SWAP1 DIV PUSH20 0xFFFFFFFFFFFFFFFFFFFFFFFFFFFFFFFFFFFFFFFF AND PUSH20 0xFFFFFFFFFFFFFFFFFFFFFFFFFFFFFFFFFFFFFFFF AND PUSH4 0x70A08231 ADDRESS PUSH1 0x40 MLOAD DUP3 PUSH4 0xFFFFFFFF AND PUSH1 0xE0 SHL DUP2 MSTORE PUSH1 0x4 ADD PUSH2 0xB89 SWAP2 SWAP1 PUSH2 0x3397 JUMP JUMPDEST PUSH1 0x20 PUSH1 0x40 MLOAD DUP1 DUP4 SUB DUP2 DUP7 GAS STATICCALL ISZERO DUP1 ISZERO PUSH2 0xBA6 JUMPI RETURNDATASIZE PUSH1 0x0 DUP1 RETURNDATACOPY RETURNDATASIZE PUSH1 0x0 REVERT JUMPDEST POP POP POP POP PUSH1 0x40 MLOAD RETURNDATASIZE PUSH1 0x1F NOT PUSH1 0x1F DUP3 ADD AND DUP3 ADD DUP1 PUSH1 0x40 MSTORE POP DUP2 ADD SWAP1 PUSH2 0xBCA SWAP2 SWAP1 PUSH2 0x3971 JUMP JUMPDEST SWAP1 POP PUSH1 0x0 DUP2 GT ISZERO PUSH2 0xC03 JUMPI PUSH2 0xC02 PUSH1 0x5 PUSH1 0x0 SWAP1 SLOAD SWAP1 PUSH2 0x100 EXP SWAP1 DIV PUSH20 0xFFFFFFFFFFFFFFFFFFFFFFFFFFFFFFFFFFFFFFFF AND CALLER DUP4 PUSH2 0x2A0F JUMP JUMPDEST JUMPDEST PUSH1 0x0 PUSH1 0x4 PUSH1 0x1 SWAP1 SLOAD SWAP1 PUSH2 0x100 EXP SWAP1 DIV PUSH20 0xFFFFFFFFFFFFFFFFFFFFFFFFFFFFFFFFFFFFFFFF AND PUSH20 0xFFFFFFFFFFFFFFFFFFFFFFFFFFFFFFFFFFFFFFFF AND PUSH4 0x70A08231 ADDRESS PUSH1 0x40 MLOAD DUP3 PUSH4 0xFFFFFFFF AND PUSH1 0xE0 SHL DUP2 MSTORE PUSH1 0x4 ADD PUSH2 0xC60 SWAP2 SWAP1 PUSH2 0x3397 JUMP JUMPDEST PUSH1 0x20 PUSH1 0x40 MLOAD DUP1 DUP4 SUB DUP2 DUP7 GAS STATICCALL ISZERO DUP1 ISZERO PUSH2 0xC7D JUMPI RETURNDATASIZE PUSH1 0x0 DUP1 RETURNDATACOPY RETURNDATASIZE PUSH1 0x0 REVERT JUMPDEST POP POP POP POP PUSH1 0x40 MLOAD RETURNDATASIZE PUSH1 0x1F NOT PUSH1 0x1F DUP3 ADD AND DUP3 ADD DUP1 PUSH1 0x40 MSTORE POP DUP2 ADD SWAP1 PUSH2 0xCA1 SWAP2 SWAP1 PUSH2 0x3971 JUMP JUMPDEST SWAP1 POP PUSH1 0x0 DUP2 GT ISZERO PUSH2 0xCDA JUMPI PUSH2 0xCD9 PUSH1 0x4 PUSH1 0x1 SWAP1 SLOAD SWAP1 PUSH2 0x100 EXP SWAP1 DIV PUSH20 0xFFFFFFFFFFFFFFFFFFFFFFFFFFFFFFFFFFFFFFFF AND CALLER DUP4 PUSH2 0x2A0F JUMP JUMPDEST JUMPDEST PUSH1 0x0 DUP1 PUSH1 0x0 PUSH1 0x2 DUP2 GT ISZERO PUSH2 0xCF1 JUMPI PUSH2 0xCF0 PUSH2 0x32F6 JUMP JUMPDEST JUMPDEST PUSH1 0x2 PUSH1 0x0 SWAP1 SLOAD SWAP1 PUSH2 0x100 EXP SWAP1 DIV PUSH1 0xFF AND PUSH1 0x2 DUP2 GT ISZERO PUSH2 0xD13 JUMPI PUSH2 0xD12 PUSH2 0x32F6 JUMP JUMPDEST JUMPDEST SUB PUSH2 0xD23 JUMPI DUP5 SWAP2 POP DUP4 SWAP1 POP PUSH2 0xD70 JUMP JUMPDEST PUSH1 0x2 DUP1 DUP2 GT ISZERO PUSH2 0xD36 JUMPI PUSH2 0xD35 PUSH2 0x32F6 JUMP JUMPDEST JUMPDEST PUSH1 0x2 PUSH1 0x0 SWAP1 SLOAD SWAP1 PUSH2 0x100 EXP SWAP1 DIV PUSH1 0xFF AND PUSH1 0x2 DUP2 GT ISZERO PUSH2 0xD58 JUMPI PUSH2 0xD57 PUSH2 0x32F6 JUMP JUMPDEST JUMPDEST SUB PUSH2 0xD68 JUMPI DUP3 SWAP2 POP DUP4 SWAP1 POP PUSH2 0xD6F JUMP JUMPDEST DUP3 SWAP2 POP DUP5 SWAP1 POP JUMPDEST JUMPDEST PUSH1 0x0 PUSH32 0x0 SWAP1 POP DUP1 PUSH20 0xFFFFFFFFFFFFFFFFFFFFFFFFFFFFFFFFFFFFFFFF AND PUSH4 0x33796A0E ADDRESS CALLER DUP7 DUP7 PUSH1 0x40 MLOAD DUP6 PUSH4 0xFFFFFFFF AND PUSH1 0xE0 SHL DUP2 MSTORE PUSH1 0x4 ADD PUSH2 0xDD4 SWAP5 SWAP4 SWAP3 SWAP2 SWAP1 PUSH2 0x399E JUMP JUMPDEST PUSH1 0x0 PUSH1 0x40 MLOAD DUP1 DUP4 SUB DUP2 PUSH1 0x0 DUP8 DUP1 EXTCODESIZE ISZERO DUP1 ISZERO PUSH2 0xDEE JUMPI PUSH1 0x0 DUP1 REVERT JUMPDEST POP GAS CALL ISZERO DUP1 ISZERO PUSH2 0xE02 JUMPI RETURNDATASIZE PUSH1 0x0 DUP1 RETURNDATACOPY RETURNDATASIZE PUSH1 0x0 REVERT JUMPDEST POP POP POP POP CALLER PUSH20 0xFFFFFFFFFFFFFFFFFFFFFFFFFFFFFFFFFFFFFFFF AND SELFDESTRUCT JUMPDEST PUSH1 0x0 DUP1 PUSH1 0x4 PUSH1 0x0 SWAP1 SLOAD SWAP1 PUSH2 0x100 EXP SWAP1 DIV PUSH1 0xFF AND PUSH2 0xE71 JUMPI PUSH1 0x40 MLOAD PUSH32 0x8C379A000000000000000000000000000000000000000000000000000000000 DUP2 MSTORE PUSH1 0x4 ADD PUSH2 0xE68 SWAP1 PUSH2 0x366C JUMP JUMPDEST PUSH1 0x40 MLOAD DUP1 SWAP2 SUB SWAP1 REVERT JUMPDEST PUSH1 0x6 SLOAD PUSH1 0x7 SLOAD SWAP2 POP SWAP2 POP SWAP1 SWAP2 JUMP JUMPDEST PUSH1 0x1 SLOAD DUP2 JUMP JUMPDEST TIMESTAMP PUSH1 0x3 SLOAD LT ISZERO DUP1 ISZERO PUSH2 0xE9A JUMPI POP PUSH1 0x7 SLOAD PUSH1 0x1 SLOAD LT JUMPDEST PUSH2 0xED9 JUMPI PUSH1 0x40 MLOAD PUSH32 0x8C379A000000000000000000000000000000000000000000000000000000000 DUP2 MSTORE PUSH1 0x4 ADD PUSH2 0xED0 SWAP1 PUSH2 0x3600 JUMP JUMPDEST PUSH1 0x40 MLOAD DUP1 SWAP2 SUB SWAP1 REVERT JUMPDEST PUSH1 0x4 PUSH1 0x0 SWAP1 SLOAD SWAP1 PUSH2 0x100 EXP SWAP1 DIV PUSH1 0xFF AND PUSH2 0xF28 JUMPI PUSH1 0x40 MLOAD PUSH32 0x8C379A000000000000000000000000000000000000000000000000000000000 DUP2 MSTORE PUSH1 0x4 ADD PUSH2 0xF1F SWAP1 PUSH2 0x366C JUMP JUMPDEST PUSH1 0x40 MLOAD DUP1 SWAP2 SUB SWAP1 REVERT JUMPDEST PUSH1 0x0 PUSH32 0x0 SWAP1 POP DUP1 PUSH20 0xFFFFFFFFFFFFFFFFFFFFFFFFFFFFFFFFFFFFFFFF AND PUSH4 0xB187BD26 PUSH1 0x40 MLOAD DUP2 PUSH4 0xFFFFFFFF AND PUSH1 0xE0 SHL DUP2 MSTORE PUSH1 0x4 ADD PUSH1 0x20 PUSH1 0x40 MLOAD DUP1 DUP4 SUB DUP2 DUP7 GAS STATICCALL ISZERO DUP1 ISZERO PUSH2 0xF98 JUMPI RETURNDATASIZE PUSH1 0x0 DUP1 RETURNDATACOPY RETURNDATASIZE PUSH1 0x0 REVERT JUMPDEST POP POP POP POP PUSH1 0x40 MLOAD RETURNDATASIZE PUSH1 0x1F NOT PUSH1 0x1F DUP3 ADD AND DUP3 ADD DUP1 PUSH1 0x40 MSTORE POP DUP2 ADD SWAP1 PUSH2 0xFBC SWAP2 SWAP1 PUSH2 0x36A1 JUMP JUMPDEST ISZERO PUSH2 0xFFC JUMPI PUSH1 0x40 MLOAD PUSH32 0x8C379A000000000000000000000000000000000000000000000000000000000 DUP2 MSTORE PUSH1 0x4 ADD PUSH2 0xFF3 SWAP1 PUSH2 0x3740 JUMP JUMPDEST PUSH1 0x40 MLOAD DUP1 SWAP2 SUB SWAP1 REVERT JUMPDEST PUSH1 0x8 PUSH1 0x0 SWAP1 SLOAD SWAP1 PUSH2 0x100 EXP SWAP1 DIV PUSH1 0xFF AND PUSH2 0x104B JUMPI PUSH1 0x40 MLOAD PUSH32 0x8C379A000000000000000000000000000000000000000000000000000000000 DUP2 MSTORE PUSH1 0x4 ADD PUSH2 0x1042 SWAP1 PUSH2 0x37D2 JUMP JUMPDEST PUSH1 0x40 MLOAD DUP1 SWAP2 SUB SWAP1 REVERT JUMPDEST PUSH1 0x1 PUSH1 0x2 PUSH1 0x0 SWAP1 SLOAD SWAP1 PUSH2 0x100 EXP SWAP1 DIV PUSH1 0xFF AND PUSH1 0x2 DUP2 GT ISZERO PUSH2 0x106F JUMPI PUSH2 0x106E PUSH2 0x32F6 JUMP JUMPDEST JUMPDEST DUP2 PUSH1 0x2 DUP2 GT ISZERO PUSH2 0x1082 JUMPI PUSH2 0x1081 PUSH2 0x32F6 JUMP JUMPDEST JUMPDEST EQ PUSH2 0x10C2 JUMPI PUSH1 0x40 MLOAD PUSH32 0x8C379A000000000000000000000000000000000000000000000000000000000 DUP2 MSTORE PUSH1 0x4 ADD PUSH2 0x10B9 SWAP1 PUSH2 0x3864 JUMP JUMPDEST PUSH1 0x40 MLOAD DUP1 SWAP2 SUB SWAP1 REVERT JUMPDEST PUSH2 0x10CB DUP4 PUSH2 0x2B45 JUMP JUMPDEST POP POP POP JUMP JUMPDEST PUSH2 0x10D8 PUSH2 0x2907 JUMP JUMPDEST PUSH20 0xFFFFFFFFFFFFFFFFFFFFFFFFFFFFFFFFFFFFFFFF AND PUSH2 0x10F6 PUSH2 0x170D JUMP JUMPDEST PUSH20 0xFFFFFFFFFFFFFFFFFFFFFFFFFFFFFFFFFFFFFFFF AND EQ PUSH2 0x114C JUMPI PUSH1 0x40 MLOAD PUSH32 0x8C379A000000000000000000000000000000000000000000000000000000000 DUP2 MSTORE PUSH1 0x4 ADD PUSH2 0x1143 SWAP1 PUSH2 0x393C JUMP JUMPDEST PUSH1 0x40 MLOAD DUP1 SWAP2 SUB SWAP1 REVERT JUMPDEST PUSH1 0x4 PUSH1 0x0 SWAP1 SLOAD SWAP1 PUSH2 0x100 EXP SWAP1 DIV PUSH1 0xFF AND PUSH2 0x119B JUMPI PUSH1 0x40 MLOAD PUSH32 0x8C379A000000000000000000000000000000000000000000000000000000000 DUP2 MSTORE PUSH1 0x4 ADD PUSH2 0x1192 SWAP1 PUSH2 0x366C JUMP JUMPDEST PUSH1 0x40 MLOAD DUP1 SWAP2 SUB SWAP1 REVERT JUMPDEST PUSH1 0x5 PUSH1 0x0 SWAP1 SLOAD SWAP1 PUSH2 0x100 EXP SWAP1 DIV PUSH20 0xFFFFFFFFFFFFFFFFFFFFFFFFFFFFFFFFFFFFFFFF AND PUSH20 0xFFFFFFFFFFFFFFFFFFFFFFFFFFFFFFFFFFFFFFFF AND DUP2 PUSH20 0xFFFFFFFFFFFFFFFFFFFFFFFFFFFFFFFFFFFFFFFF AND EQ ISZERO DUP1 ISZERO PUSH2 0x1247 JUMPI POP PUSH1 0x4 PUSH1 0x1 SWAP1 SLOAD SWAP1 PUSH2 0x100 EXP SWAP1 DIV PUSH20 0xFFFFFFFFFFFFFFFFFFFFFFFFFFFFFFFFFFFFFFFF AND PUSH20 0xFFFFFFFFFFFFFFFFFFFFFFFFFFFFFFFFFFFFFFFF AND DUP2 PUSH20 0xFFFFFFFFFFFFFFFFFFFFFFFFFFFFFFFFFFFFFFFF AND EQ ISZERO JUMPDEST PUSH2 0x1286 JUMPI PUSH1 0x40 MLOAD PUSH32 0x8C379A000000000000000000000000000000000000000000000000000000000 DUP2 MSTORE PUSH1 0x4 ADD PUSH2 0x127D SWAP1 PUSH2 0x3A2F JUMP JUMPDEST PUSH1 0x40 MLOAD DUP1 SWAP2 SUB SWAP1 REVERT JUMPDEST PUSH1 0x0 DUP2 PUSH20 0xFFFFFFFFFFFFFFFFFFFFFFFFFFFFFFFFFFFFFFFF AND PUSH4 0x70A08231 ADDRESS PUSH1 0x40 MLOAD DUP3 PUSH4 0xFFFFFFFF AND PUSH1 0xE0 SHL DUP2 MSTORE PUSH1 0x4 ADD PUSH2 0x12C1 SWAP2 SWAP1 PUSH2 0x3397 JUMP JUMPDEST PUSH1 0x20 PUSH1 0x40 MLOAD DUP1 DUP4 SUB DUP2 DUP7 GAS STATICCALL ISZERO DUP1 ISZERO PUSH2 0x12DE JUMPI RETURNDATASIZE PUSH1 0x0 DUP1 RETURNDATACOPY RETURNDATASIZE PUSH1 0x0 REVERT JUMPDEST POP POP POP POP PUSH1 0x40 MLOAD RETURNDATASIZE PUSH1 0x1F NOT PUSH1 0x1F DUP3 ADD AND DUP3 ADD DUP1 PUSH1 0x40 MSTORE POP DUP2 ADD SWAP1 PUSH2 0x1302 SWAP2 SWAP1 PUSH2 0x3971 JUMP JUMPDEST SWAP1 POP PUSH1 0x0 DUP2 GT ISZERO PUSH2 0x133B JUMPI PUSH2 0x133A PUSH1 0x4 PUSH1 0x1 SWAP1 SLOAD SWAP1 PUSH2 0x100 EXP SWAP1 DIV PUSH20 0xFFFFFFFFFFFFFFFFFFFFFFFFFFFFFFFFFFFFFFFF AND CALLER DUP4 PUSH2 0x2A0F JUMP JUMPDEST JUMPDEST POP POP JUMP JUMPDEST PUSH1 0x0 PUSH32 0x0 PUSH20 0xFFFFFFFFFFFFFFFFFFFFFFFFFFFFFFFFFFFFFFFF AND CALLER PUSH20 0xFFFFFFFFFFFFFFFFFFFFFFFFFFFFFFFFFFFFFFFF AND EQ PUSH2 0x13CF JUMPI PUSH1 0x40 MLOAD PUSH32 0x8C379A000000000000000000000000000000000000000000000000000000000 DUP2 MSTORE PUSH1 0x4 ADD PUSH2 0x13C6 SWAP1 PUSH2 0x3A2F JUMP JUMPDEST PUSH1 0x40 MLOAD DUP1 SWAP2 SUB SWAP1 REVERT JUMPDEST PUSH1 0x4 PUSH1 0x0 SWAP1 SLOAD SWAP1 PUSH2 0x100 EXP SWAP1 DIV PUSH1 0xFF AND ISZERO PUSH2 0x141F JUMPI PUSH1 0x40 MLOAD PUSH32 0x8C379A000000000000000000000000000000000000000000000000000000000 DUP2 MSTORE PUSH1 0x4 ADD PUSH2 0x1416 SWAP1 PUSH2 0x3AC1 JUMP JUMPDEST PUSH1 0x40 MLOAD DUP1 SWAP2 SUB SWAP1 REVERT JUMPDEST TIMESTAMP DUP5 LT PUSH2 0x1461 JUMPI PUSH1 0x40 MLOAD PUSH32 0x8C379A000000000000000000000000000000000000000000000000000000000 DUP2 MSTORE PUSH1 0x4 ADD PUSH2 0x1458 SWAP1 PUSH2 0x3B2D JUMP JUMPDEST PUSH1 0x40 MLOAD DUP1 SWAP2 SUB SWAP1 REVERT JUMPDEST DUP6 DUP9 PUSH20 0xFFFFFFFFFFFFFFFFFFFFFFFFFFFFFFFFFFFFFFFF AND PUSH4 0x70A08231 ADDRESS PUSH1 0x40 MLOAD DUP3 PUSH4 0xFFFFFFFF AND PUSH1 0xE0 SHL DUP2 MSTORE PUSH1 0x4 ADD PUSH2 0x149B SWAP2 SWAP1 PUSH2 0x3397 JUMP JUMPDEST PUSH1 0x20 PUSH1 0x40 MLOAD DUP1 DUP4 SUB DUP2 DUP7 GAS STATICCALL ISZERO DUP1 ISZERO PUSH2 0x14B8 JUMPI RETURNDATASIZE PUSH1 0x0 DUP1 RETURNDATACOPY RETURNDATASIZE PUSH1 0x0 REVERT JUMPDEST POP POP POP POP PUSH1 0x40 MLOAD RETURNDATASIZE PUSH1 0x1F NOT PUSH1 0x1F DUP3 ADD AND DUP3 ADD DUP1 PUSH1 0x40 MSTORE POP DUP2 ADD SWAP1 PUSH2 0x14DC SWAP2 SWAP1 PUSH2 0x3971 JUMP JUMPDEST LT ISZERO PUSH2 0x151D JUMPI PUSH1 0x40 MLOAD PUSH32 0x8C379A000000000000000000000000000000000000000000000000000000000 DUP2 MSTORE PUSH1 0x4 ADD PUSH2 0x1514 SWAP1 PUSH2 0x3BBF JUMP JUMPDEST PUSH1 0x40 MLOAD DUP1 SWAP2 SUB SWAP1 REVERT JUMPDEST DUP4 PUSH1 0x3 DUP2 SWAP1 SSTORE POP DUP8 PUSH1 0x4 PUSH1 0x1 PUSH2 0x100 EXP DUP2 SLOAD DUP2 PUSH20 0xFFFFFFFFFFFFFFFFFFFFFFFFFFFFFFFFFFFFFFFF MUL NOT AND SWAP1 DUP4 PUSH20 0xFFFFFFFFFFFFFFFFFFFFFFFFFFFFFFFFFFFFFFFF AND MUL OR SWAP1 SSTORE POP DUP7 PUSH1 0x5 PUSH1 0x0 PUSH2 0x100 EXP DUP2 SLOAD DUP2 PUSH20 0xFFFFFFFFFFFFFFFFFFFFFFFFFFFFFFFFFFFFFFFF MUL NOT AND SWAP1 DUP4 PUSH20 0xFFFFFFFFFFFFFFFFFFFFFFFFFFFFFFFFFFFFFFFF AND MUL OR SWAP1 SSTORE POP DUP6 PUSH1 0x6 DUP2 SWAP1 SSTORE POP DUP5 PUSH1 0x7 DUP2 SWAP1 SSTORE POP DUP9 PUSH1 0x2 PUSH1 0x0 PUSH2 0x100 EXP DUP2 SLOAD DUP2 PUSH1 0xFF MUL NOT AND SWAP1 DUP4 PUSH1 0x2 DUP2 GT ISZERO PUSH2 0x15D9 JUMPI PUSH2 0x15D8 PUSH2 0x32F6 JUMP JUMPDEST JUMPDEST MUL OR SWAP1 SSTORE POP DUP3 PUSH1 0x8 PUSH1 0x0 PUSH2 0x100 EXP DUP2 SLOAD DUP2 PUSH1 0xFF MUL NOT AND SWAP1 DUP4 ISZERO ISZERO MUL OR SWAP1 SSTORE POP DUP2 PUSH1 0x2 PUSH1 0x1 PUSH2 0x100 EXP DUP2 SLOAD DUP2 PUSH20 0xFFFFFFFFFFFFFFFFFFFFFFFFFFFFFFFFFFFFFFFF MUL NOT AND SWAP1 DUP4 PUSH20 0xFFFFFFFFFFFFFFFFFFFFFFFFFFFFFFFFFFFFFFFF AND MUL OR SWAP1 SSTORE POP PUSH1 0x1 PUSH1 0x4 PUSH1 0x0 PUSH2 0x100 EXP DUP2 SLOAD DUP2 PUSH1 0xFF MUL NOT AND SWAP1 DUP4 ISZERO ISZERO MUL OR SWAP1 SSTORE POP PUSH1 0x4 PUSH1 0x0 SWAP1 SLOAD SWAP1 PUSH2 0x100 EXP SWAP1 DIV PUSH1 0xFF AND SWAP1 POP SWAP9 SWAP8 POP POP POP POP POP POP POP POP JUMP JUMPDEST PUSH2 0x167A PUSH2 0x2907 JUMP JUMPDEST PUSH20 0xFFFFFFFFFFFFFFFFFFFFFFFFFFFFFFFFFFFFFFFF AND PUSH2 0x1698 PUSH2 0x170D JUMP JUMPDEST PUSH20 0xFFFFFFFFFFFFFFFFFFFFFFFFFFFFFFFFFFFFFFFF AND EQ PUSH2 0x16EE JUMPI PUSH1 0x40 MLOAD PUSH32 0x8C379A000000000000000000000000000000000000000000000000000000000 DUP2 MSTORE PUSH1 0x4 ADD PUSH2 0x16E5 SWAP1 PUSH2 0x393C JUMP JUMPDEST PUSH1 0x40 MLOAD DUP1 SWAP2 SUB SWAP1 REVERT JUMPDEST PUSH2 0x16F8 PUSH1 0x0 PUSH2 0x2E76 JUMP JUMPDEST JUMP JUMPDEST PUSH1 0x2 PUSH1 0x0 SWAP1 SLOAD SWAP1 PUSH2 0x100 EXP SWAP1 DIV PUSH1 0xFF AND DUP2 JUMP JUMPDEST PUSH1 0x0 DUP1 PUSH1 0x0 SWAP1 SLOAD SWAP1 PUSH2 0x100 EXP SWAP1 DIV PUSH20 0xFFFFFFFFFFFFFFFFFFFFFFFFFFFFFFFFFFFFFFFF AND SWAP1 POP SWAP1 JUMP JUMPDEST TIMESTAMP PUSH1 0x3 SLOAD LT ISZERO DUP1 ISZERO PUSH2 0x174B JUMPI POP PUSH1 0x7 SLOAD PUSH1 0x1 SLOAD LT JUMPDEST PUSH2 0x178A JUMPI PUSH1 0x40 MLOAD PUSH32 0x8C379A000000000000000000000000000000000000000000000000000000000 DUP2 MSTORE PUSH1 0x4 ADD PUSH2 0x1781 SWAP1 PUSH2 0x3600 JUMP JUMPDEST PUSH1 0x40 MLOAD DUP1 SWAP2 SUB SWAP1 REVERT JUMPDEST PUSH1 0x4 PUSH1 0x0 SWAP1 SLOAD SWAP1 PUSH2 0x100 EXP SWAP1 DIV PUSH1 0xFF AND PUSH2 0x17D9 JUMPI PUSH1 0x40 MLOAD PUSH32 0x8C379A000000000000000000000000000000000000000000000000000000000 DUP2 MSTORE PUSH1 0x4 ADD PUSH2 0x17D0 SWAP1 PUSH2 0x366C JUMP JUMPDEST PUSH1 0x40 MLOAD DUP1 SWAP2 SUB SWAP1 REVERT JUMPDEST PUSH1 0x0 PUSH32 0x0 SWAP1 POP DUP1 PUSH20 0xFFFFFFFFFFFFFFFFFFFFFFFFFFFFFFFFFFFFFFFF AND PUSH4 0xB187BD26 PUSH1 0x40 MLOAD DUP2 PUSH4 0xFFFFFFFF AND PUSH1 0xE0 SHL DUP2 MSTORE PUSH1 0x4 ADD PUSH1 0x20 PUSH1 0x40 MLOAD DUP1 DUP4 SUB DUP2 DUP7 GAS STATICCALL ISZERO DUP1 ISZERO PUSH2 0x1849 JUMPI RETURNDATASIZE PUSH1 0x0 DUP1 RETURNDATACOPY RETURNDATASIZE PUSH1 0x0 REVERT JUMPDEST POP POP POP POP PUSH1 0x40 MLOAD RETURNDATASIZE PUSH1 0x1F NOT PUSH1 0x1F DUP3 ADD AND DUP3 ADD DUP1 PUSH1 0x40 MSTORE POP DUP2 ADD SWAP1 PUSH2 0x186D SWAP2 SWAP1 PUSH2 0x36A1 JUMP JUMPDEST ISZERO PUSH2 0x18AD JUMPI PUSH1 0x40 MLOAD PUSH32 0x8C379A000000000000000000000000000000000000000000000000000000000 DUP2 MSTORE PUSH1 0x4 ADD PUSH2 0x18A4 SWAP1 PUSH2 0x3740 JUMP JUMPDEST PUSH1 0x40 MLOAD DUP1 SWAP2 SUB SWAP1 REVERT JUMPDEST PUSH1 0x0 PUSH1 0x2 PUSH1 0x0 SWAP1 SLOAD SWAP1 PUSH2 0x100 EXP SWAP1 DIV PUSH1 0xFF AND PUSH1 0x2 DUP2 GT ISZERO PUSH2 0x18D1 JUMPI PUSH2 0x18D0 PUSH2 0x32F6 JUMP JUMPDEST JUMPDEST DUP2 PUSH1 0x2 DUP2 GT ISZERO PUSH2 0x18E4 JUMPI PUSH2 0x18E3 PUSH2 0x32F6 JUMP JUMPDEST JUMPDEST EQ PUSH2 0x1924 JUMPI PUSH1 0x40 MLOAD PUSH32 0x8C379A000000000000000000000000000000000000000000000000000000000 DUP2 MSTORE PUSH1 0x4 ADD PUSH2 0x191B SWAP1 PUSH2 0x3864 JUMP JUMPDEST PUSH1 0x40 MLOAD DUP1 SWAP2 SUB SWAP1 REVERT JUMPDEST PUSH2 0x192F PUSH1 0x7 SLOAD PUSH2 0x21A7 JUMP JUMPDEST POP POP JUMP JUMPDEST PUSH1 0x0 DUP1 PUSH1 0x4 PUSH1 0x0 SWAP1 SLOAD SWAP1 PUSH2 0x100 EXP SWAP1 DIV PUSH1 0xFF AND PUSH2 0x1985 JUMPI PUSH1 0x40 MLOAD PUSH32 0x8C379A000000000000000000000000000000000000000000000000000000000 DUP2 MSTORE PUSH1 0x4 ADD PUSH2 0x197C SWAP1 PUSH2 0x366C JUMP JUMPDEST PUSH1 0x40 MLOAD DUP1 SWAP2 SUB SWAP1 REVERT JUMPDEST PUSH1 0x4 PUSH1 0x1 SWAP1 SLOAD SWAP1 PUSH2 0x100 EXP SWAP1 DIV PUSH20 0xFFFFFFFFFFFFFFFFFFFFFFFFFFFFFFFFFFFFFFFF AND PUSH1 0x5 PUSH1 0x0 SWAP1 SLOAD SWAP1 PUSH2 0x100 EXP SWAP1 DIV PUSH20 0xFFFFFFFFFFFFFFFFFFFFFFFFFFFFFFFFFFFFFFFF AND SWAP2 POP SWAP2 POP SWAP1 SWAP2 JUMP JUMPDEST TIMESTAMP PUSH1 0x3 SLOAD LT ISZERO DUP1 ISZERO PUSH2 0x19E8 JUMPI POP PUSH1 0x7 SLOAD PUSH1 0x1 SLOAD LT JUMPDEST PUSH2 0x1A27 JUMPI PUSH1 0x40 MLOAD PUSH32 0x8C379A000000000000000000000000000000000000000000000000000000000 DUP2 MSTORE PUSH1 0x4 ADD PUSH2 0x1A1E SWAP1 PUSH2 0x3600 JUMP JUMPDEST PUSH1 0x40 MLOAD DUP1 SWAP2 SUB SWAP1 REVERT JUMPDEST PUSH1 0x4 PUSH1 0x0 SWAP1 SLOAD SWAP1 PUSH2 0x100 EXP SWAP1 DIV PUSH1 0xFF AND PUSH2 0x1A76 JUMPI PUSH1 0x40 MLOAD PUSH32 0x8C379A000000000000000000000000000000000000000000000000000000000 DUP2 MSTORE PUSH1 0x4 ADD PUSH2 0x1A6D SWAP1 PUSH2 0x366C JUMP JUMPDEST PUSH1 0x40 MLOAD DUP1 SWAP2 SUB SWAP1 REVERT JUMPDEST PUSH1 0x0 PUSH32 0x0 SWAP1 POP DUP1 PUSH20 0xFFFFFFFFFFFFFFFFFFFFFFFFFFFFFFFFFFFFFFFF AND PUSH4 0xB187BD26 PUSH1 0x40 MLOAD DUP2 PUSH4 0xFFFFFFFF AND PUSH1 0xE0 SHL DUP2 MSTORE PUSH1 0x4 ADD PUSH1 0x20 PUSH1 0x40 MLOAD DUP1 DUP4 SUB DUP2 DUP7 GAS STATICCALL ISZERO DUP1 ISZERO PUSH2 0x1AE6 JUMPI RETURNDATASIZE PUSH1 0x0 DUP1 RETURNDATACOPY RETURNDATASIZE PUSH1 0x0 REVERT JUMPDEST POP POP POP POP PUSH1 0x40 MLOAD RETURNDATASIZE PUSH1 0x1F NOT PUSH1 0x1F DUP3 ADD AND DUP3 ADD DUP1 PUSH1 0x40 MSTORE POP DUP2 ADD SWAP1 PUSH2 0x1B0A SWAP2 SWAP1 PUSH2 0x36A1 JUMP JUMPDEST ISZERO PUSH2 0x1B4A JUMPI PUSH1 0x40 MLOAD PUSH32 0x8C379A000000000000000000000000000000000000000000000000000000000 DUP2 MSTORE PUSH1 0x4 ADD PUSH2 0x1B41 SWAP1 PUSH2 0x3740 JUMP JUMPDEST PUSH1 0x40 MLOAD DUP1 SWAP2 SUB SWAP1 REVERT JUMPDEST PUSH1 0x2 DUP1 PUSH1 0x0 SWAP1 SLOAD SWAP1 PUSH2 0x100 EXP SWAP1 DIV PUSH1 0xFF AND PUSH1 0x2 DUP2 GT ISZERO PUSH2 0x1B6D JUMPI PUSH2 0x1B6C PUSH2 0x32F6 JUMP JUMPDEST JUMPDEST DUP2 PUSH1 0x2 DUP2 GT ISZERO PUSH2 0x1B80 JUMPI PUSH2 0x1B7F PUSH2 0x32F6 JUMP JUMPDEST JUMPDEST EQ PUSH2 0x1BC0 JUMPI PUSH1 0x40 MLOAD PUSH32 0x8C379A000000000000000000000000000000000000000000000000000000000 DUP2 MSTORE PUSH1 0x4 ADD PUSH2 0x1BB7 SWAP1 PUSH2 0x3864 JUMP JUMPDEST PUSH1 0x40 MLOAD DUP1 SWAP2 SUB SWAP1 REVERT JUMPDEST PUSH2 0x1BCB PUSH1 0x7 SLOAD PUSH2 0x258F JUMP JUMPDEST POP POP JUMP JUMPDEST PUSH32 0x0 DUP2 JUMP JUMPDEST TIMESTAMP PUSH1 0x3 SLOAD LT ISZERO DUP1 ISZERO PUSH2 0x1C08 JUMPI POP PUSH1 0x7 SLOAD PUSH1 0x1 SLOAD LT JUMPDEST PUSH2 0x1C47 JUMPI PUSH1 0x40 MLOAD PUSH32 0x8C379A000000000000000000000000000000000000000000000000000000000 DUP2 MSTORE PUSH1 0x4 ADD PUSH2 0x1C3E SWAP1 PUSH2 0x3600 JUMP JUMPDEST PUSH1 0x40 MLOAD DUP1 SWAP2 SUB SWAP1 REVERT JUMPDEST PUSH1 0x4 PUSH1 0x0 SWAP1 SLOAD SWAP1 PUSH2 0x100 EXP SWAP1 DIV PUSH1 0xFF AND PUSH2 0x1C96 JUMPI PUSH1 0x40 MLOAD PUSH32 0x8C379A000000000000000000000000000000000000000000000000000000000 DUP2 MSTORE PUSH1 0x4 ADD PUSH2 0x1C8D SWAP1 PUSH2 0x366C JUMP JUMPDEST PUSH1 0x40 MLOAD DUP1 SWAP2 SUB SWAP1 REVERT JUMPDEST PUSH1 0x0 PUSH32 0x0 SWAP1 POP DUP1 PUSH20 0xFFFFFFFFFFFFFFFFFFFFFFFFFFFFFFFFFFFFFFFF AND PUSH4 0xB187BD26 PUSH1 0x40 MLOAD DUP2 PUSH4 0xFFFFFFFF AND PUSH1 0xE0 SHL DUP2 MSTORE PUSH1 0x4 ADD PUSH1 0x20 PUSH1 0x40 MLOAD DUP1 DUP4 SUB DUP2 DUP7 GAS STATICCALL ISZERO DUP1 ISZERO PUSH2 0x1D06 JUMPI RETURNDATASIZE PUSH1 0x0 DUP1 RETURNDATACOPY RETURNDATASIZE PUSH1 0x0 REVERT JUMPDEST POP POP POP POP PUSH1 0x40 MLOAD RETURNDATASIZE PUSH1 0x1F NOT PUSH1 0x1F DUP3 ADD AND DUP3 ADD DUP1 PUSH1 0x40 MSTORE POP DUP2 ADD SWAP1 PUSH2 0x1D2A SWAP2 SWAP1 PUSH2 0x36A1 JUMP JUMPDEST ISZERO PUSH2 0x1D6A JUMPI PUSH1 0x40 MLOAD PUSH32 0x8C379A000000000000000000000000000000000000000000000000000000000 DUP2 MSTORE PUSH1 0x4 ADD PUSH2 0x1D61 SWAP1 PUSH2 0x3740 JUMP JUMPDEST PUSH1 0x40 MLOAD DUP1 SWAP2 SUB SWAP1 REVERT JUMPDEST PUSH1 0x1 PUSH1 0x2 PUSH1 0x0 SWAP1 SLOAD SWAP1 PUSH2 0x100 EXP SWAP1 DIV PUSH1 0xFF AND PUSH1 0x2 DUP2 GT ISZERO PUSH2 0x1D8E JUMPI PUSH2 0x1D8D PUSH2 0x32F6 JUMP JUMPDEST JUMPDEST DUP2 PUSH1 0x2 DUP2 GT ISZERO PUSH2 0x1DA1 JUMPI PUSH2 0x1DA0 PUSH2 0x32F6 JUMP JUMPDEST JUMPDEST EQ PUSH2 0x1DE1 JUMPI PUSH1 0x40 MLOAD PUSH32 0x8C379A000000000000000000000000000000000000000000000000000000000 DUP2 MSTORE PUSH1 0x4 ADD PUSH2 0x1DD8 SWAP1 PUSH2 0x3864 JUMP JUMPDEST PUSH1 0x40 MLOAD DUP1 SWAP2 SUB SWAP1 REVERT JUMPDEST PUSH2 0x1DEC PUSH1 0x7 SLOAD PUSH2 0x2B45 JUMP JUMPDEST POP POP JUMP JUMPDEST PUSH1 0x0 PUSH1 0x7 SLOAD PUSH1 0x6 SLOAD DUP4 PUSH2 0x1E03 SWAP2 SWAP1 PUSH2 0x3C0E JUMP JUMPDEST PUSH2 0x1E0D SWAP2 SWAP1 PUSH2 0x3C97 JUMP JUMPDEST SWAP1 POP SWAP2 SWAP1 POP JUMP JUMPDEST PUSH1 0x60 DUP1 PUSH1 0x60 PUSH1 0x4 PUSH1 0x0 SWAP1 SLOAD SWAP1 PUSH2 0x100 EXP SWAP1 DIV PUSH1 0xFF AND PUSH2 0x1E68 JUMPI PUSH1 0x40 MLOAD PUSH32 0x8C379A000000000000000000000000000000000000000000000000000000000 DUP2 MSTORE PUSH1 0x4 ADD PUSH2 0x1E5F SWAP1 PUSH2 0x366C JUMP JUMPDEST PUSH1 0x40 MLOAD DUP1 SWAP2 SUB SWAP1 REVERT JUMPDEST PUSH1 0x0 PUSH1 0x9 DUP1 SLOAD SWAP1 POP PUSH8 0xFFFFFFFFFFFFFFFF DUP2 GT ISZERO PUSH2 0x1E89 JUMPI PUSH2 0x1E88 PUSH2 0x3CC8 JUMP JUMPDEST JUMPDEST PUSH1 0x40 MLOAD SWAP1 DUP1 DUP3 MSTORE DUP1 PUSH1 0x20 MUL PUSH1 0x20 ADD DUP3 ADD PUSH1 0x40 MSTORE DUP1 ISZERO PUSH2 0x1EB7 JUMPI DUP2 PUSH1 0x20 ADD PUSH1 0x20 DUP3 MUL DUP1 CALLDATASIZE DUP4 CALLDATACOPY DUP1 DUP3 ADD SWAP2 POP POP SWAP1 POP JUMPDEST POP SWAP1 POP PUSH1 0x0 PUSH1 0x9 DUP1 SLOAD SWAP1 POP PUSH8 0xFFFFFFFFFFFFFFFF DUP2 GT ISZERO PUSH2 0x1EDB JUMPI PUSH2 0x1EDA PUSH2 0x3CC8 JUMP JUMPDEST JUMPDEST PUSH1 0x40 MLOAD SWAP1 DUP1 DUP3 MSTORE DUP1 PUSH1 0x20 MUL PUSH1 0x20 ADD DUP3 ADD PUSH1 0x40 MSTORE DUP1 ISZERO PUSH2 0x1F09 JUMPI DUP2 PUSH1 0x20 ADD PUSH1 0x20 DUP3 MUL DUP1 CALLDATASIZE DUP4 CALLDATACOPY DUP1 DUP3 ADD SWAP2 POP POP SWAP1 POP JUMPDEST POP SWAP1 POP PUSH1 0x0 PUSH1 0x9 DUP1 SLOAD SWAP1 POP PUSH8 0xFFFFFFFFFFFFFFFF DUP2 GT ISZERO PUSH2 0x1F2D JUMPI PUSH2 0x1F2C PUSH2 0x3CC8 JUMP JUMPDEST JUMPDEST PUSH1 0x40 MLOAD SWAP1 DUP1 DUP3 MSTORE DUP1 PUSH1 0x20 MUL PUSH1 0x20 ADD DUP3 ADD PUSH1 0x40 MSTORE DUP1 ISZERO PUSH2 0x1F5B JUMPI DUP2 PUSH1 0x20 ADD PUSH1 0x20 DUP3 MUL DUP1 CALLDATASIZE DUP4 CALLDATACOPY DUP1 DUP3 ADD SWAP2 POP POP SWAP1 POP JUMPDEST POP SWAP1 POP PUSH1 0x0 JUMPDEST PUSH1 0x9 DUP1 SLOAD SWAP1 POP DUP2 LT ISZERO PUSH2 0x209E JUMPI PUSH1 0x9 DUP2 DUP2 SLOAD DUP2 LT PUSH2 0x1F82 JUMPI PUSH2 0x1F81 PUSH2 0x3CF7 JUMP JUMPDEST JUMPDEST SWAP1 PUSH1 0x0 MSTORE PUSH1 0x20 PUSH1 0x0 KECCAK256 SWAP1 PUSH1 0x3 MUL ADD PUSH1 0x0 ADD PUSH1 0x0 SWAP1 SLOAD SWAP1 PUSH2 0x100 EXP SWAP1 DIV PUSH20 0xFFFFFFFFFFFFFFFFFFFFFFFFFFFFFFFFFFFFFFFF AND DUP5 DUP3 DUP2 MLOAD DUP2 LT PUSH2 0x1FC7 JUMPI PUSH2 0x1FC6 PUSH2 0x3CF7 JUMP JUMPDEST JUMPDEST PUSH1 0x20 MUL PUSH1 0x20 ADD ADD SWAP1 PUSH20 0xFFFFFFFFFFFFFFFFFFFFFFFFFFFFFFFFFFFFFFFF AND SWAP1 DUP2 PUSH20 0xFFFFFFFFFFFFFFFFFFFFFFFFFFFFFFFFFFFFFFFF AND DUP2 MSTORE POP POP PUSH1 0x9 DUP2 DUP2 SLOAD DUP2 LT PUSH2 0x2015 JUMPI PUSH2 0x2014 PUSH2 0x3CF7 JUMP JUMPDEST JUMPDEST SWAP1 PUSH1 0x0 MSTORE PUSH1 0x20 PUSH1 0x0 KECCAK256 SWAP1 PUSH1 0x3 MUL ADD PUSH1 0x1 ADD SLOAD DUP4 DUP3 DUP2 MLOAD DUP2 LT PUSH2 0x203A JUMPI PUSH2 0x2039 PUSH2 0x3CF7 JUMP JUMPDEST JUMPDEST PUSH1 0x20 MUL PUSH1 0x20 ADD ADD DUP2 DUP2 MSTORE POP POP PUSH1 0x9 DUP2 DUP2 SLOAD DUP2 LT PUSH2 0x205A JUMPI PUSH2 0x2059 PUSH2 0x3CF7 JUMP JUMPDEST JUMPDEST SWAP1 PUSH1 0x0 MSTORE PUSH1 0x20 PUSH1 0x0 KECCAK256 SWAP1 PUSH1 0x3 MUL ADD PUSH1 0x2 ADD SLOAD DUP3 DUP3 DUP2 MLOAD DUP2 LT PUSH2 0x207F JUMPI PUSH2 0x207E PUSH2 0x3CF7 JUMP JUMPDEST JUMPDEST PUSH1 0x20 MUL PUSH1 0x20 ADD ADD DUP2 DUP2 MSTORE POP POP DUP1 DUP1 PUSH2 0x2096 SWAP1 PUSH2 0x3D26 JUMP JUMPDEST SWAP2 POP POP PUSH2 0x1F61 JUMP JUMPDEST POP DUP3 DUP3 DUP3 SWAP6 POP SWAP6 POP SWAP6 POP POP POP POP SWAP1 SWAP2 SWAP3 JUMP JUMPDEST PUSH2 0x20B8 PUSH2 0x2907 JUMP JUMPDEST PUSH20 0xFFFFFFFFFFFFFFFFFFFFFFFFFFFFFFFFFFFFFFFF AND PUSH2 0x20D6 PUSH2 0x170D JUMP JUMPDEST PUSH20 0xFFFFFFFFFFFFFFFFFFFFFFFFFFFFFFFFFFFFFFFF AND EQ PUSH2 0x212C JUMPI PUSH1 0x40 MLOAD PUSH32 0x8C379A000000000000000000000000000000000000000000000000000000000 DUP2 MSTORE PUSH1 0x4 ADD PUSH2 0x2123 SWAP1 PUSH2 0x393C JUMP JUMPDEST PUSH1 0x40 MLOAD DUP1 SWAP2 SUB SWAP1 REVERT JUMPDEST PUSH1 0x0 PUSH20 0xFFFFFFFFFFFFFFFFFFFFFFFFFFFFFFFFFFFFFFFF AND DUP2 PUSH20 0xFFFFFFFFFFFFFFFFFFFFFFFFFFFFFFFFFFFFFFFF AND SUB PUSH2 0x219B JUMPI PUSH1 0x40 MLOAD PUSH32 0x8C379A000000000000000000000000000000000000000000000000000000000 DUP2 MSTORE PUSH1 0x4 ADD PUSH2 0x2192 SWAP1 PUSH2 0x3DE0 JUMP JUMPDEST PUSH1 0x40 MLOAD DUP1 SWAP2 SUB SWAP1 REVERT JUMPDEST PUSH2 0x21A4 DUP2 PUSH2 0x2E76 JUMP JUMPDEST POP JUMP JUMPDEST DUP1 PUSH1 0x5 PUSH1 0x0 SWAP1 SLOAD SWAP1 PUSH2 0x100 EXP SWAP1 DIV PUSH20 0xFFFFFFFFFFFFFFFFFFFFFFFFFFFFFFFFFFFFFFFF AND PUSH20 0xFFFFFFFFFFFFFFFFFFFFFFFFFFFFFFFFFFFFFFFF AND PUSH4 0x70A08231 CALLER PUSH1 0x40 MLOAD DUP3 PUSH4 0xFFFFFFFF AND PUSH1 0xE0 SHL DUP2 MSTORE PUSH1 0x4 ADD PUSH2 0x2203 SWAP2 SWAP1 PUSH2 0x3397 JUMP JUMPDEST PUSH1 0x20 PUSH1 0x40 MLOAD DUP1 DUP4 SUB DUP2 DUP7 GAS STATICCALL ISZERO DUP1 ISZERO PUSH2 0x2220 JUMPI RETURNDATASIZE PUSH1 0x0 DUP1 RETURNDATACOPY RETURNDATASIZE PUSH1 0x0 REVERT JUMPDEST POP POP POP POP PUSH1 0x40 MLOAD RETURNDATASIZE PUSH1 0x1F NOT PUSH1 0x1F DUP3 ADD AND DUP3 ADD DUP1 PUSH1 0x40 MSTORE POP DUP2 ADD SWAP1 PUSH2 0x2244 SWAP2 SWAP1 PUSH2 0x3971 JUMP JUMPDEST LT ISZERO PUSH2 0x2285 JUMPI PUSH1 0x40 MLOAD PUSH32 0x8C379A000000000000000000000000000000000000000000000000000000000 DUP2 MSTORE PUSH1 0x4 ADD PUSH2 0x227C SWAP1 PUSH2 0x3E72 JUMP JUMPDEST PUSH1 0x40 MLOAD DUP1 SWAP2 SUB SWAP1 REVERT JUMPDEST PUSH1 0x0 PUSH2 0x2290 DUP3 PUSH2 0x1DF0 JUMP JUMPDEST SWAP1 POP PUSH1 0x0 PUSH1 0x2 PUSH1 0x1 SWAP1 SLOAD SWAP1 PUSH2 0x100 EXP SWAP1 DIV PUSH20 0xFFFFFFFFFFFFFFFFFFFFFFFFFFFFFFFFFFFFFFFF AND SWAP1 POP DUP2 DUP2 PUSH20 0xFFFFFFFFFFFFFFFFFFFFFFFFFFFFFFFFFFFFFFFF AND PUSH4 0x70A08231 ADDRESS PUSH1 0x40 MLOAD DUP3 PUSH4 0xFFFFFFFF AND PUSH1 0xE0 SHL DUP2 MSTORE PUSH1 0x4 ADD PUSH2 0x22F3 SWAP2 SWAP1 PUSH2 0x3397 JUMP JUMPDEST PUSH1 0x20 PUSH1 0x40 MLOAD DUP1 DUP4 SUB DUP2 DUP7 GAS STATICCALL ISZERO DUP1 ISZERO PUSH2 0x2310 JUMPI RETURNDATASIZE PUSH1 0x0 DUP1 RETURNDATACOPY RETURNDATASIZE PUSH1 0x0 REVERT JUMPDEST POP POP POP POP PUSH1 0x40 MLOAD RETURNDATASIZE PUSH1 0x1F NOT PUSH1 0x1F DUP3 ADD AND DUP3 ADD DUP1 PUSH1 0x40 MSTORE POP DUP2 ADD SWAP1 PUSH2 0x2334 SWAP2 SWAP1 PUSH2 0x3971 JUMP JUMPDEST LT ISZERO PUSH2 0x2375 JUMPI PUSH1 0x40 MLOAD PUSH32 0x8C379A000000000000000000000000000000000000000000000000000000000 DUP2 MSTORE PUSH1 0x4 ADD PUSH2 0x236C SWAP1 PUSH2 0x3F04 JUMP JUMPDEST PUSH1 0x40 MLOAD DUP1 SWAP2 SUB SWAP1 REVERT JUMPDEST PUSH1 0x2 PUSH1 0x1 SWAP1 SLOAD SWAP1 PUSH2 0x100 EXP SWAP1 DIV PUSH20 0xFFFFFFFFFFFFFFFFFFFFFFFFFFFFFFFFFFFFFFFF AND PUSH20 0xFFFFFFFFFFFFFFFFFFFFFFFFFFFFFFFFFFFFFFFF AND PUSH4 0x2E1A7D4D DUP4 PUSH1 0x40 MLOAD DUP3 PUSH4 0xFFFFFFFF AND PUSH1 0xE0 SHL DUP2 MSTORE PUSH1 0x4 ADD PUSH2 0x23D0 SWAP2 SWAP1 PUSH2 0x3149 JUMP JUMPDEST PUSH1 0x0 PUSH1 0x40 MLOAD DUP1 DUP4 SUB DUP2 PUSH1 0x0 DUP8 DUP1 EXTCODESIZE ISZERO DUP1 ISZERO PUSH2 0x23EA JUMPI PUSH1 0x0 DUP1 REVERT JUMPDEST POP GAS CALL ISZERO DUP1 ISZERO PUSH2 0x23FE JUMPI RETURNDATASIZE PUSH1 0x0 DUP1 RETURNDATACOPY RETURNDATASIZE PUSH1 0x0 REVERT JUMPDEST POP POP POP POP PUSH2 0x2430 PUSH1 0x5 PUSH1 0x0 SWAP1 SLOAD SWAP1 PUSH2 0x100 EXP SWAP1 DIV PUSH20 0xFFFFFFFFFFFFFFFFFFFFFFFFFFFFFFFFFFFFFFFF AND CALLER ADDRESS DUP7 PUSH2 0x2F3A JUMP JUMPDEST PUSH2 0x243A CALLER DUP4 PUSH2 0x290F JUMP JUMPDEST PUSH1 0x9 PUSH1 0x40 MLOAD DUP1 PUSH1 0x60 ADD PUSH1 0x40 MSTORE DUP1 CALLER PUSH20 0xFFFFFFFFFFFFFFFFFFFFFFFFFFFFFFFFFFFFFFFF AND DUP2 MSTORE PUSH1 0x20 ADD DUP6 DUP2 MSTORE PUSH1 0x20 ADD DUP5 DUP2 MSTORE POP SWAP1 DUP1 PUSH1 0x1 DUP2 SLOAD ADD DUP1 DUP3 SSTORE DUP1 SWAP2 POP POP PUSH1 0x1 SWAP1 SUB SWAP1 PUSH1 0x0 MSTORE PUSH1 0x20 PUSH1 0x0 KECCAK256 SWAP1 PUSH1 0x3 MUL ADD PUSH1 0x0 SWAP1 SWAP2 SWAP1 SWAP2 SWAP1 SWAP2 POP PUSH1 0x0 DUP3 ADD MLOAD DUP2 PUSH1 0x0 ADD PUSH1 0x0 PUSH2 0x100 EXP DUP2 SLOAD DUP2 PUSH20 0xFFFFFFFFFFFFFFFFFFFFFFFFFFFFFFFFFFFFFFFF MUL NOT AND SWAP1 DUP4 PUSH20 0xFFFFFFFFFFFFFFFFFFFFFFFFFFFFFFFFFFFFFFFF AND MUL OR SWAP1 SSTORE POP PUSH1 0x20 DUP3 ADD MLOAD DUP2 PUSH1 0x1 ADD SSTORE PUSH1 0x40 DUP3 ADD MLOAD DUP2 PUSH1 0x2 ADD SSTORE POP POP PUSH1 0x0 PUSH32 0x0 SWAP1 POP DUP1 PUSH20 0xFFFFFFFFFFFFFFFFFFFFFFFFFFFFFFFFFFFFFFFF AND PUSH4 0xF52701B7 ADDRESS CALLER DUP8 DUP8 PUSH1 0x40 MLOAD DUP6 PUSH4 0xFFFFFFFF AND PUSH1 0xE0 SHL DUP2 MSTORE PUSH1 0x4 ADD PUSH2 0x2557 SWAP5 SWAP4 SWAP3 SWAP2 SWAP1 PUSH2 0x399E JUMP JUMPDEST PUSH1 0x0 PUSH1 0x40 MLOAD DUP1 DUP4 SUB DUP2 PUSH1 0x0 DUP8 DUP1 EXTCODESIZE ISZERO DUP1 ISZERO PUSH2 0x2571 JUMPI PUSH1 0x0 DUP1 REVERT JUMPDEST POP GAS CALL ISZERO DUP1 ISZERO PUSH2 0x2585 JUMPI RETURNDATASIZE PUSH1 0x0 DUP1 RETURNDATACOPY RETURNDATASIZE PUSH1 0x0 REVERT JUMPDEST POP POP POP POP POP POP POP POP JUMP JUMPDEST DUP1 PUSH1 0x5 PUSH1 0x0 SWAP1 SLOAD SWAP1 PUSH2 0x100 EXP SWAP1 DIV PUSH20 0xFFFFFFFFFFFFFFFFFFFFFFFFFFFFFFFFFFFFFFFF AND PUSH20 0xFFFFFFFFFFFFFFFFFFFFFFFFFFFFFFFFFFFFFFFF AND PUSH4 0x70A08231 CALLER PUSH1 0x40 MLOAD DUP3 PUSH4 0xFFFFFFFF AND PUSH1 0xE0 SHL DUP2 MSTORE PUSH1 0x4 ADD PUSH2 0x25EB SWAP2 SWAP1 PUSH2 0x3397 JUMP JUMPDEST PUSH1 0x20 PUSH1 0x40 MLOAD DUP1 DUP4 SUB DUP2 DUP7 GAS STATICCALL ISZERO DUP1 ISZERO PUSH2 0x2608 JUMPI RETURNDATASIZE PUSH1 0x0 DUP1 RETURNDATACOPY RETURNDATASIZE PUSH1 0x0 REVERT JUMPDEST POP POP POP POP PUSH1 0x40 MLOAD RETURNDATASIZE PUSH1 0x1F NOT PUSH1 0x1F DUP3 ADD AND DUP3 ADD DUP1 PUSH1 0x40 MSTORE POP DUP2 ADD SWAP1 PUSH2 0x262C SWAP2 SWAP1 PUSH2 0x3971 JUMP JUMPDEST LT ISZERO PUSH2 0x266D JUMPI PUSH1 0x40 MLOAD PUSH32 0x8C379A000000000000000000000000000000000000000000000000000000000 DUP2 MSTORE PUSH1 0x4 ADD PUSH2 0x2664 SWAP1 PUSH2 0x3E72 JUMP JUMPDEST PUSH1 0x40 MLOAD DUP1 SWAP2 SUB SWAP1 REVERT JUMPDEST PUSH1 0x0 PUSH2 0x2678 DUP3 PUSH2 0x1DF0 JUMP JUMPDEST SWAP1 POP DUP1 PUSH1 0x4 PUSH1 0x1 SWAP1 SLOAD SWAP1 PUSH2 0x100 EXP SWAP1 DIV PUSH20 0xFFFFFFFFFFFFFFFFFFFFFFFFFFFFFFFFFFFFFFFF AND PUSH20 0xFFFFFFFFFFFFFFFFFFFFFFFFFFFFFFFFFFFFFFFF AND PUSH4 0x70A08231 ADDRESS PUSH1 0x40 MLOAD DUP3 PUSH4 0xFFFFFFFF AND PUSH1 0xE0 SHL DUP2 MSTORE PUSH1 0x4 ADD PUSH2 0x26D6 SWAP2 SWAP1 PUSH2 0x3397 JUMP JUMPDEST PUSH1 0x20 PUSH1 0x40 MLOAD DUP1 DUP4 SUB DUP2 DUP7 GAS STATICCALL ISZERO DUP1 ISZERO PUSH2 0x26F3 JUMPI RETURNDATASIZE PUSH1 0x0 DUP1 RETURNDATACOPY RETURNDATASIZE PUSH1 0x0 REVERT JUMPDEST POP POP POP POP PUSH1 0x40 MLOAD RETURNDATASIZE PUSH1 0x1F NOT PUSH1 0x1F DUP3 ADD AND DUP3 ADD DUP1 PUSH1 0x40 MSTORE POP DUP2 ADD SWAP1 PUSH2 0x2717 SWAP2 SWAP1 PUSH2 0x3971 JUMP JUMPDEST LT ISZERO PUSH2 0x2758 JUMPI PUSH1 0x40 MLOAD PUSH32 0x8C379A000000000000000000000000000000000000000000000000000000000 DUP2 MSTORE PUSH1 0x4 ADD PUSH2 0x274F SWAP1 PUSH2 0x3F04 JUMP JUMPDEST PUSH1 0x40 MLOAD DUP1 SWAP2 SUB SWAP1 REVERT JUMPDEST PUSH2 0x2786 PUSH1 0x5 PUSH1 0x0 SWAP1 SLOAD SWAP1 PUSH2 0x100 EXP SWAP1 DIV PUSH20 0xFFFFFFFFFFFFFFFFFFFFFFFFFFFFFFFFFFFFFFFF AND CALLER ADDRESS DUP6 PUSH2 0x2F3A JUMP JUMPDEST PUSH2 0x27B3 PUSH1 0x4 PUSH1 0x1 SWAP1 SLOAD SWAP1 PUSH2 0x100 EXP SWAP1 DIV PUSH20 0xFFFFFFFFFFFFFFFFFFFFFFFFFFFFFFFFFFFFFFFF AND CALLER DUP4 PUSH2 0x2A0F JUMP JUMPDEST PUSH1 0x9 PUSH1 0x40 MLOAD DUP1 PUSH1 0x60 ADD PUSH1 0x40 MSTORE DUP1 CALLER PUSH20 0xFFFFFFFFFFFFFFFFFFFFFFFFFFFFFFFFFFFFFFFF AND DUP2 MSTORE PUSH1 0x20 ADD DUP5 DUP2 MSTORE PUSH1 0x20 ADD DUP4 DUP2 MSTORE POP SWAP1 DUP1 PUSH1 0x1 DUP2 SLOAD ADD DUP1 DUP3 SSTORE DUP1 SWAP2 POP POP PUSH1 0x1 SWAP1 SUB SWAP1 PUSH1 0x0 MSTORE PUSH1 0x20 PUSH1 0x0 KECCAK256 SWAP1 PUSH1 0x3 MUL ADD PUSH1 0x0 SWAP1 SWAP2 SWAP1 SWAP2 SWAP1 SWAP2 POP PUSH1 0x0 DUP3 ADD MLOAD DUP2 PUSH1 0x0 ADD PUSH1 0x0 PUSH2 0x100 EXP DUP2 SLOAD DUP2 PUSH20 0xFFFFFFFFFFFFFFFFFFFFFFFFFFFFFFFFFFFFFFFF MUL NOT AND SWAP1 DUP4 PUSH20 0xFFFFFFFFFFFFFFFFFFFFFFFFFFFFFFFFFFFFFFFF AND MUL OR SWAP1 SSTORE POP PUSH1 0x20 DUP3 ADD MLOAD DUP2 PUSH1 0x1 ADD SSTORE PUSH1 0x40 DUP3 ADD MLOAD DUP2 PUSH1 0x2 ADD SSTORE POP POP PUSH1 0x0 PUSH32 0x0 SWAP1 POP DUP1 PUSH20 0xFFFFFFFFFFFFFFFFFFFFFFFFFFFFFFFFFFFFFFFF AND PUSH4 0xF52701B7 ADDRESS CALLER DUP7 DUP7 PUSH1 0x40 MLOAD DUP6 PUSH4 0xFFFFFFFF AND PUSH1 0xE0 SHL DUP2 MSTORE PUSH1 0x4 ADD PUSH2 0x28D0 SWAP5 SWAP4 SWAP3 SWAP2 SWAP1 PUSH2 0x399E JUMP JUMPDEST PUSH1 0x0 PUSH1 0x40 MLOAD DUP1 DUP4 SUB DUP2 PUSH1 0x0 DUP8 DUP1 EXTCODESIZE ISZERO DUP1 ISZERO PUSH2 0x28EA JUMPI PUSH1 0x0 DUP1 REVERT JUMPDEST POP GAS CALL ISZERO DUP1 ISZERO PUSH2 0x28FE JUMPI RETURNDATASIZE PUSH1 0x0 DUP1 RETURNDATACOPY RETURNDATASIZE PUSH1 0x0 REVERT JUMPDEST POP POP POP POP POP POP POP JUMP JUMPDEST PUSH1 0x0 CALLER SWAP1 POP SWAP1 JUMP JUMPDEST PUSH1 0x0 DUP3 PUSH20 0xFFFFFFFFFFFFFFFFFFFFFFFFFFFFFFFFFFFFFFFF AND DUP3 PUSH1 0x0 PUSH8 0xFFFFFFFFFFFFFFFF DUP2 GT ISZERO PUSH2 0x2944 JUMPI PUSH2 0x2943 PUSH2 0x3CC8 JUMP JUMPDEST JUMPDEST PUSH1 0x40 MLOAD SWAP1 DUP1 DUP3 MSTORE DUP1 PUSH1 0x1F ADD PUSH1 0x1F NOT AND PUSH1 0x20 ADD DUP3 ADD PUSH1 0x40 MSTORE DUP1 ISZERO PUSH2 0x2976 JUMPI DUP2 PUSH1 0x20 ADD PUSH1 0x1 DUP3 MUL DUP1 CALLDATASIZE DUP4 CALLDATACOPY DUP1 DUP3 ADD SWAP2 POP POP SWAP1 POP JUMPDEST POP PUSH1 0x40 MLOAD PUSH2 0x2984 SWAP2 SWAP1 PUSH2 0x3F9E JUMP JUMPDEST PUSH1 0x0 PUSH1 0x40 MLOAD DUP1 DUP4 SUB DUP2 DUP6 DUP8 GAS CALL SWAP3 POP POP POP RETURNDATASIZE DUP1 PUSH1 0x0 DUP2 EQ PUSH2 0x29C1 JUMPI PUSH1 0x40 MLOAD SWAP2 POP PUSH1 0x1F NOT PUSH1 0x3F RETURNDATASIZE ADD AND DUP3 ADD PUSH1 0x40 MSTORE RETURNDATASIZE DUP3 MSTORE RETURNDATASIZE PUSH1 0x0 PUSH1 0x20 DUP5 ADD RETURNDATACOPY PUSH2 0x29C6 JUMP JUMPDEST PUSH1 0x60 SWAP2 POP JUMPDEST POP POP SWAP1 POP DUP1 PUSH2 0x2A0A JUMPI PUSH1 0x40 MLOAD PUSH32 0x8C379A000000000000000000000000000000000000000000000000000000000 DUP2 MSTORE PUSH1 0x4 ADD PUSH2 0x2A01 SWAP1 PUSH2 0x4027 JUMP JUMPDEST PUSH1 0x40 MLOAD DUP1 SWAP2 SUB SWAP1 REVERT JUMPDEST POP POP POP JUMP JUMPDEST PUSH1 0x0 DUP1 DUP5 PUSH20 0xFFFFFFFFFFFFFFFFFFFFFFFFFFFFFFFFFFFFFFFF AND PUSH4 0xA9059CBB DUP6 DUP6 PUSH1 0x40 MLOAD PUSH1 0x24 ADD PUSH2 0x2A41 SWAP3 SWAP2 SWAP1 PUSH2 0x4047 JUMP JUMPDEST PUSH1 0x40 MLOAD PUSH1 0x20 DUP2 DUP4 SUB SUB DUP2 MSTORE SWAP1 PUSH1 0x40 MSTORE SWAP1 PUSH1 0xE0 SHL PUSH1 0x20 DUP3 ADD DUP1 MLOAD PUSH28 0xFFFFFFFFFFFFFFFFFFFFFFFFFFFFFFFFFFFFFFFFFFFFFFFFFFFFFFFF DUP4 DUP2 DUP4 AND OR DUP4 MSTORE POP POP POP POP PUSH1 0x40 MLOAD PUSH2 0x2A8F SWAP2 SWAP1 PUSH2 0x3F9E JUMP JUMPDEST PUSH1 0x0 PUSH1 0x40 MLOAD DUP1 DUP4 SUB DUP2 PUSH1 0x0 DUP7 GAS CALL SWAP2 POP POP RETURNDATASIZE DUP1 PUSH1 0x0 DUP2 EQ PUSH2 0x2ACC JUMPI PUSH1 0x40 MLOAD SWAP2 POP PUSH1 0x1F NOT PUSH1 0x3F RETURNDATASIZE ADD AND DUP3 ADD PUSH1 0x40 MSTORE RETURNDATASIZE DUP3 MSTORE RETURNDATASIZE PUSH1 0x0 PUSH1 0x20 DUP5 ADD RETURNDATACOPY PUSH2 0x2AD1 JUMP JUMPDEST PUSH1 0x60 SWAP2 POP JUMPDEST POP SWAP2 POP SWAP2 POP DUP2 DUP1 ISZERO PUSH2 0x2AFF JUMPI POP PUSH1 0x0 DUP2 MLOAD EQ DUP1 PUSH2 0x2AFE JUMPI POP DUP1 DUP1 PUSH1 0x20 ADD SWAP1 MLOAD DUP2 ADD SWAP1 PUSH2 0x2AFD SWAP2 SWAP1 PUSH2 0x36A1 JUMP JUMPDEST JUMPDEST JUMPDEST PUSH2 0x2B3E JUMPI PUSH1 0x40 MLOAD PUSH32 0x8C379A000000000000000000000000000000000000000000000000000000000 DUP2 MSTORE PUSH1 0x4 ADD PUSH2 0x2B35 SWAP1 PUSH2 0x40BC JUMP JUMPDEST PUSH1 0x40 MLOAD DUP1 SWAP2 SUB SWAP1 REVERT JUMPDEST POP POP POP POP POP JUMP JUMPDEST CALLVALUE DUP2 EQ PUSH2 0x2B87 JUMPI PUSH1 0x40 MLOAD PUSH32 0x8C379A000000000000000000000000000000000000000000000000000000000 DUP2 MSTORE PUSH1 0x4 ADD PUSH2 0x2B7E SWAP1 PUSH2 0x37D2 JUMP JUMPDEST PUSH1 0x40 MLOAD DUP1 SWAP2 SUB SWAP1 REVERT JUMPDEST PUSH1 0x0 PUSH2 0x2B92 DUP3 PUSH2 0x1DF0 JUMP JUMPDEST SWAP1 POP DUP1 PUSH1 0x4 PUSH1 0x1 SWAP1 SLOAD SWAP1 PUSH2 0x100 EXP SWAP1 DIV PUSH20 0xFFFFFFFFFFFFFFFFFFFFFFFFFFFFFFFFFFFFFFFF AND PUSH20 0xFFFFFFFFFFFFFFFFFFFFFFFFFFFFFFFFFFFFFFFF AND PUSH4 0x70A08231 ADDRESS PUSH1 0x40 MLOAD DUP3 PUSH4 0xFFFFFFFF AND PUSH1 0xE0 SHL DUP2 MSTORE PUSH1 0x4 ADD PUSH2 0x2BF0 SWAP2 SWAP1 PUSH2 0x3397 JUMP JUMPDEST PUSH1 0x20 PUSH1 0x40 MLOAD DUP1 DUP4 SUB DUP2 DUP7 GAS STATICCALL ISZERO DUP1 ISZERO PUSH2 0x2C0D JUMPI RETURNDATASIZE PUSH1 0x0 DUP1 RETURNDATACOPY RETURNDATASIZE PUSH1 0x0 REVERT JUMPDEST POP POP POP POP PUSH1 0x40 MLOAD RETURNDATASIZE PUSH1 0x1F NOT PUSH1 0x1F DUP3 ADD AND DUP3 ADD DUP1 PUSH1 0x40 MSTORE POP DUP2 ADD SWAP1 PUSH2 0x2C31 SWAP2 SWAP1 PUSH2 0x3971 JUMP JUMPDEST LT ISZERO PUSH2 0x2C72 JUMPI PUSH1 0x40 MLOAD PUSH32 0x8C379A000000000000000000000000000000000000000000000000000000000 DUP2 MSTORE PUSH1 0x4 ADD PUSH2 0x2C69 SWAP1 PUSH2 0x3F04 JUMP JUMPDEST PUSH1 0x40 MLOAD DUP1 SWAP2 SUB SWAP1 REVERT JUMPDEST PUSH1 0x2 PUSH1 0x1 SWAP1 SLOAD SWAP1 PUSH2 0x100 EXP SWAP1 DIV PUSH20 0xFFFFFFFFFFFFFFFFFFFFFFFFFFFFFFFFFFFFFFFF AND PUSH20 0xFFFFFFFFFFFFFFFFFFFFFFFFFFFFFFFFFFFFFFFF AND PUSH4 0xD0E30DB0 DUP4 PUSH1 0x40 MLOAD DUP3 PUSH4 0xFFFFFFFF AND PUSH1 0xE0 SHL DUP2 MSTORE PUSH1 0x4 ADD PUSH1 0x0 PUSH1 0x40 MLOAD DUP1 DUP4 SUB DUP2 DUP6 DUP9 DUP1 EXTCODESIZE ISZERO DUP1 ISZERO PUSH2 0x2CDC JUMPI PUSH1 0x0 DUP1 REVERT JUMPDEST POP GAS CALL ISZERO DUP1 ISZERO PUSH2 0x2CF0 JUMPI RETURNDATASIZE PUSH1 0x0 DUP1 RETURNDATACOPY RETURNDATASIZE PUSH1 0x0 REVERT JUMPDEST POP POP POP POP POP PUSH2 0x2D22 PUSH1 0x4 PUSH1 0x1 SWAP1 SLOAD SWAP1 PUSH2 0x100 EXP SWAP1 DIV PUSH20 0xFFFFFFFFFFFFFFFFFFFFFFFFFFFFFFFFFFFFFFFF AND CALLER DUP4 PUSH2 0x2A0F JUMP JUMPDEST PUSH1 0x9 PUSH1 0x40 MLOAD DUP1 PUSH1 0x60 ADD PUSH1 0x40 MSTORE DUP1 CALLER PUSH20 0xFFFFFFFFFFFFFFFFFFFFFFFFFFFFFFFFFFFFFFFF AND DUP2 MSTORE PUSH1 0x20 ADD DUP5 DUP2 MSTORE PUSH1 0x20 ADD DUP4 DUP2 MSTORE POP SWAP1 DUP1 PUSH1 0x1 DUP2 SLOAD ADD DUP1 DUP3 SSTORE DUP1 SWAP2 POP POP PUSH1 0x1 SWAP1 SUB SWAP1 PUSH1 0x0 MSTORE PUSH1 0x20 PUSH1 0x0 KECCAK256 SWAP1 PUSH1 0x3 MUL ADD PUSH1 0x0 SWAP1 SWAP2 SWAP1 SWAP2 SWAP1 SWAP2 POP PUSH1 0x0 DUP3 ADD MLOAD DUP2 PUSH1 0x0 ADD PUSH1 0x0 PUSH2 0x100 EXP DUP2 SLOAD DUP2 PUSH20 0xFFFFFFFFFFFFFFFFFFFFFFFFFFFFFFFFFFFFFFFF MUL NOT AND SWAP1 DUP4 PUSH20 0xFFFFFFFFFFFFFFFFFFFFFFFFFFFFFFFFFFFFFFFF AND MUL OR SWAP1 SSTORE POP PUSH1 0x20 DUP3 ADD MLOAD DUP2 PUSH1 0x1 ADD SSTORE PUSH1 0x40 DUP3 ADD MLOAD DUP2 PUSH1 0x2 ADD SSTORE POP POP PUSH1 0x0 PUSH32 0x0 SWAP1 POP DUP1 PUSH20 0xFFFFFFFFFFFFFFFFFFFFFFFFFFFFFFFFFFFFFFFF AND PUSH4 0xF52701B7 ADDRESS CALLER DUP7 DUP7 PUSH1 0x40 MLOAD DUP6 PUSH4 0xFFFFFFFF AND PUSH1 0xE0 SHL DUP2 MSTORE PUSH1 0x4 ADD PUSH2 0x2E3F SWAP5 SWAP4 SWAP3 SWAP2 SWAP1 PUSH2 0x399E JUMP JUMPDEST PUSH1 0x0 PUSH1 0x40 MLOAD DUP1 DUP4 SUB DUP2 PUSH1 0x0 DUP8 DUP1 EXTCODESIZE ISZERO DUP1 ISZERO PUSH2 0x2E59 JUMPI PUSH1 0x0 DUP1 REVERT JUMPDEST POP GAS CALL ISZERO DUP1 ISZERO PUSH2 0x2E6D JUMPI RETURNDATASIZE PUSH1 0x0 DUP1 RETURNDATACOPY RETURNDATASIZE PUSH1 0x0 REVERT JUMPDEST POP POP POP POP POP POP POP JUMP JUMPDEST PUSH1 0x0 DUP1 PUSH1 0x0 SWAP1 SLOAD SWAP1 PUSH2 0x100 EXP SWAP1 DIV PUSH20 0xFFFFFFFFFFFFFFFFFFFFFFFFFFFFFFFFFFFFFFFF AND SWAP1 POP DUP2 PUSH1 0x0 DUP1 PUSH2 0x100 EXP DUP2 SLOAD DUP2 PUSH20 0xFFFFFFFFFFFFFFFFFFFFFFFFFFFFFFFFFFFFFFFF MUL NOT AND SWAP1 DUP4 PUSH20 0xFFFFFFFFFFFFFFFFFFFFFFFFFFFFFFFFFFFFFFFF AND MUL OR SWAP1 SSTORE POP DUP2 PUSH20 0xFFFFFFFFFFFFFFFFFFFFFFFFFFFFFFFFFFFFFFFF AND DUP2 PUSH20 0xFFFFFFFFFFFFFFFFFFFFFFFFFFFFFFFFFFFFFFFF AND PUSH32 0x8BE0079C531659141344CD1FD0A4F28419497F9722A3DAAFE3B4186F6B6457E0 PUSH1 0x40 MLOAD PUSH1 0x40 MLOAD DUP1 SWAP2 SUB SWAP1 LOG3 POP POP JUMP JUMPDEST PUSH1 0x0 DUP1 DUP6 PUSH20 0xFFFFFFFFFFFFFFFFFFFFFFFFFFFFFFFFFFFFFFFF AND PUSH4 0x23B872DD DUP7 DUP7 DUP7 PUSH1 0x40 MLOAD PUSH1 0x24 ADD PUSH2 0x2F6E SWAP4 SWAP3 SWAP2 SWAP1 PUSH2 0x40DC JUMP JUMPDEST PUSH1 0x40 MLOAD PUSH1 0x20 DUP2 DUP4 SUB SUB DUP2 MSTORE SWAP1 PUSH1 0x40 MSTORE SWAP1 PUSH1 0xE0 SHL PUSH1 0x20 DUP3 ADD DUP1 MLOAD PUSH28 0xFFFFFFFFFFFFFFFFFFFFFFFFFFFFFFFFFFFFFFFFFFFFFFFFFFFFFFFF DUP4 DUP2 DUP4 AND OR DUP4 MSTORE POP POP POP POP PUSH1 0x40 MLOAD PUSH2 0x2FBC SWAP2 SWAP1 PUSH2 0x3F9E JUMP JUMPDEST PUSH1 0x0 PUSH1 0x40 MLOAD DUP1 DUP4 SUB DUP2 PUSH1 0x0 DUP7 GAS CALL SWAP2 POP POP RETURNDATASIZE DUP1 PUSH1 0x0 DUP2 EQ PUSH2 0x2FF9 JUMPI PUSH1 0x40 MLOAD SWAP2 POP PUSH1 0x1F NOT PUSH1 0x3F RETURNDATASIZE ADD AND DUP3 ADD PUSH1 0x40 MSTORE RETURNDATASIZE DUP3 MSTORE RETURNDATASIZE PUSH1 0x0 PUSH1 0x20 DUP5 ADD RETURNDATACOPY PUSH2 0x2FFE JUMP JUMPDEST PUSH1 0x60 SWAP2 POP JUMPDEST POP SWAP2 POP SWAP2 POP DUP2 DUP1 ISZERO PUSH2 0x302C JUMPI POP PUSH1 0x0 DUP2 MLOAD EQ DUP1 PUSH2 0x302B JUMPI POP DUP1 DUP1 PUSH1 0x20 ADD SWAP1 MLOAD DUP2 ADD SWAP1 PUSH2 0x302A SWAP2 SWAP1 PUSH2 0x36A1 JUMP JUMPDEST JUMPDEST JUMPDEST PUSH2 0x306B JUMPI PUSH1 0x40 MLOAD PUSH32 0x8C379A000000000000000000000000000000000000000000000000000000000 DUP2 MSTORE PUSH1 0x4 ADD PUSH2 0x3062 SWAP1 PUSH2 0x4185 JUMP JUMPDEST PUSH1 0x40 MLOAD DUP1 SWAP2 SUB SWAP1 REVERT JUMPDEST POP POP POP POP POP POP JUMP JUMPDEST PUSH1 0x0 DUP1 REVERT JUMPDEST PUSH1 0x0 DUP2 SWAP1 POP SWAP2 SWAP1 POP JUMP JUMPDEST PUSH2 0x308B DUP2 PUSH2 0x3078 JUMP JUMPDEST DUP2 EQ PUSH2 0x3096 JUMPI PUSH1 0x0 DUP1 REVERT JUMPDEST POP JUMP JUMPDEST PUSH1 0x0 DUP2 CALLDATALOAD SWAP1 POP PUSH2 0x30A8 DUP2 PUSH2 0x3082 JUMP JUMPDEST SWAP3 SWAP2 POP POP JUMP JUMPDEST PUSH1 0x0 PUSH1 0x20 DUP3 DUP5 SUB SLT ISZERO PUSH2 0x30C4 JUMPI PUSH2 0x30C3 PUSH2 0x3073 JUMP JUMPDEST JUMPDEST PUSH1 0x0 PUSH2 0x30D2 DUP5 DUP3 DUP6 ADD PUSH2 0x3099 JUMP JUMPDEST SWAP2 POP POP SWAP3 SWAP2 POP POP JUMP JUMPDEST PUSH1 0x0 DUP2 ISZERO ISZERO SWAP1 POP SWAP2 SWAP1 POP JUMP JUMPDEST PUSH2 0x30F0 DUP2 PUSH2 0x30DB JUMP JUMPDEST DUP3 MSTORE POP POP JUMP JUMPDEST PUSH1 0x0 PUSH1 0x20 DUP3 ADD SWAP1 POP PUSH2 0x310B PUSH1 0x0 DUP4 ADD DUP5 PUSH2 0x30E7 JUMP JUMPDEST SWAP3 SWAP2 POP POP JUMP JUMPDEST PUSH2 0x311A DUP2 PUSH2 0x3078 JUMP JUMPDEST DUP3 MSTORE POP POP JUMP JUMPDEST PUSH1 0x0 PUSH1 0x40 DUP3 ADD SWAP1 POP PUSH2 0x3135 PUSH1 0x0 DUP4 ADD DUP6 PUSH2 0x3111 JUMP JUMPDEST PUSH2 0x3142 PUSH1 0x20 DUP4 ADD DUP5 PUSH2 0x3111 JUMP JUMPDEST SWAP4 SWAP3 POP POP POP JUMP JUMPDEST PUSH1 0x0 PUSH1 0x20 DUP3 ADD SWAP1 POP PUSH2 0x315E PUSH1 0x0 DUP4 ADD DUP5 PUSH2 0x3111 JUMP JUMPDEST SWAP3 SWAP2 POP POP JUMP JUMPDEST PUSH1 0x0 PUSH20 0xFFFFFFFFFFFFFFFFFFFFFFFFFFFFFFFFFFFFFFFF DUP3 AND SWAP1 POP SWAP2 SWAP1 POP JUMP JUMPDEST PUSH1 0x0 PUSH2 0x318F DUP3 PUSH2 0x3164 JUMP JUMPDEST SWAP1 POP SWAP2 SWAP1 POP JUMP JUMPDEST PUSH2 0x319F DUP2 PUSH2 0x3184 JUMP JUMPDEST DUP2 EQ PUSH2 0x31AA JUMPI PUSH1 0x0 DUP1 REVERT JUMPDEST POP JUMP JUMPDEST PUSH1 0x0 DUP2 CALLDATALOAD SWAP1 POP PUSH2 0x31BC DUP2 PUSH2 0x3196 JUMP JUMPDEST SWAP3 SWAP2 POP POP JUMP JUMPDEST PUSH1 0x0 PUSH1 0x20 DUP3 DUP5 SUB SLT ISZERO PUSH2 0x31D8 JUMPI PUSH2 0x31D7 PUSH2 0x3073 JUMP JUMPDEST JUMPDEST PUSH1 0x0 PUSH2 0x31E6 DUP5 DUP3 DUP6 ADD PUSH2 0x31AD JUMP JUMPDEST SWAP2 POP POP SWAP3 SWAP2 POP POP JUMP JUMPDEST PUSH1 0x3 DUP2 LT PUSH2 0x31FC JUMPI PUSH1 0x0 DUP1 REVERT JUMPDEST POP JUMP JUMPDEST PUSH1 0x0 DUP2 CALLDATALOAD SWAP1 POP PUSH2 0x320E DUP2 PUSH2 0x31EF JUMP JUMPDEST SWAP3 SWAP2 POP POP JUMP JUMPDEST PUSH2 0x321D DUP2 PUSH2 0x30DB JUMP JUMPDEST DUP2 EQ PUSH2 0x3228 JUMPI PUSH1 0x0 DUP1 REVERT JUMPDEST POP JUMP JUMPDEST PUSH1 0x0 DUP2 CALLDATALOAD SWAP1 POP PUSH2 0x323A DUP2 PUSH2 0x3214 JUMP JUMPDEST SWAP3 SWAP2 POP POP JUMP JUMPDEST PUSH1 0x0 DUP1 PUSH1 0x0 DUP1 PUSH1 0x0 DUP1 PUSH1 0x0 DUP1 PUSH2 0x100 DUP10 DUP12 SUB SLT ISZERO PUSH2 0x3261 JUMPI PUSH2 0x3260 PUSH2 0x3073 JUMP JUMPDEST JUMPDEST PUSH1 0x0 PUSH2 0x326F DUP12 DUP3 DUP13 ADD PUSH2 0x31FF JUMP JUMPDEST SWAP9 POP POP PUSH1 0x20 PUSH2 0x3280 DUP12 DUP3 DUP13 ADD PUSH2 0x31AD JUMP JUMPDEST SWAP8 POP POP PUSH1 0x40 PUSH2 0x3291 DUP12 DUP3 DUP13 ADD PUSH2 0x31AD JUMP JUMPDEST SWAP7 POP POP PUSH1 0x60 PUSH2 0x32A2 DUP12 DUP3 DUP13 ADD PUSH2 0x3099 JUMP JUMPDEST SWAP6 POP POP PUSH1 0x80 PUSH2 0x32B3 DUP12 DUP3 DUP13 ADD PUSH2 0x3099 JUMP JUMPDEST SWAP5 POP POP PUSH1 0xA0 PUSH2 0x32C4 DUP12 DUP3 DUP13 ADD PUSH2 0x3099 JUMP JUMPDEST SWAP4 POP POP PUSH1 0xC0 PUSH2 0x32D5 DUP12 DUP3 DUP13 ADD PUSH2 0x322B JUMP JUMPDEST SWAP3 POP POP PUSH1 0xE0 PUSH2 0x32E6 DUP12 DUP3 DUP13 ADD PUSH2 0x31AD JUMP JUMPDEST SWAP2 POP POP SWAP3 SWAP6 SWAP9 POP SWAP3 SWAP6 SWAP9 SWAP1 SWAP4 SWAP7 POP JUMP JUMPDEST PUSH32 0x4E487B7100000000000000000000000000000000000000000000000000000000 PUSH1 0x0 MSTORE PUSH1 0x21 PUSH1 0x4 MSTORE PUSH1 0x24 PUSH1 0x0 REVERT JUMPDEST PUSH1 0x3 DUP2 LT PUSH2 0x3336 JUMPI PUSH2 0x3335 PUSH2 0x32F6 JUMP JUMPDEST JUMPDEST POP JUMP JUMPDEST PUSH1 0x0 DUP2 SWAP1 POP PUSH2 0x3347 DUP3 PUSH2 0x3325 JUMP JUMPDEST SWAP2 SWAP1 POP JUMP JUMPDEST PUSH1 0x0 PUSH2 0x3357 DUP3 PUSH2 0x3339 JUMP JUMPDEST SWAP1 POP SWAP2 SWAP1 POP JUMP JUMPDEST PUSH2 0x3367 DUP2 PUSH2 0x334C JUMP JUMPDEST DUP3 MSTORE POP POP JUMP JUMPDEST PUSH1 0x0 PUSH1 0x20 DUP3 ADD SWAP1 POP PUSH2 0x3382 PUSH1 0x0 DUP4 ADD DUP5 PUSH2 0x335E JUMP JUMPDEST SWAP3 SWAP2 POP POP JUMP JUMPDEST PUSH2 0x3391 DUP2 PUSH2 0x3184 JUMP JUMPDEST DUP3 MSTORE POP POP JUMP JUMPDEST PUSH1 0x0 PUSH1 0x20 DUP3 ADD SWAP1 POP PUSH2 0x33AC PUSH1 0x0 DUP4 ADD DUP5 PUSH2 0x3388 JUMP JUMPDEST SWAP3 SWAP2 POP POP JUMP JUMPDEST PUSH1 0x0 PUSH1 0x40 DUP3 ADD SWAP1 POP PUSH2 0x33C7 PUSH1 0x0 DUP4 ADD DUP6 PUSH2 0x3388 JUMP JUMPDEST PUSH2 0x33D4 PUSH1 0x20 DUP4 ADD DUP5 PUSH2 0x3388 JUMP JUMPDEST SWAP4 SWAP3 POP POP POP JUMP JUMPDEST PUSH1 0x0 DUP2 MLOAD SWAP1 POP SWAP2 SWAP1 POP JUMP JUMPDEST PUSH1 0x0 DUP3 DUP3 MSTORE PUSH1 0x20 DUP3 ADD SWAP1 POP SWAP3 SWAP2 POP POP JUMP JUMPDEST PUSH1 0x0 DUP2 SWAP1 POP PUSH1 0x20 DUP3 ADD SWAP1 POP SWAP2 SWAP1 POP JUMP JUMPDEST PUSH2 0x3410 DUP2 PUSH2 0x3184 JUMP JUMPDEST DUP3 MSTORE POP POP JUMP JUMPDEST PUSH1 0x0 PUSH2 0x3422 DUP4 DUP4 PUSH2 0x3407 JUMP JUMPDEST PUSH1 0x20 DUP4 ADD SWAP1 POP SWAP3 SWAP2 POP POP JUMP JUMPDEST PUSH1 0x0 PUSH1 0x20 DUP3 ADD SWAP1 POP SWAP2 SWAP1 POP JUMP JUMPDEST PUSH1 0x0 PUSH2 0x3446 DUP3 PUSH2 0x33DB JUMP JUMPDEST PUSH2 0x3450 DUP2 DUP6 PUSH2 0x33E6 JUMP JUMPDEST SWAP4 POP PUSH2 0x345B DUP4 PUSH2 0x33F7 JUMP JUMPDEST DUP1 PUSH1 0x0 JUMPDEST DUP4 DUP2 LT ISZERO PUSH2 0x348C JUMPI DUP2 MLOAD PUSH2 0x3473 DUP9 DUP3 PUSH2 0x3416 JUMP JUMPDEST SWAP8 POP PUSH2 0x347E DUP4 PUSH2 0x342E JUMP JUMPDEST SWAP3 POP POP PUSH1 0x1 DUP2 ADD SWAP1 POP PUSH2 0x345F JUMP JUMPDEST POP DUP6 SWAP4 POP POP POP POP SWAP3 SWAP2 POP POP JUMP JUMPDEST PUSH1 0x0 DUP2 MLOAD SWAP1 POP SWAP2 SWAP1 POP JUMP JUMPDEST PUSH1 0x0 DUP3 DUP3 MSTORE PUSH1 0x20 DUP3 ADD SWAP1 POP SWAP3 SWAP2 POP POP JUMP JUMPDEST PUSH1 0x0 DUP2 SWAP1 POP PUSH1 0x20 DUP3 ADD SWAP1 POP SWAP2 SWAP1 POP JUMP JUMPDEST PUSH2 0x34CE DUP2 PUSH2 0x3078 JUMP JUMPDEST DUP3 MSTORE POP POP JUMP JUMPDEST PUSH1 0x0 PUSH2 0x34E0 DUP4 DUP4 PUSH2 0x34C5 JUMP JUMPDEST PUSH1 0x20 DUP4 ADD SWAP1 POP SWAP3 SWAP2 POP POP JUMP JUMPDEST PUSH1 0x0 PUSH1 0x20 DUP3 ADD SWAP1 POP SWAP2 SWAP1 POP JUMP JUMPDEST PUSH1 0x0 PUSH2 0x3504 DUP3 PUSH2 0x3499 JUMP JUMPDEST PUSH2 0x350E DUP2 DUP6 PUSH2 0x34A4 JUMP JUMPDEST SWAP4 POP PUSH2 0x3519 DUP4 PUSH2 0x34B5 JUMP JUMPDEST DUP1 PUSH1 0x0 JUMPDEST DUP4 DUP2 LT ISZERO PUSH2 0x354A JUMPI DUP2 MLOAD PUSH2 0x3531 DUP9 DUP3 PUSH2 0x34D4 JUMP JUMPDEST SWAP8 POP PUSH2 0x353C DUP4 PUSH2 0x34EC JUMP JUMPDEST SWAP3 POP POP PUSH1 0x1 DUP2 ADD SWAP1 POP PUSH2 0x351D JUMP JUMPDEST POP DUP6 SWAP4 POP POP POP POP SWAP3 SWAP2 POP POP JUMP JUMPDEST PUSH1 0x0 PUSH1 0x60 DUP3 ADD SWAP1 POP DUP2 DUP2 SUB PUSH1 0x0 DUP4 ADD MSTORE PUSH2 0x3571 DUP2 DUP7 PUSH2 0x343B JUMP JUMPDEST SWAP1 POP DUP2 DUP2 SUB PUSH1 0x20 DUP4 ADD MSTORE PUSH2 0x3585 DUP2 DUP6 PUSH2 0x34F9 JUMP JUMPDEST SWAP1 POP DUP2 DUP2 SUB PUSH1 0x40 DUP4 ADD MSTORE PUSH2 0x3599 DUP2 DUP5 PUSH2 0x34F9 JUMP JUMPDEST SWAP1 POP SWAP5 SWAP4 POP POP POP POP JUMP JUMPDEST PUSH1 0x0 DUP3 DUP3 MSTORE PUSH1 0x20 DUP3 ADD SWAP1 POP SWAP3 SWAP2 POP POP JUMP JUMPDEST PUSH32 0x537943726F774261727465723A20494E41435449564500000000000000000000 PUSH1 0x0 DUP3 ADD MSTORE POP JUMP JUMPDEST PUSH1 0x0 PUSH2 0x35EA PUSH1 0x16 DUP4 PUSH2 0x35A3 JUMP JUMPDEST SWAP2 POP PUSH2 0x35F5 DUP3 PUSH2 0x35B4 JUMP JUMPDEST PUSH1 0x20 DUP3 ADD SWAP1 POP SWAP2 SWAP1 POP JUMP JUMPDEST PUSH1 0x0 PUSH1 0x20 DUP3 ADD SWAP1 POP DUP2 DUP2 SUB PUSH1 0x0 DUP4 ADD MSTORE PUSH2 0x3619 DUP2 PUSH2 0x35DD JUMP JUMPDEST SWAP1 POP SWAP2 SWAP1 POP JUMP JUMPDEST PUSH32 0x537943726F774261727465723A204E4F545F494E495449414C495A4544000000 PUSH1 0x0 DUP3 ADD MSTORE POP JUMP JUMPDEST PUSH1 0x0 PUSH2 0x3656 PUSH1 0x1D DUP4 PUSH2 0x35A3 JUMP JUMPDEST SWAP2 POP PUSH2 0x3661 DUP3 PUSH2 0x3620 JUMP JUMPDEST PUSH1 0x20 DUP3 ADD SWAP1 POP SWAP2 SWAP1 POP JUMP JUMPDEST PUSH1 0x0 PUSH1 0x20 DUP3 ADD SWAP1 POP DUP2 DUP2 SUB PUSH1 0x0 DUP4 ADD MSTORE PUSH2 0x3685 DUP2 PUSH2 0x3649 JUMP JUMPDEST SWAP1 POP SWAP2 SWAP1 POP JUMP JUMPDEST PUSH1 0x0 DUP2 MLOAD SWAP1 POP PUSH2 0x369B DUP2 PUSH2 0x3214 JUMP JUMPDEST SWAP3 SWAP2 POP POP JUMP JUMPDEST PUSH1 0x0 PUSH1 0x20 DUP3 DUP5 SUB SLT ISZERO PUSH2 0x36B7 JUMPI PUSH2 0x36B6 PUSH2 0x3073 JUMP JUMPDEST JUMPDEST PUSH1 0x0 PUSH2 0x36C5 DUP5 DUP3 DUP6 ADD PUSH2 0x368C JUMP JUMPDEST SWAP2 POP POP SWAP3 SWAP2 POP POP JUMP JUMPDEST PUSH32 0x537943726F774261727465723A204261736520436F6E74726163742050617573 PUSH1 0x0 DUP3 ADD MSTORE PUSH32 0x6564000000000000000000000000000000000000000000000000000000000000 PUSH1 0x20 DUP3 ADD MSTORE POP JUMP JUMPDEST PUSH1 0x0 PUSH2 0x372A PUSH1 0x22 DUP4 PUSH2 0x35A3 JUMP JUMPDEST SWAP2 POP PUSH2 0x3735 DUP3 PUSH2 0x36CE JUMP JUMPDEST PUSH1 0x40 DUP3 ADD SWAP1 POP SWAP2 SWAP1 POP JUMP JUMPDEST PUSH1 0x0 PUSH1 0x20 DUP3 ADD SWAP1 POP DUP2 DUP2 SUB PUSH1 0x0 DUP4 ADD MSTORE PUSH2 0x3759 DUP2 PUSH2 0x371D JUMP JUMPDEST SWAP1 POP SWAP2 SWAP1 POP JUMP JUMPDEST PUSH32 0x537943726F774261727465723A204D554C54495F54524144455F4E4F545F454E PUSH1 0x0 DUP3 ADD MSTORE PUSH32 0x41424C4544000000000000000000000000000000000000000000000000000000 PUSH1 0x20 DUP3 ADD MSTORE POP JUMP JUMPDEST PUSH1 0x0 PUSH2 0x37BC PUSH1 0x25 DUP4 PUSH2 0x35A3 JUMP JUMPDEST SWAP2 POP PUSH2 0x37C7 DUP3 PUSH2 0x3760 JUMP JUMPDEST PUSH1 0x40 DUP3 ADD SWAP1 POP SWAP2 SWAP1 POP JUMP JUMPDEST PUSH1 0x0 PUSH1 0x20 DUP3 ADD SWAP1 POP DUP2 DUP2 SUB PUSH1 0x0 DUP4 ADD MSTORE PUSH2 0x37EB DUP2 PUSH2 0x37AF JUMP JUMPDEST SWAP1 POP SWAP2 SWAP1 POP JUMP JUMPDEST PUSH32 0x537943726F774261727465723A20494E56414C49445F4241525445525F545950 PUSH1 0x0 DUP3 ADD MSTORE PUSH32 0x4500000000000000000000000000000000000000000000000000000000000000 PUSH1 0x20 DUP3 ADD MSTORE POP JUMP JUMPDEST PUSH1 0x0 PUSH2 0x384E PUSH1 0x21 DUP4 PUSH2 0x35A3 JUMP JUMPDEST SWAP2 POP PUSH2 0x3859 DUP3 PUSH2 0x37F2 JUMP JUMPDEST PUSH1 0x40 DUP3 ADD SWAP1 POP SWAP2 SWAP1 POP JUMP JUMPDEST PUSH1 0x0 PUSH1 0x20 DUP3 ADD SWAP1 POP DUP2 DUP2 SUB PUSH1 0x0 DUP4 ADD MSTORE PUSH2 0x387D DUP2 PUSH2 0x3841 JUMP JUMPDEST SWAP1 POP SWAP2 SWAP1 POP JUMP JUMPDEST PUSH32 0x537943726F774261727465723A20414354495645000000000000000000000000 PUSH1 0x0 DUP3 ADD MSTORE POP JUMP JUMPDEST PUSH1 0x0 PUSH2 0x38BA PUSH1 0x14 DUP4 PUSH2 0x35A3 JUMP JUMPDEST SWAP2 POP PUSH2 0x38C5 DUP3 PUSH2 0x3884 JUMP JUMPDEST PUSH1 0x20 DUP3 ADD SWAP1 POP SWAP2 SWAP1 POP JUMP JUMPDEST PUSH1 0x0 PUSH1 0x20 DUP3 ADD SWAP1 POP DUP2 DUP2 SUB PUSH1 0x0 DUP4 ADD MSTORE PUSH2 0x38E9 DUP2 PUSH2 0x38AD JUMP JUMPDEST SWAP1 POP SWAP2 SWAP1 POP JUMP JUMPDEST PUSH32 0x4F776E61626C653A2063616C6C6572206973206E6F7420746865206F776E6572 PUSH1 0x0 DUP3 ADD MSTORE POP JUMP JUMPDEST PUSH1 0x0 PUSH2 0x3926 PUSH1 0x20 DUP4 PUSH2 0x35A3 JUMP JUMPDEST SWAP2 POP PUSH2 0x3931 DUP3 PUSH2 0x38F0 JUMP JUMPDEST PUSH1 0x20 DUP3 ADD SWAP1 POP SWAP2 SWAP1 POP JUMP JUMPDEST PUSH1 0x0 PUSH1 0x20 DUP3 ADD SWAP1 POP DUP2 DUP2 SUB PUSH1 0x0 DUP4 ADD MSTORE PUSH2 0x3955 DUP2 PUSH2 0x3919 JUMP JUMPDEST SWAP1 POP SWAP2 SWAP1 POP JUMP JUMPDEST PUSH1 0x0 DUP2 MLOAD SWAP1 POP PUSH2 0x396B DUP2 PUSH2 0x3082 JUMP JUMPDEST SWAP3 SWAP2 POP POP JUMP JUMPDEST PUSH1 0x0 PUSH1 0x20 DUP3 DUP5 SUB SLT ISZERO PUSH2 0x3987 JUMPI PUSH2 0x3986 PUSH2 0x3073 JUMP JUMPDEST JUMPDEST PUSH1 0x0 PUSH2 0x3995 DUP5 DUP3 DUP6 ADD PUSH2 0x395C JUMP JUMPDEST SWAP2 POP POP SWAP3 SWAP2 POP POP JUMP JUMPDEST PUSH1 0x0 PUSH1 0x80 DUP3 ADD SWAP1 POP PUSH2 0x39B3 PUSH1 0x0 DUP4 ADD DUP8 PUSH2 0x3388 JUMP JUMPDEST PUSH2 0x39C0 PUSH1 0x20 DUP4 ADD DUP7 PUSH2 0x3388 JUMP JUMPDEST PUSH2 0x39CD PUSH1 0x40 DUP4 ADD DUP6 PUSH2 0x3111 JUMP JUMPDEST PUSH2 0x39DA PUSH1 0x60 DUP4 ADD DUP5 PUSH2 0x3111 JUMP JUMPDEST SWAP6 SWAP5 POP POP POP POP POP JUMP JUMPDEST PUSH32 0x537943726F774261727465723A20464F5242494444454E000000000000000000 PUSH1 0x0 DUP3 ADD MSTORE POP JUMP JUMPDEST PUSH1 0x0 PUSH2 0x3A19 PUSH1 0x17 DUP4 PUSH2 0x35A3 JUMP JUMPDEST SWAP2 POP PUSH2 0x3A24 DUP3 PUSH2 0x39E3 JUMP JUMPDEST PUSH1 0x20 DUP3 ADD SWAP1 POP SWAP2 SWAP1 POP JUMP JUMPDEST PUSH1 0x0 PUSH1 0x20 DUP3 ADD SWAP1 POP DUP2 DUP2 SUB PUSH1 0x0 DUP4 ADD MSTORE PUSH2 0x3A48 DUP2 PUSH2 0x3A0C JUMP JUMPDEST SWAP1 POP SWAP2 SWAP1 POP JUMP JUMPDEST PUSH32 0x537943726F774261727465723A20414C52454144595F494E495449414C495A45 PUSH1 0x0 DUP3 ADD MSTORE PUSH32 0x4400000000000000000000000000000000000000000000000000000000000000 PUSH1 0x20 DUP3 ADD MSTORE POP JUMP JUMPDEST PUSH1 0x0 PUSH2 0x3AAB PUSH1 0x21 DUP4 PUSH2 0x35A3 JUMP JUMPDEST SWAP2 POP PUSH2 0x3AB6 DUP3 PUSH2 0x3A4F JUMP JUMPDEST PUSH1 0x40 DUP3 ADD SWAP1 POP SWAP2 SWAP1 POP JUMP JUMPDEST PUSH1 0x0 PUSH1 0x20 DUP3 ADD SWAP1 POP DUP2 DUP2 SUB PUSH1 0x0 DUP4 ADD MSTORE PUSH2 0x3ADA DUP2 PUSH2 0x3A9E JUMP JUMPDEST SWAP1 POP SWAP2 SWAP1 POP JUMP JUMPDEST PUSH32 0x537943726F774261727465723A20504153545F444541444C494E450000000000 PUSH1 0x0 DUP3 ADD MSTORE POP JUMP JUMPDEST PUSH1 0x0 PUSH2 0x3B17 PUSH1 0x1B DUP4 PUSH2 0x35A3 JUMP JUMPDEST SWAP2 POP PUSH2 0x3B22 DUP3 PUSH2 0x3AE1 JUMP JUMPDEST PUSH1 0x20 DUP3 ADD SWAP1 POP SWAP2 SWAP1 POP JUMP JUMPDEST PUSH1 0x0 PUSH1 0x20 DUP3 ADD SWAP1 POP DUP2 DUP2 SUB PUSH1 0x0 DUP4 ADD MSTORE PUSH2 0x3B46 DUP2 PUSH2 0x3B0A JUMP JUMPDEST SWAP1 POP SWAP2 SWAP1 POP JUMP JUMPDEST PUSH32 0x537943726F774261727465723A20494E53554646494349454E545F4445504F53 PUSH1 0x0 DUP3 ADD MSTORE PUSH32 0x4954000000000000000000000000000000000000000000000000000000000000 PUSH1 0x20 DUP3 ADD MSTORE POP JUMP JUMPDEST PUSH1 0x0 PUSH2 0x3BA9 PUSH1 0x22 DUP4 PUSH2 0x35A3 JUMP JUMPDEST SWAP2 POP PUSH2 0x3BB4 DUP3 PUSH2 0x3B4D JUMP JUMPDEST PUSH1 0x40 DUP3 ADD SWAP1 POP SWAP2 SWAP1 POP JUMP JUMPDEST PUSH1 0x0 PUSH1 0x20 DUP3 ADD SWAP1 POP DUP2 DUP2 SUB PUSH1 0x0 DUP4 ADD MSTORE PUSH2 0x3BD8 DUP2 PUSH2 0x3B9C JUMP JUMPDEST SWAP1 POP SWAP2 SWAP1 POP JUMP JUMPDEST PUSH32 0x4E487B7100000000000000000000000000000000000000000000000000000000 PUSH1 0x0 MSTORE PUSH1 0x11 PUSH1 0x4 MSTORE PUSH1 0x24 PUSH1 0x0 REVERT JUMPDEST PUSH1 0x0 PUSH2 0x3C19 DUP3 PUSH2 0x3078 JUMP JUMPDEST SWAP2 POP PUSH2 0x3C24 DUP4 PUSH2 0x3078 JUMP JUMPDEST SWAP3 POP DUP2 PUSH32 0xFFFFFFFFFFFFFFFFFFFFFFFFFFFFFFFFFFFFFFFFFFFFFFFFFFFFFFFFFFFFFFFF DIV DUP4 GT DUP3 ISZERO ISZERO AND ISZERO PUSH2 0x3C5D JUMPI PUSH2 0x3C5C PUSH2 0x3BDF JUMP JUMPDEST JUMPDEST DUP3 DUP3 MUL SWAP1 POP SWAP3 SWAP2 POP POP JUMP JUMPDEST PUSH32 0x4E487B7100000000000000000000000000000000000000000000000000000000 PUSH1 0x0 MSTORE PUSH1 0x12 PUSH1 0x4 MSTORE PUSH1 0x24 PUSH1 0x0 REVERT JUMPDEST PUSH1 0x0 PUSH2 0x3CA2 DUP3 PUSH2 0x3078 JUMP JUMPDEST SWAP2 POP PUSH2 0x3CAD DUP4 PUSH2 0x3078 JUMP JUMPDEST SWAP3 POP DUP3 PUSH2 0x3CBD JUMPI PUSH2 0x3CBC PUSH2 0x3C68 JUMP JUMPDEST JUMPDEST DUP3 DUP3 DIV SWAP1 POP SWAP3 SWAP2 POP POP JUMP JUMPDEST PUSH32 0x4E487B7100000000000000000000000000000000000000000000000000000000 PUSH1 0x0 MSTORE PUSH1 0x41 PUSH1 0x4 MSTORE PUSH1 0x24 PUSH1 0x0 REVERT JUMPDEST PUSH32 0x4E487B7100000000000000000000000000000000000000000000000000000000 PUSH1 0x0 MSTORE PUSH1 0x32 PUSH1 0x4 MSTORE PUSH1 0x24 PUSH1 0x0 REVERT JUMPDEST PUSH1 0x0 PUSH2 0x3D31 DUP3 PUSH2 0x3078 JUMP JUMPDEST SWAP2 POP PUSH32 0xFFFFFFFFFFFFFFFFFFFFFFFFFFFFFFFFFFFFFFFFFFFFFFFFFFFFFFFFFFFFFFFF DUP3 SUB PUSH2 0x3D63 JUMPI PUSH2 0x3D62 PUSH2 0x3BDF JUMP JUMPDEST JUMPDEST PUSH1 0x1 DUP3 ADD SWAP1 POP SWAP2 SWAP1 POP JUMP JUMPDEST PUSH32 0x4F776E61626C653A206E6577206F776E657220697320746865207A65726F2061 PUSH1 0x0 DUP3 ADD MSTORE PUSH32 0x6464726573730000000000000000000000000000000000000000000000000000 PUSH1 0x20 DUP3 ADD MSTORE POP JUMP JUMPDEST PUSH1 0x0 PUSH2 0x3DCA PUSH1 0x26 DUP4 PUSH2 0x35A3 JUMP JUMPDEST SWAP2 POP PUSH2 0x3DD5 DUP3 PUSH2 0x3D6E JUMP JUMPDEST PUSH1 0x40 DUP3 ADD SWAP1 POP SWAP2 SWAP1 POP JUMP JUMPDEST PUSH1 0x0 PUSH1 0x20 DUP3 ADD SWAP1 POP DUP2 DUP2 SUB PUSH1 0x0 DUP4 ADD MSTORE PUSH2 0x3DF9 DUP2 PUSH2 0x3DBD JUMP JUMPDEST SWAP1 POP SWAP2 SWAP1 POP JUMP JUMPDEST PUSH32 0x537943726F774261727465723A20494E53554646494349454E545F42414C414E PUSH1 0x0 DUP3 ADD MSTORE PUSH32 0x4345000000000000000000000000000000000000000000000000000000000000 PUSH1 0x20 DUP3 ADD MSTORE POP JUMP JUMPDEST PUSH1 0x0 PUSH2 0x3E5C PUSH1 0x22 DUP4 PUSH2 0x35A3 JUMP JUMPDEST SWAP2 POP PUSH2 0x3E67 DUP3 PUSH2 0x3E00 JUMP JUMPDEST PUSH1 0x40 DUP3 ADD SWAP1 POP SWAP2 SWAP1 POP JUMP JUMPDEST PUSH1 0x0 PUSH1 0x20 DUP3 ADD SWAP1 POP DUP2 DUP2 SUB PUSH1 0x0 DUP4 ADD MSTORE PUSH2 0x3E8B DUP2 PUSH2 0x3E4F JUMP JUMPDEST SWAP1 POP SWAP2 SWAP1 POP JUMP JUMPDEST PUSH32 0x537943726F774261727465723A20494E53554646494349454E545F434F4E5452 PUSH1 0x0 DUP3 ADD MSTORE PUSH32 0x4143545F42414C414E4345000000000000000000000000000000000000000000 PUSH1 0x20 DUP3 ADD MSTORE POP JUMP JUMPDEST PUSH1 0x0 PUSH2 0x3EEE PUSH1 0x2B DUP4 PUSH2 0x35A3 JUMP JUMPDEST SWAP2 POP PUSH2 0x3EF9 DUP3 PUSH2 0x3E92 JUMP JUMPDEST PUSH1 0x40 DUP3 ADD SWAP1 POP SWAP2 SWAP1 POP JUMP JUMPDEST PUSH1 0x0 PUSH1 0x20 DUP3 ADD SWAP1 POP DUP2 DUP2 SUB PUSH1 0x0 DUP4 ADD MSTORE PUSH2 0x3F1D DUP2 PUSH2 0x3EE1 JUMP JUMPDEST SWAP1 POP SWAP2 SWAP1 POP JUMP JUMPDEST PUSH1 0x0 DUP2 MLOAD SWAP1 POP SWAP2 SWAP1 POP JUMP JUMPDEST PUSH1 0x0 DUP2 SWAP1 POP SWAP3 SWAP2 POP POP JUMP JUMPDEST PUSH1 0x0 JUMPDEST DUP4 DUP2 LT ISZERO PUSH2 0x3F58 JUMPI DUP1 DUP3 ADD MLOAD DUP2 DUP5 ADD MSTORE PUSH1 0x20 DUP2 ADD SWAP1 POP PUSH2 0x3F3D JUMP JUMPDEST DUP4 DUP2 GT ISZERO PUSH2 0x3F67 JUMPI PUSH1 0x0 DUP5 DUP5 ADD MSTORE JUMPDEST POP POP POP POP JUMP JUMPDEST PUSH1 0x0 PUSH2 0x3F78 DUP3 PUSH2 0x3F24 JUMP JUMPDEST PUSH2 0x3F82 DUP2 DUP6 PUSH2 0x3F2F JUMP JUMPDEST SWAP4 POP PUSH2 0x3F92 DUP2 DUP6 PUSH1 0x20 DUP7 ADD PUSH2 0x3F3A JUMP JUMPDEST DUP1 DUP5 ADD SWAP2 POP POP SWAP3 SWAP2 POP POP JUMP JUMPDEST PUSH1 0x0 PUSH2 0x3FAA DUP3 DUP5 PUSH2 0x3F6D JUMP JUMPDEST SWAP2 POP DUP2 SWAP1 POP SWAP3 SWAP2 POP POP JUMP JUMPDEST PUSH32 0x5472616E7366657248656C7065723A204554485F5452414E534645525F464149 PUSH1 0x0 DUP3 ADD MSTORE PUSH32 0x4C45440000000000000000000000000000000000000000000000000000000000 PUSH1 0x20 DUP3 ADD MSTORE POP JUMP JUMPDEST PUSH1 0x0 PUSH2 0x4011 PUSH1 0x23 DUP4 PUSH2 0x35A3 JUMP JUMPDEST SWAP2 POP PUSH2 0x401C DUP3 PUSH2 0x3FB5 JUMP JUMPDEST PUSH1 0x40 DUP3 ADD SWAP1 POP SWAP2 SWAP1 POP JUMP JUMPDEST PUSH1 0x0 PUSH1 0x20 DUP3 ADD SWAP1 POP DUP2 DUP2 SUB PUSH1 0x0 DUP4 ADD MSTORE PUSH2 0x4040 DUP2 PUSH2 0x4004 JUMP JUMPDEST SWAP1 POP SWAP2 SWAP1 POP JUMP JUMPDEST PUSH1 0x0 PUSH1 0x40 DUP3 ADD SWAP1 POP PUSH2 0x405C PUSH1 0x0 DUP4 ADD DUP6 PUSH2 0x3388 JUMP JUMPDEST PUSH2 0x4069 PUSH1 0x20 DUP4 ADD DUP5 PUSH2 0x3111 JUMP JUMPDEST SWAP4 SWAP3 POP POP POP JUMP JUMPDEST PUSH32 0x5472616E7366657248656C7065723A205452414E534645525F4641494C454400 PUSH1 0x0 DUP3 ADD MSTORE POP JUMP JUMPDEST PUSH1 0x0 PUSH2 0x40A6 PUSH1 0x1F DUP4 PUSH2 0x35A3 JUMP JUMPDEST SWAP2 POP PUSH2 0x40B1 DUP3 PUSH2 0x4070 JUMP JUMPDEST PUSH1 0x20 DUP3 ADD SWAP1 POP SWAP2 SWAP1 POP JUMP JUMPDEST PUSH1 0x0 PUSH1 0x20 DUP3 ADD SWAP1 POP DUP2 DUP2 SUB PUSH1 0x0 DUP4 ADD MSTORE PUSH2 0x40D5 DUP2 PUSH2 0x4099 JUMP JUMPDEST SWAP1 POP SWAP2 SWAP1 POP JUMP JUMPDEST PUSH1 0x0 PUSH1 0x60 DUP3 ADD SWAP1 POP PUSH2 0x40F1 PUSH1 0x0 DUP4 ADD DUP7 PUSH2 0x3388 JUMP JUMPDEST PUSH2 0x40FE PUSH1 0x20 DUP4 ADD DUP6 PUSH2 0x3388 JUMP JUMPDEST PUSH2 0x410B PUSH1 0x40 DUP4 ADD DUP5 PUSH2 0x3111 JUMP JUMPDEST SWAP5 SWAP4 POP POP POP POP JUMP JUMPDEST PUSH32 0x5472616E7366657248656C7065723A205452414E534645525F46524F4D5F4641 PUSH1 0x0 DUP3 ADD MSTORE PUSH32 0x494C454400000000000000000000000000000000000000000000000000000000 PUSH1 0x20 DUP3 ADD MSTORE POP JUMP JUMPDEST PUSH1 0x0 PUSH2 0x416F PUSH1 0x24 DUP4 PUSH2 0x35A3 JUMP JUMPDEST SWAP2 POP PUSH2 0x417A DUP3 PUSH2 0x4113 JUMP JUMPDEST PUSH1 0x40 DUP3 ADD SWAP1 POP SWAP2 SWAP1 POP JUMP JUMPDEST PUSH1 0x0 PUSH1 0x20 DUP3 ADD SWAP1 POP DUP2 DUP2 SUB PUSH1 0x0 DUP4 ADD MSTORE PUSH2 0x419E DUP2 PUSH2 0x4162 JUMP JUMPDEST SWAP1 POP SWAP2 SWAP1 POP JUMP INVALID LOG2 PUSH5 0x6970667358 0x22 SLT KECCAK256 ORIGIN SSTORE DUP5 GASLIMIT JUMP 0x49 CREATE2 0xA5 JUMPDEST DUP12 PUSH2 0x677E 0x2C REVERT CREATE 0x2D 0xC2 0xBD ADD NOT SWAP11 PUSH6 0xBDD19A3A53BF 0x24 0xB7 SIGNEXTEND PUSH5 0x736F6C6343 STOP ADDMOD 0xD STOP CALLER "
				},
				"gasEstimates": {
					"creation": {
						"codeDepositCost": "3371800",
						"executionCost": "infinite",
						"totalCost": "infinite"
					},
					"external": {
						"_initialized()": "2539",
						"barterType()": "2583",
						"factory()": "infinite",
						"getAmounts()": "infinite",
						"getTokens()": "infinite",
						"getTradeOutAmount(uint256)": "infinite",
						"getTrades()": "infinite",
						"initialize(uint8,address,address,uint256,uint256,uint256,bool,address)": "infinite",
						"owner()": "2567",
						"renounceOwnership()": "30485",
						"totalTradeAmount()": "2452",
						"tradeEthForToken()": "infinite",
						"tradeEthForToken(uint256)": "infinite",
						"tradeTokenForEth()": "infinite",
						"tradeTokenForEth(uint256)": "infinite",
						"tradeTokenForToken()": "infinite",
						"tradeTokenForToken(uint256)": "infinite",
						"transferOwnership(address)": "30830",
						"withdraw()": "infinite",
						"withdraw(address)": "infinite"
					},
					"internal": {
						"_tradeEthForToken(uint256)": "infinite",
						"_tradeTokenForEth(uint256)": "infinite",
						"_tradeTokenForToken(uint256)": "infinite"
					}
				},
				"methodIdentifiers": {
					"_initialized()": "3072cf60",
					"barterType()": "89523742",
					"factory()": "c45a0155",
					"getAmounts()": "3d370b4e",
					"getTokens()": "aa6ca808",
					"getTradeOutAmount(uint256)": "dab5a8df",
					"getTrades()": "e43372e9",
					"initialize(uint8,address,address,uint256,uint256,uint256,bool,address)": "5f5780e5",
					"owner()": "8da5cb5b",
					"renounceOwnership()": "715018a6",
					"totalTradeAmount()": "40a6f1ab",
					"tradeEthForToken()": "d7bdfc75",
					"tradeEthForToken(uint256)": "4341f920",
					"tradeTokenForEth()": "a09702b1",
					"tradeTokenForEth(uint256)": "0d182605",
					"tradeTokenForToken()": "abd050ea",
					"tradeTokenForToken(uint256)": "2ffc6887",
					"transferOwnership(address)": "f2fde38b",
					"withdraw()": "3ccfd60b",
					"withdraw(address)": "51cff8d9"
				}
			},
			"storageLayout": {
				"storage": [
					{
						"astId": 7,
						"contract": "contracts/SyCrowBarter.sol:SyCrowBarter",
						"label": "_owner",
						"offset": 0,
						"slot": "0",
						"type": "t_address"
					},
					{
						"astId": 142,
						"contract": "contracts/SyCrowBarter.sol:SyCrowBarter",
						"label": "totalTradeAmount",
						"offset": 0,
						"slot": "1",
						"type": "t_uint256"
					},
					{
						"astId": 145,
						"contract": "contracts/SyCrowBarter.sol:SyCrowBarter",
						"label": "barterType",
						"offset": 0,
						"slot": "2",
						"type": "t_enum(ISyCrowBarterType)1222"
					},
					{
						"astId": 147,
						"contract": "contracts/SyCrowBarter.sol:SyCrowBarter",
						"label": "WETH",
						"offset": 1,
						"slot": "2",
						"type": "t_address"
					},
					{
						"astId": 149,
						"contract": "contracts/SyCrowBarter.sol:SyCrowBarter",
						"label": "_deadline",
						"offset": 0,
						"slot": "3",
						"type": "t_uint256"
					},
					{
						"astId": 152,
						"contract": "contracts/SyCrowBarter.sol:SyCrowBarter",
						"label": "_initialized",
						"offset": 0,
						"slot": "4",
						"type": "t_bool"
					},
					{
						"astId": 154,
						"contract": "contracts/SyCrowBarter.sol:SyCrowBarter",
						"label": "_depositedTokenAddress",
						"offset": 1,
						"slot": "4",
						"type": "t_address"
					},
					{
						"astId": 156,
						"contract": "contracts/SyCrowBarter.sol:SyCrowBarter",
						"label": "_expectedTokenAddress",
						"offset": 0,
						"slot": "5",
						"type": "t_address"
					},
					{
						"astId": 158,
						"contract": "contracts/SyCrowBarter.sol:SyCrowBarter",
						"label": "_depositedAmount",
						"offset": 0,
						"slot": "6",
						"type": "t_uint256"
					},
					{
						"astId": 160,
						"contract": "contracts/SyCrowBarter.sol:SyCrowBarter",
						"label": "_expectedAmount",
						"offset": 0,
						"slot": "7",
						"type": "t_uint256"
					},
					{
						"astId": 162,
						"contract": "contracts/SyCrowBarter.sol:SyCrowBarter",
						"label": "_allowMultiBarter",
						"offset": 0,
						"slot": "8",
						"type": "t_bool"
					},
					{
						"astId": 166,
						"contract": "contracts/SyCrowBarter.sol:SyCrowBarter",
						"label": "_trades",
						"offset": 0,
						"slot": "9",
						"type": "t_array(t_struct(BaterTrade)173_storage)dyn_storage"
					}
				],
				"types": {
					"t_address": {
						"encoding": "inplace",
						"label": "address",
						"numberOfBytes": "20"
					},
					"t_array(t_struct(BaterTrade)173_storage)dyn_storage": {
						"base": "t_struct(BaterTrade)173_storage",
						"encoding": "dynamic_array",
						"label": "struct SyCrowBarter.BaterTrade[]",
						"numberOfBytes": "32"
					},
					"t_bool": {
						"encoding": "inplace",
						"label": "bool",
						"numberOfBytes": "1"
					},
					"t_enum(ISyCrowBarterType)1222": {
						"encoding": "inplace",
						"label": "enum ISyCrowBarterType",
						"numberOfBytes": "1"
					},
					"t_struct(BaterTrade)173_storage": {
						"encoding": "inplace",
						"label": "struct SyCrowBarter.BaterTrade",
						"members": [
							{
								"astId": 168,
								"contract": "contracts/SyCrowBarter.sol:SyCrowBarter",
								"label": "_trader",
								"offset": 0,
								"slot": "0",
								"type": "t_address"
							},
							{
								"astId": 170,
								"contract": "contracts/SyCrowBarter.sol:SyCrowBarter",
								"label": "_amountIn",
								"offset": 0,
								"slot": "1",
								"type": "t_uint256"
							},
							{
								"astId": 172,
								"contract": "contracts/SyCrowBarter.sol:SyCrowBarter",
								"label": "_amountOut",
								"offset": 0,
								"slot": "2",
								"type": "t_uint256"
							}
						],
						"numberOfBytes": "96"
					},
					"t_uint256": {
						"encoding": "inplace",
						"label": "uint256",
						"numberOfBytes": "32"
					}
				}
			},
			"userdoc": {
				"kind": "user",
				"methods": {},
				"version": 1
			}
		}
	}
}