{
	"contracts/SyCrowBarter.sol": {
		"SyCrowBarter": {
			"abi": [
				{
					"inputs": [],
					"stateMutability": "nonpayable",
					"type": "constructor"
				},
				{
					"anonymous": false,
					"inputs": [
						{
							"indexed": true,
							"internalType": "address",
							"name": "previousOwner",
							"type": "address"
						},
						{
							"indexed": true,
							"internalType": "address",
							"name": "newOwner",
							"type": "address"
						}
					],
					"name": "OwnershipTransferred",
					"type": "event"
				},
				{
					"inputs": [],
					"name": "_initialized",
					"outputs": [
						{
							"internalType": "bool",
							"name": "",
							"type": "bool"
						}
					],
					"stateMutability": "view",
					"type": "function"
				},
				{
					"inputs": [],
					"name": "factory",
					"outputs": [
						{
							"internalType": "address",
							"name": "",
							"type": "address"
						}
					],
					"stateMutability": "view",
					"type": "function"
				},
				{
					"inputs": [],
					"name": "getAmounts",
					"outputs": [
						{
							"internalType": "uint256",
							"name": "",
							"type": "uint256"
						},
						{
							"internalType": "uint256",
							"name": "",
							"type": "uint256"
						}
					],
					"stateMutability": "view",
					"type": "function"
				},
				{
					"inputs": [],
					"name": "getBarterType",
					"outputs": [
						{
							"internalType": "enum ISyCrowBarterType",
							"name": "",
							"type": "uint8"
						}
					],
					"stateMutability": "view",
					"type": "function"
				},
				{
					"inputs": [],
					"name": "getDeadline",
					"outputs": [
						{
							"internalType": "uint256",
							"name": "",
							"type": "uint256"
						}
					],
					"stateMutability": "view",
					"type": "function"
				},
				{
					"inputs": [],
					"name": "getTokens",
					"outputs": [
						{
							"internalType": "address",
							"name": "",
							"type": "address"
						},
						{
							"internalType": "address",
							"name": "",
							"type": "address"
						}
					],
					"stateMutability": "view",
					"type": "function"
				},
				{
					"inputs": [
						{
							"internalType": "uint256",
							"name": "amount",
							"type": "uint256"
						}
					],
					"name": "getTradeOutAmount",
					"outputs": [
						{
							"internalType": "uint256",
							"name": "",
							"type": "uint256"
						}
					],
					"stateMutability": "view",
					"type": "function"
				},
				{
					"inputs": [],
					"name": "getTrades",
					"outputs": [
						{
							"internalType": "address[]",
							"name": "",
							"type": "address[]"
						},
						{
							"internalType": "uint256[]",
							"name": "",
							"type": "uint256[]"
						},
						{
							"internalType": "uint256[]",
							"name": "",
							"type": "uint256[]"
						}
					],
					"stateMutability": "view",
					"type": "function"
				},
				{
					"inputs": [
						{
							"internalType": "enum ISyCrowBarterType",
							"name": "barterType",
							"type": "uint8"
						},
						{
							"internalType": "address",
							"name": "inToken",
							"type": "address"
						},
						{
							"internalType": "address",
							"name": "outToken",
							"type": "address"
						},
						{
							"internalType": "uint256",
							"name": "amountDeposited",
							"type": "uint256"
						},
						{
							"internalType": "uint256",
							"name": "amountExpected",
							"type": "uint256"
						},
						{
							"internalType": "uint256",
							"name": "deadline",
							"type": "uint256"
						},
						{
							"internalType": "bool",
							"name": "allowMultiBarter",
							"type": "bool"
						},
						{
							"internalType": "address",
							"name": "_WETH",
							"type": "address"
						}
					],
					"name": "initialize",
					"outputs": [
						{
							"internalType": "bool",
							"name": "",
							"type": "bool"
						}
					],
					"stateMutability": "nonpayable",
					"type": "function"
				},
				{
					"inputs": [],
					"name": "owner",
					"outputs": [
						{
							"internalType": "address",
							"name": "",
							"type": "address"
						}
					],
					"stateMutability": "view",
					"type": "function"
				},
				{
					"inputs": [],
					"name": "renounceOwnership",
					"outputs": [],
					"stateMutability": "nonpayable",
					"type": "function"
				},
				{
					"inputs": [
						{
							"internalType": "uint256",
							"name": "inAmount",
							"type": "uint256"
						}
					],
					"name": "tradeEthForToken",
					"outputs": [],
					"stateMutability": "payable",
					"type": "function"
				},
				{
					"inputs": [],
					"name": "tradeEthForToken",
					"outputs": [],
					"stateMutability": "payable",
					"type": "function"
				},
				{
					"inputs": [
						{
							"internalType": "uint256",
							"name": "inAmount",
							"type": "uint256"
						}
					],
					"name": "tradeTokenForEth",
					"outputs": [],
					"stateMutability": "nonpayable",
					"type": "function"
				},
				{
					"inputs": [],
					"name": "tradeTokenForEth",
					"outputs": [],
					"stateMutability": "nonpayable",
					"type": "function"
				},
				{
					"inputs": [
						{
							"internalType": "uint256",
							"name": "inAmount",
							"type": "uint256"
						}
					],
					"name": "tradeTokenForToken",
					"outputs": [],
					"stateMutability": "nonpayable",
					"type": "function"
				},
				{
					"inputs": [],
					"name": "tradeTokenForToken",
					"outputs": [],
					"stateMutability": "nonpayable",
					"type": "function"
				},
				{
					"inputs": [
						{
							"internalType": "address",
							"name": "newOwner",
							"type": "address"
						}
					],
					"name": "transferOwnership",
					"outputs": [],
					"stateMutability": "nonpayable",
					"type": "function"
				},
				{
					"inputs": [],
					"name": "withdraw",
					"outputs": [],
					"stateMutability": "nonpayable",
					"type": "function"
				},
				{
					"inputs": [
						{
							"internalType": "address",
							"name": "_erc20TokenAddress",
							"type": "address"
						}
					],
					"name": "withdraw",
					"outputs": [],
					"stateMutability": "nonpayable",
					"type": "function"
				}
			],
			"devdoc": {
				"kind": "dev",
				"methods": {
					"owner()": {
						"details": "Returns the address of the current owner."
					},
					"renounceOwnership()": {
						"details": "Leaves the contract without owner. It will not be possible to call `onlyOwner` functions anymore. Can only be called by the current owner. NOTE: Renouncing ownership will leave the contract without an owner, thereby removing any functionality that is only available to the owner."
					},
					"transferOwnership(address)": {
						"details": "Transfers ownership of the contract to a new account (`newOwner`). Can only be called by the current owner."
					}
				},
				"version": 1
			},
			"evm": {
				"assembly": "    /* \"contracts/SyCrowBarter.sol\":269:11668  contract SyCrowBarter is ISyCrowBarter, Ownable {... */\n  mstore(0x40, 0xa0)\n    /* \"contracts/SyCrowBarter.sol\":496:501  false */\n  0x00\n    /* \"contracts/SyCrowBarter.sol\":469:501  bool public _initialized = false */\n  0x04\n  exp(0x0100, 0x00)\n  dup2\n  sload\n  dup2\n  0xff\n  mul\n  not\n  and\n  swap1\n  dup4\n  iszero\n  iszero\n  mul\n  or\n  swap1\n  sstore\n  pop\n    /* \"contracts/SyCrowBarter.sol\":1889:1940  constructor() {... */\n  callvalue\n  dup1\n  iszero\n  tag_1\n  jumpi\n  0x00\n  dup1\n  revert\ntag_1:\n  pop\n    /* \"@openzeppelin/contracts/access/Ownable.sol\":921:953  _transferOwnership(_msgSender()) */\n  tag_5\n    /* \"@openzeppelin/contracts/access/Ownable.sol\":940:952  _msgSender() */\n  tag_6\n    /* \"@openzeppelin/contracts/access/Ownable.sol\":940:950  _msgSender */\n  shl(0x20, tag_7)\n    /* \"@openzeppelin/contracts/access/Ownable.sol\":940:952  _msgSender() */\n  0x20\n  shr\n  jump\t// in\ntag_6:\n    /* \"@openzeppelin/contracts/access/Ownable.sol\":921:939  _transferOwnership */\n  shl(0x20, tag_8)\n    /* \"@openzeppelin/contracts/access/Ownable.sol\":921:953  _transferOwnership(_msgSender()) */\n  0x20\n  shr\n  jump\t// in\ntag_5:\n    /* \"contracts/SyCrowBarter.sol\":1923:1933  msg.sender */\n  caller\n    /* \"contracts/SyCrowBarter.sol\":1913:1933  factory = msg.sender */\n  0xffffffffffffffffffffffffffffffffffffffff\n  and\n  0x80\n  dup2\n  0xffffffffffffffffffffffffffffffffffffffff\n  and\n  dup2\n  mstore\n  pop\n  pop\n    /* \"contracts/SyCrowBarter.sol\":269:11668  contract SyCrowBarter is ISyCrowBarter, Ownable {... */\n  jump(tag_10)\n    /* \"@openzeppelin/contracts/utils/Context.sol\":640:736  function _msgSender() internal view virtual returns (address) {... */\ntag_7:\n    /* \"@openzeppelin/contracts/utils/Context.sol\":693:700  address */\n  0x00\n    /* \"@openzeppelin/contracts/utils/Context.sol\":719:729  msg.sender */\n  caller\n    /* \"@openzeppelin/contracts/utils/Context.sol\":712:729  return msg.sender */\n  swap1\n  pop\n    /* \"@openzeppelin/contracts/utils/Context.sol\":640:736  function _msgSender() internal view virtual returns (address) {... */\n  swap1\n  jump\t// out\n    /* \"@openzeppelin/contracts/access/Ownable.sol\":2270:2457  function _transferOwnership(address newOwner) internal virtual {... */\ntag_8:\n    /* \"@openzeppelin/contracts/access/Ownable.sol\":2343:2359  address oldOwner */\n  0x00\n    /* \"@openzeppelin/contracts/access/Ownable.sol\":2362:2368  _owner */\n  dup1\n  0x00\n  swap1\n  sload\n  swap1\n  0x0100\n  exp\n  swap1\n  div\n  0xffffffffffffffffffffffffffffffffffffffff\n  and\n    /* \"@openzeppelin/contracts/access/Ownable.sol\":2343:2368  address oldOwner = _owner */\n  swap1\n  pop\n    /* \"@openzeppelin/contracts/access/Ownable.sol\":2387:2395  newOwner */\n  dup2\n    /* \"@openzeppelin/contracts/access/Ownable.sol\":2378:2384  _owner */\n  0x00\n  dup1\n    /* \"@openzeppelin/contracts/access/Ownable.sol\":2378:2395  _owner = newOwner */\n  0x0100\n  exp\n  dup2\n  sload\n  dup2\n  0xffffffffffffffffffffffffffffffffffffffff\n  mul\n  not\n  and\n  swap1\n  dup4\n  0xffffffffffffffffffffffffffffffffffffffff\n  and\n  mul\n  or\n  swap1\n  sstore\n  pop\n    /* \"@openzeppelin/contracts/access/Ownable.sol\":2441:2449  newOwner */\n  dup2\n    /* \"@openzeppelin/contracts/access/Ownable.sol\":2410:2450  OwnershipTransferred(oldOwner, newOwner) */\n  0xffffffffffffffffffffffffffffffffffffffff\n  and\n    /* \"@openzeppelin/contracts/access/Ownable.sol\":2431:2439  oldOwner */\n  dup2\n    /* \"@openzeppelin/contracts/access/Ownable.sol\":2410:2450  OwnershipTransferred(oldOwner, newOwner) */\n  0xffffffffffffffffffffffffffffffffffffffff\n  and\n  0x8be0079c531659141344cd1fd0a4f28419497f9722a3daafe3b4186f6b6457e0\n  mload(0x40)\n  mload(0x40)\n  dup1\n  swap2\n  sub\n  swap1\n  log3\n    /* \"@openzeppelin/contracts/access/Ownable.sol\":2333:2457  {... */\n  pop\n    /* \"@openzeppelin/contracts/access/Ownable.sol\":2270:2457  function _transferOwnership(address newOwner) internal virtual {... */\n  pop\n  jump\t// out\n    /* \"contracts/SyCrowBarter.sol\":269:11668  contract SyCrowBarter is ISyCrowBarter, Ownable {... */\ntag_10:\n  mload(0x80)\n  codecopy(0x00, dataOffset(sub_0), dataSize(sub_0))\n  0x00\n  assignImmutable(\"0x26a975632f70533c9512e57b565b8ce8e2befee6b08dfbc27c4a897a20e2c1d6\")\n  return(0x00, dataSize(sub_0))\nstop\n\nsub_0: assembly {\n        /* \"contracts/SyCrowBarter.sol\":269:11668  contract SyCrowBarter is ISyCrowBarter, Ownable {... */\n      mstore(0x40, 0x80)\n      jumpi(tag_1, lt(calldatasize, 0x04))\n      shr(0xe0, calldataload(0x00))\n      dup1\n      0x715018a6\n      gt\n      tag_22\n      jumpi\n      dup1\n      0xc45a0155\n      gt\n      tag_23\n      jumpi\n      dup1\n      0xc45a0155\n      eq\n      tag_17\n      jumpi\n      dup1\n      0xd7bdfc75\n      eq\n      tag_18\n      jumpi\n      dup1\n      0xdab5a8df\n      eq\n      tag_19\n      jumpi\n      dup1\n      0xe43372e9\n      eq\n      tag_20\n      jumpi\n      dup1\n      0xf2fde38b\n      eq\n      tag_21\n      jumpi\n      jump(tag_1)\n    tag_23:\n      dup1\n      0x715018a6\n      eq\n      tag_12\n      jumpi\n      dup1\n      0x8da5cb5b\n      eq\n      tag_13\n      jumpi\n      dup1\n      0xa09702b1\n      eq\n      tag_14\n      jumpi\n      dup1\n      0xaa6ca808\n      eq\n      tag_15\n      jumpi\n      dup1\n      0xabd050ea\n      eq\n      tag_16\n      jumpi\n      jump(tag_1)\n    tag_22:\n      dup1\n      0x4341f920\n      gt\n      tag_24\n      jumpi\n      dup1\n      0x4341f920\n      eq\n      tag_7\n      jumpi\n      dup1\n      0x442fb8cd\n      eq\n      tag_8\n      jumpi\n      dup1\n      0x51cff8d9\n      eq\n      tag_9\n      jumpi\n      dup1\n      0x5f5780e5\n      eq\n      tag_10\n      jumpi\n      dup1\n      0x5f8d96de\n      eq\n      tag_11\n      jumpi\n      jump(tag_1)\n    tag_24:\n      dup1\n      0x0d182605\n      eq\n      tag_2\n      jumpi\n      dup1\n      0x2ffc6887\n      eq\n      tag_3\n      jumpi\n      dup1\n      0x3072cf60\n      eq\n      tag_4\n      jumpi\n      dup1\n      0x3ccfd60b\n      eq\n      tag_5\n      jumpi\n      dup1\n      0x3d370b4e\n      eq\n      tag_6\n      jumpi\n    tag_1:\n      0x00\n      dup1\n      revert\n        /* \"contracts/SyCrowBarter.sol\":4674:4943  function tradeTokenForEth(uint256 inAmount)... */\n    tag_2:\n      callvalue\n      dup1\n      iszero\n      tag_25\n      jumpi\n      0x00\n      dup1\n      revert\n    tag_25:\n      pop\n      tag_26\n      0x04\n      dup1\n      calldatasize\n      sub\n      dup2\n      add\n      swap1\n      tag_27\n      swap2\n      swap1\n      tag_28\n      jump\t// in\n    tag_27:\n      tag_29\n      jump\t// in\n    tag_26:\n      stop\n        /* \"contracts/SyCrowBarter.sol\":4393:4668  function tradeTokenForToken(uint256 inAmount)... */\n    tag_3:\n      callvalue\n      dup1\n      iszero\n      tag_30\n      jumpi\n      0x00\n      dup1\n      revert\n    tag_30:\n      pop\n      tag_31\n      0x04\n      dup1\n      calldatasize\n      sub\n      dup2\n      add\n      swap1\n      tag_32\n      swap2\n      swap1\n      tag_28\n      jump\t// in\n    tag_32:\n      tag_33\n      jump\t// in\n    tag_31:\n      stop\n        /* \"contracts/SyCrowBarter.sol\":469:501  bool public _initialized = false */\n    tag_4:\n      callvalue\n      dup1\n      iszero\n      tag_34\n      jumpi\n      0x00\n      dup1\n      revert\n    tag_34:\n      pop\n      tag_35\n      tag_36\n      jump\t// in\n    tag_35:\n      mload(0x40)\n      tag_37\n      swap2\n      swap1\n      tag_38\n      jump\t// in\n    tag_37:\n      mload(0x40)\n      dup1\n      swap2\n      sub\n      swap1\n      return\n        /* \"contracts/SyCrowBarter.sol\":8906:10625  function withdraw() external override checkInActive initialized onlyOwner {... */\n    tag_5:\n      callvalue\n      dup1\n      iszero\n      tag_39\n      jumpi\n      0x00\n      dup1\n      revert\n    tag_39:\n      pop\n      tag_40\n      tag_41\n      jump\t// in\n    tag_40:\n      stop\n        /* \"contracts/SyCrowBarter.sol\":2972:3159  function getAmounts()... */\n    tag_6:\n      callvalue\n      dup1\n      iszero\n      tag_42\n      jumpi\n      0x00\n      dup1\n      revert\n    tag_42:\n      pop\n      tag_43\n      tag_44\n      jump\t// in\n    tag_43:\n      mload(0x40)\n      tag_45\n      swap3\n      swap2\n      swap1\n      tag_46\n      jump\t// in\n    tag_45:\n      mload(0x40)\n      dup1\n      swap2\n      sub\n      swap1\n      return\n        /* \"contracts/SyCrowBarter.sol\":4949:5234  function tradeEthForToken(uint256 inAmount)... */\n    tag_7:\n      tag_47\n      0x04\n      dup1\n      calldatasize\n      sub\n      dup2\n      add\n      swap1\n      tag_48\n      swap2\n      swap1\n      tag_28\n      jump\t// in\n    tag_48:\n      tag_49\n      jump\t// in\n    tag_47:\n      stop\n        /* \"contracts/SyCrowBarter.sol\":3528:3695  function getBarterType()... */\n    tag_8:\n      callvalue\n      dup1\n      iszero\n      tag_50\n      jumpi\n      0x00\n      dup1\n      revert\n    tag_50:\n      pop\n      tag_51\n      tag_52\n      jump\t// in\n    tag_51:\n      mload(0x40)\n      tag_53\n      swap2\n      swap1\n      tag_54\n      jump\t// in\n    tag_53:\n      mload(0x40)\n      dup1\n      swap2\n      sub\n      swap1\n      return\n        /* \"contracts/SyCrowBarter.sol\":10631:11308  function withdraw(address _erc20TokenAddress)... */\n    tag_9:\n      callvalue\n      dup1\n      iszero\n      tag_55\n      jumpi\n      0x00\n      dup1\n      revert\n    tag_55:\n      pop\n      tag_56\n      0x04\n      dup1\n      calldatasize\n      sub\n      dup2\n      add\n      swap1\n      tag_57\n      swap2\n      swap1\n      tag_58\n      jump\t// in\n    tag_57:\n      tag_59\n      jump\t// in\n    tag_56:\n      stop\n        /* \"contracts/SyCrowBarter.sol\":1946:2966  function initialize(... */\n    tag_10:\n      callvalue\n      dup1\n      iszero\n      tag_60\n      jumpi\n      0x00\n      dup1\n      revert\n    tag_60:\n      pop\n      tag_61\n      0x04\n      dup1\n      calldatasize\n      sub\n      dup2\n      add\n      swap1\n      tag_62\n      swap2\n      swap1\n      tag_63\n      jump\t// in\n    tag_62:\n      tag_64\n      jump\t// in\n    tag_61:\n      mload(0x40)\n      tag_65\n      swap2\n      swap1\n      tag_38\n      jump\t// in\n    tag_65:\n      mload(0x40)\n      dup1\n      swap2\n      sub\n      swap1\n      return\n        /* \"contracts/SyCrowBarter.sol\":3369:3522  function getDeadline()... */\n    tag_11:\n      callvalue\n      dup1\n      iszero\n      tag_66\n      jumpi\n      0x00\n      dup1\n      revert\n    tag_66:\n      pop\n      tag_67\n      tag_68\n      jump\t// in\n    tag_67:\n      mload(0x40)\n      tag_69\n      swap2\n      swap1\n      tag_70\n      jump\t// in\n    tag_69:\n      mload(0x40)\n      dup1\n      swap2\n      sub\n      swap1\n      return\n        /* \"@openzeppelin/contracts/access/Ownable.sol\":1668:1769  function renounceOwnership() public virtual onlyOwner {... */\n    tag_12:\n      callvalue\n      dup1\n      iszero\n      tag_71\n      jumpi\n      0x00\n      dup1\n      revert\n    tag_71:\n      pop\n      tag_72\n      tag_73\n      jump\t// in\n    tag_72:\n      stop\n        /* \"@openzeppelin/contracts/access/Ownable.sol\":1036:1121  function owner() public view virtual returns (address) {... */\n    tag_13:\n      callvalue\n      dup1\n      iszero\n      tag_74\n      jumpi\n      0x00\n      dup1\n      revert\n    tag_74:\n      pop\n      tag_75\n      tag_76\n      jump\t// in\n    tag_75:\n      mload(0x40)\n      tag_77\n      swap2\n      swap1\n      tag_78\n      jump\t// in\n    tag_77:\n      mload(0x40)\n      dup1\n      swap2\n      sub\n      swap1\n      return\n        /* \"contracts/SyCrowBarter.sol\":5486:5720  function tradeTokenForEth()... */\n    tag_14:\n      callvalue\n      dup1\n      iszero\n      tag_79\n      jumpi\n      0x00\n      dup1\n      revert\n    tag_79:\n      pop\n      tag_80\n      tag_81\n      jump\t// in\n    tag_80:\n      stop\n        /* \"contracts/SyCrowBarter.sol\":3165:3363  function getTokens()... */\n    tag_15:\n      callvalue\n      dup1\n      iszero\n      tag_82\n      jumpi\n      0x00\n      dup1\n      revert\n    tag_82:\n      pop\n      tag_83\n      tag_84\n      jump\t// in\n    tag_83:\n      mload(0x40)\n      tag_85\n      swap3\n      swap2\n      swap1\n      tag_86\n      jump\t// in\n    tag_85:\n      mload(0x40)\n      dup1\n      swap2\n      sub\n      swap1\n      return\n        /* \"contracts/SyCrowBarter.sol\":5240:5480  function tradeTokenForToken()... */\n    tag_16:\n      callvalue\n      dup1\n      iszero\n      tag_87\n      jumpi\n      0x00\n      dup1\n      revert\n    tag_87:\n      pop\n      tag_88\n      tag_89\n      jump\t// in\n    tag_88:\n      stop\n        /* \"contracts/SyCrowBarter.sol\":323:364  address public immutable override factory */\n    tag_17:\n      callvalue\n      dup1\n      iszero\n      tag_90\n      jumpi\n      0x00\n      dup1\n      revert\n    tag_90:\n      pop\n      tag_91\n      tag_92\n      jump\t// in\n    tag_91:\n      mload(0x40)\n      tag_93\n      swap2\n      swap1\n      tag_78\n      jump\t// in\n    tag_93:\n      mload(0x40)\n      dup1\n      swap2\n      sub\n      swap1\n      return\n        /* \"contracts/SyCrowBarter.sol\":5726:5976  function tradeEthForToken()... */\n    tag_18:\n      tag_94\n      tag_95\n      jump\t// in\n    tag_94:\n      stop\n        /* \"contracts/SyCrowBarter.sol\":11314:11487  function getTradeOutAmount(uint256 amount)... */\n    tag_19:\n      callvalue\n      dup1\n      iszero\n      tag_96\n      jumpi\n      0x00\n      dup1\n      revert\n    tag_96:\n      pop\n      tag_97\n      0x04\n      dup1\n      calldatasize\n      sub\n      dup2\n      add\n      swap1\n      tag_98\n      swap2\n      swap1\n      tag_28\n      jump\t// in\n    tag_98:\n      tag_99\n      jump\t// in\n    tag_97:\n      mload(0x40)\n      tag_100\n      swap2\n      swap1\n      tag_70\n      jump\t// in\n    tag_100:\n      mload(0x40)\n      dup1\n      swap2\n      sub\n      swap1\n      return\n        /* \"contracts/SyCrowBarter.sol\":3701:4387  function getTrades()... */\n    tag_20:\n      callvalue\n      dup1\n      iszero\n      tag_101\n      jumpi\n      0x00\n      dup1\n      revert\n    tag_101:\n      pop\n      tag_102\n      tag_103\n      jump\t// in\n    tag_102:\n      mload(0x40)\n      tag_104\n      swap4\n      swap3\n      swap2\n      swap1\n      tag_105\n      jump\t// in\n    tag_104:\n      mload(0x40)\n      dup1\n      swap2\n      sub\n      swap1\n      return\n        /* \"@openzeppelin/contracts/access/Ownable.sol\":1918:2116  function transferOwnership(address newOwner) public virtual onlyOwner {... */\n    tag_21:\n      callvalue\n      dup1\n      iszero\n      tag_106\n      jumpi\n      0x00\n      dup1\n      revert\n    tag_106:\n      pop\n      tag_107\n      0x04\n      dup1\n      calldatasize\n      sub\n      dup2\n      add\n      swap1\n      tag_108\n      swap2\n      swap1\n      tag_58\n      jump\t// in\n    tag_108:\n      tag_109\n      jump\t// in\n    tag_107:\n      stop\n        /* \"contracts/SyCrowBarter.sol\":4674:4943  function tradeTokenForEth(uint256 inAmount)... */\n    tag_29:\n        /* \"contracts/SyCrowBarter.sol\":968:983  block.timestamp */\n      timestamp\n        /* \"contracts/SyCrowBarter.sol\":955:964  _deadline */\n      sload(0x03)\n        /* \"contracts/SyCrowBarter.sol\":955:983  _deadline >= block.timestamp */\n      lt\n      iszero\n        /* \"contracts/SyCrowBarter.sol\":955:1021  _deadline >= block.timestamp && totalTradeAmount < _expectedAmount */\n      dup1\n      iszero\n      tag_111\n      jumpi\n      pop\n        /* \"contracts/SyCrowBarter.sol\":1006:1021  _expectedAmount */\n      sload(0x07)\n        /* \"contracts/SyCrowBarter.sol\":987:1003  totalTradeAmount */\n      sload(0x01)\n        /* \"contracts/SyCrowBarter.sol\":987:1021  totalTradeAmount < _expectedAmount */\n      lt\n        /* \"contracts/SyCrowBarter.sol\":955:1021  _deadline >= block.timestamp && totalTradeAmount < _expectedAmount */\n    tag_111:\n        /* \"contracts/SyCrowBarter.sol\":934:1069  require(... */\n      tag_112\n      jumpi\n      mload(0x40)\n      0x08c379a000000000000000000000000000000000000000000000000000000000\n      dup2\n      mstore\n      0x04\n      add\n      tag_113\n      swap1\n      tag_114\n      jump\t// in\n    tag_113:\n      mload(0x40)\n      dup1\n      swap2\n      sub\n      swap1\n      revert\n    tag_112:\n        /* \"contracts/SyCrowBarter.sol\":1486:1498  _initialized */\n      0x04\n      0x00\n      swap1\n      sload\n      swap1\n      0x0100\n      exp\n      swap1\n      div\n      0xff\n      and\n        /* \"contracts/SyCrowBarter.sol\":1478:1532  require(_initialized, \"SyCrowBarter: NOT_INITIALIZED\") */\n      tag_116\n      jumpi\n      mload(0x40)\n      0x08c379a000000000000000000000000000000000000000000000000000000000\n      dup2\n      mstore\n      0x04\n      add\n      tag_117\n      swap1\n      tag_118\n      jump\t// in\n    tag_117:\n      mload(0x40)\n      dup1\n      swap2\n      sub\n      swap1\n      revert\n    tag_116:\n        /* \"contracts/SyCrowBarter.sol\":1719:1752  ISyCrowBarterFactory isycrFactory */\n      0x00\n        /* \"contracts/SyCrowBarter.sol\":1776:1783  factory */\n      immutable(\"0x26a975632f70533c9512e57b565b8ce8e2befee6b08dfbc27c4a897a20e2c1d6\")\n        /* \"contracts/SyCrowBarter.sol\":1719:1784  ISyCrowBarterFactory isycrFactory = ISyCrowBarterFactory(factory) */\n      swap1\n      pop\n        /* \"contracts/SyCrowBarter.sol\":1803:1815  isycrFactory */\n      dup1\n        /* \"contracts/SyCrowBarter.sol\":1803:1824  isycrFactory.isPaused */\n      0xffffffffffffffffffffffffffffffffffffffff\n      and\n      0xb187bd26\n        /* \"contracts/SyCrowBarter.sol\":1803:1826  isycrFactory.isPaused() */\n      mload(0x40)\n      dup2\n      0xffffffff\n      and\n      0xe0\n      shl\n      dup2\n      mstore\n      0x04\n      add\n      0x20\n      mload(0x40)\n      dup1\n      dup4\n      sub\n      dup2\n      dup7\n      gas\n      staticcall\n      iszero\n      dup1\n      iszero\n      tag_121\n      jumpi\n      returndatasize\n      0x00\n      dup1\n      returndatacopy\n      revert(0x00, returndatasize)\n    tag_121:\n      pop\n      pop\n      pop\n      pop\n      mload(0x40)\n      returndatasize\n      not(0x1f)\n      0x1f\n      dup3\n      add\n      and\n      dup3\n      add\n      dup1\n      0x40\n      mstore\n      pop\n      dup2\n      add\n      swap1\n      tag_122\n      swap2\n      swap1\n      tag_123\n      jump\t// in\n    tag_122:\n        /* \"contracts/SyCrowBarter.sol\":1802:1826  !isycrFactory.isPaused() */\n      iszero\n        /* \"contracts/SyCrowBarter.sol\":1794:1865  require(!isycrFactory.isPaused(), \"SyCrowBarter: Base Contract Paused\") */\n      tag_124\n      jumpi\n      mload(0x40)\n      0x08c379a000000000000000000000000000000000000000000000000000000000\n      dup2\n      mstore\n      0x04\n      add\n      tag_125\n      swap1\n      tag_126\n      jump\t// in\n    tag_125:\n      mload(0x40)\n      dup1\n      swap2\n      sub\n      swap1\n      revert\n    tag_124:\n        /* \"contracts/SyCrowBarter.sol\":1603:1620  _allowMultiBarter */\n      0x08\n      0x00\n      swap1\n      sload\n      swap1\n      0x0100\n      exp\n      swap1\n      div\n      0xff\n      and\n        /* \"contracts/SyCrowBarter.sol\":1595:1662  require(_allowMultiBarter, \"SyCrowBarter: MULTI_TRADE_NOT_ENABLED\") */\n      tag_128\n      jumpi\n      mload(0x40)\n      0x08c379a000000000000000000000000000000000000000000000000000000000\n      dup2\n      mstore\n      0x04\n      add\n      tag_129\n      swap1\n      tag_130\n      jump\t// in\n    tag_129:\n      mload(0x40)\n      dup1\n      swap2\n      sub\n      swap1\n      revert\n    tag_128:\n        /* \"contracts/SyCrowBarter.sol\":4862:4893  ISyCrowBarterType.ETH_FOR_TOKEN */\n      0x00\n        /* \"contracts/SyCrowBarter.sol\":1180:1191  _barterType */\n      0x08\n      0x01\n      swap1\n      sload\n      swap1\n      0x0100\n      exp\n      swap1\n      div\n      0xff\n      and\n        /* \"contracts/SyCrowBarter.sol\":1166:1191  barterType == _barterType */\n      0x02\n      dup2\n      gt\n      iszero\n      tag_132\n      jumpi\n      tag_133\n      tag_134\n      jump\t// in\n    tag_133:\n    tag_132:\n        /* \"contracts/SyCrowBarter.sol\":1166:1176  barterType */\n      dup2\n        /* \"contracts/SyCrowBarter.sol\":1166:1191  barterType == _barterType */\n      0x02\n      dup2\n      gt\n      iszero\n      tag_135\n      jumpi\n      tag_136\n      tag_134\n      jump\t// in\n    tag_136:\n    tag_135:\n      eq\n        /* \"contracts/SyCrowBarter.sol\":1158:1229  require(barterType == _barterType, \"SyCrowBarter: INVALID_BARTER_TYPE\") */\n      tag_137\n      jumpi\n      mload(0x40)\n      0x08c379a000000000000000000000000000000000000000000000000000000000\n      dup2\n      mstore\n      0x04\n      add\n      tag_138\n      swap1\n      tag_139\n      jump\t// in\n    tag_138:\n      mload(0x40)\n      dup1\n      swap2\n      sub\n      swap1\n      revert\n    tag_137:\n        /* \"contracts/SyCrowBarter.sol\":4909:4936  _tradeTokenForEth(inAmount) */\n      tag_141\n        /* \"contracts/SyCrowBarter.sol\":4927:4935  inAmount */\n      dup4\n        /* \"contracts/SyCrowBarter.sol\":4909:4926  _tradeTokenForEth */\n      tag_142\n        /* \"contracts/SyCrowBarter.sol\":4909:4936  _tradeTokenForEth(inAmount) */\n      jump\t// in\n    tag_141:\n        /* \"contracts/SyCrowBarter.sol\":1672:1673  _ */\n      pop\n        /* \"contracts/SyCrowBarter.sol\":1709:1883  {... */\n      pop\n        /* \"contracts/SyCrowBarter.sol\":4674:4943  function tradeTokenForEth(uint256 inAmount)... */\n      pop\n      jump\t// out\n        /* \"contracts/SyCrowBarter.sol\":4393:4668  function tradeTokenForToken(uint256 inAmount)... */\n    tag_33:\n        /* \"contracts/SyCrowBarter.sol\":968:983  block.timestamp */\n      timestamp\n        /* \"contracts/SyCrowBarter.sol\":955:964  _deadline */\n      sload(0x03)\n        /* \"contracts/SyCrowBarter.sol\":955:983  _deadline >= block.timestamp */\n      lt\n      iszero\n        /* \"contracts/SyCrowBarter.sol\":955:1021  _deadline >= block.timestamp && totalTradeAmount < _expectedAmount */\n      dup1\n      iszero\n      tag_144\n      jumpi\n      pop\n        /* \"contracts/SyCrowBarter.sol\":1006:1021  _expectedAmount */\n      sload(0x07)\n        /* \"contracts/SyCrowBarter.sol\":987:1003  totalTradeAmount */\n      sload(0x01)\n        /* \"contracts/SyCrowBarter.sol\":987:1021  totalTradeAmount < _expectedAmount */\n      lt\n        /* \"contracts/SyCrowBarter.sol\":955:1021  _deadline >= block.timestamp && totalTradeAmount < _expectedAmount */\n    tag_144:\n        /* \"contracts/SyCrowBarter.sol\":934:1069  require(... */\n      tag_145\n      jumpi\n      mload(0x40)\n      0x08c379a000000000000000000000000000000000000000000000000000000000\n      dup2\n      mstore\n      0x04\n      add\n      tag_146\n      swap1\n      tag_114\n      jump\t// in\n    tag_146:\n      mload(0x40)\n      dup1\n      swap2\n      sub\n      swap1\n      revert\n    tag_145:\n        /* \"contracts/SyCrowBarter.sol\":1486:1498  _initialized */\n      0x04\n      0x00\n      swap1\n      sload\n      swap1\n      0x0100\n      exp\n      swap1\n      div\n      0xff\n      and\n        /* \"contracts/SyCrowBarter.sol\":1478:1532  require(_initialized, \"SyCrowBarter: NOT_INITIALIZED\") */\n      tag_148\n      jumpi\n      mload(0x40)\n      0x08c379a000000000000000000000000000000000000000000000000000000000\n      dup2\n      mstore\n      0x04\n      add\n      tag_149\n      swap1\n      tag_118\n      jump\t// in\n    tag_149:\n      mload(0x40)\n      dup1\n      swap2\n      sub\n      swap1\n      revert\n    tag_148:\n        /* \"contracts/SyCrowBarter.sol\":1719:1752  ISyCrowBarterFactory isycrFactory */\n      0x00\n        /* \"contracts/SyCrowBarter.sol\":1776:1783  factory */\n      immutable(\"0x26a975632f70533c9512e57b565b8ce8e2befee6b08dfbc27c4a897a20e2c1d6\")\n        /* \"contracts/SyCrowBarter.sol\":1719:1784  ISyCrowBarterFactory isycrFactory = ISyCrowBarterFactory(factory) */\n      swap1\n      pop\n        /* \"contracts/SyCrowBarter.sol\":1803:1815  isycrFactory */\n      dup1\n        /* \"contracts/SyCrowBarter.sol\":1803:1824  isycrFactory.isPaused */\n      0xffffffffffffffffffffffffffffffffffffffff\n      and\n      0xb187bd26\n        /* \"contracts/SyCrowBarter.sol\":1803:1826  isycrFactory.isPaused() */\n      mload(0x40)\n      dup2\n      0xffffffff\n      and\n      0xe0\n      shl\n      dup2\n      mstore\n      0x04\n      add\n      0x20\n      mload(0x40)\n      dup1\n      dup4\n      sub\n      dup2\n      dup7\n      gas\n      staticcall\n      iszero\n      dup1\n      iszero\n      tag_152\n      jumpi\n      returndatasize\n      0x00\n      dup1\n      returndatacopy\n      revert(0x00, returndatasize)\n    tag_152:\n      pop\n      pop\n      pop\n      pop\n      mload(0x40)\n      returndatasize\n      not(0x1f)\n      0x1f\n      dup3\n      add\n      and\n      dup3\n      add\n      dup1\n      0x40\n      mstore\n      pop\n      dup2\n      add\n      swap1\n      tag_153\n      swap2\n      swap1\n      tag_123\n      jump\t// in\n    tag_153:\n        /* \"contracts/SyCrowBarter.sol\":1802:1826  !isycrFactory.isPaused() */\n      iszero\n        /* \"contracts/SyCrowBarter.sol\":1794:1865  require(!isycrFactory.isPaused(), \"SyCrowBarter: Base Contract Paused\") */\n      tag_154\n      jumpi\n      mload(0x40)\n      0x08c379a000000000000000000000000000000000000000000000000000000000\n      dup2\n      mstore\n      0x04\n      add\n      tag_155\n      swap1\n      tag_126\n      jump\t// in\n    tag_155:\n      mload(0x40)\n      dup1\n      swap2\n      sub\n      swap1\n      revert\n    tag_154:\n        /* \"contracts/SyCrowBarter.sol\":1603:1620  _allowMultiBarter */\n      0x08\n      0x00\n      swap1\n      sload\n      swap1\n      0x0100\n      exp\n      swap1\n      div\n      0xff\n      and\n        /* \"contracts/SyCrowBarter.sol\":1595:1662  require(_allowMultiBarter, \"SyCrowBarter: MULTI_TRADE_NOT_ENABLED\") */\n      tag_157\n      jumpi\n      mload(0x40)\n      0x08c379a000000000000000000000000000000000000000000000000000000000\n      dup2\n      mstore\n      0x04\n      add\n      tag_158\n      swap1\n      tag_130\n      jump\t// in\n    tag_158:\n      mload(0x40)\n      dup1\n      swap2\n      sub\n      swap1\n      revert\n    tag_157:\n        /* \"contracts/SyCrowBarter.sol\":4583:4616  ISyCrowBarterType.TOKEN_FOR_TOKEN */\n      0x02\n        /* \"contracts/SyCrowBarter.sol\":1180:1191  _barterType */\n      0x08\n      0x01\n      swap1\n      sload\n      swap1\n      0x0100\n      exp\n      swap1\n      div\n      0xff\n      and\n        /* \"contracts/SyCrowBarter.sol\":1166:1191  barterType == _barterType */\n      0x02\n      dup2\n      gt\n      iszero\n      tag_160\n      jumpi\n      tag_161\n      tag_134\n      jump\t// in\n    tag_161:\n    tag_160:\n        /* \"contracts/SyCrowBarter.sol\":1166:1176  barterType */\n      dup2\n        /* \"contracts/SyCrowBarter.sol\":1166:1191  barterType == _barterType */\n      0x02\n      dup2\n      gt\n      iszero\n      tag_162\n      jumpi\n      tag_163\n      tag_134\n      jump\t// in\n    tag_163:\n    tag_162:\n      eq\n        /* \"contracts/SyCrowBarter.sol\":1158:1229  require(barterType == _barterType, \"SyCrowBarter: INVALID_BARTER_TYPE\") */\n      tag_164\n      jumpi\n      mload(0x40)\n      0x08c379a000000000000000000000000000000000000000000000000000000000\n      dup2\n      mstore\n      0x04\n      add\n      tag_165\n      swap1\n      tag_139\n      jump\t// in\n    tag_165:\n      mload(0x40)\n      dup1\n      swap2\n      sub\n      swap1\n      revert\n    tag_164:\n        /* \"contracts/SyCrowBarter.sol\":4632:4661  _tradeTokenForToken(inAmount) */\n      tag_167\n        /* \"contracts/SyCrowBarter.sol\":4652:4660  inAmount */\n      dup4\n        /* \"contracts/SyCrowBarter.sol\":4632:4651  _tradeTokenForToken */\n      tag_168\n        /* \"contracts/SyCrowBarter.sol\":4632:4661  _tradeTokenForToken(inAmount) */\n      jump\t// in\n    tag_167:\n        /* \"contracts/SyCrowBarter.sol\":1672:1673  _ */\n      pop\n        /* \"contracts/SyCrowBarter.sol\":1709:1883  {... */\n      pop\n        /* \"contracts/SyCrowBarter.sol\":4393:4668  function tradeTokenForToken(uint256 inAmount)... */\n      pop\n      jump\t// out\n        /* \"contracts/SyCrowBarter.sol\":469:501  bool public _initialized = false */\n    tag_36:\n      0x04\n      0x00\n      swap1\n      sload\n      swap1\n      0x0100\n      exp\n      swap1\n      div\n      0xff\n      and\n      dup2\n      jump\t// out\n        /* \"contracts/SyCrowBarter.sol\":8906:10625  function withdraw() external override checkInActive initialized onlyOwner {... */\n    tag_41:\n        /* \"contracts/SyCrowBarter.sol\":1321:1336  block.timestamp */\n      timestamp\n        /* \"contracts/SyCrowBarter.sol\":1309:1318  _deadline */\n      sload(0x03)\n        /* \"contracts/SyCrowBarter.sol\":1309:1336  _deadline < block.timestamp */\n      lt\n        /* \"contracts/SyCrowBarter.sol\":1309:1375  _deadline < block.timestamp || totalTradeAmount >= _expectedAmount */\n      dup1\n      tag_170\n      jumpi\n      pop\n        /* \"contracts/SyCrowBarter.sol\":1360:1375  _expectedAmount */\n      sload(0x07)\n        /* \"contracts/SyCrowBarter.sol\":1340:1356  totalTradeAmount */\n      sload(0x01)\n        /* \"contracts/SyCrowBarter.sol\":1340:1375  totalTradeAmount >= _expectedAmount */\n      lt\n      iszero\n        /* \"contracts/SyCrowBarter.sol\":1309:1375  _deadline < block.timestamp || totalTradeAmount >= _expectedAmount */\n    tag_170:\n        /* \"contracts/SyCrowBarter.sol\":1288:1421  require(... */\n      tag_171\n      jumpi\n      mload(0x40)\n      0x08c379a000000000000000000000000000000000000000000000000000000000\n      dup2\n      mstore\n      0x04\n      add\n      tag_172\n      swap1\n      tag_173\n      jump\t// in\n    tag_172:\n      mload(0x40)\n      dup1\n      swap2\n      sub\n      swap1\n      revert\n    tag_171:\n        /* \"contracts/SyCrowBarter.sol\":1486:1498  _initialized */\n      0x04\n      0x00\n      swap1\n      sload\n      swap1\n      0x0100\n      exp\n      swap1\n      div\n      0xff\n      and\n        /* \"contracts/SyCrowBarter.sol\":1478:1532  require(_initialized, \"SyCrowBarter: NOT_INITIALIZED\") */\n      tag_175\n      jumpi\n      mload(0x40)\n      0x08c379a000000000000000000000000000000000000000000000000000000000\n      dup2\n      mstore\n      0x04\n      add\n      tag_176\n      swap1\n      tag_118\n      jump\t// in\n    tag_176:\n      mload(0x40)\n      dup1\n      swap2\n      sub\n      swap1\n      revert\n    tag_175:\n        /* \"@openzeppelin/contracts/access/Ownable.sol\":1259:1271  _msgSender() */\n      tag_178\n        /* \"@openzeppelin/contracts/access/Ownable.sol\":1259:1269  _msgSender */\n      tag_179\n        /* \"@openzeppelin/contracts/access/Ownable.sol\":1259:1271  _msgSender() */\n      jump\t// in\n    tag_178:\n        /* \"@openzeppelin/contracts/access/Ownable.sol\":1248:1271  owner() == _msgSender() */\n      0xffffffffffffffffffffffffffffffffffffffff\n      and\n        /* \"@openzeppelin/contracts/access/Ownable.sol\":1248:1255  owner() */\n      tag_180\n        /* \"@openzeppelin/contracts/access/Ownable.sol\":1248:1253  owner */\n      tag_76\n        /* \"@openzeppelin/contracts/access/Ownable.sol\":1248:1255  owner() */\n      jump\t// in\n    tag_180:\n        /* \"@openzeppelin/contracts/access/Ownable.sol\":1248:1271  owner() == _msgSender() */\n      0xffffffffffffffffffffffffffffffffffffffff\n      and\n      eq\n        /* \"@openzeppelin/contracts/access/Ownable.sol\":1240:1308  require(owner() == _msgSender(), \"Ownable: caller is not the owner\") */\n      tag_181\n      jumpi\n      mload(0x40)\n      0x08c379a000000000000000000000000000000000000000000000000000000000\n      dup2\n      mstore\n      0x04\n      add\n      tag_182\n      swap1\n      tag_183\n      jump\t// in\n    tag_182:\n      mload(0x40)\n      dup1\n      swap2\n      sub\n      swap1\n      revert\n    tag_181:\n        /* \"contracts/SyCrowBarter.sol\":8990:9001  IWETH _weth */\n      0x00\n        /* \"contracts/SyCrowBarter.sol\":9010:9014  WETH */\n      0x02\n      0x00\n      swap1\n      sload\n      swap1\n      0x0100\n      exp\n      swap1\n      div\n      0xffffffffffffffffffffffffffffffffffffffff\n      and\n        /* \"contracts/SyCrowBarter.sol\":8990:9015  IWETH _weth = IWETH(WETH) */\n      swap1\n      pop\n        /* \"contracts/SyCrowBarter.sol\":9026:9044  uint256 ethBalance */\n      0x00\n        /* \"contracts/SyCrowBarter.sol\":9047:9052  _weth */\n      dup2\n        /* \"contracts/SyCrowBarter.sol\":9047:9062  _weth.balanceOf */\n      0xffffffffffffffffffffffffffffffffffffffff\n      and\n      0x70a08231\n        /* \"contracts/SyCrowBarter.sol\":9071:9075  this */\n      address\n        /* \"contracts/SyCrowBarter.sol\":9047:9077  _weth.balanceOf(address(this)) */\n      mload(0x40)\n      dup3\n      0xffffffff\n      and\n      0xe0\n      shl\n      dup2\n      mstore\n      0x04\n      add\n      tag_185\n      swap2\n      swap1\n      tag_78\n      jump\t// in\n    tag_185:\n      0x20\n      mload(0x40)\n      dup1\n      dup4\n      sub\n      dup2\n      dup7\n      gas\n      staticcall\n      iszero\n      dup1\n      iszero\n      tag_187\n      jumpi\n      returndatasize\n      0x00\n      dup1\n      returndatacopy\n      revert(0x00, returndatasize)\n    tag_187:\n      pop\n      pop\n      pop\n      pop\n      mload(0x40)\n      returndatasize\n      not(0x1f)\n      0x1f\n      dup3\n      add\n      and\n      dup3\n      add\n      dup1\n      0x40\n      mstore\n      pop\n      dup2\n      add\n      swap1\n      tag_188\n      swap2\n      swap1\n      tag_189\n      jump\t// in\n    tag_188:\n        /* \"contracts/SyCrowBarter.sol\":9026:9077  uint256 ethBalance = _weth.balanceOf(address(this)) */\n      swap1\n      pop\n        /* \"contracts/SyCrowBarter.sol\":9105:9106  0 */\n      0x00\n        /* \"contracts/SyCrowBarter.sol\":9092:9102  ethBalance */\n      dup2\n        /* \"contracts/SyCrowBarter.sol\":9092:9106  ethBalance > 0 */\n      gt\n        /* \"contracts/SyCrowBarter.sol\":9088:9233  if (ethBalance > 0) {... */\n      iszero\n      tag_190\n      jumpi\n        /* \"contracts/SyCrowBarter.sol\":9128:9132  WETH */\n      0x02\n      0x00\n      swap1\n      sload\n      swap1\n      0x0100\n      exp\n      swap1\n      div\n      0xffffffffffffffffffffffffffffffffffffffff\n      and\n        /* \"contracts/SyCrowBarter.sol\":9122:9142  IWETH(WETH).withdraw */\n      0xffffffffffffffffffffffffffffffffffffffff\n      and\n      0x2e1a7d4d\n        /* \"contracts/SyCrowBarter.sol\":9143:9153  ethBalance */\n      dup3\n        /* \"contracts/SyCrowBarter.sol\":9122:9154  IWETH(WETH).withdraw(ethBalance) */\n      mload(0x40)\n      dup3\n      0xffffffff\n      and\n      0xe0\n      shl\n      dup2\n      mstore\n      0x04\n      add\n      tag_191\n      swap2\n      swap1\n      tag_70\n      jump\t// in\n    tag_191:\n      0x00\n      mload(0x40)\n      dup1\n      dup4\n      sub\n      dup2\n      0x00\n      dup8\n      dup1\n      extcodesize\n      iszero\n      dup1\n      iszero\n      tag_192\n      jumpi\n      0x00\n      dup1\n      revert\n    tag_192:\n      pop\n      gas\n      call\n      iszero\n      dup1\n      iszero\n      tag_194\n      jumpi\n      returndatasize\n      0x00\n      dup1\n      returndatacopy\n      revert(0x00, returndatasize)\n    tag_194:\n      pop\n      pop\n      pop\n      pop\n        /* \"contracts/SyCrowBarter.sol\":9168:9222  TransferHelper.safeTransferETH(msg.sender, ethBalance) */\n      tag_195\n        /* \"contracts/SyCrowBarter.sol\":9199:9209  msg.sender */\n      caller\n        /* \"contracts/SyCrowBarter.sol\":9211:9221  ethBalance */\n      dup3\n        /* \"contracts/SyCrowBarter.sol\":9168:9198  TransferHelper.safeTransferETH */\n      tag_196\n        /* \"contracts/SyCrowBarter.sol\":9168:9222  TransferHelper.safeTransferETH(msg.sender, ethBalance) */\n      jump\t// in\n    tag_195:\n        /* \"contracts/SyCrowBarter.sol\":9088:9233  if (ethBalance > 0) {... */\n    tag_190:\n        /* \"contracts/SyCrowBarter.sol\":9243:9271  uint256 expectedTokenBalance */\n      0x00\n        /* \"contracts/SyCrowBarter.sol\":9281:9302  _expectedTokenAddress */\n      0x05\n      0x00\n      swap1\n      sload\n      swap1\n      0x0100\n      exp\n      swap1\n      div\n      0xffffffffffffffffffffffffffffffffffffffff\n      and\n        /* \"contracts/SyCrowBarter.sol\":9274:9313  IERC20(_expectedTokenAddress).balanceOf */\n      0xffffffffffffffffffffffffffffffffffffffff\n      and\n      0x70a08231\n        /* \"contracts/SyCrowBarter.sol\":9335:9339  this */\n      address\n        /* \"contracts/SyCrowBarter.sol\":9274:9350  IERC20(_expectedTokenAddress).balanceOf(... */\n      mload(0x40)\n      dup3\n      0xffffffff\n      and\n      0xe0\n      shl\n      dup2\n      mstore\n      0x04\n      add\n      tag_197\n      swap2\n      swap1\n      tag_78\n      jump\t// in\n    tag_197:\n      0x20\n      mload(0x40)\n      dup1\n      dup4\n      sub\n      dup2\n      dup7\n      gas\n      staticcall\n      iszero\n      dup1\n      iszero\n      tag_199\n      jumpi\n      returndatasize\n      0x00\n      dup1\n      returndatacopy\n      revert(0x00, returndatasize)\n    tag_199:\n      pop\n      pop\n      pop\n      pop\n      mload(0x40)\n      returndatasize\n      not(0x1f)\n      0x1f\n      dup3\n      add\n      and\n      dup3\n      add\n      dup1\n      0x40\n      mstore\n      pop\n      dup2\n      add\n      swap1\n      tag_200\n      swap2\n      swap1\n      tag_189\n      jump\t// in\n    tag_200:\n        /* \"contracts/SyCrowBarter.sol\":9243:9350  uint256 expectedTokenBalance = IERC20(_expectedTokenAddress).balanceOf(... */\n      swap1\n      pop\n        /* \"contracts/SyCrowBarter.sol\":9388:9389  0 */\n      0x00\n        /* \"contracts/SyCrowBarter.sol\":9365:9385  expectedTokenBalance */\n      dup2\n        /* \"contracts/SyCrowBarter.sol\":9365:9389  expectedTokenBalance > 0 */\n      gt\n        /* \"contracts/SyCrowBarter.sol\":9361:9562  if (expectedTokenBalance > 0) {... */\n      iszero\n      tag_201\n      jumpi\n        /* \"contracts/SyCrowBarter.sol\":9405:9551  TransferHelper.safeTransfer(... */\n      tag_202\n        /* \"contracts/SyCrowBarter.sol\":9450:9471  _expectedTokenAddress */\n      0x05\n      0x00\n      swap1\n      sload\n      swap1\n      0x0100\n      exp\n      swap1\n      div\n      0xffffffffffffffffffffffffffffffffffffffff\n      and\n        /* \"contracts/SyCrowBarter.sol\":9489:9499  msg.sender */\n      caller\n        /* \"contracts/SyCrowBarter.sol\":9517:9537  expectedTokenBalance */\n      dup4\n        /* \"contracts/SyCrowBarter.sol\":9405:9432  TransferHelper.safeTransfer */\n      tag_203\n        /* \"contracts/SyCrowBarter.sol\":9405:9551  TransferHelper.safeTransfer(... */\n      jump\t// in\n    tag_202:\n        /* \"contracts/SyCrowBarter.sol\":9361:9562  if (expectedTokenBalance > 0) {... */\n    tag_201:\n        /* \"contracts/SyCrowBarter.sol\":9572:9601  uint256 depositedTokenBalance */\n      0x00\n        /* \"contracts/SyCrowBarter.sol\":9611:9633  _depositedTokenAddress */\n      0x04\n      0x01\n      swap1\n      sload\n      swap1\n      0x0100\n      exp\n      swap1\n      div\n      0xffffffffffffffffffffffffffffffffffffffff\n      and\n        /* \"contracts/SyCrowBarter.sol\":9604:9657  IERC20(_depositedTokenAddress)... */\n      0xffffffffffffffffffffffffffffffffffffffff\n      and\n      0x70a08231\n        /* \"contracts/SyCrowBarter.sol\":9666:9670  this */\n      address\n        /* \"contracts/SyCrowBarter.sol\":9604:9672  IERC20(_depositedTokenAddress)... */\n      mload(0x40)\n      dup3\n      0xffffffff\n      and\n      0xe0\n      shl\n      dup2\n      mstore\n      0x04\n      add\n      tag_204\n      swap2\n      swap1\n      tag_78\n      jump\t// in\n    tag_204:\n      0x20\n      mload(0x40)\n      dup1\n      dup4\n      sub\n      dup2\n      dup7\n      gas\n      staticcall\n      iszero\n      dup1\n      iszero\n      tag_206\n      jumpi\n      returndatasize\n      0x00\n      dup1\n      returndatacopy\n      revert(0x00, returndatasize)\n    tag_206:\n      pop\n      pop\n      pop\n      pop\n      mload(0x40)\n      returndatasize\n      not(0x1f)\n      0x1f\n      dup3\n      add\n      and\n      dup3\n      add\n      dup1\n      0x40\n      mstore\n      pop\n      dup2\n      add\n      swap1\n      tag_207\n      swap2\n      swap1\n      tag_189\n      jump\t// in\n    tag_207:\n        /* \"contracts/SyCrowBarter.sol\":9572:9672  uint256 depositedTokenBalance = IERC20(_depositedTokenAddress)... */\n      swap1\n      pop\n        /* \"contracts/SyCrowBarter.sol\":9711:9712  0 */\n      0x00\n        /* \"contracts/SyCrowBarter.sol\":9687:9708  depositedTokenBalance */\n      dup2\n        /* \"contracts/SyCrowBarter.sol\":9687:9712  depositedTokenBalance > 0 */\n      gt\n        /* \"contracts/SyCrowBarter.sol\":9683:9887  if (depositedTokenBalance > 0) {... */\n      iszero\n      tag_208\n      jumpi\n        /* \"contracts/SyCrowBarter.sol\":9728:9876  TransferHelper.safeTransfer(... */\n      tag_209\n        /* \"contracts/SyCrowBarter.sol\":9773:9795  _depositedTokenAddress */\n      0x04\n      0x01\n      swap1\n      sload\n      swap1\n      0x0100\n      exp\n      swap1\n      div\n      0xffffffffffffffffffffffffffffffffffffffff\n      and\n        /* \"contracts/SyCrowBarter.sol\":9813:9823  msg.sender */\n      caller\n        /* \"contracts/SyCrowBarter.sol\":9841:9862  depositedTokenBalance */\n      dup4\n        /* \"contracts/SyCrowBarter.sol\":9728:9755  TransferHelper.safeTransfer */\n      tag_203\n        /* \"contracts/SyCrowBarter.sol\":9728:9876  TransferHelper.safeTransfer(... */\n      jump\t// in\n    tag_209:\n        /* \"contracts/SyCrowBarter.sol\":9683:9887  if (depositedTokenBalance > 0) {... */\n    tag_208:\n        /* \"contracts/SyCrowBarter.sol\":9896:9910  uint256 value1 */\n      0x00\n        /* \"contracts/SyCrowBarter.sol\":9924:9938  uint256 value2 */\n      dup1\n        /* \"contracts/SyCrowBarter.sol\":9972:10003  ISyCrowBarterType.ETH_FOR_TOKEN */\n      0x00\n        /* \"contracts/SyCrowBarter.sol\":9957:10003  _barterType == ISyCrowBarterType.ETH_FOR_TOKEN */\n      0x02\n      dup2\n      gt\n      iszero\n      tag_210\n      jumpi\n      tag_211\n      tag_134\n      jump\t// in\n    tag_211:\n    tag_210:\n        /* \"contracts/SyCrowBarter.sol\":9957:9968  _barterType */\n      0x08\n      0x01\n      swap1\n      sload\n      swap1\n      0x0100\n      exp\n      swap1\n      div\n      0xff\n      and\n        /* \"contracts/SyCrowBarter.sol\":9957:10003  _barterType == ISyCrowBarterType.ETH_FOR_TOKEN */\n      0x02\n      dup2\n      gt\n      iszero\n      tag_212\n      jumpi\n      tag_213\n      tag_134\n      jump\t// in\n    tag_213:\n    tag_212:\n      sub\n        /* \"contracts/SyCrowBarter.sol\":9953:10344  if (_barterType == ISyCrowBarterType.ETH_FOR_TOKEN) {... */\n      tag_214\n      jumpi\n        /* \"contracts/SyCrowBarter.sol\":10028:10038  ethBalance */\n      dup5\n        /* \"contracts/SyCrowBarter.sol\":10019:10038  value1 = ethBalance */\n      swap2\n      pop\n        /* \"contracts/SyCrowBarter.sol\":10061:10081  expectedTokenBalance */\n      dup4\n        /* \"contracts/SyCrowBarter.sol\":10052:10081  value2 = expectedTokenBalance */\n      swap1\n      pop\n        /* \"contracts/SyCrowBarter.sol\":9953:10344  if (_barterType == ISyCrowBarterType.ETH_FOR_TOKEN) {... */\n      jump(tag_215)\n    tag_214:\n        /* \"contracts/SyCrowBarter.sol\":10117:10150  ISyCrowBarterType.TOKEN_FOR_TOKEN */\n      0x02\n        /* \"contracts/SyCrowBarter.sol\":10102:10150  _barterType == ISyCrowBarterType.TOKEN_FOR_TOKEN */\n      dup1\n      dup2\n      gt\n      iszero\n      tag_216\n      jumpi\n      tag_217\n      tag_134\n      jump\t// in\n    tag_217:\n    tag_216:\n        /* \"contracts/SyCrowBarter.sol\":10102:10113  _barterType */\n      0x08\n      0x01\n      swap1\n      sload\n      swap1\n      0x0100\n      exp\n      swap1\n      div\n      0xff\n      and\n        /* \"contracts/SyCrowBarter.sol\":10102:10150  _barterType == ISyCrowBarterType.TOKEN_FOR_TOKEN */\n      0x02\n      dup2\n      gt\n      iszero\n      tag_218\n      jumpi\n      tag_219\n      tag_134\n      jump\t// in\n    tag_219:\n    tag_218:\n      sub\n        /* \"contracts/SyCrowBarter.sol\":10098:10344  if (_barterType == ISyCrowBarterType.TOKEN_FOR_TOKEN) {... */\n      tag_220\n      jumpi\n        /* \"contracts/SyCrowBarter.sol\":10175:10196  depositedTokenBalance */\n      dup3\n        /* \"contracts/SyCrowBarter.sol\":10166:10196  value1 = depositedTokenBalance */\n      swap2\n      pop\n        /* \"contracts/SyCrowBarter.sol\":10219:10239  expectedTokenBalance */\n      dup4\n        /* \"contracts/SyCrowBarter.sol\":10210:10239  value2 = expectedTokenBalance */\n      swap1\n      pop\n        /* \"contracts/SyCrowBarter.sol\":10098:10344  if (_barterType == ISyCrowBarterType.TOKEN_FOR_TOKEN) {... */\n      jump(tag_221)\n    tag_220:\n        /* \"contracts/SyCrowBarter.sol\":10279:10300  depositedTokenBalance */\n      dup3\n        /* \"contracts/SyCrowBarter.sol\":10270:10300  value1 = depositedTokenBalance */\n      swap2\n      pop\n        /* \"contracts/SyCrowBarter.sol\":10323:10333  ethBalance */\n      dup5\n        /* \"contracts/SyCrowBarter.sol\":10314:10333  value2 = ethBalance */\n      swap1\n      pop\n        /* \"contracts/SyCrowBarter.sol\":10098:10344  if (_barterType == ISyCrowBarterType.TOKEN_FOR_TOKEN) {... */\n    tag_221:\n        /* \"contracts/SyCrowBarter.sol\":9953:10344  if (_barterType == ISyCrowBarterType.ETH_FOR_TOKEN) {... */\n    tag_215:\n        /* \"contracts/SyCrowBarter.sol\":10354:10386  ISyCrowBarterFactory sycrFactory */\n      0x00\n        /* \"contracts/SyCrowBarter.sol\":10410:10417  factory */\n      immutable(\"0x26a975632f70533c9512e57b565b8ce8e2befee6b08dfbc27c4a897a20e2c1d6\")\n        /* \"contracts/SyCrowBarter.sol\":10354:10418  ISyCrowBarterFactory sycrFactory = ISyCrowBarterFactory(factory) */\n      swap1\n      pop\n        /* \"contracts/SyCrowBarter.sol\":10437:10448  sycrFactory */\n      dup1\n        /* \"contracts/SyCrowBarter.sol\":10437:10473  sycrFactory.notifyWithdrawFromBarter */\n      0xffffffffffffffffffffffffffffffffffffffff\n      and\n      0x33796a0e\n        /* \"contracts/SyCrowBarter.sol\":10495:10499  this */\n      address\n        /* \"contracts/SyCrowBarter.sol\":10514:10524  msg.sender */\n      caller\n        /* \"contracts/SyCrowBarter.sol\":10538:10544  value1 */\n      dup7\n        /* \"contracts/SyCrowBarter.sol\":10558:10564  value2 */\n      dup7\n        /* \"contracts/SyCrowBarter.sol\":10437:10574  sycrFactory.notifyWithdrawFromBarter(... */\n      mload(0x40)\n      dup6\n      0xffffffff\n      and\n      0xe0\n      shl\n      dup2\n      mstore\n      0x04\n      add\n      tag_222\n      swap5\n      swap4\n      swap3\n      swap2\n      swap1\n      tag_223\n      jump\t// in\n    tag_222:\n      0x00\n      mload(0x40)\n      dup1\n      dup4\n      sub\n      dup2\n      0x00\n      dup8\n      dup1\n      extcodesize\n      iszero\n      dup1\n      iszero\n      tag_224\n      jumpi\n      0x00\n      dup1\n      revert\n    tag_224:\n      pop\n      gas\n      call\n      iszero\n      dup1\n      iszero\n      tag_226\n      jumpi\n      returndatasize\n      0x00\n      dup1\n      returndatacopy\n      revert(0x00, returndatasize)\n    tag_226:\n      pop\n      pop\n      pop\n      pop\n        /* \"contracts/SyCrowBarter.sol\":10606:10616  msg.sender */\n      caller\n        /* \"contracts/SyCrowBarter.sol\":10585:10618  selfdestruct(payable(msg.sender)) */\n      0xffffffffffffffffffffffffffffffffffffffff\n      and\n      selfdestruct\n        /* \"contracts/SyCrowBarter.sol\":2972:3159  function getAmounts()... */\n    tag_44:\n        /* \"contracts/SyCrowBarter.sol\":3078:3085  uint256 */\n      0x00\n        /* \"contracts/SyCrowBarter.sol\":3087:3094  uint256 */\n      dup1\n        /* \"contracts/SyCrowBarter.sol\":1486:1498  _initialized */\n      0x04\n      0x00\n      swap1\n      sload\n      swap1\n      0x0100\n      exp\n      swap1\n      div\n      0xff\n      and\n        /* \"contracts/SyCrowBarter.sol\":1478:1532  require(_initialized, \"SyCrowBarter: NOT_INITIALIZED\") */\n      tag_228\n      jumpi\n      mload(0x40)\n      0x08c379a000000000000000000000000000000000000000000000000000000000\n      dup2\n      mstore\n      0x04\n      add\n      tag_229\n      swap1\n      tag_118\n      jump\t// in\n    tag_229:\n      mload(0x40)\n      dup1\n      swap2\n      sub\n      swap1\n      revert\n    tag_228:\n        /* \"contracts/SyCrowBarter.sol\":3118:3134  _depositedAmount */\n      sload(0x06)\n        /* \"contracts/SyCrowBarter.sol\":3136:3151  _expectedAmount */\n      sload(0x07)\n        /* \"contracts/SyCrowBarter.sol\":3110:3152  return (_depositedAmount, _expectedAmount) */\n      swap2\n      pop\n      swap2\n      pop\n        /* \"contracts/SyCrowBarter.sol\":2972:3159  function getAmounts()... */\n      swap1\n      swap2\n      jump\t// out\n        /* \"contracts/SyCrowBarter.sol\":4949:5234  function tradeEthForToken(uint256 inAmount)... */\n    tag_49:\n        /* \"contracts/SyCrowBarter.sol\":968:983  block.timestamp */\n      timestamp\n        /* \"contracts/SyCrowBarter.sol\":955:964  _deadline */\n      sload(0x03)\n        /* \"contracts/SyCrowBarter.sol\":955:983  _deadline >= block.timestamp */\n      lt\n      iszero\n        /* \"contracts/SyCrowBarter.sol\":955:1021  _deadline >= block.timestamp && totalTradeAmount < _expectedAmount */\n      dup1\n      iszero\n      tag_232\n      jumpi\n      pop\n        /* \"contracts/SyCrowBarter.sol\":1006:1021  _expectedAmount */\n      sload(0x07)\n        /* \"contracts/SyCrowBarter.sol\":987:1003  totalTradeAmount */\n      sload(0x01)\n        /* \"contracts/SyCrowBarter.sol\":987:1021  totalTradeAmount < _expectedAmount */\n      lt\n        /* \"contracts/SyCrowBarter.sol\":955:1021  _deadline >= block.timestamp && totalTradeAmount < _expectedAmount */\n    tag_232:\n        /* \"contracts/SyCrowBarter.sol\":934:1069  require(... */\n      tag_233\n      jumpi\n      mload(0x40)\n      0x08c379a000000000000000000000000000000000000000000000000000000000\n      dup2\n      mstore\n      0x04\n      add\n      tag_234\n      swap1\n      tag_114\n      jump\t// in\n    tag_234:\n      mload(0x40)\n      dup1\n      swap2\n      sub\n      swap1\n      revert\n    tag_233:\n        /* \"contracts/SyCrowBarter.sol\":1486:1498  _initialized */\n      0x04\n      0x00\n      swap1\n      sload\n      swap1\n      0x0100\n      exp\n      swap1\n      div\n      0xff\n      and\n        /* \"contracts/SyCrowBarter.sol\":1478:1532  require(_initialized, \"SyCrowBarter: NOT_INITIALIZED\") */\n      tag_236\n      jumpi\n      mload(0x40)\n      0x08c379a000000000000000000000000000000000000000000000000000000000\n      dup2\n      mstore\n      0x04\n      add\n      tag_237\n      swap1\n      tag_118\n      jump\t// in\n    tag_237:\n      mload(0x40)\n      dup1\n      swap2\n      sub\n      swap1\n      revert\n    tag_236:\n        /* \"contracts/SyCrowBarter.sol\":1719:1752  ISyCrowBarterFactory isycrFactory */\n      0x00\n        /* \"contracts/SyCrowBarter.sol\":1776:1783  factory */\n      immutable(\"0x26a975632f70533c9512e57b565b8ce8e2befee6b08dfbc27c4a897a20e2c1d6\")\n        /* \"contracts/SyCrowBarter.sol\":1719:1784  ISyCrowBarterFactory isycrFactory = ISyCrowBarterFactory(factory) */\n      swap1\n      pop\n        /* \"contracts/SyCrowBarter.sol\":1803:1815  isycrFactory */\n      dup1\n        /* \"contracts/SyCrowBarter.sol\":1803:1824  isycrFactory.isPaused */\n      0xffffffffffffffffffffffffffffffffffffffff\n      and\n      0xb187bd26\n        /* \"contracts/SyCrowBarter.sol\":1803:1826  isycrFactory.isPaused() */\n      mload(0x40)\n      dup2\n      0xffffffff\n      and\n      0xe0\n      shl\n      dup2\n      mstore\n      0x04\n      add\n      0x20\n      mload(0x40)\n      dup1\n      dup4\n      sub\n      dup2\n      dup7\n      gas\n      staticcall\n      iszero\n      dup1\n      iszero\n      tag_240\n      jumpi\n      returndatasize\n      0x00\n      dup1\n      returndatacopy\n      revert(0x00, returndatasize)\n    tag_240:\n      pop\n      pop\n      pop\n      pop\n      mload(0x40)\n      returndatasize\n      not(0x1f)\n      0x1f\n      dup3\n      add\n      and\n      dup3\n      add\n      dup1\n      0x40\n      mstore\n      pop\n      dup2\n      add\n      swap1\n      tag_241\n      swap2\n      swap1\n      tag_123\n      jump\t// in\n    tag_241:\n        /* \"contracts/SyCrowBarter.sol\":1802:1826  !isycrFactory.isPaused() */\n      iszero\n        /* \"contracts/SyCrowBarter.sol\":1794:1865  require(!isycrFactory.isPaused(), \"SyCrowBarter: Base Contract Paused\") */\n      tag_242\n      jumpi\n      mload(0x40)\n      0x08c379a000000000000000000000000000000000000000000000000000000000\n      dup2\n      mstore\n      0x04\n      add\n      tag_243\n      swap1\n      tag_126\n      jump\t// in\n    tag_243:\n      mload(0x40)\n      dup1\n      swap2\n      sub\n      swap1\n      revert\n    tag_242:\n        /* \"contracts/SyCrowBarter.sol\":1603:1620  _allowMultiBarter */\n      0x08\n      0x00\n      swap1\n      sload\n      swap1\n      0x0100\n      exp\n      swap1\n      div\n      0xff\n      and\n        /* \"contracts/SyCrowBarter.sol\":1595:1662  require(_allowMultiBarter, \"SyCrowBarter: MULTI_TRADE_NOT_ENABLED\") */\n      tag_245\n      jumpi\n      mload(0x40)\n      0x08c379a000000000000000000000000000000000000000000000000000000000\n      dup2\n      mstore\n      0x04\n      add\n      tag_246\n      swap1\n      tag_130\n      jump\t// in\n    tag_246:\n      mload(0x40)\n      dup1\n      swap2\n      sub\n      swap1\n      revert\n    tag_245:\n        /* \"contracts/SyCrowBarter.sol\":5153:5184  ISyCrowBarterType.TOKEN_FOR_ETH */\n      0x01\n        /* \"contracts/SyCrowBarter.sol\":1180:1191  _barterType */\n      0x08\n      0x01\n      swap1\n      sload\n      swap1\n      0x0100\n      exp\n      swap1\n      div\n      0xff\n      and\n        /* \"contracts/SyCrowBarter.sol\":1166:1191  barterType == _barterType */\n      0x02\n      dup2\n      gt\n      iszero\n      tag_248\n      jumpi\n      tag_249\n      tag_134\n      jump\t// in\n    tag_249:\n    tag_248:\n        /* \"contracts/SyCrowBarter.sol\":1166:1176  barterType */\n      dup2\n        /* \"contracts/SyCrowBarter.sol\":1166:1191  barterType == _barterType */\n      0x02\n      dup2\n      gt\n      iszero\n      tag_250\n      jumpi\n      tag_251\n      tag_134\n      jump\t// in\n    tag_251:\n    tag_250:\n      eq\n        /* \"contracts/SyCrowBarter.sol\":1158:1229  require(barterType == _barterType, \"SyCrowBarter: INVALID_BARTER_TYPE\") */\n      tag_252\n      jumpi\n      mload(0x40)\n      0x08c379a000000000000000000000000000000000000000000000000000000000\n      dup2\n      mstore\n      0x04\n      add\n      tag_253\n      swap1\n      tag_139\n      jump\t// in\n    tag_253:\n      mload(0x40)\n      dup1\n      swap2\n      sub\n      swap1\n      revert\n    tag_252:\n        /* \"contracts/SyCrowBarter.sol\":5200:5227  _tradeEthForToken(inAmount) */\n      tag_255\n        /* \"contracts/SyCrowBarter.sol\":5218:5226  inAmount */\n      dup4\n        /* \"contracts/SyCrowBarter.sol\":5200:5217  _tradeEthForToken */\n      tag_256\n        /* \"contracts/SyCrowBarter.sol\":5200:5227  _tradeEthForToken(inAmount) */\n      jump\t// in\n    tag_255:\n        /* \"contracts/SyCrowBarter.sol\":1672:1673  _ */\n      pop\n        /* \"contracts/SyCrowBarter.sol\":1709:1883  {... */\n      pop\n        /* \"contracts/SyCrowBarter.sol\":4949:5234  function tradeEthForToken(uint256 inAmount)... */\n      pop\n      jump\t// out\n        /* \"contracts/SyCrowBarter.sol\":3528:3695  function getBarterType()... */\n    tag_52:\n        /* \"contracts/SyCrowBarter.sol\":3637:3654  ISyCrowBarterType */\n      0x00\n        /* \"contracts/SyCrowBarter.sol\":1486:1498  _initialized */\n      0x04\n      0x00\n      swap1\n      sload\n      swap1\n      0x0100\n      exp\n      swap1\n      div\n      0xff\n      and\n        /* \"contracts/SyCrowBarter.sol\":1478:1532  require(_initialized, \"SyCrowBarter: NOT_INITIALIZED\") */\n      tag_258\n      jumpi\n      mload(0x40)\n      0x08c379a000000000000000000000000000000000000000000000000000000000\n      dup2\n      mstore\n      0x04\n      add\n      tag_259\n      swap1\n      tag_118\n      jump\t// in\n    tag_259:\n      mload(0x40)\n      dup1\n      swap2\n      sub\n      swap1\n      revert\n    tag_258:\n        /* \"contracts/SyCrowBarter.sol\":3677:3688  _barterType */\n      0x08\n      0x01\n      swap1\n      sload\n      swap1\n      0x0100\n      exp\n      swap1\n      div\n      0xff\n      and\n        /* \"contracts/SyCrowBarter.sol\":3670:3688  return _barterType */\n      swap1\n      pop\n        /* \"contracts/SyCrowBarter.sol\":3528:3695  function getBarterType()... */\n      swap1\n      jump\t// out\n        /* \"contracts/SyCrowBarter.sol\":10631:11308  function withdraw(address _erc20TokenAddress)... */\n    tag_59:\n        /* \"@openzeppelin/contracts/access/Ownable.sol\":1259:1271  _msgSender() */\n      tag_262\n        /* \"@openzeppelin/contracts/access/Ownable.sol\":1259:1269  _msgSender */\n      tag_179\n        /* \"@openzeppelin/contracts/access/Ownable.sol\":1259:1271  _msgSender() */\n      jump\t// in\n    tag_262:\n        /* \"@openzeppelin/contracts/access/Ownable.sol\":1248:1271  owner() == _msgSender() */\n      0xffffffffffffffffffffffffffffffffffffffff\n      and\n        /* \"@openzeppelin/contracts/access/Ownable.sol\":1248:1255  owner() */\n      tag_263\n        /* \"@openzeppelin/contracts/access/Ownable.sol\":1248:1253  owner */\n      tag_76\n        /* \"@openzeppelin/contracts/access/Ownable.sol\":1248:1255  owner() */\n      jump\t// in\n    tag_263:\n        /* \"@openzeppelin/contracts/access/Ownable.sol\":1248:1271  owner() == _msgSender() */\n      0xffffffffffffffffffffffffffffffffffffffff\n      and\n      eq\n        /* \"@openzeppelin/contracts/access/Ownable.sol\":1240:1308  require(owner() == _msgSender(), \"Ownable: caller is not the owner\") */\n      tag_264\n      jumpi\n      mload(0x40)\n      0x08c379a000000000000000000000000000000000000000000000000000000000\n      dup2\n      mstore\n      0x04\n      add\n      tag_265\n      swap1\n      tag_183\n      jump\t// in\n    tag_265:\n      mload(0x40)\n      dup1\n      swap2\n      sub\n      swap1\n      revert\n    tag_264:\n        /* \"contracts/SyCrowBarter.sol\":1486:1498  _initialized */\n      0x04\n      0x00\n      swap1\n      sload\n      swap1\n      0x0100\n      exp\n      swap1\n      div\n      0xff\n      and\n        /* \"contracts/SyCrowBarter.sol\":1478:1532  require(_initialized, \"SyCrowBarter: NOT_INITIALIZED\") */\n      tag_267\n      jumpi\n      mload(0x40)\n      0x08c379a000000000000000000000000000000000000000000000000000000000\n      dup2\n      mstore\n      0x04\n      add\n      tag_268\n      swap1\n      tag_118\n      jump\t// in\n    tag_268:\n      mload(0x40)\n      dup1\n      swap2\n      sub\n      swap1\n      revert\n    tag_267:\n        /* \"contracts/SyCrowBarter.sol\":10789:10810  _expectedTokenAddress */\n      0x05\n      0x00\n      swap1\n      sload\n      swap1\n      0x0100\n      exp\n      swap1\n      div\n      0xffffffffffffffffffffffffffffffffffffffff\n      and\n        /* \"contracts/SyCrowBarter.sol\":10767:10810  _erc20TokenAddress != _expectedTokenAddress */\n      0xffffffffffffffffffffffffffffffffffffffff\n      and\n        /* \"contracts/SyCrowBarter.sol\":10767:10785  _erc20TokenAddress */\n      dup2\n        /* \"contracts/SyCrowBarter.sol\":10767:10810  _erc20TokenAddress != _expectedTokenAddress */\n      0xffffffffffffffffffffffffffffffffffffffff\n      and\n      sub\n        /* \"contracts/SyCrowBarter.sol\":10746:10859  require(... */\n      tag_270\n      jumpi\n      mload(0x40)\n      0x08c379a000000000000000000000000000000000000000000000000000000000\n      dup2\n      mstore\n      0x04\n      add\n      tag_271\n      swap1\n      tag_272\n      jump\t// in\n    tag_271:\n      mload(0x40)\n      dup1\n      swap2\n      sub\n      swap1\n      revert\n    tag_270:\n        /* \"contracts/SyCrowBarter.sol\":10912:10934  _depositedTokenAddress */\n      0x04\n      0x01\n      swap1\n      sload\n      swap1\n      0x0100\n      exp\n      swap1\n      div\n      0xffffffffffffffffffffffffffffffffffffffff\n      and\n        /* \"contracts/SyCrowBarter.sol\":10890:10934  _erc20TokenAddress != _depositedTokenAddress */\n      0xffffffffffffffffffffffffffffffffffffffff\n      and\n        /* \"contracts/SyCrowBarter.sol\":10890:10908  _erc20TokenAddress */\n      dup2\n        /* \"contracts/SyCrowBarter.sol\":10890:10934  _erc20TokenAddress != _depositedTokenAddress */\n      0xffffffffffffffffffffffffffffffffffffffff\n      and\n      sub\n        /* \"contracts/SyCrowBarter.sol\":10869:10983  require(... */\n      tag_273\n      jumpi\n      mload(0x40)\n      0x08c379a000000000000000000000000000000000000000000000000000000000\n      dup2\n      mstore\n      0x04\n      add\n      tag_274\n      swap1\n      tag_272\n      jump\t// in\n    tag_274:\n      mload(0x40)\n      dup1\n      swap2\n      sub\n      swap1\n      revert\n    tag_273:\n        /* \"contracts/SyCrowBarter.sol\":10994:11019  uint256 erc20TokenBalance */\n      0x00\n        /* \"contracts/SyCrowBarter.sol\":11029:11047  _erc20TokenAddress */\n      dup2\n        /* \"contracts/SyCrowBarter.sol\":11022:11058  IERC20(_erc20TokenAddress).balanceOf */\n      0xffffffffffffffffffffffffffffffffffffffff\n      and\n      0x70a08231\n        /* \"contracts/SyCrowBarter.sol\":11080:11084  this */\n      address\n        /* \"contracts/SyCrowBarter.sol\":11022:11095  IERC20(_erc20TokenAddress).balanceOf(... */\n      mload(0x40)\n      dup3\n      0xffffffff\n      and\n      0xe0\n      shl\n      dup2\n      mstore\n      0x04\n      add\n      tag_275\n      swap2\n      swap1\n      tag_78\n      jump\t// in\n    tag_275:\n      0x20\n      mload(0x40)\n      dup1\n      dup4\n      sub\n      dup2\n      dup7\n      gas\n      staticcall\n      iszero\n      dup1\n      iszero\n      tag_277\n      jumpi\n      returndatasize\n      0x00\n      dup1\n      returndatacopy\n      revert(0x00, returndatasize)\n    tag_277:\n      pop\n      pop\n      pop\n      pop\n      mload(0x40)\n      returndatasize\n      not(0x1f)\n      0x1f\n      dup3\n      add\n      and\n      dup3\n      add\n      dup1\n      0x40\n      mstore\n      pop\n      dup2\n      add\n      swap1\n      tag_278\n      swap2\n      swap1\n      tag_189\n      jump\t// in\n    tag_278:\n        /* \"contracts/SyCrowBarter.sol\":10994:11095  uint256 erc20TokenBalance = IERC20(_erc20TokenAddress).balanceOf(... */\n      swap1\n      pop\n        /* \"contracts/SyCrowBarter.sol\":11130:11131  0 */\n      0x00\n        /* \"contracts/SyCrowBarter.sol\":11110:11127  erc20TokenBalance */\n      dup2\n        /* \"contracts/SyCrowBarter.sol\":11110:11131  erc20TokenBalance > 0 */\n      gt\n        /* \"contracts/SyCrowBarter.sol\":11106:11302  if (erc20TokenBalance > 0) {... */\n      iszero\n      tag_279\n      jumpi\n        /* \"contracts/SyCrowBarter.sol\":11147:11291  TransferHelper.safeTransfer(... */\n      tag_280\n        /* \"contracts/SyCrowBarter.sol\":11192:11214  _depositedTokenAddress */\n      0x04\n      0x01\n      swap1\n      sload\n      swap1\n      0x0100\n      exp\n      swap1\n      div\n      0xffffffffffffffffffffffffffffffffffffffff\n      and\n        /* \"contracts/SyCrowBarter.sol\":11232:11242  msg.sender */\n      caller\n        /* \"contracts/SyCrowBarter.sol\":11260:11277  erc20TokenBalance */\n      dup4\n        /* \"contracts/SyCrowBarter.sol\":11147:11174  TransferHelper.safeTransfer */\n      tag_203\n        /* \"contracts/SyCrowBarter.sol\":11147:11291  TransferHelper.safeTransfer(... */\n      jump\t// in\n    tag_280:\n        /* \"contracts/SyCrowBarter.sol\":11106:11302  if (erc20TokenBalance > 0) {... */\n    tag_279:\n        /* \"contracts/SyCrowBarter.sol\":10736:11308  {... */\n      pop\n        /* \"contracts/SyCrowBarter.sol\":10631:11308  function withdraw(address _erc20TokenAddress)... */\n      pop\n      jump\t// out\n        /* \"contracts/SyCrowBarter.sol\":1946:2966  function initialize(... */\n    tag_64:\n        /* \"contracts/SyCrowBarter.sol\":2224:2228  bool */\n      0x00\n        /* \"contracts/SyCrowBarter.sol\":2262:2269  factory */\n      immutable(\"0x26a975632f70533c9512e57b565b8ce8e2befee6b08dfbc27c4a897a20e2c1d6\")\n        /* \"contracts/SyCrowBarter.sol\":2248:2269  msg.sender == factory */\n      0xffffffffffffffffffffffffffffffffffffffff\n      and\n        /* \"contracts/SyCrowBarter.sol\":2248:2258  msg.sender */\n      caller\n        /* \"contracts/SyCrowBarter.sol\":2248:2269  msg.sender == factory */\n      0xffffffffffffffffffffffffffffffffffffffff\n      and\n      eq\n        /* \"contracts/SyCrowBarter.sol\":2240:2297  require(msg.sender == factory, \"SyCrowBarter: FORBIDDEN\") */\n      tag_282\n      jumpi\n      mload(0x40)\n      0x08c379a000000000000000000000000000000000000000000000000000000000\n      dup2\n      mstore\n      0x04\n      add\n      tag_283\n      swap1\n      tag_272\n      jump\t// in\n    tag_283:\n      mload(0x40)\n      dup1\n      swap2\n      sub\n      swap1\n      revert\n    tag_282:\n        /* \"contracts/SyCrowBarter.sol\":2317:2329  _initialized */\n      0x04\n      0x00\n      swap1\n      sload\n      swap1\n      0x0100\n      exp\n      swap1\n      div\n      0xff\n      and\n        /* \"contracts/SyCrowBarter.sol\":2316:2329  !_initialized */\n      iszero\n        /* \"contracts/SyCrowBarter.sol\":2308:2367  require(!_initialized, \"SyCrowBarter: ALREADY_INITIALIZED\") */\n      tag_284\n      jumpi\n      mload(0x40)\n      0x08c379a000000000000000000000000000000000000000000000000000000000\n      dup2\n      mstore\n      0x04\n      add\n      tag_285\n      swap1\n      tag_286\n      jump\t// in\n    tag_285:\n      mload(0x40)\n      dup1\n      swap2\n      sub\n      swap1\n      revert\n    tag_284:\n        /* \"contracts/SyCrowBarter.sol\":2396:2411  block.timestamp */\n      timestamp\n        /* \"contracts/SyCrowBarter.sol\":2385:2393  deadline */\n      dup5\n        /* \"contracts/SyCrowBarter.sol\":2385:2411  deadline < block.timestamp */\n      lt\n        /* \"contracts/SyCrowBarter.sol\":2377:2443  require(deadline < block.timestamp, \"SyCrowBarter: PAST_DEADLINE\") */\n      tag_287\n      jumpi\n      mload(0x40)\n      0x08c379a000000000000000000000000000000000000000000000000000000000\n      dup2\n      mstore\n      0x04\n      add\n      tag_288\n      swap1\n      tag_289\n      jump\t// in\n    tag_288:\n      mload(0x40)\n      dup1\n      swap2\n      sub\n      swap1\n      revert\n    tag_287:\n        /* \"contracts/SyCrowBarter.sol\":2519:2534  amountDeposited */\n      dup6\n        /* \"contracts/SyCrowBarter.sol\":2482:2489  inToken */\n      dup9\n        /* \"contracts/SyCrowBarter.sol\":2475:2500  IERC20(inToken).balanceOf */\n      0xffffffffffffffffffffffffffffffffffffffff\n      and\n      0x70a08231\n        /* \"contracts/SyCrowBarter.sol\":2509:2513  this */\n      address\n        /* \"contracts/SyCrowBarter.sol\":2475:2515  IERC20(inToken).balanceOf(address(this)) */\n      mload(0x40)\n      dup3\n      0xffffffff\n      and\n      0xe0\n      shl\n      dup2\n      mstore\n      0x04\n      add\n      tag_290\n      swap2\n      swap1\n      tag_78\n      jump\t// in\n    tag_290:\n      0x20\n      mload(0x40)\n      dup1\n      dup4\n      sub\n      dup2\n      dup7\n      gas\n      staticcall\n      iszero\n      dup1\n      iszero\n      tag_292\n      jumpi\n      returndatasize\n      0x00\n      dup1\n      returndatacopy\n      revert(0x00, returndatasize)\n    tag_292:\n      pop\n      pop\n      pop\n      pop\n      mload(0x40)\n      returndatasize\n      not(0x1f)\n      0x1f\n      dup3\n      add\n      and\n      dup3\n      add\n      dup1\n      0x40\n      mstore\n      pop\n      dup2\n      add\n      swap1\n      tag_293\n      swap2\n      swap1\n      tag_189\n      jump\t// in\n    tag_293:\n        /* \"contracts/SyCrowBarter.sol\":2475:2534  IERC20(inToken).balanceOf(address(this)) >= amountDeposited */\n      lt\n      iszero\n        /* \"contracts/SyCrowBarter.sol\":2454:2594  require(... */\n      tag_294\n      jumpi\n      mload(0x40)\n      0x08c379a000000000000000000000000000000000000000000000000000000000\n      dup2\n      mstore\n      0x04\n      add\n      tag_295\n      swap1\n      tag_296\n      jump\t// in\n    tag_295:\n      mload(0x40)\n      dup1\n      swap2\n      sub\n      swap1\n      revert\n    tag_294:\n        /* \"contracts/SyCrowBarter.sol\":2617:2625  deadline */\n      dup4\n        /* \"contracts/SyCrowBarter.sol\":2605:2614  _deadline */\n      0x03\n        /* \"contracts/SyCrowBarter.sol\":2605:2625  _deadline = deadline */\n      dup2\n      swap1\n      sstore\n      pop\n        /* \"contracts/SyCrowBarter.sol\":2661:2668  inToken */\n      dup8\n        /* \"contracts/SyCrowBarter.sol\":2636:2658  _depositedTokenAddress */\n      0x04\n      0x01\n        /* \"contracts/SyCrowBarter.sol\":2636:2668  _depositedTokenAddress = inToken */\n      0x0100\n      exp\n      dup2\n      sload\n      dup2\n      0xffffffffffffffffffffffffffffffffffffffff\n      mul\n      not\n      and\n      swap1\n      dup4\n      0xffffffffffffffffffffffffffffffffffffffff\n      and\n      mul\n      or\n      swap1\n      sstore\n      pop\n        /* \"contracts/SyCrowBarter.sol\":2702:2710  outToken */\n      dup7\n        /* \"contracts/SyCrowBarter.sol\":2678:2699  _expectedTokenAddress */\n      0x05\n      0x00\n        /* \"contracts/SyCrowBarter.sol\":2678:2710  _expectedTokenAddress = outToken */\n      0x0100\n      exp\n      dup2\n      sload\n      dup2\n      0xffffffffffffffffffffffffffffffffffffffff\n      mul\n      not\n      and\n      swap1\n      dup4\n      0xffffffffffffffffffffffffffffffffffffffff\n      and\n      mul\n      or\n      swap1\n      sstore\n      pop\n        /* \"contracts/SyCrowBarter.sol\":2740:2755  amountDeposited */\n      dup6\n        /* \"contracts/SyCrowBarter.sol\":2721:2737  _depositedAmount */\n      0x06\n        /* \"contracts/SyCrowBarter.sol\":2721:2755  _depositedAmount = amountDeposited */\n      dup2\n      swap1\n      sstore\n      pop\n        /* \"contracts/SyCrowBarter.sol\":2783:2797  amountExpected */\n      dup5\n        /* \"contracts/SyCrowBarter.sol\":2765:2780  _expectedAmount */\n      0x07\n        /* \"contracts/SyCrowBarter.sol\":2765:2797  _expectedAmount = amountExpected */\n      dup2\n      swap1\n      sstore\n      pop\n        /* \"contracts/SyCrowBarter.sol\":2822:2832  barterType */\n      dup9\n        /* \"contracts/SyCrowBarter.sol\":2808:2819  _barterType */\n      0x08\n      0x01\n        /* \"contracts/SyCrowBarter.sol\":2808:2832  _barterType = barterType */\n      0x0100\n      exp\n      dup2\n      sload\n      dup2\n      0xff\n      mul\n      not\n      and\n      swap1\n      dup4\n      0x02\n      dup2\n      gt\n      iszero\n      tag_297\n      jumpi\n      tag_298\n      tag_134\n      jump\t// in\n    tag_298:\n    tag_297:\n      mul\n      or\n      swap1\n      sstore\n      pop\n        /* \"contracts/SyCrowBarter.sol\":2862:2878  allowMultiBarter */\n      dup3\n        /* \"contracts/SyCrowBarter.sol\":2842:2859  _allowMultiBarter */\n      0x08\n      0x00\n        /* \"contracts/SyCrowBarter.sol\":2842:2878  _allowMultiBarter = allowMultiBarter */\n      0x0100\n      exp\n      dup2\n      sload\n      dup2\n      0xff\n      mul\n      not\n      and\n      swap1\n      dup4\n      iszero\n      iszero\n      mul\n      or\n      swap1\n      sstore\n      pop\n        /* \"contracts/SyCrowBarter.sol\":2895:2900  _WETH */\n      dup2\n        /* \"contracts/SyCrowBarter.sol\":2888:2892  WETH */\n      0x02\n      0x00\n        /* \"contracts/SyCrowBarter.sol\":2888:2900  WETH = _WETH */\n      0x0100\n      exp\n      dup2\n      sload\n      dup2\n      0xffffffffffffffffffffffffffffffffffffffff\n      mul\n      not\n      and\n      swap1\n      dup4\n      0xffffffffffffffffffffffffffffffffffffffff\n      and\n      mul\n      or\n      swap1\n      sstore\n      pop\n        /* \"contracts/SyCrowBarter.sol\":2925:2929  true */\n      0x01\n        /* \"contracts/SyCrowBarter.sol\":2910:2922  _initialized */\n      0x04\n      0x00\n        /* \"contracts/SyCrowBarter.sol\":2910:2929  _initialized = true */\n      0x0100\n      exp\n      dup2\n      sload\n      dup2\n      0xff\n      mul\n      not\n      and\n      swap1\n      dup4\n      iszero\n      iszero\n      mul\n      or\n      swap1\n      sstore\n      pop\n        /* \"contracts/SyCrowBarter.sol\":2947:2959  _initialized */\n      0x04\n      0x00\n      swap1\n      sload\n      swap1\n      0x0100\n      exp\n      swap1\n      div\n      0xff\n      and\n        /* \"contracts/SyCrowBarter.sol\":2940:2959  return _initialized */\n      swap1\n      pop\n        /* \"contracts/SyCrowBarter.sol\":1946:2966  function initialize(... */\n      swap9\n      swap8\n      pop\n      pop\n      pop\n      pop\n      pop\n      pop\n      pop\n      pop\n      jump\t// out\n        /* \"contracts/SyCrowBarter.sol\":3369:3522  function getDeadline()... */\n    tag_68:\n        /* \"contracts/SyCrowBarter.sol\":3476:3483  uint256 */\n      0x00\n        /* \"contracts/SyCrowBarter.sol\":1486:1498  _initialized */\n      0x04\n      0x00\n      swap1\n      sload\n      swap1\n      0x0100\n      exp\n      swap1\n      div\n      0xff\n      and\n        /* \"contracts/SyCrowBarter.sol\":1478:1532  require(_initialized, \"SyCrowBarter: NOT_INITIALIZED\") */\n      tag_300\n      jumpi\n      mload(0x40)\n      0x08c379a000000000000000000000000000000000000000000000000000000000\n      dup2\n      mstore\n      0x04\n      add\n      tag_301\n      swap1\n      tag_118\n      jump\t// in\n    tag_301:\n      mload(0x40)\n      dup1\n      swap2\n      sub\n      swap1\n      revert\n    tag_300:\n        /* \"contracts/SyCrowBarter.sol\":3506:3515  _deadline */\n      sload(0x03)\n        /* \"contracts/SyCrowBarter.sol\":3499:3515  return _deadline */\n      swap1\n      pop\n        /* \"contracts/SyCrowBarter.sol\":3369:3522  function getDeadline()... */\n      swap1\n      jump\t// out\n        /* \"@openzeppelin/contracts/access/Ownable.sol\":1668:1769  function renounceOwnership() public virtual onlyOwner {... */\n    tag_73:\n        /* \"@openzeppelin/contracts/access/Ownable.sol\":1259:1271  _msgSender() */\n      tag_304\n        /* \"@openzeppelin/contracts/access/Ownable.sol\":1259:1269  _msgSender */\n      tag_179\n        /* \"@openzeppelin/contracts/access/Ownable.sol\":1259:1271  _msgSender() */\n      jump\t// in\n    tag_304:\n        /* \"@openzeppelin/contracts/access/Ownable.sol\":1248:1271  owner() == _msgSender() */\n      0xffffffffffffffffffffffffffffffffffffffff\n      and\n        /* \"@openzeppelin/contracts/access/Ownable.sol\":1248:1255  owner() */\n      tag_305\n        /* \"@openzeppelin/contracts/access/Ownable.sol\":1248:1253  owner */\n      tag_76\n        /* \"@openzeppelin/contracts/access/Ownable.sol\":1248:1255  owner() */\n      jump\t// in\n    tag_305:\n        /* \"@openzeppelin/contracts/access/Ownable.sol\":1248:1271  owner() == _msgSender() */\n      0xffffffffffffffffffffffffffffffffffffffff\n      and\n      eq\n        /* \"@openzeppelin/contracts/access/Ownable.sol\":1240:1308  require(owner() == _msgSender(), \"Ownable: caller is not the owner\") */\n      tag_306\n      jumpi\n      mload(0x40)\n      0x08c379a000000000000000000000000000000000000000000000000000000000\n      dup2\n      mstore\n      0x04\n      add\n      tag_307\n      swap1\n      tag_183\n      jump\t// in\n    tag_307:\n      mload(0x40)\n      dup1\n      swap2\n      sub\n      swap1\n      revert\n    tag_306:\n        /* \"@openzeppelin/contracts/access/Ownable.sol\":1732:1762  _transferOwnership(address(0)) */\n      tag_309\n        /* \"@openzeppelin/contracts/access/Ownable.sol\":1759:1760  0 */\n      0x00\n        /* \"@openzeppelin/contracts/access/Ownable.sol\":1732:1750  _transferOwnership */\n      tag_310\n        /* \"@openzeppelin/contracts/access/Ownable.sol\":1732:1762  _transferOwnership(address(0)) */\n      jump\t// in\n    tag_309:\n        /* \"@openzeppelin/contracts/access/Ownable.sol\":1668:1769  function renounceOwnership() public virtual onlyOwner {... */\n      jump\t// out\n        /* \"@openzeppelin/contracts/access/Ownable.sol\":1036:1121  function owner() public view virtual returns (address) {... */\n    tag_76:\n        /* \"@openzeppelin/contracts/access/Ownable.sol\":1082:1089  address */\n      0x00\n        /* \"@openzeppelin/contracts/access/Ownable.sol\":1108:1114  _owner */\n      dup1\n      0x00\n      swap1\n      sload\n      swap1\n      0x0100\n      exp\n      swap1\n      div\n      0xffffffffffffffffffffffffffffffffffffffff\n      and\n        /* \"@openzeppelin/contracts/access/Ownable.sol\":1101:1114  return _owner */\n      swap1\n      pop\n        /* \"@openzeppelin/contracts/access/Ownable.sol\":1036:1121  function owner() public view virtual returns (address) {... */\n      swap1\n      jump\t// out\n        /* \"contracts/SyCrowBarter.sol\":5486:5720  function tradeTokenForEth()... */\n    tag_81:\n        /* \"contracts/SyCrowBarter.sol\":968:983  block.timestamp */\n      timestamp\n        /* \"contracts/SyCrowBarter.sol\":955:964  _deadline */\n      sload(0x03)\n        /* \"contracts/SyCrowBarter.sol\":955:983  _deadline >= block.timestamp */\n      lt\n      iszero\n        /* \"contracts/SyCrowBarter.sol\":955:1021  _deadline >= block.timestamp && totalTradeAmount < _expectedAmount */\n      dup1\n      iszero\n      tag_313\n      jumpi\n      pop\n        /* \"contracts/SyCrowBarter.sol\":1006:1021  _expectedAmount */\n      sload(0x07)\n        /* \"contracts/SyCrowBarter.sol\":987:1003  totalTradeAmount */\n      sload(0x01)\n        /* \"contracts/SyCrowBarter.sol\":987:1021  totalTradeAmount < _expectedAmount */\n      lt\n        /* \"contracts/SyCrowBarter.sol\":955:1021  _deadline >= block.timestamp && totalTradeAmount < _expectedAmount */\n    tag_313:\n        /* \"contracts/SyCrowBarter.sol\":934:1069  require(... */\n      tag_314\n      jumpi\n      mload(0x40)\n      0x08c379a000000000000000000000000000000000000000000000000000000000\n      dup2\n      mstore\n      0x04\n      add\n      tag_315\n      swap1\n      tag_114\n      jump\t// in\n    tag_315:\n      mload(0x40)\n      dup1\n      swap2\n      sub\n      swap1\n      revert\n    tag_314:\n        /* \"contracts/SyCrowBarter.sol\":1486:1498  _initialized */\n      0x04\n      0x00\n      swap1\n      sload\n      swap1\n      0x0100\n      exp\n      swap1\n      div\n      0xff\n      and\n        /* \"contracts/SyCrowBarter.sol\":1478:1532  require(_initialized, \"SyCrowBarter: NOT_INITIALIZED\") */\n      tag_317\n      jumpi\n      mload(0x40)\n      0x08c379a000000000000000000000000000000000000000000000000000000000\n      dup2\n      mstore\n      0x04\n      add\n      tag_318\n      swap1\n      tag_118\n      jump\t// in\n    tag_318:\n      mload(0x40)\n      dup1\n      swap2\n      sub\n      swap1\n      revert\n    tag_317:\n        /* \"contracts/SyCrowBarter.sol\":1719:1752  ISyCrowBarterFactory isycrFactory */\n      0x00\n        /* \"contracts/SyCrowBarter.sol\":1776:1783  factory */\n      immutable(\"0x26a975632f70533c9512e57b565b8ce8e2befee6b08dfbc27c4a897a20e2c1d6\")\n        /* \"contracts/SyCrowBarter.sol\":1719:1784  ISyCrowBarterFactory isycrFactory = ISyCrowBarterFactory(factory) */\n      swap1\n      pop\n        /* \"contracts/SyCrowBarter.sol\":1803:1815  isycrFactory */\n      dup1\n        /* \"contracts/SyCrowBarter.sol\":1803:1824  isycrFactory.isPaused */\n      0xffffffffffffffffffffffffffffffffffffffff\n      and\n      0xb187bd26\n        /* \"contracts/SyCrowBarter.sol\":1803:1826  isycrFactory.isPaused() */\n      mload(0x40)\n      dup2\n      0xffffffff\n      and\n      0xe0\n      shl\n      dup2\n      mstore\n      0x04\n      add\n      0x20\n      mload(0x40)\n      dup1\n      dup4\n      sub\n      dup2\n      dup7\n      gas\n      staticcall\n      iszero\n      dup1\n      iszero\n      tag_321\n      jumpi\n      returndatasize\n      0x00\n      dup1\n      returndatacopy\n      revert(0x00, returndatasize)\n    tag_321:\n      pop\n      pop\n      pop\n      pop\n      mload(0x40)\n      returndatasize\n      not(0x1f)\n      0x1f\n      dup3\n      add\n      and\n      dup3\n      add\n      dup1\n      0x40\n      mstore\n      pop\n      dup2\n      add\n      swap1\n      tag_322\n      swap2\n      swap1\n      tag_123\n      jump\t// in\n    tag_322:\n        /* \"contracts/SyCrowBarter.sol\":1802:1826  !isycrFactory.isPaused() */\n      iszero\n        /* \"contracts/SyCrowBarter.sol\":1794:1865  require(!isycrFactory.isPaused(), \"SyCrowBarter: Base Contract Paused\") */\n      tag_323\n      jumpi\n      mload(0x40)\n      0x08c379a000000000000000000000000000000000000000000000000000000000\n      dup2\n      mstore\n      0x04\n      add\n      tag_324\n      swap1\n      tag_126\n      jump\t// in\n    tag_324:\n      mload(0x40)\n      dup1\n      swap2\n      sub\n      swap1\n      revert\n    tag_323:\n        /* \"contracts/SyCrowBarter.sol\":5632:5663  ISyCrowBarterType.ETH_FOR_TOKEN */\n      0x00\n        /* \"contracts/SyCrowBarter.sol\":1180:1191  _barterType */\n      0x08\n      0x01\n      swap1\n      sload\n      swap1\n      0x0100\n      exp\n      swap1\n      div\n      0xff\n      and\n        /* \"contracts/SyCrowBarter.sol\":1166:1191  barterType == _barterType */\n      0x02\n      dup2\n      gt\n      iszero\n      tag_326\n      jumpi\n      tag_327\n      tag_134\n      jump\t// in\n    tag_327:\n    tag_326:\n        /* \"contracts/SyCrowBarter.sol\":1166:1176  barterType */\n      dup2\n        /* \"contracts/SyCrowBarter.sol\":1166:1191  barterType == _barterType */\n      0x02\n      dup2\n      gt\n      iszero\n      tag_328\n      jumpi\n      tag_329\n      tag_134\n      jump\t// in\n    tag_329:\n    tag_328:\n      eq\n        /* \"contracts/SyCrowBarter.sol\":1158:1229  require(barterType == _barterType, \"SyCrowBarter: INVALID_BARTER_TYPE\") */\n      tag_330\n      jumpi\n      mload(0x40)\n      0x08c379a000000000000000000000000000000000000000000000000000000000\n      dup2\n      mstore\n      0x04\n      add\n      tag_331\n      swap1\n      tag_139\n      jump\t// in\n    tag_331:\n      mload(0x40)\n      dup1\n      swap2\n      sub\n      swap1\n      revert\n    tag_330:\n        /* \"contracts/SyCrowBarter.sol\":5679:5713  _tradeTokenForEth(_expectedAmount) */\n      tag_333\n        /* \"contracts/SyCrowBarter.sol\":5697:5712  _expectedAmount */\n      sload(0x07)\n        /* \"contracts/SyCrowBarter.sol\":5679:5696  _tradeTokenForEth */\n      tag_142\n        /* \"contracts/SyCrowBarter.sol\":5679:5713  _tradeTokenForEth(_expectedAmount) */\n      jump\t// in\n    tag_333:\n        /* \"contracts/SyCrowBarter.sol\":1875:1876  _ */\n      pop\n        /* \"contracts/SyCrowBarter.sol\":1709:1883  {... */\n      pop\n        /* \"contracts/SyCrowBarter.sol\":5486:5720  function tradeTokenForEth()... */\n      jump\t// out\n        /* \"contracts/SyCrowBarter.sol\":3165:3363  function getTokens()... */\n    tag_84:\n        /* \"contracts/SyCrowBarter.sol\":3270:3277  address */\n      0x00\n        /* \"contracts/SyCrowBarter.sol\":3279:3286  address */\n      dup1\n        /* \"contracts/SyCrowBarter.sol\":1486:1498  _initialized */\n      0x04\n      0x00\n      swap1\n      sload\n      swap1\n      0x0100\n      exp\n      swap1\n      div\n      0xff\n      and\n        /* \"contracts/SyCrowBarter.sol\":1478:1532  require(_initialized, \"SyCrowBarter: NOT_INITIALIZED\") */\n      tag_335\n      jumpi\n      mload(0x40)\n      0x08c379a000000000000000000000000000000000000000000000000000000000\n      dup2\n      mstore\n      0x04\n      add\n      tag_336\n      swap1\n      tag_118\n      jump\t// in\n    tag_336:\n      mload(0x40)\n      dup1\n      swap2\n      sub\n      swap1\n      revert\n    tag_335:\n        /* \"contracts/SyCrowBarter.sol\":3310:3332  _depositedTokenAddress */\n      0x04\n      0x01\n      swap1\n      sload\n      swap1\n      0x0100\n      exp\n      swap1\n      div\n      0xffffffffffffffffffffffffffffffffffffffff\n      and\n        /* \"contracts/SyCrowBarter.sol\":3334:3355  _expectedTokenAddress */\n      0x05\n      0x00\n      swap1\n      sload\n      swap1\n      0x0100\n      exp\n      swap1\n      div\n      0xffffffffffffffffffffffffffffffffffffffff\n      and\n        /* \"contracts/SyCrowBarter.sol\":3302:3356  return (_depositedTokenAddress, _expectedTokenAddress) */\n      swap2\n      pop\n      swap2\n      pop\n        /* \"contracts/SyCrowBarter.sol\":3165:3363  function getTokens()... */\n      swap1\n      swap2\n      jump\t// out\n        /* \"contracts/SyCrowBarter.sol\":5240:5480  function tradeTokenForToken()... */\n    tag_89:\n        /* \"contracts/SyCrowBarter.sol\":968:983  block.timestamp */\n      timestamp\n        /* \"contracts/SyCrowBarter.sol\":955:964  _deadline */\n      sload(0x03)\n        /* \"contracts/SyCrowBarter.sol\":955:983  _deadline >= block.timestamp */\n      lt\n      iszero\n        /* \"contracts/SyCrowBarter.sol\":955:1021  _deadline >= block.timestamp && totalTradeAmount < _expectedAmount */\n      dup1\n      iszero\n      tag_339\n      jumpi\n      pop\n        /* \"contracts/SyCrowBarter.sol\":1006:1021  _expectedAmount */\n      sload(0x07)\n        /* \"contracts/SyCrowBarter.sol\":987:1003  totalTradeAmount */\n      sload(0x01)\n        /* \"contracts/SyCrowBarter.sol\":987:1021  totalTradeAmount < _expectedAmount */\n      lt\n        /* \"contracts/SyCrowBarter.sol\":955:1021  _deadline >= block.timestamp && totalTradeAmount < _expectedAmount */\n    tag_339:\n        /* \"contracts/SyCrowBarter.sol\":934:1069  require(... */\n      tag_340\n      jumpi\n      mload(0x40)\n      0x08c379a000000000000000000000000000000000000000000000000000000000\n      dup2\n      mstore\n      0x04\n      add\n      tag_341\n      swap1\n      tag_114\n      jump\t// in\n    tag_341:\n      mload(0x40)\n      dup1\n      swap2\n      sub\n      swap1\n      revert\n    tag_340:\n        /* \"contracts/SyCrowBarter.sol\":1486:1498  _initialized */\n      0x04\n      0x00\n      swap1\n      sload\n      swap1\n      0x0100\n      exp\n      swap1\n      div\n      0xff\n      and\n        /* \"contracts/SyCrowBarter.sol\":1478:1532  require(_initialized, \"SyCrowBarter: NOT_INITIALIZED\") */\n      tag_343\n      jumpi\n      mload(0x40)\n      0x08c379a000000000000000000000000000000000000000000000000000000000\n      dup2\n      mstore\n      0x04\n      add\n      tag_344\n      swap1\n      tag_118\n      jump\t// in\n    tag_344:\n      mload(0x40)\n      dup1\n      swap2\n      sub\n      swap1\n      revert\n    tag_343:\n        /* \"contracts/SyCrowBarter.sol\":1719:1752  ISyCrowBarterFactory isycrFactory */\n      0x00\n        /* \"contracts/SyCrowBarter.sol\":1776:1783  factory */\n      immutable(\"0x26a975632f70533c9512e57b565b8ce8e2befee6b08dfbc27c4a897a20e2c1d6\")\n        /* \"contracts/SyCrowBarter.sol\":1719:1784  ISyCrowBarterFactory isycrFactory = ISyCrowBarterFactory(factory) */\n      swap1\n      pop\n        /* \"contracts/SyCrowBarter.sol\":1803:1815  isycrFactory */\n      dup1\n        /* \"contracts/SyCrowBarter.sol\":1803:1824  isycrFactory.isPaused */\n      0xffffffffffffffffffffffffffffffffffffffff\n      and\n      0xb187bd26\n        /* \"contracts/SyCrowBarter.sol\":1803:1826  isycrFactory.isPaused() */\n      mload(0x40)\n      dup2\n      0xffffffff\n      and\n      0xe0\n      shl\n      dup2\n      mstore\n      0x04\n      add\n      0x20\n      mload(0x40)\n      dup1\n      dup4\n      sub\n      dup2\n      dup7\n      gas\n      staticcall\n      iszero\n      dup1\n      iszero\n      tag_347\n      jumpi\n      returndatasize\n      0x00\n      dup1\n      returndatacopy\n      revert(0x00, returndatasize)\n    tag_347:\n      pop\n      pop\n      pop\n      pop\n      mload(0x40)\n      returndatasize\n      not(0x1f)\n      0x1f\n      dup3\n      add\n      and\n      dup3\n      add\n      dup1\n      0x40\n      mstore\n      pop\n      dup2\n      add\n      swap1\n      tag_348\n      swap2\n      swap1\n      tag_123\n      jump\t// in\n    tag_348:\n        /* \"contracts/SyCrowBarter.sol\":1802:1826  !isycrFactory.isPaused() */\n      iszero\n        /* \"contracts/SyCrowBarter.sol\":1794:1865  require(!isycrFactory.isPaused(), \"SyCrowBarter: Base Contract Paused\") */\n      tag_349\n      jumpi\n      mload(0x40)\n      0x08c379a000000000000000000000000000000000000000000000000000000000\n      dup2\n      mstore\n      0x04\n      add\n      tag_350\n      swap1\n      tag_126\n      jump\t// in\n    tag_350:\n      mload(0x40)\n      dup1\n      swap2\n      sub\n      swap1\n      revert\n    tag_349:\n        /* \"contracts/SyCrowBarter.sol\":5388:5421  ISyCrowBarterType.TOKEN_FOR_TOKEN */\n      0x02\n        /* \"contracts/SyCrowBarter.sol\":1180:1191  _barterType */\n      0x08\n      0x01\n      swap1\n      sload\n      swap1\n      0x0100\n      exp\n      swap1\n      div\n      0xff\n      and\n        /* \"contracts/SyCrowBarter.sol\":1166:1191  barterType == _barterType */\n      0x02\n      dup2\n      gt\n      iszero\n      tag_352\n      jumpi\n      tag_353\n      tag_134\n      jump\t// in\n    tag_353:\n    tag_352:\n        /* \"contracts/SyCrowBarter.sol\":1166:1176  barterType */\n      dup2\n        /* \"contracts/SyCrowBarter.sol\":1166:1191  barterType == _barterType */\n      0x02\n      dup2\n      gt\n      iszero\n      tag_354\n      jumpi\n      tag_355\n      tag_134\n      jump\t// in\n    tag_355:\n    tag_354:\n      eq\n        /* \"contracts/SyCrowBarter.sol\":1158:1229  require(barterType == _barterType, \"SyCrowBarter: INVALID_BARTER_TYPE\") */\n      tag_356\n      jumpi\n      mload(0x40)\n      0x08c379a000000000000000000000000000000000000000000000000000000000\n      dup2\n      mstore\n      0x04\n      add\n      tag_357\n      swap1\n      tag_139\n      jump\t// in\n    tag_357:\n      mload(0x40)\n      dup1\n      swap2\n      sub\n      swap1\n      revert\n    tag_356:\n        /* \"contracts/SyCrowBarter.sol\":5437:5473  _tradeTokenForToken(_expectedAmount) */\n      tag_359\n        /* \"contracts/SyCrowBarter.sol\":5457:5472  _expectedAmount */\n      sload(0x07)\n        /* \"contracts/SyCrowBarter.sol\":5437:5456  _tradeTokenForToken */\n      tag_168\n        /* \"contracts/SyCrowBarter.sol\":5437:5473  _tradeTokenForToken(_expectedAmount) */\n      jump\t// in\n    tag_359:\n        /* \"contracts/SyCrowBarter.sol\":1875:1876  _ */\n      pop\n        /* \"contracts/SyCrowBarter.sol\":1709:1883  {... */\n      pop\n        /* \"contracts/SyCrowBarter.sol\":5240:5480  function tradeTokenForToken()... */\n      jump\t// out\n        /* \"contracts/SyCrowBarter.sol\":323:364  address public immutable override factory */\n    tag_92:\n      immutable(\"0x26a975632f70533c9512e57b565b8ce8e2befee6b08dfbc27c4a897a20e2c1d6\")\n      dup2\n      jump\t// out\n        /* \"contracts/SyCrowBarter.sol\":5726:5976  function tradeEthForToken()... */\n    tag_95:\n        /* \"contracts/SyCrowBarter.sol\":968:983  block.timestamp */\n      timestamp\n        /* \"contracts/SyCrowBarter.sol\":955:964  _deadline */\n      sload(0x03)\n        /* \"contracts/SyCrowBarter.sol\":955:983  _deadline >= block.timestamp */\n      lt\n      iszero\n        /* \"contracts/SyCrowBarter.sol\":955:1021  _deadline >= block.timestamp && totalTradeAmount < _expectedAmount */\n      dup1\n      iszero\n      tag_361\n      jumpi\n      pop\n        /* \"contracts/SyCrowBarter.sol\":1006:1021  _expectedAmount */\n      sload(0x07)\n        /* \"contracts/SyCrowBarter.sol\":987:1003  totalTradeAmount */\n      sload(0x01)\n        /* \"contracts/SyCrowBarter.sol\":987:1021  totalTradeAmount < _expectedAmount */\n      lt\n        /* \"contracts/SyCrowBarter.sol\":955:1021  _deadline >= block.timestamp && totalTradeAmount < _expectedAmount */\n    tag_361:\n        /* \"contracts/SyCrowBarter.sol\":934:1069  require(... */\n      tag_362\n      jumpi\n      mload(0x40)\n      0x08c379a000000000000000000000000000000000000000000000000000000000\n      dup2\n      mstore\n      0x04\n      add\n      tag_363\n      swap1\n      tag_114\n      jump\t// in\n    tag_363:\n      mload(0x40)\n      dup1\n      swap2\n      sub\n      swap1\n      revert\n    tag_362:\n        /* \"contracts/SyCrowBarter.sol\":1486:1498  _initialized */\n      0x04\n      0x00\n      swap1\n      sload\n      swap1\n      0x0100\n      exp\n      swap1\n      div\n      0xff\n      and\n        /* \"contracts/SyCrowBarter.sol\":1478:1532  require(_initialized, \"SyCrowBarter: NOT_INITIALIZED\") */\n      tag_365\n      jumpi\n      mload(0x40)\n      0x08c379a000000000000000000000000000000000000000000000000000000000\n      dup2\n      mstore\n      0x04\n      add\n      tag_366\n      swap1\n      tag_118\n      jump\t// in\n    tag_366:\n      mload(0x40)\n      dup1\n      swap2\n      sub\n      swap1\n      revert\n    tag_365:\n        /* \"contracts/SyCrowBarter.sol\":1719:1752  ISyCrowBarterFactory isycrFactory */\n      0x00\n        /* \"contracts/SyCrowBarter.sol\":1776:1783  factory */\n      immutable(\"0x26a975632f70533c9512e57b565b8ce8e2befee6b08dfbc27c4a897a20e2c1d6\")\n        /* \"contracts/SyCrowBarter.sol\":1719:1784  ISyCrowBarterFactory isycrFactory = ISyCrowBarterFactory(factory) */\n      swap1\n      pop\n        /* \"contracts/SyCrowBarter.sol\":1803:1815  isycrFactory */\n      dup1\n        /* \"contracts/SyCrowBarter.sol\":1803:1824  isycrFactory.isPaused */\n      0xffffffffffffffffffffffffffffffffffffffff\n      and\n      0xb187bd26\n        /* \"contracts/SyCrowBarter.sol\":1803:1826  isycrFactory.isPaused() */\n      mload(0x40)\n      dup2\n      0xffffffff\n      and\n      0xe0\n      shl\n      dup2\n      mstore\n      0x04\n      add\n      0x20\n      mload(0x40)\n      dup1\n      dup4\n      sub\n      dup2\n      dup7\n      gas\n      staticcall\n      iszero\n      dup1\n      iszero\n      tag_369\n      jumpi\n      returndatasize\n      0x00\n      dup1\n      returndatacopy\n      revert(0x00, returndatasize)\n    tag_369:\n      pop\n      pop\n      pop\n      pop\n      mload(0x40)\n      returndatasize\n      not(0x1f)\n      0x1f\n      dup3\n      add\n      and\n      dup3\n      add\n      dup1\n      0x40\n      mstore\n      pop\n      dup2\n      add\n      swap1\n      tag_370\n      swap2\n      swap1\n      tag_123\n      jump\t// in\n    tag_370:\n        /* \"contracts/SyCrowBarter.sol\":1802:1826  !isycrFactory.isPaused() */\n      iszero\n        /* \"contracts/SyCrowBarter.sol\":1794:1865  require(!isycrFactory.isPaused(), \"SyCrowBarter: Base Contract Paused\") */\n      tag_371\n      jumpi\n      mload(0x40)\n      0x08c379a000000000000000000000000000000000000000000000000000000000\n      dup2\n      mstore\n      0x04\n      add\n      tag_372\n      swap1\n      tag_126\n      jump\t// in\n    tag_372:\n      mload(0x40)\n      dup1\n      swap2\n      sub\n      swap1\n      revert\n    tag_371:\n        /* \"contracts/SyCrowBarter.sol\":5888:5919  ISyCrowBarterType.TOKEN_FOR_ETH */\n      0x01\n        /* \"contracts/SyCrowBarter.sol\":1180:1191  _barterType */\n      0x08\n      0x01\n      swap1\n      sload\n      swap1\n      0x0100\n      exp\n      swap1\n      div\n      0xff\n      and\n        /* \"contracts/SyCrowBarter.sol\":1166:1191  barterType == _barterType */\n      0x02\n      dup2\n      gt\n      iszero\n      tag_374\n      jumpi\n      tag_375\n      tag_134\n      jump\t// in\n    tag_375:\n    tag_374:\n        /* \"contracts/SyCrowBarter.sol\":1166:1176  barterType */\n      dup2\n        /* \"contracts/SyCrowBarter.sol\":1166:1191  barterType == _barterType */\n      0x02\n      dup2\n      gt\n      iszero\n      tag_376\n      jumpi\n      tag_377\n      tag_134\n      jump\t// in\n    tag_377:\n    tag_376:\n      eq\n        /* \"contracts/SyCrowBarter.sol\":1158:1229  require(barterType == _barterType, \"SyCrowBarter: INVALID_BARTER_TYPE\") */\n      tag_378\n      jumpi\n      mload(0x40)\n      0x08c379a000000000000000000000000000000000000000000000000000000000\n      dup2\n      mstore\n      0x04\n      add\n      tag_379\n      swap1\n      tag_139\n      jump\t// in\n    tag_379:\n      mload(0x40)\n      dup1\n      swap2\n      sub\n      swap1\n      revert\n    tag_378:\n        /* \"contracts/SyCrowBarter.sol\":5935:5969  _tradeEthForToken(_expectedAmount) */\n      tag_381\n        /* \"contracts/SyCrowBarter.sol\":5953:5968  _expectedAmount */\n      sload(0x07)\n        /* \"contracts/SyCrowBarter.sol\":5935:5952  _tradeEthForToken */\n      tag_256\n        /* \"contracts/SyCrowBarter.sol\":5935:5969  _tradeEthForToken(_expectedAmount) */\n      jump\t// in\n    tag_381:\n        /* \"contracts/SyCrowBarter.sol\":1875:1876  _ */\n      pop\n        /* \"contracts/SyCrowBarter.sol\":1709:1883  {... */\n      pop\n        /* \"contracts/SyCrowBarter.sol\":5726:5976  function tradeEthForToken()... */\n      jump\t// out\n        /* \"contracts/SyCrowBarter.sol\":11314:11487  function getTradeOutAmount(uint256 amount)... */\n    tag_99:\n        /* \"contracts/SyCrowBarter.sol\":11424:11431  uint256 */\n      0x00\n        /* \"contracts/SyCrowBarter.sol\":1486:1498  _initialized */\n      0x04\n      0x00\n      swap1\n      sload\n      swap1\n      0x0100\n      exp\n      swap1\n      div\n      0xff\n      and\n        /* \"contracts/SyCrowBarter.sol\":1478:1532  require(_initialized, \"SyCrowBarter: NOT_INITIALIZED\") */\n      tag_383\n      jumpi\n      mload(0x40)\n      0x08c379a000000000000000000000000000000000000000000000000000000000\n      dup2\n      mstore\n      0x04\n      add\n      tag_384\n      swap1\n      tag_118\n      jump\t// in\n    tag_384:\n      mload(0x40)\n      dup1\n      swap2\n      sub\n      swap1\n      revert\n    tag_383:\n        /* \"contracts/SyCrowBarter.sol\":11454:11480  _getTradeOutAmount(amount) */\n      tag_386\n        /* \"contracts/SyCrowBarter.sol\":11473:11479  amount */\n      dup3\n        /* \"contracts/SyCrowBarter.sol\":11454:11472  _getTradeOutAmount */\n      tag_387\n        /* \"contracts/SyCrowBarter.sol\":11454:11480  _getTradeOutAmount(amount) */\n      jump\t// in\n    tag_386:\n        /* \"contracts/SyCrowBarter.sol\":11447:11480  return _getTradeOutAmount(amount) */\n      swap1\n      pop\n        /* \"contracts/SyCrowBarter.sol\":11314:11487  function getTradeOutAmount(uint256 amount)... */\n      swap2\n      swap1\n      pop\n      jump\t// out\n        /* \"contracts/SyCrowBarter.sol\":3701:4387  function getTrades()... */\n    tag_103:\n        /* \"contracts/SyCrowBarter.sol\":3819:3835  address[] memory */\n      0x60\n        /* \"contracts/SyCrowBarter.sol\":3849:3865  uint256[] memory */\n      dup1\n        /* \"contracts/SyCrowBarter.sol\":3879:3895  uint256[] memory */\n      0x60\n        /* \"contracts/SyCrowBarter.sol\":1486:1498  _initialized */\n      0x04\n      0x00\n      swap1\n      sload\n      swap1\n      0x0100\n      exp\n      swap1\n      div\n      0xff\n      and\n        /* \"contracts/SyCrowBarter.sol\":1478:1532  require(_initialized, \"SyCrowBarter: NOT_INITIALIZED\") */\n      tag_389\n      jumpi\n      mload(0x40)\n      0x08c379a000000000000000000000000000000000000000000000000000000000\n      dup2\n      mstore\n      0x04\n      add\n      tag_390\n      swap1\n      tag_118\n      jump\t// in\n    tag_390:\n      mload(0x40)\n      dup1\n      swap2\n      sub\n      swap1\n      revert\n    tag_389:\n        /* \"contracts/SyCrowBarter.sol\":3920:3946  address[] memory addresses */\n      0x00\n        /* \"contracts/SyCrowBarter.sol\":3963:3970  _trades */\n      0x09\n        /* \"contracts/SyCrowBarter.sol\":3963:3977  _trades.length */\n      dup1\n      sload\n      swap1\n      pop\n        /* \"contracts/SyCrowBarter.sol\":3949:3978  new address[](_trades.length) */\n      0xffffffffffffffff\n      dup2\n      gt\n      iszero\n      tag_392\n      jumpi\n      tag_393\n      tag_394\n      jump\t// in\n    tag_393:\n    tag_392:\n      mload(0x40)\n      swap1\n      dup1\n      dup3\n      mstore\n      dup1\n      0x20\n      mul\n      0x20\n      add\n      dup3\n      add\n      0x40\n      mstore\n      dup1\n      iszero\n      tag_395\n      jumpi\n      dup2\n      0x20\n      add\n      0x20\n      dup3\n      mul\n      dup1\n      calldatasize\n      dup4\n      calldatacopy\n      dup1\n      dup3\n      add\n      swap2\n      pop\n      pop\n      swap1\n      pop\n    tag_395:\n      pop\n        /* \"contracts/SyCrowBarter.sol\":3920:3978  address[] memory addresses = new address[](_trades.length) */\n      swap1\n      pop\n        /* \"contracts/SyCrowBarter.sol\":3988:4014  uint256[] memory amountsIn */\n      0x00\n        /* \"contracts/SyCrowBarter.sol\":4031:4038  _trades */\n      0x09\n        /* \"contracts/SyCrowBarter.sol\":4031:4045  _trades.length */\n      dup1\n      sload\n      swap1\n      pop\n        /* \"contracts/SyCrowBarter.sol\":4017:4046  new uint256[](_trades.length) */\n      0xffffffffffffffff\n      dup2\n      gt\n      iszero\n      tag_396\n      jumpi\n      tag_397\n      tag_394\n      jump\t// in\n    tag_397:\n    tag_396:\n      mload(0x40)\n      swap1\n      dup1\n      dup3\n      mstore\n      dup1\n      0x20\n      mul\n      0x20\n      add\n      dup3\n      add\n      0x40\n      mstore\n      dup1\n      iszero\n      tag_398\n      jumpi\n      dup2\n      0x20\n      add\n      0x20\n      dup3\n      mul\n      dup1\n      calldatasize\n      dup4\n      calldatacopy\n      dup1\n      dup3\n      add\n      swap2\n      pop\n      pop\n      swap1\n      pop\n    tag_398:\n      pop\n        /* \"contracts/SyCrowBarter.sol\":3988:4046  uint256[] memory amountsIn = new uint256[](_trades.length) */\n      swap1\n      pop\n        /* \"contracts/SyCrowBarter.sol\":4056:4083  uint256[] memory amountsOut */\n      0x00\n        /* \"contracts/SyCrowBarter.sol\":4100:4107  _trades */\n      0x09\n        /* \"contracts/SyCrowBarter.sol\":4100:4114  _trades.length */\n      dup1\n      sload\n      swap1\n      pop\n        /* \"contracts/SyCrowBarter.sol\":4086:4115  new uint256[](_trades.length) */\n      0xffffffffffffffff\n      dup2\n      gt\n      iszero\n      tag_399\n      jumpi\n      tag_400\n      tag_394\n      jump\t// in\n    tag_400:\n    tag_399:\n      mload(0x40)\n      swap1\n      dup1\n      dup3\n      mstore\n      dup1\n      0x20\n      mul\n      0x20\n      add\n      dup3\n      add\n      0x40\n      mstore\n      dup1\n      iszero\n      tag_401\n      jumpi\n      dup2\n      0x20\n      add\n      0x20\n      dup3\n      mul\n      dup1\n      calldatasize\n      dup4\n      calldatacopy\n      dup1\n      dup3\n      add\n      swap2\n      pop\n      pop\n      swap1\n      pop\n    tag_401:\n      pop\n        /* \"contracts/SyCrowBarter.sol\":4056:4115  uint256[] memory amountsOut = new uint256[](_trades.length) */\n      swap1\n      pop\n        /* \"contracts/SyCrowBarter.sol\":4131:4140  uint256 i */\n      0x00\n        /* \"contracts/SyCrowBarter.sol\":4126:4329  for (uint256 i = 0; i < _trades.length; i++) {... */\n    tag_402:\n        /* \"contracts/SyCrowBarter.sol\":4150:4157  _trades */\n      0x09\n        /* \"contracts/SyCrowBarter.sol\":4150:4164  _trades.length */\n      dup1\n      sload\n      swap1\n      pop\n        /* \"contracts/SyCrowBarter.sol\":4146:4147  i */\n      dup2\n        /* \"contracts/SyCrowBarter.sol\":4146:4164  i < _trades.length */\n      lt\n        /* \"contracts/SyCrowBarter.sol\":4126:4329  for (uint256 i = 0; i < _trades.length; i++) {... */\n      iszero\n      tag_403\n      jumpi\n        /* \"contracts/SyCrowBarter.sol\":4200:4207  _trades */\n      0x09\n        /* \"contracts/SyCrowBarter.sol\":4208:4209  i */\n      dup2\n        /* \"contracts/SyCrowBarter.sol\":4200:4210  _trades[i] */\n      dup2\n      sload\n      dup2\n      lt\n      tag_405\n      jumpi\n      tag_406\n      tag_407\n      jump\t// in\n    tag_406:\n    tag_405:\n      swap1\n      0x00\n      mstore\n      keccak256(0x00, 0x20)\n      swap1\n      0x03\n      mul\n      add\n        /* \"contracts/SyCrowBarter.sol\":4200:4218  _trades[i]._trader */\n      0x00\n      add\n      0x00\n      swap1\n      sload\n      swap1\n      0x0100\n      exp\n      swap1\n      div\n      0xffffffffffffffffffffffffffffffffffffffff\n      and\n        /* \"contracts/SyCrowBarter.sol\":4185:4194  addresses */\n      dup5\n        /* \"contracts/SyCrowBarter.sol\":4195:4196  i */\n      dup3\n        /* \"contracts/SyCrowBarter.sol\":4185:4197  addresses[i] */\n      dup2\n      mload\n      dup2\n      lt\n      tag_409\n      jumpi\n      tag_410\n      tag_407\n      jump\t// in\n    tag_410:\n    tag_409:\n      0x20\n      mul\n      0x20\n      add\n      add\n        /* \"contracts/SyCrowBarter.sol\":4185:4218  addresses[i] = _trades[i]._trader */\n      swap1\n      0xffffffffffffffffffffffffffffffffffffffff\n      and\n      swap1\n      dup2\n      0xffffffffffffffffffffffffffffffffffffffff\n      and\n      dup2\n      mstore\n      pop\n      pop\n        /* \"contracts/SyCrowBarter.sol\":4247:4254  _trades */\n      0x09\n        /* \"contracts/SyCrowBarter.sol\":4255:4256  i */\n      dup2\n        /* \"contracts/SyCrowBarter.sol\":4247:4257  _trades[i] */\n      dup2\n      sload\n      dup2\n      lt\n      tag_411\n      jumpi\n      tag_412\n      tag_407\n      jump\t// in\n    tag_412:\n    tag_411:\n      swap1\n      0x00\n      mstore\n      keccak256(0x00, 0x20)\n      swap1\n      0x03\n      mul\n      add\n        /* \"contracts/SyCrowBarter.sol\":4247:4267  _trades[i]._amountIn */\n      0x01\n      add\n      sload\n        /* \"contracts/SyCrowBarter.sol\":4232:4241  amountsIn */\n      dup4\n        /* \"contracts/SyCrowBarter.sol\":4242:4243  i */\n      dup3\n        /* \"contracts/SyCrowBarter.sol\":4232:4244  amountsIn[i] */\n      dup2\n      mload\n      dup2\n      lt\n      tag_414\n      jumpi\n      tag_415\n      tag_407\n      jump\t// in\n    tag_415:\n    tag_414:\n      0x20\n      mul\n      0x20\n      add\n      add\n        /* \"contracts/SyCrowBarter.sol\":4232:4267  amountsIn[i] = _trades[i]._amountIn */\n      dup2\n      dup2\n      mstore\n      pop\n      pop\n        /* \"contracts/SyCrowBarter.sol\":4297:4304  _trades */\n      0x09\n        /* \"contracts/SyCrowBarter.sol\":4305:4306  i */\n      dup2\n        /* \"contracts/SyCrowBarter.sol\":4297:4307  _trades[i] */\n      dup2\n      sload\n      dup2\n      lt\n      tag_416\n      jumpi\n      tag_417\n      tag_407\n      jump\t// in\n    tag_417:\n    tag_416:\n      swap1\n      0x00\n      mstore\n      keccak256(0x00, 0x20)\n      swap1\n      0x03\n      mul\n      add\n        /* \"contracts/SyCrowBarter.sol\":4297:4318  _trades[i]._amountOut */\n      0x02\n      add\n      sload\n        /* \"contracts/SyCrowBarter.sol\":4281:4291  amountsOut */\n      dup3\n        /* \"contracts/SyCrowBarter.sol\":4292:4293  i */\n      dup3\n        /* \"contracts/SyCrowBarter.sol\":4281:4294  amountsOut[i] */\n      dup2\n      mload\n      dup2\n      lt\n      tag_419\n      jumpi\n      tag_420\n      tag_407\n      jump\t// in\n    tag_420:\n    tag_419:\n      0x20\n      mul\n      0x20\n      add\n      add\n        /* \"contracts/SyCrowBarter.sol\":4281:4318  amountsOut[i] = _trades[i]._amountOut */\n      dup2\n      dup2\n      mstore\n      pop\n      pop\n        /* \"contracts/SyCrowBarter.sol\":4166:4169  i++ */\n      dup1\n      dup1\n      tag_421\n      swap1\n      tag_422\n      jump\t// in\n    tag_421:\n      swap2\n      pop\n      pop\n        /* \"contracts/SyCrowBarter.sol\":4126:4329  for (uint256 i = 0; i < _trades.length; i++) {... */\n      jump(tag_402)\n    tag_403:\n      pop\n        /* \"contracts/SyCrowBarter.sol\":4347:4356  addresses */\n      dup3\n        /* \"contracts/SyCrowBarter.sol\":4358:4367  amountsIn */\n      dup3\n        /* \"contracts/SyCrowBarter.sol\":4369:4379  amountsOut */\n      dup3\n        /* \"contracts/SyCrowBarter.sol\":4339:4380  return (addresses, amountsIn, amountsOut) */\n      swap6\n      pop\n      swap6\n      pop\n      swap6\n      pop\n      pop\n      pop\n      pop\n        /* \"contracts/SyCrowBarter.sol\":3701:4387  function getTrades()... */\n      swap1\n      swap2\n      swap3\n      jump\t// out\n        /* \"@openzeppelin/contracts/access/Ownable.sol\":1918:2116  function transferOwnership(address newOwner) public virtual onlyOwner {... */\n    tag_109:\n        /* \"@openzeppelin/contracts/access/Ownable.sol\":1259:1271  _msgSender() */\n      tag_424\n        /* \"@openzeppelin/contracts/access/Ownable.sol\":1259:1269  _msgSender */\n      tag_179\n        /* \"@openzeppelin/contracts/access/Ownable.sol\":1259:1271  _msgSender() */\n      jump\t// in\n    tag_424:\n        /* \"@openzeppelin/contracts/access/Ownable.sol\":1248:1271  owner() == _msgSender() */\n      0xffffffffffffffffffffffffffffffffffffffff\n      and\n        /* \"@openzeppelin/contracts/access/Ownable.sol\":1248:1255  owner() */\n      tag_425\n        /* \"@openzeppelin/contracts/access/Ownable.sol\":1248:1253  owner */\n      tag_76\n        /* \"@openzeppelin/contracts/access/Ownable.sol\":1248:1255  owner() */\n      jump\t// in\n    tag_425:\n        /* \"@openzeppelin/contracts/access/Ownable.sol\":1248:1271  owner() == _msgSender() */\n      0xffffffffffffffffffffffffffffffffffffffff\n      and\n      eq\n        /* \"@openzeppelin/contracts/access/Ownable.sol\":1240:1308  require(owner() == _msgSender(), \"Ownable: caller is not the owner\") */\n      tag_426\n      jumpi\n      mload(0x40)\n      0x08c379a000000000000000000000000000000000000000000000000000000000\n      dup2\n      mstore\n      0x04\n      add\n      tag_427\n      swap1\n      tag_183\n      jump\t// in\n    tag_427:\n      mload(0x40)\n      dup1\n      swap2\n      sub\n      swap1\n      revert\n    tag_426:\n        /* \"@openzeppelin/contracts/access/Ownable.sol\":2026:2027  0 */\n      0x00\n        /* \"@openzeppelin/contracts/access/Ownable.sol\":2006:2028  newOwner != address(0) */\n      0xffffffffffffffffffffffffffffffffffffffff\n      and\n        /* \"@openzeppelin/contracts/access/Ownable.sol\":2006:2014  newOwner */\n      dup2\n        /* \"@openzeppelin/contracts/access/Ownable.sol\":2006:2028  newOwner != address(0) */\n      0xffffffffffffffffffffffffffffffffffffffff\n      and\n      sub\n        /* \"@openzeppelin/contracts/access/Ownable.sol\":1998:2071  require(newOwner != address(0), \"Ownable: new owner is the zero address\") */\n      tag_429\n      jumpi\n      mload(0x40)\n      0x08c379a000000000000000000000000000000000000000000000000000000000\n      dup2\n      mstore\n      0x04\n      add\n      tag_430\n      swap1\n      tag_431\n      jump\t// in\n    tag_430:\n      mload(0x40)\n      dup1\n      swap2\n      sub\n      swap1\n      revert\n    tag_429:\n        /* \"@openzeppelin/contracts/access/Ownable.sol\":2081:2109  _transferOwnership(newOwner) */\n      tag_432\n        /* \"@openzeppelin/contracts/access/Ownable.sol\":2100:2108  newOwner */\n      dup2\n        /* \"@openzeppelin/contracts/access/Ownable.sol\":2081:2099  _transferOwnership */\n      tag_310\n        /* \"@openzeppelin/contracts/access/Ownable.sol\":2081:2109  _transferOwnership(newOwner) */\n      jump\t// in\n    tag_432:\n        /* \"@openzeppelin/contracts/access/Ownable.sol\":1918:2116  function transferOwnership(address newOwner) public virtual onlyOwner {... */\n      pop\n      jump\t// out\n        /* \"contracts/SyCrowBarter.sol\":7029:8038  function _tradeTokenForEth(uint256 inAmount) internal {... */\n    tag_142:\n        /* \"contracts/SyCrowBarter.sol\":7169:7177  inAmount */\n      dup1\n        /* \"contracts/SyCrowBarter.sol\":7121:7142  _expectedTokenAddress */\n      0x05\n      0x00\n      swap1\n      sload\n      swap1\n      0x0100\n      exp\n      swap1\n      div\n      0xffffffffffffffffffffffffffffffffffffffff\n      and\n        /* \"contracts/SyCrowBarter.sol\":7114:7153  IERC20(_expectedTokenAddress).balanceOf */\n      0xffffffffffffffffffffffffffffffffffffffff\n      and\n      0x70a08231\n        /* \"contracts/SyCrowBarter.sol\":7154:7164  msg.sender */\n      caller\n        /* \"contracts/SyCrowBarter.sol\":7114:7165  IERC20(_expectedTokenAddress).balanceOf(msg.sender) */\n      mload(0x40)\n      dup3\n      0xffffffff\n      and\n      0xe0\n      shl\n      dup2\n      mstore\n      0x04\n      add\n      tag_434\n      swap2\n      swap1\n      tag_78\n      jump\t// in\n    tag_434:\n      0x20\n      mload(0x40)\n      dup1\n      dup4\n      sub\n      dup2\n      dup7\n      gas\n      staticcall\n      iszero\n      dup1\n      iszero\n      tag_436\n      jumpi\n      returndatasize\n      0x00\n      dup1\n      returndatacopy\n      revert(0x00, returndatasize)\n    tag_436:\n      pop\n      pop\n      pop\n      pop\n      mload(0x40)\n      returndatasize\n      not(0x1f)\n      0x1f\n      dup3\n      add\n      and\n      dup3\n      add\n      dup1\n      0x40\n      mstore\n      pop\n      dup2\n      add\n      swap1\n      tag_437\n      swap2\n      swap1\n      tag_189\n      jump\t// in\n    tag_437:\n        /* \"contracts/SyCrowBarter.sol\":7114:7177  IERC20(_expectedTokenAddress).balanceOf(msg.sender) >= inAmount */\n      lt\n      iszero\n        /* \"contracts/SyCrowBarter.sol\":7093:7237  require(... */\n      tag_438\n      jumpi\n      mload(0x40)\n      0x08c379a000000000000000000000000000000000000000000000000000000000\n      dup2\n      mstore\n      0x04\n      add\n      tag_439\n      swap1\n      tag_440\n      jump\t// in\n    tag_439:\n      mload(0x40)\n      dup1\n      swap2\n      sub\n      swap1\n      revert\n    tag_438:\n        /* \"contracts/SyCrowBarter.sol\":7248:7265  uint256 outAmount */\n      0x00\n        /* \"contracts/SyCrowBarter.sol\":7268:7296  _getTradeOutAmount(inAmount) */\n      tag_441\n        /* \"contracts/SyCrowBarter.sol\":7287:7295  inAmount */\n      dup3\n        /* \"contracts/SyCrowBarter.sol\":7268:7286  _getTradeOutAmount */\n      tag_387\n        /* \"contracts/SyCrowBarter.sol\":7268:7296  _getTradeOutAmount(inAmount) */\n      jump\t// in\n    tag_441:\n        /* \"contracts/SyCrowBarter.sol\":7248:7296  uint256 outAmount = _getTradeOutAmount(inAmount) */\n      swap1\n      pop\n        /* \"contracts/SyCrowBarter.sol\":7307:7318  IWETH _weth */\n      0x00\n        /* \"contracts/SyCrowBarter.sol\":7327:7331  WETH */\n      0x02\n      0x00\n      swap1\n      sload\n      swap1\n      0x0100\n      exp\n      swap1\n      div\n      0xffffffffffffffffffffffffffffffffffffffff\n      and\n        /* \"contracts/SyCrowBarter.sol\":7307:7332  IWETH _weth = IWETH(WETH) */\n      swap1\n      pop\n        /* \"contracts/SyCrowBarter.sol\":7398:7407  outAmount */\n      dup2\n        /* \"contracts/SyCrowBarter.sol\":7364:7369  _weth */\n      dup2\n        /* \"contracts/SyCrowBarter.sol\":7364:7379  _weth.balanceOf */\n      0xffffffffffffffffffffffffffffffffffffffff\n      and\n      0x70a08231\n        /* \"contracts/SyCrowBarter.sol\":7388:7392  this */\n      address\n        /* \"contracts/SyCrowBarter.sol\":7364:7394  _weth.balanceOf(address(this)) */\n      mload(0x40)\n      dup3\n      0xffffffff\n      and\n      0xe0\n      shl\n      dup2\n      mstore\n      0x04\n      add\n      tag_442\n      swap2\n      swap1\n      tag_78\n      jump\t// in\n    tag_442:\n      0x20\n      mload(0x40)\n      dup1\n      dup4\n      sub\n      dup2\n      dup7\n      gas\n      staticcall\n      iszero\n      dup1\n      iszero\n      tag_444\n      jumpi\n      returndatasize\n      0x00\n      dup1\n      returndatacopy\n      revert(0x00, returndatasize)\n    tag_444:\n      pop\n      pop\n      pop\n      pop\n      mload(0x40)\n      returndatasize\n      not(0x1f)\n      0x1f\n      dup3\n      add\n      and\n      dup3\n      add\n      dup1\n      0x40\n      mstore\n      pop\n      dup2\n      add\n      swap1\n      tag_445\n      swap2\n      swap1\n      tag_189\n      jump\t// in\n    tag_445:\n        /* \"contracts/SyCrowBarter.sol\":7364:7407  _weth.balanceOf(address(this)) >= outAmount */\n      lt\n      iszero\n        /* \"contracts/SyCrowBarter.sol\":7343:7476  require(... */\n      tag_446\n      jumpi\n      mload(0x40)\n      0x08c379a000000000000000000000000000000000000000000000000000000000\n      dup2\n      mstore\n      0x04\n      add\n      tag_447\n      swap1\n      tag_448\n      jump\t// in\n    tag_447:\n      mload(0x40)\n      dup1\n      swap2\n      sub\n      swap1\n      revert\n    tag_446:\n        /* \"contracts/SyCrowBarter.sol\":7493:7497  WETH */\n      0x02\n      0x00\n      swap1\n      sload\n      swap1\n      0x0100\n      exp\n      swap1\n      div\n      0xffffffffffffffffffffffffffffffffffffffff\n      and\n        /* \"contracts/SyCrowBarter.sol\":7487:7507  IWETH(WETH).withdraw */\n      0xffffffffffffffffffffffffffffffffffffffff\n      and\n      0x2e1a7d4d\n        /* \"contracts/SyCrowBarter.sol\":7508:7517  outAmount */\n      dup4\n        /* \"contracts/SyCrowBarter.sol\":7487:7518  IWETH(WETH).withdraw(outAmount) */\n      mload(0x40)\n      dup3\n      0xffffffff\n      and\n      0xe0\n      shl\n      dup2\n      mstore\n      0x04\n      add\n      tag_449\n      swap2\n      swap1\n      tag_70\n      jump\t// in\n    tag_449:\n      0x00\n      mload(0x40)\n      dup1\n      dup4\n      sub\n      dup2\n      0x00\n      dup8\n      dup1\n      extcodesize\n      iszero\n      dup1\n      iszero\n      tag_450\n      jumpi\n      0x00\n      dup1\n      revert\n    tag_450:\n      pop\n      gas\n      call\n      iszero\n      dup1\n      iszero\n      tag_452\n      jumpi\n      returndatasize\n      0x00\n      dup1\n      returndatacopy\n      revert(0x00, returndatasize)\n    tag_452:\n      pop\n      pop\n      pop\n      pop\n        /* \"contracts/SyCrowBarter.sol\":7529:7678  TransferHelper.safeTransferFrom(... */\n      tag_453\n        /* \"contracts/SyCrowBarter.sol\":7574:7595  _expectedTokenAddress */\n      0x05\n      0x00\n      swap1\n      sload\n      swap1\n      0x0100\n      exp\n      swap1\n      div\n      0xffffffffffffffffffffffffffffffffffffffff\n      and\n        /* \"contracts/SyCrowBarter.sol\":7609:7619  msg.sender */\n      caller\n        /* \"contracts/SyCrowBarter.sol\":7641:7645  this */\n      address\n        /* \"contracts/SyCrowBarter.sol\":7660:7668  inAmount */\n      dup7\n        /* \"contracts/SyCrowBarter.sol\":7529:7560  TransferHelper.safeTransferFrom */\n      tag_454\n        /* \"contracts/SyCrowBarter.sol\":7529:7678  TransferHelper.safeTransferFrom(... */\n      jump\t// in\n    tag_453:\n        /* \"contracts/SyCrowBarter.sol\":7688:7741  TransferHelper.safeTransferETH(msg.sender, outAmount) */\n      tag_455\n        /* \"contracts/SyCrowBarter.sol\":7719:7729  msg.sender */\n      caller\n        /* \"contracts/SyCrowBarter.sol\":7731:7740  outAmount */\n      dup4\n        /* \"contracts/SyCrowBarter.sol\":7688:7718  TransferHelper.safeTransferETH */\n      tag_196\n        /* \"contracts/SyCrowBarter.sol\":7688:7741  TransferHelper.safeTransferETH(msg.sender, outAmount) */\n      jump\t// in\n    tag_455:\n        /* \"contracts/SyCrowBarter.sol\":7752:7759  _trades */\n      0x09\n        /* \"contracts/SyCrowBarter.sol\":7765:7808  BaterTrade(msg.sender, inAmount, outAmount) */\n      mload(0x40)\n      dup1\n      0x60\n      add\n      0x40\n      mstore\n      dup1\n        /* \"contracts/SyCrowBarter.sol\":7776:7786  msg.sender */\n      caller\n        /* \"contracts/SyCrowBarter.sol\":7765:7808  BaterTrade(msg.sender, inAmount, outAmount) */\n      0xffffffffffffffffffffffffffffffffffffffff\n      and\n      dup2\n      mstore\n      0x20\n      add\n        /* \"contracts/SyCrowBarter.sol\":7788:7796  inAmount */\n      dup6\n        /* \"contracts/SyCrowBarter.sol\":7765:7808  BaterTrade(msg.sender, inAmount, outAmount) */\n      dup2\n      mstore\n      0x20\n      add\n        /* \"contracts/SyCrowBarter.sol\":7798:7807  outAmount */\n      dup5\n        /* \"contracts/SyCrowBarter.sol\":7765:7808  BaterTrade(msg.sender, inAmount, outAmount) */\n      dup2\n      mstore\n      pop\n        /* \"contracts/SyCrowBarter.sol\":7752:7809  _trades.push(BaterTrade(msg.sender, inAmount, outAmount)) */\n      swap1\n      dup1\n      0x01\n      dup2\n      sload\n      add\n      dup1\n      dup3\n      sstore\n      dup1\n      swap2\n      pop\n      pop\n      0x01\n      swap1\n      sub\n      swap1\n      0x00\n      mstore\n      keccak256(0x00, 0x20)\n      swap1\n      0x03\n      mul\n      add\n      0x00\n      swap1\n      swap2\n      swap1\n      swap2\n      swap1\n      swap2\n      pop\n      0x00\n      dup3\n      add\n      mload\n      dup2\n      0x00\n      add\n      exp(0x0100, 0x00)\n      dup2\n      sload\n      dup2\n      0xffffffffffffffffffffffffffffffffffffffff\n      mul\n      not\n      and\n      swap1\n      dup4\n      0xffffffffffffffffffffffffffffffffffffffff\n      and\n      mul\n      or\n      swap1\n      sstore\n      pop\n      0x20\n      dup3\n      add\n      mload\n      dup2\n      0x01\n      add\n      sstore\n      0x40\n      dup3\n      add\n      mload\n      dup2\n      0x02\n      add\n      sstore\n      pop\n      pop\n        /* \"contracts/SyCrowBarter.sol\":7820:7852  ISyCrowBarterFactory sycrFactory */\n      0x00\n        /* \"contracts/SyCrowBarter.sol\":7876:7883  factory */\n      immutable(\"0x26a975632f70533c9512e57b565b8ce8e2befee6b08dfbc27c4a897a20e2c1d6\")\n        /* \"contracts/SyCrowBarter.sol\":7820:7884  ISyCrowBarterFactory sycrFactory = ISyCrowBarterFactory(factory) */\n      swap1\n      pop\n        /* \"contracts/SyCrowBarter.sol\":7894:7905  sycrFactory */\n      dup1\n        /* \"contracts/SyCrowBarter.sol\":7894:7925  sycrFactory.notifyTradeByBarter */\n      0xffffffffffffffffffffffffffffffffffffffff\n      and\n      0xf52701b7\n        /* \"contracts/SyCrowBarter.sol\":7947:7951  this */\n      address\n        /* \"contracts/SyCrowBarter.sol\":7966:7976  msg.sender */\n      caller\n        /* \"contracts/SyCrowBarter.sol\":7990:7998  inAmount */\n      dup8\n        /* \"contracts/SyCrowBarter.sol\":8012:8021  outAmount */\n      dup8\n        /* \"contracts/SyCrowBarter.sol\":7894:8031  sycrFactory.notifyTradeByBarter(... */\n      mload(0x40)\n      dup6\n      0xffffffff\n      and\n      0xe0\n      shl\n      dup2\n      mstore\n      0x04\n      add\n      tag_457\n      swap5\n      swap4\n      swap3\n      swap2\n      swap1\n      tag_223\n      jump\t// in\n    tag_457:\n      0x00\n      mload(0x40)\n      dup1\n      dup4\n      sub\n      dup2\n      0x00\n      dup8\n      dup1\n      extcodesize\n      iszero\n      dup1\n      iszero\n      tag_458\n      jumpi\n      0x00\n      dup1\n      revert\n    tag_458:\n      pop\n      gas\n      call\n      iszero\n      dup1\n      iszero\n      tag_460\n      jumpi\n      returndatasize\n      0x00\n      dup1\n      returndatacopy\n      revert(0x00, returndatasize)\n    tag_460:\n      pop\n      pop\n      pop\n      pop\n        /* \"contracts/SyCrowBarter.sol\":7083:8038  {... */\n      pop\n      pop\n      pop\n        /* \"contracts/SyCrowBarter.sol\":7029:8038  function _tradeTokenForEth(uint256 inAmount) internal {... */\n      pop\n      jump\t// out\n        /* \"contracts/SyCrowBarter.sol\":5982:7023  function _tradeTokenForToken(uint256 inAmount) internal {... */\n    tag_168:\n        /* \"contracts/SyCrowBarter.sol\":6124:6132  inAmount */\n      dup1\n        /* \"contracts/SyCrowBarter.sol\":6076:6097  _expectedTokenAddress */\n      0x05\n      0x00\n      swap1\n      sload\n      swap1\n      0x0100\n      exp\n      swap1\n      div\n      0xffffffffffffffffffffffffffffffffffffffff\n      and\n        /* \"contracts/SyCrowBarter.sol\":6069:6108  IERC20(_expectedTokenAddress).balanceOf */\n      0xffffffffffffffffffffffffffffffffffffffff\n      and\n      0x70a08231\n        /* \"contracts/SyCrowBarter.sol\":6109:6119  msg.sender */\n      caller\n        /* \"contracts/SyCrowBarter.sol\":6069:6120  IERC20(_expectedTokenAddress).balanceOf(msg.sender) */\n      mload(0x40)\n      dup3\n      0xffffffff\n      and\n      0xe0\n      shl\n      dup2\n      mstore\n      0x04\n      add\n      tag_462\n      swap2\n      swap1\n      tag_78\n      jump\t// in\n    tag_462:\n      0x20\n      mload(0x40)\n      dup1\n      dup4\n      sub\n      dup2\n      dup7\n      gas\n      staticcall\n      iszero\n      dup1\n      iszero\n      tag_464\n      jumpi\n      returndatasize\n      0x00\n      dup1\n      returndatacopy\n      revert(0x00, returndatasize)\n    tag_464:\n      pop\n      pop\n      pop\n      pop\n      mload(0x40)\n      returndatasize\n      not(0x1f)\n      0x1f\n      dup3\n      add\n      and\n      dup3\n      add\n      dup1\n      0x40\n      mstore\n      pop\n      dup2\n      add\n      swap1\n      tag_465\n      swap2\n      swap1\n      tag_189\n      jump\t// in\n    tag_465:\n        /* \"contracts/SyCrowBarter.sol\":6069:6132  IERC20(_expectedTokenAddress).balanceOf(msg.sender) >= inAmount */\n      lt\n      iszero\n        /* \"contracts/SyCrowBarter.sol\":6048:6192  require(... */\n      tag_466\n      jumpi\n      mload(0x40)\n      0x08c379a000000000000000000000000000000000000000000000000000000000\n      dup2\n      mstore\n      0x04\n      add\n      tag_467\n      swap1\n      tag_440\n      jump\t// in\n    tag_467:\n      mload(0x40)\n      dup1\n      swap2\n      sub\n      swap1\n      revert\n    tag_466:\n        /* \"contracts/SyCrowBarter.sol\":6203:6220  uint256 outAmount */\n      0x00\n        /* \"contracts/SyCrowBarter.sol\":6223:6251  _getTradeOutAmount(inAmount) */\n      tag_468\n        /* \"contracts/SyCrowBarter.sol\":6242:6250  inAmount */\n      dup3\n        /* \"contracts/SyCrowBarter.sol\":6223:6241  _getTradeOutAmount */\n      tag_387\n        /* \"contracts/SyCrowBarter.sol\":6223:6251  _getTradeOutAmount(inAmount) */\n      jump\t// in\n    tag_468:\n        /* \"contracts/SyCrowBarter.sol\":6203:6251  uint256 outAmount = _getTradeOutAmount(inAmount) */\n      swap1\n      pop\n        /* \"contracts/SyCrowBarter.sol\":6358:6367  outAmount */\n      dup1\n        /* \"contracts/SyCrowBarter.sol\":6290:6312  _depositedTokenAddress */\n      0x04\n      0x01\n      swap1\n      sload\n      swap1\n      0x0100\n      exp\n      swap1\n      div\n      0xffffffffffffffffffffffffffffffffffffffff\n      and\n        /* \"contracts/SyCrowBarter.sol\":6283:6323  IERC20(_depositedTokenAddress).balanceOf */\n      0xffffffffffffffffffffffffffffffffffffffff\n      and\n      0x70a08231\n        /* \"contracts/SyCrowBarter.sol\":6332:6336  this */\n      address\n        /* \"contracts/SyCrowBarter.sol\":6283:6338  IERC20(_depositedTokenAddress).balanceOf(address(this)) */\n      mload(0x40)\n      dup3\n      0xffffffff\n      and\n      0xe0\n      shl\n      dup2\n      mstore\n      0x04\n      add\n      tag_469\n      swap2\n      swap1\n      tag_78\n      jump\t// in\n    tag_469:\n      0x20\n      mload(0x40)\n      dup1\n      dup4\n      sub\n      dup2\n      dup7\n      gas\n      staticcall\n      iszero\n      dup1\n      iszero\n      tag_471\n      jumpi\n      returndatasize\n      0x00\n      dup1\n      returndatacopy\n      revert(0x00, returndatasize)\n    tag_471:\n      pop\n      pop\n      pop\n      pop\n      mload(0x40)\n      returndatasize\n      not(0x1f)\n      0x1f\n      dup3\n      add\n      and\n      dup3\n      add\n      dup1\n      0x40\n      mstore\n      pop\n      dup2\n      add\n      swap1\n      tag_472\n      swap2\n      swap1\n      tag_189\n      jump\t// in\n    tag_472:\n        /* \"contracts/SyCrowBarter.sol\":6283:6367  IERC20(_depositedTokenAddress).balanceOf(address(this)) >=... */\n      lt\n      iszero\n        /* \"contracts/SyCrowBarter.sol\":6262:6436  require(... */\n      tag_473\n      jumpi\n      mload(0x40)\n      0x08c379a000000000000000000000000000000000000000000000000000000000\n      dup2\n      mstore\n      0x04\n      add\n      tag_474\n      swap1\n      tag_448\n      jump\t// in\n    tag_474:\n      mload(0x40)\n      dup1\n      swap2\n      sub\n      swap1\n      revert\n    tag_473:\n        /* \"contracts/SyCrowBarter.sol\":6447:6596  TransferHelper.safeTransferFrom(... */\n      tag_475\n        /* \"contracts/SyCrowBarter.sol\":6492:6513  _expectedTokenAddress */\n      0x05\n      0x00\n      swap1\n      sload\n      swap1\n      0x0100\n      exp\n      swap1\n      div\n      0xffffffffffffffffffffffffffffffffffffffff\n      and\n        /* \"contracts/SyCrowBarter.sol\":6527:6537  msg.sender */\n      caller\n        /* \"contracts/SyCrowBarter.sol\":6559:6563  this */\n      address\n        /* \"contracts/SyCrowBarter.sol\":6578:6586  inAmount */\n      dup6\n        /* \"contracts/SyCrowBarter.sol\":6447:6478  TransferHelper.safeTransferFrom */\n      tag_454\n        /* \"contracts/SyCrowBarter.sol\":6447:6596  TransferHelper.safeTransferFrom(... */\n      jump\t// in\n    tag_475:\n        /* \"contracts/SyCrowBarter.sol\":6606:6726  TransferHelper.safeTransfer(... */\n      tag_476\n        /* \"contracts/SyCrowBarter.sol\":6647:6669  _depositedTokenAddress */\n      0x04\n      0x01\n      swap1\n      sload\n      swap1\n      0x0100\n      exp\n      swap1\n      div\n      0xffffffffffffffffffffffffffffffffffffffff\n      and\n        /* \"contracts/SyCrowBarter.sol\":6683:6693  msg.sender */\n      caller\n        /* \"contracts/SyCrowBarter.sol\":6707:6716  outAmount */\n      dup4\n        /* \"contracts/SyCrowBarter.sol\":6606:6633  TransferHelper.safeTransfer */\n      tag_203\n        /* \"contracts/SyCrowBarter.sol\":6606:6726  TransferHelper.safeTransfer(... */\n      jump\t// in\n    tag_476:\n        /* \"contracts/SyCrowBarter.sol\":6737:6744  _trades */\n      0x09\n        /* \"contracts/SyCrowBarter.sol\":6750:6793  BaterTrade(msg.sender, inAmount, outAmount) */\n      mload(0x40)\n      dup1\n      0x60\n      add\n      0x40\n      mstore\n      dup1\n        /* \"contracts/SyCrowBarter.sol\":6761:6771  msg.sender */\n      caller\n        /* \"contracts/SyCrowBarter.sol\":6750:6793  BaterTrade(msg.sender, inAmount, outAmount) */\n      0xffffffffffffffffffffffffffffffffffffffff\n      and\n      dup2\n      mstore\n      0x20\n      add\n        /* \"contracts/SyCrowBarter.sol\":6773:6781  inAmount */\n      dup5\n        /* \"contracts/SyCrowBarter.sol\":6750:6793  BaterTrade(msg.sender, inAmount, outAmount) */\n      dup2\n      mstore\n      0x20\n      add\n        /* \"contracts/SyCrowBarter.sol\":6783:6792  outAmount */\n      dup4\n        /* \"contracts/SyCrowBarter.sol\":6750:6793  BaterTrade(msg.sender, inAmount, outAmount) */\n      dup2\n      mstore\n      pop\n        /* \"contracts/SyCrowBarter.sol\":6737:6794  _trades.push(BaterTrade(msg.sender, inAmount, outAmount)) */\n      swap1\n      dup1\n      0x01\n      dup2\n      sload\n      add\n      dup1\n      dup3\n      sstore\n      dup1\n      swap2\n      pop\n      pop\n      0x01\n      swap1\n      sub\n      swap1\n      0x00\n      mstore\n      keccak256(0x00, 0x20)\n      swap1\n      0x03\n      mul\n      add\n      0x00\n      swap1\n      swap2\n      swap1\n      swap2\n      swap1\n      swap2\n      pop\n      0x00\n      dup3\n      add\n      mload\n      dup2\n      0x00\n      add\n      exp(0x0100, 0x00)\n      dup2\n      sload\n      dup2\n      0xffffffffffffffffffffffffffffffffffffffff\n      mul\n      not\n      and\n      swap1\n      dup4\n      0xffffffffffffffffffffffffffffffffffffffff\n      and\n      mul\n      or\n      swap1\n      sstore\n      pop\n      0x20\n      dup3\n      add\n      mload\n      dup2\n      0x01\n      add\n      sstore\n      0x40\n      dup3\n      add\n      mload\n      dup2\n      0x02\n      add\n      sstore\n      pop\n      pop\n        /* \"contracts/SyCrowBarter.sol\":6805:6837  ISyCrowBarterFactory sycrFactory */\n      0x00\n        /* \"contracts/SyCrowBarter.sol\":6861:6868  factory */\n      immutable(\"0x26a975632f70533c9512e57b565b8ce8e2befee6b08dfbc27c4a897a20e2c1d6\")\n        /* \"contracts/SyCrowBarter.sol\":6805:6869  ISyCrowBarterFactory sycrFactory = ISyCrowBarterFactory(factory) */\n      swap1\n      pop\n        /* \"contracts/SyCrowBarter.sol\":6879:6890  sycrFactory */\n      dup1\n        /* \"contracts/SyCrowBarter.sol\":6879:6910  sycrFactory.notifyTradeByBarter */\n      0xffffffffffffffffffffffffffffffffffffffff\n      and\n      0xf52701b7\n        /* \"contracts/SyCrowBarter.sol\":6932:6936  this */\n      address\n        /* \"contracts/SyCrowBarter.sol\":6951:6961  msg.sender */\n      caller\n        /* \"contracts/SyCrowBarter.sol\":6975:6983  inAmount */\n      dup7\n        /* \"contracts/SyCrowBarter.sol\":6997:7006  outAmount */\n      dup7\n        /* \"contracts/SyCrowBarter.sol\":6879:7016  sycrFactory.notifyTradeByBarter(... */\n      mload(0x40)\n      dup6\n      0xffffffff\n      and\n      0xe0\n      shl\n      dup2\n      mstore\n      0x04\n      add\n      tag_478\n      swap5\n      swap4\n      swap3\n      swap2\n      swap1\n      tag_223\n      jump\t// in\n    tag_478:\n      0x00\n      mload(0x40)\n      dup1\n      dup4\n      sub\n      dup2\n      0x00\n      dup8\n      dup1\n      extcodesize\n      iszero\n      dup1\n      iszero\n      tag_479\n      jumpi\n      0x00\n      dup1\n      revert\n    tag_479:\n      pop\n      gas\n      call\n      iszero\n      dup1\n      iszero\n      tag_481\n      jumpi\n      returndatasize\n      0x00\n      dup1\n      returndatacopy\n      revert(0x00, returndatasize)\n    tag_481:\n      pop\n      pop\n      pop\n      pop\n        /* \"contracts/SyCrowBarter.sol\":6038:7023  {... */\n      pop\n      pop\n        /* \"contracts/SyCrowBarter.sol\":5982:7023  function _tradeTokenForToken(uint256 inAmount) internal {... */\n      pop\n      jump\t// out\n        /* \"@openzeppelin/contracts/utils/Context.sol\":640:736  function _msgSender() internal view virtual returns (address) {... */\n    tag_179:\n        /* \"@openzeppelin/contracts/utils/Context.sol\":693:700  address */\n      0x00\n        /* \"@openzeppelin/contracts/utils/Context.sol\":719:729  msg.sender */\n      caller\n        /* \"@openzeppelin/contracts/utils/Context.sol\":712:729  return msg.sender */\n      swap1\n      pop\n        /* \"@openzeppelin/contracts/utils/Context.sol\":640:736  function _msgSender() internal view virtual returns (address) {... */\n      swap1\n      jump\t// out\n        /* \"contracts/libraries/TransferHelper.sol\":1333:1525  function safeTransferETH(address to, uint value) internal {... */\n    tag_196:\n        /* \"contracts/libraries/TransferHelper.sol\":1402:1414  bool success */\n      0x00\n        /* \"contracts/libraries/TransferHelper.sol\":1419:1421  to */\n      dup3\n        /* \"contracts/libraries/TransferHelper.sol\":1419:1426  to.call */\n      0xffffffffffffffffffffffffffffffffffffffff\n      and\n        /* \"contracts/libraries/TransferHelper.sol\":1433:1438  value */\n      dup3\n        /* \"contracts/libraries/TransferHelper.sol\":1450:1451  0 */\n      0x00\n        /* \"contracts/libraries/TransferHelper.sol\":1440:1452  new bytes(0) */\n      0xffffffffffffffff\n      dup2\n      gt\n      iszero\n      tag_484\n      jumpi\n      tag_485\n      tag_394\n      jump\t// in\n    tag_485:\n    tag_484:\n      mload(0x40)\n      swap1\n      dup1\n      dup3\n      mstore\n      dup1\n      0x1f\n      add\n      not(0x1f)\n      and\n      0x20\n      add\n      dup3\n      add\n      0x40\n      mstore\n      dup1\n      iszero\n      tag_486\n      jumpi\n      dup2\n      0x20\n      add\n      0x01\n      dup3\n      mul\n      dup1\n      calldatasize\n      dup4\n      calldatacopy\n      dup1\n      dup3\n      add\n      swap2\n      pop\n      pop\n      swap1\n      pop\n    tag_486:\n      pop\n        /* \"contracts/libraries/TransferHelper.sol\":1419:1453  to.call{value:value}(new bytes(0)) */\n      mload(0x40)\n      tag_487\n      swap2\n      swap1\n      tag_488\n      jump\t// in\n    tag_487:\n      0x00\n      mload(0x40)\n      dup1\n      dup4\n      sub\n      dup2\n      dup6\n      dup8\n      gas\n      call\n      swap3\n      pop\n      pop\n      pop\n      returndatasize\n      dup1\n      0x00\n      dup2\n      eq\n      tag_491\n      jumpi\n      mload(0x40)\n      swap2\n      pop\n      and(add(returndatasize, 0x3f), not(0x1f))\n      dup3\n      add\n      0x40\n      mstore\n      returndatasize\n      dup3\n      mstore\n      returndatasize\n      0x00\n      0x20\n      dup5\n      add\n      returndatacopy\n      jump(tag_490)\n    tag_491:\n      0x60\n      swap2\n      pop\n    tag_490:\n      pop\n        /* \"contracts/libraries/TransferHelper.sol\":1401:1453  (bool success,) = to.call{value:value}(new bytes(0)) */\n      pop\n      swap1\n      pop\n        /* \"contracts/libraries/TransferHelper.sol\":1471:1478  success */\n      dup1\n        /* \"contracts/libraries/TransferHelper.sol\":1463:1518  require(success, 'TransferHelper: ETH_TRANSFER_FAILED') */\n      tag_492\n      jumpi\n      mload(0x40)\n      0x08c379a000000000000000000000000000000000000000000000000000000000\n      dup2\n      mstore\n      0x04\n      add\n      tag_493\n      swap1\n      tag_494\n      jump\t// in\n    tag_493:\n      mload(0x40)\n      dup1\n      swap2\n      sub\n      swap1\n      revert\n    tag_492:\n        /* \"contracts/libraries/TransferHelper.sol\":1391:1525  {... */\n      pop\n        /* \"contracts/libraries/TransferHelper.sol\":1333:1525  function safeTransferETH(address to, uint value) internal {... */\n      pop\n      pop\n      jump\t// out\n        /* \"contracts/libraries/TransferHelper.sol\":566:923  function safeTransfer(address token, address to, uint value) internal {... */\n    tag_203:\n        /* \"contracts/libraries/TransferHelper.sol\":713:725  bool success */\n      0x00\n        /* \"contracts/libraries/TransferHelper.sol\":727:744  bytes memory data */\n      dup1\n        /* \"contracts/libraries/TransferHelper.sol\":748:753  token */\n      dup5\n        /* \"contracts/libraries/TransferHelper.sol\":748:758  token.call */\n      0xffffffffffffffffffffffffffffffffffffffff\n      and\n        /* \"contracts/libraries/TransferHelper.sol\":782:792  0xa9059cbb */\n      0xa9059cbb\n        /* \"contracts/libraries/TransferHelper.sol\":794:796  to */\n      dup6\n        /* \"contracts/libraries/TransferHelper.sol\":798:803  value */\n      dup6\n        /* \"contracts/libraries/TransferHelper.sol\":759:804  abi.encodeWithSelector(0xa9059cbb, to, value) */\n      add(0x24, mload(0x40))\n      tag_496\n      swap3\n      swap2\n      swap1\n      tag_497\n      jump\t// in\n    tag_496:\n      mload(0x40)\n      0x20\n      dup2\n      dup4\n      sub\n      sub\n      dup2\n      mstore\n      swap1\n      0x40\n      mstore\n      swap1\n      0xe0\n      shl\n      0x20\n      dup3\n      add\n      dup1\n      mload\n      0xffffffffffffffffffffffffffffffffffffffffffffffffffffffff\n      dup4\n      dup2\n      dup4\n      and\n      or\n      dup4\n      mstore\n      pop\n      pop\n      pop\n      pop\n        /* \"contracts/libraries/TransferHelper.sol\":748:805  token.call(abi.encodeWithSelector(0xa9059cbb, to, value)) */\n      mload(0x40)\n      tag_498\n      swap2\n      swap1\n      tag_488\n      jump\t// in\n    tag_498:\n      0x00\n      mload(0x40)\n      dup1\n      dup4\n      sub\n      dup2\n      0x00\n      dup7\n      gas\n      call\n      swap2\n      pop\n      pop\n      returndatasize\n      dup1\n      0x00\n      dup2\n      eq\n      tag_501\n      jumpi\n      mload(0x40)\n      swap2\n      pop\n      and(add(returndatasize, 0x3f), not(0x1f))\n      dup3\n      add\n      0x40\n      mstore\n      returndatasize\n      dup3\n      mstore\n      returndatasize\n      0x00\n      0x20\n      dup5\n      add\n      returndatacopy\n      jump(tag_500)\n    tag_501:\n      0x60\n      swap2\n      pop\n    tag_500:\n      pop\n        /* \"contracts/libraries/TransferHelper.sol\":712:805  (bool success, bytes memory data) = token.call(abi.encodeWithSelector(0xa9059cbb, to, value)) */\n      swap2\n      pop\n      swap2\n      pop\n        /* \"contracts/libraries/TransferHelper.sol\":823:830  success */\n      dup2\n        /* \"contracts/libraries/TransferHelper.sol\":823:880  success && (data.length == 0 || abi.decode(data, (bool))) */\n      dup1\n      iszero\n      tag_502\n      jumpi\n      pop\n        /* \"contracts/libraries/TransferHelper.sol\":850:851  0 */\n      0x00\n        /* \"contracts/libraries/TransferHelper.sol\":835:839  data */\n      dup2\n        /* \"contracts/libraries/TransferHelper.sol\":835:846  data.length */\n      mload\n        /* \"contracts/libraries/TransferHelper.sol\":835:851  data.length == 0 */\n      eq\n        /* \"contracts/libraries/TransferHelper.sol\":835:879  data.length == 0 || abi.decode(data, (bool)) */\n      dup1\n      tag_503\n      jumpi\n      pop\n        /* \"contracts/libraries/TransferHelper.sol\":866:870  data */\n      dup1\n        /* \"contracts/libraries/TransferHelper.sol\":855:879  abi.decode(data, (bool)) */\n      dup1\n      0x20\n      add\n      swap1\n      mload\n      dup2\n      add\n      swap1\n      tag_504\n      swap2\n      swap1\n      tag_123\n      jump\t// in\n    tag_504:\n        /* \"contracts/libraries/TransferHelper.sol\":835:879  data.length == 0 || abi.decode(data, (bool)) */\n    tag_503:\n        /* \"contracts/libraries/TransferHelper.sol\":823:880  success && (data.length == 0 || abi.decode(data, (bool))) */\n    tag_502:\n        /* \"contracts/libraries/TransferHelper.sol\":815:916  require(success && (data.length == 0 || abi.decode(data, (bool))), 'TransferHelper: TRANSFER_FAILED') */\n      tag_505\n      jumpi\n      mload(0x40)\n      0x08c379a000000000000000000000000000000000000000000000000000000000\n      dup2\n      mstore\n      0x04\n      add\n      tag_506\n      swap1\n      tag_507\n      jump\t// in\n    tag_506:\n      mload(0x40)\n      dup1\n      swap2\n      sub\n      swap1\n      revert\n    tag_505:\n        /* \"contracts/libraries/TransferHelper.sol\":636:923  {... */\n      pop\n      pop\n        /* \"contracts/libraries/TransferHelper.sol\":566:923  function safeTransfer(address token, address to, uint value) internal {... */\n      pop\n      pop\n      pop\n      jump\t// out\n        /* \"contracts/SyCrowBarter.sol\":8044:8900  function _tradeEthForToken(uint256 inAmount) internal {... */\n    tag_256:\n        /* \"contracts/SyCrowBarter.sol\":8128:8137  msg.value */\n      callvalue\n        /* \"contracts/SyCrowBarter.sol\":8116:8124  inAmount */\n      dup2\n        /* \"contracts/SyCrowBarter.sol\":8116:8137  inAmount == msg.value */\n      eq\n        /* \"contracts/SyCrowBarter.sol\":8108:8179  require(inAmount == msg.value, \"SyCrowBarter: MULTI_TRADE_NOT_ENABLED\") */\n      tag_509\n      jumpi\n      mload(0x40)\n      0x08c379a000000000000000000000000000000000000000000000000000000000\n      dup2\n      mstore\n      0x04\n      add\n      tag_510\n      swap1\n      tag_130\n      jump\t// in\n    tag_510:\n      mload(0x40)\n      dup1\n      swap2\n      sub\n      swap1\n      revert\n    tag_509:\n        /* \"contracts/SyCrowBarter.sol\":8190:8207  uint256 outAmount */\n      0x00\n        /* \"contracts/SyCrowBarter.sol\":8210:8238  _getTradeOutAmount(inAmount) */\n      tag_511\n        /* \"contracts/SyCrowBarter.sol\":8229:8237  inAmount */\n      dup3\n        /* \"contracts/SyCrowBarter.sol\":8210:8228  _getTradeOutAmount */\n      tag_387\n        /* \"contracts/SyCrowBarter.sol\":8210:8238  _getTradeOutAmount(inAmount) */\n      jump\t// in\n    tag_511:\n        /* \"contracts/SyCrowBarter.sol\":8190:8238  uint256 outAmount = _getTradeOutAmount(inAmount) */\n      swap1\n      pop\n        /* \"contracts/SyCrowBarter.sol\":8345:8354  outAmount */\n      dup1\n        /* \"contracts/SyCrowBarter.sol\":8277:8299  _depositedTokenAddress */\n      0x04\n      0x01\n      swap1\n      sload\n      swap1\n      0x0100\n      exp\n      swap1\n      div\n      0xffffffffffffffffffffffffffffffffffffffff\n      and\n        /* \"contracts/SyCrowBarter.sol\":8270:8310  IERC20(_depositedTokenAddress).balanceOf */\n      0xffffffffffffffffffffffffffffffffffffffff\n      and\n      0x70a08231\n        /* \"contracts/SyCrowBarter.sol\":8319:8323  this */\n      address\n        /* \"contracts/SyCrowBarter.sol\":8270:8325  IERC20(_depositedTokenAddress).balanceOf(address(this)) */\n      mload(0x40)\n      dup3\n      0xffffffff\n      and\n      0xe0\n      shl\n      dup2\n      mstore\n      0x04\n      add\n      tag_512\n      swap2\n      swap1\n      tag_78\n      jump\t// in\n    tag_512:\n      0x20\n      mload(0x40)\n      dup1\n      dup4\n      sub\n      dup2\n      dup7\n      gas\n      staticcall\n      iszero\n      dup1\n      iszero\n      tag_514\n      jumpi\n      returndatasize\n      0x00\n      dup1\n      returndatacopy\n      revert(0x00, returndatasize)\n    tag_514:\n      pop\n      pop\n      pop\n      pop\n      mload(0x40)\n      returndatasize\n      not(0x1f)\n      0x1f\n      dup3\n      add\n      and\n      dup3\n      add\n      dup1\n      0x40\n      mstore\n      pop\n      dup2\n      add\n      swap1\n      tag_515\n      swap2\n      swap1\n      tag_189\n      jump\t// in\n    tag_515:\n        /* \"contracts/SyCrowBarter.sol\":8270:8354  IERC20(_depositedTokenAddress).balanceOf(address(this)) >=... */\n      lt\n      iszero\n        /* \"contracts/SyCrowBarter.sol\":8249:8423  require(... */\n      tag_516\n      jumpi\n      mload(0x40)\n      0x08c379a000000000000000000000000000000000000000000000000000000000\n      dup2\n      mstore\n      0x04\n      add\n      tag_517\n      swap1\n      tag_448\n      jump\t// in\n    tag_517:\n      mload(0x40)\n      dup1\n      swap2\n      sub\n      swap1\n      revert\n    tag_516:\n        /* \"contracts/SyCrowBarter.sol\":8440:8444  WETH */\n      0x02\n      0x00\n      swap1\n      sload\n      swap1\n      0x0100\n      exp\n      swap1\n      div\n      0xffffffffffffffffffffffffffffffffffffffff\n      and\n        /* \"contracts/SyCrowBarter.sol\":8434:8453  IWETH(WETH).deposit */\n      0xffffffffffffffffffffffffffffffffffffffff\n      and\n      0xd0e30db0\n        /* \"contracts/SyCrowBarter.sol\":8461:8469  inAmount */\n      dup4\n        /* \"contracts/SyCrowBarter.sol\":8434:8472  IWETH(WETH).deposit{value: inAmount}() */\n      mload(0x40)\n      dup3\n      0xffffffff\n      and\n      0xe0\n      shl\n      dup2\n      mstore\n      0x04\n      add\n      0x00\n      mload(0x40)\n      dup1\n      dup4\n      sub\n      dup2\n      dup6\n      dup9\n      dup1\n      extcodesize\n      iszero\n      dup1\n      iszero\n      tag_518\n      jumpi\n      0x00\n      dup1\n      revert\n    tag_518:\n      pop\n      gas\n      call\n      iszero\n      dup1\n      iszero\n      tag_520\n      jumpi\n      returndatasize\n      0x00\n      dup1\n      returndatacopy\n      revert(0x00, returndatasize)\n    tag_520:\n      pop\n      pop\n      pop\n      pop\n      pop\n        /* \"contracts/SyCrowBarter.sol\":8483:8603  TransferHelper.safeTransfer(... */\n      tag_521\n        /* \"contracts/SyCrowBarter.sol\":8524:8546  _depositedTokenAddress */\n      0x04\n      0x01\n      swap1\n      sload\n      swap1\n      0x0100\n      exp\n      swap1\n      div\n      0xffffffffffffffffffffffffffffffffffffffff\n      and\n        /* \"contracts/SyCrowBarter.sol\":8560:8570  msg.sender */\n      caller\n        /* \"contracts/SyCrowBarter.sol\":8584:8593  outAmount */\n      dup4\n        /* \"contracts/SyCrowBarter.sol\":8483:8510  TransferHelper.safeTransfer */\n      tag_203\n        /* \"contracts/SyCrowBarter.sol\":8483:8603  TransferHelper.safeTransfer(... */\n      jump\t// in\n    tag_521:\n        /* \"contracts/SyCrowBarter.sol\":8614:8621  _trades */\n      0x09\n        /* \"contracts/SyCrowBarter.sol\":8627:8670  BaterTrade(msg.sender, inAmount, outAmount) */\n      mload(0x40)\n      dup1\n      0x60\n      add\n      0x40\n      mstore\n      dup1\n        /* \"contracts/SyCrowBarter.sol\":8638:8648  msg.sender */\n      caller\n        /* \"contracts/SyCrowBarter.sol\":8627:8670  BaterTrade(msg.sender, inAmount, outAmount) */\n      0xffffffffffffffffffffffffffffffffffffffff\n      and\n      dup2\n      mstore\n      0x20\n      add\n        /* \"contracts/SyCrowBarter.sol\":8650:8658  inAmount */\n      dup5\n        /* \"contracts/SyCrowBarter.sol\":8627:8670  BaterTrade(msg.sender, inAmount, outAmount) */\n      dup2\n      mstore\n      0x20\n      add\n        /* \"contracts/SyCrowBarter.sol\":8660:8669  outAmount */\n      dup4\n        /* \"contracts/SyCrowBarter.sol\":8627:8670  BaterTrade(msg.sender, inAmount, outAmount) */\n      dup2\n      mstore\n      pop\n        /* \"contracts/SyCrowBarter.sol\":8614:8671  _trades.push(BaterTrade(msg.sender, inAmount, outAmount)) */\n      swap1\n      dup1\n      0x01\n      dup2\n      sload\n      add\n      dup1\n      dup3\n      sstore\n      dup1\n      swap2\n      pop\n      pop\n      0x01\n      swap1\n      sub\n      swap1\n      0x00\n      mstore\n      keccak256(0x00, 0x20)\n      swap1\n      0x03\n      mul\n      add\n      0x00\n      swap1\n      swap2\n      swap1\n      swap2\n      swap1\n      swap2\n      pop\n      0x00\n      dup3\n      add\n      mload\n      dup2\n      0x00\n      add\n      exp(0x0100, 0x00)\n      dup2\n      sload\n      dup2\n      0xffffffffffffffffffffffffffffffffffffffff\n      mul\n      not\n      and\n      swap1\n      dup4\n      0xffffffffffffffffffffffffffffffffffffffff\n      and\n      mul\n      or\n      swap1\n      sstore\n      pop\n      0x20\n      dup3\n      add\n      mload\n      dup2\n      0x01\n      add\n      sstore\n      0x40\n      dup3\n      add\n      mload\n      dup2\n      0x02\n      add\n      sstore\n      pop\n      pop\n        /* \"contracts/SyCrowBarter.sol\":8682:8714  ISyCrowBarterFactory sycrFactory */\n      0x00\n        /* \"contracts/SyCrowBarter.sol\":8738:8745  factory */\n      immutable(\"0x26a975632f70533c9512e57b565b8ce8e2befee6b08dfbc27c4a897a20e2c1d6\")\n        /* \"contracts/SyCrowBarter.sol\":8682:8746  ISyCrowBarterFactory sycrFactory = ISyCrowBarterFactory(factory) */\n      swap1\n      pop\n        /* \"contracts/SyCrowBarter.sol\":8756:8767  sycrFactory */\n      dup1\n        /* \"contracts/SyCrowBarter.sol\":8756:8787  sycrFactory.notifyTradeByBarter */\n      0xffffffffffffffffffffffffffffffffffffffff\n      and\n      0xf52701b7\n        /* \"contracts/SyCrowBarter.sol\":8809:8813  this */\n      address\n        /* \"contracts/SyCrowBarter.sol\":8828:8838  msg.sender */\n      caller\n        /* \"contracts/SyCrowBarter.sol\":8852:8860  inAmount */\n      dup7\n        /* \"contracts/SyCrowBarter.sol\":8874:8883  outAmount */\n      dup7\n        /* \"contracts/SyCrowBarter.sol\":8756:8893  sycrFactory.notifyTradeByBarter(... */\n      mload(0x40)\n      dup6\n      0xffffffff\n      and\n      0xe0\n      shl\n      dup2\n      mstore\n      0x04\n      add\n      tag_523\n      swap5\n      swap4\n      swap3\n      swap2\n      swap1\n      tag_223\n      jump\t// in\n    tag_523:\n      0x00\n      mload(0x40)\n      dup1\n      dup4\n      sub\n      dup2\n      0x00\n      dup8\n      dup1\n      extcodesize\n      iszero\n      dup1\n      iszero\n      tag_524\n      jumpi\n      0x00\n      dup1\n      revert\n    tag_524:\n      pop\n      gas\n      call\n      iszero\n      dup1\n      iszero\n      tag_526\n      jumpi\n      returndatasize\n      0x00\n      dup1\n      returndatacopy\n      revert(0x00, returndatasize)\n    tag_526:\n      pop\n      pop\n      pop\n      pop\n        /* \"contracts/SyCrowBarter.sol\":8098:8900  {... */\n      pop\n      pop\n        /* \"contracts/SyCrowBarter.sol\":8044:8900  function _tradeEthForToken(uint256 inAmount) internal {... */\n      pop\n      jump\t// out\n        /* \"@openzeppelin/contracts/access/Ownable.sol\":2270:2457  function _transferOwnership(address newOwner) internal virtual {... */\n    tag_310:\n        /* \"@openzeppelin/contracts/access/Ownable.sol\":2343:2359  address oldOwner */\n      0x00\n        /* \"@openzeppelin/contracts/access/Ownable.sol\":2362:2368  _owner */\n      dup1\n      0x00\n      swap1\n      sload\n      swap1\n      0x0100\n      exp\n      swap1\n      div\n      0xffffffffffffffffffffffffffffffffffffffff\n      and\n        /* \"@openzeppelin/contracts/access/Ownable.sol\":2343:2368  address oldOwner = _owner */\n      swap1\n      pop\n        /* \"@openzeppelin/contracts/access/Ownable.sol\":2387:2395  newOwner */\n      dup2\n        /* \"@openzeppelin/contracts/access/Ownable.sol\":2378:2384  _owner */\n      0x00\n      dup1\n        /* \"@openzeppelin/contracts/access/Ownable.sol\":2378:2395  _owner = newOwner */\n      0x0100\n      exp\n      dup2\n      sload\n      dup2\n      0xffffffffffffffffffffffffffffffffffffffff\n      mul\n      not\n      and\n      swap1\n      dup4\n      0xffffffffffffffffffffffffffffffffffffffff\n      and\n      mul\n      or\n      swap1\n      sstore\n      pop\n        /* \"@openzeppelin/contracts/access/Ownable.sol\":2441:2449  newOwner */\n      dup2\n        /* \"@openzeppelin/contracts/access/Ownable.sol\":2410:2450  OwnershipTransferred(oldOwner, newOwner) */\n      0xffffffffffffffffffffffffffffffffffffffff\n      and\n        /* \"@openzeppelin/contracts/access/Ownable.sol\":2431:2439  oldOwner */\n      dup2\n        /* \"@openzeppelin/contracts/access/Ownable.sol\":2410:2450  OwnershipTransferred(oldOwner, newOwner) */\n      0xffffffffffffffffffffffffffffffffffffffff\n      and\n      0x8be0079c531659141344cd1fd0a4f28419497f9722a3daafe3b4186f6b6457e0\n      mload(0x40)\n      mload(0x40)\n      dup1\n      swap2\n      sub\n      swap1\n      log3\n        /* \"@openzeppelin/contracts/access/Ownable.sol\":2333:2457  {... */\n      pop\n        /* \"@openzeppelin/contracts/access/Ownable.sol\":2270:2457  function _transferOwnership(address newOwner) internal virtual {... */\n      pop\n      jump\t// out\n        /* \"contracts/SyCrowBarter.sol\":11493:11666  function _getTradeOutAmount(uint256 amount)... */\n    tag_387:\n        /* \"contracts/SyCrowBarter.sol\":11584:11591  uint256 */\n      0x00\n        /* \"contracts/SyCrowBarter.sol\":11644:11659  _expectedAmount */\n      sload(0x07)\n        /* \"contracts/SyCrowBarter.sol\":11624:11640  _depositedAmount */\n      sload(0x06)\n        /* \"contracts/SyCrowBarter.sol\":11615:11621  amount */\n      dup4\n        /* \"contracts/SyCrowBarter.sol\":11615:11640  amount * _depositedAmount */\n      tag_529\n      swap2\n      swap1\n      tag_530\n      jump\t// in\n    tag_529:\n        /* \"contracts/SyCrowBarter.sol\":11614:11659  (amount * _depositedAmount) / _expectedAmount */\n      tag_531\n      swap2\n      swap1\n      tag_532\n      jump\t// in\n    tag_531:\n        /* \"contracts/SyCrowBarter.sol\":11607:11659  return (amount * _depositedAmount) / _expectedAmount */\n      swap1\n      pop\n        /* \"contracts/SyCrowBarter.sol\":11493:11666  function _getTradeOutAmount(uint256 amount)... */\n      swap2\n      swap1\n      pop\n      jump\t// out\n        /* \"contracts/libraries/TransferHelper.sol\":929:1327  function safeTransferFrom(address token, address from, address to, uint value) internal {... */\n    tag_454:\n        /* \"contracts/libraries/TransferHelper.sol\":1106:1118  bool success */\n      0x00\n        /* \"contracts/libraries/TransferHelper.sol\":1120:1137  bytes memory data */\n      dup1\n        /* \"contracts/libraries/TransferHelper.sol\":1141:1146  token */\n      dup6\n        /* \"contracts/libraries/TransferHelper.sol\":1141:1151  token.call */\n      0xffffffffffffffffffffffffffffffffffffffff\n      and\n        /* \"contracts/libraries/TransferHelper.sol\":1175:1185  0x23b872dd */\n      0x23b872dd\n        /* \"contracts/libraries/TransferHelper.sol\":1187:1191  from */\n      dup7\n        /* \"contracts/libraries/TransferHelper.sol\":1193:1195  to */\n      dup7\n        /* \"contracts/libraries/TransferHelper.sol\":1197:1202  value */\n      dup7\n        /* \"contracts/libraries/TransferHelper.sol\":1152:1203  abi.encodeWithSelector(0x23b872dd, from, to, value) */\n      add(0x24, mload(0x40))\n      tag_534\n      swap4\n      swap3\n      swap2\n      swap1\n      tag_535\n      jump\t// in\n    tag_534:\n      mload(0x40)\n      0x20\n      dup2\n      dup4\n      sub\n      sub\n      dup2\n      mstore\n      swap1\n      0x40\n      mstore\n      swap1\n      0xe0\n      shl\n      0x20\n      dup3\n      add\n      dup1\n      mload\n      0xffffffffffffffffffffffffffffffffffffffffffffffffffffffff\n      dup4\n      dup2\n      dup4\n      and\n      or\n      dup4\n      mstore\n      pop\n      pop\n      pop\n      pop\n        /* \"contracts/libraries/TransferHelper.sol\":1141:1204  token.call(abi.encodeWithSelector(0x23b872dd, from, to, value)) */\n      mload(0x40)\n      tag_536\n      swap2\n      swap1\n      tag_488\n      jump\t// in\n    tag_536:\n      0x00\n      mload(0x40)\n      dup1\n      dup4\n      sub\n      dup2\n      0x00\n      dup7\n      gas\n      call\n      swap2\n      pop\n      pop\n      returndatasize\n      dup1\n      0x00\n      dup2\n      eq\n      tag_539\n      jumpi\n      mload(0x40)\n      swap2\n      pop\n      and(add(returndatasize, 0x3f), not(0x1f))\n      dup3\n      add\n      0x40\n      mstore\n      returndatasize\n      dup3\n      mstore\n      returndatasize\n      0x00\n      0x20\n      dup5\n      add\n      returndatacopy\n      jump(tag_538)\n    tag_539:\n      0x60\n      swap2\n      pop\n    tag_538:\n      pop\n        /* \"contracts/libraries/TransferHelper.sol\":1105:1204  (bool success, bytes memory data) = token.call(abi.encodeWithSelector(0x23b872dd, from, to, value)) */\n      swap2\n      pop\n      swap2\n      pop\n        /* \"contracts/libraries/TransferHelper.sol\":1222:1229  success */\n      dup2\n        /* \"contracts/libraries/TransferHelper.sol\":1222:1279  success && (data.length == 0 || abi.decode(data, (bool))) */\n      dup1\n      iszero\n      tag_540\n      jumpi\n      pop\n        /* \"contracts/libraries/TransferHelper.sol\":1249:1250  0 */\n      0x00\n        /* \"contracts/libraries/TransferHelper.sol\":1234:1238  data */\n      dup2\n        /* \"contracts/libraries/TransferHelper.sol\":1234:1245  data.length */\n      mload\n        /* \"contracts/libraries/TransferHelper.sol\":1234:1250  data.length == 0 */\n      eq\n        /* \"contracts/libraries/TransferHelper.sol\":1234:1278  data.length == 0 || abi.decode(data, (bool)) */\n      dup1\n      tag_541\n      jumpi\n      pop\n        /* \"contracts/libraries/TransferHelper.sol\":1265:1269  data */\n      dup1\n        /* \"contracts/libraries/TransferHelper.sol\":1254:1278  abi.decode(data, (bool)) */\n      dup1\n      0x20\n      add\n      swap1\n      mload\n      dup2\n      add\n      swap1\n      tag_542\n      swap2\n      swap1\n      tag_123\n      jump\t// in\n    tag_542:\n        /* \"contracts/libraries/TransferHelper.sol\":1234:1278  data.length == 0 || abi.decode(data, (bool)) */\n    tag_541:\n        /* \"contracts/libraries/TransferHelper.sol\":1222:1279  success && (data.length == 0 || abi.decode(data, (bool))) */\n    tag_540:\n        /* \"contracts/libraries/TransferHelper.sol\":1214:1320  require(success && (data.length == 0 || abi.decode(data, (bool))), 'TransferHelper: TRANSFER_FROM_FAILED') */\n      tag_543\n      jumpi\n      mload(0x40)\n      0x08c379a000000000000000000000000000000000000000000000000000000000\n      dup2\n      mstore\n      0x04\n      add\n      tag_544\n      swap1\n      tag_545\n      jump\t// in\n    tag_544:\n      mload(0x40)\n      dup1\n      swap2\n      sub\n      swap1\n      revert\n    tag_543:\n        /* \"contracts/libraries/TransferHelper.sol\":1017:1327  {... */\n      pop\n      pop\n        /* \"contracts/libraries/TransferHelper.sol\":929:1327  function safeTransferFrom(address token, address from, address to, uint value) internal {... */\n      pop\n      pop\n      pop\n      pop\n      jump\t// out\n        /* \"#utility.yul\":88:205   */\n    tag_547:\n        /* \"#utility.yul\":197:198   */\n      0x00\n        /* \"#utility.yul\":194:195   */\n      dup1\n        /* \"#utility.yul\":187:199   */\n      revert\n        /* \"#utility.yul\":334:411   */\n    tag_549:\n        /* \"#utility.yul\":371:378   */\n      0x00\n        /* \"#utility.yul\":400:405   */\n      dup2\n        /* \"#utility.yul\":389:405   */\n      swap1\n      pop\n        /* \"#utility.yul\":334:411   */\n      swap2\n      swap1\n      pop\n      jump\t// out\n        /* \"#utility.yul\":417:539   */\n    tag_550:\n        /* \"#utility.yul\":490:514   */\n      tag_631\n        /* \"#utility.yul\":508:513   */\n      dup2\n        /* \"#utility.yul\":490:514   */\n      tag_549\n      jump\t// in\n    tag_631:\n        /* \"#utility.yul\":483:488   */\n      dup2\n        /* \"#utility.yul\":480:515   */\n      eq\n        /* \"#utility.yul\":470:533   */\n      tag_632\n      jumpi\n        /* \"#utility.yul\":529:530   */\n      0x00\n        /* \"#utility.yul\":526:527   */\n      dup1\n        /* \"#utility.yul\":519:531   */\n      revert\n        /* \"#utility.yul\":470:533   */\n    tag_632:\n        /* \"#utility.yul\":417:539   */\n      pop\n      jump\t// out\n        /* \"#utility.yul\":545:684   */\n    tag_551:\n        /* \"#utility.yul\":591:596   */\n      0x00\n        /* \"#utility.yul\":629:635   */\n      dup2\n        /* \"#utility.yul\":616:636   */\n      calldataload\n        /* \"#utility.yul\":607:636   */\n      swap1\n      pop\n        /* \"#utility.yul\":645:678   */\n      tag_634\n        /* \"#utility.yul\":672:677   */\n      dup2\n        /* \"#utility.yul\":645:678   */\n      tag_550\n      jump\t// in\n    tag_634:\n        /* \"#utility.yul\":545:684   */\n      swap3\n      swap2\n      pop\n      pop\n      jump\t// out\n        /* \"#utility.yul\":690:1019   */\n    tag_28:\n        /* \"#utility.yul\":749:755   */\n      0x00\n        /* \"#utility.yul\":798:800   */\n      0x20\n        /* \"#utility.yul\":786:795   */\n      dup3\n        /* \"#utility.yul\":777:784   */\n      dup5\n        /* \"#utility.yul\":773:796   */\n      sub\n        /* \"#utility.yul\":769:801   */\n      slt\n        /* \"#utility.yul\":766:885   */\n      iszero\n      tag_636\n      jumpi\n        /* \"#utility.yul\":804:883   */\n      tag_637\n      tag_547\n      jump\t// in\n    tag_637:\n        /* \"#utility.yul\":766:885   */\n    tag_636:\n        /* \"#utility.yul\":924:925   */\n      0x00\n        /* \"#utility.yul\":949:1002   */\n      tag_638\n        /* \"#utility.yul\":994:1001   */\n      dup5\n        /* \"#utility.yul\":985:991   */\n      dup3\n        /* \"#utility.yul\":974:983   */\n      dup6\n        /* \"#utility.yul\":970:992   */\n      add\n        /* \"#utility.yul\":949:1002   */\n      tag_551\n      jump\t// in\n    tag_638:\n        /* \"#utility.yul\":939:1002   */\n      swap2\n      pop\n        /* \"#utility.yul\":895:1012   */\n      pop\n        /* \"#utility.yul\":690:1019   */\n      swap3\n      swap2\n      pop\n      pop\n      jump\t// out\n        /* \"#utility.yul\":1025:1115   */\n    tag_552:\n        /* \"#utility.yul\":1059:1066   */\n      0x00\n        /* \"#utility.yul\":1102:1107   */\n      dup2\n        /* \"#utility.yul\":1095:1108   */\n      iszero\n        /* \"#utility.yul\":1088:1109   */\n      iszero\n        /* \"#utility.yul\":1077:1109   */\n      swap1\n      pop\n        /* \"#utility.yul\":1025:1115   */\n      swap2\n      swap1\n      pop\n      jump\t// out\n        /* \"#utility.yul\":1121:1230   */\n    tag_553:\n        /* \"#utility.yul\":1202:1223   */\n      tag_641\n        /* \"#utility.yul\":1217:1222   */\n      dup2\n        /* \"#utility.yul\":1202:1223   */\n      tag_552\n      jump\t// in\n    tag_641:\n        /* \"#utility.yul\":1197:1200   */\n      dup3\n        /* \"#utility.yul\":1190:1224   */\n      mstore\n        /* \"#utility.yul\":1121:1230   */\n      pop\n      pop\n      jump\t// out\n        /* \"#utility.yul\":1236:1446   */\n    tag_38:\n        /* \"#utility.yul\":1323:1327   */\n      0x00\n        /* \"#utility.yul\":1361:1363   */\n      0x20\n        /* \"#utility.yul\":1350:1359   */\n      dup3\n        /* \"#utility.yul\":1346:1364   */\n      add\n        /* \"#utility.yul\":1338:1364   */\n      swap1\n      pop\n        /* \"#utility.yul\":1374:1439   */\n      tag_643\n        /* \"#utility.yul\":1436:1437   */\n      0x00\n        /* \"#utility.yul\":1425:1434   */\n      dup4\n        /* \"#utility.yul\":1421:1438   */\n      add\n        /* \"#utility.yul\":1412:1418   */\n      dup5\n        /* \"#utility.yul\":1374:1439   */\n      tag_553\n      jump\t// in\n    tag_643:\n        /* \"#utility.yul\":1236:1446   */\n      swap3\n      swap2\n      pop\n      pop\n      jump\t// out\n        /* \"#utility.yul\":1452:1570   */\n    tag_554:\n        /* \"#utility.yul\":1539:1563   */\n      tag_645\n        /* \"#utility.yul\":1557:1562   */\n      dup2\n        /* \"#utility.yul\":1539:1563   */\n      tag_549\n      jump\t// in\n    tag_645:\n        /* \"#utility.yul\":1534:1537   */\n      dup3\n        /* \"#utility.yul\":1527:1564   */\n      mstore\n        /* \"#utility.yul\":1452:1570   */\n      pop\n      pop\n      jump\t// out\n        /* \"#utility.yul\":1576:1908   */\n    tag_46:\n        /* \"#utility.yul\":1697:1701   */\n      0x00\n        /* \"#utility.yul\":1735:1737   */\n      0x40\n        /* \"#utility.yul\":1724:1733   */\n      dup3\n        /* \"#utility.yul\":1720:1738   */\n      add\n        /* \"#utility.yul\":1712:1738   */\n      swap1\n      pop\n        /* \"#utility.yul\":1748:1819   */\n      tag_647\n        /* \"#utility.yul\":1816:1817   */\n      0x00\n        /* \"#utility.yul\":1805:1814   */\n      dup4\n        /* \"#utility.yul\":1801:1818   */\n      add\n        /* \"#utility.yul\":1792:1798   */\n      dup6\n        /* \"#utility.yul\":1748:1819   */\n      tag_554\n      jump\t// in\n    tag_647:\n        /* \"#utility.yul\":1829:1901   */\n      tag_648\n        /* \"#utility.yul\":1897:1899   */\n      0x20\n        /* \"#utility.yul\":1886:1895   */\n      dup4\n        /* \"#utility.yul\":1882:1900   */\n      add\n        /* \"#utility.yul\":1873:1879   */\n      dup5\n        /* \"#utility.yul\":1829:1901   */\n      tag_554\n      jump\t// in\n    tag_648:\n        /* \"#utility.yul\":1576:1908   */\n      swap4\n      swap3\n      pop\n      pop\n      pop\n      jump\t// out\n        /* \"#utility.yul\":1914:2094   */\n    tag_134:\n        /* \"#utility.yul\":1962:2039   */\n      0x4e487b7100000000000000000000000000000000000000000000000000000000\n        /* \"#utility.yul\":1959:1960   */\n      0x00\n        /* \"#utility.yul\":1952:2040   */\n      mstore\n        /* \"#utility.yul\":2059:2063   */\n      0x21\n        /* \"#utility.yul\":2056:2057   */\n      0x04\n        /* \"#utility.yul\":2049:2064   */\n      mstore\n        /* \"#utility.yul\":2083:2087   */\n      0x24\n        /* \"#utility.yul\":2080:2081   */\n      0x00\n        /* \"#utility.yul\":2073:2088   */\n      revert\n        /* \"#utility.yul\":2100:2227   */\n    tag_555:\n        /* \"#utility.yul\":2195:2196   */\n      0x03\n        /* \"#utility.yul\":2188:2193   */\n      dup2\n        /* \"#utility.yul\":2185:2197   */\n      lt\n        /* \"#utility.yul\":2175:2221   */\n      tag_651\n      jumpi\n        /* \"#utility.yul\":2201:2219   */\n      tag_652\n      tag_134\n      jump\t// in\n    tag_652:\n        /* \"#utility.yul\":2175:2221   */\n    tag_651:\n        /* \"#utility.yul\":2100:2227   */\n      pop\n      jump\t// out\n        /* \"#utility.yul\":2233:2388   */\n    tag_556:\n        /* \"#utility.yul\":2292:2299   */\n      0x00\n        /* \"#utility.yul\":2321:2326   */\n      dup2\n        /* \"#utility.yul\":2310:2326   */\n      swap1\n      pop\n        /* \"#utility.yul\":2327:2382   */\n      tag_654\n        /* \"#utility.yul\":2376:2381   */\n      dup3\n        /* \"#utility.yul\":2327:2382   */\n      tag_555\n      jump\t// in\n    tag_654:\n        /* \"#utility.yul\":2233:2388   */\n      swap2\n      swap1\n      pop\n      jump\t// out\n        /* \"#utility.yul\":2394:2549   */\n    tag_557:\n        /* \"#utility.yul\":2464:2473   */\n      0x00\n        /* \"#utility.yul\":2497:2543   */\n      tag_656\n        /* \"#utility.yul\":2537:2542   */\n      dup3\n        /* \"#utility.yul\":2497:2543   */\n      tag_556\n      jump\t// in\n    tag_656:\n        /* \"#utility.yul\":2484:2543   */\n      swap1\n      pop\n        /* \"#utility.yul\":2394:2549   */\n      swap2\n      swap1\n      pop\n      jump\t// out\n        /* \"#utility.yul\":2555:2726   */\n    tag_558:\n        /* \"#utility.yul\":2662:2719   */\n      tag_658\n        /* \"#utility.yul\":2713:2718   */\n      dup2\n        /* \"#utility.yul\":2662:2719   */\n      tag_557\n      jump\t// in\n    tag_658:\n        /* \"#utility.yul\":2657:2660   */\n      dup3\n        /* \"#utility.yul\":2650:2720   */\n      mstore\n        /* \"#utility.yul\":2555:2726   */\n      pop\n      pop\n      jump\t// out\n        /* \"#utility.yul\":2732:2994   */\n    tag_54:\n        /* \"#utility.yul\":2845:2849   */\n      0x00\n        /* \"#utility.yul\":2883:2885   */\n      0x20\n        /* \"#utility.yul\":2872:2881   */\n      dup3\n        /* \"#utility.yul\":2868:2886   */\n      add\n        /* \"#utility.yul\":2860:2886   */\n      swap1\n      pop\n        /* \"#utility.yul\":2896:2987   */\n      tag_660\n        /* \"#utility.yul\":2984:2985   */\n      0x00\n        /* \"#utility.yul\":2973:2982   */\n      dup4\n        /* \"#utility.yul\":2969:2986   */\n      add\n        /* \"#utility.yul\":2960:2966   */\n      dup5\n        /* \"#utility.yul\":2896:2987   */\n      tag_558\n      jump\t// in\n    tag_660:\n        /* \"#utility.yul\":2732:2994   */\n      swap3\n      swap2\n      pop\n      pop\n      jump\t// out\n        /* \"#utility.yul\":3000:3126   */\n    tag_559:\n        /* \"#utility.yul\":3037:3044   */\n      0x00\n        /* \"#utility.yul\":3077:3119   */\n      0xffffffffffffffffffffffffffffffffffffffff\n        /* \"#utility.yul\":3070:3075   */\n      dup3\n        /* \"#utility.yul\":3066:3120   */\n      and\n        /* \"#utility.yul\":3055:3120   */\n      swap1\n      pop\n        /* \"#utility.yul\":3000:3126   */\n      swap2\n      swap1\n      pop\n      jump\t// out\n        /* \"#utility.yul\":3132:3228   */\n    tag_560:\n        /* \"#utility.yul\":3169:3176   */\n      0x00\n        /* \"#utility.yul\":3198:3222   */\n      tag_663\n        /* \"#utility.yul\":3216:3221   */\n      dup3\n        /* \"#utility.yul\":3198:3222   */\n      tag_559\n      jump\t// in\n    tag_663:\n        /* \"#utility.yul\":3187:3222   */\n      swap1\n      pop\n        /* \"#utility.yul\":3132:3228   */\n      swap2\n      swap1\n      pop\n      jump\t// out\n        /* \"#utility.yul\":3234:3356   */\n    tag_561:\n        /* \"#utility.yul\":3307:3331   */\n      tag_665\n        /* \"#utility.yul\":3325:3330   */\n      dup2\n        /* \"#utility.yul\":3307:3331   */\n      tag_560\n      jump\t// in\n    tag_665:\n        /* \"#utility.yul\":3300:3305   */\n      dup2\n        /* \"#utility.yul\":3297:3332   */\n      eq\n        /* \"#utility.yul\":3287:3350   */\n      tag_666\n      jumpi\n        /* \"#utility.yul\":3346:3347   */\n      0x00\n        /* \"#utility.yul\":3343:3344   */\n      dup1\n        /* \"#utility.yul\":3336:3348   */\n      revert\n        /* \"#utility.yul\":3287:3350   */\n    tag_666:\n        /* \"#utility.yul\":3234:3356   */\n      pop\n      jump\t// out\n        /* \"#utility.yul\":3362:3501   */\n    tag_562:\n        /* \"#utility.yul\":3408:3413   */\n      0x00\n        /* \"#utility.yul\":3446:3452   */\n      dup2\n        /* \"#utility.yul\":3433:3453   */\n      calldataload\n        /* \"#utility.yul\":3424:3453   */\n      swap1\n      pop\n        /* \"#utility.yul\":3462:3495   */\n      tag_668\n        /* \"#utility.yul\":3489:3494   */\n      dup2\n        /* \"#utility.yul\":3462:3495   */\n      tag_561\n      jump\t// in\n    tag_668:\n        /* \"#utility.yul\":3362:3501   */\n      swap3\n      swap2\n      pop\n      pop\n      jump\t// out\n        /* \"#utility.yul\":3507:3836   */\n    tag_58:\n        /* \"#utility.yul\":3566:3572   */\n      0x00\n        /* \"#utility.yul\":3615:3617   */\n      0x20\n        /* \"#utility.yul\":3603:3612   */\n      dup3\n        /* \"#utility.yul\":3594:3601   */\n      dup5\n        /* \"#utility.yul\":3590:3613   */\n      sub\n        /* \"#utility.yul\":3586:3618   */\n      slt\n        /* \"#utility.yul\":3583:3702   */\n      iszero\n      tag_670\n      jumpi\n        /* \"#utility.yul\":3621:3700   */\n      tag_671\n      tag_547\n      jump\t// in\n    tag_671:\n        /* \"#utility.yul\":3583:3702   */\n    tag_670:\n        /* \"#utility.yul\":3741:3742   */\n      0x00\n        /* \"#utility.yul\":3766:3819   */\n      tag_672\n        /* \"#utility.yul\":3811:3818   */\n      dup5\n        /* \"#utility.yul\":3802:3808   */\n      dup3\n        /* \"#utility.yul\":3791:3800   */\n      dup6\n        /* \"#utility.yul\":3787:3809   */\n      add\n        /* \"#utility.yul\":3766:3819   */\n      tag_562\n      jump\t// in\n    tag_672:\n        /* \"#utility.yul\":3756:3819   */\n      swap2\n      pop\n        /* \"#utility.yul\":3712:3829   */\n      pop\n        /* \"#utility.yul\":3507:3836   */\n      swap3\n      swap2\n      pop\n      pop\n      jump\t// out\n        /* \"#utility.yul\":3842:3963   */\n    tag_563:\n        /* \"#utility.yul\":3937:3938   */\n      0x03\n        /* \"#utility.yul\":3930:3935   */\n      dup2\n        /* \"#utility.yul\":3927:3939   */\n      lt\n        /* \"#utility.yul\":3917:3957   */\n      tag_674\n      jumpi\n        /* \"#utility.yul\":3953:3954   */\n      0x00\n        /* \"#utility.yul\":3950:3951   */\n      dup1\n        /* \"#utility.yul\":3943:3955   */\n      revert\n        /* \"#utility.yul\":3917:3957   */\n    tag_674:\n        /* \"#utility.yul\":3842:3963   */\n      pop\n      jump\t// out\n        /* \"#utility.yul\":3969:4152   */\n    tag_564:\n        /* \"#utility.yul\":4037:4042   */\n      0x00\n        /* \"#utility.yul\":4075:4081   */\n      dup2\n        /* \"#utility.yul\":4062:4082   */\n      calldataload\n        /* \"#utility.yul\":4053:4082   */\n      swap1\n      pop\n        /* \"#utility.yul\":4091:4146   */\n      tag_676\n        /* \"#utility.yul\":4140:4145   */\n      dup2\n        /* \"#utility.yul\":4091:4146   */\n      tag_563\n      jump\t// in\n    tag_676:\n        /* \"#utility.yul\":3969:4152   */\n      swap3\n      swap2\n      pop\n      pop\n      jump\t// out\n        /* \"#utility.yul\":4158:4274   */\n    tag_565:\n        /* \"#utility.yul\":4228:4249   */\n      tag_678\n        /* \"#utility.yul\":4243:4248   */\n      dup2\n        /* \"#utility.yul\":4228:4249   */\n      tag_552\n      jump\t// in\n    tag_678:\n        /* \"#utility.yul\":4221:4226   */\n      dup2\n        /* \"#utility.yul\":4218:4250   */\n      eq\n        /* \"#utility.yul\":4208:4268   */\n      tag_679\n      jumpi\n        /* \"#utility.yul\":4264:4265   */\n      0x00\n        /* \"#utility.yul\":4261:4262   */\n      dup1\n        /* \"#utility.yul\":4254:4266   */\n      revert\n        /* \"#utility.yul\":4208:4268   */\n    tag_679:\n        /* \"#utility.yul\":4158:4274   */\n      pop\n      jump\t// out\n        /* \"#utility.yul\":4280:4413   */\n    tag_566:\n        /* \"#utility.yul\":4323:4328   */\n      0x00\n        /* \"#utility.yul\":4361:4367   */\n      dup2\n        /* \"#utility.yul\":4348:4368   */\n      calldataload\n        /* \"#utility.yul\":4339:4368   */\n      swap1\n      pop\n        /* \"#utility.yul\":4377:4407   */\n      tag_681\n        /* \"#utility.yul\":4401:4406   */\n      dup2\n        /* \"#utility.yul\":4377:4407   */\n      tag_565\n      jump\t// in\n    tag_681:\n        /* \"#utility.yul\":4280:4413   */\n      swap3\n      swap2\n      pop\n      pop\n      jump\t// out\n        /* \"#utility.yul\":4419:5806   */\n    tag_63:\n        /* \"#utility.yul\":4560:4566   */\n      0x00\n        /* \"#utility.yul\":4568:4574   */\n      dup1\n        /* \"#utility.yul\":4576:4582   */\n      0x00\n        /* \"#utility.yul\":4584:4590   */\n      dup1\n        /* \"#utility.yul\":4592:4598   */\n      0x00\n        /* \"#utility.yul\":4600:4606   */\n      dup1\n        /* \"#utility.yul\":4608:4614   */\n      0x00\n        /* \"#utility.yul\":4616:4622   */\n      dup1\n        /* \"#utility.yul\":4665:4668   */\n      0x0100\n        /* \"#utility.yul\":4653:4662   */\n      dup10\n        /* \"#utility.yul\":4644:4651   */\n      dup12\n        /* \"#utility.yul\":4640:4663   */\n      sub\n        /* \"#utility.yul\":4636:4669   */\n      slt\n        /* \"#utility.yul\":4633:4753   */\n      iszero\n      tag_683\n      jumpi\n        /* \"#utility.yul\":4672:4751   */\n      tag_684\n      tag_547\n      jump\t// in\n    tag_684:\n        /* \"#utility.yul\":4633:4753   */\n    tag_683:\n        /* \"#utility.yul\":4792:4793   */\n      0x00\n        /* \"#utility.yul\":4817:4892   */\n      tag_685\n        /* \"#utility.yul\":4884:4891   */\n      dup12\n        /* \"#utility.yul\":4875:4881   */\n      dup3\n        /* \"#utility.yul\":4864:4873   */\n      dup13\n        /* \"#utility.yul\":4860:4882   */\n      add\n        /* \"#utility.yul\":4817:4892   */\n      tag_564\n      jump\t// in\n    tag_685:\n        /* \"#utility.yul\":4807:4892   */\n      swap9\n      pop\n        /* \"#utility.yul\":4763:4902   */\n      pop\n        /* \"#utility.yul\":4941:4943   */\n      0x20\n        /* \"#utility.yul\":4967:5020   */\n      tag_686\n        /* \"#utility.yul\":5012:5019   */\n      dup12\n        /* \"#utility.yul\":5003:5009   */\n      dup3\n        /* \"#utility.yul\":4992:5001   */\n      dup13\n        /* \"#utility.yul\":4988:5010   */\n      add\n        /* \"#utility.yul\":4967:5020   */\n      tag_562\n      jump\t// in\n    tag_686:\n        /* \"#utility.yul\":4957:5020   */\n      swap8\n      pop\n        /* \"#utility.yul\":4912:5030   */\n      pop\n        /* \"#utility.yul\":5069:5071   */\n      0x40\n        /* \"#utility.yul\":5095:5148   */\n      tag_687\n        /* \"#utility.yul\":5140:5147   */\n      dup12\n        /* \"#utility.yul\":5131:5137   */\n      dup3\n        /* \"#utility.yul\":5120:5129   */\n      dup13\n        /* \"#utility.yul\":5116:5138   */\n      add\n        /* \"#utility.yul\":5095:5148   */\n      tag_562\n      jump\t// in\n    tag_687:\n        /* \"#utility.yul\":5085:5148   */\n      swap7\n      pop\n        /* \"#utility.yul\":5040:5158   */\n      pop\n        /* \"#utility.yul\":5197:5199   */\n      0x60\n        /* \"#utility.yul\":5223:5276   */\n      tag_688\n        /* \"#utility.yul\":5268:5275   */\n      dup12\n        /* \"#utility.yul\":5259:5265   */\n      dup3\n        /* \"#utility.yul\":5248:5257   */\n      dup13\n        /* \"#utility.yul\":5244:5266   */\n      add\n        /* \"#utility.yul\":5223:5276   */\n      tag_551\n      jump\t// in\n    tag_688:\n        /* \"#utility.yul\":5213:5276   */\n      swap6\n      pop\n        /* \"#utility.yul\":5168:5286   */\n      pop\n        /* \"#utility.yul\":5325:5328   */\n      0x80\n        /* \"#utility.yul\":5352:5405   */\n      tag_689\n        /* \"#utility.yul\":5397:5404   */\n      dup12\n        /* \"#utility.yul\":5388:5394   */\n      dup3\n        /* \"#utility.yul\":5377:5386   */\n      dup13\n        /* \"#utility.yul\":5373:5395   */\n      add\n        /* \"#utility.yul\":5352:5405   */\n      tag_551\n      jump\t// in\n    tag_689:\n        /* \"#utility.yul\":5342:5405   */\n      swap5\n      pop\n        /* \"#utility.yul\":5296:5415   */\n      pop\n        /* \"#utility.yul\":5454:5457   */\n      0xa0\n        /* \"#utility.yul\":5481:5534   */\n      tag_690\n        /* \"#utility.yul\":5526:5533   */\n      dup12\n        /* \"#utility.yul\":5517:5523   */\n      dup3\n        /* \"#utility.yul\":5506:5515   */\n      dup13\n        /* \"#utility.yul\":5502:5524   */\n      add\n        /* \"#utility.yul\":5481:5534   */\n      tag_551\n      jump\t// in\n    tag_690:\n        /* \"#utility.yul\":5471:5534   */\n      swap4\n      pop\n        /* \"#utility.yul\":5425:5544   */\n      pop\n        /* \"#utility.yul\":5583:5586   */\n      0xc0\n        /* \"#utility.yul\":5610:5660   */\n      tag_691\n        /* \"#utility.yul\":5652:5659   */\n      dup12\n        /* \"#utility.yul\":5643:5649   */\n      dup3\n        /* \"#utility.yul\":5632:5641   */\n      dup13\n        /* \"#utility.yul\":5628:5650   */\n      add\n        /* \"#utility.yul\":5610:5660   */\n      tag_566\n      jump\t// in\n    tag_691:\n        /* \"#utility.yul\":5600:5660   */\n      swap3\n      pop\n        /* \"#utility.yul\":5554:5670   */\n      pop\n        /* \"#utility.yul\":5709:5712   */\n      0xe0\n        /* \"#utility.yul\":5736:5789   */\n      tag_692\n        /* \"#utility.yul\":5781:5788   */\n      dup12\n        /* \"#utility.yul\":5772:5778   */\n      dup3\n        /* \"#utility.yul\":5761:5770   */\n      dup13\n        /* \"#utility.yul\":5757:5779   */\n      add\n        /* \"#utility.yul\":5736:5789   */\n      tag_562\n      jump\t// in\n    tag_692:\n        /* \"#utility.yul\":5726:5789   */\n      swap2\n      pop\n        /* \"#utility.yul\":5680:5799   */\n      pop\n        /* \"#utility.yul\":4419:5806   */\n      swap3\n      swap6\n      swap9\n      pop\n      swap3\n      swap6\n      swap9\n      swap1\n      swap4\n      swap7\n      pop\n      jump\t// out\n        /* \"#utility.yul\":5812:6034   */\n    tag_70:\n        /* \"#utility.yul\":5905:5909   */\n      0x00\n        /* \"#utility.yul\":5943:5945   */\n      0x20\n        /* \"#utility.yul\":5932:5941   */\n      dup3\n        /* \"#utility.yul\":5928:5946   */\n      add\n        /* \"#utility.yul\":5920:5946   */\n      swap1\n      pop\n        /* \"#utility.yul\":5956:6027   */\n      tag_694\n        /* \"#utility.yul\":6024:6025   */\n      0x00\n        /* \"#utility.yul\":6013:6022   */\n      dup4\n        /* \"#utility.yul\":6009:6026   */\n      add\n        /* \"#utility.yul\":6000:6006   */\n      dup5\n        /* \"#utility.yul\":5956:6027   */\n      tag_554\n      jump\t// in\n    tag_694:\n        /* \"#utility.yul\":5812:6034   */\n      swap3\n      swap2\n      pop\n      pop\n      jump\t// out\n        /* \"#utility.yul\":6040:6158   */\n    tag_567:\n        /* \"#utility.yul\":6127:6151   */\n      tag_696\n        /* \"#utility.yul\":6145:6150   */\n      dup2\n        /* \"#utility.yul\":6127:6151   */\n      tag_560\n      jump\t// in\n    tag_696:\n        /* \"#utility.yul\":6122:6125   */\n      dup3\n        /* \"#utility.yul\":6115:6152   */\n      mstore\n        /* \"#utility.yul\":6040:6158   */\n      pop\n      pop\n      jump\t// out\n        /* \"#utility.yul\":6164:6386   */\n    tag_78:\n        /* \"#utility.yul\":6257:6261   */\n      0x00\n        /* \"#utility.yul\":6295:6297   */\n      0x20\n        /* \"#utility.yul\":6284:6293   */\n      dup3\n        /* \"#utility.yul\":6280:6298   */\n      add\n        /* \"#utility.yul\":6272:6298   */\n      swap1\n      pop\n        /* \"#utility.yul\":6308:6379   */\n      tag_698\n        /* \"#utility.yul\":6376:6377   */\n      0x00\n        /* \"#utility.yul\":6365:6374   */\n      dup4\n        /* \"#utility.yul\":6361:6378   */\n      add\n        /* \"#utility.yul\":6352:6358   */\n      dup5\n        /* \"#utility.yul\":6308:6379   */\n      tag_567\n      jump\t// in\n    tag_698:\n        /* \"#utility.yul\":6164:6386   */\n      swap3\n      swap2\n      pop\n      pop\n      jump\t// out\n        /* \"#utility.yul\":6392:6724   */\n    tag_86:\n        /* \"#utility.yul\":6513:6517   */\n      0x00\n        /* \"#utility.yul\":6551:6553   */\n      0x40\n        /* \"#utility.yul\":6540:6549   */\n      dup3\n        /* \"#utility.yul\":6536:6554   */\n      add\n        /* \"#utility.yul\":6528:6554   */\n      swap1\n      pop\n        /* \"#utility.yul\":6564:6635   */\n      tag_700\n        /* \"#utility.yul\":6632:6633   */\n      0x00\n        /* \"#utility.yul\":6621:6630   */\n      dup4\n        /* \"#utility.yul\":6617:6634   */\n      add\n        /* \"#utility.yul\":6608:6614   */\n      dup6\n        /* \"#utility.yul\":6564:6635   */\n      tag_567\n      jump\t// in\n    tag_700:\n        /* \"#utility.yul\":6645:6717   */\n      tag_701\n        /* \"#utility.yul\":6713:6715   */\n      0x20\n        /* \"#utility.yul\":6702:6711   */\n      dup4\n        /* \"#utility.yul\":6698:6716   */\n      add\n        /* \"#utility.yul\":6689:6695   */\n      dup5\n        /* \"#utility.yul\":6645:6717   */\n      tag_567\n      jump\t// in\n    tag_701:\n        /* \"#utility.yul\":6392:6724   */\n      swap4\n      swap3\n      pop\n      pop\n      pop\n      jump\t// out\n        /* \"#utility.yul\":6730:6844   */\n    tag_568:\n        /* \"#utility.yul\":6797:6803   */\n      0x00\n        /* \"#utility.yul\":6831:6836   */\n      dup2\n        /* \"#utility.yul\":6825:6837   */\n      mload\n        /* \"#utility.yul\":6815:6837   */\n      swap1\n      pop\n        /* \"#utility.yul\":6730:6844   */\n      swap2\n      swap1\n      pop\n      jump\t// out\n        /* \"#utility.yul\":6850:7034   */\n    tag_569:\n        /* \"#utility.yul\":6949:6960   */\n      0x00\n        /* \"#utility.yul\":6983:6989   */\n      dup3\n        /* \"#utility.yul\":6978:6981   */\n      dup3\n        /* \"#utility.yul\":6971:6990   */\n      mstore\n        /* \"#utility.yul\":7023:7027   */\n      0x20\n        /* \"#utility.yul\":7018:7021   */\n      dup3\n        /* \"#utility.yul\":7014:7028   */\n      add\n        /* \"#utility.yul\":6999:7028   */\n      swap1\n      pop\n        /* \"#utility.yul\":6850:7034   */\n      swap3\n      swap2\n      pop\n      pop\n      jump\t// out\n        /* \"#utility.yul\":7040:7172   */\n    tag_570:\n        /* \"#utility.yul\":7107:7111   */\n      0x00\n        /* \"#utility.yul\":7130:7133   */\n      dup2\n        /* \"#utility.yul\":7122:7133   */\n      swap1\n      pop\n        /* \"#utility.yul\":7160:7164   */\n      0x20\n        /* \"#utility.yul\":7155:7158   */\n      dup3\n        /* \"#utility.yul\":7151:7165   */\n      add\n        /* \"#utility.yul\":7143:7165   */\n      swap1\n      pop\n        /* \"#utility.yul\":7040:7172   */\n      swap2\n      swap1\n      pop\n      jump\t// out\n        /* \"#utility.yul\":7178:7286   */\n    tag_571:\n        /* \"#utility.yul\":7255:7279   */\n      tag_706\n        /* \"#utility.yul\":7273:7278   */\n      dup2\n        /* \"#utility.yul\":7255:7279   */\n      tag_560\n      jump\t// in\n    tag_706:\n        /* \"#utility.yul\":7250:7253   */\n      dup3\n        /* \"#utility.yul\":7243:7280   */\n      mstore\n        /* \"#utility.yul\":7178:7286   */\n      pop\n      pop\n      jump\t// out\n        /* \"#utility.yul\":7292:7471   */\n    tag_572:\n        /* \"#utility.yul\":7361:7371   */\n      0x00\n        /* \"#utility.yul\":7382:7428   */\n      tag_708\n        /* \"#utility.yul\":7424:7427   */\n      dup4\n        /* \"#utility.yul\":7416:7422   */\n      dup4\n        /* \"#utility.yul\":7382:7428   */\n      tag_571\n      jump\t// in\n    tag_708:\n        /* \"#utility.yul\":7460:7464   */\n      0x20\n        /* \"#utility.yul\":7455:7458   */\n      dup4\n        /* \"#utility.yul\":7451:7465   */\n      add\n        /* \"#utility.yul\":7437:7465   */\n      swap1\n      pop\n        /* \"#utility.yul\":7292:7471   */\n      swap3\n      swap2\n      pop\n      pop\n      jump\t// out\n        /* \"#utility.yul\":7477:7590   */\n    tag_573:\n        /* \"#utility.yul\":7547:7551   */\n      0x00\n        /* \"#utility.yul\":7579:7583   */\n      0x20\n        /* \"#utility.yul\":7574:7577   */\n      dup3\n        /* \"#utility.yul\":7570:7584   */\n      add\n        /* \"#utility.yul\":7562:7584   */\n      swap1\n      pop\n        /* \"#utility.yul\":7477:7590   */\n      swap2\n      swap1\n      pop\n      jump\t// out\n        /* \"#utility.yul\":7626:8358   */\n    tag_574:\n        /* \"#utility.yul\":7745:7748   */\n      0x00\n        /* \"#utility.yul\":7774:7828   */\n      tag_711\n        /* \"#utility.yul\":7822:7827   */\n      dup3\n        /* \"#utility.yul\":7774:7828   */\n      tag_568\n      jump\t// in\n    tag_711:\n        /* \"#utility.yul\":7844:7930   */\n      tag_712\n        /* \"#utility.yul\":7923:7929   */\n      dup2\n        /* \"#utility.yul\":7918:7921   */\n      dup6\n        /* \"#utility.yul\":7844:7930   */\n      tag_569\n      jump\t// in\n    tag_712:\n        /* \"#utility.yul\":7837:7930   */\n      swap4\n      pop\n        /* \"#utility.yul\":7954:8010   */\n      tag_713\n        /* \"#utility.yul\":8004:8009   */\n      dup4\n        /* \"#utility.yul\":7954:8010   */\n      tag_570\n      jump\t// in\n    tag_713:\n        /* \"#utility.yul\":8033:8040   */\n      dup1\n        /* \"#utility.yul\":8064:8065   */\n      0x00\n        /* \"#utility.yul\":8049:8333   */\n    tag_714:\n        /* \"#utility.yul\":8074:8080   */\n      dup4\n        /* \"#utility.yul\":8071:8072   */\n      dup2\n        /* \"#utility.yul\":8068:8081   */\n      lt\n        /* \"#utility.yul\":8049:8333   */\n      iszero\n      tag_716\n      jumpi\n        /* \"#utility.yul\":8150:8156   */\n      dup2\n        /* \"#utility.yul\":8144:8157   */\n      mload\n        /* \"#utility.yul\":8177:8240   */\n      tag_717\n        /* \"#utility.yul\":8236:8239   */\n      dup9\n        /* \"#utility.yul\":8221:8234   */\n      dup3\n        /* \"#utility.yul\":8177:8240   */\n      tag_572\n      jump\t// in\n    tag_717:\n        /* \"#utility.yul\":8170:8240   */\n      swap8\n      pop\n        /* \"#utility.yul\":8263:8323   */\n      tag_718\n        /* \"#utility.yul\":8316:8322   */\n      dup4\n        /* \"#utility.yul\":8263:8323   */\n      tag_573\n      jump\t// in\n    tag_718:\n        /* \"#utility.yul\":8253:8323   */\n      swap3\n      pop\n        /* \"#utility.yul\":8109:8333   */\n      pop\n        /* \"#utility.yul\":8096:8097   */\n      0x01\n        /* \"#utility.yul\":8093:8094   */\n      dup2\n        /* \"#utility.yul\":8089:8098   */\n      add\n        /* \"#utility.yul\":8084:8098   */\n      swap1\n      pop\n        /* \"#utility.yul\":8049:8333   */\n      jump(tag_714)\n    tag_716:\n        /* \"#utility.yul\":8053:8067   */\n      pop\n        /* \"#utility.yul\":8349:8352   */\n      dup6\n        /* \"#utility.yul\":8342:8352   */\n      swap4\n      pop\n        /* \"#utility.yul\":7750:8358   */\n      pop\n      pop\n      pop\n        /* \"#utility.yul\":7626:8358   */\n      swap3\n      swap2\n      pop\n      pop\n      jump\t// out\n        /* \"#utility.yul\":8364:8478   */\n    tag_575:\n        /* \"#utility.yul\":8431:8437   */\n      0x00\n        /* \"#utility.yul\":8465:8470   */\n      dup2\n        /* \"#utility.yul\":8459:8471   */\n      mload\n        /* \"#utility.yul\":8449:8471   */\n      swap1\n      pop\n        /* \"#utility.yul\":8364:8478   */\n      swap2\n      swap1\n      pop\n      jump\t// out\n        /* \"#utility.yul\":8484:8668   */\n    tag_576:\n        /* \"#utility.yul\":8583:8594   */\n      0x00\n        /* \"#utility.yul\":8617:8623   */\n      dup3\n        /* \"#utility.yul\":8612:8615   */\n      dup3\n        /* \"#utility.yul\":8605:8624   */\n      mstore\n        /* \"#utility.yul\":8657:8661   */\n      0x20\n        /* \"#utility.yul\":8652:8655   */\n      dup3\n        /* \"#utility.yul\":8648:8662   */\n      add\n        /* \"#utility.yul\":8633:8662   */\n      swap1\n      pop\n        /* \"#utility.yul\":8484:8668   */\n      swap3\n      swap2\n      pop\n      pop\n      jump\t// out\n        /* \"#utility.yul\":8674:8806   */\n    tag_577:\n        /* \"#utility.yul\":8741:8745   */\n      0x00\n        /* \"#utility.yul\":8764:8767   */\n      dup2\n        /* \"#utility.yul\":8756:8767   */\n      swap1\n      pop\n        /* \"#utility.yul\":8794:8798   */\n      0x20\n        /* \"#utility.yul\":8789:8792   */\n      dup3\n        /* \"#utility.yul\":8785:8799   */\n      add\n        /* \"#utility.yul\":8777:8799   */\n      swap1\n      pop\n        /* \"#utility.yul\":8674:8806   */\n      swap2\n      swap1\n      pop\n      jump\t// out\n        /* \"#utility.yul\":8812:8920   */\n    tag_578:\n        /* \"#utility.yul\":8889:8913   */\n      tag_723\n        /* \"#utility.yul\":8907:8912   */\n      dup2\n        /* \"#utility.yul\":8889:8913   */\n      tag_549\n      jump\t// in\n    tag_723:\n        /* \"#utility.yul\":8884:8887   */\n      dup3\n        /* \"#utility.yul\":8877:8914   */\n      mstore\n        /* \"#utility.yul\":8812:8920   */\n      pop\n      pop\n      jump\t// out\n        /* \"#utility.yul\":8926:9105   */\n    tag_579:\n        /* \"#utility.yul\":8995:9005   */\n      0x00\n        /* \"#utility.yul\":9016:9062   */\n      tag_725\n        /* \"#utility.yul\":9058:9061   */\n      dup4\n        /* \"#utility.yul\":9050:9056   */\n      dup4\n        /* \"#utility.yul\":9016:9062   */\n      tag_578\n      jump\t// in\n    tag_725:\n        /* \"#utility.yul\":9094:9098   */\n      0x20\n        /* \"#utility.yul\":9089:9092   */\n      dup4\n        /* \"#utility.yul\":9085:9099   */\n      add\n        /* \"#utility.yul\":9071:9099   */\n      swap1\n      pop\n        /* \"#utility.yul\":8926:9105   */\n      swap3\n      swap2\n      pop\n      pop\n      jump\t// out\n        /* \"#utility.yul\":9111:9224   */\n    tag_580:\n        /* \"#utility.yul\":9181:9185   */\n      0x00\n        /* \"#utility.yul\":9213:9217   */\n      0x20\n        /* \"#utility.yul\":9208:9211   */\n      dup3\n        /* \"#utility.yul\":9204:9218   */\n      add\n        /* \"#utility.yul\":9196:9218   */\n      swap1\n      pop\n        /* \"#utility.yul\":9111:9224   */\n      swap2\n      swap1\n      pop\n      jump\t// out\n        /* \"#utility.yul\":9260:9992   */\n    tag_581:\n        /* \"#utility.yul\":9379:9382   */\n      0x00\n        /* \"#utility.yul\":9408:9462   */\n      tag_728\n        /* \"#utility.yul\":9456:9461   */\n      dup3\n        /* \"#utility.yul\":9408:9462   */\n      tag_575\n      jump\t// in\n    tag_728:\n        /* \"#utility.yul\":9478:9564   */\n      tag_729\n        /* \"#utility.yul\":9557:9563   */\n      dup2\n        /* \"#utility.yul\":9552:9555   */\n      dup6\n        /* \"#utility.yul\":9478:9564   */\n      tag_576\n      jump\t// in\n    tag_729:\n        /* \"#utility.yul\":9471:9564   */\n      swap4\n      pop\n        /* \"#utility.yul\":9588:9644   */\n      tag_730\n        /* \"#utility.yul\":9638:9643   */\n      dup4\n        /* \"#utility.yul\":9588:9644   */\n      tag_577\n      jump\t// in\n    tag_730:\n        /* \"#utility.yul\":9667:9674   */\n      dup1\n        /* \"#utility.yul\":9698:9699   */\n      0x00\n        /* \"#utility.yul\":9683:9967   */\n    tag_731:\n        /* \"#utility.yul\":9708:9714   */\n      dup4\n        /* \"#utility.yul\":9705:9706   */\n      dup2\n        /* \"#utility.yul\":9702:9715   */\n      lt\n        /* \"#utility.yul\":9683:9967   */\n      iszero\n      tag_733\n      jumpi\n        /* \"#utility.yul\":9784:9790   */\n      dup2\n        /* \"#utility.yul\":9778:9791   */\n      mload\n        /* \"#utility.yul\":9811:9874   */\n      tag_734\n        /* \"#utility.yul\":9870:9873   */\n      dup9\n        /* \"#utility.yul\":9855:9868   */\n      dup3\n        /* \"#utility.yul\":9811:9874   */\n      tag_579\n      jump\t// in\n    tag_734:\n        /* \"#utility.yul\":9804:9874   */\n      swap8\n      pop\n        /* \"#utility.yul\":9897:9957   */\n      tag_735\n        /* \"#utility.yul\":9950:9956   */\n      dup4\n        /* \"#utility.yul\":9897:9957   */\n      tag_580\n      jump\t// in\n    tag_735:\n        /* \"#utility.yul\":9887:9957   */\n      swap3\n      pop\n        /* \"#utility.yul\":9743:9967   */\n      pop\n        /* \"#utility.yul\":9730:9731   */\n      0x01\n        /* \"#utility.yul\":9727:9728   */\n      dup2\n        /* \"#utility.yul\":9723:9732   */\n      add\n        /* \"#utility.yul\":9718:9732   */\n      swap1\n      pop\n        /* \"#utility.yul\":9683:9967   */\n      jump(tag_731)\n    tag_733:\n        /* \"#utility.yul\":9687:9701   */\n      pop\n        /* \"#utility.yul\":9983:9986   */\n      dup6\n        /* \"#utility.yul\":9976:9986   */\n      swap4\n      pop\n        /* \"#utility.yul\":9384:9992   */\n      pop\n      pop\n      pop\n        /* \"#utility.yul\":9260:9992   */\n      swap3\n      swap2\n      pop\n      pop\n      jump\t// out\n        /* \"#utility.yul\":9998:10893   */\n    tag_105:\n        /* \"#utility.yul\":10297:10301   */\n      0x00\n        /* \"#utility.yul\":10335:10337   */\n      0x60\n        /* \"#utility.yul\":10324:10333   */\n      dup3\n        /* \"#utility.yul\":10320:10338   */\n      add\n        /* \"#utility.yul\":10312:10338   */\n      swap1\n      pop\n        /* \"#utility.yul\":10384:10393   */\n      dup2\n        /* \"#utility.yul\":10378:10382   */\n      dup2\n        /* \"#utility.yul\":10374:10394   */\n      sub\n        /* \"#utility.yul\":10370:10371   */\n      0x00\n        /* \"#utility.yul\":10359:10368   */\n      dup4\n        /* \"#utility.yul\":10355:10372   */\n      add\n        /* \"#utility.yul\":10348:10395   */\n      mstore\n        /* \"#utility.yul\":10412:10520   */\n      tag_737\n        /* \"#utility.yul\":10515:10519   */\n      dup2\n        /* \"#utility.yul\":10506:10512   */\n      dup7\n        /* \"#utility.yul\":10412:10520   */\n      tag_574\n      jump\t// in\n    tag_737:\n        /* \"#utility.yul\":10404:10520   */\n      swap1\n      pop\n        /* \"#utility.yul\":10567:10576   */\n      dup2\n        /* \"#utility.yul\":10561:10565   */\n      dup2\n        /* \"#utility.yul\":10557:10577   */\n      sub\n        /* \"#utility.yul\":10552:10554   */\n      0x20\n        /* \"#utility.yul\":10541:10550   */\n      dup4\n        /* \"#utility.yul\":10537:10555   */\n      add\n        /* \"#utility.yul\":10530:10578   */\n      mstore\n        /* \"#utility.yul\":10595:10703   */\n      tag_738\n        /* \"#utility.yul\":10698:10702   */\n      dup2\n        /* \"#utility.yul\":10689:10695   */\n      dup6\n        /* \"#utility.yul\":10595:10703   */\n      tag_581\n      jump\t// in\n    tag_738:\n        /* \"#utility.yul\":10587:10703   */\n      swap1\n      pop\n        /* \"#utility.yul\":10750:10759   */\n      dup2\n        /* \"#utility.yul\":10744:10748   */\n      dup2\n        /* \"#utility.yul\":10740:10760   */\n      sub\n        /* \"#utility.yul\":10735:10737   */\n      0x40\n        /* \"#utility.yul\":10724:10733   */\n      dup4\n        /* \"#utility.yul\":10720:10738   */\n      add\n        /* \"#utility.yul\":10713:10761   */\n      mstore\n        /* \"#utility.yul\":10778:10886   */\n      tag_739\n        /* \"#utility.yul\":10881:10885   */\n      dup2\n        /* \"#utility.yul\":10872:10878   */\n      dup5\n        /* \"#utility.yul\":10778:10886   */\n      tag_581\n      jump\t// in\n    tag_739:\n        /* \"#utility.yul\":10770:10886   */\n      swap1\n      pop\n        /* \"#utility.yul\":9998:10893   */\n      swap5\n      swap4\n      pop\n      pop\n      pop\n      pop\n      jump\t// out\n        /* \"#utility.yul\":10899:11068   */\n    tag_582:\n        /* \"#utility.yul\":10983:10994   */\n      0x00\n        /* \"#utility.yul\":11017:11023   */\n      dup3\n        /* \"#utility.yul\":11012:11015   */\n      dup3\n        /* \"#utility.yul\":11005:11024   */\n      mstore\n        /* \"#utility.yul\":11057:11061   */\n      0x20\n        /* \"#utility.yul\":11052:11055   */\n      dup3\n        /* \"#utility.yul\":11048:11062   */\n      add\n        /* \"#utility.yul\":11033:11062   */\n      swap1\n      pop\n        /* \"#utility.yul\":10899:11068   */\n      swap3\n      swap2\n      pop\n      pop\n      jump\t// out\n        /* \"#utility.yul\":11074:11246   */\n    tag_583:\n        /* \"#utility.yul\":11214:11238   */\n      0x537943726f774261727465723a20494e41435449564500000000000000000000\n        /* \"#utility.yul\":11210:11211   */\n      0x00\n        /* \"#utility.yul\":11202:11208   */\n      dup3\n        /* \"#utility.yul\":11198:11212   */\n      add\n        /* \"#utility.yul\":11191:11239   */\n      mstore\n        /* \"#utility.yul\":11074:11246   */\n      pop\n      jump\t// out\n        /* \"#utility.yul\":11252:11618   */\n    tag_584:\n        /* \"#utility.yul\":11394:11397   */\n      0x00\n        /* \"#utility.yul\":11415:11482   */\n      tag_743\n        /* \"#utility.yul\":11479:11481   */\n      0x16\n        /* \"#utility.yul\":11474:11477   */\n      dup4\n        /* \"#utility.yul\":11415:11482   */\n      tag_582\n      jump\t// in\n    tag_743:\n        /* \"#utility.yul\":11408:11482   */\n      swap2\n      pop\n        /* \"#utility.yul\":11491:11584   */\n      tag_744\n        /* \"#utility.yul\":11580:11583   */\n      dup3\n        /* \"#utility.yul\":11491:11584   */\n      tag_583\n      jump\t// in\n    tag_744:\n        /* \"#utility.yul\":11609:11611   */\n      0x20\n        /* \"#utility.yul\":11604:11607   */\n      dup3\n        /* \"#utility.yul\":11600:11612   */\n      add\n        /* \"#utility.yul\":11593:11612   */\n      swap1\n      pop\n        /* \"#utility.yul\":11252:11618   */\n      swap2\n      swap1\n      pop\n      jump\t// out\n        /* \"#utility.yul\":11624:12043   */\n    tag_114:\n        /* \"#utility.yul\":11790:11794   */\n      0x00\n        /* \"#utility.yul\":11828:11830   */\n      0x20\n        /* \"#utility.yul\":11817:11826   */\n      dup3\n        /* \"#utility.yul\":11813:11831   */\n      add\n        /* \"#utility.yul\":11805:11831   */\n      swap1\n      pop\n        /* \"#utility.yul\":11877:11886   */\n      dup2\n        /* \"#utility.yul\":11871:11875   */\n      dup2\n        /* \"#utility.yul\":11867:11887   */\n      sub\n        /* \"#utility.yul\":11863:11864   */\n      0x00\n        /* \"#utility.yul\":11852:11861   */\n      dup4\n        /* \"#utility.yul\":11848:11865   */\n      add\n        /* \"#utility.yul\":11841:11888   */\n      mstore\n        /* \"#utility.yul\":11905:12036   */\n      tag_746\n        /* \"#utility.yul\":12031:12035   */\n      dup2\n        /* \"#utility.yul\":11905:12036   */\n      tag_584\n      jump\t// in\n    tag_746:\n        /* \"#utility.yul\":11897:12036   */\n      swap1\n      pop\n        /* \"#utility.yul\":11624:12043   */\n      swap2\n      swap1\n      pop\n      jump\t// out\n        /* \"#utility.yul\":12049:12228   */\n    tag_585:\n        /* \"#utility.yul\":12189:12220   */\n      0x537943726f774261727465723a204e4f545f494e495449414c495a4544000000\n        /* \"#utility.yul\":12185:12186   */\n      0x00\n        /* \"#utility.yul\":12177:12183   */\n      dup3\n        /* \"#utility.yul\":12173:12187   */\n      add\n        /* \"#utility.yul\":12166:12221   */\n      mstore\n        /* \"#utility.yul\":12049:12228   */\n      pop\n      jump\t// out\n        /* \"#utility.yul\":12234:12600   */\n    tag_586:\n        /* \"#utility.yul\":12376:12379   */\n      0x00\n        /* \"#utility.yul\":12397:12464   */\n      tag_749\n        /* \"#utility.yul\":12461:12463   */\n      0x1d\n        /* \"#utility.yul\":12456:12459   */\n      dup4\n        /* \"#utility.yul\":12397:12464   */\n      tag_582\n      jump\t// in\n    tag_749:\n        /* \"#utility.yul\":12390:12464   */\n      swap2\n      pop\n        /* \"#utility.yul\":12473:12566   */\n      tag_750\n        /* \"#utility.yul\":12562:12565   */\n      dup3\n        /* \"#utility.yul\":12473:12566   */\n      tag_585\n      jump\t// in\n    tag_750:\n        /* \"#utility.yul\":12591:12593   */\n      0x20\n        /* \"#utility.yul\":12586:12589   */\n      dup3\n        /* \"#utility.yul\":12582:12594   */\n      add\n        /* \"#utility.yul\":12575:12594   */\n      swap1\n      pop\n        /* \"#utility.yul\":12234:12600   */\n      swap2\n      swap1\n      pop\n      jump\t// out\n        /* \"#utility.yul\":12606:13025   */\n    tag_118:\n        /* \"#utility.yul\":12772:12776   */\n      0x00\n        /* \"#utility.yul\":12810:12812   */\n      0x20\n        /* \"#utility.yul\":12799:12808   */\n      dup3\n        /* \"#utility.yul\":12795:12813   */\n      add\n        /* \"#utility.yul\":12787:12813   */\n      swap1\n      pop\n        /* \"#utility.yul\":12859:12868   */\n      dup2\n        /* \"#utility.yul\":12853:12857   */\n      dup2\n        /* \"#utility.yul\":12849:12869   */\n      sub\n        /* \"#utility.yul\":12845:12846   */\n      0x00\n        /* \"#utility.yul\":12834:12843   */\n      dup4\n        /* \"#utility.yul\":12830:12847   */\n      add\n        /* \"#utility.yul\":12823:12870   */\n      mstore\n        /* \"#utility.yul\":12887:13018   */\n      tag_752\n        /* \"#utility.yul\":13013:13017   */\n      dup2\n        /* \"#utility.yul\":12887:13018   */\n      tag_586\n      jump\t// in\n    tag_752:\n        /* \"#utility.yul\":12879:13018   */\n      swap1\n      pop\n        /* \"#utility.yul\":12606:13025   */\n      swap2\n      swap1\n      pop\n      jump\t// out\n        /* \"#utility.yul\":13031:13168   */\n    tag_587:\n        /* \"#utility.yul\":13085:13090   */\n      0x00\n        /* \"#utility.yul\":13116:13122   */\n      dup2\n        /* \"#utility.yul\":13110:13123   */\n      mload\n        /* \"#utility.yul\":13101:13123   */\n      swap1\n      pop\n        /* \"#utility.yul\":13132:13162   */\n      tag_754\n        /* \"#utility.yul\":13156:13161   */\n      dup2\n        /* \"#utility.yul\":13132:13162   */\n      tag_565\n      jump\t// in\n    tag_754:\n        /* \"#utility.yul\":13031:13168   */\n      swap3\n      swap2\n      pop\n      pop\n      jump\t// out\n        /* \"#utility.yul\":13174:13519   */\n    tag_123:\n        /* \"#utility.yul\":13241:13247   */\n      0x00\n        /* \"#utility.yul\":13290:13292   */\n      0x20\n        /* \"#utility.yul\":13278:13287   */\n      dup3\n        /* \"#utility.yul\":13269:13276   */\n      dup5\n        /* \"#utility.yul\":13265:13288   */\n      sub\n        /* \"#utility.yul\":13261:13293   */\n      slt\n        /* \"#utility.yul\":13258:13377   */\n      iszero\n      tag_756\n      jumpi\n        /* \"#utility.yul\":13296:13375   */\n      tag_757\n      tag_547\n      jump\t// in\n    tag_757:\n        /* \"#utility.yul\":13258:13377   */\n    tag_756:\n        /* \"#utility.yul\":13416:13417   */\n      0x00\n        /* \"#utility.yul\":13441:13502   */\n      tag_758\n        /* \"#utility.yul\":13494:13501   */\n      dup5\n        /* \"#utility.yul\":13485:13491   */\n      dup3\n        /* \"#utility.yul\":13474:13483   */\n      dup6\n        /* \"#utility.yul\":13470:13492   */\n      add\n        /* \"#utility.yul\":13441:13502   */\n      tag_587\n      jump\t// in\n    tag_758:\n        /* \"#utility.yul\":13431:13502   */\n      swap2\n      pop\n        /* \"#utility.yul\":13387:13512   */\n      pop\n        /* \"#utility.yul\":13174:13519   */\n      swap3\n      swap2\n      pop\n      pop\n      jump\t// out\n        /* \"#utility.yul\":13525:13746   */\n    tag_588:\n        /* \"#utility.yul\":13665:13699   */\n      0x537943726f774261727465723a204261736520436f6e74726163742050617573\n        /* \"#utility.yul\":13661:13662   */\n      0x00\n        /* \"#utility.yul\":13653:13659   */\n      dup3\n        /* \"#utility.yul\":13649:13663   */\n      add\n        /* \"#utility.yul\":13642:13700   */\n      mstore\n        /* \"#utility.yul\":13734:13738   */\n      0x6564000000000000000000000000000000000000000000000000000000000000\n        /* \"#utility.yul\":13729:13731   */\n      0x20\n        /* \"#utility.yul\":13721:13727   */\n      dup3\n        /* \"#utility.yul\":13717:13732   */\n      add\n        /* \"#utility.yul\":13710:13739   */\n      mstore\n        /* \"#utility.yul\":13525:13746   */\n      pop\n      jump\t// out\n        /* \"#utility.yul\":13752:14118   */\n    tag_589:\n        /* \"#utility.yul\":13894:13897   */\n      0x00\n        /* \"#utility.yul\":13915:13982   */\n      tag_761\n        /* \"#utility.yul\":13979:13981   */\n      0x22\n        /* \"#utility.yul\":13974:13977   */\n      dup4\n        /* \"#utility.yul\":13915:13982   */\n      tag_582\n      jump\t// in\n    tag_761:\n        /* \"#utility.yul\":13908:13982   */\n      swap2\n      pop\n        /* \"#utility.yul\":13991:14084   */\n      tag_762\n        /* \"#utility.yul\":14080:14083   */\n      dup3\n        /* \"#utility.yul\":13991:14084   */\n      tag_588\n      jump\t// in\n    tag_762:\n        /* \"#utility.yul\":14109:14111   */\n      0x40\n        /* \"#utility.yul\":14104:14107   */\n      dup3\n        /* \"#utility.yul\":14100:14112   */\n      add\n        /* \"#utility.yul\":14093:14112   */\n      swap1\n      pop\n        /* \"#utility.yul\":13752:14118   */\n      swap2\n      swap1\n      pop\n      jump\t// out\n        /* \"#utility.yul\":14124:14543   */\n    tag_126:\n        /* \"#utility.yul\":14290:14294   */\n      0x00\n        /* \"#utility.yul\":14328:14330   */\n      0x20\n        /* \"#utility.yul\":14317:14326   */\n      dup3\n        /* \"#utility.yul\":14313:14331   */\n      add\n        /* \"#utility.yul\":14305:14331   */\n      swap1\n      pop\n        /* \"#utility.yul\":14377:14386   */\n      dup2\n        /* \"#utility.yul\":14371:14375   */\n      dup2\n        /* \"#utility.yul\":14367:14387   */\n      sub\n        /* \"#utility.yul\":14363:14364   */\n      0x00\n        /* \"#utility.yul\":14352:14361   */\n      dup4\n        /* \"#utility.yul\":14348:14365   */\n      add\n        /* \"#utility.yul\":14341:14388   */\n      mstore\n        /* \"#utility.yul\":14405:14536   */\n      tag_764\n        /* \"#utility.yul\":14531:14535   */\n      dup2\n        /* \"#utility.yul\":14405:14536   */\n      tag_589\n      jump\t// in\n    tag_764:\n        /* \"#utility.yul\":14397:14536   */\n      swap1\n      pop\n        /* \"#utility.yul\":14124:14543   */\n      swap2\n      swap1\n      pop\n      jump\t// out\n        /* \"#utility.yul\":14549:14773   */\n    tag_590:\n        /* \"#utility.yul\":14689:14723   */\n      0x537943726f774261727465723a204d554c54495f54524144455f4e4f545f454e\n        /* \"#utility.yul\":14685:14686   */\n      0x00\n        /* \"#utility.yul\":14677:14683   */\n      dup3\n        /* \"#utility.yul\":14673:14687   */\n      add\n        /* \"#utility.yul\":14666:14724   */\n      mstore\n        /* \"#utility.yul\":14758:14765   */\n      0x41424c4544000000000000000000000000000000000000000000000000000000\n        /* \"#utility.yul\":14753:14755   */\n      0x20\n        /* \"#utility.yul\":14745:14751   */\n      dup3\n        /* \"#utility.yul\":14741:14756   */\n      add\n        /* \"#utility.yul\":14734:14766   */\n      mstore\n        /* \"#utility.yul\":14549:14773   */\n      pop\n      jump\t// out\n        /* \"#utility.yul\":14779:15145   */\n    tag_591:\n        /* \"#utility.yul\":14921:14924   */\n      0x00\n        /* \"#utility.yul\":14942:15009   */\n      tag_767\n        /* \"#utility.yul\":15006:15008   */\n      0x25\n        /* \"#utility.yul\":15001:15004   */\n      dup4\n        /* \"#utility.yul\":14942:15009   */\n      tag_582\n      jump\t// in\n    tag_767:\n        /* \"#utility.yul\":14935:15009   */\n      swap2\n      pop\n        /* \"#utility.yul\":15018:15111   */\n      tag_768\n        /* \"#utility.yul\":15107:15110   */\n      dup3\n        /* \"#utility.yul\":15018:15111   */\n      tag_590\n      jump\t// in\n    tag_768:\n        /* \"#utility.yul\":15136:15138   */\n      0x40\n        /* \"#utility.yul\":15131:15134   */\n      dup3\n        /* \"#utility.yul\":15127:15139   */\n      add\n        /* \"#utility.yul\":15120:15139   */\n      swap1\n      pop\n        /* \"#utility.yul\":14779:15145   */\n      swap2\n      swap1\n      pop\n      jump\t// out\n        /* \"#utility.yul\":15151:15570   */\n    tag_130:\n        /* \"#utility.yul\":15317:15321   */\n      0x00\n        /* \"#utility.yul\":15355:15357   */\n      0x20\n        /* \"#utility.yul\":15344:15353   */\n      dup3\n        /* \"#utility.yul\":15340:15358   */\n      add\n        /* \"#utility.yul\":15332:15358   */\n      swap1\n      pop\n        /* \"#utility.yul\":15404:15413   */\n      dup2\n        /* \"#utility.yul\":15398:15402   */\n      dup2\n        /* \"#utility.yul\":15394:15414   */\n      sub\n        /* \"#utility.yul\":15390:15391   */\n      0x00\n        /* \"#utility.yul\":15379:15388   */\n      dup4\n        /* \"#utility.yul\":15375:15392   */\n      add\n        /* \"#utility.yul\":15368:15415   */\n      mstore\n        /* \"#utility.yul\":15432:15563   */\n      tag_770\n        /* \"#utility.yul\":15558:15562   */\n      dup2\n        /* \"#utility.yul\":15432:15563   */\n      tag_591\n      jump\t// in\n    tag_770:\n        /* \"#utility.yul\":15424:15563   */\n      swap1\n      pop\n        /* \"#utility.yul\":15151:15570   */\n      swap2\n      swap1\n      pop\n      jump\t// out\n        /* \"#utility.yul\":15576:15796   */\n    tag_592:\n        /* \"#utility.yul\":15716:15750   */\n      0x537943726f774261727465723a20494e56414c49445f4241525445525f545950\n        /* \"#utility.yul\":15712:15713   */\n      0x00\n        /* \"#utility.yul\":15704:15710   */\n      dup3\n        /* \"#utility.yul\":15700:15714   */\n      add\n        /* \"#utility.yul\":15693:15751   */\n      mstore\n        /* \"#utility.yul\":15785:15788   */\n      0x4500000000000000000000000000000000000000000000000000000000000000\n        /* \"#utility.yul\":15780:15782   */\n      0x20\n        /* \"#utility.yul\":15772:15778   */\n      dup3\n        /* \"#utility.yul\":15768:15783   */\n      add\n        /* \"#utility.yul\":15761:15789   */\n      mstore\n        /* \"#utility.yul\":15576:15796   */\n      pop\n      jump\t// out\n        /* \"#utility.yul\":15802:16168   */\n    tag_593:\n        /* \"#utility.yul\":15944:15947   */\n      0x00\n        /* \"#utility.yul\":15965:16032   */\n      tag_773\n        /* \"#utility.yul\":16029:16031   */\n      0x21\n        /* \"#utility.yul\":16024:16027   */\n      dup4\n        /* \"#utility.yul\":15965:16032   */\n      tag_582\n      jump\t// in\n    tag_773:\n        /* \"#utility.yul\":15958:16032   */\n      swap2\n      pop\n        /* \"#utility.yul\":16041:16134   */\n      tag_774\n        /* \"#utility.yul\":16130:16133   */\n      dup3\n        /* \"#utility.yul\":16041:16134   */\n      tag_592\n      jump\t// in\n    tag_774:\n        /* \"#utility.yul\":16159:16161   */\n      0x40\n        /* \"#utility.yul\":16154:16157   */\n      dup3\n        /* \"#utility.yul\":16150:16162   */\n      add\n        /* \"#utility.yul\":16143:16162   */\n      swap1\n      pop\n        /* \"#utility.yul\":15802:16168   */\n      swap2\n      swap1\n      pop\n      jump\t// out\n        /* \"#utility.yul\":16174:16593   */\n    tag_139:\n        /* \"#utility.yul\":16340:16344   */\n      0x00\n        /* \"#utility.yul\":16378:16380   */\n      0x20\n        /* \"#utility.yul\":16367:16376   */\n      dup3\n        /* \"#utility.yul\":16363:16381   */\n      add\n        /* \"#utility.yul\":16355:16381   */\n      swap1\n      pop\n        /* \"#utility.yul\":16427:16436   */\n      dup2\n        /* \"#utility.yul\":16421:16425   */\n      dup2\n        /* \"#utility.yul\":16417:16437   */\n      sub\n        /* \"#utility.yul\":16413:16414   */\n      0x00\n        /* \"#utility.yul\":16402:16411   */\n      dup4\n        /* \"#utility.yul\":16398:16415   */\n      add\n        /* \"#utility.yul\":16391:16438   */\n      mstore\n        /* \"#utility.yul\":16455:16586   */\n      tag_776\n        /* \"#utility.yul\":16581:16585   */\n      dup2\n        /* \"#utility.yul\":16455:16586   */\n      tag_593\n      jump\t// in\n    tag_776:\n        /* \"#utility.yul\":16447:16586   */\n      swap1\n      pop\n        /* \"#utility.yul\":16174:16593   */\n      swap2\n      swap1\n      pop\n      jump\t// out\n        /* \"#utility.yul\":16599:16769   */\n    tag_594:\n        /* \"#utility.yul\":16739:16761   */\n      0x537943726f774261727465723a20414354495645000000000000000000000000\n        /* \"#utility.yul\":16735:16736   */\n      0x00\n        /* \"#utility.yul\":16727:16733   */\n      dup3\n        /* \"#utility.yul\":16723:16737   */\n      add\n        /* \"#utility.yul\":16716:16762   */\n      mstore\n        /* \"#utility.yul\":16599:16769   */\n      pop\n      jump\t// out\n        /* \"#utility.yul\":16775:17141   */\n    tag_595:\n        /* \"#utility.yul\":16917:16920   */\n      0x00\n        /* \"#utility.yul\":16938:17005   */\n      tag_779\n        /* \"#utility.yul\":17002:17004   */\n      0x14\n        /* \"#utility.yul\":16997:17000   */\n      dup4\n        /* \"#utility.yul\":16938:17005   */\n      tag_582\n      jump\t// in\n    tag_779:\n        /* \"#utility.yul\":16931:17005   */\n      swap2\n      pop\n        /* \"#utility.yul\":17014:17107   */\n      tag_780\n        /* \"#utility.yul\":17103:17106   */\n      dup3\n        /* \"#utility.yul\":17014:17107   */\n      tag_594\n      jump\t// in\n    tag_780:\n        /* \"#utility.yul\":17132:17134   */\n      0x20\n        /* \"#utility.yul\":17127:17130   */\n      dup3\n        /* \"#utility.yul\":17123:17135   */\n      add\n        /* \"#utility.yul\":17116:17135   */\n      swap1\n      pop\n        /* \"#utility.yul\":16775:17141   */\n      swap2\n      swap1\n      pop\n      jump\t// out\n        /* \"#utility.yul\":17147:17566   */\n    tag_173:\n        /* \"#utility.yul\":17313:17317   */\n      0x00\n        /* \"#utility.yul\":17351:17353   */\n      0x20\n        /* \"#utility.yul\":17340:17349   */\n      dup3\n        /* \"#utility.yul\":17336:17354   */\n      add\n        /* \"#utility.yul\":17328:17354   */\n      swap1\n      pop\n        /* \"#utility.yul\":17400:17409   */\n      dup2\n        /* \"#utility.yul\":17394:17398   */\n      dup2\n        /* \"#utility.yul\":17390:17410   */\n      sub\n        /* \"#utility.yul\":17386:17387   */\n      0x00\n        /* \"#utility.yul\":17375:17384   */\n      dup4\n        /* \"#utility.yul\":17371:17388   */\n      add\n        /* \"#utility.yul\":17364:17411   */\n      mstore\n        /* \"#utility.yul\":17428:17559   */\n      tag_782\n        /* \"#utility.yul\":17554:17558   */\n      dup2\n        /* \"#utility.yul\":17428:17559   */\n      tag_595\n      jump\t// in\n    tag_782:\n        /* \"#utility.yul\":17420:17559   */\n      swap1\n      pop\n        /* \"#utility.yul\":17147:17566   */\n      swap2\n      swap1\n      pop\n      jump\t// out\n        /* \"#utility.yul\":17572:17754   */\n    tag_596:\n        /* \"#utility.yul\":17712:17746   */\n      0x4f776e61626c653a2063616c6c6572206973206e6f7420746865206f776e6572\n        /* \"#utility.yul\":17708:17709   */\n      0x00\n        /* \"#utility.yul\":17700:17706   */\n      dup3\n        /* \"#utility.yul\":17696:17710   */\n      add\n        /* \"#utility.yul\":17689:17747   */\n      mstore\n        /* \"#utility.yul\":17572:17754   */\n      pop\n      jump\t// out\n        /* \"#utility.yul\":17760:18126   */\n    tag_597:\n        /* \"#utility.yul\":17902:17905   */\n      0x00\n        /* \"#utility.yul\":17923:17990   */\n      tag_785\n        /* \"#utility.yul\":17987:17989   */\n      0x20\n        /* \"#utility.yul\":17982:17985   */\n      dup4\n        /* \"#utility.yul\":17923:17990   */\n      tag_582\n      jump\t// in\n    tag_785:\n        /* \"#utility.yul\":17916:17990   */\n      swap2\n      pop\n        /* \"#utility.yul\":17999:18092   */\n      tag_786\n        /* \"#utility.yul\":18088:18091   */\n      dup3\n        /* \"#utility.yul\":17999:18092   */\n      tag_596\n      jump\t// in\n    tag_786:\n        /* \"#utility.yul\":18117:18119   */\n      0x20\n        /* \"#utility.yul\":18112:18115   */\n      dup3\n        /* \"#utility.yul\":18108:18120   */\n      add\n        /* \"#utility.yul\":18101:18120   */\n      swap1\n      pop\n        /* \"#utility.yul\":17760:18126   */\n      swap2\n      swap1\n      pop\n      jump\t// out\n        /* \"#utility.yul\":18132:18551   */\n    tag_183:\n        /* \"#utility.yul\":18298:18302   */\n      0x00\n        /* \"#utility.yul\":18336:18338   */\n      0x20\n        /* \"#utility.yul\":18325:18334   */\n      dup3\n        /* \"#utility.yul\":18321:18339   */\n      add\n        /* \"#utility.yul\":18313:18339   */\n      swap1\n      pop\n        /* \"#utility.yul\":18385:18394   */\n      dup2\n        /* \"#utility.yul\":18379:18383   */\n      dup2\n        /* \"#utility.yul\":18375:18395   */\n      sub\n        /* \"#utility.yul\":18371:18372   */\n      0x00\n        /* \"#utility.yul\":18360:18369   */\n      dup4\n        /* \"#utility.yul\":18356:18373   */\n      add\n        /* \"#utility.yul\":18349:18396   */\n      mstore\n        /* \"#utility.yul\":18413:18544   */\n      tag_788\n        /* \"#utility.yul\":18539:18543   */\n      dup2\n        /* \"#utility.yul\":18413:18544   */\n      tag_597\n      jump\t// in\n    tag_788:\n        /* \"#utility.yul\":18405:18544   */\n      swap1\n      pop\n        /* \"#utility.yul\":18132:18551   */\n      swap2\n      swap1\n      pop\n      jump\t// out\n        /* \"#utility.yul\":18557:18700   */\n    tag_598:\n        /* \"#utility.yul\":18614:18619   */\n      0x00\n        /* \"#utility.yul\":18645:18651   */\n      dup2\n        /* \"#utility.yul\":18639:18652   */\n      mload\n        /* \"#utility.yul\":18630:18652   */\n      swap1\n      pop\n        /* \"#utility.yul\":18661:18694   */\n      tag_790\n        /* \"#utility.yul\":18688:18693   */\n      dup2\n        /* \"#utility.yul\":18661:18694   */\n      tag_550\n      jump\t// in\n    tag_790:\n        /* \"#utility.yul\":18557:18700   */\n      swap3\n      swap2\n      pop\n      pop\n      jump\t// out\n        /* \"#utility.yul\":18706:19057   */\n    tag_189:\n        /* \"#utility.yul\":18776:18782   */\n      0x00\n        /* \"#utility.yul\":18825:18827   */\n      0x20\n        /* \"#utility.yul\":18813:18822   */\n      dup3\n        /* \"#utility.yul\":18804:18811   */\n      dup5\n        /* \"#utility.yul\":18800:18823   */\n      sub\n        /* \"#utility.yul\":18796:18828   */\n      slt\n        /* \"#utility.yul\":18793:18912   */\n      iszero\n      tag_792\n      jumpi\n        /* \"#utility.yul\":18831:18910   */\n      tag_793\n      tag_547\n      jump\t// in\n    tag_793:\n        /* \"#utility.yul\":18793:18912   */\n    tag_792:\n        /* \"#utility.yul\":18951:18952   */\n      0x00\n        /* \"#utility.yul\":18976:19040   */\n      tag_794\n        /* \"#utility.yul\":19032:19039   */\n      dup5\n        /* \"#utility.yul\":19023:19029   */\n      dup3\n        /* \"#utility.yul\":19012:19021   */\n      dup6\n        /* \"#utility.yul\":19008:19030   */\n      add\n        /* \"#utility.yul\":18976:19040   */\n      tag_598\n      jump\t// in\n    tag_794:\n        /* \"#utility.yul\":18966:19040   */\n      swap2\n      pop\n        /* \"#utility.yul\":18922:19050   */\n      pop\n        /* \"#utility.yul\":18706:19057   */\n      swap3\n      swap2\n      pop\n      pop\n      jump\t// out\n        /* \"#utility.yul\":19063:19616   */\n    tag_223:\n        /* \"#utility.yul\":19240:19244   */\n      0x00\n        /* \"#utility.yul\":19278:19281   */\n      0x80\n        /* \"#utility.yul\":19267:19276   */\n      dup3\n        /* \"#utility.yul\":19263:19282   */\n      add\n        /* \"#utility.yul\":19255:19282   */\n      swap1\n      pop\n        /* \"#utility.yul\":19292:19363   */\n      tag_796\n        /* \"#utility.yul\":19360:19361   */\n      0x00\n        /* \"#utility.yul\":19349:19358   */\n      dup4\n        /* \"#utility.yul\":19345:19362   */\n      add\n        /* \"#utility.yul\":19336:19342   */\n      dup8\n        /* \"#utility.yul\":19292:19363   */\n      tag_567\n      jump\t// in\n    tag_796:\n        /* \"#utility.yul\":19373:19445   */\n      tag_797\n        /* \"#utility.yul\":19441:19443   */\n      0x20\n        /* \"#utility.yul\":19430:19439   */\n      dup4\n        /* \"#utility.yul\":19426:19444   */\n      add\n        /* \"#utility.yul\":19417:19423   */\n      dup7\n        /* \"#utility.yul\":19373:19445   */\n      tag_567\n      jump\t// in\n    tag_797:\n        /* \"#utility.yul\":19455:19527   */\n      tag_798\n        /* \"#utility.yul\":19523:19525   */\n      0x40\n        /* \"#utility.yul\":19512:19521   */\n      dup4\n        /* \"#utility.yul\":19508:19526   */\n      add\n        /* \"#utility.yul\":19499:19505   */\n      dup6\n        /* \"#utility.yul\":19455:19527   */\n      tag_554\n      jump\t// in\n    tag_798:\n        /* \"#utility.yul\":19537:19609   */\n      tag_799\n        /* \"#utility.yul\":19605:19607   */\n      0x60\n        /* \"#utility.yul\":19594:19603   */\n      dup4\n        /* \"#utility.yul\":19590:19608   */\n      add\n        /* \"#utility.yul\":19581:19587   */\n      dup5\n        /* \"#utility.yul\":19537:19609   */\n      tag_554\n      jump\t// in\n    tag_799:\n        /* \"#utility.yul\":19063:19616   */\n      swap6\n      swap5\n      pop\n      pop\n      pop\n      pop\n      pop\n      jump\t// out\n        /* \"#utility.yul\":19622:19795   */\n    tag_599:\n        /* \"#utility.yul\":19762:19787   */\n      0x537943726f774261727465723a20464f5242494444454e000000000000000000\n        /* \"#utility.yul\":19758:19759   */\n      0x00\n        /* \"#utility.yul\":19750:19756   */\n      dup3\n        /* \"#utility.yul\":19746:19760   */\n      add\n        /* \"#utility.yul\":19739:19788   */\n      mstore\n        /* \"#utility.yul\":19622:19795   */\n      pop\n      jump\t// out\n        /* \"#utility.yul\":19801:20167   */\n    tag_600:\n        /* \"#utility.yul\":19943:19946   */\n      0x00\n        /* \"#utility.yul\":19964:20031   */\n      tag_802\n        /* \"#utility.yul\":20028:20030   */\n      0x17\n        /* \"#utility.yul\":20023:20026   */\n      dup4\n        /* \"#utility.yul\":19964:20031   */\n      tag_582\n      jump\t// in\n    tag_802:\n        /* \"#utility.yul\":19957:20031   */\n      swap2\n      pop\n        /* \"#utility.yul\":20040:20133   */\n      tag_803\n        /* \"#utility.yul\":20129:20132   */\n      dup3\n        /* \"#utility.yul\":20040:20133   */\n      tag_599\n      jump\t// in\n    tag_803:\n        /* \"#utility.yul\":20158:20160   */\n      0x20\n        /* \"#utility.yul\":20153:20156   */\n      dup3\n        /* \"#utility.yul\":20149:20161   */\n      add\n        /* \"#utility.yul\":20142:20161   */\n      swap1\n      pop\n        /* \"#utility.yul\":19801:20167   */\n      swap2\n      swap1\n      pop\n      jump\t// out\n        /* \"#utility.yul\":20173:20592   */\n    tag_272:\n        /* \"#utility.yul\":20339:20343   */\n      0x00\n        /* \"#utility.yul\":20377:20379   */\n      0x20\n        /* \"#utility.yul\":20366:20375   */\n      dup3\n        /* \"#utility.yul\":20362:20380   */\n      add\n        /* \"#utility.yul\":20354:20380   */\n      swap1\n      pop\n        /* \"#utility.yul\":20426:20435   */\n      dup2\n        /* \"#utility.yul\":20420:20424   */\n      dup2\n        /* \"#utility.yul\":20416:20436   */\n      sub\n        /* \"#utility.yul\":20412:20413   */\n      0x00\n        /* \"#utility.yul\":20401:20410   */\n      dup4\n        /* \"#utility.yul\":20397:20414   */\n      add\n        /* \"#utility.yul\":20390:20437   */\n      mstore\n        /* \"#utility.yul\":20454:20585   */\n      tag_805\n        /* \"#utility.yul\":20580:20584   */\n      dup2\n        /* \"#utility.yul\":20454:20585   */\n      tag_600\n      jump\t// in\n    tag_805:\n        /* \"#utility.yul\":20446:20585   */\n      swap1\n      pop\n        /* \"#utility.yul\":20173:20592   */\n      swap2\n      swap1\n      pop\n      jump\t// out\n        /* \"#utility.yul\":20598:20818   */\n    tag_601:\n        /* \"#utility.yul\":20738:20772   */\n      0x537943726f774261727465723a20414c52454144595f494e495449414c495a45\n        /* \"#utility.yul\":20734:20735   */\n      0x00\n        /* \"#utility.yul\":20726:20732   */\n      dup3\n        /* \"#utility.yul\":20722:20736   */\n      add\n        /* \"#utility.yul\":20715:20773   */\n      mstore\n        /* \"#utility.yul\":20807:20810   */\n      0x4400000000000000000000000000000000000000000000000000000000000000\n        /* \"#utility.yul\":20802:20804   */\n      0x20\n        /* \"#utility.yul\":20794:20800   */\n      dup3\n        /* \"#utility.yul\":20790:20805   */\n      add\n        /* \"#utility.yul\":20783:20811   */\n      mstore\n        /* \"#utility.yul\":20598:20818   */\n      pop\n      jump\t// out\n        /* \"#utility.yul\":20824:21190   */\n    tag_602:\n        /* \"#utility.yul\":20966:20969   */\n      0x00\n        /* \"#utility.yul\":20987:21054   */\n      tag_808\n        /* \"#utility.yul\":21051:21053   */\n      0x21\n        /* \"#utility.yul\":21046:21049   */\n      dup4\n        /* \"#utility.yul\":20987:21054   */\n      tag_582\n      jump\t// in\n    tag_808:\n        /* \"#utility.yul\":20980:21054   */\n      swap2\n      pop\n        /* \"#utility.yul\":21063:21156   */\n      tag_809\n        /* \"#utility.yul\":21152:21155   */\n      dup3\n        /* \"#utility.yul\":21063:21156   */\n      tag_601\n      jump\t// in\n    tag_809:\n        /* \"#utility.yul\":21181:21183   */\n      0x40\n        /* \"#utility.yul\":21176:21179   */\n      dup3\n        /* \"#utility.yul\":21172:21184   */\n      add\n        /* \"#utility.yul\":21165:21184   */\n      swap1\n      pop\n        /* \"#utility.yul\":20824:21190   */\n      swap2\n      swap1\n      pop\n      jump\t// out\n        /* \"#utility.yul\":21196:21615   */\n    tag_286:\n        /* \"#utility.yul\":21362:21366   */\n      0x00\n        /* \"#utility.yul\":21400:21402   */\n      0x20\n        /* \"#utility.yul\":21389:21398   */\n      dup3\n        /* \"#utility.yul\":21385:21403   */\n      add\n        /* \"#utility.yul\":21377:21403   */\n      swap1\n      pop\n        /* \"#utility.yul\":21449:21458   */\n      dup2\n        /* \"#utility.yul\":21443:21447   */\n      dup2\n        /* \"#utility.yul\":21439:21459   */\n      sub\n        /* \"#utility.yul\":21435:21436   */\n      0x00\n        /* \"#utility.yul\":21424:21433   */\n      dup4\n        /* \"#utility.yul\":21420:21437   */\n      add\n        /* \"#utility.yul\":21413:21460   */\n      mstore\n        /* \"#utility.yul\":21477:21608   */\n      tag_811\n        /* \"#utility.yul\":21603:21607   */\n      dup2\n        /* \"#utility.yul\":21477:21608   */\n      tag_602\n      jump\t// in\n    tag_811:\n        /* \"#utility.yul\":21469:21608   */\n      swap1\n      pop\n        /* \"#utility.yul\":21196:21615   */\n      swap2\n      swap1\n      pop\n      jump\t// out\n        /* \"#utility.yul\":21621:21798   */\n    tag_603:\n        /* \"#utility.yul\":21761:21790   */\n      0x537943726f774261727465723a20504153545f444541444c494e450000000000\n        /* \"#utility.yul\":21757:21758   */\n      0x00\n        /* \"#utility.yul\":21749:21755   */\n      dup3\n        /* \"#utility.yul\":21745:21759   */\n      add\n        /* \"#utility.yul\":21738:21791   */\n      mstore\n        /* \"#utility.yul\":21621:21798   */\n      pop\n      jump\t// out\n        /* \"#utility.yul\":21804:22170   */\n    tag_604:\n        /* \"#utility.yul\":21946:21949   */\n      0x00\n        /* \"#utility.yul\":21967:22034   */\n      tag_814\n        /* \"#utility.yul\":22031:22033   */\n      0x1b\n        /* \"#utility.yul\":22026:22029   */\n      dup4\n        /* \"#utility.yul\":21967:22034   */\n      tag_582\n      jump\t// in\n    tag_814:\n        /* \"#utility.yul\":21960:22034   */\n      swap2\n      pop\n        /* \"#utility.yul\":22043:22136   */\n      tag_815\n        /* \"#utility.yul\":22132:22135   */\n      dup3\n        /* \"#utility.yul\":22043:22136   */\n      tag_603\n      jump\t// in\n    tag_815:\n        /* \"#utility.yul\":22161:22163   */\n      0x20\n        /* \"#utility.yul\":22156:22159   */\n      dup3\n        /* \"#utility.yul\":22152:22164   */\n      add\n        /* \"#utility.yul\":22145:22164   */\n      swap1\n      pop\n        /* \"#utility.yul\":21804:22170   */\n      swap2\n      swap1\n      pop\n      jump\t// out\n        /* \"#utility.yul\":22176:22595   */\n    tag_289:\n        /* \"#utility.yul\":22342:22346   */\n      0x00\n        /* \"#utility.yul\":22380:22382   */\n      0x20\n        /* \"#utility.yul\":22369:22378   */\n      dup3\n        /* \"#utility.yul\":22365:22383   */\n      add\n        /* \"#utility.yul\":22357:22383   */\n      swap1\n      pop\n        /* \"#utility.yul\":22429:22438   */\n      dup2\n        /* \"#utility.yul\":22423:22427   */\n      dup2\n        /* \"#utility.yul\":22419:22439   */\n      sub\n        /* \"#utility.yul\":22415:22416   */\n      0x00\n        /* \"#utility.yul\":22404:22413   */\n      dup4\n        /* \"#utility.yul\":22400:22417   */\n      add\n        /* \"#utility.yul\":22393:22440   */\n      mstore\n        /* \"#utility.yul\":22457:22588   */\n      tag_817\n        /* \"#utility.yul\":22583:22587   */\n      dup2\n        /* \"#utility.yul\":22457:22588   */\n      tag_604\n      jump\t// in\n    tag_817:\n        /* \"#utility.yul\":22449:22588   */\n      swap1\n      pop\n        /* \"#utility.yul\":22176:22595   */\n      swap2\n      swap1\n      pop\n      jump\t// out\n        /* \"#utility.yul\":22601:22822   */\n    tag_605:\n        /* \"#utility.yul\":22741:22775   */\n      0x537943726f774261727465723a20494e53554646494349454e545f4445504f53\n        /* \"#utility.yul\":22737:22738   */\n      0x00\n        /* \"#utility.yul\":22729:22735   */\n      dup3\n        /* \"#utility.yul\":22725:22739   */\n      add\n        /* \"#utility.yul\":22718:22776   */\n      mstore\n        /* \"#utility.yul\":22810:22814   */\n      0x4954000000000000000000000000000000000000000000000000000000000000\n        /* \"#utility.yul\":22805:22807   */\n      0x20\n        /* \"#utility.yul\":22797:22803   */\n      dup3\n        /* \"#utility.yul\":22793:22808   */\n      add\n        /* \"#utility.yul\":22786:22815   */\n      mstore\n        /* \"#utility.yul\":22601:22822   */\n      pop\n      jump\t// out\n        /* \"#utility.yul\":22828:23194   */\n    tag_606:\n        /* \"#utility.yul\":22970:22973   */\n      0x00\n        /* \"#utility.yul\":22991:23058   */\n      tag_820\n        /* \"#utility.yul\":23055:23057   */\n      0x22\n        /* \"#utility.yul\":23050:23053   */\n      dup4\n        /* \"#utility.yul\":22991:23058   */\n      tag_582\n      jump\t// in\n    tag_820:\n        /* \"#utility.yul\":22984:23058   */\n      swap2\n      pop\n        /* \"#utility.yul\":23067:23160   */\n      tag_821\n        /* \"#utility.yul\":23156:23159   */\n      dup3\n        /* \"#utility.yul\":23067:23160   */\n      tag_605\n      jump\t// in\n    tag_821:\n        /* \"#utility.yul\":23185:23187   */\n      0x40\n        /* \"#utility.yul\":23180:23183   */\n      dup3\n        /* \"#utility.yul\":23176:23188   */\n      add\n        /* \"#utility.yul\":23169:23188   */\n      swap1\n      pop\n        /* \"#utility.yul\":22828:23194   */\n      swap2\n      swap1\n      pop\n      jump\t// out\n        /* \"#utility.yul\":23200:23619   */\n    tag_296:\n        /* \"#utility.yul\":23366:23370   */\n      0x00\n        /* \"#utility.yul\":23404:23406   */\n      0x20\n        /* \"#utility.yul\":23393:23402   */\n      dup3\n        /* \"#utility.yul\":23389:23407   */\n      add\n        /* \"#utility.yul\":23381:23407   */\n      swap1\n      pop\n        /* \"#utility.yul\":23453:23462   */\n      dup2\n        /* \"#utility.yul\":23447:23451   */\n      dup2\n        /* \"#utility.yul\":23443:23463   */\n      sub\n        /* \"#utility.yul\":23439:23440   */\n      0x00\n        /* \"#utility.yul\":23428:23437   */\n      dup4\n        /* \"#utility.yul\":23424:23441   */\n      add\n        /* \"#utility.yul\":23417:23464   */\n      mstore\n        /* \"#utility.yul\":23481:23612   */\n      tag_823\n        /* \"#utility.yul\":23607:23611   */\n      dup2\n        /* \"#utility.yul\":23481:23612   */\n      tag_606\n      jump\t// in\n    tag_823:\n        /* \"#utility.yul\":23473:23612   */\n      swap1\n      pop\n        /* \"#utility.yul\":23200:23619   */\n      swap2\n      swap1\n      pop\n      jump\t// out\n        /* \"#utility.yul\":23625:23805   */\n    tag_394:\n        /* \"#utility.yul\":23673:23750   */\n      0x4e487b7100000000000000000000000000000000000000000000000000000000\n        /* \"#utility.yul\":23670:23671   */\n      0x00\n        /* \"#utility.yul\":23663:23751   */\n      mstore\n        /* \"#utility.yul\":23770:23774   */\n      0x41\n        /* \"#utility.yul\":23767:23768   */\n      0x04\n        /* \"#utility.yul\":23760:23775   */\n      mstore\n        /* \"#utility.yul\":23794:23798   */\n      0x24\n        /* \"#utility.yul\":23791:23792   */\n      0x00\n        /* \"#utility.yul\":23784:23799   */\n      revert\n        /* \"#utility.yul\":23811:23991   */\n    tag_407:\n        /* \"#utility.yul\":23859:23936   */\n      0x4e487b7100000000000000000000000000000000000000000000000000000000\n        /* \"#utility.yul\":23856:23857   */\n      0x00\n        /* \"#utility.yul\":23849:23937   */\n      mstore\n        /* \"#utility.yul\":23956:23960   */\n      0x32\n        /* \"#utility.yul\":23953:23954   */\n      0x04\n        /* \"#utility.yul\":23946:23961   */\n      mstore\n        /* \"#utility.yul\":23980:23984   */\n      0x24\n        /* \"#utility.yul\":23977:23978   */\n      0x00\n        /* \"#utility.yul\":23970:23985   */\n      revert\n        /* \"#utility.yul\":23997:24177   */\n    tag_607:\n        /* \"#utility.yul\":24045:24122   */\n      0x4e487b7100000000000000000000000000000000000000000000000000000000\n        /* \"#utility.yul\":24042:24043   */\n      0x00\n        /* \"#utility.yul\":24035:24123   */\n      mstore\n        /* \"#utility.yul\":24142:24146   */\n      0x11\n        /* \"#utility.yul\":24139:24140   */\n      0x04\n        /* \"#utility.yul\":24132:24147   */\n      mstore\n        /* \"#utility.yul\":24166:24170   */\n      0x24\n        /* \"#utility.yul\":24163:24164   */\n      0x00\n        /* \"#utility.yul\":24156:24171   */\n      revert\n        /* \"#utility.yul\":24183:24416   */\n    tag_422:\n        /* \"#utility.yul\":24222:24225   */\n      0x00\n        /* \"#utility.yul\":24245:24269   */\n      tag_828\n        /* \"#utility.yul\":24263:24268   */\n      dup3\n        /* \"#utility.yul\":24245:24269   */\n      tag_549\n      jump\t// in\n    tag_828:\n        /* \"#utility.yul\":24236:24269   */\n      swap2\n      pop\n        /* \"#utility.yul\":24291:24357   */\n      0xffffffffffffffffffffffffffffffffffffffffffffffffffffffffffffffff\n        /* \"#utility.yul\":24284:24289   */\n      dup3\n        /* \"#utility.yul\":24281:24358   */\n      sub\n        /* \"#utility.yul\":24278:24381   */\n      tag_829\n      jumpi\n        /* \"#utility.yul\":24361:24379   */\n      tag_830\n      tag_607\n      jump\t// in\n    tag_830:\n        /* \"#utility.yul\":24278:24381   */\n    tag_829:\n        /* \"#utility.yul\":24408:24409   */\n      0x01\n        /* \"#utility.yul\":24401:24406   */\n      dup3\n        /* \"#utility.yul\":24397:24410   */\n      add\n        /* \"#utility.yul\":24390:24410   */\n      swap1\n      pop\n        /* \"#utility.yul\":24183:24416   */\n      swap2\n      swap1\n      pop\n      jump\t// out\n        /* \"#utility.yul\":24422:24647   */\n    tag_608:\n        /* \"#utility.yul\":24562:24596   */\n      0x4f776e61626c653a206e6577206f776e657220697320746865207a65726f2061\n        /* \"#utility.yul\":24558:24559   */\n      0x00\n        /* \"#utility.yul\":24550:24556   */\n      dup3\n        /* \"#utility.yul\":24546:24560   */\n      add\n        /* \"#utility.yul\":24539:24597   */\n      mstore\n        /* \"#utility.yul\":24631:24639   */\n      0x6464726573730000000000000000000000000000000000000000000000000000\n        /* \"#utility.yul\":24626:24628   */\n      0x20\n        /* \"#utility.yul\":24618:24624   */\n      dup3\n        /* \"#utility.yul\":24614:24629   */\n      add\n        /* \"#utility.yul\":24607:24640   */\n      mstore\n        /* \"#utility.yul\":24422:24647   */\n      pop\n      jump\t// out\n        /* \"#utility.yul\":24653:25019   */\n    tag_609:\n        /* \"#utility.yul\":24795:24798   */\n      0x00\n        /* \"#utility.yul\":24816:24883   */\n      tag_833\n        /* \"#utility.yul\":24880:24882   */\n      0x26\n        /* \"#utility.yul\":24875:24878   */\n      dup4\n        /* \"#utility.yul\":24816:24883   */\n      tag_582\n      jump\t// in\n    tag_833:\n        /* \"#utility.yul\":24809:24883   */\n      swap2\n      pop\n        /* \"#utility.yul\":24892:24985   */\n      tag_834\n        /* \"#utility.yul\":24981:24984   */\n      dup3\n        /* \"#utility.yul\":24892:24985   */\n      tag_608\n      jump\t// in\n    tag_834:\n        /* \"#utility.yul\":25010:25012   */\n      0x40\n        /* \"#utility.yul\":25005:25008   */\n      dup3\n        /* \"#utility.yul\":25001:25013   */\n      add\n        /* \"#utility.yul\":24994:25013   */\n      swap1\n      pop\n        /* \"#utility.yul\":24653:25019   */\n      swap2\n      swap1\n      pop\n      jump\t// out\n        /* \"#utility.yul\":25025:25444   */\n    tag_431:\n        /* \"#utility.yul\":25191:25195   */\n      0x00\n        /* \"#utility.yul\":25229:25231   */\n      0x20\n        /* \"#utility.yul\":25218:25227   */\n      dup3\n        /* \"#utility.yul\":25214:25232   */\n      add\n        /* \"#utility.yul\":25206:25232   */\n      swap1\n      pop\n        /* \"#utility.yul\":25278:25287   */\n      dup2\n        /* \"#utility.yul\":25272:25276   */\n      dup2\n        /* \"#utility.yul\":25268:25288   */\n      sub\n        /* \"#utility.yul\":25264:25265   */\n      0x00\n        /* \"#utility.yul\":25253:25262   */\n      dup4\n        /* \"#utility.yul\":25249:25266   */\n      add\n        /* \"#utility.yul\":25242:25289   */\n      mstore\n        /* \"#utility.yul\":25306:25437   */\n      tag_836\n        /* \"#utility.yul\":25432:25436   */\n      dup2\n        /* \"#utility.yul\":25306:25437   */\n      tag_609\n      jump\t// in\n    tag_836:\n        /* \"#utility.yul\":25298:25437   */\n      swap1\n      pop\n        /* \"#utility.yul\":25025:25444   */\n      swap2\n      swap1\n      pop\n      jump\t// out\n        /* \"#utility.yul\":25450:25671   */\n    tag_610:\n        /* \"#utility.yul\":25590:25624   */\n      0x537943726f774261727465723a20494e53554646494349454e545f42414c414e\n        /* \"#utility.yul\":25586:25587   */\n      0x00\n        /* \"#utility.yul\":25578:25584   */\n      dup3\n        /* \"#utility.yul\":25574:25588   */\n      add\n        /* \"#utility.yul\":25567:25625   */\n      mstore\n        /* \"#utility.yul\":25659:25663   */\n      0x4345000000000000000000000000000000000000000000000000000000000000\n        /* \"#utility.yul\":25654:25656   */\n      0x20\n        /* \"#utility.yul\":25646:25652   */\n      dup3\n        /* \"#utility.yul\":25642:25657   */\n      add\n        /* \"#utility.yul\":25635:25664   */\n      mstore\n        /* \"#utility.yul\":25450:25671   */\n      pop\n      jump\t// out\n        /* \"#utility.yul\":25677:26043   */\n    tag_611:\n        /* \"#utility.yul\":25819:25822   */\n      0x00\n        /* \"#utility.yul\":25840:25907   */\n      tag_839\n        /* \"#utility.yul\":25904:25906   */\n      0x22\n        /* \"#utility.yul\":25899:25902   */\n      dup4\n        /* \"#utility.yul\":25840:25907   */\n      tag_582\n      jump\t// in\n    tag_839:\n        /* \"#utility.yul\":25833:25907   */\n      swap2\n      pop\n        /* \"#utility.yul\":25916:26009   */\n      tag_840\n        /* \"#utility.yul\":26005:26008   */\n      dup3\n        /* \"#utility.yul\":25916:26009   */\n      tag_610\n      jump\t// in\n    tag_840:\n        /* \"#utility.yul\":26034:26036   */\n      0x40\n        /* \"#utility.yul\":26029:26032   */\n      dup3\n        /* \"#utility.yul\":26025:26037   */\n      add\n        /* \"#utility.yul\":26018:26037   */\n      swap1\n      pop\n        /* \"#utility.yul\":25677:26043   */\n      swap2\n      swap1\n      pop\n      jump\t// out\n        /* \"#utility.yul\":26049:26468   */\n    tag_440:\n        /* \"#utility.yul\":26215:26219   */\n      0x00\n        /* \"#utility.yul\":26253:26255   */\n      0x20\n        /* \"#utility.yul\":26242:26251   */\n      dup3\n        /* \"#utility.yul\":26238:26256   */\n      add\n        /* \"#utility.yul\":26230:26256   */\n      swap1\n      pop\n        /* \"#utility.yul\":26302:26311   */\n      dup2\n        /* \"#utility.yul\":26296:26300   */\n      dup2\n        /* \"#utility.yul\":26292:26312   */\n      sub\n        /* \"#utility.yul\":26288:26289   */\n      0x00\n        /* \"#utility.yul\":26277:26286   */\n      dup4\n        /* \"#utility.yul\":26273:26290   */\n      add\n        /* \"#utility.yul\":26266:26313   */\n      mstore\n        /* \"#utility.yul\":26330:26461   */\n      tag_842\n        /* \"#utility.yul\":26456:26460   */\n      dup2\n        /* \"#utility.yul\":26330:26461   */\n      tag_611\n      jump\t// in\n    tag_842:\n        /* \"#utility.yul\":26322:26461   */\n      swap1\n      pop\n        /* \"#utility.yul\":26049:26468   */\n      swap2\n      swap1\n      pop\n      jump\t// out\n        /* \"#utility.yul\":26474:26704   */\n    tag_612:\n        /* \"#utility.yul\":26614:26648   */\n      0x537943726f774261727465723a20494e53554646494349454e545f434f4e5452\n        /* \"#utility.yul\":26610:26611   */\n      0x00\n        /* \"#utility.yul\":26602:26608   */\n      dup3\n        /* \"#utility.yul\":26598:26612   */\n      add\n        /* \"#utility.yul\":26591:26649   */\n      mstore\n        /* \"#utility.yul\":26683:26696   */\n      0x4143545f42414c414e4345000000000000000000000000000000000000000000\n        /* \"#utility.yul\":26678:26680   */\n      0x20\n        /* \"#utility.yul\":26670:26676   */\n      dup3\n        /* \"#utility.yul\":26666:26681   */\n      add\n        /* \"#utility.yul\":26659:26697   */\n      mstore\n        /* \"#utility.yul\":26474:26704   */\n      pop\n      jump\t// out\n        /* \"#utility.yul\":26710:27076   */\n    tag_613:\n        /* \"#utility.yul\":26852:26855   */\n      0x00\n        /* \"#utility.yul\":26873:26940   */\n      tag_845\n        /* \"#utility.yul\":26937:26939   */\n      0x2b\n        /* \"#utility.yul\":26932:26935   */\n      dup4\n        /* \"#utility.yul\":26873:26940   */\n      tag_582\n      jump\t// in\n    tag_845:\n        /* \"#utility.yul\":26866:26940   */\n      swap2\n      pop\n        /* \"#utility.yul\":26949:27042   */\n      tag_846\n        /* \"#utility.yul\":27038:27041   */\n      dup3\n        /* \"#utility.yul\":26949:27042   */\n      tag_612\n      jump\t// in\n    tag_846:\n        /* \"#utility.yul\":27067:27069   */\n      0x40\n        /* \"#utility.yul\":27062:27065   */\n      dup3\n        /* \"#utility.yul\":27058:27070   */\n      add\n        /* \"#utility.yul\":27051:27070   */\n      swap1\n      pop\n        /* \"#utility.yul\":26710:27076   */\n      swap2\n      swap1\n      pop\n      jump\t// out\n        /* \"#utility.yul\":27082:27501   */\n    tag_448:\n        /* \"#utility.yul\":27248:27252   */\n      0x00\n        /* \"#utility.yul\":27286:27288   */\n      0x20\n        /* \"#utility.yul\":27275:27284   */\n      dup3\n        /* \"#utility.yul\":27271:27289   */\n      add\n        /* \"#utility.yul\":27263:27289   */\n      swap1\n      pop\n        /* \"#utility.yul\":27335:27344   */\n      dup2\n        /* \"#utility.yul\":27329:27333   */\n      dup2\n        /* \"#utility.yul\":27325:27345   */\n      sub\n        /* \"#utility.yul\":27321:27322   */\n      0x00\n        /* \"#utility.yul\":27310:27319   */\n      dup4\n        /* \"#utility.yul\":27306:27323   */\n      add\n        /* \"#utility.yul\":27299:27346   */\n      mstore\n        /* \"#utility.yul\":27363:27494   */\n      tag_848\n        /* \"#utility.yul\":27489:27493   */\n      dup2\n        /* \"#utility.yul\":27363:27494   */\n      tag_613\n      jump\t// in\n    tag_848:\n        /* \"#utility.yul\":27355:27494   */\n      swap1\n      pop\n        /* \"#utility.yul\":27082:27501   */\n      swap2\n      swap1\n      pop\n      jump\t// out\n        /* \"#utility.yul\":27507:27605   */\n    tag_614:\n        /* \"#utility.yul\":27558:27564   */\n      0x00\n        /* \"#utility.yul\":27592:27597   */\n      dup2\n        /* \"#utility.yul\":27586:27598   */\n      mload\n        /* \"#utility.yul\":27576:27598   */\n      swap1\n      pop\n        /* \"#utility.yul\":27507:27605   */\n      swap2\n      swap1\n      pop\n      jump\t// out\n        /* \"#utility.yul\":27611:27758   */\n    tag_615:\n        /* \"#utility.yul\":27712:27723   */\n      0x00\n        /* \"#utility.yul\":27749:27752   */\n      dup2\n        /* \"#utility.yul\":27734:27752   */\n      swap1\n      pop\n        /* \"#utility.yul\":27611:27758   */\n      swap3\n      swap2\n      pop\n      pop\n      jump\t// out\n        /* \"#utility.yul\":27764:28071   */\n    tag_616:\n        /* \"#utility.yul\":27832:27833   */\n      0x00\n        /* \"#utility.yul\":27842:27955   */\n    tag_852:\n        /* \"#utility.yul\":27856:27862   */\n      dup4\n        /* \"#utility.yul\":27853:27854   */\n      dup2\n        /* \"#utility.yul\":27850:27863   */\n      lt\n        /* \"#utility.yul\":27842:27955   */\n      iszero\n      tag_854\n      jumpi\n        /* \"#utility.yul\":27941:27942   */\n      dup1\n        /* \"#utility.yul\":27936:27939   */\n      dup3\n        /* \"#utility.yul\":27932:27943   */\n      add\n        /* \"#utility.yul\":27926:27944   */\n      mload\n        /* \"#utility.yul\":27922:27923   */\n      dup2\n        /* \"#utility.yul\":27917:27920   */\n      dup5\n        /* \"#utility.yul\":27913:27924   */\n      add\n        /* \"#utility.yul\":27906:27945   */\n      mstore\n        /* \"#utility.yul\":27878:27880   */\n      0x20\n        /* \"#utility.yul\":27875:27876   */\n      dup2\n        /* \"#utility.yul\":27871:27881   */\n      add\n        /* \"#utility.yul\":27866:27881   */\n      swap1\n      pop\n        /* \"#utility.yul\":27842:27955   */\n      jump(tag_852)\n    tag_854:\n        /* \"#utility.yul\":27973:27979   */\n      dup4\n        /* \"#utility.yul\":27970:27971   */\n      dup2\n        /* \"#utility.yul\":27967:27980   */\n      gt\n        /* \"#utility.yul\":27964:28065   */\n      iszero\n      tag_855\n      jumpi\n        /* \"#utility.yul\":28053:28054   */\n      0x00\n        /* \"#utility.yul\":28044:28050   */\n      dup5\n        /* \"#utility.yul\":28039:28042   */\n      dup5\n        /* \"#utility.yul\":28035:28051   */\n      add\n        /* \"#utility.yul\":28028:28055   */\n      mstore\n        /* \"#utility.yul\":27964:28065   */\n    tag_855:\n        /* \"#utility.yul\":27813:28071   */\n      pop\n        /* \"#utility.yul\":27764:28071   */\n      pop\n      pop\n      pop\n      jump\t// out\n        /* \"#utility.yul\":28077:28450   */\n    tag_617:\n        /* \"#utility.yul\":28181:28184   */\n      0x00\n        /* \"#utility.yul\":28209:28247   */\n      tag_857\n        /* \"#utility.yul\":28241:28246   */\n      dup3\n        /* \"#utility.yul\":28209:28247   */\n      tag_614\n      jump\t// in\n    tag_857:\n        /* \"#utility.yul\":28263:28351   */\n      tag_858\n        /* \"#utility.yul\":28344:28350   */\n      dup2\n        /* \"#utility.yul\":28339:28342   */\n      dup6\n        /* \"#utility.yul\":28263:28351   */\n      tag_615\n      jump\t// in\n    tag_858:\n        /* \"#utility.yul\":28256:28351   */\n      swap4\n      pop\n        /* \"#utility.yul\":28360:28412   */\n      tag_859\n        /* \"#utility.yul\":28405:28411   */\n      dup2\n        /* \"#utility.yul\":28400:28403   */\n      dup6\n        /* \"#utility.yul\":28393:28397   */\n      0x20\n        /* \"#utility.yul\":28386:28391   */\n      dup7\n        /* \"#utility.yul\":28382:28398   */\n      add\n        /* \"#utility.yul\":28360:28412   */\n      tag_616\n      jump\t// in\n    tag_859:\n        /* \"#utility.yul\":28437:28443   */\n      dup1\n        /* \"#utility.yul\":28432:28435   */\n      dup5\n        /* \"#utility.yul\":28428:28444   */\n      add\n        /* \"#utility.yul\":28421:28444   */\n      swap2\n      pop\n        /* \"#utility.yul\":28185:28450   */\n      pop\n        /* \"#utility.yul\":28077:28450   */\n      swap3\n      swap2\n      pop\n      pop\n      jump\t// out\n        /* \"#utility.yul\":28456:28727   */\n    tag_488:\n        /* \"#utility.yul\":28586:28589   */\n      0x00\n        /* \"#utility.yul\":28608:28701   */\n      tag_861\n        /* \"#utility.yul\":28697:28700   */\n      dup3\n        /* \"#utility.yul\":28688:28694   */\n      dup5\n        /* \"#utility.yul\":28608:28701   */\n      tag_617\n      jump\t// in\n    tag_861:\n        /* \"#utility.yul\":28601:28701   */\n      swap2\n      pop\n        /* \"#utility.yul\":28718:28721   */\n      dup2\n        /* \"#utility.yul\":28711:28721   */\n      swap1\n      pop\n        /* \"#utility.yul\":28456:28727   */\n      swap3\n      swap2\n      pop\n      pop\n      jump\t// out\n        /* \"#utility.yul\":28733:28955   */\n    tag_618:\n        /* \"#utility.yul\":28873:28907   */\n      0x5472616e7366657248656c7065723a204554485f5452414e534645525f464149\n        /* \"#utility.yul\":28869:28870   */\n      0x00\n        /* \"#utility.yul\":28861:28867   */\n      dup3\n        /* \"#utility.yul\":28857:28871   */\n      add\n        /* \"#utility.yul\":28850:28908   */\n      mstore\n        /* \"#utility.yul\":28942:28947   */\n      0x4c45440000000000000000000000000000000000000000000000000000000000\n        /* \"#utility.yul\":28937:28939   */\n      0x20\n        /* \"#utility.yul\":28929:28935   */\n      dup3\n        /* \"#utility.yul\":28925:28940   */\n      add\n        /* \"#utility.yul\":28918:28948   */\n      mstore\n        /* \"#utility.yul\":28733:28955   */\n      pop\n      jump\t// out\n        /* \"#utility.yul\":28961:29327   */\n    tag_619:\n        /* \"#utility.yul\":29103:29106   */\n      0x00\n        /* \"#utility.yul\":29124:29191   */\n      tag_864\n        /* \"#utility.yul\":29188:29190   */\n      0x23\n        /* \"#utility.yul\":29183:29186   */\n      dup4\n        /* \"#utility.yul\":29124:29191   */\n      tag_582\n      jump\t// in\n    tag_864:\n        /* \"#utility.yul\":29117:29191   */\n      swap2\n      pop\n        /* \"#utility.yul\":29200:29293   */\n      tag_865\n        /* \"#utility.yul\":29289:29292   */\n      dup3\n        /* \"#utility.yul\":29200:29293   */\n      tag_618\n      jump\t// in\n    tag_865:\n        /* \"#utility.yul\":29318:29320   */\n      0x40\n        /* \"#utility.yul\":29313:29316   */\n      dup3\n        /* \"#utility.yul\":29309:29321   */\n      add\n        /* \"#utility.yul\":29302:29321   */\n      swap1\n      pop\n        /* \"#utility.yul\":28961:29327   */\n      swap2\n      swap1\n      pop\n      jump\t// out\n        /* \"#utility.yul\":29333:29752   */\n    tag_494:\n        /* \"#utility.yul\":29499:29503   */\n      0x00\n        /* \"#utility.yul\":29537:29539   */\n      0x20\n        /* \"#utility.yul\":29526:29535   */\n      dup3\n        /* \"#utility.yul\":29522:29540   */\n      add\n        /* \"#utility.yul\":29514:29540   */\n      swap1\n      pop\n        /* \"#utility.yul\":29586:29595   */\n      dup2\n        /* \"#utility.yul\":29580:29584   */\n      dup2\n        /* \"#utility.yul\":29576:29596   */\n      sub\n        /* \"#utility.yul\":29572:29573   */\n      0x00\n        /* \"#utility.yul\":29561:29570   */\n      dup4\n        /* \"#utility.yul\":29557:29574   */\n      add\n        /* \"#utility.yul\":29550:29597   */\n      mstore\n        /* \"#utility.yul\":29614:29745   */\n      tag_867\n        /* \"#utility.yul\":29740:29744   */\n      dup2\n        /* \"#utility.yul\":29614:29745   */\n      tag_619\n      jump\t// in\n    tag_867:\n        /* \"#utility.yul\":29606:29745   */\n      swap1\n      pop\n        /* \"#utility.yul\":29333:29752   */\n      swap2\n      swap1\n      pop\n      jump\t// out\n        /* \"#utility.yul\":29758:30090   */\n    tag_497:\n        /* \"#utility.yul\":29879:29883   */\n      0x00\n        /* \"#utility.yul\":29917:29919   */\n      0x40\n        /* \"#utility.yul\":29906:29915   */\n      dup3\n        /* \"#utility.yul\":29902:29920   */\n      add\n        /* \"#utility.yul\":29894:29920   */\n      swap1\n      pop\n        /* \"#utility.yul\":29930:30001   */\n      tag_869\n        /* \"#utility.yul\":29998:29999   */\n      0x00\n        /* \"#utility.yul\":29987:29996   */\n      dup4\n        /* \"#utility.yul\":29983:30000   */\n      add\n        /* \"#utility.yul\":29974:29980   */\n      dup6\n        /* \"#utility.yul\":29930:30001   */\n      tag_567\n      jump\t// in\n    tag_869:\n        /* \"#utility.yul\":30011:30083   */\n      tag_870\n        /* \"#utility.yul\":30079:30081   */\n      0x20\n        /* \"#utility.yul\":30068:30077   */\n      dup4\n        /* \"#utility.yul\":30064:30082   */\n      add\n        /* \"#utility.yul\":30055:30061   */\n      dup5\n        /* \"#utility.yul\":30011:30083   */\n      tag_554\n      jump\t// in\n    tag_870:\n        /* \"#utility.yul\":29758:30090   */\n      swap4\n      swap3\n      pop\n      pop\n      pop\n      jump\t// out\n        /* \"#utility.yul\":30096:30277   */\n    tag_620:\n        /* \"#utility.yul\":30236:30269   */\n      0x5472616e7366657248656c7065723a205452414e534645525f4641494c454400\n        /* \"#utility.yul\":30232:30233   */\n      0x00\n        /* \"#utility.yul\":30224:30230   */\n      dup3\n        /* \"#utility.yul\":30220:30234   */\n      add\n        /* \"#utility.yul\":30213:30270   */\n      mstore\n        /* \"#utility.yul\":30096:30277   */\n      pop\n      jump\t// out\n        /* \"#utility.yul\":30283:30649   */\n    tag_621:\n        /* \"#utility.yul\":30425:30428   */\n      0x00\n        /* \"#utility.yul\":30446:30513   */\n      tag_873\n        /* \"#utility.yul\":30510:30512   */\n      0x1f\n        /* \"#utility.yul\":30505:30508   */\n      dup4\n        /* \"#utility.yul\":30446:30513   */\n      tag_582\n      jump\t// in\n    tag_873:\n        /* \"#utility.yul\":30439:30513   */\n      swap2\n      pop\n        /* \"#utility.yul\":30522:30615   */\n      tag_874\n        /* \"#utility.yul\":30611:30614   */\n      dup3\n        /* \"#utility.yul\":30522:30615   */\n      tag_620\n      jump\t// in\n    tag_874:\n        /* \"#utility.yul\":30640:30642   */\n      0x20\n        /* \"#utility.yul\":30635:30638   */\n      dup3\n        /* \"#utility.yul\":30631:30643   */\n      add\n        /* \"#utility.yul\":30624:30643   */\n      swap1\n      pop\n        /* \"#utility.yul\":30283:30649   */\n      swap2\n      swap1\n      pop\n      jump\t// out\n        /* \"#utility.yul\":30655:31074   */\n    tag_507:\n        /* \"#utility.yul\":30821:30825   */\n      0x00\n        /* \"#utility.yul\":30859:30861   */\n      0x20\n        /* \"#utility.yul\":30848:30857   */\n      dup3\n        /* \"#utility.yul\":30844:30862   */\n      add\n        /* \"#utility.yul\":30836:30862   */\n      swap1\n      pop\n        /* \"#utility.yul\":30908:30917   */\n      dup2\n        /* \"#utility.yul\":30902:30906   */\n      dup2\n        /* \"#utility.yul\":30898:30918   */\n      sub\n        /* \"#utility.yul\":30894:30895   */\n      0x00\n        /* \"#utility.yul\":30883:30892   */\n      dup4\n        /* \"#utility.yul\":30879:30896   */\n      add\n        /* \"#utility.yul\":30872:30919   */\n      mstore\n        /* \"#utility.yul\":30936:31067   */\n      tag_876\n        /* \"#utility.yul\":31062:31066   */\n      dup2\n        /* \"#utility.yul\":30936:31067   */\n      tag_621\n      jump\t// in\n    tag_876:\n        /* \"#utility.yul\":30928:31067   */\n      swap1\n      pop\n        /* \"#utility.yul\":30655:31074   */\n      swap2\n      swap1\n      pop\n      jump\t// out\n        /* \"#utility.yul\":31080:31428   */\n    tag_530:\n        /* \"#utility.yul\":31120:31127   */\n      0x00\n        /* \"#utility.yul\":31143:31163   */\n      tag_878\n        /* \"#utility.yul\":31161:31162   */\n      dup3\n        /* \"#utility.yul\":31143:31163   */\n      tag_549\n      jump\t// in\n    tag_878:\n        /* \"#utility.yul\":31138:31163   */\n      swap2\n      pop\n        /* \"#utility.yul\":31177:31197   */\n      tag_879\n        /* \"#utility.yul\":31195:31196   */\n      dup4\n        /* \"#utility.yul\":31177:31197   */\n      tag_549\n      jump\t// in\n    tag_879:\n        /* \"#utility.yul\":31172:31197   */\n      swap3\n      pop\n        /* \"#utility.yul\":31365:31366   */\n      dup2\n        /* \"#utility.yul\":31297:31363   */\n      0xffffffffffffffffffffffffffffffffffffffffffffffffffffffffffffffff\n        /* \"#utility.yul\":31293:31367   */\n      div\n        /* \"#utility.yul\":31290:31291   */\n      dup4\n        /* \"#utility.yul\":31287:31368   */\n      gt\n        /* \"#utility.yul\":31282:31283   */\n      dup3\n        /* \"#utility.yul\":31275:31284   */\n      iszero\n        /* \"#utility.yul\":31268:31285   */\n      iszero\n        /* \"#utility.yul\":31264:31369   */\n      and\n        /* \"#utility.yul\":31261:31392   */\n      iszero\n      tag_880\n      jumpi\n        /* \"#utility.yul\":31372:31390   */\n      tag_881\n      tag_607\n      jump\t// in\n    tag_881:\n        /* \"#utility.yul\":31261:31392   */\n    tag_880:\n        /* \"#utility.yul\":31420:31421   */\n      dup3\n        /* \"#utility.yul\":31417:31418   */\n      dup3\n        /* \"#utility.yul\":31413:31422   */\n      mul\n        /* \"#utility.yul\":31402:31422   */\n      swap1\n      pop\n        /* \"#utility.yul\":31080:31428   */\n      swap3\n      swap2\n      pop\n      pop\n      jump\t// out\n        /* \"#utility.yul\":31434:31614   */\n    tag_622:\n        /* \"#utility.yul\":31482:31559   */\n      0x4e487b7100000000000000000000000000000000000000000000000000000000\n        /* \"#utility.yul\":31479:31480   */\n      0x00\n        /* \"#utility.yul\":31472:31560   */\n      mstore\n        /* \"#utility.yul\":31579:31583   */\n      0x12\n        /* \"#utility.yul\":31576:31577   */\n      0x04\n        /* \"#utility.yul\":31569:31584   */\n      mstore\n        /* \"#utility.yul\":31603:31607   */\n      0x24\n        /* \"#utility.yul\":31600:31601   */\n      0x00\n        /* \"#utility.yul\":31593:31608   */\n      revert\n        /* \"#utility.yul\":31620:31805   */\n    tag_532:\n        /* \"#utility.yul\":31660:31661   */\n      0x00\n        /* \"#utility.yul\":31677:31697   */\n      tag_884\n        /* \"#utility.yul\":31695:31696   */\n      dup3\n        /* \"#utility.yul\":31677:31697   */\n      tag_549\n      jump\t// in\n    tag_884:\n        /* \"#utility.yul\":31672:31697   */\n      swap2\n      pop\n        /* \"#utility.yul\":31711:31731   */\n      tag_885\n        /* \"#utility.yul\":31729:31730   */\n      dup4\n        /* \"#utility.yul\":31711:31731   */\n      tag_549\n      jump\t// in\n    tag_885:\n        /* \"#utility.yul\":31706:31731   */\n      swap3\n      pop\n        /* \"#utility.yul\":31750:31751   */\n      dup3\n        /* \"#utility.yul\":31740:31775   */\n      tag_886\n      jumpi\n        /* \"#utility.yul\":31755:31773   */\n      tag_887\n      tag_622\n      jump\t// in\n    tag_887:\n        /* \"#utility.yul\":31740:31775   */\n    tag_886:\n        /* \"#utility.yul\":31797:31798   */\n      dup3\n        /* \"#utility.yul\":31794:31795   */\n      dup3\n        /* \"#utility.yul\":31790:31799   */\n      div\n        /* \"#utility.yul\":31785:31799   */\n      swap1\n      pop\n        /* \"#utility.yul\":31620:31805   */\n      swap3\n      swap2\n      pop\n      pop\n      jump\t// out\n        /* \"#utility.yul\":31811:32253   */\n    tag_535:\n        /* \"#utility.yul\":31960:31964   */\n      0x00\n        /* \"#utility.yul\":31998:32000   */\n      0x60\n        /* \"#utility.yul\":31987:31996   */\n      dup3\n        /* \"#utility.yul\":31983:32001   */\n      add\n        /* \"#utility.yul\":31975:32001   */\n      swap1\n      pop\n        /* \"#utility.yul\":32011:32082   */\n      tag_889\n        /* \"#utility.yul\":32079:32080   */\n      0x00\n        /* \"#utility.yul\":32068:32077   */\n      dup4\n        /* \"#utility.yul\":32064:32081   */\n      add\n        /* \"#utility.yul\":32055:32061   */\n      dup7\n        /* \"#utility.yul\":32011:32082   */\n      tag_567\n      jump\t// in\n    tag_889:\n        /* \"#utility.yul\":32092:32164   */\n      tag_890\n        /* \"#utility.yul\":32160:32162   */\n      0x20\n        /* \"#utility.yul\":32149:32158   */\n      dup4\n        /* \"#utility.yul\":32145:32163   */\n      add\n        /* \"#utility.yul\":32136:32142   */\n      dup6\n        /* \"#utility.yul\":32092:32164   */\n      tag_567\n      jump\t// in\n    tag_890:\n        /* \"#utility.yul\":32174:32246   */\n      tag_891\n        /* \"#utility.yul\":32242:32244   */\n      0x40\n        /* \"#utility.yul\":32231:32240   */\n      dup4\n        /* \"#utility.yul\":32227:32245   */\n      add\n        /* \"#utility.yul\":32218:32224   */\n      dup5\n        /* \"#utility.yul\":32174:32246   */\n      tag_554\n      jump\t// in\n    tag_891:\n        /* \"#utility.yul\":31811:32253   */\n      swap5\n      swap4\n      pop\n      pop\n      pop\n      pop\n      jump\t// out\n        /* \"#utility.yul\":32259:32482   */\n    tag_623:\n        /* \"#utility.yul\":32399:32433   */\n      0x5472616e7366657248656c7065723a205452414e534645525f46524f4d5f4641\n        /* \"#utility.yul\":32395:32396   */\n      0x00\n        /* \"#utility.yul\":32387:32393   */\n      dup3\n        /* \"#utility.yul\":32383:32397   */\n      add\n        /* \"#utility.yul\":32376:32434   */\n      mstore\n        /* \"#utility.yul\":32468:32474   */\n      0x494c454400000000000000000000000000000000000000000000000000000000\n        /* \"#utility.yul\":32463:32465   */\n      0x20\n        /* \"#utility.yul\":32455:32461   */\n      dup3\n        /* \"#utility.yul\":32451:32466   */\n      add\n        /* \"#utility.yul\":32444:32475   */\n      mstore\n        /* \"#utility.yul\":32259:32482   */\n      pop\n      jump\t// out\n        /* \"#utility.yul\":32488:32854   */\n    tag_624:\n        /* \"#utility.yul\":32630:32633   */\n      0x00\n        /* \"#utility.yul\":32651:32718   */\n      tag_894\n        /* \"#utility.yul\":32715:32717   */\n      0x24\n        /* \"#utility.yul\":32710:32713   */\n      dup4\n        /* \"#utility.yul\":32651:32718   */\n      tag_582\n      jump\t// in\n    tag_894:\n        /* \"#utility.yul\":32644:32718   */\n      swap2\n      pop\n        /* \"#utility.yul\":32727:32820   */\n      tag_895\n        /* \"#utility.yul\":32816:32819   */\n      dup3\n        /* \"#utility.yul\":32727:32820   */\n      tag_623\n      jump\t// in\n    tag_895:\n        /* \"#utility.yul\":32845:32847   */\n      0x40\n        /* \"#utility.yul\":32840:32843   */\n      dup3\n        /* \"#utility.yul\":32836:32848   */\n      add\n        /* \"#utility.yul\":32829:32848   */\n      swap1\n      pop\n        /* \"#utility.yul\":32488:32854   */\n      swap2\n      swap1\n      pop\n      jump\t// out\n        /* \"#utility.yul\":32860:33279   */\n    tag_545:\n        /* \"#utility.yul\":33026:33030   */\n      0x00\n        /* \"#utility.yul\":33064:33066   */\n      0x20\n        /* \"#utility.yul\":33053:33062   */\n      dup3\n        /* \"#utility.yul\":33049:33067   */\n      add\n        /* \"#utility.yul\":33041:33067   */\n      swap1\n      pop\n        /* \"#utility.yul\":33113:33122   */\n      dup2\n        /* \"#utility.yul\":33107:33111   */\n      dup2\n        /* \"#utility.yul\":33103:33123   */\n      sub\n        /* \"#utility.yul\":33099:33100   */\n      0x00\n        /* \"#utility.yul\":33088:33097   */\n      dup4\n        /* \"#utility.yul\":33084:33101   */\n      add\n        /* \"#utility.yul\":33077:33124   */\n      mstore\n        /* \"#utility.yul\":33141:33272   */\n      tag_897\n        /* \"#utility.yul\":33267:33271   */\n      dup2\n        /* \"#utility.yul\":33141:33272   */\n      tag_624\n      jump\t// in\n    tag_897:\n        /* \"#utility.yul\":33133:33272   */\n      swap1\n      pop\n        /* \"#utility.yul\":32860:33279   */\n      swap2\n      swap1\n      pop\n      jump\t// out\n\n    auxdata: 0xa26469706673582212206ff036df895f75f2c5485474bed468b72bceb30120df093a552921d9d3df028664736f6c634300080d0033\n}\n",
				"bytecode": {
					"linkReferences": {},
					"object": "60a06040526000600460006101000a81548160ff0219169083151502179055503480156200002c57600080fd5b506200004d620000416200008760201b60201c565b6200008f60201b60201c565b3373ffffffffffffffffffffffffffffffffffffffff1660808173ffffffffffffffffffffffffffffffffffffffff168152505062000153565b600033905090565b60008060009054906101000a900473ffffffffffffffffffffffffffffffffffffffff169050816000806101000a81548173ffffffffffffffffffffffffffffffffffffffff021916908373ffffffffffffffffffffffffffffffffffffffff1602179055508173ffffffffffffffffffffffffffffffffffffffff168173ffffffffffffffffffffffffffffffffffffffff167f8be0079c531659141344cd1fd0a4f28419497f9722a3daafe3b4186f6b6457e060405160405180910390a35050565b608051614319620001bc600039600081816104c70152818161071201528181610d7501528181610f27015281816113d9015281816118b901528181611b5601528181611cae01528181611d77015281816126110152818161298a0152612ef901526143196000f3fe60806040526004361061011f5760003560e01c8063715018a6116100a0578063c45a015511610064578063c45a015514610358578063d7bdfc7514610383578063dab5a8df1461038d578063e43372e9146103ca578063f2fde38b146103f75761011f565b8063715018a6146102bc5780638da5cb5b146102d3578063a09702b1146102fe578063aa6ca80814610315578063abd050ea146103415761011f565b80634341f920116100e75780634341f920146101e4578063442fb8cd1461020057806351cff8d91461022b5780635f5780e5146102545780635f8d96de146102915761011f565b80630d182605146101245780632ffc68871461014d5780633072cf60146101765780633ccfd60b146101a15780633d370b4e146101b8575b600080fd5b34801561013057600080fd5b5061014b600480360381019061014691906131ec565b610420565b005b34801561015957600080fd5b50610174600480360381019061016f91906131ec565b61066b565b005b34801561018257600080fd5b5061018b6108b6565b6040516101989190613234565b60405180910390f35b3480156101ad57600080fd5b506101b66108c9565b005b3480156101c457600080fd5b506101cd610e20565b6040516101db92919061325e565b60405180910390f35b6101fe60048036038101906101f991906131ec565b610e80565b005b34801561020c57600080fd5b506102156110cb565b60405161022291906132fe565b60405180910390f35b34801561023757600080fd5b50610252600480360381019061024d9190613377565b611131565b005b34801561026057600080fd5b5061027b600480360381019061027691906133f5565b6113d5565b6040516102889190613234565b60405180910390f35b34801561029d57600080fd5b506102a6611708565b6040516102b391906134ab565b60405180910390f35b3480156102c857600080fd5b506102d1611761565b005b3480156102df57600080fd5b506102e86117e9565b6040516102f591906134d5565b60405180910390f35b34801561030a57600080fd5b50610313611812565b005b34801561032157600080fd5b5061032a611a0f565b6040516103389291906134f0565b60405180910390f35b34801561034d57600080fd5b50610356611aaf565b005b34801561036457600080fd5b5061036d611cac565b60405161037a91906134d5565b60405180910390f35b61038b611cd0565b005b34801561039957600080fd5b506103b460048036038101906103af91906131ec565b611ecd565b6040516103c191906134ab565b60405180910390f35b3480156103d657600080fd5b506103df611f2e565b6040516103ee93929190613695565b60405180910390f35b34801561040357600080fd5b5061041e60048036038101906104199190613377565b6121ca565b005b42600354101580156104355750600754600154105b610474576040517f08c379a000000000000000000000000000000000000000000000000000000000815260040161046b9061373e565b60405180910390fd5b600460009054906101000a900460ff166104c3576040517f08c379a00000000000000000000000000000000000000000000000000000000081526004016104ba906137aa565b60405180910390fd5b60007f000000000000000000000000000000000000000000000000000000000000000090508073ffffffffffffffffffffffffffffffffffffffff1663b187bd266040518163ffffffff1660e01b8152600401602060405180830381865afa158015610533573d6000803e3d6000fd5b505050506040513d601f19601f8201168201806040525081019061055791906137df565b15610597576040517f08c379a000000000000000000000000000000000000000000000000000000000815260040161058e9061387e565b60405180910390fd5b600860009054906101000a900460ff166105e6576040517f08c379a00000000000000000000000000000000000000000000000000000000081526004016105dd90613910565b60405180910390fd5b6000600860019054906101000a900460ff16600281111561060a57610609613287565b5b81600281111561061d5761061c613287565b5b1461065d576040517f08c379a0000000000000000000000000000000000000000000000000000000008152600401610654906139a2565b60405180910390fd5b610666836122c1565b505050565b42600354101580156106805750600754600154105b6106bf576040517f08c379a00000000000000000000000000000000000000000000000000000000081526004016106b69061373e565b60405180910390fd5b600460009054906101000a900460ff1661070e576040517f08c379a0000000000000000000000000000000000000000000000000000000008152600401610705906137aa565b60405180910390fd5b60007f000000000000000000000000000000000000000000000000000000000000000090508073ffffffffffffffffffffffffffffffffffffffff1663b187bd266040518163ffffffff1660e01b8152600401602060405180830381865afa15801561077e573d6000803e3d6000fd5b505050506040513d601f19601f820116820180604052508101906107a291906137df565b156107e2576040517f08c379a00000000000000000000000000000000000000000000000000000000081526004016107d99061387e565b60405180910390fd5b600860009054906101000a900460ff16610831576040517f08c379a000000000000000000000000000000000000000000000000000000000815260040161082890613910565b60405180910390fd5b6002600860019054906101000a900460ff16600281111561085557610854613287565b5b81600281111561086857610867613287565b5b146108a8576040517f08c379a000000000000000000000000000000000000000000000000000000000815260040161089f906139a2565b60405180910390fd5b6108b1836126a9565b505050565b600460009054906101000a900460ff1681565b4260035410806108dd575060075460015410155b61091c576040517f08c379a000000000000000000000000000000000000000000000000000000000815260040161091390613a0e565b60405180910390fd5b600460009054906101000a900460ff1661096b576040517f08c379a0000000000000000000000000000000000000000000000000000000008152600401610962906137aa565b60405180910390fd5b610973612a21565b73ffffffffffffffffffffffffffffffffffffffff166109916117e9565b73ffffffffffffffffffffffffffffffffffffffff16146109e7576040517f08c379a00000000000000000000000000000000000000000000000000000000081526004016109de90613a7a565b60405180910390fd5b6000600260009054906101000a900473ffffffffffffffffffffffffffffffffffffffff16905060008173ffffffffffffffffffffffffffffffffffffffff166370a08231306040518263ffffffff1660e01b8152600401610a4991906134d5565b602060405180830381865afa158015610a66573d6000803e3d6000fd5b505050506040513d601f19601f82011682018060405250810190610a8a9190613aaf565b90506000811115610b2d57600260009054906101000a900473ffffffffffffffffffffffffffffffffffffffff1673ffffffffffffffffffffffffffffffffffffffff16632e1a7d4d826040518263ffffffff1660e01b8152600401610af091906134ab565b600060405180830381600087803b158015610b0a57600080fd5b505af1158015610b1e573d6000803e3d6000fd5b50505050610b2c3382612a29565b5b6000600560009054906101000a900473ffffffffffffffffffffffffffffffffffffffff1673ffffffffffffffffffffffffffffffffffffffff166370a08231306040518263ffffffff1660e01b8152600401610b8a91906134d5565b602060405180830381865afa158015610ba7573d6000803e3d6000fd5b505050506040513d601f19601f82011682018060405250810190610bcb9190613aaf565b90506000811115610c0457610c03600560009054906101000a900473ffffffffffffffffffffffffffffffffffffffff163383612b29565b5b6000600460019054906101000a900473ffffffffffffffffffffffffffffffffffffffff1673ffffffffffffffffffffffffffffffffffffffff166370a08231306040518263ffffffff1660e01b8152600401610c6191906134d5565b602060405180830381865afa158015610c7e573d6000803e3d6000fd5b505050506040513d601f19601f82011682018060405250810190610ca29190613aaf565b90506000811115610cdb57610cda600460019054906101000a900473ffffffffffffffffffffffffffffffffffffffff163383612b29565b5b60008060006002811115610cf257610cf1613287565b5b600860019054906101000a900460ff166002811115610d1457610d13613287565b5b03610d2457849150839050610d71565b600280811115610d3757610d36613287565b5b600860019054906101000a900460ff166002811115610d5957610d58613287565b5b03610d6957829150839050610d70565b8291508490505b5b60007f000000000000000000000000000000000000000000000000000000000000000090508073ffffffffffffffffffffffffffffffffffffffff166333796a0e303386866040518563ffffffff1660e01b8152600401610dd59493929190613adc565b600060405180830381600087803b158015610def57600080fd5b505af1158015610e03573d6000803e3d6000fd5b505050503373ffffffffffffffffffffffffffffffffffffffff16ff5b600080600460009054906101000a900460ff16610e72576040517f08c379a0000000000000000000000000000000000000000000000000000000008152600401610e69906137aa565b60405180910390fd5b600654600754915091509091565b4260035410158015610e955750600754600154105b610ed4576040517f08c379a0000000000000000000000000000000000000000000000000000000008152600401610ecb9061373e565b60405180910390fd5b600460009054906101000a900460ff16610f23576040517f08c379a0000000000000000000000000000000000000000000000000000000008152600401610f1a906137aa565b60405180910390fd5b60007f000000000000000000000000000000000000000000000000000000000000000090508073ffffffffffffffffffffffffffffffffffffffff1663b187bd266040518163ffffffff1660e01b8152600401602060405180830381865afa158015610f93573d6000803e3d6000fd5b505050506040513d601f19601f82011682018060405250810190610fb791906137df565b15610ff7576040517f08c379a0000000000000000000000000000000000000000000000000000000008152600401610fee9061387e565b60405180910390fd5b600860009054906101000a900460ff16611046576040517f08c379a000000000000000000000000000000000000000000000000000000000815260040161103d90613910565b60405180910390fd5b6001600860019054906101000a900460ff16600281111561106a57611069613287565b5b81600281111561107d5761107c613287565b5b146110bd576040517f08c379a00000000000000000000000000000000000000000000000000000000081526004016110b4906139a2565b60405180910390fd5b6110c683612c5f565b505050565b6000600460009054906101000a900460ff1661111c576040517f08c379a0000000000000000000000000000000000000000000000000000000008152600401611113906137aa565b60405180910390fd5b600860019054906101000a900460ff16905090565b611139612a21565b73ffffffffffffffffffffffffffffffffffffffff166111576117e9565b73ffffffffffffffffffffffffffffffffffffffff16146111ad576040517f08c379a00000000000000000000000000000000000000000000000000000000081526004016111a490613a7a565b60405180910390fd5b600460009054906101000a900460ff166111fc576040517f08c379a00000000000000000000000000000000000000000000000000000000081526004016111f3906137aa565b60405180910390fd5b600560009054906101000a900473ffffffffffffffffffffffffffffffffffffffff1673ffffffffffffffffffffffffffffffffffffffff168173ffffffffffffffffffffffffffffffffffffffff160361128c576040517f08c379a000000000000000000000000000000000000000000000000000000000815260040161128390613b6d565b60405180910390fd5b600460019054906101000a900473ffffffffffffffffffffffffffffffffffffffff1673ffffffffffffffffffffffffffffffffffffffff168173ffffffffffffffffffffffffffffffffffffffff160361131c576040517f08c379a000000000000000000000000000000000000000000000000000000000815260040161131390613b6d565b60405180910390fd5b60008173ffffffffffffffffffffffffffffffffffffffff166370a08231306040518263ffffffff1660e01b815260040161135791906134d5565b602060405180830381865afa158015611374573d6000803e3d6000fd5b505050506040513d601f19601f820116820180604052508101906113989190613aaf565b905060008111156113d1576113d0600460019054906101000a900473ffffffffffffffffffffffffffffffffffffffff163383612b29565b5b5050565b60007f000000000000000000000000000000000000000000000000000000000000000073ffffffffffffffffffffffffffffffffffffffff163373ffffffffffffffffffffffffffffffffffffffff1614611465576040517f08c379a000000000000000000000000000000000000000000000000000000000815260040161145c90613b6d565b60405180910390fd5b600460009054906101000a900460ff16156114b5576040517f08c379a00000000000000000000000000000000000000000000000000000000081526004016114ac90613bff565b60405180910390fd5b4284106114f7576040517f08c379a00000000000000000000000000000000000000000000000000000000081526004016114ee90613c6b565b60405180910390fd5b858873ffffffffffffffffffffffffffffffffffffffff166370a08231306040518263ffffffff1660e01b815260040161153191906134d5565b602060405180830381865afa15801561154e573d6000803e3d6000fd5b505050506040513d601f19601f820116820180604052508101906115729190613aaf565b10156115b3576040517f08c379a00000000000000000000000000000000000000000000000000000000081526004016115aa90613cfd565b60405180910390fd5b8360038190555087600460016101000a81548173ffffffffffffffffffffffffffffffffffffffff021916908373ffffffffffffffffffffffffffffffffffffffff16021790555086600560006101000a81548173ffffffffffffffffffffffffffffffffffffffff021916908373ffffffffffffffffffffffffffffffffffffffff160217905550856006819055508460078190555088600860016101000a81548160ff0219169083600281111561166f5761166e613287565b5b021790555082600860006101000a81548160ff02191690831515021790555081600260006101000a81548173ffffffffffffffffffffffffffffffffffffffff021916908373ffffffffffffffffffffffffffffffffffffffff1602179055506001600460006101000a81548160ff021916908315150217905550600460009054906101000a900460ff16905098975050505050505050565b6000600460009054906101000a900460ff16611759576040517f08c379a0000000000000000000000000000000000000000000000000000000008152600401611750906137aa565b60405180910390fd5b600354905090565b611769612a21565b73ffffffffffffffffffffffffffffffffffffffff166117876117e9565b73ffffffffffffffffffffffffffffffffffffffff16146117dd576040517f08c379a00000000000000000000000000000000000000000000000000000000081526004016117d490613a7a565b60405180910390fd5b6117e76000612f90565b565b60008060009054906101000a900473ffffffffffffffffffffffffffffffffffffffff16905090565b42600354101580156118275750600754600154105b611866576040517f08c379a000000000000000000000000000000000000000000000000000000000815260040161185d9061373e565b60405180910390fd5b600460009054906101000a900460ff166118b5576040517f08c379a00000000000000000000000000000000000000000000000000000000081526004016118ac906137aa565b60405180910390fd5b60007f000000000000000000000000000000000000000000000000000000000000000090508073ffffffffffffffffffffffffffffffffffffffff1663b187bd266040518163ffffffff1660e01b8152600401602060405180830381865afa158015611925573d6000803e3d6000fd5b505050506040513d601f19601f8201168201806040525081019061194991906137df565b15611989576040517f08c379a00000000000000000000000000000000000000000000000000000000081526004016119809061387e565b60405180910390fd5b6000600860019054906101000a900460ff1660028111156119ad576119ac613287565b5b8160028111156119c0576119bf613287565b5b14611a00576040517f08c379a00000000000000000000000000000000000000000000000000000000081526004016119f7906139a2565b60405180910390fd5b611a0b6007546122c1565b5050565b600080600460009054906101000a900460ff16611a61576040517f08c379a0000000000000000000000000000000000000000000000000000000008152600401611a58906137aa565b60405180910390fd5b600460019054906101000a900473ffffffffffffffffffffffffffffffffffffffff16600560009054906101000a900473ffffffffffffffffffffffffffffffffffffffff16915091509091565b4260035410158015611ac45750600754600154105b611b03576040517f08c379a0000000000000000000000000000000000000000000000000000000008152600401611afa9061373e565b60405180910390fd5b600460009054906101000a900460ff16611b52576040517f08c379a0000000000000000000000000000000000000000000000000000000008152600401611b49906137aa565b60405180910390fd5b60007f000000000000000000000000000000000000000000000000000000000000000090508073ffffffffffffffffffffffffffffffffffffffff1663b187bd266040518163ffffffff1660e01b8152600401602060405180830381865afa158015611bc2573d6000803e3d6000fd5b505050506040513d601f19601f82011682018060405250810190611be691906137df565b15611c26576040517f08c379a0000000000000000000000000000000000000000000000000000000008152600401611c1d9061387e565b60405180910390fd5b6002600860019054906101000a900460ff166002811115611c4a57611c49613287565b5b816002811115611c5d57611c5c613287565b5b14611c9d576040517f08c379a0000000000000000000000000000000000000000000000000000000008152600401611c94906139a2565b60405180910390fd5b611ca86007546126a9565b5050565b7f000000000000000000000000000000000000000000000000000000000000000081565b4260035410158015611ce55750600754600154105b611d24576040517f08c379a0000000000000000000000000000000000000000000000000000000008152600401611d1b9061373e565b60405180910390fd5b600460009054906101000a900460ff16611d73576040517f08c379a0000000000000000000000000000000000000000000000000000000008152600401611d6a906137aa565b60405180910390fd5b60007f000000000000000000000000000000000000000000000000000000000000000090508073ffffffffffffffffffffffffffffffffffffffff1663b187bd266040518163ffffffff1660e01b8152600401602060405180830381865afa158015611de3573d6000803e3d6000fd5b505050506040513d601f19601f82011682018060405250810190611e0791906137df565b15611e47576040517f08c379a0000000000000000000000000000000000000000000000000000000008152600401611e3e9061387e565b60405180910390fd5b6001600860019054906101000a900460ff166002811115611e6b57611e6a613287565b5b816002811115611e7e57611e7d613287565b5b14611ebe576040517f08c379a0000000000000000000000000000000000000000000000000000000008152600401611eb5906139a2565b60405180910390fd5b611ec9600754612c5f565b5050565b6000600460009054906101000a900460ff16611f1e576040517f08c379a0000000000000000000000000000000000000000000000000000000008152600401611f15906137aa565b60405180910390fd5b611f2782613054565b9050919050565b6060806060600460009054906101000a900460ff16611f82576040517f08c379a0000000000000000000000000000000000000000000000000000000008152600401611f79906137aa565b60405180910390fd5b600060098054905067ffffffffffffffff811115611fa357611fa2613d1d565b5b604051908082528060200260200182016040528015611fd15781602001602082028036833780820191505090505b509050600060098054905067ffffffffffffffff811115611ff557611ff4613d1d565b5b6040519080825280602002602001820160405280156120235781602001602082028036833780820191505090505b509050600060098054905067ffffffffffffffff81111561204757612046613d1d565b5b6040519080825280602002602001820160405280156120755781602001602082028036833780820191505090505b50905060005b6009805490508110156121b8576009818154811061209c5761209b613d4c565b5b906000526020600020906003020160000160009054906101000a900473ffffffffffffffffffffffffffffffffffffffff168482815181106120e1576120e0613d4c565b5b602002602001019073ffffffffffffffffffffffffffffffffffffffff16908173ffffffffffffffffffffffffffffffffffffffff16815250506009818154811061212f5761212e613d4c565b5b90600052602060002090600302016001015483828151811061215457612153613d4c565b5b6020026020010181815250506009818154811061217457612173613d4c565b5b90600052602060002090600302016002015482828151811061219957612198613d4c565b5b60200260200101818152505080806121b090613daa565b91505061207b565b50828282955095509550505050909192565b6121d2612a21565b73ffffffffffffffffffffffffffffffffffffffff166121f06117e9565b73ffffffffffffffffffffffffffffffffffffffff1614612246576040517f08c379a000000000000000000000000000000000000000000000000000000000815260040161223d90613a7a565b60405180910390fd5b600073ffffffffffffffffffffffffffffffffffffffff168173ffffffffffffffffffffffffffffffffffffffff16036122b5576040517f08c379a00000000000000000000000000000000000000000000000000000000081526004016122ac90613e64565b60405180910390fd5b6122be81612f90565b50565b80600560009054906101000a900473ffffffffffffffffffffffffffffffffffffffff1673ffffffffffffffffffffffffffffffffffffffff166370a08231336040518263ffffffff1660e01b815260040161231d91906134d5565b602060405180830381865afa15801561233a573d6000803e3d6000fd5b505050506040513d601f19601f8201168201806040525081019061235e9190613aaf565b101561239f576040517f08c379a000000000000000000000000000000000000000000000000000000000815260040161239690613ef6565b60405180910390fd5b60006123aa82613054565b90506000600260009054906101000a900473ffffffffffffffffffffffffffffffffffffffff169050818173ffffffffffffffffffffffffffffffffffffffff166370a08231306040518263ffffffff1660e01b815260040161240d91906134d5565b602060405180830381865afa15801561242a573d6000803e3d6000fd5b505050506040513d601f19601f8201168201806040525081019061244e9190613aaf565b101561248f576040517f08c379a000000000000000000000000000000000000000000000000000000000815260040161248690613f88565b60405180910390fd5b600260009054906101000a900473ffffffffffffffffffffffffffffffffffffffff1673ffffffffffffffffffffffffffffffffffffffff16632e1a7d4d836040518263ffffffff1660e01b81526004016124ea91906134ab565b600060405180830381600087803b15801561250457600080fd5b505af1158015612518573d6000803e3d6000fd5b5050505061254a600560009054906101000a900473ffffffffffffffffffffffffffffffffffffffff16333086613078565b6125543383612a29565b600960405180606001604052803373ffffffffffffffffffffffffffffffffffffffff16815260200185815260200184815250908060018154018082558091505060019003906000526020600020906003020160009091909190915060008201518160000160006101000a81548173ffffffffffffffffffffffffffffffffffffffff021916908373ffffffffffffffffffffffffffffffffffffffff1602179055506020820151816001015560408201518160020155505060007f000000000000000000000000000000000000000000000000000000000000000090508073ffffffffffffffffffffffffffffffffffffffff1663f52701b7303387876040518563ffffffff1660e01b81526004016126719493929190613adc565b600060405180830381600087803b15801561268b57600080fd5b505af115801561269f573d6000803e3d6000fd5b5050505050505050565b80600560009054906101000a900473ffffffffffffffffffffffffffffffffffffffff1673ffffffffffffffffffffffffffffffffffffffff166370a08231336040518263ffffffff1660e01b815260040161270591906134d5565b602060405180830381865afa158015612722573d6000803e3d6000fd5b505050506040513d601f19601f820116820180604052508101906127469190613aaf565b1015612787576040517f08c379a000000000000000000000000000000000000000000000000000000000815260040161277e90613ef6565b60405180910390fd5b600061279282613054565b905080600460019054906101000a900473ffffffffffffffffffffffffffffffffffffffff1673ffffffffffffffffffffffffffffffffffffffff166370a08231306040518263ffffffff1660e01b81526004016127f091906134d5565b602060405180830381865afa15801561280d573d6000803e3d6000fd5b505050506040513d601f19601f820116820180604052508101906128319190613aaf565b1015612872576040517f08c379a000000000000000000000000000000000000000000000000000000000815260040161286990613f88565b60405180910390fd5b6128a0600560009054906101000a900473ffffffffffffffffffffffffffffffffffffffff16333085613078565b6128cd600460019054906101000a900473ffffffffffffffffffffffffffffffffffffffff163383612b29565b600960405180606001604052803373ffffffffffffffffffffffffffffffffffffffff16815260200184815260200183815250908060018154018082558091505060019003906000526020600020906003020160009091909190915060008201518160000160006101000a81548173ffffffffffffffffffffffffffffffffffffffff021916908373ffffffffffffffffffffffffffffffffffffffff1602179055506020820151816001015560408201518160020155505060007f000000000000000000000000000000000000000000000000000000000000000090508073ffffffffffffffffffffffffffffffffffffffff1663f52701b7303386866040518563ffffffff1660e01b81526004016129ea9493929190613adc565b600060405180830381600087803b158015612a0457600080fd5b505af1158015612a18573d6000803e3d6000fd5b50505050505050565b600033905090565b60008273ffffffffffffffffffffffffffffffffffffffff1682600067ffffffffffffffff811115612a5e57612a5d613d1d565b5b6040519080825280601f01601f191660200182016040528015612a905781602001600182028036833780820191505090505b50604051612a9e9190614022565b60006040518083038185875af1925050503d8060008114612adb576040519150601f19603f3d011682016040523d82523d6000602084013e612ae0565b606091505b5050905080612b24576040517f08c379a0000000000000000000000000000000000000000000000000000000008152600401612b1b906140ab565b60405180910390fd5b505050565b6000808473ffffffffffffffffffffffffffffffffffffffff1663a9059cbb8585604051602401612b5b9291906140cb565b6040516020818303038152906040529060e01b6020820180517bffffffffffffffffffffffffffffffffffffffffffffffffffffffff8381831617835250505050604051612ba99190614022565b6000604051808303816000865af19150503d8060008114612be6576040519150601f19603f3d011682016040523d82523d6000602084013e612beb565b606091505b5091509150818015612c195750600081511480612c18575080806020019051810190612c1791906137df565b5b5b612c58576040517f08c379a0000000000000000000000000000000000000000000000000000000008152600401612c4f90614140565b60405180910390fd5b5050505050565b348114612ca1576040517f08c379a0000000000000000000000000000000000000000000000000000000008152600401612c9890613910565b60405180910390fd5b6000612cac82613054565b905080600460019054906101000a900473ffffffffffffffffffffffffffffffffffffffff1673ffffffffffffffffffffffffffffffffffffffff166370a08231306040518263ffffffff1660e01b8152600401612d0a91906134d5565b602060405180830381865afa158015612d27573d6000803e3d6000fd5b505050506040513d601f19601f82011682018060405250810190612d4b9190613aaf565b1015612d8c576040517f08c379a0000000000000000000000000000000000000000000000000000000008152600401612d8390613f88565b60405180910390fd5b600260009054906101000a900473ffffffffffffffffffffffffffffffffffffffff1673ffffffffffffffffffffffffffffffffffffffff1663d0e30db0836040518263ffffffff1660e01b81526004016000604051808303818588803b158015612df657600080fd5b505af1158015612e0a573d6000803e3d6000fd5b5050505050612e3c600460019054906101000a900473ffffffffffffffffffffffffffffffffffffffff163383612b29565b600960405180606001604052803373ffffffffffffffffffffffffffffffffffffffff16815260200184815260200183815250908060018154018082558091505060019003906000526020600020906003020160009091909190915060008201518160000160006101000a81548173ffffffffffffffffffffffffffffffffffffffff021916908373ffffffffffffffffffffffffffffffffffffffff1602179055506020820151816001015560408201518160020155505060007f000000000000000000000000000000000000000000000000000000000000000090508073ffffffffffffffffffffffffffffffffffffffff1663f52701b7303386866040518563ffffffff1660e01b8152600401612f599493929190613adc565b600060405180830381600087803b158015612f7357600080fd5b505af1158015612f87573d6000803e3d6000fd5b50505050505050565b60008060009054906101000a900473ffffffffffffffffffffffffffffffffffffffff169050816000806101000a81548173ffffffffffffffffffffffffffffffffffffffff021916908373ffffffffffffffffffffffffffffffffffffffff1602179055508173ffffffffffffffffffffffffffffffffffffffff168173ffffffffffffffffffffffffffffffffffffffff167f8be0079c531659141344cd1fd0a4f28419497f9722a3daafe3b4186f6b6457e060405160405180910390a35050565b6000600754600654836130679190614160565b61307191906141e9565b9050919050565b6000808573ffffffffffffffffffffffffffffffffffffffff166323b872dd8686866040516024016130ac9392919061421a565b6040516020818303038152906040529060e01b6020820180517bffffffffffffffffffffffffffffffffffffffffffffffffffffffff83818316178352505050506040516130fa9190614022565b6000604051808303816000865af19150503d8060008114613137576040519150601f19603f3d011682016040523d82523d6000602084013e61313c565b606091505b509150915081801561316a575060008151148061316957508080602001905181019061316891906137df565b5b5b6131a9576040517f08c379a00000000000000000000000000000000000000000000000000000000081526004016131a0906142c3565b60405180910390fd5b505050505050565b600080fd5b6000819050919050565b6131c9816131b6565b81146131d457600080fd5b50565b6000813590506131e6816131c0565b92915050565b600060208284031215613202576132016131b1565b5b6000613210848285016131d7565b91505092915050565b60008115159050919050565b61322e81613219565b82525050565b60006020820190506132496000830184613225565b92915050565b613258816131b6565b82525050565b6000604082019050613273600083018561324f565b613280602083018461324f565b9392505050565b7f4e487b7100000000000000000000000000000000000000000000000000000000600052602160045260246000fd5b600381106132c7576132c6613287565b5b50565b60008190506132d8826132b6565b919050565b60006132e8826132ca565b9050919050565b6132f8816132dd565b82525050565b600060208201905061331360008301846132ef565b92915050565b600073ffffffffffffffffffffffffffffffffffffffff82169050919050565b600061334482613319565b9050919050565b61335481613339565b811461335f57600080fd5b50565b6000813590506133718161334b565b92915050565b60006020828403121561338d5761338c6131b1565b5b600061339b84828501613362565b91505092915050565b600381106133b157600080fd5b50565b6000813590506133c3816133a4565b92915050565b6133d281613219565b81146133dd57600080fd5b50565b6000813590506133ef816133c9565b92915050565b600080600080600080600080610100898b031215613416576134156131b1565b5b60006134248b828c016133b4565b98505060206134358b828c01613362565b97505060406134468b828c01613362565b96505060606134578b828c016131d7565b95505060806134688b828c016131d7565b94505060a06134798b828c016131d7565b93505060c061348a8b828c016133e0565b92505060e061349b8b828c01613362565b9150509295985092959890939650565b60006020820190506134c0600083018461324f565b92915050565b6134cf81613339565b82525050565b60006020820190506134ea60008301846134c6565b92915050565b600060408201905061350560008301856134c6565b61351260208301846134c6565b9392505050565b600081519050919050565b600082825260208201905092915050565b6000819050602082019050919050565b61354e81613339565b82525050565b60006135608383613545565b60208301905092915050565b6000602082019050919050565b600061358482613519565b61358e8185613524565b935061359983613535565b8060005b838110156135ca5781516135b18882613554565b97506135bc8361356c565b92505060018101905061359d565b5085935050505092915050565b600081519050919050565b600082825260208201905092915050565b6000819050602082019050919050565b61360c816131b6565b82525050565b600061361e8383613603565b60208301905092915050565b6000602082019050919050565b6000613642826135d7565b61364c81856135e2565b9350613657836135f3565b8060005b8381101561368857815161366f8882613612565b975061367a8361362a565b92505060018101905061365b565b5085935050505092915050565b600060608201905081810360008301526136af8186613579565b905081810360208301526136c38185613637565b905081810360408301526136d78184613637565b9050949350505050565b600082825260208201905092915050565b7f537943726f774261727465723a20494e41435449564500000000000000000000600082015250565b60006137286016836136e1565b9150613733826136f2565b602082019050919050565b600060208201905081810360008301526137578161371b565b9050919050565b7f537943726f774261727465723a204e4f545f494e495449414c495a4544000000600082015250565b6000613794601d836136e1565b915061379f8261375e565b602082019050919050565b600060208201905081810360008301526137c381613787565b9050919050565b6000815190506137d9816133c9565b92915050565b6000602082840312156137f5576137f46131b1565b5b6000613803848285016137ca565b91505092915050565b7f537943726f774261727465723a204261736520436f6e7472616374205061757360008201527f6564000000000000000000000000000000000000000000000000000000000000602082015250565b60006138686022836136e1565b91506138738261380c565b604082019050919050565b600060208201905081810360008301526138978161385b565b9050919050565b7f537943726f774261727465723a204d554c54495f54524144455f4e4f545f454e60008201527f41424c4544000000000000000000000000000000000000000000000000000000602082015250565b60006138fa6025836136e1565b91506139058261389e565b604082019050919050565b60006020820190508181036000830152613929816138ed565b9050919050565b7f537943726f774261727465723a20494e56414c49445f4241525445525f54595060008201527f4500000000000000000000000000000000000000000000000000000000000000602082015250565b600061398c6021836136e1565b915061399782613930565b604082019050919050565b600060208201905081810360008301526139bb8161397f565b9050919050565b7f537943726f774261727465723a20414354495645000000000000000000000000600082015250565b60006139f86014836136e1565b9150613a03826139c2565b602082019050919050565b60006020820190508181036000830152613a27816139eb565b9050919050565b7f4f776e61626c653a2063616c6c6572206973206e6f7420746865206f776e6572600082015250565b6000613a646020836136e1565b9150613a6f82613a2e565b602082019050919050565b60006020820190508181036000830152613a9381613a57565b9050919050565b600081519050613aa9816131c0565b92915050565b600060208284031215613ac557613ac46131b1565b5b6000613ad384828501613a9a565b91505092915050565b6000608082019050613af160008301876134c6565b613afe60208301866134c6565b613b0b604083018561324f565b613b18606083018461324f565b95945050505050565b7f537943726f774261727465723a20464f5242494444454e000000000000000000600082015250565b6000613b576017836136e1565b9150613b6282613b21565b602082019050919050565b60006020820190508181036000830152613b8681613b4a565b9050919050565b7f537943726f774261727465723a20414c52454144595f494e495449414c495a4560008201527f4400000000000000000000000000000000000000000000000000000000000000602082015250565b6000613be96021836136e1565b9150613bf482613b8d565b604082019050919050565b60006020820190508181036000830152613c1881613bdc565b9050919050565b7f537943726f774261727465723a20504153545f444541444c494e450000000000600082015250565b6000613c55601b836136e1565b9150613c6082613c1f565b602082019050919050565b60006020820190508181036000830152613c8481613c48565b9050919050565b7f537943726f774261727465723a20494e53554646494349454e545f4445504f5360008201527f4954000000000000000000000000000000000000000000000000000000000000602082015250565b6000613ce76022836136e1565b9150613cf282613c8b565b604082019050919050565b60006020820190508181036000830152613d1681613cda565b9050919050565b7f4e487b7100000000000000000000000000000000000000000000000000000000600052604160045260246000fd5b7f4e487b7100000000000000000000000000000000000000000000000000000000600052603260045260246000fd5b7f4e487b7100000000000000000000000000000000000000000000000000000000600052601160045260246000fd5b6000613db5826131b6565b91507fffffffffffffffffffffffffffffffffffffffffffffffffffffffffffffffff8203613de757613de6613d7b565b5b600182019050919050565b7f4f776e61626c653a206e6577206f776e657220697320746865207a65726f206160008201527f6464726573730000000000000000000000000000000000000000000000000000602082015250565b6000613e4e6026836136e1565b9150613e5982613df2565b604082019050919050565b60006020820190508181036000830152613e7d81613e41565b9050919050565b7f537943726f774261727465723a20494e53554646494349454e545f42414c414e60008201527f4345000000000000000000000000000000000000000000000000000000000000602082015250565b6000613ee06022836136e1565b9150613eeb82613e84565b604082019050919050565b60006020820190508181036000830152613f0f81613ed3565b9050919050565b7f537943726f774261727465723a20494e53554646494349454e545f434f4e545260008201527f4143545f42414c414e4345000000000000000000000000000000000000000000602082015250565b6000613f72602b836136e1565b9150613f7d82613f16565b604082019050919050565b60006020820190508181036000830152613fa181613f65565b9050919050565b600081519050919050565b600081905092915050565b60005b83811015613fdc578082015181840152602081019050613fc1565b83811115613feb576000848401525b50505050565b6000613ffc82613fa8565b6140068185613fb3565b9350614016818560208601613fbe565b80840191505092915050565b600061402e8284613ff1565b915081905092915050565b7f5472616e7366657248656c7065723a204554485f5452414e534645525f46414960008201527f4c45440000000000000000000000000000000000000000000000000000000000602082015250565b60006140956023836136e1565b91506140a082614039565b604082019050919050565b600060208201905081810360008301526140c481614088565b9050919050565b60006040820190506140e060008301856134c6565b6140ed602083018461324f565b9392505050565b7f5472616e7366657248656c7065723a205452414e534645525f4641494c454400600082015250565b600061412a601f836136e1565b9150614135826140f4565b602082019050919050565b600060208201905081810360008301526141598161411d565b9050919050565b600061416b826131b6565b9150614176836131b6565b9250817fffffffffffffffffffffffffffffffffffffffffffffffffffffffffffffffff04831182151516156141af576141ae613d7b565b5b828202905092915050565b7f4e487b7100000000000000000000000000000000000000000000000000000000600052601260045260246000fd5b60006141f4826131b6565b91506141ff836131b6565b92508261420f5761420e6141ba565b5b828204905092915050565b600060608201905061422f60008301866134c6565b61423c60208301856134c6565b614249604083018461324f565b949350505050565b7f5472616e7366657248656c7065723a205452414e534645525f46524f4d5f464160008201527f494c454400000000000000000000000000000000000000000000000000000000602082015250565b60006142ad6024836136e1565b91506142b882614251565b604082019050919050565b600060208201905081810360008301526142dc816142a0565b905091905056fea26469706673582212206ff036df895f75f2c5485474bed468b72bceb30120df093a552921d9d3df028664736f6c634300080d0033",
					"opcodes": "PUSH1 0xA0 PUSH1 0x40 MSTORE PUSH1 0x0 PUSH1 0x4 PUSH1 0x0 PUSH2 0x100 EXP DUP2 SLOAD DUP2 PUSH1 0xFF MUL NOT AND SWAP1 DUP4 ISZERO ISZERO MUL OR SWAP1 SSTORE POP CALLVALUE DUP1 ISZERO PUSH3 0x2C JUMPI PUSH1 0x0 DUP1 REVERT JUMPDEST POP PUSH3 0x4D PUSH3 0x41 PUSH3 0x87 PUSH1 0x20 SHL PUSH1 0x20 SHR JUMP JUMPDEST PUSH3 0x8F PUSH1 0x20 SHL PUSH1 0x20 SHR JUMP JUMPDEST CALLER PUSH20 0xFFFFFFFFFFFFFFFFFFFFFFFFFFFFFFFFFFFFFFFF AND PUSH1 0x80 DUP2 PUSH20 0xFFFFFFFFFFFFFFFFFFFFFFFFFFFFFFFFFFFFFFFF AND DUP2 MSTORE POP POP PUSH3 0x153 JUMP JUMPDEST PUSH1 0x0 CALLER SWAP1 POP SWAP1 JUMP JUMPDEST PUSH1 0x0 DUP1 PUSH1 0x0 SWAP1 SLOAD SWAP1 PUSH2 0x100 EXP SWAP1 DIV PUSH20 0xFFFFFFFFFFFFFFFFFFFFFFFFFFFFFFFFFFFFFFFF AND SWAP1 POP DUP2 PUSH1 0x0 DUP1 PUSH2 0x100 EXP DUP2 SLOAD DUP2 PUSH20 0xFFFFFFFFFFFFFFFFFFFFFFFFFFFFFFFFFFFFFFFF MUL NOT AND SWAP1 DUP4 PUSH20 0xFFFFFFFFFFFFFFFFFFFFFFFFFFFFFFFFFFFFFFFF AND MUL OR SWAP1 SSTORE POP DUP2 PUSH20 0xFFFFFFFFFFFFFFFFFFFFFFFFFFFFFFFFFFFFFFFF AND DUP2 PUSH20 0xFFFFFFFFFFFFFFFFFFFFFFFFFFFFFFFFFFFFFFFF AND PUSH32 0x8BE0079C531659141344CD1FD0A4F28419497F9722A3DAAFE3B4186F6B6457E0 PUSH1 0x40 MLOAD PUSH1 0x40 MLOAD DUP1 SWAP2 SUB SWAP1 LOG3 POP POP JUMP JUMPDEST PUSH1 0x80 MLOAD PUSH2 0x4319 PUSH3 0x1BC PUSH1 0x0 CODECOPY PUSH1 0x0 DUP2 DUP2 PUSH2 0x4C7 ADD MSTORE DUP2 DUP2 PUSH2 0x712 ADD MSTORE DUP2 DUP2 PUSH2 0xD75 ADD MSTORE DUP2 DUP2 PUSH2 0xF27 ADD MSTORE DUP2 DUP2 PUSH2 0x13D9 ADD MSTORE DUP2 DUP2 PUSH2 0x18B9 ADD MSTORE DUP2 DUP2 PUSH2 0x1B56 ADD MSTORE DUP2 DUP2 PUSH2 0x1CAE ADD MSTORE DUP2 DUP2 PUSH2 0x1D77 ADD MSTORE DUP2 DUP2 PUSH2 0x2611 ADD MSTORE DUP2 DUP2 PUSH2 0x298A ADD MSTORE PUSH2 0x2EF9 ADD MSTORE PUSH2 0x4319 PUSH1 0x0 RETURN INVALID PUSH1 0x80 PUSH1 0x40 MSTORE PUSH1 0x4 CALLDATASIZE LT PUSH2 0x11F JUMPI PUSH1 0x0 CALLDATALOAD PUSH1 0xE0 SHR DUP1 PUSH4 0x715018A6 GT PUSH2 0xA0 JUMPI DUP1 PUSH4 0xC45A0155 GT PUSH2 0x64 JUMPI DUP1 PUSH4 0xC45A0155 EQ PUSH2 0x358 JUMPI DUP1 PUSH4 0xD7BDFC75 EQ PUSH2 0x383 JUMPI DUP1 PUSH4 0xDAB5A8DF EQ PUSH2 0x38D JUMPI DUP1 PUSH4 0xE43372E9 EQ PUSH2 0x3CA JUMPI DUP1 PUSH4 0xF2FDE38B EQ PUSH2 0x3F7 JUMPI PUSH2 0x11F JUMP JUMPDEST DUP1 PUSH4 0x715018A6 EQ PUSH2 0x2BC JUMPI DUP1 PUSH4 0x8DA5CB5B EQ PUSH2 0x2D3 JUMPI DUP1 PUSH4 0xA09702B1 EQ PUSH2 0x2FE JUMPI DUP1 PUSH4 0xAA6CA808 EQ PUSH2 0x315 JUMPI DUP1 PUSH4 0xABD050EA EQ PUSH2 0x341 JUMPI PUSH2 0x11F JUMP JUMPDEST DUP1 PUSH4 0x4341F920 GT PUSH2 0xE7 JUMPI DUP1 PUSH4 0x4341F920 EQ PUSH2 0x1E4 JUMPI DUP1 PUSH4 0x442FB8CD EQ PUSH2 0x200 JUMPI DUP1 PUSH4 0x51CFF8D9 EQ PUSH2 0x22B JUMPI DUP1 PUSH4 0x5F5780E5 EQ PUSH2 0x254 JUMPI DUP1 PUSH4 0x5F8D96DE EQ PUSH2 0x291 JUMPI PUSH2 0x11F JUMP JUMPDEST DUP1 PUSH4 0xD182605 EQ PUSH2 0x124 JUMPI DUP1 PUSH4 0x2FFC6887 EQ PUSH2 0x14D JUMPI DUP1 PUSH4 0x3072CF60 EQ PUSH2 0x176 JUMPI DUP1 PUSH4 0x3CCFD60B EQ PUSH2 0x1A1 JUMPI DUP1 PUSH4 0x3D370B4E EQ PUSH2 0x1B8 JUMPI JUMPDEST PUSH1 0x0 DUP1 REVERT JUMPDEST CALLVALUE DUP1 ISZERO PUSH2 0x130 JUMPI PUSH1 0x0 DUP1 REVERT JUMPDEST POP PUSH2 0x14B PUSH1 0x4 DUP1 CALLDATASIZE SUB DUP2 ADD SWAP1 PUSH2 0x146 SWAP2 SWAP1 PUSH2 0x31EC JUMP JUMPDEST PUSH2 0x420 JUMP JUMPDEST STOP JUMPDEST CALLVALUE DUP1 ISZERO PUSH2 0x159 JUMPI PUSH1 0x0 DUP1 REVERT JUMPDEST POP PUSH2 0x174 PUSH1 0x4 DUP1 CALLDATASIZE SUB DUP2 ADD SWAP1 PUSH2 0x16F SWAP2 SWAP1 PUSH2 0x31EC JUMP JUMPDEST PUSH2 0x66B JUMP JUMPDEST STOP JUMPDEST CALLVALUE DUP1 ISZERO PUSH2 0x182 JUMPI PUSH1 0x0 DUP1 REVERT JUMPDEST POP PUSH2 0x18B PUSH2 0x8B6 JUMP JUMPDEST PUSH1 0x40 MLOAD PUSH2 0x198 SWAP2 SWAP1 PUSH2 0x3234 JUMP JUMPDEST PUSH1 0x40 MLOAD DUP1 SWAP2 SUB SWAP1 RETURN JUMPDEST CALLVALUE DUP1 ISZERO PUSH2 0x1AD JUMPI PUSH1 0x0 DUP1 REVERT JUMPDEST POP PUSH2 0x1B6 PUSH2 0x8C9 JUMP JUMPDEST STOP JUMPDEST CALLVALUE DUP1 ISZERO PUSH2 0x1C4 JUMPI PUSH1 0x0 DUP1 REVERT JUMPDEST POP PUSH2 0x1CD PUSH2 0xE20 JUMP JUMPDEST PUSH1 0x40 MLOAD PUSH2 0x1DB SWAP3 SWAP2 SWAP1 PUSH2 0x325E JUMP JUMPDEST PUSH1 0x40 MLOAD DUP1 SWAP2 SUB SWAP1 RETURN JUMPDEST PUSH2 0x1FE PUSH1 0x4 DUP1 CALLDATASIZE SUB DUP2 ADD SWAP1 PUSH2 0x1F9 SWAP2 SWAP1 PUSH2 0x31EC JUMP JUMPDEST PUSH2 0xE80 JUMP JUMPDEST STOP JUMPDEST CALLVALUE DUP1 ISZERO PUSH2 0x20C JUMPI PUSH1 0x0 DUP1 REVERT JUMPDEST POP PUSH2 0x215 PUSH2 0x10CB JUMP JUMPDEST PUSH1 0x40 MLOAD PUSH2 0x222 SWAP2 SWAP1 PUSH2 0x32FE JUMP JUMPDEST PUSH1 0x40 MLOAD DUP1 SWAP2 SUB SWAP1 RETURN JUMPDEST CALLVALUE DUP1 ISZERO PUSH2 0x237 JUMPI PUSH1 0x0 DUP1 REVERT JUMPDEST POP PUSH2 0x252 PUSH1 0x4 DUP1 CALLDATASIZE SUB DUP2 ADD SWAP1 PUSH2 0x24D SWAP2 SWAP1 PUSH2 0x3377 JUMP JUMPDEST PUSH2 0x1131 JUMP JUMPDEST STOP JUMPDEST CALLVALUE DUP1 ISZERO PUSH2 0x260 JUMPI PUSH1 0x0 DUP1 REVERT JUMPDEST POP PUSH2 0x27B PUSH1 0x4 DUP1 CALLDATASIZE SUB DUP2 ADD SWAP1 PUSH2 0x276 SWAP2 SWAP1 PUSH2 0x33F5 JUMP JUMPDEST PUSH2 0x13D5 JUMP JUMPDEST PUSH1 0x40 MLOAD PUSH2 0x288 SWAP2 SWAP1 PUSH2 0x3234 JUMP JUMPDEST PUSH1 0x40 MLOAD DUP1 SWAP2 SUB SWAP1 RETURN JUMPDEST CALLVALUE DUP1 ISZERO PUSH2 0x29D JUMPI PUSH1 0x0 DUP1 REVERT JUMPDEST POP PUSH2 0x2A6 PUSH2 0x1708 JUMP JUMPDEST PUSH1 0x40 MLOAD PUSH2 0x2B3 SWAP2 SWAP1 PUSH2 0x34AB JUMP JUMPDEST PUSH1 0x40 MLOAD DUP1 SWAP2 SUB SWAP1 RETURN JUMPDEST CALLVALUE DUP1 ISZERO PUSH2 0x2C8 JUMPI PUSH1 0x0 DUP1 REVERT JUMPDEST POP PUSH2 0x2D1 PUSH2 0x1761 JUMP JUMPDEST STOP JUMPDEST CALLVALUE DUP1 ISZERO PUSH2 0x2DF JUMPI PUSH1 0x0 DUP1 REVERT JUMPDEST POP PUSH2 0x2E8 PUSH2 0x17E9 JUMP JUMPDEST PUSH1 0x40 MLOAD PUSH2 0x2F5 SWAP2 SWAP1 PUSH2 0x34D5 JUMP JUMPDEST PUSH1 0x40 MLOAD DUP1 SWAP2 SUB SWAP1 RETURN JUMPDEST CALLVALUE DUP1 ISZERO PUSH2 0x30A JUMPI PUSH1 0x0 DUP1 REVERT JUMPDEST POP PUSH2 0x313 PUSH2 0x1812 JUMP JUMPDEST STOP JUMPDEST CALLVALUE DUP1 ISZERO PUSH2 0x321 JUMPI PUSH1 0x0 DUP1 REVERT JUMPDEST POP PUSH2 0x32A PUSH2 0x1A0F JUMP JUMPDEST PUSH1 0x40 MLOAD PUSH2 0x338 SWAP3 SWAP2 SWAP1 PUSH2 0x34F0 JUMP JUMPDEST PUSH1 0x40 MLOAD DUP1 SWAP2 SUB SWAP1 RETURN JUMPDEST CALLVALUE DUP1 ISZERO PUSH2 0x34D JUMPI PUSH1 0x0 DUP1 REVERT JUMPDEST POP PUSH2 0x356 PUSH2 0x1AAF JUMP JUMPDEST STOP JUMPDEST CALLVALUE DUP1 ISZERO PUSH2 0x364 JUMPI PUSH1 0x0 DUP1 REVERT JUMPDEST POP PUSH2 0x36D PUSH2 0x1CAC JUMP JUMPDEST PUSH1 0x40 MLOAD PUSH2 0x37A SWAP2 SWAP1 PUSH2 0x34D5 JUMP JUMPDEST PUSH1 0x40 MLOAD DUP1 SWAP2 SUB SWAP1 RETURN JUMPDEST PUSH2 0x38B PUSH2 0x1CD0 JUMP JUMPDEST STOP JUMPDEST CALLVALUE DUP1 ISZERO PUSH2 0x399 JUMPI PUSH1 0x0 DUP1 REVERT JUMPDEST POP PUSH2 0x3B4 PUSH1 0x4 DUP1 CALLDATASIZE SUB DUP2 ADD SWAP1 PUSH2 0x3AF SWAP2 SWAP1 PUSH2 0x31EC JUMP JUMPDEST PUSH2 0x1ECD JUMP JUMPDEST PUSH1 0x40 MLOAD PUSH2 0x3C1 SWAP2 SWAP1 PUSH2 0x34AB JUMP JUMPDEST PUSH1 0x40 MLOAD DUP1 SWAP2 SUB SWAP1 RETURN JUMPDEST CALLVALUE DUP1 ISZERO PUSH2 0x3D6 JUMPI PUSH1 0x0 DUP1 REVERT JUMPDEST POP PUSH2 0x3DF PUSH2 0x1F2E JUMP JUMPDEST PUSH1 0x40 MLOAD PUSH2 0x3EE SWAP4 SWAP3 SWAP2 SWAP1 PUSH2 0x3695 JUMP JUMPDEST PUSH1 0x40 MLOAD DUP1 SWAP2 SUB SWAP1 RETURN JUMPDEST CALLVALUE DUP1 ISZERO PUSH2 0x403 JUMPI PUSH1 0x0 DUP1 REVERT JUMPDEST POP PUSH2 0x41E PUSH1 0x4 DUP1 CALLDATASIZE SUB DUP2 ADD SWAP1 PUSH2 0x419 SWAP2 SWAP1 PUSH2 0x3377 JUMP JUMPDEST PUSH2 0x21CA JUMP JUMPDEST STOP JUMPDEST TIMESTAMP PUSH1 0x3 SLOAD LT ISZERO DUP1 ISZERO PUSH2 0x435 JUMPI POP PUSH1 0x7 SLOAD PUSH1 0x1 SLOAD LT JUMPDEST PUSH2 0x474 JUMPI PUSH1 0x40 MLOAD PUSH32 0x8C379A000000000000000000000000000000000000000000000000000000000 DUP2 MSTORE PUSH1 0x4 ADD PUSH2 0x46B SWAP1 PUSH2 0x373E JUMP JUMPDEST PUSH1 0x40 MLOAD DUP1 SWAP2 SUB SWAP1 REVERT JUMPDEST PUSH1 0x4 PUSH1 0x0 SWAP1 SLOAD SWAP1 PUSH2 0x100 EXP SWAP1 DIV PUSH1 0xFF AND PUSH2 0x4C3 JUMPI PUSH1 0x40 MLOAD PUSH32 0x8C379A000000000000000000000000000000000000000000000000000000000 DUP2 MSTORE PUSH1 0x4 ADD PUSH2 0x4BA SWAP1 PUSH2 0x37AA JUMP JUMPDEST PUSH1 0x40 MLOAD DUP1 SWAP2 SUB SWAP1 REVERT JUMPDEST PUSH1 0x0 PUSH32 0x0 SWAP1 POP DUP1 PUSH20 0xFFFFFFFFFFFFFFFFFFFFFFFFFFFFFFFFFFFFFFFF AND PUSH4 0xB187BD26 PUSH1 0x40 MLOAD DUP2 PUSH4 0xFFFFFFFF AND PUSH1 0xE0 SHL DUP2 MSTORE PUSH1 0x4 ADD PUSH1 0x20 PUSH1 0x40 MLOAD DUP1 DUP4 SUB DUP2 DUP7 GAS STATICCALL ISZERO DUP1 ISZERO PUSH2 0x533 JUMPI RETURNDATASIZE PUSH1 0x0 DUP1 RETURNDATACOPY RETURNDATASIZE PUSH1 0x0 REVERT JUMPDEST POP POP POP POP PUSH1 0x40 MLOAD RETURNDATASIZE PUSH1 0x1F NOT PUSH1 0x1F DUP3 ADD AND DUP3 ADD DUP1 PUSH1 0x40 MSTORE POP DUP2 ADD SWAP1 PUSH2 0x557 SWAP2 SWAP1 PUSH2 0x37DF JUMP JUMPDEST ISZERO PUSH2 0x597 JUMPI PUSH1 0x40 MLOAD PUSH32 0x8C379A000000000000000000000000000000000000000000000000000000000 DUP2 MSTORE PUSH1 0x4 ADD PUSH2 0x58E SWAP1 PUSH2 0x387E JUMP JUMPDEST PUSH1 0x40 MLOAD DUP1 SWAP2 SUB SWAP1 REVERT JUMPDEST PUSH1 0x8 PUSH1 0x0 SWAP1 SLOAD SWAP1 PUSH2 0x100 EXP SWAP1 DIV PUSH1 0xFF AND PUSH2 0x5E6 JUMPI PUSH1 0x40 MLOAD PUSH32 0x8C379A000000000000000000000000000000000000000000000000000000000 DUP2 MSTORE PUSH1 0x4 ADD PUSH2 0x5DD SWAP1 PUSH2 0x3910 JUMP JUMPDEST PUSH1 0x40 MLOAD DUP1 SWAP2 SUB SWAP1 REVERT JUMPDEST PUSH1 0x0 PUSH1 0x8 PUSH1 0x1 SWAP1 SLOAD SWAP1 PUSH2 0x100 EXP SWAP1 DIV PUSH1 0xFF AND PUSH1 0x2 DUP2 GT ISZERO PUSH2 0x60A JUMPI PUSH2 0x609 PUSH2 0x3287 JUMP JUMPDEST JUMPDEST DUP2 PUSH1 0x2 DUP2 GT ISZERO PUSH2 0x61D JUMPI PUSH2 0x61C PUSH2 0x3287 JUMP JUMPDEST JUMPDEST EQ PUSH2 0x65D JUMPI PUSH1 0x40 MLOAD PUSH32 0x8C379A000000000000000000000000000000000000000000000000000000000 DUP2 MSTORE PUSH1 0x4 ADD PUSH2 0x654 SWAP1 PUSH2 0x39A2 JUMP JUMPDEST PUSH1 0x40 MLOAD DUP1 SWAP2 SUB SWAP1 REVERT JUMPDEST PUSH2 0x666 DUP4 PUSH2 0x22C1 JUMP JUMPDEST POP POP POP JUMP JUMPDEST TIMESTAMP PUSH1 0x3 SLOAD LT ISZERO DUP1 ISZERO PUSH2 0x680 JUMPI POP PUSH1 0x7 SLOAD PUSH1 0x1 SLOAD LT JUMPDEST PUSH2 0x6BF JUMPI PUSH1 0x40 MLOAD PUSH32 0x8C379A000000000000000000000000000000000000000000000000000000000 DUP2 MSTORE PUSH1 0x4 ADD PUSH2 0x6B6 SWAP1 PUSH2 0x373E JUMP JUMPDEST PUSH1 0x40 MLOAD DUP1 SWAP2 SUB SWAP1 REVERT JUMPDEST PUSH1 0x4 PUSH1 0x0 SWAP1 SLOAD SWAP1 PUSH2 0x100 EXP SWAP1 DIV PUSH1 0xFF AND PUSH2 0x70E JUMPI PUSH1 0x40 MLOAD PUSH32 0x8C379A000000000000000000000000000000000000000000000000000000000 DUP2 MSTORE PUSH1 0x4 ADD PUSH2 0x705 SWAP1 PUSH2 0x37AA JUMP JUMPDEST PUSH1 0x40 MLOAD DUP1 SWAP2 SUB SWAP1 REVERT JUMPDEST PUSH1 0x0 PUSH32 0x0 SWAP1 POP DUP1 PUSH20 0xFFFFFFFFFFFFFFFFFFFFFFFFFFFFFFFFFFFFFFFF AND PUSH4 0xB187BD26 PUSH1 0x40 MLOAD DUP2 PUSH4 0xFFFFFFFF AND PUSH1 0xE0 SHL DUP2 MSTORE PUSH1 0x4 ADD PUSH1 0x20 PUSH1 0x40 MLOAD DUP1 DUP4 SUB DUP2 DUP7 GAS STATICCALL ISZERO DUP1 ISZERO PUSH2 0x77E JUMPI RETURNDATASIZE PUSH1 0x0 DUP1 RETURNDATACOPY RETURNDATASIZE PUSH1 0x0 REVERT JUMPDEST POP POP POP POP PUSH1 0x40 MLOAD RETURNDATASIZE PUSH1 0x1F NOT PUSH1 0x1F DUP3 ADD AND DUP3 ADD DUP1 PUSH1 0x40 MSTORE POP DUP2 ADD SWAP1 PUSH2 0x7A2 SWAP2 SWAP1 PUSH2 0x37DF JUMP JUMPDEST ISZERO PUSH2 0x7E2 JUMPI PUSH1 0x40 MLOAD PUSH32 0x8C379A000000000000000000000000000000000000000000000000000000000 DUP2 MSTORE PUSH1 0x4 ADD PUSH2 0x7D9 SWAP1 PUSH2 0x387E JUMP JUMPDEST PUSH1 0x40 MLOAD DUP1 SWAP2 SUB SWAP1 REVERT JUMPDEST PUSH1 0x8 PUSH1 0x0 SWAP1 SLOAD SWAP1 PUSH2 0x100 EXP SWAP1 DIV PUSH1 0xFF AND PUSH2 0x831 JUMPI PUSH1 0x40 MLOAD PUSH32 0x8C379A000000000000000000000000000000000000000000000000000000000 DUP2 MSTORE PUSH1 0x4 ADD PUSH2 0x828 SWAP1 PUSH2 0x3910 JUMP JUMPDEST PUSH1 0x40 MLOAD DUP1 SWAP2 SUB SWAP1 REVERT JUMPDEST PUSH1 0x2 PUSH1 0x8 PUSH1 0x1 SWAP1 SLOAD SWAP1 PUSH2 0x100 EXP SWAP1 DIV PUSH1 0xFF AND PUSH1 0x2 DUP2 GT ISZERO PUSH2 0x855 JUMPI PUSH2 0x854 PUSH2 0x3287 JUMP JUMPDEST JUMPDEST DUP2 PUSH1 0x2 DUP2 GT ISZERO PUSH2 0x868 JUMPI PUSH2 0x867 PUSH2 0x3287 JUMP JUMPDEST JUMPDEST EQ PUSH2 0x8A8 JUMPI PUSH1 0x40 MLOAD PUSH32 0x8C379A000000000000000000000000000000000000000000000000000000000 DUP2 MSTORE PUSH1 0x4 ADD PUSH2 0x89F SWAP1 PUSH2 0x39A2 JUMP JUMPDEST PUSH1 0x40 MLOAD DUP1 SWAP2 SUB SWAP1 REVERT JUMPDEST PUSH2 0x8B1 DUP4 PUSH2 0x26A9 JUMP JUMPDEST POP POP POP JUMP JUMPDEST PUSH1 0x4 PUSH1 0x0 SWAP1 SLOAD SWAP1 PUSH2 0x100 EXP SWAP1 DIV PUSH1 0xFF AND DUP2 JUMP JUMPDEST TIMESTAMP PUSH1 0x3 SLOAD LT DUP1 PUSH2 0x8DD JUMPI POP PUSH1 0x7 SLOAD PUSH1 0x1 SLOAD LT ISZERO JUMPDEST PUSH2 0x91C JUMPI PUSH1 0x40 MLOAD PUSH32 0x8C379A000000000000000000000000000000000000000000000000000000000 DUP2 MSTORE PUSH1 0x4 ADD PUSH2 0x913 SWAP1 PUSH2 0x3A0E JUMP JUMPDEST PUSH1 0x40 MLOAD DUP1 SWAP2 SUB SWAP1 REVERT JUMPDEST PUSH1 0x4 PUSH1 0x0 SWAP1 SLOAD SWAP1 PUSH2 0x100 EXP SWAP1 DIV PUSH1 0xFF AND PUSH2 0x96B JUMPI PUSH1 0x40 MLOAD PUSH32 0x8C379A000000000000000000000000000000000000000000000000000000000 DUP2 MSTORE PUSH1 0x4 ADD PUSH2 0x962 SWAP1 PUSH2 0x37AA JUMP JUMPDEST PUSH1 0x40 MLOAD DUP1 SWAP2 SUB SWAP1 REVERT JUMPDEST PUSH2 0x973 PUSH2 0x2A21 JUMP JUMPDEST PUSH20 0xFFFFFFFFFFFFFFFFFFFFFFFFFFFFFFFFFFFFFFFF AND PUSH2 0x991 PUSH2 0x17E9 JUMP JUMPDEST PUSH20 0xFFFFFFFFFFFFFFFFFFFFFFFFFFFFFFFFFFFFFFFF AND EQ PUSH2 0x9E7 JUMPI PUSH1 0x40 MLOAD PUSH32 0x8C379A000000000000000000000000000000000000000000000000000000000 DUP2 MSTORE PUSH1 0x4 ADD PUSH2 0x9DE SWAP1 PUSH2 0x3A7A JUMP JUMPDEST PUSH1 0x40 MLOAD DUP1 SWAP2 SUB SWAP1 REVERT JUMPDEST PUSH1 0x0 PUSH1 0x2 PUSH1 0x0 SWAP1 SLOAD SWAP1 PUSH2 0x100 EXP SWAP1 DIV PUSH20 0xFFFFFFFFFFFFFFFFFFFFFFFFFFFFFFFFFFFFFFFF AND SWAP1 POP PUSH1 0x0 DUP2 PUSH20 0xFFFFFFFFFFFFFFFFFFFFFFFFFFFFFFFFFFFFFFFF AND PUSH4 0x70A08231 ADDRESS PUSH1 0x40 MLOAD DUP3 PUSH4 0xFFFFFFFF AND PUSH1 0xE0 SHL DUP2 MSTORE PUSH1 0x4 ADD PUSH2 0xA49 SWAP2 SWAP1 PUSH2 0x34D5 JUMP JUMPDEST PUSH1 0x20 PUSH1 0x40 MLOAD DUP1 DUP4 SUB DUP2 DUP7 GAS STATICCALL ISZERO DUP1 ISZERO PUSH2 0xA66 JUMPI RETURNDATASIZE PUSH1 0x0 DUP1 RETURNDATACOPY RETURNDATASIZE PUSH1 0x0 REVERT JUMPDEST POP POP POP POP PUSH1 0x40 MLOAD RETURNDATASIZE PUSH1 0x1F NOT PUSH1 0x1F DUP3 ADD AND DUP3 ADD DUP1 PUSH1 0x40 MSTORE POP DUP2 ADD SWAP1 PUSH2 0xA8A SWAP2 SWAP1 PUSH2 0x3AAF JUMP JUMPDEST SWAP1 POP PUSH1 0x0 DUP2 GT ISZERO PUSH2 0xB2D JUMPI PUSH1 0x2 PUSH1 0x0 SWAP1 SLOAD SWAP1 PUSH2 0x100 EXP SWAP1 DIV PUSH20 0xFFFFFFFFFFFFFFFFFFFFFFFFFFFFFFFFFFFFFFFF AND PUSH20 0xFFFFFFFFFFFFFFFFFFFFFFFFFFFFFFFFFFFFFFFF AND PUSH4 0x2E1A7D4D DUP3 PUSH1 0x40 MLOAD DUP3 PUSH4 0xFFFFFFFF AND PUSH1 0xE0 SHL DUP2 MSTORE PUSH1 0x4 ADD PUSH2 0xAF0 SWAP2 SWAP1 PUSH2 0x34AB JUMP JUMPDEST PUSH1 0x0 PUSH1 0x40 MLOAD DUP1 DUP4 SUB DUP2 PUSH1 0x0 DUP8 DUP1 EXTCODESIZE ISZERO DUP1 ISZERO PUSH2 0xB0A JUMPI PUSH1 0x0 DUP1 REVERT JUMPDEST POP GAS CALL ISZERO DUP1 ISZERO PUSH2 0xB1E JUMPI RETURNDATASIZE PUSH1 0x0 DUP1 RETURNDATACOPY RETURNDATASIZE PUSH1 0x0 REVERT JUMPDEST POP POP POP POP PUSH2 0xB2C CALLER DUP3 PUSH2 0x2A29 JUMP JUMPDEST JUMPDEST PUSH1 0x0 PUSH1 0x5 PUSH1 0x0 SWAP1 SLOAD SWAP1 PUSH2 0x100 EXP SWAP1 DIV PUSH20 0xFFFFFFFFFFFFFFFFFFFFFFFFFFFFFFFFFFFFFFFF AND PUSH20 0xFFFFFFFFFFFFFFFFFFFFFFFFFFFFFFFFFFFFFFFF AND PUSH4 0x70A08231 ADDRESS PUSH1 0x40 MLOAD DUP3 PUSH4 0xFFFFFFFF AND PUSH1 0xE0 SHL DUP2 MSTORE PUSH1 0x4 ADD PUSH2 0xB8A SWAP2 SWAP1 PUSH2 0x34D5 JUMP JUMPDEST PUSH1 0x20 PUSH1 0x40 MLOAD DUP1 DUP4 SUB DUP2 DUP7 GAS STATICCALL ISZERO DUP1 ISZERO PUSH2 0xBA7 JUMPI RETURNDATASIZE PUSH1 0x0 DUP1 RETURNDATACOPY RETURNDATASIZE PUSH1 0x0 REVERT JUMPDEST POP POP POP POP PUSH1 0x40 MLOAD RETURNDATASIZE PUSH1 0x1F NOT PUSH1 0x1F DUP3 ADD AND DUP3 ADD DUP1 PUSH1 0x40 MSTORE POP DUP2 ADD SWAP1 PUSH2 0xBCB SWAP2 SWAP1 PUSH2 0x3AAF JUMP JUMPDEST SWAP1 POP PUSH1 0x0 DUP2 GT ISZERO PUSH2 0xC04 JUMPI PUSH2 0xC03 PUSH1 0x5 PUSH1 0x0 SWAP1 SLOAD SWAP1 PUSH2 0x100 EXP SWAP1 DIV PUSH20 0xFFFFFFFFFFFFFFFFFFFFFFFFFFFFFFFFFFFFFFFF AND CALLER DUP4 PUSH2 0x2B29 JUMP JUMPDEST JUMPDEST PUSH1 0x0 PUSH1 0x4 PUSH1 0x1 SWAP1 SLOAD SWAP1 PUSH2 0x100 EXP SWAP1 DIV PUSH20 0xFFFFFFFFFFFFFFFFFFFFFFFFFFFFFFFFFFFFFFFF AND PUSH20 0xFFFFFFFFFFFFFFFFFFFFFFFFFFFFFFFFFFFFFFFF AND PUSH4 0x70A08231 ADDRESS PUSH1 0x40 MLOAD DUP3 PUSH4 0xFFFFFFFF AND PUSH1 0xE0 SHL DUP2 MSTORE PUSH1 0x4 ADD PUSH2 0xC61 SWAP2 SWAP1 PUSH2 0x34D5 JUMP JUMPDEST PUSH1 0x20 PUSH1 0x40 MLOAD DUP1 DUP4 SUB DUP2 DUP7 GAS STATICCALL ISZERO DUP1 ISZERO PUSH2 0xC7E JUMPI RETURNDATASIZE PUSH1 0x0 DUP1 RETURNDATACOPY RETURNDATASIZE PUSH1 0x0 REVERT JUMPDEST POP POP POP POP PUSH1 0x40 MLOAD RETURNDATASIZE PUSH1 0x1F NOT PUSH1 0x1F DUP3 ADD AND DUP3 ADD DUP1 PUSH1 0x40 MSTORE POP DUP2 ADD SWAP1 PUSH2 0xCA2 SWAP2 SWAP1 PUSH2 0x3AAF JUMP JUMPDEST SWAP1 POP PUSH1 0x0 DUP2 GT ISZERO PUSH2 0xCDB JUMPI PUSH2 0xCDA PUSH1 0x4 PUSH1 0x1 SWAP1 SLOAD SWAP1 PUSH2 0x100 EXP SWAP1 DIV PUSH20 0xFFFFFFFFFFFFFFFFFFFFFFFFFFFFFFFFFFFFFFFF AND CALLER DUP4 PUSH2 0x2B29 JUMP JUMPDEST JUMPDEST PUSH1 0x0 DUP1 PUSH1 0x0 PUSH1 0x2 DUP2 GT ISZERO PUSH2 0xCF2 JUMPI PUSH2 0xCF1 PUSH2 0x3287 JUMP JUMPDEST JUMPDEST PUSH1 0x8 PUSH1 0x1 SWAP1 SLOAD SWAP1 PUSH2 0x100 EXP SWAP1 DIV PUSH1 0xFF AND PUSH1 0x2 DUP2 GT ISZERO PUSH2 0xD14 JUMPI PUSH2 0xD13 PUSH2 0x3287 JUMP JUMPDEST JUMPDEST SUB PUSH2 0xD24 JUMPI DUP5 SWAP2 POP DUP4 SWAP1 POP PUSH2 0xD71 JUMP JUMPDEST PUSH1 0x2 DUP1 DUP2 GT ISZERO PUSH2 0xD37 JUMPI PUSH2 0xD36 PUSH2 0x3287 JUMP JUMPDEST JUMPDEST PUSH1 0x8 PUSH1 0x1 SWAP1 SLOAD SWAP1 PUSH2 0x100 EXP SWAP1 DIV PUSH1 0xFF AND PUSH1 0x2 DUP2 GT ISZERO PUSH2 0xD59 JUMPI PUSH2 0xD58 PUSH2 0x3287 JUMP JUMPDEST JUMPDEST SUB PUSH2 0xD69 JUMPI DUP3 SWAP2 POP DUP4 SWAP1 POP PUSH2 0xD70 JUMP JUMPDEST DUP3 SWAP2 POP DUP5 SWAP1 POP JUMPDEST JUMPDEST PUSH1 0x0 PUSH32 0x0 SWAP1 POP DUP1 PUSH20 0xFFFFFFFFFFFFFFFFFFFFFFFFFFFFFFFFFFFFFFFF AND PUSH4 0x33796A0E ADDRESS CALLER DUP7 DUP7 PUSH1 0x40 MLOAD DUP6 PUSH4 0xFFFFFFFF AND PUSH1 0xE0 SHL DUP2 MSTORE PUSH1 0x4 ADD PUSH2 0xDD5 SWAP5 SWAP4 SWAP3 SWAP2 SWAP1 PUSH2 0x3ADC JUMP JUMPDEST PUSH1 0x0 PUSH1 0x40 MLOAD DUP1 DUP4 SUB DUP2 PUSH1 0x0 DUP8 DUP1 EXTCODESIZE ISZERO DUP1 ISZERO PUSH2 0xDEF JUMPI PUSH1 0x0 DUP1 REVERT JUMPDEST POP GAS CALL ISZERO DUP1 ISZERO PUSH2 0xE03 JUMPI RETURNDATASIZE PUSH1 0x0 DUP1 RETURNDATACOPY RETURNDATASIZE PUSH1 0x0 REVERT JUMPDEST POP POP POP POP CALLER PUSH20 0xFFFFFFFFFFFFFFFFFFFFFFFFFFFFFFFFFFFFFFFF AND SELFDESTRUCT JUMPDEST PUSH1 0x0 DUP1 PUSH1 0x4 PUSH1 0x0 SWAP1 SLOAD SWAP1 PUSH2 0x100 EXP SWAP1 DIV PUSH1 0xFF AND PUSH2 0xE72 JUMPI PUSH1 0x40 MLOAD PUSH32 0x8C379A000000000000000000000000000000000000000000000000000000000 DUP2 MSTORE PUSH1 0x4 ADD PUSH2 0xE69 SWAP1 PUSH2 0x37AA JUMP JUMPDEST PUSH1 0x40 MLOAD DUP1 SWAP2 SUB SWAP1 REVERT JUMPDEST PUSH1 0x6 SLOAD PUSH1 0x7 SLOAD SWAP2 POP SWAP2 POP SWAP1 SWAP2 JUMP JUMPDEST TIMESTAMP PUSH1 0x3 SLOAD LT ISZERO DUP1 ISZERO PUSH2 0xE95 JUMPI POP PUSH1 0x7 SLOAD PUSH1 0x1 SLOAD LT JUMPDEST PUSH2 0xED4 JUMPI PUSH1 0x40 MLOAD PUSH32 0x8C379A000000000000000000000000000000000000000000000000000000000 DUP2 MSTORE PUSH1 0x4 ADD PUSH2 0xECB SWAP1 PUSH2 0x373E JUMP JUMPDEST PUSH1 0x40 MLOAD DUP1 SWAP2 SUB SWAP1 REVERT JUMPDEST PUSH1 0x4 PUSH1 0x0 SWAP1 SLOAD SWAP1 PUSH2 0x100 EXP SWAP1 DIV PUSH1 0xFF AND PUSH2 0xF23 JUMPI PUSH1 0x40 MLOAD PUSH32 0x8C379A000000000000000000000000000000000000000000000000000000000 DUP2 MSTORE PUSH1 0x4 ADD PUSH2 0xF1A SWAP1 PUSH2 0x37AA JUMP JUMPDEST PUSH1 0x40 MLOAD DUP1 SWAP2 SUB SWAP1 REVERT JUMPDEST PUSH1 0x0 PUSH32 0x0 SWAP1 POP DUP1 PUSH20 0xFFFFFFFFFFFFFFFFFFFFFFFFFFFFFFFFFFFFFFFF AND PUSH4 0xB187BD26 PUSH1 0x40 MLOAD DUP2 PUSH4 0xFFFFFFFF AND PUSH1 0xE0 SHL DUP2 MSTORE PUSH1 0x4 ADD PUSH1 0x20 PUSH1 0x40 MLOAD DUP1 DUP4 SUB DUP2 DUP7 GAS STATICCALL ISZERO DUP1 ISZERO PUSH2 0xF93 JUMPI RETURNDATASIZE PUSH1 0x0 DUP1 RETURNDATACOPY RETURNDATASIZE PUSH1 0x0 REVERT JUMPDEST POP POP POP POP PUSH1 0x40 MLOAD RETURNDATASIZE PUSH1 0x1F NOT PUSH1 0x1F DUP3 ADD AND DUP3 ADD DUP1 PUSH1 0x40 MSTORE POP DUP2 ADD SWAP1 PUSH2 0xFB7 SWAP2 SWAP1 PUSH2 0x37DF JUMP JUMPDEST ISZERO PUSH2 0xFF7 JUMPI PUSH1 0x40 MLOAD PUSH32 0x8C379A000000000000000000000000000000000000000000000000000000000 DUP2 MSTORE PUSH1 0x4 ADD PUSH2 0xFEE SWAP1 PUSH2 0x387E JUMP JUMPDEST PUSH1 0x40 MLOAD DUP1 SWAP2 SUB SWAP1 REVERT JUMPDEST PUSH1 0x8 PUSH1 0x0 SWAP1 SLOAD SWAP1 PUSH2 0x100 EXP SWAP1 DIV PUSH1 0xFF AND PUSH2 0x1046 JUMPI PUSH1 0x40 MLOAD PUSH32 0x8C379A000000000000000000000000000000000000000000000000000000000 DUP2 MSTORE PUSH1 0x4 ADD PUSH2 0x103D SWAP1 PUSH2 0x3910 JUMP JUMPDEST PUSH1 0x40 MLOAD DUP1 SWAP2 SUB SWAP1 REVERT JUMPDEST PUSH1 0x1 PUSH1 0x8 PUSH1 0x1 SWAP1 SLOAD SWAP1 PUSH2 0x100 EXP SWAP1 DIV PUSH1 0xFF AND PUSH1 0x2 DUP2 GT ISZERO PUSH2 0x106A JUMPI PUSH2 0x1069 PUSH2 0x3287 JUMP JUMPDEST JUMPDEST DUP2 PUSH1 0x2 DUP2 GT ISZERO PUSH2 0x107D JUMPI PUSH2 0x107C PUSH2 0x3287 JUMP JUMPDEST JUMPDEST EQ PUSH2 0x10BD JUMPI PUSH1 0x40 MLOAD PUSH32 0x8C379A000000000000000000000000000000000000000000000000000000000 DUP2 MSTORE PUSH1 0x4 ADD PUSH2 0x10B4 SWAP1 PUSH2 0x39A2 JUMP JUMPDEST PUSH1 0x40 MLOAD DUP1 SWAP2 SUB SWAP1 REVERT JUMPDEST PUSH2 0x10C6 DUP4 PUSH2 0x2C5F JUMP JUMPDEST POP POP POP JUMP JUMPDEST PUSH1 0x0 PUSH1 0x4 PUSH1 0x0 SWAP1 SLOAD SWAP1 PUSH2 0x100 EXP SWAP1 DIV PUSH1 0xFF AND PUSH2 0x111C JUMPI PUSH1 0x40 MLOAD PUSH32 0x8C379A000000000000000000000000000000000000000000000000000000000 DUP2 MSTORE PUSH1 0x4 ADD PUSH2 0x1113 SWAP1 PUSH2 0x37AA JUMP JUMPDEST PUSH1 0x40 MLOAD DUP1 SWAP2 SUB SWAP1 REVERT JUMPDEST PUSH1 0x8 PUSH1 0x1 SWAP1 SLOAD SWAP1 PUSH2 0x100 EXP SWAP1 DIV PUSH1 0xFF AND SWAP1 POP SWAP1 JUMP JUMPDEST PUSH2 0x1139 PUSH2 0x2A21 JUMP JUMPDEST PUSH20 0xFFFFFFFFFFFFFFFFFFFFFFFFFFFFFFFFFFFFFFFF AND PUSH2 0x1157 PUSH2 0x17E9 JUMP JUMPDEST PUSH20 0xFFFFFFFFFFFFFFFFFFFFFFFFFFFFFFFFFFFFFFFF AND EQ PUSH2 0x11AD JUMPI PUSH1 0x40 MLOAD PUSH32 0x8C379A000000000000000000000000000000000000000000000000000000000 DUP2 MSTORE PUSH1 0x4 ADD PUSH2 0x11A4 SWAP1 PUSH2 0x3A7A JUMP JUMPDEST PUSH1 0x40 MLOAD DUP1 SWAP2 SUB SWAP1 REVERT JUMPDEST PUSH1 0x4 PUSH1 0x0 SWAP1 SLOAD SWAP1 PUSH2 0x100 EXP SWAP1 DIV PUSH1 0xFF AND PUSH2 0x11FC JUMPI PUSH1 0x40 MLOAD PUSH32 0x8C379A000000000000000000000000000000000000000000000000000000000 DUP2 MSTORE PUSH1 0x4 ADD PUSH2 0x11F3 SWAP1 PUSH2 0x37AA JUMP JUMPDEST PUSH1 0x40 MLOAD DUP1 SWAP2 SUB SWAP1 REVERT JUMPDEST PUSH1 0x5 PUSH1 0x0 SWAP1 SLOAD SWAP1 PUSH2 0x100 EXP SWAP1 DIV PUSH20 0xFFFFFFFFFFFFFFFFFFFFFFFFFFFFFFFFFFFFFFFF AND PUSH20 0xFFFFFFFFFFFFFFFFFFFFFFFFFFFFFFFFFFFFFFFF AND DUP2 PUSH20 0xFFFFFFFFFFFFFFFFFFFFFFFFFFFFFFFFFFFFFFFF AND SUB PUSH2 0x128C JUMPI PUSH1 0x40 MLOAD PUSH32 0x8C379A000000000000000000000000000000000000000000000000000000000 DUP2 MSTORE PUSH1 0x4 ADD PUSH2 0x1283 SWAP1 PUSH2 0x3B6D JUMP JUMPDEST PUSH1 0x40 MLOAD DUP1 SWAP2 SUB SWAP1 REVERT JUMPDEST PUSH1 0x4 PUSH1 0x1 SWAP1 SLOAD SWAP1 PUSH2 0x100 EXP SWAP1 DIV PUSH20 0xFFFFFFFFFFFFFFFFFFFFFFFFFFFFFFFFFFFFFFFF AND PUSH20 0xFFFFFFFFFFFFFFFFFFFFFFFFFFFFFFFFFFFFFFFF AND DUP2 PUSH20 0xFFFFFFFFFFFFFFFFFFFFFFFFFFFFFFFFFFFFFFFF AND SUB PUSH2 0x131C JUMPI PUSH1 0x40 MLOAD PUSH32 0x8C379A000000000000000000000000000000000000000000000000000000000 DUP2 MSTORE PUSH1 0x4 ADD PUSH2 0x1313 SWAP1 PUSH2 0x3B6D JUMP JUMPDEST PUSH1 0x40 MLOAD DUP1 SWAP2 SUB SWAP1 REVERT JUMPDEST PUSH1 0x0 DUP2 PUSH20 0xFFFFFFFFFFFFFFFFFFFFFFFFFFFFFFFFFFFFFFFF AND PUSH4 0x70A08231 ADDRESS PUSH1 0x40 MLOAD DUP3 PUSH4 0xFFFFFFFF AND PUSH1 0xE0 SHL DUP2 MSTORE PUSH1 0x4 ADD PUSH2 0x1357 SWAP2 SWAP1 PUSH2 0x34D5 JUMP JUMPDEST PUSH1 0x20 PUSH1 0x40 MLOAD DUP1 DUP4 SUB DUP2 DUP7 GAS STATICCALL ISZERO DUP1 ISZERO PUSH2 0x1374 JUMPI RETURNDATASIZE PUSH1 0x0 DUP1 RETURNDATACOPY RETURNDATASIZE PUSH1 0x0 REVERT JUMPDEST POP POP POP POP PUSH1 0x40 MLOAD RETURNDATASIZE PUSH1 0x1F NOT PUSH1 0x1F DUP3 ADD AND DUP3 ADD DUP1 PUSH1 0x40 MSTORE POP DUP2 ADD SWAP1 PUSH2 0x1398 SWAP2 SWAP1 PUSH2 0x3AAF JUMP JUMPDEST SWAP1 POP PUSH1 0x0 DUP2 GT ISZERO PUSH2 0x13D1 JUMPI PUSH2 0x13D0 PUSH1 0x4 PUSH1 0x1 SWAP1 SLOAD SWAP1 PUSH2 0x100 EXP SWAP1 DIV PUSH20 0xFFFFFFFFFFFFFFFFFFFFFFFFFFFFFFFFFFFFFFFF AND CALLER DUP4 PUSH2 0x2B29 JUMP JUMPDEST JUMPDEST POP POP JUMP JUMPDEST PUSH1 0x0 PUSH32 0x0 PUSH20 0xFFFFFFFFFFFFFFFFFFFFFFFFFFFFFFFFFFFFFFFF AND CALLER PUSH20 0xFFFFFFFFFFFFFFFFFFFFFFFFFFFFFFFFFFFFFFFF AND EQ PUSH2 0x1465 JUMPI PUSH1 0x40 MLOAD PUSH32 0x8C379A000000000000000000000000000000000000000000000000000000000 DUP2 MSTORE PUSH1 0x4 ADD PUSH2 0x145C SWAP1 PUSH2 0x3B6D JUMP JUMPDEST PUSH1 0x40 MLOAD DUP1 SWAP2 SUB SWAP1 REVERT JUMPDEST PUSH1 0x4 PUSH1 0x0 SWAP1 SLOAD SWAP1 PUSH2 0x100 EXP SWAP1 DIV PUSH1 0xFF AND ISZERO PUSH2 0x14B5 JUMPI PUSH1 0x40 MLOAD PUSH32 0x8C379A000000000000000000000000000000000000000000000000000000000 DUP2 MSTORE PUSH1 0x4 ADD PUSH2 0x14AC SWAP1 PUSH2 0x3BFF JUMP JUMPDEST PUSH1 0x40 MLOAD DUP1 SWAP2 SUB SWAP1 REVERT JUMPDEST TIMESTAMP DUP5 LT PUSH2 0x14F7 JUMPI PUSH1 0x40 MLOAD PUSH32 0x8C379A000000000000000000000000000000000000000000000000000000000 DUP2 MSTORE PUSH1 0x4 ADD PUSH2 0x14EE SWAP1 PUSH2 0x3C6B JUMP JUMPDEST PUSH1 0x40 MLOAD DUP1 SWAP2 SUB SWAP1 REVERT JUMPDEST DUP6 DUP9 PUSH20 0xFFFFFFFFFFFFFFFFFFFFFFFFFFFFFFFFFFFFFFFF AND PUSH4 0x70A08231 ADDRESS PUSH1 0x40 MLOAD DUP3 PUSH4 0xFFFFFFFF AND PUSH1 0xE0 SHL DUP2 MSTORE PUSH1 0x4 ADD PUSH2 0x1531 SWAP2 SWAP1 PUSH2 0x34D5 JUMP JUMPDEST PUSH1 0x20 PUSH1 0x40 MLOAD DUP1 DUP4 SUB DUP2 DUP7 GAS STATICCALL ISZERO DUP1 ISZERO PUSH2 0x154E JUMPI RETURNDATASIZE PUSH1 0x0 DUP1 RETURNDATACOPY RETURNDATASIZE PUSH1 0x0 REVERT JUMPDEST POP POP POP POP PUSH1 0x40 MLOAD RETURNDATASIZE PUSH1 0x1F NOT PUSH1 0x1F DUP3 ADD AND DUP3 ADD DUP1 PUSH1 0x40 MSTORE POP DUP2 ADD SWAP1 PUSH2 0x1572 SWAP2 SWAP1 PUSH2 0x3AAF JUMP JUMPDEST LT ISZERO PUSH2 0x15B3 JUMPI PUSH1 0x40 MLOAD PUSH32 0x8C379A000000000000000000000000000000000000000000000000000000000 DUP2 MSTORE PUSH1 0x4 ADD PUSH2 0x15AA SWAP1 PUSH2 0x3CFD JUMP JUMPDEST PUSH1 0x40 MLOAD DUP1 SWAP2 SUB SWAP1 REVERT JUMPDEST DUP4 PUSH1 0x3 DUP2 SWAP1 SSTORE POP DUP8 PUSH1 0x4 PUSH1 0x1 PUSH2 0x100 EXP DUP2 SLOAD DUP2 PUSH20 0xFFFFFFFFFFFFFFFFFFFFFFFFFFFFFFFFFFFFFFFF MUL NOT AND SWAP1 DUP4 PUSH20 0xFFFFFFFFFFFFFFFFFFFFFFFFFFFFFFFFFFFFFFFF AND MUL OR SWAP1 SSTORE POP DUP7 PUSH1 0x5 PUSH1 0x0 PUSH2 0x100 EXP DUP2 SLOAD DUP2 PUSH20 0xFFFFFFFFFFFFFFFFFFFFFFFFFFFFFFFFFFFFFFFF MUL NOT AND SWAP1 DUP4 PUSH20 0xFFFFFFFFFFFFFFFFFFFFFFFFFFFFFFFFFFFFFFFF AND MUL OR SWAP1 SSTORE POP DUP6 PUSH1 0x6 DUP2 SWAP1 SSTORE POP DUP5 PUSH1 0x7 DUP2 SWAP1 SSTORE POP DUP9 PUSH1 0x8 PUSH1 0x1 PUSH2 0x100 EXP DUP2 SLOAD DUP2 PUSH1 0xFF MUL NOT AND SWAP1 DUP4 PUSH1 0x2 DUP2 GT ISZERO PUSH2 0x166F JUMPI PUSH2 0x166E PUSH2 0x3287 JUMP JUMPDEST JUMPDEST MUL OR SWAP1 SSTORE POP DUP3 PUSH1 0x8 PUSH1 0x0 PUSH2 0x100 EXP DUP2 SLOAD DUP2 PUSH1 0xFF MUL NOT AND SWAP1 DUP4 ISZERO ISZERO MUL OR SWAP1 SSTORE POP DUP2 PUSH1 0x2 PUSH1 0x0 PUSH2 0x100 EXP DUP2 SLOAD DUP2 PUSH20 0xFFFFFFFFFFFFFFFFFFFFFFFFFFFFFFFFFFFFFFFF MUL NOT AND SWAP1 DUP4 PUSH20 0xFFFFFFFFFFFFFFFFFFFFFFFFFFFFFFFFFFFFFFFF AND MUL OR SWAP1 SSTORE POP PUSH1 0x1 PUSH1 0x4 PUSH1 0x0 PUSH2 0x100 EXP DUP2 SLOAD DUP2 PUSH1 0xFF MUL NOT AND SWAP1 DUP4 ISZERO ISZERO MUL OR SWAP1 SSTORE POP PUSH1 0x4 PUSH1 0x0 SWAP1 SLOAD SWAP1 PUSH2 0x100 EXP SWAP1 DIV PUSH1 0xFF AND SWAP1 POP SWAP9 SWAP8 POP POP POP POP POP POP POP POP JUMP JUMPDEST PUSH1 0x0 PUSH1 0x4 PUSH1 0x0 SWAP1 SLOAD SWAP1 PUSH2 0x100 EXP SWAP1 DIV PUSH1 0xFF AND PUSH2 0x1759 JUMPI PUSH1 0x40 MLOAD PUSH32 0x8C379A000000000000000000000000000000000000000000000000000000000 DUP2 MSTORE PUSH1 0x4 ADD PUSH2 0x1750 SWAP1 PUSH2 0x37AA JUMP JUMPDEST PUSH1 0x40 MLOAD DUP1 SWAP2 SUB SWAP1 REVERT JUMPDEST PUSH1 0x3 SLOAD SWAP1 POP SWAP1 JUMP JUMPDEST PUSH2 0x1769 PUSH2 0x2A21 JUMP JUMPDEST PUSH20 0xFFFFFFFFFFFFFFFFFFFFFFFFFFFFFFFFFFFFFFFF AND PUSH2 0x1787 PUSH2 0x17E9 JUMP JUMPDEST PUSH20 0xFFFFFFFFFFFFFFFFFFFFFFFFFFFFFFFFFFFFFFFF AND EQ PUSH2 0x17DD JUMPI PUSH1 0x40 MLOAD PUSH32 0x8C379A000000000000000000000000000000000000000000000000000000000 DUP2 MSTORE PUSH1 0x4 ADD PUSH2 0x17D4 SWAP1 PUSH2 0x3A7A JUMP JUMPDEST PUSH1 0x40 MLOAD DUP1 SWAP2 SUB SWAP1 REVERT JUMPDEST PUSH2 0x17E7 PUSH1 0x0 PUSH2 0x2F90 JUMP JUMPDEST JUMP JUMPDEST PUSH1 0x0 DUP1 PUSH1 0x0 SWAP1 SLOAD SWAP1 PUSH2 0x100 EXP SWAP1 DIV PUSH20 0xFFFFFFFFFFFFFFFFFFFFFFFFFFFFFFFFFFFFFFFF AND SWAP1 POP SWAP1 JUMP JUMPDEST TIMESTAMP PUSH1 0x3 SLOAD LT ISZERO DUP1 ISZERO PUSH2 0x1827 JUMPI POP PUSH1 0x7 SLOAD PUSH1 0x1 SLOAD LT JUMPDEST PUSH2 0x1866 JUMPI PUSH1 0x40 MLOAD PUSH32 0x8C379A000000000000000000000000000000000000000000000000000000000 DUP2 MSTORE PUSH1 0x4 ADD PUSH2 0x185D SWAP1 PUSH2 0x373E JUMP JUMPDEST PUSH1 0x40 MLOAD DUP1 SWAP2 SUB SWAP1 REVERT JUMPDEST PUSH1 0x4 PUSH1 0x0 SWAP1 SLOAD SWAP1 PUSH2 0x100 EXP SWAP1 DIV PUSH1 0xFF AND PUSH2 0x18B5 JUMPI PUSH1 0x40 MLOAD PUSH32 0x8C379A000000000000000000000000000000000000000000000000000000000 DUP2 MSTORE PUSH1 0x4 ADD PUSH2 0x18AC SWAP1 PUSH2 0x37AA JUMP JUMPDEST PUSH1 0x40 MLOAD DUP1 SWAP2 SUB SWAP1 REVERT JUMPDEST PUSH1 0x0 PUSH32 0x0 SWAP1 POP DUP1 PUSH20 0xFFFFFFFFFFFFFFFFFFFFFFFFFFFFFFFFFFFFFFFF AND PUSH4 0xB187BD26 PUSH1 0x40 MLOAD DUP2 PUSH4 0xFFFFFFFF AND PUSH1 0xE0 SHL DUP2 MSTORE PUSH1 0x4 ADD PUSH1 0x20 PUSH1 0x40 MLOAD DUP1 DUP4 SUB DUP2 DUP7 GAS STATICCALL ISZERO DUP1 ISZERO PUSH2 0x1925 JUMPI RETURNDATASIZE PUSH1 0x0 DUP1 RETURNDATACOPY RETURNDATASIZE PUSH1 0x0 REVERT JUMPDEST POP POP POP POP PUSH1 0x40 MLOAD RETURNDATASIZE PUSH1 0x1F NOT PUSH1 0x1F DUP3 ADD AND DUP3 ADD DUP1 PUSH1 0x40 MSTORE POP DUP2 ADD SWAP1 PUSH2 0x1949 SWAP2 SWAP1 PUSH2 0x37DF JUMP JUMPDEST ISZERO PUSH2 0x1989 JUMPI PUSH1 0x40 MLOAD PUSH32 0x8C379A000000000000000000000000000000000000000000000000000000000 DUP2 MSTORE PUSH1 0x4 ADD PUSH2 0x1980 SWAP1 PUSH2 0x387E JUMP JUMPDEST PUSH1 0x40 MLOAD DUP1 SWAP2 SUB SWAP1 REVERT JUMPDEST PUSH1 0x0 PUSH1 0x8 PUSH1 0x1 SWAP1 SLOAD SWAP1 PUSH2 0x100 EXP SWAP1 DIV PUSH1 0xFF AND PUSH1 0x2 DUP2 GT ISZERO PUSH2 0x19AD JUMPI PUSH2 0x19AC PUSH2 0x3287 JUMP JUMPDEST JUMPDEST DUP2 PUSH1 0x2 DUP2 GT ISZERO PUSH2 0x19C0 JUMPI PUSH2 0x19BF PUSH2 0x3287 JUMP JUMPDEST JUMPDEST EQ PUSH2 0x1A00 JUMPI PUSH1 0x40 MLOAD PUSH32 0x8C379A000000000000000000000000000000000000000000000000000000000 DUP2 MSTORE PUSH1 0x4 ADD PUSH2 0x19F7 SWAP1 PUSH2 0x39A2 JUMP JUMPDEST PUSH1 0x40 MLOAD DUP1 SWAP2 SUB SWAP1 REVERT JUMPDEST PUSH2 0x1A0B PUSH1 0x7 SLOAD PUSH2 0x22C1 JUMP JUMPDEST POP POP JUMP JUMPDEST PUSH1 0x0 DUP1 PUSH1 0x4 PUSH1 0x0 SWAP1 SLOAD SWAP1 PUSH2 0x100 EXP SWAP1 DIV PUSH1 0xFF AND PUSH2 0x1A61 JUMPI PUSH1 0x40 MLOAD PUSH32 0x8C379A000000000000000000000000000000000000000000000000000000000 DUP2 MSTORE PUSH1 0x4 ADD PUSH2 0x1A58 SWAP1 PUSH2 0x37AA JUMP JUMPDEST PUSH1 0x40 MLOAD DUP1 SWAP2 SUB SWAP1 REVERT JUMPDEST PUSH1 0x4 PUSH1 0x1 SWAP1 SLOAD SWAP1 PUSH2 0x100 EXP SWAP1 DIV PUSH20 0xFFFFFFFFFFFFFFFFFFFFFFFFFFFFFFFFFFFFFFFF AND PUSH1 0x5 PUSH1 0x0 SWAP1 SLOAD SWAP1 PUSH2 0x100 EXP SWAP1 DIV PUSH20 0xFFFFFFFFFFFFFFFFFFFFFFFFFFFFFFFFFFFFFFFF AND SWAP2 POP SWAP2 POP SWAP1 SWAP2 JUMP JUMPDEST TIMESTAMP PUSH1 0x3 SLOAD LT ISZERO DUP1 ISZERO PUSH2 0x1AC4 JUMPI POP PUSH1 0x7 SLOAD PUSH1 0x1 SLOAD LT JUMPDEST PUSH2 0x1B03 JUMPI PUSH1 0x40 MLOAD PUSH32 0x8C379A000000000000000000000000000000000000000000000000000000000 DUP2 MSTORE PUSH1 0x4 ADD PUSH2 0x1AFA SWAP1 PUSH2 0x373E JUMP JUMPDEST PUSH1 0x40 MLOAD DUP1 SWAP2 SUB SWAP1 REVERT JUMPDEST PUSH1 0x4 PUSH1 0x0 SWAP1 SLOAD SWAP1 PUSH2 0x100 EXP SWAP1 DIV PUSH1 0xFF AND PUSH2 0x1B52 JUMPI PUSH1 0x40 MLOAD PUSH32 0x8C379A000000000000000000000000000000000000000000000000000000000 DUP2 MSTORE PUSH1 0x4 ADD PUSH2 0x1B49 SWAP1 PUSH2 0x37AA JUMP JUMPDEST PUSH1 0x40 MLOAD DUP1 SWAP2 SUB SWAP1 REVERT JUMPDEST PUSH1 0x0 PUSH32 0x0 SWAP1 POP DUP1 PUSH20 0xFFFFFFFFFFFFFFFFFFFFFFFFFFFFFFFFFFFFFFFF AND PUSH4 0xB187BD26 PUSH1 0x40 MLOAD DUP2 PUSH4 0xFFFFFFFF AND PUSH1 0xE0 SHL DUP2 MSTORE PUSH1 0x4 ADD PUSH1 0x20 PUSH1 0x40 MLOAD DUP1 DUP4 SUB DUP2 DUP7 GAS STATICCALL ISZERO DUP1 ISZERO PUSH2 0x1BC2 JUMPI RETURNDATASIZE PUSH1 0x0 DUP1 RETURNDATACOPY RETURNDATASIZE PUSH1 0x0 REVERT JUMPDEST POP POP POP POP PUSH1 0x40 MLOAD RETURNDATASIZE PUSH1 0x1F NOT PUSH1 0x1F DUP3 ADD AND DUP3 ADD DUP1 PUSH1 0x40 MSTORE POP DUP2 ADD SWAP1 PUSH2 0x1BE6 SWAP2 SWAP1 PUSH2 0x37DF JUMP JUMPDEST ISZERO PUSH2 0x1C26 JUMPI PUSH1 0x40 MLOAD PUSH32 0x8C379A000000000000000000000000000000000000000000000000000000000 DUP2 MSTORE PUSH1 0x4 ADD PUSH2 0x1C1D SWAP1 PUSH2 0x387E JUMP JUMPDEST PUSH1 0x40 MLOAD DUP1 SWAP2 SUB SWAP1 REVERT JUMPDEST PUSH1 0x2 PUSH1 0x8 PUSH1 0x1 SWAP1 SLOAD SWAP1 PUSH2 0x100 EXP SWAP1 DIV PUSH1 0xFF AND PUSH1 0x2 DUP2 GT ISZERO PUSH2 0x1C4A JUMPI PUSH2 0x1C49 PUSH2 0x3287 JUMP JUMPDEST JUMPDEST DUP2 PUSH1 0x2 DUP2 GT ISZERO PUSH2 0x1C5D JUMPI PUSH2 0x1C5C PUSH2 0x3287 JUMP JUMPDEST JUMPDEST EQ PUSH2 0x1C9D JUMPI PUSH1 0x40 MLOAD PUSH32 0x8C379A000000000000000000000000000000000000000000000000000000000 DUP2 MSTORE PUSH1 0x4 ADD PUSH2 0x1C94 SWAP1 PUSH2 0x39A2 JUMP JUMPDEST PUSH1 0x40 MLOAD DUP1 SWAP2 SUB SWAP1 REVERT JUMPDEST PUSH2 0x1CA8 PUSH1 0x7 SLOAD PUSH2 0x26A9 JUMP JUMPDEST POP POP JUMP JUMPDEST PUSH32 0x0 DUP2 JUMP JUMPDEST TIMESTAMP PUSH1 0x3 SLOAD LT ISZERO DUP1 ISZERO PUSH2 0x1CE5 JUMPI POP PUSH1 0x7 SLOAD PUSH1 0x1 SLOAD LT JUMPDEST PUSH2 0x1D24 JUMPI PUSH1 0x40 MLOAD PUSH32 0x8C379A000000000000000000000000000000000000000000000000000000000 DUP2 MSTORE PUSH1 0x4 ADD PUSH2 0x1D1B SWAP1 PUSH2 0x373E JUMP JUMPDEST PUSH1 0x40 MLOAD DUP1 SWAP2 SUB SWAP1 REVERT JUMPDEST PUSH1 0x4 PUSH1 0x0 SWAP1 SLOAD SWAP1 PUSH2 0x100 EXP SWAP1 DIV PUSH1 0xFF AND PUSH2 0x1D73 JUMPI PUSH1 0x40 MLOAD PUSH32 0x8C379A000000000000000000000000000000000000000000000000000000000 DUP2 MSTORE PUSH1 0x4 ADD PUSH2 0x1D6A SWAP1 PUSH2 0x37AA JUMP JUMPDEST PUSH1 0x40 MLOAD DUP1 SWAP2 SUB SWAP1 REVERT JUMPDEST PUSH1 0x0 PUSH32 0x0 SWAP1 POP DUP1 PUSH20 0xFFFFFFFFFFFFFFFFFFFFFFFFFFFFFFFFFFFFFFFF AND PUSH4 0xB187BD26 PUSH1 0x40 MLOAD DUP2 PUSH4 0xFFFFFFFF AND PUSH1 0xE0 SHL DUP2 MSTORE PUSH1 0x4 ADD PUSH1 0x20 PUSH1 0x40 MLOAD DUP1 DUP4 SUB DUP2 DUP7 GAS STATICCALL ISZERO DUP1 ISZERO PUSH2 0x1DE3 JUMPI RETURNDATASIZE PUSH1 0x0 DUP1 RETURNDATACOPY RETURNDATASIZE PUSH1 0x0 REVERT JUMPDEST POP POP POP POP PUSH1 0x40 MLOAD RETURNDATASIZE PUSH1 0x1F NOT PUSH1 0x1F DUP3 ADD AND DUP3 ADD DUP1 PUSH1 0x40 MSTORE POP DUP2 ADD SWAP1 PUSH2 0x1E07 SWAP2 SWAP1 PUSH2 0x37DF JUMP JUMPDEST ISZERO PUSH2 0x1E47 JUMPI PUSH1 0x40 MLOAD PUSH32 0x8C379A000000000000000000000000000000000000000000000000000000000 DUP2 MSTORE PUSH1 0x4 ADD PUSH2 0x1E3E SWAP1 PUSH2 0x387E JUMP JUMPDEST PUSH1 0x40 MLOAD DUP1 SWAP2 SUB SWAP1 REVERT JUMPDEST PUSH1 0x1 PUSH1 0x8 PUSH1 0x1 SWAP1 SLOAD SWAP1 PUSH2 0x100 EXP SWAP1 DIV PUSH1 0xFF AND PUSH1 0x2 DUP2 GT ISZERO PUSH2 0x1E6B JUMPI PUSH2 0x1E6A PUSH2 0x3287 JUMP JUMPDEST JUMPDEST DUP2 PUSH1 0x2 DUP2 GT ISZERO PUSH2 0x1E7E JUMPI PUSH2 0x1E7D PUSH2 0x3287 JUMP JUMPDEST JUMPDEST EQ PUSH2 0x1EBE JUMPI PUSH1 0x40 MLOAD PUSH32 0x8C379A000000000000000000000000000000000000000000000000000000000 DUP2 MSTORE PUSH1 0x4 ADD PUSH2 0x1EB5 SWAP1 PUSH2 0x39A2 JUMP JUMPDEST PUSH1 0x40 MLOAD DUP1 SWAP2 SUB SWAP1 REVERT JUMPDEST PUSH2 0x1EC9 PUSH1 0x7 SLOAD PUSH2 0x2C5F JUMP JUMPDEST POP POP JUMP JUMPDEST PUSH1 0x0 PUSH1 0x4 PUSH1 0x0 SWAP1 SLOAD SWAP1 PUSH2 0x100 EXP SWAP1 DIV PUSH1 0xFF AND PUSH2 0x1F1E JUMPI PUSH1 0x40 MLOAD PUSH32 0x8C379A000000000000000000000000000000000000000000000000000000000 DUP2 MSTORE PUSH1 0x4 ADD PUSH2 0x1F15 SWAP1 PUSH2 0x37AA JUMP JUMPDEST PUSH1 0x40 MLOAD DUP1 SWAP2 SUB SWAP1 REVERT JUMPDEST PUSH2 0x1F27 DUP3 PUSH2 0x3054 JUMP JUMPDEST SWAP1 POP SWAP2 SWAP1 POP JUMP JUMPDEST PUSH1 0x60 DUP1 PUSH1 0x60 PUSH1 0x4 PUSH1 0x0 SWAP1 SLOAD SWAP1 PUSH2 0x100 EXP SWAP1 DIV PUSH1 0xFF AND PUSH2 0x1F82 JUMPI PUSH1 0x40 MLOAD PUSH32 0x8C379A000000000000000000000000000000000000000000000000000000000 DUP2 MSTORE PUSH1 0x4 ADD PUSH2 0x1F79 SWAP1 PUSH2 0x37AA JUMP JUMPDEST PUSH1 0x40 MLOAD DUP1 SWAP2 SUB SWAP1 REVERT JUMPDEST PUSH1 0x0 PUSH1 0x9 DUP1 SLOAD SWAP1 POP PUSH8 0xFFFFFFFFFFFFFFFF DUP2 GT ISZERO PUSH2 0x1FA3 JUMPI PUSH2 0x1FA2 PUSH2 0x3D1D JUMP JUMPDEST JUMPDEST PUSH1 0x40 MLOAD SWAP1 DUP1 DUP3 MSTORE DUP1 PUSH1 0x20 MUL PUSH1 0x20 ADD DUP3 ADD PUSH1 0x40 MSTORE DUP1 ISZERO PUSH2 0x1FD1 JUMPI DUP2 PUSH1 0x20 ADD PUSH1 0x20 DUP3 MUL DUP1 CALLDATASIZE DUP4 CALLDATACOPY DUP1 DUP3 ADD SWAP2 POP POP SWAP1 POP JUMPDEST POP SWAP1 POP PUSH1 0x0 PUSH1 0x9 DUP1 SLOAD SWAP1 POP PUSH8 0xFFFFFFFFFFFFFFFF DUP2 GT ISZERO PUSH2 0x1FF5 JUMPI PUSH2 0x1FF4 PUSH2 0x3D1D JUMP JUMPDEST JUMPDEST PUSH1 0x40 MLOAD SWAP1 DUP1 DUP3 MSTORE DUP1 PUSH1 0x20 MUL PUSH1 0x20 ADD DUP3 ADD PUSH1 0x40 MSTORE DUP1 ISZERO PUSH2 0x2023 JUMPI DUP2 PUSH1 0x20 ADD PUSH1 0x20 DUP3 MUL DUP1 CALLDATASIZE DUP4 CALLDATACOPY DUP1 DUP3 ADD SWAP2 POP POP SWAP1 POP JUMPDEST POP SWAP1 POP PUSH1 0x0 PUSH1 0x9 DUP1 SLOAD SWAP1 POP PUSH8 0xFFFFFFFFFFFFFFFF DUP2 GT ISZERO PUSH2 0x2047 JUMPI PUSH2 0x2046 PUSH2 0x3D1D JUMP JUMPDEST JUMPDEST PUSH1 0x40 MLOAD SWAP1 DUP1 DUP3 MSTORE DUP1 PUSH1 0x20 MUL PUSH1 0x20 ADD DUP3 ADD PUSH1 0x40 MSTORE DUP1 ISZERO PUSH2 0x2075 JUMPI DUP2 PUSH1 0x20 ADD PUSH1 0x20 DUP3 MUL DUP1 CALLDATASIZE DUP4 CALLDATACOPY DUP1 DUP3 ADD SWAP2 POP POP SWAP1 POP JUMPDEST POP SWAP1 POP PUSH1 0x0 JUMPDEST PUSH1 0x9 DUP1 SLOAD SWAP1 POP DUP2 LT ISZERO PUSH2 0x21B8 JUMPI PUSH1 0x9 DUP2 DUP2 SLOAD DUP2 LT PUSH2 0x209C JUMPI PUSH2 0x209B PUSH2 0x3D4C JUMP JUMPDEST JUMPDEST SWAP1 PUSH1 0x0 MSTORE PUSH1 0x20 PUSH1 0x0 KECCAK256 SWAP1 PUSH1 0x3 MUL ADD PUSH1 0x0 ADD PUSH1 0x0 SWAP1 SLOAD SWAP1 PUSH2 0x100 EXP SWAP1 DIV PUSH20 0xFFFFFFFFFFFFFFFFFFFFFFFFFFFFFFFFFFFFFFFF AND DUP5 DUP3 DUP2 MLOAD DUP2 LT PUSH2 0x20E1 JUMPI PUSH2 0x20E0 PUSH2 0x3D4C JUMP JUMPDEST JUMPDEST PUSH1 0x20 MUL PUSH1 0x20 ADD ADD SWAP1 PUSH20 0xFFFFFFFFFFFFFFFFFFFFFFFFFFFFFFFFFFFFFFFF AND SWAP1 DUP2 PUSH20 0xFFFFFFFFFFFFFFFFFFFFFFFFFFFFFFFFFFFFFFFF AND DUP2 MSTORE POP POP PUSH1 0x9 DUP2 DUP2 SLOAD DUP2 LT PUSH2 0x212F JUMPI PUSH2 0x212E PUSH2 0x3D4C JUMP JUMPDEST JUMPDEST SWAP1 PUSH1 0x0 MSTORE PUSH1 0x20 PUSH1 0x0 KECCAK256 SWAP1 PUSH1 0x3 MUL ADD PUSH1 0x1 ADD SLOAD DUP4 DUP3 DUP2 MLOAD DUP2 LT PUSH2 0x2154 JUMPI PUSH2 0x2153 PUSH2 0x3D4C JUMP JUMPDEST JUMPDEST PUSH1 0x20 MUL PUSH1 0x20 ADD ADD DUP2 DUP2 MSTORE POP POP PUSH1 0x9 DUP2 DUP2 SLOAD DUP2 LT PUSH2 0x2174 JUMPI PUSH2 0x2173 PUSH2 0x3D4C JUMP JUMPDEST JUMPDEST SWAP1 PUSH1 0x0 MSTORE PUSH1 0x20 PUSH1 0x0 KECCAK256 SWAP1 PUSH1 0x3 MUL ADD PUSH1 0x2 ADD SLOAD DUP3 DUP3 DUP2 MLOAD DUP2 LT PUSH2 0x2199 JUMPI PUSH2 0x2198 PUSH2 0x3D4C JUMP JUMPDEST JUMPDEST PUSH1 0x20 MUL PUSH1 0x20 ADD ADD DUP2 DUP2 MSTORE POP POP DUP1 DUP1 PUSH2 0x21B0 SWAP1 PUSH2 0x3DAA JUMP JUMPDEST SWAP2 POP POP PUSH2 0x207B JUMP JUMPDEST POP DUP3 DUP3 DUP3 SWAP6 POP SWAP6 POP SWAP6 POP POP POP POP SWAP1 SWAP2 SWAP3 JUMP JUMPDEST PUSH2 0x21D2 PUSH2 0x2A21 JUMP JUMPDEST PUSH20 0xFFFFFFFFFFFFFFFFFFFFFFFFFFFFFFFFFFFFFFFF AND PUSH2 0x21F0 PUSH2 0x17E9 JUMP JUMPDEST PUSH20 0xFFFFFFFFFFFFFFFFFFFFFFFFFFFFFFFFFFFFFFFF AND EQ PUSH2 0x2246 JUMPI PUSH1 0x40 MLOAD PUSH32 0x8C379A000000000000000000000000000000000000000000000000000000000 DUP2 MSTORE PUSH1 0x4 ADD PUSH2 0x223D SWAP1 PUSH2 0x3A7A JUMP JUMPDEST PUSH1 0x40 MLOAD DUP1 SWAP2 SUB SWAP1 REVERT JUMPDEST PUSH1 0x0 PUSH20 0xFFFFFFFFFFFFFFFFFFFFFFFFFFFFFFFFFFFFFFFF AND DUP2 PUSH20 0xFFFFFFFFFFFFFFFFFFFFFFFFFFFFFFFFFFFFFFFF AND SUB PUSH2 0x22B5 JUMPI PUSH1 0x40 MLOAD PUSH32 0x8C379A000000000000000000000000000000000000000000000000000000000 DUP2 MSTORE PUSH1 0x4 ADD PUSH2 0x22AC SWAP1 PUSH2 0x3E64 JUMP JUMPDEST PUSH1 0x40 MLOAD DUP1 SWAP2 SUB SWAP1 REVERT JUMPDEST PUSH2 0x22BE DUP2 PUSH2 0x2F90 JUMP JUMPDEST POP JUMP JUMPDEST DUP1 PUSH1 0x5 PUSH1 0x0 SWAP1 SLOAD SWAP1 PUSH2 0x100 EXP SWAP1 DIV PUSH20 0xFFFFFFFFFFFFFFFFFFFFFFFFFFFFFFFFFFFFFFFF AND PUSH20 0xFFFFFFFFFFFFFFFFFFFFFFFFFFFFFFFFFFFFFFFF AND PUSH4 0x70A08231 CALLER PUSH1 0x40 MLOAD DUP3 PUSH4 0xFFFFFFFF AND PUSH1 0xE0 SHL DUP2 MSTORE PUSH1 0x4 ADD PUSH2 0x231D SWAP2 SWAP1 PUSH2 0x34D5 JUMP JUMPDEST PUSH1 0x20 PUSH1 0x40 MLOAD DUP1 DUP4 SUB DUP2 DUP7 GAS STATICCALL ISZERO DUP1 ISZERO PUSH2 0x233A JUMPI RETURNDATASIZE PUSH1 0x0 DUP1 RETURNDATACOPY RETURNDATASIZE PUSH1 0x0 REVERT JUMPDEST POP POP POP POP PUSH1 0x40 MLOAD RETURNDATASIZE PUSH1 0x1F NOT PUSH1 0x1F DUP3 ADD AND DUP3 ADD DUP1 PUSH1 0x40 MSTORE POP DUP2 ADD SWAP1 PUSH2 0x235E SWAP2 SWAP1 PUSH2 0x3AAF JUMP JUMPDEST LT ISZERO PUSH2 0x239F JUMPI PUSH1 0x40 MLOAD PUSH32 0x8C379A000000000000000000000000000000000000000000000000000000000 DUP2 MSTORE PUSH1 0x4 ADD PUSH2 0x2396 SWAP1 PUSH2 0x3EF6 JUMP JUMPDEST PUSH1 0x40 MLOAD DUP1 SWAP2 SUB SWAP1 REVERT JUMPDEST PUSH1 0x0 PUSH2 0x23AA DUP3 PUSH2 0x3054 JUMP JUMPDEST SWAP1 POP PUSH1 0x0 PUSH1 0x2 PUSH1 0x0 SWAP1 SLOAD SWAP1 PUSH2 0x100 EXP SWAP1 DIV PUSH20 0xFFFFFFFFFFFFFFFFFFFFFFFFFFFFFFFFFFFFFFFF AND SWAP1 POP DUP2 DUP2 PUSH20 0xFFFFFFFFFFFFFFFFFFFFFFFFFFFFFFFFFFFFFFFF AND PUSH4 0x70A08231 ADDRESS PUSH1 0x40 MLOAD DUP3 PUSH4 0xFFFFFFFF AND PUSH1 0xE0 SHL DUP2 MSTORE PUSH1 0x4 ADD PUSH2 0x240D SWAP2 SWAP1 PUSH2 0x34D5 JUMP JUMPDEST PUSH1 0x20 PUSH1 0x40 MLOAD DUP1 DUP4 SUB DUP2 DUP7 GAS STATICCALL ISZERO DUP1 ISZERO PUSH2 0x242A JUMPI RETURNDATASIZE PUSH1 0x0 DUP1 RETURNDATACOPY RETURNDATASIZE PUSH1 0x0 REVERT JUMPDEST POP POP POP POP PUSH1 0x40 MLOAD RETURNDATASIZE PUSH1 0x1F NOT PUSH1 0x1F DUP3 ADD AND DUP3 ADD DUP1 PUSH1 0x40 MSTORE POP DUP2 ADD SWAP1 PUSH2 0x244E SWAP2 SWAP1 PUSH2 0x3AAF JUMP JUMPDEST LT ISZERO PUSH2 0x248F JUMPI PUSH1 0x40 MLOAD PUSH32 0x8C379A000000000000000000000000000000000000000000000000000000000 DUP2 MSTORE PUSH1 0x4 ADD PUSH2 0x2486 SWAP1 PUSH2 0x3F88 JUMP JUMPDEST PUSH1 0x40 MLOAD DUP1 SWAP2 SUB SWAP1 REVERT JUMPDEST PUSH1 0x2 PUSH1 0x0 SWAP1 SLOAD SWAP1 PUSH2 0x100 EXP SWAP1 DIV PUSH20 0xFFFFFFFFFFFFFFFFFFFFFFFFFFFFFFFFFFFFFFFF AND PUSH20 0xFFFFFFFFFFFFFFFFFFFFFFFFFFFFFFFFFFFFFFFF AND PUSH4 0x2E1A7D4D DUP4 PUSH1 0x40 MLOAD DUP3 PUSH4 0xFFFFFFFF AND PUSH1 0xE0 SHL DUP2 MSTORE PUSH1 0x4 ADD PUSH2 0x24EA SWAP2 SWAP1 PUSH2 0x34AB JUMP JUMPDEST PUSH1 0x0 PUSH1 0x40 MLOAD DUP1 DUP4 SUB DUP2 PUSH1 0x0 DUP8 DUP1 EXTCODESIZE ISZERO DUP1 ISZERO PUSH2 0x2504 JUMPI PUSH1 0x0 DUP1 REVERT JUMPDEST POP GAS CALL ISZERO DUP1 ISZERO PUSH2 0x2518 JUMPI RETURNDATASIZE PUSH1 0x0 DUP1 RETURNDATACOPY RETURNDATASIZE PUSH1 0x0 REVERT JUMPDEST POP POP POP POP PUSH2 0x254A PUSH1 0x5 PUSH1 0x0 SWAP1 SLOAD SWAP1 PUSH2 0x100 EXP SWAP1 DIV PUSH20 0xFFFFFFFFFFFFFFFFFFFFFFFFFFFFFFFFFFFFFFFF AND CALLER ADDRESS DUP7 PUSH2 0x3078 JUMP JUMPDEST PUSH2 0x2554 CALLER DUP4 PUSH2 0x2A29 JUMP JUMPDEST PUSH1 0x9 PUSH1 0x40 MLOAD DUP1 PUSH1 0x60 ADD PUSH1 0x40 MSTORE DUP1 CALLER PUSH20 0xFFFFFFFFFFFFFFFFFFFFFFFFFFFFFFFFFFFFFFFF AND DUP2 MSTORE PUSH1 0x20 ADD DUP6 DUP2 MSTORE PUSH1 0x20 ADD DUP5 DUP2 MSTORE POP SWAP1 DUP1 PUSH1 0x1 DUP2 SLOAD ADD DUP1 DUP3 SSTORE DUP1 SWAP2 POP POP PUSH1 0x1 SWAP1 SUB SWAP1 PUSH1 0x0 MSTORE PUSH1 0x20 PUSH1 0x0 KECCAK256 SWAP1 PUSH1 0x3 MUL ADD PUSH1 0x0 SWAP1 SWAP2 SWAP1 SWAP2 SWAP1 SWAP2 POP PUSH1 0x0 DUP3 ADD MLOAD DUP2 PUSH1 0x0 ADD PUSH1 0x0 PUSH2 0x100 EXP DUP2 SLOAD DUP2 PUSH20 0xFFFFFFFFFFFFFFFFFFFFFFFFFFFFFFFFFFFFFFFF MUL NOT AND SWAP1 DUP4 PUSH20 0xFFFFFFFFFFFFFFFFFFFFFFFFFFFFFFFFFFFFFFFF AND MUL OR SWAP1 SSTORE POP PUSH1 0x20 DUP3 ADD MLOAD DUP2 PUSH1 0x1 ADD SSTORE PUSH1 0x40 DUP3 ADD MLOAD DUP2 PUSH1 0x2 ADD SSTORE POP POP PUSH1 0x0 PUSH32 0x0 SWAP1 POP DUP1 PUSH20 0xFFFFFFFFFFFFFFFFFFFFFFFFFFFFFFFFFFFFFFFF AND PUSH4 0xF52701B7 ADDRESS CALLER DUP8 DUP8 PUSH1 0x40 MLOAD DUP6 PUSH4 0xFFFFFFFF AND PUSH1 0xE0 SHL DUP2 MSTORE PUSH1 0x4 ADD PUSH2 0x2671 SWAP5 SWAP4 SWAP3 SWAP2 SWAP1 PUSH2 0x3ADC JUMP JUMPDEST PUSH1 0x0 PUSH1 0x40 MLOAD DUP1 DUP4 SUB DUP2 PUSH1 0x0 DUP8 DUP1 EXTCODESIZE ISZERO DUP1 ISZERO PUSH2 0x268B JUMPI PUSH1 0x0 DUP1 REVERT JUMPDEST POP GAS CALL ISZERO DUP1 ISZERO PUSH2 0x269F JUMPI RETURNDATASIZE PUSH1 0x0 DUP1 RETURNDATACOPY RETURNDATASIZE PUSH1 0x0 REVERT JUMPDEST POP POP POP POP POP POP POP POP JUMP JUMPDEST DUP1 PUSH1 0x5 PUSH1 0x0 SWAP1 SLOAD SWAP1 PUSH2 0x100 EXP SWAP1 DIV PUSH20 0xFFFFFFFFFFFFFFFFFFFFFFFFFFFFFFFFFFFFFFFF AND PUSH20 0xFFFFFFFFFFFFFFFFFFFFFFFFFFFFFFFFFFFFFFFF AND PUSH4 0x70A08231 CALLER PUSH1 0x40 MLOAD DUP3 PUSH4 0xFFFFFFFF AND PUSH1 0xE0 SHL DUP2 MSTORE PUSH1 0x4 ADD PUSH2 0x2705 SWAP2 SWAP1 PUSH2 0x34D5 JUMP JUMPDEST PUSH1 0x20 PUSH1 0x40 MLOAD DUP1 DUP4 SUB DUP2 DUP7 GAS STATICCALL ISZERO DUP1 ISZERO PUSH2 0x2722 JUMPI RETURNDATASIZE PUSH1 0x0 DUP1 RETURNDATACOPY RETURNDATASIZE PUSH1 0x0 REVERT JUMPDEST POP POP POP POP PUSH1 0x40 MLOAD RETURNDATASIZE PUSH1 0x1F NOT PUSH1 0x1F DUP3 ADD AND DUP3 ADD DUP1 PUSH1 0x40 MSTORE POP DUP2 ADD SWAP1 PUSH2 0x2746 SWAP2 SWAP1 PUSH2 0x3AAF JUMP JUMPDEST LT ISZERO PUSH2 0x2787 JUMPI PUSH1 0x40 MLOAD PUSH32 0x8C379A000000000000000000000000000000000000000000000000000000000 DUP2 MSTORE PUSH1 0x4 ADD PUSH2 0x277E SWAP1 PUSH2 0x3EF6 JUMP JUMPDEST PUSH1 0x40 MLOAD DUP1 SWAP2 SUB SWAP1 REVERT JUMPDEST PUSH1 0x0 PUSH2 0x2792 DUP3 PUSH2 0x3054 JUMP JUMPDEST SWAP1 POP DUP1 PUSH1 0x4 PUSH1 0x1 SWAP1 SLOAD SWAP1 PUSH2 0x100 EXP SWAP1 DIV PUSH20 0xFFFFFFFFFFFFFFFFFFFFFFFFFFFFFFFFFFFFFFFF AND PUSH20 0xFFFFFFFFFFFFFFFFFFFFFFFFFFFFFFFFFFFFFFFF AND PUSH4 0x70A08231 ADDRESS PUSH1 0x40 MLOAD DUP3 PUSH4 0xFFFFFFFF AND PUSH1 0xE0 SHL DUP2 MSTORE PUSH1 0x4 ADD PUSH2 0x27F0 SWAP2 SWAP1 PUSH2 0x34D5 JUMP JUMPDEST PUSH1 0x20 PUSH1 0x40 MLOAD DUP1 DUP4 SUB DUP2 DUP7 GAS STATICCALL ISZERO DUP1 ISZERO PUSH2 0x280D JUMPI RETURNDATASIZE PUSH1 0x0 DUP1 RETURNDATACOPY RETURNDATASIZE PUSH1 0x0 REVERT JUMPDEST POP POP POP POP PUSH1 0x40 MLOAD RETURNDATASIZE PUSH1 0x1F NOT PUSH1 0x1F DUP3 ADD AND DUP3 ADD DUP1 PUSH1 0x40 MSTORE POP DUP2 ADD SWAP1 PUSH2 0x2831 SWAP2 SWAP1 PUSH2 0x3AAF JUMP JUMPDEST LT ISZERO PUSH2 0x2872 JUMPI PUSH1 0x40 MLOAD PUSH32 0x8C379A000000000000000000000000000000000000000000000000000000000 DUP2 MSTORE PUSH1 0x4 ADD PUSH2 0x2869 SWAP1 PUSH2 0x3F88 JUMP JUMPDEST PUSH1 0x40 MLOAD DUP1 SWAP2 SUB SWAP1 REVERT JUMPDEST PUSH2 0x28A0 PUSH1 0x5 PUSH1 0x0 SWAP1 SLOAD SWAP1 PUSH2 0x100 EXP SWAP1 DIV PUSH20 0xFFFFFFFFFFFFFFFFFFFFFFFFFFFFFFFFFFFFFFFF AND CALLER ADDRESS DUP6 PUSH2 0x3078 JUMP JUMPDEST PUSH2 0x28CD PUSH1 0x4 PUSH1 0x1 SWAP1 SLOAD SWAP1 PUSH2 0x100 EXP SWAP1 DIV PUSH20 0xFFFFFFFFFFFFFFFFFFFFFFFFFFFFFFFFFFFFFFFF AND CALLER DUP4 PUSH2 0x2B29 JUMP JUMPDEST PUSH1 0x9 PUSH1 0x40 MLOAD DUP1 PUSH1 0x60 ADD PUSH1 0x40 MSTORE DUP1 CALLER PUSH20 0xFFFFFFFFFFFFFFFFFFFFFFFFFFFFFFFFFFFFFFFF AND DUP2 MSTORE PUSH1 0x20 ADD DUP5 DUP2 MSTORE PUSH1 0x20 ADD DUP4 DUP2 MSTORE POP SWAP1 DUP1 PUSH1 0x1 DUP2 SLOAD ADD DUP1 DUP3 SSTORE DUP1 SWAP2 POP POP PUSH1 0x1 SWAP1 SUB SWAP1 PUSH1 0x0 MSTORE PUSH1 0x20 PUSH1 0x0 KECCAK256 SWAP1 PUSH1 0x3 MUL ADD PUSH1 0x0 SWAP1 SWAP2 SWAP1 SWAP2 SWAP1 SWAP2 POP PUSH1 0x0 DUP3 ADD MLOAD DUP2 PUSH1 0x0 ADD PUSH1 0x0 PUSH2 0x100 EXP DUP2 SLOAD DUP2 PUSH20 0xFFFFFFFFFFFFFFFFFFFFFFFFFFFFFFFFFFFFFFFF MUL NOT AND SWAP1 DUP4 PUSH20 0xFFFFFFFFFFFFFFFFFFFFFFFFFFFFFFFFFFFFFFFF AND MUL OR SWAP1 SSTORE POP PUSH1 0x20 DUP3 ADD MLOAD DUP2 PUSH1 0x1 ADD SSTORE PUSH1 0x40 DUP3 ADD MLOAD DUP2 PUSH1 0x2 ADD SSTORE POP POP PUSH1 0x0 PUSH32 0x0 SWAP1 POP DUP1 PUSH20 0xFFFFFFFFFFFFFFFFFFFFFFFFFFFFFFFFFFFFFFFF AND PUSH4 0xF52701B7 ADDRESS CALLER DUP7 DUP7 PUSH1 0x40 MLOAD DUP6 PUSH4 0xFFFFFFFF AND PUSH1 0xE0 SHL DUP2 MSTORE PUSH1 0x4 ADD PUSH2 0x29EA SWAP5 SWAP4 SWAP3 SWAP2 SWAP1 PUSH2 0x3ADC JUMP JUMPDEST PUSH1 0x0 PUSH1 0x40 MLOAD DUP1 DUP4 SUB DUP2 PUSH1 0x0 DUP8 DUP1 EXTCODESIZE ISZERO DUP1 ISZERO PUSH2 0x2A04 JUMPI PUSH1 0x0 DUP1 REVERT JUMPDEST POP GAS CALL ISZERO DUP1 ISZERO PUSH2 0x2A18 JUMPI RETURNDATASIZE PUSH1 0x0 DUP1 RETURNDATACOPY RETURNDATASIZE PUSH1 0x0 REVERT JUMPDEST POP POP POP POP POP POP POP JUMP JUMPDEST PUSH1 0x0 CALLER SWAP1 POP SWAP1 JUMP JUMPDEST PUSH1 0x0 DUP3 PUSH20 0xFFFFFFFFFFFFFFFFFFFFFFFFFFFFFFFFFFFFFFFF AND DUP3 PUSH1 0x0 PUSH8 0xFFFFFFFFFFFFFFFF DUP2 GT ISZERO PUSH2 0x2A5E JUMPI PUSH2 0x2A5D PUSH2 0x3D1D JUMP JUMPDEST JUMPDEST PUSH1 0x40 MLOAD SWAP1 DUP1 DUP3 MSTORE DUP1 PUSH1 0x1F ADD PUSH1 0x1F NOT AND PUSH1 0x20 ADD DUP3 ADD PUSH1 0x40 MSTORE DUP1 ISZERO PUSH2 0x2A90 JUMPI DUP2 PUSH1 0x20 ADD PUSH1 0x1 DUP3 MUL DUP1 CALLDATASIZE DUP4 CALLDATACOPY DUP1 DUP3 ADD SWAP2 POP POP SWAP1 POP JUMPDEST POP PUSH1 0x40 MLOAD PUSH2 0x2A9E SWAP2 SWAP1 PUSH2 0x4022 JUMP JUMPDEST PUSH1 0x0 PUSH1 0x40 MLOAD DUP1 DUP4 SUB DUP2 DUP6 DUP8 GAS CALL SWAP3 POP POP POP RETURNDATASIZE DUP1 PUSH1 0x0 DUP2 EQ PUSH2 0x2ADB JUMPI PUSH1 0x40 MLOAD SWAP2 POP PUSH1 0x1F NOT PUSH1 0x3F RETURNDATASIZE ADD AND DUP3 ADD PUSH1 0x40 MSTORE RETURNDATASIZE DUP3 MSTORE RETURNDATASIZE PUSH1 0x0 PUSH1 0x20 DUP5 ADD RETURNDATACOPY PUSH2 0x2AE0 JUMP JUMPDEST PUSH1 0x60 SWAP2 POP JUMPDEST POP POP SWAP1 POP DUP1 PUSH2 0x2B24 JUMPI PUSH1 0x40 MLOAD PUSH32 0x8C379A000000000000000000000000000000000000000000000000000000000 DUP2 MSTORE PUSH1 0x4 ADD PUSH2 0x2B1B SWAP1 PUSH2 0x40AB JUMP JUMPDEST PUSH1 0x40 MLOAD DUP1 SWAP2 SUB SWAP1 REVERT JUMPDEST POP POP POP JUMP JUMPDEST PUSH1 0x0 DUP1 DUP5 PUSH20 0xFFFFFFFFFFFFFFFFFFFFFFFFFFFFFFFFFFFFFFFF AND PUSH4 0xA9059CBB DUP6 DUP6 PUSH1 0x40 MLOAD PUSH1 0x24 ADD PUSH2 0x2B5B SWAP3 SWAP2 SWAP1 PUSH2 0x40CB JUMP JUMPDEST PUSH1 0x40 MLOAD PUSH1 0x20 DUP2 DUP4 SUB SUB DUP2 MSTORE SWAP1 PUSH1 0x40 MSTORE SWAP1 PUSH1 0xE0 SHL PUSH1 0x20 DUP3 ADD DUP1 MLOAD PUSH28 0xFFFFFFFFFFFFFFFFFFFFFFFFFFFFFFFFFFFFFFFFFFFFFFFFFFFFFFFF DUP4 DUP2 DUP4 AND OR DUP4 MSTORE POP POP POP POP PUSH1 0x40 MLOAD PUSH2 0x2BA9 SWAP2 SWAP1 PUSH2 0x4022 JUMP JUMPDEST PUSH1 0x0 PUSH1 0x40 MLOAD DUP1 DUP4 SUB DUP2 PUSH1 0x0 DUP7 GAS CALL SWAP2 POP POP RETURNDATASIZE DUP1 PUSH1 0x0 DUP2 EQ PUSH2 0x2BE6 JUMPI PUSH1 0x40 MLOAD SWAP2 POP PUSH1 0x1F NOT PUSH1 0x3F RETURNDATASIZE ADD AND DUP3 ADD PUSH1 0x40 MSTORE RETURNDATASIZE DUP3 MSTORE RETURNDATASIZE PUSH1 0x0 PUSH1 0x20 DUP5 ADD RETURNDATACOPY PUSH2 0x2BEB JUMP JUMPDEST PUSH1 0x60 SWAP2 POP JUMPDEST POP SWAP2 POP SWAP2 POP DUP2 DUP1 ISZERO PUSH2 0x2C19 JUMPI POP PUSH1 0x0 DUP2 MLOAD EQ DUP1 PUSH2 0x2C18 JUMPI POP DUP1 DUP1 PUSH1 0x20 ADD SWAP1 MLOAD DUP2 ADD SWAP1 PUSH2 0x2C17 SWAP2 SWAP1 PUSH2 0x37DF JUMP JUMPDEST JUMPDEST JUMPDEST PUSH2 0x2C58 JUMPI PUSH1 0x40 MLOAD PUSH32 0x8C379A000000000000000000000000000000000000000000000000000000000 DUP2 MSTORE PUSH1 0x4 ADD PUSH2 0x2C4F SWAP1 PUSH2 0x4140 JUMP JUMPDEST PUSH1 0x40 MLOAD DUP1 SWAP2 SUB SWAP1 REVERT JUMPDEST POP POP POP POP POP JUMP JUMPDEST CALLVALUE DUP2 EQ PUSH2 0x2CA1 JUMPI PUSH1 0x40 MLOAD PUSH32 0x8C379A000000000000000000000000000000000000000000000000000000000 DUP2 MSTORE PUSH1 0x4 ADD PUSH2 0x2C98 SWAP1 PUSH2 0x3910 JUMP JUMPDEST PUSH1 0x40 MLOAD DUP1 SWAP2 SUB SWAP1 REVERT JUMPDEST PUSH1 0x0 PUSH2 0x2CAC DUP3 PUSH2 0x3054 JUMP JUMPDEST SWAP1 POP DUP1 PUSH1 0x4 PUSH1 0x1 SWAP1 SLOAD SWAP1 PUSH2 0x100 EXP SWAP1 DIV PUSH20 0xFFFFFFFFFFFFFFFFFFFFFFFFFFFFFFFFFFFFFFFF AND PUSH20 0xFFFFFFFFFFFFFFFFFFFFFFFFFFFFFFFFFFFFFFFF AND PUSH4 0x70A08231 ADDRESS PUSH1 0x40 MLOAD DUP3 PUSH4 0xFFFFFFFF AND PUSH1 0xE0 SHL DUP2 MSTORE PUSH1 0x4 ADD PUSH2 0x2D0A SWAP2 SWAP1 PUSH2 0x34D5 JUMP JUMPDEST PUSH1 0x20 PUSH1 0x40 MLOAD DUP1 DUP4 SUB DUP2 DUP7 GAS STATICCALL ISZERO DUP1 ISZERO PUSH2 0x2D27 JUMPI RETURNDATASIZE PUSH1 0x0 DUP1 RETURNDATACOPY RETURNDATASIZE PUSH1 0x0 REVERT JUMPDEST POP POP POP POP PUSH1 0x40 MLOAD RETURNDATASIZE PUSH1 0x1F NOT PUSH1 0x1F DUP3 ADD AND DUP3 ADD DUP1 PUSH1 0x40 MSTORE POP DUP2 ADD SWAP1 PUSH2 0x2D4B SWAP2 SWAP1 PUSH2 0x3AAF JUMP JUMPDEST LT ISZERO PUSH2 0x2D8C JUMPI PUSH1 0x40 MLOAD PUSH32 0x8C379A000000000000000000000000000000000000000000000000000000000 DUP2 MSTORE PUSH1 0x4 ADD PUSH2 0x2D83 SWAP1 PUSH2 0x3F88 JUMP JUMPDEST PUSH1 0x40 MLOAD DUP1 SWAP2 SUB SWAP1 REVERT JUMPDEST PUSH1 0x2 PUSH1 0x0 SWAP1 SLOAD SWAP1 PUSH2 0x100 EXP SWAP1 DIV PUSH20 0xFFFFFFFFFFFFFFFFFFFFFFFFFFFFFFFFFFFFFFFF AND PUSH20 0xFFFFFFFFFFFFFFFFFFFFFFFFFFFFFFFFFFFFFFFF AND PUSH4 0xD0E30DB0 DUP4 PUSH1 0x40 MLOAD DUP3 PUSH4 0xFFFFFFFF AND PUSH1 0xE0 SHL DUP2 MSTORE PUSH1 0x4 ADD PUSH1 0x0 PUSH1 0x40 MLOAD DUP1 DUP4 SUB DUP2 DUP6 DUP9 DUP1 EXTCODESIZE ISZERO DUP1 ISZERO PUSH2 0x2DF6 JUMPI PUSH1 0x0 DUP1 REVERT JUMPDEST POP GAS CALL ISZERO DUP1 ISZERO PUSH2 0x2E0A JUMPI RETURNDATASIZE PUSH1 0x0 DUP1 RETURNDATACOPY RETURNDATASIZE PUSH1 0x0 REVERT JUMPDEST POP POP POP POP POP PUSH2 0x2E3C PUSH1 0x4 PUSH1 0x1 SWAP1 SLOAD SWAP1 PUSH2 0x100 EXP SWAP1 DIV PUSH20 0xFFFFFFFFFFFFFFFFFFFFFFFFFFFFFFFFFFFFFFFF AND CALLER DUP4 PUSH2 0x2B29 JUMP JUMPDEST PUSH1 0x9 PUSH1 0x40 MLOAD DUP1 PUSH1 0x60 ADD PUSH1 0x40 MSTORE DUP1 CALLER PUSH20 0xFFFFFFFFFFFFFFFFFFFFFFFFFFFFFFFFFFFFFFFF AND DUP2 MSTORE PUSH1 0x20 ADD DUP5 DUP2 MSTORE PUSH1 0x20 ADD DUP4 DUP2 MSTORE POP SWAP1 DUP1 PUSH1 0x1 DUP2 SLOAD ADD DUP1 DUP3 SSTORE DUP1 SWAP2 POP POP PUSH1 0x1 SWAP1 SUB SWAP1 PUSH1 0x0 MSTORE PUSH1 0x20 PUSH1 0x0 KECCAK256 SWAP1 PUSH1 0x3 MUL ADD PUSH1 0x0 SWAP1 SWAP2 SWAP1 SWAP2 SWAP1 SWAP2 POP PUSH1 0x0 DUP3 ADD MLOAD DUP2 PUSH1 0x0 ADD PUSH1 0x0 PUSH2 0x100 EXP DUP2 SLOAD DUP2 PUSH20 0xFFFFFFFFFFFFFFFFFFFFFFFFFFFFFFFFFFFFFFFF MUL NOT AND SWAP1 DUP4 PUSH20 0xFFFFFFFFFFFFFFFFFFFFFFFFFFFFFFFFFFFFFFFF AND MUL OR SWAP1 SSTORE POP PUSH1 0x20 DUP3 ADD MLOAD DUP2 PUSH1 0x1 ADD SSTORE PUSH1 0x40 DUP3 ADD MLOAD DUP2 PUSH1 0x2 ADD SSTORE POP POP PUSH1 0x0 PUSH32 0x0 SWAP1 POP DUP1 PUSH20 0xFFFFFFFFFFFFFFFFFFFFFFFFFFFFFFFFFFFFFFFF AND PUSH4 0xF52701B7 ADDRESS CALLER DUP7 DUP7 PUSH1 0x40 MLOAD DUP6 PUSH4 0xFFFFFFFF AND PUSH1 0xE0 SHL DUP2 MSTORE PUSH1 0x4 ADD PUSH2 0x2F59 SWAP5 SWAP4 SWAP3 SWAP2 SWAP1 PUSH2 0x3ADC JUMP JUMPDEST PUSH1 0x0 PUSH1 0x40 MLOAD DUP1 DUP4 SUB DUP2 PUSH1 0x0 DUP8 DUP1 EXTCODESIZE ISZERO DUP1 ISZERO PUSH2 0x2F73 JUMPI PUSH1 0x0 DUP1 REVERT JUMPDEST POP GAS CALL ISZERO DUP1 ISZERO PUSH2 0x2F87 JUMPI RETURNDATASIZE PUSH1 0x0 DUP1 RETURNDATACOPY RETURNDATASIZE PUSH1 0x0 REVERT JUMPDEST POP POP POP POP POP POP POP JUMP JUMPDEST PUSH1 0x0 DUP1 PUSH1 0x0 SWAP1 SLOAD SWAP1 PUSH2 0x100 EXP SWAP1 DIV PUSH20 0xFFFFFFFFFFFFFFFFFFFFFFFFFFFFFFFFFFFFFFFF AND SWAP1 POP DUP2 PUSH1 0x0 DUP1 PUSH2 0x100 EXP DUP2 SLOAD DUP2 PUSH20 0xFFFFFFFFFFFFFFFFFFFFFFFFFFFFFFFFFFFFFFFF MUL NOT AND SWAP1 DUP4 PUSH20 0xFFFFFFFFFFFFFFFFFFFFFFFFFFFFFFFFFFFFFFFF AND MUL OR SWAP1 SSTORE POP DUP2 PUSH20 0xFFFFFFFFFFFFFFFFFFFFFFFFFFFFFFFFFFFFFFFF AND DUP2 PUSH20 0xFFFFFFFFFFFFFFFFFFFFFFFFFFFFFFFFFFFFFFFF AND PUSH32 0x8BE0079C531659141344CD1FD0A4F28419497F9722A3DAAFE3B4186F6B6457E0 PUSH1 0x40 MLOAD PUSH1 0x40 MLOAD DUP1 SWAP2 SUB SWAP1 LOG3 POP POP JUMP JUMPDEST PUSH1 0x0 PUSH1 0x7 SLOAD PUSH1 0x6 SLOAD DUP4 PUSH2 0x3067 SWAP2 SWAP1 PUSH2 0x4160 JUMP JUMPDEST PUSH2 0x3071 SWAP2 SWAP1 PUSH2 0x41E9 JUMP JUMPDEST SWAP1 POP SWAP2 SWAP1 POP JUMP JUMPDEST PUSH1 0x0 DUP1 DUP6 PUSH20 0xFFFFFFFFFFFFFFFFFFFFFFFFFFFFFFFFFFFFFFFF AND PUSH4 0x23B872DD DUP7 DUP7 DUP7 PUSH1 0x40 MLOAD PUSH1 0x24 ADD PUSH2 0x30AC SWAP4 SWAP3 SWAP2 SWAP1 PUSH2 0x421A JUMP JUMPDEST PUSH1 0x40 MLOAD PUSH1 0x20 DUP2 DUP4 SUB SUB DUP2 MSTORE SWAP1 PUSH1 0x40 MSTORE SWAP1 PUSH1 0xE0 SHL PUSH1 0x20 DUP3 ADD DUP1 MLOAD PUSH28 0xFFFFFFFFFFFFFFFFFFFFFFFFFFFFFFFFFFFFFFFFFFFFFFFFFFFFFFFF DUP4 DUP2 DUP4 AND OR DUP4 MSTORE POP POP POP POP PUSH1 0x40 MLOAD PUSH2 0x30FA SWAP2 SWAP1 PUSH2 0x4022 JUMP JUMPDEST PUSH1 0x0 PUSH1 0x40 MLOAD DUP1 DUP4 SUB DUP2 PUSH1 0x0 DUP7 GAS CALL SWAP2 POP POP RETURNDATASIZE DUP1 PUSH1 0x0 DUP2 EQ PUSH2 0x3137 JUMPI PUSH1 0x40 MLOAD SWAP2 POP PUSH1 0x1F NOT PUSH1 0x3F RETURNDATASIZE ADD AND DUP3 ADD PUSH1 0x40 MSTORE RETURNDATASIZE DUP3 MSTORE RETURNDATASIZE PUSH1 0x0 PUSH1 0x20 DUP5 ADD RETURNDATACOPY PUSH2 0x313C JUMP JUMPDEST PUSH1 0x60 SWAP2 POP JUMPDEST POP SWAP2 POP SWAP2 POP DUP2 DUP1 ISZERO PUSH2 0x316A JUMPI POP PUSH1 0x0 DUP2 MLOAD EQ DUP1 PUSH2 0x3169 JUMPI POP DUP1 DUP1 PUSH1 0x20 ADD SWAP1 MLOAD DUP2 ADD SWAP1 PUSH2 0x3168 SWAP2 SWAP1 PUSH2 0x37DF JUMP JUMPDEST JUMPDEST JUMPDEST PUSH2 0x31A9 JUMPI PUSH1 0x40 MLOAD PUSH32 0x8C379A000000000000000000000000000000000000000000000000000000000 DUP2 MSTORE PUSH1 0x4 ADD PUSH2 0x31A0 SWAP1 PUSH2 0x42C3 JUMP JUMPDEST PUSH1 0x40 MLOAD DUP1 SWAP2 SUB SWAP1 REVERT JUMPDEST POP POP POP POP POP POP JUMP JUMPDEST PUSH1 0x0 DUP1 REVERT JUMPDEST PUSH1 0x0 DUP2 SWAP1 POP SWAP2 SWAP1 POP JUMP JUMPDEST PUSH2 0x31C9 DUP2 PUSH2 0x31B6 JUMP JUMPDEST DUP2 EQ PUSH2 0x31D4 JUMPI PUSH1 0x0 DUP1 REVERT JUMPDEST POP JUMP JUMPDEST PUSH1 0x0 DUP2 CALLDATALOAD SWAP1 POP PUSH2 0x31E6 DUP2 PUSH2 0x31C0 JUMP JUMPDEST SWAP3 SWAP2 POP POP JUMP JUMPDEST PUSH1 0x0 PUSH1 0x20 DUP3 DUP5 SUB SLT ISZERO PUSH2 0x3202 JUMPI PUSH2 0x3201 PUSH2 0x31B1 JUMP JUMPDEST JUMPDEST PUSH1 0x0 PUSH2 0x3210 DUP5 DUP3 DUP6 ADD PUSH2 0x31D7 JUMP JUMPDEST SWAP2 POP POP SWAP3 SWAP2 POP POP JUMP JUMPDEST PUSH1 0x0 DUP2 ISZERO ISZERO SWAP1 POP SWAP2 SWAP1 POP JUMP JUMPDEST PUSH2 0x322E DUP2 PUSH2 0x3219 JUMP JUMPDEST DUP3 MSTORE POP POP JUMP JUMPDEST PUSH1 0x0 PUSH1 0x20 DUP3 ADD SWAP1 POP PUSH2 0x3249 PUSH1 0x0 DUP4 ADD DUP5 PUSH2 0x3225 JUMP JUMPDEST SWAP3 SWAP2 POP POP JUMP JUMPDEST PUSH2 0x3258 DUP2 PUSH2 0x31B6 JUMP JUMPDEST DUP3 MSTORE POP POP JUMP JUMPDEST PUSH1 0x0 PUSH1 0x40 DUP3 ADD SWAP1 POP PUSH2 0x3273 PUSH1 0x0 DUP4 ADD DUP6 PUSH2 0x324F JUMP JUMPDEST PUSH2 0x3280 PUSH1 0x20 DUP4 ADD DUP5 PUSH2 0x324F JUMP JUMPDEST SWAP4 SWAP3 POP POP POP JUMP JUMPDEST PUSH32 0x4E487B7100000000000000000000000000000000000000000000000000000000 PUSH1 0x0 MSTORE PUSH1 0x21 PUSH1 0x4 MSTORE PUSH1 0x24 PUSH1 0x0 REVERT JUMPDEST PUSH1 0x3 DUP2 LT PUSH2 0x32C7 JUMPI PUSH2 0x32C6 PUSH2 0x3287 JUMP JUMPDEST JUMPDEST POP JUMP JUMPDEST PUSH1 0x0 DUP2 SWAP1 POP PUSH2 0x32D8 DUP3 PUSH2 0x32B6 JUMP JUMPDEST SWAP2 SWAP1 POP JUMP JUMPDEST PUSH1 0x0 PUSH2 0x32E8 DUP3 PUSH2 0x32CA JUMP JUMPDEST SWAP1 POP SWAP2 SWAP1 POP JUMP JUMPDEST PUSH2 0x32F8 DUP2 PUSH2 0x32DD JUMP JUMPDEST DUP3 MSTORE POP POP JUMP JUMPDEST PUSH1 0x0 PUSH1 0x20 DUP3 ADD SWAP1 POP PUSH2 0x3313 PUSH1 0x0 DUP4 ADD DUP5 PUSH2 0x32EF JUMP JUMPDEST SWAP3 SWAP2 POP POP JUMP JUMPDEST PUSH1 0x0 PUSH20 0xFFFFFFFFFFFFFFFFFFFFFFFFFFFFFFFFFFFFFFFF DUP3 AND SWAP1 POP SWAP2 SWAP1 POP JUMP JUMPDEST PUSH1 0x0 PUSH2 0x3344 DUP3 PUSH2 0x3319 JUMP JUMPDEST SWAP1 POP SWAP2 SWAP1 POP JUMP JUMPDEST PUSH2 0x3354 DUP2 PUSH2 0x3339 JUMP JUMPDEST DUP2 EQ PUSH2 0x335F JUMPI PUSH1 0x0 DUP1 REVERT JUMPDEST POP JUMP JUMPDEST PUSH1 0x0 DUP2 CALLDATALOAD SWAP1 POP PUSH2 0x3371 DUP2 PUSH2 0x334B JUMP JUMPDEST SWAP3 SWAP2 POP POP JUMP JUMPDEST PUSH1 0x0 PUSH1 0x20 DUP3 DUP5 SUB SLT ISZERO PUSH2 0x338D JUMPI PUSH2 0x338C PUSH2 0x31B1 JUMP JUMPDEST JUMPDEST PUSH1 0x0 PUSH2 0x339B DUP5 DUP3 DUP6 ADD PUSH2 0x3362 JUMP JUMPDEST SWAP2 POP POP SWAP3 SWAP2 POP POP JUMP JUMPDEST PUSH1 0x3 DUP2 LT PUSH2 0x33B1 JUMPI PUSH1 0x0 DUP1 REVERT JUMPDEST POP JUMP JUMPDEST PUSH1 0x0 DUP2 CALLDATALOAD SWAP1 POP PUSH2 0x33C3 DUP2 PUSH2 0x33A4 JUMP JUMPDEST SWAP3 SWAP2 POP POP JUMP JUMPDEST PUSH2 0x33D2 DUP2 PUSH2 0x3219 JUMP JUMPDEST DUP2 EQ PUSH2 0x33DD JUMPI PUSH1 0x0 DUP1 REVERT JUMPDEST POP JUMP JUMPDEST PUSH1 0x0 DUP2 CALLDATALOAD SWAP1 POP PUSH2 0x33EF DUP2 PUSH2 0x33C9 JUMP JUMPDEST SWAP3 SWAP2 POP POP JUMP JUMPDEST PUSH1 0x0 DUP1 PUSH1 0x0 DUP1 PUSH1 0x0 DUP1 PUSH1 0x0 DUP1 PUSH2 0x100 DUP10 DUP12 SUB SLT ISZERO PUSH2 0x3416 JUMPI PUSH2 0x3415 PUSH2 0x31B1 JUMP JUMPDEST JUMPDEST PUSH1 0x0 PUSH2 0x3424 DUP12 DUP3 DUP13 ADD PUSH2 0x33B4 JUMP JUMPDEST SWAP9 POP POP PUSH1 0x20 PUSH2 0x3435 DUP12 DUP3 DUP13 ADD PUSH2 0x3362 JUMP JUMPDEST SWAP8 POP POP PUSH1 0x40 PUSH2 0x3446 DUP12 DUP3 DUP13 ADD PUSH2 0x3362 JUMP JUMPDEST SWAP7 POP POP PUSH1 0x60 PUSH2 0x3457 DUP12 DUP3 DUP13 ADD PUSH2 0x31D7 JUMP JUMPDEST SWAP6 POP POP PUSH1 0x80 PUSH2 0x3468 DUP12 DUP3 DUP13 ADD PUSH2 0x31D7 JUMP JUMPDEST SWAP5 POP POP PUSH1 0xA0 PUSH2 0x3479 DUP12 DUP3 DUP13 ADD PUSH2 0x31D7 JUMP JUMPDEST SWAP4 POP POP PUSH1 0xC0 PUSH2 0x348A DUP12 DUP3 DUP13 ADD PUSH2 0x33E0 JUMP JUMPDEST SWAP3 POP POP PUSH1 0xE0 PUSH2 0x349B DUP12 DUP3 DUP13 ADD PUSH2 0x3362 JUMP JUMPDEST SWAP2 POP POP SWAP3 SWAP6 SWAP9 POP SWAP3 SWAP6 SWAP9 SWAP1 SWAP4 SWAP7 POP JUMP JUMPDEST PUSH1 0x0 PUSH1 0x20 DUP3 ADD SWAP1 POP PUSH2 0x34C0 PUSH1 0x0 DUP4 ADD DUP5 PUSH2 0x324F JUMP JUMPDEST SWAP3 SWAP2 POP POP JUMP JUMPDEST PUSH2 0x34CF DUP2 PUSH2 0x3339 JUMP JUMPDEST DUP3 MSTORE POP POP JUMP JUMPDEST PUSH1 0x0 PUSH1 0x20 DUP3 ADD SWAP1 POP PUSH2 0x34EA PUSH1 0x0 DUP4 ADD DUP5 PUSH2 0x34C6 JUMP JUMPDEST SWAP3 SWAP2 POP POP JUMP JUMPDEST PUSH1 0x0 PUSH1 0x40 DUP3 ADD SWAP1 POP PUSH2 0x3505 PUSH1 0x0 DUP4 ADD DUP6 PUSH2 0x34C6 JUMP JUMPDEST PUSH2 0x3512 PUSH1 0x20 DUP4 ADD DUP5 PUSH2 0x34C6 JUMP JUMPDEST SWAP4 SWAP3 POP POP POP JUMP JUMPDEST PUSH1 0x0 DUP2 MLOAD SWAP1 POP SWAP2 SWAP1 POP JUMP JUMPDEST PUSH1 0x0 DUP3 DUP3 MSTORE PUSH1 0x20 DUP3 ADD SWAP1 POP SWAP3 SWAP2 POP POP JUMP JUMPDEST PUSH1 0x0 DUP2 SWAP1 POP PUSH1 0x20 DUP3 ADD SWAP1 POP SWAP2 SWAP1 POP JUMP JUMPDEST PUSH2 0x354E DUP2 PUSH2 0x3339 JUMP JUMPDEST DUP3 MSTORE POP POP JUMP JUMPDEST PUSH1 0x0 PUSH2 0x3560 DUP4 DUP4 PUSH2 0x3545 JUMP JUMPDEST PUSH1 0x20 DUP4 ADD SWAP1 POP SWAP3 SWAP2 POP POP JUMP JUMPDEST PUSH1 0x0 PUSH1 0x20 DUP3 ADD SWAP1 POP SWAP2 SWAP1 POP JUMP JUMPDEST PUSH1 0x0 PUSH2 0x3584 DUP3 PUSH2 0x3519 JUMP JUMPDEST PUSH2 0x358E DUP2 DUP6 PUSH2 0x3524 JUMP JUMPDEST SWAP4 POP PUSH2 0x3599 DUP4 PUSH2 0x3535 JUMP JUMPDEST DUP1 PUSH1 0x0 JUMPDEST DUP4 DUP2 LT ISZERO PUSH2 0x35CA JUMPI DUP2 MLOAD PUSH2 0x35B1 DUP9 DUP3 PUSH2 0x3554 JUMP JUMPDEST SWAP8 POP PUSH2 0x35BC DUP4 PUSH2 0x356C JUMP JUMPDEST SWAP3 POP POP PUSH1 0x1 DUP2 ADD SWAP1 POP PUSH2 0x359D JUMP JUMPDEST POP DUP6 SWAP4 POP POP POP POP SWAP3 SWAP2 POP POP JUMP JUMPDEST PUSH1 0x0 DUP2 MLOAD SWAP1 POP SWAP2 SWAP1 POP JUMP JUMPDEST PUSH1 0x0 DUP3 DUP3 MSTORE PUSH1 0x20 DUP3 ADD SWAP1 POP SWAP3 SWAP2 POP POP JUMP JUMPDEST PUSH1 0x0 DUP2 SWAP1 POP PUSH1 0x20 DUP3 ADD SWAP1 POP SWAP2 SWAP1 POP JUMP JUMPDEST PUSH2 0x360C DUP2 PUSH2 0x31B6 JUMP JUMPDEST DUP3 MSTORE POP POP JUMP JUMPDEST PUSH1 0x0 PUSH2 0x361E DUP4 DUP4 PUSH2 0x3603 JUMP JUMPDEST PUSH1 0x20 DUP4 ADD SWAP1 POP SWAP3 SWAP2 POP POP JUMP JUMPDEST PUSH1 0x0 PUSH1 0x20 DUP3 ADD SWAP1 POP SWAP2 SWAP1 POP JUMP JUMPDEST PUSH1 0x0 PUSH2 0x3642 DUP3 PUSH2 0x35D7 JUMP JUMPDEST PUSH2 0x364C DUP2 DUP6 PUSH2 0x35E2 JUMP JUMPDEST SWAP4 POP PUSH2 0x3657 DUP4 PUSH2 0x35F3 JUMP JUMPDEST DUP1 PUSH1 0x0 JUMPDEST DUP4 DUP2 LT ISZERO PUSH2 0x3688 JUMPI DUP2 MLOAD PUSH2 0x366F DUP9 DUP3 PUSH2 0x3612 JUMP JUMPDEST SWAP8 POP PUSH2 0x367A DUP4 PUSH2 0x362A JUMP JUMPDEST SWAP3 POP POP PUSH1 0x1 DUP2 ADD SWAP1 POP PUSH2 0x365B JUMP JUMPDEST POP DUP6 SWAP4 POP POP POP POP SWAP3 SWAP2 POP POP JUMP JUMPDEST PUSH1 0x0 PUSH1 0x60 DUP3 ADD SWAP1 POP DUP2 DUP2 SUB PUSH1 0x0 DUP4 ADD MSTORE PUSH2 0x36AF DUP2 DUP7 PUSH2 0x3579 JUMP JUMPDEST SWAP1 POP DUP2 DUP2 SUB PUSH1 0x20 DUP4 ADD MSTORE PUSH2 0x36C3 DUP2 DUP6 PUSH2 0x3637 JUMP JUMPDEST SWAP1 POP DUP2 DUP2 SUB PUSH1 0x40 DUP4 ADD MSTORE PUSH2 0x36D7 DUP2 DUP5 PUSH2 0x3637 JUMP JUMPDEST SWAP1 POP SWAP5 SWAP4 POP POP POP POP JUMP JUMPDEST PUSH1 0x0 DUP3 DUP3 MSTORE PUSH1 0x20 DUP3 ADD SWAP1 POP SWAP3 SWAP2 POP POP JUMP JUMPDEST PUSH32 0x537943726F774261727465723A20494E41435449564500000000000000000000 PUSH1 0x0 DUP3 ADD MSTORE POP JUMP JUMPDEST PUSH1 0x0 PUSH2 0x3728 PUSH1 0x16 DUP4 PUSH2 0x36E1 JUMP JUMPDEST SWAP2 POP PUSH2 0x3733 DUP3 PUSH2 0x36F2 JUMP JUMPDEST PUSH1 0x20 DUP3 ADD SWAP1 POP SWAP2 SWAP1 POP JUMP JUMPDEST PUSH1 0x0 PUSH1 0x20 DUP3 ADD SWAP1 POP DUP2 DUP2 SUB PUSH1 0x0 DUP4 ADD MSTORE PUSH2 0x3757 DUP2 PUSH2 0x371B JUMP JUMPDEST SWAP1 POP SWAP2 SWAP1 POP JUMP JUMPDEST PUSH32 0x537943726F774261727465723A204E4F545F494E495449414C495A4544000000 PUSH1 0x0 DUP3 ADD MSTORE POP JUMP JUMPDEST PUSH1 0x0 PUSH2 0x3794 PUSH1 0x1D DUP4 PUSH2 0x36E1 JUMP JUMPDEST SWAP2 POP PUSH2 0x379F DUP3 PUSH2 0x375E JUMP JUMPDEST PUSH1 0x20 DUP3 ADD SWAP1 POP SWAP2 SWAP1 POP JUMP JUMPDEST PUSH1 0x0 PUSH1 0x20 DUP3 ADD SWAP1 POP DUP2 DUP2 SUB PUSH1 0x0 DUP4 ADD MSTORE PUSH2 0x37C3 DUP2 PUSH2 0x3787 JUMP JUMPDEST SWAP1 POP SWAP2 SWAP1 POP JUMP JUMPDEST PUSH1 0x0 DUP2 MLOAD SWAP1 POP PUSH2 0x37D9 DUP2 PUSH2 0x33C9 JUMP JUMPDEST SWAP3 SWAP2 POP POP JUMP JUMPDEST PUSH1 0x0 PUSH1 0x20 DUP3 DUP5 SUB SLT ISZERO PUSH2 0x37F5 JUMPI PUSH2 0x37F4 PUSH2 0x31B1 JUMP JUMPDEST JUMPDEST PUSH1 0x0 PUSH2 0x3803 DUP5 DUP3 DUP6 ADD PUSH2 0x37CA JUMP JUMPDEST SWAP2 POP POP SWAP3 SWAP2 POP POP JUMP JUMPDEST PUSH32 0x537943726F774261727465723A204261736520436F6E74726163742050617573 PUSH1 0x0 DUP3 ADD MSTORE PUSH32 0x6564000000000000000000000000000000000000000000000000000000000000 PUSH1 0x20 DUP3 ADD MSTORE POP JUMP JUMPDEST PUSH1 0x0 PUSH2 0x3868 PUSH1 0x22 DUP4 PUSH2 0x36E1 JUMP JUMPDEST SWAP2 POP PUSH2 0x3873 DUP3 PUSH2 0x380C JUMP JUMPDEST PUSH1 0x40 DUP3 ADD SWAP1 POP SWAP2 SWAP1 POP JUMP JUMPDEST PUSH1 0x0 PUSH1 0x20 DUP3 ADD SWAP1 POP DUP2 DUP2 SUB PUSH1 0x0 DUP4 ADD MSTORE PUSH2 0x3897 DUP2 PUSH2 0x385B JUMP JUMPDEST SWAP1 POP SWAP2 SWAP1 POP JUMP JUMPDEST PUSH32 0x537943726F774261727465723A204D554C54495F54524144455F4E4F545F454E PUSH1 0x0 DUP3 ADD MSTORE PUSH32 0x41424C4544000000000000000000000000000000000000000000000000000000 PUSH1 0x20 DUP3 ADD MSTORE POP JUMP JUMPDEST PUSH1 0x0 PUSH2 0x38FA PUSH1 0x25 DUP4 PUSH2 0x36E1 JUMP JUMPDEST SWAP2 POP PUSH2 0x3905 DUP3 PUSH2 0x389E JUMP JUMPDEST PUSH1 0x40 DUP3 ADD SWAP1 POP SWAP2 SWAP1 POP JUMP JUMPDEST PUSH1 0x0 PUSH1 0x20 DUP3 ADD SWAP1 POP DUP2 DUP2 SUB PUSH1 0x0 DUP4 ADD MSTORE PUSH2 0x3929 DUP2 PUSH2 0x38ED JUMP JUMPDEST SWAP1 POP SWAP2 SWAP1 POP JUMP JUMPDEST PUSH32 0x537943726F774261727465723A20494E56414C49445F4241525445525F545950 PUSH1 0x0 DUP3 ADD MSTORE PUSH32 0x4500000000000000000000000000000000000000000000000000000000000000 PUSH1 0x20 DUP3 ADD MSTORE POP JUMP JUMPDEST PUSH1 0x0 PUSH2 0x398C PUSH1 0x21 DUP4 PUSH2 0x36E1 JUMP JUMPDEST SWAP2 POP PUSH2 0x3997 DUP3 PUSH2 0x3930 JUMP JUMPDEST PUSH1 0x40 DUP3 ADD SWAP1 POP SWAP2 SWAP1 POP JUMP JUMPDEST PUSH1 0x0 PUSH1 0x20 DUP3 ADD SWAP1 POP DUP2 DUP2 SUB PUSH1 0x0 DUP4 ADD MSTORE PUSH2 0x39BB DUP2 PUSH2 0x397F JUMP JUMPDEST SWAP1 POP SWAP2 SWAP1 POP JUMP JUMPDEST PUSH32 0x537943726F774261727465723A20414354495645000000000000000000000000 PUSH1 0x0 DUP3 ADD MSTORE POP JUMP JUMPDEST PUSH1 0x0 PUSH2 0x39F8 PUSH1 0x14 DUP4 PUSH2 0x36E1 JUMP JUMPDEST SWAP2 POP PUSH2 0x3A03 DUP3 PUSH2 0x39C2 JUMP JUMPDEST PUSH1 0x20 DUP3 ADD SWAP1 POP SWAP2 SWAP1 POP JUMP JUMPDEST PUSH1 0x0 PUSH1 0x20 DUP3 ADD SWAP1 POP DUP2 DUP2 SUB PUSH1 0x0 DUP4 ADD MSTORE PUSH2 0x3A27 DUP2 PUSH2 0x39EB JUMP JUMPDEST SWAP1 POP SWAP2 SWAP1 POP JUMP JUMPDEST PUSH32 0x4F776E61626C653A2063616C6C6572206973206E6F7420746865206F776E6572 PUSH1 0x0 DUP3 ADD MSTORE POP JUMP JUMPDEST PUSH1 0x0 PUSH2 0x3A64 PUSH1 0x20 DUP4 PUSH2 0x36E1 JUMP JUMPDEST SWAP2 POP PUSH2 0x3A6F DUP3 PUSH2 0x3A2E JUMP JUMPDEST PUSH1 0x20 DUP3 ADD SWAP1 POP SWAP2 SWAP1 POP JUMP JUMPDEST PUSH1 0x0 PUSH1 0x20 DUP3 ADD SWAP1 POP DUP2 DUP2 SUB PUSH1 0x0 DUP4 ADD MSTORE PUSH2 0x3A93 DUP2 PUSH2 0x3A57 JUMP JUMPDEST SWAP1 POP SWAP2 SWAP1 POP JUMP JUMPDEST PUSH1 0x0 DUP2 MLOAD SWAP1 POP PUSH2 0x3AA9 DUP2 PUSH2 0x31C0 JUMP JUMPDEST SWAP3 SWAP2 POP POP JUMP JUMPDEST PUSH1 0x0 PUSH1 0x20 DUP3 DUP5 SUB SLT ISZERO PUSH2 0x3AC5 JUMPI PUSH2 0x3AC4 PUSH2 0x31B1 JUMP JUMPDEST JUMPDEST PUSH1 0x0 PUSH2 0x3AD3 DUP5 DUP3 DUP6 ADD PUSH2 0x3A9A JUMP JUMPDEST SWAP2 POP POP SWAP3 SWAP2 POP POP JUMP JUMPDEST PUSH1 0x0 PUSH1 0x80 DUP3 ADD SWAP1 POP PUSH2 0x3AF1 PUSH1 0x0 DUP4 ADD DUP8 PUSH2 0x34C6 JUMP JUMPDEST PUSH2 0x3AFE PUSH1 0x20 DUP4 ADD DUP7 PUSH2 0x34C6 JUMP JUMPDEST PUSH2 0x3B0B PUSH1 0x40 DUP4 ADD DUP6 PUSH2 0x324F JUMP JUMPDEST PUSH2 0x3B18 PUSH1 0x60 DUP4 ADD DUP5 PUSH2 0x324F JUMP JUMPDEST SWAP6 SWAP5 POP POP POP POP POP JUMP JUMPDEST PUSH32 0x537943726F774261727465723A20464F5242494444454E000000000000000000 PUSH1 0x0 DUP3 ADD MSTORE POP JUMP JUMPDEST PUSH1 0x0 PUSH2 0x3B57 PUSH1 0x17 DUP4 PUSH2 0x36E1 JUMP JUMPDEST SWAP2 POP PUSH2 0x3B62 DUP3 PUSH2 0x3B21 JUMP JUMPDEST PUSH1 0x20 DUP3 ADD SWAP1 POP SWAP2 SWAP1 POP JUMP JUMPDEST PUSH1 0x0 PUSH1 0x20 DUP3 ADD SWAP1 POP DUP2 DUP2 SUB PUSH1 0x0 DUP4 ADD MSTORE PUSH2 0x3B86 DUP2 PUSH2 0x3B4A JUMP JUMPDEST SWAP1 POP SWAP2 SWAP1 POP JUMP JUMPDEST PUSH32 0x537943726F774261727465723A20414C52454144595F494E495449414C495A45 PUSH1 0x0 DUP3 ADD MSTORE PUSH32 0x4400000000000000000000000000000000000000000000000000000000000000 PUSH1 0x20 DUP3 ADD MSTORE POP JUMP JUMPDEST PUSH1 0x0 PUSH2 0x3BE9 PUSH1 0x21 DUP4 PUSH2 0x36E1 JUMP JUMPDEST SWAP2 POP PUSH2 0x3BF4 DUP3 PUSH2 0x3B8D JUMP JUMPDEST PUSH1 0x40 DUP3 ADD SWAP1 POP SWAP2 SWAP1 POP JUMP JUMPDEST PUSH1 0x0 PUSH1 0x20 DUP3 ADD SWAP1 POP DUP2 DUP2 SUB PUSH1 0x0 DUP4 ADD MSTORE PUSH2 0x3C18 DUP2 PUSH2 0x3BDC JUMP JUMPDEST SWAP1 POP SWAP2 SWAP1 POP JUMP JUMPDEST PUSH32 0x537943726F774261727465723A20504153545F444541444C494E450000000000 PUSH1 0x0 DUP3 ADD MSTORE POP JUMP JUMPDEST PUSH1 0x0 PUSH2 0x3C55 PUSH1 0x1B DUP4 PUSH2 0x36E1 JUMP JUMPDEST SWAP2 POP PUSH2 0x3C60 DUP3 PUSH2 0x3C1F JUMP JUMPDEST PUSH1 0x20 DUP3 ADD SWAP1 POP SWAP2 SWAP1 POP JUMP JUMPDEST PUSH1 0x0 PUSH1 0x20 DUP3 ADD SWAP1 POP DUP2 DUP2 SUB PUSH1 0x0 DUP4 ADD MSTORE PUSH2 0x3C84 DUP2 PUSH2 0x3C48 JUMP JUMPDEST SWAP1 POP SWAP2 SWAP1 POP JUMP JUMPDEST PUSH32 0x537943726F774261727465723A20494E53554646494349454E545F4445504F53 PUSH1 0x0 DUP3 ADD MSTORE PUSH32 0x4954000000000000000000000000000000000000000000000000000000000000 PUSH1 0x20 DUP3 ADD MSTORE POP JUMP JUMPDEST PUSH1 0x0 PUSH2 0x3CE7 PUSH1 0x22 DUP4 PUSH2 0x36E1 JUMP JUMPDEST SWAP2 POP PUSH2 0x3CF2 DUP3 PUSH2 0x3C8B JUMP JUMPDEST PUSH1 0x40 DUP3 ADD SWAP1 POP SWAP2 SWAP1 POP JUMP JUMPDEST PUSH1 0x0 PUSH1 0x20 DUP3 ADD SWAP1 POP DUP2 DUP2 SUB PUSH1 0x0 DUP4 ADD MSTORE PUSH2 0x3D16 DUP2 PUSH2 0x3CDA JUMP JUMPDEST SWAP1 POP SWAP2 SWAP1 POP JUMP JUMPDEST PUSH32 0x4E487B7100000000000000000000000000000000000000000000000000000000 PUSH1 0x0 MSTORE PUSH1 0x41 PUSH1 0x4 MSTORE PUSH1 0x24 PUSH1 0x0 REVERT JUMPDEST PUSH32 0x4E487B7100000000000000000000000000000000000000000000000000000000 PUSH1 0x0 MSTORE PUSH1 0x32 PUSH1 0x4 MSTORE PUSH1 0x24 PUSH1 0x0 REVERT JUMPDEST PUSH32 0x4E487B7100000000000000000000000000000000000000000000000000000000 PUSH1 0x0 MSTORE PUSH1 0x11 PUSH1 0x4 MSTORE PUSH1 0x24 PUSH1 0x0 REVERT JUMPDEST PUSH1 0x0 PUSH2 0x3DB5 DUP3 PUSH2 0x31B6 JUMP JUMPDEST SWAP2 POP PUSH32 0xFFFFFFFFFFFFFFFFFFFFFFFFFFFFFFFFFFFFFFFFFFFFFFFFFFFFFFFFFFFFFFFF DUP3 SUB PUSH2 0x3DE7 JUMPI PUSH2 0x3DE6 PUSH2 0x3D7B JUMP JUMPDEST JUMPDEST PUSH1 0x1 DUP3 ADD SWAP1 POP SWAP2 SWAP1 POP JUMP JUMPDEST PUSH32 0x4F776E61626C653A206E6577206F776E657220697320746865207A65726F2061 PUSH1 0x0 DUP3 ADD MSTORE PUSH32 0x6464726573730000000000000000000000000000000000000000000000000000 PUSH1 0x20 DUP3 ADD MSTORE POP JUMP JUMPDEST PUSH1 0x0 PUSH2 0x3E4E PUSH1 0x26 DUP4 PUSH2 0x36E1 JUMP JUMPDEST SWAP2 POP PUSH2 0x3E59 DUP3 PUSH2 0x3DF2 JUMP JUMPDEST PUSH1 0x40 DUP3 ADD SWAP1 POP SWAP2 SWAP1 POP JUMP JUMPDEST PUSH1 0x0 PUSH1 0x20 DUP3 ADD SWAP1 POP DUP2 DUP2 SUB PUSH1 0x0 DUP4 ADD MSTORE PUSH2 0x3E7D DUP2 PUSH2 0x3E41 JUMP JUMPDEST SWAP1 POP SWAP2 SWAP1 POP JUMP JUMPDEST PUSH32 0x537943726F774261727465723A20494E53554646494349454E545F42414C414E PUSH1 0x0 DUP3 ADD MSTORE PUSH32 0x4345000000000000000000000000000000000000000000000000000000000000 PUSH1 0x20 DUP3 ADD MSTORE POP JUMP JUMPDEST PUSH1 0x0 PUSH2 0x3EE0 PUSH1 0x22 DUP4 PUSH2 0x36E1 JUMP JUMPDEST SWAP2 POP PUSH2 0x3EEB DUP3 PUSH2 0x3E84 JUMP JUMPDEST PUSH1 0x40 DUP3 ADD SWAP1 POP SWAP2 SWAP1 POP JUMP JUMPDEST PUSH1 0x0 PUSH1 0x20 DUP3 ADD SWAP1 POP DUP2 DUP2 SUB PUSH1 0x0 DUP4 ADD MSTORE PUSH2 0x3F0F DUP2 PUSH2 0x3ED3 JUMP JUMPDEST SWAP1 POP SWAP2 SWAP1 POP JUMP JUMPDEST PUSH32 0x537943726F774261727465723A20494E53554646494349454E545F434F4E5452 PUSH1 0x0 DUP3 ADD MSTORE PUSH32 0x4143545F42414C414E4345000000000000000000000000000000000000000000 PUSH1 0x20 DUP3 ADD MSTORE POP JUMP JUMPDEST PUSH1 0x0 PUSH2 0x3F72 PUSH1 0x2B DUP4 PUSH2 0x36E1 JUMP JUMPDEST SWAP2 POP PUSH2 0x3F7D DUP3 PUSH2 0x3F16 JUMP JUMPDEST PUSH1 0x40 DUP3 ADD SWAP1 POP SWAP2 SWAP1 POP JUMP JUMPDEST PUSH1 0x0 PUSH1 0x20 DUP3 ADD SWAP1 POP DUP2 DUP2 SUB PUSH1 0x0 DUP4 ADD MSTORE PUSH2 0x3FA1 DUP2 PUSH2 0x3F65 JUMP JUMPDEST SWAP1 POP SWAP2 SWAP1 POP JUMP JUMPDEST PUSH1 0x0 DUP2 MLOAD SWAP1 POP SWAP2 SWAP1 POP JUMP JUMPDEST PUSH1 0x0 DUP2 SWAP1 POP SWAP3 SWAP2 POP POP JUMP JUMPDEST PUSH1 0x0 JUMPDEST DUP4 DUP2 LT ISZERO PUSH2 0x3FDC JUMPI DUP1 DUP3 ADD MLOAD DUP2 DUP5 ADD MSTORE PUSH1 0x20 DUP2 ADD SWAP1 POP PUSH2 0x3FC1 JUMP JUMPDEST DUP4 DUP2 GT ISZERO PUSH2 0x3FEB JUMPI PUSH1 0x0 DUP5 DUP5 ADD MSTORE JUMPDEST POP POP POP POP JUMP JUMPDEST PUSH1 0x0 PUSH2 0x3FFC DUP3 PUSH2 0x3FA8 JUMP JUMPDEST PUSH2 0x4006 DUP2 DUP6 PUSH2 0x3FB3 JUMP JUMPDEST SWAP4 POP PUSH2 0x4016 DUP2 DUP6 PUSH1 0x20 DUP7 ADD PUSH2 0x3FBE JUMP JUMPDEST DUP1 DUP5 ADD SWAP2 POP POP SWAP3 SWAP2 POP POP JUMP JUMPDEST PUSH1 0x0 PUSH2 0x402E DUP3 DUP5 PUSH2 0x3FF1 JUMP JUMPDEST SWAP2 POP DUP2 SWAP1 POP SWAP3 SWAP2 POP POP JUMP JUMPDEST PUSH32 0x5472616E7366657248656C7065723A204554485F5452414E534645525F464149 PUSH1 0x0 DUP3 ADD MSTORE PUSH32 0x4C45440000000000000000000000000000000000000000000000000000000000 PUSH1 0x20 DUP3 ADD MSTORE POP JUMP JUMPDEST PUSH1 0x0 PUSH2 0x4095 PUSH1 0x23 DUP4 PUSH2 0x36E1 JUMP JUMPDEST SWAP2 POP PUSH2 0x40A0 DUP3 PUSH2 0x4039 JUMP JUMPDEST PUSH1 0x40 DUP3 ADD SWAP1 POP SWAP2 SWAP1 POP JUMP JUMPDEST PUSH1 0x0 PUSH1 0x20 DUP3 ADD SWAP1 POP DUP2 DUP2 SUB PUSH1 0x0 DUP4 ADD MSTORE PUSH2 0x40C4 DUP2 PUSH2 0x4088 JUMP JUMPDEST SWAP1 POP SWAP2 SWAP1 POP JUMP JUMPDEST PUSH1 0x0 PUSH1 0x40 DUP3 ADD SWAP1 POP PUSH2 0x40E0 PUSH1 0x0 DUP4 ADD DUP6 PUSH2 0x34C6 JUMP JUMPDEST PUSH2 0x40ED PUSH1 0x20 DUP4 ADD DUP5 PUSH2 0x324F JUMP JUMPDEST SWAP4 SWAP3 POP POP POP JUMP JUMPDEST PUSH32 0x5472616E7366657248656C7065723A205452414E534645525F4641494C454400 PUSH1 0x0 DUP3 ADD MSTORE POP JUMP JUMPDEST PUSH1 0x0 PUSH2 0x412A PUSH1 0x1F DUP4 PUSH2 0x36E1 JUMP JUMPDEST SWAP2 POP PUSH2 0x4135 DUP3 PUSH2 0x40F4 JUMP JUMPDEST PUSH1 0x20 DUP3 ADD SWAP1 POP SWAP2 SWAP1 POP JUMP JUMPDEST PUSH1 0x0 PUSH1 0x20 DUP3 ADD SWAP1 POP DUP2 DUP2 SUB PUSH1 0x0 DUP4 ADD MSTORE PUSH2 0x4159 DUP2 PUSH2 0x411D JUMP JUMPDEST SWAP1 POP SWAP2 SWAP1 POP JUMP JUMPDEST PUSH1 0x0 PUSH2 0x416B DUP3 PUSH2 0x31B6 JUMP JUMPDEST SWAP2 POP PUSH2 0x4176 DUP4 PUSH2 0x31B6 JUMP JUMPDEST SWAP3 POP DUP2 PUSH32 0xFFFFFFFFFFFFFFFFFFFFFFFFFFFFFFFFFFFFFFFFFFFFFFFFFFFFFFFFFFFFFFFF DIV DUP4 GT DUP3 ISZERO ISZERO AND ISZERO PUSH2 0x41AF JUMPI PUSH2 0x41AE PUSH2 0x3D7B JUMP JUMPDEST JUMPDEST DUP3 DUP3 MUL SWAP1 POP SWAP3 SWAP2 POP POP JUMP JUMPDEST PUSH32 0x4E487B7100000000000000000000000000000000000000000000000000000000 PUSH1 0x0 MSTORE PUSH1 0x12 PUSH1 0x4 MSTORE PUSH1 0x24 PUSH1 0x0 REVERT JUMPDEST PUSH1 0x0 PUSH2 0x41F4 DUP3 PUSH2 0x31B6 JUMP JUMPDEST SWAP2 POP PUSH2 0x41FF DUP4 PUSH2 0x31B6 JUMP JUMPDEST SWAP3 POP DUP3 PUSH2 0x420F JUMPI PUSH2 0x420E PUSH2 0x41BA JUMP JUMPDEST JUMPDEST DUP3 DUP3 DIV SWAP1 POP SWAP3 SWAP2 POP POP JUMP JUMPDEST PUSH1 0x0 PUSH1 0x60 DUP3 ADD SWAP1 POP PUSH2 0x422F PUSH1 0x0 DUP4 ADD DUP7 PUSH2 0x34C6 JUMP JUMPDEST PUSH2 0x423C PUSH1 0x20 DUP4 ADD DUP6 PUSH2 0x34C6 JUMP JUMPDEST PUSH2 0x4249 PUSH1 0x40 DUP4 ADD DUP5 PUSH2 0x324F JUMP JUMPDEST SWAP5 SWAP4 POP POP POP POP JUMP JUMPDEST PUSH32 0x5472616E7366657248656C7065723A205452414E534645525F46524F4D5F4641 PUSH1 0x0 DUP3 ADD MSTORE PUSH32 0x494C454400000000000000000000000000000000000000000000000000000000 PUSH1 0x20 DUP3 ADD MSTORE POP JUMP JUMPDEST PUSH1 0x0 PUSH2 0x42AD PUSH1 0x24 DUP4 PUSH2 0x36E1 JUMP JUMPDEST SWAP2 POP PUSH2 0x42B8 DUP3 PUSH2 0x4251 JUMP JUMPDEST PUSH1 0x40 DUP3 ADD SWAP1 POP SWAP2 SWAP1 POP JUMP JUMPDEST PUSH1 0x0 PUSH1 0x20 DUP3 ADD SWAP1 POP DUP2 DUP2 SUB PUSH1 0x0 DUP4 ADD MSTORE PUSH2 0x42DC DUP2 PUSH2 0x42A0 JUMP JUMPDEST SWAP1 POP SWAP2 SWAP1 POP JUMP INVALID LOG2 PUSH5 0x6970667358 0x22 SLT KECCAK256 PUSH16 0xF036DF895F75F2C5485474BED468B72B 0xCE 0xB3 ADD KECCAK256 0xDF MULMOD GASPRICE SSTORE 0x29 0x21 0xD9 0xD3 0xDF MUL DUP7 PUSH5 0x736F6C6343 STOP ADDMOD 0xD STOP CALLER "
				},
				"gasEstimates": {
					"creation": {
						"codeDepositCost": "3435400",
						"executionCost": "infinite",
						"totalCost": "infinite"
					},
					"external": {
						"_initialized()": "2539",
						"factory()": "infinite",
						"getAmounts()": "infinite",
						"getBarterType()": "4816",
						"getDeadline()": "4701",
						"getTokens()": "infinite",
						"getTradeOutAmount(uint256)": "infinite",
						"getTrades()": "infinite",
						"initialize(uint8,address,address,uint256,uint256,uint256,bool,address)": "infinite",
						"owner()": "2567",
						"renounceOwnership()": "30397",
						"tradeEthForToken()": "infinite",
						"tradeEthForToken(uint256)": "infinite",
						"tradeTokenForEth()": "infinite",
						"tradeTokenForEth(uint256)": "infinite",
						"tradeTokenForToken()": "infinite",
						"tradeTokenForToken(uint256)": "infinite",
						"transferOwnership(address)": "30830",
						"withdraw()": "infinite",
						"withdraw(address)": "infinite"
					},
					"internal": {
						"_getTradeOutAmount(uint256)": "infinite",
						"_tradeEthForToken(uint256)": "infinite",
						"_tradeTokenForEth(uint256)": "infinite",
						"_tradeTokenForToken(uint256)": "infinite"
					}
				},
				"methodIdentifiers": {
					"_initialized()": "3072cf60",
					"factory()": "c45a0155",
					"getAmounts()": "3d370b4e",
					"getBarterType()": "442fb8cd",
					"getDeadline()": "5f8d96de",
					"getTokens()": "aa6ca808",
					"getTradeOutAmount(uint256)": "dab5a8df",
					"getTrades()": "e43372e9",
					"initialize(uint8,address,address,uint256,uint256,uint256,bool,address)": "5f5780e5",
					"owner()": "8da5cb5b",
					"renounceOwnership()": "715018a6",
					"tradeEthForToken()": "d7bdfc75",
					"tradeEthForToken(uint256)": "4341f920",
					"tradeTokenForEth()": "a09702b1",
					"tradeTokenForEth(uint256)": "0d182605",
					"tradeTokenForToken()": "abd050ea",
					"tradeTokenForToken(uint256)": "2ffc6887",
					"transferOwnership(address)": "f2fde38b",
					"withdraw()": "3ccfd60b",
					"withdraw(address)": "51cff8d9"
				}
			},
			"storageLayout": {
				"storage": [
					{
						"astId": 7,
						"contract": "contracts/SyCrowBarter.sol:SyCrowBarter",
						"label": "_owner",
						"offset": 0,
						"slot": "0",
						"type": "t_address"
					},
					{
						"astId": 142,
						"contract": "contracts/SyCrowBarter.sol:SyCrowBarter",
						"label": "totalTradeAmount",
						"offset": 0,
						"slot": "1",
						"type": "t_uint256"
					},
					{
						"astId": 144,
						"contract": "contracts/SyCrowBarter.sol:SyCrowBarter",
						"label": "WETH",
						"offset": 0,
						"slot": "2",
						"type": "t_address"
					},
					{
						"astId": 146,
						"contract": "contracts/SyCrowBarter.sol:SyCrowBarter",
						"label": "_deadline",
						"offset": 0,
						"slot": "3",
						"type": "t_uint256"
					},
					{
						"astId": 149,
						"contract": "contracts/SyCrowBarter.sol:SyCrowBarter",
						"label": "_initialized",
						"offset": 0,
						"slot": "4",
						"type": "t_bool"
					},
					{
						"astId": 151,
						"contract": "contracts/SyCrowBarter.sol:SyCrowBarter",
						"label": "_depositedTokenAddress",
						"offset": 1,
						"slot": "4",
						"type": "t_address"
					},
					{
						"astId": 153,
						"contract": "contracts/SyCrowBarter.sol:SyCrowBarter",
						"label": "_expectedTokenAddress",
						"offset": 0,
						"slot": "5",
						"type": "t_address"
					},
					{
						"astId": 155,
						"contract": "contracts/SyCrowBarter.sol:SyCrowBarter",
						"label": "_depositedAmount",
						"offset": 0,
						"slot": "6",
						"type": "t_uint256"
					},
					{
						"astId": 157,
						"contract": "contracts/SyCrowBarter.sol:SyCrowBarter",
						"label": "_expectedAmount",
						"offset": 0,
						"slot": "7",
						"type": "t_uint256"
					},
					{
						"astId": 159,
						"contract": "contracts/SyCrowBarter.sol:SyCrowBarter",
						"label": "_allowMultiBarter",
						"offset": 0,
						"slot": "8",
						"type": "t_bool"
					},
					{
						"astId": 162,
						"contract": "contracts/SyCrowBarter.sol:SyCrowBarter",
						"label": "_barterType",
						"offset": 1,
						"slot": "8",
						"type": "t_enum(ISyCrowBarterType)1262"
					},
					{
						"astId": 166,
						"contract": "contracts/SyCrowBarter.sol:SyCrowBarter",
						"label": "_trades",
						"offset": 0,
						"slot": "9",
						"type": "t_array(t_struct(BaterTrade)173_storage)dyn_storage"
					}
				],
				"types": {
					"t_address": {
						"encoding": "inplace",
						"label": "address",
						"numberOfBytes": "20"
					},
					"t_array(t_struct(BaterTrade)173_storage)dyn_storage": {
						"base": "t_struct(BaterTrade)173_storage",
						"encoding": "dynamic_array",
						"label": "struct SyCrowBarter.BaterTrade[]",
						"numberOfBytes": "32"
					},
					"t_bool": {
						"encoding": "inplace",
						"label": "bool",
						"numberOfBytes": "1"
					},
					"t_enum(ISyCrowBarterType)1262": {
						"encoding": "inplace",
						"label": "enum ISyCrowBarterType",
						"numberOfBytes": "1"
					},
					"t_struct(BaterTrade)173_storage": {
						"encoding": "inplace",
						"label": "struct SyCrowBarter.BaterTrade",
						"members": [
							{
								"astId": 168,
								"contract": "contracts/SyCrowBarter.sol:SyCrowBarter",
								"label": "_trader",
								"offset": 0,
								"slot": "0",
								"type": "t_address"
							},
							{
								"astId": 170,
								"contract": "contracts/SyCrowBarter.sol:SyCrowBarter",
								"label": "_amountIn",
								"offset": 0,
								"slot": "1",
								"type": "t_uint256"
							},
							{
								"astId": 172,
								"contract": "contracts/SyCrowBarter.sol:SyCrowBarter",
								"label": "_amountOut",
								"offset": 0,
								"slot": "2",
								"type": "t_uint256"
							}
						],
						"numberOfBytes": "96"
					},
					"t_uint256": {
						"encoding": "inplace",
						"label": "uint256",
						"numberOfBytes": "32"
					}
				}
			},
			"userdoc": {
				"kind": "user",
				"methods": {},
				"version": 1
			}
		}
	}
}