{
	"contracts/SycrowBarter.sol": {
		"SyCrowBarter": {
			"abi": [
				{
					"inputs": [],
					"stateMutability": "nonpayable",
					"type": "constructor"
				},
				{
					"anonymous": false,
					"inputs": [
						{
							"indexed": true,
							"internalType": "address",
							"name": "previousOwner",
							"type": "address"
						},
						{
							"indexed": true,
							"internalType": "address",
							"name": "newOwner",
							"type": "address"
						}
					],
					"name": "OwnershipTransferred",
					"type": "event"
				},
				{
					"stateMutability": "payable",
					"type": "fallback"
				},
				{
					"inputs": [],
					"name": "_initialized",
					"outputs": [
						{
							"internalType": "bool",
							"name": "",
							"type": "bool"
						}
					],
					"stateMutability": "view",
					"type": "function"
				},
				{
					"inputs": [],
					"name": "allowMultiBarter",
					"outputs": [
						{
							"internalType": "bool",
							"name": "",
							"type": "bool"
						}
					],
					"stateMutability": "view",
					"type": "function"
				},
				{
					"inputs": [],
					"name": "barterType",
					"outputs": [
						{
							"internalType": "enum ISyCrowBarterType",
							"name": "",
							"type": "uint8"
						}
					],
					"stateMutability": "view",
					"type": "function"
				},
				{
					"inputs": [],
					"name": "deadline",
					"outputs": [
						{
							"internalType": "uint256",
							"name": "",
							"type": "uint256"
						}
					],
					"stateMutability": "view",
					"type": "function"
				},
				{
					"inputs": [],
					"name": "factory",
					"outputs": [
						{
							"internalType": "address",
							"name": "",
							"type": "address"
						}
					],
					"stateMutability": "view",
					"type": "function"
				},
				{
					"inputs": [],
					"name": "getAmounts",
					"outputs": [
						{
							"internalType": "uint256",
							"name": "",
							"type": "uint256"
						},
						{
							"internalType": "uint256",
							"name": "",
							"type": "uint256"
						}
					],
					"stateMutability": "view",
					"type": "function"
				},
				{
					"inputs": [],
					"name": "getTokens",
					"outputs": [
						{
							"internalType": "address",
							"name": "",
							"type": "address"
						},
						{
							"internalType": "address",
							"name": "",
							"type": "address"
						}
					],
					"stateMutability": "view",
					"type": "function"
				},
				{
					"inputs": [
						{
							"internalType": "uint256",
							"name": "amount",
							"type": "uint256"
						}
					],
					"name": "getTradeOutAmount",
					"outputs": [
						{
							"internalType": "uint256",
							"name": "",
							"type": "uint256"
						}
					],
					"stateMutability": "view",
					"type": "function"
				},
				{
					"inputs": [],
					"name": "getTrades",
					"outputs": [
						{
							"internalType": "address[]",
							"name": "",
							"type": "address[]"
						},
						{
							"internalType": "uint256[]",
							"name": "",
							"type": "uint256[]"
						},
						{
							"internalType": "uint256[]",
							"name": "",
							"type": "uint256[]"
						}
					],
					"stateMutability": "view",
					"type": "function"
				},
				{
					"inputs": [
						{
							"internalType": "enum ISyCrowBarterType",
							"name": "_barterType",
							"type": "uint8"
						},
						{
							"internalType": "address",
							"name": "inToken",
							"type": "address"
						},
						{
							"internalType": "address",
							"name": "outToken",
							"type": "address"
						},
						{
							"internalType": "uint256",
							"name": "amountDeposited",
							"type": "uint256"
						},
						{
							"internalType": "uint256",
							"name": "amountExpected",
							"type": "uint256"
						},
						{
							"internalType": "uint256",
							"name": "_deadline",
							"type": "uint256"
						},
						{
							"internalType": "bool",
							"name": "_allowMultiBarter",
							"type": "bool"
						},
						{
							"internalType": "address",
							"name": "_WETH",
							"type": "address"
						}
					],
					"name": "initialize",
					"outputs": [
						{
							"internalType": "bool",
							"name": "",
							"type": "bool"
						}
					],
					"stateMutability": "nonpayable",
					"type": "function"
				},
				{
					"inputs": [],
					"name": "owner",
					"outputs": [
						{
							"internalType": "address",
							"name": "",
							"type": "address"
						}
					],
					"stateMutability": "view",
					"type": "function"
				},
				{
					"inputs": [],
					"name": "renounceOwnership",
					"outputs": [],
					"stateMutability": "nonpayable",
					"type": "function"
				},
				{
					"inputs": [],
					"name": "totalTradeAmount",
					"outputs": [
						{
							"internalType": "uint256",
							"name": "",
							"type": "uint256"
						}
					],
					"stateMutability": "view",
					"type": "function"
				},
				{
					"inputs": [
						{
							"internalType": "uint256",
							"name": "inAmount",
							"type": "uint256"
						}
					],
					"name": "tradeEthForToken",
					"outputs": [],
					"stateMutability": "payable",
					"type": "function"
				},
				{
					"inputs": [
						{
							"internalType": "uint256",
							"name": "inAmount",
							"type": "uint256"
						}
					],
					"name": "tradeTokenForEth",
					"outputs": [],
					"stateMutability": "nonpayable",
					"type": "function"
				},
				{
					"inputs": [
						{
							"internalType": "uint256",
							"name": "inAmount",
							"type": "uint256"
						}
					],
					"name": "tradeTokenForToken",
					"outputs": [],
					"stateMutability": "nonpayable",
					"type": "function"
				},
				{
					"inputs": [
						{
							"internalType": "address",
							"name": "newOwner",
							"type": "address"
						}
					],
					"name": "transferOwnership",
					"outputs": [],
					"stateMutability": "nonpayable",
					"type": "function"
				},
				{
					"inputs": [],
					"name": "withdraw",
					"outputs": [],
					"stateMutability": "nonpayable",
					"type": "function"
				},
				{
					"stateMutability": "payable",
					"type": "receive"
				}
			],
			"devdoc": {
				"kind": "dev",
				"methods": {
					"owner()": {
						"details": "Returns the address of the current owner."
					},
					"renounceOwnership()": {
						"details": "Leaves the contract without owner. It will not be possible to call `onlyOwner` functions anymore. Can only be called by the current owner. NOTE: Renouncing ownership will leave the contract without an owner, thereby removing any functionality that is only available to the owner."
					},
					"transferOwnership(address)": {
						"details": "Transfers ownership of the contract to a new account (`newOwner`). Can only be called by the current owner."
					}
				},
				"version": 1
			},
			"evm": {
				"assembly": "    /* \"contracts/SycrowBarter.sol\":332:10512  contract SyCrowBarter is ISyCrowBarter, Ownable, ReentrancyGuard {... */\n  mstore(0x40, 0xa0)\n    /* \"contracts/SycrowBarter.sol\":620:652  bool public _initialized = false */\n  0x05\n  dup1\n  sload\n  not(shl(0xa8, 0xff))\n  and\n  swap1\n  sstore\n    /* \"contracts/SycrowBarter.sol\":1824:1875  constructor() {... */\n  callvalue\n  dup1\n  iszero\n  tag_1\n  jumpi\n  0x00\n  dup1\n  revert\ntag_1:\n  pop\n    /* \"@openzeppelin/contracts/access/Ownable.sol\":921:953  _transferOwnership(_msgSender()) */\n  tag_6\n    /* \"@openzeppelin/contracts/utils/Context.sol\":719:729  msg.sender */\n  caller\n    /* \"@openzeppelin/contracts/access/Ownable.sol\":921:939  _transferOwnership */\n  tag_9\n    /* \"@openzeppelin/contracts/access/Ownable.sol\":921:953  _transferOwnership(_msgSender()) */\n  jump\t// in\ntag_6:\n    /* \"@openzeppelin/contracts/security/ReentrancyGuard.sol\":1701:1702  1 */\n  0x01\n    /* \"@openzeppelin/contracts/security/ReentrancyGuard.sol\":1806:1828  _status = _NOT_ENTERED */\n  dup1\n  sstore\n    /* \"contracts/SycrowBarter.sol\":1858:1868  msg.sender */\n  caller\n    /* \"contracts/SycrowBarter.sol\":1848:1868  factory = msg.sender */\n  0x80\n  mstore\n    /* \"contracts/SycrowBarter.sol\":332:10512  contract SyCrowBarter is ISyCrowBarter, Ownable, ReentrancyGuard {... */\n  jump(tag_12)\n    /* \"@openzeppelin/contracts/access/Ownable.sol\":2270:2457  function _transferOwnership(address newOwner) internal virtual {... */\ntag_9:\n    /* \"@openzeppelin/contracts/access/Ownable.sol\":2343:2359  address oldOwner */\n  0x00\n    /* \"@openzeppelin/contracts/access/Ownable.sol\":2362:2368  _owner */\n  dup1\n  sload\n  sub(shl(0xa0, 0x01), 0x01)\n    /* \"@openzeppelin/contracts/access/Ownable.sol\":2378:2395  _owner = newOwner */\n  dup4\n  dup2\n  and\n  not(sub(shl(0xa0, 0x01), 0x01))\n  dup4\n  and\n  dup2\n  or\n  dup5\n  sstore\n    /* \"@openzeppelin/contracts/access/Ownable.sol\":2410:2450  OwnershipTransferred(oldOwner, newOwner) */\n  mload(0x40)\n    /* \"@openzeppelin/contracts/access/Ownable.sol\":2362:2368  _owner */\n  swap2\n  swap1\n  swap3\n  and\n  swap3\n  dup4\n  swap2\n    /* \"@openzeppelin/contracts/access/Ownable.sol\":2410:2450  OwnershipTransferred(oldOwner, newOwner) */\n  0x8be0079c531659141344cd1fd0a4f28419497f9722a3daafe3b4186f6b6457e0\n  swap2\n    /* \"@openzeppelin/contracts/access/Ownable.sol\":2343:2359  address oldOwner */\n  swap1\n    /* \"@openzeppelin/contracts/access/Ownable.sol\":2410:2450  OwnershipTransferred(oldOwner, newOwner) */\n  log3\n    /* \"@openzeppelin/contracts/access/Ownable.sol\":2333:2457  {... */\n  pop\n    /* \"@openzeppelin/contracts/access/Ownable.sol\":2270:2457  function _transferOwnership(address newOwner) internal virtual {... */\n  pop\n  jump\t// out\n    /* \"contracts/SycrowBarter.sol\":332:10512  contract SyCrowBarter is ISyCrowBarter, Ownable, ReentrancyGuard {... */\ntag_12:\n  mload(0x80)\n  codecopy(0x00, dataOffset(sub_0), dataSize(sub_0))\n  0x00\n  assignImmutable(\"0x9d6b7fbd0ded42ab14e47300e428df3f38e4fbb3a7f790d898a87bff4f86606b\")\n  return(0x00, dataSize(sub_0))\nstop\n\nsub_0: assembly {\n        /* \"contracts/SycrowBarter.sol\":332:10512  contract SyCrowBarter is ISyCrowBarter, Ownable, ReentrancyGuard {... */\n      mstore(0x40, 0x80)\n      jumpi(tag_1, lt(calldatasize, 0x04))\n      shr(0xe0, calldataload(0x00))\n      dup1\n      0x715018a6\n      gt\n      tag_21\n      jumpi\n      dup1\n      0xc45a0155\n      gt\n      tag_22\n      jumpi\n      dup1\n      0xc45a0155\n      eq\n      tag_16\n      jumpi\n      dup1\n      0xc6ea7038\n      eq\n      tag_17\n      jumpi\n      dup1\n      0xdab5a8df\n      eq\n      tag_18\n      jumpi\n      dup1\n      0xe43372e9\n      eq\n      tag_19\n      jumpi\n      dup1\n      0xf2fde38b\n      eq\n      tag_20\n      jumpi\n      stop\n    tag_22:\n      dup1\n      0x715018a6\n      eq\n      tag_12\n      jumpi\n      dup1\n      0x89523742\n      eq\n      tag_13\n      jumpi\n      dup1\n      0x8da5cb5b\n      eq\n      tag_14\n      jumpi\n      dup1\n      0xaa6ca808\n      eq\n      tag_15\n      jumpi\n      stop\n    tag_21:\n      dup1\n      0x3ccfd60b\n      gt\n      tag_23\n      jumpi\n      dup1\n      0x3ccfd60b\n      eq\n      tag_7\n      jumpi\n      dup1\n      0x3d370b4e\n      eq\n      tag_8\n      jumpi\n      dup1\n      0x40a6f1ab\n      eq\n      tag_9\n      jumpi\n      dup1\n      0x4341f920\n      eq\n      tag_10\n      jumpi\n      dup1\n      0x5f5780e5\n      eq\n      tag_11\n      jumpi\n      stop\n    tag_23:\n      dup1\n      0x0d182605\n      eq\n      tag_3\n      jumpi\n      dup1\n      0x29dcb0cf\n      eq\n      tag_4\n      jumpi\n      dup1\n      0x2ffc6887\n      eq\n      tag_5\n      jumpi\n      dup1\n      0x3072cf60\n      eq\n      tag_6\n      jumpi\n      stop\n    tag_1:\n      jumpi(tag_2, calldatasize)\n      stop\n    tag_2:\n      stop\n        /* \"contracts/SycrowBarter.sol\":4464:4912  function tradeTokenForEth(uint256 inAmount)... */\n    tag_3:\n      callvalue\n      dup1\n      iszero\n      tag_28\n      jumpi\n      0x00\n      dup1\n      revert\n    tag_28:\n      pop\n      tag_2\n      tag_30\n      calldatasize\n      0x04\n      tag_31\n      jump\t// in\n    tag_30:\n      tag_32\n      jump\t// in\n        /* \"contracts/SycrowBarter.sol\":522:545  uint256 public deadline */\n    tag_4:\n      callvalue\n      dup1\n      iszero\n      tag_33\n      jumpi\n      0x00\n      dup1\n      revert\n    tag_33:\n      pop\n      tag_34\n      sload(0x04)\n      dup2\n      jump\n    tag_34:\n      mload(0x40)\n        /* \"#utility.yul\":345:370   */\n      swap1\n      dup2\n      mstore\n        /* \"#utility.yul\":333:335   */\n      0x20\n        /* \"#utility.yul\":318:336   */\n      add\n        /* \"contracts/SycrowBarter.sol\":522:545  uint256 public deadline */\n    tag_36:\n      mload(0x40)\n      dup1\n      swap2\n      sub\n      swap1\n      return\n        /* \"contracts/SycrowBarter.sol\":4004:4458  function tradeTokenForToken(uint256 inAmount)... */\n    tag_5:\n      callvalue\n      dup1\n      iszero\n      tag_38\n      jumpi\n      0x00\n      dup1\n      revert\n    tag_38:\n      pop\n      tag_2\n      tag_40\n      calldatasize\n      0x04\n      tag_31\n      jump\t// in\n    tag_40:\n      tag_41\n      jump\t// in\n        /* \"contracts/SycrowBarter.sol\":620:652  bool public _initialized = false */\n    tag_6:\n      callvalue\n      dup1\n      iszero\n      tag_42\n      jumpi\n      0x00\n      dup1\n      revert\n    tag_42:\n      pop\n      sload(0x05)\n      tag_43\n      swap1\n      shl(0xa8, 0x01)\n      swap1\n      div\n      0xff\n      and\n      dup2\n      jump\n    tag_43:\n      mload(0x40)\n        /* \"#utility.yul\":546:560   */\n      swap1\n      iszero\n        /* \"#utility.yul\":539:561   */\n      iszero\n        /* \"#utility.yul\":521:562   */\n      dup2\n      mstore\n        /* \"#utility.yul\":509:511   */\n      0x20\n        /* \"#utility.yul\":494:512   */\n      add\n        /* \"contracts/SycrowBarter.sol\":620:652  bool public _initialized = false */\n      tag_36\n        /* \"#utility.yul\":381:568   */\n      jump\n        /* \"contracts/SycrowBarter.sol\":8495:10172  function withdraw() external override checkInActive initialized onlyOwner {... */\n    tag_7:\n      callvalue\n      dup1\n      iszero\n      tag_47\n      jumpi\n      0x00\n      dup1\n      revert\n    tag_47:\n      pop\n      tag_2\n      tag_49\n      jump\t// in\n        /* \"contracts/SycrowBarter.sol\":2915:3102  function getAmounts()... */\n    tag_8:\n      callvalue\n      dup1\n      iszero\n      tag_50\n      jumpi\n      0x00\n      dup1\n      revert\n    tag_50:\n      pop\n      tag_51\n      tag_52\n      jump\t// in\n    tag_51:\n      0x40\n      dup1\n      mload\n        /* \"#utility.yul\":747:772   */\n      swap3\n      dup4\n      mstore\n        /* \"#utility.yul\":803:805   */\n      0x20\n        /* \"#utility.yul\":788:806   */\n      dup4\n      add\n        /* \"#utility.yul\":781:815   */\n      swap2\n      swap1\n      swap2\n      mstore\n        /* \"#utility.yul\":720:738   */\n      add\n        /* \"contracts/SycrowBarter.sol\":2915:3102  function getAmounts()... */\n      tag_36\n        /* \"#utility.yul\":573:821   */\n      jump\n        /* \"contracts/SycrowBarter.sol\":450:481  uint256 public totalTradeAmount */\n    tag_9:\n      callvalue\n      dup1\n      iszero\n      tag_55\n      jumpi\n      0x00\n      dup1\n      revert\n    tag_55:\n      pop\n      tag_34\n      sload(0x02)\n      dup2\n      jump\n        /* \"contracts/SycrowBarter.sol\":4918:5383  function tradeEthForToken(uint256 inAmount)... */\n    tag_10:\n      tag_2\n      tag_60\n      calldatasize\n      0x04\n      tag_31\n      jump\t// in\n    tag_60:\n      tag_61\n      jump\t// in\n        /* \"contracts/SycrowBarter.sol\":1881:2909  function initialize(... */\n    tag_11:\n      callvalue\n      dup1\n      iszero\n      tag_62\n      jumpi\n      0x00\n      dup1\n      revert\n    tag_62:\n      pop\n      tag_43\n      tag_64\n      calldatasize\n      0x04\n      tag_65\n      jump\t// in\n    tag_64:\n      tag_66\n      jump\t// in\n        /* \"@openzeppelin/contracts/access/Ownable.sol\":1668:1769  function renounceOwnership() public virtual onlyOwner {... */\n    tag_12:\n      callvalue\n      dup1\n      iszero\n      tag_68\n      jumpi\n      0x00\n      dup1\n      revert\n    tag_68:\n      pop\n      tag_2\n      tag_70\n      jump\t// in\n        /* \"contracts/SycrowBarter.sol\":551:586  ISyCrowBarterType public barterType */\n    tag_13:\n      callvalue\n      dup1\n      iszero\n      tag_71\n      jumpi\n      0x00\n      dup1\n      revert\n    tag_71:\n      pop\n      sload(0x05)\n      tag_72\n      swap1\n      0xff\n      and\n      dup2\n      jump\n    tag_72:\n      mload(0x40)\n      tag_36\n      swap2\n      swap1\n      tag_75\n      jump\t// in\n        /* \"@openzeppelin/contracts/access/Ownable.sol\":1036:1121  function owner() public view virtual returns (address) {... */\n    tag_14:\n      callvalue\n      dup1\n      iszero\n      tag_76\n      jumpi\n      0x00\n      dup1\n      revert\n    tag_76:\n      pop\n        /* \"@openzeppelin/contracts/access/Ownable.sol\":1082:1089  address */\n      0x00\n        /* \"@openzeppelin/contracts/access/Ownable.sol\":1108:1114  _owner */\n      sload\n      sub(shl(0xa0, 0x01), 0x01)\n      and\n        /* \"@openzeppelin/contracts/access/Ownable.sol\":1036:1121  function owner() public view virtual returns (address) {... */\n    tag_77:\n      mload(0x40)\n      sub(shl(0xa0, 0x01), 0x01)\n        /* \"#utility.yul\":2627:2659   */\n      swap1\n      swap2\n      and\n        /* \"#utility.yul\":2609:2660   */\n      dup2\n      mstore\n        /* \"#utility.yul\":2597:2599   */\n      0x20\n        /* \"#utility.yul\":2582:2600   */\n      add\n        /* \"@openzeppelin/contracts/access/Ownable.sol\":1036:1121  function owner() public view virtual returns (address) {... */\n      tag_36\n        /* \"#utility.yul\":2463:2666   */\n      jump\n        /* \"contracts/SycrowBarter.sol\":3108:3306  function getTokens()... */\n    tag_15:\n      callvalue\n      dup1\n      iszero\n      tag_81\n      jumpi\n      0x00\n      dup1\n      revert\n    tag_81:\n      pop\n      tag_82\n      tag_83\n      jump\t// in\n    tag_82:\n      0x40\n      dup1\n      mload\n      sub(shl(0xa0, 0x01), 0x01)\n        /* \"#utility.yul\":2901:2916   */\n      swap4\n      dup5\n      and\n        /* \"#utility.yul\":2883:2917   */\n      dup2\n      mstore\n        /* \"#utility.yul\":2953:2968   */\n      swap3\n      swap1\n      swap2\n      and\n        /* \"#utility.yul\":2948:2950   */\n      0x20\n        /* \"#utility.yul\":2933:2951   */\n      dup4\n      add\n        /* \"#utility.yul\":2926:2969   */\n      mstore\n        /* \"#utility.yul\":2818:2836   */\n      add\n        /* \"contracts/SycrowBarter.sol\":3108:3306  function getTokens()... */\n      tag_36\n        /* \"#utility.yul\":2671:2975   */\n      jump\n        /* \"contracts/SycrowBarter.sol\":403:444  address public immutable override factory */\n    tag_16:\n      callvalue\n      dup1\n      iszero\n      tag_86\n      jumpi\n      0x00\n      dup1\n      revert\n    tag_86:\n      pop\n      tag_77\n      immutable(\"0x9d6b7fbd0ded42ab14e47300e428df3f38e4fbb3a7f790d898a87bff4f86606b\")\n      dup2\n      jump\n        /* \"contracts/SycrowBarter.sol\":487:515  bool public allowMultiBarter */\n    tag_17:\n      callvalue\n      dup1\n      iszero\n      tag_90\n      jumpi\n      0x00\n      dup1\n      revert\n    tag_90:\n      pop\n      sload(0x03)\n      tag_43\n      swap1\n      0xff\n      and\n      dup2\n      jump\n        /* \"contracts/SycrowBarter.sol\":10178:10320  function getTradeOutAmount(uint256 amount) public view returns (uint256) {... */\n    tag_18:\n      callvalue\n      dup1\n      iszero\n      tag_94\n      jumpi\n      0x00\n      dup1\n      revert\n    tag_94:\n      pop\n      tag_34\n      tag_96\n      calldatasize\n      0x04\n      tag_31\n      jump\t// in\n    tag_96:\n      tag_97\n      jump\t// in\n        /* \"contracts/SycrowBarter.sol\":3312:3998  function getTrades()... */\n    tag_19:\n      callvalue\n      dup1\n      iszero\n      tag_99\n      jumpi\n      0x00\n      dup1\n      revert\n    tag_99:\n      pop\n      tag_100\n      tag_101\n      jump\t// in\n    tag_100:\n      mload(0x40)\n      tag_36\n      swap4\n      swap3\n      swap2\n      swap1\n      tag_103\n      jump\t// in\n        /* \"@openzeppelin/contracts/access/Ownable.sol\":1918:2116  function transferOwnership(address newOwner) public virtual onlyOwner {... */\n    tag_20:\n      callvalue\n      dup1\n      iszero\n      tag_104\n      jumpi\n      0x00\n      dup1\n      revert\n    tag_104:\n      pop\n      tag_2\n      tag_106\n      calldatasize\n      0x04\n      tag_107\n      jump\t// in\n    tag_106:\n      tag_108\n      jump\t// in\n        /* \"contracts/SycrowBarter.sol\":4464:4912  function tradeTokenForEth(uint256 inAmount)... */\n    tag_32:\n        /* \"contracts/SycrowBarter.sol\":1033:1048  block.timestamp */\n      timestamp\n        /* \"contracts/SycrowBarter.sol\":1021:1029  deadline */\n      sload(0x04)\n        /* \"contracts/SycrowBarter.sol\":1021:1048  deadline >= block.timestamp */\n      lt\n      iszero\n        /* \"contracts/SycrowBarter.sol\":1021:1086  deadline >= block.timestamp && totalTradeAmount < _expectedAmount */\n      dup1\n      iszero\n      tag_110\n      jumpi\n      pop\n        /* \"contracts/SycrowBarter.sol\":1071:1086  _expectedAmount */\n      sload(0x09)\n        /* \"contracts/SycrowBarter.sol\":1052:1068  totalTradeAmount */\n      sload(0x02)\n        /* \"contracts/SycrowBarter.sol\":1052:1086  totalTradeAmount < _expectedAmount */\n      lt\n        /* \"contracts/SycrowBarter.sol\":1021:1086  deadline >= block.timestamp && totalTradeAmount < _expectedAmount */\n    tag_110:\n        /* \"contracts/SycrowBarter.sol\":1000:1134  require(... */\n      tag_111\n      jumpi\n      mload(0x40)\n      shl(0xe5, 0x461bcd)\n      dup2\n      mstore\n      0x04\n      add\n      tag_112\n      swap1\n      tag_113\n      jump\t// in\n    tag_112:\n      mload(0x40)\n      dup1\n      swap2\n      sub\n      swap1\n      revert\n    tag_111:\n        /* \"contracts/SycrowBarter.sol\":1551:1563  _initialized */\n      sload(0x05)\n      shl(0xa8, 0x01)\n      swap1\n      div\n      0xff\n      and\n        /* \"contracts/SycrowBarter.sol\":1543:1597  require(_initialized, \"SyCrowBarter: NOT_INITIALIZED\") */\n      tag_115\n      jumpi\n      mload(0x40)\n      shl(0xe5, 0x461bcd)\n      dup2\n      mstore\n      0x04\n      add\n      tag_112\n      swap1\n      tag_117\n      jump\t// in\n    tag_115:\n        /* \"contracts/SycrowBarter.sol\":1654:1687  ISyCrowBarterFactory isycrFactory */\n      0x00\n        /* \"contracts/SycrowBarter.sol\":1711:1718  factory */\n      immutable(\"0x9d6b7fbd0ded42ab14e47300e428df3f38e4fbb3a7f790d898a87bff4f86606b\")\n        /* \"contracts/SycrowBarter.sol\":1654:1719  ISyCrowBarterFactory isycrFactory = ISyCrowBarterFactory(factory) */\n      swap1\n      pop\n        /* \"contracts/SycrowBarter.sol\":1738:1750  isycrFactory */\n      dup1\n      sub(shl(0xa0, 0x01), 0x01)\n        /* \"contracts/SycrowBarter.sol\":1738:1759  isycrFactory.isPaused */\n      and\n      0xb187bd26\n        /* \"contracts/SycrowBarter.sol\":1738:1761  isycrFactory.isPaused() */\n      mload(0x40)\n      dup2\n      0xffffffff\n      and\n      0xe0\n      shl\n      dup2\n      mstore\n      0x04\n      add\n      0x20\n      mload(0x40)\n      dup1\n      dup4\n      sub\n      dup2\n      dup7\n      gas\n      staticcall\n      iszero\n      dup1\n      iszero\n      tag_120\n      jumpi\n      returndatasize\n      0x00\n      dup1\n      returndatacopy\n      revert(0x00, returndatasize)\n    tag_120:\n      pop\n      pop\n      pop\n      pop\n      mload(0x40)\n      returndatasize\n      not(0x1f)\n      0x1f\n      dup3\n      add\n      and\n      dup3\n      add\n      dup1\n      0x40\n      mstore\n      pop\n      dup2\n      add\n      swap1\n      tag_121\n      swap2\n      swap1\n      tag_122\n      jump\t// in\n    tag_121:\n        /* \"contracts/SycrowBarter.sol\":1737:1761  !isycrFactory.isPaused() */\n      iszero\n        /* \"contracts/SycrowBarter.sol\":1729:1800  require(!isycrFactory.isPaused(), \"SyCrowBarter: Base Contract Paused\") */\n      tag_123\n      jumpi\n      mload(0x40)\n      shl(0xe5, 0x461bcd)\n      dup2\n      mstore\n      0x04\n      add\n      tag_112\n      swap1\n      tag_125\n      jump\t// in\n    tag_123:\n        /* \"contracts/SycrowBarter.sol\":1247:1257  barterType */\n      sload(0x05)\n        /* \"contracts/SycrowBarter.sol\":4626:4657  ISyCrowBarterType.ETH_FOR_TOKEN */\n      0x00\n      swap1\n        /* \"contracts/SycrowBarter.sol\":1247:1257  barterType */\n      0xff\n      and\n        /* \"contracts/SycrowBarter.sol\":1232:1257  _barterType == barterType */\n      0x02\n      dup2\n      gt\n      iszero\n      tag_128\n      jumpi\n      tag_128\n      tag_129\n      jump\t// in\n    tag_128:\n        /* \"contracts/SycrowBarter.sol\":1232:1243  _barterType */\n      dup2\n        /* \"contracts/SycrowBarter.sol\":1232:1257  _barterType == barterType */\n      0x02\n      dup2\n      gt\n      iszero\n      tag_131\n      jumpi\n      tag_131\n      tag_129\n      jump\t// in\n    tag_131:\n      eq\n        /* \"contracts/SycrowBarter.sol\":1224:1295  require(_barterType == barterType, \"SyCrowBarter: INVALID_BARTER_TYPE\") */\n      tag_132\n      jumpi\n      mload(0x40)\n      shl(0xe5, 0x461bcd)\n      dup2\n      mstore\n      0x04\n      add\n      tag_112\n      swap1\n      tag_134\n      jump\t// in\n    tag_132:\n        /* \"@openzeppelin/contracts/security/ReentrancyGuard.sol\":1744:1745  2 */\n      0x02\n        /* \"@openzeppelin/contracts/security/ReentrancyGuard.sol\":2325:2332  _status */\n      sload(0x01)\n        /* \"@openzeppelin/contracts/security/ReentrancyGuard.sol\":2325:2344  _status != _ENTERED */\n      sub\n        /* \"@openzeppelin/contracts/security/ReentrancyGuard.sol\":2317:2380  require(_status != _ENTERED, \"ReentrancyGuard: reentrant call\") */\n      tag_136\n      jumpi\n      mload(0x40)\n      shl(0xe5, 0x461bcd)\n      dup2\n      mstore\n      0x04\n      add\n      tag_112\n      swap1\n      tag_138\n      jump\t// in\n    tag_136:\n        /* \"@openzeppelin/contracts/security/ReentrancyGuard.sol\":1744:1745  2 */\n      0x02\n        /* \"@openzeppelin/contracts/security/ReentrancyGuard.sol\":2455:2462  _status */\n      0x01\n        /* \"@openzeppelin/contracts/security/ReentrancyGuard.sol\":2455:2473  _status = _ENTERED */\n      sstore\n        /* \"contracts/SycrowBarter.sol\":4699:4715  allowMultiBarter */\n      and(0xff, sload(0x03))\n        /* \"contracts/SycrowBarter.sol\":4694:4869  if (!allowMultiBarter) {... */\n      tag_141\n      jumpi\n        /* \"contracts/SycrowBarter.sol\":4768:4783  _expectedAmount */\n      sload(0x09)\n        /* \"contracts/SycrowBarter.sol\":4756:4764  inAmount */\n      dup4\n        /* \"contracts/SycrowBarter.sol\":4756:4783  inAmount >= _expectedAmount */\n      lt\n      iszero\n        /* \"contracts/SycrowBarter.sol\":4731:4858  require(... */\n      tag_141\n      jumpi\n      mload(0x40)\n      shl(0xe5, 0x461bcd)\n      dup2\n      mstore\n      0x04\n      add\n      tag_112\n      swap1\n      tag_143\n      jump\t// in\n    tag_141:\n        /* \"contracts/SycrowBarter.sol\":4878:4905  _tradeTokenForEth(inAmount) */\n      tag_144\n        /* \"contracts/SycrowBarter.sol\":4896:4904  inAmount */\n      dup4\n        /* \"contracts/SycrowBarter.sol\":4878:4895  _tradeTokenForEth */\n      tag_145\n        /* \"contracts/SycrowBarter.sol\":4878:4905  _tradeTokenForEth(inAmount) */\n      jump\t// in\n    tag_144:\n      pop\n      pop\n        /* \"@openzeppelin/contracts/security/ReentrancyGuard.sol\":1701:1702  1 */\n      0x01\n        /* \"@openzeppelin/contracts/security/ReentrancyGuard.sol\":2628:2650  _status = _NOT_ENTERED */\n      dup1\n      sstore\n      pop\n        /* \"contracts/SycrowBarter.sol\":4464:4912  function tradeTokenForEth(uint256 inAmount)... */\n      jump\t// out\n        /* \"contracts/SycrowBarter.sol\":4004:4458  function tradeTokenForToken(uint256 inAmount)... */\n    tag_41:\n        /* \"contracts/SycrowBarter.sol\":1033:1048  block.timestamp */\n      timestamp\n        /* \"contracts/SycrowBarter.sol\":1021:1029  deadline */\n      sload(0x04)\n        /* \"contracts/SycrowBarter.sol\":1021:1048  deadline >= block.timestamp */\n      lt\n      iszero\n        /* \"contracts/SycrowBarter.sol\":1021:1086  deadline >= block.timestamp && totalTradeAmount < _expectedAmount */\n      dup1\n      iszero\n      tag_147\n      jumpi\n      pop\n        /* \"contracts/SycrowBarter.sol\":1071:1086  _expectedAmount */\n      sload(0x09)\n        /* \"contracts/SycrowBarter.sol\":1052:1068  totalTradeAmount */\n      sload(0x02)\n        /* \"contracts/SycrowBarter.sol\":1052:1086  totalTradeAmount < _expectedAmount */\n      lt\n        /* \"contracts/SycrowBarter.sol\":1021:1086  deadline >= block.timestamp && totalTradeAmount < _expectedAmount */\n    tag_147:\n        /* \"contracts/SycrowBarter.sol\":1000:1134  require(... */\n      tag_148\n      jumpi\n      mload(0x40)\n      shl(0xe5, 0x461bcd)\n      dup2\n      mstore\n      0x04\n      add\n      tag_112\n      swap1\n      tag_113\n      jump\t// in\n    tag_148:\n        /* \"contracts/SycrowBarter.sol\":1551:1563  _initialized */\n      sload(0x05)\n      shl(0xa8, 0x01)\n      swap1\n      div\n      0xff\n      and\n        /* \"contracts/SycrowBarter.sol\":1543:1597  require(_initialized, \"SyCrowBarter: NOT_INITIALIZED\") */\n      tag_151\n      jumpi\n      mload(0x40)\n      shl(0xe5, 0x461bcd)\n      dup2\n      mstore\n      0x04\n      add\n      tag_112\n      swap1\n      tag_117\n      jump\t// in\n    tag_151:\n        /* \"contracts/SycrowBarter.sol\":1654:1687  ISyCrowBarterFactory isycrFactory */\n      0x00\n        /* \"contracts/SycrowBarter.sol\":1711:1718  factory */\n      immutable(\"0x9d6b7fbd0ded42ab14e47300e428df3f38e4fbb3a7f790d898a87bff4f86606b\")\n        /* \"contracts/SycrowBarter.sol\":1654:1719  ISyCrowBarterFactory isycrFactory = ISyCrowBarterFactory(factory) */\n      swap1\n      pop\n        /* \"contracts/SycrowBarter.sol\":1738:1750  isycrFactory */\n      dup1\n      sub(shl(0xa0, 0x01), 0x01)\n        /* \"contracts/SycrowBarter.sol\":1738:1759  isycrFactory.isPaused */\n      and\n      0xb187bd26\n        /* \"contracts/SycrowBarter.sol\":1738:1761  isycrFactory.isPaused() */\n      mload(0x40)\n      dup2\n      0xffffffff\n      and\n      0xe0\n      shl\n      dup2\n      mstore\n      0x04\n      add\n      0x20\n      mload(0x40)\n      dup1\n      dup4\n      sub\n      dup2\n      dup7\n      gas\n      staticcall\n      iszero\n      dup1\n      iszero\n      tag_155\n      jumpi\n      returndatasize\n      0x00\n      dup1\n      returndatacopy\n      revert(0x00, returndatasize)\n    tag_155:\n      pop\n      pop\n      pop\n      pop\n      mload(0x40)\n      returndatasize\n      not(0x1f)\n      0x1f\n      dup3\n      add\n      and\n      dup3\n      add\n      dup1\n      0x40\n      mstore\n      pop\n      dup2\n      add\n      swap1\n      tag_156\n      swap2\n      swap1\n      tag_122\n      jump\t// in\n    tag_156:\n        /* \"contracts/SycrowBarter.sol\":1737:1761  !isycrFactory.isPaused() */\n      iszero\n        /* \"contracts/SycrowBarter.sol\":1729:1800  require(!isycrFactory.isPaused(), \"SyCrowBarter: Base Contract Paused\") */\n      tag_157\n      jumpi\n      mload(0x40)\n      shl(0xe5, 0x461bcd)\n      dup2\n      mstore\n      0x04\n      add\n      tag_112\n      swap1\n      tag_125\n      jump\t// in\n    tag_157:\n        /* \"contracts/SycrowBarter.sol\":1247:1257  barterType */\n      sload(0x05)\n        /* \"contracts/SycrowBarter.sol\":4168:4201  ISyCrowBarterType.TOKEN_FOR_TOKEN */\n      0x02\n      swap1\n        /* \"contracts/SycrowBarter.sol\":1247:1257  barterType */\n      0xff\n      and\n        /* \"contracts/SycrowBarter.sol\":1232:1257  _barterType == barterType */\n      dup2\n      dup2\n      gt\n      iszero\n      tag_161\n      jumpi\n      tag_161\n      tag_129\n      jump\t// in\n    tag_161:\n        /* \"contracts/SycrowBarter.sol\":1232:1243  _barterType */\n      dup2\n        /* \"contracts/SycrowBarter.sol\":1232:1257  _barterType == barterType */\n      0x02\n      dup2\n      gt\n      iszero\n      tag_163\n      jumpi\n      tag_163\n      tag_129\n      jump\t// in\n    tag_163:\n      eq\n        /* \"contracts/SycrowBarter.sol\":1224:1295  require(_barterType == barterType, \"SyCrowBarter: INVALID_BARTER_TYPE\") */\n      tag_164\n      jumpi\n      mload(0x40)\n      shl(0xe5, 0x461bcd)\n      dup2\n      mstore\n      0x04\n      add\n      tag_112\n      swap1\n      tag_134\n      jump\t// in\n    tag_164:\n        /* \"@openzeppelin/contracts/security/ReentrancyGuard.sol\":1744:1745  2 */\n      0x02\n        /* \"@openzeppelin/contracts/security/ReentrancyGuard.sol\":2325:2332  _status */\n      sload(0x01)\n        /* \"@openzeppelin/contracts/security/ReentrancyGuard.sol\":2325:2344  _status != _ENTERED */\n      sub\n        /* \"@openzeppelin/contracts/security/ReentrancyGuard.sol\":2317:2380  require(_status != _ENTERED, \"ReentrancyGuard: reentrant call\") */\n      tag_167\n      jumpi\n      mload(0x40)\n      shl(0xe5, 0x461bcd)\n      dup2\n      mstore\n      0x04\n      add\n      tag_112\n      swap1\n      tag_138\n      jump\t// in\n    tag_167:\n        /* \"@openzeppelin/contracts/security/ReentrancyGuard.sol\":1744:1745  2 */\n      0x02\n        /* \"@openzeppelin/contracts/security/ReentrancyGuard.sol\":2455:2462  _status */\n      0x01\n        /* \"@openzeppelin/contracts/security/ReentrancyGuard.sol\":2455:2473  _status = _ENTERED */\n      sstore\n        /* \"contracts/SycrowBarter.sol\":4243:4259  allowMultiBarter */\n      and(0xff, sload(0x03))\n        /* \"contracts/SycrowBarter.sol\":4238:4413  if (!allowMultiBarter) {... */\n      tag_171\n      jumpi\n        /* \"contracts/SycrowBarter.sol\":4312:4327  _expectedAmount */\n      sload(0x09)\n        /* \"contracts/SycrowBarter.sol\":4300:4308  inAmount */\n      dup4\n        /* \"contracts/SycrowBarter.sol\":4300:4327  inAmount >= _expectedAmount */\n      lt\n      iszero\n        /* \"contracts/SycrowBarter.sol\":4275:4402  require(... */\n      tag_171\n      jumpi\n      mload(0x40)\n      shl(0xe5, 0x461bcd)\n      dup2\n      mstore\n      0x04\n      add\n      tag_112\n      swap1\n      tag_143\n      jump\t// in\n    tag_171:\n        /* \"contracts/SycrowBarter.sol\":4422:4451  _tradeTokenForToken(inAmount) */\n      tag_144\n        /* \"contracts/SycrowBarter.sol\":4442:4450  inAmount */\n      dup4\n        /* \"contracts/SycrowBarter.sol\":4422:4441  _tradeTokenForToken */\n      tag_174\n        /* \"contracts/SycrowBarter.sol\":4422:4451  _tradeTokenForToken(inAmount) */\n      jump\t// in\n        /* \"contracts/SycrowBarter.sol\":8495:10172  function withdraw() external override checkInActive initialized onlyOwner {... */\n    tag_49:\n        /* \"contracts/SycrowBarter.sol\":1386:1401  block.timestamp */\n      timestamp\n        /* \"contracts/SycrowBarter.sol\":1375:1383  deadline */\n      sload(0x04)\n        /* \"contracts/SycrowBarter.sol\":1375:1401  deadline < block.timestamp */\n      lt\n        /* \"contracts/SycrowBarter.sol\":1375:1440  deadline < block.timestamp || totalTradeAmount >= _expectedAmount */\n      dup1\n      tag_176\n      jumpi\n      pop\n        /* \"contracts/SycrowBarter.sol\":1425:1440  _expectedAmount */\n      sload(0x09)\n        /* \"contracts/SycrowBarter.sol\":1405:1421  totalTradeAmount */\n      sload(0x02)\n        /* \"contracts/SycrowBarter.sol\":1405:1440  totalTradeAmount >= _expectedAmount */\n      lt\n      iszero\n        /* \"contracts/SycrowBarter.sol\":1375:1440  deadline < block.timestamp || totalTradeAmount >= _expectedAmount */\n    tag_176:\n        /* \"contracts/SycrowBarter.sol\":1354:1486  require(... */\n      tag_177\n      jumpi\n      mload(0x40)\n      shl(0xe5, 0x461bcd)\n      dup2\n      mstore\n        /* \"#utility.yul\":7389:7391   */\n      0x20\n        /* \"contracts/SycrowBarter.sol\":1354:1486  require(... */\n      0x04\n      dup3\n      add\n        /* \"#utility.yul\":7371:7392   */\n      mstore\n        /* \"#utility.yul\":7428:7430   */\n      0x14\n        /* \"#utility.yul\":7408:7426   */\n      0x24\n      dup3\n      add\n        /* \"#utility.yul\":7401:7431   */\n      mstore\n      shl(0x60, 0x537943726f774261727465723a20414354495645)\n        /* \"#utility.yul\":7447:7465   */\n      0x44\n      dup3\n      add\n        /* \"#utility.yul\":7440:7490   */\n      mstore\n        /* \"#utility.yul\":7507:7525   */\n      0x64\n      add\n        /* \"contracts/SycrowBarter.sol\":1354:1486  require(... */\n      tag_112\n        /* \"#utility.yul\":7187:7531   */\n      jump\n        /* \"contracts/SycrowBarter.sol\":1354:1486  require(... */\n    tag_177:\n        /* \"contracts/SycrowBarter.sol\":1551:1563  _initialized */\n      sload(0x05)\n      shl(0xa8, 0x01)\n      swap1\n      div\n      0xff\n      and\n        /* \"contracts/SycrowBarter.sol\":1543:1597  require(_initialized, \"SyCrowBarter: NOT_INITIALIZED\") */\n      tag_181\n      jumpi\n      mload(0x40)\n      shl(0xe5, 0x461bcd)\n      dup2\n      mstore\n      0x04\n      add\n      tag_112\n      swap1\n      tag_117\n      jump\t// in\n    tag_181:\n        /* \"@openzeppelin/contracts/access/Ownable.sol\":1082:1089  address */\n      0x00\n        /* \"@openzeppelin/contracts/access/Ownable.sol\":1108:1114  _owner */\n      sload\n      sub(shl(0xa0, 0x01), 0x01)\n      and\n        /* \"@openzeppelin/contracts/utils/Context.sol\":719:729  msg.sender */\n      caller\n        /* \"@openzeppelin/contracts/access/Ownable.sol\":1248:1271  owner() == _msgSender() */\n      eq\n        /* \"@openzeppelin/contracts/access/Ownable.sol\":1240:1308  require(owner() == _msgSender(), \"Ownable: caller is not the owner\") */\n      tag_187\n      jumpi\n      mload(0x40)\n      shl(0xe5, 0x461bcd)\n      dup2\n      mstore\n      0x04\n      add\n      tag_112\n      swap1\n      tag_189\n      jump\t// in\n    tag_187:\n        /* \"contracts/SycrowBarter.sol\":8606:8610  WETH */\n      sload(0x05)\n        /* \"contracts/SycrowBarter.sol\":8643:8678  _wethErc20.balanceOf(address(this)) */\n      mload(0x40)\n      shl(0xe0, 0x70a08231)\n      dup2\n      mstore\n        /* \"contracts/SycrowBarter.sol\":8672:8676  this */\n      address\n        /* \"contracts/SycrowBarter.sol\":8643:8678  _wethErc20.balanceOf(address(this)) */\n      0x04\n      dup3\n      add\n        /* \"#utility.yul\":2609:2660   */\n      mstore\n        /* \"contracts/SycrowBarter.sol\":8606:8610  WETH */\n      0x0100\n      swap1\n      swap2\n      div\n      sub(shl(0xa0, 0x01), 0x01)\n      and\n      swap1\n        /* \"contracts/SycrowBarter.sol\":8579:8596  IERC20 _wethErc20 */\n      0x00\n      swap1\n        /* \"contracts/SycrowBarter.sol\":8606:8610  WETH */\n      dup3\n      swap1\n        /* \"contracts/SycrowBarter.sol\":8643:8663  _wethErc20.balanceOf */\n      0x70a08231\n      swap1\n        /* \"#utility.yul\":2582:2600   */\n      0x24\n      add\n        /* \"contracts/SycrowBarter.sol\":8643:8678  _wethErc20.balanceOf(address(this)) */\n      0x20\n      mload(0x40)\n      dup1\n      dup4\n      sub\n      dup2\n      dup7\n      gas\n      staticcall\n      iszero\n      dup1\n      iszero\n      tag_193\n      jumpi\n      returndatasize\n      0x00\n      dup1\n      returndatacopy\n      revert(0x00, returndatasize)\n    tag_193:\n      pop\n      pop\n      pop\n      pop\n      mload(0x40)\n      returndatasize\n      not(0x1f)\n      0x1f\n      dup3\n      add\n      and\n      dup3\n      add\n      dup1\n      0x40\n      mstore\n      pop\n      dup2\n      add\n      swap1\n      tag_194\n      swap2\n      swap1\n      tag_195\n      jump\t// in\n    tag_194:\n        /* \"contracts/SycrowBarter.sol\":8622:8678  uint256 ethBalance = _wethErc20.balanceOf(address(this)) */\n      swap1\n      pop\n        /* \"contracts/SycrowBarter.sol\":8693:8707  ethBalance > 0 */\n      dup1\n      iszero\n        /* \"contracts/SycrowBarter.sol\":8689:8834  if (ethBalance > 0) {... */\n      tag_201\n      jumpi\n        /* \"contracts/SycrowBarter.sol\":8729:8733  WETH */\n      sload(0x05)\n        /* \"contracts/SycrowBarter.sol\":8723:8755  IWETH(WETH).withdraw(ethBalance) */\n      mload(0x40)\n      shl(0xe0, 0x2e1a7d4d)\n      dup2\n      mstore\n      0x04\n      dup2\n      add\n        /* \"#utility.yul\":345:370   */\n      dup4\n      swap1\n      mstore\n        /* \"contracts/SycrowBarter.sol\":8729:8733  WETH */\n      0x0100\n      swap1\n      swap2\n      div\n      sub(shl(0xa0, 0x01), 0x01)\n      and\n      swap1\n        /* \"contracts/SycrowBarter.sol\":8723:8743  IWETH(WETH).withdraw */\n      0x2e1a7d4d\n      swap1\n        /* \"#utility.yul\":318:336   */\n      0x24\n      add\n        /* \"contracts/SycrowBarter.sol\":8723:8755  IWETH(WETH).withdraw(ethBalance) */\n      0x00\n      mload(0x40)\n      dup1\n      dup4\n      sub\n      dup2\n      0x00\n      dup8\n      dup1\n      extcodesize\n      iszero\n      dup1\n      iszero\n      tag_198\n      jumpi\n      0x00\n      dup1\n      revert\n    tag_198:\n      pop\n      gas\n      call\n      iszero\n      dup1\n      iszero\n      tag_200\n      jumpi\n      returndatasize\n      0x00\n      dup1\n      returndatacopy\n      revert(0x00, returndatasize)\n    tag_200:\n      pop\n      pop\n      pop\n      pop\n        /* \"contracts/SycrowBarter.sol\":8769:8823  TransferHelper.safeTransferETH(msg.sender, ethBalance) */\n      tag_201\n        /* \"contracts/SycrowBarter.sol\":8800:8810  msg.sender */\n      caller\n        /* \"contracts/SycrowBarter.sol\":8812:8822  ethBalance */\n      dup3\n        /* \"contracts/SycrowBarter.sol\":8769:8799  TransferHelper.safeTransferETH */\n      tag_202\n        /* \"contracts/SycrowBarter.sol\":8769:8823  TransferHelper.safeTransferETH(msg.sender, ethBalance) */\n      jump\t// in\n    tag_201:\n        /* \"contracts/SycrowBarter.sol\":8882:8903  _expectedTokenAddress */\n      sload(0x07)\n        /* \"contracts/SycrowBarter.sol\":8875:8951  IERC20(_expectedTokenAddress).balanceOf(... */\n      mload(0x40)\n      shl(0xe0, 0x70a08231)\n      dup2\n      mstore\n        /* \"contracts/SycrowBarter.sol\":8936:8940  this */\n      address\n        /* \"contracts/SycrowBarter.sol\":8875:8951  IERC20(_expectedTokenAddress).balanceOf(... */\n      0x04\n      dup3\n      add\n        /* \"#utility.yul\":2609:2660   */\n      mstore\n        /* \"contracts/SycrowBarter.sol\":8844:8872  uint256 expectedTokenBalance */\n      0x00\n      swap2\n      sub(shl(0xa0, 0x01), 0x01)\n        /* \"contracts/SycrowBarter.sol\":8882:8903  _expectedTokenAddress */\n      and\n      swap1\n        /* \"contracts/SycrowBarter.sol\":8875:8914  IERC20(_expectedTokenAddress).balanceOf */\n      0x70a08231\n      swap1\n        /* \"#utility.yul\":2582:2600   */\n      0x24\n      add\n        /* \"contracts/SycrowBarter.sol\":8875:8951  IERC20(_expectedTokenAddress).balanceOf(... */\n      0x20\n      mload(0x40)\n      dup1\n      dup4\n      sub\n      dup2\n      dup7\n      gas\n      staticcall\n      iszero\n      dup1\n      iszero\n      tag_205\n      jumpi\n      returndatasize\n      0x00\n      dup1\n      returndatacopy\n      revert(0x00, returndatasize)\n    tag_205:\n      pop\n      pop\n      pop\n      pop\n      mload(0x40)\n      returndatasize\n      not(0x1f)\n      0x1f\n      dup3\n      add\n      and\n      dup3\n      add\n      dup1\n      0x40\n      mstore\n      pop\n      dup2\n      add\n      swap1\n      tag_206\n      swap2\n      swap1\n      tag_195\n      jump\t// in\n    tag_206:\n        /* \"contracts/SycrowBarter.sol\":8844:8951  uint256 expectedTokenBalance = IERC20(_expectedTokenAddress).balanceOf(... */\n      swap1\n      pop\n        /* \"contracts/SycrowBarter.sol\":8966:8990  expectedTokenBalance > 0 */\n      dup1\n      iszero\n        /* \"contracts/SycrowBarter.sol\":8962:9163  if (expectedTokenBalance > 0) {... */\n      tag_208\n      jumpi\n        /* \"contracts/SycrowBarter.sol\":9051:9072  _expectedTokenAddress */\n      sload(0x07)\n        /* \"contracts/SycrowBarter.sol\":9006:9152  TransferHelper.safeTransfer(... */\n      tag_208\n      swap1\n      sub(shl(0xa0, 0x01), 0x01)\n        /* \"contracts/SycrowBarter.sol\":9051:9072  _expectedTokenAddress */\n      and\n        /* \"contracts/SycrowBarter.sol\":9090:9100  msg.sender */\n      caller\n        /* \"contracts/SycrowBarter.sol\":9118:9138  expectedTokenBalance */\n      dup4\n        /* \"contracts/SycrowBarter.sol\":9006:9033  TransferHelper.safeTransfer */\n      tag_209\n        /* \"contracts/SycrowBarter.sol\":9006:9152  TransferHelper.safeTransfer(... */\n      jump\t// in\n    tag_208:\n        /* \"contracts/SycrowBarter.sol\":9212:9234  _depositedTokenAddress */\n      sload(0x06)\n        /* \"contracts/SycrowBarter.sol\":9205:9273  IERC20(_depositedTokenAddress)... */\n      mload(0x40)\n      shl(0xe0, 0x70a08231)\n      dup2\n      mstore\n        /* \"contracts/SycrowBarter.sol\":9267:9271  this */\n      address\n        /* \"contracts/SycrowBarter.sol\":9205:9273  IERC20(_depositedTokenAddress)... */\n      0x04\n      dup3\n      add\n        /* \"#utility.yul\":2609:2660   */\n      mstore\n        /* \"contracts/SycrowBarter.sol\":9173:9202  uint256 depositedTokenBalance */\n      0x00\n      swap2\n      sub(shl(0xa0, 0x01), 0x01)\n        /* \"contracts/SycrowBarter.sol\":9212:9234  _depositedTokenAddress */\n      and\n      swap1\n        /* \"contracts/SycrowBarter.sol\":9205:9258  IERC20(_depositedTokenAddress)... */\n      0x70a08231\n      swap1\n        /* \"#utility.yul\":2582:2600   */\n      0x24\n      add\n        /* \"contracts/SycrowBarter.sol\":9205:9273  IERC20(_depositedTokenAddress)... */\n      0x20\n      mload(0x40)\n      dup1\n      dup4\n      sub\n      dup2\n      dup7\n      gas\n      staticcall\n      iszero\n      dup1\n      iszero\n      tag_212\n      jumpi\n      returndatasize\n      0x00\n      dup1\n      returndatacopy\n      revert(0x00, returndatasize)\n    tag_212:\n      pop\n      pop\n      pop\n      pop\n      mload(0x40)\n      returndatasize\n      not(0x1f)\n      0x1f\n      dup3\n      add\n      and\n      dup3\n      add\n      dup1\n      0x40\n      mstore\n      pop\n      dup2\n      add\n      swap1\n      tag_213\n      swap2\n      swap1\n      tag_195\n      jump\t// in\n    tag_213:\n        /* \"contracts/SycrowBarter.sol\":9173:9273  uint256 depositedTokenBalance = IERC20(_depositedTokenAddress)... */\n      swap1\n      pop\n        /* \"contracts/SycrowBarter.sol\":9288:9313  depositedTokenBalance > 0 */\n      dup1\n      iszero\n        /* \"contracts/SycrowBarter.sol\":9284:9488  if (depositedTokenBalance > 0) {... */\n      tag_215\n      jumpi\n        /* \"contracts/SycrowBarter.sol\":9374:9396  _depositedTokenAddress */\n      sload(0x06)\n        /* \"contracts/SycrowBarter.sol\":9329:9477  TransferHelper.safeTransfer(... */\n      tag_215\n      swap1\n      sub(shl(0xa0, 0x01), 0x01)\n        /* \"contracts/SycrowBarter.sol\":9374:9396  _depositedTokenAddress */\n      and\n        /* \"contracts/SycrowBarter.sol\":9414:9424  msg.sender */\n      caller\n        /* \"contracts/SycrowBarter.sol\":9442:9463  depositedTokenBalance */\n      dup4\n        /* \"contracts/SycrowBarter.sol\":9329:9356  TransferHelper.safeTransfer */\n      tag_209\n        /* \"contracts/SycrowBarter.sol\":9329:9477  TransferHelper.safeTransfer(... */\n      jump\t// in\n    tag_215:\n        /* \"contracts/SycrowBarter.sol\":9497:9511  uint256 value1 */\n      0x00\n      dup1\n      dup1\n        /* \"contracts/SycrowBarter.sol\":9558:9568  barterType */\n      and(0xff, sload(0x05))\n        /* \"contracts/SycrowBarter.sol\":9558:9603  barterType == ISyCrowBarterType.ETH_FOR_TOKEN */\n      0x02\n      dup2\n      gt\n      iszero\n      tag_219\n      jumpi\n      tag_219\n      tag_129\n      jump\t// in\n    tag_219:\n      sub\n        /* \"contracts/SycrowBarter.sol\":9554:9943  if (barterType == ISyCrowBarterType.ETH_FOR_TOKEN) {... */\n      tag_220\n      jumpi\n      pop\n        /* \"contracts/SycrowBarter.sol\":9628:9638  ethBalance */\n      dup4\n      swap1\n      pop\n        /* \"contracts/SycrowBarter.sol\":9661:9681  expectedTokenBalance */\n      dup3\n        /* \"contracts/SycrowBarter.sol\":9554:9943  if (barterType == ISyCrowBarterType.ETH_FOR_TOKEN) {... */\n      jump(tag_227)\n    tag_220:\n        /* \"contracts/SycrowBarter.sol\":9716:9749  ISyCrowBarterType.TOKEN_FOR_TOKEN */\n      0x02\n        /* \"contracts/SycrowBarter.sol\":9702:9712  barterType */\n      and(0xff, sload(0x05))\n        /* \"contracts/SycrowBarter.sol\":9702:9749  barterType == ISyCrowBarterType.TOKEN_FOR_TOKEN */\n      0x02\n      dup2\n      gt\n      iszero\n      tag_225\n      jumpi\n      tag_225\n      tag_129\n      jump\t// in\n    tag_225:\n      sub\n        /* \"contracts/SycrowBarter.sol\":9698:9943  if (barterType == ISyCrowBarterType.TOKEN_FOR_TOKEN) {... */\n      tag_226\n      jumpi\n      pop\n        /* \"contracts/SycrowBarter.sol\":9774:9795  depositedTokenBalance */\n      dup2\n      swap1\n      pop\n        /* \"contracts/SycrowBarter.sol\":9818:9838  expectedTokenBalance */\n      dup3\n        /* \"contracts/SycrowBarter.sol\":9698:9943  if (barterType == ISyCrowBarterType.TOKEN_FOR_TOKEN) {... */\n      jump(tag_227)\n    tag_226:\n      pop\n        /* \"contracts/SycrowBarter.sol\":9878:9899  depositedTokenBalance */\n      dup2\n      swap1\n      pop\n        /* \"contracts/SycrowBarter.sol\":9922:9932  ethBalance */\n      dup4\n        /* \"contracts/SycrowBarter.sol\":9698:9943  if (barterType == ISyCrowBarterType.TOKEN_FOR_TOKEN) {... */\n    tag_227:\n        /* \"contracts/SycrowBarter.sol\":10028:10165  sycrFactory.notifyWithdrawFromBarter(... */\n      mload(0x40)\n      shl(0xe1, 0x19bcb507)\n      dup2\n      mstore\n        /* \"contracts/SycrowBarter.sol\":10009:10016  factory */\n      immutable(\"0x9d6b7fbd0ded42ab14e47300e428df3f38e4fbb3a7f790d898a87bff4f86606b\")\n      swap1\n      sub(shl(0xa0, 0x01), 0x01)\n        /* \"contracts/SycrowBarter.sol\":10028:10064  sycrFactory.notifyWithdrawFromBarter */\n      dup3\n      and\n      swap1\n      0x33796a0e\n      swap1\n        /* \"contracts/SycrowBarter.sol\":10028:10165  sycrFactory.notifyWithdrawFromBarter(... */\n      tag_228\n      swap1\n        /* \"contracts/SycrowBarter.sol\":10086:10090  this */\n      address\n      swap1\n        /* \"contracts/SycrowBarter.sol\":10105:10115  msg.sender */\n      caller\n      swap1\n        /* \"contracts/SycrowBarter.sol\":10129:10135  value1 */\n      dup9\n      swap1\n        /* \"contracts/SycrowBarter.sol\":10149:10155  value2 */\n      dup9\n      swap1\n        /* \"contracts/SycrowBarter.sol\":10028:10165  sycrFactory.notifyWithdrawFromBarter(... */\n      0x04\n      add\n      tag_229\n      jump\t// in\n    tag_228:\n      0x00\n      mload(0x40)\n      dup1\n      dup4\n      sub\n      dup2\n      0x00\n      dup8\n      dup1\n      extcodesize\n      iszero\n      dup1\n      iszero\n      tag_230\n      jumpi\n      0x00\n      dup1\n      revert\n    tag_230:\n      pop\n      gas\n      call\n      iszero\n      dup1\n      iszero\n      tag_232\n      jumpi\n      returndatasize\n      0x00\n      dup1\n      returndatacopy\n      revert(0x00, returndatasize)\n    tag_232:\n      pop\n      pop\n      pop\n      pop\n        /* \"contracts/SycrowBarter.sol\":8569:10172  {... */\n      pop\n      pop\n      pop\n      pop\n      pop\n      pop\n      pop\n        /* \"contracts/SycrowBarter.sol\":8495:10172  function withdraw() external override checkInActive initialized onlyOwner {... */\n      jump\t// out\n        /* \"contracts/SycrowBarter.sol\":2915:3102  function getAmounts()... */\n    tag_52:\n        /* \"contracts/SycrowBarter.sol\":1551:1563  _initialized */\n      sload(0x05)\n        /* \"contracts/SycrowBarter.sol\":3021:3028  uint256 */\n      0x00\n      swap1\n      dup2\n      swap1\n      shl(0xa8, 0x01)\n        /* \"contracts/SycrowBarter.sol\":1551:1563  _initialized */\n      swap1\n      div\n      0xff\n      and\n        /* \"contracts/SycrowBarter.sol\":1543:1597  require(_initialized, \"SyCrowBarter: NOT_INITIALIZED\") */\n      tag_234\n      jumpi\n      mload(0x40)\n      shl(0xe5, 0x461bcd)\n      dup2\n      mstore\n      0x04\n      add\n      tag_112\n      swap1\n      tag_117\n      jump\t// in\n    tag_234:\n      pop\n      pop\n        /* \"contracts/SycrowBarter.sol\":3061:3077  _depositedAmount */\n      sload(0x08)\n        /* \"contracts/SycrowBarter.sol\":3079:3094  _expectedAmount */\n      sload(0x09)\n        /* \"contracts/SycrowBarter.sol\":2915:3102  function getAmounts()... */\n      swap1\n      swap2\n      jump\t// out\n        /* \"contracts/SycrowBarter.sol\":4918:5383  function tradeEthForToken(uint256 inAmount)... */\n    tag_61:\n        /* \"contracts/SycrowBarter.sol\":1033:1048  block.timestamp */\n      timestamp\n        /* \"contracts/SycrowBarter.sol\":1021:1029  deadline */\n      sload(0x04)\n        /* \"contracts/SycrowBarter.sol\":1021:1048  deadline >= block.timestamp */\n      lt\n      iszero\n        /* \"contracts/SycrowBarter.sol\":1021:1086  deadline >= block.timestamp && totalTradeAmount < _expectedAmount */\n      dup1\n      iszero\n      tag_238\n      jumpi\n      pop\n        /* \"contracts/SycrowBarter.sol\":1071:1086  _expectedAmount */\n      sload(0x09)\n        /* \"contracts/SycrowBarter.sol\":1052:1068  totalTradeAmount */\n      sload(0x02)\n        /* \"contracts/SycrowBarter.sol\":1052:1086  totalTradeAmount < _expectedAmount */\n      lt\n        /* \"contracts/SycrowBarter.sol\":1021:1086  deadline >= block.timestamp && totalTradeAmount < _expectedAmount */\n    tag_238:\n        /* \"contracts/SycrowBarter.sol\":1000:1134  require(... */\n      tag_239\n      jumpi\n      mload(0x40)\n      shl(0xe5, 0x461bcd)\n      dup2\n      mstore\n      0x04\n      add\n      tag_112\n      swap1\n      tag_113\n      jump\t// in\n    tag_239:\n        /* \"contracts/SycrowBarter.sol\":1551:1563  _initialized */\n      sload(0x05)\n      shl(0xa8, 0x01)\n      swap1\n      div\n      0xff\n      and\n        /* \"contracts/SycrowBarter.sol\":1543:1597  require(_initialized, \"SyCrowBarter: NOT_INITIALIZED\") */\n      tag_242\n      jumpi\n      mload(0x40)\n      shl(0xe5, 0x461bcd)\n      dup2\n      mstore\n      0x04\n      add\n      tag_112\n      swap1\n      tag_117\n      jump\t// in\n    tag_242:\n        /* \"contracts/SycrowBarter.sol\":1654:1687  ISyCrowBarterFactory isycrFactory */\n      0x00\n        /* \"contracts/SycrowBarter.sol\":1711:1718  factory */\n      immutable(\"0x9d6b7fbd0ded42ab14e47300e428df3f38e4fbb3a7f790d898a87bff4f86606b\")\n        /* \"contracts/SycrowBarter.sol\":1654:1719  ISyCrowBarterFactory isycrFactory = ISyCrowBarterFactory(factory) */\n      swap1\n      pop\n        /* \"contracts/SycrowBarter.sol\":1738:1750  isycrFactory */\n      dup1\n      sub(shl(0xa0, 0x01), 0x01)\n        /* \"contracts/SycrowBarter.sol\":1738:1759  isycrFactory.isPaused */\n      and\n      0xb187bd26\n        /* \"contracts/SycrowBarter.sol\":1738:1761  isycrFactory.isPaused() */\n      mload(0x40)\n      dup2\n      0xffffffff\n      and\n      0xe0\n      shl\n      dup2\n      mstore\n      0x04\n      add\n      0x20\n      mload(0x40)\n      dup1\n      dup4\n      sub\n      dup2\n      dup7\n      gas\n      staticcall\n      iszero\n      dup1\n      iszero\n      tag_246\n      jumpi\n      returndatasize\n      0x00\n      dup1\n      returndatacopy\n      revert(0x00, returndatasize)\n    tag_246:\n      pop\n      pop\n      pop\n      pop\n      mload(0x40)\n      returndatasize\n      not(0x1f)\n      0x1f\n      dup3\n      add\n      and\n      dup3\n      add\n      dup1\n      0x40\n      mstore\n      pop\n      dup2\n      add\n      swap1\n      tag_247\n      swap2\n      swap1\n      tag_122\n      jump\t// in\n    tag_247:\n        /* \"contracts/SycrowBarter.sol\":1737:1761  !isycrFactory.isPaused() */\n      iszero\n        /* \"contracts/SycrowBarter.sol\":1729:1800  require(!isycrFactory.isPaused(), \"SyCrowBarter: Base Contract Paused\") */\n      tag_248\n      jumpi\n      mload(0x40)\n      shl(0xe5, 0x461bcd)\n      dup2\n      mstore\n      0x04\n      add\n      tag_112\n      swap1\n      tag_125\n      jump\t// in\n    tag_248:\n        /* \"contracts/SycrowBarter.sol\":1247:1257  barterType */\n      sload(0x05)\n        /* \"contracts/SycrowBarter.sol\":5096:5127  ISyCrowBarterType.TOKEN_FOR_ETH */\n      0x01\n      swap1\n        /* \"contracts/SycrowBarter.sol\":1247:1257  barterType */\n      0xff\n      and\n        /* \"contracts/SycrowBarter.sol\":1232:1257  _barterType == barterType */\n      0x02\n      dup2\n      gt\n      iszero\n      tag_252\n      jumpi\n      tag_252\n      tag_129\n      jump\t// in\n    tag_252:\n        /* \"contracts/SycrowBarter.sol\":1232:1243  _barterType */\n      dup2\n        /* \"contracts/SycrowBarter.sol\":1232:1257  _barterType == barterType */\n      0x02\n      dup2\n      gt\n      iszero\n      tag_254\n      jumpi\n      tag_254\n      tag_129\n      jump\t// in\n    tag_254:\n      eq\n        /* \"contracts/SycrowBarter.sol\":1224:1295  require(_barterType == barterType, \"SyCrowBarter: INVALID_BARTER_TYPE\") */\n      tag_255\n      jumpi\n      mload(0x40)\n      shl(0xe5, 0x461bcd)\n      dup2\n      mstore\n      0x04\n      add\n      tag_112\n      swap1\n      tag_134\n      jump\t// in\n    tag_255:\n        /* \"@openzeppelin/contracts/security/ReentrancyGuard.sol\":1744:1745  2 */\n      0x02\n        /* \"@openzeppelin/contracts/security/ReentrancyGuard.sol\":2325:2332  _status */\n      sload(0x01)\n        /* \"@openzeppelin/contracts/security/ReentrancyGuard.sol\":2325:2344  _status != _ENTERED */\n      sub\n        /* \"@openzeppelin/contracts/security/ReentrancyGuard.sol\":2317:2380  require(_status != _ENTERED, \"ReentrancyGuard: reentrant call\") */\n      tag_258\n      jumpi\n      mload(0x40)\n      shl(0xe5, 0x461bcd)\n      dup2\n      mstore\n      0x04\n      add\n      tag_112\n      swap1\n      tag_138\n      jump\t// in\n    tag_258:\n        /* \"@openzeppelin/contracts/security/ReentrancyGuard.sol\":1744:1745  2 */\n      0x02\n        /* \"@openzeppelin/contracts/security/ReentrancyGuard.sol\":2455:2462  _status */\n      0x01\n        /* \"@openzeppelin/contracts/security/ReentrancyGuard.sol\":2455:2473  _status = _ENTERED */\n      sstore\n        /* \"contracts/SycrowBarter.sol\":5169:5185  allowMultiBarter */\n      and(0xff, sload(0x03))\n        /* \"contracts/SycrowBarter.sol\":5164:5340  if (!allowMultiBarter) {... */\n      tag_262\n      jumpi\n        /* \"contracts/SycrowBarter.sol\":5239:5254  _expectedAmount */\n      sload(0x09)\n        /* \"contracts/SycrowBarter.sol\":5226:5235  msg.value */\n      callvalue\n        /* \"contracts/SycrowBarter.sol\":5226:5254  msg.value >= _expectedAmount */\n      lt\n      iszero\n        /* \"contracts/SycrowBarter.sol\":5201:5329  require(... */\n      tag_262\n      jumpi\n      mload(0x40)\n      shl(0xe5, 0x461bcd)\n      dup2\n      mstore\n      0x04\n      add\n      tag_112\n      swap1\n      tag_143\n      jump\t// in\n    tag_262:\n        /* \"contracts/SycrowBarter.sol\":5349:5376  _tradeEthForToken(inAmount) */\n      tag_144\n        /* \"contracts/SycrowBarter.sol\":5367:5375  inAmount */\n      dup4\n        /* \"contracts/SycrowBarter.sol\":5349:5366  _tradeEthForToken */\n      tag_265\n        /* \"contracts/SycrowBarter.sol\":5349:5376  _tradeEthForToken(inAmount) */\n      jump\t// in\n        /* \"contracts/SycrowBarter.sol\":1881:2909  function initialize(... */\n    tag_66:\n        /* \"contracts/SycrowBarter.sol\":2162:2166  bool */\n      0x00\n        /* \"contracts/SycrowBarter.sol\":2186:2196  msg.sender */\n      caller\n      sub(shl(0xa0, 0x01), 0x01)\n        /* \"contracts/SycrowBarter.sol\":2200:2207  factory */\n      immutable(\"0x9d6b7fbd0ded42ab14e47300e428df3f38e4fbb3a7f790d898a87bff4f86606b\")\n        /* \"contracts/SycrowBarter.sol\":2186:2207  msg.sender == factory */\n      and\n      eq\n        /* \"contracts/SycrowBarter.sol\":2178:2235  require(msg.sender == factory, \"SyCrowBarter: FORBIDDEN\") */\n      tag_267\n      jumpi\n      mload(0x40)\n      shl(0xe5, 0x461bcd)\n      dup2\n      mstore\n        /* \"#utility.yul\":8740:8742   */\n      0x20\n        /* \"contracts/SycrowBarter.sol\":2178:2235  require(msg.sender == factory, \"SyCrowBarter: FORBIDDEN\") */\n      0x04\n      dup3\n      add\n        /* \"#utility.yul\":8722:8743   */\n      mstore\n        /* \"#utility.yul\":8779:8781   */\n      0x17\n        /* \"#utility.yul\":8759:8777   */\n      0x24\n      dup3\n      add\n        /* \"#utility.yul\":8752:8782   */\n      mstore\n        /* \"#utility.yul\":8818:8843   */\n      0x537943726f774261727465723a20464f5242494444454e000000000000000000\n        /* \"#utility.yul\":8798:8816   */\n      0x44\n      dup3\n      add\n        /* \"#utility.yul\":8791:8844   */\n      mstore\n        /* \"#utility.yul\":8861:8879   */\n      0x64\n      add\n        /* \"contracts/SycrowBarter.sol\":2178:2235  require(msg.sender == factory, \"SyCrowBarter: FORBIDDEN\") */\n      tag_112\n        /* \"#utility.yul\":8538:8885   */\n      jump\n        /* \"contracts/SycrowBarter.sol\":2178:2235  require(msg.sender == factory, \"SyCrowBarter: FORBIDDEN\") */\n    tag_267:\n        /* \"contracts/SycrowBarter.sol\":2255:2267  _initialized */\n      sload(0x05)\n      shl(0xa8, 0x01)\n      swap1\n      div\n      0xff\n      and\n        /* \"contracts/SycrowBarter.sol\":2254:2267  !_initialized */\n      iszero\n        /* \"contracts/SycrowBarter.sol\":2246:2305  require(!_initialized, \"SyCrowBarter: ALREADY_INITIALIZED\") */\n      tag_270\n      jumpi\n      mload(0x40)\n      shl(0xe5, 0x461bcd)\n      dup2\n      mstore\n        /* \"#utility.yul\":9092:9094   */\n      0x20\n        /* \"contracts/SycrowBarter.sol\":2246:2305  require(!_initialized, \"SyCrowBarter: ALREADY_INITIALIZED\") */\n      0x04\n      dup3\n      add\n        /* \"#utility.yul\":9074:9095   */\n      mstore\n        /* \"#utility.yul\":9131:9133   */\n      0x21\n        /* \"#utility.yul\":9111:9129   */\n      0x24\n      dup3\n      add\n        /* \"#utility.yul\":9104:9134   */\n      mstore\n        /* \"#utility.yul\":9170:9204   */\n      0x537943726f774261727465723a20414c52454144595f494e495449414c495a45\n        /* \"#utility.yul\":9150:9168   */\n      0x44\n      dup3\n      add\n        /* \"#utility.yul\":9143:9205   */\n      mstore\n      shl(0xfa, 0x11)\n        /* \"#utility.yul\":9221:9239   */\n      0x64\n      dup3\n      add\n        /* \"#utility.yul\":9214:9245   */\n      mstore\n        /* \"#utility.yul\":9262:9281   */\n      0x84\n      add\n        /* \"contracts/SycrowBarter.sol\":2246:2305  require(!_initialized, \"SyCrowBarter: ALREADY_INITIALIZED\") */\n      tag_112\n        /* \"#utility.yul\":8890:9287   */\n      jump\n        /* \"contracts/SycrowBarter.sol\":2246:2305  require(!_initialized, \"SyCrowBarter: ALREADY_INITIALIZED\") */\n    tag_270:\n        /* \"contracts/SycrowBarter.sol\":2336:2351  block.timestamp */\n      timestamp\n        /* \"contracts/SycrowBarter.sol\":2323:2332  _deadline */\n      dup5\n        /* \"contracts/SycrowBarter.sol\":2323:2351  _deadline >= block.timestamp */\n      lt\n      iszero\n        /* \"contracts/SycrowBarter.sol\":2315:2383  require(_deadline >= block.timestamp, \"SyCrowBarter: PAST_DEADLINE\") */\n      tag_273\n      jumpi\n      mload(0x40)\n      shl(0xe5, 0x461bcd)\n      dup2\n      mstore\n        /* \"#utility.yul\":9494:9496   */\n      0x20\n        /* \"contracts/SycrowBarter.sol\":2315:2383  require(_deadline >= block.timestamp, \"SyCrowBarter: PAST_DEADLINE\") */\n      0x04\n      dup3\n      add\n        /* \"#utility.yul\":9476:9497   */\n      mstore\n        /* \"#utility.yul\":9533:9535   */\n      0x1b\n        /* \"#utility.yul\":9513:9531   */\n      0x24\n      dup3\n      add\n        /* \"#utility.yul\":9506:9536   */\n      mstore\n        /* \"#utility.yul\":9572:9601   */\n      0x537943726f774261727465723a20504153545f444541444c494e450000000000\n        /* \"#utility.yul\":9552:9570   */\n      0x44\n      dup3\n      add\n        /* \"#utility.yul\":9545:9602   */\n      mstore\n        /* \"#utility.yul\":9619:9637   */\n      0x64\n      add\n        /* \"contracts/SycrowBarter.sol\":2315:2383  require(_deadline >= block.timestamp, \"SyCrowBarter: PAST_DEADLINE\") */\n      tag_112\n        /* \"#utility.yul\":9292:9643   */\n      jump\n        /* \"contracts/SycrowBarter.sol\":2315:2383  require(_deadline >= block.timestamp, \"SyCrowBarter: PAST_DEADLINE\") */\n    tag_273:\n        /* \"contracts/SycrowBarter.sol\":2415:2455  IERC20(inToken).balanceOf(address(this)) */\n      mload(0x40)\n      shl(0xe0, 0x70a08231)\n      dup2\n      mstore\n        /* \"contracts/SycrowBarter.sol\":2449:2453  this */\n      address\n        /* \"contracts/SycrowBarter.sol\":2415:2455  IERC20(inToken).balanceOf(address(this)) */\n      0x04\n      dup3\n      add\n        /* \"#utility.yul\":2609:2660   */\n      mstore\n        /* \"contracts/SycrowBarter.sol\":2459:2474  amountDeposited */\n      dup7\n      swap1\n      sub(shl(0xa0, 0x01), 0x01)\n        /* \"contracts/SycrowBarter.sol\":2415:2440  IERC20(inToken).balanceOf */\n      dup11\n      and\n      swap1\n      0x70a08231\n      swap1\n        /* \"#utility.yul\":2582:2600   */\n      0x24\n      add\n        /* \"contracts/SycrowBarter.sol\":2415:2455  IERC20(inToken).balanceOf(address(this)) */\n      0x20\n      mload(0x40)\n      dup1\n      dup4\n      sub\n      dup2\n      dup7\n      gas\n      staticcall\n      iszero\n      dup1\n      iszero\n      tag_278\n      jumpi\n      returndatasize\n      0x00\n      dup1\n      returndatacopy\n      revert(0x00, returndatasize)\n    tag_278:\n      pop\n      pop\n      pop\n      pop\n      mload(0x40)\n      returndatasize\n      not(0x1f)\n      0x1f\n      dup3\n      add\n      and\n      dup3\n      add\n      dup1\n      0x40\n      mstore\n      pop\n      dup2\n      add\n      swap1\n      tag_279\n      swap2\n      swap1\n      tag_195\n      jump\t// in\n    tag_279:\n        /* \"contracts/SycrowBarter.sol\":2415:2474  IERC20(inToken).balanceOf(address(this)) >= amountDeposited */\n      lt\n      iszero\n        /* \"contracts/SycrowBarter.sol\":2394:2534  require(... */\n      tag_280\n      jumpi\n      mload(0x40)\n      shl(0xe5, 0x461bcd)\n      dup2\n      mstore\n        /* \"#utility.yul\":9850:9852   */\n      0x20\n        /* \"contracts/SycrowBarter.sol\":2394:2534  require(... */\n      0x04\n      dup3\n      add\n        /* \"#utility.yul\":9832:9853   */\n      mstore\n        /* \"#utility.yul\":9889:9891   */\n      0x22\n        /* \"#utility.yul\":9869:9887   */\n      0x24\n      dup3\n      add\n        /* \"#utility.yul\":9862:9892   */\n      mstore\n        /* \"#utility.yul\":9928:9962   */\n      0x537943726f774261727465723a20494e53554646494349454e545f4445504f53\n        /* \"#utility.yul\":9908:9926   */\n      0x44\n      dup3\n      add\n        /* \"#utility.yul\":9901:9963   */\n      mstore\n      shl(0xf2, 0x1255)\n        /* \"#utility.yul\":9979:9997   */\n      0x64\n      dup3\n      add\n        /* \"#utility.yul\":9972:10004   */\n      mstore\n        /* \"#utility.yul\":10021:10040   */\n      0x84\n      add\n        /* \"contracts/SycrowBarter.sol\":2394:2534  require(... */\n      tag_112\n        /* \"#utility.yul\":9648:10046   */\n      jump\n        /* \"contracts/SycrowBarter.sol\":2394:2534  require(... */\n    tag_280:\n        /* \"contracts/SycrowBarter.sol\":2545:2553  deadline */\n      0x04\n        /* \"contracts/SycrowBarter.sol\":2545:2565  deadline = _deadline */\n      dup5\n      swap1\n      sstore\n        /* \"contracts/SycrowBarter.sol\":2576:2598  _depositedTokenAddress */\n      0x06\n        /* \"contracts/SycrowBarter.sol\":2576:2608  _depositedTokenAddress = inToken */\n      dup1\n      sload\n      sub(shl(0xa0, 0x01), 0x01)\n      dup1\n      dup12\n      and\n      not(sub(shl(0xa0, 0x01), 0x01))\n      swap3\n      dup4\n      and\n      or\n      swap1\n      swap3\n      sstore\n        /* \"contracts/SycrowBarter.sol\":2618:2639  _expectedTokenAddress */\n      0x07\n        /* \"contracts/SycrowBarter.sol\":2618:2650  _expectedTokenAddress = outToken */\n      dup1\n      sload\n      swap3\n      dup11\n      and\n      swap3\n      swap1\n      swap2\n      and\n      swap2\n      swap1\n      swap2\n      or\n      swap1\n      sstore\n        /* \"contracts/SycrowBarter.sol\":2661:2677  _depositedAmount */\n      0x08\n        /* \"contracts/SycrowBarter.sol\":2661:2695  _depositedAmount = amountDeposited */\n      dup7\n      swap1\n      sstore\n        /* \"contracts/SycrowBarter.sol\":2705:2720  _expectedAmount */\n      0x09\n        /* \"contracts/SycrowBarter.sol\":2705:2737  _expectedAmount = amountExpected */\n      dup6\n      swap1\n      sstore\n        /* \"contracts/SycrowBarter.sol\":2748:2758  barterType */\n      0x05\n        /* \"contracts/SycrowBarter.sol\":2748:2772  barterType = _barterType */\n      dup1\n      sload\n        /* \"contracts/SycrowBarter.sol\":2761:2772  _barterType */\n      dup11\n      swap2\n        /* \"contracts/SycrowBarter.sol\":2748:2758  barterType */\n      swap1\n      not(0xff)\n        /* \"contracts/SycrowBarter.sol\":2748:2772  barterType = _barterType */\n      and\n        /* \"contracts/SycrowBarter.sol\":2576:2608  _depositedTokenAddress = inToken */\n      0x01\n        /* \"contracts/SycrowBarter.sol\":2761:2772  _barterType */\n      dup4\n        /* \"contracts/SycrowBarter.sol\":2748:2772  barterType = _barterType */\n      0x02\n      dup2\n      gt\n      iszero\n      tag_284\n      jumpi\n      tag_284\n      tag_129\n      jump\t// in\n    tag_284:\n      mul\n      or\n      swap1\n      sstore\n      pop\n      pop\n        /* \"contracts/SycrowBarter.sol\":2783:2799  allowMultiBarter */\n      0x03\n        /* \"contracts/SycrowBarter.sol\":2783:2819  allowMultiBarter = _allowMultiBarter */\n      dup1\n      sload\n      dup4\n      iszero\n      iszero\n      not(0xff)\n      swap1\n      swap2\n      and\n      or\n      swap1\n      sstore\n        /* \"contracts/SycrowBarter.sol\":2830:2834  WETH */\n      0x05\n        /* \"contracts/SycrowBarter.sol\":2830:2842  WETH = _WETH */\n      dup1\n      sload\n      not(shl(0xa8, 0xff))\n      sub(shl(0xa0, 0x01), 0x01)\n      dup5\n      and\n        /* \"contracts/SycrowBarter.sol\":2783:2819  allowMultiBarter = _allowMultiBarter */\n      0x0100\n        /* \"contracts/SycrowBarter.sol\":2830:2842  WETH = _WETH */\n      mul\n        /* \"contracts/SycrowBarter.sol\":2853:2872  _initialized = true */\n      and\n      not(sub(shl(0xb0, 0x01), 0x0100))\n      swap1\n      swap2\n      and\n      or\n      shl(0xa8, 0x01)\n      swap1\n      dup2\n      or\n      swap2\n      dup3\n      swap1\n      sstore\n        /* \"contracts/SycrowBarter.sol\":2890:2902  _initialized */\n      swap1\n      div\n        /* \"contracts/SycrowBarter.sol\":2783:2819  allowMultiBarter = _allowMultiBarter */\n      0xff\n        /* \"contracts/SycrowBarter.sol\":2890:2902  _initialized */\n      and\n        /* \"contracts/SycrowBarter.sol\":1881:2909  function initialize(... */\n      swap9\n      swap8\n      pop\n      pop\n      pop\n      pop\n      pop\n      pop\n      pop\n      pop\n      jump\t// out\n        /* \"@openzeppelin/contracts/access/Ownable.sol\":1668:1769  function renounceOwnership() public virtual onlyOwner {... */\n    tag_70:\n        /* \"@openzeppelin/contracts/access/Ownable.sol\":1082:1089  address */\n      0x00\n        /* \"@openzeppelin/contracts/access/Ownable.sol\":1108:1114  _owner */\n      sload\n      sub(shl(0xa0, 0x01), 0x01)\n      and\n        /* \"@openzeppelin/contracts/utils/Context.sol\":719:729  msg.sender */\n      caller\n        /* \"@openzeppelin/contracts/access/Ownable.sol\":1248:1271  owner() == _msgSender() */\n      eq\n        /* \"@openzeppelin/contracts/access/Ownable.sol\":1240:1308  require(owner() == _msgSender(), \"Ownable: caller is not the owner\") */\n      tag_288\n      jumpi\n      mload(0x40)\n      shl(0xe5, 0x461bcd)\n      dup2\n      mstore\n      0x04\n      add\n      tag_112\n      swap1\n      tag_189\n      jump\t// in\n    tag_288:\n        /* \"@openzeppelin/contracts/access/Ownable.sol\":1732:1762  _transferOwnership(address(0)) */\n      tag_291\n        /* \"@openzeppelin/contracts/access/Ownable.sol\":1759:1760  0 */\n      0x00\n        /* \"@openzeppelin/contracts/access/Ownable.sol\":1732:1750  _transferOwnership */\n      tag_292\n        /* \"@openzeppelin/contracts/access/Ownable.sol\":1732:1762  _transferOwnership(address(0)) */\n      jump\t// in\n    tag_291:\n        /* \"@openzeppelin/contracts/access/Ownable.sol\":1668:1769  function renounceOwnership() public virtual onlyOwner {... */\n      jump\t// out\n        /* \"contracts/SycrowBarter.sol\":3108:3306  function getTokens()... */\n    tag_83:\n        /* \"contracts/SycrowBarter.sol\":1551:1563  _initialized */\n      sload(0x05)\n        /* \"contracts/SycrowBarter.sol\":3213:3220  address */\n      0x00\n      swap1\n      dup2\n      swap1\n      shl(0xa8, 0x01)\n        /* \"contracts/SycrowBarter.sol\":1551:1563  _initialized */\n      swap1\n      div\n      0xff\n      and\n        /* \"contracts/SycrowBarter.sol\":1543:1597  require(_initialized, \"SyCrowBarter: NOT_INITIALIZED\") */\n      tag_295\n      jumpi\n      mload(0x40)\n      shl(0xe5, 0x461bcd)\n      dup2\n      mstore\n      0x04\n      add\n      tag_112\n      swap1\n      tag_117\n      jump\t// in\n    tag_295:\n      pop\n      pop\n        /* \"contracts/SycrowBarter.sol\":3253:3275  _depositedTokenAddress */\n      sload(0x06)\n        /* \"contracts/SycrowBarter.sol\":3277:3298  _expectedTokenAddress */\n      sload(0x07)\n      sub(shl(0xa0, 0x01), 0x01)\n        /* \"contracts/SycrowBarter.sol\":3253:3275  _depositedTokenAddress */\n      swap2\n      dup3\n      and\n      swap2\n        /* \"contracts/SycrowBarter.sol\":3277:3298  _expectedTokenAddress */\n      and\n        /* \"contracts/SycrowBarter.sol\":3108:3306  function getTokens()... */\n      swap1\n      swap2\n      jump\t// out\n        /* \"contracts/SycrowBarter.sol\":10178:10320  function getTradeOutAmount(uint256 amount) public view returns (uint256) {... */\n    tag_97:\n        /* \"contracts/SycrowBarter.sol\":10242:10249  uint256 */\n      0x00\n        /* \"contracts/SycrowBarter.sol\":10298:10313  _expectedAmount */\n      sload(0x09)\n        /* \"contracts/SycrowBarter.sol\":10278:10294  _depositedAmount */\n      sload(0x08)\n        /* \"contracts/SycrowBarter.sol\":10269:10275  amount */\n      dup4\n        /* \"contracts/SycrowBarter.sol\":10269:10294  amount * _depositedAmount */\n      tag_299\n      swap2\n      swap1\n      tag_300\n      jump\t// in\n    tag_299:\n        /* \"contracts/SycrowBarter.sol\":10268:10313  (amount * _depositedAmount) / _expectedAmount */\n      tag_301\n      swap2\n      swap1\n      tag_302\n      jump\t// in\n    tag_301:\n        /* \"contracts/SycrowBarter.sol\":10261:10313  return (amount * _depositedAmount) / _expectedAmount */\n      swap3\n        /* \"contracts/SycrowBarter.sol\":10178:10320  function getTradeOutAmount(uint256 amount) public view returns (uint256) {... */\n      swap2\n      pop\n      pop\n      jump\t// out\n        /* \"contracts/SycrowBarter.sol\":3312:3998  function getTrades()... */\n    tag_101:\n        /* \"contracts/SycrowBarter.sol\":3430:3446  address[] memory */\n      0x60\n        /* \"contracts/SycrowBarter.sol\":3460:3476  uint256[] memory */\n      dup1\n        /* \"contracts/SycrowBarter.sol\":3490:3506  uint256[] memory */\n      0x60\n        /* \"contracts/SycrowBarter.sol\":1551:1563  _initialized */\n      0x05\n      0x15\n      swap1\n      sload\n      swap1\n      0x0100\n      exp\n      swap1\n      div\n      0xff\n      and\n        /* \"contracts/SycrowBarter.sol\":1543:1597  require(_initialized, \"SyCrowBarter: NOT_INITIALIZED\") */\n      tag_304\n      jumpi\n      mload(0x40)\n      shl(0xe5, 0x461bcd)\n      dup2\n      mstore\n      0x04\n      add\n      tag_112\n      swap1\n      tag_117\n      jump\t// in\n    tag_304:\n        /* \"contracts/SycrowBarter.sol\":3574:3581  _trades */\n      0x0a\n        /* \"contracts/SycrowBarter.sol\":3574:3588  _trades.length */\n      sload\n        /* \"contracts/SycrowBarter.sol\":3531:3557  address[] memory addresses */\n      0x00\n      swap1\n        /* \"contracts/SycrowBarter.sol\":3560:3589  new address[](_trades.length) */\n      0xffffffffffffffff\n      dup2\n      gt\n      iszero\n      tag_308\n      jumpi\n      tag_308\n      tag_309\n      jump\t// in\n    tag_308:\n      mload(0x40)\n      swap1\n      dup1\n      dup3\n      mstore\n      dup1\n      0x20\n      mul\n      0x20\n      add\n      dup3\n      add\n      0x40\n      mstore\n      dup1\n      iszero\n      tag_310\n      jumpi\n      dup2\n      0x20\n      add\n      0x20\n      dup3\n      mul\n      dup1\n      calldatasize\n      dup4\n      calldatacopy\n      add\n      swap1\n      pop\n    tag_310:\n      pop\n        /* \"contracts/SycrowBarter.sol\":3642:3649  _trades */\n      0x0a\n        /* \"contracts/SycrowBarter.sol\":3642:3656  _trades.length */\n      sload\n        /* \"contracts/SycrowBarter.sol\":3531:3589  address[] memory addresses = new address[](_trades.length) */\n      swap1\n      swap2\n      pop\n        /* \"contracts/SycrowBarter.sol\":3599:3625  uint256[] memory amountsIn */\n      0x00\n      swap1\n        /* \"contracts/SycrowBarter.sol\":3628:3657  new uint256[](_trades.length) */\n      0xffffffffffffffff\n      dup2\n      gt\n      iszero\n      tag_312\n      jumpi\n      tag_312\n      tag_309\n      jump\t// in\n    tag_312:\n      mload(0x40)\n      swap1\n      dup1\n      dup3\n      mstore\n      dup1\n      0x20\n      mul\n      0x20\n      add\n      dup3\n      add\n      0x40\n      mstore\n      dup1\n      iszero\n      tag_313\n      jumpi\n      dup2\n      0x20\n      add\n      0x20\n      dup3\n      mul\n      dup1\n      calldatasize\n      dup4\n      calldatacopy\n      add\n      swap1\n      pop\n    tag_313:\n      pop\n        /* \"contracts/SycrowBarter.sol\":3711:3718  _trades */\n      0x0a\n        /* \"contracts/SycrowBarter.sol\":3711:3725  _trades.length */\n      sload\n        /* \"contracts/SycrowBarter.sol\":3599:3657  uint256[] memory amountsIn = new uint256[](_trades.length) */\n      swap1\n      swap2\n      pop\n        /* \"contracts/SycrowBarter.sol\":3667:3694  uint256[] memory amountsOut */\n      0x00\n      swap1\n        /* \"contracts/SycrowBarter.sol\":3697:3726  new uint256[](_trades.length) */\n      0xffffffffffffffff\n      dup2\n      gt\n      iszero\n      tag_315\n      jumpi\n      tag_315\n      tag_309\n      jump\t// in\n    tag_315:\n      mload(0x40)\n      swap1\n      dup1\n      dup3\n      mstore\n      dup1\n      0x20\n      mul\n      0x20\n      add\n      dup3\n      add\n      0x40\n      mstore\n      dup1\n      iszero\n      tag_316\n      jumpi\n      dup2\n      0x20\n      add\n      0x20\n      dup3\n      mul\n      dup1\n      calldatasize\n      dup4\n      calldatacopy\n      add\n      swap1\n      pop\n    tag_316:\n      pop\n        /* \"contracts/SycrowBarter.sol\":3667:3726  uint256[] memory amountsOut = new uint256[](_trades.length) */\n      swap1\n      pop\n        /* \"contracts/SycrowBarter.sol\":3742:3751  uint256 i */\n      0x00\n        /* \"contracts/SycrowBarter.sol\":3737:3940  for (uint256 i = 0; i < _trades.length; i++) {... */\n    tag_317:\n        /* \"contracts/SycrowBarter.sol\":3761:3768  _trades */\n      0x0a\n        /* \"contracts/SycrowBarter.sol\":3761:3775  _trades.length */\n      sload\n        /* \"contracts/SycrowBarter.sol\":3757:3775  i < _trades.length */\n      dup2\n      lt\n        /* \"contracts/SycrowBarter.sol\":3737:3940  for (uint256 i = 0; i < _trades.length; i++) {... */\n      iszero\n      tag_318\n      jumpi\n        /* \"contracts/SycrowBarter.sol\":3811:3818  _trades */\n      0x0a\n        /* \"contracts/SycrowBarter.sol\":3819:3820  i */\n      dup2\n        /* \"contracts/SycrowBarter.sol\":3811:3821  _trades[i] */\n      dup2\n      sload\n      dup2\n      lt\n      tag_321\n      jumpi\n      tag_321\n      tag_322\n      jump\t// in\n    tag_321:\n      0x00\n      swap2\n      dup3\n      mstore\n      0x20\n      swap1\n      swap2\n      keccak256\n      0x03\n      swap1\n      swap2\n      mul\n      add\n        /* \"contracts/SycrowBarter.sol\":3811:3829  _trades[i]._trader */\n      sload\n        /* \"contracts/SycrowBarter.sol\":3796:3808  addresses[i] */\n      dup5\n      mload\n      sub(shl(0xa0, 0x01), 0x01)\n        /* \"contracts/SycrowBarter.sol\":3811:3829  _trades[i]._trader */\n      swap1\n      swap2\n      and\n      swap1\n        /* \"contracts/SycrowBarter.sol\":3796:3805  addresses */\n      dup6\n      swap1\n        /* \"contracts/SycrowBarter.sol\":3806:3807  i */\n      dup4\n      swap1\n        /* \"contracts/SycrowBarter.sol\":3796:3808  addresses[i] */\n      dup2\n      lt\n      tag_325\n      jumpi\n      tag_325\n      tag_322\n      jump\t// in\n    tag_325:\n      0x20\n      mul\n      0x20\n      add\n      add\n        /* \"contracts/SycrowBarter.sol\":3796:3829  addresses[i] = _trades[i]._trader */\n      swap1\n      sub(shl(0xa0, 0x01), 0x01)\n      and\n      swap1\n      dup2\n      sub(shl(0xa0, 0x01), 0x01)\n      and\n      dup2\n      mstore\n      pop\n      pop\n        /* \"contracts/SycrowBarter.sol\":3858:3865  _trades */\n      0x0a\n        /* \"contracts/SycrowBarter.sol\":3866:3867  i */\n      dup2\n        /* \"contracts/SycrowBarter.sol\":3858:3868  _trades[i] */\n      dup2\n      sload\n      dup2\n      lt\n      tag_327\n      jumpi\n      tag_327\n      tag_322\n      jump\t// in\n    tag_327:\n      swap1\n      0x00\n      mstore\n      keccak256(0x00, 0x20)\n      swap1\n      0x03\n      mul\n      add\n        /* \"contracts/SycrowBarter.sol\":3858:3878  _trades[i]._amountIn */\n      0x01\n      add\n      sload\n        /* \"contracts/SycrowBarter.sol\":3843:3852  amountsIn */\n      dup4\n        /* \"contracts/SycrowBarter.sol\":3853:3854  i */\n      dup3\n        /* \"contracts/SycrowBarter.sol\":3843:3855  amountsIn[i] */\n      dup2\n      mload\n      dup2\n      lt\n      tag_330\n      jumpi\n      tag_330\n      tag_322\n      jump\t// in\n    tag_330:\n      0x20\n      mul\n      0x20\n      add\n      add\n        /* \"contracts/SycrowBarter.sol\":3843:3878  amountsIn[i] = _trades[i]._amountIn */\n      dup2\n      dup2\n      mstore\n      pop\n      pop\n        /* \"contracts/SycrowBarter.sol\":3908:3915  _trades */\n      0x0a\n        /* \"contracts/SycrowBarter.sol\":3916:3917  i */\n      dup2\n        /* \"contracts/SycrowBarter.sol\":3908:3918  _trades[i] */\n      dup2\n      sload\n      dup2\n      lt\n      tag_332\n      jumpi\n      tag_332\n      tag_322\n      jump\t// in\n    tag_332:\n      swap1\n      0x00\n      mstore\n      keccak256(0x00, 0x20)\n      swap1\n      0x03\n      mul\n      add\n        /* \"contracts/SycrowBarter.sol\":3908:3929  _trades[i]._amountOut */\n      0x02\n      add\n      sload\n        /* \"contracts/SycrowBarter.sol\":3892:3902  amountsOut */\n      dup3\n        /* \"contracts/SycrowBarter.sol\":3903:3904  i */\n      dup3\n        /* \"contracts/SycrowBarter.sol\":3892:3905  amountsOut[i] */\n      dup2\n      mload\n      dup2\n      lt\n      tag_335\n      jumpi\n      tag_335\n      tag_322\n      jump\t// in\n    tag_335:\n      0x20\n      swap1\n      dup2\n      mul\n      swap2\n      swap1\n      swap2\n      add\n      add\n        /* \"contracts/SycrowBarter.sol\":3892:3929  amountsOut[i] = _trades[i]._amountOut */\n      mstore\n        /* \"contracts/SycrowBarter.sol\":3777:3780  i++ */\n      dup1\n      tag_336\n      dup2\n      tag_337\n      jump\t// in\n    tag_336:\n      swap2\n      pop\n      pop\n        /* \"contracts/SycrowBarter.sol\":3737:3940  for (uint256 i = 0; i < _trades.length; i++) {... */\n      jump(tag_317)\n    tag_318:\n      pop\n        /* \"contracts/SycrowBarter.sol\":3958:3967  addresses */\n      swap2\n      swap5\n      pop\n        /* \"contracts/SycrowBarter.sol\":3969:3978  amountsIn */\n      swap3\n      pop\n        /* \"contracts/SycrowBarter.sol\":3980:3990  amountsOut */\n      swap1\n      pop\n        /* \"contracts/SycrowBarter.sol\":3312:3998  function getTrades()... */\n      swap1\n      swap2\n      swap3\n      jump\t// out\n        /* \"@openzeppelin/contracts/access/Ownable.sol\":1918:2116  function transferOwnership(address newOwner) public virtual onlyOwner {... */\n    tag_108:\n        /* \"@openzeppelin/contracts/access/Ownable.sol\":1082:1089  address */\n      0x00\n        /* \"@openzeppelin/contracts/access/Ownable.sol\":1108:1114  _owner */\n      sload\n      sub(shl(0xa0, 0x01), 0x01)\n      and\n        /* \"@openzeppelin/contracts/utils/Context.sol\":719:729  msg.sender */\n      caller\n        /* \"@openzeppelin/contracts/access/Ownable.sol\":1248:1271  owner() == _msgSender() */\n      eq\n        /* \"@openzeppelin/contracts/access/Ownable.sol\":1240:1308  require(owner() == _msgSender(), \"Ownable: caller is not the owner\") */\n      tag_341\n      jumpi\n      mload(0x40)\n      shl(0xe5, 0x461bcd)\n      dup2\n      mstore\n      0x04\n      add\n      tag_112\n      swap1\n      tag_189\n      jump\t// in\n    tag_341:\n      sub(shl(0xa0, 0x01), 0x01)\n        /* \"@openzeppelin/contracts/access/Ownable.sol\":2006:2028  newOwner != address(0) */\n      dup2\n      and\n        /* \"@openzeppelin/contracts/access/Ownable.sol\":1998:2071  require(newOwner != address(0), \"Ownable: new owner is the zero address\") */\n      tag_344\n      jumpi\n      mload(0x40)\n      shl(0xe5, 0x461bcd)\n      dup2\n      mstore\n        /* \"#utility.yul\":11184:11186   */\n      0x20\n        /* \"@openzeppelin/contracts/access/Ownable.sol\":1998:2071  require(newOwner != address(0), \"Ownable: new owner is the zero address\") */\n      0x04\n      dup3\n      add\n        /* \"#utility.yul\":11166:11187   */\n      mstore\n        /* \"#utility.yul\":11223:11225   */\n      0x26\n        /* \"#utility.yul\":11203:11221   */\n      0x24\n      dup3\n      add\n        /* \"#utility.yul\":11196:11226   */\n      mstore\n        /* \"#utility.yul\":11262:11296   */\n      0x4f776e61626c653a206e6577206f776e657220697320746865207a65726f2061\n        /* \"#utility.yul\":11242:11260   */\n      0x44\n      dup3\n      add\n        /* \"#utility.yul\":11235:11297   */\n      mstore\n      shl(0xd0, 0x646472657373)\n        /* \"#utility.yul\":11313:11331   */\n      0x64\n      dup3\n      add\n        /* \"#utility.yul\":11306:11342   */\n      mstore\n        /* \"#utility.yul\":11359:11378   */\n      0x84\n      add\n        /* \"@openzeppelin/contracts/access/Ownable.sol\":1998:2071  require(newOwner != address(0), \"Ownable: new owner is the zero address\") */\n      tag_112\n        /* \"#utility.yul\":10982:11384   */\n      jump\n        /* \"@openzeppelin/contracts/access/Ownable.sol\":1998:2071  require(newOwner != address(0), \"Ownable: new owner is the zero address\") */\n    tag_344:\n        /* \"@openzeppelin/contracts/access/Ownable.sol\":2081:2109  _transferOwnership(newOwner) */\n      tag_347\n        /* \"@openzeppelin/contracts/access/Ownable.sol\":2100:2108  newOwner */\n      dup2\n        /* \"@openzeppelin/contracts/access/Ownable.sol\":2081:2099  _transferOwnership */\n      tag_292\n        /* \"@openzeppelin/contracts/access/Ownable.sol\":2081:2109  _transferOwnership(newOwner) */\n      jump\t// in\n    tag_347:\n        /* \"@openzeppelin/contracts/access/Ownable.sol\":1918:2116  function transferOwnership(address newOwner) public virtual onlyOwner {... */\n      pop\n      jump\t// out\n        /* \"contracts/SycrowBarter.sol\":6493:7572  function _tradeTokenForEth(uint256 inAmount) internal {... */\n    tag_145:\n        /* \"contracts/SycrowBarter.sol\":6585:6606  _expectedTokenAddress */\n      sload(0x07)\n        /* \"contracts/SycrowBarter.sol\":6578:6629  IERC20(_expectedTokenAddress).balanceOf(msg.sender) */\n      mload(0x40)\n      shl(0xe0, 0x70a08231)\n      dup2\n      mstore\n        /* \"contracts/SycrowBarter.sol\":6618:6628  msg.sender */\n      caller\n        /* \"contracts/SycrowBarter.sol\":6578:6629  IERC20(_expectedTokenAddress).balanceOf(msg.sender) */\n      0x04\n      dup3\n      add\n        /* \"#utility.yul\":2609:2660   */\n      mstore\n        /* \"contracts/SycrowBarter.sol\":6633:6641  inAmount */\n      dup3\n      swap2\n      sub(shl(0xa0, 0x01), 0x01)\n        /* \"contracts/SycrowBarter.sol\":6585:6606  _expectedTokenAddress */\n      and\n      swap1\n        /* \"contracts/SycrowBarter.sol\":6578:6617  IERC20(_expectedTokenAddress).balanceOf */\n      0x70a08231\n      swap1\n        /* \"#utility.yul\":2582:2600   */\n      0x24\n      add\n        /* \"contracts/SycrowBarter.sol\":6578:6629  IERC20(_expectedTokenAddress).balanceOf(msg.sender) */\n      0x20\n      mload(0x40)\n      dup1\n      dup4\n      sub\n      dup2\n      dup7\n      gas\n      staticcall\n      iszero\n      dup1\n      iszero\n      tag_351\n      jumpi\n      returndatasize\n      0x00\n      dup1\n      returndatacopy\n      revert(0x00, returndatasize)\n    tag_351:\n      pop\n      pop\n      pop\n      pop\n      mload(0x40)\n      returndatasize\n      not(0x1f)\n      0x1f\n      dup3\n      add\n      and\n      dup3\n      add\n      dup1\n      0x40\n      mstore\n      pop\n      dup2\n      add\n      swap1\n      tag_352\n      swap2\n      swap1\n      tag_195\n      jump\t// in\n    tag_352:\n        /* \"contracts/SycrowBarter.sol\":6578:6641  IERC20(_expectedTokenAddress).balanceOf(msg.sender) >= inAmount */\n      lt\n      iszero\n        /* \"contracts/SycrowBarter.sol\":6557:6701  require(... */\n      tag_353\n      jumpi\n      mload(0x40)\n      shl(0xe5, 0x461bcd)\n      dup2\n      mstore\n      0x04\n      add\n      tag_112\n      swap1\n      tag_355\n      jump\t// in\n    tag_353:\n        /* \"contracts/SycrowBarter.sol\":6712:6729  uint256 outAmount */\n      0x00\n        /* \"contracts/SycrowBarter.sol\":6732:6759  getTradeOutAmount(inAmount) */\n      tag_356\n        /* \"contracts/SycrowBarter.sol\":6750:6758  inAmount */\n      dup3\n        /* \"contracts/SycrowBarter.sol\":6732:6749  getTradeOutAmount */\n      tag_97\n        /* \"contracts/SycrowBarter.sol\":6732:6759  getTradeOutAmount(inAmount) */\n      jump\t// in\n    tag_356:\n        /* \"contracts/SycrowBarter.sol\":6797:6801  WETH */\n      sload(0x05)\n        /* \"contracts/SycrowBarter.sol\":6834:6869  _wethErc20.balanceOf(address(this)) */\n      mload(0x40)\n      shl(0xe0, 0x70a08231)\n      dup2\n      mstore\n        /* \"contracts/SycrowBarter.sol\":6863:6867  this */\n      address\n        /* \"contracts/SycrowBarter.sol\":6834:6869  _wethErc20.balanceOf(address(this)) */\n      0x04\n      dup3\n      add\n        /* \"#utility.yul\":2609:2660   */\n      mstore\n        /* \"contracts/SycrowBarter.sol\":6712:6759  uint256 outAmount = getTradeOutAmount(inAmount) */\n      swap2\n      swap3\n      pop\n        /* \"contracts/SycrowBarter.sol\":6797:6801  WETH */\n      0x0100\n      swap1\n      div\n      sub(shl(0xa0, 0x01), 0x01)\n      and\n      swap1\n        /* \"contracts/SycrowBarter.sol\":6712:6759  uint256 outAmount = getTradeOutAmount(inAmount) */\n      dup3\n      swap1\n        /* \"contracts/SycrowBarter.sol\":6797:6801  WETH */\n      dup3\n      swap1\n        /* \"contracts/SycrowBarter.sol\":6834:6854  _wethErc20.balanceOf */\n      0x70a08231\n      swap1\n        /* \"#utility.yul\":2582:2600   */\n      0x24\n      add\n        /* \"contracts/SycrowBarter.sol\":6834:6869  _wethErc20.balanceOf(address(this)) */\n      0x20\n      mload(0x40)\n      dup1\n      dup4\n      sub\n      dup2\n      dup7\n      gas\n      staticcall\n      iszero\n      dup1\n      iszero\n      tag_359\n      jumpi\n      returndatasize\n      0x00\n      dup1\n      returndatacopy\n      revert(0x00, returndatasize)\n    tag_359:\n      pop\n      pop\n      pop\n      pop\n      mload(0x40)\n      returndatasize\n      not(0x1f)\n      0x1f\n      dup3\n      add\n      and\n      dup3\n      add\n      dup1\n      0x40\n      mstore\n      pop\n      dup2\n      add\n      swap1\n      tag_360\n      swap2\n      swap1\n      tag_195\n      jump\t// in\n    tag_360:\n        /* \"contracts/SycrowBarter.sol\":6834:6882  _wethErc20.balanceOf(address(this)) >= outAmount */\n      lt\n      iszero\n        /* \"contracts/SycrowBarter.sol\":6813:6951  require(... */\n      tag_361\n      jumpi\n      mload(0x40)\n      shl(0xe5, 0x461bcd)\n      dup2\n      mstore\n      0x04\n      add\n      tag_112\n      swap1\n      tag_363\n      jump\t// in\n    tag_361:\n        /* \"contracts/SycrowBarter.sol\":7007:7028  _expectedTokenAddress */\n      sload(0x07)\n        /* \"contracts/SycrowBarter.sol\":6962:7111  TransferHelper.safeTransferFrom(... */\n      tag_364\n      swap1\n      sub(shl(0xa0, 0x01), 0x01)\n        /* \"contracts/SycrowBarter.sol\":7007:7028  _expectedTokenAddress */\n      and\n        /* \"contracts/SycrowBarter.sol\":7042:7052  msg.sender */\n      caller\n        /* \"contracts/SycrowBarter.sol\":7074:7078  this */\n      address\n        /* \"contracts/SycrowBarter.sol\":7093:7101  inAmount */\n      dup7\n        /* \"contracts/SycrowBarter.sol\":6962:6993  TransferHelper.safeTransferFrom */\n      tag_365\n        /* \"contracts/SycrowBarter.sol\":6962:7111  TransferHelper.safeTransferFrom(... */\n      jump\t// in\n    tag_364:\n        /* \"contracts/SycrowBarter.sol\":7128:7132  WETH */\n      sload(0x05)\n        /* \"contracts/SycrowBarter.sol\":7122:7153  IWETH(WETH).withdraw(outAmount) */\n      mload(0x40)\n      shl(0xe0, 0x2e1a7d4d)\n      dup2\n      mstore\n      0x04\n      dup2\n      add\n        /* \"#utility.yul\":345:370   */\n      dup5\n      swap1\n      mstore\n        /* \"contracts/SycrowBarter.sol\":7128:7132  WETH */\n      0x0100\n      swap1\n      swap2\n      div\n      sub(shl(0xa0, 0x01), 0x01)\n      and\n      swap1\n        /* \"contracts/SycrowBarter.sol\":7122:7142  IWETH(WETH).withdraw */\n      0x2e1a7d4d\n      swap1\n        /* \"#utility.yul\":318:336   */\n      0x24\n      add\n        /* \"contracts/SycrowBarter.sol\":7122:7153  IWETH(WETH).withdraw(outAmount) */\n      0x00\n      mload(0x40)\n      dup1\n      dup4\n      sub\n      dup2\n      0x00\n      dup8\n      dup1\n      extcodesize\n      iszero\n      dup1\n      iszero\n      tag_367\n      jumpi\n      0x00\n      dup1\n      revert\n    tag_367:\n      pop\n      gas\n      call\n      iszero\n      dup1\n      iszero\n      tag_369\n      jumpi\n      returndatasize\n      0x00\n      dup1\n      returndatacopy\n      revert(0x00, returndatasize)\n    tag_369:\n      pop\n      pop\n      pop\n      pop\n        /* \"contracts/SycrowBarter.sol\":7164:7217  TransferHelper.safeTransferETH(msg.sender, outAmount) */\n      tag_370\n        /* \"contracts/SycrowBarter.sol\":7195:7205  msg.sender */\n      caller\n        /* \"contracts/SycrowBarter.sol\":7207:7216  outAmount */\n      dup4\n        /* \"contracts/SycrowBarter.sol\":7164:7194  TransferHelper.safeTransferETH */\n      tag_202\n        /* \"contracts/SycrowBarter.sol\":7164:7217  TransferHelper.safeTransferETH(msg.sender, outAmount) */\n      jump\t// in\n    tag_370:\n        /* \"contracts/SycrowBarter.sol\":7241:7284  BaterTrade(msg.sender, inAmount, outAmount) */\n      0x40\n      dup1\n      mload\n      0x60\n      dup2\n      add\n      dup3\n      mstore\n        /* \"contracts/SycrowBarter.sol\":7252:7262  msg.sender */\n      caller\n        /* \"contracts/SycrowBarter.sol\":7241:7284  BaterTrade(msg.sender, inAmount, outAmount) */\n      dup2\n      mstore\n      0x20\n      dup2\n      add\n      dup6\n      dup2\n      mstore\n      swap2\n      dup2\n      add\n      dup5\n      dup2\n      mstore\n        /* \"contracts/SycrowBarter.sol\":7228:7235  _trades */\n      0x0a\n        /* \"contracts/SycrowBarter.sol\":7228:7285  _trades.push(BaterTrade(msg.sender, inAmount, outAmount)) */\n      dup1\n      sload\n      0x01\n      dup2\n      add\n      dup3\n      sstore\n      0x00\n      swap2\n      swap1\n      swap2\n      mstore\n      swap2\n      mload\n      0xc65a7bb8d6351c1cf70c95a316cc6a92839c986682d98bc35f958f4883f9d2a8\n      0x03\n      swap1\n      swap4\n      mul\n      swap3\n      dup4\n      add\n      dup1\n      sload\n      not(sub(shl(0xa0, 0x01), 0x01))\n      and\n      sub(shl(0xa0, 0x01), 0x01)\n      swap1\n      swap3\n      and\n      swap2\n      swap1\n      swap2\n      or\n      swap1\n      sstore\n      swap2\n      mload\n      0xc65a7bb8d6351c1cf70c95a316cc6a92839c986682d98bc35f958f4883f9d2a9\n      dup3\n      add\n      sstore\n      swap1\n      mload\n      0xc65a7bb8d6351c1cf70c95a316cc6a92839c986682d98bc35f958f4883f9d2aa\n      swap1\n      swap2\n      add\n      sstore\n      0x02\n        /* \"contracts/SycrowBarter.sol\":7315:7331  totalTradeAmount */\n      sload\n        /* \"contracts/SycrowBarter.sol\":7315:7342  totalTradeAmount + inAmount */\n      tag_372\n      swap1\n        /* \"contracts/SycrowBarter.sol\":7241:7284  BaterTrade(msg.sender, inAmount, outAmount) */\n      dup5\n      swap1\n        /* \"contracts/SycrowBarter.sol\":7315:7342  totalTradeAmount + inAmount */\n      tag_373\n      jump\t// in\n    tag_372:\n        /* \"contracts/SycrowBarter.sol\":7296:7312  totalTradeAmount */\n      0x02\n        /* \"contracts/SycrowBarter.sol\":7296:7342  totalTradeAmount = totalTradeAmount + inAmount */\n      sstore\n        /* \"contracts/SycrowBarter.sol\":7428:7565  sycrFactory.notifyTradeByBarter(... */\n      mload(0x40)\n      shl(0xe0, 0xf52701b7)\n      dup2\n      mstore\n        /* \"contracts/SycrowBarter.sol\":7409:7416  factory */\n      immutable(\"0x9d6b7fbd0ded42ab14e47300e428df3f38e4fbb3a7f790d898a87bff4f86606b\")\n      swap1\n      sub(shl(0xa0, 0x01), 0x01)\n        /* \"contracts/SycrowBarter.sol\":7428:7459  sycrFactory.notifyTradeByBarter */\n      dup3\n      and\n      swap1\n      0xf52701b7\n      swap1\n        /* \"contracts/SycrowBarter.sol\":7428:7565  sycrFactory.notifyTradeByBarter(... */\n      tag_374\n      swap1\n        /* \"contracts/SycrowBarter.sol\":7481:7485  this */\n      address\n      swap1\n        /* \"contracts/SycrowBarter.sol\":7500:7510  msg.sender */\n      caller\n      swap1\n        /* \"contracts/SycrowBarter.sol\":7524:7532  inAmount */\n      dup10\n      swap1\n        /* \"contracts/SycrowBarter.sol\":7546:7555  outAmount */\n      dup10\n      swap1\n        /* \"contracts/SycrowBarter.sol\":7428:7565  sycrFactory.notifyTradeByBarter(... */\n      0x04\n      add\n      tag_229\n      jump\t// in\n    tag_374:\n      0x00\n      mload(0x40)\n      dup1\n      dup4\n      sub\n      dup2\n      0x00\n      dup8\n      dup1\n      extcodesize\n      iszero\n      dup1\n      iszero\n      tag_375\n      jumpi\n      0x00\n      dup1\n      revert\n    tag_375:\n      pop\n      gas\n      call\n      iszero\n      dup1\n      iszero\n      tag_377\n      jumpi\n      returndatasize\n      0x00\n      dup1\n      returndatacopy\n      revert(0x00, returndatasize)\n    tag_377:\n      pop\n      pop\n      pop\n      pop\n        /* \"contracts/SycrowBarter.sol\":6547:7572  {... */\n      pop\n      pop\n      pop\n        /* \"contracts/SycrowBarter.sol\":6493:7572  function _tradeTokenForEth(uint256 inAmount) internal {... */\n      pop\n      jump\t// out\n        /* \"contracts/SycrowBarter.sol\":5389:6487  function _tradeTokenForToken(uint256 inAmount) internal {... */\n    tag_174:\n        /* \"contracts/SycrowBarter.sol\":5483:5504  _expectedTokenAddress */\n      sload(0x07)\n        /* \"contracts/SycrowBarter.sol\":5476:5527  IERC20(_expectedTokenAddress).balanceOf(msg.sender) */\n      mload(0x40)\n      shl(0xe0, 0x70a08231)\n      dup2\n      mstore\n        /* \"contracts/SycrowBarter.sol\":5516:5526  msg.sender */\n      caller\n        /* \"contracts/SycrowBarter.sol\":5476:5527  IERC20(_expectedTokenAddress).balanceOf(msg.sender) */\n      0x04\n      dup3\n      add\n        /* \"#utility.yul\":2609:2660   */\n      mstore\n        /* \"contracts/SycrowBarter.sol\":5531:5539  inAmount */\n      dup3\n      swap2\n      sub(shl(0xa0, 0x01), 0x01)\n        /* \"contracts/SycrowBarter.sol\":5483:5504  _expectedTokenAddress */\n      and\n      swap1\n        /* \"contracts/SycrowBarter.sol\":5476:5515  IERC20(_expectedTokenAddress).balanceOf */\n      0x70a08231\n      swap1\n        /* \"#utility.yul\":2582:2600   */\n      0x24\n      add\n        /* \"contracts/SycrowBarter.sol\":5476:5527  IERC20(_expectedTokenAddress).balanceOf(msg.sender) */\n      0x20\n      mload(0x40)\n      dup1\n      dup4\n      sub\n      dup2\n      dup7\n      gas\n      staticcall\n      iszero\n      dup1\n      iszero\n      tag_381\n      jumpi\n      returndatasize\n      0x00\n      dup1\n      returndatacopy\n      revert(0x00, returndatasize)\n    tag_381:\n      pop\n      pop\n      pop\n      pop\n      mload(0x40)\n      returndatasize\n      not(0x1f)\n      0x1f\n      dup3\n      add\n      and\n      dup3\n      add\n      dup1\n      0x40\n      mstore\n      pop\n      dup2\n      add\n      swap1\n      tag_382\n      swap2\n      swap1\n      tag_195\n      jump\t// in\n    tag_382:\n        /* \"contracts/SycrowBarter.sol\":5476:5539  IERC20(_expectedTokenAddress).balanceOf(msg.sender) >= inAmount */\n      lt\n      iszero\n        /* \"contracts/SycrowBarter.sol\":5455:5599  require(... */\n      tag_383\n      jumpi\n      mload(0x40)\n      shl(0xe5, 0x461bcd)\n      dup2\n      mstore\n      0x04\n      add\n      tag_112\n      swap1\n      tag_355\n      jump\t// in\n    tag_383:\n        /* \"contracts/SycrowBarter.sol\":5610:5627  uint256 outAmount */\n      0x00\n        /* \"contracts/SycrowBarter.sol\":5630:5657  getTradeOutAmount(inAmount) */\n      tag_385\n        /* \"contracts/SycrowBarter.sol\":5648:5656  inAmount */\n      dup3\n        /* \"contracts/SycrowBarter.sol\":5630:5647  getTradeOutAmount */\n      tag_97\n        /* \"contracts/SycrowBarter.sol\":5630:5657  getTradeOutAmount(inAmount) */\n      jump\t// in\n    tag_385:\n        /* \"contracts/SycrowBarter.sol\":5696:5718  _depositedTokenAddress */\n      sload(0x06)\n        /* \"contracts/SycrowBarter.sol\":5689:5744  IERC20(_depositedTokenAddress).balanceOf(address(this)) */\n      mload(0x40)\n      shl(0xe0, 0x70a08231)\n      dup2\n      mstore\n        /* \"contracts/SycrowBarter.sol\":5738:5742  this */\n      address\n        /* \"contracts/SycrowBarter.sol\":5689:5744  IERC20(_depositedTokenAddress).balanceOf(address(this)) */\n      0x04\n      dup3\n      add\n        /* \"#utility.yul\":2609:2660   */\n      mstore\n        /* \"contracts/SycrowBarter.sol\":5610:5657  uint256 outAmount = getTradeOutAmount(inAmount) */\n      swap2\n      swap3\n      pop\n      dup3\n      swap2\n      sub(shl(0xa0, 0x01), 0x01)\n        /* \"contracts/SycrowBarter.sol\":5696:5718  _depositedTokenAddress */\n      swap1\n      swap2\n      and\n      swap1\n        /* \"contracts/SycrowBarter.sol\":5689:5729  IERC20(_depositedTokenAddress).balanceOf */\n      0x70a08231\n      swap1\n        /* \"#utility.yul\":2582:2600   */\n      0x24\n      add\n        /* \"contracts/SycrowBarter.sol\":5689:5744  IERC20(_depositedTokenAddress).balanceOf(address(this)) */\n      0x20\n      mload(0x40)\n      dup1\n      dup4\n      sub\n      dup2\n      dup7\n      gas\n      staticcall\n      iszero\n      dup1\n      iszero\n      tag_388\n      jumpi\n      returndatasize\n      0x00\n      dup1\n      returndatacopy\n      revert(0x00, returndatasize)\n    tag_388:\n      pop\n      pop\n      pop\n      pop\n      mload(0x40)\n      returndatasize\n      not(0x1f)\n      0x1f\n      dup3\n      add\n      and\n      dup3\n      add\n      dup1\n      0x40\n      mstore\n      pop\n      dup2\n      add\n      swap1\n      tag_389\n      swap2\n      swap1\n      tag_195\n      jump\t// in\n    tag_389:\n        /* \"contracts/SycrowBarter.sol\":5689:5773  IERC20(_depositedTokenAddress).balanceOf(address(this)) >=... */\n      lt\n      iszero\n        /* \"contracts/SycrowBarter.sol\":5668:5842  require(... */\n      tag_390\n      jumpi\n      mload(0x40)\n      shl(0xe5, 0x461bcd)\n      dup2\n      mstore\n      0x04\n      add\n      tag_112\n      swap1\n      tag_363\n      jump\t// in\n    tag_390:\n        /* \"contracts/SycrowBarter.sol\":5898:5919  _expectedTokenAddress */\n      sload(0x07)\n        /* \"contracts/SycrowBarter.sol\":5853:6002  TransferHelper.safeTransferFrom(... */\n      tag_392\n      swap1\n      sub(shl(0xa0, 0x01), 0x01)\n        /* \"contracts/SycrowBarter.sol\":5898:5919  _expectedTokenAddress */\n      and\n        /* \"contracts/SycrowBarter.sol\":5933:5943  msg.sender */\n      caller\n        /* \"contracts/SycrowBarter.sol\":5965:5969  this */\n      address\n        /* \"contracts/SycrowBarter.sol\":5984:5992  inAmount */\n      dup6\n        /* \"contracts/SycrowBarter.sol\":5853:5884  TransferHelper.safeTransferFrom */\n      tag_365\n        /* \"contracts/SycrowBarter.sol\":5853:6002  TransferHelper.safeTransferFrom(... */\n      jump\t// in\n    tag_392:\n        /* \"contracts/SycrowBarter.sol\":6053:6075  _depositedTokenAddress */\n      sload(0x06)\n        /* \"contracts/SycrowBarter.sol\":6012:6132  TransferHelper.safeTransfer(... */\n      tag_393\n      swap1\n      sub(shl(0xa0, 0x01), 0x01)\n        /* \"contracts/SycrowBarter.sol\":6053:6075  _depositedTokenAddress */\n      and\n        /* \"contracts/SycrowBarter.sol\":6089:6099  msg.sender */\n      caller\n        /* \"contracts/SycrowBarter.sol\":6113:6122  outAmount */\n      dup4\n        /* \"contracts/SycrowBarter.sol\":6012:6039  TransferHelper.safeTransfer */\n      tag_209\n        /* \"contracts/SycrowBarter.sol\":6012:6132  TransferHelper.safeTransfer(... */\n      jump\t// in\n    tag_393:\n        /* \"contracts/SycrowBarter.sol\":6156:6199  BaterTrade(msg.sender, inAmount, outAmount) */\n      0x40\n      dup1\n      mload\n      0x60\n      dup2\n      add\n      dup3\n      mstore\n        /* \"contracts/SycrowBarter.sol\":6167:6177  msg.sender */\n      caller\n        /* \"contracts/SycrowBarter.sol\":6156:6199  BaterTrade(msg.sender, inAmount, outAmount) */\n      dup2\n      mstore\n      0x20\n      dup2\n      add\n      dup5\n      dup2\n      mstore\n      swap2\n      dup2\n      add\n      dup4\n      dup2\n      mstore\n        /* \"contracts/SycrowBarter.sol\":6143:6150  _trades */\n      0x0a\n        /* \"contracts/SycrowBarter.sol\":6143:6200  _trades.push(BaterTrade(msg.sender, inAmount, outAmount)) */\n      dup1\n      sload\n      0x01\n      dup2\n      add\n      dup3\n      sstore\n      0x00\n      swap2\n      swap1\n      swap2\n      mstore\n      swap2\n      mload\n      0xc65a7bb8d6351c1cf70c95a316cc6a92839c986682d98bc35f958f4883f9d2a8\n      0x03\n      swap1\n      swap4\n      mul\n      swap3\n      dup4\n      add\n      dup1\n      sload\n      not(sub(shl(0xa0, 0x01), 0x01))\n      and\n      sub(shl(0xa0, 0x01), 0x01)\n      swap1\n      swap3\n      and\n      swap2\n      swap1\n      swap2\n      or\n      swap1\n      sstore\n      swap2\n      mload\n      0xc65a7bb8d6351c1cf70c95a316cc6a92839c986682d98bc35f958f4883f9d2a9\n      dup3\n      add\n      sstore\n      swap1\n      mload\n      0xc65a7bb8d6351c1cf70c95a316cc6a92839c986682d98bc35f958f4883f9d2aa\n      swap1\n      swap2\n      add\n      sstore\n      0x02\n        /* \"contracts/SycrowBarter.sol\":6230:6246  totalTradeAmount */\n      sload\n        /* \"contracts/SycrowBarter.sol\":6230:6257  totalTradeAmount + inAmount */\n      tag_395\n      swap1\n        /* \"contracts/SycrowBarter.sol\":6156:6199  BaterTrade(msg.sender, inAmount, outAmount) */\n      dup4\n      swap1\n        /* \"contracts/SycrowBarter.sol\":6230:6257  totalTradeAmount + inAmount */\n      tag_373\n      jump\t// in\n    tag_395:\n        /* \"contracts/SycrowBarter.sol\":6211:6227  totalTradeAmount */\n      0x02\n        /* \"contracts/SycrowBarter.sol\":6211:6257  totalTradeAmount = totalTradeAmount + inAmount */\n      sstore\n        /* \"contracts/SycrowBarter.sol\":6343:6480  sycrFactory.notifyTradeByBarter(... */\n      mload(0x40)\n      shl(0xe0, 0xf52701b7)\n      dup2\n      mstore\n        /* \"contracts/SycrowBarter.sol\":6324:6331  factory */\n      immutable(\"0x9d6b7fbd0ded42ab14e47300e428df3f38e4fbb3a7f790d898a87bff4f86606b\")\n      swap1\n      sub(shl(0xa0, 0x01), 0x01)\n        /* \"contracts/SycrowBarter.sol\":6343:6374  sycrFactory.notifyTradeByBarter */\n      dup3\n      and\n      swap1\n      0xf52701b7\n      swap1\n        /* \"contracts/SycrowBarter.sol\":6343:6480  sycrFactory.notifyTradeByBarter(... */\n      tag_396\n      swap1\n        /* \"contracts/SycrowBarter.sol\":6396:6400  this */\n      address\n      swap1\n        /* \"contracts/SycrowBarter.sol\":6415:6425  msg.sender */\n      caller\n      swap1\n        /* \"contracts/SycrowBarter.sol\":6439:6447  inAmount */\n      dup9\n      swap1\n        /* \"contracts/SycrowBarter.sol\":6461:6470  outAmount */\n      dup9\n      swap1\n        /* \"contracts/SycrowBarter.sol\":6343:6480  sycrFactory.notifyTradeByBarter(... */\n      0x04\n      add\n      tag_229\n      jump\t// in\n    tag_396:\n      0x00\n      mload(0x40)\n      dup1\n      dup4\n      sub\n      dup2\n      0x00\n      dup8\n      dup1\n      extcodesize\n      iszero\n      dup1\n      iszero\n      tag_397\n      jumpi\n      0x00\n      dup1\n      revert\n    tag_397:\n      pop\n      gas\n      call\n      iszero\n      dup1\n      iszero\n      tag_399\n      jumpi\n      returndatasize\n      0x00\n      dup1\n      returndatacopy\n      revert(0x00, returndatasize)\n    tag_399:\n      pop\n      pop\n      pop\n      pop\n        /* \"contracts/SycrowBarter.sol\":5445:6487  {... */\n      pop\n      pop\n        /* \"contracts/SycrowBarter.sol\":5389:6487  function _tradeTokenForToken(uint256 inAmount) internal {... */\n      pop\n      jump\t// out\n        /* \"contracts/libraries/TransferHelper.sol\":1333:1525  function safeTransferETH(address to, uint value) internal {... */\n    tag_202:\n        /* \"contracts/libraries/TransferHelper.sol\":1440:1452  new bytes(0) */\n      0x40\n      dup1\n      mload\n        /* \"contracts/libraries/TransferHelper.sol\":1402:1414  bool success */\n      0x00\n        /* \"contracts/libraries/TransferHelper.sol\":1440:1452  new bytes(0) */\n      dup1\n      dup3\n      mstore\n      0x20\n      dup3\n      add\n      swap1\n      swap3\n      mstore\n      sub(shl(0xa0, 0x01), 0x01)\n        /* \"contracts/libraries/TransferHelper.sol\":1419:1426  to.call */\n      dup5\n      and\n      swap1\n        /* \"contracts/libraries/TransferHelper.sol\":1433:1438  value */\n      dup4\n      swap1\n        /* \"contracts/libraries/TransferHelper.sol\":1419:1453  to.call{value:value}(new bytes(0)) */\n      mload(0x40)\n      tag_405\n      swap2\n      swap1\n      tag_406\n      jump\t// in\n    tag_405:\n      0x00\n      mload(0x40)\n      dup1\n      dup4\n      sub\n      dup2\n      dup6\n      dup8\n      gas\n      call\n      swap3\n      pop\n      pop\n      pop\n      returndatasize\n      dup1\n      0x00\n      dup2\n      eq\n      tag_409\n      jumpi\n      mload(0x40)\n      swap2\n      pop\n      and(add(returndatasize, 0x3f), not(0x1f))\n      dup3\n      add\n      0x40\n      mstore\n      returndatasize\n      dup3\n      mstore\n      returndatasize\n      0x00\n      0x20\n      dup5\n      add\n      returndatacopy\n      jump(tag_408)\n    tag_409:\n      0x60\n      swap2\n      pop\n    tag_408:\n      pop\n        /* \"contracts/libraries/TransferHelper.sol\":1401:1453  (bool success,) = to.call{value:value}(new bytes(0)) */\n      pop\n      swap1\n      pop\n        /* \"contracts/libraries/TransferHelper.sol\":1471:1478  success */\n      dup1\n        /* \"contracts/libraries/TransferHelper.sol\":1463:1518  require(success, 'TransferHelper: ETH_TRANSFER_FAILED') */\n      tag_410\n      jumpi\n      mload(0x40)\n      shl(0xe5, 0x461bcd)\n      dup2\n      mstore\n        /* \"#utility.yul\":12970:12972   */\n      0x20\n        /* \"contracts/libraries/TransferHelper.sol\":1463:1518  require(success, 'TransferHelper: ETH_TRANSFER_FAILED') */\n      0x04\n      dup3\n      add\n        /* \"#utility.yul\":12952:12973   */\n      mstore\n        /* \"#utility.yul\":13009:13011   */\n      0x23\n        /* \"#utility.yul\":12989:13007   */\n      0x24\n      dup3\n      add\n        /* \"#utility.yul\":12982:13012   */\n      mstore\n        /* \"#utility.yul\":13048:13082   */\n      0x5472616e7366657248656c7065723a204554485f5452414e534645525f464149\n        /* \"#utility.yul\":13028:13046   */\n      0x44\n      dup3\n      add\n        /* \"#utility.yul\":13021:13083   */\n      mstore\n      shl(0xea, 0x131151)\n        /* \"#utility.yul\":13099:13117   */\n      0x64\n      dup3\n      add\n        /* \"#utility.yul\":13092:13125   */\n      mstore\n        /* \"#utility.yul\":13142:13161   */\n      0x84\n      add\n        /* \"contracts/libraries/TransferHelper.sol\":1463:1518  require(success, 'TransferHelper: ETH_TRANSFER_FAILED') */\n      tag_112\n        /* \"#utility.yul\":12768:13167   */\n      jump\n        /* \"contracts/libraries/TransferHelper.sol\":1463:1518  require(success, 'TransferHelper: ETH_TRANSFER_FAILED') */\n    tag_410:\n        /* \"contracts/libraries/TransferHelper.sol\":1391:1525  {... */\n      pop\n        /* \"contracts/libraries/TransferHelper.sol\":1333:1525  function safeTransferETH(address to, uint value) internal {... */\n      pop\n      pop\n      jump\t// out\n        /* \"contracts/libraries/TransferHelper.sol\":566:923  function safeTransfer(address token, address to, uint value) internal {... */\n    tag_209:\n        /* \"contracts/libraries/TransferHelper.sol\":759:804  abi.encodeWithSelector(0xa9059cbb, to, value) */\n      0x40\n      dup1\n      mload\n      sub(shl(0xa0, 0x01), 0x01)\n        /* \"#utility.yul\":13364:13396   */\n      dup5\n      dup2\n      and\n        /* \"contracts/libraries/TransferHelper.sol\":759:804  abi.encodeWithSelector(0xa9059cbb, to, value) */\n      0x24\n      dup4\n      add\n        /* \"#utility.yul\":13346:13397   */\n      mstore\n        /* \"#utility.yul\":13413:13431   */\n      0x44\n      dup1\n      dup4\n      add\n        /* \"#utility.yul\":13406:13440   */\n      dup6\n      swap1\n      mstore\n        /* \"contracts/libraries/TransferHelper.sol\":759:804  abi.encodeWithSelector(0xa9059cbb, to, value) */\n      dup4\n      mload\n      dup1\n      dup5\n      sub\n      swap1\n      swap2\n      add\n      dup2\n      mstore\n        /* \"#utility.yul\":13319:13337   */\n      0x64\n      swap1\n      swap3\n      add\n        /* \"contracts/libraries/TransferHelper.sol\":759:804  abi.encodeWithSelector(0xa9059cbb, to, value) */\n      dup4\n      mstore\n      0x20\n      dup3\n      add\n      dup1\n      mload\n      sub(shl(0xe0, 0x01), 0x01)\n      and\n      shl(0xe0, 0xa9059cbb)\n      or\n      swap1\n      mstore\n        /* \"contracts/libraries/TransferHelper.sol\":748:805  token.call(abi.encodeWithSelector(0xa9059cbb, to, value)) */\n      swap2\n      mload\n      0x00\n      swap3\n      dup4\n      swap3\n        /* \"contracts/libraries/TransferHelper.sol\":748:758  token.call */\n      swap1\n      dup8\n      and\n      swap2\n        /* \"contracts/libraries/TransferHelper.sol\":748:805  token.call(abi.encodeWithSelector(0xa9059cbb, to, value)) */\n      tag_416\n      swap2\n        /* \"contracts/libraries/TransferHelper.sol\":759:804  abi.encodeWithSelector(0xa9059cbb, to, value) */\n      swap1\n        /* \"contracts/libraries/TransferHelper.sol\":748:805  token.call(abi.encodeWithSelector(0xa9059cbb, to, value)) */\n      tag_406\n      jump\t// in\n    tag_416:\n      0x00\n      mload(0x40)\n      dup1\n      dup4\n      sub\n      dup2\n      0x00\n      dup7\n      gas\n      call\n      swap2\n      pop\n      pop\n      returndatasize\n      dup1\n      0x00\n      dup2\n      eq\n      tag_419\n      jumpi\n      mload(0x40)\n      swap2\n      pop\n      and(add(returndatasize, 0x3f), not(0x1f))\n      dup3\n      add\n      0x40\n      mstore\n      returndatasize\n      dup3\n      mstore\n      returndatasize\n      0x00\n      0x20\n      dup5\n      add\n      returndatacopy\n      jump(tag_418)\n    tag_419:\n      0x60\n      swap2\n      pop\n    tag_418:\n      pop\n        /* \"contracts/libraries/TransferHelper.sol\":712:805  (bool success, bytes memory data) = token.call(abi.encodeWithSelector(0xa9059cbb, to, value)) */\n      swap2\n      pop\n      swap2\n      pop\n        /* \"contracts/libraries/TransferHelper.sol\":823:830  success */\n      dup2\n        /* \"contracts/libraries/TransferHelper.sol\":823:880  success && (data.length == 0 || abi.decode(data, (bool))) */\n      dup1\n      iszero\n      tag_422\n      jumpi\n      pop\n        /* \"contracts/libraries/TransferHelper.sol\":835:846  data.length */\n      dup1\n      mload\n        /* \"contracts/libraries/TransferHelper.sol\":835:851  data.length == 0 */\n      iszero\n      dup1\n        /* \"contracts/libraries/TransferHelper.sol\":835:879  data.length == 0 || abi.decode(data, (bool)) */\n      tag_422\n      jumpi\n      pop\n        /* \"contracts/libraries/TransferHelper.sol\":866:870  data */\n      dup1\n        /* \"contracts/libraries/TransferHelper.sol\":855:879  abi.decode(data, (bool)) */\n      dup1\n      0x20\n      add\n      swap1\n      mload\n      dup2\n      add\n      swap1\n      tag_422\n      swap2\n      swap1\n      tag_122\n      jump\t// in\n    tag_422:\n        /* \"contracts/libraries/TransferHelper.sol\":815:916  require(success && (data.length == 0 || abi.decode(data, (bool))), 'TransferHelper: TRANSFER_FAILED') */\n      tag_423\n      jumpi\n      mload(0x40)\n      shl(0xe5, 0x461bcd)\n      dup2\n      mstore\n        /* \"#utility.yul\":13653:13655   */\n      0x20\n        /* \"contracts/libraries/TransferHelper.sol\":815:916  require(success && (data.length == 0 || abi.decode(data, (bool))), 'TransferHelper: TRANSFER_FAILED') */\n      0x04\n      dup3\n      add\n        /* \"#utility.yul\":13635:13656   */\n      mstore\n        /* \"#utility.yul\":13692:13694   */\n      0x1f\n        /* \"#utility.yul\":13672:13690   */\n      0x24\n      dup3\n      add\n        /* \"#utility.yul\":13665:13695   */\n      mstore\n        /* \"#utility.yul\":13731:13764   */\n      0x5472616e7366657248656c7065723a205452414e534645525f4641494c454400\n        /* \"#utility.yul\":13711:13729   */\n      0x44\n      dup3\n      add\n        /* \"#utility.yul\":13704:13765   */\n      mstore\n        /* \"#utility.yul\":13782:13800   */\n      0x64\n      add\n        /* \"contracts/libraries/TransferHelper.sol\":815:916  require(success && (data.length == 0 || abi.decode(data, (bool))), 'TransferHelper: TRANSFER_FAILED') */\n      tag_112\n        /* \"#utility.yul\":13451:13806   */\n      jump\n        /* \"contracts/libraries/TransferHelper.sol\":815:916  require(success && (data.length == 0 || abi.decode(data, (bool))), 'TransferHelper: TRANSFER_FAILED') */\n    tag_423:\n        /* \"contracts/libraries/TransferHelper.sol\":636:923  {... */\n      pop\n      pop\n        /* \"contracts/libraries/TransferHelper.sol\":566:923  function safeTransfer(address token, address to, uint value) internal {... */\n      pop\n      pop\n      pop\n      jump\t// out\n        /* \"contracts/SycrowBarter.sol\":7578:8489  function _tradeEthForToken(uint256 inAmount) internal {... */\n    tag_265:\n        /* \"contracts/SycrowBarter.sol\":7662:7671  msg.value */\n      callvalue\n        /* \"contracts/SycrowBarter.sol\":7650:7658  inAmount */\n      dup2\n        /* \"contracts/SycrowBarter.sol\":7650:7671  inAmount == msg.value */\n      eq\n        /* \"contracts/SycrowBarter.sol\":7642:7713  require(inAmount == msg.value, \"SyCrowBarter: MULTI_TRADE_NOT_ENABLED\") */\n      tag_427\n      jumpi\n      mload(0x40)\n      shl(0xe5, 0x461bcd)\n      dup2\n      mstore\n        /* \"#utility.yul\":14013:14015   */\n      0x20\n        /* \"contracts/SycrowBarter.sol\":7642:7713  require(inAmount == msg.value, \"SyCrowBarter: MULTI_TRADE_NOT_ENABLED\") */\n      0x04\n      dup3\n      add\n        /* \"#utility.yul\":13995:14016   */\n      mstore\n        /* \"#utility.yul\":14052:14054   */\n      0x25\n        /* \"#utility.yul\":14032:14050   */\n      0x24\n      dup3\n      add\n        /* \"#utility.yul\":14025:14055   */\n      mstore\n        /* \"#utility.yul\":14091:14125   */\n      0x537943726f774261727465723a204d554c54495f54524144455f4e4f545f454e\n        /* \"#utility.yul\":14071:14089   */\n      0x44\n      dup3\n      add\n        /* \"#utility.yul\":14064:14126   */\n      mstore\n      shl(0xda, 0x1050931151)\n        /* \"#utility.yul\":14142:14160   */\n      0x64\n      dup3\n      add\n        /* \"#utility.yul\":14135:14170   */\n      mstore\n        /* \"#utility.yul\":14187:14206   */\n      0x84\n      add\n        /* \"contracts/SycrowBarter.sol\":7642:7713  require(inAmount == msg.value, \"SyCrowBarter: MULTI_TRADE_NOT_ENABLED\") */\n      tag_112\n        /* \"#utility.yul\":13811:14212   */\n      jump\n        /* \"contracts/SycrowBarter.sol\":7642:7713  require(inAmount == msg.value, \"SyCrowBarter: MULTI_TRADE_NOT_ENABLED\") */\n    tag_427:\n        /* \"contracts/SycrowBarter.sol\":7724:7741  uint256 outAmount */\n      0x00\n        /* \"contracts/SycrowBarter.sol\":7744:7771  getTradeOutAmount(inAmount) */\n      tag_430\n        /* \"contracts/SycrowBarter.sol\":7762:7770  inAmount */\n      dup3\n        /* \"contracts/SycrowBarter.sol\":7744:7761  getTradeOutAmount */\n      tag_97\n        /* \"contracts/SycrowBarter.sol\":7744:7771  getTradeOutAmount(inAmount) */\n      jump\t// in\n    tag_430:\n        /* \"contracts/SycrowBarter.sol\":7810:7832  _depositedTokenAddress */\n      sload(0x06)\n        /* \"contracts/SycrowBarter.sol\":7803:7858  IERC20(_depositedTokenAddress).balanceOf(address(this)) */\n      mload(0x40)\n      shl(0xe0, 0x70a08231)\n      dup2\n      mstore\n        /* \"contracts/SycrowBarter.sol\":7852:7856  this */\n      address\n        /* \"contracts/SycrowBarter.sol\":7803:7858  IERC20(_depositedTokenAddress).balanceOf(address(this)) */\n      0x04\n      dup3\n      add\n        /* \"#utility.yul\":2609:2660   */\n      mstore\n        /* \"contracts/SycrowBarter.sol\":7724:7771  uint256 outAmount = getTradeOutAmount(inAmount) */\n      swap2\n      swap3\n      pop\n      dup3\n      swap2\n      sub(shl(0xa0, 0x01), 0x01)\n        /* \"contracts/SycrowBarter.sol\":7810:7832  _depositedTokenAddress */\n      swap1\n      swap2\n      and\n      swap1\n        /* \"contracts/SycrowBarter.sol\":7803:7843  IERC20(_depositedTokenAddress).balanceOf */\n      0x70a08231\n      swap1\n        /* \"#utility.yul\":2582:2600   */\n      0x24\n      add\n        /* \"contracts/SycrowBarter.sol\":7803:7858  IERC20(_depositedTokenAddress).balanceOf(address(this)) */\n      0x20\n      mload(0x40)\n      dup1\n      dup4\n      sub\n      dup2\n      dup7\n      gas\n      staticcall\n      iszero\n      dup1\n      iszero\n      tag_433\n      jumpi\n      returndatasize\n      0x00\n      dup1\n      returndatacopy\n      revert(0x00, returndatasize)\n    tag_433:\n      pop\n      pop\n      pop\n      pop\n      mload(0x40)\n      returndatasize\n      not(0x1f)\n      0x1f\n      dup3\n      add\n      and\n      dup3\n      add\n      dup1\n      0x40\n      mstore\n      pop\n      dup2\n      add\n      swap1\n      tag_434\n      swap2\n      swap1\n      tag_195\n      jump\t// in\n    tag_434:\n        /* \"contracts/SycrowBarter.sol\":7803:7887  IERC20(_depositedTokenAddress).balanceOf(address(this)) >=... */\n      lt\n      iszero\n        /* \"contracts/SycrowBarter.sol\":7782:7956  require(... */\n      tag_435\n      jumpi\n      mload(0x40)\n      shl(0xe5, 0x461bcd)\n      dup2\n      mstore\n      0x04\n      add\n      tag_112\n      swap1\n      tag_363\n      jump\t// in\n    tag_435:\n        /* \"contracts/SycrowBarter.sol\":7973:7977  WETH */\n      0x05\n      0x01\n      swap1\n      sload\n      swap1\n      0x0100\n      exp\n      swap1\n      div\n      sub(shl(0xa0, 0x01), 0x01)\n      and\n      sub(shl(0xa0, 0x01), 0x01)\n        /* \"contracts/SycrowBarter.sol\":7967:7986  IWETH(WETH).deposit */\n      and\n      0xd0e30db0\n        /* \"contracts/SycrowBarter.sol\":7994:8002  inAmount */\n      dup4\n        /* \"contracts/SycrowBarter.sol\":7967:8005  IWETH(WETH).deposit{value: inAmount}() */\n      mload(0x40)\n      dup3\n      0xffffffff\n      and\n      0xe0\n      shl\n      dup2\n      mstore\n      0x04\n      add\n      0x00\n      mload(0x40)\n      dup1\n      dup4\n      sub\n      dup2\n      dup6\n      dup9\n      dup1\n      extcodesize\n      iszero\n      dup1\n      iszero\n      tag_437\n      jumpi\n      0x00\n      dup1\n      revert\n    tag_437:\n      pop\n      gas\n      call\n      iszero\n      dup1\n      iszero\n      tag_439\n      jumpi\n      returndatasize\n      0x00\n      dup1\n      returndatacopy\n      revert(0x00, returndatasize)\n    tag_439:\n      pop\n      pop\n        /* \"contracts/SycrowBarter.sol\":8057:8079  _depositedTokenAddress */\n      sload(0x06)\n        /* \"contracts/SycrowBarter.sol\":8016:8136  TransferHelper.safeTransfer(... */\n      tag_393\n      swap4\n      pop\n      sub(shl(0xa0, 0x01), 0x01)\n        /* \"contracts/SycrowBarter.sol\":8057:8079  _depositedTokenAddress */\n      and\n      swap2\n      pop\n        /* \"contracts/SycrowBarter.sol\":8093:8103  msg.sender */\n      caller\n      swap1\n      pop\n        /* \"contracts/SycrowBarter.sol\":8117:8126  outAmount */\n      dup4\n        /* \"contracts/SycrowBarter.sol\":8016:8043  TransferHelper.safeTransfer */\n      tag_209\n        /* \"contracts/SycrowBarter.sol\":8016:8136  TransferHelper.safeTransfer(... */\n      jump\t// in\n        /* \"@openzeppelin/contracts/access/Ownable.sol\":2270:2457  function _transferOwnership(address newOwner) internal virtual {... */\n    tag_292:\n        /* \"@openzeppelin/contracts/access/Ownable.sol\":2343:2359  address oldOwner */\n      0x00\n        /* \"@openzeppelin/contracts/access/Ownable.sol\":2362:2368  _owner */\n      dup1\n      sload\n      sub(shl(0xa0, 0x01), 0x01)\n        /* \"@openzeppelin/contracts/access/Ownable.sol\":2378:2395  _owner = newOwner */\n      dup4\n      dup2\n      and\n      not(sub(shl(0xa0, 0x01), 0x01))\n      dup4\n      and\n      dup2\n      or\n      dup5\n      sstore\n        /* \"@openzeppelin/contracts/access/Ownable.sol\":2410:2450  OwnershipTransferred(oldOwner, newOwner) */\n      mload(0x40)\n        /* \"@openzeppelin/contracts/access/Ownable.sol\":2362:2368  _owner */\n      swap2\n      swap1\n      swap3\n      and\n      swap3\n      dup4\n      swap2\n        /* \"@openzeppelin/contracts/access/Ownable.sol\":2410:2450  OwnershipTransferred(oldOwner, newOwner) */\n      0x8be0079c531659141344cd1fd0a4f28419497f9722a3daafe3b4186f6b6457e0\n      swap2\n        /* \"@openzeppelin/contracts/access/Ownable.sol\":2343:2359  address oldOwner */\n      swap1\n        /* \"@openzeppelin/contracts/access/Ownable.sol\":2410:2450  OwnershipTransferred(oldOwner, newOwner) */\n      log3\n        /* \"@openzeppelin/contracts/access/Ownable.sol\":2333:2457  {... */\n      pop\n        /* \"@openzeppelin/contracts/access/Ownable.sol\":2270:2457  function _transferOwnership(address newOwner) internal virtual {... */\n      pop\n      jump\t// out\n        /* \"contracts/libraries/TransferHelper.sol\":929:1327  function safeTransferFrom(address token, address from, address to, uint value) internal {... */\n    tag_365:\n        /* \"contracts/libraries/TransferHelper.sol\":1152:1203  abi.encodeWithSelector(0x23b872dd, from, to, value) */\n      0x40\n      dup1\n      mload\n      sub(shl(0xa0, 0x01), 0x01)\n        /* \"#utility.yul\":14475:14490   */\n      dup6\n      dup2\n      and\n        /* \"contracts/libraries/TransferHelper.sol\":1152:1203  abi.encodeWithSelector(0x23b872dd, from, to, value) */\n      0x24\n      dup4\n      add\n        /* \"#utility.yul\":14457:14491   */\n      mstore\n        /* \"#utility.yul\":14527:14542   */\n      dup5\n      dup2\n      and\n        /* \"#utility.yul\":14507:14525   */\n      0x44\n      dup4\n      add\n        /* \"#utility.yul\":14500:14543   */\n      mstore\n        /* \"#utility.yul\":14559:14577   */\n      0x64\n      dup1\n      dup4\n      add\n        /* \"#utility.yul\":14552:14586   */\n      dup6\n      swap1\n      mstore\n        /* \"contracts/libraries/TransferHelper.sol\":1152:1203  abi.encodeWithSelector(0x23b872dd, from, to, value) */\n      dup4\n      mload\n      dup1\n      dup5\n      sub\n      swap1\n      swap2\n      add\n      dup2\n      mstore\n        /* \"#utility.yul\":14392:14410   */\n      0x84\n      swap1\n      swap3\n      add\n        /* \"contracts/libraries/TransferHelper.sol\":1152:1203  abi.encodeWithSelector(0x23b872dd, from, to, value) */\n      dup4\n      mstore\n      0x20\n      dup3\n      add\n      dup1\n      mload\n      sub(shl(0xe0, 0x01), 0x01)\n      and\n      shl(0xe0, 0x23b872dd)\n      or\n      swap1\n      mstore\n        /* \"contracts/libraries/TransferHelper.sol\":1141:1204  token.call(abi.encodeWithSelector(0x23b872dd, from, to, value)) */\n      swap2\n      mload\n      0x00\n      swap3\n      dup4\n      swap3\n        /* \"contracts/libraries/TransferHelper.sol\":1141:1151  token.call */\n      swap1\n      dup9\n      and\n      swap2\n        /* \"contracts/libraries/TransferHelper.sol\":1141:1204  token.call(abi.encodeWithSelector(0x23b872dd, from, to, value)) */\n      tag_451\n      swap2\n        /* \"contracts/libraries/TransferHelper.sol\":1152:1203  abi.encodeWithSelector(0x23b872dd, from, to, value) */\n      swap1\n        /* \"contracts/libraries/TransferHelper.sol\":1141:1204  token.call(abi.encodeWithSelector(0x23b872dd, from, to, value)) */\n      tag_406\n      jump\t// in\n    tag_451:\n      0x00\n      mload(0x40)\n      dup1\n      dup4\n      sub\n      dup2\n      0x00\n      dup7\n      gas\n      call\n      swap2\n      pop\n      pop\n      returndatasize\n      dup1\n      0x00\n      dup2\n      eq\n      tag_454\n      jumpi\n      mload(0x40)\n      swap2\n      pop\n      and(add(returndatasize, 0x3f), not(0x1f))\n      dup3\n      add\n      0x40\n      mstore\n      returndatasize\n      dup3\n      mstore\n      returndatasize\n      0x00\n      0x20\n      dup5\n      add\n      returndatacopy\n      jump(tag_453)\n    tag_454:\n      0x60\n      swap2\n      pop\n    tag_453:\n      pop\n        /* \"contracts/libraries/TransferHelper.sol\":1105:1204  (bool success, bytes memory data) = token.call(abi.encodeWithSelector(0x23b872dd, from, to, value)) */\n      swap2\n      pop\n      swap2\n      pop\n        /* \"contracts/libraries/TransferHelper.sol\":1222:1229  success */\n      dup2\n        /* \"contracts/libraries/TransferHelper.sol\":1222:1279  success && (data.length == 0 || abi.decode(data, (bool))) */\n      dup1\n      iszero\n      tag_457\n      jumpi\n      pop\n        /* \"contracts/libraries/TransferHelper.sol\":1234:1245  data.length */\n      dup1\n      mload\n        /* \"contracts/libraries/TransferHelper.sol\":1234:1250  data.length == 0 */\n      iszero\n      dup1\n        /* \"contracts/libraries/TransferHelper.sol\":1234:1278  data.length == 0 || abi.decode(data, (bool)) */\n      tag_457\n      jumpi\n      pop\n        /* \"contracts/libraries/TransferHelper.sol\":1265:1269  data */\n      dup1\n        /* \"contracts/libraries/TransferHelper.sol\":1254:1278  abi.decode(data, (bool)) */\n      dup1\n      0x20\n      add\n      swap1\n      mload\n      dup2\n      add\n      swap1\n      tag_457\n      swap2\n      swap1\n      tag_122\n      jump\t// in\n    tag_457:\n        /* \"contracts/libraries/TransferHelper.sol\":1214:1320  require(success && (data.length == 0 || abi.decode(data, (bool))), 'TransferHelper: TRANSFER_FROM_FAILED') */\n      tag_458\n      jumpi\n      mload(0x40)\n      shl(0xe5, 0x461bcd)\n      dup2\n      mstore\n        /* \"#utility.yul\":14799:14801   */\n      0x20\n        /* \"contracts/libraries/TransferHelper.sol\":1214:1320  require(success && (data.length == 0 || abi.decode(data, (bool))), 'TransferHelper: TRANSFER_FROM_FAILED') */\n      0x04\n      dup3\n      add\n        /* \"#utility.yul\":14781:14802   */\n      mstore\n        /* \"#utility.yul\":14838:14840   */\n      0x24\n        /* \"#utility.yul\":14818:14836   */\n      dup1\n      dup3\n      add\n        /* \"#utility.yul\":14811:14841   */\n      mstore\n        /* \"#utility.yul\":14877:14911   */\n      0x5472616e7366657248656c7065723a205452414e534645525f46524f4d5f4641\n        /* \"#utility.yul\":14857:14875   */\n      0x44\n      dup3\n      add\n        /* \"#utility.yul\":14850:14912   */\n      mstore\n      shl(0xe2, 0x12531151)\n        /* \"#utility.yul\":14928:14946   */\n      0x64\n      dup3\n      add\n        /* \"#utility.yul\":14921:14955   */\n      mstore\n        /* \"#utility.yul\":14972:14991   */\n      0x84\n      add\n        /* \"contracts/libraries/TransferHelper.sol\":1214:1320  require(success && (data.length == 0 || abi.decode(data, (bool))), 'TransferHelper: TRANSFER_FROM_FAILED') */\n      tag_112\n        /* \"#utility.yul\":14597:14997   */\n      jump\n        /* \"contracts/libraries/TransferHelper.sol\":1214:1320  require(success && (data.length == 0 || abi.decode(data, (bool))), 'TransferHelper: TRANSFER_FROM_FAILED') */\n    tag_458:\n        /* \"contracts/libraries/TransferHelper.sol\":1017:1327  {... */\n      pop\n      pop\n        /* \"contracts/libraries/TransferHelper.sol\":929:1327  function safeTransferFrom(address token, address from, address to, uint value) internal {... */\n      pop\n      pop\n      pop\n      pop\n      jump\t// out\n        /* \"#utility.yul\":14:194   */\n    tag_31:\n        /* \"#utility.yul\":73:79   */\n      0x00\n        /* \"#utility.yul\":126:128   */\n      0x20\n        /* \"#utility.yul\":114:123   */\n      dup3\n        /* \"#utility.yul\":105:112   */\n      dup5\n        /* \"#utility.yul\":101:124   */\n      sub\n        /* \"#utility.yul\":97:129   */\n      slt\n        /* \"#utility.yul\":94:146   */\n      iszero\n      tag_467\n      jumpi\n        /* \"#utility.yul\":142:143   */\n      0x00\n        /* \"#utility.yul\":139:140   */\n      dup1\n        /* \"#utility.yul\":132:144   */\n      revert\n        /* \"#utility.yul\":94:146   */\n    tag_467:\n      pop\n        /* \"#utility.yul\":165:188   */\n      calldataload\n      swap2\n        /* \"#utility.yul\":14:194   */\n      swap1\n      pop\n      jump\t// out\n        /* \"#utility.yul\":826:999   */\n    tag_461:\n        /* \"#utility.yul\":894:914   */\n      dup1\n      calldataload\n      sub(shl(0xa0, 0x01), 0x01)\n        /* \"#utility.yul\":943:974   */\n      dup2\n      and\n        /* \"#utility.yul\":933:975   */\n      dup2\n      eq\n        /* \"#utility.yul\":923:993   */\n      tag_472\n      jumpi\n        /* \"#utility.yul\":989:990   */\n      0x00\n        /* \"#utility.yul\":986:987   */\n      dup1\n        /* \"#utility.yul\":979:991   */\n      revert\n        /* \"#utility.yul\":923:993   */\n    tag_472:\n        /* \"#utility.yul\":826:999   */\n      swap2\n      swap1\n      pop\n      jump\t// out\n        /* \"#utility.yul\":1004:1122   */\n    tag_462:\n        /* \"#utility.yul\":1090:1095   */\n      dup1\n        /* \"#utility.yul\":1083:1096   */\n      iszero\n        /* \"#utility.yul\":1076:1097   */\n      iszero\n        /* \"#utility.yul\":1069:1074   */\n      dup2\n        /* \"#utility.yul\":1066:1098   */\n      eq\n        /* \"#utility.yul\":1056:1116   */\n      tag_347\n      jumpi\n        /* \"#utility.yul\":1112:1113   */\n      0x00\n        /* \"#utility.yul\":1109:1110   */\n      dup1\n        /* \"#utility.yul\":1102:1114   */\n      revert\n        /* \"#utility.yul\":1127:1971   */\n    tag_65:\n        /* \"#utility.yul\":1268:1274   */\n      0x00\n        /* \"#utility.yul\":1276:1282   */\n      dup1\n        /* \"#utility.yul\":1284:1290   */\n      0x00\n        /* \"#utility.yul\":1292:1298   */\n      dup1\n        /* \"#utility.yul\":1300:1306   */\n      0x00\n        /* \"#utility.yul\":1308:1314   */\n      dup1\n        /* \"#utility.yul\":1316:1322   */\n      0x00\n        /* \"#utility.yul\":1324:1330   */\n      dup1\n        /* \"#utility.yul\":1377:1380   */\n      0x0100\n        /* \"#utility.yul\":1365:1374   */\n      dup10\n        /* \"#utility.yul\":1356:1363   */\n      dup12\n        /* \"#utility.yul\":1352:1375   */\n      sub\n        /* \"#utility.yul\":1348:1381   */\n      slt\n        /* \"#utility.yul\":1345:1398   */\n      iszero\n      tag_476\n      jumpi\n        /* \"#utility.yul\":1394:1395   */\n      0x00\n        /* \"#utility.yul\":1391:1392   */\n      dup1\n        /* \"#utility.yul\":1384:1396   */\n      revert\n        /* \"#utility.yul\":1345:1398   */\n    tag_476:\n        /* \"#utility.yul\":1433:1442   */\n      dup9\n        /* \"#utility.yul\":1420:1443   */\n      calldataload\n        /* \"#utility.yul\":1472:1473   */\n      0x03\n        /* \"#utility.yul\":1465:1470   */\n      dup2\n        /* \"#utility.yul\":1462:1474   */\n      lt\n        /* \"#utility.yul\":1452:1492   */\n      tag_477\n      jumpi\n        /* \"#utility.yul\":1488:1489   */\n      0x00\n        /* \"#utility.yul\":1485:1486   */\n      dup1\n        /* \"#utility.yul\":1478:1490   */\n      revert\n        /* \"#utility.yul\":1452:1492   */\n    tag_477:\n        /* \"#utility.yul\":1511:1516   */\n      swap8\n      pop\n        /* \"#utility.yul\":1535:1573   */\n      tag_478\n        /* \"#utility.yul\":1569:1571   */\n      0x20\n        /* \"#utility.yul\":1554:1572   */\n      dup11\n      add\n        /* \"#utility.yul\":1535:1573   */\n      tag_461\n      jump\t// in\n    tag_478:\n        /* \"#utility.yul\":1525:1573   */\n      swap7\n      pop\n        /* \"#utility.yul\":1592:1630   */\n      tag_479\n        /* \"#utility.yul\":1626:1628   */\n      0x40\n        /* \"#utility.yul\":1615:1624   */\n      dup11\n        /* \"#utility.yul\":1611:1629   */\n      add\n        /* \"#utility.yul\":1592:1630   */\n      tag_461\n      jump\t// in\n    tag_479:\n        /* \"#utility.yul\":1582:1630   */\n      swap6\n      pop\n        /* \"#utility.yul\":1677:1679   */\n      0x60\n        /* \"#utility.yul\":1666:1675   */\n      dup10\n        /* \"#utility.yul\":1662:1680   */\n      add\n        /* \"#utility.yul\":1649:1681   */\n      calldataload\n        /* \"#utility.yul\":1639:1681   */\n      swap5\n      pop\n        /* \"#utility.yul\":1728:1731   */\n      0x80\n        /* \"#utility.yul\":1717:1726   */\n      dup10\n        /* \"#utility.yul\":1713:1732   */\n      add\n        /* \"#utility.yul\":1700:1733   */\n      calldataload\n        /* \"#utility.yul\":1690:1733   */\n      swap4\n      pop\n        /* \"#utility.yul\":1780:1783   */\n      0xa0\n        /* \"#utility.yul\":1769:1778   */\n      dup10\n        /* \"#utility.yul\":1765:1784   */\n      add\n        /* \"#utility.yul\":1752:1785   */\n      calldataload\n        /* \"#utility.yul\":1742:1785   */\n      swap3\n      pop\n        /* \"#utility.yul\":1837:1840   */\n      0xc0\n        /* \"#utility.yul\":1826:1835   */\n      dup10\n        /* \"#utility.yul\":1822:1841   */\n      add\n        /* \"#utility.yul\":1809:1842   */\n      calldataload\n        /* \"#utility.yul\":1851:1881   */\n      tag_480\n        /* \"#utility.yul\":1873:1880   */\n      dup2\n        /* \"#utility.yul\":1851:1881   */\n      tag_462\n      jump\t// in\n    tag_480:\n        /* \"#utility.yul\":1900:1907   */\n      swap2\n      pop\n        /* \"#utility.yul\":1926:1965   */\n      tag_481\n        /* \"#utility.yul\":1960:1963   */\n      0xe0\n        /* \"#utility.yul\":1945:1964   */\n      dup11\n      add\n        /* \"#utility.yul\":1926:1965   */\n      tag_461\n      jump\t// in\n    tag_481:\n        /* \"#utility.yul\":1916:1965   */\n      swap1\n      pop\n        /* \"#utility.yul\":1127:1971   */\n      swap3\n      swap6\n      swap9\n      pop\n      swap3\n      swap6\n      swap9\n      swap1\n      swap4\n      swap7\n      pop\n      jump\t// out\n        /* \"#utility.yul\":1976:2103   */\n    tag_129:\n        /* \"#utility.yul\":2037:2047   */\n      0x4e487b71\n        /* \"#utility.yul\":2032:2035   */\n      0xe0\n        /* \"#utility.yul\":2028:2048   */\n      shl\n        /* \"#utility.yul\":2025:2026   */\n      0x00\n        /* \"#utility.yul\":2018:2049   */\n      mstore\n        /* \"#utility.yul\":2068:2072   */\n      0x21\n        /* \"#utility.yul\":2065:2066   */\n      0x04\n        /* \"#utility.yul\":2058:2073   */\n      mstore\n        /* \"#utility.yul\":2092:2096   */\n      0x24\n        /* \"#utility.yul\":2089:2090   */\n      0x00\n        /* \"#utility.yul\":2082:2097   */\n      revert\n        /* \"#utility.yul\":2108:2458   */\n    tag_75:\n        /* \"#utility.yul\":2262:2264   */\n      0x20\n        /* \"#utility.yul\":2247:2265   */\n      dup2\n      add\n        /* \"#utility.yul\":2295:2296   */\n      0x03\n        /* \"#utility.yul\":2284:2297   */\n      dup4\n      lt\n        /* \"#utility.yul\":2274:2418   */\n      tag_484\n      jumpi\n        /* \"#utility.yul\":2340:2350   */\n      0x4e487b71\n        /* \"#utility.yul\":2335:2338   */\n      0xe0\n        /* \"#utility.yul\":2331:2351   */\n      shl\n        /* \"#utility.yul\":2328:2329   */\n      0x00\n        /* \"#utility.yul\":2321:2352   */\n      mstore\n        /* \"#utility.yul\":2375:2379   */\n      0x21\n        /* \"#utility.yul\":2372:2373   */\n      0x04\n        /* \"#utility.yul\":2365:2380   */\n      mstore\n        /* \"#utility.yul\":2403:2407   */\n      0x24\n        /* \"#utility.yul\":2400:2401   */\n      0x00\n        /* \"#utility.yul\":2393:2408   */\n      revert\n        /* \"#utility.yul\":2274:2418   */\n    tag_484:\n        /* \"#utility.yul\":2427:2452   */\n      swap2\n      swap1\n      mstore\n        /* \"#utility.yul\":2108:2458   */\n      swap1\n      jump\t// out\n        /* \"#utility.yul\":2980:3415   */\n    tag_463:\n        /* \"#utility.yul\":3033:3036   */\n      0x00\n        /* \"#utility.yul\":3071:3076   */\n      dup2\n        /* \"#utility.yul\":3065:3077   */\n      mload\n        /* \"#utility.yul\":3098:3104   */\n      dup1\n        /* \"#utility.yul\":3093:3096   */\n      dup5\n        /* \"#utility.yul\":3086:3105   */\n      mstore\n        /* \"#utility.yul\":3124:3128   */\n      0x20\n        /* \"#utility.yul\":3153:3155   */\n      dup1\n        /* \"#utility.yul\":3148:3151   */\n      dup6\n        /* \"#utility.yul\":3144:3156   */\n      add\n        /* \"#utility.yul\":3137:3156   */\n      swap5\n      pop\n        /* \"#utility.yul\":3190:3192   */\n      dup1\n        /* \"#utility.yul\":3183:3188   */\n      dup5\n        /* \"#utility.yul\":3179:3193   */\n      add\n        /* \"#utility.yul\":3211:3212   */\n      0x00\n        /* \"#utility.yul\":3221:3390   */\n    tag_488:\n        /* \"#utility.yul\":3235:3241   */\n      dup4\n        /* \"#utility.yul\":3232:3233   */\n      dup2\n        /* \"#utility.yul\":3229:3242   */\n      lt\n        /* \"#utility.yul\":3221:3390   */\n      iszero\n      tag_490\n      jumpi\n        /* \"#utility.yul\":3296:3309   */\n      dup2\n      mload\n        /* \"#utility.yul\":3284:3310   */\n      dup8\n      mstore\n        /* \"#utility.yul\":3330:3342   */\n      swap6\n      dup3\n      add\n      swap6\n        /* \"#utility.yul\":3365:3380   */\n      swap1\n      dup3\n      add\n      swap1\n        /* \"#utility.yul\":3257:3258   */\n      0x01\n        /* \"#utility.yul\":3250:3259   */\n      add\n        /* \"#utility.yul\":3221:3390   */\n      jump(tag_488)\n    tag_490:\n      pop\n        /* \"#utility.yul\":3406:3409   */\n      swap5\n      swap6\n        /* \"#utility.yul\":2980:3415   */\n      swap5\n      pop\n      pop\n      pop\n      pop\n      pop\n      jump\t// out\n        /* \"#utility.yul\":3420:4457   */\n    tag_103:\n        /* \"#utility.yul\":3766:3768   */\n      0x60\n        /* \"#utility.yul\":3778:3799   */\n      dup1\n      dup3\n      mstore\n        /* \"#utility.yul\":3848:3861   */\n      dup5\n      mload\n        /* \"#utility.yul\":3751:3769   */\n      swap1\n      dup3\n      add\n        /* \"#utility.yul\":3870:3892   */\n      dup2\n      swap1\n      mstore\n        /* \"#utility.yul\":3718:3722   */\n      0x00\n      swap1\n        /* \"#utility.yul\":3946:3950   */\n      0x20\n      swap1\n        /* \"#utility.yul\":3923:3926   */\n      0x80\n        /* \"#utility.yul\":3908:3927   */\n      dup5\n      add\n      swap1\n        /* \"#utility.yul\":3973:3988   */\n      dup3\n      dup9\n      add\n        /* \"#utility.yul\":3718:3722   */\n      dup5\n        /* \"#utility.yul\":4016:4211   */\n    tag_492:\n        /* \"#utility.yul\":4030:4036   */\n      dup3\n        /* \"#utility.yul\":4027:4028   */\n      dup2\n        /* \"#utility.yul\":4024:4037   */\n      lt\n        /* \"#utility.yul\":4016:4211   */\n      iszero\n      tag_494\n      jumpi\n        /* \"#utility.yul\":4095:4108   */\n      dup2\n      mload\n      sub(shl(0xa0, 0x01), 0x01)\n        /* \"#utility.yul\":4091:4130   */\n      and\n        /* \"#utility.yul\":4079:4131   */\n      dup5\n      mstore\n        /* \"#utility.yul\":4151:4163   */\n      swap3\n      dup5\n      add\n      swap3\n        /* \"#utility.yul\":4186:4201   */\n      swap1\n      dup5\n      add\n      swap1\n        /* \"#utility.yul\":4127:4128   */\n      0x01\n        /* \"#utility.yul\":4045:4054   */\n      add\n        /* \"#utility.yul\":4016:4211   */\n      jump(tag_492)\n    tag_494:\n        /* \"#utility.yul\":4020:4023   */\n      pop\n      pop\n      pop\n        /* \"#utility.yul\":4256:4265   */\n      dup4\n        /* \"#utility.yul\":4251:4254   */\n      dup2\n        /* \"#utility.yul\":4247:4266   */\n      sub\n        /* \"#utility.yul\":4242:4244   */\n      dup3\n        /* \"#utility.yul\":4231:4240   */\n      dup6\n        /* \"#utility.yul\":4227:4245   */\n      add\n        /* \"#utility.yul\":4220:4267   */\n      mstore\n        /* \"#utility.yul\":4290:4331   */\n      tag_495\n        /* \"#utility.yul\":4327:4330   */\n      dup2\n        /* \"#utility.yul\":4319:4325   */\n      dup8\n        /* \"#utility.yul\":4290:4331   */\n      tag_463\n      jump\t// in\n    tag_495:\n        /* \"#utility.yul\":4276:4331   */\n      swap2\n      pop\n      pop\n        /* \"#utility.yul\":4379:4388   */\n      dup3\n        /* \"#utility.yul\":4371:4377   */\n      dup2\n        /* \"#utility.yul\":4367:4389   */\n      sub\n        /* \"#utility.yul\":4362:4364   */\n      0x40\n        /* \"#utility.yul\":4351:4360   */\n      dup5\n        /* \"#utility.yul\":4347:4365   */\n      add\n        /* \"#utility.yul\":4340:4390   */\n      mstore\n        /* \"#utility.yul\":4407:4451   */\n      tag_496\n        /* \"#utility.yul\":4444:4450   */\n      dup2\n        /* \"#utility.yul\":4436:4442   */\n      dup6\n        /* \"#utility.yul\":4407:4451   */\n      tag_463\n      jump\t// in\n    tag_496:\n        /* \"#utility.yul\":4399:4451   */\n      swap7\n        /* \"#utility.yul\":3420:4457   */\n      swap6\n      pop\n      pop\n      pop\n      pop\n      pop\n      pop\n      jump\t// out\n        /* \"#utility.yul\":4462:4648   */\n    tag_107:\n        /* \"#utility.yul\":4521:4527   */\n      0x00\n        /* \"#utility.yul\":4574:4576   */\n      0x20\n        /* \"#utility.yul\":4562:4571   */\n      dup3\n        /* \"#utility.yul\":4553:4560   */\n      dup5\n        /* \"#utility.yul\":4549:4572   */\n      sub\n        /* \"#utility.yul\":4545:4577   */\n      slt\n        /* \"#utility.yul\":4542:4594   */\n      iszero\n      tag_498\n      jumpi\n        /* \"#utility.yul\":4590:4591   */\n      0x00\n        /* \"#utility.yul\":4587:4588   */\n      dup1\n        /* \"#utility.yul\":4580:4592   */\n      revert\n        /* \"#utility.yul\":4542:4594   */\n    tag_498:\n        /* \"#utility.yul\":4613:4642   */\n      tag_499\n        /* \"#utility.yul\":4632:4641   */\n      dup3\n        /* \"#utility.yul\":4613:4642   */\n      tag_461\n      jump\t// in\n    tag_499:\n        /* \"#utility.yul\":4603:4642   */\n      swap4\n        /* \"#utility.yul\":4462:4648   */\n      swap3\n      pop\n      pop\n      pop\n      jump\t// out\n        /* \"#utility.yul\":4653:4999   */\n    tag_113:\n        /* \"#utility.yul\":4855:4857   */\n      0x20\n        /* \"#utility.yul\":4837:4858   */\n      dup1\n      dup3\n      mstore\n        /* \"#utility.yul\":4894:4896   */\n      0x16\n        /* \"#utility.yul\":4874:4892   */\n      swap1\n      dup3\n      add\n        /* \"#utility.yul\":4867:4897   */\n      mstore\n      shl(0x50, 0x537943726f774261727465723a20494e414354495645)\n        /* \"#utility.yul\":4928:4930   */\n      0x40\n        /* \"#utility.yul\":4913:4931   */\n      dup3\n      add\n        /* \"#utility.yul\":4906:4958   */\n      mstore\n        /* \"#utility.yul\":4990:4992   */\n      0x60\n        /* \"#utility.yul\":4975:4993   */\n      add\n      swap1\n        /* \"#utility.yul\":4653:4999   */\n      jump\t// out\n        /* \"#utility.yul\":5004:5357   */\n    tag_117:\n        /* \"#utility.yul\":5206:5208   */\n      0x20\n        /* \"#utility.yul\":5188:5209   */\n      dup1\n      dup3\n      mstore\n        /* \"#utility.yul\":5245:5247   */\n      0x1d\n        /* \"#utility.yul\":5225:5243   */\n      swap1\n      dup3\n      add\n        /* \"#utility.yul\":5218:5248   */\n      mstore\n        /* \"#utility.yul\":5284:5315   */\n      0x537943726f774261727465723a204e4f545f494e495449414c495a4544000000\n        /* \"#utility.yul\":5279:5281   */\n      0x40\n        /* \"#utility.yul\":5264:5282   */\n      dup3\n      add\n        /* \"#utility.yul\":5257:5316   */\n      mstore\n        /* \"#utility.yul\":5348:5350   */\n      0x60\n        /* \"#utility.yul\":5333:5351   */\n      add\n      swap1\n        /* \"#utility.yul\":5004:5357   */\n      jump\t// out\n        /* \"#utility.yul\":5362:5607   */\n    tag_122:\n        /* \"#utility.yul\":5429:5435   */\n      0x00\n        /* \"#utility.yul\":5482:5484   */\n      0x20\n        /* \"#utility.yul\":5470:5479   */\n      dup3\n        /* \"#utility.yul\":5461:5468   */\n      dup5\n        /* \"#utility.yul\":5457:5480   */\n      sub\n        /* \"#utility.yul\":5453:5485   */\n      slt\n        /* \"#utility.yul\":5450:5502   */\n      iszero\n      tag_503\n      jumpi\n        /* \"#utility.yul\":5498:5499   */\n      0x00\n        /* \"#utility.yul\":5495:5496   */\n      dup1\n        /* \"#utility.yul\":5488:5500   */\n      revert\n        /* \"#utility.yul\":5450:5502   */\n    tag_503:\n        /* \"#utility.yul\":5530:5539   */\n      dup2\n        /* \"#utility.yul\":5524:5540   */\n      mload\n        /* \"#utility.yul\":5549:5577   */\n      tag_499\n        /* \"#utility.yul\":5571:5576   */\n      dup2\n        /* \"#utility.yul\":5549:5577   */\n      tag_462\n      jump\t// in\n        /* \"#utility.yul\":5612:6010   */\n    tag_125:\n        /* \"#utility.yul\":5814:5816   */\n      0x20\n        /* \"#utility.yul\":5796:5817   */\n      dup1\n      dup3\n      mstore\n        /* \"#utility.yul\":5853:5855   */\n      0x22\n        /* \"#utility.yul\":5833:5851   */\n      swap1\n      dup3\n      add\n        /* \"#utility.yul\":5826:5856   */\n      mstore\n        /* \"#utility.yul\":5892:5926   */\n      0x537943726f774261727465723a204261736520436f6e74726163742050617573\n        /* \"#utility.yul\":5887:5889   */\n      0x40\n        /* \"#utility.yul\":5872:5890   */\n      dup3\n      add\n        /* \"#utility.yul\":5865:5927   */\n      mstore\n      shl(0xf2, 0x1959)\n        /* \"#utility.yul\":5958:5960   */\n      0x60\n        /* \"#utility.yul\":5943:5961   */\n      dup3\n      add\n        /* \"#utility.yul\":5936:5968   */\n      mstore\n        /* \"#utility.yul\":6000:6003   */\n      0x80\n        /* \"#utility.yul\":5985:6004   */\n      add\n      swap1\n        /* \"#utility.yul\":5612:6010   */\n      jump\t// out\n        /* \"#utility.yul\":6015:6412   */\n    tag_134:\n        /* \"#utility.yul\":6217:6219   */\n      0x20\n        /* \"#utility.yul\":6199:6220   */\n      dup1\n      dup3\n      mstore\n        /* \"#utility.yul\":6256:6258   */\n      0x21\n        /* \"#utility.yul\":6236:6254   */\n      swap1\n      dup3\n      add\n        /* \"#utility.yul\":6229:6259   */\n      mstore\n        /* \"#utility.yul\":6295:6329   */\n      0x537943726f774261727465723a20494e56414c49445f4241525445525f545950\n        /* \"#utility.yul\":6290:6292   */\n      0x40\n        /* \"#utility.yul\":6275:6293   */\n      dup3\n      add\n        /* \"#utility.yul\":6268:6330   */\n      mstore\n      shl(0xf8, 0x45)\n        /* \"#utility.yul\":6361:6363   */\n      0x60\n        /* \"#utility.yul\":6346:6364   */\n      dup3\n      add\n        /* \"#utility.yul\":6339:6370   */\n      mstore\n        /* \"#utility.yul\":6402:6405   */\n      0x80\n        /* \"#utility.yul\":6387:6406   */\n      add\n      swap1\n        /* \"#utility.yul\":6015:6412   */\n      jump\t// out\n        /* \"#utility.yul\":6417:6772   */\n    tag_138:\n        /* \"#utility.yul\":6619:6621   */\n      0x20\n        /* \"#utility.yul\":6601:6622   */\n      dup1\n      dup3\n      mstore\n        /* \"#utility.yul\":6658:6660   */\n      0x1f\n        /* \"#utility.yul\":6638:6656   */\n      swap1\n      dup3\n      add\n        /* \"#utility.yul\":6631:6661   */\n      mstore\n        /* \"#utility.yul\":6697:6730   */\n      0x5265656e7472616e637947756172643a207265656e7472616e742063616c6c00\n        /* \"#utility.yul\":6692:6694   */\n      0x40\n        /* \"#utility.yul\":6677:6695   */\n      dup3\n      add\n        /* \"#utility.yul\":6670:6731   */\n      mstore\n        /* \"#utility.yul\":6763:6765   */\n      0x60\n        /* \"#utility.yul\":6748:6766   */\n      add\n      swap1\n        /* \"#utility.yul\":6417:6772   */\n      jump\t// out\n        /* \"#utility.yul\":6777:7182   */\n    tag_143:\n        /* \"#utility.yul\":6979:6981   */\n      0x20\n        /* \"#utility.yul\":6961:6982   */\n      dup1\n      dup3\n      mstore\n        /* \"#utility.yul\":7018:7020   */\n      0x29\n        /* \"#utility.yul\":6998:7016   */\n      swap1\n      dup3\n      add\n        /* \"#utility.yul\":6991:7021   */\n      mstore\n        /* \"#utility.yul\":7057:7091   */\n      0x537943726f774261727465723a20414d4f554e545f4c4f5745525f5448414e5f\n        /* \"#utility.yul\":7052:7054   */\n      0x40\n        /* \"#utility.yul\":7037:7055   */\n      dup3\n      add\n        /* \"#utility.yul\":7030:7092   */\n      mstore\n      shl(0xba, 0x149154555492549151)\n        /* \"#utility.yul\":7123:7125   */\n      0x60\n        /* \"#utility.yul\":7108:7126   */\n      dup3\n      add\n        /* \"#utility.yul\":7101:7140   */\n      mstore\n        /* \"#utility.yul\":7172:7175   */\n      0x80\n        /* \"#utility.yul\":7157:7176   */\n      add\n      swap1\n        /* \"#utility.yul\":6777:7182   */\n      jump\t// out\n        /* \"#utility.yul\":7536:7892   */\n    tag_189:\n        /* \"#utility.yul\":7738:7740   */\n      0x20\n        /* \"#utility.yul\":7720:7741   */\n      dup1\n      dup3\n      mstore\n        /* \"#utility.yul\":7757:7775   */\n      dup2\n      dup2\n      add\n        /* \"#utility.yul\":7750:7780   */\n      mstore\n        /* \"#utility.yul\":7816:7850   */\n      0x4f776e61626c653a2063616c6c6572206973206e6f7420746865206f776e6572\n        /* \"#utility.yul\":7811:7813   */\n      0x40\n        /* \"#utility.yul\":7796:7814   */\n      dup3\n      add\n        /* \"#utility.yul\":7789:7851   */\n      mstore\n        /* \"#utility.yul\":7883:7885   */\n      0x60\n        /* \"#utility.yul\":7868:7886   */\n      add\n      swap1\n        /* \"#utility.yul\":7536:7892   */\n      jump\t// out\n        /* \"#utility.yul\":7897:8081   */\n    tag_195:\n        /* \"#utility.yul\":7967:7973   */\n      0x00\n        /* \"#utility.yul\":8020:8022   */\n      0x20\n        /* \"#utility.yul\":8008:8017   */\n      dup3\n        /* \"#utility.yul\":7999:8006   */\n      dup5\n        /* \"#utility.yul\":7995:8018   */\n      sub\n        /* \"#utility.yul\":7991:8023   */\n      slt\n        /* \"#utility.yul\":7988:8040   */\n      iszero\n      tag_512\n      jumpi\n        /* \"#utility.yul\":8036:8037   */\n      0x00\n        /* \"#utility.yul\":8033:8034   */\n      dup1\n        /* \"#utility.yul\":8026:8038   */\n      revert\n        /* \"#utility.yul\":7988:8040   */\n    tag_512:\n      pop\n        /* \"#utility.yul\":8059:8075   */\n      mload\n      swap2\n        /* \"#utility.yul\":7897:8081   */\n      swap1\n      pop\n      jump\t// out\n        /* \"#utility.yul\":8086:8533   */\n    tag_229:\n      sub(shl(0xa0, 0x01), 0x01)\n        /* \"#utility.yul\":8373:8388   */\n      swap5\n      dup6\n      and\n        /* \"#utility.yul\":8355:8389   */\n      dup2\n      mstore\n        /* \"#utility.yul\":8425:8440   */\n      swap3\n      swap1\n      swap4\n      and\n        /* \"#utility.yul\":8420:8422   */\n      0x20\n        /* \"#utility.yul\":8405:8423   */\n      dup4\n      add\n        /* \"#utility.yul\":8398:8441   */\n      mstore\n        /* \"#utility.yul\":8472:8474   */\n      0x40\n        /* \"#utility.yul\":8457:8475   */\n      dup3\n      add\n        /* \"#utility.yul\":8450:8484   */\n      mstore\n        /* \"#utility.yul\":8515:8517   */\n      0x60\n        /* \"#utility.yul\":8500:8518   */\n      dup2\n      add\n        /* \"#utility.yul\":8493:8527   */\n      swap2\n      swap1\n      swap2\n      mstore\n        /* \"#utility.yul\":8304:8307   */\n      0x80\n        /* \"#utility.yul\":8289:8308   */\n      add\n      swap1\n        /* \"#utility.yul\":8086:8533   */\n      jump\t// out\n        /* \"#utility.yul\":10051:10178   */\n    tag_464:\n        /* \"#utility.yul\":10112:10122   */\n      0x4e487b71\n        /* \"#utility.yul\":10107:10110   */\n      0xe0\n        /* \"#utility.yul\":10103:10123   */\n      shl\n        /* \"#utility.yul\":10100:10101   */\n      0x00\n        /* \"#utility.yul\":10093:10124   */\n      mstore\n        /* \"#utility.yul\":10143:10147   */\n      0x11\n        /* \"#utility.yul\":10140:10141   */\n      0x04\n        /* \"#utility.yul\":10133:10148   */\n      mstore\n        /* \"#utility.yul\":10167:10171   */\n      0x24\n        /* \"#utility.yul\":10164:10165   */\n      0x00\n        /* \"#utility.yul\":10157:10172   */\n      revert\n        /* \"#utility.yul\":10183:10351   */\n    tag_300:\n        /* \"#utility.yul\":10223:10230   */\n      0x00\n        /* \"#utility.yul\":10289:10290   */\n      dup2\n        /* \"#utility.yul\":10285:10286   */\n      0x00\n        /* \"#utility.yul\":10281:10287   */\n      not\n        /* \"#utility.yul\":10277:10291   */\n      div\n        /* \"#utility.yul\":10274:10275   */\n      dup4\n        /* \"#utility.yul\":10271:10292   */\n      gt\n        /* \"#utility.yul\":10266:10267   */\n      dup3\n        /* \"#utility.yul\":10259:10268   */\n      iszero\n        /* \"#utility.yul\":10252:10269   */\n      iszero\n        /* \"#utility.yul\":10248:10293   */\n      and\n        /* \"#utility.yul\":10245:10316   */\n      iszero\n      tag_521\n      jumpi\n        /* \"#utility.yul\":10296:10314   */\n      tag_521\n      tag_464\n      jump\t// in\n    tag_521:\n      pop\n        /* \"#utility.yul\":10336:10345   */\n      mul\n      swap1\n        /* \"#utility.yul\":10183:10351   */\n      jump\t// out\n        /* \"#utility.yul\":10356:10573   */\n    tag_302:\n        /* \"#utility.yul\":10396:10397   */\n      0x00\n        /* \"#utility.yul\":10422:10423   */\n      dup3\n        /* \"#utility.yul\":10412:10544   */\n      tag_523\n      jumpi\n        /* \"#utility.yul\":10466:10476   */\n      0x4e487b71\n        /* \"#utility.yul\":10461:10464   */\n      0xe0\n        /* \"#utility.yul\":10457:10477   */\n      shl\n        /* \"#utility.yul\":10454:10455   */\n      0x00\n        /* \"#utility.yul\":10447:10478   */\n      mstore\n        /* \"#utility.yul\":10501:10505   */\n      0x12\n        /* \"#utility.yul\":10498:10499   */\n      0x04\n        /* \"#utility.yul\":10491:10506   */\n      mstore\n        /* \"#utility.yul\":10529:10533   */\n      0x24\n        /* \"#utility.yul\":10526:10527   */\n      0x00\n        /* \"#utility.yul\":10519:10534   */\n      revert\n        /* \"#utility.yul\":10412:10544   */\n    tag_523:\n      pop\n        /* \"#utility.yul\":10558:10567   */\n      div\n      swap1\n        /* \"#utility.yul\":10356:10573   */\n      jump\t// out\n        /* \"#utility.yul\":10578:10705   */\n    tag_309:\n        /* \"#utility.yul\":10639:10649   */\n      0x4e487b71\n        /* \"#utility.yul\":10634:10637   */\n      0xe0\n        /* \"#utility.yul\":10630:10650   */\n      shl\n        /* \"#utility.yul\":10627:10628   */\n      0x00\n        /* \"#utility.yul\":10620:10651   */\n      mstore\n        /* \"#utility.yul\":10670:10674   */\n      0x41\n        /* \"#utility.yul\":10667:10668   */\n      0x04\n        /* \"#utility.yul\":10660:10675   */\n      mstore\n        /* \"#utility.yul\":10694:10698   */\n      0x24\n        /* \"#utility.yul\":10691:10692   */\n      0x00\n        /* \"#utility.yul\":10684:10699   */\n      revert\n        /* \"#utility.yul\":10710:10837   */\n    tag_322:\n        /* \"#utility.yul\":10771:10781   */\n      0x4e487b71\n        /* \"#utility.yul\":10766:10769   */\n      0xe0\n        /* \"#utility.yul\":10762:10782   */\n      shl\n        /* \"#utility.yul\":10759:10760   */\n      0x00\n        /* \"#utility.yul\":10752:10783   */\n      mstore\n        /* \"#utility.yul\":10802:10806   */\n      0x32\n        /* \"#utility.yul\":10799:10800   */\n      0x04\n        /* \"#utility.yul\":10792:10807   */\n      mstore\n        /* \"#utility.yul\":10826:10830   */\n      0x24\n        /* \"#utility.yul\":10823:10824   */\n      0x00\n        /* \"#utility.yul\":10816:10831   */\n      revert\n        /* \"#utility.yul\":10842:10977   */\n    tag_337:\n        /* \"#utility.yul\":10881:10884   */\n      0x00\n        /* \"#utility.yul\":10902:10919   */\n      0x01\n      dup3\n      add\n        /* \"#utility.yul\":10899:10942   */\n      tag_528\n      jumpi\n        /* \"#utility.yul\":10922:10940   */\n      tag_528\n      tag_464\n      jump\t// in\n    tag_528:\n      pop\n        /* \"#utility.yul\":10969:10970   */\n      0x01\n        /* \"#utility.yul\":10958:10971   */\n      add\n      swap1\n        /* \"#utility.yul\":10842:10977   */\n      jump\t// out\n        /* \"#utility.yul\":11389:11787   */\n    tag_355:\n        /* \"#utility.yul\":11591:11593   */\n      0x20\n        /* \"#utility.yul\":11573:11594   */\n      dup1\n      dup3\n      mstore\n        /* \"#utility.yul\":11630:11632   */\n      0x22\n        /* \"#utility.yul\":11610:11628   */\n      swap1\n      dup3\n      add\n        /* \"#utility.yul\":11603:11633   */\n      mstore\n        /* \"#utility.yul\":11669:11703   */\n      0x537943726f774261727465723a20494e53554646494349454e545f42414c414e\n        /* \"#utility.yul\":11664:11666   */\n      0x40\n        /* \"#utility.yul\":11649:11667   */\n      dup3\n      add\n        /* \"#utility.yul\":11642:11704   */\n      mstore\n      shl(0xf0, 0x4345)\n        /* \"#utility.yul\":11735:11737   */\n      0x60\n        /* \"#utility.yul\":11720:11738   */\n      dup3\n      add\n        /* \"#utility.yul\":11713:11745   */\n      mstore\n        /* \"#utility.yul\":11777:11780   */\n      0x80\n        /* \"#utility.yul\":11762:11781   */\n      add\n      swap1\n        /* \"#utility.yul\":11389:11787   */\n      jump\t// out\n        /* \"#utility.yul\":11792:12199   */\n    tag_363:\n        /* \"#utility.yul\":11994:11996   */\n      0x20\n        /* \"#utility.yul\":11976:11997   */\n      dup1\n      dup3\n      mstore\n        /* \"#utility.yul\":12033:12035   */\n      0x2b\n        /* \"#utility.yul\":12013:12031   */\n      swap1\n      dup3\n      add\n        /* \"#utility.yul\":12006:12036   */\n      mstore\n        /* \"#utility.yul\":12072:12106   */\n      0x537943726f774261727465723a20494e53554646494349454e545f434f4e5452\n        /* \"#utility.yul\":12067:12069   */\n      0x40\n        /* \"#utility.yul\":12052:12070   */\n      dup3\n      add\n        /* \"#utility.yul\":12045:12107   */\n      mstore\n      shl(0xa8, 0x4143545f42414c414e4345)\n        /* \"#utility.yul\":12138:12140   */\n      0x60\n        /* \"#utility.yul\":12123:12141   */\n      dup3\n      add\n        /* \"#utility.yul\":12116:12157   */\n      mstore\n        /* \"#utility.yul\":12189:12192   */\n      0x80\n        /* \"#utility.yul\":12174:12193   */\n      add\n      swap1\n        /* \"#utility.yul\":11792:12199   */\n      jump\t// out\n        /* \"#utility.yul\":12204:12332   */\n    tag_373:\n        /* \"#utility.yul\":12244:12247   */\n      0x00\n        /* \"#utility.yul\":12275:12276   */\n      dup3\n        /* \"#utility.yul\":12271:12277   */\n      not\n        /* \"#utility.yul\":12268:12269   */\n      dup3\n        /* \"#utility.yul\":12265:12278   */\n      gt\n        /* \"#utility.yul\":12262:12301   */\n      iszero\n      tag_534\n      jumpi\n        /* \"#utility.yul\":12281:12299   */\n      tag_534\n      tag_464\n      jump\t// in\n    tag_534:\n      pop\n        /* \"#utility.yul\":12317:12326   */\n      add\n      swap1\n        /* \"#utility.yul\":12204:12332   */\n      jump\t// out\n        /* \"#utility.yul\":12337:12763   */\n    tag_406:\n        /* \"#utility.yul\":12466:12469   */\n      0x00\n        /* \"#utility.yul\":12504:12510   */\n      dup3\n        /* \"#utility.yul\":12498:12511   */\n      mload\n        /* \"#utility.yul\":12529:12530   */\n      0x00\n        /* \"#utility.yul\":12539:12668   */\n    tag_536:\n        /* \"#utility.yul\":12553:12559   */\n      dup2\n        /* \"#utility.yul\":12550:12551   */\n      dup2\n        /* \"#utility.yul\":12547:12560   */\n      lt\n        /* \"#utility.yul\":12539:12668   */\n      iszero\n      tag_538\n      jumpi\n        /* \"#utility.yul\":12651:12655   */\n      0x20\n        /* \"#utility.yul\":12635:12649   */\n      dup2\n      dup7\n      add\n        /* \"#utility.yul\":12631:12656   */\n      dup2\n      add\n        /* \"#utility.yul\":12625:12657   */\n      mload\n        /* \"#utility.yul\":12612:12623   */\n      dup6\n      dup4\n      add\n        /* \"#utility.yul\":12605:12658   */\n      mstore\n        /* \"#utility.yul\":12568:12580   */\n      add\n        /* \"#utility.yul\":12539:12668   */\n      jump(tag_536)\n    tag_538:\n        /* \"#utility.yul\":12686:12692   */\n      dup2\n        /* \"#utility.yul\":12683:12684   */\n      dup2\n        /* \"#utility.yul\":12680:12693   */\n      gt\n        /* \"#utility.yul\":12677:12725   */\n      iszero\n      tag_539\n      jumpi\n        /* \"#utility.yul\":12721:12722   */\n      0x00\n        /* \"#utility.yul\":12712:12718   */\n      dup3\n        /* \"#utility.yul\":12707:12710   */\n      dup6\n        /* \"#utility.yul\":12703:12719   */\n      add\n        /* \"#utility.yul\":12696:12723   */\n      mstore\n        /* \"#utility.yul\":12677:12725   */\n    tag_539:\n      pop\n        /* \"#utility.yul\":12741:12757   */\n      swap2\n      swap1\n      swap2\n      add\n      swap3\n        /* \"#utility.yul\":12337:12763   */\n      swap2\n      pop\n      pop\n      jump\t// out\n\n    auxdata: 0xa26469706673582212207b409e083d708ffbf307e2d16b4e25b1559346863d3880ac8fcfc49974c5c51e64736f6c634300080d0033\n}\n",
				"bytecode": {
					"linkReferences": {},
					"object": "60a06040526005805460ff60a81b1916905534801561001d57600080fd5b5061002733610034565b6001805533608052610084565b600080546001600160a01b038381166001600160a01b0319831681178455604051919092169283917f8be0079c531659141344cd1fd0a4f28419497f9722a3daafe3b4186f6b6457e09190a35050565b6080516122776100d0600039600081816102e1015281816103e801528181610594015281816109ea01528181610b0201528181610c54015281816114dd015261178c01526122776000f3fe6080604052600436106101015760003560e01c8063715018a61161008f578063c45a015511610061578063c45a0155146102cf578063c6ea703814610303578063dab5a8df1461031d578063e43372e91461033d578063f2fde38b1461036157005b8063715018a61461022c57806389523742146102415780638da5cb5b14610268578063aa6ca8081461029a57005b80633ccfd60b116100d35780633ccfd60b146101a45780633d370b4e146101b957806340a6f1ab146101e35780634341f920146101f95780635f5780e51461020c57005b80630d1826051461010a57806329dcb0cf1461012a5780632ffc6887146101535780633072cf601461017357005b3661010857005b005b34801561011657600080fd5b50610108610125366004611cea565b610381565b34801561013657600080fd5b5061014060045481565b6040519081526020015b60405180910390f35b34801561015f57600080fd5b5061010861016e366004611cea565b610536565b34801561017f57600080fd5b5060055461019490600160a81b900460ff1681565b604051901515815260200161014a565b3480156101b057600080fd5b506101086106d8565b3480156101c557600080fd5b506101ce610a6a565b6040805192835260208301919091520161014a565b3480156101ef57600080fd5b5061014060025481565b610108610207366004611cea565b610aa4565b34801561021857600080fd5b50610194610227366004611d2d565b610c47565b34801561023857600080fd5b50610108610ef0565b34801561024d57600080fd5b5060055461025b9060ff1681565b60405161014a9190611dcd565b34801561027457600080fd5b506000546001600160a01b03165b6040516001600160a01b03909116815260200161014a565b3480156102a657600080fd5b506102af610f26565b604080516001600160a01b0393841681529290911660208301520161014a565b3480156102db57600080fd5b506102827f000000000000000000000000000000000000000000000000000000000000000081565b34801561030f57600080fd5b506003546101949060ff1681565b34801561032957600080fd5b50610140610338366004611cea565b610f6d565b34801561034957600080fd5b50610352610f90565b60405161014a93929190611e30565b34801561036d57600080fd5b5061010861037c366004611ea5565b6111b6565b42600454101580156103965750600954600254105b6103bb5760405162461bcd60e51b81526004016103b290611ec7565b60405180910390fd5b600554600160a81b900460ff166103e45760405162461bcd60e51b81526004016103b290611ef7565b60007f00000000000000000000000000000000000000000000000000000000000000009050806001600160a01b031663b187bd266040518163ffffffff1660e01b8152600401602060405180830381865afa158015610447573d6000803e3d6000fd5b505050506040513d601f19601f8201168201806040525081019061046b9190611f2e565b156104885760405162461bcd60e51b81526004016103b290611f4b565b60055460009060ff1660028111156104a2576104a2611db7565b8160028111156104b4576104b4611db7565b146104d15760405162461bcd60e51b81526004016103b290611f8d565b6002600154036104f35760405162461bcd60e51b81526004016103b290611fce565b600260015560035460ff16610524576009548310156105245760405162461bcd60e51b81526004016103b290612005565b61052d83611251565b50506001805550565b426004541015801561054b5750600954600254105b6105675760405162461bcd60e51b81526004016103b290611ec7565b600554600160a81b900460ff166105905760405162461bcd60e51b81526004016103b290611ef7565b60007f00000000000000000000000000000000000000000000000000000000000000009050806001600160a01b031663b187bd266040518163ffffffff1660e01b8152600401602060405180830381865afa1580156105f3573d6000803e3d6000fd5b505050506040513d601f19601f820116820180604052508101906106179190611f2e565b156106345760405162461bcd60e51b81526004016103b290611f4b565b60055460029060ff168181111561064d5761064d611db7565b81600281111561065f5761065f611db7565b1461067c5760405162461bcd60e51b81526004016103b290611f8d565b60026001540361069e5760405162461bcd60e51b81526004016103b290611fce565b600260015560035460ff166106cf576009548310156106cf5760405162461bcd60e51b81526004016103b290612005565b61052d8361155a565b4260045410806106ec575060095460025410155b61072f5760405162461bcd60e51b8152602060048201526014602482015273537943726f774261727465723a2041435449564560601b60448201526064016103b2565b600554600160a81b900460ff166107585760405162461bcd60e51b81526004016103b290611ef7565b6000546001600160a01b031633146107825760405162461bcd60e51b81526004016103b29061204e565b6005546040516370a0823160e01b81523060048201526101009091046001600160a01b03169060009082906370a0823190602401602060405180830381865afa1580156107d3573d6000803e3d6000fd5b505050506040513d601f19601f820116820180604052508101906107f79190612083565b9050801561086b57600554604051632e1a7d4d60e01b8152600481018390526101009091046001600160a01b031690632e1a7d4d90602401600060405180830381600087803b15801561084957600080fd5b505af115801561085d573d6000803e3d6000fd5b5050505061086b3382611808565b6007546040516370a0823160e01b81523060048201526000916001600160a01b0316906370a0823190602401602060405180830381865afa1580156108b4573d6000803e3d6000fd5b505050506040513d601f19601f820116820180604052508101906108d89190612083565b905080156108f7576007546108f7906001600160a01b031633836118d6565b6006546040516370a0823160e01b81523060048201526000916001600160a01b0316906370a0823190602401602060405180830381865afa158015610940573d6000803e3d6000fd5b505050506040513d601f19601f820116820180604052508101906109649190612083565b9050801561098357600654610983906001600160a01b031633836118d6565b6000808060055460ff16600281111561099e5761099e611db7565b036109ad5750839050826109db565b600260055460ff1660028111156109c6576109c6611db7565b036109d55750819050826109db565b50819050835b6040516319bcb50760e11b81527f0000000000000000000000000000000000000000000000000000000000000000906001600160a01b038216906333796a0e90610a2f90309033908890889060040161209c565b600060405180830381600087803b158015610a4957600080fd5b505af1158015610a5d573d6000803e3d6000fd5b5050505050505050505050565b6005546000908190600160a81b900460ff16610a985760405162461bcd60e51b81526004016103b290611ef7565b50506008546009549091565b4260045410158015610ab95750600954600254105b610ad55760405162461bcd60e51b81526004016103b290611ec7565b600554600160a81b900460ff16610afe5760405162461bcd60e51b81526004016103b290611ef7565b60007f00000000000000000000000000000000000000000000000000000000000000009050806001600160a01b031663b187bd266040518163ffffffff1660e01b8152600401602060405180830381865afa158015610b61573d6000803e3d6000fd5b505050506040513d601f19601f82011682018060405250810190610b859190611f2e565b15610ba25760405162461bcd60e51b81526004016103b290611f4b565b60055460019060ff166002811115610bbc57610bbc611db7565b816002811115610bce57610bce611db7565b14610beb5760405162461bcd60e51b81526004016103b290611f8d565b600260015403610c0d5760405162461bcd60e51b81526004016103b290611fce565b600260015560035460ff16610c3e57600954341015610c3e5760405162461bcd60e51b81526004016103b290612005565b61052d836119f1565b6000336001600160a01b037f00000000000000000000000000000000000000000000000000000000000000001614610cc15760405162461bcd60e51b815260206004820152601760248201527f537943726f774261727465723a20464f5242494444454e00000000000000000060448201526064016103b2565b600554600160a81b900460ff1615610d255760405162461bcd60e51b815260206004820152602160248201527f537943726f774261727465723a20414c52454144595f494e495449414c495a456044820152601160fa1b60648201526084016103b2565b42841015610d755760405162461bcd60e51b815260206004820152601b60248201527f537943726f774261727465723a20504153545f444541444c494e45000000000060448201526064016103b2565b6040516370a0823160e01b815230600482015286906001600160a01b038a16906370a0823190602401602060405180830381865afa158015610dbb573d6000803e3d6000fd5b505050506040513d601f19601f82011682018060405250810190610ddf9190612083565b1015610e385760405162461bcd60e51b815260206004820152602260248201527f537943726f774261727465723a20494e53554646494349454e545f4445504f53604482015261125560f21b60648201526084016103b2565b6004849055600680546001600160a01b03808b166001600160a01b03199283161790925560078054928a169290911691909117905560088690556009859055600580548a919060ff19166001836002811115610e9657610e96611db7565b0217905550506003805483151560ff199091161790556005805460ff60a81b196001600160a01b0384166101000216610100600160b01b031990911617600160a81b90811791829055900460ff1698975050505050505050565b6000546001600160a01b03163314610f1a5760405162461bcd60e51b81526004016103b29061204e565b610f246000611b6a565b565b6005546000908190600160a81b900460ff16610f545760405162461bcd60e51b81526004016103b290611ef7565b50506006546007546001600160a01b0391821691169091565b600060095460085483610f8091906120db565b610f8a91906120fa565b92915050565b6060806060600560159054906101000a900460ff16610fc15760405162461bcd60e51b81526004016103b290611ef7565b600a5460009067ffffffffffffffff811115610fdf57610fdf61211c565b604051908082528060200260200182016040528015611008578160200160208202803683370190505b50600a5490915060009067ffffffffffffffff81111561102a5761102a61211c565b604051908082528060200260200182016040528015611053578160200160208202803683370190505b50600a5490915060009067ffffffffffffffff8111156110755761107561211c565b60405190808252806020026020018201604052801561109e578160200160208202803683370190505b50905060005b600a548110156111a957600a81815481106110c1576110c1612132565b600091825260209091206003909102015484516001600160a01b03909116908590839081106110f2576110f2612132565b60200260200101906001600160a01b031690816001600160a01b031681525050600a818154811061112557611125612132565b90600052602060002090600302016001015483828151811061114957611149612132565b602002602001018181525050600a818154811061116857611168612132565b90600052602060002090600302016002015482828151811061118c5761118c612132565b6020908102919091010152806111a181612148565b9150506110a4565b5091945092509050909192565b6000546001600160a01b031633146111e05760405162461bcd60e51b81526004016103b29061204e565b6001600160a01b0381166112455760405162461bcd60e51b815260206004820152602660248201527f4f776e61626c653a206e6577206f776e657220697320746865207a65726f206160448201526564647265737360d01b60648201526084016103b2565b61124e81611b6a565b50565b6007546040516370a0823160e01b815233600482015282916001600160a01b0316906370a0823190602401602060405180830381865afa158015611299573d6000803e3d6000fd5b505050506040513d601f19601f820116820180604052508101906112bd9190612083565b10156112db5760405162461bcd60e51b81526004016103b290612161565b60006112e682610f6d565b6005546040516370a0823160e01b815230600482015291925061010090046001600160a01b031690829082906370a0823190602401602060405180830381865afa158015611338573d6000803e3d6000fd5b505050506040513d601f19601f8201168201806040525081019061135c9190612083565b101561137a5760405162461bcd60e51b81526004016103b2906121a3565b600754611392906001600160a01b0316333086611bba565b600554604051632e1a7d4d60e01b8152600481018490526101009091046001600160a01b031690632e1a7d4d90602401600060405180830381600087803b1580156113dc57600080fd5b505af11580156113f0573d6000803e3d6000fd5b505050506113fe3383611808565b6040805160608101825233815260208101858152918101848152600a805460018101825560009190915291517fc65a7bb8d6351c1cf70c95a316cc6a92839c986682d98bc35f958f4883f9d2a8600390930292830180546001600160a01b0319166001600160a01b0390921691909117905591517fc65a7bb8d6351c1cf70c95a316cc6a92839c986682d98bc35f958f4883f9d2a982015590517fc65a7bb8d6351c1cf70c95a316cc6a92839c986682d98bc35f958f4883f9d2aa909101556002546114cb9084906121ee565b60025560405163f52701b760e01b81527f0000000000000000000000000000000000000000000000000000000000000000906001600160a01b0382169063f52701b79061152290309033908990899060040161209c565b600060405180830381600087803b15801561153c57600080fd5b505af1158015611550573d6000803e3d6000fd5b5050505050505050565b6007546040516370a0823160e01b815233600482015282916001600160a01b0316906370a0823190602401602060405180830381865afa1580156115a2573d6000803e3d6000fd5b505050506040513d601f19601f820116820180604052508101906115c69190612083565b10156115e45760405162461bcd60e51b81526004016103b290612161565b60006115ef82610f6d565b6006546040516370a0823160e01b815230600482015291925082916001600160a01b03909116906370a0823190602401602060405180830381865afa15801561163c573d6000803e3d6000fd5b505050506040513d601f19601f820116820180604052508101906116609190612083565b101561167e5760405162461bcd60e51b81526004016103b2906121a3565b600754611696906001600160a01b0316333085611bba565b6006546116ad906001600160a01b031633836118d6565b6040805160608101825233815260208101848152918101838152600a805460018101825560009190915291517fc65a7bb8d6351c1cf70c95a316cc6a92839c986682d98bc35f958f4883f9d2a8600390930292830180546001600160a01b0319166001600160a01b0390921691909117905591517fc65a7bb8d6351c1cf70c95a316cc6a92839c986682d98bc35f958f4883f9d2a982015590517fc65a7bb8d6351c1cf70c95a316cc6a92839c986682d98bc35f958f4883f9d2aa9091015560025461177a9083906121ee565b60025560405163f52701b760e01b81527f0000000000000000000000000000000000000000000000000000000000000000906001600160a01b0382169063f52701b7906117d190309033908890889060040161209c565b600060405180830381600087803b1580156117eb57600080fd5b505af11580156117ff573d6000803e3d6000fd5b50505050505050565b604080516000808252602082019092526001600160a01b0384169083906040516118329190612206565b60006040518083038185875af1925050503d806000811461186f576040519150601f19603f3d011682016040523d82523d6000602084013e611874565b606091505b50509050806118d15760405162461bcd60e51b815260206004820152602360248201527f5472616e7366657248656c7065723a204554485f5452414e534645525f46414960448201526213115160ea1b60648201526084016103b2565b505050565b604080516001600160a01b038481166024830152604480830185905283518084039091018152606490920183526020820180516001600160e01b031663a9059cbb60e01b17905291516000928392908716916119329190612206565b6000604051808303816000865af19150503d806000811461196f576040519150601f19603f3d011682016040523d82523d6000602084013e611974565b606091505b509150915081801561199e57508051158061199e57508080602001905181019061199e9190611f2e565b6119ea5760405162461bcd60e51b815260206004820152601f60248201527f5472616e7366657248656c7065723a205452414e534645525f4641494c45440060448201526064016103b2565b5050505050565b348114611a4e5760405162461bcd60e51b815260206004820152602560248201527f537943726f774261727465723a204d554c54495f54524144455f4e4f545f454e604482015264105093115160da1b60648201526084016103b2565b6000611a5982610f6d565b6006546040516370a0823160e01b815230600482015291925082916001600160a01b03909116906370a0823190602401602060405180830381865afa158015611aa6573d6000803e3d6000fd5b505050506040513d601f19601f82011682018060405250810190611aca9190612083565b1015611ae85760405162461bcd60e51b81526004016103b2906121a3565b600560019054906101000a90046001600160a01b03166001600160a01b031663d0e30db0836040518263ffffffff1660e01b81526004016000604051808303818588803b158015611b3857600080fd5b505af1158015611b4c573d6000803e3d6000fd5b50506006546116ad93506001600160a01b03169150339050836118d6565b600080546001600160a01b038381166001600160a01b0319831681178455604051919092169283917f8be0079c531659141344cd1fd0a4f28419497f9722a3daafe3b4186f6b6457e09190a35050565b604080516001600160a01b0385811660248301528481166044830152606480830185905283518084039091018152608490920183526020820180516001600160e01b03166323b872dd60e01b1790529151600092839290881691611c1e9190612206565b6000604051808303816000865af19150503d8060008114611c5b576040519150601f19603f3d011682016040523d82523d6000602084013e611c60565b606091505b5091509150818015611c8a575080511580611c8a575080806020019051810190611c8a9190611f2e565b611ce25760405162461bcd60e51b8152602060048201526024808201527f5472616e7366657248656c7065723a205452414e534645525f46524f4d5f46416044820152631253115160e21b60648201526084016103b2565b505050505050565b600060208284031215611cfc57600080fd5b5035919050565b80356001600160a01b0381168114611d1a57600080fd5b919050565b801515811461124e57600080fd5b600080600080600080600080610100898b031215611d4a57600080fd5b883560038110611d5957600080fd5b9750611d6760208a01611d03565b9650611d7560408a01611d03565b9550606089013594506080890135935060a0890135925060c0890135611d9a81611d1f565b9150611da860e08a01611d03565b90509295985092959890939650565b634e487b7160e01b600052602160045260246000fd5b6020810160038310611def57634e487b7160e01b600052602160045260246000fd5b91905290565b600081518084526020808501945080840160005b83811015611e2557815187529582019590820190600101611e09565b509495945050505050565b606080825284519082018190526000906020906080840190828801845b82811015611e725781516001600160a01b031684529284019290840190600101611e4d565b50505083810382850152611e868187611df5565b9150508281036040840152611e9b8185611df5565b9695505050505050565b600060208284031215611eb757600080fd5b611ec082611d03565b9392505050565b602080825260169082015275537943726f774261727465723a20494e41435449564560501b604082015260600190565b6020808252601d908201527f537943726f774261727465723a204e4f545f494e495449414c495a4544000000604082015260600190565b600060208284031215611f4057600080fd5b8151611ec081611d1f565b60208082526022908201527f537943726f774261727465723a204261736520436f6e74726163742050617573604082015261195960f21b606082015260800190565b60208082526021908201527f537943726f774261727465723a20494e56414c49445f4241525445525f5459506040820152604560f81b606082015260800190565b6020808252601f908201527f5265656e7472616e637947756172643a207265656e7472616e742063616c6c00604082015260600190565b60208082526029908201527f537943726f774261727465723a20414d4f554e545f4c4f5745525f5448414e5f60408201526814915455549254915160ba1b606082015260800190565b6020808252818101527f4f776e61626c653a2063616c6c6572206973206e6f7420746865206f776e6572604082015260600190565b60006020828403121561209557600080fd5b5051919050565b6001600160a01b0394851681529290931660208301526040820152606081019190915260800190565b634e487b7160e01b600052601160045260246000fd5b60008160001904831182151516156120f5576120f56120c5565b500290565b60008261211757634e487b7160e01b600052601260045260246000fd5b500490565b634e487b7160e01b600052604160045260246000fd5b634e487b7160e01b600052603260045260246000fd5b60006001820161215a5761215a6120c5565b5060010190565b60208082526022908201527f537943726f774261727465723a20494e53554646494349454e545f42414c414e604082015261434560f01b606082015260800190565b6020808252602b908201527f537943726f774261727465723a20494e53554646494349454e545f434f4e545260408201526a4143545f42414c414e434560a81b606082015260800190565b60008219821115612201576122016120c5565b500190565b6000825160005b81811015612227576020818601810151858301520161220d565b81811115612236576000828501525b50919091019291505056fea26469706673582212207b409e083d708ffbf307e2d16b4e25b1559346863d3880ac8fcfc49974c5c51e64736f6c634300080d0033",
					"opcodes": "PUSH1 0xA0 PUSH1 0x40 MSTORE PUSH1 0x5 DUP1 SLOAD PUSH1 0xFF PUSH1 0xA8 SHL NOT AND SWAP1 SSTORE CALLVALUE DUP1 ISZERO PUSH2 0x1D JUMPI PUSH1 0x0 DUP1 REVERT JUMPDEST POP PUSH2 0x27 CALLER PUSH2 0x34 JUMP JUMPDEST PUSH1 0x1 DUP1 SSTORE CALLER PUSH1 0x80 MSTORE PUSH2 0x84 JUMP JUMPDEST PUSH1 0x0 DUP1 SLOAD PUSH1 0x1 PUSH1 0x1 PUSH1 0xA0 SHL SUB DUP4 DUP2 AND PUSH1 0x1 PUSH1 0x1 PUSH1 0xA0 SHL SUB NOT DUP4 AND DUP2 OR DUP5 SSTORE PUSH1 0x40 MLOAD SWAP2 SWAP1 SWAP3 AND SWAP3 DUP4 SWAP2 PUSH32 0x8BE0079C531659141344CD1FD0A4F28419497F9722A3DAAFE3B4186F6B6457E0 SWAP2 SWAP1 LOG3 POP POP JUMP JUMPDEST PUSH1 0x80 MLOAD PUSH2 0x2277 PUSH2 0xD0 PUSH1 0x0 CODECOPY PUSH1 0x0 DUP2 DUP2 PUSH2 0x2E1 ADD MSTORE DUP2 DUP2 PUSH2 0x3E8 ADD MSTORE DUP2 DUP2 PUSH2 0x594 ADD MSTORE DUP2 DUP2 PUSH2 0x9EA ADD MSTORE DUP2 DUP2 PUSH2 0xB02 ADD MSTORE DUP2 DUP2 PUSH2 0xC54 ADD MSTORE DUP2 DUP2 PUSH2 0x14DD ADD MSTORE PUSH2 0x178C ADD MSTORE PUSH2 0x2277 PUSH1 0x0 RETURN INVALID PUSH1 0x80 PUSH1 0x40 MSTORE PUSH1 0x4 CALLDATASIZE LT PUSH2 0x101 JUMPI PUSH1 0x0 CALLDATALOAD PUSH1 0xE0 SHR DUP1 PUSH4 0x715018A6 GT PUSH2 0x8F JUMPI DUP1 PUSH4 0xC45A0155 GT PUSH2 0x61 JUMPI DUP1 PUSH4 0xC45A0155 EQ PUSH2 0x2CF JUMPI DUP1 PUSH4 0xC6EA7038 EQ PUSH2 0x303 JUMPI DUP1 PUSH4 0xDAB5A8DF EQ PUSH2 0x31D JUMPI DUP1 PUSH4 0xE43372E9 EQ PUSH2 0x33D JUMPI DUP1 PUSH4 0xF2FDE38B EQ PUSH2 0x361 JUMPI STOP JUMPDEST DUP1 PUSH4 0x715018A6 EQ PUSH2 0x22C JUMPI DUP1 PUSH4 0x89523742 EQ PUSH2 0x241 JUMPI DUP1 PUSH4 0x8DA5CB5B EQ PUSH2 0x268 JUMPI DUP1 PUSH4 0xAA6CA808 EQ PUSH2 0x29A JUMPI STOP JUMPDEST DUP1 PUSH4 0x3CCFD60B GT PUSH2 0xD3 JUMPI DUP1 PUSH4 0x3CCFD60B EQ PUSH2 0x1A4 JUMPI DUP1 PUSH4 0x3D370B4E EQ PUSH2 0x1B9 JUMPI DUP1 PUSH4 0x40A6F1AB EQ PUSH2 0x1E3 JUMPI DUP1 PUSH4 0x4341F920 EQ PUSH2 0x1F9 JUMPI DUP1 PUSH4 0x5F5780E5 EQ PUSH2 0x20C JUMPI STOP JUMPDEST DUP1 PUSH4 0xD182605 EQ PUSH2 0x10A JUMPI DUP1 PUSH4 0x29DCB0CF EQ PUSH2 0x12A JUMPI DUP1 PUSH4 0x2FFC6887 EQ PUSH2 0x153 JUMPI DUP1 PUSH4 0x3072CF60 EQ PUSH2 0x173 JUMPI STOP JUMPDEST CALLDATASIZE PUSH2 0x108 JUMPI STOP JUMPDEST STOP JUMPDEST CALLVALUE DUP1 ISZERO PUSH2 0x116 JUMPI PUSH1 0x0 DUP1 REVERT JUMPDEST POP PUSH2 0x108 PUSH2 0x125 CALLDATASIZE PUSH1 0x4 PUSH2 0x1CEA JUMP JUMPDEST PUSH2 0x381 JUMP JUMPDEST CALLVALUE DUP1 ISZERO PUSH2 0x136 JUMPI PUSH1 0x0 DUP1 REVERT JUMPDEST POP PUSH2 0x140 PUSH1 0x4 SLOAD DUP2 JUMP JUMPDEST PUSH1 0x40 MLOAD SWAP1 DUP2 MSTORE PUSH1 0x20 ADD JUMPDEST PUSH1 0x40 MLOAD DUP1 SWAP2 SUB SWAP1 RETURN JUMPDEST CALLVALUE DUP1 ISZERO PUSH2 0x15F JUMPI PUSH1 0x0 DUP1 REVERT JUMPDEST POP PUSH2 0x108 PUSH2 0x16E CALLDATASIZE PUSH1 0x4 PUSH2 0x1CEA JUMP JUMPDEST PUSH2 0x536 JUMP JUMPDEST CALLVALUE DUP1 ISZERO PUSH2 0x17F JUMPI PUSH1 0x0 DUP1 REVERT JUMPDEST POP PUSH1 0x5 SLOAD PUSH2 0x194 SWAP1 PUSH1 0x1 PUSH1 0xA8 SHL SWAP1 DIV PUSH1 0xFF AND DUP2 JUMP JUMPDEST PUSH1 0x40 MLOAD SWAP1 ISZERO ISZERO DUP2 MSTORE PUSH1 0x20 ADD PUSH2 0x14A JUMP JUMPDEST CALLVALUE DUP1 ISZERO PUSH2 0x1B0 JUMPI PUSH1 0x0 DUP1 REVERT JUMPDEST POP PUSH2 0x108 PUSH2 0x6D8 JUMP JUMPDEST CALLVALUE DUP1 ISZERO PUSH2 0x1C5 JUMPI PUSH1 0x0 DUP1 REVERT JUMPDEST POP PUSH2 0x1CE PUSH2 0xA6A JUMP JUMPDEST PUSH1 0x40 DUP1 MLOAD SWAP3 DUP4 MSTORE PUSH1 0x20 DUP4 ADD SWAP2 SWAP1 SWAP2 MSTORE ADD PUSH2 0x14A JUMP JUMPDEST CALLVALUE DUP1 ISZERO PUSH2 0x1EF JUMPI PUSH1 0x0 DUP1 REVERT JUMPDEST POP PUSH2 0x140 PUSH1 0x2 SLOAD DUP2 JUMP JUMPDEST PUSH2 0x108 PUSH2 0x207 CALLDATASIZE PUSH1 0x4 PUSH2 0x1CEA JUMP JUMPDEST PUSH2 0xAA4 JUMP JUMPDEST CALLVALUE DUP1 ISZERO PUSH2 0x218 JUMPI PUSH1 0x0 DUP1 REVERT JUMPDEST POP PUSH2 0x194 PUSH2 0x227 CALLDATASIZE PUSH1 0x4 PUSH2 0x1D2D JUMP JUMPDEST PUSH2 0xC47 JUMP JUMPDEST CALLVALUE DUP1 ISZERO PUSH2 0x238 JUMPI PUSH1 0x0 DUP1 REVERT JUMPDEST POP PUSH2 0x108 PUSH2 0xEF0 JUMP JUMPDEST CALLVALUE DUP1 ISZERO PUSH2 0x24D JUMPI PUSH1 0x0 DUP1 REVERT JUMPDEST POP PUSH1 0x5 SLOAD PUSH2 0x25B SWAP1 PUSH1 0xFF AND DUP2 JUMP JUMPDEST PUSH1 0x40 MLOAD PUSH2 0x14A SWAP2 SWAP1 PUSH2 0x1DCD JUMP JUMPDEST CALLVALUE DUP1 ISZERO PUSH2 0x274 JUMPI PUSH1 0x0 DUP1 REVERT JUMPDEST POP PUSH1 0x0 SLOAD PUSH1 0x1 PUSH1 0x1 PUSH1 0xA0 SHL SUB AND JUMPDEST PUSH1 0x40 MLOAD PUSH1 0x1 PUSH1 0x1 PUSH1 0xA0 SHL SUB SWAP1 SWAP2 AND DUP2 MSTORE PUSH1 0x20 ADD PUSH2 0x14A JUMP JUMPDEST CALLVALUE DUP1 ISZERO PUSH2 0x2A6 JUMPI PUSH1 0x0 DUP1 REVERT JUMPDEST POP PUSH2 0x2AF PUSH2 0xF26 JUMP JUMPDEST PUSH1 0x40 DUP1 MLOAD PUSH1 0x1 PUSH1 0x1 PUSH1 0xA0 SHL SUB SWAP4 DUP5 AND DUP2 MSTORE SWAP3 SWAP1 SWAP2 AND PUSH1 0x20 DUP4 ADD MSTORE ADD PUSH2 0x14A JUMP JUMPDEST CALLVALUE DUP1 ISZERO PUSH2 0x2DB JUMPI PUSH1 0x0 DUP1 REVERT JUMPDEST POP PUSH2 0x282 PUSH32 0x0 DUP2 JUMP JUMPDEST CALLVALUE DUP1 ISZERO PUSH2 0x30F JUMPI PUSH1 0x0 DUP1 REVERT JUMPDEST POP PUSH1 0x3 SLOAD PUSH2 0x194 SWAP1 PUSH1 0xFF AND DUP2 JUMP JUMPDEST CALLVALUE DUP1 ISZERO PUSH2 0x329 JUMPI PUSH1 0x0 DUP1 REVERT JUMPDEST POP PUSH2 0x140 PUSH2 0x338 CALLDATASIZE PUSH1 0x4 PUSH2 0x1CEA JUMP JUMPDEST PUSH2 0xF6D JUMP JUMPDEST CALLVALUE DUP1 ISZERO PUSH2 0x349 JUMPI PUSH1 0x0 DUP1 REVERT JUMPDEST POP PUSH2 0x352 PUSH2 0xF90 JUMP JUMPDEST PUSH1 0x40 MLOAD PUSH2 0x14A SWAP4 SWAP3 SWAP2 SWAP1 PUSH2 0x1E30 JUMP JUMPDEST CALLVALUE DUP1 ISZERO PUSH2 0x36D JUMPI PUSH1 0x0 DUP1 REVERT JUMPDEST POP PUSH2 0x108 PUSH2 0x37C CALLDATASIZE PUSH1 0x4 PUSH2 0x1EA5 JUMP JUMPDEST PUSH2 0x11B6 JUMP JUMPDEST TIMESTAMP PUSH1 0x4 SLOAD LT ISZERO DUP1 ISZERO PUSH2 0x396 JUMPI POP PUSH1 0x9 SLOAD PUSH1 0x2 SLOAD LT JUMPDEST PUSH2 0x3BB JUMPI PUSH1 0x40 MLOAD PUSH3 0x461BCD PUSH1 0xE5 SHL DUP2 MSTORE PUSH1 0x4 ADD PUSH2 0x3B2 SWAP1 PUSH2 0x1EC7 JUMP JUMPDEST PUSH1 0x40 MLOAD DUP1 SWAP2 SUB SWAP1 REVERT JUMPDEST PUSH1 0x5 SLOAD PUSH1 0x1 PUSH1 0xA8 SHL SWAP1 DIV PUSH1 0xFF AND PUSH2 0x3E4 JUMPI PUSH1 0x40 MLOAD PUSH3 0x461BCD PUSH1 0xE5 SHL DUP2 MSTORE PUSH1 0x4 ADD PUSH2 0x3B2 SWAP1 PUSH2 0x1EF7 JUMP JUMPDEST PUSH1 0x0 PUSH32 0x0 SWAP1 POP DUP1 PUSH1 0x1 PUSH1 0x1 PUSH1 0xA0 SHL SUB AND PUSH4 0xB187BD26 PUSH1 0x40 MLOAD DUP2 PUSH4 0xFFFFFFFF AND PUSH1 0xE0 SHL DUP2 MSTORE PUSH1 0x4 ADD PUSH1 0x20 PUSH1 0x40 MLOAD DUP1 DUP4 SUB DUP2 DUP7 GAS STATICCALL ISZERO DUP1 ISZERO PUSH2 0x447 JUMPI RETURNDATASIZE PUSH1 0x0 DUP1 RETURNDATACOPY RETURNDATASIZE PUSH1 0x0 REVERT JUMPDEST POP POP POP POP PUSH1 0x40 MLOAD RETURNDATASIZE PUSH1 0x1F NOT PUSH1 0x1F DUP3 ADD AND DUP3 ADD DUP1 PUSH1 0x40 MSTORE POP DUP2 ADD SWAP1 PUSH2 0x46B SWAP2 SWAP1 PUSH2 0x1F2E JUMP JUMPDEST ISZERO PUSH2 0x488 JUMPI PUSH1 0x40 MLOAD PUSH3 0x461BCD PUSH1 0xE5 SHL DUP2 MSTORE PUSH1 0x4 ADD PUSH2 0x3B2 SWAP1 PUSH2 0x1F4B JUMP JUMPDEST PUSH1 0x5 SLOAD PUSH1 0x0 SWAP1 PUSH1 0xFF AND PUSH1 0x2 DUP2 GT ISZERO PUSH2 0x4A2 JUMPI PUSH2 0x4A2 PUSH2 0x1DB7 JUMP JUMPDEST DUP2 PUSH1 0x2 DUP2 GT ISZERO PUSH2 0x4B4 JUMPI PUSH2 0x4B4 PUSH2 0x1DB7 JUMP JUMPDEST EQ PUSH2 0x4D1 JUMPI PUSH1 0x40 MLOAD PUSH3 0x461BCD PUSH1 0xE5 SHL DUP2 MSTORE PUSH1 0x4 ADD PUSH2 0x3B2 SWAP1 PUSH2 0x1F8D JUMP JUMPDEST PUSH1 0x2 PUSH1 0x1 SLOAD SUB PUSH2 0x4F3 JUMPI PUSH1 0x40 MLOAD PUSH3 0x461BCD PUSH1 0xE5 SHL DUP2 MSTORE PUSH1 0x4 ADD PUSH2 0x3B2 SWAP1 PUSH2 0x1FCE JUMP JUMPDEST PUSH1 0x2 PUSH1 0x1 SSTORE PUSH1 0x3 SLOAD PUSH1 0xFF AND PUSH2 0x524 JUMPI PUSH1 0x9 SLOAD DUP4 LT ISZERO PUSH2 0x524 JUMPI PUSH1 0x40 MLOAD PUSH3 0x461BCD PUSH1 0xE5 SHL DUP2 MSTORE PUSH1 0x4 ADD PUSH2 0x3B2 SWAP1 PUSH2 0x2005 JUMP JUMPDEST PUSH2 0x52D DUP4 PUSH2 0x1251 JUMP JUMPDEST POP POP PUSH1 0x1 DUP1 SSTORE POP JUMP JUMPDEST TIMESTAMP PUSH1 0x4 SLOAD LT ISZERO DUP1 ISZERO PUSH2 0x54B JUMPI POP PUSH1 0x9 SLOAD PUSH1 0x2 SLOAD LT JUMPDEST PUSH2 0x567 JUMPI PUSH1 0x40 MLOAD PUSH3 0x461BCD PUSH1 0xE5 SHL DUP2 MSTORE PUSH1 0x4 ADD PUSH2 0x3B2 SWAP1 PUSH2 0x1EC7 JUMP JUMPDEST PUSH1 0x5 SLOAD PUSH1 0x1 PUSH1 0xA8 SHL SWAP1 DIV PUSH1 0xFF AND PUSH2 0x590 JUMPI PUSH1 0x40 MLOAD PUSH3 0x461BCD PUSH1 0xE5 SHL DUP2 MSTORE PUSH1 0x4 ADD PUSH2 0x3B2 SWAP1 PUSH2 0x1EF7 JUMP JUMPDEST PUSH1 0x0 PUSH32 0x0 SWAP1 POP DUP1 PUSH1 0x1 PUSH1 0x1 PUSH1 0xA0 SHL SUB AND PUSH4 0xB187BD26 PUSH1 0x40 MLOAD DUP2 PUSH4 0xFFFFFFFF AND PUSH1 0xE0 SHL DUP2 MSTORE PUSH1 0x4 ADD PUSH1 0x20 PUSH1 0x40 MLOAD DUP1 DUP4 SUB DUP2 DUP7 GAS STATICCALL ISZERO DUP1 ISZERO PUSH2 0x5F3 JUMPI RETURNDATASIZE PUSH1 0x0 DUP1 RETURNDATACOPY RETURNDATASIZE PUSH1 0x0 REVERT JUMPDEST POP POP POP POP PUSH1 0x40 MLOAD RETURNDATASIZE PUSH1 0x1F NOT PUSH1 0x1F DUP3 ADD AND DUP3 ADD DUP1 PUSH1 0x40 MSTORE POP DUP2 ADD SWAP1 PUSH2 0x617 SWAP2 SWAP1 PUSH2 0x1F2E JUMP JUMPDEST ISZERO PUSH2 0x634 JUMPI PUSH1 0x40 MLOAD PUSH3 0x461BCD PUSH1 0xE5 SHL DUP2 MSTORE PUSH1 0x4 ADD PUSH2 0x3B2 SWAP1 PUSH2 0x1F4B JUMP JUMPDEST PUSH1 0x5 SLOAD PUSH1 0x2 SWAP1 PUSH1 0xFF AND DUP2 DUP2 GT ISZERO PUSH2 0x64D JUMPI PUSH2 0x64D PUSH2 0x1DB7 JUMP JUMPDEST DUP2 PUSH1 0x2 DUP2 GT ISZERO PUSH2 0x65F JUMPI PUSH2 0x65F PUSH2 0x1DB7 JUMP JUMPDEST EQ PUSH2 0x67C JUMPI PUSH1 0x40 MLOAD PUSH3 0x461BCD PUSH1 0xE5 SHL DUP2 MSTORE PUSH1 0x4 ADD PUSH2 0x3B2 SWAP1 PUSH2 0x1F8D JUMP JUMPDEST PUSH1 0x2 PUSH1 0x1 SLOAD SUB PUSH2 0x69E JUMPI PUSH1 0x40 MLOAD PUSH3 0x461BCD PUSH1 0xE5 SHL DUP2 MSTORE PUSH1 0x4 ADD PUSH2 0x3B2 SWAP1 PUSH2 0x1FCE JUMP JUMPDEST PUSH1 0x2 PUSH1 0x1 SSTORE PUSH1 0x3 SLOAD PUSH1 0xFF AND PUSH2 0x6CF JUMPI PUSH1 0x9 SLOAD DUP4 LT ISZERO PUSH2 0x6CF JUMPI PUSH1 0x40 MLOAD PUSH3 0x461BCD PUSH1 0xE5 SHL DUP2 MSTORE PUSH1 0x4 ADD PUSH2 0x3B2 SWAP1 PUSH2 0x2005 JUMP JUMPDEST PUSH2 0x52D DUP4 PUSH2 0x155A JUMP JUMPDEST TIMESTAMP PUSH1 0x4 SLOAD LT DUP1 PUSH2 0x6EC JUMPI POP PUSH1 0x9 SLOAD PUSH1 0x2 SLOAD LT ISZERO JUMPDEST PUSH2 0x72F JUMPI PUSH1 0x40 MLOAD PUSH3 0x461BCD PUSH1 0xE5 SHL DUP2 MSTORE PUSH1 0x20 PUSH1 0x4 DUP3 ADD MSTORE PUSH1 0x14 PUSH1 0x24 DUP3 ADD MSTORE PUSH20 0x537943726F774261727465723A20414354495645 PUSH1 0x60 SHL PUSH1 0x44 DUP3 ADD MSTORE PUSH1 0x64 ADD PUSH2 0x3B2 JUMP JUMPDEST PUSH1 0x5 SLOAD PUSH1 0x1 PUSH1 0xA8 SHL SWAP1 DIV PUSH1 0xFF AND PUSH2 0x758 JUMPI PUSH1 0x40 MLOAD PUSH3 0x461BCD PUSH1 0xE5 SHL DUP2 MSTORE PUSH1 0x4 ADD PUSH2 0x3B2 SWAP1 PUSH2 0x1EF7 JUMP JUMPDEST PUSH1 0x0 SLOAD PUSH1 0x1 PUSH1 0x1 PUSH1 0xA0 SHL SUB AND CALLER EQ PUSH2 0x782 JUMPI PUSH1 0x40 MLOAD PUSH3 0x461BCD PUSH1 0xE5 SHL DUP2 MSTORE PUSH1 0x4 ADD PUSH2 0x3B2 SWAP1 PUSH2 0x204E JUMP JUMPDEST PUSH1 0x5 SLOAD PUSH1 0x40 MLOAD PUSH4 0x70A08231 PUSH1 0xE0 SHL DUP2 MSTORE ADDRESS PUSH1 0x4 DUP3 ADD MSTORE PUSH2 0x100 SWAP1 SWAP2 DIV PUSH1 0x1 PUSH1 0x1 PUSH1 0xA0 SHL SUB AND SWAP1 PUSH1 0x0 SWAP1 DUP3 SWAP1 PUSH4 0x70A08231 SWAP1 PUSH1 0x24 ADD PUSH1 0x20 PUSH1 0x40 MLOAD DUP1 DUP4 SUB DUP2 DUP7 GAS STATICCALL ISZERO DUP1 ISZERO PUSH2 0x7D3 JUMPI RETURNDATASIZE PUSH1 0x0 DUP1 RETURNDATACOPY RETURNDATASIZE PUSH1 0x0 REVERT JUMPDEST POP POP POP POP PUSH1 0x40 MLOAD RETURNDATASIZE PUSH1 0x1F NOT PUSH1 0x1F DUP3 ADD AND DUP3 ADD DUP1 PUSH1 0x40 MSTORE POP DUP2 ADD SWAP1 PUSH2 0x7F7 SWAP2 SWAP1 PUSH2 0x2083 JUMP JUMPDEST SWAP1 POP DUP1 ISZERO PUSH2 0x86B JUMPI PUSH1 0x5 SLOAD PUSH1 0x40 MLOAD PUSH4 0x2E1A7D4D PUSH1 0xE0 SHL DUP2 MSTORE PUSH1 0x4 DUP2 ADD DUP4 SWAP1 MSTORE PUSH2 0x100 SWAP1 SWAP2 DIV PUSH1 0x1 PUSH1 0x1 PUSH1 0xA0 SHL SUB AND SWAP1 PUSH4 0x2E1A7D4D SWAP1 PUSH1 0x24 ADD PUSH1 0x0 PUSH1 0x40 MLOAD DUP1 DUP4 SUB DUP2 PUSH1 0x0 DUP8 DUP1 EXTCODESIZE ISZERO DUP1 ISZERO PUSH2 0x849 JUMPI PUSH1 0x0 DUP1 REVERT JUMPDEST POP GAS CALL ISZERO DUP1 ISZERO PUSH2 0x85D JUMPI RETURNDATASIZE PUSH1 0x0 DUP1 RETURNDATACOPY RETURNDATASIZE PUSH1 0x0 REVERT JUMPDEST POP POP POP POP PUSH2 0x86B CALLER DUP3 PUSH2 0x1808 JUMP JUMPDEST PUSH1 0x7 SLOAD PUSH1 0x40 MLOAD PUSH4 0x70A08231 PUSH1 0xE0 SHL DUP2 MSTORE ADDRESS PUSH1 0x4 DUP3 ADD MSTORE PUSH1 0x0 SWAP2 PUSH1 0x1 PUSH1 0x1 PUSH1 0xA0 SHL SUB AND SWAP1 PUSH4 0x70A08231 SWAP1 PUSH1 0x24 ADD PUSH1 0x20 PUSH1 0x40 MLOAD DUP1 DUP4 SUB DUP2 DUP7 GAS STATICCALL ISZERO DUP1 ISZERO PUSH2 0x8B4 JUMPI RETURNDATASIZE PUSH1 0x0 DUP1 RETURNDATACOPY RETURNDATASIZE PUSH1 0x0 REVERT JUMPDEST POP POP POP POP PUSH1 0x40 MLOAD RETURNDATASIZE PUSH1 0x1F NOT PUSH1 0x1F DUP3 ADD AND DUP3 ADD DUP1 PUSH1 0x40 MSTORE POP DUP2 ADD SWAP1 PUSH2 0x8D8 SWAP2 SWAP1 PUSH2 0x2083 JUMP JUMPDEST SWAP1 POP DUP1 ISZERO PUSH2 0x8F7 JUMPI PUSH1 0x7 SLOAD PUSH2 0x8F7 SWAP1 PUSH1 0x1 PUSH1 0x1 PUSH1 0xA0 SHL SUB AND CALLER DUP4 PUSH2 0x18D6 JUMP JUMPDEST PUSH1 0x6 SLOAD PUSH1 0x40 MLOAD PUSH4 0x70A08231 PUSH1 0xE0 SHL DUP2 MSTORE ADDRESS PUSH1 0x4 DUP3 ADD MSTORE PUSH1 0x0 SWAP2 PUSH1 0x1 PUSH1 0x1 PUSH1 0xA0 SHL SUB AND SWAP1 PUSH4 0x70A08231 SWAP1 PUSH1 0x24 ADD PUSH1 0x20 PUSH1 0x40 MLOAD DUP1 DUP4 SUB DUP2 DUP7 GAS STATICCALL ISZERO DUP1 ISZERO PUSH2 0x940 JUMPI RETURNDATASIZE PUSH1 0x0 DUP1 RETURNDATACOPY RETURNDATASIZE PUSH1 0x0 REVERT JUMPDEST POP POP POP POP PUSH1 0x40 MLOAD RETURNDATASIZE PUSH1 0x1F NOT PUSH1 0x1F DUP3 ADD AND DUP3 ADD DUP1 PUSH1 0x40 MSTORE POP DUP2 ADD SWAP1 PUSH2 0x964 SWAP2 SWAP1 PUSH2 0x2083 JUMP JUMPDEST SWAP1 POP DUP1 ISZERO PUSH2 0x983 JUMPI PUSH1 0x6 SLOAD PUSH2 0x983 SWAP1 PUSH1 0x1 PUSH1 0x1 PUSH1 0xA0 SHL SUB AND CALLER DUP4 PUSH2 0x18D6 JUMP JUMPDEST PUSH1 0x0 DUP1 DUP1 PUSH1 0x5 SLOAD PUSH1 0xFF AND PUSH1 0x2 DUP2 GT ISZERO PUSH2 0x99E JUMPI PUSH2 0x99E PUSH2 0x1DB7 JUMP JUMPDEST SUB PUSH2 0x9AD JUMPI POP DUP4 SWAP1 POP DUP3 PUSH2 0x9DB JUMP JUMPDEST PUSH1 0x2 PUSH1 0x5 SLOAD PUSH1 0xFF AND PUSH1 0x2 DUP2 GT ISZERO PUSH2 0x9C6 JUMPI PUSH2 0x9C6 PUSH2 0x1DB7 JUMP JUMPDEST SUB PUSH2 0x9D5 JUMPI POP DUP2 SWAP1 POP DUP3 PUSH2 0x9DB JUMP JUMPDEST POP DUP2 SWAP1 POP DUP4 JUMPDEST PUSH1 0x40 MLOAD PUSH4 0x19BCB507 PUSH1 0xE1 SHL DUP2 MSTORE PUSH32 0x0 SWAP1 PUSH1 0x1 PUSH1 0x1 PUSH1 0xA0 SHL SUB DUP3 AND SWAP1 PUSH4 0x33796A0E SWAP1 PUSH2 0xA2F SWAP1 ADDRESS SWAP1 CALLER SWAP1 DUP9 SWAP1 DUP9 SWAP1 PUSH1 0x4 ADD PUSH2 0x209C JUMP JUMPDEST PUSH1 0x0 PUSH1 0x40 MLOAD DUP1 DUP4 SUB DUP2 PUSH1 0x0 DUP8 DUP1 EXTCODESIZE ISZERO DUP1 ISZERO PUSH2 0xA49 JUMPI PUSH1 0x0 DUP1 REVERT JUMPDEST POP GAS CALL ISZERO DUP1 ISZERO PUSH2 0xA5D JUMPI RETURNDATASIZE PUSH1 0x0 DUP1 RETURNDATACOPY RETURNDATASIZE PUSH1 0x0 REVERT JUMPDEST POP POP POP POP POP POP POP POP POP POP POP JUMP JUMPDEST PUSH1 0x5 SLOAD PUSH1 0x0 SWAP1 DUP2 SWAP1 PUSH1 0x1 PUSH1 0xA8 SHL SWAP1 DIV PUSH1 0xFF AND PUSH2 0xA98 JUMPI PUSH1 0x40 MLOAD PUSH3 0x461BCD PUSH1 0xE5 SHL DUP2 MSTORE PUSH1 0x4 ADD PUSH2 0x3B2 SWAP1 PUSH2 0x1EF7 JUMP JUMPDEST POP POP PUSH1 0x8 SLOAD PUSH1 0x9 SLOAD SWAP1 SWAP2 JUMP JUMPDEST TIMESTAMP PUSH1 0x4 SLOAD LT ISZERO DUP1 ISZERO PUSH2 0xAB9 JUMPI POP PUSH1 0x9 SLOAD PUSH1 0x2 SLOAD LT JUMPDEST PUSH2 0xAD5 JUMPI PUSH1 0x40 MLOAD PUSH3 0x461BCD PUSH1 0xE5 SHL DUP2 MSTORE PUSH1 0x4 ADD PUSH2 0x3B2 SWAP1 PUSH2 0x1EC7 JUMP JUMPDEST PUSH1 0x5 SLOAD PUSH1 0x1 PUSH1 0xA8 SHL SWAP1 DIV PUSH1 0xFF AND PUSH2 0xAFE JUMPI PUSH1 0x40 MLOAD PUSH3 0x461BCD PUSH1 0xE5 SHL DUP2 MSTORE PUSH1 0x4 ADD PUSH2 0x3B2 SWAP1 PUSH2 0x1EF7 JUMP JUMPDEST PUSH1 0x0 PUSH32 0x0 SWAP1 POP DUP1 PUSH1 0x1 PUSH1 0x1 PUSH1 0xA0 SHL SUB AND PUSH4 0xB187BD26 PUSH1 0x40 MLOAD DUP2 PUSH4 0xFFFFFFFF AND PUSH1 0xE0 SHL DUP2 MSTORE PUSH1 0x4 ADD PUSH1 0x20 PUSH1 0x40 MLOAD DUP1 DUP4 SUB DUP2 DUP7 GAS STATICCALL ISZERO DUP1 ISZERO PUSH2 0xB61 JUMPI RETURNDATASIZE PUSH1 0x0 DUP1 RETURNDATACOPY RETURNDATASIZE PUSH1 0x0 REVERT JUMPDEST POP POP POP POP PUSH1 0x40 MLOAD RETURNDATASIZE PUSH1 0x1F NOT PUSH1 0x1F DUP3 ADD AND DUP3 ADD DUP1 PUSH1 0x40 MSTORE POP DUP2 ADD SWAP1 PUSH2 0xB85 SWAP2 SWAP1 PUSH2 0x1F2E JUMP JUMPDEST ISZERO PUSH2 0xBA2 JUMPI PUSH1 0x40 MLOAD PUSH3 0x461BCD PUSH1 0xE5 SHL DUP2 MSTORE PUSH1 0x4 ADD PUSH2 0x3B2 SWAP1 PUSH2 0x1F4B JUMP JUMPDEST PUSH1 0x5 SLOAD PUSH1 0x1 SWAP1 PUSH1 0xFF AND PUSH1 0x2 DUP2 GT ISZERO PUSH2 0xBBC JUMPI PUSH2 0xBBC PUSH2 0x1DB7 JUMP JUMPDEST DUP2 PUSH1 0x2 DUP2 GT ISZERO PUSH2 0xBCE JUMPI PUSH2 0xBCE PUSH2 0x1DB7 JUMP JUMPDEST EQ PUSH2 0xBEB JUMPI PUSH1 0x40 MLOAD PUSH3 0x461BCD PUSH1 0xE5 SHL DUP2 MSTORE PUSH1 0x4 ADD PUSH2 0x3B2 SWAP1 PUSH2 0x1F8D JUMP JUMPDEST PUSH1 0x2 PUSH1 0x1 SLOAD SUB PUSH2 0xC0D JUMPI PUSH1 0x40 MLOAD PUSH3 0x461BCD PUSH1 0xE5 SHL DUP2 MSTORE PUSH1 0x4 ADD PUSH2 0x3B2 SWAP1 PUSH2 0x1FCE JUMP JUMPDEST PUSH1 0x2 PUSH1 0x1 SSTORE PUSH1 0x3 SLOAD PUSH1 0xFF AND PUSH2 0xC3E JUMPI PUSH1 0x9 SLOAD CALLVALUE LT ISZERO PUSH2 0xC3E JUMPI PUSH1 0x40 MLOAD PUSH3 0x461BCD PUSH1 0xE5 SHL DUP2 MSTORE PUSH1 0x4 ADD PUSH2 0x3B2 SWAP1 PUSH2 0x2005 JUMP JUMPDEST PUSH2 0x52D DUP4 PUSH2 0x19F1 JUMP JUMPDEST PUSH1 0x0 CALLER PUSH1 0x1 PUSH1 0x1 PUSH1 0xA0 SHL SUB PUSH32 0x0 AND EQ PUSH2 0xCC1 JUMPI PUSH1 0x40 MLOAD PUSH3 0x461BCD PUSH1 0xE5 SHL DUP2 MSTORE PUSH1 0x20 PUSH1 0x4 DUP3 ADD MSTORE PUSH1 0x17 PUSH1 0x24 DUP3 ADD MSTORE PUSH32 0x537943726F774261727465723A20464F5242494444454E000000000000000000 PUSH1 0x44 DUP3 ADD MSTORE PUSH1 0x64 ADD PUSH2 0x3B2 JUMP JUMPDEST PUSH1 0x5 SLOAD PUSH1 0x1 PUSH1 0xA8 SHL SWAP1 DIV PUSH1 0xFF AND ISZERO PUSH2 0xD25 JUMPI PUSH1 0x40 MLOAD PUSH3 0x461BCD PUSH1 0xE5 SHL DUP2 MSTORE PUSH1 0x20 PUSH1 0x4 DUP3 ADD MSTORE PUSH1 0x21 PUSH1 0x24 DUP3 ADD MSTORE PUSH32 0x537943726F774261727465723A20414C52454144595F494E495449414C495A45 PUSH1 0x44 DUP3 ADD MSTORE PUSH1 0x11 PUSH1 0xFA SHL PUSH1 0x64 DUP3 ADD MSTORE PUSH1 0x84 ADD PUSH2 0x3B2 JUMP JUMPDEST TIMESTAMP DUP5 LT ISZERO PUSH2 0xD75 JUMPI PUSH1 0x40 MLOAD PUSH3 0x461BCD PUSH1 0xE5 SHL DUP2 MSTORE PUSH1 0x20 PUSH1 0x4 DUP3 ADD MSTORE PUSH1 0x1B PUSH1 0x24 DUP3 ADD MSTORE PUSH32 0x537943726F774261727465723A20504153545F444541444C494E450000000000 PUSH1 0x44 DUP3 ADD MSTORE PUSH1 0x64 ADD PUSH2 0x3B2 JUMP JUMPDEST PUSH1 0x40 MLOAD PUSH4 0x70A08231 PUSH1 0xE0 SHL DUP2 MSTORE ADDRESS PUSH1 0x4 DUP3 ADD MSTORE DUP7 SWAP1 PUSH1 0x1 PUSH1 0x1 PUSH1 0xA0 SHL SUB DUP11 AND SWAP1 PUSH4 0x70A08231 SWAP1 PUSH1 0x24 ADD PUSH1 0x20 PUSH1 0x40 MLOAD DUP1 DUP4 SUB DUP2 DUP7 GAS STATICCALL ISZERO DUP1 ISZERO PUSH2 0xDBB JUMPI RETURNDATASIZE PUSH1 0x0 DUP1 RETURNDATACOPY RETURNDATASIZE PUSH1 0x0 REVERT JUMPDEST POP POP POP POP PUSH1 0x40 MLOAD RETURNDATASIZE PUSH1 0x1F NOT PUSH1 0x1F DUP3 ADD AND DUP3 ADD DUP1 PUSH1 0x40 MSTORE POP DUP2 ADD SWAP1 PUSH2 0xDDF SWAP2 SWAP1 PUSH2 0x2083 JUMP JUMPDEST LT ISZERO PUSH2 0xE38 JUMPI PUSH1 0x40 MLOAD PUSH3 0x461BCD PUSH1 0xE5 SHL DUP2 MSTORE PUSH1 0x20 PUSH1 0x4 DUP3 ADD MSTORE PUSH1 0x22 PUSH1 0x24 DUP3 ADD MSTORE PUSH32 0x537943726F774261727465723A20494E53554646494349454E545F4445504F53 PUSH1 0x44 DUP3 ADD MSTORE PUSH2 0x1255 PUSH1 0xF2 SHL PUSH1 0x64 DUP3 ADD MSTORE PUSH1 0x84 ADD PUSH2 0x3B2 JUMP JUMPDEST PUSH1 0x4 DUP5 SWAP1 SSTORE PUSH1 0x6 DUP1 SLOAD PUSH1 0x1 PUSH1 0x1 PUSH1 0xA0 SHL SUB DUP1 DUP12 AND PUSH1 0x1 PUSH1 0x1 PUSH1 0xA0 SHL SUB NOT SWAP3 DUP4 AND OR SWAP1 SWAP3 SSTORE PUSH1 0x7 DUP1 SLOAD SWAP3 DUP11 AND SWAP3 SWAP1 SWAP2 AND SWAP2 SWAP1 SWAP2 OR SWAP1 SSTORE PUSH1 0x8 DUP7 SWAP1 SSTORE PUSH1 0x9 DUP6 SWAP1 SSTORE PUSH1 0x5 DUP1 SLOAD DUP11 SWAP2 SWAP1 PUSH1 0xFF NOT AND PUSH1 0x1 DUP4 PUSH1 0x2 DUP2 GT ISZERO PUSH2 0xE96 JUMPI PUSH2 0xE96 PUSH2 0x1DB7 JUMP JUMPDEST MUL OR SWAP1 SSTORE POP POP PUSH1 0x3 DUP1 SLOAD DUP4 ISZERO ISZERO PUSH1 0xFF NOT SWAP1 SWAP2 AND OR SWAP1 SSTORE PUSH1 0x5 DUP1 SLOAD PUSH1 0xFF PUSH1 0xA8 SHL NOT PUSH1 0x1 PUSH1 0x1 PUSH1 0xA0 SHL SUB DUP5 AND PUSH2 0x100 MUL AND PUSH2 0x100 PUSH1 0x1 PUSH1 0xB0 SHL SUB NOT SWAP1 SWAP2 AND OR PUSH1 0x1 PUSH1 0xA8 SHL SWAP1 DUP2 OR SWAP2 DUP3 SWAP1 SSTORE SWAP1 DIV PUSH1 0xFF AND SWAP9 SWAP8 POP POP POP POP POP POP POP POP JUMP JUMPDEST PUSH1 0x0 SLOAD PUSH1 0x1 PUSH1 0x1 PUSH1 0xA0 SHL SUB AND CALLER EQ PUSH2 0xF1A JUMPI PUSH1 0x40 MLOAD PUSH3 0x461BCD PUSH1 0xE5 SHL DUP2 MSTORE PUSH1 0x4 ADD PUSH2 0x3B2 SWAP1 PUSH2 0x204E JUMP JUMPDEST PUSH2 0xF24 PUSH1 0x0 PUSH2 0x1B6A JUMP JUMPDEST JUMP JUMPDEST PUSH1 0x5 SLOAD PUSH1 0x0 SWAP1 DUP2 SWAP1 PUSH1 0x1 PUSH1 0xA8 SHL SWAP1 DIV PUSH1 0xFF AND PUSH2 0xF54 JUMPI PUSH1 0x40 MLOAD PUSH3 0x461BCD PUSH1 0xE5 SHL DUP2 MSTORE PUSH1 0x4 ADD PUSH2 0x3B2 SWAP1 PUSH2 0x1EF7 JUMP JUMPDEST POP POP PUSH1 0x6 SLOAD PUSH1 0x7 SLOAD PUSH1 0x1 PUSH1 0x1 PUSH1 0xA0 SHL SUB SWAP2 DUP3 AND SWAP2 AND SWAP1 SWAP2 JUMP JUMPDEST PUSH1 0x0 PUSH1 0x9 SLOAD PUSH1 0x8 SLOAD DUP4 PUSH2 0xF80 SWAP2 SWAP1 PUSH2 0x20DB JUMP JUMPDEST PUSH2 0xF8A SWAP2 SWAP1 PUSH2 0x20FA JUMP JUMPDEST SWAP3 SWAP2 POP POP JUMP JUMPDEST PUSH1 0x60 DUP1 PUSH1 0x60 PUSH1 0x5 PUSH1 0x15 SWAP1 SLOAD SWAP1 PUSH2 0x100 EXP SWAP1 DIV PUSH1 0xFF AND PUSH2 0xFC1 JUMPI PUSH1 0x40 MLOAD PUSH3 0x461BCD PUSH1 0xE5 SHL DUP2 MSTORE PUSH1 0x4 ADD PUSH2 0x3B2 SWAP1 PUSH2 0x1EF7 JUMP JUMPDEST PUSH1 0xA SLOAD PUSH1 0x0 SWAP1 PUSH8 0xFFFFFFFFFFFFFFFF DUP2 GT ISZERO PUSH2 0xFDF JUMPI PUSH2 0xFDF PUSH2 0x211C JUMP JUMPDEST PUSH1 0x40 MLOAD SWAP1 DUP1 DUP3 MSTORE DUP1 PUSH1 0x20 MUL PUSH1 0x20 ADD DUP3 ADD PUSH1 0x40 MSTORE DUP1 ISZERO PUSH2 0x1008 JUMPI DUP2 PUSH1 0x20 ADD PUSH1 0x20 DUP3 MUL DUP1 CALLDATASIZE DUP4 CALLDATACOPY ADD SWAP1 POP JUMPDEST POP PUSH1 0xA SLOAD SWAP1 SWAP2 POP PUSH1 0x0 SWAP1 PUSH8 0xFFFFFFFFFFFFFFFF DUP2 GT ISZERO PUSH2 0x102A JUMPI PUSH2 0x102A PUSH2 0x211C JUMP JUMPDEST PUSH1 0x40 MLOAD SWAP1 DUP1 DUP3 MSTORE DUP1 PUSH1 0x20 MUL PUSH1 0x20 ADD DUP3 ADD PUSH1 0x40 MSTORE DUP1 ISZERO PUSH2 0x1053 JUMPI DUP2 PUSH1 0x20 ADD PUSH1 0x20 DUP3 MUL DUP1 CALLDATASIZE DUP4 CALLDATACOPY ADD SWAP1 POP JUMPDEST POP PUSH1 0xA SLOAD SWAP1 SWAP2 POP PUSH1 0x0 SWAP1 PUSH8 0xFFFFFFFFFFFFFFFF DUP2 GT ISZERO PUSH2 0x1075 JUMPI PUSH2 0x1075 PUSH2 0x211C JUMP JUMPDEST PUSH1 0x40 MLOAD SWAP1 DUP1 DUP3 MSTORE DUP1 PUSH1 0x20 MUL PUSH1 0x20 ADD DUP3 ADD PUSH1 0x40 MSTORE DUP1 ISZERO PUSH2 0x109E JUMPI DUP2 PUSH1 0x20 ADD PUSH1 0x20 DUP3 MUL DUP1 CALLDATASIZE DUP4 CALLDATACOPY ADD SWAP1 POP JUMPDEST POP SWAP1 POP PUSH1 0x0 JUMPDEST PUSH1 0xA SLOAD DUP2 LT ISZERO PUSH2 0x11A9 JUMPI PUSH1 0xA DUP2 DUP2 SLOAD DUP2 LT PUSH2 0x10C1 JUMPI PUSH2 0x10C1 PUSH2 0x2132 JUMP JUMPDEST PUSH1 0x0 SWAP2 DUP3 MSTORE PUSH1 0x20 SWAP1 SWAP2 KECCAK256 PUSH1 0x3 SWAP1 SWAP2 MUL ADD SLOAD DUP5 MLOAD PUSH1 0x1 PUSH1 0x1 PUSH1 0xA0 SHL SUB SWAP1 SWAP2 AND SWAP1 DUP6 SWAP1 DUP4 SWAP1 DUP2 LT PUSH2 0x10F2 JUMPI PUSH2 0x10F2 PUSH2 0x2132 JUMP JUMPDEST PUSH1 0x20 MUL PUSH1 0x20 ADD ADD SWAP1 PUSH1 0x1 PUSH1 0x1 PUSH1 0xA0 SHL SUB AND SWAP1 DUP2 PUSH1 0x1 PUSH1 0x1 PUSH1 0xA0 SHL SUB AND DUP2 MSTORE POP POP PUSH1 0xA DUP2 DUP2 SLOAD DUP2 LT PUSH2 0x1125 JUMPI PUSH2 0x1125 PUSH2 0x2132 JUMP JUMPDEST SWAP1 PUSH1 0x0 MSTORE PUSH1 0x20 PUSH1 0x0 KECCAK256 SWAP1 PUSH1 0x3 MUL ADD PUSH1 0x1 ADD SLOAD DUP4 DUP3 DUP2 MLOAD DUP2 LT PUSH2 0x1149 JUMPI PUSH2 0x1149 PUSH2 0x2132 JUMP JUMPDEST PUSH1 0x20 MUL PUSH1 0x20 ADD ADD DUP2 DUP2 MSTORE POP POP PUSH1 0xA DUP2 DUP2 SLOAD DUP2 LT PUSH2 0x1168 JUMPI PUSH2 0x1168 PUSH2 0x2132 JUMP JUMPDEST SWAP1 PUSH1 0x0 MSTORE PUSH1 0x20 PUSH1 0x0 KECCAK256 SWAP1 PUSH1 0x3 MUL ADD PUSH1 0x2 ADD SLOAD DUP3 DUP3 DUP2 MLOAD DUP2 LT PUSH2 0x118C JUMPI PUSH2 0x118C PUSH2 0x2132 JUMP JUMPDEST PUSH1 0x20 SWAP1 DUP2 MUL SWAP2 SWAP1 SWAP2 ADD ADD MSTORE DUP1 PUSH2 0x11A1 DUP2 PUSH2 0x2148 JUMP JUMPDEST SWAP2 POP POP PUSH2 0x10A4 JUMP JUMPDEST POP SWAP2 SWAP5 POP SWAP3 POP SWAP1 POP SWAP1 SWAP2 SWAP3 JUMP JUMPDEST PUSH1 0x0 SLOAD PUSH1 0x1 PUSH1 0x1 PUSH1 0xA0 SHL SUB AND CALLER EQ PUSH2 0x11E0 JUMPI PUSH1 0x40 MLOAD PUSH3 0x461BCD PUSH1 0xE5 SHL DUP2 MSTORE PUSH1 0x4 ADD PUSH2 0x3B2 SWAP1 PUSH2 0x204E JUMP JUMPDEST PUSH1 0x1 PUSH1 0x1 PUSH1 0xA0 SHL SUB DUP2 AND PUSH2 0x1245 JUMPI PUSH1 0x40 MLOAD PUSH3 0x461BCD PUSH1 0xE5 SHL DUP2 MSTORE PUSH1 0x20 PUSH1 0x4 DUP3 ADD MSTORE PUSH1 0x26 PUSH1 0x24 DUP3 ADD MSTORE PUSH32 0x4F776E61626C653A206E6577206F776E657220697320746865207A65726F2061 PUSH1 0x44 DUP3 ADD MSTORE PUSH6 0x646472657373 PUSH1 0xD0 SHL PUSH1 0x64 DUP3 ADD MSTORE PUSH1 0x84 ADD PUSH2 0x3B2 JUMP JUMPDEST PUSH2 0x124E DUP2 PUSH2 0x1B6A JUMP JUMPDEST POP JUMP JUMPDEST PUSH1 0x7 SLOAD PUSH1 0x40 MLOAD PUSH4 0x70A08231 PUSH1 0xE0 SHL DUP2 MSTORE CALLER PUSH1 0x4 DUP3 ADD MSTORE DUP3 SWAP2 PUSH1 0x1 PUSH1 0x1 PUSH1 0xA0 SHL SUB AND SWAP1 PUSH4 0x70A08231 SWAP1 PUSH1 0x24 ADD PUSH1 0x20 PUSH1 0x40 MLOAD DUP1 DUP4 SUB DUP2 DUP7 GAS STATICCALL ISZERO DUP1 ISZERO PUSH2 0x1299 JUMPI RETURNDATASIZE PUSH1 0x0 DUP1 RETURNDATACOPY RETURNDATASIZE PUSH1 0x0 REVERT JUMPDEST POP POP POP POP PUSH1 0x40 MLOAD RETURNDATASIZE PUSH1 0x1F NOT PUSH1 0x1F DUP3 ADD AND DUP3 ADD DUP1 PUSH1 0x40 MSTORE POP DUP2 ADD SWAP1 PUSH2 0x12BD SWAP2 SWAP1 PUSH2 0x2083 JUMP JUMPDEST LT ISZERO PUSH2 0x12DB JUMPI PUSH1 0x40 MLOAD PUSH3 0x461BCD PUSH1 0xE5 SHL DUP2 MSTORE PUSH1 0x4 ADD PUSH2 0x3B2 SWAP1 PUSH2 0x2161 JUMP JUMPDEST PUSH1 0x0 PUSH2 0x12E6 DUP3 PUSH2 0xF6D JUMP JUMPDEST PUSH1 0x5 SLOAD PUSH1 0x40 MLOAD PUSH4 0x70A08231 PUSH1 0xE0 SHL DUP2 MSTORE ADDRESS PUSH1 0x4 DUP3 ADD MSTORE SWAP2 SWAP3 POP PUSH2 0x100 SWAP1 DIV PUSH1 0x1 PUSH1 0x1 PUSH1 0xA0 SHL SUB AND SWAP1 DUP3 SWAP1 DUP3 SWAP1 PUSH4 0x70A08231 SWAP1 PUSH1 0x24 ADD PUSH1 0x20 PUSH1 0x40 MLOAD DUP1 DUP4 SUB DUP2 DUP7 GAS STATICCALL ISZERO DUP1 ISZERO PUSH2 0x1338 JUMPI RETURNDATASIZE PUSH1 0x0 DUP1 RETURNDATACOPY RETURNDATASIZE PUSH1 0x0 REVERT JUMPDEST POP POP POP POP PUSH1 0x40 MLOAD RETURNDATASIZE PUSH1 0x1F NOT PUSH1 0x1F DUP3 ADD AND DUP3 ADD DUP1 PUSH1 0x40 MSTORE POP DUP2 ADD SWAP1 PUSH2 0x135C SWAP2 SWAP1 PUSH2 0x2083 JUMP JUMPDEST LT ISZERO PUSH2 0x137A JUMPI PUSH1 0x40 MLOAD PUSH3 0x461BCD PUSH1 0xE5 SHL DUP2 MSTORE PUSH1 0x4 ADD PUSH2 0x3B2 SWAP1 PUSH2 0x21A3 JUMP JUMPDEST PUSH1 0x7 SLOAD PUSH2 0x1392 SWAP1 PUSH1 0x1 PUSH1 0x1 PUSH1 0xA0 SHL SUB AND CALLER ADDRESS DUP7 PUSH2 0x1BBA JUMP JUMPDEST PUSH1 0x5 SLOAD PUSH1 0x40 MLOAD PUSH4 0x2E1A7D4D PUSH1 0xE0 SHL DUP2 MSTORE PUSH1 0x4 DUP2 ADD DUP5 SWAP1 MSTORE PUSH2 0x100 SWAP1 SWAP2 DIV PUSH1 0x1 PUSH1 0x1 PUSH1 0xA0 SHL SUB AND SWAP1 PUSH4 0x2E1A7D4D SWAP1 PUSH1 0x24 ADD PUSH1 0x0 PUSH1 0x40 MLOAD DUP1 DUP4 SUB DUP2 PUSH1 0x0 DUP8 DUP1 EXTCODESIZE ISZERO DUP1 ISZERO PUSH2 0x13DC JUMPI PUSH1 0x0 DUP1 REVERT JUMPDEST POP GAS CALL ISZERO DUP1 ISZERO PUSH2 0x13F0 JUMPI RETURNDATASIZE PUSH1 0x0 DUP1 RETURNDATACOPY RETURNDATASIZE PUSH1 0x0 REVERT JUMPDEST POP POP POP POP PUSH2 0x13FE CALLER DUP4 PUSH2 0x1808 JUMP JUMPDEST PUSH1 0x40 DUP1 MLOAD PUSH1 0x60 DUP2 ADD DUP3 MSTORE CALLER DUP2 MSTORE PUSH1 0x20 DUP2 ADD DUP6 DUP2 MSTORE SWAP2 DUP2 ADD DUP5 DUP2 MSTORE PUSH1 0xA DUP1 SLOAD PUSH1 0x1 DUP2 ADD DUP3 SSTORE PUSH1 0x0 SWAP2 SWAP1 SWAP2 MSTORE SWAP2 MLOAD PUSH32 0xC65A7BB8D6351C1CF70C95A316CC6A92839C986682D98BC35F958F4883F9D2A8 PUSH1 0x3 SWAP1 SWAP4 MUL SWAP3 DUP4 ADD DUP1 SLOAD PUSH1 0x1 PUSH1 0x1 PUSH1 0xA0 SHL SUB NOT AND PUSH1 0x1 PUSH1 0x1 PUSH1 0xA0 SHL SUB SWAP1 SWAP3 AND SWAP2 SWAP1 SWAP2 OR SWAP1 SSTORE SWAP2 MLOAD PUSH32 0xC65A7BB8D6351C1CF70C95A316CC6A92839C986682D98BC35F958F4883F9D2A9 DUP3 ADD SSTORE SWAP1 MLOAD PUSH32 0xC65A7BB8D6351C1CF70C95A316CC6A92839C986682D98BC35F958F4883F9D2AA SWAP1 SWAP2 ADD SSTORE PUSH1 0x2 SLOAD PUSH2 0x14CB SWAP1 DUP5 SWAP1 PUSH2 0x21EE JUMP JUMPDEST PUSH1 0x2 SSTORE PUSH1 0x40 MLOAD PUSH4 0xF52701B7 PUSH1 0xE0 SHL DUP2 MSTORE PUSH32 0x0 SWAP1 PUSH1 0x1 PUSH1 0x1 PUSH1 0xA0 SHL SUB DUP3 AND SWAP1 PUSH4 0xF52701B7 SWAP1 PUSH2 0x1522 SWAP1 ADDRESS SWAP1 CALLER SWAP1 DUP10 SWAP1 DUP10 SWAP1 PUSH1 0x4 ADD PUSH2 0x209C JUMP JUMPDEST PUSH1 0x0 PUSH1 0x40 MLOAD DUP1 DUP4 SUB DUP2 PUSH1 0x0 DUP8 DUP1 EXTCODESIZE ISZERO DUP1 ISZERO PUSH2 0x153C JUMPI PUSH1 0x0 DUP1 REVERT JUMPDEST POP GAS CALL ISZERO DUP1 ISZERO PUSH2 0x1550 JUMPI RETURNDATASIZE PUSH1 0x0 DUP1 RETURNDATACOPY RETURNDATASIZE PUSH1 0x0 REVERT JUMPDEST POP POP POP POP POP POP POP POP JUMP JUMPDEST PUSH1 0x7 SLOAD PUSH1 0x40 MLOAD PUSH4 0x70A08231 PUSH1 0xE0 SHL DUP2 MSTORE CALLER PUSH1 0x4 DUP3 ADD MSTORE DUP3 SWAP2 PUSH1 0x1 PUSH1 0x1 PUSH1 0xA0 SHL SUB AND SWAP1 PUSH4 0x70A08231 SWAP1 PUSH1 0x24 ADD PUSH1 0x20 PUSH1 0x40 MLOAD DUP1 DUP4 SUB DUP2 DUP7 GAS STATICCALL ISZERO DUP1 ISZERO PUSH2 0x15A2 JUMPI RETURNDATASIZE PUSH1 0x0 DUP1 RETURNDATACOPY RETURNDATASIZE PUSH1 0x0 REVERT JUMPDEST POP POP POP POP PUSH1 0x40 MLOAD RETURNDATASIZE PUSH1 0x1F NOT PUSH1 0x1F DUP3 ADD AND DUP3 ADD DUP1 PUSH1 0x40 MSTORE POP DUP2 ADD SWAP1 PUSH2 0x15C6 SWAP2 SWAP1 PUSH2 0x2083 JUMP JUMPDEST LT ISZERO PUSH2 0x15E4 JUMPI PUSH1 0x40 MLOAD PUSH3 0x461BCD PUSH1 0xE5 SHL DUP2 MSTORE PUSH1 0x4 ADD PUSH2 0x3B2 SWAP1 PUSH2 0x2161 JUMP JUMPDEST PUSH1 0x0 PUSH2 0x15EF DUP3 PUSH2 0xF6D JUMP JUMPDEST PUSH1 0x6 SLOAD PUSH1 0x40 MLOAD PUSH4 0x70A08231 PUSH1 0xE0 SHL DUP2 MSTORE ADDRESS PUSH1 0x4 DUP3 ADD MSTORE SWAP2 SWAP3 POP DUP3 SWAP2 PUSH1 0x1 PUSH1 0x1 PUSH1 0xA0 SHL SUB SWAP1 SWAP2 AND SWAP1 PUSH4 0x70A08231 SWAP1 PUSH1 0x24 ADD PUSH1 0x20 PUSH1 0x40 MLOAD DUP1 DUP4 SUB DUP2 DUP7 GAS STATICCALL ISZERO DUP1 ISZERO PUSH2 0x163C JUMPI RETURNDATASIZE PUSH1 0x0 DUP1 RETURNDATACOPY RETURNDATASIZE PUSH1 0x0 REVERT JUMPDEST POP POP POP POP PUSH1 0x40 MLOAD RETURNDATASIZE PUSH1 0x1F NOT PUSH1 0x1F DUP3 ADD AND DUP3 ADD DUP1 PUSH1 0x40 MSTORE POP DUP2 ADD SWAP1 PUSH2 0x1660 SWAP2 SWAP1 PUSH2 0x2083 JUMP JUMPDEST LT ISZERO PUSH2 0x167E JUMPI PUSH1 0x40 MLOAD PUSH3 0x461BCD PUSH1 0xE5 SHL DUP2 MSTORE PUSH1 0x4 ADD PUSH2 0x3B2 SWAP1 PUSH2 0x21A3 JUMP JUMPDEST PUSH1 0x7 SLOAD PUSH2 0x1696 SWAP1 PUSH1 0x1 PUSH1 0x1 PUSH1 0xA0 SHL SUB AND CALLER ADDRESS DUP6 PUSH2 0x1BBA JUMP JUMPDEST PUSH1 0x6 SLOAD PUSH2 0x16AD SWAP1 PUSH1 0x1 PUSH1 0x1 PUSH1 0xA0 SHL SUB AND CALLER DUP4 PUSH2 0x18D6 JUMP JUMPDEST PUSH1 0x40 DUP1 MLOAD PUSH1 0x60 DUP2 ADD DUP3 MSTORE CALLER DUP2 MSTORE PUSH1 0x20 DUP2 ADD DUP5 DUP2 MSTORE SWAP2 DUP2 ADD DUP4 DUP2 MSTORE PUSH1 0xA DUP1 SLOAD PUSH1 0x1 DUP2 ADD DUP3 SSTORE PUSH1 0x0 SWAP2 SWAP1 SWAP2 MSTORE SWAP2 MLOAD PUSH32 0xC65A7BB8D6351C1CF70C95A316CC6A92839C986682D98BC35F958F4883F9D2A8 PUSH1 0x3 SWAP1 SWAP4 MUL SWAP3 DUP4 ADD DUP1 SLOAD PUSH1 0x1 PUSH1 0x1 PUSH1 0xA0 SHL SUB NOT AND PUSH1 0x1 PUSH1 0x1 PUSH1 0xA0 SHL SUB SWAP1 SWAP3 AND SWAP2 SWAP1 SWAP2 OR SWAP1 SSTORE SWAP2 MLOAD PUSH32 0xC65A7BB8D6351C1CF70C95A316CC6A92839C986682D98BC35F958F4883F9D2A9 DUP3 ADD SSTORE SWAP1 MLOAD PUSH32 0xC65A7BB8D6351C1CF70C95A316CC6A92839C986682D98BC35F958F4883F9D2AA SWAP1 SWAP2 ADD SSTORE PUSH1 0x2 SLOAD PUSH2 0x177A SWAP1 DUP4 SWAP1 PUSH2 0x21EE JUMP JUMPDEST PUSH1 0x2 SSTORE PUSH1 0x40 MLOAD PUSH4 0xF52701B7 PUSH1 0xE0 SHL DUP2 MSTORE PUSH32 0x0 SWAP1 PUSH1 0x1 PUSH1 0x1 PUSH1 0xA0 SHL SUB DUP3 AND SWAP1 PUSH4 0xF52701B7 SWAP1 PUSH2 0x17D1 SWAP1 ADDRESS SWAP1 CALLER SWAP1 DUP9 SWAP1 DUP9 SWAP1 PUSH1 0x4 ADD PUSH2 0x209C JUMP JUMPDEST PUSH1 0x0 PUSH1 0x40 MLOAD DUP1 DUP4 SUB DUP2 PUSH1 0x0 DUP8 DUP1 EXTCODESIZE ISZERO DUP1 ISZERO PUSH2 0x17EB JUMPI PUSH1 0x0 DUP1 REVERT JUMPDEST POP GAS CALL ISZERO DUP1 ISZERO PUSH2 0x17FF JUMPI RETURNDATASIZE PUSH1 0x0 DUP1 RETURNDATACOPY RETURNDATASIZE PUSH1 0x0 REVERT JUMPDEST POP POP POP POP POP POP POP JUMP JUMPDEST PUSH1 0x40 DUP1 MLOAD PUSH1 0x0 DUP1 DUP3 MSTORE PUSH1 0x20 DUP3 ADD SWAP1 SWAP3 MSTORE PUSH1 0x1 PUSH1 0x1 PUSH1 0xA0 SHL SUB DUP5 AND SWAP1 DUP4 SWAP1 PUSH1 0x40 MLOAD PUSH2 0x1832 SWAP2 SWAP1 PUSH2 0x2206 JUMP JUMPDEST PUSH1 0x0 PUSH1 0x40 MLOAD DUP1 DUP4 SUB DUP2 DUP6 DUP8 GAS CALL SWAP3 POP POP POP RETURNDATASIZE DUP1 PUSH1 0x0 DUP2 EQ PUSH2 0x186F JUMPI PUSH1 0x40 MLOAD SWAP2 POP PUSH1 0x1F NOT PUSH1 0x3F RETURNDATASIZE ADD AND DUP3 ADD PUSH1 0x40 MSTORE RETURNDATASIZE DUP3 MSTORE RETURNDATASIZE PUSH1 0x0 PUSH1 0x20 DUP5 ADD RETURNDATACOPY PUSH2 0x1874 JUMP JUMPDEST PUSH1 0x60 SWAP2 POP JUMPDEST POP POP SWAP1 POP DUP1 PUSH2 0x18D1 JUMPI PUSH1 0x40 MLOAD PUSH3 0x461BCD PUSH1 0xE5 SHL DUP2 MSTORE PUSH1 0x20 PUSH1 0x4 DUP3 ADD MSTORE PUSH1 0x23 PUSH1 0x24 DUP3 ADD MSTORE PUSH32 0x5472616E7366657248656C7065723A204554485F5452414E534645525F464149 PUSH1 0x44 DUP3 ADD MSTORE PUSH3 0x131151 PUSH1 0xEA SHL PUSH1 0x64 DUP3 ADD MSTORE PUSH1 0x84 ADD PUSH2 0x3B2 JUMP JUMPDEST POP POP POP JUMP JUMPDEST PUSH1 0x40 DUP1 MLOAD PUSH1 0x1 PUSH1 0x1 PUSH1 0xA0 SHL SUB DUP5 DUP2 AND PUSH1 0x24 DUP4 ADD MSTORE PUSH1 0x44 DUP1 DUP4 ADD DUP6 SWAP1 MSTORE DUP4 MLOAD DUP1 DUP5 SUB SWAP1 SWAP2 ADD DUP2 MSTORE PUSH1 0x64 SWAP1 SWAP3 ADD DUP4 MSTORE PUSH1 0x20 DUP3 ADD DUP1 MLOAD PUSH1 0x1 PUSH1 0x1 PUSH1 0xE0 SHL SUB AND PUSH4 0xA9059CBB PUSH1 0xE0 SHL OR SWAP1 MSTORE SWAP2 MLOAD PUSH1 0x0 SWAP3 DUP4 SWAP3 SWAP1 DUP8 AND SWAP2 PUSH2 0x1932 SWAP2 SWAP1 PUSH2 0x2206 JUMP JUMPDEST PUSH1 0x0 PUSH1 0x40 MLOAD DUP1 DUP4 SUB DUP2 PUSH1 0x0 DUP7 GAS CALL SWAP2 POP POP RETURNDATASIZE DUP1 PUSH1 0x0 DUP2 EQ PUSH2 0x196F JUMPI PUSH1 0x40 MLOAD SWAP2 POP PUSH1 0x1F NOT PUSH1 0x3F RETURNDATASIZE ADD AND DUP3 ADD PUSH1 0x40 MSTORE RETURNDATASIZE DUP3 MSTORE RETURNDATASIZE PUSH1 0x0 PUSH1 0x20 DUP5 ADD RETURNDATACOPY PUSH2 0x1974 JUMP JUMPDEST PUSH1 0x60 SWAP2 POP JUMPDEST POP SWAP2 POP SWAP2 POP DUP2 DUP1 ISZERO PUSH2 0x199E JUMPI POP DUP1 MLOAD ISZERO DUP1 PUSH2 0x199E JUMPI POP DUP1 DUP1 PUSH1 0x20 ADD SWAP1 MLOAD DUP2 ADD SWAP1 PUSH2 0x199E SWAP2 SWAP1 PUSH2 0x1F2E JUMP JUMPDEST PUSH2 0x19EA JUMPI PUSH1 0x40 MLOAD PUSH3 0x461BCD PUSH1 0xE5 SHL DUP2 MSTORE PUSH1 0x20 PUSH1 0x4 DUP3 ADD MSTORE PUSH1 0x1F PUSH1 0x24 DUP3 ADD MSTORE PUSH32 0x5472616E7366657248656C7065723A205452414E534645525F4641494C454400 PUSH1 0x44 DUP3 ADD MSTORE PUSH1 0x64 ADD PUSH2 0x3B2 JUMP JUMPDEST POP POP POP POP POP JUMP JUMPDEST CALLVALUE DUP2 EQ PUSH2 0x1A4E JUMPI PUSH1 0x40 MLOAD PUSH3 0x461BCD PUSH1 0xE5 SHL DUP2 MSTORE PUSH1 0x20 PUSH1 0x4 DUP3 ADD MSTORE PUSH1 0x25 PUSH1 0x24 DUP3 ADD MSTORE PUSH32 0x537943726F774261727465723A204D554C54495F54524144455F4E4F545F454E PUSH1 0x44 DUP3 ADD MSTORE PUSH5 0x1050931151 PUSH1 0xDA SHL PUSH1 0x64 DUP3 ADD MSTORE PUSH1 0x84 ADD PUSH2 0x3B2 JUMP JUMPDEST PUSH1 0x0 PUSH2 0x1A59 DUP3 PUSH2 0xF6D JUMP JUMPDEST PUSH1 0x6 SLOAD PUSH1 0x40 MLOAD PUSH4 0x70A08231 PUSH1 0xE0 SHL DUP2 MSTORE ADDRESS PUSH1 0x4 DUP3 ADD MSTORE SWAP2 SWAP3 POP DUP3 SWAP2 PUSH1 0x1 PUSH1 0x1 PUSH1 0xA0 SHL SUB SWAP1 SWAP2 AND SWAP1 PUSH4 0x70A08231 SWAP1 PUSH1 0x24 ADD PUSH1 0x20 PUSH1 0x40 MLOAD DUP1 DUP4 SUB DUP2 DUP7 GAS STATICCALL ISZERO DUP1 ISZERO PUSH2 0x1AA6 JUMPI RETURNDATASIZE PUSH1 0x0 DUP1 RETURNDATACOPY RETURNDATASIZE PUSH1 0x0 REVERT JUMPDEST POP POP POP POP PUSH1 0x40 MLOAD RETURNDATASIZE PUSH1 0x1F NOT PUSH1 0x1F DUP3 ADD AND DUP3 ADD DUP1 PUSH1 0x40 MSTORE POP DUP2 ADD SWAP1 PUSH2 0x1ACA SWAP2 SWAP1 PUSH2 0x2083 JUMP JUMPDEST LT ISZERO PUSH2 0x1AE8 JUMPI PUSH1 0x40 MLOAD PUSH3 0x461BCD PUSH1 0xE5 SHL DUP2 MSTORE PUSH1 0x4 ADD PUSH2 0x3B2 SWAP1 PUSH2 0x21A3 JUMP JUMPDEST PUSH1 0x5 PUSH1 0x1 SWAP1 SLOAD SWAP1 PUSH2 0x100 EXP SWAP1 DIV PUSH1 0x1 PUSH1 0x1 PUSH1 0xA0 SHL SUB AND PUSH1 0x1 PUSH1 0x1 PUSH1 0xA0 SHL SUB AND PUSH4 0xD0E30DB0 DUP4 PUSH1 0x40 MLOAD DUP3 PUSH4 0xFFFFFFFF AND PUSH1 0xE0 SHL DUP2 MSTORE PUSH1 0x4 ADD PUSH1 0x0 PUSH1 0x40 MLOAD DUP1 DUP4 SUB DUP2 DUP6 DUP9 DUP1 EXTCODESIZE ISZERO DUP1 ISZERO PUSH2 0x1B38 JUMPI PUSH1 0x0 DUP1 REVERT JUMPDEST POP GAS CALL ISZERO DUP1 ISZERO PUSH2 0x1B4C JUMPI RETURNDATASIZE PUSH1 0x0 DUP1 RETURNDATACOPY RETURNDATASIZE PUSH1 0x0 REVERT JUMPDEST POP POP PUSH1 0x6 SLOAD PUSH2 0x16AD SWAP4 POP PUSH1 0x1 PUSH1 0x1 PUSH1 0xA0 SHL SUB AND SWAP2 POP CALLER SWAP1 POP DUP4 PUSH2 0x18D6 JUMP JUMPDEST PUSH1 0x0 DUP1 SLOAD PUSH1 0x1 PUSH1 0x1 PUSH1 0xA0 SHL SUB DUP4 DUP2 AND PUSH1 0x1 PUSH1 0x1 PUSH1 0xA0 SHL SUB NOT DUP4 AND DUP2 OR DUP5 SSTORE PUSH1 0x40 MLOAD SWAP2 SWAP1 SWAP3 AND SWAP3 DUP4 SWAP2 PUSH32 0x8BE0079C531659141344CD1FD0A4F28419497F9722A3DAAFE3B4186F6B6457E0 SWAP2 SWAP1 LOG3 POP POP JUMP JUMPDEST PUSH1 0x40 DUP1 MLOAD PUSH1 0x1 PUSH1 0x1 PUSH1 0xA0 SHL SUB DUP6 DUP2 AND PUSH1 0x24 DUP4 ADD MSTORE DUP5 DUP2 AND PUSH1 0x44 DUP4 ADD MSTORE PUSH1 0x64 DUP1 DUP4 ADD DUP6 SWAP1 MSTORE DUP4 MLOAD DUP1 DUP5 SUB SWAP1 SWAP2 ADD DUP2 MSTORE PUSH1 0x84 SWAP1 SWAP3 ADD DUP4 MSTORE PUSH1 0x20 DUP3 ADD DUP1 MLOAD PUSH1 0x1 PUSH1 0x1 PUSH1 0xE0 SHL SUB AND PUSH4 0x23B872DD PUSH1 0xE0 SHL OR SWAP1 MSTORE SWAP2 MLOAD PUSH1 0x0 SWAP3 DUP4 SWAP3 SWAP1 DUP9 AND SWAP2 PUSH2 0x1C1E SWAP2 SWAP1 PUSH2 0x2206 JUMP JUMPDEST PUSH1 0x0 PUSH1 0x40 MLOAD DUP1 DUP4 SUB DUP2 PUSH1 0x0 DUP7 GAS CALL SWAP2 POP POP RETURNDATASIZE DUP1 PUSH1 0x0 DUP2 EQ PUSH2 0x1C5B JUMPI PUSH1 0x40 MLOAD SWAP2 POP PUSH1 0x1F NOT PUSH1 0x3F RETURNDATASIZE ADD AND DUP3 ADD PUSH1 0x40 MSTORE RETURNDATASIZE DUP3 MSTORE RETURNDATASIZE PUSH1 0x0 PUSH1 0x20 DUP5 ADD RETURNDATACOPY PUSH2 0x1C60 JUMP JUMPDEST PUSH1 0x60 SWAP2 POP JUMPDEST POP SWAP2 POP SWAP2 POP DUP2 DUP1 ISZERO PUSH2 0x1C8A JUMPI POP DUP1 MLOAD ISZERO DUP1 PUSH2 0x1C8A JUMPI POP DUP1 DUP1 PUSH1 0x20 ADD SWAP1 MLOAD DUP2 ADD SWAP1 PUSH2 0x1C8A SWAP2 SWAP1 PUSH2 0x1F2E JUMP JUMPDEST PUSH2 0x1CE2 JUMPI PUSH1 0x40 MLOAD PUSH3 0x461BCD PUSH1 0xE5 SHL DUP2 MSTORE PUSH1 0x20 PUSH1 0x4 DUP3 ADD MSTORE PUSH1 0x24 DUP1 DUP3 ADD MSTORE PUSH32 0x5472616E7366657248656C7065723A205452414E534645525F46524F4D5F4641 PUSH1 0x44 DUP3 ADD MSTORE PUSH4 0x12531151 PUSH1 0xE2 SHL PUSH1 0x64 DUP3 ADD MSTORE PUSH1 0x84 ADD PUSH2 0x3B2 JUMP JUMPDEST POP POP POP POP POP POP JUMP JUMPDEST PUSH1 0x0 PUSH1 0x20 DUP3 DUP5 SUB SLT ISZERO PUSH2 0x1CFC JUMPI PUSH1 0x0 DUP1 REVERT JUMPDEST POP CALLDATALOAD SWAP2 SWAP1 POP JUMP JUMPDEST DUP1 CALLDATALOAD PUSH1 0x1 PUSH1 0x1 PUSH1 0xA0 SHL SUB DUP2 AND DUP2 EQ PUSH2 0x1D1A JUMPI PUSH1 0x0 DUP1 REVERT JUMPDEST SWAP2 SWAP1 POP JUMP JUMPDEST DUP1 ISZERO ISZERO DUP2 EQ PUSH2 0x124E JUMPI PUSH1 0x0 DUP1 REVERT JUMPDEST PUSH1 0x0 DUP1 PUSH1 0x0 DUP1 PUSH1 0x0 DUP1 PUSH1 0x0 DUP1 PUSH2 0x100 DUP10 DUP12 SUB SLT ISZERO PUSH2 0x1D4A JUMPI PUSH1 0x0 DUP1 REVERT JUMPDEST DUP9 CALLDATALOAD PUSH1 0x3 DUP2 LT PUSH2 0x1D59 JUMPI PUSH1 0x0 DUP1 REVERT JUMPDEST SWAP8 POP PUSH2 0x1D67 PUSH1 0x20 DUP11 ADD PUSH2 0x1D03 JUMP JUMPDEST SWAP7 POP PUSH2 0x1D75 PUSH1 0x40 DUP11 ADD PUSH2 0x1D03 JUMP JUMPDEST SWAP6 POP PUSH1 0x60 DUP10 ADD CALLDATALOAD SWAP5 POP PUSH1 0x80 DUP10 ADD CALLDATALOAD SWAP4 POP PUSH1 0xA0 DUP10 ADD CALLDATALOAD SWAP3 POP PUSH1 0xC0 DUP10 ADD CALLDATALOAD PUSH2 0x1D9A DUP2 PUSH2 0x1D1F JUMP JUMPDEST SWAP2 POP PUSH2 0x1DA8 PUSH1 0xE0 DUP11 ADD PUSH2 0x1D03 JUMP JUMPDEST SWAP1 POP SWAP3 SWAP6 SWAP9 POP SWAP3 SWAP6 SWAP9 SWAP1 SWAP4 SWAP7 POP JUMP JUMPDEST PUSH4 0x4E487B71 PUSH1 0xE0 SHL PUSH1 0x0 MSTORE PUSH1 0x21 PUSH1 0x4 MSTORE PUSH1 0x24 PUSH1 0x0 REVERT JUMPDEST PUSH1 0x20 DUP2 ADD PUSH1 0x3 DUP4 LT PUSH2 0x1DEF JUMPI PUSH4 0x4E487B71 PUSH1 0xE0 SHL PUSH1 0x0 MSTORE PUSH1 0x21 PUSH1 0x4 MSTORE PUSH1 0x24 PUSH1 0x0 REVERT JUMPDEST SWAP2 SWAP1 MSTORE SWAP1 JUMP JUMPDEST PUSH1 0x0 DUP2 MLOAD DUP1 DUP5 MSTORE PUSH1 0x20 DUP1 DUP6 ADD SWAP5 POP DUP1 DUP5 ADD PUSH1 0x0 JUMPDEST DUP4 DUP2 LT ISZERO PUSH2 0x1E25 JUMPI DUP2 MLOAD DUP8 MSTORE SWAP6 DUP3 ADD SWAP6 SWAP1 DUP3 ADD SWAP1 PUSH1 0x1 ADD PUSH2 0x1E09 JUMP JUMPDEST POP SWAP5 SWAP6 SWAP5 POP POP POP POP POP JUMP JUMPDEST PUSH1 0x60 DUP1 DUP3 MSTORE DUP5 MLOAD SWAP1 DUP3 ADD DUP2 SWAP1 MSTORE PUSH1 0x0 SWAP1 PUSH1 0x20 SWAP1 PUSH1 0x80 DUP5 ADD SWAP1 DUP3 DUP9 ADD DUP5 JUMPDEST DUP3 DUP2 LT ISZERO PUSH2 0x1E72 JUMPI DUP2 MLOAD PUSH1 0x1 PUSH1 0x1 PUSH1 0xA0 SHL SUB AND DUP5 MSTORE SWAP3 DUP5 ADD SWAP3 SWAP1 DUP5 ADD SWAP1 PUSH1 0x1 ADD PUSH2 0x1E4D JUMP JUMPDEST POP POP POP DUP4 DUP2 SUB DUP3 DUP6 ADD MSTORE PUSH2 0x1E86 DUP2 DUP8 PUSH2 0x1DF5 JUMP JUMPDEST SWAP2 POP POP DUP3 DUP2 SUB PUSH1 0x40 DUP5 ADD MSTORE PUSH2 0x1E9B DUP2 DUP6 PUSH2 0x1DF5 JUMP JUMPDEST SWAP7 SWAP6 POP POP POP POP POP POP JUMP JUMPDEST PUSH1 0x0 PUSH1 0x20 DUP3 DUP5 SUB SLT ISZERO PUSH2 0x1EB7 JUMPI PUSH1 0x0 DUP1 REVERT JUMPDEST PUSH2 0x1EC0 DUP3 PUSH2 0x1D03 JUMP JUMPDEST SWAP4 SWAP3 POP POP POP JUMP JUMPDEST PUSH1 0x20 DUP1 DUP3 MSTORE PUSH1 0x16 SWAP1 DUP3 ADD MSTORE PUSH22 0x537943726F774261727465723A20494E414354495645 PUSH1 0x50 SHL PUSH1 0x40 DUP3 ADD MSTORE PUSH1 0x60 ADD SWAP1 JUMP JUMPDEST PUSH1 0x20 DUP1 DUP3 MSTORE PUSH1 0x1D SWAP1 DUP3 ADD MSTORE PUSH32 0x537943726F774261727465723A204E4F545F494E495449414C495A4544000000 PUSH1 0x40 DUP3 ADD MSTORE PUSH1 0x60 ADD SWAP1 JUMP JUMPDEST PUSH1 0x0 PUSH1 0x20 DUP3 DUP5 SUB SLT ISZERO PUSH2 0x1F40 JUMPI PUSH1 0x0 DUP1 REVERT JUMPDEST DUP2 MLOAD PUSH2 0x1EC0 DUP2 PUSH2 0x1D1F JUMP JUMPDEST PUSH1 0x20 DUP1 DUP3 MSTORE PUSH1 0x22 SWAP1 DUP3 ADD MSTORE PUSH32 0x537943726F774261727465723A204261736520436F6E74726163742050617573 PUSH1 0x40 DUP3 ADD MSTORE PUSH2 0x1959 PUSH1 0xF2 SHL PUSH1 0x60 DUP3 ADD MSTORE PUSH1 0x80 ADD SWAP1 JUMP JUMPDEST PUSH1 0x20 DUP1 DUP3 MSTORE PUSH1 0x21 SWAP1 DUP3 ADD MSTORE PUSH32 0x537943726F774261727465723A20494E56414C49445F4241525445525F545950 PUSH1 0x40 DUP3 ADD MSTORE PUSH1 0x45 PUSH1 0xF8 SHL PUSH1 0x60 DUP3 ADD MSTORE PUSH1 0x80 ADD SWAP1 JUMP JUMPDEST PUSH1 0x20 DUP1 DUP3 MSTORE PUSH1 0x1F SWAP1 DUP3 ADD MSTORE PUSH32 0x5265656E7472616E637947756172643A207265656E7472616E742063616C6C00 PUSH1 0x40 DUP3 ADD MSTORE PUSH1 0x60 ADD SWAP1 JUMP JUMPDEST PUSH1 0x20 DUP1 DUP3 MSTORE PUSH1 0x29 SWAP1 DUP3 ADD MSTORE PUSH32 0x537943726F774261727465723A20414D4F554E545F4C4F5745525F5448414E5F PUSH1 0x40 DUP3 ADD MSTORE PUSH9 0x149154555492549151 PUSH1 0xBA SHL PUSH1 0x60 DUP3 ADD MSTORE PUSH1 0x80 ADD SWAP1 JUMP JUMPDEST PUSH1 0x20 DUP1 DUP3 MSTORE DUP2 DUP2 ADD MSTORE PUSH32 0x4F776E61626C653A2063616C6C6572206973206E6F7420746865206F776E6572 PUSH1 0x40 DUP3 ADD MSTORE PUSH1 0x60 ADD SWAP1 JUMP JUMPDEST PUSH1 0x0 PUSH1 0x20 DUP3 DUP5 SUB SLT ISZERO PUSH2 0x2095 JUMPI PUSH1 0x0 DUP1 REVERT JUMPDEST POP MLOAD SWAP2 SWAP1 POP JUMP JUMPDEST PUSH1 0x1 PUSH1 0x1 PUSH1 0xA0 SHL SUB SWAP5 DUP6 AND DUP2 MSTORE SWAP3 SWAP1 SWAP4 AND PUSH1 0x20 DUP4 ADD MSTORE PUSH1 0x40 DUP3 ADD MSTORE PUSH1 0x60 DUP2 ADD SWAP2 SWAP1 SWAP2 MSTORE PUSH1 0x80 ADD SWAP1 JUMP JUMPDEST PUSH4 0x4E487B71 PUSH1 0xE0 SHL PUSH1 0x0 MSTORE PUSH1 0x11 PUSH1 0x4 MSTORE PUSH1 0x24 PUSH1 0x0 REVERT JUMPDEST PUSH1 0x0 DUP2 PUSH1 0x0 NOT DIV DUP4 GT DUP3 ISZERO ISZERO AND ISZERO PUSH2 0x20F5 JUMPI PUSH2 0x20F5 PUSH2 0x20C5 JUMP JUMPDEST POP MUL SWAP1 JUMP JUMPDEST PUSH1 0x0 DUP3 PUSH2 0x2117 JUMPI PUSH4 0x4E487B71 PUSH1 0xE0 SHL PUSH1 0x0 MSTORE PUSH1 0x12 PUSH1 0x4 MSTORE PUSH1 0x24 PUSH1 0x0 REVERT JUMPDEST POP DIV SWAP1 JUMP JUMPDEST PUSH4 0x4E487B71 PUSH1 0xE0 SHL PUSH1 0x0 MSTORE PUSH1 0x41 PUSH1 0x4 MSTORE PUSH1 0x24 PUSH1 0x0 REVERT JUMPDEST PUSH4 0x4E487B71 PUSH1 0xE0 SHL PUSH1 0x0 MSTORE PUSH1 0x32 PUSH1 0x4 MSTORE PUSH1 0x24 PUSH1 0x0 REVERT JUMPDEST PUSH1 0x0 PUSH1 0x1 DUP3 ADD PUSH2 0x215A JUMPI PUSH2 0x215A PUSH2 0x20C5 JUMP JUMPDEST POP PUSH1 0x1 ADD SWAP1 JUMP JUMPDEST PUSH1 0x20 DUP1 DUP3 MSTORE PUSH1 0x22 SWAP1 DUP3 ADD MSTORE PUSH32 0x537943726F774261727465723A20494E53554646494349454E545F42414C414E PUSH1 0x40 DUP3 ADD MSTORE PUSH2 0x4345 PUSH1 0xF0 SHL PUSH1 0x60 DUP3 ADD MSTORE PUSH1 0x80 ADD SWAP1 JUMP JUMPDEST PUSH1 0x20 DUP1 DUP3 MSTORE PUSH1 0x2B SWAP1 DUP3 ADD MSTORE PUSH32 0x537943726F774261727465723A20494E53554646494349454E545F434F4E5452 PUSH1 0x40 DUP3 ADD MSTORE PUSH11 0x4143545F42414C414E4345 PUSH1 0xA8 SHL PUSH1 0x60 DUP3 ADD MSTORE PUSH1 0x80 ADD SWAP1 JUMP JUMPDEST PUSH1 0x0 DUP3 NOT DUP3 GT ISZERO PUSH2 0x2201 JUMPI PUSH2 0x2201 PUSH2 0x20C5 JUMP JUMPDEST POP ADD SWAP1 JUMP JUMPDEST PUSH1 0x0 DUP3 MLOAD PUSH1 0x0 JUMPDEST DUP2 DUP2 LT ISZERO PUSH2 0x2227 JUMPI PUSH1 0x20 DUP2 DUP7 ADD DUP2 ADD MLOAD DUP6 DUP4 ADD MSTORE ADD PUSH2 0x220D JUMP JUMPDEST DUP2 DUP2 GT ISZERO PUSH2 0x2236 JUMPI PUSH1 0x0 DUP3 DUP6 ADD MSTORE JUMPDEST POP SWAP2 SWAP1 SWAP2 ADD SWAP3 SWAP2 POP POP JUMP INVALID LOG2 PUSH5 0x6970667358 0x22 SLT KECCAK256 PUSH28 0x409E083D708FFBF307E2D16B4E25B1559346863D3880AC8FCFC49974 0xC5 0xC5 0x1E PUSH5 0x736F6C6343 STOP ADDMOD 0xD STOP CALLER "
				},
				"gasEstimates": {
					"creation": {
						"codeDepositCost": "1764600",
						"executionCost": "infinite",
						"totalCost": "infinite"
					},
					"external": {
						"": "185",
						"_initialized()": "2417",
						"allowMultiBarter()": "2354",
						"barterType()": "2396",
						"deadline()": "2330",
						"factory()": "infinite",
						"getAmounts()": "6638",
						"getTokens()": "6736",
						"getTradeOutAmount(uint256)": "4707",
						"getTrades()": "infinite",
						"initialize(uint8,address,address,uint256,uint256,uint256,bool,address)": "infinite",
						"owner()": "2387",
						"renounceOwnership()": "28137",
						"totalTradeAmount()": "2351",
						"tradeEthForToken(uint256)": "infinite",
						"tradeTokenForEth(uint256)": "infinite",
						"tradeTokenForToken(uint256)": "infinite",
						"transferOwnership(address)": "28419",
						"withdraw()": "infinite"
					},
					"internal": {
						"_tradeEthForToken(uint256)": "infinite",
						"_tradeTokenForEth(uint256)": "infinite",
						"_tradeTokenForToken(uint256)": "infinite"
					}
				},
				"methodIdentifiers": {
					"_initialized()": "3072cf60",
					"allowMultiBarter()": "c6ea7038",
					"barterType()": "89523742",
					"deadline()": "29dcb0cf",
					"factory()": "c45a0155",
					"getAmounts()": "3d370b4e",
					"getTokens()": "aa6ca808",
					"getTradeOutAmount(uint256)": "dab5a8df",
					"getTrades()": "e43372e9",
					"initialize(uint8,address,address,uint256,uint256,uint256,bool,address)": "5f5780e5",
					"owner()": "8da5cb5b",
					"renounceOwnership()": "715018a6",
					"totalTradeAmount()": "40a6f1ab",
					"tradeEthForToken(uint256)": "4341f920",
					"tradeTokenForEth(uint256)": "0d182605",
					"tradeTokenForToken(uint256)": "2ffc6887",
					"transferOwnership(address)": "f2fde38b",
					"withdraw()": "3ccfd60b"
				}
			},
			"storageLayout": {
				"storage": [
					{
						"astId": 7,
						"contract": "contracts/SycrowBarter.sol:SyCrowBarter",
						"label": "_owner",
						"offset": 0,
						"slot": "0",
						"type": "t_address"
					},
					{
						"astId": 115,
						"contract": "contracts/SycrowBarter.sol:SyCrowBarter",
						"label": "_status",
						"offset": 0,
						"slot": "1",
						"type": "t_uint256"
					},
					{
						"astId": 185,
						"contract": "contracts/SycrowBarter.sol:SyCrowBarter",
						"label": "totalTradeAmount",
						"offset": 0,
						"slot": "2",
						"type": "t_uint256"
					},
					{
						"astId": 187,
						"contract": "contracts/SycrowBarter.sol:SyCrowBarter",
						"label": "allowMultiBarter",
						"offset": 0,
						"slot": "3",
						"type": "t_bool"
					},
					{
						"astId": 189,
						"contract": "contracts/SycrowBarter.sol:SyCrowBarter",
						"label": "deadline",
						"offset": 0,
						"slot": "4",
						"type": "t_uint256"
					},
					{
						"astId": 192,
						"contract": "contracts/SycrowBarter.sol:SyCrowBarter",
						"label": "barterType",
						"offset": 0,
						"slot": "5",
						"type": "t_enum(ISyCrowBarterType)1130"
					},
					{
						"astId": 194,
						"contract": "contracts/SycrowBarter.sol:SyCrowBarter",
						"label": "WETH",
						"offset": 1,
						"slot": "5",
						"type": "t_address"
					},
					{
						"astId": 197,
						"contract": "contracts/SycrowBarter.sol:SyCrowBarter",
						"label": "_initialized",
						"offset": 21,
						"slot": "5",
						"type": "t_bool"
					},
					{
						"astId": 199,
						"contract": "contracts/SycrowBarter.sol:SyCrowBarter",
						"label": "_depositedTokenAddress",
						"offset": 0,
						"slot": "6",
						"type": "t_address"
					},
					{
						"astId": 201,
						"contract": "contracts/SycrowBarter.sol:SyCrowBarter",
						"label": "_expectedTokenAddress",
						"offset": 0,
						"slot": "7",
						"type": "t_address"
					},
					{
						"astId": 203,
						"contract": "contracts/SycrowBarter.sol:SyCrowBarter",
						"label": "_depositedAmount",
						"offset": 0,
						"slot": "8",
						"type": "t_uint256"
					},
					{
						"astId": 205,
						"contract": "contracts/SycrowBarter.sol:SyCrowBarter",
						"label": "_expectedAmount",
						"offset": 0,
						"slot": "9",
						"type": "t_uint256"
					},
					{
						"astId": 209,
						"contract": "contracts/SycrowBarter.sol:SyCrowBarter",
						"label": "_trades",
						"offset": 0,
						"slot": "10",
						"type": "t_array(t_struct(BaterTrade)216_storage)dyn_storage"
					}
				],
				"types": {
					"t_address": {
						"encoding": "inplace",
						"label": "address",
						"numberOfBytes": "20"
					},
					"t_array(t_struct(BaterTrade)216_storage)dyn_storage": {
						"base": "t_struct(BaterTrade)216_storage",
						"encoding": "dynamic_array",
						"label": "struct SyCrowBarter.BaterTrade[]",
						"numberOfBytes": "32"
					},
					"t_bool": {
						"encoding": "inplace",
						"label": "bool",
						"numberOfBytes": "1"
					},
					"t_enum(ISyCrowBarterType)1130": {
						"encoding": "inplace",
						"label": "enum ISyCrowBarterType",
						"numberOfBytes": "1"
					},
					"t_struct(BaterTrade)216_storage": {
						"encoding": "inplace",
						"label": "struct SyCrowBarter.BaterTrade",
						"members": [
							{
								"astId": 211,
								"contract": "contracts/SycrowBarter.sol:SyCrowBarter",
								"label": "_trader",
								"offset": 0,
								"slot": "0",
								"type": "t_address"
							},
							{
								"astId": 213,
								"contract": "contracts/SycrowBarter.sol:SyCrowBarter",
								"label": "_amountIn",
								"offset": 0,
								"slot": "1",
								"type": "t_uint256"
							},
							{
								"astId": 215,
								"contract": "contracts/SycrowBarter.sol:SyCrowBarter",
								"label": "_amountOut",
								"offset": 0,
								"slot": "2",
								"type": "t_uint256"
							}
						],
						"numberOfBytes": "96"
					},
					"t_uint256": {
						"encoding": "inplace",
						"label": "uint256",
						"numberOfBytes": "32"
					}
				}
			},
			"userdoc": {
				"kind": "user",
				"methods": {},
				"version": 1
			}
		}
	}
}