{
	"contracts/SyCrowBarter.sol": {
		"SyCrowBarter": {
			"abi": [
				{
					"inputs": [],
					"stateMutability": "nonpayable",
					"type": "constructor"
				},
				{
					"anonymous": false,
					"inputs": [
						{
							"indexed": true,
							"internalType": "address",
							"name": "previousOwner",
							"type": "address"
						},
						{
							"indexed": true,
							"internalType": "address",
							"name": "newOwner",
							"type": "address"
						}
					],
					"name": "OwnershipTransferred",
					"type": "event"
				},
				{
					"inputs": [],
					"name": "_initialized",
					"outputs": [
						{
							"internalType": "bool",
							"name": "",
							"type": "bool"
						}
					],
					"stateMutability": "view",
					"type": "function"
				},
				{
					"inputs": [],
					"name": "barterType",
					"outputs": [
						{
							"internalType": "enum ISyCrowBarterType",
							"name": "",
							"type": "uint8"
						}
					],
					"stateMutability": "view",
					"type": "function"
				},
				{
					"inputs": [],
					"name": "factory",
					"outputs": [
						{
							"internalType": "address",
							"name": "",
							"type": "address"
						}
					],
					"stateMutability": "view",
					"type": "function"
				},
				{
					"inputs": [],
					"name": "getAmounts",
					"outputs": [
						{
							"internalType": "uint256",
							"name": "",
							"type": "uint256"
						},
						{
							"internalType": "uint256",
							"name": "",
							"type": "uint256"
						}
					],
					"stateMutability": "view",
					"type": "function"
				},
				{
					"inputs": [],
					"name": "getTokens",
					"outputs": [
						{
							"internalType": "address",
							"name": "",
							"type": "address"
						},
						{
							"internalType": "address",
							"name": "",
							"type": "address"
						}
					],
					"stateMutability": "view",
					"type": "function"
				},
				{
					"inputs": [
						{
							"internalType": "uint256",
							"name": "amount",
							"type": "uint256"
						}
					],
					"name": "getTradeOutAmount",
					"outputs": [
						{
							"internalType": "uint256",
							"name": "",
							"type": "uint256"
						}
					],
					"stateMutability": "view",
					"type": "function"
				},
				{
					"inputs": [],
					"name": "getTrades",
					"outputs": [
						{
							"internalType": "address[]",
							"name": "",
							"type": "address[]"
						},
						{
							"internalType": "uint256[]",
							"name": "",
							"type": "uint256[]"
						},
						{
							"internalType": "uint256[]",
							"name": "",
							"type": "uint256[]"
						}
					],
					"stateMutability": "view",
					"type": "function"
				},
				{
					"inputs": [
						{
							"internalType": "enum ISyCrowBarterType",
							"name": "_barterType",
							"type": "uint8"
						},
						{
							"internalType": "address",
							"name": "inToken",
							"type": "address"
						},
						{
							"internalType": "address",
							"name": "outToken",
							"type": "address"
						},
						{
							"internalType": "uint256",
							"name": "amountDeposited",
							"type": "uint256"
						},
						{
							"internalType": "uint256",
							"name": "amountExpected",
							"type": "uint256"
						},
						{
							"internalType": "uint256",
							"name": "deadline",
							"type": "uint256"
						},
						{
							"internalType": "bool",
							"name": "allowMultiBarter",
							"type": "bool"
						},
						{
							"internalType": "address",
							"name": "_WETH",
							"type": "address"
						}
					],
					"name": "initialize",
					"outputs": [
						{
							"internalType": "bool",
							"name": "",
							"type": "bool"
						}
					],
					"stateMutability": "nonpayable",
					"type": "function"
				},
				{
					"inputs": [],
					"name": "owner",
					"outputs": [
						{
							"internalType": "address",
							"name": "",
							"type": "address"
						}
					],
					"stateMutability": "view",
					"type": "function"
				},
				{
					"inputs": [],
					"name": "renounceOwnership",
					"outputs": [],
					"stateMutability": "nonpayable",
					"type": "function"
				},
				{
					"inputs": [],
					"name": "totalTradeAmount",
					"outputs": [
						{
							"internalType": "uint256",
							"name": "",
							"type": "uint256"
						}
					],
					"stateMutability": "view",
					"type": "function"
				},
				{
					"inputs": [
						{
							"internalType": "uint256",
							"name": "inAmount",
							"type": "uint256"
						}
					],
					"name": "tradeEthForToken",
					"outputs": [],
					"stateMutability": "payable",
					"type": "function"
				},
				{
					"inputs": [
						{
							"internalType": "uint256",
							"name": "inAmount",
							"type": "uint256"
						}
					],
					"name": "tradeTokenForEth",
					"outputs": [],
					"stateMutability": "nonpayable",
					"type": "function"
				},
				{
					"inputs": [
						{
							"internalType": "uint256",
							"name": "inAmount",
							"type": "uint256"
						}
					],
					"name": "tradeTokenForToken",
					"outputs": [],
					"stateMutability": "nonpayable",
					"type": "function"
				},
				{
					"inputs": [
						{
							"internalType": "address",
							"name": "newOwner",
							"type": "address"
						}
					],
					"name": "transferOwnership",
					"outputs": [],
					"stateMutability": "nonpayable",
					"type": "function"
				},
				{
					"inputs": [],
					"name": "withdraw",
					"outputs": [],
					"stateMutability": "nonpayable",
					"type": "function"
				}
			],
			"devdoc": {
				"kind": "dev",
				"methods": {
					"owner()": {
						"details": "Returns the address of the current owner."
					},
					"renounceOwnership()": {
						"details": "Leaves the contract without owner. It will not be possible to call `onlyOwner` functions anymore. Can only be called by the current owner. NOTE: Renouncing ownership will leave the contract without an owner, thereby removing any functionality that is only available to the owner."
					},
					"transferOwnership(address)": {
						"details": "Transfers ownership of the contract to a new account (`newOwner`). Can only be called by the current owner."
					}
				},
				"version": 1
			},
			"evm": {
				"assembly": "    /* \"contracts/SyCrowBarter.sol\":269:9934  contract SyCrowBarter is ISyCrowBarter, Ownable {... */\n  mstore(0x40, 0xa0)\n    /* \"contracts/SyCrowBarter.sol\":535:540  false */\n  0x00\n    /* \"contracts/SyCrowBarter.sol\":508:540  bool public _initialized = false */\n  0x04\n  exp(0x0100, 0x00)\n  dup2\n  sload\n  dup2\n  0xff\n  mul\n  not\n  and\n  swap1\n  dup4\n  iszero\n  iszero\n  mul\n  or\n  swap1\n  sstore\n  pop\n    /* \"contracts/SyCrowBarter.sol\":1754:1805  constructor() {... */\n  callvalue\n  dup1\n  iszero\n  tag_1\n  jumpi\n  0x00\n  dup1\n  revert\ntag_1:\n  pop\n    /* \"@openzeppelin/contracts/access/Ownable.sol\":921:953  _transferOwnership(_msgSender()) */\n  tag_5\n    /* \"@openzeppelin/contracts/access/Ownable.sol\":940:952  _msgSender() */\n  tag_6\n    /* \"@openzeppelin/contracts/access/Ownable.sol\":940:950  _msgSender */\n  shl(0x20, tag_7)\n    /* \"@openzeppelin/contracts/access/Ownable.sol\":940:952  _msgSender() */\n  0x20\n  shr\n  jump\t// in\ntag_6:\n    /* \"@openzeppelin/contracts/access/Ownable.sol\":921:939  _transferOwnership */\n  shl(0x20, tag_8)\n    /* \"@openzeppelin/contracts/access/Ownable.sol\":921:953  _transferOwnership(_msgSender()) */\n  0x20\n  shr\n  jump\t// in\ntag_5:\n    /* \"contracts/SyCrowBarter.sol\":1788:1798  msg.sender */\n  caller\n    /* \"contracts/SyCrowBarter.sol\":1778:1798  factory = msg.sender */\n  0xffffffffffffffffffffffffffffffffffffffff\n  and\n  0x80\n  dup2\n  0xffffffffffffffffffffffffffffffffffffffff\n  and\n  dup2\n  mstore\n  pop\n  pop\n    /* \"contracts/SyCrowBarter.sol\":269:9934  contract SyCrowBarter is ISyCrowBarter, Ownable {... */\n  jump(tag_10)\n    /* \"@openzeppelin/contracts/utils/Context.sol\":640:736  function _msgSender() internal view virtual returns (address) {... */\ntag_7:\n    /* \"@openzeppelin/contracts/utils/Context.sol\":693:700  address */\n  0x00\n    /* \"@openzeppelin/contracts/utils/Context.sol\":719:729  msg.sender */\n  caller\n    /* \"@openzeppelin/contracts/utils/Context.sol\":712:729  return msg.sender */\n  swap1\n  pop\n    /* \"@openzeppelin/contracts/utils/Context.sol\":640:736  function _msgSender() internal view virtual returns (address) {... */\n  swap1\n  jump\t// out\n    /* \"@openzeppelin/contracts/access/Ownable.sol\":2270:2457  function _transferOwnership(address newOwner) internal virtual {... */\ntag_8:\n    /* \"@openzeppelin/contracts/access/Ownable.sol\":2343:2359  address oldOwner */\n  0x00\n    /* \"@openzeppelin/contracts/access/Ownable.sol\":2362:2368  _owner */\n  dup1\n  0x00\n  swap1\n  sload\n  swap1\n  0x0100\n  exp\n  swap1\n  div\n  0xffffffffffffffffffffffffffffffffffffffff\n  and\n    /* \"@openzeppelin/contracts/access/Ownable.sol\":2343:2368  address oldOwner = _owner */\n  swap1\n  pop\n    /* \"@openzeppelin/contracts/access/Ownable.sol\":2387:2395  newOwner */\n  dup2\n    /* \"@openzeppelin/contracts/access/Ownable.sol\":2378:2384  _owner */\n  0x00\n  dup1\n    /* \"@openzeppelin/contracts/access/Ownable.sol\":2378:2395  _owner = newOwner */\n  0x0100\n  exp\n  dup2\n  sload\n  dup2\n  0xffffffffffffffffffffffffffffffffffffffff\n  mul\n  not\n  and\n  swap1\n  dup4\n  0xffffffffffffffffffffffffffffffffffffffff\n  and\n  mul\n  or\n  swap1\n  sstore\n  pop\n    /* \"@openzeppelin/contracts/access/Ownable.sol\":2441:2449  newOwner */\n  dup2\n    /* \"@openzeppelin/contracts/access/Ownable.sol\":2410:2450  OwnershipTransferred(oldOwner, newOwner) */\n  0xffffffffffffffffffffffffffffffffffffffff\n  and\n    /* \"@openzeppelin/contracts/access/Ownable.sol\":2431:2439  oldOwner */\n  dup2\n    /* \"@openzeppelin/contracts/access/Ownable.sol\":2410:2450  OwnershipTransferred(oldOwner, newOwner) */\n  0xffffffffffffffffffffffffffffffffffffffff\n  and\n  0x8be0079c531659141344cd1fd0a4f28419497f9722a3daafe3b4186f6b6457e0\n  mload(0x40)\n  mload(0x40)\n  dup1\n  swap2\n  sub\n  swap1\n  log3\n    /* \"@openzeppelin/contracts/access/Ownable.sol\":2333:2457  {... */\n  pop\n    /* \"@openzeppelin/contracts/access/Ownable.sol\":2270:2457  function _transferOwnership(address newOwner) internal virtual {... */\n  pop\n  jump\t// out\n    /* \"contracts/SyCrowBarter.sol\":269:9934  contract SyCrowBarter is ISyCrowBarter, Ownable {... */\ntag_10:\n  mload(0x80)\n  codecopy(0x00, dataOffset(sub_0), dataSize(sub_0))\n  0x00\n  assignImmutable(\"0x26a975632f70533c9512e57b565b8ce8e2befee6b08dfbc27c4a897a20e2c1d6\")\n  return(0x00, dataSize(sub_0))\nstop\n\nsub_0: assembly {\n        /* \"contracts/SyCrowBarter.sol\":269:9934  contract SyCrowBarter is ISyCrowBarter, Ownable {... */\n      mstore(0x40, 0x80)\n      jumpi(tag_1, lt(calldatasize, 0x04))\n      shr(0xe0, calldataload(0x00))\n      dup1\n      0x715018a6\n      gt\n      tag_18\n      jumpi\n      dup1\n      0xc45a0155\n      gt\n      tag_19\n      jumpi\n      dup1\n      0xc45a0155\n      eq\n      tag_14\n      jumpi\n      dup1\n      0xdab5a8df\n      eq\n      tag_15\n      jumpi\n      dup1\n      0xe43372e9\n      eq\n      tag_16\n      jumpi\n      dup1\n      0xf2fde38b\n      eq\n      tag_17\n      jumpi\n      jump(tag_1)\n    tag_19:\n      dup1\n      0x715018a6\n      eq\n      tag_10\n      jumpi\n      dup1\n      0x89523742\n      eq\n      tag_11\n      jumpi\n      dup1\n      0x8da5cb5b\n      eq\n      tag_12\n      jumpi\n      dup1\n      0xaa6ca808\n      eq\n      tag_13\n      jumpi\n      jump(tag_1)\n    tag_18:\n      dup1\n      0x3d370b4e\n      gt\n      tag_20\n      jumpi\n      dup1\n      0x3d370b4e\n      eq\n      tag_6\n      jumpi\n      dup1\n      0x40a6f1ab\n      eq\n      tag_7\n      jumpi\n      dup1\n      0x4341f920\n      eq\n      tag_8\n      jumpi\n      dup1\n      0x5f5780e5\n      eq\n      tag_9\n      jumpi\n      jump(tag_1)\n    tag_20:\n      dup1\n      0x0d182605\n      eq\n      tag_2\n      jumpi\n      dup1\n      0x2ffc6887\n      eq\n      tag_3\n      jumpi\n      dup1\n      0x3072cf60\n      eq\n      tag_4\n      jumpi\n      dup1\n      0x3ccfd60b\n      eq\n      tag_5\n      jumpi\n    tag_1:\n      0x00\n      dup1\n      revert\n        /* \"contracts/SyCrowBarter.sol\":4329:4709  function tradeTokenForEth(uint256 inAmount)... */\n    tag_2:\n      callvalue\n      dup1\n      iszero\n      tag_21\n      jumpi\n      0x00\n      dup1\n      revert\n    tag_21:\n      pop\n      tag_22\n      0x04\n      dup1\n      calldatasize\n      sub\n      dup2\n      add\n      swap1\n      tag_23\n      swap2\n      swap1\n      tag_24\n      jump\t// in\n    tag_23:\n      tag_25\n      jump\t// in\n    tag_22:\n      stop\n        /* \"contracts/SyCrowBarter.sol\":3937:4323  function tradeTokenForToken(uint256 inAmount)... */\n    tag_3:\n      callvalue\n      dup1\n      iszero\n      tag_26\n      jumpi\n      0x00\n      dup1\n      revert\n    tag_26:\n      pop\n      tag_27\n      0x04\n      dup1\n      calldatasize\n      sub\n      dup2\n      add\n      swap1\n      tag_28\n      swap2\n      swap1\n      tag_24\n      jump\t// in\n    tag_28:\n      tag_29\n      jump\t// in\n    tag_27:\n      stop\n        /* \"contracts/SyCrowBarter.sol\":508:540  bool public _initialized = false */\n    tag_4:\n      callvalue\n      dup1\n      iszero\n      tag_30\n      jumpi\n      0x00\n      dup1\n      revert\n    tag_30:\n      pop\n      tag_31\n      tag_32\n      jump\t// in\n    tag_31:\n      mload(0x40)\n      tag_33\n      swap2\n      swap1\n      tag_34\n      jump\t// in\n    tag_33:\n      mload(0x40)\n      dup1\n      swap2\n      sub\n      swap1\n      return\n        /* \"contracts/SyCrowBarter.sol\":8039:9756  function withdraw() external override checkInActive initialized onlyOwner {... */\n    tag_5:\n      callvalue\n      dup1\n      iszero\n      tag_35\n      jumpi\n      0x00\n      dup1\n      revert\n    tag_35:\n      pop\n      tag_36\n      tag_37\n      jump\t// in\n    tag_36:\n      stop\n        /* \"contracts/SyCrowBarter.sol\":2848:3035  function getAmounts()... */\n    tag_6:\n      callvalue\n      dup1\n      iszero\n      tag_38\n      jumpi\n      0x00\n      dup1\n      revert\n    tag_38:\n      pop\n      tag_39\n      tag_40\n      jump\t// in\n    tag_39:\n      mload(0x40)\n      tag_41\n      swap3\n      swap2\n      swap1\n      tag_42\n      jump\t// in\n    tag_41:\n      mload(0x40)\n      dup1\n      swap2\n      sub\n      swap1\n      return\n        /* \"contracts/SyCrowBarter.sol\":370:401  uint256 public totalTradeAmount */\n    tag_7:\n      callvalue\n      dup1\n      iszero\n      tag_43\n      jumpi\n      0x00\n      dup1\n      revert\n    tag_43:\n      pop\n      tag_44\n      tag_45\n      jump\t// in\n    tag_44:\n      mload(0x40)\n      tag_46\n      swap2\n      swap1\n      tag_47\n      jump\t// in\n    tag_46:\n      mload(0x40)\n      dup1\n      swap2\n      sub\n      swap1\n      return\n        /* \"contracts/SyCrowBarter.sol\":4715:5112  function tradeEthForToken(uint256 inAmount)... */\n    tag_8:\n      tag_48\n      0x04\n      dup1\n      calldatasize\n      sub\n      dup2\n      add\n      swap1\n      tag_49\n      swap2\n      swap1\n      tag_24\n      jump\t// in\n    tag_49:\n      tag_50\n      jump\t// in\n    tag_48:\n      stop\n        /* \"contracts/SyCrowBarter.sol\":1811:2842  function initialize(... */\n    tag_9:\n      callvalue\n      dup1\n      iszero\n      tag_51\n      jumpi\n      0x00\n      dup1\n      revert\n    tag_51:\n      pop\n      tag_52\n      0x04\n      dup1\n      calldatasize\n      sub\n      dup2\n      add\n      swap1\n      tag_53\n      swap2\n      swap1\n      tag_54\n      jump\t// in\n    tag_53:\n      tag_55\n      jump\t// in\n    tag_52:\n      mload(0x40)\n      tag_56\n      swap2\n      swap1\n      tag_34\n      jump\t// in\n    tag_56:\n      mload(0x40)\n      dup1\n      swap2\n      sub\n      swap1\n      return\n        /* \"@openzeppelin/contracts/access/Ownable.sol\":1668:1769  function renounceOwnership() public virtual onlyOwner {... */\n    tag_10:\n      callvalue\n      dup1\n      iszero\n      tag_57\n      jumpi\n      0x00\n      dup1\n      revert\n    tag_57:\n      pop\n      tag_58\n      tag_59\n      jump\t// in\n    tag_58:\n      stop\n        /* \"contracts/SyCrowBarter.sol\":407:442  ISyCrowBarterType public barterType */\n    tag_11:\n      callvalue\n      dup1\n      iszero\n      tag_60\n      jumpi\n      0x00\n      dup1\n      revert\n    tag_60:\n      pop\n      tag_61\n      tag_62\n      jump\t// in\n    tag_61:\n      mload(0x40)\n      tag_63\n      swap2\n      swap1\n      tag_64\n      jump\t// in\n    tag_63:\n      mload(0x40)\n      dup1\n      swap2\n      sub\n      swap1\n      return\n        /* \"@openzeppelin/contracts/access/Ownable.sol\":1036:1121  function owner() public view virtual returns (address) {... */\n    tag_12:\n      callvalue\n      dup1\n      iszero\n      tag_65\n      jumpi\n      0x00\n      dup1\n      revert\n    tag_65:\n      pop\n      tag_66\n      tag_67\n      jump\t// in\n    tag_66:\n      mload(0x40)\n      tag_68\n      swap2\n      swap1\n      tag_69\n      jump\t// in\n    tag_68:\n      mload(0x40)\n      dup1\n      swap2\n      sub\n      swap1\n      return\n        /* \"contracts/SyCrowBarter.sol\":3041:3239  function getTokens()... */\n    tag_13:\n      callvalue\n      dup1\n      iszero\n      tag_70\n      jumpi\n      0x00\n      dup1\n      revert\n    tag_70:\n      pop\n      tag_71\n      tag_72\n      jump\t// in\n    tag_71:\n      mload(0x40)\n      tag_73\n      swap3\n      swap2\n      swap1\n      tag_74\n      jump\t// in\n    tag_73:\n      mload(0x40)\n      dup1\n      swap2\n      sub\n      swap1\n      return\n        /* \"contracts/SyCrowBarter.sol\":323:364  address public immutable override factory */\n    tag_14:\n      callvalue\n      dup1\n      iszero\n      tag_75\n      jumpi\n      0x00\n      dup1\n      revert\n    tag_75:\n      pop\n      tag_76\n      tag_77\n      jump\t// in\n    tag_76:\n      mload(0x40)\n      tag_78\n      swap2\n      swap1\n      tag_69\n      jump\t// in\n    tag_78:\n      mload(0x40)\n      dup1\n      swap2\n      sub\n      swap1\n      return\n        /* \"contracts/SyCrowBarter.sol\":9762:9932  function getTradeOutAmount(uint256 amount)... */\n    tag_15:\n      callvalue\n      dup1\n      iszero\n      tag_79\n      jumpi\n      0x00\n      dup1\n      revert\n    tag_79:\n      pop\n      tag_80\n      0x04\n      dup1\n      calldatasize\n      sub\n      dup2\n      add\n      swap1\n      tag_81\n      swap2\n      swap1\n      tag_24\n      jump\t// in\n    tag_81:\n      tag_82\n      jump\t// in\n    tag_80:\n      mload(0x40)\n      tag_83\n      swap2\n      swap1\n      tag_47\n      jump\t// in\n    tag_83:\n      mload(0x40)\n      dup1\n      swap2\n      sub\n      swap1\n      return\n        /* \"contracts/SyCrowBarter.sol\":3245:3931  function getTrades()... */\n    tag_16:\n      callvalue\n      dup1\n      iszero\n      tag_84\n      jumpi\n      0x00\n      dup1\n      revert\n    tag_84:\n      pop\n      tag_85\n      tag_86\n      jump\t// in\n    tag_85:\n      mload(0x40)\n      tag_87\n      swap4\n      swap3\n      swap2\n      swap1\n      tag_88\n      jump\t// in\n    tag_87:\n      mload(0x40)\n      dup1\n      swap2\n      sub\n      swap1\n      return\n        /* \"@openzeppelin/contracts/access/Ownable.sol\":1918:2116  function transferOwnership(address newOwner) public virtual onlyOwner {... */\n    tag_17:\n      callvalue\n      dup1\n      iszero\n      tag_89\n      jumpi\n      0x00\n      dup1\n      revert\n    tag_89:\n      pop\n      tag_90\n      0x04\n      dup1\n      calldatasize\n      sub\n      dup2\n      add\n      swap1\n      tag_91\n      swap2\n      swap1\n      tag_92\n      jump\t// in\n    tag_91:\n      tag_93\n      jump\t// in\n    tag_90:\n      stop\n        /* \"contracts/SyCrowBarter.sol\":4329:4709  function tradeTokenForEth(uint256 inAmount)... */\n    tag_25:\n        /* \"contracts/SyCrowBarter.sol\":962:977  block.timestamp */\n      timestamp\n        /* \"contracts/SyCrowBarter.sol\":949:958  _deadline */\n      sload(0x03)\n        /* \"contracts/SyCrowBarter.sol\":949:977  _deadline >= block.timestamp */\n      lt\n      iszero\n        /* \"contracts/SyCrowBarter.sol\":949:1015  _deadline >= block.timestamp && totalTradeAmount < _expectedAmount */\n      dup1\n      iszero\n      tag_95\n      jumpi\n      pop\n        /* \"contracts/SyCrowBarter.sol\":1000:1015  _expectedAmount */\n      sload(0x07)\n        /* \"contracts/SyCrowBarter.sol\":981:997  totalTradeAmount */\n      sload(0x01)\n        /* \"contracts/SyCrowBarter.sol\":981:1015  totalTradeAmount < _expectedAmount */\n      lt\n        /* \"contracts/SyCrowBarter.sol\":949:1015  _deadline >= block.timestamp && totalTradeAmount < _expectedAmount */\n    tag_95:\n        /* \"contracts/SyCrowBarter.sol\":928:1063  require(... */\n      tag_96\n      jumpi\n      mload(0x40)\n      0x08c379a000000000000000000000000000000000000000000000000000000000\n      dup2\n      mstore\n      0x04\n      add\n      tag_97\n      swap1\n      tag_98\n      jump\t// in\n    tag_97:\n      mload(0x40)\n      dup1\n      swap2\n      sub\n      swap1\n      revert\n    tag_96:\n        /* \"contracts/SyCrowBarter.sol\":1481:1493  _initialized */\n      0x04\n      0x00\n      swap1\n      sload\n      swap1\n      0x0100\n      exp\n      swap1\n      div\n      0xff\n      and\n        /* \"contracts/SyCrowBarter.sol\":1473:1527  require(_initialized, \"SyCrowBarter: NOT_INITIALIZED\") */\n      tag_100\n      jumpi\n      mload(0x40)\n      0x08c379a000000000000000000000000000000000000000000000000000000000\n      dup2\n      mstore\n      0x04\n      add\n      tag_101\n      swap1\n      tag_102\n      jump\t// in\n    tag_101:\n      mload(0x40)\n      dup1\n      swap2\n      sub\n      swap1\n      revert\n    tag_100:\n        /* \"contracts/SyCrowBarter.sol\":1584:1617  ISyCrowBarterFactory isycrFactory */\n      0x00\n        /* \"contracts/SyCrowBarter.sol\":1641:1648  factory */\n      immutable(\"0x26a975632f70533c9512e57b565b8ce8e2befee6b08dfbc27c4a897a20e2c1d6\")\n        /* \"contracts/SyCrowBarter.sol\":1584:1649  ISyCrowBarterFactory isycrFactory = ISyCrowBarterFactory(factory) */\n      swap1\n      pop\n        /* \"contracts/SyCrowBarter.sol\":1668:1680  isycrFactory */\n      dup1\n        /* \"contracts/SyCrowBarter.sol\":1668:1689  isycrFactory.isPaused */\n      0xffffffffffffffffffffffffffffffffffffffff\n      and\n      0xb187bd26\n        /* \"contracts/SyCrowBarter.sol\":1668:1691  isycrFactory.isPaused() */\n      mload(0x40)\n      dup2\n      0xffffffff\n      and\n      0xe0\n      shl\n      dup2\n      mstore\n      0x04\n      add\n      0x20\n      mload(0x40)\n      dup1\n      dup4\n      sub\n      dup2\n      dup7\n      gas\n      staticcall\n      iszero\n      dup1\n      iszero\n      tag_105\n      jumpi\n      returndatasize\n      0x00\n      dup1\n      returndatacopy\n      revert(0x00, returndatasize)\n    tag_105:\n      pop\n      pop\n      pop\n      pop\n      mload(0x40)\n      returndatasize\n      not(0x1f)\n      0x1f\n      dup3\n      add\n      and\n      dup3\n      add\n      dup1\n      0x40\n      mstore\n      pop\n      dup2\n      add\n      swap1\n      tag_106\n      swap2\n      swap1\n      tag_107\n      jump\t// in\n    tag_106:\n        /* \"contracts/SyCrowBarter.sol\":1667:1691  !isycrFactory.isPaused() */\n      iszero\n        /* \"contracts/SyCrowBarter.sol\":1659:1730  require(!isycrFactory.isPaused(), \"SyCrowBarter: Base Contract Paused\") */\n      tag_108\n      jumpi\n      mload(0x40)\n      0x08c379a000000000000000000000000000000000000000000000000000000000\n      dup2\n      mstore\n      0x04\n      add\n      tag_109\n      swap1\n      tag_110\n      jump\t// in\n    tag_109:\n      mload(0x40)\n      dup1\n      swap2\n      sub\n      swap1\n      revert\n    tag_108:\n        /* \"contracts/SyCrowBarter.sol\":4491:4522  ISyCrowBarterType.ETH_FOR_TOKEN */\n      0x00\n        /* \"contracts/SyCrowBarter.sol\":1176:1186  barterType */\n      0x02\n      0x00\n      swap1\n      sload\n      swap1\n      0x0100\n      exp\n      swap1\n      div\n      0xff\n      and\n        /* \"contracts/SyCrowBarter.sol\":1161:1186  _barterType == barterType */\n      0x02\n      dup2\n      gt\n      iszero\n      tag_112\n      jumpi\n      tag_113\n      tag_114\n      jump\t// in\n    tag_113:\n    tag_112:\n        /* \"contracts/SyCrowBarter.sol\":1161:1172  _barterType */\n      dup2\n        /* \"contracts/SyCrowBarter.sol\":1161:1186  _barterType == barterType */\n      0x02\n      dup2\n      gt\n      iszero\n      tag_115\n      jumpi\n      tag_116\n      tag_114\n      jump\t// in\n    tag_116:\n    tag_115:\n      eq\n        /* \"contracts/SyCrowBarter.sol\":1153:1224  require(_barterType == barterType, \"SyCrowBarter: INVALID_BARTER_TYPE\") */\n      tag_117\n      jumpi\n      mload(0x40)\n      0x08c379a000000000000000000000000000000000000000000000000000000000\n      dup2\n      mstore\n      0x04\n      add\n      tag_118\n      swap1\n      tag_119\n      jump\t// in\n    tag_118:\n      mload(0x40)\n      dup1\n      swap2\n      sub\n      swap1\n      revert\n    tag_117:\n        /* \"contracts/SyCrowBarter.sol\":4542:4559  _allowMultiBarter */\n      0x08\n      0x00\n      swap1\n      sload\n      swap1\n      0x0100\n      exp\n      swap1\n      div\n      0xff\n      and\n        /* \"contracts/SyCrowBarter.sol\":4538:4666  if(!_allowMultiBarter){... */\n      tag_121\n      jumpi\n        /* \"contracts/SyCrowBarter.sol\":4594:4609  _expectedAmount */\n      sload(0x07)\n        /* \"contracts/SyCrowBarter.sol\":4582:4590  inAmount */\n      dup4\n        /* \"contracts/SyCrowBarter.sol\":4582:4609  inAmount >= _expectedAmount */\n      lt\n      iszero\n        /* \"contracts/SyCrowBarter.sol\":4574:4655  require(inAmount >= _expectedAmount, \"SyCrowBarter: AMOUNT_LOWER_THAN_REQURIRED\") */\n      tag_122\n      jumpi\n      mload(0x40)\n      0x08c379a000000000000000000000000000000000000000000000000000000000\n      dup2\n      mstore\n      0x04\n      add\n      tag_123\n      swap1\n      tag_124\n      jump\t// in\n    tag_123:\n      mload(0x40)\n      dup1\n      swap2\n      sub\n      swap1\n      revert\n    tag_122:\n        /* \"contracts/SyCrowBarter.sol\":4538:4666  if(!_allowMultiBarter){... */\n    tag_121:\n        /* \"contracts/SyCrowBarter.sol\":4675:4702  _tradeTokenForEth(inAmount) */\n      tag_125\n        /* \"contracts/SyCrowBarter.sol\":4693:4701  inAmount */\n      dup4\n        /* \"contracts/SyCrowBarter.sol\":4675:4692  _tradeTokenForEth */\n      tag_126\n        /* \"contracts/SyCrowBarter.sol\":4675:4702  _tradeTokenForEth(inAmount) */\n      jump\t// in\n    tag_125:\n        /* \"contracts/SyCrowBarter.sol\":1740:1741  _ */\n      pop\n        /* \"contracts/SyCrowBarter.sol\":1574:1748  {... */\n      pop\n        /* \"contracts/SyCrowBarter.sol\":4329:4709  function tradeTokenForEth(uint256 inAmount)... */\n      pop\n      jump\t// out\n        /* \"contracts/SyCrowBarter.sol\":3937:4323  function tradeTokenForToken(uint256 inAmount)... */\n    tag_29:\n        /* \"contracts/SyCrowBarter.sol\":962:977  block.timestamp */\n      timestamp\n        /* \"contracts/SyCrowBarter.sol\":949:958  _deadline */\n      sload(0x03)\n        /* \"contracts/SyCrowBarter.sol\":949:977  _deadline >= block.timestamp */\n      lt\n      iszero\n        /* \"contracts/SyCrowBarter.sol\":949:1015  _deadline >= block.timestamp && totalTradeAmount < _expectedAmount */\n      dup1\n      iszero\n      tag_128\n      jumpi\n      pop\n        /* \"contracts/SyCrowBarter.sol\":1000:1015  _expectedAmount */\n      sload(0x07)\n        /* \"contracts/SyCrowBarter.sol\":981:997  totalTradeAmount */\n      sload(0x01)\n        /* \"contracts/SyCrowBarter.sol\":981:1015  totalTradeAmount < _expectedAmount */\n      lt\n        /* \"contracts/SyCrowBarter.sol\":949:1015  _deadline >= block.timestamp && totalTradeAmount < _expectedAmount */\n    tag_128:\n        /* \"contracts/SyCrowBarter.sol\":928:1063  require(... */\n      tag_129\n      jumpi\n      mload(0x40)\n      0x08c379a000000000000000000000000000000000000000000000000000000000\n      dup2\n      mstore\n      0x04\n      add\n      tag_130\n      swap1\n      tag_98\n      jump\t// in\n    tag_130:\n      mload(0x40)\n      dup1\n      swap2\n      sub\n      swap1\n      revert\n    tag_129:\n        /* \"contracts/SyCrowBarter.sol\":1481:1493  _initialized */\n      0x04\n      0x00\n      swap1\n      sload\n      swap1\n      0x0100\n      exp\n      swap1\n      div\n      0xff\n      and\n        /* \"contracts/SyCrowBarter.sol\":1473:1527  require(_initialized, \"SyCrowBarter: NOT_INITIALIZED\") */\n      tag_132\n      jumpi\n      mload(0x40)\n      0x08c379a000000000000000000000000000000000000000000000000000000000\n      dup2\n      mstore\n      0x04\n      add\n      tag_133\n      swap1\n      tag_102\n      jump\t// in\n    tag_133:\n      mload(0x40)\n      dup1\n      swap2\n      sub\n      swap1\n      revert\n    tag_132:\n        /* \"contracts/SyCrowBarter.sol\":1584:1617  ISyCrowBarterFactory isycrFactory */\n      0x00\n        /* \"contracts/SyCrowBarter.sol\":1641:1648  factory */\n      immutable(\"0x26a975632f70533c9512e57b565b8ce8e2befee6b08dfbc27c4a897a20e2c1d6\")\n        /* \"contracts/SyCrowBarter.sol\":1584:1649  ISyCrowBarterFactory isycrFactory = ISyCrowBarterFactory(factory) */\n      swap1\n      pop\n        /* \"contracts/SyCrowBarter.sol\":1668:1680  isycrFactory */\n      dup1\n        /* \"contracts/SyCrowBarter.sol\":1668:1689  isycrFactory.isPaused */\n      0xffffffffffffffffffffffffffffffffffffffff\n      and\n      0xb187bd26\n        /* \"contracts/SyCrowBarter.sol\":1668:1691  isycrFactory.isPaused() */\n      mload(0x40)\n      dup2\n      0xffffffff\n      and\n      0xe0\n      shl\n      dup2\n      mstore\n      0x04\n      add\n      0x20\n      mload(0x40)\n      dup1\n      dup4\n      sub\n      dup2\n      dup7\n      gas\n      staticcall\n      iszero\n      dup1\n      iszero\n      tag_136\n      jumpi\n      returndatasize\n      0x00\n      dup1\n      returndatacopy\n      revert(0x00, returndatasize)\n    tag_136:\n      pop\n      pop\n      pop\n      pop\n      mload(0x40)\n      returndatasize\n      not(0x1f)\n      0x1f\n      dup3\n      add\n      and\n      dup3\n      add\n      dup1\n      0x40\n      mstore\n      pop\n      dup2\n      add\n      swap1\n      tag_137\n      swap2\n      swap1\n      tag_107\n      jump\t// in\n    tag_137:\n        /* \"contracts/SyCrowBarter.sol\":1667:1691  !isycrFactory.isPaused() */\n      iszero\n        /* \"contracts/SyCrowBarter.sol\":1659:1730  require(!isycrFactory.isPaused(), \"SyCrowBarter: Base Contract Paused\") */\n      tag_138\n      jumpi\n      mload(0x40)\n      0x08c379a000000000000000000000000000000000000000000000000000000000\n      dup2\n      mstore\n      0x04\n      add\n      tag_139\n      swap1\n      tag_110\n      jump\t// in\n    tag_139:\n      mload(0x40)\n      dup1\n      swap2\n      sub\n      swap1\n      revert\n    tag_138:\n        /* \"contracts/SyCrowBarter.sol\":4101:4134  ISyCrowBarterType.TOKEN_FOR_TOKEN */\n      0x02\n        /* \"contracts/SyCrowBarter.sol\":1176:1186  barterType */\n      dup1\n      0x00\n      swap1\n      sload\n      swap1\n      0x0100\n      exp\n      swap1\n      div\n      0xff\n      and\n        /* \"contracts/SyCrowBarter.sol\":1161:1186  _barterType == barterType */\n      0x02\n      dup2\n      gt\n      iszero\n      tag_141\n      jumpi\n      tag_142\n      tag_114\n      jump\t// in\n    tag_142:\n    tag_141:\n        /* \"contracts/SyCrowBarter.sol\":1161:1172  _barterType */\n      dup2\n        /* \"contracts/SyCrowBarter.sol\":1161:1186  _barterType == barterType */\n      0x02\n      dup2\n      gt\n      iszero\n      tag_143\n      jumpi\n      tag_144\n      tag_114\n      jump\t// in\n    tag_144:\n    tag_143:\n      eq\n        /* \"contracts/SyCrowBarter.sol\":1153:1224  require(_barterType == barterType, \"SyCrowBarter: INVALID_BARTER_TYPE\") */\n      tag_145\n      jumpi\n      mload(0x40)\n      0x08c379a000000000000000000000000000000000000000000000000000000000\n      dup2\n      mstore\n      0x04\n      add\n      tag_146\n      swap1\n      tag_119\n      jump\t// in\n    tag_146:\n      mload(0x40)\n      dup1\n      swap2\n      sub\n      swap1\n      revert\n    tag_145:\n        /* \"contracts/SyCrowBarter.sol\":4154:4171  _allowMultiBarter */\n      0x08\n      0x00\n      swap1\n      sload\n      swap1\n      0x0100\n      exp\n      swap1\n      div\n      0xff\n      and\n        /* \"contracts/SyCrowBarter.sol\":4150:4278  if(!_allowMultiBarter){... */\n      tag_148\n      jumpi\n        /* \"contracts/SyCrowBarter.sol\":4206:4221  _expectedAmount */\n      sload(0x07)\n        /* \"contracts/SyCrowBarter.sol\":4194:4202  inAmount */\n      dup4\n        /* \"contracts/SyCrowBarter.sol\":4194:4221  inAmount >= _expectedAmount */\n      lt\n      iszero\n        /* \"contracts/SyCrowBarter.sol\":4186:4267  require(inAmount >= _expectedAmount, \"SyCrowBarter: AMOUNT_LOWER_THAN_REQURIRED\") */\n      tag_149\n      jumpi\n      mload(0x40)\n      0x08c379a000000000000000000000000000000000000000000000000000000000\n      dup2\n      mstore\n      0x04\n      add\n      tag_150\n      swap1\n      tag_124\n      jump\t// in\n    tag_150:\n      mload(0x40)\n      dup1\n      swap2\n      sub\n      swap1\n      revert\n    tag_149:\n        /* \"contracts/SyCrowBarter.sol\":4150:4278  if(!_allowMultiBarter){... */\n    tag_148:\n        /* \"contracts/SyCrowBarter.sol\":4287:4316  _tradeTokenForToken(inAmount) */\n      tag_151\n        /* \"contracts/SyCrowBarter.sol\":4307:4315  inAmount */\n      dup4\n        /* \"contracts/SyCrowBarter.sol\":4287:4306  _tradeTokenForToken */\n      tag_152\n        /* \"contracts/SyCrowBarter.sol\":4287:4316  _tradeTokenForToken(inAmount) */\n      jump\t// in\n    tag_151:\n        /* \"contracts/SyCrowBarter.sol\":1740:1741  _ */\n      pop\n        /* \"contracts/SyCrowBarter.sol\":1574:1748  {... */\n      pop\n        /* \"contracts/SyCrowBarter.sol\":3937:4323  function tradeTokenForToken(uint256 inAmount)... */\n      pop\n      jump\t// out\n        /* \"contracts/SyCrowBarter.sol\":508:540  bool public _initialized = false */\n    tag_32:\n      0x04\n      0x00\n      swap1\n      sload\n      swap1\n      0x0100\n      exp\n      swap1\n      div\n      0xff\n      and\n      dup2\n      jump\t// out\n        /* \"contracts/SyCrowBarter.sol\":8039:9756  function withdraw() external override checkInActive initialized onlyOwner {... */\n    tag_37:\n        /* \"contracts/SyCrowBarter.sol\":1316:1331  block.timestamp */\n      timestamp\n        /* \"contracts/SyCrowBarter.sol\":1304:1313  _deadline */\n      sload(0x03)\n        /* \"contracts/SyCrowBarter.sol\":1304:1331  _deadline < block.timestamp */\n      lt\n        /* \"contracts/SyCrowBarter.sol\":1304:1370  _deadline < block.timestamp || totalTradeAmount >= _expectedAmount */\n      dup1\n      tag_154\n      jumpi\n      pop\n        /* \"contracts/SyCrowBarter.sol\":1355:1370  _expectedAmount */\n      sload(0x07)\n        /* \"contracts/SyCrowBarter.sol\":1335:1351  totalTradeAmount */\n      sload(0x01)\n        /* \"contracts/SyCrowBarter.sol\":1335:1370  totalTradeAmount >= _expectedAmount */\n      lt\n      iszero\n        /* \"contracts/SyCrowBarter.sol\":1304:1370  _deadline < block.timestamp || totalTradeAmount >= _expectedAmount */\n    tag_154:\n        /* \"contracts/SyCrowBarter.sol\":1283:1416  require(... */\n      tag_155\n      jumpi\n      mload(0x40)\n      0x08c379a000000000000000000000000000000000000000000000000000000000\n      dup2\n      mstore\n      0x04\n      add\n      tag_156\n      swap1\n      tag_157\n      jump\t// in\n    tag_156:\n      mload(0x40)\n      dup1\n      swap2\n      sub\n      swap1\n      revert\n    tag_155:\n        /* \"contracts/SyCrowBarter.sol\":1481:1493  _initialized */\n      0x04\n      0x00\n      swap1\n      sload\n      swap1\n      0x0100\n      exp\n      swap1\n      div\n      0xff\n      and\n        /* \"contracts/SyCrowBarter.sol\":1473:1527  require(_initialized, \"SyCrowBarter: NOT_INITIALIZED\") */\n      tag_159\n      jumpi\n      mload(0x40)\n      0x08c379a000000000000000000000000000000000000000000000000000000000\n      dup2\n      mstore\n      0x04\n      add\n      tag_160\n      swap1\n      tag_102\n      jump\t// in\n    tag_160:\n      mload(0x40)\n      dup1\n      swap2\n      sub\n      swap1\n      revert\n    tag_159:\n        /* \"@openzeppelin/contracts/access/Ownable.sol\":1259:1271  _msgSender() */\n      tag_162\n        /* \"@openzeppelin/contracts/access/Ownable.sol\":1259:1269  _msgSender */\n      tag_163\n        /* \"@openzeppelin/contracts/access/Ownable.sol\":1259:1271  _msgSender() */\n      jump\t// in\n    tag_162:\n        /* \"@openzeppelin/contracts/access/Ownable.sol\":1248:1271  owner() == _msgSender() */\n      0xffffffffffffffffffffffffffffffffffffffff\n      and\n        /* \"@openzeppelin/contracts/access/Ownable.sol\":1248:1255  owner() */\n      tag_164\n        /* \"@openzeppelin/contracts/access/Ownable.sol\":1248:1253  owner */\n      tag_67\n        /* \"@openzeppelin/contracts/access/Ownable.sol\":1248:1255  owner() */\n      jump\t// in\n    tag_164:\n        /* \"@openzeppelin/contracts/access/Ownable.sol\":1248:1271  owner() == _msgSender() */\n      0xffffffffffffffffffffffffffffffffffffffff\n      and\n      eq\n        /* \"@openzeppelin/contracts/access/Ownable.sol\":1240:1308  require(owner() == _msgSender(), \"Ownable: caller is not the owner\") */\n      tag_165\n      jumpi\n      mload(0x40)\n      0x08c379a000000000000000000000000000000000000000000000000000000000\n      dup2\n      mstore\n      0x04\n      add\n      tag_166\n      swap1\n      tag_167\n      jump\t// in\n    tag_166:\n      mload(0x40)\n      dup1\n      swap2\n      sub\n      swap1\n      revert\n    tag_165:\n        /* \"contracts/SyCrowBarter.sol\":8123:8134  IWETH _weth */\n      0x00\n        /* \"contracts/SyCrowBarter.sol\":8143:8147  WETH */\n      0x02\n      0x01\n      swap1\n      sload\n      swap1\n      0x0100\n      exp\n      swap1\n      div\n      0xffffffffffffffffffffffffffffffffffffffff\n      and\n        /* \"contracts/SyCrowBarter.sol\":8123:8148  IWETH _weth = IWETH(WETH) */\n      swap1\n      pop\n        /* \"contracts/SyCrowBarter.sol\":8159:8177  uint256 ethBalance */\n      0x00\n        /* \"contracts/SyCrowBarter.sol\":8180:8185  _weth */\n      dup2\n        /* \"contracts/SyCrowBarter.sol\":8180:8195  _weth.balanceOf */\n      0xffffffffffffffffffffffffffffffffffffffff\n      and\n      0x70a08231\n        /* \"contracts/SyCrowBarter.sol\":8204:8208  this */\n      address\n        /* \"contracts/SyCrowBarter.sol\":8180:8210  _weth.balanceOf(address(this)) */\n      mload(0x40)\n      dup3\n      0xffffffff\n      and\n      0xe0\n      shl\n      dup2\n      mstore\n      0x04\n      add\n      tag_169\n      swap2\n      swap1\n      tag_69\n      jump\t// in\n    tag_169:\n      0x20\n      mload(0x40)\n      dup1\n      dup4\n      sub\n      dup2\n      dup7\n      gas\n      staticcall\n      iszero\n      dup1\n      iszero\n      tag_171\n      jumpi\n      returndatasize\n      0x00\n      dup1\n      returndatacopy\n      revert(0x00, returndatasize)\n    tag_171:\n      pop\n      pop\n      pop\n      pop\n      mload(0x40)\n      returndatasize\n      not(0x1f)\n      0x1f\n      dup3\n      add\n      and\n      dup3\n      add\n      dup1\n      0x40\n      mstore\n      pop\n      dup2\n      add\n      swap1\n      tag_172\n      swap2\n      swap1\n      tag_173\n      jump\t// in\n    tag_172:\n        /* \"contracts/SyCrowBarter.sol\":8159:8210  uint256 ethBalance = _weth.balanceOf(address(this)) */\n      swap1\n      pop\n        /* \"contracts/SyCrowBarter.sol\":8238:8239  0 */\n      0x00\n        /* \"contracts/SyCrowBarter.sol\":8225:8235  ethBalance */\n      dup2\n        /* \"contracts/SyCrowBarter.sol\":8225:8239  ethBalance > 0 */\n      gt\n        /* \"contracts/SyCrowBarter.sol\":8221:8366  if (ethBalance > 0) {... */\n      iszero\n      tag_174\n      jumpi\n        /* \"contracts/SyCrowBarter.sol\":8261:8265  WETH */\n      0x02\n      0x01\n      swap1\n      sload\n      swap1\n      0x0100\n      exp\n      swap1\n      div\n      0xffffffffffffffffffffffffffffffffffffffff\n      and\n        /* \"contracts/SyCrowBarter.sol\":8255:8275  IWETH(WETH).withdraw */\n      0xffffffffffffffffffffffffffffffffffffffff\n      and\n      0x2e1a7d4d\n        /* \"contracts/SyCrowBarter.sol\":8276:8286  ethBalance */\n      dup3\n        /* \"contracts/SyCrowBarter.sol\":8255:8287  IWETH(WETH).withdraw(ethBalance) */\n      mload(0x40)\n      dup3\n      0xffffffff\n      and\n      0xe0\n      shl\n      dup2\n      mstore\n      0x04\n      add\n      tag_175\n      swap2\n      swap1\n      tag_47\n      jump\t// in\n    tag_175:\n      0x00\n      mload(0x40)\n      dup1\n      dup4\n      sub\n      dup2\n      0x00\n      dup8\n      dup1\n      extcodesize\n      iszero\n      dup1\n      iszero\n      tag_176\n      jumpi\n      0x00\n      dup1\n      revert\n    tag_176:\n      pop\n      gas\n      call\n      iszero\n      dup1\n      iszero\n      tag_178\n      jumpi\n      returndatasize\n      0x00\n      dup1\n      returndatacopy\n      revert(0x00, returndatasize)\n    tag_178:\n      pop\n      pop\n      pop\n      pop\n        /* \"contracts/SyCrowBarter.sol\":8301:8355  TransferHelper.safeTransferETH(msg.sender, ethBalance) */\n      tag_179\n        /* \"contracts/SyCrowBarter.sol\":8332:8342  msg.sender */\n      caller\n        /* \"contracts/SyCrowBarter.sol\":8344:8354  ethBalance */\n      dup3\n        /* \"contracts/SyCrowBarter.sol\":8301:8331  TransferHelper.safeTransferETH */\n      tag_180\n        /* \"contracts/SyCrowBarter.sol\":8301:8355  TransferHelper.safeTransferETH(msg.sender, ethBalance) */\n      jump\t// in\n    tag_179:\n        /* \"contracts/SyCrowBarter.sol\":8221:8366  if (ethBalance > 0) {... */\n    tag_174:\n        /* \"contracts/SyCrowBarter.sol\":8376:8404  uint256 expectedTokenBalance */\n      0x00\n        /* \"contracts/SyCrowBarter.sol\":8414:8435  _expectedTokenAddress */\n      0x05\n      0x00\n      swap1\n      sload\n      swap1\n      0x0100\n      exp\n      swap1\n      div\n      0xffffffffffffffffffffffffffffffffffffffff\n      and\n        /* \"contracts/SyCrowBarter.sol\":8407:8446  IERC20(_expectedTokenAddress).balanceOf */\n      0xffffffffffffffffffffffffffffffffffffffff\n      and\n      0x70a08231\n        /* \"contracts/SyCrowBarter.sol\":8468:8472  this */\n      address\n        /* \"contracts/SyCrowBarter.sol\":8407:8483  IERC20(_expectedTokenAddress).balanceOf(... */\n      mload(0x40)\n      dup3\n      0xffffffff\n      and\n      0xe0\n      shl\n      dup2\n      mstore\n      0x04\n      add\n      tag_181\n      swap2\n      swap1\n      tag_69\n      jump\t// in\n    tag_181:\n      0x20\n      mload(0x40)\n      dup1\n      dup4\n      sub\n      dup2\n      dup7\n      gas\n      staticcall\n      iszero\n      dup1\n      iszero\n      tag_183\n      jumpi\n      returndatasize\n      0x00\n      dup1\n      returndatacopy\n      revert(0x00, returndatasize)\n    tag_183:\n      pop\n      pop\n      pop\n      pop\n      mload(0x40)\n      returndatasize\n      not(0x1f)\n      0x1f\n      dup3\n      add\n      and\n      dup3\n      add\n      dup1\n      0x40\n      mstore\n      pop\n      dup2\n      add\n      swap1\n      tag_184\n      swap2\n      swap1\n      tag_173\n      jump\t// in\n    tag_184:\n        /* \"contracts/SyCrowBarter.sol\":8376:8483  uint256 expectedTokenBalance = IERC20(_expectedTokenAddress).balanceOf(... */\n      swap1\n      pop\n        /* \"contracts/SyCrowBarter.sol\":8521:8522  0 */\n      0x00\n        /* \"contracts/SyCrowBarter.sol\":8498:8518  expectedTokenBalance */\n      dup2\n        /* \"contracts/SyCrowBarter.sol\":8498:8522  expectedTokenBalance > 0 */\n      gt\n        /* \"contracts/SyCrowBarter.sol\":8494:8695  if (expectedTokenBalance > 0) {... */\n      iszero\n      tag_185\n      jumpi\n        /* \"contracts/SyCrowBarter.sol\":8538:8684  TransferHelper.safeTransfer(... */\n      tag_186\n        /* \"contracts/SyCrowBarter.sol\":8583:8604  _expectedTokenAddress */\n      0x05\n      0x00\n      swap1\n      sload\n      swap1\n      0x0100\n      exp\n      swap1\n      div\n      0xffffffffffffffffffffffffffffffffffffffff\n      and\n        /* \"contracts/SyCrowBarter.sol\":8622:8632  msg.sender */\n      caller\n        /* \"contracts/SyCrowBarter.sol\":8650:8670  expectedTokenBalance */\n      dup4\n        /* \"contracts/SyCrowBarter.sol\":8538:8565  TransferHelper.safeTransfer */\n      tag_187\n        /* \"contracts/SyCrowBarter.sol\":8538:8684  TransferHelper.safeTransfer(... */\n      jump\t// in\n    tag_186:\n        /* \"contracts/SyCrowBarter.sol\":8494:8695  if (expectedTokenBalance > 0) {... */\n    tag_185:\n        /* \"contracts/SyCrowBarter.sol\":8705:8734  uint256 depositedTokenBalance */\n      0x00\n        /* \"contracts/SyCrowBarter.sol\":8744:8766  _depositedTokenAddress */\n      0x04\n      0x01\n      swap1\n      sload\n      swap1\n      0x0100\n      exp\n      swap1\n      div\n      0xffffffffffffffffffffffffffffffffffffffff\n      and\n        /* \"contracts/SyCrowBarter.sol\":8737:8790  IERC20(_depositedTokenAddress)... */\n      0xffffffffffffffffffffffffffffffffffffffff\n      and\n      0x70a08231\n        /* \"contracts/SyCrowBarter.sol\":8799:8803  this */\n      address\n        /* \"contracts/SyCrowBarter.sol\":8737:8805  IERC20(_depositedTokenAddress)... */\n      mload(0x40)\n      dup3\n      0xffffffff\n      and\n      0xe0\n      shl\n      dup2\n      mstore\n      0x04\n      add\n      tag_188\n      swap2\n      swap1\n      tag_69\n      jump\t// in\n    tag_188:\n      0x20\n      mload(0x40)\n      dup1\n      dup4\n      sub\n      dup2\n      dup7\n      gas\n      staticcall\n      iszero\n      dup1\n      iszero\n      tag_190\n      jumpi\n      returndatasize\n      0x00\n      dup1\n      returndatacopy\n      revert(0x00, returndatasize)\n    tag_190:\n      pop\n      pop\n      pop\n      pop\n      mload(0x40)\n      returndatasize\n      not(0x1f)\n      0x1f\n      dup3\n      add\n      and\n      dup3\n      add\n      dup1\n      0x40\n      mstore\n      pop\n      dup2\n      add\n      swap1\n      tag_191\n      swap2\n      swap1\n      tag_173\n      jump\t// in\n    tag_191:\n        /* \"contracts/SyCrowBarter.sol\":8705:8805  uint256 depositedTokenBalance = IERC20(_depositedTokenAddress)... */\n      swap1\n      pop\n        /* \"contracts/SyCrowBarter.sol\":8844:8845  0 */\n      0x00\n        /* \"contracts/SyCrowBarter.sol\":8820:8841  depositedTokenBalance */\n      dup2\n        /* \"contracts/SyCrowBarter.sol\":8820:8845  depositedTokenBalance > 0 */\n      gt\n        /* \"contracts/SyCrowBarter.sol\":8816:9020  if (depositedTokenBalance > 0) {... */\n      iszero\n      tag_192\n      jumpi\n        /* \"contracts/SyCrowBarter.sol\":8861:9009  TransferHelper.safeTransfer(... */\n      tag_193\n        /* \"contracts/SyCrowBarter.sol\":8906:8928  _depositedTokenAddress */\n      0x04\n      0x01\n      swap1\n      sload\n      swap1\n      0x0100\n      exp\n      swap1\n      div\n      0xffffffffffffffffffffffffffffffffffffffff\n      and\n        /* \"contracts/SyCrowBarter.sol\":8946:8956  msg.sender */\n      caller\n        /* \"contracts/SyCrowBarter.sol\":8974:8995  depositedTokenBalance */\n      dup4\n        /* \"contracts/SyCrowBarter.sol\":8861:8888  TransferHelper.safeTransfer */\n      tag_187\n        /* \"contracts/SyCrowBarter.sol\":8861:9009  TransferHelper.safeTransfer(... */\n      jump\t// in\n    tag_193:\n        /* \"contracts/SyCrowBarter.sol\":8816:9020  if (depositedTokenBalance > 0) {... */\n    tag_192:\n        /* \"contracts/SyCrowBarter.sol\":9029:9043  uint256 value1 */\n      0x00\n        /* \"contracts/SyCrowBarter.sol\":9057:9071  uint256 value2 */\n      dup1\n        /* \"contracts/SyCrowBarter.sol\":9104:9135  ISyCrowBarterType.ETH_FOR_TOKEN */\n      0x00\n        /* \"contracts/SyCrowBarter.sol\":9090:9135  barterType == ISyCrowBarterType.ETH_FOR_TOKEN */\n      0x02\n      dup2\n      gt\n      iszero\n      tag_194\n      jumpi\n      tag_195\n      tag_114\n      jump\t// in\n    tag_195:\n    tag_194:\n        /* \"contracts/SyCrowBarter.sol\":9090:9100  barterType */\n      0x02\n      0x00\n      swap1\n      sload\n      swap1\n      0x0100\n      exp\n      swap1\n      div\n      0xff\n      and\n        /* \"contracts/SyCrowBarter.sol\":9090:9135  barterType == ISyCrowBarterType.ETH_FOR_TOKEN */\n      0x02\n      dup2\n      gt\n      iszero\n      tag_196\n      jumpi\n      tag_197\n      tag_114\n      jump\t// in\n    tag_197:\n    tag_196:\n      sub\n        /* \"contracts/SyCrowBarter.sol\":9086:9475  if (barterType == ISyCrowBarterType.ETH_FOR_TOKEN) {... */\n      tag_198\n      jumpi\n        /* \"contracts/SyCrowBarter.sol\":9160:9170  ethBalance */\n      dup5\n        /* \"contracts/SyCrowBarter.sol\":9151:9170  value1 = ethBalance */\n      swap2\n      pop\n        /* \"contracts/SyCrowBarter.sol\":9193:9213  expectedTokenBalance */\n      dup4\n        /* \"contracts/SyCrowBarter.sol\":9184:9213  value2 = expectedTokenBalance */\n      swap1\n      pop\n        /* \"contracts/SyCrowBarter.sol\":9086:9475  if (barterType == ISyCrowBarterType.ETH_FOR_TOKEN) {... */\n      jump(tag_199)\n    tag_198:\n        /* \"contracts/SyCrowBarter.sol\":9248:9281  ISyCrowBarterType.TOKEN_FOR_TOKEN */\n      0x02\n        /* \"contracts/SyCrowBarter.sol\":9234:9281  barterType == ISyCrowBarterType.TOKEN_FOR_TOKEN */\n      dup1\n      dup2\n      gt\n      iszero\n      tag_200\n      jumpi\n      tag_201\n      tag_114\n      jump\t// in\n    tag_201:\n    tag_200:\n        /* \"contracts/SyCrowBarter.sol\":9234:9244  barterType */\n      0x02\n      0x00\n      swap1\n      sload\n      swap1\n      0x0100\n      exp\n      swap1\n      div\n      0xff\n      and\n        /* \"contracts/SyCrowBarter.sol\":9234:9281  barterType == ISyCrowBarterType.TOKEN_FOR_TOKEN */\n      0x02\n      dup2\n      gt\n      iszero\n      tag_202\n      jumpi\n      tag_203\n      tag_114\n      jump\t// in\n    tag_203:\n    tag_202:\n      sub\n        /* \"contracts/SyCrowBarter.sol\":9230:9475  if (barterType == ISyCrowBarterType.TOKEN_FOR_TOKEN) {... */\n      tag_204\n      jumpi\n        /* \"contracts/SyCrowBarter.sol\":9306:9327  depositedTokenBalance */\n      dup3\n        /* \"contracts/SyCrowBarter.sol\":9297:9327  value1 = depositedTokenBalance */\n      swap2\n      pop\n        /* \"contracts/SyCrowBarter.sol\":9350:9370  expectedTokenBalance */\n      dup4\n        /* \"contracts/SyCrowBarter.sol\":9341:9370  value2 = expectedTokenBalance */\n      swap1\n      pop\n        /* \"contracts/SyCrowBarter.sol\":9230:9475  if (barterType == ISyCrowBarterType.TOKEN_FOR_TOKEN) {... */\n      jump(tag_205)\n    tag_204:\n        /* \"contracts/SyCrowBarter.sol\":9410:9431  depositedTokenBalance */\n      dup3\n        /* \"contracts/SyCrowBarter.sol\":9401:9431  value1 = depositedTokenBalance */\n      swap2\n      pop\n        /* \"contracts/SyCrowBarter.sol\":9454:9464  ethBalance */\n      dup5\n        /* \"contracts/SyCrowBarter.sol\":9445:9464  value2 = ethBalance */\n      swap1\n      pop\n        /* \"contracts/SyCrowBarter.sol\":9230:9475  if (barterType == ISyCrowBarterType.TOKEN_FOR_TOKEN) {... */\n    tag_205:\n        /* \"contracts/SyCrowBarter.sol\":9086:9475  if (barterType == ISyCrowBarterType.ETH_FOR_TOKEN) {... */\n    tag_199:\n        /* \"contracts/SyCrowBarter.sol\":9485:9517  ISyCrowBarterFactory sycrFactory */\n      0x00\n        /* \"contracts/SyCrowBarter.sol\":9541:9548  factory */\n      immutable(\"0x26a975632f70533c9512e57b565b8ce8e2befee6b08dfbc27c4a897a20e2c1d6\")\n        /* \"contracts/SyCrowBarter.sol\":9485:9549  ISyCrowBarterFactory sycrFactory = ISyCrowBarterFactory(factory) */\n      swap1\n      pop\n        /* \"contracts/SyCrowBarter.sol\":9568:9579  sycrFactory */\n      dup1\n        /* \"contracts/SyCrowBarter.sol\":9568:9604  sycrFactory.notifyWithdrawFromBarter */\n      0xffffffffffffffffffffffffffffffffffffffff\n      and\n      0x33796a0e\n        /* \"contracts/SyCrowBarter.sol\":9626:9630  this */\n      address\n        /* \"contracts/SyCrowBarter.sol\":9645:9655  msg.sender */\n      caller\n        /* \"contracts/SyCrowBarter.sol\":9669:9675  value1 */\n      dup7\n        /* \"contracts/SyCrowBarter.sol\":9689:9695  value2 */\n      dup7\n        /* \"contracts/SyCrowBarter.sol\":9568:9705  sycrFactory.notifyWithdrawFromBarter(... */\n      mload(0x40)\n      dup6\n      0xffffffff\n      and\n      0xe0\n      shl\n      dup2\n      mstore\n      0x04\n      add\n      tag_206\n      swap5\n      swap4\n      swap3\n      swap2\n      swap1\n      tag_207\n      jump\t// in\n    tag_206:\n      0x00\n      mload(0x40)\n      dup1\n      dup4\n      sub\n      dup2\n      0x00\n      dup8\n      dup1\n      extcodesize\n      iszero\n      dup1\n      iszero\n      tag_208\n      jumpi\n      0x00\n      dup1\n      revert\n    tag_208:\n      pop\n      gas\n      call\n      iszero\n      dup1\n      iszero\n      tag_210\n      jumpi\n      returndatasize\n      0x00\n      dup1\n      returndatacopy\n      revert(0x00, returndatasize)\n    tag_210:\n      pop\n      pop\n      pop\n      pop\n        /* \"contracts/SyCrowBarter.sol\":9737:9747  msg.sender */\n      caller\n        /* \"contracts/SyCrowBarter.sol\":9716:9749  selfdestruct(payable(msg.sender)) */\n      0xffffffffffffffffffffffffffffffffffffffff\n      and\n      selfdestruct\n        /* \"contracts/SyCrowBarter.sol\":2848:3035  function getAmounts()... */\n    tag_40:\n        /* \"contracts/SyCrowBarter.sol\":2954:2961  uint256 */\n      0x00\n        /* \"contracts/SyCrowBarter.sol\":2963:2970  uint256 */\n      dup1\n        /* \"contracts/SyCrowBarter.sol\":1481:1493  _initialized */\n      0x04\n      0x00\n      swap1\n      sload\n      swap1\n      0x0100\n      exp\n      swap1\n      div\n      0xff\n      and\n        /* \"contracts/SyCrowBarter.sol\":1473:1527  require(_initialized, \"SyCrowBarter: NOT_INITIALIZED\") */\n      tag_212\n      jumpi\n      mload(0x40)\n      0x08c379a000000000000000000000000000000000000000000000000000000000\n      dup2\n      mstore\n      0x04\n      add\n      tag_213\n      swap1\n      tag_102\n      jump\t// in\n    tag_213:\n      mload(0x40)\n      dup1\n      swap2\n      sub\n      swap1\n      revert\n    tag_212:\n        /* \"contracts/SyCrowBarter.sol\":2994:3010  _depositedAmount */\n      sload(0x06)\n        /* \"contracts/SyCrowBarter.sol\":3012:3027  _expectedAmount */\n      sload(0x07)\n        /* \"contracts/SyCrowBarter.sol\":2986:3028  return (_depositedAmount, _expectedAmount) */\n      swap2\n      pop\n      swap2\n      pop\n        /* \"contracts/SyCrowBarter.sol\":2848:3035  function getAmounts()... */\n      swap1\n      swap2\n      jump\t// out\n        /* \"contracts/SyCrowBarter.sol\":370:401  uint256 public totalTradeAmount */\n    tag_45:\n      sload(0x01)\n      dup2\n      jump\t// out\n        /* \"contracts/SyCrowBarter.sol\":4715:5112  function tradeEthForToken(uint256 inAmount)... */\n    tag_50:\n        /* \"contracts/SyCrowBarter.sol\":962:977  block.timestamp */\n      timestamp\n        /* \"contracts/SyCrowBarter.sol\":949:958  _deadline */\n      sload(0x03)\n        /* \"contracts/SyCrowBarter.sol\":949:977  _deadline >= block.timestamp */\n      lt\n      iszero\n        /* \"contracts/SyCrowBarter.sol\":949:1015  _deadline >= block.timestamp && totalTradeAmount < _expectedAmount */\n      dup1\n      iszero\n      tag_216\n      jumpi\n      pop\n        /* \"contracts/SyCrowBarter.sol\":1000:1015  _expectedAmount */\n      sload(0x07)\n        /* \"contracts/SyCrowBarter.sol\":981:997  totalTradeAmount */\n      sload(0x01)\n        /* \"contracts/SyCrowBarter.sol\":981:1015  totalTradeAmount < _expectedAmount */\n      lt\n        /* \"contracts/SyCrowBarter.sol\":949:1015  _deadline >= block.timestamp && totalTradeAmount < _expectedAmount */\n    tag_216:\n        /* \"contracts/SyCrowBarter.sol\":928:1063  require(... */\n      tag_217\n      jumpi\n      mload(0x40)\n      0x08c379a000000000000000000000000000000000000000000000000000000000\n      dup2\n      mstore\n      0x04\n      add\n      tag_218\n      swap1\n      tag_98\n      jump\t// in\n    tag_218:\n      mload(0x40)\n      dup1\n      swap2\n      sub\n      swap1\n      revert\n    tag_217:\n        /* \"contracts/SyCrowBarter.sol\":1481:1493  _initialized */\n      0x04\n      0x00\n      swap1\n      sload\n      swap1\n      0x0100\n      exp\n      swap1\n      div\n      0xff\n      and\n        /* \"contracts/SyCrowBarter.sol\":1473:1527  require(_initialized, \"SyCrowBarter: NOT_INITIALIZED\") */\n      tag_220\n      jumpi\n      mload(0x40)\n      0x08c379a000000000000000000000000000000000000000000000000000000000\n      dup2\n      mstore\n      0x04\n      add\n      tag_221\n      swap1\n      tag_102\n      jump\t// in\n    tag_221:\n      mload(0x40)\n      dup1\n      swap2\n      sub\n      swap1\n      revert\n    tag_220:\n        /* \"contracts/SyCrowBarter.sol\":1584:1617  ISyCrowBarterFactory isycrFactory */\n      0x00\n        /* \"contracts/SyCrowBarter.sol\":1641:1648  factory */\n      immutable(\"0x26a975632f70533c9512e57b565b8ce8e2befee6b08dfbc27c4a897a20e2c1d6\")\n        /* \"contracts/SyCrowBarter.sol\":1584:1649  ISyCrowBarterFactory isycrFactory = ISyCrowBarterFactory(factory) */\n      swap1\n      pop\n        /* \"contracts/SyCrowBarter.sol\":1668:1680  isycrFactory */\n      dup1\n        /* \"contracts/SyCrowBarter.sol\":1668:1689  isycrFactory.isPaused */\n      0xffffffffffffffffffffffffffffffffffffffff\n      and\n      0xb187bd26\n        /* \"contracts/SyCrowBarter.sol\":1668:1691  isycrFactory.isPaused() */\n      mload(0x40)\n      dup2\n      0xffffffff\n      and\n      0xe0\n      shl\n      dup2\n      mstore\n      0x04\n      add\n      0x20\n      mload(0x40)\n      dup1\n      dup4\n      sub\n      dup2\n      dup7\n      gas\n      staticcall\n      iszero\n      dup1\n      iszero\n      tag_224\n      jumpi\n      returndatasize\n      0x00\n      dup1\n      returndatacopy\n      revert(0x00, returndatasize)\n    tag_224:\n      pop\n      pop\n      pop\n      pop\n      mload(0x40)\n      returndatasize\n      not(0x1f)\n      0x1f\n      dup3\n      add\n      and\n      dup3\n      add\n      dup1\n      0x40\n      mstore\n      pop\n      dup2\n      add\n      swap1\n      tag_225\n      swap2\n      swap1\n      tag_107\n      jump\t// in\n    tag_225:\n        /* \"contracts/SyCrowBarter.sol\":1667:1691  !isycrFactory.isPaused() */\n      iszero\n        /* \"contracts/SyCrowBarter.sol\":1659:1730  require(!isycrFactory.isPaused(), \"SyCrowBarter: Base Contract Paused\") */\n      tag_226\n      jumpi\n      mload(0x40)\n      0x08c379a000000000000000000000000000000000000000000000000000000000\n      dup2\n      mstore\n      0x04\n      add\n      tag_227\n      swap1\n      tag_110\n      jump\t// in\n    tag_227:\n      mload(0x40)\n      dup1\n      swap2\n      sub\n      swap1\n      revert\n    tag_226:\n        /* \"contracts/SyCrowBarter.sol\":4893:4924  ISyCrowBarterType.TOKEN_FOR_ETH */\n      0x01\n        /* \"contracts/SyCrowBarter.sol\":1176:1186  barterType */\n      0x02\n      0x00\n      swap1\n      sload\n      swap1\n      0x0100\n      exp\n      swap1\n      div\n      0xff\n      and\n        /* \"contracts/SyCrowBarter.sol\":1161:1186  _barterType == barterType */\n      0x02\n      dup2\n      gt\n      iszero\n      tag_229\n      jumpi\n      tag_230\n      tag_114\n      jump\t// in\n    tag_230:\n    tag_229:\n        /* \"contracts/SyCrowBarter.sol\":1161:1172  _barterType */\n      dup2\n        /* \"contracts/SyCrowBarter.sol\":1161:1186  _barterType == barterType */\n      0x02\n      dup2\n      gt\n      iszero\n      tag_231\n      jumpi\n      tag_232\n      tag_114\n      jump\t// in\n    tag_232:\n    tag_231:\n      eq\n        /* \"contracts/SyCrowBarter.sol\":1153:1224  require(_barterType == barterType, \"SyCrowBarter: INVALID_BARTER_TYPE\") */\n      tag_233\n      jumpi\n      mload(0x40)\n      0x08c379a000000000000000000000000000000000000000000000000000000000\n      dup2\n      mstore\n      0x04\n      add\n      tag_234\n      swap1\n      tag_119\n      jump\t// in\n    tag_234:\n      mload(0x40)\n      dup1\n      swap2\n      sub\n      swap1\n      revert\n    tag_233:\n        /* \"contracts/SyCrowBarter.sol\":4944:4961  _allowMultiBarter */\n      0x08\n      0x00\n      swap1\n      sload\n      swap1\n      0x0100\n      exp\n      swap1\n      div\n      0xff\n      and\n        /* \"contracts/SyCrowBarter.sol\":4940:5069  if(!_allowMultiBarter){... */\n      tag_236\n      jumpi\n        /* \"contracts/SyCrowBarter.sol\":4997:5012  _expectedAmount */\n      sload(0x07)\n        /* \"contracts/SyCrowBarter.sol\":4984:4993  msg.value */\n      callvalue\n        /* \"contracts/SyCrowBarter.sol\":4984:5012  msg.value >= _expectedAmount */\n      lt\n      iszero\n        /* \"contracts/SyCrowBarter.sol\":4976:5058  require(msg.value >= _expectedAmount, \"SyCrowBarter: AMOUNT_LOWER_THAN_REQURIRED\") */\n      tag_237\n      jumpi\n      mload(0x40)\n      0x08c379a000000000000000000000000000000000000000000000000000000000\n      dup2\n      mstore\n      0x04\n      add\n      tag_238\n      swap1\n      tag_124\n      jump\t// in\n    tag_238:\n      mload(0x40)\n      dup1\n      swap2\n      sub\n      swap1\n      revert\n    tag_237:\n        /* \"contracts/SyCrowBarter.sol\":4940:5069  if(!_allowMultiBarter){... */\n    tag_236:\n        /* \"contracts/SyCrowBarter.sol\":5078:5105  _tradeEthForToken(inAmount) */\n      tag_239\n        /* \"contracts/SyCrowBarter.sol\":5096:5104  inAmount */\n      dup4\n        /* \"contracts/SyCrowBarter.sol\":5078:5095  _tradeEthForToken */\n      tag_240\n        /* \"contracts/SyCrowBarter.sol\":5078:5105  _tradeEthForToken(inAmount) */\n      jump\t// in\n    tag_239:\n        /* \"contracts/SyCrowBarter.sol\":1740:1741  _ */\n      pop\n        /* \"contracts/SyCrowBarter.sol\":1574:1748  {... */\n      pop\n        /* \"contracts/SyCrowBarter.sol\":4715:5112  function tradeEthForToken(uint256 inAmount)... */\n      pop\n      jump\t// out\n        /* \"contracts/SyCrowBarter.sol\":1811:2842  function initialize(... */\n    tag_55:\n        /* \"contracts/SyCrowBarter.sol\":2090:2094  bool */\n      0x00\n        /* \"contracts/SyCrowBarter.sol\":2128:2135  factory */\n      immutable(\"0x26a975632f70533c9512e57b565b8ce8e2befee6b08dfbc27c4a897a20e2c1d6\")\n        /* \"contracts/SyCrowBarter.sol\":2114:2135  msg.sender == factory */\n      0xffffffffffffffffffffffffffffffffffffffff\n      and\n        /* \"contracts/SyCrowBarter.sol\":2114:2124  msg.sender */\n      caller\n        /* \"contracts/SyCrowBarter.sol\":2114:2135  msg.sender == factory */\n      0xffffffffffffffffffffffffffffffffffffffff\n      and\n      eq\n        /* \"contracts/SyCrowBarter.sol\":2106:2163  require(msg.sender == factory, \"SyCrowBarter: FORBIDDEN\") */\n      tag_242\n      jumpi\n      mload(0x40)\n      0x08c379a000000000000000000000000000000000000000000000000000000000\n      dup2\n      mstore\n      0x04\n      add\n      tag_243\n      swap1\n      tag_244\n      jump\t// in\n    tag_243:\n      mload(0x40)\n      dup1\n      swap2\n      sub\n      swap1\n      revert\n    tag_242:\n        /* \"contracts/SyCrowBarter.sol\":2183:2195  _initialized */\n      0x04\n      0x00\n      swap1\n      sload\n      swap1\n      0x0100\n      exp\n      swap1\n      div\n      0xff\n      and\n        /* \"contracts/SyCrowBarter.sol\":2182:2195  !_initialized */\n      iszero\n        /* \"contracts/SyCrowBarter.sol\":2174:2233  require(!_initialized, \"SyCrowBarter: ALREADY_INITIALIZED\") */\n      tag_245\n      jumpi\n      mload(0x40)\n      0x08c379a000000000000000000000000000000000000000000000000000000000\n      dup2\n      mstore\n      0x04\n      add\n      tag_246\n      swap1\n      tag_247\n      jump\t// in\n    tag_246:\n      mload(0x40)\n      dup1\n      swap2\n      sub\n      swap1\n      revert\n    tag_245:\n        /* \"contracts/SyCrowBarter.sol\":2262:2277  block.timestamp */\n      timestamp\n        /* \"contracts/SyCrowBarter.sol\":2251:2259  deadline */\n      dup5\n        /* \"contracts/SyCrowBarter.sol\":2251:2277  deadline < block.timestamp */\n      lt\n        /* \"contracts/SyCrowBarter.sol\":2243:2309  require(deadline < block.timestamp, \"SyCrowBarter: PAST_DEADLINE\") */\n      tag_248\n      jumpi\n      mload(0x40)\n      0x08c379a000000000000000000000000000000000000000000000000000000000\n      dup2\n      mstore\n      0x04\n      add\n      tag_249\n      swap1\n      tag_250\n      jump\t// in\n    tag_249:\n      mload(0x40)\n      dup1\n      swap2\n      sub\n      swap1\n      revert\n    tag_248:\n        /* \"contracts/SyCrowBarter.sol\":2385:2400  amountDeposited */\n      dup6\n        /* \"contracts/SyCrowBarter.sol\":2348:2355  inToken */\n      dup9\n        /* \"contracts/SyCrowBarter.sol\":2341:2366  IERC20(inToken).balanceOf */\n      0xffffffffffffffffffffffffffffffffffffffff\n      and\n      0x70a08231\n        /* \"contracts/SyCrowBarter.sol\":2375:2379  this */\n      address\n        /* \"contracts/SyCrowBarter.sol\":2341:2381  IERC20(inToken).balanceOf(address(this)) */\n      mload(0x40)\n      dup3\n      0xffffffff\n      and\n      0xe0\n      shl\n      dup2\n      mstore\n      0x04\n      add\n      tag_251\n      swap2\n      swap1\n      tag_69\n      jump\t// in\n    tag_251:\n      0x20\n      mload(0x40)\n      dup1\n      dup4\n      sub\n      dup2\n      dup7\n      gas\n      staticcall\n      iszero\n      dup1\n      iszero\n      tag_253\n      jumpi\n      returndatasize\n      0x00\n      dup1\n      returndatacopy\n      revert(0x00, returndatasize)\n    tag_253:\n      pop\n      pop\n      pop\n      pop\n      mload(0x40)\n      returndatasize\n      not(0x1f)\n      0x1f\n      dup3\n      add\n      and\n      dup3\n      add\n      dup1\n      0x40\n      mstore\n      pop\n      dup2\n      add\n      swap1\n      tag_254\n      swap2\n      swap1\n      tag_173\n      jump\t// in\n    tag_254:\n        /* \"contracts/SyCrowBarter.sol\":2341:2400  IERC20(inToken).balanceOf(address(this)) >= amountDeposited */\n      lt\n      iszero\n        /* \"contracts/SyCrowBarter.sol\":2320:2460  require(... */\n      tag_255\n      jumpi\n      mload(0x40)\n      0x08c379a000000000000000000000000000000000000000000000000000000000\n      dup2\n      mstore\n      0x04\n      add\n      tag_256\n      swap1\n      tag_257\n      jump\t// in\n    tag_256:\n      mload(0x40)\n      dup1\n      swap2\n      sub\n      swap1\n      revert\n    tag_255:\n        /* \"contracts/SyCrowBarter.sol\":2483:2491  deadline */\n      dup4\n        /* \"contracts/SyCrowBarter.sol\":2471:2480  _deadline */\n      0x03\n        /* \"contracts/SyCrowBarter.sol\":2471:2491  _deadline = deadline */\n      dup2\n      swap1\n      sstore\n      pop\n        /* \"contracts/SyCrowBarter.sol\":2527:2534  inToken */\n      dup8\n        /* \"contracts/SyCrowBarter.sol\":2502:2524  _depositedTokenAddress */\n      0x04\n      0x01\n        /* \"contracts/SyCrowBarter.sol\":2502:2534  _depositedTokenAddress = inToken */\n      0x0100\n      exp\n      dup2\n      sload\n      dup2\n      0xffffffffffffffffffffffffffffffffffffffff\n      mul\n      not\n      and\n      swap1\n      dup4\n      0xffffffffffffffffffffffffffffffffffffffff\n      and\n      mul\n      or\n      swap1\n      sstore\n      pop\n        /* \"contracts/SyCrowBarter.sol\":2568:2576  outToken */\n      dup7\n        /* \"contracts/SyCrowBarter.sol\":2544:2565  _expectedTokenAddress */\n      0x05\n      0x00\n        /* \"contracts/SyCrowBarter.sol\":2544:2576  _expectedTokenAddress = outToken */\n      0x0100\n      exp\n      dup2\n      sload\n      dup2\n      0xffffffffffffffffffffffffffffffffffffffff\n      mul\n      not\n      and\n      swap1\n      dup4\n      0xffffffffffffffffffffffffffffffffffffffff\n      and\n      mul\n      or\n      swap1\n      sstore\n      pop\n        /* \"contracts/SyCrowBarter.sol\":2606:2621  amountDeposited */\n      dup6\n        /* \"contracts/SyCrowBarter.sol\":2587:2603  _depositedAmount */\n      0x06\n        /* \"contracts/SyCrowBarter.sol\":2587:2621  _depositedAmount = amountDeposited */\n      dup2\n      swap1\n      sstore\n      pop\n        /* \"contracts/SyCrowBarter.sol\":2649:2663  amountExpected */\n      dup5\n        /* \"contracts/SyCrowBarter.sol\":2631:2646  _expectedAmount */\n      0x07\n        /* \"contracts/SyCrowBarter.sol\":2631:2663  _expectedAmount = amountExpected */\n      dup2\n      swap1\n      sstore\n      pop\n        /* \"contracts/SyCrowBarter.sol\":2687:2698  _barterType */\n      dup9\n        /* \"contracts/SyCrowBarter.sol\":2674:2684  barterType */\n      0x02\n      0x00\n        /* \"contracts/SyCrowBarter.sol\":2674:2698  barterType = _barterType */\n      0x0100\n      exp\n      dup2\n      sload\n      dup2\n      0xff\n      mul\n      not\n      and\n      swap1\n      dup4\n      0x02\n      dup2\n      gt\n      iszero\n      tag_258\n      jumpi\n      tag_259\n      tag_114\n      jump\t// in\n    tag_259:\n    tag_258:\n      mul\n      or\n      swap1\n      sstore\n      pop\n        /* \"contracts/SyCrowBarter.sol\":2729:2745  allowMultiBarter */\n      dup3\n        /* \"contracts/SyCrowBarter.sol\":2709:2726  _allowMultiBarter */\n      0x08\n      0x00\n        /* \"contracts/SyCrowBarter.sol\":2709:2745  _allowMultiBarter = allowMultiBarter */\n      0x0100\n      exp\n      dup2\n      sload\n      dup2\n      0xff\n      mul\n      not\n      and\n      swap1\n      dup4\n      iszero\n      iszero\n      mul\n      or\n      swap1\n      sstore\n      pop\n        /* \"contracts/SyCrowBarter.sol\":2771:2776  _WETH */\n      dup2\n        /* \"contracts/SyCrowBarter.sol\":2764:2768  WETH */\n      0x02\n      0x01\n        /* \"contracts/SyCrowBarter.sol\":2764:2776  WETH = _WETH */\n      0x0100\n      exp\n      dup2\n      sload\n      dup2\n      0xffffffffffffffffffffffffffffffffffffffff\n      mul\n      not\n      and\n      swap1\n      dup4\n      0xffffffffffffffffffffffffffffffffffffffff\n      and\n      mul\n      or\n      swap1\n      sstore\n      pop\n        /* \"contracts/SyCrowBarter.sol\":2801:2805  true */\n      0x01\n        /* \"contracts/SyCrowBarter.sol\":2786:2798  _initialized */\n      0x04\n      0x00\n        /* \"contracts/SyCrowBarter.sol\":2786:2805  _initialized = true */\n      0x0100\n      exp\n      dup2\n      sload\n      dup2\n      0xff\n      mul\n      not\n      and\n      swap1\n      dup4\n      iszero\n      iszero\n      mul\n      or\n      swap1\n      sstore\n      pop\n        /* \"contracts/SyCrowBarter.sol\":2823:2835  _initialized */\n      0x04\n      0x00\n      swap1\n      sload\n      swap1\n      0x0100\n      exp\n      swap1\n      div\n      0xff\n      and\n        /* \"contracts/SyCrowBarter.sol\":2816:2835  return _initialized */\n      swap1\n      pop\n        /* \"contracts/SyCrowBarter.sol\":1811:2842  function initialize(... */\n      swap9\n      swap8\n      pop\n      pop\n      pop\n      pop\n      pop\n      pop\n      pop\n      pop\n      jump\t// out\n        /* \"@openzeppelin/contracts/access/Ownable.sol\":1668:1769  function renounceOwnership() public virtual onlyOwner {... */\n    tag_59:\n        /* \"@openzeppelin/contracts/access/Ownable.sol\":1259:1271  _msgSender() */\n      tag_261\n        /* \"@openzeppelin/contracts/access/Ownable.sol\":1259:1269  _msgSender */\n      tag_163\n        /* \"@openzeppelin/contracts/access/Ownable.sol\":1259:1271  _msgSender() */\n      jump\t// in\n    tag_261:\n        /* \"@openzeppelin/contracts/access/Ownable.sol\":1248:1271  owner() == _msgSender() */\n      0xffffffffffffffffffffffffffffffffffffffff\n      and\n        /* \"@openzeppelin/contracts/access/Ownable.sol\":1248:1255  owner() */\n      tag_262\n        /* \"@openzeppelin/contracts/access/Ownable.sol\":1248:1253  owner */\n      tag_67\n        /* \"@openzeppelin/contracts/access/Ownable.sol\":1248:1255  owner() */\n      jump\t// in\n    tag_262:\n        /* \"@openzeppelin/contracts/access/Ownable.sol\":1248:1271  owner() == _msgSender() */\n      0xffffffffffffffffffffffffffffffffffffffff\n      and\n      eq\n        /* \"@openzeppelin/contracts/access/Ownable.sol\":1240:1308  require(owner() == _msgSender(), \"Ownable: caller is not the owner\") */\n      tag_263\n      jumpi\n      mload(0x40)\n      0x08c379a000000000000000000000000000000000000000000000000000000000\n      dup2\n      mstore\n      0x04\n      add\n      tag_264\n      swap1\n      tag_167\n      jump\t// in\n    tag_264:\n      mload(0x40)\n      dup1\n      swap2\n      sub\n      swap1\n      revert\n    tag_263:\n        /* \"@openzeppelin/contracts/access/Ownable.sol\":1732:1762  _transferOwnership(address(0)) */\n      tag_266\n        /* \"@openzeppelin/contracts/access/Ownable.sol\":1759:1760  0 */\n      0x00\n        /* \"@openzeppelin/contracts/access/Ownable.sol\":1732:1750  _transferOwnership */\n      tag_267\n        /* \"@openzeppelin/contracts/access/Ownable.sol\":1732:1762  _transferOwnership(address(0)) */\n      jump\t// in\n    tag_266:\n        /* \"@openzeppelin/contracts/access/Ownable.sol\":1668:1769  function renounceOwnership() public virtual onlyOwner {... */\n      jump\t// out\n        /* \"contracts/SyCrowBarter.sol\":407:442  ISyCrowBarterType public barterType */\n    tag_62:\n      0x02\n      0x00\n      swap1\n      sload\n      swap1\n      0x0100\n      exp\n      swap1\n      div\n      0xff\n      and\n      dup2\n      jump\t// out\n        /* \"@openzeppelin/contracts/access/Ownable.sol\":1036:1121  function owner() public view virtual returns (address) {... */\n    tag_67:\n        /* \"@openzeppelin/contracts/access/Ownable.sol\":1082:1089  address */\n      0x00\n        /* \"@openzeppelin/contracts/access/Ownable.sol\":1108:1114  _owner */\n      dup1\n      0x00\n      swap1\n      sload\n      swap1\n      0x0100\n      exp\n      swap1\n      div\n      0xffffffffffffffffffffffffffffffffffffffff\n      and\n        /* \"@openzeppelin/contracts/access/Ownable.sol\":1101:1114  return _owner */\n      swap1\n      pop\n        /* \"@openzeppelin/contracts/access/Ownable.sol\":1036:1121  function owner() public view virtual returns (address) {... */\n      swap1\n      jump\t// out\n        /* \"contracts/SyCrowBarter.sol\":3041:3239  function getTokens()... */\n    tag_72:\n        /* \"contracts/SyCrowBarter.sol\":3146:3153  address */\n      0x00\n        /* \"contracts/SyCrowBarter.sol\":3155:3162  address */\n      dup1\n        /* \"contracts/SyCrowBarter.sol\":1481:1493  _initialized */\n      0x04\n      0x00\n      swap1\n      sload\n      swap1\n      0x0100\n      exp\n      swap1\n      div\n      0xff\n      and\n        /* \"contracts/SyCrowBarter.sol\":1473:1527  require(_initialized, \"SyCrowBarter: NOT_INITIALIZED\") */\n      tag_270\n      jumpi\n      mload(0x40)\n      0x08c379a000000000000000000000000000000000000000000000000000000000\n      dup2\n      mstore\n      0x04\n      add\n      tag_271\n      swap1\n      tag_102\n      jump\t// in\n    tag_271:\n      mload(0x40)\n      dup1\n      swap2\n      sub\n      swap1\n      revert\n    tag_270:\n        /* \"contracts/SyCrowBarter.sol\":3186:3208  _depositedTokenAddress */\n      0x04\n      0x01\n      swap1\n      sload\n      swap1\n      0x0100\n      exp\n      swap1\n      div\n      0xffffffffffffffffffffffffffffffffffffffff\n      and\n        /* \"contracts/SyCrowBarter.sol\":3210:3231  _expectedTokenAddress */\n      0x05\n      0x00\n      swap1\n      sload\n      swap1\n      0x0100\n      exp\n      swap1\n      div\n      0xffffffffffffffffffffffffffffffffffffffff\n      and\n        /* \"contracts/SyCrowBarter.sol\":3178:3232  return (_depositedTokenAddress, _expectedTokenAddress) */\n      swap2\n      pop\n      swap2\n      pop\n        /* \"contracts/SyCrowBarter.sol\":3041:3239  function getTokens()... */\n      swap1\n      swap2\n      jump\t// out\n        /* \"contracts/SyCrowBarter.sol\":323:364  address public immutable override factory */\n    tag_77:\n      immutable(\"0x26a975632f70533c9512e57b565b8ce8e2befee6b08dfbc27c4a897a20e2c1d6\")\n      dup2\n      jump\t// out\n        /* \"contracts/SyCrowBarter.sol\":9762:9932  function getTradeOutAmount(uint256 amount)... */\n    tag_82:\n        /* \"contracts/SyCrowBarter.sol\":9850:9857  uint256 */\n      0x00\n        /* \"contracts/SyCrowBarter.sol\":9910:9925  _expectedAmount */\n      sload(0x07)\n        /* \"contracts/SyCrowBarter.sol\":9890:9906  _depositedAmount */\n      sload(0x06)\n        /* \"contracts/SyCrowBarter.sol\":9881:9887  amount */\n      dup4\n        /* \"contracts/SyCrowBarter.sol\":9881:9906  amount * _depositedAmount */\n      tag_274\n      swap2\n      swap1\n      tag_275\n      jump\t// in\n    tag_274:\n        /* \"contracts/SyCrowBarter.sol\":9880:9925  (amount * _depositedAmount) / _expectedAmount */\n      tag_276\n      swap2\n      swap1\n      tag_277\n      jump\t// in\n    tag_276:\n        /* \"contracts/SyCrowBarter.sol\":9873:9925  return (amount * _depositedAmount) / _expectedAmount */\n      swap1\n      pop\n        /* \"contracts/SyCrowBarter.sol\":9762:9932  function getTradeOutAmount(uint256 amount)... */\n      swap2\n      swap1\n      pop\n      jump\t// out\n        /* \"contracts/SyCrowBarter.sol\":3245:3931  function getTrades()... */\n    tag_86:\n        /* \"contracts/SyCrowBarter.sol\":3363:3379  address[] memory */\n      0x60\n        /* \"contracts/SyCrowBarter.sol\":3393:3409  uint256[] memory */\n      dup1\n        /* \"contracts/SyCrowBarter.sol\":3423:3439  uint256[] memory */\n      0x60\n        /* \"contracts/SyCrowBarter.sol\":1481:1493  _initialized */\n      0x04\n      0x00\n      swap1\n      sload\n      swap1\n      0x0100\n      exp\n      swap1\n      div\n      0xff\n      and\n        /* \"contracts/SyCrowBarter.sol\":1473:1527  require(_initialized, \"SyCrowBarter: NOT_INITIALIZED\") */\n      tag_279\n      jumpi\n      mload(0x40)\n      0x08c379a000000000000000000000000000000000000000000000000000000000\n      dup2\n      mstore\n      0x04\n      add\n      tag_280\n      swap1\n      tag_102\n      jump\t// in\n    tag_280:\n      mload(0x40)\n      dup1\n      swap2\n      sub\n      swap1\n      revert\n    tag_279:\n        /* \"contracts/SyCrowBarter.sol\":3464:3490  address[] memory addresses */\n      0x00\n        /* \"contracts/SyCrowBarter.sol\":3507:3514  _trades */\n      0x09\n        /* \"contracts/SyCrowBarter.sol\":3507:3521  _trades.length */\n      dup1\n      sload\n      swap1\n      pop\n        /* \"contracts/SyCrowBarter.sol\":3493:3522  new address[](_trades.length) */\n      0xffffffffffffffff\n      dup2\n      gt\n      iszero\n      tag_282\n      jumpi\n      tag_283\n      tag_284\n      jump\t// in\n    tag_283:\n    tag_282:\n      mload(0x40)\n      swap1\n      dup1\n      dup3\n      mstore\n      dup1\n      0x20\n      mul\n      0x20\n      add\n      dup3\n      add\n      0x40\n      mstore\n      dup1\n      iszero\n      tag_285\n      jumpi\n      dup2\n      0x20\n      add\n      0x20\n      dup3\n      mul\n      dup1\n      calldatasize\n      dup4\n      calldatacopy\n      dup1\n      dup3\n      add\n      swap2\n      pop\n      pop\n      swap1\n      pop\n    tag_285:\n      pop\n        /* \"contracts/SyCrowBarter.sol\":3464:3522  address[] memory addresses = new address[](_trades.length) */\n      swap1\n      pop\n        /* \"contracts/SyCrowBarter.sol\":3532:3558  uint256[] memory amountsIn */\n      0x00\n        /* \"contracts/SyCrowBarter.sol\":3575:3582  _trades */\n      0x09\n        /* \"contracts/SyCrowBarter.sol\":3575:3589  _trades.length */\n      dup1\n      sload\n      swap1\n      pop\n        /* \"contracts/SyCrowBarter.sol\":3561:3590  new uint256[](_trades.length) */\n      0xffffffffffffffff\n      dup2\n      gt\n      iszero\n      tag_286\n      jumpi\n      tag_287\n      tag_284\n      jump\t// in\n    tag_287:\n    tag_286:\n      mload(0x40)\n      swap1\n      dup1\n      dup3\n      mstore\n      dup1\n      0x20\n      mul\n      0x20\n      add\n      dup3\n      add\n      0x40\n      mstore\n      dup1\n      iszero\n      tag_288\n      jumpi\n      dup2\n      0x20\n      add\n      0x20\n      dup3\n      mul\n      dup1\n      calldatasize\n      dup4\n      calldatacopy\n      dup1\n      dup3\n      add\n      swap2\n      pop\n      pop\n      swap1\n      pop\n    tag_288:\n      pop\n        /* \"contracts/SyCrowBarter.sol\":3532:3590  uint256[] memory amountsIn = new uint256[](_trades.length) */\n      swap1\n      pop\n        /* \"contracts/SyCrowBarter.sol\":3600:3627  uint256[] memory amountsOut */\n      0x00\n        /* \"contracts/SyCrowBarter.sol\":3644:3651  _trades */\n      0x09\n        /* \"contracts/SyCrowBarter.sol\":3644:3658  _trades.length */\n      dup1\n      sload\n      swap1\n      pop\n        /* \"contracts/SyCrowBarter.sol\":3630:3659  new uint256[](_trades.length) */\n      0xffffffffffffffff\n      dup2\n      gt\n      iszero\n      tag_289\n      jumpi\n      tag_290\n      tag_284\n      jump\t// in\n    tag_290:\n    tag_289:\n      mload(0x40)\n      swap1\n      dup1\n      dup3\n      mstore\n      dup1\n      0x20\n      mul\n      0x20\n      add\n      dup3\n      add\n      0x40\n      mstore\n      dup1\n      iszero\n      tag_291\n      jumpi\n      dup2\n      0x20\n      add\n      0x20\n      dup3\n      mul\n      dup1\n      calldatasize\n      dup4\n      calldatacopy\n      dup1\n      dup3\n      add\n      swap2\n      pop\n      pop\n      swap1\n      pop\n    tag_291:\n      pop\n        /* \"contracts/SyCrowBarter.sol\":3600:3659  uint256[] memory amountsOut = new uint256[](_trades.length) */\n      swap1\n      pop\n        /* \"contracts/SyCrowBarter.sol\":3675:3684  uint256 i */\n      0x00\n        /* \"contracts/SyCrowBarter.sol\":3670:3873  for (uint256 i = 0; i < _trades.length; i++) {... */\n    tag_292:\n        /* \"contracts/SyCrowBarter.sol\":3694:3701  _trades */\n      0x09\n        /* \"contracts/SyCrowBarter.sol\":3694:3708  _trades.length */\n      dup1\n      sload\n      swap1\n      pop\n        /* \"contracts/SyCrowBarter.sol\":3690:3691  i */\n      dup2\n        /* \"contracts/SyCrowBarter.sol\":3690:3708  i < _trades.length */\n      lt\n        /* \"contracts/SyCrowBarter.sol\":3670:3873  for (uint256 i = 0; i < _trades.length; i++) {... */\n      iszero\n      tag_293\n      jumpi\n        /* \"contracts/SyCrowBarter.sol\":3744:3751  _trades */\n      0x09\n        /* \"contracts/SyCrowBarter.sol\":3752:3753  i */\n      dup2\n        /* \"contracts/SyCrowBarter.sol\":3744:3754  _trades[i] */\n      dup2\n      sload\n      dup2\n      lt\n      tag_295\n      jumpi\n      tag_296\n      tag_297\n      jump\t// in\n    tag_296:\n    tag_295:\n      swap1\n      0x00\n      mstore\n      keccak256(0x00, 0x20)\n      swap1\n      0x03\n      mul\n      add\n        /* \"contracts/SyCrowBarter.sol\":3744:3762  _trades[i]._trader */\n      0x00\n      add\n      0x00\n      swap1\n      sload\n      swap1\n      0x0100\n      exp\n      swap1\n      div\n      0xffffffffffffffffffffffffffffffffffffffff\n      and\n        /* \"contracts/SyCrowBarter.sol\":3729:3738  addresses */\n      dup5\n        /* \"contracts/SyCrowBarter.sol\":3739:3740  i */\n      dup3\n        /* \"contracts/SyCrowBarter.sol\":3729:3741  addresses[i] */\n      dup2\n      mload\n      dup2\n      lt\n      tag_299\n      jumpi\n      tag_300\n      tag_297\n      jump\t// in\n    tag_300:\n    tag_299:\n      0x20\n      mul\n      0x20\n      add\n      add\n        /* \"contracts/SyCrowBarter.sol\":3729:3762  addresses[i] = _trades[i]._trader */\n      swap1\n      0xffffffffffffffffffffffffffffffffffffffff\n      and\n      swap1\n      dup2\n      0xffffffffffffffffffffffffffffffffffffffff\n      and\n      dup2\n      mstore\n      pop\n      pop\n        /* \"contracts/SyCrowBarter.sol\":3791:3798  _trades */\n      0x09\n        /* \"contracts/SyCrowBarter.sol\":3799:3800  i */\n      dup2\n        /* \"contracts/SyCrowBarter.sol\":3791:3801  _trades[i] */\n      dup2\n      sload\n      dup2\n      lt\n      tag_301\n      jumpi\n      tag_302\n      tag_297\n      jump\t// in\n    tag_302:\n    tag_301:\n      swap1\n      0x00\n      mstore\n      keccak256(0x00, 0x20)\n      swap1\n      0x03\n      mul\n      add\n        /* \"contracts/SyCrowBarter.sol\":3791:3811  _trades[i]._amountIn */\n      0x01\n      add\n      sload\n        /* \"contracts/SyCrowBarter.sol\":3776:3785  amountsIn */\n      dup4\n        /* \"contracts/SyCrowBarter.sol\":3786:3787  i */\n      dup3\n        /* \"contracts/SyCrowBarter.sol\":3776:3788  amountsIn[i] */\n      dup2\n      mload\n      dup2\n      lt\n      tag_304\n      jumpi\n      tag_305\n      tag_297\n      jump\t// in\n    tag_305:\n    tag_304:\n      0x20\n      mul\n      0x20\n      add\n      add\n        /* \"contracts/SyCrowBarter.sol\":3776:3811  amountsIn[i] = _trades[i]._amountIn */\n      dup2\n      dup2\n      mstore\n      pop\n      pop\n        /* \"contracts/SyCrowBarter.sol\":3841:3848  _trades */\n      0x09\n        /* \"contracts/SyCrowBarter.sol\":3849:3850  i */\n      dup2\n        /* \"contracts/SyCrowBarter.sol\":3841:3851  _trades[i] */\n      dup2\n      sload\n      dup2\n      lt\n      tag_306\n      jumpi\n      tag_307\n      tag_297\n      jump\t// in\n    tag_307:\n    tag_306:\n      swap1\n      0x00\n      mstore\n      keccak256(0x00, 0x20)\n      swap1\n      0x03\n      mul\n      add\n        /* \"contracts/SyCrowBarter.sol\":3841:3862  _trades[i]._amountOut */\n      0x02\n      add\n      sload\n        /* \"contracts/SyCrowBarter.sol\":3825:3835  amountsOut */\n      dup3\n        /* \"contracts/SyCrowBarter.sol\":3836:3837  i */\n      dup3\n        /* \"contracts/SyCrowBarter.sol\":3825:3838  amountsOut[i] */\n      dup2\n      mload\n      dup2\n      lt\n      tag_309\n      jumpi\n      tag_310\n      tag_297\n      jump\t// in\n    tag_310:\n    tag_309:\n      0x20\n      mul\n      0x20\n      add\n      add\n        /* \"contracts/SyCrowBarter.sol\":3825:3862  amountsOut[i] = _trades[i]._amountOut */\n      dup2\n      dup2\n      mstore\n      pop\n      pop\n        /* \"contracts/SyCrowBarter.sol\":3710:3713  i++ */\n      dup1\n      dup1\n      tag_311\n      swap1\n      tag_312\n      jump\t// in\n    tag_311:\n      swap2\n      pop\n      pop\n        /* \"contracts/SyCrowBarter.sol\":3670:3873  for (uint256 i = 0; i < _trades.length; i++) {... */\n      jump(tag_292)\n    tag_293:\n      pop\n        /* \"contracts/SyCrowBarter.sol\":3891:3900  addresses */\n      dup3\n        /* \"contracts/SyCrowBarter.sol\":3902:3911  amountsIn */\n      dup3\n        /* \"contracts/SyCrowBarter.sol\":3913:3923  amountsOut */\n      dup3\n        /* \"contracts/SyCrowBarter.sol\":3883:3924  return (addresses, amountsIn, amountsOut) */\n      swap6\n      pop\n      swap6\n      pop\n      swap6\n      pop\n      pop\n      pop\n      pop\n        /* \"contracts/SyCrowBarter.sol\":3245:3931  function getTrades()... */\n      swap1\n      swap2\n      swap3\n      jump\t// out\n        /* \"@openzeppelin/contracts/access/Ownable.sol\":1918:2116  function transferOwnership(address newOwner) public virtual onlyOwner {... */\n    tag_93:\n        /* \"@openzeppelin/contracts/access/Ownable.sol\":1259:1271  _msgSender() */\n      tag_314\n        /* \"@openzeppelin/contracts/access/Ownable.sol\":1259:1269  _msgSender */\n      tag_163\n        /* \"@openzeppelin/contracts/access/Ownable.sol\":1259:1271  _msgSender() */\n      jump\t// in\n    tag_314:\n        /* \"@openzeppelin/contracts/access/Ownable.sol\":1248:1271  owner() == _msgSender() */\n      0xffffffffffffffffffffffffffffffffffffffff\n      and\n        /* \"@openzeppelin/contracts/access/Ownable.sol\":1248:1255  owner() */\n      tag_315\n        /* \"@openzeppelin/contracts/access/Ownable.sol\":1248:1253  owner */\n      tag_67\n        /* \"@openzeppelin/contracts/access/Ownable.sol\":1248:1255  owner() */\n      jump\t// in\n    tag_315:\n        /* \"@openzeppelin/contracts/access/Ownable.sol\":1248:1271  owner() == _msgSender() */\n      0xffffffffffffffffffffffffffffffffffffffff\n      and\n      eq\n        /* \"@openzeppelin/contracts/access/Ownable.sol\":1240:1308  require(owner() == _msgSender(), \"Ownable: caller is not the owner\") */\n      tag_316\n      jumpi\n      mload(0x40)\n      0x08c379a000000000000000000000000000000000000000000000000000000000\n      dup2\n      mstore\n      0x04\n      add\n      tag_317\n      swap1\n      tag_167\n      jump\t// in\n    tag_317:\n      mload(0x40)\n      dup1\n      swap2\n      sub\n      swap1\n      revert\n    tag_316:\n        /* \"@openzeppelin/contracts/access/Ownable.sol\":2026:2027  0 */\n      0x00\n        /* \"@openzeppelin/contracts/access/Ownable.sol\":2006:2028  newOwner != address(0) */\n      0xffffffffffffffffffffffffffffffffffffffff\n      and\n        /* \"@openzeppelin/contracts/access/Ownable.sol\":2006:2014  newOwner */\n      dup2\n        /* \"@openzeppelin/contracts/access/Ownable.sol\":2006:2028  newOwner != address(0) */\n      0xffffffffffffffffffffffffffffffffffffffff\n      and\n      sub\n        /* \"@openzeppelin/contracts/access/Ownable.sol\":1998:2071  require(newOwner != address(0), \"Ownable: new owner is the zero address\") */\n      tag_319\n      jumpi\n      mload(0x40)\n      0x08c379a000000000000000000000000000000000000000000000000000000000\n      dup2\n      mstore\n      0x04\n      add\n      tag_320\n      swap1\n      tag_321\n      jump\t// in\n    tag_320:\n      mload(0x40)\n      dup1\n      swap2\n      sub\n      swap1\n      revert\n    tag_319:\n        /* \"@openzeppelin/contracts/access/Ownable.sol\":2081:2109  _transferOwnership(newOwner) */\n      tag_322\n        /* \"@openzeppelin/contracts/access/Ownable.sol\":2100:2108  newOwner */\n      dup2\n        /* \"@openzeppelin/contracts/access/Ownable.sol\":2081:2099  _transferOwnership */\n      tag_267\n        /* \"@openzeppelin/contracts/access/Ownable.sol\":2081:2109  _transferOwnership(newOwner) */\n      jump\t// in\n    tag_322:\n        /* \"@openzeppelin/contracts/access/Ownable.sol\":1918:2116  function transferOwnership(address newOwner) public virtual onlyOwner {... */\n      pop\n      jump\t// out\n        /* \"contracts/SyCrowBarter.sol\":6164:7172  function _tradeTokenForEth(uint256 inAmount) internal {... */\n    tag_126:\n        /* \"contracts/SyCrowBarter.sol\":6304:6312  inAmount */\n      dup1\n        /* \"contracts/SyCrowBarter.sol\":6256:6277  _expectedTokenAddress */\n      0x05\n      0x00\n      swap1\n      sload\n      swap1\n      0x0100\n      exp\n      swap1\n      div\n      0xffffffffffffffffffffffffffffffffffffffff\n      and\n        /* \"contracts/SyCrowBarter.sol\":6249:6288  IERC20(_expectedTokenAddress).balanceOf */\n      0xffffffffffffffffffffffffffffffffffffffff\n      and\n      0x70a08231\n        /* \"contracts/SyCrowBarter.sol\":6289:6299  msg.sender */\n      caller\n        /* \"contracts/SyCrowBarter.sol\":6249:6300  IERC20(_expectedTokenAddress).balanceOf(msg.sender) */\n      mload(0x40)\n      dup3\n      0xffffffff\n      and\n      0xe0\n      shl\n      dup2\n      mstore\n      0x04\n      add\n      tag_324\n      swap2\n      swap1\n      tag_69\n      jump\t// in\n    tag_324:\n      0x20\n      mload(0x40)\n      dup1\n      dup4\n      sub\n      dup2\n      dup7\n      gas\n      staticcall\n      iszero\n      dup1\n      iszero\n      tag_326\n      jumpi\n      returndatasize\n      0x00\n      dup1\n      returndatacopy\n      revert(0x00, returndatasize)\n    tag_326:\n      pop\n      pop\n      pop\n      pop\n      mload(0x40)\n      returndatasize\n      not(0x1f)\n      0x1f\n      dup3\n      add\n      and\n      dup3\n      add\n      dup1\n      0x40\n      mstore\n      pop\n      dup2\n      add\n      swap1\n      tag_327\n      swap2\n      swap1\n      tag_173\n      jump\t// in\n    tag_327:\n        /* \"contracts/SyCrowBarter.sol\":6249:6312  IERC20(_expectedTokenAddress).balanceOf(msg.sender) >= inAmount */\n      lt\n      iszero\n        /* \"contracts/SyCrowBarter.sol\":6228:6372  require(... */\n      tag_328\n      jumpi\n      mload(0x40)\n      0x08c379a000000000000000000000000000000000000000000000000000000000\n      dup2\n      mstore\n      0x04\n      add\n      tag_329\n      swap1\n      tag_330\n      jump\t// in\n    tag_329:\n      mload(0x40)\n      dup1\n      swap2\n      sub\n      swap1\n      revert\n    tag_328:\n        /* \"contracts/SyCrowBarter.sol\":6383:6400  uint256 outAmount */\n      0x00\n        /* \"contracts/SyCrowBarter.sol\":6403:6430  getTradeOutAmount(inAmount) */\n      tag_331\n        /* \"contracts/SyCrowBarter.sol\":6421:6429  inAmount */\n      dup3\n        /* \"contracts/SyCrowBarter.sol\":6403:6420  getTradeOutAmount */\n      tag_82\n        /* \"contracts/SyCrowBarter.sol\":6403:6430  getTradeOutAmount(inAmount) */\n      jump\t// in\n    tag_331:\n        /* \"contracts/SyCrowBarter.sol\":6383:6430  uint256 outAmount = getTradeOutAmount(inAmount) */\n      swap1\n      pop\n        /* \"contracts/SyCrowBarter.sol\":6441:6452  IWETH _weth */\n      0x00\n        /* \"contracts/SyCrowBarter.sol\":6461:6465  WETH */\n      0x02\n      0x01\n      swap1\n      sload\n      swap1\n      0x0100\n      exp\n      swap1\n      div\n      0xffffffffffffffffffffffffffffffffffffffff\n      and\n        /* \"contracts/SyCrowBarter.sol\":6441:6466  IWETH _weth = IWETH(WETH) */\n      swap1\n      pop\n        /* \"contracts/SyCrowBarter.sol\":6532:6541  outAmount */\n      dup2\n        /* \"contracts/SyCrowBarter.sol\":6498:6503  _weth */\n      dup2\n        /* \"contracts/SyCrowBarter.sol\":6498:6513  _weth.balanceOf */\n      0xffffffffffffffffffffffffffffffffffffffff\n      and\n      0x70a08231\n        /* \"contracts/SyCrowBarter.sol\":6522:6526  this */\n      address\n        /* \"contracts/SyCrowBarter.sol\":6498:6528  _weth.balanceOf(address(this)) */\n      mload(0x40)\n      dup3\n      0xffffffff\n      and\n      0xe0\n      shl\n      dup2\n      mstore\n      0x04\n      add\n      tag_332\n      swap2\n      swap1\n      tag_69\n      jump\t// in\n    tag_332:\n      0x20\n      mload(0x40)\n      dup1\n      dup4\n      sub\n      dup2\n      dup7\n      gas\n      staticcall\n      iszero\n      dup1\n      iszero\n      tag_334\n      jumpi\n      returndatasize\n      0x00\n      dup1\n      returndatacopy\n      revert(0x00, returndatasize)\n    tag_334:\n      pop\n      pop\n      pop\n      pop\n      mload(0x40)\n      returndatasize\n      not(0x1f)\n      0x1f\n      dup3\n      add\n      and\n      dup3\n      add\n      dup1\n      0x40\n      mstore\n      pop\n      dup2\n      add\n      swap1\n      tag_335\n      swap2\n      swap1\n      tag_173\n      jump\t// in\n    tag_335:\n        /* \"contracts/SyCrowBarter.sol\":6498:6541  _weth.balanceOf(address(this)) >= outAmount */\n      lt\n      iszero\n        /* \"contracts/SyCrowBarter.sol\":6477:6610  require(... */\n      tag_336\n      jumpi\n      mload(0x40)\n      0x08c379a000000000000000000000000000000000000000000000000000000000\n      dup2\n      mstore\n      0x04\n      add\n      tag_337\n      swap1\n      tag_338\n      jump\t// in\n    tag_337:\n      mload(0x40)\n      dup1\n      swap2\n      sub\n      swap1\n      revert\n    tag_336:\n        /* \"contracts/SyCrowBarter.sol\":6627:6631  WETH */\n      0x02\n      0x01\n      swap1\n      sload\n      swap1\n      0x0100\n      exp\n      swap1\n      div\n      0xffffffffffffffffffffffffffffffffffffffff\n      and\n        /* \"contracts/SyCrowBarter.sol\":6621:6641  IWETH(WETH).withdraw */\n      0xffffffffffffffffffffffffffffffffffffffff\n      and\n      0x2e1a7d4d\n        /* \"contracts/SyCrowBarter.sol\":6642:6651  outAmount */\n      dup4\n        /* \"contracts/SyCrowBarter.sol\":6621:6652  IWETH(WETH).withdraw(outAmount) */\n      mload(0x40)\n      dup3\n      0xffffffff\n      and\n      0xe0\n      shl\n      dup2\n      mstore\n      0x04\n      add\n      tag_339\n      swap2\n      swap1\n      tag_47\n      jump\t// in\n    tag_339:\n      0x00\n      mload(0x40)\n      dup1\n      dup4\n      sub\n      dup2\n      0x00\n      dup8\n      dup1\n      extcodesize\n      iszero\n      dup1\n      iszero\n      tag_340\n      jumpi\n      0x00\n      dup1\n      revert\n    tag_340:\n      pop\n      gas\n      call\n      iszero\n      dup1\n      iszero\n      tag_342\n      jumpi\n      returndatasize\n      0x00\n      dup1\n      returndatacopy\n      revert(0x00, returndatasize)\n    tag_342:\n      pop\n      pop\n      pop\n      pop\n        /* \"contracts/SyCrowBarter.sol\":6663:6812  TransferHelper.safeTransferFrom(... */\n      tag_343\n        /* \"contracts/SyCrowBarter.sol\":6708:6729  _expectedTokenAddress */\n      0x05\n      0x00\n      swap1\n      sload\n      swap1\n      0x0100\n      exp\n      swap1\n      div\n      0xffffffffffffffffffffffffffffffffffffffff\n      and\n        /* \"contracts/SyCrowBarter.sol\":6743:6753  msg.sender */\n      caller\n        /* \"contracts/SyCrowBarter.sol\":6775:6779  this */\n      address\n        /* \"contracts/SyCrowBarter.sol\":6794:6802  inAmount */\n      dup7\n        /* \"contracts/SyCrowBarter.sol\":6663:6694  TransferHelper.safeTransferFrom */\n      tag_344\n        /* \"contracts/SyCrowBarter.sol\":6663:6812  TransferHelper.safeTransferFrom(... */\n      jump\t// in\n    tag_343:\n        /* \"contracts/SyCrowBarter.sol\":6822:6875  TransferHelper.safeTransferETH(msg.sender, outAmount) */\n      tag_345\n        /* \"contracts/SyCrowBarter.sol\":6853:6863  msg.sender */\n      caller\n        /* \"contracts/SyCrowBarter.sol\":6865:6874  outAmount */\n      dup4\n        /* \"contracts/SyCrowBarter.sol\":6822:6852  TransferHelper.safeTransferETH */\n      tag_180\n        /* \"contracts/SyCrowBarter.sol\":6822:6875  TransferHelper.safeTransferETH(msg.sender, outAmount) */\n      jump\t// in\n    tag_345:\n        /* \"contracts/SyCrowBarter.sol\":6886:6893  _trades */\n      0x09\n        /* \"contracts/SyCrowBarter.sol\":6899:6942  BaterTrade(msg.sender, inAmount, outAmount) */\n      mload(0x40)\n      dup1\n      0x60\n      add\n      0x40\n      mstore\n      dup1\n        /* \"contracts/SyCrowBarter.sol\":6910:6920  msg.sender */\n      caller\n        /* \"contracts/SyCrowBarter.sol\":6899:6942  BaterTrade(msg.sender, inAmount, outAmount) */\n      0xffffffffffffffffffffffffffffffffffffffff\n      and\n      dup2\n      mstore\n      0x20\n      add\n        /* \"contracts/SyCrowBarter.sol\":6922:6930  inAmount */\n      dup6\n        /* \"contracts/SyCrowBarter.sol\":6899:6942  BaterTrade(msg.sender, inAmount, outAmount) */\n      dup2\n      mstore\n      0x20\n      add\n        /* \"contracts/SyCrowBarter.sol\":6932:6941  outAmount */\n      dup5\n        /* \"contracts/SyCrowBarter.sol\":6899:6942  BaterTrade(msg.sender, inAmount, outAmount) */\n      dup2\n      mstore\n      pop\n        /* \"contracts/SyCrowBarter.sol\":6886:6943  _trades.push(BaterTrade(msg.sender, inAmount, outAmount)) */\n      swap1\n      dup1\n      0x01\n      dup2\n      sload\n      add\n      dup1\n      dup3\n      sstore\n      dup1\n      swap2\n      pop\n      pop\n      0x01\n      swap1\n      sub\n      swap1\n      0x00\n      mstore\n      keccak256(0x00, 0x20)\n      swap1\n      0x03\n      mul\n      add\n      0x00\n      swap1\n      swap2\n      swap1\n      swap2\n      swap1\n      swap2\n      pop\n      0x00\n      dup3\n      add\n      mload\n      dup2\n      0x00\n      add\n      exp(0x0100, 0x00)\n      dup2\n      sload\n      dup2\n      0xffffffffffffffffffffffffffffffffffffffff\n      mul\n      not\n      and\n      swap1\n      dup4\n      0xffffffffffffffffffffffffffffffffffffffff\n      and\n      mul\n      or\n      swap1\n      sstore\n      pop\n      0x20\n      dup3\n      add\n      mload\n      dup2\n      0x01\n      add\n      sstore\n      0x40\n      dup3\n      add\n      mload\n      dup2\n      0x02\n      add\n      sstore\n      pop\n      pop\n        /* \"contracts/SyCrowBarter.sol\":6954:6986  ISyCrowBarterFactory sycrFactory */\n      0x00\n        /* \"contracts/SyCrowBarter.sol\":7010:7017  factory */\n      immutable(\"0x26a975632f70533c9512e57b565b8ce8e2befee6b08dfbc27c4a897a20e2c1d6\")\n        /* \"contracts/SyCrowBarter.sol\":6954:7018  ISyCrowBarterFactory sycrFactory = ISyCrowBarterFactory(factory) */\n      swap1\n      pop\n        /* \"contracts/SyCrowBarter.sol\":7028:7039  sycrFactory */\n      dup1\n        /* \"contracts/SyCrowBarter.sol\":7028:7059  sycrFactory.notifyTradeByBarter */\n      0xffffffffffffffffffffffffffffffffffffffff\n      and\n      0xf52701b7\n        /* \"contracts/SyCrowBarter.sol\":7081:7085  this */\n      address\n        /* \"contracts/SyCrowBarter.sol\":7100:7110  msg.sender */\n      caller\n        /* \"contracts/SyCrowBarter.sol\":7124:7132  inAmount */\n      dup8\n        /* \"contracts/SyCrowBarter.sol\":7146:7155  outAmount */\n      dup8\n        /* \"contracts/SyCrowBarter.sol\":7028:7165  sycrFactory.notifyTradeByBarter(... */\n      mload(0x40)\n      dup6\n      0xffffffff\n      and\n      0xe0\n      shl\n      dup2\n      mstore\n      0x04\n      add\n      tag_347\n      swap5\n      swap4\n      swap3\n      swap2\n      swap1\n      tag_207\n      jump\t// in\n    tag_347:\n      0x00\n      mload(0x40)\n      dup1\n      dup4\n      sub\n      dup2\n      0x00\n      dup8\n      dup1\n      extcodesize\n      iszero\n      dup1\n      iszero\n      tag_348\n      jumpi\n      0x00\n      dup1\n      revert\n    tag_348:\n      pop\n      gas\n      call\n      iszero\n      dup1\n      iszero\n      tag_350\n      jumpi\n      returndatasize\n      0x00\n      dup1\n      returndatacopy\n      revert(0x00, returndatasize)\n    tag_350:\n      pop\n      pop\n      pop\n      pop\n        /* \"contracts/SyCrowBarter.sol\":6218:7172  {... */\n      pop\n      pop\n      pop\n        /* \"contracts/SyCrowBarter.sol\":6164:7172  function _tradeTokenForEth(uint256 inAmount) internal {... */\n      pop\n      jump\t// out\n        /* \"contracts/SyCrowBarter.sol\":5118:6158  function _tradeTokenForToken(uint256 inAmount) internal {... */\n    tag_152:\n        /* \"contracts/SyCrowBarter.sol\":5260:5268  inAmount */\n      dup1\n        /* \"contracts/SyCrowBarter.sol\":5212:5233  _expectedTokenAddress */\n      0x05\n      0x00\n      swap1\n      sload\n      swap1\n      0x0100\n      exp\n      swap1\n      div\n      0xffffffffffffffffffffffffffffffffffffffff\n      and\n        /* \"contracts/SyCrowBarter.sol\":5205:5244  IERC20(_expectedTokenAddress).balanceOf */\n      0xffffffffffffffffffffffffffffffffffffffff\n      and\n      0x70a08231\n        /* \"contracts/SyCrowBarter.sol\":5245:5255  msg.sender */\n      caller\n        /* \"contracts/SyCrowBarter.sol\":5205:5256  IERC20(_expectedTokenAddress).balanceOf(msg.sender) */\n      mload(0x40)\n      dup3\n      0xffffffff\n      and\n      0xe0\n      shl\n      dup2\n      mstore\n      0x04\n      add\n      tag_352\n      swap2\n      swap1\n      tag_69\n      jump\t// in\n    tag_352:\n      0x20\n      mload(0x40)\n      dup1\n      dup4\n      sub\n      dup2\n      dup7\n      gas\n      staticcall\n      iszero\n      dup1\n      iszero\n      tag_354\n      jumpi\n      returndatasize\n      0x00\n      dup1\n      returndatacopy\n      revert(0x00, returndatasize)\n    tag_354:\n      pop\n      pop\n      pop\n      pop\n      mload(0x40)\n      returndatasize\n      not(0x1f)\n      0x1f\n      dup3\n      add\n      and\n      dup3\n      add\n      dup1\n      0x40\n      mstore\n      pop\n      dup2\n      add\n      swap1\n      tag_355\n      swap2\n      swap1\n      tag_173\n      jump\t// in\n    tag_355:\n        /* \"contracts/SyCrowBarter.sol\":5205:5268  IERC20(_expectedTokenAddress).balanceOf(msg.sender) >= inAmount */\n      lt\n      iszero\n        /* \"contracts/SyCrowBarter.sol\":5184:5328  require(... */\n      tag_356\n      jumpi\n      mload(0x40)\n      0x08c379a000000000000000000000000000000000000000000000000000000000\n      dup2\n      mstore\n      0x04\n      add\n      tag_357\n      swap1\n      tag_330\n      jump\t// in\n    tag_357:\n      mload(0x40)\n      dup1\n      swap2\n      sub\n      swap1\n      revert\n    tag_356:\n        /* \"contracts/SyCrowBarter.sol\":5339:5356  uint256 outAmount */\n      0x00\n        /* \"contracts/SyCrowBarter.sol\":5359:5386  getTradeOutAmount(inAmount) */\n      tag_358\n        /* \"contracts/SyCrowBarter.sol\":5377:5385  inAmount */\n      dup3\n        /* \"contracts/SyCrowBarter.sol\":5359:5376  getTradeOutAmount */\n      tag_82\n        /* \"contracts/SyCrowBarter.sol\":5359:5386  getTradeOutAmount(inAmount) */\n      jump\t// in\n    tag_358:\n        /* \"contracts/SyCrowBarter.sol\":5339:5386  uint256 outAmount = getTradeOutAmount(inAmount) */\n      swap1\n      pop\n        /* \"contracts/SyCrowBarter.sol\":5493:5502  outAmount */\n      dup1\n        /* \"contracts/SyCrowBarter.sol\":5425:5447  _depositedTokenAddress */\n      0x04\n      0x01\n      swap1\n      sload\n      swap1\n      0x0100\n      exp\n      swap1\n      div\n      0xffffffffffffffffffffffffffffffffffffffff\n      and\n        /* \"contracts/SyCrowBarter.sol\":5418:5458  IERC20(_depositedTokenAddress).balanceOf */\n      0xffffffffffffffffffffffffffffffffffffffff\n      and\n      0x70a08231\n        /* \"contracts/SyCrowBarter.sol\":5467:5471  this */\n      address\n        /* \"contracts/SyCrowBarter.sol\":5418:5473  IERC20(_depositedTokenAddress).balanceOf(address(this)) */\n      mload(0x40)\n      dup3\n      0xffffffff\n      and\n      0xe0\n      shl\n      dup2\n      mstore\n      0x04\n      add\n      tag_359\n      swap2\n      swap1\n      tag_69\n      jump\t// in\n    tag_359:\n      0x20\n      mload(0x40)\n      dup1\n      dup4\n      sub\n      dup2\n      dup7\n      gas\n      staticcall\n      iszero\n      dup1\n      iszero\n      tag_361\n      jumpi\n      returndatasize\n      0x00\n      dup1\n      returndatacopy\n      revert(0x00, returndatasize)\n    tag_361:\n      pop\n      pop\n      pop\n      pop\n      mload(0x40)\n      returndatasize\n      not(0x1f)\n      0x1f\n      dup3\n      add\n      and\n      dup3\n      add\n      dup1\n      0x40\n      mstore\n      pop\n      dup2\n      add\n      swap1\n      tag_362\n      swap2\n      swap1\n      tag_173\n      jump\t// in\n    tag_362:\n        /* \"contracts/SyCrowBarter.sol\":5418:5502  IERC20(_depositedTokenAddress).balanceOf(address(this)) >=... */\n      lt\n      iszero\n        /* \"contracts/SyCrowBarter.sol\":5397:5571  require(... */\n      tag_363\n      jumpi\n      mload(0x40)\n      0x08c379a000000000000000000000000000000000000000000000000000000000\n      dup2\n      mstore\n      0x04\n      add\n      tag_364\n      swap1\n      tag_338\n      jump\t// in\n    tag_364:\n      mload(0x40)\n      dup1\n      swap2\n      sub\n      swap1\n      revert\n    tag_363:\n        /* \"contracts/SyCrowBarter.sol\":5582:5731  TransferHelper.safeTransferFrom(... */\n      tag_365\n        /* \"contracts/SyCrowBarter.sol\":5627:5648  _expectedTokenAddress */\n      0x05\n      0x00\n      swap1\n      sload\n      swap1\n      0x0100\n      exp\n      swap1\n      div\n      0xffffffffffffffffffffffffffffffffffffffff\n      and\n        /* \"contracts/SyCrowBarter.sol\":5662:5672  msg.sender */\n      caller\n        /* \"contracts/SyCrowBarter.sol\":5694:5698  this */\n      address\n        /* \"contracts/SyCrowBarter.sol\":5713:5721  inAmount */\n      dup6\n        /* \"contracts/SyCrowBarter.sol\":5582:5613  TransferHelper.safeTransferFrom */\n      tag_344\n        /* \"contracts/SyCrowBarter.sol\":5582:5731  TransferHelper.safeTransferFrom(... */\n      jump\t// in\n    tag_365:\n        /* \"contracts/SyCrowBarter.sol\":5741:5861  TransferHelper.safeTransfer(... */\n      tag_366\n        /* \"contracts/SyCrowBarter.sol\":5782:5804  _depositedTokenAddress */\n      0x04\n      0x01\n      swap1\n      sload\n      swap1\n      0x0100\n      exp\n      swap1\n      div\n      0xffffffffffffffffffffffffffffffffffffffff\n      and\n        /* \"contracts/SyCrowBarter.sol\":5818:5828  msg.sender */\n      caller\n        /* \"contracts/SyCrowBarter.sol\":5842:5851  outAmount */\n      dup4\n        /* \"contracts/SyCrowBarter.sol\":5741:5768  TransferHelper.safeTransfer */\n      tag_187\n        /* \"contracts/SyCrowBarter.sol\":5741:5861  TransferHelper.safeTransfer(... */\n      jump\t// in\n    tag_366:\n        /* \"contracts/SyCrowBarter.sol\":5872:5879  _trades */\n      0x09\n        /* \"contracts/SyCrowBarter.sol\":5885:5928  BaterTrade(msg.sender, inAmount, outAmount) */\n      mload(0x40)\n      dup1\n      0x60\n      add\n      0x40\n      mstore\n      dup1\n        /* \"contracts/SyCrowBarter.sol\":5896:5906  msg.sender */\n      caller\n        /* \"contracts/SyCrowBarter.sol\":5885:5928  BaterTrade(msg.sender, inAmount, outAmount) */\n      0xffffffffffffffffffffffffffffffffffffffff\n      and\n      dup2\n      mstore\n      0x20\n      add\n        /* \"contracts/SyCrowBarter.sol\":5908:5916  inAmount */\n      dup5\n        /* \"contracts/SyCrowBarter.sol\":5885:5928  BaterTrade(msg.sender, inAmount, outAmount) */\n      dup2\n      mstore\n      0x20\n      add\n        /* \"contracts/SyCrowBarter.sol\":5918:5927  outAmount */\n      dup4\n        /* \"contracts/SyCrowBarter.sol\":5885:5928  BaterTrade(msg.sender, inAmount, outAmount) */\n      dup2\n      mstore\n      pop\n        /* \"contracts/SyCrowBarter.sol\":5872:5929  _trades.push(BaterTrade(msg.sender, inAmount, outAmount)) */\n      swap1\n      dup1\n      0x01\n      dup2\n      sload\n      add\n      dup1\n      dup3\n      sstore\n      dup1\n      swap2\n      pop\n      pop\n      0x01\n      swap1\n      sub\n      swap1\n      0x00\n      mstore\n      keccak256(0x00, 0x20)\n      swap1\n      0x03\n      mul\n      add\n      0x00\n      swap1\n      swap2\n      swap1\n      swap2\n      swap1\n      swap2\n      pop\n      0x00\n      dup3\n      add\n      mload\n      dup2\n      0x00\n      add\n      exp(0x0100, 0x00)\n      dup2\n      sload\n      dup2\n      0xffffffffffffffffffffffffffffffffffffffff\n      mul\n      not\n      and\n      swap1\n      dup4\n      0xffffffffffffffffffffffffffffffffffffffff\n      and\n      mul\n      or\n      swap1\n      sstore\n      pop\n      0x20\n      dup3\n      add\n      mload\n      dup2\n      0x01\n      add\n      sstore\n      0x40\n      dup3\n      add\n      mload\n      dup2\n      0x02\n      add\n      sstore\n      pop\n      pop\n        /* \"contracts/SyCrowBarter.sol\":5940:5972  ISyCrowBarterFactory sycrFactory */\n      0x00\n        /* \"contracts/SyCrowBarter.sol\":5996:6003  factory */\n      immutable(\"0x26a975632f70533c9512e57b565b8ce8e2befee6b08dfbc27c4a897a20e2c1d6\")\n        /* \"contracts/SyCrowBarter.sol\":5940:6004  ISyCrowBarterFactory sycrFactory = ISyCrowBarterFactory(factory) */\n      swap1\n      pop\n        /* \"contracts/SyCrowBarter.sol\":6014:6025  sycrFactory */\n      dup1\n        /* \"contracts/SyCrowBarter.sol\":6014:6045  sycrFactory.notifyTradeByBarter */\n      0xffffffffffffffffffffffffffffffffffffffff\n      and\n      0xf52701b7\n        /* \"contracts/SyCrowBarter.sol\":6067:6071  this */\n      address\n        /* \"contracts/SyCrowBarter.sol\":6086:6096  msg.sender */\n      caller\n        /* \"contracts/SyCrowBarter.sol\":6110:6118  inAmount */\n      dup7\n        /* \"contracts/SyCrowBarter.sol\":6132:6141  outAmount */\n      dup7\n        /* \"contracts/SyCrowBarter.sol\":6014:6151  sycrFactory.notifyTradeByBarter(... */\n      mload(0x40)\n      dup6\n      0xffffffff\n      and\n      0xe0\n      shl\n      dup2\n      mstore\n      0x04\n      add\n      tag_368\n      swap5\n      swap4\n      swap3\n      swap2\n      swap1\n      tag_207\n      jump\t// in\n    tag_368:\n      0x00\n      mload(0x40)\n      dup1\n      dup4\n      sub\n      dup2\n      0x00\n      dup8\n      dup1\n      extcodesize\n      iszero\n      dup1\n      iszero\n      tag_369\n      jumpi\n      0x00\n      dup1\n      revert\n    tag_369:\n      pop\n      gas\n      call\n      iszero\n      dup1\n      iszero\n      tag_371\n      jumpi\n      returndatasize\n      0x00\n      dup1\n      returndatacopy\n      revert(0x00, returndatasize)\n    tag_371:\n      pop\n      pop\n      pop\n      pop\n        /* \"contracts/SyCrowBarter.sol\":5174:6158  {... */\n      pop\n      pop\n        /* \"contracts/SyCrowBarter.sol\":5118:6158  function _tradeTokenForToken(uint256 inAmount) internal {... */\n      pop\n      jump\t// out\n        /* \"@openzeppelin/contracts/utils/Context.sol\":640:736  function _msgSender() internal view virtual returns (address) {... */\n    tag_163:\n        /* \"@openzeppelin/contracts/utils/Context.sol\":693:700  address */\n      0x00\n        /* \"@openzeppelin/contracts/utils/Context.sol\":719:729  msg.sender */\n      caller\n        /* \"@openzeppelin/contracts/utils/Context.sol\":712:729  return msg.sender */\n      swap1\n      pop\n        /* \"@openzeppelin/contracts/utils/Context.sol\":640:736  function _msgSender() internal view virtual returns (address) {... */\n      swap1\n      jump\t// out\n        /* \"contracts/libraries/TransferHelper.sol\":1333:1525  function safeTransferETH(address to, uint value) internal {... */\n    tag_180:\n        /* \"contracts/libraries/TransferHelper.sol\":1402:1414  bool success */\n      0x00\n        /* \"contracts/libraries/TransferHelper.sol\":1419:1421  to */\n      dup3\n        /* \"contracts/libraries/TransferHelper.sol\":1419:1426  to.call */\n      0xffffffffffffffffffffffffffffffffffffffff\n      and\n        /* \"contracts/libraries/TransferHelper.sol\":1433:1438  value */\n      dup3\n        /* \"contracts/libraries/TransferHelper.sol\":1450:1451  0 */\n      0x00\n        /* \"contracts/libraries/TransferHelper.sol\":1440:1452  new bytes(0) */\n      0xffffffffffffffff\n      dup2\n      gt\n      iszero\n      tag_374\n      jumpi\n      tag_375\n      tag_284\n      jump\t// in\n    tag_375:\n    tag_374:\n      mload(0x40)\n      swap1\n      dup1\n      dup3\n      mstore\n      dup1\n      0x1f\n      add\n      not(0x1f)\n      and\n      0x20\n      add\n      dup3\n      add\n      0x40\n      mstore\n      dup1\n      iszero\n      tag_376\n      jumpi\n      dup2\n      0x20\n      add\n      0x01\n      dup3\n      mul\n      dup1\n      calldatasize\n      dup4\n      calldatacopy\n      dup1\n      dup3\n      add\n      swap2\n      pop\n      pop\n      swap1\n      pop\n    tag_376:\n      pop\n        /* \"contracts/libraries/TransferHelper.sol\":1419:1453  to.call{value:value}(new bytes(0)) */\n      mload(0x40)\n      tag_377\n      swap2\n      swap1\n      tag_378\n      jump\t// in\n    tag_377:\n      0x00\n      mload(0x40)\n      dup1\n      dup4\n      sub\n      dup2\n      dup6\n      dup8\n      gas\n      call\n      swap3\n      pop\n      pop\n      pop\n      returndatasize\n      dup1\n      0x00\n      dup2\n      eq\n      tag_381\n      jumpi\n      mload(0x40)\n      swap2\n      pop\n      and(add(returndatasize, 0x3f), not(0x1f))\n      dup3\n      add\n      0x40\n      mstore\n      returndatasize\n      dup3\n      mstore\n      returndatasize\n      0x00\n      0x20\n      dup5\n      add\n      returndatacopy\n      jump(tag_380)\n    tag_381:\n      0x60\n      swap2\n      pop\n    tag_380:\n      pop\n        /* \"contracts/libraries/TransferHelper.sol\":1401:1453  (bool success,) = to.call{value:value}(new bytes(0)) */\n      pop\n      swap1\n      pop\n        /* \"contracts/libraries/TransferHelper.sol\":1471:1478  success */\n      dup1\n        /* \"contracts/libraries/TransferHelper.sol\":1463:1518  require(success, 'TransferHelper: ETH_TRANSFER_FAILED') */\n      tag_382\n      jumpi\n      mload(0x40)\n      0x08c379a000000000000000000000000000000000000000000000000000000000\n      dup2\n      mstore\n      0x04\n      add\n      tag_383\n      swap1\n      tag_384\n      jump\t// in\n    tag_383:\n      mload(0x40)\n      dup1\n      swap2\n      sub\n      swap1\n      revert\n    tag_382:\n        /* \"contracts/libraries/TransferHelper.sol\":1391:1525  {... */\n      pop\n        /* \"contracts/libraries/TransferHelper.sol\":1333:1525  function safeTransferETH(address to, uint value) internal {... */\n      pop\n      pop\n      jump\t// out\n        /* \"contracts/libraries/TransferHelper.sol\":566:923  function safeTransfer(address token, address to, uint value) internal {... */\n    tag_187:\n        /* \"contracts/libraries/TransferHelper.sol\":713:725  bool success */\n      0x00\n        /* \"contracts/libraries/TransferHelper.sol\":727:744  bytes memory data */\n      dup1\n        /* \"contracts/libraries/TransferHelper.sol\":748:753  token */\n      dup5\n        /* \"contracts/libraries/TransferHelper.sol\":748:758  token.call */\n      0xffffffffffffffffffffffffffffffffffffffff\n      and\n        /* \"contracts/libraries/TransferHelper.sol\":782:792  0xa9059cbb */\n      0xa9059cbb\n        /* \"contracts/libraries/TransferHelper.sol\":794:796  to */\n      dup6\n        /* \"contracts/libraries/TransferHelper.sol\":798:803  value */\n      dup6\n        /* \"contracts/libraries/TransferHelper.sol\":759:804  abi.encodeWithSelector(0xa9059cbb, to, value) */\n      add(0x24, mload(0x40))\n      tag_386\n      swap3\n      swap2\n      swap1\n      tag_387\n      jump\t// in\n    tag_386:\n      mload(0x40)\n      0x20\n      dup2\n      dup4\n      sub\n      sub\n      dup2\n      mstore\n      swap1\n      0x40\n      mstore\n      swap1\n      0xe0\n      shl\n      0x20\n      dup3\n      add\n      dup1\n      mload\n      0xffffffffffffffffffffffffffffffffffffffffffffffffffffffff\n      dup4\n      dup2\n      dup4\n      and\n      or\n      dup4\n      mstore\n      pop\n      pop\n      pop\n      pop\n        /* \"contracts/libraries/TransferHelper.sol\":748:805  token.call(abi.encodeWithSelector(0xa9059cbb, to, value)) */\n      mload(0x40)\n      tag_388\n      swap2\n      swap1\n      tag_378\n      jump\t// in\n    tag_388:\n      0x00\n      mload(0x40)\n      dup1\n      dup4\n      sub\n      dup2\n      0x00\n      dup7\n      gas\n      call\n      swap2\n      pop\n      pop\n      returndatasize\n      dup1\n      0x00\n      dup2\n      eq\n      tag_391\n      jumpi\n      mload(0x40)\n      swap2\n      pop\n      and(add(returndatasize, 0x3f), not(0x1f))\n      dup3\n      add\n      0x40\n      mstore\n      returndatasize\n      dup3\n      mstore\n      returndatasize\n      0x00\n      0x20\n      dup5\n      add\n      returndatacopy\n      jump(tag_390)\n    tag_391:\n      0x60\n      swap2\n      pop\n    tag_390:\n      pop\n        /* \"contracts/libraries/TransferHelper.sol\":712:805  (bool success, bytes memory data) = token.call(abi.encodeWithSelector(0xa9059cbb, to, value)) */\n      swap2\n      pop\n      swap2\n      pop\n        /* \"contracts/libraries/TransferHelper.sol\":823:830  success */\n      dup2\n        /* \"contracts/libraries/TransferHelper.sol\":823:880  success && (data.length == 0 || abi.decode(data, (bool))) */\n      dup1\n      iszero\n      tag_392\n      jumpi\n      pop\n        /* \"contracts/libraries/TransferHelper.sol\":850:851  0 */\n      0x00\n        /* \"contracts/libraries/TransferHelper.sol\":835:839  data */\n      dup2\n        /* \"contracts/libraries/TransferHelper.sol\":835:846  data.length */\n      mload\n        /* \"contracts/libraries/TransferHelper.sol\":835:851  data.length == 0 */\n      eq\n        /* \"contracts/libraries/TransferHelper.sol\":835:879  data.length == 0 || abi.decode(data, (bool)) */\n      dup1\n      tag_393\n      jumpi\n      pop\n        /* \"contracts/libraries/TransferHelper.sol\":866:870  data */\n      dup1\n        /* \"contracts/libraries/TransferHelper.sol\":855:879  abi.decode(data, (bool)) */\n      dup1\n      0x20\n      add\n      swap1\n      mload\n      dup2\n      add\n      swap1\n      tag_394\n      swap2\n      swap1\n      tag_107\n      jump\t// in\n    tag_394:\n        /* \"contracts/libraries/TransferHelper.sol\":835:879  data.length == 0 || abi.decode(data, (bool)) */\n    tag_393:\n        /* \"contracts/libraries/TransferHelper.sol\":823:880  success && (data.length == 0 || abi.decode(data, (bool))) */\n    tag_392:\n        /* \"contracts/libraries/TransferHelper.sol\":815:916  require(success && (data.length == 0 || abi.decode(data, (bool))), 'TransferHelper: TRANSFER_FAILED') */\n      tag_395\n      jumpi\n      mload(0x40)\n      0x08c379a000000000000000000000000000000000000000000000000000000000\n      dup2\n      mstore\n      0x04\n      add\n      tag_396\n      swap1\n      tag_397\n      jump\t// in\n    tag_396:\n      mload(0x40)\n      dup1\n      swap2\n      sub\n      swap1\n      revert\n    tag_395:\n        /* \"contracts/libraries/TransferHelper.sol\":636:923  {... */\n      pop\n      pop\n        /* \"contracts/libraries/TransferHelper.sol\":566:923  function safeTransfer(address token, address to, uint value) internal {... */\n      pop\n      pop\n      pop\n      jump\t// out\n        /* \"contracts/SyCrowBarter.sol\":7178:8033  function _tradeEthForToken(uint256 inAmount) internal {... */\n    tag_240:\n        /* \"contracts/SyCrowBarter.sol\":7262:7271  msg.value */\n      callvalue\n        /* \"contracts/SyCrowBarter.sol\":7250:7258  inAmount */\n      dup2\n        /* \"contracts/SyCrowBarter.sol\":7250:7271  inAmount == msg.value */\n      eq\n        /* \"contracts/SyCrowBarter.sol\":7242:7313  require(inAmount == msg.value, \"SyCrowBarter: MULTI_TRADE_NOT_ENABLED\") */\n      tag_399\n      jumpi\n      mload(0x40)\n      0x08c379a000000000000000000000000000000000000000000000000000000000\n      dup2\n      mstore\n      0x04\n      add\n      tag_400\n      swap1\n      tag_401\n      jump\t// in\n    tag_400:\n      mload(0x40)\n      dup1\n      swap2\n      sub\n      swap1\n      revert\n    tag_399:\n        /* \"contracts/SyCrowBarter.sol\":7324:7341  uint256 outAmount */\n      0x00\n        /* \"contracts/SyCrowBarter.sol\":7344:7371  getTradeOutAmount(inAmount) */\n      tag_402\n        /* \"contracts/SyCrowBarter.sol\":7362:7370  inAmount */\n      dup3\n        /* \"contracts/SyCrowBarter.sol\":7344:7361  getTradeOutAmount */\n      tag_82\n        /* \"contracts/SyCrowBarter.sol\":7344:7371  getTradeOutAmount(inAmount) */\n      jump\t// in\n    tag_402:\n        /* \"contracts/SyCrowBarter.sol\":7324:7371  uint256 outAmount = getTradeOutAmount(inAmount) */\n      swap1\n      pop\n        /* \"contracts/SyCrowBarter.sol\":7478:7487  outAmount */\n      dup1\n        /* \"contracts/SyCrowBarter.sol\":7410:7432  _depositedTokenAddress */\n      0x04\n      0x01\n      swap1\n      sload\n      swap1\n      0x0100\n      exp\n      swap1\n      div\n      0xffffffffffffffffffffffffffffffffffffffff\n      and\n        /* \"contracts/SyCrowBarter.sol\":7403:7443  IERC20(_depositedTokenAddress).balanceOf */\n      0xffffffffffffffffffffffffffffffffffffffff\n      and\n      0x70a08231\n        /* \"contracts/SyCrowBarter.sol\":7452:7456  this */\n      address\n        /* \"contracts/SyCrowBarter.sol\":7403:7458  IERC20(_depositedTokenAddress).balanceOf(address(this)) */\n      mload(0x40)\n      dup3\n      0xffffffff\n      and\n      0xe0\n      shl\n      dup2\n      mstore\n      0x04\n      add\n      tag_403\n      swap2\n      swap1\n      tag_69\n      jump\t// in\n    tag_403:\n      0x20\n      mload(0x40)\n      dup1\n      dup4\n      sub\n      dup2\n      dup7\n      gas\n      staticcall\n      iszero\n      dup1\n      iszero\n      tag_405\n      jumpi\n      returndatasize\n      0x00\n      dup1\n      returndatacopy\n      revert(0x00, returndatasize)\n    tag_405:\n      pop\n      pop\n      pop\n      pop\n      mload(0x40)\n      returndatasize\n      not(0x1f)\n      0x1f\n      dup3\n      add\n      and\n      dup3\n      add\n      dup1\n      0x40\n      mstore\n      pop\n      dup2\n      add\n      swap1\n      tag_406\n      swap2\n      swap1\n      tag_173\n      jump\t// in\n    tag_406:\n        /* \"contracts/SyCrowBarter.sol\":7403:7487  IERC20(_depositedTokenAddress).balanceOf(address(this)) >=... */\n      lt\n      iszero\n        /* \"contracts/SyCrowBarter.sol\":7382:7556  require(... */\n      tag_407\n      jumpi\n      mload(0x40)\n      0x08c379a000000000000000000000000000000000000000000000000000000000\n      dup2\n      mstore\n      0x04\n      add\n      tag_408\n      swap1\n      tag_338\n      jump\t// in\n    tag_408:\n      mload(0x40)\n      dup1\n      swap2\n      sub\n      swap1\n      revert\n    tag_407:\n        /* \"contracts/SyCrowBarter.sol\":7573:7577  WETH */\n      0x02\n      0x01\n      swap1\n      sload\n      swap1\n      0x0100\n      exp\n      swap1\n      div\n      0xffffffffffffffffffffffffffffffffffffffff\n      and\n        /* \"contracts/SyCrowBarter.sol\":7567:7586  IWETH(WETH).deposit */\n      0xffffffffffffffffffffffffffffffffffffffff\n      and\n      0xd0e30db0\n        /* \"contracts/SyCrowBarter.sol\":7594:7602  inAmount */\n      dup4\n        /* \"contracts/SyCrowBarter.sol\":7567:7605  IWETH(WETH).deposit{value: inAmount}() */\n      mload(0x40)\n      dup3\n      0xffffffff\n      and\n      0xe0\n      shl\n      dup2\n      mstore\n      0x04\n      add\n      0x00\n      mload(0x40)\n      dup1\n      dup4\n      sub\n      dup2\n      dup6\n      dup9\n      dup1\n      extcodesize\n      iszero\n      dup1\n      iszero\n      tag_409\n      jumpi\n      0x00\n      dup1\n      revert\n    tag_409:\n      pop\n      gas\n      call\n      iszero\n      dup1\n      iszero\n      tag_411\n      jumpi\n      returndatasize\n      0x00\n      dup1\n      returndatacopy\n      revert(0x00, returndatasize)\n    tag_411:\n      pop\n      pop\n      pop\n      pop\n      pop\n        /* \"contracts/SyCrowBarter.sol\":7616:7736  TransferHelper.safeTransfer(... */\n      tag_412\n        /* \"contracts/SyCrowBarter.sol\":7657:7679  _depositedTokenAddress */\n      0x04\n      0x01\n      swap1\n      sload\n      swap1\n      0x0100\n      exp\n      swap1\n      div\n      0xffffffffffffffffffffffffffffffffffffffff\n      and\n        /* \"contracts/SyCrowBarter.sol\":7693:7703  msg.sender */\n      caller\n        /* \"contracts/SyCrowBarter.sol\":7717:7726  outAmount */\n      dup4\n        /* \"contracts/SyCrowBarter.sol\":7616:7643  TransferHelper.safeTransfer */\n      tag_187\n        /* \"contracts/SyCrowBarter.sol\":7616:7736  TransferHelper.safeTransfer(... */\n      jump\t// in\n    tag_412:\n        /* \"contracts/SyCrowBarter.sol\":7747:7754  _trades */\n      0x09\n        /* \"contracts/SyCrowBarter.sol\":7760:7803  BaterTrade(msg.sender, inAmount, outAmount) */\n      mload(0x40)\n      dup1\n      0x60\n      add\n      0x40\n      mstore\n      dup1\n        /* \"contracts/SyCrowBarter.sol\":7771:7781  msg.sender */\n      caller\n        /* \"contracts/SyCrowBarter.sol\":7760:7803  BaterTrade(msg.sender, inAmount, outAmount) */\n      0xffffffffffffffffffffffffffffffffffffffff\n      and\n      dup2\n      mstore\n      0x20\n      add\n        /* \"contracts/SyCrowBarter.sol\":7783:7791  inAmount */\n      dup5\n        /* \"contracts/SyCrowBarter.sol\":7760:7803  BaterTrade(msg.sender, inAmount, outAmount) */\n      dup2\n      mstore\n      0x20\n      add\n        /* \"contracts/SyCrowBarter.sol\":7793:7802  outAmount */\n      dup4\n        /* \"contracts/SyCrowBarter.sol\":7760:7803  BaterTrade(msg.sender, inAmount, outAmount) */\n      dup2\n      mstore\n      pop\n        /* \"contracts/SyCrowBarter.sol\":7747:7804  _trades.push(BaterTrade(msg.sender, inAmount, outAmount)) */\n      swap1\n      dup1\n      0x01\n      dup2\n      sload\n      add\n      dup1\n      dup3\n      sstore\n      dup1\n      swap2\n      pop\n      pop\n      0x01\n      swap1\n      sub\n      swap1\n      0x00\n      mstore\n      keccak256(0x00, 0x20)\n      swap1\n      0x03\n      mul\n      add\n      0x00\n      swap1\n      swap2\n      swap1\n      swap2\n      swap1\n      swap2\n      pop\n      0x00\n      dup3\n      add\n      mload\n      dup2\n      0x00\n      add\n      exp(0x0100, 0x00)\n      dup2\n      sload\n      dup2\n      0xffffffffffffffffffffffffffffffffffffffff\n      mul\n      not\n      and\n      swap1\n      dup4\n      0xffffffffffffffffffffffffffffffffffffffff\n      and\n      mul\n      or\n      swap1\n      sstore\n      pop\n      0x20\n      dup3\n      add\n      mload\n      dup2\n      0x01\n      add\n      sstore\n      0x40\n      dup3\n      add\n      mload\n      dup2\n      0x02\n      add\n      sstore\n      pop\n      pop\n        /* \"contracts/SyCrowBarter.sol\":7815:7847  ISyCrowBarterFactory sycrFactory */\n      0x00\n        /* \"contracts/SyCrowBarter.sol\":7871:7878  factory */\n      immutable(\"0x26a975632f70533c9512e57b565b8ce8e2befee6b08dfbc27c4a897a20e2c1d6\")\n        /* \"contracts/SyCrowBarter.sol\":7815:7879  ISyCrowBarterFactory sycrFactory = ISyCrowBarterFactory(factory) */\n      swap1\n      pop\n        /* \"contracts/SyCrowBarter.sol\":7889:7900  sycrFactory */\n      dup1\n        /* \"contracts/SyCrowBarter.sol\":7889:7920  sycrFactory.notifyTradeByBarter */\n      0xffffffffffffffffffffffffffffffffffffffff\n      and\n      0xf52701b7\n        /* \"contracts/SyCrowBarter.sol\":7942:7946  this */\n      address\n        /* \"contracts/SyCrowBarter.sol\":7961:7971  msg.sender */\n      caller\n        /* \"contracts/SyCrowBarter.sol\":7985:7993  inAmount */\n      dup7\n        /* \"contracts/SyCrowBarter.sol\":8007:8016  outAmount */\n      dup7\n        /* \"contracts/SyCrowBarter.sol\":7889:8026  sycrFactory.notifyTradeByBarter(... */\n      mload(0x40)\n      dup6\n      0xffffffff\n      and\n      0xe0\n      shl\n      dup2\n      mstore\n      0x04\n      add\n      tag_414\n      swap5\n      swap4\n      swap3\n      swap2\n      swap1\n      tag_207\n      jump\t// in\n    tag_414:\n      0x00\n      mload(0x40)\n      dup1\n      dup4\n      sub\n      dup2\n      0x00\n      dup8\n      dup1\n      extcodesize\n      iszero\n      dup1\n      iszero\n      tag_415\n      jumpi\n      0x00\n      dup1\n      revert\n    tag_415:\n      pop\n      gas\n      call\n      iszero\n      dup1\n      iszero\n      tag_417\n      jumpi\n      returndatasize\n      0x00\n      dup1\n      returndatacopy\n      revert(0x00, returndatasize)\n    tag_417:\n      pop\n      pop\n      pop\n      pop\n        /* \"contracts/SyCrowBarter.sol\":7232:8033  {... */\n      pop\n      pop\n        /* \"contracts/SyCrowBarter.sol\":7178:8033  function _tradeEthForToken(uint256 inAmount) internal {... */\n      pop\n      jump\t// out\n        /* \"@openzeppelin/contracts/access/Ownable.sol\":2270:2457  function _transferOwnership(address newOwner) internal virtual {... */\n    tag_267:\n        /* \"@openzeppelin/contracts/access/Ownable.sol\":2343:2359  address oldOwner */\n      0x00\n        /* \"@openzeppelin/contracts/access/Ownable.sol\":2362:2368  _owner */\n      dup1\n      0x00\n      swap1\n      sload\n      swap1\n      0x0100\n      exp\n      swap1\n      div\n      0xffffffffffffffffffffffffffffffffffffffff\n      and\n        /* \"@openzeppelin/contracts/access/Ownable.sol\":2343:2368  address oldOwner = _owner */\n      swap1\n      pop\n        /* \"@openzeppelin/contracts/access/Ownable.sol\":2387:2395  newOwner */\n      dup2\n        /* \"@openzeppelin/contracts/access/Ownable.sol\":2378:2384  _owner */\n      0x00\n      dup1\n        /* \"@openzeppelin/contracts/access/Ownable.sol\":2378:2395  _owner = newOwner */\n      0x0100\n      exp\n      dup2\n      sload\n      dup2\n      0xffffffffffffffffffffffffffffffffffffffff\n      mul\n      not\n      and\n      swap1\n      dup4\n      0xffffffffffffffffffffffffffffffffffffffff\n      and\n      mul\n      or\n      swap1\n      sstore\n      pop\n        /* \"@openzeppelin/contracts/access/Ownable.sol\":2441:2449  newOwner */\n      dup2\n        /* \"@openzeppelin/contracts/access/Ownable.sol\":2410:2450  OwnershipTransferred(oldOwner, newOwner) */\n      0xffffffffffffffffffffffffffffffffffffffff\n      and\n        /* \"@openzeppelin/contracts/access/Ownable.sol\":2431:2439  oldOwner */\n      dup2\n        /* \"@openzeppelin/contracts/access/Ownable.sol\":2410:2450  OwnershipTransferred(oldOwner, newOwner) */\n      0xffffffffffffffffffffffffffffffffffffffff\n      and\n      0x8be0079c531659141344cd1fd0a4f28419497f9722a3daafe3b4186f6b6457e0\n      mload(0x40)\n      mload(0x40)\n      dup1\n      swap2\n      sub\n      swap1\n      log3\n        /* \"@openzeppelin/contracts/access/Ownable.sol\":2333:2457  {... */\n      pop\n        /* \"@openzeppelin/contracts/access/Ownable.sol\":2270:2457  function _transferOwnership(address newOwner) internal virtual {... */\n      pop\n      jump\t// out\n        /* \"contracts/libraries/TransferHelper.sol\":929:1327  function safeTransferFrom(address token, address from, address to, uint value) internal {... */\n    tag_344:\n        /* \"contracts/libraries/TransferHelper.sol\":1106:1118  bool success */\n      0x00\n        /* \"contracts/libraries/TransferHelper.sol\":1120:1137  bytes memory data */\n      dup1\n        /* \"contracts/libraries/TransferHelper.sol\":1141:1146  token */\n      dup6\n        /* \"contracts/libraries/TransferHelper.sol\":1141:1151  token.call */\n      0xffffffffffffffffffffffffffffffffffffffff\n      and\n        /* \"contracts/libraries/TransferHelper.sol\":1175:1185  0x23b872dd */\n      0x23b872dd\n        /* \"contracts/libraries/TransferHelper.sol\":1187:1191  from */\n      dup7\n        /* \"contracts/libraries/TransferHelper.sol\":1193:1195  to */\n      dup7\n        /* \"contracts/libraries/TransferHelper.sol\":1197:1202  value */\n      dup7\n        /* \"contracts/libraries/TransferHelper.sol\":1152:1203  abi.encodeWithSelector(0x23b872dd, from, to, value) */\n      add(0x24, mload(0x40))\n      tag_420\n      swap4\n      swap3\n      swap2\n      swap1\n      tag_421\n      jump\t// in\n    tag_420:\n      mload(0x40)\n      0x20\n      dup2\n      dup4\n      sub\n      sub\n      dup2\n      mstore\n      swap1\n      0x40\n      mstore\n      swap1\n      0xe0\n      shl\n      0x20\n      dup3\n      add\n      dup1\n      mload\n      0xffffffffffffffffffffffffffffffffffffffffffffffffffffffff\n      dup4\n      dup2\n      dup4\n      and\n      or\n      dup4\n      mstore\n      pop\n      pop\n      pop\n      pop\n        /* \"contracts/libraries/TransferHelper.sol\":1141:1204  token.call(abi.encodeWithSelector(0x23b872dd, from, to, value)) */\n      mload(0x40)\n      tag_422\n      swap2\n      swap1\n      tag_378\n      jump\t// in\n    tag_422:\n      0x00\n      mload(0x40)\n      dup1\n      dup4\n      sub\n      dup2\n      0x00\n      dup7\n      gas\n      call\n      swap2\n      pop\n      pop\n      returndatasize\n      dup1\n      0x00\n      dup2\n      eq\n      tag_425\n      jumpi\n      mload(0x40)\n      swap2\n      pop\n      and(add(returndatasize, 0x3f), not(0x1f))\n      dup3\n      add\n      0x40\n      mstore\n      returndatasize\n      dup3\n      mstore\n      returndatasize\n      0x00\n      0x20\n      dup5\n      add\n      returndatacopy\n      jump(tag_424)\n    tag_425:\n      0x60\n      swap2\n      pop\n    tag_424:\n      pop\n        /* \"contracts/libraries/TransferHelper.sol\":1105:1204  (bool success, bytes memory data) = token.call(abi.encodeWithSelector(0x23b872dd, from, to, value)) */\n      swap2\n      pop\n      swap2\n      pop\n        /* \"contracts/libraries/TransferHelper.sol\":1222:1229  success */\n      dup2\n        /* \"contracts/libraries/TransferHelper.sol\":1222:1279  success && (data.length == 0 || abi.decode(data, (bool))) */\n      dup1\n      iszero\n      tag_426\n      jumpi\n      pop\n        /* \"contracts/libraries/TransferHelper.sol\":1249:1250  0 */\n      0x00\n        /* \"contracts/libraries/TransferHelper.sol\":1234:1238  data */\n      dup2\n        /* \"contracts/libraries/TransferHelper.sol\":1234:1245  data.length */\n      mload\n        /* \"contracts/libraries/TransferHelper.sol\":1234:1250  data.length == 0 */\n      eq\n        /* \"contracts/libraries/TransferHelper.sol\":1234:1278  data.length == 0 || abi.decode(data, (bool)) */\n      dup1\n      tag_427\n      jumpi\n      pop\n        /* \"contracts/libraries/TransferHelper.sol\":1265:1269  data */\n      dup1\n        /* \"contracts/libraries/TransferHelper.sol\":1254:1278  abi.decode(data, (bool)) */\n      dup1\n      0x20\n      add\n      swap1\n      mload\n      dup2\n      add\n      swap1\n      tag_428\n      swap2\n      swap1\n      tag_107\n      jump\t// in\n    tag_428:\n        /* \"contracts/libraries/TransferHelper.sol\":1234:1278  data.length == 0 || abi.decode(data, (bool)) */\n    tag_427:\n        /* \"contracts/libraries/TransferHelper.sol\":1222:1279  success && (data.length == 0 || abi.decode(data, (bool))) */\n    tag_426:\n        /* \"contracts/libraries/TransferHelper.sol\":1214:1320  require(success && (data.length == 0 || abi.decode(data, (bool))), 'TransferHelper: TRANSFER_FROM_FAILED') */\n      tag_429\n      jumpi\n      mload(0x40)\n      0x08c379a000000000000000000000000000000000000000000000000000000000\n      dup2\n      mstore\n      0x04\n      add\n      tag_430\n      swap1\n      tag_431\n      jump\t// in\n    tag_430:\n      mload(0x40)\n      dup1\n      swap2\n      sub\n      swap1\n      revert\n    tag_429:\n        /* \"contracts/libraries/TransferHelper.sol\":1017:1327  {... */\n      pop\n      pop\n        /* \"contracts/libraries/TransferHelper.sol\":929:1327  function safeTransferFrom(address token, address from, address to, uint value) internal {... */\n      pop\n      pop\n      pop\n      pop\n      jump\t// out\n        /* \"#utility.yul\":88:205   */\n    tag_433:\n        /* \"#utility.yul\":197:198   */\n      0x00\n        /* \"#utility.yul\":194:195   */\n      dup1\n        /* \"#utility.yul\":187:199   */\n      revert\n        /* \"#utility.yul\":334:411   */\n    tag_435:\n        /* \"#utility.yul\":371:378   */\n      0x00\n        /* \"#utility.yul\":400:405   */\n      dup2\n        /* \"#utility.yul\":389:405   */\n      swap1\n      pop\n        /* \"#utility.yul\":334:411   */\n      swap2\n      swap1\n      pop\n      jump\t// out\n        /* \"#utility.yul\":417:539   */\n    tag_436:\n        /* \"#utility.yul\":490:514   */\n      tag_519\n        /* \"#utility.yul\":508:513   */\n      dup2\n        /* \"#utility.yul\":490:514   */\n      tag_435\n      jump\t// in\n    tag_519:\n        /* \"#utility.yul\":483:488   */\n      dup2\n        /* \"#utility.yul\":480:515   */\n      eq\n        /* \"#utility.yul\":470:533   */\n      tag_520\n      jumpi\n        /* \"#utility.yul\":529:530   */\n      0x00\n        /* \"#utility.yul\":526:527   */\n      dup1\n        /* \"#utility.yul\":519:531   */\n      revert\n        /* \"#utility.yul\":470:533   */\n    tag_520:\n        /* \"#utility.yul\":417:539   */\n      pop\n      jump\t// out\n        /* \"#utility.yul\":545:684   */\n    tag_437:\n        /* \"#utility.yul\":591:596   */\n      0x00\n        /* \"#utility.yul\":629:635   */\n      dup2\n        /* \"#utility.yul\":616:636   */\n      calldataload\n        /* \"#utility.yul\":607:636   */\n      swap1\n      pop\n        /* \"#utility.yul\":645:678   */\n      tag_522\n        /* \"#utility.yul\":672:677   */\n      dup2\n        /* \"#utility.yul\":645:678   */\n      tag_436\n      jump\t// in\n    tag_522:\n        /* \"#utility.yul\":545:684   */\n      swap3\n      swap2\n      pop\n      pop\n      jump\t// out\n        /* \"#utility.yul\":690:1019   */\n    tag_24:\n        /* \"#utility.yul\":749:755   */\n      0x00\n        /* \"#utility.yul\":798:800   */\n      0x20\n        /* \"#utility.yul\":786:795   */\n      dup3\n        /* \"#utility.yul\":777:784   */\n      dup5\n        /* \"#utility.yul\":773:796   */\n      sub\n        /* \"#utility.yul\":769:801   */\n      slt\n        /* \"#utility.yul\":766:885   */\n      iszero\n      tag_524\n      jumpi\n        /* \"#utility.yul\":804:883   */\n      tag_525\n      tag_433\n      jump\t// in\n    tag_525:\n        /* \"#utility.yul\":766:885   */\n    tag_524:\n        /* \"#utility.yul\":924:925   */\n      0x00\n        /* \"#utility.yul\":949:1002   */\n      tag_526\n        /* \"#utility.yul\":994:1001   */\n      dup5\n        /* \"#utility.yul\":985:991   */\n      dup3\n        /* \"#utility.yul\":974:983   */\n      dup6\n        /* \"#utility.yul\":970:992   */\n      add\n        /* \"#utility.yul\":949:1002   */\n      tag_437\n      jump\t// in\n    tag_526:\n        /* \"#utility.yul\":939:1002   */\n      swap2\n      pop\n        /* \"#utility.yul\":895:1012   */\n      pop\n        /* \"#utility.yul\":690:1019   */\n      swap3\n      swap2\n      pop\n      pop\n      jump\t// out\n        /* \"#utility.yul\":1025:1115   */\n    tag_438:\n        /* \"#utility.yul\":1059:1066   */\n      0x00\n        /* \"#utility.yul\":1102:1107   */\n      dup2\n        /* \"#utility.yul\":1095:1108   */\n      iszero\n        /* \"#utility.yul\":1088:1109   */\n      iszero\n        /* \"#utility.yul\":1077:1109   */\n      swap1\n      pop\n        /* \"#utility.yul\":1025:1115   */\n      swap2\n      swap1\n      pop\n      jump\t// out\n        /* \"#utility.yul\":1121:1230   */\n    tag_439:\n        /* \"#utility.yul\":1202:1223   */\n      tag_529\n        /* \"#utility.yul\":1217:1222   */\n      dup2\n        /* \"#utility.yul\":1202:1223   */\n      tag_438\n      jump\t// in\n    tag_529:\n        /* \"#utility.yul\":1197:1200   */\n      dup3\n        /* \"#utility.yul\":1190:1224   */\n      mstore\n        /* \"#utility.yul\":1121:1230   */\n      pop\n      pop\n      jump\t// out\n        /* \"#utility.yul\":1236:1446   */\n    tag_34:\n        /* \"#utility.yul\":1323:1327   */\n      0x00\n        /* \"#utility.yul\":1361:1363   */\n      0x20\n        /* \"#utility.yul\":1350:1359   */\n      dup3\n        /* \"#utility.yul\":1346:1364   */\n      add\n        /* \"#utility.yul\":1338:1364   */\n      swap1\n      pop\n        /* \"#utility.yul\":1374:1439   */\n      tag_531\n        /* \"#utility.yul\":1436:1437   */\n      0x00\n        /* \"#utility.yul\":1425:1434   */\n      dup4\n        /* \"#utility.yul\":1421:1438   */\n      add\n        /* \"#utility.yul\":1412:1418   */\n      dup5\n        /* \"#utility.yul\":1374:1439   */\n      tag_439\n      jump\t// in\n    tag_531:\n        /* \"#utility.yul\":1236:1446   */\n      swap3\n      swap2\n      pop\n      pop\n      jump\t// out\n        /* \"#utility.yul\":1452:1570   */\n    tag_440:\n        /* \"#utility.yul\":1539:1563   */\n      tag_533\n        /* \"#utility.yul\":1557:1562   */\n      dup2\n        /* \"#utility.yul\":1539:1563   */\n      tag_435\n      jump\t// in\n    tag_533:\n        /* \"#utility.yul\":1534:1537   */\n      dup3\n        /* \"#utility.yul\":1527:1564   */\n      mstore\n        /* \"#utility.yul\":1452:1570   */\n      pop\n      pop\n      jump\t// out\n        /* \"#utility.yul\":1576:1908   */\n    tag_42:\n        /* \"#utility.yul\":1697:1701   */\n      0x00\n        /* \"#utility.yul\":1735:1737   */\n      0x40\n        /* \"#utility.yul\":1724:1733   */\n      dup3\n        /* \"#utility.yul\":1720:1738   */\n      add\n        /* \"#utility.yul\":1712:1738   */\n      swap1\n      pop\n        /* \"#utility.yul\":1748:1819   */\n      tag_535\n        /* \"#utility.yul\":1816:1817   */\n      0x00\n        /* \"#utility.yul\":1805:1814   */\n      dup4\n        /* \"#utility.yul\":1801:1818   */\n      add\n        /* \"#utility.yul\":1792:1798   */\n      dup6\n        /* \"#utility.yul\":1748:1819   */\n      tag_440\n      jump\t// in\n    tag_535:\n        /* \"#utility.yul\":1829:1901   */\n      tag_536\n        /* \"#utility.yul\":1897:1899   */\n      0x20\n        /* \"#utility.yul\":1886:1895   */\n      dup4\n        /* \"#utility.yul\":1882:1900   */\n      add\n        /* \"#utility.yul\":1873:1879   */\n      dup5\n        /* \"#utility.yul\":1829:1901   */\n      tag_440\n      jump\t// in\n    tag_536:\n        /* \"#utility.yul\":1576:1908   */\n      swap4\n      swap3\n      pop\n      pop\n      pop\n      jump\t// out\n        /* \"#utility.yul\":1914:2136   */\n    tag_47:\n        /* \"#utility.yul\":2007:2011   */\n      0x00\n        /* \"#utility.yul\":2045:2047   */\n      0x20\n        /* \"#utility.yul\":2034:2043   */\n      dup3\n        /* \"#utility.yul\":2030:2048   */\n      add\n        /* \"#utility.yul\":2022:2048   */\n      swap1\n      pop\n        /* \"#utility.yul\":2058:2129   */\n      tag_538\n        /* \"#utility.yul\":2126:2127   */\n      0x00\n        /* \"#utility.yul\":2115:2124   */\n      dup4\n        /* \"#utility.yul\":2111:2128   */\n      add\n        /* \"#utility.yul\":2102:2108   */\n      dup5\n        /* \"#utility.yul\":2058:2129   */\n      tag_440\n      jump\t// in\n    tag_538:\n        /* \"#utility.yul\":1914:2136   */\n      swap3\n      swap2\n      pop\n      pop\n      jump\t// out\n        /* \"#utility.yul\":2142:2263   */\n    tag_441:\n        /* \"#utility.yul\":2237:2238   */\n      0x03\n        /* \"#utility.yul\":2230:2235   */\n      dup2\n        /* \"#utility.yul\":2227:2239   */\n      lt\n        /* \"#utility.yul\":2217:2257   */\n      tag_540\n      jumpi\n        /* \"#utility.yul\":2253:2254   */\n      0x00\n        /* \"#utility.yul\":2250:2251   */\n      dup1\n        /* \"#utility.yul\":2243:2255   */\n      revert\n        /* \"#utility.yul\":2217:2257   */\n    tag_540:\n        /* \"#utility.yul\":2142:2263   */\n      pop\n      jump\t// out\n        /* \"#utility.yul\":2269:2452   */\n    tag_442:\n        /* \"#utility.yul\":2337:2342   */\n      0x00\n        /* \"#utility.yul\":2375:2381   */\n      dup2\n        /* \"#utility.yul\":2362:2382   */\n      calldataload\n        /* \"#utility.yul\":2353:2382   */\n      swap1\n      pop\n        /* \"#utility.yul\":2391:2446   */\n      tag_542\n        /* \"#utility.yul\":2440:2445   */\n      dup2\n        /* \"#utility.yul\":2391:2446   */\n      tag_441\n      jump\t// in\n    tag_542:\n        /* \"#utility.yul\":2269:2452   */\n      swap3\n      swap2\n      pop\n      pop\n      jump\t// out\n        /* \"#utility.yul\":2458:2584   */\n    tag_443:\n        /* \"#utility.yul\":2495:2502   */\n      0x00\n        /* \"#utility.yul\":2535:2577   */\n      0xffffffffffffffffffffffffffffffffffffffff\n        /* \"#utility.yul\":2528:2533   */\n      dup3\n        /* \"#utility.yul\":2524:2578   */\n      and\n        /* \"#utility.yul\":2513:2578   */\n      swap1\n      pop\n        /* \"#utility.yul\":2458:2584   */\n      swap2\n      swap1\n      pop\n      jump\t// out\n        /* \"#utility.yul\":2590:2686   */\n    tag_444:\n        /* \"#utility.yul\":2627:2634   */\n      0x00\n        /* \"#utility.yul\":2656:2680   */\n      tag_545\n        /* \"#utility.yul\":2674:2679   */\n      dup3\n        /* \"#utility.yul\":2656:2680   */\n      tag_443\n      jump\t// in\n    tag_545:\n        /* \"#utility.yul\":2645:2680   */\n      swap1\n      pop\n        /* \"#utility.yul\":2590:2686   */\n      swap2\n      swap1\n      pop\n      jump\t// out\n        /* \"#utility.yul\":2692:2814   */\n    tag_445:\n        /* \"#utility.yul\":2765:2789   */\n      tag_547\n        /* \"#utility.yul\":2783:2788   */\n      dup2\n        /* \"#utility.yul\":2765:2789   */\n      tag_444\n      jump\t// in\n    tag_547:\n        /* \"#utility.yul\":2758:2763   */\n      dup2\n        /* \"#utility.yul\":2755:2790   */\n      eq\n        /* \"#utility.yul\":2745:2808   */\n      tag_548\n      jumpi\n        /* \"#utility.yul\":2804:2805   */\n      0x00\n        /* \"#utility.yul\":2801:2802   */\n      dup1\n        /* \"#utility.yul\":2794:2806   */\n      revert\n        /* \"#utility.yul\":2745:2808   */\n    tag_548:\n        /* \"#utility.yul\":2692:2814   */\n      pop\n      jump\t// out\n        /* \"#utility.yul\":2820:2959   */\n    tag_446:\n        /* \"#utility.yul\":2866:2871   */\n      0x00\n        /* \"#utility.yul\":2904:2910   */\n      dup2\n        /* \"#utility.yul\":2891:2911   */\n      calldataload\n        /* \"#utility.yul\":2882:2911   */\n      swap1\n      pop\n        /* \"#utility.yul\":2920:2953   */\n      tag_550\n        /* \"#utility.yul\":2947:2952   */\n      dup2\n        /* \"#utility.yul\":2920:2953   */\n      tag_445\n      jump\t// in\n    tag_550:\n        /* \"#utility.yul\":2820:2959   */\n      swap3\n      swap2\n      pop\n      pop\n      jump\t// out\n        /* \"#utility.yul\":2965:3081   */\n    tag_447:\n        /* \"#utility.yul\":3035:3056   */\n      tag_552\n        /* \"#utility.yul\":3050:3055   */\n      dup2\n        /* \"#utility.yul\":3035:3056   */\n      tag_438\n      jump\t// in\n    tag_552:\n        /* \"#utility.yul\":3028:3033   */\n      dup2\n        /* \"#utility.yul\":3025:3057   */\n      eq\n        /* \"#utility.yul\":3015:3075   */\n      tag_553\n      jumpi\n        /* \"#utility.yul\":3071:3072   */\n      0x00\n        /* \"#utility.yul\":3068:3069   */\n      dup1\n        /* \"#utility.yul\":3061:3073   */\n      revert\n        /* \"#utility.yul\":3015:3075   */\n    tag_553:\n        /* \"#utility.yul\":2965:3081   */\n      pop\n      jump\t// out\n        /* \"#utility.yul\":3087:3220   */\n    tag_448:\n        /* \"#utility.yul\":3130:3135   */\n      0x00\n        /* \"#utility.yul\":3168:3174   */\n      dup2\n        /* \"#utility.yul\":3155:3175   */\n      calldataload\n        /* \"#utility.yul\":3146:3175   */\n      swap1\n      pop\n        /* \"#utility.yul\":3184:3214   */\n      tag_555\n        /* \"#utility.yul\":3208:3213   */\n      dup2\n        /* \"#utility.yul\":3184:3214   */\n      tag_447\n      jump\t// in\n    tag_555:\n        /* \"#utility.yul\":3087:3220   */\n      swap3\n      swap2\n      pop\n      pop\n      jump\t// out\n        /* \"#utility.yul\":3226:4613   */\n    tag_54:\n        /* \"#utility.yul\":3367:3373   */\n      0x00\n        /* \"#utility.yul\":3375:3381   */\n      dup1\n        /* \"#utility.yul\":3383:3389   */\n      0x00\n        /* \"#utility.yul\":3391:3397   */\n      dup1\n        /* \"#utility.yul\":3399:3405   */\n      0x00\n        /* \"#utility.yul\":3407:3413   */\n      dup1\n        /* \"#utility.yul\":3415:3421   */\n      0x00\n        /* \"#utility.yul\":3423:3429   */\n      dup1\n        /* \"#utility.yul\":3472:3475   */\n      0x0100\n        /* \"#utility.yul\":3460:3469   */\n      dup10\n        /* \"#utility.yul\":3451:3458   */\n      dup12\n        /* \"#utility.yul\":3447:3470   */\n      sub\n        /* \"#utility.yul\":3443:3476   */\n      slt\n        /* \"#utility.yul\":3440:3560   */\n      iszero\n      tag_557\n      jumpi\n        /* \"#utility.yul\":3479:3558   */\n      tag_558\n      tag_433\n      jump\t// in\n    tag_558:\n        /* \"#utility.yul\":3440:3560   */\n    tag_557:\n        /* \"#utility.yul\":3599:3600   */\n      0x00\n        /* \"#utility.yul\":3624:3699   */\n      tag_559\n        /* \"#utility.yul\":3691:3698   */\n      dup12\n        /* \"#utility.yul\":3682:3688   */\n      dup3\n        /* \"#utility.yul\":3671:3680   */\n      dup13\n        /* \"#utility.yul\":3667:3689   */\n      add\n        /* \"#utility.yul\":3624:3699   */\n      tag_442\n      jump\t// in\n    tag_559:\n        /* \"#utility.yul\":3614:3699   */\n      swap9\n      pop\n        /* \"#utility.yul\":3570:3709   */\n      pop\n        /* \"#utility.yul\":3748:3750   */\n      0x20\n        /* \"#utility.yul\":3774:3827   */\n      tag_560\n        /* \"#utility.yul\":3819:3826   */\n      dup12\n        /* \"#utility.yul\":3810:3816   */\n      dup3\n        /* \"#utility.yul\":3799:3808   */\n      dup13\n        /* \"#utility.yul\":3795:3817   */\n      add\n        /* \"#utility.yul\":3774:3827   */\n      tag_446\n      jump\t// in\n    tag_560:\n        /* \"#utility.yul\":3764:3827   */\n      swap8\n      pop\n        /* \"#utility.yul\":3719:3837   */\n      pop\n        /* \"#utility.yul\":3876:3878   */\n      0x40\n        /* \"#utility.yul\":3902:3955   */\n      tag_561\n        /* \"#utility.yul\":3947:3954   */\n      dup12\n        /* \"#utility.yul\":3938:3944   */\n      dup3\n        /* \"#utility.yul\":3927:3936   */\n      dup13\n        /* \"#utility.yul\":3923:3945   */\n      add\n        /* \"#utility.yul\":3902:3955   */\n      tag_446\n      jump\t// in\n    tag_561:\n        /* \"#utility.yul\":3892:3955   */\n      swap7\n      pop\n        /* \"#utility.yul\":3847:3965   */\n      pop\n        /* \"#utility.yul\":4004:4006   */\n      0x60\n        /* \"#utility.yul\":4030:4083   */\n      tag_562\n        /* \"#utility.yul\":4075:4082   */\n      dup12\n        /* \"#utility.yul\":4066:4072   */\n      dup3\n        /* \"#utility.yul\":4055:4064   */\n      dup13\n        /* \"#utility.yul\":4051:4073   */\n      add\n        /* \"#utility.yul\":4030:4083   */\n      tag_437\n      jump\t// in\n    tag_562:\n        /* \"#utility.yul\":4020:4083   */\n      swap6\n      pop\n        /* \"#utility.yul\":3975:4093   */\n      pop\n        /* \"#utility.yul\":4132:4135   */\n      0x80\n        /* \"#utility.yul\":4159:4212   */\n      tag_563\n        /* \"#utility.yul\":4204:4211   */\n      dup12\n        /* \"#utility.yul\":4195:4201   */\n      dup3\n        /* \"#utility.yul\":4184:4193   */\n      dup13\n        /* \"#utility.yul\":4180:4202   */\n      add\n        /* \"#utility.yul\":4159:4212   */\n      tag_437\n      jump\t// in\n    tag_563:\n        /* \"#utility.yul\":4149:4212   */\n      swap5\n      pop\n        /* \"#utility.yul\":4103:4222   */\n      pop\n        /* \"#utility.yul\":4261:4264   */\n      0xa0\n        /* \"#utility.yul\":4288:4341   */\n      tag_564\n        /* \"#utility.yul\":4333:4340   */\n      dup12\n        /* \"#utility.yul\":4324:4330   */\n      dup3\n        /* \"#utility.yul\":4313:4322   */\n      dup13\n        /* \"#utility.yul\":4309:4331   */\n      add\n        /* \"#utility.yul\":4288:4341   */\n      tag_437\n      jump\t// in\n    tag_564:\n        /* \"#utility.yul\":4278:4341   */\n      swap4\n      pop\n        /* \"#utility.yul\":4232:4351   */\n      pop\n        /* \"#utility.yul\":4390:4393   */\n      0xc0\n        /* \"#utility.yul\":4417:4467   */\n      tag_565\n        /* \"#utility.yul\":4459:4466   */\n      dup12\n        /* \"#utility.yul\":4450:4456   */\n      dup3\n        /* \"#utility.yul\":4439:4448   */\n      dup13\n        /* \"#utility.yul\":4435:4457   */\n      add\n        /* \"#utility.yul\":4417:4467   */\n      tag_448\n      jump\t// in\n    tag_565:\n        /* \"#utility.yul\":4407:4467   */\n      swap3\n      pop\n        /* \"#utility.yul\":4361:4477   */\n      pop\n        /* \"#utility.yul\":4516:4519   */\n      0xe0\n        /* \"#utility.yul\":4543:4596   */\n      tag_566\n        /* \"#utility.yul\":4588:4595   */\n      dup12\n        /* \"#utility.yul\":4579:4585   */\n      dup3\n        /* \"#utility.yul\":4568:4577   */\n      dup13\n        /* \"#utility.yul\":4564:4586   */\n      add\n        /* \"#utility.yul\":4543:4596   */\n      tag_446\n      jump\t// in\n    tag_566:\n        /* \"#utility.yul\":4533:4596   */\n      swap2\n      pop\n        /* \"#utility.yul\":4487:4606   */\n      pop\n        /* \"#utility.yul\":3226:4613   */\n      swap3\n      swap6\n      swap9\n      pop\n      swap3\n      swap6\n      swap9\n      swap1\n      swap4\n      swap7\n      pop\n      jump\t// out\n        /* \"#utility.yul\":4619:4799   */\n    tag_114:\n        /* \"#utility.yul\":4667:4744   */\n      0x4e487b7100000000000000000000000000000000000000000000000000000000\n        /* \"#utility.yul\":4664:4665   */\n      0x00\n        /* \"#utility.yul\":4657:4745   */\n      mstore\n        /* \"#utility.yul\":4764:4768   */\n      0x21\n        /* \"#utility.yul\":4761:4762   */\n      0x04\n        /* \"#utility.yul\":4754:4769   */\n      mstore\n        /* \"#utility.yul\":4788:4792   */\n      0x24\n        /* \"#utility.yul\":4785:4786   */\n      0x00\n        /* \"#utility.yul\":4778:4793   */\n      revert\n        /* \"#utility.yul\":4805:4932   */\n    tag_449:\n        /* \"#utility.yul\":4900:4901   */\n      0x03\n        /* \"#utility.yul\":4893:4898   */\n      dup2\n        /* \"#utility.yul\":4890:4902   */\n      lt\n        /* \"#utility.yul\":4880:4926   */\n      tag_569\n      jumpi\n        /* \"#utility.yul\":4906:4924   */\n      tag_570\n      tag_114\n      jump\t// in\n    tag_570:\n        /* \"#utility.yul\":4880:4926   */\n    tag_569:\n        /* \"#utility.yul\":4805:4932   */\n      pop\n      jump\t// out\n        /* \"#utility.yul\":4938:5093   */\n    tag_450:\n        /* \"#utility.yul\":4997:5004   */\n      0x00\n        /* \"#utility.yul\":5026:5031   */\n      dup2\n        /* \"#utility.yul\":5015:5031   */\n      swap1\n      pop\n        /* \"#utility.yul\":5032:5087   */\n      tag_572\n        /* \"#utility.yul\":5081:5086   */\n      dup3\n        /* \"#utility.yul\":5032:5087   */\n      tag_449\n      jump\t// in\n    tag_572:\n        /* \"#utility.yul\":4938:5093   */\n      swap2\n      swap1\n      pop\n      jump\t// out\n        /* \"#utility.yul\":5099:5254   */\n    tag_451:\n        /* \"#utility.yul\":5169:5178   */\n      0x00\n        /* \"#utility.yul\":5202:5248   */\n      tag_574\n        /* \"#utility.yul\":5242:5247   */\n      dup3\n        /* \"#utility.yul\":5202:5248   */\n      tag_450\n      jump\t// in\n    tag_574:\n        /* \"#utility.yul\":5189:5248   */\n      swap1\n      pop\n        /* \"#utility.yul\":5099:5254   */\n      swap2\n      swap1\n      pop\n      jump\t// out\n        /* \"#utility.yul\":5260:5431   */\n    tag_452:\n        /* \"#utility.yul\":5367:5424   */\n      tag_576\n        /* \"#utility.yul\":5418:5423   */\n      dup2\n        /* \"#utility.yul\":5367:5424   */\n      tag_451\n      jump\t// in\n    tag_576:\n        /* \"#utility.yul\":5362:5365   */\n      dup3\n        /* \"#utility.yul\":5355:5425   */\n      mstore\n        /* \"#utility.yul\":5260:5431   */\n      pop\n      pop\n      jump\t// out\n        /* \"#utility.yul\":5437:5699   */\n    tag_64:\n        /* \"#utility.yul\":5550:5554   */\n      0x00\n        /* \"#utility.yul\":5588:5590   */\n      0x20\n        /* \"#utility.yul\":5577:5586   */\n      dup3\n        /* \"#utility.yul\":5573:5591   */\n      add\n        /* \"#utility.yul\":5565:5591   */\n      swap1\n      pop\n        /* \"#utility.yul\":5601:5692   */\n      tag_578\n        /* \"#utility.yul\":5689:5690   */\n      0x00\n        /* \"#utility.yul\":5678:5687   */\n      dup4\n        /* \"#utility.yul\":5674:5691   */\n      add\n        /* \"#utility.yul\":5665:5671   */\n      dup5\n        /* \"#utility.yul\":5601:5692   */\n      tag_452\n      jump\t// in\n    tag_578:\n        /* \"#utility.yul\":5437:5699   */\n      swap3\n      swap2\n      pop\n      pop\n      jump\t// out\n        /* \"#utility.yul\":5705:5823   */\n    tag_453:\n        /* \"#utility.yul\":5792:5816   */\n      tag_580\n        /* \"#utility.yul\":5810:5815   */\n      dup2\n        /* \"#utility.yul\":5792:5816   */\n      tag_444\n      jump\t// in\n    tag_580:\n        /* \"#utility.yul\":5787:5790   */\n      dup3\n        /* \"#utility.yul\":5780:5817   */\n      mstore\n        /* \"#utility.yul\":5705:5823   */\n      pop\n      pop\n      jump\t// out\n        /* \"#utility.yul\":5829:6051   */\n    tag_69:\n        /* \"#utility.yul\":5922:5926   */\n      0x00\n        /* \"#utility.yul\":5960:5962   */\n      0x20\n        /* \"#utility.yul\":5949:5958   */\n      dup3\n        /* \"#utility.yul\":5945:5963   */\n      add\n        /* \"#utility.yul\":5937:5963   */\n      swap1\n      pop\n        /* \"#utility.yul\":5973:6044   */\n      tag_582\n        /* \"#utility.yul\":6041:6042   */\n      0x00\n        /* \"#utility.yul\":6030:6039   */\n      dup4\n        /* \"#utility.yul\":6026:6043   */\n      add\n        /* \"#utility.yul\":6017:6023   */\n      dup5\n        /* \"#utility.yul\":5973:6044   */\n      tag_453\n      jump\t// in\n    tag_582:\n        /* \"#utility.yul\":5829:6051   */\n      swap3\n      swap2\n      pop\n      pop\n      jump\t// out\n        /* \"#utility.yul\":6057:6389   */\n    tag_74:\n        /* \"#utility.yul\":6178:6182   */\n      0x00\n        /* \"#utility.yul\":6216:6218   */\n      0x40\n        /* \"#utility.yul\":6205:6214   */\n      dup3\n        /* \"#utility.yul\":6201:6219   */\n      add\n        /* \"#utility.yul\":6193:6219   */\n      swap1\n      pop\n        /* \"#utility.yul\":6229:6300   */\n      tag_584\n        /* \"#utility.yul\":6297:6298   */\n      0x00\n        /* \"#utility.yul\":6286:6295   */\n      dup4\n        /* \"#utility.yul\":6282:6299   */\n      add\n        /* \"#utility.yul\":6273:6279   */\n      dup6\n        /* \"#utility.yul\":6229:6300   */\n      tag_453\n      jump\t// in\n    tag_584:\n        /* \"#utility.yul\":6310:6382   */\n      tag_585\n        /* \"#utility.yul\":6378:6380   */\n      0x20\n        /* \"#utility.yul\":6367:6376   */\n      dup4\n        /* \"#utility.yul\":6363:6381   */\n      add\n        /* \"#utility.yul\":6354:6360   */\n      dup5\n        /* \"#utility.yul\":6310:6382   */\n      tag_453\n      jump\t// in\n    tag_585:\n        /* \"#utility.yul\":6057:6389   */\n      swap4\n      swap3\n      pop\n      pop\n      pop\n      jump\t// out\n        /* \"#utility.yul\":6395:6509   */\n    tag_454:\n        /* \"#utility.yul\":6462:6468   */\n      0x00\n        /* \"#utility.yul\":6496:6501   */\n      dup2\n        /* \"#utility.yul\":6490:6502   */\n      mload\n        /* \"#utility.yul\":6480:6502   */\n      swap1\n      pop\n        /* \"#utility.yul\":6395:6509   */\n      swap2\n      swap1\n      pop\n      jump\t// out\n        /* \"#utility.yul\":6515:6699   */\n    tag_455:\n        /* \"#utility.yul\":6614:6625   */\n      0x00\n        /* \"#utility.yul\":6648:6654   */\n      dup3\n        /* \"#utility.yul\":6643:6646   */\n      dup3\n        /* \"#utility.yul\":6636:6655   */\n      mstore\n        /* \"#utility.yul\":6688:6692   */\n      0x20\n        /* \"#utility.yul\":6683:6686   */\n      dup3\n        /* \"#utility.yul\":6679:6693   */\n      add\n        /* \"#utility.yul\":6664:6693   */\n      swap1\n      pop\n        /* \"#utility.yul\":6515:6699   */\n      swap3\n      swap2\n      pop\n      pop\n      jump\t// out\n        /* \"#utility.yul\":6705:6837   */\n    tag_456:\n        /* \"#utility.yul\":6772:6776   */\n      0x00\n        /* \"#utility.yul\":6795:6798   */\n      dup2\n        /* \"#utility.yul\":6787:6798   */\n      swap1\n      pop\n        /* \"#utility.yul\":6825:6829   */\n      0x20\n        /* \"#utility.yul\":6820:6823   */\n      dup3\n        /* \"#utility.yul\":6816:6830   */\n      add\n        /* \"#utility.yul\":6808:6830   */\n      swap1\n      pop\n        /* \"#utility.yul\":6705:6837   */\n      swap2\n      swap1\n      pop\n      jump\t// out\n        /* \"#utility.yul\":6843:6951   */\n    tag_457:\n        /* \"#utility.yul\":6920:6944   */\n      tag_590\n        /* \"#utility.yul\":6938:6943   */\n      dup2\n        /* \"#utility.yul\":6920:6944   */\n      tag_444\n      jump\t// in\n    tag_590:\n        /* \"#utility.yul\":6915:6918   */\n      dup3\n        /* \"#utility.yul\":6908:6945   */\n      mstore\n        /* \"#utility.yul\":6843:6951   */\n      pop\n      pop\n      jump\t// out\n        /* \"#utility.yul\":6957:7136   */\n    tag_458:\n        /* \"#utility.yul\":7026:7036   */\n      0x00\n        /* \"#utility.yul\":7047:7093   */\n      tag_592\n        /* \"#utility.yul\":7089:7092   */\n      dup4\n        /* \"#utility.yul\":7081:7087   */\n      dup4\n        /* \"#utility.yul\":7047:7093   */\n      tag_457\n      jump\t// in\n    tag_592:\n        /* \"#utility.yul\":7125:7129   */\n      0x20\n        /* \"#utility.yul\":7120:7123   */\n      dup4\n        /* \"#utility.yul\":7116:7130   */\n      add\n        /* \"#utility.yul\":7102:7130   */\n      swap1\n      pop\n        /* \"#utility.yul\":6957:7136   */\n      swap3\n      swap2\n      pop\n      pop\n      jump\t// out\n        /* \"#utility.yul\":7142:7255   */\n    tag_459:\n        /* \"#utility.yul\":7212:7216   */\n      0x00\n        /* \"#utility.yul\":7244:7248   */\n      0x20\n        /* \"#utility.yul\":7239:7242   */\n      dup3\n        /* \"#utility.yul\":7235:7249   */\n      add\n        /* \"#utility.yul\":7227:7249   */\n      swap1\n      pop\n        /* \"#utility.yul\":7142:7255   */\n      swap2\n      swap1\n      pop\n      jump\t// out\n        /* \"#utility.yul\":7291:8023   */\n    tag_460:\n        /* \"#utility.yul\":7410:7413   */\n      0x00\n        /* \"#utility.yul\":7439:7493   */\n      tag_595\n        /* \"#utility.yul\":7487:7492   */\n      dup3\n        /* \"#utility.yul\":7439:7493   */\n      tag_454\n      jump\t// in\n    tag_595:\n        /* \"#utility.yul\":7509:7595   */\n      tag_596\n        /* \"#utility.yul\":7588:7594   */\n      dup2\n        /* \"#utility.yul\":7583:7586   */\n      dup6\n        /* \"#utility.yul\":7509:7595   */\n      tag_455\n      jump\t// in\n    tag_596:\n        /* \"#utility.yul\":7502:7595   */\n      swap4\n      pop\n        /* \"#utility.yul\":7619:7675   */\n      tag_597\n        /* \"#utility.yul\":7669:7674   */\n      dup4\n        /* \"#utility.yul\":7619:7675   */\n      tag_456\n      jump\t// in\n    tag_597:\n        /* \"#utility.yul\":7698:7705   */\n      dup1\n        /* \"#utility.yul\":7729:7730   */\n      0x00\n        /* \"#utility.yul\":7714:7998   */\n    tag_598:\n        /* \"#utility.yul\":7739:7745   */\n      dup4\n        /* \"#utility.yul\":7736:7737   */\n      dup2\n        /* \"#utility.yul\":7733:7746   */\n      lt\n        /* \"#utility.yul\":7714:7998   */\n      iszero\n      tag_600\n      jumpi\n        /* \"#utility.yul\":7815:7821   */\n      dup2\n        /* \"#utility.yul\":7809:7822   */\n      mload\n        /* \"#utility.yul\":7842:7905   */\n      tag_601\n        /* \"#utility.yul\":7901:7904   */\n      dup9\n        /* \"#utility.yul\":7886:7899   */\n      dup3\n        /* \"#utility.yul\":7842:7905   */\n      tag_458\n      jump\t// in\n    tag_601:\n        /* \"#utility.yul\":7835:7905   */\n      swap8\n      pop\n        /* \"#utility.yul\":7928:7988   */\n      tag_602\n        /* \"#utility.yul\":7981:7987   */\n      dup4\n        /* \"#utility.yul\":7928:7988   */\n      tag_459\n      jump\t// in\n    tag_602:\n        /* \"#utility.yul\":7918:7988   */\n      swap3\n      pop\n        /* \"#utility.yul\":7774:7998   */\n      pop\n        /* \"#utility.yul\":7761:7762   */\n      0x01\n        /* \"#utility.yul\":7758:7759   */\n      dup2\n        /* \"#utility.yul\":7754:7763   */\n      add\n        /* \"#utility.yul\":7749:7763   */\n      swap1\n      pop\n        /* \"#utility.yul\":7714:7998   */\n      jump(tag_598)\n    tag_600:\n        /* \"#utility.yul\":7718:7732   */\n      pop\n        /* \"#utility.yul\":8014:8017   */\n      dup6\n        /* \"#utility.yul\":8007:8017   */\n      swap4\n      pop\n        /* \"#utility.yul\":7415:8023   */\n      pop\n      pop\n      pop\n        /* \"#utility.yul\":7291:8023   */\n      swap3\n      swap2\n      pop\n      pop\n      jump\t// out\n        /* \"#utility.yul\":8029:8143   */\n    tag_461:\n        /* \"#utility.yul\":8096:8102   */\n      0x00\n        /* \"#utility.yul\":8130:8135   */\n      dup2\n        /* \"#utility.yul\":8124:8136   */\n      mload\n        /* \"#utility.yul\":8114:8136   */\n      swap1\n      pop\n        /* \"#utility.yul\":8029:8143   */\n      swap2\n      swap1\n      pop\n      jump\t// out\n        /* \"#utility.yul\":8149:8333   */\n    tag_462:\n        /* \"#utility.yul\":8248:8259   */\n      0x00\n        /* \"#utility.yul\":8282:8288   */\n      dup3\n        /* \"#utility.yul\":8277:8280   */\n      dup3\n        /* \"#utility.yul\":8270:8289   */\n      mstore\n        /* \"#utility.yul\":8322:8326   */\n      0x20\n        /* \"#utility.yul\":8317:8320   */\n      dup3\n        /* \"#utility.yul\":8313:8327   */\n      add\n        /* \"#utility.yul\":8298:8327   */\n      swap1\n      pop\n        /* \"#utility.yul\":8149:8333   */\n      swap3\n      swap2\n      pop\n      pop\n      jump\t// out\n        /* \"#utility.yul\":8339:8471   */\n    tag_463:\n        /* \"#utility.yul\":8406:8410   */\n      0x00\n        /* \"#utility.yul\":8429:8432   */\n      dup2\n        /* \"#utility.yul\":8421:8432   */\n      swap1\n      pop\n        /* \"#utility.yul\":8459:8463   */\n      0x20\n        /* \"#utility.yul\":8454:8457   */\n      dup3\n        /* \"#utility.yul\":8450:8464   */\n      add\n        /* \"#utility.yul\":8442:8464   */\n      swap1\n      pop\n        /* \"#utility.yul\":8339:8471   */\n      swap2\n      swap1\n      pop\n      jump\t// out\n        /* \"#utility.yul\":8477:8585   */\n    tag_464:\n        /* \"#utility.yul\":8554:8578   */\n      tag_607\n        /* \"#utility.yul\":8572:8577   */\n      dup2\n        /* \"#utility.yul\":8554:8578   */\n      tag_435\n      jump\t// in\n    tag_607:\n        /* \"#utility.yul\":8549:8552   */\n      dup3\n        /* \"#utility.yul\":8542:8579   */\n      mstore\n        /* \"#utility.yul\":8477:8585   */\n      pop\n      pop\n      jump\t// out\n        /* \"#utility.yul\":8591:8770   */\n    tag_465:\n        /* \"#utility.yul\":8660:8670   */\n      0x00\n        /* \"#utility.yul\":8681:8727   */\n      tag_609\n        /* \"#utility.yul\":8723:8726   */\n      dup4\n        /* \"#utility.yul\":8715:8721   */\n      dup4\n        /* \"#utility.yul\":8681:8727   */\n      tag_464\n      jump\t// in\n    tag_609:\n        /* \"#utility.yul\":8759:8763   */\n      0x20\n        /* \"#utility.yul\":8754:8757   */\n      dup4\n        /* \"#utility.yul\":8750:8764   */\n      add\n        /* \"#utility.yul\":8736:8764   */\n      swap1\n      pop\n        /* \"#utility.yul\":8591:8770   */\n      swap3\n      swap2\n      pop\n      pop\n      jump\t// out\n        /* \"#utility.yul\":8776:8889   */\n    tag_466:\n        /* \"#utility.yul\":8846:8850   */\n      0x00\n        /* \"#utility.yul\":8878:8882   */\n      0x20\n        /* \"#utility.yul\":8873:8876   */\n      dup3\n        /* \"#utility.yul\":8869:8883   */\n      add\n        /* \"#utility.yul\":8861:8883   */\n      swap1\n      pop\n        /* \"#utility.yul\":8776:8889   */\n      swap2\n      swap1\n      pop\n      jump\t// out\n        /* \"#utility.yul\":8925:9657   */\n    tag_467:\n        /* \"#utility.yul\":9044:9047   */\n      0x00\n        /* \"#utility.yul\":9073:9127   */\n      tag_612\n        /* \"#utility.yul\":9121:9126   */\n      dup3\n        /* \"#utility.yul\":9073:9127   */\n      tag_461\n      jump\t// in\n    tag_612:\n        /* \"#utility.yul\":9143:9229   */\n      tag_613\n        /* \"#utility.yul\":9222:9228   */\n      dup2\n        /* \"#utility.yul\":9217:9220   */\n      dup6\n        /* \"#utility.yul\":9143:9229   */\n      tag_462\n      jump\t// in\n    tag_613:\n        /* \"#utility.yul\":9136:9229   */\n      swap4\n      pop\n        /* \"#utility.yul\":9253:9309   */\n      tag_614\n        /* \"#utility.yul\":9303:9308   */\n      dup4\n        /* \"#utility.yul\":9253:9309   */\n      tag_463\n      jump\t// in\n    tag_614:\n        /* \"#utility.yul\":9332:9339   */\n      dup1\n        /* \"#utility.yul\":9363:9364   */\n      0x00\n        /* \"#utility.yul\":9348:9632   */\n    tag_615:\n        /* \"#utility.yul\":9373:9379   */\n      dup4\n        /* \"#utility.yul\":9370:9371   */\n      dup2\n        /* \"#utility.yul\":9367:9380   */\n      lt\n        /* \"#utility.yul\":9348:9632   */\n      iszero\n      tag_617\n      jumpi\n        /* \"#utility.yul\":9449:9455   */\n      dup2\n        /* \"#utility.yul\":9443:9456   */\n      mload\n        /* \"#utility.yul\":9476:9539   */\n      tag_618\n        /* \"#utility.yul\":9535:9538   */\n      dup9\n        /* \"#utility.yul\":9520:9533   */\n      dup3\n        /* \"#utility.yul\":9476:9539   */\n      tag_465\n      jump\t// in\n    tag_618:\n        /* \"#utility.yul\":9469:9539   */\n      swap8\n      pop\n        /* \"#utility.yul\":9562:9622   */\n      tag_619\n        /* \"#utility.yul\":9615:9621   */\n      dup4\n        /* \"#utility.yul\":9562:9622   */\n      tag_466\n      jump\t// in\n    tag_619:\n        /* \"#utility.yul\":9552:9622   */\n      swap3\n      pop\n        /* \"#utility.yul\":9408:9632   */\n      pop\n        /* \"#utility.yul\":9395:9396   */\n      0x01\n        /* \"#utility.yul\":9392:9393   */\n      dup2\n        /* \"#utility.yul\":9388:9397   */\n      add\n        /* \"#utility.yul\":9383:9397   */\n      swap1\n      pop\n        /* \"#utility.yul\":9348:9632   */\n      jump(tag_615)\n    tag_617:\n        /* \"#utility.yul\":9352:9366   */\n      pop\n        /* \"#utility.yul\":9648:9651   */\n      dup6\n        /* \"#utility.yul\":9641:9651   */\n      swap4\n      pop\n        /* \"#utility.yul\":9049:9657   */\n      pop\n      pop\n      pop\n        /* \"#utility.yul\":8925:9657   */\n      swap3\n      swap2\n      pop\n      pop\n      jump\t// out\n        /* \"#utility.yul\":9663:10558   */\n    tag_88:\n        /* \"#utility.yul\":9962:9966   */\n      0x00\n        /* \"#utility.yul\":10000:10002   */\n      0x60\n        /* \"#utility.yul\":9989:9998   */\n      dup3\n        /* \"#utility.yul\":9985:10003   */\n      add\n        /* \"#utility.yul\":9977:10003   */\n      swap1\n      pop\n        /* \"#utility.yul\":10049:10058   */\n      dup2\n        /* \"#utility.yul\":10043:10047   */\n      dup2\n        /* \"#utility.yul\":10039:10059   */\n      sub\n        /* \"#utility.yul\":10035:10036   */\n      0x00\n        /* \"#utility.yul\":10024:10033   */\n      dup4\n        /* \"#utility.yul\":10020:10037   */\n      add\n        /* \"#utility.yul\":10013:10060   */\n      mstore\n        /* \"#utility.yul\":10077:10185   */\n      tag_621\n        /* \"#utility.yul\":10180:10184   */\n      dup2\n        /* \"#utility.yul\":10171:10177   */\n      dup7\n        /* \"#utility.yul\":10077:10185   */\n      tag_460\n      jump\t// in\n    tag_621:\n        /* \"#utility.yul\":10069:10185   */\n      swap1\n      pop\n        /* \"#utility.yul\":10232:10241   */\n      dup2\n        /* \"#utility.yul\":10226:10230   */\n      dup2\n        /* \"#utility.yul\":10222:10242   */\n      sub\n        /* \"#utility.yul\":10217:10219   */\n      0x20\n        /* \"#utility.yul\":10206:10215   */\n      dup4\n        /* \"#utility.yul\":10202:10220   */\n      add\n        /* \"#utility.yul\":10195:10243   */\n      mstore\n        /* \"#utility.yul\":10260:10368   */\n      tag_622\n        /* \"#utility.yul\":10363:10367   */\n      dup2\n        /* \"#utility.yul\":10354:10360   */\n      dup6\n        /* \"#utility.yul\":10260:10368   */\n      tag_467\n      jump\t// in\n    tag_622:\n        /* \"#utility.yul\":10252:10368   */\n      swap1\n      pop\n        /* \"#utility.yul\":10415:10424   */\n      dup2\n        /* \"#utility.yul\":10409:10413   */\n      dup2\n        /* \"#utility.yul\":10405:10425   */\n      sub\n        /* \"#utility.yul\":10400:10402   */\n      0x40\n        /* \"#utility.yul\":10389:10398   */\n      dup4\n        /* \"#utility.yul\":10385:10403   */\n      add\n        /* \"#utility.yul\":10378:10426   */\n      mstore\n        /* \"#utility.yul\":10443:10551   */\n      tag_623\n        /* \"#utility.yul\":10546:10550   */\n      dup2\n        /* \"#utility.yul\":10537:10543   */\n      dup5\n        /* \"#utility.yul\":10443:10551   */\n      tag_467\n      jump\t// in\n    tag_623:\n        /* \"#utility.yul\":10435:10551   */\n      swap1\n      pop\n        /* \"#utility.yul\":9663:10558   */\n      swap5\n      swap4\n      pop\n      pop\n      pop\n      pop\n      jump\t// out\n        /* \"#utility.yul\":10564:10893   */\n    tag_92:\n        /* \"#utility.yul\":10623:10629   */\n      0x00\n        /* \"#utility.yul\":10672:10674   */\n      0x20\n        /* \"#utility.yul\":10660:10669   */\n      dup3\n        /* \"#utility.yul\":10651:10658   */\n      dup5\n        /* \"#utility.yul\":10647:10670   */\n      sub\n        /* \"#utility.yul\":10643:10675   */\n      slt\n        /* \"#utility.yul\":10640:10759   */\n      iszero\n      tag_625\n      jumpi\n        /* \"#utility.yul\":10678:10757   */\n      tag_626\n      tag_433\n      jump\t// in\n    tag_626:\n        /* \"#utility.yul\":10640:10759   */\n    tag_625:\n        /* \"#utility.yul\":10798:10799   */\n      0x00\n        /* \"#utility.yul\":10823:10876   */\n      tag_627\n        /* \"#utility.yul\":10868:10875   */\n      dup5\n        /* \"#utility.yul\":10859:10865   */\n      dup3\n        /* \"#utility.yul\":10848:10857   */\n      dup6\n        /* \"#utility.yul\":10844:10866   */\n      add\n        /* \"#utility.yul\":10823:10876   */\n      tag_446\n      jump\t// in\n    tag_627:\n        /* \"#utility.yul\":10813:10876   */\n      swap2\n      pop\n        /* \"#utility.yul\":10769:10886   */\n      pop\n        /* \"#utility.yul\":10564:10893   */\n      swap3\n      swap2\n      pop\n      pop\n      jump\t// out\n        /* \"#utility.yul\":10899:11068   */\n    tag_468:\n        /* \"#utility.yul\":10983:10994   */\n      0x00\n        /* \"#utility.yul\":11017:11023   */\n      dup3\n        /* \"#utility.yul\":11012:11015   */\n      dup3\n        /* \"#utility.yul\":11005:11024   */\n      mstore\n        /* \"#utility.yul\":11057:11061   */\n      0x20\n        /* \"#utility.yul\":11052:11055   */\n      dup3\n        /* \"#utility.yul\":11048:11062   */\n      add\n        /* \"#utility.yul\":11033:11062   */\n      swap1\n      pop\n        /* \"#utility.yul\":10899:11068   */\n      swap3\n      swap2\n      pop\n      pop\n      jump\t// out\n        /* \"#utility.yul\":11074:11246   */\n    tag_469:\n        /* \"#utility.yul\":11214:11238   */\n      0x537943726f774261727465723a20494e41435449564500000000000000000000\n        /* \"#utility.yul\":11210:11211   */\n      0x00\n        /* \"#utility.yul\":11202:11208   */\n      dup3\n        /* \"#utility.yul\":11198:11212   */\n      add\n        /* \"#utility.yul\":11191:11239   */\n      mstore\n        /* \"#utility.yul\":11074:11246   */\n      pop\n      jump\t// out\n        /* \"#utility.yul\":11252:11618   */\n    tag_470:\n        /* \"#utility.yul\":11394:11397   */\n      0x00\n        /* \"#utility.yul\":11415:11482   */\n      tag_631\n        /* \"#utility.yul\":11479:11481   */\n      0x16\n        /* \"#utility.yul\":11474:11477   */\n      dup4\n        /* \"#utility.yul\":11415:11482   */\n      tag_468\n      jump\t// in\n    tag_631:\n        /* \"#utility.yul\":11408:11482   */\n      swap2\n      pop\n        /* \"#utility.yul\":11491:11584   */\n      tag_632\n        /* \"#utility.yul\":11580:11583   */\n      dup3\n        /* \"#utility.yul\":11491:11584   */\n      tag_469\n      jump\t// in\n    tag_632:\n        /* \"#utility.yul\":11609:11611   */\n      0x20\n        /* \"#utility.yul\":11604:11607   */\n      dup3\n        /* \"#utility.yul\":11600:11612   */\n      add\n        /* \"#utility.yul\":11593:11612   */\n      swap1\n      pop\n        /* \"#utility.yul\":11252:11618   */\n      swap2\n      swap1\n      pop\n      jump\t// out\n        /* \"#utility.yul\":11624:12043   */\n    tag_98:\n        /* \"#utility.yul\":11790:11794   */\n      0x00\n        /* \"#utility.yul\":11828:11830   */\n      0x20\n        /* \"#utility.yul\":11817:11826   */\n      dup3\n        /* \"#utility.yul\":11813:11831   */\n      add\n        /* \"#utility.yul\":11805:11831   */\n      swap1\n      pop\n        /* \"#utility.yul\":11877:11886   */\n      dup2\n        /* \"#utility.yul\":11871:11875   */\n      dup2\n        /* \"#utility.yul\":11867:11887   */\n      sub\n        /* \"#utility.yul\":11863:11864   */\n      0x00\n        /* \"#utility.yul\":11852:11861   */\n      dup4\n        /* \"#utility.yul\":11848:11865   */\n      add\n        /* \"#utility.yul\":11841:11888   */\n      mstore\n        /* \"#utility.yul\":11905:12036   */\n      tag_634\n        /* \"#utility.yul\":12031:12035   */\n      dup2\n        /* \"#utility.yul\":11905:12036   */\n      tag_470\n      jump\t// in\n    tag_634:\n        /* \"#utility.yul\":11897:12036   */\n      swap1\n      pop\n        /* \"#utility.yul\":11624:12043   */\n      swap2\n      swap1\n      pop\n      jump\t// out\n        /* \"#utility.yul\":12049:12228   */\n    tag_471:\n        /* \"#utility.yul\":12189:12220   */\n      0x537943726f774261727465723a204e4f545f494e495449414c495a4544000000\n        /* \"#utility.yul\":12185:12186   */\n      0x00\n        /* \"#utility.yul\":12177:12183   */\n      dup3\n        /* \"#utility.yul\":12173:12187   */\n      add\n        /* \"#utility.yul\":12166:12221   */\n      mstore\n        /* \"#utility.yul\":12049:12228   */\n      pop\n      jump\t// out\n        /* \"#utility.yul\":12234:12600   */\n    tag_472:\n        /* \"#utility.yul\":12376:12379   */\n      0x00\n        /* \"#utility.yul\":12397:12464   */\n      tag_637\n        /* \"#utility.yul\":12461:12463   */\n      0x1d\n        /* \"#utility.yul\":12456:12459   */\n      dup4\n        /* \"#utility.yul\":12397:12464   */\n      tag_468\n      jump\t// in\n    tag_637:\n        /* \"#utility.yul\":12390:12464   */\n      swap2\n      pop\n        /* \"#utility.yul\":12473:12566   */\n      tag_638\n        /* \"#utility.yul\":12562:12565   */\n      dup3\n        /* \"#utility.yul\":12473:12566   */\n      tag_471\n      jump\t// in\n    tag_638:\n        /* \"#utility.yul\":12591:12593   */\n      0x20\n        /* \"#utility.yul\":12586:12589   */\n      dup3\n        /* \"#utility.yul\":12582:12594   */\n      add\n        /* \"#utility.yul\":12575:12594   */\n      swap1\n      pop\n        /* \"#utility.yul\":12234:12600   */\n      swap2\n      swap1\n      pop\n      jump\t// out\n        /* \"#utility.yul\":12606:13025   */\n    tag_102:\n        /* \"#utility.yul\":12772:12776   */\n      0x00\n        /* \"#utility.yul\":12810:12812   */\n      0x20\n        /* \"#utility.yul\":12799:12808   */\n      dup3\n        /* \"#utility.yul\":12795:12813   */\n      add\n        /* \"#utility.yul\":12787:12813   */\n      swap1\n      pop\n        /* \"#utility.yul\":12859:12868   */\n      dup2\n        /* \"#utility.yul\":12853:12857   */\n      dup2\n        /* \"#utility.yul\":12849:12869   */\n      sub\n        /* \"#utility.yul\":12845:12846   */\n      0x00\n        /* \"#utility.yul\":12834:12843   */\n      dup4\n        /* \"#utility.yul\":12830:12847   */\n      add\n        /* \"#utility.yul\":12823:12870   */\n      mstore\n        /* \"#utility.yul\":12887:13018   */\n      tag_640\n        /* \"#utility.yul\":13013:13017   */\n      dup2\n        /* \"#utility.yul\":12887:13018   */\n      tag_472\n      jump\t// in\n    tag_640:\n        /* \"#utility.yul\":12879:13018   */\n      swap1\n      pop\n        /* \"#utility.yul\":12606:13025   */\n      swap2\n      swap1\n      pop\n      jump\t// out\n        /* \"#utility.yul\":13031:13168   */\n    tag_473:\n        /* \"#utility.yul\":13085:13090   */\n      0x00\n        /* \"#utility.yul\":13116:13122   */\n      dup2\n        /* \"#utility.yul\":13110:13123   */\n      mload\n        /* \"#utility.yul\":13101:13123   */\n      swap1\n      pop\n        /* \"#utility.yul\":13132:13162   */\n      tag_642\n        /* \"#utility.yul\":13156:13161   */\n      dup2\n        /* \"#utility.yul\":13132:13162   */\n      tag_447\n      jump\t// in\n    tag_642:\n        /* \"#utility.yul\":13031:13168   */\n      swap3\n      swap2\n      pop\n      pop\n      jump\t// out\n        /* \"#utility.yul\":13174:13519   */\n    tag_107:\n        /* \"#utility.yul\":13241:13247   */\n      0x00\n        /* \"#utility.yul\":13290:13292   */\n      0x20\n        /* \"#utility.yul\":13278:13287   */\n      dup3\n        /* \"#utility.yul\":13269:13276   */\n      dup5\n        /* \"#utility.yul\":13265:13288   */\n      sub\n        /* \"#utility.yul\":13261:13293   */\n      slt\n        /* \"#utility.yul\":13258:13377   */\n      iszero\n      tag_644\n      jumpi\n        /* \"#utility.yul\":13296:13375   */\n      tag_645\n      tag_433\n      jump\t// in\n    tag_645:\n        /* \"#utility.yul\":13258:13377   */\n    tag_644:\n        /* \"#utility.yul\":13416:13417   */\n      0x00\n        /* \"#utility.yul\":13441:13502   */\n      tag_646\n        /* \"#utility.yul\":13494:13501   */\n      dup5\n        /* \"#utility.yul\":13485:13491   */\n      dup3\n        /* \"#utility.yul\":13474:13483   */\n      dup6\n        /* \"#utility.yul\":13470:13492   */\n      add\n        /* \"#utility.yul\":13441:13502   */\n      tag_473\n      jump\t// in\n    tag_646:\n        /* \"#utility.yul\":13431:13502   */\n      swap2\n      pop\n        /* \"#utility.yul\":13387:13512   */\n      pop\n        /* \"#utility.yul\":13174:13519   */\n      swap3\n      swap2\n      pop\n      pop\n      jump\t// out\n        /* \"#utility.yul\":13525:13746   */\n    tag_474:\n        /* \"#utility.yul\":13665:13699   */\n      0x537943726f774261727465723a204261736520436f6e74726163742050617573\n        /* \"#utility.yul\":13661:13662   */\n      0x00\n        /* \"#utility.yul\":13653:13659   */\n      dup3\n        /* \"#utility.yul\":13649:13663   */\n      add\n        /* \"#utility.yul\":13642:13700   */\n      mstore\n        /* \"#utility.yul\":13734:13738   */\n      0x6564000000000000000000000000000000000000000000000000000000000000\n        /* \"#utility.yul\":13729:13731   */\n      0x20\n        /* \"#utility.yul\":13721:13727   */\n      dup3\n        /* \"#utility.yul\":13717:13732   */\n      add\n        /* \"#utility.yul\":13710:13739   */\n      mstore\n        /* \"#utility.yul\":13525:13746   */\n      pop\n      jump\t// out\n        /* \"#utility.yul\":13752:14118   */\n    tag_475:\n        /* \"#utility.yul\":13894:13897   */\n      0x00\n        /* \"#utility.yul\":13915:13982   */\n      tag_649\n        /* \"#utility.yul\":13979:13981   */\n      0x22\n        /* \"#utility.yul\":13974:13977   */\n      dup4\n        /* \"#utility.yul\":13915:13982   */\n      tag_468\n      jump\t// in\n    tag_649:\n        /* \"#utility.yul\":13908:13982   */\n      swap2\n      pop\n        /* \"#utility.yul\":13991:14084   */\n      tag_650\n        /* \"#utility.yul\":14080:14083   */\n      dup3\n        /* \"#utility.yul\":13991:14084   */\n      tag_474\n      jump\t// in\n    tag_650:\n        /* \"#utility.yul\":14109:14111   */\n      0x40\n        /* \"#utility.yul\":14104:14107   */\n      dup3\n        /* \"#utility.yul\":14100:14112   */\n      add\n        /* \"#utility.yul\":14093:14112   */\n      swap1\n      pop\n        /* \"#utility.yul\":13752:14118   */\n      swap2\n      swap1\n      pop\n      jump\t// out\n        /* \"#utility.yul\":14124:14543   */\n    tag_110:\n        /* \"#utility.yul\":14290:14294   */\n      0x00\n        /* \"#utility.yul\":14328:14330   */\n      0x20\n        /* \"#utility.yul\":14317:14326   */\n      dup3\n        /* \"#utility.yul\":14313:14331   */\n      add\n        /* \"#utility.yul\":14305:14331   */\n      swap1\n      pop\n        /* \"#utility.yul\":14377:14386   */\n      dup2\n        /* \"#utility.yul\":14371:14375   */\n      dup2\n        /* \"#utility.yul\":14367:14387   */\n      sub\n        /* \"#utility.yul\":14363:14364   */\n      0x00\n        /* \"#utility.yul\":14352:14361   */\n      dup4\n        /* \"#utility.yul\":14348:14365   */\n      add\n        /* \"#utility.yul\":14341:14388   */\n      mstore\n        /* \"#utility.yul\":14405:14536   */\n      tag_652\n        /* \"#utility.yul\":14531:14535   */\n      dup2\n        /* \"#utility.yul\":14405:14536   */\n      tag_475\n      jump\t// in\n    tag_652:\n        /* \"#utility.yul\":14397:14536   */\n      swap1\n      pop\n        /* \"#utility.yul\":14124:14543   */\n      swap2\n      swap1\n      pop\n      jump\t// out\n        /* \"#utility.yul\":14549:14769   */\n    tag_476:\n        /* \"#utility.yul\":14689:14723   */\n      0x537943726f774261727465723a20494e56414c49445f4241525445525f545950\n        /* \"#utility.yul\":14685:14686   */\n      0x00\n        /* \"#utility.yul\":14677:14683   */\n      dup3\n        /* \"#utility.yul\":14673:14687   */\n      add\n        /* \"#utility.yul\":14666:14724   */\n      mstore\n        /* \"#utility.yul\":14758:14761   */\n      0x4500000000000000000000000000000000000000000000000000000000000000\n        /* \"#utility.yul\":14753:14755   */\n      0x20\n        /* \"#utility.yul\":14745:14751   */\n      dup3\n        /* \"#utility.yul\":14741:14756   */\n      add\n        /* \"#utility.yul\":14734:14762   */\n      mstore\n        /* \"#utility.yul\":14549:14769   */\n      pop\n      jump\t// out\n        /* \"#utility.yul\":14775:15141   */\n    tag_477:\n        /* \"#utility.yul\":14917:14920   */\n      0x00\n        /* \"#utility.yul\":14938:15005   */\n      tag_655\n        /* \"#utility.yul\":15002:15004   */\n      0x21\n        /* \"#utility.yul\":14997:15000   */\n      dup4\n        /* \"#utility.yul\":14938:15005   */\n      tag_468\n      jump\t// in\n    tag_655:\n        /* \"#utility.yul\":14931:15005   */\n      swap2\n      pop\n        /* \"#utility.yul\":15014:15107   */\n      tag_656\n        /* \"#utility.yul\":15103:15106   */\n      dup3\n        /* \"#utility.yul\":15014:15107   */\n      tag_476\n      jump\t// in\n    tag_656:\n        /* \"#utility.yul\":15132:15134   */\n      0x40\n        /* \"#utility.yul\":15127:15130   */\n      dup3\n        /* \"#utility.yul\":15123:15135   */\n      add\n        /* \"#utility.yul\":15116:15135   */\n      swap1\n      pop\n        /* \"#utility.yul\":14775:15141   */\n      swap2\n      swap1\n      pop\n      jump\t// out\n        /* \"#utility.yul\":15147:15566   */\n    tag_119:\n        /* \"#utility.yul\":15313:15317   */\n      0x00\n        /* \"#utility.yul\":15351:15353   */\n      0x20\n        /* \"#utility.yul\":15340:15349   */\n      dup3\n        /* \"#utility.yul\":15336:15354   */\n      add\n        /* \"#utility.yul\":15328:15354   */\n      swap1\n      pop\n        /* \"#utility.yul\":15400:15409   */\n      dup2\n        /* \"#utility.yul\":15394:15398   */\n      dup2\n        /* \"#utility.yul\":15390:15410   */\n      sub\n        /* \"#utility.yul\":15386:15387   */\n      0x00\n        /* \"#utility.yul\":15375:15384   */\n      dup4\n        /* \"#utility.yul\":15371:15388   */\n      add\n        /* \"#utility.yul\":15364:15411   */\n      mstore\n        /* \"#utility.yul\":15428:15559   */\n      tag_658\n        /* \"#utility.yul\":15554:15558   */\n      dup2\n        /* \"#utility.yul\":15428:15559   */\n      tag_477\n      jump\t// in\n    tag_658:\n        /* \"#utility.yul\":15420:15559   */\n      swap1\n      pop\n        /* \"#utility.yul\":15147:15566   */\n      swap2\n      swap1\n      pop\n      jump\t// out\n        /* \"#utility.yul\":15572:15800   */\n    tag_478:\n        /* \"#utility.yul\":15712:15746   */\n      0x537943726f774261727465723a20414d4f554e545f4c4f5745525f5448414e5f\n        /* \"#utility.yul\":15708:15709   */\n      0x00\n        /* \"#utility.yul\":15700:15706   */\n      dup3\n        /* \"#utility.yul\":15696:15710   */\n      add\n        /* \"#utility.yul\":15689:15747   */\n      mstore\n        /* \"#utility.yul\":15781:15792   */\n      0x5245515552495245440000000000000000000000000000000000000000000000\n        /* \"#utility.yul\":15776:15778   */\n      0x20\n        /* \"#utility.yul\":15768:15774   */\n      dup3\n        /* \"#utility.yul\":15764:15779   */\n      add\n        /* \"#utility.yul\":15757:15793   */\n      mstore\n        /* \"#utility.yul\":15572:15800   */\n      pop\n      jump\t// out\n        /* \"#utility.yul\":15806:16172   */\n    tag_479:\n        /* \"#utility.yul\":15948:15951   */\n      0x00\n        /* \"#utility.yul\":15969:16036   */\n      tag_661\n        /* \"#utility.yul\":16033:16035   */\n      0x29\n        /* \"#utility.yul\":16028:16031   */\n      dup4\n        /* \"#utility.yul\":15969:16036   */\n      tag_468\n      jump\t// in\n    tag_661:\n        /* \"#utility.yul\":15962:16036   */\n      swap2\n      pop\n        /* \"#utility.yul\":16045:16138   */\n      tag_662\n        /* \"#utility.yul\":16134:16137   */\n      dup3\n        /* \"#utility.yul\":16045:16138   */\n      tag_478\n      jump\t// in\n    tag_662:\n        /* \"#utility.yul\":16163:16165   */\n      0x40\n        /* \"#utility.yul\":16158:16161   */\n      dup3\n        /* \"#utility.yul\":16154:16166   */\n      add\n        /* \"#utility.yul\":16147:16166   */\n      swap1\n      pop\n        /* \"#utility.yul\":15806:16172   */\n      swap2\n      swap1\n      pop\n      jump\t// out\n        /* \"#utility.yul\":16178:16597   */\n    tag_124:\n        /* \"#utility.yul\":16344:16348   */\n      0x00\n        /* \"#utility.yul\":16382:16384   */\n      0x20\n        /* \"#utility.yul\":16371:16380   */\n      dup3\n        /* \"#utility.yul\":16367:16385   */\n      add\n        /* \"#utility.yul\":16359:16385   */\n      swap1\n      pop\n        /* \"#utility.yul\":16431:16440   */\n      dup2\n        /* \"#utility.yul\":16425:16429   */\n      dup2\n        /* \"#utility.yul\":16421:16441   */\n      sub\n        /* \"#utility.yul\":16417:16418   */\n      0x00\n        /* \"#utility.yul\":16406:16415   */\n      dup4\n        /* \"#utility.yul\":16402:16419   */\n      add\n        /* \"#utility.yul\":16395:16442   */\n      mstore\n        /* \"#utility.yul\":16459:16590   */\n      tag_664\n        /* \"#utility.yul\":16585:16589   */\n      dup2\n        /* \"#utility.yul\":16459:16590   */\n      tag_479\n      jump\t// in\n    tag_664:\n        /* \"#utility.yul\":16451:16590   */\n      swap1\n      pop\n        /* \"#utility.yul\":16178:16597   */\n      swap2\n      swap1\n      pop\n      jump\t// out\n        /* \"#utility.yul\":16603:16773   */\n    tag_480:\n        /* \"#utility.yul\":16743:16765   */\n      0x537943726f774261727465723a20414354495645000000000000000000000000\n        /* \"#utility.yul\":16739:16740   */\n      0x00\n        /* \"#utility.yul\":16731:16737   */\n      dup3\n        /* \"#utility.yul\":16727:16741   */\n      add\n        /* \"#utility.yul\":16720:16766   */\n      mstore\n        /* \"#utility.yul\":16603:16773   */\n      pop\n      jump\t// out\n        /* \"#utility.yul\":16779:17145   */\n    tag_481:\n        /* \"#utility.yul\":16921:16924   */\n      0x00\n        /* \"#utility.yul\":16942:17009   */\n      tag_667\n        /* \"#utility.yul\":17006:17008   */\n      0x14\n        /* \"#utility.yul\":17001:17004   */\n      dup4\n        /* \"#utility.yul\":16942:17009   */\n      tag_468\n      jump\t// in\n    tag_667:\n        /* \"#utility.yul\":16935:17009   */\n      swap2\n      pop\n        /* \"#utility.yul\":17018:17111   */\n      tag_668\n        /* \"#utility.yul\":17107:17110   */\n      dup3\n        /* \"#utility.yul\":17018:17111   */\n      tag_480\n      jump\t// in\n    tag_668:\n        /* \"#utility.yul\":17136:17138   */\n      0x20\n        /* \"#utility.yul\":17131:17134   */\n      dup3\n        /* \"#utility.yul\":17127:17139   */\n      add\n        /* \"#utility.yul\":17120:17139   */\n      swap1\n      pop\n        /* \"#utility.yul\":16779:17145   */\n      swap2\n      swap1\n      pop\n      jump\t// out\n        /* \"#utility.yul\":17151:17570   */\n    tag_157:\n        /* \"#utility.yul\":17317:17321   */\n      0x00\n        /* \"#utility.yul\":17355:17357   */\n      0x20\n        /* \"#utility.yul\":17344:17353   */\n      dup3\n        /* \"#utility.yul\":17340:17358   */\n      add\n        /* \"#utility.yul\":17332:17358   */\n      swap1\n      pop\n        /* \"#utility.yul\":17404:17413   */\n      dup2\n        /* \"#utility.yul\":17398:17402   */\n      dup2\n        /* \"#utility.yul\":17394:17414   */\n      sub\n        /* \"#utility.yul\":17390:17391   */\n      0x00\n        /* \"#utility.yul\":17379:17388   */\n      dup4\n        /* \"#utility.yul\":17375:17392   */\n      add\n        /* \"#utility.yul\":17368:17415   */\n      mstore\n        /* \"#utility.yul\":17432:17563   */\n      tag_670\n        /* \"#utility.yul\":17558:17562   */\n      dup2\n        /* \"#utility.yul\":17432:17563   */\n      tag_481\n      jump\t// in\n    tag_670:\n        /* \"#utility.yul\":17424:17563   */\n      swap1\n      pop\n        /* \"#utility.yul\":17151:17570   */\n      swap2\n      swap1\n      pop\n      jump\t// out\n        /* \"#utility.yul\":17576:17758   */\n    tag_482:\n        /* \"#utility.yul\":17716:17750   */\n      0x4f776e61626c653a2063616c6c6572206973206e6f7420746865206f776e6572\n        /* \"#utility.yul\":17712:17713   */\n      0x00\n        /* \"#utility.yul\":17704:17710   */\n      dup3\n        /* \"#utility.yul\":17700:17714   */\n      add\n        /* \"#utility.yul\":17693:17751   */\n      mstore\n        /* \"#utility.yul\":17576:17758   */\n      pop\n      jump\t// out\n        /* \"#utility.yul\":17764:18130   */\n    tag_483:\n        /* \"#utility.yul\":17906:17909   */\n      0x00\n        /* \"#utility.yul\":17927:17994   */\n      tag_673\n        /* \"#utility.yul\":17991:17993   */\n      0x20\n        /* \"#utility.yul\":17986:17989   */\n      dup4\n        /* \"#utility.yul\":17927:17994   */\n      tag_468\n      jump\t// in\n    tag_673:\n        /* \"#utility.yul\":17920:17994   */\n      swap2\n      pop\n        /* \"#utility.yul\":18003:18096   */\n      tag_674\n        /* \"#utility.yul\":18092:18095   */\n      dup3\n        /* \"#utility.yul\":18003:18096   */\n      tag_482\n      jump\t// in\n    tag_674:\n        /* \"#utility.yul\":18121:18123   */\n      0x20\n        /* \"#utility.yul\":18116:18119   */\n      dup3\n        /* \"#utility.yul\":18112:18124   */\n      add\n        /* \"#utility.yul\":18105:18124   */\n      swap1\n      pop\n        /* \"#utility.yul\":17764:18130   */\n      swap2\n      swap1\n      pop\n      jump\t// out\n        /* \"#utility.yul\":18136:18555   */\n    tag_167:\n        /* \"#utility.yul\":18302:18306   */\n      0x00\n        /* \"#utility.yul\":18340:18342   */\n      0x20\n        /* \"#utility.yul\":18329:18338   */\n      dup3\n        /* \"#utility.yul\":18325:18343   */\n      add\n        /* \"#utility.yul\":18317:18343   */\n      swap1\n      pop\n        /* \"#utility.yul\":18389:18398   */\n      dup2\n        /* \"#utility.yul\":18383:18387   */\n      dup2\n        /* \"#utility.yul\":18379:18399   */\n      sub\n        /* \"#utility.yul\":18375:18376   */\n      0x00\n        /* \"#utility.yul\":18364:18373   */\n      dup4\n        /* \"#utility.yul\":18360:18377   */\n      add\n        /* \"#utility.yul\":18353:18400   */\n      mstore\n        /* \"#utility.yul\":18417:18548   */\n      tag_676\n        /* \"#utility.yul\":18543:18547   */\n      dup2\n        /* \"#utility.yul\":18417:18548   */\n      tag_483\n      jump\t// in\n    tag_676:\n        /* \"#utility.yul\":18409:18548   */\n      swap1\n      pop\n        /* \"#utility.yul\":18136:18555   */\n      swap2\n      swap1\n      pop\n      jump\t// out\n        /* \"#utility.yul\":18561:18704   */\n    tag_484:\n        /* \"#utility.yul\":18618:18623   */\n      0x00\n        /* \"#utility.yul\":18649:18655   */\n      dup2\n        /* \"#utility.yul\":18643:18656   */\n      mload\n        /* \"#utility.yul\":18634:18656   */\n      swap1\n      pop\n        /* \"#utility.yul\":18665:18698   */\n      tag_678\n        /* \"#utility.yul\":18692:18697   */\n      dup2\n        /* \"#utility.yul\":18665:18698   */\n      tag_436\n      jump\t// in\n    tag_678:\n        /* \"#utility.yul\":18561:18704   */\n      swap3\n      swap2\n      pop\n      pop\n      jump\t// out\n        /* \"#utility.yul\":18710:19061   */\n    tag_173:\n        /* \"#utility.yul\":18780:18786   */\n      0x00\n        /* \"#utility.yul\":18829:18831   */\n      0x20\n        /* \"#utility.yul\":18817:18826   */\n      dup3\n        /* \"#utility.yul\":18808:18815   */\n      dup5\n        /* \"#utility.yul\":18804:18827   */\n      sub\n        /* \"#utility.yul\":18800:18832   */\n      slt\n        /* \"#utility.yul\":18797:18916   */\n      iszero\n      tag_680\n      jumpi\n        /* \"#utility.yul\":18835:18914   */\n      tag_681\n      tag_433\n      jump\t// in\n    tag_681:\n        /* \"#utility.yul\":18797:18916   */\n    tag_680:\n        /* \"#utility.yul\":18955:18956   */\n      0x00\n        /* \"#utility.yul\":18980:19044   */\n      tag_682\n        /* \"#utility.yul\":19036:19043   */\n      dup5\n        /* \"#utility.yul\":19027:19033   */\n      dup3\n        /* \"#utility.yul\":19016:19025   */\n      dup6\n        /* \"#utility.yul\":19012:19034   */\n      add\n        /* \"#utility.yul\":18980:19044   */\n      tag_484\n      jump\t// in\n    tag_682:\n        /* \"#utility.yul\":18970:19044   */\n      swap2\n      pop\n        /* \"#utility.yul\":18926:19054   */\n      pop\n        /* \"#utility.yul\":18710:19061   */\n      swap3\n      swap2\n      pop\n      pop\n      jump\t// out\n        /* \"#utility.yul\":19067:19620   */\n    tag_207:\n        /* \"#utility.yul\":19244:19248   */\n      0x00\n        /* \"#utility.yul\":19282:19285   */\n      0x80\n        /* \"#utility.yul\":19271:19280   */\n      dup3\n        /* \"#utility.yul\":19267:19286   */\n      add\n        /* \"#utility.yul\":19259:19286   */\n      swap1\n      pop\n        /* \"#utility.yul\":19296:19367   */\n      tag_684\n        /* \"#utility.yul\":19364:19365   */\n      0x00\n        /* \"#utility.yul\":19353:19362   */\n      dup4\n        /* \"#utility.yul\":19349:19366   */\n      add\n        /* \"#utility.yul\":19340:19346   */\n      dup8\n        /* \"#utility.yul\":19296:19367   */\n      tag_453\n      jump\t// in\n    tag_684:\n        /* \"#utility.yul\":19377:19449   */\n      tag_685\n        /* \"#utility.yul\":19445:19447   */\n      0x20\n        /* \"#utility.yul\":19434:19443   */\n      dup4\n        /* \"#utility.yul\":19430:19448   */\n      add\n        /* \"#utility.yul\":19421:19427   */\n      dup7\n        /* \"#utility.yul\":19377:19449   */\n      tag_453\n      jump\t// in\n    tag_685:\n        /* \"#utility.yul\":19459:19531   */\n      tag_686\n        /* \"#utility.yul\":19527:19529   */\n      0x40\n        /* \"#utility.yul\":19516:19525   */\n      dup4\n        /* \"#utility.yul\":19512:19530   */\n      add\n        /* \"#utility.yul\":19503:19509   */\n      dup6\n        /* \"#utility.yul\":19459:19531   */\n      tag_440\n      jump\t// in\n    tag_686:\n        /* \"#utility.yul\":19541:19613   */\n      tag_687\n        /* \"#utility.yul\":19609:19611   */\n      0x60\n        /* \"#utility.yul\":19598:19607   */\n      dup4\n        /* \"#utility.yul\":19594:19612   */\n      add\n        /* \"#utility.yul\":19585:19591   */\n      dup5\n        /* \"#utility.yul\":19541:19613   */\n      tag_440\n      jump\t// in\n    tag_687:\n        /* \"#utility.yul\":19067:19620   */\n      swap6\n      swap5\n      pop\n      pop\n      pop\n      pop\n      pop\n      jump\t// out\n        /* \"#utility.yul\":19626:19799   */\n    tag_485:\n        /* \"#utility.yul\":19766:19791   */\n      0x537943726f774261727465723a20464f5242494444454e000000000000000000\n        /* \"#utility.yul\":19762:19763   */\n      0x00\n        /* \"#utility.yul\":19754:19760   */\n      dup3\n        /* \"#utility.yul\":19750:19764   */\n      add\n        /* \"#utility.yul\":19743:19792   */\n      mstore\n        /* \"#utility.yul\":19626:19799   */\n      pop\n      jump\t// out\n        /* \"#utility.yul\":19805:20171   */\n    tag_486:\n        /* \"#utility.yul\":19947:19950   */\n      0x00\n        /* \"#utility.yul\":19968:20035   */\n      tag_690\n        /* \"#utility.yul\":20032:20034   */\n      0x17\n        /* \"#utility.yul\":20027:20030   */\n      dup4\n        /* \"#utility.yul\":19968:20035   */\n      tag_468\n      jump\t// in\n    tag_690:\n        /* \"#utility.yul\":19961:20035   */\n      swap2\n      pop\n        /* \"#utility.yul\":20044:20137   */\n      tag_691\n        /* \"#utility.yul\":20133:20136   */\n      dup3\n        /* \"#utility.yul\":20044:20137   */\n      tag_485\n      jump\t// in\n    tag_691:\n        /* \"#utility.yul\":20162:20164   */\n      0x20\n        /* \"#utility.yul\":20157:20160   */\n      dup3\n        /* \"#utility.yul\":20153:20165   */\n      add\n        /* \"#utility.yul\":20146:20165   */\n      swap1\n      pop\n        /* \"#utility.yul\":19805:20171   */\n      swap2\n      swap1\n      pop\n      jump\t// out\n        /* \"#utility.yul\":20177:20596   */\n    tag_244:\n        /* \"#utility.yul\":20343:20347   */\n      0x00\n        /* \"#utility.yul\":20381:20383   */\n      0x20\n        /* \"#utility.yul\":20370:20379   */\n      dup3\n        /* \"#utility.yul\":20366:20384   */\n      add\n        /* \"#utility.yul\":20358:20384   */\n      swap1\n      pop\n        /* \"#utility.yul\":20430:20439   */\n      dup2\n        /* \"#utility.yul\":20424:20428   */\n      dup2\n        /* \"#utility.yul\":20420:20440   */\n      sub\n        /* \"#utility.yul\":20416:20417   */\n      0x00\n        /* \"#utility.yul\":20405:20414   */\n      dup4\n        /* \"#utility.yul\":20401:20418   */\n      add\n        /* \"#utility.yul\":20394:20441   */\n      mstore\n        /* \"#utility.yul\":20458:20589   */\n      tag_693\n        /* \"#utility.yul\":20584:20588   */\n      dup2\n        /* \"#utility.yul\":20458:20589   */\n      tag_486\n      jump\t// in\n    tag_693:\n        /* \"#utility.yul\":20450:20589   */\n      swap1\n      pop\n        /* \"#utility.yul\":20177:20596   */\n      swap2\n      swap1\n      pop\n      jump\t// out\n        /* \"#utility.yul\":20602:20822   */\n    tag_487:\n        /* \"#utility.yul\":20742:20776   */\n      0x537943726f774261727465723a20414c52454144595f494e495449414c495a45\n        /* \"#utility.yul\":20738:20739   */\n      0x00\n        /* \"#utility.yul\":20730:20736   */\n      dup3\n        /* \"#utility.yul\":20726:20740   */\n      add\n        /* \"#utility.yul\":20719:20777   */\n      mstore\n        /* \"#utility.yul\":20811:20814   */\n      0x4400000000000000000000000000000000000000000000000000000000000000\n        /* \"#utility.yul\":20806:20808   */\n      0x20\n        /* \"#utility.yul\":20798:20804   */\n      dup3\n        /* \"#utility.yul\":20794:20809   */\n      add\n        /* \"#utility.yul\":20787:20815   */\n      mstore\n        /* \"#utility.yul\":20602:20822   */\n      pop\n      jump\t// out\n        /* \"#utility.yul\":20828:21194   */\n    tag_488:\n        /* \"#utility.yul\":20970:20973   */\n      0x00\n        /* \"#utility.yul\":20991:21058   */\n      tag_696\n        /* \"#utility.yul\":21055:21057   */\n      0x21\n        /* \"#utility.yul\":21050:21053   */\n      dup4\n        /* \"#utility.yul\":20991:21058   */\n      tag_468\n      jump\t// in\n    tag_696:\n        /* \"#utility.yul\":20984:21058   */\n      swap2\n      pop\n        /* \"#utility.yul\":21067:21160   */\n      tag_697\n        /* \"#utility.yul\":21156:21159   */\n      dup3\n        /* \"#utility.yul\":21067:21160   */\n      tag_487\n      jump\t// in\n    tag_697:\n        /* \"#utility.yul\":21185:21187   */\n      0x40\n        /* \"#utility.yul\":21180:21183   */\n      dup3\n        /* \"#utility.yul\":21176:21188   */\n      add\n        /* \"#utility.yul\":21169:21188   */\n      swap1\n      pop\n        /* \"#utility.yul\":20828:21194   */\n      swap2\n      swap1\n      pop\n      jump\t// out\n        /* \"#utility.yul\":21200:21619   */\n    tag_247:\n        /* \"#utility.yul\":21366:21370   */\n      0x00\n        /* \"#utility.yul\":21404:21406   */\n      0x20\n        /* \"#utility.yul\":21393:21402   */\n      dup3\n        /* \"#utility.yul\":21389:21407   */\n      add\n        /* \"#utility.yul\":21381:21407   */\n      swap1\n      pop\n        /* \"#utility.yul\":21453:21462   */\n      dup2\n        /* \"#utility.yul\":21447:21451   */\n      dup2\n        /* \"#utility.yul\":21443:21463   */\n      sub\n        /* \"#utility.yul\":21439:21440   */\n      0x00\n        /* \"#utility.yul\":21428:21437   */\n      dup4\n        /* \"#utility.yul\":21424:21441   */\n      add\n        /* \"#utility.yul\":21417:21464   */\n      mstore\n        /* \"#utility.yul\":21481:21612   */\n      tag_699\n        /* \"#utility.yul\":21607:21611   */\n      dup2\n        /* \"#utility.yul\":21481:21612   */\n      tag_488\n      jump\t// in\n    tag_699:\n        /* \"#utility.yul\":21473:21612   */\n      swap1\n      pop\n        /* \"#utility.yul\":21200:21619   */\n      swap2\n      swap1\n      pop\n      jump\t// out\n        /* \"#utility.yul\":21625:21802   */\n    tag_489:\n        /* \"#utility.yul\":21765:21794   */\n      0x537943726f774261727465723a20504153545f444541444c494e450000000000\n        /* \"#utility.yul\":21761:21762   */\n      0x00\n        /* \"#utility.yul\":21753:21759   */\n      dup3\n        /* \"#utility.yul\":21749:21763   */\n      add\n        /* \"#utility.yul\":21742:21795   */\n      mstore\n        /* \"#utility.yul\":21625:21802   */\n      pop\n      jump\t// out\n        /* \"#utility.yul\":21808:22174   */\n    tag_490:\n        /* \"#utility.yul\":21950:21953   */\n      0x00\n        /* \"#utility.yul\":21971:22038   */\n      tag_702\n        /* \"#utility.yul\":22035:22037   */\n      0x1b\n        /* \"#utility.yul\":22030:22033   */\n      dup4\n        /* \"#utility.yul\":21971:22038   */\n      tag_468\n      jump\t// in\n    tag_702:\n        /* \"#utility.yul\":21964:22038   */\n      swap2\n      pop\n        /* \"#utility.yul\":22047:22140   */\n      tag_703\n        /* \"#utility.yul\":22136:22139   */\n      dup3\n        /* \"#utility.yul\":22047:22140   */\n      tag_489\n      jump\t// in\n    tag_703:\n        /* \"#utility.yul\":22165:22167   */\n      0x20\n        /* \"#utility.yul\":22160:22163   */\n      dup3\n        /* \"#utility.yul\":22156:22168   */\n      add\n        /* \"#utility.yul\":22149:22168   */\n      swap1\n      pop\n        /* \"#utility.yul\":21808:22174   */\n      swap2\n      swap1\n      pop\n      jump\t// out\n        /* \"#utility.yul\":22180:22599   */\n    tag_250:\n        /* \"#utility.yul\":22346:22350   */\n      0x00\n        /* \"#utility.yul\":22384:22386   */\n      0x20\n        /* \"#utility.yul\":22373:22382   */\n      dup3\n        /* \"#utility.yul\":22369:22387   */\n      add\n        /* \"#utility.yul\":22361:22387   */\n      swap1\n      pop\n        /* \"#utility.yul\":22433:22442   */\n      dup2\n        /* \"#utility.yul\":22427:22431   */\n      dup2\n        /* \"#utility.yul\":22423:22443   */\n      sub\n        /* \"#utility.yul\":22419:22420   */\n      0x00\n        /* \"#utility.yul\":22408:22417   */\n      dup4\n        /* \"#utility.yul\":22404:22421   */\n      add\n        /* \"#utility.yul\":22397:22444   */\n      mstore\n        /* \"#utility.yul\":22461:22592   */\n      tag_705\n        /* \"#utility.yul\":22587:22591   */\n      dup2\n        /* \"#utility.yul\":22461:22592   */\n      tag_490\n      jump\t// in\n    tag_705:\n        /* \"#utility.yul\":22453:22592   */\n      swap1\n      pop\n        /* \"#utility.yul\":22180:22599   */\n      swap2\n      swap1\n      pop\n      jump\t// out\n        /* \"#utility.yul\":22605:22826   */\n    tag_491:\n        /* \"#utility.yul\":22745:22779   */\n      0x537943726f774261727465723a20494e53554646494349454e545f4445504f53\n        /* \"#utility.yul\":22741:22742   */\n      0x00\n        /* \"#utility.yul\":22733:22739   */\n      dup3\n        /* \"#utility.yul\":22729:22743   */\n      add\n        /* \"#utility.yul\":22722:22780   */\n      mstore\n        /* \"#utility.yul\":22814:22818   */\n      0x4954000000000000000000000000000000000000000000000000000000000000\n        /* \"#utility.yul\":22809:22811   */\n      0x20\n        /* \"#utility.yul\":22801:22807   */\n      dup3\n        /* \"#utility.yul\":22797:22812   */\n      add\n        /* \"#utility.yul\":22790:22819   */\n      mstore\n        /* \"#utility.yul\":22605:22826   */\n      pop\n      jump\t// out\n        /* \"#utility.yul\":22832:23198   */\n    tag_492:\n        /* \"#utility.yul\":22974:22977   */\n      0x00\n        /* \"#utility.yul\":22995:23062   */\n      tag_708\n        /* \"#utility.yul\":23059:23061   */\n      0x22\n        /* \"#utility.yul\":23054:23057   */\n      dup4\n        /* \"#utility.yul\":22995:23062   */\n      tag_468\n      jump\t// in\n    tag_708:\n        /* \"#utility.yul\":22988:23062   */\n      swap2\n      pop\n        /* \"#utility.yul\":23071:23164   */\n      tag_709\n        /* \"#utility.yul\":23160:23163   */\n      dup3\n        /* \"#utility.yul\":23071:23164   */\n      tag_491\n      jump\t// in\n    tag_709:\n        /* \"#utility.yul\":23189:23191   */\n      0x40\n        /* \"#utility.yul\":23184:23187   */\n      dup3\n        /* \"#utility.yul\":23180:23192   */\n      add\n        /* \"#utility.yul\":23173:23192   */\n      swap1\n      pop\n        /* \"#utility.yul\":22832:23198   */\n      swap2\n      swap1\n      pop\n      jump\t// out\n        /* \"#utility.yul\":23204:23623   */\n    tag_257:\n        /* \"#utility.yul\":23370:23374   */\n      0x00\n        /* \"#utility.yul\":23408:23410   */\n      0x20\n        /* \"#utility.yul\":23397:23406   */\n      dup3\n        /* \"#utility.yul\":23393:23411   */\n      add\n        /* \"#utility.yul\":23385:23411   */\n      swap1\n      pop\n        /* \"#utility.yul\":23457:23466   */\n      dup2\n        /* \"#utility.yul\":23451:23455   */\n      dup2\n        /* \"#utility.yul\":23447:23467   */\n      sub\n        /* \"#utility.yul\":23443:23444   */\n      0x00\n        /* \"#utility.yul\":23432:23441   */\n      dup4\n        /* \"#utility.yul\":23428:23445   */\n      add\n        /* \"#utility.yul\":23421:23468   */\n      mstore\n        /* \"#utility.yul\":23485:23616   */\n      tag_711\n        /* \"#utility.yul\":23611:23615   */\n      dup2\n        /* \"#utility.yul\":23485:23616   */\n      tag_492\n      jump\t// in\n    tag_711:\n        /* \"#utility.yul\":23477:23616   */\n      swap1\n      pop\n        /* \"#utility.yul\":23204:23623   */\n      swap2\n      swap1\n      pop\n      jump\t// out\n        /* \"#utility.yul\":23629:23809   */\n    tag_493:\n        /* \"#utility.yul\":23677:23754   */\n      0x4e487b7100000000000000000000000000000000000000000000000000000000\n        /* \"#utility.yul\":23674:23675   */\n      0x00\n        /* \"#utility.yul\":23667:23755   */\n      mstore\n        /* \"#utility.yul\":23774:23778   */\n      0x11\n        /* \"#utility.yul\":23771:23772   */\n      0x04\n        /* \"#utility.yul\":23764:23779   */\n      mstore\n        /* \"#utility.yul\":23798:23802   */\n      0x24\n        /* \"#utility.yul\":23795:23796   */\n      0x00\n        /* \"#utility.yul\":23788:23803   */\n      revert\n        /* \"#utility.yul\":23815:24163   */\n    tag_275:\n        /* \"#utility.yul\":23855:23862   */\n      0x00\n        /* \"#utility.yul\":23878:23898   */\n      tag_714\n        /* \"#utility.yul\":23896:23897   */\n      dup3\n        /* \"#utility.yul\":23878:23898   */\n      tag_435\n      jump\t// in\n    tag_714:\n        /* \"#utility.yul\":23873:23898   */\n      swap2\n      pop\n        /* \"#utility.yul\":23912:23932   */\n      tag_715\n        /* \"#utility.yul\":23930:23931   */\n      dup4\n        /* \"#utility.yul\":23912:23932   */\n      tag_435\n      jump\t// in\n    tag_715:\n        /* \"#utility.yul\":23907:23932   */\n      swap3\n      pop\n        /* \"#utility.yul\":24100:24101   */\n      dup2\n        /* \"#utility.yul\":24032:24098   */\n      0xffffffffffffffffffffffffffffffffffffffffffffffffffffffffffffffff\n        /* \"#utility.yul\":24028:24102   */\n      div\n        /* \"#utility.yul\":24025:24026   */\n      dup4\n        /* \"#utility.yul\":24022:24103   */\n      gt\n        /* \"#utility.yul\":24017:24018   */\n      dup3\n        /* \"#utility.yul\":24010:24019   */\n      iszero\n        /* \"#utility.yul\":24003:24020   */\n      iszero\n        /* \"#utility.yul\":23999:24104   */\n      and\n        /* \"#utility.yul\":23996:24127   */\n      iszero\n      tag_716\n      jumpi\n        /* \"#utility.yul\":24107:24125   */\n      tag_717\n      tag_493\n      jump\t// in\n    tag_717:\n        /* \"#utility.yul\":23996:24127   */\n    tag_716:\n        /* \"#utility.yul\":24155:24156   */\n      dup3\n        /* \"#utility.yul\":24152:24153   */\n      dup3\n        /* \"#utility.yul\":24148:24157   */\n      mul\n        /* \"#utility.yul\":24137:24157   */\n      swap1\n      pop\n        /* \"#utility.yul\":23815:24163   */\n      swap3\n      swap2\n      pop\n      pop\n      jump\t// out\n        /* \"#utility.yul\":24169:24349   */\n    tag_494:\n        /* \"#utility.yul\":24217:24294   */\n      0x4e487b7100000000000000000000000000000000000000000000000000000000\n        /* \"#utility.yul\":24214:24215   */\n      0x00\n        /* \"#utility.yul\":24207:24295   */\n      mstore\n        /* \"#utility.yul\":24314:24318   */\n      0x12\n        /* \"#utility.yul\":24311:24312   */\n      0x04\n        /* \"#utility.yul\":24304:24319   */\n      mstore\n        /* \"#utility.yul\":24338:24342   */\n      0x24\n        /* \"#utility.yul\":24335:24336   */\n      0x00\n        /* \"#utility.yul\":24328:24343   */\n      revert\n        /* \"#utility.yul\":24355:24540   */\n    tag_277:\n        /* \"#utility.yul\":24395:24396   */\n      0x00\n        /* \"#utility.yul\":24412:24432   */\n      tag_720\n        /* \"#utility.yul\":24430:24431   */\n      dup3\n        /* \"#utility.yul\":24412:24432   */\n      tag_435\n      jump\t// in\n    tag_720:\n        /* \"#utility.yul\":24407:24432   */\n      swap2\n      pop\n        /* \"#utility.yul\":24446:24466   */\n      tag_721\n        /* \"#utility.yul\":24464:24465   */\n      dup4\n        /* \"#utility.yul\":24446:24466   */\n      tag_435\n      jump\t// in\n    tag_721:\n        /* \"#utility.yul\":24441:24466   */\n      swap3\n      pop\n        /* \"#utility.yul\":24485:24486   */\n      dup3\n        /* \"#utility.yul\":24475:24510   */\n      tag_722\n      jumpi\n        /* \"#utility.yul\":24490:24508   */\n      tag_723\n      tag_494\n      jump\t// in\n    tag_723:\n        /* \"#utility.yul\":24475:24510   */\n    tag_722:\n        /* \"#utility.yul\":24532:24533   */\n      dup3\n        /* \"#utility.yul\":24529:24530   */\n      dup3\n        /* \"#utility.yul\":24525:24534   */\n      div\n        /* \"#utility.yul\":24520:24534   */\n      swap1\n      pop\n        /* \"#utility.yul\":24355:24540   */\n      swap3\n      swap2\n      pop\n      pop\n      jump\t// out\n        /* \"#utility.yul\":24546:24726   */\n    tag_284:\n        /* \"#utility.yul\":24594:24671   */\n      0x4e487b7100000000000000000000000000000000000000000000000000000000\n        /* \"#utility.yul\":24591:24592   */\n      0x00\n        /* \"#utility.yul\":24584:24672   */\n      mstore\n        /* \"#utility.yul\":24691:24695   */\n      0x41\n        /* \"#utility.yul\":24688:24689   */\n      0x04\n        /* \"#utility.yul\":24681:24696   */\n      mstore\n        /* \"#utility.yul\":24715:24719   */\n      0x24\n        /* \"#utility.yul\":24712:24713   */\n      0x00\n        /* \"#utility.yul\":24705:24720   */\n      revert\n        /* \"#utility.yul\":24732:24912   */\n    tag_297:\n        /* \"#utility.yul\":24780:24857   */\n      0x4e487b7100000000000000000000000000000000000000000000000000000000\n        /* \"#utility.yul\":24777:24778   */\n      0x00\n        /* \"#utility.yul\":24770:24858   */\n      mstore\n        /* \"#utility.yul\":24877:24881   */\n      0x32\n        /* \"#utility.yul\":24874:24875   */\n      0x04\n        /* \"#utility.yul\":24867:24882   */\n      mstore\n        /* \"#utility.yul\":24901:24905   */\n      0x24\n        /* \"#utility.yul\":24898:24899   */\n      0x00\n        /* \"#utility.yul\":24891:24906   */\n      revert\n        /* \"#utility.yul\":24918:25151   */\n    tag_312:\n        /* \"#utility.yul\":24957:24960   */\n      0x00\n        /* \"#utility.yul\":24980:25004   */\n      tag_727\n        /* \"#utility.yul\":24998:25003   */\n      dup3\n        /* \"#utility.yul\":24980:25004   */\n      tag_435\n      jump\t// in\n    tag_727:\n        /* \"#utility.yul\":24971:25004   */\n      swap2\n      pop\n        /* \"#utility.yul\":25026:25092   */\n      0xffffffffffffffffffffffffffffffffffffffffffffffffffffffffffffffff\n        /* \"#utility.yul\":25019:25024   */\n      dup3\n        /* \"#utility.yul\":25016:25093   */\n      sub\n        /* \"#utility.yul\":25013:25116   */\n      tag_728\n      jumpi\n        /* \"#utility.yul\":25096:25114   */\n      tag_729\n      tag_493\n      jump\t// in\n    tag_729:\n        /* \"#utility.yul\":25013:25116   */\n    tag_728:\n        /* \"#utility.yul\":25143:25144   */\n      0x01\n        /* \"#utility.yul\":25136:25141   */\n      dup3\n        /* \"#utility.yul\":25132:25145   */\n      add\n        /* \"#utility.yul\":25125:25145   */\n      swap1\n      pop\n        /* \"#utility.yul\":24918:25151   */\n      swap2\n      swap1\n      pop\n      jump\t// out\n        /* \"#utility.yul\":25157:25382   */\n    tag_495:\n        /* \"#utility.yul\":25297:25331   */\n      0x4f776e61626c653a206e6577206f776e657220697320746865207a65726f2061\n        /* \"#utility.yul\":25293:25294   */\n      0x00\n        /* \"#utility.yul\":25285:25291   */\n      dup3\n        /* \"#utility.yul\":25281:25295   */\n      add\n        /* \"#utility.yul\":25274:25332   */\n      mstore\n        /* \"#utility.yul\":25366:25374   */\n      0x6464726573730000000000000000000000000000000000000000000000000000\n        /* \"#utility.yul\":25361:25363   */\n      0x20\n        /* \"#utility.yul\":25353:25359   */\n      dup3\n        /* \"#utility.yul\":25349:25364   */\n      add\n        /* \"#utility.yul\":25342:25375   */\n      mstore\n        /* \"#utility.yul\":25157:25382   */\n      pop\n      jump\t// out\n        /* \"#utility.yul\":25388:25754   */\n    tag_496:\n        /* \"#utility.yul\":25530:25533   */\n      0x00\n        /* \"#utility.yul\":25551:25618   */\n      tag_732\n        /* \"#utility.yul\":25615:25617   */\n      0x26\n        /* \"#utility.yul\":25610:25613   */\n      dup4\n        /* \"#utility.yul\":25551:25618   */\n      tag_468\n      jump\t// in\n    tag_732:\n        /* \"#utility.yul\":25544:25618   */\n      swap2\n      pop\n        /* \"#utility.yul\":25627:25720   */\n      tag_733\n        /* \"#utility.yul\":25716:25719   */\n      dup3\n        /* \"#utility.yul\":25627:25720   */\n      tag_495\n      jump\t// in\n    tag_733:\n        /* \"#utility.yul\":25745:25747   */\n      0x40\n        /* \"#utility.yul\":25740:25743   */\n      dup3\n        /* \"#utility.yul\":25736:25748   */\n      add\n        /* \"#utility.yul\":25729:25748   */\n      swap1\n      pop\n        /* \"#utility.yul\":25388:25754   */\n      swap2\n      swap1\n      pop\n      jump\t// out\n        /* \"#utility.yul\":25760:26179   */\n    tag_321:\n        /* \"#utility.yul\":25926:25930   */\n      0x00\n        /* \"#utility.yul\":25964:25966   */\n      0x20\n        /* \"#utility.yul\":25953:25962   */\n      dup3\n        /* \"#utility.yul\":25949:25967   */\n      add\n        /* \"#utility.yul\":25941:25967   */\n      swap1\n      pop\n        /* \"#utility.yul\":26013:26022   */\n      dup2\n        /* \"#utility.yul\":26007:26011   */\n      dup2\n        /* \"#utility.yul\":26003:26023   */\n      sub\n        /* \"#utility.yul\":25999:26000   */\n      0x00\n        /* \"#utility.yul\":25988:25997   */\n      dup4\n        /* \"#utility.yul\":25984:26001   */\n      add\n        /* \"#utility.yul\":25977:26024   */\n      mstore\n        /* \"#utility.yul\":26041:26172   */\n      tag_735\n        /* \"#utility.yul\":26167:26171   */\n      dup2\n        /* \"#utility.yul\":26041:26172   */\n      tag_496\n      jump\t// in\n    tag_735:\n        /* \"#utility.yul\":26033:26172   */\n      swap1\n      pop\n        /* \"#utility.yul\":25760:26179   */\n      swap2\n      swap1\n      pop\n      jump\t// out\n        /* \"#utility.yul\":26185:26406   */\n    tag_497:\n        /* \"#utility.yul\":26325:26359   */\n      0x537943726f774261727465723a20494e53554646494349454e545f42414c414e\n        /* \"#utility.yul\":26321:26322   */\n      0x00\n        /* \"#utility.yul\":26313:26319   */\n      dup3\n        /* \"#utility.yul\":26309:26323   */\n      add\n        /* \"#utility.yul\":26302:26360   */\n      mstore\n        /* \"#utility.yul\":26394:26398   */\n      0x4345000000000000000000000000000000000000000000000000000000000000\n        /* \"#utility.yul\":26389:26391   */\n      0x20\n        /* \"#utility.yul\":26381:26387   */\n      dup3\n        /* \"#utility.yul\":26377:26392   */\n      add\n        /* \"#utility.yul\":26370:26399   */\n      mstore\n        /* \"#utility.yul\":26185:26406   */\n      pop\n      jump\t// out\n        /* \"#utility.yul\":26412:26778   */\n    tag_498:\n        /* \"#utility.yul\":26554:26557   */\n      0x00\n        /* \"#utility.yul\":26575:26642   */\n      tag_738\n        /* \"#utility.yul\":26639:26641   */\n      0x22\n        /* \"#utility.yul\":26634:26637   */\n      dup4\n        /* \"#utility.yul\":26575:26642   */\n      tag_468\n      jump\t// in\n    tag_738:\n        /* \"#utility.yul\":26568:26642   */\n      swap2\n      pop\n        /* \"#utility.yul\":26651:26744   */\n      tag_739\n        /* \"#utility.yul\":26740:26743   */\n      dup3\n        /* \"#utility.yul\":26651:26744   */\n      tag_497\n      jump\t// in\n    tag_739:\n        /* \"#utility.yul\":26769:26771   */\n      0x40\n        /* \"#utility.yul\":26764:26767   */\n      dup3\n        /* \"#utility.yul\":26760:26772   */\n      add\n        /* \"#utility.yul\":26753:26772   */\n      swap1\n      pop\n        /* \"#utility.yul\":26412:26778   */\n      swap2\n      swap1\n      pop\n      jump\t// out\n        /* \"#utility.yul\":26784:27203   */\n    tag_330:\n        /* \"#utility.yul\":26950:26954   */\n      0x00\n        /* \"#utility.yul\":26988:26990   */\n      0x20\n        /* \"#utility.yul\":26977:26986   */\n      dup3\n        /* \"#utility.yul\":26973:26991   */\n      add\n        /* \"#utility.yul\":26965:26991   */\n      swap1\n      pop\n        /* \"#utility.yul\":27037:27046   */\n      dup2\n        /* \"#utility.yul\":27031:27035   */\n      dup2\n        /* \"#utility.yul\":27027:27047   */\n      sub\n        /* \"#utility.yul\":27023:27024   */\n      0x00\n        /* \"#utility.yul\":27012:27021   */\n      dup4\n        /* \"#utility.yul\":27008:27025   */\n      add\n        /* \"#utility.yul\":27001:27048   */\n      mstore\n        /* \"#utility.yul\":27065:27196   */\n      tag_741\n        /* \"#utility.yul\":27191:27195   */\n      dup2\n        /* \"#utility.yul\":27065:27196   */\n      tag_498\n      jump\t// in\n    tag_741:\n        /* \"#utility.yul\":27057:27196   */\n      swap1\n      pop\n        /* \"#utility.yul\":26784:27203   */\n      swap2\n      swap1\n      pop\n      jump\t// out\n        /* \"#utility.yul\":27209:27439   */\n    tag_499:\n        /* \"#utility.yul\":27349:27383   */\n      0x537943726f774261727465723a20494e53554646494349454e545f434f4e5452\n        /* \"#utility.yul\":27345:27346   */\n      0x00\n        /* \"#utility.yul\":27337:27343   */\n      dup3\n        /* \"#utility.yul\":27333:27347   */\n      add\n        /* \"#utility.yul\":27326:27384   */\n      mstore\n        /* \"#utility.yul\":27418:27431   */\n      0x4143545f42414c414e4345000000000000000000000000000000000000000000\n        /* \"#utility.yul\":27413:27415   */\n      0x20\n        /* \"#utility.yul\":27405:27411   */\n      dup3\n        /* \"#utility.yul\":27401:27416   */\n      add\n        /* \"#utility.yul\":27394:27432   */\n      mstore\n        /* \"#utility.yul\":27209:27439   */\n      pop\n      jump\t// out\n        /* \"#utility.yul\":27445:27811   */\n    tag_500:\n        /* \"#utility.yul\":27587:27590   */\n      0x00\n        /* \"#utility.yul\":27608:27675   */\n      tag_744\n        /* \"#utility.yul\":27672:27674   */\n      0x2b\n        /* \"#utility.yul\":27667:27670   */\n      dup4\n        /* \"#utility.yul\":27608:27675   */\n      tag_468\n      jump\t// in\n    tag_744:\n        /* \"#utility.yul\":27601:27675   */\n      swap2\n      pop\n        /* \"#utility.yul\":27684:27777   */\n      tag_745\n        /* \"#utility.yul\":27773:27776   */\n      dup3\n        /* \"#utility.yul\":27684:27777   */\n      tag_499\n      jump\t// in\n    tag_745:\n        /* \"#utility.yul\":27802:27804   */\n      0x40\n        /* \"#utility.yul\":27797:27800   */\n      dup3\n        /* \"#utility.yul\":27793:27805   */\n      add\n        /* \"#utility.yul\":27786:27805   */\n      swap1\n      pop\n        /* \"#utility.yul\":27445:27811   */\n      swap2\n      swap1\n      pop\n      jump\t// out\n        /* \"#utility.yul\":27817:28236   */\n    tag_338:\n        /* \"#utility.yul\":27983:27987   */\n      0x00\n        /* \"#utility.yul\":28021:28023   */\n      0x20\n        /* \"#utility.yul\":28010:28019   */\n      dup3\n        /* \"#utility.yul\":28006:28024   */\n      add\n        /* \"#utility.yul\":27998:28024   */\n      swap1\n      pop\n        /* \"#utility.yul\":28070:28079   */\n      dup2\n        /* \"#utility.yul\":28064:28068   */\n      dup2\n        /* \"#utility.yul\":28060:28080   */\n      sub\n        /* \"#utility.yul\":28056:28057   */\n      0x00\n        /* \"#utility.yul\":28045:28054   */\n      dup4\n        /* \"#utility.yul\":28041:28058   */\n      add\n        /* \"#utility.yul\":28034:28081   */\n      mstore\n        /* \"#utility.yul\":28098:28229   */\n      tag_747\n        /* \"#utility.yul\":28224:28228   */\n      dup2\n        /* \"#utility.yul\":28098:28229   */\n      tag_500\n      jump\t// in\n    tag_747:\n        /* \"#utility.yul\":28090:28229   */\n      swap1\n      pop\n        /* \"#utility.yul\":27817:28236   */\n      swap2\n      swap1\n      pop\n      jump\t// out\n        /* \"#utility.yul\":28242:28340   */\n    tag_501:\n        /* \"#utility.yul\":28293:28299   */\n      0x00\n        /* \"#utility.yul\":28327:28332   */\n      dup2\n        /* \"#utility.yul\":28321:28333   */\n      mload\n        /* \"#utility.yul\":28311:28333   */\n      swap1\n      pop\n        /* \"#utility.yul\":28242:28340   */\n      swap2\n      swap1\n      pop\n      jump\t// out\n        /* \"#utility.yul\":28346:28493   */\n    tag_502:\n        /* \"#utility.yul\":28447:28458   */\n      0x00\n        /* \"#utility.yul\":28484:28487   */\n      dup2\n        /* \"#utility.yul\":28469:28487   */\n      swap1\n      pop\n        /* \"#utility.yul\":28346:28493   */\n      swap3\n      swap2\n      pop\n      pop\n      jump\t// out\n        /* \"#utility.yul\":28499:28806   */\n    tag_503:\n        /* \"#utility.yul\":28567:28568   */\n      0x00\n        /* \"#utility.yul\":28577:28690   */\n    tag_751:\n        /* \"#utility.yul\":28591:28597   */\n      dup4\n        /* \"#utility.yul\":28588:28589   */\n      dup2\n        /* \"#utility.yul\":28585:28598   */\n      lt\n        /* \"#utility.yul\":28577:28690   */\n      iszero\n      tag_753\n      jumpi\n        /* \"#utility.yul\":28676:28677   */\n      dup1\n        /* \"#utility.yul\":28671:28674   */\n      dup3\n        /* \"#utility.yul\":28667:28678   */\n      add\n        /* \"#utility.yul\":28661:28679   */\n      mload\n        /* \"#utility.yul\":28657:28658   */\n      dup2\n        /* \"#utility.yul\":28652:28655   */\n      dup5\n        /* \"#utility.yul\":28648:28659   */\n      add\n        /* \"#utility.yul\":28641:28680   */\n      mstore\n        /* \"#utility.yul\":28613:28615   */\n      0x20\n        /* \"#utility.yul\":28610:28611   */\n      dup2\n        /* \"#utility.yul\":28606:28616   */\n      add\n        /* \"#utility.yul\":28601:28616   */\n      swap1\n      pop\n        /* \"#utility.yul\":28577:28690   */\n      jump(tag_751)\n    tag_753:\n        /* \"#utility.yul\":28708:28714   */\n      dup4\n        /* \"#utility.yul\":28705:28706   */\n      dup2\n        /* \"#utility.yul\":28702:28715   */\n      gt\n        /* \"#utility.yul\":28699:28800   */\n      iszero\n      tag_754\n      jumpi\n        /* \"#utility.yul\":28788:28789   */\n      0x00\n        /* \"#utility.yul\":28779:28785   */\n      dup5\n        /* \"#utility.yul\":28774:28777   */\n      dup5\n        /* \"#utility.yul\":28770:28786   */\n      add\n        /* \"#utility.yul\":28763:28790   */\n      mstore\n        /* \"#utility.yul\":28699:28800   */\n    tag_754:\n        /* \"#utility.yul\":28548:28806   */\n      pop\n        /* \"#utility.yul\":28499:28806   */\n      pop\n      pop\n      pop\n      jump\t// out\n        /* \"#utility.yul\":28812:29185   */\n    tag_504:\n        /* \"#utility.yul\":28916:28919   */\n      0x00\n        /* \"#utility.yul\":28944:28982   */\n      tag_756\n        /* \"#utility.yul\":28976:28981   */\n      dup3\n        /* \"#utility.yul\":28944:28982   */\n      tag_501\n      jump\t// in\n    tag_756:\n        /* \"#utility.yul\":28998:29086   */\n      tag_757\n        /* \"#utility.yul\":29079:29085   */\n      dup2\n        /* \"#utility.yul\":29074:29077   */\n      dup6\n        /* \"#utility.yul\":28998:29086   */\n      tag_502\n      jump\t// in\n    tag_757:\n        /* \"#utility.yul\":28991:29086   */\n      swap4\n      pop\n        /* \"#utility.yul\":29095:29147   */\n      tag_758\n        /* \"#utility.yul\":29140:29146   */\n      dup2\n        /* \"#utility.yul\":29135:29138   */\n      dup6\n        /* \"#utility.yul\":29128:29132   */\n      0x20\n        /* \"#utility.yul\":29121:29126   */\n      dup7\n        /* \"#utility.yul\":29117:29133   */\n      add\n        /* \"#utility.yul\":29095:29147   */\n      tag_503\n      jump\t// in\n    tag_758:\n        /* \"#utility.yul\":29172:29178   */\n      dup1\n        /* \"#utility.yul\":29167:29170   */\n      dup5\n        /* \"#utility.yul\":29163:29179   */\n      add\n        /* \"#utility.yul\":29156:29179   */\n      swap2\n      pop\n        /* \"#utility.yul\":28920:29185   */\n      pop\n        /* \"#utility.yul\":28812:29185   */\n      swap3\n      swap2\n      pop\n      pop\n      jump\t// out\n        /* \"#utility.yul\":29191:29462   */\n    tag_378:\n        /* \"#utility.yul\":29321:29324   */\n      0x00\n        /* \"#utility.yul\":29343:29436   */\n      tag_760\n        /* \"#utility.yul\":29432:29435   */\n      dup3\n        /* \"#utility.yul\":29423:29429   */\n      dup5\n        /* \"#utility.yul\":29343:29436   */\n      tag_504\n      jump\t// in\n    tag_760:\n        /* \"#utility.yul\":29336:29436   */\n      swap2\n      pop\n        /* \"#utility.yul\":29453:29456   */\n      dup2\n        /* \"#utility.yul\":29446:29456   */\n      swap1\n      pop\n        /* \"#utility.yul\":29191:29462   */\n      swap3\n      swap2\n      pop\n      pop\n      jump\t// out\n        /* \"#utility.yul\":29468:29690   */\n    tag_505:\n        /* \"#utility.yul\":29608:29642   */\n      0x5472616e7366657248656c7065723a204554485f5452414e534645525f464149\n        /* \"#utility.yul\":29604:29605   */\n      0x00\n        /* \"#utility.yul\":29596:29602   */\n      dup3\n        /* \"#utility.yul\":29592:29606   */\n      add\n        /* \"#utility.yul\":29585:29643   */\n      mstore\n        /* \"#utility.yul\":29677:29682   */\n      0x4c45440000000000000000000000000000000000000000000000000000000000\n        /* \"#utility.yul\":29672:29674   */\n      0x20\n        /* \"#utility.yul\":29664:29670   */\n      dup3\n        /* \"#utility.yul\":29660:29675   */\n      add\n        /* \"#utility.yul\":29653:29683   */\n      mstore\n        /* \"#utility.yul\":29468:29690   */\n      pop\n      jump\t// out\n        /* \"#utility.yul\":29696:30062   */\n    tag_506:\n        /* \"#utility.yul\":29838:29841   */\n      0x00\n        /* \"#utility.yul\":29859:29926   */\n      tag_763\n        /* \"#utility.yul\":29923:29925   */\n      0x23\n        /* \"#utility.yul\":29918:29921   */\n      dup4\n        /* \"#utility.yul\":29859:29926   */\n      tag_468\n      jump\t// in\n    tag_763:\n        /* \"#utility.yul\":29852:29926   */\n      swap2\n      pop\n        /* \"#utility.yul\":29935:30028   */\n      tag_764\n        /* \"#utility.yul\":30024:30027   */\n      dup3\n        /* \"#utility.yul\":29935:30028   */\n      tag_505\n      jump\t// in\n    tag_764:\n        /* \"#utility.yul\":30053:30055   */\n      0x40\n        /* \"#utility.yul\":30048:30051   */\n      dup3\n        /* \"#utility.yul\":30044:30056   */\n      add\n        /* \"#utility.yul\":30037:30056   */\n      swap1\n      pop\n        /* \"#utility.yul\":29696:30062   */\n      swap2\n      swap1\n      pop\n      jump\t// out\n        /* \"#utility.yul\":30068:30487   */\n    tag_384:\n        /* \"#utility.yul\":30234:30238   */\n      0x00\n        /* \"#utility.yul\":30272:30274   */\n      0x20\n        /* \"#utility.yul\":30261:30270   */\n      dup3\n        /* \"#utility.yul\":30257:30275   */\n      add\n        /* \"#utility.yul\":30249:30275   */\n      swap1\n      pop\n        /* \"#utility.yul\":30321:30330   */\n      dup2\n        /* \"#utility.yul\":30315:30319   */\n      dup2\n        /* \"#utility.yul\":30311:30331   */\n      sub\n        /* \"#utility.yul\":30307:30308   */\n      0x00\n        /* \"#utility.yul\":30296:30305   */\n      dup4\n        /* \"#utility.yul\":30292:30309   */\n      add\n        /* \"#utility.yul\":30285:30332   */\n      mstore\n        /* \"#utility.yul\":30349:30480   */\n      tag_766\n        /* \"#utility.yul\":30475:30479   */\n      dup2\n        /* \"#utility.yul\":30349:30480   */\n      tag_506\n      jump\t// in\n    tag_766:\n        /* \"#utility.yul\":30341:30480   */\n      swap1\n      pop\n        /* \"#utility.yul\":30068:30487   */\n      swap2\n      swap1\n      pop\n      jump\t// out\n        /* \"#utility.yul\":30493:30825   */\n    tag_387:\n        /* \"#utility.yul\":30614:30618   */\n      0x00\n        /* \"#utility.yul\":30652:30654   */\n      0x40\n        /* \"#utility.yul\":30641:30650   */\n      dup3\n        /* \"#utility.yul\":30637:30655   */\n      add\n        /* \"#utility.yul\":30629:30655   */\n      swap1\n      pop\n        /* \"#utility.yul\":30665:30736   */\n      tag_768\n        /* \"#utility.yul\":30733:30734   */\n      0x00\n        /* \"#utility.yul\":30722:30731   */\n      dup4\n        /* \"#utility.yul\":30718:30735   */\n      add\n        /* \"#utility.yul\":30709:30715   */\n      dup6\n        /* \"#utility.yul\":30665:30736   */\n      tag_453\n      jump\t// in\n    tag_768:\n        /* \"#utility.yul\":30746:30818   */\n      tag_769\n        /* \"#utility.yul\":30814:30816   */\n      0x20\n        /* \"#utility.yul\":30803:30812   */\n      dup4\n        /* \"#utility.yul\":30799:30817   */\n      add\n        /* \"#utility.yul\":30790:30796   */\n      dup5\n        /* \"#utility.yul\":30746:30818   */\n      tag_440\n      jump\t// in\n    tag_769:\n        /* \"#utility.yul\":30493:30825   */\n      swap4\n      swap3\n      pop\n      pop\n      pop\n      jump\t// out\n        /* \"#utility.yul\":30831:31012   */\n    tag_507:\n        /* \"#utility.yul\":30971:31004   */\n      0x5472616e7366657248656c7065723a205452414e534645525f4641494c454400\n        /* \"#utility.yul\":30967:30968   */\n      0x00\n        /* \"#utility.yul\":30959:30965   */\n      dup3\n        /* \"#utility.yul\":30955:30969   */\n      add\n        /* \"#utility.yul\":30948:31005   */\n      mstore\n        /* \"#utility.yul\":30831:31012   */\n      pop\n      jump\t// out\n        /* \"#utility.yul\":31018:31384   */\n    tag_508:\n        /* \"#utility.yul\":31160:31163   */\n      0x00\n        /* \"#utility.yul\":31181:31248   */\n      tag_772\n        /* \"#utility.yul\":31245:31247   */\n      0x1f\n        /* \"#utility.yul\":31240:31243   */\n      dup4\n        /* \"#utility.yul\":31181:31248   */\n      tag_468\n      jump\t// in\n    tag_772:\n        /* \"#utility.yul\":31174:31248   */\n      swap2\n      pop\n        /* \"#utility.yul\":31257:31350   */\n      tag_773\n        /* \"#utility.yul\":31346:31349   */\n      dup3\n        /* \"#utility.yul\":31257:31350   */\n      tag_507\n      jump\t// in\n    tag_773:\n        /* \"#utility.yul\":31375:31377   */\n      0x20\n        /* \"#utility.yul\":31370:31373   */\n      dup3\n        /* \"#utility.yul\":31366:31378   */\n      add\n        /* \"#utility.yul\":31359:31378   */\n      swap1\n      pop\n        /* \"#utility.yul\":31018:31384   */\n      swap2\n      swap1\n      pop\n      jump\t// out\n        /* \"#utility.yul\":31390:31809   */\n    tag_397:\n        /* \"#utility.yul\":31556:31560   */\n      0x00\n        /* \"#utility.yul\":31594:31596   */\n      0x20\n        /* \"#utility.yul\":31583:31592   */\n      dup3\n        /* \"#utility.yul\":31579:31597   */\n      add\n        /* \"#utility.yul\":31571:31597   */\n      swap1\n      pop\n        /* \"#utility.yul\":31643:31652   */\n      dup2\n        /* \"#utility.yul\":31637:31641   */\n      dup2\n        /* \"#utility.yul\":31633:31653   */\n      sub\n        /* \"#utility.yul\":31629:31630   */\n      0x00\n        /* \"#utility.yul\":31618:31627   */\n      dup4\n        /* \"#utility.yul\":31614:31631   */\n      add\n        /* \"#utility.yul\":31607:31654   */\n      mstore\n        /* \"#utility.yul\":31671:31802   */\n      tag_775\n        /* \"#utility.yul\":31797:31801   */\n      dup2\n        /* \"#utility.yul\":31671:31802   */\n      tag_508\n      jump\t// in\n    tag_775:\n        /* \"#utility.yul\":31663:31802   */\n      swap1\n      pop\n        /* \"#utility.yul\":31390:31809   */\n      swap2\n      swap1\n      pop\n      jump\t// out\n        /* \"#utility.yul\":31815:32039   */\n    tag_509:\n        /* \"#utility.yul\":31955:31989   */\n      0x537943726f774261727465723a204d554c54495f54524144455f4e4f545f454e\n        /* \"#utility.yul\":31951:31952   */\n      0x00\n        /* \"#utility.yul\":31943:31949   */\n      dup3\n        /* \"#utility.yul\":31939:31953   */\n      add\n        /* \"#utility.yul\":31932:31990   */\n      mstore\n        /* \"#utility.yul\":32024:32031   */\n      0x41424c4544000000000000000000000000000000000000000000000000000000\n        /* \"#utility.yul\":32019:32021   */\n      0x20\n        /* \"#utility.yul\":32011:32017   */\n      dup3\n        /* \"#utility.yul\":32007:32022   */\n      add\n        /* \"#utility.yul\":32000:32032   */\n      mstore\n        /* \"#utility.yul\":31815:32039   */\n      pop\n      jump\t// out\n        /* \"#utility.yul\":32045:32411   */\n    tag_510:\n        /* \"#utility.yul\":32187:32190   */\n      0x00\n        /* \"#utility.yul\":32208:32275   */\n      tag_778\n        /* \"#utility.yul\":32272:32274   */\n      0x25\n        /* \"#utility.yul\":32267:32270   */\n      dup4\n        /* \"#utility.yul\":32208:32275   */\n      tag_468\n      jump\t// in\n    tag_778:\n        /* \"#utility.yul\":32201:32275   */\n      swap2\n      pop\n        /* \"#utility.yul\":32284:32377   */\n      tag_779\n        /* \"#utility.yul\":32373:32376   */\n      dup3\n        /* \"#utility.yul\":32284:32377   */\n      tag_509\n      jump\t// in\n    tag_779:\n        /* \"#utility.yul\":32402:32404   */\n      0x40\n        /* \"#utility.yul\":32397:32400   */\n      dup3\n        /* \"#utility.yul\":32393:32405   */\n      add\n        /* \"#utility.yul\":32386:32405   */\n      swap1\n      pop\n        /* \"#utility.yul\":32045:32411   */\n      swap2\n      swap1\n      pop\n      jump\t// out\n        /* \"#utility.yul\":32417:32836   */\n    tag_401:\n        /* \"#utility.yul\":32583:32587   */\n      0x00\n        /* \"#utility.yul\":32621:32623   */\n      0x20\n        /* \"#utility.yul\":32610:32619   */\n      dup3\n        /* \"#utility.yul\":32606:32624   */\n      add\n        /* \"#utility.yul\":32598:32624   */\n      swap1\n      pop\n        /* \"#utility.yul\":32670:32679   */\n      dup2\n        /* \"#utility.yul\":32664:32668   */\n      dup2\n        /* \"#utility.yul\":32660:32680   */\n      sub\n        /* \"#utility.yul\":32656:32657   */\n      0x00\n        /* \"#utility.yul\":32645:32654   */\n      dup4\n        /* \"#utility.yul\":32641:32658   */\n      add\n        /* \"#utility.yul\":32634:32681   */\n      mstore\n        /* \"#utility.yul\":32698:32829   */\n      tag_781\n        /* \"#utility.yul\":32824:32828   */\n      dup2\n        /* \"#utility.yul\":32698:32829   */\n      tag_510\n      jump\t// in\n    tag_781:\n        /* \"#utility.yul\":32690:32829   */\n      swap1\n      pop\n        /* \"#utility.yul\":32417:32836   */\n      swap2\n      swap1\n      pop\n      jump\t// out\n        /* \"#utility.yul\":32842:33284   */\n    tag_421:\n        /* \"#utility.yul\":32991:32995   */\n      0x00\n        /* \"#utility.yul\":33029:33031   */\n      0x60\n        /* \"#utility.yul\":33018:33027   */\n      dup3\n        /* \"#utility.yul\":33014:33032   */\n      add\n        /* \"#utility.yul\":33006:33032   */\n      swap1\n      pop\n        /* \"#utility.yul\":33042:33113   */\n      tag_783\n        /* \"#utility.yul\":33110:33111   */\n      0x00\n        /* \"#utility.yul\":33099:33108   */\n      dup4\n        /* \"#utility.yul\":33095:33112   */\n      add\n        /* \"#utility.yul\":33086:33092   */\n      dup7\n        /* \"#utility.yul\":33042:33113   */\n      tag_453\n      jump\t// in\n    tag_783:\n        /* \"#utility.yul\":33123:33195   */\n      tag_784\n        /* \"#utility.yul\":33191:33193   */\n      0x20\n        /* \"#utility.yul\":33180:33189   */\n      dup4\n        /* \"#utility.yul\":33176:33194   */\n      add\n        /* \"#utility.yul\":33167:33173   */\n      dup6\n        /* \"#utility.yul\":33123:33195   */\n      tag_453\n      jump\t// in\n    tag_784:\n        /* \"#utility.yul\":33205:33277   */\n      tag_785\n        /* \"#utility.yul\":33273:33275   */\n      0x40\n        /* \"#utility.yul\":33262:33271   */\n      dup4\n        /* \"#utility.yul\":33258:33276   */\n      add\n        /* \"#utility.yul\":33249:33255   */\n      dup5\n        /* \"#utility.yul\":33205:33277   */\n      tag_440\n      jump\t// in\n    tag_785:\n        /* \"#utility.yul\":32842:33284   */\n      swap5\n      swap4\n      pop\n      pop\n      pop\n      pop\n      jump\t// out\n        /* \"#utility.yul\":33290:33513   */\n    tag_511:\n        /* \"#utility.yul\":33430:33464   */\n      0x5472616e7366657248656c7065723a205452414e534645525f46524f4d5f4641\n        /* \"#utility.yul\":33426:33427   */\n      0x00\n        /* \"#utility.yul\":33418:33424   */\n      dup3\n        /* \"#utility.yul\":33414:33428   */\n      add\n        /* \"#utility.yul\":33407:33465   */\n      mstore\n        /* \"#utility.yul\":33499:33505   */\n      0x494c454400000000000000000000000000000000000000000000000000000000\n        /* \"#utility.yul\":33494:33496   */\n      0x20\n        /* \"#utility.yul\":33486:33492   */\n      dup3\n        /* \"#utility.yul\":33482:33497   */\n      add\n        /* \"#utility.yul\":33475:33506   */\n      mstore\n        /* \"#utility.yul\":33290:33513   */\n      pop\n      jump\t// out\n        /* \"#utility.yul\":33519:33885   */\n    tag_512:\n        /* \"#utility.yul\":33661:33664   */\n      0x00\n        /* \"#utility.yul\":33682:33749   */\n      tag_788\n        /* \"#utility.yul\":33746:33748   */\n      0x24\n        /* \"#utility.yul\":33741:33744   */\n      dup4\n        /* \"#utility.yul\":33682:33749   */\n      tag_468\n      jump\t// in\n    tag_788:\n        /* \"#utility.yul\":33675:33749   */\n      swap2\n      pop\n        /* \"#utility.yul\":33758:33851   */\n      tag_789\n        /* \"#utility.yul\":33847:33850   */\n      dup3\n        /* \"#utility.yul\":33758:33851   */\n      tag_511\n      jump\t// in\n    tag_789:\n        /* \"#utility.yul\":33876:33878   */\n      0x40\n        /* \"#utility.yul\":33871:33874   */\n      dup3\n        /* \"#utility.yul\":33867:33879   */\n      add\n        /* \"#utility.yul\":33860:33879   */\n      swap1\n      pop\n        /* \"#utility.yul\":33519:33885   */\n      swap2\n      swap1\n      pop\n      jump\t// out\n        /* \"#utility.yul\":33891:34310   */\n    tag_431:\n        /* \"#utility.yul\":34057:34061   */\n      0x00\n        /* \"#utility.yul\":34095:34097   */\n      0x20\n        /* \"#utility.yul\":34084:34093   */\n      dup3\n        /* \"#utility.yul\":34080:34098   */\n      add\n        /* \"#utility.yul\":34072:34098   */\n      swap1\n      pop\n        /* \"#utility.yul\":34144:34153   */\n      dup2\n        /* \"#utility.yul\":34138:34142   */\n      dup2\n        /* \"#utility.yul\":34134:34154   */\n      sub\n        /* \"#utility.yul\":34130:34131   */\n      0x00\n        /* \"#utility.yul\":34119:34128   */\n      dup4\n        /* \"#utility.yul\":34115:34132   */\n      add\n        /* \"#utility.yul\":34108:34155   */\n      mstore\n        /* \"#utility.yul\":34172:34303   */\n      tag_791\n        /* \"#utility.yul\":34298:34302   */\n      dup2\n        /* \"#utility.yul\":34172:34303   */\n      tag_512\n      jump\t// in\n    tag_791:\n        /* \"#utility.yul\":34164:34303   */\n      swap1\n      pop\n        /* \"#utility.yul\":33891:34310   */\n      swap2\n      swap1\n      pop\n      jump\t// out\n\n    auxdata: 0xa26469706673582212200cef9cfce88e0ff7262e3ee37d82cf16961169c3309384e1f79bfffaf3b32f2464736f6c634300080d0033\n}\n",
				"bytecode": {
					"linkReferences": {},
					"object": "60a06040526000600460006101000a81548160ff0219169083151502179055503480156200002c57600080fd5b506200004d620000416200008760201b60201c565b6200008f60201b60201c565b3373ffffffffffffffffffffffffffffffffffffffff1660808173ffffffffffffffffffffffffffffffffffffffff168152505062000153565b600033905090565b60008060009054906101000a900473ffffffffffffffffffffffffffffffffffffffff169050816000806101000a81548173ffffffffffffffffffffffffffffffffffffffff021916908373ffffffffffffffffffffffffffffffffffffffff1602179055508173ffffffffffffffffffffffffffffffffffffffff168173ffffffffffffffffffffffffffffffffffffffff167f8be0079c531659141344cd1fd0a4f28419497f9722a3daafe3b4186f6b6457e060405160405180910390a35050565b60805161399c620001a76000396000818161043a0152818161069001528181610cfd01528181610eb501528181611068015281816114fd01528181611c2601528181611f9f015261250e015261399c6000f3fe6080604052600436106100f35760003560e01c8063715018a61161008a578063c45a015511610059578063c45a0155146102d5578063dab5a8df14610300578063e43372e91461033d578063f2fde38b1461036a576100f3565b8063715018a61461023c57806389523742146102535780638da5cb5b1461027e578063aa6ca808146102a9576100f3565b80633d370b4e116100c65780633d370b4e1461018c57806340a6f1ab146101b85780634341f920146101e35780635f5780e5146101ff576100f3565b80630d182605146100f85780632ffc6887146101215780633072cf601461014a5780633ccfd60b14610175575b600080fd5b34801561010457600080fd5b5061011f600480360381019061011a91906127dd565b610393565b005b34801561012d57600080fd5b50610148600480360381019061014391906127dd565b6105e9565b005b34801561015657600080fd5b5061015f61083e565b60405161016c9190612825565b60405180910390f35b34801561018157600080fd5b5061018a610851565b005b34801561019857600080fd5b506101a1610da8565b6040516101af92919061284f565b60405180910390f35b3480156101c457600080fd5b506101cd610e08565b6040516101da9190612878565b60405180910390f35b6101fd60048036038101906101f891906127dd565b610e0e565b005b34801561020b57600080fd5b5061022660048036038101906102219190612942565b611064565b6040516102339190612825565b60405180910390f35b34801561024857600080fd5b50610251611397565b005b34801561025f57600080fd5b5061026861141f565b6040516102759190612a6f565b60405180910390f35b34801561028a57600080fd5b50610293611432565b6040516102a09190612a99565b60405180910390f35b3480156102b557600080fd5b506102be61145b565b6040516102cc929190612ab4565b60405180910390f35b3480156102e157600080fd5b506102ea6114fb565b6040516102f79190612a99565b60405180910390f35b34801561030c57600080fd5b50610327600480360381019061032291906127dd565b61151f565b6040516103349190612878565b60405180910390f35b34801561034957600080fd5b50610352611543565b60405161036193929190612c59565b60405180910390f35b34801561037657600080fd5b50610391600480360381019061038c9190612ca5565b6117df565b005b42600354101580156103a85750600754600154105b6103e7576040517f08c379a00000000000000000000000000000000000000000000000000000000081526004016103de90612d2f565b60405180910390fd5b600460009054906101000a900460ff16610436576040517f08c379a000000000000000000000000000000000000000000000000000000000815260040161042d90612d9b565b60405180910390fd5b60007f000000000000000000000000000000000000000000000000000000000000000090508073ffffffffffffffffffffffffffffffffffffffff1663b187bd266040518163ffffffff1660e01b8152600401602060405180830381865afa1580156104a6573d6000803e3d6000fd5b505050506040513d601f19601f820116820180604052508101906104ca9190612dd0565b1561050a576040517f08c379a000000000000000000000000000000000000000000000000000000000815260040161050190612e6f565b60405180910390fd5b6000600260009054906101000a900460ff16600281111561052e5761052d6129f8565b5b816002811115610541576105406129f8565b5b14610581576040517f08c379a000000000000000000000000000000000000000000000000000000000815260040161057890612f01565b60405180910390fd5b600860009054906101000a900460ff166105db576007548310156105da576040517f08c379a00000000000000000000000000000000000000000000000000000000081526004016105d190612f93565b60405180910390fd5b5b6105e4836118d6565b505050565b42600354101580156105fe5750600754600154105b61063d576040517f08c379a000000000000000000000000000000000000000000000000000000000815260040161063490612d2f565b60405180910390fd5b600460009054906101000a900460ff1661068c576040517f08c379a000000000000000000000000000000000000000000000000000000000815260040161068390612d9b565b60405180910390fd5b60007f000000000000000000000000000000000000000000000000000000000000000090508073ffffffffffffffffffffffffffffffffffffffff1663b187bd266040518163ffffffff1660e01b8152600401602060405180830381865afa1580156106fc573d6000803e3d6000fd5b505050506040513d601f19601f820116820180604052508101906107209190612dd0565b15610760576040517f08c379a000000000000000000000000000000000000000000000000000000000815260040161075790612e6f565b60405180910390fd5b60028060009054906101000a900460ff166002811115610783576107826129f8565b5b816002811115610796576107956129f8565b5b146107d6576040517f08c379a00000000000000000000000000000000000000000000000000000000081526004016107cd90612f01565b60405180910390fd5b600860009054906101000a900460ff166108305760075483101561082f576040517f08c379a000000000000000000000000000000000000000000000000000000000815260040161082690612f93565b60405180910390fd5b5b61083983611cbe565b505050565b600460009054906101000a900460ff1681565b426003541080610865575060075460015410155b6108a4576040517f08c379a000000000000000000000000000000000000000000000000000000000815260040161089b90612fff565b60405180910390fd5b600460009054906101000a900460ff166108f3576040517f08c379a00000000000000000000000000000000000000000000000000000000081526004016108ea90612d9b565b60405180910390fd5b6108fb612036565b73ffffffffffffffffffffffffffffffffffffffff16610919611432565b73ffffffffffffffffffffffffffffffffffffffff161461096f576040517f08c379a00000000000000000000000000000000000000000000000000000000081526004016109669061306b565b60405180910390fd5b6000600260019054906101000a900473ffffffffffffffffffffffffffffffffffffffff16905060008173ffffffffffffffffffffffffffffffffffffffff166370a08231306040518263ffffffff1660e01b81526004016109d19190612a99565b602060405180830381865afa1580156109ee573d6000803e3d6000fd5b505050506040513d601f19601f82011682018060405250810190610a1291906130a0565b90506000811115610ab557600260019054906101000a900473ffffffffffffffffffffffffffffffffffffffff1673ffffffffffffffffffffffffffffffffffffffff16632e1a7d4d826040518263ffffffff1660e01b8152600401610a789190612878565b600060405180830381600087803b158015610a9257600080fd5b505af1158015610aa6573d6000803e3d6000fd5b50505050610ab4338261203e565b5b6000600560009054906101000a900473ffffffffffffffffffffffffffffffffffffffff1673ffffffffffffffffffffffffffffffffffffffff166370a08231306040518263ffffffff1660e01b8152600401610b129190612a99565b602060405180830381865afa158015610b2f573d6000803e3d6000fd5b505050506040513d601f19601f82011682018060405250810190610b5391906130a0565b90506000811115610b8c57610b8b600560009054906101000a900473ffffffffffffffffffffffffffffffffffffffff16338361213e565b5b6000600460019054906101000a900473ffffffffffffffffffffffffffffffffffffffff1673ffffffffffffffffffffffffffffffffffffffff166370a08231306040518263ffffffff1660e01b8152600401610be99190612a99565b602060405180830381865afa158015610c06573d6000803e3d6000fd5b505050506040513d601f19601f82011682018060405250810190610c2a91906130a0565b90506000811115610c6357610c62600460019054906101000a900473ffffffffffffffffffffffffffffffffffffffff16338361213e565b5b60008060006002811115610c7a57610c796129f8565b5b600260009054906101000a900460ff166002811115610c9c57610c9b6129f8565b5b03610cac57849150839050610cf9565b600280811115610cbf57610cbe6129f8565b5b600260009054906101000a900460ff166002811115610ce157610ce06129f8565b5b03610cf157829150839050610cf8565b8291508490505b5b60007f000000000000000000000000000000000000000000000000000000000000000090508073ffffffffffffffffffffffffffffffffffffffff166333796a0e303386866040518563ffffffff1660e01b8152600401610d5d94939291906130cd565b600060405180830381600087803b158015610d7757600080fd5b505af1158015610d8b573d6000803e3d6000fd5b505050503373ffffffffffffffffffffffffffffffffffffffff16ff5b600080600460009054906101000a900460ff16610dfa576040517f08c379a0000000000000000000000000000000000000000000000000000000008152600401610df190612d9b565b60405180910390fd5b600654600754915091509091565b60015481565b4260035410158015610e235750600754600154105b610e62576040517f08c379a0000000000000000000000000000000000000000000000000000000008152600401610e5990612d2f565b60405180910390fd5b600460009054906101000a900460ff16610eb1576040517f08c379a0000000000000000000000000000000000000000000000000000000008152600401610ea890612d9b565b60405180910390fd5b60007f000000000000000000000000000000000000000000000000000000000000000090508073ffffffffffffffffffffffffffffffffffffffff1663b187bd266040518163ffffffff1660e01b8152600401602060405180830381865afa158015610f21573d6000803e3d6000fd5b505050506040513d601f19601f82011682018060405250810190610f459190612dd0565b15610f85576040517f08c379a0000000000000000000000000000000000000000000000000000000008152600401610f7c90612e6f565b60405180910390fd5b6001600260009054906101000a900460ff166002811115610fa957610fa86129f8565b5b816002811115610fbc57610fbb6129f8565b5b14610ffc576040517f08c379a0000000000000000000000000000000000000000000000000000000008152600401610ff390612f01565b60405180910390fd5b600860009054906101000a900460ff1661105657600754341015611055576040517f08c379a000000000000000000000000000000000000000000000000000000000815260040161104c90612f93565b60405180910390fd5b5b61105f83612274565b505050565b60007f000000000000000000000000000000000000000000000000000000000000000073ffffffffffffffffffffffffffffffffffffffff163373ffffffffffffffffffffffffffffffffffffffff16146110f4576040517f08c379a00000000000000000000000000000000000000000000000000000000081526004016110eb9061315e565b60405180910390fd5b600460009054906101000a900460ff1615611144576040517f08c379a000000000000000000000000000000000000000000000000000000000815260040161113b906131f0565b60405180910390fd5b428410611186576040517f08c379a000000000000000000000000000000000000000000000000000000000815260040161117d9061325c565b60405180910390fd5b858873ffffffffffffffffffffffffffffffffffffffff166370a08231306040518263ffffffff1660e01b81526004016111c09190612a99565b602060405180830381865afa1580156111dd573d6000803e3d6000fd5b505050506040513d601f19601f8201168201806040525081019061120191906130a0565b1015611242576040517f08c379a0000000000000000000000000000000000000000000000000000000008152600401611239906132ee565b60405180910390fd5b8360038190555087600460016101000a81548173ffffffffffffffffffffffffffffffffffffffff021916908373ffffffffffffffffffffffffffffffffffffffff16021790555086600560006101000a81548173ffffffffffffffffffffffffffffffffffffffff021916908373ffffffffffffffffffffffffffffffffffffffff160217905550856006819055508460078190555088600260006101000a81548160ff021916908360028111156112fe576112fd6129f8565b5b021790555082600860006101000a81548160ff02191690831515021790555081600260016101000a81548173ffffffffffffffffffffffffffffffffffffffff021916908373ffffffffffffffffffffffffffffffffffffffff1602179055506001600460006101000a81548160ff021916908315150217905550600460009054906101000a900460ff16905098975050505050505050565b61139f612036565b73ffffffffffffffffffffffffffffffffffffffff166113bd611432565b73ffffffffffffffffffffffffffffffffffffffff1614611413576040517f08c379a000000000000000000000000000000000000000000000000000000000815260040161140a9061306b565b60405180910390fd5b61141d60006125a5565b565b600260009054906101000a900460ff1681565b60008060009054906101000a900473ffffffffffffffffffffffffffffffffffffffff16905090565b600080600460009054906101000a900460ff166114ad576040517f08c379a00000000000000000000000000000000000000000000000000000000081526004016114a490612d9b565b60405180910390fd5b600460019054906101000a900473ffffffffffffffffffffffffffffffffffffffff16600560009054906101000a900473ffffffffffffffffffffffffffffffffffffffff16915091509091565b7f000000000000000000000000000000000000000000000000000000000000000081565b600060075460065483611532919061333d565b61153c91906133c6565b9050919050565b6060806060600460009054906101000a900460ff16611597576040517f08c379a000000000000000000000000000000000000000000000000000000000815260040161158e90612d9b565b60405180910390fd5b600060098054905067ffffffffffffffff8111156115b8576115b76133f7565b5b6040519080825280602002602001820160405280156115e65781602001602082028036833780820191505090505b509050600060098054905067ffffffffffffffff81111561160a576116096133f7565b5b6040519080825280602002602001820160405280156116385781602001602082028036833780820191505090505b509050600060098054905067ffffffffffffffff81111561165c5761165b6133f7565b5b60405190808252806020026020018201604052801561168a5781602001602082028036833780820191505090505b50905060005b6009805490508110156117cd57600981815481106116b1576116b0613426565b5b906000526020600020906003020160000160009054906101000a900473ffffffffffffffffffffffffffffffffffffffff168482815181106116f6576116f5613426565b5b602002602001019073ffffffffffffffffffffffffffffffffffffffff16908173ffffffffffffffffffffffffffffffffffffffff16815250506009818154811061174457611743613426565b5b90600052602060002090600302016001015483828151811061176957611768613426565b5b6020026020010181815250506009818154811061178957611788613426565b5b9060005260206000209060030201600201548282815181106117ae576117ad613426565b5b60200260200101818152505080806117c590613455565b915050611690565b50828282955095509550505050909192565b6117e7612036565b73ffffffffffffffffffffffffffffffffffffffff16611805611432565b73ffffffffffffffffffffffffffffffffffffffff161461185b576040517f08c379a00000000000000000000000000000000000000000000000000000000081526004016118529061306b565b60405180910390fd5b600073ffffffffffffffffffffffffffffffffffffffff168173ffffffffffffffffffffffffffffffffffffffff16036118ca576040517f08c379a00000000000000000000000000000000000000000000000000000000081526004016118c19061350f565b60405180910390fd5b6118d3816125a5565b50565b80600560009054906101000a900473ffffffffffffffffffffffffffffffffffffffff1673ffffffffffffffffffffffffffffffffffffffff166370a08231336040518263ffffffff1660e01b81526004016119329190612a99565b602060405180830381865afa15801561194f573d6000803e3d6000fd5b505050506040513d601f19601f8201168201806040525081019061197391906130a0565b10156119b4576040517f08c379a00000000000000000000000000000000000000000000000000000000081526004016119ab906135a1565b60405180910390fd5b60006119bf8261151f565b90506000600260019054906101000a900473ffffffffffffffffffffffffffffffffffffffff169050818173ffffffffffffffffffffffffffffffffffffffff166370a08231306040518263ffffffff1660e01b8152600401611a229190612a99565b602060405180830381865afa158015611a3f573d6000803e3d6000fd5b505050506040513d601f19601f82011682018060405250810190611a6391906130a0565b1015611aa4576040517f08c379a0000000000000000000000000000000000000000000000000000000008152600401611a9b90613633565b60405180910390fd5b600260019054906101000a900473ffffffffffffffffffffffffffffffffffffffff1673ffffffffffffffffffffffffffffffffffffffff16632e1a7d4d836040518263ffffffff1660e01b8152600401611aff9190612878565b600060405180830381600087803b158015611b1957600080fd5b505af1158015611b2d573d6000803e3d6000fd5b50505050611b5f600560009054906101000a900473ffffffffffffffffffffffffffffffffffffffff16333086612669565b611b69338361203e565b600960405180606001604052803373ffffffffffffffffffffffffffffffffffffffff16815260200185815260200184815250908060018154018082558091505060019003906000526020600020906003020160009091909190915060008201518160000160006101000a81548173ffffffffffffffffffffffffffffffffffffffff021916908373ffffffffffffffffffffffffffffffffffffffff1602179055506020820151816001015560408201518160020155505060007f000000000000000000000000000000000000000000000000000000000000000090508073ffffffffffffffffffffffffffffffffffffffff1663f52701b7303387876040518563ffffffff1660e01b8152600401611c8694939291906130cd565b600060405180830381600087803b158015611ca057600080fd5b505af1158015611cb4573d6000803e3d6000fd5b5050505050505050565b80600560009054906101000a900473ffffffffffffffffffffffffffffffffffffffff1673ffffffffffffffffffffffffffffffffffffffff166370a08231336040518263ffffffff1660e01b8152600401611d1a9190612a99565b602060405180830381865afa158015611d37573d6000803e3d6000fd5b505050506040513d601f19601f82011682018060405250810190611d5b91906130a0565b1015611d9c576040517f08c379a0000000000000000000000000000000000000000000000000000000008152600401611d93906135a1565b60405180910390fd5b6000611da78261151f565b905080600460019054906101000a900473ffffffffffffffffffffffffffffffffffffffff1673ffffffffffffffffffffffffffffffffffffffff166370a08231306040518263ffffffff1660e01b8152600401611e059190612a99565b602060405180830381865afa158015611e22573d6000803e3d6000fd5b505050506040513d601f19601f82011682018060405250810190611e4691906130a0565b1015611e87576040517f08c379a0000000000000000000000000000000000000000000000000000000008152600401611e7e90613633565b60405180910390fd5b611eb5600560009054906101000a900473ffffffffffffffffffffffffffffffffffffffff16333085612669565b611ee2600460019054906101000a900473ffffffffffffffffffffffffffffffffffffffff16338361213e565b600960405180606001604052803373ffffffffffffffffffffffffffffffffffffffff16815260200184815260200183815250908060018154018082558091505060019003906000526020600020906003020160009091909190915060008201518160000160006101000a81548173ffffffffffffffffffffffffffffffffffffffff021916908373ffffffffffffffffffffffffffffffffffffffff1602179055506020820151816001015560408201518160020155505060007f000000000000000000000000000000000000000000000000000000000000000090508073ffffffffffffffffffffffffffffffffffffffff1663f52701b7303386866040518563ffffffff1660e01b8152600401611fff94939291906130cd565b600060405180830381600087803b15801561201957600080fd5b505af115801561202d573d6000803e3d6000fd5b50505050505050565b600033905090565b60008273ffffffffffffffffffffffffffffffffffffffff1682600067ffffffffffffffff811115612073576120726133f7565b5b6040519080825280601f01601f1916602001820160405280156120a55781602001600182028036833780820191505090505b506040516120b391906136cd565b60006040518083038185875af1925050503d80600081146120f0576040519150601f19603f3d011682016040523d82523d6000602084013e6120f5565b606091505b5050905080612139576040517f08c379a000000000000000000000000000000000000000000000000000000000815260040161213090613756565b60405180910390fd5b505050565b6000808473ffffffffffffffffffffffffffffffffffffffff1663a9059cbb8585604051602401612170929190613776565b6040516020818303038152906040529060e01b6020820180517bffffffffffffffffffffffffffffffffffffffffffffffffffffffff83818316178352505050506040516121be91906136cd565b6000604051808303816000865af19150503d80600081146121fb576040519150601f19603f3d011682016040523d82523d6000602084013e612200565b606091505b509150915081801561222e575060008151148061222d57508080602001905181019061222c9190612dd0565b5b5b61226d576040517f08c379a0000000000000000000000000000000000000000000000000000000008152600401612264906137eb565b60405180910390fd5b5050505050565b3481146122b6576040517f08c379a00000000000000000000000000000000000000000000000000000000081526004016122ad9061387d565b60405180910390fd5b60006122c18261151f565b905080600460019054906101000a900473ffffffffffffffffffffffffffffffffffffffff1673ffffffffffffffffffffffffffffffffffffffff166370a08231306040518263ffffffff1660e01b815260040161231f9190612a99565b602060405180830381865afa15801561233c573d6000803e3d6000fd5b505050506040513d601f19601f8201168201806040525081019061236091906130a0565b10156123a1576040517f08c379a000000000000000000000000000000000000000000000000000000000815260040161239890613633565b60405180910390fd5b600260019054906101000a900473ffffffffffffffffffffffffffffffffffffffff1673ffffffffffffffffffffffffffffffffffffffff1663d0e30db0836040518263ffffffff1660e01b81526004016000604051808303818588803b15801561240b57600080fd5b505af115801561241f573d6000803e3d6000fd5b5050505050612451600460019054906101000a900473ffffffffffffffffffffffffffffffffffffffff16338361213e565b600960405180606001604052803373ffffffffffffffffffffffffffffffffffffffff16815260200184815260200183815250908060018154018082558091505060019003906000526020600020906003020160009091909190915060008201518160000160006101000a81548173ffffffffffffffffffffffffffffffffffffffff021916908373ffffffffffffffffffffffffffffffffffffffff1602179055506020820151816001015560408201518160020155505060007f000000000000000000000000000000000000000000000000000000000000000090508073ffffffffffffffffffffffffffffffffffffffff1663f52701b7303386866040518563ffffffff1660e01b815260040161256e94939291906130cd565b600060405180830381600087803b15801561258857600080fd5b505af115801561259c573d6000803e3d6000fd5b50505050505050565b60008060009054906101000a900473ffffffffffffffffffffffffffffffffffffffff169050816000806101000a81548173ffffffffffffffffffffffffffffffffffffffff021916908373ffffffffffffffffffffffffffffffffffffffff1602179055508173ffffffffffffffffffffffffffffffffffffffff168173ffffffffffffffffffffffffffffffffffffffff167f8be0079c531659141344cd1fd0a4f28419497f9722a3daafe3b4186f6b6457e060405160405180910390a35050565b6000808573ffffffffffffffffffffffffffffffffffffffff166323b872dd86868660405160240161269d9392919061389d565b6040516020818303038152906040529060e01b6020820180517bffffffffffffffffffffffffffffffffffffffffffffffffffffffff83818316178352505050506040516126eb91906136cd565b6000604051808303816000865af19150503d8060008114612728576040519150601f19603f3d011682016040523d82523d6000602084013e61272d565b606091505b509150915081801561275b575060008151148061275a5750808060200190518101906127599190612dd0565b5b5b61279a576040517f08c379a000000000000000000000000000000000000000000000000000000000815260040161279190613946565b60405180910390fd5b505050505050565b600080fd5b6000819050919050565b6127ba816127a7565b81146127c557600080fd5b50565b6000813590506127d7816127b1565b92915050565b6000602082840312156127f3576127f26127a2565b5b6000612801848285016127c8565b91505092915050565b60008115159050919050565b61281f8161280a565b82525050565b600060208201905061283a6000830184612816565b92915050565b612849816127a7565b82525050565b60006040820190506128646000830185612840565b6128716020830184612840565b9392505050565b600060208201905061288d6000830184612840565b92915050565b600381106128a057600080fd5b50565b6000813590506128b281612893565b92915050565b600073ffffffffffffffffffffffffffffffffffffffff82169050919050565b60006128e3826128b8565b9050919050565b6128f3816128d8565b81146128fe57600080fd5b50565b600081359050612910816128ea565b92915050565b61291f8161280a565b811461292a57600080fd5b50565b60008135905061293c81612916565b92915050565b600080600080600080600080610100898b031215612963576129626127a2565b5b60006129718b828c016128a3565b98505060206129828b828c01612901565b97505060406129938b828c01612901565b96505060606129a48b828c016127c8565b95505060806129b58b828c016127c8565b94505060a06129c68b828c016127c8565b93505060c06129d78b828c0161292d565b92505060e06129e88b828c01612901565b9150509295985092959890939650565b7f4e487b7100000000000000000000000000000000000000000000000000000000600052602160045260246000fd5b60038110612a3857612a376129f8565b5b50565b6000819050612a4982612a27565b919050565b6000612a5982612a3b565b9050919050565b612a6981612a4e565b82525050565b6000602082019050612a846000830184612a60565b92915050565b612a93816128d8565b82525050565b6000602082019050612aae6000830184612a8a565b92915050565b6000604082019050612ac96000830185612a8a565b612ad66020830184612a8a565b9392505050565b600081519050919050565b600082825260208201905092915050565b6000819050602082019050919050565b612b12816128d8565b82525050565b6000612b248383612b09565b60208301905092915050565b6000602082019050919050565b6000612b4882612add565b612b528185612ae8565b9350612b5d83612af9565b8060005b83811015612b8e578151612b758882612b18565b9750612b8083612b30565b925050600181019050612b61565b5085935050505092915050565b600081519050919050565b600082825260208201905092915050565b6000819050602082019050919050565b612bd0816127a7565b82525050565b6000612be28383612bc7565b60208301905092915050565b6000602082019050919050565b6000612c0682612b9b565b612c108185612ba6565b9350612c1b83612bb7565b8060005b83811015612c4c578151612c338882612bd6565b9750612c3e83612bee565b925050600181019050612c1f565b5085935050505092915050565b60006060820190508181036000830152612c738186612b3d565b90508181036020830152612c878185612bfb565b90508181036040830152612c9b8184612bfb565b9050949350505050565b600060208284031215612cbb57612cba6127a2565b5b6000612cc984828501612901565b91505092915050565b600082825260208201905092915050565b7f537943726f774261727465723a20494e41435449564500000000000000000000600082015250565b6000612d19601683612cd2565b9150612d2482612ce3565b602082019050919050565b60006020820190508181036000830152612d4881612d0c565b9050919050565b7f537943726f774261727465723a204e4f545f494e495449414c495a4544000000600082015250565b6000612d85601d83612cd2565b9150612d9082612d4f565b602082019050919050565b60006020820190508181036000830152612db481612d78565b9050919050565b600081519050612dca81612916565b92915050565b600060208284031215612de657612de56127a2565b5b6000612df484828501612dbb565b91505092915050565b7f537943726f774261727465723a204261736520436f6e7472616374205061757360008201527f6564000000000000000000000000000000000000000000000000000000000000602082015250565b6000612e59602283612cd2565b9150612e6482612dfd565b604082019050919050565b60006020820190508181036000830152612e8881612e4c565b9050919050565b7f537943726f774261727465723a20494e56414c49445f4241525445525f54595060008201527f4500000000000000000000000000000000000000000000000000000000000000602082015250565b6000612eeb602183612cd2565b9150612ef682612e8f565b604082019050919050565b60006020820190508181036000830152612f1a81612ede565b9050919050565b7f537943726f774261727465723a20414d4f554e545f4c4f5745525f5448414e5f60008201527f5245515552495245440000000000000000000000000000000000000000000000602082015250565b6000612f7d602983612cd2565b9150612f8882612f21565b604082019050919050565b60006020820190508181036000830152612fac81612f70565b9050919050565b7f537943726f774261727465723a20414354495645000000000000000000000000600082015250565b6000612fe9601483612cd2565b9150612ff482612fb3565b602082019050919050565b6000602082019050818103600083015261301881612fdc565b9050919050565b7f4f776e61626c653a2063616c6c6572206973206e6f7420746865206f776e6572600082015250565b6000613055602083612cd2565b91506130608261301f565b602082019050919050565b6000602082019050818103600083015261308481613048565b9050919050565b60008151905061309a816127b1565b92915050565b6000602082840312156130b6576130b56127a2565b5b60006130c48482850161308b565b91505092915050565b60006080820190506130e26000830187612a8a565b6130ef6020830186612a8a565b6130fc6040830185612840565b6131096060830184612840565b95945050505050565b7f537943726f774261727465723a20464f5242494444454e000000000000000000600082015250565b6000613148601783612cd2565b915061315382613112565b602082019050919050565b600060208201905081810360008301526131778161313b565b9050919050565b7f537943726f774261727465723a20414c52454144595f494e495449414c495a4560008201527f4400000000000000000000000000000000000000000000000000000000000000602082015250565b60006131da602183612cd2565b91506131e58261317e565b604082019050919050565b60006020820190508181036000830152613209816131cd565b9050919050565b7f537943726f774261727465723a20504153545f444541444c494e450000000000600082015250565b6000613246601b83612cd2565b915061325182613210565b602082019050919050565b6000602082019050818103600083015261327581613239565b9050919050565b7f537943726f774261727465723a20494e53554646494349454e545f4445504f5360008201527f4954000000000000000000000000000000000000000000000000000000000000602082015250565b60006132d8602283612cd2565b91506132e38261327c565b604082019050919050565b60006020820190508181036000830152613307816132cb565b9050919050565b7f4e487b7100000000000000000000000000000000000000000000000000000000600052601160045260246000fd5b6000613348826127a7565b9150613353836127a7565b9250817fffffffffffffffffffffffffffffffffffffffffffffffffffffffffffffffff048311821515161561338c5761338b61330e565b5b828202905092915050565b7f4e487b7100000000000000000000000000000000000000000000000000000000600052601260045260246000fd5b60006133d1826127a7565b91506133dc836127a7565b9250826133ec576133eb613397565b5b828204905092915050565b7f4e487b7100000000000000000000000000000000000000000000000000000000600052604160045260246000fd5b7f4e487b7100000000000000000000000000000000000000000000000000000000600052603260045260246000fd5b6000613460826127a7565b91507fffffffffffffffffffffffffffffffffffffffffffffffffffffffffffffffff82036134925761349161330e565b5b600182019050919050565b7f4f776e61626c653a206e6577206f776e657220697320746865207a65726f206160008201527f6464726573730000000000000000000000000000000000000000000000000000602082015250565b60006134f9602683612cd2565b91506135048261349d565b604082019050919050565b60006020820190508181036000830152613528816134ec565b9050919050565b7f537943726f774261727465723a20494e53554646494349454e545f42414c414e60008201527f4345000000000000000000000000000000000000000000000000000000000000602082015250565b600061358b602283612cd2565b91506135968261352f565b604082019050919050565b600060208201905081810360008301526135ba8161357e565b9050919050565b7f537943726f774261727465723a20494e53554646494349454e545f434f4e545260008201527f4143545f42414c414e4345000000000000000000000000000000000000000000602082015250565b600061361d602b83612cd2565b9150613628826135c1565b604082019050919050565b6000602082019050818103600083015261364c81613610565b9050919050565b600081519050919050565b600081905092915050565b60005b8381101561368757808201518184015260208101905061366c565b83811115613696576000848401525b50505050565b60006136a782613653565b6136b1818561365e565b93506136c1818560208601613669565b80840191505092915050565b60006136d9828461369c565b915081905092915050565b7f5472616e7366657248656c7065723a204554485f5452414e534645525f46414960008201527f4c45440000000000000000000000000000000000000000000000000000000000602082015250565b6000613740602383612cd2565b915061374b826136e4565b604082019050919050565b6000602082019050818103600083015261376f81613733565b9050919050565b600060408201905061378b6000830185612a8a565b6137986020830184612840565b9392505050565b7f5472616e7366657248656c7065723a205452414e534645525f4641494c454400600082015250565b60006137d5601f83612cd2565b91506137e08261379f565b602082019050919050565b60006020820190508181036000830152613804816137c8565b9050919050565b7f537943726f774261727465723a204d554c54495f54524144455f4e4f545f454e60008201527f41424c4544000000000000000000000000000000000000000000000000000000602082015250565b6000613867602583612cd2565b91506138728261380b565b604082019050919050565b600060208201905081810360008301526138968161385a565b9050919050565b60006060820190506138b26000830186612a8a565b6138bf6020830185612a8a565b6138cc6040830184612840565b949350505050565b7f5472616e7366657248656c7065723a205452414e534645525f46524f4d5f464160008201527f494c454400000000000000000000000000000000000000000000000000000000602082015250565b6000613930602483612cd2565b915061393b826138d4565b604082019050919050565b6000602082019050818103600083015261395f81613923565b905091905056fea26469706673582212200cef9cfce88e0ff7262e3ee37d82cf16961169c3309384e1f79bfffaf3b32f2464736f6c634300080d0033",
					"opcodes": "PUSH1 0xA0 PUSH1 0x40 MSTORE PUSH1 0x0 PUSH1 0x4 PUSH1 0x0 PUSH2 0x100 EXP DUP2 SLOAD DUP2 PUSH1 0xFF MUL NOT AND SWAP1 DUP4 ISZERO ISZERO MUL OR SWAP1 SSTORE POP CALLVALUE DUP1 ISZERO PUSH3 0x2C JUMPI PUSH1 0x0 DUP1 REVERT JUMPDEST POP PUSH3 0x4D PUSH3 0x41 PUSH3 0x87 PUSH1 0x20 SHL PUSH1 0x20 SHR JUMP JUMPDEST PUSH3 0x8F PUSH1 0x20 SHL PUSH1 0x20 SHR JUMP JUMPDEST CALLER PUSH20 0xFFFFFFFFFFFFFFFFFFFFFFFFFFFFFFFFFFFFFFFF AND PUSH1 0x80 DUP2 PUSH20 0xFFFFFFFFFFFFFFFFFFFFFFFFFFFFFFFFFFFFFFFF AND DUP2 MSTORE POP POP PUSH3 0x153 JUMP JUMPDEST PUSH1 0x0 CALLER SWAP1 POP SWAP1 JUMP JUMPDEST PUSH1 0x0 DUP1 PUSH1 0x0 SWAP1 SLOAD SWAP1 PUSH2 0x100 EXP SWAP1 DIV PUSH20 0xFFFFFFFFFFFFFFFFFFFFFFFFFFFFFFFFFFFFFFFF AND SWAP1 POP DUP2 PUSH1 0x0 DUP1 PUSH2 0x100 EXP DUP2 SLOAD DUP2 PUSH20 0xFFFFFFFFFFFFFFFFFFFFFFFFFFFFFFFFFFFFFFFF MUL NOT AND SWAP1 DUP4 PUSH20 0xFFFFFFFFFFFFFFFFFFFFFFFFFFFFFFFFFFFFFFFF AND MUL OR SWAP1 SSTORE POP DUP2 PUSH20 0xFFFFFFFFFFFFFFFFFFFFFFFFFFFFFFFFFFFFFFFF AND DUP2 PUSH20 0xFFFFFFFFFFFFFFFFFFFFFFFFFFFFFFFFFFFFFFFF AND PUSH32 0x8BE0079C531659141344CD1FD0A4F28419497F9722A3DAAFE3B4186F6B6457E0 PUSH1 0x40 MLOAD PUSH1 0x40 MLOAD DUP1 SWAP2 SUB SWAP1 LOG3 POP POP JUMP JUMPDEST PUSH1 0x80 MLOAD PUSH2 0x399C PUSH3 0x1A7 PUSH1 0x0 CODECOPY PUSH1 0x0 DUP2 DUP2 PUSH2 0x43A ADD MSTORE DUP2 DUP2 PUSH2 0x690 ADD MSTORE DUP2 DUP2 PUSH2 0xCFD ADD MSTORE DUP2 DUP2 PUSH2 0xEB5 ADD MSTORE DUP2 DUP2 PUSH2 0x1068 ADD MSTORE DUP2 DUP2 PUSH2 0x14FD ADD MSTORE DUP2 DUP2 PUSH2 0x1C26 ADD MSTORE DUP2 DUP2 PUSH2 0x1F9F ADD MSTORE PUSH2 0x250E ADD MSTORE PUSH2 0x399C PUSH1 0x0 RETURN INVALID PUSH1 0x80 PUSH1 0x40 MSTORE PUSH1 0x4 CALLDATASIZE LT PUSH2 0xF3 JUMPI PUSH1 0x0 CALLDATALOAD PUSH1 0xE0 SHR DUP1 PUSH4 0x715018A6 GT PUSH2 0x8A JUMPI DUP1 PUSH4 0xC45A0155 GT PUSH2 0x59 JUMPI DUP1 PUSH4 0xC45A0155 EQ PUSH2 0x2D5 JUMPI DUP1 PUSH4 0xDAB5A8DF EQ PUSH2 0x300 JUMPI DUP1 PUSH4 0xE43372E9 EQ PUSH2 0x33D JUMPI DUP1 PUSH4 0xF2FDE38B EQ PUSH2 0x36A JUMPI PUSH2 0xF3 JUMP JUMPDEST DUP1 PUSH4 0x715018A6 EQ PUSH2 0x23C JUMPI DUP1 PUSH4 0x89523742 EQ PUSH2 0x253 JUMPI DUP1 PUSH4 0x8DA5CB5B EQ PUSH2 0x27E JUMPI DUP1 PUSH4 0xAA6CA808 EQ PUSH2 0x2A9 JUMPI PUSH2 0xF3 JUMP JUMPDEST DUP1 PUSH4 0x3D370B4E GT PUSH2 0xC6 JUMPI DUP1 PUSH4 0x3D370B4E EQ PUSH2 0x18C JUMPI DUP1 PUSH4 0x40A6F1AB EQ PUSH2 0x1B8 JUMPI DUP1 PUSH4 0x4341F920 EQ PUSH2 0x1E3 JUMPI DUP1 PUSH4 0x5F5780E5 EQ PUSH2 0x1FF JUMPI PUSH2 0xF3 JUMP JUMPDEST DUP1 PUSH4 0xD182605 EQ PUSH2 0xF8 JUMPI DUP1 PUSH4 0x2FFC6887 EQ PUSH2 0x121 JUMPI DUP1 PUSH4 0x3072CF60 EQ PUSH2 0x14A JUMPI DUP1 PUSH4 0x3CCFD60B EQ PUSH2 0x175 JUMPI JUMPDEST PUSH1 0x0 DUP1 REVERT JUMPDEST CALLVALUE DUP1 ISZERO PUSH2 0x104 JUMPI PUSH1 0x0 DUP1 REVERT JUMPDEST POP PUSH2 0x11F PUSH1 0x4 DUP1 CALLDATASIZE SUB DUP2 ADD SWAP1 PUSH2 0x11A SWAP2 SWAP1 PUSH2 0x27DD JUMP JUMPDEST PUSH2 0x393 JUMP JUMPDEST STOP JUMPDEST CALLVALUE DUP1 ISZERO PUSH2 0x12D JUMPI PUSH1 0x0 DUP1 REVERT JUMPDEST POP PUSH2 0x148 PUSH1 0x4 DUP1 CALLDATASIZE SUB DUP2 ADD SWAP1 PUSH2 0x143 SWAP2 SWAP1 PUSH2 0x27DD JUMP JUMPDEST PUSH2 0x5E9 JUMP JUMPDEST STOP JUMPDEST CALLVALUE DUP1 ISZERO PUSH2 0x156 JUMPI PUSH1 0x0 DUP1 REVERT JUMPDEST POP PUSH2 0x15F PUSH2 0x83E JUMP JUMPDEST PUSH1 0x40 MLOAD PUSH2 0x16C SWAP2 SWAP1 PUSH2 0x2825 JUMP JUMPDEST PUSH1 0x40 MLOAD DUP1 SWAP2 SUB SWAP1 RETURN JUMPDEST CALLVALUE DUP1 ISZERO PUSH2 0x181 JUMPI PUSH1 0x0 DUP1 REVERT JUMPDEST POP PUSH2 0x18A PUSH2 0x851 JUMP JUMPDEST STOP JUMPDEST CALLVALUE DUP1 ISZERO PUSH2 0x198 JUMPI PUSH1 0x0 DUP1 REVERT JUMPDEST POP PUSH2 0x1A1 PUSH2 0xDA8 JUMP JUMPDEST PUSH1 0x40 MLOAD PUSH2 0x1AF SWAP3 SWAP2 SWAP1 PUSH2 0x284F JUMP JUMPDEST PUSH1 0x40 MLOAD DUP1 SWAP2 SUB SWAP1 RETURN JUMPDEST CALLVALUE DUP1 ISZERO PUSH2 0x1C4 JUMPI PUSH1 0x0 DUP1 REVERT JUMPDEST POP PUSH2 0x1CD PUSH2 0xE08 JUMP JUMPDEST PUSH1 0x40 MLOAD PUSH2 0x1DA SWAP2 SWAP1 PUSH2 0x2878 JUMP JUMPDEST PUSH1 0x40 MLOAD DUP1 SWAP2 SUB SWAP1 RETURN JUMPDEST PUSH2 0x1FD PUSH1 0x4 DUP1 CALLDATASIZE SUB DUP2 ADD SWAP1 PUSH2 0x1F8 SWAP2 SWAP1 PUSH2 0x27DD JUMP JUMPDEST PUSH2 0xE0E JUMP JUMPDEST STOP JUMPDEST CALLVALUE DUP1 ISZERO PUSH2 0x20B JUMPI PUSH1 0x0 DUP1 REVERT JUMPDEST POP PUSH2 0x226 PUSH1 0x4 DUP1 CALLDATASIZE SUB DUP2 ADD SWAP1 PUSH2 0x221 SWAP2 SWAP1 PUSH2 0x2942 JUMP JUMPDEST PUSH2 0x1064 JUMP JUMPDEST PUSH1 0x40 MLOAD PUSH2 0x233 SWAP2 SWAP1 PUSH2 0x2825 JUMP JUMPDEST PUSH1 0x40 MLOAD DUP1 SWAP2 SUB SWAP1 RETURN JUMPDEST CALLVALUE DUP1 ISZERO PUSH2 0x248 JUMPI PUSH1 0x0 DUP1 REVERT JUMPDEST POP PUSH2 0x251 PUSH2 0x1397 JUMP JUMPDEST STOP JUMPDEST CALLVALUE DUP1 ISZERO PUSH2 0x25F JUMPI PUSH1 0x0 DUP1 REVERT JUMPDEST POP PUSH2 0x268 PUSH2 0x141F JUMP JUMPDEST PUSH1 0x40 MLOAD PUSH2 0x275 SWAP2 SWAP1 PUSH2 0x2A6F JUMP JUMPDEST PUSH1 0x40 MLOAD DUP1 SWAP2 SUB SWAP1 RETURN JUMPDEST CALLVALUE DUP1 ISZERO PUSH2 0x28A JUMPI PUSH1 0x0 DUP1 REVERT JUMPDEST POP PUSH2 0x293 PUSH2 0x1432 JUMP JUMPDEST PUSH1 0x40 MLOAD PUSH2 0x2A0 SWAP2 SWAP1 PUSH2 0x2A99 JUMP JUMPDEST PUSH1 0x40 MLOAD DUP1 SWAP2 SUB SWAP1 RETURN JUMPDEST CALLVALUE DUP1 ISZERO PUSH2 0x2B5 JUMPI PUSH1 0x0 DUP1 REVERT JUMPDEST POP PUSH2 0x2BE PUSH2 0x145B JUMP JUMPDEST PUSH1 0x40 MLOAD PUSH2 0x2CC SWAP3 SWAP2 SWAP1 PUSH2 0x2AB4 JUMP JUMPDEST PUSH1 0x40 MLOAD DUP1 SWAP2 SUB SWAP1 RETURN JUMPDEST CALLVALUE DUP1 ISZERO PUSH2 0x2E1 JUMPI PUSH1 0x0 DUP1 REVERT JUMPDEST POP PUSH2 0x2EA PUSH2 0x14FB JUMP JUMPDEST PUSH1 0x40 MLOAD PUSH2 0x2F7 SWAP2 SWAP1 PUSH2 0x2A99 JUMP JUMPDEST PUSH1 0x40 MLOAD DUP1 SWAP2 SUB SWAP1 RETURN JUMPDEST CALLVALUE DUP1 ISZERO PUSH2 0x30C JUMPI PUSH1 0x0 DUP1 REVERT JUMPDEST POP PUSH2 0x327 PUSH1 0x4 DUP1 CALLDATASIZE SUB DUP2 ADD SWAP1 PUSH2 0x322 SWAP2 SWAP1 PUSH2 0x27DD JUMP JUMPDEST PUSH2 0x151F JUMP JUMPDEST PUSH1 0x40 MLOAD PUSH2 0x334 SWAP2 SWAP1 PUSH2 0x2878 JUMP JUMPDEST PUSH1 0x40 MLOAD DUP1 SWAP2 SUB SWAP1 RETURN JUMPDEST CALLVALUE DUP1 ISZERO PUSH2 0x349 JUMPI PUSH1 0x0 DUP1 REVERT JUMPDEST POP PUSH2 0x352 PUSH2 0x1543 JUMP JUMPDEST PUSH1 0x40 MLOAD PUSH2 0x361 SWAP4 SWAP3 SWAP2 SWAP1 PUSH2 0x2C59 JUMP JUMPDEST PUSH1 0x40 MLOAD DUP1 SWAP2 SUB SWAP1 RETURN JUMPDEST CALLVALUE DUP1 ISZERO PUSH2 0x376 JUMPI PUSH1 0x0 DUP1 REVERT JUMPDEST POP PUSH2 0x391 PUSH1 0x4 DUP1 CALLDATASIZE SUB DUP2 ADD SWAP1 PUSH2 0x38C SWAP2 SWAP1 PUSH2 0x2CA5 JUMP JUMPDEST PUSH2 0x17DF JUMP JUMPDEST STOP JUMPDEST TIMESTAMP PUSH1 0x3 SLOAD LT ISZERO DUP1 ISZERO PUSH2 0x3A8 JUMPI POP PUSH1 0x7 SLOAD PUSH1 0x1 SLOAD LT JUMPDEST PUSH2 0x3E7 JUMPI PUSH1 0x40 MLOAD PUSH32 0x8C379A000000000000000000000000000000000000000000000000000000000 DUP2 MSTORE PUSH1 0x4 ADD PUSH2 0x3DE SWAP1 PUSH2 0x2D2F JUMP JUMPDEST PUSH1 0x40 MLOAD DUP1 SWAP2 SUB SWAP1 REVERT JUMPDEST PUSH1 0x4 PUSH1 0x0 SWAP1 SLOAD SWAP1 PUSH2 0x100 EXP SWAP1 DIV PUSH1 0xFF AND PUSH2 0x436 JUMPI PUSH1 0x40 MLOAD PUSH32 0x8C379A000000000000000000000000000000000000000000000000000000000 DUP2 MSTORE PUSH1 0x4 ADD PUSH2 0x42D SWAP1 PUSH2 0x2D9B JUMP JUMPDEST PUSH1 0x40 MLOAD DUP1 SWAP2 SUB SWAP1 REVERT JUMPDEST PUSH1 0x0 PUSH32 0x0 SWAP1 POP DUP1 PUSH20 0xFFFFFFFFFFFFFFFFFFFFFFFFFFFFFFFFFFFFFFFF AND PUSH4 0xB187BD26 PUSH1 0x40 MLOAD DUP2 PUSH4 0xFFFFFFFF AND PUSH1 0xE0 SHL DUP2 MSTORE PUSH1 0x4 ADD PUSH1 0x20 PUSH1 0x40 MLOAD DUP1 DUP4 SUB DUP2 DUP7 GAS STATICCALL ISZERO DUP1 ISZERO PUSH2 0x4A6 JUMPI RETURNDATASIZE PUSH1 0x0 DUP1 RETURNDATACOPY RETURNDATASIZE PUSH1 0x0 REVERT JUMPDEST POP POP POP POP PUSH1 0x40 MLOAD RETURNDATASIZE PUSH1 0x1F NOT PUSH1 0x1F DUP3 ADD AND DUP3 ADD DUP1 PUSH1 0x40 MSTORE POP DUP2 ADD SWAP1 PUSH2 0x4CA SWAP2 SWAP1 PUSH2 0x2DD0 JUMP JUMPDEST ISZERO PUSH2 0x50A JUMPI PUSH1 0x40 MLOAD PUSH32 0x8C379A000000000000000000000000000000000000000000000000000000000 DUP2 MSTORE PUSH1 0x4 ADD PUSH2 0x501 SWAP1 PUSH2 0x2E6F JUMP JUMPDEST PUSH1 0x40 MLOAD DUP1 SWAP2 SUB SWAP1 REVERT JUMPDEST PUSH1 0x0 PUSH1 0x2 PUSH1 0x0 SWAP1 SLOAD SWAP1 PUSH2 0x100 EXP SWAP1 DIV PUSH1 0xFF AND PUSH1 0x2 DUP2 GT ISZERO PUSH2 0x52E JUMPI PUSH2 0x52D PUSH2 0x29F8 JUMP JUMPDEST JUMPDEST DUP2 PUSH1 0x2 DUP2 GT ISZERO PUSH2 0x541 JUMPI PUSH2 0x540 PUSH2 0x29F8 JUMP JUMPDEST JUMPDEST EQ PUSH2 0x581 JUMPI PUSH1 0x40 MLOAD PUSH32 0x8C379A000000000000000000000000000000000000000000000000000000000 DUP2 MSTORE PUSH1 0x4 ADD PUSH2 0x578 SWAP1 PUSH2 0x2F01 JUMP JUMPDEST PUSH1 0x40 MLOAD DUP1 SWAP2 SUB SWAP1 REVERT JUMPDEST PUSH1 0x8 PUSH1 0x0 SWAP1 SLOAD SWAP1 PUSH2 0x100 EXP SWAP1 DIV PUSH1 0xFF AND PUSH2 0x5DB JUMPI PUSH1 0x7 SLOAD DUP4 LT ISZERO PUSH2 0x5DA JUMPI PUSH1 0x40 MLOAD PUSH32 0x8C379A000000000000000000000000000000000000000000000000000000000 DUP2 MSTORE PUSH1 0x4 ADD PUSH2 0x5D1 SWAP1 PUSH2 0x2F93 JUMP JUMPDEST PUSH1 0x40 MLOAD DUP1 SWAP2 SUB SWAP1 REVERT JUMPDEST JUMPDEST PUSH2 0x5E4 DUP4 PUSH2 0x18D6 JUMP JUMPDEST POP POP POP JUMP JUMPDEST TIMESTAMP PUSH1 0x3 SLOAD LT ISZERO DUP1 ISZERO PUSH2 0x5FE JUMPI POP PUSH1 0x7 SLOAD PUSH1 0x1 SLOAD LT JUMPDEST PUSH2 0x63D JUMPI PUSH1 0x40 MLOAD PUSH32 0x8C379A000000000000000000000000000000000000000000000000000000000 DUP2 MSTORE PUSH1 0x4 ADD PUSH2 0x634 SWAP1 PUSH2 0x2D2F JUMP JUMPDEST PUSH1 0x40 MLOAD DUP1 SWAP2 SUB SWAP1 REVERT JUMPDEST PUSH1 0x4 PUSH1 0x0 SWAP1 SLOAD SWAP1 PUSH2 0x100 EXP SWAP1 DIV PUSH1 0xFF AND PUSH2 0x68C JUMPI PUSH1 0x40 MLOAD PUSH32 0x8C379A000000000000000000000000000000000000000000000000000000000 DUP2 MSTORE PUSH1 0x4 ADD PUSH2 0x683 SWAP1 PUSH2 0x2D9B JUMP JUMPDEST PUSH1 0x40 MLOAD DUP1 SWAP2 SUB SWAP1 REVERT JUMPDEST PUSH1 0x0 PUSH32 0x0 SWAP1 POP DUP1 PUSH20 0xFFFFFFFFFFFFFFFFFFFFFFFFFFFFFFFFFFFFFFFF AND PUSH4 0xB187BD26 PUSH1 0x40 MLOAD DUP2 PUSH4 0xFFFFFFFF AND PUSH1 0xE0 SHL DUP2 MSTORE PUSH1 0x4 ADD PUSH1 0x20 PUSH1 0x40 MLOAD DUP1 DUP4 SUB DUP2 DUP7 GAS STATICCALL ISZERO DUP1 ISZERO PUSH2 0x6FC JUMPI RETURNDATASIZE PUSH1 0x0 DUP1 RETURNDATACOPY RETURNDATASIZE PUSH1 0x0 REVERT JUMPDEST POP POP POP POP PUSH1 0x40 MLOAD RETURNDATASIZE PUSH1 0x1F NOT PUSH1 0x1F DUP3 ADD AND DUP3 ADD DUP1 PUSH1 0x40 MSTORE POP DUP2 ADD SWAP1 PUSH2 0x720 SWAP2 SWAP1 PUSH2 0x2DD0 JUMP JUMPDEST ISZERO PUSH2 0x760 JUMPI PUSH1 0x40 MLOAD PUSH32 0x8C379A000000000000000000000000000000000000000000000000000000000 DUP2 MSTORE PUSH1 0x4 ADD PUSH2 0x757 SWAP1 PUSH2 0x2E6F JUMP JUMPDEST PUSH1 0x40 MLOAD DUP1 SWAP2 SUB SWAP1 REVERT JUMPDEST PUSH1 0x2 DUP1 PUSH1 0x0 SWAP1 SLOAD SWAP1 PUSH2 0x100 EXP SWAP1 DIV PUSH1 0xFF AND PUSH1 0x2 DUP2 GT ISZERO PUSH2 0x783 JUMPI PUSH2 0x782 PUSH2 0x29F8 JUMP JUMPDEST JUMPDEST DUP2 PUSH1 0x2 DUP2 GT ISZERO PUSH2 0x796 JUMPI PUSH2 0x795 PUSH2 0x29F8 JUMP JUMPDEST JUMPDEST EQ PUSH2 0x7D6 JUMPI PUSH1 0x40 MLOAD PUSH32 0x8C379A000000000000000000000000000000000000000000000000000000000 DUP2 MSTORE PUSH1 0x4 ADD PUSH2 0x7CD SWAP1 PUSH2 0x2F01 JUMP JUMPDEST PUSH1 0x40 MLOAD DUP1 SWAP2 SUB SWAP1 REVERT JUMPDEST PUSH1 0x8 PUSH1 0x0 SWAP1 SLOAD SWAP1 PUSH2 0x100 EXP SWAP1 DIV PUSH1 0xFF AND PUSH2 0x830 JUMPI PUSH1 0x7 SLOAD DUP4 LT ISZERO PUSH2 0x82F JUMPI PUSH1 0x40 MLOAD PUSH32 0x8C379A000000000000000000000000000000000000000000000000000000000 DUP2 MSTORE PUSH1 0x4 ADD PUSH2 0x826 SWAP1 PUSH2 0x2F93 JUMP JUMPDEST PUSH1 0x40 MLOAD DUP1 SWAP2 SUB SWAP1 REVERT JUMPDEST JUMPDEST PUSH2 0x839 DUP4 PUSH2 0x1CBE JUMP JUMPDEST POP POP POP JUMP JUMPDEST PUSH1 0x4 PUSH1 0x0 SWAP1 SLOAD SWAP1 PUSH2 0x100 EXP SWAP1 DIV PUSH1 0xFF AND DUP2 JUMP JUMPDEST TIMESTAMP PUSH1 0x3 SLOAD LT DUP1 PUSH2 0x865 JUMPI POP PUSH1 0x7 SLOAD PUSH1 0x1 SLOAD LT ISZERO JUMPDEST PUSH2 0x8A4 JUMPI PUSH1 0x40 MLOAD PUSH32 0x8C379A000000000000000000000000000000000000000000000000000000000 DUP2 MSTORE PUSH1 0x4 ADD PUSH2 0x89B SWAP1 PUSH2 0x2FFF JUMP JUMPDEST PUSH1 0x40 MLOAD DUP1 SWAP2 SUB SWAP1 REVERT JUMPDEST PUSH1 0x4 PUSH1 0x0 SWAP1 SLOAD SWAP1 PUSH2 0x100 EXP SWAP1 DIV PUSH1 0xFF AND PUSH2 0x8F3 JUMPI PUSH1 0x40 MLOAD PUSH32 0x8C379A000000000000000000000000000000000000000000000000000000000 DUP2 MSTORE PUSH1 0x4 ADD PUSH2 0x8EA SWAP1 PUSH2 0x2D9B JUMP JUMPDEST PUSH1 0x40 MLOAD DUP1 SWAP2 SUB SWAP1 REVERT JUMPDEST PUSH2 0x8FB PUSH2 0x2036 JUMP JUMPDEST PUSH20 0xFFFFFFFFFFFFFFFFFFFFFFFFFFFFFFFFFFFFFFFF AND PUSH2 0x919 PUSH2 0x1432 JUMP JUMPDEST PUSH20 0xFFFFFFFFFFFFFFFFFFFFFFFFFFFFFFFFFFFFFFFF AND EQ PUSH2 0x96F JUMPI PUSH1 0x40 MLOAD PUSH32 0x8C379A000000000000000000000000000000000000000000000000000000000 DUP2 MSTORE PUSH1 0x4 ADD PUSH2 0x966 SWAP1 PUSH2 0x306B JUMP JUMPDEST PUSH1 0x40 MLOAD DUP1 SWAP2 SUB SWAP1 REVERT JUMPDEST PUSH1 0x0 PUSH1 0x2 PUSH1 0x1 SWAP1 SLOAD SWAP1 PUSH2 0x100 EXP SWAP1 DIV PUSH20 0xFFFFFFFFFFFFFFFFFFFFFFFFFFFFFFFFFFFFFFFF AND SWAP1 POP PUSH1 0x0 DUP2 PUSH20 0xFFFFFFFFFFFFFFFFFFFFFFFFFFFFFFFFFFFFFFFF AND PUSH4 0x70A08231 ADDRESS PUSH1 0x40 MLOAD DUP3 PUSH4 0xFFFFFFFF AND PUSH1 0xE0 SHL DUP2 MSTORE PUSH1 0x4 ADD PUSH2 0x9D1 SWAP2 SWAP1 PUSH2 0x2A99 JUMP JUMPDEST PUSH1 0x20 PUSH1 0x40 MLOAD DUP1 DUP4 SUB DUP2 DUP7 GAS STATICCALL ISZERO DUP1 ISZERO PUSH2 0x9EE JUMPI RETURNDATASIZE PUSH1 0x0 DUP1 RETURNDATACOPY RETURNDATASIZE PUSH1 0x0 REVERT JUMPDEST POP POP POP POP PUSH1 0x40 MLOAD RETURNDATASIZE PUSH1 0x1F NOT PUSH1 0x1F DUP3 ADD AND DUP3 ADD DUP1 PUSH1 0x40 MSTORE POP DUP2 ADD SWAP1 PUSH2 0xA12 SWAP2 SWAP1 PUSH2 0x30A0 JUMP JUMPDEST SWAP1 POP PUSH1 0x0 DUP2 GT ISZERO PUSH2 0xAB5 JUMPI PUSH1 0x2 PUSH1 0x1 SWAP1 SLOAD SWAP1 PUSH2 0x100 EXP SWAP1 DIV PUSH20 0xFFFFFFFFFFFFFFFFFFFFFFFFFFFFFFFFFFFFFFFF AND PUSH20 0xFFFFFFFFFFFFFFFFFFFFFFFFFFFFFFFFFFFFFFFF AND PUSH4 0x2E1A7D4D DUP3 PUSH1 0x40 MLOAD DUP3 PUSH4 0xFFFFFFFF AND PUSH1 0xE0 SHL DUP2 MSTORE PUSH1 0x4 ADD PUSH2 0xA78 SWAP2 SWAP1 PUSH2 0x2878 JUMP JUMPDEST PUSH1 0x0 PUSH1 0x40 MLOAD DUP1 DUP4 SUB DUP2 PUSH1 0x0 DUP8 DUP1 EXTCODESIZE ISZERO DUP1 ISZERO PUSH2 0xA92 JUMPI PUSH1 0x0 DUP1 REVERT JUMPDEST POP GAS CALL ISZERO DUP1 ISZERO PUSH2 0xAA6 JUMPI RETURNDATASIZE PUSH1 0x0 DUP1 RETURNDATACOPY RETURNDATASIZE PUSH1 0x0 REVERT JUMPDEST POP POP POP POP PUSH2 0xAB4 CALLER DUP3 PUSH2 0x203E JUMP JUMPDEST JUMPDEST PUSH1 0x0 PUSH1 0x5 PUSH1 0x0 SWAP1 SLOAD SWAP1 PUSH2 0x100 EXP SWAP1 DIV PUSH20 0xFFFFFFFFFFFFFFFFFFFFFFFFFFFFFFFFFFFFFFFF AND PUSH20 0xFFFFFFFFFFFFFFFFFFFFFFFFFFFFFFFFFFFFFFFF AND PUSH4 0x70A08231 ADDRESS PUSH1 0x40 MLOAD DUP3 PUSH4 0xFFFFFFFF AND PUSH1 0xE0 SHL DUP2 MSTORE PUSH1 0x4 ADD PUSH2 0xB12 SWAP2 SWAP1 PUSH2 0x2A99 JUMP JUMPDEST PUSH1 0x20 PUSH1 0x40 MLOAD DUP1 DUP4 SUB DUP2 DUP7 GAS STATICCALL ISZERO DUP1 ISZERO PUSH2 0xB2F JUMPI RETURNDATASIZE PUSH1 0x0 DUP1 RETURNDATACOPY RETURNDATASIZE PUSH1 0x0 REVERT JUMPDEST POP POP POP POP PUSH1 0x40 MLOAD RETURNDATASIZE PUSH1 0x1F NOT PUSH1 0x1F DUP3 ADD AND DUP3 ADD DUP1 PUSH1 0x40 MSTORE POP DUP2 ADD SWAP1 PUSH2 0xB53 SWAP2 SWAP1 PUSH2 0x30A0 JUMP JUMPDEST SWAP1 POP PUSH1 0x0 DUP2 GT ISZERO PUSH2 0xB8C JUMPI PUSH2 0xB8B PUSH1 0x5 PUSH1 0x0 SWAP1 SLOAD SWAP1 PUSH2 0x100 EXP SWAP1 DIV PUSH20 0xFFFFFFFFFFFFFFFFFFFFFFFFFFFFFFFFFFFFFFFF AND CALLER DUP4 PUSH2 0x213E JUMP JUMPDEST JUMPDEST PUSH1 0x0 PUSH1 0x4 PUSH1 0x1 SWAP1 SLOAD SWAP1 PUSH2 0x100 EXP SWAP1 DIV PUSH20 0xFFFFFFFFFFFFFFFFFFFFFFFFFFFFFFFFFFFFFFFF AND PUSH20 0xFFFFFFFFFFFFFFFFFFFFFFFFFFFFFFFFFFFFFFFF AND PUSH4 0x70A08231 ADDRESS PUSH1 0x40 MLOAD DUP3 PUSH4 0xFFFFFFFF AND PUSH1 0xE0 SHL DUP2 MSTORE PUSH1 0x4 ADD PUSH2 0xBE9 SWAP2 SWAP1 PUSH2 0x2A99 JUMP JUMPDEST PUSH1 0x20 PUSH1 0x40 MLOAD DUP1 DUP4 SUB DUP2 DUP7 GAS STATICCALL ISZERO DUP1 ISZERO PUSH2 0xC06 JUMPI RETURNDATASIZE PUSH1 0x0 DUP1 RETURNDATACOPY RETURNDATASIZE PUSH1 0x0 REVERT JUMPDEST POP POP POP POP PUSH1 0x40 MLOAD RETURNDATASIZE PUSH1 0x1F NOT PUSH1 0x1F DUP3 ADD AND DUP3 ADD DUP1 PUSH1 0x40 MSTORE POP DUP2 ADD SWAP1 PUSH2 0xC2A SWAP2 SWAP1 PUSH2 0x30A0 JUMP JUMPDEST SWAP1 POP PUSH1 0x0 DUP2 GT ISZERO PUSH2 0xC63 JUMPI PUSH2 0xC62 PUSH1 0x4 PUSH1 0x1 SWAP1 SLOAD SWAP1 PUSH2 0x100 EXP SWAP1 DIV PUSH20 0xFFFFFFFFFFFFFFFFFFFFFFFFFFFFFFFFFFFFFFFF AND CALLER DUP4 PUSH2 0x213E JUMP JUMPDEST JUMPDEST PUSH1 0x0 DUP1 PUSH1 0x0 PUSH1 0x2 DUP2 GT ISZERO PUSH2 0xC7A JUMPI PUSH2 0xC79 PUSH2 0x29F8 JUMP JUMPDEST JUMPDEST PUSH1 0x2 PUSH1 0x0 SWAP1 SLOAD SWAP1 PUSH2 0x100 EXP SWAP1 DIV PUSH1 0xFF AND PUSH1 0x2 DUP2 GT ISZERO PUSH2 0xC9C JUMPI PUSH2 0xC9B PUSH2 0x29F8 JUMP JUMPDEST JUMPDEST SUB PUSH2 0xCAC JUMPI DUP5 SWAP2 POP DUP4 SWAP1 POP PUSH2 0xCF9 JUMP JUMPDEST PUSH1 0x2 DUP1 DUP2 GT ISZERO PUSH2 0xCBF JUMPI PUSH2 0xCBE PUSH2 0x29F8 JUMP JUMPDEST JUMPDEST PUSH1 0x2 PUSH1 0x0 SWAP1 SLOAD SWAP1 PUSH2 0x100 EXP SWAP1 DIV PUSH1 0xFF AND PUSH1 0x2 DUP2 GT ISZERO PUSH2 0xCE1 JUMPI PUSH2 0xCE0 PUSH2 0x29F8 JUMP JUMPDEST JUMPDEST SUB PUSH2 0xCF1 JUMPI DUP3 SWAP2 POP DUP4 SWAP1 POP PUSH2 0xCF8 JUMP JUMPDEST DUP3 SWAP2 POP DUP5 SWAP1 POP JUMPDEST JUMPDEST PUSH1 0x0 PUSH32 0x0 SWAP1 POP DUP1 PUSH20 0xFFFFFFFFFFFFFFFFFFFFFFFFFFFFFFFFFFFFFFFF AND PUSH4 0x33796A0E ADDRESS CALLER DUP7 DUP7 PUSH1 0x40 MLOAD DUP6 PUSH4 0xFFFFFFFF AND PUSH1 0xE0 SHL DUP2 MSTORE PUSH1 0x4 ADD PUSH2 0xD5D SWAP5 SWAP4 SWAP3 SWAP2 SWAP1 PUSH2 0x30CD JUMP JUMPDEST PUSH1 0x0 PUSH1 0x40 MLOAD DUP1 DUP4 SUB DUP2 PUSH1 0x0 DUP8 DUP1 EXTCODESIZE ISZERO DUP1 ISZERO PUSH2 0xD77 JUMPI PUSH1 0x0 DUP1 REVERT JUMPDEST POP GAS CALL ISZERO DUP1 ISZERO PUSH2 0xD8B JUMPI RETURNDATASIZE PUSH1 0x0 DUP1 RETURNDATACOPY RETURNDATASIZE PUSH1 0x0 REVERT JUMPDEST POP POP POP POP CALLER PUSH20 0xFFFFFFFFFFFFFFFFFFFFFFFFFFFFFFFFFFFFFFFF AND SELFDESTRUCT JUMPDEST PUSH1 0x0 DUP1 PUSH1 0x4 PUSH1 0x0 SWAP1 SLOAD SWAP1 PUSH2 0x100 EXP SWAP1 DIV PUSH1 0xFF AND PUSH2 0xDFA JUMPI PUSH1 0x40 MLOAD PUSH32 0x8C379A000000000000000000000000000000000000000000000000000000000 DUP2 MSTORE PUSH1 0x4 ADD PUSH2 0xDF1 SWAP1 PUSH2 0x2D9B JUMP JUMPDEST PUSH1 0x40 MLOAD DUP1 SWAP2 SUB SWAP1 REVERT JUMPDEST PUSH1 0x6 SLOAD PUSH1 0x7 SLOAD SWAP2 POP SWAP2 POP SWAP1 SWAP2 JUMP JUMPDEST PUSH1 0x1 SLOAD DUP2 JUMP JUMPDEST TIMESTAMP PUSH1 0x3 SLOAD LT ISZERO DUP1 ISZERO PUSH2 0xE23 JUMPI POP PUSH1 0x7 SLOAD PUSH1 0x1 SLOAD LT JUMPDEST PUSH2 0xE62 JUMPI PUSH1 0x40 MLOAD PUSH32 0x8C379A000000000000000000000000000000000000000000000000000000000 DUP2 MSTORE PUSH1 0x4 ADD PUSH2 0xE59 SWAP1 PUSH2 0x2D2F JUMP JUMPDEST PUSH1 0x40 MLOAD DUP1 SWAP2 SUB SWAP1 REVERT JUMPDEST PUSH1 0x4 PUSH1 0x0 SWAP1 SLOAD SWAP1 PUSH2 0x100 EXP SWAP1 DIV PUSH1 0xFF AND PUSH2 0xEB1 JUMPI PUSH1 0x40 MLOAD PUSH32 0x8C379A000000000000000000000000000000000000000000000000000000000 DUP2 MSTORE PUSH1 0x4 ADD PUSH2 0xEA8 SWAP1 PUSH2 0x2D9B JUMP JUMPDEST PUSH1 0x40 MLOAD DUP1 SWAP2 SUB SWAP1 REVERT JUMPDEST PUSH1 0x0 PUSH32 0x0 SWAP1 POP DUP1 PUSH20 0xFFFFFFFFFFFFFFFFFFFFFFFFFFFFFFFFFFFFFFFF AND PUSH4 0xB187BD26 PUSH1 0x40 MLOAD DUP2 PUSH4 0xFFFFFFFF AND PUSH1 0xE0 SHL DUP2 MSTORE PUSH1 0x4 ADD PUSH1 0x20 PUSH1 0x40 MLOAD DUP1 DUP4 SUB DUP2 DUP7 GAS STATICCALL ISZERO DUP1 ISZERO PUSH2 0xF21 JUMPI RETURNDATASIZE PUSH1 0x0 DUP1 RETURNDATACOPY RETURNDATASIZE PUSH1 0x0 REVERT JUMPDEST POP POP POP POP PUSH1 0x40 MLOAD RETURNDATASIZE PUSH1 0x1F NOT PUSH1 0x1F DUP3 ADD AND DUP3 ADD DUP1 PUSH1 0x40 MSTORE POP DUP2 ADD SWAP1 PUSH2 0xF45 SWAP2 SWAP1 PUSH2 0x2DD0 JUMP JUMPDEST ISZERO PUSH2 0xF85 JUMPI PUSH1 0x40 MLOAD PUSH32 0x8C379A000000000000000000000000000000000000000000000000000000000 DUP2 MSTORE PUSH1 0x4 ADD PUSH2 0xF7C SWAP1 PUSH2 0x2E6F JUMP JUMPDEST PUSH1 0x40 MLOAD DUP1 SWAP2 SUB SWAP1 REVERT JUMPDEST PUSH1 0x1 PUSH1 0x2 PUSH1 0x0 SWAP1 SLOAD SWAP1 PUSH2 0x100 EXP SWAP1 DIV PUSH1 0xFF AND PUSH1 0x2 DUP2 GT ISZERO PUSH2 0xFA9 JUMPI PUSH2 0xFA8 PUSH2 0x29F8 JUMP JUMPDEST JUMPDEST DUP2 PUSH1 0x2 DUP2 GT ISZERO PUSH2 0xFBC JUMPI PUSH2 0xFBB PUSH2 0x29F8 JUMP JUMPDEST JUMPDEST EQ PUSH2 0xFFC JUMPI PUSH1 0x40 MLOAD PUSH32 0x8C379A000000000000000000000000000000000000000000000000000000000 DUP2 MSTORE PUSH1 0x4 ADD PUSH2 0xFF3 SWAP1 PUSH2 0x2F01 JUMP JUMPDEST PUSH1 0x40 MLOAD DUP1 SWAP2 SUB SWAP1 REVERT JUMPDEST PUSH1 0x8 PUSH1 0x0 SWAP1 SLOAD SWAP1 PUSH2 0x100 EXP SWAP1 DIV PUSH1 0xFF AND PUSH2 0x1056 JUMPI PUSH1 0x7 SLOAD CALLVALUE LT ISZERO PUSH2 0x1055 JUMPI PUSH1 0x40 MLOAD PUSH32 0x8C379A000000000000000000000000000000000000000000000000000000000 DUP2 MSTORE PUSH1 0x4 ADD PUSH2 0x104C SWAP1 PUSH2 0x2F93 JUMP JUMPDEST PUSH1 0x40 MLOAD DUP1 SWAP2 SUB SWAP1 REVERT JUMPDEST JUMPDEST PUSH2 0x105F DUP4 PUSH2 0x2274 JUMP JUMPDEST POP POP POP JUMP JUMPDEST PUSH1 0x0 PUSH32 0x0 PUSH20 0xFFFFFFFFFFFFFFFFFFFFFFFFFFFFFFFFFFFFFFFF AND CALLER PUSH20 0xFFFFFFFFFFFFFFFFFFFFFFFFFFFFFFFFFFFFFFFF AND EQ PUSH2 0x10F4 JUMPI PUSH1 0x40 MLOAD PUSH32 0x8C379A000000000000000000000000000000000000000000000000000000000 DUP2 MSTORE PUSH1 0x4 ADD PUSH2 0x10EB SWAP1 PUSH2 0x315E JUMP JUMPDEST PUSH1 0x40 MLOAD DUP1 SWAP2 SUB SWAP1 REVERT JUMPDEST PUSH1 0x4 PUSH1 0x0 SWAP1 SLOAD SWAP1 PUSH2 0x100 EXP SWAP1 DIV PUSH1 0xFF AND ISZERO PUSH2 0x1144 JUMPI PUSH1 0x40 MLOAD PUSH32 0x8C379A000000000000000000000000000000000000000000000000000000000 DUP2 MSTORE PUSH1 0x4 ADD PUSH2 0x113B SWAP1 PUSH2 0x31F0 JUMP JUMPDEST PUSH1 0x40 MLOAD DUP1 SWAP2 SUB SWAP1 REVERT JUMPDEST TIMESTAMP DUP5 LT PUSH2 0x1186 JUMPI PUSH1 0x40 MLOAD PUSH32 0x8C379A000000000000000000000000000000000000000000000000000000000 DUP2 MSTORE PUSH1 0x4 ADD PUSH2 0x117D SWAP1 PUSH2 0x325C JUMP JUMPDEST PUSH1 0x40 MLOAD DUP1 SWAP2 SUB SWAP1 REVERT JUMPDEST DUP6 DUP9 PUSH20 0xFFFFFFFFFFFFFFFFFFFFFFFFFFFFFFFFFFFFFFFF AND PUSH4 0x70A08231 ADDRESS PUSH1 0x40 MLOAD DUP3 PUSH4 0xFFFFFFFF AND PUSH1 0xE0 SHL DUP2 MSTORE PUSH1 0x4 ADD PUSH2 0x11C0 SWAP2 SWAP1 PUSH2 0x2A99 JUMP JUMPDEST PUSH1 0x20 PUSH1 0x40 MLOAD DUP1 DUP4 SUB DUP2 DUP7 GAS STATICCALL ISZERO DUP1 ISZERO PUSH2 0x11DD JUMPI RETURNDATASIZE PUSH1 0x0 DUP1 RETURNDATACOPY RETURNDATASIZE PUSH1 0x0 REVERT JUMPDEST POP POP POP POP PUSH1 0x40 MLOAD RETURNDATASIZE PUSH1 0x1F NOT PUSH1 0x1F DUP3 ADD AND DUP3 ADD DUP1 PUSH1 0x40 MSTORE POP DUP2 ADD SWAP1 PUSH2 0x1201 SWAP2 SWAP1 PUSH2 0x30A0 JUMP JUMPDEST LT ISZERO PUSH2 0x1242 JUMPI PUSH1 0x40 MLOAD PUSH32 0x8C379A000000000000000000000000000000000000000000000000000000000 DUP2 MSTORE PUSH1 0x4 ADD PUSH2 0x1239 SWAP1 PUSH2 0x32EE JUMP JUMPDEST PUSH1 0x40 MLOAD DUP1 SWAP2 SUB SWAP1 REVERT JUMPDEST DUP4 PUSH1 0x3 DUP2 SWAP1 SSTORE POP DUP8 PUSH1 0x4 PUSH1 0x1 PUSH2 0x100 EXP DUP2 SLOAD DUP2 PUSH20 0xFFFFFFFFFFFFFFFFFFFFFFFFFFFFFFFFFFFFFFFF MUL NOT AND SWAP1 DUP4 PUSH20 0xFFFFFFFFFFFFFFFFFFFFFFFFFFFFFFFFFFFFFFFF AND MUL OR SWAP1 SSTORE POP DUP7 PUSH1 0x5 PUSH1 0x0 PUSH2 0x100 EXP DUP2 SLOAD DUP2 PUSH20 0xFFFFFFFFFFFFFFFFFFFFFFFFFFFFFFFFFFFFFFFF MUL NOT AND SWAP1 DUP4 PUSH20 0xFFFFFFFFFFFFFFFFFFFFFFFFFFFFFFFFFFFFFFFF AND MUL OR SWAP1 SSTORE POP DUP6 PUSH1 0x6 DUP2 SWAP1 SSTORE POP DUP5 PUSH1 0x7 DUP2 SWAP1 SSTORE POP DUP9 PUSH1 0x2 PUSH1 0x0 PUSH2 0x100 EXP DUP2 SLOAD DUP2 PUSH1 0xFF MUL NOT AND SWAP1 DUP4 PUSH1 0x2 DUP2 GT ISZERO PUSH2 0x12FE JUMPI PUSH2 0x12FD PUSH2 0x29F8 JUMP JUMPDEST JUMPDEST MUL OR SWAP1 SSTORE POP DUP3 PUSH1 0x8 PUSH1 0x0 PUSH2 0x100 EXP DUP2 SLOAD DUP2 PUSH1 0xFF MUL NOT AND SWAP1 DUP4 ISZERO ISZERO MUL OR SWAP1 SSTORE POP DUP2 PUSH1 0x2 PUSH1 0x1 PUSH2 0x100 EXP DUP2 SLOAD DUP2 PUSH20 0xFFFFFFFFFFFFFFFFFFFFFFFFFFFFFFFFFFFFFFFF MUL NOT AND SWAP1 DUP4 PUSH20 0xFFFFFFFFFFFFFFFFFFFFFFFFFFFFFFFFFFFFFFFF AND MUL OR SWAP1 SSTORE POP PUSH1 0x1 PUSH1 0x4 PUSH1 0x0 PUSH2 0x100 EXP DUP2 SLOAD DUP2 PUSH1 0xFF MUL NOT AND SWAP1 DUP4 ISZERO ISZERO MUL OR SWAP1 SSTORE POP PUSH1 0x4 PUSH1 0x0 SWAP1 SLOAD SWAP1 PUSH2 0x100 EXP SWAP1 DIV PUSH1 0xFF AND SWAP1 POP SWAP9 SWAP8 POP POP POP POP POP POP POP POP JUMP JUMPDEST PUSH2 0x139F PUSH2 0x2036 JUMP JUMPDEST PUSH20 0xFFFFFFFFFFFFFFFFFFFFFFFFFFFFFFFFFFFFFFFF AND PUSH2 0x13BD PUSH2 0x1432 JUMP JUMPDEST PUSH20 0xFFFFFFFFFFFFFFFFFFFFFFFFFFFFFFFFFFFFFFFF AND EQ PUSH2 0x1413 JUMPI PUSH1 0x40 MLOAD PUSH32 0x8C379A000000000000000000000000000000000000000000000000000000000 DUP2 MSTORE PUSH1 0x4 ADD PUSH2 0x140A SWAP1 PUSH2 0x306B JUMP JUMPDEST PUSH1 0x40 MLOAD DUP1 SWAP2 SUB SWAP1 REVERT JUMPDEST PUSH2 0x141D PUSH1 0x0 PUSH2 0x25A5 JUMP JUMPDEST JUMP JUMPDEST PUSH1 0x2 PUSH1 0x0 SWAP1 SLOAD SWAP1 PUSH2 0x100 EXP SWAP1 DIV PUSH1 0xFF AND DUP2 JUMP JUMPDEST PUSH1 0x0 DUP1 PUSH1 0x0 SWAP1 SLOAD SWAP1 PUSH2 0x100 EXP SWAP1 DIV PUSH20 0xFFFFFFFFFFFFFFFFFFFFFFFFFFFFFFFFFFFFFFFF AND SWAP1 POP SWAP1 JUMP JUMPDEST PUSH1 0x0 DUP1 PUSH1 0x4 PUSH1 0x0 SWAP1 SLOAD SWAP1 PUSH2 0x100 EXP SWAP1 DIV PUSH1 0xFF AND PUSH2 0x14AD JUMPI PUSH1 0x40 MLOAD PUSH32 0x8C379A000000000000000000000000000000000000000000000000000000000 DUP2 MSTORE PUSH1 0x4 ADD PUSH2 0x14A4 SWAP1 PUSH2 0x2D9B JUMP JUMPDEST PUSH1 0x40 MLOAD DUP1 SWAP2 SUB SWAP1 REVERT JUMPDEST PUSH1 0x4 PUSH1 0x1 SWAP1 SLOAD SWAP1 PUSH2 0x100 EXP SWAP1 DIV PUSH20 0xFFFFFFFFFFFFFFFFFFFFFFFFFFFFFFFFFFFFFFFF AND PUSH1 0x5 PUSH1 0x0 SWAP1 SLOAD SWAP1 PUSH2 0x100 EXP SWAP1 DIV PUSH20 0xFFFFFFFFFFFFFFFFFFFFFFFFFFFFFFFFFFFFFFFF AND SWAP2 POP SWAP2 POP SWAP1 SWAP2 JUMP JUMPDEST PUSH32 0x0 DUP2 JUMP JUMPDEST PUSH1 0x0 PUSH1 0x7 SLOAD PUSH1 0x6 SLOAD DUP4 PUSH2 0x1532 SWAP2 SWAP1 PUSH2 0x333D JUMP JUMPDEST PUSH2 0x153C SWAP2 SWAP1 PUSH2 0x33C6 JUMP JUMPDEST SWAP1 POP SWAP2 SWAP1 POP JUMP JUMPDEST PUSH1 0x60 DUP1 PUSH1 0x60 PUSH1 0x4 PUSH1 0x0 SWAP1 SLOAD SWAP1 PUSH2 0x100 EXP SWAP1 DIV PUSH1 0xFF AND PUSH2 0x1597 JUMPI PUSH1 0x40 MLOAD PUSH32 0x8C379A000000000000000000000000000000000000000000000000000000000 DUP2 MSTORE PUSH1 0x4 ADD PUSH2 0x158E SWAP1 PUSH2 0x2D9B JUMP JUMPDEST PUSH1 0x40 MLOAD DUP1 SWAP2 SUB SWAP1 REVERT JUMPDEST PUSH1 0x0 PUSH1 0x9 DUP1 SLOAD SWAP1 POP PUSH8 0xFFFFFFFFFFFFFFFF DUP2 GT ISZERO PUSH2 0x15B8 JUMPI PUSH2 0x15B7 PUSH2 0x33F7 JUMP JUMPDEST JUMPDEST PUSH1 0x40 MLOAD SWAP1 DUP1 DUP3 MSTORE DUP1 PUSH1 0x20 MUL PUSH1 0x20 ADD DUP3 ADD PUSH1 0x40 MSTORE DUP1 ISZERO PUSH2 0x15E6 JUMPI DUP2 PUSH1 0x20 ADD PUSH1 0x20 DUP3 MUL DUP1 CALLDATASIZE DUP4 CALLDATACOPY DUP1 DUP3 ADD SWAP2 POP POP SWAP1 POP JUMPDEST POP SWAP1 POP PUSH1 0x0 PUSH1 0x9 DUP1 SLOAD SWAP1 POP PUSH8 0xFFFFFFFFFFFFFFFF DUP2 GT ISZERO PUSH2 0x160A JUMPI PUSH2 0x1609 PUSH2 0x33F7 JUMP JUMPDEST JUMPDEST PUSH1 0x40 MLOAD SWAP1 DUP1 DUP3 MSTORE DUP1 PUSH1 0x20 MUL PUSH1 0x20 ADD DUP3 ADD PUSH1 0x40 MSTORE DUP1 ISZERO PUSH2 0x1638 JUMPI DUP2 PUSH1 0x20 ADD PUSH1 0x20 DUP3 MUL DUP1 CALLDATASIZE DUP4 CALLDATACOPY DUP1 DUP3 ADD SWAP2 POP POP SWAP1 POP JUMPDEST POP SWAP1 POP PUSH1 0x0 PUSH1 0x9 DUP1 SLOAD SWAP1 POP PUSH8 0xFFFFFFFFFFFFFFFF DUP2 GT ISZERO PUSH2 0x165C JUMPI PUSH2 0x165B PUSH2 0x33F7 JUMP JUMPDEST JUMPDEST PUSH1 0x40 MLOAD SWAP1 DUP1 DUP3 MSTORE DUP1 PUSH1 0x20 MUL PUSH1 0x20 ADD DUP3 ADD PUSH1 0x40 MSTORE DUP1 ISZERO PUSH2 0x168A JUMPI DUP2 PUSH1 0x20 ADD PUSH1 0x20 DUP3 MUL DUP1 CALLDATASIZE DUP4 CALLDATACOPY DUP1 DUP3 ADD SWAP2 POP POP SWAP1 POP JUMPDEST POP SWAP1 POP PUSH1 0x0 JUMPDEST PUSH1 0x9 DUP1 SLOAD SWAP1 POP DUP2 LT ISZERO PUSH2 0x17CD JUMPI PUSH1 0x9 DUP2 DUP2 SLOAD DUP2 LT PUSH2 0x16B1 JUMPI PUSH2 0x16B0 PUSH2 0x3426 JUMP JUMPDEST JUMPDEST SWAP1 PUSH1 0x0 MSTORE PUSH1 0x20 PUSH1 0x0 KECCAK256 SWAP1 PUSH1 0x3 MUL ADD PUSH1 0x0 ADD PUSH1 0x0 SWAP1 SLOAD SWAP1 PUSH2 0x100 EXP SWAP1 DIV PUSH20 0xFFFFFFFFFFFFFFFFFFFFFFFFFFFFFFFFFFFFFFFF AND DUP5 DUP3 DUP2 MLOAD DUP2 LT PUSH2 0x16F6 JUMPI PUSH2 0x16F5 PUSH2 0x3426 JUMP JUMPDEST JUMPDEST PUSH1 0x20 MUL PUSH1 0x20 ADD ADD SWAP1 PUSH20 0xFFFFFFFFFFFFFFFFFFFFFFFFFFFFFFFFFFFFFFFF AND SWAP1 DUP2 PUSH20 0xFFFFFFFFFFFFFFFFFFFFFFFFFFFFFFFFFFFFFFFF AND DUP2 MSTORE POP POP PUSH1 0x9 DUP2 DUP2 SLOAD DUP2 LT PUSH2 0x1744 JUMPI PUSH2 0x1743 PUSH2 0x3426 JUMP JUMPDEST JUMPDEST SWAP1 PUSH1 0x0 MSTORE PUSH1 0x20 PUSH1 0x0 KECCAK256 SWAP1 PUSH1 0x3 MUL ADD PUSH1 0x1 ADD SLOAD DUP4 DUP3 DUP2 MLOAD DUP2 LT PUSH2 0x1769 JUMPI PUSH2 0x1768 PUSH2 0x3426 JUMP JUMPDEST JUMPDEST PUSH1 0x20 MUL PUSH1 0x20 ADD ADD DUP2 DUP2 MSTORE POP POP PUSH1 0x9 DUP2 DUP2 SLOAD DUP2 LT PUSH2 0x1789 JUMPI PUSH2 0x1788 PUSH2 0x3426 JUMP JUMPDEST JUMPDEST SWAP1 PUSH1 0x0 MSTORE PUSH1 0x20 PUSH1 0x0 KECCAK256 SWAP1 PUSH1 0x3 MUL ADD PUSH1 0x2 ADD SLOAD DUP3 DUP3 DUP2 MLOAD DUP2 LT PUSH2 0x17AE JUMPI PUSH2 0x17AD PUSH2 0x3426 JUMP JUMPDEST JUMPDEST PUSH1 0x20 MUL PUSH1 0x20 ADD ADD DUP2 DUP2 MSTORE POP POP DUP1 DUP1 PUSH2 0x17C5 SWAP1 PUSH2 0x3455 JUMP JUMPDEST SWAP2 POP POP PUSH2 0x1690 JUMP JUMPDEST POP DUP3 DUP3 DUP3 SWAP6 POP SWAP6 POP SWAP6 POP POP POP POP SWAP1 SWAP2 SWAP3 JUMP JUMPDEST PUSH2 0x17E7 PUSH2 0x2036 JUMP JUMPDEST PUSH20 0xFFFFFFFFFFFFFFFFFFFFFFFFFFFFFFFFFFFFFFFF AND PUSH2 0x1805 PUSH2 0x1432 JUMP JUMPDEST PUSH20 0xFFFFFFFFFFFFFFFFFFFFFFFFFFFFFFFFFFFFFFFF AND EQ PUSH2 0x185B JUMPI PUSH1 0x40 MLOAD PUSH32 0x8C379A000000000000000000000000000000000000000000000000000000000 DUP2 MSTORE PUSH1 0x4 ADD PUSH2 0x1852 SWAP1 PUSH2 0x306B JUMP JUMPDEST PUSH1 0x40 MLOAD DUP1 SWAP2 SUB SWAP1 REVERT JUMPDEST PUSH1 0x0 PUSH20 0xFFFFFFFFFFFFFFFFFFFFFFFFFFFFFFFFFFFFFFFF AND DUP2 PUSH20 0xFFFFFFFFFFFFFFFFFFFFFFFFFFFFFFFFFFFFFFFF AND SUB PUSH2 0x18CA JUMPI PUSH1 0x40 MLOAD PUSH32 0x8C379A000000000000000000000000000000000000000000000000000000000 DUP2 MSTORE PUSH1 0x4 ADD PUSH2 0x18C1 SWAP1 PUSH2 0x350F JUMP JUMPDEST PUSH1 0x40 MLOAD DUP1 SWAP2 SUB SWAP1 REVERT JUMPDEST PUSH2 0x18D3 DUP2 PUSH2 0x25A5 JUMP JUMPDEST POP JUMP JUMPDEST DUP1 PUSH1 0x5 PUSH1 0x0 SWAP1 SLOAD SWAP1 PUSH2 0x100 EXP SWAP1 DIV PUSH20 0xFFFFFFFFFFFFFFFFFFFFFFFFFFFFFFFFFFFFFFFF AND PUSH20 0xFFFFFFFFFFFFFFFFFFFFFFFFFFFFFFFFFFFFFFFF AND PUSH4 0x70A08231 CALLER PUSH1 0x40 MLOAD DUP3 PUSH4 0xFFFFFFFF AND PUSH1 0xE0 SHL DUP2 MSTORE PUSH1 0x4 ADD PUSH2 0x1932 SWAP2 SWAP1 PUSH2 0x2A99 JUMP JUMPDEST PUSH1 0x20 PUSH1 0x40 MLOAD DUP1 DUP4 SUB DUP2 DUP7 GAS STATICCALL ISZERO DUP1 ISZERO PUSH2 0x194F JUMPI RETURNDATASIZE PUSH1 0x0 DUP1 RETURNDATACOPY RETURNDATASIZE PUSH1 0x0 REVERT JUMPDEST POP POP POP POP PUSH1 0x40 MLOAD RETURNDATASIZE PUSH1 0x1F NOT PUSH1 0x1F DUP3 ADD AND DUP3 ADD DUP1 PUSH1 0x40 MSTORE POP DUP2 ADD SWAP1 PUSH2 0x1973 SWAP2 SWAP1 PUSH2 0x30A0 JUMP JUMPDEST LT ISZERO PUSH2 0x19B4 JUMPI PUSH1 0x40 MLOAD PUSH32 0x8C379A000000000000000000000000000000000000000000000000000000000 DUP2 MSTORE PUSH1 0x4 ADD PUSH2 0x19AB SWAP1 PUSH2 0x35A1 JUMP JUMPDEST PUSH1 0x40 MLOAD DUP1 SWAP2 SUB SWAP1 REVERT JUMPDEST PUSH1 0x0 PUSH2 0x19BF DUP3 PUSH2 0x151F JUMP JUMPDEST SWAP1 POP PUSH1 0x0 PUSH1 0x2 PUSH1 0x1 SWAP1 SLOAD SWAP1 PUSH2 0x100 EXP SWAP1 DIV PUSH20 0xFFFFFFFFFFFFFFFFFFFFFFFFFFFFFFFFFFFFFFFF AND SWAP1 POP DUP2 DUP2 PUSH20 0xFFFFFFFFFFFFFFFFFFFFFFFFFFFFFFFFFFFFFFFF AND PUSH4 0x70A08231 ADDRESS PUSH1 0x40 MLOAD DUP3 PUSH4 0xFFFFFFFF AND PUSH1 0xE0 SHL DUP2 MSTORE PUSH1 0x4 ADD PUSH2 0x1A22 SWAP2 SWAP1 PUSH2 0x2A99 JUMP JUMPDEST PUSH1 0x20 PUSH1 0x40 MLOAD DUP1 DUP4 SUB DUP2 DUP7 GAS STATICCALL ISZERO DUP1 ISZERO PUSH2 0x1A3F JUMPI RETURNDATASIZE PUSH1 0x0 DUP1 RETURNDATACOPY RETURNDATASIZE PUSH1 0x0 REVERT JUMPDEST POP POP POP POP PUSH1 0x40 MLOAD RETURNDATASIZE PUSH1 0x1F NOT PUSH1 0x1F DUP3 ADD AND DUP3 ADD DUP1 PUSH1 0x40 MSTORE POP DUP2 ADD SWAP1 PUSH2 0x1A63 SWAP2 SWAP1 PUSH2 0x30A0 JUMP JUMPDEST LT ISZERO PUSH2 0x1AA4 JUMPI PUSH1 0x40 MLOAD PUSH32 0x8C379A000000000000000000000000000000000000000000000000000000000 DUP2 MSTORE PUSH1 0x4 ADD PUSH2 0x1A9B SWAP1 PUSH2 0x3633 JUMP JUMPDEST PUSH1 0x40 MLOAD DUP1 SWAP2 SUB SWAP1 REVERT JUMPDEST PUSH1 0x2 PUSH1 0x1 SWAP1 SLOAD SWAP1 PUSH2 0x100 EXP SWAP1 DIV PUSH20 0xFFFFFFFFFFFFFFFFFFFFFFFFFFFFFFFFFFFFFFFF AND PUSH20 0xFFFFFFFFFFFFFFFFFFFFFFFFFFFFFFFFFFFFFFFF AND PUSH4 0x2E1A7D4D DUP4 PUSH1 0x40 MLOAD DUP3 PUSH4 0xFFFFFFFF AND PUSH1 0xE0 SHL DUP2 MSTORE PUSH1 0x4 ADD PUSH2 0x1AFF SWAP2 SWAP1 PUSH2 0x2878 JUMP JUMPDEST PUSH1 0x0 PUSH1 0x40 MLOAD DUP1 DUP4 SUB DUP2 PUSH1 0x0 DUP8 DUP1 EXTCODESIZE ISZERO DUP1 ISZERO PUSH2 0x1B19 JUMPI PUSH1 0x0 DUP1 REVERT JUMPDEST POP GAS CALL ISZERO DUP1 ISZERO PUSH2 0x1B2D JUMPI RETURNDATASIZE PUSH1 0x0 DUP1 RETURNDATACOPY RETURNDATASIZE PUSH1 0x0 REVERT JUMPDEST POP POP POP POP PUSH2 0x1B5F PUSH1 0x5 PUSH1 0x0 SWAP1 SLOAD SWAP1 PUSH2 0x100 EXP SWAP1 DIV PUSH20 0xFFFFFFFFFFFFFFFFFFFFFFFFFFFFFFFFFFFFFFFF AND CALLER ADDRESS DUP7 PUSH2 0x2669 JUMP JUMPDEST PUSH2 0x1B69 CALLER DUP4 PUSH2 0x203E JUMP JUMPDEST PUSH1 0x9 PUSH1 0x40 MLOAD DUP1 PUSH1 0x60 ADD PUSH1 0x40 MSTORE DUP1 CALLER PUSH20 0xFFFFFFFFFFFFFFFFFFFFFFFFFFFFFFFFFFFFFFFF AND DUP2 MSTORE PUSH1 0x20 ADD DUP6 DUP2 MSTORE PUSH1 0x20 ADD DUP5 DUP2 MSTORE POP SWAP1 DUP1 PUSH1 0x1 DUP2 SLOAD ADD DUP1 DUP3 SSTORE DUP1 SWAP2 POP POP PUSH1 0x1 SWAP1 SUB SWAP1 PUSH1 0x0 MSTORE PUSH1 0x20 PUSH1 0x0 KECCAK256 SWAP1 PUSH1 0x3 MUL ADD PUSH1 0x0 SWAP1 SWAP2 SWAP1 SWAP2 SWAP1 SWAP2 POP PUSH1 0x0 DUP3 ADD MLOAD DUP2 PUSH1 0x0 ADD PUSH1 0x0 PUSH2 0x100 EXP DUP2 SLOAD DUP2 PUSH20 0xFFFFFFFFFFFFFFFFFFFFFFFFFFFFFFFFFFFFFFFF MUL NOT AND SWAP1 DUP4 PUSH20 0xFFFFFFFFFFFFFFFFFFFFFFFFFFFFFFFFFFFFFFFF AND MUL OR SWAP1 SSTORE POP PUSH1 0x20 DUP3 ADD MLOAD DUP2 PUSH1 0x1 ADD SSTORE PUSH1 0x40 DUP3 ADD MLOAD DUP2 PUSH1 0x2 ADD SSTORE POP POP PUSH1 0x0 PUSH32 0x0 SWAP1 POP DUP1 PUSH20 0xFFFFFFFFFFFFFFFFFFFFFFFFFFFFFFFFFFFFFFFF AND PUSH4 0xF52701B7 ADDRESS CALLER DUP8 DUP8 PUSH1 0x40 MLOAD DUP6 PUSH4 0xFFFFFFFF AND PUSH1 0xE0 SHL DUP2 MSTORE PUSH1 0x4 ADD PUSH2 0x1C86 SWAP5 SWAP4 SWAP3 SWAP2 SWAP1 PUSH2 0x30CD JUMP JUMPDEST PUSH1 0x0 PUSH1 0x40 MLOAD DUP1 DUP4 SUB DUP2 PUSH1 0x0 DUP8 DUP1 EXTCODESIZE ISZERO DUP1 ISZERO PUSH2 0x1CA0 JUMPI PUSH1 0x0 DUP1 REVERT JUMPDEST POP GAS CALL ISZERO DUP1 ISZERO PUSH2 0x1CB4 JUMPI RETURNDATASIZE PUSH1 0x0 DUP1 RETURNDATACOPY RETURNDATASIZE PUSH1 0x0 REVERT JUMPDEST POP POP POP POP POP POP POP POP JUMP JUMPDEST DUP1 PUSH1 0x5 PUSH1 0x0 SWAP1 SLOAD SWAP1 PUSH2 0x100 EXP SWAP1 DIV PUSH20 0xFFFFFFFFFFFFFFFFFFFFFFFFFFFFFFFFFFFFFFFF AND PUSH20 0xFFFFFFFFFFFFFFFFFFFFFFFFFFFFFFFFFFFFFFFF AND PUSH4 0x70A08231 CALLER PUSH1 0x40 MLOAD DUP3 PUSH4 0xFFFFFFFF AND PUSH1 0xE0 SHL DUP2 MSTORE PUSH1 0x4 ADD PUSH2 0x1D1A SWAP2 SWAP1 PUSH2 0x2A99 JUMP JUMPDEST PUSH1 0x20 PUSH1 0x40 MLOAD DUP1 DUP4 SUB DUP2 DUP7 GAS STATICCALL ISZERO DUP1 ISZERO PUSH2 0x1D37 JUMPI RETURNDATASIZE PUSH1 0x0 DUP1 RETURNDATACOPY RETURNDATASIZE PUSH1 0x0 REVERT JUMPDEST POP POP POP POP PUSH1 0x40 MLOAD RETURNDATASIZE PUSH1 0x1F NOT PUSH1 0x1F DUP3 ADD AND DUP3 ADD DUP1 PUSH1 0x40 MSTORE POP DUP2 ADD SWAP1 PUSH2 0x1D5B SWAP2 SWAP1 PUSH2 0x30A0 JUMP JUMPDEST LT ISZERO PUSH2 0x1D9C JUMPI PUSH1 0x40 MLOAD PUSH32 0x8C379A000000000000000000000000000000000000000000000000000000000 DUP2 MSTORE PUSH1 0x4 ADD PUSH2 0x1D93 SWAP1 PUSH2 0x35A1 JUMP JUMPDEST PUSH1 0x40 MLOAD DUP1 SWAP2 SUB SWAP1 REVERT JUMPDEST PUSH1 0x0 PUSH2 0x1DA7 DUP3 PUSH2 0x151F JUMP JUMPDEST SWAP1 POP DUP1 PUSH1 0x4 PUSH1 0x1 SWAP1 SLOAD SWAP1 PUSH2 0x100 EXP SWAP1 DIV PUSH20 0xFFFFFFFFFFFFFFFFFFFFFFFFFFFFFFFFFFFFFFFF AND PUSH20 0xFFFFFFFFFFFFFFFFFFFFFFFFFFFFFFFFFFFFFFFF AND PUSH4 0x70A08231 ADDRESS PUSH1 0x40 MLOAD DUP3 PUSH4 0xFFFFFFFF AND PUSH1 0xE0 SHL DUP2 MSTORE PUSH1 0x4 ADD PUSH2 0x1E05 SWAP2 SWAP1 PUSH2 0x2A99 JUMP JUMPDEST PUSH1 0x20 PUSH1 0x40 MLOAD DUP1 DUP4 SUB DUP2 DUP7 GAS STATICCALL ISZERO DUP1 ISZERO PUSH2 0x1E22 JUMPI RETURNDATASIZE PUSH1 0x0 DUP1 RETURNDATACOPY RETURNDATASIZE PUSH1 0x0 REVERT JUMPDEST POP POP POP POP PUSH1 0x40 MLOAD RETURNDATASIZE PUSH1 0x1F NOT PUSH1 0x1F DUP3 ADD AND DUP3 ADD DUP1 PUSH1 0x40 MSTORE POP DUP2 ADD SWAP1 PUSH2 0x1E46 SWAP2 SWAP1 PUSH2 0x30A0 JUMP JUMPDEST LT ISZERO PUSH2 0x1E87 JUMPI PUSH1 0x40 MLOAD PUSH32 0x8C379A000000000000000000000000000000000000000000000000000000000 DUP2 MSTORE PUSH1 0x4 ADD PUSH2 0x1E7E SWAP1 PUSH2 0x3633 JUMP JUMPDEST PUSH1 0x40 MLOAD DUP1 SWAP2 SUB SWAP1 REVERT JUMPDEST PUSH2 0x1EB5 PUSH1 0x5 PUSH1 0x0 SWAP1 SLOAD SWAP1 PUSH2 0x100 EXP SWAP1 DIV PUSH20 0xFFFFFFFFFFFFFFFFFFFFFFFFFFFFFFFFFFFFFFFF AND CALLER ADDRESS DUP6 PUSH2 0x2669 JUMP JUMPDEST PUSH2 0x1EE2 PUSH1 0x4 PUSH1 0x1 SWAP1 SLOAD SWAP1 PUSH2 0x100 EXP SWAP1 DIV PUSH20 0xFFFFFFFFFFFFFFFFFFFFFFFFFFFFFFFFFFFFFFFF AND CALLER DUP4 PUSH2 0x213E JUMP JUMPDEST PUSH1 0x9 PUSH1 0x40 MLOAD DUP1 PUSH1 0x60 ADD PUSH1 0x40 MSTORE DUP1 CALLER PUSH20 0xFFFFFFFFFFFFFFFFFFFFFFFFFFFFFFFFFFFFFFFF AND DUP2 MSTORE PUSH1 0x20 ADD DUP5 DUP2 MSTORE PUSH1 0x20 ADD DUP4 DUP2 MSTORE POP SWAP1 DUP1 PUSH1 0x1 DUP2 SLOAD ADD DUP1 DUP3 SSTORE DUP1 SWAP2 POP POP PUSH1 0x1 SWAP1 SUB SWAP1 PUSH1 0x0 MSTORE PUSH1 0x20 PUSH1 0x0 KECCAK256 SWAP1 PUSH1 0x3 MUL ADD PUSH1 0x0 SWAP1 SWAP2 SWAP1 SWAP2 SWAP1 SWAP2 POP PUSH1 0x0 DUP3 ADD MLOAD DUP2 PUSH1 0x0 ADD PUSH1 0x0 PUSH2 0x100 EXP DUP2 SLOAD DUP2 PUSH20 0xFFFFFFFFFFFFFFFFFFFFFFFFFFFFFFFFFFFFFFFF MUL NOT AND SWAP1 DUP4 PUSH20 0xFFFFFFFFFFFFFFFFFFFFFFFFFFFFFFFFFFFFFFFF AND MUL OR SWAP1 SSTORE POP PUSH1 0x20 DUP3 ADD MLOAD DUP2 PUSH1 0x1 ADD SSTORE PUSH1 0x40 DUP3 ADD MLOAD DUP2 PUSH1 0x2 ADD SSTORE POP POP PUSH1 0x0 PUSH32 0x0 SWAP1 POP DUP1 PUSH20 0xFFFFFFFFFFFFFFFFFFFFFFFFFFFFFFFFFFFFFFFF AND PUSH4 0xF52701B7 ADDRESS CALLER DUP7 DUP7 PUSH1 0x40 MLOAD DUP6 PUSH4 0xFFFFFFFF AND PUSH1 0xE0 SHL DUP2 MSTORE PUSH1 0x4 ADD PUSH2 0x1FFF SWAP5 SWAP4 SWAP3 SWAP2 SWAP1 PUSH2 0x30CD JUMP JUMPDEST PUSH1 0x0 PUSH1 0x40 MLOAD DUP1 DUP4 SUB DUP2 PUSH1 0x0 DUP8 DUP1 EXTCODESIZE ISZERO DUP1 ISZERO PUSH2 0x2019 JUMPI PUSH1 0x0 DUP1 REVERT JUMPDEST POP GAS CALL ISZERO DUP1 ISZERO PUSH2 0x202D JUMPI RETURNDATASIZE PUSH1 0x0 DUP1 RETURNDATACOPY RETURNDATASIZE PUSH1 0x0 REVERT JUMPDEST POP POP POP POP POP POP POP JUMP JUMPDEST PUSH1 0x0 CALLER SWAP1 POP SWAP1 JUMP JUMPDEST PUSH1 0x0 DUP3 PUSH20 0xFFFFFFFFFFFFFFFFFFFFFFFFFFFFFFFFFFFFFFFF AND DUP3 PUSH1 0x0 PUSH8 0xFFFFFFFFFFFFFFFF DUP2 GT ISZERO PUSH2 0x2073 JUMPI PUSH2 0x2072 PUSH2 0x33F7 JUMP JUMPDEST JUMPDEST PUSH1 0x40 MLOAD SWAP1 DUP1 DUP3 MSTORE DUP1 PUSH1 0x1F ADD PUSH1 0x1F NOT AND PUSH1 0x20 ADD DUP3 ADD PUSH1 0x40 MSTORE DUP1 ISZERO PUSH2 0x20A5 JUMPI DUP2 PUSH1 0x20 ADD PUSH1 0x1 DUP3 MUL DUP1 CALLDATASIZE DUP4 CALLDATACOPY DUP1 DUP3 ADD SWAP2 POP POP SWAP1 POP JUMPDEST POP PUSH1 0x40 MLOAD PUSH2 0x20B3 SWAP2 SWAP1 PUSH2 0x36CD JUMP JUMPDEST PUSH1 0x0 PUSH1 0x40 MLOAD DUP1 DUP4 SUB DUP2 DUP6 DUP8 GAS CALL SWAP3 POP POP POP RETURNDATASIZE DUP1 PUSH1 0x0 DUP2 EQ PUSH2 0x20F0 JUMPI PUSH1 0x40 MLOAD SWAP2 POP PUSH1 0x1F NOT PUSH1 0x3F RETURNDATASIZE ADD AND DUP3 ADD PUSH1 0x40 MSTORE RETURNDATASIZE DUP3 MSTORE RETURNDATASIZE PUSH1 0x0 PUSH1 0x20 DUP5 ADD RETURNDATACOPY PUSH2 0x20F5 JUMP JUMPDEST PUSH1 0x60 SWAP2 POP JUMPDEST POP POP SWAP1 POP DUP1 PUSH2 0x2139 JUMPI PUSH1 0x40 MLOAD PUSH32 0x8C379A000000000000000000000000000000000000000000000000000000000 DUP2 MSTORE PUSH1 0x4 ADD PUSH2 0x2130 SWAP1 PUSH2 0x3756 JUMP JUMPDEST PUSH1 0x40 MLOAD DUP1 SWAP2 SUB SWAP1 REVERT JUMPDEST POP POP POP JUMP JUMPDEST PUSH1 0x0 DUP1 DUP5 PUSH20 0xFFFFFFFFFFFFFFFFFFFFFFFFFFFFFFFFFFFFFFFF AND PUSH4 0xA9059CBB DUP6 DUP6 PUSH1 0x40 MLOAD PUSH1 0x24 ADD PUSH2 0x2170 SWAP3 SWAP2 SWAP1 PUSH2 0x3776 JUMP JUMPDEST PUSH1 0x40 MLOAD PUSH1 0x20 DUP2 DUP4 SUB SUB DUP2 MSTORE SWAP1 PUSH1 0x40 MSTORE SWAP1 PUSH1 0xE0 SHL PUSH1 0x20 DUP3 ADD DUP1 MLOAD PUSH28 0xFFFFFFFFFFFFFFFFFFFFFFFFFFFFFFFFFFFFFFFFFFFFFFFFFFFFFFFF DUP4 DUP2 DUP4 AND OR DUP4 MSTORE POP POP POP POP PUSH1 0x40 MLOAD PUSH2 0x21BE SWAP2 SWAP1 PUSH2 0x36CD JUMP JUMPDEST PUSH1 0x0 PUSH1 0x40 MLOAD DUP1 DUP4 SUB DUP2 PUSH1 0x0 DUP7 GAS CALL SWAP2 POP POP RETURNDATASIZE DUP1 PUSH1 0x0 DUP2 EQ PUSH2 0x21FB JUMPI PUSH1 0x40 MLOAD SWAP2 POP PUSH1 0x1F NOT PUSH1 0x3F RETURNDATASIZE ADD AND DUP3 ADD PUSH1 0x40 MSTORE RETURNDATASIZE DUP3 MSTORE RETURNDATASIZE PUSH1 0x0 PUSH1 0x20 DUP5 ADD RETURNDATACOPY PUSH2 0x2200 JUMP JUMPDEST PUSH1 0x60 SWAP2 POP JUMPDEST POP SWAP2 POP SWAP2 POP DUP2 DUP1 ISZERO PUSH2 0x222E JUMPI POP PUSH1 0x0 DUP2 MLOAD EQ DUP1 PUSH2 0x222D JUMPI POP DUP1 DUP1 PUSH1 0x20 ADD SWAP1 MLOAD DUP2 ADD SWAP1 PUSH2 0x222C SWAP2 SWAP1 PUSH2 0x2DD0 JUMP JUMPDEST JUMPDEST JUMPDEST PUSH2 0x226D JUMPI PUSH1 0x40 MLOAD PUSH32 0x8C379A000000000000000000000000000000000000000000000000000000000 DUP2 MSTORE PUSH1 0x4 ADD PUSH2 0x2264 SWAP1 PUSH2 0x37EB JUMP JUMPDEST PUSH1 0x40 MLOAD DUP1 SWAP2 SUB SWAP1 REVERT JUMPDEST POP POP POP POP POP JUMP JUMPDEST CALLVALUE DUP2 EQ PUSH2 0x22B6 JUMPI PUSH1 0x40 MLOAD PUSH32 0x8C379A000000000000000000000000000000000000000000000000000000000 DUP2 MSTORE PUSH1 0x4 ADD PUSH2 0x22AD SWAP1 PUSH2 0x387D JUMP JUMPDEST PUSH1 0x40 MLOAD DUP1 SWAP2 SUB SWAP1 REVERT JUMPDEST PUSH1 0x0 PUSH2 0x22C1 DUP3 PUSH2 0x151F JUMP JUMPDEST SWAP1 POP DUP1 PUSH1 0x4 PUSH1 0x1 SWAP1 SLOAD SWAP1 PUSH2 0x100 EXP SWAP1 DIV PUSH20 0xFFFFFFFFFFFFFFFFFFFFFFFFFFFFFFFFFFFFFFFF AND PUSH20 0xFFFFFFFFFFFFFFFFFFFFFFFFFFFFFFFFFFFFFFFF AND PUSH4 0x70A08231 ADDRESS PUSH1 0x40 MLOAD DUP3 PUSH4 0xFFFFFFFF AND PUSH1 0xE0 SHL DUP2 MSTORE PUSH1 0x4 ADD PUSH2 0x231F SWAP2 SWAP1 PUSH2 0x2A99 JUMP JUMPDEST PUSH1 0x20 PUSH1 0x40 MLOAD DUP1 DUP4 SUB DUP2 DUP7 GAS STATICCALL ISZERO DUP1 ISZERO PUSH2 0x233C JUMPI RETURNDATASIZE PUSH1 0x0 DUP1 RETURNDATACOPY RETURNDATASIZE PUSH1 0x0 REVERT JUMPDEST POP POP POP POP PUSH1 0x40 MLOAD RETURNDATASIZE PUSH1 0x1F NOT PUSH1 0x1F DUP3 ADD AND DUP3 ADD DUP1 PUSH1 0x40 MSTORE POP DUP2 ADD SWAP1 PUSH2 0x2360 SWAP2 SWAP1 PUSH2 0x30A0 JUMP JUMPDEST LT ISZERO PUSH2 0x23A1 JUMPI PUSH1 0x40 MLOAD PUSH32 0x8C379A000000000000000000000000000000000000000000000000000000000 DUP2 MSTORE PUSH1 0x4 ADD PUSH2 0x2398 SWAP1 PUSH2 0x3633 JUMP JUMPDEST PUSH1 0x40 MLOAD DUP1 SWAP2 SUB SWAP1 REVERT JUMPDEST PUSH1 0x2 PUSH1 0x1 SWAP1 SLOAD SWAP1 PUSH2 0x100 EXP SWAP1 DIV PUSH20 0xFFFFFFFFFFFFFFFFFFFFFFFFFFFFFFFFFFFFFFFF AND PUSH20 0xFFFFFFFFFFFFFFFFFFFFFFFFFFFFFFFFFFFFFFFF AND PUSH4 0xD0E30DB0 DUP4 PUSH1 0x40 MLOAD DUP3 PUSH4 0xFFFFFFFF AND PUSH1 0xE0 SHL DUP2 MSTORE PUSH1 0x4 ADD PUSH1 0x0 PUSH1 0x40 MLOAD DUP1 DUP4 SUB DUP2 DUP6 DUP9 DUP1 EXTCODESIZE ISZERO DUP1 ISZERO PUSH2 0x240B JUMPI PUSH1 0x0 DUP1 REVERT JUMPDEST POP GAS CALL ISZERO DUP1 ISZERO PUSH2 0x241F JUMPI RETURNDATASIZE PUSH1 0x0 DUP1 RETURNDATACOPY RETURNDATASIZE PUSH1 0x0 REVERT JUMPDEST POP POP POP POP POP PUSH2 0x2451 PUSH1 0x4 PUSH1 0x1 SWAP1 SLOAD SWAP1 PUSH2 0x100 EXP SWAP1 DIV PUSH20 0xFFFFFFFFFFFFFFFFFFFFFFFFFFFFFFFFFFFFFFFF AND CALLER DUP4 PUSH2 0x213E JUMP JUMPDEST PUSH1 0x9 PUSH1 0x40 MLOAD DUP1 PUSH1 0x60 ADD PUSH1 0x40 MSTORE DUP1 CALLER PUSH20 0xFFFFFFFFFFFFFFFFFFFFFFFFFFFFFFFFFFFFFFFF AND DUP2 MSTORE PUSH1 0x20 ADD DUP5 DUP2 MSTORE PUSH1 0x20 ADD DUP4 DUP2 MSTORE POP SWAP1 DUP1 PUSH1 0x1 DUP2 SLOAD ADD DUP1 DUP3 SSTORE DUP1 SWAP2 POP POP PUSH1 0x1 SWAP1 SUB SWAP1 PUSH1 0x0 MSTORE PUSH1 0x20 PUSH1 0x0 KECCAK256 SWAP1 PUSH1 0x3 MUL ADD PUSH1 0x0 SWAP1 SWAP2 SWAP1 SWAP2 SWAP1 SWAP2 POP PUSH1 0x0 DUP3 ADD MLOAD DUP2 PUSH1 0x0 ADD PUSH1 0x0 PUSH2 0x100 EXP DUP2 SLOAD DUP2 PUSH20 0xFFFFFFFFFFFFFFFFFFFFFFFFFFFFFFFFFFFFFFFF MUL NOT AND SWAP1 DUP4 PUSH20 0xFFFFFFFFFFFFFFFFFFFFFFFFFFFFFFFFFFFFFFFF AND MUL OR SWAP1 SSTORE POP PUSH1 0x20 DUP3 ADD MLOAD DUP2 PUSH1 0x1 ADD SSTORE PUSH1 0x40 DUP3 ADD MLOAD DUP2 PUSH1 0x2 ADD SSTORE POP POP PUSH1 0x0 PUSH32 0x0 SWAP1 POP DUP1 PUSH20 0xFFFFFFFFFFFFFFFFFFFFFFFFFFFFFFFFFFFFFFFF AND PUSH4 0xF52701B7 ADDRESS CALLER DUP7 DUP7 PUSH1 0x40 MLOAD DUP6 PUSH4 0xFFFFFFFF AND PUSH1 0xE0 SHL DUP2 MSTORE PUSH1 0x4 ADD PUSH2 0x256E SWAP5 SWAP4 SWAP3 SWAP2 SWAP1 PUSH2 0x30CD JUMP JUMPDEST PUSH1 0x0 PUSH1 0x40 MLOAD DUP1 DUP4 SUB DUP2 PUSH1 0x0 DUP8 DUP1 EXTCODESIZE ISZERO DUP1 ISZERO PUSH2 0x2588 JUMPI PUSH1 0x0 DUP1 REVERT JUMPDEST POP GAS CALL ISZERO DUP1 ISZERO PUSH2 0x259C JUMPI RETURNDATASIZE PUSH1 0x0 DUP1 RETURNDATACOPY RETURNDATASIZE PUSH1 0x0 REVERT JUMPDEST POP POP POP POP POP POP POP JUMP JUMPDEST PUSH1 0x0 DUP1 PUSH1 0x0 SWAP1 SLOAD SWAP1 PUSH2 0x100 EXP SWAP1 DIV PUSH20 0xFFFFFFFFFFFFFFFFFFFFFFFFFFFFFFFFFFFFFFFF AND SWAP1 POP DUP2 PUSH1 0x0 DUP1 PUSH2 0x100 EXP DUP2 SLOAD DUP2 PUSH20 0xFFFFFFFFFFFFFFFFFFFFFFFFFFFFFFFFFFFFFFFF MUL NOT AND SWAP1 DUP4 PUSH20 0xFFFFFFFFFFFFFFFFFFFFFFFFFFFFFFFFFFFFFFFF AND MUL OR SWAP1 SSTORE POP DUP2 PUSH20 0xFFFFFFFFFFFFFFFFFFFFFFFFFFFFFFFFFFFFFFFF AND DUP2 PUSH20 0xFFFFFFFFFFFFFFFFFFFFFFFFFFFFFFFFFFFFFFFF AND PUSH32 0x8BE0079C531659141344CD1FD0A4F28419497F9722A3DAAFE3B4186F6B6457E0 PUSH1 0x40 MLOAD PUSH1 0x40 MLOAD DUP1 SWAP2 SUB SWAP1 LOG3 POP POP JUMP JUMPDEST PUSH1 0x0 DUP1 DUP6 PUSH20 0xFFFFFFFFFFFFFFFFFFFFFFFFFFFFFFFFFFFFFFFF AND PUSH4 0x23B872DD DUP7 DUP7 DUP7 PUSH1 0x40 MLOAD PUSH1 0x24 ADD PUSH2 0x269D SWAP4 SWAP3 SWAP2 SWAP1 PUSH2 0x389D JUMP JUMPDEST PUSH1 0x40 MLOAD PUSH1 0x20 DUP2 DUP4 SUB SUB DUP2 MSTORE SWAP1 PUSH1 0x40 MSTORE SWAP1 PUSH1 0xE0 SHL PUSH1 0x20 DUP3 ADD DUP1 MLOAD PUSH28 0xFFFFFFFFFFFFFFFFFFFFFFFFFFFFFFFFFFFFFFFFFFFFFFFFFFFFFFFF DUP4 DUP2 DUP4 AND OR DUP4 MSTORE POP POP POP POP PUSH1 0x40 MLOAD PUSH2 0x26EB SWAP2 SWAP1 PUSH2 0x36CD JUMP JUMPDEST PUSH1 0x0 PUSH1 0x40 MLOAD DUP1 DUP4 SUB DUP2 PUSH1 0x0 DUP7 GAS CALL SWAP2 POP POP RETURNDATASIZE DUP1 PUSH1 0x0 DUP2 EQ PUSH2 0x2728 JUMPI PUSH1 0x40 MLOAD SWAP2 POP PUSH1 0x1F NOT PUSH1 0x3F RETURNDATASIZE ADD AND DUP3 ADD PUSH1 0x40 MSTORE RETURNDATASIZE DUP3 MSTORE RETURNDATASIZE PUSH1 0x0 PUSH1 0x20 DUP5 ADD RETURNDATACOPY PUSH2 0x272D JUMP JUMPDEST PUSH1 0x60 SWAP2 POP JUMPDEST POP SWAP2 POP SWAP2 POP DUP2 DUP1 ISZERO PUSH2 0x275B JUMPI POP PUSH1 0x0 DUP2 MLOAD EQ DUP1 PUSH2 0x275A JUMPI POP DUP1 DUP1 PUSH1 0x20 ADD SWAP1 MLOAD DUP2 ADD SWAP1 PUSH2 0x2759 SWAP2 SWAP1 PUSH2 0x2DD0 JUMP JUMPDEST JUMPDEST JUMPDEST PUSH2 0x279A JUMPI PUSH1 0x40 MLOAD PUSH32 0x8C379A000000000000000000000000000000000000000000000000000000000 DUP2 MSTORE PUSH1 0x4 ADD PUSH2 0x2791 SWAP1 PUSH2 0x3946 JUMP JUMPDEST PUSH1 0x40 MLOAD DUP1 SWAP2 SUB SWAP1 REVERT JUMPDEST POP POP POP POP POP POP JUMP JUMPDEST PUSH1 0x0 DUP1 REVERT JUMPDEST PUSH1 0x0 DUP2 SWAP1 POP SWAP2 SWAP1 POP JUMP JUMPDEST PUSH2 0x27BA DUP2 PUSH2 0x27A7 JUMP JUMPDEST DUP2 EQ PUSH2 0x27C5 JUMPI PUSH1 0x0 DUP1 REVERT JUMPDEST POP JUMP JUMPDEST PUSH1 0x0 DUP2 CALLDATALOAD SWAP1 POP PUSH2 0x27D7 DUP2 PUSH2 0x27B1 JUMP JUMPDEST SWAP3 SWAP2 POP POP JUMP JUMPDEST PUSH1 0x0 PUSH1 0x20 DUP3 DUP5 SUB SLT ISZERO PUSH2 0x27F3 JUMPI PUSH2 0x27F2 PUSH2 0x27A2 JUMP JUMPDEST JUMPDEST PUSH1 0x0 PUSH2 0x2801 DUP5 DUP3 DUP6 ADD PUSH2 0x27C8 JUMP JUMPDEST SWAP2 POP POP SWAP3 SWAP2 POP POP JUMP JUMPDEST PUSH1 0x0 DUP2 ISZERO ISZERO SWAP1 POP SWAP2 SWAP1 POP JUMP JUMPDEST PUSH2 0x281F DUP2 PUSH2 0x280A JUMP JUMPDEST DUP3 MSTORE POP POP JUMP JUMPDEST PUSH1 0x0 PUSH1 0x20 DUP3 ADD SWAP1 POP PUSH2 0x283A PUSH1 0x0 DUP4 ADD DUP5 PUSH2 0x2816 JUMP JUMPDEST SWAP3 SWAP2 POP POP JUMP JUMPDEST PUSH2 0x2849 DUP2 PUSH2 0x27A7 JUMP JUMPDEST DUP3 MSTORE POP POP JUMP JUMPDEST PUSH1 0x0 PUSH1 0x40 DUP3 ADD SWAP1 POP PUSH2 0x2864 PUSH1 0x0 DUP4 ADD DUP6 PUSH2 0x2840 JUMP JUMPDEST PUSH2 0x2871 PUSH1 0x20 DUP4 ADD DUP5 PUSH2 0x2840 JUMP JUMPDEST SWAP4 SWAP3 POP POP POP JUMP JUMPDEST PUSH1 0x0 PUSH1 0x20 DUP3 ADD SWAP1 POP PUSH2 0x288D PUSH1 0x0 DUP4 ADD DUP5 PUSH2 0x2840 JUMP JUMPDEST SWAP3 SWAP2 POP POP JUMP JUMPDEST PUSH1 0x3 DUP2 LT PUSH2 0x28A0 JUMPI PUSH1 0x0 DUP1 REVERT JUMPDEST POP JUMP JUMPDEST PUSH1 0x0 DUP2 CALLDATALOAD SWAP1 POP PUSH2 0x28B2 DUP2 PUSH2 0x2893 JUMP JUMPDEST SWAP3 SWAP2 POP POP JUMP JUMPDEST PUSH1 0x0 PUSH20 0xFFFFFFFFFFFFFFFFFFFFFFFFFFFFFFFFFFFFFFFF DUP3 AND SWAP1 POP SWAP2 SWAP1 POP JUMP JUMPDEST PUSH1 0x0 PUSH2 0x28E3 DUP3 PUSH2 0x28B8 JUMP JUMPDEST SWAP1 POP SWAP2 SWAP1 POP JUMP JUMPDEST PUSH2 0x28F3 DUP2 PUSH2 0x28D8 JUMP JUMPDEST DUP2 EQ PUSH2 0x28FE JUMPI PUSH1 0x0 DUP1 REVERT JUMPDEST POP JUMP JUMPDEST PUSH1 0x0 DUP2 CALLDATALOAD SWAP1 POP PUSH2 0x2910 DUP2 PUSH2 0x28EA JUMP JUMPDEST SWAP3 SWAP2 POP POP JUMP JUMPDEST PUSH2 0x291F DUP2 PUSH2 0x280A JUMP JUMPDEST DUP2 EQ PUSH2 0x292A JUMPI PUSH1 0x0 DUP1 REVERT JUMPDEST POP JUMP JUMPDEST PUSH1 0x0 DUP2 CALLDATALOAD SWAP1 POP PUSH2 0x293C DUP2 PUSH2 0x2916 JUMP JUMPDEST SWAP3 SWAP2 POP POP JUMP JUMPDEST PUSH1 0x0 DUP1 PUSH1 0x0 DUP1 PUSH1 0x0 DUP1 PUSH1 0x0 DUP1 PUSH2 0x100 DUP10 DUP12 SUB SLT ISZERO PUSH2 0x2963 JUMPI PUSH2 0x2962 PUSH2 0x27A2 JUMP JUMPDEST JUMPDEST PUSH1 0x0 PUSH2 0x2971 DUP12 DUP3 DUP13 ADD PUSH2 0x28A3 JUMP JUMPDEST SWAP9 POP POP PUSH1 0x20 PUSH2 0x2982 DUP12 DUP3 DUP13 ADD PUSH2 0x2901 JUMP JUMPDEST SWAP8 POP POP PUSH1 0x40 PUSH2 0x2993 DUP12 DUP3 DUP13 ADD PUSH2 0x2901 JUMP JUMPDEST SWAP7 POP POP PUSH1 0x60 PUSH2 0x29A4 DUP12 DUP3 DUP13 ADD PUSH2 0x27C8 JUMP JUMPDEST SWAP6 POP POP PUSH1 0x80 PUSH2 0x29B5 DUP12 DUP3 DUP13 ADD PUSH2 0x27C8 JUMP JUMPDEST SWAP5 POP POP PUSH1 0xA0 PUSH2 0x29C6 DUP12 DUP3 DUP13 ADD PUSH2 0x27C8 JUMP JUMPDEST SWAP4 POP POP PUSH1 0xC0 PUSH2 0x29D7 DUP12 DUP3 DUP13 ADD PUSH2 0x292D JUMP JUMPDEST SWAP3 POP POP PUSH1 0xE0 PUSH2 0x29E8 DUP12 DUP3 DUP13 ADD PUSH2 0x2901 JUMP JUMPDEST SWAP2 POP POP SWAP3 SWAP6 SWAP9 POP SWAP3 SWAP6 SWAP9 SWAP1 SWAP4 SWAP7 POP JUMP JUMPDEST PUSH32 0x4E487B7100000000000000000000000000000000000000000000000000000000 PUSH1 0x0 MSTORE PUSH1 0x21 PUSH1 0x4 MSTORE PUSH1 0x24 PUSH1 0x0 REVERT JUMPDEST PUSH1 0x3 DUP2 LT PUSH2 0x2A38 JUMPI PUSH2 0x2A37 PUSH2 0x29F8 JUMP JUMPDEST JUMPDEST POP JUMP JUMPDEST PUSH1 0x0 DUP2 SWAP1 POP PUSH2 0x2A49 DUP3 PUSH2 0x2A27 JUMP JUMPDEST SWAP2 SWAP1 POP JUMP JUMPDEST PUSH1 0x0 PUSH2 0x2A59 DUP3 PUSH2 0x2A3B JUMP JUMPDEST SWAP1 POP SWAP2 SWAP1 POP JUMP JUMPDEST PUSH2 0x2A69 DUP2 PUSH2 0x2A4E JUMP JUMPDEST DUP3 MSTORE POP POP JUMP JUMPDEST PUSH1 0x0 PUSH1 0x20 DUP3 ADD SWAP1 POP PUSH2 0x2A84 PUSH1 0x0 DUP4 ADD DUP5 PUSH2 0x2A60 JUMP JUMPDEST SWAP3 SWAP2 POP POP JUMP JUMPDEST PUSH2 0x2A93 DUP2 PUSH2 0x28D8 JUMP JUMPDEST DUP3 MSTORE POP POP JUMP JUMPDEST PUSH1 0x0 PUSH1 0x20 DUP3 ADD SWAP1 POP PUSH2 0x2AAE PUSH1 0x0 DUP4 ADD DUP5 PUSH2 0x2A8A JUMP JUMPDEST SWAP3 SWAP2 POP POP JUMP JUMPDEST PUSH1 0x0 PUSH1 0x40 DUP3 ADD SWAP1 POP PUSH2 0x2AC9 PUSH1 0x0 DUP4 ADD DUP6 PUSH2 0x2A8A JUMP JUMPDEST PUSH2 0x2AD6 PUSH1 0x20 DUP4 ADD DUP5 PUSH2 0x2A8A JUMP JUMPDEST SWAP4 SWAP3 POP POP POP JUMP JUMPDEST PUSH1 0x0 DUP2 MLOAD SWAP1 POP SWAP2 SWAP1 POP JUMP JUMPDEST PUSH1 0x0 DUP3 DUP3 MSTORE PUSH1 0x20 DUP3 ADD SWAP1 POP SWAP3 SWAP2 POP POP JUMP JUMPDEST PUSH1 0x0 DUP2 SWAP1 POP PUSH1 0x20 DUP3 ADD SWAP1 POP SWAP2 SWAP1 POP JUMP JUMPDEST PUSH2 0x2B12 DUP2 PUSH2 0x28D8 JUMP JUMPDEST DUP3 MSTORE POP POP JUMP JUMPDEST PUSH1 0x0 PUSH2 0x2B24 DUP4 DUP4 PUSH2 0x2B09 JUMP JUMPDEST PUSH1 0x20 DUP4 ADD SWAP1 POP SWAP3 SWAP2 POP POP JUMP JUMPDEST PUSH1 0x0 PUSH1 0x20 DUP3 ADD SWAP1 POP SWAP2 SWAP1 POP JUMP JUMPDEST PUSH1 0x0 PUSH2 0x2B48 DUP3 PUSH2 0x2ADD JUMP JUMPDEST PUSH2 0x2B52 DUP2 DUP6 PUSH2 0x2AE8 JUMP JUMPDEST SWAP4 POP PUSH2 0x2B5D DUP4 PUSH2 0x2AF9 JUMP JUMPDEST DUP1 PUSH1 0x0 JUMPDEST DUP4 DUP2 LT ISZERO PUSH2 0x2B8E JUMPI DUP2 MLOAD PUSH2 0x2B75 DUP9 DUP3 PUSH2 0x2B18 JUMP JUMPDEST SWAP8 POP PUSH2 0x2B80 DUP4 PUSH2 0x2B30 JUMP JUMPDEST SWAP3 POP POP PUSH1 0x1 DUP2 ADD SWAP1 POP PUSH2 0x2B61 JUMP JUMPDEST POP DUP6 SWAP4 POP POP POP POP SWAP3 SWAP2 POP POP JUMP JUMPDEST PUSH1 0x0 DUP2 MLOAD SWAP1 POP SWAP2 SWAP1 POP JUMP JUMPDEST PUSH1 0x0 DUP3 DUP3 MSTORE PUSH1 0x20 DUP3 ADD SWAP1 POP SWAP3 SWAP2 POP POP JUMP JUMPDEST PUSH1 0x0 DUP2 SWAP1 POP PUSH1 0x20 DUP3 ADD SWAP1 POP SWAP2 SWAP1 POP JUMP JUMPDEST PUSH2 0x2BD0 DUP2 PUSH2 0x27A7 JUMP JUMPDEST DUP3 MSTORE POP POP JUMP JUMPDEST PUSH1 0x0 PUSH2 0x2BE2 DUP4 DUP4 PUSH2 0x2BC7 JUMP JUMPDEST PUSH1 0x20 DUP4 ADD SWAP1 POP SWAP3 SWAP2 POP POP JUMP JUMPDEST PUSH1 0x0 PUSH1 0x20 DUP3 ADD SWAP1 POP SWAP2 SWAP1 POP JUMP JUMPDEST PUSH1 0x0 PUSH2 0x2C06 DUP3 PUSH2 0x2B9B JUMP JUMPDEST PUSH2 0x2C10 DUP2 DUP6 PUSH2 0x2BA6 JUMP JUMPDEST SWAP4 POP PUSH2 0x2C1B DUP4 PUSH2 0x2BB7 JUMP JUMPDEST DUP1 PUSH1 0x0 JUMPDEST DUP4 DUP2 LT ISZERO PUSH2 0x2C4C JUMPI DUP2 MLOAD PUSH2 0x2C33 DUP9 DUP3 PUSH2 0x2BD6 JUMP JUMPDEST SWAP8 POP PUSH2 0x2C3E DUP4 PUSH2 0x2BEE JUMP JUMPDEST SWAP3 POP POP PUSH1 0x1 DUP2 ADD SWAP1 POP PUSH2 0x2C1F JUMP JUMPDEST POP DUP6 SWAP4 POP POP POP POP SWAP3 SWAP2 POP POP JUMP JUMPDEST PUSH1 0x0 PUSH1 0x60 DUP3 ADD SWAP1 POP DUP2 DUP2 SUB PUSH1 0x0 DUP4 ADD MSTORE PUSH2 0x2C73 DUP2 DUP7 PUSH2 0x2B3D JUMP JUMPDEST SWAP1 POP DUP2 DUP2 SUB PUSH1 0x20 DUP4 ADD MSTORE PUSH2 0x2C87 DUP2 DUP6 PUSH2 0x2BFB JUMP JUMPDEST SWAP1 POP DUP2 DUP2 SUB PUSH1 0x40 DUP4 ADD MSTORE PUSH2 0x2C9B DUP2 DUP5 PUSH2 0x2BFB JUMP JUMPDEST SWAP1 POP SWAP5 SWAP4 POP POP POP POP JUMP JUMPDEST PUSH1 0x0 PUSH1 0x20 DUP3 DUP5 SUB SLT ISZERO PUSH2 0x2CBB JUMPI PUSH2 0x2CBA PUSH2 0x27A2 JUMP JUMPDEST JUMPDEST PUSH1 0x0 PUSH2 0x2CC9 DUP5 DUP3 DUP6 ADD PUSH2 0x2901 JUMP JUMPDEST SWAP2 POP POP SWAP3 SWAP2 POP POP JUMP JUMPDEST PUSH1 0x0 DUP3 DUP3 MSTORE PUSH1 0x20 DUP3 ADD SWAP1 POP SWAP3 SWAP2 POP POP JUMP JUMPDEST PUSH32 0x537943726F774261727465723A20494E41435449564500000000000000000000 PUSH1 0x0 DUP3 ADD MSTORE POP JUMP JUMPDEST PUSH1 0x0 PUSH2 0x2D19 PUSH1 0x16 DUP4 PUSH2 0x2CD2 JUMP JUMPDEST SWAP2 POP PUSH2 0x2D24 DUP3 PUSH2 0x2CE3 JUMP JUMPDEST PUSH1 0x20 DUP3 ADD SWAP1 POP SWAP2 SWAP1 POP JUMP JUMPDEST PUSH1 0x0 PUSH1 0x20 DUP3 ADD SWAP1 POP DUP2 DUP2 SUB PUSH1 0x0 DUP4 ADD MSTORE PUSH2 0x2D48 DUP2 PUSH2 0x2D0C JUMP JUMPDEST SWAP1 POP SWAP2 SWAP1 POP JUMP JUMPDEST PUSH32 0x537943726F774261727465723A204E4F545F494E495449414C495A4544000000 PUSH1 0x0 DUP3 ADD MSTORE POP JUMP JUMPDEST PUSH1 0x0 PUSH2 0x2D85 PUSH1 0x1D DUP4 PUSH2 0x2CD2 JUMP JUMPDEST SWAP2 POP PUSH2 0x2D90 DUP3 PUSH2 0x2D4F JUMP JUMPDEST PUSH1 0x20 DUP3 ADD SWAP1 POP SWAP2 SWAP1 POP JUMP JUMPDEST PUSH1 0x0 PUSH1 0x20 DUP3 ADD SWAP1 POP DUP2 DUP2 SUB PUSH1 0x0 DUP4 ADD MSTORE PUSH2 0x2DB4 DUP2 PUSH2 0x2D78 JUMP JUMPDEST SWAP1 POP SWAP2 SWAP1 POP JUMP JUMPDEST PUSH1 0x0 DUP2 MLOAD SWAP1 POP PUSH2 0x2DCA DUP2 PUSH2 0x2916 JUMP JUMPDEST SWAP3 SWAP2 POP POP JUMP JUMPDEST PUSH1 0x0 PUSH1 0x20 DUP3 DUP5 SUB SLT ISZERO PUSH2 0x2DE6 JUMPI PUSH2 0x2DE5 PUSH2 0x27A2 JUMP JUMPDEST JUMPDEST PUSH1 0x0 PUSH2 0x2DF4 DUP5 DUP3 DUP6 ADD PUSH2 0x2DBB JUMP JUMPDEST SWAP2 POP POP SWAP3 SWAP2 POP POP JUMP JUMPDEST PUSH32 0x537943726F774261727465723A204261736520436F6E74726163742050617573 PUSH1 0x0 DUP3 ADD MSTORE PUSH32 0x6564000000000000000000000000000000000000000000000000000000000000 PUSH1 0x20 DUP3 ADD MSTORE POP JUMP JUMPDEST PUSH1 0x0 PUSH2 0x2E59 PUSH1 0x22 DUP4 PUSH2 0x2CD2 JUMP JUMPDEST SWAP2 POP PUSH2 0x2E64 DUP3 PUSH2 0x2DFD JUMP JUMPDEST PUSH1 0x40 DUP3 ADD SWAP1 POP SWAP2 SWAP1 POP JUMP JUMPDEST PUSH1 0x0 PUSH1 0x20 DUP3 ADD SWAP1 POP DUP2 DUP2 SUB PUSH1 0x0 DUP4 ADD MSTORE PUSH2 0x2E88 DUP2 PUSH2 0x2E4C JUMP JUMPDEST SWAP1 POP SWAP2 SWAP1 POP JUMP JUMPDEST PUSH32 0x537943726F774261727465723A20494E56414C49445F4241525445525F545950 PUSH1 0x0 DUP3 ADD MSTORE PUSH32 0x4500000000000000000000000000000000000000000000000000000000000000 PUSH1 0x20 DUP3 ADD MSTORE POP JUMP JUMPDEST PUSH1 0x0 PUSH2 0x2EEB PUSH1 0x21 DUP4 PUSH2 0x2CD2 JUMP JUMPDEST SWAP2 POP PUSH2 0x2EF6 DUP3 PUSH2 0x2E8F JUMP JUMPDEST PUSH1 0x40 DUP3 ADD SWAP1 POP SWAP2 SWAP1 POP JUMP JUMPDEST PUSH1 0x0 PUSH1 0x20 DUP3 ADD SWAP1 POP DUP2 DUP2 SUB PUSH1 0x0 DUP4 ADD MSTORE PUSH2 0x2F1A DUP2 PUSH2 0x2EDE JUMP JUMPDEST SWAP1 POP SWAP2 SWAP1 POP JUMP JUMPDEST PUSH32 0x537943726F774261727465723A20414D4F554E545F4C4F5745525F5448414E5F PUSH1 0x0 DUP3 ADD MSTORE PUSH32 0x5245515552495245440000000000000000000000000000000000000000000000 PUSH1 0x20 DUP3 ADD MSTORE POP JUMP JUMPDEST PUSH1 0x0 PUSH2 0x2F7D PUSH1 0x29 DUP4 PUSH2 0x2CD2 JUMP JUMPDEST SWAP2 POP PUSH2 0x2F88 DUP3 PUSH2 0x2F21 JUMP JUMPDEST PUSH1 0x40 DUP3 ADD SWAP1 POP SWAP2 SWAP1 POP JUMP JUMPDEST PUSH1 0x0 PUSH1 0x20 DUP3 ADD SWAP1 POP DUP2 DUP2 SUB PUSH1 0x0 DUP4 ADD MSTORE PUSH2 0x2FAC DUP2 PUSH2 0x2F70 JUMP JUMPDEST SWAP1 POP SWAP2 SWAP1 POP JUMP JUMPDEST PUSH32 0x537943726F774261727465723A20414354495645000000000000000000000000 PUSH1 0x0 DUP3 ADD MSTORE POP JUMP JUMPDEST PUSH1 0x0 PUSH2 0x2FE9 PUSH1 0x14 DUP4 PUSH2 0x2CD2 JUMP JUMPDEST SWAP2 POP PUSH2 0x2FF4 DUP3 PUSH2 0x2FB3 JUMP JUMPDEST PUSH1 0x20 DUP3 ADD SWAP1 POP SWAP2 SWAP1 POP JUMP JUMPDEST PUSH1 0x0 PUSH1 0x20 DUP3 ADD SWAP1 POP DUP2 DUP2 SUB PUSH1 0x0 DUP4 ADD MSTORE PUSH2 0x3018 DUP2 PUSH2 0x2FDC JUMP JUMPDEST SWAP1 POP SWAP2 SWAP1 POP JUMP JUMPDEST PUSH32 0x4F776E61626C653A2063616C6C6572206973206E6F7420746865206F776E6572 PUSH1 0x0 DUP3 ADD MSTORE POP JUMP JUMPDEST PUSH1 0x0 PUSH2 0x3055 PUSH1 0x20 DUP4 PUSH2 0x2CD2 JUMP JUMPDEST SWAP2 POP PUSH2 0x3060 DUP3 PUSH2 0x301F JUMP JUMPDEST PUSH1 0x20 DUP3 ADD SWAP1 POP SWAP2 SWAP1 POP JUMP JUMPDEST PUSH1 0x0 PUSH1 0x20 DUP3 ADD SWAP1 POP DUP2 DUP2 SUB PUSH1 0x0 DUP4 ADD MSTORE PUSH2 0x3084 DUP2 PUSH2 0x3048 JUMP JUMPDEST SWAP1 POP SWAP2 SWAP1 POP JUMP JUMPDEST PUSH1 0x0 DUP2 MLOAD SWAP1 POP PUSH2 0x309A DUP2 PUSH2 0x27B1 JUMP JUMPDEST SWAP3 SWAP2 POP POP JUMP JUMPDEST PUSH1 0x0 PUSH1 0x20 DUP3 DUP5 SUB SLT ISZERO PUSH2 0x30B6 JUMPI PUSH2 0x30B5 PUSH2 0x27A2 JUMP JUMPDEST JUMPDEST PUSH1 0x0 PUSH2 0x30C4 DUP5 DUP3 DUP6 ADD PUSH2 0x308B JUMP JUMPDEST SWAP2 POP POP SWAP3 SWAP2 POP POP JUMP JUMPDEST PUSH1 0x0 PUSH1 0x80 DUP3 ADD SWAP1 POP PUSH2 0x30E2 PUSH1 0x0 DUP4 ADD DUP8 PUSH2 0x2A8A JUMP JUMPDEST PUSH2 0x30EF PUSH1 0x20 DUP4 ADD DUP7 PUSH2 0x2A8A JUMP JUMPDEST PUSH2 0x30FC PUSH1 0x40 DUP4 ADD DUP6 PUSH2 0x2840 JUMP JUMPDEST PUSH2 0x3109 PUSH1 0x60 DUP4 ADD DUP5 PUSH2 0x2840 JUMP JUMPDEST SWAP6 SWAP5 POP POP POP POP POP JUMP JUMPDEST PUSH32 0x537943726F774261727465723A20464F5242494444454E000000000000000000 PUSH1 0x0 DUP3 ADD MSTORE POP JUMP JUMPDEST PUSH1 0x0 PUSH2 0x3148 PUSH1 0x17 DUP4 PUSH2 0x2CD2 JUMP JUMPDEST SWAP2 POP PUSH2 0x3153 DUP3 PUSH2 0x3112 JUMP JUMPDEST PUSH1 0x20 DUP3 ADD SWAP1 POP SWAP2 SWAP1 POP JUMP JUMPDEST PUSH1 0x0 PUSH1 0x20 DUP3 ADD SWAP1 POP DUP2 DUP2 SUB PUSH1 0x0 DUP4 ADD MSTORE PUSH2 0x3177 DUP2 PUSH2 0x313B JUMP JUMPDEST SWAP1 POP SWAP2 SWAP1 POP JUMP JUMPDEST PUSH32 0x537943726F774261727465723A20414C52454144595F494E495449414C495A45 PUSH1 0x0 DUP3 ADD MSTORE PUSH32 0x4400000000000000000000000000000000000000000000000000000000000000 PUSH1 0x20 DUP3 ADD MSTORE POP JUMP JUMPDEST PUSH1 0x0 PUSH2 0x31DA PUSH1 0x21 DUP4 PUSH2 0x2CD2 JUMP JUMPDEST SWAP2 POP PUSH2 0x31E5 DUP3 PUSH2 0x317E JUMP JUMPDEST PUSH1 0x40 DUP3 ADD SWAP1 POP SWAP2 SWAP1 POP JUMP JUMPDEST PUSH1 0x0 PUSH1 0x20 DUP3 ADD SWAP1 POP DUP2 DUP2 SUB PUSH1 0x0 DUP4 ADD MSTORE PUSH2 0x3209 DUP2 PUSH2 0x31CD JUMP JUMPDEST SWAP1 POP SWAP2 SWAP1 POP JUMP JUMPDEST PUSH32 0x537943726F774261727465723A20504153545F444541444C494E450000000000 PUSH1 0x0 DUP3 ADD MSTORE POP JUMP JUMPDEST PUSH1 0x0 PUSH2 0x3246 PUSH1 0x1B DUP4 PUSH2 0x2CD2 JUMP JUMPDEST SWAP2 POP PUSH2 0x3251 DUP3 PUSH2 0x3210 JUMP JUMPDEST PUSH1 0x20 DUP3 ADD SWAP1 POP SWAP2 SWAP1 POP JUMP JUMPDEST PUSH1 0x0 PUSH1 0x20 DUP3 ADD SWAP1 POP DUP2 DUP2 SUB PUSH1 0x0 DUP4 ADD MSTORE PUSH2 0x3275 DUP2 PUSH2 0x3239 JUMP JUMPDEST SWAP1 POP SWAP2 SWAP1 POP JUMP JUMPDEST PUSH32 0x537943726F774261727465723A20494E53554646494349454E545F4445504F53 PUSH1 0x0 DUP3 ADD MSTORE PUSH32 0x4954000000000000000000000000000000000000000000000000000000000000 PUSH1 0x20 DUP3 ADD MSTORE POP JUMP JUMPDEST PUSH1 0x0 PUSH2 0x32D8 PUSH1 0x22 DUP4 PUSH2 0x2CD2 JUMP JUMPDEST SWAP2 POP PUSH2 0x32E3 DUP3 PUSH2 0x327C JUMP JUMPDEST PUSH1 0x40 DUP3 ADD SWAP1 POP SWAP2 SWAP1 POP JUMP JUMPDEST PUSH1 0x0 PUSH1 0x20 DUP3 ADD SWAP1 POP DUP2 DUP2 SUB PUSH1 0x0 DUP4 ADD MSTORE PUSH2 0x3307 DUP2 PUSH2 0x32CB JUMP JUMPDEST SWAP1 POP SWAP2 SWAP1 POP JUMP JUMPDEST PUSH32 0x4E487B7100000000000000000000000000000000000000000000000000000000 PUSH1 0x0 MSTORE PUSH1 0x11 PUSH1 0x4 MSTORE PUSH1 0x24 PUSH1 0x0 REVERT JUMPDEST PUSH1 0x0 PUSH2 0x3348 DUP3 PUSH2 0x27A7 JUMP JUMPDEST SWAP2 POP PUSH2 0x3353 DUP4 PUSH2 0x27A7 JUMP JUMPDEST SWAP3 POP DUP2 PUSH32 0xFFFFFFFFFFFFFFFFFFFFFFFFFFFFFFFFFFFFFFFFFFFFFFFFFFFFFFFFFFFFFFFF DIV DUP4 GT DUP3 ISZERO ISZERO AND ISZERO PUSH2 0x338C JUMPI PUSH2 0x338B PUSH2 0x330E JUMP JUMPDEST JUMPDEST DUP3 DUP3 MUL SWAP1 POP SWAP3 SWAP2 POP POP JUMP JUMPDEST PUSH32 0x4E487B7100000000000000000000000000000000000000000000000000000000 PUSH1 0x0 MSTORE PUSH1 0x12 PUSH1 0x4 MSTORE PUSH1 0x24 PUSH1 0x0 REVERT JUMPDEST PUSH1 0x0 PUSH2 0x33D1 DUP3 PUSH2 0x27A7 JUMP JUMPDEST SWAP2 POP PUSH2 0x33DC DUP4 PUSH2 0x27A7 JUMP JUMPDEST SWAP3 POP DUP3 PUSH2 0x33EC JUMPI PUSH2 0x33EB PUSH2 0x3397 JUMP JUMPDEST JUMPDEST DUP3 DUP3 DIV SWAP1 POP SWAP3 SWAP2 POP POP JUMP JUMPDEST PUSH32 0x4E487B7100000000000000000000000000000000000000000000000000000000 PUSH1 0x0 MSTORE PUSH1 0x41 PUSH1 0x4 MSTORE PUSH1 0x24 PUSH1 0x0 REVERT JUMPDEST PUSH32 0x4E487B7100000000000000000000000000000000000000000000000000000000 PUSH1 0x0 MSTORE PUSH1 0x32 PUSH1 0x4 MSTORE PUSH1 0x24 PUSH1 0x0 REVERT JUMPDEST PUSH1 0x0 PUSH2 0x3460 DUP3 PUSH2 0x27A7 JUMP JUMPDEST SWAP2 POP PUSH32 0xFFFFFFFFFFFFFFFFFFFFFFFFFFFFFFFFFFFFFFFFFFFFFFFFFFFFFFFFFFFFFFFF DUP3 SUB PUSH2 0x3492 JUMPI PUSH2 0x3491 PUSH2 0x330E JUMP JUMPDEST JUMPDEST PUSH1 0x1 DUP3 ADD SWAP1 POP SWAP2 SWAP1 POP JUMP JUMPDEST PUSH32 0x4F776E61626C653A206E6577206F776E657220697320746865207A65726F2061 PUSH1 0x0 DUP3 ADD MSTORE PUSH32 0x6464726573730000000000000000000000000000000000000000000000000000 PUSH1 0x20 DUP3 ADD MSTORE POP JUMP JUMPDEST PUSH1 0x0 PUSH2 0x34F9 PUSH1 0x26 DUP4 PUSH2 0x2CD2 JUMP JUMPDEST SWAP2 POP PUSH2 0x3504 DUP3 PUSH2 0x349D JUMP JUMPDEST PUSH1 0x40 DUP3 ADD SWAP1 POP SWAP2 SWAP1 POP JUMP JUMPDEST PUSH1 0x0 PUSH1 0x20 DUP3 ADD SWAP1 POP DUP2 DUP2 SUB PUSH1 0x0 DUP4 ADD MSTORE PUSH2 0x3528 DUP2 PUSH2 0x34EC JUMP JUMPDEST SWAP1 POP SWAP2 SWAP1 POP JUMP JUMPDEST PUSH32 0x537943726F774261727465723A20494E53554646494349454E545F42414C414E PUSH1 0x0 DUP3 ADD MSTORE PUSH32 0x4345000000000000000000000000000000000000000000000000000000000000 PUSH1 0x20 DUP3 ADD MSTORE POP JUMP JUMPDEST PUSH1 0x0 PUSH2 0x358B PUSH1 0x22 DUP4 PUSH2 0x2CD2 JUMP JUMPDEST SWAP2 POP PUSH2 0x3596 DUP3 PUSH2 0x352F JUMP JUMPDEST PUSH1 0x40 DUP3 ADD SWAP1 POP SWAP2 SWAP1 POP JUMP JUMPDEST PUSH1 0x0 PUSH1 0x20 DUP3 ADD SWAP1 POP DUP2 DUP2 SUB PUSH1 0x0 DUP4 ADD MSTORE PUSH2 0x35BA DUP2 PUSH2 0x357E JUMP JUMPDEST SWAP1 POP SWAP2 SWAP1 POP JUMP JUMPDEST PUSH32 0x537943726F774261727465723A20494E53554646494349454E545F434F4E5452 PUSH1 0x0 DUP3 ADD MSTORE PUSH32 0x4143545F42414C414E4345000000000000000000000000000000000000000000 PUSH1 0x20 DUP3 ADD MSTORE POP JUMP JUMPDEST PUSH1 0x0 PUSH2 0x361D PUSH1 0x2B DUP4 PUSH2 0x2CD2 JUMP JUMPDEST SWAP2 POP PUSH2 0x3628 DUP3 PUSH2 0x35C1 JUMP JUMPDEST PUSH1 0x40 DUP3 ADD SWAP1 POP SWAP2 SWAP1 POP JUMP JUMPDEST PUSH1 0x0 PUSH1 0x20 DUP3 ADD SWAP1 POP DUP2 DUP2 SUB PUSH1 0x0 DUP4 ADD MSTORE PUSH2 0x364C DUP2 PUSH2 0x3610 JUMP JUMPDEST SWAP1 POP SWAP2 SWAP1 POP JUMP JUMPDEST PUSH1 0x0 DUP2 MLOAD SWAP1 POP SWAP2 SWAP1 POP JUMP JUMPDEST PUSH1 0x0 DUP2 SWAP1 POP SWAP3 SWAP2 POP POP JUMP JUMPDEST PUSH1 0x0 JUMPDEST DUP4 DUP2 LT ISZERO PUSH2 0x3687 JUMPI DUP1 DUP3 ADD MLOAD DUP2 DUP5 ADD MSTORE PUSH1 0x20 DUP2 ADD SWAP1 POP PUSH2 0x366C JUMP JUMPDEST DUP4 DUP2 GT ISZERO PUSH2 0x3696 JUMPI PUSH1 0x0 DUP5 DUP5 ADD MSTORE JUMPDEST POP POP POP POP JUMP JUMPDEST PUSH1 0x0 PUSH2 0x36A7 DUP3 PUSH2 0x3653 JUMP JUMPDEST PUSH2 0x36B1 DUP2 DUP6 PUSH2 0x365E JUMP JUMPDEST SWAP4 POP PUSH2 0x36C1 DUP2 DUP6 PUSH1 0x20 DUP7 ADD PUSH2 0x3669 JUMP JUMPDEST DUP1 DUP5 ADD SWAP2 POP POP SWAP3 SWAP2 POP POP JUMP JUMPDEST PUSH1 0x0 PUSH2 0x36D9 DUP3 DUP5 PUSH2 0x369C JUMP JUMPDEST SWAP2 POP DUP2 SWAP1 POP SWAP3 SWAP2 POP POP JUMP JUMPDEST PUSH32 0x5472616E7366657248656C7065723A204554485F5452414E534645525F464149 PUSH1 0x0 DUP3 ADD MSTORE PUSH32 0x4C45440000000000000000000000000000000000000000000000000000000000 PUSH1 0x20 DUP3 ADD MSTORE POP JUMP JUMPDEST PUSH1 0x0 PUSH2 0x3740 PUSH1 0x23 DUP4 PUSH2 0x2CD2 JUMP JUMPDEST SWAP2 POP PUSH2 0x374B DUP3 PUSH2 0x36E4 JUMP JUMPDEST PUSH1 0x40 DUP3 ADD SWAP1 POP SWAP2 SWAP1 POP JUMP JUMPDEST PUSH1 0x0 PUSH1 0x20 DUP3 ADD SWAP1 POP DUP2 DUP2 SUB PUSH1 0x0 DUP4 ADD MSTORE PUSH2 0x376F DUP2 PUSH2 0x3733 JUMP JUMPDEST SWAP1 POP SWAP2 SWAP1 POP JUMP JUMPDEST PUSH1 0x0 PUSH1 0x40 DUP3 ADD SWAP1 POP PUSH2 0x378B PUSH1 0x0 DUP4 ADD DUP6 PUSH2 0x2A8A JUMP JUMPDEST PUSH2 0x3798 PUSH1 0x20 DUP4 ADD DUP5 PUSH2 0x2840 JUMP JUMPDEST SWAP4 SWAP3 POP POP POP JUMP JUMPDEST PUSH32 0x5472616E7366657248656C7065723A205452414E534645525F4641494C454400 PUSH1 0x0 DUP3 ADD MSTORE POP JUMP JUMPDEST PUSH1 0x0 PUSH2 0x37D5 PUSH1 0x1F DUP4 PUSH2 0x2CD2 JUMP JUMPDEST SWAP2 POP PUSH2 0x37E0 DUP3 PUSH2 0x379F JUMP JUMPDEST PUSH1 0x20 DUP3 ADD SWAP1 POP SWAP2 SWAP1 POP JUMP JUMPDEST PUSH1 0x0 PUSH1 0x20 DUP3 ADD SWAP1 POP DUP2 DUP2 SUB PUSH1 0x0 DUP4 ADD MSTORE PUSH2 0x3804 DUP2 PUSH2 0x37C8 JUMP JUMPDEST SWAP1 POP SWAP2 SWAP1 POP JUMP JUMPDEST PUSH32 0x537943726F774261727465723A204D554C54495F54524144455F4E4F545F454E PUSH1 0x0 DUP3 ADD MSTORE PUSH32 0x41424C4544000000000000000000000000000000000000000000000000000000 PUSH1 0x20 DUP3 ADD MSTORE POP JUMP JUMPDEST PUSH1 0x0 PUSH2 0x3867 PUSH1 0x25 DUP4 PUSH2 0x2CD2 JUMP JUMPDEST SWAP2 POP PUSH2 0x3872 DUP3 PUSH2 0x380B JUMP JUMPDEST PUSH1 0x40 DUP3 ADD SWAP1 POP SWAP2 SWAP1 POP JUMP JUMPDEST PUSH1 0x0 PUSH1 0x20 DUP3 ADD SWAP1 POP DUP2 DUP2 SUB PUSH1 0x0 DUP4 ADD MSTORE PUSH2 0x3896 DUP2 PUSH2 0x385A JUMP JUMPDEST SWAP1 POP SWAP2 SWAP1 POP JUMP JUMPDEST PUSH1 0x0 PUSH1 0x60 DUP3 ADD SWAP1 POP PUSH2 0x38B2 PUSH1 0x0 DUP4 ADD DUP7 PUSH2 0x2A8A JUMP JUMPDEST PUSH2 0x38BF PUSH1 0x20 DUP4 ADD DUP6 PUSH2 0x2A8A JUMP JUMPDEST PUSH2 0x38CC PUSH1 0x40 DUP4 ADD DUP5 PUSH2 0x2840 JUMP JUMPDEST SWAP5 SWAP4 POP POP POP POP JUMP JUMPDEST PUSH32 0x5472616E7366657248656C7065723A205452414E534645525F46524F4D5F4641 PUSH1 0x0 DUP3 ADD MSTORE PUSH32 0x494C454400000000000000000000000000000000000000000000000000000000 PUSH1 0x20 DUP3 ADD MSTORE POP JUMP JUMPDEST PUSH1 0x0 PUSH2 0x3930 PUSH1 0x24 DUP4 PUSH2 0x2CD2 JUMP JUMPDEST SWAP2 POP PUSH2 0x393B DUP3 PUSH2 0x38D4 JUMP JUMPDEST PUSH1 0x40 DUP3 ADD SWAP1 POP SWAP2 SWAP1 POP JUMP JUMPDEST PUSH1 0x0 PUSH1 0x20 DUP3 ADD SWAP1 POP DUP2 DUP2 SUB PUSH1 0x0 DUP4 ADD MSTORE PUSH2 0x395F DUP2 PUSH2 0x3923 JUMP JUMPDEST SWAP1 POP SWAP2 SWAP1 POP JUMP INVALID LOG2 PUSH5 0x6970667358 0x22 SLT KECCAK256 0xC 0xEF SWAP13 0xFC 0xE8 DUP15 0xF 0xF7 0x26 0x2E RETURNDATACOPY 0xE3 PUSH30 0x82CF16961169C3309384E1F79BFFFAF3B32F2464736F6C634300080D0033 "
				},
				"gasEstimates": {
					"creation": {
						"codeDepositCost": "2949600",
						"executionCost": "infinite",
						"totalCost": "infinite"
					},
					"external": {
						"_initialized()": "2539",
						"barterType()": "2605",
						"factory()": "infinite",
						"getAmounts()": "infinite",
						"getTokens()": "infinite",
						"getTradeOutAmount(uint256)": "infinite",
						"getTrades()": "infinite",
						"initialize(uint8,address,address,uint256,uint256,uint256,bool,address)": "infinite",
						"owner()": "2589",
						"renounceOwnership()": "30397",
						"totalTradeAmount()": "2474",
						"tradeEthForToken(uint256)": "infinite",
						"tradeTokenForEth(uint256)": "infinite",
						"tradeTokenForToken(uint256)": "infinite",
						"transferOwnership(address)": "30808",
						"withdraw()": "infinite"
					},
					"internal": {
						"_tradeEthForToken(uint256)": "infinite",
						"_tradeTokenForEth(uint256)": "infinite",
						"_tradeTokenForToken(uint256)": "infinite"
					}
				},
				"methodIdentifiers": {
					"_initialized()": "3072cf60",
					"barterType()": "89523742",
					"factory()": "c45a0155",
					"getAmounts()": "3d370b4e",
					"getTokens()": "aa6ca808",
					"getTradeOutAmount(uint256)": "dab5a8df",
					"getTrades()": "e43372e9",
					"initialize(uint8,address,address,uint256,uint256,uint256,bool,address)": "5f5780e5",
					"owner()": "8da5cb5b",
					"renounceOwnership()": "715018a6",
					"totalTradeAmount()": "40a6f1ab",
					"tradeEthForToken(uint256)": "4341f920",
					"tradeTokenForEth(uint256)": "0d182605",
					"tradeTokenForToken(uint256)": "2ffc6887",
					"transferOwnership(address)": "f2fde38b",
					"withdraw()": "3ccfd60b"
				}
			},
			"storageLayout": {
				"storage": [
					{
						"astId": 7,
						"contract": "contracts/SyCrowBarter.sol:SyCrowBarter",
						"label": "_owner",
						"offset": 0,
						"slot": "0",
						"type": "t_address"
					},
					{
						"astId": 142,
						"contract": "contracts/SyCrowBarter.sol:SyCrowBarter",
						"label": "totalTradeAmount",
						"offset": 0,
						"slot": "1",
						"type": "t_uint256"
					},
					{
						"astId": 145,
						"contract": "contracts/SyCrowBarter.sol:SyCrowBarter",
						"label": "barterType",
						"offset": 0,
						"slot": "2",
						"type": "t_enum(ISyCrowBarterType)1137"
					},
					{
						"astId": 147,
						"contract": "contracts/SyCrowBarter.sol:SyCrowBarter",
						"label": "WETH",
						"offset": 1,
						"slot": "2",
						"type": "t_address"
					},
					{
						"astId": 149,
						"contract": "contracts/SyCrowBarter.sol:SyCrowBarter",
						"label": "_deadline",
						"offset": 0,
						"slot": "3",
						"type": "t_uint256"
					},
					{
						"astId": 152,
						"contract": "contracts/SyCrowBarter.sol:SyCrowBarter",
						"label": "_initialized",
						"offset": 0,
						"slot": "4",
						"type": "t_bool"
					},
					{
						"astId": 154,
						"contract": "contracts/SyCrowBarter.sol:SyCrowBarter",
						"label": "_depositedTokenAddress",
						"offset": 1,
						"slot": "4",
						"type": "t_address"
					},
					{
						"astId": 156,
						"contract": "contracts/SyCrowBarter.sol:SyCrowBarter",
						"label": "_expectedTokenAddress",
						"offset": 0,
						"slot": "5",
						"type": "t_address"
					},
					{
						"astId": 158,
						"contract": "contracts/SyCrowBarter.sol:SyCrowBarter",
						"label": "_depositedAmount",
						"offset": 0,
						"slot": "6",
						"type": "t_uint256"
					},
					{
						"astId": 160,
						"contract": "contracts/SyCrowBarter.sol:SyCrowBarter",
						"label": "_expectedAmount",
						"offset": 0,
						"slot": "7",
						"type": "t_uint256"
					},
					{
						"astId": 162,
						"contract": "contracts/SyCrowBarter.sol:SyCrowBarter",
						"label": "_allowMultiBarter",
						"offset": 0,
						"slot": "8",
						"type": "t_bool"
					},
					{
						"astId": 166,
						"contract": "contracts/SyCrowBarter.sol:SyCrowBarter",
						"label": "_trades",
						"offset": 0,
						"slot": "9",
						"type": "t_array(t_struct(BaterTrade)173_storage)dyn_storage"
					}
				],
				"types": {
					"t_address": {
						"encoding": "inplace",
						"label": "address",
						"numberOfBytes": "20"
					},
					"t_array(t_struct(BaterTrade)173_storage)dyn_storage": {
						"base": "t_struct(BaterTrade)173_storage",
						"encoding": "dynamic_array",
						"label": "struct SyCrowBarter.BaterTrade[]",
						"numberOfBytes": "32"
					},
					"t_bool": {
						"encoding": "inplace",
						"label": "bool",
						"numberOfBytes": "1"
					},
					"t_enum(ISyCrowBarterType)1137": {
						"encoding": "inplace",
						"label": "enum ISyCrowBarterType",
						"numberOfBytes": "1"
					},
					"t_struct(BaterTrade)173_storage": {
						"encoding": "inplace",
						"label": "struct SyCrowBarter.BaterTrade",
						"members": [
							{
								"astId": 168,
								"contract": "contracts/SyCrowBarter.sol:SyCrowBarter",
								"label": "_trader",
								"offset": 0,
								"slot": "0",
								"type": "t_address"
							},
							{
								"astId": 170,
								"contract": "contracts/SyCrowBarter.sol:SyCrowBarter",
								"label": "_amountIn",
								"offset": 0,
								"slot": "1",
								"type": "t_uint256"
							},
							{
								"astId": 172,
								"contract": "contracts/SyCrowBarter.sol:SyCrowBarter",
								"label": "_amountOut",
								"offset": 0,
								"slot": "2",
								"type": "t_uint256"
							}
						],
						"numberOfBytes": "96"
					},
					"t_uint256": {
						"encoding": "inplace",
						"label": "uint256",
						"numberOfBytes": "32"
					}
				}
			},
			"userdoc": {
				"kind": "user",
				"methods": {},
				"version": 1
			}
		}
	}
}