{
	"contracts/SycrowBarter.sol": {
		"SyCrowBarter": {
			"abi": [
				{
					"inputs": [],
					"stateMutability": "nonpayable",
					"type": "constructor"
				},
				{
					"anonymous": false,
					"inputs": [
						{
							"indexed": true,
							"internalType": "address",
							"name": "previousOwner",
							"type": "address"
						},
						{
							"indexed": true,
							"internalType": "address",
							"name": "newOwner",
							"type": "address"
						}
					],
					"name": "OwnershipTransferred",
					"type": "event"
				},
				{
					"inputs": [],
					"name": "_initialized",
					"outputs": [
						{
							"internalType": "bool",
							"name": "",
							"type": "bool"
						}
					],
					"stateMutability": "view",
					"type": "function"
				},
				{
					"inputs": [],
					"name": "barterType",
					"outputs": [
						{
							"internalType": "enum ISyCrowBarterType",
							"name": "",
							"type": "uint8"
						}
					],
					"stateMutability": "view",
					"type": "function"
				},
				{
					"inputs": [],
					"name": "deadline",
					"outputs": [
						{
							"internalType": "uint256",
							"name": "",
							"type": "uint256"
						}
					],
					"stateMutability": "view",
					"type": "function"
				},
				{
					"inputs": [],
					"name": "factory",
					"outputs": [
						{
							"internalType": "address",
							"name": "",
							"type": "address"
						}
					],
					"stateMutability": "view",
					"type": "function"
				},
				{
					"inputs": [],
					"name": "getAmounts",
					"outputs": [
						{
							"internalType": "uint256",
							"name": "",
							"type": "uint256"
						},
						{
							"internalType": "uint256",
							"name": "",
							"type": "uint256"
						}
					],
					"stateMutability": "view",
					"type": "function"
				},
				{
					"inputs": [],
					"name": "getTokens",
					"outputs": [
						{
							"internalType": "address",
							"name": "",
							"type": "address"
						},
						{
							"internalType": "address",
							"name": "",
							"type": "address"
						}
					],
					"stateMutability": "view",
					"type": "function"
				},
				{
					"inputs": [
						{
							"internalType": "uint256",
							"name": "amount",
							"type": "uint256"
						}
					],
					"name": "getTradeOutAmount",
					"outputs": [
						{
							"internalType": "uint256",
							"name": "",
							"type": "uint256"
						}
					],
					"stateMutability": "view",
					"type": "function"
				},
				{
					"inputs": [],
					"name": "getTrades",
					"outputs": [
						{
							"internalType": "address[]",
							"name": "",
							"type": "address[]"
						},
						{
							"internalType": "uint256[]",
							"name": "",
							"type": "uint256[]"
						},
						{
							"internalType": "uint256[]",
							"name": "",
							"type": "uint256[]"
						}
					],
					"stateMutability": "view",
					"type": "function"
				},
				{
					"inputs": [
						{
							"internalType": "enum ISyCrowBarterType",
							"name": "_barterType",
							"type": "uint8"
						},
						{
							"internalType": "address",
							"name": "inToken",
							"type": "address"
						},
						{
							"internalType": "address",
							"name": "outToken",
							"type": "address"
						},
						{
							"internalType": "uint256",
							"name": "amountDeposited",
							"type": "uint256"
						},
						{
							"internalType": "uint256",
							"name": "amountExpected",
							"type": "uint256"
						},
						{
							"internalType": "uint256",
							"name": "_deadline",
							"type": "uint256"
						},
						{
							"internalType": "bool",
							"name": "allowMultiBarter",
							"type": "bool"
						},
						{
							"internalType": "address",
							"name": "_WETH",
							"type": "address"
						}
					],
					"name": "initialize",
					"outputs": [
						{
							"internalType": "bool",
							"name": "",
							"type": "bool"
						}
					],
					"stateMutability": "nonpayable",
					"type": "function"
				},
				{
					"inputs": [],
					"name": "owner",
					"outputs": [
						{
							"internalType": "address",
							"name": "",
							"type": "address"
						}
					],
					"stateMutability": "view",
					"type": "function"
				},
				{
					"inputs": [],
					"name": "renounceOwnership",
					"outputs": [],
					"stateMutability": "nonpayable",
					"type": "function"
				},
				{
					"inputs": [],
					"name": "totalTradeAmount",
					"outputs": [
						{
							"internalType": "uint256",
							"name": "",
							"type": "uint256"
						}
					],
					"stateMutability": "view",
					"type": "function"
				},
				{
					"inputs": [
						{
							"internalType": "uint256",
							"name": "inAmount",
							"type": "uint256"
						}
					],
					"name": "tradeEthForToken",
					"outputs": [],
					"stateMutability": "payable",
					"type": "function"
				},
				{
					"inputs": [
						{
							"internalType": "uint256",
							"name": "inAmount",
							"type": "uint256"
						}
					],
					"name": "tradeTokenForEth",
					"outputs": [],
					"stateMutability": "nonpayable",
					"type": "function"
				},
				{
					"inputs": [
						{
							"internalType": "uint256",
							"name": "inAmount",
							"type": "uint256"
						}
					],
					"name": "tradeTokenForToken",
					"outputs": [],
					"stateMutability": "nonpayable",
					"type": "function"
				},
				{
					"inputs": [
						{
							"internalType": "address",
							"name": "newOwner",
							"type": "address"
						}
					],
					"name": "transferOwnership",
					"outputs": [],
					"stateMutability": "nonpayable",
					"type": "function"
				},
				{
					"inputs": [],
					"name": "withdraw",
					"outputs": [],
					"stateMutability": "nonpayable",
					"type": "function"
				}
			],
			"devdoc": {
				"kind": "dev",
				"methods": {
					"owner()": {
						"details": "Returns the address of the current owner."
					},
					"renounceOwnership()": {
						"details": "Leaves the contract without owner. It will not be possible to call `onlyOwner` functions anymore. Can only be called by the current owner. NOTE: Renouncing ownership will leave the contract without an owner, thereby removing any functionality that is only available to the owner."
					},
					"transferOwnership(address)": {
						"details": "Transfers ownership of the contract to a new account (`newOwner`). Can only be called by the current owner."
					}
				},
				"version": 1
			},
			"evm": {
				"assembly": "    /* \"contracts/SycrowBarter.sol\":269:9911  contract SyCrowBarter is ISyCrowBarter, Ownable {... */\n  mstore(0x40, 0xa0)\n    /* \"contracts/SycrowBarter.sol\":510:542  bool public _initialized = false */\n  0x03\n  dup1\n  sload\n  not(shl(0xa8, 0xff))\n  and\n  swap1\n  sstore\n    /* \"contracts/SycrowBarter.sol\":1754:1805  constructor() {... */\n  callvalue\n  dup1\n  iszero\n  tag_1\n  jumpi\n  0x00\n  dup1\n  revert\ntag_1:\n  pop\n    /* \"@openzeppelin/contracts/access/Ownable.sol\":921:953  _transferOwnership(_msgSender()) */\n  tag_5\n    /* \"@openzeppelin/contracts/utils/Context.sol\":719:729  msg.sender */\n  caller\n    /* \"@openzeppelin/contracts/access/Ownable.sol\":921:939  _transferOwnership */\n  tag_8\n    /* \"@openzeppelin/contracts/access/Ownable.sol\":921:953  _transferOwnership(_msgSender()) */\n  jump\t// in\ntag_5:\n    /* \"contracts/SycrowBarter.sol\":1788:1798  msg.sender */\n  caller\n    /* \"contracts/SycrowBarter.sol\":1778:1798  factory = msg.sender */\n  0x80\n  mstore\n    /* \"contracts/SycrowBarter.sol\":269:9911  contract SyCrowBarter is ISyCrowBarter, Ownable {... */\n  jump(tag_10)\n    /* \"@openzeppelin/contracts/access/Ownable.sol\":2270:2457  function _transferOwnership(address newOwner) internal virtual {... */\ntag_8:\n    /* \"@openzeppelin/contracts/access/Ownable.sol\":2343:2359  address oldOwner */\n  0x00\n    /* \"@openzeppelin/contracts/access/Ownable.sol\":2362:2368  _owner */\n  dup1\n  sload\n  sub(shl(0xa0, 0x01), 0x01)\n    /* \"@openzeppelin/contracts/access/Ownable.sol\":2378:2395  _owner = newOwner */\n  dup4\n  dup2\n  and\n  not(sub(shl(0xa0, 0x01), 0x01))\n  dup4\n  and\n  dup2\n  or\n  dup5\n  sstore\n    /* \"@openzeppelin/contracts/access/Ownable.sol\":2410:2450  OwnershipTransferred(oldOwner, newOwner) */\n  mload(0x40)\n    /* \"@openzeppelin/contracts/access/Ownable.sol\":2362:2368  _owner */\n  swap2\n  swap1\n  swap3\n  and\n  swap3\n  dup4\n  swap2\n    /* \"@openzeppelin/contracts/access/Ownable.sol\":2410:2450  OwnershipTransferred(oldOwner, newOwner) */\n  0x8be0079c531659141344cd1fd0a4f28419497f9722a3daafe3b4186f6b6457e0\n  swap2\n    /* \"@openzeppelin/contracts/access/Ownable.sol\":2343:2359  address oldOwner */\n  swap1\n    /* \"@openzeppelin/contracts/access/Ownable.sol\":2410:2450  OwnershipTransferred(oldOwner, newOwner) */\n  log3\n    /* \"@openzeppelin/contracts/access/Ownable.sol\":2333:2457  {... */\n  pop\n    /* \"@openzeppelin/contracts/access/Ownable.sol\":2270:2457  function _transferOwnership(address newOwner) internal virtual {... */\n  pop\n  jump\t// out\n    /* \"contracts/SycrowBarter.sol\":269:9911  contract SyCrowBarter is ISyCrowBarter, Ownable {... */\ntag_10:\n  mload(0x80)\n  codecopy(0x00, dataOffset(sub_0), dataSize(sub_0))\n  0x00\n  assignImmutable(\"0x26a975632f70533c9512e57b565b8ce8e2befee6b08dfbc27c4a897a20e2c1d6\")\n  return(0x00, dataSize(sub_0))\nstop\n\nsub_0: assembly {\n        /* \"contracts/SycrowBarter.sol\":269:9911  contract SyCrowBarter is ISyCrowBarter, Ownable {... */\n      mstore(0x40, 0x80)\n      jumpi(tag_1, lt(calldatasize, 0x04))\n      shr(0xe0, calldataload(0x00))\n      dup1\n      0x5f5780e5\n      gt\n      tag_19\n      jumpi\n      dup1\n      0xaa6ca808\n      gt\n      tag_20\n      jumpi\n      dup1\n      0xaa6ca808\n      eq\n      tag_14\n      jumpi\n      dup1\n      0xc45a0155\n      eq\n      tag_15\n      jumpi\n      dup1\n      0xdab5a8df\n      eq\n      tag_16\n      jumpi\n      dup1\n      0xe43372e9\n      eq\n      tag_17\n      jumpi\n      dup1\n      0xf2fde38b\n      eq\n      tag_18\n      jumpi\n      0x00\n      dup1\n      revert\n    tag_20:\n      dup1\n      0x5f5780e5\n      eq\n      tag_10\n      jumpi\n      dup1\n      0x715018a6\n      eq\n      tag_11\n      jumpi\n      dup1\n      0x89523742\n      eq\n      tag_12\n      jumpi\n      dup1\n      0x8da5cb5b\n      eq\n      tag_13\n      jumpi\n      0x00\n      dup1\n      revert\n    tag_19:\n      dup1\n      0x3ccfd60b\n      gt\n      tag_21\n      jumpi\n      dup1\n      0x3ccfd60b\n      eq\n      tag_6\n      jumpi\n      dup1\n      0x3d370b4e\n      eq\n      tag_7\n      jumpi\n      dup1\n      0x40a6f1ab\n      eq\n      tag_8\n      jumpi\n      dup1\n      0x4341f920\n      eq\n      tag_9\n      jumpi\n      0x00\n      dup1\n      revert\n    tag_21:\n      dup1\n      0x0d182605\n      eq\n      tag_2\n      jumpi\n      dup1\n      0x29dcb0cf\n      eq\n      tag_3\n      jumpi\n      dup1\n      0x2ffc6887\n      eq\n      tag_4\n      jumpi\n      dup1\n      0x3072cf60\n      eq\n      tag_5\n      jumpi\n    tag_1:\n      0x00\n      dup1\n      revert\n        /* \"contracts/SycrowBarter.sol\":4325:4706  function tradeTokenForEth(uint256 inAmount)... */\n    tag_2:\n      callvalue\n      dup1\n      iszero\n      tag_22\n      jumpi\n      0x00\n      dup1\n      revert\n    tag_22:\n      pop\n      tag_23\n      tag_24\n      calldatasize\n      0x04\n      tag_25\n      jump\t// in\n    tag_24:\n      tag_26\n      jump\t// in\n    tag_23:\n      stop\n        /* \"contracts/SycrowBarter.sol\":407:430  uint256 public deadline */\n    tag_3:\n      callvalue\n      dup1\n      iszero\n      tag_27\n      jumpi\n      0x00\n      dup1\n      revert\n    tag_27:\n      pop\n      tag_28\n      sload(0x02)\n      dup2\n      jump\n    tag_28:\n      mload(0x40)\n        /* \"#utility.yul\":345:370   */\n      swap1\n      dup2\n      mstore\n        /* \"#utility.yul\":333:335   */\n      0x20\n        /* \"#utility.yul\":318:336   */\n      add\n        /* \"contracts/SycrowBarter.sol\":407:430  uint256 public deadline */\n    tag_30:\n      mload(0x40)\n      dup1\n      swap2\n      sub\n      swap1\n      return\n        /* \"contracts/SycrowBarter.sol\":3933:4319  function tradeTokenForToken(uint256 inAmount)... */\n    tag_4:\n      callvalue\n      dup1\n      iszero\n      tag_32\n      jumpi\n      0x00\n      dup1\n      revert\n    tag_32:\n      pop\n      tag_23\n      tag_34\n      calldatasize\n      0x04\n      tag_25\n      jump\t// in\n    tag_34:\n      tag_35\n      jump\t// in\n        /* \"contracts/SycrowBarter.sol\":510:542  bool public _initialized = false */\n    tag_5:\n      callvalue\n      dup1\n      iszero\n      tag_36\n      jumpi\n      0x00\n      dup1\n      revert\n    tag_36:\n      pop\n      sload(0x03)\n      tag_37\n      swap1\n      shl(0xa8, 0x01)\n      swap1\n      div\n      0xff\n      and\n      dup2\n      jump\n    tag_37:\n      mload(0x40)\n        /* \"#utility.yul\":546:560   */\n      swap1\n      iszero\n        /* \"#utility.yul\":539:561   */\n      iszero\n        /* \"#utility.yul\":521:562   */\n      dup2\n      mstore\n        /* \"#utility.yul\":509:511   */\n      0x20\n        /* \"#utility.yul\":494:512   */\n      add\n        /* \"contracts/SycrowBarter.sol\":510:542  bool public _initialized = false */\n      tag_30\n        /* \"#utility.yul\":381:568   */\n      jump\n        /* \"contracts/SycrowBarter.sol\":8048:9733  function withdraw() external override checkInActive initialized onlyOwner {... */\n    tag_6:\n      callvalue\n      dup1\n      iszero\n      tag_41\n      jumpi\n      0x00\n      dup1\n      revert\n    tag_41:\n      pop\n      tag_23\n      tag_43\n      jump\t// in\n        /* \"contracts/SycrowBarter.sol\":2844:3031  function getAmounts()... */\n    tag_7:\n      callvalue\n      dup1\n      iszero\n      tag_44\n      jumpi\n      0x00\n      dup1\n      revert\n    tag_44:\n      pop\n      tag_45\n      tag_46\n      jump\t// in\n    tag_45:\n      0x40\n      dup1\n      mload\n        /* \"#utility.yul\":747:772   */\n      swap3\n      dup4\n      mstore\n        /* \"#utility.yul\":803:805   */\n      0x20\n        /* \"#utility.yul\":788:806   */\n      dup4\n      add\n        /* \"#utility.yul\":781:815   */\n      swap2\n      swap1\n      swap2\n      mstore\n        /* \"#utility.yul\":720:738   */\n      add\n        /* \"contracts/SycrowBarter.sol\":2844:3031  function getAmounts()... */\n      tag_30\n        /* \"#utility.yul\":573:821   */\n      jump\n        /* \"contracts/SycrowBarter.sol\":370:401  uint256 public totalTradeAmount */\n    tag_8:\n      callvalue\n      dup1\n      iszero\n      tag_49\n      jumpi\n      0x00\n      dup1\n      revert\n    tag_49:\n      pop\n      tag_28\n      sload(0x01)\n      dup2\n      jump\n        /* \"contracts/SycrowBarter.sol\":4712:5109  function tradeEthForToken(uint256 inAmount)... */\n    tag_9:\n      tag_23\n      tag_54\n      calldatasize\n      0x04\n      tag_25\n      jump\t// in\n    tag_54:\n      tag_55\n      jump\t// in\n        /* \"contracts/SycrowBarter.sol\":1811:2838  function initialize(... */\n    tag_10:\n      callvalue\n      dup1\n      iszero\n      tag_56\n      jumpi\n      0x00\n      dup1\n      revert\n    tag_56:\n      pop\n      tag_37\n      tag_58\n      calldatasize\n      0x04\n      tag_59\n      jump\t// in\n    tag_58:\n      tag_60\n      jump\t// in\n        /* \"@openzeppelin/contracts/access/Ownable.sol\":1668:1769  function renounceOwnership() public virtual onlyOwner {... */\n    tag_11:\n      callvalue\n      dup1\n      iszero\n      tag_62\n      jumpi\n      0x00\n      dup1\n      revert\n    tag_62:\n      pop\n      tag_23\n      tag_64\n      jump\t// in\n        /* \"contracts/SycrowBarter.sol\":437:472  ISyCrowBarterType public barterType */\n    tag_12:\n      callvalue\n      dup1\n      iszero\n      tag_65\n      jumpi\n      0x00\n      dup1\n      revert\n    tag_65:\n      pop\n      sload(0x03)\n      tag_66\n      swap1\n      0xff\n      and\n      dup2\n      jump\n    tag_66:\n      mload(0x40)\n      tag_30\n      swap2\n      swap1\n      tag_69\n      jump\t// in\n        /* \"@openzeppelin/contracts/access/Ownable.sol\":1036:1121  function owner() public view virtual returns (address) {... */\n    tag_13:\n      callvalue\n      dup1\n      iszero\n      tag_70\n      jumpi\n      0x00\n      dup1\n      revert\n    tag_70:\n      pop\n        /* \"@openzeppelin/contracts/access/Ownable.sol\":1082:1089  address */\n      0x00\n        /* \"@openzeppelin/contracts/access/Ownable.sol\":1108:1114  _owner */\n      sload\n      sub(shl(0xa0, 0x01), 0x01)\n      and\n        /* \"@openzeppelin/contracts/access/Ownable.sol\":1036:1121  function owner() public view virtual returns (address) {... */\n    tag_71:\n      mload(0x40)\n      sub(shl(0xa0, 0x01), 0x01)\n        /* \"#utility.yul\":2627:2659   */\n      swap1\n      swap2\n      and\n        /* \"#utility.yul\":2609:2660   */\n      dup2\n      mstore\n        /* \"#utility.yul\":2597:2599   */\n      0x20\n        /* \"#utility.yul\":2582:2600   */\n      add\n        /* \"@openzeppelin/contracts/access/Ownable.sol\":1036:1121  function owner() public view virtual returns (address) {... */\n      tag_30\n        /* \"#utility.yul\":2463:2666   */\n      jump\n        /* \"contracts/SycrowBarter.sol\":3037:3235  function getTokens()... */\n    tag_14:\n      callvalue\n      dup1\n      iszero\n      tag_75\n      jumpi\n      0x00\n      dup1\n      revert\n    tag_75:\n      pop\n      tag_76\n      tag_77\n      jump\t// in\n    tag_76:\n      0x40\n      dup1\n      mload\n      sub(shl(0xa0, 0x01), 0x01)\n        /* \"#utility.yul\":2901:2916   */\n      swap4\n      dup5\n      and\n        /* \"#utility.yul\":2883:2917   */\n      dup2\n      mstore\n        /* \"#utility.yul\":2953:2968   */\n      swap3\n      swap1\n      swap2\n      and\n        /* \"#utility.yul\":2948:2950   */\n      0x20\n        /* \"#utility.yul\":2933:2951   */\n      dup4\n      add\n        /* \"#utility.yul\":2926:2969   */\n      mstore\n        /* \"#utility.yul\":2818:2836   */\n      add\n        /* \"contracts/SycrowBarter.sol\":3037:3235  function getTokens()... */\n      tag_30\n        /* \"#utility.yul\":2671:2975   */\n      jump\n        /* \"contracts/SycrowBarter.sol\":323:364  address public immutable override factory */\n    tag_15:\n      callvalue\n      dup1\n      iszero\n      tag_80\n      jumpi\n      0x00\n      dup1\n      revert\n    tag_80:\n      pop\n      tag_71\n      immutable(\"0x26a975632f70533c9512e57b565b8ce8e2befee6b08dfbc27c4a897a20e2c1d6\")\n      dup2\n      jump\n        /* \"contracts/SycrowBarter.sol\":9739:9909  function getTradeOutAmount(uint256 amount)... */\n    tag_16:\n      callvalue\n      dup1\n      iszero\n      tag_84\n      jumpi\n      0x00\n      dup1\n      revert\n    tag_84:\n      pop\n      tag_28\n      tag_86\n      calldatasize\n      0x04\n      tag_25\n      jump\t// in\n    tag_86:\n      tag_87\n      jump\t// in\n        /* \"contracts/SycrowBarter.sol\":3241:3927  function getTrades()... */\n    tag_17:\n      callvalue\n      dup1\n      iszero\n      tag_89\n      jumpi\n      0x00\n      dup1\n      revert\n    tag_89:\n      pop\n      tag_90\n      tag_91\n      jump\t// in\n    tag_90:\n      mload(0x40)\n      tag_30\n      swap4\n      swap3\n      swap2\n      swap1\n      tag_93\n      jump\t// in\n        /* \"@openzeppelin/contracts/access/Ownable.sol\":1918:2116  function transferOwnership(address newOwner) public virtual onlyOwner {... */\n    tag_18:\n      callvalue\n      dup1\n      iszero\n      tag_94\n      jumpi\n      0x00\n      dup1\n      revert\n    tag_94:\n      pop\n      tag_23\n      tag_96\n      calldatasize\n      0x04\n      tag_97\n      jump\t// in\n    tag_96:\n      tag_98\n      jump\t// in\n        /* \"contracts/SycrowBarter.sol\":4325:4706  function tradeTokenForEth(uint256 inAmount)... */\n    tag_26:\n        /* \"contracts/SycrowBarter.sol\":963:978  block.timestamp */\n      timestamp\n        /* \"contracts/SycrowBarter.sol\":951:959  deadline */\n      sload(0x02)\n        /* \"contracts/SycrowBarter.sol\":951:978  deadline >= block.timestamp */\n      lt\n      iszero\n        /* \"contracts/SycrowBarter.sol\":951:1016  deadline >= block.timestamp && totalTradeAmount < _expectedAmount */\n      dup1\n      iszero\n      tag_100\n      jumpi\n      pop\n        /* \"contracts/SycrowBarter.sol\":1001:1016  _expectedAmount */\n      sload(0x07)\n        /* \"contracts/SycrowBarter.sol\":982:998  totalTradeAmount */\n      sload(0x01)\n        /* \"contracts/SycrowBarter.sol\":982:1016  totalTradeAmount < _expectedAmount */\n      lt\n        /* \"contracts/SycrowBarter.sol\":951:1016  deadline >= block.timestamp && totalTradeAmount < _expectedAmount */\n    tag_100:\n        /* \"contracts/SycrowBarter.sol\":930:1064  require(... */\n      tag_101\n      jumpi\n      mload(0x40)\n      shl(0xe5, 0x461bcd)\n      dup2\n      mstore\n      0x04\n      add\n      tag_102\n      swap1\n      tag_103\n      jump\t// in\n    tag_102:\n      mload(0x40)\n      dup1\n      swap2\n      sub\n      swap1\n      revert\n    tag_101:\n        /* \"contracts/SycrowBarter.sol\":1481:1493  _initialized */\n      sload(0x03)\n      shl(0xa8, 0x01)\n      swap1\n      div\n      0xff\n      and\n        /* \"contracts/SycrowBarter.sol\":1473:1527  require(_initialized, \"SyCrowBarter: NOT_INITIALIZED\") */\n      tag_105\n      jumpi\n      mload(0x40)\n      shl(0xe5, 0x461bcd)\n      dup2\n      mstore\n      0x04\n      add\n      tag_102\n      swap1\n      tag_107\n      jump\t// in\n    tag_105:\n        /* \"contracts/SycrowBarter.sol\":1584:1617  ISyCrowBarterFactory isycrFactory */\n      0x00\n        /* \"contracts/SycrowBarter.sol\":1641:1648  factory */\n      immutable(\"0x26a975632f70533c9512e57b565b8ce8e2befee6b08dfbc27c4a897a20e2c1d6\")\n        /* \"contracts/SycrowBarter.sol\":1584:1649  ISyCrowBarterFactory isycrFactory = ISyCrowBarterFactory(factory) */\n      swap1\n      pop\n        /* \"contracts/SycrowBarter.sol\":1668:1680  isycrFactory */\n      dup1\n      sub(shl(0xa0, 0x01), 0x01)\n        /* \"contracts/SycrowBarter.sol\":1668:1689  isycrFactory.isPaused */\n      and\n      0xb187bd26\n        /* \"contracts/SycrowBarter.sol\":1668:1691  isycrFactory.isPaused() */\n      mload(0x40)\n      dup2\n      0xffffffff\n      and\n      0xe0\n      shl\n      dup2\n      mstore\n      0x04\n      add\n      0x20\n      mload(0x40)\n      dup1\n      dup4\n      sub\n      dup2\n      dup7\n      gas\n      staticcall\n      iszero\n      dup1\n      iszero\n      tag_110\n      jumpi\n      returndatasize\n      0x00\n      dup1\n      returndatacopy\n      revert(0x00, returndatasize)\n    tag_110:\n      pop\n      pop\n      pop\n      pop\n      mload(0x40)\n      returndatasize\n      not(0x1f)\n      0x1f\n      dup3\n      add\n      and\n      dup3\n      add\n      dup1\n      0x40\n      mstore\n      pop\n      dup2\n      add\n      swap1\n      tag_111\n      swap2\n      swap1\n      tag_112\n      jump\t// in\n    tag_111:\n        /* \"contracts/SycrowBarter.sol\":1667:1691  !isycrFactory.isPaused() */\n      iszero\n        /* \"contracts/SycrowBarter.sol\":1659:1730  require(!isycrFactory.isPaused(), \"SyCrowBarter: Base Contract Paused\") */\n      tag_113\n      jumpi\n      mload(0x40)\n      shl(0xe5, 0x461bcd)\n      dup2\n      mstore\n      0x04\n      add\n      tag_102\n      swap1\n      tag_115\n      jump\t// in\n    tag_113:\n        /* \"contracts/SycrowBarter.sol\":1177:1187  barterType */\n      sload(0x03)\n        /* \"contracts/SycrowBarter.sol\":4487:4518  ISyCrowBarterType.ETH_FOR_TOKEN */\n      0x00\n      swap1\n        /* \"contracts/SycrowBarter.sol\":1177:1187  barterType */\n      0xff\n      and\n        /* \"contracts/SycrowBarter.sol\":1162:1187  _barterType == barterType */\n      0x02\n      dup2\n      gt\n      iszero\n      tag_118\n      jumpi\n      tag_118\n      tag_119\n      jump\t// in\n    tag_118:\n        /* \"contracts/SycrowBarter.sol\":1162:1173  _barterType */\n      dup2\n        /* \"contracts/SycrowBarter.sol\":1162:1187  _barterType == barterType */\n      0x02\n      dup2\n      gt\n      iszero\n      tag_121\n      jumpi\n      tag_121\n      tag_119\n      jump\t// in\n    tag_121:\n      eq\n        /* \"contracts/SycrowBarter.sol\":1154:1225  require(_barterType == barterType, \"SyCrowBarter: INVALID_BARTER_TYPE\") */\n      tag_122\n      jumpi\n      mload(0x40)\n      shl(0xe5, 0x461bcd)\n      dup2\n      mstore\n      0x04\n      add\n      tag_102\n      swap1\n      tag_124\n      jump\t// in\n    tag_122:\n        /* \"contracts/SycrowBarter.sol\":4539:4556  _allowMultiBarter */\n      and(0xff, sload(0x08))\n        /* \"contracts/SycrowBarter.sol\":4534:4663  if (!_allowMultiBarter){... */\n      tag_127\n      jumpi\n        /* \"contracts/SycrowBarter.sol\":4591:4606  _expectedAmount */\n      sload(0x07)\n        /* \"contracts/SycrowBarter.sol\":4579:4587  inAmount */\n      dup4\n        /* \"contracts/SycrowBarter.sol\":4579:4606  inAmount >= _expectedAmount */\n      lt\n      iszero\n        /* \"contracts/SycrowBarter.sol\":4571:4652  require(inAmount >= _expectedAmount, \"SyCrowBarter: AMOUNT_LOWER_THAN_REQURIRED\") */\n      tag_127\n      jumpi\n      mload(0x40)\n      shl(0xe5, 0x461bcd)\n      dup2\n      mstore\n      0x04\n      add\n      tag_102\n      swap1\n      tag_129\n      jump\t// in\n    tag_127:\n        /* \"contracts/SycrowBarter.sol\":4672:4699  _tradeTokenForEth(inAmount) */\n      tag_130\n        /* \"contracts/SycrowBarter.sol\":4690:4698  inAmount */\n      dup4\n        /* \"contracts/SycrowBarter.sol\":4672:4689  _tradeTokenForEth */\n      tag_131\n        /* \"contracts/SycrowBarter.sol\":4672:4699  _tradeTokenForEth(inAmount) */\n      jump\t// in\n    tag_130:\n        /* \"contracts/SycrowBarter.sol\":1740:1741  _ */\n      pop\n        /* \"contracts/SycrowBarter.sol\":1574:1748  {... */\n      pop\n        /* \"contracts/SycrowBarter.sol\":4325:4706  function tradeTokenForEth(uint256 inAmount)... */\n      pop\n      jump\t// out\n        /* \"contracts/SycrowBarter.sol\":3933:4319  function tradeTokenForToken(uint256 inAmount)... */\n    tag_35:\n        /* \"contracts/SycrowBarter.sol\":963:978  block.timestamp */\n      timestamp\n        /* \"contracts/SycrowBarter.sol\":951:959  deadline */\n      sload(0x02)\n        /* \"contracts/SycrowBarter.sol\":951:978  deadline >= block.timestamp */\n      lt\n      iszero\n        /* \"contracts/SycrowBarter.sol\":951:1016  deadline >= block.timestamp && totalTradeAmount < _expectedAmount */\n      dup1\n      iszero\n      tag_133\n      jumpi\n      pop\n        /* \"contracts/SycrowBarter.sol\":1001:1016  _expectedAmount */\n      sload(0x07)\n        /* \"contracts/SycrowBarter.sol\":982:998  totalTradeAmount */\n      sload(0x01)\n        /* \"contracts/SycrowBarter.sol\":982:1016  totalTradeAmount < _expectedAmount */\n      lt\n        /* \"contracts/SycrowBarter.sol\":951:1016  deadline >= block.timestamp && totalTradeAmount < _expectedAmount */\n    tag_133:\n        /* \"contracts/SycrowBarter.sol\":930:1064  require(... */\n      tag_134\n      jumpi\n      mload(0x40)\n      shl(0xe5, 0x461bcd)\n      dup2\n      mstore\n      0x04\n      add\n      tag_102\n      swap1\n      tag_103\n      jump\t// in\n    tag_134:\n        /* \"contracts/SycrowBarter.sol\":1481:1493  _initialized */\n      sload(0x03)\n      shl(0xa8, 0x01)\n      swap1\n      div\n      0xff\n      and\n        /* \"contracts/SycrowBarter.sol\":1473:1527  require(_initialized, \"SyCrowBarter: NOT_INITIALIZED\") */\n      tag_137\n      jumpi\n      mload(0x40)\n      shl(0xe5, 0x461bcd)\n      dup2\n      mstore\n      0x04\n      add\n      tag_102\n      swap1\n      tag_107\n      jump\t// in\n    tag_137:\n        /* \"contracts/SycrowBarter.sol\":1584:1617  ISyCrowBarterFactory isycrFactory */\n      0x00\n        /* \"contracts/SycrowBarter.sol\":1641:1648  factory */\n      immutable(\"0x26a975632f70533c9512e57b565b8ce8e2befee6b08dfbc27c4a897a20e2c1d6\")\n        /* \"contracts/SycrowBarter.sol\":1584:1649  ISyCrowBarterFactory isycrFactory = ISyCrowBarterFactory(factory) */\n      swap1\n      pop\n        /* \"contracts/SycrowBarter.sol\":1668:1680  isycrFactory */\n      dup1\n      sub(shl(0xa0, 0x01), 0x01)\n        /* \"contracts/SycrowBarter.sol\":1668:1689  isycrFactory.isPaused */\n      and\n      0xb187bd26\n        /* \"contracts/SycrowBarter.sol\":1668:1691  isycrFactory.isPaused() */\n      mload(0x40)\n      dup2\n      0xffffffff\n      and\n      0xe0\n      shl\n      dup2\n      mstore\n      0x04\n      add\n      0x20\n      mload(0x40)\n      dup1\n      dup4\n      sub\n      dup2\n      dup7\n      gas\n      staticcall\n      iszero\n      dup1\n      iszero\n      tag_141\n      jumpi\n      returndatasize\n      0x00\n      dup1\n      returndatacopy\n      revert(0x00, returndatasize)\n    tag_141:\n      pop\n      pop\n      pop\n      pop\n      mload(0x40)\n      returndatasize\n      not(0x1f)\n      0x1f\n      dup3\n      add\n      and\n      dup3\n      add\n      dup1\n      0x40\n      mstore\n      pop\n      dup2\n      add\n      swap1\n      tag_142\n      swap2\n      swap1\n      tag_112\n      jump\t// in\n    tag_142:\n        /* \"contracts/SycrowBarter.sol\":1667:1691  !isycrFactory.isPaused() */\n      iszero\n        /* \"contracts/SycrowBarter.sol\":1659:1730  require(!isycrFactory.isPaused(), \"SyCrowBarter: Base Contract Paused\") */\n      tag_143\n      jumpi\n      mload(0x40)\n      shl(0xe5, 0x461bcd)\n      dup2\n      mstore\n      0x04\n      add\n      tag_102\n      swap1\n      tag_115\n      jump\t// in\n    tag_143:\n        /* \"contracts/SycrowBarter.sol\":1177:1187  barterType */\n      sload(0x03)\n        /* \"contracts/SycrowBarter.sol\":4097:4130  ISyCrowBarterType.TOKEN_FOR_TOKEN */\n      0x02\n      swap1\n        /* \"contracts/SycrowBarter.sol\":1177:1187  barterType */\n      0xff\n      and\n        /* \"contracts/SycrowBarter.sol\":1162:1187  _barterType == barterType */\n      dup2\n      dup2\n      gt\n      iszero\n      tag_147\n      jumpi\n      tag_147\n      tag_119\n      jump\t// in\n    tag_147:\n        /* \"contracts/SycrowBarter.sol\":1162:1173  _barterType */\n      dup2\n        /* \"contracts/SycrowBarter.sol\":1162:1187  _barterType == barterType */\n      0x02\n      dup2\n      gt\n      iszero\n      tag_149\n      jumpi\n      tag_149\n      tag_119\n      jump\t// in\n    tag_149:\n      eq\n        /* \"contracts/SycrowBarter.sol\":1154:1225  require(_barterType == barterType, \"SyCrowBarter: INVALID_BARTER_TYPE\") */\n      tag_150\n      jumpi\n      mload(0x40)\n      shl(0xe5, 0x461bcd)\n      dup2\n      mstore\n      0x04\n      add\n      tag_102\n      swap1\n      tag_124\n      jump\t// in\n    tag_150:\n        /* \"contracts/SycrowBarter.sol\":4150:4167  _allowMultiBarter */\n      and(0xff, sload(0x08))\n        /* \"contracts/SycrowBarter.sol\":4146:4274  if(!_allowMultiBarter){... */\n      tag_154\n      jumpi\n        /* \"contracts/SycrowBarter.sol\":4202:4217  _expectedAmount */\n      sload(0x07)\n        /* \"contracts/SycrowBarter.sol\":4190:4198  inAmount */\n      dup4\n        /* \"contracts/SycrowBarter.sol\":4190:4217  inAmount >= _expectedAmount */\n      lt\n      iszero\n        /* \"contracts/SycrowBarter.sol\":4182:4263  require(inAmount >= _expectedAmount, \"SyCrowBarter: AMOUNT_LOWER_THAN_REQURIRED\") */\n      tag_154\n      jumpi\n      mload(0x40)\n      shl(0xe5, 0x461bcd)\n      dup2\n      mstore\n      0x04\n      add\n      tag_102\n      swap1\n      tag_129\n      jump\t// in\n    tag_154:\n        /* \"contracts/SycrowBarter.sol\":4283:4312  _tradeTokenForToken(inAmount) */\n      tag_130\n        /* \"contracts/SycrowBarter.sol\":4303:4311  inAmount */\n      dup4\n        /* \"contracts/SycrowBarter.sol\":4283:4302  _tradeTokenForToken */\n      tag_157\n        /* \"contracts/SycrowBarter.sol\":4283:4312  _tradeTokenForToken(inAmount) */\n      jump\t// in\n        /* \"contracts/SycrowBarter.sol\":8048:9733  function withdraw() external override checkInActive initialized onlyOwner {... */\n    tag_43:\n        /* \"contracts/SycrowBarter.sol\":1316:1331  block.timestamp */\n      timestamp\n        /* \"contracts/SycrowBarter.sol\":1305:1313  deadline */\n      sload(0x02)\n        /* \"contracts/SycrowBarter.sol\":1305:1331  deadline < block.timestamp */\n      lt\n        /* \"contracts/SycrowBarter.sol\":1305:1370  deadline < block.timestamp || totalTradeAmount >= _expectedAmount */\n      dup1\n      tag_159\n      jumpi\n      pop\n        /* \"contracts/SycrowBarter.sol\":1355:1370  _expectedAmount */\n      sload(0x07)\n        /* \"contracts/SycrowBarter.sol\":1335:1351  totalTradeAmount */\n      sload(0x01)\n        /* \"contracts/SycrowBarter.sol\":1335:1370  totalTradeAmount >= _expectedAmount */\n      lt\n      iszero\n        /* \"contracts/SycrowBarter.sol\":1305:1370  deadline < block.timestamp || totalTradeAmount >= _expectedAmount */\n    tag_159:\n        /* \"contracts/SycrowBarter.sol\":1284:1416  require(... */\n      tag_160\n      jumpi\n      mload(0x40)\n      shl(0xe5, 0x461bcd)\n      dup2\n      mstore\n        /* \"#utility.yul\":7029:7031   */\n      0x20\n        /* \"contracts/SycrowBarter.sol\":1284:1416  require(... */\n      0x04\n      dup3\n      add\n        /* \"#utility.yul\":7011:7032   */\n      mstore\n        /* \"#utility.yul\":7068:7070   */\n      0x14\n        /* \"#utility.yul\":7048:7066   */\n      0x24\n      dup3\n      add\n        /* \"#utility.yul\":7041:7071   */\n      mstore\n      shl(0x60, 0x537943726f774261727465723a20414354495645)\n        /* \"#utility.yul\":7087:7105   */\n      0x44\n      dup3\n      add\n        /* \"#utility.yul\":7080:7130   */\n      mstore\n        /* \"#utility.yul\":7147:7165   */\n      0x64\n      add\n        /* \"contracts/SycrowBarter.sol\":1284:1416  require(... */\n      tag_102\n        /* \"#utility.yul\":6827:7171   */\n      jump\n        /* \"contracts/SycrowBarter.sol\":1284:1416  require(... */\n    tag_160:\n        /* \"contracts/SycrowBarter.sol\":1481:1493  _initialized */\n      sload(0x03)\n      shl(0xa8, 0x01)\n      swap1\n      div\n      0xff\n      and\n        /* \"contracts/SycrowBarter.sol\":1473:1527  require(_initialized, \"SyCrowBarter: NOT_INITIALIZED\") */\n      tag_164\n      jumpi\n      mload(0x40)\n      shl(0xe5, 0x461bcd)\n      dup2\n      mstore\n      0x04\n      add\n      tag_102\n      swap1\n      tag_107\n      jump\t// in\n    tag_164:\n        /* \"@openzeppelin/contracts/access/Ownable.sol\":1082:1089  address */\n      0x00\n        /* \"@openzeppelin/contracts/access/Ownable.sol\":1108:1114  _owner */\n      sload\n      sub(shl(0xa0, 0x01), 0x01)\n      and\n        /* \"@openzeppelin/contracts/utils/Context.sol\":719:729  msg.sender */\n      caller\n        /* \"@openzeppelin/contracts/access/Ownable.sol\":1248:1271  owner() == _msgSender() */\n      eq\n        /* \"@openzeppelin/contracts/access/Ownable.sol\":1240:1308  require(owner() == _msgSender(), \"Ownable: caller is not the owner\") */\n      tag_170\n      jumpi\n      mload(0x40)\n      shl(0xe5, 0x461bcd)\n      dup2\n      mstore\n      0x04\n      add\n      tag_102\n      swap1\n      tag_172\n      jump\t// in\n    tag_170:\n        /* \"contracts/SycrowBarter.sol\":8159:8163  WETH */\n      sload(0x03)\n        /* \"contracts/SycrowBarter.sol\":8196:8231  _wethErc20.balanceOf(address(this)) */\n      mload(0x40)\n      shl(0xe0, 0x70a08231)\n      dup2\n      mstore\n        /* \"contracts/SycrowBarter.sol\":8225:8229  this */\n      address\n        /* \"contracts/SycrowBarter.sol\":8196:8231  _wethErc20.balanceOf(address(this)) */\n      0x04\n      dup3\n      add\n        /* \"#utility.yul\":2609:2660   */\n      mstore\n        /* \"contracts/SycrowBarter.sol\":8159:8163  WETH */\n      0x0100\n      swap1\n      swap2\n      div\n      sub(shl(0xa0, 0x01), 0x01)\n      and\n      swap1\n        /* \"contracts/SycrowBarter.sol\":8132:8149  IERC20 _wethErc20 */\n      0x00\n      swap1\n        /* \"contracts/SycrowBarter.sol\":8159:8163  WETH */\n      dup3\n      swap1\n        /* \"contracts/SycrowBarter.sol\":8196:8216  _wethErc20.balanceOf */\n      0x70a08231\n      swap1\n        /* \"#utility.yul\":2582:2600   */\n      0x24\n      add\n        /* \"contracts/SycrowBarter.sol\":8196:8231  _wethErc20.balanceOf(address(this)) */\n      0x20\n      mload(0x40)\n      dup1\n      dup4\n      sub\n      dup2\n      dup7\n      gas\n      staticcall\n      iszero\n      dup1\n      iszero\n      tag_176\n      jumpi\n      returndatasize\n      0x00\n      dup1\n      returndatacopy\n      revert(0x00, returndatasize)\n    tag_176:\n      pop\n      pop\n      pop\n      pop\n      mload(0x40)\n      returndatasize\n      not(0x1f)\n      0x1f\n      dup3\n      add\n      and\n      dup3\n      add\n      dup1\n      0x40\n      mstore\n      pop\n      dup2\n      add\n      swap1\n      tag_177\n      swap2\n      swap1\n      tag_178\n      jump\t// in\n    tag_177:\n        /* \"contracts/SycrowBarter.sol\":8175:8231  uint256 ethBalance = _wethErc20.balanceOf(address(this)) */\n      swap1\n      pop\n        /* \"contracts/SycrowBarter.sol\":8246:8260  ethBalance > 0 */\n      dup1\n      iszero\n        /* \"contracts/SycrowBarter.sol\":8242:8387  if (ethBalance > 0) {... */\n      tag_184\n      jumpi\n        /* \"contracts/SycrowBarter.sol\":8282:8286  WETH */\n      sload(0x03)\n        /* \"contracts/SycrowBarter.sol\":8276:8308  IWETH(WETH).withdraw(ethBalance) */\n      mload(0x40)\n      shl(0xe0, 0x2e1a7d4d)\n      dup2\n      mstore\n      0x04\n      dup2\n      add\n        /* \"#utility.yul\":345:370   */\n      dup4\n      swap1\n      mstore\n        /* \"contracts/SycrowBarter.sol\":8282:8286  WETH */\n      0x0100\n      swap1\n      swap2\n      div\n      sub(shl(0xa0, 0x01), 0x01)\n      and\n      swap1\n        /* \"contracts/SycrowBarter.sol\":8276:8296  IWETH(WETH).withdraw */\n      0x2e1a7d4d\n      swap1\n        /* \"#utility.yul\":318:336   */\n      0x24\n      add\n        /* \"contracts/SycrowBarter.sol\":8276:8308  IWETH(WETH).withdraw(ethBalance) */\n      0x00\n      mload(0x40)\n      dup1\n      dup4\n      sub\n      dup2\n      0x00\n      dup8\n      dup1\n      extcodesize\n      iszero\n      dup1\n      iszero\n      tag_181\n      jumpi\n      0x00\n      dup1\n      revert\n    tag_181:\n      pop\n      gas\n      call\n      iszero\n      dup1\n      iszero\n      tag_183\n      jumpi\n      returndatasize\n      0x00\n      dup1\n      returndatacopy\n      revert(0x00, returndatasize)\n    tag_183:\n      pop\n      pop\n      pop\n      pop\n        /* \"contracts/SycrowBarter.sol\":8322:8376  TransferHelper.safeTransferETH(msg.sender, ethBalance) */\n      tag_184\n        /* \"contracts/SycrowBarter.sol\":8353:8363  msg.sender */\n      caller\n        /* \"contracts/SycrowBarter.sol\":8365:8375  ethBalance */\n      dup3\n        /* \"contracts/SycrowBarter.sol\":8322:8352  TransferHelper.safeTransferETH */\n      tag_185\n        /* \"contracts/SycrowBarter.sol\":8322:8376  TransferHelper.safeTransferETH(msg.sender, ethBalance) */\n      jump\t// in\n    tag_184:\n        /* \"contracts/SycrowBarter.sol\":8435:8456  _expectedTokenAddress */\n      sload(0x05)\n        /* \"contracts/SycrowBarter.sol\":8428:8504  IERC20(_expectedTokenAddress).balanceOf(... */\n      mload(0x40)\n      shl(0xe0, 0x70a08231)\n      dup2\n      mstore\n        /* \"contracts/SycrowBarter.sol\":8489:8493  this */\n      address\n        /* \"contracts/SycrowBarter.sol\":8428:8504  IERC20(_expectedTokenAddress).balanceOf(... */\n      0x04\n      dup3\n      add\n        /* \"#utility.yul\":2609:2660   */\n      mstore\n        /* \"contracts/SycrowBarter.sol\":8397:8425  uint256 expectedTokenBalance */\n      0x00\n      swap2\n      sub(shl(0xa0, 0x01), 0x01)\n        /* \"contracts/SycrowBarter.sol\":8435:8456  _expectedTokenAddress */\n      and\n      swap1\n        /* \"contracts/SycrowBarter.sol\":8428:8467  IERC20(_expectedTokenAddress).balanceOf */\n      0x70a08231\n      swap1\n        /* \"#utility.yul\":2582:2600   */\n      0x24\n      add\n        /* \"contracts/SycrowBarter.sol\":8428:8504  IERC20(_expectedTokenAddress).balanceOf(... */\n      0x20\n      mload(0x40)\n      dup1\n      dup4\n      sub\n      dup2\n      dup7\n      gas\n      staticcall\n      iszero\n      dup1\n      iszero\n      tag_188\n      jumpi\n      returndatasize\n      0x00\n      dup1\n      returndatacopy\n      revert(0x00, returndatasize)\n    tag_188:\n      pop\n      pop\n      pop\n      pop\n      mload(0x40)\n      returndatasize\n      not(0x1f)\n      0x1f\n      dup3\n      add\n      and\n      dup3\n      add\n      dup1\n      0x40\n      mstore\n      pop\n      dup2\n      add\n      swap1\n      tag_189\n      swap2\n      swap1\n      tag_178\n      jump\t// in\n    tag_189:\n        /* \"contracts/SycrowBarter.sol\":8397:8504  uint256 expectedTokenBalance = IERC20(_expectedTokenAddress).balanceOf(... */\n      swap1\n      pop\n        /* \"contracts/SycrowBarter.sol\":8519:8543  expectedTokenBalance > 0 */\n      dup1\n      iszero\n        /* \"contracts/SycrowBarter.sol\":8515:8716  if (expectedTokenBalance > 0) {... */\n      tag_191\n      jumpi\n        /* \"contracts/SycrowBarter.sol\":8604:8625  _expectedTokenAddress */\n      sload(0x05)\n        /* \"contracts/SycrowBarter.sol\":8559:8705  TransferHelper.safeTransfer(... */\n      tag_191\n      swap1\n      sub(shl(0xa0, 0x01), 0x01)\n        /* \"contracts/SycrowBarter.sol\":8604:8625  _expectedTokenAddress */\n      and\n        /* \"contracts/SycrowBarter.sol\":8643:8653  msg.sender */\n      caller\n        /* \"contracts/SycrowBarter.sol\":8671:8691  expectedTokenBalance */\n      dup4\n        /* \"contracts/SycrowBarter.sol\":8559:8586  TransferHelper.safeTransfer */\n      tag_192\n        /* \"contracts/SycrowBarter.sol\":8559:8705  TransferHelper.safeTransfer(... */\n      jump\t// in\n    tag_191:\n        /* \"contracts/SycrowBarter.sol\":8765:8787  _depositedTokenAddress */\n      0x04\n      dup1\n      sload\n        /* \"contracts/SycrowBarter.sol\":8758:8826  IERC20(_depositedTokenAddress)... */\n      mload(0x40)\n      shl(0xe0, 0x70a08231)\n      dup2\n      mstore\n        /* \"contracts/SycrowBarter.sol\":8820:8824  this */\n      address\n        /* \"contracts/SycrowBarter.sol\":8758:8826  IERC20(_depositedTokenAddress)... */\n      swap3\n      dup2\n      add\n        /* \"#utility.yul\":2609:2660   */\n      swap3\n      swap1\n      swap3\n      mstore\n        /* \"contracts/SycrowBarter.sol\":8726:8755  uint256 depositedTokenBalance */\n      0x00\n      swap2\n      sub(shl(0xa0, 0x01), 0x01)\n        /* \"contracts/SycrowBarter.sol\":8765:8787  _depositedTokenAddress */\n      swap1\n      swap2\n      and\n      swap1\n        /* \"contracts/SycrowBarter.sol\":8758:8811  IERC20(_depositedTokenAddress)... */\n      0x70a08231\n      swap1\n        /* \"#utility.yul\":2582:2600   */\n      0x24\n      add\n        /* \"contracts/SycrowBarter.sol\":8758:8826  IERC20(_depositedTokenAddress)... */\n      0x20\n      mload(0x40)\n      dup1\n      dup4\n      sub\n      dup2\n      dup7\n      gas\n      staticcall\n      iszero\n      dup1\n      iszero\n      tag_195\n      jumpi\n      returndatasize\n      0x00\n      dup1\n      returndatacopy\n      revert(0x00, returndatasize)\n    tag_195:\n      pop\n      pop\n      pop\n      pop\n      mload(0x40)\n      returndatasize\n      not(0x1f)\n      0x1f\n      dup3\n      add\n      and\n      dup3\n      add\n      dup1\n      0x40\n      mstore\n      pop\n      dup2\n      add\n      swap1\n      tag_196\n      swap2\n      swap1\n      tag_178\n      jump\t// in\n    tag_196:\n        /* \"contracts/SycrowBarter.sol\":8726:8826  uint256 depositedTokenBalance = IERC20(_depositedTokenAddress)... */\n      swap1\n      pop\n        /* \"contracts/SycrowBarter.sol\":8841:8866  depositedTokenBalance > 0 */\n      dup1\n      iszero\n        /* \"contracts/SycrowBarter.sol\":8837:9041  if (depositedTokenBalance > 0) {... */\n      tag_198\n      jumpi\n        /* \"contracts/SycrowBarter.sol\":8927:8949  _depositedTokenAddress */\n      sload(0x04)\n        /* \"contracts/SycrowBarter.sol\":8882:9030  TransferHelper.safeTransfer(... */\n      tag_198\n      swap1\n      sub(shl(0xa0, 0x01), 0x01)\n        /* \"contracts/SycrowBarter.sol\":8927:8949  _depositedTokenAddress */\n      and\n        /* \"contracts/SycrowBarter.sol\":8967:8977  msg.sender */\n      caller\n        /* \"contracts/SycrowBarter.sol\":8995:9016  depositedTokenBalance */\n      dup4\n        /* \"contracts/SycrowBarter.sol\":8882:8909  TransferHelper.safeTransfer */\n      tag_192\n        /* \"contracts/SycrowBarter.sol\":8882:9030  TransferHelper.safeTransfer(... */\n      jump\t// in\n    tag_198:\n        /* \"contracts/SycrowBarter.sol\":9050:9064  uint256 value1 */\n      0x00\n      dup1\n      dup1\n        /* \"contracts/SycrowBarter.sol\":9111:9121  barterType */\n      and(0xff, sload(0x03))\n        /* \"contracts/SycrowBarter.sol\":9111:9156  barterType == ISyCrowBarterType.ETH_FOR_TOKEN */\n      0x02\n      dup2\n      gt\n      iszero\n      tag_202\n      jumpi\n      tag_202\n      tag_119\n      jump\t// in\n    tag_202:\n      sub\n        /* \"contracts/SycrowBarter.sol\":9107:9496  if (barterType == ISyCrowBarterType.ETH_FOR_TOKEN) {... */\n      tag_203\n      jumpi\n      pop\n        /* \"contracts/SycrowBarter.sol\":9181:9191  ethBalance */\n      dup4\n      swap1\n      pop\n        /* \"contracts/SycrowBarter.sol\":9214:9234  expectedTokenBalance */\n      dup3\n        /* \"contracts/SycrowBarter.sol\":9107:9496  if (barterType == ISyCrowBarterType.ETH_FOR_TOKEN) {... */\n      jump(tag_210)\n    tag_203:\n        /* \"contracts/SycrowBarter.sol\":9269:9302  ISyCrowBarterType.TOKEN_FOR_TOKEN */\n      0x02\n        /* \"contracts/SycrowBarter.sol\":9255:9265  barterType */\n      and(0xff, sload(0x03))\n        /* \"contracts/SycrowBarter.sol\":9255:9302  barterType == ISyCrowBarterType.TOKEN_FOR_TOKEN */\n      0x02\n      dup2\n      gt\n      iszero\n      tag_208\n      jumpi\n      tag_208\n      tag_119\n      jump\t// in\n    tag_208:\n      sub\n        /* \"contracts/SycrowBarter.sol\":9251:9496  if (barterType == ISyCrowBarterType.TOKEN_FOR_TOKEN) {... */\n      tag_209\n      jumpi\n      pop\n        /* \"contracts/SycrowBarter.sol\":9327:9348  depositedTokenBalance */\n      dup2\n      swap1\n      pop\n        /* \"contracts/SycrowBarter.sol\":9371:9391  expectedTokenBalance */\n      dup3\n        /* \"contracts/SycrowBarter.sol\":9251:9496  if (barterType == ISyCrowBarterType.TOKEN_FOR_TOKEN) {... */\n      jump(tag_210)\n    tag_209:\n      pop\n        /* \"contracts/SycrowBarter.sol\":9431:9452  depositedTokenBalance */\n      dup2\n      swap1\n      pop\n        /* \"contracts/SycrowBarter.sol\":9475:9485  ethBalance */\n      dup4\n        /* \"contracts/SycrowBarter.sol\":9251:9496  if (barterType == ISyCrowBarterType.TOKEN_FOR_TOKEN) {... */\n    tag_210:\n        /* \"contracts/SycrowBarter.sol\":9589:9726  sycrFactory.notifyWithdrawFromBarter(... */\n      mload(0x40)\n      shl(0xe1, 0x19bcb507)\n      dup2\n      mstore\n        /* \"contracts/SycrowBarter.sol\":9562:9569  factory */\n      immutable(\"0x26a975632f70533c9512e57b565b8ce8e2befee6b08dfbc27c4a897a20e2c1d6\")\n      swap1\n      sub(shl(0xa0, 0x01), 0x01)\n        /* \"contracts/SycrowBarter.sol\":9589:9625  sycrFactory.notifyWithdrawFromBarter */\n      dup3\n      and\n      swap1\n      0x33796a0e\n      swap1\n        /* \"contracts/SycrowBarter.sol\":9589:9726  sycrFactory.notifyWithdrawFromBarter(... */\n      tag_211\n      swap1\n        /* \"contracts/SycrowBarter.sol\":9647:9651  this */\n      address\n      swap1\n        /* \"contracts/SycrowBarter.sol\":9666:9676  msg.sender */\n      caller\n      swap1\n        /* \"contracts/SycrowBarter.sol\":9690:9696  value1 */\n      dup9\n      swap1\n        /* \"contracts/SycrowBarter.sol\":9710:9716  value2 */\n      dup9\n      swap1\n        /* \"contracts/SycrowBarter.sol\":9589:9726  sycrFactory.notifyWithdrawFromBarter(... */\n      0x04\n      add\n      tag_212\n      jump\t// in\n    tag_211:\n      0x00\n      mload(0x40)\n      dup1\n      dup4\n      sub\n      dup2\n      0x00\n      dup8\n      dup1\n      extcodesize\n      iszero\n      dup1\n      iszero\n      tag_213\n      jumpi\n      0x00\n      dup1\n      revert\n    tag_213:\n      pop\n      gas\n      call\n      iszero\n      dup1\n      iszero\n      tag_215\n      jumpi\n      returndatasize\n      0x00\n      dup1\n      returndatacopy\n      revert(0x00, returndatasize)\n    tag_215:\n      pop\n      pop\n      pop\n      pop\n        /* \"contracts/SycrowBarter.sol\":8122:9733  {... */\n      pop\n      pop\n      pop\n      pop\n      pop\n      pop\n      pop\n        /* \"contracts/SycrowBarter.sol\":8048:9733  function withdraw() external override checkInActive initialized onlyOwner {... */\n      jump\t// out\n        /* \"contracts/SycrowBarter.sol\":2844:3031  function getAmounts()... */\n    tag_46:\n        /* \"contracts/SycrowBarter.sol\":1481:1493  _initialized */\n      sload(0x03)\n        /* \"contracts/SycrowBarter.sol\":2950:2957  uint256 */\n      0x00\n      swap1\n      dup2\n      swap1\n      shl(0xa8, 0x01)\n        /* \"contracts/SycrowBarter.sol\":1481:1493  _initialized */\n      swap1\n      div\n      0xff\n      and\n        /* \"contracts/SycrowBarter.sol\":1473:1527  require(_initialized, \"SyCrowBarter: NOT_INITIALIZED\") */\n      tag_217\n      jumpi\n      mload(0x40)\n      shl(0xe5, 0x461bcd)\n      dup2\n      mstore\n      0x04\n      add\n      tag_102\n      swap1\n      tag_107\n      jump\t// in\n    tag_217:\n      pop\n      pop\n        /* \"contracts/SycrowBarter.sol\":2990:3006  _depositedAmount */\n      sload(0x06)\n        /* \"contracts/SycrowBarter.sol\":3008:3023  _expectedAmount */\n      sload(0x07)\n        /* \"contracts/SycrowBarter.sol\":2844:3031  function getAmounts()... */\n      swap1\n      swap2\n      jump\t// out\n        /* \"contracts/SycrowBarter.sol\":4712:5109  function tradeEthForToken(uint256 inAmount)... */\n    tag_55:\n        /* \"contracts/SycrowBarter.sol\":963:978  block.timestamp */\n      timestamp\n        /* \"contracts/SycrowBarter.sol\":951:959  deadline */\n      sload(0x02)\n        /* \"contracts/SycrowBarter.sol\":951:978  deadline >= block.timestamp */\n      lt\n      iszero\n        /* \"contracts/SycrowBarter.sol\":951:1016  deadline >= block.timestamp && totalTradeAmount < _expectedAmount */\n      dup1\n      iszero\n      tag_221\n      jumpi\n      pop\n        /* \"contracts/SycrowBarter.sol\":1001:1016  _expectedAmount */\n      sload(0x07)\n        /* \"contracts/SycrowBarter.sol\":982:998  totalTradeAmount */\n      sload(0x01)\n        /* \"contracts/SycrowBarter.sol\":982:1016  totalTradeAmount < _expectedAmount */\n      lt\n        /* \"contracts/SycrowBarter.sol\":951:1016  deadline >= block.timestamp && totalTradeAmount < _expectedAmount */\n    tag_221:\n        /* \"contracts/SycrowBarter.sol\":930:1064  require(... */\n      tag_222\n      jumpi\n      mload(0x40)\n      shl(0xe5, 0x461bcd)\n      dup2\n      mstore\n      0x04\n      add\n      tag_102\n      swap1\n      tag_103\n      jump\t// in\n    tag_222:\n        /* \"contracts/SycrowBarter.sol\":1481:1493  _initialized */\n      sload(0x03)\n      shl(0xa8, 0x01)\n      swap1\n      div\n      0xff\n      and\n        /* \"contracts/SycrowBarter.sol\":1473:1527  require(_initialized, \"SyCrowBarter: NOT_INITIALIZED\") */\n      tag_225\n      jumpi\n      mload(0x40)\n      shl(0xe5, 0x461bcd)\n      dup2\n      mstore\n      0x04\n      add\n      tag_102\n      swap1\n      tag_107\n      jump\t// in\n    tag_225:\n        /* \"contracts/SycrowBarter.sol\":1584:1617  ISyCrowBarterFactory isycrFactory */\n      0x00\n        /* \"contracts/SycrowBarter.sol\":1641:1648  factory */\n      immutable(\"0x26a975632f70533c9512e57b565b8ce8e2befee6b08dfbc27c4a897a20e2c1d6\")\n        /* \"contracts/SycrowBarter.sol\":1584:1649  ISyCrowBarterFactory isycrFactory = ISyCrowBarterFactory(factory) */\n      swap1\n      pop\n        /* \"contracts/SycrowBarter.sol\":1668:1680  isycrFactory */\n      dup1\n      sub(shl(0xa0, 0x01), 0x01)\n        /* \"contracts/SycrowBarter.sol\":1668:1689  isycrFactory.isPaused */\n      and\n      0xb187bd26\n        /* \"contracts/SycrowBarter.sol\":1668:1691  isycrFactory.isPaused() */\n      mload(0x40)\n      dup2\n      0xffffffff\n      and\n      0xe0\n      shl\n      dup2\n      mstore\n      0x04\n      add\n      0x20\n      mload(0x40)\n      dup1\n      dup4\n      sub\n      dup2\n      dup7\n      gas\n      staticcall\n      iszero\n      dup1\n      iszero\n      tag_229\n      jumpi\n      returndatasize\n      0x00\n      dup1\n      returndatacopy\n      revert(0x00, returndatasize)\n    tag_229:\n      pop\n      pop\n      pop\n      pop\n      mload(0x40)\n      returndatasize\n      not(0x1f)\n      0x1f\n      dup3\n      add\n      and\n      dup3\n      add\n      dup1\n      0x40\n      mstore\n      pop\n      dup2\n      add\n      swap1\n      tag_230\n      swap2\n      swap1\n      tag_112\n      jump\t// in\n    tag_230:\n        /* \"contracts/SycrowBarter.sol\":1667:1691  !isycrFactory.isPaused() */\n      iszero\n        /* \"contracts/SycrowBarter.sol\":1659:1730  require(!isycrFactory.isPaused(), \"SyCrowBarter: Base Contract Paused\") */\n      tag_231\n      jumpi\n      mload(0x40)\n      shl(0xe5, 0x461bcd)\n      dup2\n      mstore\n      0x04\n      add\n      tag_102\n      swap1\n      tag_115\n      jump\t// in\n    tag_231:\n        /* \"contracts/SycrowBarter.sol\":1177:1187  barterType */\n      sload(0x03)\n        /* \"contracts/SycrowBarter.sol\":4890:4921  ISyCrowBarterType.TOKEN_FOR_ETH */\n      0x01\n      swap1\n        /* \"contracts/SycrowBarter.sol\":1177:1187  barterType */\n      0xff\n      and\n        /* \"contracts/SycrowBarter.sol\":1162:1187  _barterType == barterType */\n      0x02\n      dup2\n      gt\n      iszero\n      tag_235\n      jumpi\n      tag_235\n      tag_119\n      jump\t// in\n    tag_235:\n        /* \"contracts/SycrowBarter.sol\":1162:1173  _barterType */\n      dup2\n        /* \"contracts/SycrowBarter.sol\":1162:1187  _barterType == barterType */\n      0x02\n      dup2\n      gt\n      iszero\n      tag_237\n      jumpi\n      tag_237\n      tag_119\n      jump\t// in\n    tag_237:\n      eq\n        /* \"contracts/SycrowBarter.sol\":1154:1225  require(_barterType == barterType, \"SyCrowBarter: INVALID_BARTER_TYPE\") */\n      tag_238\n      jumpi\n      mload(0x40)\n      shl(0xe5, 0x461bcd)\n      dup2\n      mstore\n      0x04\n      add\n      tag_102\n      swap1\n      tag_124\n      jump\t// in\n    tag_238:\n        /* \"contracts/SycrowBarter.sol\":4941:4958  _allowMultiBarter */\n      and(0xff, sload(0x08))\n        /* \"contracts/SycrowBarter.sol\":4937:5066  if(!_allowMultiBarter){... */\n      tag_242\n      jumpi\n        /* \"contracts/SycrowBarter.sol\":4994:5009  _expectedAmount */\n      sload(0x07)\n        /* \"contracts/SycrowBarter.sol\":4981:4990  msg.value */\n      callvalue\n        /* \"contracts/SycrowBarter.sol\":4981:5009  msg.value >= _expectedAmount */\n      lt\n      iszero\n        /* \"contracts/SycrowBarter.sol\":4973:5055  require(msg.value >= _expectedAmount, \"SyCrowBarter: AMOUNT_LOWER_THAN_REQURIRED\") */\n      tag_242\n      jumpi\n      mload(0x40)\n      shl(0xe5, 0x461bcd)\n      dup2\n      mstore\n      0x04\n      add\n      tag_102\n      swap1\n      tag_129\n      jump\t// in\n    tag_242:\n        /* \"contracts/SycrowBarter.sol\":5075:5102  _tradeEthForToken(inAmount) */\n      tag_130\n        /* \"contracts/SycrowBarter.sol\":5093:5101  inAmount */\n      dup4\n        /* \"contracts/SycrowBarter.sol\":5075:5092  _tradeEthForToken */\n      tag_245\n        /* \"contracts/SycrowBarter.sol\":5075:5102  _tradeEthForToken(inAmount) */\n      jump\t// in\n        /* \"contracts/SycrowBarter.sol\":1811:2838  function initialize(... */\n    tag_60:\n        /* \"contracts/SycrowBarter.sol\":2091:2095  bool */\n      0x00\n        /* \"contracts/SycrowBarter.sol\":2115:2125  msg.sender */\n      caller\n      sub(shl(0xa0, 0x01), 0x01)\n        /* \"contracts/SycrowBarter.sol\":2129:2136  factory */\n      immutable(\"0x26a975632f70533c9512e57b565b8ce8e2befee6b08dfbc27c4a897a20e2c1d6\")\n        /* \"contracts/SycrowBarter.sol\":2115:2136  msg.sender == factory */\n      and\n      eq\n        /* \"contracts/SycrowBarter.sol\":2107:2164  require(msg.sender == factory, \"SyCrowBarter: FORBIDDEN\") */\n      tag_247\n      jumpi\n      mload(0x40)\n      shl(0xe5, 0x461bcd)\n      dup2\n      mstore\n        /* \"#utility.yul\":8380:8382   */\n      0x20\n        /* \"contracts/SycrowBarter.sol\":2107:2164  require(msg.sender == factory, \"SyCrowBarter: FORBIDDEN\") */\n      0x04\n      dup3\n      add\n        /* \"#utility.yul\":8362:8383   */\n      mstore\n        /* \"#utility.yul\":8419:8421   */\n      0x17\n        /* \"#utility.yul\":8399:8417   */\n      0x24\n      dup3\n      add\n        /* \"#utility.yul\":8392:8422   */\n      mstore\n        /* \"#utility.yul\":8458:8483   */\n      0x537943726f774261727465723a20464f5242494444454e000000000000000000\n        /* \"#utility.yul\":8438:8456   */\n      0x44\n      dup3\n      add\n        /* \"#utility.yul\":8431:8484   */\n      mstore\n        /* \"#utility.yul\":8501:8519   */\n      0x64\n      add\n        /* \"contracts/SycrowBarter.sol\":2107:2164  require(msg.sender == factory, \"SyCrowBarter: FORBIDDEN\") */\n      tag_102\n        /* \"#utility.yul\":8178:8525   */\n      jump\n        /* \"contracts/SycrowBarter.sol\":2107:2164  require(msg.sender == factory, \"SyCrowBarter: FORBIDDEN\") */\n    tag_247:\n        /* \"contracts/SycrowBarter.sol\":2184:2196  _initialized */\n      sload(0x03)\n      shl(0xa8, 0x01)\n      swap1\n      div\n      0xff\n      and\n        /* \"contracts/SycrowBarter.sol\":2183:2196  !_initialized */\n      iszero\n        /* \"contracts/SycrowBarter.sol\":2175:2234  require(!_initialized, \"SyCrowBarter: ALREADY_INITIALIZED\") */\n      tag_250\n      jumpi\n      mload(0x40)\n      shl(0xe5, 0x461bcd)\n      dup2\n      mstore\n        /* \"#utility.yul\":8732:8734   */\n      0x20\n        /* \"contracts/SycrowBarter.sol\":2175:2234  require(!_initialized, \"SyCrowBarter: ALREADY_INITIALIZED\") */\n      0x04\n      dup3\n      add\n        /* \"#utility.yul\":8714:8735   */\n      mstore\n        /* \"#utility.yul\":8771:8773   */\n      0x21\n        /* \"#utility.yul\":8751:8769   */\n      0x24\n      dup3\n      add\n        /* \"#utility.yul\":8744:8774   */\n      mstore\n        /* \"#utility.yul\":8810:8844   */\n      0x537943726f774261727465723a20414c52454144595f494e495449414c495a45\n        /* \"#utility.yul\":8790:8808   */\n      0x44\n      dup3\n      add\n        /* \"#utility.yul\":8783:8845   */\n      mstore\n      shl(0xfa, 0x11)\n        /* \"#utility.yul\":8861:8879   */\n      0x64\n      dup3\n      add\n        /* \"#utility.yul\":8854:8885   */\n      mstore\n        /* \"#utility.yul\":8902:8921   */\n      0x84\n      add\n        /* \"contracts/SycrowBarter.sol\":2175:2234  require(!_initialized, \"SyCrowBarter: ALREADY_INITIALIZED\") */\n      tag_102\n        /* \"#utility.yul\":8530:8927   */\n      jump\n        /* \"contracts/SycrowBarter.sol\":2175:2234  require(!_initialized, \"SyCrowBarter: ALREADY_INITIALIZED\") */\n    tag_250:\n        /* \"contracts/SycrowBarter.sol\":2265:2280  block.timestamp */\n      timestamp\n        /* \"contracts/SycrowBarter.sol\":2252:2261  _deadline */\n      dup5\n        /* \"contracts/SycrowBarter.sol\":2252:2280  _deadline >= block.timestamp */\n      lt\n      iszero\n        /* \"contracts/SycrowBarter.sol\":2244:2304  require(_deadline >= block.timestamp, \"SyCrowBarter: PAST_\") */\n      tag_253\n      jumpi\n      mload(0x40)\n      shl(0xe5, 0x461bcd)\n      dup2\n      mstore\n        /* \"#utility.yul\":9134:9136   */\n      0x20\n        /* \"contracts/SycrowBarter.sol\":2244:2304  require(_deadline >= block.timestamp, \"SyCrowBarter: PAST_\") */\n      0x04\n      dup3\n      add\n        /* \"#utility.yul\":9116:9137   */\n      mstore\n        /* \"#utility.yul\":9173:9175   */\n      0x13\n        /* \"#utility.yul\":9153:9171   */\n      0x24\n      dup3\n      add\n        /* \"#utility.yul\":9146:9176   */\n      mstore\n      shl(0x68, 0x537943726f774261727465723a20504153545f)\n        /* \"#utility.yul\":9192:9210   */\n      0x44\n      dup3\n      add\n        /* \"#utility.yul\":9185:9234   */\n      mstore\n        /* \"#utility.yul\":9251:9269   */\n      0x64\n      add\n        /* \"contracts/SycrowBarter.sol\":2244:2304  require(_deadline >= block.timestamp, \"SyCrowBarter: PAST_\") */\n      tag_102\n        /* \"#utility.yul\":8932:9275   */\n      jump\n        /* \"contracts/SycrowBarter.sol\":2244:2304  require(_deadline >= block.timestamp, \"SyCrowBarter: PAST_\") */\n    tag_253:\n        /* \"contracts/SycrowBarter.sol\":2336:2376  IERC20(inToken).balanceOf(address(this)) */\n      mload(0x40)\n      shl(0xe0, 0x70a08231)\n      dup2\n      mstore\n        /* \"contracts/SycrowBarter.sol\":2370:2374  this */\n      address\n        /* \"contracts/SycrowBarter.sol\":2336:2376  IERC20(inToken).balanceOf(address(this)) */\n      0x04\n      dup3\n      add\n        /* \"#utility.yul\":2609:2660   */\n      mstore\n        /* \"contracts/SycrowBarter.sol\":2380:2395  amountDeposited */\n      dup7\n      swap1\n      sub(shl(0xa0, 0x01), 0x01)\n        /* \"contracts/SycrowBarter.sol\":2336:2361  IERC20(inToken).balanceOf */\n      dup11\n      and\n      swap1\n      0x70a08231\n      swap1\n        /* \"#utility.yul\":2582:2600   */\n      0x24\n      add\n        /* \"contracts/SycrowBarter.sol\":2336:2376  IERC20(inToken).balanceOf(address(this)) */\n      0x20\n      mload(0x40)\n      dup1\n      dup4\n      sub\n      dup2\n      dup7\n      gas\n      staticcall\n      iszero\n      dup1\n      iszero\n      tag_258\n      jumpi\n      returndatasize\n      0x00\n      dup1\n      returndatacopy\n      revert(0x00, returndatasize)\n    tag_258:\n      pop\n      pop\n      pop\n      pop\n      mload(0x40)\n      returndatasize\n      not(0x1f)\n      0x1f\n      dup3\n      add\n      and\n      dup3\n      add\n      dup1\n      0x40\n      mstore\n      pop\n      dup2\n      add\n      swap1\n      tag_259\n      swap2\n      swap1\n      tag_178\n      jump\t// in\n    tag_259:\n        /* \"contracts/SycrowBarter.sol\":2336:2395  IERC20(inToken).balanceOf(address(this)) >= amountDeposited */\n      lt\n      iszero\n        /* \"contracts/SycrowBarter.sol\":2315:2455  require(... */\n      tag_260\n      jumpi\n      mload(0x40)\n      shl(0xe5, 0x461bcd)\n      dup2\n      mstore\n        /* \"#utility.yul\":9482:9484   */\n      0x20\n        /* \"contracts/SycrowBarter.sol\":2315:2455  require(... */\n      0x04\n      dup3\n      add\n        /* \"#utility.yul\":9464:9485   */\n      mstore\n        /* \"#utility.yul\":9521:9523   */\n      0x22\n        /* \"#utility.yul\":9501:9519   */\n      0x24\n      dup3\n      add\n        /* \"#utility.yul\":9494:9524   */\n      mstore\n        /* \"#utility.yul\":9560:9594   */\n      0x537943726f774261727465723a20494e53554646494349454e545f4445504f53\n        /* \"#utility.yul\":9540:9558   */\n      0x44\n      dup3\n      add\n        /* \"#utility.yul\":9533:9595   */\n      mstore\n      shl(0xf2, 0x1255)\n        /* \"#utility.yul\":9611:9629   */\n      0x64\n      dup3\n      add\n        /* \"#utility.yul\":9604:9636   */\n      mstore\n        /* \"#utility.yul\":9653:9672   */\n      0x84\n      add\n        /* \"contracts/SycrowBarter.sol\":2315:2455  require(... */\n      tag_102\n        /* \"#utility.yul\":9280:9678   */\n      jump\n        /* \"contracts/SycrowBarter.sol\":2315:2455  require(... */\n    tag_260:\n        /* \"contracts/SycrowBarter.sol\":2466:2474  deadline */\n      0x02\n        /* \"contracts/SycrowBarter.sol\":2466:2486  deadline = _deadline */\n      dup5\n      dup2\n      sstore\n        /* \"contracts/SycrowBarter.sol\":2497:2519  _depositedTokenAddress */\n      0x04\n        /* \"contracts/SycrowBarter.sol\":2497:2529  _depositedTokenAddress = inToken */\n      dup1\n      sload\n      sub(shl(0xa0, 0x01), 0x01)\n      dup1\n      dup13\n      and\n      not(sub(shl(0xa0, 0x01), 0x01))\n      swap3\n      dup4\n      and\n      or\n      swap1\n      swap3\n      sstore\n        /* \"contracts/SycrowBarter.sol\":2539:2560  _expectedTokenAddress */\n      0x05\n        /* \"contracts/SycrowBarter.sol\":2539:2571  _expectedTokenAddress = outToken */\n      dup1\n      sload\n      swap3\n      dup12\n      and\n      swap3\n      swap1\n      swap2\n      and\n      swap2\n      swap1\n      swap2\n      or\n      swap1\n      sstore\n        /* \"contracts/SycrowBarter.sol\":2582:2598  _depositedAmount */\n      0x06\n        /* \"contracts/SycrowBarter.sol\":2582:2616  _depositedAmount = amountDeposited */\n      dup8\n      swap1\n      sstore\n        /* \"contracts/SycrowBarter.sol\":2626:2641  _expectedAmount */\n      0x07\n        /* \"contracts/SycrowBarter.sol\":2626:2658  _expectedAmount = amountExpected */\n      dup7\n      swap1\n      sstore\n        /* \"contracts/SycrowBarter.sol\":2669:2679  barterType */\n      0x03\n        /* \"contracts/SycrowBarter.sol\":2669:2693  barterType = _barterType */\n      dup1\n      sload\n        /* \"contracts/SycrowBarter.sol\":2682:2693  _barterType */\n      dup12\n      swap3\n      not(0xff)\n        /* \"contracts/SycrowBarter.sol\":2669:2693  barterType = _barterType */\n      swap1\n      swap2\n      and\n      swap1\n        /* \"contracts/SycrowBarter.sol\":2497:2529  _depositedTokenAddress = inToken */\n      0x01\n      swap1\n        /* \"contracts/SycrowBarter.sol\":2682:2693  _barterType */\n      dup5\n      swap1\n        /* \"contracts/SycrowBarter.sol\":2669:2693  barterType = _barterType */\n      dup2\n      gt\n      iszero\n      tag_264\n      jumpi\n      tag_264\n      tag_119\n      jump\t// in\n    tag_264:\n      mul\n      or\n      swap1\n      sstore\n      pop\n      pop\n        /* \"contracts/SycrowBarter.sol\":2704:2721  _allowMultiBarter */\n      0x08\n        /* \"contracts/SycrowBarter.sol\":2704:2740  _allowMultiBarter = allowMultiBarter */\n      dup1\n      sload\n      dup4\n      iszero\n      iszero\n      not(0xff)\n      swap1\n      swap2\n      and\n      or\n      swap1\n      sstore\n        /* \"contracts/SycrowBarter.sol\":2759:2763  WETH */\n      0x03\n        /* \"contracts/SycrowBarter.sol\":2759:2771  WETH = _WETH */\n      dup1\n      sload\n      not(shl(0xa8, 0xff))\n      sub(shl(0xa0, 0x01), 0x01)\n      dup5\n      and\n        /* \"contracts/SycrowBarter.sol\":2704:2740  _allowMultiBarter = allowMultiBarter */\n      0x0100\n        /* \"contracts/SycrowBarter.sol\":2759:2771  WETH = _WETH */\n      mul\n        /* \"contracts/SycrowBarter.sol\":2782:2801  _initialized = true */\n      and\n      not(sub(shl(0xb0, 0x01), 0x0100))\n      swap1\n      swap2\n      and\n      or\n      shl(0xa8, 0x01)\n      swap1\n      dup2\n      or\n      swap2\n      dup3\n      swap1\n      sstore\n        /* \"contracts/SycrowBarter.sol\":2819:2831  _initialized */\n      swap1\n      div\n        /* \"contracts/SycrowBarter.sol\":2704:2740  _allowMultiBarter = allowMultiBarter */\n      0xff\n        /* \"contracts/SycrowBarter.sol\":2819:2831  _initialized */\n      and\n        /* \"contracts/SycrowBarter.sol\":1811:2838  function initialize(... */\n      swap9\n      swap8\n      pop\n      pop\n      pop\n      pop\n      pop\n      pop\n      pop\n      pop\n      jump\t// out\n        /* \"@openzeppelin/contracts/access/Ownable.sol\":1668:1769  function renounceOwnership() public virtual onlyOwner {... */\n    tag_64:\n        /* \"@openzeppelin/contracts/access/Ownable.sol\":1082:1089  address */\n      0x00\n        /* \"@openzeppelin/contracts/access/Ownable.sol\":1108:1114  _owner */\n      sload\n      sub(shl(0xa0, 0x01), 0x01)\n      and\n        /* \"@openzeppelin/contracts/utils/Context.sol\":719:729  msg.sender */\n      caller\n        /* \"@openzeppelin/contracts/access/Ownable.sol\":1248:1271  owner() == _msgSender() */\n      eq\n        /* \"@openzeppelin/contracts/access/Ownable.sol\":1240:1308  require(owner() == _msgSender(), \"Ownable: caller is not the owner\") */\n      tag_268\n      jumpi\n      mload(0x40)\n      shl(0xe5, 0x461bcd)\n      dup2\n      mstore\n      0x04\n      add\n      tag_102\n      swap1\n      tag_172\n      jump\t// in\n    tag_268:\n        /* \"@openzeppelin/contracts/access/Ownable.sol\":1732:1762  _transferOwnership(address(0)) */\n      tag_271\n        /* \"@openzeppelin/contracts/access/Ownable.sol\":1759:1760  0 */\n      0x00\n        /* \"@openzeppelin/contracts/access/Ownable.sol\":1732:1750  _transferOwnership */\n      tag_272\n        /* \"@openzeppelin/contracts/access/Ownable.sol\":1732:1762  _transferOwnership(address(0)) */\n      jump\t// in\n    tag_271:\n        /* \"@openzeppelin/contracts/access/Ownable.sol\":1668:1769  function renounceOwnership() public virtual onlyOwner {... */\n      jump\t// out\n        /* \"contracts/SycrowBarter.sol\":3037:3235  function getTokens()... */\n    tag_77:\n        /* \"contracts/SycrowBarter.sol\":1481:1493  _initialized */\n      sload(0x03)\n        /* \"contracts/SycrowBarter.sol\":3142:3149  address */\n      0x00\n      swap1\n      dup2\n      swap1\n      shl(0xa8, 0x01)\n        /* \"contracts/SycrowBarter.sol\":1481:1493  _initialized */\n      swap1\n      div\n      0xff\n      and\n        /* \"contracts/SycrowBarter.sol\":1473:1527  require(_initialized, \"SyCrowBarter: NOT_INITIALIZED\") */\n      tag_275\n      jumpi\n      mload(0x40)\n      shl(0xe5, 0x461bcd)\n      dup2\n      mstore\n      0x04\n      add\n      tag_102\n      swap1\n      tag_107\n      jump\t// in\n    tag_275:\n      pop\n      pop\n        /* \"contracts/SycrowBarter.sol\":3182:3204  _depositedTokenAddress */\n      sload(0x04)\n        /* \"contracts/SycrowBarter.sol\":3206:3227  _expectedTokenAddress */\n      sload(0x05)\n      sub(shl(0xa0, 0x01), 0x01)\n        /* \"contracts/SycrowBarter.sol\":3182:3204  _depositedTokenAddress */\n      swap2\n      dup3\n      and\n      swap2\n        /* \"contracts/SycrowBarter.sol\":3206:3227  _expectedTokenAddress */\n      and\n        /* \"contracts/SycrowBarter.sol\":3037:3235  function getTokens()... */\n      swap1\n      swap2\n      jump\t// out\n        /* \"contracts/SycrowBarter.sol\":9739:9909  function getTradeOutAmount(uint256 amount)... */\n    tag_87:\n        /* \"contracts/SycrowBarter.sol\":9827:9834  uint256 */\n      0x00\n        /* \"contracts/SycrowBarter.sol\":9887:9902  _expectedAmount */\n      sload(0x07)\n        /* \"contracts/SycrowBarter.sol\":9867:9883  _depositedAmount */\n      sload(0x06)\n        /* \"contracts/SycrowBarter.sol\":9858:9864  amount */\n      dup4\n        /* \"contracts/SycrowBarter.sol\":9858:9883  amount * _depositedAmount */\n      tag_279\n      swap2\n      swap1\n      tag_280\n      jump\t// in\n    tag_279:\n        /* \"contracts/SycrowBarter.sol\":9857:9902  (amount * _depositedAmount) / _expectedAmount */\n      tag_281\n      swap2\n      swap1\n      tag_282\n      jump\t// in\n    tag_281:\n        /* \"contracts/SycrowBarter.sol\":9850:9902  return (amount * _depositedAmount) / _expectedAmount */\n      swap3\n        /* \"contracts/SycrowBarter.sol\":9739:9909  function getTradeOutAmount(uint256 amount)... */\n      swap2\n      pop\n      pop\n      jump\t// out\n        /* \"contracts/SycrowBarter.sol\":3241:3927  function getTrades()... */\n    tag_91:\n        /* \"contracts/SycrowBarter.sol\":3359:3375  address[] memory */\n      0x60\n        /* \"contracts/SycrowBarter.sol\":3389:3405  uint256[] memory */\n      dup1\n        /* \"contracts/SycrowBarter.sol\":3419:3435  uint256[] memory */\n      0x60\n        /* \"contracts/SycrowBarter.sol\":1481:1493  _initialized */\n      0x03\n      0x15\n      swap1\n      sload\n      swap1\n      0x0100\n      exp\n      swap1\n      div\n      0xff\n      and\n        /* \"contracts/SycrowBarter.sol\":1473:1527  require(_initialized, \"SyCrowBarter: NOT_INITIALIZED\") */\n      tag_284\n      jumpi\n      mload(0x40)\n      shl(0xe5, 0x461bcd)\n      dup2\n      mstore\n      0x04\n      add\n      tag_102\n      swap1\n      tag_107\n      jump\t// in\n    tag_284:\n        /* \"contracts/SycrowBarter.sol\":3503:3510  _trades */\n      0x09\n        /* \"contracts/SycrowBarter.sol\":3503:3517  _trades.length */\n      sload\n        /* \"contracts/SycrowBarter.sol\":3460:3486  address[] memory addresses */\n      0x00\n      swap1\n        /* \"contracts/SycrowBarter.sol\":3489:3518  new address[](_trades.length) */\n      0xffffffffffffffff\n      dup2\n      gt\n      iszero\n      tag_288\n      jumpi\n      tag_288\n      tag_289\n      jump\t// in\n    tag_288:\n      mload(0x40)\n      swap1\n      dup1\n      dup3\n      mstore\n      dup1\n      0x20\n      mul\n      0x20\n      add\n      dup3\n      add\n      0x40\n      mstore\n      dup1\n      iszero\n      tag_290\n      jumpi\n      dup2\n      0x20\n      add\n      0x20\n      dup3\n      mul\n      dup1\n      calldatasize\n      dup4\n      calldatacopy\n      add\n      swap1\n      pop\n    tag_290:\n      pop\n        /* \"contracts/SycrowBarter.sol\":3571:3578  _trades */\n      0x09\n        /* \"contracts/SycrowBarter.sol\":3571:3585  _trades.length */\n      sload\n        /* \"contracts/SycrowBarter.sol\":3460:3518  address[] memory addresses = new address[](_trades.length) */\n      swap1\n      swap2\n      pop\n        /* \"contracts/SycrowBarter.sol\":3528:3554  uint256[] memory amountsIn */\n      0x00\n      swap1\n        /* \"contracts/SycrowBarter.sol\":3557:3586  new uint256[](_trades.length) */\n      0xffffffffffffffff\n      dup2\n      gt\n      iszero\n      tag_292\n      jumpi\n      tag_292\n      tag_289\n      jump\t// in\n    tag_292:\n      mload(0x40)\n      swap1\n      dup1\n      dup3\n      mstore\n      dup1\n      0x20\n      mul\n      0x20\n      add\n      dup3\n      add\n      0x40\n      mstore\n      dup1\n      iszero\n      tag_293\n      jumpi\n      dup2\n      0x20\n      add\n      0x20\n      dup3\n      mul\n      dup1\n      calldatasize\n      dup4\n      calldatacopy\n      add\n      swap1\n      pop\n    tag_293:\n      pop\n        /* \"contracts/SycrowBarter.sol\":3640:3647  _trades */\n      0x09\n        /* \"contracts/SycrowBarter.sol\":3640:3654  _trades.length */\n      sload\n        /* \"contracts/SycrowBarter.sol\":3528:3586  uint256[] memory amountsIn = new uint256[](_trades.length) */\n      swap1\n      swap2\n      pop\n        /* \"contracts/SycrowBarter.sol\":3596:3623  uint256[] memory amountsOut */\n      0x00\n      swap1\n        /* \"contracts/SycrowBarter.sol\":3626:3655  new uint256[](_trades.length) */\n      0xffffffffffffffff\n      dup2\n      gt\n      iszero\n      tag_295\n      jumpi\n      tag_295\n      tag_289\n      jump\t// in\n    tag_295:\n      mload(0x40)\n      swap1\n      dup1\n      dup3\n      mstore\n      dup1\n      0x20\n      mul\n      0x20\n      add\n      dup3\n      add\n      0x40\n      mstore\n      dup1\n      iszero\n      tag_296\n      jumpi\n      dup2\n      0x20\n      add\n      0x20\n      dup3\n      mul\n      dup1\n      calldatasize\n      dup4\n      calldatacopy\n      add\n      swap1\n      pop\n    tag_296:\n      pop\n        /* \"contracts/SycrowBarter.sol\":3596:3655  uint256[] memory amountsOut = new uint256[](_trades.length) */\n      swap1\n      pop\n        /* \"contracts/SycrowBarter.sol\":3671:3680  uint256 i */\n      0x00\n        /* \"contracts/SycrowBarter.sol\":3666:3869  for (uint256 i = 0; i < _trades.length; i++) {... */\n    tag_297:\n        /* \"contracts/SycrowBarter.sol\":3690:3697  _trades */\n      0x09\n        /* \"contracts/SycrowBarter.sol\":3690:3704  _trades.length */\n      sload\n        /* \"contracts/SycrowBarter.sol\":3686:3704  i < _trades.length */\n      dup2\n      lt\n        /* \"contracts/SycrowBarter.sol\":3666:3869  for (uint256 i = 0; i < _trades.length; i++) {... */\n      iszero\n      tag_298\n      jumpi\n        /* \"contracts/SycrowBarter.sol\":3740:3747  _trades */\n      0x09\n        /* \"contracts/SycrowBarter.sol\":3748:3749  i */\n      dup2\n        /* \"contracts/SycrowBarter.sol\":3740:3750  _trades[i] */\n      dup2\n      sload\n      dup2\n      lt\n      tag_301\n      jumpi\n      tag_301\n      tag_302\n      jump\t// in\n    tag_301:\n      0x00\n      swap2\n      dup3\n      mstore\n      0x20\n      swap1\n      swap2\n      keccak256\n      0x03\n      swap1\n      swap2\n      mul\n      add\n        /* \"contracts/SycrowBarter.sol\":3740:3758  _trades[i]._trader */\n      sload\n        /* \"contracts/SycrowBarter.sol\":3725:3737  addresses[i] */\n      dup5\n      mload\n      sub(shl(0xa0, 0x01), 0x01)\n        /* \"contracts/SycrowBarter.sol\":3740:3758  _trades[i]._trader */\n      swap1\n      swap2\n      and\n      swap1\n        /* \"contracts/SycrowBarter.sol\":3725:3734  addresses */\n      dup6\n      swap1\n        /* \"contracts/SycrowBarter.sol\":3735:3736  i */\n      dup4\n      swap1\n        /* \"contracts/SycrowBarter.sol\":3725:3737  addresses[i] */\n      dup2\n      lt\n      tag_305\n      jumpi\n      tag_305\n      tag_302\n      jump\t// in\n    tag_305:\n      0x20\n      mul\n      0x20\n      add\n      add\n        /* \"contracts/SycrowBarter.sol\":3725:3758  addresses[i] = _trades[i]._trader */\n      swap1\n      sub(shl(0xa0, 0x01), 0x01)\n      and\n      swap1\n      dup2\n      sub(shl(0xa0, 0x01), 0x01)\n      and\n      dup2\n      mstore\n      pop\n      pop\n        /* \"contracts/SycrowBarter.sol\":3787:3794  _trades */\n      0x09\n        /* \"contracts/SycrowBarter.sol\":3795:3796  i */\n      dup2\n        /* \"contracts/SycrowBarter.sol\":3787:3797  _trades[i] */\n      dup2\n      sload\n      dup2\n      lt\n      tag_307\n      jumpi\n      tag_307\n      tag_302\n      jump\t// in\n    tag_307:\n      swap1\n      0x00\n      mstore\n      keccak256(0x00, 0x20)\n      swap1\n      0x03\n      mul\n      add\n        /* \"contracts/SycrowBarter.sol\":3787:3807  _trades[i]._amountIn */\n      0x01\n      add\n      sload\n        /* \"contracts/SycrowBarter.sol\":3772:3781  amountsIn */\n      dup4\n        /* \"contracts/SycrowBarter.sol\":3782:3783  i */\n      dup3\n        /* \"contracts/SycrowBarter.sol\":3772:3784  amountsIn[i] */\n      dup2\n      mload\n      dup2\n      lt\n      tag_310\n      jumpi\n      tag_310\n      tag_302\n      jump\t// in\n    tag_310:\n      0x20\n      mul\n      0x20\n      add\n      add\n        /* \"contracts/SycrowBarter.sol\":3772:3807  amountsIn[i] = _trades[i]._amountIn */\n      dup2\n      dup2\n      mstore\n      pop\n      pop\n        /* \"contracts/SycrowBarter.sol\":3837:3844  _trades */\n      0x09\n        /* \"contracts/SycrowBarter.sol\":3845:3846  i */\n      dup2\n        /* \"contracts/SycrowBarter.sol\":3837:3847  _trades[i] */\n      dup2\n      sload\n      dup2\n      lt\n      tag_312\n      jumpi\n      tag_312\n      tag_302\n      jump\t// in\n    tag_312:\n      swap1\n      0x00\n      mstore\n      keccak256(0x00, 0x20)\n      swap1\n      0x03\n      mul\n      add\n        /* \"contracts/SycrowBarter.sol\":3837:3858  _trades[i]._amountOut */\n      0x02\n      add\n      sload\n        /* \"contracts/SycrowBarter.sol\":3821:3831  amountsOut */\n      dup3\n        /* \"contracts/SycrowBarter.sol\":3832:3833  i */\n      dup3\n        /* \"contracts/SycrowBarter.sol\":3821:3834  amountsOut[i] */\n      dup2\n      mload\n      dup2\n      lt\n      tag_315\n      jumpi\n      tag_315\n      tag_302\n      jump\t// in\n    tag_315:\n      0x20\n      swap1\n      dup2\n      mul\n      swap2\n      swap1\n      swap2\n      add\n      add\n        /* \"contracts/SycrowBarter.sol\":3821:3858  amountsOut[i] = _trades[i]._amountOut */\n      mstore\n        /* \"contracts/SycrowBarter.sol\":3706:3709  i++ */\n      dup1\n      tag_316\n      dup2\n      tag_317\n      jump\t// in\n    tag_316:\n      swap2\n      pop\n      pop\n        /* \"contracts/SycrowBarter.sol\":3666:3869  for (uint256 i = 0; i < _trades.length; i++) {... */\n      jump(tag_297)\n    tag_298:\n      pop\n        /* \"contracts/SycrowBarter.sol\":3887:3896  addresses */\n      swap2\n      swap5\n      pop\n        /* \"contracts/SycrowBarter.sol\":3898:3907  amountsIn */\n      swap3\n      pop\n        /* \"contracts/SycrowBarter.sol\":3909:3919  amountsOut */\n      swap1\n      pop\n        /* \"contracts/SycrowBarter.sol\":3241:3927  function getTrades()... */\n      swap1\n      swap2\n      swap3\n      jump\t// out\n        /* \"@openzeppelin/contracts/access/Ownable.sol\":1918:2116  function transferOwnership(address newOwner) public virtual onlyOwner {... */\n    tag_98:\n        /* \"@openzeppelin/contracts/access/Ownable.sol\":1082:1089  address */\n      0x00\n        /* \"@openzeppelin/contracts/access/Ownable.sol\":1108:1114  _owner */\n      sload\n      sub(shl(0xa0, 0x01), 0x01)\n      and\n        /* \"@openzeppelin/contracts/utils/Context.sol\":719:729  msg.sender */\n      caller\n        /* \"@openzeppelin/contracts/access/Ownable.sol\":1248:1271  owner() == _msgSender() */\n      eq\n        /* \"@openzeppelin/contracts/access/Ownable.sol\":1240:1308  require(owner() == _msgSender(), \"Ownable: caller is not the owner\") */\n      tag_321\n      jumpi\n      mload(0x40)\n      shl(0xe5, 0x461bcd)\n      dup2\n      mstore\n      0x04\n      add\n      tag_102\n      swap1\n      tag_172\n      jump\t// in\n    tag_321:\n      sub(shl(0xa0, 0x01), 0x01)\n        /* \"@openzeppelin/contracts/access/Ownable.sol\":2006:2028  newOwner != address(0) */\n      dup2\n      and\n        /* \"@openzeppelin/contracts/access/Ownable.sol\":1998:2071  require(newOwner != address(0), \"Ownable: new owner is the zero address\") */\n      tag_324\n      jumpi\n      mload(0x40)\n      shl(0xe5, 0x461bcd)\n      dup2\n      mstore\n        /* \"#utility.yul\":10816:10818   */\n      0x20\n        /* \"@openzeppelin/contracts/access/Ownable.sol\":1998:2071  require(newOwner != address(0), \"Ownable: new owner is the zero address\") */\n      0x04\n      dup3\n      add\n        /* \"#utility.yul\":10798:10819   */\n      mstore\n        /* \"#utility.yul\":10855:10857   */\n      0x26\n        /* \"#utility.yul\":10835:10853   */\n      0x24\n      dup3\n      add\n        /* \"#utility.yul\":10828:10858   */\n      mstore\n        /* \"#utility.yul\":10894:10928   */\n      0x4f776e61626c653a206e6577206f776e657220697320746865207a65726f2061\n        /* \"#utility.yul\":10874:10892   */\n      0x44\n      dup3\n      add\n        /* \"#utility.yul\":10867:10929   */\n      mstore\n      shl(0xd0, 0x646472657373)\n        /* \"#utility.yul\":10945:10963   */\n      0x64\n      dup3\n      add\n        /* \"#utility.yul\":10938:10974   */\n      mstore\n        /* \"#utility.yul\":10991:11010   */\n      0x84\n      add\n        /* \"@openzeppelin/contracts/access/Ownable.sol\":1998:2071  require(newOwner != address(0), \"Ownable: new owner is the zero address\") */\n      tag_102\n        /* \"#utility.yul\":10614:11016   */\n      jump\n        /* \"@openzeppelin/contracts/access/Ownable.sol\":1998:2071  require(newOwner != address(0), \"Ownable: new owner is the zero address\") */\n    tag_324:\n        /* \"@openzeppelin/contracts/access/Ownable.sol\":2081:2109  _transferOwnership(newOwner) */\n      tag_327\n        /* \"@openzeppelin/contracts/access/Ownable.sol\":2100:2108  newOwner */\n      dup2\n        /* \"@openzeppelin/contracts/access/Ownable.sol\":2081:2099  _transferOwnership */\n      tag_272\n        /* \"@openzeppelin/contracts/access/Ownable.sol\":2081:2109  _transferOwnership(newOwner) */\n      jump\t// in\n    tag_327:\n        /* \"@openzeppelin/contracts/access/Ownable.sol\":1918:2116  function transferOwnership(address newOwner) public virtual onlyOwner {... */\n      pop\n      jump\t// out\n        /* \"contracts/SycrowBarter.sol\":6161:7181  function _tradeTokenForEth(uint256 inAmount) internal {... */\n    tag_131:\n        /* \"contracts/SycrowBarter.sol\":6253:6274  _expectedTokenAddress */\n      sload(0x05)\n        /* \"contracts/SycrowBarter.sol\":6246:6297  IERC20(_expectedTokenAddress).balanceOf(msg.sender) */\n      mload(0x40)\n      shl(0xe0, 0x70a08231)\n      dup2\n      mstore\n        /* \"contracts/SycrowBarter.sol\":6286:6296  msg.sender */\n      caller\n        /* \"contracts/SycrowBarter.sol\":6246:6297  IERC20(_expectedTokenAddress).balanceOf(msg.sender) */\n      0x04\n      dup3\n      add\n        /* \"#utility.yul\":2609:2660   */\n      mstore\n        /* \"contracts/SycrowBarter.sol\":6301:6309  inAmount */\n      dup3\n      swap2\n      sub(shl(0xa0, 0x01), 0x01)\n        /* \"contracts/SycrowBarter.sol\":6253:6274  _expectedTokenAddress */\n      and\n      swap1\n        /* \"contracts/SycrowBarter.sol\":6246:6285  IERC20(_expectedTokenAddress).balanceOf */\n      0x70a08231\n      swap1\n        /* \"#utility.yul\":2582:2600   */\n      0x24\n      add\n        /* \"contracts/SycrowBarter.sol\":6246:6297  IERC20(_expectedTokenAddress).balanceOf(msg.sender) */\n      0x20\n      mload(0x40)\n      dup1\n      dup4\n      sub\n      dup2\n      dup7\n      gas\n      staticcall\n      iszero\n      dup1\n      iszero\n      tag_331\n      jumpi\n      returndatasize\n      0x00\n      dup1\n      returndatacopy\n      revert(0x00, returndatasize)\n    tag_331:\n      pop\n      pop\n      pop\n      pop\n      mload(0x40)\n      returndatasize\n      not(0x1f)\n      0x1f\n      dup3\n      add\n      and\n      dup3\n      add\n      dup1\n      0x40\n      mstore\n      pop\n      dup2\n      add\n      swap1\n      tag_332\n      swap2\n      swap1\n      tag_178\n      jump\t// in\n    tag_332:\n        /* \"contracts/SycrowBarter.sol\":6246:6309  IERC20(_expectedTokenAddress).balanceOf(msg.sender) >= inAmount */\n      lt\n      iszero\n        /* \"contracts/SycrowBarter.sol\":6225:6369  require(... */\n      tag_333\n      jumpi\n      mload(0x40)\n      shl(0xe5, 0x461bcd)\n      dup2\n      mstore\n      0x04\n      add\n      tag_102\n      swap1\n      tag_335\n      jump\t// in\n    tag_333:\n        /* \"contracts/SycrowBarter.sol\":6380:6397  uint256 outAmount */\n      0x00\n        /* \"contracts/SycrowBarter.sol\":6400:6427  getTradeOutAmount(inAmount) */\n      tag_336\n        /* \"contracts/SycrowBarter.sol\":6418:6426  inAmount */\n      dup3\n        /* \"contracts/SycrowBarter.sol\":6400:6417  getTradeOutAmount */\n      tag_87\n        /* \"contracts/SycrowBarter.sol\":6400:6427  getTradeOutAmount(inAmount) */\n      jump\t// in\n    tag_336:\n        /* \"contracts/SycrowBarter.sol\":6465:6469  WETH */\n      sload(0x03)\n        /* \"contracts/SycrowBarter.sol\":6502:6537  _wethErc20.balanceOf(address(this)) */\n      mload(0x40)\n      shl(0xe0, 0x70a08231)\n      dup2\n      mstore\n        /* \"contracts/SycrowBarter.sol\":6531:6535  this */\n      address\n        /* \"contracts/SycrowBarter.sol\":6502:6537  _wethErc20.balanceOf(address(this)) */\n      0x04\n      dup3\n      add\n        /* \"#utility.yul\":2609:2660   */\n      mstore\n        /* \"contracts/SycrowBarter.sol\":6380:6427  uint256 outAmount = getTradeOutAmount(inAmount) */\n      swap2\n      swap3\n      pop\n        /* \"contracts/SycrowBarter.sol\":6465:6469  WETH */\n      0x0100\n      swap1\n      div\n      sub(shl(0xa0, 0x01), 0x01)\n      and\n      swap1\n        /* \"contracts/SycrowBarter.sol\":6380:6427  uint256 outAmount = getTradeOutAmount(inAmount) */\n      dup3\n      swap1\n        /* \"contracts/SycrowBarter.sol\":6465:6469  WETH */\n      dup3\n      swap1\n        /* \"contracts/SycrowBarter.sol\":6502:6522  _wethErc20.balanceOf */\n      0x70a08231\n      swap1\n        /* \"#utility.yul\":2582:2600   */\n      0x24\n      add\n        /* \"contracts/SycrowBarter.sol\":6502:6537  _wethErc20.balanceOf(address(this)) */\n      0x20\n      mload(0x40)\n      dup1\n      dup4\n      sub\n      dup2\n      dup7\n      gas\n      staticcall\n      iszero\n      dup1\n      iszero\n      tag_339\n      jumpi\n      returndatasize\n      0x00\n      dup1\n      returndatacopy\n      revert(0x00, returndatasize)\n    tag_339:\n      pop\n      pop\n      pop\n      pop\n      mload(0x40)\n      returndatasize\n      not(0x1f)\n      0x1f\n      dup3\n      add\n      and\n      dup3\n      add\n      dup1\n      0x40\n      mstore\n      pop\n      dup2\n      add\n      swap1\n      tag_340\n      swap2\n      swap1\n      tag_178\n      jump\t// in\n    tag_340:\n        /* \"contracts/SycrowBarter.sol\":6502:6550  _wethErc20.balanceOf(address(this)) >= outAmount */\n      lt\n      iszero\n        /* \"contracts/SycrowBarter.sol\":6481:6619  require(... */\n      tag_341\n      jumpi\n      mload(0x40)\n      shl(0xe5, 0x461bcd)\n      dup2\n      mstore\n      0x04\n      add\n      tag_102\n      swap1\n      tag_343\n      jump\t// in\n    tag_341:\n        /* \"contracts/SycrowBarter.sol\":6636:6640  WETH */\n      sload(0x03)\n        /* \"contracts/SycrowBarter.sol\":6630:6661  IWETH(WETH).withdraw(outAmount) */\n      mload(0x40)\n      shl(0xe0, 0x2e1a7d4d)\n      dup2\n      mstore\n      0x04\n      dup2\n      add\n        /* \"#utility.yul\":345:370   */\n      dup5\n      swap1\n      mstore\n        /* \"contracts/SycrowBarter.sol\":6636:6640  WETH */\n      0x0100\n      swap1\n      swap2\n      div\n      sub(shl(0xa0, 0x01), 0x01)\n      and\n      swap1\n        /* \"contracts/SycrowBarter.sol\":6630:6650  IWETH(WETH).withdraw */\n      0x2e1a7d4d\n      swap1\n        /* \"#utility.yul\":318:336   */\n      0x24\n      add\n        /* \"contracts/SycrowBarter.sol\":6630:6661  IWETH(WETH).withdraw(outAmount) */\n      0x00\n      mload(0x40)\n      dup1\n      dup4\n      sub\n      dup2\n      0x00\n      dup8\n      dup1\n      extcodesize\n      iszero\n      dup1\n      iszero\n      tag_345\n      jumpi\n      0x00\n      dup1\n      revert\n    tag_345:\n      pop\n      gas\n      call\n      iszero\n      dup1\n      iszero\n      tag_347\n      jumpi\n      returndatasize\n      0x00\n      dup1\n      returndatacopy\n      revert(0x00, returndatasize)\n    tag_347:\n      pop\n      pop\n        /* \"contracts/SycrowBarter.sol\":6717:6738  _expectedTokenAddress */\n      sload(0x05)\n        /* \"contracts/SycrowBarter.sol\":6672:6821  TransferHelper.safeTransferFrom(... */\n      tag_348\n      swap3\n      pop\n      sub(shl(0xa0, 0x01), 0x01)\n        /* \"contracts/SycrowBarter.sol\":6717:6738  _expectedTokenAddress */\n      and\n      swap1\n      pop\n        /* \"contracts/SycrowBarter.sol\":6752:6762  msg.sender */\n      caller\n        /* \"contracts/SycrowBarter.sol\":6784:6788  this */\n      address\n        /* \"contracts/SycrowBarter.sol\":6803:6811  inAmount */\n      dup7\n        /* \"contracts/SycrowBarter.sol\":6672:6703  TransferHelper.safeTransferFrom */\n      tag_349\n        /* \"contracts/SycrowBarter.sol\":6672:6821  TransferHelper.safeTransferFrom(... */\n      jump\t// in\n    tag_348:\n        /* \"contracts/SycrowBarter.sol\":6831:6884  TransferHelper.safeTransferETH(msg.sender, outAmount) */\n      tag_350\n        /* \"contracts/SycrowBarter.sol\":6862:6872  msg.sender */\n      caller\n        /* \"contracts/SycrowBarter.sol\":6874:6883  outAmount */\n      dup4\n        /* \"contracts/SycrowBarter.sol\":6831:6861  TransferHelper.safeTransferETH */\n      tag_185\n        /* \"contracts/SycrowBarter.sol\":6831:6884  TransferHelper.safeTransferETH(msg.sender, outAmount) */\n      jump\t// in\n    tag_350:\n        /* \"contracts/SycrowBarter.sol\":6908:6951  BaterTrade(msg.sender, inAmount, outAmount) */\n      0x40\n      dup1\n      mload\n      0x60\n      dup2\n      add\n      dup3\n      mstore\n        /* \"contracts/SycrowBarter.sol\":6919:6929  msg.sender */\n      caller\n        /* \"contracts/SycrowBarter.sol\":6908:6951  BaterTrade(msg.sender, inAmount, outAmount) */\n      dup1\n      dup3\n      mstore\n      0x20\n      dup3\n      add\n      dup7\n      dup2\n      mstore\n      dup3\n      dup5\n      add\n      dup7\n      dup2\n      mstore\n        /* \"contracts/SycrowBarter.sol\":6895:6902  _trades */\n      0x09\n        /* \"contracts/SycrowBarter.sol\":6895:6952  _trades.push(BaterTrade(msg.sender, inAmount, outAmount)) */\n      dup1\n      sload\n      0x01\n      dup2\n      add\n      dup3\n      sstore\n      0x00\n      swap2\n      swap1\n      swap2\n      mstore\n      swap4\n      mload\n      0x03\n      swap1\n      swap5\n      mul\n      0x6e1540171b6c0c960b71a7020d9f60077f6af931a8bbf590da0223dacf75c7af\n      dup2\n      add\n      dup1\n      sload\n      sub(shl(0xa0, 0x01), 0x01)\n      swap7\n      dup8\n      and\n      not(sub(shl(0xa0, 0x01), 0x01))\n      swap1\n      swap2\n      and\n      or\n      swap1\n      sstore\n      swap2\n      mload\n      0x6e1540171b6c0c960b71a7020d9f60077f6af931a8bbf590da0223dacf75c7b0\n      dup4\n      add\n      sstore\n      mload\n      0x6e1540171b6c0c960b71a7020d9f60077f6af931a8bbf590da0223dacf75c7b1\n      swap1\n      swap2\n      add\n      sstore\n        /* \"contracts/SycrowBarter.sol\":7037:7174  sycrFactory.notifyTradeByBarter(... */\n      swap2\n      mload\n      shl(0xe0, 0xf52701b7)\n      dup2\n      mstore\n        /* \"contracts/SycrowBarter.sol\":7019:7026  factory */\n      immutable(\"0x26a975632f70533c9512e57b565b8ce8e2befee6b08dfbc27c4a897a20e2c1d6\")\n      swap3\n        /* \"contracts/SycrowBarter.sol\":7037:7068  sycrFactory.notifyTradeByBarter */\n      swap2\n      dup4\n      and\n      swap2\n      0xf52701b7\n      swap2\n        /* \"contracts/SycrowBarter.sol\":7037:7174  sycrFactory.notifyTradeByBarter(... */\n      tag_352\n      swap2\n        /* \"contracts/SycrowBarter.sol\":7090:7094  this */\n      address\n      swap2\n        /* \"contracts/SycrowBarter.sol\":6931:6939  inAmount */\n      dup10\n      swap1\n        /* \"contracts/SycrowBarter.sol\":6941:6950  outAmount */\n      dup10\n      swap1\n        /* \"contracts/SycrowBarter.sol\":7037:7174  sycrFactory.notifyTradeByBarter(... */\n      0x04\n      add\n      tag_212\n      jump\t// in\n    tag_352:\n      0x00\n      mload(0x40)\n      dup1\n      dup4\n      sub\n      dup2\n      0x00\n      dup8\n      dup1\n      extcodesize\n      iszero\n      dup1\n      iszero\n      tag_353\n      jumpi\n      0x00\n      dup1\n      revert\n    tag_353:\n      pop\n      gas\n      call\n      iszero\n      dup1\n      iszero\n      tag_355\n      jumpi\n      returndatasize\n      0x00\n      dup1\n      returndatacopy\n      revert(0x00, returndatasize)\n    tag_355:\n      pop\n      pop\n      pop\n      pop\n        /* \"contracts/SycrowBarter.sol\":6215:7181  {... */\n      pop\n      pop\n      pop\n        /* \"contracts/SycrowBarter.sol\":6161:7181  function _tradeTokenForEth(uint256 inAmount) internal {... */\n      pop\n      jump\t// out\n        /* \"contracts/SycrowBarter.sol\":5115:6155  function _tradeTokenForToken(uint256 inAmount) internal {... */\n    tag_157:\n        /* \"contracts/SycrowBarter.sol\":5209:5230  _expectedTokenAddress */\n      sload(0x05)\n        /* \"contracts/SycrowBarter.sol\":5202:5253  IERC20(_expectedTokenAddress).balanceOf(msg.sender) */\n      mload(0x40)\n      shl(0xe0, 0x70a08231)\n      dup2\n      mstore\n        /* \"contracts/SycrowBarter.sol\":5242:5252  msg.sender */\n      caller\n        /* \"contracts/SycrowBarter.sol\":5202:5253  IERC20(_expectedTokenAddress).balanceOf(msg.sender) */\n      0x04\n      dup3\n      add\n        /* \"#utility.yul\":2609:2660   */\n      mstore\n        /* \"contracts/SycrowBarter.sol\":5257:5265  inAmount */\n      dup3\n      swap2\n      sub(shl(0xa0, 0x01), 0x01)\n        /* \"contracts/SycrowBarter.sol\":5209:5230  _expectedTokenAddress */\n      and\n      swap1\n        /* \"contracts/SycrowBarter.sol\":5202:5241  IERC20(_expectedTokenAddress).balanceOf */\n      0x70a08231\n      swap1\n        /* \"#utility.yul\":2582:2600   */\n      0x24\n      add\n        /* \"contracts/SycrowBarter.sol\":5202:5253  IERC20(_expectedTokenAddress).balanceOf(msg.sender) */\n      0x20\n      mload(0x40)\n      dup1\n      dup4\n      sub\n      dup2\n      dup7\n      gas\n      staticcall\n      iszero\n      dup1\n      iszero\n      tag_359\n      jumpi\n      returndatasize\n      0x00\n      dup1\n      returndatacopy\n      revert(0x00, returndatasize)\n    tag_359:\n      pop\n      pop\n      pop\n      pop\n      mload(0x40)\n      returndatasize\n      not(0x1f)\n      0x1f\n      dup3\n      add\n      and\n      dup3\n      add\n      dup1\n      0x40\n      mstore\n      pop\n      dup2\n      add\n      swap1\n      tag_360\n      swap2\n      swap1\n      tag_178\n      jump\t// in\n    tag_360:\n        /* \"contracts/SycrowBarter.sol\":5202:5265  IERC20(_expectedTokenAddress).balanceOf(msg.sender) >= inAmount */\n      lt\n      iszero\n        /* \"contracts/SycrowBarter.sol\":5181:5325  require(... */\n      tag_361\n      jumpi\n      mload(0x40)\n      shl(0xe5, 0x461bcd)\n      dup2\n      mstore\n      0x04\n      add\n      tag_102\n      swap1\n      tag_335\n      jump\t// in\n    tag_361:\n        /* \"contracts/SycrowBarter.sol\":5336:5353  uint256 outAmount */\n      0x00\n        /* \"contracts/SycrowBarter.sol\":5356:5383  getTradeOutAmount(inAmount) */\n      tag_363\n        /* \"contracts/SycrowBarter.sol\":5374:5382  inAmount */\n      dup3\n        /* \"contracts/SycrowBarter.sol\":5356:5373  getTradeOutAmount */\n      tag_87\n        /* \"contracts/SycrowBarter.sol\":5356:5383  getTradeOutAmount(inAmount) */\n      jump\t// in\n    tag_363:\n        /* \"contracts/SycrowBarter.sol\":5422:5444  _depositedTokenAddress */\n      0x04\n      dup1\n      sload\n        /* \"contracts/SycrowBarter.sol\":5415:5470  IERC20(_depositedTokenAddress).balanceOf(address(this)) */\n      mload(0x40)\n      shl(0xe0, 0x70a08231)\n      dup2\n      mstore\n        /* \"contracts/SycrowBarter.sol\":5464:5468  this */\n      address\n        /* \"contracts/SycrowBarter.sol\":5415:5470  IERC20(_depositedTokenAddress).balanceOf(address(this)) */\n      swap3\n      dup2\n      add\n        /* \"#utility.yul\":2609:2660   */\n      swap3\n      swap1\n      swap3\n      mstore\n        /* \"contracts/SycrowBarter.sol\":5336:5383  uint256 outAmount = getTradeOutAmount(inAmount) */\n      swap2\n      swap3\n      pop\n      dup3\n      swap2\n      sub(shl(0xa0, 0x01), 0x01)\n        /* \"contracts/SycrowBarter.sol\":5422:5444  _depositedTokenAddress */\n      and\n      swap1\n        /* \"contracts/SycrowBarter.sol\":5415:5455  IERC20(_depositedTokenAddress).balanceOf */\n      0x70a08231\n      swap1\n        /* \"#utility.yul\":2582:2600   */\n      0x24\n      add\n        /* \"contracts/SycrowBarter.sol\":5415:5470  IERC20(_depositedTokenAddress).balanceOf(address(this)) */\n      0x20\n      mload(0x40)\n      dup1\n      dup4\n      sub\n      dup2\n      dup7\n      gas\n      staticcall\n      iszero\n      dup1\n      iszero\n      tag_366\n      jumpi\n      returndatasize\n      0x00\n      dup1\n      returndatacopy\n      revert(0x00, returndatasize)\n    tag_366:\n      pop\n      pop\n      pop\n      pop\n      mload(0x40)\n      returndatasize\n      not(0x1f)\n      0x1f\n      dup3\n      add\n      and\n      dup3\n      add\n      dup1\n      0x40\n      mstore\n      pop\n      dup2\n      add\n      swap1\n      tag_367\n      swap2\n      swap1\n      tag_178\n      jump\t// in\n    tag_367:\n        /* \"contracts/SycrowBarter.sol\":5415:5499  IERC20(_depositedTokenAddress).balanceOf(address(this)) >=... */\n      lt\n      iszero\n        /* \"contracts/SycrowBarter.sol\":5394:5568  require(... */\n      tag_368\n      jumpi\n      mload(0x40)\n      shl(0xe5, 0x461bcd)\n      dup2\n      mstore\n      0x04\n      add\n      tag_102\n      swap1\n      tag_343\n      jump\t// in\n    tag_368:\n        /* \"contracts/SycrowBarter.sol\":5624:5645  _expectedTokenAddress */\n      sload(0x05)\n        /* \"contracts/SycrowBarter.sol\":5579:5728  TransferHelper.safeTransferFrom(... */\n      tag_370\n      swap1\n      sub(shl(0xa0, 0x01), 0x01)\n        /* \"contracts/SycrowBarter.sol\":5624:5645  _expectedTokenAddress */\n      and\n        /* \"contracts/SycrowBarter.sol\":5659:5669  msg.sender */\n      caller\n        /* \"contracts/SycrowBarter.sol\":5691:5695  this */\n      address\n        /* \"contracts/SycrowBarter.sol\":5710:5718  inAmount */\n      dup6\n        /* \"contracts/SycrowBarter.sol\":5579:5610  TransferHelper.safeTransferFrom */\n      tag_349\n        /* \"contracts/SycrowBarter.sol\":5579:5728  TransferHelper.safeTransferFrom(... */\n      jump\t// in\n    tag_370:\n        /* \"contracts/SycrowBarter.sol\":5779:5801  _depositedTokenAddress */\n      sload(0x04)\n        /* \"contracts/SycrowBarter.sol\":5738:5858  TransferHelper.safeTransfer(... */\n      tag_371\n      swap1\n      sub(shl(0xa0, 0x01), 0x01)\n        /* \"contracts/SycrowBarter.sol\":5779:5801  _depositedTokenAddress */\n      and\n        /* \"contracts/SycrowBarter.sol\":5815:5825  msg.sender */\n      caller\n        /* \"contracts/SycrowBarter.sol\":5839:5848  outAmount */\n      dup4\n        /* \"contracts/SycrowBarter.sol\":5738:5765  TransferHelper.safeTransfer */\n      tag_192\n        /* \"contracts/SycrowBarter.sol\":5738:5858  TransferHelper.safeTransfer(... */\n      jump\t// in\n    tag_371:\n        /* \"contracts/SycrowBarter.sol\":5882:5925  BaterTrade(msg.sender, inAmount, outAmount) */\n      0x40\n      dup1\n      mload\n      0x60\n      dup2\n      add\n      dup3\n      mstore\n        /* \"contracts/SycrowBarter.sol\":5893:5903  msg.sender */\n      caller\n        /* \"contracts/SycrowBarter.sol\":5882:5925  BaterTrade(msg.sender, inAmount, outAmount) */\n      dup1\n      dup3\n      mstore\n      0x20\n      dup3\n      add\n      dup6\n      dup2\n      mstore\n      dup3\n      dup5\n      add\n      dup6\n      dup2\n      mstore\n        /* \"contracts/SycrowBarter.sol\":5869:5876  _trades */\n      0x09\n        /* \"contracts/SycrowBarter.sol\":5869:5926  _trades.push(BaterTrade(msg.sender, inAmount, outAmount)) */\n      dup1\n      sload\n      0x01\n      dup2\n      add\n      dup3\n      sstore\n      0x00\n      swap2\n      swap1\n      swap2\n      mstore\n      swap4\n      mload\n      0x03\n      swap1\n      swap5\n      mul\n      0x6e1540171b6c0c960b71a7020d9f60077f6af931a8bbf590da0223dacf75c7af\n      dup2\n      add\n      dup1\n      sload\n      sub(shl(0xa0, 0x01), 0x01)\n      swap7\n      dup8\n      and\n      not(sub(shl(0xa0, 0x01), 0x01))\n      swap1\n      swap2\n      and\n      or\n      swap1\n      sstore\n      swap2\n      mload\n      0x6e1540171b6c0c960b71a7020d9f60077f6af931a8bbf590da0223dacf75c7b0\n      dup4\n      add\n      sstore\n      mload\n      0x6e1540171b6c0c960b71a7020d9f60077f6af931a8bbf590da0223dacf75c7b1\n      swap1\n      swap2\n      add\n      sstore\n        /* \"contracts/SycrowBarter.sol\":6011:6148  sycrFactory.notifyTradeByBarter(... */\n      swap2\n      mload\n      shl(0xe0, 0xf52701b7)\n      dup2\n      mstore\n        /* \"contracts/SycrowBarter.sol\":5993:6000  factory */\n      immutable(\"0x26a975632f70533c9512e57b565b8ce8e2befee6b08dfbc27c4a897a20e2c1d6\")\n      swap3\n        /* \"contracts/SycrowBarter.sol\":6011:6042  sycrFactory.notifyTradeByBarter */\n      swap2\n      dup4\n      and\n      swap2\n      0xf52701b7\n      swap2\n        /* \"contracts/SycrowBarter.sol\":6011:6148  sycrFactory.notifyTradeByBarter(... */\n      tag_373\n      swap2\n        /* \"contracts/SycrowBarter.sol\":6064:6068  this */\n      address\n      swap2\n        /* \"contracts/SycrowBarter.sol\":5905:5913  inAmount */\n      dup9\n      swap1\n        /* \"contracts/SycrowBarter.sol\":5915:5924  outAmount */\n      dup9\n      swap1\n        /* \"contracts/SycrowBarter.sol\":6011:6148  sycrFactory.notifyTradeByBarter(... */\n      0x04\n      add\n      tag_212\n      jump\t// in\n    tag_373:\n      0x00\n      mload(0x40)\n      dup1\n      dup4\n      sub\n      dup2\n      0x00\n      dup8\n      dup1\n      extcodesize\n      iszero\n      dup1\n      iszero\n      tag_374\n      jumpi\n      0x00\n      dup1\n      revert\n    tag_374:\n      pop\n      gas\n      call\n      iszero\n      dup1\n      iszero\n      tag_376\n      jumpi\n      returndatasize\n      0x00\n      dup1\n      returndatacopy\n      revert(0x00, returndatasize)\n    tag_376:\n      pop\n      pop\n      pop\n      pop\n        /* \"contracts/SycrowBarter.sol\":5171:6155  {... */\n      pop\n      pop\n        /* \"contracts/SycrowBarter.sol\":5115:6155  function _tradeTokenForToken(uint256 inAmount) internal {... */\n      pop\n      jump\t// out\n        /* \"contracts/libraries/TransferHelper.sol\":1333:1525  function safeTransferETH(address to, uint value) internal {... */\n    tag_185:\n        /* \"contracts/libraries/TransferHelper.sol\":1440:1452  new bytes(0) */\n      0x40\n      dup1\n      mload\n        /* \"contracts/libraries/TransferHelper.sol\":1402:1414  bool success */\n      0x00\n        /* \"contracts/libraries/TransferHelper.sol\":1440:1452  new bytes(0) */\n      dup1\n      dup3\n      mstore\n      0x20\n      dup3\n      add\n      swap1\n      swap3\n      mstore\n      sub(shl(0xa0, 0x01), 0x01)\n        /* \"contracts/libraries/TransferHelper.sol\":1419:1426  to.call */\n      dup5\n      and\n      swap1\n        /* \"contracts/libraries/TransferHelper.sol\":1433:1438  value */\n      dup4\n      swap1\n        /* \"contracts/libraries/TransferHelper.sol\":1419:1453  to.call{value:value}(new bytes(0)) */\n      mload(0x40)\n      tag_382\n      swap2\n      swap1\n      tag_383\n      jump\t// in\n    tag_382:\n      0x00\n      mload(0x40)\n      dup1\n      dup4\n      sub\n      dup2\n      dup6\n      dup8\n      gas\n      call\n      swap3\n      pop\n      pop\n      pop\n      returndatasize\n      dup1\n      0x00\n      dup2\n      eq\n      tag_386\n      jumpi\n      mload(0x40)\n      swap2\n      pop\n      and(add(returndatasize, 0x3f), not(0x1f))\n      dup3\n      add\n      0x40\n      mstore\n      returndatasize\n      dup3\n      mstore\n      returndatasize\n      0x00\n      0x20\n      dup5\n      add\n      returndatacopy\n      jump(tag_385)\n    tag_386:\n      0x60\n      swap2\n      pop\n    tag_385:\n      pop\n        /* \"contracts/libraries/TransferHelper.sol\":1401:1453  (bool success,) = to.call{value:value}(new bytes(0)) */\n      pop\n      swap1\n      pop\n        /* \"contracts/libraries/TransferHelper.sol\":1471:1478  success */\n      dup1\n        /* \"contracts/libraries/TransferHelper.sol\":1463:1518  require(success, 'TransferHelper: ETH_TRANSFER_FAILED') */\n      tag_130\n      jumpi\n      mload(0x40)\n      shl(0xe5, 0x461bcd)\n      dup2\n      mstore\n        /* \"#utility.yul\":12469:12471   */\n      0x20\n        /* \"contracts/libraries/TransferHelper.sol\":1463:1518  require(success, 'TransferHelper: ETH_TRANSFER_FAILED') */\n      0x04\n      dup3\n      add\n        /* \"#utility.yul\":12451:12472   */\n      mstore\n        /* \"#utility.yul\":12508:12510   */\n      0x23\n        /* \"#utility.yul\":12488:12506   */\n      0x24\n      dup3\n      add\n        /* \"#utility.yul\":12481:12511   */\n      mstore\n        /* \"#utility.yul\":12547:12581   */\n      0x5472616e7366657248656c7065723a204554485f5452414e534645525f464149\n        /* \"#utility.yul\":12527:12545   */\n      0x44\n      dup3\n      add\n        /* \"#utility.yul\":12520:12582   */\n      mstore\n      shl(0xea, 0x131151)\n        /* \"#utility.yul\":12598:12616   */\n      0x64\n      dup3\n      add\n        /* \"#utility.yul\":12591:12624   */\n      mstore\n        /* \"#utility.yul\":12641:12660   */\n      0x84\n      add\n        /* \"contracts/libraries/TransferHelper.sol\":1463:1518  require(success, 'TransferHelper: ETH_TRANSFER_FAILED') */\n      tag_102\n        /* \"#utility.yul\":12267:12666   */\n      jump\n        /* \"contracts/libraries/TransferHelper.sol\":566:923  function safeTransfer(address token, address to, uint value) internal {... */\n    tag_192:\n        /* \"contracts/libraries/TransferHelper.sol\":759:804  abi.encodeWithSelector(0xa9059cbb, to, value) */\n      0x40\n      dup1\n      mload\n      sub(shl(0xa0, 0x01), 0x01)\n        /* \"#utility.yul\":12863:12895   */\n      dup5\n      dup2\n      and\n        /* \"contracts/libraries/TransferHelper.sol\":759:804  abi.encodeWithSelector(0xa9059cbb, to, value) */\n      0x24\n      dup4\n      add\n        /* \"#utility.yul\":12845:12896   */\n      mstore\n        /* \"#utility.yul\":12912:12930   */\n      0x44\n      dup1\n      dup4\n      add\n        /* \"#utility.yul\":12905:12939   */\n      dup6\n      swap1\n      mstore\n        /* \"contracts/libraries/TransferHelper.sol\":759:804  abi.encodeWithSelector(0xa9059cbb, to, value) */\n      dup4\n      mload\n      dup1\n      dup5\n      sub\n      swap1\n      swap2\n      add\n      dup2\n      mstore\n        /* \"#utility.yul\":12818:12836   */\n      0x64\n      swap1\n      swap3\n      add\n        /* \"contracts/libraries/TransferHelper.sol\":759:804  abi.encodeWithSelector(0xa9059cbb, to, value) */\n      dup4\n      mstore\n      0x20\n      dup3\n      add\n      dup1\n      mload\n      sub(shl(0xe0, 0x01), 0x01)\n      and\n      shl(0xe0, 0xa9059cbb)\n      or\n      swap1\n      mstore\n        /* \"contracts/libraries/TransferHelper.sol\":748:805  token.call(abi.encodeWithSelector(0xa9059cbb, to, value)) */\n      swap2\n      mload\n      0x00\n      swap3\n      dup4\n      swap3\n        /* \"contracts/libraries/TransferHelper.sol\":748:758  token.call */\n      swap1\n      dup8\n      and\n      swap2\n        /* \"contracts/libraries/TransferHelper.sol\":748:805  token.call(abi.encodeWithSelector(0xa9059cbb, to, value)) */\n      tag_393\n      swap2\n        /* \"contracts/libraries/TransferHelper.sol\":759:804  abi.encodeWithSelector(0xa9059cbb, to, value) */\n      swap1\n        /* \"contracts/libraries/TransferHelper.sol\":748:805  token.call(abi.encodeWithSelector(0xa9059cbb, to, value)) */\n      tag_383\n      jump\t// in\n    tag_393:\n      0x00\n      mload(0x40)\n      dup1\n      dup4\n      sub\n      dup2\n      0x00\n      dup7\n      gas\n      call\n      swap2\n      pop\n      pop\n      returndatasize\n      dup1\n      0x00\n      dup2\n      eq\n      tag_396\n      jumpi\n      mload(0x40)\n      swap2\n      pop\n      and(add(returndatasize, 0x3f), not(0x1f))\n      dup3\n      add\n      0x40\n      mstore\n      returndatasize\n      dup3\n      mstore\n      returndatasize\n      0x00\n      0x20\n      dup5\n      add\n      returndatacopy\n      jump(tag_395)\n    tag_396:\n      0x60\n      swap2\n      pop\n    tag_395:\n      pop\n        /* \"contracts/libraries/TransferHelper.sol\":712:805  (bool success, bytes memory data) = token.call(abi.encodeWithSelector(0xa9059cbb, to, value)) */\n      swap2\n      pop\n      swap2\n      pop\n        /* \"contracts/libraries/TransferHelper.sol\":823:830  success */\n      dup2\n        /* \"contracts/libraries/TransferHelper.sol\":823:880  success && (data.length == 0 || abi.decode(data, (bool))) */\n      dup1\n      iszero\n      tag_399\n      jumpi\n      pop\n        /* \"contracts/libraries/TransferHelper.sol\":835:846  data.length */\n      dup1\n      mload\n        /* \"contracts/libraries/TransferHelper.sol\":835:851  data.length == 0 */\n      iszero\n      dup1\n        /* \"contracts/libraries/TransferHelper.sol\":835:879  data.length == 0 || abi.decode(data, (bool)) */\n      tag_399\n      jumpi\n      pop\n        /* \"contracts/libraries/TransferHelper.sol\":866:870  data */\n      dup1\n        /* \"contracts/libraries/TransferHelper.sol\":855:879  abi.decode(data, (bool)) */\n      dup1\n      0x20\n      add\n      swap1\n      mload\n      dup2\n      add\n      swap1\n      tag_399\n      swap2\n      swap1\n      tag_112\n      jump\t// in\n    tag_399:\n        /* \"contracts/libraries/TransferHelper.sol\":815:916  require(success && (data.length == 0 || abi.decode(data, (bool))), 'TransferHelper: TRANSFER_FAILED') */\n      tag_400\n      jumpi\n      mload(0x40)\n      shl(0xe5, 0x461bcd)\n      dup2\n      mstore\n        /* \"#utility.yul\":13152:13154   */\n      0x20\n        /* \"contracts/libraries/TransferHelper.sol\":815:916  require(success && (data.length == 0 || abi.decode(data, (bool))), 'TransferHelper: TRANSFER_FAILED') */\n      0x04\n      dup3\n      add\n        /* \"#utility.yul\":13134:13155   */\n      mstore\n        /* \"#utility.yul\":13191:13193   */\n      0x1f\n        /* \"#utility.yul\":13171:13189   */\n      0x24\n      dup3\n      add\n        /* \"#utility.yul\":13164:13194   */\n      mstore\n        /* \"#utility.yul\":13230:13263   */\n      0x5472616e7366657248656c7065723a205452414e534645525f4641494c454400\n        /* \"#utility.yul\":13210:13228   */\n      0x44\n      dup3\n      add\n        /* \"#utility.yul\":13203:13264   */\n      mstore\n        /* \"#utility.yul\":13281:13299   */\n      0x64\n      add\n        /* \"contracts/libraries/TransferHelper.sol\":815:916  require(success && (data.length == 0 || abi.decode(data, (bool))), 'TransferHelper: TRANSFER_FAILED') */\n      tag_102\n        /* \"#utility.yul\":12950:13305   */\n      jump\n        /* \"contracts/libraries/TransferHelper.sol\":815:916  require(success && (data.length == 0 || abi.decode(data, (bool))), 'TransferHelper: TRANSFER_FAILED') */\n    tag_400:\n        /* \"contracts/libraries/TransferHelper.sol\":636:923  {... */\n      pop\n      pop\n        /* \"contracts/libraries/TransferHelper.sol\":566:923  function safeTransfer(address token, address to, uint value) internal {... */\n      pop\n      pop\n      pop\n      jump\t// out\n        /* \"contracts/SycrowBarter.sol\":7187:8042  function _tradeEthForToken(uint256 inAmount) internal {... */\n    tag_245:\n        /* \"contracts/SycrowBarter.sol\":7271:7280  msg.value */\n      callvalue\n        /* \"contracts/SycrowBarter.sol\":7259:7267  inAmount */\n      dup2\n        /* \"contracts/SycrowBarter.sol\":7259:7280  inAmount == msg.value */\n      eq\n        /* \"contracts/SycrowBarter.sol\":7251:7322  require(inAmount == msg.value, \"SyCrowBarter: MULTI_TRADE_NOT_ENABLED\") */\n      tag_404\n      jumpi\n      mload(0x40)\n      shl(0xe5, 0x461bcd)\n      dup2\n      mstore\n        /* \"#utility.yul\":13512:13514   */\n      0x20\n        /* \"contracts/SycrowBarter.sol\":7251:7322  require(inAmount == msg.value, \"SyCrowBarter: MULTI_TRADE_NOT_ENABLED\") */\n      0x04\n      dup3\n      add\n        /* \"#utility.yul\":13494:13515   */\n      mstore\n        /* \"#utility.yul\":13551:13553   */\n      0x25\n        /* \"#utility.yul\":13531:13549   */\n      0x24\n      dup3\n      add\n        /* \"#utility.yul\":13524:13554   */\n      mstore\n        /* \"#utility.yul\":13590:13624   */\n      0x537943726f774261727465723a204d554c54495f54524144455f4e4f545f454e\n        /* \"#utility.yul\":13570:13588   */\n      0x44\n      dup3\n      add\n        /* \"#utility.yul\":13563:13625   */\n      mstore\n      shl(0xda, 0x1050931151)\n        /* \"#utility.yul\":13641:13659   */\n      0x64\n      dup3\n      add\n        /* \"#utility.yul\":13634:13669   */\n      mstore\n        /* \"#utility.yul\":13686:13705   */\n      0x84\n      add\n        /* \"contracts/SycrowBarter.sol\":7251:7322  require(inAmount == msg.value, \"SyCrowBarter: MULTI_TRADE_NOT_ENABLED\") */\n      tag_102\n        /* \"#utility.yul\":13310:13711   */\n      jump\n        /* \"contracts/SycrowBarter.sol\":7251:7322  require(inAmount == msg.value, \"SyCrowBarter: MULTI_TRADE_NOT_ENABLED\") */\n    tag_404:\n        /* \"contracts/SycrowBarter.sol\":7333:7350  uint256 outAmount */\n      0x00\n        /* \"contracts/SycrowBarter.sol\":7353:7380  getTradeOutAmount(inAmount) */\n      tag_407\n        /* \"contracts/SycrowBarter.sol\":7371:7379  inAmount */\n      dup3\n        /* \"contracts/SycrowBarter.sol\":7353:7370  getTradeOutAmount */\n      tag_87\n        /* \"contracts/SycrowBarter.sol\":7353:7380  getTradeOutAmount(inAmount) */\n      jump\t// in\n    tag_407:\n        /* \"contracts/SycrowBarter.sol\":7419:7441  _depositedTokenAddress */\n      0x04\n      dup1\n      sload\n        /* \"contracts/SycrowBarter.sol\":7412:7467  IERC20(_depositedTokenAddress).balanceOf(address(this)) */\n      mload(0x40)\n      shl(0xe0, 0x70a08231)\n      dup2\n      mstore\n        /* \"contracts/SycrowBarter.sol\":7461:7465  this */\n      address\n        /* \"contracts/SycrowBarter.sol\":7412:7467  IERC20(_depositedTokenAddress).balanceOf(address(this)) */\n      swap3\n      dup2\n      add\n        /* \"#utility.yul\":2609:2660   */\n      swap3\n      swap1\n      swap3\n      mstore\n        /* \"contracts/SycrowBarter.sol\":7333:7380  uint256 outAmount = getTradeOutAmount(inAmount) */\n      swap2\n      swap3\n      pop\n      dup3\n      swap2\n      sub(shl(0xa0, 0x01), 0x01)\n        /* \"contracts/SycrowBarter.sol\":7419:7441  _depositedTokenAddress */\n      and\n      swap1\n        /* \"contracts/SycrowBarter.sol\":7412:7452  IERC20(_depositedTokenAddress).balanceOf */\n      0x70a08231\n      swap1\n        /* \"#utility.yul\":2582:2600   */\n      0x24\n      add\n        /* \"contracts/SycrowBarter.sol\":7412:7467  IERC20(_depositedTokenAddress).balanceOf(address(this)) */\n      0x20\n      mload(0x40)\n      dup1\n      dup4\n      sub\n      dup2\n      dup7\n      gas\n      staticcall\n      iszero\n      dup1\n      iszero\n      tag_410\n      jumpi\n      returndatasize\n      0x00\n      dup1\n      returndatacopy\n      revert(0x00, returndatasize)\n    tag_410:\n      pop\n      pop\n      pop\n      pop\n      mload(0x40)\n      returndatasize\n      not(0x1f)\n      0x1f\n      dup3\n      add\n      and\n      dup3\n      add\n      dup1\n      0x40\n      mstore\n      pop\n      dup2\n      add\n      swap1\n      tag_411\n      swap2\n      swap1\n      tag_178\n      jump\t// in\n    tag_411:\n        /* \"contracts/SycrowBarter.sol\":7412:7496  IERC20(_depositedTokenAddress).balanceOf(address(this)) >=... */\n      lt\n      iszero\n        /* \"contracts/SycrowBarter.sol\":7391:7565  require(... */\n      tag_412\n      jumpi\n      mload(0x40)\n      shl(0xe5, 0x461bcd)\n      dup2\n      mstore\n      0x04\n      add\n      tag_102\n      swap1\n      tag_343\n      jump\t// in\n    tag_412:\n        /* \"contracts/SycrowBarter.sol\":7582:7586  WETH */\n      0x03\n      0x01\n      swap1\n      sload\n      swap1\n      0x0100\n      exp\n      swap1\n      div\n      sub(shl(0xa0, 0x01), 0x01)\n      and\n      sub(shl(0xa0, 0x01), 0x01)\n        /* \"contracts/SycrowBarter.sol\":7576:7595  IWETH(WETH).deposit */\n      and\n      0xd0e30db0\n        /* \"contracts/SycrowBarter.sol\":7603:7611  inAmount */\n      dup4\n        /* \"contracts/SycrowBarter.sol\":7576:7614  IWETH(WETH).deposit{value: inAmount}() */\n      mload(0x40)\n      dup3\n      0xffffffff\n      and\n      0xe0\n      shl\n      dup2\n      mstore\n      0x04\n      add\n      0x00\n      mload(0x40)\n      dup1\n      dup4\n      sub\n      dup2\n      dup6\n      dup9\n      dup1\n      extcodesize\n      iszero\n      dup1\n      iszero\n      tag_414\n      jumpi\n      0x00\n      dup1\n      revert\n    tag_414:\n      pop\n      gas\n      call\n      iszero\n      dup1\n      iszero\n      tag_416\n      jumpi\n      returndatasize\n      0x00\n      dup1\n      returndatacopy\n      revert(0x00, returndatasize)\n    tag_416:\n      pop\n      pop\n        /* \"contracts/SycrowBarter.sol\":7666:7688  _depositedTokenAddress */\n      sload(0x04)\n        /* \"contracts/SycrowBarter.sol\":7625:7745  TransferHelper.safeTransfer(... */\n      tag_371\n      swap4\n      pop\n      sub(shl(0xa0, 0x01), 0x01)\n        /* \"contracts/SycrowBarter.sol\":7666:7688  _depositedTokenAddress */\n      and\n      swap2\n      pop\n        /* \"contracts/SycrowBarter.sol\":7702:7712  msg.sender */\n      caller\n      swap1\n      pop\n        /* \"contracts/SycrowBarter.sol\":7726:7735  outAmount */\n      dup4\n        /* \"contracts/SycrowBarter.sol\":7625:7652  TransferHelper.safeTransfer */\n      tag_192\n        /* \"contracts/SycrowBarter.sol\":7625:7745  TransferHelper.safeTransfer(... */\n      jump\t// in\n        /* \"@openzeppelin/contracts/access/Ownable.sol\":2270:2457  function _transferOwnership(address newOwner) internal virtual {... */\n    tag_272:\n        /* \"@openzeppelin/contracts/access/Ownable.sol\":2343:2359  address oldOwner */\n      0x00\n        /* \"@openzeppelin/contracts/access/Ownable.sol\":2362:2368  _owner */\n      dup1\n      sload\n      sub(shl(0xa0, 0x01), 0x01)\n        /* \"@openzeppelin/contracts/access/Ownable.sol\":2378:2395  _owner = newOwner */\n      dup4\n      dup2\n      and\n      not(sub(shl(0xa0, 0x01), 0x01))\n      dup4\n      and\n      dup2\n      or\n      dup5\n      sstore\n        /* \"@openzeppelin/contracts/access/Ownable.sol\":2410:2450  OwnershipTransferred(oldOwner, newOwner) */\n      mload(0x40)\n        /* \"@openzeppelin/contracts/access/Ownable.sol\":2362:2368  _owner */\n      swap2\n      swap1\n      swap3\n      and\n      swap3\n      dup4\n      swap2\n        /* \"@openzeppelin/contracts/access/Ownable.sol\":2410:2450  OwnershipTransferred(oldOwner, newOwner) */\n      0x8be0079c531659141344cd1fd0a4f28419497f9722a3daafe3b4186f6b6457e0\n      swap2\n        /* \"@openzeppelin/contracts/access/Ownable.sol\":2343:2359  address oldOwner */\n      swap1\n        /* \"@openzeppelin/contracts/access/Ownable.sol\":2410:2450  OwnershipTransferred(oldOwner, newOwner) */\n      log3\n        /* \"@openzeppelin/contracts/access/Ownable.sol\":2333:2457  {... */\n      pop\n        /* \"@openzeppelin/contracts/access/Ownable.sol\":2270:2457  function _transferOwnership(address newOwner) internal virtual {... */\n      pop\n      jump\t// out\n        /* \"contracts/libraries/TransferHelper.sol\":929:1327  function safeTransferFrom(address token, address from, address to, uint value) internal {... */\n    tag_349:\n        /* \"contracts/libraries/TransferHelper.sol\":1152:1203  abi.encodeWithSelector(0x23b872dd, from, to, value) */\n      0x40\n      dup1\n      mload\n      sub(shl(0xa0, 0x01), 0x01)\n        /* \"#utility.yul\":13974:13989   */\n      dup6\n      dup2\n      and\n        /* \"contracts/libraries/TransferHelper.sol\":1152:1203  abi.encodeWithSelector(0x23b872dd, from, to, value) */\n      0x24\n      dup4\n      add\n        /* \"#utility.yul\":13956:13990   */\n      mstore\n        /* \"#utility.yul\":14026:14041   */\n      dup5\n      dup2\n      and\n        /* \"#utility.yul\":14006:14024   */\n      0x44\n      dup4\n      add\n        /* \"#utility.yul\":13999:14042   */\n      mstore\n        /* \"#utility.yul\":14058:14076   */\n      0x64\n      dup1\n      dup4\n      add\n        /* \"#utility.yul\":14051:14085   */\n      dup6\n      swap1\n      mstore\n        /* \"contracts/libraries/TransferHelper.sol\":1152:1203  abi.encodeWithSelector(0x23b872dd, from, to, value) */\n      dup4\n      mload\n      dup1\n      dup5\n      sub\n      swap1\n      swap2\n      add\n      dup2\n      mstore\n        /* \"#utility.yul\":13891:13909   */\n      0x84\n      swap1\n      swap3\n      add\n        /* \"contracts/libraries/TransferHelper.sol\":1152:1203  abi.encodeWithSelector(0x23b872dd, from, to, value) */\n      dup4\n      mstore\n      0x20\n      dup3\n      add\n      dup1\n      mload\n      sub(shl(0xe0, 0x01), 0x01)\n      and\n      shl(0xe0, 0x23b872dd)\n      or\n      swap1\n      mstore\n        /* \"contracts/libraries/TransferHelper.sol\":1141:1204  token.call(abi.encodeWithSelector(0x23b872dd, from, to, value)) */\n      swap2\n      mload\n      0x00\n      swap3\n      dup4\n      swap3\n        /* \"contracts/libraries/TransferHelper.sol\":1141:1151  token.call */\n      swap1\n      dup9\n      and\n      swap2\n        /* \"contracts/libraries/TransferHelper.sol\":1141:1204  token.call(abi.encodeWithSelector(0x23b872dd, from, to, value)) */\n      tag_427\n      swap2\n        /* \"contracts/libraries/TransferHelper.sol\":1152:1203  abi.encodeWithSelector(0x23b872dd, from, to, value) */\n      swap1\n        /* \"contracts/libraries/TransferHelper.sol\":1141:1204  token.call(abi.encodeWithSelector(0x23b872dd, from, to, value)) */\n      tag_383\n      jump\t// in\n    tag_427:\n      0x00\n      mload(0x40)\n      dup1\n      dup4\n      sub\n      dup2\n      0x00\n      dup7\n      gas\n      call\n      swap2\n      pop\n      pop\n      returndatasize\n      dup1\n      0x00\n      dup2\n      eq\n      tag_430\n      jumpi\n      mload(0x40)\n      swap2\n      pop\n      and(add(returndatasize, 0x3f), not(0x1f))\n      dup3\n      add\n      0x40\n      mstore\n      returndatasize\n      dup3\n      mstore\n      returndatasize\n      0x00\n      0x20\n      dup5\n      add\n      returndatacopy\n      jump(tag_429)\n    tag_430:\n      0x60\n      swap2\n      pop\n    tag_429:\n      pop\n        /* \"contracts/libraries/TransferHelper.sol\":1105:1204  (bool success, bytes memory data) = token.call(abi.encodeWithSelector(0x23b872dd, from, to, value)) */\n      swap2\n      pop\n      swap2\n      pop\n        /* \"contracts/libraries/TransferHelper.sol\":1222:1229  success */\n      dup2\n        /* \"contracts/libraries/TransferHelper.sol\":1222:1279  success && (data.length == 0 || abi.decode(data, (bool))) */\n      dup1\n      iszero\n      tag_433\n      jumpi\n      pop\n        /* \"contracts/libraries/TransferHelper.sol\":1234:1245  data.length */\n      dup1\n      mload\n        /* \"contracts/libraries/TransferHelper.sol\":1234:1250  data.length == 0 */\n      iszero\n      dup1\n        /* \"contracts/libraries/TransferHelper.sol\":1234:1278  data.length == 0 || abi.decode(data, (bool)) */\n      tag_433\n      jumpi\n      pop\n        /* \"contracts/libraries/TransferHelper.sol\":1265:1269  data */\n      dup1\n        /* \"contracts/libraries/TransferHelper.sol\":1254:1278  abi.decode(data, (bool)) */\n      dup1\n      0x20\n      add\n      swap1\n      mload\n      dup2\n      add\n      swap1\n      tag_433\n      swap2\n      swap1\n      tag_112\n      jump\t// in\n    tag_433:\n        /* \"contracts/libraries/TransferHelper.sol\":1214:1320  require(success && (data.length == 0 || abi.decode(data, (bool))), 'TransferHelper: TRANSFER_FROM_FAILED') */\n      tag_434\n      jumpi\n      mload(0x40)\n      shl(0xe5, 0x461bcd)\n      dup2\n      mstore\n        /* \"#utility.yul\":14298:14300   */\n      0x20\n        /* \"contracts/libraries/TransferHelper.sol\":1214:1320  require(success && (data.length == 0 || abi.decode(data, (bool))), 'TransferHelper: TRANSFER_FROM_FAILED') */\n      0x04\n      dup3\n      add\n        /* \"#utility.yul\":14280:14301   */\n      mstore\n        /* \"#utility.yul\":14337:14339   */\n      0x24\n        /* \"#utility.yul\":14317:14335   */\n      dup1\n      dup3\n      add\n        /* \"#utility.yul\":14310:14340   */\n      mstore\n        /* \"#utility.yul\":14376:14410   */\n      0x5472616e7366657248656c7065723a205452414e534645525f46524f4d5f4641\n        /* \"#utility.yul\":14356:14374   */\n      0x44\n      dup3\n      add\n        /* \"#utility.yul\":14349:14411   */\n      mstore\n      shl(0xe2, 0x12531151)\n        /* \"#utility.yul\":14427:14445   */\n      0x64\n      dup3\n      add\n        /* \"#utility.yul\":14420:14454   */\n      mstore\n        /* \"#utility.yul\":14471:14490   */\n      0x84\n      add\n        /* \"contracts/libraries/TransferHelper.sol\":1214:1320  require(success && (data.length == 0 || abi.decode(data, (bool))), 'TransferHelper: TRANSFER_FROM_FAILED') */\n      tag_102\n        /* \"#utility.yul\":14096:14496   */\n      jump\n        /* \"contracts/libraries/TransferHelper.sol\":1214:1320  require(success && (data.length == 0 || abi.decode(data, (bool))), 'TransferHelper: TRANSFER_FROM_FAILED') */\n    tag_434:\n        /* \"contracts/libraries/TransferHelper.sol\":1017:1327  {... */\n      pop\n      pop\n        /* \"contracts/libraries/TransferHelper.sol\":929:1327  function safeTransferFrom(address token, address from, address to, uint value) internal {... */\n      pop\n      pop\n      pop\n      pop\n      jump\t// out\n        /* \"#utility.yul\":14:194   */\n    tag_25:\n        /* \"#utility.yul\":73:79   */\n      0x00\n        /* \"#utility.yul\":126:128   */\n      0x20\n        /* \"#utility.yul\":114:123   */\n      dup3\n        /* \"#utility.yul\":105:112   */\n      dup5\n        /* \"#utility.yul\":101:124   */\n      sub\n        /* \"#utility.yul\":97:129   */\n      slt\n        /* \"#utility.yul\":94:146   */\n      iszero\n      tag_443\n      jumpi\n        /* \"#utility.yul\":142:143   */\n      0x00\n        /* \"#utility.yul\":139:140   */\n      dup1\n        /* \"#utility.yul\":132:144   */\n      revert\n        /* \"#utility.yul\":94:146   */\n    tag_443:\n      pop\n        /* \"#utility.yul\":165:188   */\n      calldataload\n      swap2\n        /* \"#utility.yul\":14:194   */\n      swap1\n      pop\n      jump\t// out\n        /* \"#utility.yul\":826:999   */\n    tag_437:\n        /* \"#utility.yul\":894:914   */\n      dup1\n      calldataload\n      sub(shl(0xa0, 0x01), 0x01)\n        /* \"#utility.yul\":943:974   */\n      dup2\n      and\n        /* \"#utility.yul\":933:975   */\n      dup2\n      eq\n        /* \"#utility.yul\":923:993   */\n      tag_448\n      jumpi\n        /* \"#utility.yul\":989:990   */\n      0x00\n        /* \"#utility.yul\":986:987   */\n      dup1\n        /* \"#utility.yul\":979:991   */\n      revert\n        /* \"#utility.yul\":923:993   */\n    tag_448:\n        /* \"#utility.yul\":826:999   */\n      swap2\n      swap1\n      pop\n      jump\t// out\n        /* \"#utility.yul\":1004:1122   */\n    tag_438:\n        /* \"#utility.yul\":1090:1095   */\n      dup1\n        /* \"#utility.yul\":1083:1096   */\n      iszero\n        /* \"#utility.yul\":1076:1097   */\n      iszero\n        /* \"#utility.yul\":1069:1074   */\n      dup2\n        /* \"#utility.yul\":1066:1098   */\n      eq\n        /* \"#utility.yul\":1056:1116   */\n      tag_327\n      jumpi\n        /* \"#utility.yul\":1112:1113   */\n      0x00\n        /* \"#utility.yul\":1109:1110   */\n      dup1\n        /* \"#utility.yul\":1102:1114   */\n      revert\n        /* \"#utility.yul\":1127:1971   */\n    tag_59:\n        /* \"#utility.yul\":1268:1274   */\n      0x00\n        /* \"#utility.yul\":1276:1282   */\n      dup1\n        /* \"#utility.yul\":1284:1290   */\n      0x00\n        /* \"#utility.yul\":1292:1298   */\n      dup1\n        /* \"#utility.yul\":1300:1306   */\n      0x00\n        /* \"#utility.yul\":1308:1314   */\n      dup1\n        /* \"#utility.yul\":1316:1322   */\n      0x00\n        /* \"#utility.yul\":1324:1330   */\n      dup1\n        /* \"#utility.yul\":1377:1380   */\n      0x0100\n        /* \"#utility.yul\":1365:1374   */\n      dup10\n        /* \"#utility.yul\":1356:1363   */\n      dup12\n        /* \"#utility.yul\":1352:1375   */\n      sub\n        /* \"#utility.yul\":1348:1381   */\n      slt\n        /* \"#utility.yul\":1345:1398   */\n      iszero\n      tag_452\n      jumpi\n        /* \"#utility.yul\":1394:1395   */\n      0x00\n        /* \"#utility.yul\":1391:1392   */\n      dup1\n        /* \"#utility.yul\":1384:1396   */\n      revert\n        /* \"#utility.yul\":1345:1398   */\n    tag_452:\n        /* \"#utility.yul\":1433:1442   */\n      dup9\n        /* \"#utility.yul\":1420:1443   */\n      calldataload\n        /* \"#utility.yul\":1472:1473   */\n      0x03\n        /* \"#utility.yul\":1465:1470   */\n      dup2\n        /* \"#utility.yul\":1462:1474   */\n      lt\n        /* \"#utility.yul\":1452:1492   */\n      tag_453\n      jumpi\n        /* \"#utility.yul\":1488:1489   */\n      0x00\n        /* \"#utility.yul\":1485:1486   */\n      dup1\n        /* \"#utility.yul\":1478:1490   */\n      revert\n        /* \"#utility.yul\":1452:1492   */\n    tag_453:\n        /* \"#utility.yul\":1511:1516   */\n      swap8\n      pop\n        /* \"#utility.yul\":1535:1573   */\n      tag_454\n        /* \"#utility.yul\":1569:1571   */\n      0x20\n        /* \"#utility.yul\":1554:1572   */\n      dup11\n      add\n        /* \"#utility.yul\":1535:1573   */\n      tag_437\n      jump\t// in\n    tag_454:\n        /* \"#utility.yul\":1525:1573   */\n      swap7\n      pop\n        /* \"#utility.yul\":1592:1630   */\n      tag_455\n        /* \"#utility.yul\":1626:1628   */\n      0x40\n        /* \"#utility.yul\":1615:1624   */\n      dup11\n        /* \"#utility.yul\":1611:1629   */\n      add\n        /* \"#utility.yul\":1592:1630   */\n      tag_437\n      jump\t// in\n    tag_455:\n        /* \"#utility.yul\":1582:1630   */\n      swap6\n      pop\n        /* \"#utility.yul\":1677:1679   */\n      0x60\n        /* \"#utility.yul\":1666:1675   */\n      dup10\n        /* \"#utility.yul\":1662:1680   */\n      add\n        /* \"#utility.yul\":1649:1681   */\n      calldataload\n        /* \"#utility.yul\":1639:1681   */\n      swap5\n      pop\n        /* \"#utility.yul\":1728:1731   */\n      0x80\n        /* \"#utility.yul\":1717:1726   */\n      dup10\n        /* \"#utility.yul\":1713:1732   */\n      add\n        /* \"#utility.yul\":1700:1733   */\n      calldataload\n        /* \"#utility.yul\":1690:1733   */\n      swap4\n      pop\n        /* \"#utility.yul\":1780:1783   */\n      0xa0\n        /* \"#utility.yul\":1769:1778   */\n      dup10\n        /* \"#utility.yul\":1765:1784   */\n      add\n        /* \"#utility.yul\":1752:1785   */\n      calldataload\n        /* \"#utility.yul\":1742:1785   */\n      swap3\n      pop\n        /* \"#utility.yul\":1837:1840   */\n      0xc0\n        /* \"#utility.yul\":1826:1835   */\n      dup10\n        /* \"#utility.yul\":1822:1841   */\n      add\n        /* \"#utility.yul\":1809:1842   */\n      calldataload\n        /* \"#utility.yul\":1851:1881   */\n      tag_456\n        /* \"#utility.yul\":1873:1880   */\n      dup2\n        /* \"#utility.yul\":1851:1881   */\n      tag_438\n      jump\t// in\n    tag_456:\n        /* \"#utility.yul\":1900:1907   */\n      swap2\n      pop\n        /* \"#utility.yul\":1926:1965   */\n      tag_457\n        /* \"#utility.yul\":1960:1963   */\n      0xe0\n        /* \"#utility.yul\":1945:1964   */\n      dup11\n      add\n        /* \"#utility.yul\":1926:1965   */\n      tag_437\n      jump\t// in\n    tag_457:\n        /* \"#utility.yul\":1916:1965   */\n      swap1\n      pop\n        /* \"#utility.yul\":1127:1971   */\n      swap3\n      swap6\n      swap9\n      pop\n      swap3\n      swap6\n      swap9\n      swap1\n      swap4\n      swap7\n      pop\n      jump\t// out\n        /* \"#utility.yul\":1976:2103   */\n    tag_119:\n        /* \"#utility.yul\":2037:2047   */\n      0x4e487b71\n        /* \"#utility.yul\":2032:2035   */\n      0xe0\n        /* \"#utility.yul\":2028:2048   */\n      shl\n        /* \"#utility.yul\":2025:2026   */\n      0x00\n        /* \"#utility.yul\":2018:2049   */\n      mstore\n        /* \"#utility.yul\":2068:2072   */\n      0x21\n        /* \"#utility.yul\":2065:2066   */\n      0x04\n        /* \"#utility.yul\":2058:2073   */\n      mstore\n        /* \"#utility.yul\":2092:2096   */\n      0x24\n        /* \"#utility.yul\":2089:2090   */\n      0x00\n        /* \"#utility.yul\":2082:2097   */\n      revert\n        /* \"#utility.yul\":2108:2458   */\n    tag_69:\n        /* \"#utility.yul\":2262:2264   */\n      0x20\n        /* \"#utility.yul\":2247:2265   */\n      dup2\n      add\n        /* \"#utility.yul\":2295:2296   */\n      0x03\n        /* \"#utility.yul\":2284:2297   */\n      dup4\n      lt\n        /* \"#utility.yul\":2274:2418   */\n      tag_460\n      jumpi\n        /* \"#utility.yul\":2340:2350   */\n      0x4e487b71\n        /* \"#utility.yul\":2335:2338   */\n      0xe0\n        /* \"#utility.yul\":2331:2351   */\n      shl\n        /* \"#utility.yul\":2328:2329   */\n      0x00\n        /* \"#utility.yul\":2321:2352   */\n      mstore\n        /* \"#utility.yul\":2375:2379   */\n      0x21\n        /* \"#utility.yul\":2372:2373   */\n      0x04\n        /* \"#utility.yul\":2365:2380   */\n      mstore\n        /* \"#utility.yul\":2403:2407   */\n      0x24\n        /* \"#utility.yul\":2400:2401   */\n      0x00\n        /* \"#utility.yul\":2393:2408   */\n      revert\n        /* \"#utility.yul\":2274:2418   */\n    tag_460:\n        /* \"#utility.yul\":2427:2452   */\n      swap2\n      swap1\n      mstore\n        /* \"#utility.yul\":2108:2458   */\n      swap1\n      jump\t// out\n        /* \"#utility.yul\":2980:3415   */\n    tag_439:\n        /* \"#utility.yul\":3033:3036   */\n      0x00\n        /* \"#utility.yul\":3071:3076   */\n      dup2\n        /* \"#utility.yul\":3065:3077   */\n      mload\n        /* \"#utility.yul\":3098:3104   */\n      dup1\n        /* \"#utility.yul\":3093:3096   */\n      dup5\n        /* \"#utility.yul\":3086:3105   */\n      mstore\n        /* \"#utility.yul\":3124:3128   */\n      0x20\n        /* \"#utility.yul\":3153:3155   */\n      dup1\n        /* \"#utility.yul\":3148:3151   */\n      dup6\n        /* \"#utility.yul\":3144:3156   */\n      add\n        /* \"#utility.yul\":3137:3156   */\n      swap5\n      pop\n        /* \"#utility.yul\":3190:3192   */\n      dup1\n        /* \"#utility.yul\":3183:3188   */\n      dup5\n        /* \"#utility.yul\":3179:3193   */\n      add\n        /* \"#utility.yul\":3211:3212   */\n      0x00\n        /* \"#utility.yul\":3221:3390   */\n    tag_464:\n        /* \"#utility.yul\":3235:3241   */\n      dup4\n        /* \"#utility.yul\":3232:3233   */\n      dup2\n        /* \"#utility.yul\":3229:3242   */\n      lt\n        /* \"#utility.yul\":3221:3390   */\n      iszero\n      tag_466\n      jumpi\n        /* \"#utility.yul\":3296:3309   */\n      dup2\n      mload\n        /* \"#utility.yul\":3284:3310   */\n      dup8\n      mstore\n        /* \"#utility.yul\":3330:3342   */\n      swap6\n      dup3\n      add\n      swap6\n        /* \"#utility.yul\":3365:3380   */\n      swap1\n      dup3\n      add\n      swap1\n        /* \"#utility.yul\":3257:3258   */\n      0x01\n        /* \"#utility.yul\":3250:3259   */\n      add\n        /* \"#utility.yul\":3221:3390   */\n      jump(tag_464)\n    tag_466:\n      pop\n        /* \"#utility.yul\":3406:3409   */\n      swap5\n      swap6\n        /* \"#utility.yul\":2980:3415   */\n      swap5\n      pop\n      pop\n      pop\n      pop\n      pop\n      jump\t// out\n        /* \"#utility.yul\":3420:4457   */\n    tag_93:\n        /* \"#utility.yul\":3766:3768   */\n      0x60\n        /* \"#utility.yul\":3778:3799   */\n      dup1\n      dup3\n      mstore\n        /* \"#utility.yul\":3848:3861   */\n      dup5\n      mload\n        /* \"#utility.yul\":3751:3769   */\n      swap1\n      dup3\n      add\n        /* \"#utility.yul\":3870:3892   */\n      dup2\n      swap1\n      mstore\n        /* \"#utility.yul\":3718:3722   */\n      0x00\n      swap1\n        /* \"#utility.yul\":3946:3950   */\n      0x20\n      swap1\n        /* \"#utility.yul\":3923:3926   */\n      0x80\n        /* \"#utility.yul\":3908:3927   */\n      dup5\n      add\n      swap1\n        /* \"#utility.yul\":3973:3988   */\n      dup3\n      dup9\n      add\n        /* \"#utility.yul\":3718:3722   */\n      dup5\n        /* \"#utility.yul\":4016:4211   */\n    tag_468:\n        /* \"#utility.yul\":4030:4036   */\n      dup3\n        /* \"#utility.yul\":4027:4028   */\n      dup2\n        /* \"#utility.yul\":4024:4037   */\n      lt\n        /* \"#utility.yul\":4016:4211   */\n      iszero\n      tag_470\n      jumpi\n        /* \"#utility.yul\":4095:4108   */\n      dup2\n      mload\n      sub(shl(0xa0, 0x01), 0x01)\n        /* \"#utility.yul\":4091:4130   */\n      and\n        /* \"#utility.yul\":4079:4131   */\n      dup5\n      mstore\n        /* \"#utility.yul\":4151:4163   */\n      swap3\n      dup5\n      add\n      swap3\n        /* \"#utility.yul\":4186:4201   */\n      swap1\n      dup5\n      add\n      swap1\n        /* \"#utility.yul\":4127:4128   */\n      0x01\n        /* \"#utility.yul\":4045:4054   */\n      add\n        /* \"#utility.yul\":4016:4211   */\n      jump(tag_468)\n    tag_470:\n        /* \"#utility.yul\":4020:4023   */\n      pop\n      pop\n      pop\n        /* \"#utility.yul\":4256:4265   */\n      dup4\n        /* \"#utility.yul\":4251:4254   */\n      dup2\n        /* \"#utility.yul\":4247:4266   */\n      sub\n        /* \"#utility.yul\":4242:4244   */\n      dup3\n        /* \"#utility.yul\":4231:4240   */\n      dup6\n        /* \"#utility.yul\":4227:4245   */\n      add\n        /* \"#utility.yul\":4220:4267   */\n      mstore\n        /* \"#utility.yul\":4290:4331   */\n      tag_471\n        /* \"#utility.yul\":4327:4330   */\n      dup2\n        /* \"#utility.yul\":4319:4325   */\n      dup8\n        /* \"#utility.yul\":4290:4331   */\n      tag_439\n      jump\t// in\n    tag_471:\n        /* \"#utility.yul\":4276:4331   */\n      swap2\n      pop\n      pop\n        /* \"#utility.yul\":4379:4388   */\n      dup3\n        /* \"#utility.yul\":4371:4377   */\n      dup2\n        /* \"#utility.yul\":4367:4389   */\n      sub\n        /* \"#utility.yul\":4362:4364   */\n      0x40\n        /* \"#utility.yul\":4351:4360   */\n      dup5\n        /* \"#utility.yul\":4347:4365   */\n      add\n        /* \"#utility.yul\":4340:4390   */\n      mstore\n        /* \"#utility.yul\":4407:4451   */\n      tag_472\n        /* \"#utility.yul\":4444:4450   */\n      dup2\n        /* \"#utility.yul\":4436:4442   */\n      dup6\n        /* \"#utility.yul\":4407:4451   */\n      tag_439\n      jump\t// in\n    tag_472:\n        /* \"#utility.yul\":4399:4451   */\n      swap7\n        /* \"#utility.yul\":3420:4457   */\n      swap6\n      pop\n      pop\n      pop\n      pop\n      pop\n      pop\n      jump\t// out\n        /* \"#utility.yul\":4462:4648   */\n    tag_97:\n        /* \"#utility.yul\":4521:4527   */\n      0x00\n        /* \"#utility.yul\":4574:4576   */\n      0x20\n        /* \"#utility.yul\":4562:4571   */\n      dup3\n        /* \"#utility.yul\":4553:4560   */\n      dup5\n        /* \"#utility.yul\":4549:4572   */\n      sub\n        /* \"#utility.yul\":4545:4577   */\n      slt\n        /* \"#utility.yul\":4542:4594   */\n      iszero\n      tag_474\n      jumpi\n        /* \"#utility.yul\":4590:4591   */\n      0x00\n        /* \"#utility.yul\":4587:4588   */\n      dup1\n        /* \"#utility.yul\":4580:4592   */\n      revert\n        /* \"#utility.yul\":4542:4594   */\n    tag_474:\n        /* \"#utility.yul\":4613:4642   */\n      tag_475\n        /* \"#utility.yul\":4632:4641   */\n      dup3\n        /* \"#utility.yul\":4613:4642   */\n      tag_437\n      jump\t// in\n    tag_475:\n        /* \"#utility.yul\":4603:4642   */\n      swap4\n        /* \"#utility.yul\":4462:4648   */\n      swap3\n      pop\n      pop\n      pop\n      jump\t// out\n        /* \"#utility.yul\":4653:4999   */\n    tag_103:\n        /* \"#utility.yul\":4855:4857   */\n      0x20\n        /* \"#utility.yul\":4837:4858   */\n      dup1\n      dup3\n      mstore\n        /* \"#utility.yul\":4894:4896   */\n      0x16\n        /* \"#utility.yul\":4874:4892   */\n      swap1\n      dup3\n      add\n        /* \"#utility.yul\":4867:4897   */\n      mstore\n      shl(0x50, 0x537943726f774261727465723a20494e414354495645)\n        /* \"#utility.yul\":4928:4930   */\n      0x40\n        /* \"#utility.yul\":4913:4931   */\n      dup3\n      add\n        /* \"#utility.yul\":4906:4958   */\n      mstore\n        /* \"#utility.yul\":4990:4992   */\n      0x60\n        /* \"#utility.yul\":4975:4993   */\n      add\n      swap1\n        /* \"#utility.yul\":4653:4999   */\n      jump\t// out\n        /* \"#utility.yul\":5004:5357   */\n    tag_107:\n        /* \"#utility.yul\":5206:5208   */\n      0x20\n        /* \"#utility.yul\":5188:5209   */\n      dup1\n      dup3\n      mstore\n        /* \"#utility.yul\":5245:5247   */\n      0x1d\n        /* \"#utility.yul\":5225:5243   */\n      swap1\n      dup3\n      add\n        /* \"#utility.yul\":5218:5248   */\n      mstore\n        /* \"#utility.yul\":5284:5315   */\n      0x537943726f774261727465723a204e4f545f494e495449414c495a4544000000\n        /* \"#utility.yul\":5279:5281   */\n      0x40\n        /* \"#utility.yul\":5264:5282   */\n      dup3\n      add\n        /* \"#utility.yul\":5257:5316   */\n      mstore\n        /* \"#utility.yul\":5348:5350   */\n      0x60\n        /* \"#utility.yul\":5333:5351   */\n      add\n      swap1\n        /* \"#utility.yul\":5004:5357   */\n      jump\t// out\n        /* \"#utility.yul\":5362:5607   */\n    tag_112:\n        /* \"#utility.yul\":5429:5435   */\n      0x00\n        /* \"#utility.yul\":5482:5484   */\n      0x20\n        /* \"#utility.yul\":5470:5479   */\n      dup3\n        /* \"#utility.yul\":5461:5468   */\n      dup5\n        /* \"#utility.yul\":5457:5480   */\n      sub\n        /* \"#utility.yul\":5453:5485   */\n      slt\n        /* \"#utility.yul\":5450:5502   */\n      iszero\n      tag_479\n      jumpi\n        /* \"#utility.yul\":5498:5499   */\n      0x00\n        /* \"#utility.yul\":5495:5496   */\n      dup1\n        /* \"#utility.yul\":5488:5500   */\n      revert\n        /* \"#utility.yul\":5450:5502   */\n    tag_479:\n        /* \"#utility.yul\":5530:5539   */\n      dup2\n        /* \"#utility.yul\":5524:5540   */\n      mload\n        /* \"#utility.yul\":5549:5577   */\n      tag_475\n        /* \"#utility.yul\":5571:5576   */\n      dup2\n        /* \"#utility.yul\":5549:5577   */\n      tag_438\n      jump\t// in\n        /* \"#utility.yul\":5612:6010   */\n    tag_115:\n        /* \"#utility.yul\":5814:5816   */\n      0x20\n        /* \"#utility.yul\":5796:5817   */\n      dup1\n      dup3\n      mstore\n        /* \"#utility.yul\":5853:5855   */\n      0x22\n        /* \"#utility.yul\":5833:5851   */\n      swap1\n      dup3\n      add\n        /* \"#utility.yul\":5826:5856   */\n      mstore\n        /* \"#utility.yul\":5892:5926   */\n      0x537943726f774261727465723a204261736520436f6e74726163742050617573\n        /* \"#utility.yul\":5887:5889   */\n      0x40\n        /* \"#utility.yul\":5872:5890   */\n      dup3\n      add\n        /* \"#utility.yul\":5865:5927   */\n      mstore\n      shl(0xf2, 0x1959)\n        /* \"#utility.yul\":5958:5960   */\n      0x60\n        /* \"#utility.yul\":5943:5961   */\n      dup3\n      add\n        /* \"#utility.yul\":5936:5968   */\n      mstore\n        /* \"#utility.yul\":6000:6003   */\n      0x80\n        /* \"#utility.yul\":5985:6004   */\n      add\n      swap1\n        /* \"#utility.yul\":5612:6010   */\n      jump\t// out\n        /* \"#utility.yul\":6015:6412   */\n    tag_124:\n        /* \"#utility.yul\":6217:6219   */\n      0x20\n        /* \"#utility.yul\":6199:6220   */\n      dup1\n      dup3\n      mstore\n        /* \"#utility.yul\":6256:6258   */\n      0x21\n        /* \"#utility.yul\":6236:6254   */\n      swap1\n      dup3\n      add\n        /* \"#utility.yul\":6229:6259   */\n      mstore\n        /* \"#utility.yul\":6295:6329   */\n      0x537943726f774261727465723a20494e56414c49445f4241525445525f545950\n        /* \"#utility.yul\":6290:6292   */\n      0x40\n        /* \"#utility.yul\":6275:6293   */\n      dup3\n      add\n        /* \"#utility.yul\":6268:6330   */\n      mstore\n      shl(0xf8, 0x45)\n        /* \"#utility.yul\":6361:6363   */\n      0x60\n        /* \"#utility.yul\":6346:6364   */\n      dup3\n      add\n        /* \"#utility.yul\":6339:6370   */\n      mstore\n        /* \"#utility.yul\":6402:6405   */\n      0x80\n        /* \"#utility.yul\":6387:6406   */\n      add\n      swap1\n        /* \"#utility.yul\":6015:6412   */\n      jump\t// out\n        /* \"#utility.yul\":6417:6822   */\n    tag_129:\n        /* \"#utility.yul\":6619:6621   */\n      0x20\n        /* \"#utility.yul\":6601:6622   */\n      dup1\n      dup3\n      mstore\n        /* \"#utility.yul\":6658:6660   */\n      0x29\n        /* \"#utility.yul\":6638:6656   */\n      swap1\n      dup3\n      add\n        /* \"#utility.yul\":6631:6661   */\n      mstore\n        /* \"#utility.yul\":6697:6731   */\n      0x537943726f774261727465723a20414d4f554e545f4c4f5745525f5448414e5f\n        /* \"#utility.yul\":6692:6694   */\n      0x40\n        /* \"#utility.yul\":6677:6695   */\n      dup3\n      add\n        /* \"#utility.yul\":6670:6732   */\n      mstore\n      shl(0xba, 0x149154555492549151)\n        /* \"#utility.yul\":6763:6765   */\n      0x60\n        /* \"#utility.yul\":6748:6766   */\n      dup3\n      add\n        /* \"#utility.yul\":6741:6780   */\n      mstore\n        /* \"#utility.yul\":6812:6815   */\n      0x80\n        /* \"#utility.yul\":6797:6816   */\n      add\n      swap1\n        /* \"#utility.yul\":6417:6822   */\n      jump\t// out\n        /* \"#utility.yul\":7176:7532   */\n    tag_172:\n        /* \"#utility.yul\":7378:7380   */\n      0x20\n        /* \"#utility.yul\":7360:7381   */\n      dup1\n      dup3\n      mstore\n        /* \"#utility.yul\":7397:7415   */\n      dup2\n      dup2\n      add\n        /* \"#utility.yul\":7390:7420   */\n      mstore\n        /* \"#utility.yul\":7456:7490   */\n      0x4f776e61626c653a2063616c6c6572206973206e6f7420746865206f776e6572\n        /* \"#utility.yul\":7451:7453   */\n      0x40\n        /* \"#utility.yul\":7436:7454   */\n      dup3\n      add\n        /* \"#utility.yul\":7429:7491   */\n      mstore\n        /* \"#utility.yul\":7523:7525   */\n      0x60\n        /* \"#utility.yul\":7508:7526   */\n      add\n      swap1\n        /* \"#utility.yul\":7176:7532   */\n      jump\t// out\n        /* \"#utility.yul\":7537:7721   */\n    tag_178:\n        /* \"#utility.yul\":7607:7613   */\n      0x00\n        /* \"#utility.yul\":7660:7662   */\n      0x20\n        /* \"#utility.yul\":7648:7657   */\n      dup3\n        /* \"#utility.yul\":7639:7646   */\n      dup5\n        /* \"#utility.yul\":7635:7658   */\n      sub\n        /* \"#utility.yul\":7631:7663   */\n      slt\n        /* \"#utility.yul\":7628:7680   */\n      iszero\n      tag_487\n      jumpi\n        /* \"#utility.yul\":7676:7677   */\n      0x00\n        /* \"#utility.yul\":7673:7674   */\n      dup1\n        /* \"#utility.yul\":7666:7678   */\n      revert\n        /* \"#utility.yul\":7628:7680   */\n    tag_487:\n      pop\n        /* \"#utility.yul\":7699:7715   */\n      mload\n      swap2\n        /* \"#utility.yul\":7537:7721   */\n      swap1\n      pop\n      jump\t// out\n        /* \"#utility.yul\":7726:8173   */\n    tag_212:\n      sub(shl(0xa0, 0x01), 0x01)\n        /* \"#utility.yul\":8013:8028   */\n      swap5\n      dup6\n      and\n        /* \"#utility.yul\":7995:8029   */\n      dup2\n      mstore\n        /* \"#utility.yul\":8065:8080   */\n      swap3\n      swap1\n      swap4\n      and\n        /* \"#utility.yul\":8060:8062   */\n      0x20\n        /* \"#utility.yul\":8045:8063   */\n      dup4\n      add\n        /* \"#utility.yul\":8038:8081   */\n      mstore\n        /* \"#utility.yul\":8112:8114   */\n      0x40\n        /* \"#utility.yul\":8097:8115   */\n      dup3\n      add\n        /* \"#utility.yul\":8090:8124   */\n      mstore\n        /* \"#utility.yul\":8155:8157   */\n      0x60\n        /* \"#utility.yul\":8140:8158   */\n      dup2\n      add\n        /* \"#utility.yul\":8133:8167   */\n      swap2\n      swap1\n      swap2\n      mstore\n        /* \"#utility.yul\":7944:7947   */\n      0x80\n        /* \"#utility.yul\":7929:7948   */\n      add\n      swap1\n        /* \"#utility.yul\":7726:8173   */\n      jump\t// out\n        /* \"#utility.yul\":9683:9810   */\n    tag_440:\n        /* \"#utility.yul\":9744:9754   */\n      0x4e487b71\n        /* \"#utility.yul\":9739:9742   */\n      0xe0\n        /* \"#utility.yul\":9735:9755   */\n      shl\n        /* \"#utility.yul\":9732:9733   */\n      0x00\n        /* \"#utility.yul\":9725:9756   */\n      mstore\n        /* \"#utility.yul\":9775:9779   */\n      0x11\n        /* \"#utility.yul\":9772:9773   */\n      0x04\n        /* \"#utility.yul\":9765:9780   */\n      mstore\n        /* \"#utility.yul\":9799:9803   */\n      0x24\n        /* \"#utility.yul\":9796:9797   */\n      0x00\n        /* \"#utility.yul\":9789:9804   */\n      revert\n        /* \"#utility.yul\":9815:9983   */\n    tag_280:\n        /* \"#utility.yul\":9855:9862   */\n      0x00\n        /* \"#utility.yul\":9921:9922   */\n      dup2\n        /* \"#utility.yul\":9917:9918   */\n      0x00\n        /* \"#utility.yul\":9913:9919   */\n      not\n        /* \"#utility.yul\":9909:9923   */\n      div\n        /* \"#utility.yul\":9906:9907   */\n      dup4\n        /* \"#utility.yul\":9903:9924   */\n      gt\n        /* \"#utility.yul\":9898:9899   */\n      dup3\n        /* \"#utility.yul\":9891:9900   */\n      iszero\n        /* \"#utility.yul\":9884:9901   */\n      iszero\n        /* \"#utility.yul\":9880:9925   */\n      and\n        /* \"#utility.yul\":9877:9948   */\n      iszero\n      tag_496\n      jumpi\n        /* \"#utility.yul\":9928:9946   */\n      tag_496\n      tag_440\n      jump\t// in\n    tag_496:\n      pop\n        /* \"#utility.yul\":9968:9977   */\n      mul\n      swap1\n        /* \"#utility.yul\":9815:9983   */\n      jump\t// out\n        /* \"#utility.yul\":9988:10205   */\n    tag_282:\n        /* \"#utility.yul\":10028:10029   */\n      0x00\n        /* \"#utility.yul\":10054:10055   */\n      dup3\n        /* \"#utility.yul\":10044:10176   */\n      tag_498\n      jumpi\n        /* \"#utility.yul\":10098:10108   */\n      0x4e487b71\n        /* \"#utility.yul\":10093:10096   */\n      0xe0\n        /* \"#utility.yul\":10089:10109   */\n      shl\n        /* \"#utility.yul\":10086:10087   */\n      0x00\n        /* \"#utility.yul\":10079:10110   */\n      mstore\n        /* \"#utility.yul\":10133:10137   */\n      0x12\n        /* \"#utility.yul\":10130:10131   */\n      0x04\n        /* \"#utility.yul\":10123:10138   */\n      mstore\n        /* \"#utility.yul\":10161:10165   */\n      0x24\n        /* \"#utility.yul\":10158:10159   */\n      0x00\n        /* \"#utility.yul\":10151:10166   */\n      revert\n        /* \"#utility.yul\":10044:10176   */\n    tag_498:\n      pop\n        /* \"#utility.yul\":10190:10199   */\n      div\n      swap1\n        /* \"#utility.yul\":9988:10205   */\n      jump\t// out\n        /* \"#utility.yul\":10210:10337   */\n    tag_289:\n        /* \"#utility.yul\":10271:10281   */\n      0x4e487b71\n        /* \"#utility.yul\":10266:10269   */\n      0xe0\n        /* \"#utility.yul\":10262:10282   */\n      shl\n        /* \"#utility.yul\":10259:10260   */\n      0x00\n        /* \"#utility.yul\":10252:10283   */\n      mstore\n        /* \"#utility.yul\":10302:10306   */\n      0x41\n        /* \"#utility.yul\":10299:10300   */\n      0x04\n        /* \"#utility.yul\":10292:10307   */\n      mstore\n        /* \"#utility.yul\":10326:10330   */\n      0x24\n        /* \"#utility.yul\":10323:10324   */\n      0x00\n        /* \"#utility.yul\":10316:10331   */\n      revert\n        /* \"#utility.yul\":10342:10469   */\n    tag_302:\n        /* \"#utility.yul\":10403:10413   */\n      0x4e487b71\n        /* \"#utility.yul\":10398:10401   */\n      0xe0\n        /* \"#utility.yul\":10394:10414   */\n      shl\n        /* \"#utility.yul\":10391:10392   */\n      0x00\n        /* \"#utility.yul\":10384:10415   */\n      mstore\n        /* \"#utility.yul\":10434:10438   */\n      0x32\n        /* \"#utility.yul\":10431:10432   */\n      0x04\n        /* \"#utility.yul\":10424:10439   */\n      mstore\n        /* \"#utility.yul\":10458:10462   */\n      0x24\n        /* \"#utility.yul\":10455:10456   */\n      0x00\n        /* \"#utility.yul\":10448:10463   */\n      revert\n        /* \"#utility.yul\":10474:10609   */\n    tag_317:\n        /* \"#utility.yul\":10513:10516   */\n      0x00\n        /* \"#utility.yul\":10534:10551   */\n      0x01\n      dup3\n      add\n        /* \"#utility.yul\":10531:10574   */\n      tag_503\n      jumpi\n        /* \"#utility.yul\":10554:10572   */\n      tag_503\n      tag_440\n      jump\t// in\n    tag_503:\n      pop\n        /* \"#utility.yul\":10601:10602   */\n      0x01\n        /* \"#utility.yul\":10590:10603   */\n      add\n      swap1\n        /* \"#utility.yul\":10474:10609   */\n      jump\t// out\n        /* \"#utility.yul\":11021:11419   */\n    tag_335:\n        /* \"#utility.yul\":11223:11225   */\n      0x20\n        /* \"#utility.yul\":11205:11226   */\n      dup1\n      dup3\n      mstore\n        /* \"#utility.yul\":11262:11264   */\n      0x22\n        /* \"#utility.yul\":11242:11260   */\n      swap1\n      dup3\n      add\n        /* \"#utility.yul\":11235:11265   */\n      mstore\n        /* \"#utility.yul\":11301:11335   */\n      0x537943726f774261727465723a20494e53554646494349454e545f42414c414e\n        /* \"#utility.yul\":11296:11298   */\n      0x40\n        /* \"#utility.yul\":11281:11299   */\n      dup3\n      add\n        /* \"#utility.yul\":11274:11336   */\n      mstore\n      shl(0xf0, 0x4345)\n        /* \"#utility.yul\":11367:11369   */\n      0x60\n        /* \"#utility.yul\":11352:11370   */\n      dup3\n      add\n        /* \"#utility.yul\":11345:11377   */\n      mstore\n        /* \"#utility.yul\":11409:11412   */\n      0x80\n        /* \"#utility.yul\":11394:11413   */\n      add\n      swap1\n        /* \"#utility.yul\":11021:11419   */\n      jump\t// out\n        /* \"#utility.yul\":11424:11831   */\n    tag_343:\n        /* \"#utility.yul\":11626:11628   */\n      0x20\n        /* \"#utility.yul\":11608:11629   */\n      dup1\n      dup3\n      mstore\n        /* \"#utility.yul\":11665:11667   */\n      0x2b\n        /* \"#utility.yul\":11645:11663   */\n      swap1\n      dup3\n      add\n        /* \"#utility.yul\":11638:11668   */\n      mstore\n        /* \"#utility.yul\":11704:11738   */\n      0x537943726f774261727465723a20494e53554646494349454e545f434f4e5452\n        /* \"#utility.yul\":11699:11701   */\n      0x40\n        /* \"#utility.yul\":11684:11702   */\n      dup3\n      add\n        /* \"#utility.yul\":11677:11739   */\n      mstore\n      shl(0xa8, 0x4143545f42414c414e4345)\n        /* \"#utility.yul\":11770:11772   */\n      0x60\n        /* \"#utility.yul\":11755:11773   */\n      dup3\n      add\n        /* \"#utility.yul\":11748:11789   */\n      mstore\n        /* \"#utility.yul\":11821:11824   */\n      0x80\n        /* \"#utility.yul\":11806:11825   */\n      add\n      swap1\n        /* \"#utility.yul\":11424:11831   */\n      jump\t// out\n        /* \"#utility.yul\":11836:12262   */\n    tag_383:\n        /* \"#utility.yul\":11965:11968   */\n      0x00\n        /* \"#utility.yul\":12003:12009   */\n      dup3\n        /* \"#utility.yul\":11997:12010   */\n      mload\n        /* \"#utility.yul\":12028:12029   */\n      0x00\n        /* \"#utility.yul\":12038:12167   */\n    tag_508:\n        /* \"#utility.yul\":12052:12058   */\n      dup2\n        /* \"#utility.yul\":12049:12050   */\n      dup2\n        /* \"#utility.yul\":12046:12059   */\n      lt\n        /* \"#utility.yul\":12038:12167   */\n      iszero\n      tag_510\n      jumpi\n        /* \"#utility.yul\":12150:12154   */\n      0x20\n        /* \"#utility.yul\":12134:12148   */\n      dup2\n      dup7\n      add\n        /* \"#utility.yul\":12130:12155   */\n      dup2\n      add\n        /* \"#utility.yul\":12124:12156   */\n      mload\n        /* \"#utility.yul\":12111:12122   */\n      dup6\n      dup4\n      add\n        /* \"#utility.yul\":12104:12157   */\n      mstore\n        /* \"#utility.yul\":12067:12079   */\n      add\n        /* \"#utility.yul\":12038:12167   */\n      jump(tag_508)\n    tag_510:\n        /* \"#utility.yul\":12185:12191   */\n      dup2\n        /* \"#utility.yul\":12182:12183   */\n      dup2\n        /* \"#utility.yul\":12179:12192   */\n      gt\n        /* \"#utility.yul\":12176:12224   */\n      iszero\n      tag_511\n      jumpi\n        /* \"#utility.yul\":12220:12221   */\n      0x00\n        /* \"#utility.yul\":12211:12217   */\n      dup3\n        /* \"#utility.yul\":12206:12209   */\n      dup6\n        /* \"#utility.yul\":12202:12218   */\n      add\n        /* \"#utility.yul\":12195:12222   */\n      mstore\n        /* \"#utility.yul\":12176:12224   */\n    tag_511:\n      pop\n        /* \"#utility.yul\":12240:12256   */\n      swap2\n      swap1\n      swap2\n      add\n      swap3\n        /* \"#utility.yul\":11836:12262   */\n      swap2\n      pop\n      pop\n      jump\t// out\n\n    auxdata: 0xa26469706673582212206e17f5b376c45a4c55518b2e92c4bef6ae05d7b30d0677e4d081d01e6714156364736f6c634300080d0033\n}\n",
				"bytecode": {
					"linkReferences": {},
					"object": "60a06040526003805460ff60a81b1916905534801561001d57600080fd5b5061002733610030565b33608052610080565b600080546001600160a01b038381166001600160a01b0319831681178455604051919092169283917f8be0079c531659141344cd1fd0a4f28419497f9722a3daafe3b4186f6b6457e09190a35050565b6080516121516100cc600039600081816102dc015281816103c90152818161054a0152818161097e01528181610a9601528181610bc10152818161142f01526116c201526121516000f3fe6080604052600436106100fe5760003560e01c80635f5780e511610095578063aa6ca80811610064578063aa6ca80814610295578063c45a0155146102ca578063dab5a8df146102fe578063e43372e91461031e578063f2fde38b1461034257600080fd5b80635f5780e514610207578063715018a614610227578063895237421461023c5780638da5cb5b1461026357600080fd5b80633ccfd60b116100d15780633ccfd60b1461019f5780633d370b4e146101b457806340a6f1ab146101de5780634341f920146101f457600080fd5b80630d1826051461010357806329dcb0cf146101255780632ffc68871461014e5780633072cf601461016e575b600080fd5b34801561010f57600080fd5b5061012361011e366004611c13565b610362565b005b34801561013157600080fd5b5061013b60025481565b6040519081526020015b60405180910390f35b34801561015a57600080fd5b50610123610169366004611c13565b6104ec565b34801561017a57600080fd5b5060035461018f90600160a81b900460ff1681565b6040519015158152602001610145565b3480156101ab57600080fd5b50610123610667565b3480156101c057600080fd5b506101c96109fe565b60408051928352602083019190915201610145565b3480156101ea57600080fd5b5061013b60015481565b610123610202366004611c13565b610a38565b34801561021357600080fd5b5061018f610222366004611c56565b610bb4565b34801561023357600080fd5b50610123610e55565b34801561024857600080fd5b506003546102569060ff1681565b6040516101459190611cf6565b34801561026f57600080fd5b506000546001600160a01b03165b6040516001600160a01b039091168152602001610145565b3480156102a157600080fd5b506102aa610e8b565b604080516001600160a01b03938416815292909116602083015201610145565b3480156102d657600080fd5b5061027d7f000000000000000000000000000000000000000000000000000000000000000081565b34801561030a57600080fd5b5061013b610319366004611c13565b610ed2565b34801561032a57600080fd5b50610333610ef5565b60405161014593929190611d59565b34801561034e57600080fd5b5061012361035d366004611dce565b61111b565b42600254101580156103775750600754600154105b61039c5760405162461bcd60e51b815260040161039390611df0565b60405180910390fd5b600354600160a81b900460ff166103c55760405162461bcd60e51b815260040161039390611e20565b60007f00000000000000000000000000000000000000000000000000000000000000009050806001600160a01b031663b187bd266040518163ffffffff1660e01b8152600401602060405180830381865afa158015610428573d6000803e3d6000fd5b505050506040513d601f19601f8201168201806040525081019061044c9190611e57565b156104695760405162461bcd60e51b815260040161039390611e74565b60035460009060ff16600281111561048357610483611ce0565b81600281111561049557610495611ce0565b146104b25760405162461bcd60e51b815260040161039390611eb6565b60085460ff166104de576007548310156104de5760405162461bcd60e51b815260040161039390611ef7565b6104e7836111b6565b505050565b42600254101580156105015750600754600154105b61051d5760405162461bcd60e51b815260040161039390611df0565b600354600160a81b900460ff166105465760405162461bcd60e51b815260040161039390611e20565b60007f00000000000000000000000000000000000000000000000000000000000000009050806001600160a01b031663b187bd266040518163ffffffff1660e01b8152600401602060405180830381865afa1580156105a9573d6000803e3d6000fd5b505050506040513d601f19601f820116820180604052508101906105cd9190611e57565b156105ea5760405162461bcd60e51b815260040161039390611e74565b60035460029060ff168181111561060357610603611ce0565b81600281111561061557610615611ce0565b146106325760405162461bcd60e51b815260040161039390611eb6565b60085460ff1661065e5760075483101561065e5760405162461bcd60e51b815260040161039390611ef7565b6104e7836114a3565b42600254108061067b575060075460015410155b6106be5760405162461bcd60e51b8152602060048201526014602482015273537943726f774261727465723a2041435449564560601b6044820152606401610393565b600354600160a81b900460ff166106e75760405162461bcd60e51b815260040161039390611e20565b6000546001600160a01b031633146107115760405162461bcd60e51b815260040161039390611f40565b6003546040516370a0823160e01b81523060048201526101009091046001600160a01b03169060009082906370a0823190602401602060405180830381865afa158015610762573d6000803e3d6000fd5b505050506040513d601f19601f820116820180604052508101906107869190611f75565b905080156107fa57600354604051632e1a7d4d60e01b8152600481018390526101009091046001600160a01b031690632e1a7d4d90602401600060405180830381600087803b1580156107d857600080fd5b505af11580156107ec573d6000803e3d6000fd5b505050506107fa3382611735565b6005546040516370a0823160e01b81523060048201526000916001600160a01b0316906370a0823190602401602060405180830381865afa158015610843573d6000803e3d6000fd5b505050506040513d601f19601f820116820180604052508101906108679190611f75565b9050801561088657600554610886906001600160a01b031633836117fe565b600480546040516370a0823160e01b815230928101929092526000916001600160a01b03909116906370a0823190602401602060405180830381865afa1580156108d4573d6000803e3d6000fd5b505050506040513d601f19601f820116820180604052508101906108f89190611f75565b9050801561091757600454610917906001600160a01b031633836117fe565b6000808060035460ff16600281111561093257610932611ce0565b0361094157508390508261096f565b600260035460ff16600281111561095a5761095a611ce0565b0361096957508190508261096f565b50819050835b6040516319bcb50760e11b81527f0000000000000000000000000000000000000000000000000000000000000000906001600160a01b038216906333796a0e906109c3903090339088908890600401611f8e565b600060405180830381600087803b1580156109dd57600080fd5b505af11580156109f1573d6000803e3d6000fd5b5050505050505050505050565b6003546000908190600160a81b900460ff16610a2c5760405162461bcd60e51b815260040161039390611e20565b50506006546007549091565b4260025410158015610a4d5750600754600154105b610a695760405162461bcd60e51b815260040161039390611df0565b600354600160a81b900460ff16610a925760405162461bcd60e51b815260040161039390611e20565b60007f00000000000000000000000000000000000000000000000000000000000000009050806001600160a01b031663b187bd266040518163ffffffff1660e01b8152600401602060405180830381865afa158015610af5573d6000803e3d6000fd5b505050506040513d601f19601f82011682018060405250810190610b199190611e57565b15610b365760405162461bcd60e51b815260040161039390611e74565b60035460019060ff166002811115610b5057610b50611ce0565b816002811115610b6257610b62611ce0565b14610b7f5760405162461bcd60e51b815260040161039390611eb6565b60085460ff16610bab57600754341015610bab5760405162461bcd60e51b815260040161039390611ef7565b6104e783611919565b6000336001600160a01b037f00000000000000000000000000000000000000000000000000000000000000001614610c2e5760405162461bcd60e51b815260206004820152601760248201527f537943726f774261727465723a20464f5242494444454e0000000000000000006044820152606401610393565b600354600160a81b900460ff1615610c925760405162461bcd60e51b815260206004820152602160248201527f537943726f774261727465723a20414c52454144595f494e495449414c495a456044820152601160fa1b6064820152608401610393565b42841015610cd85760405162461bcd60e51b8152602060048201526013602482015272537943726f774261727465723a20504153545f60681b6044820152606401610393565b6040516370a0823160e01b815230600482015286906001600160a01b038a16906370a0823190602401602060405180830381865afa158015610d1e573d6000803e3d6000fd5b505050506040513d601f19601f82011682018060405250810190610d429190611f75565b1015610d9b5760405162461bcd60e51b815260206004820152602260248201527f537943726f774261727465723a20494e53554646494349454e545f4445504f53604482015261125560f21b6064820152608401610393565b6002848155600480546001600160a01b03808c166001600160a01b03199283161790925560058054928b169290911691909117905560068790556007869055600380548b9260ff19909116906001908490811115610dfb57610dfb611ce0565b0217905550506008805483151560ff199091161790556003805460ff60a81b196001600160a01b0384166101000216610100600160b01b031990911617600160a81b90811791829055900460ff1698975050505050505050565b6000546001600160a01b03163314610e7f5760405162461bcd60e51b815260040161039390611f40565b610e896000611a93565b565b6003546000908190600160a81b900460ff16610eb95760405162461bcd60e51b815260040161039390611e20565b50506004546005546001600160a01b0391821691169091565b600060075460065483610ee59190611fcd565b610eef9190611fec565b92915050565b6060806060600360159054906101000a900460ff16610f265760405162461bcd60e51b815260040161039390611e20565b60095460009067ffffffffffffffff811115610f4457610f4461200e565b604051908082528060200260200182016040528015610f6d578160200160208202803683370190505b5060095490915060009067ffffffffffffffff811115610f8f57610f8f61200e565b604051908082528060200260200182016040528015610fb8578160200160208202803683370190505b5060095490915060009067ffffffffffffffff811115610fda57610fda61200e565b604051908082528060200260200182016040528015611003578160200160208202803683370190505b50905060005b60095481101561110e576009818154811061102657611026612024565b600091825260209091206003909102015484516001600160a01b039091169085908390811061105757611057612024565b60200260200101906001600160a01b031690816001600160a01b0316815250506009818154811061108a5761108a612024565b9060005260206000209060030201600101548382815181106110ae576110ae612024565b602002602001018181525050600981815481106110cd576110cd612024565b9060005260206000209060030201600201548282815181106110f1576110f1612024565b6020908102919091010152806111068161203a565b915050611009565b5091945092509050909192565b6000546001600160a01b031633146111455760405162461bcd60e51b815260040161039390611f40565b6001600160a01b0381166111aa5760405162461bcd60e51b815260206004820152602660248201527f4f776e61626c653a206e6577206f776e657220697320746865207a65726f206160448201526564647265737360d01b6064820152608401610393565b6111b381611a93565b50565b6005546040516370a0823160e01b815233600482015282916001600160a01b0316906370a0823190602401602060405180830381865afa1580156111fe573d6000803e3d6000fd5b505050506040513d601f19601f820116820180604052508101906112229190611f75565b10156112405760405162461bcd60e51b815260040161039390612053565b600061124b82610ed2565b6003546040516370a0823160e01b815230600482015291925061010090046001600160a01b031690829082906370a0823190602401602060405180830381865afa15801561129d573d6000803e3d6000fd5b505050506040513d601f19601f820116820180604052508101906112c19190611f75565b10156112df5760405162461bcd60e51b815260040161039390612095565b600354604051632e1a7d4d60e01b8152600481018490526101009091046001600160a01b031690632e1a7d4d90602401600060405180830381600087803b15801561132957600080fd5b505af115801561133d573d6000803e3d6000fd5b505060055461135a92506001600160a01b03169050333086611ae3565b6113643383611735565b60408051606081018252338082526020820186815282840186815260098054600181018255600091909152935160039094027f6e1540171b6c0c960b71a7020d9f60077f6af931a8bbf590da0223dacf75c7af810180546001600160a01b039687166001600160a01b031990911617905591517f6e1540171b6c0c960b71a7020d9f60077f6af931a8bbf590da0223dacf75c7b0830155517f6e1540171b6c0c960b71a7020d9f60077f6af931a8bbf590da0223dacf75c7b190910155915163f52701b760e01b81527f0000000000000000000000000000000000000000000000000000000000000000929183169163f52701b79161146b91309189908990600401611f8e565b600060405180830381600087803b15801561148557600080fd5b505af1158015611499573d6000803e3d6000fd5b5050505050505050565b6005546040516370a0823160e01b815233600482015282916001600160a01b0316906370a0823190602401602060405180830381865afa1580156114eb573d6000803e3d6000fd5b505050506040513d601f19601f8201168201806040525081019061150f9190611f75565b101561152d5760405162461bcd60e51b815260040161039390612053565b600061153882610ed2565b600480546040516370a0823160e01b8152309281019290925291925082916001600160a01b0316906370a0823190602401602060405180830381865afa158015611586573d6000803e3d6000fd5b505050506040513d601f19601f820116820180604052508101906115aa9190611f75565b10156115c85760405162461bcd60e51b815260040161039390612095565b6005546115e0906001600160a01b0316333085611ae3565b6004546115f7906001600160a01b031633836117fe565b60408051606081018252338082526020820185815282840185815260098054600181018255600091909152935160039094027f6e1540171b6c0c960b71a7020d9f60077f6af931a8bbf590da0223dacf75c7af810180546001600160a01b039687166001600160a01b031990911617905591517f6e1540171b6c0c960b71a7020d9f60077f6af931a8bbf590da0223dacf75c7b0830155517f6e1540171b6c0c960b71a7020d9f60077f6af931a8bbf590da0223dacf75c7b190910155915163f52701b760e01b81527f0000000000000000000000000000000000000000000000000000000000000000929183169163f52701b7916116fe91309188908890600401611f8e565b600060405180830381600087803b15801561171857600080fd5b505af115801561172c573d6000803e3d6000fd5b50505050505050565b604080516000808252602082019092526001600160a01b03841690839060405161175f91906120e0565b60006040518083038185875af1925050503d806000811461179c576040519150601f19603f3d011682016040523d82523d6000602084013e6117a1565b606091505b50509050806104e75760405162461bcd60e51b815260206004820152602360248201527f5472616e7366657248656c7065723a204554485f5452414e534645525f46414960448201526213115160ea1b6064820152608401610393565b604080516001600160a01b038481166024830152604480830185905283518084039091018152606490920183526020820180516001600160e01b031663a9059cbb60e01b179052915160009283929087169161185a91906120e0565b6000604051808303816000865af19150503d8060008114611897576040519150601f19603f3d011682016040523d82523d6000602084013e61189c565b606091505b50915091508180156118c65750805115806118c65750808060200190518101906118c69190611e57565b6119125760405162461bcd60e51b815260206004820152601f60248201527f5472616e7366657248656c7065723a205452414e534645525f4641494c4544006044820152606401610393565b5050505050565b3481146119765760405162461bcd60e51b815260206004820152602560248201527f537943726f774261727465723a204d554c54495f54524144455f4e4f545f454e604482015264105093115160da1b6064820152608401610393565b600061198182610ed2565b600480546040516370a0823160e01b8152309281019290925291925082916001600160a01b0316906370a0823190602401602060405180830381865afa1580156119cf573d6000803e3d6000fd5b505050506040513d601f19601f820116820180604052508101906119f39190611f75565b1015611a115760405162461bcd60e51b815260040161039390612095565b600360019054906101000a90046001600160a01b03166001600160a01b031663d0e30db0836040518263ffffffff1660e01b81526004016000604051808303818588803b158015611a6157600080fd5b505af1158015611a75573d6000803e3d6000fd5b50506004546115f793506001600160a01b03169150339050836117fe565b600080546001600160a01b038381166001600160a01b0319831681178455604051919092169283917f8be0079c531659141344cd1fd0a4f28419497f9722a3daafe3b4186f6b6457e09190a35050565b604080516001600160a01b0385811660248301528481166044830152606480830185905283518084039091018152608490920183526020820180516001600160e01b03166323b872dd60e01b1790529151600092839290881691611b4791906120e0565b6000604051808303816000865af19150503d8060008114611b84576040519150601f19603f3d011682016040523d82523d6000602084013e611b89565b606091505b5091509150818015611bb3575080511580611bb3575080806020019051810190611bb39190611e57565b611c0b5760405162461bcd60e51b8152602060048201526024808201527f5472616e7366657248656c7065723a205452414e534645525f46524f4d5f46416044820152631253115160e21b6064820152608401610393565b505050505050565b600060208284031215611c2557600080fd5b5035919050565b80356001600160a01b0381168114611c4357600080fd5b919050565b80151581146111b357600080fd5b600080600080600080600080610100898b031215611c7357600080fd5b883560038110611c8257600080fd5b9750611c9060208a01611c2c565b9650611c9e60408a01611c2c565b9550606089013594506080890135935060a0890135925060c0890135611cc381611c48565b9150611cd160e08a01611c2c565b90509295985092959890939650565b634e487b7160e01b600052602160045260246000fd5b6020810160038310611d1857634e487b7160e01b600052602160045260246000fd5b91905290565b600081518084526020808501945080840160005b83811015611d4e57815187529582019590820190600101611d32565b509495945050505050565b606080825284519082018190526000906020906080840190828801845b82811015611d9b5781516001600160a01b031684529284019290840190600101611d76565b50505083810382850152611daf8187611d1e565b9150508281036040840152611dc48185611d1e565b9695505050505050565b600060208284031215611de057600080fd5b611de982611c2c565b9392505050565b602080825260169082015275537943726f774261727465723a20494e41435449564560501b604082015260600190565b6020808252601d908201527f537943726f774261727465723a204e4f545f494e495449414c495a4544000000604082015260600190565b600060208284031215611e6957600080fd5b8151611de981611c48565b60208082526022908201527f537943726f774261727465723a204261736520436f6e74726163742050617573604082015261195960f21b606082015260800190565b60208082526021908201527f537943726f774261727465723a20494e56414c49445f4241525445525f5459506040820152604560f81b606082015260800190565b60208082526029908201527f537943726f774261727465723a20414d4f554e545f4c4f5745525f5448414e5f60408201526814915455549254915160ba1b606082015260800190565b6020808252818101527f4f776e61626c653a2063616c6c6572206973206e6f7420746865206f776e6572604082015260600190565b600060208284031215611f8757600080fd5b5051919050565b6001600160a01b0394851681529290931660208301526040820152606081019190915260800190565b634e487b7160e01b600052601160045260246000fd5b6000816000190483118215151615611fe757611fe7611fb7565b500290565b60008261200957634e487b7160e01b600052601260045260246000fd5b500490565b634e487b7160e01b600052604160045260246000fd5b634e487b7160e01b600052603260045260246000fd5b60006001820161204c5761204c611fb7565b5060010190565b60208082526022908201527f537943726f774261727465723a20494e53554646494349454e545f42414c414e604082015261434560f01b606082015260800190565b6020808252602b908201527f537943726f774261727465723a20494e53554646494349454e545f434f4e545260408201526a4143545f42414c414e434560a81b606082015260800190565b6000825160005b8181101561210157602081860181015185830152016120e7565b81811115612110576000828501525b50919091019291505056fea26469706673582212206e17f5b376c45a4c55518b2e92c4bef6ae05d7b30d0677e4d081d01e6714156364736f6c634300080d0033",
					"opcodes": "PUSH1 0xA0 PUSH1 0x40 MSTORE PUSH1 0x3 DUP1 SLOAD PUSH1 0xFF PUSH1 0xA8 SHL NOT AND SWAP1 SSTORE CALLVALUE DUP1 ISZERO PUSH2 0x1D JUMPI PUSH1 0x0 DUP1 REVERT JUMPDEST POP PUSH2 0x27 CALLER PUSH2 0x30 JUMP JUMPDEST CALLER PUSH1 0x80 MSTORE PUSH2 0x80 JUMP JUMPDEST PUSH1 0x0 DUP1 SLOAD PUSH1 0x1 PUSH1 0x1 PUSH1 0xA0 SHL SUB DUP4 DUP2 AND PUSH1 0x1 PUSH1 0x1 PUSH1 0xA0 SHL SUB NOT DUP4 AND DUP2 OR DUP5 SSTORE PUSH1 0x40 MLOAD SWAP2 SWAP1 SWAP3 AND SWAP3 DUP4 SWAP2 PUSH32 0x8BE0079C531659141344CD1FD0A4F28419497F9722A3DAAFE3B4186F6B6457E0 SWAP2 SWAP1 LOG3 POP POP JUMP JUMPDEST PUSH1 0x80 MLOAD PUSH2 0x2151 PUSH2 0xCC PUSH1 0x0 CODECOPY PUSH1 0x0 DUP2 DUP2 PUSH2 0x2DC ADD MSTORE DUP2 DUP2 PUSH2 0x3C9 ADD MSTORE DUP2 DUP2 PUSH2 0x54A ADD MSTORE DUP2 DUP2 PUSH2 0x97E ADD MSTORE DUP2 DUP2 PUSH2 0xA96 ADD MSTORE DUP2 DUP2 PUSH2 0xBC1 ADD MSTORE DUP2 DUP2 PUSH2 0x142F ADD MSTORE PUSH2 0x16C2 ADD MSTORE PUSH2 0x2151 PUSH1 0x0 RETURN INVALID PUSH1 0x80 PUSH1 0x40 MSTORE PUSH1 0x4 CALLDATASIZE LT PUSH2 0xFE JUMPI PUSH1 0x0 CALLDATALOAD PUSH1 0xE0 SHR DUP1 PUSH4 0x5F5780E5 GT PUSH2 0x95 JUMPI DUP1 PUSH4 0xAA6CA808 GT PUSH2 0x64 JUMPI DUP1 PUSH4 0xAA6CA808 EQ PUSH2 0x295 JUMPI DUP1 PUSH4 0xC45A0155 EQ PUSH2 0x2CA JUMPI DUP1 PUSH4 0xDAB5A8DF EQ PUSH2 0x2FE JUMPI DUP1 PUSH4 0xE43372E9 EQ PUSH2 0x31E JUMPI DUP1 PUSH4 0xF2FDE38B EQ PUSH2 0x342 JUMPI PUSH1 0x0 DUP1 REVERT JUMPDEST DUP1 PUSH4 0x5F5780E5 EQ PUSH2 0x207 JUMPI DUP1 PUSH4 0x715018A6 EQ PUSH2 0x227 JUMPI DUP1 PUSH4 0x89523742 EQ PUSH2 0x23C JUMPI DUP1 PUSH4 0x8DA5CB5B EQ PUSH2 0x263 JUMPI PUSH1 0x0 DUP1 REVERT JUMPDEST DUP1 PUSH4 0x3CCFD60B GT PUSH2 0xD1 JUMPI DUP1 PUSH4 0x3CCFD60B EQ PUSH2 0x19F JUMPI DUP1 PUSH4 0x3D370B4E EQ PUSH2 0x1B4 JUMPI DUP1 PUSH4 0x40A6F1AB EQ PUSH2 0x1DE JUMPI DUP1 PUSH4 0x4341F920 EQ PUSH2 0x1F4 JUMPI PUSH1 0x0 DUP1 REVERT JUMPDEST DUP1 PUSH4 0xD182605 EQ PUSH2 0x103 JUMPI DUP1 PUSH4 0x29DCB0CF EQ PUSH2 0x125 JUMPI DUP1 PUSH4 0x2FFC6887 EQ PUSH2 0x14E JUMPI DUP1 PUSH4 0x3072CF60 EQ PUSH2 0x16E JUMPI JUMPDEST PUSH1 0x0 DUP1 REVERT JUMPDEST CALLVALUE DUP1 ISZERO PUSH2 0x10F JUMPI PUSH1 0x0 DUP1 REVERT JUMPDEST POP PUSH2 0x123 PUSH2 0x11E CALLDATASIZE PUSH1 0x4 PUSH2 0x1C13 JUMP JUMPDEST PUSH2 0x362 JUMP JUMPDEST STOP JUMPDEST CALLVALUE DUP1 ISZERO PUSH2 0x131 JUMPI PUSH1 0x0 DUP1 REVERT JUMPDEST POP PUSH2 0x13B PUSH1 0x2 SLOAD DUP2 JUMP JUMPDEST PUSH1 0x40 MLOAD SWAP1 DUP2 MSTORE PUSH1 0x20 ADD JUMPDEST PUSH1 0x40 MLOAD DUP1 SWAP2 SUB SWAP1 RETURN JUMPDEST CALLVALUE DUP1 ISZERO PUSH2 0x15A JUMPI PUSH1 0x0 DUP1 REVERT JUMPDEST POP PUSH2 0x123 PUSH2 0x169 CALLDATASIZE PUSH1 0x4 PUSH2 0x1C13 JUMP JUMPDEST PUSH2 0x4EC JUMP JUMPDEST CALLVALUE DUP1 ISZERO PUSH2 0x17A JUMPI PUSH1 0x0 DUP1 REVERT JUMPDEST POP PUSH1 0x3 SLOAD PUSH2 0x18F SWAP1 PUSH1 0x1 PUSH1 0xA8 SHL SWAP1 DIV PUSH1 0xFF AND DUP2 JUMP JUMPDEST PUSH1 0x40 MLOAD SWAP1 ISZERO ISZERO DUP2 MSTORE PUSH1 0x20 ADD PUSH2 0x145 JUMP JUMPDEST CALLVALUE DUP1 ISZERO PUSH2 0x1AB JUMPI PUSH1 0x0 DUP1 REVERT JUMPDEST POP PUSH2 0x123 PUSH2 0x667 JUMP JUMPDEST CALLVALUE DUP1 ISZERO PUSH2 0x1C0 JUMPI PUSH1 0x0 DUP1 REVERT JUMPDEST POP PUSH2 0x1C9 PUSH2 0x9FE JUMP JUMPDEST PUSH1 0x40 DUP1 MLOAD SWAP3 DUP4 MSTORE PUSH1 0x20 DUP4 ADD SWAP2 SWAP1 SWAP2 MSTORE ADD PUSH2 0x145 JUMP JUMPDEST CALLVALUE DUP1 ISZERO PUSH2 0x1EA JUMPI PUSH1 0x0 DUP1 REVERT JUMPDEST POP PUSH2 0x13B PUSH1 0x1 SLOAD DUP2 JUMP JUMPDEST PUSH2 0x123 PUSH2 0x202 CALLDATASIZE PUSH1 0x4 PUSH2 0x1C13 JUMP JUMPDEST PUSH2 0xA38 JUMP JUMPDEST CALLVALUE DUP1 ISZERO PUSH2 0x213 JUMPI PUSH1 0x0 DUP1 REVERT JUMPDEST POP PUSH2 0x18F PUSH2 0x222 CALLDATASIZE PUSH1 0x4 PUSH2 0x1C56 JUMP JUMPDEST PUSH2 0xBB4 JUMP JUMPDEST CALLVALUE DUP1 ISZERO PUSH2 0x233 JUMPI PUSH1 0x0 DUP1 REVERT JUMPDEST POP PUSH2 0x123 PUSH2 0xE55 JUMP JUMPDEST CALLVALUE DUP1 ISZERO PUSH2 0x248 JUMPI PUSH1 0x0 DUP1 REVERT JUMPDEST POP PUSH1 0x3 SLOAD PUSH2 0x256 SWAP1 PUSH1 0xFF AND DUP2 JUMP JUMPDEST PUSH1 0x40 MLOAD PUSH2 0x145 SWAP2 SWAP1 PUSH2 0x1CF6 JUMP JUMPDEST CALLVALUE DUP1 ISZERO PUSH2 0x26F JUMPI PUSH1 0x0 DUP1 REVERT JUMPDEST POP PUSH1 0x0 SLOAD PUSH1 0x1 PUSH1 0x1 PUSH1 0xA0 SHL SUB AND JUMPDEST PUSH1 0x40 MLOAD PUSH1 0x1 PUSH1 0x1 PUSH1 0xA0 SHL SUB SWAP1 SWAP2 AND DUP2 MSTORE PUSH1 0x20 ADD PUSH2 0x145 JUMP JUMPDEST CALLVALUE DUP1 ISZERO PUSH2 0x2A1 JUMPI PUSH1 0x0 DUP1 REVERT JUMPDEST POP PUSH2 0x2AA PUSH2 0xE8B JUMP JUMPDEST PUSH1 0x40 DUP1 MLOAD PUSH1 0x1 PUSH1 0x1 PUSH1 0xA0 SHL SUB SWAP4 DUP5 AND DUP2 MSTORE SWAP3 SWAP1 SWAP2 AND PUSH1 0x20 DUP4 ADD MSTORE ADD PUSH2 0x145 JUMP JUMPDEST CALLVALUE DUP1 ISZERO PUSH2 0x2D6 JUMPI PUSH1 0x0 DUP1 REVERT JUMPDEST POP PUSH2 0x27D PUSH32 0x0 DUP2 JUMP JUMPDEST CALLVALUE DUP1 ISZERO PUSH2 0x30A JUMPI PUSH1 0x0 DUP1 REVERT JUMPDEST POP PUSH2 0x13B PUSH2 0x319 CALLDATASIZE PUSH1 0x4 PUSH2 0x1C13 JUMP JUMPDEST PUSH2 0xED2 JUMP JUMPDEST CALLVALUE DUP1 ISZERO PUSH2 0x32A JUMPI PUSH1 0x0 DUP1 REVERT JUMPDEST POP PUSH2 0x333 PUSH2 0xEF5 JUMP JUMPDEST PUSH1 0x40 MLOAD PUSH2 0x145 SWAP4 SWAP3 SWAP2 SWAP1 PUSH2 0x1D59 JUMP JUMPDEST CALLVALUE DUP1 ISZERO PUSH2 0x34E JUMPI PUSH1 0x0 DUP1 REVERT JUMPDEST POP PUSH2 0x123 PUSH2 0x35D CALLDATASIZE PUSH1 0x4 PUSH2 0x1DCE JUMP JUMPDEST PUSH2 0x111B JUMP JUMPDEST TIMESTAMP PUSH1 0x2 SLOAD LT ISZERO DUP1 ISZERO PUSH2 0x377 JUMPI POP PUSH1 0x7 SLOAD PUSH1 0x1 SLOAD LT JUMPDEST PUSH2 0x39C JUMPI PUSH1 0x40 MLOAD PUSH3 0x461BCD PUSH1 0xE5 SHL DUP2 MSTORE PUSH1 0x4 ADD PUSH2 0x393 SWAP1 PUSH2 0x1DF0 JUMP JUMPDEST PUSH1 0x40 MLOAD DUP1 SWAP2 SUB SWAP1 REVERT JUMPDEST PUSH1 0x3 SLOAD PUSH1 0x1 PUSH1 0xA8 SHL SWAP1 DIV PUSH1 0xFF AND PUSH2 0x3C5 JUMPI PUSH1 0x40 MLOAD PUSH3 0x461BCD PUSH1 0xE5 SHL DUP2 MSTORE PUSH1 0x4 ADD PUSH2 0x393 SWAP1 PUSH2 0x1E20 JUMP JUMPDEST PUSH1 0x0 PUSH32 0x0 SWAP1 POP DUP1 PUSH1 0x1 PUSH1 0x1 PUSH1 0xA0 SHL SUB AND PUSH4 0xB187BD26 PUSH1 0x40 MLOAD DUP2 PUSH4 0xFFFFFFFF AND PUSH1 0xE0 SHL DUP2 MSTORE PUSH1 0x4 ADD PUSH1 0x20 PUSH1 0x40 MLOAD DUP1 DUP4 SUB DUP2 DUP7 GAS STATICCALL ISZERO DUP1 ISZERO PUSH2 0x428 JUMPI RETURNDATASIZE PUSH1 0x0 DUP1 RETURNDATACOPY RETURNDATASIZE PUSH1 0x0 REVERT JUMPDEST POP POP POP POP PUSH1 0x40 MLOAD RETURNDATASIZE PUSH1 0x1F NOT PUSH1 0x1F DUP3 ADD AND DUP3 ADD DUP1 PUSH1 0x40 MSTORE POP DUP2 ADD SWAP1 PUSH2 0x44C SWAP2 SWAP1 PUSH2 0x1E57 JUMP JUMPDEST ISZERO PUSH2 0x469 JUMPI PUSH1 0x40 MLOAD PUSH3 0x461BCD PUSH1 0xE5 SHL DUP2 MSTORE PUSH1 0x4 ADD PUSH2 0x393 SWAP1 PUSH2 0x1E74 JUMP JUMPDEST PUSH1 0x3 SLOAD PUSH1 0x0 SWAP1 PUSH1 0xFF AND PUSH1 0x2 DUP2 GT ISZERO PUSH2 0x483 JUMPI PUSH2 0x483 PUSH2 0x1CE0 JUMP JUMPDEST DUP2 PUSH1 0x2 DUP2 GT ISZERO PUSH2 0x495 JUMPI PUSH2 0x495 PUSH2 0x1CE0 JUMP JUMPDEST EQ PUSH2 0x4B2 JUMPI PUSH1 0x40 MLOAD PUSH3 0x461BCD PUSH1 0xE5 SHL DUP2 MSTORE PUSH1 0x4 ADD PUSH2 0x393 SWAP1 PUSH2 0x1EB6 JUMP JUMPDEST PUSH1 0x8 SLOAD PUSH1 0xFF AND PUSH2 0x4DE JUMPI PUSH1 0x7 SLOAD DUP4 LT ISZERO PUSH2 0x4DE JUMPI PUSH1 0x40 MLOAD PUSH3 0x461BCD PUSH1 0xE5 SHL DUP2 MSTORE PUSH1 0x4 ADD PUSH2 0x393 SWAP1 PUSH2 0x1EF7 JUMP JUMPDEST PUSH2 0x4E7 DUP4 PUSH2 0x11B6 JUMP JUMPDEST POP POP POP JUMP JUMPDEST TIMESTAMP PUSH1 0x2 SLOAD LT ISZERO DUP1 ISZERO PUSH2 0x501 JUMPI POP PUSH1 0x7 SLOAD PUSH1 0x1 SLOAD LT JUMPDEST PUSH2 0x51D JUMPI PUSH1 0x40 MLOAD PUSH3 0x461BCD PUSH1 0xE5 SHL DUP2 MSTORE PUSH1 0x4 ADD PUSH2 0x393 SWAP1 PUSH2 0x1DF0 JUMP JUMPDEST PUSH1 0x3 SLOAD PUSH1 0x1 PUSH1 0xA8 SHL SWAP1 DIV PUSH1 0xFF AND PUSH2 0x546 JUMPI PUSH1 0x40 MLOAD PUSH3 0x461BCD PUSH1 0xE5 SHL DUP2 MSTORE PUSH1 0x4 ADD PUSH2 0x393 SWAP1 PUSH2 0x1E20 JUMP JUMPDEST PUSH1 0x0 PUSH32 0x0 SWAP1 POP DUP1 PUSH1 0x1 PUSH1 0x1 PUSH1 0xA0 SHL SUB AND PUSH4 0xB187BD26 PUSH1 0x40 MLOAD DUP2 PUSH4 0xFFFFFFFF AND PUSH1 0xE0 SHL DUP2 MSTORE PUSH1 0x4 ADD PUSH1 0x20 PUSH1 0x40 MLOAD DUP1 DUP4 SUB DUP2 DUP7 GAS STATICCALL ISZERO DUP1 ISZERO PUSH2 0x5A9 JUMPI RETURNDATASIZE PUSH1 0x0 DUP1 RETURNDATACOPY RETURNDATASIZE PUSH1 0x0 REVERT JUMPDEST POP POP POP POP PUSH1 0x40 MLOAD RETURNDATASIZE PUSH1 0x1F NOT PUSH1 0x1F DUP3 ADD AND DUP3 ADD DUP1 PUSH1 0x40 MSTORE POP DUP2 ADD SWAP1 PUSH2 0x5CD SWAP2 SWAP1 PUSH2 0x1E57 JUMP JUMPDEST ISZERO PUSH2 0x5EA JUMPI PUSH1 0x40 MLOAD PUSH3 0x461BCD PUSH1 0xE5 SHL DUP2 MSTORE PUSH1 0x4 ADD PUSH2 0x393 SWAP1 PUSH2 0x1E74 JUMP JUMPDEST PUSH1 0x3 SLOAD PUSH1 0x2 SWAP1 PUSH1 0xFF AND DUP2 DUP2 GT ISZERO PUSH2 0x603 JUMPI PUSH2 0x603 PUSH2 0x1CE0 JUMP JUMPDEST DUP2 PUSH1 0x2 DUP2 GT ISZERO PUSH2 0x615 JUMPI PUSH2 0x615 PUSH2 0x1CE0 JUMP JUMPDEST EQ PUSH2 0x632 JUMPI PUSH1 0x40 MLOAD PUSH3 0x461BCD PUSH1 0xE5 SHL DUP2 MSTORE PUSH1 0x4 ADD PUSH2 0x393 SWAP1 PUSH2 0x1EB6 JUMP JUMPDEST PUSH1 0x8 SLOAD PUSH1 0xFF AND PUSH2 0x65E JUMPI PUSH1 0x7 SLOAD DUP4 LT ISZERO PUSH2 0x65E JUMPI PUSH1 0x40 MLOAD PUSH3 0x461BCD PUSH1 0xE5 SHL DUP2 MSTORE PUSH1 0x4 ADD PUSH2 0x393 SWAP1 PUSH2 0x1EF7 JUMP JUMPDEST PUSH2 0x4E7 DUP4 PUSH2 0x14A3 JUMP JUMPDEST TIMESTAMP PUSH1 0x2 SLOAD LT DUP1 PUSH2 0x67B JUMPI POP PUSH1 0x7 SLOAD PUSH1 0x1 SLOAD LT ISZERO JUMPDEST PUSH2 0x6BE JUMPI PUSH1 0x40 MLOAD PUSH3 0x461BCD PUSH1 0xE5 SHL DUP2 MSTORE PUSH1 0x20 PUSH1 0x4 DUP3 ADD MSTORE PUSH1 0x14 PUSH1 0x24 DUP3 ADD MSTORE PUSH20 0x537943726F774261727465723A20414354495645 PUSH1 0x60 SHL PUSH1 0x44 DUP3 ADD MSTORE PUSH1 0x64 ADD PUSH2 0x393 JUMP JUMPDEST PUSH1 0x3 SLOAD PUSH1 0x1 PUSH1 0xA8 SHL SWAP1 DIV PUSH1 0xFF AND PUSH2 0x6E7 JUMPI PUSH1 0x40 MLOAD PUSH3 0x461BCD PUSH1 0xE5 SHL DUP2 MSTORE PUSH1 0x4 ADD PUSH2 0x393 SWAP1 PUSH2 0x1E20 JUMP JUMPDEST PUSH1 0x0 SLOAD PUSH1 0x1 PUSH1 0x1 PUSH1 0xA0 SHL SUB AND CALLER EQ PUSH2 0x711 JUMPI PUSH1 0x40 MLOAD PUSH3 0x461BCD PUSH1 0xE5 SHL DUP2 MSTORE PUSH1 0x4 ADD PUSH2 0x393 SWAP1 PUSH2 0x1F40 JUMP JUMPDEST PUSH1 0x3 SLOAD PUSH1 0x40 MLOAD PUSH4 0x70A08231 PUSH1 0xE0 SHL DUP2 MSTORE ADDRESS PUSH1 0x4 DUP3 ADD MSTORE PUSH2 0x100 SWAP1 SWAP2 DIV PUSH1 0x1 PUSH1 0x1 PUSH1 0xA0 SHL SUB AND SWAP1 PUSH1 0x0 SWAP1 DUP3 SWAP1 PUSH4 0x70A08231 SWAP1 PUSH1 0x24 ADD PUSH1 0x20 PUSH1 0x40 MLOAD DUP1 DUP4 SUB DUP2 DUP7 GAS STATICCALL ISZERO DUP1 ISZERO PUSH2 0x762 JUMPI RETURNDATASIZE PUSH1 0x0 DUP1 RETURNDATACOPY RETURNDATASIZE PUSH1 0x0 REVERT JUMPDEST POP POP POP POP PUSH1 0x40 MLOAD RETURNDATASIZE PUSH1 0x1F NOT PUSH1 0x1F DUP3 ADD AND DUP3 ADD DUP1 PUSH1 0x40 MSTORE POP DUP2 ADD SWAP1 PUSH2 0x786 SWAP2 SWAP1 PUSH2 0x1F75 JUMP JUMPDEST SWAP1 POP DUP1 ISZERO PUSH2 0x7FA JUMPI PUSH1 0x3 SLOAD PUSH1 0x40 MLOAD PUSH4 0x2E1A7D4D PUSH1 0xE0 SHL DUP2 MSTORE PUSH1 0x4 DUP2 ADD DUP4 SWAP1 MSTORE PUSH2 0x100 SWAP1 SWAP2 DIV PUSH1 0x1 PUSH1 0x1 PUSH1 0xA0 SHL SUB AND SWAP1 PUSH4 0x2E1A7D4D SWAP1 PUSH1 0x24 ADD PUSH1 0x0 PUSH1 0x40 MLOAD DUP1 DUP4 SUB DUP2 PUSH1 0x0 DUP8 DUP1 EXTCODESIZE ISZERO DUP1 ISZERO PUSH2 0x7D8 JUMPI PUSH1 0x0 DUP1 REVERT JUMPDEST POP GAS CALL ISZERO DUP1 ISZERO PUSH2 0x7EC JUMPI RETURNDATASIZE PUSH1 0x0 DUP1 RETURNDATACOPY RETURNDATASIZE PUSH1 0x0 REVERT JUMPDEST POP POP POP POP PUSH2 0x7FA CALLER DUP3 PUSH2 0x1735 JUMP JUMPDEST PUSH1 0x5 SLOAD PUSH1 0x40 MLOAD PUSH4 0x70A08231 PUSH1 0xE0 SHL DUP2 MSTORE ADDRESS PUSH1 0x4 DUP3 ADD MSTORE PUSH1 0x0 SWAP2 PUSH1 0x1 PUSH1 0x1 PUSH1 0xA0 SHL SUB AND SWAP1 PUSH4 0x70A08231 SWAP1 PUSH1 0x24 ADD PUSH1 0x20 PUSH1 0x40 MLOAD DUP1 DUP4 SUB DUP2 DUP7 GAS STATICCALL ISZERO DUP1 ISZERO PUSH2 0x843 JUMPI RETURNDATASIZE PUSH1 0x0 DUP1 RETURNDATACOPY RETURNDATASIZE PUSH1 0x0 REVERT JUMPDEST POP POP POP POP PUSH1 0x40 MLOAD RETURNDATASIZE PUSH1 0x1F NOT PUSH1 0x1F DUP3 ADD AND DUP3 ADD DUP1 PUSH1 0x40 MSTORE POP DUP2 ADD SWAP1 PUSH2 0x867 SWAP2 SWAP1 PUSH2 0x1F75 JUMP JUMPDEST SWAP1 POP DUP1 ISZERO PUSH2 0x886 JUMPI PUSH1 0x5 SLOAD PUSH2 0x886 SWAP1 PUSH1 0x1 PUSH1 0x1 PUSH1 0xA0 SHL SUB AND CALLER DUP4 PUSH2 0x17FE JUMP JUMPDEST PUSH1 0x4 DUP1 SLOAD PUSH1 0x40 MLOAD PUSH4 0x70A08231 PUSH1 0xE0 SHL DUP2 MSTORE ADDRESS SWAP3 DUP2 ADD SWAP3 SWAP1 SWAP3 MSTORE PUSH1 0x0 SWAP2 PUSH1 0x1 PUSH1 0x1 PUSH1 0xA0 SHL SUB SWAP1 SWAP2 AND SWAP1 PUSH4 0x70A08231 SWAP1 PUSH1 0x24 ADD PUSH1 0x20 PUSH1 0x40 MLOAD DUP1 DUP4 SUB DUP2 DUP7 GAS STATICCALL ISZERO DUP1 ISZERO PUSH2 0x8D4 JUMPI RETURNDATASIZE PUSH1 0x0 DUP1 RETURNDATACOPY RETURNDATASIZE PUSH1 0x0 REVERT JUMPDEST POP POP POP POP PUSH1 0x40 MLOAD RETURNDATASIZE PUSH1 0x1F NOT PUSH1 0x1F DUP3 ADD AND DUP3 ADD DUP1 PUSH1 0x40 MSTORE POP DUP2 ADD SWAP1 PUSH2 0x8F8 SWAP2 SWAP1 PUSH2 0x1F75 JUMP JUMPDEST SWAP1 POP DUP1 ISZERO PUSH2 0x917 JUMPI PUSH1 0x4 SLOAD PUSH2 0x917 SWAP1 PUSH1 0x1 PUSH1 0x1 PUSH1 0xA0 SHL SUB AND CALLER DUP4 PUSH2 0x17FE JUMP JUMPDEST PUSH1 0x0 DUP1 DUP1 PUSH1 0x3 SLOAD PUSH1 0xFF AND PUSH1 0x2 DUP2 GT ISZERO PUSH2 0x932 JUMPI PUSH2 0x932 PUSH2 0x1CE0 JUMP JUMPDEST SUB PUSH2 0x941 JUMPI POP DUP4 SWAP1 POP DUP3 PUSH2 0x96F JUMP JUMPDEST PUSH1 0x2 PUSH1 0x3 SLOAD PUSH1 0xFF AND PUSH1 0x2 DUP2 GT ISZERO PUSH2 0x95A JUMPI PUSH2 0x95A PUSH2 0x1CE0 JUMP JUMPDEST SUB PUSH2 0x969 JUMPI POP DUP2 SWAP1 POP DUP3 PUSH2 0x96F JUMP JUMPDEST POP DUP2 SWAP1 POP DUP4 JUMPDEST PUSH1 0x40 MLOAD PUSH4 0x19BCB507 PUSH1 0xE1 SHL DUP2 MSTORE PUSH32 0x0 SWAP1 PUSH1 0x1 PUSH1 0x1 PUSH1 0xA0 SHL SUB DUP3 AND SWAP1 PUSH4 0x33796A0E SWAP1 PUSH2 0x9C3 SWAP1 ADDRESS SWAP1 CALLER SWAP1 DUP9 SWAP1 DUP9 SWAP1 PUSH1 0x4 ADD PUSH2 0x1F8E JUMP JUMPDEST PUSH1 0x0 PUSH1 0x40 MLOAD DUP1 DUP4 SUB DUP2 PUSH1 0x0 DUP8 DUP1 EXTCODESIZE ISZERO DUP1 ISZERO PUSH2 0x9DD JUMPI PUSH1 0x0 DUP1 REVERT JUMPDEST POP GAS CALL ISZERO DUP1 ISZERO PUSH2 0x9F1 JUMPI RETURNDATASIZE PUSH1 0x0 DUP1 RETURNDATACOPY RETURNDATASIZE PUSH1 0x0 REVERT JUMPDEST POP POP POP POP POP POP POP POP POP POP POP JUMP JUMPDEST PUSH1 0x3 SLOAD PUSH1 0x0 SWAP1 DUP2 SWAP1 PUSH1 0x1 PUSH1 0xA8 SHL SWAP1 DIV PUSH1 0xFF AND PUSH2 0xA2C JUMPI PUSH1 0x40 MLOAD PUSH3 0x461BCD PUSH1 0xE5 SHL DUP2 MSTORE PUSH1 0x4 ADD PUSH2 0x393 SWAP1 PUSH2 0x1E20 JUMP JUMPDEST POP POP PUSH1 0x6 SLOAD PUSH1 0x7 SLOAD SWAP1 SWAP2 JUMP JUMPDEST TIMESTAMP PUSH1 0x2 SLOAD LT ISZERO DUP1 ISZERO PUSH2 0xA4D JUMPI POP PUSH1 0x7 SLOAD PUSH1 0x1 SLOAD LT JUMPDEST PUSH2 0xA69 JUMPI PUSH1 0x40 MLOAD PUSH3 0x461BCD PUSH1 0xE5 SHL DUP2 MSTORE PUSH1 0x4 ADD PUSH2 0x393 SWAP1 PUSH2 0x1DF0 JUMP JUMPDEST PUSH1 0x3 SLOAD PUSH1 0x1 PUSH1 0xA8 SHL SWAP1 DIV PUSH1 0xFF AND PUSH2 0xA92 JUMPI PUSH1 0x40 MLOAD PUSH3 0x461BCD PUSH1 0xE5 SHL DUP2 MSTORE PUSH1 0x4 ADD PUSH2 0x393 SWAP1 PUSH2 0x1E20 JUMP JUMPDEST PUSH1 0x0 PUSH32 0x0 SWAP1 POP DUP1 PUSH1 0x1 PUSH1 0x1 PUSH1 0xA0 SHL SUB AND PUSH4 0xB187BD26 PUSH1 0x40 MLOAD DUP2 PUSH4 0xFFFFFFFF AND PUSH1 0xE0 SHL DUP2 MSTORE PUSH1 0x4 ADD PUSH1 0x20 PUSH1 0x40 MLOAD DUP1 DUP4 SUB DUP2 DUP7 GAS STATICCALL ISZERO DUP1 ISZERO PUSH2 0xAF5 JUMPI RETURNDATASIZE PUSH1 0x0 DUP1 RETURNDATACOPY RETURNDATASIZE PUSH1 0x0 REVERT JUMPDEST POP POP POP POP PUSH1 0x40 MLOAD RETURNDATASIZE PUSH1 0x1F NOT PUSH1 0x1F DUP3 ADD AND DUP3 ADD DUP1 PUSH1 0x40 MSTORE POP DUP2 ADD SWAP1 PUSH2 0xB19 SWAP2 SWAP1 PUSH2 0x1E57 JUMP JUMPDEST ISZERO PUSH2 0xB36 JUMPI PUSH1 0x40 MLOAD PUSH3 0x461BCD PUSH1 0xE5 SHL DUP2 MSTORE PUSH1 0x4 ADD PUSH2 0x393 SWAP1 PUSH2 0x1E74 JUMP JUMPDEST PUSH1 0x3 SLOAD PUSH1 0x1 SWAP1 PUSH1 0xFF AND PUSH1 0x2 DUP2 GT ISZERO PUSH2 0xB50 JUMPI PUSH2 0xB50 PUSH2 0x1CE0 JUMP JUMPDEST DUP2 PUSH1 0x2 DUP2 GT ISZERO PUSH2 0xB62 JUMPI PUSH2 0xB62 PUSH2 0x1CE0 JUMP JUMPDEST EQ PUSH2 0xB7F JUMPI PUSH1 0x40 MLOAD PUSH3 0x461BCD PUSH1 0xE5 SHL DUP2 MSTORE PUSH1 0x4 ADD PUSH2 0x393 SWAP1 PUSH2 0x1EB6 JUMP JUMPDEST PUSH1 0x8 SLOAD PUSH1 0xFF AND PUSH2 0xBAB JUMPI PUSH1 0x7 SLOAD CALLVALUE LT ISZERO PUSH2 0xBAB JUMPI PUSH1 0x40 MLOAD PUSH3 0x461BCD PUSH1 0xE5 SHL DUP2 MSTORE PUSH1 0x4 ADD PUSH2 0x393 SWAP1 PUSH2 0x1EF7 JUMP JUMPDEST PUSH2 0x4E7 DUP4 PUSH2 0x1919 JUMP JUMPDEST PUSH1 0x0 CALLER PUSH1 0x1 PUSH1 0x1 PUSH1 0xA0 SHL SUB PUSH32 0x0 AND EQ PUSH2 0xC2E JUMPI PUSH1 0x40 MLOAD PUSH3 0x461BCD PUSH1 0xE5 SHL DUP2 MSTORE PUSH1 0x20 PUSH1 0x4 DUP3 ADD MSTORE PUSH1 0x17 PUSH1 0x24 DUP3 ADD MSTORE PUSH32 0x537943726F774261727465723A20464F5242494444454E000000000000000000 PUSH1 0x44 DUP3 ADD MSTORE PUSH1 0x64 ADD PUSH2 0x393 JUMP JUMPDEST PUSH1 0x3 SLOAD PUSH1 0x1 PUSH1 0xA8 SHL SWAP1 DIV PUSH1 0xFF AND ISZERO PUSH2 0xC92 JUMPI PUSH1 0x40 MLOAD PUSH3 0x461BCD PUSH1 0xE5 SHL DUP2 MSTORE PUSH1 0x20 PUSH1 0x4 DUP3 ADD MSTORE PUSH1 0x21 PUSH1 0x24 DUP3 ADD MSTORE PUSH32 0x537943726F774261727465723A20414C52454144595F494E495449414C495A45 PUSH1 0x44 DUP3 ADD MSTORE PUSH1 0x11 PUSH1 0xFA SHL PUSH1 0x64 DUP3 ADD MSTORE PUSH1 0x84 ADD PUSH2 0x393 JUMP JUMPDEST TIMESTAMP DUP5 LT ISZERO PUSH2 0xCD8 JUMPI PUSH1 0x40 MLOAD PUSH3 0x461BCD PUSH1 0xE5 SHL DUP2 MSTORE PUSH1 0x20 PUSH1 0x4 DUP3 ADD MSTORE PUSH1 0x13 PUSH1 0x24 DUP3 ADD MSTORE PUSH19 0x537943726F774261727465723A20504153545F PUSH1 0x68 SHL PUSH1 0x44 DUP3 ADD MSTORE PUSH1 0x64 ADD PUSH2 0x393 JUMP JUMPDEST PUSH1 0x40 MLOAD PUSH4 0x70A08231 PUSH1 0xE0 SHL DUP2 MSTORE ADDRESS PUSH1 0x4 DUP3 ADD MSTORE DUP7 SWAP1 PUSH1 0x1 PUSH1 0x1 PUSH1 0xA0 SHL SUB DUP11 AND SWAP1 PUSH4 0x70A08231 SWAP1 PUSH1 0x24 ADD PUSH1 0x20 PUSH1 0x40 MLOAD DUP1 DUP4 SUB DUP2 DUP7 GAS STATICCALL ISZERO DUP1 ISZERO PUSH2 0xD1E JUMPI RETURNDATASIZE PUSH1 0x0 DUP1 RETURNDATACOPY RETURNDATASIZE PUSH1 0x0 REVERT JUMPDEST POP POP POP POP PUSH1 0x40 MLOAD RETURNDATASIZE PUSH1 0x1F NOT PUSH1 0x1F DUP3 ADD AND DUP3 ADD DUP1 PUSH1 0x40 MSTORE POP DUP2 ADD SWAP1 PUSH2 0xD42 SWAP2 SWAP1 PUSH2 0x1F75 JUMP JUMPDEST LT ISZERO PUSH2 0xD9B JUMPI PUSH1 0x40 MLOAD PUSH3 0x461BCD PUSH1 0xE5 SHL DUP2 MSTORE PUSH1 0x20 PUSH1 0x4 DUP3 ADD MSTORE PUSH1 0x22 PUSH1 0x24 DUP3 ADD MSTORE PUSH32 0x537943726F774261727465723A20494E53554646494349454E545F4445504F53 PUSH1 0x44 DUP3 ADD MSTORE PUSH2 0x1255 PUSH1 0xF2 SHL PUSH1 0x64 DUP3 ADD MSTORE PUSH1 0x84 ADD PUSH2 0x393 JUMP JUMPDEST PUSH1 0x2 DUP5 DUP2 SSTORE PUSH1 0x4 DUP1 SLOAD PUSH1 0x1 PUSH1 0x1 PUSH1 0xA0 SHL SUB DUP1 DUP13 AND PUSH1 0x1 PUSH1 0x1 PUSH1 0xA0 SHL SUB NOT SWAP3 DUP4 AND OR SWAP1 SWAP3 SSTORE PUSH1 0x5 DUP1 SLOAD SWAP3 DUP12 AND SWAP3 SWAP1 SWAP2 AND SWAP2 SWAP1 SWAP2 OR SWAP1 SSTORE PUSH1 0x6 DUP8 SWAP1 SSTORE PUSH1 0x7 DUP7 SWAP1 SSTORE PUSH1 0x3 DUP1 SLOAD DUP12 SWAP3 PUSH1 0xFF NOT SWAP1 SWAP2 AND SWAP1 PUSH1 0x1 SWAP1 DUP5 SWAP1 DUP2 GT ISZERO PUSH2 0xDFB JUMPI PUSH2 0xDFB PUSH2 0x1CE0 JUMP JUMPDEST MUL OR SWAP1 SSTORE POP POP PUSH1 0x8 DUP1 SLOAD DUP4 ISZERO ISZERO PUSH1 0xFF NOT SWAP1 SWAP2 AND OR SWAP1 SSTORE PUSH1 0x3 DUP1 SLOAD PUSH1 0xFF PUSH1 0xA8 SHL NOT PUSH1 0x1 PUSH1 0x1 PUSH1 0xA0 SHL SUB DUP5 AND PUSH2 0x100 MUL AND PUSH2 0x100 PUSH1 0x1 PUSH1 0xB0 SHL SUB NOT SWAP1 SWAP2 AND OR PUSH1 0x1 PUSH1 0xA8 SHL SWAP1 DUP2 OR SWAP2 DUP3 SWAP1 SSTORE SWAP1 DIV PUSH1 0xFF AND SWAP9 SWAP8 POP POP POP POP POP POP POP POP JUMP JUMPDEST PUSH1 0x0 SLOAD PUSH1 0x1 PUSH1 0x1 PUSH1 0xA0 SHL SUB AND CALLER EQ PUSH2 0xE7F JUMPI PUSH1 0x40 MLOAD PUSH3 0x461BCD PUSH1 0xE5 SHL DUP2 MSTORE PUSH1 0x4 ADD PUSH2 0x393 SWAP1 PUSH2 0x1F40 JUMP JUMPDEST PUSH2 0xE89 PUSH1 0x0 PUSH2 0x1A93 JUMP JUMPDEST JUMP JUMPDEST PUSH1 0x3 SLOAD PUSH1 0x0 SWAP1 DUP2 SWAP1 PUSH1 0x1 PUSH1 0xA8 SHL SWAP1 DIV PUSH1 0xFF AND PUSH2 0xEB9 JUMPI PUSH1 0x40 MLOAD PUSH3 0x461BCD PUSH1 0xE5 SHL DUP2 MSTORE PUSH1 0x4 ADD PUSH2 0x393 SWAP1 PUSH2 0x1E20 JUMP JUMPDEST POP POP PUSH1 0x4 SLOAD PUSH1 0x5 SLOAD PUSH1 0x1 PUSH1 0x1 PUSH1 0xA0 SHL SUB SWAP2 DUP3 AND SWAP2 AND SWAP1 SWAP2 JUMP JUMPDEST PUSH1 0x0 PUSH1 0x7 SLOAD PUSH1 0x6 SLOAD DUP4 PUSH2 0xEE5 SWAP2 SWAP1 PUSH2 0x1FCD JUMP JUMPDEST PUSH2 0xEEF SWAP2 SWAP1 PUSH2 0x1FEC JUMP JUMPDEST SWAP3 SWAP2 POP POP JUMP JUMPDEST PUSH1 0x60 DUP1 PUSH1 0x60 PUSH1 0x3 PUSH1 0x15 SWAP1 SLOAD SWAP1 PUSH2 0x100 EXP SWAP1 DIV PUSH1 0xFF AND PUSH2 0xF26 JUMPI PUSH1 0x40 MLOAD PUSH3 0x461BCD PUSH1 0xE5 SHL DUP2 MSTORE PUSH1 0x4 ADD PUSH2 0x393 SWAP1 PUSH2 0x1E20 JUMP JUMPDEST PUSH1 0x9 SLOAD PUSH1 0x0 SWAP1 PUSH8 0xFFFFFFFFFFFFFFFF DUP2 GT ISZERO PUSH2 0xF44 JUMPI PUSH2 0xF44 PUSH2 0x200E JUMP JUMPDEST PUSH1 0x40 MLOAD SWAP1 DUP1 DUP3 MSTORE DUP1 PUSH1 0x20 MUL PUSH1 0x20 ADD DUP3 ADD PUSH1 0x40 MSTORE DUP1 ISZERO PUSH2 0xF6D JUMPI DUP2 PUSH1 0x20 ADD PUSH1 0x20 DUP3 MUL DUP1 CALLDATASIZE DUP4 CALLDATACOPY ADD SWAP1 POP JUMPDEST POP PUSH1 0x9 SLOAD SWAP1 SWAP2 POP PUSH1 0x0 SWAP1 PUSH8 0xFFFFFFFFFFFFFFFF DUP2 GT ISZERO PUSH2 0xF8F JUMPI PUSH2 0xF8F PUSH2 0x200E JUMP JUMPDEST PUSH1 0x40 MLOAD SWAP1 DUP1 DUP3 MSTORE DUP1 PUSH1 0x20 MUL PUSH1 0x20 ADD DUP3 ADD PUSH1 0x40 MSTORE DUP1 ISZERO PUSH2 0xFB8 JUMPI DUP2 PUSH1 0x20 ADD PUSH1 0x20 DUP3 MUL DUP1 CALLDATASIZE DUP4 CALLDATACOPY ADD SWAP1 POP JUMPDEST POP PUSH1 0x9 SLOAD SWAP1 SWAP2 POP PUSH1 0x0 SWAP1 PUSH8 0xFFFFFFFFFFFFFFFF DUP2 GT ISZERO PUSH2 0xFDA JUMPI PUSH2 0xFDA PUSH2 0x200E JUMP JUMPDEST PUSH1 0x40 MLOAD SWAP1 DUP1 DUP3 MSTORE DUP1 PUSH1 0x20 MUL PUSH1 0x20 ADD DUP3 ADD PUSH1 0x40 MSTORE DUP1 ISZERO PUSH2 0x1003 JUMPI DUP2 PUSH1 0x20 ADD PUSH1 0x20 DUP3 MUL DUP1 CALLDATASIZE DUP4 CALLDATACOPY ADD SWAP1 POP JUMPDEST POP SWAP1 POP PUSH1 0x0 JUMPDEST PUSH1 0x9 SLOAD DUP2 LT ISZERO PUSH2 0x110E JUMPI PUSH1 0x9 DUP2 DUP2 SLOAD DUP2 LT PUSH2 0x1026 JUMPI PUSH2 0x1026 PUSH2 0x2024 JUMP JUMPDEST PUSH1 0x0 SWAP2 DUP3 MSTORE PUSH1 0x20 SWAP1 SWAP2 KECCAK256 PUSH1 0x3 SWAP1 SWAP2 MUL ADD SLOAD DUP5 MLOAD PUSH1 0x1 PUSH1 0x1 PUSH1 0xA0 SHL SUB SWAP1 SWAP2 AND SWAP1 DUP6 SWAP1 DUP4 SWAP1 DUP2 LT PUSH2 0x1057 JUMPI PUSH2 0x1057 PUSH2 0x2024 JUMP JUMPDEST PUSH1 0x20 MUL PUSH1 0x20 ADD ADD SWAP1 PUSH1 0x1 PUSH1 0x1 PUSH1 0xA0 SHL SUB AND SWAP1 DUP2 PUSH1 0x1 PUSH1 0x1 PUSH1 0xA0 SHL SUB AND DUP2 MSTORE POP POP PUSH1 0x9 DUP2 DUP2 SLOAD DUP2 LT PUSH2 0x108A JUMPI PUSH2 0x108A PUSH2 0x2024 JUMP JUMPDEST SWAP1 PUSH1 0x0 MSTORE PUSH1 0x20 PUSH1 0x0 KECCAK256 SWAP1 PUSH1 0x3 MUL ADD PUSH1 0x1 ADD SLOAD DUP4 DUP3 DUP2 MLOAD DUP2 LT PUSH2 0x10AE JUMPI PUSH2 0x10AE PUSH2 0x2024 JUMP JUMPDEST PUSH1 0x20 MUL PUSH1 0x20 ADD ADD DUP2 DUP2 MSTORE POP POP PUSH1 0x9 DUP2 DUP2 SLOAD DUP2 LT PUSH2 0x10CD JUMPI PUSH2 0x10CD PUSH2 0x2024 JUMP JUMPDEST SWAP1 PUSH1 0x0 MSTORE PUSH1 0x20 PUSH1 0x0 KECCAK256 SWAP1 PUSH1 0x3 MUL ADD PUSH1 0x2 ADD SLOAD DUP3 DUP3 DUP2 MLOAD DUP2 LT PUSH2 0x10F1 JUMPI PUSH2 0x10F1 PUSH2 0x2024 JUMP JUMPDEST PUSH1 0x20 SWAP1 DUP2 MUL SWAP2 SWAP1 SWAP2 ADD ADD MSTORE DUP1 PUSH2 0x1106 DUP2 PUSH2 0x203A JUMP JUMPDEST SWAP2 POP POP PUSH2 0x1009 JUMP JUMPDEST POP SWAP2 SWAP5 POP SWAP3 POP SWAP1 POP SWAP1 SWAP2 SWAP3 JUMP JUMPDEST PUSH1 0x0 SLOAD PUSH1 0x1 PUSH1 0x1 PUSH1 0xA0 SHL SUB AND CALLER EQ PUSH2 0x1145 JUMPI PUSH1 0x40 MLOAD PUSH3 0x461BCD PUSH1 0xE5 SHL DUP2 MSTORE PUSH1 0x4 ADD PUSH2 0x393 SWAP1 PUSH2 0x1F40 JUMP JUMPDEST PUSH1 0x1 PUSH1 0x1 PUSH1 0xA0 SHL SUB DUP2 AND PUSH2 0x11AA JUMPI PUSH1 0x40 MLOAD PUSH3 0x461BCD PUSH1 0xE5 SHL DUP2 MSTORE PUSH1 0x20 PUSH1 0x4 DUP3 ADD MSTORE PUSH1 0x26 PUSH1 0x24 DUP3 ADD MSTORE PUSH32 0x4F776E61626C653A206E6577206F776E657220697320746865207A65726F2061 PUSH1 0x44 DUP3 ADD MSTORE PUSH6 0x646472657373 PUSH1 0xD0 SHL PUSH1 0x64 DUP3 ADD MSTORE PUSH1 0x84 ADD PUSH2 0x393 JUMP JUMPDEST PUSH2 0x11B3 DUP2 PUSH2 0x1A93 JUMP JUMPDEST POP JUMP JUMPDEST PUSH1 0x5 SLOAD PUSH1 0x40 MLOAD PUSH4 0x70A08231 PUSH1 0xE0 SHL DUP2 MSTORE CALLER PUSH1 0x4 DUP3 ADD MSTORE DUP3 SWAP2 PUSH1 0x1 PUSH1 0x1 PUSH1 0xA0 SHL SUB AND SWAP1 PUSH4 0x70A08231 SWAP1 PUSH1 0x24 ADD PUSH1 0x20 PUSH1 0x40 MLOAD DUP1 DUP4 SUB DUP2 DUP7 GAS STATICCALL ISZERO DUP1 ISZERO PUSH2 0x11FE JUMPI RETURNDATASIZE PUSH1 0x0 DUP1 RETURNDATACOPY RETURNDATASIZE PUSH1 0x0 REVERT JUMPDEST POP POP POP POP PUSH1 0x40 MLOAD RETURNDATASIZE PUSH1 0x1F NOT PUSH1 0x1F DUP3 ADD AND DUP3 ADD DUP1 PUSH1 0x40 MSTORE POP DUP2 ADD SWAP1 PUSH2 0x1222 SWAP2 SWAP1 PUSH2 0x1F75 JUMP JUMPDEST LT ISZERO PUSH2 0x1240 JUMPI PUSH1 0x40 MLOAD PUSH3 0x461BCD PUSH1 0xE5 SHL DUP2 MSTORE PUSH1 0x4 ADD PUSH2 0x393 SWAP1 PUSH2 0x2053 JUMP JUMPDEST PUSH1 0x0 PUSH2 0x124B DUP3 PUSH2 0xED2 JUMP JUMPDEST PUSH1 0x3 SLOAD PUSH1 0x40 MLOAD PUSH4 0x70A08231 PUSH1 0xE0 SHL DUP2 MSTORE ADDRESS PUSH1 0x4 DUP3 ADD MSTORE SWAP2 SWAP3 POP PUSH2 0x100 SWAP1 DIV PUSH1 0x1 PUSH1 0x1 PUSH1 0xA0 SHL SUB AND SWAP1 DUP3 SWAP1 DUP3 SWAP1 PUSH4 0x70A08231 SWAP1 PUSH1 0x24 ADD PUSH1 0x20 PUSH1 0x40 MLOAD DUP1 DUP4 SUB DUP2 DUP7 GAS STATICCALL ISZERO DUP1 ISZERO PUSH2 0x129D JUMPI RETURNDATASIZE PUSH1 0x0 DUP1 RETURNDATACOPY RETURNDATASIZE PUSH1 0x0 REVERT JUMPDEST POP POP POP POP PUSH1 0x40 MLOAD RETURNDATASIZE PUSH1 0x1F NOT PUSH1 0x1F DUP3 ADD AND DUP3 ADD DUP1 PUSH1 0x40 MSTORE POP DUP2 ADD SWAP1 PUSH2 0x12C1 SWAP2 SWAP1 PUSH2 0x1F75 JUMP JUMPDEST LT ISZERO PUSH2 0x12DF JUMPI PUSH1 0x40 MLOAD PUSH3 0x461BCD PUSH1 0xE5 SHL DUP2 MSTORE PUSH1 0x4 ADD PUSH2 0x393 SWAP1 PUSH2 0x2095 JUMP JUMPDEST PUSH1 0x3 SLOAD PUSH1 0x40 MLOAD PUSH4 0x2E1A7D4D PUSH1 0xE0 SHL DUP2 MSTORE PUSH1 0x4 DUP2 ADD DUP5 SWAP1 MSTORE PUSH2 0x100 SWAP1 SWAP2 DIV PUSH1 0x1 PUSH1 0x1 PUSH1 0xA0 SHL SUB AND SWAP1 PUSH4 0x2E1A7D4D SWAP1 PUSH1 0x24 ADD PUSH1 0x0 PUSH1 0x40 MLOAD DUP1 DUP4 SUB DUP2 PUSH1 0x0 DUP8 DUP1 EXTCODESIZE ISZERO DUP1 ISZERO PUSH2 0x1329 JUMPI PUSH1 0x0 DUP1 REVERT JUMPDEST POP GAS CALL ISZERO DUP1 ISZERO PUSH2 0x133D JUMPI RETURNDATASIZE PUSH1 0x0 DUP1 RETURNDATACOPY RETURNDATASIZE PUSH1 0x0 REVERT JUMPDEST POP POP PUSH1 0x5 SLOAD PUSH2 0x135A SWAP3 POP PUSH1 0x1 PUSH1 0x1 PUSH1 0xA0 SHL SUB AND SWAP1 POP CALLER ADDRESS DUP7 PUSH2 0x1AE3 JUMP JUMPDEST PUSH2 0x1364 CALLER DUP4 PUSH2 0x1735 JUMP JUMPDEST PUSH1 0x40 DUP1 MLOAD PUSH1 0x60 DUP2 ADD DUP3 MSTORE CALLER DUP1 DUP3 MSTORE PUSH1 0x20 DUP3 ADD DUP7 DUP2 MSTORE DUP3 DUP5 ADD DUP7 DUP2 MSTORE PUSH1 0x9 DUP1 SLOAD PUSH1 0x1 DUP2 ADD DUP3 SSTORE PUSH1 0x0 SWAP2 SWAP1 SWAP2 MSTORE SWAP4 MLOAD PUSH1 0x3 SWAP1 SWAP5 MUL PUSH32 0x6E1540171B6C0C960B71A7020D9F60077F6AF931A8BBF590DA0223DACF75C7AF DUP2 ADD DUP1 SLOAD PUSH1 0x1 PUSH1 0x1 PUSH1 0xA0 SHL SUB SWAP7 DUP8 AND PUSH1 0x1 PUSH1 0x1 PUSH1 0xA0 SHL SUB NOT SWAP1 SWAP2 AND OR SWAP1 SSTORE SWAP2 MLOAD PUSH32 0x6E1540171B6C0C960B71A7020D9F60077F6AF931A8BBF590DA0223DACF75C7B0 DUP4 ADD SSTORE MLOAD PUSH32 0x6E1540171B6C0C960B71A7020D9F60077F6AF931A8BBF590DA0223DACF75C7B1 SWAP1 SWAP2 ADD SSTORE SWAP2 MLOAD PUSH4 0xF52701B7 PUSH1 0xE0 SHL DUP2 MSTORE PUSH32 0x0 SWAP3 SWAP2 DUP4 AND SWAP2 PUSH4 0xF52701B7 SWAP2 PUSH2 0x146B SWAP2 ADDRESS SWAP2 DUP10 SWAP1 DUP10 SWAP1 PUSH1 0x4 ADD PUSH2 0x1F8E JUMP JUMPDEST PUSH1 0x0 PUSH1 0x40 MLOAD DUP1 DUP4 SUB DUP2 PUSH1 0x0 DUP8 DUP1 EXTCODESIZE ISZERO DUP1 ISZERO PUSH2 0x1485 JUMPI PUSH1 0x0 DUP1 REVERT JUMPDEST POP GAS CALL ISZERO DUP1 ISZERO PUSH2 0x1499 JUMPI RETURNDATASIZE PUSH1 0x0 DUP1 RETURNDATACOPY RETURNDATASIZE PUSH1 0x0 REVERT JUMPDEST POP POP POP POP POP POP POP POP JUMP JUMPDEST PUSH1 0x5 SLOAD PUSH1 0x40 MLOAD PUSH4 0x70A08231 PUSH1 0xE0 SHL DUP2 MSTORE CALLER PUSH1 0x4 DUP3 ADD MSTORE DUP3 SWAP2 PUSH1 0x1 PUSH1 0x1 PUSH1 0xA0 SHL SUB AND SWAP1 PUSH4 0x70A08231 SWAP1 PUSH1 0x24 ADD PUSH1 0x20 PUSH1 0x40 MLOAD DUP1 DUP4 SUB DUP2 DUP7 GAS STATICCALL ISZERO DUP1 ISZERO PUSH2 0x14EB JUMPI RETURNDATASIZE PUSH1 0x0 DUP1 RETURNDATACOPY RETURNDATASIZE PUSH1 0x0 REVERT JUMPDEST POP POP POP POP PUSH1 0x40 MLOAD RETURNDATASIZE PUSH1 0x1F NOT PUSH1 0x1F DUP3 ADD AND DUP3 ADD DUP1 PUSH1 0x40 MSTORE POP DUP2 ADD SWAP1 PUSH2 0x150F SWAP2 SWAP1 PUSH2 0x1F75 JUMP JUMPDEST LT ISZERO PUSH2 0x152D JUMPI PUSH1 0x40 MLOAD PUSH3 0x461BCD PUSH1 0xE5 SHL DUP2 MSTORE PUSH1 0x4 ADD PUSH2 0x393 SWAP1 PUSH2 0x2053 JUMP JUMPDEST PUSH1 0x0 PUSH2 0x1538 DUP3 PUSH2 0xED2 JUMP JUMPDEST PUSH1 0x4 DUP1 SLOAD PUSH1 0x40 MLOAD PUSH4 0x70A08231 PUSH1 0xE0 SHL DUP2 MSTORE ADDRESS SWAP3 DUP2 ADD SWAP3 SWAP1 SWAP3 MSTORE SWAP2 SWAP3 POP DUP3 SWAP2 PUSH1 0x1 PUSH1 0x1 PUSH1 0xA0 SHL SUB AND SWAP1 PUSH4 0x70A08231 SWAP1 PUSH1 0x24 ADD PUSH1 0x20 PUSH1 0x40 MLOAD DUP1 DUP4 SUB DUP2 DUP7 GAS STATICCALL ISZERO DUP1 ISZERO PUSH2 0x1586 JUMPI RETURNDATASIZE PUSH1 0x0 DUP1 RETURNDATACOPY RETURNDATASIZE PUSH1 0x0 REVERT JUMPDEST POP POP POP POP PUSH1 0x40 MLOAD RETURNDATASIZE PUSH1 0x1F NOT PUSH1 0x1F DUP3 ADD AND DUP3 ADD DUP1 PUSH1 0x40 MSTORE POP DUP2 ADD SWAP1 PUSH2 0x15AA SWAP2 SWAP1 PUSH2 0x1F75 JUMP JUMPDEST LT ISZERO PUSH2 0x15C8 JUMPI PUSH1 0x40 MLOAD PUSH3 0x461BCD PUSH1 0xE5 SHL DUP2 MSTORE PUSH1 0x4 ADD PUSH2 0x393 SWAP1 PUSH2 0x2095 JUMP JUMPDEST PUSH1 0x5 SLOAD PUSH2 0x15E0 SWAP1 PUSH1 0x1 PUSH1 0x1 PUSH1 0xA0 SHL SUB AND CALLER ADDRESS DUP6 PUSH2 0x1AE3 JUMP JUMPDEST PUSH1 0x4 SLOAD PUSH2 0x15F7 SWAP1 PUSH1 0x1 PUSH1 0x1 PUSH1 0xA0 SHL SUB AND CALLER DUP4 PUSH2 0x17FE JUMP JUMPDEST PUSH1 0x40 DUP1 MLOAD PUSH1 0x60 DUP2 ADD DUP3 MSTORE CALLER DUP1 DUP3 MSTORE PUSH1 0x20 DUP3 ADD DUP6 DUP2 MSTORE DUP3 DUP5 ADD DUP6 DUP2 MSTORE PUSH1 0x9 DUP1 SLOAD PUSH1 0x1 DUP2 ADD DUP3 SSTORE PUSH1 0x0 SWAP2 SWAP1 SWAP2 MSTORE SWAP4 MLOAD PUSH1 0x3 SWAP1 SWAP5 MUL PUSH32 0x6E1540171B6C0C960B71A7020D9F60077F6AF931A8BBF590DA0223DACF75C7AF DUP2 ADD DUP1 SLOAD PUSH1 0x1 PUSH1 0x1 PUSH1 0xA0 SHL SUB SWAP7 DUP8 AND PUSH1 0x1 PUSH1 0x1 PUSH1 0xA0 SHL SUB NOT SWAP1 SWAP2 AND OR SWAP1 SSTORE SWAP2 MLOAD PUSH32 0x6E1540171B6C0C960B71A7020D9F60077F6AF931A8BBF590DA0223DACF75C7B0 DUP4 ADD SSTORE MLOAD PUSH32 0x6E1540171B6C0C960B71A7020D9F60077F6AF931A8BBF590DA0223DACF75C7B1 SWAP1 SWAP2 ADD SSTORE SWAP2 MLOAD PUSH4 0xF52701B7 PUSH1 0xE0 SHL DUP2 MSTORE PUSH32 0x0 SWAP3 SWAP2 DUP4 AND SWAP2 PUSH4 0xF52701B7 SWAP2 PUSH2 0x16FE SWAP2 ADDRESS SWAP2 DUP9 SWAP1 DUP9 SWAP1 PUSH1 0x4 ADD PUSH2 0x1F8E JUMP JUMPDEST PUSH1 0x0 PUSH1 0x40 MLOAD DUP1 DUP4 SUB DUP2 PUSH1 0x0 DUP8 DUP1 EXTCODESIZE ISZERO DUP1 ISZERO PUSH2 0x1718 JUMPI PUSH1 0x0 DUP1 REVERT JUMPDEST POP GAS CALL ISZERO DUP1 ISZERO PUSH2 0x172C JUMPI RETURNDATASIZE PUSH1 0x0 DUP1 RETURNDATACOPY RETURNDATASIZE PUSH1 0x0 REVERT JUMPDEST POP POP POP POP POP POP POP JUMP JUMPDEST PUSH1 0x40 DUP1 MLOAD PUSH1 0x0 DUP1 DUP3 MSTORE PUSH1 0x20 DUP3 ADD SWAP1 SWAP3 MSTORE PUSH1 0x1 PUSH1 0x1 PUSH1 0xA0 SHL SUB DUP5 AND SWAP1 DUP4 SWAP1 PUSH1 0x40 MLOAD PUSH2 0x175F SWAP2 SWAP1 PUSH2 0x20E0 JUMP JUMPDEST PUSH1 0x0 PUSH1 0x40 MLOAD DUP1 DUP4 SUB DUP2 DUP6 DUP8 GAS CALL SWAP3 POP POP POP RETURNDATASIZE DUP1 PUSH1 0x0 DUP2 EQ PUSH2 0x179C JUMPI PUSH1 0x40 MLOAD SWAP2 POP PUSH1 0x1F NOT PUSH1 0x3F RETURNDATASIZE ADD AND DUP3 ADD PUSH1 0x40 MSTORE RETURNDATASIZE DUP3 MSTORE RETURNDATASIZE PUSH1 0x0 PUSH1 0x20 DUP5 ADD RETURNDATACOPY PUSH2 0x17A1 JUMP JUMPDEST PUSH1 0x60 SWAP2 POP JUMPDEST POP POP SWAP1 POP DUP1 PUSH2 0x4E7 JUMPI PUSH1 0x40 MLOAD PUSH3 0x461BCD PUSH1 0xE5 SHL DUP2 MSTORE PUSH1 0x20 PUSH1 0x4 DUP3 ADD MSTORE PUSH1 0x23 PUSH1 0x24 DUP3 ADD MSTORE PUSH32 0x5472616E7366657248656C7065723A204554485F5452414E534645525F464149 PUSH1 0x44 DUP3 ADD MSTORE PUSH3 0x131151 PUSH1 0xEA SHL PUSH1 0x64 DUP3 ADD MSTORE PUSH1 0x84 ADD PUSH2 0x393 JUMP JUMPDEST PUSH1 0x40 DUP1 MLOAD PUSH1 0x1 PUSH1 0x1 PUSH1 0xA0 SHL SUB DUP5 DUP2 AND PUSH1 0x24 DUP4 ADD MSTORE PUSH1 0x44 DUP1 DUP4 ADD DUP6 SWAP1 MSTORE DUP4 MLOAD DUP1 DUP5 SUB SWAP1 SWAP2 ADD DUP2 MSTORE PUSH1 0x64 SWAP1 SWAP3 ADD DUP4 MSTORE PUSH1 0x20 DUP3 ADD DUP1 MLOAD PUSH1 0x1 PUSH1 0x1 PUSH1 0xE0 SHL SUB AND PUSH4 0xA9059CBB PUSH1 0xE0 SHL OR SWAP1 MSTORE SWAP2 MLOAD PUSH1 0x0 SWAP3 DUP4 SWAP3 SWAP1 DUP8 AND SWAP2 PUSH2 0x185A SWAP2 SWAP1 PUSH2 0x20E0 JUMP JUMPDEST PUSH1 0x0 PUSH1 0x40 MLOAD DUP1 DUP4 SUB DUP2 PUSH1 0x0 DUP7 GAS CALL SWAP2 POP POP RETURNDATASIZE DUP1 PUSH1 0x0 DUP2 EQ PUSH2 0x1897 JUMPI PUSH1 0x40 MLOAD SWAP2 POP PUSH1 0x1F NOT PUSH1 0x3F RETURNDATASIZE ADD AND DUP3 ADD PUSH1 0x40 MSTORE RETURNDATASIZE DUP3 MSTORE RETURNDATASIZE PUSH1 0x0 PUSH1 0x20 DUP5 ADD RETURNDATACOPY PUSH2 0x189C JUMP JUMPDEST PUSH1 0x60 SWAP2 POP JUMPDEST POP SWAP2 POP SWAP2 POP DUP2 DUP1 ISZERO PUSH2 0x18C6 JUMPI POP DUP1 MLOAD ISZERO DUP1 PUSH2 0x18C6 JUMPI POP DUP1 DUP1 PUSH1 0x20 ADD SWAP1 MLOAD DUP2 ADD SWAP1 PUSH2 0x18C6 SWAP2 SWAP1 PUSH2 0x1E57 JUMP JUMPDEST PUSH2 0x1912 JUMPI PUSH1 0x40 MLOAD PUSH3 0x461BCD PUSH1 0xE5 SHL DUP2 MSTORE PUSH1 0x20 PUSH1 0x4 DUP3 ADD MSTORE PUSH1 0x1F PUSH1 0x24 DUP3 ADD MSTORE PUSH32 0x5472616E7366657248656C7065723A205452414E534645525F4641494C454400 PUSH1 0x44 DUP3 ADD MSTORE PUSH1 0x64 ADD PUSH2 0x393 JUMP JUMPDEST POP POP POP POP POP JUMP JUMPDEST CALLVALUE DUP2 EQ PUSH2 0x1976 JUMPI PUSH1 0x40 MLOAD PUSH3 0x461BCD PUSH1 0xE5 SHL DUP2 MSTORE PUSH1 0x20 PUSH1 0x4 DUP3 ADD MSTORE PUSH1 0x25 PUSH1 0x24 DUP3 ADD MSTORE PUSH32 0x537943726F774261727465723A204D554C54495F54524144455F4E4F545F454E PUSH1 0x44 DUP3 ADD MSTORE PUSH5 0x1050931151 PUSH1 0xDA SHL PUSH1 0x64 DUP3 ADD MSTORE PUSH1 0x84 ADD PUSH2 0x393 JUMP JUMPDEST PUSH1 0x0 PUSH2 0x1981 DUP3 PUSH2 0xED2 JUMP JUMPDEST PUSH1 0x4 DUP1 SLOAD PUSH1 0x40 MLOAD PUSH4 0x70A08231 PUSH1 0xE0 SHL DUP2 MSTORE ADDRESS SWAP3 DUP2 ADD SWAP3 SWAP1 SWAP3 MSTORE SWAP2 SWAP3 POP DUP3 SWAP2 PUSH1 0x1 PUSH1 0x1 PUSH1 0xA0 SHL SUB AND SWAP1 PUSH4 0x70A08231 SWAP1 PUSH1 0x24 ADD PUSH1 0x20 PUSH1 0x40 MLOAD DUP1 DUP4 SUB DUP2 DUP7 GAS STATICCALL ISZERO DUP1 ISZERO PUSH2 0x19CF JUMPI RETURNDATASIZE PUSH1 0x0 DUP1 RETURNDATACOPY RETURNDATASIZE PUSH1 0x0 REVERT JUMPDEST POP POP POP POP PUSH1 0x40 MLOAD RETURNDATASIZE PUSH1 0x1F NOT PUSH1 0x1F DUP3 ADD AND DUP3 ADD DUP1 PUSH1 0x40 MSTORE POP DUP2 ADD SWAP1 PUSH2 0x19F3 SWAP2 SWAP1 PUSH2 0x1F75 JUMP JUMPDEST LT ISZERO PUSH2 0x1A11 JUMPI PUSH1 0x40 MLOAD PUSH3 0x461BCD PUSH1 0xE5 SHL DUP2 MSTORE PUSH1 0x4 ADD PUSH2 0x393 SWAP1 PUSH2 0x2095 JUMP JUMPDEST PUSH1 0x3 PUSH1 0x1 SWAP1 SLOAD SWAP1 PUSH2 0x100 EXP SWAP1 DIV PUSH1 0x1 PUSH1 0x1 PUSH1 0xA0 SHL SUB AND PUSH1 0x1 PUSH1 0x1 PUSH1 0xA0 SHL SUB AND PUSH4 0xD0E30DB0 DUP4 PUSH1 0x40 MLOAD DUP3 PUSH4 0xFFFFFFFF AND PUSH1 0xE0 SHL DUP2 MSTORE PUSH1 0x4 ADD PUSH1 0x0 PUSH1 0x40 MLOAD DUP1 DUP4 SUB DUP2 DUP6 DUP9 DUP1 EXTCODESIZE ISZERO DUP1 ISZERO PUSH2 0x1A61 JUMPI PUSH1 0x0 DUP1 REVERT JUMPDEST POP GAS CALL ISZERO DUP1 ISZERO PUSH2 0x1A75 JUMPI RETURNDATASIZE PUSH1 0x0 DUP1 RETURNDATACOPY RETURNDATASIZE PUSH1 0x0 REVERT JUMPDEST POP POP PUSH1 0x4 SLOAD PUSH2 0x15F7 SWAP4 POP PUSH1 0x1 PUSH1 0x1 PUSH1 0xA0 SHL SUB AND SWAP2 POP CALLER SWAP1 POP DUP4 PUSH2 0x17FE JUMP JUMPDEST PUSH1 0x0 DUP1 SLOAD PUSH1 0x1 PUSH1 0x1 PUSH1 0xA0 SHL SUB DUP4 DUP2 AND PUSH1 0x1 PUSH1 0x1 PUSH1 0xA0 SHL SUB NOT DUP4 AND DUP2 OR DUP5 SSTORE PUSH1 0x40 MLOAD SWAP2 SWAP1 SWAP3 AND SWAP3 DUP4 SWAP2 PUSH32 0x8BE0079C531659141344CD1FD0A4F28419497F9722A3DAAFE3B4186F6B6457E0 SWAP2 SWAP1 LOG3 POP POP JUMP JUMPDEST PUSH1 0x40 DUP1 MLOAD PUSH1 0x1 PUSH1 0x1 PUSH1 0xA0 SHL SUB DUP6 DUP2 AND PUSH1 0x24 DUP4 ADD MSTORE DUP5 DUP2 AND PUSH1 0x44 DUP4 ADD MSTORE PUSH1 0x64 DUP1 DUP4 ADD DUP6 SWAP1 MSTORE DUP4 MLOAD DUP1 DUP5 SUB SWAP1 SWAP2 ADD DUP2 MSTORE PUSH1 0x84 SWAP1 SWAP3 ADD DUP4 MSTORE PUSH1 0x20 DUP3 ADD DUP1 MLOAD PUSH1 0x1 PUSH1 0x1 PUSH1 0xE0 SHL SUB AND PUSH4 0x23B872DD PUSH1 0xE0 SHL OR SWAP1 MSTORE SWAP2 MLOAD PUSH1 0x0 SWAP3 DUP4 SWAP3 SWAP1 DUP9 AND SWAP2 PUSH2 0x1B47 SWAP2 SWAP1 PUSH2 0x20E0 JUMP JUMPDEST PUSH1 0x0 PUSH1 0x40 MLOAD DUP1 DUP4 SUB DUP2 PUSH1 0x0 DUP7 GAS CALL SWAP2 POP POP RETURNDATASIZE DUP1 PUSH1 0x0 DUP2 EQ PUSH2 0x1B84 JUMPI PUSH1 0x40 MLOAD SWAP2 POP PUSH1 0x1F NOT PUSH1 0x3F RETURNDATASIZE ADD AND DUP3 ADD PUSH1 0x40 MSTORE RETURNDATASIZE DUP3 MSTORE RETURNDATASIZE PUSH1 0x0 PUSH1 0x20 DUP5 ADD RETURNDATACOPY PUSH2 0x1B89 JUMP JUMPDEST PUSH1 0x60 SWAP2 POP JUMPDEST POP SWAP2 POP SWAP2 POP DUP2 DUP1 ISZERO PUSH2 0x1BB3 JUMPI POP DUP1 MLOAD ISZERO DUP1 PUSH2 0x1BB3 JUMPI POP DUP1 DUP1 PUSH1 0x20 ADD SWAP1 MLOAD DUP2 ADD SWAP1 PUSH2 0x1BB3 SWAP2 SWAP1 PUSH2 0x1E57 JUMP JUMPDEST PUSH2 0x1C0B JUMPI PUSH1 0x40 MLOAD PUSH3 0x461BCD PUSH1 0xE5 SHL DUP2 MSTORE PUSH1 0x20 PUSH1 0x4 DUP3 ADD MSTORE PUSH1 0x24 DUP1 DUP3 ADD MSTORE PUSH32 0x5472616E7366657248656C7065723A205452414E534645525F46524F4D5F4641 PUSH1 0x44 DUP3 ADD MSTORE PUSH4 0x12531151 PUSH1 0xE2 SHL PUSH1 0x64 DUP3 ADD MSTORE PUSH1 0x84 ADD PUSH2 0x393 JUMP JUMPDEST POP POP POP POP POP POP JUMP JUMPDEST PUSH1 0x0 PUSH1 0x20 DUP3 DUP5 SUB SLT ISZERO PUSH2 0x1C25 JUMPI PUSH1 0x0 DUP1 REVERT JUMPDEST POP CALLDATALOAD SWAP2 SWAP1 POP JUMP JUMPDEST DUP1 CALLDATALOAD PUSH1 0x1 PUSH1 0x1 PUSH1 0xA0 SHL SUB DUP2 AND DUP2 EQ PUSH2 0x1C43 JUMPI PUSH1 0x0 DUP1 REVERT JUMPDEST SWAP2 SWAP1 POP JUMP JUMPDEST DUP1 ISZERO ISZERO DUP2 EQ PUSH2 0x11B3 JUMPI PUSH1 0x0 DUP1 REVERT JUMPDEST PUSH1 0x0 DUP1 PUSH1 0x0 DUP1 PUSH1 0x0 DUP1 PUSH1 0x0 DUP1 PUSH2 0x100 DUP10 DUP12 SUB SLT ISZERO PUSH2 0x1C73 JUMPI PUSH1 0x0 DUP1 REVERT JUMPDEST DUP9 CALLDATALOAD PUSH1 0x3 DUP2 LT PUSH2 0x1C82 JUMPI PUSH1 0x0 DUP1 REVERT JUMPDEST SWAP8 POP PUSH2 0x1C90 PUSH1 0x20 DUP11 ADD PUSH2 0x1C2C JUMP JUMPDEST SWAP7 POP PUSH2 0x1C9E PUSH1 0x40 DUP11 ADD PUSH2 0x1C2C JUMP JUMPDEST SWAP6 POP PUSH1 0x60 DUP10 ADD CALLDATALOAD SWAP5 POP PUSH1 0x80 DUP10 ADD CALLDATALOAD SWAP4 POP PUSH1 0xA0 DUP10 ADD CALLDATALOAD SWAP3 POP PUSH1 0xC0 DUP10 ADD CALLDATALOAD PUSH2 0x1CC3 DUP2 PUSH2 0x1C48 JUMP JUMPDEST SWAP2 POP PUSH2 0x1CD1 PUSH1 0xE0 DUP11 ADD PUSH2 0x1C2C JUMP JUMPDEST SWAP1 POP SWAP3 SWAP6 SWAP9 POP SWAP3 SWAP6 SWAP9 SWAP1 SWAP4 SWAP7 POP JUMP JUMPDEST PUSH4 0x4E487B71 PUSH1 0xE0 SHL PUSH1 0x0 MSTORE PUSH1 0x21 PUSH1 0x4 MSTORE PUSH1 0x24 PUSH1 0x0 REVERT JUMPDEST PUSH1 0x20 DUP2 ADD PUSH1 0x3 DUP4 LT PUSH2 0x1D18 JUMPI PUSH4 0x4E487B71 PUSH1 0xE0 SHL PUSH1 0x0 MSTORE PUSH1 0x21 PUSH1 0x4 MSTORE PUSH1 0x24 PUSH1 0x0 REVERT JUMPDEST SWAP2 SWAP1 MSTORE SWAP1 JUMP JUMPDEST PUSH1 0x0 DUP2 MLOAD DUP1 DUP5 MSTORE PUSH1 0x20 DUP1 DUP6 ADD SWAP5 POP DUP1 DUP5 ADD PUSH1 0x0 JUMPDEST DUP4 DUP2 LT ISZERO PUSH2 0x1D4E JUMPI DUP2 MLOAD DUP8 MSTORE SWAP6 DUP3 ADD SWAP6 SWAP1 DUP3 ADD SWAP1 PUSH1 0x1 ADD PUSH2 0x1D32 JUMP JUMPDEST POP SWAP5 SWAP6 SWAP5 POP POP POP POP POP JUMP JUMPDEST PUSH1 0x60 DUP1 DUP3 MSTORE DUP5 MLOAD SWAP1 DUP3 ADD DUP2 SWAP1 MSTORE PUSH1 0x0 SWAP1 PUSH1 0x20 SWAP1 PUSH1 0x80 DUP5 ADD SWAP1 DUP3 DUP9 ADD DUP5 JUMPDEST DUP3 DUP2 LT ISZERO PUSH2 0x1D9B JUMPI DUP2 MLOAD PUSH1 0x1 PUSH1 0x1 PUSH1 0xA0 SHL SUB AND DUP5 MSTORE SWAP3 DUP5 ADD SWAP3 SWAP1 DUP5 ADD SWAP1 PUSH1 0x1 ADD PUSH2 0x1D76 JUMP JUMPDEST POP POP POP DUP4 DUP2 SUB DUP3 DUP6 ADD MSTORE PUSH2 0x1DAF DUP2 DUP8 PUSH2 0x1D1E JUMP JUMPDEST SWAP2 POP POP DUP3 DUP2 SUB PUSH1 0x40 DUP5 ADD MSTORE PUSH2 0x1DC4 DUP2 DUP6 PUSH2 0x1D1E JUMP JUMPDEST SWAP7 SWAP6 POP POP POP POP POP POP JUMP JUMPDEST PUSH1 0x0 PUSH1 0x20 DUP3 DUP5 SUB SLT ISZERO PUSH2 0x1DE0 JUMPI PUSH1 0x0 DUP1 REVERT JUMPDEST PUSH2 0x1DE9 DUP3 PUSH2 0x1C2C JUMP JUMPDEST SWAP4 SWAP3 POP POP POP JUMP JUMPDEST PUSH1 0x20 DUP1 DUP3 MSTORE PUSH1 0x16 SWAP1 DUP3 ADD MSTORE PUSH22 0x537943726F774261727465723A20494E414354495645 PUSH1 0x50 SHL PUSH1 0x40 DUP3 ADD MSTORE PUSH1 0x60 ADD SWAP1 JUMP JUMPDEST PUSH1 0x20 DUP1 DUP3 MSTORE PUSH1 0x1D SWAP1 DUP3 ADD MSTORE PUSH32 0x537943726F774261727465723A204E4F545F494E495449414C495A4544000000 PUSH1 0x40 DUP3 ADD MSTORE PUSH1 0x60 ADD SWAP1 JUMP JUMPDEST PUSH1 0x0 PUSH1 0x20 DUP3 DUP5 SUB SLT ISZERO PUSH2 0x1E69 JUMPI PUSH1 0x0 DUP1 REVERT JUMPDEST DUP2 MLOAD PUSH2 0x1DE9 DUP2 PUSH2 0x1C48 JUMP JUMPDEST PUSH1 0x20 DUP1 DUP3 MSTORE PUSH1 0x22 SWAP1 DUP3 ADD MSTORE PUSH32 0x537943726F774261727465723A204261736520436F6E74726163742050617573 PUSH1 0x40 DUP3 ADD MSTORE PUSH2 0x1959 PUSH1 0xF2 SHL PUSH1 0x60 DUP3 ADD MSTORE PUSH1 0x80 ADD SWAP1 JUMP JUMPDEST PUSH1 0x20 DUP1 DUP3 MSTORE PUSH1 0x21 SWAP1 DUP3 ADD MSTORE PUSH32 0x537943726F774261727465723A20494E56414C49445F4241525445525F545950 PUSH1 0x40 DUP3 ADD MSTORE PUSH1 0x45 PUSH1 0xF8 SHL PUSH1 0x60 DUP3 ADD MSTORE PUSH1 0x80 ADD SWAP1 JUMP JUMPDEST PUSH1 0x20 DUP1 DUP3 MSTORE PUSH1 0x29 SWAP1 DUP3 ADD MSTORE PUSH32 0x537943726F774261727465723A20414D4F554E545F4C4F5745525F5448414E5F PUSH1 0x40 DUP3 ADD MSTORE PUSH9 0x149154555492549151 PUSH1 0xBA SHL PUSH1 0x60 DUP3 ADD MSTORE PUSH1 0x80 ADD SWAP1 JUMP JUMPDEST PUSH1 0x20 DUP1 DUP3 MSTORE DUP2 DUP2 ADD MSTORE PUSH32 0x4F776E61626C653A2063616C6C6572206973206E6F7420746865206F776E6572 PUSH1 0x40 DUP3 ADD MSTORE PUSH1 0x60 ADD SWAP1 JUMP JUMPDEST PUSH1 0x0 PUSH1 0x20 DUP3 DUP5 SUB SLT ISZERO PUSH2 0x1F87 JUMPI PUSH1 0x0 DUP1 REVERT JUMPDEST POP MLOAD SWAP2 SWAP1 POP JUMP JUMPDEST PUSH1 0x1 PUSH1 0x1 PUSH1 0xA0 SHL SUB SWAP5 DUP6 AND DUP2 MSTORE SWAP3 SWAP1 SWAP4 AND PUSH1 0x20 DUP4 ADD MSTORE PUSH1 0x40 DUP3 ADD MSTORE PUSH1 0x60 DUP2 ADD SWAP2 SWAP1 SWAP2 MSTORE PUSH1 0x80 ADD SWAP1 JUMP JUMPDEST PUSH4 0x4E487B71 PUSH1 0xE0 SHL PUSH1 0x0 MSTORE PUSH1 0x11 PUSH1 0x4 MSTORE PUSH1 0x24 PUSH1 0x0 REVERT JUMPDEST PUSH1 0x0 DUP2 PUSH1 0x0 NOT DIV DUP4 GT DUP3 ISZERO ISZERO AND ISZERO PUSH2 0x1FE7 JUMPI PUSH2 0x1FE7 PUSH2 0x1FB7 JUMP JUMPDEST POP MUL SWAP1 JUMP JUMPDEST PUSH1 0x0 DUP3 PUSH2 0x2009 JUMPI PUSH4 0x4E487B71 PUSH1 0xE0 SHL PUSH1 0x0 MSTORE PUSH1 0x12 PUSH1 0x4 MSTORE PUSH1 0x24 PUSH1 0x0 REVERT JUMPDEST POP DIV SWAP1 JUMP JUMPDEST PUSH4 0x4E487B71 PUSH1 0xE0 SHL PUSH1 0x0 MSTORE PUSH1 0x41 PUSH1 0x4 MSTORE PUSH1 0x24 PUSH1 0x0 REVERT JUMPDEST PUSH4 0x4E487B71 PUSH1 0xE0 SHL PUSH1 0x0 MSTORE PUSH1 0x32 PUSH1 0x4 MSTORE PUSH1 0x24 PUSH1 0x0 REVERT JUMPDEST PUSH1 0x0 PUSH1 0x1 DUP3 ADD PUSH2 0x204C JUMPI PUSH2 0x204C PUSH2 0x1FB7 JUMP JUMPDEST POP PUSH1 0x1 ADD SWAP1 JUMP JUMPDEST PUSH1 0x20 DUP1 DUP3 MSTORE PUSH1 0x22 SWAP1 DUP3 ADD MSTORE PUSH32 0x537943726F774261727465723A20494E53554646494349454E545F42414C414E PUSH1 0x40 DUP3 ADD MSTORE PUSH2 0x4345 PUSH1 0xF0 SHL PUSH1 0x60 DUP3 ADD MSTORE PUSH1 0x80 ADD SWAP1 JUMP JUMPDEST PUSH1 0x20 DUP1 DUP3 MSTORE PUSH1 0x2B SWAP1 DUP3 ADD MSTORE PUSH32 0x537943726F774261727465723A20494E53554646494349454E545F434F4E5452 PUSH1 0x40 DUP3 ADD MSTORE PUSH11 0x4143545F42414C414E4345 PUSH1 0xA8 SHL PUSH1 0x60 DUP3 ADD MSTORE PUSH1 0x80 ADD SWAP1 JUMP JUMPDEST PUSH1 0x0 DUP3 MLOAD PUSH1 0x0 JUMPDEST DUP2 DUP2 LT ISZERO PUSH2 0x2101 JUMPI PUSH1 0x20 DUP2 DUP7 ADD DUP2 ADD MLOAD DUP6 DUP4 ADD MSTORE ADD PUSH2 0x20E7 JUMP JUMPDEST DUP2 DUP2 GT ISZERO PUSH2 0x2110 JUMPI PUSH1 0x0 DUP3 DUP6 ADD MSTORE JUMPDEST POP SWAP2 SWAP1 SWAP2 ADD SWAP3 SWAP2 POP POP JUMP INVALID LOG2 PUSH5 0x6970667358 0x22 SLT KECCAK256 PUSH15 0x17F5B376C45A4C55518B2E92C4BEF6 0xAE SDIV 0xD7 0xB3 0xD MOD PUSH24 0xE4D081D01E6714156364736F6C634300080D003300000000 "
				},
				"gasEstimates": {
					"creation": {
						"codeDepositCost": "1705800",
						"executionCost": "infinite",
						"totalCost": "infinite"
					},
					"external": {
						"_initialized()": "2417",
						"barterType()": "2418",
						"deadline()": "2330",
						"factory()": "infinite",
						"getAmounts()": "6638",
						"getTokens()": "6669",
						"getTradeOutAmount(uint256)": "4707",
						"getTrades()": "infinite",
						"initialize(uint8,address,address,uint256,uint256,uint256,bool,address)": "infinite",
						"owner()": "2409",
						"renounceOwnership()": "28159",
						"totalTradeAmount()": "2351",
						"tradeEthForToken(uint256)": "infinite",
						"tradeTokenForEth(uint256)": "infinite",
						"tradeTokenForToken(uint256)": "infinite",
						"transferOwnership(address)": "28419",
						"withdraw()": "infinite"
					},
					"internal": {
						"_tradeEthForToken(uint256)": "infinite",
						"_tradeTokenForEth(uint256)": "infinite",
						"_tradeTokenForToken(uint256)": "infinite"
					}
				},
				"methodIdentifiers": {
					"_initialized()": "3072cf60",
					"barterType()": "89523742",
					"deadline()": "29dcb0cf",
					"factory()": "c45a0155",
					"getAmounts()": "3d370b4e",
					"getTokens()": "aa6ca808",
					"getTradeOutAmount(uint256)": "dab5a8df",
					"getTrades()": "e43372e9",
					"initialize(uint8,address,address,uint256,uint256,uint256,bool,address)": "5f5780e5",
					"owner()": "8da5cb5b",
					"renounceOwnership()": "715018a6",
					"totalTradeAmount()": "40a6f1ab",
					"tradeEthForToken(uint256)": "4341f920",
					"tradeTokenForEth(uint256)": "0d182605",
					"tradeTokenForToken(uint256)": "2ffc6887",
					"transferOwnership(address)": "f2fde38b",
					"withdraw()": "3ccfd60b"
				}
			},
			"storageLayout": {
				"storage": [
					{
						"astId": 7,
						"contract": "contracts/SycrowBarter.sol:SyCrowBarter",
						"label": "_owner",
						"offset": 0,
						"slot": "0",
						"type": "t_address"
					},
					{
						"astId": 142,
						"contract": "contracts/SycrowBarter.sol:SyCrowBarter",
						"label": "totalTradeAmount",
						"offset": 0,
						"slot": "1",
						"type": "t_uint256"
					},
					{
						"astId": 144,
						"contract": "contracts/SycrowBarter.sol:SyCrowBarter",
						"label": "deadline",
						"offset": 0,
						"slot": "2",
						"type": "t_uint256"
					},
					{
						"astId": 147,
						"contract": "contracts/SycrowBarter.sol:SyCrowBarter",
						"label": "barterType",
						"offset": 0,
						"slot": "3",
						"type": "t_enum(ISyCrowBarterType)1055"
					},
					{
						"astId": 149,
						"contract": "contracts/SycrowBarter.sol:SyCrowBarter",
						"label": "WETH",
						"offset": 1,
						"slot": "3",
						"type": "t_address"
					},
					{
						"astId": 152,
						"contract": "contracts/SycrowBarter.sol:SyCrowBarter",
						"label": "_initialized",
						"offset": 21,
						"slot": "3",
						"type": "t_bool"
					},
					{
						"astId": 154,
						"contract": "contracts/SycrowBarter.sol:SyCrowBarter",
						"label": "_depositedTokenAddress",
						"offset": 0,
						"slot": "4",
						"type": "t_address"
					},
					{
						"astId": 156,
						"contract": "contracts/SycrowBarter.sol:SyCrowBarter",
						"label": "_expectedTokenAddress",
						"offset": 0,
						"slot": "5",
						"type": "t_address"
					},
					{
						"astId": 158,
						"contract": "contracts/SycrowBarter.sol:SyCrowBarter",
						"label": "_depositedAmount",
						"offset": 0,
						"slot": "6",
						"type": "t_uint256"
					},
					{
						"astId": 160,
						"contract": "contracts/SycrowBarter.sol:SyCrowBarter",
						"label": "_expectedAmount",
						"offset": 0,
						"slot": "7",
						"type": "t_uint256"
					},
					{
						"astId": 162,
						"contract": "contracts/SycrowBarter.sol:SyCrowBarter",
						"label": "_allowMultiBarter",
						"offset": 0,
						"slot": "8",
						"type": "t_bool"
					},
					{
						"astId": 166,
						"contract": "contracts/SycrowBarter.sol:SyCrowBarter",
						"label": "_trades",
						"offset": 0,
						"slot": "9",
						"type": "t_array(t_struct(BaterTrade)173_storage)dyn_storage"
					}
				],
				"types": {
					"t_address": {
						"encoding": "inplace",
						"label": "address",
						"numberOfBytes": "20"
					},
					"t_array(t_struct(BaterTrade)173_storage)dyn_storage": {
						"base": "t_struct(BaterTrade)173_storage",
						"encoding": "dynamic_array",
						"label": "struct SyCrowBarter.BaterTrade[]",
						"numberOfBytes": "32"
					},
					"t_bool": {
						"encoding": "inplace",
						"label": "bool",
						"numberOfBytes": "1"
					},
					"t_enum(ISyCrowBarterType)1055": {
						"encoding": "inplace",
						"label": "enum ISyCrowBarterType",
						"numberOfBytes": "1"
					},
					"t_struct(BaterTrade)173_storage": {
						"encoding": "inplace",
						"label": "struct SyCrowBarter.BaterTrade",
						"members": [
							{
								"astId": 168,
								"contract": "contracts/SycrowBarter.sol:SyCrowBarter",
								"label": "_trader",
								"offset": 0,
								"slot": "0",
								"type": "t_address"
							},
							{
								"astId": 170,
								"contract": "contracts/SycrowBarter.sol:SyCrowBarter",
								"label": "_amountIn",
								"offset": 0,
								"slot": "1",
								"type": "t_uint256"
							},
							{
								"astId": 172,
								"contract": "contracts/SycrowBarter.sol:SyCrowBarter",
								"label": "_amountOut",
								"offset": 0,
								"slot": "2",
								"type": "t_uint256"
							}
						],
						"numberOfBytes": "96"
					},
					"t_uint256": {
						"encoding": "inplace",
						"label": "uint256",
						"numberOfBytes": "32"
					}
				}
			},
			"userdoc": {
				"kind": "user",
				"methods": {},
				"version": 1
			}
		}
	}
}