{
	"contracts/SyCrowBarter.sol": {
		"SyCrowBarter": {
			"abi": [
				{
					"inputs": [],
					"stateMutability": "nonpayable",
					"type": "constructor"
				},
				{
					"anonymous": false,
					"inputs": [
						{
							"indexed": true,
							"internalType": "address",
							"name": "previousOwner",
							"type": "address"
						},
						{
							"indexed": true,
							"internalType": "address",
							"name": "newOwner",
							"type": "address"
						}
					],
					"name": "OwnershipTransferred",
					"type": "event"
				},
				{
					"inputs": [],
					"name": "_initialized",
					"outputs": [
						{
							"internalType": "bool",
							"name": "",
							"type": "bool"
						}
					],
					"stateMutability": "view",
					"type": "function"
				},
				{
					"inputs": [],
					"name": "factory",
					"outputs": [
						{
							"internalType": "address",
							"name": "",
							"type": "address"
						}
					],
					"stateMutability": "view",
					"type": "function"
				},
				{
					"inputs": [],
					"name": "getAmounts",
					"outputs": [
						{
							"internalType": "uint256",
							"name": "",
							"type": "uint256"
						},
						{
							"internalType": "uint256",
							"name": "",
							"type": "uint256"
						}
					],
					"stateMutability": "view",
					"type": "function"
				},
				{
					"inputs": [],
					"name": "getTokens",
					"outputs": [
						{
							"internalType": "address",
							"name": "",
							"type": "address"
						},
						{
							"internalType": "address",
							"name": "",
							"type": "address"
						}
					],
					"stateMutability": "view",
					"type": "function"
				},
				{
					"inputs": [
						{
							"internalType": "uint256",
							"name": "amount",
							"type": "uint256"
						}
					],
					"name": "getTradeOutAmount",
					"outputs": [
						{
							"internalType": "uint256",
							"name": "",
							"type": "uint256"
						}
					],
					"stateMutability": "view",
					"type": "function"
				},
				{
					"inputs": [],
					"name": "getTrades",
					"outputs": [
						{
							"internalType": "address[]",
							"name": "",
							"type": "address[]"
						},
						{
							"internalType": "uint256[]",
							"name": "",
							"type": "uint256[]"
						},
						{
							"internalType": "uint256[]",
							"name": "",
							"type": "uint256[]"
						}
					],
					"stateMutability": "view",
					"type": "function"
				},
				{
					"inputs": [
						{
							"internalType": "enum ISyCrowBarterType",
							"name": "barterType",
							"type": "uint8"
						},
						{
							"internalType": "address",
							"name": "inToken",
							"type": "address"
						},
						{
							"internalType": "address",
							"name": "outToken",
							"type": "address"
						},
						{
							"internalType": "uint256",
							"name": "amountDeposited",
							"type": "uint256"
						},
						{
							"internalType": "uint256",
							"name": "amountExpected",
							"type": "uint256"
						},
						{
							"internalType": "uint256",
							"name": "deadline",
							"type": "uint256"
						},
						{
							"internalType": "bool",
							"name": "allowMultiBarter",
							"type": "bool"
						},
						{
							"internalType": "address",
							"name": "_WETH",
							"type": "address"
						}
					],
					"name": "initialize",
					"outputs": [
						{
							"internalType": "bool",
							"name": "",
							"type": "bool"
						}
					],
					"stateMutability": "nonpayable",
					"type": "function"
				},
				{
					"inputs": [],
					"name": "owner",
					"outputs": [
						{
							"internalType": "address",
							"name": "",
							"type": "address"
						}
					],
					"stateMutability": "view",
					"type": "function"
				},
				{
					"inputs": [],
					"name": "renounceOwnership",
					"outputs": [],
					"stateMutability": "nonpayable",
					"type": "function"
				},
				{
					"inputs": [],
					"name": "totalTradeAmount",
					"outputs": [
						{
							"internalType": "uint256",
							"name": "",
							"type": "uint256"
						}
					],
					"stateMutability": "view",
					"type": "function"
				},
				{
					"inputs": [
						{
							"internalType": "uint256",
							"name": "inAmount",
							"type": "uint256"
						}
					],
					"name": "tradeEthForToken",
					"outputs": [],
					"stateMutability": "payable",
					"type": "function"
				},
				{
					"inputs": [],
					"name": "tradeEthForToken",
					"outputs": [],
					"stateMutability": "payable",
					"type": "function"
				},
				{
					"inputs": [
						{
							"internalType": "uint256",
							"name": "inAmount",
							"type": "uint256"
						}
					],
					"name": "tradeTokenForEth",
					"outputs": [],
					"stateMutability": "nonpayable",
					"type": "function"
				},
				{
					"inputs": [],
					"name": "tradeTokenForEth",
					"outputs": [],
					"stateMutability": "nonpayable",
					"type": "function"
				},
				{
					"inputs": [
						{
							"internalType": "uint256",
							"name": "inAmount",
							"type": "uint256"
						}
					],
					"name": "tradeTokenForToken",
					"outputs": [],
					"stateMutability": "nonpayable",
					"type": "function"
				},
				{
					"inputs": [],
					"name": "tradeTokenForToken",
					"outputs": [],
					"stateMutability": "nonpayable",
					"type": "function"
				},
				{
					"inputs": [
						{
							"internalType": "address",
							"name": "newOwner",
							"type": "address"
						}
					],
					"name": "transferOwnership",
					"outputs": [],
					"stateMutability": "nonpayable",
					"type": "function"
				},
				{
					"inputs": [],
					"name": "withdraw",
					"outputs": [],
					"stateMutability": "nonpayable",
					"type": "function"
				},
				{
					"inputs": [
						{
							"internalType": "address",
							"name": "_erc20TokenAddress",
							"type": "address"
						}
					],
					"name": "withdraw",
					"outputs": [],
					"stateMutability": "nonpayable",
					"type": "function"
				}
			],
			"devdoc": {
				"kind": "dev",
				"methods": {
					"owner()": {
						"details": "Returns the address of the current owner."
					},
					"renounceOwnership()": {
						"details": "Leaves the contract without owner. It will not be possible to call `onlyOwner` functions anymore. Can only be called by the current owner. NOTE: Renouncing ownership will leave the contract without an owner, thereby removing any functionality that is only available to the owner."
					},
					"transferOwnership(address)": {
						"details": "Transfers ownership of the contract to a new account (`newOwner`). Can only be called by the current owner."
					}
				},
				"version": 1
			},
			"evm": {
				"assembly": "    /* \"contracts/SyCrowBarter.sol\":269:11339  contract SyCrowBarter is ISyCrowBarter, Ownable {... */\n  mstore(0x40, 0xa0)\n    /* \"contracts/SyCrowBarter.sol\":538:543  false */\n  0x00\n    /* \"contracts/SyCrowBarter.sol\":511:543  bool public _initialized = false */\n  0x04\n  exp(0x0100, 0x00)\n  dup2\n  sload\n  dup2\n  0xff\n  mul\n  not\n  and\n  swap1\n  dup4\n  iszero\n  iszero\n  mul\n  or\n  swap1\n  sstore\n  pop\n    /* \"contracts/SyCrowBarter.sol\":1892:1943  constructor() {... */\n  callvalue\n  dup1\n  iszero\n  tag_1\n  jumpi\n  0x00\n  dup1\n  revert\ntag_1:\n  pop\n    /* \"@openzeppelin/contracts/access/Ownable.sol\":921:953  _transferOwnership(_msgSender()) */\n  tag_5\n    /* \"@openzeppelin/contracts/access/Ownable.sol\":940:952  _msgSender() */\n  tag_6\n    /* \"@openzeppelin/contracts/access/Ownable.sol\":940:950  _msgSender */\n  shl(0x20, tag_7)\n    /* \"@openzeppelin/contracts/access/Ownable.sol\":940:952  _msgSender() */\n  0x20\n  shr\n  jump\t// in\ntag_6:\n    /* \"@openzeppelin/contracts/access/Ownable.sol\":921:939  _transferOwnership */\n  shl(0x20, tag_8)\n    /* \"@openzeppelin/contracts/access/Ownable.sol\":921:953  _transferOwnership(_msgSender()) */\n  0x20\n  shr\n  jump\t// in\ntag_5:\n    /* \"contracts/SyCrowBarter.sol\":1926:1936  msg.sender */\n  caller\n    /* \"contracts/SyCrowBarter.sol\":1916:1936  factory = msg.sender */\n  0xffffffffffffffffffffffffffffffffffffffff\n  and\n  0x80\n  dup2\n  0xffffffffffffffffffffffffffffffffffffffff\n  and\n  dup2\n  mstore\n  pop\n  pop\n    /* \"contracts/SyCrowBarter.sol\":269:11339  contract SyCrowBarter is ISyCrowBarter, Ownable {... */\n  jump(tag_10)\n    /* \"@openzeppelin/contracts/utils/Context.sol\":640:736  function _msgSender() internal view virtual returns (address) {... */\ntag_7:\n    /* \"@openzeppelin/contracts/utils/Context.sol\":693:700  address */\n  0x00\n    /* \"@openzeppelin/contracts/utils/Context.sol\":719:729  msg.sender */\n  caller\n    /* \"@openzeppelin/contracts/utils/Context.sol\":712:729  return msg.sender */\n  swap1\n  pop\n    /* \"@openzeppelin/contracts/utils/Context.sol\":640:736  function _msgSender() internal view virtual returns (address) {... */\n  swap1\n  jump\t// out\n    /* \"@openzeppelin/contracts/access/Ownable.sol\":2270:2457  function _transferOwnership(address newOwner) internal virtual {... */\ntag_8:\n    /* \"@openzeppelin/contracts/access/Ownable.sol\":2343:2359  address oldOwner */\n  0x00\n    /* \"@openzeppelin/contracts/access/Ownable.sol\":2362:2368  _owner */\n  dup1\n  0x00\n  swap1\n  sload\n  swap1\n  0x0100\n  exp\n  swap1\n  div\n  0xffffffffffffffffffffffffffffffffffffffff\n  and\n    /* \"@openzeppelin/contracts/access/Ownable.sol\":2343:2368  address oldOwner = _owner */\n  swap1\n  pop\n    /* \"@openzeppelin/contracts/access/Ownable.sol\":2387:2395  newOwner */\n  dup2\n    /* \"@openzeppelin/contracts/access/Ownable.sol\":2378:2384  _owner */\n  0x00\n  dup1\n    /* \"@openzeppelin/contracts/access/Ownable.sol\":2378:2395  _owner = newOwner */\n  0x0100\n  exp\n  dup2\n  sload\n  dup2\n  0xffffffffffffffffffffffffffffffffffffffff\n  mul\n  not\n  and\n  swap1\n  dup4\n  0xffffffffffffffffffffffffffffffffffffffff\n  and\n  mul\n  or\n  swap1\n  sstore\n  pop\n    /* \"@openzeppelin/contracts/access/Ownable.sol\":2441:2449  newOwner */\n  dup2\n    /* \"@openzeppelin/contracts/access/Ownable.sol\":2410:2450  OwnershipTransferred(oldOwner, newOwner) */\n  0xffffffffffffffffffffffffffffffffffffffff\n  and\n    /* \"@openzeppelin/contracts/access/Ownable.sol\":2431:2439  oldOwner */\n  dup2\n    /* \"@openzeppelin/contracts/access/Ownable.sol\":2410:2450  OwnershipTransferred(oldOwner, newOwner) */\n  0xffffffffffffffffffffffffffffffffffffffff\n  and\n  0x8be0079c531659141344cd1fd0a4f28419497f9722a3daafe3b4186f6b6457e0\n  mload(0x40)\n  mload(0x40)\n  dup1\n  swap2\n  sub\n  swap1\n  log3\n    /* \"@openzeppelin/contracts/access/Ownable.sol\":2333:2457  {... */\n  pop\n    /* \"@openzeppelin/contracts/access/Ownable.sol\":2270:2457  function _transferOwnership(address newOwner) internal virtual {... */\n  pop\n  jump\t// out\n    /* \"contracts/SyCrowBarter.sol\":269:11339  contract SyCrowBarter is ISyCrowBarter, Ownable {... */\ntag_10:\n  mload(0x80)\n  codecopy(0x00, dataOffset(sub_0), dataSize(sub_0))\n  0x00\n  assignImmutable(\"0x26a975632f70533c9512e57b565b8ce8e2befee6b08dfbc27c4a897a20e2c1d6\")\n  return(0x00, dataSize(sub_0))\nstop\n\nsub_0: assembly {\n        /* \"contracts/SyCrowBarter.sol\":269:11339  contract SyCrowBarter is ISyCrowBarter, Ownable {... */\n      mstore(0x40, 0x80)\n      jumpi(tag_1, lt(calldatasize, 0x04))\n      shr(0xe0, calldataload(0x00))\n      dup1\n      0x715018a6\n      gt\n      tag_21\n      jumpi\n      dup1\n      0xc45a0155\n      gt\n      tag_22\n      jumpi\n      dup1\n      0xc45a0155\n      eq\n      tag_16\n      jumpi\n      dup1\n      0xd7bdfc75\n      eq\n      tag_17\n      jumpi\n      dup1\n      0xdab5a8df\n      eq\n      tag_18\n      jumpi\n      dup1\n      0xe43372e9\n      eq\n      tag_19\n      jumpi\n      dup1\n      0xf2fde38b\n      eq\n      tag_20\n      jumpi\n      jump(tag_1)\n    tag_22:\n      dup1\n      0x715018a6\n      eq\n      tag_11\n      jumpi\n      dup1\n      0x8da5cb5b\n      eq\n      tag_12\n      jumpi\n      dup1\n      0xa09702b1\n      eq\n      tag_13\n      jumpi\n      dup1\n      0xaa6ca808\n      eq\n      tag_14\n      jumpi\n      dup1\n      0xabd050ea\n      eq\n      tag_15\n      jumpi\n      jump(tag_1)\n    tag_21:\n      dup1\n      0x3d370b4e\n      gt\n      tag_23\n      jumpi\n      dup1\n      0x3d370b4e\n      eq\n      tag_6\n      jumpi\n      dup1\n      0x40a6f1ab\n      eq\n      tag_7\n      jumpi\n      dup1\n      0x4341f920\n      eq\n      tag_8\n      jumpi\n      dup1\n      0x51cff8d9\n      eq\n      tag_9\n      jumpi\n      dup1\n      0x5f5780e5\n      eq\n      tag_10\n      jumpi\n      jump(tag_1)\n    tag_23:\n      dup1\n      0x0d182605\n      eq\n      tag_2\n      jumpi\n      dup1\n      0x2ffc6887\n      eq\n      tag_3\n      jumpi\n      dup1\n      0x3072cf60\n      eq\n      tag_4\n      jumpi\n      dup1\n      0x3ccfd60b\n      eq\n      tag_5\n      jumpi\n    tag_1:\n      0x00\n      dup1\n      revert\n        /* \"contracts/SyCrowBarter.sol\":4345:4614  function tradeTokenForEth(uint256 inAmount)... */\n    tag_2:\n      callvalue\n      dup1\n      iszero\n      tag_24\n      jumpi\n      0x00\n      dup1\n      revert\n    tag_24:\n      pop\n      tag_25\n      0x04\n      dup1\n      calldatasize\n      sub\n      dup2\n      add\n      swap1\n      tag_26\n      swap2\n      swap1\n      tag_27\n      jump\t// in\n    tag_26:\n      tag_28\n      jump\t// in\n    tag_25:\n      stop\n        /* \"contracts/SyCrowBarter.sol\":4064:4339  function tradeTokenForToken(uint256 inAmount)... */\n    tag_3:\n      callvalue\n      dup1\n      iszero\n      tag_29\n      jumpi\n      0x00\n      dup1\n      revert\n    tag_29:\n      pop\n      tag_30\n      0x04\n      dup1\n      calldatasize\n      sub\n      dup2\n      add\n      swap1\n      tag_31\n      swap2\n      swap1\n      tag_27\n      jump\t// in\n    tag_31:\n      tag_32\n      jump\t// in\n    tag_30:\n      stop\n        /* \"contracts/SyCrowBarter.sol\":511:543  bool public _initialized = false */\n    tag_4:\n      callvalue\n      dup1\n      iszero\n      tag_33\n      jumpi\n      0x00\n      dup1\n      revert\n    tag_33:\n      pop\n      tag_34\n      tag_35\n      jump\t// in\n    tag_34:\n      mload(0x40)\n      tag_36\n      swap2\n      swap1\n      tag_37\n      jump\t// in\n    tag_36:\n      mload(0x40)\n      dup1\n      swap2\n      sub\n      swap1\n      return\n        /* \"contracts/SyCrowBarter.sol\":8577:10296  function withdraw() external override checkInActive initialized onlyOwner {... */\n    tag_5:\n      callvalue\n      dup1\n      iszero\n      tag_38\n      jumpi\n      0x00\n      dup1\n      revert\n    tag_38:\n      pop\n      tag_39\n      tag_40\n      jump\t// in\n    tag_39:\n      stop\n        /* \"contracts/SyCrowBarter.sol\":2975:3162  function getAmounts()... */\n    tag_6:\n      callvalue\n      dup1\n      iszero\n      tag_41\n      jumpi\n      0x00\n      dup1\n      revert\n    tag_41:\n      pop\n      tag_42\n      tag_43\n      jump\t// in\n    tag_42:\n      mload(0x40)\n      tag_44\n      swap3\n      swap2\n      swap1\n      tag_45\n      jump\t// in\n    tag_44:\n      mload(0x40)\n      dup1\n      swap2\n      sub\n      swap1\n      return\n        /* \"contracts/SyCrowBarter.sol\":370:401  uint256 public totalTradeAmount */\n    tag_7:\n      callvalue\n      dup1\n      iszero\n      tag_46\n      jumpi\n      0x00\n      dup1\n      revert\n    tag_46:\n      pop\n      tag_47\n      tag_48\n      jump\t// in\n    tag_47:\n      mload(0x40)\n      tag_49\n      swap2\n      swap1\n      tag_50\n      jump\t// in\n    tag_49:\n      mload(0x40)\n      dup1\n      swap2\n      sub\n      swap1\n      return\n        /* \"contracts/SyCrowBarter.sol\":4620:4905  function tradeEthForToken(uint256 inAmount)... */\n    tag_8:\n      tag_51\n      0x04\n      dup1\n      calldatasize\n      sub\n      dup2\n      add\n      swap1\n      tag_52\n      swap2\n      swap1\n      tag_27\n      jump\t// in\n    tag_52:\n      tag_53\n      jump\t// in\n    tag_51:\n      stop\n        /* \"contracts/SyCrowBarter.sol\":10302:10979  function withdraw(address _erc20TokenAddress)... */\n    tag_9:\n      callvalue\n      dup1\n      iszero\n      tag_54\n      jumpi\n      0x00\n      dup1\n      revert\n    tag_54:\n      pop\n      tag_55\n      0x04\n      dup1\n      calldatasize\n      sub\n      dup2\n      add\n      swap1\n      tag_56\n      swap2\n      swap1\n      tag_57\n      jump\t// in\n    tag_56:\n      tag_58\n      jump\t// in\n    tag_55:\n      stop\n        /* \"contracts/SyCrowBarter.sol\":1949:2969  function initialize(... */\n    tag_10:\n      callvalue\n      dup1\n      iszero\n      tag_59\n      jumpi\n      0x00\n      dup1\n      revert\n    tag_59:\n      pop\n      tag_60\n      0x04\n      dup1\n      calldatasize\n      sub\n      dup2\n      add\n      swap1\n      tag_61\n      swap2\n      swap1\n      tag_62\n      jump\t// in\n    tag_61:\n      tag_63\n      jump\t// in\n    tag_60:\n      mload(0x40)\n      tag_64\n      swap2\n      swap1\n      tag_37\n      jump\t// in\n    tag_64:\n      mload(0x40)\n      dup1\n      swap2\n      sub\n      swap1\n      return\n        /* \"@openzeppelin/contracts/access/Ownable.sol\":1668:1769  function renounceOwnership() public virtual onlyOwner {... */\n    tag_11:\n      callvalue\n      dup1\n      iszero\n      tag_65\n      jumpi\n      0x00\n      dup1\n      revert\n    tag_65:\n      pop\n      tag_66\n      tag_67\n      jump\t// in\n    tag_66:\n      stop\n        /* \"@openzeppelin/contracts/access/Ownable.sol\":1036:1121  function owner() public view virtual returns (address) {... */\n    tag_12:\n      callvalue\n      dup1\n      iszero\n      tag_68\n      jumpi\n      0x00\n      dup1\n      revert\n    tag_68:\n      pop\n      tag_69\n      tag_70\n      jump\t// in\n    tag_69:\n      mload(0x40)\n      tag_71\n      swap2\n      swap1\n      tag_72\n      jump\t// in\n    tag_71:\n      mload(0x40)\n      dup1\n      swap2\n      sub\n      swap1\n      return\n        /* \"contracts/SyCrowBarter.sol\":5157:5391  function tradeTokenForEth()... */\n    tag_13:\n      callvalue\n      dup1\n      iszero\n      tag_73\n      jumpi\n      0x00\n      dup1\n      revert\n    tag_73:\n      pop\n      tag_74\n      tag_75\n      jump\t// in\n    tag_74:\n      stop\n        /* \"contracts/SyCrowBarter.sol\":3168:3366  function getTokens()... */\n    tag_14:\n      callvalue\n      dup1\n      iszero\n      tag_76\n      jumpi\n      0x00\n      dup1\n      revert\n    tag_76:\n      pop\n      tag_77\n      tag_78\n      jump\t// in\n    tag_77:\n      mload(0x40)\n      tag_79\n      swap3\n      swap2\n      swap1\n      tag_80\n      jump\t// in\n    tag_79:\n      mload(0x40)\n      dup1\n      swap2\n      sub\n      swap1\n      return\n        /* \"contracts/SyCrowBarter.sol\":4911:5151  function tradeTokenForToken()... */\n    tag_15:\n      callvalue\n      dup1\n      iszero\n      tag_81\n      jumpi\n      0x00\n      dup1\n      revert\n    tag_81:\n      pop\n      tag_82\n      tag_83\n      jump\t// in\n    tag_82:\n      stop\n        /* \"contracts/SyCrowBarter.sol\":323:364  address public immutable override factory */\n    tag_16:\n      callvalue\n      dup1\n      iszero\n      tag_84\n      jumpi\n      0x00\n      dup1\n      revert\n    tag_84:\n      pop\n      tag_85\n      tag_86\n      jump\t// in\n    tag_85:\n      mload(0x40)\n      tag_87\n      swap2\n      swap1\n      tag_72\n      jump\t// in\n    tag_87:\n      mload(0x40)\n      dup1\n      swap2\n      sub\n      swap1\n      return\n        /* \"contracts/SyCrowBarter.sol\":5397:5647  function tradeEthForToken()... */\n    tag_17:\n      tag_88\n      tag_89\n      jump\t// in\n    tag_88:\n      stop\n        /* \"contracts/SyCrowBarter.sol\":10985:11158  function getTradeOutAmount(uint256 amount)... */\n    tag_18:\n      callvalue\n      dup1\n      iszero\n      tag_90\n      jumpi\n      0x00\n      dup1\n      revert\n    tag_90:\n      pop\n      tag_91\n      0x04\n      dup1\n      calldatasize\n      sub\n      dup2\n      add\n      swap1\n      tag_92\n      swap2\n      swap1\n      tag_27\n      jump\t// in\n    tag_92:\n      tag_93\n      jump\t// in\n    tag_91:\n      mload(0x40)\n      tag_94\n      swap2\n      swap1\n      tag_50\n      jump\t// in\n    tag_94:\n      mload(0x40)\n      dup1\n      swap2\n      sub\n      swap1\n      return\n        /* \"contracts/SyCrowBarter.sol\":3372:4058  function getTrades()... */\n    tag_19:\n      callvalue\n      dup1\n      iszero\n      tag_95\n      jumpi\n      0x00\n      dup1\n      revert\n    tag_95:\n      pop\n      tag_96\n      tag_97\n      jump\t// in\n    tag_96:\n      mload(0x40)\n      tag_98\n      swap4\n      swap3\n      swap2\n      swap1\n      tag_99\n      jump\t// in\n    tag_98:\n      mload(0x40)\n      dup1\n      swap2\n      sub\n      swap1\n      return\n        /* \"@openzeppelin/contracts/access/Ownable.sol\":1918:2116  function transferOwnership(address newOwner) public virtual onlyOwner {... */\n    tag_20:\n      callvalue\n      dup1\n      iszero\n      tag_100\n      jumpi\n      0x00\n      dup1\n      revert\n    tag_100:\n      pop\n      tag_101\n      0x04\n      dup1\n      calldatasize\n      sub\n      dup2\n      add\n      swap1\n      tag_102\n      swap2\n      swap1\n      tag_57\n      jump\t// in\n    tag_102:\n      tag_103\n      jump\t// in\n    tag_101:\n      stop\n        /* \"contracts/SyCrowBarter.sol\":4345:4614  function tradeTokenForEth(uint256 inAmount)... */\n    tag_28:\n        /* \"contracts/SyCrowBarter.sol\":971:986  block.timestamp */\n      timestamp\n        /* \"contracts/SyCrowBarter.sol\":958:967  _deadline */\n      sload(0x03)\n        /* \"contracts/SyCrowBarter.sol\":958:986  _deadline >= block.timestamp */\n      lt\n      iszero\n        /* \"contracts/SyCrowBarter.sol\":958:1024  _deadline >= block.timestamp && totalTradeAmount < _expectedAmount */\n      dup1\n      iszero\n      tag_105\n      jumpi\n      pop\n        /* \"contracts/SyCrowBarter.sol\":1009:1024  _expectedAmount */\n      sload(0x07)\n        /* \"contracts/SyCrowBarter.sol\":990:1006  totalTradeAmount */\n      sload(0x01)\n        /* \"contracts/SyCrowBarter.sol\":990:1024  totalTradeAmount < _expectedAmount */\n      lt\n        /* \"contracts/SyCrowBarter.sol\":958:1024  _deadline >= block.timestamp && totalTradeAmount < _expectedAmount */\n    tag_105:\n        /* \"contracts/SyCrowBarter.sol\":937:1072  require(... */\n      tag_106\n      jumpi\n      mload(0x40)\n      0x08c379a000000000000000000000000000000000000000000000000000000000\n      dup2\n      mstore\n      0x04\n      add\n      tag_107\n      swap1\n      tag_108\n      jump\t// in\n    tag_107:\n      mload(0x40)\n      dup1\n      swap2\n      sub\n      swap1\n      revert\n    tag_106:\n        /* \"contracts/SyCrowBarter.sol\":1489:1501  _initialized */\n      0x04\n      0x00\n      swap1\n      sload\n      swap1\n      0x0100\n      exp\n      swap1\n      div\n      0xff\n      and\n        /* \"contracts/SyCrowBarter.sol\":1481:1535  require(_initialized, \"SyCrowBarter: NOT_INITIALIZED\") */\n      tag_110\n      jumpi\n      mload(0x40)\n      0x08c379a000000000000000000000000000000000000000000000000000000000\n      dup2\n      mstore\n      0x04\n      add\n      tag_111\n      swap1\n      tag_112\n      jump\t// in\n    tag_111:\n      mload(0x40)\n      dup1\n      swap2\n      sub\n      swap1\n      revert\n    tag_110:\n        /* \"contracts/SyCrowBarter.sol\":1722:1755  ISyCrowBarterFactory isycrFactory */\n      0x00\n        /* \"contracts/SyCrowBarter.sol\":1779:1786  factory */\n      immutable(\"0x26a975632f70533c9512e57b565b8ce8e2befee6b08dfbc27c4a897a20e2c1d6\")\n        /* \"contracts/SyCrowBarter.sol\":1722:1787  ISyCrowBarterFactory isycrFactory = ISyCrowBarterFactory(factory) */\n      swap1\n      pop\n        /* \"contracts/SyCrowBarter.sol\":1806:1818  isycrFactory */\n      dup1\n        /* \"contracts/SyCrowBarter.sol\":1806:1827  isycrFactory.isPaused */\n      0xffffffffffffffffffffffffffffffffffffffff\n      and\n      0xb187bd26\n        /* \"contracts/SyCrowBarter.sol\":1806:1829  isycrFactory.isPaused() */\n      mload(0x40)\n      dup2\n      0xffffffff\n      and\n      0xe0\n      shl\n      dup2\n      mstore\n      0x04\n      add\n      0x20\n      mload(0x40)\n      dup1\n      dup4\n      sub\n      dup2\n      dup7\n      gas\n      staticcall\n      iszero\n      dup1\n      iszero\n      tag_115\n      jumpi\n      returndatasize\n      0x00\n      dup1\n      returndatacopy\n      revert(0x00, returndatasize)\n    tag_115:\n      pop\n      pop\n      pop\n      pop\n      mload(0x40)\n      returndatasize\n      not(0x1f)\n      0x1f\n      dup3\n      add\n      and\n      dup3\n      add\n      dup1\n      0x40\n      mstore\n      pop\n      dup2\n      add\n      swap1\n      tag_116\n      swap2\n      swap1\n      tag_117\n      jump\t// in\n    tag_116:\n        /* \"contracts/SyCrowBarter.sol\":1805:1829  !isycrFactory.isPaused() */\n      iszero\n        /* \"contracts/SyCrowBarter.sol\":1797:1868  require(!isycrFactory.isPaused(), \"SyCrowBarter: Base Contract Paused\") */\n      tag_118\n      jumpi\n      mload(0x40)\n      0x08c379a000000000000000000000000000000000000000000000000000000000\n      dup2\n      mstore\n      0x04\n      add\n      tag_119\n      swap1\n      tag_120\n      jump\t// in\n    tag_119:\n      mload(0x40)\n      dup1\n      swap2\n      sub\n      swap1\n      revert\n    tag_118:\n        /* \"contracts/SyCrowBarter.sol\":1606:1623  _allowMultiBarter */\n      0x08\n      0x00\n      swap1\n      sload\n      swap1\n      0x0100\n      exp\n      swap1\n      div\n      0xff\n      and\n        /* \"contracts/SyCrowBarter.sol\":1598:1665  require(_allowMultiBarter, \"SyCrowBarter: MULTI_TRADE_NOT_ENABLED\") */\n      tag_122\n      jumpi\n      mload(0x40)\n      0x08c379a000000000000000000000000000000000000000000000000000000000\n      dup2\n      mstore\n      0x04\n      add\n      tag_123\n      swap1\n      tag_124\n      jump\t// in\n    tag_123:\n      mload(0x40)\n      dup1\n      swap2\n      sub\n      swap1\n      revert\n    tag_122:\n        /* \"contracts/SyCrowBarter.sol\":4533:4564  ISyCrowBarterType.ETH_FOR_TOKEN */\n      0x00\n        /* \"contracts/SyCrowBarter.sol\":1183:1194  _barterType */\n      0x02\n      0x00\n      swap1\n      sload\n      swap1\n      0x0100\n      exp\n      swap1\n      div\n      0xff\n      and\n        /* \"contracts/SyCrowBarter.sol\":1169:1194  barterType == _barterType */\n      0x02\n      dup2\n      gt\n      iszero\n      tag_126\n      jumpi\n      tag_127\n      tag_128\n      jump\t// in\n    tag_127:\n    tag_126:\n        /* \"contracts/SyCrowBarter.sol\":1169:1179  barterType */\n      dup2\n        /* \"contracts/SyCrowBarter.sol\":1169:1194  barterType == _barterType */\n      0x02\n      dup2\n      gt\n      iszero\n      tag_129\n      jumpi\n      tag_130\n      tag_128\n      jump\t// in\n    tag_130:\n    tag_129:\n      eq\n        /* \"contracts/SyCrowBarter.sol\":1161:1232  require(barterType == _barterType, \"SyCrowBarter: INVALID_BARTER_TYPE\") */\n      tag_131\n      jumpi\n      mload(0x40)\n      0x08c379a000000000000000000000000000000000000000000000000000000000\n      dup2\n      mstore\n      0x04\n      add\n      tag_132\n      swap1\n      tag_133\n      jump\t// in\n    tag_132:\n      mload(0x40)\n      dup1\n      swap2\n      sub\n      swap1\n      revert\n    tag_131:\n        /* \"contracts/SyCrowBarter.sol\":4580:4607  _tradeTokenForEth(inAmount) */\n      tag_135\n        /* \"contracts/SyCrowBarter.sol\":4598:4606  inAmount */\n      dup4\n        /* \"contracts/SyCrowBarter.sol\":4580:4597  _tradeTokenForEth */\n      tag_136\n        /* \"contracts/SyCrowBarter.sol\":4580:4607  _tradeTokenForEth(inAmount) */\n      jump\t// in\n    tag_135:\n        /* \"contracts/SyCrowBarter.sol\":1675:1676  _ */\n      pop\n        /* \"contracts/SyCrowBarter.sol\":1712:1886  {... */\n      pop\n        /* \"contracts/SyCrowBarter.sol\":4345:4614  function tradeTokenForEth(uint256 inAmount)... */\n      pop\n      jump\t// out\n        /* \"contracts/SyCrowBarter.sol\":4064:4339  function tradeTokenForToken(uint256 inAmount)... */\n    tag_32:\n        /* \"contracts/SyCrowBarter.sol\":971:986  block.timestamp */\n      timestamp\n        /* \"contracts/SyCrowBarter.sol\":958:967  _deadline */\n      sload(0x03)\n        /* \"contracts/SyCrowBarter.sol\":958:986  _deadline >= block.timestamp */\n      lt\n      iszero\n        /* \"contracts/SyCrowBarter.sol\":958:1024  _deadline >= block.timestamp && totalTradeAmount < _expectedAmount */\n      dup1\n      iszero\n      tag_138\n      jumpi\n      pop\n        /* \"contracts/SyCrowBarter.sol\":1009:1024  _expectedAmount */\n      sload(0x07)\n        /* \"contracts/SyCrowBarter.sol\":990:1006  totalTradeAmount */\n      sload(0x01)\n        /* \"contracts/SyCrowBarter.sol\":990:1024  totalTradeAmount < _expectedAmount */\n      lt\n        /* \"contracts/SyCrowBarter.sol\":958:1024  _deadline >= block.timestamp && totalTradeAmount < _expectedAmount */\n    tag_138:\n        /* \"contracts/SyCrowBarter.sol\":937:1072  require(... */\n      tag_139\n      jumpi\n      mload(0x40)\n      0x08c379a000000000000000000000000000000000000000000000000000000000\n      dup2\n      mstore\n      0x04\n      add\n      tag_140\n      swap1\n      tag_108\n      jump\t// in\n    tag_140:\n      mload(0x40)\n      dup1\n      swap2\n      sub\n      swap1\n      revert\n    tag_139:\n        /* \"contracts/SyCrowBarter.sol\":1489:1501  _initialized */\n      0x04\n      0x00\n      swap1\n      sload\n      swap1\n      0x0100\n      exp\n      swap1\n      div\n      0xff\n      and\n        /* \"contracts/SyCrowBarter.sol\":1481:1535  require(_initialized, \"SyCrowBarter: NOT_INITIALIZED\") */\n      tag_142\n      jumpi\n      mload(0x40)\n      0x08c379a000000000000000000000000000000000000000000000000000000000\n      dup2\n      mstore\n      0x04\n      add\n      tag_143\n      swap1\n      tag_112\n      jump\t// in\n    tag_143:\n      mload(0x40)\n      dup1\n      swap2\n      sub\n      swap1\n      revert\n    tag_142:\n        /* \"contracts/SyCrowBarter.sol\":1722:1755  ISyCrowBarterFactory isycrFactory */\n      0x00\n        /* \"contracts/SyCrowBarter.sol\":1779:1786  factory */\n      immutable(\"0x26a975632f70533c9512e57b565b8ce8e2befee6b08dfbc27c4a897a20e2c1d6\")\n        /* \"contracts/SyCrowBarter.sol\":1722:1787  ISyCrowBarterFactory isycrFactory = ISyCrowBarterFactory(factory) */\n      swap1\n      pop\n        /* \"contracts/SyCrowBarter.sol\":1806:1818  isycrFactory */\n      dup1\n        /* \"contracts/SyCrowBarter.sol\":1806:1827  isycrFactory.isPaused */\n      0xffffffffffffffffffffffffffffffffffffffff\n      and\n      0xb187bd26\n        /* \"contracts/SyCrowBarter.sol\":1806:1829  isycrFactory.isPaused() */\n      mload(0x40)\n      dup2\n      0xffffffff\n      and\n      0xe0\n      shl\n      dup2\n      mstore\n      0x04\n      add\n      0x20\n      mload(0x40)\n      dup1\n      dup4\n      sub\n      dup2\n      dup7\n      gas\n      staticcall\n      iszero\n      dup1\n      iszero\n      tag_146\n      jumpi\n      returndatasize\n      0x00\n      dup1\n      returndatacopy\n      revert(0x00, returndatasize)\n    tag_146:\n      pop\n      pop\n      pop\n      pop\n      mload(0x40)\n      returndatasize\n      not(0x1f)\n      0x1f\n      dup3\n      add\n      and\n      dup3\n      add\n      dup1\n      0x40\n      mstore\n      pop\n      dup2\n      add\n      swap1\n      tag_147\n      swap2\n      swap1\n      tag_117\n      jump\t// in\n    tag_147:\n        /* \"contracts/SyCrowBarter.sol\":1805:1829  !isycrFactory.isPaused() */\n      iszero\n        /* \"contracts/SyCrowBarter.sol\":1797:1868  require(!isycrFactory.isPaused(), \"SyCrowBarter: Base Contract Paused\") */\n      tag_148\n      jumpi\n      mload(0x40)\n      0x08c379a000000000000000000000000000000000000000000000000000000000\n      dup2\n      mstore\n      0x04\n      add\n      tag_149\n      swap1\n      tag_120\n      jump\t// in\n    tag_149:\n      mload(0x40)\n      dup1\n      swap2\n      sub\n      swap1\n      revert\n    tag_148:\n        /* \"contracts/SyCrowBarter.sol\":1606:1623  _allowMultiBarter */\n      0x08\n      0x00\n      swap1\n      sload\n      swap1\n      0x0100\n      exp\n      swap1\n      div\n      0xff\n      and\n        /* \"contracts/SyCrowBarter.sol\":1598:1665  require(_allowMultiBarter, \"SyCrowBarter: MULTI_TRADE_NOT_ENABLED\") */\n      tag_151\n      jumpi\n      mload(0x40)\n      0x08c379a000000000000000000000000000000000000000000000000000000000\n      dup2\n      mstore\n      0x04\n      add\n      tag_152\n      swap1\n      tag_124\n      jump\t// in\n    tag_152:\n      mload(0x40)\n      dup1\n      swap2\n      sub\n      swap1\n      revert\n    tag_151:\n        /* \"contracts/SyCrowBarter.sol\":4254:4287  ISyCrowBarterType.TOKEN_FOR_TOKEN */\n      0x02\n        /* \"contracts/SyCrowBarter.sol\":1183:1194  _barterType */\n      dup1\n      0x00\n      swap1\n      sload\n      swap1\n      0x0100\n      exp\n      swap1\n      div\n      0xff\n      and\n        /* \"contracts/SyCrowBarter.sol\":1169:1194  barterType == _barterType */\n      0x02\n      dup2\n      gt\n      iszero\n      tag_154\n      jumpi\n      tag_155\n      tag_128\n      jump\t// in\n    tag_155:\n    tag_154:\n        /* \"contracts/SyCrowBarter.sol\":1169:1179  barterType */\n      dup2\n        /* \"contracts/SyCrowBarter.sol\":1169:1194  barterType == _barterType */\n      0x02\n      dup2\n      gt\n      iszero\n      tag_156\n      jumpi\n      tag_157\n      tag_128\n      jump\t// in\n    tag_157:\n    tag_156:\n      eq\n        /* \"contracts/SyCrowBarter.sol\":1161:1232  require(barterType == _barterType, \"SyCrowBarter: INVALID_BARTER_TYPE\") */\n      tag_158\n      jumpi\n      mload(0x40)\n      0x08c379a000000000000000000000000000000000000000000000000000000000\n      dup2\n      mstore\n      0x04\n      add\n      tag_159\n      swap1\n      tag_133\n      jump\t// in\n    tag_159:\n      mload(0x40)\n      dup1\n      swap2\n      sub\n      swap1\n      revert\n    tag_158:\n        /* \"contracts/SyCrowBarter.sol\":4303:4332  _tradeTokenForToken(inAmount) */\n      tag_161\n        /* \"contracts/SyCrowBarter.sol\":4323:4331  inAmount */\n      dup4\n        /* \"contracts/SyCrowBarter.sol\":4303:4322  _tradeTokenForToken */\n      tag_162\n        /* \"contracts/SyCrowBarter.sol\":4303:4332  _tradeTokenForToken(inAmount) */\n      jump\t// in\n    tag_161:\n        /* \"contracts/SyCrowBarter.sol\":1675:1676  _ */\n      pop\n        /* \"contracts/SyCrowBarter.sol\":1712:1886  {... */\n      pop\n        /* \"contracts/SyCrowBarter.sol\":4064:4339  function tradeTokenForToken(uint256 inAmount)... */\n      pop\n      jump\t// out\n        /* \"contracts/SyCrowBarter.sol\":511:543  bool public _initialized = false */\n    tag_35:\n      0x04\n      0x00\n      swap1\n      sload\n      swap1\n      0x0100\n      exp\n      swap1\n      div\n      0xff\n      and\n      dup2\n      jump\t// out\n        /* \"contracts/SyCrowBarter.sol\":8577:10296  function withdraw() external override checkInActive initialized onlyOwner {... */\n    tag_40:\n        /* \"contracts/SyCrowBarter.sol\":1324:1339  block.timestamp */\n      timestamp\n        /* \"contracts/SyCrowBarter.sol\":1312:1321  _deadline */\n      sload(0x03)\n        /* \"contracts/SyCrowBarter.sol\":1312:1339  _deadline < block.timestamp */\n      lt\n        /* \"contracts/SyCrowBarter.sol\":1312:1378  _deadline < block.timestamp || totalTradeAmount >= _expectedAmount */\n      dup1\n      tag_164\n      jumpi\n      pop\n        /* \"contracts/SyCrowBarter.sol\":1363:1378  _expectedAmount */\n      sload(0x07)\n        /* \"contracts/SyCrowBarter.sol\":1343:1359  totalTradeAmount */\n      sload(0x01)\n        /* \"contracts/SyCrowBarter.sol\":1343:1378  totalTradeAmount >= _expectedAmount */\n      lt\n      iszero\n        /* \"contracts/SyCrowBarter.sol\":1312:1378  _deadline < block.timestamp || totalTradeAmount >= _expectedAmount */\n    tag_164:\n        /* \"contracts/SyCrowBarter.sol\":1291:1424  require(... */\n      tag_165\n      jumpi\n      mload(0x40)\n      0x08c379a000000000000000000000000000000000000000000000000000000000\n      dup2\n      mstore\n      0x04\n      add\n      tag_166\n      swap1\n      tag_167\n      jump\t// in\n    tag_166:\n      mload(0x40)\n      dup1\n      swap2\n      sub\n      swap1\n      revert\n    tag_165:\n        /* \"contracts/SyCrowBarter.sol\":1489:1501  _initialized */\n      0x04\n      0x00\n      swap1\n      sload\n      swap1\n      0x0100\n      exp\n      swap1\n      div\n      0xff\n      and\n        /* \"contracts/SyCrowBarter.sol\":1481:1535  require(_initialized, \"SyCrowBarter: NOT_INITIALIZED\") */\n      tag_169\n      jumpi\n      mload(0x40)\n      0x08c379a000000000000000000000000000000000000000000000000000000000\n      dup2\n      mstore\n      0x04\n      add\n      tag_170\n      swap1\n      tag_112\n      jump\t// in\n    tag_170:\n      mload(0x40)\n      dup1\n      swap2\n      sub\n      swap1\n      revert\n    tag_169:\n        /* \"@openzeppelin/contracts/access/Ownable.sol\":1259:1271  _msgSender() */\n      tag_172\n        /* \"@openzeppelin/contracts/access/Ownable.sol\":1259:1269  _msgSender */\n      tag_173\n        /* \"@openzeppelin/contracts/access/Ownable.sol\":1259:1271  _msgSender() */\n      jump\t// in\n    tag_172:\n        /* \"@openzeppelin/contracts/access/Ownable.sol\":1248:1271  owner() == _msgSender() */\n      0xffffffffffffffffffffffffffffffffffffffff\n      and\n        /* \"@openzeppelin/contracts/access/Ownable.sol\":1248:1255  owner() */\n      tag_174\n        /* \"@openzeppelin/contracts/access/Ownable.sol\":1248:1253  owner */\n      tag_70\n        /* \"@openzeppelin/contracts/access/Ownable.sol\":1248:1255  owner() */\n      jump\t// in\n    tag_174:\n        /* \"@openzeppelin/contracts/access/Ownable.sol\":1248:1271  owner() == _msgSender() */\n      0xffffffffffffffffffffffffffffffffffffffff\n      and\n      eq\n        /* \"@openzeppelin/contracts/access/Ownable.sol\":1240:1308  require(owner() == _msgSender(), \"Ownable: caller is not the owner\") */\n      tag_175\n      jumpi\n      mload(0x40)\n      0x08c379a000000000000000000000000000000000000000000000000000000000\n      dup2\n      mstore\n      0x04\n      add\n      tag_176\n      swap1\n      tag_177\n      jump\t// in\n    tag_176:\n      mload(0x40)\n      dup1\n      swap2\n      sub\n      swap1\n      revert\n    tag_175:\n        /* \"contracts/SyCrowBarter.sol\":8661:8672  IWETH _weth */\n      0x00\n        /* \"contracts/SyCrowBarter.sol\":8681:8685  WETH */\n      0x02\n      0x01\n      swap1\n      sload\n      swap1\n      0x0100\n      exp\n      swap1\n      div\n      0xffffffffffffffffffffffffffffffffffffffff\n      and\n        /* \"contracts/SyCrowBarter.sol\":8661:8686  IWETH _weth = IWETH(WETH) */\n      swap1\n      pop\n        /* \"contracts/SyCrowBarter.sol\":8697:8715  uint256 ethBalance */\n      0x00\n        /* \"contracts/SyCrowBarter.sol\":8718:8723  _weth */\n      dup2\n        /* \"contracts/SyCrowBarter.sol\":8718:8733  _weth.balanceOf */\n      0xffffffffffffffffffffffffffffffffffffffff\n      and\n      0x70a08231\n        /* \"contracts/SyCrowBarter.sol\":8742:8746  this */\n      address\n        /* \"contracts/SyCrowBarter.sol\":8718:8748  _weth.balanceOf(address(this)) */\n      mload(0x40)\n      dup3\n      0xffffffff\n      and\n      0xe0\n      shl\n      dup2\n      mstore\n      0x04\n      add\n      tag_179\n      swap2\n      swap1\n      tag_72\n      jump\t// in\n    tag_179:\n      0x20\n      mload(0x40)\n      dup1\n      dup4\n      sub\n      dup2\n      dup7\n      gas\n      staticcall\n      iszero\n      dup1\n      iszero\n      tag_181\n      jumpi\n      returndatasize\n      0x00\n      dup1\n      returndatacopy\n      revert(0x00, returndatasize)\n    tag_181:\n      pop\n      pop\n      pop\n      pop\n      mload(0x40)\n      returndatasize\n      not(0x1f)\n      0x1f\n      dup3\n      add\n      and\n      dup3\n      add\n      dup1\n      0x40\n      mstore\n      pop\n      dup2\n      add\n      swap1\n      tag_182\n      swap2\n      swap1\n      tag_183\n      jump\t// in\n    tag_182:\n        /* \"contracts/SyCrowBarter.sol\":8697:8748  uint256 ethBalance = _weth.balanceOf(address(this)) */\n      swap1\n      pop\n        /* \"contracts/SyCrowBarter.sol\":8776:8777  0 */\n      0x00\n        /* \"contracts/SyCrowBarter.sol\":8763:8773  ethBalance */\n      dup2\n        /* \"contracts/SyCrowBarter.sol\":8763:8777  ethBalance > 0 */\n      gt\n        /* \"contracts/SyCrowBarter.sol\":8759:8904  if (ethBalance > 0) {... */\n      iszero\n      tag_184\n      jumpi\n        /* \"contracts/SyCrowBarter.sol\":8799:8803  WETH */\n      0x02\n      0x01\n      swap1\n      sload\n      swap1\n      0x0100\n      exp\n      swap1\n      div\n      0xffffffffffffffffffffffffffffffffffffffff\n      and\n        /* \"contracts/SyCrowBarter.sol\":8793:8813  IWETH(WETH).withdraw */\n      0xffffffffffffffffffffffffffffffffffffffff\n      and\n      0x2e1a7d4d\n        /* \"contracts/SyCrowBarter.sol\":8814:8824  ethBalance */\n      dup3\n        /* \"contracts/SyCrowBarter.sol\":8793:8825  IWETH(WETH).withdraw(ethBalance) */\n      mload(0x40)\n      dup3\n      0xffffffff\n      and\n      0xe0\n      shl\n      dup2\n      mstore\n      0x04\n      add\n      tag_185\n      swap2\n      swap1\n      tag_50\n      jump\t// in\n    tag_185:\n      0x00\n      mload(0x40)\n      dup1\n      dup4\n      sub\n      dup2\n      0x00\n      dup8\n      dup1\n      extcodesize\n      iszero\n      dup1\n      iszero\n      tag_186\n      jumpi\n      0x00\n      dup1\n      revert\n    tag_186:\n      pop\n      gas\n      call\n      iszero\n      dup1\n      iszero\n      tag_188\n      jumpi\n      returndatasize\n      0x00\n      dup1\n      returndatacopy\n      revert(0x00, returndatasize)\n    tag_188:\n      pop\n      pop\n      pop\n      pop\n        /* \"contracts/SyCrowBarter.sol\":8839:8893  TransferHelper.safeTransferETH(msg.sender, ethBalance) */\n      tag_189\n        /* \"contracts/SyCrowBarter.sol\":8870:8880  msg.sender */\n      caller\n        /* \"contracts/SyCrowBarter.sol\":8882:8892  ethBalance */\n      dup3\n        /* \"contracts/SyCrowBarter.sol\":8839:8869  TransferHelper.safeTransferETH */\n      tag_190\n        /* \"contracts/SyCrowBarter.sol\":8839:8893  TransferHelper.safeTransferETH(msg.sender, ethBalance) */\n      jump\t// in\n    tag_189:\n        /* \"contracts/SyCrowBarter.sol\":8759:8904  if (ethBalance > 0) {... */\n    tag_184:\n        /* \"contracts/SyCrowBarter.sol\":8914:8942  uint256 expectedTokenBalance */\n      0x00\n        /* \"contracts/SyCrowBarter.sol\":8952:8973  _expectedTokenAddress */\n      0x05\n      0x00\n      swap1\n      sload\n      swap1\n      0x0100\n      exp\n      swap1\n      div\n      0xffffffffffffffffffffffffffffffffffffffff\n      and\n        /* \"contracts/SyCrowBarter.sol\":8945:8984  IERC20(_expectedTokenAddress).balanceOf */\n      0xffffffffffffffffffffffffffffffffffffffff\n      and\n      0x70a08231\n        /* \"contracts/SyCrowBarter.sol\":9006:9010  this */\n      address\n        /* \"contracts/SyCrowBarter.sol\":8945:9021  IERC20(_expectedTokenAddress).balanceOf(... */\n      mload(0x40)\n      dup3\n      0xffffffff\n      and\n      0xe0\n      shl\n      dup2\n      mstore\n      0x04\n      add\n      tag_191\n      swap2\n      swap1\n      tag_72\n      jump\t// in\n    tag_191:\n      0x20\n      mload(0x40)\n      dup1\n      dup4\n      sub\n      dup2\n      dup7\n      gas\n      staticcall\n      iszero\n      dup1\n      iszero\n      tag_193\n      jumpi\n      returndatasize\n      0x00\n      dup1\n      returndatacopy\n      revert(0x00, returndatasize)\n    tag_193:\n      pop\n      pop\n      pop\n      pop\n      mload(0x40)\n      returndatasize\n      not(0x1f)\n      0x1f\n      dup3\n      add\n      and\n      dup3\n      add\n      dup1\n      0x40\n      mstore\n      pop\n      dup2\n      add\n      swap1\n      tag_194\n      swap2\n      swap1\n      tag_183\n      jump\t// in\n    tag_194:\n        /* \"contracts/SyCrowBarter.sol\":8914:9021  uint256 expectedTokenBalance = IERC20(_expectedTokenAddress).balanceOf(... */\n      swap1\n      pop\n        /* \"contracts/SyCrowBarter.sol\":9059:9060  0 */\n      0x00\n        /* \"contracts/SyCrowBarter.sol\":9036:9056  expectedTokenBalance */\n      dup2\n        /* \"contracts/SyCrowBarter.sol\":9036:9060  expectedTokenBalance > 0 */\n      gt\n        /* \"contracts/SyCrowBarter.sol\":9032:9233  if (expectedTokenBalance > 0) {... */\n      iszero\n      tag_195\n      jumpi\n        /* \"contracts/SyCrowBarter.sol\":9076:9222  TransferHelper.safeTransfer(... */\n      tag_196\n        /* \"contracts/SyCrowBarter.sol\":9121:9142  _expectedTokenAddress */\n      0x05\n      0x00\n      swap1\n      sload\n      swap1\n      0x0100\n      exp\n      swap1\n      div\n      0xffffffffffffffffffffffffffffffffffffffff\n      and\n        /* \"contracts/SyCrowBarter.sol\":9160:9170  msg.sender */\n      caller\n        /* \"contracts/SyCrowBarter.sol\":9188:9208  expectedTokenBalance */\n      dup4\n        /* \"contracts/SyCrowBarter.sol\":9076:9103  TransferHelper.safeTransfer */\n      tag_197\n        /* \"contracts/SyCrowBarter.sol\":9076:9222  TransferHelper.safeTransfer(... */\n      jump\t// in\n    tag_196:\n        /* \"contracts/SyCrowBarter.sol\":9032:9233  if (expectedTokenBalance > 0) {... */\n    tag_195:\n        /* \"contracts/SyCrowBarter.sol\":9243:9272  uint256 depositedTokenBalance */\n      0x00\n        /* \"contracts/SyCrowBarter.sol\":9282:9304  _depositedTokenAddress */\n      0x04\n      0x01\n      swap1\n      sload\n      swap1\n      0x0100\n      exp\n      swap1\n      div\n      0xffffffffffffffffffffffffffffffffffffffff\n      and\n        /* \"contracts/SyCrowBarter.sol\":9275:9328  IERC20(_depositedTokenAddress)... */\n      0xffffffffffffffffffffffffffffffffffffffff\n      and\n      0x70a08231\n        /* \"contracts/SyCrowBarter.sol\":9337:9341  this */\n      address\n        /* \"contracts/SyCrowBarter.sol\":9275:9343  IERC20(_depositedTokenAddress)... */\n      mload(0x40)\n      dup3\n      0xffffffff\n      and\n      0xe0\n      shl\n      dup2\n      mstore\n      0x04\n      add\n      tag_198\n      swap2\n      swap1\n      tag_72\n      jump\t// in\n    tag_198:\n      0x20\n      mload(0x40)\n      dup1\n      dup4\n      sub\n      dup2\n      dup7\n      gas\n      staticcall\n      iszero\n      dup1\n      iszero\n      tag_200\n      jumpi\n      returndatasize\n      0x00\n      dup1\n      returndatacopy\n      revert(0x00, returndatasize)\n    tag_200:\n      pop\n      pop\n      pop\n      pop\n      mload(0x40)\n      returndatasize\n      not(0x1f)\n      0x1f\n      dup3\n      add\n      and\n      dup3\n      add\n      dup1\n      0x40\n      mstore\n      pop\n      dup2\n      add\n      swap1\n      tag_201\n      swap2\n      swap1\n      tag_183\n      jump\t// in\n    tag_201:\n        /* \"contracts/SyCrowBarter.sol\":9243:9343  uint256 depositedTokenBalance = IERC20(_depositedTokenAddress)... */\n      swap1\n      pop\n        /* \"contracts/SyCrowBarter.sol\":9382:9383  0 */\n      0x00\n        /* \"contracts/SyCrowBarter.sol\":9358:9379  depositedTokenBalance */\n      dup2\n        /* \"contracts/SyCrowBarter.sol\":9358:9383  depositedTokenBalance > 0 */\n      gt\n        /* \"contracts/SyCrowBarter.sol\":9354:9558  if (depositedTokenBalance > 0) {... */\n      iszero\n      tag_202\n      jumpi\n        /* \"contracts/SyCrowBarter.sol\":9399:9547  TransferHelper.safeTransfer(... */\n      tag_203\n        /* \"contracts/SyCrowBarter.sol\":9444:9466  _depositedTokenAddress */\n      0x04\n      0x01\n      swap1\n      sload\n      swap1\n      0x0100\n      exp\n      swap1\n      div\n      0xffffffffffffffffffffffffffffffffffffffff\n      and\n        /* \"contracts/SyCrowBarter.sol\":9484:9494  msg.sender */\n      caller\n        /* \"contracts/SyCrowBarter.sol\":9512:9533  depositedTokenBalance */\n      dup4\n        /* \"contracts/SyCrowBarter.sol\":9399:9426  TransferHelper.safeTransfer */\n      tag_197\n        /* \"contracts/SyCrowBarter.sol\":9399:9547  TransferHelper.safeTransfer(... */\n      jump\t// in\n    tag_203:\n        /* \"contracts/SyCrowBarter.sol\":9354:9558  if (depositedTokenBalance > 0) {... */\n    tag_202:\n        /* \"contracts/SyCrowBarter.sol\":9567:9581  uint256 value1 */\n      0x00\n        /* \"contracts/SyCrowBarter.sol\":9595:9609  uint256 value2 */\n      dup1\n        /* \"contracts/SyCrowBarter.sol\":9643:9674  ISyCrowBarterType.ETH_FOR_TOKEN */\n      0x00\n        /* \"contracts/SyCrowBarter.sol\":9628:9674  _barterType == ISyCrowBarterType.ETH_FOR_TOKEN */\n      0x02\n      dup2\n      gt\n      iszero\n      tag_204\n      jumpi\n      tag_205\n      tag_128\n      jump\t// in\n    tag_205:\n    tag_204:\n        /* \"contracts/SyCrowBarter.sol\":9628:9639  _barterType */\n      0x02\n      0x00\n      swap1\n      sload\n      swap1\n      0x0100\n      exp\n      swap1\n      div\n      0xff\n      and\n        /* \"contracts/SyCrowBarter.sol\":9628:9674  _barterType == ISyCrowBarterType.ETH_FOR_TOKEN */\n      0x02\n      dup2\n      gt\n      iszero\n      tag_206\n      jumpi\n      tag_207\n      tag_128\n      jump\t// in\n    tag_207:\n    tag_206:\n      sub\n        /* \"contracts/SyCrowBarter.sol\":9624:10015  if (_barterType == ISyCrowBarterType.ETH_FOR_TOKEN) {... */\n      tag_208\n      jumpi\n        /* \"contracts/SyCrowBarter.sol\":9699:9709  ethBalance */\n      dup5\n        /* \"contracts/SyCrowBarter.sol\":9690:9709  value1 = ethBalance */\n      swap2\n      pop\n        /* \"contracts/SyCrowBarter.sol\":9732:9752  expectedTokenBalance */\n      dup4\n        /* \"contracts/SyCrowBarter.sol\":9723:9752  value2 = expectedTokenBalance */\n      swap1\n      pop\n        /* \"contracts/SyCrowBarter.sol\":9624:10015  if (_barterType == ISyCrowBarterType.ETH_FOR_TOKEN) {... */\n      jump(tag_209)\n    tag_208:\n        /* \"contracts/SyCrowBarter.sol\":9788:9821  ISyCrowBarterType.TOKEN_FOR_TOKEN */\n      0x02\n        /* \"contracts/SyCrowBarter.sol\":9773:9821  _barterType == ISyCrowBarterType.TOKEN_FOR_TOKEN */\n      dup1\n      dup2\n      gt\n      iszero\n      tag_210\n      jumpi\n      tag_211\n      tag_128\n      jump\t// in\n    tag_211:\n    tag_210:\n        /* \"contracts/SyCrowBarter.sol\":9773:9784  _barterType */\n      0x02\n      0x00\n      swap1\n      sload\n      swap1\n      0x0100\n      exp\n      swap1\n      div\n      0xff\n      and\n        /* \"contracts/SyCrowBarter.sol\":9773:9821  _barterType == ISyCrowBarterType.TOKEN_FOR_TOKEN */\n      0x02\n      dup2\n      gt\n      iszero\n      tag_212\n      jumpi\n      tag_213\n      tag_128\n      jump\t// in\n    tag_213:\n    tag_212:\n      sub\n        /* \"contracts/SyCrowBarter.sol\":9769:10015  if (_barterType == ISyCrowBarterType.TOKEN_FOR_TOKEN) {... */\n      tag_214\n      jumpi\n        /* \"contracts/SyCrowBarter.sol\":9846:9867  depositedTokenBalance */\n      dup3\n        /* \"contracts/SyCrowBarter.sol\":9837:9867  value1 = depositedTokenBalance */\n      swap2\n      pop\n        /* \"contracts/SyCrowBarter.sol\":9890:9910  expectedTokenBalance */\n      dup4\n        /* \"contracts/SyCrowBarter.sol\":9881:9910  value2 = expectedTokenBalance */\n      swap1\n      pop\n        /* \"contracts/SyCrowBarter.sol\":9769:10015  if (_barterType == ISyCrowBarterType.TOKEN_FOR_TOKEN) {... */\n      jump(tag_215)\n    tag_214:\n        /* \"contracts/SyCrowBarter.sol\":9950:9971  depositedTokenBalance */\n      dup3\n        /* \"contracts/SyCrowBarter.sol\":9941:9971  value1 = depositedTokenBalance */\n      swap2\n      pop\n        /* \"contracts/SyCrowBarter.sol\":9994:10004  ethBalance */\n      dup5\n        /* \"contracts/SyCrowBarter.sol\":9985:10004  value2 = ethBalance */\n      swap1\n      pop\n        /* \"contracts/SyCrowBarter.sol\":9769:10015  if (_barterType == ISyCrowBarterType.TOKEN_FOR_TOKEN) {... */\n    tag_215:\n        /* \"contracts/SyCrowBarter.sol\":9624:10015  if (_barterType == ISyCrowBarterType.ETH_FOR_TOKEN) {... */\n    tag_209:\n        /* \"contracts/SyCrowBarter.sol\":10025:10057  ISyCrowBarterFactory sycrFactory */\n      0x00\n        /* \"contracts/SyCrowBarter.sol\":10081:10088  factory */\n      immutable(\"0x26a975632f70533c9512e57b565b8ce8e2befee6b08dfbc27c4a897a20e2c1d6\")\n        /* \"contracts/SyCrowBarter.sol\":10025:10089  ISyCrowBarterFactory sycrFactory = ISyCrowBarterFactory(factory) */\n      swap1\n      pop\n        /* \"contracts/SyCrowBarter.sol\":10108:10119  sycrFactory */\n      dup1\n        /* \"contracts/SyCrowBarter.sol\":10108:10144  sycrFactory.notifyWithdrawFromBarter */\n      0xffffffffffffffffffffffffffffffffffffffff\n      and\n      0x33796a0e\n        /* \"contracts/SyCrowBarter.sol\":10166:10170  this */\n      address\n        /* \"contracts/SyCrowBarter.sol\":10185:10195  msg.sender */\n      caller\n        /* \"contracts/SyCrowBarter.sol\":10209:10215  value1 */\n      dup7\n        /* \"contracts/SyCrowBarter.sol\":10229:10235  value2 */\n      dup7\n        /* \"contracts/SyCrowBarter.sol\":10108:10245  sycrFactory.notifyWithdrawFromBarter(... */\n      mload(0x40)\n      dup6\n      0xffffffff\n      and\n      0xe0\n      shl\n      dup2\n      mstore\n      0x04\n      add\n      tag_216\n      swap5\n      swap4\n      swap3\n      swap2\n      swap1\n      tag_217\n      jump\t// in\n    tag_216:\n      0x00\n      mload(0x40)\n      dup1\n      dup4\n      sub\n      dup2\n      0x00\n      dup8\n      dup1\n      extcodesize\n      iszero\n      dup1\n      iszero\n      tag_218\n      jumpi\n      0x00\n      dup1\n      revert\n    tag_218:\n      pop\n      gas\n      call\n      iszero\n      dup1\n      iszero\n      tag_220\n      jumpi\n      returndatasize\n      0x00\n      dup1\n      returndatacopy\n      revert(0x00, returndatasize)\n    tag_220:\n      pop\n      pop\n      pop\n      pop\n        /* \"contracts/SyCrowBarter.sol\":10277:10287  msg.sender */\n      caller\n        /* \"contracts/SyCrowBarter.sol\":10256:10289  selfdestruct(payable(msg.sender)) */\n      0xffffffffffffffffffffffffffffffffffffffff\n      and\n      selfdestruct\n        /* \"contracts/SyCrowBarter.sol\":2975:3162  function getAmounts()... */\n    tag_43:\n        /* \"contracts/SyCrowBarter.sol\":3081:3088  uint256 */\n      0x00\n        /* \"contracts/SyCrowBarter.sol\":3090:3097  uint256 */\n      dup1\n        /* \"contracts/SyCrowBarter.sol\":1489:1501  _initialized */\n      0x04\n      0x00\n      swap1\n      sload\n      swap1\n      0x0100\n      exp\n      swap1\n      div\n      0xff\n      and\n        /* \"contracts/SyCrowBarter.sol\":1481:1535  require(_initialized, \"SyCrowBarter: NOT_INITIALIZED\") */\n      tag_222\n      jumpi\n      mload(0x40)\n      0x08c379a000000000000000000000000000000000000000000000000000000000\n      dup2\n      mstore\n      0x04\n      add\n      tag_223\n      swap1\n      tag_112\n      jump\t// in\n    tag_223:\n      mload(0x40)\n      dup1\n      swap2\n      sub\n      swap1\n      revert\n    tag_222:\n        /* \"contracts/SyCrowBarter.sol\":3121:3137  _depositedAmount */\n      sload(0x06)\n        /* \"contracts/SyCrowBarter.sol\":3139:3154  _expectedAmount */\n      sload(0x07)\n        /* \"contracts/SyCrowBarter.sol\":3113:3155  return (_depositedAmount, _expectedAmount) */\n      swap2\n      pop\n      swap2\n      pop\n        /* \"contracts/SyCrowBarter.sol\":2975:3162  function getAmounts()... */\n      swap1\n      swap2\n      jump\t// out\n        /* \"contracts/SyCrowBarter.sol\":370:401  uint256 public totalTradeAmount */\n    tag_48:\n      sload(0x01)\n      dup2\n      jump\t// out\n        /* \"contracts/SyCrowBarter.sol\":4620:4905  function tradeEthForToken(uint256 inAmount)... */\n    tag_53:\n        /* \"contracts/SyCrowBarter.sol\":971:986  block.timestamp */\n      timestamp\n        /* \"contracts/SyCrowBarter.sol\":958:967  _deadline */\n      sload(0x03)\n        /* \"contracts/SyCrowBarter.sol\":958:986  _deadline >= block.timestamp */\n      lt\n      iszero\n        /* \"contracts/SyCrowBarter.sol\":958:1024  _deadline >= block.timestamp && totalTradeAmount < _expectedAmount */\n      dup1\n      iszero\n      tag_226\n      jumpi\n      pop\n        /* \"contracts/SyCrowBarter.sol\":1009:1024  _expectedAmount */\n      sload(0x07)\n        /* \"contracts/SyCrowBarter.sol\":990:1006  totalTradeAmount */\n      sload(0x01)\n        /* \"contracts/SyCrowBarter.sol\":990:1024  totalTradeAmount < _expectedAmount */\n      lt\n        /* \"contracts/SyCrowBarter.sol\":958:1024  _deadline >= block.timestamp && totalTradeAmount < _expectedAmount */\n    tag_226:\n        /* \"contracts/SyCrowBarter.sol\":937:1072  require(... */\n      tag_227\n      jumpi\n      mload(0x40)\n      0x08c379a000000000000000000000000000000000000000000000000000000000\n      dup2\n      mstore\n      0x04\n      add\n      tag_228\n      swap1\n      tag_108\n      jump\t// in\n    tag_228:\n      mload(0x40)\n      dup1\n      swap2\n      sub\n      swap1\n      revert\n    tag_227:\n        /* \"contracts/SyCrowBarter.sol\":1489:1501  _initialized */\n      0x04\n      0x00\n      swap1\n      sload\n      swap1\n      0x0100\n      exp\n      swap1\n      div\n      0xff\n      and\n        /* \"contracts/SyCrowBarter.sol\":1481:1535  require(_initialized, \"SyCrowBarter: NOT_INITIALIZED\") */\n      tag_230\n      jumpi\n      mload(0x40)\n      0x08c379a000000000000000000000000000000000000000000000000000000000\n      dup2\n      mstore\n      0x04\n      add\n      tag_231\n      swap1\n      tag_112\n      jump\t// in\n    tag_231:\n      mload(0x40)\n      dup1\n      swap2\n      sub\n      swap1\n      revert\n    tag_230:\n        /* \"contracts/SyCrowBarter.sol\":1722:1755  ISyCrowBarterFactory isycrFactory */\n      0x00\n        /* \"contracts/SyCrowBarter.sol\":1779:1786  factory */\n      immutable(\"0x26a975632f70533c9512e57b565b8ce8e2befee6b08dfbc27c4a897a20e2c1d6\")\n        /* \"contracts/SyCrowBarter.sol\":1722:1787  ISyCrowBarterFactory isycrFactory = ISyCrowBarterFactory(factory) */\n      swap1\n      pop\n        /* \"contracts/SyCrowBarter.sol\":1806:1818  isycrFactory */\n      dup1\n        /* \"contracts/SyCrowBarter.sol\":1806:1827  isycrFactory.isPaused */\n      0xffffffffffffffffffffffffffffffffffffffff\n      and\n      0xb187bd26\n        /* \"contracts/SyCrowBarter.sol\":1806:1829  isycrFactory.isPaused() */\n      mload(0x40)\n      dup2\n      0xffffffff\n      and\n      0xe0\n      shl\n      dup2\n      mstore\n      0x04\n      add\n      0x20\n      mload(0x40)\n      dup1\n      dup4\n      sub\n      dup2\n      dup7\n      gas\n      staticcall\n      iszero\n      dup1\n      iszero\n      tag_234\n      jumpi\n      returndatasize\n      0x00\n      dup1\n      returndatacopy\n      revert(0x00, returndatasize)\n    tag_234:\n      pop\n      pop\n      pop\n      pop\n      mload(0x40)\n      returndatasize\n      not(0x1f)\n      0x1f\n      dup3\n      add\n      and\n      dup3\n      add\n      dup1\n      0x40\n      mstore\n      pop\n      dup2\n      add\n      swap1\n      tag_235\n      swap2\n      swap1\n      tag_117\n      jump\t// in\n    tag_235:\n        /* \"contracts/SyCrowBarter.sol\":1805:1829  !isycrFactory.isPaused() */\n      iszero\n        /* \"contracts/SyCrowBarter.sol\":1797:1868  require(!isycrFactory.isPaused(), \"SyCrowBarter: Base Contract Paused\") */\n      tag_236\n      jumpi\n      mload(0x40)\n      0x08c379a000000000000000000000000000000000000000000000000000000000\n      dup2\n      mstore\n      0x04\n      add\n      tag_237\n      swap1\n      tag_120\n      jump\t// in\n    tag_237:\n      mload(0x40)\n      dup1\n      swap2\n      sub\n      swap1\n      revert\n    tag_236:\n        /* \"contracts/SyCrowBarter.sol\":1606:1623  _allowMultiBarter */\n      0x08\n      0x00\n      swap1\n      sload\n      swap1\n      0x0100\n      exp\n      swap1\n      div\n      0xff\n      and\n        /* \"contracts/SyCrowBarter.sol\":1598:1665  require(_allowMultiBarter, \"SyCrowBarter: MULTI_TRADE_NOT_ENABLED\") */\n      tag_239\n      jumpi\n      mload(0x40)\n      0x08c379a000000000000000000000000000000000000000000000000000000000\n      dup2\n      mstore\n      0x04\n      add\n      tag_240\n      swap1\n      tag_124\n      jump\t// in\n    tag_240:\n      mload(0x40)\n      dup1\n      swap2\n      sub\n      swap1\n      revert\n    tag_239:\n        /* \"contracts/SyCrowBarter.sol\":4824:4855  ISyCrowBarterType.TOKEN_FOR_ETH */\n      0x01\n        /* \"contracts/SyCrowBarter.sol\":1183:1194  _barterType */\n      0x02\n      0x00\n      swap1\n      sload\n      swap1\n      0x0100\n      exp\n      swap1\n      div\n      0xff\n      and\n        /* \"contracts/SyCrowBarter.sol\":1169:1194  barterType == _barterType */\n      0x02\n      dup2\n      gt\n      iszero\n      tag_242\n      jumpi\n      tag_243\n      tag_128\n      jump\t// in\n    tag_243:\n    tag_242:\n        /* \"contracts/SyCrowBarter.sol\":1169:1179  barterType */\n      dup2\n        /* \"contracts/SyCrowBarter.sol\":1169:1194  barterType == _barterType */\n      0x02\n      dup2\n      gt\n      iszero\n      tag_244\n      jumpi\n      tag_245\n      tag_128\n      jump\t// in\n    tag_245:\n    tag_244:\n      eq\n        /* \"contracts/SyCrowBarter.sol\":1161:1232  require(barterType == _barterType, \"SyCrowBarter: INVALID_BARTER_TYPE\") */\n      tag_246\n      jumpi\n      mload(0x40)\n      0x08c379a000000000000000000000000000000000000000000000000000000000\n      dup2\n      mstore\n      0x04\n      add\n      tag_247\n      swap1\n      tag_133\n      jump\t// in\n    tag_247:\n      mload(0x40)\n      dup1\n      swap2\n      sub\n      swap1\n      revert\n    tag_246:\n        /* \"contracts/SyCrowBarter.sol\":4871:4898  _tradeEthForToken(inAmount) */\n      tag_249\n        /* \"contracts/SyCrowBarter.sol\":4889:4897  inAmount */\n      dup4\n        /* \"contracts/SyCrowBarter.sol\":4871:4888  _tradeEthForToken */\n      tag_250\n        /* \"contracts/SyCrowBarter.sol\":4871:4898  _tradeEthForToken(inAmount) */\n      jump\t// in\n    tag_249:\n        /* \"contracts/SyCrowBarter.sol\":1675:1676  _ */\n      pop\n        /* \"contracts/SyCrowBarter.sol\":1712:1886  {... */\n      pop\n        /* \"contracts/SyCrowBarter.sol\":4620:4905  function tradeEthForToken(uint256 inAmount)... */\n      pop\n      jump\t// out\n        /* \"contracts/SyCrowBarter.sol\":10302:10979  function withdraw(address _erc20TokenAddress)... */\n    tag_58:\n        /* \"@openzeppelin/contracts/access/Ownable.sol\":1259:1271  _msgSender() */\n      tag_252\n        /* \"@openzeppelin/contracts/access/Ownable.sol\":1259:1269  _msgSender */\n      tag_173\n        /* \"@openzeppelin/contracts/access/Ownable.sol\":1259:1271  _msgSender() */\n      jump\t// in\n    tag_252:\n        /* \"@openzeppelin/contracts/access/Ownable.sol\":1248:1271  owner() == _msgSender() */\n      0xffffffffffffffffffffffffffffffffffffffff\n      and\n        /* \"@openzeppelin/contracts/access/Ownable.sol\":1248:1255  owner() */\n      tag_253\n        /* \"@openzeppelin/contracts/access/Ownable.sol\":1248:1253  owner */\n      tag_70\n        /* \"@openzeppelin/contracts/access/Ownable.sol\":1248:1255  owner() */\n      jump\t// in\n    tag_253:\n        /* \"@openzeppelin/contracts/access/Ownable.sol\":1248:1271  owner() == _msgSender() */\n      0xffffffffffffffffffffffffffffffffffffffff\n      and\n      eq\n        /* \"@openzeppelin/contracts/access/Ownable.sol\":1240:1308  require(owner() == _msgSender(), \"Ownable: caller is not the owner\") */\n      tag_254\n      jumpi\n      mload(0x40)\n      0x08c379a000000000000000000000000000000000000000000000000000000000\n      dup2\n      mstore\n      0x04\n      add\n      tag_255\n      swap1\n      tag_177\n      jump\t// in\n    tag_255:\n      mload(0x40)\n      dup1\n      swap2\n      sub\n      swap1\n      revert\n    tag_254:\n        /* \"contracts/SyCrowBarter.sol\":1489:1501  _initialized */\n      0x04\n      0x00\n      swap1\n      sload\n      swap1\n      0x0100\n      exp\n      swap1\n      div\n      0xff\n      and\n        /* \"contracts/SyCrowBarter.sol\":1481:1535  require(_initialized, \"SyCrowBarter: NOT_INITIALIZED\") */\n      tag_257\n      jumpi\n      mload(0x40)\n      0x08c379a000000000000000000000000000000000000000000000000000000000\n      dup2\n      mstore\n      0x04\n      add\n      tag_258\n      swap1\n      tag_112\n      jump\t// in\n    tag_258:\n      mload(0x40)\n      dup1\n      swap2\n      sub\n      swap1\n      revert\n    tag_257:\n        /* \"contracts/SyCrowBarter.sol\":10460:10481  _expectedTokenAddress */\n      0x05\n      0x00\n      swap1\n      sload\n      swap1\n      0x0100\n      exp\n      swap1\n      div\n      0xffffffffffffffffffffffffffffffffffffffff\n      and\n        /* \"contracts/SyCrowBarter.sol\":10438:10481  _erc20TokenAddress != _expectedTokenAddress */\n      0xffffffffffffffffffffffffffffffffffffffff\n      and\n        /* \"contracts/SyCrowBarter.sol\":10438:10456  _erc20TokenAddress */\n      dup2\n        /* \"contracts/SyCrowBarter.sol\":10438:10481  _erc20TokenAddress != _expectedTokenAddress */\n      0xffffffffffffffffffffffffffffffffffffffff\n      and\n      sub\n        /* \"contracts/SyCrowBarter.sol\":10417:10530  require(... */\n      tag_260\n      jumpi\n      mload(0x40)\n      0x08c379a000000000000000000000000000000000000000000000000000000000\n      dup2\n      mstore\n      0x04\n      add\n      tag_261\n      swap1\n      tag_262\n      jump\t// in\n    tag_261:\n      mload(0x40)\n      dup1\n      swap2\n      sub\n      swap1\n      revert\n    tag_260:\n        /* \"contracts/SyCrowBarter.sol\":10583:10605  _depositedTokenAddress */\n      0x04\n      0x01\n      swap1\n      sload\n      swap1\n      0x0100\n      exp\n      swap1\n      div\n      0xffffffffffffffffffffffffffffffffffffffff\n      and\n        /* \"contracts/SyCrowBarter.sol\":10561:10605  _erc20TokenAddress != _depositedTokenAddress */\n      0xffffffffffffffffffffffffffffffffffffffff\n      and\n        /* \"contracts/SyCrowBarter.sol\":10561:10579  _erc20TokenAddress */\n      dup2\n        /* \"contracts/SyCrowBarter.sol\":10561:10605  _erc20TokenAddress != _depositedTokenAddress */\n      0xffffffffffffffffffffffffffffffffffffffff\n      and\n      sub\n        /* \"contracts/SyCrowBarter.sol\":10540:10654  require(... */\n      tag_263\n      jumpi\n      mload(0x40)\n      0x08c379a000000000000000000000000000000000000000000000000000000000\n      dup2\n      mstore\n      0x04\n      add\n      tag_264\n      swap1\n      tag_262\n      jump\t// in\n    tag_264:\n      mload(0x40)\n      dup1\n      swap2\n      sub\n      swap1\n      revert\n    tag_263:\n        /* \"contracts/SyCrowBarter.sol\":10665:10690  uint256 erc20TokenBalance */\n      0x00\n        /* \"contracts/SyCrowBarter.sol\":10700:10718  _erc20TokenAddress */\n      dup2\n        /* \"contracts/SyCrowBarter.sol\":10693:10729  IERC20(_erc20TokenAddress).balanceOf */\n      0xffffffffffffffffffffffffffffffffffffffff\n      and\n      0x70a08231\n        /* \"contracts/SyCrowBarter.sol\":10751:10755  this */\n      address\n        /* \"contracts/SyCrowBarter.sol\":10693:10766  IERC20(_erc20TokenAddress).balanceOf(... */\n      mload(0x40)\n      dup3\n      0xffffffff\n      and\n      0xe0\n      shl\n      dup2\n      mstore\n      0x04\n      add\n      tag_265\n      swap2\n      swap1\n      tag_72\n      jump\t// in\n    tag_265:\n      0x20\n      mload(0x40)\n      dup1\n      dup4\n      sub\n      dup2\n      dup7\n      gas\n      staticcall\n      iszero\n      dup1\n      iszero\n      tag_267\n      jumpi\n      returndatasize\n      0x00\n      dup1\n      returndatacopy\n      revert(0x00, returndatasize)\n    tag_267:\n      pop\n      pop\n      pop\n      pop\n      mload(0x40)\n      returndatasize\n      not(0x1f)\n      0x1f\n      dup3\n      add\n      and\n      dup3\n      add\n      dup1\n      0x40\n      mstore\n      pop\n      dup2\n      add\n      swap1\n      tag_268\n      swap2\n      swap1\n      tag_183\n      jump\t// in\n    tag_268:\n        /* \"contracts/SyCrowBarter.sol\":10665:10766  uint256 erc20TokenBalance = IERC20(_erc20TokenAddress).balanceOf(... */\n      swap1\n      pop\n        /* \"contracts/SyCrowBarter.sol\":10801:10802  0 */\n      0x00\n        /* \"contracts/SyCrowBarter.sol\":10781:10798  erc20TokenBalance */\n      dup2\n        /* \"contracts/SyCrowBarter.sol\":10781:10802  erc20TokenBalance > 0 */\n      gt\n        /* \"contracts/SyCrowBarter.sol\":10777:10973  if (erc20TokenBalance > 0) {... */\n      iszero\n      tag_269\n      jumpi\n        /* \"contracts/SyCrowBarter.sol\":10818:10962  TransferHelper.safeTransfer(... */\n      tag_270\n        /* \"contracts/SyCrowBarter.sol\":10863:10885  _depositedTokenAddress */\n      0x04\n      0x01\n      swap1\n      sload\n      swap1\n      0x0100\n      exp\n      swap1\n      div\n      0xffffffffffffffffffffffffffffffffffffffff\n      and\n        /* \"contracts/SyCrowBarter.sol\":10903:10913  msg.sender */\n      caller\n        /* \"contracts/SyCrowBarter.sol\":10931:10948  erc20TokenBalance */\n      dup4\n        /* \"contracts/SyCrowBarter.sol\":10818:10845  TransferHelper.safeTransfer */\n      tag_197\n        /* \"contracts/SyCrowBarter.sol\":10818:10962  TransferHelper.safeTransfer(... */\n      jump\t// in\n    tag_270:\n        /* \"contracts/SyCrowBarter.sol\":10777:10973  if (erc20TokenBalance > 0) {... */\n    tag_269:\n        /* \"contracts/SyCrowBarter.sol\":10407:10979  {... */\n      pop\n        /* \"contracts/SyCrowBarter.sol\":10302:10979  function withdraw(address _erc20TokenAddress)... */\n      pop\n      jump\t// out\n        /* \"contracts/SyCrowBarter.sol\":1949:2969  function initialize(... */\n    tag_63:\n        /* \"contracts/SyCrowBarter.sol\":2227:2231  bool */\n      0x00\n        /* \"contracts/SyCrowBarter.sol\":2265:2272  factory */\n      immutable(\"0x26a975632f70533c9512e57b565b8ce8e2befee6b08dfbc27c4a897a20e2c1d6\")\n        /* \"contracts/SyCrowBarter.sol\":2251:2272  msg.sender == factory */\n      0xffffffffffffffffffffffffffffffffffffffff\n      and\n        /* \"contracts/SyCrowBarter.sol\":2251:2261  msg.sender */\n      caller\n        /* \"contracts/SyCrowBarter.sol\":2251:2272  msg.sender == factory */\n      0xffffffffffffffffffffffffffffffffffffffff\n      and\n      eq\n        /* \"contracts/SyCrowBarter.sol\":2243:2300  require(msg.sender == factory, \"SyCrowBarter: FORBIDDEN\") */\n      tag_272\n      jumpi\n      mload(0x40)\n      0x08c379a000000000000000000000000000000000000000000000000000000000\n      dup2\n      mstore\n      0x04\n      add\n      tag_273\n      swap1\n      tag_262\n      jump\t// in\n    tag_273:\n      mload(0x40)\n      dup1\n      swap2\n      sub\n      swap1\n      revert\n    tag_272:\n        /* \"contracts/SyCrowBarter.sol\":2320:2332  _initialized */\n      0x04\n      0x00\n      swap1\n      sload\n      swap1\n      0x0100\n      exp\n      swap1\n      div\n      0xff\n      and\n        /* \"contracts/SyCrowBarter.sol\":2319:2332  !_initialized */\n      iszero\n        /* \"contracts/SyCrowBarter.sol\":2311:2370  require(!_initialized, \"SyCrowBarter: ALREADY_INITIALIZED\") */\n      tag_274\n      jumpi\n      mload(0x40)\n      0x08c379a000000000000000000000000000000000000000000000000000000000\n      dup2\n      mstore\n      0x04\n      add\n      tag_275\n      swap1\n      tag_276\n      jump\t// in\n    tag_275:\n      mload(0x40)\n      dup1\n      swap2\n      sub\n      swap1\n      revert\n    tag_274:\n        /* \"contracts/SyCrowBarter.sol\":2399:2414  block.timestamp */\n      timestamp\n        /* \"contracts/SyCrowBarter.sol\":2388:2396  deadline */\n      dup5\n        /* \"contracts/SyCrowBarter.sol\":2388:2414  deadline < block.timestamp */\n      lt\n        /* \"contracts/SyCrowBarter.sol\":2380:2446  require(deadline < block.timestamp, \"SyCrowBarter: PAST_DEADLINE\") */\n      tag_277\n      jumpi\n      mload(0x40)\n      0x08c379a000000000000000000000000000000000000000000000000000000000\n      dup2\n      mstore\n      0x04\n      add\n      tag_278\n      swap1\n      tag_279\n      jump\t// in\n    tag_278:\n      mload(0x40)\n      dup1\n      swap2\n      sub\n      swap1\n      revert\n    tag_277:\n        /* \"contracts/SyCrowBarter.sol\":2522:2537  amountDeposited */\n      dup6\n        /* \"contracts/SyCrowBarter.sol\":2485:2492  inToken */\n      dup9\n        /* \"contracts/SyCrowBarter.sol\":2478:2503  IERC20(inToken).balanceOf */\n      0xffffffffffffffffffffffffffffffffffffffff\n      and\n      0x70a08231\n        /* \"contracts/SyCrowBarter.sol\":2512:2516  this */\n      address\n        /* \"contracts/SyCrowBarter.sol\":2478:2518  IERC20(inToken).balanceOf(address(this)) */\n      mload(0x40)\n      dup3\n      0xffffffff\n      and\n      0xe0\n      shl\n      dup2\n      mstore\n      0x04\n      add\n      tag_280\n      swap2\n      swap1\n      tag_72\n      jump\t// in\n    tag_280:\n      0x20\n      mload(0x40)\n      dup1\n      dup4\n      sub\n      dup2\n      dup7\n      gas\n      staticcall\n      iszero\n      dup1\n      iszero\n      tag_282\n      jumpi\n      returndatasize\n      0x00\n      dup1\n      returndatacopy\n      revert(0x00, returndatasize)\n    tag_282:\n      pop\n      pop\n      pop\n      pop\n      mload(0x40)\n      returndatasize\n      not(0x1f)\n      0x1f\n      dup3\n      add\n      and\n      dup3\n      add\n      dup1\n      0x40\n      mstore\n      pop\n      dup2\n      add\n      swap1\n      tag_283\n      swap2\n      swap1\n      tag_183\n      jump\t// in\n    tag_283:\n        /* \"contracts/SyCrowBarter.sol\":2478:2537  IERC20(inToken).balanceOf(address(this)) >= amountDeposited */\n      lt\n      iszero\n        /* \"contracts/SyCrowBarter.sol\":2457:2597  require(... */\n      tag_284\n      jumpi\n      mload(0x40)\n      0x08c379a000000000000000000000000000000000000000000000000000000000\n      dup2\n      mstore\n      0x04\n      add\n      tag_285\n      swap1\n      tag_286\n      jump\t// in\n    tag_285:\n      mload(0x40)\n      dup1\n      swap2\n      sub\n      swap1\n      revert\n    tag_284:\n        /* \"contracts/SyCrowBarter.sol\":2620:2628  deadline */\n      dup4\n        /* \"contracts/SyCrowBarter.sol\":2608:2617  _deadline */\n      0x03\n        /* \"contracts/SyCrowBarter.sol\":2608:2628  _deadline = deadline */\n      dup2\n      swap1\n      sstore\n      pop\n        /* \"contracts/SyCrowBarter.sol\":2664:2671  inToken */\n      dup8\n        /* \"contracts/SyCrowBarter.sol\":2639:2661  _depositedTokenAddress */\n      0x04\n      0x01\n        /* \"contracts/SyCrowBarter.sol\":2639:2671  _depositedTokenAddress = inToken */\n      0x0100\n      exp\n      dup2\n      sload\n      dup2\n      0xffffffffffffffffffffffffffffffffffffffff\n      mul\n      not\n      and\n      swap1\n      dup4\n      0xffffffffffffffffffffffffffffffffffffffff\n      and\n      mul\n      or\n      swap1\n      sstore\n      pop\n        /* \"contracts/SyCrowBarter.sol\":2705:2713  outToken */\n      dup7\n        /* \"contracts/SyCrowBarter.sol\":2681:2702  _expectedTokenAddress */\n      0x05\n      0x00\n        /* \"contracts/SyCrowBarter.sol\":2681:2713  _expectedTokenAddress = outToken */\n      0x0100\n      exp\n      dup2\n      sload\n      dup2\n      0xffffffffffffffffffffffffffffffffffffffff\n      mul\n      not\n      and\n      swap1\n      dup4\n      0xffffffffffffffffffffffffffffffffffffffff\n      and\n      mul\n      or\n      swap1\n      sstore\n      pop\n        /* \"contracts/SyCrowBarter.sol\":2743:2758  amountDeposited */\n      dup6\n        /* \"contracts/SyCrowBarter.sol\":2724:2740  _depositedAmount */\n      0x06\n        /* \"contracts/SyCrowBarter.sol\":2724:2758  _depositedAmount = amountDeposited */\n      dup2\n      swap1\n      sstore\n      pop\n        /* \"contracts/SyCrowBarter.sol\":2786:2800  amountExpected */\n      dup5\n        /* \"contracts/SyCrowBarter.sol\":2768:2783  _expectedAmount */\n      0x07\n        /* \"contracts/SyCrowBarter.sol\":2768:2800  _expectedAmount = amountExpected */\n      dup2\n      swap1\n      sstore\n      pop\n        /* \"contracts/SyCrowBarter.sol\":2825:2835  barterType */\n      dup9\n        /* \"contracts/SyCrowBarter.sol\":2811:2822  _barterType */\n      0x02\n      0x00\n        /* \"contracts/SyCrowBarter.sol\":2811:2835  _barterType = barterType */\n      0x0100\n      exp\n      dup2\n      sload\n      dup2\n      0xff\n      mul\n      not\n      and\n      swap1\n      dup4\n      0x02\n      dup2\n      gt\n      iszero\n      tag_287\n      jumpi\n      tag_288\n      tag_128\n      jump\t// in\n    tag_288:\n    tag_287:\n      mul\n      or\n      swap1\n      sstore\n      pop\n        /* \"contracts/SyCrowBarter.sol\":2865:2881  allowMultiBarter */\n      dup3\n        /* \"contracts/SyCrowBarter.sol\":2845:2862  _allowMultiBarter */\n      0x08\n      0x00\n        /* \"contracts/SyCrowBarter.sol\":2845:2881  _allowMultiBarter = allowMultiBarter */\n      0x0100\n      exp\n      dup2\n      sload\n      dup2\n      0xff\n      mul\n      not\n      and\n      swap1\n      dup4\n      iszero\n      iszero\n      mul\n      or\n      swap1\n      sstore\n      pop\n        /* \"contracts/SyCrowBarter.sol\":2898:2903  _WETH */\n      dup2\n        /* \"contracts/SyCrowBarter.sol\":2891:2895  WETH */\n      0x02\n      0x01\n        /* \"contracts/SyCrowBarter.sol\":2891:2903  WETH = _WETH */\n      0x0100\n      exp\n      dup2\n      sload\n      dup2\n      0xffffffffffffffffffffffffffffffffffffffff\n      mul\n      not\n      and\n      swap1\n      dup4\n      0xffffffffffffffffffffffffffffffffffffffff\n      and\n      mul\n      or\n      swap1\n      sstore\n      pop\n        /* \"contracts/SyCrowBarter.sol\":2928:2932  true */\n      0x01\n        /* \"contracts/SyCrowBarter.sol\":2913:2925  _initialized */\n      0x04\n      0x00\n        /* \"contracts/SyCrowBarter.sol\":2913:2932  _initialized = true */\n      0x0100\n      exp\n      dup2\n      sload\n      dup2\n      0xff\n      mul\n      not\n      and\n      swap1\n      dup4\n      iszero\n      iszero\n      mul\n      or\n      swap1\n      sstore\n      pop\n        /* \"contracts/SyCrowBarter.sol\":2950:2962  _initialized */\n      0x04\n      0x00\n      swap1\n      sload\n      swap1\n      0x0100\n      exp\n      swap1\n      div\n      0xff\n      and\n        /* \"contracts/SyCrowBarter.sol\":2943:2962  return _initialized */\n      swap1\n      pop\n        /* \"contracts/SyCrowBarter.sol\":1949:2969  function initialize(... */\n      swap9\n      swap8\n      pop\n      pop\n      pop\n      pop\n      pop\n      pop\n      pop\n      pop\n      jump\t// out\n        /* \"@openzeppelin/contracts/access/Ownable.sol\":1668:1769  function renounceOwnership() public virtual onlyOwner {... */\n    tag_67:\n        /* \"@openzeppelin/contracts/access/Ownable.sol\":1259:1271  _msgSender() */\n      tag_290\n        /* \"@openzeppelin/contracts/access/Ownable.sol\":1259:1269  _msgSender */\n      tag_173\n        /* \"@openzeppelin/contracts/access/Ownable.sol\":1259:1271  _msgSender() */\n      jump\t// in\n    tag_290:\n        /* \"@openzeppelin/contracts/access/Ownable.sol\":1248:1271  owner() == _msgSender() */\n      0xffffffffffffffffffffffffffffffffffffffff\n      and\n        /* \"@openzeppelin/contracts/access/Ownable.sol\":1248:1255  owner() */\n      tag_291\n        /* \"@openzeppelin/contracts/access/Ownable.sol\":1248:1253  owner */\n      tag_70\n        /* \"@openzeppelin/contracts/access/Ownable.sol\":1248:1255  owner() */\n      jump\t// in\n    tag_291:\n        /* \"@openzeppelin/contracts/access/Ownable.sol\":1248:1271  owner() == _msgSender() */\n      0xffffffffffffffffffffffffffffffffffffffff\n      and\n      eq\n        /* \"@openzeppelin/contracts/access/Ownable.sol\":1240:1308  require(owner() == _msgSender(), \"Ownable: caller is not the owner\") */\n      tag_292\n      jumpi\n      mload(0x40)\n      0x08c379a000000000000000000000000000000000000000000000000000000000\n      dup2\n      mstore\n      0x04\n      add\n      tag_293\n      swap1\n      tag_177\n      jump\t// in\n    tag_293:\n      mload(0x40)\n      dup1\n      swap2\n      sub\n      swap1\n      revert\n    tag_292:\n        /* \"@openzeppelin/contracts/access/Ownable.sol\":1732:1762  _transferOwnership(address(0)) */\n      tag_295\n        /* \"@openzeppelin/contracts/access/Ownable.sol\":1759:1760  0 */\n      0x00\n        /* \"@openzeppelin/contracts/access/Ownable.sol\":1732:1750  _transferOwnership */\n      tag_296\n        /* \"@openzeppelin/contracts/access/Ownable.sol\":1732:1762  _transferOwnership(address(0)) */\n      jump\t// in\n    tag_295:\n        /* \"@openzeppelin/contracts/access/Ownable.sol\":1668:1769  function renounceOwnership() public virtual onlyOwner {... */\n      jump\t// out\n        /* \"@openzeppelin/contracts/access/Ownable.sol\":1036:1121  function owner() public view virtual returns (address) {... */\n    tag_70:\n        /* \"@openzeppelin/contracts/access/Ownable.sol\":1082:1089  address */\n      0x00\n        /* \"@openzeppelin/contracts/access/Ownable.sol\":1108:1114  _owner */\n      dup1\n      0x00\n      swap1\n      sload\n      swap1\n      0x0100\n      exp\n      swap1\n      div\n      0xffffffffffffffffffffffffffffffffffffffff\n      and\n        /* \"@openzeppelin/contracts/access/Ownable.sol\":1101:1114  return _owner */\n      swap1\n      pop\n        /* \"@openzeppelin/contracts/access/Ownable.sol\":1036:1121  function owner() public view virtual returns (address) {... */\n      swap1\n      jump\t// out\n        /* \"contracts/SyCrowBarter.sol\":5157:5391  function tradeTokenForEth()... */\n    tag_75:\n        /* \"contracts/SyCrowBarter.sol\":971:986  block.timestamp */\n      timestamp\n        /* \"contracts/SyCrowBarter.sol\":958:967  _deadline */\n      sload(0x03)\n        /* \"contracts/SyCrowBarter.sol\":958:986  _deadline >= block.timestamp */\n      lt\n      iszero\n        /* \"contracts/SyCrowBarter.sol\":958:1024  _deadline >= block.timestamp && totalTradeAmount < _expectedAmount */\n      dup1\n      iszero\n      tag_299\n      jumpi\n      pop\n        /* \"contracts/SyCrowBarter.sol\":1009:1024  _expectedAmount */\n      sload(0x07)\n        /* \"contracts/SyCrowBarter.sol\":990:1006  totalTradeAmount */\n      sload(0x01)\n        /* \"contracts/SyCrowBarter.sol\":990:1024  totalTradeAmount < _expectedAmount */\n      lt\n        /* \"contracts/SyCrowBarter.sol\":958:1024  _deadline >= block.timestamp && totalTradeAmount < _expectedAmount */\n    tag_299:\n        /* \"contracts/SyCrowBarter.sol\":937:1072  require(... */\n      tag_300\n      jumpi\n      mload(0x40)\n      0x08c379a000000000000000000000000000000000000000000000000000000000\n      dup2\n      mstore\n      0x04\n      add\n      tag_301\n      swap1\n      tag_108\n      jump\t// in\n    tag_301:\n      mload(0x40)\n      dup1\n      swap2\n      sub\n      swap1\n      revert\n    tag_300:\n        /* \"contracts/SyCrowBarter.sol\":1489:1501  _initialized */\n      0x04\n      0x00\n      swap1\n      sload\n      swap1\n      0x0100\n      exp\n      swap1\n      div\n      0xff\n      and\n        /* \"contracts/SyCrowBarter.sol\":1481:1535  require(_initialized, \"SyCrowBarter: NOT_INITIALIZED\") */\n      tag_303\n      jumpi\n      mload(0x40)\n      0x08c379a000000000000000000000000000000000000000000000000000000000\n      dup2\n      mstore\n      0x04\n      add\n      tag_304\n      swap1\n      tag_112\n      jump\t// in\n    tag_304:\n      mload(0x40)\n      dup1\n      swap2\n      sub\n      swap1\n      revert\n    tag_303:\n        /* \"contracts/SyCrowBarter.sol\":1722:1755  ISyCrowBarterFactory isycrFactory */\n      0x00\n        /* \"contracts/SyCrowBarter.sol\":1779:1786  factory */\n      immutable(\"0x26a975632f70533c9512e57b565b8ce8e2befee6b08dfbc27c4a897a20e2c1d6\")\n        /* \"contracts/SyCrowBarter.sol\":1722:1787  ISyCrowBarterFactory isycrFactory = ISyCrowBarterFactory(factory) */\n      swap1\n      pop\n        /* \"contracts/SyCrowBarter.sol\":1806:1818  isycrFactory */\n      dup1\n        /* \"contracts/SyCrowBarter.sol\":1806:1827  isycrFactory.isPaused */\n      0xffffffffffffffffffffffffffffffffffffffff\n      and\n      0xb187bd26\n        /* \"contracts/SyCrowBarter.sol\":1806:1829  isycrFactory.isPaused() */\n      mload(0x40)\n      dup2\n      0xffffffff\n      and\n      0xe0\n      shl\n      dup2\n      mstore\n      0x04\n      add\n      0x20\n      mload(0x40)\n      dup1\n      dup4\n      sub\n      dup2\n      dup7\n      gas\n      staticcall\n      iszero\n      dup1\n      iszero\n      tag_307\n      jumpi\n      returndatasize\n      0x00\n      dup1\n      returndatacopy\n      revert(0x00, returndatasize)\n    tag_307:\n      pop\n      pop\n      pop\n      pop\n      mload(0x40)\n      returndatasize\n      not(0x1f)\n      0x1f\n      dup3\n      add\n      and\n      dup3\n      add\n      dup1\n      0x40\n      mstore\n      pop\n      dup2\n      add\n      swap1\n      tag_308\n      swap2\n      swap1\n      tag_117\n      jump\t// in\n    tag_308:\n        /* \"contracts/SyCrowBarter.sol\":1805:1829  !isycrFactory.isPaused() */\n      iszero\n        /* \"contracts/SyCrowBarter.sol\":1797:1868  require(!isycrFactory.isPaused(), \"SyCrowBarter: Base Contract Paused\") */\n      tag_309\n      jumpi\n      mload(0x40)\n      0x08c379a000000000000000000000000000000000000000000000000000000000\n      dup2\n      mstore\n      0x04\n      add\n      tag_310\n      swap1\n      tag_120\n      jump\t// in\n    tag_310:\n      mload(0x40)\n      dup1\n      swap2\n      sub\n      swap1\n      revert\n    tag_309:\n        /* \"contracts/SyCrowBarter.sol\":5303:5334  ISyCrowBarterType.ETH_FOR_TOKEN */\n      0x00\n        /* \"contracts/SyCrowBarter.sol\":1183:1194  _barterType */\n      0x02\n      0x00\n      swap1\n      sload\n      swap1\n      0x0100\n      exp\n      swap1\n      div\n      0xff\n      and\n        /* \"contracts/SyCrowBarter.sol\":1169:1194  barterType == _barterType */\n      0x02\n      dup2\n      gt\n      iszero\n      tag_312\n      jumpi\n      tag_313\n      tag_128\n      jump\t// in\n    tag_313:\n    tag_312:\n        /* \"contracts/SyCrowBarter.sol\":1169:1179  barterType */\n      dup2\n        /* \"contracts/SyCrowBarter.sol\":1169:1194  barterType == _barterType */\n      0x02\n      dup2\n      gt\n      iszero\n      tag_314\n      jumpi\n      tag_315\n      tag_128\n      jump\t// in\n    tag_315:\n    tag_314:\n      eq\n        /* \"contracts/SyCrowBarter.sol\":1161:1232  require(barterType == _barterType, \"SyCrowBarter: INVALID_BARTER_TYPE\") */\n      tag_316\n      jumpi\n      mload(0x40)\n      0x08c379a000000000000000000000000000000000000000000000000000000000\n      dup2\n      mstore\n      0x04\n      add\n      tag_317\n      swap1\n      tag_133\n      jump\t// in\n    tag_317:\n      mload(0x40)\n      dup1\n      swap2\n      sub\n      swap1\n      revert\n    tag_316:\n        /* \"contracts/SyCrowBarter.sol\":5350:5384  _tradeTokenForEth(_expectedAmount) */\n      tag_319\n        /* \"contracts/SyCrowBarter.sol\":5368:5383  _expectedAmount */\n      sload(0x07)\n        /* \"contracts/SyCrowBarter.sol\":5350:5367  _tradeTokenForEth */\n      tag_136\n        /* \"contracts/SyCrowBarter.sol\":5350:5384  _tradeTokenForEth(_expectedAmount) */\n      jump\t// in\n    tag_319:\n        /* \"contracts/SyCrowBarter.sol\":1878:1879  _ */\n      pop\n        /* \"contracts/SyCrowBarter.sol\":1712:1886  {... */\n      pop\n        /* \"contracts/SyCrowBarter.sol\":5157:5391  function tradeTokenForEth()... */\n      jump\t// out\n        /* \"contracts/SyCrowBarter.sol\":3168:3366  function getTokens()... */\n    tag_78:\n        /* \"contracts/SyCrowBarter.sol\":3273:3280  address */\n      0x00\n        /* \"contracts/SyCrowBarter.sol\":3282:3289  address */\n      dup1\n        /* \"contracts/SyCrowBarter.sol\":1489:1501  _initialized */\n      0x04\n      0x00\n      swap1\n      sload\n      swap1\n      0x0100\n      exp\n      swap1\n      div\n      0xff\n      and\n        /* \"contracts/SyCrowBarter.sol\":1481:1535  require(_initialized, \"SyCrowBarter: NOT_INITIALIZED\") */\n      tag_321\n      jumpi\n      mload(0x40)\n      0x08c379a000000000000000000000000000000000000000000000000000000000\n      dup2\n      mstore\n      0x04\n      add\n      tag_322\n      swap1\n      tag_112\n      jump\t// in\n    tag_322:\n      mload(0x40)\n      dup1\n      swap2\n      sub\n      swap1\n      revert\n    tag_321:\n        /* \"contracts/SyCrowBarter.sol\":3313:3335  _depositedTokenAddress */\n      0x04\n      0x01\n      swap1\n      sload\n      swap1\n      0x0100\n      exp\n      swap1\n      div\n      0xffffffffffffffffffffffffffffffffffffffff\n      and\n        /* \"contracts/SyCrowBarter.sol\":3337:3358  _expectedTokenAddress */\n      0x05\n      0x00\n      swap1\n      sload\n      swap1\n      0x0100\n      exp\n      swap1\n      div\n      0xffffffffffffffffffffffffffffffffffffffff\n      and\n        /* \"contracts/SyCrowBarter.sol\":3305:3359  return (_depositedTokenAddress, _expectedTokenAddress) */\n      swap2\n      pop\n      swap2\n      pop\n        /* \"contracts/SyCrowBarter.sol\":3168:3366  function getTokens()... */\n      swap1\n      swap2\n      jump\t// out\n        /* \"contracts/SyCrowBarter.sol\":4911:5151  function tradeTokenForToken()... */\n    tag_83:\n        /* \"contracts/SyCrowBarter.sol\":971:986  block.timestamp */\n      timestamp\n        /* \"contracts/SyCrowBarter.sol\":958:967  _deadline */\n      sload(0x03)\n        /* \"contracts/SyCrowBarter.sol\":958:986  _deadline >= block.timestamp */\n      lt\n      iszero\n        /* \"contracts/SyCrowBarter.sol\":958:1024  _deadline >= block.timestamp && totalTradeAmount < _expectedAmount */\n      dup1\n      iszero\n      tag_325\n      jumpi\n      pop\n        /* \"contracts/SyCrowBarter.sol\":1009:1024  _expectedAmount */\n      sload(0x07)\n        /* \"contracts/SyCrowBarter.sol\":990:1006  totalTradeAmount */\n      sload(0x01)\n        /* \"contracts/SyCrowBarter.sol\":990:1024  totalTradeAmount < _expectedAmount */\n      lt\n        /* \"contracts/SyCrowBarter.sol\":958:1024  _deadline >= block.timestamp && totalTradeAmount < _expectedAmount */\n    tag_325:\n        /* \"contracts/SyCrowBarter.sol\":937:1072  require(... */\n      tag_326\n      jumpi\n      mload(0x40)\n      0x08c379a000000000000000000000000000000000000000000000000000000000\n      dup2\n      mstore\n      0x04\n      add\n      tag_327\n      swap1\n      tag_108\n      jump\t// in\n    tag_327:\n      mload(0x40)\n      dup1\n      swap2\n      sub\n      swap1\n      revert\n    tag_326:\n        /* \"contracts/SyCrowBarter.sol\":1489:1501  _initialized */\n      0x04\n      0x00\n      swap1\n      sload\n      swap1\n      0x0100\n      exp\n      swap1\n      div\n      0xff\n      and\n        /* \"contracts/SyCrowBarter.sol\":1481:1535  require(_initialized, \"SyCrowBarter: NOT_INITIALIZED\") */\n      tag_329\n      jumpi\n      mload(0x40)\n      0x08c379a000000000000000000000000000000000000000000000000000000000\n      dup2\n      mstore\n      0x04\n      add\n      tag_330\n      swap1\n      tag_112\n      jump\t// in\n    tag_330:\n      mload(0x40)\n      dup1\n      swap2\n      sub\n      swap1\n      revert\n    tag_329:\n        /* \"contracts/SyCrowBarter.sol\":1722:1755  ISyCrowBarterFactory isycrFactory */\n      0x00\n        /* \"contracts/SyCrowBarter.sol\":1779:1786  factory */\n      immutable(\"0x26a975632f70533c9512e57b565b8ce8e2befee6b08dfbc27c4a897a20e2c1d6\")\n        /* \"contracts/SyCrowBarter.sol\":1722:1787  ISyCrowBarterFactory isycrFactory = ISyCrowBarterFactory(factory) */\n      swap1\n      pop\n        /* \"contracts/SyCrowBarter.sol\":1806:1818  isycrFactory */\n      dup1\n        /* \"contracts/SyCrowBarter.sol\":1806:1827  isycrFactory.isPaused */\n      0xffffffffffffffffffffffffffffffffffffffff\n      and\n      0xb187bd26\n        /* \"contracts/SyCrowBarter.sol\":1806:1829  isycrFactory.isPaused() */\n      mload(0x40)\n      dup2\n      0xffffffff\n      and\n      0xe0\n      shl\n      dup2\n      mstore\n      0x04\n      add\n      0x20\n      mload(0x40)\n      dup1\n      dup4\n      sub\n      dup2\n      dup7\n      gas\n      staticcall\n      iszero\n      dup1\n      iszero\n      tag_333\n      jumpi\n      returndatasize\n      0x00\n      dup1\n      returndatacopy\n      revert(0x00, returndatasize)\n    tag_333:\n      pop\n      pop\n      pop\n      pop\n      mload(0x40)\n      returndatasize\n      not(0x1f)\n      0x1f\n      dup3\n      add\n      and\n      dup3\n      add\n      dup1\n      0x40\n      mstore\n      pop\n      dup2\n      add\n      swap1\n      tag_334\n      swap2\n      swap1\n      tag_117\n      jump\t// in\n    tag_334:\n        /* \"contracts/SyCrowBarter.sol\":1805:1829  !isycrFactory.isPaused() */\n      iszero\n        /* \"contracts/SyCrowBarter.sol\":1797:1868  require(!isycrFactory.isPaused(), \"SyCrowBarter: Base Contract Paused\") */\n      tag_335\n      jumpi\n      mload(0x40)\n      0x08c379a000000000000000000000000000000000000000000000000000000000\n      dup2\n      mstore\n      0x04\n      add\n      tag_336\n      swap1\n      tag_120\n      jump\t// in\n    tag_336:\n      mload(0x40)\n      dup1\n      swap2\n      sub\n      swap1\n      revert\n    tag_335:\n        /* \"contracts/SyCrowBarter.sol\":5059:5092  ISyCrowBarterType.TOKEN_FOR_TOKEN */\n      0x02\n        /* \"contracts/SyCrowBarter.sol\":1183:1194  _barterType */\n      dup1\n      0x00\n      swap1\n      sload\n      swap1\n      0x0100\n      exp\n      swap1\n      div\n      0xff\n      and\n        /* \"contracts/SyCrowBarter.sol\":1169:1194  barterType == _barterType */\n      0x02\n      dup2\n      gt\n      iszero\n      tag_338\n      jumpi\n      tag_339\n      tag_128\n      jump\t// in\n    tag_339:\n    tag_338:\n        /* \"contracts/SyCrowBarter.sol\":1169:1179  barterType */\n      dup2\n        /* \"contracts/SyCrowBarter.sol\":1169:1194  barterType == _barterType */\n      0x02\n      dup2\n      gt\n      iszero\n      tag_340\n      jumpi\n      tag_341\n      tag_128\n      jump\t// in\n    tag_341:\n    tag_340:\n      eq\n        /* \"contracts/SyCrowBarter.sol\":1161:1232  require(barterType == _barterType, \"SyCrowBarter: INVALID_BARTER_TYPE\") */\n      tag_342\n      jumpi\n      mload(0x40)\n      0x08c379a000000000000000000000000000000000000000000000000000000000\n      dup2\n      mstore\n      0x04\n      add\n      tag_343\n      swap1\n      tag_133\n      jump\t// in\n    tag_343:\n      mload(0x40)\n      dup1\n      swap2\n      sub\n      swap1\n      revert\n    tag_342:\n        /* \"contracts/SyCrowBarter.sol\":5108:5144  _tradeTokenForToken(_expectedAmount) */\n      tag_345\n        /* \"contracts/SyCrowBarter.sol\":5128:5143  _expectedAmount */\n      sload(0x07)\n        /* \"contracts/SyCrowBarter.sol\":5108:5127  _tradeTokenForToken */\n      tag_162\n        /* \"contracts/SyCrowBarter.sol\":5108:5144  _tradeTokenForToken(_expectedAmount) */\n      jump\t// in\n    tag_345:\n        /* \"contracts/SyCrowBarter.sol\":1878:1879  _ */\n      pop\n        /* \"contracts/SyCrowBarter.sol\":1712:1886  {... */\n      pop\n        /* \"contracts/SyCrowBarter.sol\":4911:5151  function tradeTokenForToken()... */\n      jump\t// out\n        /* \"contracts/SyCrowBarter.sol\":323:364  address public immutable override factory */\n    tag_86:\n      immutable(\"0x26a975632f70533c9512e57b565b8ce8e2befee6b08dfbc27c4a897a20e2c1d6\")\n      dup2\n      jump\t// out\n        /* \"contracts/SyCrowBarter.sol\":5397:5647  function tradeEthForToken()... */\n    tag_89:\n        /* \"contracts/SyCrowBarter.sol\":971:986  block.timestamp */\n      timestamp\n        /* \"contracts/SyCrowBarter.sol\":958:967  _deadline */\n      sload(0x03)\n        /* \"contracts/SyCrowBarter.sol\":958:986  _deadline >= block.timestamp */\n      lt\n      iszero\n        /* \"contracts/SyCrowBarter.sol\":958:1024  _deadline >= block.timestamp && totalTradeAmount < _expectedAmount */\n      dup1\n      iszero\n      tag_347\n      jumpi\n      pop\n        /* \"contracts/SyCrowBarter.sol\":1009:1024  _expectedAmount */\n      sload(0x07)\n        /* \"contracts/SyCrowBarter.sol\":990:1006  totalTradeAmount */\n      sload(0x01)\n        /* \"contracts/SyCrowBarter.sol\":990:1024  totalTradeAmount < _expectedAmount */\n      lt\n        /* \"contracts/SyCrowBarter.sol\":958:1024  _deadline >= block.timestamp && totalTradeAmount < _expectedAmount */\n    tag_347:\n        /* \"contracts/SyCrowBarter.sol\":937:1072  require(... */\n      tag_348\n      jumpi\n      mload(0x40)\n      0x08c379a000000000000000000000000000000000000000000000000000000000\n      dup2\n      mstore\n      0x04\n      add\n      tag_349\n      swap1\n      tag_108\n      jump\t// in\n    tag_349:\n      mload(0x40)\n      dup1\n      swap2\n      sub\n      swap1\n      revert\n    tag_348:\n        /* \"contracts/SyCrowBarter.sol\":1489:1501  _initialized */\n      0x04\n      0x00\n      swap1\n      sload\n      swap1\n      0x0100\n      exp\n      swap1\n      div\n      0xff\n      and\n        /* \"contracts/SyCrowBarter.sol\":1481:1535  require(_initialized, \"SyCrowBarter: NOT_INITIALIZED\") */\n      tag_351\n      jumpi\n      mload(0x40)\n      0x08c379a000000000000000000000000000000000000000000000000000000000\n      dup2\n      mstore\n      0x04\n      add\n      tag_352\n      swap1\n      tag_112\n      jump\t// in\n    tag_352:\n      mload(0x40)\n      dup1\n      swap2\n      sub\n      swap1\n      revert\n    tag_351:\n        /* \"contracts/SyCrowBarter.sol\":1722:1755  ISyCrowBarterFactory isycrFactory */\n      0x00\n        /* \"contracts/SyCrowBarter.sol\":1779:1786  factory */\n      immutable(\"0x26a975632f70533c9512e57b565b8ce8e2befee6b08dfbc27c4a897a20e2c1d6\")\n        /* \"contracts/SyCrowBarter.sol\":1722:1787  ISyCrowBarterFactory isycrFactory = ISyCrowBarterFactory(factory) */\n      swap1\n      pop\n        /* \"contracts/SyCrowBarter.sol\":1806:1818  isycrFactory */\n      dup1\n        /* \"contracts/SyCrowBarter.sol\":1806:1827  isycrFactory.isPaused */\n      0xffffffffffffffffffffffffffffffffffffffff\n      and\n      0xb187bd26\n        /* \"contracts/SyCrowBarter.sol\":1806:1829  isycrFactory.isPaused() */\n      mload(0x40)\n      dup2\n      0xffffffff\n      and\n      0xe0\n      shl\n      dup2\n      mstore\n      0x04\n      add\n      0x20\n      mload(0x40)\n      dup1\n      dup4\n      sub\n      dup2\n      dup7\n      gas\n      staticcall\n      iszero\n      dup1\n      iszero\n      tag_355\n      jumpi\n      returndatasize\n      0x00\n      dup1\n      returndatacopy\n      revert(0x00, returndatasize)\n    tag_355:\n      pop\n      pop\n      pop\n      pop\n      mload(0x40)\n      returndatasize\n      not(0x1f)\n      0x1f\n      dup3\n      add\n      and\n      dup3\n      add\n      dup1\n      0x40\n      mstore\n      pop\n      dup2\n      add\n      swap1\n      tag_356\n      swap2\n      swap1\n      tag_117\n      jump\t// in\n    tag_356:\n        /* \"contracts/SyCrowBarter.sol\":1805:1829  !isycrFactory.isPaused() */\n      iszero\n        /* \"contracts/SyCrowBarter.sol\":1797:1868  require(!isycrFactory.isPaused(), \"SyCrowBarter: Base Contract Paused\") */\n      tag_357\n      jumpi\n      mload(0x40)\n      0x08c379a000000000000000000000000000000000000000000000000000000000\n      dup2\n      mstore\n      0x04\n      add\n      tag_358\n      swap1\n      tag_120\n      jump\t// in\n    tag_358:\n      mload(0x40)\n      dup1\n      swap2\n      sub\n      swap1\n      revert\n    tag_357:\n        /* \"contracts/SyCrowBarter.sol\":5559:5590  ISyCrowBarterType.TOKEN_FOR_ETH */\n      0x01\n        /* \"contracts/SyCrowBarter.sol\":1183:1194  _barterType */\n      0x02\n      0x00\n      swap1\n      sload\n      swap1\n      0x0100\n      exp\n      swap1\n      div\n      0xff\n      and\n        /* \"contracts/SyCrowBarter.sol\":1169:1194  barterType == _barterType */\n      0x02\n      dup2\n      gt\n      iszero\n      tag_360\n      jumpi\n      tag_361\n      tag_128\n      jump\t// in\n    tag_361:\n    tag_360:\n        /* \"contracts/SyCrowBarter.sol\":1169:1179  barterType */\n      dup2\n        /* \"contracts/SyCrowBarter.sol\":1169:1194  barterType == _barterType */\n      0x02\n      dup2\n      gt\n      iszero\n      tag_362\n      jumpi\n      tag_363\n      tag_128\n      jump\t// in\n    tag_363:\n    tag_362:\n      eq\n        /* \"contracts/SyCrowBarter.sol\":1161:1232  require(barterType == _barterType, \"SyCrowBarter: INVALID_BARTER_TYPE\") */\n      tag_364\n      jumpi\n      mload(0x40)\n      0x08c379a000000000000000000000000000000000000000000000000000000000\n      dup2\n      mstore\n      0x04\n      add\n      tag_365\n      swap1\n      tag_133\n      jump\t// in\n    tag_365:\n      mload(0x40)\n      dup1\n      swap2\n      sub\n      swap1\n      revert\n    tag_364:\n        /* \"contracts/SyCrowBarter.sol\":5606:5640  _tradeEthForToken(_expectedAmount) */\n      tag_367\n        /* \"contracts/SyCrowBarter.sol\":5624:5639  _expectedAmount */\n      sload(0x07)\n        /* \"contracts/SyCrowBarter.sol\":5606:5623  _tradeEthForToken */\n      tag_250\n        /* \"contracts/SyCrowBarter.sol\":5606:5640  _tradeEthForToken(_expectedAmount) */\n      jump\t// in\n    tag_367:\n        /* \"contracts/SyCrowBarter.sol\":1878:1879  _ */\n      pop\n        /* \"contracts/SyCrowBarter.sol\":1712:1886  {... */\n      pop\n        /* \"contracts/SyCrowBarter.sol\":5397:5647  function tradeEthForToken()... */\n      jump\t// out\n        /* \"contracts/SyCrowBarter.sol\":10985:11158  function getTradeOutAmount(uint256 amount)... */\n    tag_93:\n        /* \"contracts/SyCrowBarter.sol\":11095:11102  uint256 */\n      0x00\n        /* \"contracts/SyCrowBarter.sol\":1489:1501  _initialized */\n      0x04\n      0x00\n      swap1\n      sload\n      swap1\n      0x0100\n      exp\n      swap1\n      div\n      0xff\n      and\n        /* \"contracts/SyCrowBarter.sol\":1481:1535  require(_initialized, \"SyCrowBarter: NOT_INITIALIZED\") */\n      tag_369\n      jumpi\n      mload(0x40)\n      0x08c379a000000000000000000000000000000000000000000000000000000000\n      dup2\n      mstore\n      0x04\n      add\n      tag_370\n      swap1\n      tag_112\n      jump\t// in\n    tag_370:\n      mload(0x40)\n      dup1\n      swap2\n      sub\n      swap1\n      revert\n    tag_369:\n        /* \"contracts/SyCrowBarter.sol\":11125:11151  _getTradeOutAmount(amount) */\n      tag_372\n        /* \"contracts/SyCrowBarter.sol\":11144:11150  amount */\n      dup3\n        /* \"contracts/SyCrowBarter.sol\":11125:11143  _getTradeOutAmount */\n      tag_373\n        /* \"contracts/SyCrowBarter.sol\":11125:11151  _getTradeOutAmount(amount) */\n      jump\t// in\n    tag_372:\n        /* \"contracts/SyCrowBarter.sol\":11118:11151  return _getTradeOutAmount(amount) */\n      swap1\n      pop\n        /* \"contracts/SyCrowBarter.sol\":10985:11158  function getTradeOutAmount(uint256 amount)... */\n      swap2\n      swap1\n      pop\n      jump\t// out\n        /* \"contracts/SyCrowBarter.sol\":3372:4058  function getTrades()... */\n    tag_97:\n        /* \"contracts/SyCrowBarter.sol\":3490:3506  address[] memory */\n      0x60\n        /* \"contracts/SyCrowBarter.sol\":3520:3536  uint256[] memory */\n      dup1\n        /* \"contracts/SyCrowBarter.sol\":3550:3566  uint256[] memory */\n      0x60\n        /* \"contracts/SyCrowBarter.sol\":1489:1501  _initialized */\n      0x04\n      0x00\n      swap1\n      sload\n      swap1\n      0x0100\n      exp\n      swap1\n      div\n      0xff\n      and\n        /* \"contracts/SyCrowBarter.sol\":1481:1535  require(_initialized, \"SyCrowBarter: NOT_INITIALIZED\") */\n      tag_375\n      jumpi\n      mload(0x40)\n      0x08c379a000000000000000000000000000000000000000000000000000000000\n      dup2\n      mstore\n      0x04\n      add\n      tag_376\n      swap1\n      tag_112\n      jump\t// in\n    tag_376:\n      mload(0x40)\n      dup1\n      swap2\n      sub\n      swap1\n      revert\n    tag_375:\n        /* \"contracts/SyCrowBarter.sol\":3591:3617  address[] memory addresses */\n      0x00\n        /* \"contracts/SyCrowBarter.sol\":3634:3641  _trades */\n      0x09\n        /* \"contracts/SyCrowBarter.sol\":3634:3648  _trades.length */\n      dup1\n      sload\n      swap1\n      pop\n        /* \"contracts/SyCrowBarter.sol\":3620:3649  new address[](_trades.length) */\n      0xffffffffffffffff\n      dup2\n      gt\n      iszero\n      tag_378\n      jumpi\n      tag_379\n      tag_380\n      jump\t// in\n    tag_379:\n    tag_378:\n      mload(0x40)\n      swap1\n      dup1\n      dup3\n      mstore\n      dup1\n      0x20\n      mul\n      0x20\n      add\n      dup3\n      add\n      0x40\n      mstore\n      dup1\n      iszero\n      tag_381\n      jumpi\n      dup2\n      0x20\n      add\n      0x20\n      dup3\n      mul\n      dup1\n      calldatasize\n      dup4\n      calldatacopy\n      dup1\n      dup3\n      add\n      swap2\n      pop\n      pop\n      swap1\n      pop\n    tag_381:\n      pop\n        /* \"contracts/SyCrowBarter.sol\":3591:3649  address[] memory addresses = new address[](_trades.length) */\n      swap1\n      pop\n        /* \"contracts/SyCrowBarter.sol\":3659:3685  uint256[] memory amountsIn */\n      0x00\n        /* \"contracts/SyCrowBarter.sol\":3702:3709  _trades */\n      0x09\n        /* \"contracts/SyCrowBarter.sol\":3702:3716  _trades.length */\n      dup1\n      sload\n      swap1\n      pop\n        /* \"contracts/SyCrowBarter.sol\":3688:3717  new uint256[](_trades.length) */\n      0xffffffffffffffff\n      dup2\n      gt\n      iszero\n      tag_382\n      jumpi\n      tag_383\n      tag_380\n      jump\t// in\n    tag_383:\n    tag_382:\n      mload(0x40)\n      swap1\n      dup1\n      dup3\n      mstore\n      dup1\n      0x20\n      mul\n      0x20\n      add\n      dup3\n      add\n      0x40\n      mstore\n      dup1\n      iszero\n      tag_384\n      jumpi\n      dup2\n      0x20\n      add\n      0x20\n      dup3\n      mul\n      dup1\n      calldatasize\n      dup4\n      calldatacopy\n      dup1\n      dup3\n      add\n      swap2\n      pop\n      pop\n      swap1\n      pop\n    tag_384:\n      pop\n        /* \"contracts/SyCrowBarter.sol\":3659:3717  uint256[] memory amountsIn = new uint256[](_trades.length) */\n      swap1\n      pop\n        /* \"contracts/SyCrowBarter.sol\":3727:3754  uint256[] memory amountsOut */\n      0x00\n        /* \"contracts/SyCrowBarter.sol\":3771:3778  _trades */\n      0x09\n        /* \"contracts/SyCrowBarter.sol\":3771:3785  _trades.length */\n      dup1\n      sload\n      swap1\n      pop\n        /* \"contracts/SyCrowBarter.sol\":3757:3786  new uint256[](_trades.length) */\n      0xffffffffffffffff\n      dup2\n      gt\n      iszero\n      tag_385\n      jumpi\n      tag_386\n      tag_380\n      jump\t// in\n    tag_386:\n    tag_385:\n      mload(0x40)\n      swap1\n      dup1\n      dup3\n      mstore\n      dup1\n      0x20\n      mul\n      0x20\n      add\n      dup3\n      add\n      0x40\n      mstore\n      dup1\n      iszero\n      tag_387\n      jumpi\n      dup2\n      0x20\n      add\n      0x20\n      dup3\n      mul\n      dup1\n      calldatasize\n      dup4\n      calldatacopy\n      dup1\n      dup3\n      add\n      swap2\n      pop\n      pop\n      swap1\n      pop\n    tag_387:\n      pop\n        /* \"contracts/SyCrowBarter.sol\":3727:3786  uint256[] memory amountsOut = new uint256[](_trades.length) */\n      swap1\n      pop\n        /* \"contracts/SyCrowBarter.sol\":3802:3811  uint256 i */\n      0x00\n        /* \"contracts/SyCrowBarter.sol\":3797:4000  for (uint256 i = 0; i < _trades.length; i++) {... */\n    tag_388:\n        /* \"contracts/SyCrowBarter.sol\":3821:3828  _trades */\n      0x09\n        /* \"contracts/SyCrowBarter.sol\":3821:3835  _trades.length */\n      dup1\n      sload\n      swap1\n      pop\n        /* \"contracts/SyCrowBarter.sol\":3817:3818  i */\n      dup2\n        /* \"contracts/SyCrowBarter.sol\":3817:3835  i < _trades.length */\n      lt\n        /* \"contracts/SyCrowBarter.sol\":3797:4000  for (uint256 i = 0; i < _trades.length; i++) {... */\n      iszero\n      tag_389\n      jumpi\n        /* \"contracts/SyCrowBarter.sol\":3871:3878  _trades */\n      0x09\n        /* \"contracts/SyCrowBarter.sol\":3879:3880  i */\n      dup2\n        /* \"contracts/SyCrowBarter.sol\":3871:3881  _trades[i] */\n      dup2\n      sload\n      dup2\n      lt\n      tag_391\n      jumpi\n      tag_392\n      tag_393\n      jump\t// in\n    tag_392:\n    tag_391:\n      swap1\n      0x00\n      mstore\n      keccak256(0x00, 0x20)\n      swap1\n      0x03\n      mul\n      add\n        /* \"contracts/SyCrowBarter.sol\":3871:3889  _trades[i]._trader */\n      0x00\n      add\n      0x00\n      swap1\n      sload\n      swap1\n      0x0100\n      exp\n      swap1\n      div\n      0xffffffffffffffffffffffffffffffffffffffff\n      and\n        /* \"contracts/SyCrowBarter.sol\":3856:3865  addresses */\n      dup5\n        /* \"contracts/SyCrowBarter.sol\":3866:3867  i */\n      dup3\n        /* \"contracts/SyCrowBarter.sol\":3856:3868  addresses[i] */\n      dup2\n      mload\n      dup2\n      lt\n      tag_395\n      jumpi\n      tag_396\n      tag_393\n      jump\t// in\n    tag_396:\n    tag_395:\n      0x20\n      mul\n      0x20\n      add\n      add\n        /* \"contracts/SyCrowBarter.sol\":3856:3889  addresses[i] = _trades[i]._trader */\n      swap1\n      0xffffffffffffffffffffffffffffffffffffffff\n      and\n      swap1\n      dup2\n      0xffffffffffffffffffffffffffffffffffffffff\n      and\n      dup2\n      mstore\n      pop\n      pop\n        /* \"contracts/SyCrowBarter.sol\":3918:3925  _trades */\n      0x09\n        /* \"contracts/SyCrowBarter.sol\":3926:3927  i */\n      dup2\n        /* \"contracts/SyCrowBarter.sol\":3918:3928  _trades[i] */\n      dup2\n      sload\n      dup2\n      lt\n      tag_397\n      jumpi\n      tag_398\n      tag_393\n      jump\t// in\n    tag_398:\n    tag_397:\n      swap1\n      0x00\n      mstore\n      keccak256(0x00, 0x20)\n      swap1\n      0x03\n      mul\n      add\n        /* \"contracts/SyCrowBarter.sol\":3918:3938  _trades[i]._amountIn */\n      0x01\n      add\n      sload\n        /* \"contracts/SyCrowBarter.sol\":3903:3912  amountsIn */\n      dup4\n        /* \"contracts/SyCrowBarter.sol\":3913:3914  i */\n      dup3\n        /* \"contracts/SyCrowBarter.sol\":3903:3915  amountsIn[i] */\n      dup2\n      mload\n      dup2\n      lt\n      tag_400\n      jumpi\n      tag_401\n      tag_393\n      jump\t// in\n    tag_401:\n    tag_400:\n      0x20\n      mul\n      0x20\n      add\n      add\n        /* \"contracts/SyCrowBarter.sol\":3903:3938  amountsIn[i] = _trades[i]._amountIn */\n      dup2\n      dup2\n      mstore\n      pop\n      pop\n        /* \"contracts/SyCrowBarter.sol\":3968:3975  _trades */\n      0x09\n        /* \"contracts/SyCrowBarter.sol\":3976:3977  i */\n      dup2\n        /* \"contracts/SyCrowBarter.sol\":3968:3978  _trades[i] */\n      dup2\n      sload\n      dup2\n      lt\n      tag_402\n      jumpi\n      tag_403\n      tag_393\n      jump\t// in\n    tag_403:\n    tag_402:\n      swap1\n      0x00\n      mstore\n      keccak256(0x00, 0x20)\n      swap1\n      0x03\n      mul\n      add\n        /* \"contracts/SyCrowBarter.sol\":3968:3989  _trades[i]._amountOut */\n      0x02\n      add\n      sload\n        /* \"contracts/SyCrowBarter.sol\":3952:3962  amountsOut */\n      dup3\n        /* \"contracts/SyCrowBarter.sol\":3963:3964  i */\n      dup3\n        /* \"contracts/SyCrowBarter.sol\":3952:3965  amountsOut[i] */\n      dup2\n      mload\n      dup2\n      lt\n      tag_405\n      jumpi\n      tag_406\n      tag_393\n      jump\t// in\n    tag_406:\n    tag_405:\n      0x20\n      mul\n      0x20\n      add\n      add\n        /* \"contracts/SyCrowBarter.sol\":3952:3989  amountsOut[i] = _trades[i]._amountOut */\n      dup2\n      dup2\n      mstore\n      pop\n      pop\n        /* \"contracts/SyCrowBarter.sol\":3837:3840  i++ */\n      dup1\n      dup1\n      tag_407\n      swap1\n      tag_408\n      jump\t// in\n    tag_407:\n      swap2\n      pop\n      pop\n        /* \"contracts/SyCrowBarter.sol\":3797:4000  for (uint256 i = 0; i < _trades.length; i++) {... */\n      jump(tag_388)\n    tag_389:\n      pop\n        /* \"contracts/SyCrowBarter.sol\":4018:4027  addresses */\n      dup3\n        /* \"contracts/SyCrowBarter.sol\":4029:4038  amountsIn */\n      dup3\n        /* \"contracts/SyCrowBarter.sol\":4040:4050  amountsOut */\n      dup3\n        /* \"contracts/SyCrowBarter.sol\":4010:4051  return (addresses, amountsIn, amountsOut) */\n      swap6\n      pop\n      swap6\n      pop\n      swap6\n      pop\n      pop\n      pop\n      pop\n        /* \"contracts/SyCrowBarter.sol\":3372:4058  function getTrades()... */\n      swap1\n      swap2\n      swap3\n      jump\t// out\n        /* \"@openzeppelin/contracts/access/Ownable.sol\":1918:2116  function transferOwnership(address newOwner) public virtual onlyOwner {... */\n    tag_103:\n        /* \"@openzeppelin/contracts/access/Ownable.sol\":1259:1271  _msgSender() */\n      tag_410\n        /* \"@openzeppelin/contracts/access/Ownable.sol\":1259:1269  _msgSender */\n      tag_173\n        /* \"@openzeppelin/contracts/access/Ownable.sol\":1259:1271  _msgSender() */\n      jump\t// in\n    tag_410:\n        /* \"@openzeppelin/contracts/access/Ownable.sol\":1248:1271  owner() == _msgSender() */\n      0xffffffffffffffffffffffffffffffffffffffff\n      and\n        /* \"@openzeppelin/contracts/access/Ownable.sol\":1248:1255  owner() */\n      tag_411\n        /* \"@openzeppelin/contracts/access/Ownable.sol\":1248:1253  owner */\n      tag_70\n        /* \"@openzeppelin/contracts/access/Ownable.sol\":1248:1255  owner() */\n      jump\t// in\n    tag_411:\n        /* \"@openzeppelin/contracts/access/Ownable.sol\":1248:1271  owner() == _msgSender() */\n      0xffffffffffffffffffffffffffffffffffffffff\n      and\n      eq\n        /* \"@openzeppelin/contracts/access/Ownable.sol\":1240:1308  require(owner() == _msgSender(), \"Ownable: caller is not the owner\") */\n      tag_412\n      jumpi\n      mload(0x40)\n      0x08c379a000000000000000000000000000000000000000000000000000000000\n      dup2\n      mstore\n      0x04\n      add\n      tag_413\n      swap1\n      tag_177\n      jump\t// in\n    tag_413:\n      mload(0x40)\n      dup1\n      swap2\n      sub\n      swap1\n      revert\n    tag_412:\n        /* \"@openzeppelin/contracts/access/Ownable.sol\":2026:2027  0 */\n      0x00\n        /* \"@openzeppelin/contracts/access/Ownable.sol\":2006:2028  newOwner != address(0) */\n      0xffffffffffffffffffffffffffffffffffffffff\n      and\n        /* \"@openzeppelin/contracts/access/Ownable.sol\":2006:2014  newOwner */\n      dup2\n        /* \"@openzeppelin/contracts/access/Ownable.sol\":2006:2028  newOwner != address(0) */\n      0xffffffffffffffffffffffffffffffffffffffff\n      and\n      sub\n        /* \"@openzeppelin/contracts/access/Ownable.sol\":1998:2071  require(newOwner != address(0), \"Ownable: new owner is the zero address\") */\n      tag_415\n      jumpi\n      mload(0x40)\n      0x08c379a000000000000000000000000000000000000000000000000000000000\n      dup2\n      mstore\n      0x04\n      add\n      tag_416\n      swap1\n      tag_417\n      jump\t// in\n    tag_416:\n      mload(0x40)\n      dup1\n      swap2\n      sub\n      swap1\n      revert\n    tag_415:\n        /* \"@openzeppelin/contracts/access/Ownable.sol\":2081:2109  _transferOwnership(newOwner) */\n      tag_418\n        /* \"@openzeppelin/contracts/access/Ownable.sol\":2100:2108  newOwner */\n      dup2\n        /* \"@openzeppelin/contracts/access/Ownable.sol\":2081:2099  _transferOwnership */\n      tag_296\n        /* \"@openzeppelin/contracts/access/Ownable.sol\":2081:2109  _transferOwnership(newOwner) */\n      jump\t// in\n    tag_418:\n        /* \"@openzeppelin/contracts/access/Ownable.sol\":1918:2116  function transferOwnership(address newOwner) public virtual onlyOwner {... */\n      pop\n      jump\t// out\n        /* \"contracts/SyCrowBarter.sol\":6700:7709  function _tradeTokenForEth(uint256 inAmount) internal {... */\n    tag_136:\n        /* \"contracts/SyCrowBarter.sol\":6840:6848  inAmount */\n      dup1\n        /* \"contracts/SyCrowBarter.sol\":6792:6813  _expectedTokenAddress */\n      0x05\n      0x00\n      swap1\n      sload\n      swap1\n      0x0100\n      exp\n      swap1\n      div\n      0xffffffffffffffffffffffffffffffffffffffff\n      and\n        /* \"contracts/SyCrowBarter.sol\":6785:6824  IERC20(_expectedTokenAddress).balanceOf */\n      0xffffffffffffffffffffffffffffffffffffffff\n      and\n      0x70a08231\n        /* \"contracts/SyCrowBarter.sol\":6825:6835  msg.sender */\n      caller\n        /* \"contracts/SyCrowBarter.sol\":6785:6836  IERC20(_expectedTokenAddress).balanceOf(msg.sender) */\n      mload(0x40)\n      dup3\n      0xffffffff\n      and\n      0xe0\n      shl\n      dup2\n      mstore\n      0x04\n      add\n      tag_420\n      swap2\n      swap1\n      tag_72\n      jump\t// in\n    tag_420:\n      0x20\n      mload(0x40)\n      dup1\n      dup4\n      sub\n      dup2\n      dup7\n      gas\n      staticcall\n      iszero\n      dup1\n      iszero\n      tag_422\n      jumpi\n      returndatasize\n      0x00\n      dup1\n      returndatacopy\n      revert(0x00, returndatasize)\n    tag_422:\n      pop\n      pop\n      pop\n      pop\n      mload(0x40)\n      returndatasize\n      not(0x1f)\n      0x1f\n      dup3\n      add\n      and\n      dup3\n      add\n      dup1\n      0x40\n      mstore\n      pop\n      dup2\n      add\n      swap1\n      tag_423\n      swap2\n      swap1\n      tag_183\n      jump\t// in\n    tag_423:\n        /* \"contracts/SyCrowBarter.sol\":6785:6848  IERC20(_expectedTokenAddress).balanceOf(msg.sender) >= inAmount */\n      lt\n      iszero\n        /* \"contracts/SyCrowBarter.sol\":6764:6908  require(... */\n      tag_424\n      jumpi\n      mload(0x40)\n      0x08c379a000000000000000000000000000000000000000000000000000000000\n      dup2\n      mstore\n      0x04\n      add\n      tag_425\n      swap1\n      tag_426\n      jump\t// in\n    tag_425:\n      mload(0x40)\n      dup1\n      swap2\n      sub\n      swap1\n      revert\n    tag_424:\n        /* \"contracts/SyCrowBarter.sol\":6919:6936  uint256 outAmount */\n      0x00\n        /* \"contracts/SyCrowBarter.sol\":6939:6967  _getTradeOutAmount(inAmount) */\n      tag_427\n        /* \"contracts/SyCrowBarter.sol\":6958:6966  inAmount */\n      dup3\n        /* \"contracts/SyCrowBarter.sol\":6939:6957  _getTradeOutAmount */\n      tag_373\n        /* \"contracts/SyCrowBarter.sol\":6939:6967  _getTradeOutAmount(inAmount) */\n      jump\t// in\n    tag_427:\n        /* \"contracts/SyCrowBarter.sol\":6919:6967  uint256 outAmount = _getTradeOutAmount(inAmount) */\n      swap1\n      pop\n        /* \"contracts/SyCrowBarter.sol\":6978:6989  IWETH _weth */\n      0x00\n        /* \"contracts/SyCrowBarter.sol\":6998:7002  WETH */\n      0x02\n      0x01\n      swap1\n      sload\n      swap1\n      0x0100\n      exp\n      swap1\n      div\n      0xffffffffffffffffffffffffffffffffffffffff\n      and\n        /* \"contracts/SyCrowBarter.sol\":6978:7003  IWETH _weth = IWETH(WETH) */\n      swap1\n      pop\n        /* \"contracts/SyCrowBarter.sol\":7069:7078  outAmount */\n      dup2\n        /* \"contracts/SyCrowBarter.sol\":7035:7040  _weth */\n      dup2\n        /* \"contracts/SyCrowBarter.sol\":7035:7050  _weth.balanceOf */\n      0xffffffffffffffffffffffffffffffffffffffff\n      and\n      0x70a08231\n        /* \"contracts/SyCrowBarter.sol\":7059:7063  this */\n      address\n        /* \"contracts/SyCrowBarter.sol\":7035:7065  _weth.balanceOf(address(this)) */\n      mload(0x40)\n      dup3\n      0xffffffff\n      and\n      0xe0\n      shl\n      dup2\n      mstore\n      0x04\n      add\n      tag_428\n      swap2\n      swap1\n      tag_72\n      jump\t// in\n    tag_428:\n      0x20\n      mload(0x40)\n      dup1\n      dup4\n      sub\n      dup2\n      dup7\n      gas\n      staticcall\n      iszero\n      dup1\n      iszero\n      tag_430\n      jumpi\n      returndatasize\n      0x00\n      dup1\n      returndatacopy\n      revert(0x00, returndatasize)\n    tag_430:\n      pop\n      pop\n      pop\n      pop\n      mload(0x40)\n      returndatasize\n      not(0x1f)\n      0x1f\n      dup3\n      add\n      and\n      dup3\n      add\n      dup1\n      0x40\n      mstore\n      pop\n      dup2\n      add\n      swap1\n      tag_431\n      swap2\n      swap1\n      tag_183\n      jump\t// in\n    tag_431:\n        /* \"contracts/SyCrowBarter.sol\":7035:7078  _weth.balanceOf(address(this)) >= outAmount */\n      lt\n      iszero\n        /* \"contracts/SyCrowBarter.sol\":7014:7147  require(... */\n      tag_432\n      jumpi\n      mload(0x40)\n      0x08c379a000000000000000000000000000000000000000000000000000000000\n      dup2\n      mstore\n      0x04\n      add\n      tag_433\n      swap1\n      tag_434\n      jump\t// in\n    tag_433:\n      mload(0x40)\n      dup1\n      swap2\n      sub\n      swap1\n      revert\n    tag_432:\n        /* \"contracts/SyCrowBarter.sol\":7164:7168  WETH */\n      0x02\n      0x01\n      swap1\n      sload\n      swap1\n      0x0100\n      exp\n      swap1\n      div\n      0xffffffffffffffffffffffffffffffffffffffff\n      and\n        /* \"contracts/SyCrowBarter.sol\":7158:7178  IWETH(WETH).withdraw */\n      0xffffffffffffffffffffffffffffffffffffffff\n      and\n      0x2e1a7d4d\n        /* \"contracts/SyCrowBarter.sol\":7179:7188  outAmount */\n      dup4\n        /* \"contracts/SyCrowBarter.sol\":7158:7189  IWETH(WETH).withdraw(outAmount) */\n      mload(0x40)\n      dup3\n      0xffffffff\n      and\n      0xe0\n      shl\n      dup2\n      mstore\n      0x04\n      add\n      tag_435\n      swap2\n      swap1\n      tag_50\n      jump\t// in\n    tag_435:\n      0x00\n      mload(0x40)\n      dup1\n      dup4\n      sub\n      dup2\n      0x00\n      dup8\n      dup1\n      extcodesize\n      iszero\n      dup1\n      iszero\n      tag_436\n      jumpi\n      0x00\n      dup1\n      revert\n    tag_436:\n      pop\n      gas\n      call\n      iszero\n      dup1\n      iszero\n      tag_438\n      jumpi\n      returndatasize\n      0x00\n      dup1\n      returndatacopy\n      revert(0x00, returndatasize)\n    tag_438:\n      pop\n      pop\n      pop\n      pop\n        /* \"contracts/SyCrowBarter.sol\":7200:7349  TransferHelper.safeTransferFrom(... */\n      tag_439\n        /* \"contracts/SyCrowBarter.sol\":7245:7266  _expectedTokenAddress */\n      0x05\n      0x00\n      swap1\n      sload\n      swap1\n      0x0100\n      exp\n      swap1\n      div\n      0xffffffffffffffffffffffffffffffffffffffff\n      and\n        /* \"contracts/SyCrowBarter.sol\":7280:7290  msg.sender */\n      caller\n        /* \"contracts/SyCrowBarter.sol\":7312:7316  this */\n      address\n        /* \"contracts/SyCrowBarter.sol\":7331:7339  inAmount */\n      dup7\n        /* \"contracts/SyCrowBarter.sol\":7200:7231  TransferHelper.safeTransferFrom */\n      tag_440\n        /* \"contracts/SyCrowBarter.sol\":7200:7349  TransferHelper.safeTransferFrom(... */\n      jump\t// in\n    tag_439:\n        /* \"contracts/SyCrowBarter.sol\":7359:7412  TransferHelper.safeTransferETH(msg.sender, outAmount) */\n      tag_441\n        /* \"contracts/SyCrowBarter.sol\":7390:7400  msg.sender */\n      caller\n        /* \"contracts/SyCrowBarter.sol\":7402:7411  outAmount */\n      dup4\n        /* \"contracts/SyCrowBarter.sol\":7359:7389  TransferHelper.safeTransferETH */\n      tag_190\n        /* \"contracts/SyCrowBarter.sol\":7359:7412  TransferHelper.safeTransferETH(msg.sender, outAmount) */\n      jump\t// in\n    tag_441:\n        /* \"contracts/SyCrowBarter.sol\":7423:7430  _trades */\n      0x09\n        /* \"contracts/SyCrowBarter.sol\":7436:7479  BaterTrade(msg.sender, inAmount, outAmount) */\n      mload(0x40)\n      dup1\n      0x60\n      add\n      0x40\n      mstore\n      dup1\n        /* \"contracts/SyCrowBarter.sol\":7447:7457  msg.sender */\n      caller\n        /* \"contracts/SyCrowBarter.sol\":7436:7479  BaterTrade(msg.sender, inAmount, outAmount) */\n      0xffffffffffffffffffffffffffffffffffffffff\n      and\n      dup2\n      mstore\n      0x20\n      add\n        /* \"contracts/SyCrowBarter.sol\":7459:7467  inAmount */\n      dup6\n        /* \"contracts/SyCrowBarter.sol\":7436:7479  BaterTrade(msg.sender, inAmount, outAmount) */\n      dup2\n      mstore\n      0x20\n      add\n        /* \"contracts/SyCrowBarter.sol\":7469:7478  outAmount */\n      dup5\n        /* \"contracts/SyCrowBarter.sol\":7436:7479  BaterTrade(msg.sender, inAmount, outAmount) */\n      dup2\n      mstore\n      pop\n        /* \"contracts/SyCrowBarter.sol\":7423:7480  _trades.push(BaterTrade(msg.sender, inAmount, outAmount)) */\n      swap1\n      dup1\n      0x01\n      dup2\n      sload\n      add\n      dup1\n      dup3\n      sstore\n      dup1\n      swap2\n      pop\n      pop\n      0x01\n      swap1\n      sub\n      swap1\n      0x00\n      mstore\n      keccak256(0x00, 0x20)\n      swap1\n      0x03\n      mul\n      add\n      0x00\n      swap1\n      swap2\n      swap1\n      swap2\n      swap1\n      swap2\n      pop\n      0x00\n      dup3\n      add\n      mload\n      dup2\n      0x00\n      add\n      exp(0x0100, 0x00)\n      dup2\n      sload\n      dup2\n      0xffffffffffffffffffffffffffffffffffffffff\n      mul\n      not\n      and\n      swap1\n      dup4\n      0xffffffffffffffffffffffffffffffffffffffff\n      and\n      mul\n      or\n      swap1\n      sstore\n      pop\n      0x20\n      dup3\n      add\n      mload\n      dup2\n      0x01\n      add\n      sstore\n      0x40\n      dup3\n      add\n      mload\n      dup2\n      0x02\n      add\n      sstore\n      pop\n      pop\n        /* \"contracts/SyCrowBarter.sol\":7491:7523  ISyCrowBarterFactory sycrFactory */\n      0x00\n        /* \"contracts/SyCrowBarter.sol\":7547:7554  factory */\n      immutable(\"0x26a975632f70533c9512e57b565b8ce8e2befee6b08dfbc27c4a897a20e2c1d6\")\n        /* \"contracts/SyCrowBarter.sol\":7491:7555  ISyCrowBarterFactory sycrFactory = ISyCrowBarterFactory(factory) */\n      swap1\n      pop\n        /* \"contracts/SyCrowBarter.sol\":7565:7576  sycrFactory */\n      dup1\n        /* \"contracts/SyCrowBarter.sol\":7565:7596  sycrFactory.notifyTradeByBarter */\n      0xffffffffffffffffffffffffffffffffffffffff\n      and\n      0xf52701b7\n        /* \"contracts/SyCrowBarter.sol\":7618:7622  this */\n      address\n        /* \"contracts/SyCrowBarter.sol\":7637:7647  msg.sender */\n      caller\n        /* \"contracts/SyCrowBarter.sol\":7661:7669  inAmount */\n      dup8\n        /* \"contracts/SyCrowBarter.sol\":7683:7692  outAmount */\n      dup8\n        /* \"contracts/SyCrowBarter.sol\":7565:7702  sycrFactory.notifyTradeByBarter(... */\n      mload(0x40)\n      dup6\n      0xffffffff\n      and\n      0xe0\n      shl\n      dup2\n      mstore\n      0x04\n      add\n      tag_443\n      swap5\n      swap4\n      swap3\n      swap2\n      swap1\n      tag_217\n      jump\t// in\n    tag_443:\n      0x00\n      mload(0x40)\n      dup1\n      dup4\n      sub\n      dup2\n      0x00\n      dup8\n      dup1\n      extcodesize\n      iszero\n      dup1\n      iszero\n      tag_444\n      jumpi\n      0x00\n      dup1\n      revert\n    tag_444:\n      pop\n      gas\n      call\n      iszero\n      dup1\n      iszero\n      tag_446\n      jumpi\n      returndatasize\n      0x00\n      dup1\n      returndatacopy\n      revert(0x00, returndatasize)\n    tag_446:\n      pop\n      pop\n      pop\n      pop\n        /* \"contracts/SyCrowBarter.sol\":6754:7709  {... */\n      pop\n      pop\n      pop\n        /* \"contracts/SyCrowBarter.sol\":6700:7709  function _tradeTokenForEth(uint256 inAmount) internal {... */\n      pop\n      jump\t// out\n        /* \"contracts/SyCrowBarter.sol\":5653:6694  function _tradeTokenForToken(uint256 inAmount) internal {... */\n    tag_162:\n        /* \"contracts/SyCrowBarter.sol\":5795:5803  inAmount */\n      dup1\n        /* \"contracts/SyCrowBarter.sol\":5747:5768  _expectedTokenAddress */\n      0x05\n      0x00\n      swap1\n      sload\n      swap1\n      0x0100\n      exp\n      swap1\n      div\n      0xffffffffffffffffffffffffffffffffffffffff\n      and\n        /* \"contracts/SyCrowBarter.sol\":5740:5779  IERC20(_expectedTokenAddress).balanceOf */\n      0xffffffffffffffffffffffffffffffffffffffff\n      and\n      0x70a08231\n        /* \"contracts/SyCrowBarter.sol\":5780:5790  msg.sender */\n      caller\n        /* \"contracts/SyCrowBarter.sol\":5740:5791  IERC20(_expectedTokenAddress).balanceOf(msg.sender) */\n      mload(0x40)\n      dup3\n      0xffffffff\n      and\n      0xe0\n      shl\n      dup2\n      mstore\n      0x04\n      add\n      tag_448\n      swap2\n      swap1\n      tag_72\n      jump\t// in\n    tag_448:\n      0x20\n      mload(0x40)\n      dup1\n      dup4\n      sub\n      dup2\n      dup7\n      gas\n      staticcall\n      iszero\n      dup1\n      iszero\n      tag_450\n      jumpi\n      returndatasize\n      0x00\n      dup1\n      returndatacopy\n      revert(0x00, returndatasize)\n    tag_450:\n      pop\n      pop\n      pop\n      pop\n      mload(0x40)\n      returndatasize\n      not(0x1f)\n      0x1f\n      dup3\n      add\n      and\n      dup3\n      add\n      dup1\n      0x40\n      mstore\n      pop\n      dup2\n      add\n      swap1\n      tag_451\n      swap2\n      swap1\n      tag_183\n      jump\t// in\n    tag_451:\n        /* \"contracts/SyCrowBarter.sol\":5740:5803  IERC20(_expectedTokenAddress).balanceOf(msg.sender) >= inAmount */\n      lt\n      iszero\n        /* \"contracts/SyCrowBarter.sol\":5719:5863  require(... */\n      tag_452\n      jumpi\n      mload(0x40)\n      0x08c379a000000000000000000000000000000000000000000000000000000000\n      dup2\n      mstore\n      0x04\n      add\n      tag_453\n      swap1\n      tag_426\n      jump\t// in\n    tag_453:\n      mload(0x40)\n      dup1\n      swap2\n      sub\n      swap1\n      revert\n    tag_452:\n        /* \"contracts/SyCrowBarter.sol\":5874:5891  uint256 outAmount */\n      0x00\n        /* \"contracts/SyCrowBarter.sol\":5894:5922  _getTradeOutAmount(inAmount) */\n      tag_454\n        /* \"contracts/SyCrowBarter.sol\":5913:5921  inAmount */\n      dup3\n        /* \"contracts/SyCrowBarter.sol\":5894:5912  _getTradeOutAmount */\n      tag_373\n        /* \"contracts/SyCrowBarter.sol\":5894:5922  _getTradeOutAmount(inAmount) */\n      jump\t// in\n    tag_454:\n        /* \"contracts/SyCrowBarter.sol\":5874:5922  uint256 outAmount = _getTradeOutAmount(inAmount) */\n      swap1\n      pop\n        /* \"contracts/SyCrowBarter.sol\":6029:6038  outAmount */\n      dup1\n        /* \"contracts/SyCrowBarter.sol\":5961:5983  _depositedTokenAddress */\n      0x04\n      0x01\n      swap1\n      sload\n      swap1\n      0x0100\n      exp\n      swap1\n      div\n      0xffffffffffffffffffffffffffffffffffffffff\n      and\n        /* \"contracts/SyCrowBarter.sol\":5954:5994  IERC20(_depositedTokenAddress).balanceOf */\n      0xffffffffffffffffffffffffffffffffffffffff\n      and\n      0x70a08231\n        /* \"contracts/SyCrowBarter.sol\":6003:6007  this */\n      address\n        /* \"contracts/SyCrowBarter.sol\":5954:6009  IERC20(_depositedTokenAddress).balanceOf(address(this)) */\n      mload(0x40)\n      dup3\n      0xffffffff\n      and\n      0xe0\n      shl\n      dup2\n      mstore\n      0x04\n      add\n      tag_455\n      swap2\n      swap1\n      tag_72\n      jump\t// in\n    tag_455:\n      0x20\n      mload(0x40)\n      dup1\n      dup4\n      sub\n      dup2\n      dup7\n      gas\n      staticcall\n      iszero\n      dup1\n      iszero\n      tag_457\n      jumpi\n      returndatasize\n      0x00\n      dup1\n      returndatacopy\n      revert(0x00, returndatasize)\n    tag_457:\n      pop\n      pop\n      pop\n      pop\n      mload(0x40)\n      returndatasize\n      not(0x1f)\n      0x1f\n      dup3\n      add\n      and\n      dup3\n      add\n      dup1\n      0x40\n      mstore\n      pop\n      dup2\n      add\n      swap1\n      tag_458\n      swap2\n      swap1\n      tag_183\n      jump\t// in\n    tag_458:\n        /* \"contracts/SyCrowBarter.sol\":5954:6038  IERC20(_depositedTokenAddress).balanceOf(address(this)) >=... */\n      lt\n      iszero\n        /* \"contracts/SyCrowBarter.sol\":5933:6107  require(... */\n      tag_459\n      jumpi\n      mload(0x40)\n      0x08c379a000000000000000000000000000000000000000000000000000000000\n      dup2\n      mstore\n      0x04\n      add\n      tag_460\n      swap1\n      tag_434\n      jump\t// in\n    tag_460:\n      mload(0x40)\n      dup1\n      swap2\n      sub\n      swap1\n      revert\n    tag_459:\n        /* \"contracts/SyCrowBarter.sol\":6118:6267  TransferHelper.safeTransferFrom(... */\n      tag_461\n        /* \"contracts/SyCrowBarter.sol\":6163:6184  _expectedTokenAddress */\n      0x05\n      0x00\n      swap1\n      sload\n      swap1\n      0x0100\n      exp\n      swap1\n      div\n      0xffffffffffffffffffffffffffffffffffffffff\n      and\n        /* \"contracts/SyCrowBarter.sol\":6198:6208  msg.sender */\n      caller\n        /* \"contracts/SyCrowBarter.sol\":6230:6234  this */\n      address\n        /* \"contracts/SyCrowBarter.sol\":6249:6257  inAmount */\n      dup6\n        /* \"contracts/SyCrowBarter.sol\":6118:6149  TransferHelper.safeTransferFrom */\n      tag_440\n        /* \"contracts/SyCrowBarter.sol\":6118:6267  TransferHelper.safeTransferFrom(... */\n      jump\t// in\n    tag_461:\n        /* \"contracts/SyCrowBarter.sol\":6277:6397  TransferHelper.safeTransfer(... */\n      tag_462\n        /* \"contracts/SyCrowBarter.sol\":6318:6340  _depositedTokenAddress */\n      0x04\n      0x01\n      swap1\n      sload\n      swap1\n      0x0100\n      exp\n      swap1\n      div\n      0xffffffffffffffffffffffffffffffffffffffff\n      and\n        /* \"contracts/SyCrowBarter.sol\":6354:6364  msg.sender */\n      caller\n        /* \"contracts/SyCrowBarter.sol\":6378:6387  outAmount */\n      dup4\n        /* \"contracts/SyCrowBarter.sol\":6277:6304  TransferHelper.safeTransfer */\n      tag_197\n        /* \"contracts/SyCrowBarter.sol\":6277:6397  TransferHelper.safeTransfer(... */\n      jump\t// in\n    tag_462:\n        /* \"contracts/SyCrowBarter.sol\":6408:6415  _trades */\n      0x09\n        /* \"contracts/SyCrowBarter.sol\":6421:6464  BaterTrade(msg.sender, inAmount, outAmount) */\n      mload(0x40)\n      dup1\n      0x60\n      add\n      0x40\n      mstore\n      dup1\n        /* \"contracts/SyCrowBarter.sol\":6432:6442  msg.sender */\n      caller\n        /* \"contracts/SyCrowBarter.sol\":6421:6464  BaterTrade(msg.sender, inAmount, outAmount) */\n      0xffffffffffffffffffffffffffffffffffffffff\n      and\n      dup2\n      mstore\n      0x20\n      add\n        /* \"contracts/SyCrowBarter.sol\":6444:6452  inAmount */\n      dup5\n        /* \"contracts/SyCrowBarter.sol\":6421:6464  BaterTrade(msg.sender, inAmount, outAmount) */\n      dup2\n      mstore\n      0x20\n      add\n        /* \"contracts/SyCrowBarter.sol\":6454:6463  outAmount */\n      dup4\n        /* \"contracts/SyCrowBarter.sol\":6421:6464  BaterTrade(msg.sender, inAmount, outAmount) */\n      dup2\n      mstore\n      pop\n        /* \"contracts/SyCrowBarter.sol\":6408:6465  _trades.push(BaterTrade(msg.sender, inAmount, outAmount)) */\n      swap1\n      dup1\n      0x01\n      dup2\n      sload\n      add\n      dup1\n      dup3\n      sstore\n      dup1\n      swap2\n      pop\n      pop\n      0x01\n      swap1\n      sub\n      swap1\n      0x00\n      mstore\n      keccak256(0x00, 0x20)\n      swap1\n      0x03\n      mul\n      add\n      0x00\n      swap1\n      swap2\n      swap1\n      swap2\n      swap1\n      swap2\n      pop\n      0x00\n      dup3\n      add\n      mload\n      dup2\n      0x00\n      add\n      exp(0x0100, 0x00)\n      dup2\n      sload\n      dup2\n      0xffffffffffffffffffffffffffffffffffffffff\n      mul\n      not\n      and\n      swap1\n      dup4\n      0xffffffffffffffffffffffffffffffffffffffff\n      and\n      mul\n      or\n      swap1\n      sstore\n      pop\n      0x20\n      dup3\n      add\n      mload\n      dup2\n      0x01\n      add\n      sstore\n      0x40\n      dup3\n      add\n      mload\n      dup2\n      0x02\n      add\n      sstore\n      pop\n      pop\n        /* \"contracts/SyCrowBarter.sol\":6476:6508  ISyCrowBarterFactory sycrFactory */\n      0x00\n        /* \"contracts/SyCrowBarter.sol\":6532:6539  factory */\n      immutable(\"0x26a975632f70533c9512e57b565b8ce8e2befee6b08dfbc27c4a897a20e2c1d6\")\n        /* \"contracts/SyCrowBarter.sol\":6476:6540  ISyCrowBarterFactory sycrFactory = ISyCrowBarterFactory(factory) */\n      swap1\n      pop\n        /* \"contracts/SyCrowBarter.sol\":6550:6561  sycrFactory */\n      dup1\n        /* \"contracts/SyCrowBarter.sol\":6550:6581  sycrFactory.notifyTradeByBarter */\n      0xffffffffffffffffffffffffffffffffffffffff\n      and\n      0xf52701b7\n        /* \"contracts/SyCrowBarter.sol\":6603:6607  this */\n      address\n        /* \"contracts/SyCrowBarter.sol\":6622:6632  msg.sender */\n      caller\n        /* \"contracts/SyCrowBarter.sol\":6646:6654  inAmount */\n      dup7\n        /* \"contracts/SyCrowBarter.sol\":6668:6677  outAmount */\n      dup7\n        /* \"contracts/SyCrowBarter.sol\":6550:6687  sycrFactory.notifyTradeByBarter(... */\n      mload(0x40)\n      dup6\n      0xffffffff\n      and\n      0xe0\n      shl\n      dup2\n      mstore\n      0x04\n      add\n      tag_464\n      swap5\n      swap4\n      swap3\n      swap2\n      swap1\n      tag_217\n      jump\t// in\n    tag_464:\n      0x00\n      mload(0x40)\n      dup1\n      dup4\n      sub\n      dup2\n      0x00\n      dup8\n      dup1\n      extcodesize\n      iszero\n      dup1\n      iszero\n      tag_465\n      jumpi\n      0x00\n      dup1\n      revert\n    tag_465:\n      pop\n      gas\n      call\n      iszero\n      dup1\n      iszero\n      tag_467\n      jumpi\n      returndatasize\n      0x00\n      dup1\n      returndatacopy\n      revert(0x00, returndatasize)\n    tag_467:\n      pop\n      pop\n      pop\n      pop\n        /* \"contracts/SyCrowBarter.sol\":5709:6694  {... */\n      pop\n      pop\n        /* \"contracts/SyCrowBarter.sol\":5653:6694  function _tradeTokenForToken(uint256 inAmount) internal {... */\n      pop\n      jump\t// out\n        /* \"@openzeppelin/contracts/utils/Context.sol\":640:736  function _msgSender() internal view virtual returns (address) {... */\n    tag_173:\n        /* \"@openzeppelin/contracts/utils/Context.sol\":693:700  address */\n      0x00\n        /* \"@openzeppelin/contracts/utils/Context.sol\":719:729  msg.sender */\n      caller\n        /* \"@openzeppelin/contracts/utils/Context.sol\":712:729  return msg.sender */\n      swap1\n      pop\n        /* \"@openzeppelin/contracts/utils/Context.sol\":640:736  function _msgSender() internal view virtual returns (address) {... */\n      swap1\n      jump\t// out\n        /* \"contracts/libraries/TransferHelper.sol\":1333:1525  function safeTransferETH(address to, uint value) internal {... */\n    tag_190:\n        /* \"contracts/libraries/TransferHelper.sol\":1402:1414  bool success */\n      0x00\n        /* \"contracts/libraries/TransferHelper.sol\":1419:1421  to */\n      dup3\n        /* \"contracts/libraries/TransferHelper.sol\":1419:1426  to.call */\n      0xffffffffffffffffffffffffffffffffffffffff\n      and\n        /* \"contracts/libraries/TransferHelper.sol\":1433:1438  value */\n      dup3\n        /* \"contracts/libraries/TransferHelper.sol\":1450:1451  0 */\n      0x00\n        /* \"contracts/libraries/TransferHelper.sol\":1440:1452  new bytes(0) */\n      0xffffffffffffffff\n      dup2\n      gt\n      iszero\n      tag_470\n      jumpi\n      tag_471\n      tag_380\n      jump\t// in\n    tag_471:\n    tag_470:\n      mload(0x40)\n      swap1\n      dup1\n      dup3\n      mstore\n      dup1\n      0x1f\n      add\n      not(0x1f)\n      and\n      0x20\n      add\n      dup3\n      add\n      0x40\n      mstore\n      dup1\n      iszero\n      tag_472\n      jumpi\n      dup2\n      0x20\n      add\n      0x01\n      dup3\n      mul\n      dup1\n      calldatasize\n      dup4\n      calldatacopy\n      dup1\n      dup3\n      add\n      swap2\n      pop\n      pop\n      swap1\n      pop\n    tag_472:\n      pop\n        /* \"contracts/libraries/TransferHelper.sol\":1419:1453  to.call{value:value}(new bytes(0)) */\n      mload(0x40)\n      tag_473\n      swap2\n      swap1\n      tag_474\n      jump\t// in\n    tag_473:\n      0x00\n      mload(0x40)\n      dup1\n      dup4\n      sub\n      dup2\n      dup6\n      dup8\n      gas\n      call\n      swap3\n      pop\n      pop\n      pop\n      returndatasize\n      dup1\n      0x00\n      dup2\n      eq\n      tag_477\n      jumpi\n      mload(0x40)\n      swap2\n      pop\n      and(add(returndatasize, 0x3f), not(0x1f))\n      dup3\n      add\n      0x40\n      mstore\n      returndatasize\n      dup3\n      mstore\n      returndatasize\n      0x00\n      0x20\n      dup5\n      add\n      returndatacopy\n      jump(tag_476)\n    tag_477:\n      0x60\n      swap2\n      pop\n    tag_476:\n      pop\n        /* \"contracts/libraries/TransferHelper.sol\":1401:1453  (bool success,) = to.call{value:value}(new bytes(0)) */\n      pop\n      swap1\n      pop\n        /* \"contracts/libraries/TransferHelper.sol\":1471:1478  success */\n      dup1\n        /* \"contracts/libraries/TransferHelper.sol\":1463:1518  require(success, 'TransferHelper: ETH_TRANSFER_FAILED') */\n      tag_478\n      jumpi\n      mload(0x40)\n      0x08c379a000000000000000000000000000000000000000000000000000000000\n      dup2\n      mstore\n      0x04\n      add\n      tag_479\n      swap1\n      tag_480\n      jump\t// in\n    tag_479:\n      mload(0x40)\n      dup1\n      swap2\n      sub\n      swap1\n      revert\n    tag_478:\n        /* \"contracts/libraries/TransferHelper.sol\":1391:1525  {... */\n      pop\n        /* \"contracts/libraries/TransferHelper.sol\":1333:1525  function safeTransferETH(address to, uint value) internal {... */\n      pop\n      pop\n      jump\t// out\n        /* \"contracts/libraries/TransferHelper.sol\":566:923  function safeTransfer(address token, address to, uint value) internal {... */\n    tag_197:\n        /* \"contracts/libraries/TransferHelper.sol\":713:725  bool success */\n      0x00\n        /* \"contracts/libraries/TransferHelper.sol\":727:744  bytes memory data */\n      dup1\n        /* \"contracts/libraries/TransferHelper.sol\":748:753  token */\n      dup5\n        /* \"contracts/libraries/TransferHelper.sol\":748:758  token.call */\n      0xffffffffffffffffffffffffffffffffffffffff\n      and\n        /* \"contracts/libraries/TransferHelper.sol\":782:792  0xa9059cbb */\n      0xa9059cbb\n        /* \"contracts/libraries/TransferHelper.sol\":794:796  to */\n      dup6\n        /* \"contracts/libraries/TransferHelper.sol\":798:803  value */\n      dup6\n        /* \"contracts/libraries/TransferHelper.sol\":759:804  abi.encodeWithSelector(0xa9059cbb, to, value) */\n      add(0x24, mload(0x40))\n      tag_482\n      swap3\n      swap2\n      swap1\n      tag_483\n      jump\t// in\n    tag_482:\n      mload(0x40)\n      0x20\n      dup2\n      dup4\n      sub\n      sub\n      dup2\n      mstore\n      swap1\n      0x40\n      mstore\n      swap1\n      0xe0\n      shl\n      0x20\n      dup3\n      add\n      dup1\n      mload\n      0xffffffffffffffffffffffffffffffffffffffffffffffffffffffff\n      dup4\n      dup2\n      dup4\n      and\n      or\n      dup4\n      mstore\n      pop\n      pop\n      pop\n      pop\n        /* \"contracts/libraries/TransferHelper.sol\":748:805  token.call(abi.encodeWithSelector(0xa9059cbb, to, value)) */\n      mload(0x40)\n      tag_484\n      swap2\n      swap1\n      tag_474\n      jump\t// in\n    tag_484:\n      0x00\n      mload(0x40)\n      dup1\n      dup4\n      sub\n      dup2\n      0x00\n      dup7\n      gas\n      call\n      swap2\n      pop\n      pop\n      returndatasize\n      dup1\n      0x00\n      dup2\n      eq\n      tag_487\n      jumpi\n      mload(0x40)\n      swap2\n      pop\n      and(add(returndatasize, 0x3f), not(0x1f))\n      dup3\n      add\n      0x40\n      mstore\n      returndatasize\n      dup3\n      mstore\n      returndatasize\n      0x00\n      0x20\n      dup5\n      add\n      returndatacopy\n      jump(tag_486)\n    tag_487:\n      0x60\n      swap2\n      pop\n    tag_486:\n      pop\n        /* \"contracts/libraries/TransferHelper.sol\":712:805  (bool success, bytes memory data) = token.call(abi.encodeWithSelector(0xa9059cbb, to, value)) */\n      swap2\n      pop\n      swap2\n      pop\n        /* \"contracts/libraries/TransferHelper.sol\":823:830  success */\n      dup2\n        /* \"contracts/libraries/TransferHelper.sol\":823:880  success && (data.length == 0 || abi.decode(data, (bool))) */\n      dup1\n      iszero\n      tag_488\n      jumpi\n      pop\n        /* \"contracts/libraries/TransferHelper.sol\":850:851  0 */\n      0x00\n        /* \"contracts/libraries/TransferHelper.sol\":835:839  data */\n      dup2\n        /* \"contracts/libraries/TransferHelper.sol\":835:846  data.length */\n      mload\n        /* \"contracts/libraries/TransferHelper.sol\":835:851  data.length == 0 */\n      eq\n        /* \"contracts/libraries/TransferHelper.sol\":835:879  data.length == 0 || abi.decode(data, (bool)) */\n      dup1\n      tag_489\n      jumpi\n      pop\n        /* \"contracts/libraries/TransferHelper.sol\":866:870  data */\n      dup1\n        /* \"contracts/libraries/TransferHelper.sol\":855:879  abi.decode(data, (bool)) */\n      dup1\n      0x20\n      add\n      swap1\n      mload\n      dup2\n      add\n      swap1\n      tag_490\n      swap2\n      swap1\n      tag_117\n      jump\t// in\n    tag_490:\n        /* \"contracts/libraries/TransferHelper.sol\":835:879  data.length == 0 || abi.decode(data, (bool)) */\n    tag_489:\n        /* \"contracts/libraries/TransferHelper.sol\":823:880  success && (data.length == 0 || abi.decode(data, (bool))) */\n    tag_488:\n        /* \"contracts/libraries/TransferHelper.sol\":815:916  require(success && (data.length == 0 || abi.decode(data, (bool))), 'TransferHelper: TRANSFER_FAILED') */\n      tag_491\n      jumpi\n      mload(0x40)\n      0x08c379a000000000000000000000000000000000000000000000000000000000\n      dup2\n      mstore\n      0x04\n      add\n      tag_492\n      swap1\n      tag_493\n      jump\t// in\n    tag_492:\n      mload(0x40)\n      dup1\n      swap2\n      sub\n      swap1\n      revert\n    tag_491:\n        /* \"contracts/libraries/TransferHelper.sol\":636:923  {... */\n      pop\n      pop\n        /* \"contracts/libraries/TransferHelper.sol\":566:923  function safeTransfer(address token, address to, uint value) internal {... */\n      pop\n      pop\n      pop\n      jump\t// out\n        /* \"contracts/SyCrowBarter.sol\":7715:8571  function _tradeEthForToken(uint256 inAmount) internal {... */\n    tag_250:\n        /* \"contracts/SyCrowBarter.sol\":7799:7808  msg.value */\n      callvalue\n        /* \"contracts/SyCrowBarter.sol\":7787:7795  inAmount */\n      dup2\n        /* \"contracts/SyCrowBarter.sol\":7787:7808  inAmount == msg.value */\n      eq\n        /* \"contracts/SyCrowBarter.sol\":7779:7850  require(inAmount == msg.value, \"SyCrowBarter: MULTI_TRADE_NOT_ENABLED\") */\n      tag_495\n      jumpi\n      mload(0x40)\n      0x08c379a000000000000000000000000000000000000000000000000000000000\n      dup2\n      mstore\n      0x04\n      add\n      tag_496\n      swap1\n      tag_124\n      jump\t// in\n    tag_496:\n      mload(0x40)\n      dup1\n      swap2\n      sub\n      swap1\n      revert\n    tag_495:\n        /* \"contracts/SyCrowBarter.sol\":7861:7878  uint256 outAmount */\n      0x00\n        /* \"contracts/SyCrowBarter.sol\":7881:7909  _getTradeOutAmount(inAmount) */\n      tag_497\n        /* \"contracts/SyCrowBarter.sol\":7900:7908  inAmount */\n      dup3\n        /* \"contracts/SyCrowBarter.sol\":7881:7899  _getTradeOutAmount */\n      tag_373\n        /* \"contracts/SyCrowBarter.sol\":7881:7909  _getTradeOutAmount(inAmount) */\n      jump\t// in\n    tag_497:\n        /* \"contracts/SyCrowBarter.sol\":7861:7909  uint256 outAmount = _getTradeOutAmount(inAmount) */\n      swap1\n      pop\n        /* \"contracts/SyCrowBarter.sol\":8016:8025  outAmount */\n      dup1\n        /* \"contracts/SyCrowBarter.sol\":7948:7970  _depositedTokenAddress */\n      0x04\n      0x01\n      swap1\n      sload\n      swap1\n      0x0100\n      exp\n      swap1\n      div\n      0xffffffffffffffffffffffffffffffffffffffff\n      and\n        /* \"contracts/SyCrowBarter.sol\":7941:7981  IERC20(_depositedTokenAddress).balanceOf */\n      0xffffffffffffffffffffffffffffffffffffffff\n      and\n      0x70a08231\n        /* \"contracts/SyCrowBarter.sol\":7990:7994  this */\n      address\n        /* \"contracts/SyCrowBarter.sol\":7941:7996  IERC20(_depositedTokenAddress).balanceOf(address(this)) */\n      mload(0x40)\n      dup3\n      0xffffffff\n      and\n      0xe0\n      shl\n      dup2\n      mstore\n      0x04\n      add\n      tag_498\n      swap2\n      swap1\n      tag_72\n      jump\t// in\n    tag_498:\n      0x20\n      mload(0x40)\n      dup1\n      dup4\n      sub\n      dup2\n      dup7\n      gas\n      staticcall\n      iszero\n      dup1\n      iszero\n      tag_500\n      jumpi\n      returndatasize\n      0x00\n      dup1\n      returndatacopy\n      revert(0x00, returndatasize)\n    tag_500:\n      pop\n      pop\n      pop\n      pop\n      mload(0x40)\n      returndatasize\n      not(0x1f)\n      0x1f\n      dup3\n      add\n      and\n      dup3\n      add\n      dup1\n      0x40\n      mstore\n      pop\n      dup2\n      add\n      swap1\n      tag_501\n      swap2\n      swap1\n      tag_183\n      jump\t// in\n    tag_501:\n        /* \"contracts/SyCrowBarter.sol\":7941:8025  IERC20(_depositedTokenAddress).balanceOf(address(this)) >=... */\n      lt\n      iszero\n        /* \"contracts/SyCrowBarter.sol\":7920:8094  require(... */\n      tag_502\n      jumpi\n      mload(0x40)\n      0x08c379a000000000000000000000000000000000000000000000000000000000\n      dup2\n      mstore\n      0x04\n      add\n      tag_503\n      swap1\n      tag_434\n      jump\t// in\n    tag_503:\n      mload(0x40)\n      dup1\n      swap2\n      sub\n      swap1\n      revert\n    tag_502:\n        /* \"contracts/SyCrowBarter.sol\":8111:8115  WETH */\n      0x02\n      0x01\n      swap1\n      sload\n      swap1\n      0x0100\n      exp\n      swap1\n      div\n      0xffffffffffffffffffffffffffffffffffffffff\n      and\n        /* \"contracts/SyCrowBarter.sol\":8105:8124  IWETH(WETH).deposit */\n      0xffffffffffffffffffffffffffffffffffffffff\n      and\n      0xd0e30db0\n        /* \"contracts/SyCrowBarter.sol\":8132:8140  inAmount */\n      dup4\n        /* \"contracts/SyCrowBarter.sol\":8105:8143  IWETH(WETH).deposit{value: inAmount}() */\n      mload(0x40)\n      dup3\n      0xffffffff\n      and\n      0xe0\n      shl\n      dup2\n      mstore\n      0x04\n      add\n      0x00\n      mload(0x40)\n      dup1\n      dup4\n      sub\n      dup2\n      dup6\n      dup9\n      dup1\n      extcodesize\n      iszero\n      dup1\n      iszero\n      tag_504\n      jumpi\n      0x00\n      dup1\n      revert\n    tag_504:\n      pop\n      gas\n      call\n      iszero\n      dup1\n      iszero\n      tag_506\n      jumpi\n      returndatasize\n      0x00\n      dup1\n      returndatacopy\n      revert(0x00, returndatasize)\n    tag_506:\n      pop\n      pop\n      pop\n      pop\n      pop\n        /* \"contracts/SyCrowBarter.sol\":8154:8274  TransferHelper.safeTransfer(... */\n      tag_507\n        /* \"contracts/SyCrowBarter.sol\":8195:8217  _depositedTokenAddress */\n      0x04\n      0x01\n      swap1\n      sload\n      swap1\n      0x0100\n      exp\n      swap1\n      div\n      0xffffffffffffffffffffffffffffffffffffffff\n      and\n        /* \"contracts/SyCrowBarter.sol\":8231:8241  msg.sender */\n      caller\n        /* \"contracts/SyCrowBarter.sol\":8255:8264  outAmount */\n      dup4\n        /* \"contracts/SyCrowBarter.sol\":8154:8181  TransferHelper.safeTransfer */\n      tag_197\n        /* \"contracts/SyCrowBarter.sol\":8154:8274  TransferHelper.safeTransfer(... */\n      jump\t// in\n    tag_507:\n        /* \"contracts/SyCrowBarter.sol\":8285:8292  _trades */\n      0x09\n        /* \"contracts/SyCrowBarter.sol\":8298:8341  BaterTrade(msg.sender, inAmount, outAmount) */\n      mload(0x40)\n      dup1\n      0x60\n      add\n      0x40\n      mstore\n      dup1\n        /* \"contracts/SyCrowBarter.sol\":8309:8319  msg.sender */\n      caller\n        /* \"contracts/SyCrowBarter.sol\":8298:8341  BaterTrade(msg.sender, inAmount, outAmount) */\n      0xffffffffffffffffffffffffffffffffffffffff\n      and\n      dup2\n      mstore\n      0x20\n      add\n        /* \"contracts/SyCrowBarter.sol\":8321:8329  inAmount */\n      dup5\n        /* \"contracts/SyCrowBarter.sol\":8298:8341  BaterTrade(msg.sender, inAmount, outAmount) */\n      dup2\n      mstore\n      0x20\n      add\n        /* \"contracts/SyCrowBarter.sol\":8331:8340  outAmount */\n      dup4\n        /* \"contracts/SyCrowBarter.sol\":8298:8341  BaterTrade(msg.sender, inAmount, outAmount) */\n      dup2\n      mstore\n      pop\n        /* \"contracts/SyCrowBarter.sol\":8285:8342  _trades.push(BaterTrade(msg.sender, inAmount, outAmount)) */\n      swap1\n      dup1\n      0x01\n      dup2\n      sload\n      add\n      dup1\n      dup3\n      sstore\n      dup1\n      swap2\n      pop\n      pop\n      0x01\n      swap1\n      sub\n      swap1\n      0x00\n      mstore\n      keccak256(0x00, 0x20)\n      swap1\n      0x03\n      mul\n      add\n      0x00\n      swap1\n      swap2\n      swap1\n      swap2\n      swap1\n      swap2\n      pop\n      0x00\n      dup3\n      add\n      mload\n      dup2\n      0x00\n      add\n      exp(0x0100, 0x00)\n      dup2\n      sload\n      dup2\n      0xffffffffffffffffffffffffffffffffffffffff\n      mul\n      not\n      and\n      swap1\n      dup4\n      0xffffffffffffffffffffffffffffffffffffffff\n      and\n      mul\n      or\n      swap1\n      sstore\n      pop\n      0x20\n      dup3\n      add\n      mload\n      dup2\n      0x01\n      add\n      sstore\n      0x40\n      dup3\n      add\n      mload\n      dup2\n      0x02\n      add\n      sstore\n      pop\n      pop\n        /* \"contracts/SyCrowBarter.sol\":8353:8385  ISyCrowBarterFactory sycrFactory */\n      0x00\n        /* \"contracts/SyCrowBarter.sol\":8409:8416  factory */\n      immutable(\"0x26a975632f70533c9512e57b565b8ce8e2befee6b08dfbc27c4a897a20e2c1d6\")\n        /* \"contracts/SyCrowBarter.sol\":8353:8417  ISyCrowBarterFactory sycrFactory = ISyCrowBarterFactory(factory) */\n      swap1\n      pop\n        /* \"contracts/SyCrowBarter.sol\":8427:8438  sycrFactory */\n      dup1\n        /* \"contracts/SyCrowBarter.sol\":8427:8458  sycrFactory.notifyTradeByBarter */\n      0xffffffffffffffffffffffffffffffffffffffff\n      and\n      0xf52701b7\n        /* \"contracts/SyCrowBarter.sol\":8480:8484  this */\n      address\n        /* \"contracts/SyCrowBarter.sol\":8499:8509  msg.sender */\n      caller\n        /* \"contracts/SyCrowBarter.sol\":8523:8531  inAmount */\n      dup7\n        /* \"contracts/SyCrowBarter.sol\":8545:8554  outAmount */\n      dup7\n        /* \"contracts/SyCrowBarter.sol\":8427:8564  sycrFactory.notifyTradeByBarter(... */\n      mload(0x40)\n      dup6\n      0xffffffff\n      and\n      0xe0\n      shl\n      dup2\n      mstore\n      0x04\n      add\n      tag_509\n      swap5\n      swap4\n      swap3\n      swap2\n      swap1\n      tag_217\n      jump\t// in\n    tag_509:\n      0x00\n      mload(0x40)\n      dup1\n      dup4\n      sub\n      dup2\n      0x00\n      dup8\n      dup1\n      extcodesize\n      iszero\n      dup1\n      iszero\n      tag_510\n      jumpi\n      0x00\n      dup1\n      revert\n    tag_510:\n      pop\n      gas\n      call\n      iszero\n      dup1\n      iszero\n      tag_512\n      jumpi\n      returndatasize\n      0x00\n      dup1\n      returndatacopy\n      revert(0x00, returndatasize)\n    tag_512:\n      pop\n      pop\n      pop\n      pop\n        /* \"contracts/SyCrowBarter.sol\":7769:8571  {... */\n      pop\n      pop\n        /* \"contracts/SyCrowBarter.sol\":7715:8571  function _tradeEthForToken(uint256 inAmount) internal {... */\n      pop\n      jump\t// out\n        /* \"@openzeppelin/contracts/access/Ownable.sol\":2270:2457  function _transferOwnership(address newOwner) internal virtual {... */\n    tag_296:\n        /* \"@openzeppelin/contracts/access/Ownable.sol\":2343:2359  address oldOwner */\n      0x00\n        /* \"@openzeppelin/contracts/access/Ownable.sol\":2362:2368  _owner */\n      dup1\n      0x00\n      swap1\n      sload\n      swap1\n      0x0100\n      exp\n      swap1\n      div\n      0xffffffffffffffffffffffffffffffffffffffff\n      and\n        /* \"@openzeppelin/contracts/access/Ownable.sol\":2343:2368  address oldOwner = _owner */\n      swap1\n      pop\n        /* \"@openzeppelin/contracts/access/Ownable.sol\":2387:2395  newOwner */\n      dup2\n        /* \"@openzeppelin/contracts/access/Ownable.sol\":2378:2384  _owner */\n      0x00\n      dup1\n        /* \"@openzeppelin/contracts/access/Ownable.sol\":2378:2395  _owner = newOwner */\n      0x0100\n      exp\n      dup2\n      sload\n      dup2\n      0xffffffffffffffffffffffffffffffffffffffff\n      mul\n      not\n      and\n      swap1\n      dup4\n      0xffffffffffffffffffffffffffffffffffffffff\n      and\n      mul\n      or\n      swap1\n      sstore\n      pop\n        /* \"@openzeppelin/contracts/access/Ownable.sol\":2441:2449  newOwner */\n      dup2\n        /* \"@openzeppelin/contracts/access/Ownable.sol\":2410:2450  OwnershipTransferred(oldOwner, newOwner) */\n      0xffffffffffffffffffffffffffffffffffffffff\n      and\n        /* \"@openzeppelin/contracts/access/Ownable.sol\":2431:2439  oldOwner */\n      dup2\n        /* \"@openzeppelin/contracts/access/Ownable.sol\":2410:2450  OwnershipTransferred(oldOwner, newOwner) */\n      0xffffffffffffffffffffffffffffffffffffffff\n      and\n      0x8be0079c531659141344cd1fd0a4f28419497f9722a3daafe3b4186f6b6457e0\n      mload(0x40)\n      mload(0x40)\n      dup1\n      swap2\n      sub\n      swap1\n      log3\n        /* \"@openzeppelin/contracts/access/Ownable.sol\":2333:2457  {... */\n      pop\n        /* \"@openzeppelin/contracts/access/Ownable.sol\":2270:2457  function _transferOwnership(address newOwner) internal virtual {... */\n      pop\n      jump\t// out\n        /* \"contracts/SyCrowBarter.sol\":11164:11337  function _getTradeOutAmount(uint256 amount)... */\n    tag_373:\n        /* \"contracts/SyCrowBarter.sol\":11255:11262  uint256 */\n      0x00\n        /* \"contracts/SyCrowBarter.sol\":11315:11330  _expectedAmount */\n      sload(0x07)\n        /* \"contracts/SyCrowBarter.sol\":11295:11311  _depositedAmount */\n      sload(0x06)\n        /* \"contracts/SyCrowBarter.sol\":11286:11292  amount */\n      dup4\n        /* \"contracts/SyCrowBarter.sol\":11286:11311  amount * _depositedAmount */\n      tag_515\n      swap2\n      swap1\n      tag_516\n      jump\t// in\n    tag_515:\n        /* \"contracts/SyCrowBarter.sol\":11285:11330  (amount * _depositedAmount) / _expectedAmount */\n      tag_517\n      swap2\n      swap1\n      tag_518\n      jump\t// in\n    tag_517:\n        /* \"contracts/SyCrowBarter.sol\":11278:11330  return (amount * _depositedAmount) / _expectedAmount */\n      swap1\n      pop\n        /* \"contracts/SyCrowBarter.sol\":11164:11337  function _getTradeOutAmount(uint256 amount)... */\n      swap2\n      swap1\n      pop\n      jump\t// out\n        /* \"contracts/libraries/TransferHelper.sol\":929:1327  function safeTransferFrom(address token, address from, address to, uint value) internal {... */\n    tag_440:\n        /* \"contracts/libraries/TransferHelper.sol\":1106:1118  bool success */\n      0x00\n        /* \"contracts/libraries/TransferHelper.sol\":1120:1137  bytes memory data */\n      dup1\n        /* \"contracts/libraries/TransferHelper.sol\":1141:1146  token */\n      dup6\n        /* \"contracts/libraries/TransferHelper.sol\":1141:1151  token.call */\n      0xffffffffffffffffffffffffffffffffffffffff\n      and\n        /* \"contracts/libraries/TransferHelper.sol\":1175:1185  0x23b872dd */\n      0x23b872dd\n        /* \"contracts/libraries/TransferHelper.sol\":1187:1191  from */\n      dup7\n        /* \"contracts/libraries/TransferHelper.sol\":1193:1195  to */\n      dup7\n        /* \"contracts/libraries/TransferHelper.sol\":1197:1202  value */\n      dup7\n        /* \"contracts/libraries/TransferHelper.sol\":1152:1203  abi.encodeWithSelector(0x23b872dd, from, to, value) */\n      add(0x24, mload(0x40))\n      tag_520\n      swap4\n      swap3\n      swap2\n      swap1\n      tag_521\n      jump\t// in\n    tag_520:\n      mload(0x40)\n      0x20\n      dup2\n      dup4\n      sub\n      sub\n      dup2\n      mstore\n      swap1\n      0x40\n      mstore\n      swap1\n      0xe0\n      shl\n      0x20\n      dup3\n      add\n      dup1\n      mload\n      0xffffffffffffffffffffffffffffffffffffffffffffffffffffffff\n      dup4\n      dup2\n      dup4\n      and\n      or\n      dup4\n      mstore\n      pop\n      pop\n      pop\n      pop\n        /* \"contracts/libraries/TransferHelper.sol\":1141:1204  token.call(abi.encodeWithSelector(0x23b872dd, from, to, value)) */\n      mload(0x40)\n      tag_522\n      swap2\n      swap1\n      tag_474\n      jump\t// in\n    tag_522:\n      0x00\n      mload(0x40)\n      dup1\n      dup4\n      sub\n      dup2\n      0x00\n      dup7\n      gas\n      call\n      swap2\n      pop\n      pop\n      returndatasize\n      dup1\n      0x00\n      dup2\n      eq\n      tag_525\n      jumpi\n      mload(0x40)\n      swap2\n      pop\n      and(add(returndatasize, 0x3f), not(0x1f))\n      dup3\n      add\n      0x40\n      mstore\n      returndatasize\n      dup3\n      mstore\n      returndatasize\n      0x00\n      0x20\n      dup5\n      add\n      returndatacopy\n      jump(tag_524)\n    tag_525:\n      0x60\n      swap2\n      pop\n    tag_524:\n      pop\n        /* \"contracts/libraries/TransferHelper.sol\":1105:1204  (bool success, bytes memory data) = token.call(abi.encodeWithSelector(0x23b872dd, from, to, value)) */\n      swap2\n      pop\n      swap2\n      pop\n        /* \"contracts/libraries/TransferHelper.sol\":1222:1229  success */\n      dup2\n        /* \"contracts/libraries/TransferHelper.sol\":1222:1279  success && (data.length == 0 || abi.decode(data, (bool))) */\n      dup1\n      iszero\n      tag_526\n      jumpi\n      pop\n        /* \"contracts/libraries/TransferHelper.sol\":1249:1250  0 */\n      0x00\n        /* \"contracts/libraries/TransferHelper.sol\":1234:1238  data */\n      dup2\n        /* \"contracts/libraries/TransferHelper.sol\":1234:1245  data.length */\n      mload\n        /* \"contracts/libraries/TransferHelper.sol\":1234:1250  data.length == 0 */\n      eq\n        /* \"contracts/libraries/TransferHelper.sol\":1234:1278  data.length == 0 || abi.decode(data, (bool)) */\n      dup1\n      tag_527\n      jumpi\n      pop\n        /* \"contracts/libraries/TransferHelper.sol\":1265:1269  data */\n      dup1\n        /* \"contracts/libraries/TransferHelper.sol\":1254:1278  abi.decode(data, (bool)) */\n      dup1\n      0x20\n      add\n      swap1\n      mload\n      dup2\n      add\n      swap1\n      tag_528\n      swap2\n      swap1\n      tag_117\n      jump\t// in\n    tag_528:\n        /* \"contracts/libraries/TransferHelper.sol\":1234:1278  data.length == 0 || abi.decode(data, (bool)) */\n    tag_527:\n        /* \"contracts/libraries/TransferHelper.sol\":1222:1279  success && (data.length == 0 || abi.decode(data, (bool))) */\n    tag_526:\n        /* \"contracts/libraries/TransferHelper.sol\":1214:1320  require(success && (data.length == 0 || abi.decode(data, (bool))), 'TransferHelper: TRANSFER_FROM_FAILED') */\n      tag_529\n      jumpi\n      mload(0x40)\n      0x08c379a000000000000000000000000000000000000000000000000000000000\n      dup2\n      mstore\n      0x04\n      add\n      tag_530\n      swap1\n      tag_531\n      jump\t// in\n    tag_530:\n      mload(0x40)\n      dup1\n      swap2\n      sub\n      swap1\n      revert\n    tag_529:\n        /* \"contracts/libraries/TransferHelper.sol\":1017:1327  {... */\n      pop\n      pop\n        /* \"contracts/libraries/TransferHelper.sol\":929:1327  function safeTransferFrom(address token, address from, address to, uint value) internal {... */\n      pop\n      pop\n      pop\n      pop\n      jump\t// out\n        /* \"#utility.yul\":88:205   */\n    tag_533:\n        /* \"#utility.yul\":197:198   */\n      0x00\n        /* \"#utility.yul\":194:195   */\n      dup1\n        /* \"#utility.yul\":187:199   */\n      revert\n        /* \"#utility.yul\":334:411   */\n    tag_535:\n        /* \"#utility.yul\":371:378   */\n      0x00\n        /* \"#utility.yul\":400:405   */\n      dup2\n        /* \"#utility.yul\":389:405   */\n      swap1\n      pop\n        /* \"#utility.yul\":334:411   */\n      swap2\n      swap1\n      pop\n      jump\t// out\n        /* \"#utility.yul\":417:539   */\n    tag_536:\n        /* \"#utility.yul\":490:514   */\n      tag_613\n        /* \"#utility.yul\":508:513   */\n      dup2\n        /* \"#utility.yul\":490:514   */\n      tag_535\n      jump\t// in\n    tag_613:\n        /* \"#utility.yul\":483:488   */\n      dup2\n        /* \"#utility.yul\":480:515   */\n      eq\n        /* \"#utility.yul\":470:533   */\n      tag_614\n      jumpi\n        /* \"#utility.yul\":529:530   */\n      0x00\n        /* \"#utility.yul\":526:527   */\n      dup1\n        /* \"#utility.yul\":519:531   */\n      revert\n        /* \"#utility.yul\":470:533   */\n    tag_614:\n        /* \"#utility.yul\":417:539   */\n      pop\n      jump\t// out\n        /* \"#utility.yul\":545:684   */\n    tag_537:\n        /* \"#utility.yul\":591:596   */\n      0x00\n        /* \"#utility.yul\":629:635   */\n      dup2\n        /* \"#utility.yul\":616:636   */\n      calldataload\n        /* \"#utility.yul\":607:636   */\n      swap1\n      pop\n        /* \"#utility.yul\":645:678   */\n      tag_616\n        /* \"#utility.yul\":672:677   */\n      dup2\n        /* \"#utility.yul\":645:678   */\n      tag_536\n      jump\t// in\n    tag_616:\n        /* \"#utility.yul\":545:684   */\n      swap3\n      swap2\n      pop\n      pop\n      jump\t// out\n        /* \"#utility.yul\":690:1019   */\n    tag_27:\n        /* \"#utility.yul\":749:755   */\n      0x00\n        /* \"#utility.yul\":798:800   */\n      0x20\n        /* \"#utility.yul\":786:795   */\n      dup3\n        /* \"#utility.yul\":777:784   */\n      dup5\n        /* \"#utility.yul\":773:796   */\n      sub\n        /* \"#utility.yul\":769:801   */\n      slt\n        /* \"#utility.yul\":766:885   */\n      iszero\n      tag_618\n      jumpi\n        /* \"#utility.yul\":804:883   */\n      tag_619\n      tag_533\n      jump\t// in\n    tag_619:\n        /* \"#utility.yul\":766:885   */\n    tag_618:\n        /* \"#utility.yul\":924:925   */\n      0x00\n        /* \"#utility.yul\":949:1002   */\n      tag_620\n        /* \"#utility.yul\":994:1001   */\n      dup5\n        /* \"#utility.yul\":985:991   */\n      dup3\n        /* \"#utility.yul\":974:983   */\n      dup6\n        /* \"#utility.yul\":970:992   */\n      add\n        /* \"#utility.yul\":949:1002   */\n      tag_537\n      jump\t// in\n    tag_620:\n        /* \"#utility.yul\":939:1002   */\n      swap2\n      pop\n        /* \"#utility.yul\":895:1012   */\n      pop\n        /* \"#utility.yul\":690:1019   */\n      swap3\n      swap2\n      pop\n      pop\n      jump\t// out\n        /* \"#utility.yul\":1025:1115   */\n    tag_538:\n        /* \"#utility.yul\":1059:1066   */\n      0x00\n        /* \"#utility.yul\":1102:1107   */\n      dup2\n        /* \"#utility.yul\":1095:1108   */\n      iszero\n        /* \"#utility.yul\":1088:1109   */\n      iszero\n        /* \"#utility.yul\":1077:1109   */\n      swap1\n      pop\n        /* \"#utility.yul\":1025:1115   */\n      swap2\n      swap1\n      pop\n      jump\t// out\n        /* \"#utility.yul\":1121:1230   */\n    tag_539:\n        /* \"#utility.yul\":1202:1223   */\n      tag_623\n        /* \"#utility.yul\":1217:1222   */\n      dup2\n        /* \"#utility.yul\":1202:1223   */\n      tag_538\n      jump\t// in\n    tag_623:\n        /* \"#utility.yul\":1197:1200   */\n      dup3\n        /* \"#utility.yul\":1190:1224   */\n      mstore\n        /* \"#utility.yul\":1121:1230   */\n      pop\n      pop\n      jump\t// out\n        /* \"#utility.yul\":1236:1446   */\n    tag_37:\n        /* \"#utility.yul\":1323:1327   */\n      0x00\n        /* \"#utility.yul\":1361:1363   */\n      0x20\n        /* \"#utility.yul\":1350:1359   */\n      dup3\n        /* \"#utility.yul\":1346:1364   */\n      add\n        /* \"#utility.yul\":1338:1364   */\n      swap1\n      pop\n        /* \"#utility.yul\":1374:1439   */\n      tag_625\n        /* \"#utility.yul\":1436:1437   */\n      0x00\n        /* \"#utility.yul\":1425:1434   */\n      dup4\n        /* \"#utility.yul\":1421:1438   */\n      add\n        /* \"#utility.yul\":1412:1418   */\n      dup5\n        /* \"#utility.yul\":1374:1439   */\n      tag_539\n      jump\t// in\n    tag_625:\n        /* \"#utility.yul\":1236:1446   */\n      swap3\n      swap2\n      pop\n      pop\n      jump\t// out\n        /* \"#utility.yul\":1452:1570   */\n    tag_540:\n        /* \"#utility.yul\":1539:1563   */\n      tag_627\n        /* \"#utility.yul\":1557:1562   */\n      dup2\n        /* \"#utility.yul\":1539:1563   */\n      tag_535\n      jump\t// in\n    tag_627:\n        /* \"#utility.yul\":1534:1537   */\n      dup3\n        /* \"#utility.yul\":1527:1564   */\n      mstore\n        /* \"#utility.yul\":1452:1570   */\n      pop\n      pop\n      jump\t// out\n        /* \"#utility.yul\":1576:1908   */\n    tag_45:\n        /* \"#utility.yul\":1697:1701   */\n      0x00\n        /* \"#utility.yul\":1735:1737   */\n      0x40\n        /* \"#utility.yul\":1724:1733   */\n      dup3\n        /* \"#utility.yul\":1720:1738   */\n      add\n        /* \"#utility.yul\":1712:1738   */\n      swap1\n      pop\n        /* \"#utility.yul\":1748:1819   */\n      tag_629\n        /* \"#utility.yul\":1816:1817   */\n      0x00\n        /* \"#utility.yul\":1805:1814   */\n      dup4\n        /* \"#utility.yul\":1801:1818   */\n      add\n        /* \"#utility.yul\":1792:1798   */\n      dup6\n        /* \"#utility.yul\":1748:1819   */\n      tag_540\n      jump\t// in\n    tag_629:\n        /* \"#utility.yul\":1829:1901   */\n      tag_630\n        /* \"#utility.yul\":1897:1899   */\n      0x20\n        /* \"#utility.yul\":1886:1895   */\n      dup4\n        /* \"#utility.yul\":1882:1900   */\n      add\n        /* \"#utility.yul\":1873:1879   */\n      dup5\n        /* \"#utility.yul\":1829:1901   */\n      tag_540\n      jump\t// in\n    tag_630:\n        /* \"#utility.yul\":1576:1908   */\n      swap4\n      swap3\n      pop\n      pop\n      pop\n      jump\t// out\n        /* \"#utility.yul\":1914:2136   */\n    tag_50:\n        /* \"#utility.yul\":2007:2011   */\n      0x00\n        /* \"#utility.yul\":2045:2047   */\n      0x20\n        /* \"#utility.yul\":2034:2043   */\n      dup3\n        /* \"#utility.yul\":2030:2048   */\n      add\n        /* \"#utility.yul\":2022:2048   */\n      swap1\n      pop\n        /* \"#utility.yul\":2058:2129   */\n      tag_632\n        /* \"#utility.yul\":2126:2127   */\n      0x00\n        /* \"#utility.yul\":2115:2124   */\n      dup4\n        /* \"#utility.yul\":2111:2128   */\n      add\n        /* \"#utility.yul\":2102:2108   */\n      dup5\n        /* \"#utility.yul\":2058:2129   */\n      tag_540\n      jump\t// in\n    tag_632:\n        /* \"#utility.yul\":1914:2136   */\n      swap3\n      swap2\n      pop\n      pop\n      jump\t// out\n        /* \"#utility.yul\":2142:2268   */\n    tag_541:\n        /* \"#utility.yul\":2179:2186   */\n      0x00\n        /* \"#utility.yul\":2219:2261   */\n      0xffffffffffffffffffffffffffffffffffffffff\n        /* \"#utility.yul\":2212:2217   */\n      dup3\n        /* \"#utility.yul\":2208:2262   */\n      and\n        /* \"#utility.yul\":2197:2262   */\n      swap1\n      pop\n        /* \"#utility.yul\":2142:2268   */\n      swap2\n      swap1\n      pop\n      jump\t// out\n        /* \"#utility.yul\":2274:2370   */\n    tag_542:\n        /* \"#utility.yul\":2311:2318   */\n      0x00\n        /* \"#utility.yul\":2340:2364   */\n      tag_635\n        /* \"#utility.yul\":2358:2363   */\n      dup3\n        /* \"#utility.yul\":2340:2364   */\n      tag_541\n      jump\t// in\n    tag_635:\n        /* \"#utility.yul\":2329:2364   */\n      swap1\n      pop\n        /* \"#utility.yul\":2274:2370   */\n      swap2\n      swap1\n      pop\n      jump\t// out\n        /* \"#utility.yul\":2376:2498   */\n    tag_543:\n        /* \"#utility.yul\":2449:2473   */\n      tag_637\n        /* \"#utility.yul\":2467:2472   */\n      dup2\n        /* \"#utility.yul\":2449:2473   */\n      tag_542\n      jump\t// in\n    tag_637:\n        /* \"#utility.yul\":2442:2447   */\n      dup2\n        /* \"#utility.yul\":2439:2474   */\n      eq\n        /* \"#utility.yul\":2429:2492   */\n      tag_638\n      jumpi\n        /* \"#utility.yul\":2488:2489   */\n      0x00\n        /* \"#utility.yul\":2485:2486   */\n      dup1\n        /* \"#utility.yul\":2478:2490   */\n      revert\n        /* \"#utility.yul\":2429:2492   */\n    tag_638:\n        /* \"#utility.yul\":2376:2498   */\n      pop\n      jump\t// out\n        /* \"#utility.yul\":2504:2643   */\n    tag_544:\n        /* \"#utility.yul\":2550:2555   */\n      0x00\n        /* \"#utility.yul\":2588:2594   */\n      dup2\n        /* \"#utility.yul\":2575:2595   */\n      calldataload\n        /* \"#utility.yul\":2566:2595   */\n      swap1\n      pop\n        /* \"#utility.yul\":2604:2637   */\n      tag_640\n        /* \"#utility.yul\":2631:2636   */\n      dup2\n        /* \"#utility.yul\":2604:2637   */\n      tag_543\n      jump\t// in\n    tag_640:\n        /* \"#utility.yul\":2504:2643   */\n      swap3\n      swap2\n      pop\n      pop\n      jump\t// out\n        /* \"#utility.yul\":2649:2978   */\n    tag_57:\n        /* \"#utility.yul\":2708:2714   */\n      0x00\n        /* \"#utility.yul\":2757:2759   */\n      0x20\n        /* \"#utility.yul\":2745:2754   */\n      dup3\n        /* \"#utility.yul\":2736:2743   */\n      dup5\n        /* \"#utility.yul\":2732:2755   */\n      sub\n        /* \"#utility.yul\":2728:2760   */\n      slt\n        /* \"#utility.yul\":2725:2844   */\n      iszero\n      tag_642\n      jumpi\n        /* \"#utility.yul\":2763:2842   */\n      tag_643\n      tag_533\n      jump\t// in\n    tag_643:\n        /* \"#utility.yul\":2725:2844   */\n    tag_642:\n        /* \"#utility.yul\":2883:2884   */\n      0x00\n        /* \"#utility.yul\":2908:2961   */\n      tag_644\n        /* \"#utility.yul\":2953:2960   */\n      dup5\n        /* \"#utility.yul\":2944:2950   */\n      dup3\n        /* \"#utility.yul\":2933:2942   */\n      dup6\n        /* \"#utility.yul\":2929:2951   */\n      add\n        /* \"#utility.yul\":2908:2961   */\n      tag_544\n      jump\t// in\n    tag_644:\n        /* \"#utility.yul\":2898:2961   */\n      swap2\n      pop\n        /* \"#utility.yul\":2854:2971   */\n      pop\n        /* \"#utility.yul\":2649:2978   */\n      swap3\n      swap2\n      pop\n      pop\n      jump\t// out\n        /* \"#utility.yul\":2984:3105   */\n    tag_545:\n        /* \"#utility.yul\":3079:3080   */\n      0x03\n        /* \"#utility.yul\":3072:3077   */\n      dup2\n        /* \"#utility.yul\":3069:3081   */\n      lt\n        /* \"#utility.yul\":3059:3099   */\n      tag_646\n      jumpi\n        /* \"#utility.yul\":3095:3096   */\n      0x00\n        /* \"#utility.yul\":3092:3093   */\n      dup1\n        /* \"#utility.yul\":3085:3097   */\n      revert\n        /* \"#utility.yul\":3059:3099   */\n    tag_646:\n        /* \"#utility.yul\":2984:3105   */\n      pop\n      jump\t// out\n        /* \"#utility.yul\":3111:3294   */\n    tag_546:\n        /* \"#utility.yul\":3179:3184   */\n      0x00\n        /* \"#utility.yul\":3217:3223   */\n      dup2\n        /* \"#utility.yul\":3204:3224   */\n      calldataload\n        /* \"#utility.yul\":3195:3224   */\n      swap1\n      pop\n        /* \"#utility.yul\":3233:3288   */\n      tag_648\n        /* \"#utility.yul\":3282:3287   */\n      dup2\n        /* \"#utility.yul\":3233:3288   */\n      tag_545\n      jump\t// in\n    tag_648:\n        /* \"#utility.yul\":3111:3294   */\n      swap3\n      swap2\n      pop\n      pop\n      jump\t// out\n        /* \"#utility.yul\":3300:3416   */\n    tag_547:\n        /* \"#utility.yul\":3370:3391   */\n      tag_650\n        /* \"#utility.yul\":3385:3390   */\n      dup2\n        /* \"#utility.yul\":3370:3391   */\n      tag_538\n      jump\t// in\n    tag_650:\n        /* \"#utility.yul\":3363:3368   */\n      dup2\n        /* \"#utility.yul\":3360:3392   */\n      eq\n        /* \"#utility.yul\":3350:3410   */\n      tag_651\n      jumpi\n        /* \"#utility.yul\":3406:3407   */\n      0x00\n        /* \"#utility.yul\":3403:3404   */\n      dup1\n        /* \"#utility.yul\":3396:3408   */\n      revert\n        /* \"#utility.yul\":3350:3410   */\n    tag_651:\n        /* \"#utility.yul\":3300:3416   */\n      pop\n      jump\t// out\n        /* \"#utility.yul\":3422:3555   */\n    tag_548:\n        /* \"#utility.yul\":3465:3470   */\n      0x00\n        /* \"#utility.yul\":3503:3509   */\n      dup2\n        /* \"#utility.yul\":3490:3510   */\n      calldataload\n        /* \"#utility.yul\":3481:3510   */\n      swap1\n      pop\n        /* \"#utility.yul\":3519:3549   */\n      tag_653\n        /* \"#utility.yul\":3543:3548   */\n      dup2\n        /* \"#utility.yul\":3519:3549   */\n      tag_547\n      jump\t// in\n    tag_653:\n        /* \"#utility.yul\":3422:3555   */\n      swap3\n      swap2\n      pop\n      pop\n      jump\t// out\n        /* \"#utility.yul\":3561:4948   */\n    tag_62:\n        /* \"#utility.yul\":3702:3708   */\n      0x00\n        /* \"#utility.yul\":3710:3716   */\n      dup1\n        /* \"#utility.yul\":3718:3724   */\n      0x00\n        /* \"#utility.yul\":3726:3732   */\n      dup1\n        /* \"#utility.yul\":3734:3740   */\n      0x00\n        /* \"#utility.yul\":3742:3748   */\n      dup1\n        /* \"#utility.yul\":3750:3756   */\n      0x00\n        /* \"#utility.yul\":3758:3764   */\n      dup1\n        /* \"#utility.yul\":3807:3810   */\n      0x0100\n        /* \"#utility.yul\":3795:3804   */\n      dup10\n        /* \"#utility.yul\":3786:3793   */\n      dup12\n        /* \"#utility.yul\":3782:3805   */\n      sub\n        /* \"#utility.yul\":3778:3811   */\n      slt\n        /* \"#utility.yul\":3775:3895   */\n      iszero\n      tag_655\n      jumpi\n        /* \"#utility.yul\":3814:3893   */\n      tag_656\n      tag_533\n      jump\t// in\n    tag_656:\n        /* \"#utility.yul\":3775:3895   */\n    tag_655:\n        /* \"#utility.yul\":3934:3935   */\n      0x00\n        /* \"#utility.yul\":3959:4034   */\n      tag_657\n        /* \"#utility.yul\":4026:4033   */\n      dup12\n        /* \"#utility.yul\":4017:4023   */\n      dup3\n        /* \"#utility.yul\":4006:4015   */\n      dup13\n        /* \"#utility.yul\":4002:4024   */\n      add\n        /* \"#utility.yul\":3959:4034   */\n      tag_546\n      jump\t// in\n    tag_657:\n        /* \"#utility.yul\":3949:4034   */\n      swap9\n      pop\n        /* \"#utility.yul\":3905:4044   */\n      pop\n        /* \"#utility.yul\":4083:4085   */\n      0x20\n        /* \"#utility.yul\":4109:4162   */\n      tag_658\n        /* \"#utility.yul\":4154:4161   */\n      dup12\n        /* \"#utility.yul\":4145:4151   */\n      dup3\n        /* \"#utility.yul\":4134:4143   */\n      dup13\n        /* \"#utility.yul\":4130:4152   */\n      add\n        /* \"#utility.yul\":4109:4162   */\n      tag_544\n      jump\t// in\n    tag_658:\n        /* \"#utility.yul\":4099:4162   */\n      swap8\n      pop\n        /* \"#utility.yul\":4054:4172   */\n      pop\n        /* \"#utility.yul\":4211:4213   */\n      0x40\n        /* \"#utility.yul\":4237:4290   */\n      tag_659\n        /* \"#utility.yul\":4282:4289   */\n      dup12\n        /* \"#utility.yul\":4273:4279   */\n      dup3\n        /* \"#utility.yul\":4262:4271   */\n      dup13\n        /* \"#utility.yul\":4258:4280   */\n      add\n        /* \"#utility.yul\":4237:4290   */\n      tag_544\n      jump\t// in\n    tag_659:\n        /* \"#utility.yul\":4227:4290   */\n      swap7\n      pop\n        /* \"#utility.yul\":4182:4300   */\n      pop\n        /* \"#utility.yul\":4339:4341   */\n      0x60\n        /* \"#utility.yul\":4365:4418   */\n      tag_660\n        /* \"#utility.yul\":4410:4417   */\n      dup12\n        /* \"#utility.yul\":4401:4407   */\n      dup3\n        /* \"#utility.yul\":4390:4399   */\n      dup13\n        /* \"#utility.yul\":4386:4408   */\n      add\n        /* \"#utility.yul\":4365:4418   */\n      tag_537\n      jump\t// in\n    tag_660:\n        /* \"#utility.yul\":4355:4418   */\n      swap6\n      pop\n        /* \"#utility.yul\":4310:4428   */\n      pop\n        /* \"#utility.yul\":4467:4470   */\n      0x80\n        /* \"#utility.yul\":4494:4547   */\n      tag_661\n        /* \"#utility.yul\":4539:4546   */\n      dup12\n        /* \"#utility.yul\":4530:4536   */\n      dup3\n        /* \"#utility.yul\":4519:4528   */\n      dup13\n        /* \"#utility.yul\":4515:4537   */\n      add\n        /* \"#utility.yul\":4494:4547   */\n      tag_537\n      jump\t// in\n    tag_661:\n        /* \"#utility.yul\":4484:4547   */\n      swap5\n      pop\n        /* \"#utility.yul\":4438:4557   */\n      pop\n        /* \"#utility.yul\":4596:4599   */\n      0xa0\n        /* \"#utility.yul\":4623:4676   */\n      tag_662\n        /* \"#utility.yul\":4668:4675   */\n      dup12\n        /* \"#utility.yul\":4659:4665   */\n      dup3\n        /* \"#utility.yul\":4648:4657   */\n      dup13\n        /* \"#utility.yul\":4644:4666   */\n      add\n        /* \"#utility.yul\":4623:4676   */\n      tag_537\n      jump\t// in\n    tag_662:\n        /* \"#utility.yul\":4613:4676   */\n      swap4\n      pop\n        /* \"#utility.yul\":4567:4686   */\n      pop\n        /* \"#utility.yul\":4725:4728   */\n      0xc0\n        /* \"#utility.yul\":4752:4802   */\n      tag_663\n        /* \"#utility.yul\":4794:4801   */\n      dup12\n        /* \"#utility.yul\":4785:4791   */\n      dup3\n        /* \"#utility.yul\":4774:4783   */\n      dup13\n        /* \"#utility.yul\":4770:4792   */\n      add\n        /* \"#utility.yul\":4752:4802   */\n      tag_548\n      jump\t// in\n    tag_663:\n        /* \"#utility.yul\":4742:4802   */\n      swap3\n      pop\n        /* \"#utility.yul\":4696:4812   */\n      pop\n        /* \"#utility.yul\":4851:4854   */\n      0xe0\n        /* \"#utility.yul\":4878:4931   */\n      tag_664\n        /* \"#utility.yul\":4923:4930   */\n      dup12\n        /* \"#utility.yul\":4914:4920   */\n      dup3\n        /* \"#utility.yul\":4903:4912   */\n      dup13\n        /* \"#utility.yul\":4899:4921   */\n      add\n        /* \"#utility.yul\":4878:4931   */\n      tag_544\n      jump\t// in\n    tag_664:\n        /* \"#utility.yul\":4868:4931   */\n      swap2\n      pop\n        /* \"#utility.yul\":4822:4941   */\n      pop\n        /* \"#utility.yul\":3561:4948   */\n      swap3\n      swap6\n      swap9\n      pop\n      swap3\n      swap6\n      swap9\n      swap1\n      swap4\n      swap7\n      pop\n      jump\t// out\n        /* \"#utility.yul\":4954:5072   */\n    tag_549:\n        /* \"#utility.yul\":5041:5065   */\n      tag_666\n        /* \"#utility.yul\":5059:5064   */\n      dup2\n        /* \"#utility.yul\":5041:5065   */\n      tag_542\n      jump\t// in\n    tag_666:\n        /* \"#utility.yul\":5036:5039   */\n      dup3\n        /* \"#utility.yul\":5029:5066   */\n      mstore\n        /* \"#utility.yul\":4954:5072   */\n      pop\n      pop\n      jump\t// out\n        /* \"#utility.yul\":5078:5300   */\n    tag_72:\n        /* \"#utility.yul\":5171:5175   */\n      0x00\n        /* \"#utility.yul\":5209:5211   */\n      0x20\n        /* \"#utility.yul\":5198:5207   */\n      dup3\n        /* \"#utility.yul\":5194:5212   */\n      add\n        /* \"#utility.yul\":5186:5212   */\n      swap1\n      pop\n        /* \"#utility.yul\":5222:5293   */\n      tag_668\n        /* \"#utility.yul\":5290:5291   */\n      0x00\n        /* \"#utility.yul\":5279:5288   */\n      dup4\n        /* \"#utility.yul\":5275:5292   */\n      add\n        /* \"#utility.yul\":5266:5272   */\n      dup5\n        /* \"#utility.yul\":5222:5293   */\n      tag_549\n      jump\t// in\n    tag_668:\n        /* \"#utility.yul\":5078:5300   */\n      swap3\n      swap2\n      pop\n      pop\n      jump\t// out\n        /* \"#utility.yul\":5306:5638   */\n    tag_80:\n        /* \"#utility.yul\":5427:5431   */\n      0x00\n        /* \"#utility.yul\":5465:5467   */\n      0x40\n        /* \"#utility.yul\":5454:5463   */\n      dup3\n        /* \"#utility.yul\":5450:5468   */\n      add\n        /* \"#utility.yul\":5442:5468   */\n      swap1\n      pop\n        /* \"#utility.yul\":5478:5549   */\n      tag_670\n        /* \"#utility.yul\":5546:5547   */\n      0x00\n        /* \"#utility.yul\":5535:5544   */\n      dup4\n        /* \"#utility.yul\":5531:5548   */\n      add\n        /* \"#utility.yul\":5522:5528   */\n      dup6\n        /* \"#utility.yul\":5478:5549   */\n      tag_549\n      jump\t// in\n    tag_670:\n        /* \"#utility.yul\":5559:5631   */\n      tag_671\n        /* \"#utility.yul\":5627:5629   */\n      0x20\n        /* \"#utility.yul\":5616:5625   */\n      dup4\n        /* \"#utility.yul\":5612:5630   */\n      add\n        /* \"#utility.yul\":5603:5609   */\n      dup5\n        /* \"#utility.yul\":5559:5631   */\n      tag_549\n      jump\t// in\n    tag_671:\n        /* \"#utility.yul\":5306:5638   */\n      swap4\n      swap3\n      pop\n      pop\n      pop\n      jump\t// out\n        /* \"#utility.yul\":5644:5758   */\n    tag_550:\n        /* \"#utility.yul\":5711:5717   */\n      0x00\n        /* \"#utility.yul\":5745:5750   */\n      dup2\n        /* \"#utility.yul\":5739:5751   */\n      mload\n        /* \"#utility.yul\":5729:5751   */\n      swap1\n      pop\n        /* \"#utility.yul\":5644:5758   */\n      swap2\n      swap1\n      pop\n      jump\t// out\n        /* \"#utility.yul\":5764:5948   */\n    tag_551:\n        /* \"#utility.yul\":5863:5874   */\n      0x00\n        /* \"#utility.yul\":5897:5903   */\n      dup3\n        /* \"#utility.yul\":5892:5895   */\n      dup3\n        /* \"#utility.yul\":5885:5904   */\n      mstore\n        /* \"#utility.yul\":5937:5941   */\n      0x20\n        /* \"#utility.yul\":5932:5935   */\n      dup3\n        /* \"#utility.yul\":5928:5942   */\n      add\n        /* \"#utility.yul\":5913:5942   */\n      swap1\n      pop\n        /* \"#utility.yul\":5764:5948   */\n      swap3\n      swap2\n      pop\n      pop\n      jump\t// out\n        /* \"#utility.yul\":5954:6086   */\n    tag_552:\n        /* \"#utility.yul\":6021:6025   */\n      0x00\n        /* \"#utility.yul\":6044:6047   */\n      dup2\n        /* \"#utility.yul\":6036:6047   */\n      swap1\n      pop\n        /* \"#utility.yul\":6074:6078   */\n      0x20\n        /* \"#utility.yul\":6069:6072   */\n      dup3\n        /* \"#utility.yul\":6065:6079   */\n      add\n        /* \"#utility.yul\":6057:6079   */\n      swap1\n      pop\n        /* \"#utility.yul\":5954:6086   */\n      swap2\n      swap1\n      pop\n      jump\t// out\n        /* \"#utility.yul\":6092:6200   */\n    tag_553:\n        /* \"#utility.yul\":6169:6193   */\n      tag_676\n        /* \"#utility.yul\":6187:6192   */\n      dup2\n        /* \"#utility.yul\":6169:6193   */\n      tag_542\n      jump\t// in\n    tag_676:\n        /* \"#utility.yul\":6164:6167   */\n      dup3\n        /* \"#utility.yul\":6157:6194   */\n      mstore\n        /* \"#utility.yul\":6092:6200   */\n      pop\n      pop\n      jump\t// out\n        /* \"#utility.yul\":6206:6385   */\n    tag_554:\n        /* \"#utility.yul\":6275:6285   */\n      0x00\n        /* \"#utility.yul\":6296:6342   */\n      tag_678\n        /* \"#utility.yul\":6338:6341   */\n      dup4\n        /* \"#utility.yul\":6330:6336   */\n      dup4\n        /* \"#utility.yul\":6296:6342   */\n      tag_553\n      jump\t// in\n    tag_678:\n        /* \"#utility.yul\":6374:6378   */\n      0x20\n        /* \"#utility.yul\":6369:6372   */\n      dup4\n        /* \"#utility.yul\":6365:6379   */\n      add\n        /* \"#utility.yul\":6351:6379   */\n      swap1\n      pop\n        /* \"#utility.yul\":6206:6385   */\n      swap3\n      swap2\n      pop\n      pop\n      jump\t// out\n        /* \"#utility.yul\":6391:6504   */\n    tag_555:\n        /* \"#utility.yul\":6461:6465   */\n      0x00\n        /* \"#utility.yul\":6493:6497   */\n      0x20\n        /* \"#utility.yul\":6488:6491   */\n      dup3\n        /* \"#utility.yul\":6484:6498   */\n      add\n        /* \"#utility.yul\":6476:6498   */\n      swap1\n      pop\n        /* \"#utility.yul\":6391:6504   */\n      swap2\n      swap1\n      pop\n      jump\t// out\n        /* \"#utility.yul\":6540:7272   */\n    tag_556:\n        /* \"#utility.yul\":6659:6662   */\n      0x00\n        /* \"#utility.yul\":6688:6742   */\n      tag_681\n        /* \"#utility.yul\":6736:6741   */\n      dup3\n        /* \"#utility.yul\":6688:6742   */\n      tag_550\n      jump\t// in\n    tag_681:\n        /* \"#utility.yul\":6758:6844   */\n      tag_682\n        /* \"#utility.yul\":6837:6843   */\n      dup2\n        /* \"#utility.yul\":6832:6835   */\n      dup6\n        /* \"#utility.yul\":6758:6844   */\n      tag_551\n      jump\t// in\n    tag_682:\n        /* \"#utility.yul\":6751:6844   */\n      swap4\n      pop\n        /* \"#utility.yul\":6868:6924   */\n      tag_683\n        /* \"#utility.yul\":6918:6923   */\n      dup4\n        /* \"#utility.yul\":6868:6924   */\n      tag_552\n      jump\t// in\n    tag_683:\n        /* \"#utility.yul\":6947:6954   */\n      dup1\n        /* \"#utility.yul\":6978:6979   */\n      0x00\n        /* \"#utility.yul\":6963:7247   */\n    tag_684:\n        /* \"#utility.yul\":6988:6994   */\n      dup4\n        /* \"#utility.yul\":6985:6986   */\n      dup2\n        /* \"#utility.yul\":6982:6995   */\n      lt\n        /* \"#utility.yul\":6963:7247   */\n      iszero\n      tag_686\n      jumpi\n        /* \"#utility.yul\":7064:7070   */\n      dup2\n        /* \"#utility.yul\":7058:7071   */\n      mload\n        /* \"#utility.yul\":7091:7154   */\n      tag_687\n        /* \"#utility.yul\":7150:7153   */\n      dup9\n        /* \"#utility.yul\":7135:7148   */\n      dup3\n        /* \"#utility.yul\":7091:7154   */\n      tag_554\n      jump\t// in\n    tag_687:\n        /* \"#utility.yul\":7084:7154   */\n      swap8\n      pop\n        /* \"#utility.yul\":7177:7237   */\n      tag_688\n        /* \"#utility.yul\":7230:7236   */\n      dup4\n        /* \"#utility.yul\":7177:7237   */\n      tag_555\n      jump\t// in\n    tag_688:\n        /* \"#utility.yul\":7167:7237   */\n      swap3\n      pop\n        /* \"#utility.yul\":7023:7247   */\n      pop\n        /* \"#utility.yul\":7010:7011   */\n      0x01\n        /* \"#utility.yul\":7007:7008   */\n      dup2\n        /* \"#utility.yul\":7003:7012   */\n      add\n        /* \"#utility.yul\":6998:7012   */\n      swap1\n      pop\n        /* \"#utility.yul\":6963:7247   */\n      jump(tag_684)\n    tag_686:\n        /* \"#utility.yul\":6967:6981   */\n      pop\n        /* \"#utility.yul\":7263:7266   */\n      dup6\n        /* \"#utility.yul\":7256:7266   */\n      swap4\n      pop\n        /* \"#utility.yul\":6664:7272   */\n      pop\n      pop\n      pop\n        /* \"#utility.yul\":6540:7272   */\n      swap3\n      swap2\n      pop\n      pop\n      jump\t// out\n        /* \"#utility.yul\":7278:7392   */\n    tag_557:\n        /* \"#utility.yul\":7345:7351   */\n      0x00\n        /* \"#utility.yul\":7379:7384   */\n      dup2\n        /* \"#utility.yul\":7373:7385   */\n      mload\n        /* \"#utility.yul\":7363:7385   */\n      swap1\n      pop\n        /* \"#utility.yul\":7278:7392   */\n      swap2\n      swap1\n      pop\n      jump\t// out\n        /* \"#utility.yul\":7398:7582   */\n    tag_558:\n        /* \"#utility.yul\":7497:7508   */\n      0x00\n        /* \"#utility.yul\":7531:7537   */\n      dup3\n        /* \"#utility.yul\":7526:7529   */\n      dup3\n        /* \"#utility.yul\":7519:7538   */\n      mstore\n        /* \"#utility.yul\":7571:7575   */\n      0x20\n        /* \"#utility.yul\":7566:7569   */\n      dup3\n        /* \"#utility.yul\":7562:7576   */\n      add\n        /* \"#utility.yul\":7547:7576   */\n      swap1\n      pop\n        /* \"#utility.yul\":7398:7582   */\n      swap3\n      swap2\n      pop\n      pop\n      jump\t// out\n        /* \"#utility.yul\":7588:7720   */\n    tag_559:\n        /* \"#utility.yul\":7655:7659   */\n      0x00\n        /* \"#utility.yul\":7678:7681   */\n      dup2\n        /* \"#utility.yul\":7670:7681   */\n      swap1\n      pop\n        /* \"#utility.yul\":7708:7712   */\n      0x20\n        /* \"#utility.yul\":7703:7706   */\n      dup3\n        /* \"#utility.yul\":7699:7713   */\n      add\n        /* \"#utility.yul\":7691:7713   */\n      swap1\n      pop\n        /* \"#utility.yul\":7588:7720   */\n      swap2\n      swap1\n      pop\n      jump\t// out\n        /* \"#utility.yul\":7726:7834   */\n    tag_560:\n        /* \"#utility.yul\":7803:7827   */\n      tag_693\n        /* \"#utility.yul\":7821:7826   */\n      dup2\n        /* \"#utility.yul\":7803:7827   */\n      tag_535\n      jump\t// in\n    tag_693:\n        /* \"#utility.yul\":7798:7801   */\n      dup3\n        /* \"#utility.yul\":7791:7828   */\n      mstore\n        /* \"#utility.yul\":7726:7834   */\n      pop\n      pop\n      jump\t// out\n        /* \"#utility.yul\":7840:8019   */\n    tag_561:\n        /* \"#utility.yul\":7909:7919   */\n      0x00\n        /* \"#utility.yul\":7930:7976   */\n      tag_695\n        /* \"#utility.yul\":7972:7975   */\n      dup4\n        /* \"#utility.yul\":7964:7970   */\n      dup4\n        /* \"#utility.yul\":7930:7976   */\n      tag_560\n      jump\t// in\n    tag_695:\n        /* \"#utility.yul\":8008:8012   */\n      0x20\n        /* \"#utility.yul\":8003:8006   */\n      dup4\n        /* \"#utility.yul\":7999:8013   */\n      add\n        /* \"#utility.yul\":7985:8013   */\n      swap1\n      pop\n        /* \"#utility.yul\":7840:8019   */\n      swap3\n      swap2\n      pop\n      pop\n      jump\t// out\n        /* \"#utility.yul\":8025:8138   */\n    tag_562:\n        /* \"#utility.yul\":8095:8099   */\n      0x00\n        /* \"#utility.yul\":8127:8131   */\n      0x20\n        /* \"#utility.yul\":8122:8125   */\n      dup3\n        /* \"#utility.yul\":8118:8132   */\n      add\n        /* \"#utility.yul\":8110:8132   */\n      swap1\n      pop\n        /* \"#utility.yul\":8025:8138   */\n      swap2\n      swap1\n      pop\n      jump\t// out\n        /* \"#utility.yul\":8174:8906   */\n    tag_563:\n        /* \"#utility.yul\":8293:8296   */\n      0x00\n        /* \"#utility.yul\":8322:8376   */\n      tag_698\n        /* \"#utility.yul\":8370:8375   */\n      dup3\n        /* \"#utility.yul\":8322:8376   */\n      tag_557\n      jump\t// in\n    tag_698:\n        /* \"#utility.yul\":8392:8478   */\n      tag_699\n        /* \"#utility.yul\":8471:8477   */\n      dup2\n        /* \"#utility.yul\":8466:8469   */\n      dup6\n        /* \"#utility.yul\":8392:8478   */\n      tag_558\n      jump\t// in\n    tag_699:\n        /* \"#utility.yul\":8385:8478   */\n      swap4\n      pop\n        /* \"#utility.yul\":8502:8558   */\n      tag_700\n        /* \"#utility.yul\":8552:8557   */\n      dup4\n        /* \"#utility.yul\":8502:8558   */\n      tag_559\n      jump\t// in\n    tag_700:\n        /* \"#utility.yul\":8581:8588   */\n      dup1\n        /* \"#utility.yul\":8612:8613   */\n      0x00\n        /* \"#utility.yul\":8597:8881   */\n    tag_701:\n        /* \"#utility.yul\":8622:8628   */\n      dup4\n        /* \"#utility.yul\":8619:8620   */\n      dup2\n        /* \"#utility.yul\":8616:8629   */\n      lt\n        /* \"#utility.yul\":8597:8881   */\n      iszero\n      tag_703\n      jumpi\n        /* \"#utility.yul\":8698:8704   */\n      dup2\n        /* \"#utility.yul\":8692:8705   */\n      mload\n        /* \"#utility.yul\":8725:8788   */\n      tag_704\n        /* \"#utility.yul\":8784:8787   */\n      dup9\n        /* \"#utility.yul\":8769:8782   */\n      dup3\n        /* \"#utility.yul\":8725:8788   */\n      tag_561\n      jump\t// in\n    tag_704:\n        /* \"#utility.yul\":8718:8788   */\n      swap8\n      pop\n        /* \"#utility.yul\":8811:8871   */\n      tag_705\n        /* \"#utility.yul\":8864:8870   */\n      dup4\n        /* \"#utility.yul\":8811:8871   */\n      tag_562\n      jump\t// in\n    tag_705:\n        /* \"#utility.yul\":8801:8871   */\n      swap3\n      pop\n        /* \"#utility.yul\":8657:8881   */\n      pop\n        /* \"#utility.yul\":8644:8645   */\n      0x01\n        /* \"#utility.yul\":8641:8642   */\n      dup2\n        /* \"#utility.yul\":8637:8646   */\n      add\n        /* \"#utility.yul\":8632:8646   */\n      swap1\n      pop\n        /* \"#utility.yul\":8597:8881   */\n      jump(tag_701)\n    tag_703:\n        /* \"#utility.yul\":8601:8615   */\n      pop\n        /* \"#utility.yul\":8897:8900   */\n      dup6\n        /* \"#utility.yul\":8890:8900   */\n      swap4\n      pop\n        /* \"#utility.yul\":8298:8906   */\n      pop\n      pop\n      pop\n        /* \"#utility.yul\":8174:8906   */\n      swap3\n      swap2\n      pop\n      pop\n      jump\t// out\n        /* \"#utility.yul\":8912:9807   */\n    tag_99:\n        /* \"#utility.yul\":9211:9215   */\n      0x00\n        /* \"#utility.yul\":9249:9251   */\n      0x60\n        /* \"#utility.yul\":9238:9247   */\n      dup3\n        /* \"#utility.yul\":9234:9252   */\n      add\n        /* \"#utility.yul\":9226:9252   */\n      swap1\n      pop\n        /* \"#utility.yul\":9298:9307   */\n      dup2\n        /* \"#utility.yul\":9292:9296   */\n      dup2\n        /* \"#utility.yul\":9288:9308   */\n      sub\n        /* \"#utility.yul\":9284:9285   */\n      0x00\n        /* \"#utility.yul\":9273:9282   */\n      dup4\n        /* \"#utility.yul\":9269:9286   */\n      add\n        /* \"#utility.yul\":9262:9309   */\n      mstore\n        /* \"#utility.yul\":9326:9434   */\n      tag_707\n        /* \"#utility.yul\":9429:9433   */\n      dup2\n        /* \"#utility.yul\":9420:9426   */\n      dup7\n        /* \"#utility.yul\":9326:9434   */\n      tag_556\n      jump\t// in\n    tag_707:\n        /* \"#utility.yul\":9318:9434   */\n      swap1\n      pop\n        /* \"#utility.yul\":9481:9490   */\n      dup2\n        /* \"#utility.yul\":9475:9479   */\n      dup2\n        /* \"#utility.yul\":9471:9491   */\n      sub\n        /* \"#utility.yul\":9466:9468   */\n      0x20\n        /* \"#utility.yul\":9455:9464   */\n      dup4\n        /* \"#utility.yul\":9451:9469   */\n      add\n        /* \"#utility.yul\":9444:9492   */\n      mstore\n        /* \"#utility.yul\":9509:9617   */\n      tag_708\n        /* \"#utility.yul\":9612:9616   */\n      dup2\n        /* \"#utility.yul\":9603:9609   */\n      dup6\n        /* \"#utility.yul\":9509:9617   */\n      tag_563\n      jump\t// in\n    tag_708:\n        /* \"#utility.yul\":9501:9617   */\n      swap1\n      pop\n        /* \"#utility.yul\":9664:9673   */\n      dup2\n        /* \"#utility.yul\":9658:9662   */\n      dup2\n        /* \"#utility.yul\":9654:9674   */\n      sub\n        /* \"#utility.yul\":9649:9651   */\n      0x40\n        /* \"#utility.yul\":9638:9647   */\n      dup4\n        /* \"#utility.yul\":9634:9652   */\n      add\n        /* \"#utility.yul\":9627:9675   */\n      mstore\n        /* \"#utility.yul\":9692:9800   */\n      tag_709\n        /* \"#utility.yul\":9795:9799   */\n      dup2\n        /* \"#utility.yul\":9786:9792   */\n      dup5\n        /* \"#utility.yul\":9692:9800   */\n      tag_563\n      jump\t// in\n    tag_709:\n        /* \"#utility.yul\":9684:9800   */\n      swap1\n      pop\n        /* \"#utility.yul\":8912:9807   */\n      swap5\n      swap4\n      pop\n      pop\n      pop\n      pop\n      jump\t// out\n        /* \"#utility.yul\":9813:9982   */\n    tag_564:\n        /* \"#utility.yul\":9897:9908   */\n      0x00\n        /* \"#utility.yul\":9931:9937   */\n      dup3\n        /* \"#utility.yul\":9926:9929   */\n      dup3\n        /* \"#utility.yul\":9919:9938   */\n      mstore\n        /* \"#utility.yul\":9971:9975   */\n      0x20\n        /* \"#utility.yul\":9966:9969   */\n      dup3\n        /* \"#utility.yul\":9962:9976   */\n      add\n        /* \"#utility.yul\":9947:9976   */\n      swap1\n      pop\n        /* \"#utility.yul\":9813:9982   */\n      swap3\n      swap2\n      pop\n      pop\n      jump\t// out\n        /* \"#utility.yul\":9988:10160   */\n    tag_565:\n        /* \"#utility.yul\":10128:10152   */\n      0x537943726f774261727465723a20494e41435449564500000000000000000000\n        /* \"#utility.yul\":10124:10125   */\n      0x00\n        /* \"#utility.yul\":10116:10122   */\n      dup3\n        /* \"#utility.yul\":10112:10126   */\n      add\n        /* \"#utility.yul\":10105:10153   */\n      mstore\n        /* \"#utility.yul\":9988:10160   */\n      pop\n      jump\t// out\n        /* \"#utility.yul\":10166:10532   */\n    tag_566:\n        /* \"#utility.yul\":10308:10311   */\n      0x00\n        /* \"#utility.yul\":10329:10396   */\n      tag_713\n        /* \"#utility.yul\":10393:10395   */\n      0x16\n        /* \"#utility.yul\":10388:10391   */\n      dup4\n        /* \"#utility.yul\":10329:10396   */\n      tag_564\n      jump\t// in\n    tag_713:\n        /* \"#utility.yul\":10322:10396   */\n      swap2\n      pop\n        /* \"#utility.yul\":10405:10498   */\n      tag_714\n        /* \"#utility.yul\":10494:10497   */\n      dup3\n        /* \"#utility.yul\":10405:10498   */\n      tag_565\n      jump\t// in\n    tag_714:\n        /* \"#utility.yul\":10523:10525   */\n      0x20\n        /* \"#utility.yul\":10518:10521   */\n      dup3\n        /* \"#utility.yul\":10514:10526   */\n      add\n        /* \"#utility.yul\":10507:10526   */\n      swap1\n      pop\n        /* \"#utility.yul\":10166:10532   */\n      swap2\n      swap1\n      pop\n      jump\t// out\n        /* \"#utility.yul\":10538:10957   */\n    tag_108:\n        /* \"#utility.yul\":10704:10708   */\n      0x00\n        /* \"#utility.yul\":10742:10744   */\n      0x20\n        /* \"#utility.yul\":10731:10740   */\n      dup3\n        /* \"#utility.yul\":10727:10745   */\n      add\n        /* \"#utility.yul\":10719:10745   */\n      swap1\n      pop\n        /* \"#utility.yul\":10791:10800   */\n      dup2\n        /* \"#utility.yul\":10785:10789   */\n      dup2\n        /* \"#utility.yul\":10781:10801   */\n      sub\n        /* \"#utility.yul\":10777:10778   */\n      0x00\n        /* \"#utility.yul\":10766:10775   */\n      dup4\n        /* \"#utility.yul\":10762:10779   */\n      add\n        /* \"#utility.yul\":10755:10802   */\n      mstore\n        /* \"#utility.yul\":10819:10950   */\n      tag_716\n        /* \"#utility.yul\":10945:10949   */\n      dup2\n        /* \"#utility.yul\":10819:10950   */\n      tag_566\n      jump\t// in\n    tag_716:\n        /* \"#utility.yul\":10811:10950   */\n      swap1\n      pop\n        /* \"#utility.yul\":10538:10957   */\n      swap2\n      swap1\n      pop\n      jump\t// out\n        /* \"#utility.yul\":10963:11142   */\n    tag_567:\n        /* \"#utility.yul\":11103:11134   */\n      0x537943726f774261727465723a204e4f545f494e495449414c495a4544000000\n        /* \"#utility.yul\":11099:11100   */\n      0x00\n        /* \"#utility.yul\":11091:11097   */\n      dup3\n        /* \"#utility.yul\":11087:11101   */\n      add\n        /* \"#utility.yul\":11080:11135   */\n      mstore\n        /* \"#utility.yul\":10963:11142   */\n      pop\n      jump\t// out\n        /* \"#utility.yul\":11148:11514   */\n    tag_568:\n        /* \"#utility.yul\":11290:11293   */\n      0x00\n        /* \"#utility.yul\":11311:11378   */\n      tag_719\n        /* \"#utility.yul\":11375:11377   */\n      0x1d\n        /* \"#utility.yul\":11370:11373   */\n      dup4\n        /* \"#utility.yul\":11311:11378   */\n      tag_564\n      jump\t// in\n    tag_719:\n        /* \"#utility.yul\":11304:11378   */\n      swap2\n      pop\n        /* \"#utility.yul\":11387:11480   */\n      tag_720\n        /* \"#utility.yul\":11476:11479   */\n      dup3\n        /* \"#utility.yul\":11387:11480   */\n      tag_567\n      jump\t// in\n    tag_720:\n        /* \"#utility.yul\":11505:11507   */\n      0x20\n        /* \"#utility.yul\":11500:11503   */\n      dup3\n        /* \"#utility.yul\":11496:11508   */\n      add\n        /* \"#utility.yul\":11489:11508   */\n      swap1\n      pop\n        /* \"#utility.yul\":11148:11514   */\n      swap2\n      swap1\n      pop\n      jump\t// out\n        /* \"#utility.yul\":11520:11939   */\n    tag_112:\n        /* \"#utility.yul\":11686:11690   */\n      0x00\n        /* \"#utility.yul\":11724:11726   */\n      0x20\n        /* \"#utility.yul\":11713:11722   */\n      dup3\n        /* \"#utility.yul\":11709:11727   */\n      add\n        /* \"#utility.yul\":11701:11727   */\n      swap1\n      pop\n        /* \"#utility.yul\":11773:11782   */\n      dup2\n        /* \"#utility.yul\":11767:11771   */\n      dup2\n        /* \"#utility.yul\":11763:11783   */\n      sub\n        /* \"#utility.yul\":11759:11760   */\n      0x00\n        /* \"#utility.yul\":11748:11757   */\n      dup4\n        /* \"#utility.yul\":11744:11761   */\n      add\n        /* \"#utility.yul\":11737:11784   */\n      mstore\n        /* \"#utility.yul\":11801:11932   */\n      tag_722\n        /* \"#utility.yul\":11927:11931   */\n      dup2\n        /* \"#utility.yul\":11801:11932   */\n      tag_568\n      jump\t// in\n    tag_722:\n        /* \"#utility.yul\":11793:11932   */\n      swap1\n      pop\n        /* \"#utility.yul\":11520:11939   */\n      swap2\n      swap1\n      pop\n      jump\t// out\n        /* \"#utility.yul\":11945:12082   */\n    tag_569:\n        /* \"#utility.yul\":11999:12004   */\n      0x00\n        /* \"#utility.yul\":12030:12036   */\n      dup2\n        /* \"#utility.yul\":12024:12037   */\n      mload\n        /* \"#utility.yul\":12015:12037   */\n      swap1\n      pop\n        /* \"#utility.yul\":12046:12076   */\n      tag_724\n        /* \"#utility.yul\":12070:12075   */\n      dup2\n        /* \"#utility.yul\":12046:12076   */\n      tag_547\n      jump\t// in\n    tag_724:\n        /* \"#utility.yul\":11945:12082   */\n      swap3\n      swap2\n      pop\n      pop\n      jump\t// out\n        /* \"#utility.yul\":12088:12433   */\n    tag_117:\n        /* \"#utility.yul\":12155:12161   */\n      0x00\n        /* \"#utility.yul\":12204:12206   */\n      0x20\n        /* \"#utility.yul\":12192:12201   */\n      dup3\n        /* \"#utility.yul\":12183:12190   */\n      dup5\n        /* \"#utility.yul\":12179:12202   */\n      sub\n        /* \"#utility.yul\":12175:12207   */\n      slt\n        /* \"#utility.yul\":12172:12291   */\n      iszero\n      tag_726\n      jumpi\n        /* \"#utility.yul\":12210:12289   */\n      tag_727\n      tag_533\n      jump\t// in\n    tag_727:\n        /* \"#utility.yul\":12172:12291   */\n    tag_726:\n        /* \"#utility.yul\":12330:12331   */\n      0x00\n        /* \"#utility.yul\":12355:12416   */\n      tag_728\n        /* \"#utility.yul\":12408:12415   */\n      dup5\n        /* \"#utility.yul\":12399:12405   */\n      dup3\n        /* \"#utility.yul\":12388:12397   */\n      dup6\n        /* \"#utility.yul\":12384:12406   */\n      add\n        /* \"#utility.yul\":12355:12416   */\n      tag_569\n      jump\t// in\n    tag_728:\n        /* \"#utility.yul\":12345:12416   */\n      swap2\n      pop\n        /* \"#utility.yul\":12301:12426   */\n      pop\n        /* \"#utility.yul\":12088:12433   */\n      swap3\n      swap2\n      pop\n      pop\n      jump\t// out\n        /* \"#utility.yul\":12439:12660   */\n    tag_570:\n        /* \"#utility.yul\":12579:12613   */\n      0x537943726f774261727465723a204261736520436f6e74726163742050617573\n        /* \"#utility.yul\":12575:12576   */\n      0x00\n        /* \"#utility.yul\":12567:12573   */\n      dup3\n        /* \"#utility.yul\":12563:12577   */\n      add\n        /* \"#utility.yul\":12556:12614   */\n      mstore\n        /* \"#utility.yul\":12648:12652   */\n      0x6564000000000000000000000000000000000000000000000000000000000000\n        /* \"#utility.yul\":12643:12645   */\n      0x20\n        /* \"#utility.yul\":12635:12641   */\n      dup3\n        /* \"#utility.yul\":12631:12646   */\n      add\n        /* \"#utility.yul\":12624:12653   */\n      mstore\n        /* \"#utility.yul\":12439:12660   */\n      pop\n      jump\t// out\n        /* \"#utility.yul\":12666:13032   */\n    tag_571:\n        /* \"#utility.yul\":12808:12811   */\n      0x00\n        /* \"#utility.yul\":12829:12896   */\n      tag_731\n        /* \"#utility.yul\":12893:12895   */\n      0x22\n        /* \"#utility.yul\":12888:12891   */\n      dup4\n        /* \"#utility.yul\":12829:12896   */\n      tag_564\n      jump\t// in\n    tag_731:\n        /* \"#utility.yul\":12822:12896   */\n      swap2\n      pop\n        /* \"#utility.yul\":12905:12998   */\n      tag_732\n        /* \"#utility.yul\":12994:12997   */\n      dup3\n        /* \"#utility.yul\":12905:12998   */\n      tag_570\n      jump\t// in\n    tag_732:\n        /* \"#utility.yul\":13023:13025   */\n      0x40\n        /* \"#utility.yul\":13018:13021   */\n      dup3\n        /* \"#utility.yul\":13014:13026   */\n      add\n        /* \"#utility.yul\":13007:13026   */\n      swap1\n      pop\n        /* \"#utility.yul\":12666:13032   */\n      swap2\n      swap1\n      pop\n      jump\t// out\n        /* \"#utility.yul\":13038:13457   */\n    tag_120:\n        /* \"#utility.yul\":13204:13208   */\n      0x00\n        /* \"#utility.yul\":13242:13244   */\n      0x20\n        /* \"#utility.yul\":13231:13240   */\n      dup3\n        /* \"#utility.yul\":13227:13245   */\n      add\n        /* \"#utility.yul\":13219:13245   */\n      swap1\n      pop\n        /* \"#utility.yul\":13291:13300   */\n      dup2\n        /* \"#utility.yul\":13285:13289   */\n      dup2\n        /* \"#utility.yul\":13281:13301   */\n      sub\n        /* \"#utility.yul\":13277:13278   */\n      0x00\n        /* \"#utility.yul\":13266:13275   */\n      dup4\n        /* \"#utility.yul\":13262:13279   */\n      add\n        /* \"#utility.yul\":13255:13302   */\n      mstore\n        /* \"#utility.yul\":13319:13450   */\n      tag_734\n        /* \"#utility.yul\":13445:13449   */\n      dup2\n        /* \"#utility.yul\":13319:13450   */\n      tag_571\n      jump\t// in\n    tag_734:\n        /* \"#utility.yul\":13311:13450   */\n      swap1\n      pop\n        /* \"#utility.yul\":13038:13457   */\n      swap2\n      swap1\n      pop\n      jump\t// out\n        /* \"#utility.yul\":13463:13687   */\n    tag_572:\n        /* \"#utility.yul\":13603:13637   */\n      0x537943726f774261727465723a204d554c54495f54524144455f4e4f545f454e\n        /* \"#utility.yul\":13599:13600   */\n      0x00\n        /* \"#utility.yul\":13591:13597   */\n      dup3\n        /* \"#utility.yul\":13587:13601   */\n      add\n        /* \"#utility.yul\":13580:13638   */\n      mstore\n        /* \"#utility.yul\":13672:13679   */\n      0x41424c4544000000000000000000000000000000000000000000000000000000\n        /* \"#utility.yul\":13667:13669   */\n      0x20\n        /* \"#utility.yul\":13659:13665   */\n      dup3\n        /* \"#utility.yul\":13655:13670   */\n      add\n        /* \"#utility.yul\":13648:13680   */\n      mstore\n        /* \"#utility.yul\":13463:13687   */\n      pop\n      jump\t// out\n        /* \"#utility.yul\":13693:14059   */\n    tag_573:\n        /* \"#utility.yul\":13835:13838   */\n      0x00\n        /* \"#utility.yul\":13856:13923   */\n      tag_737\n        /* \"#utility.yul\":13920:13922   */\n      0x25\n        /* \"#utility.yul\":13915:13918   */\n      dup4\n        /* \"#utility.yul\":13856:13923   */\n      tag_564\n      jump\t// in\n    tag_737:\n        /* \"#utility.yul\":13849:13923   */\n      swap2\n      pop\n        /* \"#utility.yul\":13932:14025   */\n      tag_738\n        /* \"#utility.yul\":14021:14024   */\n      dup3\n        /* \"#utility.yul\":13932:14025   */\n      tag_572\n      jump\t// in\n    tag_738:\n        /* \"#utility.yul\":14050:14052   */\n      0x40\n        /* \"#utility.yul\":14045:14048   */\n      dup3\n        /* \"#utility.yul\":14041:14053   */\n      add\n        /* \"#utility.yul\":14034:14053   */\n      swap1\n      pop\n        /* \"#utility.yul\":13693:14059   */\n      swap2\n      swap1\n      pop\n      jump\t// out\n        /* \"#utility.yul\":14065:14484   */\n    tag_124:\n        /* \"#utility.yul\":14231:14235   */\n      0x00\n        /* \"#utility.yul\":14269:14271   */\n      0x20\n        /* \"#utility.yul\":14258:14267   */\n      dup3\n        /* \"#utility.yul\":14254:14272   */\n      add\n        /* \"#utility.yul\":14246:14272   */\n      swap1\n      pop\n        /* \"#utility.yul\":14318:14327   */\n      dup2\n        /* \"#utility.yul\":14312:14316   */\n      dup2\n        /* \"#utility.yul\":14308:14328   */\n      sub\n        /* \"#utility.yul\":14304:14305   */\n      0x00\n        /* \"#utility.yul\":14293:14302   */\n      dup4\n        /* \"#utility.yul\":14289:14306   */\n      add\n        /* \"#utility.yul\":14282:14329   */\n      mstore\n        /* \"#utility.yul\":14346:14477   */\n      tag_740\n        /* \"#utility.yul\":14472:14476   */\n      dup2\n        /* \"#utility.yul\":14346:14477   */\n      tag_573\n      jump\t// in\n    tag_740:\n        /* \"#utility.yul\":14338:14477   */\n      swap1\n      pop\n        /* \"#utility.yul\":14065:14484   */\n      swap2\n      swap1\n      pop\n      jump\t// out\n        /* \"#utility.yul\":14490:14670   */\n    tag_128:\n        /* \"#utility.yul\":14538:14615   */\n      0x4e487b7100000000000000000000000000000000000000000000000000000000\n        /* \"#utility.yul\":14535:14536   */\n      0x00\n        /* \"#utility.yul\":14528:14616   */\n      mstore\n        /* \"#utility.yul\":14635:14639   */\n      0x21\n        /* \"#utility.yul\":14632:14633   */\n      0x04\n        /* \"#utility.yul\":14625:14640   */\n      mstore\n        /* \"#utility.yul\":14659:14663   */\n      0x24\n        /* \"#utility.yul\":14656:14657   */\n      0x00\n        /* \"#utility.yul\":14649:14664   */\n      revert\n        /* \"#utility.yul\":14676:14896   */\n    tag_574:\n        /* \"#utility.yul\":14816:14850   */\n      0x537943726f774261727465723a20494e56414c49445f4241525445525f545950\n        /* \"#utility.yul\":14812:14813   */\n      0x00\n        /* \"#utility.yul\":14804:14810   */\n      dup3\n        /* \"#utility.yul\":14800:14814   */\n      add\n        /* \"#utility.yul\":14793:14851   */\n      mstore\n        /* \"#utility.yul\":14885:14888   */\n      0x4500000000000000000000000000000000000000000000000000000000000000\n        /* \"#utility.yul\":14880:14882   */\n      0x20\n        /* \"#utility.yul\":14872:14878   */\n      dup3\n        /* \"#utility.yul\":14868:14883   */\n      add\n        /* \"#utility.yul\":14861:14889   */\n      mstore\n        /* \"#utility.yul\":14676:14896   */\n      pop\n      jump\t// out\n        /* \"#utility.yul\":14902:15268   */\n    tag_575:\n        /* \"#utility.yul\":15044:15047   */\n      0x00\n        /* \"#utility.yul\":15065:15132   */\n      tag_744\n        /* \"#utility.yul\":15129:15131   */\n      0x21\n        /* \"#utility.yul\":15124:15127   */\n      dup4\n        /* \"#utility.yul\":15065:15132   */\n      tag_564\n      jump\t// in\n    tag_744:\n        /* \"#utility.yul\":15058:15132   */\n      swap2\n      pop\n        /* \"#utility.yul\":15141:15234   */\n      tag_745\n        /* \"#utility.yul\":15230:15233   */\n      dup3\n        /* \"#utility.yul\":15141:15234   */\n      tag_574\n      jump\t// in\n    tag_745:\n        /* \"#utility.yul\":15259:15261   */\n      0x40\n        /* \"#utility.yul\":15254:15257   */\n      dup3\n        /* \"#utility.yul\":15250:15262   */\n      add\n        /* \"#utility.yul\":15243:15262   */\n      swap1\n      pop\n        /* \"#utility.yul\":14902:15268   */\n      swap2\n      swap1\n      pop\n      jump\t// out\n        /* \"#utility.yul\":15274:15693   */\n    tag_133:\n        /* \"#utility.yul\":15440:15444   */\n      0x00\n        /* \"#utility.yul\":15478:15480   */\n      0x20\n        /* \"#utility.yul\":15467:15476   */\n      dup3\n        /* \"#utility.yul\":15463:15481   */\n      add\n        /* \"#utility.yul\":15455:15481   */\n      swap1\n      pop\n        /* \"#utility.yul\":15527:15536   */\n      dup2\n        /* \"#utility.yul\":15521:15525   */\n      dup2\n        /* \"#utility.yul\":15517:15537   */\n      sub\n        /* \"#utility.yul\":15513:15514   */\n      0x00\n        /* \"#utility.yul\":15502:15511   */\n      dup4\n        /* \"#utility.yul\":15498:15515   */\n      add\n        /* \"#utility.yul\":15491:15538   */\n      mstore\n        /* \"#utility.yul\":15555:15686   */\n      tag_747\n        /* \"#utility.yul\":15681:15685   */\n      dup2\n        /* \"#utility.yul\":15555:15686   */\n      tag_575\n      jump\t// in\n    tag_747:\n        /* \"#utility.yul\":15547:15686   */\n      swap1\n      pop\n        /* \"#utility.yul\":15274:15693   */\n      swap2\n      swap1\n      pop\n      jump\t// out\n        /* \"#utility.yul\":15699:15869   */\n    tag_576:\n        /* \"#utility.yul\":15839:15861   */\n      0x537943726f774261727465723a20414354495645000000000000000000000000\n        /* \"#utility.yul\":15835:15836   */\n      0x00\n        /* \"#utility.yul\":15827:15833   */\n      dup3\n        /* \"#utility.yul\":15823:15837   */\n      add\n        /* \"#utility.yul\":15816:15862   */\n      mstore\n        /* \"#utility.yul\":15699:15869   */\n      pop\n      jump\t// out\n        /* \"#utility.yul\":15875:16241   */\n    tag_577:\n        /* \"#utility.yul\":16017:16020   */\n      0x00\n        /* \"#utility.yul\":16038:16105   */\n      tag_750\n        /* \"#utility.yul\":16102:16104   */\n      0x14\n        /* \"#utility.yul\":16097:16100   */\n      dup4\n        /* \"#utility.yul\":16038:16105   */\n      tag_564\n      jump\t// in\n    tag_750:\n        /* \"#utility.yul\":16031:16105   */\n      swap2\n      pop\n        /* \"#utility.yul\":16114:16207   */\n      tag_751\n        /* \"#utility.yul\":16203:16206   */\n      dup3\n        /* \"#utility.yul\":16114:16207   */\n      tag_576\n      jump\t// in\n    tag_751:\n        /* \"#utility.yul\":16232:16234   */\n      0x20\n        /* \"#utility.yul\":16227:16230   */\n      dup3\n        /* \"#utility.yul\":16223:16235   */\n      add\n        /* \"#utility.yul\":16216:16235   */\n      swap1\n      pop\n        /* \"#utility.yul\":15875:16241   */\n      swap2\n      swap1\n      pop\n      jump\t// out\n        /* \"#utility.yul\":16247:16666   */\n    tag_167:\n        /* \"#utility.yul\":16413:16417   */\n      0x00\n        /* \"#utility.yul\":16451:16453   */\n      0x20\n        /* \"#utility.yul\":16440:16449   */\n      dup3\n        /* \"#utility.yul\":16436:16454   */\n      add\n        /* \"#utility.yul\":16428:16454   */\n      swap1\n      pop\n        /* \"#utility.yul\":16500:16509   */\n      dup2\n        /* \"#utility.yul\":16494:16498   */\n      dup2\n        /* \"#utility.yul\":16490:16510   */\n      sub\n        /* \"#utility.yul\":16486:16487   */\n      0x00\n        /* \"#utility.yul\":16475:16484   */\n      dup4\n        /* \"#utility.yul\":16471:16488   */\n      add\n        /* \"#utility.yul\":16464:16511   */\n      mstore\n        /* \"#utility.yul\":16528:16659   */\n      tag_753\n        /* \"#utility.yul\":16654:16658   */\n      dup2\n        /* \"#utility.yul\":16528:16659   */\n      tag_577\n      jump\t// in\n    tag_753:\n        /* \"#utility.yul\":16520:16659   */\n      swap1\n      pop\n        /* \"#utility.yul\":16247:16666   */\n      swap2\n      swap1\n      pop\n      jump\t// out\n        /* \"#utility.yul\":16672:16854   */\n    tag_578:\n        /* \"#utility.yul\":16812:16846   */\n      0x4f776e61626c653a2063616c6c6572206973206e6f7420746865206f776e6572\n        /* \"#utility.yul\":16808:16809   */\n      0x00\n        /* \"#utility.yul\":16800:16806   */\n      dup3\n        /* \"#utility.yul\":16796:16810   */\n      add\n        /* \"#utility.yul\":16789:16847   */\n      mstore\n        /* \"#utility.yul\":16672:16854   */\n      pop\n      jump\t// out\n        /* \"#utility.yul\":16860:17226   */\n    tag_579:\n        /* \"#utility.yul\":17002:17005   */\n      0x00\n        /* \"#utility.yul\":17023:17090   */\n      tag_756\n        /* \"#utility.yul\":17087:17089   */\n      0x20\n        /* \"#utility.yul\":17082:17085   */\n      dup4\n        /* \"#utility.yul\":17023:17090   */\n      tag_564\n      jump\t// in\n    tag_756:\n        /* \"#utility.yul\":17016:17090   */\n      swap2\n      pop\n        /* \"#utility.yul\":17099:17192   */\n      tag_757\n        /* \"#utility.yul\":17188:17191   */\n      dup3\n        /* \"#utility.yul\":17099:17192   */\n      tag_578\n      jump\t// in\n    tag_757:\n        /* \"#utility.yul\":17217:17219   */\n      0x20\n        /* \"#utility.yul\":17212:17215   */\n      dup3\n        /* \"#utility.yul\":17208:17220   */\n      add\n        /* \"#utility.yul\":17201:17220   */\n      swap1\n      pop\n        /* \"#utility.yul\":16860:17226   */\n      swap2\n      swap1\n      pop\n      jump\t// out\n        /* \"#utility.yul\":17232:17651   */\n    tag_177:\n        /* \"#utility.yul\":17398:17402   */\n      0x00\n        /* \"#utility.yul\":17436:17438   */\n      0x20\n        /* \"#utility.yul\":17425:17434   */\n      dup3\n        /* \"#utility.yul\":17421:17439   */\n      add\n        /* \"#utility.yul\":17413:17439   */\n      swap1\n      pop\n        /* \"#utility.yul\":17485:17494   */\n      dup2\n        /* \"#utility.yul\":17479:17483   */\n      dup2\n        /* \"#utility.yul\":17475:17495   */\n      sub\n        /* \"#utility.yul\":17471:17472   */\n      0x00\n        /* \"#utility.yul\":17460:17469   */\n      dup4\n        /* \"#utility.yul\":17456:17473   */\n      add\n        /* \"#utility.yul\":17449:17496   */\n      mstore\n        /* \"#utility.yul\":17513:17644   */\n      tag_759\n        /* \"#utility.yul\":17639:17643   */\n      dup2\n        /* \"#utility.yul\":17513:17644   */\n      tag_579\n      jump\t// in\n    tag_759:\n        /* \"#utility.yul\":17505:17644   */\n      swap1\n      pop\n        /* \"#utility.yul\":17232:17651   */\n      swap2\n      swap1\n      pop\n      jump\t// out\n        /* \"#utility.yul\":17657:17800   */\n    tag_580:\n        /* \"#utility.yul\":17714:17719   */\n      0x00\n        /* \"#utility.yul\":17745:17751   */\n      dup2\n        /* \"#utility.yul\":17739:17752   */\n      mload\n        /* \"#utility.yul\":17730:17752   */\n      swap1\n      pop\n        /* \"#utility.yul\":17761:17794   */\n      tag_761\n        /* \"#utility.yul\":17788:17793   */\n      dup2\n        /* \"#utility.yul\":17761:17794   */\n      tag_536\n      jump\t// in\n    tag_761:\n        /* \"#utility.yul\":17657:17800   */\n      swap3\n      swap2\n      pop\n      pop\n      jump\t// out\n        /* \"#utility.yul\":17806:18157   */\n    tag_183:\n        /* \"#utility.yul\":17876:17882   */\n      0x00\n        /* \"#utility.yul\":17925:17927   */\n      0x20\n        /* \"#utility.yul\":17913:17922   */\n      dup3\n        /* \"#utility.yul\":17904:17911   */\n      dup5\n        /* \"#utility.yul\":17900:17923   */\n      sub\n        /* \"#utility.yul\":17896:17928   */\n      slt\n        /* \"#utility.yul\":17893:18012   */\n      iszero\n      tag_763\n      jumpi\n        /* \"#utility.yul\":17931:18010   */\n      tag_764\n      tag_533\n      jump\t// in\n    tag_764:\n        /* \"#utility.yul\":17893:18012   */\n    tag_763:\n        /* \"#utility.yul\":18051:18052   */\n      0x00\n        /* \"#utility.yul\":18076:18140   */\n      tag_765\n        /* \"#utility.yul\":18132:18139   */\n      dup5\n        /* \"#utility.yul\":18123:18129   */\n      dup3\n        /* \"#utility.yul\":18112:18121   */\n      dup6\n        /* \"#utility.yul\":18108:18130   */\n      add\n        /* \"#utility.yul\":18076:18140   */\n      tag_580\n      jump\t// in\n    tag_765:\n        /* \"#utility.yul\":18066:18140   */\n      swap2\n      pop\n        /* \"#utility.yul\":18022:18150   */\n      pop\n        /* \"#utility.yul\":17806:18157   */\n      swap3\n      swap2\n      pop\n      pop\n      jump\t// out\n        /* \"#utility.yul\":18163:18716   */\n    tag_217:\n        /* \"#utility.yul\":18340:18344   */\n      0x00\n        /* \"#utility.yul\":18378:18381   */\n      0x80\n        /* \"#utility.yul\":18367:18376   */\n      dup3\n        /* \"#utility.yul\":18363:18382   */\n      add\n        /* \"#utility.yul\":18355:18382   */\n      swap1\n      pop\n        /* \"#utility.yul\":18392:18463   */\n      tag_767\n        /* \"#utility.yul\":18460:18461   */\n      0x00\n        /* \"#utility.yul\":18449:18458   */\n      dup4\n        /* \"#utility.yul\":18445:18462   */\n      add\n        /* \"#utility.yul\":18436:18442   */\n      dup8\n        /* \"#utility.yul\":18392:18463   */\n      tag_549\n      jump\t// in\n    tag_767:\n        /* \"#utility.yul\":18473:18545   */\n      tag_768\n        /* \"#utility.yul\":18541:18543   */\n      0x20\n        /* \"#utility.yul\":18530:18539   */\n      dup4\n        /* \"#utility.yul\":18526:18544   */\n      add\n        /* \"#utility.yul\":18517:18523   */\n      dup7\n        /* \"#utility.yul\":18473:18545   */\n      tag_549\n      jump\t// in\n    tag_768:\n        /* \"#utility.yul\":18555:18627   */\n      tag_769\n        /* \"#utility.yul\":18623:18625   */\n      0x40\n        /* \"#utility.yul\":18612:18621   */\n      dup4\n        /* \"#utility.yul\":18608:18626   */\n      add\n        /* \"#utility.yul\":18599:18605   */\n      dup6\n        /* \"#utility.yul\":18555:18627   */\n      tag_540\n      jump\t// in\n    tag_769:\n        /* \"#utility.yul\":18637:18709   */\n      tag_770\n        /* \"#utility.yul\":18705:18707   */\n      0x60\n        /* \"#utility.yul\":18694:18703   */\n      dup4\n        /* \"#utility.yul\":18690:18708   */\n      add\n        /* \"#utility.yul\":18681:18687   */\n      dup5\n        /* \"#utility.yul\":18637:18709   */\n      tag_540\n      jump\t// in\n    tag_770:\n        /* \"#utility.yul\":18163:18716   */\n      swap6\n      swap5\n      pop\n      pop\n      pop\n      pop\n      pop\n      jump\t// out\n        /* \"#utility.yul\":18722:18895   */\n    tag_581:\n        /* \"#utility.yul\":18862:18887   */\n      0x537943726f774261727465723a20464f5242494444454e000000000000000000\n        /* \"#utility.yul\":18858:18859   */\n      0x00\n        /* \"#utility.yul\":18850:18856   */\n      dup3\n        /* \"#utility.yul\":18846:18860   */\n      add\n        /* \"#utility.yul\":18839:18888   */\n      mstore\n        /* \"#utility.yul\":18722:18895   */\n      pop\n      jump\t// out\n        /* \"#utility.yul\":18901:19267   */\n    tag_582:\n        /* \"#utility.yul\":19043:19046   */\n      0x00\n        /* \"#utility.yul\":19064:19131   */\n      tag_773\n        /* \"#utility.yul\":19128:19130   */\n      0x17\n        /* \"#utility.yul\":19123:19126   */\n      dup4\n        /* \"#utility.yul\":19064:19131   */\n      tag_564\n      jump\t// in\n    tag_773:\n        /* \"#utility.yul\":19057:19131   */\n      swap2\n      pop\n        /* \"#utility.yul\":19140:19233   */\n      tag_774\n        /* \"#utility.yul\":19229:19232   */\n      dup3\n        /* \"#utility.yul\":19140:19233   */\n      tag_581\n      jump\t// in\n    tag_774:\n        /* \"#utility.yul\":19258:19260   */\n      0x20\n        /* \"#utility.yul\":19253:19256   */\n      dup3\n        /* \"#utility.yul\":19249:19261   */\n      add\n        /* \"#utility.yul\":19242:19261   */\n      swap1\n      pop\n        /* \"#utility.yul\":18901:19267   */\n      swap2\n      swap1\n      pop\n      jump\t// out\n        /* \"#utility.yul\":19273:19692   */\n    tag_262:\n        /* \"#utility.yul\":19439:19443   */\n      0x00\n        /* \"#utility.yul\":19477:19479   */\n      0x20\n        /* \"#utility.yul\":19466:19475   */\n      dup3\n        /* \"#utility.yul\":19462:19480   */\n      add\n        /* \"#utility.yul\":19454:19480   */\n      swap1\n      pop\n        /* \"#utility.yul\":19526:19535   */\n      dup2\n        /* \"#utility.yul\":19520:19524   */\n      dup2\n        /* \"#utility.yul\":19516:19536   */\n      sub\n        /* \"#utility.yul\":19512:19513   */\n      0x00\n        /* \"#utility.yul\":19501:19510   */\n      dup4\n        /* \"#utility.yul\":19497:19514   */\n      add\n        /* \"#utility.yul\":19490:19537   */\n      mstore\n        /* \"#utility.yul\":19554:19685   */\n      tag_776\n        /* \"#utility.yul\":19680:19684   */\n      dup2\n        /* \"#utility.yul\":19554:19685   */\n      tag_582\n      jump\t// in\n    tag_776:\n        /* \"#utility.yul\":19546:19685   */\n      swap1\n      pop\n        /* \"#utility.yul\":19273:19692   */\n      swap2\n      swap1\n      pop\n      jump\t// out\n        /* \"#utility.yul\":19698:19918   */\n    tag_583:\n        /* \"#utility.yul\":19838:19872   */\n      0x537943726f774261727465723a20414c52454144595f494e495449414c495a45\n        /* \"#utility.yul\":19834:19835   */\n      0x00\n        /* \"#utility.yul\":19826:19832   */\n      dup3\n        /* \"#utility.yul\":19822:19836   */\n      add\n        /* \"#utility.yul\":19815:19873   */\n      mstore\n        /* \"#utility.yul\":19907:19910   */\n      0x4400000000000000000000000000000000000000000000000000000000000000\n        /* \"#utility.yul\":19902:19904   */\n      0x20\n        /* \"#utility.yul\":19894:19900   */\n      dup3\n        /* \"#utility.yul\":19890:19905   */\n      add\n        /* \"#utility.yul\":19883:19911   */\n      mstore\n        /* \"#utility.yul\":19698:19918   */\n      pop\n      jump\t// out\n        /* \"#utility.yul\":19924:20290   */\n    tag_584:\n        /* \"#utility.yul\":20066:20069   */\n      0x00\n        /* \"#utility.yul\":20087:20154   */\n      tag_779\n        /* \"#utility.yul\":20151:20153   */\n      0x21\n        /* \"#utility.yul\":20146:20149   */\n      dup4\n        /* \"#utility.yul\":20087:20154   */\n      tag_564\n      jump\t// in\n    tag_779:\n        /* \"#utility.yul\":20080:20154   */\n      swap2\n      pop\n        /* \"#utility.yul\":20163:20256   */\n      tag_780\n        /* \"#utility.yul\":20252:20255   */\n      dup3\n        /* \"#utility.yul\":20163:20256   */\n      tag_583\n      jump\t// in\n    tag_780:\n        /* \"#utility.yul\":20281:20283   */\n      0x40\n        /* \"#utility.yul\":20276:20279   */\n      dup3\n        /* \"#utility.yul\":20272:20284   */\n      add\n        /* \"#utility.yul\":20265:20284   */\n      swap1\n      pop\n        /* \"#utility.yul\":19924:20290   */\n      swap2\n      swap1\n      pop\n      jump\t// out\n        /* \"#utility.yul\":20296:20715   */\n    tag_276:\n        /* \"#utility.yul\":20462:20466   */\n      0x00\n        /* \"#utility.yul\":20500:20502   */\n      0x20\n        /* \"#utility.yul\":20489:20498   */\n      dup3\n        /* \"#utility.yul\":20485:20503   */\n      add\n        /* \"#utility.yul\":20477:20503   */\n      swap1\n      pop\n        /* \"#utility.yul\":20549:20558   */\n      dup2\n        /* \"#utility.yul\":20543:20547   */\n      dup2\n        /* \"#utility.yul\":20539:20559   */\n      sub\n        /* \"#utility.yul\":20535:20536   */\n      0x00\n        /* \"#utility.yul\":20524:20533   */\n      dup4\n        /* \"#utility.yul\":20520:20537   */\n      add\n        /* \"#utility.yul\":20513:20560   */\n      mstore\n        /* \"#utility.yul\":20577:20708   */\n      tag_782\n        /* \"#utility.yul\":20703:20707   */\n      dup2\n        /* \"#utility.yul\":20577:20708   */\n      tag_584\n      jump\t// in\n    tag_782:\n        /* \"#utility.yul\":20569:20708   */\n      swap1\n      pop\n        /* \"#utility.yul\":20296:20715   */\n      swap2\n      swap1\n      pop\n      jump\t// out\n        /* \"#utility.yul\":20721:20898   */\n    tag_585:\n        /* \"#utility.yul\":20861:20890   */\n      0x537943726f774261727465723a20504153545f444541444c494e450000000000\n        /* \"#utility.yul\":20857:20858   */\n      0x00\n        /* \"#utility.yul\":20849:20855   */\n      dup3\n        /* \"#utility.yul\":20845:20859   */\n      add\n        /* \"#utility.yul\":20838:20891   */\n      mstore\n        /* \"#utility.yul\":20721:20898   */\n      pop\n      jump\t// out\n        /* \"#utility.yul\":20904:21270   */\n    tag_586:\n        /* \"#utility.yul\":21046:21049   */\n      0x00\n        /* \"#utility.yul\":21067:21134   */\n      tag_785\n        /* \"#utility.yul\":21131:21133   */\n      0x1b\n        /* \"#utility.yul\":21126:21129   */\n      dup4\n        /* \"#utility.yul\":21067:21134   */\n      tag_564\n      jump\t// in\n    tag_785:\n        /* \"#utility.yul\":21060:21134   */\n      swap2\n      pop\n        /* \"#utility.yul\":21143:21236   */\n      tag_786\n        /* \"#utility.yul\":21232:21235   */\n      dup3\n        /* \"#utility.yul\":21143:21236   */\n      tag_585\n      jump\t// in\n    tag_786:\n        /* \"#utility.yul\":21261:21263   */\n      0x20\n        /* \"#utility.yul\":21256:21259   */\n      dup3\n        /* \"#utility.yul\":21252:21264   */\n      add\n        /* \"#utility.yul\":21245:21264   */\n      swap1\n      pop\n        /* \"#utility.yul\":20904:21270   */\n      swap2\n      swap1\n      pop\n      jump\t// out\n        /* \"#utility.yul\":21276:21695   */\n    tag_279:\n        /* \"#utility.yul\":21442:21446   */\n      0x00\n        /* \"#utility.yul\":21480:21482   */\n      0x20\n        /* \"#utility.yul\":21469:21478   */\n      dup3\n        /* \"#utility.yul\":21465:21483   */\n      add\n        /* \"#utility.yul\":21457:21483   */\n      swap1\n      pop\n        /* \"#utility.yul\":21529:21538   */\n      dup2\n        /* \"#utility.yul\":21523:21527   */\n      dup2\n        /* \"#utility.yul\":21519:21539   */\n      sub\n        /* \"#utility.yul\":21515:21516   */\n      0x00\n        /* \"#utility.yul\":21504:21513   */\n      dup4\n        /* \"#utility.yul\":21500:21517   */\n      add\n        /* \"#utility.yul\":21493:21540   */\n      mstore\n        /* \"#utility.yul\":21557:21688   */\n      tag_788\n        /* \"#utility.yul\":21683:21687   */\n      dup2\n        /* \"#utility.yul\":21557:21688   */\n      tag_586\n      jump\t// in\n    tag_788:\n        /* \"#utility.yul\":21549:21688   */\n      swap1\n      pop\n        /* \"#utility.yul\":21276:21695   */\n      swap2\n      swap1\n      pop\n      jump\t// out\n        /* \"#utility.yul\":21701:21922   */\n    tag_587:\n        /* \"#utility.yul\":21841:21875   */\n      0x537943726f774261727465723a20494e53554646494349454e545f4445504f53\n        /* \"#utility.yul\":21837:21838   */\n      0x00\n        /* \"#utility.yul\":21829:21835   */\n      dup3\n        /* \"#utility.yul\":21825:21839   */\n      add\n        /* \"#utility.yul\":21818:21876   */\n      mstore\n        /* \"#utility.yul\":21910:21914   */\n      0x4954000000000000000000000000000000000000000000000000000000000000\n        /* \"#utility.yul\":21905:21907   */\n      0x20\n        /* \"#utility.yul\":21897:21903   */\n      dup3\n        /* \"#utility.yul\":21893:21908   */\n      add\n        /* \"#utility.yul\":21886:21915   */\n      mstore\n        /* \"#utility.yul\":21701:21922   */\n      pop\n      jump\t// out\n        /* \"#utility.yul\":21928:22294   */\n    tag_588:\n        /* \"#utility.yul\":22070:22073   */\n      0x00\n        /* \"#utility.yul\":22091:22158   */\n      tag_791\n        /* \"#utility.yul\":22155:22157   */\n      0x22\n        /* \"#utility.yul\":22150:22153   */\n      dup4\n        /* \"#utility.yul\":22091:22158   */\n      tag_564\n      jump\t// in\n    tag_791:\n        /* \"#utility.yul\":22084:22158   */\n      swap2\n      pop\n        /* \"#utility.yul\":22167:22260   */\n      tag_792\n        /* \"#utility.yul\":22256:22259   */\n      dup3\n        /* \"#utility.yul\":22167:22260   */\n      tag_587\n      jump\t// in\n    tag_792:\n        /* \"#utility.yul\":22285:22287   */\n      0x40\n        /* \"#utility.yul\":22280:22283   */\n      dup3\n        /* \"#utility.yul\":22276:22288   */\n      add\n        /* \"#utility.yul\":22269:22288   */\n      swap1\n      pop\n        /* \"#utility.yul\":21928:22294   */\n      swap2\n      swap1\n      pop\n      jump\t// out\n        /* \"#utility.yul\":22300:22719   */\n    tag_286:\n        /* \"#utility.yul\":22466:22470   */\n      0x00\n        /* \"#utility.yul\":22504:22506   */\n      0x20\n        /* \"#utility.yul\":22493:22502   */\n      dup3\n        /* \"#utility.yul\":22489:22507   */\n      add\n        /* \"#utility.yul\":22481:22507   */\n      swap1\n      pop\n        /* \"#utility.yul\":22553:22562   */\n      dup2\n        /* \"#utility.yul\":22547:22551   */\n      dup2\n        /* \"#utility.yul\":22543:22563   */\n      sub\n        /* \"#utility.yul\":22539:22540   */\n      0x00\n        /* \"#utility.yul\":22528:22537   */\n      dup4\n        /* \"#utility.yul\":22524:22541   */\n      add\n        /* \"#utility.yul\":22517:22564   */\n      mstore\n        /* \"#utility.yul\":22581:22712   */\n      tag_794\n        /* \"#utility.yul\":22707:22711   */\n      dup2\n        /* \"#utility.yul\":22581:22712   */\n      tag_588\n      jump\t// in\n    tag_794:\n        /* \"#utility.yul\":22573:22712   */\n      swap1\n      pop\n        /* \"#utility.yul\":22300:22719   */\n      swap2\n      swap1\n      pop\n      jump\t// out\n        /* \"#utility.yul\":22725:22905   */\n    tag_380:\n        /* \"#utility.yul\":22773:22850   */\n      0x4e487b7100000000000000000000000000000000000000000000000000000000\n        /* \"#utility.yul\":22770:22771   */\n      0x00\n        /* \"#utility.yul\":22763:22851   */\n      mstore\n        /* \"#utility.yul\":22870:22874   */\n      0x41\n        /* \"#utility.yul\":22867:22868   */\n      0x04\n        /* \"#utility.yul\":22860:22875   */\n      mstore\n        /* \"#utility.yul\":22894:22898   */\n      0x24\n        /* \"#utility.yul\":22891:22892   */\n      0x00\n        /* \"#utility.yul\":22884:22899   */\n      revert\n        /* \"#utility.yul\":22911:23091   */\n    tag_393:\n        /* \"#utility.yul\":22959:23036   */\n      0x4e487b7100000000000000000000000000000000000000000000000000000000\n        /* \"#utility.yul\":22956:22957   */\n      0x00\n        /* \"#utility.yul\":22949:23037   */\n      mstore\n        /* \"#utility.yul\":23056:23060   */\n      0x32\n        /* \"#utility.yul\":23053:23054   */\n      0x04\n        /* \"#utility.yul\":23046:23061   */\n      mstore\n        /* \"#utility.yul\":23080:23084   */\n      0x24\n        /* \"#utility.yul\":23077:23078   */\n      0x00\n        /* \"#utility.yul\":23070:23085   */\n      revert\n        /* \"#utility.yul\":23097:23277   */\n    tag_589:\n        /* \"#utility.yul\":23145:23222   */\n      0x4e487b7100000000000000000000000000000000000000000000000000000000\n        /* \"#utility.yul\":23142:23143   */\n      0x00\n        /* \"#utility.yul\":23135:23223   */\n      mstore\n        /* \"#utility.yul\":23242:23246   */\n      0x11\n        /* \"#utility.yul\":23239:23240   */\n      0x04\n        /* \"#utility.yul\":23232:23247   */\n      mstore\n        /* \"#utility.yul\":23266:23270   */\n      0x24\n        /* \"#utility.yul\":23263:23264   */\n      0x00\n        /* \"#utility.yul\":23256:23271   */\n      revert\n        /* \"#utility.yul\":23283:23516   */\n    tag_408:\n        /* \"#utility.yul\":23322:23325   */\n      0x00\n        /* \"#utility.yul\":23345:23369   */\n      tag_799\n        /* \"#utility.yul\":23363:23368   */\n      dup3\n        /* \"#utility.yul\":23345:23369   */\n      tag_535\n      jump\t// in\n    tag_799:\n        /* \"#utility.yul\":23336:23369   */\n      swap2\n      pop\n        /* \"#utility.yul\":23391:23457   */\n      0xffffffffffffffffffffffffffffffffffffffffffffffffffffffffffffffff\n        /* \"#utility.yul\":23384:23389   */\n      dup3\n        /* \"#utility.yul\":23381:23458   */\n      sub\n        /* \"#utility.yul\":23378:23481   */\n      tag_800\n      jumpi\n        /* \"#utility.yul\":23461:23479   */\n      tag_801\n      tag_589\n      jump\t// in\n    tag_801:\n        /* \"#utility.yul\":23378:23481   */\n    tag_800:\n        /* \"#utility.yul\":23508:23509   */\n      0x01\n        /* \"#utility.yul\":23501:23506   */\n      dup3\n        /* \"#utility.yul\":23497:23510   */\n      add\n        /* \"#utility.yul\":23490:23510   */\n      swap1\n      pop\n        /* \"#utility.yul\":23283:23516   */\n      swap2\n      swap1\n      pop\n      jump\t// out\n        /* \"#utility.yul\":23522:23747   */\n    tag_590:\n        /* \"#utility.yul\":23662:23696   */\n      0x4f776e61626c653a206e6577206f776e657220697320746865207a65726f2061\n        /* \"#utility.yul\":23658:23659   */\n      0x00\n        /* \"#utility.yul\":23650:23656   */\n      dup3\n        /* \"#utility.yul\":23646:23660   */\n      add\n        /* \"#utility.yul\":23639:23697   */\n      mstore\n        /* \"#utility.yul\":23731:23739   */\n      0x6464726573730000000000000000000000000000000000000000000000000000\n        /* \"#utility.yul\":23726:23728   */\n      0x20\n        /* \"#utility.yul\":23718:23724   */\n      dup3\n        /* \"#utility.yul\":23714:23729   */\n      add\n        /* \"#utility.yul\":23707:23740   */\n      mstore\n        /* \"#utility.yul\":23522:23747   */\n      pop\n      jump\t// out\n        /* \"#utility.yul\":23753:24119   */\n    tag_591:\n        /* \"#utility.yul\":23895:23898   */\n      0x00\n        /* \"#utility.yul\":23916:23983   */\n      tag_804\n        /* \"#utility.yul\":23980:23982   */\n      0x26\n        /* \"#utility.yul\":23975:23978   */\n      dup4\n        /* \"#utility.yul\":23916:23983   */\n      tag_564\n      jump\t// in\n    tag_804:\n        /* \"#utility.yul\":23909:23983   */\n      swap2\n      pop\n        /* \"#utility.yul\":23992:24085   */\n      tag_805\n        /* \"#utility.yul\":24081:24084   */\n      dup3\n        /* \"#utility.yul\":23992:24085   */\n      tag_590\n      jump\t// in\n    tag_805:\n        /* \"#utility.yul\":24110:24112   */\n      0x40\n        /* \"#utility.yul\":24105:24108   */\n      dup3\n        /* \"#utility.yul\":24101:24113   */\n      add\n        /* \"#utility.yul\":24094:24113   */\n      swap1\n      pop\n        /* \"#utility.yul\":23753:24119   */\n      swap2\n      swap1\n      pop\n      jump\t// out\n        /* \"#utility.yul\":24125:24544   */\n    tag_417:\n        /* \"#utility.yul\":24291:24295   */\n      0x00\n        /* \"#utility.yul\":24329:24331   */\n      0x20\n        /* \"#utility.yul\":24318:24327   */\n      dup3\n        /* \"#utility.yul\":24314:24332   */\n      add\n        /* \"#utility.yul\":24306:24332   */\n      swap1\n      pop\n        /* \"#utility.yul\":24378:24387   */\n      dup2\n        /* \"#utility.yul\":24372:24376   */\n      dup2\n        /* \"#utility.yul\":24368:24388   */\n      sub\n        /* \"#utility.yul\":24364:24365   */\n      0x00\n        /* \"#utility.yul\":24353:24362   */\n      dup4\n        /* \"#utility.yul\":24349:24366   */\n      add\n        /* \"#utility.yul\":24342:24389   */\n      mstore\n        /* \"#utility.yul\":24406:24537   */\n      tag_807\n        /* \"#utility.yul\":24532:24536   */\n      dup2\n        /* \"#utility.yul\":24406:24537   */\n      tag_591\n      jump\t// in\n    tag_807:\n        /* \"#utility.yul\":24398:24537   */\n      swap1\n      pop\n        /* \"#utility.yul\":24125:24544   */\n      swap2\n      swap1\n      pop\n      jump\t// out\n        /* \"#utility.yul\":24550:24771   */\n    tag_592:\n        /* \"#utility.yul\":24690:24724   */\n      0x537943726f774261727465723a20494e53554646494349454e545f42414c414e\n        /* \"#utility.yul\":24686:24687   */\n      0x00\n        /* \"#utility.yul\":24678:24684   */\n      dup3\n        /* \"#utility.yul\":24674:24688   */\n      add\n        /* \"#utility.yul\":24667:24725   */\n      mstore\n        /* \"#utility.yul\":24759:24763   */\n      0x4345000000000000000000000000000000000000000000000000000000000000\n        /* \"#utility.yul\":24754:24756   */\n      0x20\n        /* \"#utility.yul\":24746:24752   */\n      dup3\n        /* \"#utility.yul\":24742:24757   */\n      add\n        /* \"#utility.yul\":24735:24764   */\n      mstore\n        /* \"#utility.yul\":24550:24771   */\n      pop\n      jump\t// out\n        /* \"#utility.yul\":24777:25143   */\n    tag_593:\n        /* \"#utility.yul\":24919:24922   */\n      0x00\n        /* \"#utility.yul\":24940:25007   */\n      tag_810\n        /* \"#utility.yul\":25004:25006   */\n      0x22\n        /* \"#utility.yul\":24999:25002   */\n      dup4\n        /* \"#utility.yul\":24940:25007   */\n      tag_564\n      jump\t// in\n    tag_810:\n        /* \"#utility.yul\":24933:25007   */\n      swap2\n      pop\n        /* \"#utility.yul\":25016:25109   */\n      tag_811\n        /* \"#utility.yul\":25105:25108   */\n      dup3\n        /* \"#utility.yul\":25016:25109   */\n      tag_592\n      jump\t// in\n    tag_811:\n        /* \"#utility.yul\":25134:25136   */\n      0x40\n        /* \"#utility.yul\":25129:25132   */\n      dup3\n        /* \"#utility.yul\":25125:25137   */\n      add\n        /* \"#utility.yul\":25118:25137   */\n      swap1\n      pop\n        /* \"#utility.yul\":24777:25143   */\n      swap2\n      swap1\n      pop\n      jump\t// out\n        /* \"#utility.yul\":25149:25568   */\n    tag_426:\n        /* \"#utility.yul\":25315:25319   */\n      0x00\n        /* \"#utility.yul\":25353:25355   */\n      0x20\n        /* \"#utility.yul\":25342:25351   */\n      dup3\n        /* \"#utility.yul\":25338:25356   */\n      add\n        /* \"#utility.yul\":25330:25356   */\n      swap1\n      pop\n        /* \"#utility.yul\":25402:25411   */\n      dup2\n        /* \"#utility.yul\":25396:25400   */\n      dup2\n        /* \"#utility.yul\":25392:25412   */\n      sub\n        /* \"#utility.yul\":25388:25389   */\n      0x00\n        /* \"#utility.yul\":25377:25386   */\n      dup4\n        /* \"#utility.yul\":25373:25390   */\n      add\n        /* \"#utility.yul\":25366:25413   */\n      mstore\n        /* \"#utility.yul\":25430:25561   */\n      tag_813\n        /* \"#utility.yul\":25556:25560   */\n      dup2\n        /* \"#utility.yul\":25430:25561   */\n      tag_593\n      jump\t// in\n    tag_813:\n        /* \"#utility.yul\":25422:25561   */\n      swap1\n      pop\n        /* \"#utility.yul\":25149:25568   */\n      swap2\n      swap1\n      pop\n      jump\t// out\n        /* \"#utility.yul\":25574:25804   */\n    tag_594:\n        /* \"#utility.yul\":25714:25748   */\n      0x537943726f774261727465723a20494e53554646494349454e545f434f4e5452\n        /* \"#utility.yul\":25710:25711   */\n      0x00\n        /* \"#utility.yul\":25702:25708   */\n      dup3\n        /* \"#utility.yul\":25698:25712   */\n      add\n        /* \"#utility.yul\":25691:25749   */\n      mstore\n        /* \"#utility.yul\":25783:25796   */\n      0x4143545f42414c414e4345000000000000000000000000000000000000000000\n        /* \"#utility.yul\":25778:25780   */\n      0x20\n        /* \"#utility.yul\":25770:25776   */\n      dup3\n        /* \"#utility.yul\":25766:25781   */\n      add\n        /* \"#utility.yul\":25759:25797   */\n      mstore\n        /* \"#utility.yul\":25574:25804   */\n      pop\n      jump\t// out\n        /* \"#utility.yul\":25810:26176   */\n    tag_595:\n        /* \"#utility.yul\":25952:25955   */\n      0x00\n        /* \"#utility.yul\":25973:26040   */\n      tag_816\n        /* \"#utility.yul\":26037:26039   */\n      0x2b\n        /* \"#utility.yul\":26032:26035   */\n      dup4\n        /* \"#utility.yul\":25973:26040   */\n      tag_564\n      jump\t// in\n    tag_816:\n        /* \"#utility.yul\":25966:26040   */\n      swap2\n      pop\n        /* \"#utility.yul\":26049:26142   */\n      tag_817\n        /* \"#utility.yul\":26138:26141   */\n      dup3\n        /* \"#utility.yul\":26049:26142   */\n      tag_594\n      jump\t// in\n    tag_817:\n        /* \"#utility.yul\":26167:26169   */\n      0x40\n        /* \"#utility.yul\":26162:26165   */\n      dup3\n        /* \"#utility.yul\":26158:26170   */\n      add\n        /* \"#utility.yul\":26151:26170   */\n      swap1\n      pop\n        /* \"#utility.yul\":25810:26176   */\n      swap2\n      swap1\n      pop\n      jump\t// out\n        /* \"#utility.yul\":26182:26601   */\n    tag_434:\n        /* \"#utility.yul\":26348:26352   */\n      0x00\n        /* \"#utility.yul\":26386:26388   */\n      0x20\n        /* \"#utility.yul\":26375:26384   */\n      dup3\n        /* \"#utility.yul\":26371:26389   */\n      add\n        /* \"#utility.yul\":26363:26389   */\n      swap1\n      pop\n        /* \"#utility.yul\":26435:26444   */\n      dup2\n        /* \"#utility.yul\":26429:26433   */\n      dup2\n        /* \"#utility.yul\":26425:26445   */\n      sub\n        /* \"#utility.yul\":26421:26422   */\n      0x00\n        /* \"#utility.yul\":26410:26419   */\n      dup4\n        /* \"#utility.yul\":26406:26423   */\n      add\n        /* \"#utility.yul\":26399:26446   */\n      mstore\n        /* \"#utility.yul\":26463:26594   */\n      tag_819\n        /* \"#utility.yul\":26589:26593   */\n      dup2\n        /* \"#utility.yul\":26463:26594   */\n      tag_595\n      jump\t// in\n    tag_819:\n        /* \"#utility.yul\":26455:26594   */\n      swap1\n      pop\n        /* \"#utility.yul\":26182:26601   */\n      swap2\n      swap1\n      pop\n      jump\t// out\n        /* \"#utility.yul\":26607:26705   */\n    tag_596:\n        /* \"#utility.yul\":26658:26664   */\n      0x00\n        /* \"#utility.yul\":26692:26697   */\n      dup2\n        /* \"#utility.yul\":26686:26698   */\n      mload\n        /* \"#utility.yul\":26676:26698   */\n      swap1\n      pop\n        /* \"#utility.yul\":26607:26705   */\n      swap2\n      swap1\n      pop\n      jump\t// out\n        /* \"#utility.yul\":26711:26858   */\n    tag_597:\n        /* \"#utility.yul\":26812:26823   */\n      0x00\n        /* \"#utility.yul\":26849:26852   */\n      dup2\n        /* \"#utility.yul\":26834:26852   */\n      swap1\n      pop\n        /* \"#utility.yul\":26711:26858   */\n      swap3\n      swap2\n      pop\n      pop\n      jump\t// out\n        /* \"#utility.yul\":26864:27171   */\n    tag_598:\n        /* \"#utility.yul\":26932:26933   */\n      0x00\n        /* \"#utility.yul\":26942:27055   */\n    tag_823:\n        /* \"#utility.yul\":26956:26962   */\n      dup4\n        /* \"#utility.yul\":26953:26954   */\n      dup2\n        /* \"#utility.yul\":26950:26963   */\n      lt\n        /* \"#utility.yul\":26942:27055   */\n      iszero\n      tag_825\n      jumpi\n        /* \"#utility.yul\":27041:27042   */\n      dup1\n        /* \"#utility.yul\":27036:27039   */\n      dup3\n        /* \"#utility.yul\":27032:27043   */\n      add\n        /* \"#utility.yul\":27026:27044   */\n      mload\n        /* \"#utility.yul\":27022:27023   */\n      dup2\n        /* \"#utility.yul\":27017:27020   */\n      dup5\n        /* \"#utility.yul\":27013:27024   */\n      add\n        /* \"#utility.yul\":27006:27045   */\n      mstore\n        /* \"#utility.yul\":26978:26980   */\n      0x20\n        /* \"#utility.yul\":26975:26976   */\n      dup2\n        /* \"#utility.yul\":26971:26981   */\n      add\n        /* \"#utility.yul\":26966:26981   */\n      swap1\n      pop\n        /* \"#utility.yul\":26942:27055   */\n      jump(tag_823)\n    tag_825:\n        /* \"#utility.yul\":27073:27079   */\n      dup4\n        /* \"#utility.yul\":27070:27071   */\n      dup2\n        /* \"#utility.yul\":27067:27080   */\n      gt\n        /* \"#utility.yul\":27064:27165   */\n      iszero\n      tag_826\n      jumpi\n        /* \"#utility.yul\":27153:27154   */\n      0x00\n        /* \"#utility.yul\":27144:27150   */\n      dup5\n        /* \"#utility.yul\":27139:27142   */\n      dup5\n        /* \"#utility.yul\":27135:27151   */\n      add\n        /* \"#utility.yul\":27128:27155   */\n      mstore\n        /* \"#utility.yul\":27064:27165   */\n    tag_826:\n        /* \"#utility.yul\":26913:27171   */\n      pop\n        /* \"#utility.yul\":26864:27171   */\n      pop\n      pop\n      pop\n      jump\t// out\n        /* \"#utility.yul\":27177:27550   */\n    tag_599:\n        /* \"#utility.yul\":27281:27284   */\n      0x00\n        /* \"#utility.yul\":27309:27347   */\n      tag_828\n        /* \"#utility.yul\":27341:27346   */\n      dup3\n        /* \"#utility.yul\":27309:27347   */\n      tag_596\n      jump\t// in\n    tag_828:\n        /* \"#utility.yul\":27363:27451   */\n      tag_829\n        /* \"#utility.yul\":27444:27450   */\n      dup2\n        /* \"#utility.yul\":27439:27442   */\n      dup6\n        /* \"#utility.yul\":27363:27451   */\n      tag_597\n      jump\t// in\n    tag_829:\n        /* \"#utility.yul\":27356:27451   */\n      swap4\n      pop\n        /* \"#utility.yul\":27460:27512   */\n      tag_830\n        /* \"#utility.yul\":27505:27511   */\n      dup2\n        /* \"#utility.yul\":27500:27503   */\n      dup6\n        /* \"#utility.yul\":27493:27497   */\n      0x20\n        /* \"#utility.yul\":27486:27491   */\n      dup7\n        /* \"#utility.yul\":27482:27498   */\n      add\n        /* \"#utility.yul\":27460:27512   */\n      tag_598\n      jump\t// in\n    tag_830:\n        /* \"#utility.yul\":27537:27543   */\n      dup1\n        /* \"#utility.yul\":27532:27535   */\n      dup5\n        /* \"#utility.yul\":27528:27544   */\n      add\n        /* \"#utility.yul\":27521:27544   */\n      swap2\n      pop\n        /* \"#utility.yul\":27285:27550   */\n      pop\n        /* \"#utility.yul\":27177:27550   */\n      swap3\n      swap2\n      pop\n      pop\n      jump\t// out\n        /* \"#utility.yul\":27556:27827   */\n    tag_474:\n        /* \"#utility.yul\":27686:27689   */\n      0x00\n        /* \"#utility.yul\":27708:27801   */\n      tag_832\n        /* \"#utility.yul\":27797:27800   */\n      dup3\n        /* \"#utility.yul\":27788:27794   */\n      dup5\n        /* \"#utility.yul\":27708:27801   */\n      tag_599\n      jump\t// in\n    tag_832:\n        /* \"#utility.yul\":27701:27801   */\n      swap2\n      pop\n        /* \"#utility.yul\":27818:27821   */\n      dup2\n        /* \"#utility.yul\":27811:27821   */\n      swap1\n      pop\n        /* \"#utility.yul\":27556:27827   */\n      swap3\n      swap2\n      pop\n      pop\n      jump\t// out\n        /* \"#utility.yul\":27833:28055   */\n    tag_600:\n        /* \"#utility.yul\":27973:28007   */\n      0x5472616e7366657248656c7065723a204554485f5452414e534645525f464149\n        /* \"#utility.yul\":27969:27970   */\n      0x00\n        /* \"#utility.yul\":27961:27967   */\n      dup3\n        /* \"#utility.yul\":27957:27971   */\n      add\n        /* \"#utility.yul\":27950:28008   */\n      mstore\n        /* \"#utility.yul\":28042:28047   */\n      0x4c45440000000000000000000000000000000000000000000000000000000000\n        /* \"#utility.yul\":28037:28039   */\n      0x20\n        /* \"#utility.yul\":28029:28035   */\n      dup3\n        /* \"#utility.yul\":28025:28040   */\n      add\n        /* \"#utility.yul\":28018:28048   */\n      mstore\n        /* \"#utility.yul\":27833:28055   */\n      pop\n      jump\t// out\n        /* \"#utility.yul\":28061:28427   */\n    tag_601:\n        /* \"#utility.yul\":28203:28206   */\n      0x00\n        /* \"#utility.yul\":28224:28291   */\n      tag_835\n        /* \"#utility.yul\":28288:28290   */\n      0x23\n        /* \"#utility.yul\":28283:28286   */\n      dup4\n        /* \"#utility.yul\":28224:28291   */\n      tag_564\n      jump\t// in\n    tag_835:\n        /* \"#utility.yul\":28217:28291   */\n      swap2\n      pop\n        /* \"#utility.yul\":28300:28393   */\n      tag_836\n        /* \"#utility.yul\":28389:28392   */\n      dup3\n        /* \"#utility.yul\":28300:28393   */\n      tag_600\n      jump\t// in\n    tag_836:\n        /* \"#utility.yul\":28418:28420   */\n      0x40\n        /* \"#utility.yul\":28413:28416   */\n      dup3\n        /* \"#utility.yul\":28409:28421   */\n      add\n        /* \"#utility.yul\":28402:28421   */\n      swap1\n      pop\n        /* \"#utility.yul\":28061:28427   */\n      swap2\n      swap1\n      pop\n      jump\t// out\n        /* \"#utility.yul\":28433:28852   */\n    tag_480:\n        /* \"#utility.yul\":28599:28603   */\n      0x00\n        /* \"#utility.yul\":28637:28639   */\n      0x20\n        /* \"#utility.yul\":28626:28635   */\n      dup3\n        /* \"#utility.yul\":28622:28640   */\n      add\n        /* \"#utility.yul\":28614:28640   */\n      swap1\n      pop\n        /* \"#utility.yul\":28686:28695   */\n      dup2\n        /* \"#utility.yul\":28680:28684   */\n      dup2\n        /* \"#utility.yul\":28676:28696   */\n      sub\n        /* \"#utility.yul\":28672:28673   */\n      0x00\n        /* \"#utility.yul\":28661:28670   */\n      dup4\n        /* \"#utility.yul\":28657:28674   */\n      add\n        /* \"#utility.yul\":28650:28697   */\n      mstore\n        /* \"#utility.yul\":28714:28845   */\n      tag_838\n        /* \"#utility.yul\":28840:28844   */\n      dup2\n        /* \"#utility.yul\":28714:28845   */\n      tag_601\n      jump\t// in\n    tag_838:\n        /* \"#utility.yul\":28706:28845   */\n      swap1\n      pop\n        /* \"#utility.yul\":28433:28852   */\n      swap2\n      swap1\n      pop\n      jump\t// out\n        /* \"#utility.yul\":28858:29190   */\n    tag_483:\n        /* \"#utility.yul\":28979:28983   */\n      0x00\n        /* \"#utility.yul\":29017:29019   */\n      0x40\n        /* \"#utility.yul\":29006:29015   */\n      dup3\n        /* \"#utility.yul\":29002:29020   */\n      add\n        /* \"#utility.yul\":28994:29020   */\n      swap1\n      pop\n        /* \"#utility.yul\":29030:29101   */\n      tag_840\n        /* \"#utility.yul\":29098:29099   */\n      0x00\n        /* \"#utility.yul\":29087:29096   */\n      dup4\n        /* \"#utility.yul\":29083:29100   */\n      add\n        /* \"#utility.yul\":29074:29080   */\n      dup6\n        /* \"#utility.yul\":29030:29101   */\n      tag_549\n      jump\t// in\n    tag_840:\n        /* \"#utility.yul\":29111:29183   */\n      tag_841\n        /* \"#utility.yul\":29179:29181   */\n      0x20\n        /* \"#utility.yul\":29168:29177   */\n      dup4\n        /* \"#utility.yul\":29164:29182   */\n      add\n        /* \"#utility.yul\":29155:29161   */\n      dup5\n        /* \"#utility.yul\":29111:29183   */\n      tag_540\n      jump\t// in\n    tag_841:\n        /* \"#utility.yul\":28858:29190   */\n      swap4\n      swap3\n      pop\n      pop\n      pop\n      jump\t// out\n        /* \"#utility.yul\":29196:29377   */\n    tag_602:\n        /* \"#utility.yul\":29336:29369   */\n      0x5472616e7366657248656c7065723a205452414e534645525f4641494c454400\n        /* \"#utility.yul\":29332:29333   */\n      0x00\n        /* \"#utility.yul\":29324:29330   */\n      dup3\n        /* \"#utility.yul\":29320:29334   */\n      add\n        /* \"#utility.yul\":29313:29370   */\n      mstore\n        /* \"#utility.yul\":29196:29377   */\n      pop\n      jump\t// out\n        /* \"#utility.yul\":29383:29749   */\n    tag_603:\n        /* \"#utility.yul\":29525:29528   */\n      0x00\n        /* \"#utility.yul\":29546:29613   */\n      tag_844\n        /* \"#utility.yul\":29610:29612   */\n      0x1f\n        /* \"#utility.yul\":29605:29608   */\n      dup4\n        /* \"#utility.yul\":29546:29613   */\n      tag_564\n      jump\t// in\n    tag_844:\n        /* \"#utility.yul\":29539:29613   */\n      swap2\n      pop\n        /* \"#utility.yul\":29622:29715   */\n      tag_845\n        /* \"#utility.yul\":29711:29714   */\n      dup3\n        /* \"#utility.yul\":29622:29715   */\n      tag_602\n      jump\t// in\n    tag_845:\n        /* \"#utility.yul\":29740:29742   */\n      0x20\n        /* \"#utility.yul\":29735:29738   */\n      dup3\n        /* \"#utility.yul\":29731:29743   */\n      add\n        /* \"#utility.yul\":29724:29743   */\n      swap1\n      pop\n        /* \"#utility.yul\":29383:29749   */\n      swap2\n      swap1\n      pop\n      jump\t// out\n        /* \"#utility.yul\":29755:30174   */\n    tag_493:\n        /* \"#utility.yul\":29921:29925   */\n      0x00\n        /* \"#utility.yul\":29959:29961   */\n      0x20\n        /* \"#utility.yul\":29948:29957   */\n      dup3\n        /* \"#utility.yul\":29944:29962   */\n      add\n        /* \"#utility.yul\":29936:29962   */\n      swap1\n      pop\n        /* \"#utility.yul\":30008:30017   */\n      dup2\n        /* \"#utility.yul\":30002:30006   */\n      dup2\n        /* \"#utility.yul\":29998:30018   */\n      sub\n        /* \"#utility.yul\":29994:29995   */\n      0x00\n        /* \"#utility.yul\":29983:29992   */\n      dup4\n        /* \"#utility.yul\":29979:29996   */\n      add\n        /* \"#utility.yul\":29972:30019   */\n      mstore\n        /* \"#utility.yul\":30036:30167   */\n      tag_847\n        /* \"#utility.yul\":30162:30166   */\n      dup2\n        /* \"#utility.yul\":30036:30167   */\n      tag_603\n      jump\t// in\n    tag_847:\n        /* \"#utility.yul\":30028:30167   */\n      swap1\n      pop\n        /* \"#utility.yul\":29755:30174   */\n      swap2\n      swap1\n      pop\n      jump\t// out\n        /* \"#utility.yul\":30180:30528   */\n    tag_516:\n        /* \"#utility.yul\":30220:30227   */\n      0x00\n        /* \"#utility.yul\":30243:30263   */\n      tag_849\n        /* \"#utility.yul\":30261:30262   */\n      dup3\n        /* \"#utility.yul\":30243:30263   */\n      tag_535\n      jump\t// in\n    tag_849:\n        /* \"#utility.yul\":30238:30263   */\n      swap2\n      pop\n        /* \"#utility.yul\":30277:30297   */\n      tag_850\n        /* \"#utility.yul\":30295:30296   */\n      dup4\n        /* \"#utility.yul\":30277:30297   */\n      tag_535\n      jump\t// in\n    tag_850:\n        /* \"#utility.yul\":30272:30297   */\n      swap3\n      pop\n        /* \"#utility.yul\":30465:30466   */\n      dup2\n        /* \"#utility.yul\":30397:30463   */\n      0xffffffffffffffffffffffffffffffffffffffffffffffffffffffffffffffff\n        /* \"#utility.yul\":30393:30467   */\n      div\n        /* \"#utility.yul\":30390:30391   */\n      dup4\n        /* \"#utility.yul\":30387:30468   */\n      gt\n        /* \"#utility.yul\":30382:30383   */\n      dup3\n        /* \"#utility.yul\":30375:30384   */\n      iszero\n        /* \"#utility.yul\":30368:30385   */\n      iszero\n        /* \"#utility.yul\":30364:30469   */\n      and\n        /* \"#utility.yul\":30361:30492   */\n      iszero\n      tag_851\n      jumpi\n        /* \"#utility.yul\":30472:30490   */\n      tag_852\n      tag_589\n      jump\t// in\n    tag_852:\n        /* \"#utility.yul\":30361:30492   */\n    tag_851:\n        /* \"#utility.yul\":30520:30521   */\n      dup3\n        /* \"#utility.yul\":30517:30518   */\n      dup3\n        /* \"#utility.yul\":30513:30522   */\n      mul\n        /* \"#utility.yul\":30502:30522   */\n      swap1\n      pop\n        /* \"#utility.yul\":30180:30528   */\n      swap3\n      swap2\n      pop\n      pop\n      jump\t// out\n        /* \"#utility.yul\":30534:30714   */\n    tag_604:\n        /* \"#utility.yul\":30582:30659   */\n      0x4e487b7100000000000000000000000000000000000000000000000000000000\n        /* \"#utility.yul\":30579:30580   */\n      0x00\n        /* \"#utility.yul\":30572:30660   */\n      mstore\n        /* \"#utility.yul\":30679:30683   */\n      0x12\n        /* \"#utility.yul\":30676:30677   */\n      0x04\n        /* \"#utility.yul\":30669:30684   */\n      mstore\n        /* \"#utility.yul\":30703:30707   */\n      0x24\n        /* \"#utility.yul\":30700:30701   */\n      0x00\n        /* \"#utility.yul\":30693:30708   */\n      revert\n        /* \"#utility.yul\":30720:30905   */\n    tag_518:\n        /* \"#utility.yul\":30760:30761   */\n      0x00\n        /* \"#utility.yul\":30777:30797   */\n      tag_855\n        /* \"#utility.yul\":30795:30796   */\n      dup3\n        /* \"#utility.yul\":30777:30797   */\n      tag_535\n      jump\t// in\n    tag_855:\n        /* \"#utility.yul\":30772:30797   */\n      swap2\n      pop\n        /* \"#utility.yul\":30811:30831   */\n      tag_856\n        /* \"#utility.yul\":30829:30830   */\n      dup4\n        /* \"#utility.yul\":30811:30831   */\n      tag_535\n      jump\t// in\n    tag_856:\n        /* \"#utility.yul\":30806:30831   */\n      swap3\n      pop\n        /* \"#utility.yul\":30850:30851   */\n      dup3\n        /* \"#utility.yul\":30840:30875   */\n      tag_857\n      jumpi\n        /* \"#utility.yul\":30855:30873   */\n      tag_858\n      tag_604\n      jump\t// in\n    tag_858:\n        /* \"#utility.yul\":30840:30875   */\n    tag_857:\n        /* \"#utility.yul\":30897:30898   */\n      dup3\n        /* \"#utility.yul\":30894:30895   */\n      dup3\n        /* \"#utility.yul\":30890:30899   */\n      div\n        /* \"#utility.yul\":30885:30899   */\n      swap1\n      pop\n        /* \"#utility.yul\":30720:30905   */\n      swap3\n      swap2\n      pop\n      pop\n      jump\t// out\n        /* \"#utility.yul\":30911:31353   */\n    tag_521:\n        /* \"#utility.yul\":31060:31064   */\n      0x00\n        /* \"#utility.yul\":31098:31100   */\n      0x60\n        /* \"#utility.yul\":31087:31096   */\n      dup3\n        /* \"#utility.yul\":31083:31101   */\n      add\n        /* \"#utility.yul\":31075:31101   */\n      swap1\n      pop\n        /* \"#utility.yul\":31111:31182   */\n      tag_860\n        /* \"#utility.yul\":31179:31180   */\n      0x00\n        /* \"#utility.yul\":31168:31177   */\n      dup4\n        /* \"#utility.yul\":31164:31181   */\n      add\n        /* \"#utility.yul\":31155:31161   */\n      dup7\n        /* \"#utility.yul\":31111:31182   */\n      tag_549\n      jump\t// in\n    tag_860:\n        /* \"#utility.yul\":31192:31264   */\n      tag_861\n        /* \"#utility.yul\":31260:31262   */\n      0x20\n        /* \"#utility.yul\":31249:31258   */\n      dup4\n        /* \"#utility.yul\":31245:31263   */\n      add\n        /* \"#utility.yul\":31236:31242   */\n      dup6\n        /* \"#utility.yul\":31192:31264   */\n      tag_549\n      jump\t// in\n    tag_861:\n        /* \"#utility.yul\":31274:31346   */\n      tag_862\n        /* \"#utility.yul\":31342:31344   */\n      0x40\n        /* \"#utility.yul\":31331:31340   */\n      dup4\n        /* \"#utility.yul\":31327:31345   */\n      add\n        /* \"#utility.yul\":31318:31324   */\n      dup5\n        /* \"#utility.yul\":31274:31346   */\n      tag_540\n      jump\t// in\n    tag_862:\n        /* \"#utility.yul\":30911:31353   */\n      swap5\n      swap4\n      pop\n      pop\n      pop\n      pop\n      jump\t// out\n        /* \"#utility.yul\":31359:31582   */\n    tag_605:\n        /* \"#utility.yul\":31499:31533   */\n      0x5472616e7366657248656c7065723a205452414e534645525f46524f4d5f4641\n        /* \"#utility.yul\":31495:31496   */\n      0x00\n        /* \"#utility.yul\":31487:31493   */\n      dup3\n        /* \"#utility.yul\":31483:31497   */\n      add\n        /* \"#utility.yul\":31476:31534   */\n      mstore\n        /* \"#utility.yul\":31568:31574   */\n      0x494c454400000000000000000000000000000000000000000000000000000000\n        /* \"#utility.yul\":31563:31565   */\n      0x20\n        /* \"#utility.yul\":31555:31561   */\n      dup3\n        /* \"#utility.yul\":31551:31566   */\n      add\n        /* \"#utility.yul\":31544:31575   */\n      mstore\n        /* \"#utility.yul\":31359:31582   */\n      pop\n      jump\t// out\n        /* \"#utility.yul\":31588:31954   */\n    tag_606:\n        /* \"#utility.yul\":31730:31733   */\n      0x00\n        /* \"#utility.yul\":31751:31818   */\n      tag_865\n        /* \"#utility.yul\":31815:31817   */\n      0x24\n        /* \"#utility.yul\":31810:31813   */\n      dup4\n        /* \"#utility.yul\":31751:31818   */\n      tag_564\n      jump\t// in\n    tag_865:\n        /* \"#utility.yul\":31744:31818   */\n      swap2\n      pop\n        /* \"#utility.yul\":31827:31920   */\n      tag_866\n        /* \"#utility.yul\":31916:31919   */\n      dup3\n        /* \"#utility.yul\":31827:31920   */\n      tag_605\n      jump\t// in\n    tag_866:\n        /* \"#utility.yul\":31945:31947   */\n      0x40\n        /* \"#utility.yul\":31940:31943   */\n      dup3\n        /* \"#utility.yul\":31936:31948   */\n      add\n        /* \"#utility.yul\":31929:31948   */\n      swap1\n      pop\n        /* \"#utility.yul\":31588:31954   */\n      swap2\n      swap1\n      pop\n      jump\t// out\n        /* \"#utility.yul\":31960:32379   */\n    tag_531:\n        /* \"#utility.yul\":32126:32130   */\n      0x00\n        /* \"#utility.yul\":32164:32166   */\n      0x20\n        /* \"#utility.yul\":32153:32162   */\n      dup3\n        /* \"#utility.yul\":32149:32167   */\n      add\n        /* \"#utility.yul\":32141:32167   */\n      swap1\n      pop\n        /* \"#utility.yul\":32213:32222   */\n      dup2\n        /* \"#utility.yul\":32207:32211   */\n      dup2\n        /* \"#utility.yul\":32203:32223   */\n      sub\n        /* \"#utility.yul\":32199:32200   */\n      0x00\n        /* \"#utility.yul\":32188:32197   */\n      dup4\n        /* \"#utility.yul\":32184:32201   */\n      add\n        /* \"#utility.yul\":32177:32224   */\n      mstore\n        /* \"#utility.yul\":32241:32372   */\n      tag_868\n        /* \"#utility.yul\":32367:32371   */\n      dup2\n        /* \"#utility.yul\":32241:32372   */\n      tag_606\n      jump\t// in\n    tag_868:\n        /* \"#utility.yul\":32233:32372   */\n      swap1\n      pop\n        /* \"#utility.yul\":31960:32379   */\n      swap2\n      swap1\n      pop\n      jump\t// out\n\n    auxdata: 0xa2646970667358221220a50ae15bfd77bb92331aad800f231758fe57d6cfc31a123429a5928a82a6e1bf64736f6c634300080d0033\n}\n",
				"bytecode": {
					"linkReferences": {},
					"object": "60a06040526000600460006101000a81548160ff0219169083151502179055503480156200002c57600080fd5b506200004d620000416200008760201b60201c565b6200008f60201b60201c565b3373ffffffffffffffffffffffffffffffffffffffff1660808173ffffffffffffffffffffffffffffffffffffffff168152505062000153565b600033905090565b60008060009054906101000a900473ffffffffffffffffffffffffffffffffffffffff169050816000806101000a81548173ffffffffffffffffffffffffffffffffffffffff021916908373ffffffffffffffffffffffffffffffffffffffff1602179055508173ffffffffffffffffffffffffffffffffffffffff168173ffffffffffffffffffffffffffffffffffffffff167f8be0079c531659141344cd1fd0a4f28419497f9722a3daafe3b4186f6b6457e060405160405180910390a35050565b6080516141c5620001bc60003960008181610491015281816106dc01528181610d3e01528181610ef601528181611342015281816117c901528181611a6601528181611bbd01528181611c8601528181612520015281816128990152612e0801526141c56000f3fe6080604052600436106101145760003560e01c8063715018a6116100a0578063c45a015511610064578063c45a015514610322578063d7bdfc751461034d578063dab5a8df14610357578063e43372e914610394578063f2fde38b146103c157610114565b8063715018a6146102865780638da5cb5b1461029d578063a09702b1146102c8578063aa6ca808146102df578063abd050ea1461030b57610114565b80633d370b4e116100e75780633d370b4e146101ad57806340a6f1ab146101d95780634341f9201461020457806351cff8d9146102205780635f5780e51461024957610114565b80630d182605146101195780632ffc6887146101425780633072cf601461016b5780633ccfd60b14610196575b600080fd5b34801561012557600080fd5b50610140600480360381019061013b91906130fb565b6103ea565b005b34801561014e57600080fd5b50610169600480360381019061016491906130fb565b610635565b005b34801561017757600080fd5b5061018061087f565b60405161018d9190613143565b60405180910390f35b3480156101a257600080fd5b506101ab610892565b005b3480156101b957600080fd5b506101c2610de9565b6040516101d092919061316d565b60405180910390f35b3480156101e557600080fd5b506101ee610e49565b6040516101fb9190613196565b60405180910390f35b61021e600480360381019061021991906130fb565b610e4f565b005b34801561022c57600080fd5b506102476004803603810190610242919061320f565b61109a565b005b34801561025557600080fd5b50610270600480360381019061026b919061328d565b61133e565b60405161027d9190613143565b60405180910390f35b34801561029257600080fd5b5061029b611671565b005b3480156102a957600080fd5b506102b26116f9565b6040516102bf9190613352565b60405180910390f35b3480156102d457600080fd5b506102dd611722565b005b3480156102eb57600080fd5b506102f461191f565b60405161030292919061336d565b60405180910390f35b34801561031757600080fd5b506103206119bf565b005b34801561032e57600080fd5b50610337611bbb565b6040516103449190613352565b60405180910390f35b610355611bdf565b005b34801561036357600080fd5b5061037e600480360381019061037991906130fb565b611ddc565b60405161038b9190613196565b60405180910390f35b3480156103a057600080fd5b506103a9611e3d565b6040516103b893929190613512565b60405180910390f35b3480156103cd57600080fd5b506103e860048036038101906103e3919061320f565b6120d9565b005b42600354101580156103ff5750600754600154105b61043e576040517f08c379a0000000000000000000000000000000000000000000000000000000008152600401610435906135bb565b60405180910390fd5b600460009054906101000a900460ff1661048d576040517f08c379a000000000000000000000000000000000000000000000000000000000815260040161048490613627565b60405180910390fd5b60007f000000000000000000000000000000000000000000000000000000000000000090508073ffffffffffffffffffffffffffffffffffffffff1663b187bd266040518163ffffffff1660e01b8152600401602060405180830381865afa1580156104fd573d6000803e3d6000fd5b505050506040513d601f19601f82011682018060405250810190610521919061365c565b15610561576040517f08c379a0000000000000000000000000000000000000000000000000000000008152600401610558906136fb565b60405180910390fd5b600860009054906101000a900460ff166105b0576040517f08c379a00000000000000000000000000000000000000000000000000000000081526004016105a79061378d565b60405180910390fd5b6000600260009054906101000a900460ff1660028111156105d4576105d36137ad565b5b8160028111156105e7576105e66137ad565b5b14610627576040517f08c379a000000000000000000000000000000000000000000000000000000000815260040161061e9061384e565b60405180910390fd5b610630836121d0565b505050565b426003541015801561064a5750600754600154105b610689576040517f08c379a0000000000000000000000000000000000000000000000000000000008152600401610680906135bb565b60405180910390fd5b600460009054906101000a900460ff166106d8576040517f08c379a00000000000000000000000000000000000000000000000000000000081526004016106cf90613627565b60405180910390fd5b60007f000000000000000000000000000000000000000000000000000000000000000090508073ffffffffffffffffffffffffffffffffffffffff1663b187bd266040518163ffffffff1660e01b8152600401602060405180830381865afa158015610748573d6000803e3d6000fd5b505050506040513d601f19601f8201168201806040525081019061076c919061365c565b156107ac576040517f08c379a00000000000000000000000000000000000000000000000000000000081526004016107a3906136fb565b60405180910390fd5b600860009054906101000a900460ff166107fb576040517f08c379a00000000000000000000000000000000000000000000000000000000081526004016107f29061378d565b60405180910390fd5b60028060009054906101000a900460ff16600281111561081e5761081d6137ad565b5b816002811115610831576108306137ad565b5b14610871576040517f08c379a00000000000000000000000000000000000000000000000000000000081526004016108689061384e565b60405180910390fd5b61087a836125b8565b505050565b600460009054906101000a900460ff1681565b4260035410806108a6575060075460015410155b6108e5576040517f08c379a00000000000000000000000000000000000000000000000000000000081526004016108dc906138ba565b60405180910390fd5b600460009054906101000a900460ff16610934576040517f08c379a000000000000000000000000000000000000000000000000000000000815260040161092b90613627565b60405180910390fd5b61093c612930565b73ffffffffffffffffffffffffffffffffffffffff1661095a6116f9565b73ffffffffffffffffffffffffffffffffffffffff16146109b0576040517f08c379a00000000000000000000000000000000000000000000000000000000081526004016109a790613926565b60405180910390fd5b6000600260019054906101000a900473ffffffffffffffffffffffffffffffffffffffff16905060008173ffffffffffffffffffffffffffffffffffffffff166370a08231306040518263ffffffff1660e01b8152600401610a129190613352565b602060405180830381865afa158015610a2f573d6000803e3d6000fd5b505050506040513d601f19601f82011682018060405250810190610a53919061395b565b90506000811115610af657600260019054906101000a900473ffffffffffffffffffffffffffffffffffffffff1673ffffffffffffffffffffffffffffffffffffffff16632e1a7d4d826040518263ffffffff1660e01b8152600401610ab99190613196565b600060405180830381600087803b158015610ad357600080fd5b505af1158015610ae7573d6000803e3d6000fd5b50505050610af53382612938565b5b6000600560009054906101000a900473ffffffffffffffffffffffffffffffffffffffff1673ffffffffffffffffffffffffffffffffffffffff166370a08231306040518263ffffffff1660e01b8152600401610b539190613352565b602060405180830381865afa158015610b70573d6000803e3d6000fd5b505050506040513d601f19601f82011682018060405250810190610b94919061395b565b90506000811115610bcd57610bcc600560009054906101000a900473ffffffffffffffffffffffffffffffffffffffff163383612a38565b5b6000600460019054906101000a900473ffffffffffffffffffffffffffffffffffffffff1673ffffffffffffffffffffffffffffffffffffffff166370a08231306040518263ffffffff1660e01b8152600401610c2a9190613352565b602060405180830381865afa158015610c47573d6000803e3d6000fd5b505050506040513d601f19601f82011682018060405250810190610c6b919061395b565b90506000811115610ca457610ca3600460019054906101000a900473ffffffffffffffffffffffffffffffffffffffff163383612a38565b5b60008060006002811115610cbb57610cba6137ad565b5b600260009054906101000a900460ff166002811115610cdd57610cdc6137ad565b5b03610ced57849150839050610d3a565b600280811115610d0057610cff6137ad565b5b600260009054906101000a900460ff166002811115610d2257610d216137ad565b5b03610d3257829150839050610d39565b8291508490505b5b60007f000000000000000000000000000000000000000000000000000000000000000090508073ffffffffffffffffffffffffffffffffffffffff166333796a0e303386866040518563ffffffff1660e01b8152600401610d9e9493929190613988565b600060405180830381600087803b158015610db857600080fd5b505af1158015610dcc573d6000803e3d6000fd5b505050503373ffffffffffffffffffffffffffffffffffffffff16ff5b600080600460009054906101000a900460ff16610e3b576040517f08c379a0000000000000000000000000000000000000000000000000000000008152600401610e3290613627565b60405180910390fd5b600654600754915091509091565b60015481565b4260035410158015610e645750600754600154105b610ea3576040517f08c379a0000000000000000000000000000000000000000000000000000000008152600401610e9a906135bb565b60405180910390fd5b600460009054906101000a900460ff16610ef2576040517f08c379a0000000000000000000000000000000000000000000000000000000008152600401610ee990613627565b60405180910390fd5b60007f000000000000000000000000000000000000000000000000000000000000000090508073ffffffffffffffffffffffffffffffffffffffff1663b187bd266040518163ffffffff1660e01b8152600401602060405180830381865afa158015610f62573d6000803e3d6000fd5b505050506040513d601f19601f82011682018060405250810190610f86919061365c565b15610fc6576040517f08c379a0000000000000000000000000000000000000000000000000000000008152600401610fbd906136fb565b60405180910390fd5b600860009054906101000a900460ff16611015576040517f08c379a000000000000000000000000000000000000000000000000000000000815260040161100c9061378d565b60405180910390fd5b6001600260009054906101000a900460ff166002811115611039576110386137ad565b5b81600281111561104c5761104b6137ad565b5b1461108c576040517f08c379a00000000000000000000000000000000000000000000000000000000081526004016110839061384e565b60405180910390fd5b61109583612b6e565b505050565b6110a2612930565b73ffffffffffffffffffffffffffffffffffffffff166110c06116f9565b73ffffffffffffffffffffffffffffffffffffffff1614611116576040517f08c379a000000000000000000000000000000000000000000000000000000000815260040161110d90613926565b60405180910390fd5b600460009054906101000a900460ff16611165576040517f08c379a000000000000000000000000000000000000000000000000000000000815260040161115c90613627565b60405180910390fd5b600560009054906101000a900473ffffffffffffffffffffffffffffffffffffffff1673ffffffffffffffffffffffffffffffffffffffff168173ffffffffffffffffffffffffffffffffffffffff16036111f5576040517f08c379a00000000000000000000000000000000000000000000000000000000081526004016111ec90613a19565b60405180910390fd5b600460019054906101000a900473ffffffffffffffffffffffffffffffffffffffff1673ffffffffffffffffffffffffffffffffffffffff168173ffffffffffffffffffffffffffffffffffffffff1603611285576040517f08c379a000000000000000000000000000000000000000000000000000000000815260040161127c90613a19565b60405180910390fd5b60008173ffffffffffffffffffffffffffffffffffffffff166370a08231306040518263ffffffff1660e01b81526004016112c09190613352565b602060405180830381865afa1580156112dd573d6000803e3d6000fd5b505050506040513d601f19601f82011682018060405250810190611301919061395b565b9050600081111561133a57611339600460019054906101000a900473ffffffffffffffffffffffffffffffffffffffff163383612a38565b5b5050565b60007f000000000000000000000000000000000000000000000000000000000000000073ffffffffffffffffffffffffffffffffffffffff163373ffffffffffffffffffffffffffffffffffffffff16146113ce576040517f08c379a00000000000000000000000000000000000000000000000000000000081526004016113c590613a19565b60405180910390fd5b600460009054906101000a900460ff161561141e576040517f08c379a000000000000000000000000000000000000000000000000000000000815260040161141590613aab565b60405180910390fd5b428410611460576040517f08c379a000000000000000000000000000000000000000000000000000000000815260040161145790613b17565b60405180910390fd5b858873ffffffffffffffffffffffffffffffffffffffff166370a08231306040518263ffffffff1660e01b815260040161149a9190613352565b602060405180830381865afa1580156114b7573d6000803e3d6000fd5b505050506040513d601f19601f820116820180604052508101906114db919061395b565b101561151c576040517f08c379a000000000000000000000000000000000000000000000000000000000815260040161151390613ba9565b60405180910390fd5b8360038190555087600460016101000a81548173ffffffffffffffffffffffffffffffffffffffff021916908373ffffffffffffffffffffffffffffffffffffffff16021790555086600560006101000a81548173ffffffffffffffffffffffffffffffffffffffff021916908373ffffffffffffffffffffffffffffffffffffffff160217905550856006819055508460078190555088600260006101000a81548160ff021916908360028111156115d8576115d76137ad565b5b021790555082600860006101000a81548160ff02191690831515021790555081600260016101000a81548173ffffffffffffffffffffffffffffffffffffffff021916908373ffffffffffffffffffffffffffffffffffffffff1602179055506001600460006101000a81548160ff021916908315150217905550600460009054906101000a900460ff16905098975050505050505050565b611679612930565b73ffffffffffffffffffffffffffffffffffffffff166116976116f9565b73ffffffffffffffffffffffffffffffffffffffff16146116ed576040517f08c379a00000000000000000000000000000000000000000000000000000000081526004016116e490613926565b60405180910390fd5b6116f76000612e9f565b565b60008060009054906101000a900473ffffffffffffffffffffffffffffffffffffffff16905090565b42600354101580156117375750600754600154105b611776576040517f08c379a000000000000000000000000000000000000000000000000000000000815260040161176d906135bb565b60405180910390fd5b600460009054906101000a900460ff166117c5576040517f08c379a00000000000000000000000000000000000000000000000000000000081526004016117bc90613627565b60405180910390fd5b60007f000000000000000000000000000000000000000000000000000000000000000090508073ffffffffffffffffffffffffffffffffffffffff1663b187bd266040518163ffffffff1660e01b8152600401602060405180830381865afa158015611835573d6000803e3d6000fd5b505050506040513d601f19601f82011682018060405250810190611859919061365c565b15611899576040517f08c379a0000000000000000000000000000000000000000000000000000000008152600401611890906136fb565b60405180910390fd5b6000600260009054906101000a900460ff1660028111156118bd576118bc6137ad565b5b8160028111156118d0576118cf6137ad565b5b14611910576040517f08c379a00000000000000000000000000000000000000000000000000000000081526004016119079061384e565b60405180910390fd5b61191b6007546121d0565b5050565b600080600460009054906101000a900460ff16611971576040517f08c379a000000000000000000000000000000000000000000000000000000000815260040161196890613627565b60405180910390fd5b600460019054906101000a900473ffffffffffffffffffffffffffffffffffffffff16600560009054906101000a900473ffffffffffffffffffffffffffffffffffffffff16915091509091565b42600354101580156119d45750600754600154105b611a13576040517f08c379a0000000000000000000000000000000000000000000000000000000008152600401611a0a906135bb565b60405180910390fd5b600460009054906101000a900460ff16611a62576040517f08c379a0000000000000000000000000000000000000000000000000000000008152600401611a5990613627565b60405180910390fd5b60007f000000000000000000000000000000000000000000000000000000000000000090508073ffffffffffffffffffffffffffffffffffffffff1663b187bd266040518163ffffffff1660e01b8152600401602060405180830381865afa158015611ad2573d6000803e3d6000fd5b505050506040513d601f19601f82011682018060405250810190611af6919061365c565b15611b36576040517f08c379a0000000000000000000000000000000000000000000000000000000008152600401611b2d906136fb565b60405180910390fd5b60028060009054906101000a900460ff166002811115611b5957611b586137ad565b5b816002811115611b6c57611b6b6137ad565b5b14611bac576040517f08c379a0000000000000000000000000000000000000000000000000000000008152600401611ba39061384e565b60405180910390fd5b611bb76007546125b8565b5050565b7f000000000000000000000000000000000000000000000000000000000000000081565b4260035410158015611bf45750600754600154105b611c33576040517f08c379a0000000000000000000000000000000000000000000000000000000008152600401611c2a906135bb565b60405180910390fd5b600460009054906101000a900460ff16611c82576040517f08c379a0000000000000000000000000000000000000000000000000000000008152600401611c7990613627565b60405180910390fd5b60007f000000000000000000000000000000000000000000000000000000000000000090508073ffffffffffffffffffffffffffffffffffffffff1663b187bd266040518163ffffffff1660e01b8152600401602060405180830381865afa158015611cf2573d6000803e3d6000fd5b505050506040513d601f19601f82011682018060405250810190611d16919061365c565b15611d56576040517f08c379a0000000000000000000000000000000000000000000000000000000008152600401611d4d906136fb565b60405180910390fd5b6001600260009054906101000a900460ff166002811115611d7a57611d796137ad565b5b816002811115611d8d57611d8c6137ad565b5b14611dcd576040517f08c379a0000000000000000000000000000000000000000000000000000000008152600401611dc49061384e565b60405180910390fd5b611dd8600754612b6e565b5050565b6000600460009054906101000a900460ff16611e2d576040517f08c379a0000000000000000000000000000000000000000000000000000000008152600401611e2490613627565b60405180910390fd5b611e3682612f63565b9050919050565b6060806060600460009054906101000a900460ff16611e91576040517f08c379a0000000000000000000000000000000000000000000000000000000008152600401611e8890613627565b60405180910390fd5b600060098054905067ffffffffffffffff811115611eb257611eb1613bc9565b5b604051908082528060200260200182016040528015611ee05781602001602082028036833780820191505090505b509050600060098054905067ffffffffffffffff811115611f0457611f03613bc9565b5b604051908082528060200260200182016040528015611f325781602001602082028036833780820191505090505b509050600060098054905067ffffffffffffffff811115611f5657611f55613bc9565b5b604051908082528060200260200182016040528015611f845781602001602082028036833780820191505090505b50905060005b6009805490508110156120c75760098181548110611fab57611faa613bf8565b5b906000526020600020906003020160000160009054906101000a900473ffffffffffffffffffffffffffffffffffffffff16848281518110611ff057611fef613bf8565b5b602002602001019073ffffffffffffffffffffffffffffffffffffffff16908173ffffffffffffffffffffffffffffffffffffffff16815250506009818154811061203e5761203d613bf8565b5b90600052602060002090600302016001015483828151811061206357612062613bf8565b5b6020026020010181815250506009818154811061208357612082613bf8565b5b9060005260206000209060030201600201548282815181106120a8576120a7613bf8565b5b60200260200101818152505080806120bf90613c56565b915050611f8a565b50828282955095509550505050909192565b6120e1612930565b73ffffffffffffffffffffffffffffffffffffffff166120ff6116f9565b73ffffffffffffffffffffffffffffffffffffffff1614612155576040517f08c379a000000000000000000000000000000000000000000000000000000000815260040161214c90613926565b60405180910390fd5b600073ffffffffffffffffffffffffffffffffffffffff168173ffffffffffffffffffffffffffffffffffffffff16036121c4576040517f08c379a00000000000000000000000000000000000000000000000000000000081526004016121bb90613d10565b60405180910390fd5b6121cd81612e9f565b50565b80600560009054906101000a900473ffffffffffffffffffffffffffffffffffffffff1673ffffffffffffffffffffffffffffffffffffffff166370a08231336040518263ffffffff1660e01b815260040161222c9190613352565b602060405180830381865afa158015612249573d6000803e3d6000fd5b505050506040513d601f19601f8201168201806040525081019061226d919061395b565b10156122ae576040517f08c379a00000000000000000000000000000000000000000000000000000000081526004016122a590613da2565b60405180910390fd5b60006122b982612f63565b90506000600260019054906101000a900473ffffffffffffffffffffffffffffffffffffffff169050818173ffffffffffffffffffffffffffffffffffffffff166370a08231306040518263ffffffff1660e01b815260040161231c9190613352565b602060405180830381865afa158015612339573d6000803e3d6000fd5b505050506040513d601f19601f8201168201806040525081019061235d919061395b565b101561239e576040517f08c379a000000000000000000000000000000000000000000000000000000000815260040161239590613e34565b60405180910390fd5b600260019054906101000a900473ffffffffffffffffffffffffffffffffffffffff1673ffffffffffffffffffffffffffffffffffffffff16632e1a7d4d836040518263ffffffff1660e01b81526004016123f99190613196565b600060405180830381600087803b15801561241357600080fd5b505af1158015612427573d6000803e3d6000fd5b50505050612459600560009054906101000a900473ffffffffffffffffffffffffffffffffffffffff16333086612f87565b6124633383612938565b600960405180606001604052803373ffffffffffffffffffffffffffffffffffffffff16815260200185815260200184815250908060018154018082558091505060019003906000526020600020906003020160009091909190915060008201518160000160006101000a81548173ffffffffffffffffffffffffffffffffffffffff021916908373ffffffffffffffffffffffffffffffffffffffff1602179055506020820151816001015560408201518160020155505060007f000000000000000000000000000000000000000000000000000000000000000090508073ffffffffffffffffffffffffffffffffffffffff1663f52701b7303387876040518563ffffffff1660e01b81526004016125809493929190613988565b600060405180830381600087803b15801561259a57600080fd5b505af11580156125ae573d6000803e3d6000fd5b5050505050505050565b80600560009054906101000a900473ffffffffffffffffffffffffffffffffffffffff1673ffffffffffffffffffffffffffffffffffffffff166370a08231336040518263ffffffff1660e01b81526004016126149190613352565b602060405180830381865afa158015612631573d6000803e3d6000fd5b505050506040513d601f19601f82011682018060405250810190612655919061395b565b1015612696576040517f08c379a000000000000000000000000000000000000000000000000000000000815260040161268d90613da2565b60405180910390fd5b60006126a182612f63565b905080600460019054906101000a900473ffffffffffffffffffffffffffffffffffffffff1673ffffffffffffffffffffffffffffffffffffffff166370a08231306040518263ffffffff1660e01b81526004016126ff9190613352565b602060405180830381865afa15801561271c573d6000803e3d6000fd5b505050506040513d601f19601f82011682018060405250810190612740919061395b565b1015612781576040517f08c379a000000000000000000000000000000000000000000000000000000000815260040161277890613e34565b60405180910390fd5b6127af600560009054906101000a900473ffffffffffffffffffffffffffffffffffffffff16333085612f87565b6127dc600460019054906101000a900473ffffffffffffffffffffffffffffffffffffffff163383612a38565b600960405180606001604052803373ffffffffffffffffffffffffffffffffffffffff16815260200184815260200183815250908060018154018082558091505060019003906000526020600020906003020160009091909190915060008201518160000160006101000a81548173ffffffffffffffffffffffffffffffffffffffff021916908373ffffffffffffffffffffffffffffffffffffffff1602179055506020820151816001015560408201518160020155505060007f000000000000000000000000000000000000000000000000000000000000000090508073ffffffffffffffffffffffffffffffffffffffff1663f52701b7303386866040518563ffffffff1660e01b81526004016128f99493929190613988565b600060405180830381600087803b15801561291357600080fd5b505af1158015612927573d6000803e3d6000fd5b50505050505050565b600033905090565b60008273ffffffffffffffffffffffffffffffffffffffff1682600067ffffffffffffffff81111561296d5761296c613bc9565b5b6040519080825280601f01601f19166020018201604052801561299f5781602001600182028036833780820191505090505b506040516129ad9190613ece565b60006040518083038185875af1925050503d80600081146129ea576040519150601f19603f3d011682016040523d82523d6000602084013e6129ef565b606091505b5050905080612a33576040517f08c379a0000000000000000000000000000000000000000000000000000000008152600401612a2a90613f57565b60405180910390fd5b505050565b6000808473ffffffffffffffffffffffffffffffffffffffff1663a9059cbb8585604051602401612a6a929190613f77565b6040516020818303038152906040529060e01b6020820180517bffffffffffffffffffffffffffffffffffffffffffffffffffffffff8381831617835250505050604051612ab89190613ece565b6000604051808303816000865af19150503d8060008114612af5576040519150601f19603f3d011682016040523d82523d6000602084013e612afa565b606091505b5091509150818015612b285750600081511480612b27575080806020019051810190612b26919061365c565b5b5b612b67576040517f08c379a0000000000000000000000000000000000000000000000000000000008152600401612b5e90613fec565b60405180910390fd5b5050505050565b348114612bb0576040517f08c379a0000000000000000000000000000000000000000000000000000000008152600401612ba79061378d565b60405180910390fd5b6000612bbb82612f63565b905080600460019054906101000a900473ffffffffffffffffffffffffffffffffffffffff1673ffffffffffffffffffffffffffffffffffffffff166370a08231306040518263ffffffff1660e01b8152600401612c199190613352565b602060405180830381865afa158015612c36573d6000803e3d6000fd5b505050506040513d601f19601f82011682018060405250810190612c5a919061395b565b1015612c9b576040517f08c379a0000000000000000000000000000000000000000000000000000000008152600401612c9290613e34565b60405180910390fd5b600260019054906101000a900473ffffffffffffffffffffffffffffffffffffffff1673ffffffffffffffffffffffffffffffffffffffff1663d0e30db0836040518263ffffffff1660e01b81526004016000604051808303818588803b158015612d0557600080fd5b505af1158015612d19573d6000803e3d6000fd5b5050505050612d4b600460019054906101000a900473ffffffffffffffffffffffffffffffffffffffff163383612a38565b600960405180606001604052803373ffffffffffffffffffffffffffffffffffffffff16815260200184815260200183815250908060018154018082558091505060019003906000526020600020906003020160009091909190915060008201518160000160006101000a81548173ffffffffffffffffffffffffffffffffffffffff021916908373ffffffffffffffffffffffffffffffffffffffff1602179055506020820151816001015560408201518160020155505060007f000000000000000000000000000000000000000000000000000000000000000090508073ffffffffffffffffffffffffffffffffffffffff1663f52701b7303386866040518563ffffffff1660e01b8152600401612e689493929190613988565b600060405180830381600087803b158015612e8257600080fd5b505af1158015612e96573d6000803e3d6000fd5b50505050505050565b60008060009054906101000a900473ffffffffffffffffffffffffffffffffffffffff169050816000806101000a81548173ffffffffffffffffffffffffffffffffffffffff021916908373ffffffffffffffffffffffffffffffffffffffff1602179055508173ffffffffffffffffffffffffffffffffffffffff168173ffffffffffffffffffffffffffffffffffffffff167f8be0079c531659141344cd1fd0a4f28419497f9722a3daafe3b4186f6b6457e060405160405180910390a35050565b600060075460065483612f76919061400c565b612f809190614095565b9050919050565b6000808573ffffffffffffffffffffffffffffffffffffffff166323b872dd868686604051602401612fbb939291906140c6565b6040516020818303038152906040529060e01b6020820180517bffffffffffffffffffffffffffffffffffffffffffffffffffffffff83818316178352505050506040516130099190613ece565b6000604051808303816000865af19150503d8060008114613046576040519150601f19603f3d011682016040523d82523d6000602084013e61304b565b606091505b50915091508180156130795750600081511480613078575080806020019051810190613077919061365c565b5b5b6130b8576040517f08c379a00000000000000000000000000000000000000000000000000000000081526004016130af9061416f565b60405180910390fd5b505050505050565b600080fd5b6000819050919050565b6130d8816130c5565b81146130e357600080fd5b50565b6000813590506130f5816130cf565b92915050565b600060208284031215613111576131106130c0565b5b600061311f848285016130e6565b91505092915050565b60008115159050919050565b61313d81613128565b82525050565b60006020820190506131586000830184613134565b92915050565b613167816130c5565b82525050565b6000604082019050613182600083018561315e565b61318f602083018461315e565b9392505050565b60006020820190506131ab600083018461315e565b92915050565b600073ffffffffffffffffffffffffffffffffffffffff82169050919050565b60006131dc826131b1565b9050919050565b6131ec816131d1565b81146131f757600080fd5b50565b600081359050613209816131e3565b92915050565b600060208284031215613225576132246130c0565b5b6000613233848285016131fa565b91505092915050565b6003811061324957600080fd5b50565b60008135905061325b8161323c565b92915050565b61326a81613128565b811461327557600080fd5b50565b60008135905061328781613261565b92915050565b600080600080600080600080610100898b0312156132ae576132ad6130c0565b5b60006132bc8b828c0161324c565b98505060206132cd8b828c016131fa565b97505060406132de8b828c016131fa565b96505060606132ef8b828c016130e6565b95505060806133008b828c016130e6565b94505060a06133118b828c016130e6565b93505060c06133228b828c01613278565b92505060e06133338b828c016131fa565b9150509295985092959890939650565b61334c816131d1565b82525050565b60006020820190506133676000830184613343565b92915050565b60006040820190506133826000830185613343565b61338f6020830184613343565b9392505050565b600081519050919050565b600082825260208201905092915050565b6000819050602082019050919050565b6133cb816131d1565b82525050565b60006133dd83836133c2565b60208301905092915050565b6000602082019050919050565b600061340182613396565b61340b81856133a1565b9350613416836133b2565b8060005b8381101561344757815161342e88826133d1565b9750613439836133e9565b92505060018101905061341a565b5085935050505092915050565b600081519050919050565b600082825260208201905092915050565b6000819050602082019050919050565b613489816130c5565b82525050565b600061349b8383613480565b60208301905092915050565b6000602082019050919050565b60006134bf82613454565b6134c9818561345f565b93506134d483613470565b8060005b838110156135055781516134ec888261348f565b97506134f7836134a7565b9250506001810190506134d8565b5085935050505092915050565b6000606082019050818103600083015261352c81866133f6565b9050818103602083015261354081856134b4565b9050818103604083015261355481846134b4565b9050949350505050565b600082825260208201905092915050565b7f537943726f774261727465723a20494e41435449564500000000000000000000600082015250565b60006135a560168361355e565b91506135b08261356f565b602082019050919050565b600060208201905081810360008301526135d481613598565b9050919050565b7f537943726f774261727465723a204e4f545f494e495449414c495a4544000000600082015250565b6000613611601d8361355e565b915061361c826135db565b602082019050919050565b6000602082019050818103600083015261364081613604565b9050919050565b60008151905061365681613261565b92915050565b600060208284031215613672576136716130c0565b5b600061368084828501613647565b91505092915050565b7f537943726f774261727465723a204261736520436f6e7472616374205061757360008201527f6564000000000000000000000000000000000000000000000000000000000000602082015250565b60006136e560228361355e565b91506136f082613689565b604082019050919050565b60006020820190508181036000830152613714816136d8565b9050919050565b7f537943726f774261727465723a204d554c54495f54524144455f4e4f545f454e60008201527f41424c4544000000000000000000000000000000000000000000000000000000602082015250565b600061377760258361355e565b91506137828261371b565b604082019050919050565b600060208201905081810360008301526137a68161376a565b9050919050565b7f4e487b7100000000000000000000000000000000000000000000000000000000600052602160045260246000fd5b7f537943726f774261727465723a20494e56414c49445f4241525445525f54595060008201527f4500000000000000000000000000000000000000000000000000000000000000602082015250565b600061383860218361355e565b9150613843826137dc565b604082019050919050565b600060208201905081810360008301526138678161382b565b9050919050565b7f537943726f774261727465723a20414354495645000000000000000000000000600082015250565b60006138a460148361355e565b91506138af8261386e565b602082019050919050565b600060208201905081810360008301526138d381613897565b9050919050565b7f4f776e61626c653a2063616c6c6572206973206e6f7420746865206f776e6572600082015250565b600061391060208361355e565b915061391b826138da565b602082019050919050565b6000602082019050818103600083015261393f81613903565b9050919050565b600081519050613955816130cf565b92915050565b600060208284031215613971576139706130c0565b5b600061397f84828501613946565b91505092915050565b600060808201905061399d6000830187613343565b6139aa6020830186613343565b6139b7604083018561315e565b6139c4606083018461315e565b95945050505050565b7f537943726f774261727465723a20464f5242494444454e000000000000000000600082015250565b6000613a0360178361355e565b9150613a0e826139cd565b602082019050919050565b60006020820190508181036000830152613a32816139f6565b9050919050565b7f537943726f774261727465723a20414c52454144595f494e495449414c495a4560008201527f4400000000000000000000000000000000000000000000000000000000000000602082015250565b6000613a9560218361355e565b9150613aa082613a39565b604082019050919050565b60006020820190508181036000830152613ac481613a88565b9050919050565b7f537943726f774261727465723a20504153545f444541444c494e450000000000600082015250565b6000613b01601b8361355e565b9150613b0c82613acb565b602082019050919050565b60006020820190508181036000830152613b3081613af4565b9050919050565b7f537943726f774261727465723a20494e53554646494349454e545f4445504f5360008201527f4954000000000000000000000000000000000000000000000000000000000000602082015250565b6000613b9360228361355e565b9150613b9e82613b37565b604082019050919050565b60006020820190508181036000830152613bc281613b86565b9050919050565b7f4e487b7100000000000000000000000000000000000000000000000000000000600052604160045260246000fd5b7f4e487b7100000000000000000000000000000000000000000000000000000000600052603260045260246000fd5b7f4e487b7100000000000000000000000000000000000000000000000000000000600052601160045260246000fd5b6000613c61826130c5565b91507fffffffffffffffffffffffffffffffffffffffffffffffffffffffffffffffff8203613c9357613c92613c27565b5b600182019050919050565b7f4f776e61626c653a206e6577206f776e657220697320746865207a65726f206160008201527f6464726573730000000000000000000000000000000000000000000000000000602082015250565b6000613cfa60268361355e565b9150613d0582613c9e565b604082019050919050565b60006020820190508181036000830152613d2981613ced565b9050919050565b7f537943726f774261727465723a20494e53554646494349454e545f42414c414e60008201527f4345000000000000000000000000000000000000000000000000000000000000602082015250565b6000613d8c60228361355e565b9150613d9782613d30565b604082019050919050565b60006020820190508181036000830152613dbb81613d7f565b9050919050565b7f537943726f774261727465723a20494e53554646494349454e545f434f4e545260008201527f4143545f42414c414e4345000000000000000000000000000000000000000000602082015250565b6000613e1e602b8361355e565b9150613e2982613dc2565b604082019050919050565b60006020820190508181036000830152613e4d81613e11565b9050919050565b600081519050919050565b600081905092915050565b60005b83811015613e88578082015181840152602081019050613e6d565b83811115613e97576000848401525b50505050565b6000613ea882613e54565b613eb28185613e5f565b9350613ec2818560208601613e6a565b80840191505092915050565b6000613eda8284613e9d565b915081905092915050565b7f5472616e7366657248656c7065723a204554485f5452414e534645525f46414960008201527f4c45440000000000000000000000000000000000000000000000000000000000602082015250565b6000613f4160238361355e565b9150613f4c82613ee5565b604082019050919050565b60006020820190508181036000830152613f7081613f34565b9050919050565b6000604082019050613f8c6000830185613343565b613f99602083018461315e565b9392505050565b7f5472616e7366657248656c7065723a205452414e534645525f4641494c454400600082015250565b6000613fd6601f8361355e565b9150613fe182613fa0565b602082019050919050565b6000602082019050818103600083015261400581613fc9565b9050919050565b6000614017826130c5565b9150614022836130c5565b9250817fffffffffffffffffffffffffffffffffffffffffffffffffffffffffffffffff048311821515161561405b5761405a613c27565b5b828202905092915050565b7f4e487b7100000000000000000000000000000000000000000000000000000000600052601260045260246000fd5b60006140a0826130c5565b91506140ab836130c5565b9250826140bb576140ba614066565b5b828204905092915050565b60006060820190506140db6000830186613343565b6140e86020830185613343565b6140f5604083018461315e565b949350505050565b7f5472616e7366657248656c7065723a205452414e534645525f46524f4d5f464160008201527f494c454400000000000000000000000000000000000000000000000000000000602082015250565b600061415960248361355e565b9150614164826140fd565b604082019050919050565b600060208201905081810360008301526141888161414c565b905091905056fea2646970667358221220a50ae15bfd77bb92331aad800f231758fe57d6cfc31a123429a5928a82a6e1bf64736f6c634300080d0033",
					"opcodes": "PUSH1 0xA0 PUSH1 0x40 MSTORE PUSH1 0x0 PUSH1 0x4 PUSH1 0x0 PUSH2 0x100 EXP DUP2 SLOAD DUP2 PUSH1 0xFF MUL NOT AND SWAP1 DUP4 ISZERO ISZERO MUL OR SWAP1 SSTORE POP CALLVALUE DUP1 ISZERO PUSH3 0x2C JUMPI PUSH1 0x0 DUP1 REVERT JUMPDEST POP PUSH3 0x4D PUSH3 0x41 PUSH3 0x87 PUSH1 0x20 SHL PUSH1 0x20 SHR JUMP JUMPDEST PUSH3 0x8F PUSH1 0x20 SHL PUSH1 0x20 SHR JUMP JUMPDEST CALLER PUSH20 0xFFFFFFFFFFFFFFFFFFFFFFFFFFFFFFFFFFFFFFFF AND PUSH1 0x80 DUP2 PUSH20 0xFFFFFFFFFFFFFFFFFFFFFFFFFFFFFFFFFFFFFFFF AND DUP2 MSTORE POP POP PUSH3 0x153 JUMP JUMPDEST PUSH1 0x0 CALLER SWAP1 POP SWAP1 JUMP JUMPDEST PUSH1 0x0 DUP1 PUSH1 0x0 SWAP1 SLOAD SWAP1 PUSH2 0x100 EXP SWAP1 DIV PUSH20 0xFFFFFFFFFFFFFFFFFFFFFFFFFFFFFFFFFFFFFFFF AND SWAP1 POP DUP2 PUSH1 0x0 DUP1 PUSH2 0x100 EXP DUP2 SLOAD DUP2 PUSH20 0xFFFFFFFFFFFFFFFFFFFFFFFFFFFFFFFFFFFFFFFF MUL NOT AND SWAP1 DUP4 PUSH20 0xFFFFFFFFFFFFFFFFFFFFFFFFFFFFFFFFFFFFFFFF AND MUL OR SWAP1 SSTORE POP DUP2 PUSH20 0xFFFFFFFFFFFFFFFFFFFFFFFFFFFFFFFFFFFFFFFF AND DUP2 PUSH20 0xFFFFFFFFFFFFFFFFFFFFFFFFFFFFFFFFFFFFFFFF AND PUSH32 0x8BE0079C531659141344CD1FD0A4F28419497F9722A3DAAFE3B4186F6B6457E0 PUSH1 0x40 MLOAD PUSH1 0x40 MLOAD DUP1 SWAP2 SUB SWAP1 LOG3 POP POP JUMP JUMPDEST PUSH1 0x80 MLOAD PUSH2 0x41C5 PUSH3 0x1BC PUSH1 0x0 CODECOPY PUSH1 0x0 DUP2 DUP2 PUSH2 0x491 ADD MSTORE DUP2 DUP2 PUSH2 0x6DC ADD MSTORE DUP2 DUP2 PUSH2 0xD3E ADD MSTORE DUP2 DUP2 PUSH2 0xEF6 ADD MSTORE DUP2 DUP2 PUSH2 0x1342 ADD MSTORE DUP2 DUP2 PUSH2 0x17C9 ADD MSTORE DUP2 DUP2 PUSH2 0x1A66 ADD MSTORE DUP2 DUP2 PUSH2 0x1BBD ADD MSTORE DUP2 DUP2 PUSH2 0x1C86 ADD MSTORE DUP2 DUP2 PUSH2 0x2520 ADD MSTORE DUP2 DUP2 PUSH2 0x2899 ADD MSTORE PUSH2 0x2E08 ADD MSTORE PUSH2 0x41C5 PUSH1 0x0 RETURN INVALID PUSH1 0x80 PUSH1 0x40 MSTORE PUSH1 0x4 CALLDATASIZE LT PUSH2 0x114 JUMPI PUSH1 0x0 CALLDATALOAD PUSH1 0xE0 SHR DUP1 PUSH4 0x715018A6 GT PUSH2 0xA0 JUMPI DUP1 PUSH4 0xC45A0155 GT PUSH2 0x64 JUMPI DUP1 PUSH4 0xC45A0155 EQ PUSH2 0x322 JUMPI DUP1 PUSH4 0xD7BDFC75 EQ PUSH2 0x34D JUMPI DUP1 PUSH4 0xDAB5A8DF EQ PUSH2 0x357 JUMPI DUP1 PUSH4 0xE43372E9 EQ PUSH2 0x394 JUMPI DUP1 PUSH4 0xF2FDE38B EQ PUSH2 0x3C1 JUMPI PUSH2 0x114 JUMP JUMPDEST DUP1 PUSH4 0x715018A6 EQ PUSH2 0x286 JUMPI DUP1 PUSH4 0x8DA5CB5B EQ PUSH2 0x29D JUMPI DUP1 PUSH4 0xA09702B1 EQ PUSH2 0x2C8 JUMPI DUP1 PUSH4 0xAA6CA808 EQ PUSH2 0x2DF JUMPI DUP1 PUSH4 0xABD050EA EQ PUSH2 0x30B JUMPI PUSH2 0x114 JUMP JUMPDEST DUP1 PUSH4 0x3D370B4E GT PUSH2 0xE7 JUMPI DUP1 PUSH4 0x3D370B4E EQ PUSH2 0x1AD JUMPI DUP1 PUSH4 0x40A6F1AB EQ PUSH2 0x1D9 JUMPI DUP1 PUSH4 0x4341F920 EQ PUSH2 0x204 JUMPI DUP1 PUSH4 0x51CFF8D9 EQ PUSH2 0x220 JUMPI DUP1 PUSH4 0x5F5780E5 EQ PUSH2 0x249 JUMPI PUSH2 0x114 JUMP JUMPDEST DUP1 PUSH4 0xD182605 EQ PUSH2 0x119 JUMPI DUP1 PUSH4 0x2FFC6887 EQ PUSH2 0x142 JUMPI DUP1 PUSH4 0x3072CF60 EQ PUSH2 0x16B JUMPI DUP1 PUSH4 0x3CCFD60B EQ PUSH2 0x196 JUMPI JUMPDEST PUSH1 0x0 DUP1 REVERT JUMPDEST CALLVALUE DUP1 ISZERO PUSH2 0x125 JUMPI PUSH1 0x0 DUP1 REVERT JUMPDEST POP PUSH2 0x140 PUSH1 0x4 DUP1 CALLDATASIZE SUB DUP2 ADD SWAP1 PUSH2 0x13B SWAP2 SWAP1 PUSH2 0x30FB JUMP JUMPDEST PUSH2 0x3EA JUMP JUMPDEST STOP JUMPDEST CALLVALUE DUP1 ISZERO PUSH2 0x14E JUMPI PUSH1 0x0 DUP1 REVERT JUMPDEST POP PUSH2 0x169 PUSH1 0x4 DUP1 CALLDATASIZE SUB DUP2 ADD SWAP1 PUSH2 0x164 SWAP2 SWAP1 PUSH2 0x30FB JUMP JUMPDEST PUSH2 0x635 JUMP JUMPDEST STOP JUMPDEST CALLVALUE DUP1 ISZERO PUSH2 0x177 JUMPI PUSH1 0x0 DUP1 REVERT JUMPDEST POP PUSH2 0x180 PUSH2 0x87F JUMP JUMPDEST PUSH1 0x40 MLOAD PUSH2 0x18D SWAP2 SWAP1 PUSH2 0x3143 JUMP JUMPDEST PUSH1 0x40 MLOAD DUP1 SWAP2 SUB SWAP1 RETURN JUMPDEST CALLVALUE DUP1 ISZERO PUSH2 0x1A2 JUMPI PUSH1 0x0 DUP1 REVERT JUMPDEST POP PUSH2 0x1AB PUSH2 0x892 JUMP JUMPDEST STOP JUMPDEST CALLVALUE DUP1 ISZERO PUSH2 0x1B9 JUMPI PUSH1 0x0 DUP1 REVERT JUMPDEST POP PUSH2 0x1C2 PUSH2 0xDE9 JUMP JUMPDEST PUSH1 0x40 MLOAD PUSH2 0x1D0 SWAP3 SWAP2 SWAP1 PUSH2 0x316D JUMP JUMPDEST PUSH1 0x40 MLOAD DUP1 SWAP2 SUB SWAP1 RETURN JUMPDEST CALLVALUE DUP1 ISZERO PUSH2 0x1E5 JUMPI PUSH1 0x0 DUP1 REVERT JUMPDEST POP PUSH2 0x1EE PUSH2 0xE49 JUMP JUMPDEST PUSH1 0x40 MLOAD PUSH2 0x1FB SWAP2 SWAP1 PUSH2 0x3196 JUMP JUMPDEST PUSH1 0x40 MLOAD DUP1 SWAP2 SUB SWAP1 RETURN JUMPDEST PUSH2 0x21E PUSH1 0x4 DUP1 CALLDATASIZE SUB DUP2 ADD SWAP1 PUSH2 0x219 SWAP2 SWAP1 PUSH2 0x30FB JUMP JUMPDEST PUSH2 0xE4F JUMP JUMPDEST STOP JUMPDEST CALLVALUE DUP1 ISZERO PUSH2 0x22C JUMPI PUSH1 0x0 DUP1 REVERT JUMPDEST POP PUSH2 0x247 PUSH1 0x4 DUP1 CALLDATASIZE SUB DUP2 ADD SWAP1 PUSH2 0x242 SWAP2 SWAP1 PUSH2 0x320F JUMP JUMPDEST PUSH2 0x109A JUMP JUMPDEST STOP JUMPDEST CALLVALUE DUP1 ISZERO PUSH2 0x255 JUMPI PUSH1 0x0 DUP1 REVERT JUMPDEST POP PUSH2 0x270 PUSH1 0x4 DUP1 CALLDATASIZE SUB DUP2 ADD SWAP1 PUSH2 0x26B SWAP2 SWAP1 PUSH2 0x328D JUMP JUMPDEST PUSH2 0x133E JUMP JUMPDEST PUSH1 0x40 MLOAD PUSH2 0x27D SWAP2 SWAP1 PUSH2 0x3143 JUMP JUMPDEST PUSH1 0x40 MLOAD DUP1 SWAP2 SUB SWAP1 RETURN JUMPDEST CALLVALUE DUP1 ISZERO PUSH2 0x292 JUMPI PUSH1 0x0 DUP1 REVERT JUMPDEST POP PUSH2 0x29B PUSH2 0x1671 JUMP JUMPDEST STOP JUMPDEST CALLVALUE DUP1 ISZERO PUSH2 0x2A9 JUMPI PUSH1 0x0 DUP1 REVERT JUMPDEST POP PUSH2 0x2B2 PUSH2 0x16F9 JUMP JUMPDEST PUSH1 0x40 MLOAD PUSH2 0x2BF SWAP2 SWAP1 PUSH2 0x3352 JUMP JUMPDEST PUSH1 0x40 MLOAD DUP1 SWAP2 SUB SWAP1 RETURN JUMPDEST CALLVALUE DUP1 ISZERO PUSH2 0x2D4 JUMPI PUSH1 0x0 DUP1 REVERT JUMPDEST POP PUSH2 0x2DD PUSH2 0x1722 JUMP JUMPDEST STOP JUMPDEST CALLVALUE DUP1 ISZERO PUSH2 0x2EB JUMPI PUSH1 0x0 DUP1 REVERT JUMPDEST POP PUSH2 0x2F4 PUSH2 0x191F JUMP JUMPDEST PUSH1 0x40 MLOAD PUSH2 0x302 SWAP3 SWAP2 SWAP1 PUSH2 0x336D JUMP JUMPDEST PUSH1 0x40 MLOAD DUP1 SWAP2 SUB SWAP1 RETURN JUMPDEST CALLVALUE DUP1 ISZERO PUSH2 0x317 JUMPI PUSH1 0x0 DUP1 REVERT JUMPDEST POP PUSH2 0x320 PUSH2 0x19BF JUMP JUMPDEST STOP JUMPDEST CALLVALUE DUP1 ISZERO PUSH2 0x32E JUMPI PUSH1 0x0 DUP1 REVERT JUMPDEST POP PUSH2 0x337 PUSH2 0x1BBB JUMP JUMPDEST PUSH1 0x40 MLOAD PUSH2 0x344 SWAP2 SWAP1 PUSH2 0x3352 JUMP JUMPDEST PUSH1 0x40 MLOAD DUP1 SWAP2 SUB SWAP1 RETURN JUMPDEST PUSH2 0x355 PUSH2 0x1BDF JUMP JUMPDEST STOP JUMPDEST CALLVALUE DUP1 ISZERO PUSH2 0x363 JUMPI PUSH1 0x0 DUP1 REVERT JUMPDEST POP PUSH2 0x37E PUSH1 0x4 DUP1 CALLDATASIZE SUB DUP2 ADD SWAP1 PUSH2 0x379 SWAP2 SWAP1 PUSH2 0x30FB JUMP JUMPDEST PUSH2 0x1DDC JUMP JUMPDEST PUSH1 0x40 MLOAD PUSH2 0x38B SWAP2 SWAP1 PUSH2 0x3196 JUMP JUMPDEST PUSH1 0x40 MLOAD DUP1 SWAP2 SUB SWAP1 RETURN JUMPDEST CALLVALUE DUP1 ISZERO PUSH2 0x3A0 JUMPI PUSH1 0x0 DUP1 REVERT JUMPDEST POP PUSH2 0x3A9 PUSH2 0x1E3D JUMP JUMPDEST PUSH1 0x40 MLOAD PUSH2 0x3B8 SWAP4 SWAP3 SWAP2 SWAP1 PUSH2 0x3512 JUMP JUMPDEST PUSH1 0x40 MLOAD DUP1 SWAP2 SUB SWAP1 RETURN JUMPDEST CALLVALUE DUP1 ISZERO PUSH2 0x3CD JUMPI PUSH1 0x0 DUP1 REVERT JUMPDEST POP PUSH2 0x3E8 PUSH1 0x4 DUP1 CALLDATASIZE SUB DUP2 ADD SWAP1 PUSH2 0x3E3 SWAP2 SWAP1 PUSH2 0x320F JUMP JUMPDEST PUSH2 0x20D9 JUMP JUMPDEST STOP JUMPDEST TIMESTAMP PUSH1 0x3 SLOAD LT ISZERO DUP1 ISZERO PUSH2 0x3FF JUMPI POP PUSH1 0x7 SLOAD PUSH1 0x1 SLOAD LT JUMPDEST PUSH2 0x43E JUMPI PUSH1 0x40 MLOAD PUSH32 0x8C379A000000000000000000000000000000000000000000000000000000000 DUP2 MSTORE PUSH1 0x4 ADD PUSH2 0x435 SWAP1 PUSH2 0x35BB JUMP JUMPDEST PUSH1 0x40 MLOAD DUP1 SWAP2 SUB SWAP1 REVERT JUMPDEST PUSH1 0x4 PUSH1 0x0 SWAP1 SLOAD SWAP1 PUSH2 0x100 EXP SWAP1 DIV PUSH1 0xFF AND PUSH2 0x48D JUMPI PUSH1 0x40 MLOAD PUSH32 0x8C379A000000000000000000000000000000000000000000000000000000000 DUP2 MSTORE PUSH1 0x4 ADD PUSH2 0x484 SWAP1 PUSH2 0x3627 JUMP JUMPDEST PUSH1 0x40 MLOAD DUP1 SWAP2 SUB SWAP1 REVERT JUMPDEST PUSH1 0x0 PUSH32 0x0 SWAP1 POP DUP1 PUSH20 0xFFFFFFFFFFFFFFFFFFFFFFFFFFFFFFFFFFFFFFFF AND PUSH4 0xB187BD26 PUSH1 0x40 MLOAD DUP2 PUSH4 0xFFFFFFFF AND PUSH1 0xE0 SHL DUP2 MSTORE PUSH1 0x4 ADD PUSH1 0x20 PUSH1 0x40 MLOAD DUP1 DUP4 SUB DUP2 DUP7 GAS STATICCALL ISZERO DUP1 ISZERO PUSH2 0x4FD JUMPI RETURNDATASIZE PUSH1 0x0 DUP1 RETURNDATACOPY RETURNDATASIZE PUSH1 0x0 REVERT JUMPDEST POP POP POP POP PUSH1 0x40 MLOAD RETURNDATASIZE PUSH1 0x1F NOT PUSH1 0x1F DUP3 ADD AND DUP3 ADD DUP1 PUSH1 0x40 MSTORE POP DUP2 ADD SWAP1 PUSH2 0x521 SWAP2 SWAP1 PUSH2 0x365C JUMP JUMPDEST ISZERO PUSH2 0x561 JUMPI PUSH1 0x40 MLOAD PUSH32 0x8C379A000000000000000000000000000000000000000000000000000000000 DUP2 MSTORE PUSH1 0x4 ADD PUSH2 0x558 SWAP1 PUSH2 0x36FB JUMP JUMPDEST PUSH1 0x40 MLOAD DUP1 SWAP2 SUB SWAP1 REVERT JUMPDEST PUSH1 0x8 PUSH1 0x0 SWAP1 SLOAD SWAP1 PUSH2 0x100 EXP SWAP1 DIV PUSH1 0xFF AND PUSH2 0x5B0 JUMPI PUSH1 0x40 MLOAD PUSH32 0x8C379A000000000000000000000000000000000000000000000000000000000 DUP2 MSTORE PUSH1 0x4 ADD PUSH2 0x5A7 SWAP1 PUSH2 0x378D JUMP JUMPDEST PUSH1 0x40 MLOAD DUP1 SWAP2 SUB SWAP1 REVERT JUMPDEST PUSH1 0x0 PUSH1 0x2 PUSH1 0x0 SWAP1 SLOAD SWAP1 PUSH2 0x100 EXP SWAP1 DIV PUSH1 0xFF AND PUSH1 0x2 DUP2 GT ISZERO PUSH2 0x5D4 JUMPI PUSH2 0x5D3 PUSH2 0x37AD JUMP JUMPDEST JUMPDEST DUP2 PUSH1 0x2 DUP2 GT ISZERO PUSH2 0x5E7 JUMPI PUSH2 0x5E6 PUSH2 0x37AD JUMP JUMPDEST JUMPDEST EQ PUSH2 0x627 JUMPI PUSH1 0x40 MLOAD PUSH32 0x8C379A000000000000000000000000000000000000000000000000000000000 DUP2 MSTORE PUSH1 0x4 ADD PUSH2 0x61E SWAP1 PUSH2 0x384E JUMP JUMPDEST PUSH1 0x40 MLOAD DUP1 SWAP2 SUB SWAP1 REVERT JUMPDEST PUSH2 0x630 DUP4 PUSH2 0x21D0 JUMP JUMPDEST POP POP POP JUMP JUMPDEST TIMESTAMP PUSH1 0x3 SLOAD LT ISZERO DUP1 ISZERO PUSH2 0x64A JUMPI POP PUSH1 0x7 SLOAD PUSH1 0x1 SLOAD LT JUMPDEST PUSH2 0x689 JUMPI PUSH1 0x40 MLOAD PUSH32 0x8C379A000000000000000000000000000000000000000000000000000000000 DUP2 MSTORE PUSH1 0x4 ADD PUSH2 0x680 SWAP1 PUSH2 0x35BB JUMP JUMPDEST PUSH1 0x40 MLOAD DUP1 SWAP2 SUB SWAP1 REVERT JUMPDEST PUSH1 0x4 PUSH1 0x0 SWAP1 SLOAD SWAP1 PUSH2 0x100 EXP SWAP1 DIV PUSH1 0xFF AND PUSH2 0x6D8 JUMPI PUSH1 0x40 MLOAD PUSH32 0x8C379A000000000000000000000000000000000000000000000000000000000 DUP2 MSTORE PUSH1 0x4 ADD PUSH2 0x6CF SWAP1 PUSH2 0x3627 JUMP JUMPDEST PUSH1 0x40 MLOAD DUP1 SWAP2 SUB SWAP1 REVERT JUMPDEST PUSH1 0x0 PUSH32 0x0 SWAP1 POP DUP1 PUSH20 0xFFFFFFFFFFFFFFFFFFFFFFFFFFFFFFFFFFFFFFFF AND PUSH4 0xB187BD26 PUSH1 0x40 MLOAD DUP2 PUSH4 0xFFFFFFFF AND PUSH1 0xE0 SHL DUP2 MSTORE PUSH1 0x4 ADD PUSH1 0x20 PUSH1 0x40 MLOAD DUP1 DUP4 SUB DUP2 DUP7 GAS STATICCALL ISZERO DUP1 ISZERO PUSH2 0x748 JUMPI RETURNDATASIZE PUSH1 0x0 DUP1 RETURNDATACOPY RETURNDATASIZE PUSH1 0x0 REVERT JUMPDEST POP POP POP POP PUSH1 0x40 MLOAD RETURNDATASIZE PUSH1 0x1F NOT PUSH1 0x1F DUP3 ADD AND DUP3 ADD DUP1 PUSH1 0x40 MSTORE POP DUP2 ADD SWAP1 PUSH2 0x76C SWAP2 SWAP1 PUSH2 0x365C JUMP JUMPDEST ISZERO PUSH2 0x7AC JUMPI PUSH1 0x40 MLOAD PUSH32 0x8C379A000000000000000000000000000000000000000000000000000000000 DUP2 MSTORE PUSH1 0x4 ADD PUSH2 0x7A3 SWAP1 PUSH2 0x36FB JUMP JUMPDEST PUSH1 0x40 MLOAD DUP1 SWAP2 SUB SWAP1 REVERT JUMPDEST PUSH1 0x8 PUSH1 0x0 SWAP1 SLOAD SWAP1 PUSH2 0x100 EXP SWAP1 DIV PUSH1 0xFF AND PUSH2 0x7FB JUMPI PUSH1 0x40 MLOAD PUSH32 0x8C379A000000000000000000000000000000000000000000000000000000000 DUP2 MSTORE PUSH1 0x4 ADD PUSH2 0x7F2 SWAP1 PUSH2 0x378D JUMP JUMPDEST PUSH1 0x40 MLOAD DUP1 SWAP2 SUB SWAP1 REVERT JUMPDEST PUSH1 0x2 DUP1 PUSH1 0x0 SWAP1 SLOAD SWAP1 PUSH2 0x100 EXP SWAP1 DIV PUSH1 0xFF AND PUSH1 0x2 DUP2 GT ISZERO PUSH2 0x81E JUMPI PUSH2 0x81D PUSH2 0x37AD JUMP JUMPDEST JUMPDEST DUP2 PUSH1 0x2 DUP2 GT ISZERO PUSH2 0x831 JUMPI PUSH2 0x830 PUSH2 0x37AD JUMP JUMPDEST JUMPDEST EQ PUSH2 0x871 JUMPI PUSH1 0x40 MLOAD PUSH32 0x8C379A000000000000000000000000000000000000000000000000000000000 DUP2 MSTORE PUSH1 0x4 ADD PUSH2 0x868 SWAP1 PUSH2 0x384E JUMP JUMPDEST PUSH1 0x40 MLOAD DUP1 SWAP2 SUB SWAP1 REVERT JUMPDEST PUSH2 0x87A DUP4 PUSH2 0x25B8 JUMP JUMPDEST POP POP POP JUMP JUMPDEST PUSH1 0x4 PUSH1 0x0 SWAP1 SLOAD SWAP1 PUSH2 0x100 EXP SWAP1 DIV PUSH1 0xFF AND DUP2 JUMP JUMPDEST TIMESTAMP PUSH1 0x3 SLOAD LT DUP1 PUSH2 0x8A6 JUMPI POP PUSH1 0x7 SLOAD PUSH1 0x1 SLOAD LT ISZERO JUMPDEST PUSH2 0x8E5 JUMPI PUSH1 0x40 MLOAD PUSH32 0x8C379A000000000000000000000000000000000000000000000000000000000 DUP2 MSTORE PUSH1 0x4 ADD PUSH2 0x8DC SWAP1 PUSH2 0x38BA JUMP JUMPDEST PUSH1 0x40 MLOAD DUP1 SWAP2 SUB SWAP1 REVERT JUMPDEST PUSH1 0x4 PUSH1 0x0 SWAP1 SLOAD SWAP1 PUSH2 0x100 EXP SWAP1 DIV PUSH1 0xFF AND PUSH2 0x934 JUMPI PUSH1 0x40 MLOAD PUSH32 0x8C379A000000000000000000000000000000000000000000000000000000000 DUP2 MSTORE PUSH1 0x4 ADD PUSH2 0x92B SWAP1 PUSH2 0x3627 JUMP JUMPDEST PUSH1 0x40 MLOAD DUP1 SWAP2 SUB SWAP1 REVERT JUMPDEST PUSH2 0x93C PUSH2 0x2930 JUMP JUMPDEST PUSH20 0xFFFFFFFFFFFFFFFFFFFFFFFFFFFFFFFFFFFFFFFF AND PUSH2 0x95A PUSH2 0x16F9 JUMP JUMPDEST PUSH20 0xFFFFFFFFFFFFFFFFFFFFFFFFFFFFFFFFFFFFFFFF AND EQ PUSH2 0x9B0 JUMPI PUSH1 0x40 MLOAD PUSH32 0x8C379A000000000000000000000000000000000000000000000000000000000 DUP2 MSTORE PUSH1 0x4 ADD PUSH2 0x9A7 SWAP1 PUSH2 0x3926 JUMP JUMPDEST PUSH1 0x40 MLOAD DUP1 SWAP2 SUB SWAP1 REVERT JUMPDEST PUSH1 0x0 PUSH1 0x2 PUSH1 0x1 SWAP1 SLOAD SWAP1 PUSH2 0x100 EXP SWAP1 DIV PUSH20 0xFFFFFFFFFFFFFFFFFFFFFFFFFFFFFFFFFFFFFFFF AND SWAP1 POP PUSH1 0x0 DUP2 PUSH20 0xFFFFFFFFFFFFFFFFFFFFFFFFFFFFFFFFFFFFFFFF AND PUSH4 0x70A08231 ADDRESS PUSH1 0x40 MLOAD DUP3 PUSH4 0xFFFFFFFF AND PUSH1 0xE0 SHL DUP2 MSTORE PUSH1 0x4 ADD PUSH2 0xA12 SWAP2 SWAP1 PUSH2 0x3352 JUMP JUMPDEST PUSH1 0x20 PUSH1 0x40 MLOAD DUP1 DUP4 SUB DUP2 DUP7 GAS STATICCALL ISZERO DUP1 ISZERO PUSH2 0xA2F JUMPI RETURNDATASIZE PUSH1 0x0 DUP1 RETURNDATACOPY RETURNDATASIZE PUSH1 0x0 REVERT JUMPDEST POP POP POP POP PUSH1 0x40 MLOAD RETURNDATASIZE PUSH1 0x1F NOT PUSH1 0x1F DUP3 ADD AND DUP3 ADD DUP1 PUSH1 0x40 MSTORE POP DUP2 ADD SWAP1 PUSH2 0xA53 SWAP2 SWAP1 PUSH2 0x395B JUMP JUMPDEST SWAP1 POP PUSH1 0x0 DUP2 GT ISZERO PUSH2 0xAF6 JUMPI PUSH1 0x2 PUSH1 0x1 SWAP1 SLOAD SWAP1 PUSH2 0x100 EXP SWAP1 DIV PUSH20 0xFFFFFFFFFFFFFFFFFFFFFFFFFFFFFFFFFFFFFFFF AND PUSH20 0xFFFFFFFFFFFFFFFFFFFFFFFFFFFFFFFFFFFFFFFF AND PUSH4 0x2E1A7D4D DUP3 PUSH1 0x40 MLOAD DUP3 PUSH4 0xFFFFFFFF AND PUSH1 0xE0 SHL DUP2 MSTORE PUSH1 0x4 ADD PUSH2 0xAB9 SWAP2 SWAP1 PUSH2 0x3196 JUMP JUMPDEST PUSH1 0x0 PUSH1 0x40 MLOAD DUP1 DUP4 SUB DUP2 PUSH1 0x0 DUP8 DUP1 EXTCODESIZE ISZERO DUP1 ISZERO PUSH2 0xAD3 JUMPI PUSH1 0x0 DUP1 REVERT JUMPDEST POP GAS CALL ISZERO DUP1 ISZERO PUSH2 0xAE7 JUMPI RETURNDATASIZE PUSH1 0x0 DUP1 RETURNDATACOPY RETURNDATASIZE PUSH1 0x0 REVERT JUMPDEST POP POP POP POP PUSH2 0xAF5 CALLER DUP3 PUSH2 0x2938 JUMP JUMPDEST JUMPDEST PUSH1 0x0 PUSH1 0x5 PUSH1 0x0 SWAP1 SLOAD SWAP1 PUSH2 0x100 EXP SWAP1 DIV PUSH20 0xFFFFFFFFFFFFFFFFFFFFFFFFFFFFFFFFFFFFFFFF AND PUSH20 0xFFFFFFFFFFFFFFFFFFFFFFFFFFFFFFFFFFFFFFFF AND PUSH4 0x70A08231 ADDRESS PUSH1 0x40 MLOAD DUP3 PUSH4 0xFFFFFFFF AND PUSH1 0xE0 SHL DUP2 MSTORE PUSH1 0x4 ADD PUSH2 0xB53 SWAP2 SWAP1 PUSH2 0x3352 JUMP JUMPDEST PUSH1 0x20 PUSH1 0x40 MLOAD DUP1 DUP4 SUB DUP2 DUP7 GAS STATICCALL ISZERO DUP1 ISZERO PUSH2 0xB70 JUMPI RETURNDATASIZE PUSH1 0x0 DUP1 RETURNDATACOPY RETURNDATASIZE PUSH1 0x0 REVERT JUMPDEST POP POP POP POP PUSH1 0x40 MLOAD RETURNDATASIZE PUSH1 0x1F NOT PUSH1 0x1F DUP3 ADD AND DUP3 ADD DUP1 PUSH1 0x40 MSTORE POP DUP2 ADD SWAP1 PUSH2 0xB94 SWAP2 SWAP1 PUSH2 0x395B JUMP JUMPDEST SWAP1 POP PUSH1 0x0 DUP2 GT ISZERO PUSH2 0xBCD JUMPI PUSH2 0xBCC PUSH1 0x5 PUSH1 0x0 SWAP1 SLOAD SWAP1 PUSH2 0x100 EXP SWAP1 DIV PUSH20 0xFFFFFFFFFFFFFFFFFFFFFFFFFFFFFFFFFFFFFFFF AND CALLER DUP4 PUSH2 0x2A38 JUMP JUMPDEST JUMPDEST PUSH1 0x0 PUSH1 0x4 PUSH1 0x1 SWAP1 SLOAD SWAP1 PUSH2 0x100 EXP SWAP1 DIV PUSH20 0xFFFFFFFFFFFFFFFFFFFFFFFFFFFFFFFFFFFFFFFF AND PUSH20 0xFFFFFFFFFFFFFFFFFFFFFFFFFFFFFFFFFFFFFFFF AND PUSH4 0x70A08231 ADDRESS PUSH1 0x40 MLOAD DUP3 PUSH4 0xFFFFFFFF AND PUSH1 0xE0 SHL DUP2 MSTORE PUSH1 0x4 ADD PUSH2 0xC2A SWAP2 SWAP1 PUSH2 0x3352 JUMP JUMPDEST PUSH1 0x20 PUSH1 0x40 MLOAD DUP1 DUP4 SUB DUP2 DUP7 GAS STATICCALL ISZERO DUP1 ISZERO PUSH2 0xC47 JUMPI RETURNDATASIZE PUSH1 0x0 DUP1 RETURNDATACOPY RETURNDATASIZE PUSH1 0x0 REVERT JUMPDEST POP POP POP POP PUSH1 0x40 MLOAD RETURNDATASIZE PUSH1 0x1F NOT PUSH1 0x1F DUP3 ADD AND DUP3 ADD DUP1 PUSH1 0x40 MSTORE POP DUP2 ADD SWAP1 PUSH2 0xC6B SWAP2 SWAP1 PUSH2 0x395B JUMP JUMPDEST SWAP1 POP PUSH1 0x0 DUP2 GT ISZERO PUSH2 0xCA4 JUMPI PUSH2 0xCA3 PUSH1 0x4 PUSH1 0x1 SWAP1 SLOAD SWAP1 PUSH2 0x100 EXP SWAP1 DIV PUSH20 0xFFFFFFFFFFFFFFFFFFFFFFFFFFFFFFFFFFFFFFFF AND CALLER DUP4 PUSH2 0x2A38 JUMP JUMPDEST JUMPDEST PUSH1 0x0 DUP1 PUSH1 0x0 PUSH1 0x2 DUP2 GT ISZERO PUSH2 0xCBB JUMPI PUSH2 0xCBA PUSH2 0x37AD JUMP JUMPDEST JUMPDEST PUSH1 0x2 PUSH1 0x0 SWAP1 SLOAD SWAP1 PUSH2 0x100 EXP SWAP1 DIV PUSH1 0xFF AND PUSH1 0x2 DUP2 GT ISZERO PUSH2 0xCDD JUMPI PUSH2 0xCDC PUSH2 0x37AD JUMP JUMPDEST JUMPDEST SUB PUSH2 0xCED JUMPI DUP5 SWAP2 POP DUP4 SWAP1 POP PUSH2 0xD3A JUMP JUMPDEST PUSH1 0x2 DUP1 DUP2 GT ISZERO PUSH2 0xD00 JUMPI PUSH2 0xCFF PUSH2 0x37AD JUMP JUMPDEST JUMPDEST PUSH1 0x2 PUSH1 0x0 SWAP1 SLOAD SWAP1 PUSH2 0x100 EXP SWAP1 DIV PUSH1 0xFF AND PUSH1 0x2 DUP2 GT ISZERO PUSH2 0xD22 JUMPI PUSH2 0xD21 PUSH2 0x37AD JUMP JUMPDEST JUMPDEST SUB PUSH2 0xD32 JUMPI DUP3 SWAP2 POP DUP4 SWAP1 POP PUSH2 0xD39 JUMP JUMPDEST DUP3 SWAP2 POP DUP5 SWAP1 POP JUMPDEST JUMPDEST PUSH1 0x0 PUSH32 0x0 SWAP1 POP DUP1 PUSH20 0xFFFFFFFFFFFFFFFFFFFFFFFFFFFFFFFFFFFFFFFF AND PUSH4 0x33796A0E ADDRESS CALLER DUP7 DUP7 PUSH1 0x40 MLOAD DUP6 PUSH4 0xFFFFFFFF AND PUSH1 0xE0 SHL DUP2 MSTORE PUSH1 0x4 ADD PUSH2 0xD9E SWAP5 SWAP4 SWAP3 SWAP2 SWAP1 PUSH2 0x3988 JUMP JUMPDEST PUSH1 0x0 PUSH1 0x40 MLOAD DUP1 DUP4 SUB DUP2 PUSH1 0x0 DUP8 DUP1 EXTCODESIZE ISZERO DUP1 ISZERO PUSH2 0xDB8 JUMPI PUSH1 0x0 DUP1 REVERT JUMPDEST POP GAS CALL ISZERO DUP1 ISZERO PUSH2 0xDCC JUMPI RETURNDATASIZE PUSH1 0x0 DUP1 RETURNDATACOPY RETURNDATASIZE PUSH1 0x0 REVERT JUMPDEST POP POP POP POP CALLER PUSH20 0xFFFFFFFFFFFFFFFFFFFFFFFFFFFFFFFFFFFFFFFF AND SELFDESTRUCT JUMPDEST PUSH1 0x0 DUP1 PUSH1 0x4 PUSH1 0x0 SWAP1 SLOAD SWAP1 PUSH2 0x100 EXP SWAP1 DIV PUSH1 0xFF AND PUSH2 0xE3B JUMPI PUSH1 0x40 MLOAD PUSH32 0x8C379A000000000000000000000000000000000000000000000000000000000 DUP2 MSTORE PUSH1 0x4 ADD PUSH2 0xE32 SWAP1 PUSH2 0x3627 JUMP JUMPDEST PUSH1 0x40 MLOAD DUP1 SWAP2 SUB SWAP1 REVERT JUMPDEST PUSH1 0x6 SLOAD PUSH1 0x7 SLOAD SWAP2 POP SWAP2 POP SWAP1 SWAP2 JUMP JUMPDEST PUSH1 0x1 SLOAD DUP2 JUMP JUMPDEST TIMESTAMP PUSH1 0x3 SLOAD LT ISZERO DUP1 ISZERO PUSH2 0xE64 JUMPI POP PUSH1 0x7 SLOAD PUSH1 0x1 SLOAD LT JUMPDEST PUSH2 0xEA3 JUMPI PUSH1 0x40 MLOAD PUSH32 0x8C379A000000000000000000000000000000000000000000000000000000000 DUP2 MSTORE PUSH1 0x4 ADD PUSH2 0xE9A SWAP1 PUSH2 0x35BB JUMP JUMPDEST PUSH1 0x40 MLOAD DUP1 SWAP2 SUB SWAP1 REVERT JUMPDEST PUSH1 0x4 PUSH1 0x0 SWAP1 SLOAD SWAP1 PUSH2 0x100 EXP SWAP1 DIV PUSH1 0xFF AND PUSH2 0xEF2 JUMPI PUSH1 0x40 MLOAD PUSH32 0x8C379A000000000000000000000000000000000000000000000000000000000 DUP2 MSTORE PUSH1 0x4 ADD PUSH2 0xEE9 SWAP1 PUSH2 0x3627 JUMP JUMPDEST PUSH1 0x40 MLOAD DUP1 SWAP2 SUB SWAP1 REVERT JUMPDEST PUSH1 0x0 PUSH32 0x0 SWAP1 POP DUP1 PUSH20 0xFFFFFFFFFFFFFFFFFFFFFFFFFFFFFFFFFFFFFFFF AND PUSH4 0xB187BD26 PUSH1 0x40 MLOAD DUP2 PUSH4 0xFFFFFFFF AND PUSH1 0xE0 SHL DUP2 MSTORE PUSH1 0x4 ADD PUSH1 0x20 PUSH1 0x40 MLOAD DUP1 DUP4 SUB DUP2 DUP7 GAS STATICCALL ISZERO DUP1 ISZERO PUSH2 0xF62 JUMPI RETURNDATASIZE PUSH1 0x0 DUP1 RETURNDATACOPY RETURNDATASIZE PUSH1 0x0 REVERT JUMPDEST POP POP POP POP PUSH1 0x40 MLOAD RETURNDATASIZE PUSH1 0x1F NOT PUSH1 0x1F DUP3 ADD AND DUP3 ADD DUP1 PUSH1 0x40 MSTORE POP DUP2 ADD SWAP1 PUSH2 0xF86 SWAP2 SWAP1 PUSH2 0x365C JUMP JUMPDEST ISZERO PUSH2 0xFC6 JUMPI PUSH1 0x40 MLOAD PUSH32 0x8C379A000000000000000000000000000000000000000000000000000000000 DUP2 MSTORE PUSH1 0x4 ADD PUSH2 0xFBD SWAP1 PUSH2 0x36FB JUMP JUMPDEST PUSH1 0x40 MLOAD DUP1 SWAP2 SUB SWAP1 REVERT JUMPDEST PUSH1 0x8 PUSH1 0x0 SWAP1 SLOAD SWAP1 PUSH2 0x100 EXP SWAP1 DIV PUSH1 0xFF AND PUSH2 0x1015 JUMPI PUSH1 0x40 MLOAD PUSH32 0x8C379A000000000000000000000000000000000000000000000000000000000 DUP2 MSTORE PUSH1 0x4 ADD PUSH2 0x100C SWAP1 PUSH2 0x378D JUMP JUMPDEST PUSH1 0x40 MLOAD DUP1 SWAP2 SUB SWAP1 REVERT JUMPDEST PUSH1 0x1 PUSH1 0x2 PUSH1 0x0 SWAP1 SLOAD SWAP1 PUSH2 0x100 EXP SWAP1 DIV PUSH1 0xFF AND PUSH1 0x2 DUP2 GT ISZERO PUSH2 0x1039 JUMPI PUSH2 0x1038 PUSH2 0x37AD JUMP JUMPDEST JUMPDEST DUP2 PUSH1 0x2 DUP2 GT ISZERO PUSH2 0x104C JUMPI PUSH2 0x104B PUSH2 0x37AD JUMP JUMPDEST JUMPDEST EQ PUSH2 0x108C JUMPI PUSH1 0x40 MLOAD PUSH32 0x8C379A000000000000000000000000000000000000000000000000000000000 DUP2 MSTORE PUSH1 0x4 ADD PUSH2 0x1083 SWAP1 PUSH2 0x384E JUMP JUMPDEST PUSH1 0x40 MLOAD DUP1 SWAP2 SUB SWAP1 REVERT JUMPDEST PUSH2 0x1095 DUP4 PUSH2 0x2B6E JUMP JUMPDEST POP POP POP JUMP JUMPDEST PUSH2 0x10A2 PUSH2 0x2930 JUMP JUMPDEST PUSH20 0xFFFFFFFFFFFFFFFFFFFFFFFFFFFFFFFFFFFFFFFF AND PUSH2 0x10C0 PUSH2 0x16F9 JUMP JUMPDEST PUSH20 0xFFFFFFFFFFFFFFFFFFFFFFFFFFFFFFFFFFFFFFFF AND EQ PUSH2 0x1116 JUMPI PUSH1 0x40 MLOAD PUSH32 0x8C379A000000000000000000000000000000000000000000000000000000000 DUP2 MSTORE PUSH1 0x4 ADD PUSH2 0x110D SWAP1 PUSH2 0x3926 JUMP JUMPDEST PUSH1 0x40 MLOAD DUP1 SWAP2 SUB SWAP1 REVERT JUMPDEST PUSH1 0x4 PUSH1 0x0 SWAP1 SLOAD SWAP1 PUSH2 0x100 EXP SWAP1 DIV PUSH1 0xFF AND PUSH2 0x1165 JUMPI PUSH1 0x40 MLOAD PUSH32 0x8C379A000000000000000000000000000000000000000000000000000000000 DUP2 MSTORE PUSH1 0x4 ADD PUSH2 0x115C SWAP1 PUSH2 0x3627 JUMP JUMPDEST PUSH1 0x40 MLOAD DUP1 SWAP2 SUB SWAP1 REVERT JUMPDEST PUSH1 0x5 PUSH1 0x0 SWAP1 SLOAD SWAP1 PUSH2 0x100 EXP SWAP1 DIV PUSH20 0xFFFFFFFFFFFFFFFFFFFFFFFFFFFFFFFFFFFFFFFF AND PUSH20 0xFFFFFFFFFFFFFFFFFFFFFFFFFFFFFFFFFFFFFFFF AND DUP2 PUSH20 0xFFFFFFFFFFFFFFFFFFFFFFFFFFFFFFFFFFFFFFFF AND SUB PUSH2 0x11F5 JUMPI PUSH1 0x40 MLOAD PUSH32 0x8C379A000000000000000000000000000000000000000000000000000000000 DUP2 MSTORE PUSH1 0x4 ADD PUSH2 0x11EC SWAP1 PUSH2 0x3A19 JUMP JUMPDEST PUSH1 0x40 MLOAD DUP1 SWAP2 SUB SWAP1 REVERT JUMPDEST PUSH1 0x4 PUSH1 0x1 SWAP1 SLOAD SWAP1 PUSH2 0x100 EXP SWAP1 DIV PUSH20 0xFFFFFFFFFFFFFFFFFFFFFFFFFFFFFFFFFFFFFFFF AND PUSH20 0xFFFFFFFFFFFFFFFFFFFFFFFFFFFFFFFFFFFFFFFF AND DUP2 PUSH20 0xFFFFFFFFFFFFFFFFFFFFFFFFFFFFFFFFFFFFFFFF AND SUB PUSH2 0x1285 JUMPI PUSH1 0x40 MLOAD PUSH32 0x8C379A000000000000000000000000000000000000000000000000000000000 DUP2 MSTORE PUSH1 0x4 ADD PUSH2 0x127C SWAP1 PUSH2 0x3A19 JUMP JUMPDEST PUSH1 0x40 MLOAD DUP1 SWAP2 SUB SWAP1 REVERT JUMPDEST PUSH1 0x0 DUP2 PUSH20 0xFFFFFFFFFFFFFFFFFFFFFFFFFFFFFFFFFFFFFFFF AND PUSH4 0x70A08231 ADDRESS PUSH1 0x40 MLOAD DUP3 PUSH4 0xFFFFFFFF AND PUSH1 0xE0 SHL DUP2 MSTORE PUSH1 0x4 ADD PUSH2 0x12C0 SWAP2 SWAP1 PUSH2 0x3352 JUMP JUMPDEST PUSH1 0x20 PUSH1 0x40 MLOAD DUP1 DUP4 SUB DUP2 DUP7 GAS STATICCALL ISZERO DUP1 ISZERO PUSH2 0x12DD JUMPI RETURNDATASIZE PUSH1 0x0 DUP1 RETURNDATACOPY RETURNDATASIZE PUSH1 0x0 REVERT JUMPDEST POP POP POP POP PUSH1 0x40 MLOAD RETURNDATASIZE PUSH1 0x1F NOT PUSH1 0x1F DUP3 ADD AND DUP3 ADD DUP1 PUSH1 0x40 MSTORE POP DUP2 ADD SWAP1 PUSH2 0x1301 SWAP2 SWAP1 PUSH2 0x395B JUMP JUMPDEST SWAP1 POP PUSH1 0x0 DUP2 GT ISZERO PUSH2 0x133A JUMPI PUSH2 0x1339 PUSH1 0x4 PUSH1 0x1 SWAP1 SLOAD SWAP1 PUSH2 0x100 EXP SWAP1 DIV PUSH20 0xFFFFFFFFFFFFFFFFFFFFFFFFFFFFFFFFFFFFFFFF AND CALLER DUP4 PUSH2 0x2A38 JUMP JUMPDEST JUMPDEST POP POP JUMP JUMPDEST PUSH1 0x0 PUSH32 0x0 PUSH20 0xFFFFFFFFFFFFFFFFFFFFFFFFFFFFFFFFFFFFFFFF AND CALLER PUSH20 0xFFFFFFFFFFFFFFFFFFFFFFFFFFFFFFFFFFFFFFFF AND EQ PUSH2 0x13CE JUMPI PUSH1 0x40 MLOAD PUSH32 0x8C379A000000000000000000000000000000000000000000000000000000000 DUP2 MSTORE PUSH1 0x4 ADD PUSH2 0x13C5 SWAP1 PUSH2 0x3A19 JUMP JUMPDEST PUSH1 0x40 MLOAD DUP1 SWAP2 SUB SWAP1 REVERT JUMPDEST PUSH1 0x4 PUSH1 0x0 SWAP1 SLOAD SWAP1 PUSH2 0x100 EXP SWAP1 DIV PUSH1 0xFF AND ISZERO PUSH2 0x141E JUMPI PUSH1 0x40 MLOAD PUSH32 0x8C379A000000000000000000000000000000000000000000000000000000000 DUP2 MSTORE PUSH1 0x4 ADD PUSH2 0x1415 SWAP1 PUSH2 0x3AAB JUMP JUMPDEST PUSH1 0x40 MLOAD DUP1 SWAP2 SUB SWAP1 REVERT JUMPDEST TIMESTAMP DUP5 LT PUSH2 0x1460 JUMPI PUSH1 0x40 MLOAD PUSH32 0x8C379A000000000000000000000000000000000000000000000000000000000 DUP2 MSTORE PUSH1 0x4 ADD PUSH2 0x1457 SWAP1 PUSH2 0x3B17 JUMP JUMPDEST PUSH1 0x40 MLOAD DUP1 SWAP2 SUB SWAP1 REVERT JUMPDEST DUP6 DUP9 PUSH20 0xFFFFFFFFFFFFFFFFFFFFFFFFFFFFFFFFFFFFFFFF AND PUSH4 0x70A08231 ADDRESS PUSH1 0x40 MLOAD DUP3 PUSH4 0xFFFFFFFF AND PUSH1 0xE0 SHL DUP2 MSTORE PUSH1 0x4 ADD PUSH2 0x149A SWAP2 SWAP1 PUSH2 0x3352 JUMP JUMPDEST PUSH1 0x20 PUSH1 0x40 MLOAD DUP1 DUP4 SUB DUP2 DUP7 GAS STATICCALL ISZERO DUP1 ISZERO PUSH2 0x14B7 JUMPI RETURNDATASIZE PUSH1 0x0 DUP1 RETURNDATACOPY RETURNDATASIZE PUSH1 0x0 REVERT JUMPDEST POP POP POP POP PUSH1 0x40 MLOAD RETURNDATASIZE PUSH1 0x1F NOT PUSH1 0x1F DUP3 ADD AND DUP3 ADD DUP1 PUSH1 0x40 MSTORE POP DUP2 ADD SWAP1 PUSH2 0x14DB SWAP2 SWAP1 PUSH2 0x395B JUMP JUMPDEST LT ISZERO PUSH2 0x151C JUMPI PUSH1 0x40 MLOAD PUSH32 0x8C379A000000000000000000000000000000000000000000000000000000000 DUP2 MSTORE PUSH1 0x4 ADD PUSH2 0x1513 SWAP1 PUSH2 0x3BA9 JUMP JUMPDEST PUSH1 0x40 MLOAD DUP1 SWAP2 SUB SWAP1 REVERT JUMPDEST DUP4 PUSH1 0x3 DUP2 SWAP1 SSTORE POP DUP8 PUSH1 0x4 PUSH1 0x1 PUSH2 0x100 EXP DUP2 SLOAD DUP2 PUSH20 0xFFFFFFFFFFFFFFFFFFFFFFFFFFFFFFFFFFFFFFFF MUL NOT AND SWAP1 DUP4 PUSH20 0xFFFFFFFFFFFFFFFFFFFFFFFFFFFFFFFFFFFFFFFF AND MUL OR SWAP1 SSTORE POP DUP7 PUSH1 0x5 PUSH1 0x0 PUSH2 0x100 EXP DUP2 SLOAD DUP2 PUSH20 0xFFFFFFFFFFFFFFFFFFFFFFFFFFFFFFFFFFFFFFFF MUL NOT AND SWAP1 DUP4 PUSH20 0xFFFFFFFFFFFFFFFFFFFFFFFFFFFFFFFFFFFFFFFF AND MUL OR SWAP1 SSTORE POP DUP6 PUSH1 0x6 DUP2 SWAP1 SSTORE POP DUP5 PUSH1 0x7 DUP2 SWAP1 SSTORE POP DUP9 PUSH1 0x2 PUSH1 0x0 PUSH2 0x100 EXP DUP2 SLOAD DUP2 PUSH1 0xFF MUL NOT AND SWAP1 DUP4 PUSH1 0x2 DUP2 GT ISZERO PUSH2 0x15D8 JUMPI PUSH2 0x15D7 PUSH2 0x37AD JUMP JUMPDEST JUMPDEST MUL OR SWAP1 SSTORE POP DUP3 PUSH1 0x8 PUSH1 0x0 PUSH2 0x100 EXP DUP2 SLOAD DUP2 PUSH1 0xFF MUL NOT AND SWAP1 DUP4 ISZERO ISZERO MUL OR SWAP1 SSTORE POP DUP2 PUSH1 0x2 PUSH1 0x1 PUSH2 0x100 EXP DUP2 SLOAD DUP2 PUSH20 0xFFFFFFFFFFFFFFFFFFFFFFFFFFFFFFFFFFFFFFFF MUL NOT AND SWAP1 DUP4 PUSH20 0xFFFFFFFFFFFFFFFFFFFFFFFFFFFFFFFFFFFFFFFF AND MUL OR SWAP1 SSTORE POP PUSH1 0x1 PUSH1 0x4 PUSH1 0x0 PUSH2 0x100 EXP DUP2 SLOAD DUP2 PUSH1 0xFF MUL NOT AND SWAP1 DUP4 ISZERO ISZERO MUL OR SWAP1 SSTORE POP PUSH1 0x4 PUSH1 0x0 SWAP1 SLOAD SWAP1 PUSH2 0x100 EXP SWAP1 DIV PUSH1 0xFF AND SWAP1 POP SWAP9 SWAP8 POP POP POP POP POP POP POP POP JUMP JUMPDEST PUSH2 0x1679 PUSH2 0x2930 JUMP JUMPDEST PUSH20 0xFFFFFFFFFFFFFFFFFFFFFFFFFFFFFFFFFFFFFFFF AND PUSH2 0x1697 PUSH2 0x16F9 JUMP JUMPDEST PUSH20 0xFFFFFFFFFFFFFFFFFFFFFFFFFFFFFFFFFFFFFFFF AND EQ PUSH2 0x16ED JUMPI PUSH1 0x40 MLOAD PUSH32 0x8C379A000000000000000000000000000000000000000000000000000000000 DUP2 MSTORE PUSH1 0x4 ADD PUSH2 0x16E4 SWAP1 PUSH2 0x3926 JUMP JUMPDEST PUSH1 0x40 MLOAD DUP1 SWAP2 SUB SWAP1 REVERT JUMPDEST PUSH2 0x16F7 PUSH1 0x0 PUSH2 0x2E9F JUMP JUMPDEST JUMP JUMPDEST PUSH1 0x0 DUP1 PUSH1 0x0 SWAP1 SLOAD SWAP1 PUSH2 0x100 EXP SWAP1 DIV PUSH20 0xFFFFFFFFFFFFFFFFFFFFFFFFFFFFFFFFFFFFFFFF AND SWAP1 POP SWAP1 JUMP JUMPDEST TIMESTAMP PUSH1 0x3 SLOAD LT ISZERO DUP1 ISZERO PUSH2 0x1737 JUMPI POP PUSH1 0x7 SLOAD PUSH1 0x1 SLOAD LT JUMPDEST PUSH2 0x1776 JUMPI PUSH1 0x40 MLOAD PUSH32 0x8C379A000000000000000000000000000000000000000000000000000000000 DUP2 MSTORE PUSH1 0x4 ADD PUSH2 0x176D SWAP1 PUSH2 0x35BB JUMP JUMPDEST PUSH1 0x40 MLOAD DUP1 SWAP2 SUB SWAP1 REVERT JUMPDEST PUSH1 0x4 PUSH1 0x0 SWAP1 SLOAD SWAP1 PUSH2 0x100 EXP SWAP1 DIV PUSH1 0xFF AND PUSH2 0x17C5 JUMPI PUSH1 0x40 MLOAD PUSH32 0x8C379A000000000000000000000000000000000000000000000000000000000 DUP2 MSTORE PUSH1 0x4 ADD PUSH2 0x17BC SWAP1 PUSH2 0x3627 JUMP JUMPDEST PUSH1 0x40 MLOAD DUP1 SWAP2 SUB SWAP1 REVERT JUMPDEST PUSH1 0x0 PUSH32 0x0 SWAP1 POP DUP1 PUSH20 0xFFFFFFFFFFFFFFFFFFFFFFFFFFFFFFFFFFFFFFFF AND PUSH4 0xB187BD26 PUSH1 0x40 MLOAD DUP2 PUSH4 0xFFFFFFFF AND PUSH1 0xE0 SHL DUP2 MSTORE PUSH1 0x4 ADD PUSH1 0x20 PUSH1 0x40 MLOAD DUP1 DUP4 SUB DUP2 DUP7 GAS STATICCALL ISZERO DUP1 ISZERO PUSH2 0x1835 JUMPI RETURNDATASIZE PUSH1 0x0 DUP1 RETURNDATACOPY RETURNDATASIZE PUSH1 0x0 REVERT JUMPDEST POP POP POP POP PUSH1 0x40 MLOAD RETURNDATASIZE PUSH1 0x1F NOT PUSH1 0x1F DUP3 ADD AND DUP3 ADD DUP1 PUSH1 0x40 MSTORE POP DUP2 ADD SWAP1 PUSH2 0x1859 SWAP2 SWAP1 PUSH2 0x365C JUMP JUMPDEST ISZERO PUSH2 0x1899 JUMPI PUSH1 0x40 MLOAD PUSH32 0x8C379A000000000000000000000000000000000000000000000000000000000 DUP2 MSTORE PUSH1 0x4 ADD PUSH2 0x1890 SWAP1 PUSH2 0x36FB JUMP JUMPDEST PUSH1 0x40 MLOAD DUP1 SWAP2 SUB SWAP1 REVERT JUMPDEST PUSH1 0x0 PUSH1 0x2 PUSH1 0x0 SWAP1 SLOAD SWAP1 PUSH2 0x100 EXP SWAP1 DIV PUSH1 0xFF AND PUSH1 0x2 DUP2 GT ISZERO PUSH2 0x18BD JUMPI PUSH2 0x18BC PUSH2 0x37AD JUMP JUMPDEST JUMPDEST DUP2 PUSH1 0x2 DUP2 GT ISZERO PUSH2 0x18D0 JUMPI PUSH2 0x18CF PUSH2 0x37AD JUMP JUMPDEST JUMPDEST EQ PUSH2 0x1910 JUMPI PUSH1 0x40 MLOAD PUSH32 0x8C379A000000000000000000000000000000000000000000000000000000000 DUP2 MSTORE PUSH1 0x4 ADD PUSH2 0x1907 SWAP1 PUSH2 0x384E JUMP JUMPDEST PUSH1 0x40 MLOAD DUP1 SWAP2 SUB SWAP1 REVERT JUMPDEST PUSH2 0x191B PUSH1 0x7 SLOAD PUSH2 0x21D0 JUMP JUMPDEST POP POP JUMP JUMPDEST PUSH1 0x0 DUP1 PUSH1 0x4 PUSH1 0x0 SWAP1 SLOAD SWAP1 PUSH2 0x100 EXP SWAP1 DIV PUSH1 0xFF AND PUSH2 0x1971 JUMPI PUSH1 0x40 MLOAD PUSH32 0x8C379A000000000000000000000000000000000000000000000000000000000 DUP2 MSTORE PUSH1 0x4 ADD PUSH2 0x1968 SWAP1 PUSH2 0x3627 JUMP JUMPDEST PUSH1 0x40 MLOAD DUP1 SWAP2 SUB SWAP1 REVERT JUMPDEST PUSH1 0x4 PUSH1 0x1 SWAP1 SLOAD SWAP1 PUSH2 0x100 EXP SWAP1 DIV PUSH20 0xFFFFFFFFFFFFFFFFFFFFFFFFFFFFFFFFFFFFFFFF AND PUSH1 0x5 PUSH1 0x0 SWAP1 SLOAD SWAP1 PUSH2 0x100 EXP SWAP1 DIV PUSH20 0xFFFFFFFFFFFFFFFFFFFFFFFFFFFFFFFFFFFFFFFF AND SWAP2 POP SWAP2 POP SWAP1 SWAP2 JUMP JUMPDEST TIMESTAMP PUSH1 0x3 SLOAD LT ISZERO DUP1 ISZERO PUSH2 0x19D4 JUMPI POP PUSH1 0x7 SLOAD PUSH1 0x1 SLOAD LT JUMPDEST PUSH2 0x1A13 JUMPI PUSH1 0x40 MLOAD PUSH32 0x8C379A000000000000000000000000000000000000000000000000000000000 DUP2 MSTORE PUSH1 0x4 ADD PUSH2 0x1A0A SWAP1 PUSH2 0x35BB JUMP JUMPDEST PUSH1 0x40 MLOAD DUP1 SWAP2 SUB SWAP1 REVERT JUMPDEST PUSH1 0x4 PUSH1 0x0 SWAP1 SLOAD SWAP1 PUSH2 0x100 EXP SWAP1 DIV PUSH1 0xFF AND PUSH2 0x1A62 JUMPI PUSH1 0x40 MLOAD PUSH32 0x8C379A000000000000000000000000000000000000000000000000000000000 DUP2 MSTORE PUSH1 0x4 ADD PUSH2 0x1A59 SWAP1 PUSH2 0x3627 JUMP JUMPDEST PUSH1 0x40 MLOAD DUP1 SWAP2 SUB SWAP1 REVERT JUMPDEST PUSH1 0x0 PUSH32 0x0 SWAP1 POP DUP1 PUSH20 0xFFFFFFFFFFFFFFFFFFFFFFFFFFFFFFFFFFFFFFFF AND PUSH4 0xB187BD26 PUSH1 0x40 MLOAD DUP2 PUSH4 0xFFFFFFFF AND PUSH1 0xE0 SHL DUP2 MSTORE PUSH1 0x4 ADD PUSH1 0x20 PUSH1 0x40 MLOAD DUP1 DUP4 SUB DUP2 DUP7 GAS STATICCALL ISZERO DUP1 ISZERO PUSH2 0x1AD2 JUMPI RETURNDATASIZE PUSH1 0x0 DUP1 RETURNDATACOPY RETURNDATASIZE PUSH1 0x0 REVERT JUMPDEST POP POP POP POP PUSH1 0x40 MLOAD RETURNDATASIZE PUSH1 0x1F NOT PUSH1 0x1F DUP3 ADD AND DUP3 ADD DUP1 PUSH1 0x40 MSTORE POP DUP2 ADD SWAP1 PUSH2 0x1AF6 SWAP2 SWAP1 PUSH2 0x365C JUMP JUMPDEST ISZERO PUSH2 0x1B36 JUMPI PUSH1 0x40 MLOAD PUSH32 0x8C379A000000000000000000000000000000000000000000000000000000000 DUP2 MSTORE PUSH1 0x4 ADD PUSH2 0x1B2D SWAP1 PUSH2 0x36FB JUMP JUMPDEST PUSH1 0x40 MLOAD DUP1 SWAP2 SUB SWAP1 REVERT JUMPDEST PUSH1 0x2 DUP1 PUSH1 0x0 SWAP1 SLOAD SWAP1 PUSH2 0x100 EXP SWAP1 DIV PUSH1 0xFF AND PUSH1 0x2 DUP2 GT ISZERO PUSH2 0x1B59 JUMPI PUSH2 0x1B58 PUSH2 0x37AD JUMP JUMPDEST JUMPDEST DUP2 PUSH1 0x2 DUP2 GT ISZERO PUSH2 0x1B6C JUMPI PUSH2 0x1B6B PUSH2 0x37AD JUMP JUMPDEST JUMPDEST EQ PUSH2 0x1BAC JUMPI PUSH1 0x40 MLOAD PUSH32 0x8C379A000000000000000000000000000000000000000000000000000000000 DUP2 MSTORE PUSH1 0x4 ADD PUSH2 0x1BA3 SWAP1 PUSH2 0x384E JUMP JUMPDEST PUSH1 0x40 MLOAD DUP1 SWAP2 SUB SWAP1 REVERT JUMPDEST PUSH2 0x1BB7 PUSH1 0x7 SLOAD PUSH2 0x25B8 JUMP JUMPDEST POP POP JUMP JUMPDEST PUSH32 0x0 DUP2 JUMP JUMPDEST TIMESTAMP PUSH1 0x3 SLOAD LT ISZERO DUP1 ISZERO PUSH2 0x1BF4 JUMPI POP PUSH1 0x7 SLOAD PUSH1 0x1 SLOAD LT JUMPDEST PUSH2 0x1C33 JUMPI PUSH1 0x40 MLOAD PUSH32 0x8C379A000000000000000000000000000000000000000000000000000000000 DUP2 MSTORE PUSH1 0x4 ADD PUSH2 0x1C2A SWAP1 PUSH2 0x35BB JUMP JUMPDEST PUSH1 0x40 MLOAD DUP1 SWAP2 SUB SWAP1 REVERT JUMPDEST PUSH1 0x4 PUSH1 0x0 SWAP1 SLOAD SWAP1 PUSH2 0x100 EXP SWAP1 DIV PUSH1 0xFF AND PUSH2 0x1C82 JUMPI PUSH1 0x40 MLOAD PUSH32 0x8C379A000000000000000000000000000000000000000000000000000000000 DUP2 MSTORE PUSH1 0x4 ADD PUSH2 0x1C79 SWAP1 PUSH2 0x3627 JUMP JUMPDEST PUSH1 0x40 MLOAD DUP1 SWAP2 SUB SWAP1 REVERT JUMPDEST PUSH1 0x0 PUSH32 0x0 SWAP1 POP DUP1 PUSH20 0xFFFFFFFFFFFFFFFFFFFFFFFFFFFFFFFFFFFFFFFF AND PUSH4 0xB187BD26 PUSH1 0x40 MLOAD DUP2 PUSH4 0xFFFFFFFF AND PUSH1 0xE0 SHL DUP2 MSTORE PUSH1 0x4 ADD PUSH1 0x20 PUSH1 0x40 MLOAD DUP1 DUP4 SUB DUP2 DUP7 GAS STATICCALL ISZERO DUP1 ISZERO PUSH2 0x1CF2 JUMPI RETURNDATASIZE PUSH1 0x0 DUP1 RETURNDATACOPY RETURNDATASIZE PUSH1 0x0 REVERT JUMPDEST POP POP POP POP PUSH1 0x40 MLOAD RETURNDATASIZE PUSH1 0x1F NOT PUSH1 0x1F DUP3 ADD AND DUP3 ADD DUP1 PUSH1 0x40 MSTORE POP DUP2 ADD SWAP1 PUSH2 0x1D16 SWAP2 SWAP1 PUSH2 0x365C JUMP JUMPDEST ISZERO PUSH2 0x1D56 JUMPI PUSH1 0x40 MLOAD PUSH32 0x8C379A000000000000000000000000000000000000000000000000000000000 DUP2 MSTORE PUSH1 0x4 ADD PUSH2 0x1D4D SWAP1 PUSH2 0x36FB JUMP JUMPDEST PUSH1 0x40 MLOAD DUP1 SWAP2 SUB SWAP1 REVERT JUMPDEST PUSH1 0x1 PUSH1 0x2 PUSH1 0x0 SWAP1 SLOAD SWAP1 PUSH2 0x100 EXP SWAP1 DIV PUSH1 0xFF AND PUSH1 0x2 DUP2 GT ISZERO PUSH2 0x1D7A JUMPI PUSH2 0x1D79 PUSH2 0x37AD JUMP JUMPDEST JUMPDEST DUP2 PUSH1 0x2 DUP2 GT ISZERO PUSH2 0x1D8D JUMPI PUSH2 0x1D8C PUSH2 0x37AD JUMP JUMPDEST JUMPDEST EQ PUSH2 0x1DCD JUMPI PUSH1 0x40 MLOAD PUSH32 0x8C379A000000000000000000000000000000000000000000000000000000000 DUP2 MSTORE PUSH1 0x4 ADD PUSH2 0x1DC4 SWAP1 PUSH2 0x384E JUMP JUMPDEST PUSH1 0x40 MLOAD DUP1 SWAP2 SUB SWAP1 REVERT JUMPDEST PUSH2 0x1DD8 PUSH1 0x7 SLOAD PUSH2 0x2B6E JUMP JUMPDEST POP POP JUMP JUMPDEST PUSH1 0x0 PUSH1 0x4 PUSH1 0x0 SWAP1 SLOAD SWAP1 PUSH2 0x100 EXP SWAP1 DIV PUSH1 0xFF AND PUSH2 0x1E2D JUMPI PUSH1 0x40 MLOAD PUSH32 0x8C379A000000000000000000000000000000000000000000000000000000000 DUP2 MSTORE PUSH1 0x4 ADD PUSH2 0x1E24 SWAP1 PUSH2 0x3627 JUMP JUMPDEST PUSH1 0x40 MLOAD DUP1 SWAP2 SUB SWAP1 REVERT JUMPDEST PUSH2 0x1E36 DUP3 PUSH2 0x2F63 JUMP JUMPDEST SWAP1 POP SWAP2 SWAP1 POP JUMP JUMPDEST PUSH1 0x60 DUP1 PUSH1 0x60 PUSH1 0x4 PUSH1 0x0 SWAP1 SLOAD SWAP1 PUSH2 0x100 EXP SWAP1 DIV PUSH1 0xFF AND PUSH2 0x1E91 JUMPI PUSH1 0x40 MLOAD PUSH32 0x8C379A000000000000000000000000000000000000000000000000000000000 DUP2 MSTORE PUSH1 0x4 ADD PUSH2 0x1E88 SWAP1 PUSH2 0x3627 JUMP JUMPDEST PUSH1 0x40 MLOAD DUP1 SWAP2 SUB SWAP1 REVERT JUMPDEST PUSH1 0x0 PUSH1 0x9 DUP1 SLOAD SWAP1 POP PUSH8 0xFFFFFFFFFFFFFFFF DUP2 GT ISZERO PUSH2 0x1EB2 JUMPI PUSH2 0x1EB1 PUSH2 0x3BC9 JUMP JUMPDEST JUMPDEST PUSH1 0x40 MLOAD SWAP1 DUP1 DUP3 MSTORE DUP1 PUSH1 0x20 MUL PUSH1 0x20 ADD DUP3 ADD PUSH1 0x40 MSTORE DUP1 ISZERO PUSH2 0x1EE0 JUMPI DUP2 PUSH1 0x20 ADD PUSH1 0x20 DUP3 MUL DUP1 CALLDATASIZE DUP4 CALLDATACOPY DUP1 DUP3 ADD SWAP2 POP POP SWAP1 POP JUMPDEST POP SWAP1 POP PUSH1 0x0 PUSH1 0x9 DUP1 SLOAD SWAP1 POP PUSH8 0xFFFFFFFFFFFFFFFF DUP2 GT ISZERO PUSH2 0x1F04 JUMPI PUSH2 0x1F03 PUSH2 0x3BC9 JUMP JUMPDEST JUMPDEST PUSH1 0x40 MLOAD SWAP1 DUP1 DUP3 MSTORE DUP1 PUSH1 0x20 MUL PUSH1 0x20 ADD DUP3 ADD PUSH1 0x40 MSTORE DUP1 ISZERO PUSH2 0x1F32 JUMPI DUP2 PUSH1 0x20 ADD PUSH1 0x20 DUP3 MUL DUP1 CALLDATASIZE DUP4 CALLDATACOPY DUP1 DUP3 ADD SWAP2 POP POP SWAP1 POP JUMPDEST POP SWAP1 POP PUSH1 0x0 PUSH1 0x9 DUP1 SLOAD SWAP1 POP PUSH8 0xFFFFFFFFFFFFFFFF DUP2 GT ISZERO PUSH2 0x1F56 JUMPI PUSH2 0x1F55 PUSH2 0x3BC9 JUMP JUMPDEST JUMPDEST PUSH1 0x40 MLOAD SWAP1 DUP1 DUP3 MSTORE DUP1 PUSH1 0x20 MUL PUSH1 0x20 ADD DUP3 ADD PUSH1 0x40 MSTORE DUP1 ISZERO PUSH2 0x1F84 JUMPI DUP2 PUSH1 0x20 ADD PUSH1 0x20 DUP3 MUL DUP1 CALLDATASIZE DUP4 CALLDATACOPY DUP1 DUP3 ADD SWAP2 POP POP SWAP1 POP JUMPDEST POP SWAP1 POP PUSH1 0x0 JUMPDEST PUSH1 0x9 DUP1 SLOAD SWAP1 POP DUP2 LT ISZERO PUSH2 0x20C7 JUMPI PUSH1 0x9 DUP2 DUP2 SLOAD DUP2 LT PUSH2 0x1FAB JUMPI PUSH2 0x1FAA PUSH2 0x3BF8 JUMP JUMPDEST JUMPDEST SWAP1 PUSH1 0x0 MSTORE PUSH1 0x20 PUSH1 0x0 KECCAK256 SWAP1 PUSH1 0x3 MUL ADD PUSH1 0x0 ADD PUSH1 0x0 SWAP1 SLOAD SWAP1 PUSH2 0x100 EXP SWAP1 DIV PUSH20 0xFFFFFFFFFFFFFFFFFFFFFFFFFFFFFFFFFFFFFFFF AND DUP5 DUP3 DUP2 MLOAD DUP2 LT PUSH2 0x1FF0 JUMPI PUSH2 0x1FEF PUSH2 0x3BF8 JUMP JUMPDEST JUMPDEST PUSH1 0x20 MUL PUSH1 0x20 ADD ADD SWAP1 PUSH20 0xFFFFFFFFFFFFFFFFFFFFFFFFFFFFFFFFFFFFFFFF AND SWAP1 DUP2 PUSH20 0xFFFFFFFFFFFFFFFFFFFFFFFFFFFFFFFFFFFFFFFF AND DUP2 MSTORE POP POP PUSH1 0x9 DUP2 DUP2 SLOAD DUP2 LT PUSH2 0x203E JUMPI PUSH2 0x203D PUSH2 0x3BF8 JUMP JUMPDEST JUMPDEST SWAP1 PUSH1 0x0 MSTORE PUSH1 0x20 PUSH1 0x0 KECCAK256 SWAP1 PUSH1 0x3 MUL ADD PUSH1 0x1 ADD SLOAD DUP4 DUP3 DUP2 MLOAD DUP2 LT PUSH2 0x2063 JUMPI PUSH2 0x2062 PUSH2 0x3BF8 JUMP JUMPDEST JUMPDEST PUSH1 0x20 MUL PUSH1 0x20 ADD ADD DUP2 DUP2 MSTORE POP POP PUSH1 0x9 DUP2 DUP2 SLOAD DUP2 LT PUSH2 0x2083 JUMPI PUSH2 0x2082 PUSH2 0x3BF8 JUMP JUMPDEST JUMPDEST SWAP1 PUSH1 0x0 MSTORE PUSH1 0x20 PUSH1 0x0 KECCAK256 SWAP1 PUSH1 0x3 MUL ADD PUSH1 0x2 ADD SLOAD DUP3 DUP3 DUP2 MLOAD DUP2 LT PUSH2 0x20A8 JUMPI PUSH2 0x20A7 PUSH2 0x3BF8 JUMP JUMPDEST JUMPDEST PUSH1 0x20 MUL PUSH1 0x20 ADD ADD DUP2 DUP2 MSTORE POP POP DUP1 DUP1 PUSH2 0x20BF SWAP1 PUSH2 0x3C56 JUMP JUMPDEST SWAP2 POP POP PUSH2 0x1F8A JUMP JUMPDEST POP DUP3 DUP3 DUP3 SWAP6 POP SWAP6 POP SWAP6 POP POP POP POP SWAP1 SWAP2 SWAP3 JUMP JUMPDEST PUSH2 0x20E1 PUSH2 0x2930 JUMP JUMPDEST PUSH20 0xFFFFFFFFFFFFFFFFFFFFFFFFFFFFFFFFFFFFFFFF AND PUSH2 0x20FF PUSH2 0x16F9 JUMP JUMPDEST PUSH20 0xFFFFFFFFFFFFFFFFFFFFFFFFFFFFFFFFFFFFFFFF AND EQ PUSH2 0x2155 JUMPI PUSH1 0x40 MLOAD PUSH32 0x8C379A000000000000000000000000000000000000000000000000000000000 DUP2 MSTORE PUSH1 0x4 ADD PUSH2 0x214C SWAP1 PUSH2 0x3926 JUMP JUMPDEST PUSH1 0x40 MLOAD DUP1 SWAP2 SUB SWAP1 REVERT JUMPDEST PUSH1 0x0 PUSH20 0xFFFFFFFFFFFFFFFFFFFFFFFFFFFFFFFFFFFFFFFF AND DUP2 PUSH20 0xFFFFFFFFFFFFFFFFFFFFFFFFFFFFFFFFFFFFFFFF AND SUB PUSH2 0x21C4 JUMPI PUSH1 0x40 MLOAD PUSH32 0x8C379A000000000000000000000000000000000000000000000000000000000 DUP2 MSTORE PUSH1 0x4 ADD PUSH2 0x21BB SWAP1 PUSH2 0x3D10 JUMP JUMPDEST PUSH1 0x40 MLOAD DUP1 SWAP2 SUB SWAP1 REVERT JUMPDEST PUSH2 0x21CD DUP2 PUSH2 0x2E9F JUMP JUMPDEST POP JUMP JUMPDEST DUP1 PUSH1 0x5 PUSH1 0x0 SWAP1 SLOAD SWAP1 PUSH2 0x100 EXP SWAP1 DIV PUSH20 0xFFFFFFFFFFFFFFFFFFFFFFFFFFFFFFFFFFFFFFFF AND PUSH20 0xFFFFFFFFFFFFFFFFFFFFFFFFFFFFFFFFFFFFFFFF AND PUSH4 0x70A08231 CALLER PUSH1 0x40 MLOAD DUP3 PUSH4 0xFFFFFFFF AND PUSH1 0xE0 SHL DUP2 MSTORE PUSH1 0x4 ADD PUSH2 0x222C SWAP2 SWAP1 PUSH2 0x3352 JUMP JUMPDEST PUSH1 0x20 PUSH1 0x40 MLOAD DUP1 DUP4 SUB DUP2 DUP7 GAS STATICCALL ISZERO DUP1 ISZERO PUSH2 0x2249 JUMPI RETURNDATASIZE PUSH1 0x0 DUP1 RETURNDATACOPY RETURNDATASIZE PUSH1 0x0 REVERT JUMPDEST POP POP POP POP PUSH1 0x40 MLOAD RETURNDATASIZE PUSH1 0x1F NOT PUSH1 0x1F DUP3 ADD AND DUP3 ADD DUP1 PUSH1 0x40 MSTORE POP DUP2 ADD SWAP1 PUSH2 0x226D SWAP2 SWAP1 PUSH2 0x395B JUMP JUMPDEST LT ISZERO PUSH2 0x22AE JUMPI PUSH1 0x40 MLOAD PUSH32 0x8C379A000000000000000000000000000000000000000000000000000000000 DUP2 MSTORE PUSH1 0x4 ADD PUSH2 0x22A5 SWAP1 PUSH2 0x3DA2 JUMP JUMPDEST PUSH1 0x40 MLOAD DUP1 SWAP2 SUB SWAP1 REVERT JUMPDEST PUSH1 0x0 PUSH2 0x22B9 DUP3 PUSH2 0x2F63 JUMP JUMPDEST SWAP1 POP PUSH1 0x0 PUSH1 0x2 PUSH1 0x1 SWAP1 SLOAD SWAP1 PUSH2 0x100 EXP SWAP1 DIV PUSH20 0xFFFFFFFFFFFFFFFFFFFFFFFFFFFFFFFFFFFFFFFF AND SWAP1 POP DUP2 DUP2 PUSH20 0xFFFFFFFFFFFFFFFFFFFFFFFFFFFFFFFFFFFFFFFF AND PUSH4 0x70A08231 ADDRESS PUSH1 0x40 MLOAD DUP3 PUSH4 0xFFFFFFFF AND PUSH1 0xE0 SHL DUP2 MSTORE PUSH1 0x4 ADD PUSH2 0x231C SWAP2 SWAP1 PUSH2 0x3352 JUMP JUMPDEST PUSH1 0x20 PUSH1 0x40 MLOAD DUP1 DUP4 SUB DUP2 DUP7 GAS STATICCALL ISZERO DUP1 ISZERO PUSH2 0x2339 JUMPI RETURNDATASIZE PUSH1 0x0 DUP1 RETURNDATACOPY RETURNDATASIZE PUSH1 0x0 REVERT JUMPDEST POP POP POP POP PUSH1 0x40 MLOAD RETURNDATASIZE PUSH1 0x1F NOT PUSH1 0x1F DUP3 ADD AND DUP3 ADD DUP1 PUSH1 0x40 MSTORE POP DUP2 ADD SWAP1 PUSH2 0x235D SWAP2 SWAP1 PUSH2 0x395B JUMP JUMPDEST LT ISZERO PUSH2 0x239E JUMPI PUSH1 0x40 MLOAD PUSH32 0x8C379A000000000000000000000000000000000000000000000000000000000 DUP2 MSTORE PUSH1 0x4 ADD PUSH2 0x2395 SWAP1 PUSH2 0x3E34 JUMP JUMPDEST PUSH1 0x40 MLOAD DUP1 SWAP2 SUB SWAP1 REVERT JUMPDEST PUSH1 0x2 PUSH1 0x1 SWAP1 SLOAD SWAP1 PUSH2 0x100 EXP SWAP1 DIV PUSH20 0xFFFFFFFFFFFFFFFFFFFFFFFFFFFFFFFFFFFFFFFF AND PUSH20 0xFFFFFFFFFFFFFFFFFFFFFFFFFFFFFFFFFFFFFFFF AND PUSH4 0x2E1A7D4D DUP4 PUSH1 0x40 MLOAD DUP3 PUSH4 0xFFFFFFFF AND PUSH1 0xE0 SHL DUP2 MSTORE PUSH1 0x4 ADD PUSH2 0x23F9 SWAP2 SWAP1 PUSH2 0x3196 JUMP JUMPDEST PUSH1 0x0 PUSH1 0x40 MLOAD DUP1 DUP4 SUB DUP2 PUSH1 0x0 DUP8 DUP1 EXTCODESIZE ISZERO DUP1 ISZERO PUSH2 0x2413 JUMPI PUSH1 0x0 DUP1 REVERT JUMPDEST POP GAS CALL ISZERO DUP1 ISZERO PUSH2 0x2427 JUMPI RETURNDATASIZE PUSH1 0x0 DUP1 RETURNDATACOPY RETURNDATASIZE PUSH1 0x0 REVERT JUMPDEST POP POP POP POP PUSH2 0x2459 PUSH1 0x5 PUSH1 0x0 SWAP1 SLOAD SWAP1 PUSH2 0x100 EXP SWAP1 DIV PUSH20 0xFFFFFFFFFFFFFFFFFFFFFFFFFFFFFFFFFFFFFFFF AND CALLER ADDRESS DUP7 PUSH2 0x2F87 JUMP JUMPDEST PUSH2 0x2463 CALLER DUP4 PUSH2 0x2938 JUMP JUMPDEST PUSH1 0x9 PUSH1 0x40 MLOAD DUP1 PUSH1 0x60 ADD PUSH1 0x40 MSTORE DUP1 CALLER PUSH20 0xFFFFFFFFFFFFFFFFFFFFFFFFFFFFFFFFFFFFFFFF AND DUP2 MSTORE PUSH1 0x20 ADD DUP6 DUP2 MSTORE PUSH1 0x20 ADD DUP5 DUP2 MSTORE POP SWAP1 DUP1 PUSH1 0x1 DUP2 SLOAD ADD DUP1 DUP3 SSTORE DUP1 SWAP2 POP POP PUSH1 0x1 SWAP1 SUB SWAP1 PUSH1 0x0 MSTORE PUSH1 0x20 PUSH1 0x0 KECCAK256 SWAP1 PUSH1 0x3 MUL ADD PUSH1 0x0 SWAP1 SWAP2 SWAP1 SWAP2 SWAP1 SWAP2 POP PUSH1 0x0 DUP3 ADD MLOAD DUP2 PUSH1 0x0 ADD PUSH1 0x0 PUSH2 0x100 EXP DUP2 SLOAD DUP2 PUSH20 0xFFFFFFFFFFFFFFFFFFFFFFFFFFFFFFFFFFFFFFFF MUL NOT AND SWAP1 DUP4 PUSH20 0xFFFFFFFFFFFFFFFFFFFFFFFFFFFFFFFFFFFFFFFF AND MUL OR SWAP1 SSTORE POP PUSH1 0x20 DUP3 ADD MLOAD DUP2 PUSH1 0x1 ADD SSTORE PUSH1 0x40 DUP3 ADD MLOAD DUP2 PUSH1 0x2 ADD SSTORE POP POP PUSH1 0x0 PUSH32 0x0 SWAP1 POP DUP1 PUSH20 0xFFFFFFFFFFFFFFFFFFFFFFFFFFFFFFFFFFFFFFFF AND PUSH4 0xF52701B7 ADDRESS CALLER DUP8 DUP8 PUSH1 0x40 MLOAD DUP6 PUSH4 0xFFFFFFFF AND PUSH1 0xE0 SHL DUP2 MSTORE PUSH1 0x4 ADD PUSH2 0x2580 SWAP5 SWAP4 SWAP3 SWAP2 SWAP1 PUSH2 0x3988 JUMP JUMPDEST PUSH1 0x0 PUSH1 0x40 MLOAD DUP1 DUP4 SUB DUP2 PUSH1 0x0 DUP8 DUP1 EXTCODESIZE ISZERO DUP1 ISZERO PUSH2 0x259A JUMPI PUSH1 0x0 DUP1 REVERT JUMPDEST POP GAS CALL ISZERO DUP1 ISZERO PUSH2 0x25AE JUMPI RETURNDATASIZE PUSH1 0x0 DUP1 RETURNDATACOPY RETURNDATASIZE PUSH1 0x0 REVERT JUMPDEST POP POP POP POP POP POP POP POP JUMP JUMPDEST DUP1 PUSH1 0x5 PUSH1 0x0 SWAP1 SLOAD SWAP1 PUSH2 0x100 EXP SWAP1 DIV PUSH20 0xFFFFFFFFFFFFFFFFFFFFFFFFFFFFFFFFFFFFFFFF AND PUSH20 0xFFFFFFFFFFFFFFFFFFFFFFFFFFFFFFFFFFFFFFFF AND PUSH4 0x70A08231 CALLER PUSH1 0x40 MLOAD DUP3 PUSH4 0xFFFFFFFF AND PUSH1 0xE0 SHL DUP2 MSTORE PUSH1 0x4 ADD PUSH2 0x2614 SWAP2 SWAP1 PUSH2 0x3352 JUMP JUMPDEST PUSH1 0x20 PUSH1 0x40 MLOAD DUP1 DUP4 SUB DUP2 DUP7 GAS STATICCALL ISZERO DUP1 ISZERO PUSH2 0x2631 JUMPI RETURNDATASIZE PUSH1 0x0 DUP1 RETURNDATACOPY RETURNDATASIZE PUSH1 0x0 REVERT JUMPDEST POP POP POP POP PUSH1 0x40 MLOAD RETURNDATASIZE PUSH1 0x1F NOT PUSH1 0x1F DUP3 ADD AND DUP3 ADD DUP1 PUSH1 0x40 MSTORE POP DUP2 ADD SWAP1 PUSH2 0x2655 SWAP2 SWAP1 PUSH2 0x395B JUMP JUMPDEST LT ISZERO PUSH2 0x2696 JUMPI PUSH1 0x40 MLOAD PUSH32 0x8C379A000000000000000000000000000000000000000000000000000000000 DUP2 MSTORE PUSH1 0x4 ADD PUSH2 0x268D SWAP1 PUSH2 0x3DA2 JUMP JUMPDEST PUSH1 0x40 MLOAD DUP1 SWAP2 SUB SWAP1 REVERT JUMPDEST PUSH1 0x0 PUSH2 0x26A1 DUP3 PUSH2 0x2F63 JUMP JUMPDEST SWAP1 POP DUP1 PUSH1 0x4 PUSH1 0x1 SWAP1 SLOAD SWAP1 PUSH2 0x100 EXP SWAP1 DIV PUSH20 0xFFFFFFFFFFFFFFFFFFFFFFFFFFFFFFFFFFFFFFFF AND PUSH20 0xFFFFFFFFFFFFFFFFFFFFFFFFFFFFFFFFFFFFFFFF AND PUSH4 0x70A08231 ADDRESS PUSH1 0x40 MLOAD DUP3 PUSH4 0xFFFFFFFF AND PUSH1 0xE0 SHL DUP2 MSTORE PUSH1 0x4 ADD PUSH2 0x26FF SWAP2 SWAP1 PUSH2 0x3352 JUMP JUMPDEST PUSH1 0x20 PUSH1 0x40 MLOAD DUP1 DUP4 SUB DUP2 DUP7 GAS STATICCALL ISZERO DUP1 ISZERO PUSH2 0x271C JUMPI RETURNDATASIZE PUSH1 0x0 DUP1 RETURNDATACOPY RETURNDATASIZE PUSH1 0x0 REVERT JUMPDEST POP POP POP POP PUSH1 0x40 MLOAD RETURNDATASIZE PUSH1 0x1F NOT PUSH1 0x1F DUP3 ADD AND DUP3 ADD DUP1 PUSH1 0x40 MSTORE POP DUP2 ADD SWAP1 PUSH2 0x2740 SWAP2 SWAP1 PUSH2 0x395B JUMP JUMPDEST LT ISZERO PUSH2 0x2781 JUMPI PUSH1 0x40 MLOAD PUSH32 0x8C379A000000000000000000000000000000000000000000000000000000000 DUP2 MSTORE PUSH1 0x4 ADD PUSH2 0x2778 SWAP1 PUSH2 0x3E34 JUMP JUMPDEST PUSH1 0x40 MLOAD DUP1 SWAP2 SUB SWAP1 REVERT JUMPDEST PUSH2 0x27AF PUSH1 0x5 PUSH1 0x0 SWAP1 SLOAD SWAP1 PUSH2 0x100 EXP SWAP1 DIV PUSH20 0xFFFFFFFFFFFFFFFFFFFFFFFFFFFFFFFFFFFFFFFF AND CALLER ADDRESS DUP6 PUSH2 0x2F87 JUMP JUMPDEST PUSH2 0x27DC PUSH1 0x4 PUSH1 0x1 SWAP1 SLOAD SWAP1 PUSH2 0x100 EXP SWAP1 DIV PUSH20 0xFFFFFFFFFFFFFFFFFFFFFFFFFFFFFFFFFFFFFFFF AND CALLER DUP4 PUSH2 0x2A38 JUMP JUMPDEST PUSH1 0x9 PUSH1 0x40 MLOAD DUP1 PUSH1 0x60 ADD PUSH1 0x40 MSTORE DUP1 CALLER PUSH20 0xFFFFFFFFFFFFFFFFFFFFFFFFFFFFFFFFFFFFFFFF AND DUP2 MSTORE PUSH1 0x20 ADD DUP5 DUP2 MSTORE PUSH1 0x20 ADD DUP4 DUP2 MSTORE POP SWAP1 DUP1 PUSH1 0x1 DUP2 SLOAD ADD DUP1 DUP3 SSTORE DUP1 SWAP2 POP POP PUSH1 0x1 SWAP1 SUB SWAP1 PUSH1 0x0 MSTORE PUSH1 0x20 PUSH1 0x0 KECCAK256 SWAP1 PUSH1 0x3 MUL ADD PUSH1 0x0 SWAP1 SWAP2 SWAP1 SWAP2 SWAP1 SWAP2 POP PUSH1 0x0 DUP3 ADD MLOAD DUP2 PUSH1 0x0 ADD PUSH1 0x0 PUSH2 0x100 EXP DUP2 SLOAD DUP2 PUSH20 0xFFFFFFFFFFFFFFFFFFFFFFFFFFFFFFFFFFFFFFFF MUL NOT AND SWAP1 DUP4 PUSH20 0xFFFFFFFFFFFFFFFFFFFFFFFFFFFFFFFFFFFFFFFF AND MUL OR SWAP1 SSTORE POP PUSH1 0x20 DUP3 ADD MLOAD DUP2 PUSH1 0x1 ADD SSTORE PUSH1 0x40 DUP3 ADD MLOAD DUP2 PUSH1 0x2 ADD SSTORE POP POP PUSH1 0x0 PUSH32 0x0 SWAP1 POP DUP1 PUSH20 0xFFFFFFFFFFFFFFFFFFFFFFFFFFFFFFFFFFFFFFFF AND PUSH4 0xF52701B7 ADDRESS CALLER DUP7 DUP7 PUSH1 0x40 MLOAD DUP6 PUSH4 0xFFFFFFFF AND PUSH1 0xE0 SHL DUP2 MSTORE PUSH1 0x4 ADD PUSH2 0x28F9 SWAP5 SWAP4 SWAP3 SWAP2 SWAP1 PUSH2 0x3988 JUMP JUMPDEST PUSH1 0x0 PUSH1 0x40 MLOAD DUP1 DUP4 SUB DUP2 PUSH1 0x0 DUP8 DUP1 EXTCODESIZE ISZERO DUP1 ISZERO PUSH2 0x2913 JUMPI PUSH1 0x0 DUP1 REVERT JUMPDEST POP GAS CALL ISZERO DUP1 ISZERO PUSH2 0x2927 JUMPI RETURNDATASIZE PUSH1 0x0 DUP1 RETURNDATACOPY RETURNDATASIZE PUSH1 0x0 REVERT JUMPDEST POP POP POP POP POP POP POP JUMP JUMPDEST PUSH1 0x0 CALLER SWAP1 POP SWAP1 JUMP JUMPDEST PUSH1 0x0 DUP3 PUSH20 0xFFFFFFFFFFFFFFFFFFFFFFFFFFFFFFFFFFFFFFFF AND DUP3 PUSH1 0x0 PUSH8 0xFFFFFFFFFFFFFFFF DUP2 GT ISZERO PUSH2 0x296D JUMPI PUSH2 0x296C PUSH2 0x3BC9 JUMP JUMPDEST JUMPDEST PUSH1 0x40 MLOAD SWAP1 DUP1 DUP3 MSTORE DUP1 PUSH1 0x1F ADD PUSH1 0x1F NOT AND PUSH1 0x20 ADD DUP3 ADD PUSH1 0x40 MSTORE DUP1 ISZERO PUSH2 0x299F JUMPI DUP2 PUSH1 0x20 ADD PUSH1 0x1 DUP3 MUL DUP1 CALLDATASIZE DUP4 CALLDATACOPY DUP1 DUP3 ADD SWAP2 POP POP SWAP1 POP JUMPDEST POP PUSH1 0x40 MLOAD PUSH2 0x29AD SWAP2 SWAP1 PUSH2 0x3ECE JUMP JUMPDEST PUSH1 0x0 PUSH1 0x40 MLOAD DUP1 DUP4 SUB DUP2 DUP6 DUP8 GAS CALL SWAP3 POP POP POP RETURNDATASIZE DUP1 PUSH1 0x0 DUP2 EQ PUSH2 0x29EA JUMPI PUSH1 0x40 MLOAD SWAP2 POP PUSH1 0x1F NOT PUSH1 0x3F RETURNDATASIZE ADD AND DUP3 ADD PUSH1 0x40 MSTORE RETURNDATASIZE DUP3 MSTORE RETURNDATASIZE PUSH1 0x0 PUSH1 0x20 DUP5 ADD RETURNDATACOPY PUSH2 0x29EF JUMP JUMPDEST PUSH1 0x60 SWAP2 POP JUMPDEST POP POP SWAP1 POP DUP1 PUSH2 0x2A33 JUMPI PUSH1 0x40 MLOAD PUSH32 0x8C379A000000000000000000000000000000000000000000000000000000000 DUP2 MSTORE PUSH1 0x4 ADD PUSH2 0x2A2A SWAP1 PUSH2 0x3F57 JUMP JUMPDEST PUSH1 0x40 MLOAD DUP1 SWAP2 SUB SWAP1 REVERT JUMPDEST POP POP POP JUMP JUMPDEST PUSH1 0x0 DUP1 DUP5 PUSH20 0xFFFFFFFFFFFFFFFFFFFFFFFFFFFFFFFFFFFFFFFF AND PUSH4 0xA9059CBB DUP6 DUP6 PUSH1 0x40 MLOAD PUSH1 0x24 ADD PUSH2 0x2A6A SWAP3 SWAP2 SWAP1 PUSH2 0x3F77 JUMP JUMPDEST PUSH1 0x40 MLOAD PUSH1 0x20 DUP2 DUP4 SUB SUB DUP2 MSTORE SWAP1 PUSH1 0x40 MSTORE SWAP1 PUSH1 0xE0 SHL PUSH1 0x20 DUP3 ADD DUP1 MLOAD PUSH28 0xFFFFFFFFFFFFFFFFFFFFFFFFFFFFFFFFFFFFFFFFFFFFFFFFFFFFFFFF DUP4 DUP2 DUP4 AND OR DUP4 MSTORE POP POP POP POP PUSH1 0x40 MLOAD PUSH2 0x2AB8 SWAP2 SWAP1 PUSH2 0x3ECE JUMP JUMPDEST PUSH1 0x0 PUSH1 0x40 MLOAD DUP1 DUP4 SUB DUP2 PUSH1 0x0 DUP7 GAS CALL SWAP2 POP POP RETURNDATASIZE DUP1 PUSH1 0x0 DUP2 EQ PUSH2 0x2AF5 JUMPI PUSH1 0x40 MLOAD SWAP2 POP PUSH1 0x1F NOT PUSH1 0x3F RETURNDATASIZE ADD AND DUP3 ADD PUSH1 0x40 MSTORE RETURNDATASIZE DUP3 MSTORE RETURNDATASIZE PUSH1 0x0 PUSH1 0x20 DUP5 ADD RETURNDATACOPY PUSH2 0x2AFA JUMP JUMPDEST PUSH1 0x60 SWAP2 POP JUMPDEST POP SWAP2 POP SWAP2 POP DUP2 DUP1 ISZERO PUSH2 0x2B28 JUMPI POP PUSH1 0x0 DUP2 MLOAD EQ DUP1 PUSH2 0x2B27 JUMPI POP DUP1 DUP1 PUSH1 0x20 ADD SWAP1 MLOAD DUP2 ADD SWAP1 PUSH2 0x2B26 SWAP2 SWAP1 PUSH2 0x365C JUMP JUMPDEST JUMPDEST JUMPDEST PUSH2 0x2B67 JUMPI PUSH1 0x40 MLOAD PUSH32 0x8C379A000000000000000000000000000000000000000000000000000000000 DUP2 MSTORE PUSH1 0x4 ADD PUSH2 0x2B5E SWAP1 PUSH2 0x3FEC JUMP JUMPDEST PUSH1 0x40 MLOAD DUP1 SWAP2 SUB SWAP1 REVERT JUMPDEST POP POP POP POP POP JUMP JUMPDEST CALLVALUE DUP2 EQ PUSH2 0x2BB0 JUMPI PUSH1 0x40 MLOAD PUSH32 0x8C379A000000000000000000000000000000000000000000000000000000000 DUP2 MSTORE PUSH1 0x4 ADD PUSH2 0x2BA7 SWAP1 PUSH2 0x378D JUMP JUMPDEST PUSH1 0x40 MLOAD DUP1 SWAP2 SUB SWAP1 REVERT JUMPDEST PUSH1 0x0 PUSH2 0x2BBB DUP3 PUSH2 0x2F63 JUMP JUMPDEST SWAP1 POP DUP1 PUSH1 0x4 PUSH1 0x1 SWAP1 SLOAD SWAP1 PUSH2 0x100 EXP SWAP1 DIV PUSH20 0xFFFFFFFFFFFFFFFFFFFFFFFFFFFFFFFFFFFFFFFF AND PUSH20 0xFFFFFFFFFFFFFFFFFFFFFFFFFFFFFFFFFFFFFFFF AND PUSH4 0x70A08231 ADDRESS PUSH1 0x40 MLOAD DUP3 PUSH4 0xFFFFFFFF AND PUSH1 0xE0 SHL DUP2 MSTORE PUSH1 0x4 ADD PUSH2 0x2C19 SWAP2 SWAP1 PUSH2 0x3352 JUMP JUMPDEST PUSH1 0x20 PUSH1 0x40 MLOAD DUP1 DUP4 SUB DUP2 DUP7 GAS STATICCALL ISZERO DUP1 ISZERO PUSH2 0x2C36 JUMPI RETURNDATASIZE PUSH1 0x0 DUP1 RETURNDATACOPY RETURNDATASIZE PUSH1 0x0 REVERT JUMPDEST POP POP POP POP PUSH1 0x40 MLOAD RETURNDATASIZE PUSH1 0x1F NOT PUSH1 0x1F DUP3 ADD AND DUP3 ADD DUP1 PUSH1 0x40 MSTORE POP DUP2 ADD SWAP1 PUSH2 0x2C5A SWAP2 SWAP1 PUSH2 0x395B JUMP JUMPDEST LT ISZERO PUSH2 0x2C9B JUMPI PUSH1 0x40 MLOAD PUSH32 0x8C379A000000000000000000000000000000000000000000000000000000000 DUP2 MSTORE PUSH1 0x4 ADD PUSH2 0x2C92 SWAP1 PUSH2 0x3E34 JUMP JUMPDEST PUSH1 0x40 MLOAD DUP1 SWAP2 SUB SWAP1 REVERT JUMPDEST PUSH1 0x2 PUSH1 0x1 SWAP1 SLOAD SWAP1 PUSH2 0x100 EXP SWAP1 DIV PUSH20 0xFFFFFFFFFFFFFFFFFFFFFFFFFFFFFFFFFFFFFFFF AND PUSH20 0xFFFFFFFFFFFFFFFFFFFFFFFFFFFFFFFFFFFFFFFF AND PUSH4 0xD0E30DB0 DUP4 PUSH1 0x40 MLOAD DUP3 PUSH4 0xFFFFFFFF AND PUSH1 0xE0 SHL DUP2 MSTORE PUSH1 0x4 ADD PUSH1 0x0 PUSH1 0x40 MLOAD DUP1 DUP4 SUB DUP2 DUP6 DUP9 DUP1 EXTCODESIZE ISZERO DUP1 ISZERO PUSH2 0x2D05 JUMPI PUSH1 0x0 DUP1 REVERT JUMPDEST POP GAS CALL ISZERO DUP1 ISZERO PUSH2 0x2D19 JUMPI RETURNDATASIZE PUSH1 0x0 DUP1 RETURNDATACOPY RETURNDATASIZE PUSH1 0x0 REVERT JUMPDEST POP POP POP POP POP PUSH2 0x2D4B PUSH1 0x4 PUSH1 0x1 SWAP1 SLOAD SWAP1 PUSH2 0x100 EXP SWAP1 DIV PUSH20 0xFFFFFFFFFFFFFFFFFFFFFFFFFFFFFFFFFFFFFFFF AND CALLER DUP4 PUSH2 0x2A38 JUMP JUMPDEST PUSH1 0x9 PUSH1 0x40 MLOAD DUP1 PUSH1 0x60 ADD PUSH1 0x40 MSTORE DUP1 CALLER PUSH20 0xFFFFFFFFFFFFFFFFFFFFFFFFFFFFFFFFFFFFFFFF AND DUP2 MSTORE PUSH1 0x20 ADD DUP5 DUP2 MSTORE PUSH1 0x20 ADD DUP4 DUP2 MSTORE POP SWAP1 DUP1 PUSH1 0x1 DUP2 SLOAD ADD DUP1 DUP3 SSTORE DUP1 SWAP2 POP POP PUSH1 0x1 SWAP1 SUB SWAP1 PUSH1 0x0 MSTORE PUSH1 0x20 PUSH1 0x0 KECCAK256 SWAP1 PUSH1 0x3 MUL ADD PUSH1 0x0 SWAP1 SWAP2 SWAP1 SWAP2 SWAP1 SWAP2 POP PUSH1 0x0 DUP3 ADD MLOAD DUP2 PUSH1 0x0 ADD PUSH1 0x0 PUSH2 0x100 EXP DUP2 SLOAD DUP2 PUSH20 0xFFFFFFFFFFFFFFFFFFFFFFFFFFFFFFFFFFFFFFFF MUL NOT AND SWAP1 DUP4 PUSH20 0xFFFFFFFFFFFFFFFFFFFFFFFFFFFFFFFFFFFFFFFF AND MUL OR SWAP1 SSTORE POP PUSH1 0x20 DUP3 ADD MLOAD DUP2 PUSH1 0x1 ADD SSTORE PUSH1 0x40 DUP3 ADD MLOAD DUP2 PUSH1 0x2 ADD SSTORE POP POP PUSH1 0x0 PUSH32 0x0 SWAP1 POP DUP1 PUSH20 0xFFFFFFFFFFFFFFFFFFFFFFFFFFFFFFFFFFFFFFFF AND PUSH4 0xF52701B7 ADDRESS CALLER DUP7 DUP7 PUSH1 0x40 MLOAD DUP6 PUSH4 0xFFFFFFFF AND PUSH1 0xE0 SHL DUP2 MSTORE PUSH1 0x4 ADD PUSH2 0x2E68 SWAP5 SWAP4 SWAP3 SWAP2 SWAP1 PUSH2 0x3988 JUMP JUMPDEST PUSH1 0x0 PUSH1 0x40 MLOAD DUP1 DUP4 SUB DUP2 PUSH1 0x0 DUP8 DUP1 EXTCODESIZE ISZERO DUP1 ISZERO PUSH2 0x2E82 JUMPI PUSH1 0x0 DUP1 REVERT JUMPDEST POP GAS CALL ISZERO DUP1 ISZERO PUSH2 0x2E96 JUMPI RETURNDATASIZE PUSH1 0x0 DUP1 RETURNDATACOPY RETURNDATASIZE PUSH1 0x0 REVERT JUMPDEST POP POP POP POP POP POP POP JUMP JUMPDEST PUSH1 0x0 DUP1 PUSH1 0x0 SWAP1 SLOAD SWAP1 PUSH2 0x100 EXP SWAP1 DIV PUSH20 0xFFFFFFFFFFFFFFFFFFFFFFFFFFFFFFFFFFFFFFFF AND SWAP1 POP DUP2 PUSH1 0x0 DUP1 PUSH2 0x100 EXP DUP2 SLOAD DUP2 PUSH20 0xFFFFFFFFFFFFFFFFFFFFFFFFFFFFFFFFFFFFFFFF MUL NOT AND SWAP1 DUP4 PUSH20 0xFFFFFFFFFFFFFFFFFFFFFFFFFFFFFFFFFFFFFFFF AND MUL OR SWAP1 SSTORE POP DUP2 PUSH20 0xFFFFFFFFFFFFFFFFFFFFFFFFFFFFFFFFFFFFFFFF AND DUP2 PUSH20 0xFFFFFFFFFFFFFFFFFFFFFFFFFFFFFFFFFFFFFFFF AND PUSH32 0x8BE0079C531659141344CD1FD0A4F28419497F9722A3DAAFE3B4186F6B6457E0 PUSH1 0x40 MLOAD PUSH1 0x40 MLOAD DUP1 SWAP2 SUB SWAP1 LOG3 POP POP JUMP JUMPDEST PUSH1 0x0 PUSH1 0x7 SLOAD PUSH1 0x6 SLOAD DUP4 PUSH2 0x2F76 SWAP2 SWAP1 PUSH2 0x400C JUMP JUMPDEST PUSH2 0x2F80 SWAP2 SWAP1 PUSH2 0x4095 JUMP JUMPDEST SWAP1 POP SWAP2 SWAP1 POP JUMP JUMPDEST PUSH1 0x0 DUP1 DUP6 PUSH20 0xFFFFFFFFFFFFFFFFFFFFFFFFFFFFFFFFFFFFFFFF AND PUSH4 0x23B872DD DUP7 DUP7 DUP7 PUSH1 0x40 MLOAD PUSH1 0x24 ADD PUSH2 0x2FBB SWAP4 SWAP3 SWAP2 SWAP1 PUSH2 0x40C6 JUMP JUMPDEST PUSH1 0x40 MLOAD PUSH1 0x20 DUP2 DUP4 SUB SUB DUP2 MSTORE SWAP1 PUSH1 0x40 MSTORE SWAP1 PUSH1 0xE0 SHL PUSH1 0x20 DUP3 ADD DUP1 MLOAD PUSH28 0xFFFFFFFFFFFFFFFFFFFFFFFFFFFFFFFFFFFFFFFFFFFFFFFFFFFFFFFF DUP4 DUP2 DUP4 AND OR DUP4 MSTORE POP POP POP POP PUSH1 0x40 MLOAD PUSH2 0x3009 SWAP2 SWAP1 PUSH2 0x3ECE JUMP JUMPDEST PUSH1 0x0 PUSH1 0x40 MLOAD DUP1 DUP4 SUB DUP2 PUSH1 0x0 DUP7 GAS CALL SWAP2 POP POP RETURNDATASIZE DUP1 PUSH1 0x0 DUP2 EQ PUSH2 0x3046 JUMPI PUSH1 0x40 MLOAD SWAP2 POP PUSH1 0x1F NOT PUSH1 0x3F RETURNDATASIZE ADD AND DUP3 ADD PUSH1 0x40 MSTORE RETURNDATASIZE DUP3 MSTORE RETURNDATASIZE PUSH1 0x0 PUSH1 0x20 DUP5 ADD RETURNDATACOPY PUSH2 0x304B JUMP JUMPDEST PUSH1 0x60 SWAP2 POP JUMPDEST POP SWAP2 POP SWAP2 POP DUP2 DUP1 ISZERO PUSH2 0x3079 JUMPI POP PUSH1 0x0 DUP2 MLOAD EQ DUP1 PUSH2 0x3078 JUMPI POP DUP1 DUP1 PUSH1 0x20 ADD SWAP1 MLOAD DUP2 ADD SWAP1 PUSH2 0x3077 SWAP2 SWAP1 PUSH2 0x365C JUMP JUMPDEST JUMPDEST JUMPDEST PUSH2 0x30B8 JUMPI PUSH1 0x40 MLOAD PUSH32 0x8C379A000000000000000000000000000000000000000000000000000000000 DUP2 MSTORE PUSH1 0x4 ADD PUSH2 0x30AF SWAP1 PUSH2 0x416F JUMP JUMPDEST PUSH1 0x40 MLOAD DUP1 SWAP2 SUB SWAP1 REVERT JUMPDEST POP POP POP POP POP POP JUMP JUMPDEST PUSH1 0x0 DUP1 REVERT JUMPDEST PUSH1 0x0 DUP2 SWAP1 POP SWAP2 SWAP1 POP JUMP JUMPDEST PUSH2 0x30D8 DUP2 PUSH2 0x30C5 JUMP JUMPDEST DUP2 EQ PUSH2 0x30E3 JUMPI PUSH1 0x0 DUP1 REVERT JUMPDEST POP JUMP JUMPDEST PUSH1 0x0 DUP2 CALLDATALOAD SWAP1 POP PUSH2 0x30F5 DUP2 PUSH2 0x30CF JUMP JUMPDEST SWAP3 SWAP2 POP POP JUMP JUMPDEST PUSH1 0x0 PUSH1 0x20 DUP3 DUP5 SUB SLT ISZERO PUSH2 0x3111 JUMPI PUSH2 0x3110 PUSH2 0x30C0 JUMP JUMPDEST JUMPDEST PUSH1 0x0 PUSH2 0x311F DUP5 DUP3 DUP6 ADD PUSH2 0x30E6 JUMP JUMPDEST SWAP2 POP POP SWAP3 SWAP2 POP POP JUMP JUMPDEST PUSH1 0x0 DUP2 ISZERO ISZERO SWAP1 POP SWAP2 SWAP1 POP JUMP JUMPDEST PUSH2 0x313D DUP2 PUSH2 0x3128 JUMP JUMPDEST DUP3 MSTORE POP POP JUMP JUMPDEST PUSH1 0x0 PUSH1 0x20 DUP3 ADD SWAP1 POP PUSH2 0x3158 PUSH1 0x0 DUP4 ADD DUP5 PUSH2 0x3134 JUMP JUMPDEST SWAP3 SWAP2 POP POP JUMP JUMPDEST PUSH2 0x3167 DUP2 PUSH2 0x30C5 JUMP JUMPDEST DUP3 MSTORE POP POP JUMP JUMPDEST PUSH1 0x0 PUSH1 0x40 DUP3 ADD SWAP1 POP PUSH2 0x3182 PUSH1 0x0 DUP4 ADD DUP6 PUSH2 0x315E JUMP JUMPDEST PUSH2 0x318F PUSH1 0x20 DUP4 ADD DUP5 PUSH2 0x315E JUMP JUMPDEST SWAP4 SWAP3 POP POP POP JUMP JUMPDEST PUSH1 0x0 PUSH1 0x20 DUP3 ADD SWAP1 POP PUSH2 0x31AB PUSH1 0x0 DUP4 ADD DUP5 PUSH2 0x315E JUMP JUMPDEST SWAP3 SWAP2 POP POP JUMP JUMPDEST PUSH1 0x0 PUSH20 0xFFFFFFFFFFFFFFFFFFFFFFFFFFFFFFFFFFFFFFFF DUP3 AND SWAP1 POP SWAP2 SWAP1 POP JUMP JUMPDEST PUSH1 0x0 PUSH2 0x31DC DUP3 PUSH2 0x31B1 JUMP JUMPDEST SWAP1 POP SWAP2 SWAP1 POP JUMP JUMPDEST PUSH2 0x31EC DUP2 PUSH2 0x31D1 JUMP JUMPDEST DUP2 EQ PUSH2 0x31F7 JUMPI PUSH1 0x0 DUP1 REVERT JUMPDEST POP JUMP JUMPDEST PUSH1 0x0 DUP2 CALLDATALOAD SWAP1 POP PUSH2 0x3209 DUP2 PUSH2 0x31E3 JUMP JUMPDEST SWAP3 SWAP2 POP POP JUMP JUMPDEST PUSH1 0x0 PUSH1 0x20 DUP3 DUP5 SUB SLT ISZERO PUSH2 0x3225 JUMPI PUSH2 0x3224 PUSH2 0x30C0 JUMP JUMPDEST JUMPDEST PUSH1 0x0 PUSH2 0x3233 DUP5 DUP3 DUP6 ADD PUSH2 0x31FA JUMP JUMPDEST SWAP2 POP POP SWAP3 SWAP2 POP POP JUMP JUMPDEST PUSH1 0x3 DUP2 LT PUSH2 0x3249 JUMPI PUSH1 0x0 DUP1 REVERT JUMPDEST POP JUMP JUMPDEST PUSH1 0x0 DUP2 CALLDATALOAD SWAP1 POP PUSH2 0x325B DUP2 PUSH2 0x323C JUMP JUMPDEST SWAP3 SWAP2 POP POP JUMP JUMPDEST PUSH2 0x326A DUP2 PUSH2 0x3128 JUMP JUMPDEST DUP2 EQ PUSH2 0x3275 JUMPI PUSH1 0x0 DUP1 REVERT JUMPDEST POP JUMP JUMPDEST PUSH1 0x0 DUP2 CALLDATALOAD SWAP1 POP PUSH2 0x3287 DUP2 PUSH2 0x3261 JUMP JUMPDEST SWAP3 SWAP2 POP POP JUMP JUMPDEST PUSH1 0x0 DUP1 PUSH1 0x0 DUP1 PUSH1 0x0 DUP1 PUSH1 0x0 DUP1 PUSH2 0x100 DUP10 DUP12 SUB SLT ISZERO PUSH2 0x32AE JUMPI PUSH2 0x32AD PUSH2 0x30C0 JUMP JUMPDEST JUMPDEST PUSH1 0x0 PUSH2 0x32BC DUP12 DUP3 DUP13 ADD PUSH2 0x324C JUMP JUMPDEST SWAP9 POP POP PUSH1 0x20 PUSH2 0x32CD DUP12 DUP3 DUP13 ADD PUSH2 0x31FA JUMP JUMPDEST SWAP8 POP POP PUSH1 0x40 PUSH2 0x32DE DUP12 DUP3 DUP13 ADD PUSH2 0x31FA JUMP JUMPDEST SWAP7 POP POP PUSH1 0x60 PUSH2 0x32EF DUP12 DUP3 DUP13 ADD PUSH2 0x30E6 JUMP JUMPDEST SWAP6 POP POP PUSH1 0x80 PUSH2 0x3300 DUP12 DUP3 DUP13 ADD PUSH2 0x30E6 JUMP JUMPDEST SWAP5 POP POP PUSH1 0xA0 PUSH2 0x3311 DUP12 DUP3 DUP13 ADD PUSH2 0x30E6 JUMP JUMPDEST SWAP4 POP POP PUSH1 0xC0 PUSH2 0x3322 DUP12 DUP3 DUP13 ADD PUSH2 0x3278 JUMP JUMPDEST SWAP3 POP POP PUSH1 0xE0 PUSH2 0x3333 DUP12 DUP3 DUP13 ADD PUSH2 0x31FA JUMP JUMPDEST SWAP2 POP POP SWAP3 SWAP6 SWAP9 POP SWAP3 SWAP6 SWAP9 SWAP1 SWAP4 SWAP7 POP JUMP JUMPDEST PUSH2 0x334C DUP2 PUSH2 0x31D1 JUMP JUMPDEST DUP3 MSTORE POP POP JUMP JUMPDEST PUSH1 0x0 PUSH1 0x20 DUP3 ADD SWAP1 POP PUSH2 0x3367 PUSH1 0x0 DUP4 ADD DUP5 PUSH2 0x3343 JUMP JUMPDEST SWAP3 SWAP2 POP POP JUMP JUMPDEST PUSH1 0x0 PUSH1 0x40 DUP3 ADD SWAP1 POP PUSH2 0x3382 PUSH1 0x0 DUP4 ADD DUP6 PUSH2 0x3343 JUMP JUMPDEST PUSH2 0x338F PUSH1 0x20 DUP4 ADD DUP5 PUSH2 0x3343 JUMP JUMPDEST SWAP4 SWAP3 POP POP POP JUMP JUMPDEST PUSH1 0x0 DUP2 MLOAD SWAP1 POP SWAP2 SWAP1 POP JUMP JUMPDEST PUSH1 0x0 DUP3 DUP3 MSTORE PUSH1 0x20 DUP3 ADD SWAP1 POP SWAP3 SWAP2 POP POP JUMP JUMPDEST PUSH1 0x0 DUP2 SWAP1 POP PUSH1 0x20 DUP3 ADD SWAP1 POP SWAP2 SWAP1 POP JUMP JUMPDEST PUSH2 0x33CB DUP2 PUSH2 0x31D1 JUMP JUMPDEST DUP3 MSTORE POP POP JUMP JUMPDEST PUSH1 0x0 PUSH2 0x33DD DUP4 DUP4 PUSH2 0x33C2 JUMP JUMPDEST PUSH1 0x20 DUP4 ADD SWAP1 POP SWAP3 SWAP2 POP POP JUMP JUMPDEST PUSH1 0x0 PUSH1 0x20 DUP3 ADD SWAP1 POP SWAP2 SWAP1 POP JUMP JUMPDEST PUSH1 0x0 PUSH2 0x3401 DUP3 PUSH2 0x3396 JUMP JUMPDEST PUSH2 0x340B DUP2 DUP6 PUSH2 0x33A1 JUMP JUMPDEST SWAP4 POP PUSH2 0x3416 DUP4 PUSH2 0x33B2 JUMP JUMPDEST DUP1 PUSH1 0x0 JUMPDEST DUP4 DUP2 LT ISZERO PUSH2 0x3447 JUMPI DUP2 MLOAD PUSH2 0x342E DUP9 DUP3 PUSH2 0x33D1 JUMP JUMPDEST SWAP8 POP PUSH2 0x3439 DUP4 PUSH2 0x33E9 JUMP JUMPDEST SWAP3 POP POP PUSH1 0x1 DUP2 ADD SWAP1 POP PUSH2 0x341A JUMP JUMPDEST POP DUP6 SWAP4 POP POP POP POP SWAP3 SWAP2 POP POP JUMP JUMPDEST PUSH1 0x0 DUP2 MLOAD SWAP1 POP SWAP2 SWAP1 POP JUMP JUMPDEST PUSH1 0x0 DUP3 DUP3 MSTORE PUSH1 0x20 DUP3 ADD SWAP1 POP SWAP3 SWAP2 POP POP JUMP JUMPDEST PUSH1 0x0 DUP2 SWAP1 POP PUSH1 0x20 DUP3 ADD SWAP1 POP SWAP2 SWAP1 POP JUMP JUMPDEST PUSH2 0x3489 DUP2 PUSH2 0x30C5 JUMP JUMPDEST DUP3 MSTORE POP POP JUMP JUMPDEST PUSH1 0x0 PUSH2 0x349B DUP4 DUP4 PUSH2 0x3480 JUMP JUMPDEST PUSH1 0x20 DUP4 ADD SWAP1 POP SWAP3 SWAP2 POP POP JUMP JUMPDEST PUSH1 0x0 PUSH1 0x20 DUP3 ADD SWAP1 POP SWAP2 SWAP1 POP JUMP JUMPDEST PUSH1 0x0 PUSH2 0x34BF DUP3 PUSH2 0x3454 JUMP JUMPDEST PUSH2 0x34C9 DUP2 DUP6 PUSH2 0x345F JUMP JUMPDEST SWAP4 POP PUSH2 0x34D4 DUP4 PUSH2 0x3470 JUMP JUMPDEST DUP1 PUSH1 0x0 JUMPDEST DUP4 DUP2 LT ISZERO PUSH2 0x3505 JUMPI DUP2 MLOAD PUSH2 0x34EC DUP9 DUP3 PUSH2 0x348F JUMP JUMPDEST SWAP8 POP PUSH2 0x34F7 DUP4 PUSH2 0x34A7 JUMP JUMPDEST SWAP3 POP POP PUSH1 0x1 DUP2 ADD SWAP1 POP PUSH2 0x34D8 JUMP JUMPDEST POP DUP6 SWAP4 POP POP POP POP SWAP3 SWAP2 POP POP JUMP JUMPDEST PUSH1 0x0 PUSH1 0x60 DUP3 ADD SWAP1 POP DUP2 DUP2 SUB PUSH1 0x0 DUP4 ADD MSTORE PUSH2 0x352C DUP2 DUP7 PUSH2 0x33F6 JUMP JUMPDEST SWAP1 POP DUP2 DUP2 SUB PUSH1 0x20 DUP4 ADD MSTORE PUSH2 0x3540 DUP2 DUP6 PUSH2 0x34B4 JUMP JUMPDEST SWAP1 POP DUP2 DUP2 SUB PUSH1 0x40 DUP4 ADD MSTORE PUSH2 0x3554 DUP2 DUP5 PUSH2 0x34B4 JUMP JUMPDEST SWAP1 POP SWAP5 SWAP4 POP POP POP POP JUMP JUMPDEST PUSH1 0x0 DUP3 DUP3 MSTORE PUSH1 0x20 DUP3 ADD SWAP1 POP SWAP3 SWAP2 POP POP JUMP JUMPDEST PUSH32 0x537943726F774261727465723A20494E41435449564500000000000000000000 PUSH1 0x0 DUP3 ADD MSTORE POP JUMP JUMPDEST PUSH1 0x0 PUSH2 0x35A5 PUSH1 0x16 DUP4 PUSH2 0x355E JUMP JUMPDEST SWAP2 POP PUSH2 0x35B0 DUP3 PUSH2 0x356F JUMP JUMPDEST PUSH1 0x20 DUP3 ADD SWAP1 POP SWAP2 SWAP1 POP JUMP JUMPDEST PUSH1 0x0 PUSH1 0x20 DUP3 ADD SWAP1 POP DUP2 DUP2 SUB PUSH1 0x0 DUP4 ADD MSTORE PUSH2 0x35D4 DUP2 PUSH2 0x3598 JUMP JUMPDEST SWAP1 POP SWAP2 SWAP1 POP JUMP JUMPDEST PUSH32 0x537943726F774261727465723A204E4F545F494E495449414C495A4544000000 PUSH1 0x0 DUP3 ADD MSTORE POP JUMP JUMPDEST PUSH1 0x0 PUSH2 0x3611 PUSH1 0x1D DUP4 PUSH2 0x355E JUMP JUMPDEST SWAP2 POP PUSH2 0x361C DUP3 PUSH2 0x35DB JUMP JUMPDEST PUSH1 0x20 DUP3 ADD SWAP1 POP SWAP2 SWAP1 POP JUMP JUMPDEST PUSH1 0x0 PUSH1 0x20 DUP3 ADD SWAP1 POP DUP2 DUP2 SUB PUSH1 0x0 DUP4 ADD MSTORE PUSH2 0x3640 DUP2 PUSH2 0x3604 JUMP JUMPDEST SWAP1 POP SWAP2 SWAP1 POP JUMP JUMPDEST PUSH1 0x0 DUP2 MLOAD SWAP1 POP PUSH2 0x3656 DUP2 PUSH2 0x3261 JUMP JUMPDEST SWAP3 SWAP2 POP POP JUMP JUMPDEST PUSH1 0x0 PUSH1 0x20 DUP3 DUP5 SUB SLT ISZERO PUSH2 0x3672 JUMPI PUSH2 0x3671 PUSH2 0x30C0 JUMP JUMPDEST JUMPDEST PUSH1 0x0 PUSH2 0x3680 DUP5 DUP3 DUP6 ADD PUSH2 0x3647 JUMP JUMPDEST SWAP2 POP POP SWAP3 SWAP2 POP POP JUMP JUMPDEST PUSH32 0x537943726F774261727465723A204261736520436F6E74726163742050617573 PUSH1 0x0 DUP3 ADD MSTORE PUSH32 0x6564000000000000000000000000000000000000000000000000000000000000 PUSH1 0x20 DUP3 ADD MSTORE POP JUMP JUMPDEST PUSH1 0x0 PUSH2 0x36E5 PUSH1 0x22 DUP4 PUSH2 0x355E JUMP JUMPDEST SWAP2 POP PUSH2 0x36F0 DUP3 PUSH2 0x3689 JUMP JUMPDEST PUSH1 0x40 DUP3 ADD SWAP1 POP SWAP2 SWAP1 POP JUMP JUMPDEST PUSH1 0x0 PUSH1 0x20 DUP3 ADD SWAP1 POP DUP2 DUP2 SUB PUSH1 0x0 DUP4 ADD MSTORE PUSH2 0x3714 DUP2 PUSH2 0x36D8 JUMP JUMPDEST SWAP1 POP SWAP2 SWAP1 POP JUMP JUMPDEST PUSH32 0x537943726F774261727465723A204D554C54495F54524144455F4E4F545F454E PUSH1 0x0 DUP3 ADD MSTORE PUSH32 0x41424C4544000000000000000000000000000000000000000000000000000000 PUSH1 0x20 DUP3 ADD MSTORE POP JUMP JUMPDEST PUSH1 0x0 PUSH2 0x3777 PUSH1 0x25 DUP4 PUSH2 0x355E JUMP JUMPDEST SWAP2 POP PUSH2 0x3782 DUP3 PUSH2 0x371B JUMP JUMPDEST PUSH1 0x40 DUP3 ADD SWAP1 POP SWAP2 SWAP1 POP JUMP JUMPDEST PUSH1 0x0 PUSH1 0x20 DUP3 ADD SWAP1 POP DUP2 DUP2 SUB PUSH1 0x0 DUP4 ADD MSTORE PUSH2 0x37A6 DUP2 PUSH2 0x376A JUMP JUMPDEST SWAP1 POP SWAP2 SWAP1 POP JUMP JUMPDEST PUSH32 0x4E487B7100000000000000000000000000000000000000000000000000000000 PUSH1 0x0 MSTORE PUSH1 0x21 PUSH1 0x4 MSTORE PUSH1 0x24 PUSH1 0x0 REVERT JUMPDEST PUSH32 0x537943726F774261727465723A20494E56414C49445F4241525445525F545950 PUSH1 0x0 DUP3 ADD MSTORE PUSH32 0x4500000000000000000000000000000000000000000000000000000000000000 PUSH1 0x20 DUP3 ADD MSTORE POP JUMP JUMPDEST PUSH1 0x0 PUSH2 0x3838 PUSH1 0x21 DUP4 PUSH2 0x355E JUMP JUMPDEST SWAP2 POP PUSH2 0x3843 DUP3 PUSH2 0x37DC JUMP JUMPDEST PUSH1 0x40 DUP3 ADD SWAP1 POP SWAP2 SWAP1 POP JUMP JUMPDEST PUSH1 0x0 PUSH1 0x20 DUP3 ADD SWAP1 POP DUP2 DUP2 SUB PUSH1 0x0 DUP4 ADD MSTORE PUSH2 0x3867 DUP2 PUSH2 0x382B JUMP JUMPDEST SWAP1 POP SWAP2 SWAP1 POP JUMP JUMPDEST PUSH32 0x537943726F774261727465723A20414354495645000000000000000000000000 PUSH1 0x0 DUP3 ADD MSTORE POP JUMP JUMPDEST PUSH1 0x0 PUSH2 0x38A4 PUSH1 0x14 DUP4 PUSH2 0x355E JUMP JUMPDEST SWAP2 POP PUSH2 0x38AF DUP3 PUSH2 0x386E JUMP JUMPDEST PUSH1 0x20 DUP3 ADD SWAP1 POP SWAP2 SWAP1 POP JUMP JUMPDEST PUSH1 0x0 PUSH1 0x20 DUP3 ADD SWAP1 POP DUP2 DUP2 SUB PUSH1 0x0 DUP4 ADD MSTORE PUSH2 0x38D3 DUP2 PUSH2 0x3897 JUMP JUMPDEST SWAP1 POP SWAP2 SWAP1 POP JUMP JUMPDEST PUSH32 0x4F776E61626C653A2063616C6C6572206973206E6F7420746865206F776E6572 PUSH1 0x0 DUP3 ADD MSTORE POP JUMP JUMPDEST PUSH1 0x0 PUSH2 0x3910 PUSH1 0x20 DUP4 PUSH2 0x355E JUMP JUMPDEST SWAP2 POP PUSH2 0x391B DUP3 PUSH2 0x38DA JUMP JUMPDEST PUSH1 0x20 DUP3 ADD SWAP1 POP SWAP2 SWAP1 POP JUMP JUMPDEST PUSH1 0x0 PUSH1 0x20 DUP3 ADD SWAP1 POP DUP2 DUP2 SUB PUSH1 0x0 DUP4 ADD MSTORE PUSH2 0x393F DUP2 PUSH2 0x3903 JUMP JUMPDEST SWAP1 POP SWAP2 SWAP1 POP JUMP JUMPDEST PUSH1 0x0 DUP2 MLOAD SWAP1 POP PUSH2 0x3955 DUP2 PUSH2 0x30CF JUMP JUMPDEST SWAP3 SWAP2 POP POP JUMP JUMPDEST PUSH1 0x0 PUSH1 0x20 DUP3 DUP5 SUB SLT ISZERO PUSH2 0x3971 JUMPI PUSH2 0x3970 PUSH2 0x30C0 JUMP JUMPDEST JUMPDEST PUSH1 0x0 PUSH2 0x397F DUP5 DUP3 DUP6 ADD PUSH2 0x3946 JUMP JUMPDEST SWAP2 POP POP SWAP3 SWAP2 POP POP JUMP JUMPDEST PUSH1 0x0 PUSH1 0x80 DUP3 ADD SWAP1 POP PUSH2 0x399D PUSH1 0x0 DUP4 ADD DUP8 PUSH2 0x3343 JUMP JUMPDEST PUSH2 0x39AA PUSH1 0x20 DUP4 ADD DUP7 PUSH2 0x3343 JUMP JUMPDEST PUSH2 0x39B7 PUSH1 0x40 DUP4 ADD DUP6 PUSH2 0x315E JUMP JUMPDEST PUSH2 0x39C4 PUSH1 0x60 DUP4 ADD DUP5 PUSH2 0x315E JUMP JUMPDEST SWAP6 SWAP5 POP POP POP POP POP JUMP JUMPDEST PUSH32 0x537943726F774261727465723A20464F5242494444454E000000000000000000 PUSH1 0x0 DUP3 ADD MSTORE POP JUMP JUMPDEST PUSH1 0x0 PUSH2 0x3A03 PUSH1 0x17 DUP4 PUSH2 0x355E JUMP JUMPDEST SWAP2 POP PUSH2 0x3A0E DUP3 PUSH2 0x39CD JUMP JUMPDEST PUSH1 0x20 DUP3 ADD SWAP1 POP SWAP2 SWAP1 POP JUMP JUMPDEST PUSH1 0x0 PUSH1 0x20 DUP3 ADD SWAP1 POP DUP2 DUP2 SUB PUSH1 0x0 DUP4 ADD MSTORE PUSH2 0x3A32 DUP2 PUSH2 0x39F6 JUMP JUMPDEST SWAP1 POP SWAP2 SWAP1 POP JUMP JUMPDEST PUSH32 0x537943726F774261727465723A20414C52454144595F494E495449414C495A45 PUSH1 0x0 DUP3 ADD MSTORE PUSH32 0x4400000000000000000000000000000000000000000000000000000000000000 PUSH1 0x20 DUP3 ADD MSTORE POP JUMP JUMPDEST PUSH1 0x0 PUSH2 0x3A95 PUSH1 0x21 DUP4 PUSH2 0x355E JUMP JUMPDEST SWAP2 POP PUSH2 0x3AA0 DUP3 PUSH2 0x3A39 JUMP JUMPDEST PUSH1 0x40 DUP3 ADD SWAP1 POP SWAP2 SWAP1 POP JUMP JUMPDEST PUSH1 0x0 PUSH1 0x20 DUP3 ADD SWAP1 POP DUP2 DUP2 SUB PUSH1 0x0 DUP4 ADD MSTORE PUSH2 0x3AC4 DUP2 PUSH2 0x3A88 JUMP JUMPDEST SWAP1 POP SWAP2 SWAP1 POP JUMP JUMPDEST PUSH32 0x537943726F774261727465723A20504153545F444541444C494E450000000000 PUSH1 0x0 DUP3 ADD MSTORE POP JUMP JUMPDEST PUSH1 0x0 PUSH2 0x3B01 PUSH1 0x1B DUP4 PUSH2 0x355E JUMP JUMPDEST SWAP2 POP PUSH2 0x3B0C DUP3 PUSH2 0x3ACB JUMP JUMPDEST PUSH1 0x20 DUP3 ADD SWAP1 POP SWAP2 SWAP1 POP JUMP JUMPDEST PUSH1 0x0 PUSH1 0x20 DUP3 ADD SWAP1 POP DUP2 DUP2 SUB PUSH1 0x0 DUP4 ADD MSTORE PUSH2 0x3B30 DUP2 PUSH2 0x3AF4 JUMP JUMPDEST SWAP1 POP SWAP2 SWAP1 POP JUMP JUMPDEST PUSH32 0x537943726F774261727465723A20494E53554646494349454E545F4445504F53 PUSH1 0x0 DUP3 ADD MSTORE PUSH32 0x4954000000000000000000000000000000000000000000000000000000000000 PUSH1 0x20 DUP3 ADD MSTORE POP JUMP JUMPDEST PUSH1 0x0 PUSH2 0x3B93 PUSH1 0x22 DUP4 PUSH2 0x355E JUMP JUMPDEST SWAP2 POP PUSH2 0x3B9E DUP3 PUSH2 0x3B37 JUMP JUMPDEST PUSH1 0x40 DUP3 ADD SWAP1 POP SWAP2 SWAP1 POP JUMP JUMPDEST PUSH1 0x0 PUSH1 0x20 DUP3 ADD SWAP1 POP DUP2 DUP2 SUB PUSH1 0x0 DUP4 ADD MSTORE PUSH2 0x3BC2 DUP2 PUSH2 0x3B86 JUMP JUMPDEST SWAP1 POP SWAP2 SWAP1 POP JUMP JUMPDEST PUSH32 0x4E487B7100000000000000000000000000000000000000000000000000000000 PUSH1 0x0 MSTORE PUSH1 0x41 PUSH1 0x4 MSTORE PUSH1 0x24 PUSH1 0x0 REVERT JUMPDEST PUSH32 0x4E487B7100000000000000000000000000000000000000000000000000000000 PUSH1 0x0 MSTORE PUSH1 0x32 PUSH1 0x4 MSTORE PUSH1 0x24 PUSH1 0x0 REVERT JUMPDEST PUSH32 0x4E487B7100000000000000000000000000000000000000000000000000000000 PUSH1 0x0 MSTORE PUSH1 0x11 PUSH1 0x4 MSTORE PUSH1 0x24 PUSH1 0x0 REVERT JUMPDEST PUSH1 0x0 PUSH2 0x3C61 DUP3 PUSH2 0x30C5 JUMP JUMPDEST SWAP2 POP PUSH32 0xFFFFFFFFFFFFFFFFFFFFFFFFFFFFFFFFFFFFFFFFFFFFFFFFFFFFFFFFFFFFFFFF DUP3 SUB PUSH2 0x3C93 JUMPI PUSH2 0x3C92 PUSH2 0x3C27 JUMP JUMPDEST JUMPDEST PUSH1 0x1 DUP3 ADD SWAP1 POP SWAP2 SWAP1 POP JUMP JUMPDEST PUSH32 0x4F776E61626C653A206E6577206F776E657220697320746865207A65726F2061 PUSH1 0x0 DUP3 ADD MSTORE PUSH32 0x6464726573730000000000000000000000000000000000000000000000000000 PUSH1 0x20 DUP3 ADD MSTORE POP JUMP JUMPDEST PUSH1 0x0 PUSH2 0x3CFA PUSH1 0x26 DUP4 PUSH2 0x355E JUMP JUMPDEST SWAP2 POP PUSH2 0x3D05 DUP3 PUSH2 0x3C9E JUMP JUMPDEST PUSH1 0x40 DUP3 ADD SWAP1 POP SWAP2 SWAP1 POP JUMP JUMPDEST PUSH1 0x0 PUSH1 0x20 DUP3 ADD SWAP1 POP DUP2 DUP2 SUB PUSH1 0x0 DUP4 ADD MSTORE PUSH2 0x3D29 DUP2 PUSH2 0x3CED JUMP JUMPDEST SWAP1 POP SWAP2 SWAP1 POP JUMP JUMPDEST PUSH32 0x537943726F774261727465723A20494E53554646494349454E545F42414C414E PUSH1 0x0 DUP3 ADD MSTORE PUSH32 0x4345000000000000000000000000000000000000000000000000000000000000 PUSH1 0x20 DUP3 ADD MSTORE POP JUMP JUMPDEST PUSH1 0x0 PUSH2 0x3D8C PUSH1 0x22 DUP4 PUSH2 0x355E JUMP JUMPDEST SWAP2 POP PUSH2 0x3D97 DUP3 PUSH2 0x3D30 JUMP JUMPDEST PUSH1 0x40 DUP3 ADD SWAP1 POP SWAP2 SWAP1 POP JUMP JUMPDEST PUSH1 0x0 PUSH1 0x20 DUP3 ADD SWAP1 POP DUP2 DUP2 SUB PUSH1 0x0 DUP4 ADD MSTORE PUSH2 0x3DBB DUP2 PUSH2 0x3D7F JUMP JUMPDEST SWAP1 POP SWAP2 SWAP1 POP JUMP JUMPDEST PUSH32 0x537943726F774261727465723A20494E53554646494349454E545F434F4E5452 PUSH1 0x0 DUP3 ADD MSTORE PUSH32 0x4143545F42414C414E4345000000000000000000000000000000000000000000 PUSH1 0x20 DUP3 ADD MSTORE POP JUMP JUMPDEST PUSH1 0x0 PUSH2 0x3E1E PUSH1 0x2B DUP4 PUSH2 0x355E JUMP JUMPDEST SWAP2 POP PUSH2 0x3E29 DUP3 PUSH2 0x3DC2 JUMP JUMPDEST PUSH1 0x40 DUP3 ADD SWAP1 POP SWAP2 SWAP1 POP JUMP JUMPDEST PUSH1 0x0 PUSH1 0x20 DUP3 ADD SWAP1 POP DUP2 DUP2 SUB PUSH1 0x0 DUP4 ADD MSTORE PUSH2 0x3E4D DUP2 PUSH2 0x3E11 JUMP JUMPDEST SWAP1 POP SWAP2 SWAP1 POP JUMP JUMPDEST PUSH1 0x0 DUP2 MLOAD SWAP1 POP SWAP2 SWAP1 POP JUMP JUMPDEST PUSH1 0x0 DUP2 SWAP1 POP SWAP3 SWAP2 POP POP JUMP JUMPDEST PUSH1 0x0 JUMPDEST DUP4 DUP2 LT ISZERO PUSH2 0x3E88 JUMPI DUP1 DUP3 ADD MLOAD DUP2 DUP5 ADD MSTORE PUSH1 0x20 DUP2 ADD SWAP1 POP PUSH2 0x3E6D JUMP JUMPDEST DUP4 DUP2 GT ISZERO PUSH2 0x3E97 JUMPI PUSH1 0x0 DUP5 DUP5 ADD MSTORE JUMPDEST POP POP POP POP JUMP JUMPDEST PUSH1 0x0 PUSH2 0x3EA8 DUP3 PUSH2 0x3E54 JUMP JUMPDEST PUSH2 0x3EB2 DUP2 DUP6 PUSH2 0x3E5F JUMP JUMPDEST SWAP4 POP PUSH2 0x3EC2 DUP2 DUP6 PUSH1 0x20 DUP7 ADD PUSH2 0x3E6A JUMP JUMPDEST DUP1 DUP5 ADD SWAP2 POP POP SWAP3 SWAP2 POP POP JUMP JUMPDEST PUSH1 0x0 PUSH2 0x3EDA DUP3 DUP5 PUSH2 0x3E9D JUMP JUMPDEST SWAP2 POP DUP2 SWAP1 POP SWAP3 SWAP2 POP POP JUMP JUMPDEST PUSH32 0x5472616E7366657248656C7065723A204554485F5452414E534645525F464149 PUSH1 0x0 DUP3 ADD MSTORE PUSH32 0x4C45440000000000000000000000000000000000000000000000000000000000 PUSH1 0x20 DUP3 ADD MSTORE POP JUMP JUMPDEST PUSH1 0x0 PUSH2 0x3F41 PUSH1 0x23 DUP4 PUSH2 0x355E JUMP JUMPDEST SWAP2 POP PUSH2 0x3F4C DUP3 PUSH2 0x3EE5 JUMP JUMPDEST PUSH1 0x40 DUP3 ADD SWAP1 POP SWAP2 SWAP1 POP JUMP JUMPDEST PUSH1 0x0 PUSH1 0x20 DUP3 ADD SWAP1 POP DUP2 DUP2 SUB PUSH1 0x0 DUP4 ADD MSTORE PUSH2 0x3F70 DUP2 PUSH2 0x3F34 JUMP JUMPDEST SWAP1 POP SWAP2 SWAP1 POP JUMP JUMPDEST PUSH1 0x0 PUSH1 0x40 DUP3 ADD SWAP1 POP PUSH2 0x3F8C PUSH1 0x0 DUP4 ADD DUP6 PUSH2 0x3343 JUMP JUMPDEST PUSH2 0x3F99 PUSH1 0x20 DUP4 ADD DUP5 PUSH2 0x315E JUMP JUMPDEST SWAP4 SWAP3 POP POP POP JUMP JUMPDEST PUSH32 0x5472616E7366657248656C7065723A205452414E534645525F4641494C454400 PUSH1 0x0 DUP3 ADD MSTORE POP JUMP JUMPDEST PUSH1 0x0 PUSH2 0x3FD6 PUSH1 0x1F DUP4 PUSH2 0x355E JUMP JUMPDEST SWAP2 POP PUSH2 0x3FE1 DUP3 PUSH2 0x3FA0 JUMP JUMPDEST PUSH1 0x20 DUP3 ADD SWAP1 POP SWAP2 SWAP1 POP JUMP JUMPDEST PUSH1 0x0 PUSH1 0x20 DUP3 ADD SWAP1 POP DUP2 DUP2 SUB PUSH1 0x0 DUP4 ADD MSTORE PUSH2 0x4005 DUP2 PUSH2 0x3FC9 JUMP JUMPDEST SWAP1 POP SWAP2 SWAP1 POP JUMP JUMPDEST PUSH1 0x0 PUSH2 0x4017 DUP3 PUSH2 0x30C5 JUMP JUMPDEST SWAP2 POP PUSH2 0x4022 DUP4 PUSH2 0x30C5 JUMP JUMPDEST SWAP3 POP DUP2 PUSH32 0xFFFFFFFFFFFFFFFFFFFFFFFFFFFFFFFFFFFFFFFFFFFFFFFFFFFFFFFFFFFFFFFF DIV DUP4 GT DUP3 ISZERO ISZERO AND ISZERO PUSH2 0x405B JUMPI PUSH2 0x405A PUSH2 0x3C27 JUMP JUMPDEST JUMPDEST DUP3 DUP3 MUL SWAP1 POP SWAP3 SWAP2 POP POP JUMP JUMPDEST PUSH32 0x4E487B7100000000000000000000000000000000000000000000000000000000 PUSH1 0x0 MSTORE PUSH1 0x12 PUSH1 0x4 MSTORE PUSH1 0x24 PUSH1 0x0 REVERT JUMPDEST PUSH1 0x0 PUSH2 0x40A0 DUP3 PUSH2 0x30C5 JUMP JUMPDEST SWAP2 POP PUSH2 0x40AB DUP4 PUSH2 0x30C5 JUMP JUMPDEST SWAP3 POP DUP3 PUSH2 0x40BB JUMPI PUSH2 0x40BA PUSH2 0x4066 JUMP JUMPDEST JUMPDEST DUP3 DUP3 DIV SWAP1 POP SWAP3 SWAP2 POP POP JUMP JUMPDEST PUSH1 0x0 PUSH1 0x60 DUP3 ADD SWAP1 POP PUSH2 0x40DB PUSH1 0x0 DUP4 ADD DUP7 PUSH2 0x3343 JUMP JUMPDEST PUSH2 0x40E8 PUSH1 0x20 DUP4 ADD DUP6 PUSH2 0x3343 JUMP JUMPDEST PUSH2 0x40F5 PUSH1 0x40 DUP4 ADD DUP5 PUSH2 0x315E JUMP JUMPDEST SWAP5 SWAP4 POP POP POP POP JUMP JUMPDEST PUSH32 0x5472616E7366657248656C7065723A205452414E534645525F46524F4D5F4641 PUSH1 0x0 DUP3 ADD MSTORE PUSH32 0x494C454400000000000000000000000000000000000000000000000000000000 PUSH1 0x20 DUP3 ADD MSTORE POP JUMP JUMPDEST PUSH1 0x0 PUSH2 0x4159 PUSH1 0x24 DUP4 PUSH2 0x355E JUMP JUMPDEST SWAP2 POP PUSH2 0x4164 DUP3 PUSH2 0x40FD JUMP JUMPDEST PUSH1 0x40 DUP3 ADD SWAP1 POP SWAP2 SWAP1 POP JUMP JUMPDEST PUSH1 0x0 PUSH1 0x20 DUP3 ADD SWAP1 POP DUP2 DUP2 SUB PUSH1 0x0 DUP4 ADD MSTORE PUSH2 0x4188 DUP2 PUSH2 0x414C JUMP JUMPDEST SWAP1 POP SWAP2 SWAP1 POP JUMP INVALID LOG2 PUSH5 0x6970667358 0x22 SLT KECCAK256 0xA5 EXP 0xE1 JUMPDEST REVERT PUSH24 0xBB92331AAD800F231758FE57D6CFC31A123429A5928A82A6 0xE1 0xBF PUSH5 0x736F6C6343 STOP ADDMOD 0xD STOP CALLER "
				},
				"gasEstimates": {
					"creation": {
						"codeDepositCost": "3367400",
						"executionCost": "infinite",
						"totalCost": "infinite"
					},
					"external": {
						"_initialized()": "2539",
						"factory()": "infinite",
						"getAmounts()": "infinite",
						"getTokens()": "infinite",
						"getTradeOutAmount(uint256)": "infinite",
						"getTrades()": "infinite",
						"initialize(uint8,address,address,uint256,uint256,uint256,bool,address)": "infinite",
						"owner()": "2567",
						"renounceOwnership()": "30397",
						"totalTradeAmount()": "2474",
						"tradeEthForToken()": "infinite",
						"tradeEthForToken(uint256)": "infinite",
						"tradeTokenForEth()": "infinite",
						"tradeTokenForEth(uint256)": "infinite",
						"tradeTokenForToken()": "infinite",
						"tradeTokenForToken(uint256)": "infinite",
						"transferOwnership(address)": "30830",
						"withdraw()": "infinite",
						"withdraw(address)": "infinite"
					},
					"internal": {
						"_getTradeOutAmount(uint256)": "infinite",
						"_tradeEthForToken(uint256)": "infinite",
						"_tradeTokenForEth(uint256)": "infinite",
						"_tradeTokenForToken(uint256)": "infinite"
					}
				},
				"methodIdentifiers": {
					"_initialized()": "3072cf60",
					"factory()": "c45a0155",
					"getAmounts()": "3d370b4e",
					"getTokens()": "aa6ca808",
					"getTradeOutAmount(uint256)": "dab5a8df",
					"getTrades()": "e43372e9",
					"initialize(uint8,address,address,uint256,uint256,uint256,bool,address)": "5f5780e5",
					"owner()": "8da5cb5b",
					"renounceOwnership()": "715018a6",
					"totalTradeAmount()": "40a6f1ab",
					"tradeEthForToken()": "d7bdfc75",
					"tradeEthForToken(uint256)": "4341f920",
					"tradeTokenForEth()": "a09702b1",
					"tradeTokenForEth(uint256)": "0d182605",
					"tradeTokenForToken()": "abd050ea",
					"tradeTokenForToken(uint256)": "2ffc6887",
					"transferOwnership(address)": "f2fde38b",
					"withdraw()": "3ccfd60b",
					"withdraw(address)": "51cff8d9"
				}
			},
			"storageLayout": {
				"storage": [
					{
						"astId": 7,
						"contract": "contracts/SyCrowBarter.sol:SyCrowBarter",
						"label": "_owner",
						"offset": 0,
						"slot": "0",
						"type": "t_address"
					},
					{
						"astId": 142,
						"contract": "contracts/SyCrowBarter.sol:SyCrowBarter",
						"label": "totalTradeAmount",
						"offset": 0,
						"slot": "1",
						"type": "t_uint256"
					},
					{
						"astId": 145,
						"contract": "contracts/SyCrowBarter.sol:SyCrowBarter",
						"label": "_barterType",
						"offset": 0,
						"slot": "2",
						"type": "t_enum(ISyCrowBarterType)1239"
					},
					{
						"astId": 147,
						"contract": "contracts/SyCrowBarter.sol:SyCrowBarter",
						"label": "WETH",
						"offset": 1,
						"slot": "2",
						"type": "t_address"
					},
					{
						"astId": 149,
						"contract": "contracts/SyCrowBarter.sol:SyCrowBarter",
						"label": "_deadline",
						"offset": 0,
						"slot": "3",
						"type": "t_uint256"
					},
					{
						"astId": 152,
						"contract": "contracts/SyCrowBarter.sol:SyCrowBarter",
						"label": "_initialized",
						"offset": 0,
						"slot": "4",
						"type": "t_bool"
					},
					{
						"astId": 154,
						"contract": "contracts/SyCrowBarter.sol:SyCrowBarter",
						"label": "_depositedTokenAddress",
						"offset": 1,
						"slot": "4",
						"type": "t_address"
					},
					{
						"astId": 156,
						"contract": "contracts/SyCrowBarter.sol:SyCrowBarter",
						"label": "_expectedTokenAddress",
						"offset": 0,
						"slot": "5",
						"type": "t_address"
					},
					{
						"astId": 158,
						"contract": "contracts/SyCrowBarter.sol:SyCrowBarter",
						"label": "_depositedAmount",
						"offset": 0,
						"slot": "6",
						"type": "t_uint256"
					},
					{
						"astId": 160,
						"contract": "contracts/SyCrowBarter.sol:SyCrowBarter",
						"label": "_expectedAmount",
						"offset": 0,
						"slot": "7",
						"type": "t_uint256"
					},
					{
						"astId": 162,
						"contract": "contracts/SyCrowBarter.sol:SyCrowBarter",
						"label": "_allowMultiBarter",
						"offset": 0,
						"slot": "8",
						"type": "t_bool"
					},
					{
						"astId": 166,
						"contract": "contracts/SyCrowBarter.sol:SyCrowBarter",
						"label": "_trades",
						"offset": 0,
						"slot": "9",
						"type": "t_array(t_struct(BaterTrade)173_storage)dyn_storage"
					}
				],
				"types": {
					"t_address": {
						"encoding": "inplace",
						"label": "address",
						"numberOfBytes": "20"
					},
					"t_array(t_struct(BaterTrade)173_storage)dyn_storage": {
						"base": "t_struct(BaterTrade)173_storage",
						"encoding": "dynamic_array",
						"label": "struct SyCrowBarter.BaterTrade[]",
						"numberOfBytes": "32"
					},
					"t_bool": {
						"encoding": "inplace",
						"label": "bool",
						"numberOfBytes": "1"
					},
					"t_enum(ISyCrowBarterType)1239": {
						"encoding": "inplace",
						"label": "enum ISyCrowBarterType",
						"numberOfBytes": "1"
					},
					"t_struct(BaterTrade)173_storage": {
						"encoding": "inplace",
						"label": "struct SyCrowBarter.BaterTrade",
						"members": [
							{
								"astId": 168,
								"contract": "contracts/SyCrowBarter.sol:SyCrowBarter",
								"label": "_trader",
								"offset": 0,
								"slot": "0",
								"type": "t_address"
							},
							{
								"astId": 170,
								"contract": "contracts/SyCrowBarter.sol:SyCrowBarter",
								"label": "_amountIn",
								"offset": 0,
								"slot": "1",
								"type": "t_uint256"
							},
							{
								"astId": 172,
								"contract": "contracts/SyCrowBarter.sol:SyCrowBarter",
								"label": "_amountOut",
								"offset": 0,
								"slot": "2",
								"type": "t_uint256"
							}
						],
						"numberOfBytes": "96"
					},
					"t_uint256": {
						"encoding": "inplace",
						"label": "uint256",
						"numberOfBytes": "32"
					}
				}
			},
			"userdoc": {
				"kind": "user",
				"methods": {},
				"version": 1
			}
		}
	}
}