{
	"contracts/SyCrowBarter.sol": {
		"SyCrowBarter": {
			"abi": [
				{
					"inputs": [],
					"stateMutability": "nonpayable",
					"type": "constructor"
				},
				{
					"anonymous": false,
					"inputs": [
						{
							"indexed": true,
							"internalType": "address",
							"name": "previousOwner",
							"type": "address"
						},
						{
							"indexed": true,
							"internalType": "address",
							"name": "newOwner",
							"type": "address"
						}
					],
					"name": "OwnershipTransferred",
					"type": "event"
				},
				{
					"inputs": [],
					"name": "_initialized",
					"outputs": [
						{
							"internalType": "bool",
							"name": "",
							"type": "bool"
						}
					],
					"stateMutability": "view",
					"type": "function"
				},
				{
					"inputs": [],
					"name": "factory",
					"outputs": [
						{
							"internalType": "address",
							"name": "",
							"type": "address"
						}
					],
					"stateMutability": "view",
					"type": "function"
				},
				{
					"inputs": [],
					"name": "getAmounts",
					"outputs": [
						{
							"internalType": "uint256",
							"name": "",
							"type": "uint256"
						},
						{
							"internalType": "uint256",
							"name": "",
							"type": "uint256"
						}
					],
					"stateMutability": "view",
					"type": "function"
				},
				{
					"inputs": [],
					"name": "getBarterType",
					"outputs": [
						{
							"internalType": "enum ISyCrowBarterType",
							"name": "",
							"type": "uint8"
						}
					],
					"stateMutability": "view",
					"type": "function"
				},
				{
					"inputs": [],
					"name": "getDeadline",
					"outputs": [
						{
							"internalType": "uint256",
							"name": "",
							"type": "uint256"
						}
					],
					"stateMutability": "view",
					"type": "function"
				},
				{
					"inputs": [],
					"name": "getTokens",
					"outputs": [
						{
							"internalType": "address",
							"name": "",
							"type": "address"
						},
						{
							"internalType": "address",
							"name": "",
							"type": "address"
						}
					],
					"stateMutability": "view",
					"type": "function"
				},
				{
					"inputs": [],
					"name": "getTradeBalance",
					"outputs": [
						{
							"internalType": "uint256",
							"name": "",
							"type": "uint256"
						}
					],
					"stateMutability": "view",
					"type": "function"
				},
				{
					"inputs": [
						{
							"internalType": "uint256",
							"name": "amount",
							"type": "uint256"
						}
					],
					"name": "getTradeOutAmount",
					"outputs": [
						{
							"internalType": "uint256",
							"name": "",
							"type": "uint256"
						}
					],
					"stateMutability": "view",
					"type": "function"
				},
				{
					"inputs": [],
					"name": "getTrades",
					"outputs": [
						{
							"internalType": "address[]",
							"name": "",
							"type": "address[]"
						},
						{
							"internalType": "uint256[]",
							"name": "",
							"type": "uint256[]"
						},
						{
							"internalType": "uint256[]",
							"name": "",
							"type": "uint256[]"
						}
					],
					"stateMutability": "view",
					"type": "function"
				},
				{
					"inputs": [
						{
							"internalType": "enum ISyCrowBarterType",
							"name": "barterType",
							"type": "uint8"
						},
						{
							"internalType": "address",
							"name": "inToken",
							"type": "address"
						},
						{
							"internalType": "address",
							"name": "outToken",
							"type": "address"
						},
						{
							"internalType": "uint256",
							"name": "amountDeposited",
							"type": "uint256"
						},
						{
							"internalType": "uint256",
							"name": "amountExpected",
							"type": "uint256"
						},
						{
							"internalType": "uint256",
							"name": "deadline",
							"type": "uint256"
						},
						{
							"internalType": "bool",
							"name": "allowMultiBarter",
							"type": "bool"
						},
						{
							"internalType": "address",
							"name": "_WETH",
							"type": "address"
						}
					],
					"name": "initialize",
					"outputs": [
						{
							"internalType": "bool",
							"name": "",
							"type": "bool"
						}
					],
					"stateMutability": "nonpayable",
					"type": "function"
				},
				{
					"inputs": [],
					"name": "owner",
					"outputs": [
						{
							"internalType": "address",
							"name": "",
							"type": "address"
						}
					],
					"stateMutability": "view",
					"type": "function"
				},
				{
					"inputs": [],
					"name": "renounceOwnership",
					"outputs": [],
					"stateMutability": "nonpayable",
					"type": "function"
				},
				{
					"inputs": [
						{
							"internalType": "uint256",
							"name": "inAmount",
							"type": "uint256"
						}
					],
					"name": "tradeEthForToken",
					"outputs": [],
					"stateMutability": "payable",
					"type": "function"
				},
				{
					"inputs": [],
					"name": "tradeEthForToken",
					"outputs": [],
					"stateMutability": "payable",
					"type": "function"
				},
				{
					"inputs": [
						{
							"internalType": "uint256",
							"name": "inAmount",
							"type": "uint256"
						}
					],
					"name": "tradeTokenForEth",
					"outputs": [],
					"stateMutability": "nonpayable",
					"type": "function"
				},
				{
					"inputs": [],
					"name": "tradeTokenForEth",
					"outputs": [],
					"stateMutability": "nonpayable",
					"type": "function"
				},
				{
					"inputs": [
						{
							"internalType": "uint256",
							"name": "inAmount",
							"type": "uint256"
						}
					],
					"name": "tradeTokenForToken",
					"outputs": [],
					"stateMutability": "nonpayable",
					"type": "function"
				},
				{
					"inputs": [],
					"name": "tradeTokenForToken",
					"outputs": [],
					"stateMutability": "nonpayable",
					"type": "function"
				},
				{
					"inputs": [
						{
							"internalType": "address",
							"name": "newOwner",
							"type": "address"
						}
					],
					"name": "transferOwnership",
					"outputs": [],
					"stateMutability": "nonpayable",
					"type": "function"
				},
				{
					"inputs": [],
					"name": "withdraw",
					"outputs": [],
					"stateMutability": "nonpayable",
					"type": "function"
				},
				{
					"inputs": [
						{
							"internalType": "address",
							"name": "_erc20TokenAddress",
							"type": "address"
						}
					],
					"name": "withdraw",
					"outputs": [],
					"stateMutability": "nonpayable",
					"type": "function"
				}
			],
			"devdoc": {
				"kind": "dev",
				"methods": {
					"owner()": {
						"details": "Returns the address of the current owner."
					},
					"renounceOwnership()": {
						"details": "Leaves the contract without owner. It will not be possible to call `onlyOwner` functions anymore. Can only be called by the current owner. NOTE: Renouncing ownership will leave the contract without an owner, thereby removing any functionality that is only available to the owner."
					},
					"transferOwnership(address)": {
						"details": "Transfers ownership of the contract to a new account (`newOwner`). Can only be called by the current owner."
					}
				},
				"version": 1
			},
			"evm": {
				"assembly": "    /* \"contracts/SyCrowBarter.sol\":269:11839  contract SyCrowBarter is ISyCrowBarter, Ownable {... */\n  mstore(0x40, 0xa0)\n    /* \"contracts/SyCrowBarter.sol\":458:463  false */\n  0x00\n    /* \"contracts/SyCrowBarter.sol\":431:463  bool public _initialized = false */\n  0x03\n  exp(0x0100, 0x00)\n  dup2\n  sload\n  dup2\n  0xff\n  mul\n  not\n  and\n  swap1\n  dup4\n  iszero\n  iszero\n  mul\n  or\n  swap1\n  sstore\n  pop\n    /* \"contracts/SyCrowBarter.sol\":1889:1940  constructor() {... */\n  callvalue\n  dup1\n  iszero\n  tag_1\n  jumpi\n  0x00\n  dup1\n  revert\ntag_1:\n  pop\n    /* \"@openzeppelin/contracts/access/Ownable.sol\":921:953  _transferOwnership(_msgSender()) */\n  tag_5\n    /* \"@openzeppelin/contracts/access/Ownable.sol\":940:952  _msgSender() */\n  tag_6\n    /* \"@openzeppelin/contracts/access/Ownable.sol\":940:950  _msgSender */\n  shl(0x20, tag_7)\n    /* \"@openzeppelin/contracts/access/Ownable.sol\":940:952  _msgSender() */\n  0x20\n  shr\n  jump\t// in\ntag_6:\n    /* \"@openzeppelin/contracts/access/Ownable.sol\":921:939  _transferOwnership */\n  shl(0x20, tag_8)\n    /* \"@openzeppelin/contracts/access/Ownable.sol\":921:953  _transferOwnership(_msgSender()) */\n  0x20\n  shr\n  jump\t// in\ntag_5:\n    /* \"contracts/SyCrowBarter.sol\":1923:1933  msg.sender */\n  caller\n    /* \"contracts/SyCrowBarter.sol\":1913:1933  factory = msg.sender */\n  0xffffffffffffffffffffffffffffffffffffffff\n  and\n  0x80\n  dup2\n  0xffffffffffffffffffffffffffffffffffffffff\n  and\n  dup2\n  mstore\n  pop\n  pop\n    /* \"contracts/SyCrowBarter.sol\":269:11839  contract SyCrowBarter is ISyCrowBarter, Ownable {... */\n  jump(tag_10)\n    /* \"@openzeppelin/contracts/utils/Context.sol\":640:736  function _msgSender() internal view virtual returns (address) {... */\ntag_7:\n    /* \"@openzeppelin/contracts/utils/Context.sol\":693:700  address */\n  0x00\n    /* \"@openzeppelin/contracts/utils/Context.sol\":719:729  msg.sender */\n  caller\n    /* \"@openzeppelin/contracts/utils/Context.sol\":712:729  return msg.sender */\n  swap1\n  pop\n    /* \"@openzeppelin/contracts/utils/Context.sol\":640:736  function _msgSender() internal view virtual returns (address) {... */\n  swap1\n  jump\t// out\n    /* \"@openzeppelin/contracts/access/Ownable.sol\":2270:2457  function _transferOwnership(address newOwner) internal virtual {... */\ntag_8:\n    /* \"@openzeppelin/contracts/access/Ownable.sol\":2343:2359  address oldOwner */\n  0x00\n    /* \"@openzeppelin/contracts/access/Ownable.sol\":2362:2368  _owner */\n  dup1\n  0x00\n  swap1\n  sload\n  swap1\n  0x0100\n  exp\n  swap1\n  div\n  0xffffffffffffffffffffffffffffffffffffffff\n  and\n    /* \"@openzeppelin/contracts/access/Ownable.sol\":2343:2368  address oldOwner = _owner */\n  swap1\n  pop\n    /* \"@openzeppelin/contracts/access/Ownable.sol\":2387:2395  newOwner */\n  dup2\n    /* \"@openzeppelin/contracts/access/Ownable.sol\":2378:2384  _owner */\n  0x00\n  dup1\n    /* \"@openzeppelin/contracts/access/Ownable.sol\":2378:2395  _owner = newOwner */\n  0x0100\n  exp\n  dup2\n  sload\n  dup2\n  0xffffffffffffffffffffffffffffffffffffffff\n  mul\n  not\n  and\n  swap1\n  dup4\n  0xffffffffffffffffffffffffffffffffffffffff\n  and\n  mul\n  or\n  swap1\n  sstore\n  pop\n    /* \"@openzeppelin/contracts/access/Ownable.sol\":2441:2449  newOwner */\n  dup2\n    /* \"@openzeppelin/contracts/access/Ownable.sol\":2410:2450  OwnershipTransferred(oldOwner, newOwner) */\n  0xffffffffffffffffffffffffffffffffffffffff\n  and\n    /* \"@openzeppelin/contracts/access/Ownable.sol\":2431:2439  oldOwner */\n  dup2\n    /* \"@openzeppelin/contracts/access/Ownable.sol\":2410:2450  OwnershipTransferred(oldOwner, newOwner) */\n  0xffffffffffffffffffffffffffffffffffffffff\n  and\n  0x8be0079c531659141344cd1fd0a4f28419497f9722a3daafe3b4186f6b6457e0\n  mload(0x40)\n  mload(0x40)\n  dup1\n  swap2\n  sub\n  swap1\n  log3\n    /* \"@openzeppelin/contracts/access/Ownable.sol\":2333:2457  {... */\n  pop\n    /* \"@openzeppelin/contracts/access/Ownable.sol\":2270:2457  function _transferOwnership(address newOwner) internal virtual {... */\n  pop\n  jump\t// out\n    /* \"contracts/SyCrowBarter.sol\":269:11839  contract SyCrowBarter is ISyCrowBarter, Ownable {... */\ntag_10:\n  mload(0x80)\n  codecopy(0x00, dataOffset(sub_0), dataSize(sub_0))\n  0x00\n  assignImmutable(\"0x26a975632f70533c9512e57b565b8ce8e2befee6b08dfbc27c4a897a20e2c1d6\")\n  return(0x00, dataSize(sub_0))\nstop\n\nsub_0: assembly {\n        /* \"contracts/SyCrowBarter.sol\":269:11839  contract SyCrowBarter is ISyCrowBarter, Ownable {... */\n      mstore(0x40, 0x80)\n      jumpi(tag_1, lt(calldatasize, 0x04))\n      shr(0xe0, calldataload(0x00))\n      dup1\n      0x715018a6\n      gt\n      tag_23\n      jumpi\n      dup1\n      0xc45a0155\n      gt\n      tag_24\n      jumpi\n      dup1\n      0xc45a0155\n      eq\n      tag_17\n      jumpi\n      dup1\n      0xd7bdfc75\n      eq\n      tag_18\n      jumpi\n      dup1\n      0xdab5a8df\n      eq\n      tag_19\n      jumpi\n      dup1\n      0xe43372e9\n      eq\n      tag_20\n      jumpi\n      dup1\n      0xf2fde38b\n      eq\n      tag_21\n      jumpi\n      dup1\n      0xf4f057b9\n      eq\n      tag_22\n      jumpi\n      jump(tag_1)\n    tag_24:\n      dup1\n      0x715018a6\n      eq\n      tag_12\n      jumpi\n      dup1\n      0x8da5cb5b\n      eq\n      tag_13\n      jumpi\n      dup1\n      0xa09702b1\n      eq\n      tag_14\n      jumpi\n      dup1\n      0xaa6ca808\n      eq\n      tag_15\n      jumpi\n      dup1\n      0xabd050ea\n      eq\n      tag_16\n      jumpi\n      jump(tag_1)\n    tag_23:\n      dup1\n      0x4341f920\n      gt\n      tag_25\n      jumpi\n      dup1\n      0x4341f920\n      eq\n      tag_7\n      jumpi\n      dup1\n      0x442fb8cd\n      eq\n      tag_8\n      jumpi\n      dup1\n      0x51cff8d9\n      eq\n      tag_9\n      jumpi\n      dup1\n      0x5f5780e5\n      eq\n      tag_10\n      jumpi\n      dup1\n      0x5f8d96de\n      eq\n      tag_11\n      jumpi\n      jump(tag_1)\n    tag_25:\n      dup1\n      0x0d182605\n      eq\n      tag_2\n      jumpi\n      dup1\n      0x2ffc6887\n      eq\n      tag_3\n      jumpi\n      dup1\n      0x3072cf60\n      eq\n      tag_4\n      jumpi\n      dup1\n      0x3ccfd60b\n      eq\n      tag_5\n      jumpi\n      dup1\n      0x3d370b4e\n      eq\n      tag_6\n      jumpi\n    tag_1:\n      0x00\n      dup1\n      revert\n        /* \"contracts/SyCrowBarter.sol\":4845:5114  function tradeTokenForEth(uint256 inAmount)... */\n    tag_2:\n      callvalue\n      dup1\n      iszero\n      tag_26\n      jumpi\n      0x00\n      dup1\n      revert\n    tag_26:\n      pop\n      tag_27\n      0x04\n      dup1\n      calldatasize\n      sub\n      dup2\n      add\n      swap1\n      tag_28\n      swap2\n      swap1\n      tag_29\n      jump\t// in\n    tag_28:\n      tag_30\n      jump\t// in\n    tag_27:\n      stop\n        /* \"contracts/SyCrowBarter.sol\":4564:4839  function tradeTokenForToken(uint256 inAmount)... */\n    tag_3:\n      callvalue\n      dup1\n      iszero\n      tag_31\n      jumpi\n      0x00\n      dup1\n      revert\n    tag_31:\n      pop\n      tag_32\n      0x04\n      dup1\n      calldatasize\n      sub\n      dup2\n      add\n      swap1\n      tag_33\n      swap2\n      swap1\n      tag_29\n      jump\t// in\n    tag_33:\n      tag_34\n      jump\t// in\n    tag_32:\n      stop\n        /* \"contracts/SyCrowBarter.sol\":431:463  bool public _initialized = false */\n    tag_4:\n      callvalue\n      dup1\n      iszero\n      tag_35\n      jumpi\n      0x00\n      dup1\n      revert\n    tag_35:\n      pop\n      tag_36\n      tag_37\n      jump\t// in\n    tag_36:\n      mload(0x40)\n      tag_38\n      swap2\n      swap1\n      tag_39\n      jump\t// in\n    tag_38:\n      mload(0x40)\n      dup1\n      swap2\n      sub\n      swap1\n      return\n        /* \"contracts/SyCrowBarter.sol\":9077:10796  function withdraw() external override checkInActive initialized onlyOwner {... */\n    tag_5:\n      callvalue\n      dup1\n      iszero\n      tag_40\n      jumpi\n      0x00\n      dup1\n      revert\n    tag_40:\n      pop\n      tag_41\n      tag_42\n      jump\t// in\n    tag_41:\n      stop\n        /* \"contracts/SyCrowBarter.sol\":2972:3159  function getAmounts()... */\n    tag_6:\n      callvalue\n      dup1\n      iszero\n      tag_43\n      jumpi\n      0x00\n      dup1\n      revert\n    tag_43:\n      pop\n      tag_44\n      tag_45\n      jump\t// in\n    tag_44:\n      mload(0x40)\n      tag_46\n      swap3\n      swap2\n      swap1\n      tag_47\n      jump\t// in\n    tag_46:\n      mload(0x40)\n      dup1\n      swap2\n      sub\n      swap1\n      return\n        /* \"contracts/SyCrowBarter.sol\":5120:5405  function tradeEthForToken(uint256 inAmount)... */\n    tag_7:\n      tag_48\n      0x04\n      dup1\n      calldatasize\n      sub\n      dup2\n      add\n      swap1\n      tag_49\n      swap2\n      swap1\n      tag_29\n      jump\t// in\n    tag_49:\n      tag_50\n      jump\t// in\n    tag_48:\n      stop\n        /* \"contracts/SyCrowBarter.sol\":3699:3866  function getBarterType()... */\n    tag_8:\n      callvalue\n      dup1\n      iszero\n      tag_51\n      jumpi\n      0x00\n      dup1\n      revert\n    tag_51:\n      pop\n      tag_52\n      tag_53\n      jump\t// in\n    tag_52:\n      mload(0x40)\n      tag_54\n      swap2\n      swap1\n      tag_55\n      jump\t// in\n    tag_54:\n      mload(0x40)\n      dup1\n      swap2\n      sub\n      swap1\n      return\n        /* \"contracts/SyCrowBarter.sol\":10802:11479  function withdraw(address _erc20TokenAddress)... */\n    tag_9:\n      callvalue\n      dup1\n      iszero\n      tag_56\n      jumpi\n      0x00\n      dup1\n      revert\n    tag_56:\n      pop\n      tag_57\n      0x04\n      dup1\n      calldatasize\n      sub\n      dup2\n      add\n      swap1\n      tag_58\n      swap2\n      swap1\n      tag_59\n      jump\t// in\n    tag_58:\n      tag_60\n      jump\t// in\n    tag_57:\n      stop\n        /* \"contracts/SyCrowBarter.sol\":1946:2966  function initialize(... */\n    tag_10:\n      callvalue\n      dup1\n      iszero\n      tag_61\n      jumpi\n      0x00\n      dup1\n      revert\n    tag_61:\n      pop\n      tag_62\n      0x04\n      dup1\n      calldatasize\n      sub\n      dup2\n      add\n      swap1\n      tag_63\n      swap2\n      swap1\n      tag_64\n      jump\t// in\n    tag_63:\n      tag_65\n      jump\t// in\n    tag_62:\n      mload(0x40)\n      tag_66\n      swap2\n      swap1\n      tag_39\n      jump\t// in\n    tag_66:\n      mload(0x40)\n      dup1\n      swap2\n      sub\n      swap1\n      return\n        /* \"contracts/SyCrowBarter.sol\":3540:3693  function getDeadline()... */\n    tag_11:\n      callvalue\n      dup1\n      iszero\n      tag_67\n      jumpi\n      0x00\n      dup1\n      revert\n    tag_67:\n      pop\n      tag_68\n      tag_69\n      jump\t// in\n    tag_68:\n      mload(0x40)\n      tag_70\n      swap2\n      swap1\n      tag_71\n      jump\t// in\n    tag_70:\n      mload(0x40)\n      dup1\n      swap2\n      sub\n      swap1\n      return\n        /* \"@openzeppelin/contracts/access/Ownable.sol\":1668:1769  function renounceOwnership() public virtual onlyOwner {... */\n    tag_12:\n      callvalue\n      dup1\n      iszero\n      tag_72\n      jumpi\n      0x00\n      dup1\n      revert\n    tag_72:\n      pop\n      tag_73\n      tag_74\n      jump\t// in\n    tag_73:\n      stop\n        /* \"@openzeppelin/contracts/access/Ownable.sol\":1036:1121  function owner() public view virtual returns (address) {... */\n    tag_13:\n      callvalue\n      dup1\n      iszero\n      tag_75\n      jumpi\n      0x00\n      dup1\n      revert\n    tag_75:\n      pop\n      tag_76\n      tag_77\n      jump\t// in\n    tag_76:\n      mload(0x40)\n      tag_78\n      swap2\n      swap1\n      tag_79\n      jump\t// in\n    tag_78:\n      mload(0x40)\n      dup1\n      swap2\n      sub\n      swap1\n      return\n        /* \"contracts/SyCrowBarter.sol\":5657:5891  function tradeTokenForEth()... */\n    tag_14:\n      callvalue\n      dup1\n      iszero\n      tag_80\n      jumpi\n      0x00\n      dup1\n      revert\n    tag_80:\n      pop\n      tag_81\n      tag_82\n      jump\t// in\n    tag_81:\n      stop\n        /* \"contracts/SyCrowBarter.sol\":3165:3363  function getTokens()... */\n    tag_15:\n      callvalue\n      dup1\n      iszero\n      tag_83\n      jumpi\n      0x00\n      dup1\n      revert\n    tag_83:\n      pop\n      tag_84\n      tag_85\n      jump\t// in\n    tag_84:\n      mload(0x40)\n      tag_86\n      swap3\n      swap2\n      swap1\n      tag_87\n      jump\t// in\n    tag_86:\n      mload(0x40)\n      dup1\n      swap2\n      sub\n      swap1\n      return\n        /* \"contracts/SyCrowBarter.sol\":5411:5651  function tradeTokenForToken()... */\n    tag_16:\n      callvalue\n      dup1\n      iszero\n      tag_88\n      jumpi\n      0x00\n      dup1\n      revert\n    tag_88:\n      pop\n      tag_89\n      tag_90\n      jump\t// in\n    tag_89:\n      stop\n        /* \"contracts/SyCrowBarter.sol\":323:364  address public immutable override factory */\n    tag_17:\n      callvalue\n      dup1\n      iszero\n      tag_91\n      jumpi\n      0x00\n      dup1\n      revert\n    tag_91:\n      pop\n      tag_92\n      tag_93\n      jump\t// in\n    tag_92:\n      mload(0x40)\n      tag_94\n      swap2\n      swap1\n      tag_79\n      jump\t// in\n    tag_94:\n      mload(0x40)\n      dup1\n      swap2\n      sub\n      swap1\n      return\n        /* \"contracts/SyCrowBarter.sol\":5897:6147  function tradeEthForToken()... */\n    tag_18:\n      tag_95\n      tag_96\n      jump\t// in\n    tag_95:\n      stop\n        /* \"contracts/SyCrowBarter.sol\":11485:11658  function getTradeOutAmount(uint256 amount)... */\n    tag_19:\n      callvalue\n      dup1\n      iszero\n      tag_97\n      jumpi\n      0x00\n      dup1\n      revert\n    tag_97:\n      pop\n      tag_98\n      0x04\n      dup1\n      calldatasize\n      sub\n      dup2\n      add\n      swap1\n      tag_99\n      swap2\n      swap1\n      tag_29\n      jump\t// in\n    tag_99:\n      tag_100\n      jump\t// in\n    tag_98:\n      mload(0x40)\n      tag_101\n      swap2\n      swap1\n      tag_71\n      jump\t// in\n    tag_101:\n      mload(0x40)\n      dup1\n      swap2\n      sub\n      swap1\n      return\n        /* \"contracts/SyCrowBarter.sol\":3872:4558  function getTrades()... */\n    tag_20:\n      callvalue\n      dup1\n      iszero\n      tag_102\n      jumpi\n      0x00\n      dup1\n      revert\n    tag_102:\n      pop\n      tag_103\n      tag_104\n      jump\t// in\n    tag_103:\n      mload(0x40)\n      tag_105\n      swap4\n      swap3\n      swap2\n      swap1\n      tag_106\n      jump\t// in\n    tag_105:\n      mload(0x40)\n      dup1\n      swap2\n      sub\n      swap1\n      return\n        /* \"@openzeppelin/contracts/access/Ownable.sol\":1918:2116  function transferOwnership(address newOwner) public virtual onlyOwner {... */\n    tag_21:\n      callvalue\n      dup1\n      iszero\n      tag_107\n      jumpi\n      0x00\n      dup1\n      revert\n    tag_107:\n      pop\n      tag_108\n      0x04\n      dup1\n      calldatasize\n      sub\n      dup2\n      add\n      swap1\n      tag_109\n      swap2\n      swap1\n      tag_59\n      jump\t// in\n    tag_109:\n      tag_110\n      jump\t// in\n    tag_108:\n      stop\n        /* \"contracts/SyCrowBarter.sol\":3369:3534  function getTradeBalance()... */\n    tag_22:\n      callvalue\n      dup1\n      iszero\n      tag_111\n      jumpi\n      0x00\n      dup1\n      revert\n    tag_111:\n      pop\n      tag_112\n      tag_113\n      jump\t// in\n    tag_112:\n      mload(0x40)\n      tag_114\n      swap2\n      swap1\n      tag_71\n      jump\t// in\n    tag_114:\n      mload(0x40)\n      dup1\n      swap2\n      sub\n      swap1\n      return\n        /* \"contracts/SyCrowBarter.sol\":4845:5114  function tradeTokenForEth(uint256 inAmount)... */\n    tag_30:\n        /* \"contracts/SyCrowBarter.sol\":966:981  block.timestamp */\n      timestamp\n        /* \"contracts/SyCrowBarter.sol\":953:962  _deadline */\n      sload(0x02)\n        /* \"contracts/SyCrowBarter.sol\":953:981  _deadline >= block.timestamp */\n      lt\n      iszero\n        /* \"contracts/SyCrowBarter.sol\":953:1020  _deadline >= block.timestamp && _totalTradeAmount < _expectedAmount */\n      dup1\n      iszero\n      tag_116\n      jumpi\n      pop\n        /* \"contracts/SyCrowBarter.sol\":1005:1020  _expectedAmount */\n      sload(0x06)\n        /* \"contracts/SyCrowBarter.sol\":985:1002  _totalTradeAmount */\n      sload(0x07)\n        /* \"contracts/SyCrowBarter.sol\":985:1020  _totalTradeAmount < _expectedAmount */\n      lt\n        /* \"contracts/SyCrowBarter.sol\":953:1020  _deadline >= block.timestamp && _totalTradeAmount < _expectedAmount */\n    tag_116:\n        /* \"contracts/SyCrowBarter.sol\":932:1068  require(... */\n      tag_117\n      jumpi\n      mload(0x40)\n      0x08c379a000000000000000000000000000000000000000000000000000000000\n      dup2\n      mstore\n      0x04\n      add\n      tag_118\n      swap1\n      tag_119\n      jump\t// in\n    tag_118:\n      mload(0x40)\n      dup1\n      swap2\n      sub\n      swap1\n      revert\n    tag_117:\n        /* \"contracts/SyCrowBarter.sol\":1486:1498  _initialized */\n      0x03\n      0x00\n      swap1\n      sload\n      swap1\n      0x0100\n      exp\n      swap1\n      div\n      0xff\n      and\n        /* \"contracts/SyCrowBarter.sol\":1478:1532  require(_initialized, \"SyCrowBarter: NOT_INITIALIZED\") */\n      tag_121\n      jumpi\n      mload(0x40)\n      0x08c379a000000000000000000000000000000000000000000000000000000000\n      dup2\n      mstore\n      0x04\n      add\n      tag_122\n      swap1\n      tag_123\n      jump\t// in\n    tag_122:\n      mload(0x40)\n      dup1\n      swap2\n      sub\n      swap1\n      revert\n    tag_121:\n        /* \"contracts/SyCrowBarter.sol\":1719:1752  ISyCrowBarterFactory isycrFactory */\n      0x00\n        /* \"contracts/SyCrowBarter.sol\":1776:1783  factory */\n      immutable(\"0x26a975632f70533c9512e57b565b8ce8e2befee6b08dfbc27c4a897a20e2c1d6\")\n        /* \"contracts/SyCrowBarter.sol\":1719:1784  ISyCrowBarterFactory isycrFactory = ISyCrowBarterFactory(factory) */\n      swap1\n      pop\n        /* \"contracts/SyCrowBarter.sol\":1803:1815  isycrFactory */\n      dup1\n        /* \"contracts/SyCrowBarter.sol\":1803:1824  isycrFactory.isPaused */\n      0xffffffffffffffffffffffffffffffffffffffff\n      and\n      0xb187bd26\n        /* \"contracts/SyCrowBarter.sol\":1803:1826  isycrFactory.isPaused() */\n      mload(0x40)\n      dup2\n      0xffffffff\n      and\n      0xe0\n      shl\n      dup2\n      mstore\n      0x04\n      add\n      0x20\n      mload(0x40)\n      dup1\n      dup4\n      sub\n      dup2\n      dup7\n      gas\n      staticcall\n      iszero\n      dup1\n      iszero\n      tag_126\n      jumpi\n      returndatasize\n      0x00\n      dup1\n      returndatacopy\n      revert(0x00, returndatasize)\n    tag_126:\n      pop\n      pop\n      pop\n      pop\n      mload(0x40)\n      returndatasize\n      not(0x1f)\n      0x1f\n      dup3\n      add\n      and\n      dup3\n      add\n      dup1\n      0x40\n      mstore\n      pop\n      dup2\n      add\n      swap1\n      tag_127\n      swap2\n      swap1\n      tag_128\n      jump\t// in\n    tag_127:\n        /* \"contracts/SyCrowBarter.sol\":1802:1826  !isycrFactory.isPaused() */\n      iszero\n        /* \"contracts/SyCrowBarter.sol\":1794:1865  require(!isycrFactory.isPaused(), \"SyCrowBarter: Base Contract Paused\") */\n      tag_129\n      jumpi\n      mload(0x40)\n      0x08c379a000000000000000000000000000000000000000000000000000000000\n      dup2\n      mstore\n      0x04\n      add\n      tag_130\n      swap1\n      tag_131\n      jump\t// in\n    tag_130:\n      mload(0x40)\n      dup1\n      swap2\n      sub\n      swap1\n      revert\n    tag_129:\n        /* \"contracts/SyCrowBarter.sol\":1603:1620  _allowMultiBarter */\n      0x08\n      0x00\n      swap1\n      sload\n      swap1\n      0x0100\n      exp\n      swap1\n      div\n      0xff\n      and\n        /* \"contracts/SyCrowBarter.sol\":1595:1662  require(_allowMultiBarter, \"SyCrowBarter: MULTI_TRADE_NOT_ENABLED\") */\n      tag_133\n      jumpi\n      mload(0x40)\n      0x08c379a000000000000000000000000000000000000000000000000000000000\n      dup2\n      mstore\n      0x04\n      add\n      tag_134\n      swap1\n      tag_135\n      jump\t// in\n    tag_134:\n      mload(0x40)\n      dup1\n      swap2\n      sub\n      swap1\n      revert\n    tag_133:\n        /* \"contracts/SyCrowBarter.sol\":5033:5064  ISyCrowBarterType.ETH_FOR_TOKEN */\n      0x00\n        /* \"contracts/SyCrowBarter.sol\":1179:1190  _barterType */\n      0x08\n      0x01\n      swap1\n      sload\n      swap1\n      0x0100\n      exp\n      swap1\n      div\n      0xff\n      and\n        /* \"contracts/SyCrowBarter.sol\":1165:1190  barterType == _barterType */\n      0x02\n      dup2\n      gt\n      iszero\n      tag_137\n      jumpi\n      tag_138\n      tag_139\n      jump\t// in\n    tag_138:\n    tag_137:\n        /* \"contracts/SyCrowBarter.sol\":1165:1175  barterType */\n      dup2\n        /* \"contracts/SyCrowBarter.sol\":1165:1190  barterType == _barterType */\n      0x02\n      dup2\n      gt\n      iszero\n      tag_140\n      jumpi\n      tag_141\n      tag_139\n      jump\t// in\n    tag_141:\n    tag_140:\n      eq\n        /* \"contracts/SyCrowBarter.sol\":1157:1228  require(barterType == _barterType, \"SyCrowBarter: INVALID_BARTER_TYPE\") */\n      tag_142\n      jumpi\n      mload(0x40)\n      0x08c379a000000000000000000000000000000000000000000000000000000000\n      dup2\n      mstore\n      0x04\n      add\n      tag_143\n      swap1\n      tag_144\n      jump\t// in\n    tag_143:\n      mload(0x40)\n      dup1\n      swap2\n      sub\n      swap1\n      revert\n    tag_142:\n        /* \"contracts/SyCrowBarter.sol\":5080:5107  _tradeTokenForEth(inAmount) */\n      tag_146\n        /* \"contracts/SyCrowBarter.sol\":5098:5106  inAmount */\n      dup4\n        /* \"contracts/SyCrowBarter.sol\":5080:5097  _tradeTokenForEth */\n      tag_147\n        /* \"contracts/SyCrowBarter.sol\":5080:5107  _tradeTokenForEth(inAmount) */\n      jump\t// in\n    tag_146:\n        /* \"contracts/SyCrowBarter.sol\":1672:1673  _ */\n      pop\n        /* \"contracts/SyCrowBarter.sol\":1709:1883  {... */\n      pop\n        /* \"contracts/SyCrowBarter.sol\":4845:5114  function tradeTokenForEth(uint256 inAmount)... */\n      pop\n      jump\t// out\n        /* \"contracts/SyCrowBarter.sol\":4564:4839  function tradeTokenForToken(uint256 inAmount)... */\n    tag_34:\n        /* \"contracts/SyCrowBarter.sol\":966:981  block.timestamp */\n      timestamp\n        /* \"contracts/SyCrowBarter.sol\":953:962  _deadline */\n      sload(0x02)\n        /* \"contracts/SyCrowBarter.sol\":953:981  _deadline >= block.timestamp */\n      lt\n      iszero\n        /* \"contracts/SyCrowBarter.sol\":953:1020  _deadline >= block.timestamp && _totalTradeAmount < _expectedAmount */\n      dup1\n      iszero\n      tag_149\n      jumpi\n      pop\n        /* \"contracts/SyCrowBarter.sol\":1005:1020  _expectedAmount */\n      sload(0x06)\n        /* \"contracts/SyCrowBarter.sol\":985:1002  _totalTradeAmount */\n      sload(0x07)\n        /* \"contracts/SyCrowBarter.sol\":985:1020  _totalTradeAmount < _expectedAmount */\n      lt\n        /* \"contracts/SyCrowBarter.sol\":953:1020  _deadline >= block.timestamp && _totalTradeAmount < _expectedAmount */\n    tag_149:\n        /* \"contracts/SyCrowBarter.sol\":932:1068  require(... */\n      tag_150\n      jumpi\n      mload(0x40)\n      0x08c379a000000000000000000000000000000000000000000000000000000000\n      dup2\n      mstore\n      0x04\n      add\n      tag_151\n      swap1\n      tag_119\n      jump\t// in\n    tag_151:\n      mload(0x40)\n      dup1\n      swap2\n      sub\n      swap1\n      revert\n    tag_150:\n        /* \"contracts/SyCrowBarter.sol\":1486:1498  _initialized */\n      0x03\n      0x00\n      swap1\n      sload\n      swap1\n      0x0100\n      exp\n      swap1\n      div\n      0xff\n      and\n        /* \"contracts/SyCrowBarter.sol\":1478:1532  require(_initialized, \"SyCrowBarter: NOT_INITIALIZED\") */\n      tag_153\n      jumpi\n      mload(0x40)\n      0x08c379a000000000000000000000000000000000000000000000000000000000\n      dup2\n      mstore\n      0x04\n      add\n      tag_154\n      swap1\n      tag_123\n      jump\t// in\n    tag_154:\n      mload(0x40)\n      dup1\n      swap2\n      sub\n      swap1\n      revert\n    tag_153:\n        /* \"contracts/SyCrowBarter.sol\":1719:1752  ISyCrowBarterFactory isycrFactory */\n      0x00\n        /* \"contracts/SyCrowBarter.sol\":1776:1783  factory */\n      immutable(\"0x26a975632f70533c9512e57b565b8ce8e2befee6b08dfbc27c4a897a20e2c1d6\")\n        /* \"contracts/SyCrowBarter.sol\":1719:1784  ISyCrowBarterFactory isycrFactory = ISyCrowBarterFactory(factory) */\n      swap1\n      pop\n        /* \"contracts/SyCrowBarter.sol\":1803:1815  isycrFactory */\n      dup1\n        /* \"contracts/SyCrowBarter.sol\":1803:1824  isycrFactory.isPaused */\n      0xffffffffffffffffffffffffffffffffffffffff\n      and\n      0xb187bd26\n        /* \"contracts/SyCrowBarter.sol\":1803:1826  isycrFactory.isPaused() */\n      mload(0x40)\n      dup2\n      0xffffffff\n      and\n      0xe0\n      shl\n      dup2\n      mstore\n      0x04\n      add\n      0x20\n      mload(0x40)\n      dup1\n      dup4\n      sub\n      dup2\n      dup7\n      gas\n      staticcall\n      iszero\n      dup1\n      iszero\n      tag_157\n      jumpi\n      returndatasize\n      0x00\n      dup1\n      returndatacopy\n      revert(0x00, returndatasize)\n    tag_157:\n      pop\n      pop\n      pop\n      pop\n      mload(0x40)\n      returndatasize\n      not(0x1f)\n      0x1f\n      dup3\n      add\n      and\n      dup3\n      add\n      dup1\n      0x40\n      mstore\n      pop\n      dup2\n      add\n      swap1\n      tag_158\n      swap2\n      swap1\n      tag_128\n      jump\t// in\n    tag_158:\n        /* \"contracts/SyCrowBarter.sol\":1802:1826  !isycrFactory.isPaused() */\n      iszero\n        /* \"contracts/SyCrowBarter.sol\":1794:1865  require(!isycrFactory.isPaused(), \"SyCrowBarter: Base Contract Paused\") */\n      tag_159\n      jumpi\n      mload(0x40)\n      0x08c379a000000000000000000000000000000000000000000000000000000000\n      dup2\n      mstore\n      0x04\n      add\n      tag_160\n      swap1\n      tag_131\n      jump\t// in\n    tag_160:\n      mload(0x40)\n      dup1\n      swap2\n      sub\n      swap1\n      revert\n    tag_159:\n        /* \"contracts/SyCrowBarter.sol\":1603:1620  _allowMultiBarter */\n      0x08\n      0x00\n      swap1\n      sload\n      swap1\n      0x0100\n      exp\n      swap1\n      div\n      0xff\n      and\n        /* \"contracts/SyCrowBarter.sol\":1595:1662  require(_allowMultiBarter, \"SyCrowBarter: MULTI_TRADE_NOT_ENABLED\") */\n      tag_162\n      jumpi\n      mload(0x40)\n      0x08c379a000000000000000000000000000000000000000000000000000000000\n      dup2\n      mstore\n      0x04\n      add\n      tag_163\n      swap1\n      tag_135\n      jump\t// in\n    tag_163:\n      mload(0x40)\n      dup1\n      swap2\n      sub\n      swap1\n      revert\n    tag_162:\n        /* \"contracts/SyCrowBarter.sol\":4754:4787  ISyCrowBarterType.TOKEN_FOR_TOKEN */\n      0x02\n        /* \"contracts/SyCrowBarter.sol\":1179:1190  _barterType */\n      0x08\n      0x01\n      swap1\n      sload\n      swap1\n      0x0100\n      exp\n      swap1\n      div\n      0xff\n      and\n        /* \"contracts/SyCrowBarter.sol\":1165:1190  barterType == _barterType */\n      0x02\n      dup2\n      gt\n      iszero\n      tag_165\n      jumpi\n      tag_166\n      tag_139\n      jump\t// in\n    tag_166:\n    tag_165:\n        /* \"contracts/SyCrowBarter.sol\":1165:1175  barterType */\n      dup2\n        /* \"contracts/SyCrowBarter.sol\":1165:1190  barterType == _barterType */\n      0x02\n      dup2\n      gt\n      iszero\n      tag_167\n      jumpi\n      tag_168\n      tag_139\n      jump\t// in\n    tag_168:\n    tag_167:\n      eq\n        /* \"contracts/SyCrowBarter.sol\":1157:1228  require(barterType == _barterType, \"SyCrowBarter: INVALID_BARTER_TYPE\") */\n      tag_169\n      jumpi\n      mload(0x40)\n      0x08c379a000000000000000000000000000000000000000000000000000000000\n      dup2\n      mstore\n      0x04\n      add\n      tag_170\n      swap1\n      tag_144\n      jump\t// in\n    tag_170:\n      mload(0x40)\n      dup1\n      swap2\n      sub\n      swap1\n      revert\n    tag_169:\n        /* \"contracts/SyCrowBarter.sol\":4803:4832  _tradeTokenForToken(inAmount) */\n      tag_172\n        /* \"contracts/SyCrowBarter.sol\":4823:4831  inAmount */\n      dup4\n        /* \"contracts/SyCrowBarter.sol\":4803:4822  _tradeTokenForToken */\n      tag_173\n        /* \"contracts/SyCrowBarter.sol\":4803:4832  _tradeTokenForToken(inAmount) */\n      jump\t// in\n    tag_172:\n        /* \"contracts/SyCrowBarter.sol\":1672:1673  _ */\n      pop\n        /* \"contracts/SyCrowBarter.sol\":1709:1883  {... */\n      pop\n        /* \"contracts/SyCrowBarter.sol\":4564:4839  function tradeTokenForToken(uint256 inAmount)... */\n      pop\n      jump\t// out\n        /* \"contracts/SyCrowBarter.sol\":431:463  bool public _initialized = false */\n    tag_37:\n      0x03\n      0x00\n      swap1\n      sload\n      swap1\n      0x0100\n      exp\n      swap1\n      div\n      0xff\n      and\n      dup2\n      jump\t// out\n        /* \"contracts/SyCrowBarter.sol\":9077:10796  function withdraw() external override checkInActive initialized onlyOwner {... */\n    tag_42:\n        /* \"contracts/SyCrowBarter.sol\":1320:1335  block.timestamp */\n      timestamp\n        /* \"contracts/SyCrowBarter.sol\":1308:1317  _deadline */\n      sload(0x02)\n        /* \"contracts/SyCrowBarter.sol\":1308:1335  _deadline < block.timestamp */\n      lt\n        /* \"contracts/SyCrowBarter.sol\":1308:1375  _deadline < block.timestamp || _totalTradeAmount >= _expectedAmount */\n      dup1\n      tag_175\n      jumpi\n      pop\n        /* \"contracts/SyCrowBarter.sol\":1360:1375  _expectedAmount */\n      sload(0x06)\n        /* \"contracts/SyCrowBarter.sol\":1339:1356  _totalTradeAmount */\n      sload(0x07)\n        /* \"contracts/SyCrowBarter.sol\":1339:1375  _totalTradeAmount >= _expectedAmount */\n      lt\n      iszero\n        /* \"contracts/SyCrowBarter.sol\":1308:1375  _deadline < block.timestamp || _totalTradeAmount >= _expectedAmount */\n    tag_175:\n        /* \"contracts/SyCrowBarter.sol\":1287:1421  require(... */\n      tag_176\n      jumpi\n      mload(0x40)\n      0x08c379a000000000000000000000000000000000000000000000000000000000\n      dup2\n      mstore\n      0x04\n      add\n      tag_177\n      swap1\n      tag_178\n      jump\t// in\n    tag_177:\n      mload(0x40)\n      dup1\n      swap2\n      sub\n      swap1\n      revert\n    tag_176:\n        /* \"contracts/SyCrowBarter.sol\":1486:1498  _initialized */\n      0x03\n      0x00\n      swap1\n      sload\n      swap1\n      0x0100\n      exp\n      swap1\n      div\n      0xff\n      and\n        /* \"contracts/SyCrowBarter.sol\":1478:1532  require(_initialized, \"SyCrowBarter: NOT_INITIALIZED\") */\n      tag_180\n      jumpi\n      mload(0x40)\n      0x08c379a000000000000000000000000000000000000000000000000000000000\n      dup2\n      mstore\n      0x04\n      add\n      tag_181\n      swap1\n      tag_123\n      jump\t// in\n    tag_181:\n      mload(0x40)\n      dup1\n      swap2\n      sub\n      swap1\n      revert\n    tag_180:\n        /* \"@openzeppelin/contracts/access/Ownable.sol\":1259:1271  _msgSender() */\n      tag_183\n        /* \"@openzeppelin/contracts/access/Ownable.sol\":1259:1269  _msgSender */\n      tag_184\n        /* \"@openzeppelin/contracts/access/Ownable.sol\":1259:1271  _msgSender() */\n      jump\t// in\n    tag_183:\n        /* \"@openzeppelin/contracts/access/Ownable.sol\":1248:1271  owner() == _msgSender() */\n      0xffffffffffffffffffffffffffffffffffffffff\n      and\n        /* \"@openzeppelin/contracts/access/Ownable.sol\":1248:1255  owner() */\n      tag_185\n        /* \"@openzeppelin/contracts/access/Ownable.sol\":1248:1253  owner */\n      tag_77\n        /* \"@openzeppelin/contracts/access/Ownable.sol\":1248:1255  owner() */\n      jump\t// in\n    tag_185:\n        /* \"@openzeppelin/contracts/access/Ownable.sol\":1248:1271  owner() == _msgSender() */\n      0xffffffffffffffffffffffffffffffffffffffff\n      and\n      eq\n        /* \"@openzeppelin/contracts/access/Ownable.sol\":1240:1308  require(owner() == _msgSender(), \"Ownable: caller is not the owner\") */\n      tag_186\n      jumpi\n      mload(0x40)\n      0x08c379a000000000000000000000000000000000000000000000000000000000\n      dup2\n      mstore\n      0x04\n      add\n      tag_187\n      swap1\n      tag_188\n      jump\t// in\n    tag_187:\n      mload(0x40)\n      dup1\n      swap2\n      sub\n      swap1\n      revert\n    tag_186:\n        /* \"contracts/SyCrowBarter.sol\":9161:9172  IWETH _weth */\n      0x00\n        /* \"contracts/SyCrowBarter.sol\":9181:9185  WETH */\n      0x01\n      0x00\n      swap1\n      sload\n      swap1\n      0x0100\n      exp\n      swap1\n      div\n      0xffffffffffffffffffffffffffffffffffffffff\n      and\n        /* \"contracts/SyCrowBarter.sol\":9161:9186  IWETH _weth = IWETH(WETH) */\n      swap1\n      pop\n        /* \"contracts/SyCrowBarter.sol\":9197:9215  uint256 ethBalance */\n      0x00\n        /* \"contracts/SyCrowBarter.sol\":9218:9223  _weth */\n      dup2\n        /* \"contracts/SyCrowBarter.sol\":9218:9233  _weth.balanceOf */\n      0xffffffffffffffffffffffffffffffffffffffff\n      and\n      0x70a08231\n        /* \"contracts/SyCrowBarter.sol\":9242:9246  this */\n      address\n        /* \"contracts/SyCrowBarter.sol\":9218:9248  _weth.balanceOf(address(this)) */\n      mload(0x40)\n      dup3\n      0xffffffff\n      and\n      0xe0\n      shl\n      dup2\n      mstore\n      0x04\n      add\n      tag_190\n      swap2\n      swap1\n      tag_79\n      jump\t// in\n    tag_190:\n      0x20\n      mload(0x40)\n      dup1\n      dup4\n      sub\n      dup2\n      dup7\n      gas\n      staticcall\n      iszero\n      dup1\n      iszero\n      tag_192\n      jumpi\n      returndatasize\n      0x00\n      dup1\n      returndatacopy\n      revert(0x00, returndatasize)\n    tag_192:\n      pop\n      pop\n      pop\n      pop\n      mload(0x40)\n      returndatasize\n      not(0x1f)\n      0x1f\n      dup3\n      add\n      and\n      dup3\n      add\n      dup1\n      0x40\n      mstore\n      pop\n      dup2\n      add\n      swap1\n      tag_193\n      swap2\n      swap1\n      tag_194\n      jump\t// in\n    tag_193:\n        /* \"contracts/SyCrowBarter.sol\":9197:9248  uint256 ethBalance = _weth.balanceOf(address(this)) */\n      swap1\n      pop\n        /* \"contracts/SyCrowBarter.sol\":9276:9277  0 */\n      0x00\n        /* \"contracts/SyCrowBarter.sol\":9263:9273  ethBalance */\n      dup2\n        /* \"contracts/SyCrowBarter.sol\":9263:9277  ethBalance > 0 */\n      gt\n        /* \"contracts/SyCrowBarter.sol\":9259:9404  if (ethBalance > 0) {... */\n      iszero\n      tag_195\n      jumpi\n        /* \"contracts/SyCrowBarter.sol\":9299:9303  WETH */\n      0x01\n      0x00\n      swap1\n      sload\n      swap1\n      0x0100\n      exp\n      swap1\n      div\n      0xffffffffffffffffffffffffffffffffffffffff\n      and\n        /* \"contracts/SyCrowBarter.sol\":9293:9313  IWETH(WETH).withdraw */\n      0xffffffffffffffffffffffffffffffffffffffff\n      and\n      0x2e1a7d4d\n        /* \"contracts/SyCrowBarter.sol\":9314:9324  ethBalance */\n      dup3\n        /* \"contracts/SyCrowBarter.sol\":9293:9325  IWETH(WETH).withdraw(ethBalance) */\n      mload(0x40)\n      dup3\n      0xffffffff\n      and\n      0xe0\n      shl\n      dup2\n      mstore\n      0x04\n      add\n      tag_196\n      swap2\n      swap1\n      tag_71\n      jump\t// in\n    tag_196:\n      0x00\n      mload(0x40)\n      dup1\n      dup4\n      sub\n      dup2\n      0x00\n      dup8\n      dup1\n      extcodesize\n      iszero\n      dup1\n      iszero\n      tag_197\n      jumpi\n      0x00\n      dup1\n      revert\n    tag_197:\n      pop\n      gas\n      call\n      iszero\n      dup1\n      iszero\n      tag_199\n      jumpi\n      returndatasize\n      0x00\n      dup1\n      returndatacopy\n      revert(0x00, returndatasize)\n    tag_199:\n      pop\n      pop\n      pop\n      pop\n        /* \"contracts/SyCrowBarter.sol\":9339:9393  TransferHelper.safeTransferETH(msg.sender, ethBalance) */\n      tag_200\n        /* \"contracts/SyCrowBarter.sol\":9370:9380  msg.sender */\n      caller\n        /* \"contracts/SyCrowBarter.sol\":9382:9392  ethBalance */\n      dup3\n        /* \"contracts/SyCrowBarter.sol\":9339:9369  TransferHelper.safeTransferETH */\n      tag_201\n        /* \"contracts/SyCrowBarter.sol\":9339:9393  TransferHelper.safeTransferETH(msg.sender, ethBalance) */\n      jump\t// in\n    tag_200:\n        /* \"contracts/SyCrowBarter.sol\":9259:9404  if (ethBalance > 0) {... */\n    tag_195:\n        /* \"contracts/SyCrowBarter.sol\":9414:9442  uint256 expectedTokenBalance */\n      0x00\n        /* \"contracts/SyCrowBarter.sol\":9452:9473  _expectedTokenAddress */\n      0x04\n      0x00\n      swap1\n      sload\n      swap1\n      0x0100\n      exp\n      swap1\n      div\n      0xffffffffffffffffffffffffffffffffffffffff\n      and\n        /* \"contracts/SyCrowBarter.sol\":9445:9484  IERC20(_expectedTokenAddress).balanceOf */\n      0xffffffffffffffffffffffffffffffffffffffff\n      and\n      0x70a08231\n        /* \"contracts/SyCrowBarter.sol\":9506:9510  this */\n      address\n        /* \"contracts/SyCrowBarter.sol\":9445:9521  IERC20(_expectedTokenAddress).balanceOf(... */\n      mload(0x40)\n      dup3\n      0xffffffff\n      and\n      0xe0\n      shl\n      dup2\n      mstore\n      0x04\n      add\n      tag_202\n      swap2\n      swap1\n      tag_79\n      jump\t// in\n    tag_202:\n      0x20\n      mload(0x40)\n      dup1\n      dup4\n      sub\n      dup2\n      dup7\n      gas\n      staticcall\n      iszero\n      dup1\n      iszero\n      tag_204\n      jumpi\n      returndatasize\n      0x00\n      dup1\n      returndatacopy\n      revert(0x00, returndatasize)\n    tag_204:\n      pop\n      pop\n      pop\n      pop\n      mload(0x40)\n      returndatasize\n      not(0x1f)\n      0x1f\n      dup3\n      add\n      and\n      dup3\n      add\n      dup1\n      0x40\n      mstore\n      pop\n      dup2\n      add\n      swap1\n      tag_205\n      swap2\n      swap1\n      tag_194\n      jump\t// in\n    tag_205:\n        /* \"contracts/SyCrowBarter.sol\":9414:9521  uint256 expectedTokenBalance = IERC20(_expectedTokenAddress).balanceOf(... */\n      swap1\n      pop\n        /* \"contracts/SyCrowBarter.sol\":9559:9560  0 */\n      0x00\n        /* \"contracts/SyCrowBarter.sol\":9536:9556  expectedTokenBalance */\n      dup2\n        /* \"contracts/SyCrowBarter.sol\":9536:9560  expectedTokenBalance > 0 */\n      gt\n        /* \"contracts/SyCrowBarter.sol\":9532:9733  if (expectedTokenBalance > 0) {... */\n      iszero\n      tag_206\n      jumpi\n        /* \"contracts/SyCrowBarter.sol\":9576:9722  TransferHelper.safeTransfer(... */\n      tag_207\n        /* \"contracts/SyCrowBarter.sol\":9621:9642  _expectedTokenAddress */\n      0x04\n      0x00\n      swap1\n      sload\n      swap1\n      0x0100\n      exp\n      swap1\n      div\n      0xffffffffffffffffffffffffffffffffffffffff\n      and\n        /* \"contracts/SyCrowBarter.sol\":9660:9670  msg.sender */\n      caller\n        /* \"contracts/SyCrowBarter.sol\":9688:9708  expectedTokenBalance */\n      dup4\n        /* \"contracts/SyCrowBarter.sol\":9576:9603  TransferHelper.safeTransfer */\n      tag_208\n        /* \"contracts/SyCrowBarter.sol\":9576:9722  TransferHelper.safeTransfer(... */\n      jump\t// in\n    tag_207:\n        /* \"contracts/SyCrowBarter.sol\":9532:9733  if (expectedTokenBalance > 0) {... */\n    tag_206:\n        /* \"contracts/SyCrowBarter.sol\":9743:9772  uint256 depositedTokenBalance */\n      0x00\n        /* \"contracts/SyCrowBarter.sol\":9782:9804  _depositedTokenAddress */\n      0x03\n      0x01\n      swap1\n      sload\n      swap1\n      0x0100\n      exp\n      swap1\n      div\n      0xffffffffffffffffffffffffffffffffffffffff\n      and\n        /* \"contracts/SyCrowBarter.sol\":9775:9828  IERC20(_depositedTokenAddress)... */\n      0xffffffffffffffffffffffffffffffffffffffff\n      and\n      0x70a08231\n        /* \"contracts/SyCrowBarter.sol\":9837:9841  this */\n      address\n        /* \"contracts/SyCrowBarter.sol\":9775:9843  IERC20(_depositedTokenAddress)... */\n      mload(0x40)\n      dup3\n      0xffffffff\n      and\n      0xe0\n      shl\n      dup2\n      mstore\n      0x04\n      add\n      tag_209\n      swap2\n      swap1\n      tag_79\n      jump\t// in\n    tag_209:\n      0x20\n      mload(0x40)\n      dup1\n      dup4\n      sub\n      dup2\n      dup7\n      gas\n      staticcall\n      iszero\n      dup1\n      iszero\n      tag_211\n      jumpi\n      returndatasize\n      0x00\n      dup1\n      returndatacopy\n      revert(0x00, returndatasize)\n    tag_211:\n      pop\n      pop\n      pop\n      pop\n      mload(0x40)\n      returndatasize\n      not(0x1f)\n      0x1f\n      dup3\n      add\n      and\n      dup3\n      add\n      dup1\n      0x40\n      mstore\n      pop\n      dup2\n      add\n      swap1\n      tag_212\n      swap2\n      swap1\n      tag_194\n      jump\t// in\n    tag_212:\n        /* \"contracts/SyCrowBarter.sol\":9743:9843  uint256 depositedTokenBalance = IERC20(_depositedTokenAddress)... */\n      swap1\n      pop\n        /* \"contracts/SyCrowBarter.sol\":9882:9883  0 */\n      0x00\n        /* \"contracts/SyCrowBarter.sol\":9858:9879  depositedTokenBalance */\n      dup2\n        /* \"contracts/SyCrowBarter.sol\":9858:9883  depositedTokenBalance > 0 */\n      gt\n        /* \"contracts/SyCrowBarter.sol\":9854:10058  if (depositedTokenBalance > 0) {... */\n      iszero\n      tag_213\n      jumpi\n        /* \"contracts/SyCrowBarter.sol\":9899:10047  TransferHelper.safeTransfer(... */\n      tag_214\n        /* \"contracts/SyCrowBarter.sol\":9944:9966  _depositedTokenAddress */\n      0x03\n      0x01\n      swap1\n      sload\n      swap1\n      0x0100\n      exp\n      swap1\n      div\n      0xffffffffffffffffffffffffffffffffffffffff\n      and\n        /* \"contracts/SyCrowBarter.sol\":9984:9994  msg.sender */\n      caller\n        /* \"contracts/SyCrowBarter.sol\":10012:10033  depositedTokenBalance */\n      dup4\n        /* \"contracts/SyCrowBarter.sol\":9899:9926  TransferHelper.safeTransfer */\n      tag_208\n        /* \"contracts/SyCrowBarter.sol\":9899:10047  TransferHelper.safeTransfer(... */\n      jump\t// in\n    tag_214:\n        /* \"contracts/SyCrowBarter.sol\":9854:10058  if (depositedTokenBalance > 0) {... */\n    tag_213:\n        /* \"contracts/SyCrowBarter.sol\":10067:10081  uint256 value1 */\n      0x00\n        /* \"contracts/SyCrowBarter.sol\":10095:10109  uint256 value2 */\n      dup1\n        /* \"contracts/SyCrowBarter.sol\":10143:10174  ISyCrowBarterType.ETH_FOR_TOKEN */\n      0x00\n        /* \"contracts/SyCrowBarter.sol\":10128:10174  _barterType == ISyCrowBarterType.ETH_FOR_TOKEN */\n      0x02\n      dup2\n      gt\n      iszero\n      tag_215\n      jumpi\n      tag_216\n      tag_139\n      jump\t// in\n    tag_216:\n    tag_215:\n        /* \"contracts/SyCrowBarter.sol\":10128:10139  _barterType */\n      0x08\n      0x01\n      swap1\n      sload\n      swap1\n      0x0100\n      exp\n      swap1\n      div\n      0xff\n      and\n        /* \"contracts/SyCrowBarter.sol\":10128:10174  _barterType == ISyCrowBarterType.ETH_FOR_TOKEN */\n      0x02\n      dup2\n      gt\n      iszero\n      tag_217\n      jumpi\n      tag_218\n      tag_139\n      jump\t// in\n    tag_218:\n    tag_217:\n      sub\n        /* \"contracts/SyCrowBarter.sol\":10124:10515  if (_barterType == ISyCrowBarterType.ETH_FOR_TOKEN) {... */\n      tag_219\n      jumpi\n        /* \"contracts/SyCrowBarter.sol\":10199:10209  ethBalance */\n      dup5\n        /* \"contracts/SyCrowBarter.sol\":10190:10209  value1 = ethBalance */\n      swap2\n      pop\n        /* \"contracts/SyCrowBarter.sol\":10232:10252  expectedTokenBalance */\n      dup4\n        /* \"contracts/SyCrowBarter.sol\":10223:10252  value2 = expectedTokenBalance */\n      swap1\n      pop\n        /* \"contracts/SyCrowBarter.sol\":10124:10515  if (_barterType == ISyCrowBarterType.ETH_FOR_TOKEN) {... */\n      jump(tag_220)\n    tag_219:\n        /* \"contracts/SyCrowBarter.sol\":10288:10321  ISyCrowBarterType.TOKEN_FOR_TOKEN */\n      0x02\n        /* \"contracts/SyCrowBarter.sol\":10273:10321  _barterType == ISyCrowBarterType.TOKEN_FOR_TOKEN */\n      dup1\n      dup2\n      gt\n      iszero\n      tag_221\n      jumpi\n      tag_222\n      tag_139\n      jump\t// in\n    tag_222:\n    tag_221:\n        /* \"contracts/SyCrowBarter.sol\":10273:10284  _barterType */\n      0x08\n      0x01\n      swap1\n      sload\n      swap1\n      0x0100\n      exp\n      swap1\n      div\n      0xff\n      and\n        /* \"contracts/SyCrowBarter.sol\":10273:10321  _barterType == ISyCrowBarterType.TOKEN_FOR_TOKEN */\n      0x02\n      dup2\n      gt\n      iszero\n      tag_223\n      jumpi\n      tag_224\n      tag_139\n      jump\t// in\n    tag_224:\n    tag_223:\n      sub\n        /* \"contracts/SyCrowBarter.sol\":10269:10515  if (_barterType == ISyCrowBarterType.TOKEN_FOR_TOKEN) {... */\n      tag_225\n      jumpi\n        /* \"contracts/SyCrowBarter.sol\":10346:10367  depositedTokenBalance */\n      dup3\n        /* \"contracts/SyCrowBarter.sol\":10337:10367  value1 = depositedTokenBalance */\n      swap2\n      pop\n        /* \"contracts/SyCrowBarter.sol\":10390:10410  expectedTokenBalance */\n      dup4\n        /* \"contracts/SyCrowBarter.sol\":10381:10410  value2 = expectedTokenBalance */\n      swap1\n      pop\n        /* \"contracts/SyCrowBarter.sol\":10269:10515  if (_barterType == ISyCrowBarterType.TOKEN_FOR_TOKEN) {... */\n      jump(tag_226)\n    tag_225:\n        /* \"contracts/SyCrowBarter.sol\":10450:10471  depositedTokenBalance */\n      dup3\n        /* \"contracts/SyCrowBarter.sol\":10441:10471  value1 = depositedTokenBalance */\n      swap2\n      pop\n        /* \"contracts/SyCrowBarter.sol\":10494:10504  ethBalance */\n      dup5\n        /* \"contracts/SyCrowBarter.sol\":10485:10504  value2 = ethBalance */\n      swap1\n      pop\n        /* \"contracts/SyCrowBarter.sol\":10269:10515  if (_barterType == ISyCrowBarterType.TOKEN_FOR_TOKEN) {... */\n    tag_226:\n        /* \"contracts/SyCrowBarter.sol\":10124:10515  if (_barterType == ISyCrowBarterType.ETH_FOR_TOKEN) {... */\n    tag_220:\n        /* \"contracts/SyCrowBarter.sol\":10525:10557  ISyCrowBarterFactory sycrFactory */\n      0x00\n        /* \"contracts/SyCrowBarter.sol\":10581:10588  factory */\n      immutable(\"0x26a975632f70533c9512e57b565b8ce8e2befee6b08dfbc27c4a897a20e2c1d6\")\n        /* \"contracts/SyCrowBarter.sol\":10525:10589  ISyCrowBarterFactory sycrFactory = ISyCrowBarterFactory(factory) */\n      swap1\n      pop\n        /* \"contracts/SyCrowBarter.sol\":10608:10619  sycrFactory */\n      dup1\n        /* \"contracts/SyCrowBarter.sol\":10608:10644  sycrFactory.notifyWithdrawFromBarter */\n      0xffffffffffffffffffffffffffffffffffffffff\n      and\n      0x33796a0e\n        /* \"contracts/SyCrowBarter.sol\":10666:10670  this */\n      address\n        /* \"contracts/SyCrowBarter.sol\":10685:10695  msg.sender */\n      caller\n        /* \"contracts/SyCrowBarter.sol\":10709:10715  value1 */\n      dup7\n        /* \"contracts/SyCrowBarter.sol\":10729:10735  value2 */\n      dup7\n        /* \"contracts/SyCrowBarter.sol\":10608:10745  sycrFactory.notifyWithdrawFromBarter(... */\n      mload(0x40)\n      dup6\n      0xffffffff\n      and\n      0xe0\n      shl\n      dup2\n      mstore\n      0x04\n      add\n      tag_227\n      swap5\n      swap4\n      swap3\n      swap2\n      swap1\n      tag_228\n      jump\t// in\n    tag_227:\n      0x00\n      mload(0x40)\n      dup1\n      dup4\n      sub\n      dup2\n      0x00\n      dup8\n      dup1\n      extcodesize\n      iszero\n      dup1\n      iszero\n      tag_229\n      jumpi\n      0x00\n      dup1\n      revert\n    tag_229:\n      pop\n      gas\n      call\n      iszero\n      dup1\n      iszero\n      tag_231\n      jumpi\n      returndatasize\n      0x00\n      dup1\n      returndatacopy\n      revert(0x00, returndatasize)\n    tag_231:\n      pop\n      pop\n      pop\n      pop\n        /* \"contracts/SyCrowBarter.sol\":10777:10787  msg.sender */\n      caller\n        /* \"contracts/SyCrowBarter.sol\":10756:10789  selfdestruct(payable(msg.sender)) */\n      0xffffffffffffffffffffffffffffffffffffffff\n      and\n      selfdestruct\n        /* \"contracts/SyCrowBarter.sol\":2972:3159  function getAmounts()... */\n    tag_45:\n        /* \"contracts/SyCrowBarter.sol\":3078:3085  uint256 */\n      0x00\n        /* \"contracts/SyCrowBarter.sol\":3087:3094  uint256 */\n      dup1\n        /* \"contracts/SyCrowBarter.sol\":1486:1498  _initialized */\n      0x03\n      0x00\n      swap1\n      sload\n      swap1\n      0x0100\n      exp\n      swap1\n      div\n      0xff\n      and\n        /* \"contracts/SyCrowBarter.sol\":1478:1532  require(_initialized, \"SyCrowBarter: NOT_INITIALIZED\") */\n      tag_233\n      jumpi\n      mload(0x40)\n      0x08c379a000000000000000000000000000000000000000000000000000000000\n      dup2\n      mstore\n      0x04\n      add\n      tag_234\n      swap1\n      tag_123\n      jump\t// in\n    tag_234:\n      mload(0x40)\n      dup1\n      swap2\n      sub\n      swap1\n      revert\n    tag_233:\n        /* \"contracts/SyCrowBarter.sol\":3118:3134  _depositedAmount */\n      sload(0x05)\n        /* \"contracts/SyCrowBarter.sol\":3136:3151  _expectedAmount */\n      sload(0x06)\n        /* \"contracts/SyCrowBarter.sol\":3110:3152  return (_depositedAmount, _expectedAmount) */\n      swap2\n      pop\n      swap2\n      pop\n        /* \"contracts/SyCrowBarter.sol\":2972:3159  function getAmounts()... */\n      swap1\n      swap2\n      jump\t// out\n        /* \"contracts/SyCrowBarter.sol\":5120:5405  function tradeEthForToken(uint256 inAmount)... */\n    tag_50:\n        /* \"contracts/SyCrowBarter.sol\":966:981  block.timestamp */\n      timestamp\n        /* \"contracts/SyCrowBarter.sol\":953:962  _deadline */\n      sload(0x02)\n        /* \"contracts/SyCrowBarter.sol\":953:981  _deadline >= block.timestamp */\n      lt\n      iszero\n        /* \"contracts/SyCrowBarter.sol\":953:1020  _deadline >= block.timestamp && _totalTradeAmount < _expectedAmount */\n      dup1\n      iszero\n      tag_237\n      jumpi\n      pop\n        /* \"contracts/SyCrowBarter.sol\":1005:1020  _expectedAmount */\n      sload(0x06)\n        /* \"contracts/SyCrowBarter.sol\":985:1002  _totalTradeAmount */\n      sload(0x07)\n        /* \"contracts/SyCrowBarter.sol\":985:1020  _totalTradeAmount < _expectedAmount */\n      lt\n        /* \"contracts/SyCrowBarter.sol\":953:1020  _deadline >= block.timestamp && _totalTradeAmount < _expectedAmount */\n    tag_237:\n        /* \"contracts/SyCrowBarter.sol\":932:1068  require(... */\n      tag_238\n      jumpi\n      mload(0x40)\n      0x08c379a000000000000000000000000000000000000000000000000000000000\n      dup2\n      mstore\n      0x04\n      add\n      tag_239\n      swap1\n      tag_119\n      jump\t// in\n    tag_239:\n      mload(0x40)\n      dup1\n      swap2\n      sub\n      swap1\n      revert\n    tag_238:\n        /* \"contracts/SyCrowBarter.sol\":1486:1498  _initialized */\n      0x03\n      0x00\n      swap1\n      sload\n      swap1\n      0x0100\n      exp\n      swap1\n      div\n      0xff\n      and\n        /* \"contracts/SyCrowBarter.sol\":1478:1532  require(_initialized, \"SyCrowBarter: NOT_INITIALIZED\") */\n      tag_241\n      jumpi\n      mload(0x40)\n      0x08c379a000000000000000000000000000000000000000000000000000000000\n      dup2\n      mstore\n      0x04\n      add\n      tag_242\n      swap1\n      tag_123\n      jump\t// in\n    tag_242:\n      mload(0x40)\n      dup1\n      swap2\n      sub\n      swap1\n      revert\n    tag_241:\n        /* \"contracts/SyCrowBarter.sol\":1719:1752  ISyCrowBarterFactory isycrFactory */\n      0x00\n        /* \"contracts/SyCrowBarter.sol\":1776:1783  factory */\n      immutable(\"0x26a975632f70533c9512e57b565b8ce8e2befee6b08dfbc27c4a897a20e2c1d6\")\n        /* \"contracts/SyCrowBarter.sol\":1719:1784  ISyCrowBarterFactory isycrFactory = ISyCrowBarterFactory(factory) */\n      swap1\n      pop\n        /* \"contracts/SyCrowBarter.sol\":1803:1815  isycrFactory */\n      dup1\n        /* \"contracts/SyCrowBarter.sol\":1803:1824  isycrFactory.isPaused */\n      0xffffffffffffffffffffffffffffffffffffffff\n      and\n      0xb187bd26\n        /* \"contracts/SyCrowBarter.sol\":1803:1826  isycrFactory.isPaused() */\n      mload(0x40)\n      dup2\n      0xffffffff\n      and\n      0xe0\n      shl\n      dup2\n      mstore\n      0x04\n      add\n      0x20\n      mload(0x40)\n      dup1\n      dup4\n      sub\n      dup2\n      dup7\n      gas\n      staticcall\n      iszero\n      dup1\n      iszero\n      tag_245\n      jumpi\n      returndatasize\n      0x00\n      dup1\n      returndatacopy\n      revert(0x00, returndatasize)\n    tag_245:\n      pop\n      pop\n      pop\n      pop\n      mload(0x40)\n      returndatasize\n      not(0x1f)\n      0x1f\n      dup3\n      add\n      and\n      dup3\n      add\n      dup1\n      0x40\n      mstore\n      pop\n      dup2\n      add\n      swap1\n      tag_246\n      swap2\n      swap1\n      tag_128\n      jump\t// in\n    tag_246:\n        /* \"contracts/SyCrowBarter.sol\":1802:1826  !isycrFactory.isPaused() */\n      iszero\n        /* \"contracts/SyCrowBarter.sol\":1794:1865  require(!isycrFactory.isPaused(), \"SyCrowBarter: Base Contract Paused\") */\n      tag_247\n      jumpi\n      mload(0x40)\n      0x08c379a000000000000000000000000000000000000000000000000000000000\n      dup2\n      mstore\n      0x04\n      add\n      tag_248\n      swap1\n      tag_131\n      jump\t// in\n    tag_248:\n      mload(0x40)\n      dup1\n      swap2\n      sub\n      swap1\n      revert\n    tag_247:\n        /* \"contracts/SyCrowBarter.sol\":1603:1620  _allowMultiBarter */\n      0x08\n      0x00\n      swap1\n      sload\n      swap1\n      0x0100\n      exp\n      swap1\n      div\n      0xff\n      and\n        /* \"contracts/SyCrowBarter.sol\":1595:1662  require(_allowMultiBarter, \"SyCrowBarter: MULTI_TRADE_NOT_ENABLED\") */\n      tag_250\n      jumpi\n      mload(0x40)\n      0x08c379a000000000000000000000000000000000000000000000000000000000\n      dup2\n      mstore\n      0x04\n      add\n      tag_251\n      swap1\n      tag_135\n      jump\t// in\n    tag_251:\n      mload(0x40)\n      dup1\n      swap2\n      sub\n      swap1\n      revert\n    tag_250:\n        /* \"contracts/SyCrowBarter.sol\":5324:5355  ISyCrowBarterType.TOKEN_FOR_ETH */\n      0x01\n        /* \"contracts/SyCrowBarter.sol\":1179:1190  _barterType */\n      0x08\n      0x01\n      swap1\n      sload\n      swap1\n      0x0100\n      exp\n      swap1\n      div\n      0xff\n      and\n        /* \"contracts/SyCrowBarter.sol\":1165:1190  barterType == _barterType */\n      0x02\n      dup2\n      gt\n      iszero\n      tag_253\n      jumpi\n      tag_254\n      tag_139\n      jump\t// in\n    tag_254:\n    tag_253:\n        /* \"contracts/SyCrowBarter.sol\":1165:1175  barterType */\n      dup2\n        /* \"contracts/SyCrowBarter.sol\":1165:1190  barterType == _barterType */\n      0x02\n      dup2\n      gt\n      iszero\n      tag_255\n      jumpi\n      tag_256\n      tag_139\n      jump\t// in\n    tag_256:\n    tag_255:\n      eq\n        /* \"contracts/SyCrowBarter.sol\":1157:1228  require(barterType == _barterType, \"SyCrowBarter: INVALID_BARTER_TYPE\") */\n      tag_257\n      jumpi\n      mload(0x40)\n      0x08c379a000000000000000000000000000000000000000000000000000000000\n      dup2\n      mstore\n      0x04\n      add\n      tag_258\n      swap1\n      tag_144\n      jump\t// in\n    tag_258:\n      mload(0x40)\n      dup1\n      swap2\n      sub\n      swap1\n      revert\n    tag_257:\n        /* \"contracts/SyCrowBarter.sol\":5371:5398  _tradeEthForToken(inAmount) */\n      tag_260\n        /* \"contracts/SyCrowBarter.sol\":5389:5397  inAmount */\n      dup4\n        /* \"contracts/SyCrowBarter.sol\":5371:5388  _tradeEthForToken */\n      tag_261\n        /* \"contracts/SyCrowBarter.sol\":5371:5398  _tradeEthForToken(inAmount) */\n      jump\t// in\n    tag_260:\n        /* \"contracts/SyCrowBarter.sol\":1672:1673  _ */\n      pop\n        /* \"contracts/SyCrowBarter.sol\":1709:1883  {... */\n      pop\n        /* \"contracts/SyCrowBarter.sol\":5120:5405  function tradeEthForToken(uint256 inAmount)... */\n      pop\n      jump\t// out\n        /* \"contracts/SyCrowBarter.sol\":3699:3866  function getBarterType()... */\n    tag_53:\n        /* \"contracts/SyCrowBarter.sol\":3808:3825  ISyCrowBarterType */\n      0x00\n        /* \"contracts/SyCrowBarter.sol\":1486:1498  _initialized */\n      0x03\n      0x00\n      swap1\n      sload\n      swap1\n      0x0100\n      exp\n      swap1\n      div\n      0xff\n      and\n        /* \"contracts/SyCrowBarter.sol\":1478:1532  require(_initialized, \"SyCrowBarter: NOT_INITIALIZED\") */\n      tag_263\n      jumpi\n      mload(0x40)\n      0x08c379a000000000000000000000000000000000000000000000000000000000\n      dup2\n      mstore\n      0x04\n      add\n      tag_264\n      swap1\n      tag_123\n      jump\t// in\n    tag_264:\n      mload(0x40)\n      dup1\n      swap2\n      sub\n      swap1\n      revert\n    tag_263:\n        /* \"contracts/SyCrowBarter.sol\":3848:3859  _barterType */\n      0x08\n      0x01\n      swap1\n      sload\n      swap1\n      0x0100\n      exp\n      swap1\n      div\n      0xff\n      and\n        /* \"contracts/SyCrowBarter.sol\":3841:3859  return _barterType */\n      swap1\n      pop\n        /* \"contracts/SyCrowBarter.sol\":3699:3866  function getBarterType()... */\n      swap1\n      jump\t// out\n        /* \"contracts/SyCrowBarter.sol\":10802:11479  function withdraw(address _erc20TokenAddress)... */\n    tag_60:\n        /* \"@openzeppelin/contracts/access/Ownable.sol\":1259:1271  _msgSender() */\n      tag_267\n        /* \"@openzeppelin/contracts/access/Ownable.sol\":1259:1269  _msgSender */\n      tag_184\n        /* \"@openzeppelin/contracts/access/Ownable.sol\":1259:1271  _msgSender() */\n      jump\t// in\n    tag_267:\n        /* \"@openzeppelin/contracts/access/Ownable.sol\":1248:1271  owner() == _msgSender() */\n      0xffffffffffffffffffffffffffffffffffffffff\n      and\n        /* \"@openzeppelin/contracts/access/Ownable.sol\":1248:1255  owner() */\n      tag_268\n        /* \"@openzeppelin/contracts/access/Ownable.sol\":1248:1253  owner */\n      tag_77\n        /* \"@openzeppelin/contracts/access/Ownable.sol\":1248:1255  owner() */\n      jump\t// in\n    tag_268:\n        /* \"@openzeppelin/contracts/access/Ownable.sol\":1248:1271  owner() == _msgSender() */\n      0xffffffffffffffffffffffffffffffffffffffff\n      and\n      eq\n        /* \"@openzeppelin/contracts/access/Ownable.sol\":1240:1308  require(owner() == _msgSender(), \"Ownable: caller is not the owner\") */\n      tag_269\n      jumpi\n      mload(0x40)\n      0x08c379a000000000000000000000000000000000000000000000000000000000\n      dup2\n      mstore\n      0x04\n      add\n      tag_270\n      swap1\n      tag_188\n      jump\t// in\n    tag_270:\n      mload(0x40)\n      dup1\n      swap2\n      sub\n      swap1\n      revert\n    tag_269:\n        /* \"contracts/SyCrowBarter.sol\":1486:1498  _initialized */\n      0x03\n      0x00\n      swap1\n      sload\n      swap1\n      0x0100\n      exp\n      swap1\n      div\n      0xff\n      and\n        /* \"contracts/SyCrowBarter.sol\":1478:1532  require(_initialized, \"SyCrowBarter: NOT_INITIALIZED\") */\n      tag_272\n      jumpi\n      mload(0x40)\n      0x08c379a000000000000000000000000000000000000000000000000000000000\n      dup2\n      mstore\n      0x04\n      add\n      tag_273\n      swap1\n      tag_123\n      jump\t// in\n    tag_273:\n      mload(0x40)\n      dup1\n      swap2\n      sub\n      swap1\n      revert\n    tag_272:\n        /* \"contracts/SyCrowBarter.sol\":10960:10981  _expectedTokenAddress */\n      0x04\n      0x00\n      swap1\n      sload\n      swap1\n      0x0100\n      exp\n      swap1\n      div\n      0xffffffffffffffffffffffffffffffffffffffff\n      and\n        /* \"contracts/SyCrowBarter.sol\":10938:10981  _erc20TokenAddress != _expectedTokenAddress */\n      0xffffffffffffffffffffffffffffffffffffffff\n      and\n        /* \"contracts/SyCrowBarter.sol\":10938:10956  _erc20TokenAddress */\n      dup2\n        /* \"contracts/SyCrowBarter.sol\":10938:10981  _erc20TokenAddress != _expectedTokenAddress */\n      0xffffffffffffffffffffffffffffffffffffffff\n      and\n      sub\n        /* \"contracts/SyCrowBarter.sol\":10917:11030  require(... */\n      tag_275\n      jumpi\n      mload(0x40)\n      0x08c379a000000000000000000000000000000000000000000000000000000000\n      dup2\n      mstore\n      0x04\n      add\n      tag_276\n      swap1\n      tag_277\n      jump\t// in\n    tag_276:\n      mload(0x40)\n      dup1\n      swap2\n      sub\n      swap1\n      revert\n    tag_275:\n        /* \"contracts/SyCrowBarter.sol\":11083:11105  _depositedTokenAddress */\n      0x03\n      0x01\n      swap1\n      sload\n      swap1\n      0x0100\n      exp\n      swap1\n      div\n      0xffffffffffffffffffffffffffffffffffffffff\n      and\n        /* \"contracts/SyCrowBarter.sol\":11061:11105  _erc20TokenAddress != _depositedTokenAddress */\n      0xffffffffffffffffffffffffffffffffffffffff\n      and\n        /* \"contracts/SyCrowBarter.sol\":11061:11079  _erc20TokenAddress */\n      dup2\n        /* \"contracts/SyCrowBarter.sol\":11061:11105  _erc20TokenAddress != _depositedTokenAddress */\n      0xffffffffffffffffffffffffffffffffffffffff\n      and\n      sub\n        /* \"contracts/SyCrowBarter.sol\":11040:11154  require(... */\n      tag_278\n      jumpi\n      mload(0x40)\n      0x08c379a000000000000000000000000000000000000000000000000000000000\n      dup2\n      mstore\n      0x04\n      add\n      tag_279\n      swap1\n      tag_277\n      jump\t// in\n    tag_279:\n      mload(0x40)\n      dup1\n      swap2\n      sub\n      swap1\n      revert\n    tag_278:\n        /* \"contracts/SyCrowBarter.sol\":11165:11190  uint256 erc20TokenBalance */\n      0x00\n        /* \"contracts/SyCrowBarter.sol\":11200:11218  _erc20TokenAddress */\n      dup2\n        /* \"contracts/SyCrowBarter.sol\":11193:11229  IERC20(_erc20TokenAddress).balanceOf */\n      0xffffffffffffffffffffffffffffffffffffffff\n      and\n      0x70a08231\n        /* \"contracts/SyCrowBarter.sol\":11251:11255  this */\n      address\n        /* \"contracts/SyCrowBarter.sol\":11193:11266  IERC20(_erc20TokenAddress).balanceOf(... */\n      mload(0x40)\n      dup3\n      0xffffffff\n      and\n      0xe0\n      shl\n      dup2\n      mstore\n      0x04\n      add\n      tag_280\n      swap2\n      swap1\n      tag_79\n      jump\t// in\n    tag_280:\n      0x20\n      mload(0x40)\n      dup1\n      dup4\n      sub\n      dup2\n      dup7\n      gas\n      staticcall\n      iszero\n      dup1\n      iszero\n      tag_282\n      jumpi\n      returndatasize\n      0x00\n      dup1\n      returndatacopy\n      revert(0x00, returndatasize)\n    tag_282:\n      pop\n      pop\n      pop\n      pop\n      mload(0x40)\n      returndatasize\n      not(0x1f)\n      0x1f\n      dup3\n      add\n      and\n      dup3\n      add\n      dup1\n      0x40\n      mstore\n      pop\n      dup2\n      add\n      swap1\n      tag_283\n      swap2\n      swap1\n      tag_194\n      jump\t// in\n    tag_283:\n        /* \"contracts/SyCrowBarter.sol\":11165:11266  uint256 erc20TokenBalance = IERC20(_erc20TokenAddress).balanceOf(... */\n      swap1\n      pop\n        /* \"contracts/SyCrowBarter.sol\":11301:11302  0 */\n      0x00\n        /* \"contracts/SyCrowBarter.sol\":11281:11298  erc20TokenBalance */\n      dup2\n        /* \"contracts/SyCrowBarter.sol\":11281:11302  erc20TokenBalance > 0 */\n      gt\n        /* \"contracts/SyCrowBarter.sol\":11277:11473  if (erc20TokenBalance > 0) {... */\n      iszero\n      tag_284\n      jumpi\n        /* \"contracts/SyCrowBarter.sol\":11318:11462  TransferHelper.safeTransfer(... */\n      tag_285\n        /* \"contracts/SyCrowBarter.sol\":11363:11385  _depositedTokenAddress */\n      0x03\n      0x01\n      swap1\n      sload\n      swap1\n      0x0100\n      exp\n      swap1\n      div\n      0xffffffffffffffffffffffffffffffffffffffff\n      and\n        /* \"contracts/SyCrowBarter.sol\":11403:11413  msg.sender */\n      caller\n        /* \"contracts/SyCrowBarter.sol\":11431:11448  erc20TokenBalance */\n      dup4\n        /* \"contracts/SyCrowBarter.sol\":11318:11345  TransferHelper.safeTransfer */\n      tag_208\n        /* \"contracts/SyCrowBarter.sol\":11318:11462  TransferHelper.safeTransfer(... */\n      jump\t// in\n    tag_285:\n        /* \"contracts/SyCrowBarter.sol\":11277:11473  if (erc20TokenBalance > 0) {... */\n    tag_284:\n        /* \"contracts/SyCrowBarter.sol\":10907:11479  {... */\n      pop\n        /* \"contracts/SyCrowBarter.sol\":10802:11479  function withdraw(address _erc20TokenAddress)... */\n      pop\n      jump\t// out\n        /* \"contracts/SyCrowBarter.sol\":1946:2966  function initialize(... */\n    tag_65:\n        /* \"contracts/SyCrowBarter.sol\":2224:2228  bool */\n      0x00\n        /* \"contracts/SyCrowBarter.sol\":2262:2269  factory */\n      immutable(\"0x26a975632f70533c9512e57b565b8ce8e2befee6b08dfbc27c4a897a20e2c1d6\")\n        /* \"contracts/SyCrowBarter.sol\":2248:2269  msg.sender == factory */\n      0xffffffffffffffffffffffffffffffffffffffff\n      and\n        /* \"contracts/SyCrowBarter.sol\":2248:2258  msg.sender */\n      caller\n        /* \"contracts/SyCrowBarter.sol\":2248:2269  msg.sender == factory */\n      0xffffffffffffffffffffffffffffffffffffffff\n      and\n      eq\n        /* \"contracts/SyCrowBarter.sol\":2240:2297  require(msg.sender == factory, \"SyCrowBarter: FORBIDDEN\") */\n      tag_287\n      jumpi\n      mload(0x40)\n      0x08c379a000000000000000000000000000000000000000000000000000000000\n      dup2\n      mstore\n      0x04\n      add\n      tag_288\n      swap1\n      tag_277\n      jump\t// in\n    tag_288:\n      mload(0x40)\n      dup1\n      swap2\n      sub\n      swap1\n      revert\n    tag_287:\n        /* \"contracts/SyCrowBarter.sol\":2317:2329  _initialized */\n      0x03\n      0x00\n      swap1\n      sload\n      swap1\n      0x0100\n      exp\n      swap1\n      div\n      0xff\n      and\n        /* \"contracts/SyCrowBarter.sol\":2316:2329  !_initialized */\n      iszero\n        /* \"contracts/SyCrowBarter.sol\":2308:2367  require(!_initialized, \"SyCrowBarter: ALREADY_INITIALIZED\") */\n      tag_289\n      jumpi\n      mload(0x40)\n      0x08c379a000000000000000000000000000000000000000000000000000000000\n      dup2\n      mstore\n      0x04\n      add\n      tag_290\n      swap1\n      tag_291\n      jump\t// in\n    tag_290:\n      mload(0x40)\n      dup1\n      swap2\n      sub\n      swap1\n      revert\n    tag_289:\n        /* \"contracts/SyCrowBarter.sol\":2396:2411  block.timestamp */\n      timestamp\n        /* \"contracts/SyCrowBarter.sol\":2385:2393  deadline */\n      dup5\n        /* \"contracts/SyCrowBarter.sol\":2385:2411  deadline < block.timestamp */\n      lt\n        /* \"contracts/SyCrowBarter.sol\":2377:2443  require(deadline < block.timestamp, \"SyCrowBarter: PAST_DEADLINE\") */\n      tag_292\n      jumpi\n      mload(0x40)\n      0x08c379a000000000000000000000000000000000000000000000000000000000\n      dup2\n      mstore\n      0x04\n      add\n      tag_293\n      swap1\n      tag_294\n      jump\t// in\n    tag_293:\n      mload(0x40)\n      dup1\n      swap2\n      sub\n      swap1\n      revert\n    tag_292:\n        /* \"contracts/SyCrowBarter.sol\":2519:2534  amountDeposited */\n      dup6\n        /* \"contracts/SyCrowBarter.sol\":2482:2489  inToken */\n      dup9\n        /* \"contracts/SyCrowBarter.sol\":2475:2500  IERC20(inToken).balanceOf */\n      0xffffffffffffffffffffffffffffffffffffffff\n      and\n      0x70a08231\n        /* \"contracts/SyCrowBarter.sol\":2509:2513  this */\n      address\n        /* \"contracts/SyCrowBarter.sol\":2475:2515  IERC20(inToken).balanceOf(address(this)) */\n      mload(0x40)\n      dup3\n      0xffffffff\n      and\n      0xe0\n      shl\n      dup2\n      mstore\n      0x04\n      add\n      tag_295\n      swap2\n      swap1\n      tag_79\n      jump\t// in\n    tag_295:\n      0x20\n      mload(0x40)\n      dup1\n      dup4\n      sub\n      dup2\n      dup7\n      gas\n      staticcall\n      iszero\n      dup1\n      iszero\n      tag_297\n      jumpi\n      returndatasize\n      0x00\n      dup1\n      returndatacopy\n      revert(0x00, returndatasize)\n    tag_297:\n      pop\n      pop\n      pop\n      pop\n      mload(0x40)\n      returndatasize\n      not(0x1f)\n      0x1f\n      dup3\n      add\n      and\n      dup3\n      add\n      dup1\n      0x40\n      mstore\n      pop\n      dup2\n      add\n      swap1\n      tag_298\n      swap2\n      swap1\n      tag_194\n      jump\t// in\n    tag_298:\n        /* \"contracts/SyCrowBarter.sol\":2475:2534  IERC20(inToken).balanceOf(address(this)) >= amountDeposited */\n      lt\n      iszero\n        /* \"contracts/SyCrowBarter.sol\":2454:2594  require(... */\n      tag_299\n      jumpi\n      mload(0x40)\n      0x08c379a000000000000000000000000000000000000000000000000000000000\n      dup2\n      mstore\n      0x04\n      add\n      tag_300\n      swap1\n      tag_301\n      jump\t// in\n    tag_300:\n      mload(0x40)\n      dup1\n      swap2\n      sub\n      swap1\n      revert\n    tag_299:\n        /* \"contracts/SyCrowBarter.sol\":2617:2625  deadline */\n      dup4\n        /* \"contracts/SyCrowBarter.sol\":2605:2614  _deadline */\n      0x02\n        /* \"contracts/SyCrowBarter.sol\":2605:2625  _deadline = deadline */\n      dup2\n      swap1\n      sstore\n      pop\n        /* \"contracts/SyCrowBarter.sol\":2661:2668  inToken */\n      dup8\n        /* \"contracts/SyCrowBarter.sol\":2636:2658  _depositedTokenAddress */\n      0x03\n      0x01\n        /* \"contracts/SyCrowBarter.sol\":2636:2668  _depositedTokenAddress = inToken */\n      0x0100\n      exp\n      dup2\n      sload\n      dup2\n      0xffffffffffffffffffffffffffffffffffffffff\n      mul\n      not\n      and\n      swap1\n      dup4\n      0xffffffffffffffffffffffffffffffffffffffff\n      and\n      mul\n      or\n      swap1\n      sstore\n      pop\n        /* \"contracts/SyCrowBarter.sol\":2702:2710  outToken */\n      dup7\n        /* \"contracts/SyCrowBarter.sol\":2678:2699  _expectedTokenAddress */\n      0x04\n      0x00\n        /* \"contracts/SyCrowBarter.sol\":2678:2710  _expectedTokenAddress = outToken */\n      0x0100\n      exp\n      dup2\n      sload\n      dup2\n      0xffffffffffffffffffffffffffffffffffffffff\n      mul\n      not\n      and\n      swap1\n      dup4\n      0xffffffffffffffffffffffffffffffffffffffff\n      and\n      mul\n      or\n      swap1\n      sstore\n      pop\n        /* \"contracts/SyCrowBarter.sol\":2740:2755  amountDeposited */\n      dup6\n        /* \"contracts/SyCrowBarter.sol\":2721:2737  _depositedAmount */\n      0x05\n        /* \"contracts/SyCrowBarter.sol\":2721:2755  _depositedAmount = amountDeposited */\n      dup2\n      swap1\n      sstore\n      pop\n        /* \"contracts/SyCrowBarter.sol\":2783:2797  amountExpected */\n      dup5\n        /* \"contracts/SyCrowBarter.sol\":2765:2780  _expectedAmount */\n      0x06\n        /* \"contracts/SyCrowBarter.sol\":2765:2797  _expectedAmount = amountExpected */\n      dup2\n      swap1\n      sstore\n      pop\n        /* \"contracts/SyCrowBarter.sol\":2822:2832  barterType */\n      dup9\n        /* \"contracts/SyCrowBarter.sol\":2808:2819  _barterType */\n      0x08\n      0x01\n        /* \"contracts/SyCrowBarter.sol\":2808:2832  _barterType = barterType */\n      0x0100\n      exp\n      dup2\n      sload\n      dup2\n      0xff\n      mul\n      not\n      and\n      swap1\n      dup4\n      0x02\n      dup2\n      gt\n      iszero\n      tag_302\n      jumpi\n      tag_303\n      tag_139\n      jump\t// in\n    tag_303:\n    tag_302:\n      mul\n      or\n      swap1\n      sstore\n      pop\n        /* \"contracts/SyCrowBarter.sol\":2862:2878  allowMultiBarter */\n      dup3\n        /* \"contracts/SyCrowBarter.sol\":2842:2859  _allowMultiBarter */\n      0x08\n      0x00\n        /* \"contracts/SyCrowBarter.sol\":2842:2878  _allowMultiBarter = allowMultiBarter */\n      0x0100\n      exp\n      dup2\n      sload\n      dup2\n      0xff\n      mul\n      not\n      and\n      swap1\n      dup4\n      iszero\n      iszero\n      mul\n      or\n      swap1\n      sstore\n      pop\n        /* \"contracts/SyCrowBarter.sol\":2895:2900  _WETH */\n      dup2\n        /* \"contracts/SyCrowBarter.sol\":2888:2892  WETH */\n      0x01\n      0x00\n        /* \"contracts/SyCrowBarter.sol\":2888:2900  WETH = _WETH */\n      0x0100\n      exp\n      dup2\n      sload\n      dup2\n      0xffffffffffffffffffffffffffffffffffffffff\n      mul\n      not\n      and\n      swap1\n      dup4\n      0xffffffffffffffffffffffffffffffffffffffff\n      and\n      mul\n      or\n      swap1\n      sstore\n      pop\n        /* \"contracts/SyCrowBarter.sol\":2925:2929  true */\n      0x01\n        /* \"contracts/SyCrowBarter.sol\":2910:2922  _initialized */\n      0x03\n      0x00\n        /* \"contracts/SyCrowBarter.sol\":2910:2929  _initialized = true */\n      0x0100\n      exp\n      dup2\n      sload\n      dup2\n      0xff\n      mul\n      not\n      and\n      swap1\n      dup4\n      iszero\n      iszero\n      mul\n      or\n      swap1\n      sstore\n      pop\n        /* \"contracts/SyCrowBarter.sol\":2947:2959  _initialized */\n      0x03\n      0x00\n      swap1\n      sload\n      swap1\n      0x0100\n      exp\n      swap1\n      div\n      0xff\n      and\n        /* \"contracts/SyCrowBarter.sol\":2940:2959  return _initialized */\n      swap1\n      pop\n        /* \"contracts/SyCrowBarter.sol\":1946:2966  function initialize(... */\n      swap9\n      swap8\n      pop\n      pop\n      pop\n      pop\n      pop\n      pop\n      pop\n      pop\n      jump\t// out\n        /* \"contracts/SyCrowBarter.sol\":3540:3693  function getDeadline()... */\n    tag_69:\n        /* \"contracts/SyCrowBarter.sol\":3647:3654  uint256 */\n      0x00\n        /* \"contracts/SyCrowBarter.sol\":1486:1498  _initialized */\n      0x03\n      0x00\n      swap1\n      sload\n      swap1\n      0x0100\n      exp\n      swap1\n      div\n      0xff\n      and\n        /* \"contracts/SyCrowBarter.sol\":1478:1532  require(_initialized, \"SyCrowBarter: NOT_INITIALIZED\") */\n      tag_305\n      jumpi\n      mload(0x40)\n      0x08c379a000000000000000000000000000000000000000000000000000000000\n      dup2\n      mstore\n      0x04\n      add\n      tag_306\n      swap1\n      tag_123\n      jump\t// in\n    tag_306:\n      mload(0x40)\n      dup1\n      swap2\n      sub\n      swap1\n      revert\n    tag_305:\n        /* \"contracts/SyCrowBarter.sol\":3677:3686  _deadline */\n      sload(0x02)\n        /* \"contracts/SyCrowBarter.sol\":3670:3686  return _deadline */\n      swap1\n      pop\n        /* \"contracts/SyCrowBarter.sol\":3540:3693  function getDeadline()... */\n      swap1\n      jump\t// out\n        /* \"@openzeppelin/contracts/access/Ownable.sol\":1668:1769  function renounceOwnership() public virtual onlyOwner {... */\n    tag_74:\n        /* \"@openzeppelin/contracts/access/Ownable.sol\":1259:1271  _msgSender() */\n      tag_309\n        /* \"@openzeppelin/contracts/access/Ownable.sol\":1259:1269  _msgSender */\n      tag_184\n        /* \"@openzeppelin/contracts/access/Ownable.sol\":1259:1271  _msgSender() */\n      jump\t// in\n    tag_309:\n        /* \"@openzeppelin/contracts/access/Ownable.sol\":1248:1271  owner() == _msgSender() */\n      0xffffffffffffffffffffffffffffffffffffffff\n      and\n        /* \"@openzeppelin/contracts/access/Ownable.sol\":1248:1255  owner() */\n      tag_310\n        /* \"@openzeppelin/contracts/access/Ownable.sol\":1248:1253  owner */\n      tag_77\n        /* \"@openzeppelin/contracts/access/Ownable.sol\":1248:1255  owner() */\n      jump\t// in\n    tag_310:\n        /* \"@openzeppelin/contracts/access/Ownable.sol\":1248:1271  owner() == _msgSender() */\n      0xffffffffffffffffffffffffffffffffffffffff\n      and\n      eq\n        /* \"@openzeppelin/contracts/access/Ownable.sol\":1240:1308  require(owner() == _msgSender(), \"Ownable: caller is not the owner\") */\n      tag_311\n      jumpi\n      mload(0x40)\n      0x08c379a000000000000000000000000000000000000000000000000000000000\n      dup2\n      mstore\n      0x04\n      add\n      tag_312\n      swap1\n      tag_188\n      jump\t// in\n    tag_312:\n      mload(0x40)\n      dup1\n      swap2\n      sub\n      swap1\n      revert\n    tag_311:\n        /* \"@openzeppelin/contracts/access/Ownable.sol\":1732:1762  _transferOwnership(address(0)) */\n      tag_314\n        /* \"@openzeppelin/contracts/access/Ownable.sol\":1759:1760  0 */\n      0x00\n        /* \"@openzeppelin/contracts/access/Ownable.sol\":1732:1750  _transferOwnership */\n      tag_315\n        /* \"@openzeppelin/contracts/access/Ownable.sol\":1732:1762  _transferOwnership(address(0)) */\n      jump\t// in\n    tag_314:\n        /* \"@openzeppelin/contracts/access/Ownable.sol\":1668:1769  function renounceOwnership() public virtual onlyOwner {... */\n      jump\t// out\n        /* \"@openzeppelin/contracts/access/Ownable.sol\":1036:1121  function owner() public view virtual returns (address) {... */\n    tag_77:\n        /* \"@openzeppelin/contracts/access/Ownable.sol\":1082:1089  address */\n      0x00\n        /* \"@openzeppelin/contracts/access/Ownable.sol\":1108:1114  _owner */\n      dup1\n      0x00\n      swap1\n      sload\n      swap1\n      0x0100\n      exp\n      swap1\n      div\n      0xffffffffffffffffffffffffffffffffffffffff\n      and\n        /* \"@openzeppelin/contracts/access/Ownable.sol\":1101:1114  return _owner */\n      swap1\n      pop\n        /* \"@openzeppelin/contracts/access/Ownable.sol\":1036:1121  function owner() public view virtual returns (address) {... */\n      swap1\n      jump\t// out\n        /* \"contracts/SyCrowBarter.sol\":5657:5891  function tradeTokenForEth()... */\n    tag_82:\n        /* \"contracts/SyCrowBarter.sol\":966:981  block.timestamp */\n      timestamp\n        /* \"contracts/SyCrowBarter.sol\":953:962  _deadline */\n      sload(0x02)\n        /* \"contracts/SyCrowBarter.sol\":953:981  _deadline >= block.timestamp */\n      lt\n      iszero\n        /* \"contracts/SyCrowBarter.sol\":953:1020  _deadline >= block.timestamp && _totalTradeAmount < _expectedAmount */\n      dup1\n      iszero\n      tag_318\n      jumpi\n      pop\n        /* \"contracts/SyCrowBarter.sol\":1005:1020  _expectedAmount */\n      sload(0x06)\n        /* \"contracts/SyCrowBarter.sol\":985:1002  _totalTradeAmount */\n      sload(0x07)\n        /* \"contracts/SyCrowBarter.sol\":985:1020  _totalTradeAmount < _expectedAmount */\n      lt\n        /* \"contracts/SyCrowBarter.sol\":953:1020  _deadline >= block.timestamp && _totalTradeAmount < _expectedAmount */\n    tag_318:\n        /* \"contracts/SyCrowBarter.sol\":932:1068  require(... */\n      tag_319\n      jumpi\n      mload(0x40)\n      0x08c379a000000000000000000000000000000000000000000000000000000000\n      dup2\n      mstore\n      0x04\n      add\n      tag_320\n      swap1\n      tag_119\n      jump\t// in\n    tag_320:\n      mload(0x40)\n      dup1\n      swap2\n      sub\n      swap1\n      revert\n    tag_319:\n        /* \"contracts/SyCrowBarter.sol\":1486:1498  _initialized */\n      0x03\n      0x00\n      swap1\n      sload\n      swap1\n      0x0100\n      exp\n      swap1\n      div\n      0xff\n      and\n        /* \"contracts/SyCrowBarter.sol\":1478:1532  require(_initialized, \"SyCrowBarter: NOT_INITIALIZED\") */\n      tag_322\n      jumpi\n      mload(0x40)\n      0x08c379a000000000000000000000000000000000000000000000000000000000\n      dup2\n      mstore\n      0x04\n      add\n      tag_323\n      swap1\n      tag_123\n      jump\t// in\n    tag_323:\n      mload(0x40)\n      dup1\n      swap2\n      sub\n      swap1\n      revert\n    tag_322:\n        /* \"contracts/SyCrowBarter.sol\":1719:1752  ISyCrowBarterFactory isycrFactory */\n      0x00\n        /* \"contracts/SyCrowBarter.sol\":1776:1783  factory */\n      immutable(\"0x26a975632f70533c9512e57b565b8ce8e2befee6b08dfbc27c4a897a20e2c1d6\")\n        /* \"contracts/SyCrowBarter.sol\":1719:1784  ISyCrowBarterFactory isycrFactory = ISyCrowBarterFactory(factory) */\n      swap1\n      pop\n        /* \"contracts/SyCrowBarter.sol\":1803:1815  isycrFactory */\n      dup1\n        /* \"contracts/SyCrowBarter.sol\":1803:1824  isycrFactory.isPaused */\n      0xffffffffffffffffffffffffffffffffffffffff\n      and\n      0xb187bd26\n        /* \"contracts/SyCrowBarter.sol\":1803:1826  isycrFactory.isPaused() */\n      mload(0x40)\n      dup2\n      0xffffffff\n      and\n      0xe0\n      shl\n      dup2\n      mstore\n      0x04\n      add\n      0x20\n      mload(0x40)\n      dup1\n      dup4\n      sub\n      dup2\n      dup7\n      gas\n      staticcall\n      iszero\n      dup1\n      iszero\n      tag_326\n      jumpi\n      returndatasize\n      0x00\n      dup1\n      returndatacopy\n      revert(0x00, returndatasize)\n    tag_326:\n      pop\n      pop\n      pop\n      pop\n      mload(0x40)\n      returndatasize\n      not(0x1f)\n      0x1f\n      dup3\n      add\n      and\n      dup3\n      add\n      dup1\n      0x40\n      mstore\n      pop\n      dup2\n      add\n      swap1\n      tag_327\n      swap2\n      swap1\n      tag_128\n      jump\t// in\n    tag_327:\n        /* \"contracts/SyCrowBarter.sol\":1802:1826  !isycrFactory.isPaused() */\n      iszero\n        /* \"contracts/SyCrowBarter.sol\":1794:1865  require(!isycrFactory.isPaused(), \"SyCrowBarter: Base Contract Paused\") */\n      tag_328\n      jumpi\n      mload(0x40)\n      0x08c379a000000000000000000000000000000000000000000000000000000000\n      dup2\n      mstore\n      0x04\n      add\n      tag_329\n      swap1\n      tag_131\n      jump\t// in\n    tag_329:\n      mload(0x40)\n      dup1\n      swap2\n      sub\n      swap1\n      revert\n    tag_328:\n        /* \"contracts/SyCrowBarter.sol\":5803:5834  ISyCrowBarterType.ETH_FOR_TOKEN */\n      0x00\n        /* \"contracts/SyCrowBarter.sol\":1179:1190  _barterType */\n      0x08\n      0x01\n      swap1\n      sload\n      swap1\n      0x0100\n      exp\n      swap1\n      div\n      0xff\n      and\n        /* \"contracts/SyCrowBarter.sol\":1165:1190  barterType == _barterType */\n      0x02\n      dup2\n      gt\n      iszero\n      tag_331\n      jumpi\n      tag_332\n      tag_139\n      jump\t// in\n    tag_332:\n    tag_331:\n        /* \"contracts/SyCrowBarter.sol\":1165:1175  barterType */\n      dup2\n        /* \"contracts/SyCrowBarter.sol\":1165:1190  barterType == _barterType */\n      0x02\n      dup2\n      gt\n      iszero\n      tag_333\n      jumpi\n      tag_334\n      tag_139\n      jump\t// in\n    tag_334:\n    tag_333:\n      eq\n        /* \"contracts/SyCrowBarter.sol\":1157:1228  require(barterType == _barterType, \"SyCrowBarter: INVALID_BARTER_TYPE\") */\n      tag_335\n      jumpi\n      mload(0x40)\n      0x08c379a000000000000000000000000000000000000000000000000000000000\n      dup2\n      mstore\n      0x04\n      add\n      tag_336\n      swap1\n      tag_144\n      jump\t// in\n    tag_336:\n      mload(0x40)\n      dup1\n      swap2\n      sub\n      swap1\n      revert\n    tag_335:\n        /* \"contracts/SyCrowBarter.sol\":5850:5884  _tradeTokenForEth(_expectedAmount) */\n      tag_338\n        /* \"contracts/SyCrowBarter.sol\":5868:5883  _expectedAmount */\n      sload(0x06)\n        /* \"contracts/SyCrowBarter.sol\":5850:5867  _tradeTokenForEth */\n      tag_147\n        /* \"contracts/SyCrowBarter.sol\":5850:5884  _tradeTokenForEth(_expectedAmount) */\n      jump\t// in\n    tag_338:\n        /* \"contracts/SyCrowBarter.sol\":1875:1876  _ */\n      pop\n        /* \"contracts/SyCrowBarter.sol\":1709:1883  {... */\n      pop\n        /* \"contracts/SyCrowBarter.sol\":5657:5891  function tradeTokenForEth()... */\n      jump\t// out\n        /* \"contracts/SyCrowBarter.sol\":3165:3363  function getTokens()... */\n    tag_85:\n        /* \"contracts/SyCrowBarter.sol\":3270:3277  address */\n      0x00\n        /* \"contracts/SyCrowBarter.sol\":3279:3286  address */\n      dup1\n        /* \"contracts/SyCrowBarter.sol\":1486:1498  _initialized */\n      0x03\n      0x00\n      swap1\n      sload\n      swap1\n      0x0100\n      exp\n      swap1\n      div\n      0xff\n      and\n        /* \"contracts/SyCrowBarter.sol\":1478:1532  require(_initialized, \"SyCrowBarter: NOT_INITIALIZED\") */\n      tag_340\n      jumpi\n      mload(0x40)\n      0x08c379a000000000000000000000000000000000000000000000000000000000\n      dup2\n      mstore\n      0x04\n      add\n      tag_341\n      swap1\n      tag_123\n      jump\t// in\n    tag_341:\n      mload(0x40)\n      dup1\n      swap2\n      sub\n      swap1\n      revert\n    tag_340:\n        /* \"contracts/SyCrowBarter.sol\":3310:3332  _depositedTokenAddress */\n      0x03\n      0x01\n      swap1\n      sload\n      swap1\n      0x0100\n      exp\n      swap1\n      div\n      0xffffffffffffffffffffffffffffffffffffffff\n      and\n        /* \"contracts/SyCrowBarter.sol\":3334:3355  _expectedTokenAddress */\n      0x04\n      0x00\n      swap1\n      sload\n      swap1\n      0x0100\n      exp\n      swap1\n      div\n      0xffffffffffffffffffffffffffffffffffffffff\n      and\n        /* \"contracts/SyCrowBarter.sol\":3302:3356  return (_depositedTokenAddress, _expectedTokenAddress) */\n      swap2\n      pop\n      swap2\n      pop\n        /* \"contracts/SyCrowBarter.sol\":3165:3363  function getTokens()... */\n      swap1\n      swap2\n      jump\t// out\n        /* \"contracts/SyCrowBarter.sol\":5411:5651  function tradeTokenForToken()... */\n    tag_90:\n        /* \"contracts/SyCrowBarter.sol\":966:981  block.timestamp */\n      timestamp\n        /* \"contracts/SyCrowBarter.sol\":953:962  _deadline */\n      sload(0x02)\n        /* \"contracts/SyCrowBarter.sol\":953:981  _deadline >= block.timestamp */\n      lt\n      iszero\n        /* \"contracts/SyCrowBarter.sol\":953:1020  _deadline >= block.timestamp && _totalTradeAmount < _expectedAmount */\n      dup1\n      iszero\n      tag_344\n      jumpi\n      pop\n        /* \"contracts/SyCrowBarter.sol\":1005:1020  _expectedAmount */\n      sload(0x06)\n        /* \"contracts/SyCrowBarter.sol\":985:1002  _totalTradeAmount */\n      sload(0x07)\n        /* \"contracts/SyCrowBarter.sol\":985:1020  _totalTradeAmount < _expectedAmount */\n      lt\n        /* \"contracts/SyCrowBarter.sol\":953:1020  _deadline >= block.timestamp && _totalTradeAmount < _expectedAmount */\n    tag_344:\n        /* \"contracts/SyCrowBarter.sol\":932:1068  require(... */\n      tag_345\n      jumpi\n      mload(0x40)\n      0x08c379a000000000000000000000000000000000000000000000000000000000\n      dup2\n      mstore\n      0x04\n      add\n      tag_346\n      swap1\n      tag_119\n      jump\t// in\n    tag_346:\n      mload(0x40)\n      dup1\n      swap2\n      sub\n      swap1\n      revert\n    tag_345:\n        /* \"contracts/SyCrowBarter.sol\":1486:1498  _initialized */\n      0x03\n      0x00\n      swap1\n      sload\n      swap1\n      0x0100\n      exp\n      swap1\n      div\n      0xff\n      and\n        /* \"contracts/SyCrowBarter.sol\":1478:1532  require(_initialized, \"SyCrowBarter: NOT_INITIALIZED\") */\n      tag_348\n      jumpi\n      mload(0x40)\n      0x08c379a000000000000000000000000000000000000000000000000000000000\n      dup2\n      mstore\n      0x04\n      add\n      tag_349\n      swap1\n      tag_123\n      jump\t// in\n    tag_349:\n      mload(0x40)\n      dup1\n      swap2\n      sub\n      swap1\n      revert\n    tag_348:\n        /* \"contracts/SyCrowBarter.sol\":1719:1752  ISyCrowBarterFactory isycrFactory */\n      0x00\n        /* \"contracts/SyCrowBarter.sol\":1776:1783  factory */\n      immutable(\"0x26a975632f70533c9512e57b565b8ce8e2befee6b08dfbc27c4a897a20e2c1d6\")\n        /* \"contracts/SyCrowBarter.sol\":1719:1784  ISyCrowBarterFactory isycrFactory = ISyCrowBarterFactory(factory) */\n      swap1\n      pop\n        /* \"contracts/SyCrowBarter.sol\":1803:1815  isycrFactory */\n      dup1\n        /* \"contracts/SyCrowBarter.sol\":1803:1824  isycrFactory.isPaused */\n      0xffffffffffffffffffffffffffffffffffffffff\n      and\n      0xb187bd26\n        /* \"contracts/SyCrowBarter.sol\":1803:1826  isycrFactory.isPaused() */\n      mload(0x40)\n      dup2\n      0xffffffff\n      and\n      0xe0\n      shl\n      dup2\n      mstore\n      0x04\n      add\n      0x20\n      mload(0x40)\n      dup1\n      dup4\n      sub\n      dup2\n      dup7\n      gas\n      staticcall\n      iszero\n      dup1\n      iszero\n      tag_352\n      jumpi\n      returndatasize\n      0x00\n      dup1\n      returndatacopy\n      revert(0x00, returndatasize)\n    tag_352:\n      pop\n      pop\n      pop\n      pop\n      mload(0x40)\n      returndatasize\n      not(0x1f)\n      0x1f\n      dup3\n      add\n      and\n      dup3\n      add\n      dup1\n      0x40\n      mstore\n      pop\n      dup2\n      add\n      swap1\n      tag_353\n      swap2\n      swap1\n      tag_128\n      jump\t// in\n    tag_353:\n        /* \"contracts/SyCrowBarter.sol\":1802:1826  !isycrFactory.isPaused() */\n      iszero\n        /* \"contracts/SyCrowBarter.sol\":1794:1865  require(!isycrFactory.isPaused(), \"SyCrowBarter: Base Contract Paused\") */\n      tag_354\n      jumpi\n      mload(0x40)\n      0x08c379a000000000000000000000000000000000000000000000000000000000\n      dup2\n      mstore\n      0x04\n      add\n      tag_355\n      swap1\n      tag_131\n      jump\t// in\n    tag_355:\n      mload(0x40)\n      dup1\n      swap2\n      sub\n      swap1\n      revert\n    tag_354:\n        /* \"contracts/SyCrowBarter.sol\":5559:5592  ISyCrowBarterType.TOKEN_FOR_TOKEN */\n      0x02\n        /* \"contracts/SyCrowBarter.sol\":1179:1190  _barterType */\n      0x08\n      0x01\n      swap1\n      sload\n      swap1\n      0x0100\n      exp\n      swap1\n      div\n      0xff\n      and\n        /* \"contracts/SyCrowBarter.sol\":1165:1190  barterType == _barterType */\n      0x02\n      dup2\n      gt\n      iszero\n      tag_357\n      jumpi\n      tag_358\n      tag_139\n      jump\t// in\n    tag_358:\n    tag_357:\n        /* \"contracts/SyCrowBarter.sol\":1165:1175  barterType */\n      dup2\n        /* \"contracts/SyCrowBarter.sol\":1165:1190  barterType == _barterType */\n      0x02\n      dup2\n      gt\n      iszero\n      tag_359\n      jumpi\n      tag_360\n      tag_139\n      jump\t// in\n    tag_360:\n    tag_359:\n      eq\n        /* \"contracts/SyCrowBarter.sol\":1157:1228  require(barterType == _barterType, \"SyCrowBarter: INVALID_BARTER_TYPE\") */\n      tag_361\n      jumpi\n      mload(0x40)\n      0x08c379a000000000000000000000000000000000000000000000000000000000\n      dup2\n      mstore\n      0x04\n      add\n      tag_362\n      swap1\n      tag_144\n      jump\t// in\n    tag_362:\n      mload(0x40)\n      dup1\n      swap2\n      sub\n      swap1\n      revert\n    tag_361:\n        /* \"contracts/SyCrowBarter.sol\":5608:5644  _tradeTokenForToken(_expectedAmount) */\n      tag_364\n        /* \"contracts/SyCrowBarter.sol\":5628:5643  _expectedAmount */\n      sload(0x06)\n        /* \"contracts/SyCrowBarter.sol\":5608:5627  _tradeTokenForToken */\n      tag_173\n        /* \"contracts/SyCrowBarter.sol\":5608:5644  _tradeTokenForToken(_expectedAmount) */\n      jump\t// in\n    tag_364:\n        /* \"contracts/SyCrowBarter.sol\":1875:1876  _ */\n      pop\n        /* \"contracts/SyCrowBarter.sol\":1709:1883  {... */\n      pop\n        /* \"contracts/SyCrowBarter.sol\":5411:5651  function tradeTokenForToken()... */\n      jump\t// out\n        /* \"contracts/SyCrowBarter.sol\":323:364  address public immutable override factory */\n    tag_93:\n      immutable(\"0x26a975632f70533c9512e57b565b8ce8e2befee6b08dfbc27c4a897a20e2c1d6\")\n      dup2\n      jump\t// out\n        /* \"contracts/SyCrowBarter.sol\":5897:6147  function tradeEthForToken()... */\n    tag_96:\n        /* \"contracts/SyCrowBarter.sol\":966:981  block.timestamp */\n      timestamp\n        /* \"contracts/SyCrowBarter.sol\":953:962  _deadline */\n      sload(0x02)\n        /* \"contracts/SyCrowBarter.sol\":953:981  _deadline >= block.timestamp */\n      lt\n      iszero\n        /* \"contracts/SyCrowBarter.sol\":953:1020  _deadline >= block.timestamp && _totalTradeAmount < _expectedAmount */\n      dup1\n      iszero\n      tag_366\n      jumpi\n      pop\n        /* \"contracts/SyCrowBarter.sol\":1005:1020  _expectedAmount */\n      sload(0x06)\n        /* \"contracts/SyCrowBarter.sol\":985:1002  _totalTradeAmount */\n      sload(0x07)\n        /* \"contracts/SyCrowBarter.sol\":985:1020  _totalTradeAmount < _expectedAmount */\n      lt\n        /* \"contracts/SyCrowBarter.sol\":953:1020  _deadline >= block.timestamp && _totalTradeAmount < _expectedAmount */\n    tag_366:\n        /* \"contracts/SyCrowBarter.sol\":932:1068  require(... */\n      tag_367\n      jumpi\n      mload(0x40)\n      0x08c379a000000000000000000000000000000000000000000000000000000000\n      dup2\n      mstore\n      0x04\n      add\n      tag_368\n      swap1\n      tag_119\n      jump\t// in\n    tag_368:\n      mload(0x40)\n      dup1\n      swap2\n      sub\n      swap1\n      revert\n    tag_367:\n        /* \"contracts/SyCrowBarter.sol\":1486:1498  _initialized */\n      0x03\n      0x00\n      swap1\n      sload\n      swap1\n      0x0100\n      exp\n      swap1\n      div\n      0xff\n      and\n        /* \"contracts/SyCrowBarter.sol\":1478:1532  require(_initialized, \"SyCrowBarter: NOT_INITIALIZED\") */\n      tag_370\n      jumpi\n      mload(0x40)\n      0x08c379a000000000000000000000000000000000000000000000000000000000\n      dup2\n      mstore\n      0x04\n      add\n      tag_371\n      swap1\n      tag_123\n      jump\t// in\n    tag_371:\n      mload(0x40)\n      dup1\n      swap2\n      sub\n      swap1\n      revert\n    tag_370:\n        /* \"contracts/SyCrowBarter.sol\":1719:1752  ISyCrowBarterFactory isycrFactory */\n      0x00\n        /* \"contracts/SyCrowBarter.sol\":1776:1783  factory */\n      immutable(\"0x26a975632f70533c9512e57b565b8ce8e2befee6b08dfbc27c4a897a20e2c1d6\")\n        /* \"contracts/SyCrowBarter.sol\":1719:1784  ISyCrowBarterFactory isycrFactory = ISyCrowBarterFactory(factory) */\n      swap1\n      pop\n        /* \"contracts/SyCrowBarter.sol\":1803:1815  isycrFactory */\n      dup1\n        /* \"contracts/SyCrowBarter.sol\":1803:1824  isycrFactory.isPaused */\n      0xffffffffffffffffffffffffffffffffffffffff\n      and\n      0xb187bd26\n        /* \"contracts/SyCrowBarter.sol\":1803:1826  isycrFactory.isPaused() */\n      mload(0x40)\n      dup2\n      0xffffffff\n      and\n      0xe0\n      shl\n      dup2\n      mstore\n      0x04\n      add\n      0x20\n      mload(0x40)\n      dup1\n      dup4\n      sub\n      dup2\n      dup7\n      gas\n      staticcall\n      iszero\n      dup1\n      iszero\n      tag_374\n      jumpi\n      returndatasize\n      0x00\n      dup1\n      returndatacopy\n      revert(0x00, returndatasize)\n    tag_374:\n      pop\n      pop\n      pop\n      pop\n      mload(0x40)\n      returndatasize\n      not(0x1f)\n      0x1f\n      dup3\n      add\n      and\n      dup3\n      add\n      dup1\n      0x40\n      mstore\n      pop\n      dup2\n      add\n      swap1\n      tag_375\n      swap2\n      swap1\n      tag_128\n      jump\t// in\n    tag_375:\n        /* \"contracts/SyCrowBarter.sol\":1802:1826  !isycrFactory.isPaused() */\n      iszero\n        /* \"contracts/SyCrowBarter.sol\":1794:1865  require(!isycrFactory.isPaused(), \"SyCrowBarter: Base Contract Paused\") */\n      tag_376\n      jumpi\n      mload(0x40)\n      0x08c379a000000000000000000000000000000000000000000000000000000000\n      dup2\n      mstore\n      0x04\n      add\n      tag_377\n      swap1\n      tag_131\n      jump\t// in\n    tag_377:\n      mload(0x40)\n      dup1\n      swap2\n      sub\n      swap1\n      revert\n    tag_376:\n        /* \"contracts/SyCrowBarter.sol\":6059:6090  ISyCrowBarterType.TOKEN_FOR_ETH */\n      0x01\n        /* \"contracts/SyCrowBarter.sol\":1179:1190  _barterType */\n      0x08\n      0x01\n      swap1\n      sload\n      swap1\n      0x0100\n      exp\n      swap1\n      div\n      0xff\n      and\n        /* \"contracts/SyCrowBarter.sol\":1165:1190  barterType == _barterType */\n      0x02\n      dup2\n      gt\n      iszero\n      tag_379\n      jumpi\n      tag_380\n      tag_139\n      jump\t// in\n    tag_380:\n    tag_379:\n        /* \"contracts/SyCrowBarter.sol\":1165:1175  barterType */\n      dup2\n        /* \"contracts/SyCrowBarter.sol\":1165:1190  barterType == _barterType */\n      0x02\n      dup2\n      gt\n      iszero\n      tag_381\n      jumpi\n      tag_382\n      tag_139\n      jump\t// in\n    tag_382:\n    tag_381:\n      eq\n        /* \"contracts/SyCrowBarter.sol\":1157:1228  require(barterType == _barterType, \"SyCrowBarter: INVALID_BARTER_TYPE\") */\n      tag_383\n      jumpi\n      mload(0x40)\n      0x08c379a000000000000000000000000000000000000000000000000000000000\n      dup2\n      mstore\n      0x04\n      add\n      tag_384\n      swap1\n      tag_144\n      jump\t// in\n    tag_384:\n      mload(0x40)\n      dup1\n      swap2\n      sub\n      swap1\n      revert\n    tag_383:\n        /* \"contracts/SyCrowBarter.sol\":6106:6140  _tradeEthForToken(_expectedAmount) */\n      tag_386\n        /* \"contracts/SyCrowBarter.sol\":6124:6139  _expectedAmount */\n      sload(0x06)\n        /* \"contracts/SyCrowBarter.sol\":6106:6123  _tradeEthForToken */\n      tag_261\n        /* \"contracts/SyCrowBarter.sol\":6106:6140  _tradeEthForToken(_expectedAmount) */\n      jump\t// in\n    tag_386:\n        /* \"contracts/SyCrowBarter.sol\":1875:1876  _ */\n      pop\n        /* \"contracts/SyCrowBarter.sol\":1709:1883  {... */\n      pop\n        /* \"contracts/SyCrowBarter.sol\":5897:6147  function tradeEthForToken()... */\n      jump\t// out\n        /* \"contracts/SyCrowBarter.sol\":11485:11658  function getTradeOutAmount(uint256 amount)... */\n    tag_100:\n        /* \"contracts/SyCrowBarter.sol\":11595:11602  uint256 */\n      0x00\n        /* \"contracts/SyCrowBarter.sol\":1486:1498  _initialized */\n      0x03\n      0x00\n      swap1\n      sload\n      swap1\n      0x0100\n      exp\n      swap1\n      div\n      0xff\n      and\n        /* \"contracts/SyCrowBarter.sol\":1478:1532  require(_initialized, \"SyCrowBarter: NOT_INITIALIZED\") */\n      tag_388\n      jumpi\n      mload(0x40)\n      0x08c379a000000000000000000000000000000000000000000000000000000000\n      dup2\n      mstore\n      0x04\n      add\n      tag_389\n      swap1\n      tag_123\n      jump\t// in\n    tag_389:\n      mload(0x40)\n      dup1\n      swap2\n      sub\n      swap1\n      revert\n    tag_388:\n        /* \"contracts/SyCrowBarter.sol\":11625:11651  _getTradeOutAmount(amount) */\n      tag_391\n        /* \"contracts/SyCrowBarter.sol\":11644:11650  amount */\n      dup3\n        /* \"contracts/SyCrowBarter.sol\":11625:11643  _getTradeOutAmount */\n      tag_392\n        /* \"contracts/SyCrowBarter.sol\":11625:11651  _getTradeOutAmount(amount) */\n      jump\t// in\n    tag_391:\n        /* \"contracts/SyCrowBarter.sol\":11618:11651  return _getTradeOutAmount(amount) */\n      swap1\n      pop\n        /* \"contracts/SyCrowBarter.sol\":11485:11658  function getTradeOutAmount(uint256 amount)... */\n      swap2\n      swap1\n      pop\n      jump\t// out\n        /* \"contracts/SyCrowBarter.sol\":3872:4558  function getTrades()... */\n    tag_104:\n        /* \"contracts/SyCrowBarter.sol\":3990:4006  address[] memory */\n      0x60\n        /* \"contracts/SyCrowBarter.sol\":4020:4036  uint256[] memory */\n      dup1\n        /* \"contracts/SyCrowBarter.sol\":4050:4066  uint256[] memory */\n      0x60\n        /* \"contracts/SyCrowBarter.sol\":1486:1498  _initialized */\n      0x03\n      0x00\n      swap1\n      sload\n      swap1\n      0x0100\n      exp\n      swap1\n      div\n      0xff\n      and\n        /* \"contracts/SyCrowBarter.sol\":1478:1532  require(_initialized, \"SyCrowBarter: NOT_INITIALIZED\") */\n      tag_394\n      jumpi\n      mload(0x40)\n      0x08c379a000000000000000000000000000000000000000000000000000000000\n      dup2\n      mstore\n      0x04\n      add\n      tag_395\n      swap1\n      tag_123\n      jump\t// in\n    tag_395:\n      mload(0x40)\n      dup1\n      swap2\n      sub\n      swap1\n      revert\n    tag_394:\n        /* \"contracts/SyCrowBarter.sol\":4091:4117  address[] memory addresses */\n      0x00\n        /* \"contracts/SyCrowBarter.sol\":4134:4141  _trades */\n      0x09\n        /* \"contracts/SyCrowBarter.sol\":4134:4148  _trades.length */\n      dup1\n      sload\n      swap1\n      pop\n        /* \"contracts/SyCrowBarter.sol\":4120:4149  new address[](_trades.length) */\n      0xffffffffffffffff\n      dup2\n      gt\n      iszero\n      tag_397\n      jumpi\n      tag_398\n      tag_399\n      jump\t// in\n    tag_398:\n    tag_397:\n      mload(0x40)\n      swap1\n      dup1\n      dup3\n      mstore\n      dup1\n      0x20\n      mul\n      0x20\n      add\n      dup3\n      add\n      0x40\n      mstore\n      dup1\n      iszero\n      tag_400\n      jumpi\n      dup2\n      0x20\n      add\n      0x20\n      dup3\n      mul\n      dup1\n      calldatasize\n      dup4\n      calldatacopy\n      dup1\n      dup3\n      add\n      swap2\n      pop\n      pop\n      swap1\n      pop\n    tag_400:\n      pop\n        /* \"contracts/SyCrowBarter.sol\":4091:4149  address[] memory addresses = new address[](_trades.length) */\n      swap1\n      pop\n        /* \"contracts/SyCrowBarter.sol\":4159:4185  uint256[] memory amountsIn */\n      0x00\n        /* \"contracts/SyCrowBarter.sol\":4202:4209  _trades */\n      0x09\n        /* \"contracts/SyCrowBarter.sol\":4202:4216  _trades.length */\n      dup1\n      sload\n      swap1\n      pop\n        /* \"contracts/SyCrowBarter.sol\":4188:4217  new uint256[](_trades.length) */\n      0xffffffffffffffff\n      dup2\n      gt\n      iszero\n      tag_401\n      jumpi\n      tag_402\n      tag_399\n      jump\t// in\n    tag_402:\n    tag_401:\n      mload(0x40)\n      swap1\n      dup1\n      dup3\n      mstore\n      dup1\n      0x20\n      mul\n      0x20\n      add\n      dup3\n      add\n      0x40\n      mstore\n      dup1\n      iszero\n      tag_403\n      jumpi\n      dup2\n      0x20\n      add\n      0x20\n      dup3\n      mul\n      dup1\n      calldatasize\n      dup4\n      calldatacopy\n      dup1\n      dup3\n      add\n      swap2\n      pop\n      pop\n      swap1\n      pop\n    tag_403:\n      pop\n        /* \"contracts/SyCrowBarter.sol\":4159:4217  uint256[] memory amountsIn = new uint256[](_trades.length) */\n      swap1\n      pop\n        /* \"contracts/SyCrowBarter.sol\":4227:4254  uint256[] memory amountsOut */\n      0x00\n        /* \"contracts/SyCrowBarter.sol\":4271:4278  _trades */\n      0x09\n        /* \"contracts/SyCrowBarter.sol\":4271:4285  _trades.length */\n      dup1\n      sload\n      swap1\n      pop\n        /* \"contracts/SyCrowBarter.sol\":4257:4286  new uint256[](_trades.length) */\n      0xffffffffffffffff\n      dup2\n      gt\n      iszero\n      tag_404\n      jumpi\n      tag_405\n      tag_399\n      jump\t// in\n    tag_405:\n    tag_404:\n      mload(0x40)\n      swap1\n      dup1\n      dup3\n      mstore\n      dup1\n      0x20\n      mul\n      0x20\n      add\n      dup3\n      add\n      0x40\n      mstore\n      dup1\n      iszero\n      tag_406\n      jumpi\n      dup2\n      0x20\n      add\n      0x20\n      dup3\n      mul\n      dup1\n      calldatasize\n      dup4\n      calldatacopy\n      dup1\n      dup3\n      add\n      swap2\n      pop\n      pop\n      swap1\n      pop\n    tag_406:\n      pop\n        /* \"contracts/SyCrowBarter.sol\":4227:4286  uint256[] memory amountsOut = new uint256[](_trades.length) */\n      swap1\n      pop\n        /* \"contracts/SyCrowBarter.sol\":4302:4311  uint256 i */\n      0x00\n        /* \"contracts/SyCrowBarter.sol\":4297:4500  for (uint256 i = 0; i < _trades.length; i++) {... */\n    tag_407:\n        /* \"contracts/SyCrowBarter.sol\":4321:4328  _trades */\n      0x09\n        /* \"contracts/SyCrowBarter.sol\":4321:4335  _trades.length */\n      dup1\n      sload\n      swap1\n      pop\n        /* \"contracts/SyCrowBarter.sol\":4317:4318  i */\n      dup2\n        /* \"contracts/SyCrowBarter.sol\":4317:4335  i < _trades.length */\n      lt\n        /* \"contracts/SyCrowBarter.sol\":4297:4500  for (uint256 i = 0; i < _trades.length; i++) {... */\n      iszero\n      tag_408\n      jumpi\n        /* \"contracts/SyCrowBarter.sol\":4371:4378  _trades */\n      0x09\n        /* \"contracts/SyCrowBarter.sol\":4379:4380  i */\n      dup2\n        /* \"contracts/SyCrowBarter.sol\":4371:4381  _trades[i] */\n      dup2\n      sload\n      dup2\n      lt\n      tag_410\n      jumpi\n      tag_411\n      tag_412\n      jump\t// in\n    tag_411:\n    tag_410:\n      swap1\n      0x00\n      mstore\n      keccak256(0x00, 0x20)\n      swap1\n      0x03\n      mul\n      add\n        /* \"contracts/SyCrowBarter.sol\":4371:4389  _trades[i]._trader */\n      0x00\n      add\n      0x00\n      swap1\n      sload\n      swap1\n      0x0100\n      exp\n      swap1\n      div\n      0xffffffffffffffffffffffffffffffffffffffff\n      and\n        /* \"contracts/SyCrowBarter.sol\":4356:4365  addresses */\n      dup5\n        /* \"contracts/SyCrowBarter.sol\":4366:4367  i */\n      dup3\n        /* \"contracts/SyCrowBarter.sol\":4356:4368  addresses[i] */\n      dup2\n      mload\n      dup2\n      lt\n      tag_414\n      jumpi\n      tag_415\n      tag_412\n      jump\t// in\n    tag_415:\n    tag_414:\n      0x20\n      mul\n      0x20\n      add\n      add\n        /* \"contracts/SyCrowBarter.sol\":4356:4389  addresses[i] = _trades[i]._trader */\n      swap1\n      0xffffffffffffffffffffffffffffffffffffffff\n      and\n      swap1\n      dup2\n      0xffffffffffffffffffffffffffffffffffffffff\n      and\n      dup2\n      mstore\n      pop\n      pop\n        /* \"contracts/SyCrowBarter.sol\":4418:4425  _trades */\n      0x09\n        /* \"contracts/SyCrowBarter.sol\":4426:4427  i */\n      dup2\n        /* \"contracts/SyCrowBarter.sol\":4418:4428  _trades[i] */\n      dup2\n      sload\n      dup2\n      lt\n      tag_416\n      jumpi\n      tag_417\n      tag_412\n      jump\t// in\n    tag_417:\n    tag_416:\n      swap1\n      0x00\n      mstore\n      keccak256(0x00, 0x20)\n      swap1\n      0x03\n      mul\n      add\n        /* \"contracts/SyCrowBarter.sol\":4418:4438  _trades[i]._amountIn */\n      0x01\n      add\n      sload\n        /* \"contracts/SyCrowBarter.sol\":4403:4412  amountsIn */\n      dup4\n        /* \"contracts/SyCrowBarter.sol\":4413:4414  i */\n      dup3\n        /* \"contracts/SyCrowBarter.sol\":4403:4415  amountsIn[i] */\n      dup2\n      mload\n      dup2\n      lt\n      tag_419\n      jumpi\n      tag_420\n      tag_412\n      jump\t// in\n    tag_420:\n    tag_419:\n      0x20\n      mul\n      0x20\n      add\n      add\n        /* \"contracts/SyCrowBarter.sol\":4403:4438  amountsIn[i] = _trades[i]._amountIn */\n      dup2\n      dup2\n      mstore\n      pop\n      pop\n        /* \"contracts/SyCrowBarter.sol\":4468:4475  _trades */\n      0x09\n        /* \"contracts/SyCrowBarter.sol\":4476:4477  i */\n      dup2\n        /* \"contracts/SyCrowBarter.sol\":4468:4478  _trades[i] */\n      dup2\n      sload\n      dup2\n      lt\n      tag_421\n      jumpi\n      tag_422\n      tag_412\n      jump\t// in\n    tag_422:\n    tag_421:\n      swap1\n      0x00\n      mstore\n      keccak256(0x00, 0x20)\n      swap1\n      0x03\n      mul\n      add\n        /* \"contracts/SyCrowBarter.sol\":4468:4489  _trades[i]._amountOut */\n      0x02\n      add\n      sload\n        /* \"contracts/SyCrowBarter.sol\":4452:4462  amountsOut */\n      dup3\n        /* \"contracts/SyCrowBarter.sol\":4463:4464  i */\n      dup3\n        /* \"contracts/SyCrowBarter.sol\":4452:4465  amountsOut[i] */\n      dup2\n      mload\n      dup2\n      lt\n      tag_424\n      jumpi\n      tag_425\n      tag_412\n      jump\t// in\n    tag_425:\n    tag_424:\n      0x20\n      mul\n      0x20\n      add\n      add\n        /* \"contracts/SyCrowBarter.sol\":4452:4489  amountsOut[i] = _trades[i]._amountOut */\n      dup2\n      dup2\n      mstore\n      pop\n      pop\n        /* \"contracts/SyCrowBarter.sol\":4337:4340  i++ */\n      dup1\n      dup1\n      tag_426\n      swap1\n      tag_427\n      jump\t// in\n    tag_426:\n      swap2\n      pop\n      pop\n        /* \"contracts/SyCrowBarter.sol\":4297:4500  for (uint256 i = 0; i < _trades.length; i++) {... */\n      jump(tag_407)\n    tag_408:\n      pop\n        /* \"contracts/SyCrowBarter.sol\":4518:4527  addresses */\n      dup3\n        /* \"contracts/SyCrowBarter.sol\":4529:4538  amountsIn */\n      dup3\n        /* \"contracts/SyCrowBarter.sol\":4540:4550  amountsOut */\n      dup3\n        /* \"contracts/SyCrowBarter.sol\":4510:4551  return (addresses, amountsIn, amountsOut) */\n      swap6\n      pop\n      swap6\n      pop\n      swap6\n      pop\n      pop\n      pop\n      pop\n        /* \"contracts/SyCrowBarter.sol\":3872:4558  function getTrades()... */\n      swap1\n      swap2\n      swap3\n      jump\t// out\n        /* \"@openzeppelin/contracts/access/Ownable.sol\":1918:2116  function transferOwnership(address newOwner) public virtual onlyOwner {... */\n    tag_110:\n        /* \"@openzeppelin/contracts/access/Ownable.sol\":1259:1271  _msgSender() */\n      tag_429\n        /* \"@openzeppelin/contracts/access/Ownable.sol\":1259:1269  _msgSender */\n      tag_184\n        /* \"@openzeppelin/contracts/access/Ownable.sol\":1259:1271  _msgSender() */\n      jump\t// in\n    tag_429:\n        /* \"@openzeppelin/contracts/access/Ownable.sol\":1248:1271  owner() == _msgSender() */\n      0xffffffffffffffffffffffffffffffffffffffff\n      and\n        /* \"@openzeppelin/contracts/access/Ownable.sol\":1248:1255  owner() */\n      tag_430\n        /* \"@openzeppelin/contracts/access/Ownable.sol\":1248:1253  owner */\n      tag_77\n        /* \"@openzeppelin/contracts/access/Ownable.sol\":1248:1255  owner() */\n      jump\t// in\n    tag_430:\n        /* \"@openzeppelin/contracts/access/Ownable.sol\":1248:1271  owner() == _msgSender() */\n      0xffffffffffffffffffffffffffffffffffffffff\n      and\n      eq\n        /* \"@openzeppelin/contracts/access/Ownable.sol\":1240:1308  require(owner() == _msgSender(), \"Ownable: caller is not the owner\") */\n      tag_431\n      jumpi\n      mload(0x40)\n      0x08c379a000000000000000000000000000000000000000000000000000000000\n      dup2\n      mstore\n      0x04\n      add\n      tag_432\n      swap1\n      tag_188\n      jump\t// in\n    tag_432:\n      mload(0x40)\n      dup1\n      swap2\n      sub\n      swap1\n      revert\n    tag_431:\n        /* \"@openzeppelin/contracts/access/Ownable.sol\":2026:2027  0 */\n      0x00\n        /* \"@openzeppelin/contracts/access/Ownable.sol\":2006:2028  newOwner != address(0) */\n      0xffffffffffffffffffffffffffffffffffffffff\n      and\n        /* \"@openzeppelin/contracts/access/Ownable.sol\":2006:2014  newOwner */\n      dup2\n        /* \"@openzeppelin/contracts/access/Ownable.sol\":2006:2028  newOwner != address(0) */\n      0xffffffffffffffffffffffffffffffffffffffff\n      and\n      sub\n        /* \"@openzeppelin/contracts/access/Ownable.sol\":1998:2071  require(newOwner != address(0), \"Ownable: new owner is the zero address\") */\n      tag_434\n      jumpi\n      mload(0x40)\n      0x08c379a000000000000000000000000000000000000000000000000000000000\n      dup2\n      mstore\n      0x04\n      add\n      tag_435\n      swap1\n      tag_436\n      jump\t// in\n    tag_435:\n      mload(0x40)\n      dup1\n      swap2\n      sub\n      swap1\n      revert\n    tag_434:\n        /* \"@openzeppelin/contracts/access/Ownable.sol\":2081:2109  _transferOwnership(newOwner) */\n      tag_437\n        /* \"@openzeppelin/contracts/access/Ownable.sol\":2100:2108  newOwner */\n      dup2\n        /* \"@openzeppelin/contracts/access/Ownable.sol\":2081:2099  _transferOwnership */\n      tag_315\n        /* \"@openzeppelin/contracts/access/Ownable.sol\":2081:2109  _transferOwnership(newOwner) */\n      jump\t// in\n    tag_437:\n        /* \"@openzeppelin/contracts/access/Ownable.sol\":1918:2116  function transferOwnership(address newOwner) public virtual onlyOwner {... */\n      pop\n      jump\t// out\n        /* \"contracts/SyCrowBarter.sol\":3369:3534  function getTradeBalance()... */\n    tag_113:\n        /* \"contracts/SyCrowBarter.sol\":3480:3487  uint256 */\n      0x00\n        /* \"contracts/SyCrowBarter.sol\":1486:1498  _initialized */\n      0x03\n      0x00\n      swap1\n      sload\n      swap1\n      0x0100\n      exp\n      swap1\n      div\n      0xff\n      and\n        /* \"contracts/SyCrowBarter.sol\":1478:1532  require(_initialized, \"SyCrowBarter: NOT_INITIALIZED\") */\n      tag_439\n      jumpi\n      mload(0x40)\n      0x08c379a000000000000000000000000000000000000000000000000000000000\n      dup2\n      mstore\n      0x04\n      add\n      tag_440\n      swap1\n      tag_123\n      jump\t// in\n    tag_440:\n      mload(0x40)\n      dup1\n      swap2\n      sub\n      swap1\n      revert\n    tag_439:\n        /* \"contracts/SyCrowBarter.sol\":3510:3527  _totalTradeAmount */\n      sload(0x07)\n        /* \"contracts/SyCrowBarter.sol\":3503:3527  return _totalTradeAmount */\n      swap1\n      pop\n        /* \"contracts/SyCrowBarter.sol\":3369:3534  function getTradeBalance()... */\n      swap1\n      jump\t// out\n        /* \"contracts/SyCrowBarter.sol\":7200:8209  function _tradeTokenForEth(uint256 inAmount) internal {... */\n    tag_147:\n        /* \"contracts/SyCrowBarter.sol\":7340:7348  inAmount */\n      dup1\n        /* \"contracts/SyCrowBarter.sol\":7292:7313  _expectedTokenAddress */\n      0x04\n      0x00\n      swap1\n      sload\n      swap1\n      0x0100\n      exp\n      swap1\n      div\n      0xffffffffffffffffffffffffffffffffffffffff\n      and\n        /* \"contracts/SyCrowBarter.sol\":7285:7324  IERC20(_expectedTokenAddress).balanceOf */\n      0xffffffffffffffffffffffffffffffffffffffff\n      and\n      0x70a08231\n        /* \"contracts/SyCrowBarter.sol\":7325:7335  msg.sender */\n      caller\n        /* \"contracts/SyCrowBarter.sol\":7285:7336  IERC20(_expectedTokenAddress).balanceOf(msg.sender) */\n      mload(0x40)\n      dup3\n      0xffffffff\n      and\n      0xe0\n      shl\n      dup2\n      mstore\n      0x04\n      add\n      tag_443\n      swap2\n      swap1\n      tag_79\n      jump\t// in\n    tag_443:\n      0x20\n      mload(0x40)\n      dup1\n      dup4\n      sub\n      dup2\n      dup7\n      gas\n      staticcall\n      iszero\n      dup1\n      iszero\n      tag_445\n      jumpi\n      returndatasize\n      0x00\n      dup1\n      returndatacopy\n      revert(0x00, returndatasize)\n    tag_445:\n      pop\n      pop\n      pop\n      pop\n      mload(0x40)\n      returndatasize\n      not(0x1f)\n      0x1f\n      dup3\n      add\n      and\n      dup3\n      add\n      dup1\n      0x40\n      mstore\n      pop\n      dup2\n      add\n      swap1\n      tag_446\n      swap2\n      swap1\n      tag_194\n      jump\t// in\n    tag_446:\n        /* \"contracts/SyCrowBarter.sol\":7285:7348  IERC20(_expectedTokenAddress).balanceOf(msg.sender) >= inAmount */\n      lt\n      iszero\n        /* \"contracts/SyCrowBarter.sol\":7264:7408  require(... */\n      tag_447\n      jumpi\n      mload(0x40)\n      0x08c379a000000000000000000000000000000000000000000000000000000000\n      dup2\n      mstore\n      0x04\n      add\n      tag_448\n      swap1\n      tag_449\n      jump\t// in\n    tag_448:\n      mload(0x40)\n      dup1\n      swap2\n      sub\n      swap1\n      revert\n    tag_447:\n        /* \"contracts/SyCrowBarter.sol\":7419:7436  uint256 outAmount */\n      0x00\n        /* \"contracts/SyCrowBarter.sol\":7439:7467  _getTradeOutAmount(inAmount) */\n      tag_450\n        /* \"contracts/SyCrowBarter.sol\":7458:7466  inAmount */\n      dup3\n        /* \"contracts/SyCrowBarter.sol\":7439:7457  _getTradeOutAmount */\n      tag_392\n        /* \"contracts/SyCrowBarter.sol\":7439:7467  _getTradeOutAmount(inAmount) */\n      jump\t// in\n    tag_450:\n        /* \"contracts/SyCrowBarter.sol\":7419:7467  uint256 outAmount = _getTradeOutAmount(inAmount) */\n      swap1\n      pop\n        /* \"contracts/SyCrowBarter.sol\":7478:7489  IWETH _weth */\n      0x00\n        /* \"contracts/SyCrowBarter.sol\":7498:7502  WETH */\n      0x01\n      0x00\n      swap1\n      sload\n      swap1\n      0x0100\n      exp\n      swap1\n      div\n      0xffffffffffffffffffffffffffffffffffffffff\n      and\n        /* \"contracts/SyCrowBarter.sol\":7478:7503  IWETH _weth = IWETH(WETH) */\n      swap1\n      pop\n        /* \"contracts/SyCrowBarter.sol\":7569:7578  outAmount */\n      dup2\n        /* \"contracts/SyCrowBarter.sol\":7535:7540  _weth */\n      dup2\n        /* \"contracts/SyCrowBarter.sol\":7535:7550  _weth.balanceOf */\n      0xffffffffffffffffffffffffffffffffffffffff\n      and\n      0x70a08231\n        /* \"contracts/SyCrowBarter.sol\":7559:7563  this */\n      address\n        /* \"contracts/SyCrowBarter.sol\":7535:7565  _weth.balanceOf(address(this)) */\n      mload(0x40)\n      dup3\n      0xffffffff\n      and\n      0xe0\n      shl\n      dup2\n      mstore\n      0x04\n      add\n      tag_451\n      swap2\n      swap1\n      tag_79\n      jump\t// in\n    tag_451:\n      0x20\n      mload(0x40)\n      dup1\n      dup4\n      sub\n      dup2\n      dup7\n      gas\n      staticcall\n      iszero\n      dup1\n      iszero\n      tag_453\n      jumpi\n      returndatasize\n      0x00\n      dup1\n      returndatacopy\n      revert(0x00, returndatasize)\n    tag_453:\n      pop\n      pop\n      pop\n      pop\n      mload(0x40)\n      returndatasize\n      not(0x1f)\n      0x1f\n      dup3\n      add\n      and\n      dup3\n      add\n      dup1\n      0x40\n      mstore\n      pop\n      dup2\n      add\n      swap1\n      tag_454\n      swap2\n      swap1\n      tag_194\n      jump\t// in\n    tag_454:\n        /* \"contracts/SyCrowBarter.sol\":7535:7578  _weth.balanceOf(address(this)) >= outAmount */\n      lt\n      iszero\n        /* \"contracts/SyCrowBarter.sol\":7514:7647  require(... */\n      tag_455\n      jumpi\n      mload(0x40)\n      0x08c379a000000000000000000000000000000000000000000000000000000000\n      dup2\n      mstore\n      0x04\n      add\n      tag_456\n      swap1\n      tag_457\n      jump\t// in\n    tag_456:\n      mload(0x40)\n      dup1\n      swap2\n      sub\n      swap1\n      revert\n    tag_455:\n        /* \"contracts/SyCrowBarter.sol\":7664:7668  WETH */\n      0x01\n      0x00\n      swap1\n      sload\n      swap1\n      0x0100\n      exp\n      swap1\n      div\n      0xffffffffffffffffffffffffffffffffffffffff\n      and\n        /* \"contracts/SyCrowBarter.sol\":7658:7678  IWETH(WETH).withdraw */\n      0xffffffffffffffffffffffffffffffffffffffff\n      and\n      0x2e1a7d4d\n        /* \"contracts/SyCrowBarter.sol\":7679:7688  outAmount */\n      dup4\n        /* \"contracts/SyCrowBarter.sol\":7658:7689  IWETH(WETH).withdraw(outAmount) */\n      mload(0x40)\n      dup3\n      0xffffffff\n      and\n      0xe0\n      shl\n      dup2\n      mstore\n      0x04\n      add\n      tag_458\n      swap2\n      swap1\n      tag_71\n      jump\t// in\n    tag_458:\n      0x00\n      mload(0x40)\n      dup1\n      dup4\n      sub\n      dup2\n      0x00\n      dup8\n      dup1\n      extcodesize\n      iszero\n      dup1\n      iszero\n      tag_459\n      jumpi\n      0x00\n      dup1\n      revert\n    tag_459:\n      pop\n      gas\n      call\n      iszero\n      dup1\n      iszero\n      tag_461\n      jumpi\n      returndatasize\n      0x00\n      dup1\n      returndatacopy\n      revert(0x00, returndatasize)\n    tag_461:\n      pop\n      pop\n      pop\n      pop\n        /* \"contracts/SyCrowBarter.sol\":7700:7849  TransferHelper.safeTransferFrom(... */\n      tag_462\n        /* \"contracts/SyCrowBarter.sol\":7745:7766  _expectedTokenAddress */\n      0x04\n      0x00\n      swap1\n      sload\n      swap1\n      0x0100\n      exp\n      swap1\n      div\n      0xffffffffffffffffffffffffffffffffffffffff\n      and\n        /* \"contracts/SyCrowBarter.sol\":7780:7790  msg.sender */\n      caller\n        /* \"contracts/SyCrowBarter.sol\":7812:7816  this */\n      address\n        /* \"contracts/SyCrowBarter.sol\":7831:7839  inAmount */\n      dup7\n        /* \"contracts/SyCrowBarter.sol\":7700:7731  TransferHelper.safeTransferFrom */\n      tag_463\n        /* \"contracts/SyCrowBarter.sol\":7700:7849  TransferHelper.safeTransferFrom(... */\n      jump\t// in\n    tag_462:\n        /* \"contracts/SyCrowBarter.sol\":7859:7912  TransferHelper.safeTransferETH(msg.sender, outAmount) */\n      tag_464\n        /* \"contracts/SyCrowBarter.sol\":7890:7900  msg.sender */\n      caller\n        /* \"contracts/SyCrowBarter.sol\":7902:7911  outAmount */\n      dup4\n        /* \"contracts/SyCrowBarter.sol\":7859:7889  TransferHelper.safeTransferETH */\n      tag_201\n        /* \"contracts/SyCrowBarter.sol\":7859:7912  TransferHelper.safeTransferETH(msg.sender, outAmount) */\n      jump\t// in\n    tag_464:\n        /* \"contracts/SyCrowBarter.sol\":7923:7930  _trades */\n      0x09\n        /* \"contracts/SyCrowBarter.sol\":7936:7979  BaterTrade(msg.sender, inAmount, outAmount) */\n      mload(0x40)\n      dup1\n      0x60\n      add\n      0x40\n      mstore\n      dup1\n        /* \"contracts/SyCrowBarter.sol\":7947:7957  msg.sender */\n      caller\n        /* \"contracts/SyCrowBarter.sol\":7936:7979  BaterTrade(msg.sender, inAmount, outAmount) */\n      0xffffffffffffffffffffffffffffffffffffffff\n      and\n      dup2\n      mstore\n      0x20\n      add\n        /* \"contracts/SyCrowBarter.sol\":7959:7967  inAmount */\n      dup6\n        /* \"contracts/SyCrowBarter.sol\":7936:7979  BaterTrade(msg.sender, inAmount, outAmount) */\n      dup2\n      mstore\n      0x20\n      add\n        /* \"contracts/SyCrowBarter.sol\":7969:7978  outAmount */\n      dup5\n        /* \"contracts/SyCrowBarter.sol\":7936:7979  BaterTrade(msg.sender, inAmount, outAmount) */\n      dup2\n      mstore\n      pop\n        /* \"contracts/SyCrowBarter.sol\":7923:7980  _trades.push(BaterTrade(msg.sender, inAmount, outAmount)) */\n      swap1\n      dup1\n      0x01\n      dup2\n      sload\n      add\n      dup1\n      dup3\n      sstore\n      dup1\n      swap2\n      pop\n      pop\n      0x01\n      swap1\n      sub\n      swap1\n      0x00\n      mstore\n      keccak256(0x00, 0x20)\n      swap1\n      0x03\n      mul\n      add\n      0x00\n      swap1\n      swap2\n      swap1\n      swap2\n      swap1\n      swap2\n      pop\n      0x00\n      dup3\n      add\n      mload\n      dup2\n      0x00\n      add\n      exp(0x0100, 0x00)\n      dup2\n      sload\n      dup2\n      0xffffffffffffffffffffffffffffffffffffffff\n      mul\n      not\n      and\n      swap1\n      dup4\n      0xffffffffffffffffffffffffffffffffffffffff\n      and\n      mul\n      or\n      swap1\n      sstore\n      pop\n      0x20\n      dup3\n      add\n      mload\n      dup2\n      0x01\n      add\n      sstore\n      0x40\n      dup3\n      add\n      mload\n      dup2\n      0x02\n      add\n      sstore\n      pop\n      pop\n        /* \"contracts/SyCrowBarter.sol\":7991:8023  ISyCrowBarterFactory sycrFactory */\n      0x00\n        /* \"contracts/SyCrowBarter.sol\":8047:8054  factory */\n      immutable(\"0x26a975632f70533c9512e57b565b8ce8e2befee6b08dfbc27c4a897a20e2c1d6\")\n        /* \"contracts/SyCrowBarter.sol\":7991:8055  ISyCrowBarterFactory sycrFactory = ISyCrowBarterFactory(factory) */\n      swap1\n      pop\n        /* \"contracts/SyCrowBarter.sol\":8065:8076  sycrFactory */\n      dup1\n        /* \"contracts/SyCrowBarter.sol\":8065:8096  sycrFactory.notifyTradeByBarter */\n      0xffffffffffffffffffffffffffffffffffffffff\n      and\n      0xf52701b7\n        /* \"contracts/SyCrowBarter.sol\":8118:8122  this */\n      address\n        /* \"contracts/SyCrowBarter.sol\":8137:8147  msg.sender */\n      caller\n        /* \"contracts/SyCrowBarter.sol\":8161:8169  inAmount */\n      dup8\n        /* \"contracts/SyCrowBarter.sol\":8183:8192  outAmount */\n      dup8\n        /* \"contracts/SyCrowBarter.sol\":8065:8202  sycrFactory.notifyTradeByBarter(... */\n      mload(0x40)\n      dup6\n      0xffffffff\n      and\n      0xe0\n      shl\n      dup2\n      mstore\n      0x04\n      add\n      tag_466\n      swap5\n      swap4\n      swap3\n      swap2\n      swap1\n      tag_228\n      jump\t// in\n    tag_466:\n      0x00\n      mload(0x40)\n      dup1\n      dup4\n      sub\n      dup2\n      0x00\n      dup8\n      dup1\n      extcodesize\n      iszero\n      dup1\n      iszero\n      tag_467\n      jumpi\n      0x00\n      dup1\n      revert\n    tag_467:\n      pop\n      gas\n      call\n      iszero\n      dup1\n      iszero\n      tag_469\n      jumpi\n      returndatasize\n      0x00\n      dup1\n      returndatacopy\n      revert(0x00, returndatasize)\n    tag_469:\n      pop\n      pop\n      pop\n      pop\n        /* \"contracts/SyCrowBarter.sol\":7254:8209  {... */\n      pop\n      pop\n      pop\n        /* \"contracts/SyCrowBarter.sol\":7200:8209  function _tradeTokenForEth(uint256 inAmount) internal {... */\n      pop\n      jump\t// out\n        /* \"contracts/SyCrowBarter.sol\":6153:7194  function _tradeTokenForToken(uint256 inAmount) internal {... */\n    tag_173:\n        /* \"contracts/SyCrowBarter.sol\":6295:6303  inAmount */\n      dup1\n        /* \"contracts/SyCrowBarter.sol\":6247:6268  _expectedTokenAddress */\n      0x04\n      0x00\n      swap1\n      sload\n      swap1\n      0x0100\n      exp\n      swap1\n      div\n      0xffffffffffffffffffffffffffffffffffffffff\n      and\n        /* \"contracts/SyCrowBarter.sol\":6240:6279  IERC20(_expectedTokenAddress).balanceOf */\n      0xffffffffffffffffffffffffffffffffffffffff\n      and\n      0x70a08231\n        /* \"contracts/SyCrowBarter.sol\":6280:6290  msg.sender */\n      caller\n        /* \"contracts/SyCrowBarter.sol\":6240:6291  IERC20(_expectedTokenAddress).balanceOf(msg.sender) */\n      mload(0x40)\n      dup3\n      0xffffffff\n      and\n      0xe0\n      shl\n      dup2\n      mstore\n      0x04\n      add\n      tag_471\n      swap2\n      swap1\n      tag_79\n      jump\t// in\n    tag_471:\n      0x20\n      mload(0x40)\n      dup1\n      dup4\n      sub\n      dup2\n      dup7\n      gas\n      staticcall\n      iszero\n      dup1\n      iszero\n      tag_473\n      jumpi\n      returndatasize\n      0x00\n      dup1\n      returndatacopy\n      revert(0x00, returndatasize)\n    tag_473:\n      pop\n      pop\n      pop\n      pop\n      mload(0x40)\n      returndatasize\n      not(0x1f)\n      0x1f\n      dup3\n      add\n      and\n      dup3\n      add\n      dup1\n      0x40\n      mstore\n      pop\n      dup2\n      add\n      swap1\n      tag_474\n      swap2\n      swap1\n      tag_194\n      jump\t// in\n    tag_474:\n        /* \"contracts/SyCrowBarter.sol\":6240:6303  IERC20(_expectedTokenAddress).balanceOf(msg.sender) >= inAmount */\n      lt\n      iszero\n        /* \"contracts/SyCrowBarter.sol\":6219:6363  require(... */\n      tag_475\n      jumpi\n      mload(0x40)\n      0x08c379a000000000000000000000000000000000000000000000000000000000\n      dup2\n      mstore\n      0x04\n      add\n      tag_476\n      swap1\n      tag_449\n      jump\t// in\n    tag_476:\n      mload(0x40)\n      dup1\n      swap2\n      sub\n      swap1\n      revert\n    tag_475:\n        /* \"contracts/SyCrowBarter.sol\":6374:6391  uint256 outAmount */\n      0x00\n        /* \"contracts/SyCrowBarter.sol\":6394:6422  _getTradeOutAmount(inAmount) */\n      tag_477\n        /* \"contracts/SyCrowBarter.sol\":6413:6421  inAmount */\n      dup3\n        /* \"contracts/SyCrowBarter.sol\":6394:6412  _getTradeOutAmount */\n      tag_392\n        /* \"contracts/SyCrowBarter.sol\":6394:6422  _getTradeOutAmount(inAmount) */\n      jump\t// in\n    tag_477:\n        /* \"contracts/SyCrowBarter.sol\":6374:6422  uint256 outAmount = _getTradeOutAmount(inAmount) */\n      swap1\n      pop\n        /* \"contracts/SyCrowBarter.sol\":6529:6538  outAmount */\n      dup1\n        /* \"contracts/SyCrowBarter.sol\":6461:6483  _depositedTokenAddress */\n      0x03\n      0x01\n      swap1\n      sload\n      swap1\n      0x0100\n      exp\n      swap1\n      div\n      0xffffffffffffffffffffffffffffffffffffffff\n      and\n        /* \"contracts/SyCrowBarter.sol\":6454:6494  IERC20(_depositedTokenAddress).balanceOf */\n      0xffffffffffffffffffffffffffffffffffffffff\n      and\n      0x70a08231\n        /* \"contracts/SyCrowBarter.sol\":6503:6507  this */\n      address\n        /* \"contracts/SyCrowBarter.sol\":6454:6509  IERC20(_depositedTokenAddress).balanceOf(address(this)) */\n      mload(0x40)\n      dup3\n      0xffffffff\n      and\n      0xe0\n      shl\n      dup2\n      mstore\n      0x04\n      add\n      tag_478\n      swap2\n      swap1\n      tag_79\n      jump\t// in\n    tag_478:\n      0x20\n      mload(0x40)\n      dup1\n      dup4\n      sub\n      dup2\n      dup7\n      gas\n      staticcall\n      iszero\n      dup1\n      iszero\n      tag_480\n      jumpi\n      returndatasize\n      0x00\n      dup1\n      returndatacopy\n      revert(0x00, returndatasize)\n    tag_480:\n      pop\n      pop\n      pop\n      pop\n      mload(0x40)\n      returndatasize\n      not(0x1f)\n      0x1f\n      dup3\n      add\n      and\n      dup3\n      add\n      dup1\n      0x40\n      mstore\n      pop\n      dup2\n      add\n      swap1\n      tag_481\n      swap2\n      swap1\n      tag_194\n      jump\t// in\n    tag_481:\n        /* \"contracts/SyCrowBarter.sol\":6454:6538  IERC20(_depositedTokenAddress).balanceOf(address(this)) >=... */\n      lt\n      iszero\n        /* \"contracts/SyCrowBarter.sol\":6433:6607  require(... */\n      tag_482\n      jumpi\n      mload(0x40)\n      0x08c379a000000000000000000000000000000000000000000000000000000000\n      dup2\n      mstore\n      0x04\n      add\n      tag_483\n      swap1\n      tag_457\n      jump\t// in\n    tag_483:\n      mload(0x40)\n      dup1\n      swap2\n      sub\n      swap1\n      revert\n    tag_482:\n        /* \"contracts/SyCrowBarter.sol\":6618:6767  TransferHelper.safeTransferFrom(... */\n      tag_484\n        /* \"contracts/SyCrowBarter.sol\":6663:6684  _expectedTokenAddress */\n      0x04\n      0x00\n      swap1\n      sload\n      swap1\n      0x0100\n      exp\n      swap1\n      div\n      0xffffffffffffffffffffffffffffffffffffffff\n      and\n        /* \"contracts/SyCrowBarter.sol\":6698:6708  msg.sender */\n      caller\n        /* \"contracts/SyCrowBarter.sol\":6730:6734  this */\n      address\n        /* \"contracts/SyCrowBarter.sol\":6749:6757  inAmount */\n      dup6\n        /* \"contracts/SyCrowBarter.sol\":6618:6649  TransferHelper.safeTransferFrom */\n      tag_463\n        /* \"contracts/SyCrowBarter.sol\":6618:6767  TransferHelper.safeTransferFrom(... */\n      jump\t// in\n    tag_484:\n        /* \"contracts/SyCrowBarter.sol\":6777:6897  TransferHelper.safeTransfer(... */\n      tag_485\n        /* \"contracts/SyCrowBarter.sol\":6818:6840  _depositedTokenAddress */\n      0x03\n      0x01\n      swap1\n      sload\n      swap1\n      0x0100\n      exp\n      swap1\n      div\n      0xffffffffffffffffffffffffffffffffffffffff\n      and\n        /* \"contracts/SyCrowBarter.sol\":6854:6864  msg.sender */\n      caller\n        /* \"contracts/SyCrowBarter.sol\":6878:6887  outAmount */\n      dup4\n        /* \"contracts/SyCrowBarter.sol\":6777:6804  TransferHelper.safeTransfer */\n      tag_208\n        /* \"contracts/SyCrowBarter.sol\":6777:6897  TransferHelper.safeTransfer(... */\n      jump\t// in\n    tag_485:\n        /* \"contracts/SyCrowBarter.sol\":6908:6915  _trades */\n      0x09\n        /* \"contracts/SyCrowBarter.sol\":6921:6964  BaterTrade(msg.sender, inAmount, outAmount) */\n      mload(0x40)\n      dup1\n      0x60\n      add\n      0x40\n      mstore\n      dup1\n        /* \"contracts/SyCrowBarter.sol\":6932:6942  msg.sender */\n      caller\n        /* \"contracts/SyCrowBarter.sol\":6921:6964  BaterTrade(msg.sender, inAmount, outAmount) */\n      0xffffffffffffffffffffffffffffffffffffffff\n      and\n      dup2\n      mstore\n      0x20\n      add\n        /* \"contracts/SyCrowBarter.sol\":6944:6952  inAmount */\n      dup5\n        /* \"contracts/SyCrowBarter.sol\":6921:6964  BaterTrade(msg.sender, inAmount, outAmount) */\n      dup2\n      mstore\n      0x20\n      add\n        /* \"contracts/SyCrowBarter.sol\":6954:6963  outAmount */\n      dup4\n        /* \"contracts/SyCrowBarter.sol\":6921:6964  BaterTrade(msg.sender, inAmount, outAmount) */\n      dup2\n      mstore\n      pop\n        /* \"contracts/SyCrowBarter.sol\":6908:6965  _trades.push(BaterTrade(msg.sender, inAmount, outAmount)) */\n      swap1\n      dup1\n      0x01\n      dup2\n      sload\n      add\n      dup1\n      dup3\n      sstore\n      dup1\n      swap2\n      pop\n      pop\n      0x01\n      swap1\n      sub\n      swap1\n      0x00\n      mstore\n      keccak256(0x00, 0x20)\n      swap1\n      0x03\n      mul\n      add\n      0x00\n      swap1\n      swap2\n      swap1\n      swap2\n      swap1\n      swap2\n      pop\n      0x00\n      dup3\n      add\n      mload\n      dup2\n      0x00\n      add\n      exp(0x0100, 0x00)\n      dup2\n      sload\n      dup2\n      0xffffffffffffffffffffffffffffffffffffffff\n      mul\n      not\n      and\n      swap1\n      dup4\n      0xffffffffffffffffffffffffffffffffffffffff\n      and\n      mul\n      or\n      swap1\n      sstore\n      pop\n      0x20\n      dup3\n      add\n      mload\n      dup2\n      0x01\n      add\n      sstore\n      0x40\n      dup3\n      add\n      mload\n      dup2\n      0x02\n      add\n      sstore\n      pop\n      pop\n        /* \"contracts/SyCrowBarter.sol\":6976:7008  ISyCrowBarterFactory sycrFactory */\n      0x00\n        /* \"contracts/SyCrowBarter.sol\":7032:7039  factory */\n      immutable(\"0x26a975632f70533c9512e57b565b8ce8e2befee6b08dfbc27c4a897a20e2c1d6\")\n        /* \"contracts/SyCrowBarter.sol\":6976:7040  ISyCrowBarterFactory sycrFactory = ISyCrowBarterFactory(factory) */\n      swap1\n      pop\n        /* \"contracts/SyCrowBarter.sol\":7050:7061  sycrFactory */\n      dup1\n        /* \"contracts/SyCrowBarter.sol\":7050:7081  sycrFactory.notifyTradeByBarter */\n      0xffffffffffffffffffffffffffffffffffffffff\n      and\n      0xf52701b7\n        /* \"contracts/SyCrowBarter.sol\":7103:7107  this */\n      address\n        /* \"contracts/SyCrowBarter.sol\":7122:7132  msg.sender */\n      caller\n        /* \"contracts/SyCrowBarter.sol\":7146:7154  inAmount */\n      dup7\n        /* \"contracts/SyCrowBarter.sol\":7168:7177  outAmount */\n      dup7\n        /* \"contracts/SyCrowBarter.sol\":7050:7187  sycrFactory.notifyTradeByBarter(... */\n      mload(0x40)\n      dup6\n      0xffffffff\n      and\n      0xe0\n      shl\n      dup2\n      mstore\n      0x04\n      add\n      tag_487\n      swap5\n      swap4\n      swap3\n      swap2\n      swap1\n      tag_228\n      jump\t// in\n    tag_487:\n      0x00\n      mload(0x40)\n      dup1\n      dup4\n      sub\n      dup2\n      0x00\n      dup8\n      dup1\n      extcodesize\n      iszero\n      dup1\n      iszero\n      tag_488\n      jumpi\n      0x00\n      dup1\n      revert\n    tag_488:\n      pop\n      gas\n      call\n      iszero\n      dup1\n      iszero\n      tag_490\n      jumpi\n      returndatasize\n      0x00\n      dup1\n      returndatacopy\n      revert(0x00, returndatasize)\n    tag_490:\n      pop\n      pop\n      pop\n      pop\n        /* \"contracts/SyCrowBarter.sol\":6209:7194  {... */\n      pop\n      pop\n        /* \"contracts/SyCrowBarter.sol\":6153:7194  function _tradeTokenForToken(uint256 inAmount) internal {... */\n      pop\n      jump\t// out\n        /* \"@openzeppelin/contracts/utils/Context.sol\":640:736  function _msgSender() internal view virtual returns (address) {... */\n    tag_184:\n        /* \"@openzeppelin/contracts/utils/Context.sol\":693:700  address */\n      0x00\n        /* \"@openzeppelin/contracts/utils/Context.sol\":719:729  msg.sender */\n      caller\n        /* \"@openzeppelin/contracts/utils/Context.sol\":712:729  return msg.sender */\n      swap1\n      pop\n        /* \"@openzeppelin/contracts/utils/Context.sol\":640:736  function _msgSender() internal view virtual returns (address) {... */\n      swap1\n      jump\t// out\n        /* \"contracts/libraries/TransferHelper.sol\":1333:1525  function safeTransferETH(address to, uint value) internal {... */\n    tag_201:\n        /* \"contracts/libraries/TransferHelper.sol\":1402:1414  bool success */\n      0x00\n        /* \"contracts/libraries/TransferHelper.sol\":1419:1421  to */\n      dup3\n        /* \"contracts/libraries/TransferHelper.sol\":1419:1426  to.call */\n      0xffffffffffffffffffffffffffffffffffffffff\n      and\n        /* \"contracts/libraries/TransferHelper.sol\":1433:1438  value */\n      dup3\n        /* \"contracts/libraries/TransferHelper.sol\":1450:1451  0 */\n      0x00\n        /* \"contracts/libraries/TransferHelper.sol\":1440:1452  new bytes(0) */\n      0xffffffffffffffff\n      dup2\n      gt\n      iszero\n      tag_493\n      jumpi\n      tag_494\n      tag_399\n      jump\t// in\n    tag_494:\n    tag_493:\n      mload(0x40)\n      swap1\n      dup1\n      dup3\n      mstore\n      dup1\n      0x1f\n      add\n      not(0x1f)\n      and\n      0x20\n      add\n      dup3\n      add\n      0x40\n      mstore\n      dup1\n      iszero\n      tag_495\n      jumpi\n      dup2\n      0x20\n      add\n      0x01\n      dup3\n      mul\n      dup1\n      calldatasize\n      dup4\n      calldatacopy\n      dup1\n      dup3\n      add\n      swap2\n      pop\n      pop\n      swap1\n      pop\n    tag_495:\n      pop\n        /* \"contracts/libraries/TransferHelper.sol\":1419:1453  to.call{value:value}(new bytes(0)) */\n      mload(0x40)\n      tag_496\n      swap2\n      swap1\n      tag_497\n      jump\t// in\n    tag_496:\n      0x00\n      mload(0x40)\n      dup1\n      dup4\n      sub\n      dup2\n      dup6\n      dup8\n      gas\n      call\n      swap3\n      pop\n      pop\n      pop\n      returndatasize\n      dup1\n      0x00\n      dup2\n      eq\n      tag_500\n      jumpi\n      mload(0x40)\n      swap2\n      pop\n      and(add(returndatasize, 0x3f), not(0x1f))\n      dup3\n      add\n      0x40\n      mstore\n      returndatasize\n      dup3\n      mstore\n      returndatasize\n      0x00\n      0x20\n      dup5\n      add\n      returndatacopy\n      jump(tag_499)\n    tag_500:\n      0x60\n      swap2\n      pop\n    tag_499:\n      pop\n        /* \"contracts/libraries/TransferHelper.sol\":1401:1453  (bool success,) = to.call{value:value}(new bytes(0)) */\n      pop\n      swap1\n      pop\n        /* \"contracts/libraries/TransferHelper.sol\":1471:1478  success */\n      dup1\n        /* \"contracts/libraries/TransferHelper.sol\":1463:1518  require(success, 'TransferHelper: ETH_TRANSFER_FAILED') */\n      tag_501\n      jumpi\n      mload(0x40)\n      0x08c379a000000000000000000000000000000000000000000000000000000000\n      dup2\n      mstore\n      0x04\n      add\n      tag_502\n      swap1\n      tag_503\n      jump\t// in\n    tag_502:\n      mload(0x40)\n      dup1\n      swap2\n      sub\n      swap1\n      revert\n    tag_501:\n        /* \"contracts/libraries/TransferHelper.sol\":1391:1525  {... */\n      pop\n        /* \"contracts/libraries/TransferHelper.sol\":1333:1525  function safeTransferETH(address to, uint value) internal {... */\n      pop\n      pop\n      jump\t// out\n        /* \"contracts/libraries/TransferHelper.sol\":566:923  function safeTransfer(address token, address to, uint value) internal {... */\n    tag_208:\n        /* \"contracts/libraries/TransferHelper.sol\":713:725  bool success */\n      0x00\n        /* \"contracts/libraries/TransferHelper.sol\":727:744  bytes memory data */\n      dup1\n        /* \"contracts/libraries/TransferHelper.sol\":748:753  token */\n      dup5\n        /* \"contracts/libraries/TransferHelper.sol\":748:758  token.call */\n      0xffffffffffffffffffffffffffffffffffffffff\n      and\n        /* \"contracts/libraries/TransferHelper.sol\":782:792  0xa9059cbb */\n      0xa9059cbb\n        /* \"contracts/libraries/TransferHelper.sol\":794:796  to */\n      dup6\n        /* \"contracts/libraries/TransferHelper.sol\":798:803  value */\n      dup6\n        /* \"contracts/libraries/TransferHelper.sol\":759:804  abi.encodeWithSelector(0xa9059cbb, to, value) */\n      add(0x24, mload(0x40))\n      tag_505\n      swap3\n      swap2\n      swap1\n      tag_506\n      jump\t// in\n    tag_505:\n      mload(0x40)\n      0x20\n      dup2\n      dup4\n      sub\n      sub\n      dup2\n      mstore\n      swap1\n      0x40\n      mstore\n      swap1\n      0xe0\n      shl\n      0x20\n      dup3\n      add\n      dup1\n      mload\n      0xffffffffffffffffffffffffffffffffffffffffffffffffffffffff\n      dup4\n      dup2\n      dup4\n      and\n      or\n      dup4\n      mstore\n      pop\n      pop\n      pop\n      pop\n        /* \"contracts/libraries/TransferHelper.sol\":748:805  token.call(abi.encodeWithSelector(0xa9059cbb, to, value)) */\n      mload(0x40)\n      tag_507\n      swap2\n      swap1\n      tag_497\n      jump\t// in\n    tag_507:\n      0x00\n      mload(0x40)\n      dup1\n      dup4\n      sub\n      dup2\n      0x00\n      dup7\n      gas\n      call\n      swap2\n      pop\n      pop\n      returndatasize\n      dup1\n      0x00\n      dup2\n      eq\n      tag_510\n      jumpi\n      mload(0x40)\n      swap2\n      pop\n      and(add(returndatasize, 0x3f), not(0x1f))\n      dup3\n      add\n      0x40\n      mstore\n      returndatasize\n      dup3\n      mstore\n      returndatasize\n      0x00\n      0x20\n      dup5\n      add\n      returndatacopy\n      jump(tag_509)\n    tag_510:\n      0x60\n      swap2\n      pop\n    tag_509:\n      pop\n        /* \"contracts/libraries/TransferHelper.sol\":712:805  (bool success, bytes memory data) = token.call(abi.encodeWithSelector(0xa9059cbb, to, value)) */\n      swap2\n      pop\n      swap2\n      pop\n        /* \"contracts/libraries/TransferHelper.sol\":823:830  success */\n      dup2\n        /* \"contracts/libraries/TransferHelper.sol\":823:880  success && (data.length == 0 || abi.decode(data, (bool))) */\n      dup1\n      iszero\n      tag_511\n      jumpi\n      pop\n        /* \"contracts/libraries/TransferHelper.sol\":850:851  0 */\n      0x00\n        /* \"contracts/libraries/TransferHelper.sol\":835:839  data */\n      dup2\n        /* \"contracts/libraries/TransferHelper.sol\":835:846  data.length */\n      mload\n        /* \"contracts/libraries/TransferHelper.sol\":835:851  data.length == 0 */\n      eq\n        /* \"contracts/libraries/TransferHelper.sol\":835:879  data.length == 0 || abi.decode(data, (bool)) */\n      dup1\n      tag_512\n      jumpi\n      pop\n        /* \"contracts/libraries/TransferHelper.sol\":866:870  data */\n      dup1\n        /* \"contracts/libraries/TransferHelper.sol\":855:879  abi.decode(data, (bool)) */\n      dup1\n      0x20\n      add\n      swap1\n      mload\n      dup2\n      add\n      swap1\n      tag_513\n      swap2\n      swap1\n      tag_128\n      jump\t// in\n    tag_513:\n        /* \"contracts/libraries/TransferHelper.sol\":835:879  data.length == 0 || abi.decode(data, (bool)) */\n    tag_512:\n        /* \"contracts/libraries/TransferHelper.sol\":823:880  success && (data.length == 0 || abi.decode(data, (bool))) */\n    tag_511:\n        /* \"contracts/libraries/TransferHelper.sol\":815:916  require(success && (data.length == 0 || abi.decode(data, (bool))), 'TransferHelper: TRANSFER_FAILED') */\n      tag_514\n      jumpi\n      mload(0x40)\n      0x08c379a000000000000000000000000000000000000000000000000000000000\n      dup2\n      mstore\n      0x04\n      add\n      tag_515\n      swap1\n      tag_516\n      jump\t// in\n    tag_515:\n      mload(0x40)\n      dup1\n      swap2\n      sub\n      swap1\n      revert\n    tag_514:\n        /* \"contracts/libraries/TransferHelper.sol\":636:923  {... */\n      pop\n      pop\n        /* \"contracts/libraries/TransferHelper.sol\":566:923  function safeTransfer(address token, address to, uint value) internal {... */\n      pop\n      pop\n      pop\n      jump\t// out\n        /* \"contracts/SyCrowBarter.sol\":8215:9071  function _tradeEthForToken(uint256 inAmount) internal {... */\n    tag_261:\n        /* \"contracts/SyCrowBarter.sol\":8299:8308  msg.value */\n      callvalue\n        /* \"contracts/SyCrowBarter.sol\":8287:8295  inAmount */\n      dup2\n        /* \"contracts/SyCrowBarter.sol\":8287:8308  inAmount == msg.value */\n      eq\n        /* \"contracts/SyCrowBarter.sol\":8279:8350  require(inAmount == msg.value, \"SyCrowBarter: MULTI_TRADE_NOT_ENABLED\") */\n      tag_518\n      jumpi\n      mload(0x40)\n      0x08c379a000000000000000000000000000000000000000000000000000000000\n      dup2\n      mstore\n      0x04\n      add\n      tag_519\n      swap1\n      tag_135\n      jump\t// in\n    tag_519:\n      mload(0x40)\n      dup1\n      swap2\n      sub\n      swap1\n      revert\n    tag_518:\n        /* \"contracts/SyCrowBarter.sol\":8361:8378  uint256 outAmount */\n      0x00\n        /* \"contracts/SyCrowBarter.sol\":8381:8409  _getTradeOutAmount(inAmount) */\n      tag_520\n        /* \"contracts/SyCrowBarter.sol\":8400:8408  inAmount */\n      dup3\n        /* \"contracts/SyCrowBarter.sol\":8381:8399  _getTradeOutAmount */\n      tag_392\n        /* \"contracts/SyCrowBarter.sol\":8381:8409  _getTradeOutAmount(inAmount) */\n      jump\t// in\n    tag_520:\n        /* \"contracts/SyCrowBarter.sol\":8361:8409  uint256 outAmount = _getTradeOutAmount(inAmount) */\n      swap1\n      pop\n        /* \"contracts/SyCrowBarter.sol\":8516:8525  outAmount */\n      dup1\n        /* \"contracts/SyCrowBarter.sol\":8448:8470  _depositedTokenAddress */\n      0x03\n      0x01\n      swap1\n      sload\n      swap1\n      0x0100\n      exp\n      swap1\n      div\n      0xffffffffffffffffffffffffffffffffffffffff\n      and\n        /* \"contracts/SyCrowBarter.sol\":8441:8481  IERC20(_depositedTokenAddress).balanceOf */\n      0xffffffffffffffffffffffffffffffffffffffff\n      and\n      0x70a08231\n        /* \"contracts/SyCrowBarter.sol\":8490:8494  this */\n      address\n        /* \"contracts/SyCrowBarter.sol\":8441:8496  IERC20(_depositedTokenAddress).balanceOf(address(this)) */\n      mload(0x40)\n      dup3\n      0xffffffff\n      and\n      0xe0\n      shl\n      dup2\n      mstore\n      0x04\n      add\n      tag_521\n      swap2\n      swap1\n      tag_79\n      jump\t// in\n    tag_521:\n      0x20\n      mload(0x40)\n      dup1\n      dup4\n      sub\n      dup2\n      dup7\n      gas\n      staticcall\n      iszero\n      dup1\n      iszero\n      tag_523\n      jumpi\n      returndatasize\n      0x00\n      dup1\n      returndatacopy\n      revert(0x00, returndatasize)\n    tag_523:\n      pop\n      pop\n      pop\n      pop\n      mload(0x40)\n      returndatasize\n      not(0x1f)\n      0x1f\n      dup3\n      add\n      and\n      dup3\n      add\n      dup1\n      0x40\n      mstore\n      pop\n      dup2\n      add\n      swap1\n      tag_524\n      swap2\n      swap1\n      tag_194\n      jump\t// in\n    tag_524:\n        /* \"contracts/SyCrowBarter.sol\":8441:8525  IERC20(_depositedTokenAddress).balanceOf(address(this)) >=... */\n      lt\n      iszero\n        /* \"contracts/SyCrowBarter.sol\":8420:8594  require(... */\n      tag_525\n      jumpi\n      mload(0x40)\n      0x08c379a000000000000000000000000000000000000000000000000000000000\n      dup2\n      mstore\n      0x04\n      add\n      tag_526\n      swap1\n      tag_457\n      jump\t// in\n    tag_526:\n      mload(0x40)\n      dup1\n      swap2\n      sub\n      swap1\n      revert\n    tag_525:\n        /* \"contracts/SyCrowBarter.sol\":8611:8615  WETH */\n      0x01\n      0x00\n      swap1\n      sload\n      swap1\n      0x0100\n      exp\n      swap1\n      div\n      0xffffffffffffffffffffffffffffffffffffffff\n      and\n        /* \"contracts/SyCrowBarter.sol\":8605:8624  IWETH(WETH).deposit */\n      0xffffffffffffffffffffffffffffffffffffffff\n      and\n      0xd0e30db0\n        /* \"contracts/SyCrowBarter.sol\":8632:8640  inAmount */\n      dup4\n        /* \"contracts/SyCrowBarter.sol\":8605:8643  IWETH(WETH).deposit{value: inAmount}() */\n      mload(0x40)\n      dup3\n      0xffffffff\n      and\n      0xe0\n      shl\n      dup2\n      mstore\n      0x04\n      add\n      0x00\n      mload(0x40)\n      dup1\n      dup4\n      sub\n      dup2\n      dup6\n      dup9\n      dup1\n      extcodesize\n      iszero\n      dup1\n      iszero\n      tag_527\n      jumpi\n      0x00\n      dup1\n      revert\n    tag_527:\n      pop\n      gas\n      call\n      iszero\n      dup1\n      iszero\n      tag_529\n      jumpi\n      returndatasize\n      0x00\n      dup1\n      returndatacopy\n      revert(0x00, returndatasize)\n    tag_529:\n      pop\n      pop\n      pop\n      pop\n      pop\n        /* \"contracts/SyCrowBarter.sol\":8654:8774  TransferHelper.safeTransfer(... */\n      tag_530\n        /* \"contracts/SyCrowBarter.sol\":8695:8717  _depositedTokenAddress */\n      0x03\n      0x01\n      swap1\n      sload\n      swap1\n      0x0100\n      exp\n      swap1\n      div\n      0xffffffffffffffffffffffffffffffffffffffff\n      and\n        /* \"contracts/SyCrowBarter.sol\":8731:8741  msg.sender */\n      caller\n        /* \"contracts/SyCrowBarter.sol\":8755:8764  outAmount */\n      dup4\n        /* \"contracts/SyCrowBarter.sol\":8654:8681  TransferHelper.safeTransfer */\n      tag_208\n        /* \"contracts/SyCrowBarter.sol\":8654:8774  TransferHelper.safeTransfer(... */\n      jump\t// in\n    tag_530:\n        /* \"contracts/SyCrowBarter.sol\":8785:8792  _trades */\n      0x09\n        /* \"contracts/SyCrowBarter.sol\":8798:8841  BaterTrade(msg.sender, inAmount, outAmount) */\n      mload(0x40)\n      dup1\n      0x60\n      add\n      0x40\n      mstore\n      dup1\n        /* \"contracts/SyCrowBarter.sol\":8809:8819  msg.sender */\n      caller\n        /* \"contracts/SyCrowBarter.sol\":8798:8841  BaterTrade(msg.sender, inAmount, outAmount) */\n      0xffffffffffffffffffffffffffffffffffffffff\n      and\n      dup2\n      mstore\n      0x20\n      add\n        /* \"contracts/SyCrowBarter.sol\":8821:8829  inAmount */\n      dup5\n        /* \"contracts/SyCrowBarter.sol\":8798:8841  BaterTrade(msg.sender, inAmount, outAmount) */\n      dup2\n      mstore\n      0x20\n      add\n        /* \"contracts/SyCrowBarter.sol\":8831:8840  outAmount */\n      dup4\n        /* \"contracts/SyCrowBarter.sol\":8798:8841  BaterTrade(msg.sender, inAmount, outAmount) */\n      dup2\n      mstore\n      pop\n        /* \"contracts/SyCrowBarter.sol\":8785:8842  _trades.push(BaterTrade(msg.sender, inAmount, outAmount)) */\n      swap1\n      dup1\n      0x01\n      dup2\n      sload\n      add\n      dup1\n      dup3\n      sstore\n      dup1\n      swap2\n      pop\n      pop\n      0x01\n      swap1\n      sub\n      swap1\n      0x00\n      mstore\n      keccak256(0x00, 0x20)\n      swap1\n      0x03\n      mul\n      add\n      0x00\n      swap1\n      swap2\n      swap1\n      swap2\n      swap1\n      swap2\n      pop\n      0x00\n      dup3\n      add\n      mload\n      dup2\n      0x00\n      add\n      exp(0x0100, 0x00)\n      dup2\n      sload\n      dup2\n      0xffffffffffffffffffffffffffffffffffffffff\n      mul\n      not\n      and\n      swap1\n      dup4\n      0xffffffffffffffffffffffffffffffffffffffff\n      and\n      mul\n      or\n      swap1\n      sstore\n      pop\n      0x20\n      dup3\n      add\n      mload\n      dup2\n      0x01\n      add\n      sstore\n      0x40\n      dup3\n      add\n      mload\n      dup2\n      0x02\n      add\n      sstore\n      pop\n      pop\n        /* \"contracts/SyCrowBarter.sol\":8853:8885  ISyCrowBarterFactory sycrFactory */\n      0x00\n        /* \"contracts/SyCrowBarter.sol\":8909:8916  factory */\n      immutable(\"0x26a975632f70533c9512e57b565b8ce8e2befee6b08dfbc27c4a897a20e2c1d6\")\n        /* \"contracts/SyCrowBarter.sol\":8853:8917  ISyCrowBarterFactory sycrFactory = ISyCrowBarterFactory(factory) */\n      swap1\n      pop\n        /* \"contracts/SyCrowBarter.sol\":8927:8938  sycrFactory */\n      dup1\n        /* \"contracts/SyCrowBarter.sol\":8927:8958  sycrFactory.notifyTradeByBarter */\n      0xffffffffffffffffffffffffffffffffffffffff\n      and\n      0xf52701b7\n        /* \"contracts/SyCrowBarter.sol\":8980:8984  this */\n      address\n        /* \"contracts/SyCrowBarter.sol\":8999:9009  msg.sender */\n      caller\n        /* \"contracts/SyCrowBarter.sol\":9023:9031  inAmount */\n      dup7\n        /* \"contracts/SyCrowBarter.sol\":9045:9054  outAmount */\n      dup7\n        /* \"contracts/SyCrowBarter.sol\":8927:9064  sycrFactory.notifyTradeByBarter(... */\n      mload(0x40)\n      dup6\n      0xffffffff\n      and\n      0xe0\n      shl\n      dup2\n      mstore\n      0x04\n      add\n      tag_532\n      swap5\n      swap4\n      swap3\n      swap2\n      swap1\n      tag_228\n      jump\t// in\n    tag_532:\n      0x00\n      mload(0x40)\n      dup1\n      dup4\n      sub\n      dup2\n      0x00\n      dup8\n      dup1\n      extcodesize\n      iszero\n      dup1\n      iszero\n      tag_533\n      jumpi\n      0x00\n      dup1\n      revert\n    tag_533:\n      pop\n      gas\n      call\n      iszero\n      dup1\n      iszero\n      tag_535\n      jumpi\n      returndatasize\n      0x00\n      dup1\n      returndatacopy\n      revert(0x00, returndatasize)\n    tag_535:\n      pop\n      pop\n      pop\n      pop\n        /* \"contracts/SyCrowBarter.sol\":8269:9071  {... */\n      pop\n      pop\n        /* \"contracts/SyCrowBarter.sol\":8215:9071  function _tradeEthForToken(uint256 inAmount) internal {... */\n      pop\n      jump\t// out\n        /* \"@openzeppelin/contracts/access/Ownable.sol\":2270:2457  function _transferOwnership(address newOwner) internal virtual {... */\n    tag_315:\n        /* \"@openzeppelin/contracts/access/Ownable.sol\":2343:2359  address oldOwner */\n      0x00\n        /* \"@openzeppelin/contracts/access/Ownable.sol\":2362:2368  _owner */\n      dup1\n      0x00\n      swap1\n      sload\n      swap1\n      0x0100\n      exp\n      swap1\n      div\n      0xffffffffffffffffffffffffffffffffffffffff\n      and\n        /* \"@openzeppelin/contracts/access/Ownable.sol\":2343:2368  address oldOwner = _owner */\n      swap1\n      pop\n        /* \"@openzeppelin/contracts/access/Ownable.sol\":2387:2395  newOwner */\n      dup2\n        /* \"@openzeppelin/contracts/access/Ownable.sol\":2378:2384  _owner */\n      0x00\n      dup1\n        /* \"@openzeppelin/contracts/access/Ownable.sol\":2378:2395  _owner = newOwner */\n      0x0100\n      exp\n      dup2\n      sload\n      dup2\n      0xffffffffffffffffffffffffffffffffffffffff\n      mul\n      not\n      and\n      swap1\n      dup4\n      0xffffffffffffffffffffffffffffffffffffffff\n      and\n      mul\n      or\n      swap1\n      sstore\n      pop\n        /* \"@openzeppelin/contracts/access/Ownable.sol\":2441:2449  newOwner */\n      dup2\n        /* \"@openzeppelin/contracts/access/Ownable.sol\":2410:2450  OwnershipTransferred(oldOwner, newOwner) */\n      0xffffffffffffffffffffffffffffffffffffffff\n      and\n        /* \"@openzeppelin/contracts/access/Ownable.sol\":2431:2439  oldOwner */\n      dup2\n        /* \"@openzeppelin/contracts/access/Ownable.sol\":2410:2450  OwnershipTransferred(oldOwner, newOwner) */\n      0xffffffffffffffffffffffffffffffffffffffff\n      and\n      0x8be0079c531659141344cd1fd0a4f28419497f9722a3daafe3b4186f6b6457e0\n      mload(0x40)\n      mload(0x40)\n      dup1\n      swap2\n      sub\n      swap1\n      log3\n        /* \"@openzeppelin/contracts/access/Ownable.sol\":2333:2457  {... */\n      pop\n        /* \"@openzeppelin/contracts/access/Ownable.sol\":2270:2457  function _transferOwnership(address newOwner) internal virtual {... */\n      pop\n      jump\t// out\n        /* \"contracts/SyCrowBarter.sol\":11664:11837  function _getTradeOutAmount(uint256 amount)... */\n    tag_392:\n        /* \"contracts/SyCrowBarter.sol\":11755:11762  uint256 */\n      0x00\n        /* \"contracts/SyCrowBarter.sol\":11815:11830  _expectedAmount */\n      sload(0x06)\n        /* \"contracts/SyCrowBarter.sol\":11795:11811  _depositedAmount */\n      sload(0x05)\n        /* \"contracts/SyCrowBarter.sol\":11786:11792  amount */\n      dup4\n        /* \"contracts/SyCrowBarter.sol\":11786:11811  amount * _depositedAmount */\n      tag_538\n      swap2\n      swap1\n      tag_539\n      jump\t// in\n    tag_538:\n        /* \"contracts/SyCrowBarter.sol\":11785:11830  (amount * _depositedAmount) / _expectedAmount */\n      tag_540\n      swap2\n      swap1\n      tag_541\n      jump\t// in\n    tag_540:\n        /* \"contracts/SyCrowBarter.sol\":11778:11830  return (amount * _depositedAmount) / _expectedAmount */\n      swap1\n      pop\n        /* \"contracts/SyCrowBarter.sol\":11664:11837  function _getTradeOutAmount(uint256 amount)... */\n      swap2\n      swap1\n      pop\n      jump\t// out\n        /* \"contracts/libraries/TransferHelper.sol\":929:1327  function safeTransferFrom(address token, address from, address to, uint value) internal {... */\n    tag_463:\n        /* \"contracts/libraries/TransferHelper.sol\":1106:1118  bool success */\n      0x00\n        /* \"contracts/libraries/TransferHelper.sol\":1120:1137  bytes memory data */\n      dup1\n        /* \"contracts/libraries/TransferHelper.sol\":1141:1146  token */\n      dup6\n        /* \"contracts/libraries/TransferHelper.sol\":1141:1151  token.call */\n      0xffffffffffffffffffffffffffffffffffffffff\n      and\n        /* \"contracts/libraries/TransferHelper.sol\":1175:1185  0x23b872dd */\n      0x23b872dd\n        /* \"contracts/libraries/TransferHelper.sol\":1187:1191  from */\n      dup7\n        /* \"contracts/libraries/TransferHelper.sol\":1193:1195  to */\n      dup7\n        /* \"contracts/libraries/TransferHelper.sol\":1197:1202  value */\n      dup7\n        /* \"contracts/libraries/TransferHelper.sol\":1152:1203  abi.encodeWithSelector(0x23b872dd, from, to, value) */\n      add(0x24, mload(0x40))\n      tag_543\n      swap4\n      swap3\n      swap2\n      swap1\n      tag_544\n      jump\t// in\n    tag_543:\n      mload(0x40)\n      0x20\n      dup2\n      dup4\n      sub\n      sub\n      dup2\n      mstore\n      swap1\n      0x40\n      mstore\n      swap1\n      0xe0\n      shl\n      0x20\n      dup3\n      add\n      dup1\n      mload\n      0xffffffffffffffffffffffffffffffffffffffffffffffffffffffff\n      dup4\n      dup2\n      dup4\n      and\n      or\n      dup4\n      mstore\n      pop\n      pop\n      pop\n      pop\n        /* \"contracts/libraries/TransferHelper.sol\":1141:1204  token.call(abi.encodeWithSelector(0x23b872dd, from, to, value)) */\n      mload(0x40)\n      tag_545\n      swap2\n      swap1\n      tag_497\n      jump\t// in\n    tag_545:\n      0x00\n      mload(0x40)\n      dup1\n      dup4\n      sub\n      dup2\n      0x00\n      dup7\n      gas\n      call\n      swap2\n      pop\n      pop\n      returndatasize\n      dup1\n      0x00\n      dup2\n      eq\n      tag_548\n      jumpi\n      mload(0x40)\n      swap2\n      pop\n      and(add(returndatasize, 0x3f), not(0x1f))\n      dup3\n      add\n      0x40\n      mstore\n      returndatasize\n      dup3\n      mstore\n      returndatasize\n      0x00\n      0x20\n      dup5\n      add\n      returndatacopy\n      jump(tag_547)\n    tag_548:\n      0x60\n      swap2\n      pop\n    tag_547:\n      pop\n        /* \"contracts/libraries/TransferHelper.sol\":1105:1204  (bool success, bytes memory data) = token.call(abi.encodeWithSelector(0x23b872dd, from, to, value)) */\n      swap2\n      pop\n      swap2\n      pop\n        /* \"contracts/libraries/TransferHelper.sol\":1222:1229  success */\n      dup2\n        /* \"contracts/libraries/TransferHelper.sol\":1222:1279  success && (data.length == 0 || abi.decode(data, (bool))) */\n      dup1\n      iszero\n      tag_549\n      jumpi\n      pop\n        /* \"contracts/libraries/TransferHelper.sol\":1249:1250  0 */\n      0x00\n        /* \"contracts/libraries/TransferHelper.sol\":1234:1238  data */\n      dup2\n        /* \"contracts/libraries/TransferHelper.sol\":1234:1245  data.length */\n      mload\n        /* \"contracts/libraries/TransferHelper.sol\":1234:1250  data.length == 0 */\n      eq\n        /* \"contracts/libraries/TransferHelper.sol\":1234:1278  data.length == 0 || abi.decode(data, (bool)) */\n      dup1\n      tag_550\n      jumpi\n      pop\n        /* \"contracts/libraries/TransferHelper.sol\":1265:1269  data */\n      dup1\n        /* \"contracts/libraries/TransferHelper.sol\":1254:1278  abi.decode(data, (bool)) */\n      dup1\n      0x20\n      add\n      swap1\n      mload\n      dup2\n      add\n      swap1\n      tag_551\n      swap2\n      swap1\n      tag_128\n      jump\t// in\n    tag_551:\n        /* \"contracts/libraries/TransferHelper.sol\":1234:1278  data.length == 0 || abi.decode(data, (bool)) */\n    tag_550:\n        /* \"contracts/libraries/TransferHelper.sol\":1222:1279  success && (data.length == 0 || abi.decode(data, (bool))) */\n    tag_549:\n        /* \"contracts/libraries/TransferHelper.sol\":1214:1320  require(success && (data.length == 0 || abi.decode(data, (bool))), 'TransferHelper: TRANSFER_FROM_FAILED') */\n      tag_552\n      jumpi\n      mload(0x40)\n      0x08c379a000000000000000000000000000000000000000000000000000000000\n      dup2\n      mstore\n      0x04\n      add\n      tag_553\n      swap1\n      tag_554\n      jump\t// in\n    tag_553:\n      mload(0x40)\n      dup1\n      swap2\n      sub\n      swap1\n      revert\n    tag_552:\n        /* \"contracts/libraries/TransferHelper.sol\":1017:1327  {... */\n      pop\n      pop\n        /* \"contracts/libraries/TransferHelper.sol\":929:1327  function safeTransferFrom(address token, address from, address to, uint value) internal {... */\n      pop\n      pop\n      pop\n      pop\n      jump\t// out\n        /* \"#utility.yul\":88:205   */\n    tag_556:\n        /* \"#utility.yul\":197:198   */\n      0x00\n        /* \"#utility.yul\":194:195   */\n      dup1\n        /* \"#utility.yul\":187:199   */\n      revert\n        /* \"#utility.yul\":334:411   */\n    tag_558:\n        /* \"#utility.yul\":371:378   */\n      0x00\n        /* \"#utility.yul\":400:405   */\n      dup2\n        /* \"#utility.yul\":389:405   */\n      swap1\n      pop\n        /* \"#utility.yul\":334:411   */\n      swap2\n      swap1\n      pop\n      jump\t// out\n        /* \"#utility.yul\":417:539   */\n    tag_559:\n        /* \"#utility.yul\":490:514   */\n      tag_640\n        /* \"#utility.yul\":508:513   */\n      dup2\n        /* \"#utility.yul\":490:514   */\n      tag_558\n      jump\t// in\n    tag_640:\n        /* \"#utility.yul\":483:488   */\n      dup2\n        /* \"#utility.yul\":480:515   */\n      eq\n        /* \"#utility.yul\":470:533   */\n      tag_641\n      jumpi\n        /* \"#utility.yul\":529:530   */\n      0x00\n        /* \"#utility.yul\":526:527   */\n      dup1\n        /* \"#utility.yul\":519:531   */\n      revert\n        /* \"#utility.yul\":470:533   */\n    tag_641:\n        /* \"#utility.yul\":417:539   */\n      pop\n      jump\t// out\n        /* \"#utility.yul\":545:684   */\n    tag_560:\n        /* \"#utility.yul\":591:596   */\n      0x00\n        /* \"#utility.yul\":629:635   */\n      dup2\n        /* \"#utility.yul\":616:636   */\n      calldataload\n        /* \"#utility.yul\":607:636   */\n      swap1\n      pop\n        /* \"#utility.yul\":645:678   */\n      tag_643\n        /* \"#utility.yul\":672:677   */\n      dup2\n        /* \"#utility.yul\":645:678   */\n      tag_559\n      jump\t// in\n    tag_643:\n        /* \"#utility.yul\":545:684   */\n      swap3\n      swap2\n      pop\n      pop\n      jump\t// out\n        /* \"#utility.yul\":690:1019   */\n    tag_29:\n        /* \"#utility.yul\":749:755   */\n      0x00\n        /* \"#utility.yul\":798:800   */\n      0x20\n        /* \"#utility.yul\":786:795   */\n      dup3\n        /* \"#utility.yul\":777:784   */\n      dup5\n        /* \"#utility.yul\":773:796   */\n      sub\n        /* \"#utility.yul\":769:801   */\n      slt\n        /* \"#utility.yul\":766:885   */\n      iszero\n      tag_645\n      jumpi\n        /* \"#utility.yul\":804:883   */\n      tag_646\n      tag_556\n      jump\t// in\n    tag_646:\n        /* \"#utility.yul\":766:885   */\n    tag_645:\n        /* \"#utility.yul\":924:925   */\n      0x00\n        /* \"#utility.yul\":949:1002   */\n      tag_647\n        /* \"#utility.yul\":994:1001   */\n      dup5\n        /* \"#utility.yul\":985:991   */\n      dup3\n        /* \"#utility.yul\":974:983   */\n      dup6\n        /* \"#utility.yul\":970:992   */\n      add\n        /* \"#utility.yul\":949:1002   */\n      tag_560\n      jump\t// in\n    tag_647:\n        /* \"#utility.yul\":939:1002   */\n      swap2\n      pop\n        /* \"#utility.yul\":895:1012   */\n      pop\n        /* \"#utility.yul\":690:1019   */\n      swap3\n      swap2\n      pop\n      pop\n      jump\t// out\n        /* \"#utility.yul\":1025:1115   */\n    tag_561:\n        /* \"#utility.yul\":1059:1066   */\n      0x00\n        /* \"#utility.yul\":1102:1107   */\n      dup2\n        /* \"#utility.yul\":1095:1108   */\n      iszero\n        /* \"#utility.yul\":1088:1109   */\n      iszero\n        /* \"#utility.yul\":1077:1109   */\n      swap1\n      pop\n        /* \"#utility.yul\":1025:1115   */\n      swap2\n      swap1\n      pop\n      jump\t// out\n        /* \"#utility.yul\":1121:1230   */\n    tag_562:\n        /* \"#utility.yul\":1202:1223   */\n      tag_650\n        /* \"#utility.yul\":1217:1222   */\n      dup2\n        /* \"#utility.yul\":1202:1223   */\n      tag_561\n      jump\t// in\n    tag_650:\n        /* \"#utility.yul\":1197:1200   */\n      dup3\n        /* \"#utility.yul\":1190:1224   */\n      mstore\n        /* \"#utility.yul\":1121:1230   */\n      pop\n      pop\n      jump\t// out\n        /* \"#utility.yul\":1236:1446   */\n    tag_39:\n        /* \"#utility.yul\":1323:1327   */\n      0x00\n        /* \"#utility.yul\":1361:1363   */\n      0x20\n        /* \"#utility.yul\":1350:1359   */\n      dup3\n        /* \"#utility.yul\":1346:1364   */\n      add\n        /* \"#utility.yul\":1338:1364   */\n      swap1\n      pop\n        /* \"#utility.yul\":1374:1439   */\n      tag_652\n        /* \"#utility.yul\":1436:1437   */\n      0x00\n        /* \"#utility.yul\":1425:1434   */\n      dup4\n        /* \"#utility.yul\":1421:1438   */\n      add\n        /* \"#utility.yul\":1412:1418   */\n      dup5\n        /* \"#utility.yul\":1374:1439   */\n      tag_562\n      jump\t// in\n    tag_652:\n        /* \"#utility.yul\":1236:1446   */\n      swap3\n      swap2\n      pop\n      pop\n      jump\t// out\n        /* \"#utility.yul\":1452:1570   */\n    tag_563:\n        /* \"#utility.yul\":1539:1563   */\n      tag_654\n        /* \"#utility.yul\":1557:1562   */\n      dup2\n        /* \"#utility.yul\":1539:1563   */\n      tag_558\n      jump\t// in\n    tag_654:\n        /* \"#utility.yul\":1534:1537   */\n      dup3\n        /* \"#utility.yul\":1527:1564   */\n      mstore\n        /* \"#utility.yul\":1452:1570   */\n      pop\n      pop\n      jump\t// out\n        /* \"#utility.yul\":1576:1908   */\n    tag_47:\n        /* \"#utility.yul\":1697:1701   */\n      0x00\n        /* \"#utility.yul\":1735:1737   */\n      0x40\n        /* \"#utility.yul\":1724:1733   */\n      dup3\n        /* \"#utility.yul\":1720:1738   */\n      add\n        /* \"#utility.yul\":1712:1738   */\n      swap1\n      pop\n        /* \"#utility.yul\":1748:1819   */\n      tag_656\n        /* \"#utility.yul\":1816:1817   */\n      0x00\n        /* \"#utility.yul\":1805:1814   */\n      dup4\n        /* \"#utility.yul\":1801:1818   */\n      add\n        /* \"#utility.yul\":1792:1798   */\n      dup6\n        /* \"#utility.yul\":1748:1819   */\n      tag_563\n      jump\t// in\n    tag_656:\n        /* \"#utility.yul\":1829:1901   */\n      tag_657\n        /* \"#utility.yul\":1897:1899   */\n      0x20\n        /* \"#utility.yul\":1886:1895   */\n      dup4\n        /* \"#utility.yul\":1882:1900   */\n      add\n        /* \"#utility.yul\":1873:1879   */\n      dup5\n        /* \"#utility.yul\":1829:1901   */\n      tag_563\n      jump\t// in\n    tag_657:\n        /* \"#utility.yul\":1576:1908   */\n      swap4\n      swap3\n      pop\n      pop\n      pop\n      jump\t// out\n        /* \"#utility.yul\":1914:2094   */\n    tag_139:\n        /* \"#utility.yul\":1962:2039   */\n      0x4e487b7100000000000000000000000000000000000000000000000000000000\n        /* \"#utility.yul\":1959:1960   */\n      0x00\n        /* \"#utility.yul\":1952:2040   */\n      mstore\n        /* \"#utility.yul\":2059:2063   */\n      0x21\n        /* \"#utility.yul\":2056:2057   */\n      0x04\n        /* \"#utility.yul\":2049:2064   */\n      mstore\n        /* \"#utility.yul\":2083:2087   */\n      0x24\n        /* \"#utility.yul\":2080:2081   */\n      0x00\n        /* \"#utility.yul\":2073:2088   */\n      revert\n        /* \"#utility.yul\":2100:2227   */\n    tag_564:\n        /* \"#utility.yul\":2195:2196   */\n      0x03\n        /* \"#utility.yul\":2188:2193   */\n      dup2\n        /* \"#utility.yul\":2185:2197   */\n      lt\n        /* \"#utility.yul\":2175:2221   */\n      tag_660\n      jumpi\n        /* \"#utility.yul\":2201:2219   */\n      tag_661\n      tag_139\n      jump\t// in\n    tag_661:\n        /* \"#utility.yul\":2175:2221   */\n    tag_660:\n        /* \"#utility.yul\":2100:2227   */\n      pop\n      jump\t// out\n        /* \"#utility.yul\":2233:2388   */\n    tag_565:\n        /* \"#utility.yul\":2292:2299   */\n      0x00\n        /* \"#utility.yul\":2321:2326   */\n      dup2\n        /* \"#utility.yul\":2310:2326   */\n      swap1\n      pop\n        /* \"#utility.yul\":2327:2382   */\n      tag_663\n        /* \"#utility.yul\":2376:2381   */\n      dup3\n        /* \"#utility.yul\":2327:2382   */\n      tag_564\n      jump\t// in\n    tag_663:\n        /* \"#utility.yul\":2233:2388   */\n      swap2\n      swap1\n      pop\n      jump\t// out\n        /* \"#utility.yul\":2394:2549   */\n    tag_566:\n        /* \"#utility.yul\":2464:2473   */\n      0x00\n        /* \"#utility.yul\":2497:2543   */\n      tag_665\n        /* \"#utility.yul\":2537:2542   */\n      dup3\n        /* \"#utility.yul\":2497:2543   */\n      tag_565\n      jump\t// in\n    tag_665:\n        /* \"#utility.yul\":2484:2543   */\n      swap1\n      pop\n        /* \"#utility.yul\":2394:2549   */\n      swap2\n      swap1\n      pop\n      jump\t// out\n        /* \"#utility.yul\":2555:2726   */\n    tag_567:\n        /* \"#utility.yul\":2662:2719   */\n      tag_667\n        /* \"#utility.yul\":2713:2718   */\n      dup2\n        /* \"#utility.yul\":2662:2719   */\n      tag_566\n      jump\t// in\n    tag_667:\n        /* \"#utility.yul\":2657:2660   */\n      dup3\n        /* \"#utility.yul\":2650:2720   */\n      mstore\n        /* \"#utility.yul\":2555:2726   */\n      pop\n      pop\n      jump\t// out\n        /* \"#utility.yul\":2732:2994   */\n    tag_55:\n        /* \"#utility.yul\":2845:2849   */\n      0x00\n        /* \"#utility.yul\":2883:2885   */\n      0x20\n        /* \"#utility.yul\":2872:2881   */\n      dup3\n        /* \"#utility.yul\":2868:2886   */\n      add\n        /* \"#utility.yul\":2860:2886   */\n      swap1\n      pop\n        /* \"#utility.yul\":2896:2987   */\n      tag_669\n        /* \"#utility.yul\":2984:2985   */\n      0x00\n        /* \"#utility.yul\":2973:2982   */\n      dup4\n        /* \"#utility.yul\":2969:2986   */\n      add\n        /* \"#utility.yul\":2960:2966   */\n      dup5\n        /* \"#utility.yul\":2896:2987   */\n      tag_567\n      jump\t// in\n    tag_669:\n        /* \"#utility.yul\":2732:2994   */\n      swap3\n      swap2\n      pop\n      pop\n      jump\t// out\n        /* \"#utility.yul\":3000:3126   */\n    tag_568:\n        /* \"#utility.yul\":3037:3044   */\n      0x00\n        /* \"#utility.yul\":3077:3119   */\n      0xffffffffffffffffffffffffffffffffffffffff\n        /* \"#utility.yul\":3070:3075   */\n      dup3\n        /* \"#utility.yul\":3066:3120   */\n      and\n        /* \"#utility.yul\":3055:3120   */\n      swap1\n      pop\n        /* \"#utility.yul\":3000:3126   */\n      swap2\n      swap1\n      pop\n      jump\t// out\n        /* \"#utility.yul\":3132:3228   */\n    tag_569:\n        /* \"#utility.yul\":3169:3176   */\n      0x00\n        /* \"#utility.yul\":3198:3222   */\n      tag_672\n        /* \"#utility.yul\":3216:3221   */\n      dup3\n        /* \"#utility.yul\":3198:3222   */\n      tag_568\n      jump\t// in\n    tag_672:\n        /* \"#utility.yul\":3187:3222   */\n      swap1\n      pop\n        /* \"#utility.yul\":3132:3228   */\n      swap2\n      swap1\n      pop\n      jump\t// out\n        /* \"#utility.yul\":3234:3356   */\n    tag_570:\n        /* \"#utility.yul\":3307:3331   */\n      tag_674\n        /* \"#utility.yul\":3325:3330   */\n      dup2\n        /* \"#utility.yul\":3307:3331   */\n      tag_569\n      jump\t// in\n    tag_674:\n        /* \"#utility.yul\":3300:3305   */\n      dup2\n        /* \"#utility.yul\":3297:3332   */\n      eq\n        /* \"#utility.yul\":3287:3350   */\n      tag_675\n      jumpi\n        /* \"#utility.yul\":3346:3347   */\n      0x00\n        /* \"#utility.yul\":3343:3344   */\n      dup1\n        /* \"#utility.yul\":3336:3348   */\n      revert\n        /* \"#utility.yul\":3287:3350   */\n    tag_675:\n        /* \"#utility.yul\":3234:3356   */\n      pop\n      jump\t// out\n        /* \"#utility.yul\":3362:3501   */\n    tag_571:\n        /* \"#utility.yul\":3408:3413   */\n      0x00\n        /* \"#utility.yul\":3446:3452   */\n      dup2\n        /* \"#utility.yul\":3433:3453   */\n      calldataload\n        /* \"#utility.yul\":3424:3453   */\n      swap1\n      pop\n        /* \"#utility.yul\":3462:3495   */\n      tag_677\n        /* \"#utility.yul\":3489:3494   */\n      dup2\n        /* \"#utility.yul\":3462:3495   */\n      tag_570\n      jump\t// in\n    tag_677:\n        /* \"#utility.yul\":3362:3501   */\n      swap3\n      swap2\n      pop\n      pop\n      jump\t// out\n        /* \"#utility.yul\":3507:3836   */\n    tag_59:\n        /* \"#utility.yul\":3566:3572   */\n      0x00\n        /* \"#utility.yul\":3615:3617   */\n      0x20\n        /* \"#utility.yul\":3603:3612   */\n      dup3\n        /* \"#utility.yul\":3594:3601   */\n      dup5\n        /* \"#utility.yul\":3590:3613   */\n      sub\n        /* \"#utility.yul\":3586:3618   */\n      slt\n        /* \"#utility.yul\":3583:3702   */\n      iszero\n      tag_679\n      jumpi\n        /* \"#utility.yul\":3621:3700   */\n      tag_680\n      tag_556\n      jump\t// in\n    tag_680:\n        /* \"#utility.yul\":3583:3702   */\n    tag_679:\n        /* \"#utility.yul\":3741:3742   */\n      0x00\n        /* \"#utility.yul\":3766:3819   */\n      tag_681\n        /* \"#utility.yul\":3811:3818   */\n      dup5\n        /* \"#utility.yul\":3802:3808   */\n      dup3\n        /* \"#utility.yul\":3791:3800   */\n      dup6\n        /* \"#utility.yul\":3787:3809   */\n      add\n        /* \"#utility.yul\":3766:3819   */\n      tag_571\n      jump\t// in\n    tag_681:\n        /* \"#utility.yul\":3756:3819   */\n      swap2\n      pop\n        /* \"#utility.yul\":3712:3829   */\n      pop\n        /* \"#utility.yul\":3507:3836   */\n      swap3\n      swap2\n      pop\n      pop\n      jump\t// out\n        /* \"#utility.yul\":3842:3963   */\n    tag_572:\n        /* \"#utility.yul\":3937:3938   */\n      0x03\n        /* \"#utility.yul\":3930:3935   */\n      dup2\n        /* \"#utility.yul\":3927:3939   */\n      lt\n        /* \"#utility.yul\":3917:3957   */\n      tag_683\n      jumpi\n        /* \"#utility.yul\":3953:3954   */\n      0x00\n        /* \"#utility.yul\":3950:3951   */\n      dup1\n        /* \"#utility.yul\":3943:3955   */\n      revert\n        /* \"#utility.yul\":3917:3957   */\n    tag_683:\n        /* \"#utility.yul\":3842:3963   */\n      pop\n      jump\t// out\n        /* \"#utility.yul\":3969:4152   */\n    tag_573:\n        /* \"#utility.yul\":4037:4042   */\n      0x00\n        /* \"#utility.yul\":4075:4081   */\n      dup2\n        /* \"#utility.yul\":4062:4082   */\n      calldataload\n        /* \"#utility.yul\":4053:4082   */\n      swap1\n      pop\n        /* \"#utility.yul\":4091:4146   */\n      tag_685\n        /* \"#utility.yul\":4140:4145   */\n      dup2\n        /* \"#utility.yul\":4091:4146   */\n      tag_572\n      jump\t// in\n    tag_685:\n        /* \"#utility.yul\":3969:4152   */\n      swap3\n      swap2\n      pop\n      pop\n      jump\t// out\n        /* \"#utility.yul\":4158:4274   */\n    tag_574:\n        /* \"#utility.yul\":4228:4249   */\n      tag_687\n        /* \"#utility.yul\":4243:4248   */\n      dup2\n        /* \"#utility.yul\":4228:4249   */\n      tag_561\n      jump\t// in\n    tag_687:\n        /* \"#utility.yul\":4221:4226   */\n      dup2\n        /* \"#utility.yul\":4218:4250   */\n      eq\n        /* \"#utility.yul\":4208:4268   */\n      tag_688\n      jumpi\n        /* \"#utility.yul\":4264:4265   */\n      0x00\n        /* \"#utility.yul\":4261:4262   */\n      dup1\n        /* \"#utility.yul\":4254:4266   */\n      revert\n        /* \"#utility.yul\":4208:4268   */\n    tag_688:\n        /* \"#utility.yul\":4158:4274   */\n      pop\n      jump\t// out\n        /* \"#utility.yul\":4280:4413   */\n    tag_575:\n        /* \"#utility.yul\":4323:4328   */\n      0x00\n        /* \"#utility.yul\":4361:4367   */\n      dup2\n        /* \"#utility.yul\":4348:4368   */\n      calldataload\n        /* \"#utility.yul\":4339:4368   */\n      swap1\n      pop\n        /* \"#utility.yul\":4377:4407   */\n      tag_690\n        /* \"#utility.yul\":4401:4406   */\n      dup2\n        /* \"#utility.yul\":4377:4407   */\n      tag_574\n      jump\t// in\n    tag_690:\n        /* \"#utility.yul\":4280:4413   */\n      swap3\n      swap2\n      pop\n      pop\n      jump\t// out\n        /* \"#utility.yul\":4419:5806   */\n    tag_64:\n        /* \"#utility.yul\":4560:4566   */\n      0x00\n        /* \"#utility.yul\":4568:4574   */\n      dup1\n        /* \"#utility.yul\":4576:4582   */\n      0x00\n        /* \"#utility.yul\":4584:4590   */\n      dup1\n        /* \"#utility.yul\":4592:4598   */\n      0x00\n        /* \"#utility.yul\":4600:4606   */\n      dup1\n        /* \"#utility.yul\":4608:4614   */\n      0x00\n        /* \"#utility.yul\":4616:4622   */\n      dup1\n        /* \"#utility.yul\":4665:4668   */\n      0x0100\n        /* \"#utility.yul\":4653:4662   */\n      dup10\n        /* \"#utility.yul\":4644:4651   */\n      dup12\n        /* \"#utility.yul\":4640:4663   */\n      sub\n        /* \"#utility.yul\":4636:4669   */\n      slt\n        /* \"#utility.yul\":4633:4753   */\n      iszero\n      tag_692\n      jumpi\n        /* \"#utility.yul\":4672:4751   */\n      tag_693\n      tag_556\n      jump\t// in\n    tag_693:\n        /* \"#utility.yul\":4633:4753   */\n    tag_692:\n        /* \"#utility.yul\":4792:4793   */\n      0x00\n        /* \"#utility.yul\":4817:4892   */\n      tag_694\n        /* \"#utility.yul\":4884:4891   */\n      dup12\n        /* \"#utility.yul\":4875:4881   */\n      dup3\n        /* \"#utility.yul\":4864:4873   */\n      dup13\n        /* \"#utility.yul\":4860:4882   */\n      add\n        /* \"#utility.yul\":4817:4892   */\n      tag_573\n      jump\t// in\n    tag_694:\n        /* \"#utility.yul\":4807:4892   */\n      swap9\n      pop\n        /* \"#utility.yul\":4763:4902   */\n      pop\n        /* \"#utility.yul\":4941:4943   */\n      0x20\n        /* \"#utility.yul\":4967:5020   */\n      tag_695\n        /* \"#utility.yul\":5012:5019   */\n      dup12\n        /* \"#utility.yul\":5003:5009   */\n      dup3\n        /* \"#utility.yul\":4992:5001   */\n      dup13\n        /* \"#utility.yul\":4988:5010   */\n      add\n        /* \"#utility.yul\":4967:5020   */\n      tag_571\n      jump\t// in\n    tag_695:\n        /* \"#utility.yul\":4957:5020   */\n      swap8\n      pop\n        /* \"#utility.yul\":4912:5030   */\n      pop\n        /* \"#utility.yul\":5069:5071   */\n      0x40\n        /* \"#utility.yul\":5095:5148   */\n      tag_696\n        /* \"#utility.yul\":5140:5147   */\n      dup12\n        /* \"#utility.yul\":5131:5137   */\n      dup3\n        /* \"#utility.yul\":5120:5129   */\n      dup13\n        /* \"#utility.yul\":5116:5138   */\n      add\n        /* \"#utility.yul\":5095:5148   */\n      tag_571\n      jump\t// in\n    tag_696:\n        /* \"#utility.yul\":5085:5148   */\n      swap7\n      pop\n        /* \"#utility.yul\":5040:5158   */\n      pop\n        /* \"#utility.yul\":5197:5199   */\n      0x60\n        /* \"#utility.yul\":5223:5276   */\n      tag_697\n        /* \"#utility.yul\":5268:5275   */\n      dup12\n        /* \"#utility.yul\":5259:5265   */\n      dup3\n        /* \"#utility.yul\":5248:5257   */\n      dup13\n        /* \"#utility.yul\":5244:5266   */\n      add\n        /* \"#utility.yul\":5223:5276   */\n      tag_560\n      jump\t// in\n    tag_697:\n        /* \"#utility.yul\":5213:5276   */\n      swap6\n      pop\n        /* \"#utility.yul\":5168:5286   */\n      pop\n        /* \"#utility.yul\":5325:5328   */\n      0x80\n        /* \"#utility.yul\":5352:5405   */\n      tag_698\n        /* \"#utility.yul\":5397:5404   */\n      dup12\n        /* \"#utility.yul\":5388:5394   */\n      dup3\n        /* \"#utility.yul\":5377:5386   */\n      dup13\n        /* \"#utility.yul\":5373:5395   */\n      add\n        /* \"#utility.yul\":5352:5405   */\n      tag_560\n      jump\t// in\n    tag_698:\n        /* \"#utility.yul\":5342:5405   */\n      swap5\n      pop\n        /* \"#utility.yul\":5296:5415   */\n      pop\n        /* \"#utility.yul\":5454:5457   */\n      0xa0\n        /* \"#utility.yul\":5481:5534   */\n      tag_699\n        /* \"#utility.yul\":5526:5533   */\n      dup12\n        /* \"#utility.yul\":5517:5523   */\n      dup3\n        /* \"#utility.yul\":5506:5515   */\n      dup13\n        /* \"#utility.yul\":5502:5524   */\n      add\n        /* \"#utility.yul\":5481:5534   */\n      tag_560\n      jump\t// in\n    tag_699:\n        /* \"#utility.yul\":5471:5534   */\n      swap4\n      pop\n        /* \"#utility.yul\":5425:5544   */\n      pop\n        /* \"#utility.yul\":5583:5586   */\n      0xc0\n        /* \"#utility.yul\":5610:5660   */\n      tag_700\n        /* \"#utility.yul\":5652:5659   */\n      dup12\n        /* \"#utility.yul\":5643:5649   */\n      dup3\n        /* \"#utility.yul\":5632:5641   */\n      dup13\n        /* \"#utility.yul\":5628:5650   */\n      add\n        /* \"#utility.yul\":5610:5660   */\n      tag_575\n      jump\t// in\n    tag_700:\n        /* \"#utility.yul\":5600:5660   */\n      swap3\n      pop\n        /* \"#utility.yul\":5554:5670   */\n      pop\n        /* \"#utility.yul\":5709:5712   */\n      0xe0\n        /* \"#utility.yul\":5736:5789   */\n      tag_701\n        /* \"#utility.yul\":5781:5788   */\n      dup12\n        /* \"#utility.yul\":5772:5778   */\n      dup3\n        /* \"#utility.yul\":5761:5770   */\n      dup13\n        /* \"#utility.yul\":5757:5779   */\n      add\n        /* \"#utility.yul\":5736:5789   */\n      tag_571\n      jump\t// in\n    tag_701:\n        /* \"#utility.yul\":5726:5789   */\n      swap2\n      pop\n        /* \"#utility.yul\":5680:5799   */\n      pop\n        /* \"#utility.yul\":4419:5806   */\n      swap3\n      swap6\n      swap9\n      pop\n      swap3\n      swap6\n      swap9\n      swap1\n      swap4\n      swap7\n      pop\n      jump\t// out\n        /* \"#utility.yul\":5812:6034   */\n    tag_71:\n        /* \"#utility.yul\":5905:5909   */\n      0x00\n        /* \"#utility.yul\":5943:5945   */\n      0x20\n        /* \"#utility.yul\":5932:5941   */\n      dup3\n        /* \"#utility.yul\":5928:5946   */\n      add\n        /* \"#utility.yul\":5920:5946   */\n      swap1\n      pop\n        /* \"#utility.yul\":5956:6027   */\n      tag_703\n        /* \"#utility.yul\":6024:6025   */\n      0x00\n        /* \"#utility.yul\":6013:6022   */\n      dup4\n        /* \"#utility.yul\":6009:6026   */\n      add\n        /* \"#utility.yul\":6000:6006   */\n      dup5\n        /* \"#utility.yul\":5956:6027   */\n      tag_563\n      jump\t// in\n    tag_703:\n        /* \"#utility.yul\":5812:6034   */\n      swap3\n      swap2\n      pop\n      pop\n      jump\t// out\n        /* \"#utility.yul\":6040:6158   */\n    tag_576:\n        /* \"#utility.yul\":6127:6151   */\n      tag_705\n        /* \"#utility.yul\":6145:6150   */\n      dup2\n        /* \"#utility.yul\":6127:6151   */\n      tag_569\n      jump\t// in\n    tag_705:\n        /* \"#utility.yul\":6122:6125   */\n      dup3\n        /* \"#utility.yul\":6115:6152   */\n      mstore\n        /* \"#utility.yul\":6040:6158   */\n      pop\n      pop\n      jump\t// out\n        /* \"#utility.yul\":6164:6386   */\n    tag_79:\n        /* \"#utility.yul\":6257:6261   */\n      0x00\n        /* \"#utility.yul\":6295:6297   */\n      0x20\n        /* \"#utility.yul\":6284:6293   */\n      dup3\n        /* \"#utility.yul\":6280:6298   */\n      add\n        /* \"#utility.yul\":6272:6298   */\n      swap1\n      pop\n        /* \"#utility.yul\":6308:6379   */\n      tag_707\n        /* \"#utility.yul\":6376:6377   */\n      0x00\n        /* \"#utility.yul\":6365:6374   */\n      dup4\n        /* \"#utility.yul\":6361:6378   */\n      add\n        /* \"#utility.yul\":6352:6358   */\n      dup5\n        /* \"#utility.yul\":6308:6379   */\n      tag_576\n      jump\t// in\n    tag_707:\n        /* \"#utility.yul\":6164:6386   */\n      swap3\n      swap2\n      pop\n      pop\n      jump\t// out\n        /* \"#utility.yul\":6392:6724   */\n    tag_87:\n        /* \"#utility.yul\":6513:6517   */\n      0x00\n        /* \"#utility.yul\":6551:6553   */\n      0x40\n        /* \"#utility.yul\":6540:6549   */\n      dup3\n        /* \"#utility.yul\":6536:6554   */\n      add\n        /* \"#utility.yul\":6528:6554   */\n      swap1\n      pop\n        /* \"#utility.yul\":6564:6635   */\n      tag_709\n        /* \"#utility.yul\":6632:6633   */\n      0x00\n        /* \"#utility.yul\":6621:6630   */\n      dup4\n        /* \"#utility.yul\":6617:6634   */\n      add\n        /* \"#utility.yul\":6608:6614   */\n      dup6\n        /* \"#utility.yul\":6564:6635   */\n      tag_576\n      jump\t// in\n    tag_709:\n        /* \"#utility.yul\":6645:6717   */\n      tag_710\n        /* \"#utility.yul\":6713:6715   */\n      0x20\n        /* \"#utility.yul\":6702:6711   */\n      dup4\n        /* \"#utility.yul\":6698:6716   */\n      add\n        /* \"#utility.yul\":6689:6695   */\n      dup5\n        /* \"#utility.yul\":6645:6717   */\n      tag_576\n      jump\t// in\n    tag_710:\n        /* \"#utility.yul\":6392:6724   */\n      swap4\n      swap3\n      pop\n      pop\n      pop\n      jump\t// out\n        /* \"#utility.yul\":6730:6844   */\n    tag_577:\n        /* \"#utility.yul\":6797:6803   */\n      0x00\n        /* \"#utility.yul\":6831:6836   */\n      dup2\n        /* \"#utility.yul\":6825:6837   */\n      mload\n        /* \"#utility.yul\":6815:6837   */\n      swap1\n      pop\n        /* \"#utility.yul\":6730:6844   */\n      swap2\n      swap1\n      pop\n      jump\t// out\n        /* \"#utility.yul\":6850:7034   */\n    tag_578:\n        /* \"#utility.yul\":6949:6960   */\n      0x00\n        /* \"#utility.yul\":6983:6989   */\n      dup3\n        /* \"#utility.yul\":6978:6981   */\n      dup3\n        /* \"#utility.yul\":6971:6990   */\n      mstore\n        /* \"#utility.yul\":7023:7027   */\n      0x20\n        /* \"#utility.yul\":7018:7021   */\n      dup3\n        /* \"#utility.yul\":7014:7028   */\n      add\n        /* \"#utility.yul\":6999:7028   */\n      swap1\n      pop\n        /* \"#utility.yul\":6850:7034   */\n      swap3\n      swap2\n      pop\n      pop\n      jump\t// out\n        /* \"#utility.yul\":7040:7172   */\n    tag_579:\n        /* \"#utility.yul\":7107:7111   */\n      0x00\n        /* \"#utility.yul\":7130:7133   */\n      dup2\n        /* \"#utility.yul\":7122:7133   */\n      swap1\n      pop\n        /* \"#utility.yul\":7160:7164   */\n      0x20\n        /* \"#utility.yul\":7155:7158   */\n      dup3\n        /* \"#utility.yul\":7151:7165   */\n      add\n        /* \"#utility.yul\":7143:7165   */\n      swap1\n      pop\n        /* \"#utility.yul\":7040:7172   */\n      swap2\n      swap1\n      pop\n      jump\t// out\n        /* \"#utility.yul\":7178:7286   */\n    tag_580:\n        /* \"#utility.yul\":7255:7279   */\n      tag_715\n        /* \"#utility.yul\":7273:7278   */\n      dup2\n        /* \"#utility.yul\":7255:7279   */\n      tag_569\n      jump\t// in\n    tag_715:\n        /* \"#utility.yul\":7250:7253   */\n      dup3\n        /* \"#utility.yul\":7243:7280   */\n      mstore\n        /* \"#utility.yul\":7178:7286   */\n      pop\n      pop\n      jump\t// out\n        /* \"#utility.yul\":7292:7471   */\n    tag_581:\n        /* \"#utility.yul\":7361:7371   */\n      0x00\n        /* \"#utility.yul\":7382:7428   */\n      tag_717\n        /* \"#utility.yul\":7424:7427   */\n      dup4\n        /* \"#utility.yul\":7416:7422   */\n      dup4\n        /* \"#utility.yul\":7382:7428   */\n      tag_580\n      jump\t// in\n    tag_717:\n        /* \"#utility.yul\":7460:7464   */\n      0x20\n        /* \"#utility.yul\":7455:7458   */\n      dup4\n        /* \"#utility.yul\":7451:7465   */\n      add\n        /* \"#utility.yul\":7437:7465   */\n      swap1\n      pop\n        /* \"#utility.yul\":7292:7471   */\n      swap3\n      swap2\n      pop\n      pop\n      jump\t// out\n        /* \"#utility.yul\":7477:7590   */\n    tag_582:\n        /* \"#utility.yul\":7547:7551   */\n      0x00\n        /* \"#utility.yul\":7579:7583   */\n      0x20\n        /* \"#utility.yul\":7574:7577   */\n      dup3\n        /* \"#utility.yul\":7570:7584   */\n      add\n        /* \"#utility.yul\":7562:7584   */\n      swap1\n      pop\n        /* \"#utility.yul\":7477:7590   */\n      swap2\n      swap1\n      pop\n      jump\t// out\n        /* \"#utility.yul\":7626:8358   */\n    tag_583:\n        /* \"#utility.yul\":7745:7748   */\n      0x00\n        /* \"#utility.yul\":7774:7828   */\n      tag_720\n        /* \"#utility.yul\":7822:7827   */\n      dup3\n        /* \"#utility.yul\":7774:7828   */\n      tag_577\n      jump\t// in\n    tag_720:\n        /* \"#utility.yul\":7844:7930   */\n      tag_721\n        /* \"#utility.yul\":7923:7929   */\n      dup2\n        /* \"#utility.yul\":7918:7921   */\n      dup6\n        /* \"#utility.yul\":7844:7930   */\n      tag_578\n      jump\t// in\n    tag_721:\n        /* \"#utility.yul\":7837:7930   */\n      swap4\n      pop\n        /* \"#utility.yul\":7954:8010   */\n      tag_722\n        /* \"#utility.yul\":8004:8009   */\n      dup4\n        /* \"#utility.yul\":7954:8010   */\n      tag_579\n      jump\t// in\n    tag_722:\n        /* \"#utility.yul\":8033:8040   */\n      dup1\n        /* \"#utility.yul\":8064:8065   */\n      0x00\n        /* \"#utility.yul\":8049:8333   */\n    tag_723:\n        /* \"#utility.yul\":8074:8080   */\n      dup4\n        /* \"#utility.yul\":8071:8072   */\n      dup2\n        /* \"#utility.yul\":8068:8081   */\n      lt\n        /* \"#utility.yul\":8049:8333   */\n      iszero\n      tag_725\n      jumpi\n        /* \"#utility.yul\":8150:8156   */\n      dup2\n        /* \"#utility.yul\":8144:8157   */\n      mload\n        /* \"#utility.yul\":8177:8240   */\n      tag_726\n        /* \"#utility.yul\":8236:8239   */\n      dup9\n        /* \"#utility.yul\":8221:8234   */\n      dup3\n        /* \"#utility.yul\":8177:8240   */\n      tag_581\n      jump\t// in\n    tag_726:\n        /* \"#utility.yul\":8170:8240   */\n      swap8\n      pop\n        /* \"#utility.yul\":8263:8323   */\n      tag_727\n        /* \"#utility.yul\":8316:8322   */\n      dup4\n        /* \"#utility.yul\":8263:8323   */\n      tag_582\n      jump\t// in\n    tag_727:\n        /* \"#utility.yul\":8253:8323   */\n      swap3\n      pop\n        /* \"#utility.yul\":8109:8333   */\n      pop\n        /* \"#utility.yul\":8096:8097   */\n      0x01\n        /* \"#utility.yul\":8093:8094   */\n      dup2\n        /* \"#utility.yul\":8089:8098   */\n      add\n        /* \"#utility.yul\":8084:8098   */\n      swap1\n      pop\n        /* \"#utility.yul\":8049:8333   */\n      jump(tag_723)\n    tag_725:\n        /* \"#utility.yul\":8053:8067   */\n      pop\n        /* \"#utility.yul\":8349:8352   */\n      dup6\n        /* \"#utility.yul\":8342:8352   */\n      swap4\n      pop\n        /* \"#utility.yul\":7750:8358   */\n      pop\n      pop\n      pop\n        /* \"#utility.yul\":7626:8358   */\n      swap3\n      swap2\n      pop\n      pop\n      jump\t// out\n        /* \"#utility.yul\":8364:8478   */\n    tag_584:\n        /* \"#utility.yul\":8431:8437   */\n      0x00\n        /* \"#utility.yul\":8465:8470   */\n      dup2\n        /* \"#utility.yul\":8459:8471   */\n      mload\n        /* \"#utility.yul\":8449:8471   */\n      swap1\n      pop\n        /* \"#utility.yul\":8364:8478   */\n      swap2\n      swap1\n      pop\n      jump\t// out\n        /* \"#utility.yul\":8484:8668   */\n    tag_585:\n        /* \"#utility.yul\":8583:8594   */\n      0x00\n        /* \"#utility.yul\":8617:8623   */\n      dup3\n        /* \"#utility.yul\":8612:8615   */\n      dup3\n        /* \"#utility.yul\":8605:8624   */\n      mstore\n        /* \"#utility.yul\":8657:8661   */\n      0x20\n        /* \"#utility.yul\":8652:8655   */\n      dup3\n        /* \"#utility.yul\":8648:8662   */\n      add\n        /* \"#utility.yul\":8633:8662   */\n      swap1\n      pop\n        /* \"#utility.yul\":8484:8668   */\n      swap3\n      swap2\n      pop\n      pop\n      jump\t// out\n        /* \"#utility.yul\":8674:8806   */\n    tag_586:\n        /* \"#utility.yul\":8741:8745   */\n      0x00\n        /* \"#utility.yul\":8764:8767   */\n      dup2\n        /* \"#utility.yul\":8756:8767   */\n      swap1\n      pop\n        /* \"#utility.yul\":8794:8798   */\n      0x20\n        /* \"#utility.yul\":8789:8792   */\n      dup3\n        /* \"#utility.yul\":8785:8799   */\n      add\n        /* \"#utility.yul\":8777:8799   */\n      swap1\n      pop\n        /* \"#utility.yul\":8674:8806   */\n      swap2\n      swap1\n      pop\n      jump\t// out\n        /* \"#utility.yul\":8812:8920   */\n    tag_587:\n        /* \"#utility.yul\":8889:8913   */\n      tag_732\n        /* \"#utility.yul\":8907:8912   */\n      dup2\n        /* \"#utility.yul\":8889:8913   */\n      tag_558\n      jump\t// in\n    tag_732:\n        /* \"#utility.yul\":8884:8887   */\n      dup3\n        /* \"#utility.yul\":8877:8914   */\n      mstore\n        /* \"#utility.yul\":8812:8920   */\n      pop\n      pop\n      jump\t// out\n        /* \"#utility.yul\":8926:9105   */\n    tag_588:\n        /* \"#utility.yul\":8995:9005   */\n      0x00\n        /* \"#utility.yul\":9016:9062   */\n      tag_734\n        /* \"#utility.yul\":9058:9061   */\n      dup4\n        /* \"#utility.yul\":9050:9056   */\n      dup4\n        /* \"#utility.yul\":9016:9062   */\n      tag_587\n      jump\t// in\n    tag_734:\n        /* \"#utility.yul\":9094:9098   */\n      0x20\n        /* \"#utility.yul\":9089:9092   */\n      dup4\n        /* \"#utility.yul\":9085:9099   */\n      add\n        /* \"#utility.yul\":9071:9099   */\n      swap1\n      pop\n        /* \"#utility.yul\":8926:9105   */\n      swap3\n      swap2\n      pop\n      pop\n      jump\t// out\n        /* \"#utility.yul\":9111:9224   */\n    tag_589:\n        /* \"#utility.yul\":9181:9185   */\n      0x00\n        /* \"#utility.yul\":9213:9217   */\n      0x20\n        /* \"#utility.yul\":9208:9211   */\n      dup3\n        /* \"#utility.yul\":9204:9218   */\n      add\n        /* \"#utility.yul\":9196:9218   */\n      swap1\n      pop\n        /* \"#utility.yul\":9111:9224   */\n      swap2\n      swap1\n      pop\n      jump\t// out\n        /* \"#utility.yul\":9260:9992   */\n    tag_590:\n        /* \"#utility.yul\":9379:9382   */\n      0x00\n        /* \"#utility.yul\":9408:9462   */\n      tag_737\n        /* \"#utility.yul\":9456:9461   */\n      dup3\n        /* \"#utility.yul\":9408:9462   */\n      tag_584\n      jump\t// in\n    tag_737:\n        /* \"#utility.yul\":9478:9564   */\n      tag_738\n        /* \"#utility.yul\":9557:9563   */\n      dup2\n        /* \"#utility.yul\":9552:9555   */\n      dup6\n        /* \"#utility.yul\":9478:9564   */\n      tag_585\n      jump\t// in\n    tag_738:\n        /* \"#utility.yul\":9471:9564   */\n      swap4\n      pop\n        /* \"#utility.yul\":9588:9644   */\n      tag_739\n        /* \"#utility.yul\":9638:9643   */\n      dup4\n        /* \"#utility.yul\":9588:9644   */\n      tag_586\n      jump\t// in\n    tag_739:\n        /* \"#utility.yul\":9667:9674   */\n      dup1\n        /* \"#utility.yul\":9698:9699   */\n      0x00\n        /* \"#utility.yul\":9683:9967   */\n    tag_740:\n        /* \"#utility.yul\":9708:9714   */\n      dup4\n        /* \"#utility.yul\":9705:9706   */\n      dup2\n        /* \"#utility.yul\":9702:9715   */\n      lt\n        /* \"#utility.yul\":9683:9967   */\n      iszero\n      tag_742\n      jumpi\n        /* \"#utility.yul\":9784:9790   */\n      dup2\n        /* \"#utility.yul\":9778:9791   */\n      mload\n        /* \"#utility.yul\":9811:9874   */\n      tag_743\n        /* \"#utility.yul\":9870:9873   */\n      dup9\n        /* \"#utility.yul\":9855:9868   */\n      dup3\n        /* \"#utility.yul\":9811:9874   */\n      tag_588\n      jump\t// in\n    tag_743:\n        /* \"#utility.yul\":9804:9874   */\n      swap8\n      pop\n        /* \"#utility.yul\":9897:9957   */\n      tag_744\n        /* \"#utility.yul\":9950:9956   */\n      dup4\n        /* \"#utility.yul\":9897:9957   */\n      tag_589\n      jump\t// in\n    tag_744:\n        /* \"#utility.yul\":9887:9957   */\n      swap3\n      pop\n        /* \"#utility.yul\":9743:9967   */\n      pop\n        /* \"#utility.yul\":9730:9731   */\n      0x01\n        /* \"#utility.yul\":9727:9728   */\n      dup2\n        /* \"#utility.yul\":9723:9732   */\n      add\n        /* \"#utility.yul\":9718:9732   */\n      swap1\n      pop\n        /* \"#utility.yul\":9683:9967   */\n      jump(tag_740)\n    tag_742:\n        /* \"#utility.yul\":9687:9701   */\n      pop\n        /* \"#utility.yul\":9983:9986   */\n      dup6\n        /* \"#utility.yul\":9976:9986   */\n      swap4\n      pop\n        /* \"#utility.yul\":9384:9992   */\n      pop\n      pop\n      pop\n        /* \"#utility.yul\":9260:9992   */\n      swap3\n      swap2\n      pop\n      pop\n      jump\t// out\n        /* \"#utility.yul\":9998:10893   */\n    tag_106:\n        /* \"#utility.yul\":10297:10301   */\n      0x00\n        /* \"#utility.yul\":10335:10337   */\n      0x60\n        /* \"#utility.yul\":10324:10333   */\n      dup3\n        /* \"#utility.yul\":10320:10338   */\n      add\n        /* \"#utility.yul\":10312:10338   */\n      swap1\n      pop\n        /* \"#utility.yul\":10384:10393   */\n      dup2\n        /* \"#utility.yul\":10378:10382   */\n      dup2\n        /* \"#utility.yul\":10374:10394   */\n      sub\n        /* \"#utility.yul\":10370:10371   */\n      0x00\n        /* \"#utility.yul\":10359:10368   */\n      dup4\n        /* \"#utility.yul\":10355:10372   */\n      add\n        /* \"#utility.yul\":10348:10395   */\n      mstore\n        /* \"#utility.yul\":10412:10520   */\n      tag_746\n        /* \"#utility.yul\":10515:10519   */\n      dup2\n        /* \"#utility.yul\":10506:10512   */\n      dup7\n        /* \"#utility.yul\":10412:10520   */\n      tag_583\n      jump\t// in\n    tag_746:\n        /* \"#utility.yul\":10404:10520   */\n      swap1\n      pop\n        /* \"#utility.yul\":10567:10576   */\n      dup2\n        /* \"#utility.yul\":10561:10565   */\n      dup2\n        /* \"#utility.yul\":10557:10577   */\n      sub\n        /* \"#utility.yul\":10552:10554   */\n      0x20\n        /* \"#utility.yul\":10541:10550   */\n      dup4\n        /* \"#utility.yul\":10537:10555   */\n      add\n        /* \"#utility.yul\":10530:10578   */\n      mstore\n        /* \"#utility.yul\":10595:10703   */\n      tag_747\n        /* \"#utility.yul\":10698:10702   */\n      dup2\n        /* \"#utility.yul\":10689:10695   */\n      dup6\n        /* \"#utility.yul\":10595:10703   */\n      tag_590\n      jump\t// in\n    tag_747:\n        /* \"#utility.yul\":10587:10703   */\n      swap1\n      pop\n        /* \"#utility.yul\":10750:10759   */\n      dup2\n        /* \"#utility.yul\":10744:10748   */\n      dup2\n        /* \"#utility.yul\":10740:10760   */\n      sub\n        /* \"#utility.yul\":10735:10737   */\n      0x40\n        /* \"#utility.yul\":10724:10733   */\n      dup4\n        /* \"#utility.yul\":10720:10738   */\n      add\n        /* \"#utility.yul\":10713:10761   */\n      mstore\n        /* \"#utility.yul\":10778:10886   */\n      tag_748\n        /* \"#utility.yul\":10881:10885   */\n      dup2\n        /* \"#utility.yul\":10872:10878   */\n      dup5\n        /* \"#utility.yul\":10778:10886   */\n      tag_590\n      jump\t// in\n    tag_748:\n        /* \"#utility.yul\":10770:10886   */\n      swap1\n      pop\n        /* \"#utility.yul\":9998:10893   */\n      swap5\n      swap4\n      pop\n      pop\n      pop\n      pop\n      jump\t// out\n        /* \"#utility.yul\":10899:11068   */\n    tag_591:\n        /* \"#utility.yul\":10983:10994   */\n      0x00\n        /* \"#utility.yul\":11017:11023   */\n      dup3\n        /* \"#utility.yul\":11012:11015   */\n      dup3\n        /* \"#utility.yul\":11005:11024   */\n      mstore\n        /* \"#utility.yul\":11057:11061   */\n      0x20\n        /* \"#utility.yul\":11052:11055   */\n      dup3\n        /* \"#utility.yul\":11048:11062   */\n      add\n        /* \"#utility.yul\":11033:11062   */\n      swap1\n      pop\n        /* \"#utility.yul\":10899:11068   */\n      swap3\n      swap2\n      pop\n      pop\n      jump\t// out\n        /* \"#utility.yul\":11074:11246   */\n    tag_592:\n        /* \"#utility.yul\":11214:11238   */\n      0x537943726f774261727465723a20494e41435449564500000000000000000000\n        /* \"#utility.yul\":11210:11211   */\n      0x00\n        /* \"#utility.yul\":11202:11208   */\n      dup3\n        /* \"#utility.yul\":11198:11212   */\n      add\n        /* \"#utility.yul\":11191:11239   */\n      mstore\n        /* \"#utility.yul\":11074:11246   */\n      pop\n      jump\t// out\n        /* \"#utility.yul\":11252:11618   */\n    tag_593:\n        /* \"#utility.yul\":11394:11397   */\n      0x00\n        /* \"#utility.yul\":11415:11482   */\n      tag_752\n        /* \"#utility.yul\":11479:11481   */\n      0x16\n        /* \"#utility.yul\":11474:11477   */\n      dup4\n        /* \"#utility.yul\":11415:11482   */\n      tag_591\n      jump\t// in\n    tag_752:\n        /* \"#utility.yul\":11408:11482   */\n      swap2\n      pop\n        /* \"#utility.yul\":11491:11584   */\n      tag_753\n        /* \"#utility.yul\":11580:11583   */\n      dup3\n        /* \"#utility.yul\":11491:11584   */\n      tag_592\n      jump\t// in\n    tag_753:\n        /* \"#utility.yul\":11609:11611   */\n      0x20\n        /* \"#utility.yul\":11604:11607   */\n      dup3\n        /* \"#utility.yul\":11600:11612   */\n      add\n        /* \"#utility.yul\":11593:11612   */\n      swap1\n      pop\n        /* \"#utility.yul\":11252:11618   */\n      swap2\n      swap1\n      pop\n      jump\t// out\n        /* \"#utility.yul\":11624:12043   */\n    tag_119:\n        /* \"#utility.yul\":11790:11794   */\n      0x00\n        /* \"#utility.yul\":11828:11830   */\n      0x20\n        /* \"#utility.yul\":11817:11826   */\n      dup3\n        /* \"#utility.yul\":11813:11831   */\n      add\n        /* \"#utility.yul\":11805:11831   */\n      swap1\n      pop\n        /* \"#utility.yul\":11877:11886   */\n      dup2\n        /* \"#utility.yul\":11871:11875   */\n      dup2\n        /* \"#utility.yul\":11867:11887   */\n      sub\n        /* \"#utility.yul\":11863:11864   */\n      0x00\n        /* \"#utility.yul\":11852:11861   */\n      dup4\n        /* \"#utility.yul\":11848:11865   */\n      add\n        /* \"#utility.yul\":11841:11888   */\n      mstore\n        /* \"#utility.yul\":11905:12036   */\n      tag_755\n        /* \"#utility.yul\":12031:12035   */\n      dup2\n        /* \"#utility.yul\":11905:12036   */\n      tag_593\n      jump\t// in\n    tag_755:\n        /* \"#utility.yul\":11897:12036   */\n      swap1\n      pop\n        /* \"#utility.yul\":11624:12043   */\n      swap2\n      swap1\n      pop\n      jump\t// out\n        /* \"#utility.yul\":12049:12228   */\n    tag_594:\n        /* \"#utility.yul\":12189:12220   */\n      0x537943726f774261727465723a204e4f545f494e495449414c495a4544000000\n        /* \"#utility.yul\":12185:12186   */\n      0x00\n        /* \"#utility.yul\":12177:12183   */\n      dup3\n        /* \"#utility.yul\":12173:12187   */\n      add\n        /* \"#utility.yul\":12166:12221   */\n      mstore\n        /* \"#utility.yul\":12049:12228   */\n      pop\n      jump\t// out\n        /* \"#utility.yul\":12234:12600   */\n    tag_595:\n        /* \"#utility.yul\":12376:12379   */\n      0x00\n        /* \"#utility.yul\":12397:12464   */\n      tag_758\n        /* \"#utility.yul\":12461:12463   */\n      0x1d\n        /* \"#utility.yul\":12456:12459   */\n      dup4\n        /* \"#utility.yul\":12397:12464   */\n      tag_591\n      jump\t// in\n    tag_758:\n        /* \"#utility.yul\":12390:12464   */\n      swap2\n      pop\n        /* \"#utility.yul\":12473:12566   */\n      tag_759\n        /* \"#utility.yul\":12562:12565   */\n      dup3\n        /* \"#utility.yul\":12473:12566   */\n      tag_594\n      jump\t// in\n    tag_759:\n        /* \"#utility.yul\":12591:12593   */\n      0x20\n        /* \"#utility.yul\":12586:12589   */\n      dup3\n        /* \"#utility.yul\":12582:12594   */\n      add\n        /* \"#utility.yul\":12575:12594   */\n      swap1\n      pop\n        /* \"#utility.yul\":12234:12600   */\n      swap2\n      swap1\n      pop\n      jump\t// out\n        /* \"#utility.yul\":12606:13025   */\n    tag_123:\n        /* \"#utility.yul\":12772:12776   */\n      0x00\n        /* \"#utility.yul\":12810:12812   */\n      0x20\n        /* \"#utility.yul\":12799:12808   */\n      dup3\n        /* \"#utility.yul\":12795:12813   */\n      add\n        /* \"#utility.yul\":12787:12813   */\n      swap1\n      pop\n        /* \"#utility.yul\":12859:12868   */\n      dup2\n        /* \"#utility.yul\":12853:12857   */\n      dup2\n        /* \"#utility.yul\":12849:12869   */\n      sub\n        /* \"#utility.yul\":12845:12846   */\n      0x00\n        /* \"#utility.yul\":12834:12843   */\n      dup4\n        /* \"#utility.yul\":12830:12847   */\n      add\n        /* \"#utility.yul\":12823:12870   */\n      mstore\n        /* \"#utility.yul\":12887:13018   */\n      tag_761\n        /* \"#utility.yul\":13013:13017   */\n      dup2\n        /* \"#utility.yul\":12887:13018   */\n      tag_595\n      jump\t// in\n    tag_761:\n        /* \"#utility.yul\":12879:13018   */\n      swap1\n      pop\n        /* \"#utility.yul\":12606:13025   */\n      swap2\n      swap1\n      pop\n      jump\t// out\n        /* \"#utility.yul\":13031:13168   */\n    tag_596:\n        /* \"#utility.yul\":13085:13090   */\n      0x00\n        /* \"#utility.yul\":13116:13122   */\n      dup2\n        /* \"#utility.yul\":13110:13123   */\n      mload\n        /* \"#utility.yul\":13101:13123   */\n      swap1\n      pop\n        /* \"#utility.yul\":13132:13162   */\n      tag_763\n        /* \"#utility.yul\":13156:13161   */\n      dup2\n        /* \"#utility.yul\":13132:13162   */\n      tag_574\n      jump\t// in\n    tag_763:\n        /* \"#utility.yul\":13031:13168   */\n      swap3\n      swap2\n      pop\n      pop\n      jump\t// out\n        /* \"#utility.yul\":13174:13519   */\n    tag_128:\n        /* \"#utility.yul\":13241:13247   */\n      0x00\n        /* \"#utility.yul\":13290:13292   */\n      0x20\n        /* \"#utility.yul\":13278:13287   */\n      dup3\n        /* \"#utility.yul\":13269:13276   */\n      dup5\n        /* \"#utility.yul\":13265:13288   */\n      sub\n        /* \"#utility.yul\":13261:13293   */\n      slt\n        /* \"#utility.yul\":13258:13377   */\n      iszero\n      tag_765\n      jumpi\n        /* \"#utility.yul\":13296:13375   */\n      tag_766\n      tag_556\n      jump\t// in\n    tag_766:\n        /* \"#utility.yul\":13258:13377   */\n    tag_765:\n        /* \"#utility.yul\":13416:13417   */\n      0x00\n        /* \"#utility.yul\":13441:13502   */\n      tag_767\n        /* \"#utility.yul\":13494:13501   */\n      dup5\n        /* \"#utility.yul\":13485:13491   */\n      dup3\n        /* \"#utility.yul\":13474:13483   */\n      dup6\n        /* \"#utility.yul\":13470:13492   */\n      add\n        /* \"#utility.yul\":13441:13502   */\n      tag_596\n      jump\t// in\n    tag_767:\n        /* \"#utility.yul\":13431:13502   */\n      swap2\n      pop\n        /* \"#utility.yul\":13387:13512   */\n      pop\n        /* \"#utility.yul\":13174:13519   */\n      swap3\n      swap2\n      pop\n      pop\n      jump\t// out\n        /* \"#utility.yul\":13525:13746   */\n    tag_597:\n        /* \"#utility.yul\":13665:13699   */\n      0x537943726f774261727465723a204261736520436f6e74726163742050617573\n        /* \"#utility.yul\":13661:13662   */\n      0x00\n        /* \"#utility.yul\":13653:13659   */\n      dup3\n        /* \"#utility.yul\":13649:13663   */\n      add\n        /* \"#utility.yul\":13642:13700   */\n      mstore\n        /* \"#utility.yul\":13734:13738   */\n      0x6564000000000000000000000000000000000000000000000000000000000000\n        /* \"#utility.yul\":13729:13731   */\n      0x20\n        /* \"#utility.yul\":13721:13727   */\n      dup3\n        /* \"#utility.yul\":13717:13732   */\n      add\n        /* \"#utility.yul\":13710:13739   */\n      mstore\n        /* \"#utility.yul\":13525:13746   */\n      pop\n      jump\t// out\n        /* \"#utility.yul\":13752:14118   */\n    tag_598:\n        /* \"#utility.yul\":13894:13897   */\n      0x00\n        /* \"#utility.yul\":13915:13982   */\n      tag_770\n        /* \"#utility.yul\":13979:13981   */\n      0x22\n        /* \"#utility.yul\":13974:13977   */\n      dup4\n        /* \"#utility.yul\":13915:13982   */\n      tag_591\n      jump\t// in\n    tag_770:\n        /* \"#utility.yul\":13908:13982   */\n      swap2\n      pop\n        /* \"#utility.yul\":13991:14084   */\n      tag_771\n        /* \"#utility.yul\":14080:14083   */\n      dup3\n        /* \"#utility.yul\":13991:14084   */\n      tag_597\n      jump\t// in\n    tag_771:\n        /* \"#utility.yul\":14109:14111   */\n      0x40\n        /* \"#utility.yul\":14104:14107   */\n      dup3\n        /* \"#utility.yul\":14100:14112   */\n      add\n        /* \"#utility.yul\":14093:14112   */\n      swap1\n      pop\n        /* \"#utility.yul\":13752:14118   */\n      swap2\n      swap1\n      pop\n      jump\t// out\n        /* \"#utility.yul\":14124:14543   */\n    tag_131:\n        /* \"#utility.yul\":14290:14294   */\n      0x00\n        /* \"#utility.yul\":14328:14330   */\n      0x20\n        /* \"#utility.yul\":14317:14326   */\n      dup3\n        /* \"#utility.yul\":14313:14331   */\n      add\n        /* \"#utility.yul\":14305:14331   */\n      swap1\n      pop\n        /* \"#utility.yul\":14377:14386   */\n      dup2\n        /* \"#utility.yul\":14371:14375   */\n      dup2\n        /* \"#utility.yul\":14367:14387   */\n      sub\n        /* \"#utility.yul\":14363:14364   */\n      0x00\n        /* \"#utility.yul\":14352:14361   */\n      dup4\n        /* \"#utility.yul\":14348:14365   */\n      add\n        /* \"#utility.yul\":14341:14388   */\n      mstore\n        /* \"#utility.yul\":14405:14536   */\n      tag_773\n        /* \"#utility.yul\":14531:14535   */\n      dup2\n        /* \"#utility.yul\":14405:14536   */\n      tag_598\n      jump\t// in\n    tag_773:\n        /* \"#utility.yul\":14397:14536   */\n      swap1\n      pop\n        /* \"#utility.yul\":14124:14543   */\n      swap2\n      swap1\n      pop\n      jump\t// out\n        /* \"#utility.yul\":14549:14773   */\n    tag_599:\n        /* \"#utility.yul\":14689:14723   */\n      0x537943726f774261727465723a204d554c54495f54524144455f4e4f545f454e\n        /* \"#utility.yul\":14685:14686   */\n      0x00\n        /* \"#utility.yul\":14677:14683   */\n      dup3\n        /* \"#utility.yul\":14673:14687   */\n      add\n        /* \"#utility.yul\":14666:14724   */\n      mstore\n        /* \"#utility.yul\":14758:14765   */\n      0x41424c4544000000000000000000000000000000000000000000000000000000\n        /* \"#utility.yul\":14753:14755   */\n      0x20\n        /* \"#utility.yul\":14745:14751   */\n      dup3\n        /* \"#utility.yul\":14741:14756   */\n      add\n        /* \"#utility.yul\":14734:14766   */\n      mstore\n        /* \"#utility.yul\":14549:14773   */\n      pop\n      jump\t// out\n        /* \"#utility.yul\":14779:15145   */\n    tag_600:\n        /* \"#utility.yul\":14921:14924   */\n      0x00\n        /* \"#utility.yul\":14942:15009   */\n      tag_776\n        /* \"#utility.yul\":15006:15008   */\n      0x25\n        /* \"#utility.yul\":15001:15004   */\n      dup4\n        /* \"#utility.yul\":14942:15009   */\n      tag_591\n      jump\t// in\n    tag_776:\n        /* \"#utility.yul\":14935:15009   */\n      swap2\n      pop\n        /* \"#utility.yul\":15018:15111   */\n      tag_777\n        /* \"#utility.yul\":15107:15110   */\n      dup3\n        /* \"#utility.yul\":15018:15111   */\n      tag_599\n      jump\t// in\n    tag_777:\n        /* \"#utility.yul\":15136:15138   */\n      0x40\n        /* \"#utility.yul\":15131:15134   */\n      dup3\n        /* \"#utility.yul\":15127:15139   */\n      add\n        /* \"#utility.yul\":15120:15139   */\n      swap1\n      pop\n        /* \"#utility.yul\":14779:15145   */\n      swap2\n      swap1\n      pop\n      jump\t// out\n        /* \"#utility.yul\":15151:15570   */\n    tag_135:\n        /* \"#utility.yul\":15317:15321   */\n      0x00\n        /* \"#utility.yul\":15355:15357   */\n      0x20\n        /* \"#utility.yul\":15344:15353   */\n      dup3\n        /* \"#utility.yul\":15340:15358   */\n      add\n        /* \"#utility.yul\":15332:15358   */\n      swap1\n      pop\n        /* \"#utility.yul\":15404:15413   */\n      dup2\n        /* \"#utility.yul\":15398:15402   */\n      dup2\n        /* \"#utility.yul\":15394:15414   */\n      sub\n        /* \"#utility.yul\":15390:15391   */\n      0x00\n        /* \"#utility.yul\":15379:15388   */\n      dup4\n        /* \"#utility.yul\":15375:15392   */\n      add\n        /* \"#utility.yul\":15368:15415   */\n      mstore\n        /* \"#utility.yul\":15432:15563   */\n      tag_779\n        /* \"#utility.yul\":15558:15562   */\n      dup2\n        /* \"#utility.yul\":15432:15563   */\n      tag_600\n      jump\t// in\n    tag_779:\n        /* \"#utility.yul\":15424:15563   */\n      swap1\n      pop\n        /* \"#utility.yul\":15151:15570   */\n      swap2\n      swap1\n      pop\n      jump\t// out\n        /* \"#utility.yul\":15576:15796   */\n    tag_601:\n        /* \"#utility.yul\":15716:15750   */\n      0x537943726f774261727465723a20494e56414c49445f4241525445525f545950\n        /* \"#utility.yul\":15712:15713   */\n      0x00\n        /* \"#utility.yul\":15704:15710   */\n      dup3\n        /* \"#utility.yul\":15700:15714   */\n      add\n        /* \"#utility.yul\":15693:15751   */\n      mstore\n        /* \"#utility.yul\":15785:15788   */\n      0x4500000000000000000000000000000000000000000000000000000000000000\n        /* \"#utility.yul\":15780:15782   */\n      0x20\n        /* \"#utility.yul\":15772:15778   */\n      dup3\n        /* \"#utility.yul\":15768:15783   */\n      add\n        /* \"#utility.yul\":15761:15789   */\n      mstore\n        /* \"#utility.yul\":15576:15796   */\n      pop\n      jump\t// out\n        /* \"#utility.yul\":15802:16168   */\n    tag_602:\n        /* \"#utility.yul\":15944:15947   */\n      0x00\n        /* \"#utility.yul\":15965:16032   */\n      tag_782\n        /* \"#utility.yul\":16029:16031   */\n      0x21\n        /* \"#utility.yul\":16024:16027   */\n      dup4\n        /* \"#utility.yul\":15965:16032   */\n      tag_591\n      jump\t// in\n    tag_782:\n        /* \"#utility.yul\":15958:16032   */\n      swap2\n      pop\n        /* \"#utility.yul\":16041:16134   */\n      tag_783\n        /* \"#utility.yul\":16130:16133   */\n      dup3\n        /* \"#utility.yul\":16041:16134   */\n      tag_601\n      jump\t// in\n    tag_783:\n        /* \"#utility.yul\":16159:16161   */\n      0x40\n        /* \"#utility.yul\":16154:16157   */\n      dup3\n        /* \"#utility.yul\":16150:16162   */\n      add\n        /* \"#utility.yul\":16143:16162   */\n      swap1\n      pop\n        /* \"#utility.yul\":15802:16168   */\n      swap2\n      swap1\n      pop\n      jump\t// out\n        /* \"#utility.yul\":16174:16593   */\n    tag_144:\n        /* \"#utility.yul\":16340:16344   */\n      0x00\n        /* \"#utility.yul\":16378:16380   */\n      0x20\n        /* \"#utility.yul\":16367:16376   */\n      dup3\n        /* \"#utility.yul\":16363:16381   */\n      add\n        /* \"#utility.yul\":16355:16381   */\n      swap1\n      pop\n        /* \"#utility.yul\":16427:16436   */\n      dup2\n        /* \"#utility.yul\":16421:16425   */\n      dup2\n        /* \"#utility.yul\":16417:16437   */\n      sub\n        /* \"#utility.yul\":16413:16414   */\n      0x00\n        /* \"#utility.yul\":16402:16411   */\n      dup4\n        /* \"#utility.yul\":16398:16415   */\n      add\n        /* \"#utility.yul\":16391:16438   */\n      mstore\n        /* \"#utility.yul\":16455:16586   */\n      tag_785\n        /* \"#utility.yul\":16581:16585   */\n      dup2\n        /* \"#utility.yul\":16455:16586   */\n      tag_602\n      jump\t// in\n    tag_785:\n        /* \"#utility.yul\":16447:16586   */\n      swap1\n      pop\n        /* \"#utility.yul\":16174:16593   */\n      swap2\n      swap1\n      pop\n      jump\t// out\n        /* \"#utility.yul\":16599:16769   */\n    tag_603:\n        /* \"#utility.yul\":16739:16761   */\n      0x537943726f774261727465723a20414354495645000000000000000000000000\n        /* \"#utility.yul\":16735:16736   */\n      0x00\n        /* \"#utility.yul\":16727:16733   */\n      dup3\n        /* \"#utility.yul\":16723:16737   */\n      add\n        /* \"#utility.yul\":16716:16762   */\n      mstore\n        /* \"#utility.yul\":16599:16769   */\n      pop\n      jump\t// out\n        /* \"#utility.yul\":16775:17141   */\n    tag_604:\n        /* \"#utility.yul\":16917:16920   */\n      0x00\n        /* \"#utility.yul\":16938:17005   */\n      tag_788\n        /* \"#utility.yul\":17002:17004   */\n      0x14\n        /* \"#utility.yul\":16997:17000   */\n      dup4\n        /* \"#utility.yul\":16938:17005   */\n      tag_591\n      jump\t// in\n    tag_788:\n        /* \"#utility.yul\":16931:17005   */\n      swap2\n      pop\n        /* \"#utility.yul\":17014:17107   */\n      tag_789\n        /* \"#utility.yul\":17103:17106   */\n      dup3\n        /* \"#utility.yul\":17014:17107   */\n      tag_603\n      jump\t// in\n    tag_789:\n        /* \"#utility.yul\":17132:17134   */\n      0x20\n        /* \"#utility.yul\":17127:17130   */\n      dup3\n        /* \"#utility.yul\":17123:17135   */\n      add\n        /* \"#utility.yul\":17116:17135   */\n      swap1\n      pop\n        /* \"#utility.yul\":16775:17141   */\n      swap2\n      swap1\n      pop\n      jump\t// out\n        /* \"#utility.yul\":17147:17566   */\n    tag_178:\n        /* \"#utility.yul\":17313:17317   */\n      0x00\n        /* \"#utility.yul\":17351:17353   */\n      0x20\n        /* \"#utility.yul\":17340:17349   */\n      dup3\n        /* \"#utility.yul\":17336:17354   */\n      add\n        /* \"#utility.yul\":17328:17354   */\n      swap1\n      pop\n        /* \"#utility.yul\":17400:17409   */\n      dup2\n        /* \"#utility.yul\":17394:17398   */\n      dup2\n        /* \"#utility.yul\":17390:17410   */\n      sub\n        /* \"#utility.yul\":17386:17387   */\n      0x00\n        /* \"#utility.yul\":17375:17384   */\n      dup4\n        /* \"#utility.yul\":17371:17388   */\n      add\n        /* \"#utility.yul\":17364:17411   */\n      mstore\n        /* \"#utility.yul\":17428:17559   */\n      tag_791\n        /* \"#utility.yul\":17554:17558   */\n      dup2\n        /* \"#utility.yul\":17428:17559   */\n      tag_604\n      jump\t// in\n    tag_791:\n        /* \"#utility.yul\":17420:17559   */\n      swap1\n      pop\n        /* \"#utility.yul\":17147:17566   */\n      swap2\n      swap1\n      pop\n      jump\t// out\n        /* \"#utility.yul\":17572:17754   */\n    tag_605:\n        /* \"#utility.yul\":17712:17746   */\n      0x4f776e61626c653a2063616c6c6572206973206e6f7420746865206f776e6572\n        /* \"#utility.yul\":17708:17709   */\n      0x00\n        /* \"#utility.yul\":17700:17706   */\n      dup3\n        /* \"#utility.yul\":17696:17710   */\n      add\n        /* \"#utility.yul\":17689:17747   */\n      mstore\n        /* \"#utility.yul\":17572:17754   */\n      pop\n      jump\t// out\n        /* \"#utility.yul\":17760:18126   */\n    tag_606:\n        /* \"#utility.yul\":17902:17905   */\n      0x00\n        /* \"#utility.yul\":17923:17990   */\n      tag_794\n        /* \"#utility.yul\":17987:17989   */\n      0x20\n        /* \"#utility.yul\":17982:17985   */\n      dup4\n        /* \"#utility.yul\":17923:17990   */\n      tag_591\n      jump\t// in\n    tag_794:\n        /* \"#utility.yul\":17916:17990   */\n      swap2\n      pop\n        /* \"#utility.yul\":17999:18092   */\n      tag_795\n        /* \"#utility.yul\":18088:18091   */\n      dup3\n        /* \"#utility.yul\":17999:18092   */\n      tag_605\n      jump\t// in\n    tag_795:\n        /* \"#utility.yul\":18117:18119   */\n      0x20\n        /* \"#utility.yul\":18112:18115   */\n      dup3\n        /* \"#utility.yul\":18108:18120   */\n      add\n        /* \"#utility.yul\":18101:18120   */\n      swap1\n      pop\n        /* \"#utility.yul\":17760:18126   */\n      swap2\n      swap1\n      pop\n      jump\t// out\n        /* \"#utility.yul\":18132:18551   */\n    tag_188:\n        /* \"#utility.yul\":18298:18302   */\n      0x00\n        /* \"#utility.yul\":18336:18338   */\n      0x20\n        /* \"#utility.yul\":18325:18334   */\n      dup3\n        /* \"#utility.yul\":18321:18339   */\n      add\n        /* \"#utility.yul\":18313:18339   */\n      swap1\n      pop\n        /* \"#utility.yul\":18385:18394   */\n      dup2\n        /* \"#utility.yul\":18379:18383   */\n      dup2\n        /* \"#utility.yul\":18375:18395   */\n      sub\n        /* \"#utility.yul\":18371:18372   */\n      0x00\n        /* \"#utility.yul\":18360:18369   */\n      dup4\n        /* \"#utility.yul\":18356:18373   */\n      add\n        /* \"#utility.yul\":18349:18396   */\n      mstore\n        /* \"#utility.yul\":18413:18544   */\n      tag_797\n        /* \"#utility.yul\":18539:18543   */\n      dup2\n        /* \"#utility.yul\":18413:18544   */\n      tag_606\n      jump\t// in\n    tag_797:\n        /* \"#utility.yul\":18405:18544   */\n      swap1\n      pop\n        /* \"#utility.yul\":18132:18551   */\n      swap2\n      swap1\n      pop\n      jump\t// out\n        /* \"#utility.yul\":18557:18700   */\n    tag_607:\n        /* \"#utility.yul\":18614:18619   */\n      0x00\n        /* \"#utility.yul\":18645:18651   */\n      dup2\n        /* \"#utility.yul\":18639:18652   */\n      mload\n        /* \"#utility.yul\":18630:18652   */\n      swap1\n      pop\n        /* \"#utility.yul\":18661:18694   */\n      tag_799\n        /* \"#utility.yul\":18688:18693   */\n      dup2\n        /* \"#utility.yul\":18661:18694   */\n      tag_559\n      jump\t// in\n    tag_799:\n        /* \"#utility.yul\":18557:18700   */\n      swap3\n      swap2\n      pop\n      pop\n      jump\t// out\n        /* \"#utility.yul\":18706:19057   */\n    tag_194:\n        /* \"#utility.yul\":18776:18782   */\n      0x00\n        /* \"#utility.yul\":18825:18827   */\n      0x20\n        /* \"#utility.yul\":18813:18822   */\n      dup3\n        /* \"#utility.yul\":18804:18811   */\n      dup5\n        /* \"#utility.yul\":18800:18823   */\n      sub\n        /* \"#utility.yul\":18796:18828   */\n      slt\n        /* \"#utility.yul\":18793:18912   */\n      iszero\n      tag_801\n      jumpi\n        /* \"#utility.yul\":18831:18910   */\n      tag_802\n      tag_556\n      jump\t// in\n    tag_802:\n        /* \"#utility.yul\":18793:18912   */\n    tag_801:\n        /* \"#utility.yul\":18951:18952   */\n      0x00\n        /* \"#utility.yul\":18976:19040   */\n      tag_803\n        /* \"#utility.yul\":19032:19039   */\n      dup5\n        /* \"#utility.yul\":19023:19029   */\n      dup3\n        /* \"#utility.yul\":19012:19021   */\n      dup6\n        /* \"#utility.yul\":19008:19030   */\n      add\n        /* \"#utility.yul\":18976:19040   */\n      tag_607\n      jump\t// in\n    tag_803:\n        /* \"#utility.yul\":18966:19040   */\n      swap2\n      pop\n        /* \"#utility.yul\":18922:19050   */\n      pop\n        /* \"#utility.yul\":18706:19057   */\n      swap3\n      swap2\n      pop\n      pop\n      jump\t// out\n        /* \"#utility.yul\":19063:19616   */\n    tag_228:\n        /* \"#utility.yul\":19240:19244   */\n      0x00\n        /* \"#utility.yul\":19278:19281   */\n      0x80\n        /* \"#utility.yul\":19267:19276   */\n      dup3\n        /* \"#utility.yul\":19263:19282   */\n      add\n        /* \"#utility.yul\":19255:19282   */\n      swap1\n      pop\n        /* \"#utility.yul\":19292:19363   */\n      tag_805\n        /* \"#utility.yul\":19360:19361   */\n      0x00\n        /* \"#utility.yul\":19349:19358   */\n      dup4\n        /* \"#utility.yul\":19345:19362   */\n      add\n        /* \"#utility.yul\":19336:19342   */\n      dup8\n        /* \"#utility.yul\":19292:19363   */\n      tag_576\n      jump\t// in\n    tag_805:\n        /* \"#utility.yul\":19373:19445   */\n      tag_806\n        /* \"#utility.yul\":19441:19443   */\n      0x20\n        /* \"#utility.yul\":19430:19439   */\n      dup4\n        /* \"#utility.yul\":19426:19444   */\n      add\n        /* \"#utility.yul\":19417:19423   */\n      dup7\n        /* \"#utility.yul\":19373:19445   */\n      tag_576\n      jump\t// in\n    tag_806:\n        /* \"#utility.yul\":19455:19527   */\n      tag_807\n        /* \"#utility.yul\":19523:19525   */\n      0x40\n        /* \"#utility.yul\":19512:19521   */\n      dup4\n        /* \"#utility.yul\":19508:19526   */\n      add\n        /* \"#utility.yul\":19499:19505   */\n      dup6\n        /* \"#utility.yul\":19455:19527   */\n      tag_563\n      jump\t// in\n    tag_807:\n        /* \"#utility.yul\":19537:19609   */\n      tag_808\n        /* \"#utility.yul\":19605:19607   */\n      0x60\n        /* \"#utility.yul\":19594:19603   */\n      dup4\n        /* \"#utility.yul\":19590:19608   */\n      add\n        /* \"#utility.yul\":19581:19587   */\n      dup5\n        /* \"#utility.yul\":19537:19609   */\n      tag_563\n      jump\t// in\n    tag_808:\n        /* \"#utility.yul\":19063:19616   */\n      swap6\n      swap5\n      pop\n      pop\n      pop\n      pop\n      pop\n      jump\t// out\n        /* \"#utility.yul\":19622:19795   */\n    tag_608:\n        /* \"#utility.yul\":19762:19787   */\n      0x537943726f774261727465723a20464f5242494444454e000000000000000000\n        /* \"#utility.yul\":19758:19759   */\n      0x00\n        /* \"#utility.yul\":19750:19756   */\n      dup3\n        /* \"#utility.yul\":19746:19760   */\n      add\n        /* \"#utility.yul\":19739:19788   */\n      mstore\n        /* \"#utility.yul\":19622:19795   */\n      pop\n      jump\t// out\n        /* \"#utility.yul\":19801:20167   */\n    tag_609:\n        /* \"#utility.yul\":19943:19946   */\n      0x00\n        /* \"#utility.yul\":19964:20031   */\n      tag_811\n        /* \"#utility.yul\":20028:20030   */\n      0x17\n        /* \"#utility.yul\":20023:20026   */\n      dup4\n        /* \"#utility.yul\":19964:20031   */\n      tag_591\n      jump\t// in\n    tag_811:\n        /* \"#utility.yul\":19957:20031   */\n      swap2\n      pop\n        /* \"#utility.yul\":20040:20133   */\n      tag_812\n        /* \"#utility.yul\":20129:20132   */\n      dup3\n        /* \"#utility.yul\":20040:20133   */\n      tag_608\n      jump\t// in\n    tag_812:\n        /* \"#utility.yul\":20158:20160   */\n      0x20\n        /* \"#utility.yul\":20153:20156   */\n      dup3\n        /* \"#utility.yul\":20149:20161   */\n      add\n        /* \"#utility.yul\":20142:20161   */\n      swap1\n      pop\n        /* \"#utility.yul\":19801:20167   */\n      swap2\n      swap1\n      pop\n      jump\t// out\n        /* \"#utility.yul\":20173:20592   */\n    tag_277:\n        /* \"#utility.yul\":20339:20343   */\n      0x00\n        /* \"#utility.yul\":20377:20379   */\n      0x20\n        /* \"#utility.yul\":20366:20375   */\n      dup3\n        /* \"#utility.yul\":20362:20380   */\n      add\n        /* \"#utility.yul\":20354:20380   */\n      swap1\n      pop\n        /* \"#utility.yul\":20426:20435   */\n      dup2\n        /* \"#utility.yul\":20420:20424   */\n      dup2\n        /* \"#utility.yul\":20416:20436   */\n      sub\n        /* \"#utility.yul\":20412:20413   */\n      0x00\n        /* \"#utility.yul\":20401:20410   */\n      dup4\n        /* \"#utility.yul\":20397:20414   */\n      add\n        /* \"#utility.yul\":20390:20437   */\n      mstore\n        /* \"#utility.yul\":20454:20585   */\n      tag_814\n        /* \"#utility.yul\":20580:20584   */\n      dup2\n        /* \"#utility.yul\":20454:20585   */\n      tag_609\n      jump\t// in\n    tag_814:\n        /* \"#utility.yul\":20446:20585   */\n      swap1\n      pop\n        /* \"#utility.yul\":20173:20592   */\n      swap2\n      swap1\n      pop\n      jump\t// out\n        /* \"#utility.yul\":20598:20818   */\n    tag_610:\n        /* \"#utility.yul\":20738:20772   */\n      0x537943726f774261727465723a20414c52454144595f494e495449414c495a45\n        /* \"#utility.yul\":20734:20735   */\n      0x00\n        /* \"#utility.yul\":20726:20732   */\n      dup3\n        /* \"#utility.yul\":20722:20736   */\n      add\n        /* \"#utility.yul\":20715:20773   */\n      mstore\n        /* \"#utility.yul\":20807:20810   */\n      0x4400000000000000000000000000000000000000000000000000000000000000\n        /* \"#utility.yul\":20802:20804   */\n      0x20\n        /* \"#utility.yul\":20794:20800   */\n      dup3\n        /* \"#utility.yul\":20790:20805   */\n      add\n        /* \"#utility.yul\":20783:20811   */\n      mstore\n        /* \"#utility.yul\":20598:20818   */\n      pop\n      jump\t// out\n        /* \"#utility.yul\":20824:21190   */\n    tag_611:\n        /* \"#utility.yul\":20966:20969   */\n      0x00\n        /* \"#utility.yul\":20987:21054   */\n      tag_817\n        /* \"#utility.yul\":21051:21053   */\n      0x21\n        /* \"#utility.yul\":21046:21049   */\n      dup4\n        /* \"#utility.yul\":20987:21054   */\n      tag_591\n      jump\t// in\n    tag_817:\n        /* \"#utility.yul\":20980:21054   */\n      swap2\n      pop\n        /* \"#utility.yul\":21063:21156   */\n      tag_818\n        /* \"#utility.yul\":21152:21155   */\n      dup3\n        /* \"#utility.yul\":21063:21156   */\n      tag_610\n      jump\t// in\n    tag_818:\n        /* \"#utility.yul\":21181:21183   */\n      0x40\n        /* \"#utility.yul\":21176:21179   */\n      dup3\n        /* \"#utility.yul\":21172:21184   */\n      add\n        /* \"#utility.yul\":21165:21184   */\n      swap1\n      pop\n        /* \"#utility.yul\":20824:21190   */\n      swap2\n      swap1\n      pop\n      jump\t// out\n        /* \"#utility.yul\":21196:21615   */\n    tag_291:\n        /* \"#utility.yul\":21362:21366   */\n      0x00\n        /* \"#utility.yul\":21400:21402   */\n      0x20\n        /* \"#utility.yul\":21389:21398   */\n      dup3\n        /* \"#utility.yul\":21385:21403   */\n      add\n        /* \"#utility.yul\":21377:21403   */\n      swap1\n      pop\n        /* \"#utility.yul\":21449:21458   */\n      dup2\n        /* \"#utility.yul\":21443:21447   */\n      dup2\n        /* \"#utility.yul\":21439:21459   */\n      sub\n        /* \"#utility.yul\":21435:21436   */\n      0x00\n        /* \"#utility.yul\":21424:21433   */\n      dup4\n        /* \"#utility.yul\":21420:21437   */\n      add\n        /* \"#utility.yul\":21413:21460   */\n      mstore\n        /* \"#utility.yul\":21477:21608   */\n      tag_820\n        /* \"#utility.yul\":21603:21607   */\n      dup2\n        /* \"#utility.yul\":21477:21608   */\n      tag_611\n      jump\t// in\n    tag_820:\n        /* \"#utility.yul\":21469:21608   */\n      swap1\n      pop\n        /* \"#utility.yul\":21196:21615   */\n      swap2\n      swap1\n      pop\n      jump\t// out\n        /* \"#utility.yul\":21621:21798   */\n    tag_612:\n        /* \"#utility.yul\":21761:21790   */\n      0x537943726f774261727465723a20504153545f444541444c494e450000000000\n        /* \"#utility.yul\":21757:21758   */\n      0x00\n        /* \"#utility.yul\":21749:21755   */\n      dup3\n        /* \"#utility.yul\":21745:21759   */\n      add\n        /* \"#utility.yul\":21738:21791   */\n      mstore\n        /* \"#utility.yul\":21621:21798   */\n      pop\n      jump\t// out\n        /* \"#utility.yul\":21804:22170   */\n    tag_613:\n        /* \"#utility.yul\":21946:21949   */\n      0x00\n        /* \"#utility.yul\":21967:22034   */\n      tag_823\n        /* \"#utility.yul\":22031:22033   */\n      0x1b\n        /* \"#utility.yul\":22026:22029   */\n      dup4\n        /* \"#utility.yul\":21967:22034   */\n      tag_591\n      jump\t// in\n    tag_823:\n        /* \"#utility.yul\":21960:22034   */\n      swap2\n      pop\n        /* \"#utility.yul\":22043:22136   */\n      tag_824\n        /* \"#utility.yul\":22132:22135   */\n      dup3\n        /* \"#utility.yul\":22043:22136   */\n      tag_612\n      jump\t// in\n    tag_824:\n        /* \"#utility.yul\":22161:22163   */\n      0x20\n        /* \"#utility.yul\":22156:22159   */\n      dup3\n        /* \"#utility.yul\":22152:22164   */\n      add\n        /* \"#utility.yul\":22145:22164   */\n      swap1\n      pop\n        /* \"#utility.yul\":21804:22170   */\n      swap2\n      swap1\n      pop\n      jump\t// out\n        /* \"#utility.yul\":22176:22595   */\n    tag_294:\n        /* \"#utility.yul\":22342:22346   */\n      0x00\n        /* \"#utility.yul\":22380:22382   */\n      0x20\n        /* \"#utility.yul\":22369:22378   */\n      dup3\n        /* \"#utility.yul\":22365:22383   */\n      add\n        /* \"#utility.yul\":22357:22383   */\n      swap1\n      pop\n        /* \"#utility.yul\":22429:22438   */\n      dup2\n        /* \"#utility.yul\":22423:22427   */\n      dup2\n        /* \"#utility.yul\":22419:22439   */\n      sub\n        /* \"#utility.yul\":22415:22416   */\n      0x00\n        /* \"#utility.yul\":22404:22413   */\n      dup4\n        /* \"#utility.yul\":22400:22417   */\n      add\n        /* \"#utility.yul\":22393:22440   */\n      mstore\n        /* \"#utility.yul\":22457:22588   */\n      tag_826\n        /* \"#utility.yul\":22583:22587   */\n      dup2\n        /* \"#utility.yul\":22457:22588   */\n      tag_613\n      jump\t// in\n    tag_826:\n        /* \"#utility.yul\":22449:22588   */\n      swap1\n      pop\n        /* \"#utility.yul\":22176:22595   */\n      swap2\n      swap1\n      pop\n      jump\t// out\n        /* \"#utility.yul\":22601:22822   */\n    tag_614:\n        /* \"#utility.yul\":22741:22775   */\n      0x537943726f774261727465723a20494e53554646494349454e545f4445504f53\n        /* \"#utility.yul\":22737:22738   */\n      0x00\n        /* \"#utility.yul\":22729:22735   */\n      dup3\n        /* \"#utility.yul\":22725:22739   */\n      add\n        /* \"#utility.yul\":22718:22776   */\n      mstore\n        /* \"#utility.yul\":22810:22814   */\n      0x4954000000000000000000000000000000000000000000000000000000000000\n        /* \"#utility.yul\":22805:22807   */\n      0x20\n        /* \"#utility.yul\":22797:22803   */\n      dup3\n        /* \"#utility.yul\":22793:22808   */\n      add\n        /* \"#utility.yul\":22786:22815   */\n      mstore\n        /* \"#utility.yul\":22601:22822   */\n      pop\n      jump\t// out\n        /* \"#utility.yul\":22828:23194   */\n    tag_615:\n        /* \"#utility.yul\":22970:22973   */\n      0x00\n        /* \"#utility.yul\":22991:23058   */\n      tag_829\n        /* \"#utility.yul\":23055:23057   */\n      0x22\n        /* \"#utility.yul\":23050:23053   */\n      dup4\n        /* \"#utility.yul\":22991:23058   */\n      tag_591\n      jump\t// in\n    tag_829:\n        /* \"#utility.yul\":22984:23058   */\n      swap2\n      pop\n        /* \"#utility.yul\":23067:23160   */\n      tag_830\n        /* \"#utility.yul\":23156:23159   */\n      dup3\n        /* \"#utility.yul\":23067:23160   */\n      tag_614\n      jump\t// in\n    tag_830:\n        /* \"#utility.yul\":23185:23187   */\n      0x40\n        /* \"#utility.yul\":23180:23183   */\n      dup3\n        /* \"#utility.yul\":23176:23188   */\n      add\n        /* \"#utility.yul\":23169:23188   */\n      swap1\n      pop\n        /* \"#utility.yul\":22828:23194   */\n      swap2\n      swap1\n      pop\n      jump\t// out\n        /* \"#utility.yul\":23200:23619   */\n    tag_301:\n        /* \"#utility.yul\":23366:23370   */\n      0x00\n        /* \"#utility.yul\":23404:23406   */\n      0x20\n        /* \"#utility.yul\":23393:23402   */\n      dup3\n        /* \"#utility.yul\":23389:23407   */\n      add\n        /* \"#utility.yul\":23381:23407   */\n      swap1\n      pop\n        /* \"#utility.yul\":23453:23462   */\n      dup2\n        /* \"#utility.yul\":23447:23451   */\n      dup2\n        /* \"#utility.yul\":23443:23463   */\n      sub\n        /* \"#utility.yul\":23439:23440   */\n      0x00\n        /* \"#utility.yul\":23428:23437   */\n      dup4\n        /* \"#utility.yul\":23424:23441   */\n      add\n        /* \"#utility.yul\":23417:23464   */\n      mstore\n        /* \"#utility.yul\":23481:23612   */\n      tag_832\n        /* \"#utility.yul\":23607:23611   */\n      dup2\n        /* \"#utility.yul\":23481:23612   */\n      tag_615\n      jump\t// in\n    tag_832:\n        /* \"#utility.yul\":23473:23612   */\n      swap1\n      pop\n        /* \"#utility.yul\":23200:23619   */\n      swap2\n      swap1\n      pop\n      jump\t// out\n        /* \"#utility.yul\":23625:23805   */\n    tag_399:\n        /* \"#utility.yul\":23673:23750   */\n      0x4e487b7100000000000000000000000000000000000000000000000000000000\n        /* \"#utility.yul\":23670:23671   */\n      0x00\n        /* \"#utility.yul\":23663:23751   */\n      mstore\n        /* \"#utility.yul\":23770:23774   */\n      0x41\n        /* \"#utility.yul\":23767:23768   */\n      0x04\n        /* \"#utility.yul\":23760:23775   */\n      mstore\n        /* \"#utility.yul\":23794:23798   */\n      0x24\n        /* \"#utility.yul\":23791:23792   */\n      0x00\n        /* \"#utility.yul\":23784:23799   */\n      revert\n        /* \"#utility.yul\":23811:23991   */\n    tag_412:\n        /* \"#utility.yul\":23859:23936   */\n      0x4e487b7100000000000000000000000000000000000000000000000000000000\n        /* \"#utility.yul\":23856:23857   */\n      0x00\n        /* \"#utility.yul\":23849:23937   */\n      mstore\n        /* \"#utility.yul\":23956:23960   */\n      0x32\n        /* \"#utility.yul\":23953:23954   */\n      0x04\n        /* \"#utility.yul\":23946:23961   */\n      mstore\n        /* \"#utility.yul\":23980:23984   */\n      0x24\n        /* \"#utility.yul\":23977:23978   */\n      0x00\n        /* \"#utility.yul\":23970:23985   */\n      revert\n        /* \"#utility.yul\":23997:24177   */\n    tag_616:\n        /* \"#utility.yul\":24045:24122   */\n      0x4e487b7100000000000000000000000000000000000000000000000000000000\n        /* \"#utility.yul\":24042:24043   */\n      0x00\n        /* \"#utility.yul\":24035:24123   */\n      mstore\n        /* \"#utility.yul\":24142:24146   */\n      0x11\n        /* \"#utility.yul\":24139:24140   */\n      0x04\n        /* \"#utility.yul\":24132:24147   */\n      mstore\n        /* \"#utility.yul\":24166:24170   */\n      0x24\n        /* \"#utility.yul\":24163:24164   */\n      0x00\n        /* \"#utility.yul\":24156:24171   */\n      revert\n        /* \"#utility.yul\":24183:24416   */\n    tag_427:\n        /* \"#utility.yul\":24222:24225   */\n      0x00\n        /* \"#utility.yul\":24245:24269   */\n      tag_837\n        /* \"#utility.yul\":24263:24268   */\n      dup3\n        /* \"#utility.yul\":24245:24269   */\n      tag_558\n      jump\t// in\n    tag_837:\n        /* \"#utility.yul\":24236:24269   */\n      swap2\n      pop\n        /* \"#utility.yul\":24291:24357   */\n      0xffffffffffffffffffffffffffffffffffffffffffffffffffffffffffffffff\n        /* \"#utility.yul\":24284:24289   */\n      dup3\n        /* \"#utility.yul\":24281:24358   */\n      sub\n        /* \"#utility.yul\":24278:24381   */\n      tag_838\n      jumpi\n        /* \"#utility.yul\":24361:24379   */\n      tag_839\n      tag_616\n      jump\t// in\n    tag_839:\n        /* \"#utility.yul\":24278:24381   */\n    tag_838:\n        /* \"#utility.yul\":24408:24409   */\n      0x01\n        /* \"#utility.yul\":24401:24406   */\n      dup3\n        /* \"#utility.yul\":24397:24410   */\n      add\n        /* \"#utility.yul\":24390:24410   */\n      swap1\n      pop\n        /* \"#utility.yul\":24183:24416   */\n      swap2\n      swap1\n      pop\n      jump\t// out\n        /* \"#utility.yul\":24422:24647   */\n    tag_617:\n        /* \"#utility.yul\":24562:24596   */\n      0x4f776e61626c653a206e6577206f776e657220697320746865207a65726f2061\n        /* \"#utility.yul\":24558:24559   */\n      0x00\n        /* \"#utility.yul\":24550:24556   */\n      dup3\n        /* \"#utility.yul\":24546:24560   */\n      add\n        /* \"#utility.yul\":24539:24597   */\n      mstore\n        /* \"#utility.yul\":24631:24639   */\n      0x6464726573730000000000000000000000000000000000000000000000000000\n        /* \"#utility.yul\":24626:24628   */\n      0x20\n        /* \"#utility.yul\":24618:24624   */\n      dup3\n        /* \"#utility.yul\":24614:24629   */\n      add\n        /* \"#utility.yul\":24607:24640   */\n      mstore\n        /* \"#utility.yul\":24422:24647   */\n      pop\n      jump\t// out\n        /* \"#utility.yul\":24653:25019   */\n    tag_618:\n        /* \"#utility.yul\":24795:24798   */\n      0x00\n        /* \"#utility.yul\":24816:24883   */\n      tag_842\n        /* \"#utility.yul\":24880:24882   */\n      0x26\n        /* \"#utility.yul\":24875:24878   */\n      dup4\n        /* \"#utility.yul\":24816:24883   */\n      tag_591\n      jump\t// in\n    tag_842:\n        /* \"#utility.yul\":24809:24883   */\n      swap2\n      pop\n        /* \"#utility.yul\":24892:24985   */\n      tag_843\n        /* \"#utility.yul\":24981:24984   */\n      dup3\n        /* \"#utility.yul\":24892:24985   */\n      tag_617\n      jump\t// in\n    tag_843:\n        /* \"#utility.yul\":25010:25012   */\n      0x40\n        /* \"#utility.yul\":25005:25008   */\n      dup3\n        /* \"#utility.yul\":25001:25013   */\n      add\n        /* \"#utility.yul\":24994:25013   */\n      swap1\n      pop\n        /* \"#utility.yul\":24653:25019   */\n      swap2\n      swap1\n      pop\n      jump\t// out\n        /* \"#utility.yul\":25025:25444   */\n    tag_436:\n        /* \"#utility.yul\":25191:25195   */\n      0x00\n        /* \"#utility.yul\":25229:25231   */\n      0x20\n        /* \"#utility.yul\":25218:25227   */\n      dup3\n        /* \"#utility.yul\":25214:25232   */\n      add\n        /* \"#utility.yul\":25206:25232   */\n      swap1\n      pop\n        /* \"#utility.yul\":25278:25287   */\n      dup2\n        /* \"#utility.yul\":25272:25276   */\n      dup2\n        /* \"#utility.yul\":25268:25288   */\n      sub\n        /* \"#utility.yul\":25264:25265   */\n      0x00\n        /* \"#utility.yul\":25253:25262   */\n      dup4\n        /* \"#utility.yul\":25249:25266   */\n      add\n        /* \"#utility.yul\":25242:25289   */\n      mstore\n        /* \"#utility.yul\":25306:25437   */\n      tag_845\n        /* \"#utility.yul\":25432:25436   */\n      dup2\n        /* \"#utility.yul\":25306:25437   */\n      tag_618\n      jump\t// in\n    tag_845:\n        /* \"#utility.yul\":25298:25437   */\n      swap1\n      pop\n        /* \"#utility.yul\":25025:25444   */\n      swap2\n      swap1\n      pop\n      jump\t// out\n        /* \"#utility.yul\":25450:25671   */\n    tag_619:\n        /* \"#utility.yul\":25590:25624   */\n      0x537943726f774261727465723a20494e53554646494349454e545f42414c414e\n        /* \"#utility.yul\":25586:25587   */\n      0x00\n        /* \"#utility.yul\":25578:25584   */\n      dup3\n        /* \"#utility.yul\":25574:25588   */\n      add\n        /* \"#utility.yul\":25567:25625   */\n      mstore\n        /* \"#utility.yul\":25659:25663   */\n      0x4345000000000000000000000000000000000000000000000000000000000000\n        /* \"#utility.yul\":25654:25656   */\n      0x20\n        /* \"#utility.yul\":25646:25652   */\n      dup3\n        /* \"#utility.yul\":25642:25657   */\n      add\n        /* \"#utility.yul\":25635:25664   */\n      mstore\n        /* \"#utility.yul\":25450:25671   */\n      pop\n      jump\t// out\n        /* \"#utility.yul\":25677:26043   */\n    tag_620:\n        /* \"#utility.yul\":25819:25822   */\n      0x00\n        /* \"#utility.yul\":25840:25907   */\n      tag_848\n        /* \"#utility.yul\":25904:25906   */\n      0x22\n        /* \"#utility.yul\":25899:25902   */\n      dup4\n        /* \"#utility.yul\":25840:25907   */\n      tag_591\n      jump\t// in\n    tag_848:\n        /* \"#utility.yul\":25833:25907   */\n      swap2\n      pop\n        /* \"#utility.yul\":25916:26009   */\n      tag_849\n        /* \"#utility.yul\":26005:26008   */\n      dup3\n        /* \"#utility.yul\":25916:26009   */\n      tag_619\n      jump\t// in\n    tag_849:\n        /* \"#utility.yul\":26034:26036   */\n      0x40\n        /* \"#utility.yul\":26029:26032   */\n      dup3\n        /* \"#utility.yul\":26025:26037   */\n      add\n        /* \"#utility.yul\":26018:26037   */\n      swap1\n      pop\n        /* \"#utility.yul\":25677:26043   */\n      swap2\n      swap1\n      pop\n      jump\t// out\n        /* \"#utility.yul\":26049:26468   */\n    tag_449:\n        /* \"#utility.yul\":26215:26219   */\n      0x00\n        /* \"#utility.yul\":26253:26255   */\n      0x20\n        /* \"#utility.yul\":26242:26251   */\n      dup3\n        /* \"#utility.yul\":26238:26256   */\n      add\n        /* \"#utility.yul\":26230:26256   */\n      swap1\n      pop\n        /* \"#utility.yul\":26302:26311   */\n      dup2\n        /* \"#utility.yul\":26296:26300   */\n      dup2\n        /* \"#utility.yul\":26292:26312   */\n      sub\n        /* \"#utility.yul\":26288:26289   */\n      0x00\n        /* \"#utility.yul\":26277:26286   */\n      dup4\n        /* \"#utility.yul\":26273:26290   */\n      add\n        /* \"#utility.yul\":26266:26313   */\n      mstore\n        /* \"#utility.yul\":26330:26461   */\n      tag_851\n        /* \"#utility.yul\":26456:26460   */\n      dup2\n        /* \"#utility.yul\":26330:26461   */\n      tag_620\n      jump\t// in\n    tag_851:\n        /* \"#utility.yul\":26322:26461   */\n      swap1\n      pop\n        /* \"#utility.yul\":26049:26468   */\n      swap2\n      swap1\n      pop\n      jump\t// out\n        /* \"#utility.yul\":26474:26704   */\n    tag_621:\n        /* \"#utility.yul\":26614:26648   */\n      0x537943726f774261727465723a20494e53554646494349454e545f434f4e5452\n        /* \"#utility.yul\":26610:26611   */\n      0x00\n        /* \"#utility.yul\":26602:26608   */\n      dup3\n        /* \"#utility.yul\":26598:26612   */\n      add\n        /* \"#utility.yul\":26591:26649   */\n      mstore\n        /* \"#utility.yul\":26683:26696   */\n      0x4143545f42414c414e4345000000000000000000000000000000000000000000\n        /* \"#utility.yul\":26678:26680   */\n      0x20\n        /* \"#utility.yul\":26670:26676   */\n      dup3\n        /* \"#utility.yul\":26666:26681   */\n      add\n        /* \"#utility.yul\":26659:26697   */\n      mstore\n        /* \"#utility.yul\":26474:26704   */\n      pop\n      jump\t// out\n        /* \"#utility.yul\":26710:27076   */\n    tag_622:\n        /* \"#utility.yul\":26852:26855   */\n      0x00\n        /* \"#utility.yul\":26873:26940   */\n      tag_854\n        /* \"#utility.yul\":26937:26939   */\n      0x2b\n        /* \"#utility.yul\":26932:26935   */\n      dup4\n        /* \"#utility.yul\":26873:26940   */\n      tag_591\n      jump\t// in\n    tag_854:\n        /* \"#utility.yul\":26866:26940   */\n      swap2\n      pop\n        /* \"#utility.yul\":26949:27042   */\n      tag_855\n        /* \"#utility.yul\":27038:27041   */\n      dup3\n        /* \"#utility.yul\":26949:27042   */\n      tag_621\n      jump\t// in\n    tag_855:\n        /* \"#utility.yul\":27067:27069   */\n      0x40\n        /* \"#utility.yul\":27062:27065   */\n      dup3\n        /* \"#utility.yul\":27058:27070   */\n      add\n        /* \"#utility.yul\":27051:27070   */\n      swap1\n      pop\n        /* \"#utility.yul\":26710:27076   */\n      swap2\n      swap1\n      pop\n      jump\t// out\n        /* \"#utility.yul\":27082:27501   */\n    tag_457:\n        /* \"#utility.yul\":27248:27252   */\n      0x00\n        /* \"#utility.yul\":27286:27288   */\n      0x20\n        /* \"#utility.yul\":27275:27284   */\n      dup3\n        /* \"#utility.yul\":27271:27289   */\n      add\n        /* \"#utility.yul\":27263:27289   */\n      swap1\n      pop\n        /* \"#utility.yul\":27335:27344   */\n      dup2\n        /* \"#utility.yul\":27329:27333   */\n      dup2\n        /* \"#utility.yul\":27325:27345   */\n      sub\n        /* \"#utility.yul\":27321:27322   */\n      0x00\n        /* \"#utility.yul\":27310:27319   */\n      dup4\n        /* \"#utility.yul\":27306:27323   */\n      add\n        /* \"#utility.yul\":27299:27346   */\n      mstore\n        /* \"#utility.yul\":27363:27494   */\n      tag_857\n        /* \"#utility.yul\":27489:27493   */\n      dup2\n        /* \"#utility.yul\":27363:27494   */\n      tag_622\n      jump\t// in\n    tag_857:\n        /* \"#utility.yul\":27355:27494   */\n      swap1\n      pop\n        /* \"#utility.yul\":27082:27501   */\n      swap2\n      swap1\n      pop\n      jump\t// out\n        /* \"#utility.yul\":27507:27605   */\n    tag_623:\n        /* \"#utility.yul\":27558:27564   */\n      0x00\n        /* \"#utility.yul\":27592:27597   */\n      dup2\n        /* \"#utility.yul\":27586:27598   */\n      mload\n        /* \"#utility.yul\":27576:27598   */\n      swap1\n      pop\n        /* \"#utility.yul\":27507:27605   */\n      swap2\n      swap1\n      pop\n      jump\t// out\n        /* \"#utility.yul\":27611:27758   */\n    tag_624:\n        /* \"#utility.yul\":27712:27723   */\n      0x00\n        /* \"#utility.yul\":27749:27752   */\n      dup2\n        /* \"#utility.yul\":27734:27752   */\n      swap1\n      pop\n        /* \"#utility.yul\":27611:27758   */\n      swap3\n      swap2\n      pop\n      pop\n      jump\t// out\n        /* \"#utility.yul\":27764:28071   */\n    tag_625:\n        /* \"#utility.yul\":27832:27833   */\n      0x00\n        /* \"#utility.yul\":27842:27955   */\n    tag_861:\n        /* \"#utility.yul\":27856:27862   */\n      dup4\n        /* \"#utility.yul\":27853:27854   */\n      dup2\n        /* \"#utility.yul\":27850:27863   */\n      lt\n        /* \"#utility.yul\":27842:27955   */\n      iszero\n      tag_863\n      jumpi\n        /* \"#utility.yul\":27941:27942   */\n      dup1\n        /* \"#utility.yul\":27936:27939   */\n      dup3\n        /* \"#utility.yul\":27932:27943   */\n      add\n        /* \"#utility.yul\":27926:27944   */\n      mload\n        /* \"#utility.yul\":27922:27923   */\n      dup2\n        /* \"#utility.yul\":27917:27920   */\n      dup5\n        /* \"#utility.yul\":27913:27924   */\n      add\n        /* \"#utility.yul\":27906:27945   */\n      mstore\n        /* \"#utility.yul\":27878:27880   */\n      0x20\n        /* \"#utility.yul\":27875:27876   */\n      dup2\n        /* \"#utility.yul\":27871:27881   */\n      add\n        /* \"#utility.yul\":27866:27881   */\n      swap1\n      pop\n        /* \"#utility.yul\":27842:27955   */\n      jump(tag_861)\n    tag_863:\n        /* \"#utility.yul\":27973:27979   */\n      dup4\n        /* \"#utility.yul\":27970:27971   */\n      dup2\n        /* \"#utility.yul\":27967:27980   */\n      gt\n        /* \"#utility.yul\":27964:28065   */\n      iszero\n      tag_864\n      jumpi\n        /* \"#utility.yul\":28053:28054   */\n      0x00\n        /* \"#utility.yul\":28044:28050   */\n      dup5\n        /* \"#utility.yul\":28039:28042   */\n      dup5\n        /* \"#utility.yul\":28035:28051   */\n      add\n        /* \"#utility.yul\":28028:28055   */\n      mstore\n        /* \"#utility.yul\":27964:28065   */\n    tag_864:\n        /* \"#utility.yul\":27813:28071   */\n      pop\n        /* \"#utility.yul\":27764:28071   */\n      pop\n      pop\n      pop\n      jump\t// out\n        /* \"#utility.yul\":28077:28450   */\n    tag_626:\n        /* \"#utility.yul\":28181:28184   */\n      0x00\n        /* \"#utility.yul\":28209:28247   */\n      tag_866\n        /* \"#utility.yul\":28241:28246   */\n      dup3\n        /* \"#utility.yul\":28209:28247   */\n      tag_623\n      jump\t// in\n    tag_866:\n        /* \"#utility.yul\":28263:28351   */\n      tag_867\n        /* \"#utility.yul\":28344:28350   */\n      dup2\n        /* \"#utility.yul\":28339:28342   */\n      dup6\n        /* \"#utility.yul\":28263:28351   */\n      tag_624\n      jump\t// in\n    tag_867:\n        /* \"#utility.yul\":28256:28351   */\n      swap4\n      pop\n        /* \"#utility.yul\":28360:28412   */\n      tag_868\n        /* \"#utility.yul\":28405:28411   */\n      dup2\n        /* \"#utility.yul\":28400:28403   */\n      dup6\n        /* \"#utility.yul\":28393:28397   */\n      0x20\n        /* \"#utility.yul\":28386:28391   */\n      dup7\n        /* \"#utility.yul\":28382:28398   */\n      add\n        /* \"#utility.yul\":28360:28412   */\n      tag_625\n      jump\t// in\n    tag_868:\n        /* \"#utility.yul\":28437:28443   */\n      dup1\n        /* \"#utility.yul\":28432:28435   */\n      dup5\n        /* \"#utility.yul\":28428:28444   */\n      add\n        /* \"#utility.yul\":28421:28444   */\n      swap2\n      pop\n        /* \"#utility.yul\":28185:28450   */\n      pop\n        /* \"#utility.yul\":28077:28450   */\n      swap3\n      swap2\n      pop\n      pop\n      jump\t// out\n        /* \"#utility.yul\":28456:28727   */\n    tag_497:\n        /* \"#utility.yul\":28586:28589   */\n      0x00\n        /* \"#utility.yul\":28608:28701   */\n      tag_870\n        /* \"#utility.yul\":28697:28700   */\n      dup3\n        /* \"#utility.yul\":28688:28694   */\n      dup5\n        /* \"#utility.yul\":28608:28701   */\n      tag_626\n      jump\t// in\n    tag_870:\n        /* \"#utility.yul\":28601:28701   */\n      swap2\n      pop\n        /* \"#utility.yul\":28718:28721   */\n      dup2\n        /* \"#utility.yul\":28711:28721   */\n      swap1\n      pop\n        /* \"#utility.yul\":28456:28727   */\n      swap3\n      swap2\n      pop\n      pop\n      jump\t// out\n        /* \"#utility.yul\":28733:28955   */\n    tag_627:\n        /* \"#utility.yul\":28873:28907   */\n      0x5472616e7366657248656c7065723a204554485f5452414e534645525f464149\n        /* \"#utility.yul\":28869:28870   */\n      0x00\n        /* \"#utility.yul\":28861:28867   */\n      dup3\n        /* \"#utility.yul\":28857:28871   */\n      add\n        /* \"#utility.yul\":28850:28908   */\n      mstore\n        /* \"#utility.yul\":28942:28947   */\n      0x4c45440000000000000000000000000000000000000000000000000000000000\n        /* \"#utility.yul\":28937:28939   */\n      0x20\n        /* \"#utility.yul\":28929:28935   */\n      dup3\n        /* \"#utility.yul\":28925:28940   */\n      add\n        /* \"#utility.yul\":28918:28948   */\n      mstore\n        /* \"#utility.yul\":28733:28955   */\n      pop\n      jump\t// out\n        /* \"#utility.yul\":28961:29327   */\n    tag_628:\n        /* \"#utility.yul\":29103:29106   */\n      0x00\n        /* \"#utility.yul\":29124:29191   */\n      tag_873\n        /* \"#utility.yul\":29188:29190   */\n      0x23\n        /* \"#utility.yul\":29183:29186   */\n      dup4\n        /* \"#utility.yul\":29124:29191   */\n      tag_591\n      jump\t// in\n    tag_873:\n        /* \"#utility.yul\":29117:29191   */\n      swap2\n      pop\n        /* \"#utility.yul\":29200:29293   */\n      tag_874\n        /* \"#utility.yul\":29289:29292   */\n      dup3\n        /* \"#utility.yul\":29200:29293   */\n      tag_627\n      jump\t// in\n    tag_874:\n        /* \"#utility.yul\":29318:29320   */\n      0x40\n        /* \"#utility.yul\":29313:29316   */\n      dup3\n        /* \"#utility.yul\":29309:29321   */\n      add\n        /* \"#utility.yul\":29302:29321   */\n      swap1\n      pop\n        /* \"#utility.yul\":28961:29327   */\n      swap2\n      swap1\n      pop\n      jump\t// out\n        /* \"#utility.yul\":29333:29752   */\n    tag_503:\n        /* \"#utility.yul\":29499:29503   */\n      0x00\n        /* \"#utility.yul\":29537:29539   */\n      0x20\n        /* \"#utility.yul\":29526:29535   */\n      dup3\n        /* \"#utility.yul\":29522:29540   */\n      add\n        /* \"#utility.yul\":29514:29540   */\n      swap1\n      pop\n        /* \"#utility.yul\":29586:29595   */\n      dup2\n        /* \"#utility.yul\":29580:29584   */\n      dup2\n        /* \"#utility.yul\":29576:29596   */\n      sub\n        /* \"#utility.yul\":29572:29573   */\n      0x00\n        /* \"#utility.yul\":29561:29570   */\n      dup4\n        /* \"#utility.yul\":29557:29574   */\n      add\n        /* \"#utility.yul\":29550:29597   */\n      mstore\n        /* \"#utility.yul\":29614:29745   */\n      tag_876\n        /* \"#utility.yul\":29740:29744   */\n      dup2\n        /* \"#utility.yul\":29614:29745   */\n      tag_628\n      jump\t// in\n    tag_876:\n        /* \"#utility.yul\":29606:29745   */\n      swap1\n      pop\n        /* \"#utility.yul\":29333:29752   */\n      swap2\n      swap1\n      pop\n      jump\t// out\n        /* \"#utility.yul\":29758:30090   */\n    tag_506:\n        /* \"#utility.yul\":29879:29883   */\n      0x00\n        /* \"#utility.yul\":29917:29919   */\n      0x40\n        /* \"#utility.yul\":29906:29915   */\n      dup3\n        /* \"#utility.yul\":29902:29920   */\n      add\n        /* \"#utility.yul\":29894:29920   */\n      swap1\n      pop\n        /* \"#utility.yul\":29930:30001   */\n      tag_878\n        /* \"#utility.yul\":29998:29999   */\n      0x00\n        /* \"#utility.yul\":29987:29996   */\n      dup4\n        /* \"#utility.yul\":29983:30000   */\n      add\n        /* \"#utility.yul\":29974:29980   */\n      dup6\n        /* \"#utility.yul\":29930:30001   */\n      tag_576\n      jump\t// in\n    tag_878:\n        /* \"#utility.yul\":30011:30083   */\n      tag_879\n        /* \"#utility.yul\":30079:30081   */\n      0x20\n        /* \"#utility.yul\":30068:30077   */\n      dup4\n        /* \"#utility.yul\":30064:30082   */\n      add\n        /* \"#utility.yul\":30055:30061   */\n      dup5\n        /* \"#utility.yul\":30011:30083   */\n      tag_563\n      jump\t// in\n    tag_879:\n        /* \"#utility.yul\":29758:30090   */\n      swap4\n      swap3\n      pop\n      pop\n      pop\n      jump\t// out\n        /* \"#utility.yul\":30096:30277   */\n    tag_629:\n        /* \"#utility.yul\":30236:30269   */\n      0x5472616e7366657248656c7065723a205452414e534645525f4641494c454400\n        /* \"#utility.yul\":30232:30233   */\n      0x00\n        /* \"#utility.yul\":30224:30230   */\n      dup3\n        /* \"#utility.yul\":30220:30234   */\n      add\n        /* \"#utility.yul\":30213:30270   */\n      mstore\n        /* \"#utility.yul\":30096:30277   */\n      pop\n      jump\t// out\n        /* \"#utility.yul\":30283:30649   */\n    tag_630:\n        /* \"#utility.yul\":30425:30428   */\n      0x00\n        /* \"#utility.yul\":30446:30513   */\n      tag_882\n        /* \"#utility.yul\":30510:30512   */\n      0x1f\n        /* \"#utility.yul\":30505:30508   */\n      dup4\n        /* \"#utility.yul\":30446:30513   */\n      tag_591\n      jump\t// in\n    tag_882:\n        /* \"#utility.yul\":30439:30513   */\n      swap2\n      pop\n        /* \"#utility.yul\":30522:30615   */\n      tag_883\n        /* \"#utility.yul\":30611:30614   */\n      dup3\n        /* \"#utility.yul\":30522:30615   */\n      tag_629\n      jump\t// in\n    tag_883:\n        /* \"#utility.yul\":30640:30642   */\n      0x20\n        /* \"#utility.yul\":30635:30638   */\n      dup3\n        /* \"#utility.yul\":30631:30643   */\n      add\n        /* \"#utility.yul\":30624:30643   */\n      swap1\n      pop\n        /* \"#utility.yul\":30283:30649   */\n      swap2\n      swap1\n      pop\n      jump\t// out\n        /* \"#utility.yul\":30655:31074   */\n    tag_516:\n        /* \"#utility.yul\":30821:30825   */\n      0x00\n        /* \"#utility.yul\":30859:30861   */\n      0x20\n        /* \"#utility.yul\":30848:30857   */\n      dup3\n        /* \"#utility.yul\":30844:30862   */\n      add\n        /* \"#utility.yul\":30836:30862   */\n      swap1\n      pop\n        /* \"#utility.yul\":30908:30917   */\n      dup2\n        /* \"#utility.yul\":30902:30906   */\n      dup2\n        /* \"#utility.yul\":30898:30918   */\n      sub\n        /* \"#utility.yul\":30894:30895   */\n      0x00\n        /* \"#utility.yul\":30883:30892   */\n      dup4\n        /* \"#utility.yul\":30879:30896   */\n      add\n        /* \"#utility.yul\":30872:30919   */\n      mstore\n        /* \"#utility.yul\":30936:31067   */\n      tag_885\n        /* \"#utility.yul\":31062:31066   */\n      dup2\n        /* \"#utility.yul\":30936:31067   */\n      tag_630\n      jump\t// in\n    tag_885:\n        /* \"#utility.yul\":30928:31067   */\n      swap1\n      pop\n        /* \"#utility.yul\":30655:31074   */\n      swap2\n      swap1\n      pop\n      jump\t// out\n        /* \"#utility.yul\":31080:31428   */\n    tag_539:\n        /* \"#utility.yul\":31120:31127   */\n      0x00\n        /* \"#utility.yul\":31143:31163   */\n      tag_887\n        /* \"#utility.yul\":31161:31162   */\n      dup3\n        /* \"#utility.yul\":31143:31163   */\n      tag_558\n      jump\t// in\n    tag_887:\n        /* \"#utility.yul\":31138:31163   */\n      swap2\n      pop\n        /* \"#utility.yul\":31177:31197   */\n      tag_888\n        /* \"#utility.yul\":31195:31196   */\n      dup4\n        /* \"#utility.yul\":31177:31197   */\n      tag_558\n      jump\t// in\n    tag_888:\n        /* \"#utility.yul\":31172:31197   */\n      swap3\n      pop\n        /* \"#utility.yul\":31365:31366   */\n      dup2\n        /* \"#utility.yul\":31297:31363   */\n      0xffffffffffffffffffffffffffffffffffffffffffffffffffffffffffffffff\n        /* \"#utility.yul\":31293:31367   */\n      div\n        /* \"#utility.yul\":31290:31291   */\n      dup4\n        /* \"#utility.yul\":31287:31368   */\n      gt\n        /* \"#utility.yul\":31282:31283   */\n      dup3\n        /* \"#utility.yul\":31275:31284   */\n      iszero\n        /* \"#utility.yul\":31268:31285   */\n      iszero\n        /* \"#utility.yul\":31264:31369   */\n      and\n        /* \"#utility.yul\":31261:31392   */\n      iszero\n      tag_889\n      jumpi\n        /* \"#utility.yul\":31372:31390   */\n      tag_890\n      tag_616\n      jump\t// in\n    tag_890:\n        /* \"#utility.yul\":31261:31392   */\n    tag_889:\n        /* \"#utility.yul\":31420:31421   */\n      dup3\n        /* \"#utility.yul\":31417:31418   */\n      dup3\n        /* \"#utility.yul\":31413:31422   */\n      mul\n        /* \"#utility.yul\":31402:31422   */\n      swap1\n      pop\n        /* \"#utility.yul\":31080:31428   */\n      swap3\n      swap2\n      pop\n      pop\n      jump\t// out\n        /* \"#utility.yul\":31434:31614   */\n    tag_631:\n        /* \"#utility.yul\":31482:31559   */\n      0x4e487b7100000000000000000000000000000000000000000000000000000000\n        /* \"#utility.yul\":31479:31480   */\n      0x00\n        /* \"#utility.yul\":31472:31560   */\n      mstore\n        /* \"#utility.yul\":31579:31583   */\n      0x12\n        /* \"#utility.yul\":31576:31577   */\n      0x04\n        /* \"#utility.yul\":31569:31584   */\n      mstore\n        /* \"#utility.yul\":31603:31607   */\n      0x24\n        /* \"#utility.yul\":31600:31601   */\n      0x00\n        /* \"#utility.yul\":31593:31608   */\n      revert\n        /* \"#utility.yul\":31620:31805   */\n    tag_541:\n        /* \"#utility.yul\":31660:31661   */\n      0x00\n        /* \"#utility.yul\":31677:31697   */\n      tag_893\n        /* \"#utility.yul\":31695:31696   */\n      dup3\n        /* \"#utility.yul\":31677:31697   */\n      tag_558\n      jump\t// in\n    tag_893:\n        /* \"#utility.yul\":31672:31697   */\n      swap2\n      pop\n        /* \"#utility.yul\":31711:31731   */\n      tag_894\n        /* \"#utility.yul\":31729:31730   */\n      dup4\n        /* \"#utility.yul\":31711:31731   */\n      tag_558\n      jump\t// in\n    tag_894:\n        /* \"#utility.yul\":31706:31731   */\n      swap3\n      pop\n        /* \"#utility.yul\":31750:31751   */\n      dup3\n        /* \"#utility.yul\":31740:31775   */\n      tag_895\n      jumpi\n        /* \"#utility.yul\":31755:31773   */\n      tag_896\n      tag_631\n      jump\t// in\n    tag_896:\n        /* \"#utility.yul\":31740:31775   */\n    tag_895:\n        /* \"#utility.yul\":31797:31798   */\n      dup3\n        /* \"#utility.yul\":31794:31795   */\n      dup3\n        /* \"#utility.yul\":31790:31799   */\n      div\n        /* \"#utility.yul\":31785:31799   */\n      swap1\n      pop\n        /* \"#utility.yul\":31620:31805   */\n      swap3\n      swap2\n      pop\n      pop\n      jump\t// out\n        /* \"#utility.yul\":31811:32253   */\n    tag_544:\n        /* \"#utility.yul\":31960:31964   */\n      0x00\n        /* \"#utility.yul\":31998:32000   */\n      0x60\n        /* \"#utility.yul\":31987:31996   */\n      dup3\n        /* \"#utility.yul\":31983:32001   */\n      add\n        /* \"#utility.yul\":31975:32001   */\n      swap1\n      pop\n        /* \"#utility.yul\":32011:32082   */\n      tag_898\n        /* \"#utility.yul\":32079:32080   */\n      0x00\n        /* \"#utility.yul\":32068:32077   */\n      dup4\n        /* \"#utility.yul\":32064:32081   */\n      add\n        /* \"#utility.yul\":32055:32061   */\n      dup7\n        /* \"#utility.yul\":32011:32082   */\n      tag_576\n      jump\t// in\n    tag_898:\n        /* \"#utility.yul\":32092:32164   */\n      tag_899\n        /* \"#utility.yul\":32160:32162   */\n      0x20\n        /* \"#utility.yul\":32149:32158   */\n      dup4\n        /* \"#utility.yul\":32145:32163   */\n      add\n        /* \"#utility.yul\":32136:32142   */\n      dup6\n        /* \"#utility.yul\":32092:32164   */\n      tag_576\n      jump\t// in\n    tag_899:\n        /* \"#utility.yul\":32174:32246   */\n      tag_900\n        /* \"#utility.yul\":32242:32244   */\n      0x40\n        /* \"#utility.yul\":32231:32240   */\n      dup4\n        /* \"#utility.yul\":32227:32245   */\n      add\n        /* \"#utility.yul\":32218:32224   */\n      dup5\n        /* \"#utility.yul\":32174:32246   */\n      tag_563\n      jump\t// in\n    tag_900:\n        /* \"#utility.yul\":31811:32253   */\n      swap5\n      swap4\n      pop\n      pop\n      pop\n      pop\n      jump\t// out\n        /* \"#utility.yul\":32259:32482   */\n    tag_632:\n        /* \"#utility.yul\":32399:32433   */\n      0x5472616e7366657248656c7065723a205452414e534645525f46524f4d5f4641\n        /* \"#utility.yul\":32395:32396   */\n      0x00\n        /* \"#utility.yul\":32387:32393   */\n      dup3\n        /* \"#utility.yul\":32383:32397   */\n      add\n        /* \"#utility.yul\":32376:32434   */\n      mstore\n        /* \"#utility.yul\":32468:32474   */\n      0x494c454400000000000000000000000000000000000000000000000000000000\n        /* \"#utility.yul\":32463:32465   */\n      0x20\n        /* \"#utility.yul\":32455:32461   */\n      dup3\n        /* \"#utility.yul\":32451:32466   */\n      add\n        /* \"#utility.yul\":32444:32475   */\n      mstore\n        /* \"#utility.yul\":32259:32482   */\n      pop\n      jump\t// out\n        /* \"#utility.yul\":32488:32854   */\n    tag_633:\n        /* \"#utility.yul\":32630:32633   */\n      0x00\n        /* \"#utility.yul\":32651:32718   */\n      tag_903\n        /* \"#utility.yul\":32715:32717   */\n      0x24\n        /* \"#utility.yul\":32710:32713   */\n      dup4\n        /* \"#utility.yul\":32651:32718   */\n      tag_591\n      jump\t// in\n    tag_903:\n        /* \"#utility.yul\":32644:32718   */\n      swap2\n      pop\n        /* \"#utility.yul\":32727:32820   */\n      tag_904\n        /* \"#utility.yul\":32816:32819   */\n      dup3\n        /* \"#utility.yul\":32727:32820   */\n      tag_632\n      jump\t// in\n    tag_904:\n        /* \"#utility.yul\":32845:32847   */\n      0x40\n        /* \"#utility.yul\":32840:32843   */\n      dup3\n        /* \"#utility.yul\":32836:32848   */\n      add\n        /* \"#utility.yul\":32829:32848   */\n      swap1\n      pop\n        /* \"#utility.yul\":32488:32854   */\n      swap2\n      swap1\n      pop\n      jump\t// out\n        /* \"#utility.yul\":32860:33279   */\n    tag_554:\n        /* \"#utility.yul\":33026:33030   */\n      0x00\n        /* \"#utility.yul\":33064:33066   */\n      0x20\n        /* \"#utility.yul\":33053:33062   */\n      dup3\n        /* \"#utility.yul\":33049:33067   */\n      add\n        /* \"#utility.yul\":33041:33067   */\n      swap1\n      pop\n        /* \"#utility.yul\":33113:33122   */\n      dup2\n        /* \"#utility.yul\":33107:33111   */\n      dup2\n        /* \"#utility.yul\":33103:33123   */\n      sub\n        /* \"#utility.yul\":33099:33100   */\n      0x00\n        /* \"#utility.yul\":33088:33097   */\n      dup4\n        /* \"#utility.yul\":33084:33101   */\n      add\n        /* \"#utility.yul\":33077:33124   */\n      mstore\n        /* \"#utility.yul\":33141:33272   */\n      tag_906\n        /* \"#utility.yul\":33267:33271   */\n      dup2\n        /* \"#utility.yul\":33141:33272   */\n      tag_633\n      jump\t// in\n    tag_906:\n        /* \"#utility.yul\":33133:33272   */\n      swap1\n      pop\n        /* \"#utility.yul\":32860:33279   */\n      swap2\n      swap1\n      pop\n      jump\t// out\n\n    auxdata: 0xa2646970667358221220c42ad4dd4e323d1c15bb0c7011e9db61cdc56dbcfc58bcc80b0c05b71b86a9b664736f6c634300080d0033\n}\n",
				"bytecode": {
					"linkReferences": {},
					"object": "60a06040526000600360006101000a81548160ff0219169083151502179055503480156200002c57600080fd5b506200004d620000416200008760201b60201c565b6200008f60201b60201c565b3373ffffffffffffffffffffffffffffffffffffffff1660808173ffffffffffffffffffffffffffffffffffffffff168152505062000153565b600033905090565b60008060009054906101000a900473ffffffffffffffffffffffffffffffffffffffff169050816000806101000a81548173ffffffffffffffffffffffffffffffffffffffff021916908373ffffffffffffffffffffffffffffffffffffffff1602179055508173ffffffffffffffffffffffffffffffffffffffff168173ffffffffffffffffffffffffffffffffffffffff167f8be0079c531659141344cd1fd0a4f28419497f9722a3daafe3b4186f6b6457e060405160405180910390a35050565b6080516143a8620001bc600039600081816104fd0152818161074801528181610dab01528181610f5d0152818161140f015281816118ef01528181611b8c01528181611ce401528181611dad015281816126a001528181612a190152612f8801526143a86000f3fe60806040526004361061012a5760003560e01c8063715018a6116100ab578063c45a01551161006f578063c45a015514610363578063d7bdfc751461038e578063dab5a8df14610398578063e43372e9146103d5578063f2fde38b14610402578063f4f057b91461042b5761012a565b8063715018a6146102c75780638da5cb5b146102de578063a09702b114610309578063aa6ca80814610320578063abd050ea1461034c5761012a565b80634341f920116100f25780634341f920146101ef578063442fb8cd1461020b57806351cff8d9146102365780635f5780e51461025f5780635f8d96de1461029c5761012a565b80630d1826051461012f5780632ffc6887146101585780633072cf60146101815780633ccfd60b146101ac5780633d370b4e146101c3575b600080fd5b34801561013b57600080fd5b506101566004803603810190610151919061327b565b610456565b005b34801561016457600080fd5b5061017f600480360381019061017a919061327b565b6106a1565b005b34801561018d57600080fd5b506101966108ec565b6040516101a391906132c3565b60405180910390f35b3480156101b857600080fd5b506101c16108ff565b005b3480156101cf57600080fd5b506101d8610e56565b6040516101e69291906132ed565b60405180910390f35b6102096004803603810190610204919061327b565b610eb6565b005b34801561021757600080fd5b50610220611101565b60405161022d919061338d565b60405180910390f35b34801561024257600080fd5b5061025d60048036038101906102589190613406565b611167565b005b34801561026b57600080fd5b5061028660048036038101906102819190613484565b61140b565b60405161029391906132c3565b60405180910390f35b3480156102a857600080fd5b506102b161173e565b6040516102be919061353a565b60405180910390f35b3480156102d357600080fd5b506102dc611797565b005b3480156102ea57600080fd5b506102f361181f565b6040516103009190613564565b60405180910390f35b34801561031557600080fd5b5061031e611848565b005b34801561032c57600080fd5b50610335611a45565b60405161034392919061357f565b60405180910390f35b34801561035857600080fd5b50610361611ae5565b005b34801561036f57600080fd5b50610378611ce2565b6040516103859190613564565b60405180910390f35b610396611d06565b005b3480156103a457600080fd5b506103bf60048036038101906103ba919061327b565b611f03565b6040516103cc919061353a565b60405180910390f35b3480156103e157600080fd5b506103ea611f64565b6040516103f993929190613724565b60405180910390f35b34801561040e57600080fd5b5061042960048036038101906104249190613406565b612200565b005b34801561043757600080fd5b506104406122f7565b60405161044d919061353a565b60405180910390f35b426002541015801561046b5750600654600754105b6104aa576040517f08c379a00000000000000000000000000000000000000000000000000000000081526004016104a1906137cd565b60405180910390fd5b600360009054906101000a900460ff166104f9576040517f08c379a00000000000000000000000000000000000000000000000000000000081526004016104f090613839565b60405180910390fd5b60007f000000000000000000000000000000000000000000000000000000000000000090508073ffffffffffffffffffffffffffffffffffffffff1663b187bd266040518163ffffffff1660e01b8152600401602060405180830381865afa158015610569573d6000803e3d6000fd5b505050506040513d601f19601f8201168201806040525081019061058d919061386e565b156105cd576040517f08c379a00000000000000000000000000000000000000000000000000000000081526004016105c49061390d565b60405180910390fd5b600860009054906101000a900460ff1661061c576040517f08c379a00000000000000000000000000000000000000000000000000000000081526004016106139061399f565b60405180910390fd5b6000600860019054906101000a900460ff1660028111156106405761063f613316565b5b81600281111561065357610652613316565b5b14610693576040517f08c379a000000000000000000000000000000000000000000000000000000000815260040161068a90613a31565b60405180910390fd5b61069c83612350565b505050565b42600254101580156106b65750600654600754105b6106f5576040517f08c379a00000000000000000000000000000000000000000000000000000000081526004016106ec906137cd565b60405180910390fd5b600360009054906101000a900460ff16610744576040517f08c379a000000000000000000000000000000000000000000000000000000000815260040161073b90613839565b60405180910390fd5b60007f000000000000000000000000000000000000000000000000000000000000000090508073ffffffffffffffffffffffffffffffffffffffff1663b187bd266040518163ffffffff1660e01b8152600401602060405180830381865afa1580156107b4573d6000803e3d6000fd5b505050506040513d601f19601f820116820180604052508101906107d8919061386e565b15610818576040517f08c379a000000000000000000000000000000000000000000000000000000000815260040161080f9061390d565b60405180910390fd5b600860009054906101000a900460ff16610867576040517f08c379a000000000000000000000000000000000000000000000000000000000815260040161085e9061399f565b60405180910390fd5b6002600860019054906101000a900460ff16600281111561088b5761088a613316565b5b81600281111561089e5761089d613316565b5b146108de576040517f08c379a00000000000000000000000000000000000000000000000000000000081526004016108d590613a31565b60405180910390fd5b6108e783612738565b505050565b600360009054906101000a900460ff1681565b426002541080610913575060065460075410155b610952576040517f08c379a000000000000000000000000000000000000000000000000000000000815260040161094990613a9d565b60405180910390fd5b600360009054906101000a900460ff166109a1576040517f08c379a000000000000000000000000000000000000000000000000000000000815260040161099890613839565b60405180910390fd5b6109a9612ab0565b73ffffffffffffffffffffffffffffffffffffffff166109c761181f565b73ffffffffffffffffffffffffffffffffffffffff1614610a1d576040517f08c379a0000000000000000000000000000000000000000000000000000000008152600401610a1490613b09565b60405180910390fd5b6000600160009054906101000a900473ffffffffffffffffffffffffffffffffffffffff16905060008173ffffffffffffffffffffffffffffffffffffffff166370a08231306040518263ffffffff1660e01b8152600401610a7f9190613564565b602060405180830381865afa158015610a9c573d6000803e3d6000fd5b505050506040513d601f19601f82011682018060405250810190610ac09190613b3e565b90506000811115610b6357600160009054906101000a900473ffffffffffffffffffffffffffffffffffffffff1673ffffffffffffffffffffffffffffffffffffffff16632e1a7d4d826040518263ffffffff1660e01b8152600401610b26919061353a565b600060405180830381600087803b158015610b4057600080fd5b505af1158015610b54573d6000803e3d6000fd5b50505050610b623382612ab8565b5b6000600460009054906101000a900473ffffffffffffffffffffffffffffffffffffffff1673ffffffffffffffffffffffffffffffffffffffff166370a08231306040518263ffffffff1660e01b8152600401610bc09190613564565b602060405180830381865afa158015610bdd573d6000803e3d6000fd5b505050506040513d601f19601f82011682018060405250810190610c019190613b3e565b90506000811115610c3a57610c39600460009054906101000a900473ffffffffffffffffffffffffffffffffffffffff163383612bb8565b5b6000600360019054906101000a900473ffffffffffffffffffffffffffffffffffffffff1673ffffffffffffffffffffffffffffffffffffffff166370a08231306040518263ffffffff1660e01b8152600401610c979190613564565b602060405180830381865afa158015610cb4573d6000803e3d6000fd5b505050506040513d601f19601f82011682018060405250810190610cd89190613b3e565b90506000811115610d1157610d10600360019054906101000a900473ffffffffffffffffffffffffffffffffffffffff163383612bb8565b5b60008060006002811115610d2857610d27613316565b5b600860019054906101000a900460ff166002811115610d4a57610d49613316565b5b03610d5a57849150839050610da7565b600280811115610d6d57610d6c613316565b5b600860019054906101000a900460ff166002811115610d8f57610d8e613316565b5b03610d9f57829150839050610da6565b8291508490505b5b60007f000000000000000000000000000000000000000000000000000000000000000090508073ffffffffffffffffffffffffffffffffffffffff166333796a0e303386866040518563ffffffff1660e01b8152600401610e0b9493929190613b6b565b600060405180830381600087803b158015610e2557600080fd5b505af1158015610e39573d6000803e3d6000fd5b505050503373ffffffffffffffffffffffffffffffffffffffff16ff5b600080600360009054906101000a900460ff16610ea8576040517f08c379a0000000000000000000000000000000000000000000000000000000008152600401610e9f90613839565b60405180910390fd5b600554600654915091509091565b4260025410158015610ecb5750600654600754105b610f0a576040517f08c379a0000000000000000000000000000000000000000000000000000000008152600401610f01906137cd565b60405180910390fd5b600360009054906101000a900460ff16610f59576040517f08c379a0000000000000000000000000000000000000000000000000000000008152600401610f5090613839565b60405180910390fd5b60007f000000000000000000000000000000000000000000000000000000000000000090508073ffffffffffffffffffffffffffffffffffffffff1663b187bd266040518163ffffffff1660e01b8152600401602060405180830381865afa158015610fc9573d6000803e3d6000fd5b505050506040513d601f19601f82011682018060405250810190610fed919061386e565b1561102d576040517f08c379a00000000000000000000000000000000000000000000000000000000081526004016110249061390d565b60405180910390fd5b600860009054906101000a900460ff1661107c576040517f08c379a00000000000000000000000000000000000000000000000000000000081526004016110739061399f565b60405180910390fd5b6001600860019054906101000a900460ff1660028111156110a05761109f613316565b5b8160028111156110b3576110b2613316565b5b146110f3576040517f08c379a00000000000000000000000000000000000000000000000000000000081526004016110ea90613a31565b60405180910390fd5b6110fc83612cee565b505050565b6000600360009054906101000a900460ff16611152576040517f08c379a000000000000000000000000000000000000000000000000000000000815260040161114990613839565b60405180910390fd5b600860019054906101000a900460ff16905090565b61116f612ab0565b73ffffffffffffffffffffffffffffffffffffffff1661118d61181f565b73ffffffffffffffffffffffffffffffffffffffff16146111e3576040517f08c379a00000000000000000000000000000000000000000000000000000000081526004016111da90613b09565b60405180910390fd5b600360009054906101000a900460ff16611232576040517f08c379a000000000000000000000000000000000000000000000000000000000815260040161122990613839565b60405180910390fd5b600460009054906101000a900473ffffffffffffffffffffffffffffffffffffffff1673ffffffffffffffffffffffffffffffffffffffff168173ffffffffffffffffffffffffffffffffffffffff16036112c2576040517f08c379a00000000000000000000000000000000000000000000000000000000081526004016112b990613bfc565b60405180910390fd5b600360019054906101000a900473ffffffffffffffffffffffffffffffffffffffff1673ffffffffffffffffffffffffffffffffffffffff168173ffffffffffffffffffffffffffffffffffffffff1603611352576040517f08c379a000000000000000000000000000000000000000000000000000000000815260040161134990613bfc565b60405180910390fd5b60008173ffffffffffffffffffffffffffffffffffffffff166370a08231306040518263ffffffff1660e01b815260040161138d9190613564565b602060405180830381865afa1580156113aa573d6000803e3d6000fd5b505050506040513d601f19601f820116820180604052508101906113ce9190613b3e565b9050600081111561140757611406600360019054906101000a900473ffffffffffffffffffffffffffffffffffffffff163383612bb8565b5b5050565b60007f000000000000000000000000000000000000000000000000000000000000000073ffffffffffffffffffffffffffffffffffffffff163373ffffffffffffffffffffffffffffffffffffffff161461149b576040517f08c379a000000000000000000000000000000000000000000000000000000000815260040161149290613bfc565b60405180910390fd5b600360009054906101000a900460ff16156114eb576040517f08c379a00000000000000000000000000000000000000000000000000000000081526004016114e290613c8e565b60405180910390fd5b42841061152d576040517f08c379a000000000000000000000000000000000000000000000000000000000815260040161152490613cfa565b60405180910390fd5b858873ffffffffffffffffffffffffffffffffffffffff166370a08231306040518263ffffffff1660e01b81526004016115679190613564565b602060405180830381865afa158015611584573d6000803e3d6000fd5b505050506040513d601f19601f820116820180604052508101906115a89190613b3e565b10156115e9576040517f08c379a00000000000000000000000000000000000000000000000000000000081526004016115e090613d8c565b60405180910390fd5b8360028190555087600360016101000a81548173ffffffffffffffffffffffffffffffffffffffff021916908373ffffffffffffffffffffffffffffffffffffffff16021790555086600460006101000a81548173ffffffffffffffffffffffffffffffffffffffff021916908373ffffffffffffffffffffffffffffffffffffffff160217905550856005819055508460068190555088600860016101000a81548160ff021916908360028111156116a5576116a4613316565b5b021790555082600860006101000a81548160ff02191690831515021790555081600160006101000a81548173ffffffffffffffffffffffffffffffffffffffff021916908373ffffffffffffffffffffffffffffffffffffffff1602179055506001600360006101000a81548160ff021916908315150217905550600360009054906101000a900460ff16905098975050505050505050565b6000600360009054906101000a900460ff1661178f576040517f08c379a000000000000000000000000000000000000000000000000000000000815260040161178690613839565b60405180910390fd5b600254905090565b61179f612ab0565b73ffffffffffffffffffffffffffffffffffffffff166117bd61181f565b73ffffffffffffffffffffffffffffffffffffffff1614611813576040517f08c379a000000000000000000000000000000000000000000000000000000000815260040161180a90613b09565b60405180910390fd5b61181d600061301f565b565b60008060009054906101000a900473ffffffffffffffffffffffffffffffffffffffff16905090565b426002541015801561185d5750600654600754105b61189c576040517f08c379a0000000000000000000000000000000000000000000000000000000008152600401611893906137cd565b60405180910390fd5b600360009054906101000a900460ff166118eb576040517f08c379a00000000000000000000000000000000000000000000000000000000081526004016118e290613839565b60405180910390fd5b60007f000000000000000000000000000000000000000000000000000000000000000090508073ffffffffffffffffffffffffffffffffffffffff1663b187bd266040518163ffffffff1660e01b8152600401602060405180830381865afa15801561195b573d6000803e3d6000fd5b505050506040513d601f19601f8201168201806040525081019061197f919061386e565b156119bf576040517f08c379a00000000000000000000000000000000000000000000000000000000081526004016119b69061390d565b60405180910390fd5b6000600860019054906101000a900460ff1660028111156119e3576119e2613316565b5b8160028111156119f6576119f5613316565b5b14611a36576040517f08c379a0000000000000000000000000000000000000000000000000000000008152600401611a2d90613a31565b60405180910390fd5b611a41600654612350565b5050565b600080600360009054906101000a900460ff16611a97576040517f08c379a0000000000000000000000000000000000000000000000000000000008152600401611a8e90613839565b60405180910390fd5b600360019054906101000a900473ffffffffffffffffffffffffffffffffffffffff16600460009054906101000a900473ffffffffffffffffffffffffffffffffffffffff16915091509091565b4260025410158015611afa5750600654600754105b611b39576040517f08c379a0000000000000000000000000000000000000000000000000000000008152600401611b30906137cd565b60405180910390fd5b600360009054906101000a900460ff16611b88576040517f08c379a0000000000000000000000000000000000000000000000000000000008152600401611b7f90613839565b60405180910390fd5b60007f000000000000000000000000000000000000000000000000000000000000000090508073ffffffffffffffffffffffffffffffffffffffff1663b187bd266040518163ffffffff1660e01b8152600401602060405180830381865afa158015611bf8573d6000803e3d6000fd5b505050506040513d601f19601f82011682018060405250810190611c1c919061386e565b15611c5c576040517f08c379a0000000000000000000000000000000000000000000000000000000008152600401611c539061390d565b60405180910390fd5b6002600860019054906101000a900460ff166002811115611c8057611c7f613316565b5b816002811115611c9357611c92613316565b5b14611cd3576040517f08c379a0000000000000000000000000000000000000000000000000000000008152600401611cca90613a31565b60405180910390fd5b611cde600654612738565b5050565b7f000000000000000000000000000000000000000000000000000000000000000081565b4260025410158015611d1b5750600654600754105b611d5a576040517f08c379a0000000000000000000000000000000000000000000000000000000008152600401611d51906137cd565b60405180910390fd5b600360009054906101000a900460ff16611da9576040517f08c379a0000000000000000000000000000000000000000000000000000000008152600401611da090613839565b60405180910390fd5b60007f000000000000000000000000000000000000000000000000000000000000000090508073ffffffffffffffffffffffffffffffffffffffff1663b187bd266040518163ffffffff1660e01b8152600401602060405180830381865afa158015611e19573d6000803e3d6000fd5b505050506040513d601f19601f82011682018060405250810190611e3d919061386e565b15611e7d576040517f08c379a0000000000000000000000000000000000000000000000000000000008152600401611e749061390d565b60405180910390fd5b6001600860019054906101000a900460ff166002811115611ea157611ea0613316565b5b816002811115611eb457611eb3613316565b5b14611ef4576040517f08c379a0000000000000000000000000000000000000000000000000000000008152600401611eeb90613a31565b60405180910390fd5b611eff600654612cee565b5050565b6000600360009054906101000a900460ff16611f54576040517f08c379a0000000000000000000000000000000000000000000000000000000008152600401611f4b90613839565b60405180910390fd5b611f5d826130e3565b9050919050565b6060806060600360009054906101000a900460ff16611fb8576040517f08c379a0000000000000000000000000000000000000000000000000000000008152600401611faf90613839565b60405180910390fd5b600060098054905067ffffffffffffffff811115611fd957611fd8613dac565b5b6040519080825280602002602001820160405280156120075781602001602082028036833780820191505090505b509050600060098054905067ffffffffffffffff81111561202b5761202a613dac565b5b6040519080825280602002602001820160405280156120595781602001602082028036833780820191505090505b509050600060098054905067ffffffffffffffff81111561207d5761207c613dac565b5b6040519080825280602002602001820160405280156120ab5781602001602082028036833780820191505090505b50905060005b6009805490508110156121ee57600981815481106120d2576120d1613ddb565b5b906000526020600020906003020160000160009054906101000a900473ffffffffffffffffffffffffffffffffffffffff1684828151811061211757612116613ddb565b5b602002602001019073ffffffffffffffffffffffffffffffffffffffff16908173ffffffffffffffffffffffffffffffffffffffff16815250506009818154811061216557612164613ddb565b5b90600052602060002090600302016001015483828151811061218a57612189613ddb565b5b602002602001018181525050600981815481106121aa576121a9613ddb565b5b9060005260206000209060030201600201548282815181106121cf576121ce613ddb565b5b60200260200101818152505080806121e690613e39565b9150506120b1565b50828282955095509550505050909192565b612208612ab0565b73ffffffffffffffffffffffffffffffffffffffff1661222661181f565b73ffffffffffffffffffffffffffffffffffffffff161461227c576040517f08c379a000000000000000000000000000000000000000000000000000000000815260040161227390613b09565b60405180910390fd5b600073ffffffffffffffffffffffffffffffffffffffff168173ffffffffffffffffffffffffffffffffffffffff16036122eb576040517f08c379a00000000000000000000000000000000000000000000000000000000081526004016122e290613ef3565b60405180910390fd5b6122f48161301f565b50565b6000600360009054906101000a900460ff16612348576040517f08c379a000000000000000000000000000000000000000000000000000000000815260040161233f90613839565b60405180910390fd5b600754905090565b80600460009054906101000a900473ffffffffffffffffffffffffffffffffffffffff1673ffffffffffffffffffffffffffffffffffffffff166370a08231336040518263ffffffff1660e01b81526004016123ac9190613564565b602060405180830381865afa1580156123c9573d6000803e3d6000fd5b505050506040513d601f19601f820116820180604052508101906123ed9190613b3e565b101561242e576040517f08c379a000000000000000000000000000000000000000000000000000000000815260040161242590613f85565b60405180910390fd5b6000612439826130e3565b90506000600160009054906101000a900473ffffffffffffffffffffffffffffffffffffffff169050818173ffffffffffffffffffffffffffffffffffffffff166370a08231306040518263ffffffff1660e01b815260040161249c9190613564565b602060405180830381865afa1580156124b9573d6000803e3d6000fd5b505050506040513d601f19601f820116820180604052508101906124dd9190613b3e565b101561251e576040517f08c379a000000000000000000000000000000000000000000000000000000000815260040161251590614017565b60405180910390fd5b600160009054906101000a900473ffffffffffffffffffffffffffffffffffffffff1673ffffffffffffffffffffffffffffffffffffffff16632e1a7d4d836040518263ffffffff1660e01b8152600401612579919061353a565b600060405180830381600087803b15801561259357600080fd5b505af11580156125a7573d6000803e3d6000fd5b505050506125d9600460009054906101000a900473ffffffffffffffffffffffffffffffffffffffff16333086613107565b6125e33383612ab8565b600960405180606001604052803373ffffffffffffffffffffffffffffffffffffffff16815260200185815260200184815250908060018154018082558091505060019003906000526020600020906003020160009091909190915060008201518160000160006101000a81548173ffffffffffffffffffffffffffffffffffffffff021916908373ffffffffffffffffffffffffffffffffffffffff1602179055506020820151816001015560408201518160020155505060007f000000000000000000000000000000000000000000000000000000000000000090508073ffffffffffffffffffffffffffffffffffffffff1663f52701b7303387876040518563ffffffff1660e01b81526004016127009493929190613b6b565b600060405180830381600087803b15801561271a57600080fd5b505af115801561272e573d6000803e3d6000fd5b5050505050505050565b80600460009054906101000a900473ffffffffffffffffffffffffffffffffffffffff1673ffffffffffffffffffffffffffffffffffffffff166370a08231336040518263ffffffff1660e01b81526004016127949190613564565b602060405180830381865afa1580156127b1573d6000803e3d6000fd5b505050506040513d601f19601f820116820180604052508101906127d59190613b3e565b1015612816576040517f08c379a000000000000000000000000000000000000000000000000000000000815260040161280d90613f85565b60405180910390fd5b6000612821826130e3565b905080600360019054906101000a900473ffffffffffffffffffffffffffffffffffffffff1673ffffffffffffffffffffffffffffffffffffffff166370a08231306040518263ffffffff1660e01b815260040161287f9190613564565b602060405180830381865afa15801561289c573d6000803e3d6000fd5b505050506040513d601f19601f820116820180604052508101906128c09190613b3e565b1015612901576040517f08c379a00000000000000000000000000000000000000000000000000000000081526004016128f890614017565b60405180910390fd5b61292f600460009054906101000a900473ffffffffffffffffffffffffffffffffffffffff16333085613107565b61295c600360019054906101000a900473ffffffffffffffffffffffffffffffffffffffff163383612bb8565b600960405180606001604052803373ffffffffffffffffffffffffffffffffffffffff16815260200184815260200183815250908060018154018082558091505060019003906000526020600020906003020160009091909190915060008201518160000160006101000a81548173ffffffffffffffffffffffffffffffffffffffff021916908373ffffffffffffffffffffffffffffffffffffffff1602179055506020820151816001015560408201518160020155505060007f000000000000000000000000000000000000000000000000000000000000000090508073ffffffffffffffffffffffffffffffffffffffff1663f52701b7303386866040518563ffffffff1660e01b8152600401612a799493929190613b6b565b600060405180830381600087803b158015612a9357600080fd5b505af1158015612aa7573d6000803e3d6000fd5b50505050505050565b600033905090565b60008273ffffffffffffffffffffffffffffffffffffffff1682600067ffffffffffffffff811115612aed57612aec613dac565b5b6040519080825280601f01601f191660200182016040528015612b1f5781602001600182028036833780820191505090505b50604051612b2d91906140b1565b60006040518083038185875af1925050503d8060008114612b6a576040519150601f19603f3d011682016040523d82523d6000602084013e612b6f565b606091505b5050905080612bb3576040517f08c379a0000000000000000000000000000000000000000000000000000000008152600401612baa9061413a565b60405180910390fd5b505050565b6000808473ffffffffffffffffffffffffffffffffffffffff1663a9059cbb8585604051602401612bea92919061415a565b6040516020818303038152906040529060e01b6020820180517bffffffffffffffffffffffffffffffffffffffffffffffffffffffff8381831617835250505050604051612c3891906140b1565b6000604051808303816000865af19150503d8060008114612c75576040519150601f19603f3d011682016040523d82523d6000602084013e612c7a565b606091505b5091509150818015612ca85750600081511480612ca7575080806020019051810190612ca6919061386e565b5b5b612ce7576040517f08c379a0000000000000000000000000000000000000000000000000000000008152600401612cde906141cf565b60405180910390fd5b5050505050565b348114612d30576040517f08c379a0000000000000000000000000000000000000000000000000000000008152600401612d279061399f565b60405180910390fd5b6000612d3b826130e3565b905080600360019054906101000a900473ffffffffffffffffffffffffffffffffffffffff1673ffffffffffffffffffffffffffffffffffffffff166370a08231306040518263ffffffff1660e01b8152600401612d999190613564565b602060405180830381865afa158015612db6573d6000803e3d6000fd5b505050506040513d601f19601f82011682018060405250810190612dda9190613b3e565b1015612e1b576040517f08c379a0000000000000000000000000000000000000000000000000000000008152600401612e1290614017565b60405180910390fd5b600160009054906101000a900473ffffffffffffffffffffffffffffffffffffffff1673ffffffffffffffffffffffffffffffffffffffff1663d0e30db0836040518263ffffffff1660e01b81526004016000604051808303818588803b158015612e8557600080fd5b505af1158015612e99573d6000803e3d6000fd5b5050505050612ecb600360019054906101000a900473ffffffffffffffffffffffffffffffffffffffff163383612bb8565b600960405180606001604052803373ffffffffffffffffffffffffffffffffffffffff16815260200184815260200183815250908060018154018082558091505060019003906000526020600020906003020160009091909190915060008201518160000160006101000a81548173ffffffffffffffffffffffffffffffffffffffff021916908373ffffffffffffffffffffffffffffffffffffffff1602179055506020820151816001015560408201518160020155505060007f000000000000000000000000000000000000000000000000000000000000000090508073ffffffffffffffffffffffffffffffffffffffff1663f52701b7303386866040518563ffffffff1660e01b8152600401612fe89493929190613b6b565b600060405180830381600087803b15801561300257600080fd5b505af1158015613016573d6000803e3d6000fd5b50505050505050565b60008060009054906101000a900473ffffffffffffffffffffffffffffffffffffffff169050816000806101000a81548173ffffffffffffffffffffffffffffffffffffffff021916908373ffffffffffffffffffffffffffffffffffffffff1602179055508173ffffffffffffffffffffffffffffffffffffffff168173ffffffffffffffffffffffffffffffffffffffff167f8be0079c531659141344cd1fd0a4f28419497f9722a3daafe3b4186f6b6457e060405160405180910390a35050565b6000600654600554836130f691906141ef565b6131009190614278565b9050919050565b6000808573ffffffffffffffffffffffffffffffffffffffff166323b872dd86868660405160240161313b939291906142a9565b6040516020818303038152906040529060e01b6020820180517bffffffffffffffffffffffffffffffffffffffffffffffffffffffff838183161783525050505060405161318991906140b1565b6000604051808303816000865af19150503d80600081146131c6576040519150601f19603f3d011682016040523d82523d6000602084013e6131cb565b606091505b50915091508180156131f957506000815114806131f85750808060200190518101906131f7919061386e565b5b5b613238576040517f08c379a000000000000000000000000000000000000000000000000000000000815260040161322f90614352565b60405180910390fd5b505050505050565b600080fd5b6000819050919050565b61325881613245565b811461326357600080fd5b50565b6000813590506132758161324f565b92915050565b60006020828403121561329157613290613240565b5b600061329f84828501613266565b91505092915050565b60008115159050919050565b6132bd816132a8565b82525050565b60006020820190506132d860008301846132b4565b92915050565b6132e781613245565b82525050565b600060408201905061330260008301856132de565b61330f60208301846132de565b9392505050565b7f4e487b7100000000000000000000000000000000000000000000000000000000600052602160045260246000fd5b6003811061335657613355613316565b5b50565b600081905061336782613345565b919050565b600061337782613359565b9050919050565b6133878161336c565b82525050565b60006020820190506133a2600083018461337e565b92915050565b600073ffffffffffffffffffffffffffffffffffffffff82169050919050565b60006133d3826133a8565b9050919050565b6133e3816133c8565b81146133ee57600080fd5b50565b600081359050613400816133da565b92915050565b60006020828403121561341c5761341b613240565b5b600061342a848285016133f1565b91505092915050565b6003811061344057600080fd5b50565b60008135905061345281613433565b92915050565b613461816132a8565b811461346c57600080fd5b50565b60008135905061347e81613458565b92915050565b600080600080600080600080610100898b0312156134a5576134a4613240565b5b60006134b38b828c01613443565b98505060206134c48b828c016133f1565b97505060406134d58b828c016133f1565b96505060606134e68b828c01613266565b95505060806134f78b828c01613266565b94505060a06135088b828c01613266565b93505060c06135198b828c0161346f565b92505060e061352a8b828c016133f1565b9150509295985092959890939650565b600060208201905061354f60008301846132de565b92915050565b61355e816133c8565b82525050565b60006020820190506135796000830184613555565b92915050565b60006040820190506135946000830185613555565b6135a16020830184613555565b9392505050565b600081519050919050565b600082825260208201905092915050565b6000819050602082019050919050565b6135dd816133c8565b82525050565b60006135ef83836135d4565b60208301905092915050565b6000602082019050919050565b6000613613826135a8565b61361d81856135b3565b9350613628836135c4565b8060005b8381101561365957815161364088826135e3565b975061364b836135fb565b92505060018101905061362c565b5085935050505092915050565b600081519050919050565b600082825260208201905092915050565b6000819050602082019050919050565b61369b81613245565b82525050565b60006136ad8383613692565b60208301905092915050565b6000602082019050919050565b60006136d182613666565b6136db8185613671565b93506136e683613682565b8060005b838110156137175781516136fe88826136a1565b9750613709836136b9565b9250506001810190506136ea565b5085935050505092915050565b6000606082019050818103600083015261373e8186613608565b9050818103602083015261375281856136c6565b9050818103604083015261376681846136c6565b9050949350505050565b600082825260208201905092915050565b7f537943726f774261727465723a20494e41435449564500000000000000000000600082015250565b60006137b7601683613770565b91506137c282613781565b602082019050919050565b600060208201905081810360008301526137e6816137aa565b9050919050565b7f537943726f774261727465723a204e4f545f494e495449414c495a4544000000600082015250565b6000613823601d83613770565b915061382e826137ed565b602082019050919050565b6000602082019050818103600083015261385281613816565b9050919050565b60008151905061386881613458565b92915050565b60006020828403121561388457613883613240565b5b600061389284828501613859565b91505092915050565b7f537943726f774261727465723a204261736520436f6e7472616374205061757360008201527f6564000000000000000000000000000000000000000000000000000000000000602082015250565b60006138f7602283613770565b91506139028261389b565b604082019050919050565b60006020820190508181036000830152613926816138ea565b9050919050565b7f537943726f774261727465723a204d554c54495f54524144455f4e4f545f454e60008201527f41424c4544000000000000000000000000000000000000000000000000000000602082015250565b6000613989602583613770565b91506139948261392d565b604082019050919050565b600060208201905081810360008301526139b88161397c565b9050919050565b7f537943726f774261727465723a20494e56414c49445f4241525445525f54595060008201527f4500000000000000000000000000000000000000000000000000000000000000602082015250565b6000613a1b602183613770565b9150613a26826139bf565b604082019050919050565b60006020820190508181036000830152613a4a81613a0e565b9050919050565b7f537943726f774261727465723a20414354495645000000000000000000000000600082015250565b6000613a87601483613770565b9150613a9282613a51565b602082019050919050565b60006020820190508181036000830152613ab681613a7a565b9050919050565b7f4f776e61626c653a2063616c6c6572206973206e6f7420746865206f776e6572600082015250565b6000613af3602083613770565b9150613afe82613abd565b602082019050919050565b60006020820190508181036000830152613b2281613ae6565b9050919050565b600081519050613b388161324f565b92915050565b600060208284031215613b5457613b53613240565b5b6000613b6284828501613b29565b91505092915050565b6000608082019050613b806000830187613555565b613b8d6020830186613555565b613b9a60408301856132de565b613ba760608301846132de565b95945050505050565b7f537943726f774261727465723a20464f5242494444454e000000000000000000600082015250565b6000613be6601783613770565b9150613bf182613bb0565b602082019050919050565b60006020820190508181036000830152613c1581613bd9565b9050919050565b7f537943726f774261727465723a20414c52454144595f494e495449414c495a4560008201527f4400000000000000000000000000000000000000000000000000000000000000602082015250565b6000613c78602183613770565b9150613c8382613c1c565b604082019050919050565b60006020820190508181036000830152613ca781613c6b565b9050919050565b7f537943726f774261727465723a20504153545f444541444c494e450000000000600082015250565b6000613ce4601b83613770565b9150613cef82613cae565b602082019050919050565b60006020820190508181036000830152613d1381613cd7565b9050919050565b7f537943726f774261727465723a20494e53554646494349454e545f4445504f5360008201527f4954000000000000000000000000000000000000000000000000000000000000602082015250565b6000613d76602283613770565b9150613d8182613d1a565b604082019050919050565b60006020820190508181036000830152613da581613d69565b9050919050565b7f4e487b7100000000000000000000000000000000000000000000000000000000600052604160045260246000fd5b7f4e487b7100000000000000000000000000000000000000000000000000000000600052603260045260246000fd5b7f4e487b7100000000000000000000000000000000000000000000000000000000600052601160045260246000fd5b6000613e4482613245565b91507fffffffffffffffffffffffffffffffffffffffffffffffffffffffffffffffff8203613e7657613e75613e0a565b5b600182019050919050565b7f4f776e61626c653a206e6577206f776e657220697320746865207a65726f206160008201527f6464726573730000000000000000000000000000000000000000000000000000602082015250565b6000613edd602683613770565b9150613ee882613e81565b604082019050919050565b60006020820190508181036000830152613f0c81613ed0565b9050919050565b7f537943726f774261727465723a20494e53554646494349454e545f42414c414e60008201527f4345000000000000000000000000000000000000000000000000000000000000602082015250565b6000613f6f602283613770565b9150613f7a82613f13565b604082019050919050565b60006020820190508181036000830152613f9e81613f62565b9050919050565b7f537943726f774261727465723a20494e53554646494349454e545f434f4e545260008201527f4143545f42414c414e4345000000000000000000000000000000000000000000602082015250565b6000614001602b83613770565b915061400c82613fa5565b604082019050919050565b6000602082019050818103600083015261403081613ff4565b9050919050565b600081519050919050565b600081905092915050565b60005b8381101561406b578082015181840152602081019050614050565b8381111561407a576000848401525b50505050565b600061408b82614037565b6140958185614042565b93506140a581856020860161404d565b80840191505092915050565b60006140bd8284614080565b915081905092915050565b7f5472616e7366657248656c7065723a204554485f5452414e534645525f46414960008201527f4c45440000000000000000000000000000000000000000000000000000000000602082015250565b6000614124602383613770565b915061412f826140c8565b604082019050919050565b6000602082019050818103600083015261415381614117565b9050919050565b600060408201905061416f6000830185613555565b61417c60208301846132de565b9392505050565b7f5472616e7366657248656c7065723a205452414e534645525f4641494c454400600082015250565b60006141b9601f83613770565b91506141c482614183565b602082019050919050565b600060208201905081810360008301526141e8816141ac565b9050919050565b60006141fa82613245565b915061420583613245565b9250817fffffffffffffffffffffffffffffffffffffffffffffffffffffffffffffffff048311821515161561423e5761423d613e0a565b5b828202905092915050565b7f4e487b7100000000000000000000000000000000000000000000000000000000600052601260045260246000fd5b600061428382613245565b915061428e83613245565b92508261429e5761429d614249565b5b828204905092915050565b60006060820190506142be6000830186613555565b6142cb6020830185613555565b6142d860408301846132de565b949350505050565b7f5472616e7366657248656c7065723a205452414e534645525f46524f4d5f464160008201527f494c454400000000000000000000000000000000000000000000000000000000602082015250565b600061433c602483613770565b9150614347826142e0565b604082019050919050565b6000602082019050818103600083015261436b8161432f565b905091905056fea2646970667358221220c42ad4dd4e323d1c15bb0c7011e9db61cdc56dbcfc58bcc80b0c05b71b86a9b664736f6c634300080d0033",
					"opcodes": "PUSH1 0xA0 PUSH1 0x40 MSTORE PUSH1 0x0 PUSH1 0x3 PUSH1 0x0 PUSH2 0x100 EXP DUP2 SLOAD DUP2 PUSH1 0xFF MUL NOT AND SWAP1 DUP4 ISZERO ISZERO MUL OR SWAP1 SSTORE POP CALLVALUE DUP1 ISZERO PUSH3 0x2C JUMPI PUSH1 0x0 DUP1 REVERT JUMPDEST POP PUSH3 0x4D PUSH3 0x41 PUSH3 0x87 PUSH1 0x20 SHL PUSH1 0x20 SHR JUMP JUMPDEST PUSH3 0x8F PUSH1 0x20 SHL PUSH1 0x20 SHR JUMP JUMPDEST CALLER PUSH20 0xFFFFFFFFFFFFFFFFFFFFFFFFFFFFFFFFFFFFFFFF AND PUSH1 0x80 DUP2 PUSH20 0xFFFFFFFFFFFFFFFFFFFFFFFFFFFFFFFFFFFFFFFF AND DUP2 MSTORE POP POP PUSH3 0x153 JUMP JUMPDEST PUSH1 0x0 CALLER SWAP1 POP SWAP1 JUMP JUMPDEST PUSH1 0x0 DUP1 PUSH1 0x0 SWAP1 SLOAD SWAP1 PUSH2 0x100 EXP SWAP1 DIV PUSH20 0xFFFFFFFFFFFFFFFFFFFFFFFFFFFFFFFFFFFFFFFF AND SWAP1 POP DUP2 PUSH1 0x0 DUP1 PUSH2 0x100 EXP DUP2 SLOAD DUP2 PUSH20 0xFFFFFFFFFFFFFFFFFFFFFFFFFFFFFFFFFFFFFFFF MUL NOT AND SWAP1 DUP4 PUSH20 0xFFFFFFFFFFFFFFFFFFFFFFFFFFFFFFFFFFFFFFFF AND MUL OR SWAP1 SSTORE POP DUP2 PUSH20 0xFFFFFFFFFFFFFFFFFFFFFFFFFFFFFFFFFFFFFFFF AND DUP2 PUSH20 0xFFFFFFFFFFFFFFFFFFFFFFFFFFFFFFFFFFFFFFFF AND PUSH32 0x8BE0079C531659141344CD1FD0A4F28419497F9722A3DAAFE3B4186F6B6457E0 PUSH1 0x40 MLOAD PUSH1 0x40 MLOAD DUP1 SWAP2 SUB SWAP1 LOG3 POP POP JUMP JUMPDEST PUSH1 0x80 MLOAD PUSH2 0x43A8 PUSH3 0x1BC PUSH1 0x0 CODECOPY PUSH1 0x0 DUP2 DUP2 PUSH2 0x4FD ADD MSTORE DUP2 DUP2 PUSH2 0x748 ADD MSTORE DUP2 DUP2 PUSH2 0xDAB ADD MSTORE DUP2 DUP2 PUSH2 0xF5D ADD MSTORE DUP2 DUP2 PUSH2 0x140F ADD MSTORE DUP2 DUP2 PUSH2 0x18EF ADD MSTORE DUP2 DUP2 PUSH2 0x1B8C ADD MSTORE DUP2 DUP2 PUSH2 0x1CE4 ADD MSTORE DUP2 DUP2 PUSH2 0x1DAD ADD MSTORE DUP2 DUP2 PUSH2 0x26A0 ADD MSTORE DUP2 DUP2 PUSH2 0x2A19 ADD MSTORE PUSH2 0x2F88 ADD MSTORE PUSH2 0x43A8 PUSH1 0x0 RETURN INVALID PUSH1 0x80 PUSH1 0x40 MSTORE PUSH1 0x4 CALLDATASIZE LT PUSH2 0x12A JUMPI PUSH1 0x0 CALLDATALOAD PUSH1 0xE0 SHR DUP1 PUSH4 0x715018A6 GT PUSH2 0xAB JUMPI DUP1 PUSH4 0xC45A0155 GT PUSH2 0x6F JUMPI DUP1 PUSH4 0xC45A0155 EQ PUSH2 0x363 JUMPI DUP1 PUSH4 0xD7BDFC75 EQ PUSH2 0x38E JUMPI DUP1 PUSH4 0xDAB5A8DF EQ PUSH2 0x398 JUMPI DUP1 PUSH4 0xE43372E9 EQ PUSH2 0x3D5 JUMPI DUP1 PUSH4 0xF2FDE38B EQ PUSH2 0x402 JUMPI DUP1 PUSH4 0xF4F057B9 EQ PUSH2 0x42B JUMPI PUSH2 0x12A JUMP JUMPDEST DUP1 PUSH4 0x715018A6 EQ PUSH2 0x2C7 JUMPI DUP1 PUSH4 0x8DA5CB5B EQ PUSH2 0x2DE JUMPI DUP1 PUSH4 0xA09702B1 EQ PUSH2 0x309 JUMPI DUP1 PUSH4 0xAA6CA808 EQ PUSH2 0x320 JUMPI DUP1 PUSH4 0xABD050EA EQ PUSH2 0x34C JUMPI PUSH2 0x12A JUMP JUMPDEST DUP1 PUSH4 0x4341F920 GT PUSH2 0xF2 JUMPI DUP1 PUSH4 0x4341F920 EQ PUSH2 0x1EF JUMPI DUP1 PUSH4 0x442FB8CD EQ PUSH2 0x20B JUMPI DUP1 PUSH4 0x51CFF8D9 EQ PUSH2 0x236 JUMPI DUP1 PUSH4 0x5F5780E5 EQ PUSH2 0x25F JUMPI DUP1 PUSH4 0x5F8D96DE EQ PUSH2 0x29C JUMPI PUSH2 0x12A JUMP JUMPDEST DUP1 PUSH4 0xD182605 EQ PUSH2 0x12F JUMPI DUP1 PUSH4 0x2FFC6887 EQ PUSH2 0x158 JUMPI DUP1 PUSH4 0x3072CF60 EQ PUSH2 0x181 JUMPI DUP1 PUSH4 0x3CCFD60B EQ PUSH2 0x1AC JUMPI DUP1 PUSH4 0x3D370B4E EQ PUSH2 0x1C3 JUMPI JUMPDEST PUSH1 0x0 DUP1 REVERT JUMPDEST CALLVALUE DUP1 ISZERO PUSH2 0x13B JUMPI PUSH1 0x0 DUP1 REVERT JUMPDEST POP PUSH2 0x156 PUSH1 0x4 DUP1 CALLDATASIZE SUB DUP2 ADD SWAP1 PUSH2 0x151 SWAP2 SWAP1 PUSH2 0x327B JUMP JUMPDEST PUSH2 0x456 JUMP JUMPDEST STOP JUMPDEST CALLVALUE DUP1 ISZERO PUSH2 0x164 JUMPI PUSH1 0x0 DUP1 REVERT JUMPDEST POP PUSH2 0x17F PUSH1 0x4 DUP1 CALLDATASIZE SUB DUP2 ADD SWAP1 PUSH2 0x17A SWAP2 SWAP1 PUSH2 0x327B JUMP JUMPDEST PUSH2 0x6A1 JUMP JUMPDEST STOP JUMPDEST CALLVALUE DUP1 ISZERO PUSH2 0x18D JUMPI PUSH1 0x0 DUP1 REVERT JUMPDEST POP PUSH2 0x196 PUSH2 0x8EC JUMP JUMPDEST PUSH1 0x40 MLOAD PUSH2 0x1A3 SWAP2 SWAP1 PUSH2 0x32C3 JUMP JUMPDEST PUSH1 0x40 MLOAD DUP1 SWAP2 SUB SWAP1 RETURN JUMPDEST CALLVALUE DUP1 ISZERO PUSH2 0x1B8 JUMPI PUSH1 0x0 DUP1 REVERT JUMPDEST POP PUSH2 0x1C1 PUSH2 0x8FF JUMP JUMPDEST STOP JUMPDEST CALLVALUE DUP1 ISZERO PUSH2 0x1CF JUMPI PUSH1 0x0 DUP1 REVERT JUMPDEST POP PUSH2 0x1D8 PUSH2 0xE56 JUMP JUMPDEST PUSH1 0x40 MLOAD PUSH2 0x1E6 SWAP3 SWAP2 SWAP1 PUSH2 0x32ED JUMP JUMPDEST PUSH1 0x40 MLOAD DUP1 SWAP2 SUB SWAP1 RETURN JUMPDEST PUSH2 0x209 PUSH1 0x4 DUP1 CALLDATASIZE SUB DUP2 ADD SWAP1 PUSH2 0x204 SWAP2 SWAP1 PUSH2 0x327B JUMP JUMPDEST PUSH2 0xEB6 JUMP JUMPDEST STOP JUMPDEST CALLVALUE DUP1 ISZERO PUSH2 0x217 JUMPI PUSH1 0x0 DUP1 REVERT JUMPDEST POP PUSH2 0x220 PUSH2 0x1101 JUMP JUMPDEST PUSH1 0x40 MLOAD PUSH2 0x22D SWAP2 SWAP1 PUSH2 0x338D JUMP JUMPDEST PUSH1 0x40 MLOAD DUP1 SWAP2 SUB SWAP1 RETURN JUMPDEST CALLVALUE DUP1 ISZERO PUSH2 0x242 JUMPI PUSH1 0x0 DUP1 REVERT JUMPDEST POP PUSH2 0x25D PUSH1 0x4 DUP1 CALLDATASIZE SUB DUP2 ADD SWAP1 PUSH2 0x258 SWAP2 SWAP1 PUSH2 0x3406 JUMP JUMPDEST PUSH2 0x1167 JUMP JUMPDEST STOP JUMPDEST CALLVALUE DUP1 ISZERO PUSH2 0x26B JUMPI PUSH1 0x0 DUP1 REVERT JUMPDEST POP PUSH2 0x286 PUSH1 0x4 DUP1 CALLDATASIZE SUB DUP2 ADD SWAP1 PUSH2 0x281 SWAP2 SWAP1 PUSH2 0x3484 JUMP JUMPDEST PUSH2 0x140B JUMP JUMPDEST PUSH1 0x40 MLOAD PUSH2 0x293 SWAP2 SWAP1 PUSH2 0x32C3 JUMP JUMPDEST PUSH1 0x40 MLOAD DUP1 SWAP2 SUB SWAP1 RETURN JUMPDEST CALLVALUE DUP1 ISZERO PUSH2 0x2A8 JUMPI PUSH1 0x0 DUP1 REVERT JUMPDEST POP PUSH2 0x2B1 PUSH2 0x173E JUMP JUMPDEST PUSH1 0x40 MLOAD PUSH2 0x2BE SWAP2 SWAP1 PUSH2 0x353A JUMP JUMPDEST PUSH1 0x40 MLOAD DUP1 SWAP2 SUB SWAP1 RETURN JUMPDEST CALLVALUE DUP1 ISZERO PUSH2 0x2D3 JUMPI PUSH1 0x0 DUP1 REVERT JUMPDEST POP PUSH2 0x2DC PUSH2 0x1797 JUMP JUMPDEST STOP JUMPDEST CALLVALUE DUP1 ISZERO PUSH2 0x2EA JUMPI PUSH1 0x0 DUP1 REVERT JUMPDEST POP PUSH2 0x2F3 PUSH2 0x181F JUMP JUMPDEST PUSH1 0x40 MLOAD PUSH2 0x300 SWAP2 SWAP1 PUSH2 0x3564 JUMP JUMPDEST PUSH1 0x40 MLOAD DUP1 SWAP2 SUB SWAP1 RETURN JUMPDEST CALLVALUE DUP1 ISZERO PUSH2 0x315 JUMPI PUSH1 0x0 DUP1 REVERT JUMPDEST POP PUSH2 0x31E PUSH2 0x1848 JUMP JUMPDEST STOP JUMPDEST CALLVALUE DUP1 ISZERO PUSH2 0x32C JUMPI PUSH1 0x0 DUP1 REVERT JUMPDEST POP PUSH2 0x335 PUSH2 0x1A45 JUMP JUMPDEST PUSH1 0x40 MLOAD PUSH2 0x343 SWAP3 SWAP2 SWAP1 PUSH2 0x357F JUMP JUMPDEST PUSH1 0x40 MLOAD DUP1 SWAP2 SUB SWAP1 RETURN JUMPDEST CALLVALUE DUP1 ISZERO PUSH2 0x358 JUMPI PUSH1 0x0 DUP1 REVERT JUMPDEST POP PUSH2 0x361 PUSH2 0x1AE5 JUMP JUMPDEST STOP JUMPDEST CALLVALUE DUP1 ISZERO PUSH2 0x36F JUMPI PUSH1 0x0 DUP1 REVERT JUMPDEST POP PUSH2 0x378 PUSH2 0x1CE2 JUMP JUMPDEST PUSH1 0x40 MLOAD PUSH2 0x385 SWAP2 SWAP1 PUSH2 0x3564 JUMP JUMPDEST PUSH1 0x40 MLOAD DUP1 SWAP2 SUB SWAP1 RETURN JUMPDEST PUSH2 0x396 PUSH2 0x1D06 JUMP JUMPDEST STOP JUMPDEST CALLVALUE DUP1 ISZERO PUSH2 0x3A4 JUMPI PUSH1 0x0 DUP1 REVERT JUMPDEST POP PUSH2 0x3BF PUSH1 0x4 DUP1 CALLDATASIZE SUB DUP2 ADD SWAP1 PUSH2 0x3BA SWAP2 SWAP1 PUSH2 0x327B JUMP JUMPDEST PUSH2 0x1F03 JUMP JUMPDEST PUSH1 0x40 MLOAD PUSH2 0x3CC SWAP2 SWAP1 PUSH2 0x353A JUMP JUMPDEST PUSH1 0x40 MLOAD DUP1 SWAP2 SUB SWAP1 RETURN JUMPDEST CALLVALUE DUP1 ISZERO PUSH2 0x3E1 JUMPI PUSH1 0x0 DUP1 REVERT JUMPDEST POP PUSH2 0x3EA PUSH2 0x1F64 JUMP JUMPDEST PUSH1 0x40 MLOAD PUSH2 0x3F9 SWAP4 SWAP3 SWAP2 SWAP1 PUSH2 0x3724 JUMP JUMPDEST PUSH1 0x40 MLOAD DUP1 SWAP2 SUB SWAP1 RETURN JUMPDEST CALLVALUE DUP1 ISZERO PUSH2 0x40E JUMPI PUSH1 0x0 DUP1 REVERT JUMPDEST POP PUSH2 0x429 PUSH1 0x4 DUP1 CALLDATASIZE SUB DUP2 ADD SWAP1 PUSH2 0x424 SWAP2 SWAP1 PUSH2 0x3406 JUMP JUMPDEST PUSH2 0x2200 JUMP JUMPDEST STOP JUMPDEST CALLVALUE DUP1 ISZERO PUSH2 0x437 JUMPI PUSH1 0x0 DUP1 REVERT JUMPDEST POP PUSH2 0x440 PUSH2 0x22F7 JUMP JUMPDEST PUSH1 0x40 MLOAD PUSH2 0x44D SWAP2 SWAP1 PUSH2 0x353A JUMP JUMPDEST PUSH1 0x40 MLOAD DUP1 SWAP2 SUB SWAP1 RETURN JUMPDEST TIMESTAMP PUSH1 0x2 SLOAD LT ISZERO DUP1 ISZERO PUSH2 0x46B JUMPI POP PUSH1 0x6 SLOAD PUSH1 0x7 SLOAD LT JUMPDEST PUSH2 0x4AA JUMPI PUSH1 0x40 MLOAD PUSH32 0x8C379A000000000000000000000000000000000000000000000000000000000 DUP2 MSTORE PUSH1 0x4 ADD PUSH2 0x4A1 SWAP1 PUSH2 0x37CD JUMP JUMPDEST PUSH1 0x40 MLOAD DUP1 SWAP2 SUB SWAP1 REVERT JUMPDEST PUSH1 0x3 PUSH1 0x0 SWAP1 SLOAD SWAP1 PUSH2 0x100 EXP SWAP1 DIV PUSH1 0xFF AND PUSH2 0x4F9 JUMPI PUSH1 0x40 MLOAD PUSH32 0x8C379A000000000000000000000000000000000000000000000000000000000 DUP2 MSTORE PUSH1 0x4 ADD PUSH2 0x4F0 SWAP1 PUSH2 0x3839 JUMP JUMPDEST PUSH1 0x40 MLOAD DUP1 SWAP2 SUB SWAP1 REVERT JUMPDEST PUSH1 0x0 PUSH32 0x0 SWAP1 POP DUP1 PUSH20 0xFFFFFFFFFFFFFFFFFFFFFFFFFFFFFFFFFFFFFFFF AND PUSH4 0xB187BD26 PUSH1 0x40 MLOAD DUP2 PUSH4 0xFFFFFFFF AND PUSH1 0xE0 SHL DUP2 MSTORE PUSH1 0x4 ADD PUSH1 0x20 PUSH1 0x40 MLOAD DUP1 DUP4 SUB DUP2 DUP7 GAS STATICCALL ISZERO DUP1 ISZERO PUSH2 0x569 JUMPI RETURNDATASIZE PUSH1 0x0 DUP1 RETURNDATACOPY RETURNDATASIZE PUSH1 0x0 REVERT JUMPDEST POP POP POP POP PUSH1 0x40 MLOAD RETURNDATASIZE PUSH1 0x1F NOT PUSH1 0x1F DUP3 ADD AND DUP3 ADD DUP1 PUSH1 0x40 MSTORE POP DUP2 ADD SWAP1 PUSH2 0x58D SWAP2 SWAP1 PUSH2 0x386E JUMP JUMPDEST ISZERO PUSH2 0x5CD JUMPI PUSH1 0x40 MLOAD PUSH32 0x8C379A000000000000000000000000000000000000000000000000000000000 DUP2 MSTORE PUSH1 0x4 ADD PUSH2 0x5C4 SWAP1 PUSH2 0x390D JUMP JUMPDEST PUSH1 0x40 MLOAD DUP1 SWAP2 SUB SWAP1 REVERT JUMPDEST PUSH1 0x8 PUSH1 0x0 SWAP1 SLOAD SWAP1 PUSH2 0x100 EXP SWAP1 DIV PUSH1 0xFF AND PUSH2 0x61C JUMPI PUSH1 0x40 MLOAD PUSH32 0x8C379A000000000000000000000000000000000000000000000000000000000 DUP2 MSTORE PUSH1 0x4 ADD PUSH2 0x613 SWAP1 PUSH2 0x399F JUMP JUMPDEST PUSH1 0x40 MLOAD DUP1 SWAP2 SUB SWAP1 REVERT JUMPDEST PUSH1 0x0 PUSH1 0x8 PUSH1 0x1 SWAP1 SLOAD SWAP1 PUSH2 0x100 EXP SWAP1 DIV PUSH1 0xFF AND PUSH1 0x2 DUP2 GT ISZERO PUSH2 0x640 JUMPI PUSH2 0x63F PUSH2 0x3316 JUMP JUMPDEST JUMPDEST DUP2 PUSH1 0x2 DUP2 GT ISZERO PUSH2 0x653 JUMPI PUSH2 0x652 PUSH2 0x3316 JUMP JUMPDEST JUMPDEST EQ PUSH2 0x693 JUMPI PUSH1 0x40 MLOAD PUSH32 0x8C379A000000000000000000000000000000000000000000000000000000000 DUP2 MSTORE PUSH1 0x4 ADD PUSH2 0x68A SWAP1 PUSH2 0x3A31 JUMP JUMPDEST PUSH1 0x40 MLOAD DUP1 SWAP2 SUB SWAP1 REVERT JUMPDEST PUSH2 0x69C DUP4 PUSH2 0x2350 JUMP JUMPDEST POP POP POP JUMP JUMPDEST TIMESTAMP PUSH1 0x2 SLOAD LT ISZERO DUP1 ISZERO PUSH2 0x6B6 JUMPI POP PUSH1 0x6 SLOAD PUSH1 0x7 SLOAD LT JUMPDEST PUSH2 0x6F5 JUMPI PUSH1 0x40 MLOAD PUSH32 0x8C379A000000000000000000000000000000000000000000000000000000000 DUP2 MSTORE PUSH1 0x4 ADD PUSH2 0x6EC SWAP1 PUSH2 0x37CD JUMP JUMPDEST PUSH1 0x40 MLOAD DUP1 SWAP2 SUB SWAP1 REVERT JUMPDEST PUSH1 0x3 PUSH1 0x0 SWAP1 SLOAD SWAP1 PUSH2 0x100 EXP SWAP1 DIV PUSH1 0xFF AND PUSH2 0x744 JUMPI PUSH1 0x40 MLOAD PUSH32 0x8C379A000000000000000000000000000000000000000000000000000000000 DUP2 MSTORE PUSH1 0x4 ADD PUSH2 0x73B SWAP1 PUSH2 0x3839 JUMP JUMPDEST PUSH1 0x40 MLOAD DUP1 SWAP2 SUB SWAP1 REVERT JUMPDEST PUSH1 0x0 PUSH32 0x0 SWAP1 POP DUP1 PUSH20 0xFFFFFFFFFFFFFFFFFFFFFFFFFFFFFFFFFFFFFFFF AND PUSH4 0xB187BD26 PUSH1 0x40 MLOAD DUP2 PUSH4 0xFFFFFFFF AND PUSH1 0xE0 SHL DUP2 MSTORE PUSH1 0x4 ADD PUSH1 0x20 PUSH1 0x40 MLOAD DUP1 DUP4 SUB DUP2 DUP7 GAS STATICCALL ISZERO DUP1 ISZERO PUSH2 0x7B4 JUMPI RETURNDATASIZE PUSH1 0x0 DUP1 RETURNDATACOPY RETURNDATASIZE PUSH1 0x0 REVERT JUMPDEST POP POP POP POP PUSH1 0x40 MLOAD RETURNDATASIZE PUSH1 0x1F NOT PUSH1 0x1F DUP3 ADD AND DUP3 ADD DUP1 PUSH1 0x40 MSTORE POP DUP2 ADD SWAP1 PUSH2 0x7D8 SWAP2 SWAP1 PUSH2 0x386E JUMP JUMPDEST ISZERO PUSH2 0x818 JUMPI PUSH1 0x40 MLOAD PUSH32 0x8C379A000000000000000000000000000000000000000000000000000000000 DUP2 MSTORE PUSH1 0x4 ADD PUSH2 0x80F SWAP1 PUSH2 0x390D JUMP JUMPDEST PUSH1 0x40 MLOAD DUP1 SWAP2 SUB SWAP1 REVERT JUMPDEST PUSH1 0x8 PUSH1 0x0 SWAP1 SLOAD SWAP1 PUSH2 0x100 EXP SWAP1 DIV PUSH1 0xFF AND PUSH2 0x867 JUMPI PUSH1 0x40 MLOAD PUSH32 0x8C379A000000000000000000000000000000000000000000000000000000000 DUP2 MSTORE PUSH1 0x4 ADD PUSH2 0x85E SWAP1 PUSH2 0x399F JUMP JUMPDEST PUSH1 0x40 MLOAD DUP1 SWAP2 SUB SWAP1 REVERT JUMPDEST PUSH1 0x2 PUSH1 0x8 PUSH1 0x1 SWAP1 SLOAD SWAP1 PUSH2 0x100 EXP SWAP1 DIV PUSH1 0xFF AND PUSH1 0x2 DUP2 GT ISZERO PUSH2 0x88B JUMPI PUSH2 0x88A PUSH2 0x3316 JUMP JUMPDEST JUMPDEST DUP2 PUSH1 0x2 DUP2 GT ISZERO PUSH2 0x89E JUMPI PUSH2 0x89D PUSH2 0x3316 JUMP JUMPDEST JUMPDEST EQ PUSH2 0x8DE JUMPI PUSH1 0x40 MLOAD PUSH32 0x8C379A000000000000000000000000000000000000000000000000000000000 DUP2 MSTORE PUSH1 0x4 ADD PUSH2 0x8D5 SWAP1 PUSH2 0x3A31 JUMP JUMPDEST PUSH1 0x40 MLOAD DUP1 SWAP2 SUB SWAP1 REVERT JUMPDEST PUSH2 0x8E7 DUP4 PUSH2 0x2738 JUMP JUMPDEST POP POP POP JUMP JUMPDEST PUSH1 0x3 PUSH1 0x0 SWAP1 SLOAD SWAP1 PUSH2 0x100 EXP SWAP1 DIV PUSH1 0xFF AND DUP2 JUMP JUMPDEST TIMESTAMP PUSH1 0x2 SLOAD LT DUP1 PUSH2 0x913 JUMPI POP PUSH1 0x6 SLOAD PUSH1 0x7 SLOAD LT ISZERO JUMPDEST PUSH2 0x952 JUMPI PUSH1 0x40 MLOAD PUSH32 0x8C379A000000000000000000000000000000000000000000000000000000000 DUP2 MSTORE PUSH1 0x4 ADD PUSH2 0x949 SWAP1 PUSH2 0x3A9D JUMP JUMPDEST PUSH1 0x40 MLOAD DUP1 SWAP2 SUB SWAP1 REVERT JUMPDEST PUSH1 0x3 PUSH1 0x0 SWAP1 SLOAD SWAP1 PUSH2 0x100 EXP SWAP1 DIV PUSH1 0xFF AND PUSH2 0x9A1 JUMPI PUSH1 0x40 MLOAD PUSH32 0x8C379A000000000000000000000000000000000000000000000000000000000 DUP2 MSTORE PUSH1 0x4 ADD PUSH2 0x998 SWAP1 PUSH2 0x3839 JUMP JUMPDEST PUSH1 0x40 MLOAD DUP1 SWAP2 SUB SWAP1 REVERT JUMPDEST PUSH2 0x9A9 PUSH2 0x2AB0 JUMP JUMPDEST PUSH20 0xFFFFFFFFFFFFFFFFFFFFFFFFFFFFFFFFFFFFFFFF AND PUSH2 0x9C7 PUSH2 0x181F JUMP JUMPDEST PUSH20 0xFFFFFFFFFFFFFFFFFFFFFFFFFFFFFFFFFFFFFFFF AND EQ PUSH2 0xA1D JUMPI PUSH1 0x40 MLOAD PUSH32 0x8C379A000000000000000000000000000000000000000000000000000000000 DUP2 MSTORE PUSH1 0x4 ADD PUSH2 0xA14 SWAP1 PUSH2 0x3B09 JUMP JUMPDEST PUSH1 0x40 MLOAD DUP1 SWAP2 SUB SWAP1 REVERT JUMPDEST PUSH1 0x0 PUSH1 0x1 PUSH1 0x0 SWAP1 SLOAD SWAP1 PUSH2 0x100 EXP SWAP1 DIV PUSH20 0xFFFFFFFFFFFFFFFFFFFFFFFFFFFFFFFFFFFFFFFF AND SWAP1 POP PUSH1 0x0 DUP2 PUSH20 0xFFFFFFFFFFFFFFFFFFFFFFFFFFFFFFFFFFFFFFFF AND PUSH4 0x70A08231 ADDRESS PUSH1 0x40 MLOAD DUP3 PUSH4 0xFFFFFFFF AND PUSH1 0xE0 SHL DUP2 MSTORE PUSH1 0x4 ADD PUSH2 0xA7F SWAP2 SWAP1 PUSH2 0x3564 JUMP JUMPDEST PUSH1 0x20 PUSH1 0x40 MLOAD DUP1 DUP4 SUB DUP2 DUP7 GAS STATICCALL ISZERO DUP1 ISZERO PUSH2 0xA9C JUMPI RETURNDATASIZE PUSH1 0x0 DUP1 RETURNDATACOPY RETURNDATASIZE PUSH1 0x0 REVERT JUMPDEST POP POP POP POP PUSH1 0x40 MLOAD RETURNDATASIZE PUSH1 0x1F NOT PUSH1 0x1F DUP3 ADD AND DUP3 ADD DUP1 PUSH1 0x40 MSTORE POP DUP2 ADD SWAP1 PUSH2 0xAC0 SWAP2 SWAP1 PUSH2 0x3B3E JUMP JUMPDEST SWAP1 POP PUSH1 0x0 DUP2 GT ISZERO PUSH2 0xB63 JUMPI PUSH1 0x1 PUSH1 0x0 SWAP1 SLOAD SWAP1 PUSH2 0x100 EXP SWAP1 DIV PUSH20 0xFFFFFFFFFFFFFFFFFFFFFFFFFFFFFFFFFFFFFFFF AND PUSH20 0xFFFFFFFFFFFFFFFFFFFFFFFFFFFFFFFFFFFFFFFF AND PUSH4 0x2E1A7D4D DUP3 PUSH1 0x40 MLOAD DUP3 PUSH4 0xFFFFFFFF AND PUSH1 0xE0 SHL DUP2 MSTORE PUSH1 0x4 ADD PUSH2 0xB26 SWAP2 SWAP1 PUSH2 0x353A JUMP JUMPDEST PUSH1 0x0 PUSH1 0x40 MLOAD DUP1 DUP4 SUB DUP2 PUSH1 0x0 DUP8 DUP1 EXTCODESIZE ISZERO DUP1 ISZERO PUSH2 0xB40 JUMPI PUSH1 0x0 DUP1 REVERT JUMPDEST POP GAS CALL ISZERO DUP1 ISZERO PUSH2 0xB54 JUMPI RETURNDATASIZE PUSH1 0x0 DUP1 RETURNDATACOPY RETURNDATASIZE PUSH1 0x0 REVERT JUMPDEST POP POP POP POP PUSH2 0xB62 CALLER DUP3 PUSH2 0x2AB8 JUMP JUMPDEST JUMPDEST PUSH1 0x0 PUSH1 0x4 PUSH1 0x0 SWAP1 SLOAD SWAP1 PUSH2 0x100 EXP SWAP1 DIV PUSH20 0xFFFFFFFFFFFFFFFFFFFFFFFFFFFFFFFFFFFFFFFF AND PUSH20 0xFFFFFFFFFFFFFFFFFFFFFFFFFFFFFFFFFFFFFFFF AND PUSH4 0x70A08231 ADDRESS PUSH1 0x40 MLOAD DUP3 PUSH4 0xFFFFFFFF AND PUSH1 0xE0 SHL DUP2 MSTORE PUSH1 0x4 ADD PUSH2 0xBC0 SWAP2 SWAP1 PUSH2 0x3564 JUMP JUMPDEST PUSH1 0x20 PUSH1 0x40 MLOAD DUP1 DUP4 SUB DUP2 DUP7 GAS STATICCALL ISZERO DUP1 ISZERO PUSH2 0xBDD JUMPI RETURNDATASIZE PUSH1 0x0 DUP1 RETURNDATACOPY RETURNDATASIZE PUSH1 0x0 REVERT JUMPDEST POP POP POP POP PUSH1 0x40 MLOAD RETURNDATASIZE PUSH1 0x1F NOT PUSH1 0x1F DUP3 ADD AND DUP3 ADD DUP1 PUSH1 0x40 MSTORE POP DUP2 ADD SWAP1 PUSH2 0xC01 SWAP2 SWAP1 PUSH2 0x3B3E JUMP JUMPDEST SWAP1 POP PUSH1 0x0 DUP2 GT ISZERO PUSH2 0xC3A JUMPI PUSH2 0xC39 PUSH1 0x4 PUSH1 0x0 SWAP1 SLOAD SWAP1 PUSH2 0x100 EXP SWAP1 DIV PUSH20 0xFFFFFFFFFFFFFFFFFFFFFFFFFFFFFFFFFFFFFFFF AND CALLER DUP4 PUSH2 0x2BB8 JUMP JUMPDEST JUMPDEST PUSH1 0x0 PUSH1 0x3 PUSH1 0x1 SWAP1 SLOAD SWAP1 PUSH2 0x100 EXP SWAP1 DIV PUSH20 0xFFFFFFFFFFFFFFFFFFFFFFFFFFFFFFFFFFFFFFFF AND PUSH20 0xFFFFFFFFFFFFFFFFFFFFFFFFFFFFFFFFFFFFFFFF AND PUSH4 0x70A08231 ADDRESS PUSH1 0x40 MLOAD DUP3 PUSH4 0xFFFFFFFF AND PUSH1 0xE0 SHL DUP2 MSTORE PUSH1 0x4 ADD PUSH2 0xC97 SWAP2 SWAP1 PUSH2 0x3564 JUMP JUMPDEST PUSH1 0x20 PUSH1 0x40 MLOAD DUP1 DUP4 SUB DUP2 DUP7 GAS STATICCALL ISZERO DUP1 ISZERO PUSH2 0xCB4 JUMPI RETURNDATASIZE PUSH1 0x0 DUP1 RETURNDATACOPY RETURNDATASIZE PUSH1 0x0 REVERT JUMPDEST POP POP POP POP PUSH1 0x40 MLOAD RETURNDATASIZE PUSH1 0x1F NOT PUSH1 0x1F DUP3 ADD AND DUP3 ADD DUP1 PUSH1 0x40 MSTORE POP DUP2 ADD SWAP1 PUSH2 0xCD8 SWAP2 SWAP1 PUSH2 0x3B3E JUMP JUMPDEST SWAP1 POP PUSH1 0x0 DUP2 GT ISZERO PUSH2 0xD11 JUMPI PUSH2 0xD10 PUSH1 0x3 PUSH1 0x1 SWAP1 SLOAD SWAP1 PUSH2 0x100 EXP SWAP1 DIV PUSH20 0xFFFFFFFFFFFFFFFFFFFFFFFFFFFFFFFFFFFFFFFF AND CALLER DUP4 PUSH2 0x2BB8 JUMP JUMPDEST JUMPDEST PUSH1 0x0 DUP1 PUSH1 0x0 PUSH1 0x2 DUP2 GT ISZERO PUSH2 0xD28 JUMPI PUSH2 0xD27 PUSH2 0x3316 JUMP JUMPDEST JUMPDEST PUSH1 0x8 PUSH1 0x1 SWAP1 SLOAD SWAP1 PUSH2 0x100 EXP SWAP1 DIV PUSH1 0xFF AND PUSH1 0x2 DUP2 GT ISZERO PUSH2 0xD4A JUMPI PUSH2 0xD49 PUSH2 0x3316 JUMP JUMPDEST JUMPDEST SUB PUSH2 0xD5A JUMPI DUP5 SWAP2 POP DUP4 SWAP1 POP PUSH2 0xDA7 JUMP JUMPDEST PUSH1 0x2 DUP1 DUP2 GT ISZERO PUSH2 0xD6D JUMPI PUSH2 0xD6C PUSH2 0x3316 JUMP JUMPDEST JUMPDEST PUSH1 0x8 PUSH1 0x1 SWAP1 SLOAD SWAP1 PUSH2 0x100 EXP SWAP1 DIV PUSH1 0xFF AND PUSH1 0x2 DUP2 GT ISZERO PUSH2 0xD8F JUMPI PUSH2 0xD8E PUSH2 0x3316 JUMP JUMPDEST JUMPDEST SUB PUSH2 0xD9F JUMPI DUP3 SWAP2 POP DUP4 SWAP1 POP PUSH2 0xDA6 JUMP JUMPDEST DUP3 SWAP2 POP DUP5 SWAP1 POP JUMPDEST JUMPDEST PUSH1 0x0 PUSH32 0x0 SWAP1 POP DUP1 PUSH20 0xFFFFFFFFFFFFFFFFFFFFFFFFFFFFFFFFFFFFFFFF AND PUSH4 0x33796A0E ADDRESS CALLER DUP7 DUP7 PUSH1 0x40 MLOAD DUP6 PUSH4 0xFFFFFFFF AND PUSH1 0xE0 SHL DUP2 MSTORE PUSH1 0x4 ADD PUSH2 0xE0B SWAP5 SWAP4 SWAP3 SWAP2 SWAP1 PUSH2 0x3B6B JUMP JUMPDEST PUSH1 0x0 PUSH1 0x40 MLOAD DUP1 DUP4 SUB DUP2 PUSH1 0x0 DUP8 DUP1 EXTCODESIZE ISZERO DUP1 ISZERO PUSH2 0xE25 JUMPI PUSH1 0x0 DUP1 REVERT JUMPDEST POP GAS CALL ISZERO DUP1 ISZERO PUSH2 0xE39 JUMPI RETURNDATASIZE PUSH1 0x0 DUP1 RETURNDATACOPY RETURNDATASIZE PUSH1 0x0 REVERT JUMPDEST POP POP POP POP CALLER PUSH20 0xFFFFFFFFFFFFFFFFFFFFFFFFFFFFFFFFFFFFFFFF AND SELFDESTRUCT JUMPDEST PUSH1 0x0 DUP1 PUSH1 0x3 PUSH1 0x0 SWAP1 SLOAD SWAP1 PUSH2 0x100 EXP SWAP1 DIV PUSH1 0xFF AND PUSH2 0xEA8 JUMPI PUSH1 0x40 MLOAD PUSH32 0x8C379A000000000000000000000000000000000000000000000000000000000 DUP2 MSTORE PUSH1 0x4 ADD PUSH2 0xE9F SWAP1 PUSH2 0x3839 JUMP JUMPDEST PUSH1 0x40 MLOAD DUP1 SWAP2 SUB SWAP1 REVERT JUMPDEST PUSH1 0x5 SLOAD PUSH1 0x6 SLOAD SWAP2 POP SWAP2 POP SWAP1 SWAP2 JUMP JUMPDEST TIMESTAMP PUSH1 0x2 SLOAD LT ISZERO DUP1 ISZERO PUSH2 0xECB JUMPI POP PUSH1 0x6 SLOAD PUSH1 0x7 SLOAD LT JUMPDEST PUSH2 0xF0A JUMPI PUSH1 0x40 MLOAD PUSH32 0x8C379A000000000000000000000000000000000000000000000000000000000 DUP2 MSTORE PUSH1 0x4 ADD PUSH2 0xF01 SWAP1 PUSH2 0x37CD JUMP JUMPDEST PUSH1 0x40 MLOAD DUP1 SWAP2 SUB SWAP1 REVERT JUMPDEST PUSH1 0x3 PUSH1 0x0 SWAP1 SLOAD SWAP1 PUSH2 0x100 EXP SWAP1 DIV PUSH1 0xFF AND PUSH2 0xF59 JUMPI PUSH1 0x40 MLOAD PUSH32 0x8C379A000000000000000000000000000000000000000000000000000000000 DUP2 MSTORE PUSH1 0x4 ADD PUSH2 0xF50 SWAP1 PUSH2 0x3839 JUMP JUMPDEST PUSH1 0x40 MLOAD DUP1 SWAP2 SUB SWAP1 REVERT JUMPDEST PUSH1 0x0 PUSH32 0x0 SWAP1 POP DUP1 PUSH20 0xFFFFFFFFFFFFFFFFFFFFFFFFFFFFFFFFFFFFFFFF AND PUSH4 0xB187BD26 PUSH1 0x40 MLOAD DUP2 PUSH4 0xFFFFFFFF AND PUSH1 0xE0 SHL DUP2 MSTORE PUSH1 0x4 ADD PUSH1 0x20 PUSH1 0x40 MLOAD DUP1 DUP4 SUB DUP2 DUP7 GAS STATICCALL ISZERO DUP1 ISZERO PUSH2 0xFC9 JUMPI RETURNDATASIZE PUSH1 0x0 DUP1 RETURNDATACOPY RETURNDATASIZE PUSH1 0x0 REVERT JUMPDEST POP POP POP POP PUSH1 0x40 MLOAD RETURNDATASIZE PUSH1 0x1F NOT PUSH1 0x1F DUP3 ADD AND DUP3 ADD DUP1 PUSH1 0x40 MSTORE POP DUP2 ADD SWAP1 PUSH2 0xFED SWAP2 SWAP1 PUSH2 0x386E JUMP JUMPDEST ISZERO PUSH2 0x102D JUMPI PUSH1 0x40 MLOAD PUSH32 0x8C379A000000000000000000000000000000000000000000000000000000000 DUP2 MSTORE PUSH1 0x4 ADD PUSH2 0x1024 SWAP1 PUSH2 0x390D JUMP JUMPDEST PUSH1 0x40 MLOAD DUP1 SWAP2 SUB SWAP1 REVERT JUMPDEST PUSH1 0x8 PUSH1 0x0 SWAP1 SLOAD SWAP1 PUSH2 0x100 EXP SWAP1 DIV PUSH1 0xFF AND PUSH2 0x107C JUMPI PUSH1 0x40 MLOAD PUSH32 0x8C379A000000000000000000000000000000000000000000000000000000000 DUP2 MSTORE PUSH1 0x4 ADD PUSH2 0x1073 SWAP1 PUSH2 0x399F JUMP JUMPDEST PUSH1 0x40 MLOAD DUP1 SWAP2 SUB SWAP1 REVERT JUMPDEST PUSH1 0x1 PUSH1 0x8 PUSH1 0x1 SWAP1 SLOAD SWAP1 PUSH2 0x100 EXP SWAP1 DIV PUSH1 0xFF AND PUSH1 0x2 DUP2 GT ISZERO PUSH2 0x10A0 JUMPI PUSH2 0x109F PUSH2 0x3316 JUMP JUMPDEST JUMPDEST DUP2 PUSH1 0x2 DUP2 GT ISZERO PUSH2 0x10B3 JUMPI PUSH2 0x10B2 PUSH2 0x3316 JUMP JUMPDEST JUMPDEST EQ PUSH2 0x10F3 JUMPI PUSH1 0x40 MLOAD PUSH32 0x8C379A000000000000000000000000000000000000000000000000000000000 DUP2 MSTORE PUSH1 0x4 ADD PUSH2 0x10EA SWAP1 PUSH2 0x3A31 JUMP JUMPDEST PUSH1 0x40 MLOAD DUP1 SWAP2 SUB SWAP1 REVERT JUMPDEST PUSH2 0x10FC DUP4 PUSH2 0x2CEE JUMP JUMPDEST POP POP POP JUMP JUMPDEST PUSH1 0x0 PUSH1 0x3 PUSH1 0x0 SWAP1 SLOAD SWAP1 PUSH2 0x100 EXP SWAP1 DIV PUSH1 0xFF AND PUSH2 0x1152 JUMPI PUSH1 0x40 MLOAD PUSH32 0x8C379A000000000000000000000000000000000000000000000000000000000 DUP2 MSTORE PUSH1 0x4 ADD PUSH2 0x1149 SWAP1 PUSH2 0x3839 JUMP JUMPDEST PUSH1 0x40 MLOAD DUP1 SWAP2 SUB SWAP1 REVERT JUMPDEST PUSH1 0x8 PUSH1 0x1 SWAP1 SLOAD SWAP1 PUSH2 0x100 EXP SWAP1 DIV PUSH1 0xFF AND SWAP1 POP SWAP1 JUMP JUMPDEST PUSH2 0x116F PUSH2 0x2AB0 JUMP JUMPDEST PUSH20 0xFFFFFFFFFFFFFFFFFFFFFFFFFFFFFFFFFFFFFFFF AND PUSH2 0x118D PUSH2 0x181F JUMP JUMPDEST PUSH20 0xFFFFFFFFFFFFFFFFFFFFFFFFFFFFFFFFFFFFFFFF AND EQ PUSH2 0x11E3 JUMPI PUSH1 0x40 MLOAD PUSH32 0x8C379A000000000000000000000000000000000000000000000000000000000 DUP2 MSTORE PUSH1 0x4 ADD PUSH2 0x11DA SWAP1 PUSH2 0x3B09 JUMP JUMPDEST PUSH1 0x40 MLOAD DUP1 SWAP2 SUB SWAP1 REVERT JUMPDEST PUSH1 0x3 PUSH1 0x0 SWAP1 SLOAD SWAP1 PUSH2 0x100 EXP SWAP1 DIV PUSH1 0xFF AND PUSH2 0x1232 JUMPI PUSH1 0x40 MLOAD PUSH32 0x8C379A000000000000000000000000000000000000000000000000000000000 DUP2 MSTORE PUSH1 0x4 ADD PUSH2 0x1229 SWAP1 PUSH2 0x3839 JUMP JUMPDEST PUSH1 0x40 MLOAD DUP1 SWAP2 SUB SWAP1 REVERT JUMPDEST PUSH1 0x4 PUSH1 0x0 SWAP1 SLOAD SWAP1 PUSH2 0x100 EXP SWAP1 DIV PUSH20 0xFFFFFFFFFFFFFFFFFFFFFFFFFFFFFFFFFFFFFFFF AND PUSH20 0xFFFFFFFFFFFFFFFFFFFFFFFFFFFFFFFFFFFFFFFF AND DUP2 PUSH20 0xFFFFFFFFFFFFFFFFFFFFFFFFFFFFFFFFFFFFFFFF AND SUB PUSH2 0x12C2 JUMPI PUSH1 0x40 MLOAD PUSH32 0x8C379A000000000000000000000000000000000000000000000000000000000 DUP2 MSTORE PUSH1 0x4 ADD PUSH2 0x12B9 SWAP1 PUSH2 0x3BFC JUMP JUMPDEST PUSH1 0x40 MLOAD DUP1 SWAP2 SUB SWAP1 REVERT JUMPDEST PUSH1 0x3 PUSH1 0x1 SWAP1 SLOAD SWAP1 PUSH2 0x100 EXP SWAP1 DIV PUSH20 0xFFFFFFFFFFFFFFFFFFFFFFFFFFFFFFFFFFFFFFFF AND PUSH20 0xFFFFFFFFFFFFFFFFFFFFFFFFFFFFFFFFFFFFFFFF AND DUP2 PUSH20 0xFFFFFFFFFFFFFFFFFFFFFFFFFFFFFFFFFFFFFFFF AND SUB PUSH2 0x1352 JUMPI PUSH1 0x40 MLOAD PUSH32 0x8C379A000000000000000000000000000000000000000000000000000000000 DUP2 MSTORE PUSH1 0x4 ADD PUSH2 0x1349 SWAP1 PUSH2 0x3BFC JUMP JUMPDEST PUSH1 0x40 MLOAD DUP1 SWAP2 SUB SWAP1 REVERT JUMPDEST PUSH1 0x0 DUP2 PUSH20 0xFFFFFFFFFFFFFFFFFFFFFFFFFFFFFFFFFFFFFFFF AND PUSH4 0x70A08231 ADDRESS PUSH1 0x40 MLOAD DUP3 PUSH4 0xFFFFFFFF AND PUSH1 0xE0 SHL DUP2 MSTORE PUSH1 0x4 ADD PUSH2 0x138D SWAP2 SWAP1 PUSH2 0x3564 JUMP JUMPDEST PUSH1 0x20 PUSH1 0x40 MLOAD DUP1 DUP4 SUB DUP2 DUP7 GAS STATICCALL ISZERO DUP1 ISZERO PUSH2 0x13AA JUMPI RETURNDATASIZE PUSH1 0x0 DUP1 RETURNDATACOPY RETURNDATASIZE PUSH1 0x0 REVERT JUMPDEST POP POP POP POP PUSH1 0x40 MLOAD RETURNDATASIZE PUSH1 0x1F NOT PUSH1 0x1F DUP3 ADD AND DUP3 ADD DUP1 PUSH1 0x40 MSTORE POP DUP2 ADD SWAP1 PUSH2 0x13CE SWAP2 SWAP1 PUSH2 0x3B3E JUMP JUMPDEST SWAP1 POP PUSH1 0x0 DUP2 GT ISZERO PUSH2 0x1407 JUMPI PUSH2 0x1406 PUSH1 0x3 PUSH1 0x1 SWAP1 SLOAD SWAP1 PUSH2 0x100 EXP SWAP1 DIV PUSH20 0xFFFFFFFFFFFFFFFFFFFFFFFFFFFFFFFFFFFFFFFF AND CALLER DUP4 PUSH2 0x2BB8 JUMP JUMPDEST JUMPDEST POP POP JUMP JUMPDEST PUSH1 0x0 PUSH32 0x0 PUSH20 0xFFFFFFFFFFFFFFFFFFFFFFFFFFFFFFFFFFFFFFFF AND CALLER PUSH20 0xFFFFFFFFFFFFFFFFFFFFFFFFFFFFFFFFFFFFFFFF AND EQ PUSH2 0x149B JUMPI PUSH1 0x40 MLOAD PUSH32 0x8C379A000000000000000000000000000000000000000000000000000000000 DUP2 MSTORE PUSH1 0x4 ADD PUSH2 0x1492 SWAP1 PUSH2 0x3BFC JUMP JUMPDEST PUSH1 0x40 MLOAD DUP1 SWAP2 SUB SWAP1 REVERT JUMPDEST PUSH1 0x3 PUSH1 0x0 SWAP1 SLOAD SWAP1 PUSH2 0x100 EXP SWAP1 DIV PUSH1 0xFF AND ISZERO PUSH2 0x14EB JUMPI PUSH1 0x40 MLOAD PUSH32 0x8C379A000000000000000000000000000000000000000000000000000000000 DUP2 MSTORE PUSH1 0x4 ADD PUSH2 0x14E2 SWAP1 PUSH2 0x3C8E JUMP JUMPDEST PUSH1 0x40 MLOAD DUP1 SWAP2 SUB SWAP1 REVERT JUMPDEST TIMESTAMP DUP5 LT PUSH2 0x152D JUMPI PUSH1 0x40 MLOAD PUSH32 0x8C379A000000000000000000000000000000000000000000000000000000000 DUP2 MSTORE PUSH1 0x4 ADD PUSH2 0x1524 SWAP1 PUSH2 0x3CFA JUMP JUMPDEST PUSH1 0x40 MLOAD DUP1 SWAP2 SUB SWAP1 REVERT JUMPDEST DUP6 DUP9 PUSH20 0xFFFFFFFFFFFFFFFFFFFFFFFFFFFFFFFFFFFFFFFF AND PUSH4 0x70A08231 ADDRESS PUSH1 0x40 MLOAD DUP3 PUSH4 0xFFFFFFFF AND PUSH1 0xE0 SHL DUP2 MSTORE PUSH1 0x4 ADD PUSH2 0x1567 SWAP2 SWAP1 PUSH2 0x3564 JUMP JUMPDEST PUSH1 0x20 PUSH1 0x40 MLOAD DUP1 DUP4 SUB DUP2 DUP7 GAS STATICCALL ISZERO DUP1 ISZERO PUSH2 0x1584 JUMPI RETURNDATASIZE PUSH1 0x0 DUP1 RETURNDATACOPY RETURNDATASIZE PUSH1 0x0 REVERT JUMPDEST POP POP POP POP PUSH1 0x40 MLOAD RETURNDATASIZE PUSH1 0x1F NOT PUSH1 0x1F DUP3 ADD AND DUP3 ADD DUP1 PUSH1 0x40 MSTORE POP DUP2 ADD SWAP1 PUSH2 0x15A8 SWAP2 SWAP1 PUSH2 0x3B3E JUMP JUMPDEST LT ISZERO PUSH2 0x15E9 JUMPI PUSH1 0x40 MLOAD PUSH32 0x8C379A000000000000000000000000000000000000000000000000000000000 DUP2 MSTORE PUSH1 0x4 ADD PUSH2 0x15E0 SWAP1 PUSH2 0x3D8C JUMP JUMPDEST PUSH1 0x40 MLOAD DUP1 SWAP2 SUB SWAP1 REVERT JUMPDEST DUP4 PUSH1 0x2 DUP2 SWAP1 SSTORE POP DUP8 PUSH1 0x3 PUSH1 0x1 PUSH2 0x100 EXP DUP2 SLOAD DUP2 PUSH20 0xFFFFFFFFFFFFFFFFFFFFFFFFFFFFFFFFFFFFFFFF MUL NOT AND SWAP1 DUP4 PUSH20 0xFFFFFFFFFFFFFFFFFFFFFFFFFFFFFFFFFFFFFFFF AND MUL OR SWAP1 SSTORE POP DUP7 PUSH1 0x4 PUSH1 0x0 PUSH2 0x100 EXP DUP2 SLOAD DUP2 PUSH20 0xFFFFFFFFFFFFFFFFFFFFFFFFFFFFFFFFFFFFFFFF MUL NOT AND SWAP1 DUP4 PUSH20 0xFFFFFFFFFFFFFFFFFFFFFFFFFFFFFFFFFFFFFFFF AND MUL OR SWAP1 SSTORE POP DUP6 PUSH1 0x5 DUP2 SWAP1 SSTORE POP DUP5 PUSH1 0x6 DUP2 SWAP1 SSTORE POP DUP9 PUSH1 0x8 PUSH1 0x1 PUSH2 0x100 EXP DUP2 SLOAD DUP2 PUSH1 0xFF MUL NOT AND SWAP1 DUP4 PUSH1 0x2 DUP2 GT ISZERO PUSH2 0x16A5 JUMPI PUSH2 0x16A4 PUSH2 0x3316 JUMP JUMPDEST JUMPDEST MUL OR SWAP1 SSTORE POP DUP3 PUSH1 0x8 PUSH1 0x0 PUSH2 0x100 EXP DUP2 SLOAD DUP2 PUSH1 0xFF MUL NOT AND SWAP1 DUP4 ISZERO ISZERO MUL OR SWAP1 SSTORE POP DUP2 PUSH1 0x1 PUSH1 0x0 PUSH2 0x100 EXP DUP2 SLOAD DUP2 PUSH20 0xFFFFFFFFFFFFFFFFFFFFFFFFFFFFFFFFFFFFFFFF MUL NOT AND SWAP1 DUP4 PUSH20 0xFFFFFFFFFFFFFFFFFFFFFFFFFFFFFFFFFFFFFFFF AND MUL OR SWAP1 SSTORE POP PUSH1 0x1 PUSH1 0x3 PUSH1 0x0 PUSH2 0x100 EXP DUP2 SLOAD DUP2 PUSH1 0xFF MUL NOT AND SWAP1 DUP4 ISZERO ISZERO MUL OR SWAP1 SSTORE POP PUSH1 0x3 PUSH1 0x0 SWAP1 SLOAD SWAP1 PUSH2 0x100 EXP SWAP1 DIV PUSH1 0xFF AND SWAP1 POP SWAP9 SWAP8 POP POP POP POP POP POP POP POP JUMP JUMPDEST PUSH1 0x0 PUSH1 0x3 PUSH1 0x0 SWAP1 SLOAD SWAP1 PUSH2 0x100 EXP SWAP1 DIV PUSH1 0xFF AND PUSH2 0x178F JUMPI PUSH1 0x40 MLOAD PUSH32 0x8C379A000000000000000000000000000000000000000000000000000000000 DUP2 MSTORE PUSH1 0x4 ADD PUSH2 0x1786 SWAP1 PUSH2 0x3839 JUMP JUMPDEST PUSH1 0x40 MLOAD DUP1 SWAP2 SUB SWAP1 REVERT JUMPDEST PUSH1 0x2 SLOAD SWAP1 POP SWAP1 JUMP JUMPDEST PUSH2 0x179F PUSH2 0x2AB0 JUMP JUMPDEST PUSH20 0xFFFFFFFFFFFFFFFFFFFFFFFFFFFFFFFFFFFFFFFF AND PUSH2 0x17BD PUSH2 0x181F JUMP JUMPDEST PUSH20 0xFFFFFFFFFFFFFFFFFFFFFFFFFFFFFFFFFFFFFFFF AND EQ PUSH2 0x1813 JUMPI PUSH1 0x40 MLOAD PUSH32 0x8C379A000000000000000000000000000000000000000000000000000000000 DUP2 MSTORE PUSH1 0x4 ADD PUSH2 0x180A SWAP1 PUSH2 0x3B09 JUMP JUMPDEST PUSH1 0x40 MLOAD DUP1 SWAP2 SUB SWAP1 REVERT JUMPDEST PUSH2 0x181D PUSH1 0x0 PUSH2 0x301F JUMP JUMPDEST JUMP JUMPDEST PUSH1 0x0 DUP1 PUSH1 0x0 SWAP1 SLOAD SWAP1 PUSH2 0x100 EXP SWAP1 DIV PUSH20 0xFFFFFFFFFFFFFFFFFFFFFFFFFFFFFFFFFFFFFFFF AND SWAP1 POP SWAP1 JUMP JUMPDEST TIMESTAMP PUSH1 0x2 SLOAD LT ISZERO DUP1 ISZERO PUSH2 0x185D JUMPI POP PUSH1 0x6 SLOAD PUSH1 0x7 SLOAD LT JUMPDEST PUSH2 0x189C JUMPI PUSH1 0x40 MLOAD PUSH32 0x8C379A000000000000000000000000000000000000000000000000000000000 DUP2 MSTORE PUSH1 0x4 ADD PUSH2 0x1893 SWAP1 PUSH2 0x37CD JUMP JUMPDEST PUSH1 0x40 MLOAD DUP1 SWAP2 SUB SWAP1 REVERT JUMPDEST PUSH1 0x3 PUSH1 0x0 SWAP1 SLOAD SWAP1 PUSH2 0x100 EXP SWAP1 DIV PUSH1 0xFF AND PUSH2 0x18EB JUMPI PUSH1 0x40 MLOAD PUSH32 0x8C379A000000000000000000000000000000000000000000000000000000000 DUP2 MSTORE PUSH1 0x4 ADD PUSH2 0x18E2 SWAP1 PUSH2 0x3839 JUMP JUMPDEST PUSH1 0x40 MLOAD DUP1 SWAP2 SUB SWAP1 REVERT JUMPDEST PUSH1 0x0 PUSH32 0x0 SWAP1 POP DUP1 PUSH20 0xFFFFFFFFFFFFFFFFFFFFFFFFFFFFFFFFFFFFFFFF AND PUSH4 0xB187BD26 PUSH1 0x40 MLOAD DUP2 PUSH4 0xFFFFFFFF AND PUSH1 0xE0 SHL DUP2 MSTORE PUSH1 0x4 ADD PUSH1 0x20 PUSH1 0x40 MLOAD DUP1 DUP4 SUB DUP2 DUP7 GAS STATICCALL ISZERO DUP1 ISZERO PUSH2 0x195B JUMPI RETURNDATASIZE PUSH1 0x0 DUP1 RETURNDATACOPY RETURNDATASIZE PUSH1 0x0 REVERT JUMPDEST POP POP POP POP PUSH1 0x40 MLOAD RETURNDATASIZE PUSH1 0x1F NOT PUSH1 0x1F DUP3 ADD AND DUP3 ADD DUP1 PUSH1 0x40 MSTORE POP DUP2 ADD SWAP1 PUSH2 0x197F SWAP2 SWAP1 PUSH2 0x386E JUMP JUMPDEST ISZERO PUSH2 0x19BF JUMPI PUSH1 0x40 MLOAD PUSH32 0x8C379A000000000000000000000000000000000000000000000000000000000 DUP2 MSTORE PUSH1 0x4 ADD PUSH2 0x19B6 SWAP1 PUSH2 0x390D JUMP JUMPDEST PUSH1 0x40 MLOAD DUP1 SWAP2 SUB SWAP1 REVERT JUMPDEST PUSH1 0x0 PUSH1 0x8 PUSH1 0x1 SWAP1 SLOAD SWAP1 PUSH2 0x100 EXP SWAP1 DIV PUSH1 0xFF AND PUSH1 0x2 DUP2 GT ISZERO PUSH2 0x19E3 JUMPI PUSH2 0x19E2 PUSH2 0x3316 JUMP JUMPDEST JUMPDEST DUP2 PUSH1 0x2 DUP2 GT ISZERO PUSH2 0x19F6 JUMPI PUSH2 0x19F5 PUSH2 0x3316 JUMP JUMPDEST JUMPDEST EQ PUSH2 0x1A36 JUMPI PUSH1 0x40 MLOAD PUSH32 0x8C379A000000000000000000000000000000000000000000000000000000000 DUP2 MSTORE PUSH1 0x4 ADD PUSH2 0x1A2D SWAP1 PUSH2 0x3A31 JUMP JUMPDEST PUSH1 0x40 MLOAD DUP1 SWAP2 SUB SWAP1 REVERT JUMPDEST PUSH2 0x1A41 PUSH1 0x6 SLOAD PUSH2 0x2350 JUMP JUMPDEST POP POP JUMP JUMPDEST PUSH1 0x0 DUP1 PUSH1 0x3 PUSH1 0x0 SWAP1 SLOAD SWAP1 PUSH2 0x100 EXP SWAP1 DIV PUSH1 0xFF AND PUSH2 0x1A97 JUMPI PUSH1 0x40 MLOAD PUSH32 0x8C379A000000000000000000000000000000000000000000000000000000000 DUP2 MSTORE PUSH1 0x4 ADD PUSH2 0x1A8E SWAP1 PUSH2 0x3839 JUMP JUMPDEST PUSH1 0x40 MLOAD DUP1 SWAP2 SUB SWAP1 REVERT JUMPDEST PUSH1 0x3 PUSH1 0x1 SWAP1 SLOAD SWAP1 PUSH2 0x100 EXP SWAP1 DIV PUSH20 0xFFFFFFFFFFFFFFFFFFFFFFFFFFFFFFFFFFFFFFFF AND PUSH1 0x4 PUSH1 0x0 SWAP1 SLOAD SWAP1 PUSH2 0x100 EXP SWAP1 DIV PUSH20 0xFFFFFFFFFFFFFFFFFFFFFFFFFFFFFFFFFFFFFFFF AND SWAP2 POP SWAP2 POP SWAP1 SWAP2 JUMP JUMPDEST TIMESTAMP PUSH1 0x2 SLOAD LT ISZERO DUP1 ISZERO PUSH2 0x1AFA JUMPI POP PUSH1 0x6 SLOAD PUSH1 0x7 SLOAD LT JUMPDEST PUSH2 0x1B39 JUMPI PUSH1 0x40 MLOAD PUSH32 0x8C379A000000000000000000000000000000000000000000000000000000000 DUP2 MSTORE PUSH1 0x4 ADD PUSH2 0x1B30 SWAP1 PUSH2 0x37CD JUMP JUMPDEST PUSH1 0x40 MLOAD DUP1 SWAP2 SUB SWAP1 REVERT JUMPDEST PUSH1 0x3 PUSH1 0x0 SWAP1 SLOAD SWAP1 PUSH2 0x100 EXP SWAP1 DIV PUSH1 0xFF AND PUSH2 0x1B88 JUMPI PUSH1 0x40 MLOAD PUSH32 0x8C379A000000000000000000000000000000000000000000000000000000000 DUP2 MSTORE PUSH1 0x4 ADD PUSH2 0x1B7F SWAP1 PUSH2 0x3839 JUMP JUMPDEST PUSH1 0x40 MLOAD DUP1 SWAP2 SUB SWAP1 REVERT JUMPDEST PUSH1 0x0 PUSH32 0x0 SWAP1 POP DUP1 PUSH20 0xFFFFFFFFFFFFFFFFFFFFFFFFFFFFFFFFFFFFFFFF AND PUSH4 0xB187BD26 PUSH1 0x40 MLOAD DUP2 PUSH4 0xFFFFFFFF AND PUSH1 0xE0 SHL DUP2 MSTORE PUSH1 0x4 ADD PUSH1 0x20 PUSH1 0x40 MLOAD DUP1 DUP4 SUB DUP2 DUP7 GAS STATICCALL ISZERO DUP1 ISZERO PUSH2 0x1BF8 JUMPI RETURNDATASIZE PUSH1 0x0 DUP1 RETURNDATACOPY RETURNDATASIZE PUSH1 0x0 REVERT JUMPDEST POP POP POP POP PUSH1 0x40 MLOAD RETURNDATASIZE PUSH1 0x1F NOT PUSH1 0x1F DUP3 ADD AND DUP3 ADD DUP1 PUSH1 0x40 MSTORE POP DUP2 ADD SWAP1 PUSH2 0x1C1C SWAP2 SWAP1 PUSH2 0x386E JUMP JUMPDEST ISZERO PUSH2 0x1C5C JUMPI PUSH1 0x40 MLOAD PUSH32 0x8C379A000000000000000000000000000000000000000000000000000000000 DUP2 MSTORE PUSH1 0x4 ADD PUSH2 0x1C53 SWAP1 PUSH2 0x390D JUMP JUMPDEST PUSH1 0x40 MLOAD DUP1 SWAP2 SUB SWAP1 REVERT JUMPDEST PUSH1 0x2 PUSH1 0x8 PUSH1 0x1 SWAP1 SLOAD SWAP1 PUSH2 0x100 EXP SWAP1 DIV PUSH1 0xFF AND PUSH1 0x2 DUP2 GT ISZERO PUSH2 0x1C80 JUMPI PUSH2 0x1C7F PUSH2 0x3316 JUMP JUMPDEST JUMPDEST DUP2 PUSH1 0x2 DUP2 GT ISZERO PUSH2 0x1C93 JUMPI PUSH2 0x1C92 PUSH2 0x3316 JUMP JUMPDEST JUMPDEST EQ PUSH2 0x1CD3 JUMPI PUSH1 0x40 MLOAD PUSH32 0x8C379A000000000000000000000000000000000000000000000000000000000 DUP2 MSTORE PUSH1 0x4 ADD PUSH2 0x1CCA SWAP1 PUSH2 0x3A31 JUMP JUMPDEST PUSH1 0x40 MLOAD DUP1 SWAP2 SUB SWAP1 REVERT JUMPDEST PUSH2 0x1CDE PUSH1 0x6 SLOAD PUSH2 0x2738 JUMP JUMPDEST POP POP JUMP JUMPDEST PUSH32 0x0 DUP2 JUMP JUMPDEST TIMESTAMP PUSH1 0x2 SLOAD LT ISZERO DUP1 ISZERO PUSH2 0x1D1B JUMPI POP PUSH1 0x6 SLOAD PUSH1 0x7 SLOAD LT JUMPDEST PUSH2 0x1D5A JUMPI PUSH1 0x40 MLOAD PUSH32 0x8C379A000000000000000000000000000000000000000000000000000000000 DUP2 MSTORE PUSH1 0x4 ADD PUSH2 0x1D51 SWAP1 PUSH2 0x37CD JUMP JUMPDEST PUSH1 0x40 MLOAD DUP1 SWAP2 SUB SWAP1 REVERT JUMPDEST PUSH1 0x3 PUSH1 0x0 SWAP1 SLOAD SWAP1 PUSH2 0x100 EXP SWAP1 DIV PUSH1 0xFF AND PUSH2 0x1DA9 JUMPI PUSH1 0x40 MLOAD PUSH32 0x8C379A000000000000000000000000000000000000000000000000000000000 DUP2 MSTORE PUSH1 0x4 ADD PUSH2 0x1DA0 SWAP1 PUSH2 0x3839 JUMP JUMPDEST PUSH1 0x40 MLOAD DUP1 SWAP2 SUB SWAP1 REVERT JUMPDEST PUSH1 0x0 PUSH32 0x0 SWAP1 POP DUP1 PUSH20 0xFFFFFFFFFFFFFFFFFFFFFFFFFFFFFFFFFFFFFFFF AND PUSH4 0xB187BD26 PUSH1 0x40 MLOAD DUP2 PUSH4 0xFFFFFFFF AND PUSH1 0xE0 SHL DUP2 MSTORE PUSH1 0x4 ADD PUSH1 0x20 PUSH1 0x40 MLOAD DUP1 DUP4 SUB DUP2 DUP7 GAS STATICCALL ISZERO DUP1 ISZERO PUSH2 0x1E19 JUMPI RETURNDATASIZE PUSH1 0x0 DUP1 RETURNDATACOPY RETURNDATASIZE PUSH1 0x0 REVERT JUMPDEST POP POP POP POP PUSH1 0x40 MLOAD RETURNDATASIZE PUSH1 0x1F NOT PUSH1 0x1F DUP3 ADD AND DUP3 ADD DUP1 PUSH1 0x40 MSTORE POP DUP2 ADD SWAP1 PUSH2 0x1E3D SWAP2 SWAP1 PUSH2 0x386E JUMP JUMPDEST ISZERO PUSH2 0x1E7D JUMPI PUSH1 0x40 MLOAD PUSH32 0x8C379A000000000000000000000000000000000000000000000000000000000 DUP2 MSTORE PUSH1 0x4 ADD PUSH2 0x1E74 SWAP1 PUSH2 0x390D JUMP JUMPDEST PUSH1 0x40 MLOAD DUP1 SWAP2 SUB SWAP1 REVERT JUMPDEST PUSH1 0x1 PUSH1 0x8 PUSH1 0x1 SWAP1 SLOAD SWAP1 PUSH2 0x100 EXP SWAP1 DIV PUSH1 0xFF AND PUSH1 0x2 DUP2 GT ISZERO PUSH2 0x1EA1 JUMPI PUSH2 0x1EA0 PUSH2 0x3316 JUMP JUMPDEST JUMPDEST DUP2 PUSH1 0x2 DUP2 GT ISZERO PUSH2 0x1EB4 JUMPI PUSH2 0x1EB3 PUSH2 0x3316 JUMP JUMPDEST JUMPDEST EQ PUSH2 0x1EF4 JUMPI PUSH1 0x40 MLOAD PUSH32 0x8C379A000000000000000000000000000000000000000000000000000000000 DUP2 MSTORE PUSH1 0x4 ADD PUSH2 0x1EEB SWAP1 PUSH2 0x3A31 JUMP JUMPDEST PUSH1 0x40 MLOAD DUP1 SWAP2 SUB SWAP1 REVERT JUMPDEST PUSH2 0x1EFF PUSH1 0x6 SLOAD PUSH2 0x2CEE JUMP JUMPDEST POP POP JUMP JUMPDEST PUSH1 0x0 PUSH1 0x3 PUSH1 0x0 SWAP1 SLOAD SWAP1 PUSH2 0x100 EXP SWAP1 DIV PUSH1 0xFF AND PUSH2 0x1F54 JUMPI PUSH1 0x40 MLOAD PUSH32 0x8C379A000000000000000000000000000000000000000000000000000000000 DUP2 MSTORE PUSH1 0x4 ADD PUSH2 0x1F4B SWAP1 PUSH2 0x3839 JUMP JUMPDEST PUSH1 0x40 MLOAD DUP1 SWAP2 SUB SWAP1 REVERT JUMPDEST PUSH2 0x1F5D DUP3 PUSH2 0x30E3 JUMP JUMPDEST SWAP1 POP SWAP2 SWAP1 POP JUMP JUMPDEST PUSH1 0x60 DUP1 PUSH1 0x60 PUSH1 0x3 PUSH1 0x0 SWAP1 SLOAD SWAP1 PUSH2 0x100 EXP SWAP1 DIV PUSH1 0xFF AND PUSH2 0x1FB8 JUMPI PUSH1 0x40 MLOAD PUSH32 0x8C379A000000000000000000000000000000000000000000000000000000000 DUP2 MSTORE PUSH1 0x4 ADD PUSH2 0x1FAF SWAP1 PUSH2 0x3839 JUMP JUMPDEST PUSH1 0x40 MLOAD DUP1 SWAP2 SUB SWAP1 REVERT JUMPDEST PUSH1 0x0 PUSH1 0x9 DUP1 SLOAD SWAP1 POP PUSH8 0xFFFFFFFFFFFFFFFF DUP2 GT ISZERO PUSH2 0x1FD9 JUMPI PUSH2 0x1FD8 PUSH2 0x3DAC JUMP JUMPDEST JUMPDEST PUSH1 0x40 MLOAD SWAP1 DUP1 DUP3 MSTORE DUP1 PUSH1 0x20 MUL PUSH1 0x20 ADD DUP3 ADD PUSH1 0x40 MSTORE DUP1 ISZERO PUSH2 0x2007 JUMPI DUP2 PUSH1 0x20 ADD PUSH1 0x20 DUP3 MUL DUP1 CALLDATASIZE DUP4 CALLDATACOPY DUP1 DUP3 ADD SWAP2 POP POP SWAP1 POP JUMPDEST POP SWAP1 POP PUSH1 0x0 PUSH1 0x9 DUP1 SLOAD SWAP1 POP PUSH8 0xFFFFFFFFFFFFFFFF DUP2 GT ISZERO PUSH2 0x202B JUMPI PUSH2 0x202A PUSH2 0x3DAC JUMP JUMPDEST JUMPDEST PUSH1 0x40 MLOAD SWAP1 DUP1 DUP3 MSTORE DUP1 PUSH1 0x20 MUL PUSH1 0x20 ADD DUP3 ADD PUSH1 0x40 MSTORE DUP1 ISZERO PUSH2 0x2059 JUMPI DUP2 PUSH1 0x20 ADD PUSH1 0x20 DUP3 MUL DUP1 CALLDATASIZE DUP4 CALLDATACOPY DUP1 DUP3 ADD SWAP2 POP POP SWAP1 POP JUMPDEST POP SWAP1 POP PUSH1 0x0 PUSH1 0x9 DUP1 SLOAD SWAP1 POP PUSH8 0xFFFFFFFFFFFFFFFF DUP2 GT ISZERO PUSH2 0x207D JUMPI PUSH2 0x207C PUSH2 0x3DAC JUMP JUMPDEST JUMPDEST PUSH1 0x40 MLOAD SWAP1 DUP1 DUP3 MSTORE DUP1 PUSH1 0x20 MUL PUSH1 0x20 ADD DUP3 ADD PUSH1 0x40 MSTORE DUP1 ISZERO PUSH2 0x20AB JUMPI DUP2 PUSH1 0x20 ADD PUSH1 0x20 DUP3 MUL DUP1 CALLDATASIZE DUP4 CALLDATACOPY DUP1 DUP3 ADD SWAP2 POP POP SWAP1 POP JUMPDEST POP SWAP1 POP PUSH1 0x0 JUMPDEST PUSH1 0x9 DUP1 SLOAD SWAP1 POP DUP2 LT ISZERO PUSH2 0x21EE JUMPI PUSH1 0x9 DUP2 DUP2 SLOAD DUP2 LT PUSH2 0x20D2 JUMPI PUSH2 0x20D1 PUSH2 0x3DDB JUMP JUMPDEST JUMPDEST SWAP1 PUSH1 0x0 MSTORE PUSH1 0x20 PUSH1 0x0 KECCAK256 SWAP1 PUSH1 0x3 MUL ADD PUSH1 0x0 ADD PUSH1 0x0 SWAP1 SLOAD SWAP1 PUSH2 0x100 EXP SWAP1 DIV PUSH20 0xFFFFFFFFFFFFFFFFFFFFFFFFFFFFFFFFFFFFFFFF AND DUP5 DUP3 DUP2 MLOAD DUP2 LT PUSH2 0x2117 JUMPI PUSH2 0x2116 PUSH2 0x3DDB JUMP JUMPDEST JUMPDEST PUSH1 0x20 MUL PUSH1 0x20 ADD ADD SWAP1 PUSH20 0xFFFFFFFFFFFFFFFFFFFFFFFFFFFFFFFFFFFFFFFF AND SWAP1 DUP2 PUSH20 0xFFFFFFFFFFFFFFFFFFFFFFFFFFFFFFFFFFFFFFFF AND DUP2 MSTORE POP POP PUSH1 0x9 DUP2 DUP2 SLOAD DUP2 LT PUSH2 0x2165 JUMPI PUSH2 0x2164 PUSH2 0x3DDB JUMP JUMPDEST JUMPDEST SWAP1 PUSH1 0x0 MSTORE PUSH1 0x20 PUSH1 0x0 KECCAK256 SWAP1 PUSH1 0x3 MUL ADD PUSH1 0x1 ADD SLOAD DUP4 DUP3 DUP2 MLOAD DUP2 LT PUSH2 0x218A JUMPI PUSH2 0x2189 PUSH2 0x3DDB JUMP JUMPDEST JUMPDEST PUSH1 0x20 MUL PUSH1 0x20 ADD ADD DUP2 DUP2 MSTORE POP POP PUSH1 0x9 DUP2 DUP2 SLOAD DUP2 LT PUSH2 0x21AA JUMPI PUSH2 0x21A9 PUSH2 0x3DDB JUMP JUMPDEST JUMPDEST SWAP1 PUSH1 0x0 MSTORE PUSH1 0x20 PUSH1 0x0 KECCAK256 SWAP1 PUSH1 0x3 MUL ADD PUSH1 0x2 ADD SLOAD DUP3 DUP3 DUP2 MLOAD DUP2 LT PUSH2 0x21CF JUMPI PUSH2 0x21CE PUSH2 0x3DDB JUMP JUMPDEST JUMPDEST PUSH1 0x20 MUL PUSH1 0x20 ADD ADD DUP2 DUP2 MSTORE POP POP DUP1 DUP1 PUSH2 0x21E6 SWAP1 PUSH2 0x3E39 JUMP JUMPDEST SWAP2 POP POP PUSH2 0x20B1 JUMP JUMPDEST POP DUP3 DUP3 DUP3 SWAP6 POP SWAP6 POP SWAP6 POP POP POP POP SWAP1 SWAP2 SWAP3 JUMP JUMPDEST PUSH2 0x2208 PUSH2 0x2AB0 JUMP JUMPDEST PUSH20 0xFFFFFFFFFFFFFFFFFFFFFFFFFFFFFFFFFFFFFFFF AND PUSH2 0x2226 PUSH2 0x181F JUMP JUMPDEST PUSH20 0xFFFFFFFFFFFFFFFFFFFFFFFFFFFFFFFFFFFFFFFF AND EQ PUSH2 0x227C JUMPI PUSH1 0x40 MLOAD PUSH32 0x8C379A000000000000000000000000000000000000000000000000000000000 DUP2 MSTORE PUSH1 0x4 ADD PUSH2 0x2273 SWAP1 PUSH2 0x3B09 JUMP JUMPDEST PUSH1 0x40 MLOAD DUP1 SWAP2 SUB SWAP1 REVERT JUMPDEST PUSH1 0x0 PUSH20 0xFFFFFFFFFFFFFFFFFFFFFFFFFFFFFFFFFFFFFFFF AND DUP2 PUSH20 0xFFFFFFFFFFFFFFFFFFFFFFFFFFFFFFFFFFFFFFFF AND SUB PUSH2 0x22EB JUMPI PUSH1 0x40 MLOAD PUSH32 0x8C379A000000000000000000000000000000000000000000000000000000000 DUP2 MSTORE PUSH1 0x4 ADD PUSH2 0x22E2 SWAP1 PUSH2 0x3EF3 JUMP JUMPDEST PUSH1 0x40 MLOAD DUP1 SWAP2 SUB SWAP1 REVERT JUMPDEST PUSH2 0x22F4 DUP2 PUSH2 0x301F JUMP JUMPDEST POP JUMP JUMPDEST PUSH1 0x0 PUSH1 0x3 PUSH1 0x0 SWAP1 SLOAD SWAP1 PUSH2 0x100 EXP SWAP1 DIV PUSH1 0xFF AND PUSH2 0x2348 JUMPI PUSH1 0x40 MLOAD PUSH32 0x8C379A000000000000000000000000000000000000000000000000000000000 DUP2 MSTORE PUSH1 0x4 ADD PUSH2 0x233F SWAP1 PUSH2 0x3839 JUMP JUMPDEST PUSH1 0x40 MLOAD DUP1 SWAP2 SUB SWAP1 REVERT JUMPDEST PUSH1 0x7 SLOAD SWAP1 POP SWAP1 JUMP JUMPDEST DUP1 PUSH1 0x4 PUSH1 0x0 SWAP1 SLOAD SWAP1 PUSH2 0x100 EXP SWAP1 DIV PUSH20 0xFFFFFFFFFFFFFFFFFFFFFFFFFFFFFFFFFFFFFFFF AND PUSH20 0xFFFFFFFFFFFFFFFFFFFFFFFFFFFFFFFFFFFFFFFF AND PUSH4 0x70A08231 CALLER PUSH1 0x40 MLOAD DUP3 PUSH4 0xFFFFFFFF AND PUSH1 0xE0 SHL DUP2 MSTORE PUSH1 0x4 ADD PUSH2 0x23AC SWAP2 SWAP1 PUSH2 0x3564 JUMP JUMPDEST PUSH1 0x20 PUSH1 0x40 MLOAD DUP1 DUP4 SUB DUP2 DUP7 GAS STATICCALL ISZERO DUP1 ISZERO PUSH2 0x23C9 JUMPI RETURNDATASIZE PUSH1 0x0 DUP1 RETURNDATACOPY RETURNDATASIZE PUSH1 0x0 REVERT JUMPDEST POP POP POP POP PUSH1 0x40 MLOAD RETURNDATASIZE PUSH1 0x1F NOT PUSH1 0x1F DUP3 ADD AND DUP3 ADD DUP1 PUSH1 0x40 MSTORE POP DUP2 ADD SWAP1 PUSH2 0x23ED SWAP2 SWAP1 PUSH2 0x3B3E JUMP JUMPDEST LT ISZERO PUSH2 0x242E JUMPI PUSH1 0x40 MLOAD PUSH32 0x8C379A000000000000000000000000000000000000000000000000000000000 DUP2 MSTORE PUSH1 0x4 ADD PUSH2 0x2425 SWAP1 PUSH2 0x3F85 JUMP JUMPDEST PUSH1 0x40 MLOAD DUP1 SWAP2 SUB SWAP1 REVERT JUMPDEST PUSH1 0x0 PUSH2 0x2439 DUP3 PUSH2 0x30E3 JUMP JUMPDEST SWAP1 POP PUSH1 0x0 PUSH1 0x1 PUSH1 0x0 SWAP1 SLOAD SWAP1 PUSH2 0x100 EXP SWAP1 DIV PUSH20 0xFFFFFFFFFFFFFFFFFFFFFFFFFFFFFFFFFFFFFFFF AND SWAP1 POP DUP2 DUP2 PUSH20 0xFFFFFFFFFFFFFFFFFFFFFFFFFFFFFFFFFFFFFFFF AND PUSH4 0x70A08231 ADDRESS PUSH1 0x40 MLOAD DUP3 PUSH4 0xFFFFFFFF AND PUSH1 0xE0 SHL DUP2 MSTORE PUSH1 0x4 ADD PUSH2 0x249C SWAP2 SWAP1 PUSH2 0x3564 JUMP JUMPDEST PUSH1 0x20 PUSH1 0x40 MLOAD DUP1 DUP4 SUB DUP2 DUP7 GAS STATICCALL ISZERO DUP1 ISZERO PUSH2 0x24B9 JUMPI RETURNDATASIZE PUSH1 0x0 DUP1 RETURNDATACOPY RETURNDATASIZE PUSH1 0x0 REVERT JUMPDEST POP POP POP POP PUSH1 0x40 MLOAD RETURNDATASIZE PUSH1 0x1F NOT PUSH1 0x1F DUP3 ADD AND DUP3 ADD DUP1 PUSH1 0x40 MSTORE POP DUP2 ADD SWAP1 PUSH2 0x24DD SWAP2 SWAP1 PUSH2 0x3B3E JUMP JUMPDEST LT ISZERO PUSH2 0x251E JUMPI PUSH1 0x40 MLOAD PUSH32 0x8C379A000000000000000000000000000000000000000000000000000000000 DUP2 MSTORE PUSH1 0x4 ADD PUSH2 0x2515 SWAP1 PUSH2 0x4017 JUMP JUMPDEST PUSH1 0x40 MLOAD DUP1 SWAP2 SUB SWAP1 REVERT JUMPDEST PUSH1 0x1 PUSH1 0x0 SWAP1 SLOAD SWAP1 PUSH2 0x100 EXP SWAP1 DIV PUSH20 0xFFFFFFFFFFFFFFFFFFFFFFFFFFFFFFFFFFFFFFFF AND PUSH20 0xFFFFFFFFFFFFFFFFFFFFFFFFFFFFFFFFFFFFFFFF AND PUSH4 0x2E1A7D4D DUP4 PUSH1 0x40 MLOAD DUP3 PUSH4 0xFFFFFFFF AND PUSH1 0xE0 SHL DUP2 MSTORE PUSH1 0x4 ADD PUSH2 0x2579 SWAP2 SWAP1 PUSH2 0x353A JUMP JUMPDEST PUSH1 0x0 PUSH1 0x40 MLOAD DUP1 DUP4 SUB DUP2 PUSH1 0x0 DUP8 DUP1 EXTCODESIZE ISZERO DUP1 ISZERO PUSH2 0x2593 JUMPI PUSH1 0x0 DUP1 REVERT JUMPDEST POP GAS CALL ISZERO DUP1 ISZERO PUSH2 0x25A7 JUMPI RETURNDATASIZE PUSH1 0x0 DUP1 RETURNDATACOPY RETURNDATASIZE PUSH1 0x0 REVERT JUMPDEST POP POP POP POP PUSH2 0x25D9 PUSH1 0x4 PUSH1 0x0 SWAP1 SLOAD SWAP1 PUSH2 0x100 EXP SWAP1 DIV PUSH20 0xFFFFFFFFFFFFFFFFFFFFFFFFFFFFFFFFFFFFFFFF AND CALLER ADDRESS DUP7 PUSH2 0x3107 JUMP JUMPDEST PUSH2 0x25E3 CALLER DUP4 PUSH2 0x2AB8 JUMP JUMPDEST PUSH1 0x9 PUSH1 0x40 MLOAD DUP1 PUSH1 0x60 ADD PUSH1 0x40 MSTORE DUP1 CALLER PUSH20 0xFFFFFFFFFFFFFFFFFFFFFFFFFFFFFFFFFFFFFFFF AND DUP2 MSTORE PUSH1 0x20 ADD DUP6 DUP2 MSTORE PUSH1 0x20 ADD DUP5 DUP2 MSTORE POP SWAP1 DUP1 PUSH1 0x1 DUP2 SLOAD ADD DUP1 DUP3 SSTORE DUP1 SWAP2 POP POP PUSH1 0x1 SWAP1 SUB SWAP1 PUSH1 0x0 MSTORE PUSH1 0x20 PUSH1 0x0 KECCAK256 SWAP1 PUSH1 0x3 MUL ADD PUSH1 0x0 SWAP1 SWAP2 SWAP1 SWAP2 SWAP1 SWAP2 POP PUSH1 0x0 DUP3 ADD MLOAD DUP2 PUSH1 0x0 ADD PUSH1 0x0 PUSH2 0x100 EXP DUP2 SLOAD DUP2 PUSH20 0xFFFFFFFFFFFFFFFFFFFFFFFFFFFFFFFFFFFFFFFF MUL NOT AND SWAP1 DUP4 PUSH20 0xFFFFFFFFFFFFFFFFFFFFFFFFFFFFFFFFFFFFFFFF AND MUL OR SWAP1 SSTORE POP PUSH1 0x20 DUP3 ADD MLOAD DUP2 PUSH1 0x1 ADD SSTORE PUSH1 0x40 DUP3 ADD MLOAD DUP2 PUSH1 0x2 ADD SSTORE POP POP PUSH1 0x0 PUSH32 0x0 SWAP1 POP DUP1 PUSH20 0xFFFFFFFFFFFFFFFFFFFFFFFFFFFFFFFFFFFFFFFF AND PUSH4 0xF52701B7 ADDRESS CALLER DUP8 DUP8 PUSH1 0x40 MLOAD DUP6 PUSH4 0xFFFFFFFF AND PUSH1 0xE0 SHL DUP2 MSTORE PUSH1 0x4 ADD PUSH2 0x2700 SWAP5 SWAP4 SWAP3 SWAP2 SWAP1 PUSH2 0x3B6B JUMP JUMPDEST PUSH1 0x0 PUSH1 0x40 MLOAD DUP1 DUP4 SUB DUP2 PUSH1 0x0 DUP8 DUP1 EXTCODESIZE ISZERO DUP1 ISZERO PUSH2 0x271A JUMPI PUSH1 0x0 DUP1 REVERT JUMPDEST POP GAS CALL ISZERO DUP1 ISZERO PUSH2 0x272E JUMPI RETURNDATASIZE PUSH1 0x0 DUP1 RETURNDATACOPY RETURNDATASIZE PUSH1 0x0 REVERT JUMPDEST POP POP POP POP POP POP POP POP JUMP JUMPDEST DUP1 PUSH1 0x4 PUSH1 0x0 SWAP1 SLOAD SWAP1 PUSH2 0x100 EXP SWAP1 DIV PUSH20 0xFFFFFFFFFFFFFFFFFFFFFFFFFFFFFFFFFFFFFFFF AND PUSH20 0xFFFFFFFFFFFFFFFFFFFFFFFFFFFFFFFFFFFFFFFF AND PUSH4 0x70A08231 CALLER PUSH1 0x40 MLOAD DUP3 PUSH4 0xFFFFFFFF AND PUSH1 0xE0 SHL DUP2 MSTORE PUSH1 0x4 ADD PUSH2 0x2794 SWAP2 SWAP1 PUSH2 0x3564 JUMP JUMPDEST PUSH1 0x20 PUSH1 0x40 MLOAD DUP1 DUP4 SUB DUP2 DUP7 GAS STATICCALL ISZERO DUP1 ISZERO PUSH2 0x27B1 JUMPI RETURNDATASIZE PUSH1 0x0 DUP1 RETURNDATACOPY RETURNDATASIZE PUSH1 0x0 REVERT JUMPDEST POP POP POP POP PUSH1 0x40 MLOAD RETURNDATASIZE PUSH1 0x1F NOT PUSH1 0x1F DUP3 ADD AND DUP3 ADD DUP1 PUSH1 0x40 MSTORE POP DUP2 ADD SWAP1 PUSH2 0x27D5 SWAP2 SWAP1 PUSH2 0x3B3E JUMP JUMPDEST LT ISZERO PUSH2 0x2816 JUMPI PUSH1 0x40 MLOAD PUSH32 0x8C379A000000000000000000000000000000000000000000000000000000000 DUP2 MSTORE PUSH1 0x4 ADD PUSH2 0x280D SWAP1 PUSH2 0x3F85 JUMP JUMPDEST PUSH1 0x40 MLOAD DUP1 SWAP2 SUB SWAP1 REVERT JUMPDEST PUSH1 0x0 PUSH2 0x2821 DUP3 PUSH2 0x30E3 JUMP JUMPDEST SWAP1 POP DUP1 PUSH1 0x3 PUSH1 0x1 SWAP1 SLOAD SWAP1 PUSH2 0x100 EXP SWAP1 DIV PUSH20 0xFFFFFFFFFFFFFFFFFFFFFFFFFFFFFFFFFFFFFFFF AND PUSH20 0xFFFFFFFFFFFFFFFFFFFFFFFFFFFFFFFFFFFFFFFF AND PUSH4 0x70A08231 ADDRESS PUSH1 0x40 MLOAD DUP3 PUSH4 0xFFFFFFFF AND PUSH1 0xE0 SHL DUP2 MSTORE PUSH1 0x4 ADD PUSH2 0x287F SWAP2 SWAP1 PUSH2 0x3564 JUMP JUMPDEST PUSH1 0x20 PUSH1 0x40 MLOAD DUP1 DUP4 SUB DUP2 DUP7 GAS STATICCALL ISZERO DUP1 ISZERO PUSH2 0x289C JUMPI RETURNDATASIZE PUSH1 0x0 DUP1 RETURNDATACOPY RETURNDATASIZE PUSH1 0x0 REVERT JUMPDEST POP POP POP POP PUSH1 0x40 MLOAD RETURNDATASIZE PUSH1 0x1F NOT PUSH1 0x1F DUP3 ADD AND DUP3 ADD DUP1 PUSH1 0x40 MSTORE POP DUP2 ADD SWAP1 PUSH2 0x28C0 SWAP2 SWAP1 PUSH2 0x3B3E JUMP JUMPDEST LT ISZERO PUSH2 0x2901 JUMPI PUSH1 0x40 MLOAD PUSH32 0x8C379A000000000000000000000000000000000000000000000000000000000 DUP2 MSTORE PUSH1 0x4 ADD PUSH2 0x28F8 SWAP1 PUSH2 0x4017 JUMP JUMPDEST PUSH1 0x40 MLOAD DUP1 SWAP2 SUB SWAP1 REVERT JUMPDEST PUSH2 0x292F PUSH1 0x4 PUSH1 0x0 SWAP1 SLOAD SWAP1 PUSH2 0x100 EXP SWAP1 DIV PUSH20 0xFFFFFFFFFFFFFFFFFFFFFFFFFFFFFFFFFFFFFFFF AND CALLER ADDRESS DUP6 PUSH2 0x3107 JUMP JUMPDEST PUSH2 0x295C PUSH1 0x3 PUSH1 0x1 SWAP1 SLOAD SWAP1 PUSH2 0x100 EXP SWAP1 DIV PUSH20 0xFFFFFFFFFFFFFFFFFFFFFFFFFFFFFFFFFFFFFFFF AND CALLER DUP4 PUSH2 0x2BB8 JUMP JUMPDEST PUSH1 0x9 PUSH1 0x40 MLOAD DUP1 PUSH1 0x60 ADD PUSH1 0x40 MSTORE DUP1 CALLER PUSH20 0xFFFFFFFFFFFFFFFFFFFFFFFFFFFFFFFFFFFFFFFF AND DUP2 MSTORE PUSH1 0x20 ADD DUP5 DUP2 MSTORE PUSH1 0x20 ADD DUP4 DUP2 MSTORE POP SWAP1 DUP1 PUSH1 0x1 DUP2 SLOAD ADD DUP1 DUP3 SSTORE DUP1 SWAP2 POP POP PUSH1 0x1 SWAP1 SUB SWAP1 PUSH1 0x0 MSTORE PUSH1 0x20 PUSH1 0x0 KECCAK256 SWAP1 PUSH1 0x3 MUL ADD PUSH1 0x0 SWAP1 SWAP2 SWAP1 SWAP2 SWAP1 SWAP2 POP PUSH1 0x0 DUP3 ADD MLOAD DUP2 PUSH1 0x0 ADD PUSH1 0x0 PUSH2 0x100 EXP DUP2 SLOAD DUP2 PUSH20 0xFFFFFFFFFFFFFFFFFFFFFFFFFFFFFFFFFFFFFFFF MUL NOT AND SWAP1 DUP4 PUSH20 0xFFFFFFFFFFFFFFFFFFFFFFFFFFFFFFFFFFFFFFFF AND MUL OR SWAP1 SSTORE POP PUSH1 0x20 DUP3 ADD MLOAD DUP2 PUSH1 0x1 ADD SSTORE PUSH1 0x40 DUP3 ADD MLOAD DUP2 PUSH1 0x2 ADD SSTORE POP POP PUSH1 0x0 PUSH32 0x0 SWAP1 POP DUP1 PUSH20 0xFFFFFFFFFFFFFFFFFFFFFFFFFFFFFFFFFFFFFFFF AND PUSH4 0xF52701B7 ADDRESS CALLER DUP7 DUP7 PUSH1 0x40 MLOAD DUP6 PUSH4 0xFFFFFFFF AND PUSH1 0xE0 SHL DUP2 MSTORE PUSH1 0x4 ADD PUSH2 0x2A79 SWAP5 SWAP4 SWAP3 SWAP2 SWAP1 PUSH2 0x3B6B JUMP JUMPDEST PUSH1 0x0 PUSH1 0x40 MLOAD DUP1 DUP4 SUB DUP2 PUSH1 0x0 DUP8 DUP1 EXTCODESIZE ISZERO DUP1 ISZERO PUSH2 0x2A93 JUMPI PUSH1 0x0 DUP1 REVERT JUMPDEST POP GAS CALL ISZERO DUP1 ISZERO PUSH2 0x2AA7 JUMPI RETURNDATASIZE PUSH1 0x0 DUP1 RETURNDATACOPY RETURNDATASIZE PUSH1 0x0 REVERT JUMPDEST POP POP POP POP POP POP POP JUMP JUMPDEST PUSH1 0x0 CALLER SWAP1 POP SWAP1 JUMP JUMPDEST PUSH1 0x0 DUP3 PUSH20 0xFFFFFFFFFFFFFFFFFFFFFFFFFFFFFFFFFFFFFFFF AND DUP3 PUSH1 0x0 PUSH8 0xFFFFFFFFFFFFFFFF DUP2 GT ISZERO PUSH2 0x2AED JUMPI PUSH2 0x2AEC PUSH2 0x3DAC JUMP JUMPDEST JUMPDEST PUSH1 0x40 MLOAD SWAP1 DUP1 DUP3 MSTORE DUP1 PUSH1 0x1F ADD PUSH1 0x1F NOT AND PUSH1 0x20 ADD DUP3 ADD PUSH1 0x40 MSTORE DUP1 ISZERO PUSH2 0x2B1F JUMPI DUP2 PUSH1 0x20 ADD PUSH1 0x1 DUP3 MUL DUP1 CALLDATASIZE DUP4 CALLDATACOPY DUP1 DUP3 ADD SWAP2 POP POP SWAP1 POP JUMPDEST POP PUSH1 0x40 MLOAD PUSH2 0x2B2D SWAP2 SWAP1 PUSH2 0x40B1 JUMP JUMPDEST PUSH1 0x0 PUSH1 0x40 MLOAD DUP1 DUP4 SUB DUP2 DUP6 DUP8 GAS CALL SWAP3 POP POP POP RETURNDATASIZE DUP1 PUSH1 0x0 DUP2 EQ PUSH2 0x2B6A JUMPI PUSH1 0x40 MLOAD SWAP2 POP PUSH1 0x1F NOT PUSH1 0x3F RETURNDATASIZE ADD AND DUP3 ADD PUSH1 0x40 MSTORE RETURNDATASIZE DUP3 MSTORE RETURNDATASIZE PUSH1 0x0 PUSH1 0x20 DUP5 ADD RETURNDATACOPY PUSH2 0x2B6F JUMP JUMPDEST PUSH1 0x60 SWAP2 POP JUMPDEST POP POP SWAP1 POP DUP1 PUSH2 0x2BB3 JUMPI PUSH1 0x40 MLOAD PUSH32 0x8C379A000000000000000000000000000000000000000000000000000000000 DUP2 MSTORE PUSH1 0x4 ADD PUSH2 0x2BAA SWAP1 PUSH2 0x413A JUMP JUMPDEST PUSH1 0x40 MLOAD DUP1 SWAP2 SUB SWAP1 REVERT JUMPDEST POP POP POP JUMP JUMPDEST PUSH1 0x0 DUP1 DUP5 PUSH20 0xFFFFFFFFFFFFFFFFFFFFFFFFFFFFFFFFFFFFFFFF AND PUSH4 0xA9059CBB DUP6 DUP6 PUSH1 0x40 MLOAD PUSH1 0x24 ADD PUSH2 0x2BEA SWAP3 SWAP2 SWAP1 PUSH2 0x415A JUMP JUMPDEST PUSH1 0x40 MLOAD PUSH1 0x20 DUP2 DUP4 SUB SUB DUP2 MSTORE SWAP1 PUSH1 0x40 MSTORE SWAP1 PUSH1 0xE0 SHL PUSH1 0x20 DUP3 ADD DUP1 MLOAD PUSH28 0xFFFFFFFFFFFFFFFFFFFFFFFFFFFFFFFFFFFFFFFFFFFFFFFFFFFFFFFF DUP4 DUP2 DUP4 AND OR DUP4 MSTORE POP POP POP POP PUSH1 0x40 MLOAD PUSH2 0x2C38 SWAP2 SWAP1 PUSH2 0x40B1 JUMP JUMPDEST PUSH1 0x0 PUSH1 0x40 MLOAD DUP1 DUP4 SUB DUP2 PUSH1 0x0 DUP7 GAS CALL SWAP2 POP POP RETURNDATASIZE DUP1 PUSH1 0x0 DUP2 EQ PUSH2 0x2C75 JUMPI PUSH1 0x40 MLOAD SWAP2 POP PUSH1 0x1F NOT PUSH1 0x3F RETURNDATASIZE ADD AND DUP3 ADD PUSH1 0x40 MSTORE RETURNDATASIZE DUP3 MSTORE RETURNDATASIZE PUSH1 0x0 PUSH1 0x20 DUP5 ADD RETURNDATACOPY PUSH2 0x2C7A JUMP JUMPDEST PUSH1 0x60 SWAP2 POP JUMPDEST POP SWAP2 POP SWAP2 POP DUP2 DUP1 ISZERO PUSH2 0x2CA8 JUMPI POP PUSH1 0x0 DUP2 MLOAD EQ DUP1 PUSH2 0x2CA7 JUMPI POP DUP1 DUP1 PUSH1 0x20 ADD SWAP1 MLOAD DUP2 ADD SWAP1 PUSH2 0x2CA6 SWAP2 SWAP1 PUSH2 0x386E JUMP JUMPDEST JUMPDEST JUMPDEST PUSH2 0x2CE7 JUMPI PUSH1 0x40 MLOAD PUSH32 0x8C379A000000000000000000000000000000000000000000000000000000000 DUP2 MSTORE PUSH1 0x4 ADD PUSH2 0x2CDE SWAP1 PUSH2 0x41CF JUMP JUMPDEST PUSH1 0x40 MLOAD DUP1 SWAP2 SUB SWAP1 REVERT JUMPDEST POP POP POP POP POP JUMP JUMPDEST CALLVALUE DUP2 EQ PUSH2 0x2D30 JUMPI PUSH1 0x40 MLOAD PUSH32 0x8C379A000000000000000000000000000000000000000000000000000000000 DUP2 MSTORE PUSH1 0x4 ADD PUSH2 0x2D27 SWAP1 PUSH2 0x399F JUMP JUMPDEST PUSH1 0x40 MLOAD DUP1 SWAP2 SUB SWAP1 REVERT JUMPDEST PUSH1 0x0 PUSH2 0x2D3B DUP3 PUSH2 0x30E3 JUMP JUMPDEST SWAP1 POP DUP1 PUSH1 0x3 PUSH1 0x1 SWAP1 SLOAD SWAP1 PUSH2 0x100 EXP SWAP1 DIV PUSH20 0xFFFFFFFFFFFFFFFFFFFFFFFFFFFFFFFFFFFFFFFF AND PUSH20 0xFFFFFFFFFFFFFFFFFFFFFFFFFFFFFFFFFFFFFFFF AND PUSH4 0x70A08231 ADDRESS PUSH1 0x40 MLOAD DUP3 PUSH4 0xFFFFFFFF AND PUSH1 0xE0 SHL DUP2 MSTORE PUSH1 0x4 ADD PUSH2 0x2D99 SWAP2 SWAP1 PUSH2 0x3564 JUMP JUMPDEST PUSH1 0x20 PUSH1 0x40 MLOAD DUP1 DUP4 SUB DUP2 DUP7 GAS STATICCALL ISZERO DUP1 ISZERO PUSH2 0x2DB6 JUMPI RETURNDATASIZE PUSH1 0x0 DUP1 RETURNDATACOPY RETURNDATASIZE PUSH1 0x0 REVERT JUMPDEST POP POP POP POP PUSH1 0x40 MLOAD RETURNDATASIZE PUSH1 0x1F NOT PUSH1 0x1F DUP3 ADD AND DUP3 ADD DUP1 PUSH1 0x40 MSTORE POP DUP2 ADD SWAP1 PUSH2 0x2DDA SWAP2 SWAP1 PUSH2 0x3B3E JUMP JUMPDEST LT ISZERO PUSH2 0x2E1B JUMPI PUSH1 0x40 MLOAD PUSH32 0x8C379A000000000000000000000000000000000000000000000000000000000 DUP2 MSTORE PUSH1 0x4 ADD PUSH2 0x2E12 SWAP1 PUSH2 0x4017 JUMP JUMPDEST PUSH1 0x40 MLOAD DUP1 SWAP2 SUB SWAP1 REVERT JUMPDEST PUSH1 0x1 PUSH1 0x0 SWAP1 SLOAD SWAP1 PUSH2 0x100 EXP SWAP1 DIV PUSH20 0xFFFFFFFFFFFFFFFFFFFFFFFFFFFFFFFFFFFFFFFF AND PUSH20 0xFFFFFFFFFFFFFFFFFFFFFFFFFFFFFFFFFFFFFFFF AND PUSH4 0xD0E30DB0 DUP4 PUSH1 0x40 MLOAD DUP3 PUSH4 0xFFFFFFFF AND PUSH1 0xE0 SHL DUP2 MSTORE PUSH1 0x4 ADD PUSH1 0x0 PUSH1 0x40 MLOAD DUP1 DUP4 SUB DUP2 DUP6 DUP9 DUP1 EXTCODESIZE ISZERO DUP1 ISZERO PUSH2 0x2E85 JUMPI PUSH1 0x0 DUP1 REVERT JUMPDEST POP GAS CALL ISZERO DUP1 ISZERO PUSH2 0x2E99 JUMPI RETURNDATASIZE PUSH1 0x0 DUP1 RETURNDATACOPY RETURNDATASIZE PUSH1 0x0 REVERT JUMPDEST POP POP POP POP POP PUSH2 0x2ECB PUSH1 0x3 PUSH1 0x1 SWAP1 SLOAD SWAP1 PUSH2 0x100 EXP SWAP1 DIV PUSH20 0xFFFFFFFFFFFFFFFFFFFFFFFFFFFFFFFFFFFFFFFF AND CALLER DUP4 PUSH2 0x2BB8 JUMP JUMPDEST PUSH1 0x9 PUSH1 0x40 MLOAD DUP1 PUSH1 0x60 ADD PUSH1 0x40 MSTORE DUP1 CALLER PUSH20 0xFFFFFFFFFFFFFFFFFFFFFFFFFFFFFFFFFFFFFFFF AND DUP2 MSTORE PUSH1 0x20 ADD DUP5 DUP2 MSTORE PUSH1 0x20 ADD DUP4 DUP2 MSTORE POP SWAP1 DUP1 PUSH1 0x1 DUP2 SLOAD ADD DUP1 DUP3 SSTORE DUP1 SWAP2 POP POP PUSH1 0x1 SWAP1 SUB SWAP1 PUSH1 0x0 MSTORE PUSH1 0x20 PUSH1 0x0 KECCAK256 SWAP1 PUSH1 0x3 MUL ADD PUSH1 0x0 SWAP1 SWAP2 SWAP1 SWAP2 SWAP1 SWAP2 POP PUSH1 0x0 DUP3 ADD MLOAD DUP2 PUSH1 0x0 ADD PUSH1 0x0 PUSH2 0x100 EXP DUP2 SLOAD DUP2 PUSH20 0xFFFFFFFFFFFFFFFFFFFFFFFFFFFFFFFFFFFFFFFF MUL NOT AND SWAP1 DUP4 PUSH20 0xFFFFFFFFFFFFFFFFFFFFFFFFFFFFFFFFFFFFFFFF AND MUL OR SWAP1 SSTORE POP PUSH1 0x20 DUP3 ADD MLOAD DUP2 PUSH1 0x1 ADD SSTORE PUSH1 0x40 DUP3 ADD MLOAD DUP2 PUSH1 0x2 ADD SSTORE POP POP PUSH1 0x0 PUSH32 0x0 SWAP1 POP DUP1 PUSH20 0xFFFFFFFFFFFFFFFFFFFFFFFFFFFFFFFFFFFFFFFF AND PUSH4 0xF52701B7 ADDRESS CALLER DUP7 DUP7 PUSH1 0x40 MLOAD DUP6 PUSH4 0xFFFFFFFF AND PUSH1 0xE0 SHL DUP2 MSTORE PUSH1 0x4 ADD PUSH2 0x2FE8 SWAP5 SWAP4 SWAP3 SWAP2 SWAP1 PUSH2 0x3B6B JUMP JUMPDEST PUSH1 0x0 PUSH1 0x40 MLOAD DUP1 DUP4 SUB DUP2 PUSH1 0x0 DUP8 DUP1 EXTCODESIZE ISZERO DUP1 ISZERO PUSH2 0x3002 JUMPI PUSH1 0x0 DUP1 REVERT JUMPDEST POP GAS CALL ISZERO DUP1 ISZERO PUSH2 0x3016 JUMPI RETURNDATASIZE PUSH1 0x0 DUP1 RETURNDATACOPY RETURNDATASIZE PUSH1 0x0 REVERT JUMPDEST POP POP POP POP POP POP POP JUMP JUMPDEST PUSH1 0x0 DUP1 PUSH1 0x0 SWAP1 SLOAD SWAP1 PUSH2 0x100 EXP SWAP1 DIV PUSH20 0xFFFFFFFFFFFFFFFFFFFFFFFFFFFFFFFFFFFFFFFF AND SWAP1 POP DUP2 PUSH1 0x0 DUP1 PUSH2 0x100 EXP DUP2 SLOAD DUP2 PUSH20 0xFFFFFFFFFFFFFFFFFFFFFFFFFFFFFFFFFFFFFFFF MUL NOT AND SWAP1 DUP4 PUSH20 0xFFFFFFFFFFFFFFFFFFFFFFFFFFFFFFFFFFFFFFFF AND MUL OR SWAP1 SSTORE POP DUP2 PUSH20 0xFFFFFFFFFFFFFFFFFFFFFFFFFFFFFFFFFFFFFFFF AND DUP2 PUSH20 0xFFFFFFFFFFFFFFFFFFFFFFFFFFFFFFFFFFFFFFFF AND PUSH32 0x8BE0079C531659141344CD1FD0A4F28419497F9722A3DAAFE3B4186F6B6457E0 PUSH1 0x40 MLOAD PUSH1 0x40 MLOAD DUP1 SWAP2 SUB SWAP1 LOG3 POP POP JUMP JUMPDEST PUSH1 0x0 PUSH1 0x6 SLOAD PUSH1 0x5 SLOAD DUP4 PUSH2 0x30F6 SWAP2 SWAP1 PUSH2 0x41EF JUMP JUMPDEST PUSH2 0x3100 SWAP2 SWAP1 PUSH2 0x4278 JUMP JUMPDEST SWAP1 POP SWAP2 SWAP1 POP JUMP JUMPDEST PUSH1 0x0 DUP1 DUP6 PUSH20 0xFFFFFFFFFFFFFFFFFFFFFFFFFFFFFFFFFFFFFFFF AND PUSH4 0x23B872DD DUP7 DUP7 DUP7 PUSH1 0x40 MLOAD PUSH1 0x24 ADD PUSH2 0x313B SWAP4 SWAP3 SWAP2 SWAP1 PUSH2 0x42A9 JUMP JUMPDEST PUSH1 0x40 MLOAD PUSH1 0x20 DUP2 DUP4 SUB SUB DUP2 MSTORE SWAP1 PUSH1 0x40 MSTORE SWAP1 PUSH1 0xE0 SHL PUSH1 0x20 DUP3 ADD DUP1 MLOAD PUSH28 0xFFFFFFFFFFFFFFFFFFFFFFFFFFFFFFFFFFFFFFFFFFFFFFFFFFFFFFFF DUP4 DUP2 DUP4 AND OR DUP4 MSTORE POP POP POP POP PUSH1 0x40 MLOAD PUSH2 0x3189 SWAP2 SWAP1 PUSH2 0x40B1 JUMP JUMPDEST PUSH1 0x0 PUSH1 0x40 MLOAD DUP1 DUP4 SUB DUP2 PUSH1 0x0 DUP7 GAS CALL SWAP2 POP POP RETURNDATASIZE DUP1 PUSH1 0x0 DUP2 EQ PUSH2 0x31C6 JUMPI PUSH1 0x40 MLOAD SWAP2 POP PUSH1 0x1F NOT PUSH1 0x3F RETURNDATASIZE ADD AND DUP3 ADD PUSH1 0x40 MSTORE RETURNDATASIZE DUP3 MSTORE RETURNDATASIZE PUSH1 0x0 PUSH1 0x20 DUP5 ADD RETURNDATACOPY PUSH2 0x31CB JUMP JUMPDEST PUSH1 0x60 SWAP2 POP JUMPDEST POP SWAP2 POP SWAP2 POP DUP2 DUP1 ISZERO PUSH2 0x31F9 JUMPI POP PUSH1 0x0 DUP2 MLOAD EQ DUP1 PUSH2 0x31F8 JUMPI POP DUP1 DUP1 PUSH1 0x20 ADD SWAP1 MLOAD DUP2 ADD SWAP1 PUSH2 0x31F7 SWAP2 SWAP1 PUSH2 0x386E JUMP JUMPDEST JUMPDEST JUMPDEST PUSH2 0x3238 JUMPI PUSH1 0x40 MLOAD PUSH32 0x8C379A000000000000000000000000000000000000000000000000000000000 DUP2 MSTORE PUSH1 0x4 ADD PUSH2 0x322F SWAP1 PUSH2 0x4352 JUMP JUMPDEST PUSH1 0x40 MLOAD DUP1 SWAP2 SUB SWAP1 REVERT JUMPDEST POP POP POP POP POP POP JUMP JUMPDEST PUSH1 0x0 DUP1 REVERT JUMPDEST PUSH1 0x0 DUP2 SWAP1 POP SWAP2 SWAP1 POP JUMP JUMPDEST PUSH2 0x3258 DUP2 PUSH2 0x3245 JUMP JUMPDEST DUP2 EQ PUSH2 0x3263 JUMPI PUSH1 0x0 DUP1 REVERT JUMPDEST POP JUMP JUMPDEST PUSH1 0x0 DUP2 CALLDATALOAD SWAP1 POP PUSH2 0x3275 DUP2 PUSH2 0x324F JUMP JUMPDEST SWAP3 SWAP2 POP POP JUMP JUMPDEST PUSH1 0x0 PUSH1 0x20 DUP3 DUP5 SUB SLT ISZERO PUSH2 0x3291 JUMPI PUSH2 0x3290 PUSH2 0x3240 JUMP JUMPDEST JUMPDEST PUSH1 0x0 PUSH2 0x329F DUP5 DUP3 DUP6 ADD PUSH2 0x3266 JUMP JUMPDEST SWAP2 POP POP SWAP3 SWAP2 POP POP JUMP JUMPDEST PUSH1 0x0 DUP2 ISZERO ISZERO SWAP1 POP SWAP2 SWAP1 POP JUMP JUMPDEST PUSH2 0x32BD DUP2 PUSH2 0x32A8 JUMP JUMPDEST DUP3 MSTORE POP POP JUMP JUMPDEST PUSH1 0x0 PUSH1 0x20 DUP3 ADD SWAP1 POP PUSH2 0x32D8 PUSH1 0x0 DUP4 ADD DUP5 PUSH2 0x32B4 JUMP JUMPDEST SWAP3 SWAP2 POP POP JUMP JUMPDEST PUSH2 0x32E7 DUP2 PUSH2 0x3245 JUMP JUMPDEST DUP3 MSTORE POP POP JUMP JUMPDEST PUSH1 0x0 PUSH1 0x40 DUP3 ADD SWAP1 POP PUSH2 0x3302 PUSH1 0x0 DUP4 ADD DUP6 PUSH2 0x32DE JUMP JUMPDEST PUSH2 0x330F PUSH1 0x20 DUP4 ADD DUP5 PUSH2 0x32DE JUMP JUMPDEST SWAP4 SWAP3 POP POP POP JUMP JUMPDEST PUSH32 0x4E487B7100000000000000000000000000000000000000000000000000000000 PUSH1 0x0 MSTORE PUSH1 0x21 PUSH1 0x4 MSTORE PUSH1 0x24 PUSH1 0x0 REVERT JUMPDEST PUSH1 0x3 DUP2 LT PUSH2 0x3356 JUMPI PUSH2 0x3355 PUSH2 0x3316 JUMP JUMPDEST JUMPDEST POP JUMP JUMPDEST PUSH1 0x0 DUP2 SWAP1 POP PUSH2 0x3367 DUP3 PUSH2 0x3345 JUMP JUMPDEST SWAP2 SWAP1 POP JUMP JUMPDEST PUSH1 0x0 PUSH2 0x3377 DUP3 PUSH2 0x3359 JUMP JUMPDEST SWAP1 POP SWAP2 SWAP1 POP JUMP JUMPDEST PUSH2 0x3387 DUP2 PUSH2 0x336C JUMP JUMPDEST DUP3 MSTORE POP POP JUMP JUMPDEST PUSH1 0x0 PUSH1 0x20 DUP3 ADD SWAP1 POP PUSH2 0x33A2 PUSH1 0x0 DUP4 ADD DUP5 PUSH2 0x337E JUMP JUMPDEST SWAP3 SWAP2 POP POP JUMP JUMPDEST PUSH1 0x0 PUSH20 0xFFFFFFFFFFFFFFFFFFFFFFFFFFFFFFFFFFFFFFFF DUP3 AND SWAP1 POP SWAP2 SWAP1 POP JUMP JUMPDEST PUSH1 0x0 PUSH2 0x33D3 DUP3 PUSH2 0x33A8 JUMP JUMPDEST SWAP1 POP SWAP2 SWAP1 POP JUMP JUMPDEST PUSH2 0x33E3 DUP2 PUSH2 0x33C8 JUMP JUMPDEST DUP2 EQ PUSH2 0x33EE JUMPI PUSH1 0x0 DUP1 REVERT JUMPDEST POP JUMP JUMPDEST PUSH1 0x0 DUP2 CALLDATALOAD SWAP1 POP PUSH2 0x3400 DUP2 PUSH2 0x33DA JUMP JUMPDEST SWAP3 SWAP2 POP POP JUMP JUMPDEST PUSH1 0x0 PUSH1 0x20 DUP3 DUP5 SUB SLT ISZERO PUSH2 0x341C JUMPI PUSH2 0x341B PUSH2 0x3240 JUMP JUMPDEST JUMPDEST PUSH1 0x0 PUSH2 0x342A DUP5 DUP3 DUP6 ADD PUSH2 0x33F1 JUMP JUMPDEST SWAP2 POP POP SWAP3 SWAP2 POP POP JUMP JUMPDEST PUSH1 0x3 DUP2 LT PUSH2 0x3440 JUMPI PUSH1 0x0 DUP1 REVERT JUMPDEST POP JUMP JUMPDEST PUSH1 0x0 DUP2 CALLDATALOAD SWAP1 POP PUSH2 0x3452 DUP2 PUSH2 0x3433 JUMP JUMPDEST SWAP3 SWAP2 POP POP JUMP JUMPDEST PUSH2 0x3461 DUP2 PUSH2 0x32A8 JUMP JUMPDEST DUP2 EQ PUSH2 0x346C JUMPI PUSH1 0x0 DUP1 REVERT JUMPDEST POP JUMP JUMPDEST PUSH1 0x0 DUP2 CALLDATALOAD SWAP1 POP PUSH2 0x347E DUP2 PUSH2 0x3458 JUMP JUMPDEST SWAP3 SWAP2 POP POP JUMP JUMPDEST PUSH1 0x0 DUP1 PUSH1 0x0 DUP1 PUSH1 0x0 DUP1 PUSH1 0x0 DUP1 PUSH2 0x100 DUP10 DUP12 SUB SLT ISZERO PUSH2 0x34A5 JUMPI PUSH2 0x34A4 PUSH2 0x3240 JUMP JUMPDEST JUMPDEST PUSH1 0x0 PUSH2 0x34B3 DUP12 DUP3 DUP13 ADD PUSH2 0x3443 JUMP JUMPDEST SWAP9 POP POP PUSH1 0x20 PUSH2 0x34C4 DUP12 DUP3 DUP13 ADD PUSH2 0x33F1 JUMP JUMPDEST SWAP8 POP POP PUSH1 0x40 PUSH2 0x34D5 DUP12 DUP3 DUP13 ADD PUSH2 0x33F1 JUMP JUMPDEST SWAP7 POP POP PUSH1 0x60 PUSH2 0x34E6 DUP12 DUP3 DUP13 ADD PUSH2 0x3266 JUMP JUMPDEST SWAP6 POP POP PUSH1 0x80 PUSH2 0x34F7 DUP12 DUP3 DUP13 ADD PUSH2 0x3266 JUMP JUMPDEST SWAP5 POP POP PUSH1 0xA0 PUSH2 0x3508 DUP12 DUP3 DUP13 ADD PUSH2 0x3266 JUMP JUMPDEST SWAP4 POP POP PUSH1 0xC0 PUSH2 0x3519 DUP12 DUP3 DUP13 ADD PUSH2 0x346F JUMP JUMPDEST SWAP3 POP POP PUSH1 0xE0 PUSH2 0x352A DUP12 DUP3 DUP13 ADD PUSH2 0x33F1 JUMP JUMPDEST SWAP2 POP POP SWAP3 SWAP6 SWAP9 POP SWAP3 SWAP6 SWAP9 SWAP1 SWAP4 SWAP7 POP JUMP JUMPDEST PUSH1 0x0 PUSH1 0x20 DUP3 ADD SWAP1 POP PUSH2 0x354F PUSH1 0x0 DUP4 ADD DUP5 PUSH2 0x32DE JUMP JUMPDEST SWAP3 SWAP2 POP POP JUMP JUMPDEST PUSH2 0x355E DUP2 PUSH2 0x33C8 JUMP JUMPDEST DUP3 MSTORE POP POP JUMP JUMPDEST PUSH1 0x0 PUSH1 0x20 DUP3 ADD SWAP1 POP PUSH2 0x3579 PUSH1 0x0 DUP4 ADD DUP5 PUSH2 0x3555 JUMP JUMPDEST SWAP3 SWAP2 POP POP JUMP JUMPDEST PUSH1 0x0 PUSH1 0x40 DUP3 ADD SWAP1 POP PUSH2 0x3594 PUSH1 0x0 DUP4 ADD DUP6 PUSH2 0x3555 JUMP JUMPDEST PUSH2 0x35A1 PUSH1 0x20 DUP4 ADD DUP5 PUSH2 0x3555 JUMP JUMPDEST SWAP4 SWAP3 POP POP POP JUMP JUMPDEST PUSH1 0x0 DUP2 MLOAD SWAP1 POP SWAP2 SWAP1 POP JUMP JUMPDEST PUSH1 0x0 DUP3 DUP3 MSTORE PUSH1 0x20 DUP3 ADD SWAP1 POP SWAP3 SWAP2 POP POP JUMP JUMPDEST PUSH1 0x0 DUP2 SWAP1 POP PUSH1 0x20 DUP3 ADD SWAP1 POP SWAP2 SWAP1 POP JUMP JUMPDEST PUSH2 0x35DD DUP2 PUSH2 0x33C8 JUMP JUMPDEST DUP3 MSTORE POP POP JUMP JUMPDEST PUSH1 0x0 PUSH2 0x35EF DUP4 DUP4 PUSH2 0x35D4 JUMP JUMPDEST PUSH1 0x20 DUP4 ADD SWAP1 POP SWAP3 SWAP2 POP POP JUMP JUMPDEST PUSH1 0x0 PUSH1 0x20 DUP3 ADD SWAP1 POP SWAP2 SWAP1 POP JUMP JUMPDEST PUSH1 0x0 PUSH2 0x3613 DUP3 PUSH2 0x35A8 JUMP JUMPDEST PUSH2 0x361D DUP2 DUP6 PUSH2 0x35B3 JUMP JUMPDEST SWAP4 POP PUSH2 0x3628 DUP4 PUSH2 0x35C4 JUMP JUMPDEST DUP1 PUSH1 0x0 JUMPDEST DUP4 DUP2 LT ISZERO PUSH2 0x3659 JUMPI DUP2 MLOAD PUSH2 0x3640 DUP9 DUP3 PUSH2 0x35E3 JUMP JUMPDEST SWAP8 POP PUSH2 0x364B DUP4 PUSH2 0x35FB JUMP JUMPDEST SWAP3 POP POP PUSH1 0x1 DUP2 ADD SWAP1 POP PUSH2 0x362C JUMP JUMPDEST POP DUP6 SWAP4 POP POP POP POP SWAP3 SWAP2 POP POP JUMP JUMPDEST PUSH1 0x0 DUP2 MLOAD SWAP1 POP SWAP2 SWAP1 POP JUMP JUMPDEST PUSH1 0x0 DUP3 DUP3 MSTORE PUSH1 0x20 DUP3 ADD SWAP1 POP SWAP3 SWAP2 POP POP JUMP JUMPDEST PUSH1 0x0 DUP2 SWAP1 POP PUSH1 0x20 DUP3 ADD SWAP1 POP SWAP2 SWAP1 POP JUMP JUMPDEST PUSH2 0x369B DUP2 PUSH2 0x3245 JUMP JUMPDEST DUP3 MSTORE POP POP JUMP JUMPDEST PUSH1 0x0 PUSH2 0x36AD DUP4 DUP4 PUSH2 0x3692 JUMP JUMPDEST PUSH1 0x20 DUP4 ADD SWAP1 POP SWAP3 SWAP2 POP POP JUMP JUMPDEST PUSH1 0x0 PUSH1 0x20 DUP3 ADD SWAP1 POP SWAP2 SWAP1 POP JUMP JUMPDEST PUSH1 0x0 PUSH2 0x36D1 DUP3 PUSH2 0x3666 JUMP JUMPDEST PUSH2 0x36DB DUP2 DUP6 PUSH2 0x3671 JUMP JUMPDEST SWAP4 POP PUSH2 0x36E6 DUP4 PUSH2 0x3682 JUMP JUMPDEST DUP1 PUSH1 0x0 JUMPDEST DUP4 DUP2 LT ISZERO PUSH2 0x3717 JUMPI DUP2 MLOAD PUSH2 0x36FE DUP9 DUP3 PUSH2 0x36A1 JUMP JUMPDEST SWAP8 POP PUSH2 0x3709 DUP4 PUSH2 0x36B9 JUMP JUMPDEST SWAP3 POP POP PUSH1 0x1 DUP2 ADD SWAP1 POP PUSH2 0x36EA JUMP JUMPDEST POP DUP6 SWAP4 POP POP POP POP SWAP3 SWAP2 POP POP JUMP JUMPDEST PUSH1 0x0 PUSH1 0x60 DUP3 ADD SWAP1 POP DUP2 DUP2 SUB PUSH1 0x0 DUP4 ADD MSTORE PUSH2 0x373E DUP2 DUP7 PUSH2 0x3608 JUMP JUMPDEST SWAP1 POP DUP2 DUP2 SUB PUSH1 0x20 DUP4 ADD MSTORE PUSH2 0x3752 DUP2 DUP6 PUSH2 0x36C6 JUMP JUMPDEST SWAP1 POP DUP2 DUP2 SUB PUSH1 0x40 DUP4 ADD MSTORE PUSH2 0x3766 DUP2 DUP5 PUSH2 0x36C6 JUMP JUMPDEST SWAP1 POP SWAP5 SWAP4 POP POP POP POP JUMP JUMPDEST PUSH1 0x0 DUP3 DUP3 MSTORE PUSH1 0x20 DUP3 ADD SWAP1 POP SWAP3 SWAP2 POP POP JUMP JUMPDEST PUSH32 0x537943726F774261727465723A20494E41435449564500000000000000000000 PUSH1 0x0 DUP3 ADD MSTORE POP JUMP JUMPDEST PUSH1 0x0 PUSH2 0x37B7 PUSH1 0x16 DUP4 PUSH2 0x3770 JUMP JUMPDEST SWAP2 POP PUSH2 0x37C2 DUP3 PUSH2 0x3781 JUMP JUMPDEST PUSH1 0x20 DUP3 ADD SWAP1 POP SWAP2 SWAP1 POP JUMP JUMPDEST PUSH1 0x0 PUSH1 0x20 DUP3 ADD SWAP1 POP DUP2 DUP2 SUB PUSH1 0x0 DUP4 ADD MSTORE PUSH2 0x37E6 DUP2 PUSH2 0x37AA JUMP JUMPDEST SWAP1 POP SWAP2 SWAP1 POP JUMP JUMPDEST PUSH32 0x537943726F774261727465723A204E4F545F494E495449414C495A4544000000 PUSH1 0x0 DUP3 ADD MSTORE POP JUMP JUMPDEST PUSH1 0x0 PUSH2 0x3823 PUSH1 0x1D DUP4 PUSH2 0x3770 JUMP JUMPDEST SWAP2 POP PUSH2 0x382E DUP3 PUSH2 0x37ED JUMP JUMPDEST PUSH1 0x20 DUP3 ADD SWAP1 POP SWAP2 SWAP1 POP JUMP JUMPDEST PUSH1 0x0 PUSH1 0x20 DUP3 ADD SWAP1 POP DUP2 DUP2 SUB PUSH1 0x0 DUP4 ADD MSTORE PUSH2 0x3852 DUP2 PUSH2 0x3816 JUMP JUMPDEST SWAP1 POP SWAP2 SWAP1 POP JUMP JUMPDEST PUSH1 0x0 DUP2 MLOAD SWAP1 POP PUSH2 0x3868 DUP2 PUSH2 0x3458 JUMP JUMPDEST SWAP3 SWAP2 POP POP JUMP JUMPDEST PUSH1 0x0 PUSH1 0x20 DUP3 DUP5 SUB SLT ISZERO PUSH2 0x3884 JUMPI PUSH2 0x3883 PUSH2 0x3240 JUMP JUMPDEST JUMPDEST PUSH1 0x0 PUSH2 0x3892 DUP5 DUP3 DUP6 ADD PUSH2 0x3859 JUMP JUMPDEST SWAP2 POP POP SWAP3 SWAP2 POP POP JUMP JUMPDEST PUSH32 0x537943726F774261727465723A204261736520436F6E74726163742050617573 PUSH1 0x0 DUP3 ADD MSTORE PUSH32 0x6564000000000000000000000000000000000000000000000000000000000000 PUSH1 0x20 DUP3 ADD MSTORE POP JUMP JUMPDEST PUSH1 0x0 PUSH2 0x38F7 PUSH1 0x22 DUP4 PUSH2 0x3770 JUMP JUMPDEST SWAP2 POP PUSH2 0x3902 DUP3 PUSH2 0x389B JUMP JUMPDEST PUSH1 0x40 DUP3 ADD SWAP1 POP SWAP2 SWAP1 POP JUMP JUMPDEST PUSH1 0x0 PUSH1 0x20 DUP3 ADD SWAP1 POP DUP2 DUP2 SUB PUSH1 0x0 DUP4 ADD MSTORE PUSH2 0x3926 DUP2 PUSH2 0x38EA JUMP JUMPDEST SWAP1 POP SWAP2 SWAP1 POP JUMP JUMPDEST PUSH32 0x537943726F774261727465723A204D554C54495F54524144455F4E4F545F454E PUSH1 0x0 DUP3 ADD MSTORE PUSH32 0x41424C4544000000000000000000000000000000000000000000000000000000 PUSH1 0x20 DUP3 ADD MSTORE POP JUMP JUMPDEST PUSH1 0x0 PUSH2 0x3989 PUSH1 0x25 DUP4 PUSH2 0x3770 JUMP JUMPDEST SWAP2 POP PUSH2 0x3994 DUP3 PUSH2 0x392D JUMP JUMPDEST PUSH1 0x40 DUP3 ADD SWAP1 POP SWAP2 SWAP1 POP JUMP JUMPDEST PUSH1 0x0 PUSH1 0x20 DUP3 ADD SWAP1 POP DUP2 DUP2 SUB PUSH1 0x0 DUP4 ADD MSTORE PUSH2 0x39B8 DUP2 PUSH2 0x397C JUMP JUMPDEST SWAP1 POP SWAP2 SWAP1 POP JUMP JUMPDEST PUSH32 0x537943726F774261727465723A20494E56414C49445F4241525445525F545950 PUSH1 0x0 DUP3 ADD MSTORE PUSH32 0x4500000000000000000000000000000000000000000000000000000000000000 PUSH1 0x20 DUP3 ADD MSTORE POP JUMP JUMPDEST PUSH1 0x0 PUSH2 0x3A1B PUSH1 0x21 DUP4 PUSH2 0x3770 JUMP JUMPDEST SWAP2 POP PUSH2 0x3A26 DUP3 PUSH2 0x39BF JUMP JUMPDEST PUSH1 0x40 DUP3 ADD SWAP1 POP SWAP2 SWAP1 POP JUMP JUMPDEST PUSH1 0x0 PUSH1 0x20 DUP3 ADD SWAP1 POP DUP2 DUP2 SUB PUSH1 0x0 DUP4 ADD MSTORE PUSH2 0x3A4A DUP2 PUSH2 0x3A0E JUMP JUMPDEST SWAP1 POP SWAP2 SWAP1 POP JUMP JUMPDEST PUSH32 0x537943726F774261727465723A20414354495645000000000000000000000000 PUSH1 0x0 DUP3 ADD MSTORE POP JUMP JUMPDEST PUSH1 0x0 PUSH2 0x3A87 PUSH1 0x14 DUP4 PUSH2 0x3770 JUMP JUMPDEST SWAP2 POP PUSH2 0x3A92 DUP3 PUSH2 0x3A51 JUMP JUMPDEST PUSH1 0x20 DUP3 ADD SWAP1 POP SWAP2 SWAP1 POP JUMP JUMPDEST PUSH1 0x0 PUSH1 0x20 DUP3 ADD SWAP1 POP DUP2 DUP2 SUB PUSH1 0x0 DUP4 ADD MSTORE PUSH2 0x3AB6 DUP2 PUSH2 0x3A7A JUMP JUMPDEST SWAP1 POP SWAP2 SWAP1 POP JUMP JUMPDEST PUSH32 0x4F776E61626C653A2063616C6C6572206973206E6F7420746865206F776E6572 PUSH1 0x0 DUP3 ADD MSTORE POP JUMP JUMPDEST PUSH1 0x0 PUSH2 0x3AF3 PUSH1 0x20 DUP4 PUSH2 0x3770 JUMP JUMPDEST SWAP2 POP PUSH2 0x3AFE DUP3 PUSH2 0x3ABD JUMP JUMPDEST PUSH1 0x20 DUP3 ADD SWAP1 POP SWAP2 SWAP1 POP JUMP JUMPDEST PUSH1 0x0 PUSH1 0x20 DUP3 ADD SWAP1 POP DUP2 DUP2 SUB PUSH1 0x0 DUP4 ADD MSTORE PUSH2 0x3B22 DUP2 PUSH2 0x3AE6 JUMP JUMPDEST SWAP1 POP SWAP2 SWAP1 POP JUMP JUMPDEST PUSH1 0x0 DUP2 MLOAD SWAP1 POP PUSH2 0x3B38 DUP2 PUSH2 0x324F JUMP JUMPDEST SWAP3 SWAP2 POP POP JUMP JUMPDEST PUSH1 0x0 PUSH1 0x20 DUP3 DUP5 SUB SLT ISZERO PUSH2 0x3B54 JUMPI PUSH2 0x3B53 PUSH2 0x3240 JUMP JUMPDEST JUMPDEST PUSH1 0x0 PUSH2 0x3B62 DUP5 DUP3 DUP6 ADD PUSH2 0x3B29 JUMP JUMPDEST SWAP2 POP POP SWAP3 SWAP2 POP POP JUMP JUMPDEST PUSH1 0x0 PUSH1 0x80 DUP3 ADD SWAP1 POP PUSH2 0x3B80 PUSH1 0x0 DUP4 ADD DUP8 PUSH2 0x3555 JUMP JUMPDEST PUSH2 0x3B8D PUSH1 0x20 DUP4 ADD DUP7 PUSH2 0x3555 JUMP JUMPDEST PUSH2 0x3B9A PUSH1 0x40 DUP4 ADD DUP6 PUSH2 0x32DE JUMP JUMPDEST PUSH2 0x3BA7 PUSH1 0x60 DUP4 ADD DUP5 PUSH2 0x32DE JUMP JUMPDEST SWAP6 SWAP5 POP POP POP POP POP JUMP JUMPDEST PUSH32 0x537943726F774261727465723A20464F5242494444454E000000000000000000 PUSH1 0x0 DUP3 ADD MSTORE POP JUMP JUMPDEST PUSH1 0x0 PUSH2 0x3BE6 PUSH1 0x17 DUP4 PUSH2 0x3770 JUMP JUMPDEST SWAP2 POP PUSH2 0x3BF1 DUP3 PUSH2 0x3BB0 JUMP JUMPDEST PUSH1 0x20 DUP3 ADD SWAP1 POP SWAP2 SWAP1 POP JUMP JUMPDEST PUSH1 0x0 PUSH1 0x20 DUP3 ADD SWAP1 POP DUP2 DUP2 SUB PUSH1 0x0 DUP4 ADD MSTORE PUSH2 0x3C15 DUP2 PUSH2 0x3BD9 JUMP JUMPDEST SWAP1 POP SWAP2 SWAP1 POP JUMP JUMPDEST PUSH32 0x537943726F774261727465723A20414C52454144595F494E495449414C495A45 PUSH1 0x0 DUP3 ADD MSTORE PUSH32 0x4400000000000000000000000000000000000000000000000000000000000000 PUSH1 0x20 DUP3 ADD MSTORE POP JUMP JUMPDEST PUSH1 0x0 PUSH2 0x3C78 PUSH1 0x21 DUP4 PUSH2 0x3770 JUMP JUMPDEST SWAP2 POP PUSH2 0x3C83 DUP3 PUSH2 0x3C1C JUMP JUMPDEST PUSH1 0x40 DUP3 ADD SWAP1 POP SWAP2 SWAP1 POP JUMP JUMPDEST PUSH1 0x0 PUSH1 0x20 DUP3 ADD SWAP1 POP DUP2 DUP2 SUB PUSH1 0x0 DUP4 ADD MSTORE PUSH2 0x3CA7 DUP2 PUSH2 0x3C6B JUMP JUMPDEST SWAP1 POP SWAP2 SWAP1 POP JUMP JUMPDEST PUSH32 0x537943726F774261727465723A20504153545F444541444C494E450000000000 PUSH1 0x0 DUP3 ADD MSTORE POP JUMP JUMPDEST PUSH1 0x0 PUSH2 0x3CE4 PUSH1 0x1B DUP4 PUSH2 0x3770 JUMP JUMPDEST SWAP2 POP PUSH2 0x3CEF DUP3 PUSH2 0x3CAE JUMP JUMPDEST PUSH1 0x20 DUP3 ADD SWAP1 POP SWAP2 SWAP1 POP JUMP JUMPDEST PUSH1 0x0 PUSH1 0x20 DUP3 ADD SWAP1 POP DUP2 DUP2 SUB PUSH1 0x0 DUP4 ADD MSTORE PUSH2 0x3D13 DUP2 PUSH2 0x3CD7 JUMP JUMPDEST SWAP1 POP SWAP2 SWAP1 POP JUMP JUMPDEST PUSH32 0x537943726F774261727465723A20494E53554646494349454E545F4445504F53 PUSH1 0x0 DUP3 ADD MSTORE PUSH32 0x4954000000000000000000000000000000000000000000000000000000000000 PUSH1 0x20 DUP3 ADD MSTORE POP JUMP JUMPDEST PUSH1 0x0 PUSH2 0x3D76 PUSH1 0x22 DUP4 PUSH2 0x3770 JUMP JUMPDEST SWAP2 POP PUSH2 0x3D81 DUP3 PUSH2 0x3D1A JUMP JUMPDEST PUSH1 0x40 DUP3 ADD SWAP1 POP SWAP2 SWAP1 POP JUMP JUMPDEST PUSH1 0x0 PUSH1 0x20 DUP3 ADD SWAP1 POP DUP2 DUP2 SUB PUSH1 0x0 DUP4 ADD MSTORE PUSH2 0x3DA5 DUP2 PUSH2 0x3D69 JUMP JUMPDEST SWAP1 POP SWAP2 SWAP1 POP JUMP JUMPDEST PUSH32 0x4E487B7100000000000000000000000000000000000000000000000000000000 PUSH1 0x0 MSTORE PUSH1 0x41 PUSH1 0x4 MSTORE PUSH1 0x24 PUSH1 0x0 REVERT JUMPDEST PUSH32 0x4E487B7100000000000000000000000000000000000000000000000000000000 PUSH1 0x0 MSTORE PUSH1 0x32 PUSH1 0x4 MSTORE PUSH1 0x24 PUSH1 0x0 REVERT JUMPDEST PUSH32 0x4E487B7100000000000000000000000000000000000000000000000000000000 PUSH1 0x0 MSTORE PUSH1 0x11 PUSH1 0x4 MSTORE PUSH1 0x24 PUSH1 0x0 REVERT JUMPDEST PUSH1 0x0 PUSH2 0x3E44 DUP3 PUSH2 0x3245 JUMP JUMPDEST SWAP2 POP PUSH32 0xFFFFFFFFFFFFFFFFFFFFFFFFFFFFFFFFFFFFFFFFFFFFFFFFFFFFFFFFFFFFFFFF DUP3 SUB PUSH2 0x3E76 JUMPI PUSH2 0x3E75 PUSH2 0x3E0A JUMP JUMPDEST JUMPDEST PUSH1 0x1 DUP3 ADD SWAP1 POP SWAP2 SWAP1 POP JUMP JUMPDEST PUSH32 0x4F776E61626C653A206E6577206F776E657220697320746865207A65726F2061 PUSH1 0x0 DUP3 ADD MSTORE PUSH32 0x6464726573730000000000000000000000000000000000000000000000000000 PUSH1 0x20 DUP3 ADD MSTORE POP JUMP JUMPDEST PUSH1 0x0 PUSH2 0x3EDD PUSH1 0x26 DUP4 PUSH2 0x3770 JUMP JUMPDEST SWAP2 POP PUSH2 0x3EE8 DUP3 PUSH2 0x3E81 JUMP JUMPDEST PUSH1 0x40 DUP3 ADD SWAP1 POP SWAP2 SWAP1 POP JUMP JUMPDEST PUSH1 0x0 PUSH1 0x20 DUP3 ADD SWAP1 POP DUP2 DUP2 SUB PUSH1 0x0 DUP4 ADD MSTORE PUSH2 0x3F0C DUP2 PUSH2 0x3ED0 JUMP JUMPDEST SWAP1 POP SWAP2 SWAP1 POP JUMP JUMPDEST PUSH32 0x537943726F774261727465723A20494E53554646494349454E545F42414C414E PUSH1 0x0 DUP3 ADD MSTORE PUSH32 0x4345000000000000000000000000000000000000000000000000000000000000 PUSH1 0x20 DUP3 ADD MSTORE POP JUMP JUMPDEST PUSH1 0x0 PUSH2 0x3F6F PUSH1 0x22 DUP4 PUSH2 0x3770 JUMP JUMPDEST SWAP2 POP PUSH2 0x3F7A DUP3 PUSH2 0x3F13 JUMP JUMPDEST PUSH1 0x40 DUP3 ADD SWAP1 POP SWAP2 SWAP1 POP JUMP JUMPDEST PUSH1 0x0 PUSH1 0x20 DUP3 ADD SWAP1 POP DUP2 DUP2 SUB PUSH1 0x0 DUP4 ADD MSTORE PUSH2 0x3F9E DUP2 PUSH2 0x3F62 JUMP JUMPDEST SWAP1 POP SWAP2 SWAP1 POP JUMP JUMPDEST PUSH32 0x537943726F774261727465723A20494E53554646494349454E545F434F4E5452 PUSH1 0x0 DUP3 ADD MSTORE PUSH32 0x4143545F42414C414E4345000000000000000000000000000000000000000000 PUSH1 0x20 DUP3 ADD MSTORE POP JUMP JUMPDEST PUSH1 0x0 PUSH2 0x4001 PUSH1 0x2B DUP4 PUSH2 0x3770 JUMP JUMPDEST SWAP2 POP PUSH2 0x400C DUP3 PUSH2 0x3FA5 JUMP JUMPDEST PUSH1 0x40 DUP3 ADD SWAP1 POP SWAP2 SWAP1 POP JUMP JUMPDEST PUSH1 0x0 PUSH1 0x20 DUP3 ADD SWAP1 POP DUP2 DUP2 SUB PUSH1 0x0 DUP4 ADD MSTORE PUSH2 0x4030 DUP2 PUSH2 0x3FF4 JUMP JUMPDEST SWAP1 POP SWAP2 SWAP1 POP JUMP JUMPDEST PUSH1 0x0 DUP2 MLOAD SWAP1 POP SWAP2 SWAP1 POP JUMP JUMPDEST PUSH1 0x0 DUP2 SWAP1 POP SWAP3 SWAP2 POP POP JUMP JUMPDEST PUSH1 0x0 JUMPDEST DUP4 DUP2 LT ISZERO PUSH2 0x406B JUMPI DUP1 DUP3 ADD MLOAD DUP2 DUP5 ADD MSTORE PUSH1 0x20 DUP2 ADD SWAP1 POP PUSH2 0x4050 JUMP JUMPDEST DUP4 DUP2 GT ISZERO PUSH2 0x407A JUMPI PUSH1 0x0 DUP5 DUP5 ADD MSTORE JUMPDEST POP POP POP POP JUMP JUMPDEST PUSH1 0x0 PUSH2 0x408B DUP3 PUSH2 0x4037 JUMP JUMPDEST PUSH2 0x4095 DUP2 DUP6 PUSH2 0x4042 JUMP JUMPDEST SWAP4 POP PUSH2 0x40A5 DUP2 DUP6 PUSH1 0x20 DUP7 ADD PUSH2 0x404D JUMP JUMPDEST DUP1 DUP5 ADD SWAP2 POP POP SWAP3 SWAP2 POP POP JUMP JUMPDEST PUSH1 0x0 PUSH2 0x40BD DUP3 DUP5 PUSH2 0x4080 JUMP JUMPDEST SWAP2 POP DUP2 SWAP1 POP SWAP3 SWAP2 POP POP JUMP JUMPDEST PUSH32 0x5472616E7366657248656C7065723A204554485F5452414E534645525F464149 PUSH1 0x0 DUP3 ADD MSTORE PUSH32 0x4C45440000000000000000000000000000000000000000000000000000000000 PUSH1 0x20 DUP3 ADD MSTORE POP JUMP JUMPDEST PUSH1 0x0 PUSH2 0x4124 PUSH1 0x23 DUP4 PUSH2 0x3770 JUMP JUMPDEST SWAP2 POP PUSH2 0x412F DUP3 PUSH2 0x40C8 JUMP JUMPDEST PUSH1 0x40 DUP3 ADD SWAP1 POP SWAP2 SWAP1 POP JUMP JUMPDEST PUSH1 0x0 PUSH1 0x20 DUP3 ADD SWAP1 POP DUP2 DUP2 SUB PUSH1 0x0 DUP4 ADD MSTORE PUSH2 0x4153 DUP2 PUSH2 0x4117 JUMP JUMPDEST SWAP1 POP SWAP2 SWAP1 POP JUMP JUMPDEST PUSH1 0x0 PUSH1 0x40 DUP3 ADD SWAP1 POP PUSH2 0x416F PUSH1 0x0 DUP4 ADD DUP6 PUSH2 0x3555 JUMP JUMPDEST PUSH2 0x417C PUSH1 0x20 DUP4 ADD DUP5 PUSH2 0x32DE JUMP JUMPDEST SWAP4 SWAP3 POP POP POP JUMP JUMPDEST PUSH32 0x5472616E7366657248656C7065723A205452414E534645525F4641494C454400 PUSH1 0x0 DUP3 ADD MSTORE POP JUMP JUMPDEST PUSH1 0x0 PUSH2 0x41B9 PUSH1 0x1F DUP4 PUSH2 0x3770 JUMP JUMPDEST SWAP2 POP PUSH2 0x41C4 DUP3 PUSH2 0x4183 JUMP JUMPDEST PUSH1 0x20 DUP3 ADD SWAP1 POP SWAP2 SWAP1 POP JUMP JUMPDEST PUSH1 0x0 PUSH1 0x20 DUP3 ADD SWAP1 POP DUP2 DUP2 SUB PUSH1 0x0 DUP4 ADD MSTORE PUSH2 0x41E8 DUP2 PUSH2 0x41AC JUMP JUMPDEST SWAP1 POP SWAP2 SWAP1 POP JUMP JUMPDEST PUSH1 0x0 PUSH2 0x41FA DUP3 PUSH2 0x3245 JUMP JUMPDEST SWAP2 POP PUSH2 0x4205 DUP4 PUSH2 0x3245 JUMP JUMPDEST SWAP3 POP DUP2 PUSH32 0xFFFFFFFFFFFFFFFFFFFFFFFFFFFFFFFFFFFFFFFFFFFFFFFFFFFFFFFFFFFFFFFF DIV DUP4 GT DUP3 ISZERO ISZERO AND ISZERO PUSH2 0x423E JUMPI PUSH2 0x423D PUSH2 0x3E0A JUMP JUMPDEST JUMPDEST DUP3 DUP3 MUL SWAP1 POP SWAP3 SWAP2 POP POP JUMP JUMPDEST PUSH32 0x4E487B7100000000000000000000000000000000000000000000000000000000 PUSH1 0x0 MSTORE PUSH1 0x12 PUSH1 0x4 MSTORE PUSH1 0x24 PUSH1 0x0 REVERT JUMPDEST PUSH1 0x0 PUSH2 0x4283 DUP3 PUSH2 0x3245 JUMP JUMPDEST SWAP2 POP PUSH2 0x428E DUP4 PUSH2 0x3245 JUMP JUMPDEST SWAP3 POP DUP3 PUSH2 0x429E JUMPI PUSH2 0x429D PUSH2 0x4249 JUMP JUMPDEST JUMPDEST DUP3 DUP3 DIV SWAP1 POP SWAP3 SWAP2 POP POP JUMP JUMPDEST PUSH1 0x0 PUSH1 0x60 DUP3 ADD SWAP1 POP PUSH2 0x42BE PUSH1 0x0 DUP4 ADD DUP7 PUSH2 0x3555 JUMP JUMPDEST PUSH2 0x42CB PUSH1 0x20 DUP4 ADD DUP6 PUSH2 0x3555 JUMP JUMPDEST PUSH2 0x42D8 PUSH1 0x40 DUP4 ADD DUP5 PUSH2 0x32DE JUMP JUMPDEST SWAP5 SWAP4 POP POP POP POP JUMP JUMPDEST PUSH32 0x5472616E7366657248656C7065723A205452414E534645525F46524F4D5F4641 PUSH1 0x0 DUP3 ADD MSTORE PUSH32 0x494C454400000000000000000000000000000000000000000000000000000000 PUSH1 0x20 DUP3 ADD MSTORE POP JUMP JUMPDEST PUSH1 0x0 PUSH2 0x433C PUSH1 0x24 DUP4 PUSH2 0x3770 JUMP JUMPDEST SWAP2 POP PUSH2 0x4347 DUP3 PUSH2 0x42E0 JUMP JUMPDEST PUSH1 0x40 DUP3 ADD SWAP1 POP SWAP2 SWAP1 POP JUMP JUMPDEST PUSH1 0x0 PUSH1 0x20 DUP3 ADD SWAP1 POP DUP2 DUP2 SUB PUSH1 0x0 DUP4 ADD MSTORE PUSH2 0x436B DUP2 PUSH2 0x432F JUMP JUMPDEST SWAP1 POP SWAP2 SWAP1 POP JUMP INVALID LOG2 PUSH5 0x6970667358 0x22 SLT KECCAK256 0xC4 0x2A 0xD4 0xDD 0x4E ORIGIN RETURNDATASIZE SHR ISZERO 0xBB 0xC PUSH17 0x11E9DB61CDC56DBCFC58BCC80B0C05B71B DUP7 0xA9 0xB6 PUSH5 0x736F6C6343 STOP ADDMOD 0xD STOP CALLER "
				},
				"gasEstimates": {
					"creation": {
						"codeDepositCost": "3464000",
						"executionCost": "infinite",
						"totalCost": "infinite"
					},
					"external": {
						"_initialized()": "2539",
						"factory()": "infinite",
						"getAmounts()": "infinite",
						"getBarterType()": "4816",
						"getDeadline()": "4701",
						"getTokens()": "infinite",
						"getTradeBalance()": "4722",
						"getTradeOutAmount(uint256)": "infinite",
						"getTrades()": "infinite",
						"initialize(uint8,address,address,uint256,uint256,uint256,bool,address)": "infinite",
						"owner()": "2567",
						"renounceOwnership()": "30397",
						"tradeEthForToken()": "infinite",
						"tradeEthForToken(uint256)": "infinite",
						"tradeTokenForEth()": "infinite",
						"tradeTokenForEth(uint256)": "infinite",
						"tradeTokenForToken()": "infinite",
						"tradeTokenForToken(uint256)": "infinite",
						"transferOwnership(address)": "30830",
						"withdraw()": "infinite",
						"withdraw(address)": "infinite"
					},
					"internal": {
						"_getTradeOutAmount(uint256)": "infinite",
						"_tradeEthForToken(uint256)": "infinite",
						"_tradeTokenForEth(uint256)": "infinite",
						"_tradeTokenForToken(uint256)": "infinite"
					}
				},
				"methodIdentifiers": {
					"_initialized()": "3072cf60",
					"factory()": "c45a0155",
					"getAmounts()": "3d370b4e",
					"getBarterType()": "442fb8cd",
					"getDeadline()": "5f8d96de",
					"getTokens()": "aa6ca808",
					"getTradeBalance()": "f4f057b9",
					"getTradeOutAmount(uint256)": "dab5a8df",
					"getTrades()": "e43372e9",
					"initialize(uint8,address,address,uint256,uint256,uint256,bool,address)": "5f5780e5",
					"owner()": "8da5cb5b",
					"renounceOwnership()": "715018a6",
					"tradeEthForToken()": "d7bdfc75",
					"tradeEthForToken(uint256)": "4341f920",
					"tradeTokenForEth()": "a09702b1",
					"tradeTokenForEth(uint256)": "0d182605",
					"tradeTokenForToken()": "abd050ea",
					"tradeTokenForToken(uint256)": "2ffc6887",
					"transferOwnership(address)": "f2fde38b",
					"withdraw()": "3ccfd60b",
					"withdraw(address)": "51cff8d9"
				}
			},
			"storageLayout": {
				"storage": [
					{
						"astId": 7,
						"contract": "contracts/SyCrowBarter.sol:SyCrowBarter",
						"label": "_owner",
						"offset": 0,
						"slot": "0",
						"type": "t_address"
					},
					{
						"astId": 142,
						"contract": "contracts/SyCrowBarter.sol:SyCrowBarter",
						"label": "WETH",
						"offset": 0,
						"slot": "1",
						"type": "t_address"
					},
					{
						"astId": 144,
						"contract": "contracts/SyCrowBarter.sol:SyCrowBarter",
						"label": "_deadline",
						"offset": 0,
						"slot": "2",
						"type": "t_uint256"
					},
					{
						"astId": 147,
						"contract": "contracts/SyCrowBarter.sol:SyCrowBarter",
						"label": "_initialized",
						"offset": 0,
						"slot": "3",
						"type": "t_bool"
					},
					{
						"astId": 149,
						"contract": "contracts/SyCrowBarter.sol:SyCrowBarter",
						"label": "_depositedTokenAddress",
						"offset": 1,
						"slot": "3",
						"type": "t_address"
					},
					{
						"astId": 151,
						"contract": "contracts/SyCrowBarter.sol:SyCrowBarter",
						"label": "_expectedTokenAddress",
						"offset": 0,
						"slot": "4",
						"type": "t_address"
					},
					{
						"astId": 153,
						"contract": "contracts/SyCrowBarter.sol:SyCrowBarter",
						"label": "_depositedAmount",
						"offset": 0,
						"slot": "5",
						"type": "t_uint256"
					},
					{
						"astId": 155,
						"contract": "contracts/SyCrowBarter.sol:SyCrowBarter",
						"label": "_expectedAmount",
						"offset": 0,
						"slot": "6",
						"type": "t_uint256"
					},
					{
						"astId": 157,
						"contract": "contracts/SyCrowBarter.sol:SyCrowBarter",
						"label": "_totalTradeAmount",
						"offset": 0,
						"slot": "7",
						"type": "t_uint256"
					},
					{
						"astId": 159,
						"contract": "contracts/SyCrowBarter.sol:SyCrowBarter",
						"label": "_allowMultiBarter",
						"offset": 0,
						"slot": "8",
						"type": "t_bool"
					},
					{
						"astId": 162,
						"contract": "contracts/SyCrowBarter.sol:SyCrowBarter",
						"label": "_barterType",
						"offset": 1,
						"slot": "8",
						"type": "t_enum(ISyCrowBarterType)1273"
					},
					{
						"astId": 166,
						"contract": "contracts/SyCrowBarter.sol:SyCrowBarter",
						"label": "_trades",
						"offset": 0,
						"slot": "9",
						"type": "t_array(t_struct(BaterTrade)173_storage)dyn_storage"
					}
				],
				"types": {
					"t_address": {
						"encoding": "inplace",
						"label": "address",
						"numberOfBytes": "20"
					},
					"t_array(t_struct(BaterTrade)173_storage)dyn_storage": {
						"base": "t_struct(BaterTrade)173_storage",
						"encoding": "dynamic_array",
						"label": "struct SyCrowBarter.BaterTrade[]",
						"numberOfBytes": "32"
					},
					"t_bool": {
						"encoding": "inplace",
						"label": "bool",
						"numberOfBytes": "1"
					},
					"t_enum(ISyCrowBarterType)1273": {
						"encoding": "inplace",
						"label": "enum ISyCrowBarterType",
						"numberOfBytes": "1"
					},
					"t_struct(BaterTrade)173_storage": {
						"encoding": "inplace",
						"label": "struct SyCrowBarter.BaterTrade",
						"members": [
							{
								"astId": 168,
								"contract": "contracts/SyCrowBarter.sol:SyCrowBarter",
								"label": "_trader",
								"offset": 0,
								"slot": "0",
								"type": "t_address"
							},
							{
								"astId": 170,
								"contract": "contracts/SyCrowBarter.sol:SyCrowBarter",
								"label": "_amountIn",
								"offset": 0,
								"slot": "1",
								"type": "t_uint256"
							},
							{
								"astId": 172,
								"contract": "contracts/SyCrowBarter.sol:SyCrowBarter",
								"label": "_amountOut",
								"offset": 0,
								"slot": "2",
								"type": "t_uint256"
							}
						],
						"numberOfBytes": "96"
					},
					"t_uint256": {
						"encoding": "inplace",
						"label": "uint256",
						"numberOfBytes": "32"
					}
				}
			},
			"userdoc": {
				"kind": "user",
				"methods": {},
				"version": 1
			}
		}
	}
}