{
	"contracts/SycrowBarter.sol": {
		"SyCrowBarter": {
			"abi": [
				{
					"inputs": [],
					"stateMutability": "nonpayable",
					"type": "constructor"
				},
				{
					"anonymous": false,
					"inputs": [
						{
							"indexed": true,
							"internalType": "address",
							"name": "previousOwner",
							"type": "address"
						},
						{
							"indexed": true,
							"internalType": "address",
							"name": "newOwner",
							"type": "address"
						}
					],
					"name": "OwnershipTransferred",
					"type": "event"
				},
				{
					"stateMutability": "payable",
					"type": "fallback"
				},
				{
					"inputs": [],
					"name": "_initialized",
					"outputs": [
						{
							"internalType": "bool",
							"name": "",
							"type": "bool"
						}
					],
					"stateMutability": "view",
					"type": "function"
				},
				{
					"inputs": [],
					"name": "allowMultiBarter",
					"outputs": [
						{
							"internalType": "bool",
							"name": "",
							"type": "bool"
						}
					],
					"stateMutability": "view",
					"type": "function"
				},
				{
					"inputs": [],
					"name": "barterType",
					"outputs": [
						{
							"internalType": "enum ISyCrowBarterType",
							"name": "",
							"type": "uint8"
						}
					],
					"stateMutability": "view",
					"type": "function"
				},
				{
					"inputs": [],
					"name": "completed",
					"outputs": [
						{
							"internalType": "bool",
							"name": "",
							"type": "bool"
						}
					],
					"stateMutability": "view",
					"type": "function"
				},
				{
					"inputs": [],
					"name": "deadline",
					"outputs": [
						{
							"internalType": "uint256",
							"name": "",
							"type": "uint256"
						}
					],
					"stateMutability": "view",
					"type": "function"
				},
				{
					"inputs": [],
					"name": "factory",
					"outputs": [
						{
							"internalType": "address",
							"name": "",
							"type": "address"
						}
					],
					"stateMutability": "view",
					"type": "function"
				},
				{
					"inputs": [],
					"name": "getAmounts",
					"outputs": [
						{
							"internalType": "uint256",
							"name": "",
							"type": "uint256"
						},
						{
							"internalType": "uint256",
							"name": "",
							"type": "uint256"
						}
					],
					"stateMutability": "view",
					"type": "function"
				},
				{
					"inputs": [],
					"name": "getTokens",
					"outputs": [
						{
							"internalType": "address",
							"name": "",
							"type": "address"
						},
						{
							"internalType": "address",
							"name": "",
							"type": "address"
						}
					],
					"stateMutability": "view",
					"type": "function"
				},
				{
					"inputs": [
						{
							"internalType": "uint256",
							"name": "amount",
							"type": "uint256"
						}
					],
					"name": "getTradeOutAmount",
					"outputs": [
						{
							"internalType": "uint256",
							"name": "",
							"type": "uint256"
						}
					],
					"stateMutability": "view",
					"type": "function"
				},
				{
					"inputs": [],
					"name": "getTrades",
					"outputs": [
						{
							"internalType": "address[]",
							"name": "",
							"type": "address[]"
						},
						{
							"internalType": "uint256[]",
							"name": "",
							"type": "uint256[]"
						},
						{
							"internalType": "uint256[]",
							"name": "",
							"type": "uint256[]"
						}
					],
					"stateMutability": "view",
					"type": "function"
				},
				{
					"inputs": [
						{
							"internalType": "enum ISyCrowBarterType",
							"name": "_barterType",
							"type": "uint8"
						},
						{
							"internalType": "address",
							"name": "inToken",
							"type": "address"
						},
						{
							"internalType": "address",
							"name": "outToken",
							"type": "address"
						},
						{
							"internalType": "uint256",
							"name": "amountDeposited",
							"type": "uint256"
						},
						{
							"internalType": "uint256",
							"name": "amountExpected",
							"type": "uint256"
						},
						{
							"internalType": "uint256",
							"name": "_deadline",
							"type": "uint256"
						},
						{
							"internalType": "bool",
							"name": "_allowMultiBarter",
							"type": "bool"
						},
						{
							"internalType": "address",
							"name": "_WETH",
							"type": "address"
						}
					],
					"name": "initialize",
					"outputs": [
						{
							"internalType": "bool",
							"name": "",
							"type": "bool"
						}
					],
					"stateMutability": "nonpayable",
					"type": "function"
				},
				{
					"inputs": [],
					"name": "owner",
					"outputs": [
						{
							"internalType": "address",
							"name": "",
							"type": "address"
						}
					],
					"stateMutability": "view",
					"type": "function"
				},
				{
					"inputs": [],
					"name": "renounceOwnership",
					"outputs": [],
					"stateMutability": "nonpayable",
					"type": "function"
				},
				{
					"inputs": [],
					"name": "totalTradeAmount",
					"outputs": [
						{
							"internalType": "uint256",
							"name": "",
							"type": "uint256"
						}
					],
					"stateMutability": "view",
					"type": "function"
				},
				{
					"inputs": [
						{
							"internalType": "uint256",
							"name": "inAmount",
							"type": "uint256"
						}
					],
					"name": "tradeEthForToken",
					"outputs": [],
					"stateMutability": "payable",
					"type": "function"
				},
				{
					"inputs": [
						{
							"internalType": "uint256",
							"name": "inAmount",
							"type": "uint256"
						}
					],
					"name": "tradeTokenForEth",
					"outputs": [],
					"stateMutability": "nonpayable",
					"type": "function"
				},
				{
					"inputs": [
						{
							"internalType": "uint256",
							"name": "inAmount",
							"type": "uint256"
						}
					],
					"name": "tradeTokenForToken",
					"outputs": [],
					"stateMutability": "nonpayable",
					"type": "function"
				},
				{
					"inputs": [
						{
							"internalType": "address",
							"name": "newOwner",
							"type": "address"
						}
					],
					"name": "transferOwnership",
					"outputs": [],
					"stateMutability": "nonpayable",
					"type": "function"
				},
				{
					"inputs": [],
					"name": "withdraw",
					"outputs": [],
					"stateMutability": "nonpayable",
					"type": "function"
				},
				{
					"stateMutability": "payable",
					"type": "receive"
				}
			],
			"devdoc": {
				"kind": "dev",
				"methods": {
					"owner()": {
						"details": "Returns the address of the current owner."
					},
					"renounceOwnership()": {
						"details": "Leaves the contract without owner. It will not be possible to call `onlyOwner` functions anymore. Can only be called by the current owner. NOTE: Renouncing ownership will leave the contract without an owner, thereby removing any functionality that is only available to the owner."
					},
					"transferOwnership(address)": {
						"details": "Transfers ownership of the contract to a new account (`newOwner`). Can only be called by the current owner."
					}
				},
				"version": 1
			},
			"evm": {
				"assembly": "    /* \"contracts/SycrowBarter.sol\":332:10585  contract SyCrowBarter is ISyCrowBarter, Ownable, ReentrancyGuard {... */\n  mstore(0x40, 0xa0)\n    /* \"contracts/SycrowBarter.sol\":693:725  bool public _initialized = false */\n  0x05\n  dup1\n  sload\n  not(shl(0xa8, 0xff))\n  and\n  swap1\n  sstore\n    /* \"contracts/SycrowBarter.sol\":1897:1948  constructor() {... */\n  callvalue\n  dup1\n  iszero\n  tag_1\n  jumpi\n  0x00\n  dup1\n  revert\ntag_1:\n  pop\n    /* \"@openzeppelin/contracts/access/Ownable.sol\":921:953  _transferOwnership(_msgSender()) */\n  tag_6\n    /* \"@openzeppelin/contracts/utils/Context.sol\":719:729  msg.sender */\n  caller\n    /* \"@openzeppelin/contracts/access/Ownable.sol\":921:939  _transferOwnership */\n  tag_9\n    /* \"@openzeppelin/contracts/access/Ownable.sol\":921:953  _transferOwnership(_msgSender()) */\n  jump\t// in\ntag_6:\n    /* \"@openzeppelin/contracts/security/ReentrancyGuard.sol\":1701:1702  1 */\n  0x01\n    /* \"@openzeppelin/contracts/security/ReentrancyGuard.sol\":1806:1828  _status = _NOT_ENTERED */\n  dup1\n  sstore\n    /* \"contracts/SycrowBarter.sol\":1931:1941  msg.sender */\n  caller\n    /* \"contracts/SycrowBarter.sol\":1921:1941  factory = msg.sender */\n  0x80\n  mstore\n    /* \"contracts/SycrowBarter.sol\":332:10585  contract SyCrowBarter is ISyCrowBarter, Ownable, ReentrancyGuard {... */\n  jump(tag_12)\n    /* \"@openzeppelin/contracts/access/Ownable.sol\":2270:2457  function _transferOwnership(address newOwner) internal virtual {... */\ntag_9:\n    /* \"@openzeppelin/contracts/access/Ownable.sol\":2343:2359  address oldOwner */\n  0x00\n    /* \"@openzeppelin/contracts/access/Ownable.sol\":2362:2368  _owner */\n  dup1\n  sload\n  sub(shl(0xa0, 0x01), 0x01)\n    /* \"@openzeppelin/contracts/access/Ownable.sol\":2378:2395  _owner = newOwner */\n  dup4\n  dup2\n  and\n  not(sub(shl(0xa0, 0x01), 0x01))\n  dup4\n  and\n  dup2\n  or\n  dup5\n  sstore\n    /* \"@openzeppelin/contracts/access/Ownable.sol\":2410:2450  OwnershipTransferred(oldOwner, newOwner) */\n  mload(0x40)\n    /* \"@openzeppelin/contracts/access/Ownable.sol\":2362:2368  _owner */\n  swap2\n  swap1\n  swap3\n  and\n  swap3\n  dup4\n  swap2\n    /* \"@openzeppelin/contracts/access/Ownable.sol\":2410:2450  OwnershipTransferred(oldOwner, newOwner) */\n  0x8be0079c531659141344cd1fd0a4f28419497f9722a3daafe3b4186f6b6457e0\n  swap2\n    /* \"@openzeppelin/contracts/access/Ownable.sol\":2343:2359  address oldOwner */\n  swap1\n    /* \"@openzeppelin/contracts/access/Ownable.sol\":2410:2450  OwnershipTransferred(oldOwner, newOwner) */\n  log3\n    /* \"@openzeppelin/contracts/access/Ownable.sol\":2333:2457  {... */\n  pop\n    /* \"@openzeppelin/contracts/access/Ownable.sol\":2270:2457  function _transferOwnership(address newOwner) internal virtual {... */\n  pop\n  jump\t// out\n    /* \"contracts/SycrowBarter.sol\":332:10585  contract SyCrowBarter is ISyCrowBarter, Ownable, ReentrancyGuard {... */\ntag_12:\n  mload(0x80)\n  codecopy(0x00, dataOffset(sub_0), dataSize(sub_0))\n  0x00\n  assignImmutable(\"0x9d6b7fbd0ded42ab14e47300e428df3f38e4fbb3a7f790d898a87bff4f86606b\")\n  return(0x00, dataSize(sub_0))\nstop\n\nsub_0: assembly {\n        /* \"contracts/SycrowBarter.sol\":332:10585  contract SyCrowBarter is ISyCrowBarter, Ownable, ReentrancyGuard {... */\n      mstore(0x40, 0x80)\n      jumpi(tag_1, lt(calldatasize, 0x04))\n      shr(0xe0, calldataload(0x00))\n      dup1\n      0x715018a6\n      gt\n      tag_22\n      jumpi\n      dup1\n      0xc45a0155\n      gt\n      tag_23\n      jumpi\n      dup1\n      0xc45a0155\n      eq\n      tag_17\n      jumpi\n      dup1\n      0xc6ea7038\n      eq\n      tag_18\n      jumpi\n      dup1\n      0xdab5a8df\n      eq\n      tag_19\n      jumpi\n      dup1\n      0xe43372e9\n      eq\n      tag_20\n      jumpi\n      dup1\n      0xf2fde38b\n      eq\n      tag_21\n      jumpi\n      stop\n    tag_23:\n      dup1\n      0x715018a6\n      eq\n      tag_12\n      jumpi\n      dup1\n      0x89523742\n      eq\n      tag_13\n      jumpi\n      dup1\n      0x8da5cb5b\n      eq\n      tag_14\n      jumpi\n      dup1\n      0x9d9a7fe9\n      eq\n      tag_15\n      jumpi\n      dup1\n      0xaa6ca808\n      eq\n      tag_16\n      jumpi\n      stop\n    tag_22:\n      dup1\n      0x3ccfd60b\n      gt\n      tag_24\n      jumpi\n      dup1\n      0x3ccfd60b\n      eq\n      tag_7\n      jumpi\n      dup1\n      0x3d370b4e\n      eq\n      tag_8\n      jumpi\n      dup1\n      0x40a6f1ab\n      eq\n      tag_9\n      jumpi\n      dup1\n      0x4341f920\n      eq\n      tag_10\n      jumpi\n      dup1\n      0x5f5780e5\n      eq\n      tag_11\n      jumpi\n      stop\n    tag_24:\n      dup1\n      0x0d182605\n      eq\n      tag_3\n      jumpi\n      dup1\n      0x29dcb0cf\n      eq\n      tag_4\n      jumpi\n      dup1\n      0x2ffc6887\n      eq\n      tag_5\n      jumpi\n      dup1\n      0x3072cf60\n      eq\n      tag_6\n      jumpi\n      stop\n    tag_1:\n      jumpi(tag_2, calldatasize)\n      stop\n    tag_2:\n      stop\n        /* \"contracts/SycrowBarter.sol\":4537:4985  function tradeTokenForEth(uint256 inAmount)... */\n    tag_3:\n      callvalue\n      dup1\n      iszero\n      tag_29\n      jumpi\n      0x00\n      dup1\n      revert\n    tag_29:\n      pop\n      tag_2\n      tag_31\n      calldatasize\n      0x04\n      tag_32\n      jump\t// in\n    tag_31:\n      tag_33\n      jump\t// in\n        /* \"contracts/SycrowBarter.sol\":577:609  uint256 public override deadline */\n    tag_4:\n      callvalue\n      dup1\n      iszero\n      tag_34\n      jumpi\n      0x00\n      dup1\n      revert\n    tag_34:\n      pop\n      tag_35\n      sload(0x04)\n      dup2\n      jump\n    tag_35:\n      mload(0x40)\n        /* \"#utility.yul\":345:370   */\n      swap1\n      dup2\n      mstore\n        /* \"#utility.yul\":333:335   */\n      0x20\n        /* \"#utility.yul\":318:336   */\n      add\n        /* \"contracts/SycrowBarter.sol\":577:609  uint256 public override deadline */\n    tag_37:\n      mload(0x40)\n      dup1\n      swap2\n      sub\n      swap1\n      return\n        /* \"contracts/SycrowBarter.sol\":4077:4531  function tradeTokenForToken(uint256 inAmount)... */\n    tag_5:\n      callvalue\n      dup1\n      iszero\n      tag_39\n      jumpi\n      0x00\n      dup1\n      revert\n    tag_39:\n      pop\n      tag_2\n      tag_41\n      calldatasize\n      0x04\n      tag_32\n      jump\t// in\n    tag_41:\n      tag_42\n      jump\t// in\n        /* \"contracts/SycrowBarter.sol\":693:725  bool public _initialized = false */\n    tag_6:\n      callvalue\n      dup1\n      iszero\n      tag_43\n      jumpi\n      0x00\n      dup1\n      revert\n    tag_43:\n      pop\n      sload(0x05)\n      tag_44\n      swap1\n      shl(0xa8, 0x01)\n      swap1\n      div\n      0xff\n      and\n      dup2\n      jump\n    tag_44:\n      mload(0x40)\n        /* \"#utility.yul\":546:560   */\n      swap1\n      iszero\n        /* \"#utility.yul\":539:561   */\n      iszero\n        /* \"#utility.yul\":521:562   */\n      dup2\n      mstore\n        /* \"#utility.yul\":509:511   */\n      0x20\n        /* \"#utility.yul\":494:512   */\n      add\n        /* \"contracts/SycrowBarter.sol\":693:725  bool public _initialized = false */\n      tag_37\n        /* \"#utility.yul\":381:568   */\n      jump\n        /* \"contracts/SycrowBarter.sol\":8568:10245  function withdraw() external override checkInActive initialized onlyOwner {... */\n    tag_7:\n      callvalue\n      dup1\n      iszero\n      tag_48\n      jumpi\n      0x00\n      dup1\n      revert\n    tag_48:\n      pop\n      tag_2\n      tag_50\n      jump\t// in\n        /* \"contracts/SycrowBarter.sol\":2988:3175  function getAmounts()... */\n    tag_8:\n      callvalue\n      dup1\n      iszero\n      tag_51\n      jumpi\n      0x00\n      dup1\n      revert\n    tag_51:\n      pop\n      tag_52\n      tag_53\n      jump\t// in\n    tag_52:\n      0x40\n      dup1\n      mload\n        /* \"#utility.yul\":747:772   */\n      swap3\n      dup4\n      mstore\n        /* \"#utility.yul\":803:805   */\n      0x20\n        /* \"#utility.yul\":788:806   */\n      dup4\n      add\n        /* \"#utility.yul\":781:815   */\n      swap2\n      swap1\n      swap2\n      mstore\n        /* \"#utility.yul\":720:738   */\n      add\n        /* \"contracts/SycrowBarter.sol\":2988:3175  function getAmounts()... */\n      tag_37\n        /* \"#utility.yul\":573:821   */\n      jump\n        /* \"contracts/SycrowBarter.sol\":450:490  uint256 public override totalTradeAmount */\n    tag_9:\n      callvalue\n      dup1\n      iszero\n      tag_56\n      jumpi\n      0x00\n      dup1\n      revert\n    tag_56:\n      pop\n      tag_35\n      sload(0x02)\n      dup2\n      jump\n        /* \"contracts/SycrowBarter.sol\":4991:5456  function tradeEthForToken(uint256 inAmount)... */\n    tag_10:\n      tag_2\n      tag_61\n      calldatasize\n      0x04\n      tag_32\n      jump\t// in\n    tag_61:\n      tag_62\n      jump\t// in\n        /* \"contracts/SycrowBarter.sol\":1954:2982  function initialize(... */\n    tag_11:\n      callvalue\n      dup1\n      iszero\n      tag_63\n      jumpi\n      0x00\n      dup1\n      revert\n    tag_63:\n      pop\n      tag_44\n      tag_65\n      calldatasize\n      0x04\n      tag_66\n      jump\t// in\n    tag_65:\n      tag_67\n      jump\t// in\n        /* \"@openzeppelin/contracts/access/Ownable.sol\":1668:1769  function renounceOwnership() public virtual onlyOwner {... */\n    tag_12:\n      callvalue\n      dup1\n      iszero\n      tag_69\n      jumpi\n      0x00\n      dup1\n      revert\n    tag_69:\n      pop\n      tag_2\n      tag_71\n      jump\t// in\n        /* \"contracts/SycrowBarter.sol\":615:659  ISyCrowBarterType public override barterType */\n    tag_13:\n      callvalue\n      dup1\n      iszero\n      tag_72\n      jumpi\n      0x00\n      dup1\n      revert\n    tag_72:\n      pop\n      sload(0x05)\n      tag_73\n      swap1\n      0xff\n      and\n      dup2\n      jump\n    tag_73:\n      mload(0x40)\n      tag_37\n      swap2\n      swap1\n      tag_76\n      jump\t// in\n        /* \"@openzeppelin/contracts/access/Ownable.sol\":1036:1121  function owner() public view virtual returns (address) {... */\n    tag_14:\n      callvalue\n      dup1\n      iszero\n      tag_77\n      jumpi\n      0x00\n      dup1\n      revert\n    tag_77:\n      pop\n        /* \"@openzeppelin/contracts/access/Ownable.sol\":1082:1089  address */\n      0x00\n        /* \"@openzeppelin/contracts/access/Ownable.sol\":1108:1114  _owner */\n      sload\n      sub(shl(0xa0, 0x01), 0x01)\n      and\n        /* \"@openzeppelin/contracts/access/Ownable.sol\":1036:1121  function owner() public view virtual returns (address) {... */\n    tag_78:\n      mload(0x40)\n      sub(shl(0xa0, 0x01), 0x01)\n        /* \"#utility.yul\":2627:2659   */\n      swap1\n      swap2\n      and\n        /* \"#utility.yul\":2609:2660   */\n      dup2\n      mstore\n        /* \"#utility.yul\":2597:2599   */\n      0x20\n        /* \"#utility.yul\":2582:2600   */\n      add\n        /* \"@openzeppelin/contracts/access/Ownable.sol\":1036:1121  function owner() public view virtual returns (address) {... */\n      tag_37\n        /* \"#utility.yul\":2463:2666   */\n      jump\n        /* \"contracts/SycrowBarter.sol\":540:570  bool public override completed */\n    tag_15:\n      callvalue\n      dup1\n      iszero\n      tag_82\n      jumpi\n      0x00\n      dup1\n      revert\n    tag_82:\n      pop\n      sload(0x03)\n      tag_44\n      swap1\n      0x0100\n      swap1\n      div\n      0xff\n      and\n      dup2\n      jump\n        /* \"contracts/SycrowBarter.sol\":3181:3379  function getTokens()... */\n    tag_16:\n      callvalue\n      dup1\n      iszero\n      tag_86\n      jumpi\n      0x00\n      dup1\n      revert\n    tag_86:\n      pop\n      tag_87\n      tag_88\n      jump\t// in\n    tag_87:\n      0x40\n      dup1\n      mload\n      sub(shl(0xa0, 0x01), 0x01)\n        /* \"#utility.yul\":2901:2916   */\n      swap4\n      dup5\n      and\n        /* \"#utility.yul\":2883:2917   */\n      dup2\n      mstore\n        /* \"#utility.yul\":2953:2968   */\n      swap3\n      swap1\n      swap2\n      and\n        /* \"#utility.yul\":2948:2950   */\n      0x20\n        /* \"#utility.yul\":2933:2951   */\n      dup4\n      add\n        /* \"#utility.yul\":2926:2969   */\n      mstore\n        /* \"#utility.yul\":2818:2836   */\n      add\n        /* \"contracts/SycrowBarter.sol\":3181:3379  function getTokens()... */\n      tag_37\n        /* \"#utility.yul\":2671:2975   */\n      jump\n        /* \"contracts/SycrowBarter.sol\":403:444  address public immutable override factory */\n    tag_17:\n      callvalue\n      dup1\n      iszero\n      tag_91\n      jumpi\n      0x00\n      dup1\n      revert\n    tag_91:\n      pop\n      tag_78\n      immutable(\"0x9d6b7fbd0ded42ab14e47300e428df3f38e4fbb3a7f790d898a87bff4f86606b\")\n      dup2\n      jump\n        /* \"contracts/SycrowBarter.sol\":497:534  bool public override allowMultiBarter */\n    tag_18:\n      callvalue\n      dup1\n      iszero\n      tag_95\n      jumpi\n      0x00\n      dup1\n      revert\n    tag_95:\n      pop\n      sload(0x03)\n      tag_44\n      swap1\n      0xff\n      and\n      dup2\n      jump\n        /* \"contracts/SycrowBarter.sol\":10251:10393  function getTradeOutAmount(uint256 amount) public view returns (uint256) {... */\n    tag_19:\n      callvalue\n      dup1\n      iszero\n      tag_99\n      jumpi\n      0x00\n      dup1\n      revert\n    tag_99:\n      pop\n      tag_35\n      tag_101\n      calldatasize\n      0x04\n      tag_32\n      jump\t// in\n    tag_101:\n      tag_102\n      jump\t// in\n        /* \"contracts/SycrowBarter.sol\":3385:4071  function getTrades()... */\n    tag_20:\n      callvalue\n      dup1\n      iszero\n      tag_104\n      jumpi\n      0x00\n      dup1\n      revert\n    tag_104:\n      pop\n      tag_105\n      tag_106\n      jump\t// in\n    tag_105:\n      mload(0x40)\n      tag_37\n      swap4\n      swap3\n      swap2\n      swap1\n      tag_108\n      jump\t// in\n        /* \"@openzeppelin/contracts/access/Ownable.sol\":1918:2116  function transferOwnership(address newOwner) public virtual onlyOwner {... */\n    tag_21:\n      callvalue\n      dup1\n      iszero\n      tag_109\n      jumpi\n      0x00\n      dup1\n      revert\n    tag_109:\n      pop\n      tag_2\n      tag_111\n      calldatasize\n      0x04\n      tag_112\n      jump\t// in\n    tag_111:\n      tag_113\n      jump\t// in\n        /* \"contracts/SycrowBarter.sol\":4537:4985  function tradeTokenForEth(uint256 inAmount)... */\n    tag_33:\n        /* \"contracts/SycrowBarter.sol\":1106:1121  block.timestamp */\n      timestamp\n        /* \"contracts/SycrowBarter.sol\":1094:1102  deadline */\n      sload(0x04)\n        /* \"contracts/SycrowBarter.sol\":1094:1121  deadline >= block.timestamp */\n      lt\n      iszero\n        /* \"contracts/SycrowBarter.sol\":1094:1159  deadline >= block.timestamp && totalTradeAmount < _expectedAmount */\n      dup1\n      iszero\n      tag_115\n      jumpi\n      pop\n        /* \"contracts/SycrowBarter.sol\":1144:1159  _expectedAmount */\n      sload(0x09)\n        /* \"contracts/SycrowBarter.sol\":1125:1141  totalTradeAmount */\n      sload(0x02)\n        /* \"contracts/SycrowBarter.sol\":1125:1159  totalTradeAmount < _expectedAmount */\n      lt\n        /* \"contracts/SycrowBarter.sol\":1094:1159  deadline >= block.timestamp && totalTradeAmount < _expectedAmount */\n    tag_115:\n        /* \"contracts/SycrowBarter.sol\":1073:1207  require(... */\n      tag_116\n      jumpi\n      mload(0x40)\n      shl(0xe5, 0x461bcd)\n      dup2\n      mstore\n      0x04\n      add\n      tag_117\n      swap1\n      tag_118\n      jump\t// in\n    tag_117:\n      mload(0x40)\n      dup1\n      swap2\n      sub\n      swap1\n      revert\n    tag_116:\n        /* \"contracts/SycrowBarter.sol\":1624:1636  _initialized */\n      sload(0x05)\n      shl(0xa8, 0x01)\n      swap1\n      div\n      0xff\n      and\n        /* \"contracts/SycrowBarter.sol\":1616:1670  require(_initialized, \"SyCrowBarter: NOT_INITIALIZED\") */\n      tag_120\n      jumpi\n      mload(0x40)\n      shl(0xe5, 0x461bcd)\n      dup2\n      mstore\n      0x04\n      add\n      tag_117\n      swap1\n      tag_122\n      jump\t// in\n    tag_120:\n        /* \"contracts/SycrowBarter.sol\":1727:1760  ISyCrowBarterFactory isycrFactory */\n      0x00\n        /* \"contracts/SycrowBarter.sol\":1784:1791  factory */\n      immutable(\"0x9d6b7fbd0ded42ab14e47300e428df3f38e4fbb3a7f790d898a87bff4f86606b\")\n        /* \"contracts/SycrowBarter.sol\":1727:1792  ISyCrowBarterFactory isycrFactory = ISyCrowBarterFactory(factory) */\n      swap1\n      pop\n        /* \"contracts/SycrowBarter.sol\":1811:1823  isycrFactory */\n      dup1\n      sub(shl(0xa0, 0x01), 0x01)\n        /* \"contracts/SycrowBarter.sol\":1811:1832  isycrFactory.isPaused */\n      and\n      0xb187bd26\n        /* \"contracts/SycrowBarter.sol\":1811:1834  isycrFactory.isPaused() */\n      mload(0x40)\n      dup2\n      0xffffffff\n      and\n      0xe0\n      shl\n      dup2\n      mstore\n      0x04\n      add\n      0x20\n      mload(0x40)\n      dup1\n      dup4\n      sub\n      dup2\n      dup7\n      gas\n      staticcall\n      iszero\n      dup1\n      iszero\n      tag_125\n      jumpi\n      returndatasize\n      0x00\n      dup1\n      returndatacopy\n      revert(0x00, returndatasize)\n    tag_125:\n      pop\n      pop\n      pop\n      pop\n      mload(0x40)\n      returndatasize\n      not(0x1f)\n      0x1f\n      dup3\n      add\n      and\n      dup3\n      add\n      dup1\n      0x40\n      mstore\n      pop\n      dup2\n      add\n      swap1\n      tag_126\n      swap2\n      swap1\n      tag_127\n      jump\t// in\n    tag_126:\n        /* \"contracts/SycrowBarter.sol\":1810:1834  !isycrFactory.isPaused() */\n      iszero\n        /* \"contracts/SycrowBarter.sol\":1802:1873  require(!isycrFactory.isPaused(), \"SyCrowBarter: Base Contract Paused\") */\n      tag_128\n      jumpi\n      mload(0x40)\n      shl(0xe5, 0x461bcd)\n      dup2\n      mstore\n      0x04\n      add\n      tag_117\n      swap1\n      tag_130\n      jump\t// in\n    tag_128:\n        /* \"contracts/SycrowBarter.sol\":1320:1330  barterType */\n      sload(0x05)\n        /* \"contracts/SycrowBarter.sol\":4699:4730  ISyCrowBarterType.ETH_FOR_TOKEN */\n      0x00\n      swap1\n        /* \"contracts/SycrowBarter.sol\":1320:1330  barterType */\n      0xff\n      and\n        /* \"contracts/SycrowBarter.sol\":1305:1330  _barterType == barterType */\n      0x02\n      dup2\n      gt\n      iszero\n      tag_133\n      jumpi\n      tag_133\n      tag_134\n      jump\t// in\n    tag_133:\n        /* \"contracts/SycrowBarter.sol\":1305:1316  _barterType */\n      dup2\n        /* \"contracts/SycrowBarter.sol\":1305:1330  _barterType == barterType */\n      0x02\n      dup2\n      gt\n      iszero\n      tag_136\n      jumpi\n      tag_136\n      tag_134\n      jump\t// in\n    tag_136:\n      eq\n        /* \"contracts/SycrowBarter.sol\":1297:1368  require(_barterType == barterType, \"SyCrowBarter: INVALID_BARTER_TYPE\") */\n      tag_137\n      jumpi\n      mload(0x40)\n      shl(0xe5, 0x461bcd)\n      dup2\n      mstore\n      0x04\n      add\n      tag_117\n      swap1\n      tag_139\n      jump\t// in\n    tag_137:\n        /* \"@openzeppelin/contracts/security/ReentrancyGuard.sol\":1744:1745  2 */\n      0x02\n        /* \"@openzeppelin/contracts/security/ReentrancyGuard.sol\":2325:2332  _status */\n      sload(0x01)\n        /* \"@openzeppelin/contracts/security/ReentrancyGuard.sol\":2325:2344  _status != _ENTERED */\n      sub\n        /* \"@openzeppelin/contracts/security/ReentrancyGuard.sol\":2317:2380  require(_status != _ENTERED, \"ReentrancyGuard: reentrant call\") */\n      tag_141\n      jumpi\n      mload(0x40)\n      shl(0xe5, 0x461bcd)\n      dup2\n      mstore\n      0x04\n      add\n      tag_117\n      swap1\n      tag_143\n      jump\t// in\n    tag_141:\n        /* \"@openzeppelin/contracts/security/ReentrancyGuard.sol\":1744:1745  2 */\n      0x02\n        /* \"@openzeppelin/contracts/security/ReentrancyGuard.sol\":2455:2462  _status */\n      0x01\n        /* \"@openzeppelin/contracts/security/ReentrancyGuard.sol\":2455:2473  _status = _ENTERED */\n      sstore\n        /* \"contracts/SycrowBarter.sol\":4772:4788  allowMultiBarter */\n      and(0xff, sload(0x03))\n        /* \"contracts/SycrowBarter.sol\":4767:4942  if (!allowMultiBarter) {... */\n      tag_146\n      jumpi\n        /* \"contracts/SycrowBarter.sol\":4841:4856  _expectedAmount */\n      sload(0x09)\n        /* \"contracts/SycrowBarter.sol\":4829:4837  inAmount */\n      dup4\n        /* \"contracts/SycrowBarter.sol\":4829:4856  inAmount >= _expectedAmount */\n      lt\n      iszero\n        /* \"contracts/SycrowBarter.sol\":4804:4931  require(... */\n      tag_146\n      jumpi\n      mload(0x40)\n      shl(0xe5, 0x461bcd)\n      dup2\n      mstore\n      0x04\n      add\n      tag_117\n      swap1\n      tag_148\n      jump\t// in\n    tag_146:\n        /* \"contracts/SycrowBarter.sol\":4951:4978  _tradeTokenForEth(inAmount) */\n      tag_149\n        /* \"contracts/SycrowBarter.sol\":4969:4977  inAmount */\n      dup4\n        /* \"contracts/SycrowBarter.sol\":4951:4968  _tradeTokenForEth */\n      tag_150\n        /* \"contracts/SycrowBarter.sol\":4951:4978  _tradeTokenForEth(inAmount) */\n      jump\t// in\n    tag_149:\n      pop\n      pop\n        /* \"@openzeppelin/contracts/security/ReentrancyGuard.sol\":1701:1702  1 */\n      0x01\n        /* \"@openzeppelin/contracts/security/ReentrancyGuard.sol\":2628:2650  _status = _NOT_ENTERED */\n      dup1\n      sstore\n      pop\n        /* \"contracts/SycrowBarter.sol\":4537:4985  function tradeTokenForEth(uint256 inAmount)... */\n      jump\t// out\n        /* \"contracts/SycrowBarter.sol\":4077:4531  function tradeTokenForToken(uint256 inAmount)... */\n    tag_42:\n        /* \"contracts/SycrowBarter.sol\":1106:1121  block.timestamp */\n      timestamp\n        /* \"contracts/SycrowBarter.sol\":1094:1102  deadline */\n      sload(0x04)\n        /* \"contracts/SycrowBarter.sol\":1094:1121  deadline >= block.timestamp */\n      lt\n      iszero\n        /* \"contracts/SycrowBarter.sol\":1094:1159  deadline >= block.timestamp && totalTradeAmount < _expectedAmount */\n      dup1\n      iszero\n      tag_152\n      jumpi\n      pop\n        /* \"contracts/SycrowBarter.sol\":1144:1159  _expectedAmount */\n      sload(0x09)\n        /* \"contracts/SycrowBarter.sol\":1125:1141  totalTradeAmount */\n      sload(0x02)\n        /* \"contracts/SycrowBarter.sol\":1125:1159  totalTradeAmount < _expectedAmount */\n      lt\n        /* \"contracts/SycrowBarter.sol\":1094:1159  deadline >= block.timestamp && totalTradeAmount < _expectedAmount */\n    tag_152:\n        /* \"contracts/SycrowBarter.sol\":1073:1207  require(... */\n      tag_153\n      jumpi\n      mload(0x40)\n      shl(0xe5, 0x461bcd)\n      dup2\n      mstore\n      0x04\n      add\n      tag_117\n      swap1\n      tag_118\n      jump\t// in\n    tag_153:\n        /* \"contracts/SycrowBarter.sol\":1624:1636  _initialized */\n      sload(0x05)\n      shl(0xa8, 0x01)\n      swap1\n      div\n      0xff\n      and\n        /* \"contracts/SycrowBarter.sol\":1616:1670  require(_initialized, \"SyCrowBarter: NOT_INITIALIZED\") */\n      tag_156\n      jumpi\n      mload(0x40)\n      shl(0xe5, 0x461bcd)\n      dup2\n      mstore\n      0x04\n      add\n      tag_117\n      swap1\n      tag_122\n      jump\t// in\n    tag_156:\n        /* \"contracts/SycrowBarter.sol\":1727:1760  ISyCrowBarterFactory isycrFactory */\n      0x00\n        /* \"contracts/SycrowBarter.sol\":1784:1791  factory */\n      immutable(\"0x9d6b7fbd0ded42ab14e47300e428df3f38e4fbb3a7f790d898a87bff4f86606b\")\n        /* \"contracts/SycrowBarter.sol\":1727:1792  ISyCrowBarterFactory isycrFactory = ISyCrowBarterFactory(factory) */\n      swap1\n      pop\n        /* \"contracts/SycrowBarter.sol\":1811:1823  isycrFactory */\n      dup1\n      sub(shl(0xa0, 0x01), 0x01)\n        /* \"contracts/SycrowBarter.sol\":1811:1832  isycrFactory.isPaused */\n      and\n      0xb187bd26\n        /* \"contracts/SycrowBarter.sol\":1811:1834  isycrFactory.isPaused() */\n      mload(0x40)\n      dup2\n      0xffffffff\n      and\n      0xe0\n      shl\n      dup2\n      mstore\n      0x04\n      add\n      0x20\n      mload(0x40)\n      dup1\n      dup4\n      sub\n      dup2\n      dup7\n      gas\n      staticcall\n      iszero\n      dup1\n      iszero\n      tag_160\n      jumpi\n      returndatasize\n      0x00\n      dup1\n      returndatacopy\n      revert(0x00, returndatasize)\n    tag_160:\n      pop\n      pop\n      pop\n      pop\n      mload(0x40)\n      returndatasize\n      not(0x1f)\n      0x1f\n      dup3\n      add\n      and\n      dup3\n      add\n      dup1\n      0x40\n      mstore\n      pop\n      dup2\n      add\n      swap1\n      tag_161\n      swap2\n      swap1\n      tag_127\n      jump\t// in\n    tag_161:\n        /* \"contracts/SycrowBarter.sol\":1810:1834  !isycrFactory.isPaused() */\n      iszero\n        /* \"contracts/SycrowBarter.sol\":1802:1873  require(!isycrFactory.isPaused(), \"SyCrowBarter: Base Contract Paused\") */\n      tag_162\n      jumpi\n      mload(0x40)\n      shl(0xe5, 0x461bcd)\n      dup2\n      mstore\n      0x04\n      add\n      tag_117\n      swap1\n      tag_130\n      jump\t// in\n    tag_162:\n        /* \"contracts/SycrowBarter.sol\":1320:1330  barterType */\n      sload(0x05)\n        /* \"contracts/SycrowBarter.sol\":4241:4274  ISyCrowBarterType.TOKEN_FOR_TOKEN */\n      0x02\n      swap1\n        /* \"contracts/SycrowBarter.sol\":1320:1330  barterType */\n      0xff\n      and\n        /* \"contracts/SycrowBarter.sol\":1305:1330  _barterType == barterType */\n      dup2\n      dup2\n      gt\n      iszero\n      tag_166\n      jumpi\n      tag_166\n      tag_134\n      jump\t// in\n    tag_166:\n        /* \"contracts/SycrowBarter.sol\":1305:1316  _barterType */\n      dup2\n        /* \"contracts/SycrowBarter.sol\":1305:1330  _barterType == barterType */\n      0x02\n      dup2\n      gt\n      iszero\n      tag_168\n      jumpi\n      tag_168\n      tag_134\n      jump\t// in\n    tag_168:\n      eq\n        /* \"contracts/SycrowBarter.sol\":1297:1368  require(_barterType == barterType, \"SyCrowBarter: INVALID_BARTER_TYPE\") */\n      tag_169\n      jumpi\n      mload(0x40)\n      shl(0xe5, 0x461bcd)\n      dup2\n      mstore\n      0x04\n      add\n      tag_117\n      swap1\n      tag_139\n      jump\t// in\n    tag_169:\n        /* \"@openzeppelin/contracts/security/ReentrancyGuard.sol\":1744:1745  2 */\n      0x02\n        /* \"@openzeppelin/contracts/security/ReentrancyGuard.sol\":2325:2332  _status */\n      sload(0x01)\n        /* \"@openzeppelin/contracts/security/ReentrancyGuard.sol\":2325:2344  _status != _ENTERED */\n      sub\n        /* \"@openzeppelin/contracts/security/ReentrancyGuard.sol\":2317:2380  require(_status != _ENTERED, \"ReentrancyGuard: reentrant call\") */\n      tag_172\n      jumpi\n      mload(0x40)\n      shl(0xe5, 0x461bcd)\n      dup2\n      mstore\n      0x04\n      add\n      tag_117\n      swap1\n      tag_143\n      jump\t// in\n    tag_172:\n        /* \"@openzeppelin/contracts/security/ReentrancyGuard.sol\":1744:1745  2 */\n      0x02\n        /* \"@openzeppelin/contracts/security/ReentrancyGuard.sol\":2455:2462  _status */\n      0x01\n        /* \"@openzeppelin/contracts/security/ReentrancyGuard.sol\":2455:2473  _status = _ENTERED */\n      sstore\n        /* \"contracts/SycrowBarter.sol\":4316:4332  allowMultiBarter */\n      and(0xff, sload(0x03))\n        /* \"contracts/SycrowBarter.sol\":4311:4486  if (!allowMultiBarter) {... */\n      tag_176\n      jumpi\n        /* \"contracts/SycrowBarter.sol\":4385:4400  _expectedAmount */\n      sload(0x09)\n        /* \"contracts/SycrowBarter.sol\":4373:4381  inAmount */\n      dup4\n        /* \"contracts/SycrowBarter.sol\":4373:4400  inAmount >= _expectedAmount */\n      lt\n      iszero\n        /* \"contracts/SycrowBarter.sol\":4348:4475  require(... */\n      tag_176\n      jumpi\n      mload(0x40)\n      shl(0xe5, 0x461bcd)\n      dup2\n      mstore\n      0x04\n      add\n      tag_117\n      swap1\n      tag_148\n      jump\t// in\n    tag_176:\n        /* \"contracts/SycrowBarter.sol\":4495:4524  _tradeTokenForToken(inAmount) */\n      tag_149\n        /* \"contracts/SycrowBarter.sol\":4515:4523  inAmount */\n      dup4\n        /* \"contracts/SycrowBarter.sol\":4495:4514  _tradeTokenForToken */\n      tag_179\n        /* \"contracts/SycrowBarter.sol\":4495:4524  _tradeTokenForToken(inAmount) */\n      jump\t// in\n        /* \"contracts/SycrowBarter.sol\":8568:10245  function withdraw() external override checkInActive initialized onlyOwner {... */\n    tag_50:\n        /* \"contracts/SycrowBarter.sol\":1459:1474  block.timestamp */\n      timestamp\n        /* \"contracts/SycrowBarter.sol\":1448:1456  deadline */\n      sload(0x04)\n        /* \"contracts/SycrowBarter.sol\":1448:1474  deadline < block.timestamp */\n      lt\n        /* \"contracts/SycrowBarter.sol\":1448:1513  deadline < block.timestamp || totalTradeAmount >= _expectedAmount */\n      dup1\n      tag_181\n      jumpi\n      pop\n        /* \"contracts/SycrowBarter.sol\":1498:1513  _expectedAmount */\n      sload(0x09)\n        /* \"contracts/SycrowBarter.sol\":1478:1494  totalTradeAmount */\n      sload(0x02)\n        /* \"contracts/SycrowBarter.sol\":1478:1513  totalTradeAmount >= _expectedAmount */\n      lt\n      iszero\n        /* \"contracts/SycrowBarter.sol\":1448:1513  deadline < block.timestamp || totalTradeAmount >= _expectedAmount */\n    tag_181:\n        /* \"contracts/SycrowBarter.sol\":1427:1559  require(... */\n      tag_182\n      jumpi\n      mload(0x40)\n      shl(0xe5, 0x461bcd)\n      dup2\n      mstore\n        /* \"#utility.yul\":7389:7391   */\n      0x20\n        /* \"contracts/SycrowBarter.sol\":1427:1559  require(... */\n      0x04\n      dup3\n      add\n        /* \"#utility.yul\":7371:7392   */\n      mstore\n        /* \"#utility.yul\":7428:7430   */\n      0x14\n        /* \"#utility.yul\":7408:7426   */\n      0x24\n      dup3\n      add\n        /* \"#utility.yul\":7401:7431   */\n      mstore\n      shl(0x60, 0x537943726f774261727465723a20414354495645)\n        /* \"#utility.yul\":7447:7465   */\n      0x44\n      dup3\n      add\n        /* \"#utility.yul\":7440:7490   */\n      mstore\n        /* \"#utility.yul\":7507:7525   */\n      0x64\n      add\n        /* \"contracts/SycrowBarter.sol\":1427:1559  require(... */\n      tag_117\n        /* \"#utility.yul\":7187:7531   */\n      jump\n        /* \"contracts/SycrowBarter.sol\":1427:1559  require(... */\n    tag_182:\n        /* \"contracts/SycrowBarter.sol\":1624:1636  _initialized */\n      sload(0x05)\n      shl(0xa8, 0x01)\n      swap1\n      div\n      0xff\n      and\n        /* \"contracts/SycrowBarter.sol\":1616:1670  require(_initialized, \"SyCrowBarter: NOT_INITIALIZED\") */\n      tag_186\n      jumpi\n      mload(0x40)\n      shl(0xe5, 0x461bcd)\n      dup2\n      mstore\n      0x04\n      add\n      tag_117\n      swap1\n      tag_122\n      jump\t// in\n    tag_186:\n        /* \"@openzeppelin/contracts/access/Ownable.sol\":1082:1089  address */\n      0x00\n        /* \"@openzeppelin/contracts/access/Ownable.sol\":1108:1114  _owner */\n      sload\n      sub(shl(0xa0, 0x01), 0x01)\n      and\n        /* \"@openzeppelin/contracts/utils/Context.sol\":719:729  msg.sender */\n      caller\n        /* \"@openzeppelin/contracts/access/Ownable.sol\":1248:1271  owner() == _msgSender() */\n      eq\n        /* \"@openzeppelin/contracts/access/Ownable.sol\":1240:1308  require(owner() == _msgSender(), \"Ownable: caller is not the owner\") */\n      tag_192\n      jumpi\n      mload(0x40)\n      shl(0xe5, 0x461bcd)\n      dup2\n      mstore\n      0x04\n      add\n      tag_117\n      swap1\n      tag_194\n      jump\t// in\n    tag_192:\n        /* \"contracts/SycrowBarter.sol\":8679:8683  WETH */\n      sload(0x05)\n        /* \"contracts/SycrowBarter.sol\":8716:8751  _wethErc20.balanceOf(address(this)) */\n      mload(0x40)\n      shl(0xe0, 0x70a08231)\n      dup2\n      mstore\n        /* \"contracts/SycrowBarter.sol\":8745:8749  this */\n      address\n        /* \"contracts/SycrowBarter.sol\":8716:8751  _wethErc20.balanceOf(address(this)) */\n      0x04\n      dup3\n      add\n        /* \"#utility.yul\":2609:2660   */\n      mstore\n        /* \"contracts/SycrowBarter.sol\":8679:8683  WETH */\n      0x0100\n      swap1\n      swap2\n      div\n      sub(shl(0xa0, 0x01), 0x01)\n      and\n      swap1\n        /* \"contracts/SycrowBarter.sol\":8652:8669  IERC20 _wethErc20 */\n      0x00\n      swap1\n        /* \"contracts/SycrowBarter.sol\":8679:8683  WETH */\n      dup3\n      swap1\n        /* \"contracts/SycrowBarter.sol\":8716:8736  _wethErc20.balanceOf */\n      0x70a08231\n      swap1\n        /* \"#utility.yul\":2582:2600   */\n      0x24\n      add\n        /* \"contracts/SycrowBarter.sol\":8716:8751  _wethErc20.balanceOf(address(this)) */\n      0x20\n      mload(0x40)\n      dup1\n      dup4\n      sub\n      dup2\n      dup7\n      gas\n      staticcall\n      iszero\n      dup1\n      iszero\n      tag_198\n      jumpi\n      returndatasize\n      0x00\n      dup1\n      returndatacopy\n      revert(0x00, returndatasize)\n    tag_198:\n      pop\n      pop\n      pop\n      pop\n      mload(0x40)\n      returndatasize\n      not(0x1f)\n      0x1f\n      dup3\n      add\n      and\n      dup3\n      add\n      dup1\n      0x40\n      mstore\n      pop\n      dup2\n      add\n      swap1\n      tag_199\n      swap2\n      swap1\n      tag_200\n      jump\t// in\n    tag_199:\n        /* \"contracts/SycrowBarter.sol\":8695:8751  uint256 ethBalance = _wethErc20.balanceOf(address(this)) */\n      swap1\n      pop\n        /* \"contracts/SycrowBarter.sol\":8766:8780  ethBalance > 0 */\n      dup1\n      iszero\n        /* \"contracts/SycrowBarter.sol\":8762:8907  if (ethBalance > 0) {... */\n      tag_206\n      jumpi\n        /* \"contracts/SycrowBarter.sol\":8802:8806  WETH */\n      sload(0x05)\n        /* \"contracts/SycrowBarter.sol\":8796:8828  IWETH(WETH).withdraw(ethBalance) */\n      mload(0x40)\n      shl(0xe0, 0x2e1a7d4d)\n      dup2\n      mstore\n      0x04\n      dup2\n      add\n        /* \"#utility.yul\":345:370   */\n      dup4\n      swap1\n      mstore\n        /* \"contracts/SycrowBarter.sol\":8802:8806  WETH */\n      0x0100\n      swap1\n      swap2\n      div\n      sub(shl(0xa0, 0x01), 0x01)\n      and\n      swap1\n        /* \"contracts/SycrowBarter.sol\":8796:8816  IWETH(WETH).withdraw */\n      0x2e1a7d4d\n      swap1\n        /* \"#utility.yul\":318:336   */\n      0x24\n      add\n        /* \"contracts/SycrowBarter.sol\":8796:8828  IWETH(WETH).withdraw(ethBalance) */\n      0x00\n      mload(0x40)\n      dup1\n      dup4\n      sub\n      dup2\n      0x00\n      dup8\n      dup1\n      extcodesize\n      iszero\n      dup1\n      iszero\n      tag_203\n      jumpi\n      0x00\n      dup1\n      revert\n    tag_203:\n      pop\n      gas\n      call\n      iszero\n      dup1\n      iszero\n      tag_205\n      jumpi\n      returndatasize\n      0x00\n      dup1\n      returndatacopy\n      revert(0x00, returndatasize)\n    tag_205:\n      pop\n      pop\n      pop\n      pop\n        /* \"contracts/SycrowBarter.sol\":8842:8896  TransferHelper.safeTransferETH(msg.sender, ethBalance) */\n      tag_206\n        /* \"contracts/SycrowBarter.sol\":8873:8883  msg.sender */\n      caller\n        /* \"contracts/SycrowBarter.sol\":8885:8895  ethBalance */\n      dup3\n        /* \"contracts/SycrowBarter.sol\":8842:8872  TransferHelper.safeTransferETH */\n      tag_207\n        /* \"contracts/SycrowBarter.sol\":8842:8896  TransferHelper.safeTransferETH(msg.sender, ethBalance) */\n      jump\t// in\n    tag_206:\n        /* \"contracts/SycrowBarter.sol\":8955:8976  _expectedTokenAddress */\n      sload(0x07)\n        /* \"contracts/SycrowBarter.sol\":8948:9024  IERC20(_expectedTokenAddress).balanceOf(... */\n      mload(0x40)\n      shl(0xe0, 0x70a08231)\n      dup2\n      mstore\n        /* \"contracts/SycrowBarter.sol\":9009:9013  this */\n      address\n        /* \"contracts/SycrowBarter.sol\":8948:9024  IERC20(_expectedTokenAddress).balanceOf(... */\n      0x04\n      dup3\n      add\n        /* \"#utility.yul\":2609:2660   */\n      mstore\n        /* \"contracts/SycrowBarter.sol\":8917:8945  uint256 expectedTokenBalance */\n      0x00\n      swap2\n      sub(shl(0xa0, 0x01), 0x01)\n        /* \"contracts/SycrowBarter.sol\":8955:8976  _expectedTokenAddress */\n      and\n      swap1\n        /* \"contracts/SycrowBarter.sol\":8948:8987  IERC20(_expectedTokenAddress).balanceOf */\n      0x70a08231\n      swap1\n        /* \"#utility.yul\":2582:2600   */\n      0x24\n      add\n        /* \"contracts/SycrowBarter.sol\":8948:9024  IERC20(_expectedTokenAddress).balanceOf(... */\n      0x20\n      mload(0x40)\n      dup1\n      dup4\n      sub\n      dup2\n      dup7\n      gas\n      staticcall\n      iszero\n      dup1\n      iszero\n      tag_210\n      jumpi\n      returndatasize\n      0x00\n      dup1\n      returndatacopy\n      revert(0x00, returndatasize)\n    tag_210:\n      pop\n      pop\n      pop\n      pop\n      mload(0x40)\n      returndatasize\n      not(0x1f)\n      0x1f\n      dup3\n      add\n      and\n      dup3\n      add\n      dup1\n      0x40\n      mstore\n      pop\n      dup2\n      add\n      swap1\n      tag_211\n      swap2\n      swap1\n      tag_200\n      jump\t// in\n    tag_211:\n        /* \"contracts/SycrowBarter.sol\":8917:9024  uint256 expectedTokenBalance = IERC20(_expectedTokenAddress).balanceOf(... */\n      swap1\n      pop\n        /* \"contracts/SycrowBarter.sol\":9039:9063  expectedTokenBalance > 0 */\n      dup1\n      iszero\n        /* \"contracts/SycrowBarter.sol\":9035:9236  if (expectedTokenBalance > 0) {... */\n      tag_213\n      jumpi\n        /* \"contracts/SycrowBarter.sol\":9124:9145  _expectedTokenAddress */\n      sload(0x07)\n        /* \"contracts/SycrowBarter.sol\":9079:9225  TransferHelper.safeTransfer(... */\n      tag_213\n      swap1\n      sub(shl(0xa0, 0x01), 0x01)\n        /* \"contracts/SycrowBarter.sol\":9124:9145  _expectedTokenAddress */\n      and\n        /* \"contracts/SycrowBarter.sol\":9163:9173  msg.sender */\n      caller\n        /* \"contracts/SycrowBarter.sol\":9191:9211  expectedTokenBalance */\n      dup4\n        /* \"contracts/SycrowBarter.sol\":9079:9106  TransferHelper.safeTransfer */\n      tag_214\n        /* \"contracts/SycrowBarter.sol\":9079:9225  TransferHelper.safeTransfer(... */\n      jump\t// in\n    tag_213:\n        /* \"contracts/SycrowBarter.sol\":9285:9307  _depositedTokenAddress */\n      sload(0x06)\n        /* \"contracts/SycrowBarter.sol\":9278:9346  IERC20(_depositedTokenAddress)... */\n      mload(0x40)\n      shl(0xe0, 0x70a08231)\n      dup2\n      mstore\n        /* \"contracts/SycrowBarter.sol\":9340:9344  this */\n      address\n        /* \"contracts/SycrowBarter.sol\":9278:9346  IERC20(_depositedTokenAddress)... */\n      0x04\n      dup3\n      add\n        /* \"#utility.yul\":2609:2660   */\n      mstore\n        /* \"contracts/SycrowBarter.sol\":9246:9275  uint256 depositedTokenBalance */\n      0x00\n      swap2\n      sub(shl(0xa0, 0x01), 0x01)\n        /* \"contracts/SycrowBarter.sol\":9285:9307  _depositedTokenAddress */\n      and\n      swap1\n        /* \"contracts/SycrowBarter.sol\":9278:9331  IERC20(_depositedTokenAddress)... */\n      0x70a08231\n      swap1\n        /* \"#utility.yul\":2582:2600   */\n      0x24\n      add\n        /* \"contracts/SycrowBarter.sol\":9278:9346  IERC20(_depositedTokenAddress)... */\n      0x20\n      mload(0x40)\n      dup1\n      dup4\n      sub\n      dup2\n      dup7\n      gas\n      staticcall\n      iszero\n      dup1\n      iszero\n      tag_217\n      jumpi\n      returndatasize\n      0x00\n      dup1\n      returndatacopy\n      revert(0x00, returndatasize)\n    tag_217:\n      pop\n      pop\n      pop\n      pop\n      mload(0x40)\n      returndatasize\n      not(0x1f)\n      0x1f\n      dup3\n      add\n      and\n      dup3\n      add\n      dup1\n      0x40\n      mstore\n      pop\n      dup2\n      add\n      swap1\n      tag_218\n      swap2\n      swap1\n      tag_200\n      jump\t// in\n    tag_218:\n        /* \"contracts/SycrowBarter.sol\":9246:9346  uint256 depositedTokenBalance = IERC20(_depositedTokenAddress)... */\n      swap1\n      pop\n        /* \"contracts/SycrowBarter.sol\":9361:9386  depositedTokenBalance > 0 */\n      dup1\n      iszero\n        /* \"contracts/SycrowBarter.sol\":9357:9561  if (depositedTokenBalance > 0) {... */\n      tag_220\n      jumpi\n        /* \"contracts/SycrowBarter.sol\":9447:9469  _depositedTokenAddress */\n      sload(0x06)\n        /* \"contracts/SycrowBarter.sol\":9402:9550  TransferHelper.safeTransfer(... */\n      tag_220\n      swap1\n      sub(shl(0xa0, 0x01), 0x01)\n        /* \"contracts/SycrowBarter.sol\":9447:9469  _depositedTokenAddress */\n      and\n        /* \"contracts/SycrowBarter.sol\":9487:9497  msg.sender */\n      caller\n        /* \"contracts/SycrowBarter.sol\":9515:9536  depositedTokenBalance */\n      dup4\n        /* \"contracts/SycrowBarter.sol\":9402:9429  TransferHelper.safeTransfer */\n      tag_214\n        /* \"contracts/SycrowBarter.sol\":9402:9550  TransferHelper.safeTransfer(... */\n      jump\t// in\n    tag_220:\n        /* \"contracts/SycrowBarter.sol\":9570:9584  uint256 value1 */\n      0x00\n      dup1\n      dup1\n        /* \"contracts/SycrowBarter.sol\":9631:9641  barterType */\n      and(0xff, sload(0x05))\n        /* \"contracts/SycrowBarter.sol\":9631:9676  barterType == ISyCrowBarterType.ETH_FOR_TOKEN */\n      0x02\n      dup2\n      gt\n      iszero\n      tag_224\n      jumpi\n      tag_224\n      tag_134\n      jump\t// in\n    tag_224:\n      sub\n        /* \"contracts/SycrowBarter.sol\":9627:10016  if (barterType == ISyCrowBarterType.ETH_FOR_TOKEN) {... */\n      tag_225\n      jumpi\n      pop\n        /* \"contracts/SycrowBarter.sol\":9701:9711  ethBalance */\n      dup4\n      swap1\n      pop\n        /* \"contracts/SycrowBarter.sol\":9734:9754  expectedTokenBalance */\n      dup3\n        /* \"contracts/SycrowBarter.sol\":9627:10016  if (barterType == ISyCrowBarterType.ETH_FOR_TOKEN) {... */\n      jump(tag_232)\n    tag_225:\n        /* \"contracts/SycrowBarter.sol\":9789:9822  ISyCrowBarterType.TOKEN_FOR_TOKEN */\n      0x02\n        /* \"contracts/SycrowBarter.sol\":9775:9785  barterType */\n      and(0xff, sload(0x05))\n        /* \"contracts/SycrowBarter.sol\":9775:9822  barterType == ISyCrowBarterType.TOKEN_FOR_TOKEN */\n      0x02\n      dup2\n      gt\n      iszero\n      tag_230\n      jumpi\n      tag_230\n      tag_134\n      jump\t// in\n    tag_230:\n      sub\n        /* \"contracts/SycrowBarter.sol\":9771:10016  if (barterType == ISyCrowBarterType.TOKEN_FOR_TOKEN) {... */\n      tag_231\n      jumpi\n      pop\n        /* \"contracts/SycrowBarter.sol\":9847:9868  depositedTokenBalance */\n      dup2\n      swap1\n      pop\n        /* \"contracts/SycrowBarter.sol\":9891:9911  expectedTokenBalance */\n      dup3\n        /* \"contracts/SycrowBarter.sol\":9771:10016  if (barterType == ISyCrowBarterType.TOKEN_FOR_TOKEN) {... */\n      jump(tag_232)\n    tag_231:\n      pop\n        /* \"contracts/SycrowBarter.sol\":9951:9972  depositedTokenBalance */\n      dup2\n      swap1\n      pop\n        /* \"contracts/SycrowBarter.sol\":9995:10005  ethBalance */\n      dup4\n        /* \"contracts/SycrowBarter.sol\":9771:10016  if (barterType == ISyCrowBarterType.TOKEN_FOR_TOKEN) {... */\n    tag_232:\n        /* \"contracts/SycrowBarter.sol\":10101:10238  sycrFactory.notifyWithdrawFromBarter(... */\n      mload(0x40)\n      shl(0xe1, 0x19bcb507)\n      dup2\n      mstore\n        /* \"contracts/SycrowBarter.sol\":10082:10089  factory */\n      immutable(\"0x9d6b7fbd0ded42ab14e47300e428df3f38e4fbb3a7f790d898a87bff4f86606b\")\n      swap1\n      sub(shl(0xa0, 0x01), 0x01)\n        /* \"contracts/SycrowBarter.sol\":10101:10137  sycrFactory.notifyWithdrawFromBarter */\n      dup3\n      and\n      swap1\n      0x33796a0e\n      swap1\n        /* \"contracts/SycrowBarter.sol\":10101:10238  sycrFactory.notifyWithdrawFromBarter(... */\n      tag_233\n      swap1\n        /* \"contracts/SycrowBarter.sol\":10159:10163  this */\n      address\n      swap1\n        /* \"contracts/SycrowBarter.sol\":10178:10188  msg.sender */\n      caller\n      swap1\n        /* \"contracts/SycrowBarter.sol\":10202:10208  value1 */\n      dup9\n      swap1\n        /* \"contracts/SycrowBarter.sol\":10222:10228  value2 */\n      dup9\n      swap1\n        /* \"contracts/SycrowBarter.sol\":10101:10238  sycrFactory.notifyWithdrawFromBarter(... */\n      0x04\n      add\n      tag_234\n      jump\t// in\n    tag_233:\n      0x00\n      mload(0x40)\n      dup1\n      dup4\n      sub\n      dup2\n      0x00\n      dup8\n      dup1\n      extcodesize\n      iszero\n      dup1\n      iszero\n      tag_235\n      jumpi\n      0x00\n      dup1\n      revert\n    tag_235:\n      pop\n      gas\n      call\n      iszero\n      dup1\n      iszero\n      tag_237\n      jumpi\n      returndatasize\n      0x00\n      dup1\n      returndatacopy\n      revert(0x00, returndatasize)\n    tag_237:\n      pop\n      pop\n      pop\n      pop\n        /* \"contracts/SycrowBarter.sol\":8642:10245  {... */\n      pop\n      pop\n      pop\n      pop\n      pop\n      pop\n      pop\n        /* \"contracts/SycrowBarter.sol\":8568:10245  function withdraw() external override checkInActive initialized onlyOwner {... */\n      jump\t// out\n        /* \"contracts/SycrowBarter.sol\":2988:3175  function getAmounts()... */\n    tag_53:\n        /* \"contracts/SycrowBarter.sol\":1624:1636  _initialized */\n      sload(0x05)\n        /* \"contracts/SycrowBarter.sol\":3094:3101  uint256 */\n      0x00\n      swap1\n      dup2\n      swap1\n      shl(0xa8, 0x01)\n        /* \"contracts/SycrowBarter.sol\":1624:1636  _initialized */\n      swap1\n      div\n      0xff\n      and\n        /* \"contracts/SycrowBarter.sol\":1616:1670  require(_initialized, \"SyCrowBarter: NOT_INITIALIZED\") */\n      tag_239\n      jumpi\n      mload(0x40)\n      shl(0xe5, 0x461bcd)\n      dup2\n      mstore\n      0x04\n      add\n      tag_117\n      swap1\n      tag_122\n      jump\t// in\n    tag_239:\n      pop\n      pop\n        /* \"contracts/SycrowBarter.sol\":3134:3150  _depositedAmount */\n      sload(0x08)\n        /* \"contracts/SycrowBarter.sol\":3152:3167  _expectedAmount */\n      sload(0x09)\n        /* \"contracts/SycrowBarter.sol\":2988:3175  function getAmounts()... */\n      swap1\n      swap2\n      jump\t// out\n        /* \"contracts/SycrowBarter.sol\":4991:5456  function tradeEthForToken(uint256 inAmount)... */\n    tag_62:\n        /* \"contracts/SycrowBarter.sol\":1106:1121  block.timestamp */\n      timestamp\n        /* \"contracts/SycrowBarter.sol\":1094:1102  deadline */\n      sload(0x04)\n        /* \"contracts/SycrowBarter.sol\":1094:1121  deadline >= block.timestamp */\n      lt\n      iszero\n        /* \"contracts/SycrowBarter.sol\":1094:1159  deadline >= block.timestamp && totalTradeAmount < _expectedAmount */\n      dup1\n      iszero\n      tag_243\n      jumpi\n      pop\n        /* \"contracts/SycrowBarter.sol\":1144:1159  _expectedAmount */\n      sload(0x09)\n        /* \"contracts/SycrowBarter.sol\":1125:1141  totalTradeAmount */\n      sload(0x02)\n        /* \"contracts/SycrowBarter.sol\":1125:1159  totalTradeAmount < _expectedAmount */\n      lt\n        /* \"contracts/SycrowBarter.sol\":1094:1159  deadline >= block.timestamp && totalTradeAmount < _expectedAmount */\n    tag_243:\n        /* \"contracts/SycrowBarter.sol\":1073:1207  require(... */\n      tag_244\n      jumpi\n      mload(0x40)\n      shl(0xe5, 0x461bcd)\n      dup2\n      mstore\n      0x04\n      add\n      tag_117\n      swap1\n      tag_118\n      jump\t// in\n    tag_244:\n        /* \"contracts/SycrowBarter.sol\":1624:1636  _initialized */\n      sload(0x05)\n      shl(0xa8, 0x01)\n      swap1\n      div\n      0xff\n      and\n        /* \"contracts/SycrowBarter.sol\":1616:1670  require(_initialized, \"SyCrowBarter: NOT_INITIALIZED\") */\n      tag_247\n      jumpi\n      mload(0x40)\n      shl(0xe5, 0x461bcd)\n      dup2\n      mstore\n      0x04\n      add\n      tag_117\n      swap1\n      tag_122\n      jump\t// in\n    tag_247:\n        /* \"contracts/SycrowBarter.sol\":1727:1760  ISyCrowBarterFactory isycrFactory */\n      0x00\n        /* \"contracts/SycrowBarter.sol\":1784:1791  factory */\n      immutable(\"0x9d6b7fbd0ded42ab14e47300e428df3f38e4fbb3a7f790d898a87bff4f86606b\")\n        /* \"contracts/SycrowBarter.sol\":1727:1792  ISyCrowBarterFactory isycrFactory = ISyCrowBarterFactory(factory) */\n      swap1\n      pop\n        /* \"contracts/SycrowBarter.sol\":1811:1823  isycrFactory */\n      dup1\n      sub(shl(0xa0, 0x01), 0x01)\n        /* \"contracts/SycrowBarter.sol\":1811:1832  isycrFactory.isPaused */\n      and\n      0xb187bd26\n        /* \"contracts/SycrowBarter.sol\":1811:1834  isycrFactory.isPaused() */\n      mload(0x40)\n      dup2\n      0xffffffff\n      and\n      0xe0\n      shl\n      dup2\n      mstore\n      0x04\n      add\n      0x20\n      mload(0x40)\n      dup1\n      dup4\n      sub\n      dup2\n      dup7\n      gas\n      staticcall\n      iszero\n      dup1\n      iszero\n      tag_251\n      jumpi\n      returndatasize\n      0x00\n      dup1\n      returndatacopy\n      revert(0x00, returndatasize)\n    tag_251:\n      pop\n      pop\n      pop\n      pop\n      mload(0x40)\n      returndatasize\n      not(0x1f)\n      0x1f\n      dup3\n      add\n      and\n      dup3\n      add\n      dup1\n      0x40\n      mstore\n      pop\n      dup2\n      add\n      swap1\n      tag_252\n      swap2\n      swap1\n      tag_127\n      jump\t// in\n    tag_252:\n        /* \"contracts/SycrowBarter.sol\":1810:1834  !isycrFactory.isPaused() */\n      iszero\n        /* \"contracts/SycrowBarter.sol\":1802:1873  require(!isycrFactory.isPaused(), \"SyCrowBarter: Base Contract Paused\") */\n      tag_253\n      jumpi\n      mload(0x40)\n      shl(0xe5, 0x461bcd)\n      dup2\n      mstore\n      0x04\n      add\n      tag_117\n      swap1\n      tag_130\n      jump\t// in\n    tag_253:\n        /* \"contracts/SycrowBarter.sol\":1320:1330  barterType */\n      sload(0x05)\n        /* \"contracts/SycrowBarter.sol\":5169:5200  ISyCrowBarterType.TOKEN_FOR_ETH */\n      0x01\n      swap1\n        /* \"contracts/SycrowBarter.sol\":1320:1330  barterType */\n      0xff\n      and\n        /* \"contracts/SycrowBarter.sol\":1305:1330  _barterType == barterType */\n      0x02\n      dup2\n      gt\n      iszero\n      tag_257\n      jumpi\n      tag_257\n      tag_134\n      jump\t// in\n    tag_257:\n        /* \"contracts/SycrowBarter.sol\":1305:1316  _barterType */\n      dup2\n        /* \"contracts/SycrowBarter.sol\":1305:1330  _barterType == barterType */\n      0x02\n      dup2\n      gt\n      iszero\n      tag_259\n      jumpi\n      tag_259\n      tag_134\n      jump\t// in\n    tag_259:\n      eq\n        /* \"contracts/SycrowBarter.sol\":1297:1368  require(_barterType == barterType, \"SyCrowBarter: INVALID_BARTER_TYPE\") */\n      tag_260\n      jumpi\n      mload(0x40)\n      shl(0xe5, 0x461bcd)\n      dup2\n      mstore\n      0x04\n      add\n      tag_117\n      swap1\n      tag_139\n      jump\t// in\n    tag_260:\n        /* \"@openzeppelin/contracts/security/ReentrancyGuard.sol\":1744:1745  2 */\n      0x02\n        /* \"@openzeppelin/contracts/security/ReentrancyGuard.sol\":2325:2332  _status */\n      sload(0x01)\n        /* \"@openzeppelin/contracts/security/ReentrancyGuard.sol\":2325:2344  _status != _ENTERED */\n      sub\n        /* \"@openzeppelin/contracts/security/ReentrancyGuard.sol\":2317:2380  require(_status != _ENTERED, \"ReentrancyGuard: reentrant call\") */\n      tag_263\n      jumpi\n      mload(0x40)\n      shl(0xe5, 0x461bcd)\n      dup2\n      mstore\n      0x04\n      add\n      tag_117\n      swap1\n      tag_143\n      jump\t// in\n    tag_263:\n        /* \"@openzeppelin/contracts/security/ReentrancyGuard.sol\":1744:1745  2 */\n      0x02\n        /* \"@openzeppelin/contracts/security/ReentrancyGuard.sol\":2455:2462  _status */\n      0x01\n        /* \"@openzeppelin/contracts/security/ReentrancyGuard.sol\":2455:2473  _status = _ENTERED */\n      sstore\n        /* \"contracts/SycrowBarter.sol\":5242:5258  allowMultiBarter */\n      and(0xff, sload(0x03))\n        /* \"contracts/SycrowBarter.sol\":5237:5413  if (!allowMultiBarter) {... */\n      tag_267\n      jumpi\n        /* \"contracts/SycrowBarter.sol\":5312:5327  _expectedAmount */\n      sload(0x09)\n        /* \"contracts/SycrowBarter.sol\":5299:5308  msg.value */\n      callvalue\n        /* \"contracts/SycrowBarter.sol\":5299:5327  msg.value >= _expectedAmount */\n      lt\n      iszero\n        /* \"contracts/SycrowBarter.sol\":5274:5402  require(... */\n      tag_267\n      jumpi\n      mload(0x40)\n      shl(0xe5, 0x461bcd)\n      dup2\n      mstore\n      0x04\n      add\n      tag_117\n      swap1\n      tag_148\n      jump\t// in\n    tag_267:\n        /* \"contracts/SycrowBarter.sol\":5422:5449  _tradeEthForToken(inAmount) */\n      tag_149\n        /* \"contracts/SycrowBarter.sol\":5440:5448  inAmount */\n      dup4\n        /* \"contracts/SycrowBarter.sol\":5422:5439  _tradeEthForToken */\n      tag_270\n        /* \"contracts/SycrowBarter.sol\":5422:5449  _tradeEthForToken(inAmount) */\n      jump\t// in\n        /* \"contracts/SycrowBarter.sol\":1954:2982  function initialize(... */\n    tag_67:\n        /* \"contracts/SycrowBarter.sol\":2235:2239  bool */\n      0x00\n        /* \"contracts/SycrowBarter.sol\":2259:2269  msg.sender */\n      caller\n      sub(shl(0xa0, 0x01), 0x01)\n        /* \"contracts/SycrowBarter.sol\":2273:2280  factory */\n      immutable(\"0x9d6b7fbd0ded42ab14e47300e428df3f38e4fbb3a7f790d898a87bff4f86606b\")\n        /* \"contracts/SycrowBarter.sol\":2259:2280  msg.sender == factory */\n      and\n      eq\n        /* \"contracts/SycrowBarter.sol\":2251:2308  require(msg.sender == factory, \"SyCrowBarter: FORBIDDEN\") */\n      tag_272\n      jumpi\n      mload(0x40)\n      shl(0xe5, 0x461bcd)\n      dup2\n      mstore\n        /* \"#utility.yul\":8740:8742   */\n      0x20\n        /* \"contracts/SycrowBarter.sol\":2251:2308  require(msg.sender == factory, \"SyCrowBarter: FORBIDDEN\") */\n      0x04\n      dup3\n      add\n        /* \"#utility.yul\":8722:8743   */\n      mstore\n        /* \"#utility.yul\":8779:8781   */\n      0x17\n        /* \"#utility.yul\":8759:8777   */\n      0x24\n      dup3\n      add\n        /* \"#utility.yul\":8752:8782   */\n      mstore\n        /* \"#utility.yul\":8818:8843   */\n      0x537943726f774261727465723a20464f5242494444454e000000000000000000\n        /* \"#utility.yul\":8798:8816   */\n      0x44\n      dup3\n      add\n        /* \"#utility.yul\":8791:8844   */\n      mstore\n        /* \"#utility.yul\":8861:8879   */\n      0x64\n      add\n        /* \"contracts/SycrowBarter.sol\":2251:2308  require(msg.sender == factory, \"SyCrowBarter: FORBIDDEN\") */\n      tag_117\n        /* \"#utility.yul\":8538:8885   */\n      jump\n        /* \"contracts/SycrowBarter.sol\":2251:2308  require(msg.sender == factory, \"SyCrowBarter: FORBIDDEN\") */\n    tag_272:\n        /* \"contracts/SycrowBarter.sol\":2328:2340  _initialized */\n      sload(0x05)\n      shl(0xa8, 0x01)\n      swap1\n      div\n      0xff\n      and\n        /* \"contracts/SycrowBarter.sol\":2327:2340  !_initialized */\n      iszero\n        /* \"contracts/SycrowBarter.sol\":2319:2378  require(!_initialized, \"SyCrowBarter: ALREADY_INITIALIZED\") */\n      tag_275\n      jumpi\n      mload(0x40)\n      shl(0xe5, 0x461bcd)\n      dup2\n      mstore\n        /* \"#utility.yul\":9092:9094   */\n      0x20\n        /* \"contracts/SycrowBarter.sol\":2319:2378  require(!_initialized, \"SyCrowBarter: ALREADY_INITIALIZED\") */\n      0x04\n      dup3\n      add\n        /* \"#utility.yul\":9074:9095   */\n      mstore\n        /* \"#utility.yul\":9131:9133   */\n      0x21\n        /* \"#utility.yul\":9111:9129   */\n      0x24\n      dup3\n      add\n        /* \"#utility.yul\":9104:9134   */\n      mstore\n        /* \"#utility.yul\":9170:9204   */\n      0x537943726f774261727465723a20414c52454144595f494e495449414c495a45\n        /* \"#utility.yul\":9150:9168   */\n      0x44\n      dup3\n      add\n        /* \"#utility.yul\":9143:9205   */\n      mstore\n      shl(0xfa, 0x11)\n        /* \"#utility.yul\":9221:9239   */\n      0x64\n      dup3\n      add\n        /* \"#utility.yul\":9214:9245   */\n      mstore\n        /* \"#utility.yul\":9262:9281   */\n      0x84\n      add\n        /* \"contracts/SycrowBarter.sol\":2319:2378  require(!_initialized, \"SyCrowBarter: ALREADY_INITIALIZED\") */\n      tag_117\n        /* \"#utility.yul\":8890:9287   */\n      jump\n        /* \"contracts/SycrowBarter.sol\":2319:2378  require(!_initialized, \"SyCrowBarter: ALREADY_INITIALIZED\") */\n    tag_275:\n        /* \"contracts/SycrowBarter.sol\":2409:2424  block.timestamp */\n      timestamp\n        /* \"contracts/SycrowBarter.sol\":2396:2405  _deadline */\n      dup5\n        /* \"contracts/SycrowBarter.sol\":2396:2424  _deadline >= block.timestamp */\n      lt\n      iszero\n        /* \"contracts/SycrowBarter.sol\":2388:2456  require(_deadline >= block.timestamp, \"SyCrowBarter: PAST_DEADLINE\") */\n      tag_278\n      jumpi\n      mload(0x40)\n      shl(0xe5, 0x461bcd)\n      dup2\n      mstore\n        /* \"#utility.yul\":9494:9496   */\n      0x20\n        /* \"contracts/SycrowBarter.sol\":2388:2456  require(_deadline >= block.timestamp, \"SyCrowBarter: PAST_DEADLINE\") */\n      0x04\n      dup3\n      add\n        /* \"#utility.yul\":9476:9497   */\n      mstore\n        /* \"#utility.yul\":9533:9535   */\n      0x1b\n        /* \"#utility.yul\":9513:9531   */\n      0x24\n      dup3\n      add\n        /* \"#utility.yul\":9506:9536   */\n      mstore\n        /* \"#utility.yul\":9572:9601   */\n      0x537943726f774261727465723a20504153545f444541444c494e450000000000\n        /* \"#utility.yul\":9552:9570   */\n      0x44\n      dup3\n      add\n        /* \"#utility.yul\":9545:9602   */\n      mstore\n        /* \"#utility.yul\":9619:9637   */\n      0x64\n      add\n        /* \"contracts/SycrowBarter.sol\":2388:2456  require(_deadline >= block.timestamp, \"SyCrowBarter: PAST_DEADLINE\") */\n      tag_117\n        /* \"#utility.yul\":9292:9643   */\n      jump\n        /* \"contracts/SycrowBarter.sol\":2388:2456  require(_deadline >= block.timestamp, \"SyCrowBarter: PAST_DEADLINE\") */\n    tag_278:\n        /* \"contracts/SycrowBarter.sol\":2488:2528  IERC20(inToken).balanceOf(address(this)) */\n      mload(0x40)\n      shl(0xe0, 0x70a08231)\n      dup2\n      mstore\n        /* \"contracts/SycrowBarter.sol\":2522:2526  this */\n      address\n        /* \"contracts/SycrowBarter.sol\":2488:2528  IERC20(inToken).balanceOf(address(this)) */\n      0x04\n      dup3\n      add\n        /* \"#utility.yul\":2609:2660   */\n      mstore\n        /* \"contracts/SycrowBarter.sol\":2532:2547  amountDeposited */\n      dup7\n      swap1\n      sub(shl(0xa0, 0x01), 0x01)\n        /* \"contracts/SycrowBarter.sol\":2488:2513  IERC20(inToken).balanceOf */\n      dup11\n      and\n      swap1\n      0x70a08231\n      swap1\n        /* \"#utility.yul\":2582:2600   */\n      0x24\n      add\n        /* \"contracts/SycrowBarter.sol\":2488:2528  IERC20(inToken).balanceOf(address(this)) */\n      0x20\n      mload(0x40)\n      dup1\n      dup4\n      sub\n      dup2\n      dup7\n      gas\n      staticcall\n      iszero\n      dup1\n      iszero\n      tag_283\n      jumpi\n      returndatasize\n      0x00\n      dup1\n      returndatacopy\n      revert(0x00, returndatasize)\n    tag_283:\n      pop\n      pop\n      pop\n      pop\n      mload(0x40)\n      returndatasize\n      not(0x1f)\n      0x1f\n      dup3\n      add\n      and\n      dup3\n      add\n      dup1\n      0x40\n      mstore\n      pop\n      dup2\n      add\n      swap1\n      tag_284\n      swap2\n      swap1\n      tag_200\n      jump\t// in\n    tag_284:\n        /* \"contracts/SycrowBarter.sol\":2488:2547  IERC20(inToken).balanceOf(address(this)) >= amountDeposited */\n      lt\n      iszero\n        /* \"contracts/SycrowBarter.sol\":2467:2607  require(... */\n      tag_285\n      jumpi\n      mload(0x40)\n      shl(0xe5, 0x461bcd)\n      dup2\n      mstore\n        /* \"#utility.yul\":9850:9852   */\n      0x20\n        /* \"contracts/SycrowBarter.sol\":2467:2607  require(... */\n      0x04\n      dup3\n      add\n        /* \"#utility.yul\":9832:9853   */\n      mstore\n        /* \"#utility.yul\":9889:9891   */\n      0x22\n        /* \"#utility.yul\":9869:9887   */\n      0x24\n      dup3\n      add\n        /* \"#utility.yul\":9862:9892   */\n      mstore\n        /* \"#utility.yul\":9928:9962   */\n      0x537943726f774261727465723a20494e53554646494349454e545f4445504f53\n        /* \"#utility.yul\":9908:9926   */\n      0x44\n      dup3\n      add\n        /* \"#utility.yul\":9901:9963   */\n      mstore\n      shl(0xf2, 0x1255)\n        /* \"#utility.yul\":9979:9997   */\n      0x64\n      dup3\n      add\n        /* \"#utility.yul\":9972:10004   */\n      mstore\n        /* \"#utility.yul\":10021:10040   */\n      0x84\n      add\n        /* \"contracts/SycrowBarter.sol\":2467:2607  require(... */\n      tag_117\n        /* \"#utility.yul\":9648:10046   */\n      jump\n        /* \"contracts/SycrowBarter.sol\":2467:2607  require(... */\n    tag_285:\n        /* \"contracts/SycrowBarter.sol\":2618:2626  deadline */\n      0x04\n        /* \"contracts/SycrowBarter.sol\":2618:2638  deadline = _deadline */\n      dup5\n      swap1\n      sstore\n        /* \"contracts/SycrowBarter.sol\":2649:2671  _depositedTokenAddress */\n      0x06\n        /* \"contracts/SycrowBarter.sol\":2649:2681  _depositedTokenAddress = inToken */\n      dup1\n      sload\n      sub(shl(0xa0, 0x01), 0x01)\n      dup1\n      dup12\n      and\n      not(sub(shl(0xa0, 0x01), 0x01))\n      swap3\n      dup4\n      and\n      or\n      swap1\n      swap3\n      sstore\n        /* \"contracts/SycrowBarter.sol\":2691:2712  _expectedTokenAddress */\n      0x07\n        /* \"contracts/SycrowBarter.sol\":2691:2723  _expectedTokenAddress = outToken */\n      dup1\n      sload\n      swap3\n      dup11\n      and\n      swap3\n      swap1\n      swap2\n      and\n      swap2\n      swap1\n      swap2\n      or\n      swap1\n      sstore\n        /* \"contracts/SycrowBarter.sol\":2734:2750  _depositedAmount */\n      0x08\n        /* \"contracts/SycrowBarter.sol\":2734:2768  _depositedAmount = amountDeposited */\n      dup7\n      swap1\n      sstore\n        /* \"contracts/SycrowBarter.sol\":2778:2793  _expectedAmount */\n      0x09\n        /* \"contracts/SycrowBarter.sol\":2778:2810  _expectedAmount = amountExpected */\n      dup6\n      swap1\n      sstore\n        /* \"contracts/SycrowBarter.sol\":2821:2831  barterType */\n      0x05\n        /* \"contracts/SycrowBarter.sol\":2821:2845  barterType = _barterType */\n      dup1\n      sload\n        /* \"contracts/SycrowBarter.sol\":2834:2845  _barterType */\n      dup11\n      swap2\n        /* \"contracts/SycrowBarter.sol\":2821:2831  barterType */\n      swap1\n      not(0xff)\n        /* \"contracts/SycrowBarter.sol\":2821:2845  barterType = _barterType */\n      and\n        /* \"contracts/SycrowBarter.sol\":2649:2681  _depositedTokenAddress = inToken */\n      0x01\n        /* \"contracts/SycrowBarter.sol\":2834:2845  _barterType */\n      dup4\n        /* \"contracts/SycrowBarter.sol\":2821:2845  barterType = _barterType */\n      0x02\n      dup2\n      gt\n      iszero\n      tag_289\n      jumpi\n      tag_289\n      tag_134\n      jump\t// in\n    tag_289:\n      mul\n      or\n      swap1\n      sstore\n      pop\n      pop\n        /* \"contracts/SycrowBarter.sol\":2856:2872  allowMultiBarter */\n      0x03\n        /* \"contracts/SycrowBarter.sol\":2856:2892  allowMultiBarter = _allowMultiBarter */\n      dup1\n      sload\n      dup4\n      iszero\n      iszero\n      not(0xff)\n      swap1\n      swap2\n      and\n      or\n      swap1\n      sstore\n        /* \"contracts/SycrowBarter.sol\":2903:2907  WETH */\n      0x05\n        /* \"contracts/SycrowBarter.sol\":2903:2915  WETH = _WETH */\n      dup1\n      sload\n      not(shl(0xa8, 0xff))\n      sub(shl(0xa0, 0x01), 0x01)\n      dup5\n      and\n        /* \"contracts/SycrowBarter.sol\":2856:2892  allowMultiBarter = _allowMultiBarter */\n      0x0100\n        /* \"contracts/SycrowBarter.sol\":2903:2915  WETH = _WETH */\n      mul\n        /* \"contracts/SycrowBarter.sol\":2926:2945  _initialized = true */\n      and\n      not(sub(shl(0xb0, 0x01), 0x0100))\n      swap1\n      swap2\n      and\n      or\n      shl(0xa8, 0x01)\n      swap1\n      dup2\n      or\n      swap2\n      dup3\n      swap1\n      sstore\n        /* \"contracts/SycrowBarter.sol\":2963:2975  _initialized */\n      swap1\n      div\n        /* \"contracts/SycrowBarter.sol\":2856:2892  allowMultiBarter = _allowMultiBarter */\n      0xff\n        /* \"contracts/SycrowBarter.sol\":2963:2975  _initialized */\n      and\n        /* \"contracts/SycrowBarter.sol\":1954:2982  function initialize(... */\n      swap9\n      swap8\n      pop\n      pop\n      pop\n      pop\n      pop\n      pop\n      pop\n      pop\n      jump\t// out\n        /* \"@openzeppelin/contracts/access/Ownable.sol\":1668:1769  function renounceOwnership() public virtual onlyOwner {... */\n    tag_71:\n        /* \"@openzeppelin/contracts/access/Ownable.sol\":1082:1089  address */\n      0x00\n        /* \"@openzeppelin/contracts/access/Ownable.sol\":1108:1114  _owner */\n      sload\n      sub(shl(0xa0, 0x01), 0x01)\n      and\n        /* \"@openzeppelin/contracts/utils/Context.sol\":719:729  msg.sender */\n      caller\n        /* \"@openzeppelin/contracts/access/Ownable.sol\":1248:1271  owner() == _msgSender() */\n      eq\n        /* \"@openzeppelin/contracts/access/Ownable.sol\":1240:1308  require(owner() == _msgSender(), \"Ownable: caller is not the owner\") */\n      tag_293\n      jumpi\n      mload(0x40)\n      shl(0xe5, 0x461bcd)\n      dup2\n      mstore\n      0x04\n      add\n      tag_117\n      swap1\n      tag_194\n      jump\t// in\n    tag_293:\n        /* \"@openzeppelin/contracts/access/Ownable.sol\":1732:1762  _transferOwnership(address(0)) */\n      tag_296\n        /* \"@openzeppelin/contracts/access/Ownable.sol\":1759:1760  0 */\n      0x00\n        /* \"@openzeppelin/contracts/access/Ownable.sol\":1732:1750  _transferOwnership */\n      tag_297\n        /* \"@openzeppelin/contracts/access/Ownable.sol\":1732:1762  _transferOwnership(address(0)) */\n      jump\t// in\n    tag_296:\n        /* \"@openzeppelin/contracts/access/Ownable.sol\":1668:1769  function renounceOwnership() public virtual onlyOwner {... */\n      jump\t// out\n        /* \"contracts/SycrowBarter.sol\":3181:3379  function getTokens()... */\n    tag_88:\n        /* \"contracts/SycrowBarter.sol\":1624:1636  _initialized */\n      sload(0x05)\n        /* \"contracts/SycrowBarter.sol\":3286:3293  address */\n      0x00\n      swap1\n      dup2\n      swap1\n      shl(0xa8, 0x01)\n        /* \"contracts/SycrowBarter.sol\":1624:1636  _initialized */\n      swap1\n      div\n      0xff\n      and\n        /* \"contracts/SycrowBarter.sol\":1616:1670  require(_initialized, \"SyCrowBarter: NOT_INITIALIZED\") */\n      tag_300\n      jumpi\n      mload(0x40)\n      shl(0xe5, 0x461bcd)\n      dup2\n      mstore\n      0x04\n      add\n      tag_117\n      swap1\n      tag_122\n      jump\t// in\n    tag_300:\n      pop\n      pop\n        /* \"contracts/SycrowBarter.sol\":3326:3348  _depositedTokenAddress */\n      sload(0x06)\n        /* \"contracts/SycrowBarter.sol\":3350:3371  _expectedTokenAddress */\n      sload(0x07)\n      sub(shl(0xa0, 0x01), 0x01)\n        /* \"contracts/SycrowBarter.sol\":3326:3348  _depositedTokenAddress */\n      swap2\n      dup3\n      and\n      swap2\n        /* \"contracts/SycrowBarter.sol\":3350:3371  _expectedTokenAddress */\n      and\n        /* \"contracts/SycrowBarter.sol\":3181:3379  function getTokens()... */\n      swap1\n      swap2\n      jump\t// out\n        /* \"contracts/SycrowBarter.sol\":10251:10393  function getTradeOutAmount(uint256 amount) public view returns (uint256) {... */\n    tag_102:\n        /* \"contracts/SycrowBarter.sol\":10315:10322  uint256 */\n      0x00\n        /* \"contracts/SycrowBarter.sol\":10371:10386  _expectedAmount */\n      sload(0x09)\n        /* \"contracts/SycrowBarter.sol\":10351:10367  _depositedAmount */\n      sload(0x08)\n        /* \"contracts/SycrowBarter.sol\":10342:10348  amount */\n      dup4\n        /* \"contracts/SycrowBarter.sol\":10342:10367  amount * _depositedAmount */\n      tag_304\n      swap2\n      swap1\n      tag_305\n      jump\t// in\n    tag_304:\n        /* \"contracts/SycrowBarter.sol\":10341:10386  (amount * _depositedAmount) / _expectedAmount */\n      tag_306\n      swap2\n      swap1\n      tag_307\n      jump\t// in\n    tag_306:\n        /* \"contracts/SycrowBarter.sol\":10334:10386  return (amount * _depositedAmount) / _expectedAmount */\n      swap3\n        /* \"contracts/SycrowBarter.sol\":10251:10393  function getTradeOutAmount(uint256 amount) public view returns (uint256) {... */\n      swap2\n      pop\n      pop\n      jump\t// out\n        /* \"contracts/SycrowBarter.sol\":3385:4071  function getTrades()... */\n    tag_106:\n        /* \"contracts/SycrowBarter.sol\":3503:3519  address[] memory */\n      0x60\n        /* \"contracts/SycrowBarter.sol\":3533:3549  uint256[] memory */\n      dup1\n        /* \"contracts/SycrowBarter.sol\":3563:3579  uint256[] memory */\n      0x60\n        /* \"contracts/SycrowBarter.sol\":1624:1636  _initialized */\n      0x05\n      0x15\n      swap1\n      sload\n      swap1\n      0x0100\n      exp\n      swap1\n      div\n      0xff\n      and\n        /* \"contracts/SycrowBarter.sol\":1616:1670  require(_initialized, \"SyCrowBarter: NOT_INITIALIZED\") */\n      tag_309\n      jumpi\n      mload(0x40)\n      shl(0xe5, 0x461bcd)\n      dup2\n      mstore\n      0x04\n      add\n      tag_117\n      swap1\n      tag_122\n      jump\t// in\n    tag_309:\n        /* \"contracts/SycrowBarter.sol\":3647:3654  _trades */\n      0x0a\n        /* \"contracts/SycrowBarter.sol\":3647:3661  _trades.length */\n      sload\n        /* \"contracts/SycrowBarter.sol\":3604:3630  address[] memory addresses */\n      0x00\n      swap1\n        /* \"contracts/SycrowBarter.sol\":3633:3662  new address[](_trades.length) */\n      0xffffffffffffffff\n      dup2\n      gt\n      iszero\n      tag_313\n      jumpi\n      tag_313\n      tag_314\n      jump\t// in\n    tag_313:\n      mload(0x40)\n      swap1\n      dup1\n      dup3\n      mstore\n      dup1\n      0x20\n      mul\n      0x20\n      add\n      dup3\n      add\n      0x40\n      mstore\n      dup1\n      iszero\n      tag_315\n      jumpi\n      dup2\n      0x20\n      add\n      0x20\n      dup3\n      mul\n      dup1\n      calldatasize\n      dup4\n      calldatacopy\n      add\n      swap1\n      pop\n    tag_315:\n      pop\n        /* \"contracts/SycrowBarter.sol\":3715:3722  _trades */\n      0x0a\n        /* \"contracts/SycrowBarter.sol\":3715:3729  _trades.length */\n      sload\n        /* \"contracts/SycrowBarter.sol\":3604:3662  address[] memory addresses = new address[](_trades.length) */\n      swap1\n      swap2\n      pop\n        /* \"contracts/SycrowBarter.sol\":3672:3698  uint256[] memory amountsIn */\n      0x00\n      swap1\n        /* \"contracts/SycrowBarter.sol\":3701:3730  new uint256[](_trades.length) */\n      0xffffffffffffffff\n      dup2\n      gt\n      iszero\n      tag_317\n      jumpi\n      tag_317\n      tag_314\n      jump\t// in\n    tag_317:\n      mload(0x40)\n      swap1\n      dup1\n      dup3\n      mstore\n      dup1\n      0x20\n      mul\n      0x20\n      add\n      dup3\n      add\n      0x40\n      mstore\n      dup1\n      iszero\n      tag_318\n      jumpi\n      dup2\n      0x20\n      add\n      0x20\n      dup3\n      mul\n      dup1\n      calldatasize\n      dup4\n      calldatacopy\n      add\n      swap1\n      pop\n    tag_318:\n      pop\n        /* \"contracts/SycrowBarter.sol\":3784:3791  _trades */\n      0x0a\n        /* \"contracts/SycrowBarter.sol\":3784:3798  _trades.length */\n      sload\n        /* \"contracts/SycrowBarter.sol\":3672:3730  uint256[] memory amountsIn = new uint256[](_trades.length) */\n      swap1\n      swap2\n      pop\n        /* \"contracts/SycrowBarter.sol\":3740:3767  uint256[] memory amountsOut */\n      0x00\n      swap1\n        /* \"contracts/SycrowBarter.sol\":3770:3799  new uint256[](_trades.length) */\n      0xffffffffffffffff\n      dup2\n      gt\n      iszero\n      tag_320\n      jumpi\n      tag_320\n      tag_314\n      jump\t// in\n    tag_320:\n      mload(0x40)\n      swap1\n      dup1\n      dup3\n      mstore\n      dup1\n      0x20\n      mul\n      0x20\n      add\n      dup3\n      add\n      0x40\n      mstore\n      dup1\n      iszero\n      tag_321\n      jumpi\n      dup2\n      0x20\n      add\n      0x20\n      dup3\n      mul\n      dup1\n      calldatasize\n      dup4\n      calldatacopy\n      add\n      swap1\n      pop\n    tag_321:\n      pop\n        /* \"contracts/SycrowBarter.sol\":3740:3799  uint256[] memory amountsOut = new uint256[](_trades.length) */\n      swap1\n      pop\n        /* \"contracts/SycrowBarter.sol\":3815:3824  uint256 i */\n      0x00\n        /* \"contracts/SycrowBarter.sol\":3810:4013  for (uint256 i = 0; i < _trades.length; i++) {... */\n    tag_322:\n        /* \"contracts/SycrowBarter.sol\":3834:3841  _trades */\n      0x0a\n        /* \"contracts/SycrowBarter.sol\":3834:3848  _trades.length */\n      sload\n        /* \"contracts/SycrowBarter.sol\":3830:3848  i < _trades.length */\n      dup2\n      lt\n        /* \"contracts/SycrowBarter.sol\":3810:4013  for (uint256 i = 0; i < _trades.length; i++) {... */\n      iszero\n      tag_323\n      jumpi\n        /* \"contracts/SycrowBarter.sol\":3884:3891  _trades */\n      0x0a\n        /* \"contracts/SycrowBarter.sol\":3892:3893  i */\n      dup2\n        /* \"contracts/SycrowBarter.sol\":3884:3894  _trades[i] */\n      dup2\n      sload\n      dup2\n      lt\n      tag_326\n      jumpi\n      tag_326\n      tag_327\n      jump\t// in\n    tag_326:\n      0x00\n      swap2\n      dup3\n      mstore\n      0x20\n      swap1\n      swap2\n      keccak256\n      0x03\n      swap1\n      swap2\n      mul\n      add\n        /* \"contracts/SycrowBarter.sol\":3884:3902  _trades[i]._trader */\n      sload\n        /* \"contracts/SycrowBarter.sol\":3869:3881  addresses[i] */\n      dup5\n      mload\n      sub(shl(0xa0, 0x01), 0x01)\n        /* \"contracts/SycrowBarter.sol\":3884:3902  _trades[i]._trader */\n      swap1\n      swap2\n      and\n      swap1\n        /* \"contracts/SycrowBarter.sol\":3869:3878  addresses */\n      dup6\n      swap1\n        /* \"contracts/SycrowBarter.sol\":3879:3880  i */\n      dup4\n      swap1\n        /* \"contracts/SycrowBarter.sol\":3869:3881  addresses[i] */\n      dup2\n      lt\n      tag_330\n      jumpi\n      tag_330\n      tag_327\n      jump\t// in\n    tag_330:\n      0x20\n      mul\n      0x20\n      add\n      add\n        /* \"contracts/SycrowBarter.sol\":3869:3902  addresses[i] = _trades[i]._trader */\n      swap1\n      sub(shl(0xa0, 0x01), 0x01)\n      and\n      swap1\n      dup2\n      sub(shl(0xa0, 0x01), 0x01)\n      and\n      dup2\n      mstore\n      pop\n      pop\n        /* \"contracts/SycrowBarter.sol\":3931:3938  _trades */\n      0x0a\n        /* \"contracts/SycrowBarter.sol\":3939:3940  i */\n      dup2\n        /* \"contracts/SycrowBarter.sol\":3931:3941  _trades[i] */\n      dup2\n      sload\n      dup2\n      lt\n      tag_332\n      jumpi\n      tag_332\n      tag_327\n      jump\t// in\n    tag_332:\n      swap1\n      0x00\n      mstore\n      keccak256(0x00, 0x20)\n      swap1\n      0x03\n      mul\n      add\n        /* \"contracts/SycrowBarter.sol\":3931:3951  _trades[i]._amountIn */\n      0x01\n      add\n      sload\n        /* \"contracts/SycrowBarter.sol\":3916:3925  amountsIn */\n      dup4\n        /* \"contracts/SycrowBarter.sol\":3926:3927  i */\n      dup3\n        /* \"contracts/SycrowBarter.sol\":3916:3928  amountsIn[i] */\n      dup2\n      mload\n      dup2\n      lt\n      tag_335\n      jumpi\n      tag_335\n      tag_327\n      jump\t// in\n    tag_335:\n      0x20\n      mul\n      0x20\n      add\n      add\n        /* \"contracts/SycrowBarter.sol\":3916:3951  amountsIn[i] = _trades[i]._amountIn */\n      dup2\n      dup2\n      mstore\n      pop\n      pop\n        /* \"contracts/SycrowBarter.sol\":3981:3988  _trades */\n      0x0a\n        /* \"contracts/SycrowBarter.sol\":3989:3990  i */\n      dup2\n        /* \"contracts/SycrowBarter.sol\":3981:3991  _trades[i] */\n      dup2\n      sload\n      dup2\n      lt\n      tag_337\n      jumpi\n      tag_337\n      tag_327\n      jump\t// in\n    tag_337:\n      swap1\n      0x00\n      mstore\n      keccak256(0x00, 0x20)\n      swap1\n      0x03\n      mul\n      add\n        /* \"contracts/SycrowBarter.sol\":3981:4002  _trades[i]._amountOut */\n      0x02\n      add\n      sload\n        /* \"contracts/SycrowBarter.sol\":3965:3975  amountsOut */\n      dup3\n        /* \"contracts/SycrowBarter.sol\":3976:3977  i */\n      dup3\n        /* \"contracts/SycrowBarter.sol\":3965:3978  amountsOut[i] */\n      dup2\n      mload\n      dup2\n      lt\n      tag_340\n      jumpi\n      tag_340\n      tag_327\n      jump\t// in\n    tag_340:\n      0x20\n      swap1\n      dup2\n      mul\n      swap2\n      swap1\n      swap2\n      add\n      add\n        /* \"contracts/SycrowBarter.sol\":3965:4002  amountsOut[i] = _trades[i]._amountOut */\n      mstore\n        /* \"contracts/SycrowBarter.sol\":3850:3853  i++ */\n      dup1\n      tag_341\n      dup2\n      tag_342\n      jump\t// in\n    tag_341:\n      swap2\n      pop\n      pop\n        /* \"contracts/SycrowBarter.sol\":3810:4013  for (uint256 i = 0; i < _trades.length; i++) {... */\n      jump(tag_322)\n    tag_323:\n      pop\n        /* \"contracts/SycrowBarter.sol\":4031:4040  addresses */\n      swap2\n      swap5\n      pop\n        /* \"contracts/SycrowBarter.sol\":4042:4051  amountsIn */\n      swap3\n      pop\n        /* \"contracts/SycrowBarter.sol\":4053:4063  amountsOut */\n      swap1\n      pop\n        /* \"contracts/SycrowBarter.sol\":3385:4071  function getTrades()... */\n      swap1\n      swap2\n      swap3\n      jump\t// out\n        /* \"@openzeppelin/contracts/access/Ownable.sol\":1918:2116  function transferOwnership(address newOwner) public virtual onlyOwner {... */\n    tag_113:\n        /* \"@openzeppelin/contracts/access/Ownable.sol\":1082:1089  address */\n      0x00\n        /* \"@openzeppelin/contracts/access/Ownable.sol\":1108:1114  _owner */\n      sload\n      sub(shl(0xa0, 0x01), 0x01)\n      and\n        /* \"@openzeppelin/contracts/utils/Context.sol\":719:729  msg.sender */\n      caller\n        /* \"@openzeppelin/contracts/access/Ownable.sol\":1248:1271  owner() == _msgSender() */\n      eq\n        /* \"@openzeppelin/contracts/access/Ownable.sol\":1240:1308  require(owner() == _msgSender(), \"Ownable: caller is not the owner\") */\n      tag_346\n      jumpi\n      mload(0x40)\n      shl(0xe5, 0x461bcd)\n      dup2\n      mstore\n      0x04\n      add\n      tag_117\n      swap1\n      tag_194\n      jump\t// in\n    tag_346:\n      sub(shl(0xa0, 0x01), 0x01)\n        /* \"@openzeppelin/contracts/access/Ownable.sol\":2006:2028  newOwner != address(0) */\n      dup2\n      and\n        /* \"@openzeppelin/contracts/access/Ownable.sol\":1998:2071  require(newOwner != address(0), \"Ownable: new owner is the zero address\") */\n      tag_349\n      jumpi\n      mload(0x40)\n      shl(0xe5, 0x461bcd)\n      dup2\n      mstore\n        /* \"#utility.yul\":11184:11186   */\n      0x20\n        /* \"@openzeppelin/contracts/access/Ownable.sol\":1998:2071  require(newOwner != address(0), \"Ownable: new owner is the zero address\") */\n      0x04\n      dup3\n      add\n        /* \"#utility.yul\":11166:11187   */\n      mstore\n        /* \"#utility.yul\":11223:11225   */\n      0x26\n        /* \"#utility.yul\":11203:11221   */\n      0x24\n      dup3\n      add\n        /* \"#utility.yul\":11196:11226   */\n      mstore\n        /* \"#utility.yul\":11262:11296   */\n      0x4f776e61626c653a206e6577206f776e657220697320746865207a65726f2061\n        /* \"#utility.yul\":11242:11260   */\n      0x44\n      dup3\n      add\n        /* \"#utility.yul\":11235:11297   */\n      mstore\n      shl(0xd0, 0x646472657373)\n        /* \"#utility.yul\":11313:11331   */\n      0x64\n      dup3\n      add\n        /* \"#utility.yul\":11306:11342   */\n      mstore\n        /* \"#utility.yul\":11359:11378   */\n      0x84\n      add\n        /* \"@openzeppelin/contracts/access/Ownable.sol\":1998:2071  require(newOwner != address(0), \"Ownable: new owner is the zero address\") */\n      tag_117\n        /* \"#utility.yul\":10982:11384   */\n      jump\n        /* \"@openzeppelin/contracts/access/Ownable.sol\":1998:2071  require(newOwner != address(0), \"Ownable: new owner is the zero address\") */\n    tag_349:\n        /* \"@openzeppelin/contracts/access/Ownable.sol\":2081:2109  _transferOwnership(newOwner) */\n      tag_352\n        /* \"@openzeppelin/contracts/access/Ownable.sol\":2100:2108  newOwner */\n      dup2\n        /* \"@openzeppelin/contracts/access/Ownable.sol\":2081:2099  _transferOwnership */\n      tag_297\n        /* \"@openzeppelin/contracts/access/Ownable.sol\":2081:2109  _transferOwnership(newOwner) */\n      jump\t// in\n    tag_352:\n        /* \"@openzeppelin/contracts/access/Ownable.sol\":1918:2116  function transferOwnership(address newOwner) public virtual onlyOwner {... */\n      pop\n      jump\t// out\n        /* \"contracts/SycrowBarter.sol\":6566:7645  function _tradeTokenForEth(uint256 inAmount) internal {... */\n    tag_150:\n        /* \"contracts/SycrowBarter.sol\":6658:6679  _expectedTokenAddress */\n      sload(0x07)\n        /* \"contracts/SycrowBarter.sol\":6651:6702  IERC20(_expectedTokenAddress).balanceOf(msg.sender) */\n      mload(0x40)\n      shl(0xe0, 0x70a08231)\n      dup2\n      mstore\n        /* \"contracts/SycrowBarter.sol\":6691:6701  msg.sender */\n      caller\n        /* \"contracts/SycrowBarter.sol\":6651:6702  IERC20(_expectedTokenAddress).balanceOf(msg.sender) */\n      0x04\n      dup3\n      add\n        /* \"#utility.yul\":2609:2660   */\n      mstore\n        /* \"contracts/SycrowBarter.sol\":6706:6714  inAmount */\n      dup3\n      swap2\n      sub(shl(0xa0, 0x01), 0x01)\n        /* \"contracts/SycrowBarter.sol\":6658:6679  _expectedTokenAddress */\n      and\n      swap1\n        /* \"contracts/SycrowBarter.sol\":6651:6690  IERC20(_expectedTokenAddress).balanceOf */\n      0x70a08231\n      swap1\n        /* \"#utility.yul\":2582:2600   */\n      0x24\n      add\n        /* \"contracts/SycrowBarter.sol\":6651:6702  IERC20(_expectedTokenAddress).balanceOf(msg.sender) */\n      0x20\n      mload(0x40)\n      dup1\n      dup4\n      sub\n      dup2\n      dup7\n      gas\n      staticcall\n      iszero\n      dup1\n      iszero\n      tag_356\n      jumpi\n      returndatasize\n      0x00\n      dup1\n      returndatacopy\n      revert(0x00, returndatasize)\n    tag_356:\n      pop\n      pop\n      pop\n      pop\n      mload(0x40)\n      returndatasize\n      not(0x1f)\n      0x1f\n      dup3\n      add\n      and\n      dup3\n      add\n      dup1\n      0x40\n      mstore\n      pop\n      dup2\n      add\n      swap1\n      tag_357\n      swap2\n      swap1\n      tag_200\n      jump\t// in\n    tag_357:\n        /* \"contracts/SycrowBarter.sol\":6651:6714  IERC20(_expectedTokenAddress).balanceOf(msg.sender) >= inAmount */\n      lt\n      iszero\n        /* \"contracts/SycrowBarter.sol\":6630:6774  require(... */\n      tag_358\n      jumpi\n      mload(0x40)\n      shl(0xe5, 0x461bcd)\n      dup2\n      mstore\n      0x04\n      add\n      tag_117\n      swap1\n      tag_360\n      jump\t// in\n    tag_358:\n        /* \"contracts/SycrowBarter.sol\":6785:6802  uint256 outAmount */\n      0x00\n        /* \"contracts/SycrowBarter.sol\":6805:6832  getTradeOutAmount(inAmount) */\n      tag_361\n        /* \"contracts/SycrowBarter.sol\":6823:6831  inAmount */\n      dup3\n        /* \"contracts/SycrowBarter.sol\":6805:6822  getTradeOutAmount */\n      tag_102\n        /* \"contracts/SycrowBarter.sol\":6805:6832  getTradeOutAmount(inAmount) */\n      jump\t// in\n    tag_361:\n        /* \"contracts/SycrowBarter.sol\":6870:6874  WETH */\n      sload(0x05)\n        /* \"contracts/SycrowBarter.sol\":6907:6942  _wethErc20.balanceOf(address(this)) */\n      mload(0x40)\n      shl(0xe0, 0x70a08231)\n      dup2\n      mstore\n        /* \"contracts/SycrowBarter.sol\":6936:6940  this */\n      address\n        /* \"contracts/SycrowBarter.sol\":6907:6942  _wethErc20.balanceOf(address(this)) */\n      0x04\n      dup3\n      add\n        /* \"#utility.yul\":2609:2660   */\n      mstore\n        /* \"contracts/SycrowBarter.sol\":6785:6832  uint256 outAmount = getTradeOutAmount(inAmount) */\n      swap2\n      swap3\n      pop\n        /* \"contracts/SycrowBarter.sol\":6870:6874  WETH */\n      0x0100\n      swap1\n      div\n      sub(shl(0xa0, 0x01), 0x01)\n      and\n      swap1\n        /* \"contracts/SycrowBarter.sol\":6785:6832  uint256 outAmount = getTradeOutAmount(inAmount) */\n      dup3\n      swap1\n        /* \"contracts/SycrowBarter.sol\":6870:6874  WETH */\n      dup3\n      swap1\n        /* \"contracts/SycrowBarter.sol\":6907:6927  _wethErc20.balanceOf */\n      0x70a08231\n      swap1\n        /* \"#utility.yul\":2582:2600   */\n      0x24\n      add\n        /* \"contracts/SycrowBarter.sol\":6907:6942  _wethErc20.balanceOf(address(this)) */\n      0x20\n      mload(0x40)\n      dup1\n      dup4\n      sub\n      dup2\n      dup7\n      gas\n      staticcall\n      iszero\n      dup1\n      iszero\n      tag_364\n      jumpi\n      returndatasize\n      0x00\n      dup1\n      returndatacopy\n      revert(0x00, returndatasize)\n    tag_364:\n      pop\n      pop\n      pop\n      pop\n      mload(0x40)\n      returndatasize\n      not(0x1f)\n      0x1f\n      dup3\n      add\n      and\n      dup3\n      add\n      dup1\n      0x40\n      mstore\n      pop\n      dup2\n      add\n      swap1\n      tag_365\n      swap2\n      swap1\n      tag_200\n      jump\t// in\n    tag_365:\n        /* \"contracts/SycrowBarter.sol\":6907:6955  _wethErc20.balanceOf(address(this)) >= outAmount */\n      lt\n      iszero\n        /* \"contracts/SycrowBarter.sol\":6886:7024  require(... */\n      tag_366\n      jumpi\n      mload(0x40)\n      shl(0xe5, 0x461bcd)\n      dup2\n      mstore\n      0x04\n      add\n      tag_117\n      swap1\n      tag_368\n      jump\t// in\n    tag_366:\n        /* \"contracts/SycrowBarter.sol\":7080:7101  _expectedTokenAddress */\n      sload(0x07)\n        /* \"contracts/SycrowBarter.sol\":7035:7184  TransferHelper.safeTransferFrom(... */\n      tag_369\n      swap1\n      sub(shl(0xa0, 0x01), 0x01)\n        /* \"contracts/SycrowBarter.sol\":7080:7101  _expectedTokenAddress */\n      and\n        /* \"contracts/SycrowBarter.sol\":7115:7125  msg.sender */\n      caller\n        /* \"contracts/SycrowBarter.sol\":7147:7151  this */\n      address\n        /* \"contracts/SycrowBarter.sol\":7166:7174  inAmount */\n      dup7\n        /* \"contracts/SycrowBarter.sol\":7035:7066  TransferHelper.safeTransferFrom */\n      tag_370\n        /* \"contracts/SycrowBarter.sol\":7035:7184  TransferHelper.safeTransferFrom(... */\n      jump\t// in\n    tag_369:\n        /* \"contracts/SycrowBarter.sol\":7201:7205  WETH */\n      sload(0x05)\n        /* \"contracts/SycrowBarter.sol\":7195:7226  IWETH(WETH).withdraw(outAmount) */\n      mload(0x40)\n      shl(0xe0, 0x2e1a7d4d)\n      dup2\n      mstore\n      0x04\n      dup2\n      add\n        /* \"#utility.yul\":345:370   */\n      dup5\n      swap1\n      mstore\n        /* \"contracts/SycrowBarter.sol\":7201:7205  WETH */\n      0x0100\n      swap1\n      swap2\n      div\n      sub(shl(0xa0, 0x01), 0x01)\n      and\n      swap1\n        /* \"contracts/SycrowBarter.sol\":7195:7215  IWETH(WETH).withdraw */\n      0x2e1a7d4d\n      swap1\n        /* \"#utility.yul\":318:336   */\n      0x24\n      add\n        /* \"contracts/SycrowBarter.sol\":7195:7226  IWETH(WETH).withdraw(outAmount) */\n      0x00\n      mload(0x40)\n      dup1\n      dup4\n      sub\n      dup2\n      0x00\n      dup8\n      dup1\n      extcodesize\n      iszero\n      dup1\n      iszero\n      tag_372\n      jumpi\n      0x00\n      dup1\n      revert\n    tag_372:\n      pop\n      gas\n      call\n      iszero\n      dup1\n      iszero\n      tag_374\n      jumpi\n      returndatasize\n      0x00\n      dup1\n      returndatacopy\n      revert(0x00, returndatasize)\n    tag_374:\n      pop\n      pop\n      pop\n      pop\n        /* \"contracts/SycrowBarter.sol\":7237:7290  TransferHelper.safeTransferETH(msg.sender, outAmount) */\n      tag_375\n        /* \"contracts/SycrowBarter.sol\":7268:7278  msg.sender */\n      caller\n        /* \"contracts/SycrowBarter.sol\":7280:7289  outAmount */\n      dup4\n        /* \"contracts/SycrowBarter.sol\":7237:7267  TransferHelper.safeTransferETH */\n      tag_207\n        /* \"contracts/SycrowBarter.sol\":7237:7290  TransferHelper.safeTransferETH(msg.sender, outAmount) */\n      jump\t// in\n    tag_375:\n        /* \"contracts/SycrowBarter.sol\":7314:7357  BaterTrade(msg.sender, inAmount, outAmount) */\n      0x40\n      dup1\n      mload\n      0x60\n      dup2\n      add\n      dup3\n      mstore\n        /* \"contracts/SycrowBarter.sol\":7325:7335  msg.sender */\n      caller\n        /* \"contracts/SycrowBarter.sol\":7314:7357  BaterTrade(msg.sender, inAmount, outAmount) */\n      dup2\n      mstore\n      0x20\n      dup2\n      add\n      dup6\n      dup2\n      mstore\n      swap2\n      dup2\n      add\n      dup5\n      dup2\n      mstore\n        /* \"contracts/SycrowBarter.sol\":7301:7308  _trades */\n      0x0a\n        /* \"contracts/SycrowBarter.sol\":7301:7358  _trades.push(BaterTrade(msg.sender, inAmount, outAmount)) */\n      dup1\n      sload\n      0x01\n      dup2\n      add\n      dup3\n      sstore\n      0x00\n      swap2\n      swap1\n      swap2\n      mstore\n      swap2\n      mload\n      0xc65a7bb8d6351c1cf70c95a316cc6a92839c986682d98bc35f958f4883f9d2a8\n      0x03\n      swap1\n      swap4\n      mul\n      swap3\n      dup4\n      add\n      dup1\n      sload\n      not(sub(shl(0xa0, 0x01), 0x01))\n      and\n      sub(shl(0xa0, 0x01), 0x01)\n      swap1\n      swap3\n      and\n      swap2\n      swap1\n      swap2\n      or\n      swap1\n      sstore\n      swap2\n      mload\n      0xc65a7bb8d6351c1cf70c95a316cc6a92839c986682d98bc35f958f4883f9d2a9\n      dup3\n      add\n      sstore\n      swap1\n      mload\n      0xc65a7bb8d6351c1cf70c95a316cc6a92839c986682d98bc35f958f4883f9d2aa\n      swap1\n      swap2\n      add\n      sstore\n      0x02\n        /* \"contracts/SycrowBarter.sol\":7388:7404  totalTradeAmount */\n      sload\n        /* \"contracts/SycrowBarter.sol\":7388:7415  totalTradeAmount + inAmount */\n      tag_377\n      swap1\n        /* \"contracts/SycrowBarter.sol\":7314:7357  BaterTrade(msg.sender, inAmount, outAmount) */\n      dup5\n      swap1\n        /* \"contracts/SycrowBarter.sol\":7388:7415  totalTradeAmount + inAmount */\n      tag_378\n      jump\t// in\n    tag_377:\n        /* \"contracts/SycrowBarter.sol\":7369:7385  totalTradeAmount */\n      0x02\n        /* \"contracts/SycrowBarter.sol\":7369:7415  totalTradeAmount = totalTradeAmount + inAmount */\n      sstore\n        /* \"contracts/SycrowBarter.sol\":7501:7638  sycrFactory.notifyTradeByBarter(... */\n      mload(0x40)\n      shl(0xe0, 0xf52701b7)\n      dup2\n      mstore\n        /* \"contracts/SycrowBarter.sol\":7482:7489  factory */\n      immutable(\"0x9d6b7fbd0ded42ab14e47300e428df3f38e4fbb3a7f790d898a87bff4f86606b\")\n      swap1\n      sub(shl(0xa0, 0x01), 0x01)\n        /* \"contracts/SycrowBarter.sol\":7501:7532  sycrFactory.notifyTradeByBarter */\n      dup3\n      and\n      swap1\n      0xf52701b7\n      swap1\n        /* \"contracts/SycrowBarter.sol\":7501:7638  sycrFactory.notifyTradeByBarter(... */\n      tag_379\n      swap1\n        /* \"contracts/SycrowBarter.sol\":7554:7558  this */\n      address\n      swap1\n        /* \"contracts/SycrowBarter.sol\":7573:7583  msg.sender */\n      caller\n      swap1\n        /* \"contracts/SycrowBarter.sol\":7597:7605  inAmount */\n      dup10\n      swap1\n        /* \"contracts/SycrowBarter.sol\":7619:7628  outAmount */\n      dup10\n      swap1\n        /* \"contracts/SycrowBarter.sol\":7501:7638  sycrFactory.notifyTradeByBarter(... */\n      0x04\n      add\n      tag_234\n      jump\t// in\n    tag_379:\n      0x00\n      mload(0x40)\n      dup1\n      dup4\n      sub\n      dup2\n      0x00\n      dup8\n      dup1\n      extcodesize\n      iszero\n      dup1\n      iszero\n      tag_380\n      jumpi\n      0x00\n      dup1\n      revert\n    tag_380:\n      pop\n      gas\n      call\n      iszero\n      dup1\n      iszero\n      tag_382\n      jumpi\n      returndatasize\n      0x00\n      dup1\n      returndatacopy\n      revert(0x00, returndatasize)\n    tag_382:\n      pop\n      pop\n      pop\n      pop\n        /* \"contracts/SycrowBarter.sol\":6620:7645  {... */\n      pop\n      pop\n      pop\n        /* \"contracts/SycrowBarter.sol\":6566:7645  function _tradeTokenForEth(uint256 inAmount) internal {... */\n      pop\n      jump\t// out\n        /* \"contracts/SycrowBarter.sol\":5462:6560  function _tradeTokenForToken(uint256 inAmount) internal {... */\n    tag_179:\n        /* \"contracts/SycrowBarter.sol\":5556:5577  _expectedTokenAddress */\n      sload(0x07)\n        /* \"contracts/SycrowBarter.sol\":5549:5600  IERC20(_expectedTokenAddress).balanceOf(msg.sender) */\n      mload(0x40)\n      shl(0xe0, 0x70a08231)\n      dup2\n      mstore\n        /* \"contracts/SycrowBarter.sol\":5589:5599  msg.sender */\n      caller\n        /* \"contracts/SycrowBarter.sol\":5549:5600  IERC20(_expectedTokenAddress).balanceOf(msg.sender) */\n      0x04\n      dup3\n      add\n        /* \"#utility.yul\":2609:2660   */\n      mstore\n        /* \"contracts/SycrowBarter.sol\":5604:5612  inAmount */\n      dup3\n      swap2\n      sub(shl(0xa0, 0x01), 0x01)\n        /* \"contracts/SycrowBarter.sol\":5556:5577  _expectedTokenAddress */\n      and\n      swap1\n        /* \"contracts/SycrowBarter.sol\":5549:5588  IERC20(_expectedTokenAddress).balanceOf */\n      0x70a08231\n      swap1\n        /* \"#utility.yul\":2582:2600   */\n      0x24\n      add\n        /* \"contracts/SycrowBarter.sol\":5549:5600  IERC20(_expectedTokenAddress).balanceOf(msg.sender) */\n      0x20\n      mload(0x40)\n      dup1\n      dup4\n      sub\n      dup2\n      dup7\n      gas\n      staticcall\n      iszero\n      dup1\n      iszero\n      tag_386\n      jumpi\n      returndatasize\n      0x00\n      dup1\n      returndatacopy\n      revert(0x00, returndatasize)\n    tag_386:\n      pop\n      pop\n      pop\n      pop\n      mload(0x40)\n      returndatasize\n      not(0x1f)\n      0x1f\n      dup3\n      add\n      and\n      dup3\n      add\n      dup1\n      0x40\n      mstore\n      pop\n      dup2\n      add\n      swap1\n      tag_387\n      swap2\n      swap1\n      tag_200\n      jump\t// in\n    tag_387:\n        /* \"contracts/SycrowBarter.sol\":5549:5612  IERC20(_expectedTokenAddress).balanceOf(msg.sender) >= inAmount */\n      lt\n      iszero\n        /* \"contracts/SycrowBarter.sol\":5528:5672  require(... */\n      tag_388\n      jumpi\n      mload(0x40)\n      shl(0xe5, 0x461bcd)\n      dup2\n      mstore\n      0x04\n      add\n      tag_117\n      swap1\n      tag_360\n      jump\t// in\n    tag_388:\n        /* \"contracts/SycrowBarter.sol\":5683:5700  uint256 outAmount */\n      0x00\n        /* \"contracts/SycrowBarter.sol\":5703:5730  getTradeOutAmount(inAmount) */\n      tag_390\n        /* \"contracts/SycrowBarter.sol\":5721:5729  inAmount */\n      dup3\n        /* \"contracts/SycrowBarter.sol\":5703:5720  getTradeOutAmount */\n      tag_102\n        /* \"contracts/SycrowBarter.sol\":5703:5730  getTradeOutAmount(inAmount) */\n      jump\t// in\n    tag_390:\n        /* \"contracts/SycrowBarter.sol\":5769:5791  _depositedTokenAddress */\n      sload(0x06)\n        /* \"contracts/SycrowBarter.sol\":5762:5817  IERC20(_depositedTokenAddress).balanceOf(address(this)) */\n      mload(0x40)\n      shl(0xe0, 0x70a08231)\n      dup2\n      mstore\n        /* \"contracts/SycrowBarter.sol\":5811:5815  this */\n      address\n        /* \"contracts/SycrowBarter.sol\":5762:5817  IERC20(_depositedTokenAddress).balanceOf(address(this)) */\n      0x04\n      dup3\n      add\n        /* \"#utility.yul\":2609:2660   */\n      mstore\n        /* \"contracts/SycrowBarter.sol\":5683:5730  uint256 outAmount = getTradeOutAmount(inAmount) */\n      swap2\n      swap3\n      pop\n      dup3\n      swap2\n      sub(shl(0xa0, 0x01), 0x01)\n        /* \"contracts/SycrowBarter.sol\":5769:5791  _depositedTokenAddress */\n      swap1\n      swap2\n      and\n      swap1\n        /* \"contracts/SycrowBarter.sol\":5762:5802  IERC20(_depositedTokenAddress).balanceOf */\n      0x70a08231\n      swap1\n        /* \"#utility.yul\":2582:2600   */\n      0x24\n      add\n        /* \"contracts/SycrowBarter.sol\":5762:5817  IERC20(_depositedTokenAddress).balanceOf(address(this)) */\n      0x20\n      mload(0x40)\n      dup1\n      dup4\n      sub\n      dup2\n      dup7\n      gas\n      staticcall\n      iszero\n      dup1\n      iszero\n      tag_393\n      jumpi\n      returndatasize\n      0x00\n      dup1\n      returndatacopy\n      revert(0x00, returndatasize)\n    tag_393:\n      pop\n      pop\n      pop\n      pop\n      mload(0x40)\n      returndatasize\n      not(0x1f)\n      0x1f\n      dup3\n      add\n      and\n      dup3\n      add\n      dup1\n      0x40\n      mstore\n      pop\n      dup2\n      add\n      swap1\n      tag_394\n      swap2\n      swap1\n      tag_200\n      jump\t// in\n    tag_394:\n        /* \"contracts/SycrowBarter.sol\":5762:5846  IERC20(_depositedTokenAddress).balanceOf(address(this)) >=... */\n      lt\n      iszero\n        /* \"contracts/SycrowBarter.sol\":5741:5915  require(... */\n      tag_395\n      jumpi\n      mload(0x40)\n      shl(0xe5, 0x461bcd)\n      dup2\n      mstore\n      0x04\n      add\n      tag_117\n      swap1\n      tag_368\n      jump\t// in\n    tag_395:\n        /* \"contracts/SycrowBarter.sol\":5971:5992  _expectedTokenAddress */\n      sload(0x07)\n        /* \"contracts/SycrowBarter.sol\":5926:6075  TransferHelper.safeTransferFrom(... */\n      tag_397\n      swap1\n      sub(shl(0xa0, 0x01), 0x01)\n        /* \"contracts/SycrowBarter.sol\":5971:5992  _expectedTokenAddress */\n      and\n        /* \"contracts/SycrowBarter.sol\":6006:6016  msg.sender */\n      caller\n        /* \"contracts/SycrowBarter.sol\":6038:6042  this */\n      address\n        /* \"contracts/SycrowBarter.sol\":6057:6065  inAmount */\n      dup6\n        /* \"contracts/SycrowBarter.sol\":5926:5957  TransferHelper.safeTransferFrom */\n      tag_370\n        /* \"contracts/SycrowBarter.sol\":5926:6075  TransferHelper.safeTransferFrom(... */\n      jump\t// in\n    tag_397:\n        /* \"contracts/SycrowBarter.sol\":6126:6148  _depositedTokenAddress */\n      sload(0x06)\n        /* \"contracts/SycrowBarter.sol\":6085:6205  TransferHelper.safeTransfer(... */\n      tag_398\n      swap1\n      sub(shl(0xa0, 0x01), 0x01)\n        /* \"contracts/SycrowBarter.sol\":6126:6148  _depositedTokenAddress */\n      and\n        /* \"contracts/SycrowBarter.sol\":6162:6172  msg.sender */\n      caller\n        /* \"contracts/SycrowBarter.sol\":6186:6195  outAmount */\n      dup4\n        /* \"contracts/SycrowBarter.sol\":6085:6112  TransferHelper.safeTransfer */\n      tag_214\n        /* \"contracts/SycrowBarter.sol\":6085:6205  TransferHelper.safeTransfer(... */\n      jump\t// in\n    tag_398:\n        /* \"contracts/SycrowBarter.sol\":6229:6272  BaterTrade(msg.sender, inAmount, outAmount) */\n      0x40\n      dup1\n      mload\n      0x60\n      dup2\n      add\n      dup3\n      mstore\n        /* \"contracts/SycrowBarter.sol\":6240:6250  msg.sender */\n      caller\n        /* \"contracts/SycrowBarter.sol\":6229:6272  BaterTrade(msg.sender, inAmount, outAmount) */\n      dup2\n      mstore\n      0x20\n      dup2\n      add\n      dup5\n      dup2\n      mstore\n      swap2\n      dup2\n      add\n      dup4\n      dup2\n      mstore\n        /* \"contracts/SycrowBarter.sol\":6216:6223  _trades */\n      0x0a\n        /* \"contracts/SycrowBarter.sol\":6216:6273  _trades.push(BaterTrade(msg.sender, inAmount, outAmount)) */\n      dup1\n      sload\n      0x01\n      dup2\n      add\n      dup3\n      sstore\n      0x00\n      swap2\n      swap1\n      swap2\n      mstore\n      swap2\n      mload\n      0xc65a7bb8d6351c1cf70c95a316cc6a92839c986682d98bc35f958f4883f9d2a8\n      0x03\n      swap1\n      swap4\n      mul\n      swap3\n      dup4\n      add\n      dup1\n      sload\n      not(sub(shl(0xa0, 0x01), 0x01))\n      and\n      sub(shl(0xa0, 0x01), 0x01)\n      swap1\n      swap3\n      and\n      swap2\n      swap1\n      swap2\n      or\n      swap1\n      sstore\n      swap2\n      mload\n      0xc65a7bb8d6351c1cf70c95a316cc6a92839c986682d98bc35f958f4883f9d2a9\n      dup3\n      add\n      sstore\n      swap1\n      mload\n      0xc65a7bb8d6351c1cf70c95a316cc6a92839c986682d98bc35f958f4883f9d2aa\n      swap1\n      swap2\n      add\n      sstore\n      0x02\n        /* \"contracts/SycrowBarter.sol\":6303:6319  totalTradeAmount */\n      sload\n        /* \"contracts/SycrowBarter.sol\":6303:6330  totalTradeAmount + inAmount */\n      tag_400\n      swap1\n        /* \"contracts/SycrowBarter.sol\":6229:6272  BaterTrade(msg.sender, inAmount, outAmount) */\n      dup4\n      swap1\n        /* \"contracts/SycrowBarter.sol\":6303:6330  totalTradeAmount + inAmount */\n      tag_378\n      jump\t// in\n    tag_400:\n        /* \"contracts/SycrowBarter.sol\":6284:6300  totalTradeAmount */\n      0x02\n        /* \"contracts/SycrowBarter.sol\":6284:6330  totalTradeAmount = totalTradeAmount + inAmount */\n      sstore\n        /* \"contracts/SycrowBarter.sol\":6416:6553  sycrFactory.notifyTradeByBarter(... */\n      mload(0x40)\n      shl(0xe0, 0xf52701b7)\n      dup2\n      mstore\n        /* \"contracts/SycrowBarter.sol\":6397:6404  factory */\n      immutable(\"0x9d6b7fbd0ded42ab14e47300e428df3f38e4fbb3a7f790d898a87bff4f86606b\")\n      swap1\n      sub(shl(0xa0, 0x01), 0x01)\n        /* \"contracts/SycrowBarter.sol\":6416:6447  sycrFactory.notifyTradeByBarter */\n      dup3\n      and\n      swap1\n      0xf52701b7\n      swap1\n        /* \"contracts/SycrowBarter.sol\":6416:6553  sycrFactory.notifyTradeByBarter(... */\n      tag_401\n      swap1\n        /* \"contracts/SycrowBarter.sol\":6469:6473  this */\n      address\n      swap1\n        /* \"contracts/SycrowBarter.sol\":6488:6498  msg.sender */\n      caller\n      swap1\n        /* \"contracts/SycrowBarter.sol\":6512:6520  inAmount */\n      dup9\n      swap1\n        /* \"contracts/SycrowBarter.sol\":6534:6543  outAmount */\n      dup9\n      swap1\n        /* \"contracts/SycrowBarter.sol\":6416:6553  sycrFactory.notifyTradeByBarter(... */\n      0x04\n      add\n      tag_234\n      jump\t// in\n    tag_401:\n      0x00\n      mload(0x40)\n      dup1\n      dup4\n      sub\n      dup2\n      0x00\n      dup8\n      dup1\n      extcodesize\n      iszero\n      dup1\n      iszero\n      tag_402\n      jumpi\n      0x00\n      dup1\n      revert\n    tag_402:\n      pop\n      gas\n      call\n      iszero\n      dup1\n      iszero\n      tag_404\n      jumpi\n      returndatasize\n      0x00\n      dup1\n      returndatacopy\n      revert(0x00, returndatasize)\n    tag_404:\n      pop\n      pop\n      pop\n      pop\n        /* \"contracts/SycrowBarter.sol\":5518:6560  {... */\n      pop\n      pop\n        /* \"contracts/SycrowBarter.sol\":5462:6560  function _tradeTokenForToken(uint256 inAmount) internal {... */\n      pop\n      jump\t// out\n        /* \"contracts/libraries/TransferHelper.sol\":1333:1525  function safeTransferETH(address to, uint value) internal {... */\n    tag_207:\n        /* \"contracts/libraries/TransferHelper.sol\":1440:1452  new bytes(0) */\n      0x40\n      dup1\n      mload\n        /* \"contracts/libraries/TransferHelper.sol\":1402:1414  bool success */\n      0x00\n        /* \"contracts/libraries/TransferHelper.sol\":1440:1452  new bytes(0) */\n      dup1\n      dup3\n      mstore\n      0x20\n      dup3\n      add\n      swap1\n      swap3\n      mstore\n      sub(shl(0xa0, 0x01), 0x01)\n        /* \"contracts/libraries/TransferHelper.sol\":1419:1426  to.call */\n      dup5\n      and\n      swap1\n        /* \"contracts/libraries/TransferHelper.sol\":1433:1438  value */\n      dup4\n      swap1\n        /* \"contracts/libraries/TransferHelper.sol\":1419:1453  to.call{value:value}(new bytes(0)) */\n      mload(0x40)\n      tag_410\n      swap2\n      swap1\n      tag_411\n      jump\t// in\n    tag_410:\n      0x00\n      mload(0x40)\n      dup1\n      dup4\n      sub\n      dup2\n      dup6\n      dup8\n      gas\n      call\n      swap3\n      pop\n      pop\n      pop\n      returndatasize\n      dup1\n      0x00\n      dup2\n      eq\n      tag_414\n      jumpi\n      mload(0x40)\n      swap2\n      pop\n      and(add(returndatasize, 0x3f), not(0x1f))\n      dup3\n      add\n      0x40\n      mstore\n      returndatasize\n      dup3\n      mstore\n      returndatasize\n      0x00\n      0x20\n      dup5\n      add\n      returndatacopy\n      jump(tag_413)\n    tag_414:\n      0x60\n      swap2\n      pop\n    tag_413:\n      pop\n        /* \"contracts/libraries/TransferHelper.sol\":1401:1453  (bool success,) = to.call{value:value}(new bytes(0)) */\n      pop\n      swap1\n      pop\n        /* \"contracts/libraries/TransferHelper.sol\":1471:1478  success */\n      dup1\n        /* \"contracts/libraries/TransferHelper.sol\":1463:1518  require(success, 'TransferHelper: ETH_TRANSFER_FAILED') */\n      tag_415\n      jumpi\n      mload(0x40)\n      shl(0xe5, 0x461bcd)\n      dup2\n      mstore\n        /* \"#utility.yul\":12970:12972   */\n      0x20\n        /* \"contracts/libraries/TransferHelper.sol\":1463:1518  require(success, 'TransferHelper: ETH_TRANSFER_FAILED') */\n      0x04\n      dup3\n      add\n        /* \"#utility.yul\":12952:12973   */\n      mstore\n        /* \"#utility.yul\":13009:13011   */\n      0x23\n        /* \"#utility.yul\":12989:13007   */\n      0x24\n      dup3\n      add\n        /* \"#utility.yul\":12982:13012   */\n      mstore\n        /* \"#utility.yul\":13048:13082   */\n      0x5472616e7366657248656c7065723a204554485f5452414e534645525f464149\n        /* \"#utility.yul\":13028:13046   */\n      0x44\n      dup3\n      add\n        /* \"#utility.yul\":13021:13083   */\n      mstore\n      shl(0xea, 0x131151)\n        /* \"#utility.yul\":13099:13117   */\n      0x64\n      dup3\n      add\n        /* \"#utility.yul\":13092:13125   */\n      mstore\n        /* \"#utility.yul\":13142:13161   */\n      0x84\n      add\n        /* \"contracts/libraries/TransferHelper.sol\":1463:1518  require(success, 'TransferHelper: ETH_TRANSFER_FAILED') */\n      tag_117\n        /* \"#utility.yul\":12768:13167   */\n      jump\n        /* \"contracts/libraries/TransferHelper.sol\":1463:1518  require(success, 'TransferHelper: ETH_TRANSFER_FAILED') */\n    tag_415:\n        /* \"contracts/libraries/TransferHelper.sol\":1391:1525  {... */\n      pop\n        /* \"contracts/libraries/TransferHelper.sol\":1333:1525  function safeTransferETH(address to, uint value) internal {... */\n      pop\n      pop\n      jump\t// out\n        /* \"contracts/libraries/TransferHelper.sol\":566:923  function safeTransfer(address token, address to, uint value) internal {... */\n    tag_214:\n        /* \"contracts/libraries/TransferHelper.sol\":759:804  abi.encodeWithSelector(0xa9059cbb, to, value) */\n      0x40\n      dup1\n      mload\n      sub(shl(0xa0, 0x01), 0x01)\n        /* \"#utility.yul\":13364:13396   */\n      dup5\n      dup2\n      and\n        /* \"contracts/libraries/TransferHelper.sol\":759:804  abi.encodeWithSelector(0xa9059cbb, to, value) */\n      0x24\n      dup4\n      add\n        /* \"#utility.yul\":13346:13397   */\n      mstore\n        /* \"#utility.yul\":13413:13431   */\n      0x44\n      dup1\n      dup4\n      add\n        /* \"#utility.yul\":13406:13440   */\n      dup6\n      swap1\n      mstore\n        /* \"contracts/libraries/TransferHelper.sol\":759:804  abi.encodeWithSelector(0xa9059cbb, to, value) */\n      dup4\n      mload\n      dup1\n      dup5\n      sub\n      swap1\n      swap2\n      add\n      dup2\n      mstore\n        /* \"#utility.yul\":13319:13337   */\n      0x64\n      swap1\n      swap3\n      add\n        /* \"contracts/libraries/TransferHelper.sol\":759:804  abi.encodeWithSelector(0xa9059cbb, to, value) */\n      dup4\n      mstore\n      0x20\n      dup3\n      add\n      dup1\n      mload\n      sub(shl(0xe0, 0x01), 0x01)\n      and\n      shl(0xe0, 0xa9059cbb)\n      or\n      swap1\n      mstore\n        /* \"contracts/libraries/TransferHelper.sol\":748:805  token.call(abi.encodeWithSelector(0xa9059cbb, to, value)) */\n      swap2\n      mload\n      0x00\n      swap3\n      dup4\n      swap3\n        /* \"contracts/libraries/TransferHelper.sol\":748:758  token.call */\n      swap1\n      dup8\n      and\n      swap2\n        /* \"contracts/libraries/TransferHelper.sol\":748:805  token.call(abi.encodeWithSelector(0xa9059cbb, to, value)) */\n      tag_421\n      swap2\n        /* \"contracts/libraries/TransferHelper.sol\":759:804  abi.encodeWithSelector(0xa9059cbb, to, value) */\n      swap1\n        /* \"contracts/libraries/TransferHelper.sol\":748:805  token.call(abi.encodeWithSelector(0xa9059cbb, to, value)) */\n      tag_411\n      jump\t// in\n    tag_421:\n      0x00\n      mload(0x40)\n      dup1\n      dup4\n      sub\n      dup2\n      0x00\n      dup7\n      gas\n      call\n      swap2\n      pop\n      pop\n      returndatasize\n      dup1\n      0x00\n      dup2\n      eq\n      tag_424\n      jumpi\n      mload(0x40)\n      swap2\n      pop\n      and(add(returndatasize, 0x3f), not(0x1f))\n      dup3\n      add\n      0x40\n      mstore\n      returndatasize\n      dup3\n      mstore\n      returndatasize\n      0x00\n      0x20\n      dup5\n      add\n      returndatacopy\n      jump(tag_423)\n    tag_424:\n      0x60\n      swap2\n      pop\n    tag_423:\n      pop\n        /* \"contracts/libraries/TransferHelper.sol\":712:805  (bool success, bytes memory data) = token.call(abi.encodeWithSelector(0xa9059cbb, to, value)) */\n      swap2\n      pop\n      swap2\n      pop\n        /* \"contracts/libraries/TransferHelper.sol\":823:830  success */\n      dup2\n        /* \"contracts/libraries/TransferHelper.sol\":823:880  success && (data.length == 0 || abi.decode(data, (bool))) */\n      dup1\n      iszero\n      tag_427\n      jumpi\n      pop\n        /* \"contracts/libraries/TransferHelper.sol\":835:846  data.length */\n      dup1\n      mload\n        /* \"contracts/libraries/TransferHelper.sol\":835:851  data.length == 0 */\n      iszero\n      dup1\n        /* \"contracts/libraries/TransferHelper.sol\":835:879  data.length == 0 || abi.decode(data, (bool)) */\n      tag_427\n      jumpi\n      pop\n        /* \"contracts/libraries/TransferHelper.sol\":866:870  data */\n      dup1\n        /* \"contracts/libraries/TransferHelper.sol\":855:879  abi.decode(data, (bool)) */\n      dup1\n      0x20\n      add\n      swap1\n      mload\n      dup2\n      add\n      swap1\n      tag_427\n      swap2\n      swap1\n      tag_127\n      jump\t// in\n    tag_427:\n        /* \"contracts/libraries/TransferHelper.sol\":815:916  require(success && (data.length == 0 || abi.decode(data, (bool))), 'TransferHelper: TRANSFER_FAILED') */\n      tag_428\n      jumpi\n      mload(0x40)\n      shl(0xe5, 0x461bcd)\n      dup2\n      mstore\n        /* \"#utility.yul\":13653:13655   */\n      0x20\n        /* \"contracts/libraries/TransferHelper.sol\":815:916  require(success && (data.length == 0 || abi.decode(data, (bool))), 'TransferHelper: TRANSFER_FAILED') */\n      0x04\n      dup3\n      add\n        /* \"#utility.yul\":13635:13656   */\n      mstore\n        /* \"#utility.yul\":13692:13694   */\n      0x1f\n        /* \"#utility.yul\":13672:13690   */\n      0x24\n      dup3\n      add\n        /* \"#utility.yul\":13665:13695   */\n      mstore\n        /* \"#utility.yul\":13731:13764   */\n      0x5472616e7366657248656c7065723a205452414e534645525f4641494c454400\n        /* \"#utility.yul\":13711:13729   */\n      0x44\n      dup3\n      add\n        /* \"#utility.yul\":13704:13765   */\n      mstore\n        /* \"#utility.yul\":13782:13800   */\n      0x64\n      add\n        /* \"contracts/libraries/TransferHelper.sol\":815:916  require(success && (data.length == 0 || abi.decode(data, (bool))), 'TransferHelper: TRANSFER_FAILED') */\n      tag_117\n        /* \"#utility.yul\":13451:13806   */\n      jump\n        /* \"contracts/libraries/TransferHelper.sol\":815:916  require(success && (data.length == 0 || abi.decode(data, (bool))), 'TransferHelper: TRANSFER_FAILED') */\n    tag_428:\n        /* \"contracts/libraries/TransferHelper.sol\":636:923  {... */\n      pop\n      pop\n        /* \"contracts/libraries/TransferHelper.sol\":566:923  function safeTransfer(address token, address to, uint value) internal {... */\n      pop\n      pop\n      pop\n      jump\t// out\n        /* \"contracts/SycrowBarter.sol\":7651:8562  function _tradeEthForToken(uint256 inAmount) internal {... */\n    tag_270:\n        /* \"contracts/SycrowBarter.sol\":7735:7744  msg.value */\n      callvalue\n        /* \"contracts/SycrowBarter.sol\":7723:7731  inAmount */\n      dup2\n        /* \"contracts/SycrowBarter.sol\":7723:7744  inAmount == msg.value */\n      eq\n        /* \"contracts/SycrowBarter.sol\":7715:7786  require(inAmount == msg.value, \"SyCrowBarter: MULTI_TRADE_NOT_ENABLED\") */\n      tag_432\n      jumpi\n      mload(0x40)\n      shl(0xe5, 0x461bcd)\n      dup2\n      mstore\n        /* \"#utility.yul\":14013:14015   */\n      0x20\n        /* \"contracts/SycrowBarter.sol\":7715:7786  require(inAmount == msg.value, \"SyCrowBarter: MULTI_TRADE_NOT_ENABLED\") */\n      0x04\n      dup3\n      add\n        /* \"#utility.yul\":13995:14016   */\n      mstore\n        /* \"#utility.yul\":14052:14054   */\n      0x25\n        /* \"#utility.yul\":14032:14050   */\n      0x24\n      dup3\n      add\n        /* \"#utility.yul\":14025:14055   */\n      mstore\n        /* \"#utility.yul\":14091:14125   */\n      0x537943726f774261727465723a204d554c54495f54524144455f4e4f545f454e\n        /* \"#utility.yul\":14071:14089   */\n      0x44\n      dup3\n      add\n        /* \"#utility.yul\":14064:14126   */\n      mstore\n      shl(0xda, 0x1050931151)\n        /* \"#utility.yul\":14142:14160   */\n      0x64\n      dup3\n      add\n        /* \"#utility.yul\":14135:14170   */\n      mstore\n        /* \"#utility.yul\":14187:14206   */\n      0x84\n      add\n        /* \"contracts/SycrowBarter.sol\":7715:7786  require(inAmount == msg.value, \"SyCrowBarter: MULTI_TRADE_NOT_ENABLED\") */\n      tag_117\n        /* \"#utility.yul\":13811:14212   */\n      jump\n        /* \"contracts/SycrowBarter.sol\":7715:7786  require(inAmount == msg.value, \"SyCrowBarter: MULTI_TRADE_NOT_ENABLED\") */\n    tag_432:\n        /* \"contracts/SycrowBarter.sol\":7797:7814  uint256 outAmount */\n      0x00\n        /* \"contracts/SycrowBarter.sol\":7817:7844  getTradeOutAmount(inAmount) */\n      tag_435\n        /* \"contracts/SycrowBarter.sol\":7835:7843  inAmount */\n      dup3\n        /* \"contracts/SycrowBarter.sol\":7817:7834  getTradeOutAmount */\n      tag_102\n        /* \"contracts/SycrowBarter.sol\":7817:7844  getTradeOutAmount(inAmount) */\n      jump\t// in\n    tag_435:\n        /* \"contracts/SycrowBarter.sol\":7883:7905  _depositedTokenAddress */\n      sload(0x06)\n        /* \"contracts/SycrowBarter.sol\":7876:7931  IERC20(_depositedTokenAddress).balanceOf(address(this)) */\n      mload(0x40)\n      shl(0xe0, 0x70a08231)\n      dup2\n      mstore\n        /* \"contracts/SycrowBarter.sol\":7925:7929  this */\n      address\n        /* \"contracts/SycrowBarter.sol\":7876:7931  IERC20(_depositedTokenAddress).balanceOf(address(this)) */\n      0x04\n      dup3\n      add\n        /* \"#utility.yul\":2609:2660   */\n      mstore\n        /* \"contracts/SycrowBarter.sol\":7797:7844  uint256 outAmount = getTradeOutAmount(inAmount) */\n      swap2\n      swap3\n      pop\n      dup3\n      swap2\n      sub(shl(0xa0, 0x01), 0x01)\n        /* \"contracts/SycrowBarter.sol\":7883:7905  _depositedTokenAddress */\n      swap1\n      swap2\n      and\n      swap1\n        /* \"contracts/SycrowBarter.sol\":7876:7916  IERC20(_depositedTokenAddress).balanceOf */\n      0x70a08231\n      swap1\n        /* \"#utility.yul\":2582:2600   */\n      0x24\n      add\n        /* \"contracts/SycrowBarter.sol\":7876:7931  IERC20(_depositedTokenAddress).balanceOf(address(this)) */\n      0x20\n      mload(0x40)\n      dup1\n      dup4\n      sub\n      dup2\n      dup7\n      gas\n      staticcall\n      iszero\n      dup1\n      iszero\n      tag_438\n      jumpi\n      returndatasize\n      0x00\n      dup1\n      returndatacopy\n      revert(0x00, returndatasize)\n    tag_438:\n      pop\n      pop\n      pop\n      pop\n      mload(0x40)\n      returndatasize\n      not(0x1f)\n      0x1f\n      dup3\n      add\n      and\n      dup3\n      add\n      dup1\n      0x40\n      mstore\n      pop\n      dup2\n      add\n      swap1\n      tag_439\n      swap2\n      swap1\n      tag_200\n      jump\t// in\n    tag_439:\n        /* \"contracts/SycrowBarter.sol\":7876:7960  IERC20(_depositedTokenAddress).balanceOf(address(this)) >=... */\n      lt\n      iszero\n        /* \"contracts/SycrowBarter.sol\":7855:8029  require(... */\n      tag_440\n      jumpi\n      mload(0x40)\n      shl(0xe5, 0x461bcd)\n      dup2\n      mstore\n      0x04\n      add\n      tag_117\n      swap1\n      tag_368\n      jump\t// in\n    tag_440:\n        /* \"contracts/SycrowBarter.sol\":8046:8050  WETH */\n      0x05\n      0x01\n      swap1\n      sload\n      swap1\n      0x0100\n      exp\n      swap1\n      div\n      sub(shl(0xa0, 0x01), 0x01)\n      and\n      sub(shl(0xa0, 0x01), 0x01)\n        /* \"contracts/SycrowBarter.sol\":8040:8059  IWETH(WETH).deposit */\n      and\n      0xd0e30db0\n        /* \"contracts/SycrowBarter.sol\":8067:8075  inAmount */\n      dup4\n        /* \"contracts/SycrowBarter.sol\":8040:8078  IWETH(WETH).deposit{value: inAmount}() */\n      mload(0x40)\n      dup3\n      0xffffffff\n      and\n      0xe0\n      shl\n      dup2\n      mstore\n      0x04\n      add\n      0x00\n      mload(0x40)\n      dup1\n      dup4\n      sub\n      dup2\n      dup6\n      dup9\n      dup1\n      extcodesize\n      iszero\n      dup1\n      iszero\n      tag_442\n      jumpi\n      0x00\n      dup1\n      revert\n    tag_442:\n      pop\n      gas\n      call\n      iszero\n      dup1\n      iszero\n      tag_444\n      jumpi\n      returndatasize\n      0x00\n      dup1\n      returndatacopy\n      revert(0x00, returndatasize)\n    tag_444:\n      pop\n      pop\n        /* \"contracts/SycrowBarter.sol\":8130:8152  _depositedTokenAddress */\n      sload(0x06)\n        /* \"contracts/SycrowBarter.sol\":8089:8209  TransferHelper.safeTransfer(... */\n      tag_398\n      swap4\n      pop\n      sub(shl(0xa0, 0x01), 0x01)\n        /* \"contracts/SycrowBarter.sol\":8130:8152  _depositedTokenAddress */\n      and\n      swap2\n      pop\n        /* \"contracts/SycrowBarter.sol\":8166:8176  msg.sender */\n      caller\n      swap1\n      pop\n        /* \"contracts/SycrowBarter.sol\":8190:8199  outAmount */\n      dup4\n        /* \"contracts/SycrowBarter.sol\":8089:8116  TransferHelper.safeTransfer */\n      tag_214\n        /* \"contracts/SycrowBarter.sol\":8089:8209  TransferHelper.safeTransfer(... */\n      jump\t// in\n        /* \"@openzeppelin/contracts/access/Ownable.sol\":2270:2457  function _transferOwnership(address newOwner) internal virtual {... */\n    tag_297:\n        /* \"@openzeppelin/contracts/access/Ownable.sol\":2343:2359  address oldOwner */\n      0x00\n        /* \"@openzeppelin/contracts/access/Ownable.sol\":2362:2368  _owner */\n      dup1\n      sload\n      sub(shl(0xa0, 0x01), 0x01)\n        /* \"@openzeppelin/contracts/access/Ownable.sol\":2378:2395  _owner = newOwner */\n      dup4\n      dup2\n      and\n      not(sub(shl(0xa0, 0x01), 0x01))\n      dup4\n      and\n      dup2\n      or\n      dup5\n      sstore\n        /* \"@openzeppelin/contracts/access/Ownable.sol\":2410:2450  OwnershipTransferred(oldOwner, newOwner) */\n      mload(0x40)\n        /* \"@openzeppelin/contracts/access/Ownable.sol\":2362:2368  _owner */\n      swap2\n      swap1\n      swap3\n      and\n      swap3\n      dup4\n      swap2\n        /* \"@openzeppelin/contracts/access/Ownable.sol\":2410:2450  OwnershipTransferred(oldOwner, newOwner) */\n      0x8be0079c531659141344cd1fd0a4f28419497f9722a3daafe3b4186f6b6457e0\n      swap2\n        /* \"@openzeppelin/contracts/access/Ownable.sol\":2343:2359  address oldOwner */\n      swap1\n        /* \"@openzeppelin/contracts/access/Ownable.sol\":2410:2450  OwnershipTransferred(oldOwner, newOwner) */\n      log3\n        /* \"@openzeppelin/contracts/access/Ownable.sol\":2333:2457  {... */\n      pop\n        /* \"@openzeppelin/contracts/access/Ownable.sol\":2270:2457  function _transferOwnership(address newOwner) internal virtual {... */\n      pop\n      jump\t// out\n        /* \"contracts/libraries/TransferHelper.sol\":929:1327  function safeTransferFrom(address token, address from, address to, uint value) internal {... */\n    tag_370:\n        /* \"contracts/libraries/TransferHelper.sol\":1152:1203  abi.encodeWithSelector(0x23b872dd, from, to, value) */\n      0x40\n      dup1\n      mload\n      sub(shl(0xa0, 0x01), 0x01)\n        /* \"#utility.yul\":14475:14490   */\n      dup6\n      dup2\n      and\n        /* \"contracts/libraries/TransferHelper.sol\":1152:1203  abi.encodeWithSelector(0x23b872dd, from, to, value) */\n      0x24\n      dup4\n      add\n        /* \"#utility.yul\":14457:14491   */\n      mstore\n        /* \"#utility.yul\":14527:14542   */\n      dup5\n      dup2\n      and\n        /* \"#utility.yul\":14507:14525   */\n      0x44\n      dup4\n      add\n        /* \"#utility.yul\":14500:14543   */\n      mstore\n        /* \"#utility.yul\":14559:14577   */\n      0x64\n      dup1\n      dup4\n      add\n        /* \"#utility.yul\":14552:14586   */\n      dup6\n      swap1\n      mstore\n        /* \"contracts/libraries/TransferHelper.sol\":1152:1203  abi.encodeWithSelector(0x23b872dd, from, to, value) */\n      dup4\n      mload\n      dup1\n      dup5\n      sub\n      swap1\n      swap2\n      add\n      dup2\n      mstore\n        /* \"#utility.yul\":14392:14410   */\n      0x84\n      swap1\n      swap3\n      add\n        /* \"contracts/libraries/TransferHelper.sol\":1152:1203  abi.encodeWithSelector(0x23b872dd, from, to, value) */\n      dup4\n      mstore\n      0x20\n      dup3\n      add\n      dup1\n      mload\n      sub(shl(0xe0, 0x01), 0x01)\n      and\n      shl(0xe0, 0x23b872dd)\n      or\n      swap1\n      mstore\n        /* \"contracts/libraries/TransferHelper.sol\":1141:1204  token.call(abi.encodeWithSelector(0x23b872dd, from, to, value)) */\n      swap2\n      mload\n      0x00\n      swap3\n      dup4\n      swap3\n        /* \"contracts/libraries/TransferHelper.sol\":1141:1151  token.call */\n      swap1\n      dup9\n      and\n      swap2\n        /* \"contracts/libraries/TransferHelper.sol\":1141:1204  token.call(abi.encodeWithSelector(0x23b872dd, from, to, value)) */\n      tag_456\n      swap2\n        /* \"contracts/libraries/TransferHelper.sol\":1152:1203  abi.encodeWithSelector(0x23b872dd, from, to, value) */\n      swap1\n        /* \"contracts/libraries/TransferHelper.sol\":1141:1204  token.call(abi.encodeWithSelector(0x23b872dd, from, to, value)) */\n      tag_411\n      jump\t// in\n    tag_456:\n      0x00\n      mload(0x40)\n      dup1\n      dup4\n      sub\n      dup2\n      0x00\n      dup7\n      gas\n      call\n      swap2\n      pop\n      pop\n      returndatasize\n      dup1\n      0x00\n      dup2\n      eq\n      tag_459\n      jumpi\n      mload(0x40)\n      swap2\n      pop\n      and(add(returndatasize, 0x3f), not(0x1f))\n      dup3\n      add\n      0x40\n      mstore\n      returndatasize\n      dup3\n      mstore\n      returndatasize\n      0x00\n      0x20\n      dup5\n      add\n      returndatacopy\n      jump(tag_458)\n    tag_459:\n      0x60\n      swap2\n      pop\n    tag_458:\n      pop\n        /* \"contracts/libraries/TransferHelper.sol\":1105:1204  (bool success, bytes memory data) = token.call(abi.encodeWithSelector(0x23b872dd, from, to, value)) */\n      swap2\n      pop\n      swap2\n      pop\n        /* \"contracts/libraries/TransferHelper.sol\":1222:1229  success */\n      dup2\n        /* \"contracts/libraries/TransferHelper.sol\":1222:1279  success && (data.length == 0 || abi.decode(data, (bool))) */\n      dup1\n      iszero\n      tag_462\n      jumpi\n      pop\n        /* \"contracts/libraries/TransferHelper.sol\":1234:1245  data.length */\n      dup1\n      mload\n        /* \"contracts/libraries/TransferHelper.sol\":1234:1250  data.length == 0 */\n      iszero\n      dup1\n        /* \"contracts/libraries/TransferHelper.sol\":1234:1278  data.length == 0 || abi.decode(data, (bool)) */\n      tag_462\n      jumpi\n      pop\n        /* \"contracts/libraries/TransferHelper.sol\":1265:1269  data */\n      dup1\n        /* \"contracts/libraries/TransferHelper.sol\":1254:1278  abi.decode(data, (bool)) */\n      dup1\n      0x20\n      add\n      swap1\n      mload\n      dup2\n      add\n      swap1\n      tag_462\n      swap2\n      swap1\n      tag_127\n      jump\t// in\n    tag_462:\n        /* \"contracts/libraries/TransferHelper.sol\":1214:1320  require(success && (data.length == 0 || abi.decode(data, (bool))), 'TransferHelper: TRANSFER_FROM_FAILED') */\n      tag_463\n      jumpi\n      mload(0x40)\n      shl(0xe5, 0x461bcd)\n      dup2\n      mstore\n        /* \"#utility.yul\":14799:14801   */\n      0x20\n        /* \"contracts/libraries/TransferHelper.sol\":1214:1320  require(success && (data.length == 0 || abi.decode(data, (bool))), 'TransferHelper: TRANSFER_FROM_FAILED') */\n      0x04\n      dup3\n      add\n        /* \"#utility.yul\":14781:14802   */\n      mstore\n        /* \"#utility.yul\":14838:14840   */\n      0x24\n        /* \"#utility.yul\":14818:14836   */\n      dup1\n      dup3\n      add\n        /* \"#utility.yul\":14811:14841   */\n      mstore\n        /* \"#utility.yul\":14877:14911   */\n      0x5472616e7366657248656c7065723a205452414e534645525f46524f4d5f4641\n        /* \"#utility.yul\":14857:14875   */\n      0x44\n      dup3\n      add\n        /* \"#utility.yul\":14850:14912   */\n      mstore\n      shl(0xe2, 0x12531151)\n        /* \"#utility.yul\":14928:14946   */\n      0x64\n      dup3\n      add\n        /* \"#utility.yul\":14921:14955   */\n      mstore\n        /* \"#utility.yul\":14972:14991   */\n      0x84\n      add\n        /* \"contracts/libraries/TransferHelper.sol\":1214:1320  require(success && (data.length == 0 || abi.decode(data, (bool))), 'TransferHelper: TRANSFER_FROM_FAILED') */\n      tag_117\n        /* \"#utility.yul\":14597:14997   */\n      jump\n        /* \"contracts/libraries/TransferHelper.sol\":1214:1320  require(success && (data.length == 0 || abi.decode(data, (bool))), 'TransferHelper: TRANSFER_FROM_FAILED') */\n    tag_463:\n        /* \"contracts/libraries/TransferHelper.sol\":1017:1327  {... */\n      pop\n      pop\n        /* \"contracts/libraries/TransferHelper.sol\":929:1327  function safeTransferFrom(address token, address from, address to, uint value) internal {... */\n      pop\n      pop\n      pop\n      pop\n      jump\t// out\n        /* \"#utility.yul\":14:194   */\n    tag_32:\n        /* \"#utility.yul\":73:79   */\n      0x00\n        /* \"#utility.yul\":126:128   */\n      0x20\n        /* \"#utility.yul\":114:123   */\n      dup3\n        /* \"#utility.yul\":105:112   */\n      dup5\n        /* \"#utility.yul\":101:124   */\n      sub\n        /* \"#utility.yul\":97:129   */\n      slt\n        /* \"#utility.yul\":94:146   */\n      iszero\n      tag_472\n      jumpi\n        /* \"#utility.yul\":142:143   */\n      0x00\n        /* \"#utility.yul\":139:140   */\n      dup1\n        /* \"#utility.yul\":132:144   */\n      revert\n        /* \"#utility.yul\":94:146   */\n    tag_472:\n      pop\n        /* \"#utility.yul\":165:188   */\n      calldataload\n      swap2\n        /* \"#utility.yul\":14:194   */\n      swap1\n      pop\n      jump\t// out\n        /* \"#utility.yul\":826:999   */\n    tag_466:\n        /* \"#utility.yul\":894:914   */\n      dup1\n      calldataload\n      sub(shl(0xa0, 0x01), 0x01)\n        /* \"#utility.yul\":943:974   */\n      dup2\n      and\n        /* \"#utility.yul\":933:975   */\n      dup2\n      eq\n        /* \"#utility.yul\":923:993   */\n      tag_477\n      jumpi\n        /* \"#utility.yul\":989:990   */\n      0x00\n        /* \"#utility.yul\":986:987   */\n      dup1\n        /* \"#utility.yul\":979:991   */\n      revert\n        /* \"#utility.yul\":923:993   */\n    tag_477:\n        /* \"#utility.yul\":826:999   */\n      swap2\n      swap1\n      pop\n      jump\t// out\n        /* \"#utility.yul\":1004:1122   */\n    tag_467:\n        /* \"#utility.yul\":1090:1095   */\n      dup1\n        /* \"#utility.yul\":1083:1096   */\n      iszero\n        /* \"#utility.yul\":1076:1097   */\n      iszero\n        /* \"#utility.yul\":1069:1074   */\n      dup2\n        /* \"#utility.yul\":1066:1098   */\n      eq\n        /* \"#utility.yul\":1056:1116   */\n      tag_352\n      jumpi\n        /* \"#utility.yul\":1112:1113   */\n      0x00\n        /* \"#utility.yul\":1109:1110   */\n      dup1\n        /* \"#utility.yul\":1102:1114   */\n      revert\n        /* \"#utility.yul\":1127:1971   */\n    tag_66:\n        /* \"#utility.yul\":1268:1274   */\n      0x00\n        /* \"#utility.yul\":1276:1282   */\n      dup1\n        /* \"#utility.yul\":1284:1290   */\n      0x00\n        /* \"#utility.yul\":1292:1298   */\n      dup1\n        /* \"#utility.yul\":1300:1306   */\n      0x00\n        /* \"#utility.yul\":1308:1314   */\n      dup1\n        /* \"#utility.yul\":1316:1322   */\n      0x00\n        /* \"#utility.yul\":1324:1330   */\n      dup1\n        /* \"#utility.yul\":1377:1380   */\n      0x0100\n        /* \"#utility.yul\":1365:1374   */\n      dup10\n        /* \"#utility.yul\":1356:1363   */\n      dup12\n        /* \"#utility.yul\":1352:1375   */\n      sub\n        /* \"#utility.yul\":1348:1381   */\n      slt\n        /* \"#utility.yul\":1345:1398   */\n      iszero\n      tag_481\n      jumpi\n        /* \"#utility.yul\":1394:1395   */\n      0x00\n        /* \"#utility.yul\":1391:1392   */\n      dup1\n        /* \"#utility.yul\":1384:1396   */\n      revert\n        /* \"#utility.yul\":1345:1398   */\n    tag_481:\n        /* \"#utility.yul\":1433:1442   */\n      dup9\n        /* \"#utility.yul\":1420:1443   */\n      calldataload\n        /* \"#utility.yul\":1472:1473   */\n      0x03\n        /* \"#utility.yul\":1465:1470   */\n      dup2\n        /* \"#utility.yul\":1462:1474   */\n      lt\n        /* \"#utility.yul\":1452:1492   */\n      tag_482\n      jumpi\n        /* \"#utility.yul\":1488:1489   */\n      0x00\n        /* \"#utility.yul\":1485:1486   */\n      dup1\n        /* \"#utility.yul\":1478:1490   */\n      revert\n        /* \"#utility.yul\":1452:1492   */\n    tag_482:\n        /* \"#utility.yul\":1511:1516   */\n      swap8\n      pop\n        /* \"#utility.yul\":1535:1573   */\n      tag_483\n        /* \"#utility.yul\":1569:1571   */\n      0x20\n        /* \"#utility.yul\":1554:1572   */\n      dup11\n      add\n        /* \"#utility.yul\":1535:1573   */\n      tag_466\n      jump\t// in\n    tag_483:\n        /* \"#utility.yul\":1525:1573   */\n      swap7\n      pop\n        /* \"#utility.yul\":1592:1630   */\n      tag_484\n        /* \"#utility.yul\":1626:1628   */\n      0x40\n        /* \"#utility.yul\":1615:1624   */\n      dup11\n        /* \"#utility.yul\":1611:1629   */\n      add\n        /* \"#utility.yul\":1592:1630   */\n      tag_466\n      jump\t// in\n    tag_484:\n        /* \"#utility.yul\":1582:1630   */\n      swap6\n      pop\n        /* \"#utility.yul\":1677:1679   */\n      0x60\n        /* \"#utility.yul\":1666:1675   */\n      dup10\n        /* \"#utility.yul\":1662:1680   */\n      add\n        /* \"#utility.yul\":1649:1681   */\n      calldataload\n        /* \"#utility.yul\":1639:1681   */\n      swap5\n      pop\n        /* \"#utility.yul\":1728:1731   */\n      0x80\n        /* \"#utility.yul\":1717:1726   */\n      dup10\n        /* \"#utility.yul\":1713:1732   */\n      add\n        /* \"#utility.yul\":1700:1733   */\n      calldataload\n        /* \"#utility.yul\":1690:1733   */\n      swap4\n      pop\n        /* \"#utility.yul\":1780:1783   */\n      0xa0\n        /* \"#utility.yul\":1769:1778   */\n      dup10\n        /* \"#utility.yul\":1765:1784   */\n      add\n        /* \"#utility.yul\":1752:1785   */\n      calldataload\n        /* \"#utility.yul\":1742:1785   */\n      swap3\n      pop\n        /* \"#utility.yul\":1837:1840   */\n      0xc0\n        /* \"#utility.yul\":1826:1835   */\n      dup10\n        /* \"#utility.yul\":1822:1841   */\n      add\n        /* \"#utility.yul\":1809:1842   */\n      calldataload\n        /* \"#utility.yul\":1851:1881   */\n      tag_485\n        /* \"#utility.yul\":1873:1880   */\n      dup2\n        /* \"#utility.yul\":1851:1881   */\n      tag_467\n      jump\t// in\n    tag_485:\n        /* \"#utility.yul\":1900:1907   */\n      swap2\n      pop\n        /* \"#utility.yul\":1926:1965   */\n      tag_486\n        /* \"#utility.yul\":1960:1963   */\n      0xe0\n        /* \"#utility.yul\":1945:1964   */\n      dup11\n      add\n        /* \"#utility.yul\":1926:1965   */\n      tag_466\n      jump\t// in\n    tag_486:\n        /* \"#utility.yul\":1916:1965   */\n      swap1\n      pop\n        /* \"#utility.yul\":1127:1971   */\n      swap3\n      swap6\n      swap9\n      pop\n      swap3\n      swap6\n      swap9\n      swap1\n      swap4\n      swap7\n      pop\n      jump\t// out\n        /* \"#utility.yul\":1976:2103   */\n    tag_134:\n        /* \"#utility.yul\":2037:2047   */\n      0x4e487b71\n        /* \"#utility.yul\":2032:2035   */\n      0xe0\n        /* \"#utility.yul\":2028:2048   */\n      shl\n        /* \"#utility.yul\":2025:2026   */\n      0x00\n        /* \"#utility.yul\":2018:2049   */\n      mstore\n        /* \"#utility.yul\":2068:2072   */\n      0x21\n        /* \"#utility.yul\":2065:2066   */\n      0x04\n        /* \"#utility.yul\":2058:2073   */\n      mstore\n        /* \"#utility.yul\":2092:2096   */\n      0x24\n        /* \"#utility.yul\":2089:2090   */\n      0x00\n        /* \"#utility.yul\":2082:2097   */\n      revert\n        /* \"#utility.yul\":2108:2458   */\n    tag_76:\n        /* \"#utility.yul\":2262:2264   */\n      0x20\n        /* \"#utility.yul\":2247:2265   */\n      dup2\n      add\n        /* \"#utility.yul\":2295:2296   */\n      0x03\n        /* \"#utility.yul\":2284:2297   */\n      dup4\n      lt\n        /* \"#utility.yul\":2274:2418   */\n      tag_489\n      jumpi\n        /* \"#utility.yul\":2340:2350   */\n      0x4e487b71\n        /* \"#utility.yul\":2335:2338   */\n      0xe0\n        /* \"#utility.yul\":2331:2351   */\n      shl\n        /* \"#utility.yul\":2328:2329   */\n      0x00\n        /* \"#utility.yul\":2321:2352   */\n      mstore\n        /* \"#utility.yul\":2375:2379   */\n      0x21\n        /* \"#utility.yul\":2372:2373   */\n      0x04\n        /* \"#utility.yul\":2365:2380   */\n      mstore\n        /* \"#utility.yul\":2403:2407   */\n      0x24\n        /* \"#utility.yul\":2400:2401   */\n      0x00\n        /* \"#utility.yul\":2393:2408   */\n      revert\n        /* \"#utility.yul\":2274:2418   */\n    tag_489:\n        /* \"#utility.yul\":2427:2452   */\n      swap2\n      swap1\n      mstore\n        /* \"#utility.yul\":2108:2458   */\n      swap1\n      jump\t// out\n        /* \"#utility.yul\":2980:3415   */\n    tag_468:\n        /* \"#utility.yul\":3033:3036   */\n      0x00\n        /* \"#utility.yul\":3071:3076   */\n      dup2\n        /* \"#utility.yul\":3065:3077   */\n      mload\n        /* \"#utility.yul\":3098:3104   */\n      dup1\n        /* \"#utility.yul\":3093:3096   */\n      dup5\n        /* \"#utility.yul\":3086:3105   */\n      mstore\n        /* \"#utility.yul\":3124:3128   */\n      0x20\n        /* \"#utility.yul\":3153:3155   */\n      dup1\n        /* \"#utility.yul\":3148:3151   */\n      dup6\n        /* \"#utility.yul\":3144:3156   */\n      add\n        /* \"#utility.yul\":3137:3156   */\n      swap5\n      pop\n        /* \"#utility.yul\":3190:3192   */\n      dup1\n        /* \"#utility.yul\":3183:3188   */\n      dup5\n        /* \"#utility.yul\":3179:3193   */\n      add\n        /* \"#utility.yul\":3211:3212   */\n      0x00\n        /* \"#utility.yul\":3221:3390   */\n    tag_493:\n        /* \"#utility.yul\":3235:3241   */\n      dup4\n        /* \"#utility.yul\":3232:3233   */\n      dup2\n        /* \"#utility.yul\":3229:3242   */\n      lt\n        /* \"#utility.yul\":3221:3390   */\n      iszero\n      tag_495\n      jumpi\n        /* \"#utility.yul\":3296:3309   */\n      dup2\n      mload\n        /* \"#utility.yul\":3284:3310   */\n      dup8\n      mstore\n        /* \"#utility.yul\":3330:3342   */\n      swap6\n      dup3\n      add\n      swap6\n        /* \"#utility.yul\":3365:3380   */\n      swap1\n      dup3\n      add\n      swap1\n        /* \"#utility.yul\":3257:3258   */\n      0x01\n        /* \"#utility.yul\":3250:3259   */\n      add\n        /* \"#utility.yul\":3221:3390   */\n      jump(tag_493)\n    tag_495:\n      pop\n        /* \"#utility.yul\":3406:3409   */\n      swap5\n      swap6\n        /* \"#utility.yul\":2980:3415   */\n      swap5\n      pop\n      pop\n      pop\n      pop\n      pop\n      jump\t// out\n        /* \"#utility.yul\":3420:4457   */\n    tag_108:\n        /* \"#utility.yul\":3766:3768   */\n      0x60\n        /* \"#utility.yul\":3778:3799   */\n      dup1\n      dup3\n      mstore\n        /* \"#utility.yul\":3848:3861   */\n      dup5\n      mload\n        /* \"#utility.yul\":3751:3769   */\n      swap1\n      dup3\n      add\n        /* \"#utility.yul\":3870:3892   */\n      dup2\n      swap1\n      mstore\n        /* \"#utility.yul\":3718:3722   */\n      0x00\n      swap1\n        /* \"#utility.yul\":3946:3950   */\n      0x20\n      swap1\n        /* \"#utility.yul\":3923:3926   */\n      0x80\n        /* \"#utility.yul\":3908:3927   */\n      dup5\n      add\n      swap1\n        /* \"#utility.yul\":3973:3988   */\n      dup3\n      dup9\n      add\n        /* \"#utility.yul\":3718:3722   */\n      dup5\n        /* \"#utility.yul\":4016:4211   */\n    tag_497:\n        /* \"#utility.yul\":4030:4036   */\n      dup3\n        /* \"#utility.yul\":4027:4028   */\n      dup2\n        /* \"#utility.yul\":4024:4037   */\n      lt\n        /* \"#utility.yul\":4016:4211   */\n      iszero\n      tag_499\n      jumpi\n        /* \"#utility.yul\":4095:4108   */\n      dup2\n      mload\n      sub(shl(0xa0, 0x01), 0x01)\n        /* \"#utility.yul\":4091:4130   */\n      and\n        /* \"#utility.yul\":4079:4131   */\n      dup5\n      mstore\n        /* \"#utility.yul\":4151:4163   */\n      swap3\n      dup5\n      add\n      swap3\n        /* \"#utility.yul\":4186:4201   */\n      swap1\n      dup5\n      add\n      swap1\n        /* \"#utility.yul\":4127:4128   */\n      0x01\n        /* \"#utility.yul\":4045:4054   */\n      add\n        /* \"#utility.yul\":4016:4211   */\n      jump(tag_497)\n    tag_499:\n        /* \"#utility.yul\":4020:4023   */\n      pop\n      pop\n      pop\n        /* \"#utility.yul\":4256:4265   */\n      dup4\n        /* \"#utility.yul\":4251:4254   */\n      dup2\n        /* \"#utility.yul\":4247:4266   */\n      sub\n        /* \"#utility.yul\":4242:4244   */\n      dup3\n        /* \"#utility.yul\":4231:4240   */\n      dup6\n        /* \"#utility.yul\":4227:4245   */\n      add\n        /* \"#utility.yul\":4220:4267   */\n      mstore\n        /* \"#utility.yul\":4290:4331   */\n      tag_500\n        /* \"#utility.yul\":4327:4330   */\n      dup2\n        /* \"#utility.yul\":4319:4325   */\n      dup8\n        /* \"#utility.yul\":4290:4331   */\n      tag_468\n      jump\t// in\n    tag_500:\n        /* \"#utility.yul\":4276:4331   */\n      swap2\n      pop\n      pop\n        /* \"#utility.yul\":4379:4388   */\n      dup3\n        /* \"#utility.yul\":4371:4377   */\n      dup2\n        /* \"#utility.yul\":4367:4389   */\n      sub\n        /* \"#utility.yul\":4362:4364   */\n      0x40\n        /* \"#utility.yul\":4351:4360   */\n      dup5\n        /* \"#utility.yul\":4347:4365   */\n      add\n        /* \"#utility.yul\":4340:4390   */\n      mstore\n        /* \"#utility.yul\":4407:4451   */\n      tag_501\n        /* \"#utility.yul\":4444:4450   */\n      dup2\n        /* \"#utility.yul\":4436:4442   */\n      dup6\n        /* \"#utility.yul\":4407:4451   */\n      tag_468\n      jump\t// in\n    tag_501:\n        /* \"#utility.yul\":4399:4451   */\n      swap7\n        /* \"#utility.yul\":3420:4457   */\n      swap6\n      pop\n      pop\n      pop\n      pop\n      pop\n      pop\n      jump\t// out\n        /* \"#utility.yul\":4462:4648   */\n    tag_112:\n        /* \"#utility.yul\":4521:4527   */\n      0x00\n        /* \"#utility.yul\":4574:4576   */\n      0x20\n        /* \"#utility.yul\":4562:4571   */\n      dup3\n        /* \"#utility.yul\":4553:4560   */\n      dup5\n        /* \"#utility.yul\":4549:4572   */\n      sub\n        /* \"#utility.yul\":4545:4577   */\n      slt\n        /* \"#utility.yul\":4542:4594   */\n      iszero\n      tag_503\n      jumpi\n        /* \"#utility.yul\":4590:4591   */\n      0x00\n        /* \"#utility.yul\":4587:4588   */\n      dup1\n        /* \"#utility.yul\":4580:4592   */\n      revert\n        /* \"#utility.yul\":4542:4594   */\n    tag_503:\n        /* \"#utility.yul\":4613:4642   */\n      tag_504\n        /* \"#utility.yul\":4632:4641   */\n      dup3\n        /* \"#utility.yul\":4613:4642   */\n      tag_466\n      jump\t// in\n    tag_504:\n        /* \"#utility.yul\":4603:4642   */\n      swap4\n        /* \"#utility.yul\":4462:4648   */\n      swap3\n      pop\n      pop\n      pop\n      jump\t// out\n        /* \"#utility.yul\":4653:4999   */\n    tag_118:\n        /* \"#utility.yul\":4855:4857   */\n      0x20\n        /* \"#utility.yul\":4837:4858   */\n      dup1\n      dup3\n      mstore\n        /* \"#utility.yul\":4894:4896   */\n      0x16\n        /* \"#utility.yul\":4874:4892   */\n      swap1\n      dup3\n      add\n        /* \"#utility.yul\":4867:4897   */\n      mstore\n      shl(0x50, 0x537943726f774261727465723a20494e414354495645)\n        /* \"#utility.yul\":4928:4930   */\n      0x40\n        /* \"#utility.yul\":4913:4931   */\n      dup3\n      add\n        /* \"#utility.yul\":4906:4958   */\n      mstore\n        /* \"#utility.yul\":4990:4992   */\n      0x60\n        /* \"#utility.yul\":4975:4993   */\n      add\n      swap1\n        /* \"#utility.yul\":4653:4999   */\n      jump\t// out\n        /* \"#utility.yul\":5004:5357   */\n    tag_122:\n        /* \"#utility.yul\":5206:5208   */\n      0x20\n        /* \"#utility.yul\":5188:5209   */\n      dup1\n      dup3\n      mstore\n        /* \"#utility.yul\":5245:5247   */\n      0x1d\n        /* \"#utility.yul\":5225:5243   */\n      swap1\n      dup3\n      add\n        /* \"#utility.yul\":5218:5248   */\n      mstore\n        /* \"#utility.yul\":5284:5315   */\n      0x537943726f774261727465723a204e4f545f494e495449414c495a4544000000\n        /* \"#utility.yul\":5279:5281   */\n      0x40\n        /* \"#utility.yul\":5264:5282   */\n      dup3\n      add\n        /* \"#utility.yul\":5257:5316   */\n      mstore\n        /* \"#utility.yul\":5348:5350   */\n      0x60\n        /* \"#utility.yul\":5333:5351   */\n      add\n      swap1\n        /* \"#utility.yul\":5004:5357   */\n      jump\t// out\n        /* \"#utility.yul\":5362:5607   */\n    tag_127:\n        /* \"#utility.yul\":5429:5435   */\n      0x00\n        /* \"#utility.yul\":5482:5484   */\n      0x20\n        /* \"#utility.yul\":5470:5479   */\n      dup3\n        /* \"#utility.yul\":5461:5468   */\n      dup5\n        /* \"#utility.yul\":5457:5480   */\n      sub\n        /* \"#utility.yul\":5453:5485   */\n      slt\n        /* \"#utility.yul\":5450:5502   */\n      iszero\n      tag_508\n      jumpi\n        /* \"#utility.yul\":5498:5499   */\n      0x00\n        /* \"#utility.yul\":5495:5496   */\n      dup1\n        /* \"#utility.yul\":5488:5500   */\n      revert\n        /* \"#utility.yul\":5450:5502   */\n    tag_508:\n        /* \"#utility.yul\":5530:5539   */\n      dup2\n        /* \"#utility.yul\":5524:5540   */\n      mload\n        /* \"#utility.yul\":5549:5577   */\n      tag_504\n        /* \"#utility.yul\":5571:5576   */\n      dup2\n        /* \"#utility.yul\":5549:5577   */\n      tag_467\n      jump\t// in\n        /* \"#utility.yul\":5612:6010   */\n    tag_130:\n        /* \"#utility.yul\":5814:5816   */\n      0x20\n        /* \"#utility.yul\":5796:5817   */\n      dup1\n      dup3\n      mstore\n        /* \"#utility.yul\":5853:5855   */\n      0x22\n        /* \"#utility.yul\":5833:5851   */\n      swap1\n      dup3\n      add\n        /* \"#utility.yul\":5826:5856   */\n      mstore\n        /* \"#utility.yul\":5892:5926   */\n      0x537943726f774261727465723a204261736520436f6e74726163742050617573\n        /* \"#utility.yul\":5887:5889   */\n      0x40\n        /* \"#utility.yul\":5872:5890   */\n      dup3\n      add\n        /* \"#utility.yul\":5865:5927   */\n      mstore\n      shl(0xf2, 0x1959)\n        /* \"#utility.yul\":5958:5960   */\n      0x60\n        /* \"#utility.yul\":5943:5961   */\n      dup3\n      add\n        /* \"#utility.yul\":5936:5968   */\n      mstore\n        /* \"#utility.yul\":6000:6003   */\n      0x80\n        /* \"#utility.yul\":5985:6004   */\n      add\n      swap1\n        /* \"#utility.yul\":5612:6010   */\n      jump\t// out\n        /* \"#utility.yul\":6015:6412   */\n    tag_139:\n        /* \"#utility.yul\":6217:6219   */\n      0x20\n        /* \"#utility.yul\":6199:6220   */\n      dup1\n      dup3\n      mstore\n        /* \"#utility.yul\":6256:6258   */\n      0x21\n        /* \"#utility.yul\":6236:6254   */\n      swap1\n      dup3\n      add\n        /* \"#utility.yul\":6229:6259   */\n      mstore\n        /* \"#utility.yul\":6295:6329   */\n      0x537943726f774261727465723a20494e56414c49445f4241525445525f545950\n        /* \"#utility.yul\":6290:6292   */\n      0x40\n        /* \"#utility.yul\":6275:6293   */\n      dup3\n      add\n        /* \"#utility.yul\":6268:6330   */\n      mstore\n      shl(0xf8, 0x45)\n        /* \"#utility.yul\":6361:6363   */\n      0x60\n        /* \"#utility.yul\":6346:6364   */\n      dup3\n      add\n        /* \"#utility.yul\":6339:6370   */\n      mstore\n        /* \"#utility.yul\":6402:6405   */\n      0x80\n        /* \"#utility.yul\":6387:6406   */\n      add\n      swap1\n        /* \"#utility.yul\":6015:6412   */\n      jump\t// out\n        /* \"#utility.yul\":6417:6772   */\n    tag_143:\n        /* \"#utility.yul\":6619:6621   */\n      0x20\n        /* \"#utility.yul\":6601:6622   */\n      dup1\n      dup3\n      mstore\n        /* \"#utility.yul\":6658:6660   */\n      0x1f\n        /* \"#utility.yul\":6638:6656   */\n      swap1\n      dup3\n      add\n        /* \"#utility.yul\":6631:6661   */\n      mstore\n        /* \"#utility.yul\":6697:6730   */\n      0x5265656e7472616e637947756172643a207265656e7472616e742063616c6c00\n        /* \"#utility.yul\":6692:6694   */\n      0x40\n        /* \"#utility.yul\":6677:6695   */\n      dup3\n      add\n        /* \"#utility.yul\":6670:6731   */\n      mstore\n        /* \"#utility.yul\":6763:6765   */\n      0x60\n        /* \"#utility.yul\":6748:6766   */\n      add\n      swap1\n        /* \"#utility.yul\":6417:6772   */\n      jump\t// out\n        /* \"#utility.yul\":6777:7182   */\n    tag_148:\n        /* \"#utility.yul\":6979:6981   */\n      0x20\n        /* \"#utility.yul\":6961:6982   */\n      dup1\n      dup3\n      mstore\n        /* \"#utility.yul\":7018:7020   */\n      0x29\n        /* \"#utility.yul\":6998:7016   */\n      swap1\n      dup3\n      add\n        /* \"#utility.yul\":6991:7021   */\n      mstore\n        /* \"#utility.yul\":7057:7091   */\n      0x537943726f774261727465723a20414d4f554e545f4c4f5745525f5448414e5f\n        /* \"#utility.yul\":7052:7054   */\n      0x40\n        /* \"#utility.yul\":7037:7055   */\n      dup3\n      add\n        /* \"#utility.yul\":7030:7092   */\n      mstore\n      shl(0xba, 0x149154555492549151)\n        /* \"#utility.yul\":7123:7125   */\n      0x60\n        /* \"#utility.yul\":7108:7126   */\n      dup3\n      add\n        /* \"#utility.yul\":7101:7140   */\n      mstore\n        /* \"#utility.yul\":7172:7175   */\n      0x80\n        /* \"#utility.yul\":7157:7176   */\n      add\n      swap1\n        /* \"#utility.yul\":6777:7182   */\n      jump\t// out\n        /* \"#utility.yul\":7536:7892   */\n    tag_194:\n        /* \"#utility.yul\":7738:7740   */\n      0x20\n        /* \"#utility.yul\":7720:7741   */\n      dup1\n      dup3\n      mstore\n        /* \"#utility.yul\":7757:7775   */\n      dup2\n      dup2\n      add\n        /* \"#utility.yul\":7750:7780   */\n      mstore\n        /* \"#utility.yul\":7816:7850   */\n      0x4f776e61626c653a2063616c6c6572206973206e6f7420746865206f776e6572\n        /* \"#utility.yul\":7811:7813   */\n      0x40\n        /* \"#utility.yul\":7796:7814   */\n      dup3\n      add\n        /* \"#utility.yul\":7789:7851   */\n      mstore\n        /* \"#utility.yul\":7883:7885   */\n      0x60\n        /* \"#utility.yul\":7868:7886   */\n      add\n      swap1\n        /* \"#utility.yul\":7536:7892   */\n      jump\t// out\n        /* \"#utility.yul\":7897:8081   */\n    tag_200:\n        /* \"#utility.yul\":7967:7973   */\n      0x00\n        /* \"#utility.yul\":8020:8022   */\n      0x20\n        /* \"#utility.yul\":8008:8017   */\n      dup3\n        /* \"#utility.yul\":7999:8006   */\n      dup5\n        /* \"#utility.yul\":7995:8018   */\n      sub\n        /* \"#utility.yul\":7991:8023   */\n      slt\n        /* \"#utility.yul\":7988:8040   */\n      iszero\n      tag_517\n      jumpi\n        /* \"#utility.yul\":8036:8037   */\n      0x00\n        /* \"#utility.yul\":8033:8034   */\n      dup1\n        /* \"#utility.yul\":8026:8038   */\n      revert\n        /* \"#utility.yul\":7988:8040   */\n    tag_517:\n      pop\n        /* \"#utility.yul\":8059:8075   */\n      mload\n      swap2\n        /* \"#utility.yul\":7897:8081   */\n      swap1\n      pop\n      jump\t// out\n        /* \"#utility.yul\":8086:8533   */\n    tag_234:\n      sub(shl(0xa0, 0x01), 0x01)\n        /* \"#utility.yul\":8373:8388   */\n      swap5\n      dup6\n      and\n        /* \"#utility.yul\":8355:8389   */\n      dup2\n      mstore\n        /* \"#utility.yul\":8425:8440   */\n      swap3\n      swap1\n      swap4\n      and\n        /* \"#utility.yul\":8420:8422   */\n      0x20\n        /* \"#utility.yul\":8405:8423   */\n      dup4\n      add\n        /* \"#utility.yul\":8398:8441   */\n      mstore\n        /* \"#utility.yul\":8472:8474   */\n      0x40\n        /* \"#utility.yul\":8457:8475   */\n      dup3\n      add\n        /* \"#utility.yul\":8450:8484   */\n      mstore\n        /* \"#utility.yul\":8515:8517   */\n      0x60\n        /* \"#utility.yul\":8500:8518   */\n      dup2\n      add\n        /* \"#utility.yul\":8493:8527   */\n      swap2\n      swap1\n      swap2\n      mstore\n        /* \"#utility.yul\":8304:8307   */\n      0x80\n        /* \"#utility.yul\":8289:8308   */\n      add\n      swap1\n        /* \"#utility.yul\":8086:8533   */\n      jump\t// out\n        /* \"#utility.yul\":10051:10178   */\n    tag_469:\n        /* \"#utility.yul\":10112:10122   */\n      0x4e487b71\n        /* \"#utility.yul\":10107:10110   */\n      0xe0\n        /* \"#utility.yul\":10103:10123   */\n      shl\n        /* \"#utility.yul\":10100:10101   */\n      0x00\n        /* \"#utility.yul\":10093:10124   */\n      mstore\n        /* \"#utility.yul\":10143:10147   */\n      0x11\n        /* \"#utility.yul\":10140:10141   */\n      0x04\n        /* \"#utility.yul\":10133:10148   */\n      mstore\n        /* \"#utility.yul\":10167:10171   */\n      0x24\n        /* \"#utility.yul\":10164:10165   */\n      0x00\n        /* \"#utility.yul\":10157:10172   */\n      revert\n        /* \"#utility.yul\":10183:10351   */\n    tag_305:\n        /* \"#utility.yul\":10223:10230   */\n      0x00\n        /* \"#utility.yul\":10289:10290   */\n      dup2\n        /* \"#utility.yul\":10285:10286   */\n      0x00\n        /* \"#utility.yul\":10281:10287   */\n      not\n        /* \"#utility.yul\":10277:10291   */\n      div\n        /* \"#utility.yul\":10274:10275   */\n      dup4\n        /* \"#utility.yul\":10271:10292   */\n      gt\n        /* \"#utility.yul\":10266:10267   */\n      dup3\n        /* \"#utility.yul\":10259:10268   */\n      iszero\n        /* \"#utility.yul\":10252:10269   */\n      iszero\n        /* \"#utility.yul\":10248:10293   */\n      and\n        /* \"#utility.yul\":10245:10316   */\n      iszero\n      tag_526\n      jumpi\n        /* \"#utility.yul\":10296:10314   */\n      tag_526\n      tag_469\n      jump\t// in\n    tag_526:\n      pop\n        /* \"#utility.yul\":10336:10345   */\n      mul\n      swap1\n        /* \"#utility.yul\":10183:10351   */\n      jump\t// out\n        /* \"#utility.yul\":10356:10573   */\n    tag_307:\n        /* \"#utility.yul\":10396:10397   */\n      0x00\n        /* \"#utility.yul\":10422:10423   */\n      dup3\n        /* \"#utility.yul\":10412:10544   */\n      tag_528\n      jumpi\n        /* \"#utility.yul\":10466:10476   */\n      0x4e487b71\n        /* \"#utility.yul\":10461:10464   */\n      0xe0\n        /* \"#utility.yul\":10457:10477   */\n      shl\n        /* \"#utility.yul\":10454:10455   */\n      0x00\n        /* \"#utility.yul\":10447:10478   */\n      mstore\n        /* \"#utility.yul\":10501:10505   */\n      0x12\n        /* \"#utility.yul\":10498:10499   */\n      0x04\n        /* \"#utility.yul\":10491:10506   */\n      mstore\n        /* \"#utility.yul\":10529:10533   */\n      0x24\n        /* \"#utility.yul\":10526:10527   */\n      0x00\n        /* \"#utility.yul\":10519:10534   */\n      revert\n        /* \"#utility.yul\":10412:10544   */\n    tag_528:\n      pop\n        /* \"#utility.yul\":10558:10567   */\n      div\n      swap1\n        /* \"#utility.yul\":10356:10573   */\n      jump\t// out\n        /* \"#utility.yul\":10578:10705   */\n    tag_314:\n        /* \"#utility.yul\":10639:10649   */\n      0x4e487b71\n        /* \"#utility.yul\":10634:10637   */\n      0xe0\n        /* \"#utility.yul\":10630:10650   */\n      shl\n        /* \"#utility.yul\":10627:10628   */\n      0x00\n        /* \"#utility.yul\":10620:10651   */\n      mstore\n        /* \"#utility.yul\":10670:10674   */\n      0x41\n        /* \"#utility.yul\":10667:10668   */\n      0x04\n        /* \"#utility.yul\":10660:10675   */\n      mstore\n        /* \"#utility.yul\":10694:10698   */\n      0x24\n        /* \"#utility.yul\":10691:10692   */\n      0x00\n        /* \"#utility.yul\":10684:10699   */\n      revert\n        /* \"#utility.yul\":10710:10837   */\n    tag_327:\n        /* \"#utility.yul\":10771:10781   */\n      0x4e487b71\n        /* \"#utility.yul\":10766:10769   */\n      0xe0\n        /* \"#utility.yul\":10762:10782   */\n      shl\n        /* \"#utility.yul\":10759:10760   */\n      0x00\n        /* \"#utility.yul\":10752:10783   */\n      mstore\n        /* \"#utility.yul\":10802:10806   */\n      0x32\n        /* \"#utility.yul\":10799:10800   */\n      0x04\n        /* \"#utility.yul\":10792:10807   */\n      mstore\n        /* \"#utility.yul\":10826:10830   */\n      0x24\n        /* \"#utility.yul\":10823:10824   */\n      0x00\n        /* \"#utility.yul\":10816:10831   */\n      revert\n        /* \"#utility.yul\":10842:10977   */\n    tag_342:\n        /* \"#utility.yul\":10881:10884   */\n      0x00\n        /* \"#utility.yul\":10902:10919   */\n      0x01\n      dup3\n      add\n        /* \"#utility.yul\":10899:10942   */\n      tag_533\n      jumpi\n        /* \"#utility.yul\":10922:10940   */\n      tag_533\n      tag_469\n      jump\t// in\n    tag_533:\n      pop\n        /* \"#utility.yul\":10969:10970   */\n      0x01\n        /* \"#utility.yul\":10958:10971   */\n      add\n      swap1\n        /* \"#utility.yul\":10842:10977   */\n      jump\t// out\n        /* \"#utility.yul\":11389:11787   */\n    tag_360:\n        /* \"#utility.yul\":11591:11593   */\n      0x20\n        /* \"#utility.yul\":11573:11594   */\n      dup1\n      dup3\n      mstore\n        /* \"#utility.yul\":11630:11632   */\n      0x22\n        /* \"#utility.yul\":11610:11628   */\n      swap1\n      dup3\n      add\n        /* \"#utility.yul\":11603:11633   */\n      mstore\n        /* \"#utility.yul\":11669:11703   */\n      0x537943726f774261727465723a20494e53554646494349454e545f42414c414e\n        /* \"#utility.yul\":11664:11666   */\n      0x40\n        /* \"#utility.yul\":11649:11667   */\n      dup3\n      add\n        /* \"#utility.yul\":11642:11704   */\n      mstore\n      shl(0xf0, 0x4345)\n        /* \"#utility.yul\":11735:11737   */\n      0x60\n        /* \"#utility.yul\":11720:11738   */\n      dup3\n      add\n        /* \"#utility.yul\":11713:11745   */\n      mstore\n        /* \"#utility.yul\":11777:11780   */\n      0x80\n        /* \"#utility.yul\":11762:11781   */\n      add\n      swap1\n        /* \"#utility.yul\":11389:11787   */\n      jump\t// out\n        /* \"#utility.yul\":11792:12199   */\n    tag_368:\n        /* \"#utility.yul\":11994:11996   */\n      0x20\n        /* \"#utility.yul\":11976:11997   */\n      dup1\n      dup3\n      mstore\n        /* \"#utility.yul\":12033:12035   */\n      0x2b\n        /* \"#utility.yul\":12013:12031   */\n      swap1\n      dup3\n      add\n        /* \"#utility.yul\":12006:12036   */\n      mstore\n        /* \"#utility.yul\":12072:12106   */\n      0x537943726f774261727465723a20494e53554646494349454e545f434f4e5452\n        /* \"#utility.yul\":12067:12069   */\n      0x40\n        /* \"#utility.yul\":12052:12070   */\n      dup3\n      add\n        /* \"#utility.yul\":12045:12107   */\n      mstore\n      shl(0xa8, 0x4143545f42414c414e4345)\n        /* \"#utility.yul\":12138:12140   */\n      0x60\n        /* \"#utility.yul\":12123:12141   */\n      dup3\n      add\n        /* \"#utility.yul\":12116:12157   */\n      mstore\n        /* \"#utility.yul\":12189:12192   */\n      0x80\n        /* \"#utility.yul\":12174:12193   */\n      add\n      swap1\n        /* \"#utility.yul\":11792:12199   */\n      jump\t// out\n        /* \"#utility.yul\":12204:12332   */\n    tag_378:\n        /* \"#utility.yul\":12244:12247   */\n      0x00\n        /* \"#utility.yul\":12275:12276   */\n      dup3\n        /* \"#utility.yul\":12271:12277   */\n      not\n        /* \"#utility.yul\":12268:12269   */\n      dup3\n        /* \"#utility.yul\":12265:12278   */\n      gt\n        /* \"#utility.yul\":12262:12301   */\n      iszero\n      tag_539\n      jumpi\n        /* \"#utility.yul\":12281:12299   */\n      tag_539\n      tag_469\n      jump\t// in\n    tag_539:\n      pop\n        /* \"#utility.yul\":12317:12326   */\n      add\n      swap1\n        /* \"#utility.yul\":12204:12332   */\n      jump\t// out\n        /* \"#utility.yul\":12337:12763   */\n    tag_411:\n        /* \"#utility.yul\":12466:12469   */\n      0x00\n        /* \"#utility.yul\":12504:12510   */\n      dup3\n        /* \"#utility.yul\":12498:12511   */\n      mload\n        /* \"#utility.yul\":12529:12530   */\n      0x00\n        /* \"#utility.yul\":12539:12668   */\n    tag_541:\n        /* \"#utility.yul\":12553:12559   */\n      dup2\n        /* \"#utility.yul\":12550:12551   */\n      dup2\n        /* \"#utility.yul\":12547:12560   */\n      lt\n        /* \"#utility.yul\":12539:12668   */\n      iszero\n      tag_543\n      jumpi\n        /* \"#utility.yul\":12651:12655   */\n      0x20\n        /* \"#utility.yul\":12635:12649   */\n      dup2\n      dup7\n      add\n        /* \"#utility.yul\":12631:12656   */\n      dup2\n      add\n        /* \"#utility.yul\":12625:12657   */\n      mload\n        /* \"#utility.yul\":12612:12623   */\n      dup6\n      dup4\n      add\n        /* \"#utility.yul\":12605:12658   */\n      mstore\n        /* \"#utility.yul\":12568:12580   */\n      add\n        /* \"#utility.yul\":12539:12668   */\n      jump(tag_541)\n    tag_543:\n        /* \"#utility.yul\":12686:12692   */\n      dup2\n        /* \"#utility.yul\":12683:12684   */\n      dup2\n        /* \"#utility.yul\":12680:12693   */\n      gt\n        /* \"#utility.yul\":12677:12725   */\n      iszero\n      tag_544\n      jumpi\n        /* \"#utility.yul\":12721:12722   */\n      0x00\n        /* \"#utility.yul\":12712:12718   */\n      dup3\n        /* \"#utility.yul\":12707:12710   */\n      dup6\n        /* \"#utility.yul\":12703:12719   */\n      add\n        /* \"#utility.yul\":12696:12723   */\n      mstore\n        /* \"#utility.yul\":12677:12725   */\n    tag_544:\n      pop\n        /* \"#utility.yul\":12741:12757   */\n      swap2\n      swap1\n      swap2\n      add\n      swap3\n        /* \"#utility.yul\":12337:12763   */\n      swap2\n      pop\n      pop\n      jump\t// out\n\n    auxdata: 0xa2646970667358221220acfa2b101d853fc27623bf7a4ca912c9daf16f9ae6a4145538c1c7bec940c3b564736f6c634300080d0033\n}\n",
				"bytecode": {
					"linkReferences": {},
					"object": "60a06040526005805460ff60a81b1916905534801561001d57600080fd5b5061002733610034565b6001805533608052610084565b600080546001600160a01b038381166001600160a01b0319831681178455604051919092169283917f8be0079c531659141344cd1fd0a4f28419497f9722a3daafe3b4186f6b6457e09190a35050565b6080516122a16100d06000396000818161030b01528181610412015281816105be01528181610a1401528181610b2c01528181610c7e0152818161150701526117b601526122a16000f3fe60806040526004361061010c5760003560e01c8063715018a61161009a578063c45a015511610061578063c45a0155146102f9578063c6ea70381461032d578063dab5a8df14610347578063e43372e914610367578063f2fde38b1461038b57005b8063715018a614610237578063895237421461024c5780638da5cb5b146102735780639d9a7fe9146102a5578063aa6ca808146102c457005b80633ccfd60b116100de5780633ccfd60b146101af5780633d370b4e146101c457806340a6f1ab146101ee5780634341f920146102045780635f5780e51461021757005b80630d1826051461011557806329dcb0cf146101355780632ffc68871461015e5780633072cf601461017e57005b3661011357005b005b34801561012157600080fd5b50610113610130366004611d14565b6103ab565b34801561014157600080fd5b5061014b60045481565b6040519081526020015b60405180910390f35b34801561016a57600080fd5b50610113610179366004611d14565b610560565b34801561018a57600080fd5b5060055461019f90600160a81b900460ff1681565b6040519015158152602001610155565b3480156101bb57600080fd5b50610113610702565b3480156101d057600080fd5b506101d9610a94565b60408051928352602083019190915201610155565b3480156101fa57600080fd5b5061014b60025481565b610113610212366004611d14565b610ace565b34801561022357600080fd5b5061019f610232366004611d57565b610c71565b34801561024357600080fd5b50610113610f1a565b34801561025857600080fd5b506005546102669060ff1681565b6040516101559190611df7565b34801561027f57600080fd5b506000546001600160a01b03165b6040516001600160a01b039091168152602001610155565b3480156102b157600080fd5b5060035461019f90610100900460ff1681565b3480156102d057600080fd5b506102d9610f50565b604080516001600160a01b03938416815292909116602083015201610155565b34801561030557600080fd5b5061028d7f000000000000000000000000000000000000000000000000000000000000000081565b34801561033957600080fd5b5060035461019f9060ff1681565b34801561035357600080fd5b5061014b610362366004611d14565b610f97565b34801561037357600080fd5b5061037c610fba565b60405161015593929190611e5a565b34801561039757600080fd5b506101136103a6366004611ecf565b6111e0565b42600454101580156103c05750600954600254105b6103e55760405162461bcd60e51b81526004016103dc90611ef1565b60405180910390fd5b600554600160a81b900460ff1661040e5760405162461bcd60e51b81526004016103dc90611f21565b60007f00000000000000000000000000000000000000000000000000000000000000009050806001600160a01b031663b187bd266040518163ffffffff1660e01b8152600401602060405180830381865afa158015610471573d6000803e3d6000fd5b505050506040513d601f19601f820116820180604052508101906104959190611f58565b156104b25760405162461bcd60e51b81526004016103dc90611f75565b60055460009060ff1660028111156104cc576104cc611de1565b8160028111156104de576104de611de1565b146104fb5760405162461bcd60e51b81526004016103dc90611fb7565b60026001540361051d5760405162461bcd60e51b81526004016103dc90611ff8565b600260015560035460ff1661054e5760095483101561054e5760405162461bcd60e51b81526004016103dc9061202f565b6105578361127b565b50506001805550565b42600454101580156105755750600954600254105b6105915760405162461bcd60e51b81526004016103dc90611ef1565b600554600160a81b900460ff166105ba5760405162461bcd60e51b81526004016103dc90611f21565b60007f00000000000000000000000000000000000000000000000000000000000000009050806001600160a01b031663b187bd266040518163ffffffff1660e01b8152600401602060405180830381865afa15801561061d573d6000803e3d6000fd5b505050506040513d601f19601f820116820180604052508101906106419190611f58565b1561065e5760405162461bcd60e51b81526004016103dc90611f75565b60055460029060ff168181111561067757610677611de1565b81600281111561068957610689611de1565b146106a65760405162461bcd60e51b81526004016103dc90611fb7565b6002600154036106c85760405162461bcd60e51b81526004016103dc90611ff8565b600260015560035460ff166106f9576009548310156106f95760405162461bcd60e51b81526004016103dc9061202f565b61055783611584565b426004541080610716575060095460025410155b6107595760405162461bcd60e51b8152602060048201526014602482015273537943726f774261727465723a2041435449564560601b60448201526064016103dc565b600554600160a81b900460ff166107825760405162461bcd60e51b81526004016103dc90611f21565b6000546001600160a01b031633146107ac5760405162461bcd60e51b81526004016103dc90612078565b6005546040516370a0823160e01b81523060048201526101009091046001600160a01b03169060009082906370a0823190602401602060405180830381865afa1580156107fd573d6000803e3d6000fd5b505050506040513d601f19601f8201168201806040525081019061082191906120ad565b9050801561089557600554604051632e1a7d4d60e01b8152600481018390526101009091046001600160a01b031690632e1a7d4d90602401600060405180830381600087803b15801561087357600080fd5b505af1158015610887573d6000803e3d6000fd5b505050506108953382611832565b6007546040516370a0823160e01b81523060048201526000916001600160a01b0316906370a0823190602401602060405180830381865afa1580156108de573d6000803e3d6000fd5b505050506040513d601f19601f8201168201806040525081019061090291906120ad565b9050801561092157600754610921906001600160a01b03163383611900565b6006546040516370a0823160e01b81523060048201526000916001600160a01b0316906370a0823190602401602060405180830381865afa15801561096a573d6000803e3d6000fd5b505050506040513d601f19601f8201168201806040525081019061098e91906120ad565b905080156109ad576006546109ad906001600160a01b03163383611900565b6000808060055460ff1660028111156109c8576109c8611de1565b036109d7575083905082610a05565b600260055460ff1660028111156109f0576109f0611de1565b036109ff575081905082610a05565b50819050835b6040516319bcb50760e11b81527f0000000000000000000000000000000000000000000000000000000000000000906001600160a01b038216906333796a0e90610a599030903390889088906004016120c6565b600060405180830381600087803b158015610a7357600080fd5b505af1158015610a87573d6000803e3d6000fd5b5050505050505050505050565b6005546000908190600160a81b900460ff16610ac25760405162461bcd60e51b81526004016103dc90611f21565b50506008546009549091565b4260045410158015610ae35750600954600254105b610aff5760405162461bcd60e51b81526004016103dc90611ef1565b600554600160a81b900460ff16610b285760405162461bcd60e51b81526004016103dc90611f21565b60007f00000000000000000000000000000000000000000000000000000000000000009050806001600160a01b031663b187bd266040518163ffffffff1660e01b8152600401602060405180830381865afa158015610b8b573d6000803e3d6000fd5b505050506040513d601f19601f82011682018060405250810190610baf9190611f58565b15610bcc5760405162461bcd60e51b81526004016103dc90611f75565b60055460019060ff166002811115610be657610be6611de1565b816002811115610bf857610bf8611de1565b14610c155760405162461bcd60e51b81526004016103dc90611fb7565b600260015403610c375760405162461bcd60e51b81526004016103dc90611ff8565b600260015560035460ff16610c6857600954341015610c685760405162461bcd60e51b81526004016103dc9061202f565b61055783611a1b565b6000336001600160a01b037f00000000000000000000000000000000000000000000000000000000000000001614610ceb5760405162461bcd60e51b815260206004820152601760248201527f537943726f774261727465723a20464f5242494444454e00000000000000000060448201526064016103dc565b600554600160a81b900460ff1615610d4f5760405162461bcd60e51b815260206004820152602160248201527f537943726f774261727465723a20414c52454144595f494e495449414c495a456044820152601160fa1b60648201526084016103dc565b42841015610d9f5760405162461bcd60e51b815260206004820152601b60248201527f537943726f774261727465723a20504153545f444541444c494e45000000000060448201526064016103dc565b6040516370a0823160e01b815230600482015286906001600160a01b038a16906370a0823190602401602060405180830381865afa158015610de5573d6000803e3d6000fd5b505050506040513d601f19601f82011682018060405250810190610e0991906120ad565b1015610e625760405162461bcd60e51b815260206004820152602260248201527f537943726f774261727465723a20494e53554646494349454e545f4445504f53604482015261125560f21b60648201526084016103dc565b6004849055600680546001600160a01b03808b166001600160a01b03199283161790925560078054928a169290911691909117905560088690556009859055600580548a919060ff19166001836002811115610ec057610ec0611de1565b0217905550506003805483151560ff199091161790556005805460ff60a81b196001600160a01b0384166101000216610100600160b01b031990911617600160a81b90811791829055900460ff1698975050505050505050565b6000546001600160a01b03163314610f445760405162461bcd60e51b81526004016103dc90612078565b610f4e6000611b94565b565b6005546000908190600160a81b900460ff16610f7e5760405162461bcd60e51b81526004016103dc90611f21565b50506006546007546001600160a01b0391821691169091565b600060095460085483610faa9190612105565b610fb49190612124565b92915050565b6060806060600560159054906101000a900460ff16610feb5760405162461bcd60e51b81526004016103dc90611f21565b600a5460009067ffffffffffffffff81111561100957611009612146565b604051908082528060200260200182016040528015611032578160200160208202803683370190505b50600a5490915060009067ffffffffffffffff81111561105457611054612146565b60405190808252806020026020018201604052801561107d578160200160208202803683370190505b50600a5490915060009067ffffffffffffffff81111561109f5761109f612146565b6040519080825280602002602001820160405280156110c8578160200160208202803683370190505b50905060005b600a548110156111d357600a81815481106110eb576110eb61215c565b600091825260209091206003909102015484516001600160a01b039091169085908390811061111c5761111c61215c565b60200260200101906001600160a01b031690816001600160a01b031681525050600a818154811061114f5761114f61215c565b9060005260206000209060030201600101548382815181106111735761117361215c565b602002602001018181525050600a81815481106111925761119261215c565b9060005260206000209060030201600201548282815181106111b6576111b661215c565b6020908102919091010152806111cb81612172565b9150506110ce565b5091945092509050909192565b6000546001600160a01b0316331461120a5760405162461bcd60e51b81526004016103dc90612078565b6001600160a01b03811661126f5760405162461bcd60e51b815260206004820152602660248201527f4f776e61626c653a206e6577206f776e657220697320746865207a65726f206160448201526564647265737360d01b60648201526084016103dc565b61127881611b94565b50565b6007546040516370a0823160e01b815233600482015282916001600160a01b0316906370a0823190602401602060405180830381865afa1580156112c3573d6000803e3d6000fd5b505050506040513d601f19601f820116820180604052508101906112e791906120ad565b10156113055760405162461bcd60e51b81526004016103dc9061218b565b600061131082610f97565b6005546040516370a0823160e01b815230600482015291925061010090046001600160a01b031690829082906370a0823190602401602060405180830381865afa158015611362573d6000803e3d6000fd5b505050506040513d601f19601f8201168201806040525081019061138691906120ad565b10156113a45760405162461bcd60e51b81526004016103dc906121cd565b6007546113bc906001600160a01b0316333086611be4565b600554604051632e1a7d4d60e01b8152600481018490526101009091046001600160a01b031690632e1a7d4d90602401600060405180830381600087803b15801561140657600080fd5b505af115801561141a573d6000803e3d6000fd5b505050506114283383611832565b6040805160608101825233815260208101858152918101848152600a805460018101825560009190915291517fc65a7bb8d6351c1cf70c95a316cc6a92839c986682d98bc35f958f4883f9d2a8600390930292830180546001600160a01b0319166001600160a01b0390921691909117905591517fc65a7bb8d6351c1cf70c95a316cc6a92839c986682d98bc35f958f4883f9d2a982015590517fc65a7bb8d6351c1cf70c95a316cc6a92839c986682d98bc35f958f4883f9d2aa909101556002546114f5908490612218565b60025560405163f52701b760e01b81527f0000000000000000000000000000000000000000000000000000000000000000906001600160a01b0382169063f52701b79061154c9030903390899089906004016120c6565b600060405180830381600087803b15801561156657600080fd5b505af115801561157a573d6000803e3d6000fd5b5050505050505050565b6007546040516370a0823160e01b815233600482015282916001600160a01b0316906370a0823190602401602060405180830381865afa1580156115cc573d6000803e3d6000fd5b505050506040513d601f19601f820116820180604052508101906115f091906120ad565b101561160e5760405162461bcd60e51b81526004016103dc9061218b565b600061161982610f97565b6006546040516370a0823160e01b815230600482015291925082916001600160a01b03909116906370a0823190602401602060405180830381865afa158015611666573d6000803e3d6000fd5b505050506040513d601f19601f8201168201806040525081019061168a91906120ad565b10156116a85760405162461bcd60e51b81526004016103dc906121cd565b6007546116c0906001600160a01b0316333085611be4565b6006546116d7906001600160a01b03163383611900565b6040805160608101825233815260208101848152918101838152600a805460018101825560009190915291517fc65a7bb8d6351c1cf70c95a316cc6a92839c986682d98bc35f958f4883f9d2a8600390930292830180546001600160a01b0319166001600160a01b0390921691909117905591517fc65a7bb8d6351c1cf70c95a316cc6a92839c986682d98bc35f958f4883f9d2a982015590517fc65a7bb8d6351c1cf70c95a316cc6a92839c986682d98bc35f958f4883f9d2aa909101556002546117a4908390612218565b60025560405163f52701b760e01b81527f0000000000000000000000000000000000000000000000000000000000000000906001600160a01b0382169063f52701b7906117fb9030903390889088906004016120c6565b600060405180830381600087803b15801561181557600080fd5b505af1158015611829573d6000803e3d6000fd5b50505050505050565b604080516000808252602082019092526001600160a01b03841690839060405161185c9190612230565b60006040518083038185875af1925050503d8060008114611899576040519150601f19603f3d011682016040523d82523d6000602084013e61189e565b606091505b50509050806118fb5760405162461bcd60e51b815260206004820152602360248201527f5472616e7366657248656c7065723a204554485f5452414e534645525f46414960448201526213115160ea1b60648201526084016103dc565b505050565b604080516001600160a01b038481166024830152604480830185905283518084039091018152606490920183526020820180516001600160e01b031663a9059cbb60e01b179052915160009283929087169161195c9190612230565b6000604051808303816000865af19150503d8060008114611999576040519150601f19603f3d011682016040523d82523d6000602084013e61199e565b606091505b50915091508180156119c85750805115806119c85750808060200190518101906119c89190611f58565b611a145760405162461bcd60e51b815260206004820152601f60248201527f5472616e7366657248656c7065723a205452414e534645525f4641494c45440060448201526064016103dc565b5050505050565b348114611a785760405162461bcd60e51b815260206004820152602560248201527f537943726f774261727465723a204d554c54495f54524144455f4e4f545f454e604482015264105093115160da1b60648201526084016103dc565b6000611a8382610f97565b6006546040516370a0823160e01b815230600482015291925082916001600160a01b03909116906370a0823190602401602060405180830381865afa158015611ad0573d6000803e3d6000fd5b505050506040513d601f19601f82011682018060405250810190611af491906120ad565b1015611b125760405162461bcd60e51b81526004016103dc906121cd565b600560019054906101000a90046001600160a01b03166001600160a01b031663d0e30db0836040518263ffffffff1660e01b81526004016000604051808303818588803b158015611b6257600080fd5b505af1158015611b76573d6000803e3d6000fd5b50506006546116d793506001600160a01b0316915033905083611900565b600080546001600160a01b038381166001600160a01b0319831681178455604051919092169283917f8be0079c531659141344cd1fd0a4f28419497f9722a3daafe3b4186f6b6457e09190a35050565b604080516001600160a01b0385811660248301528481166044830152606480830185905283518084039091018152608490920183526020820180516001600160e01b03166323b872dd60e01b1790529151600092839290881691611c489190612230565b6000604051808303816000865af19150503d8060008114611c85576040519150601f19603f3d011682016040523d82523d6000602084013e611c8a565b606091505b5091509150818015611cb4575080511580611cb4575080806020019051810190611cb49190611f58565b611d0c5760405162461bcd60e51b8152602060048201526024808201527f5472616e7366657248656c7065723a205452414e534645525f46524f4d5f46416044820152631253115160e21b60648201526084016103dc565b505050505050565b600060208284031215611d2657600080fd5b5035919050565b80356001600160a01b0381168114611d4457600080fd5b919050565b801515811461127857600080fd5b600080600080600080600080610100898b031215611d7457600080fd5b883560038110611d8357600080fd5b9750611d9160208a01611d2d565b9650611d9f60408a01611d2d565b9550606089013594506080890135935060a0890135925060c0890135611dc481611d49565b9150611dd260e08a01611d2d565b90509295985092959890939650565b634e487b7160e01b600052602160045260246000fd5b6020810160038310611e1957634e487b7160e01b600052602160045260246000fd5b91905290565b600081518084526020808501945080840160005b83811015611e4f57815187529582019590820190600101611e33565b509495945050505050565b606080825284519082018190526000906020906080840190828801845b82811015611e9c5781516001600160a01b031684529284019290840190600101611e77565b50505083810382850152611eb08187611e1f565b9150508281036040840152611ec58185611e1f565b9695505050505050565b600060208284031215611ee157600080fd5b611eea82611d2d565b9392505050565b602080825260169082015275537943726f774261727465723a20494e41435449564560501b604082015260600190565b6020808252601d908201527f537943726f774261727465723a204e4f545f494e495449414c495a4544000000604082015260600190565b600060208284031215611f6a57600080fd5b8151611eea81611d49565b60208082526022908201527f537943726f774261727465723a204261736520436f6e74726163742050617573604082015261195960f21b606082015260800190565b60208082526021908201527f537943726f774261727465723a20494e56414c49445f4241525445525f5459506040820152604560f81b606082015260800190565b6020808252601f908201527f5265656e7472616e637947756172643a207265656e7472616e742063616c6c00604082015260600190565b60208082526029908201527f537943726f774261727465723a20414d4f554e545f4c4f5745525f5448414e5f60408201526814915455549254915160ba1b606082015260800190565b6020808252818101527f4f776e61626c653a2063616c6c6572206973206e6f7420746865206f776e6572604082015260600190565b6000602082840312156120bf57600080fd5b5051919050565b6001600160a01b0394851681529290931660208301526040820152606081019190915260800190565b634e487b7160e01b600052601160045260246000fd5b600081600019048311821515161561211f5761211f6120ef565b500290565b60008261214157634e487b7160e01b600052601260045260246000fd5b500490565b634e487b7160e01b600052604160045260246000fd5b634e487b7160e01b600052603260045260246000fd5b600060018201612184576121846120ef565b5060010190565b60208082526022908201527f537943726f774261727465723a20494e53554646494349454e545f42414c414e604082015261434560f01b606082015260800190565b6020808252602b908201527f537943726f774261727465723a20494e53554646494349454e545f434f4e545260408201526a4143545f42414c414e434560a81b606082015260800190565b6000821982111561222b5761222b6120ef565b500190565b6000825160005b818110156122515760208186018101518583015201612237565b81811115612260576000828501525b50919091019291505056fea2646970667358221220acfa2b101d853fc27623bf7a4ca912c9daf16f9ae6a4145538c1c7bec940c3b564736f6c634300080d0033",
					"opcodes": "PUSH1 0xA0 PUSH1 0x40 MSTORE PUSH1 0x5 DUP1 SLOAD PUSH1 0xFF PUSH1 0xA8 SHL NOT AND SWAP1 SSTORE CALLVALUE DUP1 ISZERO PUSH2 0x1D JUMPI PUSH1 0x0 DUP1 REVERT JUMPDEST POP PUSH2 0x27 CALLER PUSH2 0x34 JUMP JUMPDEST PUSH1 0x1 DUP1 SSTORE CALLER PUSH1 0x80 MSTORE PUSH2 0x84 JUMP JUMPDEST PUSH1 0x0 DUP1 SLOAD PUSH1 0x1 PUSH1 0x1 PUSH1 0xA0 SHL SUB DUP4 DUP2 AND PUSH1 0x1 PUSH1 0x1 PUSH1 0xA0 SHL SUB NOT DUP4 AND DUP2 OR DUP5 SSTORE PUSH1 0x40 MLOAD SWAP2 SWAP1 SWAP3 AND SWAP3 DUP4 SWAP2 PUSH32 0x8BE0079C531659141344CD1FD0A4F28419497F9722A3DAAFE3B4186F6B6457E0 SWAP2 SWAP1 LOG3 POP POP JUMP JUMPDEST PUSH1 0x80 MLOAD PUSH2 0x22A1 PUSH2 0xD0 PUSH1 0x0 CODECOPY PUSH1 0x0 DUP2 DUP2 PUSH2 0x30B ADD MSTORE DUP2 DUP2 PUSH2 0x412 ADD MSTORE DUP2 DUP2 PUSH2 0x5BE ADD MSTORE DUP2 DUP2 PUSH2 0xA14 ADD MSTORE DUP2 DUP2 PUSH2 0xB2C ADD MSTORE DUP2 DUP2 PUSH2 0xC7E ADD MSTORE DUP2 DUP2 PUSH2 0x1507 ADD MSTORE PUSH2 0x17B6 ADD MSTORE PUSH2 0x22A1 PUSH1 0x0 RETURN INVALID PUSH1 0x80 PUSH1 0x40 MSTORE PUSH1 0x4 CALLDATASIZE LT PUSH2 0x10C JUMPI PUSH1 0x0 CALLDATALOAD PUSH1 0xE0 SHR DUP1 PUSH4 0x715018A6 GT PUSH2 0x9A JUMPI DUP1 PUSH4 0xC45A0155 GT PUSH2 0x61 JUMPI DUP1 PUSH4 0xC45A0155 EQ PUSH2 0x2F9 JUMPI DUP1 PUSH4 0xC6EA7038 EQ PUSH2 0x32D JUMPI DUP1 PUSH4 0xDAB5A8DF EQ PUSH2 0x347 JUMPI DUP1 PUSH4 0xE43372E9 EQ PUSH2 0x367 JUMPI DUP1 PUSH4 0xF2FDE38B EQ PUSH2 0x38B JUMPI STOP JUMPDEST DUP1 PUSH4 0x715018A6 EQ PUSH2 0x237 JUMPI DUP1 PUSH4 0x89523742 EQ PUSH2 0x24C JUMPI DUP1 PUSH4 0x8DA5CB5B EQ PUSH2 0x273 JUMPI DUP1 PUSH4 0x9D9A7FE9 EQ PUSH2 0x2A5 JUMPI DUP1 PUSH4 0xAA6CA808 EQ PUSH2 0x2C4 JUMPI STOP JUMPDEST DUP1 PUSH4 0x3CCFD60B GT PUSH2 0xDE JUMPI DUP1 PUSH4 0x3CCFD60B EQ PUSH2 0x1AF JUMPI DUP1 PUSH4 0x3D370B4E EQ PUSH2 0x1C4 JUMPI DUP1 PUSH4 0x40A6F1AB EQ PUSH2 0x1EE JUMPI DUP1 PUSH4 0x4341F920 EQ PUSH2 0x204 JUMPI DUP1 PUSH4 0x5F5780E5 EQ PUSH2 0x217 JUMPI STOP JUMPDEST DUP1 PUSH4 0xD182605 EQ PUSH2 0x115 JUMPI DUP1 PUSH4 0x29DCB0CF EQ PUSH2 0x135 JUMPI DUP1 PUSH4 0x2FFC6887 EQ PUSH2 0x15E JUMPI DUP1 PUSH4 0x3072CF60 EQ PUSH2 0x17E JUMPI STOP JUMPDEST CALLDATASIZE PUSH2 0x113 JUMPI STOP JUMPDEST STOP JUMPDEST CALLVALUE DUP1 ISZERO PUSH2 0x121 JUMPI PUSH1 0x0 DUP1 REVERT JUMPDEST POP PUSH2 0x113 PUSH2 0x130 CALLDATASIZE PUSH1 0x4 PUSH2 0x1D14 JUMP JUMPDEST PUSH2 0x3AB JUMP JUMPDEST CALLVALUE DUP1 ISZERO PUSH2 0x141 JUMPI PUSH1 0x0 DUP1 REVERT JUMPDEST POP PUSH2 0x14B PUSH1 0x4 SLOAD DUP2 JUMP JUMPDEST PUSH1 0x40 MLOAD SWAP1 DUP2 MSTORE PUSH1 0x20 ADD JUMPDEST PUSH1 0x40 MLOAD DUP1 SWAP2 SUB SWAP1 RETURN JUMPDEST CALLVALUE DUP1 ISZERO PUSH2 0x16A JUMPI PUSH1 0x0 DUP1 REVERT JUMPDEST POP PUSH2 0x113 PUSH2 0x179 CALLDATASIZE PUSH1 0x4 PUSH2 0x1D14 JUMP JUMPDEST PUSH2 0x560 JUMP JUMPDEST CALLVALUE DUP1 ISZERO PUSH2 0x18A JUMPI PUSH1 0x0 DUP1 REVERT JUMPDEST POP PUSH1 0x5 SLOAD PUSH2 0x19F SWAP1 PUSH1 0x1 PUSH1 0xA8 SHL SWAP1 DIV PUSH1 0xFF AND DUP2 JUMP JUMPDEST PUSH1 0x40 MLOAD SWAP1 ISZERO ISZERO DUP2 MSTORE PUSH1 0x20 ADD PUSH2 0x155 JUMP JUMPDEST CALLVALUE DUP1 ISZERO PUSH2 0x1BB JUMPI PUSH1 0x0 DUP1 REVERT JUMPDEST POP PUSH2 0x113 PUSH2 0x702 JUMP JUMPDEST CALLVALUE DUP1 ISZERO PUSH2 0x1D0 JUMPI PUSH1 0x0 DUP1 REVERT JUMPDEST POP PUSH2 0x1D9 PUSH2 0xA94 JUMP JUMPDEST PUSH1 0x40 DUP1 MLOAD SWAP3 DUP4 MSTORE PUSH1 0x20 DUP4 ADD SWAP2 SWAP1 SWAP2 MSTORE ADD PUSH2 0x155 JUMP JUMPDEST CALLVALUE DUP1 ISZERO PUSH2 0x1FA JUMPI PUSH1 0x0 DUP1 REVERT JUMPDEST POP PUSH2 0x14B PUSH1 0x2 SLOAD DUP2 JUMP JUMPDEST PUSH2 0x113 PUSH2 0x212 CALLDATASIZE PUSH1 0x4 PUSH2 0x1D14 JUMP JUMPDEST PUSH2 0xACE JUMP JUMPDEST CALLVALUE DUP1 ISZERO PUSH2 0x223 JUMPI PUSH1 0x0 DUP1 REVERT JUMPDEST POP PUSH2 0x19F PUSH2 0x232 CALLDATASIZE PUSH1 0x4 PUSH2 0x1D57 JUMP JUMPDEST PUSH2 0xC71 JUMP JUMPDEST CALLVALUE DUP1 ISZERO PUSH2 0x243 JUMPI PUSH1 0x0 DUP1 REVERT JUMPDEST POP PUSH2 0x113 PUSH2 0xF1A JUMP JUMPDEST CALLVALUE DUP1 ISZERO PUSH2 0x258 JUMPI PUSH1 0x0 DUP1 REVERT JUMPDEST POP PUSH1 0x5 SLOAD PUSH2 0x266 SWAP1 PUSH1 0xFF AND DUP2 JUMP JUMPDEST PUSH1 0x40 MLOAD PUSH2 0x155 SWAP2 SWAP1 PUSH2 0x1DF7 JUMP JUMPDEST CALLVALUE DUP1 ISZERO PUSH2 0x27F JUMPI PUSH1 0x0 DUP1 REVERT JUMPDEST POP PUSH1 0x0 SLOAD PUSH1 0x1 PUSH1 0x1 PUSH1 0xA0 SHL SUB AND JUMPDEST PUSH1 0x40 MLOAD PUSH1 0x1 PUSH1 0x1 PUSH1 0xA0 SHL SUB SWAP1 SWAP2 AND DUP2 MSTORE PUSH1 0x20 ADD PUSH2 0x155 JUMP JUMPDEST CALLVALUE DUP1 ISZERO PUSH2 0x2B1 JUMPI PUSH1 0x0 DUP1 REVERT JUMPDEST POP PUSH1 0x3 SLOAD PUSH2 0x19F SWAP1 PUSH2 0x100 SWAP1 DIV PUSH1 0xFF AND DUP2 JUMP JUMPDEST CALLVALUE DUP1 ISZERO PUSH2 0x2D0 JUMPI PUSH1 0x0 DUP1 REVERT JUMPDEST POP PUSH2 0x2D9 PUSH2 0xF50 JUMP JUMPDEST PUSH1 0x40 DUP1 MLOAD PUSH1 0x1 PUSH1 0x1 PUSH1 0xA0 SHL SUB SWAP4 DUP5 AND DUP2 MSTORE SWAP3 SWAP1 SWAP2 AND PUSH1 0x20 DUP4 ADD MSTORE ADD PUSH2 0x155 JUMP JUMPDEST CALLVALUE DUP1 ISZERO PUSH2 0x305 JUMPI PUSH1 0x0 DUP1 REVERT JUMPDEST POP PUSH2 0x28D PUSH32 0x0 DUP2 JUMP JUMPDEST CALLVALUE DUP1 ISZERO PUSH2 0x339 JUMPI PUSH1 0x0 DUP1 REVERT JUMPDEST POP PUSH1 0x3 SLOAD PUSH2 0x19F SWAP1 PUSH1 0xFF AND DUP2 JUMP JUMPDEST CALLVALUE DUP1 ISZERO PUSH2 0x353 JUMPI PUSH1 0x0 DUP1 REVERT JUMPDEST POP PUSH2 0x14B PUSH2 0x362 CALLDATASIZE PUSH1 0x4 PUSH2 0x1D14 JUMP JUMPDEST PUSH2 0xF97 JUMP JUMPDEST CALLVALUE DUP1 ISZERO PUSH2 0x373 JUMPI PUSH1 0x0 DUP1 REVERT JUMPDEST POP PUSH2 0x37C PUSH2 0xFBA JUMP JUMPDEST PUSH1 0x40 MLOAD PUSH2 0x155 SWAP4 SWAP3 SWAP2 SWAP1 PUSH2 0x1E5A JUMP JUMPDEST CALLVALUE DUP1 ISZERO PUSH2 0x397 JUMPI PUSH1 0x0 DUP1 REVERT JUMPDEST POP PUSH2 0x113 PUSH2 0x3A6 CALLDATASIZE PUSH1 0x4 PUSH2 0x1ECF JUMP JUMPDEST PUSH2 0x11E0 JUMP JUMPDEST TIMESTAMP PUSH1 0x4 SLOAD LT ISZERO DUP1 ISZERO PUSH2 0x3C0 JUMPI POP PUSH1 0x9 SLOAD PUSH1 0x2 SLOAD LT JUMPDEST PUSH2 0x3E5 JUMPI PUSH1 0x40 MLOAD PUSH3 0x461BCD PUSH1 0xE5 SHL DUP2 MSTORE PUSH1 0x4 ADD PUSH2 0x3DC SWAP1 PUSH2 0x1EF1 JUMP JUMPDEST PUSH1 0x40 MLOAD DUP1 SWAP2 SUB SWAP1 REVERT JUMPDEST PUSH1 0x5 SLOAD PUSH1 0x1 PUSH1 0xA8 SHL SWAP1 DIV PUSH1 0xFF AND PUSH2 0x40E JUMPI PUSH1 0x40 MLOAD PUSH3 0x461BCD PUSH1 0xE5 SHL DUP2 MSTORE PUSH1 0x4 ADD PUSH2 0x3DC SWAP1 PUSH2 0x1F21 JUMP JUMPDEST PUSH1 0x0 PUSH32 0x0 SWAP1 POP DUP1 PUSH1 0x1 PUSH1 0x1 PUSH1 0xA0 SHL SUB AND PUSH4 0xB187BD26 PUSH1 0x40 MLOAD DUP2 PUSH4 0xFFFFFFFF AND PUSH1 0xE0 SHL DUP2 MSTORE PUSH1 0x4 ADD PUSH1 0x20 PUSH1 0x40 MLOAD DUP1 DUP4 SUB DUP2 DUP7 GAS STATICCALL ISZERO DUP1 ISZERO PUSH2 0x471 JUMPI RETURNDATASIZE PUSH1 0x0 DUP1 RETURNDATACOPY RETURNDATASIZE PUSH1 0x0 REVERT JUMPDEST POP POP POP POP PUSH1 0x40 MLOAD RETURNDATASIZE PUSH1 0x1F NOT PUSH1 0x1F DUP3 ADD AND DUP3 ADD DUP1 PUSH1 0x40 MSTORE POP DUP2 ADD SWAP1 PUSH2 0x495 SWAP2 SWAP1 PUSH2 0x1F58 JUMP JUMPDEST ISZERO PUSH2 0x4B2 JUMPI PUSH1 0x40 MLOAD PUSH3 0x461BCD PUSH1 0xE5 SHL DUP2 MSTORE PUSH1 0x4 ADD PUSH2 0x3DC SWAP1 PUSH2 0x1F75 JUMP JUMPDEST PUSH1 0x5 SLOAD PUSH1 0x0 SWAP1 PUSH1 0xFF AND PUSH1 0x2 DUP2 GT ISZERO PUSH2 0x4CC JUMPI PUSH2 0x4CC PUSH2 0x1DE1 JUMP JUMPDEST DUP2 PUSH1 0x2 DUP2 GT ISZERO PUSH2 0x4DE JUMPI PUSH2 0x4DE PUSH2 0x1DE1 JUMP JUMPDEST EQ PUSH2 0x4FB JUMPI PUSH1 0x40 MLOAD PUSH3 0x461BCD PUSH1 0xE5 SHL DUP2 MSTORE PUSH1 0x4 ADD PUSH2 0x3DC SWAP1 PUSH2 0x1FB7 JUMP JUMPDEST PUSH1 0x2 PUSH1 0x1 SLOAD SUB PUSH2 0x51D JUMPI PUSH1 0x40 MLOAD PUSH3 0x461BCD PUSH1 0xE5 SHL DUP2 MSTORE PUSH1 0x4 ADD PUSH2 0x3DC SWAP1 PUSH2 0x1FF8 JUMP JUMPDEST PUSH1 0x2 PUSH1 0x1 SSTORE PUSH1 0x3 SLOAD PUSH1 0xFF AND PUSH2 0x54E JUMPI PUSH1 0x9 SLOAD DUP4 LT ISZERO PUSH2 0x54E JUMPI PUSH1 0x40 MLOAD PUSH3 0x461BCD PUSH1 0xE5 SHL DUP2 MSTORE PUSH1 0x4 ADD PUSH2 0x3DC SWAP1 PUSH2 0x202F JUMP JUMPDEST PUSH2 0x557 DUP4 PUSH2 0x127B JUMP JUMPDEST POP POP PUSH1 0x1 DUP1 SSTORE POP JUMP JUMPDEST TIMESTAMP PUSH1 0x4 SLOAD LT ISZERO DUP1 ISZERO PUSH2 0x575 JUMPI POP PUSH1 0x9 SLOAD PUSH1 0x2 SLOAD LT JUMPDEST PUSH2 0x591 JUMPI PUSH1 0x40 MLOAD PUSH3 0x461BCD PUSH1 0xE5 SHL DUP2 MSTORE PUSH1 0x4 ADD PUSH2 0x3DC SWAP1 PUSH2 0x1EF1 JUMP JUMPDEST PUSH1 0x5 SLOAD PUSH1 0x1 PUSH1 0xA8 SHL SWAP1 DIV PUSH1 0xFF AND PUSH2 0x5BA JUMPI PUSH1 0x40 MLOAD PUSH3 0x461BCD PUSH1 0xE5 SHL DUP2 MSTORE PUSH1 0x4 ADD PUSH2 0x3DC SWAP1 PUSH2 0x1F21 JUMP JUMPDEST PUSH1 0x0 PUSH32 0x0 SWAP1 POP DUP1 PUSH1 0x1 PUSH1 0x1 PUSH1 0xA0 SHL SUB AND PUSH4 0xB187BD26 PUSH1 0x40 MLOAD DUP2 PUSH4 0xFFFFFFFF AND PUSH1 0xE0 SHL DUP2 MSTORE PUSH1 0x4 ADD PUSH1 0x20 PUSH1 0x40 MLOAD DUP1 DUP4 SUB DUP2 DUP7 GAS STATICCALL ISZERO DUP1 ISZERO PUSH2 0x61D JUMPI RETURNDATASIZE PUSH1 0x0 DUP1 RETURNDATACOPY RETURNDATASIZE PUSH1 0x0 REVERT JUMPDEST POP POP POP POP PUSH1 0x40 MLOAD RETURNDATASIZE PUSH1 0x1F NOT PUSH1 0x1F DUP3 ADD AND DUP3 ADD DUP1 PUSH1 0x40 MSTORE POP DUP2 ADD SWAP1 PUSH2 0x641 SWAP2 SWAP1 PUSH2 0x1F58 JUMP JUMPDEST ISZERO PUSH2 0x65E JUMPI PUSH1 0x40 MLOAD PUSH3 0x461BCD PUSH1 0xE5 SHL DUP2 MSTORE PUSH1 0x4 ADD PUSH2 0x3DC SWAP1 PUSH2 0x1F75 JUMP JUMPDEST PUSH1 0x5 SLOAD PUSH1 0x2 SWAP1 PUSH1 0xFF AND DUP2 DUP2 GT ISZERO PUSH2 0x677 JUMPI PUSH2 0x677 PUSH2 0x1DE1 JUMP JUMPDEST DUP2 PUSH1 0x2 DUP2 GT ISZERO PUSH2 0x689 JUMPI PUSH2 0x689 PUSH2 0x1DE1 JUMP JUMPDEST EQ PUSH2 0x6A6 JUMPI PUSH1 0x40 MLOAD PUSH3 0x461BCD PUSH1 0xE5 SHL DUP2 MSTORE PUSH1 0x4 ADD PUSH2 0x3DC SWAP1 PUSH2 0x1FB7 JUMP JUMPDEST PUSH1 0x2 PUSH1 0x1 SLOAD SUB PUSH2 0x6C8 JUMPI PUSH1 0x40 MLOAD PUSH3 0x461BCD PUSH1 0xE5 SHL DUP2 MSTORE PUSH1 0x4 ADD PUSH2 0x3DC SWAP1 PUSH2 0x1FF8 JUMP JUMPDEST PUSH1 0x2 PUSH1 0x1 SSTORE PUSH1 0x3 SLOAD PUSH1 0xFF AND PUSH2 0x6F9 JUMPI PUSH1 0x9 SLOAD DUP4 LT ISZERO PUSH2 0x6F9 JUMPI PUSH1 0x40 MLOAD PUSH3 0x461BCD PUSH1 0xE5 SHL DUP2 MSTORE PUSH1 0x4 ADD PUSH2 0x3DC SWAP1 PUSH2 0x202F JUMP JUMPDEST PUSH2 0x557 DUP4 PUSH2 0x1584 JUMP JUMPDEST TIMESTAMP PUSH1 0x4 SLOAD LT DUP1 PUSH2 0x716 JUMPI POP PUSH1 0x9 SLOAD PUSH1 0x2 SLOAD LT ISZERO JUMPDEST PUSH2 0x759 JUMPI PUSH1 0x40 MLOAD PUSH3 0x461BCD PUSH1 0xE5 SHL DUP2 MSTORE PUSH1 0x20 PUSH1 0x4 DUP3 ADD MSTORE PUSH1 0x14 PUSH1 0x24 DUP3 ADD MSTORE PUSH20 0x537943726F774261727465723A20414354495645 PUSH1 0x60 SHL PUSH1 0x44 DUP3 ADD MSTORE PUSH1 0x64 ADD PUSH2 0x3DC JUMP JUMPDEST PUSH1 0x5 SLOAD PUSH1 0x1 PUSH1 0xA8 SHL SWAP1 DIV PUSH1 0xFF AND PUSH2 0x782 JUMPI PUSH1 0x40 MLOAD PUSH3 0x461BCD PUSH1 0xE5 SHL DUP2 MSTORE PUSH1 0x4 ADD PUSH2 0x3DC SWAP1 PUSH2 0x1F21 JUMP JUMPDEST PUSH1 0x0 SLOAD PUSH1 0x1 PUSH1 0x1 PUSH1 0xA0 SHL SUB AND CALLER EQ PUSH2 0x7AC JUMPI PUSH1 0x40 MLOAD PUSH3 0x461BCD PUSH1 0xE5 SHL DUP2 MSTORE PUSH1 0x4 ADD PUSH2 0x3DC SWAP1 PUSH2 0x2078 JUMP JUMPDEST PUSH1 0x5 SLOAD PUSH1 0x40 MLOAD PUSH4 0x70A08231 PUSH1 0xE0 SHL DUP2 MSTORE ADDRESS PUSH1 0x4 DUP3 ADD MSTORE PUSH2 0x100 SWAP1 SWAP2 DIV PUSH1 0x1 PUSH1 0x1 PUSH1 0xA0 SHL SUB AND SWAP1 PUSH1 0x0 SWAP1 DUP3 SWAP1 PUSH4 0x70A08231 SWAP1 PUSH1 0x24 ADD PUSH1 0x20 PUSH1 0x40 MLOAD DUP1 DUP4 SUB DUP2 DUP7 GAS STATICCALL ISZERO DUP1 ISZERO PUSH2 0x7FD JUMPI RETURNDATASIZE PUSH1 0x0 DUP1 RETURNDATACOPY RETURNDATASIZE PUSH1 0x0 REVERT JUMPDEST POP POP POP POP PUSH1 0x40 MLOAD RETURNDATASIZE PUSH1 0x1F NOT PUSH1 0x1F DUP3 ADD AND DUP3 ADD DUP1 PUSH1 0x40 MSTORE POP DUP2 ADD SWAP1 PUSH2 0x821 SWAP2 SWAP1 PUSH2 0x20AD JUMP JUMPDEST SWAP1 POP DUP1 ISZERO PUSH2 0x895 JUMPI PUSH1 0x5 SLOAD PUSH1 0x40 MLOAD PUSH4 0x2E1A7D4D PUSH1 0xE0 SHL DUP2 MSTORE PUSH1 0x4 DUP2 ADD DUP4 SWAP1 MSTORE PUSH2 0x100 SWAP1 SWAP2 DIV PUSH1 0x1 PUSH1 0x1 PUSH1 0xA0 SHL SUB AND SWAP1 PUSH4 0x2E1A7D4D SWAP1 PUSH1 0x24 ADD PUSH1 0x0 PUSH1 0x40 MLOAD DUP1 DUP4 SUB DUP2 PUSH1 0x0 DUP8 DUP1 EXTCODESIZE ISZERO DUP1 ISZERO PUSH2 0x873 JUMPI PUSH1 0x0 DUP1 REVERT JUMPDEST POP GAS CALL ISZERO DUP1 ISZERO PUSH2 0x887 JUMPI RETURNDATASIZE PUSH1 0x0 DUP1 RETURNDATACOPY RETURNDATASIZE PUSH1 0x0 REVERT JUMPDEST POP POP POP POP PUSH2 0x895 CALLER DUP3 PUSH2 0x1832 JUMP JUMPDEST PUSH1 0x7 SLOAD PUSH1 0x40 MLOAD PUSH4 0x70A08231 PUSH1 0xE0 SHL DUP2 MSTORE ADDRESS PUSH1 0x4 DUP3 ADD MSTORE PUSH1 0x0 SWAP2 PUSH1 0x1 PUSH1 0x1 PUSH1 0xA0 SHL SUB AND SWAP1 PUSH4 0x70A08231 SWAP1 PUSH1 0x24 ADD PUSH1 0x20 PUSH1 0x40 MLOAD DUP1 DUP4 SUB DUP2 DUP7 GAS STATICCALL ISZERO DUP1 ISZERO PUSH2 0x8DE JUMPI RETURNDATASIZE PUSH1 0x0 DUP1 RETURNDATACOPY RETURNDATASIZE PUSH1 0x0 REVERT JUMPDEST POP POP POP POP PUSH1 0x40 MLOAD RETURNDATASIZE PUSH1 0x1F NOT PUSH1 0x1F DUP3 ADD AND DUP3 ADD DUP1 PUSH1 0x40 MSTORE POP DUP2 ADD SWAP1 PUSH2 0x902 SWAP2 SWAP1 PUSH2 0x20AD JUMP JUMPDEST SWAP1 POP DUP1 ISZERO PUSH2 0x921 JUMPI PUSH1 0x7 SLOAD PUSH2 0x921 SWAP1 PUSH1 0x1 PUSH1 0x1 PUSH1 0xA0 SHL SUB AND CALLER DUP4 PUSH2 0x1900 JUMP JUMPDEST PUSH1 0x6 SLOAD PUSH1 0x40 MLOAD PUSH4 0x70A08231 PUSH1 0xE0 SHL DUP2 MSTORE ADDRESS PUSH1 0x4 DUP3 ADD MSTORE PUSH1 0x0 SWAP2 PUSH1 0x1 PUSH1 0x1 PUSH1 0xA0 SHL SUB AND SWAP1 PUSH4 0x70A08231 SWAP1 PUSH1 0x24 ADD PUSH1 0x20 PUSH1 0x40 MLOAD DUP1 DUP4 SUB DUP2 DUP7 GAS STATICCALL ISZERO DUP1 ISZERO PUSH2 0x96A JUMPI RETURNDATASIZE PUSH1 0x0 DUP1 RETURNDATACOPY RETURNDATASIZE PUSH1 0x0 REVERT JUMPDEST POP POP POP POP PUSH1 0x40 MLOAD RETURNDATASIZE PUSH1 0x1F NOT PUSH1 0x1F DUP3 ADD AND DUP3 ADD DUP1 PUSH1 0x40 MSTORE POP DUP2 ADD SWAP1 PUSH2 0x98E SWAP2 SWAP1 PUSH2 0x20AD JUMP JUMPDEST SWAP1 POP DUP1 ISZERO PUSH2 0x9AD JUMPI PUSH1 0x6 SLOAD PUSH2 0x9AD SWAP1 PUSH1 0x1 PUSH1 0x1 PUSH1 0xA0 SHL SUB AND CALLER DUP4 PUSH2 0x1900 JUMP JUMPDEST PUSH1 0x0 DUP1 DUP1 PUSH1 0x5 SLOAD PUSH1 0xFF AND PUSH1 0x2 DUP2 GT ISZERO PUSH2 0x9C8 JUMPI PUSH2 0x9C8 PUSH2 0x1DE1 JUMP JUMPDEST SUB PUSH2 0x9D7 JUMPI POP DUP4 SWAP1 POP DUP3 PUSH2 0xA05 JUMP JUMPDEST PUSH1 0x2 PUSH1 0x5 SLOAD PUSH1 0xFF AND PUSH1 0x2 DUP2 GT ISZERO PUSH2 0x9F0 JUMPI PUSH2 0x9F0 PUSH2 0x1DE1 JUMP JUMPDEST SUB PUSH2 0x9FF JUMPI POP DUP2 SWAP1 POP DUP3 PUSH2 0xA05 JUMP JUMPDEST POP DUP2 SWAP1 POP DUP4 JUMPDEST PUSH1 0x40 MLOAD PUSH4 0x19BCB507 PUSH1 0xE1 SHL DUP2 MSTORE PUSH32 0x0 SWAP1 PUSH1 0x1 PUSH1 0x1 PUSH1 0xA0 SHL SUB DUP3 AND SWAP1 PUSH4 0x33796A0E SWAP1 PUSH2 0xA59 SWAP1 ADDRESS SWAP1 CALLER SWAP1 DUP9 SWAP1 DUP9 SWAP1 PUSH1 0x4 ADD PUSH2 0x20C6 JUMP JUMPDEST PUSH1 0x0 PUSH1 0x40 MLOAD DUP1 DUP4 SUB DUP2 PUSH1 0x0 DUP8 DUP1 EXTCODESIZE ISZERO DUP1 ISZERO PUSH2 0xA73 JUMPI PUSH1 0x0 DUP1 REVERT JUMPDEST POP GAS CALL ISZERO DUP1 ISZERO PUSH2 0xA87 JUMPI RETURNDATASIZE PUSH1 0x0 DUP1 RETURNDATACOPY RETURNDATASIZE PUSH1 0x0 REVERT JUMPDEST POP POP POP POP POP POP POP POP POP POP POP JUMP JUMPDEST PUSH1 0x5 SLOAD PUSH1 0x0 SWAP1 DUP2 SWAP1 PUSH1 0x1 PUSH1 0xA8 SHL SWAP1 DIV PUSH1 0xFF AND PUSH2 0xAC2 JUMPI PUSH1 0x40 MLOAD PUSH3 0x461BCD PUSH1 0xE5 SHL DUP2 MSTORE PUSH1 0x4 ADD PUSH2 0x3DC SWAP1 PUSH2 0x1F21 JUMP JUMPDEST POP POP PUSH1 0x8 SLOAD PUSH1 0x9 SLOAD SWAP1 SWAP2 JUMP JUMPDEST TIMESTAMP PUSH1 0x4 SLOAD LT ISZERO DUP1 ISZERO PUSH2 0xAE3 JUMPI POP PUSH1 0x9 SLOAD PUSH1 0x2 SLOAD LT JUMPDEST PUSH2 0xAFF JUMPI PUSH1 0x40 MLOAD PUSH3 0x461BCD PUSH1 0xE5 SHL DUP2 MSTORE PUSH1 0x4 ADD PUSH2 0x3DC SWAP1 PUSH2 0x1EF1 JUMP JUMPDEST PUSH1 0x5 SLOAD PUSH1 0x1 PUSH1 0xA8 SHL SWAP1 DIV PUSH1 0xFF AND PUSH2 0xB28 JUMPI PUSH1 0x40 MLOAD PUSH3 0x461BCD PUSH1 0xE5 SHL DUP2 MSTORE PUSH1 0x4 ADD PUSH2 0x3DC SWAP1 PUSH2 0x1F21 JUMP JUMPDEST PUSH1 0x0 PUSH32 0x0 SWAP1 POP DUP1 PUSH1 0x1 PUSH1 0x1 PUSH1 0xA0 SHL SUB AND PUSH4 0xB187BD26 PUSH1 0x40 MLOAD DUP2 PUSH4 0xFFFFFFFF AND PUSH1 0xE0 SHL DUP2 MSTORE PUSH1 0x4 ADD PUSH1 0x20 PUSH1 0x40 MLOAD DUP1 DUP4 SUB DUP2 DUP7 GAS STATICCALL ISZERO DUP1 ISZERO PUSH2 0xB8B JUMPI RETURNDATASIZE PUSH1 0x0 DUP1 RETURNDATACOPY RETURNDATASIZE PUSH1 0x0 REVERT JUMPDEST POP POP POP POP PUSH1 0x40 MLOAD RETURNDATASIZE PUSH1 0x1F NOT PUSH1 0x1F DUP3 ADD AND DUP3 ADD DUP1 PUSH1 0x40 MSTORE POP DUP2 ADD SWAP1 PUSH2 0xBAF SWAP2 SWAP1 PUSH2 0x1F58 JUMP JUMPDEST ISZERO PUSH2 0xBCC JUMPI PUSH1 0x40 MLOAD PUSH3 0x461BCD PUSH1 0xE5 SHL DUP2 MSTORE PUSH1 0x4 ADD PUSH2 0x3DC SWAP1 PUSH2 0x1F75 JUMP JUMPDEST PUSH1 0x5 SLOAD PUSH1 0x1 SWAP1 PUSH1 0xFF AND PUSH1 0x2 DUP2 GT ISZERO PUSH2 0xBE6 JUMPI PUSH2 0xBE6 PUSH2 0x1DE1 JUMP JUMPDEST DUP2 PUSH1 0x2 DUP2 GT ISZERO PUSH2 0xBF8 JUMPI PUSH2 0xBF8 PUSH2 0x1DE1 JUMP JUMPDEST EQ PUSH2 0xC15 JUMPI PUSH1 0x40 MLOAD PUSH3 0x461BCD PUSH1 0xE5 SHL DUP2 MSTORE PUSH1 0x4 ADD PUSH2 0x3DC SWAP1 PUSH2 0x1FB7 JUMP JUMPDEST PUSH1 0x2 PUSH1 0x1 SLOAD SUB PUSH2 0xC37 JUMPI PUSH1 0x40 MLOAD PUSH3 0x461BCD PUSH1 0xE5 SHL DUP2 MSTORE PUSH1 0x4 ADD PUSH2 0x3DC SWAP1 PUSH2 0x1FF8 JUMP JUMPDEST PUSH1 0x2 PUSH1 0x1 SSTORE PUSH1 0x3 SLOAD PUSH1 0xFF AND PUSH2 0xC68 JUMPI PUSH1 0x9 SLOAD CALLVALUE LT ISZERO PUSH2 0xC68 JUMPI PUSH1 0x40 MLOAD PUSH3 0x461BCD PUSH1 0xE5 SHL DUP2 MSTORE PUSH1 0x4 ADD PUSH2 0x3DC SWAP1 PUSH2 0x202F JUMP JUMPDEST PUSH2 0x557 DUP4 PUSH2 0x1A1B JUMP JUMPDEST PUSH1 0x0 CALLER PUSH1 0x1 PUSH1 0x1 PUSH1 0xA0 SHL SUB PUSH32 0x0 AND EQ PUSH2 0xCEB JUMPI PUSH1 0x40 MLOAD PUSH3 0x461BCD PUSH1 0xE5 SHL DUP2 MSTORE PUSH1 0x20 PUSH1 0x4 DUP3 ADD MSTORE PUSH1 0x17 PUSH1 0x24 DUP3 ADD MSTORE PUSH32 0x537943726F774261727465723A20464F5242494444454E000000000000000000 PUSH1 0x44 DUP3 ADD MSTORE PUSH1 0x64 ADD PUSH2 0x3DC JUMP JUMPDEST PUSH1 0x5 SLOAD PUSH1 0x1 PUSH1 0xA8 SHL SWAP1 DIV PUSH1 0xFF AND ISZERO PUSH2 0xD4F JUMPI PUSH1 0x40 MLOAD PUSH3 0x461BCD PUSH1 0xE5 SHL DUP2 MSTORE PUSH1 0x20 PUSH1 0x4 DUP3 ADD MSTORE PUSH1 0x21 PUSH1 0x24 DUP3 ADD MSTORE PUSH32 0x537943726F774261727465723A20414C52454144595F494E495449414C495A45 PUSH1 0x44 DUP3 ADD MSTORE PUSH1 0x11 PUSH1 0xFA SHL PUSH1 0x64 DUP3 ADD MSTORE PUSH1 0x84 ADD PUSH2 0x3DC JUMP JUMPDEST TIMESTAMP DUP5 LT ISZERO PUSH2 0xD9F JUMPI PUSH1 0x40 MLOAD PUSH3 0x461BCD PUSH1 0xE5 SHL DUP2 MSTORE PUSH1 0x20 PUSH1 0x4 DUP3 ADD MSTORE PUSH1 0x1B PUSH1 0x24 DUP3 ADD MSTORE PUSH32 0x537943726F774261727465723A20504153545F444541444C494E450000000000 PUSH1 0x44 DUP3 ADD MSTORE PUSH1 0x64 ADD PUSH2 0x3DC JUMP JUMPDEST PUSH1 0x40 MLOAD PUSH4 0x70A08231 PUSH1 0xE0 SHL DUP2 MSTORE ADDRESS PUSH1 0x4 DUP3 ADD MSTORE DUP7 SWAP1 PUSH1 0x1 PUSH1 0x1 PUSH1 0xA0 SHL SUB DUP11 AND SWAP1 PUSH4 0x70A08231 SWAP1 PUSH1 0x24 ADD PUSH1 0x20 PUSH1 0x40 MLOAD DUP1 DUP4 SUB DUP2 DUP7 GAS STATICCALL ISZERO DUP1 ISZERO PUSH2 0xDE5 JUMPI RETURNDATASIZE PUSH1 0x0 DUP1 RETURNDATACOPY RETURNDATASIZE PUSH1 0x0 REVERT JUMPDEST POP POP POP POP PUSH1 0x40 MLOAD RETURNDATASIZE PUSH1 0x1F NOT PUSH1 0x1F DUP3 ADD AND DUP3 ADD DUP1 PUSH1 0x40 MSTORE POP DUP2 ADD SWAP1 PUSH2 0xE09 SWAP2 SWAP1 PUSH2 0x20AD JUMP JUMPDEST LT ISZERO PUSH2 0xE62 JUMPI PUSH1 0x40 MLOAD PUSH3 0x461BCD PUSH1 0xE5 SHL DUP2 MSTORE PUSH1 0x20 PUSH1 0x4 DUP3 ADD MSTORE PUSH1 0x22 PUSH1 0x24 DUP3 ADD MSTORE PUSH32 0x537943726F774261727465723A20494E53554646494349454E545F4445504F53 PUSH1 0x44 DUP3 ADD MSTORE PUSH2 0x1255 PUSH1 0xF2 SHL PUSH1 0x64 DUP3 ADD MSTORE PUSH1 0x84 ADD PUSH2 0x3DC JUMP JUMPDEST PUSH1 0x4 DUP5 SWAP1 SSTORE PUSH1 0x6 DUP1 SLOAD PUSH1 0x1 PUSH1 0x1 PUSH1 0xA0 SHL SUB DUP1 DUP12 AND PUSH1 0x1 PUSH1 0x1 PUSH1 0xA0 SHL SUB NOT SWAP3 DUP4 AND OR SWAP1 SWAP3 SSTORE PUSH1 0x7 DUP1 SLOAD SWAP3 DUP11 AND SWAP3 SWAP1 SWAP2 AND SWAP2 SWAP1 SWAP2 OR SWAP1 SSTORE PUSH1 0x8 DUP7 SWAP1 SSTORE PUSH1 0x9 DUP6 SWAP1 SSTORE PUSH1 0x5 DUP1 SLOAD DUP11 SWAP2 SWAP1 PUSH1 0xFF NOT AND PUSH1 0x1 DUP4 PUSH1 0x2 DUP2 GT ISZERO PUSH2 0xEC0 JUMPI PUSH2 0xEC0 PUSH2 0x1DE1 JUMP JUMPDEST MUL OR SWAP1 SSTORE POP POP PUSH1 0x3 DUP1 SLOAD DUP4 ISZERO ISZERO PUSH1 0xFF NOT SWAP1 SWAP2 AND OR SWAP1 SSTORE PUSH1 0x5 DUP1 SLOAD PUSH1 0xFF PUSH1 0xA8 SHL NOT PUSH1 0x1 PUSH1 0x1 PUSH1 0xA0 SHL SUB DUP5 AND PUSH2 0x100 MUL AND PUSH2 0x100 PUSH1 0x1 PUSH1 0xB0 SHL SUB NOT SWAP1 SWAP2 AND OR PUSH1 0x1 PUSH1 0xA8 SHL SWAP1 DUP2 OR SWAP2 DUP3 SWAP1 SSTORE SWAP1 DIV PUSH1 0xFF AND SWAP9 SWAP8 POP POP POP POP POP POP POP POP JUMP JUMPDEST PUSH1 0x0 SLOAD PUSH1 0x1 PUSH1 0x1 PUSH1 0xA0 SHL SUB AND CALLER EQ PUSH2 0xF44 JUMPI PUSH1 0x40 MLOAD PUSH3 0x461BCD PUSH1 0xE5 SHL DUP2 MSTORE PUSH1 0x4 ADD PUSH2 0x3DC SWAP1 PUSH2 0x2078 JUMP JUMPDEST PUSH2 0xF4E PUSH1 0x0 PUSH2 0x1B94 JUMP JUMPDEST JUMP JUMPDEST PUSH1 0x5 SLOAD PUSH1 0x0 SWAP1 DUP2 SWAP1 PUSH1 0x1 PUSH1 0xA8 SHL SWAP1 DIV PUSH1 0xFF AND PUSH2 0xF7E JUMPI PUSH1 0x40 MLOAD PUSH3 0x461BCD PUSH1 0xE5 SHL DUP2 MSTORE PUSH1 0x4 ADD PUSH2 0x3DC SWAP1 PUSH2 0x1F21 JUMP JUMPDEST POP POP PUSH1 0x6 SLOAD PUSH1 0x7 SLOAD PUSH1 0x1 PUSH1 0x1 PUSH1 0xA0 SHL SUB SWAP2 DUP3 AND SWAP2 AND SWAP1 SWAP2 JUMP JUMPDEST PUSH1 0x0 PUSH1 0x9 SLOAD PUSH1 0x8 SLOAD DUP4 PUSH2 0xFAA SWAP2 SWAP1 PUSH2 0x2105 JUMP JUMPDEST PUSH2 0xFB4 SWAP2 SWAP1 PUSH2 0x2124 JUMP JUMPDEST SWAP3 SWAP2 POP POP JUMP JUMPDEST PUSH1 0x60 DUP1 PUSH1 0x60 PUSH1 0x5 PUSH1 0x15 SWAP1 SLOAD SWAP1 PUSH2 0x100 EXP SWAP1 DIV PUSH1 0xFF AND PUSH2 0xFEB JUMPI PUSH1 0x40 MLOAD PUSH3 0x461BCD PUSH1 0xE5 SHL DUP2 MSTORE PUSH1 0x4 ADD PUSH2 0x3DC SWAP1 PUSH2 0x1F21 JUMP JUMPDEST PUSH1 0xA SLOAD PUSH1 0x0 SWAP1 PUSH8 0xFFFFFFFFFFFFFFFF DUP2 GT ISZERO PUSH2 0x1009 JUMPI PUSH2 0x1009 PUSH2 0x2146 JUMP JUMPDEST PUSH1 0x40 MLOAD SWAP1 DUP1 DUP3 MSTORE DUP1 PUSH1 0x20 MUL PUSH1 0x20 ADD DUP3 ADD PUSH1 0x40 MSTORE DUP1 ISZERO PUSH2 0x1032 JUMPI DUP2 PUSH1 0x20 ADD PUSH1 0x20 DUP3 MUL DUP1 CALLDATASIZE DUP4 CALLDATACOPY ADD SWAP1 POP JUMPDEST POP PUSH1 0xA SLOAD SWAP1 SWAP2 POP PUSH1 0x0 SWAP1 PUSH8 0xFFFFFFFFFFFFFFFF DUP2 GT ISZERO PUSH2 0x1054 JUMPI PUSH2 0x1054 PUSH2 0x2146 JUMP JUMPDEST PUSH1 0x40 MLOAD SWAP1 DUP1 DUP3 MSTORE DUP1 PUSH1 0x20 MUL PUSH1 0x20 ADD DUP3 ADD PUSH1 0x40 MSTORE DUP1 ISZERO PUSH2 0x107D JUMPI DUP2 PUSH1 0x20 ADD PUSH1 0x20 DUP3 MUL DUP1 CALLDATASIZE DUP4 CALLDATACOPY ADD SWAP1 POP JUMPDEST POP PUSH1 0xA SLOAD SWAP1 SWAP2 POP PUSH1 0x0 SWAP1 PUSH8 0xFFFFFFFFFFFFFFFF DUP2 GT ISZERO PUSH2 0x109F JUMPI PUSH2 0x109F PUSH2 0x2146 JUMP JUMPDEST PUSH1 0x40 MLOAD SWAP1 DUP1 DUP3 MSTORE DUP1 PUSH1 0x20 MUL PUSH1 0x20 ADD DUP3 ADD PUSH1 0x40 MSTORE DUP1 ISZERO PUSH2 0x10C8 JUMPI DUP2 PUSH1 0x20 ADD PUSH1 0x20 DUP3 MUL DUP1 CALLDATASIZE DUP4 CALLDATACOPY ADD SWAP1 POP JUMPDEST POP SWAP1 POP PUSH1 0x0 JUMPDEST PUSH1 0xA SLOAD DUP2 LT ISZERO PUSH2 0x11D3 JUMPI PUSH1 0xA DUP2 DUP2 SLOAD DUP2 LT PUSH2 0x10EB JUMPI PUSH2 0x10EB PUSH2 0x215C JUMP JUMPDEST PUSH1 0x0 SWAP2 DUP3 MSTORE PUSH1 0x20 SWAP1 SWAP2 KECCAK256 PUSH1 0x3 SWAP1 SWAP2 MUL ADD SLOAD DUP5 MLOAD PUSH1 0x1 PUSH1 0x1 PUSH1 0xA0 SHL SUB SWAP1 SWAP2 AND SWAP1 DUP6 SWAP1 DUP4 SWAP1 DUP2 LT PUSH2 0x111C JUMPI PUSH2 0x111C PUSH2 0x215C JUMP JUMPDEST PUSH1 0x20 MUL PUSH1 0x20 ADD ADD SWAP1 PUSH1 0x1 PUSH1 0x1 PUSH1 0xA0 SHL SUB AND SWAP1 DUP2 PUSH1 0x1 PUSH1 0x1 PUSH1 0xA0 SHL SUB AND DUP2 MSTORE POP POP PUSH1 0xA DUP2 DUP2 SLOAD DUP2 LT PUSH2 0x114F JUMPI PUSH2 0x114F PUSH2 0x215C JUMP JUMPDEST SWAP1 PUSH1 0x0 MSTORE PUSH1 0x20 PUSH1 0x0 KECCAK256 SWAP1 PUSH1 0x3 MUL ADD PUSH1 0x1 ADD SLOAD DUP4 DUP3 DUP2 MLOAD DUP2 LT PUSH2 0x1173 JUMPI PUSH2 0x1173 PUSH2 0x215C JUMP JUMPDEST PUSH1 0x20 MUL PUSH1 0x20 ADD ADD DUP2 DUP2 MSTORE POP POP PUSH1 0xA DUP2 DUP2 SLOAD DUP2 LT PUSH2 0x1192 JUMPI PUSH2 0x1192 PUSH2 0x215C JUMP JUMPDEST SWAP1 PUSH1 0x0 MSTORE PUSH1 0x20 PUSH1 0x0 KECCAK256 SWAP1 PUSH1 0x3 MUL ADD PUSH1 0x2 ADD SLOAD DUP3 DUP3 DUP2 MLOAD DUP2 LT PUSH2 0x11B6 JUMPI PUSH2 0x11B6 PUSH2 0x215C JUMP JUMPDEST PUSH1 0x20 SWAP1 DUP2 MUL SWAP2 SWAP1 SWAP2 ADD ADD MSTORE DUP1 PUSH2 0x11CB DUP2 PUSH2 0x2172 JUMP JUMPDEST SWAP2 POP POP PUSH2 0x10CE JUMP JUMPDEST POP SWAP2 SWAP5 POP SWAP3 POP SWAP1 POP SWAP1 SWAP2 SWAP3 JUMP JUMPDEST PUSH1 0x0 SLOAD PUSH1 0x1 PUSH1 0x1 PUSH1 0xA0 SHL SUB AND CALLER EQ PUSH2 0x120A JUMPI PUSH1 0x40 MLOAD PUSH3 0x461BCD PUSH1 0xE5 SHL DUP2 MSTORE PUSH1 0x4 ADD PUSH2 0x3DC SWAP1 PUSH2 0x2078 JUMP JUMPDEST PUSH1 0x1 PUSH1 0x1 PUSH1 0xA0 SHL SUB DUP2 AND PUSH2 0x126F JUMPI PUSH1 0x40 MLOAD PUSH3 0x461BCD PUSH1 0xE5 SHL DUP2 MSTORE PUSH1 0x20 PUSH1 0x4 DUP3 ADD MSTORE PUSH1 0x26 PUSH1 0x24 DUP3 ADD MSTORE PUSH32 0x4F776E61626C653A206E6577206F776E657220697320746865207A65726F2061 PUSH1 0x44 DUP3 ADD MSTORE PUSH6 0x646472657373 PUSH1 0xD0 SHL PUSH1 0x64 DUP3 ADD MSTORE PUSH1 0x84 ADD PUSH2 0x3DC JUMP JUMPDEST PUSH2 0x1278 DUP2 PUSH2 0x1B94 JUMP JUMPDEST POP JUMP JUMPDEST PUSH1 0x7 SLOAD PUSH1 0x40 MLOAD PUSH4 0x70A08231 PUSH1 0xE0 SHL DUP2 MSTORE CALLER PUSH1 0x4 DUP3 ADD MSTORE DUP3 SWAP2 PUSH1 0x1 PUSH1 0x1 PUSH1 0xA0 SHL SUB AND SWAP1 PUSH4 0x70A08231 SWAP1 PUSH1 0x24 ADD PUSH1 0x20 PUSH1 0x40 MLOAD DUP1 DUP4 SUB DUP2 DUP7 GAS STATICCALL ISZERO DUP1 ISZERO PUSH2 0x12C3 JUMPI RETURNDATASIZE PUSH1 0x0 DUP1 RETURNDATACOPY RETURNDATASIZE PUSH1 0x0 REVERT JUMPDEST POP POP POP POP PUSH1 0x40 MLOAD RETURNDATASIZE PUSH1 0x1F NOT PUSH1 0x1F DUP3 ADD AND DUP3 ADD DUP1 PUSH1 0x40 MSTORE POP DUP2 ADD SWAP1 PUSH2 0x12E7 SWAP2 SWAP1 PUSH2 0x20AD JUMP JUMPDEST LT ISZERO PUSH2 0x1305 JUMPI PUSH1 0x40 MLOAD PUSH3 0x461BCD PUSH1 0xE5 SHL DUP2 MSTORE PUSH1 0x4 ADD PUSH2 0x3DC SWAP1 PUSH2 0x218B JUMP JUMPDEST PUSH1 0x0 PUSH2 0x1310 DUP3 PUSH2 0xF97 JUMP JUMPDEST PUSH1 0x5 SLOAD PUSH1 0x40 MLOAD PUSH4 0x70A08231 PUSH1 0xE0 SHL DUP2 MSTORE ADDRESS PUSH1 0x4 DUP3 ADD MSTORE SWAP2 SWAP3 POP PUSH2 0x100 SWAP1 DIV PUSH1 0x1 PUSH1 0x1 PUSH1 0xA0 SHL SUB AND SWAP1 DUP3 SWAP1 DUP3 SWAP1 PUSH4 0x70A08231 SWAP1 PUSH1 0x24 ADD PUSH1 0x20 PUSH1 0x40 MLOAD DUP1 DUP4 SUB DUP2 DUP7 GAS STATICCALL ISZERO DUP1 ISZERO PUSH2 0x1362 JUMPI RETURNDATASIZE PUSH1 0x0 DUP1 RETURNDATACOPY RETURNDATASIZE PUSH1 0x0 REVERT JUMPDEST POP POP POP POP PUSH1 0x40 MLOAD RETURNDATASIZE PUSH1 0x1F NOT PUSH1 0x1F DUP3 ADD AND DUP3 ADD DUP1 PUSH1 0x40 MSTORE POP DUP2 ADD SWAP1 PUSH2 0x1386 SWAP2 SWAP1 PUSH2 0x20AD JUMP JUMPDEST LT ISZERO PUSH2 0x13A4 JUMPI PUSH1 0x40 MLOAD PUSH3 0x461BCD PUSH1 0xE5 SHL DUP2 MSTORE PUSH1 0x4 ADD PUSH2 0x3DC SWAP1 PUSH2 0x21CD JUMP JUMPDEST PUSH1 0x7 SLOAD PUSH2 0x13BC SWAP1 PUSH1 0x1 PUSH1 0x1 PUSH1 0xA0 SHL SUB AND CALLER ADDRESS DUP7 PUSH2 0x1BE4 JUMP JUMPDEST PUSH1 0x5 SLOAD PUSH1 0x40 MLOAD PUSH4 0x2E1A7D4D PUSH1 0xE0 SHL DUP2 MSTORE PUSH1 0x4 DUP2 ADD DUP5 SWAP1 MSTORE PUSH2 0x100 SWAP1 SWAP2 DIV PUSH1 0x1 PUSH1 0x1 PUSH1 0xA0 SHL SUB AND SWAP1 PUSH4 0x2E1A7D4D SWAP1 PUSH1 0x24 ADD PUSH1 0x0 PUSH1 0x40 MLOAD DUP1 DUP4 SUB DUP2 PUSH1 0x0 DUP8 DUP1 EXTCODESIZE ISZERO DUP1 ISZERO PUSH2 0x1406 JUMPI PUSH1 0x0 DUP1 REVERT JUMPDEST POP GAS CALL ISZERO DUP1 ISZERO PUSH2 0x141A JUMPI RETURNDATASIZE PUSH1 0x0 DUP1 RETURNDATACOPY RETURNDATASIZE PUSH1 0x0 REVERT JUMPDEST POP POP POP POP PUSH2 0x1428 CALLER DUP4 PUSH2 0x1832 JUMP JUMPDEST PUSH1 0x40 DUP1 MLOAD PUSH1 0x60 DUP2 ADD DUP3 MSTORE CALLER DUP2 MSTORE PUSH1 0x20 DUP2 ADD DUP6 DUP2 MSTORE SWAP2 DUP2 ADD DUP5 DUP2 MSTORE PUSH1 0xA DUP1 SLOAD PUSH1 0x1 DUP2 ADD DUP3 SSTORE PUSH1 0x0 SWAP2 SWAP1 SWAP2 MSTORE SWAP2 MLOAD PUSH32 0xC65A7BB8D6351C1CF70C95A316CC6A92839C986682D98BC35F958F4883F9D2A8 PUSH1 0x3 SWAP1 SWAP4 MUL SWAP3 DUP4 ADD DUP1 SLOAD PUSH1 0x1 PUSH1 0x1 PUSH1 0xA0 SHL SUB NOT AND PUSH1 0x1 PUSH1 0x1 PUSH1 0xA0 SHL SUB SWAP1 SWAP3 AND SWAP2 SWAP1 SWAP2 OR SWAP1 SSTORE SWAP2 MLOAD PUSH32 0xC65A7BB8D6351C1CF70C95A316CC6A92839C986682D98BC35F958F4883F9D2A9 DUP3 ADD SSTORE SWAP1 MLOAD PUSH32 0xC65A7BB8D6351C1CF70C95A316CC6A92839C986682D98BC35F958F4883F9D2AA SWAP1 SWAP2 ADD SSTORE PUSH1 0x2 SLOAD PUSH2 0x14F5 SWAP1 DUP5 SWAP1 PUSH2 0x2218 JUMP JUMPDEST PUSH1 0x2 SSTORE PUSH1 0x40 MLOAD PUSH4 0xF52701B7 PUSH1 0xE0 SHL DUP2 MSTORE PUSH32 0x0 SWAP1 PUSH1 0x1 PUSH1 0x1 PUSH1 0xA0 SHL SUB DUP3 AND SWAP1 PUSH4 0xF52701B7 SWAP1 PUSH2 0x154C SWAP1 ADDRESS SWAP1 CALLER SWAP1 DUP10 SWAP1 DUP10 SWAP1 PUSH1 0x4 ADD PUSH2 0x20C6 JUMP JUMPDEST PUSH1 0x0 PUSH1 0x40 MLOAD DUP1 DUP4 SUB DUP2 PUSH1 0x0 DUP8 DUP1 EXTCODESIZE ISZERO DUP1 ISZERO PUSH2 0x1566 JUMPI PUSH1 0x0 DUP1 REVERT JUMPDEST POP GAS CALL ISZERO DUP1 ISZERO PUSH2 0x157A JUMPI RETURNDATASIZE PUSH1 0x0 DUP1 RETURNDATACOPY RETURNDATASIZE PUSH1 0x0 REVERT JUMPDEST POP POP POP POP POP POP POP POP JUMP JUMPDEST PUSH1 0x7 SLOAD PUSH1 0x40 MLOAD PUSH4 0x70A08231 PUSH1 0xE0 SHL DUP2 MSTORE CALLER PUSH1 0x4 DUP3 ADD MSTORE DUP3 SWAP2 PUSH1 0x1 PUSH1 0x1 PUSH1 0xA0 SHL SUB AND SWAP1 PUSH4 0x70A08231 SWAP1 PUSH1 0x24 ADD PUSH1 0x20 PUSH1 0x40 MLOAD DUP1 DUP4 SUB DUP2 DUP7 GAS STATICCALL ISZERO DUP1 ISZERO PUSH2 0x15CC JUMPI RETURNDATASIZE PUSH1 0x0 DUP1 RETURNDATACOPY RETURNDATASIZE PUSH1 0x0 REVERT JUMPDEST POP POP POP POP PUSH1 0x40 MLOAD RETURNDATASIZE PUSH1 0x1F NOT PUSH1 0x1F DUP3 ADD AND DUP3 ADD DUP1 PUSH1 0x40 MSTORE POP DUP2 ADD SWAP1 PUSH2 0x15F0 SWAP2 SWAP1 PUSH2 0x20AD JUMP JUMPDEST LT ISZERO PUSH2 0x160E JUMPI PUSH1 0x40 MLOAD PUSH3 0x461BCD PUSH1 0xE5 SHL DUP2 MSTORE PUSH1 0x4 ADD PUSH2 0x3DC SWAP1 PUSH2 0x218B JUMP JUMPDEST PUSH1 0x0 PUSH2 0x1619 DUP3 PUSH2 0xF97 JUMP JUMPDEST PUSH1 0x6 SLOAD PUSH1 0x40 MLOAD PUSH4 0x70A08231 PUSH1 0xE0 SHL DUP2 MSTORE ADDRESS PUSH1 0x4 DUP3 ADD MSTORE SWAP2 SWAP3 POP DUP3 SWAP2 PUSH1 0x1 PUSH1 0x1 PUSH1 0xA0 SHL SUB SWAP1 SWAP2 AND SWAP1 PUSH4 0x70A08231 SWAP1 PUSH1 0x24 ADD PUSH1 0x20 PUSH1 0x40 MLOAD DUP1 DUP4 SUB DUP2 DUP7 GAS STATICCALL ISZERO DUP1 ISZERO PUSH2 0x1666 JUMPI RETURNDATASIZE PUSH1 0x0 DUP1 RETURNDATACOPY RETURNDATASIZE PUSH1 0x0 REVERT JUMPDEST POP POP POP POP PUSH1 0x40 MLOAD RETURNDATASIZE PUSH1 0x1F NOT PUSH1 0x1F DUP3 ADD AND DUP3 ADD DUP1 PUSH1 0x40 MSTORE POP DUP2 ADD SWAP1 PUSH2 0x168A SWAP2 SWAP1 PUSH2 0x20AD JUMP JUMPDEST LT ISZERO PUSH2 0x16A8 JUMPI PUSH1 0x40 MLOAD PUSH3 0x461BCD PUSH1 0xE5 SHL DUP2 MSTORE PUSH1 0x4 ADD PUSH2 0x3DC SWAP1 PUSH2 0x21CD JUMP JUMPDEST PUSH1 0x7 SLOAD PUSH2 0x16C0 SWAP1 PUSH1 0x1 PUSH1 0x1 PUSH1 0xA0 SHL SUB AND CALLER ADDRESS DUP6 PUSH2 0x1BE4 JUMP JUMPDEST PUSH1 0x6 SLOAD PUSH2 0x16D7 SWAP1 PUSH1 0x1 PUSH1 0x1 PUSH1 0xA0 SHL SUB AND CALLER DUP4 PUSH2 0x1900 JUMP JUMPDEST PUSH1 0x40 DUP1 MLOAD PUSH1 0x60 DUP2 ADD DUP3 MSTORE CALLER DUP2 MSTORE PUSH1 0x20 DUP2 ADD DUP5 DUP2 MSTORE SWAP2 DUP2 ADD DUP4 DUP2 MSTORE PUSH1 0xA DUP1 SLOAD PUSH1 0x1 DUP2 ADD DUP3 SSTORE PUSH1 0x0 SWAP2 SWAP1 SWAP2 MSTORE SWAP2 MLOAD PUSH32 0xC65A7BB8D6351C1CF70C95A316CC6A92839C986682D98BC35F958F4883F9D2A8 PUSH1 0x3 SWAP1 SWAP4 MUL SWAP3 DUP4 ADD DUP1 SLOAD PUSH1 0x1 PUSH1 0x1 PUSH1 0xA0 SHL SUB NOT AND PUSH1 0x1 PUSH1 0x1 PUSH1 0xA0 SHL SUB SWAP1 SWAP3 AND SWAP2 SWAP1 SWAP2 OR SWAP1 SSTORE SWAP2 MLOAD PUSH32 0xC65A7BB8D6351C1CF70C95A316CC6A92839C986682D98BC35F958F4883F9D2A9 DUP3 ADD SSTORE SWAP1 MLOAD PUSH32 0xC65A7BB8D6351C1CF70C95A316CC6A92839C986682D98BC35F958F4883F9D2AA SWAP1 SWAP2 ADD SSTORE PUSH1 0x2 SLOAD PUSH2 0x17A4 SWAP1 DUP4 SWAP1 PUSH2 0x2218 JUMP JUMPDEST PUSH1 0x2 SSTORE PUSH1 0x40 MLOAD PUSH4 0xF52701B7 PUSH1 0xE0 SHL DUP2 MSTORE PUSH32 0x0 SWAP1 PUSH1 0x1 PUSH1 0x1 PUSH1 0xA0 SHL SUB DUP3 AND SWAP1 PUSH4 0xF52701B7 SWAP1 PUSH2 0x17FB SWAP1 ADDRESS SWAP1 CALLER SWAP1 DUP9 SWAP1 DUP9 SWAP1 PUSH1 0x4 ADD PUSH2 0x20C6 JUMP JUMPDEST PUSH1 0x0 PUSH1 0x40 MLOAD DUP1 DUP4 SUB DUP2 PUSH1 0x0 DUP8 DUP1 EXTCODESIZE ISZERO DUP1 ISZERO PUSH2 0x1815 JUMPI PUSH1 0x0 DUP1 REVERT JUMPDEST POP GAS CALL ISZERO DUP1 ISZERO PUSH2 0x1829 JUMPI RETURNDATASIZE PUSH1 0x0 DUP1 RETURNDATACOPY RETURNDATASIZE PUSH1 0x0 REVERT JUMPDEST POP POP POP POP POP POP POP JUMP JUMPDEST PUSH1 0x40 DUP1 MLOAD PUSH1 0x0 DUP1 DUP3 MSTORE PUSH1 0x20 DUP3 ADD SWAP1 SWAP3 MSTORE PUSH1 0x1 PUSH1 0x1 PUSH1 0xA0 SHL SUB DUP5 AND SWAP1 DUP4 SWAP1 PUSH1 0x40 MLOAD PUSH2 0x185C SWAP2 SWAP1 PUSH2 0x2230 JUMP JUMPDEST PUSH1 0x0 PUSH1 0x40 MLOAD DUP1 DUP4 SUB DUP2 DUP6 DUP8 GAS CALL SWAP3 POP POP POP RETURNDATASIZE DUP1 PUSH1 0x0 DUP2 EQ PUSH2 0x1899 JUMPI PUSH1 0x40 MLOAD SWAP2 POP PUSH1 0x1F NOT PUSH1 0x3F RETURNDATASIZE ADD AND DUP3 ADD PUSH1 0x40 MSTORE RETURNDATASIZE DUP3 MSTORE RETURNDATASIZE PUSH1 0x0 PUSH1 0x20 DUP5 ADD RETURNDATACOPY PUSH2 0x189E JUMP JUMPDEST PUSH1 0x60 SWAP2 POP JUMPDEST POP POP SWAP1 POP DUP1 PUSH2 0x18FB JUMPI PUSH1 0x40 MLOAD PUSH3 0x461BCD PUSH1 0xE5 SHL DUP2 MSTORE PUSH1 0x20 PUSH1 0x4 DUP3 ADD MSTORE PUSH1 0x23 PUSH1 0x24 DUP3 ADD MSTORE PUSH32 0x5472616E7366657248656C7065723A204554485F5452414E534645525F464149 PUSH1 0x44 DUP3 ADD MSTORE PUSH3 0x131151 PUSH1 0xEA SHL PUSH1 0x64 DUP3 ADD MSTORE PUSH1 0x84 ADD PUSH2 0x3DC JUMP JUMPDEST POP POP POP JUMP JUMPDEST PUSH1 0x40 DUP1 MLOAD PUSH1 0x1 PUSH1 0x1 PUSH1 0xA0 SHL SUB DUP5 DUP2 AND PUSH1 0x24 DUP4 ADD MSTORE PUSH1 0x44 DUP1 DUP4 ADD DUP6 SWAP1 MSTORE DUP4 MLOAD DUP1 DUP5 SUB SWAP1 SWAP2 ADD DUP2 MSTORE PUSH1 0x64 SWAP1 SWAP3 ADD DUP4 MSTORE PUSH1 0x20 DUP3 ADD DUP1 MLOAD PUSH1 0x1 PUSH1 0x1 PUSH1 0xE0 SHL SUB AND PUSH4 0xA9059CBB PUSH1 0xE0 SHL OR SWAP1 MSTORE SWAP2 MLOAD PUSH1 0x0 SWAP3 DUP4 SWAP3 SWAP1 DUP8 AND SWAP2 PUSH2 0x195C SWAP2 SWAP1 PUSH2 0x2230 JUMP JUMPDEST PUSH1 0x0 PUSH1 0x40 MLOAD DUP1 DUP4 SUB DUP2 PUSH1 0x0 DUP7 GAS CALL SWAP2 POP POP RETURNDATASIZE DUP1 PUSH1 0x0 DUP2 EQ PUSH2 0x1999 JUMPI PUSH1 0x40 MLOAD SWAP2 POP PUSH1 0x1F NOT PUSH1 0x3F RETURNDATASIZE ADD AND DUP3 ADD PUSH1 0x40 MSTORE RETURNDATASIZE DUP3 MSTORE RETURNDATASIZE PUSH1 0x0 PUSH1 0x20 DUP5 ADD RETURNDATACOPY PUSH2 0x199E JUMP JUMPDEST PUSH1 0x60 SWAP2 POP JUMPDEST POP SWAP2 POP SWAP2 POP DUP2 DUP1 ISZERO PUSH2 0x19C8 JUMPI POP DUP1 MLOAD ISZERO DUP1 PUSH2 0x19C8 JUMPI POP DUP1 DUP1 PUSH1 0x20 ADD SWAP1 MLOAD DUP2 ADD SWAP1 PUSH2 0x19C8 SWAP2 SWAP1 PUSH2 0x1F58 JUMP JUMPDEST PUSH2 0x1A14 JUMPI PUSH1 0x40 MLOAD PUSH3 0x461BCD PUSH1 0xE5 SHL DUP2 MSTORE PUSH1 0x20 PUSH1 0x4 DUP3 ADD MSTORE PUSH1 0x1F PUSH1 0x24 DUP3 ADD MSTORE PUSH32 0x5472616E7366657248656C7065723A205452414E534645525F4641494C454400 PUSH1 0x44 DUP3 ADD MSTORE PUSH1 0x64 ADD PUSH2 0x3DC JUMP JUMPDEST POP POP POP POP POP JUMP JUMPDEST CALLVALUE DUP2 EQ PUSH2 0x1A78 JUMPI PUSH1 0x40 MLOAD PUSH3 0x461BCD PUSH1 0xE5 SHL DUP2 MSTORE PUSH1 0x20 PUSH1 0x4 DUP3 ADD MSTORE PUSH1 0x25 PUSH1 0x24 DUP3 ADD MSTORE PUSH32 0x537943726F774261727465723A204D554C54495F54524144455F4E4F545F454E PUSH1 0x44 DUP3 ADD MSTORE PUSH5 0x1050931151 PUSH1 0xDA SHL PUSH1 0x64 DUP3 ADD MSTORE PUSH1 0x84 ADD PUSH2 0x3DC JUMP JUMPDEST PUSH1 0x0 PUSH2 0x1A83 DUP3 PUSH2 0xF97 JUMP JUMPDEST PUSH1 0x6 SLOAD PUSH1 0x40 MLOAD PUSH4 0x70A08231 PUSH1 0xE0 SHL DUP2 MSTORE ADDRESS PUSH1 0x4 DUP3 ADD MSTORE SWAP2 SWAP3 POP DUP3 SWAP2 PUSH1 0x1 PUSH1 0x1 PUSH1 0xA0 SHL SUB SWAP1 SWAP2 AND SWAP1 PUSH4 0x70A08231 SWAP1 PUSH1 0x24 ADD PUSH1 0x20 PUSH1 0x40 MLOAD DUP1 DUP4 SUB DUP2 DUP7 GAS STATICCALL ISZERO DUP1 ISZERO PUSH2 0x1AD0 JUMPI RETURNDATASIZE PUSH1 0x0 DUP1 RETURNDATACOPY RETURNDATASIZE PUSH1 0x0 REVERT JUMPDEST POP POP POP POP PUSH1 0x40 MLOAD RETURNDATASIZE PUSH1 0x1F NOT PUSH1 0x1F DUP3 ADD AND DUP3 ADD DUP1 PUSH1 0x40 MSTORE POP DUP2 ADD SWAP1 PUSH2 0x1AF4 SWAP2 SWAP1 PUSH2 0x20AD JUMP JUMPDEST LT ISZERO PUSH2 0x1B12 JUMPI PUSH1 0x40 MLOAD PUSH3 0x461BCD PUSH1 0xE5 SHL DUP2 MSTORE PUSH1 0x4 ADD PUSH2 0x3DC SWAP1 PUSH2 0x21CD JUMP JUMPDEST PUSH1 0x5 PUSH1 0x1 SWAP1 SLOAD SWAP1 PUSH2 0x100 EXP SWAP1 DIV PUSH1 0x1 PUSH1 0x1 PUSH1 0xA0 SHL SUB AND PUSH1 0x1 PUSH1 0x1 PUSH1 0xA0 SHL SUB AND PUSH4 0xD0E30DB0 DUP4 PUSH1 0x40 MLOAD DUP3 PUSH4 0xFFFFFFFF AND PUSH1 0xE0 SHL DUP2 MSTORE PUSH1 0x4 ADD PUSH1 0x0 PUSH1 0x40 MLOAD DUP1 DUP4 SUB DUP2 DUP6 DUP9 DUP1 EXTCODESIZE ISZERO DUP1 ISZERO PUSH2 0x1B62 JUMPI PUSH1 0x0 DUP1 REVERT JUMPDEST POP GAS CALL ISZERO DUP1 ISZERO PUSH2 0x1B76 JUMPI RETURNDATASIZE PUSH1 0x0 DUP1 RETURNDATACOPY RETURNDATASIZE PUSH1 0x0 REVERT JUMPDEST POP POP PUSH1 0x6 SLOAD PUSH2 0x16D7 SWAP4 POP PUSH1 0x1 PUSH1 0x1 PUSH1 0xA0 SHL SUB AND SWAP2 POP CALLER SWAP1 POP DUP4 PUSH2 0x1900 JUMP JUMPDEST PUSH1 0x0 DUP1 SLOAD PUSH1 0x1 PUSH1 0x1 PUSH1 0xA0 SHL SUB DUP4 DUP2 AND PUSH1 0x1 PUSH1 0x1 PUSH1 0xA0 SHL SUB NOT DUP4 AND DUP2 OR DUP5 SSTORE PUSH1 0x40 MLOAD SWAP2 SWAP1 SWAP3 AND SWAP3 DUP4 SWAP2 PUSH32 0x8BE0079C531659141344CD1FD0A4F28419497F9722A3DAAFE3B4186F6B6457E0 SWAP2 SWAP1 LOG3 POP POP JUMP JUMPDEST PUSH1 0x40 DUP1 MLOAD PUSH1 0x1 PUSH1 0x1 PUSH1 0xA0 SHL SUB DUP6 DUP2 AND PUSH1 0x24 DUP4 ADD MSTORE DUP5 DUP2 AND PUSH1 0x44 DUP4 ADD MSTORE PUSH1 0x64 DUP1 DUP4 ADD DUP6 SWAP1 MSTORE DUP4 MLOAD DUP1 DUP5 SUB SWAP1 SWAP2 ADD DUP2 MSTORE PUSH1 0x84 SWAP1 SWAP3 ADD DUP4 MSTORE PUSH1 0x20 DUP3 ADD DUP1 MLOAD PUSH1 0x1 PUSH1 0x1 PUSH1 0xE0 SHL SUB AND PUSH4 0x23B872DD PUSH1 0xE0 SHL OR SWAP1 MSTORE SWAP2 MLOAD PUSH1 0x0 SWAP3 DUP4 SWAP3 SWAP1 DUP9 AND SWAP2 PUSH2 0x1C48 SWAP2 SWAP1 PUSH2 0x2230 JUMP JUMPDEST PUSH1 0x0 PUSH1 0x40 MLOAD DUP1 DUP4 SUB DUP2 PUSH1 0x0 DUP7 GAS CALL SWAP2 POP POP RETURNDATASIZE DUP1 PUSH1 0x0 DUP2 EQ PUSH2 0x1C85 JUMPI PUSH1 0x40 MLOAD SWAP2 POP PUSH1 0x1F NOT PUSH1 0x3F RETURNDATASIZE ADD AND DUP3 ADD PUSH1 0x40 MSTORE RETURNDATASIZE DUP3 MSTORE RETURNDATASIZE PUSH1 0x0 PUSH1 0x20 DUP5 ADD RETURNDATACOPY PUSH2 0x1C8A JUMP JUMPDEST PUSH1 0x60 SWAP2 POP JUMPDEST POP SWAP2 POP SWAP2 POP DUP2 DUP1 ISZERO PUSH2 0x1CB4 JUMPI POP DUP1 MLOAD ISZERO DUP1 PUSH2 0x1CB4 JUMPI POP DUP1 DUP1 PUSH1 0x20 ADD SWAP1 MLOAD DUP2 ADD SWAP1 PUSH2 0x1CB4 SWAP2 SWAP1 PUSH2 0x1F58 JUMP JUMPDEST PUSH2 0x1D0C JUMPI PUSH1 0x40 MLOAD PUSH3 0x461BCD PUSH1 0xE5 SHL DUP2 MSTORE PUSH1 0x20 PUSH1 0x4 DUP3 ADD MSTORE PUSH1 0x24 DUP1 DUP3 ADD MSTORE PUSH32 0x5472616E7366657248656C7065723A205452414E534645525F46524F4D5F4641 PUSH1 0x44 DUP3 ADD MSTORE PUSH4 0x12531151 PUSH1 0xE2 SHL PUSH1 0x64 DUP3 ADD MSTORE PUSH1 0x84 ADD PUSH2 0x3DC JUMP JUMPDEST POP POP POP POP POP POP JUMP JUMPDEST PUSH1 0x0 PUSH1 0x20 DUP3 DUP5 SUB SLT ISZERO PUSH2 0x1D26 JUMPI PUSH1 0x0 DUP1 REVERT JUMPDEST POP CALLDATALOAD SWAP2 SWAP1 POP JUMP JUMPDEST DUP1 CALLDATALOAD PUSH1 0x1 PUSH1 0x1 PUSH1 0xA0 SHL SUB DUP2 AND DUP2 EQ PUSH2 0x1D44 JUMPI PUSH1 0x0 DUP1 REVERT JUMPDEST SWAP2 SWAP1 POP JUMP JUMPDEST DUP1 ISZERO ISZERO DUP2 EQ PUSH2 0x1278 JUMPI PUSH1 0x0 DUP1 REVERT JUMPDEST PUSH1 0x0 DUP1 PUSH1 0x0 DUP1 PUSH1 0x0 DUP1 PUSH1 0x0 DUP1 PUSH2 0x100 DUP10 DUP12 SUB SLT ISZERO PUSH2 0x1D74 JUMPI PUSH1 0x0 DUP1 REVERT JUMPDEST DUP9 CALLDATALOAD PUSH1 0x3 DUP2 LT PUSH2 0x1D83 JUMPI PUSH1 0x0 DUP1 REVERT JUMPDEST SWAP8 POP PUSH2 0x1D91 PUSH1 0x20 DUP11 ADD PUSH2 0x1D2D JUMP JUMPDEST SWAP7 POP PUSH2 0x1D9F PUSH1 0x40 DUP11 ADD PUSH2 0x1D2D JUMP JUMPDEST SWAP6 POP PUSH1 0x60 DUP10 ADD CALLDATALOAD SWAP5 POP PUSH1 0x80 DUP10 ADD CALLDATALOAD SWAP4 POP PUSH1 0xA0 DUP10 ADD CALLDATALOAD SWAP3 POP PUSH1 0xC0 DUP10 ADD CALLDATALOAD PUSH2 0x1DC4 DUP2 PUSH2 0x1D49 JUMP JUMPDEST SWAP2 POP PUSH2 0x1DD2 PUSH1 0xE0 DUP11 ADD PUSH2 0x1D2D JUMP JUMPDEST SWAP1 POP SWAP3 SWAP6 SWAP9 POP SWAP3 SWAP6 SWAP9 SWAP1 SWAP4 SWAP7 POP JUMP JUMPDEST PUSH4 0x4E487B71 PUSH1 0xE0 SHL PUSH1 0x0 MSTORE PUSH1 0x21 PUSH1 0x4 MSTORE PUSH1 0x24 PUSH1 0x0 REVERT JUMPDEST PUSH1 0x20 DUP2 ADD PUSH1 0x3 DUP4 LT PUSH2 0x1E19 JUMPI PUSH4 0x4E487B71 PUSH1 0xE0 SHL PUSH1 0x0 MSTORE PUSH1 0x21 PUSH1 0x4 MSTORE PUSH1 0x24 PUSH1 0x0 REVERT JUMPDEST SWAP2 SWAP1 MSTORE SWAP1 JUMP JUMPDEST PUSH1 0x0 DUP2 MLOAD DUP1 DUP5 MSTORE PUSH1 0x20 DUP1 DUP6 ADD SWAP5 POP DUP1 DUP5 ADD PUSH1 0x0 JUMPDEST DUP4 DUP2 LT ISZERO PUSH2 0x1E4F JUMPI DUP2 MLOAD DUP8 MSTORE SWAP6 DUP3 ADD SWAP6 SWAP1 DUP3 ADD SWAP1 PUSH1 0x1 ADD PUSH2 0x1E33 JUMP JUMPDEST POP SWAP5 SWAP6 SWAP5 POP POP POP POP POP JUMP JUMPDEST PUSH1 0x60 DUP1 DUP3 MSTORE DUP5 MLOAD SWAP1 DUP3 ADD DUP2 SWAP1 MSTORE PUSH1 0x0 SWAP1 PUSH1 0x20 SWAP1 PUSH1 0x80 DUP5 ADD SWAP1 DUP3 DUP9 ADD DUP5 JUMPDEST DUP3 DUP2 LT ISZERO PUSH2 0x1E9C JUMPI DUP2 MLOAD PUSH1 0x1 PUSH1 0x1 PUSH1 0xA0 SHL SUB AND DUP5 MSTORE SWAP3 DUP5 ADD SWAP3 SWAP1 DUP5 ADD SWAP1 PUSH1 0x1 ADD PUSH2 0x1E77 JUMP JUMPDEST POP POP POP DUP4 DUP2 SUB DUP3 DUP6 ADD MSTORE PUSH2 0x1EB0 DUP2 DUP8 PUSH2 0x1E1F JUMP JUMPDEST SWAP2 POP POP DUP3 DUP2 SUB PUSH1 0x40 DUP5 ADD MSTORE PUSH2 0x1EC5 DUP2 DUP6 PUSH2 0x1E1F JUMP JUMPDEST SWAP7 SWAP6 POP POP POP POP POP POP JUMP JUMPDEST PUSH1 0x0 PUSH1 0x20 DUP3 DUP5 SUB SLT ISZERO PUSH2 0x1EE1 JUMPI PUSH1 0x0 DUP1 REVERT JUMPDEST PUSH2 0x1EEA DUP3 PUSH2 0x1D2D JUMP JUMPDEST SWAP4 SWAP3 POP POP POP JUMP JUMPDEST PUSH1 0x20 DUP1 DUP3 MSTORE PUSH1 0x16 SWAP1 DUP3 ADD MSTORE PUSH22 0x537943726F774261727465723A20494E414354495645 PUSH1 0x50 SHL PUSH1 0x40 DUP3 ADD MSTORE PUSH1 0x60 ADD SWAP1 JUMP JUMPDEST PUSH1 0x20 DUP1 DUP3 MSTORE PUSH1 0x1D SWAP1 DUP3 ADD MSTORE PUSH32 0x537943726F774261727465723A204E4F545F494E495449414C495A4544000000 PUSH1 0x40 DUP3 ADD MSTORE PUSH1 0x60 ADD SWAP1 JUMP JUMPDEST PUSH1 0x0 PUSH1 0x20 DUP3 DUP5 SUB SLT ISZERO PUSH2 0x1F6A JUMPI PUSH1 0x0 DUP1 REVERT JUMPDEST DUP2 MLOAD PUSH2 0x1EEA DUP2 PUSH2 0x1D49 JUMP JUMPDEST PUSH1 0x20 DUP1 DUP3 MSTORE PUSH1 0x22 SWAP1 DUP3 ADD MSTORE PUSH32 0x537943726F774261727465723A204261736520436F6E74726163742050617573 PUSH1 0x40 DUP3 ADD MSTORE PUSH2 0x1959 PUSH1 0xF2 SHL PUSH1 0x60 DUP3 ADD MSTORE PUSH1 0x80 ADD SWAP1 JUMP JUMPDEST PUSH1 0x20 DUP1 DUP3 MSTORE PUSH1 0x21 SWAP1 DUP3 ADD MSTORE PUSH32 0x537943726F774261727465723A20494E56414C49445F4241525445525F545950 PUSH1 0x40 DUP3 ADD MSTORE PUSH1 0x45 PUSH1 0xF8 SHL PUSH1 0x60 DUP3 ADD MSTORE PUSH1 0x80 ADD SWAP1 JUMP JUMPDEST PUSH1 0x20 DUP1 DUP3 MSTORE PUSH1 0x1F SWAP1 DUP3 ADD MSTORE PUSH32 0x5265656E7472616E637947756172643A207265656E7472616E742063616C6C00 PUSH1 0x40 DUP3 ADD MSTORE PUSH1 0x60 ADD SWAP1 JUMP JUMPDEST PUSH1 0x20 DUP1 DUP3 MSTORE PUSH1 0x29 SWAP1 DUP3 ADD MSTORE PUSH32 0x537943726F774261727465723A20414D4F554E545F4C4F5745525F5448414E5F PUSH1 0x40 DUP3 ADD MSTORE PUSH9 0x149154555492549151 PUSH1 0xBA SHL PUSH1 0x60 DUP3 ADD MSTORE PUSH1 0x80 ADD SWAP1 JUMP JUMPDEST PUSH1 0x20 DUP1 DUP3 MSTORE DUP2 DUP2 ADD MSTORE PUSH32 0x4F776E61626C653A2063616C6C6572206973206E6F7420746865206F776E6572 PUSH1 0x40 DUP3 ADD MSTORE PUSH1 0x60 ADD SWAP1 JUMP JUMPDEST PUSH1 0x0 PUSH1 0x20 DUP3 DUP5 SUB SLT ISZERO PUSH2 0x20BF JUMPI PUSH1 0x0 DUP1 REVERT JUMPDEST POP MLOAD SWAP2 SWAP1 POP JUMP JUMPDEST PUSH1 0x1 PUSH1 0x1 PUSH1 0xA0 SHL SUB SWAP5 DUP6 AND DUP2 MSTORE SWAP3 SWAP1 SWAP4 AND PUSH1 0x20 DUP4 ADD MSTORE PUSH1 0x40 DUP3 ADD MSTORE PUSH1 0x60 DUP2 ADD SWAP2 SWAP1 SWAP2 MSTORE PUSH1 0x80 ADD SWAP1 JUMP JUMPDEST PUSH4 0x4E487B71 PUSH1 0xE0 SHL PUSH1 0x0 MSTORE PUSH1 0x11 PUSH1 0x4 MSTORE PUSH1 0x24 PUSH1 0x0 REVERT JUMPDEST PUSH1 0x0 DUP2 PUSH1 0x0 NOT DIV DUP4 GT DUP3 ISZERO ISZERO AND ISZERO PUSH2 0x211F JUMPI PUSH2 0x211F PUSH2 0x20EF JUMP JUMPDEST POP MUL SWAP1 JUMP JUMPDEST PUSH1 0x0 DUP3 PUSH2 0x2141 JUMPI PUSH4 0x4E487B71 PUSH1 0xE0 SHL PUSH1 0x0 MSTORE PUSH1 0x12 PUSH1 0x4 MSTORE PUSH1 0x24 PUSH1 0x0 REVERT JUMPDEST POP DIV SWAP1 JUMP JUMPDEST PUSH4 0x4E487B71 PUSH1 0xE0 SHL PUSH1 0x0 MSTORE PUSH1 0x41 PUSH1 0x4 MSTORE PUSH1 0x24 PUSH1 0x0 REVERT JUMPDEST PUSH4 0x4E487B71 PUSH1 0xE0 SHL PUSH1 0x0 MSTORE PUSH1 0x32 PUSH1 0x4 MSTORE PUSH1 0x24 PUSH1 0x0 REVERT JUMPDEST PUSH1 0x0 PUSH1 0x1 DUP3 ADD PUSH2 0x2184 JUMPI PUSH2 0x2184 PUSH2 0x20EF JUMP JUMPDEST POP PUSH1 0x1 ADD SWAP1 JUMP JUMPDEST PUSH1 0x20 DUP1 DUP3 MSTORE PUSH1 0x22 SWAP1 DUP3 ADD MSTORE PUSH32 0x537943726F774261727465723A20494E53554646494349454E545F42414C414E PUSH1 0x40 DUP3 ADD MSTORE PUSH2 0x4345 PUSH1 0xF0 SHL PUSH1 0x60 DUP3 ADD MSTORE PUSH1 0x80 ADD SWAP1 JUMP JUMPDEST PUSH1 0x20 DUP1 DUP3 MSTORE PUSH1 0x2B SWAP1 DUP3 ADD MSTORE PUSH32 0x537943726F774261727465723A20494E53554646494349454E545F434F4E5452 PUSH1 0x40 DUP3 ADD MSTORE PUSH11 0x4143545F42414C414E4345 PUSH1 0xA8 SHL PUSH1 0x60 DUP3 ADD MSTORE PUSH1 0x80 ADD SWAP1 JUMP JUMPDEST PUSH1 0x0 DUP3 NOT DUP3 GT ISZERO PUSH2 0x222B JUMPI PUSH2 0x222B PUSH2 0x20EF JUMP JUMPDEST POP ADD SWAP1 JUMP JUMPDEST PUSH1 0x0 DUP3 MLOAD PUSH1 0x0 JUMPDEST DUP2 DUP2 LT ISZERO PUSH2 0x2251 JUMPI PUSH1 0x20 DUP2 DUP7 ADD DUP2 ADD MLOAD DUP6 DUP4 ADD MSTORE ADD PUSH2 0x2237 JUMP JUMPDEST DUP2 DUP2 GT ISZERO PUSH2 0x2260 JUMPI PUSH1 0x0 DUP3 DUP6 ADD MSTORE JUMPDEST POP SWAP2 SWAP1 SWAP2 ADD SWAP3 SWAP2 POP POP JUMP INVALID LOG2 PUSH5 0x6970667358 0x22 SLT KECCAK256 0xAC STATICCALL 0x2B LT SAR DUP6 EXTCODEHASH 0xC2 PUSH23 0x23BF7A4CA912C9DAF16F9AE6A4145538C1C7BEC940C3B5 PUSH5 0x736F6C6343 STOP ADDMOD 0xD STOP CALLER "
				},
				"gasEstimates": {
					"creation": {
						"codeDepositCost": "1773000",
						"executionCost": "infinite",
						"totalCost": "infinite"
					},
					"external": {
						"": "185",
						"_initialized()": "2417",
						"allowMultiBarter()": "2354",
						"barterType()": "2396",
						"completed()": "2410",
						"deadline()": "2330",
						"factory()": "infinite",
						"getAmounts()": "6638",
						"getTokens()": "6758",
						"getTradeOutAmount(uint256)": "4707",
						"getTrades()": "infinite",
						"initialize(uint8,address,address,uint256,uint256,uint256,bool,address)": "infinite",
						"owner()": "2387",
						"renounceOwnership()": "28137",
						"totalTradeAmount()": "2351",
						"tradeEthForToken(uint256)": "infinite",
						"tradeTokenForEth(uint256)": "infinite",
						"tradeTokenForToken(uint256)": "infinite",
						"transferOwnership(address)": "28419",
						"withdraw()": "infinite"
					},
					"internal": {
						"_tradeEthForToken(uint256)": "infinite",
						"_tradeTokenForEth(uint256)": "infinite",
						"_tradeTokenForToken(uint256)": "infinite"
					}
				},
				"methodIdentifiers": {
					"_initialized()": "3072cf60",
					"allowMultiBarter()": "c6ea7038",
					"barterType()": "89523742",
					"completed()": "9d9a7fe9",
					"deadline()": "29dcb0cf",
					"factory()": "c45a0155",
					"getAmounts()": "3d370b4e",
					"getTokens()": "aa6ca808",
					"getTradeOutAmount(uint256)": "dab5a8df",
					"getTrades()": "e43372e9",
					"initialize(uint8,address,address,uint256,uint256,uint256,bool,address)": "5f5780e5",
					"owner()": "8da5cb5b",
					"renounceOwnership()": "715018a6",
					"totalTradeAmount()": "40a6f1ab",
					"tradeEthForToken(uint256)": "4341f920",
					"tradeTokenForEth(uint256)": "0d182605",
					"tradeTokenForToken(uint256)": "2ffc6887",
					"transferOwnership(address)": "f2fde38b",
					"withdraw()": "3ccfd60b"
				}
			},
			"storageLayout": {
				"storage": [
					{
						"astId": 7,
						"contract": "contracts/SycrowBarter.sol:SyCrowBarter",
						"label": "_owner",
						"offset": 0,
						"slot": "0",
						"type": "t_address"
					},
					{
						"astId": 115,
						"contract": "contracts/SycrowBarter.sol:SyCrowBarter",
						"label": "_status",
						"offset": 0,
						"slot": "1",
						"type": "t_uint256"
					},
					{
						"astId": 186,
						"contract": "contracts/SycrowBarter.sol:SyCrowBarter",
						"label": "totalTradeAmount",
						"offset": 0,
						"slot": "2",
						"type": "t_uint256"
					},
					{
						"astId": 189,
						"contract": "contracts/SycrowBarter.sol:SyCrowBarter",
						"label": "allowMultiBarter",
						"offset": 0,
						"slot": "3",
						"type": "t_bool"
					},
					{
						"astId": 192,
						"contract": "contracts/SycrowBarter.sol:SyCrowBarter",
						"label": "completed",
						"offset": 1,
						"slot": "3",
						"type": "t_bool"
					},
					{
						"astId": 195,
						"contract": "contracts/SycrowBarter.sol:SyCrowBarter",
						"label": "deadline",
						"offset": 0,
						"slot": "4",
						"type": "t_uint256"
					},
					{
						"astId": 199,
						"contract": "contracts/SycrowBarter.sol:SyCrowBarter",
						"label": "barterType",
						"offset": 0,
						"slot": "5",
						"type": "t_enum(ISyCrowBarterType)1137"
					},
					{
						"astId": 201,
						"contract": "contracts/SycrowBarter.sol:SyCrowBarter",
						"label": "WETH",
						"offset": 1,
						"slot": "5",
						"type": "t_address"
					},
					{
						"astId": 204,
						"contract": "contracts/SycrowBarter.sol:SyCrowBarter",
						"label": "_initialized",
						"offset": 21,
						"slot": "5",
						"type": "t_bool"
					},
					{
						"astId": 206,
						"contract": "contracts/SycrowBarter.sol:SyCrowBarter",
						"label": "_depositedTokenAddress",
						"offset": 0,
						"slot": "6",
						"type": "t_address"
					},
					{
						"astId": 208,
						"contract": "contracts/SycrowBarter.sol:SyCrowBarter",
						"label": "_expectedTokenAddress",
						"offset": 0,
						"slot": "7",
						"type": "t_address"
					},
					{
						"astId": 210,
						"contract": "contracts/SycrowBarter.sol:SyCrowBarter",
						"label": "_depositedAmount",
						"offset": 0,
						"slot": "8",
						"type": "t_uint256"
					},
					{
						"astId": 212,
						"contract": "contracts/SycrowBarter.sol:SyCrowBarter",
						"label": "_expectedAmount",
						"offset": 0,
						"slot": "9",
						"type": "t_uint256"
					},
					{
						"astId": 216,
						"contract": "contracts/SycrowBarter.sol:SyCrowBarter",
						"label": "_trades",
						"offset": 0,
						"slot": "10",
						"type": "t_array(t_struct(BaterTrade)223_storage)dyn_storage"
					}
				],
				"types": {
					"t_address": {
						"encoding": "inplace",
						"label": "address",
						"numberOfBytes": "20"
					},
					"t_array(t_struct(BaterTrade)223_storage)dyn_storage": {
						"base": "t_struct(BaterTrade)223_storage",
						"encoding": "dynamic_array",
						"label": "struct SyCrowBarter.BaterTrade[]",
						"numberOfBytes": "32"
					},
					"t_bool": {
						"encoding": "inplace",
						"label": "bool",
						"numberOfBytes": "1"
					},
					"t_enum(ISyCrowBarterType)1137": {
						"encoding": "inplace",
						"label": "enum ISyCrowBarterType",
						"numberOfBytes": "1"
					},
					"t_struct(BaterTrade)223_storage": {
						"encoding": "inplace",
						"label": "struct SyCrowBarter.BaterTrade",
						"members": [
							{
								"astId": 218,
								"contract": "contracts/SycrowBarter.sol:SyCrowBarter",
								"label": "_trader",
								"offset": 0,
								"slot": "0",
								"type": "t_address"
							},
							{
								"astId": 220,
								"contract": "contracts/SycrowBarter.sol:SyCrowBarter",
								"label": "_amountIn",
								"offset": 0,
								"slot": "1",
								"type": "t_uint256"
							},
							{
								"astId": 222,
								"contract": "contracts/SycrowBarter.sol:SyCrowBarter",
								"label": "_amountOut",
								"offset": 0,
								"slot": "2",
								"type": "t_uint256"
							}
						],
						"numberOfBytes": "96"
					},
					"t_uint256": {
						"encoding": "inplace",
						"label": "uint256",
						"numberOfBytes": "32"
					}
				}
			},
			"userdoc": {
				"kind": "user",
				"methods": {},
				"version": 1
			}
		}
	}
}