{
	"contracts/SyCrowBarter.sol": {
		"SyCrowBarter": {
			"abi": [
				{
					"inputs": [],
					"stateMutability": "nonpayable",
					"type": "constructor"
				},
				{
					"anonymous": false,
					"inputs": [
						{
							"indexed": true,
							"internalType": "address",
							"name": "previousOwner",
							"type": "address"
						},
						{
							"indexed": true,
							"internalType": "address",
							"name": "newOwner",
							"type": "address"
						}
					],
					"name": "OwnershipTransferred",
					"type": "event"
				},
				{
					"inputs": [],
					"name": "_initialized",
					"outputs": [
						{
							"internalType": "bool",
							"name": "",
							"type": "bool"
						}
					],
					"stateMutability": "view",
					"type": "function"
				},
				{
					"inputs": [],
					"name": "barterType",
					"outputs": [
						{
							"internalType": "enum ISyCrowBarterType",
							"name": "",
							"type": "uint8"
						}
					],
					"stateMutability": "view",
					"type": "function"
				},
				{
					"inputs": [],
					"name": "factory",
					"outputs": [
						{
							"internalType": "address",
							"name": "",
							"type": "address"
						}
					],
					"stateMutability": "view",
					"type": "function"
				},
				{
					"inputs": [],
					"name": "getAmounts",
					"outputs": [
						{
							"internalType": "uint256",
							"name": "",
							"type": "uint256"
						},
						{
							"internalType": "uint256",
							"name": "",
							"type": "uint256"
						}
					],
					"stateMutability": "view",
					"type": "function"
				},
				{
					"inputs": [],
					"name": "getTokens",
					"outputs": [
						{
							"internalType": "address",
							"name": "",
							"type": "address"
						},
						{
							"internalType": "address",
							"name": "",
							"type": "address"
						}
					],
					"stateMutability": "view",
					"type": "function"
				},
				{
					"inputs": [
						{
							"internalType": "uint256",
							"name": "amount",
							"type": "uint256"
						}
					],
					"name": "getTradeOutAmount",
					"outputs": [
						{
							"internalType": "uint256",
							"name": "",
							"type": "uint256"
						}
					],
					"stateMutability": "view",
					"type": "function"
				},
				{
					"inputs": [],
					"name": "getTrades",
					"outputs": [
						{
							"internalType": "address[]",
							"name": "",
							"type": "address[]"
						},
						{
							"internalType": "uint256[]",
							"name": "",
							"type": "uint256[]"
						},
						{
							"internalType": "uint256[]",
							"name": "",
							"type": "uint256[]"
						}
					],
					"stateMutability": "view",
					"type": "function"
				},
				{
					"inputs": [
						{
							"internalType": "enum ISyCrowBarterType",
							"name": "_barterType",
							"type": "uint8"
						},
						{
							"internalType": "address",
							"name": "inToken",
							"type": "address"
						},
						{
							"internalType": "address",
							"name": "outToken",
							"type": "address"
						},
						{
							"internalType": "uint256",
							"name": "amountDeposited",
							"type": "uint256"
						},
						{
							"internalType": "uint256",
							"name": "amountExpected",
							"type": "uint256"
						},
						{
							"internalType": "uint256",
							"name": "deadline",
							"type": "uint256"
						},
						{
							"internalType": "bool",
							"name": "allowMultiBarter",
							"type": "bool"
						},
						{
							"internalType": "address",
							"name": "_WETH",
							"type": "address"
						}
					],
					"name": "initialize",
					"outputs": [
						{
							"internalType": "bool",
							"name": "",
							"type": "bool"
						}
					],
					"stateMutability": "nonpayable",
					"type": "function"
				},
				{
					"inputs": [],
					"name": "owner",
					"outputs": [
						{
							"internalType": "address",
							"name": "",
							"type": "address"
						}
					],
					"stateMutability": "view",
					"type": "function"
				},
				{
					"inputs": [],
					"name": "renounceOwnership",
					"outputs": [],
					"stateMutability": "nonpayable",
					"type": "function"
				},
				{
					"inputs": [],
					"name": "totalTradeAmount",
					"outputs": [
						{
							"internalType": "uint256",
							"name": "",
							"type": "uint256"
						}
					],
					"stateMutability": "view",
					"type": "function"
				},
				{
					"inputs": [
						{
							"internalType": "uint256",
							"name": "inAmount",
							"type": "uint256"
						}
					],
					"name": "tradeEthForToken",
					"outputs": [],
					"stateMutability": "payable",
					"type": "function"
				},
				{
					"inputs": [
						{
							"internalType": "uint256",
							"name": "inAmount",
							"type": "uint256"
						}
					],
					"name": "tradeTokenForEth",
					"outputs": [],
					"stateMutability": "nonpayable",
					"type": "function"
				},
				{
					"inputs": [
						{
							"internalType": "uint256",
							"name": "inAmount",
							"type": "uint256"
						}
					],
					"name": "tradeTokenForToken",
					"outputs": [],
					"stateMutability": "nonpayable",
					"type": "function"
				},
				{
					"inputs": [
						{
							"internalType": "address",
							"name": "newOwner",
							"type": "address"
						}
					],
					"name": "transferOwnership",
					"outputs": [],
					"stateMutability": "nonpayable",
					"type": "function"
				},
				{
					"inputs": [],
					"name": "withdraw",
					"outputs": [],
					"stateMutability": "nonpayable",
					"type": "function"
				}
			],
			"devdoc": {
				"kind": "dev",
				"methods": {
					"owner()": {
						"details": "Returns the address of the current owner."
					},
					"renounceOwnership()": {
						"details": "Leaves the contract without owner. It will not be possible to call `onlyOwner` functions anymore. Can only be called by the current owner. NOTE: Renouncing ownership will leave the contract without an owner, thereby removing any functionality that is only available to the owner."
					},
					"transferOwnership(address)": {
						"details": "Transfers ownership of the contract to a new account (`newOwner`). Can only be called by the current owner."
					}
				},
				"version": 1
			},
			"evm": {
				"assembly": "    /* \"contracts/SyCrowBarter.sol\":269:9932  contract SyCrowBarter is ISyCrowBarter, Ownable {... */\n  mstore(0x40, 0xa0)\n    /* \"contracts/SyCrowBarter.sol\":537:542  false */\n  0x00\n    /* \"contracts/SyCrowBarter.sol\":510:542  bool public _initialized = false */\n  0x03\n  exp(0x0100, 0x15)\n  dup2\n  sload\n  dup2\n  0xff\n  mul\n  not\n  and\n  swap1\n  dup4\n  iszero\n  iszero\n  mul\n  or\n  swap1\n  sstore\n  pop\n    /* \"contracts/SyCrowBarter.sol\":1754:1805  constructor() {... */\n  callvalue\n  dup1\n  iszero\n  tag_1\n  jumpi\n  0x00\n  dup1\n  revert\ntag_1:\n  pop\n    /* \"@openzeppelin/contracts/access/Ownable.sol\":921:953  _transferOwnership(_msgSender()) */\n  tag_5\n    /* \"@openzeppelin/contracts/access/Ownable.sol\":940:952  _msgSender() */\n  tag_6\n    /* \"@openzeppelin/contracts/access/Ownable.sol\":940:950  _msgSender */\n  shl(0x20, tag_7)\n    /* \"@openzeppelin/contracts/access/Ownable.sol\":940:952  _msgSender() */\n  0x20\n  shr\n  jump\t// in\ntag_6:\n    /* \"@openzeppelin/contracts/access/Ownable.sol\":921:939  _transferOwnership */\n  shl(0x20, tag_8)\n    /* \"@openzeppelin/contracts/access/Ownable.sol\":921:953  _transferOwnership(_msgSender()) */\n  0x20\n  shr\n  jump\t// in\ntag_5:\n    /* \"contracts/SyCrowBarter.sol\":1788:1798  msg.sender */\n  caller\n    /* \"contracts/SyCrowBarter.sol\":1778:1798  factory = msg.sender */\n  0xffffffffffffffffffffffffffffffffffffffff\n  and\n  0x80\n  dup2\n  0xffffffffffffffffffffffffffffffffffffffff\n  and\n  dup2\n  mstore\n  pop\n  pop\n    /* \"contracts/SyCrowBarter.sol\":269:9932  contract SyCrowBarter is ISyCrowBarter, Ownable {... */\n  jump(tag_10)\n    /* \"@openzeppelin/contracts/utils/Context.sol\":640:736  function _msgSender() internal view virtual returns (address) {... */\ntag_7:\n    /* \"@openzeppelin/contracts/utils/Context.sol\":693:700  address */\n  0x00\n    /* \"@openzeppelin/contracts/utils/Context.sol\":719:729  msg.sender */\n  caller\n    /* \"@openzeppelin/contracts/utils/Context.sol\":712:729  return msg.sender */\n  swap1\n  pop\n    /* \"@openzeppelin/contracts/utils/Context.sol\":640:736  function _msgSender() internal view virtual returns (address) {... */\n  swap1\n  jump\t// out\n    /* \"@openzeppelin/contracts/access/Ownable.sol\":2270:2457  function _transferOwnership(address newOwner) internal virtual {... */\ntag_8:\n    /* \"@openzeppelin/contracts/access/Ownable.sol\":2343:2359  address oldOwner */\n  0x00\n    /* \"@openzeppelin/contracts/access/Ownable.sol\":2362:2368  _owner */\n  dup1\n  0x00\n  swap1\n  sload\n  swap1\n  0x0100\n  exp\n  swap1\n  div\n  0xffffffffffffffffffffffffffffffffffffffff\n  and\n    /* \"@openzeppelin/contracts/access/Ownable.sol\":2343:2368  address oldOwner = _owner */\n  swap1\n  pop\n    /* \"@openzeppelin/contracts/access/Ownable.sol\":2387:2395  newOwner */\n  dup2\n    /* \"@openzeppelin/contracts/access/Ownable.sol\":2378:2384  _owner */\n  0x00\n  dup1\n    /* \"@openzeppelin/contracts/access/Ownable.sol\":2378:2395  _owner = newOwner */\n  0x0100\n  exp\n  dup2\n  sload\n  dup2\n  0xffffffffffffffffffffffffffffffffffffffff\n  mul\n  not\n  and\n  swap1\n  dup4\n  0xffffffffffffffffffffffffffffffffffffffff\n  and\n  mul\n  or\n  swap1\n  sstore\n  pop\n    /* \"@openzeppelin/contracts/access/Ownable.sol\":2441:2449  newOwner */\n  dup2\n    /* \"@openzeppelin/contracts/access/Ownable.sol\":2410:2450  OwnershipTransferred(oldOwner, newOwner) */\n  0xffffffffffffffffffffffffffffffffffffffff\n  and\n    /* \"@openzeppelin/contracts/access/Ownable.sol\":2431:2439  oldOwner */\n  dup2\n    /* \"@openzeppelin/contracts/access/Ownable.sol\":2410:2450  OwnershipTransferred(oldOwner, newOwner) */\n  0xffffffffffffffffffffffffffffffffffffffff\n  and\n  0x8be0079c531659141344cd1fd0a4f28419497f9722a3daafe3b4186f6b6457e0\n  mload(0x40)\n  mload(0x40)\n  dup1\n  swap2\n  sub\n  swap1\n  log3\n    /* \"@openzeppelin/contracts/access/Ownable.sol\":2333:2457  {... */\n  pop\n    /* \"@openzeppelin/contracts/access/Ownable.sol\":2270:2457  function _transferOwnership(address newOwner) internal virtual {... */\n  pop\n  jump\t// out\n    /* \"contracts/SyCrowBarter.sol\":269:9932  contract SyCrowBarter is ISyCrowBarter, Ownable {... */\ntag_10:\n  mload(0x80)\n  codecopy(0x00, dataOffset(sub_0), dataSize(sub_0))\n  0x00\n  assignImmutable(\"0x26a975632f70533c9512e57b565b8ce8e2befee6b08dfbc27c4a897a20e2c1d6\")\n  return(0x00, dataSize(sub_0))\nstop\n\nsub_0: assembly {\n        /* \"contracts/SyCrowBarter.sol\":269:9932  contract SyCrowBarter is ISyCrowBarter, Ownable {... */\n      mstore(0x40, 0x80)\n      jumpi(tag_1, lt(calldatasize, 0x04))\n      shr(0xe0, calldataload(0x00))\n      dup1\n      0x715018a6\n      gt\n      tag_18\n      jumpi\n      dup1\n      0xc45a0155\n      gt\n      tag_19\n      jumpi\n      dup1\n      0xc45a0155\n      eq\n      tag_14\n      jumpi\n      dup1\n      0xdab5a8df\n      eq\n      tag_15\n      jumpi\n      dup1\n      0xe43372e9\n      eq\n      tag_16\n      jumpi\n      dup1\n      0xf2fde38b\n      eq\n      tag_17\n      jumpi\n      jump(tag_1)\n    tag_19:\n      dup1\n      0x715018a6\n      eq\n      tag_10\n      jumpi\n      dup1\n      0x89523742\n      eq\n      tag_11\n      jumpi\n      dup1\n      0x8da5cb5b\n      eq\n      tag_12\n      jumpi\n      dup1\n      0xaa6ca808\n      eq\n      tag_13\n      jumpi\n      jump(tag_1)\n    tag_18:\n      dup1\n      0x3d370b4e\n      gt\n      tag_20\n      jumpi\n      dup1\n      0x3d370b4e\n      eq\n      tag_6\n      jumpi\n      dup1\n      0x40a6f1ab\n      eq\n      tag_7\n      jumpi\n      dup1\n      0x4341f920\n      eq\n      tag_8\n      jumpi\n      dup1\n      0x5f5780e5\n      eq\n      tag_9\n      jumpi\n      jump(tag_1)\n    tag_20:\n      dup1\n      0x0d182605\n      eq\n      tag_2\n      jumpi\n      dup1\n      0x2ffc6887\n      eq\n      tag_3\n      jumpi\n      dup1\n      0x3072cf60\n      eq\n      tag_4\n      jumpi\n      dup1\n      0x3ccfd60b\n      eq\n      tag_5\n      jumpi\n    tag_1:\n      0x00\n      dup1\n      revert\n        /* \"contracts/SyCrowBarter.sol\":4327:4707  function tradeTokenForEth(uint256 inAmount)... */\n    tag_2:\n      callvalue\n      dup1\n      iszero\n      tag_21\n      jumpi\n      0x00\n      dup1\n      revert\n    tag_21:\n      pop\n      tag_22\n      0x04\n      dup1\n      calldatasize\n      sub\n      dup2\n      add\n      swap1\n      tag_23\n      swap2\n      swap1\n      tag_24\n      jump\t// in\n    tag_23:\n      tag_25\n      jump\t// in\n    tag_22:\n      stop\n        /* \"contracts/SyCrowBarter.sol\":3935:4321  function tradeTokenForToken(uint256 inAmount)... */\n    tag_3:\n      callvalue\n      dup1\n      iszero\n      tag_26\n      jumpi\n      0x00\n      dup1\n      revert\n    tag_26:\n      pop\n      tag_27\n      0x04\n      dup1\n      calldatasize\n      sub\n      dup2\n      add\n      swap1\n      tag_28\n      swap2\n      swap1\n      tag_24\n      jump\t// in\n    tag_28:\n      tag_29\n      jump\t// in\n    tag_27:\n      stop\n        /* \"contracts/SyCrowBarter.sol\":510:542  bool public _initialized = false */\n    tag_4:\n      callvalue\n      dup1\n      iszero\n      tag_30\n      jumpi\n      0x00\n      dup1\n      revert\n    tag_30:\n      pop\n      tag_31\n      tag_32\n      jump\t// in\n    tag_31:\n      mload(0x40)\n      tag_33\n      swap2\n      swap1\n      tag_34\n      jump\t// in\n    tag_33:\n      mload(0x40)\n      dup1\n      swap2\n      sub\n      swap1\n      return\n        /* \"contracts/SyCrowBarter.sol\":8037:9754  function withdraw() external override checkInActive initialized onlyOwner {... */\n    tag_5:\n      callvalue\n      dup1\n      iszero\n      tag_35\n      jumpi\n      0x00\n      dup1\n      revert\n    tag_35:\n      pop\n      tag_36\n      tag_37\n      jump\t// in\n    tag_36:\n      stop\n        /* \"contracts/SyCrowBarter.sol\":2846:3033  function getAmounts()... */\n    tag_6:\n      callvalue\n      dup1\n      iszero\n      tag_38\n      jumpi\n      0x00\n      dup1\n      revert\n    tag_38:\n      pop\n      tag_39\n      tag_40\n      jump\t// in\n    tag_39:\n      mload(0x40)\n      tag_41\n      swap3\n      swap2\n      swap1\n      tag_42\n      jump\t// in\n    tag_41:\n      mload(0x40)\n      dup1\n      swap2\n      sub\n      swap1\n      return\n        /* \"contracts/SyCrowBarter.sol\":370:401  uint256 public totalTradeAmount */\n    tag_7:\n      callvalue\n      dup1\n      iszero\n      tag_43\n      jumpi\n      0x00\n      dup1\n      revert\n    tag_43:\n      pop\n      tag_44\n      tag_45\n      jump\t// in\n    tag_44:\n      mload(0x40)\n      tag_46\n      swap2\n      swap1\n      tag_47\n      jump\t// in\n    tag_46:\n      mload(0x40)\n      dup1\n      swap2\n      sub\n      swap1\n      return\n        /* \"contracts/SyCrowBarter.sol\":4713:5110  function tradeEthForToken(uint256 inAmount)... */\n    tag_8:\n      tag_48\n      0x04\n      dup1\n      calldatasize\n      sub\n      dup2\n      add\n      swap1\n      tag_49\n      swap2\n      swap1\n      tag_24\n      jump\t// in\n    tag_49:\n      tag_50\n      jump\t// in\n    tag_48:\n      stop\n        /* \"contracts/SyCrowBarter.sol\":1811:2840  function initialize(... */\n    tag_9:\n      callvalue\n      dup1\n      iszero\n      tag_51\n      jumpi\n      0x00\n      dup1\n      revert\n    tag_51:\n      pop\n      tag_52\n      0x04\n      dup1\n      calldatasize\n      sub\n      dup2\n      add\n      swap1\n      tag_53\n      swap2\n      swap1\n      tag_54\n      jump\t// in\n    tag_53:\n      tag_55\n      jump\t// in\n    tag_52:\n      mload(0x40)\n      tag_56\n      swap2\n      swap1\n      tag_34\n      jump\t// in\n    tag_56:\n      mload(0x40)\n      dup1\n      swap2\n      sub\n      swap1\n      return\n        /* \"@openzeppelin/contracts/access/Ownable.sol\":1668:1769  function renounceOwnership() public virtual onlyOwner {... */\n    tag_10:\n      callvalue\n      dup1\n      iszero\n      tag_57\n      jumpi\n      0x00\n      dup1\n      revert\n    tag_57:\n      pop\n      tag_58\n      tag_59\n      jump\t// in\n    tag_58:\n      stop\n        /* \"contracts/SyCrowBarter.sol\":437:472  ISyCrowBarterType public barterType */\n    tag_11:\n      callvalue\n      dup1\n      iszero\n      tag_60\n      jumpi\n      0x00\n      dup1\n      revert\n    tag_60:\n      pop\n      tag_61\n      tag_62\n      jump\t// in\n    tag_61:\n      mload(0x40)\n      tag_63\n      swap2\n      swap1\n      tag_64\n      jump\t// in\n    tag_63:\n      mload(0x40)\n      dup1\n      swap2\n      sub\n      swap1\n      return\n        /* \"@openzeppelin/contracts/access/Ownable.sol\":1036:1121  function owner() public view virtual returns (address) {... */\n    tag_12:\n      callvalue\n      dup1\n      iszero\n      tag_65\n      jumpi\n      0x00\n      dup1\n      revert\n    tag_65:\n      pop\n      tag_66\n      tag_67\n      jump\t// in\n    tag_66:\n      mload(0x40)\n      tag_68\n      swap2\n      swap1\n      tag_69\n      jump\t// in\n    tag_68:\n      mload(0x40)\n      dup1\n      swap2\n      sub\n      swap1\n      return\n        /* \"contracts/SyCrowBarter.sol\":3039:3237  function getTokens()... */\n    tag_13:\n      callvalue\n      dup1\n      iszero\n      tag_70\n      jumpi\n      0x00\n      dup1\n      revert\n    tag_70:\n      pop\n      tag_71\n      tag_72\n      jump\t// in\n    tag_71:\n      mload(0x40)\n      tag_73\n      swap3\n      swap2\n      swap1\n      tag_74\n      jump\t// in\n    tag_73:\n      mload(0x40)\n      dup1\n      swap2\n      sub\n      swap1\n      return\n        /* \"contracts/SyCrowBarter.sol\":323:364  address public immutable override factory */\n    tag_14:\n      callvalue\n      dup1\n      iszero\n      tag_75\n      jumpi\n      0x00\n      dup1\n      revert\n    tag_75:\n      pop\n      tag_76\n      tag_77\n      jump\t// in\n    tag_76:\n      mload(0x40)\n      tag_78\n      swap2\n      swap1\n      tag_69\n      jump\t// in\n    tag_78:\n      mload(0x40)\n      dup1\n      swap2\n      sub\n      swap1\n      return\n        /* \"contracts/SyCrowBarter.sol\":9760:9930  function getTradeOutAmount(uint256 amount)... */\n    tag_15:\n      callvalue\n      dup1\n      iszero\n      tag_79\n      jumpi\n      0x00\n      dup1\n      revert\n    tag_79:\n      pop\n      tag_80\n      0x04\n      dup1\n      calldatasize\n      sub\n      dup2\n      add\n      swap1\n      tag_81\n      swap2\n      swap1\n      tag_24\n      jump\t// in\n    tag_81:\n      tag_82\n      jump\t// in\n    tag_80:\n      mload(0x40)\n      tag_83\n      swap2\n      swap1\n      tag_47\n      jump\t// in\n    tag_83:\n      mload(0x40)\n      dup1\n      swap2\n      sub\n      swap1\n      return\n        /* \"contracts/SyCrowBarter.sol\":3243:3929  function getTrades()... */\n    tag_16:\n      callvalue\n      dup1\n      iszero\n      tag_84\n      jumpi\n      0x00\n      dup1\n      revert\n    tag_84:\n      pop\n      tag_85\n      tag_86\n      jump\t// in\n    tag_85:\n      mload(0x40)\n      tag_87\n      swap4\n      swap3\n      swap2\n      swap1\n      tag_88\n      jump\t// in\n    tag_87:\n      mload(0x40)\n      dup1\n      swap2\n      sub\n      swap1\n      return\n        /* \"@openzeppelin/contracts/access/Ownable.sol\":1918:2116  function transferOwnership(address newOwner) public virtual onlyOwner {... */\n    tag_17:\n      callvalue\n      dup1\n      iszero\n      tag_89\n      jumpi\n      0x00\n      dup1\n      revert\n    tag_89:\n      pop\n      tag_90\n      0x04\n      dup1\n      calldatasize\n      sub\n      dup2\n      add\n      swap1\n      tag_91\n      swap2\n      swap1\n      tag_92\n      jump\t// in\n    tag_91:\n      tag_93\n      jump\t// in\n    tag_90:\n      stop\n        /* \"contracts/SyCrowBarter.sol\":4327:4707  function tradeTokenForEth(uint256 inAmount)... */\n    tag_25:\n        /* \"contracts/SyCrowBarter.sol\":963:978  block.timestamp */\n      timestamp\n        /* \"contracts/SyCrowBarter.sol\":951:959  deadline */\n      sload(0x02)\n        /* \"contracts/SyCrowBarter.sol\":951:978  deadline >= block.timestamp */\n      lt\n      iszero\n        /* \"contracts/SyCrowBarter.sol\":951:1016  deadline >= block.timestamp && totalTradeAmount < _expectedAmount */\n      dup1\n      iszero\n      tag_95\n      jumpi\n      pop\n        /* \"contracts/SyCrowBarter.sol\":1001:1016  _expectedAmount */\n      sload(0x07)\n        /* \"contracts/SyCrowBarter.sol\":982:998  totalTradeAmount */\n      sload(0x01)\n        /* \"contracts/SyCrowBarter.sol\":982:1016  totalTradeAmount < _expectedAmount */\n      lt\n        /* \"contracts/SyCrowBarter.sol\":951:1016  deadline >= block.timestamp && totalTradeAmount < _expectedAmount */\n    tag_95:\n        /* \"contracts/SyCrowBarter.sol\":930:1064  require(... */\n      tag_96\n      jumpi\n      mload(0x40)\n      0x08c379a000000000000000000000000000000000000000000000000000000000\n      dup2\n      mstore\n      0x04\n      add\n      tag_97\n      swap1\n      tag_98\n      jump\t// in\n    tag_97:\n      mload(0x40)\n      dup1\n      swap2\n      sub\n      swap1\n      revert\n    tag_96:\n        /* \"contracts/SyCrowBarter.sol\":1481:1493  _initialized */\n      0x03\n      0x15\n      swap1\n      sload\n      swap1\n      0x0100\n      exp\n      swap1\n      div\n      0xff\n      and\n        /* \"contracts/SyCrowBarter.sol\":1473:1527  require(_initialized, \"SyCrowBarter: NOT_INITIALIZED\") */\n      tag_100\n      jumpi\n      mload(0x40)\n      0x08c379a000000000000000000000000000000000000000000000000000000000\n      dup2\n      mstore\n      0x04\n      add\n      tag_101\n      swap1\n      tag_102\n      jump\t// in\n    tag_101:\n      mload(0x40)\n      dup1\n      swap2\n      sub\n      swap1\n      revert\n    tag_100:\n        /* \"contracts/SyCrowBarter.sol\":1584:1617  ISyCrowBarterFactory isycrFactory */\n      0x00\n        /* \"contracts/SyCrowBarter.sol\":1641:1648  factory */\n      immutable(\"0x26a975632f70533c9512e57b565b8ce8e2befee6b08dfbc27c4a897a20e2c1d6\")\n        /* \"contracts/SyCrowBarter.sol\":1584:1649  ISyCrowBarterFactory isycrFactory = ISyCrowBarterFactory(factory) */\n      swap1\n      pop\n        /* \"contracts/SyCrowBarter.sol\":1668:1680  isycrFactory */\n      dup1\n        /* \"contracts/SyCrowBarter.sol\":1668:1689  isycrFactory.isPaused */\n      0xffffffffffffffffffffffffffffffffffffffff\n      and\n      0xb187bd26\n        /* \"contracts/SyCrowBarter.sol\":1668:1691  isycrFactory.isPaused() */\n      mload(0x40)\n      dup2\n      0xffffffff\n      and\n      0xe0\n      shl\n      dup2\n      mstore\n      0x04\n      add\n      0x20\n      mload(0x40)\n      dup1\n      dup4\n      sub\n      dup2\n      dup7\n      gas\n      staticcall\n      iszero\n      dup1\n      iszero\n      tag_105\n      jumpi\n      returndatasize\n      0x00\n      dup1\n      returndatacopy\n      revert(0x00, returndatasize)\n    tag_105:\n      pop\n      pop\n      pop\n      pop\n      mload(0x40)\n      returndatasize\n      not(0x1f)\n      0x1f\n      dup3\n      add\n      and\n      dup3\n      add\n      dup1\n      0x40\n      mstore\n      pop\n      dup2\n      add\n      swap1\n      tag_106\n      swap2\n      swap1\n      tag_107\n      jump\t// in\n    tag_106:\n        /* \"contracts/SyCrowBarter.sol\":1667:1691  !isycrFactory.isPaused() */\n      iszero\n        /* \"contracts/SyCrowBarter.sol\":1659:1730  require(!isycrFactory.isPaused(), \"SyCrowBarter: Base Contract Paused\") */\n      tag_108\n      jumpi\n      mload(0x40)\n      0x08c379a000000000000000000000000000000000000000000000000000000000\n      dup2\n      mstore\n      0x04\n      add\n      tag_109\n      swap1\n      tag_110\n      jump\t// in\n    tag_109:\n      mload(0x40)\n      dup1\n      swap2\n      sub\n      swap1\n      revert\n    tag_108:\n        /* \"contracts/SyCrowBarter.sol\":4489:4520  ISyCrowBarterType.ETH_FOR_TOKEN */\n      0x00\n        /* \"contracts/SyCrowBarter.sol\":1177:1187  barterType */\n      0x03\n      0x00\n      swap1\n      sload\n      swap1\n      0x0100\n      exp\n      swap1\n      div\n      0xff\n      and\n        /* \"contracts/SyCrowBarter.sol\":1162:1187  _barterType == barterType */\n      0x02\n      dup2\n      gt\n      iszero\n      tag_112\n      jumpi\n      tag_113\n      tag_114\n      jump\t// in\n    tag_113:\n    tag_112:\n        /* \"contracts/SyCrowBarter.sol\":1162:1173  _barterType */\n      dup2\n        /* \"contracts/SyCrowBarter.sol\":1162:1187  _barterType == barterType */\n      0x02\n      dup2\n      gt\n      iszero\n      tag_115\n      jumpi\n      tag_116\n      tag_114\n      jump\t// in\n    tag_116:\n    tag_115:\n      eq\n        /* \"contracts/SyCrowBarter.sol\":1154:1225  require(_barterType == barterType, \"SyCrowBarter: INVALID_BARTER_TYPE\") */\n      tag_117\n      jumpi\n      mload(0x40)\n      0x08c379a000000000000000000000000000000000000000000000000000000000\n      dup2\n      mstore\n      0x04\n      add\n      tag_118\n      swap1\n      tag_119\n      jump\t// in\n    tag_118:\n      mload(0x40)\n      dup1\n      swap2\n      sub\n      swap1\n      revert\n    tag_117:\n        /* \"contracts/SyCrowBarter.sol\":4540:4557  _allowMultiBarter */\n      0x08\n      0x00\n      swap1\n      sload\n      swap1\n      0x0100\n      exp\n      swap1\n      div\n      0xff\n      and\n        /* \"contracts/SyCrowBarter.sol\":4536:4664  if(!_allowMultiBarter){... */\n      tag_121\n      jumpi\n        /* \"contracts/SyCrowBarter.sol\":4592:4607  _expectedAmount */\n      sload(0x07)\n        /* \"contracts/SyCrowBarter.sol\":4580:4588  inAmount */\n      dup4\n        /* \"contracts/SyCrowBarter.sol\":4580:4607  inAmount >= _expectedAmount */\n      lt\n      iszero\n        /* \"contracts/SyCrowBarter.sol\":4572:4653  require(inAmount >= _expectedAmount, \"SyCrowBarter: AMOUNT_LOWER_THAN_REQURIRED\") */\n      tag_122\n      jumpi\n      mload(0x40)\n      0x08c379a000000000000000000000000000000000000000000000000000000000\n      dup2\n      mstore\n      0x04\n      add\n      tag_123\n      swap1\n      tag_124\n      jump\t// in\n    tag_123:\n      mload(0x40)\n      dup1\n      swap2\n      sub\n      swap1\n      revert\n    tag_122:\n        /* \"contracts/SyCrowBarter.sol\":4536:4664  if(!_allowMultiBarter){... */\n    tag_121:\n        /* \"contracts/SyCrowBarter.sol\":4673:4700  _tradeTokenForEth(inAmount) */\n      tag_125\n        /* \"contracts/SyCrowBarter.sol\":4691:4699  inAmount */\n      dup4\n        /* \"contracts/SyCrowBarter.sol\":4673:4690  _tradeTokenForEth */\n      tag_126\n        /* \"contracts/SyCrowBarter.sol\":4673:4700  _tradeTokenForEth(inAmount) */\n      jump\t// in\n    tag_125:\n        /* \"contracts/SyCrowBarter.sol\":1740:1741  _ */\n      pop\n        /* \"contracts/SyCrowBarter.sol\":1574:1748  {... */\n      pop\n        /* \"contracts/SyCrowBarter.sol\":4327:4707  function tradeTokenForEth(uint256 inAmount)... */\n      pop\n      jump\t// out\n        /* \"contracts/SyCrowBarter.sol\":3935:4321  function tradeTokenForToken(uint256 inAmount)... */\n    tag_29:\n        /* \"contracts/SyCrowBarter.sol\":963:978  block.timestamp */\n      timestamp\n        /* \"contracts/SyCrowBarter.sol\":951:959  deadline */\n      sload(0x02)\n        /* \"contracts/SyCrowBarter.sol\":951:978  deadline >= block.timestamp */\n      lt\n      iszero\n        /* \"contracts/SyCrowBarter.sol\":951:1016  deadline >= block.timestamp && totalTradeAmount < _expectedAmount */\n      dup1\n      iszero\n      tag_128\n      jumpi\n      pop\n        /* \"contracts/SyCrowBarter.sol\":1001:1016  _expectedAmount */\n      sload(0x07)\n        /* \"contracts/SyCrowBarter.sol\":982:998  totalTradeAmount */\n      sload(0x01)\n        /* \"contracts/SyCrowBarter.sol\":982:1016  totalTradeAmount < _expectedAmount */\n      lt\n        /* \"contracts/SyCrowBarter.sol\":951:1016  deadline >= block.timestamp && totalTradeAmount < _expectedAmount */\n    tag_128:\n        /* \"contracts/SyCrowBarter.sol\":930:1064  require(... */\n      tag_129\n      jumpi\n      mload(0x40)\n      0x08c379a000000000000000000000000000000000000000000000000000000000\n      dup2\n      mstore\n      0x04\n      add\n      tag_130\n      swap1\n      tag_98\n      jump\t// in\n    tag_130:\n      mload(0x40)\n      dup1\n      swap2\n      sub\n      swap1\n      revert\n    tag_129:\n        /* \"contracts/SyCrowBarter.sol\":1481:1493  _initialized */\n      0x03\n      0x15\n      swap1\n      sload\n      swap1\n      0x0100\n      exp\n      swap1\n      div\n      0xff\n      and\n        /* \"contracts/SyCrowBarter.sol\":1473:1527  require(_initialized, \"SyCrowBarter: NOT_INITIALIZED\") */\n      tag_132\n      jumpi\n      mload(0x40)\n      0x08c379a000000000000000000000000000000000000000000000000000000000\n      dup2\n      mstore\n      0x04\n      add\n      tag_133\n      swap1\n      tag_102\n      jump\t// in\n    tag_133:\n      mload(0x40)\n      dup1\n      swap2\n      sub\n      swap1\n      revert\n    tag_132:\n        /* \"contracts/SyCrowBarter.sol\":1584:1617  ISyCrowBarterFactory isycrFactory */\n      0x00\n        /* \"contracts/SyCrowBarter.sol\":1641:1648  factory */\n      immutable(\"0x26a975632f70533c9512e57b565b8ce8e2befee6b08dfbc27c4a897a20e2c1d6\")\n        /* \"contracts/SyCrowBarter.sol\":1584:1649  ISyCrowBarterFactory isycrFactory = ISyCrowBarterFactory(factory) */\n      swap1\n      pop\n        /* \"contracts/SyCrowBarter.sol\":1668:1680  isycrFactory */\n      dup1\n        /* \"contracts/SyCrowBarter.sol\":1668:1689  isycrFactory.isPaused */\n      0xffffffffffffffffffffffffffffffffffffffff\n      and\n      0xb187bd26\n        /* \"contracts/SyCrowBarter.sol\":1668:1691  isycrFactory.isPaused() */\n      mload(0x40)\n      dup2\n      0xffffffff\n      and\n      0xe0\n      shl\n      dup2\n      mstore\n      0x04\n      add\n      0x20\n      mload(0x40)\n      dup1\n      dup4\n      sub\n      dup2\n      dup7\n      gas\n      staticcall\n      iszero\n      dup1\n      iszero\n      tag_136\n      jumpi\n      returndatasize\n      0x00\n      dup1\n      returndatacopy\n      revert(0x00, returndatasize)\n    tag_136:\n      pop\n      pop\n      pop\n      pop\n      mload(0x40)\n      returndatasize\n      not(0x1f)\n      0x1f\n      dup3\n      add\n      and\n      dup3\n      add\n      dup1\n      0x40\n      mstore\n      pop\n      dup2\n      add\n      swap1\n      tag_137\n      swap2\n      swap1\n      tag_107\n      jump\t// in\n    tag_137:\n        /* \"contracts/SyCrowBarter.sol\":1667:1691  !isycrFactory.isPaused() */\n      iszero\n        /* \"contracts/SyCrowBarter.sol\":1659:1730  require(!isycrFactory.isPaused(), \"SyCrowBarter: Base Contract Paused\") */\n      tag_138\n      jumpi\n      mload(0x40)\n      0x08c379a000000000000000000000000000000000000000000000000000000000\n      dup2\n      mstore\n      0x04\n      add\n      tag_139\n      swap1\n      tag_110\n      jump\t// in\n    tag_139:\n      mload(0x40)\n      dup1\n      swap2\n      sub\n      swap1\n      revert\n    tag_138:\n        /* \"contracts/SyCrowBarter.sol\":4099:4132  ISyCrowBarterType.TOKEN_FOR_TOKEN */\n      0x02\n        /* \"contracts/SyCrowBarter.sol\":1177:1187  barterType */\n      0x03\n      0x00\n      swap1\n      sload\n      swap1\n      0x0100\n      exp\n      swap1\n      div\n      0xff\n      and\n        /* \"contracts/SyCrowBarter.sol\":1162:1187  _barterType == barterType */\n      0x02\n      dup2\n      gt\n      iszero\n      tag_141\n      jumpi\n      tag_142\n      tag_114\n      jump\t// in\n    tag_142:\n    tag_141:\n        /* \"contracts/SyCrowBarter.sol\":1162:1173  _barterType */\n      dup2\n        /* \"contracts/SyCrowBarter.sol\":1162:1187  _barterType == barterType */\n      0x02\n      dup2\n      gt\n      iszero\n      tag_143\n      jumpi\n      tag_144\n      tag_114\n      jump\t// in\n    tag_144:\n    tag_143:\n      eq\n        /* \"contracts/SyCrowBarter.sol\":1154:1225  require(_barterType == barterType, \"SyCrowBarter: INVALID_BARTER_TYPE\") */\n      tag_145\n      jumpi\n      mload(0x40)\n      0x08c379a000000000000000000000000000000000000000000000000000000000\n      dup2\n      mstore\n      0x04\n      add\n      tag_146\n      swap1\n      tag_119\n      jump\t// in\n    tag_146:\n      mload(0x40)\n      dup1\n      swap2\n      sub\n      swap1\n      revert\n    tag_145:\n        /* \"contracts/SyCrowBarter.sol\":4152:4169  _allowMultiBarter */\n      0x08\n      0x00\n      swap1\n      sload\n      swap1\n      0x0100\n      exp\n      swap1\n      div\n      0xff\n      and\n        /* \"contracts/SyCrowBarter.sol\":4148:4276  if(!_allowMultiBarter){... */\n      tag_148\n      jumpi\n        /* \"contracts/SyCrowBarter.sol\":4204:4219  _expectedAmount */\n      sload(0x07)\n        /* \"contracts/SyCrowBarter.sol\":4192:4200  inAmount */\n      dup4\n        /* \"contracts/SyCrowBarter.sol\":4192:4219  inAmount >= _expectedAmount */\n      lt\n      iszero\n        /* \"contracts/SyCrowBarter.sol\":4184:4265  require(inAmount >= _expectedAmount, \"SyCrowBarter: AMOUNT_LOWER_THAN_REQURIRED\") */\n      tag_149\n      jumpi\n      mload(0x40)\n      0x08c379a000000000000000000000000000000000000000000000000000000000\n      dup2\n      mstore\n      0x04\n      add\n      tag_150\n      swap1\n      tag_124\n      jump\t// in\n    tag_150:\n      mload(0x40)\n      dup1\n      swap2\n      sub\n      swap1\n      revert\n    tag_149:\n        /* \"contracts/SyCrowBarter.sol\":4148:4276  if(!_allowMultiBarter){... */\n    tag_148:\n        /* \"contracts/SyCrowBarter.sol\":4285:4314  _tradeTokenForToken(inAmount) */\n      tag_151\n        /* \"contracts/SyCrowBarter.sol\":4305:4313  inAmount */\n      dup4\n        /* \"contracts/SyCrowBarter.sol\":4285:4304  _tradeTokenForToken */\n      tag_152\n        /* \"contracts/SyCrowBarter.sol\":4285:4314  _tradeTokenForToken(inAmount) */\n      jump\t// in\n    tag_151:\n        /* \"contracts/SyCrowBarter.sol\":1740:1741  _ */\n      pop\n        /* \"contracts/SyCrowBarter.sol\":1574:1748  {... */\n      pop\n        /* \"contracts/SyCrowBarter.sol\":3935:4321  function tradeTokenForToken(uint256 inAmount)... */\n      pop\n      jump\t// out\n        /* \"contracts/SyCrowBarter.sol\":510:542  bool public _initialized = false */\n    tag_32:\n      0x03\n      0x15\n      swap1\n      sload\n      swap1\n      0x0100\n      exp\n      swap1\n      div\n      0xff\n      and\n      dup2\n      jump\t// out\n        /* \"contracts/SyCrowBarter.sol\":8037:9754  function withdraw() external override checkInActive initialized onlyOwner {... */\n    tag_37:\n        /* \"contracts/SyCrowBarter.sol\":1316:1331  block.timestamp */\n      timestamp\n        /* \"contracts/SyCrowBarter.sol\":1305:1313  deadline */\n      sload(0x02)\n        /* \"contracts/SyCrowBarter.sol\":1305:1331  deadline < block.timestamp */\n      lt\n        /* \"contracts/SyCrowBarter.sol\":1305:1370  deadline < block.timestamp || totalTradeAmount >= _expectedAmount */\n      dup1\n      tag_154\n      jumpi\n      pop\n        /* \"contracts/SyCrowBarter.sol\":1355:1370  _expectedAmount */\n      sload(0x07)\n        /* \"contracts/SyCrowBarter.sol\":1335:1351  totalTradeAmount */\n      sload(0x01)\n        /* \"contracts/SyCrowBarter.sol\":1335:1370  totalTradeAmount >= _expectedAmount */\n      lt\n      iszero\n        /* \"contracts/SyCrowBarter.sol\":1305:1370  deadline < block.timestamp || totalTradeAmount >= _expectedAmount */\n    tag_154:\n        /* \"contracts/SyCrowBarter.sol\":1284:1416  require(... */\n      tag_155\n      jumpi\n      mload(0x40)\n      0x08c379a000000000000000000000000000000000000000000000000000000000\n      dup2\n      mstore\n      0x04\n      add\n      tag_156\n      swap1\n      tag_157\n      jump\t// in\n    tag_156:\n      mload(0x40)\n      dup1\n      swap2\n      sub\n      swap1\n      revert\n    tag_155:\n        /* \"contracts/SyCrowBarter.sol\":1481:1493  _initialized */\n      0x03\n      0x15\n      swap1\n      sload\n      swap1\n      0x0100\n      exp\n      swap1\n      div\n      0xff\n      and\n        /* \"contracts/SyCrowBarter.sol\":1473:1527  require(_initialized, \"SyCrowBarter: NOT_INITIALIZED\") */\n      tag_159\n      jumpi\n      mload(0x40)\n      0x08c379a000000000000000000000000000000000000000000000000000000000\n      dup2\n      mstore\n      0x04\n      add\n      tag_160\n      swap1\n      tag_102\n      jump\t// in\n    tag_160:\n      mload(0x40)\n      dup1\n      swap2\n      sub\n      swap1\n      revert\n    tag_159:\n        /* \"@openzeppelin/contracts/access/Ownable.sol\":1259:1271  _msgSender() */\n      tag_162\n        /* \"@openzeppelin/contracts/access/Ownable.sol\":1259:1269  _msgSender */\n      tag_163\n        /* \"@openzeppelin/contracts/access/Ownable.sol\":1259:1271  _msgSender() */\n      jump\t// in\n    tag_162:\n        /* \"@openzeppelin/contracts/access/Ownable.sol\":1248:1271  owner() == _msgSender() */\n      0xffffffffffffffffffffffffffffffffffffffff\n      and\n        /* \"@openzeppelin/contracts/access/Ownable.sol\":1248:1255  owner() */\n      tag_164\n        /* \"@openzeppelin/contracts/access/Ownable.sol\":1248:1253  owner */\n      tag_67\n        /* \"@openzeppelin/contracts/access/Ownable.sol\":1248:1255  owner() */\n      jump\t// in\n    tag_164:\n        /* \"@openzeppelin/contracts/access/Ownable.sol\":1248:1271  owner() == _msgSender() */\n      0xffffffffffffffffffffffffffffffffffffffff\n      and\n      eq\n        /* \"@openzeppelin/contracts/access/Ownable.sol\":1240:1308  require(owner() == _msgSender(), \"Ownable: caller is not the owner\") */\n      tag_165\n      jumpi\n      mload(0x40)\n      0x08c379a000000000000000000000000000000000000000000000000000000000\n      dup2\n      mstore\n      0x04\n      add\n      tag_166\n      swap1\n      tag_167\n      jump\t// in\n    tag_166:\n      mload(0x40)\n      dup1\n      swap2\n      sub\n      swap1\n      revert\n    tag_165:\n        /* \"contracts/SyCrowBarter.sol\":8121:8132  IWETH _weth */\n      0x00\n        /* \"contracts/SyCrowBarter.sol\":8141:8145  WETH */\n      0x03\n      0x01\n      swap1\n      sload\n      swap1\n      0x0100\n      exp\n      swap1\n      div\n      0xffffffffffffffffffffffffffffffffffffffff\n      and\n        /* \"contracts/SyCrowBarter.sol\":8121:8146  IWETH _weth = IWETH(WETH) */\n      swap1\n      pop\n        /* \"contracts/SyCrowBarter.sol\":8157:8175  uint256 ethBalance */\n      0x00\n        /* \"contracts/SyCrowBarter.sol\":8178:8183  _weth */\n      dup2\n        /* \"contracts/SyCrowBarter.sol\":8178:8193  _weth.balanceOf */\n      0xffffffffffffffffffffffffffffffffffffffff\n      and\n      0x70a08231\n        /* \"contracts/SyCrowBarter.sol\":8202:8206  this */\n      address\n        /* \"contracts/SyCrowBarter.sol\":8178:8208  _weth.balanceOf(address(this)) */\n      mload(0x40)\n      dup3\n      0xffffffff\n      and\n      0xe0\n      shl\n      dup2\n      mstore\n      0x04\n      add\n      tag_169\n      swap2\n      swap1\n      tag_69\n      jump\t// in\n    tag_169:\n      0x20\n      mload(0x40)\n      dup1\n      dup4\n      sub\n      dup2\n      dup7\n      gas\n      staticcall\n      iszero\n      dup1\n      iszero\n      tag_171\n      jumpi\n      returndatasize\n      0x00\n      dup1\n      returndatacopy\n      revert(0x00, returndatasize)\n    tag_171:\n      pop\n      pop\n      pop\n      pop\n      mload(0x40)\n      returndatasize\n      not(0x1f)\n      0x1f\n      dup3\n      add\n      and\n      dup3\n      add\n      dup1\n      0x40\n      mstore\n      pop\n      dup2\n      add\n      swap1\n      tag_172\n      swap2\n      swap1\n      tag_173\n      jump\t// in\n    tag_172:\n        /* \"contracts/SyCrowBarter.sol\":8157:8208  uint256 ethBalance = _weth.balanceOf(address(this)) */\n      swap1\n      pop\n        /* \"contracts/SyCrowBarter.sol\":8236:8237  0 */\n      0x00\n        /* \"contracts/SyCrowBarter.sol\":8223:8233  ethBalance */\n      dup2\n        /* \"contracts/SyCrowBarter.sol\":8223:8237  ethBalance > 0 */\n      gt\n        /* \"contracts/SyCrowBarter.sol\":8219:8364  if (ethBalance > 0) {... */\n      iszero\n      tag_174\n      jumpi\n        /* \"contracts/SyCrowBarter.sol\":8259:8263  WETH */\n      0x03\n      0x01\n      swap1\n      sload\n      swap1\n      0x0100\n      exp\n      swap1\n      div\n      0xffffffffffffffffffffffffffffffffffffffff\n      and\n        /* \"contracts/SyCrowBarter.sol\":8253:8273  IWETH(WETH).withdraw */\n      0xffffffffffffffffffffffffffffffffffffffff\n      and\n      0x2e1a7d4d\n        /* \"contracts/SyCrowBarter.sol\":8274:8284  ethBalance */\n      dup3\n        /* \"contracts/SyCrowBarter.sol\":8253:8285  IWETH(WETH).withdraw(ethBalance) */\n      mload(0x40)\n      dup3\n      0xffffffff\n      and\n      0xe0\n      shl\n      dup2\n      mstore\n      0x04\n      add\n      tag_175\n      swap2\n      swap1\n      tag_47\n      jump\t// in\n    tag_175:\n      0x00\n      mload(0x40)\n      dup1\n      dup4\n      sub\n      dup2\n      0x00\n      dup8\n      dup1\n      extcodesize\n      iszero\n      dup1\n      iszero\n      tag_176\n      jumpi\n      0x00\n      dup1\n      revert\n    tag_176:\n      pop\n      gas\n      call\n      iszero\n      dup1\n      iszero\n      tag_178\n      jumpi\n      returndatasize\n      0x00\n      dup1\n      returndatacopy\n      revert(0x00, returndatasize)\n    tag_178:\n      pop\n      pop\n      pop\n      pop\n        /* \"contracts/SyCrowBarter.sol\":8299:8353  TransferHelper.safeTransferETH(msg.sender, ethBalance) */\n      tag_179\n        /* \"contracts/SyCrowBarter.sol\":8330:8340  msg.sender */\n      caller\n        /* \"contracts/SyCrowBarter.sol\":8342:8352  ethBalance */\n      dup3\n        /* \"contracts/SyCrowBarter.sol\":8299:8329  TransferHelper.safeTransferETH */\n      tag_180\n        /* \"contracts/SyCrowBarter.sol\":8299:8353  TransferHelper.safeTransferETH(msg.sender, ethBalance) */\n      jump\t// in\n    tag_179:\n        /* \"contracts/SyCrowBarter.sol\":8219:8364  if (ethBalance > 0) {... */\n    tag_174:\n        /* \"contracts/SyCrowBarter.sol\":8374:8402  uint256 expectedTokenBalance */\n      0x00\n        /* \"contracts/SyCrowBarter.sol\":8412:8433  _expectedTokenAddress */\n      0x05\n      0x00\n      swap1\n      sload\n      swap1\n      0x0100\n      exp\n      swap1\n      div\n      0xffffffffffffffffffffffffffffffffffffffff\n      and\n        /* \"contracts/SyCrowBarter.sol\":8405:8444  IERC20(_expectedTokenAddress).balanceOf */\n      0xffffffffffffffffffffffffffffffffffffffff\n      and\n      0x70a08231\n        /* \"contracts/SyCrowBarter.sol\":8466:8470  this */\n      address\n        /* \"contracts/SyCrowBarter.sol\":8405:8481  IERC20(_expectedTokenAddress).balanceOf(... */\n      mload(0x40)\n      dup3\n      0xffffffff\n      and\n      0xe0\n      shl\n      dup2\n      mstore\n      0x04\n      add\n      tag_181\n      swap2\n      swap1\n      tag_69\n      jump\t// in\n    tag_181:\n      0x20\n      mload(0x40)\n      dup1\n      dup4\n      sub\n      dup2\n      dup7\n      gas\n      staticcall\n      iszero\n      dup1\n      iszero\n      tag_183\n      jumpi\n      returndatasize\n      0x00\n      dup1\n      returndatacopy\n      revert(0x00, returndatasize)\n    tag_183:\n      pop\n      pop\n      pop\n      pop\n      mload(0x40)\n      returndatasize\n      not(0x1f)\n      0x1f\n      dup3\n      add\n      and\n      dup3\n      add\n      dup1\n      0x40\n      mstore\n      pop\n      dup2\n      add\n      swap1\n      tag_184\n      swap2\n      swap1\n      tag_173\n      jump\t// in\n    tag_184:\n        /* \"contracts/SyCrowBarter.sol\":8374:8481  uint256 expectedTokenBalance = IERC20(_expectedTokenAddress).balanceOf(... */\n      swap1\n      pop\n        /* \"contracts/SyCrowBarter.sol\":8519:8520  0 */\n      0x00\n        /* \"contracts/SyCrowBarter.sol\":8496:8516  expectedTokenBalance */\n      dup2\n        /* \"contracts/SyCrowBarter.sol\":8496:8520  expectedTokenBalance > 0 */\n      gt\n        /* \"contracts/SyCrowBarter.sol\":8492:8693  if (expectedTokenBalance > 0) {... */\n      iszero\n      tag_185\n      jumpi\n        /* \"contracts/SyCrowBarter.sol\":8536:8682  TransferHelper.safeTransfer(... */\n      tag_186\n        /* \"contracts/SyCrowBarter.sol\":8581:8602  _expectedTokenAddress */\n      0x05\n      0x00\n      swap1\n      sload\n      swap1\n      0x0100\n      exp\n      swap1\n      div\n      0xffffffffffffffffffffffffffffffffffffffff\n      and\n        /* \"contracts/SyCrowBarter.sol\":8620:8630  msg.sender */\n      caller\n        /* \"contracts/SyCrowBarter.sol\":8648:8668  expectedTokenBalance */\n      dup4\n        /* \"contracts/SyCrowBarter.sol\":8536:8563  TransferHelper.safeTransfer */\n      tag_187\n        /* \"contracts/SyCrowBarter.sol\":8536:8682  TransferHelper.safeTransfer(... */\n      jump\t// in\n    tag_186:\n        /* \"contracts/SyCrowBarter.sol\":8492:8693  if (expectedTokenBalance > 0) {... */\n    tag_185:\n        /* \"contracts/SyCrowBarter.sol\":8703:8732  uint256 depositedTokenBalance */\n      0x00\n        /* \"contracts/SyCrowBarter.sol\":8742:8764  _depositedTokenAddress */\n      0x04\n      0x00\n      swap1\n      sload\n      swap1\n      0x0100\n      exp\n      swap1\n      div\n      0xffffffffffffffffffffffffffffffffffffffff\n      and\n        /* \"contracts/SyCrowBarter.sol\":8735:8788  IERC20(_depositedTokenAddress)... */\n      0xffffffffffffffffffffffffffffffffffffffff\n      and\n      0x70a08231\n        /* \"contracts/SyCrowBarter.sol\":8797:8801  this */\n      address\n        /* \"contracts/SyCrowBarter.sol\":8735:8803  IERC20(_depositedTokenAddress)... */\n      mload(0x40)\n      dup3\n      0xffffffff\n      and\n      0xe0\n      shl\n      dup2\n      mstore\n      0x04\n      add\n      tag_188\n      swap2\n      swap1\n      tag_69\n      jump\t// in\n    tag_188:\n      0x20\n      mload(0x40)\n      dup1\n      dup4\n      sub\n      dup2\n      dup7\n      gas\n      staticcall\n      iszero\n      dup1\n      iszero\n      tag_190\n      jumpi\n      returndatasize\n      0x00\n      dup1\n      returndatacopy\n      revert(0x00, returndatasize)\n    tag_190:\n      pop\n      pop\n      pop\n      pop\n      mload(0x40)\n      returndatasize\n      not(0x1f)\n      0x1f\n      dup3\n      add\n      and\n      dup3\n      add\n      dup1\n      0x40\n      mstore\n      pop\n      dup2\n      add\n      swap1\n      tag_191\n      swap2\n      swap1\n      tag_173\n      jump\t// in\n    tag_191:\n        /* \"contracts/SyCrowBarter.sol\":8703:8803  uint256 depositedTokenBalance = IERC20(_depositedTokenAddress)... */\n      swap1\n      pop\n        /* \"contracts/SyCrowBarter.sol\":8842:8843  0 */\n      0x00\n        /* \"contracts/SyCrowBarter.sol\":8818:8839  depositedTokenBalance */\n      dup2\n        /* \"contracts/SyCrowBarter.sol\":8818:8843  depositedTokenBalance > 0 */\n      gt\n        /* \"contracts/SyCrowBarter.sol\":8814:9018  if (depositedTokenBalance > 0) {... */\n      iszero\n      tag_192\n      jumpi\n        /* \"contracts/SyCrowBarter.sol\":8859:9007  TransferHelper.safeTransfer(... */\n      tag_193\n        /* \"contracts/SyCrowBarter.sol\":8904:8926  _depositedTokenAddress */\n      0x04\n      0x00\n      swap1\n      sload\n      swap1\n      0x0100\n      exp\n      swap1\n      div\n      0xffffffffffffffffffffffffffffffffffffffff\n      and\n        /* \"contracts/SyCrowBarter.sol\":8944:8954  msg.sender */\n      caller\n        /* \"contracts/SyCrowBarter.sol\":8972:8993  depositedTokenBalance */\n      dup4\n        /* \"contracts/SyCrowBarter.sol\":8859:8886  TransferHelper.safeTransfer */\n      tag_187\n        /* \"contracts/SyCrowBarter.sol\":8859:9007  TransferHelper.safeTransfer(... */\n      jump\t// in\n    tag_193:\n        /* \"contracts/SyCrowBarter.sol\":8814:9018  if (depositedTokenBalance > 0) {... */\n    tag_192:\n        /* \"contracts/SyCrowBarter.sol\":9027:9041  uint256 value1 */\n      0x00\n        /* \"contracts/SyCrowBarter.sol\":9055:9069  uint256 value2 */\n      dup1\n        /* \"contracts/SyCrowBarter.sol\":9102:9133  ISyCrowBarterType.ETH_FOR_TOKEN */\n      0x00\n        /* \"contracts/SyCrowBarter.sol\":9088:9133  barterType == ISyCrowBarterType.ETH_FOR_TOKEN */\n      0x02\n      dup2\n      gt\n      iszero\n      tag_194\n      jumpi\n      tag_195\n      tag_114\n      jump\t// in\n    tag_195:\n    tag_194:\n        /* \"contracts/SyCrowBarter.sol\":9088:9098  barterType */\n      0x03\n      0x00\n      swap1\n      sload\n      swap1\n      0x0100\n      exp\n      swap1\n      div\n      0xff\n      and\n        /* \"contracts/SyCrowBarter.sol\":9088:9133  barterType == ISyCrowBarterType.ETH_FOR_TOKEN */\n      0x02\n      dup2\n      gt\n      iszero\n      tag_196\n      jumpi\n      tag_197\n      tag_114\n      jump\t// in\n    tag_197:\n    tag_196:\n      sub\n        /* \"contracts/SyCrowBarter.sol\":9084:9473  if (barterType == ISyCrowBarterType.ETH_FOR_TOKEN) {... */\n      tag_198\n      jumpi\n        /* \"contracts/SyCrowBarter.sol\":9158:9168  ethBalance */\n      dup5\n        /* \"contracts/SyCrowBarter.sol\":9149:9168  value1 = ethBalance */\n      swap2\n      pop\n        /* \"contracts/SyCrowBarter.sol\":9191:9211  expectedTokenBalance */\n      dup4\n        /* \"contracts/SyCrowBarter.sol\":9182:9211  value2 = expectedTokenBalance */\n      swap1\n      pop\n        /* \"contracts/SyCrowBarter.sol\":9084:9473  if (barterType == ISyCrowBarterType.ETH_FOR_TOKEN) {... */\n      jump(tag_199)\n    tag_198:\n        /* \"contracts/SyCrowBarter.sol\":9246:9279  ISyCrowBarterType.TOKEN_FOR_TOKEN */\n      0x02\n        /* \"contracts/SyCrowBarter.sol\":9232:9279  barterType == ISyCrowBarterType.TOKEN_FOR_TOKEN */\n      dup1\n      dup2\n      gt\n      iszero\n      tag_200\n      jumpi\n      tag_201\n      tag_114\n      jump\t// in\n    tag_201:\n    tag_200:\n        /* \"contracts/SyCrowBarter.sol\":9232:9242  barterType */\n      0x03\n      0x00\n      swap1\n      sload\n      swap1\n      0x0100\n      exp\n      swap1\n      div\n      0xff\n      and\n        /* \"contracts/SyCrowBarter.sol\":9232:9279  barterType == ISyCrowBarterType.TOKEN_FOR_TOKEN */\n      0x02\n      dup2\n      gt\n      iszero\n      tag_202\n      jumpi\n      tag_203\n      tag_114\n      jump\t// in\n    tag_203:\n    tag_202:\n      sub\n        /* \"contracts/SyCrowBarter.sol\":9228:9473  if (barterType == ISyCrowBarterType.TOKEN_FOR_TOKEN) {... */\n      tag_204\n      jumpi\n        /* \"contracts/SyCrowBarter.sol\":9304:9325  depositedTokenBalance */\n      dup3\n        /* \"contracts/SyCrowBarter.sol\":9295:9325  value1 = depositedTokenBalance */\n      swap2\n      pop\n        /* \"contracts/SyCrowBarter.sol\":9348:9368  expectedTokenBalance */\n      dup4\n        /* \"contracts/SyCrowBarter.sol\":9339:9368  value2 = expectedTokenBalance */\n      swap1\n      pop\n        /* \"contracts/SyCrowBarter.sol\":9228:9473  if (barterType == ISyCrowBarterType.TOKEN_FOR_TOKEN) {... */\n      jump(tag_205)\n    tag_204:\n        /* \"contracts/SyCrowBarter.sol\":9408:9429  depositedTokenBalance */\n      dup3\n        /* \"contracts/SyCrowBarter.sol\":9399:9429  value1 = depositedTokenBalance */\n      swap2\n      pop\n        /* \"contracts/SyCrowBarter.sol\":9452:9462  ethBalance */\n      dup5\n        /* \"contracts/SyCrowBarter.sol\":9443:9462  value2 = ethBalance */\n      swap1\n      pop\n        /* \"contracts/SyCrowBarter.sol\":9228:9473  if (barterType == ISyCrowBarterType.TOKEN_FOR_TOKEN) {... */\n    tag_205:\n        /* \"contracts/SyCrowBarter.sol\":9084:9473  if (barterType == ISyCrowBarterType.ETH_FOR_TOKEN) {... */\n    tag_199:\n        /* \"contracts/SyCrowBarter.sol\":9483:9515  ISyCrowBarterFactory sycrFactory */\n      0x00\n        /* \"contracts/SyCrowBarter.sol\":9539:9546  factory */\n      immutable(\"0x26a975632f70533c9512e57b565b8ce8e2befee6b08dfbc27c4a897a20e2c1d6\")\n        /* \"contracts/SyCrowBarter.sol\":9483:9547  ISyCrowBarterFactory sycrFactory = ISyCrowBarterFactory(factory) */\n      swap1\n      pop\n        /* \"contracts/SyCrowBarter.sol\":9566:9577  sycrFactory */\n      dup1\n        /* \"contracts/SyCrowBarter.sol\":9566:9602  sycrFactory.notifyWithdrawFromBarter */\n      0xffffffffffffffffffffffffffffffffffffffff\n      and\n      0x33796a0e\n        /* \"contracts/SyCrowBarter.sol\":9624:9628  this */\n      address\n        /* \"contracts/SyCrowBarter.sol\":9643:9653  msg.sender */\n      caller\n        /* \"contracts/SyCrowBarter.sol\":9667:9673  value1 */\n      dup7\n        /* \"contracts/SyCrowBarter.sol\":9687:9693  value2 */\n      dup7\n        /* \"contracts/SyCrowBarter.sol\":9566:9703  sycrFactory.notifyWithdrawFromBarter(... */\n      mload(0x40)\n      dup6\n      0xffffffff\n      and\n      0xe0\n      shl\n      dup2\n      mstore\n      0x04\n      add\n      tag_206\n      swap5\n      swap4\n      swap3\n      swap2\n      swap1\n      tag_207\n      jump\t// in\n    tag_206:\n      0x00\n      mload(0x40)\n      dup1\n      dup4\n      sub\n      dup2\n      0x00\n      dup8\n      dup1\n      extcodesize\n      iszero\n      dup1\n      iszero\n      tag_208\n      jumpi\n      0x00\n      dup1\n      revert\n    tag_208:\n      pop\n      gas\n      call\n      iszero\n      dup1\n      iszero\n      tag_210\n      jumpi\n      returndatasize\n      0x00\n      dup1\n      returndatacopy\n      revert(0x00, returndatasize)\n    tag_210:\n      pop\n      pop\n      pop\n      pop\n        /* \"contracts/SyCrowBarter.sol\":9735:9745  msg.sender */\n      caller\n        /* \"contracts/SyCrowBarter.sol\":9714:9747  selfdestruct(payable(msg.sender)) */\n      0xffffffffffffffffffffffffffffffffffffffff\n      and\n      selfdestruct\n        /* \"contracts/SyCrowBarter.sol\":2846:3033  function getAmounts()... */\n    tag_40:\n        /* \"contracts/SyCrowBarter.sol\":2952:2959  uint256 */\n      0x00\n        /* \"contracts/SyCrowBarter.sol\":2961:2968  uint256 */\n      dup1\n        /* \"contracts/SyCrowBarter.sol\":1481:1493  _initialized */\n      0x03\n      0x15\n      swap1\n      sload\n      swap1\n      0x0100\n      exp\n      swap1\n      div\n      0xff\n      and\n        /* \"contracts/SyCrowBarter.sol\":1473:1527  require(_initialized, \"SyCrowBarter: NOT_INITIALIZED\") */\n      tag_212\n      jumpi\n      mload(0x40)\n      0x08c379a000000000000000000000000000000000000000000000000000000000\n      dup2\n      mstore\n      0x04\n      add\n      tag_213\n      swap1\n      tag_102\n      jump\t// in\n    tag_213:\n      mload(0x40)\n      dup1\n      swap2\n      sub\n      swap1\n      revert\n    tag_212:\n        /* \"contracts/SyCrowBarter.sol\":2992:3008  _depositedAmount */\n      sload(0x06)\n        /* \"contracts/SyCrowBarter.sol\":3010:3025  _expectedAmount */\n      sload(0x07)\n        /* \"contracts/SyCrowBarter.sol\":2984:3026  return (_depositedAmount, _expectedAmount) */\n      swap2\n      pop\n      swap2\n      pop\n        /* \"contracts/SyCrowBarter.sol\":2846:3033  function getAmounts()... */\n      swap1\n      swap2\n      jump\t// out\n        /* \"contracts/SyCrowBarter.sol\":370:401  uint256 public totalTradeAmount */\n    tag_45:\n      sload(0x01)\n      dup2\n      jump\t// out\n        /* \"contracts/SyCrowBarter.sol\":4713:5110  function tradeEthForToken(uint256 inAmount)... */\n    tag_50:\n        /* \"contracts/SyCrowBarter.sol\":963:978  block.timestamp */\n      timestamp\n        /* \"contracts/SyCrowBarter.sol\":951:959  deadline */\n      sload(0x02)\n        /* \"contracts/SyCrowBarter.sol\":951:978  deadline >= block.timestamp */\n      lt\n      iszero\n        /* \"contracts/SyCrowBarter.sol\":951:1016  deadline >= block.timestamp && totalTradeAmount < _expectedAmount */\n      dup1\n      iszero\n      tag_216\n      jumpi\n      pop\n        /* \"contracts/SyCrowBarter.sol\":1001:1016  _expectedAmount */\n      sload(0x07)\n        /* \"contracts/SyCrowBarter.sol\":982:998  totalTradeAmount */\n      sload(0x01)\n        /* \"contracts/SyCrowBarter.sol\":982:1016  totalTradeAmount < _expectedAmount */\n      lt\n        /* \"contracts/SyCrowBarter.sol\":951:1016  deadline >= block.timestamp && totalTradeAmount < _expectedAmount */\n    tag_216:\n        /* \"contracts/SyCrowBarter.sol\":930:1064  require(... */\n      tag_217\n      jumpi\n      mload(0x40)\n      0x08c379a000000000000000000000000000000000000000000000000000000000\n      dup2\n      mstore\n      0x04\n      add\n      tag_218\n      swap1\n      tag_98\n      jump\t// in\n    tag_218:\n      mload(0x40)\n      dup1\n      swap2\n      sub\n      swap1\n      revert\n    tag_217:\n        /* \"contracts/SyCrowBarter.sol\":1481:1493  _initialized */\n      0x03\n      0x15\n      swap1\n      sload\n      swap1\n      0x0100\n      exp\n      swap1\n      div\n      0xff\n      and\n        /* \"contracts/SyCrowBarter.sol\":1473:1527  require(_initialized, \"SyCrowBarter: NOT_INITIALIZED\") */\n      tag_220\n      jumpi\n      mload(0x40)\n      0x08c379a000000000000000000000000000000000000000000000000000000000\n      dup2\n      mstore\n      0x04\n      add\n      tag_221\n      swap1\n      tag_102\n      jump\t// in\n    tag_221:\n      mload(0x40)\n      dup1\n      swap2\n      sub\n      swap1\n      revert\n    tag_220:\n        /* \"contracts/SyCrowBarter.sol\":1584:1617  ISyCrowBarterFactory isycrFactory */\n      0x00\n        /* \"contracts/SyCrowBarter.sol\":1641:1648  factory */\n      immutable(\"0x26a975632f70533c9512e57b565b8ce8e2befee6b08dfbc27c4a897a20e2c1d6\")\n        /* \"contracts/SyCrowBarter.sol\":1584:1649  ISyCrowBarterFactory isycrFactory = ISyCrowBarterFactory(factory) */\n      swap1\n      pop\n        /* \"contracts/SyCrowBarter.sol\":1668:1680  isycrFactory */\n      dup1\n        /* \"contracts/SyCrowBarter.sol\":1668:1689  isycrFactory.isPaused */\n      0xffffffffffffffffffffffffffffffffffffffff\n      and\n      0xb187bd26\n        /* \"contracts/SyCrowBarter.sol\":1668:1691  isycrFactory.isPaused() */\n      mload(0x40)\n      dup2\n      0xffffffff\n      and\n      0xe0\n      shl\n      dup2\n      mstore\n      0x04\n      add\n      0x20\n      mload(0x40)\n      dup1\n      dup4\n      sub\n      dup2\n      dup7\n      gas\n      staticcall\n      iszero\n      dup1\n      iszero\n      tag_224\n      jumpi\n      returndatasize\n      0x00\n      dup1\n      returndatacopy\n      revert(0x00, returndatasize)\n    tag_224:\n      pop\n      pop\n      pop\n      pop\n      mload(0x40)\n      returndatasize\n      not(0x1f)\n      0x1f\n      dup3\n      add\n      and\n      dup3\n      add\n      dup1\n      0x40\n      mstore\n      pop\n      dup2\n      add\n      swap1\n      tag_225\n      swap2\n      swap1\n      tag_107\n      jump\t// in\n    tag_225:\n        /* \"contracts/SyCrowBarter.sol\":1667:1691  !isycrFactory.isPaused() */\n      iszero\n        /* \"contracts/SyCrowBarter.sol\":1659:1730  require(!isycrFactory.isPaused(), \"SyCrowBarter: Base Contract Paused\") */\n      tag_226\n      jumpi\n      mload(0x40)\n      0x08c379a000000000000000000000000000000000000000000000000000000000\n      dup2\n      mstore\n      0x04\n      add\n      tag_227\n      swap1\n      tag_110\n      jump\t// in\n    tag_227:\n      mload(0x40)\n      dup1\n      swap2\n      sub\n      swap1\n      revert\n    tag_226:\n        /* \"contracts/SyCrowBarter.sol\":4891:4922  ISyCrowBarterType.TOKEN_FOR_ETH */\n      0x01\n        /* \"contracts/SyCrowBarter.sol\":1177:1187  barterType */\n      0x03\n      0x00\n      swap1\n      sload\n      swap1\n      0x0100\n      exp\n      swap1\n      div\n      0xff\n      and\n        /* \"contracts/SyCrowBarter.sol\":1162:1187  _barterType == barterType */\n      0x02\n      dup2\n      gt\n      iszero\n      tag_229\n      jumpi\n      tag_230\n      tag_114\n      jump\t// in\n    tag_230:\n    tag_229:\n        /* \"contracts/SyCrowBarter.sol\":1162:1173  _barterType */\n      dup2\n        /* \"contracts/SyCrowBarter.sol\":1162:1187  _barterType == barterType */\n      0x02\n      dup2\n      gt\n      iszero\n      tag_231\n      jumpi\n      tag_232\n      tag_114\n      jump\t// in\n    tag_232:\n    tag_231:\n      eq\n        /* \"contracts/SyCrowBarter.sol\":1154:1225  require(_barterType == barterType, \"SyCrowBarter: INVALID_BARTER_TYPE\") */\n      tag_233\n      jumpi\n      mload(0x40)\n      0x08c379a000000000000000000000000000000000000000000000000000000000\n      dup2\n      mstore\n      0x04\n      add\n      tag_234\n      swap1\n      tag_119\n      jump\t// in\n    tag_234:\n      mload(0x40)\n      dup1\n      swap2\n      sub\n      swap1\n      revert\n    tag_233:\n        /* \"contracts/SyCrowBarter.sol\":4942:4959  _allowMultiBarter */\n      0x08\n      0x00\n      swap1\n      sload\n      swap1\n      0x0100\n      exp\n      swap1\n      div\n      0xff\n      and\n        /* \"contracts/SyCrowBarter.sol\":4938:5067  if(!_allowMultiBarter){... */\n      tag_236\n      jumpi\n        /* \"contracts/SyCrowBarter.sol\":4995:5010  _expectedAmount */\n      sload(0x07)\n        /* \"contracts/SyCrowBarter.sol\":4982:4991  msg.value */\n      callvalue\n        /* \"contracts/SyCrowBarter.sol\":4982:5010  msg.value >= _expectedAmount */\n      lt\n      iszero\n        /* \"contracts/SyCrowBarter.sol\":4974:5056  require(msg.value >= _expectedAmount, \"SyCrowBarter: AMOUNT_LOWER_THAN_REQURIRED\") */\n      tag_237\n      jumpi\n      mload(0x40)\n      0x08c379a000000000000000000000000000000000000000000000000000000000\n      dup2\n      mstore\n      0x04\n      add\n      tag_238\n      swap1\n      tag_124\n      jump\t// in\n    tag_238:\n      mload(0x40)\n      dup1\n      swap2\n      sub\n      swap1\n      revert\n    tag_237:\n        /* \"contracts/SyCrowBarter.sol\":4938:5067  if(!_allowMultiBarter){... */\n    tag_236:\n        /* \"contracts/SyCrowBarter.sol\":5076:5103  _tradeEthForToken(inAmount) */\n      tag_239\n        /* \"contracts/SyCrowBarter.sol\":5094:5102  inAmount */\n      dup4\n        /* \"contracts/SyCrowBarter.sol\":5076:5093  _tradeEthForToken */\n      tag_240\n        /* \"contracts/SyCrowBarter.sol\":5076:5103  _tradeEthForToken(inAmount) */\n      jump\t// in\n    tag_239:\n        /* \"contracts/SyCrowBarter.sol\":1740:1741  _ */\n      pop\n        /* \"contracts/SyCrowBarter.sol\":1574:1748  {... */\n      pop\n        /* \"contracts/SyCrowBarter.sol\":4713:5110  function tradeEthForToken(uint256 inAmount)... */\n      pop\n      jump\t// out\n        /* \"contracts/SyCrowBarter.sol\":1811:2840  function initialize(... */\n    tag_55:\n        /* \"contracts/SyCrowBarter.sol\":2090:2094  bool */\n      0x00\n        /* \"contracts/SyCrowBarter.sol\":2128:2135  factory */\n      immutable(\"0x26a975632f70533c9512e57b565b8ce8e2befee6b08dfbc27c4a897a20e2c1d6\")\n        /* \"contracts/SyCrowBarter.sol\":2114:2135  msg.sender == factory */\n      0xffffffffffffffffffffffffffffffffffffffff\n      and\n        /* \"contracts/SyCrowBarter.sol\":2114:2124  msg.sender */\n      caller\n        /* \"contracts/SyCrowBarter.sol\":2114:2135  msg.sender == factory */\n      0xffffffffffffffffffffffffffffffffffffffff\n      and\n      eq\n        /* \"contracts/SyCrowBarter.sol\":2106:2163  require(msg.sender == factory, \"SyCrowBarter: FORBIDDEN\") */\n      tag_242\n      jumpi\n      mload(0x40)\n      0x08c379a000000000000000000000000000000000000000000000000000000000\n      dup2\n      mstore\n      0x04\n      add\n      tag_243\n      swap1\n      tag_244\n      jump\t// in\n    tag_243:\n      mload(0x40)\n      dup1\n      swap2\n      sub\n      swap1\n      revert\n    tag_242:\n        /* \"contracts/SyCrowBarter.sol\":2183:2195  _initialized */\n      0x03\n      0x15\n      swap1\n      sload\n      swap1\n      0x0100\n      exp\n      swap1\n      div\n      0xff\n      and\n        /* \"contracts/SyCrowBarter.sol\":2182:2195  !_initialized */\n      iszero\n        /* \"contracts/SyCrowBarter.sol\":2174:2233  require(!_initialized, \"SyCrowBarter: ALREADY_INITIALIZED\") */\n      tag_245\n      jumpi\n      mload(0x40)\n      0x08c379a000000000000000000000000000000000000000000000000000000000\n      dup2\n      mstore\n      0x04\n      add\n      tag_246\n      swap1\n      tag_247\n      jump\t// in\n    tag_246:\n      mload(0x40)\n      dup1\n      swap2\n      sub\n      swap1\n      revert\n    tag_245:\n        /* \"contracts/SyCrowBarter.sol\":2262:2277  block.timestamp */\n      timestamp\n        /* \"contracts/SyCrowBarter.sol\":2251:2259  deadline */\n      dup5\n        /* \"contracts/SyCrowBarter.sol\":2251:2277  deadline < block.timestamp */\n      lt\n        /* \"contracts/SyCrowBarter.sol\":2243:2308  require(deadline < block.timestamp, \"SyCrowBarter: PASTdeadline\") */\n      tag_248\n      jumpi\n      mload(0x40)\n      0x08c379a000000000000000000000000000000000000000000000000000000000\n      dup2\n      mstore\n      0x04\n      add\n      tag_249\n      swap1\n      tag_250\n      jump\t// in\n    tag_249:\n      mload(0x40)\n      dup1\n      swap2\n      sub\n      swap1\n      revert\n    tag_248:\n        /* \"contracts/SyCrowBarter.sol\":2384:2399  amountDeposited */\n      dup6\n        /* \"contracts/SyCrowBarter.sol\":2347:2354  inToken */\n      dup9\n        /* \"contracts/SyCrowBarter.sol\":2340:2365  IERC20(inToken).balanceOf */\n      0xffffffffffffffffffffffffffffffffffffffff\n      and\n      0x70a08231\n        /* \"contracts/SyCrowBarter.sol\":2374:2378  this */\n      address\n        /* \"contracts/SyCrowBarter.sol\":2340:2380  IERC20(inToken).balanceOf(address(this)) */\n      mload(0x40)\n      dup3\n      0xffffffff\n      and\n      0xe0\n      shl\n      dup2\n      mstore\n      0x04\n      add\n      tag_251\n      swap2\n      swap1\n      tag_69\n      jump\t// in\n    tag_251:\n      0x20\n      mload(0x40)\n      dup1\n      dup4\n      sub\n      dup2\n      dup7\n      gas\n      staticcall\n      iszero\n      dup1\n      iszero\n      tag_253\n      jumpi\n      returndatasize\n      0x00\n      dup1\n      returndatacopy\n      revert(0x00, returndatasize)\n    tag_253:\n      pop\n      pop\n      pop\n      pop\n      mload(0x40)\n      returndatasize\n      not(0x1f)\n      0x1f\n      dup3\n      add\n      and\n      dup3\n      add\n      dup1\n      0x40\n      mstore\n      pop\n      dup2\n      add\n      swap1\n      tag_254\n      swap2\n      swap1\n      tag_173\n      jump\t// in\n    tag_254:\n        /* \"contracts/SyCrowBarter.sol\":2340:2399  IERC20(inToken).balanceOf(address(this)) >= amountDeposited */\n      lt\n      iszero\n        /* \"contracts/SyCrowBarter.sol\":2319:2459  require(... */\n      tag_255\n      jumpi\n      mload(0x40)\n      0x08c379a000000000000000000000000000000000000000000000000000000000\n      dup2\n      mstore\n      0x04\n      add\n      tag_256\n      swap1\n      tag_257\n      jump\t// in\n    tag_256:\n      mload(0x40)\n      dup1\n      swap2\n      sub\n      swap1\n      revert\n    tag_255:\n        /* \"contracts/SyCrowBarter.sol\":2525:2532  inToken */\n      dup8\n        /* \"contracts/SyCrowBarter.sol\":2500:2522  _depositedTokenAddress */\n      0x04\n      0x00\n        /* \"contracts/SyCrowBarter.sol\":2500:2532  _depositedTokenAddress = inToken */\n      0x0100\n      exp\n      dup2\n      sload\n      dup2\n      0xffffffffffffffffffffffffffffffffffffffff\n      mul\n      not\n      and\n      swap1\n      dup4\n      0xffffffffffffffffffffffffffffffffffffffff\n      and\n      mul\n      or\n      swap1\n      sstore\n      pop\n        /* \"contracts/SyCrowBarter.sol\":2566:2574  outToken */\n      dup7\n        /* \"contracts/SyCrowBarter.sol\":2542:2563  _expectedTokenAddress */\n      0x05\n      0x00\n        /* \"contracts/SyCrowBarter.sol\":2542:2574  _expectedTokenAddress = outToken */\n      0x0100\n      exp\n      dup2\n      sload\n      dup2\n      0xffffffffffffffffffffffffffffffffffffffff\n      mul\n      not\n      and\n      swap1\n      dup4\n      0xffffffffffffffffffffffffffffffffffffffff\n      and\n      mul\n      or\n      swap1\n      sstore\n      pop\n        /* \"contracts/SyCrowBarter.sol\":2604:2619  amountDeposited */\n      dup6\n        /* \"contracts/SyCrowBarter.sol\":2585:2601  _depositedAmount */\n      0x06\n        /* \"contracts/SyCrowBarter.sol\":2585:2619  _depositedAmount = amountDeposited */\n      dup2\n      swap1\n      sstore\n      pop\n        /* \"contracts/SyCrowBarter.sol\":2647:2661  amountExpected */\n      dup5\n        /* \"contracts/SyCrowBarter.sol\":2629:2644  _expectedAmount */\n      0x07\n        /* \"contracts/SyCrowBarter.sol\":2629:2661  _expectedAmount = amountExpected */\n      dup2\n      swap1\n      sstore\n      pop\n        /* \"contracts/SyCrowBarter.sol\":2685:2696  _barterType */\n      dup9\n        /* \"contracts/SyCrowBarter.sol\":2672:2682  barterType */\n      0x03\n      0x00\n        /* \"contracts/SyCrowBarter.sol\":2672:2696  barterType = _barterType */\n      0x0100\n      exp\n      dup2\n      sload\n      dup2\n      0xff\n      mul\n      not\n      and\n      swap1\n      dup4\n      0x02\n      dup2\n      gt\n      iszero\n      tag_258\n      jumpi\n      tag_259\n      tag_114\n      jump\t// in\n    tag_259:\n    tag_258:\n      mul\n      or\n      swap1\n      sstore\n      pop\n        /* \"contracts/SyCrowBarter.sol\":2727:2743  allowMultiBarter */\n      dup3\n        /* \"contracts/SyCrowBarter.sol\":2707:2724  _allowMultiBarter */\n      0x08\n      0x00\n        /* \"contracts/SyCrowBarter.sol\":2707:2743  _allowMultiBarter = allowMultiBarter */\n      0x0100\n      exp\n      dup2\n      sload\n      dup2\n      0xff\n      mul\n      not\n      and\n      swap1\n      dup4\n      iszero\n      iszero\n      mul\n      or\n      swap1\n      sstore\n      pop\n        /* \"contracts/SyCrowBarter.sol\":2769:2774  _WETH */\n      dup2\n        /* \"contracts/SyCrowBarter.sol\":2762:2766  WETH */\n      0x03\n      0x01\n        /* \"contracts/SyCrowBarter.sol\":2762:2774  WETH = _WETH */\n      0x0100\n      exp\n      dup2\n      sload\n      dup2\n      0xffffffffffffffffffffffffffffffffffffffff\n      mul\n      not\n      and\n      swap1\n      dup4\n      0xffffffffffffffffffffffffffffffffffffffff\n      and\n      mul\n      or\n      swap1\n      sstore\n      pop\n        /* \"contracts/SyCrowBarter.sol\":2799:2803  true */\n      0x01\n        /* \"contracts/SyCrowBarter.sol\":2784:2796  _initialized */\n      0x03\n      0x15\n        /* \"contracts/SyCrowBarter.sol\":2784:2803  _initialized = true */\n      0x0100\n      exp\n      dup2\n      sload\n      dup2\n      0xff\n      mul\n      not\n      and\n      swap1\n      dup4\n      iszero\n      iszero\n      mul\n      or\n      swap1\n      sstore\n      pop\n        /* \"contracts/SyCrowBarter.sol\":2821:2833  _initialized */\n      0x03\n      0x15\n      swap1\n      sload\n      swap1\n      0x0100\n      exp\n      swap1\n      div\n      0xff\n      and\n        /* \"contracts/SyCrowBarter.sol\":2814:2833  return _initialized */\n      swap1\n      pop\n        /* \"contracts/SyCrowBarter.sol\":1811:2840  function initialize(... */\n      swap9\n      swap8\n      pop\n      pop\n      pop\n      pop\n      pop\n      pop\n      pop\n      pop\n      jump\t// out\n        /* \"@openzeppelin/contracts/access/Ownable.sol\":1668:1769  function renounceOwnership() public virtual onlyOwner {... */\n    tag_59:\n        /* \"@openzeppelin/contracts/access/Ownable.sol\":1259:1271  _msgSender() */\n      tag_261\n        /* \"@openzeppelin/contracts/access/Ownable.sol\":1259:1269  _msgSender */\n      tag_163\n        /* \"@openzeppelin/contracts/access/Ownable.sol\":1259:1271  _msgSender() */\n      jump\t// in\n    tag_261:\n        /* \"@openzeppelin/contracts/access/Ownable.sol\":1248:1271  owner() == _msgSender() */\n      0xffffffffffffffffffffffffffffffffffffffff\n      and\n        /* \"@openzeppelin/contracts/access/Ownable.sol\":1248:1255  owner() */\n      tag_262\n        /* \"@openzeppelin/contracts/access/Ownable.sol\":1248:1253  owner */\n      tag_67\n        /* \"@openzeppelin/contracts/access/Ownable.sol\":1248:1255  owner() */\n      jump\t// in\n    tag_262:\n        /* \"@openzeppelin/contracts/access/Ownable.sol\":1248:1271  owner() == _msgSender() */\n      0xffffffffffffffffffffffffffffffffffffffff\n      and\n      eq\n        /* \"@openzeppelin/contracts/access/Ownable.sol\":1240:1308  require(owner() == _msgSender(), \"Ownable: caller is not the owner\") */\n      tag_263\n      jumpi\n      mload(0x40)\n      0x08c379a000000000000000000000000000000000000000000000000000000000\n      dup2\n      mstore\n      0x04\n      add\n      tag_264\n      swap1\n      tag_167\n      jump\t// in\n    tag_264:\n      mload(0x40)\n      dup1\n      swap2\n      sub\n      swap1\n      revert\n    tag_263:\n        /* \"@openzeppelin/contracts/access/Ownable.sol\":1732:1762  _transferOwnership(address(0)) */\n      tag_266\n        /* \"@openzeppelin/contracts/access/Ownable.sol\":1759:1760  0 */\n      0x00\n        /* \"@openzeppelin/contracts/access/Ownable.sol\":1732:1750  _transferOwnership */\n      tag_267\n        /* \"@openzeppelin/contracts/access/Ownable.sol\":1732:1762  _transferOwnership(address(0)) */\n      jump\t// in\n    tag_266:\n        /* \"@openzeppelin/contracts/access/Ownable.sol\":1668:1769  function renounceOwnership() public virtual onlyOwner {... */\n      jump\t// out\n        /* \"contracts/SyCrowBarter.sol\":437:472  ISyCrowBarterType public barterType */\n    tag_62:\n      0x03\n      0x00\n      swap1\n      sload\n      swap1\n      0x0100\n      exp\n      swap1\n      div\n      0xff\n      and\n      dup2\n      jump\t// out\n        /* \"@openzeppelin/contracts/access/Ownable.sol\":1036:1121  function owner() public view virtual returns (address) {... */\n    tag_67:\n        /* \"@openzeppelin/contracts/access/Ownable.sol\":1082:1089  address */\n      0x00\n        /* \"@openzeppelin/contracts/access/Ownable.sol\":1108:1114  _owner */\n      dup1\n      0x00\n      swap1\n      sload\n      swap1\n      0x0100\n      exp\n      swap1\n      div\n      0xffffffffffffffffffffffffffffffffffffffff\n      and\n        /* \"@openzeppelin/contracts/access/Ownable.sol\":1101:1114  return _owner */\n      swap1\n      pop\n        /* \"@openzeppelin/contracts/access/Ownable.sol\":1036:1121  function owner() public view virtual returns (address) {... */\n      swap1\n      jump\t// out\n        /* \"contracts/SyCrowBarter.sol\":3039:3237  function getTokens()... */\n    tag_72:\n        /* \"contracts/SyCrowBarter.sol\":3144:3151  address */\n      0x00\n        /* \"contracts/SyCrowBarter.sol\":3153:3160  address */\n      dup1\n        /* \"contracts/SyCrowBarter.sol\":1481:1493  _initialized */\n      0x03\n      0x15\n      swap1\n      sload\n      swap1\n      0x0100\n      exp\n      swap1\n      div\n      0xff\n      and\n        /* \"contracts/SyCrowBarter.sol\":1473:1527  require(_initialized, \"SyCrowBarter: NOT_INITIALIZED\") */\n      tag_270\n      jumpi\n      mload(0x40)\n      0x08c379a000000000000000000000000000000000000000000000000000000000\n      dup2\n      mstore\n      0x04\n      add\n      tag_271\n      swap1\n      tag_102\n      jump\t// in\n    tag_271:\n      mload(0x40)\n      dup1\n      swap2\n      sub\n      swap1\n      revert\n    tag_270:\n        /* \"contracts/SyCrowBarter.sol\":3184:3206  _depositedTokenAddress */\n      0x04\n      0x00\n      swap1\n      sload\n      swap1\n      0x0100\n      exp\n      swap1\n      div\n      0xffffffffffffffffffffffffffffffffffffffff\n      and\n        /* \"contracts/SyCrowBarter.sol\":3208:3229  _expectedTokenAddress */\n      0x05\n      0x00\n      swap1\n      sload\n      swap1\n      0x0100\n      exp\n      swap1\n      div\n      0xffffffffffffffffffffffffffffffffffffffff\n      and\n        /* \"contracts/SyCrowBarter.sol\":3176:3230  return (_depositedTokenAddress, _expectedTokenAddress) */\n      swap2\n      pop\n      swap2\n      pop\n        /* \"contracts/SyCrowBarter.sol\":3039:3237  function getTokens()... */\n      swap1\n      swap2\n      jump\t// out\n        /* \"contracts/SyCrowBarter.sol\":323:364  address public immutable override factory */\n    tag_77:\n      immutable(\"0x26a975632f70533c9512e57b565b8ce8e2befee6b08dfbc27c4a897a20e2c1d6\")\n      dup2\n      jump\t// out\n        /* \"contracts/SyCrowBarter.sol\":9760:9930  function getTradeOutAmount(uint256 amount)... */\n    tag_82:\n        /* \"contracts/SyCrowBarter.sol\":9848:9855  uint256 */\n      0x00\n        /* \"contracts/SyCrowBarter.sol\":9908:9923  _expectedAmount */\n      sload(0x07)\n        /* \"contracts/SyCrowBarter.sol\":9888:9904  _depositedAmount */\n      sload(0x06)\n        /* \"contracts/SyCrowBarter.sol\":9879:9885  amount */\n      dup4\n        /* \"contracts/SyCrowBarter.sol\":9879:9904  amount * _depositedAmount */\n      tag_274\n      swap2\n      swap1\n      tag_275\n      jump\t// in\n    tag_274:\n        /* \"contracts/SyCrowBarter.sol\":9878:9923  (amount * _depositedAmount) / _expectedAmount */\n      tag_276\n      swap2\n      swap1\n      tag_277\n      jump\t// in\n    tag_276:\n        /* \"contracts/SyCrowBarter.sol\":9871:9923  return (amount * _depositedAmount) / _expectedAmount */\n      swap1\n      pop\n        /* \"contracts/SyCrowBarter.sol\":9760:9930  function getTradeOutAmount(uint256 amount)... */\n      swap2\n      swap1\n      pop\n      jump\t// out\n        /* \"contracts/SyCrowBarter.sol\":3243:3929  function getTrades()... */\n    tag_86:\n        /* \"contracts/SyCrowBarter.sol\":3361:3377  address[] memory */\n      0x60\n        /* \"contracts/SyCrowBarter.sol\":3391:3407  uint256[] memory */\n      dup1\n        /* \"contracts/SyCrowBarter.sol\":3421:3437  uint256[] memory */\n      0x60\n        /* \"contracts/SyCrowBarter.sol\":1481:1493  _initialized */\n      0x03\n      0x15\n      swap1\n      sload\n      swap1\n      0x0100\n      exp\n      swap1\n      div\n      0xff\n      and\n        /* \"contracts/SyCrowBarter.sol\":1473:1527  require(_initialized, \"SyCrowBarter: NOT_INITIALIZED\") */\n      tag_279\n      jumpi\n      mload(0x40)\n      0x08c379a000000000000000000000000000000000000000000000000000000000\n      dup2\n      mstore\n      0x04\n      add\n      tag_280\n      swap1\n      tag_102\n      jump\t// in\n    tag_280:\n      mload(0x40)\n      dup1\n      swap2\n      sub\n      swap1\n      revert\n    tag_279:\n        /* \"contracts/SyCrowBarter.sol\":3462:3488  address[] memory addresses */\n      0x00\n        /* \"contracts/SyCrowBarter.sol\":3505:3512  _trades */\n      0x09\n        /* \"contracts/SyCrowBarter.sol\":3505:3519  _trades.length */\n      dup1\n      sload\n      swap1\n      pop\n        /* \"contracts/SyCrowBarter.sol\":3491:3520  new address[](_trades.length) */\n      0xffffffffffffffff\n      dup2\n      gt\n      iszero\n      tag_282\n      jumpi\n      tag_283\n      tag_284\n      jump\t// in\n    tag_283:\n    tag_282:\n      mload(0x40)\n      swap1\n      dup1\n      dup3\n      mstore\n      dup1\n      0x20\n      mul\n      0x20\n      add\n      dup3\n      add\n      0x40\n      mstore\n      dup1\n      iszero\n      tag_285\n      jumpi\n      dup2\n      0x20\n      add\n      0x20\n      dup3\n      mul\n      dup1\n      calldatasize\n      dup4\n      calldatacopy\n      dup1\n      dup3\n      add\n      swap2\n      pop\n      pop\n      swap1\n      pop\n    tag_285:\n      pop\n        /* \"contracts/SyCrowBarter.sol\":3462:3520  address[] memory addresses = new address[](_trades.length) */\n      swap1\n      pop\n        /* \"contracts/SyCrowBarter.sol\":3530:3556  uint256[] memory amountsIn */\n      0x00\n        /* \"contracts/SyCrowBarter.sol\":3573:3580  _trades */\n      0x09\n        /* \"contracts/SyCrowBarter.sol\":3573:3587  _trades.length */\n      dup1\n      sload\n      swap1\n      pop\n        /* \"contracts/SyCrowBarter.sol\":3559:3588  new uint256[](_trades.length) */\n      0xffffffffffffffff\n      dup2\n      gt\n      iszero\n      tag_286\n      jumpi\n      tag_287\n      tag_284\n      jump\t// in\n    tag_287:\n    tag_286:\n      mload(0x40)\n      swap1\n      dup1\n      dup3\n      mstore\n      dup1\n      0x20\n      mul\n      0x20\n      add\n      dup3\n      add\n      0x40\n      mstore\n      dup1\n      iszero\n      tag_288\n      jumpi\n      dup2\n      0x20\n      add\n      0x20\n      dup3\n      mul\n      dup1\n      calldatasize\n      dup4\n      calldatacopy\n      dup1\n      dup3\n      add\n      swap2\n      pop\n      pop\n      swap1\n      pop\n    tag_288:\n      pop\n        /* \"contracts/SyCrowBarter.sol\":3530:3588  uint256[] memory amountsIn = new uint256[](_trades.length) */\n      swap1\n      pop\n        /* \"contracts/SyCrowBarter.sol\":3598:3625  uint256[] memory amountsOut */\n      0x00\n        /* \"contracts/SyCrowBarter.sol\":3642:3649  _trades */\n      0x09\n        /* \"contracts/SyCrowBarter.sol\":3642:3656  _trades.length */\n      dup1\n      sload\n      swap1\n      pop\n        /* \"contracts/SyCrowBarter.sol\":3628:3657  new uint256[](_trades.length) */\n      0xffffffffffffffff\n      dup2\n      gt\n      iszero\n      tag_289\n      jumpi\n      tag_290\n      tag_284\n      jump\t// in\n    tag_290:\n    tag_289:\n      mload(0x40)\n      swap1\n      dup1\n      dup3\n      mstore\n      dup1\n      0x20\n      mul\n      0x20\n      add\n      dup3\n      add\n      0x40\n      mstore\n      dup1\n      iszero\n      tag_291\n      jumpi\n      dup2\n      0x20\n      add\n      0x20\n      dup3\n      mul\n      dup1\n      calldatasize\n      dup4\n      calldatacopy\n      dup1\n      dup3\n      add\n      swap2\n      pop\n      pop\n      swap1\n      pop\n    tag_291:\n      pop\n        /* \"contracts/SyCrowBarter.sol\":3598:3657  uint256[] memory amountsOut = new uint256[](_trades.length) */\n      swap1\n      pop\n        /* \"contracts/SyCrowBarter.sol\":3673:3682  uint256 i */\n      0x00\n        /* \"contracts/SyCrowBarter.sol\":3668:3871  for (uint256 i = 0; i < _trades.length; i++) {... */\n    tag_292:\n        /* \"contracts/SyCrowBarter.sol\":3692:3699  _trades */\n      0x09\n        /* \"contracts/SyCrowBarter.sol\":3692:3706  _trades.length */\n      dup1\n      sload\n      swap1\n      pop\n        /* \"contracts/SyCrowBarter.sol\":3688:3689  i */\n      dup2\n        /* \"contracts/SyCrowBarter.sol\":3688:3706  i < _trades.length */\n      lt\n        /* \"contracts/SyCrowBarter.sol\":3668:3871  for (uint256 i = 0; i < _trades.length; i++) {... */\n      iszero\n      tag_293\n      jumpi\n        /* \"contracts/SyCrowBarter.sol\":3742:3749  _trades */\n      0x09\n        /* \"contracts/SyCrowBarter.sol\":3750:3751  i */\n      dup2\n        /* \"contracts/SyCrowBarter.sol\":3742:3752  _trades[i] */\n      dup2\n      sload\n      dup2\n      lt\n      tag_295\n      jumpi\n      tag_296\n      tag_297\n      jump\t// in\n    tag_296:\n    tag_295:\n      swap1\n      0x00\n      mstore\n      keccak256(0x00, 0x20)\n      swap1\n      0x03\n      mul\n      add\n        /* \"contracts/SyCrowBarter.sol\":3742:3760  _trades[i]._trader */\n      0x00\n      add\n      0x00\n      swap1\n      sload\n      swap1\n      0x0100\n      exp\n      swap1\n      div\n      0xffffffffffffffffffffffffffffffffffffffff\n      and\n        /* \"contracts/SyCrowBarter.sol\":3727:3736  addresses */\n      dup5\n        /* \"contracts/SyCrowBarter.sol\":3737:3738  i */\n      dup3\n        /* \"contracts/SyCrowBarter.sol\":3727:3739  addresses[i] */\n      dup2\n      mload\n      dup2\n      lt\n      tag_299\n      jumpi\n      tag_300\n      tag_297\n      jump\t// in\n    tag_300:\n    tag_299:\n      0x20\n      mul\n      0x20\n      add\n      add\n        /* \"contracts/SyCrowBarter.sol\":3727:3760  addresses[i] = _trades[i]._trader */\n      swap1\n      0xffffffffffffffffffffffffffffffffffffffff\n      and\n      swap1\n      dup2\n      0xffffffffffffffffffffffffffffffffffffffff\n      and\n      dup2\n      mstore\n      pop\n      pop\n        /* \"contracts/SyCrowBarter.sol\":3789:3796  _trades */\n      0x09\n        /* \"contracts/SyCrowBarter.sol\":3797:3798  i */\n      dup2\n        /* \"contracts/SyCrowBarter.sol\":3789:3799  _trades[i] */\n      dup2\n      sload\n      dup2\n      lt\n      tag_301\n      jumpi\n      tag_302\n      tag_297\n      jump\t// in\n    tag_302:\n    tag_301:\n      swap1\n      0x00\n      mstore\n      keccak256(0x00, 0x20)\n      swap1\n      0x03\n      mul\n      add\n        /* \"contracts/SyCrowBarter.sol\":3789:3809  _trades[i]._amountIn */\n      0x01\n      add\n      sload\n        /* \"contracts/SyCrowBarter.sol\":3774:3783  amountsIn */\n      dup4\n        /* \"contracts/SyCrowBarter.sol\":3784:3785  i */\n      dup3\n        /* \"contracts/SyCrowBarter.sol\":3774:3786  amountsIn[i] */\n      dup2\n      mload\n      dup2\n      lt\n      tag_304\n      jumpi\n      tag_305\n      tag_297\n      jump\t// in\n    tag_305:\n    tag_304:\n      0x20\n      mul\n      0x20\n      add\n      add\n        /* \"contracts/SyCrowBarter.sol\":3774:3809  amountsIn[i] = _trades[i]._amountIn */\n      dup2\n      dup2\n      mstore\n      pop\n      pop\n        /* \"contracts/SyCrowBarter.sol\":3839:3846  _trades */\n      0x09\n        /* \"contracts/SyCrowBarter.sol\":3847:3848  i */\n      dup2\n        /* \"contracts/SyCrowBarter.sol\":3839:3849  _trades[i] */\n      dup2\n      sload\n      dup2\n      lt\n      tag_306\n      jumpi\n      tag_307\n      tag_297\n      jump\t// in\n    tag_307:\n    tag_306:\n      swap1\n      0x00\n      mstore\n      keccak256(0x00, 0x20)\n      swap1\n      0x03\n      mul\n      add\n        /* \"contracts/SyCrowBarter.sol\":3839:3860  _trades[i]._amountOut */\n      0x02\n      add\n      sload\n        /* \"contracts/SyCrowBarter.sol\":3823:3833  amountsOut */\n      dup3\n        /* \"contracts/SyCrowBarter.sol\":3834:3835  i */\n      dup3\n        /* \"contracts/SyCrowBarter.sol\":3823:3836  amountsOut[i] */\n      dup2\n      mload\n      dup2\n      lt\n      tag_309\n      jumpi\n      tag_310\n      tag_297\n      jump\t// in\n    tag_310:\n    tag_309:\n      0x20\n      mul\n      0x20\n      add\n      add\n        /* \"contracts/SyCrowBarter.sol\":3823:3860  amountsOut[i] = _trades[i]._amountOut */\n      dup2\n      dup2\n      mstore\n      pop\n      pop\n        /* \"contracts/SyCrowBarter.sol\":3708:3711  i++ */\n      dup1\n      dup1\n      tag_311\n      swap1\n      tag_312\n      jump\t// in\n    tag_311:\n      swap2\n      pop\n      pop\n        /* \"contracts/SyCrowBarter.sol\":3668:3871  for (uint256 i = 0; i < _trades.length; i++) {... */\n      jump(tag_292)\n    tag_293:\n      pop\n        /* \"contracts/SyCrowBarter.sol\":3889:3898  addresses */\n      dup3\n        /* \"contracts/SyCrowBarter.sol\":3900:3909  amountsIn */\n      dup3\n        /* \"contracts/SyCrowBarter.sol\":3911:3921  amountsOut */\n      dup3\n        /* \"contracts/SyCrowBarter.sol\":3881:3922  return (addresses, amountsIn, amountsOut) */\n      swap6\n      pop\n      swap6\n      pop\n      swap6\n      pop\n      pop\n      pop\n      pop\n        /* \"contracts/SyCrowBarter.sol\":3243:3929  function getTrades()... */\n      swap1\n      swap2\n      swap3\n      jump\t// out\n        /* \"@openzeppelin/contracts/access/Ownable.sol\":1918:2116  function transferOwnership(address newOwner) public virtual onlyOwner {... */\n    tag_93:\n        /* \"@openzeppelin/contracts/access/Ownable.sol\":1259:1271  _msgSender() */\n      tag_314\n        /* \"@openzeppelin/contracts/access/Ownable.sol\":1259:1269  _msgSender */\n      tag_163\n        /* \"@openzeppelin/contracts/access/Ownable.sol\":1259:1271  _msgSender() */\n      jump\t// in\n    tag_314:\n        /* \"@openzeppelin/contracts/access/Ownable.sol\":1248:1271  owner() == _msgSender() */\n      0xffffffffffffffffffffffffffffffffffffffff\n      and\n        /* \"@openzeppelin/contracts/access/Ownable.sol\":1248:1255  owner() */\n      tag_315\n        /* \"@openzeppelin/contracts/access/Ownable.sol\":1248:1253  owner */\n      tag_67\n        /* \"@openzeppelin/contracts/access/Ownable.sol\":1248:1255  owner() */\n      jump\t// in\n    tag_315:\n        /* \"@openzeppelin/contracts/access/Ownable.sol\":1248:1271  owner() == _msgSender() */\n      0xffffffffffffffffffffffffffffffffffffffff\n      and\n      eq\n        /* \"@openzeppelin/contracts/access/Ownable.sol\":1240:1308  require(owner() == _msgSender(), \"Ownable: caller is not the owner\") */\n      tag_316\n      jumpi\n      mload(0x40)\n      0x08c379a000000000000000000000000000000000000000000000000000000000\n      dup2\n      mstore\n      0x04\n      add\n      tag_317\n      swap1\n      tag_167\n      jump\t// in\n    tag_317:\n      mload(0x40)\n      dup1\n      swap2\n      sub\n      swap1\n      revert\n    tag_316:\n        /* \"@openzeppelin/contracts/access/Ownable.sol\":2026:2027  0 */\n      0x00\n        /* \"@openzeppelin/contracts/access/Ownable.sol\":2006:2028  newOwner != address(0) */\n      0xffffffffffffffffffffffffffffffffffffffff\n      and\n        /* \"@openzeppelin/contracts/access/Ownable.sol\":2006:2014  newOwner */\n      dup2\n        /* \"@openzeppelin/contracts/access/Ownable.sol\":2006:2028  newOwner != address(0) */\n      0xffffffffffffffffffffffffffffffffffffffff\n      and\n      sub\n        /* \"@openzeppelin/contracts/access/Ownable.sol\":1998:2071  require(newOwner != address(0), \"Ownable: new owner is the zero address\") */\n      tag_319\n      jumpi\n      mload(0x40)\n      0x08c379a000000000000000000000000000000000000000000000000000000000\n      dup2\n      mstore\n      0x04\n      add\n      tag_320\n      swap1\n      tag_321\n      jump\t// in\n    tag_320:\n      mload(0x40)\n      dup1\n      swap2\n      sub\n      swap1\n      revert\n    tag_319:\n        /* \"@openzeppelin/contracts/access/Ownable.sol\":2081:2109  _transferOwnership(newOwner) */\n      tag_322\n        /* \"@openzeppelin/contracts/access/Ownable.sol\":2100:2108  newOwner */\n      dup2\n        /* \"@openzeppelin/contracts/access/Ownable.sol\":2081:2099  _transferOwnership */\n      tag_267\n        /* \"@openzeppelin/contracts/access/Ownable.sol\":2081:2109  _transferOwnership(newOwner) */\n      jump\t// in\n    tag_322:\n        /* \"@openzeppelin/contracts/access/Ownable.sol\":1918:2116  function transferOwnership(address newOwner) public virtual onlyOwner {... */\n      pop\n      jump\t// out\n        /* \"contracts/SyCrowBarter.sol\":6162:7170  function _tradeTokenForEth(uint256 inAmount) internal {... */\n    tag_126:\n        /* \"contracts/SyCrowBarter.sol\":6302:6310  inAmount */\n      dup1\n        /* \"contracts/SyCrowBarter.sol\":6254:6275  _expectedTokenAddress */\n      0x05\n      0x00\n      swap1\n      sload\n      swap1\n      0x0100\n      exp\n      swap1\n      div\n      0xffffffffffffffffffffffffffffffffffffffff\n      and\n        /* \"contracts/SyCrowBarter.sol\":6247:6286  IERC20(_expectedTokenAddress).balanceOf */\n      0xffffffffffffffffffffffffffffffffffffffff\n      and\n      0x70a08231\n        /* \"contracts/SyCrowBarter.sol\":6287:6297  msg.sender */\n      caller\n        /* \"contracts/SyCrowBarter.sol\":6247:6298  IERC20(_expectedTokenAddress).balanceOf(msg.sender) */\n      mload(0x40)\n      dup3\n      0xffffffff\n      and\n      0xe0\n      shl\n      dup2\n      mstore\n      0x04\n      add\n      tag_324\n      swap2\n      swap1\n      tag_69\n      jump\t// in\n    tag_324:\n      0x20\n      mload(0x40)\n      dup1\n      dup4\n      sub\n      dup2\n      dup7\n      gas\n      staticcall\n      iszero\n      dup1\n      iszero\n      tag_326\n      jumpi\n      returndatasize\n      0x00\n      dup1\n      returndatacopy\n      revert(0x00, returndatasize)\n    tag_326:\n      pop\n      pop\n      pop\n      pop\n      mload(0x40)\n      returndatasize\n      not(0x1f)\n      0x1f\n      dup3\n      add\n      and\n      dup3\n      add\n      dup1\n      0x40\n      mstore\n      pop\n      dup2\n      add\n      swap1\n      tag_327\n      swap2\n      swap1\n      tag_173\n      jump\t// in\n    tag_327:\n        /* \"contracts/SyCrowBarter.sol\":6247:6310  IERC20(_expectedTokenAddress).balanceOf(msg.sender) >= inAmount */\n      lt\n      iszero\n        /* \"contracts/SyCrowBarter.sol\":6226:6370  require(... */\n      tag_328\n      jumpi\n      mload(0x40)\n      0x08c379a000000000000000000000000000000000000000000000000000000000\n      dup2\n      mstore\n      0x04\n      add\n      tag_329\n      swap1\n      tag_330\n      jump\t// in\n    tag_329:\n      mload(0x40)\n      dup1\n      swap2\n      sub\n      swap1\n      revert\n    tag_328:\n        /* \"contracts/SyCrowBarter.sol\":6381:6398  uint256 outAmount */\n      0x00\n        /* \"contracts/SyCrowBarter.sol\":6401:6428  getTradeOutAmount(inAmount) */\n      tag_331\n        /* \"contracts/SyCrowBarter.sol\":6419:6427  inAmount */\n      dup3\n        /* \"contracts/SyCrowBarter.sol\":6401:6418  getTradeOutAmount */\n      tag_82\n        /* \"contracts/SyCrowBarter.sol\":6401:6428  getTradeOutAmount(inAmount) */\n      jump\t// in\n    tag_331:\n        /* \"contracts/SyCrowBarter.sol\":6381:6428  uint256 outAmount = getTradeOutAmount(inAmount) */\n      swap1\n      pop\n        /* \"contracts/SyCrowBarter.sol\":6439:6450  IWETH _weth */\n      0x00\n        /* \"contracts/SyCrowBarter.sol\":6459:6463  WETH */\n      0x03\n      0x01\n      swap1\n      sload\n      swap1\n      0x0100\n      exp\n      swap1\n      div\n      0xffffffffffffffffffffffffffffffffffffffff\n      and\n        /* \"contracts/SyCrowBarter.sol\":6439:6464  IWETH _weth = IWETH(WETH) */\n      swap1\n      pop\n        /* \"contracts/SyCrowBarter.sol\":6530:6539  outAmount */\n      dup2\n        /* \"contracts/SyCrowBarter.sol\":6496:6501  _weth */\n      dup2\n        /* \"contracts/SyCrowBarter.sol\":6496:6511  _weth.balanceOf */\n      0xffffffffffffffffffffffffffffffffffffffff\n      and\n      0x70a08231\n        /* \"contracts/SyCrowBarter.sol\":6520:6524  this */\n      address\n        /* \"contracts/SyCrowBarter.sol\":6496:6526  _weth.balanceOf(address(this)) */\n      mload(0x40)\n      dup3\n      0xffffffff\n      and\n      0xe0\n      shl\n      dup2\n      mstore\n      0x04\n      add\n      tag_332\n      swap2\n      swap1\n      tag_69\n      jump\t// in\n    tag_332:\n      0x20\n      mload(0x40)\n      dup1\n      dup4\n      sub\n      dup2\n      dup7\n      gas\n      staticcall\n      iszero\n      dup1\n      iszero\n      tag_334\n      jumpi\n      returndatasize\n      0x00\n      dup1\n      returndatacopy\n      revert(0x00, returndatasize)\n    tag_334:\n      pop\n      pop\n      pop\n      pop\n      mload(0x40)\n      returndatasize\n      not(0x1f)\n      0x1f\n      dup3\n      add\n      and\n      dup3\n      add\n      dup1\n      0x40\n      mstore\n      pop\n      dup2\n      add\n      swap1\n      tag_335\n      swap2\n      swap1\n      tag_173\n      jump\t// in\n    tag_335:\n        /* \"contracts/SyCrowBarter.sol\":6496:6539  _weth.balanceOf(address(this)) >= outAmount */\n      lt\n      iszero\n        /* \"contracts/SyCrowBarter.sol\":6475:6608  require(... */\n      tag_336\n      jumpi\n      mload(0x40)\n      0x08c379a000000000000000000000000000000000000000000000000000000000\n      dup2\n      mstore\n      0x04\n      add\n      tag_337\n      swap1\n      tag_338\n      jump\t// in\n    tag_337:\n      mload(0x40)\n      dup1\n      swap2\n      sub\n      swap1\n      revert\n    tag_336:\n        /* \"contracts/SyCrowBarter.sol\":6625:6629  WETH */\n      0x03\n      0x01\n      swap1\n      sload\n      swap1\n      0x0100\n      exp\n      swap1\n      div\n      0xffffffffffffffffffffffffffffffffffffffff\n      and\n        /* \"contracts/SyCrowBarter.sol\":6619:6639  IWETH(WETH).withdraw */\n      0xffffffffffffffffffffffffffffffffffffffff\n      and\n      0x2e1a7d4d\n        /* \"contracts/SyCrowBarter.sol\":6640:6649  outAmount */\n      dup4\n        /* \"contracts/SyCrowBarter.sol\":6619:6650  IWETH(WETH).withdraw(outAmount) */\n      mload(0x40)\n      dup3\n      0xffffffff\n      and\n      0xe0\n      shl\n      dup2\n      mstore\n      0x04\n      add\n      tag_339\n      swap2\n      swap1\n      tag_47\n      jump\t// in\n    tag_339:\n      0x00\n      mload(0x40)\n      dup1\n      dup4\n      sub\n      dup2\n      0x00\n      dup8\n      dup1\n      extcodesize\n      iszero\n      dup1\n      iszero\n      tag_340\n      jumpi\n      0x00\n      dup1\n      revert\n    tag_340:\n      pop\n      gas\n      call\n      iszero\n      dup1\n      iszero\n      tag_342\n      jumpi\n      returndatasize\n      0x00\n      dup1\n      returndatacopy\n      revert(0x00, returndatasize)\n    tag_342:\n      pop\n      pop\n      pop\n      pop\n        /* \"contracts/SyCrowBarter.sol\":6661:6810  TransferHelper.safeTransferFrom(... */\n      tag_343\n        /* \"contracts/SyCrowBarter.sol\":6706:6727  _expectedTokenAddress */\n      0x05\n      0x00\n      swap1\n      sload\n      swap1\n      0x0100\n      exp\n      swap1\n      div\n      0xffffffffffffffffffffffffffffffffffffffff\n      and\n        /* \"contracts/SyCrowBarter.sol\":6741:6751  msg.sender */\n      caller\n        /* \"contracts/SyCrowBarter.sol\":6773:6777  this */\n      address\n        /* \"contracts/SyCrowBarter.sol\":6792:6800  inAmount */\n      dup7\n        /* \"contracts/SyCrowBarter.sol\":6661:6692  TransferHelper.safeTransferFrom */\n      tag_344\n        /* \"contracts/SyCrowBarter.sol\":6661:6810  TransferHelper.safeTransferFrom(... */\n      jump\t// in\n    tag_343:\n        /* \"contracts/SyCrowBarter.sol\":6820:6873  TransferHelper.safeTransferETH(msg.sender, outAmount) */\n      tag_345\n        /* \"contracts/SyCrowBarter.sol\":6851:6861  msg.sender */\n      caller\n        /* \"contracts/SyCrowBarter.sol\":6863:6872  outAmount */\n      dup4\n        /* \"contracts/SyCrowBarter.sol\":6820:6850  TransferHelper.safeTransferETH */\n      tag_180\n        /* \"contracts/SyCrowBarter.sol\":6820:6873  TransferHelper.safeTransferETH(msg.sender, outAmount) */\n      jump\t// in\n    tag_345:\n        /* \"contracts/SyCrowBarter.sol\":6884:6891  _trades */\n      0x09\n        /* \"contracts/SyCrowBarter.sol\":6897:6940  BaterTrade(msg.sender, inAmount, outAmount) */\n      mload(0x40)\n      dup1\n      0x60\n      add\n      0x40\n      mstore\n      dup1\n        /* \"contracts/SyCrowBarter.sol\":6908:6918  msg.sender */\n      caller\n        /* \"contracts/SyCrowBarter.sol\":6897:6940  BaterTrade(msg.sender, inAmount, outAmount) */\n      0xffffffffffffffffffffffffffffffffffffffff\n      and\n      dup2\n      mstore\n      0x20\n      add\n        /* \"contracts/SyCrowBarter.sol\":6920:6928  inAmount */\n      dup6\n        /* \"contracts/SyCrowBarter.sol\":6897:6940  BaterTrade(msg.sender, inAmount, outAmount) */\n      dup2\n      mstore\n      0x20\n      add\n        /* \"contracts/SyCrowBarter.sol\":6930:6939  outAmount */\n      dup5\n        /* \"contracts/SyCrowBarter.sol\":6897:6940  BaterTrade(msg.sender, inAmount, outAmount) */\n      dup2\n      mstore\n      pop\n        /* \"contracts/SyCrowBarter.sol\":6884:6941  _trades.push(BaterTrade(msg.sender, inAmount, outAmount)) */\n      swap1\n      dup1\n      0x01\n      dup2\n      sload\n      add\n      dup1\n      dup3\n      sstore\n      dup1\n      swap2\n      pop\n      pop\n      0x01\n      swap1\n      sub\n      swap1\n      0x00\n      mstore\n      keccak256(0x00, 0x20)\n      swap1\n      0x03\n      mul\n      add\n      0x00\n      swap1\n      swap2\n      swap1\n      swap2\n      swap1\n      swap2\n      pop\n      0x00\n      dup3\n      add\n      mload\n      dup2\n      0x00\n      add\n      exp(0x0100, 0x00)\n      dup2\n      sload\n      dup2\n      0xffffffffffffffffffffffffffffffffffffffff\n      mul\n      not\n      and\n      swap1\n      dup4\n      0xffffffffffffffffffffffffffffffffffffffff\n      and\n      mul\n      or\n      swap1\n      sstore\n      pop\n      0x20\n      dup3\n      add\n      mload\n      dup2\n      0x01\n      add\n      sstore\n      0x40\n      dup3\n      add\n      mload\n      dup2\n      0x02\n      add\n      sstore\n      pop\n      pop\n        /* \"contracts/SyCrowBarter.sol\":6952:6984  ISyCrowBarterFactory sycrFactory */\n      0x00\n        /* \"contracts/SyCrowBarter.sol\":7008:7015  factory */\n      immutable(\"0x26a975632f70533c9512e57b565b8ce8e2befee6b08dfbc27c4a897a20e2c1d6\")\n        /* \"contracts/SyCrowBarter.sol\":6952:7016  ISyCrowBarterFactory sycrFactory = ISyCrowBarterFactory(factory) */\n      swap1\n      pop\n        /* \"contracts/SyCrowBarter.sol\":7026:7037  sycrFactory */\n      dup1\n        /* \"contracts/SyCrowBarter.sol\":7026:7057  sycrFactory.notifyTradeByBarter */\n      0xffffffffffffffffffffffffffffffffffffffff\n      and\n      0xf52701b7\n        /* \"contracts/SyCrowBarter.sol\":7079:7083  this */\n      address\n        /* \"contracts/SyCrowBarter.sol\":7098:7108  msg.sender */\n      caller\n        /* \"contracts/SyCrowBarter.sol\":7122:7130  inAmount */\n      dup8\n        /* \"contracts/SyCrowBarter.sol\":7144:7153  outAmount */\n      dup8\n        /* \"contracts/SyCrowBarter.sol\":7026:7163  sycrFactory.notifyTradeByBarter(... */\n      mload(0x40)\n      dup6\n      0xffffffff\n      and\n      0xe0\n      shl\n      dup2\n      mstore\n      0x04\n      add\n      tag_347\n      swap5\n      swap4\n      swap3\n      swap2\n      swap1\n      tag_207\n      jump\t// in\n    tag_347:\n      0x00\n      mload(0x40)\n      dup1\n      dup4\n      sub\n      dup2\n      0x00\n      dup8\n      dup1\n      extcodesize\n      iszero\n      dup1\n      iszero\n      tag_348\n      jumpi\n      0x00\n      dup1\n      revert\n    tag_348:\n      pop\n      gas\n      call\n      iszero\n      dup1\n      iszero\n      tag_350\n      jumpi\n      returndatasize\n      0x00\n      dup1\n      returndatacopy\n      revert(0x00, returndatasize)\n    tag_350:\n      pop\n      pop\n      pop\n      pop\n        /* \"contracts/SyCrowBarter.sol\":6216:7170  {... */\n      pop\n      pop\n      pop\n        /* \"contracts/SyCrowBarter.sol\":6162:7170  function _tradeTokenForEth(uint256 inAmount) internal {... */\n      pop\n      jump\t// out\n        /* \"contracts/SyCrowBarter.sol\":5116:6156  function _tradeTokenForToken(uint256 inAmount) internal {... */\n    tag_152:\n        /* \"contracts/SyCrowBarter.sol\":5258:5266  inAmount */\n      dup1\n        /* \"contracts/SyCrowBarter.sol\":5210:5231  _expectedTokenAddress */\n      0x05\n      0x00\n      swap1\n      sload\n      swap1\n      0x0100\n      exp\n      swap1\n      div\n      0xffffffffffffffffffffffffffffffffffffffff\n      and\n        /* \"contracts/SyCrowBarter.sol\":5203:5242  IERC20(_expectedTokenAddress).balanceOf */\n      0xffffffffffffffffffffffffffffffffffffffff\n      and\n      0x70a08231\n        /* \"contracts/SyCrowBarter.sol\":5243:5253  msg.sender */\n      caller\n        /* \"contracts/SyCrowBarter.sol\":5203:5254  IERC20(_expectedTokenAddress).balanceOf(msg.sender) */\n      mload(0x40)\n      dup3\n      0xffffffff\n      and\n      0xe0\n      shl\n      dup2\n      mstore\n      0x04\n      add\n      tag_352\n      swap2\n      swap1\n      tag_69\n      jump\t// in\n    tag_352:\n      0x20\n      mload(0x40)\n      dup1\n      dup4\n      sub\n      dup2\n      dup7\n      gas\n      staticcall\n      iszero\n      dup1\n      iszero\n      tag_354\n      jumpi\n      returndatasize\n      0x00\n      dup1\n      returndatacopy\n      revert(0x00, returndatasize)\n    tag_354:\n      pop\n      pop\n      pop\n      pop\n      mload(0x40)\n      returndatasize\n      not(0x1f)\n      0x1f\n      dup3\n      add\n      and\n      dup3\n      add\n      dup1\n      0x40\n      mstore\n      pop\n      dup2\n      add\n      swap1\n      tag_355\n      swap2\n      swap1\n      tag_173\n      jump\t// in\n    tag_355:\n        /* \"contracts/SyCrowBarter.sol\":5203:5266  IERC20(_expectedTokenAddress).balanceOf(msg.sender) >= inAmount */\n      lt\n      iszero\n        /* \"contracts/SyCrowBarter.sol\":5182:5326  require(... */\n      tag_356\n      jumpi\n      mload(0x40)\n      0x08c379a000000000000000000000000000000000000000000000000000000000\n      dup2\n      mstore\n      0x04\n      add\n      tag_357\n      swap1\n      tag_330\n      jump\t// in\n    tag_357:\n      mload(0x40)\n      dup1\n      swap2\n      sub\n      swap1\n      revert\n    tag_356:\n        /* \"contracts/SyCrowBarter.sol\":5337:5354  uint256 outAmount */\n      0x00\n        /* \"contracts/SyCrowBarter.sol\":5357:5384  getTradeOutAmount(inAmount) */\n      tag_358\n        /* \"contracts/SyCrowBarter.sol\":5375:5383  inAmount */\n      dup3\n        /* \"contracts/SyCrowBarter.sol\":5357:5374  getTradeOutAmount */\n      tag_82\n        /* \"contracts/SyCrowBarter.sol\":5357:5384  getTradeOutAmount(inAmount) */\n      jump\t// in\n    tag_358:\n        /* \"contracts/SyCrowBarter.sol\":5337:5384  uint256 outAmount = getTradeOutAmount(inAmount) */\n      swap1\n      pop\n        /* \"contracts/SyCrowBarter.sol\":5491:5500  outAmount */\n      dup1\n        /* \"contracts/SyCrowBarter.sol\":5423:5445  _depositedTokenAddress */\n      0x04\n      0x00\n      swap1\n      sload\n      swap1\n      0x0100\n      exp\n      swap1\n      div\n      0xffffffffffffffffffffffffffffffffffffffff\n      and\n        /* \"contracts/SyCrowBarter.sol\":5416:5456  IERC20(_depositedTokenAddress).balanceOf */\n      0xffffffffffffffffffffffffffffffffffffffff\n      and\n      0x70a08231\n        /* \"contracts/SyCrowBarter.sol\":5465:5469  this */\n      address\n        /* \"contracts/SyCrowBarter.sol\":5416:5471  IERC20(_depositedTokenAddress).balanceOf(address(this)) */\n      mload(0x40)\n      dup3\n      0xffffffff\n      and\n      0xe0\n      shl\n      dup2\n      mstore\n      0x04\n      add\n      tag_359\n      swap2\n      swap1\n      tag_69\n      jump\t// in\n    tag_359:\n      0x20\n      mload(0x40)\n      dup1\n      dup4\n      sub\n      dup2\n      dup7\n      gas\n      staticcall\n      iszero\n      dup1\n      iszero\n      tag_361\n      jumpi\n      returndatasize\n      0x00\n      dup1\n      returndatacopy\n      revert(0x00, returndatasize)\n    tag_361:\n      pop\n      pop\n      pop\n      pop\n      mload(0x40)\n      returndatasize\n      not(0x1f)\n      0x1f\n      dup3\n      add\n      and\n      dup3\n      add\n      dup1\n      0x40\n      mstore\n      pop\n      dup2\n      add\n      swap1\n      tag_362\n      swap2\n      swap1\n      tag_173\n      jump\t// in\n    tag_362:\n        /* \"contracts/SyCrowBarter.sol\":5416:5500  IERC20(_depositedTokenAddress).balanceOf(address(this)) >=... */\n      lt\n      iszero\n        /* \"contracts/SyCrowBarter.sol\":5395:5569  require(... */\n      tag_363\n      jumpi\n      mload(0x40)\n      0x08c379a000000000000000000000000000000000000000000000000000000000\n      dup2\n      mstore\n      0x04\n      add\n      tag_364\n      swap1\n      tag_338\n      jump\t// in\n    tag_364:\n      mload(0x40)\n      dup1\n      swap2\n      sub\n      swap1\n      revert\n    tag_363:\n        /* \"contracts/SyCrowBarter.sol\":5580:5729  TransferHelper.safeTransferFrom(... */\n      tag_365\n        /* \"contracts/SyCrowBarter.sol\":5625:5646  _expectedTokenAddress */\n      0x05\n      0x00\n      swap1\n      sload\n      swap1\n      0x0100\n      exp\n      swap1\n      div\n      0xffffffffffffffffffffffffffffffffffffffff\n      and\n        /* \"contracts/SyCrowBarter.sol\":5660:5670  msg.sender */\n      caller\n        /* \"contracts/SyCrowBarter.sol\":5692:5696  this */\n      address\n        /* \"contracts/SyCrowBarter.sol\":5711:5719  inAmount */\n      dup6\n        /* \"contracts/SyCrowBarter.sol\":5580:5611  TransferHelper.safeTransferFrom */\n      tag_344\n        /* \"contracts/SyCrowBarter.sol\":5580:5729  TransferHelper.safeTransferFrom(... */\n      jump\t// in\n    tag_365:\n        /* \"contracts/SyCrowBarter.sol\":5739:5859  TransferHelper.safeTransfer(... */\n      tag_366\n        /* \"contracts/SyCrowBarter.sol\":5780:5802  _depositedTokenAddress */\n      0x04\n      0x00\n      swap1\n      sload\n      swap1\n      0x0100\n      exp\n      swap1\n      div\n      0xffffffffffffffffffffffffffffffffffffffff\n      and\n        /* \"contracts/SyCrowBarter.sol\":5816:5826  msg.sender */\n      caller\n        /* \"contracts/SyCrowBarter.sol\":5840:5849  outAmount */\n      dup4\n        /* \"contracts/SyCrowBarter.sol\":5739:5766  TransferHelper.safeTransfer */\n      tag_187\n        /* \"contracts/SyCrowBarter.sol\":5739:5859  TransferHelper.safeTransfer(... */\n      jump\t// in\n    tag_366:\n        /* \"contracts/SyCrowBarter.sol\":5870:5877  _trades */\n      0x09\n        /* \"contracts/SyCrowBarter.sol\":5883:5926  BaterTrade(msg.sender, inAmount, outAmount) */\n      mload(0x40)\n      dup1\n      0x60\n      add\n      0x40\n      mstore\n      dup1\n        /* \"contracts/SyCrowBarter.sol\":5894:5904  msg.sender */\n      caller\n        /* \"contracts/SyCrowBarter.sol\":5883:5926  BaterTrade(msg.sender, inAmount, outAmount) */\n      0xffffffffffffffffffffffffffffffffffffffff\n      and\n      dup2\n      mstore\n      0x20\n      add\n        /* \"contracts/SyCrowBarter.sol\":5906:5914  inAmount */\n      dup5\n        /* \"contracts/SyCrowBarter.sol\":5883:5926  BaterTrade(msg.sender, inAmount, outAmount) */\n      dup2\n      mstore\n      0x20\n      add\n        /* \"contracts/SyCrowBarter.sol\":5916:5925  outAmount */\n      dup4\n        /* \"contracts/SyCrowBarter.sol\":5883:5926  BaterTrade(msg.sender, inAmount, outAmount) */\n      dup2\n      mstore\n      pop\n        /* \"contracts/SyCrowBarter.sol\":5870:5927  _trades.push(BaterTrade(msg.sender, inAmount, outAmount)) */\n      swap1\n      dup1\n      0x01\n      dup2\n      sload\n      add\n      dup1\n      dup3\n      sstore\n      dup1\n      swap2\n      pop\n      pop\n      0x01\n      swap1\n      sub\n      swap1\n      0x00\n      mstore\n      keccak256(0x00, 0x20)\n      swap1\n      0x03\n      mul\n      add\n      0x00\n      swap1\n      swap2\n      swap1\n      swap2\n      swap1\n      swap2\n      pop\n      0x00\n      dup3\n      add\n      mload\n      dup2\n      0x00\n      add\n      exp(0x0100, 0x00)\n      dup2\n      sload\n      dup2\n      0xffffffffffffffffffffffffffffffffffffffff\n      mul\n      not\n      and\n      swap1\n      dup4\n      0xffffffffffffffffffffffffffffffffffffffff\n      and\n      mul\n      or\n      swap1\n      sstore\n      pop\n      0x20\n      dup3\n      add\n      mload\n      dup2\n      0x01\n      add\n      sstore\n      0x40\n      dup3\n      add\n      mload\n      dup2\n      0x02\n      add\n      sstore\n      pop\n      pop\n        /* \"contracts/SyCrowBarter.sol\":5938:5970  ISyCrowBarterFactory sycrFactory */\n      0x00\n        /* \"contracts/SyCrowBarter.sol\":5994:6001  factory */\n      immutable(\"0x26a975632f70533c9512e57b565b8ce8e2befee6b08dfbc27c4a897a20e2c1d6\")\n        /* \"contracts/SyCrowBarter.sol\":5938:6002  ISyCrowBarterFactory sycrFactory = ISyCrowBarterFactory(factory) */\n      swap1\n      pop\n        /* \"contracts/SyCrowBarter.sol\":6012:6023  sycrFactory */\n      dup1\n        /* \"contracts/SyCrowBarter.sol\":6012:6043  sycrFactory.notifyTradeByBarter */\n      0xffffffffffffffffffffffffffffffffffffffff\n      and\n      0xf52701b7\n        /* \"contracts/SyCrowBarter.sol\":6065:6069  this */\n      address\n        /* \"contracts/SyCrowBarter.sol\":6084:6094  msg.sender */\n      caller\n        /* \"contracts/SyCrowBarter.sol\":6108:6116  inAmount */\n      dup7\n        /* \"contracts/SyCrowBarter.sol\":6130:6139  outAmount */\n      dup7\n        /* \"contracts/SyCrowBarter.sol\":6012:6149  sycrFactory.notifyTradeByBarter(... */\n      mload(0x40)\n      dup6\n      0xffffffff\n      and\n      0xe0\n      shl\n      dup2\n      mstore\n      0x04\n      add\n      tag_368\n      swap5\n      swap4\n      swap3\n      swap2\n      swap1\n      tag_207\n      jump\t// in\n    tag_368:\n      0x00\n      mload(0x40)\n      dup1\n      dup4\n      sub\n      dup2\n      0x00\n      dup8\n      dup1\n      extcodesize\n      iszero\n      dup1\n      iszero\n      tag_369\n      jumpi\n      0x00\n      dup1\n      revert\n    tag_369:\n      pop\n      gas\n      call\n      iszero\n      dup1\n      iszero\n      tag_371\n      jumpi\n      returndatasize\n      0x00\n      dup1\n      returndatacopy\n      revert(0x00, returndatasize)\n    tag_371:\n      pop\n      pop\n      pop\n      pop\n        /* \"contracts/SyCrowBarter.sol\":5172:6156  {... */\n      pop\n      pop\n        /* \"contracts/SyCrowBarter.sol\":5116:6156  function _tradeTokenForToken(uint256 inAmount) internal {... */\n      pop\n      jump\t// out\n        /* \"@openzeppelin/contracts/utils/Context.sol\":640:736  function _msgSender() internal view virtual returns (address) {... */\n    tag_163:\n        /* \"@openzeppelin/contracts/utils/Context.sol\":693:700  address */\n      0x00\n        /* \"@openzeppelin/contracts/utils/Context.sol\":719:729  msg.sender */\n      caller\n        /* \"@openzeppelin/contracts/utils/Context.sol\":712:729  return msg.sender */\n      swap1\n      pop\n        /* \"@openzeppelin/contracts/utils/Context.sol\":640:736  function _msgSender() internal view virtual returns (address) {... */\n      swap1\n      jump\t// out\n        /* \"contracts/libraries/TransferHelper.sol\":1333:1525  function safeTransferETH(address to, uint value) internal {... */\n    tag_180:\n        /* \"contracts/libraries/TransferHelper.sol\":1402:1414  bool success */\n      0x00\n        /* \"contracts/libraries/TransferHelper.sol\":1419:1421  to */\n      dup3\n        /* \"contracts/libraries/TransferHelper.sol\":1419:1426  to.call */\n      0xffffffffffffffffffffffffffffffffffffffff\n      and\n        /* \"contracts/libraries/TransferHelper.sol\":1433:1438  value */\n      dup3\n        /* \"contracts/libraries/TransferHelper.sol\":1450:1451  0 */\n      0x00\n        /* \"contracts/libraries/TransferHelper.sol\":1440:1452  new bytes(0) */\n      0xffffffffffffffff\n      dup2\n      gt\n      iszero\n      tag_374\n      jumpi\n      tag_375\n      tag_284\n      jump\t// in\n    tag_375:\n    tag_374:\n      mload(0x40)\n      swap1\n      dup1\n      dup3\n      mstore\n      dup1\n      0x1f\n      add\n      not(0x1f)\n      and\n      0x20\n      add\n      dup3\n      add\n      0x40\n      mstore\n      dup1\n      iszero\n      tag_376\n      jumpi\n      dup2\n      0x20\n      add\n      0x01\n      dup3\n      mul\n      dup1\n      calldatasize\n      dup4\n      calldatacopy\n      dup1\n      dup3\n      add\n      swap2\n      pop\n      pop\n      swap1\n      pop\n    tag_376:\n      pop\n        /* \"contracts/libraries/TransferHelper.sol\":1419:1453  to.call{value:value}(new bytes(0)) */\n      mload(0x40)\n      tag_377\n      swap2\n      swap1\n      tag_378\n      jump\t// in\n    tag_377:\n      0x00\n      mload(0x40)\n      dup1\n      dup4\n      sub\n      dup2\n      dup6\n      dup8\n      gas\n      call\n      swap3\n      pop\n      pop\n      pop\n      returndatasize\n      dup1\n      0x00\n      dup2\n      eq\n      tag_381\n      jumpi\n      mload(0x40)\n      swap2\n      pop\n      and(add(returndatasize, 0x3f), not(0x1f))\n      dup3\n      add\n      0x40\n      mstore\n      returndatasize\n      dup3\n      mstore\n      returndatasize\n      0x00\n      0x20\n      dup5\n      add\n      returndatacopy\n      jump(tag_380)\n    tag_381:\n      0x60\n      swap2\n      pop\n    tag_380:\n      pop\n        /* \"contracts/libraries/TransferHelper.sol\":1401:1453  (bool success,) = to.call{value:value}(new bytes(0)) */\n      pop\n      swap1\n      pop\n        /* \"contracts/libraries/TransferHelper.sol\":1471:1478  success */\n      dup1\n        /* \"contracts/libraries/TransferHelper.sol\":1463:1518  require(success, 'TransferHelper: ETH_TRANSFER_FAILED') */\n      tag_382\n      jumpi\n      mload(0x40)\n      0x08c379a000000000000000000000000000000000000000000000000000000000\n      dup2\n      mstore\n      0x04\n      add\n      tag_383\n      swap1\n      tag_384\n      jump\t// in\n    tag_383:\n      mload(0x40)\n      dup1\n      swap2\n      sub\n      swap1\n      revert\n    tag_382:\n        /* \"contracts/libraries/TransferHelper.sol\":1391:1525  {... */\n      pop\n        /* \"contracts/libraries/TransferHelper.sol\":1333:1525  function safeTransferETH(address to, uint value) internal {... */\n      pop\n      pop\n      jump\t// out\n        /* \"contracts/libraries/TransferHelper.sol\":566:923  function safeTransfer(address token, address to, uint value) internal {... */\n    tag_187:\n        /* \"contracts/libraries/TransferHelper.sol\":713:725  bool success */\n      0x00\n        /* \"contracts/libraries/TransferHelper.sol\":727:744  bytes memory data */\n      dup1\n        /* \"contracts/libraries/TransferHelper.sol\":748:753  token */\n      dup5\n        /* \"contracts/libraries/TransferHelper.sol\":748:758  token.call */\n      0xffffffffffffffffffffffffffffffffffffffff\n      and\n        /* \"contracts/libraries/TransferHelper.sol\":782:792  0xa9059cbb */\n      0xa9059cbb\n        /* \"contracts/libraries/TransferHelper.sol\":794:796  to */\n      dup6\n        /* \"contracts/libraries/TransferHelper.sol\":798:803  value */\n      dup6\n        /* \"contracts/libraries/TransferHelper.sol\":759:804  abi.encodeWithSelector(0xa9059cbb, to, value) */\n      add(0x24, mload(0x40))\n      tag_386\n      swap3\n      swap2\n      swap1\n      tag_387\n      jump\t// in\n    tag_386:\n      mload(0x40)\n      0x20\n      dup2\n      dup4\n      sub\n      sub\n      dup2\n      mstore\n      swap1\n      0x40\n      mstore\n      swap1\n      0xe0\n      shl\n      0x20\n      dup3\n      add\n      dup1\n      mload\n      0xffffffffffffffffffffffffffffffffffffffffffffffffffffffff\n      dup4\n      dup2\n      dup4\n      and\n      or\n      dup4\n      mstore\n      pop\n      pop\n      pop\n      pop\n        /* \"contracts/libraries/TransferHelper.sol\":748:805  token.call(abi.encodeWithSelector(0xa9059cbb, to, value)) */\n      mload(0x40)\n      tag_388\n      swap2\n      swap1\n      tag_378\n      jump\t// in\n    tag_388:\n      0x00\n      mload(0x40)\n      dup1\n      dup4\n      sub\n      dup2\n      0x00\n      dup7\n      gas\n      call\n      swap2\n      pop\n      pop\n      returndatasize\n      dup1\n      0x00\n      dup2\n      eq\n      tag_391\n      jumpi\n      mload(0x40)\n      swap2\n      pop\n      and(add(returndatasize, 0x3f), not(0x1f))\n      dup3\n      add\n      0x40\n      mstore\n      returndatasize\n      dup3\n      mstore\n      returndatasize\n      0x00\n      0x20\n      dup5\n      add\n      returndatacopy\n      jump(tag_390)\n    tag_391:\n      0x60\n      swap2\n      pop\n    tag_390:\n      pop\n        /* \"contracts/libraries/TransferHelper.sol\":712:805  (bool success, bytes memory data) = token.call(abi.encodeWithSelector(0xa9059cbb, to, value)) */\n      swap2\n      pop\n      swap2\n      pop\n        /* \"contracts/libraries/TransferHelper.sol\":823:830  success */\n      dup2\n        /* \"contracts/libraries/TransferHelper.sol\":823:880  success && (data.length == 0 || abi.decode(data, (bool))) */\n      dup1\n      iszero\n      tag_392\n      jumpi\n      pop\n        /* \"contracts/libraries/TransferHelper.sol\":850:851  0 */\n      0x00\n        /* \"contracts/libraries/TransferHelper.sol\":835:839  data */\n      dup2\n        /* \"contracts/libraries/TransferHelper.sol\":835:846  data.length */\n      mload\n        /* \"contracts/libraries/TransferHelper.sol\":835:851  data.length == 0 */\n      eq\n        /* \"contracts/libraries/TransferHelper.sol\":835:879  data.length == 0 || abi.decode(data, (bool)) */\n      dup1\n      tag_393\n      jumpi\n      pop\n        /* \"contracts/libraries/TransferHelper.sol\":866:870  data */\n      dup1\n        /* \"contracts/libraries/TransferHelper.sol\":855:879  abi.decode(data, (bool)) */\n      dup1\n      0x20\n      add\n      swap1\n      mload\n      dup2\n      add\n      swap1\n      tag_394\n      swap2\n      swap1\n      tag_107\n      jump\t// in\n    tag_394:\n        /* \"contracts/libraries/TransferHelper.sol\":835:879  data.length == 0 || abi.decode(data, (bool)) */\n    tag_393:\n        /* \"contracts/libraries/TransferHelper.sol\":823:880  success && (data.length == 0 || abi.decode(data, (bool))) */\n    tag_392:\n        /* \"contracts/libraries/TransferHelper.sol\":815:916  require(success && (data.length == 0 || abi.decode(data, (bool))), 'TransferHelper: TRANSFER_FAILED') */\n      tag_395\n      jumpi\n      mload(0x40)\n      0x08c379a000000000000000000000000000000000000000000000000000000000\n      dup2\n      mstore\n      0x04\n      add\n      tag_396\n      swap1\n      tag_397\n      jump\t// in\n    tag_396:\n      mload(0x40)\n      dup1\n      swap2\n      sub\n      swap1\n      revert\n    tag_395:\n        /* \"contracts/libraries/TransferHelper.sol\":636:923  {... */\n      pop\n      pop\n        /* \"contracts/libraries/TransferHelper.sol\":566:923  function safeTransfer(address token, address to, uint value) internal {... */\n      pop\n      pop\n      pop\n      jump\t// out\n        /* \"contracts/SyCrowBarter.sol\":7176:8031  function _tradeEthForToken(uint256 inAmount) internal {... */\n    tag_240:\n        /* \"contracts/SyCrowBarter.sol\":7260:7269  msg.value */\n      callvalue\n        /* \"contracts/SyCrowBarter.sol\":7248:7256  inAmount */\n      dup2\n        /* \"contracts/SyCrowBarter.sol\":7248:7269  inAmount == msg.value */\n      eq\n        /* \"contracts/SyCrowBarter.sol\":7240:7311  require(inAmount == msg.value, \"SyCrowBarter: MULTI_TRADE_NOT_ENABLED\") */\n      tag_399\n      jumpi\n      mload(0x40)\n      0x08c379a000000000000000000000000000000000000000000000000000000000\n      dup2\n      mstore\n      0x04\n      add\n      tag_400\n      swap1\n      tag_401\n      jump\t// in\n    tag_400:\n      mload(0x40)\n      dup1\n      swap2\n      sub\n      swap1\n      revert\n    tag_399:\n        /* \"contracts/SyCrowBarter.sol\":7322:7339  uint256 outAmount */\n      0x00\n        /* \"contracts/SyCrowBarter.sol\":7342:7369  getTradeOutAmount(inAmount) */\n      tag_402\n        /* \"contracts/SyCrowBarter.sol\":7360:7368  inAmount */\n      dup3\n        /* \"contracts/SyCrowBarter.sol\":7342:7359  getTradeOutAmount */\n      tag_82\n        /* \"contracts/SyCrowBarter.sol\":7342:7369  getTradeOutAmount(inAmount) */\n      jump\t// in\n    tag_402:\n        /* \"contracts/SyCrowBarter.sol\":7322:7369  uint256 outAmount = getTradeOutAmount(inAmount) */\n      swap1\n      pop\n        /* \"contracts/SyCrowBarter.sol\":7476:7485  outAmount */\n      dup1\n        /* \"contracts/SyCrowBarter.sol\":7408:7430  _depositedTokenAddress */\n      0x04\n      0x00\n      swap1\n      sload\n      swap1\n      0x0100\n      exp\n      swap1\n      div\n      0xffffffffffffffffffffffffffffffffffffffff\n      and\n        /* \"contracts/SyCrowBarter.sol\":7401:7441  IERC20(_depositedTokenAddress).balanceOf */\n      0xffffffffffffffffffffffffffffffffffffffff\n      and\n      0x70a08231\n        /* \"contracts/SyCrowBarter.sol\":7450:7454  this */\n      address\n        /* \"contracts/SyCrowBarter.sol\":7401:7456  IERC20(_depositedTokenAddress).balanceOf(address(this)) */\n      mload(0x40)\n      dup3\n      0xffffffff\n      and\n      0xe0\n      shl\n      dup2\n      mstore\n      0x04\n      add\n      tag_403\n      swap2\n      swap1\n      tag_69\n      jump\t// in\n    tag_403:\n      0x20\n      mload(0x40)\n      dup1\n      dup4\n      sub\n      dup2\n      dup7\n      gas\n      staticcall\n      iszero\n      dup1\n      iszero\n      tag_405\n      jumpi\n      returndatasize\n      0x00\n      dup1\n      returndatacopy\n      revert(0x00, returndatasize)\n    tag_405:\n      pop\n      pop\n      pop\n      pop\n      mload(0x40)\n      returndatasize\n      not(0x1f)\n      0x1f\n      dup3\n      add\n      and\n      dup3\n      add\n      dup1\n      0x40\n      mstore\n      pop\n      dup2\n      add\n      swap1\n      tag_406\n      swap2\n      swap1\n      tag_173\n      jump\t// in\n    tag_406:\n        /* \"contracts/SyCrowBarter.sol\":7401:7485  IERC20(_depositedTokenAddress).balanceOf(address(this)) >=... */\n      lt\n      iszero\n        /* \"contracts/SyCrowBarter.sol\":7380:7554  require(... */\n      tag_407\n      jumpi\n      mload(0x40)\n      0x08c379a000000000000000000000000000000000000000000000000000000000\n      dup2\n      mstore\n      0x04\n      add\n      tag_408\n      swap1\n      tag_338\n      jump\t// in\n    tag_408:\n      mload(0x40)\n      dup1\n      swap2\n      sub\n      swap1\n      revert\n    tag_407:\n        /* \"contracts/SyCrowBarter.sol\":7571:7575  WETH */\n      0x03\n      0x01\n      swap1\n      sload\n      swap1\n      0x0100\n      exp\n      swap1\n      div\n      0xffffffffffffffffffffffffffffffffffffffff\n      and\n        /* \"contracts/SyCrowBarter.sol\":7565:7584  IWETH(WETH).deposit */\n      0xffffffffffffffffffffffffffffffffffffffff\n      and\n      0xd0e30db0\n        /* \"contracts/SyCrowBarter.sol\":7592:7600  inAmount */\n      dup4\n        /* \"contracts/SyCrowBarter.sol\":7565:7603  IWETH(WETH).deposit{value: inAmount}() */\n      mload(0x40)\n      dup3\n      0xffffffff\n      and\n      0xe0\n      shl\n      dup2\n      mstore\n      0x04\n      add\n      0x00\n      mload(0x40)\n      dup1\n      dup4\n      sub\n      dup2\n      dup6\n      dup9\n      dup1\n      extcodesize\n      iszero\n      dup1\n      iszero\n      tag_409\n      jumpi\n      0x00\n      dup1\n      revert\n    tag_409:\n      pop\n      gas\n      call\n      iszero\n      dup1\n      iszero\n      tag_411\n      jumpi\n      returndatasize\n      0x00\n      dup1\n      returndatacopy\n      revert(0x00, returndatasize)\n    tag_411:\n      pop\n      pop\n      pop\n      pop\n      pop\n        /* \"contracts/SyCrowBarter.sol\":7614:7734  TransferHelper.safeTransfer(... */\n      tag_412\n        /* \"contracts/SyCrowBarter.sol\":7655:7677  _depositedTokenAddress */\n      0x04\n      0x00\n      swap1\n      sload\n      swap1\n      0x0100\n      exp\n      swap1\n      div\n      0xffffffffffffffffffffffffffffffffffffffff\n      and\n        /* \"contracts/SyCrowBarter.sol\":7691:7701  msg.sender */\n      caller\n        /* \"contracts/SyCrowBarter.sol\":7715:7724  outAmount */\n      dup4\n        /* \"contracts/SyCrowBarter.sol\":7614:7641  TransferHelper.safeTransfer */\n      tag_187\n        /* \"contracts/SyCrowBarter.sol\":7614:7734  TransferHelper.safeTransfer(... */\n      jump\t// in\n    tag_412:\n        /* \"contracts/SyCrowBarter.sol\":7745:7752  _trades */\n      0x09\n        /* \"contracts/SyCrowBarter.sol\":7758:7801  BaterTrade(msg.sender, inAmount, outAmount) */\n      mload(0x40)\n      dup1\n      0x60\n      add\n      0x40\n      mstore\n      dup1\n        /* \"contracts/SyCrowBarter.sol\":7769:7779  msg.sender */\n      caller\n        /* \"contracts/SyCrowBarter.sol\":7758:7801  BaterTrade(msg.sender, inAmount, outAmount) */\n      0xffffffffffffffffffffffffffffffffffffffff\n      and\n      dup2\n      mstore\n      0x20\n      add\n        /* \"contracts/SyCrowBarter.sol\":7781:7789  inAmount */\n      dup5\n        /* \"contracts/SyCrowBarter.sol\":7758:7801  BaterTrade(msg.sender, inAmount, outAmount) */\n      dup2\n      mstore\n      0x20\n      add\n        /* \"contracts/SyCrowBarter.sol\":7791:7800  outAmount */\n      dup4\n        /* \"contracts/SyCrowBarter.sol\":7758:7801  BaterTrade(msg.sender, inAmount, outAmount) */\n      dup2\n      mstore\n      pop\n        /* \"contracts/SyCrowBarter.sol\":7745:7802  _trades.push(BaterTrade(msg.sender, inAmount, outAmount)) */\n      swap1\n      dup1\n      0x01\n      dup2\n      sload\n      add\n      dup1\n      dup3\n      sstore\n      dup1\n      swap2\n      pop\n      pop\n      0x01\n      swap1\n      sub\n      swap1\n      0x00\n      mstore\n      keccak256(0x00, 0x20)\n      swap1\n      0x03\n      mul\n      add\n      0x00\n      swap1\n      swap2\n      swap1\n      swap2\n      swap1\n      swap2\n      pop\n      0x00\n      dup3\n      add\n      mload\n      dup2\n      0x00\n      add\n      exp(0x0100, 0x00)\n      dup2\n      sload\n      dup2\n      0xffffffffffffffffffffffffffffffffffffffff\n      mul\n      not\n      and\n      swap1\n      dup4\n      0xffffffffffffffffffffffffffffffffffffffff\n      and\n      mul\n      or\n      swap1\n      sstore\n      pop\n      0x20\n      dup3\n      add\n      mload\n      dup2\n      0x01\n      add\n      sstore\n      0x40\n      dup3\n      add\n      mload\n      dup2\n      0x02\n      add\n      sstore\n      pop\n      pop\n        /* \"contracts/SyCrowBarter.sol\":7813:7845  ISyCrowBarterFactory sycrFactory */\n      0x00\n        /* \"contracts/SyCrowBarter.sol\":7869:7876  factory */\n      immutable(\"0x26a975632f70533c9512e57b565b8ce8e2befee6b08dfbc27c4a897a20e2c1d6\")\n        /* \"contracts/SyCrowBarter.sol\":7813:7877  ISyCrowBarterFactory sycrFactory = ISyCrowBarterFactory(factory) */\n      swap1\n      pop\n        /* \"contracts/SyCrowBarter.sol\":7887:7898  sycrFactory */\n      dup1\n        /* \"contracts/SyCrowBarter.sol\":7887:7918  sycrFactory.notifyTradeByBarter */\n      0xffffffffffffffffffffffffffffffffffffffff\n      and\n      0xf52701b7\n        /* \"contracts/SyCrowBarter.sol\":7940:7944  this */\n      address\n        /* \"contracts/SyCrowBarter.sol\":7959:7969  msg.sender */\n      caller\n        /* \"contracts/SyCrowBarter.sol\":7983:7991  inAmount */\n      dup7\n        /* \"contracts/SyCrowBarter.sol\":8005:8014  outAmount */\n      dup7\n        /* \"contracts/SyCrowBarter.sol\":7887:8024  sycrFactory.notifyTradeByBarter(... */\n      mload(0x40)\n      dup6\n      0xffffffff\n      and\n      0xe0\n      shl\n      dup2\n      mstore\n      0x04\n      add\n      tag_414\n      swap5\n      swap4\n      swap3\n      swap2\n      swap1\n      tag_207\n      jump\t// in\n    tag_414:\n      0x00\n      mload(0x40)\n      dup1\n      dup4\n      sub\n      dup2\n      0x00\n      dup8\n      dup1\n      extcodesize\n      iszero\n      dup1\n      iszero\n      tag_415\n      jumpi\n      0x00\n      dup1\n      revert\n    tag_415:\n      pop\n      gas\n      call\n      iszero\n      dup1\n      iszero\n      tag_417\n      jumpi\n      returndatasize\n      0x00\n      dup1\n      returndatacopy\n      revert(0x00, returndatasize)\n    tag_417:\n      pop\n      pop\n      pop\n      pop\n        /* \"contracts/SyCrowBarter.sol\":7230:8031  {... */\n      pop\n      pop\n        /* \"contracts/SyCrowBarter.sol\":7176:8031  function _tradeEthForToken(uint256 inAmount) internal {... */\n      pop\n      jump\t// out\n        /* \"@openzeppelin/contracts/access/Ownable.sol\":2270:2457  function _transferOwnership(address newOwner) internal virtual {... */\n    tag_267:\n        /* \"@openzeppelin/contracts/access/Ownable.sol\":2343:2359  address oldOwner */\n      0x00\n        /* \"@openzeppelin/contracts/access/Ownable.sol\":2362:2368  _owner */\n      dup1\n      0x00\n      swap1\n      sload\n      swap1\n      0x0100\n      exp\n      swap1\n      div\n      0xffffffffffffffffffffffffffffffffffffffff\n      and\n        /* \"@openzeppelin/contracts/access/Ownable.sol\":2343:2368  address oldOwner = _owner */\n      swap1\n      pop\n        /* \"@openzeppelin/contracts/access/Ownable.sol\":2387:2395  newOwner */\n      dup2\n        /* \"@openzeppelin/contracts/access/Ownable.sol\":2378:2384  _owner */\n      0x00\n      dup1\n        /* \"@openzeppelin/contracts/access/Ownable.sol\":2378:2395  _owner = newOwner */\n      0x0100\n      exp\n      dup2\n      sload\n      dup2\n      0xffffffffffffffffffffffffffffffffffffffff\n      mul\n      not\n      and\n      swap1\n      dup4\n      0xffffffffffffffffffffffffffffffffffffffff\n      and\n      mul\n      or\n      swap1\n      sstore\n      pop\n        /* \"@openzeppelin/contracts/access/Ownable.sol\":2441:2449  newOwner */\n      dup2\n        /* \"@openzeppelin/contracts/access/Ownable.sol\":2410:2450  OwnershipTransferred(oldOwner, newOwner) */\n      0xffffffffffffffffffffffffffffffffffffffff\n      and\n        /* \"@openzeppelin/contracts/access/Ownable.sol\":2431:2439  oldOwner */\n      dup2\n        /* \"@openzeppelin/contracts/access/Ownable.sol\":2410:2450  OwnershipTransferred(oldOwner, newOwner) */\n      0xffffffffffffffffffffffffffffffffffffffff\n      and\n      0x8be0079c531659141344cd1fd0a4f28419497f9722a3daafe3b4186f6b6457e0\n      mload(0x40)\n      mload(0x40)\n      dup1\n      swap2\n      sub\n      swap1\n      log3\n        /* \"@openzeppelin/contracts/access/Ownable.sol\":2333:2457  {... */\n      pop\n        /* \"@openzeppelin/contracts/access/Ownable.sol\":2270:2457  function _transferOwnership(address newOwner) internal virtual {... */\n      pop\n      jump\t// out\n        /* \"contracts/libraries/TransferHelper.sol\":929:1327  function safeTransferFrom(address token, address from, address to, uint value) internal {... */\n    tag_344:\n        /* \"contracts/libraries/TransferHelper.sol\":1106:1118  bool success */\n      0x00\n        /* \"contracts/libraries/TransferHelper.sol\":1120:1137  bytes memory data */\n      dup1\n        /* \"contracts/libraries/TransferHelper.sol\":1141:1146  token */\n      dup6\n        /* \"contracts/libraries/TransferHelper.sol\":1141:1151  token.call */\n      0xffffffffffffffffffffffffffffffffffffffff\n      and\n        /* \"contracts/libraries/TransferHelper.sol\":1175:1185  0x23b872dd */\n      0x23b872dd\n        /* \"contracts/libraries/TransferHelper.sol\":1187:1191  from */\n      dup7\n        /* \"contracts/libraries/TransferHelper.sol\":1193:1195  to */\n      dup7\n        /* \"contracts/libraries/TransferHelper.sol\":1197:1202  value */\n      dup7\n        /* \"contracts/libraries/TransferHelper.sol\":1152:1203  abi.encodeWithSelector(0x23b872dd, from, to, value) */\n      add(0x24, mload(0x40))\n      tag_420\n      swap4\n      swap3\n      swap2\n      swap1\n      tag_421\n      jump\t// in\n    tag_420:\n      mload(0x40)\n      0x20\n      dup2\n      dup4\n      sub\n      sub\n      dup2\n      mstore\n      swap1\n      0x40\n      mstore\n      swap1\n      0xe0\n      shl\n      0x20\n      dup3\n      add\n      dup1\n      mload\n      0xffffffffffffffffffffffffffffffffffffffffffffffffffffffff\n      dup4\n      dup2\n      dup4\n      and\n      or\n      dup4\n      mstore\n      pop\n      pop\n      pop\n      pop\n        /* \"contracts/libraries/TransferHelper.sol\":1141:1204  token.call(abi.encodeWithSelector(0x23b872dd, from, to, value)) */\n      mload(0x40)\n      tag_422\n      swap2\n      swap1\n      tag_378\n      jump\t// in\n    tag_422:\n      0x00\n      mload(0x40)\n      dup1\n      dup4\n      sub\n      dup2\n      0x00\n      dup7\n      gas\n      call\n      swap2\n      pop\n      pop\n      returndatasize\n      dup1\n      0x00\n      dup2\n      eq\n      tag_425\n      jumpi\n      mload(0x40)\n      swap2\n      pop\n      and(add(returndatasize, 0x3f), not(0x1f))\n      dup3\n      add\n      0x40\n      mstore\n      returndatasize\n      dup3\n      mstore\n      returndatasize\n      0x00\n      0x20\n      dup5\n      add\n      returndatacopy\n      jump(tag_424)\n    tag_425:\n      0x60\n      swap2\n      pop\n    tag_424:\n      pop\n        /* \"contracts/libraries/TransferHelper.sol\":1105:1204  (bool success, bytes memory data) = token.call(abi.encodeWithSelector(0x23b872dd, from, to, value)) */\n      swap2\n      pop\n      swap2\n      pop\n        /* \"contracts/libraries/TransferHelper.sol\":1222:1229  success */\n      dup2\n        /* \"contracts/libraries/TransferHelper.sol\":1222:1279  success && (data.length == 0 || abi.decode(data, (bool))) */\n      dup1\n      iszero\n      tag_426\n      jumpi\n      pop\n        /* \"contracts/libraries/TransferHelper.sol\":1249:1250  0 */\n      0x00\n        /* \"contracts/libraries/TransferHelper.sol\":1234:1238  data */\n      dup2\n        /* \"contracts/libraries/TransferHelper.sol\":1234:1245  data.length */\n      mload\n        /* \"contracts/libraries/TransferHelper.sol\":1234:1250  data.length == 0 */\n      eq\n        /* \"contracts/libraries/TransferHelper.sol\":1234:1278  data.length == 0 || abi.decode(data, (bool)) */\n      dup1\n      tag_427\n      jumpi\n      pop\n        /* \"contracts/libraries/TransferHelper.sol\":1265:1269  data */\n      dup1\n        /* \"contracts/libraries/TransferHelper.sol\":1254:1278  abi.decode(data, (bool)) */\n      dup1\n      0x20\n      add\n      swap1\n      mload\n      dup2\n      add\n      swap1\n      tag_428\n      swap2\n      swap1\n      tag_107\n      jump\t// in\n    tag_428:\n        /* \"contracts/libraries/TransferHelper.sol\":1234:1278  data.length == 0 || abi.decode(data, (bool)) */\n    tag_427:\n        /* \"contracts/libraries/TransferHelper.sol\":1222:1279  success && (data.length == 0 || abi.decode(data, (bool))) */\n    tag_426:\n        /* \"contracts/libraries/TransferHelper.sol\":1214:1320  require(success && (data.length == 0 || abi.decode(data, (bool))), 'TransferHelper: TRANSFER_FROM_FAILED') */\n      tag_429\n      jumpi\n      mload(0x40)\n      0x08c379a000000000000000000000000000000000000000000000000000000000\n      dup2\n      mstore\n      0x04\n      add\n      tag_430\n      swap1\n      tag_431\n      jump\t// in\n    tag_430:\n      mload(0x40)\n      dup1\n      swap2\n      sub\n      swap1\n      revert\n    tag_429:\n        /* \"contracts/libraries/TransferHelper.sol\":1017:1327  {... */\n      pop\n      pop\n        /* \"contracts/libraries/TransferHelper.sol\":929:1327  function safeTransferFrom(address token, address from, address to, uint value) internal {... */\n      pop\n      pop\n      pop\n      pop\n      jump\t// out\n        /* \"#utility.yul\":88:205   */\n    tag_433:\n        /* \"#utility.yul\":197:198   */\n      0x00\n        /* \"#utility.yul\":194:195   */\n      dup1\n        /* \"#utility.yul\":187:199   */\n      revert\n        /* \"#utility.yul\":334:411   */\n    tag_435:\n        /* \"#utility.yul\":371:378   */\n      0x00\n        /* \"#utility.yul\":400:405   */\n      dup2\n        /* \"#utility.yul\":389:405   */\n      swap1\n      pop\n        /* \"#utility.yul\":334:411   */\n      swap2\n      swap1\n      pop\n      jump\t// out\n        /* \"#utility.yul\":417:539   */\n    tag_436:\n        /* \"#utility.yul\":490:514   */\n      tag_519\n        /* \"#utility.yul\":508:513   */\n      dup2\n        /* \"#utility.yul\":490:514   */\n      tag_435\n      jump\t// in\n    tag_519:\n        /* \"#utility.yul\":483:488   */\n      dup2\n        /* \"#utility.yul\":480:515   */\n      eq\n        /* \"#utility.yul\":470:533   */\n      tag_520\n      jumpi\n        /* \"#utility.yul\":529:530   */\n      0x00\n        /* \"#utility.yul\":526:527   */\n      dup1\n        /* \"#utility.yul\":519:531   */\n      revert\n        /* \"#utility.yul\":470:533   */\n    tag_520:\n        /* \"#utility.yul\":417:539   */\n      pop\n      jump\t// out\n        /* \"#utility.yul\":545:684   */\n    tag_437:\n        /* \"#utility.yul\":591:596   */\n      0x00\n        /* \"#utility.yul\":629:635   */\n      dup2\n        /* \"#utility.yul\":616:636   */\n      calldataload\n        /* \"#utility.yul\":607:636   */\n      swap1\n      pop\n        /* \"#utility.yul\":645:678   */\n      tag_522\n        /* \"#utility.yul\":672:677   */\n      dup2\n        /* \"#utility.yul\":645:678   */\n      tag_436\n      jump\t// in\n    tag_522:\n        /* \"#utility.yul\":545:684   */\n      swap3\n      swap2\n      pop\n      pop\n      jump\t// out\n        /* \"#utility.yul\":690:1019   */\n    tag_24:\n        /* \"#utility.yul\":749:755   */\n      0x00\n        /* \"#utility.yul\":798:800   */\n      0x20\n        /* \"#utility.yul\":786:795   */\n      dup3\n        /* \"#utility.yul\":777:784   */\n      dup5\n        /* \"#utility.yul\":773:796   */\n      sub\n        /* \"#utility.yul\":769:801   */\n      slt\n        /* \"#utility.yul\":766:885   */\n      iszero\n      tag_524\n      jumpi\n        /* \"#utility.yul\":804:883   */\n      tag_525\n      tag_433\n      jump\t// in\n    tag_525:\n        /* \"#utility.yul\":766:885   */\n    tag_524:\n        /* \"#utility.yul\":924:925   */\n      0x00\n        /* \"#utility.yul\":949:1002   */\n      tag_526\n        /* \"#utility.yul\":994:1001   */\n      dup5\n        /* \"#utility.yul\":985:991   */\n      dup3\n        /* \"#utility.yul\":974:983   */\n      dup6\n        /* \"#utility.yul\":970:992   */\n      add\n        /* \"#utility.yul\":949:1002   */\n      tag_437\n      jump\t// in\n    tag_526:\n        /* \"#utility.yul\":939:1002   */\n      swap2\n      pop\n        /* \"#utility.yul\":895:1012   */\n      pop\n        /* \"#utility.yul\":690:1019   */\n      swap3\n      swap2\n      pop\n      pop\n      jump\t// out\n        /* \"#utility.yul\":1025:1115   */\n    tag_438:\n        /* \"#utility.yul\":1059:1066   */\n      0x00\n        /* \"#utility.yul\":1102:1107   */\n      dup2\n        /* \"#utility.yul\":1095:1108   */\n      iszero\n        /* \"#utility.yul\":1088:1109   */\n      iszero\n        /* \"#utility.yul\":1077:1109   */\n      swap1\n      pop\n        /* \"#utility.yul\":1025:1115   */\n      swap2\n      swap1\n      pop\n      jump\t// out\n        /* \"#utility.yul\":1121:1230   */\n    tag_439:\n        /* \"#utility.yul\":1202:1223   */\n      tag_529\n        /* \"#utility.yul\":1217:1222   */\n      dup2\n        /* \"#utility.yul\":1202:1223   */\n      tag_438\n      jump\t// in\n    tag_529:\n        /* \"#utility.yul\":1197:1200   */\n      dup3\n        /* \"#utility.yul\":1190:1224   */\n      mstore\n        /* \"#utility.yul\":1121:1230   */\n      pop\n      pop\n      jump\t// out\n        /* \"#utility.yul\":1236:1446   */\n    tag_34:\n        /* \"#utility.yul\":1323:1327   */\n      0x00\n        /* \"#utility.yul\":1361:1363   */\n      0x20\n        /* \"#utility.yul\":1350:1359   */\n      dup3\n        /* \"#utility.yul\":1346:1364   */\n      add\n        /* \"#utility.yul\":1338:1364   */\n      swap1\n      pop\n        /* \"#utility.yul\":1374:1439   */\n      tag_531\n        /* \"#utility.yul\":1436:1437   */\n      0x00\n        /* \"#utility.yul\":1425:1434   */\n      dup4\n        /* \"#utility.yul\":1421:1438   */\n      add\n        /* \"#utility.yul\":1412:1418   */\n      dup5\n        /* \"#utility.yul\":1374:1439   */\n      tag_439\n      jump\t// in\n    tag_531:\n        /* \"#utility.yul\":1236:1446   */\n      swap3\n      swap2\n      pop\n      pop\n      jump\t// out\n        /* \"#utility.yul\":1452:1570   */\n    tag_440:\n        /* \"#utility.yul\":1539:1563   */\n      tag_533\n        /* \"#utility.yul\":1557:1562   */\n      dup2\n        /* \"#utility.yul\":1539:1563   */\n      tag_435\n      jump\t// in\n    tag_533:\n        /* \"#utility.yul\":1534:1537   */\n      dup3\n        /* \"#utility.yul\":1527:1564   */\n      mstore\n        /* \"#utility.yul\":1452:1570   */\n      pop\n      pop\n      jump\t// out\n        /* \"#utility.yul\":1576:1908   */\n    tag_42:\n        /* \"#utility.yul\":1697:1701   */\n      0x00\n        /* \"#utility.yul\":1735:1737   */\n      0x40\n        /* \"#utility.yul\":1724:1733   */\n      dup3\n        /* \"#utility.yul\":1720:1738   */\n      add\n        /* \"#utility.yul\":1712:1738   */\n      swap1\n      pop\n        /* \"#utility.yul\":1748:1819   */\n      tag_535\n        /* \"#utility.yul\":1816:1817   */\n      0x00\n        /* \"#utility.yul\":1805:1814   */\n      dup4\n        /* \"#utility.yul\":1801:1818   */\n      add\n        /* \"#utility.yul\":1792:1798   */\n      dup6\n        /* \"#utility.yul\":1748:1819   */\n      tag_440\n      jump\t// in\n    tag_535:\n        /* \"#utility.yul\":1829:1901   */\n      tag_536\n        /* \"#utility.yul\":1897:1899   */\n      0x20\n        /* \"#utility.yul\":1886:1895   */\n      dup4\n        /* \"#utility.yul\":1882:1900   */\n      add\n        /* \"#utility.yul\":1873:1879   */\n      dup5\n        /* \"#utility.yul\":1829:1901   */\n      tag_440\n      jump\t// in\n    tag_536:\n        /* \"#utility.yul\":1576:1908   */\n      swap4\n      swap3\n      pop\n      pop\n      pop\n      jump\t// out\n        /* \"#utility.yul\":1914:2136   */\n    tag_47:\n        /* \"#utility.yul\":2007:2011   */\n      0x00\n        /* \"#utility.yul\":2045:2047   */\n      0x20\n        /* \"#utility.yul\":2034:2043   */\n      dup3\n        /* \"#utility.yul\":2030:2048   */\n      add\n        /* \"#utility.yul\":2022:2048   */\n      swap1\n      pop\n        /* \"#utility.yul\":2058:2129   */\n      tag_538\n        /* \"#utility.yul\":2126:2127   */\n      0x00\n        /* \"#utility.yul\":2115:2124   */\n      dup4\n        /* \"#utility.yul\":2111:2128   */\n      add\n        /* \"#utility.yul\":2102:2108   */\n      dup5\n        /* \"#utility.yul\":2058:2129   */\n      tag_440\n      jump\t// in\n    tag_538:\n        /* \"#utility.yul\":1914:2136   */\n      swap3\n      swap2\n      pop\n      pop\n      jump\t// out\n        /* \"#utility.yul\":2142:2263   */\n    tag_441:\n        /* \"#utility.yul\":2237:2238   */\n      0x03\n        /* \"#utility.yul\":2230:2235   */\n      dup2\n        /* \"#utility.yul\":2227:2239   */\n      lt\n        /* \"#utility.yul\":2217:2257   */\n      tag_540\n      jumpi\n        /* \"#utility.yul\":2253:2254   */\n      0x00\n        /* \"#utility.yul\":2250:2251   */\n      dup1\n        /* \"#utility.yul\":2243:2255   */\n      revert\n        /* \"#utility.yul\":2217:2257   */\n    tag_540:\n        /* \"#utility.yul\":2142:2263   */\n      pop\n      jump\t// out\n        /* \"#utility.yul\":2269:2452   */\n    tag_442:\n        /* \"#utility.yul\":2337:2342   */\n      0x00\n        /* \"#utility.yul\":2375:2381   */\n      dup2\n        /* \"#utility.yul\":2362:2382   */\n      calldataload\n        /* \"#utility.yul\":2353:2382   */\n      swap1\n      pop\n        /* \"#utility.yul\":2391:2446   */\n      tag_542\n        /* \"#utility.yul\":2440:2445   */\n      dup2\n        /* \"#utility.yul\":2391:2446   */\n      tag_441\n      jump\t// in\n    tag_542:\n        /* \"#utility.yul\":2269:2452   */\n      swap3\n      swap2\n      pop\n      pop\n      jump\t// out\n        /* \"#utility.yul\":2458:2584   */\n    tag_443:\n        /* \"#utility.yul\":2495:2502   */\n      0x00\n        /* \"#utility.yul\":2535:2577   */\n      0xffffffffffffffffffffffffffffffffffffffff\n        /* \"#utility.yul\":2528:2533   */\n      dup3\n        /* \"#utility.yul\":2524:2578   */\n      and\n        /* \"#utility.yul\":2513:2578   */\n      swap1\n      pop\n        /* \"#utility.yul\":2458:2584   */\n      swap2\n      swap1\n      pop\n      jump\t// out\n        /* \"#utility.yul\":2590:2686   */\n    tag_444:\n        /* \"#utility.yul\":2627:2634   */\n      0x00\n        /* \"#utility.yul\":2656:2680   */\n      tag_545\n        /* \"#utility.yul\":2674:2679   */\n      dup3\n        /* \"#utility.yul\":2656:2680   */\n      tag_443\n      jump\t// in\n    tag_545:\n        /* \"#utility.yul\":2645:2680   */\n      swap1\n      pop\n        /* \"#utility.yul\":2590:2686   */\n      swap2\n      swap1\n      pop\n      jump\t// out\n        /* \"#utility.yul\":2692:2814   */\n    tag_445:\n        /* \"#utility.yul\":2765:2789   */\n      tag_547\n        /* \"#utility.yul\":2783:2788   */\n      dup2\n        /* \"#utility.yul\":2765:2789   */\n      tag_444\n      jump\t// in\n    tag_547:\n        /* \"#utility.yul\":2758:2763   */\n      dup2\n        /* \"#utility.yul\":2755:2790   */\n      eq\n        /* \"#utility.yul\":2745:2808   */\n      tag_548\n      jumpi\n        /* \"#utility.yul\":2804:2805   */\n      0x00\n        /* \"#utility.yul\":2801:2802   */\n      dup1\n        /* \"#utility.yul\":2794:2806   */\n      revert\n        /* \"#utility.yul\":2745:2808   */\n    tag_548:\n        /* \"#utility.yul\":2692:2814   */\n      pop\n      jump\t// out\n        /* \"#utility.yul\":2820:2959   */\n    tag_446:\n        /* \"#utility.yul\":2866:2871   */\n      0x00\n        /* \"#utility.yul\":2904:2910   */\n      dup2\n        /* \"#utility.yul\":2891:2911   */\n      calldataload\n        /* \"#utility.yul\":2882:2911   */\n      swap1\n      pop\n        /* \"#utility.yul\":2920:2953   */\n      tag_550\n        /* \"#utility.yul\":2947:2952   */\n      dup2\n        /* \"#utility.yul\":2920:2953   */\n      tag_445\n      jump\t// in\n    tag_550:\n        /* \"#utility.yul\":2820:2959   */\n      swap3\n      swap2\n      pop\n      pop\n      jump\t// out\n        /* \"#utility.yul\":2965:3081   */\n    tag_447:\n        /* \"#utility.yul\":3035:3056   */\n      tag_552\n        /* \"#utility.yul\":3050:3055   */\n      dup2\n        /* \"#utility.yul\":3035:3056   */\n      tag_438\n      jump\t// in\n    tag_552:\n        /* \"#utility.yul\":3028:3033   */\n      dup2\n        /* \"#utility.yul\":3025:3057   */\n      eq\n        /* \"#utility.yul\":3015:3075   */\n      tag_553\n      jumpi\n        /* \"#utility.yul\":3071:3072   */\n      0x00\n        /* \"#utility.yul\":3068:3069   */\n      dup1\n        /* \"#utility.yul\":3061:3073   */\n      revert\n        /* \"#utility.yul\":3015:3075   */\n    tag_553:\n        /* \"#utility.yul\":2965:3081   */\n      pop\n      jump\t// out\n        /* \"#utility.yul\":3087:3220   */\n    tag_448:\n        /* \"#utility.yul\":3130:3135   */\n      0x00\n        /* \"#utility.yul\":3168:3174   */\n      dup2\n        /* \"#utility.yul\":3155:3175   */\n      calldataload\n        /* \"#utility.yul\":3146:3175   */\n      swap1\n      pop\n        /* \"#utility.yul\":3184:3214   */\n      tag_555\n        /* \"#utility.yul\":3208:3213   */\n      dup2\n        /* \"#utility.yul\":3184:3214   */\n      tag_447\n      jump\t// in\n    tag_555:\n        /* \"#utility.yul\":3087:3220   */\n      swap3\n      swap2\n      pop\n      pop\n      jump\t// out\n        /* \"#utility.yul\":3226:4613   */\n    tag_54:\n        /* \"#utility.yul\":3367:3373   */\n      0x00\n        /* \"#utility.yul\":3375:3381   */\n      dup1\n        /* \"#utility.yul\":3383:3389   */\n      0x00\n        /* \"#utility.yul\":3391:3397   */\n      dup1\n        /* \"#utility.yul\":3399:3405   */\n      0x00\n        /* \"#utility.yul\":3407:3413   */\n      dup1\n        /* \"#utility.yul\":3415:3421   */\n      0x00\n        /* \"#utility.yul\":3423:3429   */\n      dup1\n        /* \"#utility.yul\":3472:3475   */\n      0x0100\n        /* \"#utility.yul\":3460:3469   */\n      dup10\n        /* \"#utility.yul\":3451:3458   */\n      dup12\n        /* \"#utility.yul\":3447:3470   */\n      sub\n        /* \"#utility.yul\":3443:3476   */\n      slt\n        /* \"#utility.yul\":3440:3560   */\n      iszero\n      tag_557\n      jumpi\n        /* \"#utility.yul\":3479:3558   */\n      tag_558\n      tag_433\n      jump\t// in\n    tag_558:\n        /* \"#utility.yul\":3440:3560   */\n    tag_557:\n        /* \"#utility.yul\":3599:3600   */\n      0x00\n        /* \"#utility.yul\":3624:3699   */\n      tag_559\n        /* \"#utility.yul\":3691:3698   */\n      dup12\n        /* \"#utility.yul\":3682:3688   */\n      dup3\n        /* \"#utility.yul\":3671:3680   */\n      dup13\n        /* \"#utility.yul\":3667:3689   */\n      add\n        /* \"#utility.yul\":3624:3699   */\n      tag_442\n      jump\t// in\n    tag_559:\n        /* \"#utility.yul\":3614:3699   */\n      swap9\n      pop\n        /* \"#utility.yul\":3570:3709   */\n      pop\n        /* \"#utility.yul\":3748:3750   */\n      0x20\n        /* \"#utility.yul\":3774:3827   */\n      tag_560\n        /* \"#utility.yul\":3819:3826   */\n      dup12\n        /* \"#utility.yul\":3810:3816   */\n      dup3\n        /* \"#utility.yul\":3799:3808   */\n      dup13\n        /* \"#utility.yul\":3795:3817   */\n      add\n        /* \"#utility.yul\":3774:3827   */\n      tag_446\n      jump\t// in\n    tag_560:\n        /* \"#utility.yul\":3764:3827   */\n      swap8\n      pop\n        /* \"#utility.yul\":3719:3837   */\n      pop\n        /* \"#utility.yul\":3876:3878   */\n      0x40\n        /* \"#utility.yul\":3902:3955   */\n      tag_561\n        /* \"#utility.yul\":3947:3954   */\n      dup12\n        /* \"#utility.yul\":3938:3944   */\n      dup3\n        /* \"#utility.yul\":3927:3936   */\n      dup13\n        /* \"#utility.yul\":3923:3945   */\n      add\n        /* \"#utility.yul\":3902:3955   */\n      tag_446\n      jump\t// in\n    tag_561:\n        /* \"#utility.yul\":3892:3955   */\n      swap7\n      pop\n        /* \"#utility.yul\":3847:3965   */\n      pop\n        /* \"#utility.yul\":4004:4006   */\n      0x60\n        /* \"#utility.yul\":4030:4083   */\n      tag_562\n        /* \"#utility.yul\":4075:4082   */\n      dup12\n        /* \"#utility.yul\":4066:4072   */\n      dup3\n        /* \"#utility.yul\":4055:4064   */\n      dup13\n        /* \"#utility.yul\":4051:4073   */\n      add\n        /* \"#utility.yul\":4030:4083   */\n      tag_437\n      jump\t// in\n    tag_562:\n        /* \"#utility.yul\":4020:4083   */\n      swap6\n      pop\n        /* \"#utility.yul\":3975:4093   */\n      pop\n        /* \"#utility.yul\":4132:4135   */\n      0x80\n        /* \"#utility.yul\":4159:4212   */\n      tag_563\n        /* \"#utility.yul\":4204:4211   */\n      dup12\n        /* \"#utility.yul\":4195:4201   */\n      dup3\n        /* \"#utility.yul\":4184:4193   */\n      dup13\n        /* \"#utility.yul\":4180:4202   */\n      add\n        /* \"#utility.yul\":4159:4212   */\n      tag_437\n      jump\t// in\n    tag_563:\n        /* \"#utility.yul\":4149:4212   */\n      swap5\n      pop\n        /* \"#utility.yul\":4103:4222   */\n      pop\n        /* \"#utility.yul\":4261:4264   */\n      0xa0\n        /* \"#utility.yul\":4288:4341   */\n      tag_564\n        /* \"#utility.yul\":4333:4340   */\n      dup12\n        /* \"#utility.yul\":4324:4330   */\n      dup3\n        /* \"#utility.yul\":4313:4322   */\n      dup13\n        /* \"#utility.yul\":4309:4331   */\n      add\n        /* \"#utility.yul\":4288:4341   */\n      tag_437\n      jump\t// in\n    tag_564:\n        /* \"#utility.yul\":4278:4341   */\n      swap4\n      pop\n        /* \"#utility.yul\":4232:4351   */\n      pop\n        /* \"#utility.yul\":4390:4393   */\n      0xc0\n        /* \"#utility.yul\":4417:4467   */\n      tag_565\n        /* \"#utility.yul\":4459:4466   */\n      dup12\n        /* \"#utility.yul\":4450:4456   */\n      dup3\n        /* \"#utility.yul\":4439:4448   */\n      dup13\n        /* \"#utility.yul\":4435:4457   */\n      add\n        /* \"#utility.yul\":4417:4467   */\n      tag_448\n      jump\t// in\n    tag_565:\n        /* \"#utility.yul\":4407:4467   */\n      swap3\n      pop\n        /* \"#utility.yul\":4361:4477   */\n      pop\n        /* \"#utility.yul\":4516:4519   */\n      0xe0\n        /* \"#utility.yul\":4543:4596   */\n      tag_566\n        /* \"#utility.yul\":4588:4595   */\n      dup12\n        /* \"#utility.yul\":4579:4585   */\n      dup3\n        /* \"#utility.yul\":4568:4577   */\n      dup13\n        /* \"#utility.yul\":4564:4586   */\n      add\n        /* \"#utility.yul\":4543:4596   */\n      tag_446\n      jump\t// in\n    tag_566:\n        /* \"#utility.yul\":4533:4596   */\n      swap2\n      pop\n        /* \"#utility.yul\":4487:4606   */\n      pop\n        /* \"#utility.yul\":3226:4613   */\n      swap3\n      swap6\n      swap9\n      pop\n      swap3\n      swap6\n      swap9\n      swap1\n      swap4\n      swap7\n      pop\n      jump\t// out\n        /* \"#utility.yul\":4619:4799   */\n    tag_114:\n        /* \"#utility.yul\":4667:4744   */\n      0x4e487b7100000000000000000000000000000000000000000000000000000000\n        /* \"#utility.yul\":4664:4665   */\n      0x00\n        /* \"#utility.yul\":4657:4745   */\n      mstore\n        /* \"#utility.yul\":4764:4768   */\n      0x21\n        /* \"#utility.yul\":4761:4762   */\n      0x04\n        /* \"#utility.yul\":4754:4769   */\n      mstore\n        /* \"#utility.yul\":4788:4792   */\n      0x24\n        /* \"#utility.yul\":4785:4786   */\n      0x00\n        /* \"#utility.yul\":4778:4793   */\n      revert\n        /* \"#utility.yul\":4805:4932   */\n    tag_449:\n        /* \"#utility.yul\":4900:4901   */\n      0x03\n        /* \"#utility.yul\":4893:4898   */\n      dup2\n        /* \"#utility.yul\":4890:4902   */\n      lt\n        /* \"#utility.yul\":4880:4926   */\n      tag_569\n      jumpi\n        /* \"#utility.yul\":4906:4924   */\n      tag_570\n      tag_114\n      jump\t// in\n    tag_570:\n        /* \"#utility.yul\":4880:4926   */\n    tag_569:\n        /* \"#utility.yul\":4805:4932   */\n      pop\n      jump\t// out\n        /* \"#utility.yul\":4938:5093   */\n    tag_450:\n        /* \"#utility.yul\":4997:5004   */\n      0x00\n        /* \"#utility.yul\":5026:5031   */\n      dup2\n        /* \"#utility.yul\":5015:5031   */\n      swap1\n      pop\n        /* \"#utility.yul\":5032:5087   */\n      tag_572\n        /* \"#utility.yul\":5081:5086   */\n      dup3\n        /* \"#utility.yul\":5032:5087   */\n      tag_449\n      jump\t// in\n    tag_572:\n        /* \"#utility.yul\":4938:5093   */\n      swap2\n      swap1\n      pop\n      jump\t// out\n        /* \"#utility.yul\":5099:5254   */\n    tag_451:\n        /* \"#utility.yul\":5169:5178   */\n      0x00\n        /* \"#utility.yul\":5202:5248   */\n      tag_574\n        /* \"#utility.yul\":5242:5247   */\n      dup3\n        /* \"#utility.yul\":5202:5248   */\n      tag_450\n      jump\t// in\n    tag_574:\n        /* \"#utility.yul\":5189:5248   */\n      swap1\n      pop\n        /* \"#utility.yul\":5099:5254   */\n      swap2\n      swap1\n      pop\n      jump\t// out\n        /* \"#utility.yul\":5260:5431   */\n    tag_452:\n        /* \"#utility.yul\":5367:5424   */\n      tag_576\n        /* \"#utility.yul\":5418:5423   */\n      dup2\n        /* \"#utility.yul\":5367:5424   */\n      tag_451\n      jump\t// in\n    tag_576:\n        /* \"#utility.yul\":5362:5365   */\n      dup3\n        /* \"#utility.yul\":5355:5425   */\n      mstore\n        /* \"#utility.yul\":5260:5431   */\n      pop\n      pop\n      jump\t// out\n        /* \"#utility.yul\":5437:5699   */\n    tag_64:\n        /* \"#utility.yul\":5550:5554   */\n      0x00\n        /* \"#utility.yul\":5588:5590   */\n      0x20\n        /* \"#utility.yul\":5577:5586   */\n      dup3\n        /* \"#utility.yul\":5573:5591   */\n      add\n        /* \"#utility.yul\":5565:5591   */\n      swap1\n      pop\n        /* \"#utility.yul\":5601:5692   */\n      tag_578\n        /* \"#utility.yul\":5689:5690   */\n      0x00\n        /* \"#utility.yul\":5678:5687   */\n      dup4\n        /* \"#utility.yul\":5674:5691   */\n      add\n        /* \"#utility.yul\":5665:5671   */\n      dup5\n        /* \"#utility.yul\":5601:5692   */\n      tag_452\n      jump\t// in\n    tag_578:\n        /* \"#utility.yul\":5437:5699   */\n      swap3\n      swap2\n      pop\n      pop\n      jump\t// out\n        /* \"#utility.yul\":5705:5823   */\n    tag_453:\n        /* \"#utility.yul\":5792:5816   */\n      tag_580\n        /* \"#utility.yul\":5810:5815   */\n      dup2\n        /* \"#utility.yul\":5792:5816   */\n      tag_444\n      jump\t// in\n    tag_580:\n        /* \"#utility.yul\":5787:5790   */\n      dup3\n        /* \"#utility.yul\":5780:5817   */\n      mstore\n        /* \"#utility.yul\":5705:5823   */\n      pop\n      pop\n      jump\t// out\n        /* \"#utility.yul\":5829:6051   */\n    tag_69:\n        /* \"#utility.yul\":5922:5926   */\n      0x00\n        /* \"#utility.yul\":5960:5962   */\n      0x20\n        /* \"#utility.yul\":5949:5958   */\n      dup3\n        /* \"#utility.yul\":5945:5963   */\n      add\n        /* \"#utility.yul\":5937:5963   */\n      swap1\n      pop\n        /* \"#utility.yul\":5973:6044   */\n      tag_582\n        /* \"#utility.yul\":6041:6042   */\n      0x00\n        /* \"#utility.yul\":6030:6039   */\n      dup4\n        /* \"#utility.yul\":6026:6043   */\n      add\n        /* \"#utility.yul\":6017:6023   */\n      dup5\n        /* \"#utility.yul\":5973:6044   */\n      tag_453\n      jump\t// in\n    tag_582:\n        /* \"#utility.yul\":5829:6051   */\n      swap3\n      swap2\n      pop\n      pop\n      jump\t// out\n        /* \"#utility.yul\":6057:6389   */\n    tag_74:\n        /* \"#utility.yul\":6178:6182   */\n      0x00\n        /* \"#utility.yul\":6216:6218   */\n      0x40\n        /* \"#utility.yul\":6205:6214   */\n      dup3\n        /* \"#utility.yul\":6201:6219   */\n      add\n        /* \"#utility.yul\":6193:6219   */\n      swap1\n      pop\n        /* \"#utility.yul\":6229:6300   */\n      tag_584\n        /* \"#utility.yul\":6297:6298   */\n      0x00\n        /* \"#utility.yul\":6286:6295   */\n      dup4\n        /* \"#utility.yul\":6282:6299   */\n      add\n        /* \"#utility.yul\":6273:6279   */\n      dup6\n        /* \"#utility.yul\":6229:6300   */\n      tag_453\n      jump\t// in\n    tag_584:\n        /* \"#utility.yul\":6310:6382   */\n      tag_585\n        /* \"#utility.yul\":6378:6380   */\n      0x20\n        /* \"#utility.yul\":6367:6376   */\n      dup4\n        /* \"#utility.yul\":6363:6381   */\n      add\n        /* \"#utility.yul\":6354:6360   */\n      dup5\n        /* \"#utility.yul\":6310:6382   */\n      tag_453\n      jump\t// in\n    tag_585:\n        /* \"#utility.yul\":6057:6389   */\n      swap4\n      swap3\n      pop\n      pop\n      pop\n      jump\t// out\n        /* \"#utility.yul\":6395:6509   */\n    tag_454:\n        /* \"#utility.yul\":6462:6468   */\n      0x00\n        /* \"#utility.yul\":6496:6501   */\n      dup2\n        /* \"#utility.yul\":6490:6502   */\n      mload\n        /* \"#utility.yul\":6480:6502   */\n      swap1\n      pop\n        /* \"#utility.yul\":6395:6509   */\n      swap2\n      swap1\n      pop\n      jump\t// out\n        /* \"#utility.yul\":6515:6699   */\n    tag_455:\n        /* \"#utility.yul\":6614:6625   */\n      0x00\n        /* \"#utility.yul\":6648:6654   */\n      dup3\n        /* \"#utility.yul\":6643:6646   */\n      dup3\n        /* \"#utility.yul\":6636:6655   */\n      mstore\n        /* \"#utility.yul\":6688:6692   */\n      0x20\n        /* \"#utility.yul\":6683:6686   */\n      dup3\n        /* \"#utility.yul\":6679:6693   */\n      add\n        /* \"#utility.yul\":6664:6693   */\n      swap1\n      pop\n        /* \"#utility.yul\":6515:6699   */\n      swap3\n      swap2\n      pop\n      pop\n      jump\t// out\n        /* \"#utility.yul\":6705:6837   */\n    tag_456:\n        /* \"#utility.yul\":6772:6776   */\n      0x00\n        /* \"#utility.yul\":6795:6798   */\n      dup2\n        /* \"#utility.yul\":6787:6798   */\n      swap1\n      pop\n        /* \"#utility.yul\":6825:6829   */\n      0x20\n        /* \"#utility.yul\":6820:6823   */\n      dup3\n        /* \"#utility.yul\":6816:6830   */\n      add\n        /* \"#utility.yul\":6808:6830   */\n      swap1\n      pop\n        /* \"#utility.yul\":6705:6837   */\n      swap2\n      swap1\n      pop\n      jump\t// out\n        /* \"#utility.yul\":6843:6951   */\n    tag_457:\n        /* \"#utility.yul\":6920:6944   */\n      tag_590\n        /* \"#utility.yul\":6938:6943   */\n      dup2\n        /* \"#utility.yul\":6920:6944   */\n      tag_444\n      jump\t// in\n    tag_590:\n        /* \"#utility.yul\":6915:6918   */\n      dup3\n        /* \"#utility.yul\":6908:6945   */\n      mstore\n        /* \"#utility.yul\":6843:6951   */\n      pop\n      pop\n      jump\t// out\n        /* \"#utility.yul\":6957:7136   */\n    tag_458:\n        /* \"#utility.yul\":7026:7036   */\n      0x00\n        /* \"#utility.yul\":7047:7093   */\n      tag_592\n        /* \"#utility.yul\":7089:7092   */\n      dup4\n        /* \"#utility.yul\":7081:7087   */\n      dup4\n        /* \"#utility.yul\":7047:7093   */\n      tag_457\n      jump\t// in\n    tag_592:\n        /* \"#utility.yul\":7125:7129   */\n      0x20\n        /* \"#utility.yul\":7120:7123   */\n      dup4\n        /* \"#utility.yul\":7116:7130   */\n      add\n        /* \"#utility.yul\":7102:7130   */\n      swap1\n      pop\n        /* \"#utility.yul\":6957:7136   */\n      swap3\n      swap2\n      pop\n      pop\n      jump\t// out\n        /* \"#utility.yul\":7142:7255   */\n    tag_459:\n        /* \"#utility.yul\":7212:7216   */\n      0x00\n        /* \"#utility.yul\":7244:7248   */\n      0x20\n        /* \"#utility.yul\":7239:7242   */\n      dup3\n        /* \"#utility.yul\":7235:7249   */\n      add\n        /* \"#utility.yul\":7227:7249   */\n      swap1\n      pop\n        /* \"#utility.yul\":7142:7255   */\n      swap2\n      swap1\n      pop\n      jump\t// out\n        /* \"#utility.yul\":7291:8023   */\n    tag_460:\n        /* \"#utility.yul\":7410:7413   */\n      0x00\n        /* \"#utility.yul\":7439:7493   */\n      tag_595\n        /* \"#utility.yul\":7487:7492   */\n      dup3\n        /* \"#utility.yul\":7439:7493   */\n      tag_454\n      jump\t// in\n    tag_595:\n        /* \"#utility.yul\":7509:7595   */\n      tag_596\n        /* \"#utility.yul\":7588:7594   */\n      dup2\n        /* \"#utility.yul\":7583:7586   */\n      dup6\n        /* \"#utility.yul\":7509:7595   */\n      tag_455\n      jump\t// in\n    tag_596:\n        /* \"#utility.yul\":7502:7595   */\n      swap4\n      pop\n        /* \"#utility.yul\":7619:7675   */\n      tag_597\n        /* \"#utility.yul\":7669:7674   */\n      dup4\n        /* \"#utility.yul\":7619:7675   */\n      tag_456\n      jump\t// in\n    tag_597:\n        /* \"#utility.yul\":7698:7705   */\n      dup1\n        /* \"#utility.yul\":7729:7730   */\n      0x00\n        /* \"#utility.yul\":7714:7998   */\n    tag_598:\n        /* \"#utility.yul\":7739:7745   */\n      dup4\n        /* \"#utility.yul\":7736:7737   */\n      dup2\n        /* \"#utility.yul\":7733:7746   */\n      lt\n        /* \"#utility.yul\":7714:7998   */\n      iszero\n      tag_600\n      jumpi\n        /* \"#utility.yul\":7815:7821   */\n      dup2\n        /* \"#utility.yul\":7809:7822   */\n      mload\n        /* \"#utility.yul\":7842:7905   */\n      tag_601\n        /* \"#utility.yul\":7901:7904   */\n      dup9\n        /* \"#utility.yul\":7886:7899   */\n      dup3\n        /* \"#utility.yul\":7842:7905   */\n      tag_458\n      jump\t// in\n    tag_601:\n        /* \"#utility.yul\":7835:7905   */\n      swap8\n      pop\n        /* \"#utility.yul\":7928:7988   */\n      tag_602\n        /* \"#utility.yul\":7981:7987   */\n      dup4\n        /* \"#utility.yul\":7928:7988   */\n      tag_459\n      jump\t// in\n    tag_602:\n        /* \"#utility.yul\":7918:7988   */\n      swap3\n      pop\n        /* \"#utility.yul\":7774:7998   */\n      pop\n        /* \"#utility.yul\":7761:7762   */\n      0x01\n        /* \"#utility.yul\":7758:7759   */\n      dup2\n        /* \"#utility.yul\":7754:7763   */\n      add\n        /* \"#utility.yul\":7749:7763   */\n      swap1\n      pop\n        /* \"#utility.yul\":7714:7998   */\n      jump(tag_598)\n    tag_600:\n        /* \"#utility.yul\":7718:7732   */\n      pop\n        /* \"#utility.yul\":8014:8017   */\n      dup6\n        /* \"#utility.yul\":8007:8017   */\n      swap4\n      pop\n        /* \"#utility.yul\":7415:8023   */\n      pop\n      pop\n      pop\n        /* \"#utility.yul\":7291:8023   */\n      swap3\n      swap2\n      pop\n      pop\n      jump\t// out\n        /* \"#utility.yul\":8029:8143   */\n    tag_461:\n        /* \"#utility.yul\":8096:8102   */\n      0x00\n        /* \"#utility.yul\":8130:8135   */\n      dup2\n        /* \"#utility.yul\":8124:8136   */\n      mload\n        /* \"#utility.yul\":8114:8136   */\n      swap1\n      pop\n        /* \"#utility.yul\":8029:8143   */\n      swap2\n      swap1\n      pop\n      jump\t// out\n        /* \"#utility.yul\":8149:8333   */\n    tag_462:\n        /* \"#utility.yul\":8248:8259   */\n      0x00\n        /* \"#utility.yul\":8282:8288   */\n      dup3\n        /* \"#utility.yul\":8277:8280   */\n      dup3\n        /* \"#utility.yul\":8270:8289   */\n      mstore\n        /* \"#utility.yul\":8322:8326   */\n      0x20\n        /* \"#utility.yul\":8317:8320   */\n      dup3\n        /* \"#utility.yul\":8313:8327   */\n      add\n        /* \"#utility.yul\":8298:8327   */\n      swap1\n      pop\n        /* \"#utility.yul\":8149:8333   */\n      swap3\n      swap2\n      pop\n      pop\n      jump\t// out\n        /* \"#utility.yul\":8339:8471   */\n    tag_463:\n        /* \"#utility.yul\":8406:8410   */\n      0x00\n        /* \"#utility.yul\":8429:8432   */\n      dup2\n        /* \"#utility.yul\":8421:8432   */\n      swap1\n      pop\n        /* \"#utility.yul\":8459:8463   */\n      0x20\n        /* \"#utility.yul\":8454:8457   */\n      dup3\n        /* \"#utility.yul\":8450:8464   */\n      add\n        /* \"#utility.yul\":8442:8464   */\n      swap1\n      pop\n        /* \"#utility.yul\":8339:8471   */\n      swap2\n      swap1\n      pop\n      jump\t// out\n        /* \"#utility.yul\":8477:8585   */\n    tag_464:\n        /* \"#utility.yul\":8554:8578   */\n      tag_607\n        /* \"#utility.yul\":8572:8577   */\n      dup2\n        /* \"#utility.yul\":8554:8578   */\n      tag_435\n      jump\t// in\n    tag_607:\n        /* \"#utility.yul\":8549:8552   */\n      dup3\n        /* \"#utility.yul\":8542:8579   */\n      mstore\n        /* \"#utility.yul\":8477:8585   */\n      pop\n      pop\n      jump\t// out\n        /* \"#utility.yul\":8591:8770   */\n    tag_465:\n        /* \"#utility.yul\":8660:8670   */\n      0x00\n        /* \"#utility.yul\":8681:8727   */\n      tag_609\n        /* \"#utility.yul\":8723:8726   */\n      dup4\n        /* \"#utility.yul\":8715:8721   */\n      dup4\n        /* \"#utility.yul\":8681:8727   */\n      tag_464\n      jump\t// in\n    tag_609:\n        /* \"#utility.yul\":8759:8763   */\n      0x20\n        /* \"#utility.yul\":8754:8757   */\n      dup4\n        /* \"#utility.yul\":8750:8764   */\n      add\n        /* \"#utility.yul\":8736:8764   */\n      swap1\n      pop\n        /* \"#utility.yul\":8591:8770   */\n      swap3\n      swap2\n      pop\n      pop\n      jump\t// out\n        /* \"#utility.yul\":8776:8889   */\n    tag_466:\n        /* \"#utility.yul\":8846:8850   */\n      0x00\n        /* \"#utility.yul\":8878:8882   */\n      0x20\n        /* \"#utility.yul\":8873:8876   */\n      dup3\n        /* \"#utility.yul\":8869:8883   */\n      add\n        /* \"#utility.yul\":8861:8883   */\n      swap1\n      pop\n        /* \"#utility.yul\":8776:8889   */\n      swap2\n      swap1\n      pop\n      jump\t// out\n        /* \"#utility.yul\":8925:9657   */\n    tag_467:\n        /* \"#utility.yul\":9044:9047   */\n      0x00\n        /* \"#utility.yul\":9073:9127   */\n      tag_612\n        /* \"#utility.yul\":9121:9126   */\n      dup3\n        /* \"#utility.yul\":9073:9127   */\n      tag_461\n      jump\t// in\n    tag_612:\n        /* \"#utility.yul\":9143:9229   */\n      tag_613\n        /* \"#utility.yul\":9222:9228   */\n      dup2\n        /* \"#utility.yul\":9217:9220   */\n      dup6\n        /* \"#utility.yul\":9143:9229   */\n      tag_462\n      jump\t// in\n    tag_613:\n        /* \"#utility.yul\":9136:9229   */\n      swap4\n      pop\n        /* \"#utility.yul\":9253:9309   */\n      tag_614\n        /* \"#utility.yul\":9303:9308   */\n      dup4\n        /* \"#utility.yul\":9253:9309   */\n      tag_463\n      jump\t// in\n    tag_614:\n        /* \"#utility.yul\":9332:9339   */\n      dup1\n        /* \"#utility.yul\":9363:9364   */\n      0x00\n        /* \"#utility.yul\":9348:9632   */\n    tag_615:\n        /* \"#utility.yul\":9373:9379   */\n      dup4\n        /* \"#utility.yul\":9370:9371   */\n      dup2\n        /* \"#utility.yul\":9367:9380   */\n      lt\n        /* \"#utility.yul\":9348:9632   */\n      iszero\n      tag_617\n      jumpi\n        /* \"#utility.yul\":9449:9455   */\n      dup2\n        /* \"#utility.yul\":9443:9456   */\n      mload\n        /* \"#utility.yul\":9476:9539   */\n      tag_618\n        /* \"#utility.yul\":9535:9538   */\n      dup9\n        /* \"#utility.yul\":9520:9533   */\n      dup3\n        /* \"#utility.yul\":9476:9539   */\n      tag_465\n      jump\t// in\n    tag_618:\n        /* \"#utility.yul\":9469:9539   */\n      swap8\n      pop\n        /* \"#utility.yul\":9562:9622   */\n      tag_619\n        /* \"#utility.yul\":9615:9621   */\n      dup4\n        /* \"#utility.yul\":9562:9622   */\n      tag_466\n      jump\t// in\n    tag_619:\n        /* \"#utility.yul\":9552:9622   */\n      swap3\n      pop\n        /* \"#utility.yul\":9408:9632   */\n      pop\n        /* \"#utility.yul\":9395:9396   */\n      0x01\n        /* \"#utility.yul\":9392:9393   */\n      dup2\n        /* \"#utility.yul\":9388:9397   */\n      add\n        /* \"#utility.yul\":9383:9397   */\n      swap1\n      pop\n        /* \"#utility.yul\":9348:9632   */\n      jump(tag_615)\n    tag_617:\n        /* \"#utility.yul\":9352:9366   */\n      pop\n        /* \"#utility.yul\":9648:9651   */\n      dup6\n        /* \"#utility.yul\":9641:9651   */\n      swap4\n      pop\n        /* \"#utility.yul\":9049:9657   */\n      pop\n      pop\n      pop\n        /* \"#utility.yul\":8925:9657   */\n      swap3\n      swap2\n      pop\n      pop\n      jump\t// out\n        /* \"#utility.yul\":9663:10558   */\n    tag_88:\n        /* \"#utility.yul\":9962:9966   */\n      0x00\n        /* \"#utility.yul\":10000:10002   */\n      0x60\n        /* \"#utility.yul\":9989:9998   */\n      dup3\n        /* \"#utility.yul\":9985:10003   */\n      add\n        /* \"#utility.yul\":9977:10003   */\n      swap1\n      pop\n        /* \"#utility.yul\":10049:10058   */\n      dup2\n        /* \"#utility.yul\":10043:10047   */\n      dup2\n        /* \"#utility.yul\":10039:10059   */\n      sub\n        /* \"#utility.yul\":10035:10036   */\n      0x00\n        /* \"#utility.yul\":10024:10033   */\n      dup4\n        /* \"#utility.yul\":10020:10037   */\n      add\n        /* \"#utility.yul\":10013:10060   */\n      mstore\n        /* \"#utility.yul\":10077:10185   */\n      tag_621\n        /* \"#utility.yul\":10180:10184   */\n      dup2\n        /* \"#utility.yul\":10171:10177   */\n      dup7\n        /* \"#utility.yul\":10077:10185   */\n      tag_460\n      jump\t// in\n    tag_621:\n        /* \"#utility.yul\":10069:10185   */\n      swap1\n      pop\n        /* \"#utility.yul\":10232:10241   */\n      dup2\n        /* \"#utility.yul\":10226:10230   */\n      dup2\n        /* \"#utility.yul\":10222:10242   */\n      sub\n        /* \"#utility.yul\":10217:10219   */\n      0x20\n        /* \"#utility.yul\":10206:10215   */\n      dup4\n        /* \"#utility.yul\":10202:10220   */\n      add\n        /* \"#utility.yul\":10195:10243   */\n      mstore\n        /* \"#utility.yul\":10260:10368   */\n      tag_622\n        /* \"#utility.yul\":10363:10367   */\n      dup2\n        /* \"#utility.yul\":10354:10360   */\n      dup6\n        /* \"#utility.yul\":10260:10368   */\n      tag_467\n      jump\t// in\n    tag_622:\n        /* \"#utility.yul\":10252:10368   */\n      swap1\n      pop\n        /* \"#utility.yul\":10415:10424   */\n      dup2\n        /* \"#utility.yul\":10409:10413   */\n      dup2\n        /* \"#utility.yul\":10405:10425   */\n      sub\n        /* \"#utility.yul\":10400:10402   */\n      0x40\n        /* \"#utility.yul\":10389:10398   */\n      dup4\n        /* \"#utility.yul\":10385:10403   */\n      add\n        /* \"#utility.yul\":10378:10426   */\n      mstore\n        /* \"#utility.yul\":10443:10551   */\n      tag_623\n        /* \"#utility.yul\":10546:10550   */\n      dup2\n        /* \"#utility.yul\":10537:10543   */\n      dup5\n        /* \"#utility.yul\":10443:10551   */\n      tag_467\n      jump\t// in\n    tag_623:\n        /* \"#utility.yul\":10435:10551   */\n      swap1\n      pop\n        /* \"#utility.yul\":9663:10558   */\n      swap5\n      swap4\n      pop\n      pop\n      pop\n      pop\n      jump\t// out\n        /* \"#utility.yul\":10564:10893   */\n    tag_92:\n        /* \"#utility.yul\":10623:10629   */\n      0x00\n        /* \"#utility.yul\":10672:10674   */\n      0x20\n        /* \"#utility.yul\":10660:10669   */\n      dup3\n        /* \"#utility.yul\":10651:10658   */\n      dup5\n        /* \"#utility.yul\":10647:10670   */\n      sub\n        /* \"#utility.yul\":10643:10675   */\n      slt\n        /* \"#utility.yul\":10640:10759   */\n      iszero\n      tag_625\n      jumpi\n        /* \"#utility.yul\":10678:10757   */\n      tag_626\n      tag_433\n      jump\t// in\n    tag_626:\n        /* \"#utility.yul\":10640:10759   */\n    tag_625:\n        /* \"#utility.yul\":10798:10799   */\n      0x00\n        /* \"#utility.yul\":10823:10876   */\n      tag_627\n        /* \"#utility.yul\":10868:10875   */\n      dup5\n        /* \"#utility.yul\":10859:10865   */\n      dup3\n        /* \"#utility.yul\":10848:10857   */\n      dup6\n        /* \"#utility.yul\":10844:10866   */\n      add\n        /* \"#utility.yul\":10823:10876   */\n      tag_446\n      jump\t// in\n    tag_627:\n        /* \"#utility.yul\":10813:10876   */\n      swap2\n      pop\n        /* \"#utility.yul\":10769:10886   */\n      pop\n        /* \"#utility.yul\":10564:10893   */\n      swap3\n      swap2\n      pop\n      pop\n      jump\t// out\n        /* \"#utility.yul\":10899:11068   */\n    tag_468:\n        /* \"#utility.yul\":10983:10994   */\n      0x00\n        /* \"#utility.yul\":11017:11023   */\n      dup3\n        /* \"#utility.yul\":11012:11015   */\n      dup3\n        /* \"#utility.yul\":11005:11024   */\n      mstore\n        /* \"#utility.yul\":11057:11061   */\n      0x20\n        /* \"#utility.yul\":11052:11055   */\n      dup3\n        /* \"#utility.yul\":11048:11062   */\n      add\n        /* \"#utility.yul\":11033:11062   */\n      swap1\n      pop\n        /* \"#utility.yul\":10899:11068   */\n      swap3\n      swap2\n      pop\n      pop\n      jump\t// out\n        /* \"#utility.yul\":11074:11246   */\n    tag_469:\n        /* \"#utility.yul\":11214:11238   */\n      0x537943726f774261727465723a20494e41435449564500000000000000000000\n        /* \"#utility.yul\":11210:11211   */\n      0x00\n        /* \"#utility.yul\":11202:11208   */\n      dup3\n        /* \"#utility.yul\":11198:11212   */\n      add\n        /* \"#utility.yul\":11191:11239   */\n      mstore\n        /* \"#utility.yul\":11074:11246   */\n      pop\n      jump\t// out\n        /* \"#utility.yul\":11252:11618   */\n    tag_470:\n        /* \"#utility.yul\":11394:11397   */\n      0x00\n        /* \"#utility.yul\":11415:11482   */\n      tag_631\n        /* \"#utility.yul\":11479:11481   */\n      0x16\n        /* \"#utility.yul\":11474:11477   */\n      dup4\n        /* \"#utility.yul\":11415:11482   */\n      tag_468\n      jump\t// in\n    tag_631:\n        /* \"#utility.yul\":11408:11482   */\n      swap2\n      pop\n        /* \"#utility.yul\":11491:11584   */\n      tag_632\n        /* \"#utility.yul\":11580:11583   */\n      dup3\n        /* \"#utility.yul\":11491:11584   */\n      tag_469\n      jump\t// in\n    tag_632:\n        /* \"#utility.yul\":11609:11611   */\n      0x20\n        /* \"#utility.yul\":11604:11607   */\n      dup3\n        /* \"#utility.yul\":11600:11612   */\n      add\n        /* \"#utility.yul\":11593:11612   */\n      swap1\n      pop\n        /* \"#utility.yul\":11252:11618   */\n      swap2\n      swap1\n      pop\n      jump\t// out\n        /* \"#utility.yul\":11624:12043   */\n    tag_98:\n        /* \"#utility.yul\":11790:11794   */\n      0x00\n        /* \"#utility.yul\":11828:11830   */\n      0x20\n        /* \"#utility.yul\":11817:11826   */\n      dup3\n        /* \"#utility.yul\":11813:11831   */\n      add\n        /* \"#utility.yul\":11805:11831   */\n      swap1\n      pop\n        /* \"#utility.yul\":11877:11886   */\n      dup2\n        /* \"#utility.yul\":11871:11875   */\n      dup2\n        /* \"#utility.yul\":11867:11887   */\n      sub\n        /* \"#utility.yul\":11863:11864   */\n      0x00\n        /* \"#utility.yul\":11852:11861   */\n      dup4\n        /* \"#utility.yul\":11848:11865   */\n      add\n        /* \"#utility.yul\":11841:11888   */\n      mstore\n        /* \"#utility.yul\":11905:12036   */\n      tag_634\n        /* \"#utility.yul\":12031:12035   */\n      dup2\n        /* \"#utility.yul\":11905:12036   */\n      tag_470\n      jump\t// in\n    tag_634:\n        /* \"#utility.yul\":11897:12036   */\n      swap1\n      pop\n        /* \"#utility.yul\":11624:12043   */\n      swap2\n      swap1\n      pop\n      jump\t// out\n        /* \"#utility.yul\":12049:12228   */\n    tag_471:\n        /* \"#utility.yul\":12189:12220   */\n      0x537943726f774261727465723a204e4f545f494e495449414c495a4544000000\n        /* \"#utility.yul\":12185:12186   */\n      0x00\n        /* \"#utility.yul\":12177:12183   */\n      dup3\n        /* \"#utility.yul\":12173:12187   */\n      add\n        /* \"#utility.yul\":12166:12221   */\n      mstore\n        /* \"#utility.yul\":12049:12228   */\n      pop\n      jump\t// out\n        /* \"#utility.yul\":12234:12600   */\n    tag_472:\n        /* \"#utility.yul\":12376:12379   */\n      0x00\n        /* \"#utility.yul\":12397:12464   */\n      tag_637\n        /* \"#utility.yul\":12461:12463   */\n      0x1d\n        /* \"#utility.yul\":12456:12459   */\n      dup4\n        /* \"#utility.yul\":12397:12464   */\n      tag_468\n      jump\t// in\n    tag_637:\n        /* \"#utility.yul\":12390:12464   */\n      swap2\n      pop\n        /* \"#utility.yul\":12473:12566   */\n      tag_638\n        /* \"#utility.yul\":12562:12565   */\n      dup3\n        /* \"#utility.yul\":12473:12566   */\n      tag_471\n      jump\t// in\n    tag_638:\n        /* \"#utility.yul\":12591:12593   */\n      0x20\n        /* \"#utility.yul\":12586:12589   */\n      dup3\n        /* \"#utility.yul\":12582:12594   */\n      add\n        /* \"#utility.yul\":12575:12594   */\n      swap1\n      pop\n        /* \"#utility.yul\":12234:12600   */\n      swap2\n      swap1\n      pop\n      jump\t// out\n        /* \"#utility.yul\":12606:13025   */\n    tag_102:\n        /* \"#utility.yul\":12772:12776   */\n      0x00\n        /* \"#utility.yul\":12810:12812   */\n      0x20\n        /* \"#utility.yul\":12799:12808   */\n      dup3\n        /* \"#utility.yul\":12795:12813   */\n      add\n        /* \"#utility.yul\":12787:12813   */\n      swap1\n      pop\n        /* \"#utility.yul\":12859:12868   */\n      dup2\n        /* \"#utility.yul\":12853:12857   */\n      dup2\n        /* \"#utility.yul\":12849:12869   */\n      sub\n        /* \"#utility.yul\":12845:12846   */\n      0x00\n        /* \"#utility.yul\":12834:12843   */\n      dup4\n        /* \"#utility.yul\":12830:12847   */\n      add\n        /* \"#utility.yul\":12823:12870   */\n      mstore\n        /* \"#utility.yul\":12887:13018   */\n      tag_640\n        /* \"#utility.yul\":13013:13017   */\n      dup2\n        /* \"#utility.yul\":12887:13018   */\n      tag_472\n      jump\t// in\n    tag_640:\n        /* \"#utility.yul\":12879:13018   */\n      swap1\n      pop\n        /* \"#utility.yul\":12606:13025   */\n      swap2\n      swap1\n      pop\n      jump\t// out\n        /* \"#utility.yul\":13031:13168   */\n    tag_473:\n        /* \"#utility.yul\":13085:13090   */\n      0x00\n        /* \"#utility.yul\":13116:13122   */\n      dup2\n        /* \"#utility.yul\":13110:13123   */\n      mload\n        /* \"#utility.yul\":13101:13123   */\n      swap1\n      pop\n        /* \"#utility.yul\":13132:13162   */\n      tag_642\n        /* \"#utility.yul\":13156:13161   */\n      dup2\n        /* \"#utility.yul\":13132:13162   */\n      tag_447\n      jump\t// in\n    tag_642:\n        /* \"#utility.yul\":13031:13168   */\n      swap3\n      swap2\n      pop\n      pop\n      jump\t// out\n        /* \"#utility.yul\":13174:13519   */\n    tag_107:\n        /* \"#utility.yul\":13241:13247   */\n      0x00\n        /* \"#utility.yul\":13290:13292   */\n      0x20\n        /* \"#utility.yul\":13278:13287   */\n      dup3\n        /* \"#utility.yul\":13269:13276   */\n      dup5\n        /* \"#utility.yul\":13265:13288   */\n      sub\n        /* \"#utility.yul\":13261:13293   */\n      slt\n        /* \"#utility.yul\":13258:13377   */\n      iszero\n      tag_644\n      jumpi\n        /* \"#utility.yul\":13296:13375   */\n      tag_645\n      tag_433\n      jump\t// in\n    tag_645:\n        /* \"#utility.yul\":13258:13377   */\n    tag_644:\n        /* \"#utility.yul\":13416:13417   */\n      0x00\n        /* \"#utility.yul\":13441:13502   */\n      tag_646\n        /* \"#utility.yul\":13494:13501   */\n      dup5\n        /* \"#utility.yul\":13485:13491   */\n      dup3\n        /* \"#utility.yul\":13474:13483   */\n      dup6\n        /* \"#utility.yul\":13470:13492   */\n      add\n        /* \"#utility.yul\":13441:13502   */\n      tag_473\n      jump\t// in\n    tag_646:\n        /* \"#utility.yul\":13431:13502   */\n      swap2\n      pop\n        /* \"#utility.yul\":13387:13512   */\n      pop\n        /* \"#utility.yul\":13174:13519   */\n      swap3\n      swap2\n      pop\n      pop\n      jump\t// out\n        /* \"#utility.yul\":13525:13746   */\n    tag_474:\n        /* \"#utility.yul\":13665:13699   */\n      0x537943726f774261727465723a204261736520436f6e74726163742050617573\n        /* \"#utility.yul\":13661:13662   */\n      0x00\n        /* \"#utility.yul\":13653:13659   */\n      dup3\n        /* \"#utility.yul\":13649:13663   */\n      add\n        /* \"#utility.yul\":13642:13700   */\n      mstore\n        /* \"#utility.yul\":13734:13738   */\n      0x6564000000000000000000000000000000000000000000000000000000000000\n        /* \"#utility.yul\":13729:13731   */\n      0x20\n        /* \"#utility.yul\":13721:13727   */\n      dup3\n        /* \"#utility.yul\":13717:13732   */\n      add\n        /* \"#utility.yul\":13710:13739   */\n      mstore\n        /* \"#utility.yul\":13525:13746   */\n      pop\n      jump\t// out\n        /* \"#utility.yul\":13752:14118   */\n    tag_475:\n        /* \"#utility.yul\":13894:13897   */\n      0x00\n        /* \"#utility.yul\":13915:13982   */\n      tag_649\n        /* \"#utility.yul\":13979:13981   */\n      0x22\n        /* \"#utility.yul\":13974:13977   */\n      dup4\n        /* \"#utility.yul\":13915:13982   */\n      tag_468\n      jump\t// in\n    tag_649:\n        /* \"#utility.yul\":13908:13982   */\n      swap2\n      pop\n        /* \"#utility.yul\":13991:14084   */\n      tag_650\n        /* \"#utility.yul\":14080:14083   */\n      dup3\n        /* \"#utility.yul\":13991:14084   */\n      tag_474\n      jump\t// in\n    tag_650:\n        /* \"#utility.yul\":14109:14111   */\n      0x40\n        /* \"#utility.yul\":14104:14107   */\n      dup3\n        /* \"#utility.yul\":14100:14112   */\n      add\n        /* \"#utility.yul\":14093:14112   */\n      swap1\n      pop\n        /* \"#utility.yul\":13752:14118   */\n      swap2\n      swap1\n      pop\n      jump\t// out\n        /* \"#utility.yul\":14124:14543   */\n    tag_110:\n        /* \"#utility.yul\":14290:14294   */\n      0x00\n        /* \"#utility.yul\":14328:14330   */\n      0x20\n        /* \"#utility.yul\":14317:14326   */\n      dup3\n        /* \"#utility.yul\":14313:14331   */\n      add\n        /* \"#utility.yul\":14305:14331   */\n      swap1\n      pop\n        /* \"#utility.yul\":14377:14386   */\n      dup2\n        /* \"#utility.yul\":14371:14375   */\n      dup2\n        /* \"#utility.yul\":14367:14387   */\n      sub\n        /* \"#utility.yul\":14363:14364   */\n      0x00\n        /* \"#utility.yul\":14352:14361   */\n      dup4\n        /* \"#utility.yul\":14348:14365   */\n      add\n        /* \"#utility.yul\":14341:14388   */\n      mstore\n        /* \"#utility.yul\":14405:14536   */\n      tag_652\n        /* \"#utility.yul\":14531:14535   */\n      dup2\n        /* \"#utility.yul\":14405:14536   */\n      tag_475\n      jump\t// in\n    tag_652:\n        /* \"#utility.yul\":14397:14536   */\n      swap1\n      pop\n        /* \"#utility.yul\":14124:14543   */\n      swap2\n      swap1\n      pop\n      jump\t// out\n        /* \"#utility.yul\":14549:14769   */\n    tag_476:\n        /* \"#utility.yul\":14689:14723   */\n      0x537943726f774261727465723a20494e56414c49445f4241525445525f545950\n        /* \"#utility.yul\":14685:14686   */\n      0x00\n        /* \"#utility.yul\":14677:14683   */\n      dup3\n        /* \"#utility.yul\":14673:14687   */\n      add\n        /* \"#utility.yul\":14666:14724   */\n      mstore\n        /* \"#utility.yul\":14758:14761   */\n      0x4500000000000000000000000000000000000000000000000000000000000000\n        /* \"#utility.yul\":14753:14755   */\n      0x20\n        /* \"#utility.yul\":14745:14751   */\n      dup3\n        /* \"#utility.yul\":14741:14756   */\n      add\n        /* \"#utility.yul\":14734:14762   */\n      mstore\n        /* \"#utility.yul\":14549:14769   */\n      pop\n      jump\t// out\n        /* \"#utility.yul\":14775:15141   */\n    tag_477:\n        /* \"#utility.yul\":14917:14920   */\n      0x00\n        /* \"#utility.yul\":14938:15005   */\n      tag_655\n        /* \"#utility.yul\":15002:15004   */\n      0x21\n        /* \"#utility.yul\":14997:15000   */\n      dup4\n        /* \"#utility.yul\":14938:15005   */\n      tag_468\n      jump\t// in\n    tag_655:\n        /* \"#utility.yul\":14931:15005   */\n      swap2\n      pop\n        /* \"#utility.yul\":15014:15107   */\n      tag_656\n        /* \"#utility.yul\":15103:15106   */\n      dup3\n        /* \"#utility.yul\":15014:15107   */\n      tag_476\n      jump\t// in\n    tag_656:\n        /* \"#utility.yul\":15132:15134   */\n      0x40\n        /* \"#utility.yul\":15127:15130   */\n      dup3\n        /* \"#utility.yul\":15123:15135   */\n      add\n        /* \"#utility.yul\":15116:15135   */\n      swap1\n      pop\n        /* \"#utility.yul\":14775:15141   */\n      swap2\n      swap1\n      pop\n      jump\t// out\n        /* \"#utility.yul\":15147:15566   */\n    tag_119:\n        /* \"#utility.yul\":15313:15317   */\n      0x00\n        /* \"#utility.yul\":15351:15353   */\n      0x20\n        /* \"#utility.yul\":15340:15349   */\n      dup3\n        /* \"#utility.yul\":15336:15354   */\n      add\n        /* \"#utility.yul\":15328:15354   */\n      swap1\n      pop\n        /* \"#utility.yul\":15400:15409   */\n      dup2\n        /* \"#utility.yul\":15394:15398   */\n      dup2\n        /* \"#utility.yul\":15390:15410   */\n      sub\n        /* \"#utility.yul\":15386:15387   */\n      0x00\n        /* \"#utility.yul\":15375:15384   */\n      dup4\n        /* \"#utility.yul\":15371:15388   */\n      add\n        /* \"#utility.yul\":15364:15411   */\n      mstore\n        /* \"#utility.yul\":15428:15559   */\n      tag_658\n        /* \"#utility.yul\":15554:15558   */\n      dup2\n        /* \"#utility.yul\":15428:15559   */\n      tag_477\n      jump\t// in\n    tag_658:\n        /* \"#utility.yul\":15420:15559   */\n      swap1\n      pop\n        /* \"#utility.yul\":15147:15566   */\n      swap2\n      swap1\n      pop\n      jump\t// out\n        /* \"#utility.yul\":15572:15800   */\n    tag_478:\n        /* \"#utility.yul\":15712:15746   */\n      0x537943726f774261727465723a20414d4f554e545f4c4f5745525f5448414e5f\n        /* \"#utility.yul\":15708:15709   */\n      0x00\n        /* \"#utility.yul\":15700:15706   */\n      dup3\n        /* \"#utility.yul\":15696:15710   */\n      add\n        /* \"#utility.yul\":15689:15747   */\n      mstore\n        /* \"#utility.yul\":15781:15792   */\n      0x5245515552495245440000000000000000000000000000000000000000000000\n        /* \"#utility.yul\":15776:15778   */\n      0x20\n        /* \"#utility.yul\":15768:15774   */\n      dup3\n        /* \"#utility.yul\":15764:15779   */\n      add\n        /* \"#utility.yul\":15757:15793   */\n      mstore\n        /* \"#utility.yul\":15572:15800   */\n      pop\n      jump\t// out\n        /* \"#utility.yul\":15806:16172   */\n    tag_479:\n        /* \"#utility.yul\":15948:15951   */\n      0x00\n        /* \"#utility.yul\":15969:16036   */\n      tag_661\n        /* \"#utility.yul\":16033:16035   */\n      0x29\n        /* \"#utility.yul\":16028:16031   */\n      dup4\n        /* \"#utility.yul\":15969:16036   */\n      tag_468\n      jump\t// in\n    tag_661:\n        /* \"#utility.yul\":15962:16036   */\n      swap2\n      pop\n        /* \"#utility.yul\":16045:16138   */\n      tag_662\n        /* \"#utility.yul\":16134:16137   */\n      dup3\n        /* \"#utility.yul\":16045:16138   */\n      tag_478\n      jump\t// in\n    tag_662:\n        /* \"#utility.yul\":16163:16165   */\n      0x40\n        /* \"#utility.yul\":16158:16161   */\n      dup3\n        /* \"#utility.yul\":16154:16166   */\n      add\n        /* \"#utility.yul\":16147:16166   */\n      swap1\n      pop\n        /* \"#utility.yul\":15806:16172   */\n      swap2\n      swap1\n      pop\n      jump\t// out\n        /* \"#utility.yul\":16178:16597   */\n    tag_124:\n        /* \"#utility.yul\":16344:16348   */\n      0x00\n        /* \"#utility.yul\":16382:16384   */\n      0x20\n        /* \"#utility.yul\":16371:16380   */\n      dup3\n        /* \"#utility.yul\":16367:16385   */\n      add\n        /* \"#utility.yul\":16359:16385   */\n      swap1\n      pop\n        /* \"#utility.yul\":16431:16440   */\n      dup2\n        /* \"#utility.yul\":16425:16429   */\n      dup2\n        /* \"#utility.yul\":16421:16441   */\n      sub\n        /* \"#utility.yul\":16417:16418   */\n      0x00\n        /* \"#utility.yul\":16406:16415   */\n      dup4\n        /* \"#utility.yul\":16402:16419   */\n      add\n        /* \"#utility.yul\":16395:16442   */\n      mstore\n        /* \"#utility.yul\":16459:16590   */\n      tag_664\n        /* \"#utility.yul\":16585:16589   */\n      dup2\n        /* \"#utility.yul\":16459:16590   */\n      tag_479\n      jump\t// in\n    tag_664:\n        /* \"#utility.yul\":16451:16590   */\n      swap1\n      pop\n        /* \"#utility.yul\":16178:16597   */\n      swap2\n      swap1\n      pop\n      jump\t// out\n        /* \"#utility.yul\":16603:16773   */\n    tag_480:\n        /* \"#utility.yul\":16743:16765   */\n      0x537943726f774261727465723a20414354495645000000000000000000000000\n        /* \"#utility.yul\":16739:16740   */\n      0x00\n        /* \"#utility.yul\":16731:16737   */\n      dup3\n        /* \"#utility.yul\":16727:16741   */\n      add\n        /* \"#utility.yul\":16720:16766   */\n      mstore\n        /* \"#utility.yul\":16603:16773   */\n      pop\n      jump\t// out\n        /* \"#utility.yul\":16779:17145   */\n    tag_481:\n        /* \"#utility.yul\":16921:16924   */\n      0x00\n        /* \"#utility.yul\":16942:17009   */\n      tag_667\n        /* \"#utility.yul\":17006:17008   */\n      0x14\n        /* \"#utility.yul\":17001:17004   */\n      dup4\n        /* \"#utility.yul\":16942:17009   */\n      tag_468\n      jump\t// in\n    tag_667:\n        /* \"#utility.yul\":16935:17009   */\n      swap2\n      pop\n        /* \"#utility.yul\":17018:17111   */\n      tag_668\n        /* \"#utility.yul\":17107:17110   */\n      dup3\n        /* \"#utility.yul\":17018:17111   */\n      tag_480\n      jump\t// in\n    tag_668:\n        /* \"#utility.yul\":17136:17138   */\n      0x20\n        /* \"#utility.yul\":17131:17134   */\n      dup3\n        /* \"#utility.yul\":17127:17139   */\n      add\n        /* \"#utility.yul\":17120:17139   */\n      swap1\n      pop\n        /* \"#utility.yul\":16779:17145   */\n      swap2\n      swap1\n      pop\n      jump\t// out\n        /* \"#utility.yul\":17151:17570   */\n    tag_157:\n        /* \"#utility.yul\":17317:17321   */\n      0x00\n        /* \"#utility.yul\":17355:17357   */\n      0x20\n        /* \"#utility.yul\":17344:17353   */\n      dup3\n        /* \"#utility.yul\":17340:17358   */\n      add\n        /* \"#utility.yul\":17332:17358   */\n      swap1\n      pop\n        /* \"#utility.yul\":17404:17413   */\n      dup2\n        /* \"#utility.yul\":17398:17402   */\n      dup2\n        /* \"#utility.yul\":17394:17414   */\n      sub\n        /* \"#utility.yul\":17390:17391   */\n      0x00\n        /* \"#utility.yul\":17379:17388   */\n      dup4\n        /* \"#utility.yul\":17375:17392   */\n      add\n        /* \"#utility.yul\":17368:17415   */\n      mstore\n        /* \"#utility.yul\":17432:17563   */\n      tag_670\n        /* \"#utility.yul\":17558:17562   */\n      dup2\n        /* \"#utility.yul\":17432:17563   */\n      tag_481\n      jump\t// in\n    tag_670:\n        /* \"#utility.yul\":17424:17563   */\n      swap1\n      pop\n        /* \"#utility.yul\":17151:17570   */\n      swap2\n      swap1\n      pop\n      jump\t// out\n        /* \"#utility.yul\":17576:17758   */\n    tag_482:\n        /* \"#utility.yul\":17716:17750   */\n      0x4f776e61626c653a2063616c6c6572206973206e6f7420746865206f776e6572\n        /* \"#utility.yul\":17712:17713   */\n      0x00\n        /* \"#utility.yul\":17704:17710   */\n      dup3\n        /* \"#utility.yul\":17700:17714   */\n      add\n        /* \"#utility.yul\":17693:17751   */\n      mstore\n        /* \"#utility.yul\":17576:17758   */\n      pop\n      jump\t// out\n        /* \"#utility.yul\":17764:18130   */\n    tag_483:\n        /* \"#utility.yul\":17906:17909   */\n      0x00\n        /* \"#utility.yul\":17927:17994   */\n      tag_673\n        /* \"#utility.yul\":17991:17993   */\n      0x20\n        /* \"#utility.yul\":17986:17989   */\n      dup4\n        /* \"#utility.yul\":17927:17994   */\n      tag_468\n      jump\t// in\n    tag_673:\n        /* \"#utility.yul\":17920:17994   */\n      swap2\n      pop\n        /* \"#utility.yul\":18003:18096   */\n      tag_674\n        /* \"#utility.yul\":18092:18095   */\n      dup3\n        /* \"#utility.yul\":18003:18096   */\n      tag_482\n      jump\t// in\n    tag_674:\n        /* \"#utility.yul\":18121:18123   */\n      0x20\n        /* \"#utility.yul\":18116:18119   */\n      dup3\n        /* \"#utility.yul\":18112:18124   */\n      add\n        /* \"#utility.yul\":18105:18124   */\n      swap1\n      pop\n        /* \"#utility.yul\":17764:18130   */\n      swap2\n      swap1\n      pop\n      jump\t// out\n        /* \"#utility.yul\":18136:18555   */\n    tag_167:\n        /* \"#utility.yul\":18302:18306   */\n      0x00\n        /* \"#utility.yul\":18340:18342   */\n      0x20\n        /* \"#utility.yul\":18329:18338   */\n      dup3\n        /* \"#utility.yul\":18325:18343   */\n      add\n        /* \"#utility.yul\":18317:18343   */\n      swap1\n      pop\n        /* \"#utility.yul\":18389:18398   */\n      dup2\n        /* \"#utility.yul\":18383:18387   */\n      dup2\n        /* \"#utility.yul\":18379:18399   */\n      sub\n        /* \"#utility.yul\":18375:18376   */\n      0x00\n        /* \"#utility.yul\":18364:18373   */\n      dup4\n        /* \"#utility.yul\":18360:18377   */\n      add\n        /* \"#utility.yul\":18353:18400   */\n      mstore\n        /* \"#utility.yul\":18417:18548   */\n      tag_676\n        /* \"#utility.yul\":18543:18547   */\n      dup2\n        /* \"#utility.yul\":18417:18548   */\n      tag_483\n      jump\t// in\n    tag_676:\n        /* \"#utility.yul\":18409:18548   */\n      swap1\n      pop\n        /* \"#utility.yul\":18136:18555   */\n      swap2\n      swap1\n      pop\n      jump\t// out\n        /* \"#utility.yul\":18561:18704   */\n    tag_484:\n        /* \"#utility.yul\":18618:18623   */\n      0x00\n        /* \"#utility.yul\":18649:18655   */\n      dup2\n        /* \"#utility.yul\":18643:18656   */\n      mload\n        /* \"#utility.yul\":18634:18656   */\n      swap1\n      pop\n        /* \"#utility.yul\":18665:18698   */\n      tag_678\n        /* \"#utility.yul\":18692:18697   */\n      dup2\n        /* \"#utility.yul\":18665:18698   */\n      tag_436\n      jump\t// in\n    tag_678:\n        /* \"#utility.yul\":18561:18704   */\n      swap3\n      swap2\n      pop\n      pop\n      jump\t// out\n        /* \"#utility.yul\":18710:19061   */\n    tag_173:\n        /* \"#utility.yul\":18780:18786   */\n      0x00\n        /* \"#utility.yul\":18829:18831   */\n      0x20\n        /* \"#utility.yul\":18817:18826   */\n      dup3\n        /* \"#utility.yul\":18808:18815   */\n      dup5\n        /* \"#utility.yul\":18804:18827   */\n      sub\n        /* \"#utility.yul\":18800:18832   */\n      slt\n        /* \"#utility.yul\":18797:18916   */\n      iszero\n      tag_680\n      jumpi\n        /* \"#utility.yul\":18835:18914   */\n      tag_681\n      tag_433\n      jump\t// in\n    tag_681:\n        /* \"#utility.yul\":18797:18916   */\n    tag_680:\n        /* \"#utility.yul\":18955:18956   */\n      0x00\n        /* \"#utility.yul\":18980:19044   */\n      tag_682\n        /* \"#utility.yul\":19036:19043   */\n      dup5\n        /* \"#utility.yul\":19027:19033   */\n      dup3\n        /* \"#utility.yul\":19016:19025   */\n      dup6\n        /* \"#utility.yul\":19012:19034   */\n      add\n        /* \"#utility.yul\":18980:19044   */\n      tag_484\n      jump\t// in\n    tag_682:\n        /* \"#utility.yul\":18970:19044   */\n      swap2\n      pop\n        /* \"#utility.yul\":18926:19054   */\n      pop\n        /* \"#utility.yul\":18710:19061   */\n      swap3\n      swap2\n      pop\n      pop\n      jump\t// out\n        /* \"#utility.yul\":19067:19620   */\n    tag_207:\n        /* \"#utility.yul\":19244:19248   */\n      0x00\n        /* \"#utility.yul\":19282:19285   */\n      0x80\n        /* \"#utility.yul\":19271:19280   */\n      dup3\n        /* \"#utility.yul\":19267:19286   */\n      add\n        /* \"#utility.yul\":19259:19286   */\n      swap1\n      pop\n        /* \"#utility.yul\":19296:19367   */\n      tag_684\n        /* \"#utility.yul\":19364:19365   */\n      0x00\n        /* \"#utility.yul\":19353:19362   */\n      dup4\n        /* \"#utility.yul\":19349:19366   */\n      add\n        /* \"#utility.yul\":19340:19346   */\n      dup8\n        /* \"#utility.yul\":19296:19367   */\n      tag_453\n      jump\t// in\n    tag_684:\n        /* \"#utility.yul\":19377:19449   */\n      tag_685\n        /* \"#utility.yul\":19445:19447   */\n      0x20\n        /* \"#utility.yul\":19434:19443   */\n      dup4\n        /* \"#utility.yul\":19430:19448   */\n      add\n        /* \"#utility.yul\":19421:19427   */\n      dup7\n        /* \"#utility.yul\":19377:19449   */\n      tag_453\n      jump\t// in\n    tag_685:\n        /* \"#utility.yul\":19459:19531   */\n      tag_686\n        /* \"#utility.yul\":19527:19529   */\n      0x40\n        /* \"#utility.yul\":19516:19525   */\n      dup4\n        /* \"#utility.yul\":19512:19530   */\n      add\n        /* \"#utility.yul\":19503:19509   */\n      dup6\n        /* \"#utility.yul\":19459:19531   */\n      tag_440\n      jump\t// in\n    tag_686:\n        /* \"#utility.yul\":19541:19613   */\n      tag_687\n        /* \"#utility.yul\":19609:19611   */\n      0x60\n        /* \"#utility.yul\":19598:19607   */\n      dup4\n        /* \"#utility.yul\":19594:19612   */\n      add\n        /* \"#utility.yul\":19585:19591   */\n      dup5\n        /* \"#utility.yul\":19541:19613   */\n      tag_440\n      jump\t// in\n    tag_687:\n        /* \"#utility.yul\":19067:19620   */\n      swap6\n      swap5\n      pop\n      pop\n      pop\n      pop\n      pop\n      jump\t// out\n        /* \"#utility.yul\":19626:19799   */\n    tag_485:\n        /* \"#utility.yul\":19766:19791   */\n      0x537943726f774261727465723a20464f5242494444454e000000000000000000\n        /* \"#utility.yul\":19762:19763   */\n      0x00\n        /* \"#utility.yul\":19754:19760   */\n      dup3\n        /* \"#utility.yul\":19750:19764   */\n      add\n        /* \"#utility.yul\":19743:19792   */\n      mstore\n        /* \"#utility.yul\":19626:19799   */\n      pop\n      jump\t// out\n        /* \"#utility.yul\":19805:20171   */\n    tag_486:\n        /* \"#utility.yul\":19947:19950   */\n      0x00\n        /* \"#utility.yul\":19968:20035   */\n      tag_690\n        /* \"#utility.yul\":20032:20034   */\n      0x17\n        /* \"#utility.yul\":20027:20030   */\n      dup4\n        /* \"#utility.yul\":19968:20035   */\n      tag_468\n      jump\t// in\n    tag_690:\n        /* \"#utility.yul\":19961:20035   */\n      swap2\n      pop\n        /* \"#utility.yul\":20044:20137   */\n      tag_691\n        /* \"#utility.yul\":20133:20136   */\n      dup3\n        /* \"#utility.yul\":20044:20137   */\n      tag_485\n      jump\t// in\n    tag_691:\n        /* \"#utility.yul\":20162:20164   */\n      0x20\n        /* \"#utility.yul\":20157:20160   */\n      dup3\n        /* \"#utility.yul\":20153:20165   */\n      add\n        /* \"#utility.yul\":20146:20165   */\n      swap1\n      pop\n        /* \"#utility.yul\":19805:20171   */\n      swap2\n      swap1\n      pop\n      jump\t// out\n        /* \"#utility.yul\":20177:20596   */\n    tag_244:\n        /* \"#utility.yul\":20343:20347   */\n      0x00\n        /* \"#utility.yul\":20381:20383   */\n      0x20\n        /* \"#utility.yul\":20370:20379   */\n      dup3\n        /* \"#utility.yul\":20366:20384   */\n      add\n        /* \"#utility.yul\":20358:20384   */\n      swap1\n      pop\n        /* \"#utility.yul\":20430:20439   */\n      dup2\n        /* \"#utility.yul\":20424:20428   */\n      dup2\n        /* \"#utility.yul\":20420:20440   */\n      sub\n        /* \"#utility.yul\":20416:20417   */\n      0x00\n        /* \"#utility.yul\":20405:20414   */\n      dup4\n        /* \"#utility.yul\":20401:20418   */\n      add\n        /* \"#utility.yul\":20394:20441   */\n      mstore\n        /* \"#utility.yul\":20458:20589   */\n      tag_693\n        /* \"#utility.yul\":20584:20588   */\n      dup2\n        /* \"#utility.yul\":20458:20589   */\n      tag_486\n      jump\t// in\n    tag_693:\n        /* \"#utility.yul\":20450:20589   */\n      swap1\n      pop\n        /* \"#utility.yul\":20177:20596   */\n      swap2\n      swap1\n      pop\n      jump\t// out\n        /* \"#utility.yul\":20602:20822   */\n    tag_487:\n        /* \"#utility.yul\":20742:20776   */\n      0x537943726f774261727465723a20414c52454144595f494e495449414c495a45\n        /* \"#utility.yul\":20738:20739   */\n      0x00\n        /* \"#utility.yul\":20730:20736   */\n      dup3\n        /* \"#utility.yul\":20726:20740   */\n      add\n        /* \"#utility.yul\":20719:20777   */\n      mstore\n        /* \"#utility.yul\":20811:20814   */\n      0x4400000000000000000000000000000000000000000000000000000000000000\n        /* \"#utility.yul\":20806:20808   */\n      0x20\n        /* \"#utility.yul\":20798:20804   */\n      dup3\n        /* \"#utility.yul\":20794:20809   */\n      add\n        /* \"#utility.yul\":20787:20815   */\n      mstore\n        /* \"#utility.yul\":20602:20822   */\n      pop\n      jump\t// out\n        /* \"#utility.yul\":20828:21194   */\n    tag_488:\n        /* \"#utility.yul\":20970:20973   */\n      0x00\n        /* \"#utility.yul\":20991:21058   */\n      tag_696\n        /* \"#utility.yul\":21055:21057   */\n      0x21\n        /* \"#utility.yul\":21050:21053   */\n      dup4\n        /* \"#utility.yul\":20991:21058   */\n      tag_468\n      jump\t// in\n    tag_696:\n        /* \"#utility.yul\":20984:21058   */\n      swap2\n      pop\n        /* \"#utility.yul\":21067:21160   */\n      tag_697\n        /* \"#utility.yul\":21156:21159   */\n      dup3\n        /* \"#utility.yul\":21067:21160   */\n      tag_487\n      jump\t// in\n    tag_697:\n        /* \"#utility.yul\":21185:21187   */\n      0x40\n        /* \"#utility.yul\":21180:21183   */\n      dup3\n        /* \"#utility.yul\":21176:21188   */\n      add\n        /* \"#utility.yul\":21169:21188   */\n      swap1\n      pop\n        /* \"#utility.yul\":20828:21194   */\n      swap2\n      swap1\n      pop\n      jump\t// out\n        /* \"#utility.yul\":21200:21619   */\n    tag_247:\n        /* \"#utility.yul\":21366:21370   */\n      0x00\n        /* \"#utility.yul\":21404:21406   */\n      0x20\n        /* \"#utility.yul\":21393:21402   */\n      dup3\n        /* \"#utility.yul\":21389:21407   */\n      add\n        /* \"#utility.yul\":21381:21407   */\n      swap1\n      pop\n        /* \"#utility.yul\":21453:21462   */\n      dup2\n        /* \"#utility.yul\":21447:21451   */\n      dup2\n        /* \"#utility.yul\":21443:21463   */\n      sub\n        /* \"#utility.yul\":21439:21440   */\n      0x00\n        /* \"#utility.yul\":21428:21437   */\n      dup4\n        /* \"#utility.yul\":21424:21441   */\n      add\n        /* \"#utility.yul\":21417:21464   */\n      mstore\n        /* \"#utility.yul\":21481:21612   */\n      tag_699\n        /* \"#utility.yul\":21607:21611   */\n      dup2\n        /* \"#utility.yul\":21481:21612   */\n      tag_488\n      jump\t// in\n    tag_699:\n        /* \"#utility.yul\":21473:21612   */\n      swap1\n      pop\n        /* \"#utility.yul\":21200:21619   */\n      swap2\n      swap1\n      pop\n      jump\t// out\n        /* \"#utility.yul\":21625:21801   */\n    tag_489:\n        /* \"#utility.yul\":21765:21793   */\n      0x537943726f774261727465723a2050415354646561646c696e65000000000000\n        /* \"#utility.yul\":21761:21762   */\n      0x00\n        /* \"#utility.yul\":21753:21759   */\n      dup3\n        /* \"#utility.yul\":21749:21763   */\n      add\n        /* \"#utility.yul\":21742:21794   */\n      mstore\n        /* \"#utility.yul\":21625:21801   */\n      pop\n      jump\t// out\n        /* \"#utility.yul\":21807:22173   */\n    tag_490:\n        /* \"#utility.yul\":21949:21952   */\n      0x00\n        /* \"#utility.yul\":21970:22037   */\n      tag_702\n        /* \"#utility.yul\":22034:22036   */\n      0x1a\n        /* \"#utility.yul\":22029:22032   */\n      dup4\n        /* \"#utility.yul\":21970:22037   */\n      tag_468\n      jump\t// in\n    tag_702:\n        /* \"#utility.yul\":21963:22037   */\n      swap2\n      pop\n        /* \"#utility.yul\":22046:22139   */\n      tag_703\n        /* \"#utility.yul\":22135:22138   */\n      dup3\n        /* \"#utility.yul\":22046:22139   */\n      tag_489\n      jump\t// in\n    tag_703:\n        /* \"#utility.yul\":22164:22166   */\n      0x20\n        /* \"#utility.yul\":22159:22162   */\n      dup3\n        /* \"#utility.yul\":22155:22167   */\n      add\n        /* \"#utility.yul\":22148:22167   */\n      swap1\n      pop\n        /* \"#utility.yul\":21807:22173   */\n      swap2\n      swap1\n      pop\n      jump\t// out\n        /* \"#utility.yul\":22179:22598   */\n    tag_250:\n        /* \"#utility.yul\":22345:22349   */\n      0x00\n        /* \"#utility.yul\":22383:22385   */\n      0x20\n        /* \"#utility.yul\":22372:22381   */\n      dup3\n        /* \"#utility.yul\":22368:22386   */\n      add\n        /* \"#utility.yul\":22360:22386   */\n      swap1\n      pop\n        /* \"#utility.yul\":22432:22441   */\n      dup2\n        /* \"#utility.yul\":22426:22430   */\n      dup2\n        /* \"#utility.yul\":22422:22442   */\n      sub\n        /* \"#utility.yul\":22418:22419   */\n      0x00\n        /* \"#utility.yul\":22407:22416   */\n      dup4\n        /* \"#utility.yul\":22403:22420   */\n      add\n        /* \"#utility.yul\":22396:22443   */\n      mstore\n        /* \"#utility.yul\":22460:22591   */\n      tag_705\n        /* \"#utility.yul\":22586:22590   */\n      dup2\n        /* \"#utility.yul\":22460:22591   */\n      tag_490\n      jump\t// in\n    tag_705:\n        /* \"#utility.yul\":22452:22591   */\n      swap1\n      pop\n        /* \"#utility.yul\":22179:22598   */\n      swap2\n      swap1\n      pop\n      jump\t// out\n        /* \"#utility.yul\":22604:22825   */\n    tag_491:\n        /* \"#utility.yul\":22744:22778   */\n      0x537943726f774261727465723a20494e53554646494349454e545f4445504f53\n        /* \"#utility.yul\":22740:22741   */\n      0x00\n        /* \"#utility.yul\":22732:22738   */\n      dup3\n        /* \"#utility.yul\":22728:22742   */\n      add\n        /* \"#utility.yul\":22721:22779   */\n      mstore\n        /* \"#utility.yul\":22813:22817   */\n      0x4954000000000000000000000000000000000000000000000000000000000000\n        /* \"#utility.yul\":22808:22810   */\n      0x20\n        /* \"#utility.yul\":22800:22806   */\n      dup3\n        /* \"#utility.yul\":22796:22811   */\n      add\n        /* \"#utility.yul\":22789:22818   */\n      mstore\n        /* \"#utility.yul\":22604:22825   */\n      pop\n      jump\t// out\n        /* \"#utility.yul\":22831:23197   */\n    tag_492:\n        /* \"#utility.yul\":22973:22976   */\n      0x00\n        /* \"#utility.yul\":22994:23061   */\n      tag_708\n        /* \"#utility.yul\":23058:23060   */\n      0x22\n        /* \"#utility.yul\":23053:23056   */\n      dup4\n        /* \"#utility.yul\":22994:23061   */\n      tag_468\n      jump\t// in\n    tag_708:\n        /* \"#utility.yul\":22987:23061   */\n      swap2\n      pop\n        /* \"#utility.yul\":23070:23163   */\n      tag_709\n        /* \"#utility.yul\":23159:23162   */\n      dup3\n        /* \"#utility.yul\":23070:23163   */\n      tag_491\n      jump\t// in\n    tag_709:\n        /* \"#utility.yul\":23188:23190   */\n      0x40\n        /* \"#utility.yul\":23183:23186   */\n      dup3\n        /* \"#utility.yul\":23179:23191   */\n      add\n        /* \"#utility.yul\":23172:23191   */\n      swap1\n      pop\n        /* \"#utility.yul\":22831:23197   */\n      swap2\n      swap1\n      pop\n      jump\t// out\n        /* \"#utility.yul\":23203:23622   */\n    tag_257:\n        /* \"#utility.yul\":23369:23373   */\n      0x00\n        /* \"#utility.yul\":23407:23409   */\n      0x20\n        /* \"#utility.yul\":23396:23405   */\n      dup3\n        /* \"#utility.yul\":23392:23410   */\n      add\n        /* \"#utility.yul\":23384:23410   */\n      swap1\n      pop\n        /* \"#utility.yul\":23456:23465   */\n      dup2\n        /* \"#utility.yul\":23450:23454   */\n      dup2\n        /* \"#utility.yul\":23446:23466   */\n      sub\n        /* \"#utility.yul\":23442:23443   */\n      0x00\n        /* \"#utility.yul\":23431:23440   */\n      dup4\n        /* \"#utility.yul\":23427:23444   */\n      add\n        /* \"#utility.yul\":23420:23467   */\n      mstore\n        /* \"#utility.yul\":23484:23615   */\n      tag_711\n        /* \"#utility.yul\":23610:23614   */\n      dup2\n        /* \"#utility.yul\":23484:23615   */\n      tag_492\n      jump\t// in\n    tag_711:\n        /* \"#utility.yul\":23476:23615   */\n      swap1\n      pop\n        /* \"#utility.yul\":23203:23622   */\n      swap2\n      swap1\n      pop\n      jump\t// out\n        /* \"#utility.yul\":23628:23808   */\n    tag_493:\n        /* \"#utility.yul\":23676:23753   */\n      0x4e487b7100000000000000000000000000000000000000000000000000000000\n        /* \"#utility.yul\":23673:23674   */\n      0x00\n        /* \"#utility.yul\":23666:23754   */\n      mstore\n        /* \"#utility.yul\":23773:23777   */\n      0x11\n        /* \"#utility.yul\":23770:23771   */\n      0x04\n        /* \"#utility.yul\":23763:23778   */\n      mstore\n        /* \"#utility.yul\":23797:23801   */\n      0x24\n        /* \"#utility.yul\":23794:23795   */\n      0x00\n        /* \"#utility.yul\":23787:23802   */\n      revert\n        /* \"#utility.yul\":23814:24162   */\n    tag_275:\n        /* \"#utility.yul\":23854:23861   */\n      0x00\n        /* \"#utility.yul\":23877:23897   */\n      tag_714\n        /* \"#utility.yul\":23895:23896   */\n      dup3\n        /* \"#utility.yul\":23877:23897   */\n      tag_435\n      jump\t// in\n    tag_714:\n        /* \"#utility.yul\":23872:23897   */\n      swap2\n      pop\n        /* \"#utility.yul\":23911:23931   */\n      tag_715\n        /* \"#utility.yul\":23929:23930   */\n      dup4\n        /* \"#utility.yul\":23911:23931   */\n      tag_435\n      jump\t// in\n    tag_715:\n        /* \"#utility.yul\":23906:23931   */\n      swap3\n      pop\n        /* \"#utility.yul\":24099:24100   */\n      dup2\n        /* \"#utility.yul\":24031:24097   */\n      0xffffffffffffffffffffffffffffffffffffffffffffffffffffffffffffffff\n        /* \"#utility.yul\":24027:24101   */\n      div\n        /* \"#utility.yul\":24024:24025   */\n      dup4\n        /* \"#utility.yul\":24021:24102   */\n      gt\n        /* \"#utility.yul\":24016:24017   */\n      dup3\n        /* \"#utility.yul\":24009:24018   */\n      iszero\n        /* \"#utility.yul\":24002:24019   */\n      iszero\n        /* \"#utility.yul\":23998:24103   */\n      and\n        /* \"#utility.yul\":23995:24126   */\n      iszero\n      tag_716\n      jumpi\n        /* \"#utility.yul\":24106:24124   */\n      tag_717\n      tag_493\n      jump\t// in\n    tag_717:\n        /* \"#utility.yul\":23995:24126   */\n    tag_716:\n        /* \"#utility.yul\":24154:24155   */\n      dup3\n        /* \"#utility.yul\":24151:24152   */\n      dup3\n        /* \"#utility.yul\":24147:24156   */\n      mul\n        /* \"#utility.yul\":24136:24156   */\n      swap1\n      pop\n        /* \"#utility.yul\":23814:24162   */\n      swap3\n      swap2\n      pop\n      pop\n      jump\t// out\n        /* \"#utility.yul\":24168:24348   */\n    tag_494:\n        /* \"#utility.yul\":24216:24293   */\n      0x4e487b7100000000000000000000000000000000000000000000000000000000\n        /* \"#utility.yul\":24213:24214   */\n      0x00\n        /* \"#utility.yul\":24206:24294   */\n      mstore\n        /* \"#utility.yul\":24313:24317   */\n      0x12\n        /* \"#utility.yul\":24310:24311   */\n      0x04\n        /* \"#utility.yul\":24303:24318   */\n      mstore\n        /* \"#utility.yul\":24337:24341   */\n      0x24\n        /* \"#utility.yul\":24334:24335   */\n      0x00\n        /* \"#utility.yul\":24327:24342   */\n      revert\n        /* \"#utility.yul\":24354:24539   */\n    tag_277:\n        /* \"#utility.yul\":24394:24395   */\n      0x00\n        /* \"#utility.yul\":24411:24431   */\n      tag_720\n        /* \"#utility.yul\":24429:24430   */\n      dup3\n        /* \"#utility.yul\":24411:24431   */\n      tag_435\n      jump\t// in\n    tag_720:\n        /* \"#utility.yul\":24406:24431   */\n      swap2\n      pop\n        /* \"#utility.yul\":24445:24465   */\n      tag_721\n        /* \"#utility.yul\":24463:24464   */\n      dup4\n        /* \"#utility.yul\":24445:24465   */\n      tag_435\n      jump\t// in\n    tag_721:\n        /* \"#utility.yul\":24440:24465   */\n      swap3\n      pop\n        /* \"#utility.yul\":24484:24485   */\n      dup3\n        /* \"#utility.yul\":24474:24509   */\n      tag_722\n      jumpi\n        /* \"#utility.yul\":24489:24507   */\n      tag_723\n      tag_494\n      jump\t// in\n    tag_723:\n        /* \"#utility.yul\":24474:24509   */\n    tag_722:\n        /* \"#utility.yul\":24531:24532   */\n      dup3\n        /* \"#utility.yul\":24528:24529   */\n      dup3\n        /* \"#utility.yul\":24524:24533   */\n      div\n        /* \"#utility.yul\":24519:24533   */\n      swap1\n      pop\n        /* \"#utility.yul\":24354:24539   */\n      swap3\n      swap2\n      pop\n      pop\n      jump\t// out\n        /* \"#utility.yul\":24545:24725   */\n    tag_284:\n        /* \"#utility.yul\":24593:24670   */\n      0x4e487b7100000000000000000000000000000000000000000000000000000000\n        /* \"#utility.yul\":24590:24591   */\n      0x00\n        /* \"#utility.yul\":24583:24671   */\n      mstore\n        /* \"#utility.yul\":24690:24694   */\n      0x41\n        /* \"#utility.yul\":24687:24688   */\n      0x04\n        /* \"#utility.yul\":24680:24695   */\n      mstore\n        /* \"#utility.yul\":24714:24718   */\n      0x24\n        /* \"#utility.yul\":24711:24712   */\n      0x00\n        /* \"#utility.yul\":24704:24719   */\n      revert\n        /* \"#utility.yul\":24731:24911   */\n    tag_297:\n        /* \"#utility.yul\":24779:24856   */\n      0x4e487b7100000000000000000000000000000000000000000000000000000000\n        /* \"#utility.yul\":24776:24777   */\n      0x00\n        /* \"#utility.yul\":24769:24857   */\n      mstore\n        /* \"#utility.yul\":24876:24880   */\n      0x32\n        /* \"#utility.yul\":24873:24874   */\n      0x04\n        /* \"#utility.yul\":24866:24881   */\n      mstore\n        /* \"#utility.yul\":24900:24904   */\n      0x24\n        /* \"#utility.yul\":24897:24898   */\n      0x00\n        /* \"#utility.yul\":24890:24905   */\n      revert\n        /* \"#utility.yul\":24917:25150   */\n    tag_312:\n        /* \"#utility.yul\":24956:24959   */\n      0x00\n        /* \"#utility.yul\":24979:25003   */\n      tag_727\n        /* \"#utility.yul\":24997:25002   */\n      dup3\n        /* \"#utility.yul\":24979:25003   */\n      tag_435\n      jump\t// in\n    tag_727:\n        /* \"#utility.yul\":24970:25003   */\n      swap2\n      pop\n        /* \"#utility.yul\":25025:25091   */\n      0xffffffffffffffffffffffffffffffffffffffffffffffffffffffffffffffff\n        /* \"#utility.yul\":25018:25023   */\n      dup3\n        /* \"#utility.yul\":25015:25092   */\n      sub\n        /* \"#utility.yul\":25012:25115   */\n      tag_728\n      jumpi\n        /* \"#utility.yul\":25095:25113   */\n      tag_729\n      tag_493\n      jump\t// in\n    tag_729:\n        /* \"#utility.yul\":25012:25115   */\n    tag_728:\n        /* \"#utility.yul\":25142:25143   */\n      0x01\n        /* \"#utility.yul\":25135:25140   */\n      dup3\n        /* \"#utility.yul\":25131:25144   */\n      add\n        /* \"#utility.yul\":25124:25144   */\n      swap1\n      pop\n        /* \"#utility.yul\":24917:25150   */\n      swap2\n      swap1\n      pop\n      jump\t// out\n        /* \"#utility.yul\":25156:25381   */\n    tag_495:\n        /* \"#utility.yul\":25296:25330   */\n      0x4f776e61626c653a206e6577206f776e657220697320746865207a65726f2061\n        /* \"#utility.yul\":25292:25293   */\n      0x00\n        /* \"#utility.yul\":25284:25290   */\n      dup3\n        /* \"#utility.yul\":25280:25294   */\n      add\n        /* \"#utility.yul\":25273:25331   */\n      mstore\n        /* \"#utility.yul\":25365:25373   */\n      0x6464726573730000000000000000000000000000000000000000000000000000\n        /* \"#utility.yul\":25360:25362   */\n      0x20\n        /* \"#utility.yul\":25352:25358   */\n      dup3\n        /* \"#utility.yul\":25348:25363   */\n      add\n        /* \"#utility.yul\":25341:25374   */\n      mstore\n        /* \"#utility.yul\":25156:25381   */\n      pop\n      jump\t// out\n        /* \"#utility.yul\":25387:25753   */\n    tag_496:\n        /* \"#utility.yul\":25529:25532   */\n      0x00\n        /* \"#utility.yul\":25550:25617   */\n      tag_732\n        /* \"#utility.yul\":25614:25616   */\n      0x26\n        /* \"#utility.yul\":25609:25612   */\n      dup4\n        /* \"#utility.yul\":25550:25617   */\n      tag_468\n      jump\t// in\n    tag_732:\n        /* \"#utility.yul\":25543:25617   */\n      swap2\n      pop\n        /* \"#utility.yul\":25626:25719   */\n      tag_733\n        /* \"#utility.yul\":25715:25718   */\n      dup3\n        /* \"#utility.yul\":25626:25719   */\n      tag_495\n      jump\t// in\n    tag_733:\n        /* \"#utility.yul\":25744:25746   */\n      0x40\n        /* \"#utility.yul\":25739:25742   */\n      dup3\n        /* \"#utility.yul\":25735:25747   */\n      add\n        /* \"#utility.yul\":25728:25747   */\n      swap1\n      pop\n        /* \"#utility.yul\":25387:25753   */\n      swap2\n      swap1\n      pop\n      jump\t// out\n        /* \"#utility.yul\":25759:26178   */\n    tag_321:\n        /* \"#utility.yul\":25925:25929   */\n      0x00\n        /* \"#utility.yul\":25963:25965   */\n      0x20\n        /* \"#utility.yul\":25952:25961   */\n      dup3\n        /* \"#utility.yul\":25948:25966   */\n      add\n        /* \"#utility.yul\":25940:25966   */\n      swap1\n      pop\n        /* \"#utility.yul\":26012:26021   */\n      dup2\n        /* \"#utility.yul\":26006:26010   */\n      dup2\n        /* \"#utility.yul\":26002:26022   */\n      sub\n        /* \"#utility.yul\":25998:25999   */\n      0x00\n        /* \"#utility.yul\":25987:25996   */\n      dup4\n        /* \"#utility.yul\":25983:26000   */\n      add\n        /* \"#utility.yul\":25976:26023   */\n      mstore\n        /* \"#utility.yul\":26040:26171   */\n      tag_735\n        /* \"#utility.yul\":26166:26170   */\n      dup2\n        /* \"#utility.yul\":26040:26171   */\n      tag_496\n      jump\t// in\n    tag_735:\n        /* \"#utility.yul\":26032:26171   */\n      swap1\n      pop\n        /* \"#utility.yul\":25759:26178   */\n      swap2\n      swap1\n      pop\n      jump\t// out\n        /* \"#utility.yul\":26184:26405   */\n    tag_497:\n        /* \"#utility.yul\":26324:26358   */\n      0x537943726f774261727465723a20494e53554646494349454e545f42414c414e\n        /* \"#utility.yul\":26320:26321   */\n      0x00\n        /* \"#utility.yul\":26312:26318   */\n      dup3\n        /* \"#utility.yul\":26308:26322   */\n      add\n        /* \"#utility.yul\":26301:26359   */\n      mstore\n        /* \"#utility.yul\":26393:26397   */\n      0x4345000000000000000000000000000000000000000000000000000000000000\n        /* \"#utility.yul\":26388:26390   */\n      0x20\n        /* \"#utility.yul\":26380:26386   */\n      dup3\n        /* \"#utility.yul\":26376:26391   */\n      add\n        /* \"#utility.yul\":26369:26398   */\n      mstore\n        /* \"#utility.yul\":26184:26405   */\n      pop\n      jump\t// out\n        /* \"#utility.yul\":26411:26777   */\n    tag_498:\n        /* \"#utility.yul\":26553:26556   */\n      0x00\n        /* \"#utility.yul\":26574:26641   */\n      tag_738\n        /* \"#utility.yul\":26638:26640   */\n      0x22\n        /* \"#utility.yul\":26633:26636   */\n      dup4\n        /* \"#utility.yul\":26574:26641   */\n      tag_468\n      jump\t// in\n    tag_738:\n        /* \"#utility.yul\":26567:26641   */\n      swap2\n      pop\n        /* \"#utility.yul\":26650:26743   */\n      tag_739\n        /* \"#utility.yul\":26739:26742   */\n      dup3\n        /* \"#utility.yul\":26650:26743   */\n      tag_497\n      jump\t// in\n    tag_739:\n        /* \"#utility.yul\":26768:26770   */\n      0x40\n        /* \"#utility.yul\":26763:26766   */\n      dup3\n        /* \"#utility.yul\":26759:26771   */\n      add\n        /* \"#utility.yul\":26752:26771   */\n      swap1\n      pop\n        /* \"#utility.yul\":26411:26777   */\n      swap2\n      swap1\n      pop\n      jump\t// out\n        /* \"#utility.yul\":26783:27202   */\n    tag_330:\n        /* \"#utility.yul\":26949:26953   */\n      0x00\n        /* \"#utility.yul\":26987:26989   */\n      0x20\n        /* \"#utility.yul\":26976:26985   */\n      dup3\n        /* \"#utility.yul\":26972:26990   */\n      add\n        /* \"#utility.yul\":26964:26990   */\n      swap1\n      pop\n        /* \"#utility.yul\":27036:27045   */\n      dup2\n        /* \"#utility.yul\":27030:27034   */\n      dup2\n        /* \"#utility.yul\":27026:27046   */\n      sub\n        /* \"#utility.yul\":27022:27023   */\n      0x00\n        /* \"#utility.yul\":27011:27020   */\n      dup4\n        /* \"#utility.yul\":27007:27024   */\n      add\n        /* \"#utility.yul\":27000:27047   */\n      mstore\n        /* \"#utility.yul\":27064:27195   */\n      tag_741\n        /* \"#utility.yul\":27190:27194   */\n      dup2\n        /* \"#utility.yul\":27064:27195   */\n      tag_498\n      jump\t// in\n    tag_741:\n        /* \"#utility.yul\":27056:27195   */\n      swap1\n      pop\n        /* \"#utility.yul\":26783:27202   */\n      swap2\n      swap1\n      pop\n      jump\t// out\n        /* \"#utility.yul\":27208:27438   */\n    tag_499:\n        /* \"#utility.yul\":27348:27382   */\n      0x537943726f774261727465723a20494e53554646494349454e545f434f4e5452\n        /* \"#utility.yul\":27344:27345   */\n      0x00\n        /* \"#utility.yul\":27336:27342   */\n      dup3\n        /* \"#utility.yul\":27332:27346   */\n      add\n        /* \"#utility.yul\":27325:27383   */\n      mstore\n        /* \"#utility.yul\":27417:27430   */\n      0x4143545f42414c414e4345000000000000000000000000000000000000000000\n        /* \"#utility.yul\":27412:27414   */\n      0x20\n        /* \"#utility.yul\":27404:27410   */\n      dup3\n        /* \"#utility.yul\":27400:27415   */\n      add\n        /* \"#utility.yul\":27393:27431   */\n      mstore\n        /* \"#utility.yul\":27208:27438   */\n      pop\n      jump\t// out\n        /* \"#utility.yul\":27444:27810   */\n    tag_500:\n        /* \"#utility.yul\":27586:27589   */\n      0x00\n        /* \"#utility.yul\":27607:27674   */\n      tag_744\n        /* \"#utility.yul\":27671:27673   */\n      0x2b\n        /* \"#utility.yul\":27666:27669   */\n      dup4\n        /* \"#utility.yul\":27607:27674   */\n      tag_468\n      jump\t// in\n    tag_744:\n        /* \"#utility.yul\":27600:27674   */\n      swap2\n      pop\n        /* \"#utility.yul\":27683:27776   */\n      tag_745\n        /* \"#utility.yul\":27772:27775   */\n      dup3\n        /* \"#utility.yul\":27683:27776   */\n      tag_499\n      jump\t// in\n    tag_745:\n        /* \"#utility.yul\":27801:27803   */\n      0x40\n        /* \"#utility.yul\":27796:27799   */\n      dup3\n        /* \"#utility.yul\":27792:27804   */\n      add\n        /* \"#utility.yul\":27785:27804   */\n      swap1\n      pop\n        /* \"#utility.yul\":27444:27810   */\n      swap2\n      swap1\n      pop\n      jump\t// out\n        /* \"#utility.yul\":27816:28235   */\n    tag_338:\n        /* \"#utility.yul\":27982:27986   */\n      0x00\n        /* \"#utility.yul\":28020:28022   */\n      0x20\n        /* \"#utility.yul\":28009:28018   */\n      dup3\n        /* \"#utility.yul\":28005:28023   */\n      add\n        /* \"#utility.yul\":27997:28023   */\n      swap1\n      pop\n        /* \"#utility.yul\":28069:28078   */\n      dup2\n        /* \"#utility.yul\":28063:28067   */\n      dup2\n        /* \"#utility.yul\":28059:28079   */\n      sub\n        /* \"#utility.yul\":28055:28056   */\n      0x00\n        /* \"#utility.yul\":28044:28053   */\n      dup4\n        /* \"#utility.yul\":28040:28057   */\n      add\n        /* \"#utility.yul\":28033:28080   */\n      mstore\n        /* \"#utility.yul\":28097:28228   */\n      tag_747\n        /* \"#utility.yul\":28223:28227   */\n      dup2\n        /* \"#utility.yul\":28097:28228   */\n      tag_500\n      jump\t// in\n    tag_747:\n        /* \"#utility.yul\":28089:28228   */\n      swap1\n      pop\n        /* \"#utility.yul\":27816:28235   */\n      swap2\n      swap1\n      pop\n      jump\t// out\n        /* \"#utility.yul\":28241:28339   */\n    tag_501:\n        /* \"#utility.yul\":28292:28298   */\n      0x00\n        /* \"#utility.yul\":28326:28331   */\n      dup2\n        /* \"#utility.yul\":28320:28332   */\n      mload\n        /* \"#utility.yul\":28310:28332   */\n      swap1\n      pop\n        /* \"#utility.yul\":28241:28339   */\n      swap2\n      swap1\n      pop\n      jump\t// out\n        /* \"#utility.yul\":28345:28492   */\n    tag_502:\n        /* \"#utility.yul\":28446:28457   */\n      0x00\n        /* \"#utility.yul\":28483:28486   */\n      dup2\n        /* \"#utility.yul\":28468:28486   */\n      swap1\n      pop\n        /* \"#utility.yul\":28345:28492   */\n      swap3\n      swap2\n      pop\n      pop\n      jump\t// out\n        /* \"#utility.yul\":28498:28805   */\n    tag_503:\n        /* \"#utility.yul\":28566:28567   */\n      0x00\n        /* \"#utility.yul\":28576:28689   */\n    tag_751:\n        /* \"#utility.yul\":28590:28596   */\n      dup4\n        /* \"#utility.yul\":28587:28588   */\n      dup2\n        /* \"#utility.yul\":28584:28597   */\n      lt\n        /* \"#utility.yul\":28576:28689   */\n      iszero\n      tag_753\n      jumpi\n        /* \"#utility.yul\":28675:28676   */\n      dup1\n        /* \"#utility.yul\":28670:28673   */\n      dup3\n        /* \"#utility.yul\":28666:28677   */\n      add\n        /* \"#utility.yul\":28660:28678   */\n      mload\n        /* \"#utility.yul\":28656:28657   */\n      dup2\n        /* \"#utility.yul\":28651:28654   */\n      dup5\n        /* \"#utility.yul\":28647:28658   */\n      add\n        /* \"#utility.yul\":28640:28679   */\n      mstore\n        /* \"#utility.yul\":28612:28614   */\n      0x20\n        /* \"#utility.yul\":28609:28610   */\n      dup2\n        /* \"#utility.yul\":28605:28615   */\n      add\n        /* \"#utility.yul\":28600:28615   */\n      swap1\n      pop\n        /* \"#utility.yul\":28576:28689   */\n      jump(tag_751)\n    tag_753:\n        /* \"#utility.yul\":28707:28713   */\n      dup4\n        /* \"#utility.yul\":28704:28705   */\n      dup2\n        /* \"#utility.yul\":28701:28714   */\n      gt\n        /* \"#utility.yul\":28698:28799   */\n      iszero\n      tag_754\n      jumpi\n        /* \"#utility.yul\":28787:28788   */\n      0x00\n        /* \"#utility.yul\":28778:28784   */\n      dup5\n        /* \"#utility.yul\":28773:28776   */\n      dup5\n        /* \"#utility.yul\":28769:28785   */\n      add\n        /* \"#utility.yul\":28762:28789   */\n      mstore\n        /* \"#utility.yul\":28698:28799   */\n    tag_754:\n        /* \"#utility.yul\":28547:28805   */\n      pop\n        /* \"#utility.yul\":28498:28805   */\n      pop\n      pop\n      pop\n      jump\t// out\n        /* \"#utility.yul\":28811:29184   */\n    tag_504:\n        /* \"#utility.yul\":28915:28918   */\n      0x00\n        /* \"#utility.yul\":28943:28981   */\n      tag_756\n        /* \"#utility.yul\":28975:28980   */\n      dup3\n        /* \"#utility.yul\":28943:28981   */\n      tag_501\n      jump\t// in\n    tag_756:\n        /* \"#utility.yul\":28997:29085   */\n      tag_757\n        /* \"#utility.yul\":29078:29084   */\n      dup2\n        /* \"#utility.yul\":29073:29076   */\n      dup6\n        /* \"#utility.yul\":28997:29085   */\n      tag_502\n      jump\t// in\n    tag_757:\n        /* \"#utility.yul\":28990:29085   */\n      swap4\n      pop\n        /* \"#utility.yul\":29094:29146   */\n      tag_758\n        /* \"#utility.yul\":29139:29145   */\n      dup2\n        /* \"#utility.yul\":29134:29137   */\n      dup6\n        /* \"#utility.yul\":29127:29131   */\n      0x20\n        /* \"#utility.yul\":29120:29125   */\n      dup7\n        /* \"#utility.yul\":29116:29132   */\n      add\n        /* \"#utility.yul\":29094:29146   */\n      tag_503\n      jump\t// in\n    tag_758:\n        /* \"#utility.yul\":29171:29177   */\n      dup1\n        /* \"#utility.yul\":29166:29169   */\n      dup5\n        /* \"#utility.yul\":29162:29178   */\n      add\n        /* \"#utility.yul\":29155:29178   */\n      swap2\n      pop\n        /* \"#utility.yul\":28919:29184   */\n      pop\n        /* \"#utility.yul\":28811:29184   */\n      swap3\n      swap2\n      pop\n      pop\n      jump\t// out\n        /* \"#utility.yul\":29190:29461   */\n    tag_378:\n        /* \"#utility.yul\":29320:29323   */\n      0x00\n        /* \"#utility.yul\":29342:29435   */\n      tag_760\n        /* \"#utility.yul\":29431:29434   */\n      dup3\n        /* \"#utility.yul\":29422:29428   */\n      dup5\n        /* \"#utility.yul\":29342:29435   */\n      tag_504\n      jump\t// in\n    tag_760:\n        /* \"#utility.yul\":29335:29435   */\n      swap2\n      pop\n        /* \"#utility.yul\":29452:29455   */\n      dup2\n        /* \"#utility.yul\":29445:29455   */\n      swap1\n      pop\n        /* \"#utility.yul\":29190:29461   */\n      swap3\n      swap2\n      pop\n      pop\n      jump\t// out\n        /* \"#utility.yul\":29467:29689   */\n    tag_505:\n        /* \"#utility.yul\":29607:29641   */\n      0x5472616e7366657248656c7065723a204554485f5452414e534645525f464149\n        /* \"#utility.yul\":29603:29604   */\n      0x00\n        /* \"#utility.yul\":29595:29601   */\n      dup3\n        /* \"#utility.yul\":29591:29605   */\n      add\n        /* \"#utility.yul\":29584:29642   */\n      mstore\n        /* \"#utility.yul\":29676:29681   */\n      0x4c45440000000000000000000000000000000000000000000000000000000000\n        /* \"#utility.yul\":29671:29673   */\n      0x20\n        /* \"#utility.yul\":29663:29669   */\n      dup3\n        /* \"#utility.yul\":29659:29674   */\n      add\n        /* \"#utility.yul\":29652:29682   */\n      mstore\n        /* \"#utility.yul\":29467:29689   */\n      pop\n      jump\t// out\n        /* \"#utility.yul\":29695:30061   */\n    tag_506:\n        /* \"#utility.yul\":29837:29840   */\n      0x00\n        /* \"#utility.yul\":29858:29925   */\n      tag_763\n        /* \"#utility.yul\":29922:29924   */\n      0x23\n        /* \"#utility.yul\":29917:29920   */\n      dup4\n        /* \"#utility.yul\":29858:29925   */\n      tag_468\n      jump\t// in\n    tag_763:\n        /* \"#utility.yul\":29851:29925   */\n      swap2\n      pop\n        /* \"#utility.yul\":29934:30027   */\n      tag_764\n        /* \"#utility.yul\":30023:30026   */\n      dup3\n        /* \"#utility.yul\":29934:30027   */\n      tag_505\n      jump\t// in\n    tag_764:\n        /* \"#utility.yul\":30052:30054   */\n      0x40\n        /* \"#utility.yul\":30047:30050   */\n      dup3\n        /* \"#utility.yul\":30043:30055   */\n      add\n        /* \"#utility.yul\":30036:30055   */\n      swap1\n      pop\n        /* \"#utility.yul\":29695:30061   */\n      swap2\n      swap1\n      pop\n      jump\t// out\n        /* \"#utility.yul\":30067:30486   */\n    tag_384:\n        /* \"#utility.yul\":30233:30237   */\n      0x00\n        /* \"#utility.yul\":30271:30273   */\n      0x20\n        /* \"#utility.yul\":30260:30269   */\n      dup3\n        /* \"#utility.yul\":30256:30274   */\n      add\n        /* \"#utility.yul\":30248:30274   */\n      swap1\n      pop\n        /* \"#utility.yul\":30320:30329   */\n      dup2\n        /* \"#utility.yul\":30314:30318   */\n      dup2\n        /* \"#utility.yul\":30310:30330   */\n      sub\n        /* \"#utility.yul\":30306:30307   */\n      0x00\n        /* \"#utility.yul\":30295:30304   */\n      dup4\n        /* \"#utility.yul\":30291:30308   */\n      add\n        /* \"#utility.yul\":30284:30331   */\n      mstore\n        /* \"#utility.yul\":30348:30479   */\n      tag_766\n        /* \"#utility.yul\":30474:30478   */\n      dup2\n        /* \"#utility.yul\":30348:30479   */\n      tag_506\n      jump\t// in\n    tag_766:\n        /* \"#utility.yul\":30340:30479   */\n      swap1\n      pop\n        /* \"#utility.yul\":30067:30486   */\n      swap2\n      swap1\n      pop\n      jump\t// out\n        /* \"#utility.yul\":30492:30824   */\n    tag_387:\n        /* \"#utility.yul\":30613:30617   */\n      0x00\n        /* \"#utility.yul\":30651:30653   */\n      0x40\n        /* \"#utility.yul\":30640:30649   */\n      dup3\n        /* \"#utility.yul\":30636:30654   */\n      add\n        /* \"#utility.yul\":30628:30654   */\n      swap1\n      pop\n        /* \"#utility.yul\":30664:30735   */\n      tag_768\n        /* \"#utility.yul\":30732:30733   */\n      0x00\n        /* \"#utility.yul\":30721:30730   */\n      dup4\n        /* \"#utility.yul\":30717:30734   */\n      add\n        /* \"#utility.yul\":30708:30714   */\n      dup6\n        /* \"#utility.yul\":30664:30735   */\n      tag_453\n      jump\t// in\n    tag_768:\n        /* \"#utility.yul\":30745:30817   */\n      tag_769\n        /* \"#utility.yul\":30813:30815   */\n      0x20\n        /* \"#utility.yul\":30802:30811   */\n      dup4\n        /* \"#utility.yul\":30798:30816   */\n      add\n        /* \"#utility.yul\":30789:30795   */\n      dup5\n        /* \"#utility.yul\":30745:30817   */\n      tag_440\n      jump\t// in\n    tag_769:\n        /* \"#utility.yul\":30492:30824   */\n      swap4\n      swap3\n      pop\n      pop\n      pop\n      jump\t// out\n        /* \"#utility.yul\":30830:31011   */\n    tag_507:\n        /* \"#utility.yul\":30970:31003   */\n      0x5472616e7366657248656c7065723a205452414e534645525f4641494c454400\n        /* \"#utility.yul\":30966:30967   */\n      0x00\n        /* \"#utility.yul\":30958:30964   */\n      dup3\n        /* \"#utility.yul\":30954:30968   */\n      add\n        /* \"#utility.yul\":30947:31004   */\n      mstore\n        /* \"#utility.yul\":30830:31011   */\n      pop\n      jump\t// out\n        /* \"#utility.yul\":31017:31383   */\n    tag_508:\n        /* \"#utility.yul\":31159:31162   */\n      0x00\n        /* \"#utility.yul\":31180:31247   */\n      tag_772\n        /* \"#utility.yul\":31244:31246   */\n      0x1f\n        /* \"#utility.yul\":31239:31242   */\n      dup4\n        /* \"#utility.yul\":31180:31247   */\n      tag_468\n      jump\t// in\n    tag_772:\n        /* \"#utility.yul\":31173:31247   */\n      swap2\n      pop\n        /* \"#utility.yul\":31256:31349   */\n      tag_773\n        /* \"#utility.yul\":31345:31348   */\n      dup3\n        /* \"#utility.yul\":31256:31349   */\n      tag_507\n      jump\t// in\n    tag_773:\n        /* \"#utility.yul\":31374:31376   */\n      0x20\n        /* \"#utility.yul\":31369:31372   */\n      dup3\n        /* \"#utility.yul\":31365:31377   */\n      add\n        /* \"#utility.yul\":31358:31377   */\n      swap1\n      pop\n        /* \"#utility.yul\":31017:31383   */\n      swap2\n      swap1\n      pop\n      jump\t// out\n        /* \"#utility.yul\":31389:31808   */\n    tag_397:\n        /* \"#utility.yul\":31555:31559   */\n      0x00\n        /* \"#utility.yul\":31593:31595   */\n      0x20\n        /* \"#utility.yul\":31582:31591   */\n      dup3\n        /* \"#utility.yul\":31578:31596   */\n      add\n        /* \"#utility.yul\":31570:31596   */\n      swap1\n      pop\n        /* \"#utility.yul\":31642:31651   */\n      dup2\n        /* \"#utility.yul\":31636:31640   */\n      dup2\n        /* \"#utility.yul\":31632:31652   */\n      sub\n        /* \"#utility.yul\":31628:31629   */\n      0x00\n        /* \"#utility.yul\":31617:31626   */\n      dup4\n        /* \"#utility.yul\":31613:31630   */\n      add\n        /* \"#utility.yul\":31606:31653   */\n      mstore\n        /* \"#utility.yul\":31670:31801   */\n      tag_775\n        /* \"#utility.yul\":31796:31800   */\n      dup2\n        /* \"#utility.yul\":31670:31801   */\n      tag_508\n      jump\t// in\n    tag_775:\n        /* \"#utility.yul\":31662:31801   */\n      swap1\n      pop\n        /* \"#utility.yul\":31389:31808   */\n      swap2\n      swap1\n      pop\n      jump\t// out\n        /* \"#utility.yul\":31814:32038   */\n    tag_509:\n        /* \"#utility.yul\":31954:31988   */\n      0x537943726f774261727465723a204d554c54495f54524144455f4e4f545f454e\n        /* \"#utility.yul\":31950:31951   */\n      0x00\n        /* \"#utility.yul\":31942:31948   */\n      dup3\n        /* \"#utility.yul\":31938:31952   */\n      add\n        /* \"#utility.yul\":31931:31989   */\n      mstore\n        /* \"#utility.yul\":32023:32030   */\n      0x41424c4544000000000000000000000000000000000000000000000000000000\n        /* \"#utility.yul\":32018:32020   */\n      0x20\n        /* \"#utility.yul\":32010:32016   */\n      dup3\n        /* \"#utility.yul\":32006:32021   */\n      add\n        /* \"#utility.yul\":31999:32031   */\n      mstore\n        /* \"#utility.yul\":31814:32038   */\n      pop\n      jump\t// out\n        /* \"#utility.yul\":32044:32410   */\n    tag_510:\n        /* \"#utility.yul\":32186:32189   */\n      0x00\n        /* \"#utility.yul\":32207:32274   */\n      tag_778\n        /* \"#utility.yul\":32271:32273   */\n      0x25\n        /* \"#utility.yul\":32266:32269   */\n      dup4\n        /* \"#utility.yul\":32207:32274   */\n      tag_468\n      jump\t// in\n    tag_778:\n        /* \"#utility.yul\":32200:32274   */\n      swap2\n      pop\n        /* \"#utility.yul\":32283:32376   */\n      tag_779\n        /* \"#utility.yul\":32372:32375   */\n      dup3\n        /* \"#utility.yul\":32283:32376   */\n      tag_509\n      jump\t// in\n    tag_779:\n        /* \"#utility.yul\":32401:32403   */\n      0x40\n        /* \"#utility.yul\":32396:32399   */\n      dup3\n        /* \"#utility.yul\":32392:32404   */\n      add\n        /* \"#utility.yul\":32385:32404   */\n      swap1\n      pop\n        /* \"#utility.yul\":32044:32410   */\n      swap2\n      swap1\n      pop\n      jump\t// out\n        /* \"#utility.yul\":32416:32835   */\n    tag_401:\n        /* \"#utility.yul\":32582:32586   */\n      0x00\n        /* \"#utility.yul\":32620:32622   */\n      0x20\n        /* \"#utility.yul\":32609:32618   */\n      dup3\n        /* \"#utility.yul\":32605:32623   */\n      add\n        /* \"#utility.yul\":32597:32623   */\n      swap1\n      pop\n        /* \"#utility.yul\":32669:32678   */\n      dup2\n        /* \"#utility.yul\":32663:32667   */\n      dup2\n        /* \"#utility.yul\":32659:32679   */\n      sub\n        /* \"#utility.yul\":32655:32656   */\n      0x00\n        /* \"#utility.yul\":32644:32653   */\n      dup4\n        /* \"#utility.yul\":32640:32657   */\n      add\n        /* \"#utility.yul\":32633:32680   */\n      mstore\n        /* \"#utility.yul\":32697:32828   */\n      tag_781\n        /* \"#utility.yul\":32823:32827   */\n      dup2\n        /* \"#utility.yul\":32697:32828   */\n      tag_510\n      jump\t// in\n    tag_781:\n        /* \"#utility.yul\":32689:32828   */\n      swap1\n      pop\n        /* \"#utility.yul\":32416:32835   */\n      swap2\n      swap1\n      pop\n      jump\t// out\n        /* \"#utility.yul\":32841:33283   */\n    tag_421:\n        /* \"#utility.yul\":32990:32994   */\n      0x00\n        /* \"#utility.yul\":33028:33030   */\n      0x60\n        /* \"#utility.yul\":33017:33026   */\n      dup3\n        /* \"#utility.yul\":33013:33031   */\n      add\n        /* \"#utility.yul\":33005:33031   */\n      swap1\n      pop\n        /* \"#utility.yul\":33041:33112   */\n      tag_783\n        /* \"#utility.yul\":33109:33110   */\n      0x00\n        /* \"#utility.yul\":33098:33107   */\n      dup4\n        /* \"#utility.yul\":33094:33111   */\n      add\n        /* \"#utility.yul\":33085:33091   */\n      dup7\n        /* \"#utility.yul\":33041:33112   */\n      tag_453\n      jump\t// in\n    tag_783:\n        /* \"#utility.yul\":33122:33194   */\n      tag_784\n        /* \"#utility.yul\":33190:33192   */\n      0x20\n        /* \"#utility.yul\":33179:33188   */\n      dup4\n        /* \"#utility.yul\":33175:33193   */\n      add\n        /* \"#utility.yul\":33166:33172   */\n      dup6\n        /* \"#utility.yul\":33122:33194   */\n      tag_453\n      jump\t// in\n    tag_784:\n        /* \"#utility.yul\":33204:33276   */\n      tag_785\n        /* \"#utility.yul\":33272:33274   */\n      0x40\n        /* \"#utility.yul\":33261:33270   */\n      dup4\n        /* \"#utility.yul\":33257:33275   */\n      add\n        /* \"#utility.yul\":33248:33254   */\n      dup5\n        /* \"#utility.yul\":33204:33276   */\n      tag_440\n      jump\t// in\n    tag_785:\n        /* \"#utility.yul\":32841:33283   */\n      swap5\n      swap4\n      pop\n      pop\n      pop\n      pop\n      jump\t// out\n        /* \"#utility.yul\":33289:33512   */\n    tag_511:\n        /* \"#utility.yul\":33429:33463   */\n      0x5472616e7366657248656c7065723a205452414e534645525f46524f4d5f4641\n        /* \"#utility.yul\":33425:33426   */\n      0x00\n        /* \"#utility.yul\":33417:33423   */\n      dup3\n        /* \"#utility.yul\":33413:33427   */\n      add\n        /* \"#utility.yul\":33406:33464   */\n      mstore\n        /* \"#utility.yul\":33498:33504   */\n      0x494c454400000000000000000000000000000000000000000000000000000000\n        /* \"#utility.yul\":33493:33495   */\n      0x20\n        /* \"#utility.yul\":33485:33491   */\n      dup3\n        /* \"#utility.yul\":33481:33496   */\n      add\n        /* \"#utility.yul\":33474:33505   */\n      mstore\n        /* \"#utility.yul\":33289:33512   */\n      pop\n      jump\t// out\n        /* \"#utility.yul\":33518:33884   */\n    tag_512:\n        /* \"#utility.yul\":33660:33663   */\n      0x00\n        /* \"#utility.yul\":33681:33748   */\n      tag_788\n        /* \"#utility.yul\":33745:33747   */\n      0x24\n        /* \"#utility.yul\":33740:33743   */\n      dup4\n        /* \"#utility.yul\":33681:33748   */\n      tag_468\n      jump\t// in\n    tag_788:\n        /* \"#utility.yul\":33674:33748   */\n      swap2\n      pop\n        /* \"#utility.yul\":33757:33850   */\n      tag_789\n        /* \"#utility.yul\":33846:33849   */\n      dup3\n        /* \"#utility.yul\":33757:33850   */\n      tag_511\n      jump\t// in\n    tag_789:\n        /* \"#utility.yul\":33875:33877   */\n      0x40\n        /* \"#utility.yul\":33870:33873   */\n      dup3\n        /* \"#utility.yul\":33866:33878   */\n      add\n        /* \"#utility.yul\":33859:33878   */\n      swap1\n      pop\n        /* \"#utility.yul\":33518:33884   */\n      swap2\n      swap1\n      pop\n      jump\t// out\n        /* \"#utility.yul\":33890:34309   */\n    tag_431:\n        /* \"#utility.yul\":34056:34060   */\n      0x00\n        /* \"#utility.yul\":34094:34096   */\n      0x20\n        /* \"#utility.yul\":34083:34092   */\n      dup3\n        /* \"#utility.yul\":34079:34097   */\n      add\n        /* \"#utility.yul\":34071:34097   */\n      swap1\n      pop\n        /* \"#utility.yul\":34143:34152   */\n      dup2\n        /* \"#utility.yul\":34137:34141   */\n      dup2\n        /* \"#utility.yul\":34133:34153   */\n      sub\n        /* \"#utility.yul\":34129:34130   */\n      0x00\n        /* \"#utility.yul\":34118:34127   */\n      dup4\n        /* \"#utility.yul\":34114:34131   */\n      add\n        /* \"#utility.yul\":34107:34154   */\n      mstore\n        /* \"#utility.yul\":34171:34302   */\n      tag_791\n        /* \"#utility.yul\":34297:34301   */\n      dup2\n        /* \"#utility.yul\":34171:34302   */\n      tag_512\n      jump\t// in\n    tag_791:\n        /* \"#utility.yul\":34163:34302   */\n      swap1\n      pop\n        /* \"#utility.yul\":33890:34309   */\n      swap2\n      swap1\n      pop\n      jump\t// out\n\n    auxdata: 0xa26469706673582212206680e91ce1a8813d4c25d98bd753bd5ed4314ae7de49c29a5505bfe55c2876ba64736f6c634300080d0033\n}\n",
				"bytecode": {
					"linkReferences": {},
					"object": "60a06040526000600360156101000a81548160ff0219169083151502179055503480156200002c57600080fd5b506200004d620000416200008760201b60201c565b6200008f60201b60201c565b3373ffffffffffffffffffffffffffffffffffffffff1660808173ffffffffffffffffffffffffffffffffffffffff168152505062000153565b600033905090565b60008060009054906101000a900473ffffffffffffffffffffffffffffffffffffffff169050816000806101000a81548173ffffffffffffffffffffffffffffffffffffffff021916908373ffffffffffffffffffffffffffffffffffffffff1602179055508173ffffffffffffffffffffffffffffffffffffffff168173ffffffffffffffffffffffffffffffffffffffff167f8be0079c531659141344cd1fd0a4f28419497f9722a3daafe3b4186f6b6457e060405160405180910390a35050565b608051613996620001a76000396000818161043a0152818161069001528181610cfe01528181610eb601528181611069015281816114f701528181611c2001528181611f99015261250801526139966000f3fe6080604052600436106100f35760003560e01c8063715018a61161008a578063c45a015511610059578063c45a0155146102d5578063dab5a8df14610300578063e43372e91461033d578063f2fde38b1461036a576100f3565b8063715018a61461023c57806389523742146102535780638da5cb5b1461027e578063aa6ca808146102a9576100f3565b80633d370b4e116100c65780633d370b4e1461018c57806340a6f1ab146101b85780634341f920146101e35780635f5780e5146101ff576100f3565b80630d182605146100f85780632ffc6887146101215780633072cf601461014a5780633ccfd60b14610175575b600080fd5b34801561010457600080fd5b5061011f600480360381019061011a91906127d7565b610393565b005b34801561012d57600080fd5b50610148600480360381019061014391906127d7565b6105e9565b005b34801561015657600080fd5b5061015f61083f565b60405161016c919061281f565b60405180910390f35b34801561018157600080fd5b5061018a610852565b005b34801561019857600080fd5b506101a1610da9565b6040516101af929190612849565b60405180910390f35b3480156101c457600080fd5b506101cd610e09565b6040516101da9190612872565b60405180910390f35b6101fd60048036038101906101f891906127d7565b610e0f565b005b34801561020b57600080fd5b506102266004803603810190610221919061293c565b611065565b604051610233919061281f565b60405180910390f35b34801561024857600080fd5b50610251611391565b005b34801561025f57600080fd5b50610268611419565b6040516102759190612a69565b60405180910390f35b34801561028a57600080fd5b5061029361142c565b6040516102a09190612a93565b60405180910390f35b3480156102b557600080fd5b506102be611455565b6040516102cc929190612aae565b60405180910390f35b3480156102e157600080fd5b506102ea6114f5565b6040516102f79190612a93565b60405180910390f35b34801561030c57600080fd5b50610327600480360381019061032291906127d7565b611519565b6040516103349190612872565b60405180910390f35b34801561034957600080fd5b5061035261153d565b60405161036193929190612c53565b60405180910390f35b34801561037657600080fd5b50610391600480360381019061038c9190612c9f565b6117d9565b005b42600254101580156103a85750600754600154105b6103e7576040517f08c379a00000000000000000000000000000000000000000000000000000000081526004016103de90612d29565b60405180910390fd5b600360159054906101000a900460ff16610436576040517f08c379a000000000000000000000000000000000000000000000000000000000815260040161042d90612d95565b60405180910390fd5b60007f000000000000000000000000000000000000000000000000000000000000000090508073ffffffffffffffffffffffffffffffffffffffff1663b187bd266040518163ffffffff1660e01b8152600401602060405180830381865afa1580156104a6573d6000803e3d6000fd5b505050506040513d601f19601f820116820180604052508101906104ca9190612dca565b1561050a576040517f08c379a000000000000000000000000000000000000000000000000000000000815260040161050190612e69565b60405180910390fd5b6000600360009054906101000a900460ff16600281111561052e5761052d6129f2565b5b816002811115610541576105406129f2565b5b14610581576040517f08c379a000000000000000000000000000000000000000000000000000000000815260040161057890612efb565b60405180910390fd5b600860009054906101000a900460ff166105db576007548310156105da576040517f08c379a00000000000000000000000000000000000000000000000000000000081526004016105d190612f8d565b60405180910390fd5b5b6105e4836118d0565b505050565b42600254101580156105fe5750600754600154105b61063d576040517f08c379a000000000000000000000000000000000000000000000000000000000815260040161063490612d29565b60405180910390fd5b600360159054906101000a900460ff1661068c576040517f08c379a000000000000000000000000000000000000000000000000000000000815260040161068390612d95565b60405180910390fd5b60007f000000000000000000000000000000000000000000000000000000000000000090508073ffffffffffffffffffffffffffffffffffffffff1663b187bd266040518163ffffffff1660e01b8152600401602060405180830381865afa1580156106fc573d6000803e3d6000fd5b505050506040513d601f19601f820116820180604052508101906107209190612dca565b15610760576040517f08c379a000000000000000000000000000000000000000000000000000000000815260040161075790612e69565b60405180910390fd5b6002600360009054906101000a900460ff166002811115610784576107836129f2565b5b816002811115610797576107966129f2565b5b146107d7576040517f08c379a00000000000000000000000000000000000000000000000000000000081526004016107ce90612efb565b60405180910390fd5b600860009054906101000a900460ff1661083157600754831015610830576040517f08c379a000000000000000000000000000000000000000000000000000000000815260040161082790612f8d565b60405180910390fd5b5b61083a83611cb8565b505050565b600360159054906101000a900460ff1681565b426002541080610866575060075460015410155b6108a5576040517f08c379a000000000000000000000000000000000000000000000000000000000815260040161089c90612ff9565b60405180910390fd5b600360159054906101000a900460ff166108f4576040517f08c379a00000000000000000000000000000000000000000000000000000000081526004016108eb90612d95565b60405180910390fd5b6108fc612030565b73ffffffffffffffffffffffffffffffffffffffff1661091a61142c565b73ffffffffffffffffffffffffffffffffffffffff1614610970576040517f08c379a000000000000000000000000000000000000000000000000000000000815260040161096790613065565b60405180910390fd5b6000600360019054906101000a900473ffffffffffffffffffffffffffffffffffffffff16905060008173ffffffffffffffffffffffffffffffffffffffff166370a08231306040518263ffffffff1660e01b81526004016109d29190612a93565b602060405180830381865afa1580156109ef573d6000803e3d6000fd5b505050506040513d601f19601f82011682018060405250810190610a13919061309a565b90506000811115610ab657600360019054906101000a900473ffffffffffffffffffffffffffffffffffffffff1673ffffffffffffffffffffffffffffffffffffffff16632e1a7d4d826040518263ffffffff1660e01b8152600401610a799190612872565b600060405180830381600087803b158015610a9357600080fd5b505af1158015610aa7573d6000803e3d6000fd5b50505050610ab53382612038565b5b6000600560009054906101000a900473ffffffffffffffffffffffffffffffffffffffff1673ffffffffffffffffffffffffffffffffffffffff166370a08231306040518263ffffffff1660e01b8152600401610b139190612a93565b602060405180830381865afa158015610b30573d6000803e3d6000fd5b505050506040513d601f19601f82011682018060405250810190610b54919061309a565b90506000811115610b8d57610b8c600560009054906101000a900473ffffffffffffffffffffffffffffffffffffffff163383612138565b5b6000600460009054906101000a900473ffffffffffffffffffffffffffffffffffffffff1673ffffffffffffffffffffffffffffffffffffffff166370a08231306040518263ffffffff1660e01b8152600401610bea9190612a93565b602060405180830381865afa158015610c07573d6000803e3d6000fd5b505050506040513d601f19601f82011682018060405250810190610c2b919061309a565b90506000811115610c6457610c63600460009054906101000a900473ffffffffffffffffffffffffffffffffffffffff163383612138565b5b60008060006002811115610c7b57610c7a6129f2565b5b600360009054906101000a900460ff166002811115610c9d57610c9c6129f2565b5b03610cad57849150839050610cfa565b600280811115610cc057610cbf6129f2565b5b600360009054906101000a900460ff166002811115610ce257610ce16129f2565b5b03610cf257829150839050610cf9565b8291508490505b5b60007f000000000000000000000000000000000000000000000000000000000000000090508073ffffffffffffffffffffffffffffffffffffffff166333796a0e303386866040518563ffffffff1660e01b8152600401610d5e94939291906130c7565b600060405180830381600087803b158015610d7857600080fd5b505af1158015610d8c573d6000803e3d6000fd5b505050503373ffffffffffffffffffffffffffffffffffffffff16ff5b600080600360159054906101000a900460ff16610dfb576040517f08c379a0000000000000000000000000000000000000000000000000000000008152600401610df290612d95565b60405180910390fd5b600654600754915091509091565b60015481565b4260025410158015610e245750600754600154105b610e63576040517f08c379a0000000000000000000000000000000000000000000000000000000008152600401610e5a90612d29565b60405180910390fd5b600360159054906101000a900460ff16610eb2576040517f08c379a0000000000000000000000000000000000000000000000000000000008152600401610ea990612d95565b60405180910390fd5b60007f000000000000000000000000000000000000000000000000000000000000000090508073ffffffffffffffffffffffffffffffffffffffff1663b187bd266040518163ffffffff1660e01b8152600401602060405180830381865afa158015610f22573d6000803e3d6000fd5b505050506040513d601f19601f82011682018060405250810190610f469190612dca565b15610f86576040517f08c379a0000000000000000000000000000000000000000000000000000000008152600401610f7d90612e69565b60405180910390fd5b6001600360009054906101000a900460ff166002811115610faa57610fa96129f2565b5b816002811115610fbd57610fbc6129f2565b5b14610ffd576040517f08c379a0000000000000000000000000000000000000000000000000000000008152600401610ff490612efb565b60405180910390fd5b600860009054906101000a900460ff1661105757600754341015611056576040517f08c379a000000000000000000000000000000000000000000000000000000000815260040161104d90612f8d565b60405180910390fd5b5b6110608361226e565b505050565b60007f000000000000000000000000000000000000000000000000000000000000000073ffffffffffffffffffffffffffffffffffffffff163373ffffffffffffffffffffffffffffffffffffffff16146110f5576040517f08c379a00000000000000000000000000000000000000000000000000000000081526004016110ec90613158565b60405180910390fd5b600360159054906101000a900460ff1615611145576040517f08c379a000000000000000000000000000000000000000000000000000000000815260040161113c906131ea565b60405180910390fd5b428410611187576040517f08c379a000000000000000000000000000000000000000000000000000000000815260040161117e90613256565b60405180910390fd5b858873ffffffffffffffffffffffffffffffffffffffff166370a08231306040518263ffffffff1660e01b81526004016111c19190612a93565b602060405180830381865afa1580156111de573d6000803e3d6000fd5b505050506040513d601f19601f82011682018060405250810190611202919061309a565b1015611243576040517f08c379a000000000000000000000000000000000000000000000000000000000815260040161123a906132e8565b60405180910390fd5b87600460006101000a81548173ffffffffffffffffffffffffffffffffffffffff021916908373ffffffffffffffffffffffffffffffffffffffff16021790555086600560006101000a81548173ffffffffffffffffffffffffffffffffffffffff021916908373ffffffffffffffffffffffffffffffffffffffff160217905550856006819055508460078190555088600360006101000a81548160ff021916908360028111156112f8576112f76129f2565b5b021790555082600860006101000a81548160ff02191690831515021790555081600360016101000a81548173ffffffffffffffffffffffffffffffffffffffff021916908373ffffffffffffffffffffffffffffffffffffffff1602179055506001600360156101000a81548160ff021916908315150217905550600360159054906101000a900460ff16905098975050505050505050565b611399612030565b73ffffffffffffffffffffffffffffffffffffffff166113b761142c565b73ffffffffffffffffffffffffffffffffffffffff161461140d576040517f08c379a000000000000000000000000000000000000000000000000000000000815260040161140490613065565b60405180910390fd5b611417600061259f565b565b600360009054906101000a900460ff1681565b60008060009054906101000a900473ffffffffffffffffffffffffffffffffffffffff16905090565b600080600360159054906101000a900460ff166114a7576040517f08c379a000000000000000000000000000000000000000000000000000000000815260040161149e90612d95565b60405180910390fd5b600460009054906101000a900473ffffffffffffffffffffffffffffffffffffffff16600560009054906101000a900473ffffffffffffffffffffffffffffffffffffffff16915091509091565b7f000000000000000000000000000000000000000000000000000000000000000081565b60006007546006548361152c9190613337565b61153691906133c0565b9050919050565b6060806060600360159054906101000a900460ff16611591576040517f08c379a000000000000000000000000000000000000000000000000000000000815260040161158890612d95565b60405180910390fd5b600060098054905067ffffffffffffffff8111156115b2576115b16133f1565b5b6040519080825280602002602001820160405280156115e05781602001602082028036833780820191505090505b509050600060098054905067ffffffffffffffff811115611604576116036133f1565b5b6040519080825280602002602001820160405280156116325781602001602082028036833780820191505090505b509050600060098054905067ffffffffffffffff811115611656576116556133f1565b5b6040519080825280602002602001820160405280156116845781602001602082028036833780820191505090505b50905060005b6009805490508110156117c757600981815481106116ab576116aa613420565b5b906000526020600020906003020160000160009054906101000a900473ffffffffffffffffffffffffffffffffffffffff168482815181106116f0576116ef613420565b5b602002602001019073ffffffffffffffffffffffffffffffffffffffff16908173ffffffffffffffffffffffffffffffffffffffff16815250506009818154811061173e5761173d613420565b5b90600052602060002090600302016001015483828151811061176357611762613420565b5b6020026020010181815250506009818154811061178357611782613420565b5b9060005260206000209060030201600201548282815181106117a8576117a7613420565b5b60200260200101818152505080806117bf9061344f565b91505061168a565b50828282955095509550505050909192565b6117e1612030565b73ffffffffffffffffffffffffffffffffffffffff166117ff61142c565b73ffffffffffffffffffffffffffffffffffffffff1614611855576040517f08c379a000000000000000000000000000000000000000000000000000000000815260040161184c90613065565b60405180910390fd5b600073ffffffffffffffffffffffffffffffffffffffff168173ffffffffffffffffffffffffffffffffffffffff16036118c4576040517f08c379a00000000000000000000000000000000000000000000000000000000081526004016118bb90613509565b60405180910390fd5b6118cd8161259f565b50565b80600560009054906101000a900473ffffffffffffffffffffffffffffffffffffffff1673ffffffffffffffffffffffffffffffffffffffff166370a08231336040518263ffffffff1660e01b815260040161192c9190612a93565b602060405180830381865afa158015611949573d6000803e3d6000fd5b505050506040513d601f19601f8201168201806040525081019061196d919061309a565b10156119ae576040517f08c379a00000000000000000000000000000000000000000000000000000000081526004016119a59061359b565b60405180910390fd5b60006119b982611519565b90506000600360019054906101000a900473ffffffffffffffffffffffffffffffffffffffff169050818173ffffffffffffffffffffffffffffffffffffffff166370a08231306040518263ffffffff1660e01b8152600401611a1c9190612a93565b602060405180830381865afa158015611a39573d6000803e3d6000fd5b505050506040513d601f19601f82011682018060405250810190611a5d919061309a565b1015611a9e576040517f08c379a0000000000000000000000000000000000000000000000000000000008152600401611a959061362d565b60405180910390fd5b600360019054906101000a900473ffffffffffffffffffffffffffffffffffffffff1673ffffffffffffffffffffffffffffffffffffffff16632e1a7d4d836040518263ffffffff1660e01b8152600401611af99190612872565b600060405180830381600087803b158015611b1357600080fd5b505af1158015611b27573d6000803e3d6000fd5b50505050611b59600560009054906101000a900473ffffffffffffffffffffffffffffffffffffffff16333086612663565b611b633383612038565b600960405180606001604052803373ffffffffffffffffffffffffffffffffffffffff16815260200185815260200184815250908060018154018082558091505060019003906000526020600020906003020160009091909190915060008201518160000160006101000a81548173ffffffffffffffffffffffffffffffffffffffff021916908373ffffffffffffffffffffffffffffffffffffffff1602179055506020820151816001015560408201518160020155505060007f000000000000000000000000000000000000000000000000000000000000000090508073ffffffffffffffffffffffffffffffffffffffff1663f52701b7303387876040518563ffffffff1660e01b8152600401611c8094939291906130c7565b600060405180830381600087803b158015611c9a57600080fd5b505af1158015611cae573d6000803e3d6000fd5b5050505050505050565b80600560009054906101000a900473ffffffffffffffffffffffffffffffffffffffff1673ffffffffffffffffffffffffffffffffffffffff166370a08231336040518263ffffffff1660e01b8152600401611d149190612a93565b602060405180830381865afa158015611d31573d6000803e3d6000fd5b505050506040513d601f19601f82011682018060405250810190611d55919061309a565b1015611d96576040517f08c379a0000000000000000000000000000000000000000000000000000000008152600401611d8d9061359b565b60405180910390fd5b6000611da182611519565b905080600460009054906101000a900473ffffffffffffffffffffffffffffffffffffffff1673ffffffffffffffffffffffffffffffffffffffff166370a08231306040518263ffffffff1660e01b8152600401611dff9190612a93565b602060405180830381865afa158015611e1c573d6000803e3d6000fd5b505050506040513d601f19601f82011682018060405250810190611e40919061309a565b1015611e81576040517f08c379a0000000000000000000000000000000000000000000000000000000008152600401611e789061362d565b60405180910390fd5b611eaf600560009054906101000a900473ffffffffffffffffffffffffffffffffffffffff16333085612663565b611edc600460009054906101000a900473ffffffffffffffffffffffffffffffffffffffff163383612138565b600960405180606001604052803373ffffffffffffffffffffffffffffffffffffffff16815260200184815260200183815250908060018154018082558091505060019003906000526020600020906003020160009091909190915060008201518160000160006101000a81548173ffffffffffffffffffffffffffffffffffffffff021916908373ffffffffffffffffffffffffffffffffffffffff1602179055506020820151816001015560408201518160020155505060007f000000000000000000000000000000000000000000000000000000000000000090508073ffffffffffffffffffffffffffffffffffffffff1663f52701b7303386866040518563ffffffff1660e01b8152600401611ff994939291906130c7565b600060405180830381600087803b15801561201357600080fd5b505af1158015612027573d6000803e3d6000fd5b50505050505050565b600033905090565b60008273ffffffffffffffffffffffffffffffffffffffff1682600067ffffffffffffffff81111561206d5761206c6133f1565b5b6040519080825280601f01601f19166020018201604052801561209f5781602001600182028036833780820191505090505b506040516120ad91906136c7565b60006040518083038185875af1925050503d80600081146120ea576040519150601f19603f3d011682016040523d82523d6000602084013e6120ef565b606091505b5050905080612133576040517f08c379a000000000000000000000000000000000000000000000000000000000815260040161212a90613750565b60405180910390fd5b505050565b6000808473ffffffffffffffffffffffffffffffffffffffff1663a9059cbb858560405160240161216a929190613770565b6040516020818303038152906040529060e01b6020820180517bffffffffffffffffffffffffffffffffffffffffffffffffffffffff83818316178352505050506040516121b891906136c7565b6000604051808303816000865af19150503d80600081146121f5576040519150601f19603f3d011682016040523d82523d6000602084013e6121fa565b606091505b509150915081801561222857506000815114806122275750808060200190518101906122269190612dca565b5b5b612267576040517f08c379a000000000000000000000000000000000000000000000000000000000815260040161225e906137e5565b60405180910390fd5b5050505050565b3481146122b0576040517f08c379a00000000000000000000000000000000000000000000000000000000081526004016122a790613877565b60405180910390fd5b60006122bb82611519565b905080600460009054906101000a900473ffffffffffffffffffffffffffffffffffffffff1673ffffffffffffffffffffffffffffffffffffffff166370a08231306040518263ffffffff1660e01b81526004016123199190612a93565b602060405180830381865afa158015612336573d6000803e3d6000fd5b505050506040513d601f19601f8201168201806040525081019061235a919061309a565b101561239b576040517f08c379a00000000000000000000000000000000000000000000000000000000081526004016123929061362d565b60405180910390fd5b600360019054906101000a900473ffffffffffffffffffffffffffffffffffffffff1673ffffffffffffffffffffffffffffffffffffffff1663d0e30db0836040518263ffffffff1660e01b81526004016000604051808303818588803b15801561240557600080fd5b505af1158015612419573d6000803e3d6000fd5b505050505061244b600460009054906101000a900473ffffffffffffffffffffffffffffffffffffffff163383612138565b600960405180606001604052803373ffffffffffffffffffffffffffffffffffffffff16815260200184815260200183815250908060018154018082558091505060019003906000526020600020906003020160009091909190915060008201518160000160006101000a81548173ffffffffffffffffffffffffffffffffffffffff021916908373ffffffffffffffffffffffffffffffffffffffff1602179055506020820151816001015560408201518160020155505060007f000000000000000000000000000000000000000000000000000000000000000090508073ffffffffffffffffffffffffffffffffffffffff1663f52701b7303386866040518563ffffffff1660e01b815260040161256894939291906130c7565b600060405180830381600087803b15801561258257600080fd5b505af1158015612596573d6000803e3d6000fd5b50505050505050565b60008060009054906101000a900473ffffffffffffffffffffffffffffffffffffffff169050816000806101000a81548173ffffffffffffffffffffffffffffffffffffffff021916908373ffffffffffffffffffffffffffffffffffffffff1602179055508173ffffffffffffffffffffffffffffffffffffffff168173ffffffffffffffffffffffffffffffffffffffff167f8be0079c531659141344cd1fd0a4f28419497f9722a3daafe3b4186f6b6457e060405160405180910390a35050565b6000808573ffffffffffffffffffffffffffffffffffffffff166323b872dd86868660405160240161269793929190613897565b6040516020818303038152906040529060e01b6020820180517bffffffffffffffffffffffffffffffffffffffffffffffffffffffff83818316178352505050506040516126e591906136c7565b6000604051808303816000865af19150503d8060008114612722576040519150601f19603f3d011682016040523d82523d6000602084013e612727565b606091505b509150915081801561275557506000815114806127545750808060200190518101906127539190612dca565b5b5b612794576040517f08c379a000000000000000000000000000000000000000000000000000000000815260040161278b90613940565b60405180910390fd5b505050505050565b600080fd5b6000819050919050565b6127b4816127a1565b81146127bf57600080fd5b50565b6000813590506127d1816127ab565b92915050565b6000602082840312156127ed576127ec61279c565b5b60006127fb848285016127c2565b91505092915050565b60008115159050919050565b61281981612804565b82525050565b60006020820190506128346000830184612810565b92915050565b612843816127a1565b82525050565b600060408201905061285e600083018561283a565b61286b602083018461283a565b9392505050565b6000602082019050612887600083018461283a565b92915050565b6003811061289a57600080fd5b50565b6000813590506128ac8161288d565b92915050565b600073ffffffffffffffffffffffffffffffffffffffff82169050919050565b60006128dd826128b2565b9050919050565b6128ed816128d2565b81146128f857600080fd5b50565b60008135905061290a816128e4565b92915050565b61291981612804565b811461292457600080fd5b50565b60008135905061293681612910565b92915050565b600080600080600080600080610100898b03121561295d5761295c61279c565b5b600061296b8b828c0161289d565b985050602061297c8b828c016128fb565b975050604061298d8b828c016128fb565b965050606061299e8b828c016127c2565b95505060806129af8b828c016127c2565b94505060a06129c08b828c016127c2565b93505060c06129d18b828c01612927565b92505060e06129e28b828c016128fb565b9150509295985092959890939650565b7f4e487b7100000000000000000000000000000000000000000000000000000000600052602160045260246000fd5b60038110612a3257612a316129f2565b5b50565b6000819050612a4382612a21565b919050565b6000612a5382612a35565b9050919050565b612a6381612a48565b82525050565b6000602082019050612a7e6000830184612a5a565b92915050565b612a8d816128d2565b82525050565b6000602082019050612aa86000830184612a84565b92915050565b6000604082019050612ac36000830185612a84565b612ad06020830184612a84565b9392505050565b600081519050919050565b600082825260208201905092915050565b6000819050602082019050919050565b612b0c816128d2565b82525050565b6000612b1e8383612b03565b60208301905092915050565b6000602082019050919050565b6000612b4282612ad7565b612b4c8185612ae2565b9350612b5783612af3565b8060005b83811015612b88578151612b6f8882612b12565b9750612b7a83612b2a565b925050600181019050612b5b565b5085935050505092915050565b600081519050919050565b600082825260208201905092915050565b6000819050602082019050919050565b612bca816127a1565b82525050565b6000612bdc8383612bc1565b60208301905092915050565b6000602082019050919050565b6000612c0082612b95565b612c0a8185612ba0565b9350612c1583612bb1565b8060005b83811015612c46578151612c2d8882612bd0565b9750612c3883612be8565b925050600181019050612c19565b5085935050505092915050565b60006060820190508181036000830152612c6d8186612b37565b90508181036020830152612c818185612bf5565b90508181036040830152612c958184612bf5565b9050949350505050565b600060208284031215612cb557612cb461279c565b5b6000612cc3848285016128fb565b91505092915050565b600082825260208201905092915050565b7f537943726f774261727465723a20494e41435449564500000000000000000000600082015250565b6000612d13601683612ccc565b9150612d1e82612cdd565b602082019050919050565b60006020820190508181036000830152612d4281612d06565b9050919050565b7f537943726f774261727465723a204e4f545f494e495449414c495a4544000000600082015250565b6000612d7f601d83612ccc565b9150612d8a82612d49565b602082019050919050565b60006020820190508181036000830152612dae81612d72565b9050919050565b600081519050612dc481612910565b92915050565b600060208284031215612de057612ddf61279c565b5b6000612dee84828501612db5565b91505092915050565b7f537943726f774261727465723a204261736520436f6e7472616374205061757360008201527f6564000000000000000000000000000000000000000000000000000000000000602082015250565b6000612e53602283612ccc565b9150612e5e82612df7565b604082019050919050565b60006020820190508181036000830152612e8281612e46565b9050919050565b7f537943726f774261727465723a20494e56414c49445f4241525445525f54595060008201527f4500000000000000000000000000000000000000000000000000000000000000602082015250565b6000612ee5602183612ccc565b9150612ef082612e89565b604082019050919050565b60006020820190508181036000830152612f1481612ed8565b9050919050565b7f537943726f774261727465723a20414d4f554e545f4c4f5745525f5448414e5f60008201527f5245515552495245440000000000000000000000000000000000000000000000602082015250565b6000612f77602983612ccc565b9150612f8282612f1b565b604082019050919050565b60006020820190508181036000830152612fa681612f6a565b9050919050565b7f537943726f774261727465723a20414354495645000000000000000000000000600082015250565b6000612fe3601483612ccc565b9150612fee82612fad565b602082019050919050565b6000602082019050818103600083015261301281612fd6565b9050919050565b7f4f776e61626c653a2063616c6c6572206973206e6f7420746865206f776e6572600082015250565b600061304f602083612ccc565b915061305a82613019565b602082019050919050565b6000602082019050818103600083015261307e81613042565b9050919050565b600081519050613094816127ab565b92915050565b6000602082840312156130b0576130af61279c565b5b60006130be84828501613085565b91505092915050565b60006080820190506130dc6000830187612a84565b6130e96020830186612a84565b6130f6604083018561283a565b613103606083018461283a565b95945050505050565b7f537943726f774261727465723a20464f5242494444454e000000000000000000600082015250565b6000613142601783612ccc565b915061314d8261310c565b602082019050919050565b6000602082019050818103600083015261317181613135565b9050919050565b7f537943726f774261727465723a20414c52454144595f494e495449414c495a4560008201527f4400000000000000000000000000000000000000000000000000000000000000602082015250565b60006131d4602183612ccc565b91506131df82613178565b604082019050919050565b60006020820190508181036000830152613203816131c7565b9050919050565b7f537943726f774261727465723a2050415354646561646c696e65000000000000600082015250565b6000613240601a83612ccc565b915061324b8261320a565b602082019050919050565b6000602082019050818103600083015261326f81613233565b9050919050565b7f537943726f774261727465723a20494e53554646494349454e545f4445504f5360008201527f4954000000000000000000000000000000000000000000000000000000000000602082015250565b60006132d2602283612ccc565b91506132dd82613276565b604082019050919050565b60006020820190508181036000830152613301816132c5565b9050919050565b7f4e487b7100000000000000000000000000000000000000000000000000000000600052601160045260246000fd5b6000613342826127a1565b915061334d836127a1565b9250817fffffffffffffffffffffffffffffffffffffffffffffffffffffffffffffffff048311821515161561338657613385613308565b5b828202905092915050565b7f4e487b7100000000000000000000000000000000000000000000000000000000600052601260045260246000fd5b60006133cb826127a1565b91506133d6836127a1565b9250826133e6576133e5613391565b5b828204905092915050565b7f4e487b7100000000000000000000000000000000000000000000000000000000600052604160045260246000fd5b7f4e487b7100000000000000000000000000000000000000000000000000000000600052603260045260246000fd5b600061345a826127a1565b91507fffffffffffffffffffffffffffffffffffffffffffffffffffffffffffffffff820361348c5761348b613308565b5b600182019050919050565b7f4f776e61626c653a206e6577206f776e657220697320746865207a65726f206160008201527f6464726573730000000000000000000000000000000000000000000000000000602082015250565b60006134f3602683612ccc565b91506134fe82613497565b604082019050919050565b60006020820190508181036000830152613522816134e6565b9050919050565b7f537943726f774261727465723a20494e53554646494349454e545f42414c414e60008201527f4345000000000000000000000000000000000000000000000000000000000000602082015250565b6000613585602283612ccc565b915061359082613529565b604082019050919050565b600060208201905081810360008301526135b481613578565b9050919050565b7f537943726f774261727465723a20494e53554646494349454e545f434f4e545260008201527f4143545f42414c414e4345000000000000000000000000000000000000000000602082015250565b6000613617602b83612ccc565b9150613622826135bb565b604082019050919050565b600060208201905081810360008301526136468161360a565b9050919050565b600081519050919050565b600081905092915050565b60005b83811015613681578082015181840152602081019050613666565b83811115613690576000848401525b50505050565b60006136a18261364d565b6136ab8185613658565b93506136bb818560208601613663565b80840191505092915050565b60006136d38284613696565b915081905092915050565b7f5472616e7366657248656c7065723a204554485f5452414e534645525f46414960008201527f4c45440000000000000000000000000000000000000000000000000000000000602082015250565b600061373a602383612ccc565b9150613745826136de565b604082019050919050565b600060208201905081810360008301526137698161372d565b9050919050565b60006040820190506137856000830185612a84565b613792602083018461283a565b9392505050565b7f5472616e7366657248656c7065723a205452414e534645525f4641494c454400600082015250565b60006137cf601f83612ccc565b91506137da82613799565b602082019050919050565b600060208201905081810360008301526137fe816137c2565b9050919050565b7f537943726f774261727465723a204d554c54495f54524144455f4e4f545f454e60008201527f41424c4544000000000000000000000000000000000000000000000000000000602082015250565b6000613861602583612ccc565b915061386c82613805565b604082019050919050565b6000602082019050818103600083015261389081613854565b9050919050565b60006060820190506138ac6000830186612a84565b6138b96020830185612a84565b6138c6604083018461283a565b949350505050565b7f5472616e7366657248656c7065723a205452414e534645525f46524f4d5f464160008201527f494c454400000000000000000000000000000000000000000000000000000000602082015250565b600061392a602483612ccc565b9150613935826138ce565b604082019050919050565b600060208201905081810360008301526139598161391d565b905091905056fea26469706673582212206680e91ce1a8813d4c25d98bd753bd5ed4314ae7de49c29a5505bfe55c2876ba64736f6c634300080d0033",
					"opcodes": "PUSH1 0xA0 PUSH1 0x40 MSTORE PUSH1 0x0 PUSH1 0x3 PUSH1 0x15 PUSH2 0x100 EXP DUP2 SLOAD DUP2 PUSH1 0xFF MUL NOT AND SWAP1 DUP4 ISZERO ISZERO MUL OR SWAP1 SSTORE POP CALLVALUE DUP1 ISZERO PUSH3 0x2C JUMPI PUSH1 0x0 DUP1 REVERT JUMPDEST POP PUSH3 0x4D PUSH3 0x41 PUSH3 0x87 PUSH1 0x20 SHL PUSH1 0x20 SHR JUMP JUMPDEST PUSH3 0x8F PUSH1 0x20 SHL PUSH1 0x20 SHR JUMP JUMPDEST CALLER PUSH20 0xFFFFFFFFFFFFFFFFFFFFFFFFFFFFFFFFFFFFFFFF AND PUSH1 0x80 DUP2 PUSH20 0xFFFFFFFFFFFFFFFFFFFFFFFFFFFFFFFFFFFFFFFF AND DUP2 MSTORE POP POP PUSH3 0x153 JUMP JUMPDEST PUSH1 0x0 CALLER SWAP1 POP SWAP1 JUMP JUMPDEST PUSH1 0x0 DUP1 PUSH1 0x0 SWAP1 SLOAD SWAP1 PUSH2 0x100 EXP SWAP1 DIV PUSH20 0xFFFFFFFFFFFFFFFFFFFFFFFFFFFFFFFFFFFFFFFF AND SWAP1 POP DUP2 PUSH1 0x0 DUP1 PUSH2 0x100 EXP DUP2 SLOAD DUP2 PUSH20 0xFFFFFFFFFFFFFFFFFFFFFFFFFFFFFFFFFFFFFFFF MUL NOT AND SWAP1 DUP4 PUSH20 0xFFFFFFFFFFFFFFFFFFFFFFFFFFFFFFFFFFFFFFFF AND MUL OR SWAP1 SSTORE POP DUP2 PUSH20 0xFFFFFFFFFFFFFFFFFFFFFFFFFFFFFFFFFFFFFFFF AND DUP2 PUSH20 0xFFFFFFFFFFFFFFFFFFFFFFFFFFFFFFFFFFFFFFFF AND PUSH32 0x8BE0079C531659141344CD1FD0A4F28419497F9722A3DAAFE3B4186F6B6457E0 PUSH1 0x40 MLOAD PUSH1 0x40 MLOAD DUP1 SWAP2 SUB SWAP1 LOG3 POP POP JUMP JUMPDEST PUSH1 0x80 MLOAD PUSH2 0x3996 PUSH3 0x1A7 PUSH1 0x0 CODECOPY PUSH1 0x0 DUP2 DUP2 PUSH2 0x43A ADD MSTORE DUP2 DUP2 PUSH2 0x690 ADD MSTORE DUP2 DUP2 PUSH2 0xCFE ADD MSTORE DUP2 DUP2 PUSH2 0xEB6 ADD MSTORE DUP2 DUP2 PUSH2 0x1069 ADD MSTORE DUP2 DUP2 PUSH2 0x14F7 ADD MSTORE DUP2 DUP2 PUSH2 0x1C20 ADD MSTORE DUP2 DUP2 PUSH2 0x1F99 ADD MSTORE PUSH2 0x2508 ADD MSTORE PUSH2 0x3996 PUSH1 0x0 RETURN INVALID PUSH1 0x80 PUSH1 0x40 MSTORE PUSH1 0x4 CALLDATASIZE LT PUSH2 0xF3 JUMPI PUSH1 0x0 CALLDATALOAD PUSH1 0xE0 SHR DUP1 PUSH4 0x715018A6 GT PUSH2 0x8A JUMPI DUP1 PUSH4 0xC45A0155 GT PUSH2 0x59 JUMPI DUP1 PUSH4 0xC45A0155 EQ PUSH2 0x2D5 JUMPI DUP1 PUSH4 0xDAB5A8DF EQ PUSH2 0x300 JUMPI DUP1 PUSH4 0xE43372E9 EQ PUSH2 0x33D JUMPI DUP1 PUSH4 0xF2FDE38B EQ PUSH2 0x36A JUMPI PUSH2 0xF3 JUMP JUMPDEST DUP1 PUSH4 0x715018A6 EQ PUSH2 0x23C JUMPI DUP1 PUSH4 0x89523742 EQ PUSH2 0x253 JUMPI DUP1 PUSH4 0x8DA5CB5B EQ PUSH2 0x27E JUMPI DUP1 PUSH4 0xAA6CA808 EQ PUSH2 0x2A9 JUMPI PUSH2 0xF3 JUMP JUMPDEST DUP1 PUSH4 0x3D370B4E GT PUSH2 0xC6 JUMPI DUP1 PUSH4 0x3D370B4E EQ PUSH2 0x18C JUMPI DUP1 PUSH4 0x40A6F1AB EQ PUSH2 0x1B8 JUMPI DUP1 PUSH4 0x4341F920 EQ PUSH2 0x1E3 JUMPI DUP1 PUSH4 0x5F5780E5 EQ PUSH2 0x1FF JUMPI PUSH2 0xF3 JUMP JUMPDEST DUP1 PUSH4 0xD182605 EQ PUSH2 0xF8 JUMPI DUP1 PUSH4 0x2FFC6887 EQ PUSH2 0x121 JUMPI DUP1 PUSH4 0x3072CF60 EQ PUSH2 0x14A JUMPI DUP1 PUSH4 0x3CCFD60B EQ PUSH2 0x175 JUMPI JUMPDEST PUSH1 0x0 DUP1 REVERT JUMPDEST CALLVALUE DUP1 ISZERO PUSH2 0x104 JUMPI PUSH1 0x0 DUP1 REVERT JUMPDEST POP PUSH2 0x11F PUSH1 0x4 DUP1 CALLDATASIZE SUB DUP2 ADD SWAP1 PUSH2 0x11A SWAP2 SWAP1 PUSH2 0x27D7 JUMP JUMPDEST PUSH2 0x393 JUMP JUMPDEST STOP JUMPDEST CALLVALUE DUP1 ISZERO PUSH2 0x12D JUMPI PUSH1 0x0 DUP1 REVERT JUMPDEST POP PUSH2 0x148 PUSH1 0x4 DUP1 CALLDATASIZE SUB DUP2 ADD SWAP1 PUSH2 0x143 SWAP2 SWAP1 PUSH2 0x27D7 JUMP JUMPDEST PUSH2 0x5E9 JUMP JUMPDEST STOP JUMPDEST CALLVALUE DUP1 ISZERO PUSH2 0x156 JUMPI PUSH1 0x0 DUP1 REVERT JUMPDEST POP PUSH2 0x15F PUSH2 0x83F JUMP JUMPDEST PUSH1 0x40 MLOAD PUSH2 0x16C SWAP2 SWAP1 PUSH2 0x281F JUMP JUMPDEST PUSH1 0x40 MLOAD DUP1 SWAP2 SUB SWAP1 RETURN JUMPDEST CALLVALUE DUP1 ISZERO PUSH2 0x181 JUMPI PUSH1 0x0 DUP1 REVERT JUMPDEST POP PUSH2 0x18A PUSH2 0x852 JUMP JUMPDEST STOP JUMPDEST CALLVALUE DUP1 ISZERO PUSH2 0x198 JUMPI PUSH1 0x0 DUP1 REVERT JUMPDEST POP PUSH2 0x1A1 PUSH2 0xDA9 JUMP JUMPDEST PUSH1 0x40 MLOAD PUSH2 0x1AF SWAP3 SWAP2 SWAP1 PUSH2 0x2849 JUMP JUMPDEST PUSH1 0x40 MLOAD DUP1 SWAP2 SUB SWAP1 RETURN JUMPDEST CALLVALUE DUP1 ISZERO PUSH2 0x1C4 JUMPI PUSH1 0x0 DUP1 REVERT JUMPDEST POP PUSH2 0x1CD PUSH2 0xE09 JUMP JUMPDEST PUSH1 0x40 MLOAD PUSH2 0x1DA SWAP2 SWAP1 PUSH2 0x2872 JUMP JUMPDEST PUSH1 0x40 MLOAD DUP1 SWAP2 SUB SWAP1 RETURN JUMPDEST PUSH2 0x1FD PUSH1 0x4 DUP1 CALLDATASIZE SUB DUP2 ADD SWAP1 PUSH2 0x1F8 SWAP2 SWAP1 PUSH2 0x27D7 JUMP JUMPDEST PUSH2 0xE0F JUMP JUMPDEST STOP JUMPDEST CALLVALUE DUP1 ISZERO PUSH2 0x20B JUMPI PUSH1 0x0 DUP1 REVERT JUMPDEST POP PUSH2 0x226 PUSH1 0x4 DUP1 CALLDATASIZE SUB DUP2 ADD SWAP1 PUSH2 0x221 SWAP2 SWAP1 PUSH2 0x293C JUMP JUMPDEST PUSH2 0x1065 JUMP JUMPDEST PUSH1 0x40 MLOAD PUSH2 0x233 SWAP2 SWAP1 PUSH2 0x281F JUMP JUMPDEST PUSH1 0x40 MLOAD DUP1 SWAP2 SUB SWAP1 RETURN JUMPDEST CALLVALUE DUP1 ISZERO PUSH2 0x248 JUMPI PUSH1 0x0 DUP1 REVERT JUMPDEST POP PUSH2 0x251 PUSH2 0x1391 JUMP JUMPDEST STOP JUMPDEST CALLVALUE DUP1 ISZERO PUSH2 0x25F JUMPI PUSH1 0x0 DUP1 REVERT JUMPDEST POP PUSH2 0x268 PUSH2 0x1419 JUMP JUMPDEST PUSH1 0x40 MLOAD PUSH2 0x275 SWAP2 SWAP1 PUSH2 0x2A69 JUMP JUMPDEST PUSH1 0x40 MLOAD DUP1 SWAP2 SUB SWAP1 RETURN JUMPDEST CALLVALUE DUP1 ISZERO PUSH2 0x28A JUMPI PUSH1 0x0 DUP1 REVERT JUMPDEST POP PUSH2 0x293 PUSH2 0x142C JUMP JUMPDEST PUSH1 0x40 MLOAD PUSH2 0x2A0 SWAP2 SWAP1 PUSH2 0x2A93 JUMP JUMPDEST PUSH1 0x40 MLOAD DUP1 SWAP2 SUB SWAP1 RETURN JUMPDEST CALLVALUE DUP1 ISZERO PUSH2 0x2B5 JUMPI PUSH1 0x0 DUP1 REVERT JUMPDEST POP PUSH2 0x2BE PUSH2 0x1455 JUMP JUMPDEST PUSH1 0x40 MLOAD PUSH2 0x2CC SWAP3 SWAP2 SWAP1 PUSH2 0x2AAE JUMP JUMPDEST PUSH1 0x40 MLOAD DUP1 SWAP2 SUB SWAP1 RETURN JUMPDEST CALLVALUE DUP1 ISZERO PUSH2 0x2E1 JUMPI PUSH1 0x0 DUP1 REVERT JUMPDEST POP PUSH2 0x2EA PUSH2 0x14F5 JUMP JUMPDEST PUSH1 0x40 MLOAD PUSH2 0x2F7 SWAP2 SWAP1 PUSH2 0x2A93 JUMP JUMPDEST PUSH1 0x40 MLOAD DUP1 SWAP2 SUB SWAP1 RETURN JUMPDEST CALLVALUE DUP1 ISZERO PUSH2 0x30C JUMPI PUSH1 0x0 DUP1 REVERT JUMPDEST POP PUSH2 0x327 PUSH1 0x4 DUP1 CALLDATASIZE SUB DUP2 ADD SWAP1 PUSH2 0x322 SWAP2 SWAP1 PUSH2 0x27D7 JUMP JUMPDEST PUSH2 0x1519 JUMP JUMPDEST PUSH1 0x40 MLOAD PUSH2 0x334 SWAP2 SWAP1 PUSH2 0x2872 JUMP JUMPDEST PUSH1 0x40 MLOAD DUP1 SWAP2 SUB SWAP1 RETURN JUMPDEST CALLVALUE DUP1 ISZERO PUSH2 0x349 JUMPI PUSH1 0x0 DUP1 REVERT JUMPDEST POP PUSH2 0x352 PUSH2 0x153D JUMP JUMPDEST PUSH1 0x40 MLOAD PUSH2 0x361 SWAP4 SWAP3 SWAP2 SWAP1 PUSH2 0x2C53 JUMP JUMPDEST PUSH1 0x40 MLOAD DUP1 SWAP2 SUB SWAP1 RETURN JUMPDEST CALLVALUE DUP1 ISZERO PUSH2 0x376 JUMPI PUSH1 0x0 DUP1 REVERT JUMPDEST POP PUSH2 0x391 PUSH1 0x4 DUP1 CALLDATASIZE SUB DUP2 ADD SWAP1 PUSH2 0x38C SWAP2 SWAP1 PUSH2 0x2C9F JUMP JUMPDEST PUSH2 0x17D9 JUMP JUMPDEST STOP JUMPDEST TIMESTAMP PUSH1 0x2 SLOAD LT ISZERO DUP1 ISZERO PUSH2 0x3A8 JUMPI POP PUSH1 0x7 SLOAD PUSH1 0x1 SLOAD LT JUMPDEST PUSH2 0x3E7 JUMPI PUSH1 0x40 MLOAD PUSH32 0x8C379A000000000000000000000000000000000000000000000000000000000 DUP2 MSTORE PUSH1 0x4 ADD PUSH2 0x3DE SWAP1 PUSH2 0x2D29 JUMP JUMPDEST PUSH1 0x40 MLOAD DUP1 SWAP2 SUB SWAP1 REVERT JUMPDEST PUSH1 0x3 PUSH1 0x15 SWAP1 SLOAD SWAP1 PUSH2 0x100 EXP SWAP1 DIV PUSH1 0xFF AND PUSH2 0x436 JUMPI PUSH1 0x40 MLOAD PUSH32 0x8C379A000000000000000000000000000000000000000000000000000000000 DUP2 MSTORE PUSH1 0x4 ADD PUSH2 0x42D SWAP1 PUSH2 0x2D95 JUMP JUMPDEST PUSH1 0x40 MLOAD DUP1 SWAP2 SUB SWAP1 REVERT JUMPDEST PUSH1 0x0 PUSH32 0x0 SWAP1 POP DUP1 PUSH20 0xFFFFFFFFFFFFFFFFFFFFFFFFFFFFFFFFFFFFFFFF AND PUSH4 0xB187BD26 PUSH1 0x40 MLOAD DUP2 PUSH4 0xFFFFFFFF AND PUSH1 0xE0 SHL DUP2 MSTORE PUSH1 0x4 ADD PUSH1 0x20 PUSH1 0x40 MLOAD DUP1 DUP4 SUB DUP2 DUP7 GAS STATICCALL ISZERO DUP1 ISZERO PUSH2 0x4A6 JUMPI RETURNDATASIZE PUSH1 0x0 DUP1 RETURNDATACOPY RETURNDATASIZE PUSH1 0x0 REVERT JUMPDEST POP POP POP POP PUSH1 0x40 MLOAD RETURNDATASIZE PUSH1 0x1F NOT PUSH1 0x1F DUP3 ADD AND DUP3 ADD DUP1 PUSH1 0x40 MSTORE POP DUP2 ADD SWAP1 PUSH2 0x4CA SWAP2 SWAP1 PUSH2 0x2DCA JUMP JUMPDEST ISZERO PUSH2 0x50A JUMPI PUSH1 0x40 MLOAD PUSH32 0x8C379A000000000000000000000000000000000000000000000000000000000 DUP2 MSTORE PUSH1 0x4 ADD PUSH2 0x501 SWAP1 PUSH2 0x2E69 JUMP JUMPDEST PUSH1 0x40 MLOAD DUP1 SWAP2 SUB SWAP1 REVERT JUMPDEST PUSH1 0x0 PUSH1 0x3 PUSH1 0x0 SWAP1 SLOAD SWAP1 PUSH2 0x100 EXP SWAP1 DIV PUSH1 0xFF AND PUSH1 0x2 DUP2 GT ISZERO PUSH2 0x52E JUMPI PUSH2 0x52D PUSH2 0x29F2 JUMP JUMPDEST JUMPDEST DUP2 PUSH1 0x2 DUP2 GT ISZERO PUSH2 0x541 JUMPI PUSH2 0x540 PUSH2 0x29F2 JUMP JUMPDEST JUMPDEST EQ PUSH2 0x581 JUMPI PUSH1 0x40 MLOAD PUSH32 0x8C379A000000000000000000000000000000000000000000000000000000000 DUP2 MSTORE PUSH1 0x4 ADD PUSH2 0x578 SWAP1 PUSH2 0x2EFB JUMP JUMPDEST PUSH1 0x40 MLOAD DUP1 SWAP2 SUB SWAP1 REVERT JUMPDEST PUSH1 0x8 PUSH1 0x0 SWAP1 SLOAD SWAP1 PUSH2 0x100 EXP SWAP1 DIV PUSH1 0xFF AND PUSH2 0x5DB JUMPI PUSH1 0x7 SLOAD DUP4 LT ISZERO PUSH2 0x5DA JUMPI PUSH1 0x40 MLOAD PUSH32 0x8C379A000000000000000000000000000000000000000000000000000000000 DUP2 MSTORE PUSH1 0x4 ADD PUSH2 0x5D1 SWAP1 PUSH2 0x2F8D JUMP JUMPDEST PUSH1 0x40 MLOAD DUP1 SWAP2 SUB SWAP1 REVERT JUMPDEST JUMPDEST PUSH2 0x5E4 DUP4 PUSH2 0x18D0 JUMP JUMPDEST POP POP POP JUMP JUMPDEST TIMESTAMP PUSH1 0x2 SLOAD LT ISZERO DUP1 ISZERO PUSH2 0x5FE JUMPI POP PUSH1 0x7 SLOAD PUSH1 0x1 SLOAD LT JUMPDEST PUSH2 0x63D JUMPI PUSH1 0x40 MLOAD PUSH32 0x8C379A000000000000000000000000000000000000000000000000000000000 DUP2 MSTORE PUSH1 0x4 ADD PUSH2 0x634 SWAP1 PUSH2 0x2D29 JUMP JUMPDEST PUSH1 0x40 MLOAD DUP1 SWAP2 SUB SWAP1 REVERT JUMPDEST PUSH1 0x3 PUSH1 0x15 SWAP1 SLOAD SWAP1 PUSH2 0x100 EXP SWAP1 DIV PUSH1 0xFF AND PUSH2 0x68C JUMPI PUSH1 0x40 MLOAD PUSH32 0x8C379A000000000000000000000000000000000000000000000000000000000 DUP2 MSTORE PUSH1 0x4 ADD PUSH2 0x683 SWAP1 PUSH2 0x2D95 JUMP JUMPDEST PUSH1 0x40 MLOAD DUP1 SWAP2 SUB SWAP1 REVERT JUMPDEST PUSH1 0x0 PUSH32 0x0 SWAP1 POP DUP1 PUSH20 0xFFFFFFFFFFFFFFFFFFFFFFFFFFFFFFFFFFFFFFFF AND PUSH4 0xB187BD26 PUSH1 0x40 MLOAD DUP2 PUSH4 0xFFFFFFFF AND PUSH1 0xE0 SHL DUP2 MSTORE PUSH1 0x4 ADD PUSH1 0x20 PUSH1 0x40 MLOAD DUP1 DUP4 SUB DUP2 DUP7 GAS STATICCALL ISZERO DUP1 ISZERO PUSH2 0x6FC JUMPI RETURNDATASIZE PUSH1 0x0 DUP1 RETURNDATACOPY RETURNDATASIZE PUSH1 0x0 REVERT JUMPDEST POP POP POP POP PUSH1 0x40 MLOAD RETURNDATASIZE PUSH1 0x1F NOT PUSH1 0x1F DUP3 ADD AND DUP3 ADD DUP1 PUSH1 0x40 MSTORE POP DUP2 ADD SWAP1 PUSH2 0x720 SWAP2 SWAP1 PUSH2 0x2DCA JUMP JUMPDEST ISZERO PUSH2 0x760 JUMPI PUSH1 0x40 MLOAD PUSH32 0x8C379A000000000000000000000000000000000000000000000000000000000 DUP2 MSTORE PUSH1 0x4 ADD PUSH2 0x757 SWAP1 PUSH2 0x2E69 JUMP JUMPDEST PUSH1 0x40 MLOAD DUP1 SWAP2 SUB SWAP1 REVERT JUMPDEST PUSH1 0x2 PUSH1 0x3 PUSH1 0x0 SWAP1 SLOAD SWAP1 PUSH2 0x100 EXP SWAP1 DIV PUSH1 0xFF AND PUSH1 0x2 DUP2 GT ISZERO PUSH2 0x784 JUMPI PUSH2 0x783 PUSH2 0x29F2 JUMP JUMPDEST JUMPDEST DUP2 PUSH1 0x2 DUP2 GT ISZERO PUSH2 0x797 JUMPI PUSH2 0x796 PUSH2 0x29F2 JUMP JUMPDEST JUMPDEST EQ PUSH2 0x7D7 JUMPI PUSH1 0x40 MLOAD PUSH32 0x8C379A000000000000000000000000000000000000000000000000000000000 DUP2 MSTORE PUSH1 0x4 ADD PUSH2 0x7CE SWAP1 PUSH2 0x2EFB JUMP JUMPDEST PUSH1 0x40 MLOAD DUP1 SWAP2 SUB SWAP1 REVERT JUMPDEST PUSH1 0x8 PUSH1 0x0 SWAP1 SLOAD SWAP1 PUSH2 0x100 EXP SWAP1 DIV PUSH1 0xFF AND PUSH2 0x831 JUMPI PUSH1 0x7 SLOAD DUP4 LT ISZERO PUSH2 0x830 JUMPI PUSH1 0x40 MLOAD PUSH32 0x8C379A000000000000000000000000000000000000000000000000000000000 DUP2 MSTORE PUSH1 0x4 ADD PUSH2 0x827 SWAP1 PUSH2 0x2F8D JUMP JUMPDEST PUSH1 0x40 MLOAD DUP1 SWAP2 SUB SWAP1 REVERT JUMPDEST JUMPDEST PUSH2 0x83A DUP4 PUSH2 0x1CB8 JUMP JUMPDEST POP POP POP JUMP JUMPDEST PUSH1 0x3 PUSH1 0x15 SWAP1 SLOAD SWAP1 PUSH2 0x100 EXP SWAP1 DIV PUSH1 0xFF AND DUP2 JUMP JUMPDEST TIMESTAMP PUSH1 0x2 SLOAD LT DUP1 PUSH2 0x866 JUMPI POP PUSH1 0x7 SLOAD PUSH1 0x1 SLOAD LT ISZERO JUMPDEST PUSH2 0x8A5 JUMPI PUSH1 0x40 MLOAD PUSH32 0x8C379A000000000000000000000000000000000000000000000000000000000 DUP2 MSTORE PUSH1 0x4 ADD PUSH2 0x89C SWAP1 PUSH2 0x2FF9 JUMP JUMPDEST PUSH1 0x40 MLOAD DUP1 SWAP2 SUB SWAP1 REVERT JUMPDEST PUSH1 0x3 PUSH1 0x15 SWAP1 SLOAD SWAP1 PUSH2 0x100 EXP SWAP1 DIV PUSH1 0xFF AND PUSH2 0x8F4 JUMPI PUSH1 0x40 MLOAD PUSH32 0x8C379A000000000000000000000000000000000000000000000000000000000 DUP2 MSTORE PUSH1 0x4 ADD PUSH2 0x8EB SWAP1 PUSH2 0x2D95 JUMP JUMPDEST PUSH1 0x40 MLOAD DUP1 SWAP2 SUB SWAP1 REVERT JUMPDEST PUSH2 0x8FC PUSH2 0x2030 JUMP JUMPDEST PUSH20 0xFFFFFFFFFFFFFFFFFFFFFFFFFFFFFFFFFFFFFFFF AND PUSH2 0x91A PUSH2 0x142C JUMP JUMPDEST PUSH20 0xFFFFFFFFFFFFFFFFFFFFFFFFFFFFFFFFFFFFFFFF AND EQ PUSH2 0x970 JUMPI PUSH1 0x40 MLOAD PUSH32 0x8C379A000000000000000000000000000000000000000000000000000000000 DUP2 MSTORE PUSH1 0x4 ADD PUSH2 0x967 SWAP1 PUSH2 0x3065 JUMP JUMPDEST PUSH1 0x40 MLOAD DUP1 SWAP2 SUB SWAP1 REVERT JUMPDEST PUSH1 0x0 PUSH1 0x3 PUSH1 0x1 SWAP1 SLOAD SWAP1 PUSH2 0x100 EXP SWAP1 DIV PUSH20 0xFFFFFFFFFFFFFFFFFFFFFFFFFFFFFFFFFFFFFFFF AND SWAP1 POP PUSH1 0x0 DUP2 PUSH20 0xFFFFFFFFFFFFFFFFFFFFFFFFFFFFFFFFFFFFFFFF AND PUSH4 0x70A08231 ADDRESS PUSH1 0x40 MLOAD DUP3 PUSH4 0xFFFFFFFF AND PUSH1 0xE0 SHL DUP2 MSTORE PUSH1 0x4 ADD PUSH2 0x9D2 SWAP2 SWAP1 PUSH2 0x2A93 JUMP JUMPDEST PUSH1 0x20 PUSH1 0x40 MLOAD DUP1 DUP4 SUB DUP2 DUP7 GAS STATICCALL ISZERO DUP1 ISZERO PUSH2 0x9EF JUMPI RETURNDATASIZE PUSH1 0x0 DUP1 RETURNDATACOPY RETURNDATASIZE PUSH1 0x0 REVERT JUMPDEST POP POP POP POP PUSH1 0x40 MLOAD RETURNDATASIZE PUSH1 0x1F NOT PUSH1 0x1F DUP3 ADD AND DUP3 ADD DUP1 PUSH1 0x40 MSTORE POP DUP2 ADD SWAP1 PUSH2 0xA13 SWAP2 SWAP1 PUSH2 0x309A JUMP JUMPDEST SWAP1 POP PUSH1 0x0 DUP2 GT ISZERO PUSH2 0xAB6 JUMPI PUSH1 0x3 PUSH1 0x1 SWAP1 SLOAD SWAP1 PUSH2 0x100 EXP SWAP1 DIV PUSH20 0xFFFFFFFFFFFFFFFFFFFFFFFFFFFFFFFFFFFFFFFF AND PUSH20 0xFFFFFFFFFFFFFFFFFFFFFFFFFFFFFFFFFFFFFFFF AND PUSH4 0x2E1A7D4D DUP3 PUSH1 0x40 MLOAD DUP3 PUSH4 0xFFFFFFFF AND PUSH1 0xE0 SHL DUP2 MSTORE PUSH1 0x4 ADD PUSH2 0xA79 SWAP2 SWAP1 PUSH2 0x2872 JUMP JUMPDEST PUSH1 0x0 PUSH1 0x40 MLOAD DUP1 DUP4 SUB DUP2 PUSH1 0x0 DUP8 DUP1 EXTCODESIZE ISZERO DUP1 ISZERO PUSH2 0xA93 JUMPI PUSH1 0x0 DUP1 REVERT JUMPDEST POP GAS CALL ISZERO DUP1 ISZERO PUSH2 0xAA7 JUMPI RETURNDATASIZE PUSH1 0x0 DUP1 RETURNDATACOPY RETURNDATASIZE PUSH1 0x0 REVERT JUMPDEST POP POP POP POP PUSH2 0xAB5 CALLER DUP3 PUSH2 0x2038 JUMP JUMPDEST JUMPDEST PUSH1 0x0 PUSH1 0x5 PUSH1 0x0 SWAP1 SLOAD SWAP1 PUSH2 0x100 EXP SWAP1 DIV PUSH20 0xFFFFFFFFFFFFFFFFFFFFFFFFFFFFFFFFFFFFFFFF AND PUSH20 0xFFFFFFFFFFFFFFFFFFFFFFFFFFFFFFFFFFFFFFFF AND PUSH4 0x70A08231 ADDRESS PUSH1 0x40 MLOAD DUP3 PUSH4 0xFFFFFFFF AND PUSH1 0xE0 SHL DUP2 MSTORE PUSH1 0x4 ADD PUSH2 0xB13 SWAP2 SWAP1 PUSH2 0x2A93 JUMP JUMPDEST PUSH1 0x20 PUSH1 0x40 MLOAD DUP1 DUP4 SUB DUP2 DUP7 GAS STATICCALL ISZERO DUP1 ISZERO PUSH2 0xB30 JUMPI RETURNDATASIZE PUSH1 0x0 DUP1 RETURNDATACOPY RETURNDATASIZE PUSH1 0x0 REVERT JUMPDEST POP POP POP POP PUSH1 0x40 MLOAD RETURNDATASIZE PUSH1 0x1F NOT PUSH1 0x1F DUP3 ADD AND DUP3 ADD DUP1 PUSH1 0x40 MSTORE POP DUP2 ADD SWAP1 PUSH2 0xB54 SWAP2 SWAP1 PUSH2 0x309A JUMP JUMPDEST SWAP1 POP PUSH1 0x0 DUP2 GT ISZERO PUSH2 0xB8D JUMPI PUSH2 0xB8C PUSH1 0x5 PUSH1 0x0 SWAP1 SLOAD SWAP1 PUSH2 0x100 EXP SWAP1 DIV PUSH20 0xFFFFFFFFFFFFFFFFFFFFFFFFFFFFFFFFFFFFFFFF AND CALLER DUP4 PUSH2 0x2138 JUMP JUMPDEST JUMPDEST PUSH1 0x0 PUSH1 0x4 PUSH1 0x0 SWAP1 SLOAD SWAP1 PUSH2 0x100 EXP SWAP1 DIV PUSH20 0xFFFFFFFFFFFFFFFFFFFFFFFFFFFFFFFFFFFFFFFF AND PUSH20 0xFFFFFFFFFFFFFFFFFFFFFFFFFFFFFFFFFFFFFFFF AND PUSH4 0x70A08231 ADDRESS PUSH1 0x40 MLOAD DUP3 PUSH4 0xFFFFFFFF AND PUSH1 0xE0 SHL DUP2 MSTORE PUSH1 0x4 ADD PUSH2 0xBEA SWAP2 SWAP1 PUSH2 0x2A93 JUMP JUMPDEST PUSH1 0x20 PUSH1 0x40 MLOAD DUP1 DUP4 SUB DUP2 DUP7 GAS STATICCALL ISZERO DUP1 ISZERO PUSH2 0xC07 JUMPI RETURNDATASIZE PUSH1 0x0 DUP1 RETURNDATACOPY RETURNDATASIZE PUSH1 0x0 REVERT JUMPDEST POP POP POP POP PUSH1 0x40 MLOAD RETURNDATASIZE PUSH1 0x1F NOT PUSH1 0x1F DUP3 ADD AND DUP3 ADD DUP1 PUSH1 0x40 MSTORE POP DUP2 ADD SWAP1 PUSH2 0xC2B SWAP2 SWAP1 PUSH2 0x309A JUMP JUMPDEST SWAP1 POP PUSH1 0x0 DUP2 GT ISZERO PUSH2 0xC64 JUMPI PUSH2 0xC63 PUSH1 0x4 PUSH1 0x0 SWAP1 SLOAD SWAP1 PUSH2 0x100 EXP SWAP1 DIV PUSH20 0xFFFFFFFFFFFFFFFFFFFFFFFFFFFFFFFFFFFFFFFF AND CALLER DUP4 PUSH2 0x2138 JUMP JUMPDEST JUMPDEST PUSH1 0x0 DUP1 PUSH1 0x0 PUSH1 0x2 DUP2 GT ISZERO PUSH2 0xC7B JUMPI PUSH2 0xC7A PUSH2 0x29F2 JUMP JUMPDEST JUMPDEST PUSH1 0x3 PUSH1 0x0 SWAP1 SLOAD SWAP1 PUSH2 0x100 EXP SWAP1 DIV PUSH1 0xFF AND PUSH1 0x2 DUP2 GT ISZERO PUSH2 0xC9D JUMPI PUSH2 0xC9C PUSH2 0x29F2 JUMP JUMPDEST JUMPDEST SUB PUSH2 0xCAD JUMPI DUP5 SWAP2 POP DUP4 SWAP1 POP PUSH2 0xCFA JUMP JUMPDEST PUSH1 0x2 DUP1 DUP2 GT ISZERO PUSH2 0xCC0 JUMPI PUSH2 0xCBF PUSH2 0x29F2 JUMP JUMPDEST JUMPDEST PUSH1 0x3 PUSH1 0x0 SWAP1 SLOAD SWAP1 PUSH2 0x100 EXP SWAP1 DIV PUSH1 0xFF AND PUSH1 0x2 DUP2 GT ISZERO PUSH2 0xCE2 JUMPI PUSH2 0xCE1 PUSH2 0x29F2 JUMP JUMPDEST JUMPDEST SUB PUSH2 0xCF2 JUMPI DUP3 SWAP2 POP DUP4 SWAP1 POP PUSH2 0xCF9 JUMP JUMPDEST DUP3 SWAP2 POP DUP5 SWAP1 POP JUMPDEST JUMPDEST PUSH1 0x0 PUSH32 0x0 SWAP1 POP DUP1 PUSH20 0xFFFFFFFFFFFFFFFFFFFFFFFFFFFFFFFFFFFFFFFF AND PUSH4 0x33796A0E ADDRESS CALLER DUP7 DUP7 PUSH1 0x40 MLOAD DUP6 PUSH4 0xFFFFFFFF AND PUSH1 0xE0 SHL DUP2 MSTORE PUSH1 0x4 ADD PUSH2 0xD5E SWAP5 SWAP4 SWAP3 SWAP2 SWAP1 PUSH2 0x30C7 JUMP JUMPDEST PUSH1 0x0 PUSH1 0x40 MLOAD DUP1 DUP4 SUB DUP2 PUSH1 0x0 DUP8 DUP1 EXTCODESIZE ISZERO DUP1 ISZERO PUSH2 0xD78 JUMPI PUSH1 0x0 DUP1 REVERT JUMPDEST POP GAS CALL ISZERO DUP1 ISZERO PUSH2 0xD8C JUMPI RETURNDATASIZE PUSH1 0x0 DUP1 RETURNDATACOPY RETURNDATASIZE PUSH1 0x0 REVERT JUMPDEST POP POP POP POP CALLER PUSH20 0xFFFFFFFFFFFFFFFFFFFFFFFFFFFFFFFFFFFFFFFF AND SELFDESTRUCT JUMPDEST PUSH1 0x0 DUP1 PUSH1 0x3 PUSH1 0x15 SWAP1 SLOAD SWAP1 PUSH2 0x100 EXP SWAP1 DIV PUSH1 0xFF AND PUSH2 0xDFB JUMPI PUSH1 0x40 MLOAD PUSH32 0x8C379A000000000000000000000000000000000000000000000000000000000 DUP2 MSTORE PUSH1 0x4 ADD PUSH2 0xDF2 SWAP1 PUSH2 0x2D95 JUMP JUMPDEST PUSH1 0x40 MLOAD DUP1 SWAP2 SUB SWAP1 REVERT JUMPDEST PUSH1 0x6 SLOAD PUSH1 0x7 SLOAD SWAP2 POP SWAP2 POP SWAP1 SWAP2 JUMP JUMPDEST PUSH1 0x1 SLOAD DUP2 JUMP JUMPDEST TIMESTAMP PUSH1 0x2 SLOAD LT ISZERO DUP1 ISZERO PUSH2 0xE24 JUMPI POP PUSH1 0x7 SLOAD PUSH1 0x1 SLOAD LT JUMPDEST PUSH2 0xE63 JUMPI PUSH1 0x40 MLOAD PUSH32 0x8C379A000000000000000000000000000000000000000000000000000000000 DUP2 MSTORE PUSH1 0x4 ADD PUSH2 0xE5A SWAP1 PUSH2 0x2D29 JUMP JUMPDEST PUSH1 0x40 MLOAD DUP1 SWAP2 SUB SWAP1 REVERT JUMPDEST PUSH1 0x3 PUSH1 0x15 SWAP1 SLOAD SWAP1 PUSH2 0x100 EXP SWAP1 DIV PUSH1 0xFF AND PUSH2 0xEB2 JUMPI PUSH1 0x40 MLOAD PUSH32 0x8C379A000000000000000000000000000000000000000000000000000000000 DUP2 MSTORE PUSH1 0x4 ADD PUSH2 0xEA9 SWAP1 PUSH2 0x2D95 JUMP JUMPDEST PUSH1 0x40 MLOAD DUP1 SWAP2 SUB SWAP1 REVERT JUMPDEST PUSH1 0x0 PUSH32 0x0 SWAP1 POP DUP1 PUSH20 0xFFFFFFFFFFFFFFFFFFFFFFFFFFFFFFFFFFFFFFFF AND PUSH4 0xB187BD26 PUSH1 0x40 MLOAD DUP2 PUSH4 0xFFFFFFFF AND PUSH1 0xE0 SHL DUP2 MSTORE PUSH1 0x4 ADD PUSH1 0x20 PUSH1 0x40 MLOAD DUP1 DUP4 SUB DUP2 DUP7 GAS STATICCALL ISZERO DUP1 ISZERO PUSH2 0xF22 JUMPI RETURNDATASIZE PUSH1 0x0 DUP1 RETURNDATACOPY RETURNDATASIZE PUSH1 0x0 REVERT JUMPDEST POP POP POP POP PUSH1 0x40 MLOAD RETURNDATASIZE PUSH1 0x1F NOT PUSH1 0x1F DUP3 ADD AND DUP3 ADD DUP1 PUSH1 0x40 MSTORE POP DUP2 ADD SWAP1 PUSH2 0xF46 SWAP2 SWAP1 PUSH2 0x2DCA JUMP JUMPDEST ISZERO PUSH2 0xF86 JUMPI PUSH1 0x40 MLOAD PUSH32 0x8C379A000000000000000000000000000000000000000000000000000000000 DUP2 MSTORE PUSH1 0x4 ADD PUSH2 0xF7D SWAP1 PUSH2 0x2E69 JUMP JUMPDEST PUSH1 0x40 MLOAD DUP1 SWAP2 SUB SWAP1 REVERT JUMPDEST PUSH1 0x1 PUSH1 0x3 PUSH1 0x0 SWAP1 SLOAD SWAP1 PUSH2 0x100 EXP SWAP1 DIV PUSH1 0xFF AND PUSH1 0x2 DUP2 GT ISZERO PUSH2 0xFAA JUMPI PUSH2 0xFA9 PUSH2 0x29F2 JUMP JUMPDEST JUMPDEST DUP2 PUSH1 0x2 DUP2 GT ISZERO PUSH2 0xFBD JUMPI PUSH2 0xFBC PUSH2 0x29F2 JUMP JUMPDEST JUMPDEST EQ PUSH2 0xFFD JUMPI PUSH1 0x40 MLOAD PUSH32 0x8C379A000000000000000000000000000000000000000000000000000000000 DUP2 MSTORE PUSH1 0x4 ADD PUSH2 0xFF4 SWAP1 PUSH2 0x2EFB JUMP JUMPDEST PUSH1 0x40 MLOAD DUP1 SWAP2 SUB SWAP1 REVERT JUMPDEST PUSH1 0x8 PUSH1 0x0 SWAP1 SLOAD SWAP1 PUSH2 0x100 EXP SWAP1 DIV PUSH1 0xFF AND PUSH2 0x1057 JUMPI PUSH1 0x7 SLOAD CALLVALUE LT ISZERO PUSH2 0x1056 JUMPI PUSH1 0x40 MLOAD PUSH32 0x8C379A000000000000000000000000000000000000000000000000000000000 DUP2 MSTORE PUSH1 0x4 ADD PUSH2 0x104D SWAP1 PUSH2 0x2F8D JUMP JUMPDEST PUSH1 0x40 MLOAD DUP1 SWAP2 SUB SWAP1 REVERT JUMPDEST JUMPDEST PUSH2 0x1060 DUP4 PUSH2 0x226E JUMP JUMPDEST POP POP POP JUMP JUMPDEST PUSH1 0x0 PUSH32 0x0 PUSH20 0xFFFFFFFFFFFFFFFFFFFFFFFFFFFFFFFFFFFFFFFF AND CALLER PUSH20 0xFFFFFFFFFFFFFFFFFFFFFFFFFFFFFFFFFFFFFFFF AND EQ PUSH2 0x10F5 JUMPI PUSH1 0x40 MLOAD PUSH32 0x8C379A000000000000000000000000000000000000000000000000000000000 DUP2 MSTORE PUSH1 0x4 ADD PUSH2 0x10EC SWAP1 PUSH2 0x3158 JUMP JUMPDEST PUSH1 0x40 MLOAD DUP1 SWAP2 SUB SWAP1 REVERT JUMPDEST PUSH1 0x3 PUSH1 0x15 SWAP1 SLOAD SWAP1 PUSH2 0x100 EXP SWAP1 DIV PUSH1 0xFF AND ISZERO PUSH2 0x1145 JUMPI PUSH1 0x40 MLOAD PUSH32 0x8C379A000000000000000000000000000000000000000000000000000000000 DUP2 MSTORE PUSH1 0x4 ADD PUSH2 0x113C SWAP1 PUSH2 0x31EA JUMP JUMPDEST PUSH1 0x40 MLOAD DUP1 SWAP2 SUB SWAP1 REVERT JUMPDEST TIMESTAMP DUP5 LT PUSH2 0x1187 JUMPI PUSH1 0x40 MLOAD PUSH32 0x8C379A000000000000000000000000000000000000000000000000000000000 DUP2 MSTORE PUSH1 0x4 ADD PUSH2 0x117E SWAP1 PUSH2 0x3256 JUMP JUMPDEST PUSH1 0x40 MLOAD DUP1 SWAP2 SUB SWAP1 REVERT JUMPDEST DUP6 DUP9 PUSH20 0xFFFFFFFFFFFFFFFFFFFFFFFFFFFFFFFFFFFFFFFF AND PUSH4 0x70A08231 ADDRESS PUSH1 0x40 MLOAD DUP3 PUSH4 0xFFFFFFFF AND PUSH1 0xE0 SHL DUP2 MSTORE PUSH1 0x4 ADD PUSH2 0x11C1 SWAP2 SWAP1 PUSH2 0x2A93 JUMP JUMPDEST PUSH1 0x20 PUSH1 0x40 MLOAD DUP1 DUP4 SUB DUP2 DUP7 GAS STATICCALL ISZERO DUP1 ISZERO PUSH2 0x11DE JUMPI RETURNDATASIZE PUSH1 0x0 DUP1 RETURNDATACOPY RETURNDATASIZE PUSH1 0x0 REVERT JUMPDEST POP POP POP POP PUSH1 0x40 MLOAD RETURNDATASIZE PUSH1 0x1F NOT PUSH1 0x1F DUP3 ADD AND DUP3 ADD DUP1 PUSH1 0x40 MSTORE POP DUP2 ADD SWAP1 PUSH2 0x1202 SWAP2 SWAP1 PUSH2 0x309A JUMP JUMPDEST LT ISZERO PUSH2 0x1243 JUMPI PUSH1 0x40 MLOAD PUSH32 0x8C379A000000000000000000000000000000000000000000000000000000000 DUP2 MSTORE PUSH1 0x4 ADD PUSH2 0x123A SWAP1 PUSH2 0x32E8 JUMP JUMPDEST PUSH1 0x40 MLOAD DUP1 SWAP2 SUB SWAP1 REVERT JUMPDEST DUP8 PUSH1 0x4 PUSH1 0x0 PUSH2 0x100 EXP DUP2 SLOAD DUP2 PUSH20 0xFFFFFFFFFFFFFFFFFFFFFFFFFFFFFFFFFFFFFFFF MUL NOT AND SWAP1 DUP4 PUSH20 0xFFFFFFFFFFFFFFFFFFFFFFFFFFFFFFFFFFFFFFFF AND MUL OR SWAP1 SSTORE POP DUP7 PUSH1 0x5 PUSH1 0x0 PUSH2 0x100 EXP DUP2 SLOAD DUP2 PUSH20 0xFFFFFFFFFFFFFFFFFFFFFFFFFFFFFFFFFFFFFFFF MUL NOT AND SWAP1 DUP4 PUSH20 0xFFFFFFFFFFFFFFFFFFFFFFFFFFFFFFFFFFFFFFFF AND MUL OR SWAP1 SSTORE POP DUP6 PUSH1 0x6 DUP2 SWAP1 SSTORE POP DUP5 PUSH1 0x7 DUP2 SWAP1 SSTORE POP DUP9 PUSH1 0x3 PUSH1 0x0 PUSH2 0x100 EXP DUP2 SLOAD DUP2 PUSH1 0xFF MUL NOT AND SWAP1 DUP4 PUSH1 0x2 DUP2 GT ISZERO PUSH2 0x12F8 JUMPI PUSH2 0x12F7 PUSH2 0x29F2 JUMP JUMPDEST JUMPDEST MUL OR SWAP1 SSTORE POP DUP3 PUSH1 0x8 PUSH1 0x0 PUSH2 0x100 EXP DUP2 SLOAD DUP2 PUSH1 0xFF MUL NOT AND SWAP1 DUP4 ISZERO ISZERO MUL OR SWAP1 SSTORE POP DUP2 PUSH1 0x3 PUSH1 0x1 PUSH2 0x100 EXP DUP2 SLOAD DUP2 PUSH20 0xFFFFFFFFFFFFFFFFFFFFFFFFFFFFFFFFFFFFFFFF MUL NOT AND SWAP1 DUP4 PUSH20 0xFFFFFFFFFFFFFFFFFFFFFFFFFFFFFFFFFFFFFFFF AND MUL OR SWAP1 SSTORE POP PUSH1 0x1 PUSH1 0x3 PUSH1 0x15 PUSH2 0x100 EXP DUP2 SLOAD DUP2 PUSH1 0xFF MUL NOT AND SWAP1 DUP4 ISZERO ISZERO MUL OR SWAP1 SSTORE POP PUSH1 0x3 PUSH1 0x15 SWAP1 SLOAD SWAP1 PUSH2 0x100 EXP SWAP1 DIV PUSH1 0xFF AND SWAP1 POP SWAP9 SWAP8 POP POP POP POP POP POP POP POP JUMP JUMPDEST PUSH2 0x1399 PUSH2 0x2030 JUMP JUMPDEST PUSH20 0xFFFFFFFFFFFFFFFFFFFFFFFFFFFFFFFFFFFFFFFF AND PUSH2 0x13B7 PUSH2 0x142C JUMP JUMPDEST PUSH20 0xFFFFFFFFFFFFFFFFFFFFFFFFFFFFFFFFFFFFFFFF AND EQ PUSH2 0x140D JUMPI PUSH1 0x40 MLOAD PUSH32 0x8C379A000000000000000000000000000000000000000000000000000000000 DUP2 MSTORE PUSH1 0x4 ADD PUSH2 0x1404 SWAP1 PUSH2 0x3065 JUMP JUMPDEST PUSH1 0x40 MLOAD DUP1 SWAP2 SUB SWAP1 REVERT JUMPDEST PUSH2 0x1417 PUSH1 0x0 PUSH2 0x259F JUMP JUMPDEST JUMP JUMPDEST PUSH1 0x3 PUSH1 0x0 SWAP1 SLOAD SWAP1 PUSH2 0x100 EXP SWAP1 DIV PUSH1 0xFF AND DUP2 JUMP JUMPDEST PUSH1 0x0 DUP1 PUSH1 0x0 SWAP1 SLOAD SWAP1 PUSH2 0x100 EXP SWAP1 DIV PUSH20 0xFFFFFFFFFFFFFFFFFFFFFFFFFFFFFFFFFFFFFFFF AND SWAP1 POP SWAP1 JUMP JUMPDEST PUSH1 0x0 DUP1 PUSH1 0x3 PUSH1 0x15 SWAP1 SLOAD SWAP1 PUSH2 0x100 EXP SWAP1 DIV PUSH1 0xFF AND PUSH2 0x14A7 JUMPI PUSH1 0x40 MLOAD PUSH32 0x8C379A000000000000000000000000000000000000000000000000000000000 DUP2 MSTORE PUSH1 0x4 ADD PUSH2 0x149E SWAP1 PUSH2 0x2D95 JUMP JUMPDEST PUSH1 0x40 MLOAD DUP1 SWAP2 SUB SWAP1 REVERT JUMPDEST PUSH1 0x4 PUSH1 0x0 SWAP1 SLOAD SWAP1 PUSH2 0x100 EXP SWAP1 DIV PUSH20 0xFFFFFFFFFFFFFFFFFFFFFFFFFFFFFFFFFFFFFFFF AND PUSH1 0x5 PUSH1 0x0 SWAP1 SLOAD SWAP1 PUSH2 0x100 EXP SWAP1 DIV PUSH20 0xFFFFFFFFFFFFFFFFFFFFFFFFFFFFFFFFFFFFFFFF AND SWAP2 POP SWAP2 POP SWAP1 SWAP2 JUMP JUMPDEST PUSH32 0x0 DUP2 JUMP JUMPDEST PUSH1 0x0 PUSH1 0x7 SLOAD PUSH1 0x6 SLOAD DUP4 PUSH2 0x152C SWAP2 SWAP1 PUSH2 0x3337 JUMP JUMPDEST PUSH2 0x1536 SWAP2 SWAP1 PUSH2 0x33C0 JUMP JUMPDEST SWAP1 POP SWAP2 SWAP1 POP JUMP JUMPDEST PUSH1 0x60 DUP1 PUSH1 0x60 PUSH1 0x3 PUSH1 0x15 SWAP1 SLOAD SWAP1 PUSH2 0x100 EXP SWAP1 DIV PUSH1 0xFF AND PUSH2 0x1591 JUMPI PUSH1 0x40 MLOAD PUSH32 0x8C379A000000000000000000000000000000000000000000000000000000000 DUP2 MSTORE PUSH1 0x4 ADD PUSH2 0x1588 SWAP1 PUSH2 0x2D95 JUMP JUMPDEST PUSH1 0x40 MLOAD DUP1 SWAP2 SUB SWAP1 REVERT JUMPDEST PUSH1 0x0 PUSH1 0x9 DUP1 SLOAD SWAP1 POP PUSH8 0xFFFFFFFFFFFFFFFF DUP2 GT ISZERO PUSH2 0x15B2 JUMPI PUSH2 0x15B1 PUSH2 0x33F1 JUMP JUMPDEST JUMPDEST PUSH1 0x40 MLOAD SWAP1 DUP1 DUP3 MSTORE DUP1 PUSH1 0x20 MUL PUSH1 0x20 ADD DUP3 ADD PUSH1 0x40 MSTORE DUP1 ISZERO PUSH2 0x15E0 JUMPI DUP2 PUSH1 0x20 ADD PUSH1 0x20 DUP3 MUL DUP1 CALLDATASIZE DUP4 CALLDATACOPY DUP1 DUP3 ADD SWAP2 POP POP SWAP1 POP JUMPDEST POP SWAP1 POP PUSH1 0x0 PUSH1 0x9 DUP1 SLOAD SWAP1 POP PUSH8 0xFFFFFFFFFFFFFFFF DUP2 GT ISZERO PUSH2 0x1604 JUMPI PUSH2 0x1603 PUSH2 0x33F1 JUMP JUMPDEST JUMPDEST PUSH1 0x40 MLOAD SWAP1 DUP1 DUP3 MSTORE DUP1 PUSH1 0x20 MUL PUSH1 0x20 ADD DUP3 ADD PUSH1 0x40 MSTORE DUP1 ISZERO PUSH2 0x1632 JUMPI DUP2 PUSH1 0x20 ADD PUSH1 0x20 DUP3 MUL DUP1 CALLDATASIZE DUP4 CALLDATACOPY DUP1 DUP3 ADD SWAP2 POP POP SWAP1 POP JUMPDEST POP SWAP1 POP PUSH1 0x0 PUSH1 0x9 DUP1 SLOAD SWAP1 POP PUSH8 0xFFFFFFFFFFFFFFFF DUP2 GT ISZERO PUSH2 0x1656 JUMPI PUSH2 0x1655 PUSH2 0x33F1 JUMP JUMPDEST JUMPDEST PUSH1 0x40 MLOAD SWAP1 DUP1 DUP3 MSTORE DUP1 PUSH1 0x20 MUL PUSH1 0x20 ADD DUP3 ADD PUSH1 0x40 MSTORE DUP1 ISZERO PUSH2 0x1684 JUMPI DUP2 PUSH1 0x20 ADD PUSH1 0x20 DUP3 MUL DUP1 CALLDATASIZE DUP4 CALLDATACOPY DUP1 DUP3 ADD SWAP2 POP POP SWAP1 POP JUMPDEST POP SWAP1 POP PUSH1 0x0 JUMPDEST PUSH1 0x9 DUP1 SLOAD SWAP1 POP DUP2 LT ISZERO PUSH2 0x17C7 JUMPI PUSH1 0x9 DUP2 DUP2 SLOAD DUP2 LT PUSH2 0x16AB JUMPI PUSH2 0x16AA PUSH2 0x3420 JUMP JUMPDEST JUMPDEST SWAP1 PUSH1 0x0 MSTORE PUSH1 0x20 PUSH1 0x0 KECCAK256 SWAP1 PUSH1 0x3 MUL ADD PUSH1 0x0 ADD PUSH1 0x0 SWAP1 SLOAD SWAP1 PUSH2 0x100 EXP SWAP1 DIV PUSH20 0xFFFFFFFFFFFFFFFFFFFFFFFFFFFFFFFFFFFFFFFF AND DUP5 DUP3 DUP2 MLOAD DUP2 LT PUSH2 0x16F0 JUMPI PUSH2 0x16EF PUSH2 0x3420 JUMP JUMPDEST JUMPDEST PUSH1 0x20 MUL PUSH1 0x20 ADD ADD SWAP1 PUSH20 0xFFFFFFFFFFFFFFFFFFFFFFFFFFFFFFFFFFFFFFFF AND SWAP1 DUP2 PUSH20 0xFFFFFFFFFFFFFFFFFFFFFFFFFFFFFFFFFFFFFFFF AND DUP2 MSTORE POP POP PUSH1 0x9 DUP2 DUP2 SLOAD DUP2 LT PUSH2 0x173E JUMPI PUSH2 0x173D PUSH2 0x3420 JUMP JUMPDEST JUMPDEST SWAP1 PUSH1 0x0 MSTORE PUSH1 0x20 PUSH1 0x0 KECCAK256 SWAP1 PUSH1 0x3 MUL ADD PUSH1 0x1 ADD SLOAD DUP4 DUP3 DUP2 MLOAD DUP2 LT PUSH2 0x1763 JUMPI PUSH2 0x1762 PUSH2 0x3420 JUMP JUMPDEST JUMPDEST PUSH1 0x20 MUL PUSH1 0x20 ADD ADD DUP2 DUP2 MSTORE POP POP PUSH1 0x9 DUP2 DUP2 SLOAD DUP2 LT PUSH2 0x1783 JUMPI PUSH2 0x1782 PUSH2 0x3420 JUMP JUMPDEST JUMPDEST SWAP1 PUSH1 0x0 MSTORE PUSH1 0x20 PUSH1 0x0 KECCAK256 SWAP1 PUSH1 0x3 MUL ADD PUSH1 0x2 ADD SLOAD DUP3 DUP3 DUP2 MLOAD DUP2 LT PUSH2 0x17A8 JUMPI PUSH2 0x17A7 PUSH2 0x3420 JUMP JUMPDEST JUMPDEST PUSH1 0x20 MUL PUSH1 0x20 ADD ADD DUP2 DUP2 MSTORE POP POP DUP1 DUP1 PUSH2 0x17BF SWAP1 PUSH2 0x344F JUMP JUMPDEST SWAP2 POP POP PUSH2 0x168A JUMP JUMPDEST POP DUP3 DUP3 DUP3 SWAP6 POP SWAP6 POP SWAP6 POP POP POP POP SWAP1 SWAP2 SWAP3 JUMP JUMPDEST PUSH2 0x17E1 PUSH2 0x2030 JUMP JUMPDEST PUSH20 0xFFFFFFFFFFFFFFFFFFFFFFFFFFFFFFFFFFFFFFFF AND PUSH2 0x17FF PUSH2 0x142C JUMP JUMPDEST PUSH20 0xFFFFFFFFFFFFFFFFFFFFFFFFFFFFFFFFFFFFFFFF AND EQ PUSH2 0x1855 JUMPI PUSH1 0x40 MLOAD PUSH32 0x8C379A000000000000000000000000000000000000000000000000000000000 DUP2 MSTORE PUSH1 0x4 ADD PUSH2 0x184C SWAP1 PUSH2 0x3065 JUMP JUMPDEST PUSH1 0x40 MLOAD DUP1 SWAP2 SUB SWAP1 REVERT JUMPDEST PUSH1 0x0 PUSH20 0xFFFFFFFFFFFFFFFFFFFFFFFFFFFFFFFFFFFFFFFF AND DUP2 PUSH20 0xFFFFFFFFFFFFFFFFFFFFFFFFFFFFFFFFFFFFFFFF AND SUB PUSH2 0x18C4 JUMPI PUSH1 0x40 MLOAD PUSH32 0x8C379A000000000000000000000000000000000000000000000000000000000 DUP2 MSTORE PUSH1 0x4 ADD PUSH2 0x18BB SWAP1 PUSH2 0x3509 JUMP JUMPDEST PUSH1 0x40 MLOAD DUP1 SWAP2 SUB SWAP1 REVERT JUMPDEST PUSH2 0x18CD DUP2 PUSH2 0x259F JUMP JUMPDEST POP JUMP JUMPDEST DUP1 PUSH1 0x5 PUSH1 0x0 SWAP1 SLOAD SWAP1 PUSH2 0x100 EXP SWAP1 DIV PUSH20 0xFFFFFFFFFFFFFFFFFFFFFFFFFFFFFFFFFFFFFFFF AND PUSH20 0xFFFFFFFFFFFFFFFFFFFFFFFFFFFFFFFFFFFFFFFF AND PUSH4 0x70A08231 CALLER PUSH1 0x40 MLOAD DUP3 PUSH4 0xFFFFFFFF AND PUSH1 0xE0 SHL DUP2 MSTORE PUSH1 0x4 ADD PUSH2 0x192C SWAP2 SWAP1 PUSH2 0x2A93 JUMP JUMPDEST PUSH1 0x20 PUSH1 0x40 MLOAD DUP1 DUP4 SUB DUP2 DUP7 GAS STATICCALL ISZERO DUP1 ISZERO PUSH2 0x1949 JUMPI RETURNDATASIZE PUSH1 0x0 DUP1 RETURNDATACOPY RETURNDATASIZE PUSH1 0x0 REVERT JUMPDEST POP POP POP POP PUSH1 0x40 MLOAD RETURNDATASIZE PUSH1 0x1F NOT PUSH1 0x1F DUP3 ADD AND DUP3 ADD DUP1 PUSH1 0x40 MSTORE POP DUP2 ADD SWAP1 PUSH2 0x196D SWAP2 SWAP1 PUSH2 0x309A JUMP JUMPDEST LT ISZERO PUSH2 0x19AE JUMPI PUSH1 0x40 MLOAD PUSH32 0x8C379A000000000000000000000000000000000000000000000000000000000 DUP2 MSTORE PUSH1 0x4 ADD PUSH2 0x19A5 SWAP1 PUSH2 0x359B JUMP JUMPDEST PUSH1 0x40 MLOAD DUP1 SWAP2 SUB SWAP1 REVERT JUMPDEST PUSH1 0x0 PUSH2 0x19B9 DUP3 PUSH2 0x1519 JUMP JUMPDEST SWAP1 POP PUSH1 0x0 PUSH1 0x3 PUSH1 0x1 SWAP1 SLOAD SWAP1 PUSH2 0x100 EXP SWAP1 DIV PUSH20 0xFFFFFFFFFFFFFFFFFFFFFFFFFFFFFFFFFFFFFFFF AND SWAP1 POP DUP2 DUP2 PUSH20 0xFFFFFFFFFFFFFFFFFFFFFFFFFFFFFFFFFFFFFFFF AND PUSH4 0x70A08231 ADDRESS PUSH1 0x40 MLOAD DUP3 PUSH4 0xFFFFFFFF AND PUSH1 0xE0 SHL DUP2 MSTORE PUSH1 0x4 ADD PUSH2 0x1A1C SWAP2 SWAP1 PUSH2 0x2A93 JUMP JUMPDEST PUSH1 0x20 PUSH1 0x40 MLOAD DUP1 DUP4 SUB DUP2 DUP7 GAS STATICCALL ISZERO DUP1 ISZERO PUSH2 0x1A39 JUMPI RETURNDATASIZE PUSH1 0x0 DUP1 RETURNDATACOPY RETURNDATASIZE PUSH1 0x0 REVERT JUMPDEST POP POP POP POP PUSH1 0x40 MLOAD RETURNDATASIZE PUSH1 0x1F NOT PUSH1 0x1F DUP3 ADD AND DUP3 ADD DUP1 PUSH1 0x40 MSTORE POP DUP2 ADD SWAP1 PUSH2 0x1A5D SWAP2 SWAP1 PUSH2 0x309A JUMP JUMPDEST LT ISZERO PUSH2 0x1A9E JUMPI PUSH1 0x40 MLOAD PUSH32 0x8C379A000000000000000000000000000000000000000000000000000000000 DUP2 MSTORE PUSH1 0x4 ADD PUSH2 0x1A95 SWAP1 PUSH2 0x362D JUMP JUMPDEST PUSH1 0x40 MLOAD DUP1 SWAP2 SUB SWAP1 REVERT JUMPDEST PUSH1 0x3 PUSH1 0x1 SWAP1 SLOAD SWAP1 PUSH2 0x100 EXP SWAP1 DIV PUSH20 0xFFFFFFFFFFFFFFFFFFFFFFFFFFFFFFFFFFFFFFFF AND PUSH20 0xFFFFFFFFFFFFFFFFFFFFFFFFFFFFFFFFFFFFFFFF AND PUSH4 0x2E1A7D4D DUP4 PUSH1 0x40 MLOAD DUP3 PUSH4 0xFFFFFFFF AND PUSH1 0xE0 SHL DUP2 MSTORE PUSH1 0x4 ADD PUSH2 0x1AF9 SWAP2 SWAP1 PUSH2 0x2872 JUMP JUMPDEST PUSH1 0x0 PUSH1 0x40 MLOAD DUP1 DUP4 SUB DUP2 PUSH1 0x0 DUP8 DUP1 EXTCODESIZE ISZERO DUP1 ISZERO PUSH2 0x1B13 JUMPI PUSH1 0x0 DUP1 REVERT JUMPDEST POP GAS CALL ISZERO DUP1 ISZERO PUSH2 0x1B27 JUMPI RETURNDATASIZE PUSH1 0x0 DUP1 RETURNDATACOPY RETURNDATASIZE PUSH1 0x0 REVERT JUMPDEST POP POP POP POP PUSH2 0x1B59 PUSH1 0x5 PUSH1 0x0 SWAP1 SLOAD SWAP1 PUSH2 0x100 EXP SWAP1 DIV PUSH20 0xFFFFFFFFFFFFFFFFFFFFFFFFFFFFFFFFFFFFFFFF AND CALLER ADDRESS DUP7 PUSH2 0x2663 JUMP JUMPDEST PUSH2 0x1B63 CALLER DUP4 PUSH2 0x2038 JUMP JUMPDEST PUSH1 0x9 PUSH1 0x40 MLOAD DUP1 PUSH1 0x60 ADD PUSH1 0x40 MSTORE DUP1 CALLER PUSH20 0xFFFFFFFFFFFFFFFFFFFFFFFFFFFFFFFFFFFFFFFF AND DUP2 MSTORE PUSH1 0x20 ADD DUP6 DUP2 MSTORE PUSH1 0x20 ADD DUP5 DUP2 MSTORE POP SWAP1 DUP1 PUSH1 0x1 DUP2 SLOAD ADD DUP1 DUP3 SSTORE DUP1 SWAP2 POP POP PUSH1 0x1 SWAP1 SUB SWAP1 PUSH1 0x0 MSTORE PUSH1 0x20 PUSH1 0x0 KECCAK256 SWAP1 PUSH1 0x3 MUL ADD PUSH1 0x0 SWAP1 SWAP2 SWAP1 SWAP2 SWAP1 SWAP2 POP PUSH1 0x0 DUP3 ADD MLOAD DUP2 PUSH1 0x0 ADD PUSH1 0x0 PUSH2 0x100 EXP DUP2 SLOAD DUP2 PUSH20 0xFFFFFFFFFFFFFFFFFFFFFFFFFFFFFFFFFFFFFFFF MUL NOT AND SWAP1 DUP4 PUSH20 0xFFFFFFFFFFFFFFFFFFFFFFFFFFFFFFFFFFFFFFFF AND MUL OR SWAP1 SSTORE POP PUSH1 0x20 DUP3 ADD MLOAD DUP2 PUSH1 0x1 ADD SSTORE PUSH1 0x40 DUP3 ADD MLOAD DUP2 PUSH1 0x2 ADD SSTORE POP POP PUSH1 0x0 PUSH32 0x0 SWAP1 POP DUP1 PUSH20 0xFFFFFFFFFFFFFFFFFFFFFFFFFFFFFFFFFFFFFFFF AND PUSH4 0xF52701B7 ADDRESS CALLER DUP8 DUP8 PUSH1 0x40 MLOAD DUP6 PUSH4 0xFFFFFFFF AND PUSH1 0xE0 SHL DUP2 MSTORE PUSH1 0x4 ADD PUSH2 0x1C80 SWAP5 SWAP4 SWAP3 SWAP2 SWAP1 PUSH2 0x30C7 JUMP JUMPDEST PUSH1 0x0 PUSH1 0x40 MLOAD DUP1 DUP4 SUB DUP2 PUSH1 0x0 DUP8 DUP1 EXTCODESIZE ISZERO DUP1 ISZERO PUSH2 0x1C9A JUMPI PUSH1 0x0 DUP1 REVERT JUMPDEST POP GAS CALL ISZERO DUP1 ISZERO PUSH2 0x1CAE JUMPI RETURNDATASIZE PUSH1 0x0 DUP1 RETURNDATACOPY RETURNDATASIZE PUSH1 0x0 REVERT JUMPDEST POP POP POP POP POP POP POP POP JUMP JUMPDEST DUP1 PUSH1 0x5 PUSH1 0x0 SWAP1 SLOAD SWAP1 PUSH2 0x100 EXP SWAP1 DIV PUSH20 0xFFFFFFFFFFFFFFFFFFFFFFFFFFFFFFFFFFFFFFFF AND PUSH20 0xFFFFFFFFFFFFFFFFFFFFFFFFFFFFFFFFFFFFFFFF AND PUSH4 0x70A08231 CALLER PUSH1 0x40 MLOAD DUP3 PUSH4 0xFFFFFFFF AND PUSH1 0xE0 SHL DUP2 MSTORE PUSH1 0x4 ADD PUSH2 0x1D14 SWAP2 SWAP1 PUSH2 0x2A93 JUMP JUMPDEST PUSH1 0x20 PUSH1 0x40 MLOAD DUP1 DUP4 SUB DUP2 DUP7 GAS STATICCALL ISZERO DUP1 ISZERO PUSH2 0x1D31 JUMPI RETURNDATASIZE PUSH1 0x0 DUP1 RETURNDATACOPY RETURNDATASIZE PUSH1 0x0 REVERT JUMPDEST POP POP POP POP PUSH1 0x40 MLOAD RETURNDATASIZE PUSH1 0x1F NOT PUSH1 0x1F DUP3 ADD AND DUP3 ADD DUP1 PUSH1 0x40 MSTORE POP DUP2 ADD SWAP1 PUSH2 0x1D55 SWAP2 SWAP1 PUSH2 0x309A JUMP JUMPDEST LT ISZERO PUSH2 0x1D96 JUMPI PUSH1 0x40 MLOAD PUSH32 0x8C379A000000000000000000000000000000000000000000000000000000000 DUP2 MSTORE PUSH1 0x4 ADD PUSH2 0x1D8D SWAP1 PUSH2 0x359B JUMP JUMPDEST PUSH1 0x40 MLOAD DUP1 SWAP2 SUB SWAP1 REVERT JUMPDEST PUSH1 0x0 PUSH2 0x1DA1 DUP3 PUSH2 0x1519 JUMP JUMPDEST SWAP1 POP DUP1 PUSH1 0x4 PUSH1 0x0 SWAP1 SLOAD SWAP1 PUSH2 0x100 EXP SWAP1 DIV PUSH20 0xFFFFFFFFFFFFFFFFFFFFFFFFFFFFFFFFFFFFFFFF AND PUSH20 0xFFFFFFFFFFFFFFFFFFFFFFFFFFFFFFFFFFFFFFFF AND PUSH4 0x70A08231 ADDRESS PUSH1 0x40 MLOAD DUP3 PUSH4 0xFFFFFFFF AND PUSH1 0xE0 SHL DUP2 MSTORE PUSH1 0x4 ADD PUSH2 0x1DFF SWAP2 SWAP1 PUSH2 0x2A93 JUMP JUMPDEST PUSH1 0x20 PUSH1 0x40 MLOAD DUP1 DUP4 SUB DUP2 DUP7 GAS STATICCALL ISZERO DUP1 ISZERO PUSH2 0x1E1C JUMPI RETURNDATASIZE PUSH1 0x0 DUP1 RETURNDATACOPY RETURNDATASIZE PUSH1 0x0 REVERT JUMPDEST POP POP POP POP PUSH1 0x40 MLOAD RETURNDATASIZE PUSH1 0x1F NOT PUSH1 0x1F DUP3 ADD AND DUP3 ADD DUP1 PUSH1 0x40 MSTORE POP DUP2 ADD SWAP1 PUSH2 0x1E40 SWAP2 SWAP1 PUSH2 0x309A JUMP JUMPDEST LT ISZERO PUSH2 0x1E81 JUMPI PUSH1 0x40 MLOAD PUSH32 0x8C379A000000000000000000000000000000000000000000000000000000000 DUP2 MSTORE PUSH1 0x4 ADD PUSH2 0x1E78 SWAP1 PUSH2 0x362D JUMP JUMPDEST PUSH1 0x40 MLOAD DUP1 SWAP2 SUB SWAP1 REVERT JUMPDEST PUSH2 0x1EAF PUSH1 0x5 PUSH1 0x0 SWAP1 SLOAD SWAP1 PUSH2 0x100 EXP SWAP1 DIV PUSH20 0xFFFFFFFFFFFFFFFFFFFFFFFFFFFFFFFFFFFFFFFF AND CALLER ADDRESS DUP6 PUSH2 0x2663 JUMP JUMPDEST PUSH2 0x1EDC PUSH1 0x4 PUSH1 0x0 SWAP1 SLOAD SWAP1 PUSH2 0x100 EXP SWAP1 DIV PUSH20 0xFFFFFFFFFFFFFFFFFFFFFFFFFFFFFFFFFFFFFFFF AND CALLER DUP4 PUSH2 0x2138 JUMP JUMPDEST PUSH1 0x9 PUSH1 0x40 MLOAD DUP1 PUSH1 0x60 ADD PUSH1 0x40 MSTORE DUP1 CALLER PUSH20 0xFFFFFFFFFFFFFFFFFFFFFFFFFFFFFFFFFFFFFFFF AND DUP2 MSTORE PUSH1 0x20 ADD DUP5 DUP2 MSTORE PUSH1 0x20 ADD DUP4 DUP2 MSTORE POP SWAP1 DUP1 PUSH1 0x1 DUP2 SLOAD ADD DUP1 DUP3 SSTORE DUP1 SWAP2 POP POP PUSH1 0x1 SWAP1 SUB SWAP1 PUSH1 0x0 MSTORE PUSH1 0x20 PUSH1 0x0 KECCAK256 SWAP1 PUSH1 0x3 MUL ADD PUSH1 0x0 SWAP1 SWAP2 SWAP1 SWAP2 SWAP1 SWAP2 POP PUSH1 0x0 DUP3 ADD MLOAD DUP2 PUSH1 0x0 ADD PUSH1 0x0 PUSH2 0x100 EXP DUP2 SLOAD DUP2 PUSH20 0xFFFFFFFFFFFFFFFFFFFFFFFFFFFFFFFFFFFFFFFF MUL NOT AND SWAP1 DUP4 PUSH20 0xFFFFFFFFFFFFFFFFFFFFFFFFFFFFFFFFFFFFFFFF AND MUL OR SWAP1 SSTORE POP PUSH1 0x20 DUP3 ADD MLOAD DUP2 PUSH1 0x1 ADD SSTORE PUSH1 0x40 DUP3 ADD MLOAD DUP2 PUSH1 0x2 ADD SSTORE POP POP PUSH1 0x0 PUSH32 0x0 SWAP1 POP DUP1 PUSH20 0xFFFFFFFFFFFFFFFFFFFFFFFFFFFFFFFFFFFFFFFF AND PUSH4 0xF52701B7 ADDRESS CALLER DUP7 DUP7 PUSH1 0x40 MLOAD DUP6 PUSH4 0xFFFFFFFF AND PUSH1 0xE0 SHL DUP2 MSTORE PUSH1 0x4 ADD PUSH2 0x1FF9 SWAP5 SWAP4 SWAP3 SWAP2 SWAP1 PUSH2 0x30C7 JUMP JUMPDEST PUSH1 0x0 PUSH1 0x40 MLOAD DUP1 DUP4 SUB DUP2 PUSH1 0x0 DUP8 DUP1 EXTCODESIZE ISZERO DUP1 ISZERO PUSH2 0x2013 JUMPI PUSH1 0x0 DUP1 REVERT JUMPDEST POP GAS CALL ISZERO DUP1 ISZERO PUSH2 0x2027 JUMPI RETURNDATASIZE PUSH1 0x0 DUP1 RETURNDATACOPY RETURNDATASIZE PUSH1 0x0 REVERT JUMPDEST POP POP POP POP POP POP POP JUMP JUMPDEST PUSH1 0x0 CALLER SWAP1 POP SWAP1 JUMP JUMPDEST PUSH1 0x0 DUP3 PUSH20 0xFFFFFFFFFFFFFFFFFFFFFFFFFFFFFFFFFFFFFFFF AND DUP3 PUSH1 0x0 PUSH8 0xFFFFFFFFFFFFFFFF DUP2 GT ISZERO PUSH2 0x206D JUMPI PUSH2 0x206C PUSH2 0x33F1 JUMP JUMPDEST JUMPDEST PUSH1 0x40 MLOAD SWAP1 DUP1 DUP3 MSTORE DUP1 PUSH1 0x1F ADD PUSH1 0x1F NOT AND PUSH1 0x20 ADD DUP3 ADD PUSH1 0x40 MSTORE DUP1 ISZERO PUSH2 0x209F JUMPI DUP2 PUSH1 0x20 ADD PUSH1 0x1 DUP3 MUL DUP1 CALLDATASIZE DUP4 CALLDATACOPY DUP1 DUP3 ADD SWAP2 POP POP SWAP1 POP JUMPDEST POP PUSH1 0x40 MLOAD PUSH2 0x20AD SWAP2 SWAP1 PUSH2 0x36C7 JUMP JUMPDEST PUSH1 0x0 PUSH1 0x40 MLOAD DUP1 DUP4 SUB DUP2 DUP6 DUP8 GAS CALL SWAP3 POP POP POP RETURNDATASIZE DUP1 PUSH1 0x0 DUP2 EQ PUSH2 0x20EA JUMPI PUSH1 0x40 MLOAD SWAP2 POP PUSH1 0x1F NOT PUSH1 0x3F RETURNDATASIZE ADD AND DUP3 ADD PUSH1 0x40 MSTORE RETURNDATASIZE DUP3 MSTORE RETURNDATASIZE PUSH1 0x0 PUSH1 0x20 DUP5 ADD RETURNDATACOPY PUSH2 0x20EF JUMP JUMPDEST PUSH1 0x60 SWAP2 POP JUMPDEST POP POP SWAP1 POP DUP1 PUSH2 0x2133 JUMPI PUSH1 0x40 MLOAD PUSH32 0x8C379A000000000000000000000000000000000000000000000000000000000 DUP2 MSTORE PUSH1 0x4 ADD PUSH2 0x212A SWAP1 PUSH2 0x3750 JUMP JUMPDEST PUSH1 0x40 MLOAD DUP1 SWAP2 SUB SWAP1 REVERT JUMPDEST POP POP POP JUMP JUMPDEST PUSH1 0x0 DUP1 DUP5 PUSH20 0xFFFFFFFFFFFFFFFFFFFFFFFFFFFFFFFFFFFFFFFF AND PUSH4 0xA9059CBB DUP6 DUP6 PUSH1 0x40 MLOAD PUSH1 0x24 ADD PUSH2 0x216A SWAP3 SWAP2 SWAP1 PUSH2 0x3770 JUMP JUMPDEST PUSH1 0x40 MLOAD PUSH1 0x20 DUP2 DUP4 SUB SUB DUP2 MSTORE SWAP1 PUSH1 0x40 MSTORE SWAP1 PUSH1 0xE0 SHL PUSH1 0x20 DUP3 ADD DUP1 MLOAD PUSH28 0xFFFFFFFFFFFFFFFFFFFFFFFFFFFFFFFFFFFFFFFFFFFFFFFFFFFFFFFF DUP4 DUP2 DUP4 AND OR DUP4 MSTORE POP POP POP POP PUSH1 0x40 MLOAD PUSH2 0x21B8 SWAP2 SWAP1 PUSH2 0x36C7 JUMP JUMPDEST PUSH1 0x0 PUSH1 0x40 MLOAD DUP1 DUP4 SUB DUP2 PUSH1 0x0 DUP7 GAS CALL SWAP2 POP POP RETURNDATASIZE DUP1 PUSH1 0x0 DUP2 EQ PUSH2 0x21F5 JUMPI PUSH1 0x40 MLOAD SWAP2 POP PUSH1 0x1F NOT PUSH1 0x3F RETURNDATASIZE ADD AND DUP3 ADD PUSH1 0x40 MSTORE RETURNDATASIZE DUP3 MSTORE RETURNDATASIZE PUSH1 0x0 PUSH1 0x20 DUP5 ADD RETURNDATACOPY PUSH2 0x21FA JUMP JUMPDEST PUSH1 0x60 SWAP2 POP JUMPDEST POP SWAP2 POP SWAP2 POP DUP2 DUP1 ISZERO PUSH2 0x2228 JUMPI POP PUSH1 0x0 DUP2 MLOAD EQ DUP1 PUSH2 0x2227 JUMPI POP DUP1 DUP1 PUSH1 0x20 ADD SWAP1 MLOAD DUP2 ADD SWAP1 PUSH2 0x2226 SWAP2 SWAP1 PUSH2 0x2DCA JUMP JUMPDEST JUMPDEST JUMPDEST PUSH2 0x2267 JUMPI PUSH1 0x40 MLOAD PUSH32 0x8C379A000000000000000000000000000000000000000000000000000000000 DUP2 MSTORE PUSH1 0x4 ADD PUSH2 0x225E SWAP1 PUSH2 0x37E5 JUMP JUMPDEST PUSH1 0x40 MLOAD DUP1 SWAP2 SUB SWAP1 REVERT JUMPDEST POP POP POP POP POP JUMP JUMPDEST CALLVALUE DUP2 EQ PUSH2 0x22B0 JUMPI PUSH1 0x40 MLOAD PUSH32 0x8C379A000000000000000000000000000000000000000000000000000000000 DUP2 MSTORE PUSH1 0x4 ADD PUSH2 0x22A7 SWAP1 PUSH2 0x3877 JUMP JUMPDEST PUSH1 0x40 MLOAD DUP1 SWAP2 SUB SWAP1 REVERT JUMPDEST PUSH1 0x0 PUSH2 0x22BB DUP3 PUSH2 0x1519 JUMP JUMPDEST SWAP1 POP DUP1 PUSH1 0x4 PUSH1 0x0 SWAP1 SLOAD SWAP1 PUSH2 0x100 EXP SWAP1 DIV PUSH20 0xFFFFFFFFFFFFFFFFFFFFFFFFFFFFFFFFFFFFFFFF AND PUSH20 0xFFFFFFFFFFFFFFFFFFFFFFFFFFFFFFFFFFFFFFFF AND PUSH4 0x70A08231 ADDRESS PUSH1 0x40 MLOAD DUP3 PUSH4 0xFFFFFFFF AND PUSH1 0xE0 SHL DUP2 MSTORE PUSH1 0x4 ADD PUSH2 0x2319 SWAP2 SWAP1 PUSH2 0x2A93 JUMP JUMPDEST PUSH1 0x20 PUSH1 0x40 MLOAD DUP1 DUP4 SUB DUP2 DUP7 GAS STATICCALL ISZERO DUP1 ISZERO PUSH2 0x2336 JUMPI RETURNDATASIZE PUSH1 0x0 DUP1 RETURNDATACOPY RETURNDATASIZE PUSH1 0x0 REVERT JUMPDEST POP POP POP POP PUSH1 0x40 MLOAD RETURNDATASIZE PUSH1 0x1F NOT PUSH1 0x1F DUP3 ADD AND DUP3 ADD DUP1 PUSH1 0x40 MSTORE POP DUP2 ADD SWAP1 PUSH2 0x235A SWAP2 SWAP1 PUSH2 0x309A JUMP JUMPDEST LT ISZERO PUSH2 0x239B JUMPI PUSH1 0x40 MLOAD PUSH32 0x8C379A000000000000000000000000000000000000000000000000000000000 DUP2 MSTORE PUSH1 0x4 ADD PUSH2 0x2392 SWAP1 PUSH2 0x362D JUMP JUMPDEST PUSH1 0x40 MLOAD DUP1 SWAP2 SUB SWAP1 REVERT JUMPDEST PUSH1 0x3 PUSH1 0x1 SWAP1 SLOAD SWAP1 PUSH2 0x100 EXP SWAP1 DIV PUSH20 0xFFFFFFFFFFFFFFFFFFFFFFFFFFFFFFFFFFFFFFFF AND PUSH20 0xFFFFFFFFFFFFFFFFFFFFFFFFFFFFFFFFFFFFFFFF AND PUSH4 0xD0E30DB0 DUP4 PUSH1 0x40 MLOAD DUP3 PUSH4 0xFFFFFFFF AND PUSH1 0xE0 SHL DUP2 MSTORE PUSH1 0x4 ADD PUSH1 0x0 PUSH1 0x40 MLOAD DUP1 DUP4 SUB DUP2 DUP6 DUP9 DUP1 EXTCODESIZE ISZERO DUP1 ISZERO PUSH2 0x2405 JUMPI PUSH1 0x0 DUP1 REVERT JUMPDEST POP GAS CALL ISZERO DUP1 ISZERO PUSH2 0x2419 JUMPI RETURNDATASIZE PUSH1 0x0 DUP1 RETURNDATACOPY RETURNDATASIZE PUSH1 0x0 REVERT JUMPDEST POP POP POP POP POP PUSH2 0x244B PUSH1 0x4 PUSH1 0x0 SWAP1 SLOAD SWAP1 PUSH2 0x100 EXP SWAP1 DIV PUSH20 0xFFFFFFFFFFFFFFFFFFFFFFFFFFFFFFFFFFFFFFFF AND CALLER DUP4 PUSH2 0x2138 JUMP JUMPDEST PUSH1 0x9 PUSH1 0x40 MLOAD DUP1 PUSH1 0x60 ADD PUSH1 0x40 MSTORE DUP1 CALLER PUSH20 0xFFFFFFFFFFFFFFFFFFFFFFFFFFFFFFFFFFFFFFFF AND DUP2 MSTORE PUSH1 0x20 ADD DUP5 DUP2 MSTORE PUSH1 0x20 ADD DUP4 DUP2 MSTORE POP SWAP1 DUP1 PUSH1 0x1 DUP2 SLOAD ADD DUP1 DUP3 SSTORE DUP1 SWAP2 POP POP PUSH1 0x1 SWAP1 SUB SWAP1 PUSH1 0x0 MSTORE PUSH1 0x20 PUSH1 0x0 KECCAK256 SWAP1 PUSH1 0x3 MUL ADD PUSH1 0x0 SWAP1 SWAP2 SWAP1 SWAP2 SWAP1 SWAP2 POP PUSH1 0x0 DUP3 ADD MLOAD DUP2 PUSH1 0x0 ADD PUSH1 0x0 PUSH2 0x100 EXP DUP2 SLOAD DUP2 PUSH20 0xFFFFFFFFFFFFFFFFFFFFFFFFFFFFFFFFFFFFFFFF MUL NOT AND SWAP1 DUP4 PUSH20 0xFFFFFFFFFFFFFFFFFFFFFFFFFFFFFFFFFFFFFFFF AND MUL OR SWAP1 SSTORE POP PUSH1 0x20 DUP3 ADD MLOAD DUP2 PUSH1 0x1 ADD SSTORE PUSH1 0x40 DUP3 ADD MLOAD DUP2 PUSH1 0x2 ADD SSTORE POP POP PUSH1 0x0 PUSH32 0x0 SWAP1 POP DUP1 PUSH20 0xFFFFFFFFFFFFFFFFFFFFFFFFFFFFFFFFFFFFFFFF AND PUSH4 0xF52701B7 ADDRESS CALLER DUP7 DUP7 PUSH1 0x40 MLOAD DUP6 PUSH4 0xFFFFFFFF AND PUSH1 0xE0 SHL DUP2 MSTORE PUSH1 0x4 ADD PUSH2 0x2568 SWAP5 SWAP4 SWAP3 SWAP2 SWAP1 PUSH2 0x30C7 JUMP JUMPDEST PUSH1 0x0 PUSH1 0x40 MLOAD DUP1 DUP4 SUB DUP2 PUSH1 0x0 DUP8 DUP1 EXTCODESIZE ISZERO DUP1 ISZERO PUSH2 0x2582 JUMPI PUSH1 0x0 DUP1 REVERT JUMPDEST POP GAS CALL ISZERO DUP1 ISZERO PUSH2 0x2596 JUMPI RETURNDATASIZE PUSH1 0x0 DUP1 RETURNDATACOPY RETURNDATASIZE PUSH1 0x0 REVERT JUMPDEST POP POP POP POP POP POP POP JUMP JUMPDEST PUSH1 0x0 DUP1 PUSH1 0x0 SWAP1 SLOAD SWAP1 PUSH2 0x100 EXP SWAP1 DIV PUSH20 0xFFFFFFFFFFFFFFFFFFFFFFFFFFFFFFFFFFFFFFFF AND SWAP1 POP DUP2 PUSH1 0x0 DUP1 PUSH2 0x100 EXP DUP2 SLOAD DUP2 PUSH20 0xFFFFFFFFFFFFFFFFFFFFFFFFFFFFFFFFFFFFFFFF MUL NOT AND SWAP1 DUP4 PUSH20 0xFFFFFFFFFFFFFFFFFFFFFFFFFFFFFFFFFFFFFFFF AND MUL OR SWAP1 SSTORE POP DUP2 PUSH20 0xFFFFFFFFFFFFFFFFFFFFFFFFFFFFFFFFFFFFFFFF AND DUP2 PUSH20 0xFFFFFFFFFFFFFFFFFFFFFFFFFFFFFFFFFFFFFFFF AND PUSH32 0x8BE0079C531659141344CD1FD0A4F28419497F9722A3DAAFE3B4186F6B6457E0 PUSH1 0x40 MLOAD PUSH1 0x40 MLOAD DUP1 SWAP2 SUB SWAP1 LOG3 POP POP JUMP JUMPDEST PUSH1 0x0 DUP1 DUP6 PUSH20 0xFFFFFFFFFFFFFFFFFFFFFFFFFFFFFFFFFFFFFFFF AND PUSH4 0x23B872DD DUP7 DUP7 DUP7 PUSH1 0x40 MLOAD PUSH1 0x24 ADD PUSH2 0x2697 SWAP4 SWAP3 SWAP2 SWAP1 PUSH2 0x3897 JUMP JUMPDEST PUSH1 0x40 MLOAD PUSH1 0x20 DUP2 DUP4 SUB SUB DUP2 MSTORE SWAP1 PUSH1 0x40 MSTORE SWAP1 PUSH1 0xE0 SHL PUSH1 0x20 DUP3 ADD DUP1 MLOAD PUSH28 0xFFFFFFFFFFFFFFFFFFFFFFFFFFFFFFFFFFFFFFFFFFFFFFFFFFFFFFFF DUP4 DUP2 DUP4 AND OR DUP4 MSTORE POP POP POP POP PUSH1 0x40 MLOAD PUSH2 0x26E5 SWAP2 SWAP1 PUSH2 0x36C7 JUMP JUMPDEST PUSH1 0x0 PUSH1 0x40 MLOAD DUP1 DUP4 SUB DUP2 PUSH1 0x0 DUP7 GAS CALL SWAP2 POP POP RETURNDATASIZE DUP1 PUSH1 0x0 DUP2 EQ PUSH2 0x2722 JUMPI PUSH1 0x40 MLOAD SWAP2 POP PUSH1 0x1F NOT PUSH1 0x3F RETURNDATASIZE ADD AND DUP3 ADD PUSH1 0x40 MSTORE RETURNDATASIZE DUP3 MSTORE RETURNDATASIZE PUSH1 0x0 PUSH1 0x20 DUP5 ADD RETURNDATACOPY PUSH2 0x2727 JUMP JUMPDEST PUSH1 0x60 SWAP2 POP JUMPDEST POP SWAP2 POP SWAP2 POP DUP2 DUP1 ISZERO PUSH2 0x2755 JUMPI POP PUSH1 0x0 DUP2 MLOAD EQ DUP1 PUSH2 0x2754 JUMPI POP DUP1 DUP1 PUSH1 0x20 ADD SWAP1 MLOAD DUP2 ADD SWAP1 PUSH2 0x2753 SWAP2 SWAP1 PUSH2 0x2DCA JUMP JUMPDEST JUMPDEST JUMPDEST PUSH2 0x2794 JUMPI PUSH1 0x40 MLOAD PUSH32 0x8C379A000000000000000000000000000000000000000000000000000000000 DUP2 MSTORE PUSH1 0x4 ADD PUSH2 0x278B SWAP1 PUSH2 0x3940 JUMP JUMPDEST PUSH1 0x40 MLOAD DUP1 SWAP2 SUB SWAP1 REVERT JUMPDEST POP POP POP POP POP POP JUMP JUMPDEST PUSH1 0x0 DUP1 REVERT JUMPDEST PUSH1 0x0 DUP2 SWAP1 POP SWAP2 SWAP1 POP JUMP JUMPDEST PUSH2 0x27B4 DUP2 PUSH2 0x27A1 JUMP JUMPDEST DUP2 EQ PUSH2 0x27BF JUMPI PUSH1 0x0 DUP1 REVERT JUMPDEST POP JUMP JUMPDEST PUSH1 0x0 DUP2 CALLDATALOAD SWAP1 POP PUSH2 0x27D1 DUP2 PUSH2 0x27AB JUMP JUMPDEST SWAP3 SWAP2 POP POP JUMP JUMPDEST PUSH1 0x0 PUSH1 0x20 DUP3 DUP5 SUB SLT ISZERO PUSH2 0x27ED JUMPI PUSH2 0x27EC PUSH2 0x279C JUMP JUMPDEST JUMPDEST PUSH1 0x0 PUSH2 0x27FB DUP5 DUP3 DUP6 ADD PUSH2 0x27C2 JUMP JUMPDEST SWAP2 POP POP SWAP3 SWAP2 POP POP JUMP JUMPDEST PUSH1 0x0 DUP2 ISZERO ISZERO SWAP1 POP SWAP2 SWAP1 POP JUMP JUMPDEST PUSH2 0x2819 DUP2 PUSH2 0x2804 JUMP JUMPDEST DUP3 MSTORE POP POP JUMP JUMPDEST PUSH1 0x0 PUSH1 0x20 DUP3 ADD SWAP1 POP PUSH2 0x2834 PUSH1 0x0 DUP4 ADD DUP5 PUSH2 0x2810 JUMP JUMPDEST SWAP3 SWAP2 POP POP JUMP JUMPDEST PUSH2 0x2843 DUP2 PUSH2 0x27A1 JUMP JUMPDEST DUP3 MSTORE POP POP JUMP JUMPDEST PUSH1 0x0 PUSH1 0x40 DUP3 ADD SWAP1 POP PUSH2 0x285E PUSH1 0x0 DUP4 ADD DUP6 PUSH2 0x283A JUMP JUMPDEST PUSH2 0x286B PUSH1 0x20 DUP4 ADD DUP5 PUSH2 0x283A JUMP JUMPDEST SWAP4 SWAP3 POP POP POP JUMP JUMPDEST PUSH1 0x0 PUSH1 0x20 DUP3 ADD SWAP1 POP PUSH2 0x2887 PUSH1 0x0 DUP4 ADD DUP5 PUSH2 0x283A JUMP JUMPDEST SWAP3 SWAP2 POP POP JUMP JUMPDEST PUSH1 0x3 DUP2 LT PUSH2 0x289A JUMPI PUSH1 0x0 DUP1 REVERT JUMPDEST POP JUMP JUMPDEST PUSH1 0x0 DUP2 CALLDATALOAD SWAP1 POP PUSH2 0x28AC DUP2 PUSH2 0x288D JUMP JUMPDEST SWAP3 SWAP2 POP POP JUMP JUMPDEST PUSH1 0x0 PUSH20 0xFFFFFFFFFFFFFFFFFFFFFFFFFFFFFFFFFFFFFFFF DUP3 AND SWAP1 POP SWAP2 SWAP1 POP JUMP JUMPDEST PUSH1 0x0 PUSH2 0x28DD DUP3 PUSH2 0x28B2 JUMP JUMPDEST SWAP1 POP SWAP2 SWAP1 POP JUMP JUMPDEST PUSH2 0x28ED DUP2 PUSH2 0x28D2 JUMP JUMPDEST DUP2 EQ PUSH2 0x28F8 JUMPI PUSH1 0x0 DUP1 REVERT JUMPDEST POP JUMP JUMPDEST PUSH1 0x0 DUP2 CALLDATALOAD SWAP1 POP PUSH2 0x290A DUP2 PUSH2 0x28E4 JUMP JUMPDEST SWAP3 SWAP2 POP POP JUMP JUMPDEST PUSH2 0x2919 DUP2 PUSH2 0x2804 JUMP JUMPDEST DUP2 EQ PUSH2 0x2924 JUMPI PUSH1 0x0 DUP1 REVERT JUMPDEST POP JUMP JUMPDEST PUSH1 0x0 DUP2 CALLDATALOAD SWAP1 POP PUSH2 0x2936 DUP2 PUSH2 0x2910 JUMP JUMPDEST SWAP3 SWAP2 POP POP JUMP JUMPDEST PUSH1 0x0 DUP1 PUSH1 0x0 DUP1 PUSH1 0x0 DUP1 PUSH1 0x0 DUP1 PUSH2 0x100 DUP10 DUP12 SUB SLT ISZERO PUSH2 0x295D JUMPI PUSH2 0x295C PUSH2 0x279C JUMP JUMPDEST JUMPDEST PUSH1 0x0 PUSH2 0x296B DUP12 DUP3 DUP13 ADD PUSH2 0x289D JUMP JUMPDEST SWAP9 POP POP PUSH1 0x20 PUSH2 0x297C DUP12 DUP3 DUP13 ADD PUSH2 0x28FB JUMP JUMPDEST SWAP8 POP POP PUSH1 0x40 PUSH2 0x298D DUP12 DUP3 DUP13 ADD PUSH2 0x28FB JUMP JUMPDEST SWAP7 POP POP PUSH1 0x60 PUSH2 0x299E DUP12 DUP3 DUP13 ADD PUSH2 0x27C2 JUMP JUMPDEST SWAP6 POP POP PUSH1 0x80 PUSH2 0x29AF DUP12 DUP3 DUP13 ADD PUSH2 0x27C2 JUMP JUMPDEST SWAP5 POP POP PUSH1 0xA0 PUSH2 0x29C0 DUP12 DUP3 DUP13 ADD PUSH2 0x27C2 JUMP JUMPDEST SWAP4 POP POP PUSH1 0xC0 PUSH2 0x29D1 DUP12 DUP3 DUP13 ADD PUSH2 0x2927 JUMP JUMPDEST SWAP3 POP POP PUSH1 0xE0 PUSH2 0x29E2 DUP12 DUP3 DUP13 ADD PUSH2 0x28FB JUMP JUMPDEST SWAP2 POP POP SWAP3 SWAP6 SWAP9 POP SWAP3 SWAP6 SWAP9 SWAP1 SWAP4 SWAP7 POP JUMP JUMPDEST PUSH32 0x4E487B7100000000000000000000000000000000000000000000000000000000 PUSH1 0x0 MSTORE PUSH1 0x21 PUSH1 0x4 MSTORE PUSH1 0x24 PUSH1 0x0 REVERT JUMPDEST PUSH1 0x3 DUP2 LT PUSH2 0x2A32 JUMPI PUSH2 0x2A31 PUSH2 0x29F2 JUMP JUMPDEST JUMPDEST POP JUMP JUMPDEST PUSH1 0x0 DUP2 SWAP1 POP PUSH2 0x2A43 DUP3 PUSH2 0x2A21 JUMP JUMPDEST SWAP2 SWAP1 POP JUMP JUMPDEST PUSH1 0x0 PUSH2 0x2A53 DUP3 PUSH2 0x2A35 JUMP JUMPDEST SWAP1 POP SWAP2 SWAP1 POP JUMP JUMPDEST PUSH2 0x2A63 DUP2 PUSH2 0x2A48 JUMP JUMPDEST DUP3 MSTORE POP POP JUMP JUMPDEST PUSH1 0x0 PUSH1 0x20 DUP3 ADD SWAP1 POP PUSH2 0x2A7E PUSH1 0x0 DUP4 ADD DUP5 PUSH2 0x2A5A JUMP JUMPDEST SWAP3 SWAP2 POP POP JUMP JUMPDEST PUSH2 0x2A8D DUP2 PUSH2 0x28D2 JUMP JUMPDEST DUP3 MSTORE POP POP JUMP JUMPDEST PUSH1 0x0 PUSH1 0x20 DUP3 ADD SWAP1 POP PUSH2 0x2AA8 PUSH1 0x0 DUP4 ADD DUP5 PUSH2 0x2A84 JUMP JUMPDEST SWAP3 SWAP2 POP POP JUMP JUMPDEST PUSH1 0x0 PUSH1 0x40 DUP3 ADD SWAP1 POP PUSH2 0x2AC3 PUSH1 0x0 DUP4 ADD DUP6 PUSH2 0x2A84 JUMP JUMPDEST PUSH2 0x2AD0 PUSH1 0x20 DUP4 ADD DUP5 PUSH2 0x2A84 JUMP JUMPDEST SWAP4 SWAP3 POP POP POP JUMP JUMPDEST PUSH1 0x0 DUP2 MLOAD SWAP1 POP SWAP2 SWAP1 POP JUMP JUMPDEST PUSH1 0x0 DUP3 DUP3 MSTORE PUSH1 0x20 DUP3 ADD SWAP1 POP SWAP3 SWAP2 POP POP JUMP JUMPDEST PUSH1 0x0 DUP2 SWAP1 POP PUSH1 0x20 DUP3 ADD SWAP1 POP SWAP2 SWAP1 POP JUMP JUMPDEST PUSH2 0x2B0C DUP2 PUSH2 0x28D2 JUMP JUMPDEST DUP3 MSTORE POP POP JUMP JUMPDEST PUSH1 0x0 PUSH2 0x2B1E DUP4 DUP4 PUSH2 0x2B03 JUMP JUMPDEST PUSH1 0x20 DUP4 ADD SWAP1 POP SWAP3 SWAP2 POP POP JUMP JUMPDEST PUSH1 0x0 PUSH1 0x20 DUP3 ADD SWAP1 POP SWAP2 SWAP1 POP JUMP JUMPDEST PUSH1 0x0 PUSH2 0x2B42 DUP3 PUSH2 0x2AD7 JUMP JUMPDEST PUSH2 0x2B4C DUP2 DUP6 PUSH2 0x2AE2 JUMP JUMPDEST SWAP4 POP PUSH2 0x2B57 DUP4 PUSH2 0x2AF3 JUMP JUMPDEST DUP1 PUSH1 0x0 JUMPDEST DUP4 DUP2 LT ISZERO PUSH2 0x2B88 JUMPI DUP2 MLOAD PUSH2 0x2B6F DUP9 DUP3 PUSH2 0x2B12 JUMP JUMPDEST SWAP8 POP PUSH2 0x2B7A DUP4 PUSH2 0x2B2A JUMP JUMPDEST SWAP3 POP POP PUSH1 0x1 DUP2 ADD SWAP1 POP PUSH2 0x2B5B JUMP JUMPDEST POP DUP6 SWAP4 POP POP POP POP SWAP3 SWAP2 POP POP JUMP JUMPDEST PUSH1 0x0 DUP2 MLOAD SWAP1 POP SWAP2 SWAP1 POP JUMP JUMPDEST PUSH1 0x0 DUP3 DUP3 MSTORE PUSH1 0x20 DUP3 ADD SWAP1 POP SWAP3 SWAP2 POP POP JUMP JUMPDEST PUSH1 0x0 DUP2 SWAP1 POP PUSH1 0x20 DUP3 ADD SWAP1 POP SWAP2 SWAP1 POP JUMP JUMPDEST PUSH2 0x2BCA DUP2 PUSH2 0x27A1 JUMP JUMPDEST DUP3 MSTORE POP POP JUMP JUMPDEST PUSH1 0x0 PUSH2 0x2BDC DUP4 DUP4 PUSH2 0x2BC1 JUMP JUMPDEST PUSH1 0x20 DUP4 ADD SWAP1 POP SWAP3 SWAP2 POP POP JUMP JUMPDEST PUSH1 0x0 PUSH1 0x20 DUP3 ADD SWAP1 POP SWAP2 SWAP1 POP JUMP JUMPDEST PUSH1 0x0 PUSH2 0x2C00 DUP3 PUSH2 0x2B95 JUMP JUMPDEST PUSH2 0x2C0A DUP2 DUP6 PUSH2 0x2BA0 JUMP JUMPDEST SWAP4 POP PUSH2 0x2C15 DUP4 PUSH2 0x2BB1 JUMP JUMPDEST DUP1 PUSH1 0x0 JUMPDEST DUP4 DUP2 LT ISZERO PUSH2 0x2C46 JUMPI DUP2 MLOAD PUSH2 0x2C2D DUP9 DUP3 PUSH2 0x2BD0 JUMP JUMPDEST SWAP8 POP PUSH2 0x2C38 DUP4 PUSH2 0x2BE8 JUMP JUMPDEST SWAP3 POP POP PUSH1 0x1 DUP2 ADD SWAP1 POP PUSH2 0x2C19 JUMP JUMPDEST POP DUP6 SWAP4 POP POP POP POP SWAP3 SWAP2 POP POP JUMP JUMPDEST PUSH1 0x0 PUSH1 0x60 DUP3 ADD SWAP1 POP DUP2 DUP2 SUB PUSH1 0x0 DUP4 ADD MSTORE PUSH2 0x2C6D DUP2 DUP7 PUSH2 0x2B37 JUMP JUMPDEST SWAP1 POP DUP2 DUP2 SUB PUSH1 0x20 DUP4 ADD MSTORE PUSH2 0x2C81 DUP2 DUP6 PUSH2 0x2BF5 JUMP JUMPDEST SWAP1 POP DUP2 DUP2 SUB PUSH1 0x40 DUP4 ADD MSTORE PUSH2 0x2C95 DUP2 DUP5 PUSH2 0x2BF5 JUMP JUMPDEST SWAP1 POP SWAP5 SWAP4 POP POP POP POP JUMP JUMPDEST PUSH1 0x0 PUSH1 0x20 DUP3 DUP5 SUB SLT ISZERO PUSH2 0x2CB5 JUMPI PUSH2 0x2CB4 PUSH2 0x279C JUMP JUMPDEST JUMPDEST PUSH1 0x0 PUSH2 0x2CC3 DUP5 DUP3 DUP6 ADD PUSH2 0x28FB JUMP JUMPDEST SWAP2 POP POP SWAP3 SWAP2 POP POP JUMP JUMPDEST PUSH1 0x0 DUP3 DUP3 MSTORE PUSH1 0x20 DUP3 ADD SWAP1 POP SWAP3 SWAP2 POP POP JUMP JUMPDEST PUSH32 0x537943726F774261727465723A20494E41435449564500000000000000000000 PUSH1 0x0 DUP3 ADD MSTORE POP JUMP JUMPDEST PUSH1 0x0 PUSH2 0x2D13 PUSH1 0x16 DUP4 PUSH2 0x2CCC JUMP JUMPDEST SWAP2 POP PUSH2 0x2D1E DUP3 PUSH2 0x2CDD JUMP JUMPDEST PUSH1 0x20 DUP3 ADD SWAP1 POP SWAP2 SWAP1 POP JUMP JUMPDEST PUSH1 0x0 PUSH1 0x20 DUP3 ADD SWAP1 POP DUP2 DUP2 SUB PUSH1 0x0 DUP4 ADD MSTORE PUSH2 0x2D42 DUP2 PUSH2 0x2D06 JUMP JUMPDEST SWAP1 POP SWAP2 SWAP1 POP JUMP JUMPDEST PUSH32 0x537943726F774261727465723A204E4F545F494E495449414C495A4544000000 PUSH1 0x0 DUP3 ADD MSTORE POP JUMP JUMPDEST PUSH1 0x0 PUSH2 0x2D7F PUSH1 0x1D DUP4 PUSH2 0x2CCC JUMP JUMPDEST SWAP2 POP PUSH2 0x2D8A DUP3 PUSH2 0x2D49 JUMP JUMPDEST PUSH1 0x20 DUP3 ADD SWAP1 POP SWAP2 SWAP1 POP JUMP JUMPDEST PUSH1 0x0 PUSH1 0x20 DUP3 ADD SWAP1 POP DUP2 DUP2 SUB PUSH1 0x0 DUP4 ADD MSTORE PUSH2 0x2DAE DUP2 PUSH2 0x2D72 JUMP JUMPDEST SWAP1 POP SWAP2 SWAP1 POP JUMP JUMPDEST PUSH1 0x0 DUP2 MLOAD SWAP1 POP PUSH2 0x2DC4 DUP2 PUSH2 0x2910 JUMP JUMPDEST SWAP3 SWAP2 POP POP JUMP JUMPDEST PUSH1 0x0 PUSH1 0x20 DUP3 DUP5 SUB SLT ISZERO PUSH2 0x2DE0 JUMPI PUSH2 0x2DDF PUSH2 0x279C JUMP JUMPDEST JUMPDEST PUSH1 0x0 PUSH2 0x2DEE DUP5 DUP3 DUP6 ADD PUSH2 0x2DB5 JUMP JUMPDEST SWAP2 POP POP SWAP3 SWAP2 POP POP JUMP JUMPDEST PUSH32 0x537943726F774261727465723A204261736520436F6E74726163742050617573 PUSH1 0x0 DUP3 ADD MSTORE PUSH32 0x6564000000000000000000000000000000000000000000000000000000000000 PUSH1 0x20 DUP3 ADD MSTORE POP JUMP JUMPDEST PUSH1 0x0 PUSH2 0x2E53 PUSH1 0x22 DUP4 PUSH2 0x2CCC JUMP JUMPDEST SWAP2 POP PUSH2 0x2E5E DUP3 PUSH2 0x2DF7 JUMP JUMPDEST PUSH1 0x40 DUP3 ADD SWAP1 POP SWAP2 SWAP1 POP JUMP JUMPDEST PUSH1 0x0 PUSH1 0x20 DUP3 ADD SWAP1 POP DUP2 DUP2 SUB PUSH1 0x0 DUP4 ADD MSTORE PUSH2 0x2E82 DUP2 PUSH2 0x2E46 JUMP JUMPDEST SWAP1 POP SWAP2 SWAP1 POP JUMP JUMPDEST PUSH32 0x537943726F774261727465723A20494E56414C49445F4241525445525F545950 PUSH1 0x0 DUP3 ADD MSTORE PUSH32 0x4500000000000000000000000000000000000000000000000000000000000000 PUSH1 0x20 DUP3 ADD MSTORE POP JUMP JUMPDEST PUSH1 0x0 PUSH2 0x2EE5 PUSH1 0x21 DUP4 PUSH2 0x2CCC JUMP JUMPDEST SWAP2 POP PUSH2 0x2EF0 DUP3 PUSH2 0x2E89 JUMP JUMPDEST PUSH1 0x40 DUP3 ADD SWAP1 POP SWAP2 SWAP1 POP JUMP JUMPDEST PUSH1 0x0 PUSH1 0x20 DUP3 ADD SWAP1 POP DUP2 DUP2 SUB PUSH1 0x0 DUP4 ADD MSTORE PUSH2 0x2F14 DUP2 PUSH2 0x2ED8 JUMP JUMPDEST SWAP1 POP SWAP2 SWAP1 POP JUMP JUMPDEST PUSH32 0x537943726F774261727465723A20414D4F554E545F4C4F5745525F5448414E5F PUSH1 0x0 DUP3 ADD MSTORE PUSH32 0x5245515552495245440000000000000000000000000000000000000000000000 PUSH1 0x20 DUP3 ADD MSTORE POP JUMP JUMPDEST PUSH1 0x0 PUSH2 0x2F77 PUSH1 0x29 DUP4 PUSH2 0x2CCC JUMP JUMPDEST SWAP2 POP PUSH2 0x2F82 DUP3 PUSH2 0x2F1B JUMP JUMPDEST PUSH1 0x40 DUP3 ADD SWAP1 POP SWAP2 SWAP1 POP JUMP JUMPDEST PUSH1 0x0 PUSH1 0x20 DUP3 ADD SWAP1 POP DUP2 DUP2 SUB PUSH1 0x0 DUP4 ADD MSTORE PUSH2 0x2FA6 DUP2 PUSH2 0x2F6A JUMP JUMPDEST SWAP1 POP SWAP2 SWAP1 POP JUMP JUMPDEST PUSH32 0x537943726F774261727465723A20414354495645000000000000000000000000 PUSH1 0x0 DUP3 ADD MSTORE POP JUMP JUMPDEST PUSH1 0x0 PUSH2 0x2FE3 PUSH1 0x14 DUP4 PUSH2 0x2CCC JUMP JUMPDEST SWAP2 POP PUSH2 0x2FEE DUP3 PUSH2 0x2FAD JUMP JUMPDEST PUSH1 0x20 DUP3 ADD SWAP1 POP SWAP2 SWAP1 POP JUMP JUMPDEST PUSH1 0x0 PUSH1 0x20 DUP3 ADD SWAP1 POP DUP2 DUP2 SUB PUSH1 0x0 DUP4 ADD MSTORE PUSH2 0x3012 DUP2 PUSH2 0x2FD6 JUMP JUMPDEST SWAP1 POP SWAP2 SWAP1 POP JUMP JUMPDEST PUSH32 0x4F776E61626C653A2063616C6C6572206973206E6F7420746865206F776E6572 PUSH1 0x0 DUP3 ADD MSTORE POP JUMP JUMPDEST PUSH1 0x0 PUSH2 0x304F PUSH1 0x20 DUP4 PUSH2 0x2CCC JUMP JUMPDEST SWAP2 POP PUSH2 0x305A DUP3 PUSH2 0x3019 JUMP JUMPDEST PUSH1 0x20 DUP3 ADD SWAP1 POP SWAP2 SWAP1 POP JUMP JUMPDEST PUSH1 0x0 PUSH1 0x20 DUP3 ADD SWAP1 POP DUP2 DUP2 SUB PUSH1 0x0 DUP4 ADD MSTORE PUSH2 0x307E DUP2 PUSH2 0x3042 JUMP JUMPDEST SWAP1 POP SWAP2 SWAP1 POP JUMP JUMPDEST PUSH1 0x0 DUP2 MLOAD SWAP1 POP PUSH2 0x3094 DUP2 PUSH2 0x27AB JUMP JUMPDEST SWAP3 SWAP2 POP POP JUMP JUMPDEST PUSH1 0x0 PUSH1 0x20 DUP3 DUP5 SUB SLT ISZERO PUSH2 0x30B0 JUMPI PUSH2 0x30AF PUSH2 0x279C JUMP JUMPDEST JUMPDEST PUSH1 0x0 PUSH2 0x30BE DUP5 DUP3 DUP6 ADD PUSH2 0x3085 JUMP JUMPDEST SWAP2 POP POP SWAP3 SWAP2 POP POP JUMP JUMPDEST PUSH1 0x0 PUSH1 0x80 DUP3 ADD SWAP1 POP PUSH2 0x30DC PUSH1 0x0 DUP4 ADD DUP8 PUSH2 0x2A84 JUMP JUMPDEST PUSH2 0x30E9 PUSH1 0x20 DUP4 ADD DUP7 PUSH2 0x2A84 JUMP JUMPDEST PUSH2 0x30F6 PUSH1 0x40 DUP4 ADD DUP6 PUSH2 0x283A JUMP JUMPDEST PUSH2 0x3103 PUSH1 0x60 DUP4 ADD DUP5 PUSH2 0x283A JUMP JUMPDEST SWAP6 SWAP5 POP POP POP POP POP JUMP JUMPDEST PUSH32 0x537943726F774261727465723A20464F5242494444454E000000000000000000 PUSH1 0x0 DUP3 ADD MSTORE POP JUMP JUMPDEST PUSH1 0x0 PUSH2 0x3142 PUSH1 0x17 DUP4 PUSH2 0x2CCC JUMP JUMPDEST SWAP2 POP PUSH2 0x314D DUP3 PUSH2 0x310C JUMP JUMPDEST PUSH1 0x20 DUP3 ADD SWAP1 POP SWAP2 SWAP1 POP JUMP JUMPDEST PUSH1 0x0 PUSH1 0x20 DUP3 ADD SWAP1 POP DUP2 DUP2 SUB PUSH1 0x0 DUP4 ADD MSTORE PUSH2 0x3171 DUP2 PUSH2 0x3135 JUMP JUMPDEST SWAP1 POP SWAP2 SWAP1 POP JUMP JUMPDEST PUSH32 0x537943726F774261727465723A20414C52454144595F494E495449414C495A45 PUSH1 0x0 DUP3 ADD MSTORE PUSH32 0x4400000000000000000000000000000000000000000000000000000000000000 PUSH1 0x20 DUP3 ADD MSTORE POP JUMP JUMPDEST PUSH1 0x0 PUSH2 0x31D4 PUSH1 0x21 DUP4 PUSH2 0x2CCC JUMP JUMPDEST SWAP2 POP PUSH2 0x31DF DUP3 PUSH2 0x3178 JUMP JUMPDEST PUSH1 0x40 DUP3 ADD SWAP1 POP SWAP2 SWAP1 POP JUMP JUMPDEST PUSH1 0x0 PUSH1 0x20 DUP3 ADD SWAP1 POP DUP2 DUP2 SUB PUSH1 0x0 DUP4 ADD MSTORE PUSH2 0x3203 DUP2 PUSH2 0x31C7 JUMP JUMPDEST SWAP1 POP SWAP2 SWAP1 POP JUMP JUMPDEST PUSH32 0x537943726F774261727465723A2050415354646561646C696E65000000000000 PUSH1 0x0 DUP3 ADD MSTORE POP JUMP JUMPDEST PUSH1 0x0 PUSH2 0x3240 PUSH1 0x1A DUP4 PUSH2 0x2CCC JUMP JUMPDEST SWAP2 POP PUSH2 0x324B DUP3 PUSH2 0x320A JUMP JUMPDEST PUSH1 0x20 DUP3 ADD SWAP1 POP SWAP2 SWAP1 POP JUMP JUMPDEST PUSH1 0x0 PUSH1 0x20 DUP3 ADD SWAP1 POP DUP2 DUP2 SUB PUSH1 0x0 DUP4 ADD MSTORE PUSH2 0x326F DUP2 PUSH2 0x3233 JUMP JUMPDEST SWAP1 POP SWAP2 SWAP1 POP JUMP JUMPDEST PUSH32 0x537943726F774261727465723A20494E53554646494349454E545F4445504F53 PUSH1 0x0 DUP3 ADD MSTORE PUSH32 0x4954000000000000000000000000000000000000000000000000000000000000 PUSH1 0x20 DUP3 ADD MSTORE POP JUMP JUMPDEST PUSH1 0x0 PUSH2 0x32D2 PUSH1 0x22 DUP4 PUSH2 0x2CCC JUMP JUMPDEST SWAP2 POP PUSH2 0x32DD DUP3 PUSH2 0x3276 JUMP JUMPDEST PUSH1 0x40 DUP3 ADD SWAP1 POP SWAP2 SWAP1 POP JUMP JUMPDEST PUSH1 0x0 PUSH1 0x20 DUP3 ADD SWAP1 POP DUP2 DUP2 SUB PUSH1 0x0 DUP4 ADD MSTORE PUSH2 0x3301 DUP2 PUSH2 0x32C5 JUMP JUMPDEST SWAP1 POP SWAP2 SWAP1 POP JUMP JUMPDEST PUSH32 0x4E487B7100000000000000000000000000000000000000000000000000000000 PUSH1 0x0 MSTORE PUSH1 0x11 PUSH1 0x4 MSTORE PUSH1 0x24 PUSH1 0x0 REVERT JUMPDEST PUSH1 0x0 PUSH2 0x3342 DUP3 PUSH2 0x27A1 JUMP JUMPDEST SWAP2 POP PUSH2 0x334D DUP4 PUSH2 0x27A1 JUMP JUMPDEST SWAP3 POP DUP2 PUSH32 0xFFFFFFFFFFFFFFFFFFFFFFFFFFFFFFFFFFFFFFFFFFFFFFFFFFFFFFFFFFFFFFFF DIV DUP4 GT DUP3 ISZERO ISZERO AND ISZERO PUSH2 0x3386 JUMPI PUSH2 0x3385 PUSH2 0x3308 JUMP JUMPDEST JUMPDEST DUP3 DUP3 MUL SWAP1 POP SWAP3 SWAP2 POP POP JUMP JUMPDEST PUSH32 0x4E487B7100000000000000000000000000000000000000000000000000000000 PUSH1 0x0 MSTORE PUSH1 0x12 PUSH1 0x4 MSTORE PUSH1 0x24 PUSH1 0x0 REVERT JUMPDEST PUSH1 0x0 PUSH2 0x33CB DUP3 PUSH2 0x27A1 JUMP JUMPDEST SWAP2 POP PUSH2 0x33D6 DUP4 PUSH2 0x27A1 JUMP JUMPDEST SWAP3 POP DUP3 PUSH2 0x33E6 JUMPI PUSH2 0x33E5 PUSH2 0x3391 JUMP JUMPDEST JUMPDEST DUP3 DUP3 DIV SWAP1 POP SWAP3 SWAP2 POP POP JUMP JUMPDEST PUSH32 0x4E487B7100000000000000000000000000000000000000000000000000000000 PUSH1 0x0 MSTORE PUSH1 0x41 PUSH1 0x4 MSTORE PUSH1 0x24 PUSH1 0x0 REVERT JUMPDEST PUSH32 0x4E487B7100000000000000000000000000000000000000000000000000000000 PUSH1 0x0 MSTORE PUSH1 0x32 PUSH1 0x4 MSTORE PUSH1 0x24 PUSH1 0x0 REVERT JUMPDEST PUSH1 0x0 PUSH2 0x345A DUP3 PUSH2 0x27A1 JUMP JUMPDEST SWAP2 POP PUSH32 0xFFFFFFFFFFFFFFFFFFFFFFFFFFFFFFFFFFFFFFFFFFFFFFFFFFFFFFFFFFFFFFFF DUP3 SUB PUSH2 0x348C JUMPI PUSH2 0x348B PUSH2 0x3308 JUMP JUMPDEST JUMPDEST PUSH1 0x1 DUP3 ADD SWAP1 POP SWAP2 SWAP1 POP JUMP JUMPDEST PUSH32 0x4F776E61626C653A206E6577206F776E657220697320746865207A65726F2061 PUSH1 0x0 DUP3 ADD MSTORE PUSH32 0x6464726573730000000000000000000000000000000000000000000000000000 PUSH1 0x20 DUP3 ADD MSTORE POP JUMP JUMPDEST PUSH1 0x0 PUSH2 0x34F3 PUSH1 0x26 DUP4 PUSH2 0x2CCC JUMP JUMPDEST SWAP2 POP PUSH2 0x34FE DUP3 PUSH2 0x3497 JUMP JUMPDEST PUSH1 0x40 DUP3 ADD SWAP1 POP SWAP2 SWAP1 POP JUMP JUMPDEST PUSH1 0x0 PUSH1 0x20 DUP3 ADD SWAP1 POP DUP2 DUP2 SUB PUSH1 0x0 DUP4 ADD MSTORE PUSH2 0x3522 DUP2 PUSH2 0x34E6 JUMP JUMPDEST SWAP1 POP SWAP2 SWAP1 POP JUMP JUMPDEST PUSH32 0x537943726F774261727465723A20494E53554646494349454E545F42414C414E PUSH1 0x0 DUP3 ADD MSTORE PUSH32 0x4345000000000000000000000000000000000000000000000000000000000000 PUSH1 0x20 DUP3 ADD MSTORE POP JUMP JUMPDEST PUSH1 0x0 PUSH2 0x3585 PUSH1 0x22 DUP4 PUSH2 0x2CCC JUMP JUMPDEST SWAP2 POP PUSH2 0x3590 DUP3 PUSH2 0x3529 JUMP JUMPDEST PUSH1 0x40 DUP3 ADD SWAP1 POP SWAP2 SWAP1 POP JUMP JUMPDEST PUSH1 0x0 PUSH1 0x20 DUP3 ADD SWAP1 POP DUP2 DUP2 SUB PUSH1 0x0 DUP4 ADD MSTORE PUSH2 0x35B4 DUP2 PUSH2 0x3578 JUMP JUMPDEST SWAP1 POP SWAP2 SWAP1 POP JUMP JUMPDEST PUSH32 0x537943726F774261727465723A20494E53554646494349454E545F434F4E5452 PUSH1 0x0 DUP3 ADD MSTORE PUSH32 0x4143545F42414C414E4345000000000000000000000000000000000000000000 PUSH1 0x20 DUP3 ADD MSTORE POP JUMP JUMPDEST PUSH1 0x0 PUSH2 0x3617 PUSH1 0x2B DUP4 PUSH2 0x2CCC JUMP JUMPDEST SWAP2 POP PUSH2 0x3622 DUP3 PUSH2 0x35BB JUMP JUMPDEST PUSH1 0x40 DUP3 ADD SWAP1 POP SWAP2 SWAP1 POP JUMP JUMPDEST PUSH1 0x0 PUSH1 0x20 DUP3 ADD SWAP1 POP DUP2 DUP2 SUB PUSH1 0x0 DUP4 ADD MSTORE PUSH2 0x3646 DUP2 PUSH2 0x360A JUMP JUMPDEST SWAP1 POP SWAP2 SWAP1 POP JUMP JUMPDEST PUSH1 0x0 DUP2 MLOAD SWAP1 POP SWAP2 SWAP1 POP JUMP JUMPDEST PUSH1 0x0 DUP2 SWAP1 POP SWAP3 SWAP2 POP POP JUMP JUMPDEST PUSH1 0x0 JUMPDEST DUP4 DUP2 LT ISZERO PUSH2 0x3681 JUMPI DUP1 DUP3 ADD MLOAD DUP2 DUP5 ADD MSTORE PUSH1 0x20 DUP2 ADD SWAP1 POP PUSH2 0x3666 JUMP JUMPDEST DUP4 DUP2 GT ISZERO PUSH2 0x3690 JUMPI PUSH1 0x0 DUP5 DUP5 ADD MSTORE JUMPDEST POP POP POP POP JUMP JUMPDEST PUSH1 0x0 PUSH2 0x36A1 DUP3 PUSH2 0x364D JUMP JUMPDEST PUSH2 0x36AB DUP2 DUP6 PUSH2 0x3658 JUMP JUMPDEST SWAP4 POP PUSH2 0x36BB DUP2 DUP6 PUSH1 0x20 DUP7 ADD PUSH2 0x3663 JUMP JUMPDEST DUP1 DUP5 ADD SWAP2 POP POP SWAP3 SWAP2 POP POP JUMP JUMPDEST PUSH1 0x0 PUSH2 0x36D3 DUP3 DUP5 PUSH2 0x3696 JUMP JUMPDEST SWAP2 POP DUP2 SWAP1 POP SWAP3 SWAP2 POP POP JUMP JUMPDEST PUSH32 0x5472616E7366657248656C7065723A204554485F5452414E534645525F464149 PUSH1 0x0 DUP3 ADD MSTORE PUSH32 0x4C45440000000000000000000000000000000000000000000000000000000000 PUSH1 0x20 DUP3 ADD MSTORE POP JUMP JUMPDEST PUSH1 0x0 PUSH2 0x373A PUSH1 0x23 DUP4 PUSH2 0x2CCC JUMP JUMPDEST SWAP2 POP PUSH2 0x3745 DUP3 PUSH2 0x36DE JUMP JUMPDEST PUSH1 0x40 DUP3 ADD SWAP1 POP SWAP2 SWAP1 POP JUMP JUMPDEST PUSH1 0x0 PUSH1 0x20 DUP3 ADD SWAP1 POP DUP2 DUP2 SUB PUSH1 0x0 DUP4 ADD MSTORE PUSH2 0x3769 DUP2 PUSH2 0x372D JUMP JUMPDEST SWAP1 POP SWAP2 SWAP1 POP JUMP JUMPDEST PUSH1 0x0 PUSH1 0x40 DUP3 ADD SWAP1 POP PUSH2 0x3785 PUSH1 0x0 DUP4 ADD DUP6 PUSH2 0x2A84 JUMP JUMPDEST PUSH2 0x3792 PUSH1 0x20 DUP4 ADD DUP5 PUSH2 0x283A JUMP JUMPDEST SWAP4 SWAP3 POP POP POP JUMP JUMPDEST PUSH32 0x5472616E7366657248656C7065723A205452414E534645525F4641494C454400 PUSH1 0x0 DUP3 ADD MSTORE POP JUMP JUMPDEST PUSH1 0x0 PUSH2 0x37CF PUSH1 0x1F DUP4 PUSH2 0x2CCC JUMP JUMPDEST SWAP2 POP PUSH2 0x37DA DUP3 PUSH2 0x3799 JUMP JUMPDEST PUSH1 0x20 DUP3 ADD SWAP1 POP SWAP2 SWAP1 POP JUMP JUMPDEST PUSH1 0x0 PUSH1 0x20 DUP3 ADD SWAP1 POP DUP2 DUP2 SUB PUSH1 0x0 DUP4 ADD MSTORE PUSH2 0x37FE DUP2 PUSH2 0x37C2 JUMP JUMPDEST SWAP1 POP SWAP2 SWAP1 POP JUMP JUMPDEST PUSH32 0x537943726F774261727465723A204D554C54495F54524144455F4E4F545F454E PUSH1 0x0 DUP3 ADD MSTORE PUSH32 0x41424C4544000000000000000000000000000000000000000000000000000000 PUSH1 0x20 DUP3 ADD MSTORE POP JUMP JUMPDEST PUSH1 0x0 PUSH2 0x3861 PUSH1 0x25 DUP4 PUSH2 0x2CCC JUMP JUMPDEST SWAP2 POP PUSH2 0x386C DUP3 PUSH2 0x3805 JUMP JUMPDEST PUSH1 0x40 DUP3 ADD SWAP1 POP SWAP2 SWAP1 POP JUMP JUMPDEST PUSH1 0x0 PUSH1 0x20 DUP3 ADD SWAP1 POP DUP2 DUP2 SUB PUSH1 0x0 DUP4 ADD MSTORE PUSH2 0x3890 DUP2 PUSH2 0x3854 JUMP JUMPDEST SWAP1 POP SWAP2 SWAP1 POP JUMP JUMPDEST PUSH1 0x0 PUSH1 0x60 DUP3 ADD SWAP1 POP PUSH2 0x38AC PUSH1 0x0 DUP4 ADD DUP7 PUSH2 0x2A84 JUMP JUMPDEST PUSH2 0x38B9 PUSH1 0x20 DUP4 ADD DUP6 PUSH2 0x2A84 JUMP JUMPDEST PUSH2 0x38C6 PUSH1 0x40 DUP4 ADD DUP5 PUSH2 0x283A JUMP JUMPDEST SWAP5 SWAP4 POP POP POP POP JUMP JUMPDEST PUSH32 0x5472616E7366657248656C7065723A205452414E534645525F46524F4D5F4641 PUSH1 0x0 DUP3 ADD MSTORE PUSH32 0x494C454400000000000000000000000000000000000000000000000000000000 PUSH1 0x20 DUP3 ADD MSTORE POP JUMP JUMPDEST PUSH1 0x0 PUSH2 0x392A PUSH1 0x24 DUP4 PUSH2 0x2CCC JUMP JUMPDEST SWAP2 POP PUSH2 0x3935 DUP3 PUSH2 0x38CE JUMP JUMPDEST PUSH1 0x40 DUP3 ADD SWAP1 POP SWAP2 SWAP1 POP JUMP JUMPDEST PUSH1 0x0 PUSH1 0x20 DUP3 ADD SWAP1 POP DUP2 DUP2 SUB PUSH1 0x0 DUP4 ADD MSTORE PUSH2 0x3959 DUP2 PUSH2 0x391D JUMP JUMPDEST SWAP1 POP SWAP2 SWAP1 POP JUMP INVALID LOG2 PUSH5 0x6970667358 0x22 SLT KECCAK256 PUSH7 0x80E91CE1A8813D 0x4C 0x25 0xD9 DUP12 0xD7 MSTORE8 0xBD 0x5E 0xD4 BALANCE 0x4A 0xE7 0xDE 0x49 0xC2 SWAP11 SSTORE SDIV 0xBF 0xE5 0x5C 0x28 PUSH23 0xBA64736F6C634300080D00330000000000000000000000 "
				},
				"gasEstimates": {
					"creation": {
						"codeDepositCost": "2948400",
						"executionCost": "infinite",
						"totalCost": "infinite"
					},
					"external": {
						"_initialized()": "2589",
						"barterType()": "2605",
						"factory()": "infinite",
						"getAmounts()": "infinite",
						"getTokens()": "infinite",
						"getTradeOutAmount(uint256)": "infinite",
						"getTrades()": "infinite",
						"initialize(uint8,address,address,uint256,uint256,uint256,bool,address)": "infinite",
						"owner()": "2589",
						"renounceOwnership()": "30397",
						"totalTradeAmount()": "2474",
						"tradeEthForToken(uint256)": "infinite",
						"tradeTokenForEth(uint256)": "infinite",
						"tradeTokenForToken(uint256)": "infinite",
						"transferOwnership(address)": "30808",
						"withdraw()": "infinite"
					},
					"internal": {
						"_tradeEthForToken(uint256)": "infinite",
						"_tradeTokenForEth(uint256)": "infinite",
						"_tradeTokenForToken(uint256)": "infinite"
					}
				},
				"methodIdentifiers": {
					"_initialized()": "3072cf60",
					"barterType()": "89523742",
					"factory()": "c45a0155",
					"getAmounts()": "3d370b4e",
					"getTokens()": "aa6ca808",
					"getTradeOutAmount(uint256)": "dab5a8df",
					"getTrades()": "e43372e9",
					"initialize(uint8,address,address,uint256,uint256,uint256,bool,address)": "5f5780e5",
					"owner()": "8da5cb5b",
					"renounceOwnership()": "715018a6",
					"totalTradeAmount()": "40a6f1ab",
					"tradeEthForToken(uint256)": "4341f920",
					"tradeTokenForEth(uint256)": "0d182605",
					"tradeTokenForToken(uint256)": "2ffc6887",
					"transferOwnership(address)": "f2fde38b",
					"withdraw()": "3ccfd60b"
				}
			},
			"storageLayout": {
				"storage": [
					{
						"astId": 7,
						"contract": "contracts/SyCrowBarter.sol:SyCrowBarter",
						"label": "_owner",
						"offset": 0,
						"slot": "0",
						"type": "t_address"
					},
					{
						"astId": 142,
						"contract": "contracts/SyCrowBarter.sol:SyCrowBarter",
						"label": "totalTradeAmount",
						"offset": 0,
						"slot": "1",
						"type": "t_uint256"
					},
					{
						"astId": 144,
						"contract": "contracts/SyCrowBarter.sol:SyCrowBarter",
						"label": "deadline",
						"offset": 0,
						"slot": "2",
						"type": "t_uint256"
					},
					{
						"astId": 147,
						"contract": "contracts/SyCrowBarter.sol:SyCrowBarter",
						"label": "barterType",
						"offset": 0,
						"slot": "3",
						"type": "t_enum(ISyCrowBarterType)1137"
					},
					{
						"astId": 149,
						"contract": "contracts/SyCrowBarter.sol:SyCrowBarter",
						"label": "WETH",
						"offset": 1,
						"slot": "3",
						"type": "t_address"
					},
					{
						"astId": 152,
						"contract": "contracts/SyCrowBarter.sol:SyCrowBarter",
						"label": "_initialized",
						"offset": 21,
						"slot": "3",
						"type": "t_bool"
					},
					{
						"astId": 154,
						"contract": "contracts/SyCrowBarter.sol:SyCrowBarter",
						"label": "_depositedTokenAddress",
						"offset": 0,
						"slot": "4",
						"type": "t_address"
					},
					{
						"astId": 156,
						"contract": "contracts/SyCrowBarter.sol:SyCrowBarter",
						"label": "_expectedTokenAddress",
						"offset": 0,
						"slot": "5",
						"type": "t_address"
					},
					{
						"astId": 158,
						"contract": "contracts/SyCrowBarter.sol:SyCrowBarter",
						"label": "_depositedAmount",
						"offset": 0,
						"slot": "6",
						"type": "t_uint256"
					},
					{
						"astId": 160,
						"contract": "contracts/SyCrowBarter.sol:SyCrowBarter",
						"label": "_expectedAmount",
						"offset": 0,
						"slot": "7",
						"type": "t_uint256"
					},
					{
						"astId": 162,
						"contract": "contracts/SyCrowBarter.sol:SyCrowBarter",
						"label": "_allowMultiBarter",
						"offset": 0,
						"slot": "8",
						"type": "t_bool"
					},
					{
						"astId": 166,
						"contract": "contracts/SyCrowBarter.sol:SyCrowBarter",
						"label": "_trades",
						"offset": 0,
						"slot": "9",
						"type": "t_array(t_struct(BaterTrade)173_storage)dyn_storage"
					}
				],
				"types": {
					"t_address": {
						"encoding": "inplace",
						"label": "address",
						"numberOfBytes": "20"
					},
					"t_array(t_struct(BaterTrade)173_storage)dyn_storage": {
						"base": "t_struct(BaterTrade)173_storage",
						"encoding": "dynamic_array",
						"label": "struct SyCrowBarter.BaterTrade[]",
						"numberOfBytes": "32"
					},
					"t_bool": {
						"encoding": "inplace",
						"label": "bool",
						"numberOfBytes": "1"
					},
					"t_enum(ISyCrowBarterType)1137": {
						"encoding": "inplace",
						"label": "enum ISyCrowBarterType",
						"numberOfBytes": "1"
					},
					"t_struct(BaterTrade)173_storage": {
						"encoding": "inplace",
						"label": "struct SyCrowBarter.BaterTrade",
						"members": [
							{
								"astId": 168,
								"contract": "contracts/SyCrowBarter.sol:SyCrowBarter",
								"label": "_trader",
								"offset": 0,
								"slot": "0",
								"type": "t_address"
							},
							{
								"astId": 170,
								"contract": "contracts/SyCrowBarter.sol:SyCrowBarter",
								"label": "_amountIn",
								"offset": 0,
								"slot": "1",
								"type": "t_uint256"
							},
							{
								"astId": 172,
								"contract": "contracts/SyCrowBarter.sol:SyCrowBarter",
								"label": "_amountOut",
								"offset": 0,
								"slot": "2",
								"type": "t_uint256"
							}
						],
						"numberOfBytes": "96"
					},
					"t_uint256": {
						"encoding": "inplace",
						"label": "uint256",
						"numberOfBytes": "32"
					}
				}
			},
			"userdoc": {
				"kind": "user",
				"methods": {},
				"version": 1
			}
		}
	}
}