{
	"contracts/SycrowBarter.sol": {
		"SyCrowBarter": {
			"abi": [
				{
					"inputs": [],
					"stateMutability": "nonpayable",
					"type": "constructor"
				},
				{
					"anonymous": false,
					"inputs": [
						{
							"indexed": true,
							"internalType": "address",
							"name": "previousOwner",
							"type": "address"
						},
						{
							"indexed": true,
							"internalType": "address",
							"name": "newOwner",
							"type": "address"
						}
					],
					"name": "OwnershipTransferred",
					"type": "event"
				},
				{
					"stateMutability": "payable",
					"type": "fallback"
				},
				{
					"inputs": [],
					"name": "_initialized",
					"outputs": [
						{
							"internalType": "bool",
							"name": "",
							"type": "bool"
						}
					],
					"stateMutability": "view",
					"type": "function"
				},
				{
					"inputs": [],
					"name": "allowMultiBarter",
					"outputs": [
						{
							"internalType": "bool",
							"name": "",
							"type": "bool"
						}
					],
					"stateMutability": "view",
					"type": "function"
				},
				{
					"inputs": [],
					"name": "barterType",
					"outputs": [
						{
							"internalType": "enum ISyCrowBarterType",
							"name": "",
							"type": "uint8"
						}
					],
					"stateMutability": "view",
					"type": "function"
				},
				{
					"inputs": [],
					"name": "deadline",
					"outputs": [
						{
							"internalType": "uint256",
							"name": "",
							"type": "uint256"
						}
					],
					"stateMutability": "view",
					"type": "function"
				},
				{
					"inputs": [],
					"name": "factory",
					"outputs": [
						{
							"internalType": "address",
							"name": "",
							"type": "address"
						}
					],
					"stateMutability": "view",
					"type": "function"
				},
				{
					"inputs": [],
					"name": "getAmounts",
					"outputs": [
						{
							"internalType": "uint256",
							"name": "",
							"type": "uint256"
						},
						{
							"internalType": "uint256",
							"name": "",
							"type": "uint256"
						}
					],
					"stateMutability": "view",
					"type": "function"
				},
				{
					"inputs": [],
					"name": "getTokens",
					"outputs": [
						{
							"internalType": "address",
							"name": "",
							"type": "address"
						},
						{
							"internalType": "address",
							"name": "",
							"type": "address"
						}
					],
					"stateMutability": "view",
					"type": "function"
				},
				{
					"inputs": [
						{
							"internalType": "uint256",
							"name": "amount",
							"type": "uint256"
						}
					],
					"name": "getTradeOutAmount",
					"outputs": [
						{
							"internalType": "uint256",
							"name": "",
							"type": "uint256"
						}
					],
					"stateMutability": "view",
					"type": "function"
				},
				{
					"inputs": [],
					"name": "getTrades",
					"outputs": [
						{
							"internalType": "address[]",
							"name": "",
							"type": "address[]"
						},
						{
							"internalType": "uint256[]",
							"name": "",
							"type": "uint256[]"
						},
						{
							"internalType": "uint256[]",
							"name": "",
							"type": "uint256[]"
						}
					],
					"stateMutability": "view",
					"type": "function"
				},
				{
					"inputs": [
						{
							"internalType": "enum ISyCrowBarterType",
							"name": "_barterType",
							"type": "uint8"
						},
						{
							"internalType": "address",
							"name": "inToken",
							"type": "address"
						},
						{
							"internalType": "address",
							"name": "outToken",
							"type": "address"
						},
						{
							"internalType": "uint256",
							"name": "amountDeposited",
							"type": "uint256"
						},
						{
							"internalType": "uint256",
							"name": "amountExpected",
							"type": "uint256"
						},
						{
							"internalType": "uint256",
							"name": "_deadline",
							"type": "uint256"
						},
						{
							"internalType": "bool",
							"name": "_allowMultiBarter",
							"type": "bool"
						},
						{
							"internalType": "address",
							"name": "_WETH",
							"type": "address"
						}
					],
					"name": "initialize",
					"outputs": [
						{
							"internalType": "bool",
							"name": "",
							"type": "bool"
						}
					],
					"stateMutability": "nonpayable",
					"type": "function"
				},
				{
					"inputs": [],
					"name": "owner",
					"outputs": [
						{
							"internalType": "address",
							"name": "",
							"type": "address"
						}
					],
					"stateMutability": "view",
					"type": "function"
				},
				{
					"inputs": [],
					"name": "renounceOwnership",
					"outputs": [],
					"stateMutability": "nonpayable",
					"type": "function"
				},
				{
					"inputs": [],
					"name": "totalTradeAmount",
					"outputs": [
						{
							"internalType": "uint256",
							"name": "",
							"type": "uint256"
						}
					],
					"stateMutability": "view",
					"type": "function"
				},
				{
					"inputs": [
						{
							"internalType": "uint256",
							"name": "inAmount",
							"type": "uint256"
						}
					],
					"name": "tradeEthForToken",
					"outputs": [],
					"stateMutability": "payable",
					"type": "function"
				},
				{
					"inputs": [
						{
							"internalType": "uint256",
							"name": "inAmount",
							"type": "uint256"
						}
					],
					"name": "tradeTokenForEth",
					"outputs": [],
					"stateMutability": "nonpayable",
					"type": "function"
				},
				{
					"inputs": [
						{
							"internalType": "uint256",
							"name": "inAmount",
							"type": "uint256"
						}
					],
					"name": "tradeTokenForToken",
					"outputs": [],
					"stateMutability": "nonpayable",
					"type": "function"
				},
				{
					"inputs": [
						{
							"internalType": "address",
							"name": "newOwner",
							"type": "address"
						}
					],
					"name": "transferOwnership",
					"outputs": [],
					"stateMutability": "nonpayable",
					"type": "function"
				},
				{
					"inputs": [],
					"name": "withdraw",
					"outputs": [],
					"stateMutability": "nonpayable",
					"type": "function"
				},
				{
					"stateMutability": "payable",
					"type": "receive"
				}
			],
			"devdoc": {
				"kind": "dev",
				"methods": {
					"owner()": {
						"details": "Returns the address of the current owner."
					},
					"renounceOwnership()": {
						"details": "Leaves the contract without owner. It will not be possible to call `onlyOwner` functions anymore. Can only be called by the current owner. NOTE: Renouncing ownership will leave the contract without an owner, thereby removing any functionality that is only available to the owner."
					},
					"transferOwnership(address)": {
						"details": "Transfers ownership of the contract to a new account (`newOwner`). Can only be called by the current owner."
					}
				},
				"version": 1
			},
			"evm": {
				"assembly": "    /* \"contracts/SycrowBarter.sol\":269:10292  contract SyCrowBarter is ISyCrowBarter, Ownable {... */\n  mstore(0x40, 0xa0)\n    /* \"contracts/SycrowBarter.sol\":572:577  false */\n  0x00\n    /* \"contracts/SycrowBarter.sol\":545:577  bool public _initialized = false */\n  0x04\n  exp(0x0100, 0x15)\n  dup2\n  sload\n  dup2\n  0xff\n  mul\n  not\n  and\n  swap1\n  dup4\n  iszero\n  iszero\n  mul\n  or\n  swap1\n  sstore\n  pop\n    /* \"contracts/SycrowBarter.sol\":1757:1808  constructor() {... */\n  callvalue\n  dup1\n  iszero\n  tag_1\n  jumpi\n  0x00\n  dup1\n  revert\ntag_1:\n  pop\n    /* \"@openzeppelin/contracts/access/Ownable.sol\":921:953  _transferOwnership(_msgSender()) */\n  tag_5\n    /* \"@openzeppelin/contracts/access/Ownable.sol\":940:952  _msgSender() */\n  tag_6\n    /* \"@openzeppelin/contracts/access/Ownable.sol\":940:950  _msgSender */\n  shl(0x20, tag_7)\n    /* \"@openzeppelin/contracts/access/Ownable.sol\":940:952  _msgSender() */\n  0x20\n  shr\n  jump\t// in\ntag_6:\n    /* \"@openzeppelin/contracts/access/Ownable.sol\":921:939  _transferOwnership */\n  shl(0x20, tag_8)\n    /* \"@openzeppelin/contracts/access/Ownable.sol\":921:953  _transferOwnership(_msgSender()) */\n  0x20\n  shr\n  jump\t// in\ntag_5:\n    /* \"contracts/SycrowBarter.sol\":1791:1801  msg.sender */\n  caller\n    /* \"contracts/SycrowBarter.sol\":1781:1801  factory = msg.sender */\n  0xffffffffffffffffffffffffffffffffffffffff\n  and\n  0x80\n  dup2\n  0xffffffffffffffffffffffffffffffffffffffff\n  and\n  dup2\n  mstore\n  pop\n  pop\n    /* \"contracts/SycrowBarter.sol\":269:10292  contract SyCrowBarter is ISyCrowBarter, Ownable {... */\n  jump(tag_10)\n    /* \"@openzeppelin/contracts/utils/Context.sol\":640:736  function _msgSender() internal view virtual returns (address) {... */\ntag_7:\n    /* \"@openzeppelin/contracts/utils/Context.sol\":693:700  address */\n  0x00\n    /* \"@openzeppelin/contracts/utils/Context.sol\":719:729  msg.sender */\n  caller\n    /* \"@openzeppelin/contracts/utils/Context.sol\":712:729  return msg.sender */\n  swap1\n  pop\n    /* \"@openzeppelin/contracts/utils/Context.sol\":640:736  function _msgSender() internal view virtual returns (address) {... */\n  swap1\n  jump\t// out\n    /* \"@openzeppelin/contracts/access/Ownable.sol\":2270:2457  function _transferOwnership(address newOwner) internal virtual {... */\ntag_8:\n    /* \"@openzeppelin/contracts/access/Ownable.sol\":2343:2359  address oldOwner */\n  0x00\n    /* \"@openzeppelin/contracts/access/Ownable.sol\":2362:2368  _owner */\n  dup1\n  0x00\n  swap1\n  sload\n  swap1\n  0x0100\n  exp\n  swap1\n  div\n  0xffffffffffffffffffffffffffffffffffffffff\n  and\n    /* \"@openzeppelin/contracts/access/Ownable.sol\":2343:2368  address oldOwner = _owner */\n  swap1\n  pop\n    /* \"@openzeppelin/contracts/access/Ownable.sol\":2387:2395  newOwner */\n  dup2\n    /* \"@openzeppelin/contracts/access/Ownable.sol\":2378:2384  _owner */\n  0x00\n  dup1\n    /* \"@openzeppelin/contracts/access/Ownable.sol\":2378:2395  _owner = newOwner */\n  0x0100\n  exp\n  dup2\n  sload\n  dup2\n  0xffffffffffffffffffffffffffffffffffffffff\n  mul\n  not\n  and\n  swap1\n  dup4\n  0xffffffffffffffffffffffffffffffffffffffff\n  and\n  mul\n  or\n  swap1\n  sstore\n  pop\n    /* \"@openzeppelin/contracts/access/Ownable.sol\":2441:2449  newOwner */\n  dup2\n    /* \"@openzeppelin/contracts/access/Ownable.sol\":2410:2450  OwnershipTransferred(oldOwner, newOwner) */\n  0xffffffffffffffffffffffffffffffffffffffff\n  and\n    /* \"@openzeppelin/contracts/access/Ownable.sol\":2431:2439  oldOwner */\n  dup2\n    /* \"@openzeppelin/contracts/access/Ownable.sol\":2410:2450  OwnershipTransferred(oldOwner, newOwner) */\n  0xffffffffffffffffffffffffffffffffffffffff\n  and\n  0x8be0079c531659141344cd1fd0a4f28419497f9722a3daafe3b4186f6b6457e0\n  mload(0x40)\n  mload(0x40)\n  dup1\n  swap2\n  sub\n  swap1\n  log3\n    /* \"@openzeppelin/contracts/access/Ownable.sol\":2333:2457  {... */\n  pop\n    /* \"@openzeppelin/contracts/access/Ownable.sol\":2270:2457  function _transferOwnership(address newOwner) internal virtual {... */\n  pop\n  jump\t// out\n    /* \"contracts/SycrowBarter.sol\":269:10292  contract SyCrowBarter is ISyCrowBarter, Ownable {... */\ntag_10:\n  mload(0x80)\n  codecopy(0x00, dataOffset(sub_0), dataSize(sub_0))\n  0x00\n  assignImmutable(\"0x26a975632f70533c9512e57b565b8ce8e2befee6b08dfbc27c4a897a20e2c1d6\")\n  return(0x00, dataSize(sub_0))\nstop\n\nsub_0: assembly {\n        /* \"contracts/SycrowBarter.sol\":269:10292  contract SyCrowBarter is ISyCrowBarter, Ownable {... */\n      mstore(0x40, 0x80)\n      jumpi(tag_1, lt(calldatasize, 0x04))\n      shr(0xe0, calldataload(0x00))\n      dup1\n      0x715018a6\n      gt\n      tag_21\n      jumpi\n      dup1\n      0xc45a0155\n      gt\n      tag_22\n      jumpi\n      dup1\n      0xc45a0155\n      eq\n      tag_16\n      jumpi\n      dup1\n      0xc6ea7038\n      eq\n      tag_17\n      jumpi\n      dup1\n      0xdab5a8df\n      eq\n      tag_18\n      jumpi\n      dup1\n      0xe43372e9\n      eq\n      tag_19\n      jumpi\n      dup1\n      0xf2fde38b\n      eq\n      tag_20\n      jumpi\n      jump(tag_2)\n    tag_22:\n      dup1\n      0x715018a6\n      eq\n      tag_12\n      jumpi\n      dup1\n      0x89523742\n      eq\n      tag_13\n      jumpi\n      dup1\n      0x8da5cb5b\n      eq\n      tag_14\n      jumpi\n      dup1\n      0xaa6ca808\n      eq\n      tag_15\n      jumpi\n      jump(tag_2)\n    tag_21:\n      dup1\n      0x3ccfd60b\n      gt\n      tag_23\n      jumpi\n      dup1\n      0x3ccfd60b\n      eq\n      tag_7\n      jumpi\n      dup1\n      0x3d370b4e\n      eq\n      tag_8\n      jumpi\n      dup1\n      0x40a6f1ab\n      eq\n      tag_9\n      jumpi\n      dup1\n      0x4341f920\n      eq\n      tag_10\n      jumpi\n      dup1\n      0x5f5780e5\n      eq\n      tag_11\n      jumpi\n      jump(tag_2)\n    tag_23:\n      dup1\n      0x0d182605\n      eq\n      tag_3\n      jumpi\n      dup1\n      0x29dcb0cf\n      eq\n      tag_4\n      jumpi\n      dup1\n      0x2ffc6887\n      eq\n      tag_5\n      jumpi\n      dup1\n      0x3072cf60\n      eq\n      tag_6\n      jumpi\n      jump(tag_2)\n    tag_1:\n      jumpi(tag_2, calldatasize)\n      stop\n    tag_2:\n      stop\n        /* \"contracts/SycrowBarter.sol\":4336:4716  function tradeTokenForEth(uint256 inAmount)... */\n    tag_3:\n      callvalue\n      dup1\n      iszero\n      tag_28\n      jumpi\n      0x00\n      dup1\n      revert\n    tag_28:\n      pop\n      tag_29\n      0x04\n      dup1\n      calldatasize\n      sub\n      dup2\n      add\n      swap1\n      tag_30\n      swap2\n      swap1\n      tag_31\n      jump\t// in\n    tag_30:\n      tag_32\n      jump\t// in\n    tag_29:\n      stop\n        /* \"contracts/SycrowBarter.sol\":442:465  uint256 public deadline */\n    tag_4:\n      callvalue\n      dup1\n      iszero\n      tag_33\n      jumpi\n      0x00\n      dup1\n      revert\n    tag_33:\n      pop\n      tag_34\n      tag_35\n      jump\t// in\n    tag_34:\n      mload(0x40)\n      tag_36\n      swap2\n      swap1\n      tag_37\n      jump\t// in\n    tag_36:\n      mload(0x40)\n      dup1\n      swap2\n      sub\n      swap1\n      return\n        /* \"contracts/SycrowBarter.sol\":3945:4330  function tradeTokenForToken(uint256 inAmount)... */\n    tag_5:\n      callvalue\n      dup1\n      iszero\n      tag_38\n      jumpi\n      0x00\n      dup1\n      revert\n    tag_38:\n      pop\n      tag_39\n      0x04\n      dup1\n      calldatasize\n      sub\n      dup2\n      add\n      swap1\n      tag_40\n      swap2\n      swap1\n      tag_31\n      jump\t// in\n    tag_40:\n      tag_41\n      jump\t// in\n    tag_39:\n      stop\n        /* \"contracts/SycrowBarter.sol\":545:577  bool public _initialized = false */\n    tag_6:\n      callvalue\n      dup1\n      iszero\n      tag_42\n      jumpi\n      0x00\n      dup1\n      revert\n    tag_42:\n      pop\n      tag_43\n      tag_44\n      jump\t// in\n    tag_43:\n      mload(0x40)\n      tag_45\n      swap2\n      swap1\n      tag_46\n      jump\t// in\n    tag_45:\n      mload(0x40)\n      dup1\n      swap2\n      sub\n      swap1\n      return\n        /* \"contracts/SycrowBarter.sol\":8239:9924  function withdraw() external override checkInActive initialized onlyOwner {... */\n    tag_7:\n      callvalue\n      dup1\n      iszero\n      tag_47\n      jumpi\n      0x00\n      dup1\n      revert\n    tag_47:\n      pop\n      tag_48\n      tag_49\n      jump\t// in\n    tag_48:\n      stop\n        /* \"contracts/SycrowBarter.sol\":2856:3043  function getAmounts()... */\n    tag_8:\n      callvalue\n      dup1\n      iszero\n      tag_50\n      jumpi\n      0x00\n      dup1\n      revert\n    tag_50:\n      pop\n      tag_51\n      tag_52\n      jump\t// in\n    tag_51:\n      mload(0x40)\n      tag_53\n      swap3\n      swap2\n      swap1\n      tag_54\n      jump\t// in\n    tag_53:\n      mload(0x40)\n      dup1\n      swap2\n      sub\n      swap1\n      return\n        /* \"contracts/SycrowBarter.sol\":370:401  uint256 public totalTradeAmount */\n    tag_9:\n      callvalue\n      dup1\n      iszero\n      tag_55\n      jumpi\n      0x00\n      dup1\n      revert\n    tag_55:\n      pop\n      tag_56\n      tag_57\n      jump\t// in\n    tag_56:\n      mload(0x40)\n      tag_58\n      swap2\n      swap1\n      tag_37\n      jump\t// in\n    tag_58:\n      mload(0x40)\n      dup1\n      swap2\n      sub\n      swap1\n      return\n        /* \"contracts/SycrowBarter.sol\":4722:5119  function tradeEthForToken(uint256 inAmount)... */\n    tag_10:\n      tag_59\n      0x04\n      dup1\n      calldatasize\n      sub\n      dup2\n      add\n      swap1\n      tag_60\n      swap2\n      swap1\n      tag_31\n      jump\t// in\n    tag_60:\n      tag_61\n      jump\t// in\n    tag_59:\n      stop\n        /* \"contracts/SycrowBarter.sol\":1814:2850  function initialize(... */\n    tag_11:\n      callvalue\n      dup1\n      iszero\n      tag_62\n      jumpi\n      0x00\n      dup1\n      revert\n    tag_62:\n      pop\n      tag_63\n      0x04\n      dup1\n      calldatasize\n      sub\n      dup2\n      add\n      swap1\n      tag_64\n      swap2\n      swap1\n      tag_65\n      jump\t// in\n    tag_64:\n      tag_66\n      jump\t// in\n    tag_63:\n      mload(0x40)\n      tag_67\n      swap2\n      swap1\n      tag_46\n      jump\t// in\n    tag_67:\n      mload(0x40)\n      dup1\n      swap2\n      sub\n      swap1\n      return\n        /* \"@openzeppelin/contracts/access/Ownable.sol\":1668:1769  function renounceOwnership() public virtual onlyOwner {... */\n    tag_12:\n      callvalue\n      dup1\n      iszero\n      tag_68\n      jumpi\n      0x00\n      dup1\n      revert\n    tag_68:\n      pop\n      tag_69\n      tag_70\n      jump\t// in\n    tag_69:\n      stop\n        /* \"contracts/SycrowBarter.sol\":472:507  ISyCrowBarterType public barterType */\n    tag_13:\n      callvalue\n      dup1\n      iszero\n      tag_71\n      jumpi\n      0x00\n      dup1\n      revert\n    tag_71:\n      pop\n      tag_72\n      tag_73\n      jump\t// in\n    tag_72:\n      mload(0x40)\n      tag_74\n      swap2\n      swap1\n      tag_75\n      jump\t// in\n    tag_74:\n      mload(0x40)\n      dup1\n      swap2\n      sub\n      swap1\n      return\n        /* \"@openzeppelin/contracts/access/Ownable.sol\":1036:1121  function owner() public view virtual returns (address) {... */\n    tag_14:\n      callvalue\n      dup1\n      iszero\n      tag_76\n      jumpi\n      0x00\n      dup1\n      revert\n    tag_76:\n      pop\n      tag_77\n      tag_78\n      jump\t// in\n    tag_77:\n      mload(0x40)\n      tag_79\n      swap2\n      swap1\n      tag_80\n      jump\t// in\n    tag_79:\n      mload(0x40)\n      dup1\n      swap2\n      sub\n      swap1\n      return\n        /* \"contracts/SycrowBarter.sol\":3049:3247  function getTokens()... */\n    tag_15:\n      callvalue\n      dup1\n      iszero\n      tag_81\n      jumpi\n      0x00\n      dup1\n      revert\n    tag_81:\n      pop\n      tag_82\n      tag_83\n      jump\t// in\n    tag_82:\n      mload(0x40)\n      tag_84\n      swap3\n      swap2\n      swap1\n      tag_85\n      jump\t// in\n    tag_84:\n      mload(0x40)\n      dup1\n      swap2\n      sub\n      swap1\n      return\n        /* \"contracts/SycrowBarter.sol\":323:364  address public immutable override factory */\n    tag_16:\n      callvalue\n      dup1\n      iszero\n      tag_86\n      jumpi\n      0x00\n      dup1\n      revert\n    tag_86:\n      pop\n      tag_87\n      tag_88\n      jump\t// in\n    tag_87:\n      mload(0x40)\n      tag_89\n      swap2\n      swap1\n      tag_80\n      jump\t// in\n    tag_89:\n      mload(0x40)\n      dup1\n      swap2\n      sub\n      swap1\n      return\n        /* \"contracts/SycrowBarter.sol\":407:435  bool public allowMultiBarter */\n    tag_17:\n      callvalue\n      dup1\n      iszero\n      tag_90\n      jumpi\n      0x00\n      dup1\n      revert\n    tag_90:\n      pop\n      tag_91\n      tag_92\n      jump\t// in\n    tag_91:\n      mload(0x40)\n      tag_93\n      swap2\n      swap1\n      tag_46\n      jump\t// in\n    tag_93:\n      mload(0x40)\n      dup1\n      swap2\n      sub\n      swap1\n      return\n        /* \"contracts/SycrowBarter.sol\":9930:10100  function getTradeOutAmount(uint256 amount)... */\n    tag_18:\n      callvalue\n      dup1\n      iszero\n      tag_94\n      jumpi\n      0x00\n      dup1\n      revert\n    tag_94:\n      pop\n      tag_95\n      0x04\n      dup1\n      calldatasize\n      sub\n      dup2\n      add\n      swap1\n      tag_96\n      swap2\n      swap1\n      tag_31\n      jump\t// in\n    tag_96:\n      tag_97\n      jump\t// in\n    tag_95:\n      mload(0x40)\n      tag_98\n      swap2\n      swap1\n      tag_37\n      jump\t// in\n    tag_98:\n      mload(0x40)\n      dup1\n      swap2\n      sub\n      swap1\n      return\n        /* \"contracts/SycrowBarter.sol\":3253:3939  function getTrades()... */\n    tag_19:\n      callvalue\n      dup1\n      iszero\n      tag_99\n      jumpi\n      0x00\n      dup1\n      revert\n    tag_99:\n      pop\n      tag_100\n      tag_101\n      jump\t// in\n    tag_100:\n      mload(0x40)\n      tag_102\n      swap4\n      swap3\n      swap2\n      swap1\n      tag_103\n      jump\t// in\n    tag_102:\n      mload(0x40)\n      dup1\n      swap2\n      sub\n      swap1\n      return\n        /* \"@openzeppelin/contracts/access/Ownable.sol\":1918:2116  function transferOwnership(address newOwner) public virtual onlyOwner {... */\n    tag_20:\n      callvalue\n      dup1\n      iszero\n      tag_104\n      jumpi\n      0x00\n      dup1\n      revert\n    tag_104:\n      pop\n      tag_105\n      0x04\n      dup1\n      calldatasize\n      sub\n      dup2\n      add\n      swap1\n      tag_106\n      swap2\n      swap1\n      tag_107\n      jump\t// in\n    tag_106:\n      tag_108\n      jump\t// in\n    tag_105:\n      stop\n        /* \"contracts/SycrowBarter.sol\":4336:4716  function tradeTokenForEth(uint256 inAmount)... */\n    tag_32:\n        /* \"contracts/SycrowBarter.sol\":966:981  block.timestamp */\n      timestamp\n        /* \"contracts/SycrowBarter.sol\":954:962  deadline */\n      sload(0x03)\n        /* \"contracts/SycrowBarter.sol\":954:981  deadline >= block.timestamp */\n      lt\n      iszero\n        /* \"contracts/SycrowBarter.sol\":954:1019  deadline >= block.timestamp && totalTradeAmount < _expectedAmount */\n      dup1\n      iszero\n      tag_110\n      jumpi\n      pop\n        /* \"contracts/SycrowBarter.sol\":1004:1019  _expectedAmount */\n      sload(0x08)\n        /* \"contracts/SycrowBarter.sol\":985:1001  totalTradeAmount */\n      sload(0x01)\n        /* \"contracts/SycrowBarter.sol\":985:1019  totalTradeAmount < _expectedAmount */\n      lt\n        /* \"contracts/SycrowBarter.sol\":954:1019  deadline >= block.timestamp && totalTradeAmount < _expectedAmount */\n    tag_110:\n        /* \"contracts/SycrowBarter.sol\":933:1067  require(... */\n      tag_111\n      jumpi\n      mload(0x40)\n      0x08c379a000000000000000000000000000000000000000000000000000000000\n      dup2\n      mstore\n      0x04\n      add\n      tag_112\n      swap1\n      tag_113\n      jump\t// in\n    tag_112:\n      mload(0x40)\n      dup1\n      swap2\n      sub\n      swap1\n      revert\n    tag_111:\n        /* \"contracts/SycrowBarter.sol\":1484:1496  _initialized */\n      0x04\n      0x15\n      swap1\n      sload\n      swap1\n      0x0100\n      exp\n      swap1\n      div\n      0xff\n      and\n        /* \"contracts/SycrowBarter.sol\":1476:1530  require(_initialized, \"SyCrowBarter: NOT_INITIALIZED\") */\n      tag_115\n      jumpi\n      mload(0x40)\n      0x08c379a000000000000000000000000000000000000000000000000000000000\n      dup2\n      mstore\n      0x04\n      add\n      tag_116\n      swap1\n      tag_117\n      jump\t// in\n    tag_116:\n      mload(0x40)\n      dup1\n      swap2\n      sub\n      swap1\n      revert\n    tag_115:\n        /* \"contracts/SycrowBarter.sol\":1587:1620  ISyCrowBarterFactory isycrFactory */\n      0x00\n        /* \"contracts/SycrowBarter.sol\":1644:1651  factory */\n      immutable(\"0x26a975632f70533c9512e57b565b8ce8e2befee6b08dfbc27c4a897a20e2c1d6\")\n        /* \"contracts/SycrowBarter.sol\":1587:1652  ISyCrowBarterFactory isycrFactory = ISyCrowBarterFactory(factory) */\n      swap1\n      pop\n        /* \"contracts/SycrowBarter.sol\":1671:1683  isycrFactory */\n      dup1\n        /* \"contracts/SycrowBarter.sol\":1671:1692  isycrFactory.isPaused */\n      0xffffffffffffffffffffffffffffffffffffffff\n      and\n      0xb187bd26\n        /* \"contracts/SycrowBarter.sol\":1671:1694  isycrFactory.isPaused() */\n      mload(0x40)\n      dup2\n      0xffffffff\n      and\n      0xe0\n      shl\n      dup2\n      mstore\n      0x04\n      add\n      0x20\n      mload(0x40)\n      dup1\n      dup4\n      sub\n      dup2\n      dup7\n      gas\n      staticcall\n      iszero\n      dup1\n      iszero\n      tag_120\n      jumpi\n      returndatasize\n      0x00\n      dup1\n      returndatacopy\n      revert(0x00, returndatasize)\n    tag_120:\n      pop\n      pop\n      pop\n      pop\n      mload(0x40)\n      returndatasize\n      not(0x1f)\n      0x1f\n      dup3\n      add\n      and\n      dup3\n      add\n      dup1\n      0x40\n      mstore\n      pop\n      dup2\n      add\n      swap1\n      tag_121\n      swap2\n      swap1\n      tag_122\n      jump\t// in\n    tag_121:\n        /* \"contracts/SycrowBarter.sol\":1670:1694  !isycrFactory.isPaused() */\n      iszero\n        /* \"contracts/SycrowBarter.sol\":1662:1733  require(!isycrFactory.isPaused(), \"SyCrowBarter: Base Contract Paused\") */\n      tag_123\n      jumpi\n      mload(0x40)\n      0x08c379a000000000000000000000000000000000000000000000000000000000\n      dup2\n      mstore\n      0x04\n      add\n      tag_124\n      swap1\n      tag_125\n      jump\t// in\n    tag_124:\n      mload(0x40)\n      dup1\n      swap2\n      sub\n      swap1\n      revert\n    tag_123:\n        /* \"contracts/SycrowBarter.sol\":4498:4529  ISyCrowBarterType.ETH_FOR_TOKEN */\n      0x00\n        /* \"contracts/SycrowBarter.sol\":1180:1190  barterType */\n      0x04\n      0x00\n      swap1\n      sload\n      swap1\n      0x0100\n      exp\n      swap1\n      div\n      0xff\n      and\n        /* \"contracts/SycrowBarter.sol\":1165:1190  _barterType == barterType */\n      0x02\n      dup2\n      gt\n      iszero\n      tag_127\n      jumpi\n      tag_128\n      tag_129\n      jump\t// in\n    tag_128:\n    tag_127:\n        /* \"contracts/SycrowBarter.sol\":1165:1176  _barterType */\n      dup2\n        /* \"contracts/SycrowBarter.sol\":1165:1190  _barterType == barterType */\n      0x02\n      dup2\n      gt\n      iszero\n      tag_130\n      jumpi\n      tag_131\n      tag_129\n      jump\t// in\n    tag_131:\n    tag_130:\n      eq\n        /* \"contracts/SycrowBarter.sol\":1157:1228  require(_barterType == barterType, \"SyCrowBarter: INVALID_BARTER_TYPE\") */\n      tag_132\n      jumpi\n      mload(0x40)\n      0x08c379a000000000000000000000000000000000000000000000000000000000\n      dup2\n      mstore\n      0x04\n      add\n      tag_133\n      swap1\n      tag_134\n      jump\t// in\n    tag_133:\n      mload(0x40)\n      dup1\n      swap2\n      sub\n      swap1\n      revert\n    tag_132:\n        /* \"contracts/SycrowBarter.sol\":4550:4566  allowMultiBarter */\n      0x02\n      0x00\n      swap1\n      sload\n      swap1\n      0x0100\n      exp\n      swap1\n      div\n      0xff\n      and\n        /* \"contracts/SycrowBarter.sol\":4545:4673  if (!allowMultiBarter){... */\n      tag_136\n      jumpi\n        /* \"contracts/SycrowBarter.sol\":4601:4616  _expectedAmount */\n      sload(0x08)\n        /* \"contracts/SycrowBarter.sol\":4589:4597  inAmount */\n      dup4\n        /* \"contracts/SycrowBarter.sol\":4589:4616  inAmount >= _expectedAmount */\n      lt\n      iszero\n        /* \"contracts/SycrowBarter.sol\":4581:4662  require(inAmount >= _expectedAmount, \"SyCrowBarter: AMOUNT_LOWER_THAN_REQURIRED\") */\n      tag_137\n      jumpi\n      mload(0x40)\n      0x08c379a000000000000000000000000000000000000000000000000000000000\n      dup2\n      mstore\n      0x04\n      add\n      tag_138\n      swap1\n      tag_139\n      jump\t// in\n    tag_138:\n      mload(0x40)\n      dup1\n      swap2\n      sub\n      swap1\n      revert\n    tag_137:\n        /* \"contracts/SycrowBarter.sol\":4545:4673  if (!allowMultiBarter){... */\n    tag_136:\n        /* \"contracts/SycrowBarter.sol\":4682:4709  _tradeTokenForEth(inAmount) */\n      tag_140\n        /* \"contracts/SycrowBarter.sol\":4700:4708  inAmount */\n      dup4\n        /* \"contracts/SycrowBarter.sol\":4682:4699  _tradeTokenForEth */\n      tag_141\n        /* \"contracts/SycrowBarter.sol\":4682:4709  _tradeTokenForEth(inAmount) */\n      jump\t// in\n    tag_140:\n        /* \"contracts/SycrowBarter.sol\":1743:1744  _ */\n      pop\n        /* \"contracts/SycrowBarter.sol\":1577:1751  {... */\n      pop\n        /* \"contracts/SycrowBarter.sol\":4336:4716  function tradeTokenForEth(uint256 inAmount)... */\n      pop\n      jump\t// out\n        /* \"contracts/SycrowBarter.sol\":442:465  uint256 public deadline */\n    tag_35:\n      sload(0x03)\n      dup2\n      jump\t// out\n        /* \"contracts/SycrowBarter.sol\":3945:4330  function tradeTokenForToken(uint256 inAmount)... */\n    tag_41:\n        /* \"contracts/SycrowBarter.sol\":966:981  block.timestamp */\n      timestamp\n        /* \"contracts/SycrowBarter.sol\":954:962  deadline */\n      sload(0x03)\n        /* \"contracts/SycrowBarter.sol\":954:981  deadline >= block.timestamp */\n      lt\n      iszero\n        /* \"contracts/SycrowBarter.sol\":954:1019  deadline >= block.timestamp && totalTradeAmount < _expectedAmount */\n      dup1\n      iszero\n      tag_143\n      jumpi\n      pop\n        /* \"contracts/SycrowBarter.sol\":1004:1019  _expectedAmount */\n      sload(0x08)\n        /* \"contracts/SycrowBarter.sol\":985:1001  totalTradeAmount */\n      sload(0x01)\n        /* \"contracts/SycrowBarter.sol\":985:1019  totalTradeAmount < _expectedAmount */\n      lt\n        /* \"contracts/SycrowBarter.sol\":954:1019  deadline >= block.timestamp && totalTradeAmount < _expectedAmount */\n    tag_143:\n        /* \"contracts/SycrowBarter.sol\":933:1067  require(... */\n      tag_144\n      jumpi\n      mload(0x40)\n      0x08c379a000000000000000000000000000000000000000000000000000000000\n      dup2\n      mstore\n      0x04\n      add\n      tag_145\n      swap1\n      tag_113\n      jump\t// in\n    tag_145:\n      mload(0x40)\n      dup1\n      swap2\n      sub\n      swap1\n      revert\n    tag_144:\n        /* \"contracts/SycrowBarter.sol\":1484:1496  _initialized */\n      0x04\n      0x15\n      swap1\n      sload\n      swap1\n      0x0100\n      exp\n      swap1\n      div\n      0xff\n      and\n        /* \"contracts/SycrowBarter.sol\":1476:1530  require(_initialized, \"SyCrowBarter: NOT_INITIALIZED\") */\n      tag_147\n      jumpi\n      mload(0x40)\n      0x08c379a000000000000000000000000000000000000000000000000000000000\n      dup2\n      mstore\n      0x04\n      add\n      tag_148\n      swap1\n      tag_117\n      jump\t// in\n    tag_148:\n      mload(0x40)\n      dup1\n      swap2\n      sub\n      swap1\n      revert\n    tag_147:\n        /* \"contracts/SycrowBarter.sol\":1587:1620  ISyCrowBarterFactory isycrFactory */\n      0x00\n        /* \"contracts/SycrowBarter.sol\":1644:1651  factory */\n      immutable(\"0x26a975632f70533c9512e57b565b8ce8e2befee6b08dfbc27c4a897a20e2c1d6\")\n        /* \"contracts/SycrowBarter.sol\":1587:1652  ISyCrowBarterFactory isycrFactory = ISyCrowBarterFactory(factory) */\n      swap1\n      pop\n        /* \"contracts/SycrowBarter.sol\":1671:1683  isycrFactory */\n      dup1\n        /* \"contracts/SycrowBarter.sol\":1671:1692  isycrFactory.isPaused */\n      0xffffffffffffffffffffffffffffffffffffffff\n      and\n      0xb187bd26\n        /* \"contracts/SycrowBarter.sol\":1671:1694  isycrFactory.isPaused() */\n      mload(0x40)\n      dup2\n      0xffffffff\n      and\n      0xe0\n      shl\n      dup2\n      mstore\n      0x04\n      add\n      0x20\n      mload(0x40)\n      dup1\n      dup4\n      sub\n      dup2\n      dup7\n      gas\n      staticcall\n      iszero\n      dup1\n      iszero\n      tag_151\n      jumpi\n      returndatasize\n      0x00\n      dup1\n      returndatacopy\n      revert(0x00, returndatasize)\n    tag_151:\n      pop\n      pop\n      pop\n      pop\n      mload(0x40)\n      returndatasize\n      not(0x1f)\n      0x1f\n      dup3\n      add\n      and\n      dup3\n      add\n      dup1\n      0x40\n      mstore\n      pop\n      dup2\n      add\n      swap1\n      tag_152\n      swap2\n      swap1\n      tag_122\n      jump\t// in\n    tag_152:\n        /* \"contracts/SycrowBarter.sol\":1670:1694  !isycrFactory.isPaused() */\n      iszero\n        /* \"contracts/SycrowBarter.sol\":1662:1733  require(!isycrFactory.isPaused(), \"SyCrowBarter: Base Contract Paused\") */\n      tag_153\n      jumpi\n      mload(0x40)\n      0x08c379a000000000000000000000000000000000000000000000000000000000\n      dup2\n      mstore\n      0x04\n      add\n      tag_154\n      swap1\n      tag_125\n      jump\t// in\n    tag_154:\n      mload(0x40)\n      dup1\n      swap2\n      sub\n      swap1\n      revert\n    tag_153:\n        /* \"contracts/SycrowBarter.sol\":4109:4142  ISyCrowBarterType.TOKEN_FOR_TOKEN */\n      0x02\n        /* \"contracts/SycrowBarter.sol\":1180:1190  barterType */\n      0x04\n      0x00\n      swap1\n      sload\n      swap1\n      0x0100\n      exp\n      swap1\n      div\n      0xff\n      and\n        /* \"contracts/SycrowBarter.sol\":1165:1190  _barterType == barterType */\n      0x02\n      dup2\n      gt\n      iszero\n      tag_156\n      jumpi\n      tag_157\n      tag_129\n      jump\t// in\n    tag_157:\n    tag_156:\n        /* \"contracts/SycrowBarter.sol\":1165:1176  _barterType */\n      dup2\n        /* \"contracts/SycrowBarter.sol\":1165:1190  _barterType == barterType */\n      0x02\n      dup2\n      gt\n      iszero\n      tag_158\n      jumpi\n      tag_159\n      tag_129\n      jump\t// in\n    tag_159:\n    tag_158:\n      eq\n        /* \"contracts/SycrowBarter.sol\":1157:1228  require(_barterType == barterType, \"SyCrowBarter: INVALID_BARTER_TYPE\") */\n      tag_160\n      jumpi\n      mload(0x40)\n      0x08c379a000000000000000000000000000000000000000000000000000000000\n      dup2\n      mstore\n      0x04\n      add\n      tag_161\n      swap1\n      tag_134\n      jump\t// in\n    tag_161:\n      mload(0x40)\n      dup1\n      swap2\n      sub\n      swap1\n      revert\n    tag_160:\n        /* \"contracts/SycrowBarter.sol\":4162:4178  allowMultiBarter */\n      0x02\n      0x00\n      swap1\n      sload\n      swap1\n      0x0100\n      exp\n      swap1\n      div\n      0xff\n      and\n        /* \"contracts/SycrowBarter.sol\":4158:4285  if(!allowMultiBarter){... */\n      tag_163\n      jumpi\n        /* \"contracts/SycrowBarter.sol\":4213:4228  _expectedAmount */\n      sload(0x08)\n        /* \"contracts/SycrowBarter.sol\":4201:4209  inAmount */\n      dup4\n        /* \"contracts/SycrowBarter.sol\":4201:4228  inAmount >= _expectedAmount */\n      lt\n      iszero\n        /* \"contracts/SycrowBarter.sol\":4193:4274  require(inAmount >= _expectedAmount, \"SyCrowBarter: AMOUNT_LOWER_THAN_REQURIRED\") */\n      tag_164\n      jumpi\n      mload(0x40)\n      0x08c379a000000000000000000000000000000000000000000000000000000000\n      dup2\n      mstore\n      0x04\n      add\n      tag_165\n      swap1\n      tag_139\n      jump\t// in\n    tag_165:\n      mload(0x40)\n      dup1\n      swap2\n      sub\n      swap1\n      revert\n    tag_164:\n        /* \"contracts/SycrowBarter.sol\":4158:4285  if(!allowMultiBarter){... */\n    tag_163:\n        /* \"contracts/SycrowBarter.sol\":4294:4323  _tradeTokenForToken(inAmount) */\n      tag_166\n        /* \"contracts/SycrowBarter.sol\":4314:4322  inAmount */\n      dup4\n        /* \"contracts/SycrowBarter.sol\":4294:4313  _tradeTokenForToken */\n      tag_167\n        /* \"contracts/SycrowBarter.sol\":4294:4323  _tradeTokenForToken(inAmount) */\n      jump\t// in\n    tag_166:\n        /* \"contracts/SycrowBarter.sol\":1743:1744  _ */\n      pop\n        /* \"contracts/SycrowBarter.sol\":1577:1751  {... */\n      pop\n        /* \"contracts/SycrowBarter.sol\":3945:4330  function tradeTokenForToken(uint256 inAmount)... */\n      pop\n      jump\t// out\n        /* \"contracts/SycrowBarter.sol\":545:577  bool public _initialized = false */\n    tag_44:\n      0x04\n      0x15\n      swap1\n      sload\n      swap1\n      0x0100\n      exp\n      swap1\n      div\n      0xff\n      and\n      dup2\n      jump\t// out\n        /* \"contracts/SycrowBarter.sol\":8239:9924  function withdraw() external override checkInActive initialized onlyOwner {... */\n    tag_49:\n        /* \"contracts/SycrowBarter.sol\":1319:1334  block.timestamp */\n      timestamp\n        /* \"contracts/SycrowBarter.sol\":1308:1316  deadline */\n      sload(0x03)\n        /* \"contracts/SycrowBarter.sol\":1308:1334  deadline < block.timestamp */\n      lt\n        /* \"contracts/SycrowBarter.sol\":1308:1373  deadline < block.timestamp || totalTradeAmount >= _expectedAmount */\n      dup1\n      tag_169\n      jumpi\n      pop\n        /* \"contracts/SycrowBarter.sol\":1358:1373  _expectedAmount */\n      sload(0x08)\n        /* \"contracts/SycrowBarter.sol\":1338:1354  totalTradeAmount */\n      sload(0x01)\n        /* \"contracts/SycrowBarter.sol\":1338:1373  totalTradeAmount >= _expectedAmount */\n      lt\n      iszero\n        /* \"contracts/SycrowBarter.sol\":1308:1373  deadline < block.timestamp || totalTradeAmount >= _expectedAmount */\n    tag_169:\n        /* \"contracts/SycrowBarter.sol\":1287:1419  require(... */\n      tag_170\n      jumpi\n      mload(0x40)\n      0x08c379a000000000000000000000000000000000000000000000000000000000\n      dup2\n      mstore\n      0x04\n      add\n      tag_171\n      swap1\n      tag_172\n      jump\t// in\n    tag_171:\n      mload(0x40)\n      dup1\n      swap2\n      sub\n      swap1\n      revert\n    tag_170:\n        /* \"contracts/SycrowBarter.sol\":1484:1496  _initialized */\n      0x04\n      0x15\n      swap1\n      sload\n      swap1\n      0x0100\n      exp\n      swap1\n      div\n      0xff\n      and\n        /* \"contracts/SycrowBarter.sol\":1476:1530  require(_initialized, \"SyCrowBarter: NOT_INITIALIZED\") */\n      tag_174\n      jumpi\n      mload(0x40)\n      0x08c379a000000000000000000000000000000000000000000000000000000000\n      dup2\n      mstore\n      0x04\n      add\n      tag_175\n      swap1\n      tag_117\n      jump\t// in\n    tag_175:\n      mload(0x40)\n      dup1\n      swap2\n      sub\n      swap1\n      revert\n    tag_174:\n        /* \"@openzeppelin/contracts/access/Ownable.sol\":1259:1271  _msgSender() */\n      tag_177\n        /* \"@openzeppelin/contracts/access/Ownable.sol\":1259:1269  _msgSender */\n      tag_178\n        /* \"@openzeppelin/contracts/access/Ownable.sol\":1259:1271  _msgSender() */\n      jump\t// in\n    tag_177:\n        /* \"@openzeppelin/contracts/access/Ownable.sol\":1248:1271  owner() == _msgSender() */\n      0xffffffffffffffffffffffffffffffffffffffff\n      and\n        /* \"@openzeppelin/contracts/access/Ownable.sol\":1248:1255  owner() */\n      tag_179\n        /* \"@openzeppelin/contracts/access/Ownable.sol\":1248:1253  owner */\n      tag_78\n        /* \"@openzeppelin/contracts/access/Ownable.sol\":1248:1255  owner() */\n      jump\t// in\n    tag_179:\n        /* \"@openzeppelin/contracts/access/Ownable.sol\":1248:1271  owner() == _msgSender() */\n      0xffffffffffffffffffffffffffffffffffffffff\n      and\n      eq\n        /* \"@openzeppelin/contracts/access/Ownable.sol\":1240:1308  require(owner() == _msgSender(), \"Ownable: caller is not the owner\") */\n      tag_180\n      jumpi\n      mload(0x40)\n      0x08c379a000000000000000000000000000000000000000000000000000000000\n      dup2\n      mstore\n      0x04\n      add\n      tag_181\n      swap1\n      tag_182\n      jump\t// in\n    tag_181:\n      mload(0x40)\n      dup1\n      swap2\n      sub\n      swap1\n      revert\n    tag_180:\n        /* \"contracts/SycrowBarter.sol\":8323:8340  IERC20 _wethErc20 */\n      0x00\n        /* \"contracts/SycrowBarter.sol\":8350:8354  WETH */\n      0x04\n      0x01\n      swap1\n      sload\n      swap1\n      0x0100\n      exp\n      swap1\n      div\n      0xffffffffffffffffffffffffffffffffffffffff\n      and\n        /* \"contracts/SycrowBarter.sol\":8323:8355  IERC20 _wethErc20 = IERC20(WETH) */\n      swap1\n      pop\n        /* \"contracts/SycrowBarter.sol\":8366:8384  uint256 ethBalance */\n      0x00\n        /* \"contracts/SycrowBarter.sol\":8387:8397  _wethErc20 */\n      dup2\n        /* \"contracts/SycrowBarter.sol\":8387:8407  _wethErc20.balanceOf */\n      0xffffffffffffffffffffffffffffffffffffffff\n      and\n      0x70a08231\n        /* \"contracts/SycrowBarter.sol\":8416:8420  this */\n      address\n        /* \"contracts/SycrowBarter.sol\":8387:8422  _wethErc20.balanceOf(address(this)) */\n      mload(0x40)\n      dup3\n      0xffffffff\n      and\n      0xe0\n      shl\n      dup2\n      mstore\n      0x04\n      add\n      tag_184\n      swap2\n      swap1\n      tag_80\n      jump\t// in\n    tag_184:\n      0x20\n      mload(0x40)\n      dup1\n      dup4\n      sub\n      dup2\n      dup7\n      gas\n      staticcall\n      iszero\n      dup1\n      iszero\n      tag_186\n      jumpi\n      returndatasize\n      0x00\n      dup1\n      returndatacopy\n      revert(0x00, returndatasize)\n    tag_186:\n      pop\n      pop\n      pop\n      pop\n      mload(0x40)\n      returndatasize\n      not(0x1f)\n      0x1f\n      dup3\n      add\n      and\n      dup3\n      add\n      dup1\n      0x40\n      mstore\n      pop\n      dup2\n      add\n      swap1\n      tag_187\n      swap2\n      swap1\n      tag_188\n      jump\t// in\n    tag_187:\n        /* \"contracts/SycrowBarter.sol\":8366:8422  uint256 ethBalance = _wethErc20.balanceOf(address(this)) */\n      swap1\n      pop\n        /* \"contracts/SycrowBarter.sol\":8450:8451  0 */\n      0x00\n        /* \"contracts/SycrowBarter.sol\":8437:8447  ethBalance */\n      dup2\n        /* \"contracts/SycrowBarter.sol\":8437:8451  ethBalance > 0 */\n      gt\n        /* \"contracts/SycrowBarter.sol\":8433:8578  if (ethBalance > 0) {... */\n      iszero\n      tag_189\n      jumpi\n        /* \"contracts/SycrowBarter.sol\":8473:8477  WETH */\n      0x04\n      0x01\n      swap1\n      sload\n      swap1\n      0x0100\n      exp\n      swap1\n      div\n      0xffffffffffffffffffffffffffffffffffffffff\n      and\n        /* \"contracts/SycrowBarter.sol\":8467:8487  IWETH(WETH).withdraw */\n      0xffffffffffffffffffffffffffffffffffffffff\n      and\n      0x2e1a7d4d\n        /* \"contracts/SycrowBarter.sol\":8488:8498  ethBalance */\n      dup3\n        /* \"contracts/SycrowBarter.sol\":8467:8499  IWETH(WETH).withdraw(ethBalance) */\n      mload(0x40)\n      dup3\n      0xffffffff\n      and\n      0xe0\n      shl\n      dup2\n      mstore\n      0x04\n      add\n      tag_190\n      swap2\n      swap1\n      tag_37\n      jump\t// in\n    tag_190:\n      0x00\n      mload(0x40)\n      dup1\n      dup4\n      sub\n      dup2\n      0x00\n      dup8\n      dup1\n      extcodesize\n      iszero\n      dup1\n      iszero\n      tag_191\n      jumpi\n      0x00\n      dup1\n      revert\n    tag_191:\n      pop\n      gas\n      call\n      iszero\n      dup1\n      iszero\n      tag_193\n      jumpi\n      returndatasize\n      0x00\n      dup1\n      returndatacopy\n      revert(0x00, returndatasize)\n    tag_193:\n      pop\n      pop\n      pop\n      pop\n        /* \"contracts/SycrowBarter.sol\":8513:8567  TransferHelper.safeTransferETH(msg.sender, ethBalance) */\n      tag_194\n        /* \"contracts/SycrowBarter.sol\":8544:8554  msg.sender */\n      caller\n        /* \"contracts/SycrowBarter.sol\":8556:8566  ethBalance */\n      dup3\n        /* \"contracts/SycrowBarter.sol\":8513:8543  TransferHelper.safeTransferETH */\n      tag_195\n        /* \"contracts/SycrowBarter.sol\":8513:8567  TransferHelper.safeTransferETH(msg.sender, ethBalance) */\n      jump\t// in\n    tag_194:\n        /* \"contracts/SycrowBarter.sol\":8433:8578  if (ethBalance > 0) {... */\n    tag_189:\n        /* \"contracts/SycrowBarter.sol\":8588:8616  uint256 expectedTokenBalance */\n      0x00\n        /* \"contracts/SycrowBarter.sol\":8626:8647  _expectedTokenAddress */\n      0x06\n      0x00\n      swap1\n      sload\n      swap1\n      0x0100\n      exp\n      swap1\n      div\n      0xffffffffffffffffffffffffffffffffffffffff\n      and\n        /* \"contracts/SycrowBarter.sol\":8619:8658  IERC20(_expectedTokenAddress).balanceOf */\n      0xffffffffffffffffffffffffffffffffffffffff\n      and\n      0x70a08231\n        /* \"contracts/SycrowBarter.sol\":8680:8684  this */\n      address\n        /* \"contracts/SycrowBarter.sol\":8619:8695  IERC20(_expectedTokenAddress).balanceOf(... */\n      mload(0x40)\n      dup3\n      0xffffffff\n      and\n      0xe0\n      shl\n      dup2\n      mstore\n      0x04\n      add\n      tag_196\n      swap2\n      swap1\n      tag_80\n      jump\t// in\n    tag_196:\n      0x20\n      mload(0x40)\n      dup1\n      dup4\n      sub\n      dup2\n      dup7\n      gas\n      staticcall\n      iszero\n      dup1\n      iszero\n      tag_198\n      jumpi\n      returndatasize\n      0x00\n      dup1\n      returndatacopy\n      revert(0x00, returndatasize)\n    tag_198:\n      pop\n      pop\n      pop\n      pop\n      mload(0x40)\n      returndatasize\n      not(0x1f)\n      0x1f\n      dup3\n      add\n      and\n      dup3\n      add\n      dup1\n      0x40\n      mstore\n      pop\n      dup2\n      add\n      swap1\n      tag_199\n      swap2\n      swap1\n      tag_188\n      jump\t// in\n    tag_199:\n        /* \"contracts/SycrowBarter.sol\":8588:8695  uint256 expectedTokenBalance = IERC20(_expectedTokenAddress).balanceOf(... */\n      swap1\n      pop\n        /* \"contracts/SycrowBarter.sol\":8733:8734  0 */\n      0x00\n        /* \"contracts/SycrowBarter.sol\":8710:8730  expectedTokenBalance */\n      dup2\n        /* \"contracts/SycrowBarter.sol\":8710:8734  expectedTokenBalance > 0 */\n      gt\n        /* \"contracts/SycrowBarter.sol\":8706:8907  if (expectedTokenBalance > 0) {... */\n      iszero\n      tag_200\n      jumpi\n        /* \"contracts/SycrowBarter.sol\":8750:8896  TransferHelper.safeTransfer(... */\n      tag_201\n        /* \"contracts/SycrowBarter.sol\":8795:8816  _expectedTokenAddress */\n      0x06\n      0x00\n      swap1\n      sload\n      swap1\n      0x0100\n      exp\n      swap1\n      div\n      0xffffffffffffffffffffffffffffffffffffffff\n      and\n        /* \"contracts/SycrowBarter.sol\":8834:8844  msg.sender */\n      caller\n        /* \"contracts/SycrowBarter.sol\":8862:8882  expectedTokenBalance */\n      dup4\n        /* \"contracts/SycrowBarter.sol\":8750:8777  TransferHelper.safeTransfer */\n      tag_202\n        /* \"contracts/SycrowBarter.sol\":8750:8896  TransferHelper.safeTransfer(... */\n      jump\t// in\n    tag_201:\n        /* \"contracts/SycrowBarter.sol\":8706:8907  if (expectedTokenBalance > 0) {... */\n    tag_200:\n        /* \"contracts/SycrowBarter.sol\":8917:8946  uint256 depositedTokenBalance */\n      0x00\n        /* \"contracts/SycrowBarter.sol\":8956:8978  _depositedTokenAddress */\n      0x05\n      0x00\n      swap1\n      sload\n      swap1\n      0x0100\n      exp\n      swap1\n      div\n      0xffffffffffffffffffffffffffffffffffffffff\n      and\n        /* \"contracts/SycrowBarter.sol\":8949:9002  IERC20(_depositedTokenAddress)... */\n      0xffffffffffffffffffffffffffffffffffffffff\n      and\n      0x70a08231\n        /* \"contracts/SycrowBarter.sol\":9011:9015  this */\n      address\n        /* \"contracts/SycrowBarter.sol\":8949:9017  IERC20(_depositedTokenAddress)... */\n      mload(0x40)\n      dup3\n      0xffffffff\n      and\n      0xe0\n      shl\n      dup2\n      mstore\n      0x04\n      add\n      tag_203\n      swap2\n      swap1\n      tag_80\n      jump\t// in\n    tag_203:\n      0x20\n      mload(0x40)\n      dup1\n      dup4\n      sub\n      dup2\n      dup7\n      gas\n      staticcall\n      iszero\n      dup1\n      iszero\n      tag_205\n      jumpi\n      returndatasize\n      0x00\n      dup1\n      returndatacopy\n      revert(0x00, returndatasize)\n    tag_205:\n      pop\n      pop\n      pop\n      pop\n      mload(0x40)\n      returndatasize\n      not(0x1f)\n      0x1f\n      dup3\n      add\n      and\n      dup3\n      add\n      dup1\n      0x40\n      mstore\n      pop\n      dup2\n      add\n      swap1\n      tag_206\n      swap2\n      swap1\n      tag_188\n      jump\t// in\n    tag_206:\n        /* \"contracts/SycrowBarter.sol\":8917:9017  uint256 depositedTokenBalance = IERC20(_depositedTokenAddress)... */\n      swap1\n      pop\n        /* \"contracts/SycrowBarter.sol\":9056:9057  0 */\n      0x00\n        /* \"contracts/SycrowBarter.sol\":9032:9053  depositedTokenBalance */\n      dup2\n        /* \"contracts/SycrowBarter.sol\":9032:9057  depositedTokenBalance > 0 */\n      gt\n        /* \"contracts/SycrowBarter.sol\":9028:9232  if (depositedTokenBalance > 0) {... */\n      iszero\n      tag_207\n      jumpi\n        /* \"contracts/SycrowBarter.sol\":9073:9221  TransferHelper.safeTransfer(... */\n      tag_208\n        /* \"contracts/SycrowBarter.sol\":9118:9140  _depositedTokenAddress */\n      0x05\n      0x00\n      swap1\n      sload\n      swap1\n      0x0100\n      exp\n      swap1\n      div\n      0xffffffffffffffffffffffffffffffffffffffff\n      and\n        /* \"contracts/SycrowBarter.sol\":9158:9168  msg.sender */\n      caller\n        /* \"contracts/SycrowBarter.sol\":9186:9207  depositedTokenBalance */\n      dup4\n        /* \"contracts/SycrowBarter.sol\":9073:9100  TransferHelper.safeTransfer */\n      tag_202\n        /* \"contracts/SycrowBarter.sol\":9073:9221  TransferHelper.safeTransfer(... */\n      jump\t// in\n    tag_208:\n        /* \"contracts/SycrowBarter.sol\":9028:9232  if (depositedTokenBalance > 0) {... */\n    tag_207:\n        /* \"contracts/SycrowBarter.sol\":9241:9255  uint256 value1 */\n      0x00\n        /* \"contracts/SycrowBarter.sol\":9269:9283  uint256 value2 */\n      dup1\n        /* \"contracts/SycrowBarter.sol\":9316:9347  ISyCrowBarterType.ETH_FOR_TOKEN */\n      0x00\n        /* \"contracts/SycrowBarter.sol\":9302:9347  barterType == ISyCrowBarterType.ETH_FOR_TOKEN */\n      0x02\n      dup2\n      gt\n      iszero\n      tag_209\n      jumpi\n      tag_210\n      tag_129\n      jump\t// in\n    tag_210:\n    tag_209:\n        /* \"contracts/SycrowBarter.sol\":9302:9312  barterType */\n      0x04\n      0x00\n      swap1\n      sload\n      swap1\n      0x0100\n      exp\n      swap1\n      div\n      0xff\n      and\n        /* \"contracts/SycrowBarter.sol\":9302:9347  barterType == ISyCrowBarterType.ETH_FOR_TOKEN */\n      0x02\n      dup2\n      gt\n      iszero\n      tag_211\n      jumpi\n      tag_212\n      tag_129\n      jump\t// in\n    tag_212:\n    tag_211:\n      sub\n        /* \"contracts/SycrowBarter.sol\":9298:9687  if (barterType == ISyCrowBarterType.ETH_FOR_TOKEN) {... */\n      tag_213\n      jumpi\n        /* \"contracts/SycrowBarter.sol\":9372:9382  ethBalance */\n      dup5\n        /* \"contracts/SycrowBarter.sol\":9363:9382  value1 = ethBalance */\n      swap2\n      pop\n        /* \"contracts/SycrowBarter.sol\":9405:9425  expectedTokenBalance */\n      dup4\n        /* \"contracts/SycrowBarter.sol\":9396:9425  value2 = expectedTokenBalance */\n      swap1\n      pop\n        /* \"contracts/SycrowBarter.sol\":9298:9687  if (barterType == ISyCrowBarterType.ETH_FOR_TOKEN) {... */\n      jump(tag_214)\n    tag_213:\n        /* \"contracts/SycrowBarter.sol\":9460:9493  ISyCrowBarterType.TOKEN_FOR_TOKEN */\n      0x02\n        /* \"contracts/SycrowBarter.sol\":9446:9493  barterType == ISyCrowBarterType.TOKEN_FOR_TOKEN */\n      dup1\n      dup2\n      gt\n      iszero\n      tag_215\n      jumpi\n      tag_216\n      tag_129\n      jump\t// in\n    tag_216:\n    tag_215:\n        /* \"contracts/SycrowBarter.sol\":9446:9456  barterType */\n      0x04\n      0x00\n      swap1\n      sload\n      swap1\n      0x0100\n      exp\n      swap1\n      div\n      0xff\n      and\n        /* \"contracts/SycrowBarter.sol\":9446:9493  barterType == ISyCrowBarterType.TOKEN_FOR_TOKEN */\n      0x02\n      dup2\n      gt\n      iszero\n      tag_217\n      jumpi\n      tag_218\n      tag_129\n      jump\t// in\n    tag_218:\n    tag_217:\n      sub\n        /* \"contracts/SycrowBarter.sol\":9442:9687  if (barterType == ISyCrowBarterType.TOKEN_FOR_TOKEN) {... */\n      tag_219\n      jumpi\n        /* \"contracts/SycrowBarter.sol\":9518:9539  depositedTokenBalance */\n      dup3\n        /* \"contracts/SycrowBarter.sol\":9509:9539  value1 = depositedTokenBalance */\n      swap2\n      pop\n        /* \"contracts/SycrowBarter.sol\":9562:9582  expectedTokenBalance */\n      dup4\n        /* \"contracts/SycrowBarter.sol\":9553:9582  value2 = expectedTokenBalance */\n      swap1\n      pop\n        /* \"contracts/SycrowBarter.sol\":9442:9687  if (barterType == ISyCrowBarterType.TOKEN_FOR_TOKEN) {... */\n      jump(tag_220)\n    tag_219:\n        /* \"contracts/SycrowBarter.sol\":9622:9643  depositedTokenBalance */\n      dup3\n        /* \"contracts/SycrowBarter.sol\":9613:9643  value1 = depositedTokenBalance */\n      swap2\n      pop\n        /* \"contracts/SycrowBarter.sol\":9666:9676  ethBalance */\n      dup5\n        /* \"contracts/SycrowBarter.sol\":9657:9676  value2 = ethBalance */\n      swap1\n      pop\n        /* \"contracts/SycrowBarter.sol\":9442:9687  if (barterType == ISyCrowBarterType.TOKEN_FOR_TOKEN) {... */\n    tag_220:\n        /* \"contracts/SycrowBarter.sol\":9298:9687  if (barterType == ISyCrowBarterType.ETH_FOR_TOKEN) {... */\n    tag_214:\n        /* \"contracts/SycrowBarter.sol\":9697:9729  ISyCrowBarterFactory sycrFactory */\n      0x00\n        /* \"contracts/SycrowBarter.sol\":9753:9760  factory */\n      immutable(\"0x26a975632f70533c9512e57b565b8ce8e2befee6b08dfbc27c4a897a20e2c1d6\")\n        /* \"contracts/SycrowBarter.sol\":9697:9761  ISyCrowBarterFactory sycrFactory = ISyCrowBarterFactory(factory) */\n      swap1\n      pop\n        /* \"contracts/SycrowBarter.sol\":9780:9791  sycrFactory */\n      dup1\n        /* \"contracts/SycrowBarter.sol\":9780:9816  sycrFactory.notifyWithdrawFromBarter */\n      0xffffffffffffffffffffffffffffffffffffffff\n      and\n      0x33796a0e\n        /* \"contracts/SycrowBarter.sol\":9838:9842  this */\n      address\n        /* \"contracts/SycrowBarter.sol\":9857:9867  msg.sender */\n      caller\n        /* \"contracts/SycrowBarter.sol\":9881:9887  value1 */\n      dup7\n        /* \"contracts/SycrowBarter.sol\":9901:9907  value2 */\n      dup7\n        /* \"contracts/SycrowBarter.sol\":9780:9917  sycrFactory.notifyWithdrawFromBarter(... */\n      mload(0x40)\n      dup6\n      0xffffffff\n      and\n      0xe0\n      shl\n      dup2\n      mstore\n      0x04\n      add\n      tag_221\n      swap5\n      swap4\n      swap3\n      swap2\n      swap1\n      tag_222\n      jump\t// in\n    tag_221:\n      0x00\n      mload(0x40)\n      dup1\n      dup4\n      sub\n      dup2\n      0x00\n      dup8\n      dup1\n      extcodesize\n      iszero\n      dup1\n      iszero\n      tag_223\n      jumpi\n      0x00\n      dup1\n      revert\n    tag_223:\n      pop\n      gas\n      call\n      iszero\n      dup1\n      iszero\n      tag_225\n      jumpi\n      returndatasize\n      0x00\n      dup1\n      returndatacopy\n      revert(0x00, returndatasize)\n    tag_225:\n      pop\n      pop\n      pop\n      pop\n        /* \"contracts/SycrowBarter.sol\":8313:9924  {... */\n      pop\n      pop\n      pop\n      pop\n      pop\n      pop\n      pop\n        /* \"contracts/SycrowBarter.sol\":8239:9924  function withdraw() external override checkInActive initialized onlyOwner {... */\n      jump\t// out\n        /* \"contracts/SycrowBarter.sol\":2856:3043  function getAmounts()... */\n    tag_52:\n        /* \"contracts/SycrowBarter.sol\":2962:2969  uint256 */\n      0x00\n        /* \"contracts/SycrowBarter.sol\":2971:2978  uint256 */\n      dup1\n        /* \"contracts/SycrowBarter.sol\":1484:1496  _initialized */\n      0x04\n      0x15\n      swap1\n      sload\n      swap1\n      0x0100\n      exp\n      swap1\n      div\n      0xff\n      and\n        /* \"contracts/SycrowBarter.sol\":1476:1530  require(_initialized, \"SyCrowBarter: NOT_INITIALIZED\") */\n      tag_227\n      jumpi\n      mload(0x40)\n      0x08c379a000000000000000000000000000000000000000000000000000000000\n      dup2\n      mstore\n      0x04\n      add\n      tag_228\n      swap1\n      tag_117\n      jump\t// in\n    tag_228:\n      mload(0x40)\n      dup1\n      swap2\n      sub\n      swap1\n      revert\n    tag_227:\n        /* \"contracts/SycrowBarter.sol\":3002:3018  _depositedAmount */\n      sload(0x07)\n        /* \"contracts/SycrowBarter.sol\":3020:3035  _expectedAmount */\n      sload(0x08)\n        /* \"contracts/SycrowBarter.sol\":2994:3036  return (_depositedAmount, _expectedAmount) */\n      swap2\n      pop\n      swap2\n      pop\n        /* \"contracts/SycrowBarter.sol\":2856:3043  function getAmounts()... */\n      swap1\n      swap2\n      jump\t// out\n        /* \"contracts/SycrowBarter.sol\":370:401  uint256 public totalTradeAmount */\n    tag_57:\n      sload(0x01)\n      dup2\n      jump\t// out\n        /* \"contracts/SycrowBarter.sol\":4722:5119  function tradeEthForToken(uint256 inAmount)... */\n    tag_61:\n        /* \"contracts/SycrowBarter.sol\":966:981  block.timestamp */\n      timestamp\n        /* \"contracts/SycrowBarter.sol\":954:962  deadline */\n      sload(0x03)\n        /* \"contracts/SycrowBarter.sol\":954:981  deadline >= block.timestamp */\n      lt\n      iszero\n        /* \"contracts/SycrowBarter.sol\":954:1019  deadline >= block.timestamp && totalTradeAmount < _expectedAmount */\n      dup1\n      iszero\n      tag_231\n      jumpi\n      pop\n        /* \"contracts/SycrowBarter.sol\":1004:1019  _expectedAmount */\n      sload(0x08)\n        /* \"contracts/SycrowBarter.sol\":985:1001  totalTradeAmount */\n      sload(0x01)\n        /* \"contracts/SycrowBarter.sol\":985:1019  totalTradeAmount < _expectedAmount */\n      lt\n        /* \"contracts/SycrowBarter.sol\":954:1019  deadline >= block.timestamp && totalTradeAmount < _expectedAmount */\n    tag_231:\n        /* \"contracts/SycrowBarter.sol\":933:1067  require(... */\n      tag_232\n      jumpi\n      mload(0x40)\n      0x08c379a000000000000000000000000000000000000000000000000000000000\n      dup2\n      mstore\n      0x04\n      add\n      tag_233\n      swap1\n      tag_113\n      jump\t// in\n    tag_233:\n      mload(0x40)\n      dup1\n      swap2\n      sub\n      swap1\n      revert\n    tag_232:\n        /* \"contracts/SycrowBarter.sol\":1484:1496  _initialized */\n      0x04\n      0x15\n      swap1\n      sload\n      swap1\n      0x0100\n      exp\n      swap1\n      div\n      0xff\n      and\n        /* \"contracts/SycrowBarter.sol\":1476:1530  require(_initialized, \"SyCrowBarter: NOT_INITIALIZED\") */\n      tag_235\n      jumpi\n      mload(0x40)\n      0x08c379a000000000000000000000000000000000000000000000000000000000\n      dup2\n      mstore\n      0x04\n      add\n      tag_236\n      swap1\n      tag_117\n      jump\t// in\n    tag_236:\n      mload(0x40)\n      dup1\n      swap2\n      sub\n      swap1\n      revert\n    tag_235:\n        /* \"contracts/SycrowBarter.sol\":1587:1620  ISyCrowBarterFactory isycrFactory */\n      0x00\n        /* \"contracts/SycrowBarter.sol\":1644:1651  factory */\n      immutable(\"0x26a975632f70533c9512e57b565b8ce8e2befee6b08dfbc27c4a897a20e2c1d6\")\n        /* \"contracts/SycrowBarter.sol\":1587:1652  ISyCrowBarterFactory isycrFactory = ISyCrowBarterFactory(factory) */\n      swap1\n      pop\n        /* \"contracts/SycrowBarter.sol\":1671:1683  isycrFactory */\n      dup1\n        /* \"contracts/SycrowBarter.sol\":1671:1692  isycrFactory.isPaused */\n      0xffffffffffffffffffffffffffffffffffffffff\n      and\n      0xb187bd26\n        /* \"contracts/SycrowBarter.sol\":1671:1694  isycrFactory.isPaused() */\n      mload(0x40)\n      dup2\n      0xffffffff\n      and\n      0xe0\n      shl\n      dup2\n      mstore\n      0x04\n      add\n      0x20\n      mload(0x40)\n      dup1\n      dup4\n      sub\n      dup2\n      dup7\n      gas\n      staticcall\n      iszero\n      dup1\n      iszero\n      tag_239\n      jumpi\n      returndatasize\n      0x00\n      dup1\n      returndatacopy\n      revert(0x00, returndatasize)\n    tag_239:\n      pop\n      pop\n      pop\n      pop\n      mload(0x40)\n      returndatasize\n      not(0x1f)\n      0x1f\n      dup3\n      add\n      and\n      dup3\n      add\n      dup1\n      0x40\n      mstore\n      pop\n      dup2\n      add\n      swap1\n      tag_240\n      swap2\n      swap1\n      tag_122\n      jump\t// in\n    tag_240:\n        /* \"contracts/SycrowBarter.sol\":1670:1694  !isycrFactory.isPaused() */\n      iszero\n        /* \"contracts/SycrowBarter.sol\":1662:1733  require(!isycrFactory.isPaused(), \"SyCrowBarter: Base Contract Paused\") */\n      tag_241\n      jumpi\n      mload(0x40)\n      0x08c379a000000000000000000000000000000000000000000000000000000000\n      dup2\n      mstore\n      0x04\n      add\n      tag_242\n      swap1\n      tag_125\n      jump\t// in\n    tag_242:\n      mload(0x40)\n      dup1\n      swap2\n      sub\n      swap1\n      revert\n    tag_241:\n        /* \"contracts/SycrowBarter.sol\":4900:4931  ISyCrowBarterType.TOKEN_FOR_ETH */\n      0x01\n        /* \"contracts/SycrowBarter.sol\":1180:1190  barterType */\n      0x04\n      0x00\n      swap1\n      sload\n      swap1\n      0x0100\n      exp\n      swap1\n      div\n      0xff\n      and\n        /* \"contracts/SycrowBarter.sol\":1165:1190  _barterType == barterType */\n      0x02\n      dup2\n      gt\n      iszero\n      tag_244\n      jumpi\n      tag_245\n      tag_129\n      jump\t// in\n    tag_245:\n    tag_244:\n        /* \"contracts/SycrowBarter.sol\":1165:1176  _barterType */\n      dup2\n        /* \"contracts/SycrowBarter.sol\":1165:1190  _barterType == barterType */\n      0x02\n      dup2\n      gt\n      iszero\n      tag_246\n      jumpi\n      tag_247\n      tag_129\n      jump\t// in\n    tag_247:\n    tag_246:\n      eq\n        /* \"contracts/SycrowBarter.sol\":1157:1228  require(_barterType == barterType, \"SyCrowBarter: INVALID_BARTER_TYPE\") */\n      tag_248\n      jumpi\n      mload(0x40)\n      0x08c379a000000000000000000000000000000000000000000000000000000000\n      dup2\n      mstore\n      0x04\n      add\n      tag_249\n      swap1\n      tag_134\n      jump\t// in\n    tag_249:\n      mload(0x40)\n      dup1\n      swap2\n      sub\n      swap1\n      revert\n    tag_248:\n        /* \"contracts/SycrowBarter.sol\":4952:4968  allowMultiBarter */\n      0x02\n      0x00\n      swap1\n      sload\n      swap1\n      0x0100\n      exp\n      swap1\n      div\n      0xff\n      and\n        /* \"contracts/SycrowBarter.sol\":4947:5076  if (!allowMultiBarter){... */\n      tag_251\n      jumpi\n        /* \"contracts/SycrowBarter.sol\":5004:5019  _expectedAmount */\n      sload(0x08)\n        /* \"contracts/SycrowBarter.sol\":4991:5000  msg.value */\n      callvalue\n        /* \"contracts/SycrowBarter.sol\":4991:5019  msg.value >= _expectedAmount */\n      lt\n      iszero\n        /* \"contracts/SycrowBarter.sol\":4983:5065  require(msg.value >= _expectedAmount, \"SyCrowBarter: AMOUNT_LOWER_THAN_REQURIRED\") */\n      tag_252\n      jumpi\n      mload(0x40)\n      0x08c379a000000000000000000000000000000000000000000000000000000000\n      dup2\n      mstore\n      0x04\n      add\n      tag_253\n      swap1\n      tag_139\n      jump\t// in\n    tag_253:\n      mload(0x40)\n      dup1\n      swap2\n      sub\n      swap1\n      revert\n    tag_252:\n        /* \"contracts/SycrowBarter.sol\":4947:5076  if (!allowMultiBarter){... */\n    tag_251:\n        /* \"contracts/SycrowBarter.sol\":5085:5112  _tradeEthForToken(inAmount) */\n      tag_254\n        /* \"contracts/SycrowBarter.sol\":5103:5111  inAmount */\n      dup4\n        /* \"contracts/SycrowBarter.sol\":5085:5102  _tradeEthForToken */\n      tag_255\n        /* \"contracts/SycrowBarter.sol\":5085:5112  _tradeEthForToken(inAmount) */\n      jump\t// in\n    tag_254:\n        /* \"contracts/SycrowBarter.sol\":1743:1744  _ */\n      pop\n        /* \"contracts/SycrowBarter.sol\":1577:1751  {... */\n      pop\n        /* \"contracts/SycrowBarter.sol\":4722:5119  function tradeEthForToken(uint256 inAmount)... */\n      pop\n      jump\t// out\n        /* \"contracts/SycrowBarter.sol\":1814:2850  function initialize(... */\n    tag_66:\n        /* \"contracts/SycrowBarter.sol\":2095:2099  bool */\n      0x00\n        /* \"contracts/SycrowBarter.sol\":2133:2140  factory */\n      immutable(\"0x26a975632f70533c9512e57b565b8ce8e2befee6b08dfbc27c4a897a20e2c1d6\")\n        /* \"contracts/SycrowBarter.sol\":2119:2140  msg.sender == factory */\n      0xffffffffffffffffffffffffffffffffffffffff\n      and\n        /* \"contracts/SycrowBarter.sol\":2119:2129  msg.sender */\n      caller\n        /* \"contracts/SycrowBarter.sol\":2119:2140  msg.sender == factory */\n      0xffffffffffffffffffffffffffffffffffffffff\n      and\n      eq\n        /* \"contracts/SycrowBarter.sol\":2111:2168  require(msg.sender == factory, \"SyCrowBarter: FORBIDDEN\") */\n      tag_257\n      jumpi\n      mload(0x40)\n      0x08c379a000000000000000000000000000000000000000000000000000000000\n      dup2\n      mstore\n      0x04\n      add\n      tag_258\n      swap1\n      tag_259\n      jump\t// in\n    tag_258:\n      mload(0x40)\n      dup1\n      swap2\n      sub\n      swap1\n      revert\n    tag_257:\n        /* \"contracts/SycrowBarter.sol\":2188:2200  _initialized */\n      0x04\n      0x15\n      swap1\n      sload\n      swap1\n      0x0100\n      exp\n      swap1\n      div\n      0xff\n      and\n        /* \"contracts/SycrowBarter.sol\":2187:2200  !_initialized */\n      iszero\n        /* \"contracts/SycrowBarter.sol\":2179:2238  require(!_initialized, \"SyCrowBarter: ALREADY_INITIALIZED\") */\n      tag_260\n      jumpi\n      mload(0x40)\n      0x08c379a000000000000000000000000000000000000000000000000000000000\n      dup2\n      mstore\n      0x04\n      add\n      tag_261\n      swap1\n      tag_262\n      jump\t// in\n    tag_261:\n      mload(0x40)\n      dup1\n      swap2\n      sub\n      swap1\n      revert\n    tag_260:\n        /* \"contracts/SycrowBarter.sol\":2269:2284  block.timestamp */\n      timestamp\n        /* \"contracts/SycrowBarter.sol\":2256:2265  _deadline */\n      dup5\n        /* \"contracts/SycrowBarter.sol\":2256:2284  _deadline >= block.timestamp */\n      lt\n      iszero\n        /* \"contracts/SycrowBarter.sol\":2248:2316  require(_deadline >= block.timestamp, \"SyCrowBarter: PAST_DEADLINE\") */\n      tag_263\n      jumpi\n      mload(0x40)\n      0x08c379a000000000000000000000000000000000000000000000000000000000\n      dup2\n      mstore\n      0x04\n      add\n      tag_264\n      swap1\n      tag_265\n      jump\t// in\n    tag_264:\n      mload(0x40)\n      dup1\n      swap2\n      sub\n      swap1\n      revert\n    tag_263:\n        /* \"contracts/SycrowBarter.sol\":2392:2407  amountDeposited */\n      dup6\n        /* \"contracts/SycrowBarter.sol\":2355:2362  inToken */\n      dup9\n        /* \"contracts/SycrowBarter.sol\":2348:2373  IERC20(inToken).balanceOf */\n      0xffffffffffffffffffffffffffffffffffffffff\n      and\n      0x70a08231\n        /* \"contracts/SycrowBarter.sol\":2382:2386  this */\n      address\n        /* \"contracts/SycrowBarter.sol\":2348:2388  IERC20(inToken).balanceOf(address(this)) */\n      mload(0x40)\n      dup3\n      0xffffffff\n      and\n      0xe0\n      shl\n      dup2\n      mstore\n      0x04\n      add\n      tag_266\n      swap2\n      swap1\n      tag_80\n      jump\t// in\n    tag_266:\n      0x20\n      mload(0x40)\n      dup1\n      dup4\n      sub\n      dup2\n      dup7\n      gas\n      staticcall\n      iszero\n      dup1\n      iszero\n      tag_268\n      jumpi\n      returndatasize\n      0x00\n      dup1\n      returndatacopy\n      revert(0x00, returndatasize)\n    tag_268:\n      pop\n      pop\n      pop\n      pop\n      mload(0x40)\n      returndatasize\n      not(0x1f)\n      0x1f\n      dup3\n      add\n      and\n      dup3\n      add\n      dup1\n      0x40\n      mstore\n      pop\n      dup2\n      add\n      swap1\n      tag_269\n      swap2\n      swap1\n      tag_188\n      jump\t// in\n    tag_269:\n        /* \"contracts/SycrowBarter.sol\":2348:2407  IERC20(inToken).balanceOf(address(this)) >= amountDeposited */\n      lt\n      iszero\n        /* \"contracts/SycrowBarter.sol\":2327:2467  require(... */\n      tag_270\n      jumpi\n      mload(0x40)\n      0x08c379a000000000000000000000000000000000000000000000000000000000\n      dup2\n      mstore\n      0x04\n      add\n      tag_271\n      swap1\n      tag_272\n      jump\t// in\n    tag_271:\n      mload(0x40)\n      dup1\n      swap2\n      sub\n      swap1\n      revert\n    tag_270:\n        /* \"contracts/SycrowBarter.sol\":2489:2498  _deadline */\n      dup4\n        /* \"contracts/SycrowBarter.sol\":2478:2486  deadline */\n      0x03\n        /* \"contracts/SycrowBarter.sol\":2478:2498  deadline = _deadline */\n      dup2\n      swap1\n      sstore\n      pop\n        /* \"contracts/SycrowBarter.sol\":2534:2541  inToken */\n      dup8\n        /* \"contracts/SycrowBarter.sol\":2509:2531  _depositedTokenAddress */\n      0x05\n      0x00\n        /* \"contracts/SycrowBarter.sol\":2509:2541  _depositedTokenAddress = inToken */\n      0x0100\n      exp\n      dup2\n      sload\n      dup2\n      0xffffffffffffffffffffffffffffffffffffffff\n      mul\n      not\n      and\n      swap1\n      dup4\n      0xffffffffffffffffffffffffffffffffffffffff\n      and\n      mul\n      or\n      swap1\n      sstore\n      pop\n        /* \"contracts/SycrowBarter.sol\":2575:2583  outToken */\n      dup7\n        /* \"contracts/SycrowBarter.sol\":2551:2572  _expectedTokenAddress */\n      0x06\n      0x00\n        /* \"contracts/SycrowBarter.sol\":2551:2583  _expectedTokenAddress = outToken */\n      0x0100\n      exp\n      dup2\n      sload\n      dup2\n      0xffffffffffffffffffffffffffffffffffffffff\n      mul\n      not\n      and\n      swap1\n      dup4\n      0xffffffffffffffffffffffffffffffffffffffff\n      and\n      mul\n      or\n      swap1\n      sstore\n      pop\n        /* \"contracts/SycrowBarter.sol\":2613:2628  amountDeposited */\n      dup6\n        /* \"contracts/SycrowBarter.sol\":2594:2610  _depositedAmount */\n      0x07\n        /* \"contracts/SycrowBarter.sol\":2594:2628  _depositedAmount = amountDeposited */\n      dup2\n      swap1\n      sstore\n      pop\n        /* \"contracts/SycrowBarter.sol\":2656:2670  amountExpected */\n      dup5\n        /* \"contracts/SycrowBarter.sol\":2638:2653  _expectedAmount */\n      0x08\n        /* \"contracts/SycrowBarter.sol\":2638:2670  _expectedAmount = amountExpected */\n      dup2\n      swap1\n      sstore\n      pop\n        /* \"contracts/SycrowBarter.sol\":2694:2705  _barterType */\n      dup9\n        /* \"contracts/SycrowBarter.sol\":2681:2691  barterType */\n      0x04\n      0x00\n        /* \"contracts/SycrowBarter.sol\":2681:2705  barterType = _barterType */\n      0x0100\n      exp\n      dup2\n      sload\n      dup2\n      0xff\n      mul\n      not\n      and\n      swap1\n      dup4\n      0x02\n      dup2\n      gt\n      iszero\n      tag_273\n      jumpi\n      tag_274\n      tag_129\n      jump\t// in\n    tag_274:\n    tag_273:\n      mul\n      or\n      swap1\n      sstore\n      pop\n        /* \"contracts/SycrowBarter.sol\":2735:2752  _allowMultiBarter */\n      dup3\n        /* \"contracts/SycrowBarter.sol\":2716:2732  allowMultiBarter */\n      0x02\n      0x00\n        /* \"contracts/SycrowBarter.sol\":2716:2752  allowMultiBarter = _allowMultiBarter */\n      0x0100\n      exp\n      dup2\n      sload\n      dup2\n      0xff\n      mul\n      not\n      and\n      swap1\n      dup4\n      iszero\n      iszero\n      mul\n      or\n      swap1\n      sstore\n      pop\n        /* \"contracts/SycrowBarter.sol\":2778:2783  _WETH */\n      dup2\n        /* \"contracts/SycrowBarter.sol\":2771:2775  WETH */\n      0x04\n      0x01\n        /* \"contracts/SycrowBarter.sol\":2771:2783  WETH = _WETH */\n      0x0100\n      exp\n      dup2\n      sload\n      dup2\n      0xffffffffffffffffffffffffffffffffffffffff\n      mul\n      not\n      and\n      swap1\n      dup4\n      0xffffffffffffffffffffffffffffffffffffffff\n      and\n      mul\n      or\n      swap1\n      sstore\n      pop\n        /* \"contracts/SycrowBarter.sol\":2809:2813  true */\n      0x01\n        /* \"contracts/SycrowBarter.sol\":2794:2806  _initialized */\n      0x04\n      0x15\n        /* \"contracts/SycrowBarter.sol\":2794:2813  _initialized = true */\n      0x0100\n      exp\n      dup2\n      sload\n      dup2\n      0xff\n      mul\n      not\n      and\n      swap1\n      dup4\n      iszero\n      iszero\n      mul\n      or\n      swap1\n      sstore\n      pop\n        /* \"contracts/SycrowBarter.sol\":2831:2843  _initialized */\n      0x04\n      0x15\n      swap1\n      sload\n      swap1\n      0x0100\n      exp\n      swap1\n      div\n      0xff\n      and\n        /* \"contracts/SycrowBarter.sol\":2824:2843  return _initialized */\n      swap1\n      pop\n        /* \"contracts/SycrowBarter.sol\":1814:2850  function initialize(... */\n      swap9\n      swap8\n      pop\n      pop\n      pop\n      pop\n      pop\n      pop\n      pop\n      pop\n      jump\t// out\n        /* \"@openzeppelin/contracts/access/Ownable.sol\":1668:1769  function renounceOwnership() public virtual onlyOwner {... */\n    tag_70:\n        /* \"@openzeppelin/contracts/access/Ownable.sol\":1259:1271  _msgSender() */\n      tag_276\n        /* \"@openzeppelin/contracts/access/Ownable.sol\":1259:1269  _msgSender */\n      tag_178\n        /* \"@openzeppelin/contracts/access/Ownable.sol\":1259:1271  _msgSender() */\n      jump\t// in\n    tag_276:\n        /* \"@openzeppelin/contracts/access/Ownable.sol\":1248:1271  owner() == _msgSender() */\n      0xffffffffffffffffffffffffffffffffffffffff\n      and\n        /* \"@openzeppelin/contracts/access/Ownable.sol\":1248:1255  owner() */\n      tag_277\n        /* \"@openzeppelin/contracts/access/Ownable.sol\":1248:1253  owner */\n      tag_78\n        /* \"@openzeppelin/contracts/access/Ownable.sol\":1248:1255  owner() */\n      jump\t// in\n    tag_277:\n        /* \"@openzeppelin/contracts/access/Ownable.sol\":1248:1271  owner() == _msgSender() */\n      0xffffffffffffffffffffffffffffffffffffffff\n      and\n      eq\n        /* \"@openzeppelin/contracts/access/Ownable.sol\":1240:1308  require(owner() == _msgSender(), \"Ownable: caller is not the owner\") */\n      tag_278\n      jumpi\n      mload(0x40)\n      0x08c379a000000000000000000000000000000000000000000000000000000000\n      dup2\n      mstore\n      0x04\n      add\n      tag_279\n      swap1\n      tag_182\n      jump\t// in\n    tag_279:\n      mload(0x40)\n      dup1\n      swap2\n      sub\n      swap1\n      revert\n    tag_278:\n        /* \"@openzeppelin/contracts/access/Ownable.sol\":1732:1762  _transferOwnership(address(0)) */\n      tag_281\n        /* \"@openzeppelin/contracts/access/Ownable.sol\":1759:1760  0 */\n      0x00\n        /* \"@openzeppelin/contracts/access/Ownable.sol\":1732:1750  _transferOwnership */\n      tag_282\n        /* \"@openzeppelin/contracts/access/Ownable.sol\":1732:1762  _transferOwnership(address(0)) */\n      jump\t// in\n    tag_281:\n        /* \"@openzeppelin/contracts/access/Ownable.sol\":1668:1769  function renounceOwnership() public virtual onlyOwner {... */\n      jump\t// out\n        /* \"contracts/SycrowBarter.sol\":472:507  ISyCrowBarterType public barterType */\n    tag_73:\n      0x04\n      0x00\n      swap1\n      sload\n      swap1\n      0x0100\n      exp\n      swap1\n      div\n      0xff\n      and\n      dup2\n      jump\t// out\n        /* \"@openzeppelin/contracts/access/Ownable.sol\":1036:1121  function owner() public view virtual returns (address) {... */\n    tag_78:\n        /* \"@openzeppelin/contracts/access/Ownable.sol\":1082:1089  address */\n      0x00\n        /* \"@openzeppelin/contracts/access/Ownable.sol\":1108:1114  _owner */\n      dup1\n      0x00\n      swap1\n      sload\n      swap1\n      0x0100\n      exp\n      swap1\n      div\n      0xffffffffffffffffffffffffffffffffffffffff\n      and\n        /* \"@openzeppelin/contracts/access/Ownable.sol\":1101:1114  return _owner */\n      swap1\n      pop\n        /* \"@openzeppelin/contracts/access/Ownable.sol\":1036:1121  function owner() public view virtual returns (address) {... */\n      swap1\n      jump\t// out\n        /* \"contracts/SycrowBarter.sol\":3049:3247  function getTokens()... */\n    tag_83:\n        /* \"contracts/SycrowBarter.sol\":3154:3161  address */\n      0x00\n        /* \"contracts/SycrowBarter.sol\":3163:3170  address */\n      dup1\n        /* \"contracts/SycrowBarter.sol\":1484:1496  _initialized */\n      0x04\n      0x15\n      swap1\n      sload\n      swap1\n      0x0100\n      exp\n      swap1\n      div\n      0xff\n      and\n        /* \"contracts/SycrowBarter.sol\":1476:1530  require(_initialized, \"SyCrowBarter: NOT_INITIALIZED\") */\n      tag_285\n      jumpi\n      mload(0x40)\n      0x08c379a000000000000000000000000000000000000000000000000000000000\n      dup2\n      mstore\n      0x04\n      add\n      tag_286\n      swap1\n      tag_117\n      jump\t// in\n    tag_286:\n      mload(0x40)\n      dup1\n      swap2\n      sub\n      swap1\n      revert\n    tag_285:\n        /* \"contracts/SycrowBarter.sol\":3194:3216  _depositedTokenAddress */\n      0x05\n      0x00\n      swap1\n      sload\n      swap1\n      0x0100\n      exp\n      swap1\n      div\n      0xffffffffffffffffffffffffffffffffffffffff\n      and\n        /* \"contracts/SycrowBarter.sol\":3218:3239  _expectedTokenAddress */\n      0x06\n      0x00\n      swap1\n      sload\n      swap1\n      0x0100\n      exp\n      swap1\n      div\n      0xffffffffffffffffffffffffffffffffffffffff\n      and\n        /* \"contracts/SycrowBarter.sol\":3186:3240  return (_depositedTokenAddress, _expectedTokenAddress) */\n      swap2\n      pop\n      swap2\n      pop\n        /* \"contracts/SycrowBarter.sol\":3049:3247  function getTokens()... */\n      swap1\n      swap2\n      jump\t// out\n        /* \"contracts/SycrowBarter.sol\":323:364  address public immutable override factory */\n    tag_88:\n      immutable(\"0x26a975632f70533c9512e57b565b8ce8e2befee6b08dfbc27c4a897a20e2c1d6\")\n      dup2\n      jump\t// out\n        /* \"contracts/SycrowBarter.sol\":407:435  bool public allowMultiBarter */\n    tag_92:\n      0x02\n      0x00\n      swap1\n      sload\n      swap1\n      0x0100\n      exp\n      swap1\n      div\n      0xff\n      and\n      dup2\n      jump\t// out\n        /* \"contracts/SycrowBarter.sol\":9930:10100  function getTradeOutAmount(uint256 amount)... */\n    tag_97:\n        /* \"contracts/SycrowBarter.sol\":10018:10025  uint256 */\n      0x00\n        /* \"contracts/SycrowBarter.sol\":10078:10093  _expectedAmount */\n      sload(0x08)\n        /* \"contracts/SycrowBarter.sol\":10058:10074  _depositedAmount */\n      sload(0x07)\n        /* \"contracts/SycrowBarter.sol\":10049:10055  amount */\n      dup4\n        /* \"contracts/SycrowBarter.sol\":10049:10074  amount * _depositedAmount */\n      tag_289\n      swap2\n      swap1\n      tag_290\n      jump\t// in\n    tag_289:\n        /* \"contracts/SycrowBarter.sol\":10048:10093  (amount * _depositedAmount) / _expectedAmount */\n      tag_291\n      swap2\n      swap1\n      tag_292\n      jump\t// in\n    tag_291:\n        /* \"contracts/SycrowBarter.sol\":10041:10093  return (amount * _depositedAmount) / _expectedAmount */\n      swap1\n      pop\n        /* \"contracts/SycrowBarter.sol\":9930:10100  function getTradeOutAmount(uint256 amount)... */\n      swap2\n      swap1\n      pop\n      jump\t// out\n        /* \"contracts/SycrowBarter.sol\":3253:3939  function getTrades()... */\n    tag_101:\n        /* \"contracts/SycrowBarter.sol\":3371:3387  address[] memory */\n      0x60\n        /* \"contracts/SycrowBarter.sol\":3401:3417  uint256[] memory */\n      dup1\n        /* \"contracts/SycrowBarter.sol\":3431:3447  uint256[] memory */\n      0x60\n        /* \"contracts/SycrowBarter.sol\":1484:1496  _initialized */\n      0x04\n      0x15\n      swap1\n      sload\n      swap1\n      0x0100\n      exp\n      swap1\n      div\n      0xff\n      and\n        /* \"contracts/SycrowBarter.sol\":1476:1530  require(_initialized, \"SyCrowBarter: NOT_INITIALIZED\") */\n      tag_294\n      jumpi\n      mload(0x40)\n      0x08c379a000000000000000000000000000000000000000000000000000000000\n      dup2\n      mstore\n      0x04\n      add\n      tag_295\n      swap1\n      tag_117\n      jump\t// in\n    tag_295:\n      mload(0x40)\n      dup1\n      swap2\n      sub\n      swap1\n      revert\n    tag_294:\n        /* \"contracts/SycrowBarter.sol\":3472:3498  address[] memory addresses */\n      0x00\n        /* \"contracts/SycrowBarter.sol\":3515:3522  _trades */\n      0x09\n        /* \"contracts/SycrowBarter.sol\":3515:3529  _trades.length */\n      dup1\n      sload\n      swap1\n      pop\n        /* \"contracts/SycrowBarter.sol\":3501:3530  new address[](_trades.length) */\n      0xffffffffffffffff\n      dup2\n      gt\n      iszero\n      tag_297\n      jumpi\n      tag_298\n      tag_299\n      jump\t// in\n    tag_298:\n    tag_297:\n      mload(0x40)\n      swap1\n      dup1\n      dup3\n      mstore\n      dup1\n      0x20\n      mul\n      0x20\n      add\n      dup3\n      add\n      0x40\n      mstore\n      dup1\n      iszero\n      tag_300\n      jumpi\n      dup2\n      0x20\n      add\n      0x20\n      dup3\n      mul\n      dup1\n      calldatasize\n      dup4\n      calldatacopy\n      dup1\n      dup3\n      add\n      swap2\n      pop\n      pop\n      swap1\n      pop\n    tag_300:\n      pop\n        /* \"contracts/SycrowBarter.sol\":3472:3530  address[] memory addresses = new address[](_trades.length) */\n      swap1\n      pop\n        /* \"contracts/SycrowBarter.sol\":3540:3566  uint256[] memory amountsIn */\n      0x00\n        /* \"contracts/SycrowBarter.sol\":3583:3590  _trades */\n      0x09\n        /* \"contracts/SycrowBarter.sol\":3583:3597  _trades.length */\n      dup1\n      sload\n      swap1\n      pop\n        /* \"contracts/SycrowBarter.sol\":3569:3598  new uint256[](_trades.length) */\n      0xffffffffffffffff\n      dup2\n      gt\n      iszero\n      tag_301\n      jumpi\n      tag_302\n      tag_299\n      jump\t// in\n    tag_302:\n    tag_301:\n      mload(0x40)\n      swap1\n      dup1\n      dup3\n      mstore\n      dup1\n      0x20\n      mul\n      0x20\n      add\n      dup3\n      add\n      0x40\n      mstore\n      dup1\n      iszero\n      tag_303\n      jumpi\n      dup2\n      0x20\n      add\n      0x20\n      dup3\n      mul\n      dup1\n      calldatasize\n      dup4\n      calldatacopy\n      dup1\n      dup3\n      add\n      swap2\n      pop\n      pop\n      swap1\n      pop\n    tag_303:\n      pop\n        /* \"contracts/SycrowBarter.sol\":3540:3598  uint256[] memory amountsIn = new uint256[](_trades.length) */\n      swap1\n      pop\n        /* \"contracts/SycrowBarter.sol\":3608:3635  uint256[] memory amountsOut */\n      0x00\n        /* \"contracts/SycrowBarter.sol\":3652:3659  _trades */\n      0x09\n        /* \"contracts/SycrowBarter.sol\":3652:3666  _trades.length */\n      dup1\n      sload\n      swap1\n      pop\n        /* \"contracts/SycrowBarter.sol\":3638:3667  new uint256[](_trades.length) */\n      0xffffffffffffffff\n      dup2\n      gt\n      iszero\n      tag_304\n      jumpi\n      tag_305\n      tag_299\n      jump\t// in\n    tag_305:\n    tag_304:\n      mload(0x40)\n      swap1\n      dup1\n      dup3\n      mstore\n      dup1\n      0x20\n      mul\n      0x20\n      add\n      dup3\n      add\n      0x40\n      mstore\n      dup1\n      iszero\n      tag_306\n      jumpi\n      dup2\n      0x20\n      add\n      0x20\n      dup3\n      mul\n      dup1\n      calldatasize\n      dup4\n      calldatacopy\n      dup1\n      dup3\n      add\n      swap2\n      pop\n      pop\n      swap1\n      pop\n    tag_306:\n      pop\n        /* \"contracts/SycrowBarter.sol\":3608:3667  uint256[] memory amountsOut = new uint256[](_trades.length) */\n      swap1\n      pop\n        /* \"contracts/SycrowBarter.sol\":3683:3692  uint256 i */\n      0x00\n        /* \"contracts/SycrowBarter.sol\":3678:3881  for (uint256 i = 0; i < _trades.length; i++) {... */\n    tag_307:\n        /* \"contracts/SycrowBarter.sol\":3702:3709  _trades */\n      0x09\n        /* \"contracts/SycrowBarter.sol\":3702:3716  _trades.length */\n      dup1\n      sload\n      swap1\n      pop\n        /* \"contracts/SycrowBarter.sol\":3698:3699  i */\n      dup2\n        /* \"contracts/SycrowBarter.sol\":3698:3716  i < _trades.length */\n      lt\n        /* \"contracts/SycrowBarter.sol\":3678:3881  for (uint256 i = 0; i < _trades.length; i++) {... */\n      iszero\n      tag_308\n      jumpi\n        /* \"contracts/SycrowBarter.sol\":3752:3759  _trades */\n      0x09\n        /* \"contracts/SycrowBarter.sol\":3760:3761  i */\n      dup2\n        /* \"contracts/SycrowBarter.sol\":3752:3762  _trades[i] */\n      dup2\n      sload\n      dup2\n      lt\n      tag_310\n      jumpi\n      tag_311\n      tag_312\n      jump\t// in\n    tag_311:\n    tag_310:\n      swap1\n      0x00\n      mstore\n      keccak256(0x00, 0x20)\n      swap1\n      0x03\n      mul\n      add\n        /* \"contracts/SycrowBarter.sol\":3752:3770  _trades[i]._trader */\n      0x00\n      add\n      0x00\n      swap1\n      sload\n      swap1\n      0x0100\n      exp\n      swap1\n      div\n      0xffffffffffffffffffffffffffffffffffffffff\n      and\n        /* \"contracts/SycrowBarter.sol\":3737:3746  addresses */\n      dup5\n        /* \"contracts/SycrowBarter.sol\":3747:3748  i */\n      dup3\n        /* \"contracts/SycrowBarter.sol\":3737:3749  addresses[i] */\n      dup2\n      mload\n      dup2\n      lt\n      tag_314\n      jumpi\n      tag_315\n      tag_312\n      jump\t// in\n    tag_315:\n    tag_314:\n      0x20\n      mul\n      0x20\n      add\n      add\n        /* \"contracts/SycrowBarter.sol\":3737:3770  addresses[i] = _trades[i]._trader */\n      swap1\n      0xffffffffffffffffffffffffffffffffffffffff\n      and\n      swap1\n      dup2\n      0xffffffffffffffffffffffffffffffffffffffff\n      and\n      dup2\n      mstore\n      pop\n      pop\n        /* \"contracts/SycrowBarter.sol\":3799:3806  _trades */\n      0x09\n        /* \"contracts/SycrowBarter.sol\":3807:3808  i */\n      dup2\n        /* \"contracts/SycrowBarter.sol\":3799:3809  _trades[i] */\n      dup2\n      sload\n      dup2\n      lt\n      tag_316\n      jumpi\n      tag_317\n      tag_312\n      jump\t// in\n    tag_317:\n    tag_316:\n      swap1\n      0x00\n      mstore\n      keccak256(0x00, 0x20)\n      swap1\n      0x03\n      mul\n      add\n        /* \"contracts/SycrowBarter.sol\":3799:3819  _trades[i]._amountIn */\n      0x01\n      add\n      sload\n        /* \"contracts/SycrowBarter.sol\":3784:3793  amountsIn */\n      dup4\n        /* \"contracts/SycrowBarter.sol\":3794:3795  i */\n      dup3\n        /* \"contracts/SycrowBarter.sol\":3784:3796  amountsIn[i] */\n      dup2\n      mload\n      dup2\n      lt\n      tag_319\n      jumpi\n      tag_320\n      tag_312\n      jump\t// in\n    tag_320:\n    tag_319:\n      0x20\n      mul\n      0x20\n      add\n      add\n        /* \"contracts/SycrowBarter.sol\":3784:3819  amountsIn[i] = _trades[i]._amountIn */\n      dup2\n      dup2\n      mstore\n      pop\n      pop\n        /* \"contracts/SycrowBarter.sol\":3849:3856  _trades */\n      0x09\n        /* \"contracts/SycrowBarter.sol\":3857:3858  i */\n      dup2\n        /* \"contracts/SycrowBarter.sol\":3849:3859  _trades[i] */\n      dup2\n      sload\n      dup2\n      lt\n      tag_321\n      jumpi\n      tag_322\n      tag_312\n      jump\t// in\n    tag_322:\n    tag_321:\n      swap1\n      0x00\n      mstore\n      keccak256(0x00, 0x20)\n      swap1\n      0x03\n      mul\n      add\n        /* \"contracts/SycrowBarter.sol\":3849:3870  _trades[i]._amountOut */\n      0x02\n      add\n      sload\n        /* \"contracts/SycrowBarter.sol\":3833:3843  amountsOut */\n      dup3\n        /* \"contracts/SycrowBarter.sol\":3844:3845  i */\n      dup3\n        /* \"contracts/SycrowBarter.sol\":3833:3846  amountsOut[i] */\n      dup2\n      mload\n      dup2\n      lt\n      tag_324\n      jumpi\n      tag_325\n      tag_312\n      jump\t// in\n    tag_325:\n    tag_324:\n      0x20\n      mul\n      0x20\n      add\n      add\n        /* \"contracts/SycrowBarter.sol\":3833:3870  amountsOut[i] = _trades[i]._amountOut */\n      dup2\n      dup2\n      mstore\n      pop\n      pop\n        /* \"contracts/SycrowBarter.sol\":3718:3721  i++ */\n      dup1\n      dup1\n      tag_326\n      swap1\n      tag_327\n      jump\t// in\n    tag_326:\n      swap2\n      pop\n      pop\n        /* \"contracts/SycrowBarter.sol\":3678:3881  for (uint256 i = 0; i < _trades.length; i++) {... */\n      jump(tag_307)\n    tag_308:\n      pop\n        /* \"contracts/SycrowBarter.sol\":3899:3908  addresses */\n      dup3\n        /* \"contracts/SycrowBarter.sol\":3910:3919  amountsIn */\n      dup3\n        /* \"contracts/SycrowBarter.sol\":3921:3931  amountsOut */\n      dup3\n        /* \"contracts/SycrowBarter.sol\":3891:3932  return (addresses, amountsIn, amountsOut) */\n      swap6\n      pop\n      swap6\n      pop\n      swap6\n      pop\n      pop\n      pop\n      pop\n        /* \"contracts/SycrowBarter.sol\":3253:3939  function getTrades()... */\n      swap1\n      swap2\n      swap3\n      jump\t// out\n        /* \"@openzeppelin/contracts/access/Ownable.sol\":1918:2116  function transferOwnership(address newOwner) public virtual onlyOwner {... */\n    tag_108:\n        /* \"@openzeppelin/contracts/access/Ownable.sol\":1259:1271  _msgSender() */\n      tag_329\n        /* \"@openzeppelin/contracts/access/Ownable.sol\":1259:1269  _msgSender */\n      tag_178\n        /* \"@openzeppelin/contracts/access/Ownable.sol\":1259:1271  _msgSender() */\n      jump\t// in\n    tag_329:\n        /* \"@openzeppelin/contracts/access/Ownable.sol\":1248:1271  owner() == _msgSender() */\n      0xffffffffffffffffffffffffffffffffffffffff\n      and\n        /* \"@openzeppelin/contracts/access/Ownable.sol\":1248:1255  owner() */\n      tag_330\n        /* \"@openzeppelin/contracts/access/Ownable.sol\":1248:1253  owner */\n      tag_78\n        /* \"@openzeppelin/contracts/access/Ownable.sol\":1248:1255  owner() */\n      jump\t// in\n    tag_330:\n        /* \"@openzeppelin/contracts/access/Ownable.sol\":1248:1271  owner() == _msgSender() */\n      0xffffffffffffffffffffffffffffffffffffffff\n      and\n      eq\n        /* \"@openzeppelin/contracts/access/Ownable.sol\":1240:1308  require(owner() == _msgSender(), \"Ownable: caller is not the owner\") */\n      tag_331\n      jumpi\n      mload(0x40)\n      0x08c379a000000000000000000000000000000000000000000000000000000000\n      dup2\n      mstore\n      0x04\n      add\n      tag_332\n      swap1\n      tag_182\n      jump\t// in\n    tag_332:\n      mload(0x40)\n      dup1\n      swap2\n      sub\n      swap1\n      revert\n    tag_331:\n        /* \"@openzeppelin/contracts/access/Ownable.sol\":2026:2027  0 */\n      0x00\n        /* \"@openzeppelin/contracts/access/Ownable.sol\":2006:2028  newOwner != address(0) */\n      0xffffffffffffffffffffffffffffffffffffffff\n      and\n        /* \"@openzeppelin/contracts/access/Ownable.sol\":2006:2014  newOwner */\n      dup2\n        /* \"@openzeppelin/contracts/access/Ownable.sol\":2006:2028  newOwner != address(0) */\n      0xffffffffffffffffffffffffffffffffffffffff\n      and\n      sub\n        /* \"@openzeppelin/contracts/access/Ownable.sol\":1998:2071  require(newOwner != address(0), \"Ownable: new owner is the zero address\") */\n      tag_334\n      jumpi\n      mload(0x40)\n      0x08c379a000000000000000000000000000000000000000000000000000000000\n      dup2\n      mstore\n      0x04\n      add\n      tag_335\n      swap1\n      tag_336\n      jump\t// in\n    tag_335:\n      mload(0x40)\n      dup1\n      swap2\n      sub\n      swap1\n      revert\n    tag_334:\n        /* \"@openzeppelin/contracts/access/Ownable.sol\":2081:2109  _transferOwnership(newOwner) */\n      tag_337\n        /* \"@openzeppelin/contracts/access/Ownable.sol\":2100:2108  newOwner */\n      dup2\n        /* \"@openzeppelin/contracts/access/Ownable.sol\":2081:2099  _transferOwnership */\n      tag_282\n        /* \"@openzeppelin/contracts/access/Ownable.sol\":2081:2109  _transferOwnership(newOwner) */\n      jump\t// in\n    tag_337:\n        /* \"@openzeppelin/contracts/access/Ownable.sol\":1918:2116  function transferOwnership(address newOwner) public virtual onlyOwner {... */\n      pop\n      jump\t// out\n        /* \"contracts/SycrowBarter.sol\":6237:7316  function _tradeTokenForEth(uint256 inAmount) internal {... */\n    tag_141:\n        /* \"contracts/SycrowBarter.sol\":6377:6385  inAmount */\n      dup1\n        /* \"contracts/SycrowBarter.sol\":6329:6350  _expectedTokenAddress */\n      0x06\n      0x00\n      swap1\n      sload\n      swap1\n      0x0100\n      exp\n      swap1\n      div\n      0xffffffffffffffffffffffffffffffffffffffff\n      and\n        /* \"contracts/SycrowBarter.sol\":6322:6361  IERC20(_expectedTokenAddress).balanceOf */\n      0xffffffffffffffffffffffffffffffffffffffff\n      and\n      0x70a08231\n        /* \"contracts/SycrowBarter.sol\":6362:6372  msg.sender */\n      caller\n        /* \"contracts/SycrowBarter.sol\":6322:6373  IERC20(_expectedTokenAddress).balanceOf(msg.sender) */\n      mload(0x40)\n      dup3\n      0xffffffff\n      and\n      0xe0\n      shl\n      dup2\n      mstore\n      0x04\n      add\n      tag_339\n      swap2\n      swap1\n      tag_80\n      jump\t// in\n    tag_339:\n      0x20\n      mload(0x40)\n      dup1\n      dup4\n      sub\n      dup2\n      dup7\n      gas\n      staticcall\n      iszero\n      dup1\n      iszero\n      tag_341\n      jumpi\n      returndatasize\n      0x00\n      dup1\n      returndatacopy\n      revert(0x00, returndatasize)\n    tag_341:\n      pop\n      pop\n      pop\n      pop\n      mload(0x40)\n      returndatasize\n      not(0x1f)\n      0x1f\n      dup3\n      add\n      and\n      dup3\n      add\n      dup1\n      0x40\n      mstore\n      pop\n      dup2\n      add\n      swap1\n      tag_342\n      swap2\n      swap1\n      tag_188\n      jump\t// in\n    tag_342:\n        /* \"contracts/SycrowBarter.sol\":6322:6385  IERC20(_expectedTokenAddress).balanceOf(msg.sender) >= inAmount */\n      lt\n      iszero\n        /* \"contracts/SycrowBarter.sol\":6301:6445  require(... */\n      tag_343\n      jumpi\n      mload(0x40)\n      0x08c379a000000000000000000000000000000000000000000000000000000000\n      dup2\n      mstore\n      0x04\n      add\n      tag_344\n      swap1\n      tag_345\n      jump\t// in\n    tag_344:\n      mload(0x40)\n      dup1\n      swap2\n      sub\n      swap1\n      revert\n    tag_343:\n        /* \"contracts/SycrowBarter.sol\":6456:6473  uint256 outAmount */\n      0x00\n        /* \"contracts/SycrowBarter.sol\":6476:6503  getTradeOutAmount(inAmount) */\n      tag_346\n        /* \"contracts/SycrowBarter.sol\":6494:6502  inAmount */\n      dup3\n        /* \"contracts/SycrowBarter.sol\":6476:6493  getTradeOutAmount */\n      tag_97\n        /* \"contracts/SycrowBarter.sol\":6476:6503  getTradeOutAmount(inAmount) */\n      jump\t// in\n    tag_346:\n        /* \"contracts/SycrowBarter.sol\":6456:6503  uint256 outAmount = getTradeOutAmount(inAmount) */\n      swap1\n      pop\n        /* \"contracts/SycrowBarter.sol\":6514:6531  IERC20 _wethErc20 */\n      0x00\n        /* \"contracts/SycrowBarter.sol\":6541:6545  WETH */\n      0x04\n      0x01\n      swap1\n      sload\n      swap1\n      0x0100\n      exp\n      swap1\n      div\n      0xffffffffffffffffffffffffffffffffffffffff\n      and\n        /* \"contracts/SycrowBarter.sol\":6514:6546  IERC20 _wethErc20 = IERC20(WETH) */\n      swap1\n      pop\n        /* \"contracts/SycrowBarter.sol\":6617:6626  outAmount */\n      dup2\n        /* \"contracts/SycrowBarter.sol\":6578:6588  _wethErc20 */\n      dup2\n        /* \"contracts/SycrowBarter.sol\":6578:6598  _wethErc20.balanceOf */\n      0xffffffffffffffffffffffffffffffffffffffff\n      and\n      0x70a08231\n        /* \"contracts/SycrowBarter.sol\":6607:6611  this */\n      address\n        /* \"contracts/SycrowBarter.sol\":6578:6613  _wethErc20.balanceOf(address(this)) */\n      mload(0x40)\n      dup3\n      0xffffffff\n      and\n      0xe0\n      shl\n      dup2\n      mstore\n      0x04\n      add\n      tag_347\n      swap2\n      swap1\n      tag_80\n      jump\t// in\n    tag_347:\n      0x20\n      mload(0x40)\n      dup1\n      dup4\n      sub\n      dup2\n      dup7\n      gas\n      staticcall\n      iszero\n      dup1\n      iszero\n      tag_349\n      jumpi\n      returndatasize\n      0x00\n      dup1\n      returndatacopy\n      revert(0x00, returndatasize)\n    tag_349:\n      pop\n      pop\n      pop\n      pop\n      mload(0x40)\n      returndatasize\n      not(0x1f)\n      0x1f\n      dup3\n      add\n      and\n      dup3\n      add\n      dup1\n      0x40\n      mstore\n      pop\n      dup2\n      add\n      swap1\n      tag_350\n      swap2\n      swap1\n      tag_188\n      jump\t// in\n    tag_350:\n        /* \"contracts/SycrowBarter.sol\":6578:6626  _wethErc20.balanceOf(address(this)) >= outAmount */\n      lt\n      iszero\n        /* \"contracts/SycrowBarter.sol\":6557:6695  require(... */\n      tag_351\n      jumpi\n      mload(0x40)\n      0x08c379a000000000000000000000000000000000000000000000000000000000\n      dup2\n      mstore\n      0x04\n      add\n      tag_352\n      swap1\n      tag_353\n      jump\t// in\n    tag_352:\n      mload(0x40)\n      dup1\n      swap2\n      sub\n      swap1\n      revert\n    tag_351:\n        /* \"contracts/SycrowBarter.sol\":6706:6855  TransferHelper.safeTransferFrom(... */\n      tag_354\n        /* \"contracts/SycrowBarter.sol\":6751:6772  _expectedTokenAddress */\n      0x06\n      0x00\n      swap1\n      sload\n      swap1\n      0x0100\n      exp\n      swap1\n      div\n      0xffffffffffffffffffffffffffffffffffffffff\n      and\n        /* \"contracts/SycrowBarter.sol\":6786:6796  msg.sender */\n      caller\n        /* \"contracts/SycrowBarter.sol\":6818:6822  this */\n      address\n        /* \"contracts/SycrowBarter.sol\":6837:6845  inAmount */\n      dup7\n        /* \"contracts/SycrowBarter.sol\":6706:6737  TransferHelper.safeTransferFrom */\n      tag_355\n        /* \"contracts/SycrowBarter.sol\":6706:6855  TransferHelper.safeTransferFrom(... */\n      jump\t// in\n    tag_354:\n        /* \"contracts/SycrowBarter.sol\":6872:6876  WETH */\n      0x04\n      0x01\n      swap1\n      sload\n      swap1\n      0x0100\n      exp\n      swap1\n      div\n      0xffffffffffffffffffffffffffffffffffffffff\n      and\n        /* \"contracts/SycrowBarter.sol\":6866:6886  IWETH(WETH).withdraw */\n      0xffffffffffffffffffffffffffffffffffffffff\n      and\n      0x2e1a7d4d\n        /* \"contracts/SycrowBarter.sol\":6887:6896  outAmount */\n      dup4\n        /* \"contracts/SycrowBarter.sol\":6866:6897  IWETH(WETH).withdraw(outAmount) */\n      mload(0x40)\n      dup3\n      0xffffffff\n      and\n      0xe0\n      shl\n      dup2\n      mstore\n      0x04\n      add\n      tag_356\n      swap2\n      swap1\n      tag_37\n      jump\t// in\n    tag_356:\n      0x00\n      mload(0x40)\n      dup1\n      dup4\n      sub\n      dup2\n      0x00\n      dup8\n      dup1\n      extcodesize\n      iszero\n      dup1\n      iszero\n      tag_357\n      jumpi\n      0x00\n      dup1\n      revert\n    tag_357:\n      pop\n      gas\n      call\n      iszero\n      dup1\n      iszero\n      tag_359\n      jumpi\n      returndatasize\n      0x00\n      dup1\n      returndatacopy\n      revert(0x00, returndatasize)\n    tag_359:\n      pop\n      pop\n      pop\n      pop\n        /* \"contracts/SycrowBarter.sol\":6908:6961  TransferHelper.safeTransferETH(msg.sender, outAmount) */\n      tag_360\n        /* \"contracts/SycrowBarter.sol\":6939:6949  msg.sender */\n      caller\n        /* \"contracts/SycrowBarter.sol\":6951:6960  outAmount */\n      dup4\n        /* \"contracts/SycrowBarter.sol\":6908:6938  TransferHelper.safeTransferETH */\n      tag_195\n        /* \"contracts/SycrowBarter.sol\":6908:6961  TransferHelper.safeTransferETH(msg.sender, outAmount) */\n      jump\t// in\n    tag_360:\n        /* \"contracts/SycrowBarter.sol\":6972:6979  _trades */\n      0x09\n        /* \"contracts/SycrowBarter.sol\":6985:7028  BaterTrade(msg.sender, inAmount, outAmount) */\n      mload(0x40)\n      dup1\n      0x60\n      add\n      0x40\n      mstore\n      dup1\n        /* \"contracts/SycrowBarter.sol\":6996:7006  msg.sender */\n      caller\n        /* \"contracts/SycrowBarter.sol\":6985:7028  BaterTrade(msg.sender, inAmount, outAmount) */\n      0xffffffffffffffffffffffffffffffffffffffff\n      and\n      dup2\n      mstore\n      0x20\n      add\n        /* \"contracts/SycrowBarter.sol\":7008:7016  inAmount */\n      dup6\n        /* \"contracts/SycrowBarter.sol\":6985:7028  BaterTrade(msg.sender, inAmount, outAmount) */\n      dup2\n      mstore\n      0x20\n      add\n        /* \"contracts/SycrowBarter.sol\":7018:7027  outAmount */\n      dup5\n        /* \"contracts/SycrowBarter.sol\":6985:7028  BaterTrade(msg.sender, inAmount, outAmount) */\n      dup2\n      mstore\n      pop\n        /* \"contracts/SycrowBarter.sol\":6972:7029  _trades.push(BaterTrade(msg.sender, inAmount, outAmount)) */\n      swap1\n      dup1\n      0x01\n      dup2\n      sload\n      add\n      dup1\n      dup3\n      sstore\n      dup1\n      swap2\n      pop\n      pop\n      0x01\n      swap1\n      sub\n      swap1\n      0x00\n      mstore\n      keccak256(0x00, 0x20)\n      swap1\n      0x03\n      mul\n      add\n      0x00\n      swap1\n      swap2\n      swap1\n      swap2\n      swap1\n      swap2\n      pop\n      0x00\n      dup3\n      add\n      mload\n      dup2\n      0x00\n      add\n      exp(0x0100, 0x00)\n      dup2\n      sload\n      dup2\n      0xffffffffffffffffffffffffffffffffffffffff\n      mul\n      not\n      and\n      swap1\n      dup4\n      0xffffffffffffffffffffffffffffffffffffffff\n      and\n      mul\n      or\n      swap1\n      sstore\n      pop\n      0x20\n      dup3\n      add\n      mload\n      dup2\n      0x01\n      add\n      sstore\n      0x40\n      dup3\n      add\n      mload\n      dup2\n      0x02\n      add\n      sstore\n      pop\n      pop\n        /* \"contracts/SycrowBarter.sol\":7078:7086  inAmount */\n      dup3\n        /* \"contracts/SycrowBarter.sol\":7059:7075  totalTradeAmount */\n      sload(0x01)\n        /* \"contracts/SycrowBarter.sol\":7059:7086  totalTradeAmount + inAmount */\n      tag_362\n      swap2\n      swap1\n      tag_363\n      jump\t// in\n    tag_362:\n        /* \"contracts/SycrowBarter.sol\":7040:7056  totalTradeAmount */\n      0x01\n        /* \"contracts/SycrowBarter.sol\":7040:7086  totalTradeAmount = totalTradeAmount + inAmount */\n      dup2\n      swap1\n      sstore\n      pop\n        /* \"contracts/SycrowBarter.sol\":7097:7129  ISyCrowBarterFactory sycrFactory */\n      0x00\n        /* \"contracts/SycrowBarter.sol\":7153:7160  factory */\n      immutable(\"0x26a975632f70533c9512e57b565b8ce8e2befee6b08dfbc27c4a897a20e2c1d6\")\n        /* \"contracts/SycrowBarter.sol\":7097:7161  ISyCrowBarterFactory sycrFactory = ISyCrowBarterFactory(factory) */\n      swap1\n      pop\n        /* \"contracts/SycrowBarter.sol\":7172:7183  sycrFactory */\n      dup1\n        /* \"contracts/SycrowBarter.sol\":7172:7203  sycrFactory.notifyTradeByBarter */\n      0xffffffffffffffffffffffffffffffffffffffff\n      and\n      0xf52701b7\n        /* \"contracts/SycrowBarter.sol\":7225:7229  this */\n      address\n        /* \"contracts/SycrowBarter.sol\":7244:7254  msg.sender */\n      caller\n        /* \"contracts/SycrowBarter.sol\":7268:7276  inAmount */\n      dup8\n        /* \"contracts/SycrowBarter.sol\":7290:7299  outAmount */\n      dup8\n        /* \"contracts/SycrowBarter.sol\":7172:7309  sycrFactory.notifyTradeByBarter(... */\n      mload(0x40)\n      dup6\n      0xffffffff\n      and\n      0xe0\n      shl\n      dup2\n      mstore\n      0x04\n      add\n      tag_364\n      swap5\n      swap4\n      swap3\n      swap2\n      swap1\n      tag_222\n      jump\t// in\n    tag_364:\n      0x00\n      mload(0x40)\n      dup1\n      dup4\n      sub\n      dup2\n      0x00\n      dup8\n      dup1\n      extcodesize\n      iszero\n      dup1\n      iszero\n      tag_365\n      jumpi\n      0x00\n      dup1\n      revert\n    tag_365:\n      pop\n      gas\n      call\n      iszero\n      dup1\n      iszero\n      tag_367\n      jumpi\n      returndatasize\n      0x00\n      dup1\n      returndatacopy\n      revert(0x00, returndatasize)\n    tag_367:\n      pop\n      pop\n      pop\n      pop\n        /* \"contracts/SycrowBarter.sol\":6291:7316  {... */\n      pop\n      pop\n      pop\n        /* \"contracts/SycrowBarter.sol\":6237:7316  function _tradeTokenForEth(uint256 inAmount) internal {... */\n      pop\n      jump\t// out\n        /* \"contracts/SycrowBarter.sol\":5125:6231  function _tradeTokenForToken(uint256 inAmount) internal {... */\n    tag_167:\n        /* \"contracts/SycrowBarter.sol\":5267:5275  inAmount */\n      dup1\n        /* \"contracts/SycrowBarter.sol\":5219:5240  _expectedTokenAddress */\n      0x06\n      0x00\n      swap1\n      sload\n      swap1\n      0x0100\n      exp\n      swap1\n      div\n      0xffffffffffffffffffffffffffffffffffffffff\n      and\n        /* \"contracts/SycrowBarter.sol\":5212:5251  IERC20(_expectedTokenAddress).balanceOf */\n      0xffffffffffffffffffffffffffffffffffffffff\n      and\n      0x70a08231\n        /* \"contracts/SycrowBarter.sol\":5252:5262  msg.sender */\n      caller\n        /* \"contracts/SycrowBarter.sol\":5212:5263  IERC20(_expectedTokenAddress).balanceOf(msg.sender) */\n      mload(0x40)\n      dup3\n      0xffffffff\n      and\n      0xe0\n      shl\n      dup2\n      mstore\n      0x04\n      add\n      tag_369\n      swap2\n      swap1\n      tag_80\n      jump\t// in\n    tag_369:\n      0x20\n      mload(0x40)\n      dup1\n      dup4\n      sub\n      dup2\n      dup7\n      gas\n      staticcall\n      iszero\n      dup1\n      iszero\n      tag_371\n      jumpi\n      returndatasize\n      0x00\n      dup1\n      returndatacopy\n      revert(0x00, returndatasize)\n    tag_371:\n      pop\n      pop\n      pop\n      pop\n      mload(0x40)\n      returndatasize\n      not(0x1f)\n      0x1f\n      dup3\n      add\n      and\n      dup3\n      add\n      dup1\n      0x40\n      mstore\n      pop\n      dup2\n      add\n      swap1\n      tag_372\n      swap2\n      swap1\n      tag_188\n      jump\t// in\n    tag_372:\n        /* \"contracts/SycrowBarter.sol\":5212:5275  IERC20(_expectedTokenAddress).balanceOf(msg.sender) >= inAmount */\n      lt\n      iszero\n        /* \"contracts/SycrowBarter.sol\":5191:5335  require(... */\n      tag_373\n      jumpi\n      mload(0x40)\n      0x08c379a000000000000000000000000000000000000000000000000000000000\n      dup2\n      mstore\n      0x04\n      add\n      tag_374\n      swap1\n      tag_345\n      jump\t// in\n    tag_374:\n      mload(0x40)\n      dup1\n      swap2\n      sub\n      swap1\n      revert\n    tag_373:\n        /* \"contracts/SycrowBarter.sol\":5346:5363  uint256 outAmount */\n      0x00\n        /* \"contracts/SycrowBarter.sol\":5366:5393  getTradeOutAmount(inAmount) */\n      tag_375\n        /* \"contracts/SycrowBarter.sol\":5384:5392  inAmount */\n      dup3\n        /* \"contracts/SycrowBarter.sol\":5366:5383  getTradeOutAmount */\n      tag_97\n        /* \"contracts/SycrowBarter.sol\":5366:5393  getTradeOutAmount(inAmount) */\n      jump\t// in\n    tag_375:\n        /* \"contracts/SycrowBarter.sol\":5346:5393  uint256 outAmount = getTradeOutAmount(inAmount) */\n      swap1\n      pop\n        /* \"contracts/SycrowBarter.sol\":5500:5509  outAmount */\n      dup1\n        /* \"contracts/SycrowBarter.sol\":5432:5454  _depositedTokenAddress */\n      0x05\n      0x00\n      swap1\n      sload\n      swap1\n      0x0100\n      exp\n      swap1\n      div\n      0xffffffffffffffffffffffffffffffffffffffff\n      and\n        /* \"contracts/SycrowBarter.sol\":5425:5465  IERC20(_depositedTokenAddress).balanceOf */\n      0xffffffffffffffffffffffffffffffffffffffff\n      and\n      0x70a08231\n        /* \"contracts/SycrowBarter.sol\":5474:5478  this */\n      address\n        /* \"contracts/SycrowBarter.sol\":5425:5480  IERC20(_depositedTokenAddress).balanceOf(address(this)) */\n      mload(0x40)\n      dup3\n      0xffffffff\n      and\n      0xe0\n      shl\n      dup2\n      mstore\n      0x04\n      add\n      tag_376\n      swap2\n      swap1\n      tag_80\n      jump\t// in\n    tag_376:\n      0x20\n      mload(0x40)\n      dup1\n      dup4\n      sub\n      dup2\n      dup7\n      gas\n      staticcall\n      iszero\n      dup1\n      iszero\n      tag_378\n      jumpi\n      returndatasize\n      0x00\n      dup1\n      returndatacopy\n      revert(0x00, returndatasize)\n    tag_378:\n      pop\n      pop\n      pop\n      pop\n      mload(0x40)\n      returndatasize\n      not(0x1f)\n      0x1f\n      dup3\n      add\n      and\n      dup3\n      add\n      dup1\n      0x40\n      mstore\n      pop\n      dup2\n      add\n      swap1\n      tag_379\n      swap2\n      swap1\n      tag_188\n      jump\t// in\n    tag_379:\n        /* \"contracts/SycrowBarter.sol\":5425:5509  IERC20(_depositedTokenAddress).balanceOf(address(this)) >=... */\n      lt\n      iszero\n        /* \"contracts/SycrowBarter.sol\":5404:5578  require(... */\n      tag_380\n      jumpi\n      mload(0x40)\n      0x08c379a000000000000000000000000000000000000000000000000000000000\n      dup2\n      mstore\n      0x04\n      add\n      tag_381\n      swap1\n      tag_353\n      jump\t// in\n    tag_381:\n      mload(0x40)\n      dup1\n      swap2\n      sub\n      swap1\n      revert\n    tag_380:\n        /* \"contracts/SycrowBarter.sol\":5589:5738  TransferHelper.safeTransferFrom(... */\n      tag_382\n        /* \"contracts/SycrowBarter.sol\":5634:5655  _expectedTokenAddress */\n      0x06\n      0x00\n      swap1\n      sload\n      swap1\n      0x0100\n      exp\n      swap1\n      div\n      0xffffffffffffffffffffffffffffffffffffffff\n      and\n        /* \"contracts/SycrowBarter.sol\":5669:5679  msg.sender */\n      caller\n        /* \"contracts/SycrowBarter.sol\":5701:5705  this */\n      address\n        /* \"contracts/SycrowBarter.sol\":5720:5728  inAmount */\n      dup6\n        /* \"contracts/SycrowBarter.sol\":5589:5620  TransferHelper.safeTransferFrom */\n      tag_355\n        /* \"contracts/SycrowBarter.sol\":5589:5738  TransferHelper.safeTransferFrom(... */\n      jump\t// in\n    tag_382:\n        /* \"contracts/SycrowBarter.sol\":5748:5868  TransferHelper.safeTransfer(... */\n      tag_383\n        /* \"contracts/SycrowBarter.sol\":5789:5811  _depositedTokenAddress */\n      0x05\n      0x00\n      swap1\n      sload\n      swap1\n      0x0100\n      exp\n      swap1\n      div\n      0xffffffffffffffffffffffffffffffffffffffff\n      and\n        /* \"contracts/SycrowBarter.sol\":5825:5835  msg.sender */\n      caller\n        /* \"contracts/SycrowBarter.sol\":5849:5858  outAmount */\n      dup4\n        /* \"contracts/SycrowBarter.sol\":5748:5775  TransferHelper.safeTransfer */\n      tag_202\n        /* \"contracts/SycrowBarter.sol\":5748:5868  TransferHelper.safeTransfer(... */\n      jump\t// in\n    tag_383:\n        /* \"contracts/SycrowBarter.sol\":5879:5886  _trades */\n      0x09\n        /* \"contracts/SycrowBarter.sol\":5892:5935  BaterTrade(msg.sender, inAmount, outAmount) */\n      mload(0x40)\n      dup1\n      0x60\n      add\n      0x40\n      mstore\n      dup1\n        /* \"contracts/SycrowBarter.sol\":5903:5913  msg.sender */\n      caller\n        /* \"contracts/SycrowBarter.sol\":5892:5935  BaterTrade(msg.sender, inAmount, outAmount) */\n      0xffffffffffffffffffffffffffffffffffffffff\n      and\n      dup2\n      mstore\n      0x20\n      add\n        /* \"contracts/SycrowBarter.sol\":5915:5923  inAmount */\n      dup5\n        /* \"contracts/SycrowBarter.sol\":5892:5935  BaterTrade(msg.sender, inAmount, outAmount) */\n      dup2\n      mstore\n      0x20\n      add\n        /* \"contracts/SycrowBarter.sol\":5925:5934  outAmount */\n      dup4\n        /* \"contracts/SycrowBarter.sol\":5892:5935  BaterTrade(msg.sender, inAmount, outAmount) */\n      dup2\n      mstore\n      pop\n        /* \"contracts/SycrowBarter.sol\":5879:5936  _trades.push(BaterTrade(msg.sender, inAmount, outAmount)) */\n      swap1\n      dup1\n      0x01\n      dup2\n      sload\n      add\n      dup1\n      dup3\n      sstore\n      dup1\n      swap2\n      pop\n      pop\n      0x01\n      swap1\n      sub\n      swap1\n      0x00\n      mstore\n      keccak256(0x00, 0x20)\n      swap1\n      0x03\n      mul\n      add\n      0x00\n      swap1\n      swap2\n      swap1\n      swap2\n      swap1\n      swap2\n      pop\n      0x00\n      dup3\n      add\n      mload\n      dup2\n      0x00\n      add\n      exp(0x0100, 0x00)\n      dup2\n      sload\n      dup2\n      0xffffffffffffffffffffffffffffffffffffffff\n      mul\n      not\n      and\n      swap1\n      dup4\n      0xffffffffffffffffffffffffffffffffffffffff\n      and\n      mul\n      or\n      swap1\n      sstore\n      pop\n      0x20\n      dup3\n      add\n      mload\n      dup2\n      0x01\n      add\n      sstore\n      0x40\n      dup3\n      add\n      mload\n      dup2\n      0x02\n      add\n      sstore\n      pop\n      pop\n        /* \"contracts/SycrowBarter.sol\":5985:5993  inAmount */\n      dup2\n        /* \"contracts/SycrowBarter.sol\":5966:5982  totalTradeAmount */\n      sload(0x01)\n        /* \"contracts/SycrowBarter.sol\":5966:5993  totalTradeAmount + inAmount */\n      tag_385\n      swap2\n      swap1\n      tag_363\n      jump\t// in\n    tag_385:\n        /* \"contracts/SycrowBarter.sol\":5947:5963  totalTradeAmount */\n      0x01\n        /* \"contracts/SycrowBarter.sol\":5947:5993  totalTradeAmount = totalTradeAmount + inAmount */\n      dup2\n      swap1\n      sstore\n      pop\n        /* \"contracts/SycrowBarter.sol\":6004:6036  ISyCrowBarterFactory sycrFactory */\n      0x00\n        /* \"contracts/SycrowBarter.sol\":6060:6067  factory */\n      immutable(\"0x26a975632f70533c9512e57b565b8ce8e2befee6b08dfbc27c4a897a20e2c1d6\")\n        /* \"contracts/SycrowBarter.sol\":6004:6068  ISyCrowBarterFactory sycrFactory = ISyCrowBarterFactory(factory) */\n      swap1\n      pop\n        /* \"contracts/SycrowBarter.sol\":6087:6098  sycrFactory */\n      dup1\n        /* \"contracts/SycrowBarter.sol\":6087:6118  sycrFactory.notifyTradeByBarter */\n      0xffffffffffffffffffffffffffffffffffffffff\n      and\n      0xf52701b7\n        /* \"contracts/SycrowBarter.sol\":6140:6144  this */\n      address\n        /* \"contracts/SycrowBarter.sol\":6159:6169  msg.sender */\n      caller\n        /* \"contracts/SycrowBarter.sol\":6183:6191  inAmount */\n      dup7\n        /* \"contracts/SycrowBarter.sol\":6205:6214  outAmount */\n      dup7\n        /* \"contracts/SycrowBarter.sol\":6087:6224  sycrFactory.notifyTradeByBarter(... */\n      mload(0x40)\n      dup6\n      0xffffffff\n      and\n      0xe0\n      shl\n      dup2\n      mstore\n      0x04\n      add\n      tag_386\n      swap5\n      swap4\n      swap3\n      swap2\n      swap1\n      tag_222\n      jump\t// in\n    tag_386:\n      0x00\n      mload(0x40)\n      dup1\n      dup4\n      sub\n      dup2\n      0x00\n      dup8\n      dup1\n      extcodesize\n      iszero\n      dup1\n      iszero\n      tag_387\n      jumpi\n      0x00\n      dup1\n      revert\n    tag_387:\n      pop\n      gas\n      call\n      iszero\n      dup1\n      iszero\n      tag_389\n      jumpi\n      returndatasize\n      0x00\n      dup1\n      returndatacopy\n      revert(0x00, returndatasize)\n    tag_389:\n      pop\n      pop\n      pop\n      pop\n        /* \"contracts/SycrowBarter.sol\":5181:6231  {... */\n      pop\n      pop\n        /* \"contracts/SycrowBarter.sol\":5125:6231  function _tradeTokenForToken(uint256 inAmount) internal {... */\n      pop\n      jump\t// out\n        /* \"@openzeppelin/contracts/utils/Context.sol\":640:736  function _msgSender() internal view virtual returns (address) {... */\n    tag_178:\n        /* \"@openzeppelin/contracts/utils/Context.sol\":693:700  address */\n      0x00\n        /* \"@openzeppelin/contracts/utils/Context.sol\":719:729  msg.sender */\n      caller\n        /* \"@openzeppelin/contracts/utils/Context.sol\":712:729  return msg.sender */\n      swap1\n      pop\n        /* \"@openzeppelin/contracts/utils/Context.sol\":640:736  function _msgSender() internal view virtual returns (address) {... */\n      swap1\n      jump\t// out\n        /* \"contracts/libraries/TransferHelper.sol\":1333:1525  function safeTransferETH(address to, uint value) internal {... */\n    tag_195:\n        /* \"contracts/libraries/TransferHelper.sol\":1402:1414  bool success */\n      0x00\n        /* \"contracts/libraries/TransferHelper.sol\":1419:1421  to */\n      dup3\n        /* \"contracts/libraries/TransferHelper.sol\":1419:1426  to.call */\n      0xffffffffffffffffffffffffffffffffffffffff\n      and\n        /* \"contracts/libraries/TransferHelper.sol\":1433:1438  value */\n      dup3\n        /* \"contracts/libraries/TransferHelper.sol\":1450:1451  0 */\n      0x00\n        /* \"contracts/libraries/TransferHelper.sol\":1440:1452  new bytes(0) */\n      0xffffffffffffffff\n      dup2\n      gt\n      iszero\n      tag_392\n      jumpi\n      tag_393\n      tag_299\n      jump\t// in\n    tag_393:\n    tag_392:\n      mload(0x40)\n      swap1\n      dup1\n      dup3\n      mstore\n      dup1\n      0x1f\n      add\n      not(0x1f)\n      and\n      0x20\n      add\n      dup3\n      add\n      0x40\n      mstore\n      dup1\n      iszero\n      tag_394\n      jumpi\n      dup2\n      0x20\n      add\n      0x01\n      dup3\n      mul\n      dup1\n      calldatasize\n      dup4\n      calldatacopy\n      dup1\n      dup3\n      add\n      swap2\n      pop\n      pop\n      swap1\n      pop\n    tag_394:\n      pop\n        /* \"contracts/libraries/TransferHelper.sol\":1419:1453  to.call{value:value}(new bytes(0)) */\n      mload(0x40)\n      tag_395\n      swap2\n      swap1\n      tag_396\n      jump\t// in\n    tag_395:\n      0x00\n      mload(0x40)\n      dup1\n      dup4\n      sub\n      dup2\n      dup6\n      dup8\n      gas\n      call\n      swap3\n      pop\n      pop\n      pop\n      returndatasize\n      dup1\n      0x00\n      dup2\n      eq\n      tag_399\n      jumpi\n      mload(0x40)\n      swap2\n      pop\n      and(add(returndatasize, 0x3f), not(0x1f))\n      dup3\n      add\n      0x40\n      mstore\n      returndatasize\n      dup3\n      mstore\n      returndatasize\n      0x00\n      0x20\n      dup5\n      add\n      returndatacopy\n      jump(tag_398)\n    tag_399:\n      0x60\n      swap2\n      pop\n    tag_398:\n      pop\n        /* \"contracts/libraries/TransferHelper.sol\":1401:1453  (bool success,) = to.call{value:value}(new bytes(0)) */\n      pop\n      swap1\n      pop\n        /* \"contracts/libraries/TransferHelper.sol\":1471:1478  success */\n      dup1\n        /* \"contracts/libraries/TransferHelper.sol\":1463:1518  require(success, 'TransferHelper: ETH_TRANSFER_FAILED') */\n      tag_400\n      jumpi\n      mload(0x40)\n      0x08c379a000000000000000000000000000000000000000000000000000000000\n      dup2\n      mstore\n      0x04\n      add\n      tag_401\n      swap1\n      tag_402\n      jump\t// in\n    tag_401:\n      mload(0x40)\n      dup1\n      swap2\n      sub\n      swap1\n      revert\n    tag_400:\n        /* \"contracts/libraries/TransferHelper.sol\":1391:1525  {... */\n      pop\n        /* \"contracts/libraries/TransferHelper.sol\":1333:1525  function safeTransferETH(address to, uint value) internal {... */\n      pop\n      pop\n      jump\t// out\n        /* \"contracts/libraries/TransferHelper.sol\":566:923  function safeTransfer(address token, address to, uint value) internal {... */\n    tag_202:\n        /* \"contracts/libraries/TransferHelper.sol\":713:725  bool success */\n      0x00\n        /* \"contracts/libraries/TransferHelper.sol\":727:744  bytes memory data */\n      dup1\n        /* \"contracts/libraries/TransferHelper.sol\":748:753  token */\n      dup5\n        /* \"contracts/libraries/TransferHelper.sol\":748:758  token.call */\n      0xffffffffffffffffffffffffffffffffffffffff\n      and\n        /* \"contracts/libraries/TransferHelper.sol\":782:792  0xa9059cbb */\n      0xa9059cbb\n        /* \"contracts/libraries/TransferHelper.sol\":794:796  to */\n      dup6\n        /* \"contracts/libraries/TransferHelper.sol\":798:803  value */\n      dup6\n        /* \"contracts/libraries/TransferHelper.sol\":759:804  abi.encodeWithSelector(0xa9059cbb, to, value) */\n      add(0x24, mload(0x40))\n      tag_404\n      swap3\n      swap2\n      swap1\n      tag_405\n      jump\t// in\n    tag_404:\n      mload(0x40)\n      0x20\n      dup2\n      dup4\n      sub\n      sub\n      dup2\n      mstore\n      swap1\n      0x40\n      mstore\n      swap1\n      0xe0\n      shl\n      0x20\n      dup3\n      add\n      dup1\n      mload\n      0xffffffffffffffffffffffffffffffffffffffffffffffffffffffff\n      dup4\n      dup2\n      dup4\n      and\n      or\n      dup4\n      mstore\n      pop\n      pop\n      pop\n      pop\n        /* \"contracts/libraries/TransferHelper.sol\":748:805  token.call(abi.encodeWithSelector(0xa9059cbb, to, value)) */\n      mload(0x40)\n      tag_406\n      swap2\n      swap1\n      tag_396\n      jump\t// in\n    tag_406:\n      0x00\n      mload(0x40)\n      dup1\n      dup4\n      sub\n      dup2\n      0x00\n      dup7\n      gas\n      call\n      swap2\n      pop\n      pop\n      returndatasize\n      dup1\n      0x00\n      dup2\n      eq\n      tag_409\n      jumpi\n      mload(0x40)\n      swap2\n      pop\n      and(add(returndatasize, 0x3f), not(0x1f))\n      dup3\n      add\n      0x40\n      mstore\n      returndatasize\n      dup3\n      mstore\n      returndatasize\n      0x00\n      0x20\n      dup5\n      add\n      returndatacopy\n      jump(tag_408)\n    tag_409:\n      0x60\n      swap2\n      pop\n    tag_408:\n      pop\n        /* \"contracts/libraries/TransferHelper.sol\":712:805  (bool success, bytes memory data) = token.call(abi.encodeWithSelector(0xa9059cbb, to, value)) */\n      swap2\n      pop\n      swap2\n      pop\n        /* \"contracts/libraries/TransferHelper.sol\":823:830  success */\n      dup2\n        /* \"contracts/libraries/TransferHelper.sol\":823:880  success && (data.length == 0 || abi.decode(data, (bool))) */\n      dup1\n      iszero\n      tag_410\n      jumpi\n      pop\n        /* \"contracts/libraries/TransferHelper.sol\":850:851  0 */\n      0x00\n        /* \"contracts/libraries/TransferHelper.sol\":835:839  data */\n      dup2\n        /* \"contracts/libraries/TransferHelper.sol\":835:846  data.length */\n      mload\n        /* \"contracts/libraries/TransferHelper.sol\":835:851  data.length == 0 */\n      eq\n        /* \"contracts/libraries/TransferHelper.sol\":835:879  data.length == 0 || abi.decode(data, (bool)) */\n      dup1\n      tag_411\n      jumpi\n      pop\n        /* \"contracts/libraries/TransferHelper.sol\":866:870  data */\n      dup1\n        /* \"contracts/libraries/TransferHelper.sol\":855:879  abi.decode(data, (bool)) */\n      dup1\n      0x20\n      add\n      swap1\n      mload\n      dup2\n      add\n      swap1\n      tag_412\n      swap2\n      swap1\n      tag_122\n      jump\t// in\n    tag_412:\n        /* \"contracts/libraries/TransferHelper.sol\":835:879  data.length == 0 || abi.decode(data, (bool)) */\n    tag_411:\n        /* \"contracts/libraries/TransferHelper.sol\":823:880  success && (data.length == 0 || abi.decode(data, (bool))) */\n    tag_410:\n        /* \"contracts/libraries/TransferHelper.sol\":815:916  require(success && (data.length == 0 || abi.decode(data, (bool))), 'TransferHelper: TRANSFER_FAILED') */\n      tag_413\n      jumpi\n      mload(0x40)\n      0x08c379a000000000000000000000000000000000000000000000000000000000\n      dup2\n      mstore\n      0x04\n      add\n      tag_414\n      swap1\n      tag_415\n      jump\t// in\n    tag_414:\n      mload(0x40)\n      dup1\n      swap2\n      sub\n      swap1\n      revert\n    tag_413:\n        /* \"contracts/libraries/TransferHelper.sol\":636:923  {... */\n      pop\n      pop\n        /* \"contracts/libraries/TransferHelper.sol\":566:923  function safeTransfer(address token, address to, uint value) internal {... */\n      pop\n      pop\n      pop\n      jump\t// out\n        /* \"contracts/SycrowBarter.sol\":7322:8233  function _tradeEthForToken(uint256 inAmount) internal {... */\n    tag_255:\n        /* \"contracts/SycrowBarter.sol\":7406:7415  msg.value */\n      callvalue\n        /* \"contracts/SycrowBarter.sol\":7394:7402  inAmount */\n      dup2\n        /* \"contracts/SycrowBarter.sol\":7394:7415  inAmount == msg.value */\n      eq\n        /* \"contracts/SycrowBarter.sol\":7386:7457  require(inAmount == msg.value, \"SyCrowBarter: MULTI_TRADE_NOT_ENABLED\") */\n      tag_417\n      jumpi\n      mload(0x40)\n      0x08c379a000000000000000000000000000000000000000000000000000000000\n      dup2\n      mstore\n      0x04\n      add\n      tag_418\n      swap1\n      tag_419\n      jump\t// in\n    tag_418:\n      mload(0x40)\n      dup1\n      swap2\n      sub\n      swap1\n      revert\n    tag_417:\n        /* \"contracts/SycrowBarter.sol\":7468:7485  uint256 outAmount */\n      0x00\n        /* \"contracts/SycrowBarter.sol\":7488:7515  getTradeOutAmount(inAmount) */\n      tag_420\n        /* \"contracts/SycrowBarter.sol\":7506:7514  inAmount */\n      dup3\n        /* \"contracts/SycrowBarter.sol\":7488:7505  getTradeOutAmount */\n      tag_97\n        /* \"contracts/SycrowBarter.sol\":7488:7515  getTradeOutAmount(inAmount) */\n      jump\t// in\n    tag_420:\n        /* \"contracts/SycrowBarter.sol\":7468:7515  uint256 outAmount = getTradeOutAmount(inAmount) */\n      swap1\n      pop\n        /* \"contracts/SycrowBarter.sol\":7622:7631  outAmount */\n      dup1\n        /* \"contracts/SycrowBarter.sol\":7554:7576  _depositedTokenAddress */\n      0x05\n      0x00\n      swap1\n      sload\n      swap1\n      0x0100\n      exp\n      swap1\n      div\n      0xffffffffffffffffffffffffffffffffffffffff\n      and\n        /* \"contracts/SycrowBarter.sol\":7547:7587  IERC20(_depositedTokenAddress).balanceOf */\n      0xffffffffffffffffffffffffffffffffffffffff\n      and\n      0x70a08231\n        /* \"contracts/SycrowBarter.sol\":7596:7600  this */\n      address\n        /* \"contracts/SycrowBarter.sol\":7547:7602  IERC20(_depositedTokenAddress).balanceOf(address(this)) */\n      mload(0x40)\n      dup3\n      0xffffffff\n      and\n      0xe0\n      shl\n      dup2\n      mstore\n      0x04\n      add\n      tag_421\n      swap2\n      swap1\n      tag_80\n      jump\t// in\n    tag_421:\n      0x20\n      mload(0x40)\n      dup1\n      dup4\n      sub\n      dup2\n      dup7\n      gas\n      staticcall\n      iszero\n      dup1\n      iszero\n      tag_423\n      jumpi\n      returndatasize\n      0x00\n      dup1\n      returndatacopy\n      revert(0x00, returndatasize)\n    tag_423:\n      pop\n      pop\n      pop\n      pop\n      mload(0x40)\n      returndatasize\n      not(0x1f)\n      0x1f\n      dup3\n      add\n      and\n      dup3\n      add\n      dup1\n      0x40\n      mstore\n      pop\n      dup2\n      add\n      swap1\n      tag_424\n      swap2\n      swap1\n      tag_188\n      jump\t// in\n    tag_424:\n        /* \"contracts/SycrowBarter.sol\":7547:7631  IERC20(_depositedTokenAddress).balanceOf(address(this)) >=... */\n      lt\n      iszero\n        /* \"contracts/SycrowBarter.sol\":7526:7700  require(... */\n      tag_425\n      jumpi\n      mload(0x40)\n      0x08c379a000000000000000000000000000000000000000000000000000000000\n      dup2\n      mstore\n      0x04\n      add\n      tag_426\n      swap1\n      tag_353\n      jump\t// in\n    tag_426:\n      mload(0x40)\n      dup1\n      swap2\n      sub\n      swap1\n      revert\n    tag_425:\n        /* \"contracts/SycrowBarter.sol\":7717:7721  WETH */\n      0x04\n      0x01\n      swap1\n      sload\n      swap1\n      0x0100\n      exp\n      swap1\n      div\n      0xffffffffffffffffffffffffffffffffffffffff\n      and\n        /* \"contracts/SycrowBarter.sol\":7711:7730  IWETH(WETH).deposit */\n      0xffffffffffffffffffffffffffffffffffffffff\n      and\n      0xd0e30db0\n        /* \"contracts/SycrowBarter.sol\":7738:7746  inAmount */\n      dup4\n        /* \"contracts/SycrowBarter.sol\":7711:7749  IWETH(WETH).deposit{value: inAmount}() */\n      mload(0x40)\n      dup3\n      0xffffffff\n      and\n      0xe0\n      shl\n      dup2\n      mstore\n      0x04\n      add\n      0x00\n      mload(0x40)\n      dup1\n      dup4\n      sub\n      dup2\n      dup6\n      dup9\n      dup1\n      extcodesize\n      iszero\n      dup1\n      iszero\n      tag_427\n      jumpi\n      0x00\n      dup1\n      revert\n    tag_427:\n      pop\n      gas\n      call\n      iszero\n      dup1\n      iszero\n      tag_429\n      jumpi\n      returndatasize\n      0x00\n      dup1\n      returndatacopy\n      revert(0x00, returndatasize)\n    tag_429:\n      pop\n      pop\n      pop\n      pop\n      pop\n        /* \"contracts/SycrowBarter.sol\":7760:7880  TransferHelper.safeTransfer(... */\n      tag_430\n        /* \"contracts/SycrowBarter.sol\":7801:7823  _depositedTokenAddress */\n      0x05\n      0x00\n      swap1\n      sload\n      swap1\n      0x0100\n      exp\n      swap1\n      div\n      0xffffffffffffffffffffffffffffffffffffffff\n      and\n        /* \"contracts/SycrowBarter.sol\":7837:7847  msg.sender */\n      caller\n        /* \"contracts/SycrowBarter.sol\":7861:7870  outAmount */\n      dup4\n        /* \"contracts/SycrowBarter.sol\":7760:7787  TransferHelper.safeTransfer */\n      tag_202\n        /* \"contracts/SycrowBarter.sol\":7760:7880  TransferHelper.safeTransfer(... */\n      jump\t// in\n    tag_430:\n        /* \"contracts/SycrowBarter.sol\":7891:7898  _trades */\n      0x09\n        /* \"contracts/SycrowBarter.sol\":7904:7947  BaterTrade(msg.sender, inAmount, outAmount) */\n      mload(0x40)\n      dup1\n      0x60\n      add\n      0x40\n      mstore\n      dup1\n        /* \"contracts/SycrowBarter.sol\":7915:7925  msg.sender */\n      caller\n        /* \"contracts/SycrowBarter.sol\":7904:7947  BaterTrade(msg.sender, inAmount, outAmount) */\n      0xffffffffffffffffffffffffffffffffffffffff\n      and\n      dup2\n      mstore\n      0x20\n      add\n        /* \"contracts/SycrowBarter.sol\":7927:7935  inAmount */\n      dup5\n        /* \"contracts/SycrowBarter.sol\":7904:7947  BaterTrade(msg.sender, inAmount, outAmount) */\n      dup2\n      mstore\n      0x20\n      add\n        /* \"contracts/SycrowBarter.sol\":7937:7946  outAmount */\n      dup4\n        /* \"contracts/SycrowBarter.sol\":7904:7947  BaterTrade(msg.sender, inAmount, outAmount) */\n      dup2\n      mstore\n      pop\n        /* \"contracts/SycrowBarter.sol\":7891:7948  _trades.push(BaterTrade(msg.sender, inAmount, outAmount)) */\n      swap1\n      dup1\n      0x01\n      dup2\n      sload\n      add\n      dup1\n      dup3\n      sstore\n      dup1\n      swap2\n      pop\n      pop\n      0x01\n      swap1\n      sub\n      swap1\n      0x00\n      mstore\n      keccak256(0x00, 0x20)\n      swap1\n      0x03\n      mul\n      add\n      0x00\n      swap1\n      swap2\n      swap1\n      swap2\n      swap1\n      swap2\n      pop\n      0x00\n      dup3\n      add\n      mload\n      dup2\n      0x00\n      add\n      exp(0x0100, 0x00)\n      dup2\n      sload\n      dup2\n      0xffffffffffffffffffffffffffffffffffffffff\n      mul\n      not\n      and\n      swap1\n      dup4\n      0xffffffffffffffffffffffffffffffffffffffff\n      and\n      mul\n      or\n      swap1\n      sstore\n      pop\n      0x20\n      dup3\n      add\n      mload\n      dup2\n      0x01\n      add\n      sstore\n      0x40\n      dup3\n      add\n      mload\n      dup2\n      0x02\n      add\n      sstore\n      pop\n      pop\n        /* \"contracts/SycrowBarter.sol\":7996:8004  inAmount */\n      dup2\n        /* \"contracts/SycrowBarter.sol\":7977:7993  totalTradeAmount */\n      sload(0x01)\n        /* \"contracts/SycrowBarter.sol\":7977:8004  totalTradeAmount + inAmount */\n      tag_432\n      swap2\n      swap1\n      tag_363\n      jump\t// in\n    tag_432:\n        /* \"contracts/SycrowBarter.sol\":7958:7974  totalTradeAmount */\n      0x01\n        /* \"contracts/SycrowBarter.sol\":7958:8004  totalTradeAmount = totalTradeAmount + inAmount */\n      dup2\n      swap1\n      sstore\n      pop\n        /* \"contracts/SycrowBarter.sol\":8015:8047  ISyCrowBarterFactory sycrFactory */\n      0x00\n        /* \"contracts/SycrowBarter.sol\":8071:8078  factory */\n      immutable(\"0x26a975632f70533c9512e57b565b8ce8e2befee6b08dfbc27c4a897a20e2c1d6\")\n        /* \"contracts/SycrowBarter.sol\":8015:8079  ISyCrowBarterFactory sycrFactory = ISyCrowBarterFactory(factory) */\n      swap1\n      pop\n        /* \"contracts/SycrowBarter.sol\":8089:8100  sycrFactory */\n      dup1\n        /* \"contracts/SycrowBarter.sol\":8089:8120  sycrFactory.notifyTradeByBarter */\n      0xffffffffffffffffffffffffffffffffffffffff\n      and\n      0xf52701b7\n        /* \"contracts/SycrowBarter.sol\":8142:8146  this */\n      address\n        /* \"contracts/SycrowBarter.sol\":8161:8171  msg.sender */\n      caller\n        /* \"contracts/SycrowBarter.sol\":8185:8193  inAmount */\n      dup7\n        /* \"contracts/SycrowBarter.sol\":8207:8216  outAmount */\n      dup7\n        /* \"contracts/SycrowBarter.sol\":8089:8226  sycrFactory.notifyTradeByBarter(... */\n      mload(0x40)\n      dup6\n      0xffffffff\n      and\n      0xe0\n      shl\n      dup2\n      mstore\n      0x04\n      add\n      tag_433\n      swap5\n      swap4\n      swap3\n      swap2\n      swap1\n      tag_222\n      jump\t// in\n    tag_433:\n      0x00\n      mload(0x40)\n      dup1\n      dup4\n      sub\n      dup2\n      0x00\n      dup8\n      dup1\n      extcodesize\n      iszero\n      dup1\n      iszero\n      tag_434\n      jumpi\n      0x00\n      dup1\n      revert\n    tag_434:\n      pop\n      gas\n      call\n      iszero\n      dup1\n      iszero\n      tag_436\n      jumpi\n      returndatasize\n      0x00\n      dup1\n      returndatacopy\n      revert(0x00, returndatasize)\n    tag_436:\n      pop\n      pop\n      pop\n      pop\n        /* \"contracts/SycrowBarter.sol\":7376:8233  {... */\n      pop\n      pop\n        /* \"contracts/SycrowBarter.sol\":7322:8233  function _tradeEthForToken(uint256 inAmount) internal {... */\n      pop\n      jump\t// out\n        /* \"@openzeppelin/contracts/access/Ownable.sol\":2270:2457  function _transferOwnership(address newOwner) internal virtual {... */\n    tag_282:\n        /* \"@openzeppelin/contracts/access/Ownable.sol\":2343:2359  address oldOwner */\n      0x00\n        /* \"@openzeppelin/contracts/access/Ownable.sol\":2362:2368  _owner */\n      dup1\n      0x00\n      swap1\n      sload\n      swap1\n      0x0100\n      exp\n      swap1\n      div\n      0xffffffffffffffffffffffffffffffffffffffff\n      and\n        /* \"@openzeppelin/contracts/access/Ownable.sol\":2343:2368  address oldOwner = _owner */\n      swap1\n      pop\n        /* \"@openzeppelin/contracts/access/Ownable.sol\":2387:2395  newOwner */\n      dup2\n        /* \"@openzeppelin/contracts/access/Ownable.sol\":2378:2384  _owner */\n      0x00\n      dup1\n        /* \"@openzeppelin/contracts/access/Ownable.sol\":2378:2395  _owner = newOwner */\n      0x0100\n      exp\n      dup2\n      sload\n      dup2\n      0xffffffffffffffffffffffffffffffffffffffff\n      mul\n      not\n      and\n      swap1\n      dup4\n      0xffffffffffffffffffffffffffffffffffffffff\n      and\n      mul\n      or\n      swap1\n      sstore\n      pop\n        /* \"@openzeppelin/contracts/access/Ownable.sol\":2441:2449  newOwner */\n      dup2\n        /* \"@openzeppelin/contracts/access/Ownable.sol\":2410:2450  OwnershipTransferred(oldOwner, newOwner) */\n      0xffffffffffffffffffffffffffffffffffffffff\n      and\n        /* \"@openzeppelin/contracts/access/Ownable.sol\":2431:2439  oldOwner */\n      dup2\n        /* \"@openzeppelin/contracts/access/Ownable.sol\":2410:2450  OwnershipTransferred(oldOwner, newOwner) */\n      0xffffffffffffffffffffffffffffffffffffffff\n      and\n      0x8be0079c531659141344cd1fd0a4f28419497f9722a3daafe3b4186f6b6457e0\n      mload(0x40)\n      mload(0x40)\n      dup1\n      swap2\n      sub\n      swap1\n      log3\n        /* \"@openzeppelin/contracts/access/Ownable.sol\":2333:2457  {... */\n      pop\n        /* \"@openzeppelin/contracts/access/Ownable.sol\":2270:2457  function _transferOwnership(address newOwner) internal virtual {... */\n      pop\n      jump\t// out\n        /* \"contracts/libraries/TransferHelper.sol\":929:1327  function safeTransferFrom(address token, address from, address to, uint value) internal {... */\n    tag_355:\n        /* \"contracts/libraries/TransferHelper.sol\":1106:1118  bool success */\n      0x00\n        /* \"contracts/libraries/TransferHelper.sol\":1120:1137  bytes memory data */\n      dup1\n        /* \"contracts/libraries/TransferHelper.sol\":1141:1146  token */\n      dup6\n        /* \"contracts/libraries/TransferHelper.sol\":1141:1151  token.call */\n      0xffffffffffffffffffffffffffffffffffffffff\n      and\n        /* \"contracts/libraries/TransferHelper.sol\":1175:1185  0x23b872dd */\n      0x23b872dd\n        /* \"contracts/libraries/TransferHelper.sol\":1187:1191  from */\n      dup7\n        /* \"contracts/libraries/TransferHelper.sol\":1193:1195  to */\n      dup7\n        /* \"contracts/libraries/TransferHelper.sol\":1197:1202  value */\n      dup7\n        /* \"contracts/libraries/TransferHelper.sol\":1152:1203  abi.encodeWithSelector(0x23b872dd, from, to, value) */\n      add(0x24, mload(0x40))\n      tag_439\n      swap4\n      swap3\n      swap2\n      swap1\n      tag_440\n      jump\t// in\n    tag_439:\n      mload(0x40)\n      0x20\n      dup2\n      dup4\n      sub\n      sub\n      dup2\n      mstore\n      swap1\n      0x40\n      mstore\n      swap1\n      0xe0\n      shl\n      0x20\n      dup3\n      add\n      dup1\n      mload\n      0xffffffffffffffffffffffffffffffffffffffffffffffffffffffff\n      dup4\n      dup2\n      dup4\n      and\n      or\n      dup4\n      mstore\n      pop\n      pop\n      pop\n      pop\n        /* \"contracts/libraries/TransferHelper.sol\":1141:1204  token.call(abi.encodeWithSelector(0x23b872dd, from, to, value)) */\n      mload(0x40)\n      tag_441\n      swap2\n      swap1\n      tag_396\n      jump\t// in\n    tag_441:\n      0x00\n      mload(0x40)\n      dup1\n      dup4\n      sub\n      dup2\n      0x00\n      dup7\n      gas\n      call\n      swap2\n      pop\n      pop\n      returndatasize\n      dup1\n      0x00\n      dup2\n      eq\n      tag_444\n      jumpi\n      mload(0x40)\n      swap2\n      pop\n      and(add(returndatasize, 0x3f), not(0x1f))\n      dup3\n      add\n      0x40\n      mstore\n      returndatasize\n      dup3\n      mstore\n      returndatasize\n      0x00\n      0x20\n      dup5\n      add\n      returndatacopy\n      jump(tag_443)\n    tag_444:\n      0x60\n      swap2\n      pop\n    tag_443:\n      pop\n        /* \"contracts/libraries/TransferHelper.sol\":1105:1204  (bool success, bytes memory data) = token.call(abi.encodeWithSelector(0x23b872dd, from, to, value)) */\n      swap2\n      pop\n      swap2\n      pop\n        /* \"contracts/libraries/TransferHelper.sol\":1222:1229  success */\n      dup2\n        /* \"contracts/libraries/TransferHelper.sol\":1222:1279  success && (data.length == 0 || abi.decode(data, (bool))) */\n      dup1\n      iszero\n      tag_445\n      jumpi\n      pop\n        /* \"contracts/libraries/TransferHelper.sol\":1249:1250  0 */\n      0x00\n        /* \"contracts/libraries/TransferHelper.sol\":1234:1238  data */\n      dup2\n        /* \"contracts/libraries/TransferHelper.sol\":1234:1245  data.length */\n      mload\n        /* \"contracts/libraries/TransferHelper.sol\":1234:1250  data.length == 0 */\n      eq\n        /* \"contracts/libraries/TransferHelper.sol\":1234:1278  data.length == 0 || abi.decode(data, (bool)) */\n      dup1\n      tag_446\n      jumpi\n      pop\n        /* \"contracts/libraries/TransferHelper.sol\":1265:1269  data */\n      dup1\n        /* \"contracts/libraries/TransferHelper.sol\":1254:1278  abi.decode(data, (bool)) */\n      dup1\n      0x20\n      add\n      swap1\n      mload\n      dup2\n      add\n      swap1\n      tag_447\n      swap2\n      swap1\n      tag_122\n      jump\t// in\n    tag_447:\n        /* \"contracts/libraries/TransferHelper.sol\":1234:1278  data.length == 0 || abi.decode(data, (bool)) */\n    tag_446:\n        /* \"contracts/libraries/TransferHelper.sol\":1222:1279  success && (data.length == 0 || abi.decode(data, (bool))) */\n    tag_445:\n        /* \"contracts/libraries/TransferHelper.sol\":1214:1320  require(success && (data.length == 0 || abi.decode(data, (bool))), 'TransferHelper: TRANSFER_FROM_FAILED') */\n      tag_448\n      jumpi\n      mload(0x40)\n      0x08c379a000000000000000000000000000000000000000000000000000000000\n      dup2\n      mstore\n      0x04\n      add\n      tag_449\n      swap1\n      tag_450\n      jump\t// in\n    tag_449:\n      mload(0x40)\n      dup1\n      swap2\n      sub\n      swap1\n      revert\n    tag_448:\n        /* \"contracts/libraries/TransferHelper.sol\":1017:1327  {... */\n      pop\n      pop\n        /* \"contracts/libraries/TransferHelper.sol\":929:1327  function safeTransferFrom(address token, address from, address to, uint value) internal {... */\n      pop\n      pop\n      pop\n      pop\n      jump\t// out\n        /* \"#utility.yul\":88:205   */\n    tag_452:\n        /* \"#utility.yul\":197:198   */\n      0x00\n        /* \"#utility.yul\":194:195   */\n      dup1\n        /* \"#utility.yul\":187:199   */\n      revert\n        /* \"#utility.yul\":334:411   */\n    tag_454:\n        /* \"#utility.yul\":371:378   */\n      0x00\n        /* \"#utility.yul\":400:405   */\n      dup2\n        /* \"#utility.yul\":389:405   */\n      swap1\n      pop\n        /* \"#utility.yul\":334:411   */\n      swap2\n      swap1\n      pop\n      jump\t// out\n        /* \"#utility.yul\":417:539   */\n    tag_455:\n        /* \"#utility.yul\":490:514   */\n      tag_538\n        /* \"#utility.yul\":508:513   */\n      dup2\n        /* \"#utility.yul\":490:514   */\n      tag_454\n      jump\t// in\n    tag_538:\n        /* \"#utility.yul\":483:488   */\n      dup2\n        /* \"#utility.yul\":480:515   */\n      eq\n        /* \"#utility.yul\":470:533   */\n      tag_539\n      jumpi\n        /* \"#utility.yul\":529:530   */\n      0x00\n        /* \"#utility.yul\":526:527   */\n      dup1\n        /* \"#utility.yul\":519:531   */\n      revert\n        /* \"#utility.yul\":470:533   */\n    tag_539:\n        /* \"#utility.yul\":417:539   */\n      pop\n      jump\t// out\n        /* \"#utility.yul\":545:684   */\n    tag_456:\n        /* \"#utility.yul\":591:596   */\n      0x00\n        /* \"#utility.yul\":629:635   */\n      dup2\n        /* \"#utility.yul\":616:636   */\n      calldataload\n        /* \"#utility.yul\":607:636   */\n      swap1\n      pop\n        /* \"#utility.yul\":645:678   */\n      tag_541\n        /* \"#utility.yul\":672:677   */\n      dup2\n        /* \"#utility.yul\":645:678   */\n      tag_455\n      jump\t// in\n    tag_541:\n        /* \"#utility.yul\":545:684   */\n      swap3\n      swap2\n      pop\n      pop\n      jump\t// out\n        /* \"#utility.yul\":690:1019   */\n    tag_31:\n        /* \"#utility.yul\":749:755   */\n      0x00\n        /* \"#utility.yul\":798:800   */\n      0x20\n        /* \"#utility.yul\":786:795   */\n      dup3\n        /* \"#utility.yul\":777:784   */\n      dup5\n        /* \"#utility.yul\":773:796   */\n      sub\n        /* \"#utility.yul\":769:801   */\n      slt\n        /* \"#utility.yul\":766:885   */\n      iszero\n      tag_543\n      jumpi\n        /* \"#utility.yul\":804:883   */\n      tag_544\n      tag_452\n      jump\t// in\n    tag_544:\n        /* \"#utility.yul\":766:885   */\n    tag_543:\n        /* \"#utility.yul\":924:925   */\n      0x00\n        /* \"#utility.yul\":949:1002   */\n      tag_545\n        /* \"#utility.yul\":994:1001   */\n      dup5\n        /* \"#utility.yul\":985:991   */\n      dup3\n        /* \"#utility.yul\":974:983   */\n      dup6\n        /* \"#utility.yul\":970:992   */\n      add\n        /* \"#utility.yul\":949:1002   */\n      tag_456\n      jump\t// in\n    tag_545:\n        /* \"#utility.yul\":939:1002   */\n      swap2\n      pop\n        /* \"#utility.yul\":895:1012   */\n      pop\n        /* \"#utility.yul\":690:1019   */\n      swap3\n      swap2\n      pop\n      pop\n      jump\t// out\n        /* \"#utility.yul\":1025:1143   */\n    tag_457:\n        /* \"#utility.yul\":1112:1136   */\n      tag_547\n        /* \"#utility.yul\":1130:1135   */\n      dup2\n        /* \"#utility.yul\":1112:1136   */\n      tag_454\n      jump\t// in\n    tag_547:\n        /* \"#utility.yul\":1107:1110   */\n      dup3\n        /* \"#utility.yul\":1100:1137   */\n      mstore\n        /* \"#utility.yul\":1025:1143   */\n      pop\n      pop\n      jump\t// out\n        /* \"#utility.yul\":1149:1371   */\n    tag_37:\n        /* \"#utility.yul\":1242:1246   */\n      0x00\n        /* \"#utility.yul\":1280:1282   */\n      0x20\n        /* \"#utility.yul\":1269:1278   */\n      dup3\n        /* \"#utility.yul\":1265:1283   */\n      add\n        /* \"#utility.yul\":1257:1283   */\n      swap1\n      pop\n        /* \"#utility.yul\":1293:1364   */\n      tag_549\n        /* \"#utility.yul\":1361:1362   */\n      0x00\n        /* \"#utility.yul\":1350:1359   */\n      dup4\n        /* \"#utility.yul\":1346:1363   */\n      add\n        /* \"#utility.yul\":1337:1343   */\n      dup5\n        /* \"#utility.yul\":1293:1364   */\n      tag_457\n      jump\t// in\n    tag_549:\n        /* \"#utility.yul\":1149:1371   */\n      swap3\n      swap2\n      pop\n      pop\n      jump\t// out\n        /* \"#utility.yul\":1377:1467   */\n    tag_458:\n        /* \"#utility.yul\":1411:1418   */\n      0x00\n        /* \"#utility.yul\":1454:1459   */\n      dup2\n        /* \"#utility.yul\":1447:1460   */\n      iszero\n        /* \"#utility.yul\":1440:1461   */\n      iszero\n        /* \"#utility.yul\":1429:1461   */\n      swap1\n      pop\n        /* \"#utility.yul\":1377:1467   */\n      swap2\n      swap1\n      pop\n      jump\t// out\n        /* \"#utility.yul\":1473:1582   */\n    tag_459:\n        /* \"#utility.yul\":1554:1575   */\n      tag_552\n        /* \"#utility.yul\":1569:1574   */\n      dup2\n        /* \"#utility.yul\":1554:1575   */\n      tag_458\n      jump\t// in\n    tag_552:\n        /* \"#utility.yul\":1549:1552   */\n      dup3\n        /* \"#utility.yul\":1542:1576   */\n      mstore\n        /* \"#utility.yul\":1473:1582   */\n      pop\n      pop\n      jump\t// out\n        /* \"#utility.yul\":1588:1798   */\n    tag_46:\n        /* \"#utility.yul\":1675:1679   */\n      0x00\n        /* \"#utility.yul\":1713:1715   */\n      0x20\n        /* \"#utility.yul\":1702:1711   */\n      dup3\n        /* \"#utility.yul\":1698:1716   */\n      add\n        /* \"#utility.yul\":1690:1716   */\n      swap1\n      pop\n        /* \"#utility.yul\":1726:1791   */\n      tag_554\n        /* \"#utility.yul\":1788:1789   */\n      0x00\n        /* \"#utility.yul\":1777:1786   */\n      dup4\n        /* \"#utility.yul\":1773:1790   */\n      add\n        /* \"#utility.yul\":1764:1770   */\n      dup5\n        /* \"#utility.yul\":1726:1791   */\n      tag_459\n      jump\t// in\n    tag_554:\n        /* \"#utility.yul\":1588:1798   */\n      swap3\n      swap2\n      pop\n      pop\n      jump\t// out\n        /* \"#utility.yul\":1804:2136   */\n    tag_54:\n        /* \"#utility.yul\":1925:1929   */\n      0x00\n        /* \"#utility.yul\":1963:1965   */\n      0x40\n        /* \"#utility.yul\":1952:1961   */\n      dup3\n        /* \"#utility.yul\":1948:1966   */\n      add\n        /* \"#utility.yul\":1940:1966   */\n      swap1\n      pop\n        /* \"#utility.yul\":1976:2047   */\n      tag_556\n        /* \"#utility.yul\":2044:2045   */\n      0x00\n        /* \"#utility.yul\":2033:2042   */\n      dup4\n        /* \"#utility.yul\":2029:2046   */\n      add\n        /* \"#utility.yul\":2020:2026   */\n      dup6\n        /* \"#utility.yul\":1976:2047   */\n      tag_457\n      jump\t// in\n    tag_556:\n        /* \"#utility.yul\":2057:2129   */\n      tag_557\n        /* \"#utility.yul\":2125:2127   */\n      0x20\n        /* \"#utility.yul\":2114:2123   */\n      dup4\n        /* \"#utility.yul\":2110:2128   */\n      add\n        /* \"#utility.yul\":2101:2107   */\n      dup5\n        /* \"#utility.yul\":2057:2129   */\n      tag_457\n      jump\t// in\n    tag_557:\n        /* \"#utility.yul\":1804:2136   */\n      swap4\n      swap3\n      pop\n      pop\n      pop\n      jump\t// out\n        /* \"#utility.yul\":2142:2263   */\n    tag_460:\n        /* \"#utility.yul\":2237:2238   */\n      0x03\n        /* \"#utility.yul\":2230:2235   */\n      dup2\n        /* \"#utility.yul\":2227:2239   */\n      lt\n        /* \"#utility.yul\":2217:2257   */\n      tag_559\n      jumpi\n        /* \"#utility.yul\":2253:2254   */\n      0x00\n        /* \"#utility.yul\":2250:2251   */\n      dup1\n        /* \"#utility.yul\":2243:2255   */\n      revert\n        /* \"#utility.yul\":2217:2257   */\n    tag_559:\n        /* \"#utility.yul\":2142:2263   */\n      pop\n      jump\t// out\n        /* \"#utility.yul\":2269:2452   */\n    tag_461:\n        /* \"#utility.yul\":2337:2342   */\n      0x00\n        /* \"#utility.yul\":2375:2381   */\n      dup2\n        /* \"#utility.yul\":2362:2382   */\n      calldataload\n        /* \"#utility.yul\":2353:2382   */\n      swap1\n      pop\n        /* \"#utility.yul\":2391:2446   */\n      tag_561\n        /* \"#utility.yul\":2440:2445   */\n      dup2\n        /* \"#utility.yul\":2391:2446   */\n      tag_460\n      jump\t// in\n    tag_561:\n        /* \"#utility.yul\":2269:2452   */\n      swap3\n      swap2\n      pop\n      pop\n      jump\t// out\n        /* \"#utility.yul\":2458:2584   */\n    tag_462:\n        /* \"#utility.yul\":2495:2502   */\n      0x00\n        /* \"#utility.yul\":2535:2577   */\n      0xffffffffffffffffffffffffffffffffffffffff\n        /* \"#utility.yul\":2528:2533   */\n      dup3\n        /* \"#utility.yul\":2524:2578   */\n      and\n        /* \"#utility.yul\":2513:2578   */\n      swap1\n      pop\n        /* \"#utility.yul\":2458:2584   */\n      swap2\n      swap1\n      pop\n      jump\t// out\n        /* \"#utility.yul\":2590:2686   */\n    tag_463:\n        /* \"#utility.yul\":2627:2634   */\n      0x00\n        /* \"#utility.yul\":2656:2680   */\n      tag_564\n        /* \"#utility.yul\":2674:2679   */\n      dup3\n        /* \"#utility.yul\":2656:2680   */\n      tag_462\n      jump\t// in\n    tag_564:\n        /* \"#utility.yul\":2645:2680   */\n      swap1\n      pop\n        /* \"#utility.yul\":2590:2686   */\n      swap2\n      swap1\n      pop\n      jump\t// out\n        /* \"#utility.yul\":2692:2814   */\n    tag_464:\n        /* \"#utility.yul\":2765:2789   */\n      tag_566\n        /* \"#utility.yul\":2783:2788   */\n      dup2\n        /* \"#utility.yul\":2765:2789   */\n      tag_463\n      jump\t// in\n    tag_566:\n        /* \"#utility.yul\":2758:2763   */\n      dup2\n        /* \"#utility.yul\":2755:2790   */\n      eq\n        /* \"#utility.yul\":2745:2808   */\n      tag_567\n      jumpi\n        /* \"#utility.yul\":2804:2805   */\n      0x00\n        /* \"#utility.yul\":2801:2802   */\n      dup1\n        /* \"#utility.yul\":2794:2806   */\n      revert\n        /* \"#utility.yul\":2745:2808   */\n    tag_567:\n        /* \"#utility.yul\":2692:2814   */\n      pop\n      jump\t// out\n        /* \"#utility.yul\":2820:2959   */\n    tag_465:\n        /* \"#utility.yul\":2866:2871   */\n      0x00\n        /* \"#utility.yul\":2904:2910   */\n      dup2\n        /* \"#utility.yul\":2891:2911   */\n      calldataload\n        /* \"#utility.yul\":2882:2911   */\n      swap1\n      pop\n        /* \"#utility.yul\":2920:2953   */\n      tag_569\n        /* \"#utility.yul\":2947:2952   */\n      dup2\n        /* \"#utility.yul\":2920:2953   */\n      tag_464\n      jump\t// in\n    tag_569:\n        /* \"#utility.yul\":2820:2959   */\n      swap3\n      swap2\n      pop\n      pop\n      jump\t// out\n        /* \"#utility.yul\":2965:3081   */\n    tag_466:\n        /* \"#utility.yul\":3035:3056   */\n      tag_571\n        /* \"#utility.yul\":3050:3055   */\n      dup2\n        /* \"#utility.yul\":3035:3056   */\n      tag_458\n      jump\t// in\n    tag_571:\n        /* \"#utility.yul\":3028:3033   */\n      dup2\n        /* \"#utility.yul\":3025:3057   */\n      eq\n        /* \"#utility.yul\":3015:3075   */\n      tag_572\n      jumpi\n        /* \"#utility.yul\":3071:3072   */\n      0x00\n        /* \"#utility.yul\":3068:3069   */\n      dup1\n        /* \"#utility.yul\":3061:3073   */\n      revert\n        /* \"#utility.yul\":3015:3075   */\n    tag_572:\n        /* \"#utility.yul\":2965:3081   */\n      pop\n      jump\t// out\n        /* \"#utility.yul\":3087:3220   */\n    tag_467:\n        /* \"#utility.yul\":3130:3135   */\n      0x00\n        /* \"#utility.yul\":3168:3174   */\n      dup2\n        /* \"#utility.yul\":3155:3175   */\n      calldataload\n        /* \"#utility.yul\":3146:3175   */\n      swap1\n      pop\n        /* \"#utility.yul\":3184:3214   */\n      tag_574\n        /* \"#utility.yul\":3208:3213   */\n      dup2\n        /* \"#utility.yul\":3184:3214   */\n      tag_466\n      jump\t// in\n    tag_574:\n        /* \"#utility.yul\":3087:3220   */\n      swap3\n      swap2\n      pop\n      pop\n      jump\t// out\n        /* \"#utility.yul\":3226:4613   */\n    tag_65:\n        /* \"#utility.yul\":3367:3373   */\n      0x00\n        /* \"#utility.yul\":3375:3381   */\n      dup1\n        /* \"#utility.yul\":3383:3389   */\n      0x00\n        /* \"#utility.yul\":3391:3397   */\n      dup1\n        /* \"#utility.yul\":3399:3405   */\n      0x00\n        /* \"#utility.yul\":3407:3413   */\n      dup1\n        /* \"#utility.yul\":3415:3421   */\n      0x00\n        /* \"#utility.yul\":3423:3429   */\n      dup1\n        /* \"#utility.yul\":3472:3475   */\n      0x0100\n        /* \"#utility.yul\":3460:3469   */\n      dup10\n        /* \"#utility.yul\":3451:3458   */\n      dup12\n        /* \"#utility.yul\":3447:3470   */\n      sub\n        /* \"#utility.yul\":3443:3476   */\n      slt\n        /* \"#utility.yul\":3440:3560   */\n      iszero\n      tag_576\n      jumpi\n        /* \"#utility.yul\":3479:3558   */\n      tag_577\n      tag_452\n      jump\t// in\n    tag_577:\n        /* \"#utility.yul\":3440:3560   */\n    tag_576:\n        /* \"#utility.yul\":3599:3600   */\n      0x00\n        /* \"#utility.yul\":3624:3699   */\n      tag_578\n        /* \"#utility.yul\":3691:3698   */\n      dup12\n        /* \"#utility.yul\":3682:3688   */\n      dup3\n        /* \"#utility.yul\":3671:3680   */\n      dup13\n        /* \"#utility.yul\":3667:3689   */\n      add\n        /* \"#utility.yul\":3624:3699   */\n      tag_461\n      jump\t// in\n    tag_578:\n        /* \"#utility.yul\":3614:3699   */\n      swap9\n      pop\n        /* \"#utility.yul\":3570:3709   */\n      pop\n        /* \"#utility.yul\":3748:3750   */\n      0x20\n        /* \"#utility.yul\":3774:3827   */\n      tag_579\n        /* \"#utility.yul\":3819:3826   */\n      dup12\n        /* \"#utility.yul\":3810:3816   */\n      dup3\n        /* \"#utility.yul\":3799:3808   */\n      dup13\n        /* \"#utility.yul\":3795:3817   */\n      add\n        /* \"#utility.yul\":3774:3827   */\n      tag_465\n      jump\t// in\n    tag_579:\n        /* \"#utility.yul\":3764:3827   */\n      swap8\n      pop\n        /* \"#utility.yul\":3719:3837   */\n      pop\n        /* \"#utility.yul\":3876:3878   */\n      0x40\n        /* \"#utility.yul\":3902:3955   */\n      tag_580\n        /* \"#utility.yul\":3947:3954   */\n      dup12\n        /* \"#utility.yul\":3938:3944   */\n      dup3\n        /* \"#utility.yul\":3927:3936   */\n      dup13\n        /* \"#utility.yul\":3923:3945   */\n      add\n        /* \"#utility.yul\":3902:3955   */\n      tag_465\n      jump\t// in\n    tag_580:\n        /* \"#utility.yul\":3892:3955   */\n      swap7\n      pop\n        /* \"#utility.yul\":3847:3965   */\n      pop\n        /* \"#utility.yul\":4004:4006   */\n      0x60\n        /* \"#utility.yul\":4030:4083   */\n      tag_581\n        /* \"#utility.yul\":4075:4082   */\n      dup12\n        /* \"#utility.yul\":4066:4072   */\n      dup3\n        /* \"#utility.yul\":4055:4064   */\n      dup13\n        /* \"#utility.yul\":4051:4073   */\n      add\n        /* \"#utility.yul\":4030:4083   */\n      tag_456\n      jump\t// in\n    tag_581:\n        /* \"#utility.yul\":4020:4083   */\n      swap6\n      pop\n        /* \"#utility.yul\":3975:4093   */\n      pop\n        /* \"#utility.yul\":4132:4135   */\n      0x80\n        /* \"#utility.yul\":4159:4212   */\n      tag_582\n        /* \"#utility.yul\":4204:4211   */\n      dup12\n        /* \"#utility.yul\":4195:4201   */\n      dup3\n        /* \"#utility.yul\":4184:4193   */\n      dup13\n        /* \"#utility.yul\":4180:4202   */\n      add\n        /* \"#utility.yul\":4159:4212   */\n      tag_456\n      jump\t// in\n    tag_582:\n        /* \"#utility.yul\":4149:4212   */\n      swap5\n      pop\n        /* \"#utility.yul\":4103:4222   */\n      pop\n        /* \"#utility.yul\":4261:4264   */\n      0xa0\n        /* \"#utility.yul\":4288:4341   */\n      tag_583\n        /* \"#utility.yul\":4333:4340   */\n      dup12\n        /* \"#utility.yul\":4324:4330   */\n      dup3\n        /* \"#utility.yul\":4313:4322   */\n      dup13\n        /* \"#utility.yul\":4309:4331   */\n      add\n        /* \"#utility.yul\":4288:4341   */\n      tag_456\n      jump\t// in\n    tag_583:\n        /* \"#utility.yul\":4278:4341   */\n      swap4\n      pop\n        /* \"#utility.yul\":4232:4351   */\n      pop\n        /* \"#utility.yul\":4390:4393   */\n      0xc0\n        /* \"#utility.yul\":4417:4467   */\n      tag_584\n        /* \"#utility.yul\":4459:4466   */\n      dup12\n        /* \"#utility.yul\":4450:4456   */\n      dup3\n        /* \"#utility.yul\":4439:4448   */\n      dup13\n        /* \"#utility.yul\":4435:4457   */\n      add\n        /* \"#utility.yul\":4417:4467   */\n      tag_467\n      jump\t// in\n    tag_584:\n        /* \"#utility.yul\":4407:4467   */\n      swap3\n      pop\n        /* \"#utility.yul\":4361:4477   */\n      pop\n        /* \"#utility.yul\":4516:4519   */\n      0xe0\n        /* \"#utility.yul\":4543:4596   */\n      tag_585\n        /* \"#utility.yul\":4588:4595   */\n      dup12\n        /* \"#utility.yul\":4579:4585   */\n      dup3\n        /* \"#utility.yul\":4568:4577   */\n      dup13\n        /* \"#utility.yul\":4564:4586   */\n      add\n        /* \"#utility.yul\":4543:4596   */\n      tag_465\n      jump\t// in\n    tag_585:\n        /* \"#utility.yul\":4533:4596   */\n      swap2\n      pop\n        /* \"#utility.yul\":4487:4606   */\n      pop\n        /* \"#utility.yul\":3226:4613   */\n      swap3\n      swap6\n      swap9\n      pop\n      swap3\n      swap6\n      swap9\n      swap1\n      swap4\n      swap7\n      pop\n      jump\t// out\n        /* \"#utility.yul\":4619:4799   */\n    tag_129:\n        /* \"#utility.yul\":4667:4744   */\n      0x4e487b7100000000000000000000000000000000000000000000000000000000\n        /* \"#utility.yul\":4664:4665   */\n      0x00\n        /* \"#utility.yul\":4657:4745   */\n      mstore\n        /* \"#utility.yul\":4764:4768   */\n      0x21\n        /* \"#utility.yul\":4761:4762   */\n      0x04\n        /* \"#utility.yul\":4754:4769   */\n      mstore\n        /* \"#utility.yul\":4788:4792   */\n      0x24\n        /* \"#utility.yul\":4785:4786   */\n      0x00\n        /* \"#utility.yul\":4778:4793   */\n      revert\n        /* \"#utility.yul\":4805:4932   */\n    tag_468:\n        /* \"#utility.yul\":4900:4901   */\n      0x03\n        /* \"#utility.yul\":4893:4898   */\n      dup2\n        /* \"#utility.yul\":4890:4902   */\n      lt\n        /* \"#utility.yul\":4880:4926   */\n      tag_588\n      jumpi\n        /* \"#utility.yul\":4906:4924   */\n      tag_589\n      tag_129\n      jump\t// in\n    tag_589:\n        /* \"#utility.yul\":4880:4926   */\n    tag_588:\n        /* \"#utility.yul\":4805:4932   */\n      pop\n      jump\t// out\n        /* \"#utility.yul\":4938:5093   */\n    tag_469:\n        /* \"#utility.yul\":4997:5004   */\n      0x00\n        /* \"#utility.yul\":5026:5031   */\n      dup2\n        /* \"#utility.yul\":5015:5031   */\n      swap1\n      pop\n        /* \"#utility.yul\":5032:5087   */\n      tag_591\n        /* \"#utility.yul\":5081:5086   */\n      dup3\n        /* \"#utility.yul\":5032:5087   */\n      tag_468\n      jump\t// in\n    tag_591:\n        /* \"#utility.yul\":4938:5093   */\n      swap2\n      swap1\n      pop\n      jump\t// out\n        /* \"#utility.yul\":5099:5254   */\n    tag_470:\n        /* \"#utility.yul\":5169:5178   */\n      0x00\n        /* \"#utility.yul\":5202:5248   */\n      tag_593\n        /* \"#utility.yul\":5242:5247   */\n      dup3\n        /* \"#utility.yul\":5202:5248   */\n      tag_469\n      jump\t// in\n    tag_593:\n        /* \"#utility.yul\":5189:5248   */\n      swap1\n      pop\n        /* \"#utility.yul\":5099:5254   */\n      swap2\n      swap1\n      pop\n      jump\t// out\n        /* \"#utility.yul\":5260:5431   */\n    tag_471:\n        /* \"#utility.yul\":5367:5424   */\n      tag_595\n        /* \"#utility.yul\":5418:5423   */\n      dup2\n        /* \"#utility.yul\":5367:5424   */\n      tag_470\n      jump\t// in\n    tag_595:\n        /* \"#utility.yul\":5362:5365   */\n      dup3\n        /* \"#utility.yul\":5355:5425   */\n      mstore\n        /* \"#utility.yul\":5260:5431   */\n      pop\n      pop\n      jump\t// out\n        /* \"#utility.yul\":5437:5699   */\n    tag_75:\n        /* \"#utility.yul\":5550:5554   */\n      0x00\n        /* \"#utility.yul\":5588:5590   */\n      0x20\n        /* \"#utility.yul\":5577:5586   */\n      dup3\n        /* \"#utility.yul\":5573:5591   */\n      add\n        /* \"#utility.yul\":5565:5591   */\n      swap1\n      pop\n        /* \"#utility.yul\":5601:5692   */\n      tag_597\n        /* \"#utility.yul\":5689:5690   */\n      0x00\n        /* \"#utility.yul\":5678:5687   */\n      dup4\n        /* \"#utility.yul\":5674:5691   */\n      add\n        /* \"#utility.yul\":5665:5671   */\n      dup5\n        /* \"#utility.yul\":5601:5692   */\n      tag_471\n      jump\t// in\n    tag_597:\n        /* \"#utility.yul\":5437:5699   */\n      swap3\n      swap2\n      pop\n      pop\n      jump\t// out\n        /* \"#utility.yul\":5705:5823   */\n    tag_472:\n        /* \"#utility.yul\":5792:5816   */\n      tag_599\n        /* \"#utility.yul\":5810:5815   */\n      dup2\n        /* \"#utility.yul\":5792:5816   */\n      tag_463\n      jump\t// in\n    tag_599:\n        /* \"#utility.yul\":5787:5790   */\n      dup3\n        /* \"#utility.yul\":5780:5817   */\n      mstore\n        /* \"#utility.yul\":5705:5823   */\n      pop\n      pop\n      jump\t// out\n        /* \"#utility.yul\":5829:6051   */\n    tag_80:\n        /* \"#utility.yul\":5922:5926   */\n      0x00\n        /* \"#utility.yul\":5960:5962   */\n      0x20\n        /* \"#utility.yul\":5949:5958   */\n      dup3\n        /* \"#utility.yul\":5945:5963   */\n      add\n        /* \"#utility.yul\":5937:5963   */\n      swap1\n      pop\n        /* \"#utility.yul\":5973:6044   */\n      tag_601\n        /* \"#utility.yul\":6041:6042   */\n      0x00\n        /* \"#utility.yul\":6030:6039   */\n      dup4\n        /* \"#utility.yul\":6026:6043   */\n      add\n        /* \"#utility.yul\":6017:6023   */\n      dup5\n        /* \"#utility.yul\":5973:6044   */\n      tag_472\n      jump\t// in\n    tag_601:\n        /* \"#utility.yul\":5829:6051   */\n      swap3\n      swap2\n      pop\n      pop\n      jump\t// out\n        /* \"#utility.yul\":6057:6389   */\n    tag_85:\n        /* \"#utility.yul\":6178:6182   */\n      0x00\n        /* \"#utility.yul\":6216:6218   */\n      0x40\n        /* \"#utility.yul\":6205:6214   */\n      dup3\n        /* \"#utility.yul\":6201:6219   */\n      add\n        /* \"#utility.yul\":6193:6219   */\n      swap1\n      pop\n        /* \"#utility.yul\":6229:6300   */\n      tag_603\n        /* \"#utility.yul\":6297:6298   */\n      0x00\n        /* \"#utility.yul\":6286:6295   */\n      dup4\n        /* \"#utility.yul\":6282:6299   */\n      add\n        /* \"#utility.yul\":6273:6279   */\n      dup6\n        /* \"#utility.yul\":6229:6300   */\n      tag_472\n      jump\t// in\n    tag_603:\n        /* \"#utility.yul\":6310:6382   */\n      tag_604\n        /* \"#utility.yul\":6378:6380   */\n      0x20\n        /* \"#utility.yul\":6367:6376   */\n      dup4\n        /* \"#utility.yul\":6363:6381   */\n      add\n        /* \"#utility.yul\":6354:6360   */\n      dup5\n        /* \"#utility.yul\":6310:6382   */\n      tag_472\n      jump\t// in\n    tag_604:\n        /* \"#utility.yul\":6057:6389   */\n      swap4\n      swap3\n      pop\n      pop\n      pop\n      jump\t// out\n        /* \"#utility.yul\":6395:6509   */\n    tag_473:\n        /* \"#utility.yul\":6462:6468   */\n      0x00\n        /* \"#utility.yul\":6496:6501   */\n      dup2\n        /* \"#utility.yul\":6490:6502   */\n      mload\n        /* \"#utility.yul\":6480:6502   */\n      swap1\n      pop\n        /* \"#utility.yul\":6395:6509   */\n      swap2\n      swap1\n      pop\n      jump\t// out\n        /* \"#utility.yul\":6515:6699   */\n    tag_474:\n        /* \"#utility.yul\":6614:6625   */\n      0x00\n        /* \"#utility.yul\":6648:6654   */\n      dup3\n        /* \"#utility.yul\":6643:6646   */\n      dup3\n        /* \"#utility.yul\":6636:6655   */\n      mstore\n        /* \"#utility.yul\":6688:6692   */\n      0x20\n        /* \"#utility.yul\":6683:6686   */\n      dup3\n        /* \"#utility.yul\":6679:6693   */\n      add\n        /* \"#utility.yul\":6664:6693   */\n      swap1\n      pop\n        /* \"#utility.yul\":6515:6699   */\n      swap3\n      swap2\n      pop\n      pop\n      jump\t// out\n        /* \"#utility.yul\":6705:6837   */\n    tag_475:\n        /* \"#utility.yul\":6772:6776   */\n      0x00\n        /* \"#utility.yul\":6795:6798   */\n      dup2\n        /* \"#utility.yul\":6787:6798   */\n      swap1\n      pop\n        /* \"#utility.yul\":6825:6829   */\n      0x20\n        /* \"#utility.yul\":6820:6823   */\n      dup3\n        /* \"#utility.yul\":6816:6830   */\n      add\n        /* \"#utility.yul\":6808:6830   */\n      swap1\n      pop\n        /* \"#utility.yul\":6705:6837   */\n      swap2\n      swap1\n      pop\n      jump\t// out\n        /* \"#utility.yul\":6843:6951   */\n    tag_476:\n        /* \"#utility.yul\":6920:6944   */\n      tag_609\n        /* \"#utility.yul\":6938:6943   */\n      dup2\n        /* \"#utility.yul\":6920:6944   */\n      tag_463\n      jump\t// in\n    tag_609:\n        /* \"#utility.yul\":6915:6918   */\n      dup3\n        /* \"#utility.yul\":6908:6945   */\n      mstore\n        /* \"#utility.yul\":6843:6951   */\n      pop\n      pop\n      jump\t// out\n        /* \"#utility.yul\":6957:7136   */\n    tag_477:\n        /* \"#utility.yul\":7026:7036   */\n      0x00\n        /* \"#utility.yul\":7047:7093   */\n      tag_611\n        /* \"#utility.yul\":7089:7092   */\n      dup4\n        /* \"#utility.yul\":7081:7087   */\n      dup4\n        /* \"#utility.yul\":7047:7093   */\n      tag_476\n      jump\t// in\n    tag_611:\n        /* \"#utility.yul\":7125:7129   */\n      0x20\n        /* \"#utility.yul\":7120:7123   */\n      dup4\n        /* \"#utility.yul\":7116:7130   */\n      add\n        /* \"#utility.yul\":7102:7130   */\n      swap1\n      pop\n        /* \"#utility.yul\":6957:7136   */\n      swap3\n      swap2\n      pop\n      pop\n      jump\t// out\n        /* \"#utility.yul\":7142:7255   */\n    tag_478:\n        /* \"#utility.yul\":7212:7216   */\n      0x00\n        /* \"#utility.yul\":7244:7248   */\n      0x20\n        /* \"#utility.yul\":7239:7242   */\n      dup3\n        /* \"#utility.yul\":7235:7249   */\n      add\n        /* \"#utility.yul\":7227:7249   */\n      swap1\n      pop\n        /* \"#utility.yul\":7142:7255   */\n      swap2\n      swap1\n      pop\n      jump\t// out\n        /* \"#utility.yul\":7291:8023   */\n    tag_479:\n        /* \"#utility.yul\":7410:7413   */\n      0x00\n        /* \"#utility.yul\":7439:7493   */\n      tag_614\n        /* \"#utility.yul\":7487:7492   */\n      dup3\n        /* \"#utility.yul\":7439:7493   */\n      tag_473\n      jump\t// in\n    tag_614:\n        /* \"#utility.yul\":7509:7595   */\n      tag_615\n        /* \"#utility.yul\":7588:7594   */\n      dup2\n        /* \"#utility.yul\":7583:7586   */\n      dup6\n        /* \"#utility.yul\":7509:7595   */\n      tag_474\n      jump\t// in\n    tag_615:\n        /* \"#utility.yul\":7502:7595   */\n      swap4\n      pop\n        /* \"#utility.yul\":7619:7675   */\n      tag_616\n        /* \"#utility.yul\":7669:7674   */\n      dup4\n        /* \"#utility.yul\":7619:7675   */\n      tag_475\n      jump\t// in\n    tag_616:\n        /* \"#utility.yul\":7698:7705   */\n      dup1\n        /* \"#utility.yul\":7729:7730   */\n      0x00\n        /* \"#utility.yul\":7714:7998   */\n    tag_617:\n        /* \"#utility.yul\":7739:7745   */\n      dup4\n        /* \"#utility.yul\":7736:7737   */\n      dup2\n        /* \"#utility.yul\":7733:7746   */\n      lt\n        /* \"#utility.yul\":7714:7998   */\n      iszero\n      tag_619\n      jumpi\n        /* \"#utility.yul\":7815:7821   */\n      dup2\n        /* \"#utility.yul\":7809:7822   */\n      mload\n        /* \"#utility.yul\":7842:7905   */\n      tag_620\n        /* \"#utility.yul\":7901:7904   */\n      dup9\n        /* \"#utility.yul\":7886:7899   */\n      dup3\n        /* \"#utility.yul\":7842:7905   */\n      tag_477\n      jump\t// in\n    tag_620:\n        /* \"#utility.yul\":7835:7905   */\n      swap8\n      pop\n        /* \"#utility.yul\":7928:7988   */\n      tag_621\n        /* \"#utility.yul\":7981:7987   */\n      dup4\n        /* \"#utility.yul\":7928:7988   */\n      tag_478\n      jump\t// in\n    tag_621:\n        /* \"#utility.yul\":7918:7988   */\n      swap3\n      pop\n        /* \"#utility.yul\":7774:7998   */\n      pop\n        /* \"#utility.yul\":7761:7762   */\n      0x01\n        /* \"#utility.yul\":7758:7759   */\n      dup2\n        /* \"#utility.yul\":7754:7763   */\n      add\n        /* \"#utility.yul\":7749:7763   */\n      swap1\n      pop\n        /* \"#utility.yul\":7714:7998   */\n      jump(tag_617)\n    tag_619:\n        /* \"#utility.yul\":7718:7732   */\n      pop\n        /* \"#utility.yul\":8014:8017   */\n      dup6\n        /* \"#utility.yul\":8007:8017   */\n      swap4\n      pop\n        /* \"#utility.yul\":7415:8023   */\n      pop\n      pop\n      pop\n        /* \"#utility.yul\":7291:8023   */\n      swap3\n      swap2\n      pop\n      pop\n      jump\t// out\n        /* \"#utility.yul\":8029:8143   */\n    tag_480:\n        /* \"#utility.yul\":8096:8102   */\n      0x00\n        /* \"#utility.yul\":8130:8135   */\n      dup2\n        /* \"#utility.yul\":8124:8136   */\n      mload\n        /* \"#utility.yul\":8114:8136   */\n      swap1\n      pop\n        /* \"#utility.yul\":8029:8143   */\n      swap2\n      swap1\n      pop\n      jump\t// out\n        /* \"#utility.yul\":8149:8333   */\n    tag_481:\n        /* \"#utility.yul\":8248:8259   */\n      0x00\n        /* \"#utility.yul\":8282:8288   */\n      dup3\n        /* \"#utility.yul\":8277:8280   */\n      dup3\n        /* \"#utility.yul\":8270:8289   */\n      mstore\n        /* \"#utility.yul\":8322:8326   */\n      0x20\n        /* \"#utility.yul\":8317:8320   */\n      dup3\n        /* \"#utility.yul\":8313:8327   */\n      add\n        /* \"#utility.yul\":8298:8327   */\n      swap1\n      pop\n        /* \"#utility.yul\":8149:8333   */\n      swap3\n      swap2\n      pop\n      pop\n      jump\t// out\n        /* \"#utility.yul\":8339:8471   */\n    tag_482:\n        /* \"#utility.yul\":8406:8410   */\n      0x00\n        /* \"#utility.yul\":8429:8432   */\n      dup2\n        /* \"#utility.yul\":8421:8432   */\n      swap1\n      pop\n        /* \"#utility.yul\":8459:8463   */\n      0x20\n        /* \"#utility.yul\":8454:8457   */\n      dup3\n        /* \"#utility.yul\":8450:8464   */\n      add\n        /* \"#utility.yul\":8442:8464   */\n      swap1\n      pop\n        /* \"#utility.yul\":8339:8471   */\n      swap2\n      swap1\n      pop\n      jump\t// out\n        /* \"#utility.yul\":8477:8585   */\n    tag_483:\n        /* \"#utility.yul\":8554:8578   */\n      tag_626\n        /* \"#utility.yul\":8572:8577   */\n      dup2\n        /* \"#utility.yul\":8554:8578   */\n      tag_454\n      jump\t// in\n    tag_626:\n        /* \"#utility.yul\":8549:8552   */\n      dup3\n        /* \"#utility.yul\":8542:8579   */\n      mstore\n        /* \"#utility.yul\":8477:8585   */\n      pop\n      pop\n      jump\t// out\n        /* \"#utility.yul\":8591:8770   */\n    tag_484:\n        /* \"#utility.yul\":8660:8670   */\n      0x00\n        /* \"#utility.yul\":8681:8727   */\n      tag_628\n        /* \"#utility.yul\":8723:8726   */\n      dup4\n        /* \"#utility.yul\":8715:8721   */\n      dup4\n        /* \"#utility.yul\":8681:8727   */\n      tag_483\n      jump\t// in\n    tag_628:\n        /* \"#utility.yul\":8759:8763   */\n      0x20\n        /* \"#utility.yul\":8754:8757   */\n      dup4\n        /* \"#utility.yul\":8750:8764   */\n      add\n        /* \"#utility.yul\":8736:8764   */\n      swap1\n      pop\n        /* \"#utility.yul\":8591:8770   */\n      swap3\n      swap2\n      pop\n      pop\n      jump\t// out\n        /* \"#utility.yul\":8776:8889   */\n    tag_485:\n        /* \"#utility.yul\":8846:8850   */\n      0x00\n        /* \"#utility.yul\":8878:8882   */\n      0x20\n        /* \"#utility.yul\":8873:8876   */\n      dup3\n        /* \"#utility.yul\":8869:8883   */\n      add\n        /* \"#utility.yul\":8861:8883   */\n      swap1\n      pop\n        /* \"#utility.yul\":8776:8889   */\n      swap2\n      swap1\n      pop\n      jump\t// out\n        /* \"#utility.yul\":8925:9657   */\n    tag_486:\n        /* \"#utility.yul\":9044:9047   */\n      0x00\n        /* \"#utility.yul\":9073:9127   */\n      tag_631\n        /* \"#utility.yul\":9121:9126   */\n      dup3\n        /* \"#utility.yul\":9073:9127   */\n      tag_480\n      jump\t// in\n    tag_631:\n        /* \"#utility.yul\":9143:9229   */\n      tag_632\n        /* \"#utility.yul\":9222:9228   */\n      dup2\n        /* \"#utility.yul\":9217:9220   */\n      dup6\n        /* \"#utility.yul\":9143:9229   */\n      tag_481\n      jump\t// in\n    tag_632:\n        /* \"#utility.yul\":9136:9229   */\n      swap4\n      pop\n        /* \"#utility.yul\":9253:9309   */\n      tag_633\n        /* \"#utility.yul\":9303:9308   */\n      dup4\n        /* \"#utility.yul\":9253:9309   */\n      tag_482\n      jump\t// in\n    tag_633:\n        /* \"#utility.yul\":9332:9339   */\n      dup1\n        /* \"#utility.yul\":9363:9364   */\n      0x00\n        /* \"#utility.yul\":9348:9632   */\n    tag_634:\n        /* \"#utility.yul\":9373:9379   */\n      dup4\n        /* \"#utility.yul\":9370:9371   */\n      dup2\n        /* \"#utility.yul\":9367:9380   */\n      lt\n        /* \"#utility.yul\":9348:9632   */\n      iszero\n      tag_636\n      jumpi\n        /* \"#utility.yul\":9449:9455   */\n      dup2\n        /* \"#utility.yul\":9443:9456   */\n      mload\n        /* \"#utility.yul\":9476:9539   */\n      tag_637\n        /* \"#utility.yul\":9535:9538   */\n      dup9\n        /* \"#utility.yul\":9520:9533   */\n      dup3\n        /* \"#utility.yul\":9476:9539   */\n      tag_484\n      jump\t// in\n    tag_637:\n        /* \"#utility.yul\":9469:9539   */\n      swap8\n      pop\n        /* \"#utility.yul\":9562:9622   */\n      tag_638\n        /* \"#utility.yul\":9615:9621   */\n      dup4\n        /* \"#utility.yul\":9562:9622   */\n      tag_485\n      jump\t// in\n    tag_638:\n        /* \"#utility.yul\":9552:9622   */\n      swap3\n      pop\n        /* \"#utility.yul\":9408:9632   */\n      pop\n        /* \"#utility.yul\":9395:9396   */\n      0x01\n        /* \"#utility.yul\":9392:9393   */\n      dup2\n        /* \"#utility.yul\":9388:9397   */\n      add\n        /* \"#utility.yul\":9383:9397   */\n      swap1\n      pop\n        /* \"#utility.yul\":9348:9632   */\n      jump(tag_634)\n    tag_636:\n        /* \"#utility.yul\":9352:9366   */\n      pop\n        /* \"#utility.yul\":9648:9651   */\n      dup6\n        /* \"#utility.yul\":9641:9651   */\n      swap4\n      pop\n        /* \"#utility.yul\":9049:9657   */\n      pop\n      pop\n      pop\n        /* \"#utility.yul\":8925:9657   */\n      swap3\n      swap2\n      pop\n      pop\n      jump\t// out\n        /* \"#utility.yul\":9663:10558   */\n    tag_103:\n        /* \"#utility.yul\":9962:9966   */\n      0x00\n        /* \"#utility.yul\":10000:10002   */\n      0x60\n        /* \"#utility.yul\":9989:9998   */\n      dup3\n        /* \"#utility.yul\":9985:10003   */\n      add\n        /* \"#utility.yul\":9977:10003   */\n      swap1\n      pop\n        /* \"#utility.yul\":10049:10058   */\n      dup2\n        /* \"#utility.yul\":10043:10047   */\n      dup2\n        /* \"#utility.yul\":10039:10059   */\n      sub\n        /* \"#utility.yul\":10035:10036   */\n      0x00\n        /* \"#utility.yul\":10024:10033   */\n      dup4\n        /* \"#utility.yul\":10020:10037   */\n      add\n        /* \"#utility.yul\":10013:10060   */\n      mstore\n        /* \"#utility.yul\":10077:10185   */\n      tag_640\n        /* \"#utility.yul\":10180:10184   */\n      dup2\n        /* \"#utility.yul\":10171:10177   */\n      dup7\n        /* \"#utility.yul\":10077:10185   */\n      tag_479\n      jump\t// in\n    tag_640:\n        /* \"#utility.yul\":10069:10185   */\n      swap1\n      pop\n        /* \"#utility.yul\":10232:10241   */\n      dup2\n        /* \"#utility.yul\":10226:10230   */\n      dup2\n        /* \"#utility.yul\":10222:10242   */\n      sub\n        /* \"#utility.yul\":10217:10219   */\n      0x20\n        /* \"#utility.yul\":10206:10215   */\n      dup4\n        /* \"#utility.yul\":10202:10220   */\n      add\n        /* \"#utility.yul\":10195:10243   */\n      mstore\n        /* \"#utility.yul\":10260:10368   */\n      tag_641\n        /* \"#utility.yul\":10363:10367   */\n      dup2\n        /* \"#utility.yul\":10354:10360   */\n      dup6\n        /* \"#utility.yul\":10260:10368   */\n      tag_486\n      jump\t// in\n    tag_641:\n        /* \"#utility.yul\":10252:10368   */\n      swap1\n      pop\n        /* \"#utility.yul\":10415:10424   */\n      dup2\n        /* \"#utility.yul\":10409:10413   */\n      dup2\n        /* \"#utility.yul\":10405:10425   */\n      sub\n        /* \"#utility.yul\":10400:10402   */\n      0x40\n        /* \"#utility.yul\":10389:10398   */\n      dup4\n        /* \"#utility.yul\":10385:10403   */\n      add\n        /* \"#utility.yul\":10378:10426   */\n      mstore\n        /* \"#utility.yul\":10443:10551   */\n      tag_642\n        /* \"#utility.yul\":10546:10550   */\n      dup2\n        /* \"#utility.yul\":10537:10543   */\n      dup5\n        /* \"#utility.yul\":10443:10551   */\n      tag_486\n      jump\t// in\n    tag_642:\n        /* \"#utility.yul\":10435:10551   */\n      swap1\n      pop\n        /* \"#utility.yul\":9663:10558   */\n      swap5\n      swap4\n      pop\n      pop\n      pop\n      pop\n      jump\t// out\n        /* \"#utility.yul\":10564:10893   */\n    tag_107:\n        /* \"#utility.yul\":10623:10629   */\n      0x00\n        /* \"#utility.yul\":10672:10674   */\n      0x20\n        /* \"#utility.yul\":10660:10669   */\n      dup3\n        /* \"#utility.yul\":10651:10658   */\n      dup5\n        /* \"#utility.yul\":10647:10670   */\n      sub\n        /* \"#utility.yul\":10643:10675   */\n      slt\n        /* \"#utility.yul\":10640:10759   */\n      iszero\n      tag_644\n      jumpi\n        /* \"#utility.yul\":10678:10757   */\n      tag_645\n      tag_452\n      jump\t// in\n    tag_645:\n        /* \"#utility.yul\":10640:10759   */\n    tag_644:\n        /* \"#utility.yul\":10798:10799   */\n      0x00\n        /* \"#utility.yul\":10823:10876   */\n      tag_646\n        /* \"#utility.yul\":10868:10875   */\n      dup5\n        /* \"#utility.yul\":10859:10865   */\n      dup3\n        /* \"#utility.yul\":10848:10857   */\n      dup6\n        /* \"#utility.yul\":10844:10866   */\n      add\n        /* \"#utility.yul\":10823:10876   */\n      tag_465\n      jump\t// in\n    tag_646:\n        /* \"#utility.yul\":10813:10876   */\n      swap2\n      pop\n        /* \"#utility.yul\":10769:10886   */\n      pop\n        /* \"#utility.yul\":10564:10893   */\n      swap3\n      swap2\n      pop\n      pop\n      jump\t// out\n        /* \"#utility.yul\":10899:11068   */\n    tag_487:\n        /* \"#utility.yul\":10983:10994   */\n      0x00\n        /* \"#utility.yul\":11017:11023   */\n      dup3\n        /* \"#utility.yul\":11012:11015   */\n      dup3\n        /* \"#utility.yul\":11005:11024   */\n      mstore\n        /* \"#utility.yul\":11057:11061   */\n      0x20\n        /* \"#utility.yul\":11052:11055   */\n      dup3\n        /* \"#utility.yul\":11048:11062   */\n      add\n        /* \"#utility.yul\":11033:11062   */\n      swap1\n      pop\n        /* \"#utility.yul\":10899:11068   */\n      swap3\n      swap2\n      pop\n      pop\n      jump\t// out\n        /* \"#utility.yul\":11074:11246   */\n    tag_488:\n        /* \"#utility.yul\":11214:11238   */\n      0x537943726f774261727465723a20494e41435449564500000000000000000000\n        /* \"#utility.yul\":11210:11211   */\n      0x00\n        /* \"#utility.yul\":11202:11208   */\n      dup3\n        /* \"#utility.yul\":11198:11212   */\n      add\n        /* \"#utility.yul\":11191:11239   */\n      mstore\n        /* \"#utility.yul\":11074:11246   */\n      pop\n      jump\t// out\n        /* \"#utility.yul\":11252:11618   */\n    tag_489:\n        /* \"#utility.yul\":11394:11397   */\n      0x00\n        /* \"#utility.yul\":11415:11482   */\n      tag_650\n        /* \"#utility.yul\":11479:11481   */\n      0x16\n        /* \"#utility.yul\":11474:11477   */\n      dup4\n        /* \"#utility.yul\":11415:11482   */\n      tag_487\n      jump\t// in\n    tag_650:\n        /* \"#utility.yul\":11408:11482   */\n      swap2\n      pop\n        /* \"#utility.yul\":11491:11584   */\n      tag_651\n        /* \"#utility.yul\":11580:11583   */\n      dup3\n        /* \"#utility.yul\":11491:11584   */\n      tag_488\n      jump\t// in\n    tag_651:\n        /* \"#utility.yul\":11609:11611   */\n      0x20\n        /* \"#utility.yul\":11604:11607   */\n      dup3\n        /* \"#utility.yul\":11600:11612   */\n      add\n        /* \"#utility.yul\":11593:11612   */\n      swap1\n      pop\n        /* \"#utility.yul\":11252:11618   */\n      swap2\n      swap1\n      pop\n      jump\t// out\n        /* \"#utility.yul\":11624:12043   */\n    tag_113:\n        /* \"#utility.yul\":11790:11794   */\n      0x00\n        /* \"#utility.yul\":11828:11830   */\n      0x20\n        /* \"#utility.yul\":11817:11826   */\n      dup3\n        /* \"#utility.yul\":11813:11831   */\n      add\n        /* \"#utility.yul\":11805:11831   */\n      swap1\n      pop\n        /* \"#utility.yul\":11877:11886   */\n      dup2\n        /* \"#utility.yul\":11871:11875   */\n      dup2\n        /* \"#utility.yul\":11867:11887   */\n      sub\n        /* \"#utility.yul\":11863:11864   */\n      0x00\n        /* \"#utility.yul\":11852:11861   */\n      dup4\n        /* \"#utility.yul\":11848:11865   */\n      add\n        /* \"#utility.yul\":11841:11888   */\n      mstore\n        /* \"#utility.yul\":11905:12036   */\n      tag_653\n        /* \"#utility.yul\":12031:12035   */\n      dup2\n        /* \"#utility.yul\":11905:12036   */\n      tag_489\n      jump\t// in\n    tag_653:\n        /* \"#utility.yul\":11897:12036   */\n      swap1\n      pop\n        /* \"#utility.yul\":11624:12043   */\n      swap2\n      swap1\n      pop\n      jump\t// out\n        /* \"#utility.yul\":12049:12228   */\n    tag_490:\n        /* \"#utility.yul\":12189:12220   */\n      0x537943726f774261727465723a204e4f545f494e495449414c495a4544000000\n        /* \"#utility.yul\":12185:12186   */\n      0x00\n        /* \"#utility.yul\":12177:12183   */\n      dup3\n        /* \"#utility.yul\":12173:12187   */\n      add\n        /* \"#utility.yul\":12166:12221   */\n      mstore\n        /* \"#utility.yul\":12049:12228   */\n      pop\n      jump\t// out\n        /* \"#utility.yul\":12234:12600   */\n    tag_491:\n        /* \"#utility.yul\":12376:12379   */\n      0x00\n        /* \"#utility.yul\":12397:12464   */\n      tag_656\n        /* \"#utility.yul\":12461:12463   */\n      0x1d\n        /* \"#utility.yul\":12456:12459   */\n      dup4\n        /* \"#utility.yul\":12397:12464   */\n      tag_487\n      jump\t// in\n    tag_656:\n        /* \"#utility.yul\":12390:12464   */\n      swap2\n      pop\n        /* \"#utility.yul\":12473:12566   */\n      tag_657\n        /* \"#utility.yul\":12562:12565   */\n      dup3\n        /* \"#utility.yul\":12473:12566   */\n      tag_490\n      jump\t// in\n    tag_657:\n        /* \"#utility.yul\":12591:12593   */\n      0x20\n        /* \"#utility.yul\":12586:12589   */\n      dup3\n        /* \"#utility.yul\":12582:12594   */\n      add\n        /* \"#utility.yul\":12575:12594   */\n      swap1\n      pop\n        /* \"#utility.yul\":12234:12600   */\n      swap2\n      swap1\n      pop\n      jump\t// out\n        /* \"#utility.yul\":12606:13025   */\n    tag_117:\n        /* \"#utility.yul\":12772:12776   */\n      0x00\n        /* \"#utility.yul\":12810:12812   */\n      0x20\n        /* \"#utility.yul\":12799:12808   */\n      dup3\n        /* \"#utility.yul\":12795:12813   */\n      add\n        /* \"#utility.yul\":12787:12813   */\n      swap1\n      pop\n        /* \"#utility.yul\":12859:12868   */\n      dup2\n        /* \"#utility.yul\":12853:12857   */\n      dup2\n        /* \"#utility.yul\":12849:12869   */\n      sub\n        /* \"#utility.yul\":12845:12846   */\n      0x00\n        /* \"#utility.yul\":12834:12843   */\n      dup4\n        /* \"#utility.yul\":12830:12847   */\n      add\n        /* \"#utility.yul\":12823:12870   */\n      mstore\n        /* \"#utility.yul\":12887:13018   */\n      tag_659\n        /* \"#utility.yul\":13013:13017   */\n      dup2\n        /* \"#utility.yul\":12887:13018   */\n      tag_491\n      jump\t// in\n    tag_659:\n        /* \"#utility.yul\":12879:13018   */\n      swap1\n      pop\n        /* \"#utility.yul\":12606:13025   */\n      swap2\n      swap1\n      pop\n      jump\t// out\n        /* \"#utility.yul\":13031:13168   */\n    tag_492:\n        /* \"#utility.yul\":13085:13090   */\n      0x00\n        /* \"#utility.yul\":13116:13122   */\n      dup2\n        /* \"#utility.yul\":13110:13123   */\n      mload\n        /* \"#utility.yul\":13101:13123   */\n      swap1\n      pop\n        /* \"#utility.yul\":13132:13162   */\n      tag_661\n        /* \"#utility.yul\":13156:13161   */\n      dup2\n        /* \"#utility.yul\":13132:13162   */\n      tag_466\n      jump\t// in\n    tag_661:\n        /* \"#utility.yul\":13031:13168   */\n      swap3\n      swap2\n      pop\n      pop\n      jump\t// out\n        /* \"#utility.yul\":13174:13519   */\n    tag_122:\n        /* \"#utility.yul\":13241:13247   */\n      0x00\n        /* \"#utility.yul\":13290:13292   */\n      0x20\n        /* \"#utility.yul\":13278:13287   */\n      dup3\n        /* \"#utility.yul\":13269:13276   */\n      dup5\n        /* \"#utility.yul\":13265:13288   */\n      sub\n        /* \"#utility.yul\":13261:13293   */\n      slt\n        /* \"#utility.yul\":13258:13377   */\n      iszero\n      tag_663\n      jumpi\n        /* \"#utility.yul\":13296:13375   */\n      tag_664\n      tag_452\n      jump\t// in\n    tag_664:\n        /* \"#utility.yul\":13258:13377   */\n    tag_663:\n        /* \"#utility.yul\":13416:13417   */\n      0x00\n        /* \"#utility.yul\":13441:13502   */\n      tag_665\n        /* \"#utility.yul\":13494:13501   */\n      dup5\n        /* \"#utility.yul\":13485:13491   */\n      dup3\n        /* \"#utility.yul\":13474:13483   */\n      dup6\n        /* \"#utility.yul\":13470:13492   */\n      add\n        /* \"#utility.yul\":13441:13502   */\n      tag_492\n      jump\t// in\n    tag_665:\n        /* \"#utility.yul\":13431:13502   */\n      swap2\n      pop\n        /* \"#utility.yul\":13387:13512   */\n      pop\n        /* \"#utility.yul\":13174:13519   */\n      swap3\n      swap2\n      pop\n      pop\n      jump\t// out\n        /* \"#utility.yul\":13525:13746   */\n    tag_493:\n        /* \"#utility.yul\":13665:13699   */\n      0x537943726f774261727465723a204261736520436f6e74726163742050617573\n        /* \"#utility.yul\":13661:13662   */\n      0x00\n        /* \"#utility.yul\":13653:13659   */\n      dup3\n        /* \"#utility.yul\":13649:13663   */\n      add\n        /* \"#utility.yul\":13642:13700   */\n      mstore\n        /* \"#utility.yul\":13734:13738   */\n      0x6564000000000000000000000000000000000000000000000000000000000000\n        /* \"#utility.yul\":13729:13731   */\n      0x20\n        /* \"#utility.yul\":13721:13727   */\n      dup3\n        /* \"#utility.yul\":13717:13732   */\n      add\n        /* \"#utility.yul\":13710:13739   */\n      mstore\n        /* \"#utility.yul\":13525:13746   */\n      pop\n      jump\t// out\n        /* \"#utility.yul\":13752:14118   */\n    tag_494:\n        /* \"#utility.yul\":13894:13897   */\n      0x00\n        /* \"#utility.yul\":13915:13982   */\n      tag_668\n        /* \"#utility.yul\":13979:13981   */\n      0x22\n        /* \"#utility.yul\":13974:13977   */\n      dup4\n        /* \"#utility.yul\":13915:13982   */\n      tag_487\n      jump\t// in\n    tag_668:\n        /* \"#utility.yul\":13908:13982   */\n      swap2\n      pop\n        /* \"#utility.yul\":13991:14084   */\n      tag_669\n        /* \"#utility.yul\":14080:14083   */\n      dup3\n        /* \"#utility.yul\":13991:14084   */\n      tag_493\n      jump\t// in\n    tag_669:\n        /* \"#utility.yul\":14109:14111   */\n      0x40\n        /* \"#utility.yul\":14104:14107   */\n      dup3\n        /* \"#utility.yul\":14100:14112   */\n      add\n        /* \"#utility.yul\":14093:14112   */\n      swap1\n      pop\n        /* \"#utility.yul\":13752:14118   */\n      swap2\n      swap1\n      pop\n      jump\t// out\n        /* \"#utility.yul\":14124:14543   */\n    tag_125:\n        /* \"#utility.yul\":14290:14294   */\n      0x00\n        /* \"#utility.yul\":14328:14330   */\n      0x20\n        /* \"#utility.yul\":14317:14326   */\n      dup3\n        /* \"#utility.yul\":14313:14331   */\n      add\n        /* \"#utility.yul\":14305:14331   */\n      swap1\n      pop\n        /* \"#utility.yul\":14377:14386   */\n      dup2\n        /* \"#utility.yul\":14371:14375   */\n      dup2\n        /* \"#utility.yul\":14367:14387   */\n      sub\n        /* \"#utility.yul\":14363:14364   */\n      0x00\n        /* \"#utility.yul\":14352:14361   */\n      dup4\n        /* \"#utility.yul\":14348:14365   */\n      add\n        /* \"#utility.yul\":14341:14388   */\n      mstore\n        /* \"#utility.yul\":14405:14536   */\n      tag_671\n        /* \"#utility.yul\":14531:14535   */\n      dup2\n        /* \"#utility.yul\":14405:14536   */\n      tag_494\n      jump\t// in\n    tag_671:\n        /* \"#utility.yul\":14397:14536   */\n      swap1\n      pop\n        /* \"#utility.yul\":14124:14543   */\n      swap2\n      swap1\n      pop\n      jump\t// out\n        /* \"#utility.yul\":14549:14769   */\n    tag_495:\n        /* \"#utility.yul\":14689:14723   */\n      0x537943726f774261727465723a20494e56414c49445f4241525445525f545950\n        /* \"#utility.yul\":14685:14686   */\n      0x00\n        /* \"#utility.yul\":14677:14683   */\n      dup3\n        /* \"#utility.yul\":14673:14687   */\n      add\n        /* \"#utility.yul\":14666:14724   */\n      mstore\n        /* \"#utility.yul\":14758:14761   */\n      0x4500000000000000000000000000000000000000000000000000000000000000\n        /* \"#utility.yul\":14753:14755   */\n      0x20\n        /* \"#utility.yul\":14745:14751   */\n      dup3\n        /* \"#utility.yul\":14741:14756   */\n      add\n        /* \"#utility.yul\":14734:14762   */\n      mstore\n        /* \"#utility.yul\":14549:14769   */\n      pop\n      jump\t// out\n        /* \"#utility.yul\":14775:15141   */\n    tag_496:\n        /* \"#utility.yul\":14917:14920   */\n      0x00\n        /* \"#utility.yul\":14938:15005   */\n      tag_674\n        /* \"#utility.yul\":15002:15004   */\n      0x21\n        /* \"#utility.yul\":14997:15000   */\n      dup4\n        /* \"#utility.yul\":14938:15005   */\n      tag_487\n      jump\t// in\n    tag_674:\n        /* \"#utility.yul\":14931:15005   */\n      swap2\n      pop\n        /* \"#utility.yul\":15014:15107   */\n      tag_675\n        /* \"#utility.yul\":15103:15106   */\n      dup3\n        /* \"#utility.yul\":15014:15107   */\n      tag_495\n      jump\t// in\n    tag_675:\n        /* \"#utility.yul\":15132:15134   */\n      0x40\n        /* \"#utility.yul\":15127:15130   */\n      dup3\n        /* \"#utility.yul\":15123:15135   */\n      add\n        /* \"#utility.yul\":15116:15135   */\n      swap1\n      pop\n        /* \"#utility.yul\":14775:15141   */\n      swap2\n      swap1\n      pop\n      jump\t// out\n        /* \"#utility.yul\":15147:15566   */\n    tag_134:\n        /* \"#utility.yul\":15313:15317   */\n      0x00\n        /* \"#utility.yul\":15351:15353   */\n      0x20\n        /* \"#utility.yul\":15340:15349   */\n      dup3\n        /* \"#utility.yul\":15336:15354   */\n      add\n        /* \"#utility.yul\":15328:15354   */\n      swap1\n      pop\n        /* \"#utility.yul\":15400:15409   */\n      dup2\n        /* \"#utility.yul\":15394:15398   */\n      dup2\n        /* \"#utility.yul\":15390:15410   */\n      sub\n        /* \"#utility.yul\":15386:15387   */\n      0x00\n        /* \"#utility.yul\":15375:15384   */\n      dup4\n        /* \"#utility.yul\":15371:15388   */\n      add\n        /* \"#utility.yul\":15364:15411   */\n      mstore\n        /* \"#utility.yul\":15428:15559   */\n      tag_677\n        /* \"#utility.yul\":15554:15558   */\n      dup2\n        /* \"#utility.yul\":15428:15559   */\n      tag_496\n      jump\t// in\n    tag_677:\n        /* \"#utility.yul\":15420:15559   */\n      swap1\n      pop\n        /* \"#utility.yul\":15147:15566   */\n      swap2\n      swap1\n      pop\n      jump\t// out\n        /* \"#utility.yul\":15572:15800   */\n    tag_497:\n        /* \"#utility.yul\":15712:15746   */\n      0x537943726f774261727465723a20414d4f554e545f4c4f5745525f5448414e5f\n        /* \"#utility.yul\":15708:15709   */\n      0x00\n        /* \"#utility.yul\":15700:15706   */\n      dup3\n        /* \"#utility.yul\":15696:15710   */\n      add\n        /* \"#utility.yul\":15689:15747   */\n      mstore\n        /* \"#utility.yul\":15781:15792   */\n      0x5245515552495245440000000000000000000000000000000000000000000000\n        /* \"#utility.yul\":15776:15778   */\n      0x20\n        /* \"#utility.yul\":15768:15774   */\n      dup3\n        /* \"#utility.yul\":15764:15779   */\n      add\n        /* \"#utility.yul\":15757:15793   */\n      mstore\n        /* \"#utility.yul\":15572:15800   */\n      pop\n      jump\t// out\n        /* \"#utility.yul\":15806:16172   */\n    tag_498:\n        /* \"#utility.yul\":15948:15951   */\n      0x00\n        /* \"#utility.yul\":15969:16036   */\n      tag_680\n        /* \"#utility.yul\":16033:16035   */\n      0x29\n        /* \"#utility.yul\":16028:16031   */\n      dup4\n        /* \"#utility.yul\":15969:16036   */\n      tag_487\n      jump\t// in\n    tag_680:\n        /* \"#utility.yul\":15962:16036   */\n      swap2\n      pop\n        /* \"#utility.yul\":16045:16138   */\n      tag_681\n        /* \"#utility.yul\":16134:16137   */\n      dup3\n        /* \"#utility.yul\":16045:16138   */\n      tag_497\n      jump\t// in\n    tag_681:\n        /* \"#utility.yul\":16163:16165   */\n      0x40\n        /* \"#utility.yul\":16158:16161   */\n      dup3\n        /* \"#utility.yul\":16154:16166   */\n      add\n        /* \"#utility.yul\":16147:16166   */\n      swap1\n      pop\n        /* \"#utility.yul\":15806:16172   */\n      swap2\n      swap1\n      pop\n      jump\t// out\n        /* \"#utility.yul\":16178:16597   */\n    tag_139:\n        /* \"#utility.yul\":16344:16348   */\n      0x00\n        /* \"#utility.yul\":16382:16384   */\n      0x20\n        /* \"#utility.yul\":16371:16380   */\n      dup3\n        /* \"#utility.yul\":16367:16385   */\n      add\n        /* \"#utility.yul\":16359:16385   */\n      swap1\n      pop\n        /* \"#utility.yul\":16431:16440   */\n      dup2\n        /* \"#utility.yul\":16425:16429   */\n      dup2\n        /* \"#utility.yul\":16421:16441   */\n      sub\n        /* \"#utility.yul\":16417:16418   */\n      0x00\n        /* \"#utility.yul\":16406:16415   */\n      dup4\n        /* \"#utility.yul\":16402:16419   */\n      add\n        /* \"#utility.yul\":16395:16442   */\n      mstore\n        /* \"#utility.yul\":16459:16590   */\n      tag_683\n        /* \"#utility.yul\":16585:16589   */\n      dup2\n        /* \"#utility.yul\":16459:16590   */\n      tag_498\n      jump\t// in\n    tag_683:\n        /* \"#utility.yul\":16451:16590   */\n      swap1\n      pop\n        /* \"#utility.yul\":16178:16597   */\n      swap2\n      swap1\n      pop\n      jump\t// out\n        /* \"#utility.yul\":16603:16773   */\n    tag_499:\n        /* \"#utility.yul\":16743:16765   */\n      0x537943726f774261727465723a20414354495645000000000000000000000000\n        /* \"#utility.yul\":16739:16740   */\n      0x00\n        /* \"#utility.yul\":16731:16737   */\n      dup3\n        /* \"#utility.yul\":16727:16741   */\n      add\n        /* \"#utility.yul\":16720:16766   */\n      mstore\n        /* \"#utility.yul\":16603:16773   */\n      pop\n      jump\t// out\n        /* \"#utility.yul\":16779:17145   */\n    tag_500:\n        /* \"#utility.yul\":16921:16924   */\n      0x00\n        /* \"#utility.yul\":16942:17009   */\n      tag_686\n        /* \"#utility.yul\":17006:17008   */\n      0x14\n        /* \"#utility.yul\":17001:17004   */\n      dup4\n        /* \"#utility.yul\":16942:17009   */\n      tag_487\n      jump\t// in\n    tag_686:\n        /* \"#utility.yul\":16935:17009   */\n      swap2\n      pop\n        /* \"#utility.yul\":17018:17111   */\n      tag_687\n        /* \"#utility.yul\":17107:17110   */\n      dup3\n        /* \"#utility.yul\":17018:17111   */\n      tag_499\n      jump\t// in\n    tag_687:\n        /* \"#utility.yul\":17136:17138   */\n      0x20\n        /* \"#utility.yul\":17131:17134   */\n      dup3\n        /* \"#utility.yul\":17127:17139   */\n      add\n        /* \"#utility.yul\":17120:17139   */\n      swap1\n      pop\n        /* \"#utility.yul\":16779:17145   */\n      swap2\n      swap1\n      pop\n      jump\t// out\n        /* \"#utility.yul\":17151:17570   */\n    tag_172:\n        /* \"#utility.yul\":17317:17321   */\n      0x00\n        /* \"#utility.yul\":17355:17357   */\n      0x20\n        /* \"#utility.yul\":17344:17353   */\n      dup3\n        /* \"#utility.yul\":17340:17358   */\n      add\n        /* \"#utility.yul\":17332:17358   */\n      swap1\n      pop\n        /* \"#utility.yul\":17404:17413   */\n      dup2\n        /* \"#utility.yul\":17398:17402   */\n      dup2\n        /* \"#utility.yul\":17394:17414   */\n      sub\n        /* \"#utility.yul\":17390:17391   */\n      0x00\n        /* \"#utility.yul\":17379:17388   */\n      dup4\n        /* \"#utility.yul\":17375:17392   */\n      add\n        /* \"#utility.yul\":17368:17415   */\n      mstore\n        /* \"#utility.yul\":17432:17563   */\n      tag_689\n        /* \"#utility.yul\":17558:17562   */\n      dup2\n        /* \"#utility.yul\":17432:17563   */\n      tag_500\n      jump\t// in\n    tag_689:\n        /* \"#utility.yul\":17424:17563   */\n      swap1\n      pop\n        /* \"#utility.yul\":17151:17570   */\n      swap2\n      swap1\n      pop\n      jump\t// out\n        /* \"#utility.yul\":17576:17758   */\n    tag_501:\n        /* \"#utility.yul\":17716:17750   */\n      0x4f776e61626c653a2063616c6c6572206973206e6f7420746865206f776e6572\n        /* \"#utility.yul\":17712:17713   */\n      0x00\n        /* \"#utility.yul\":17704:17710   */\n      dup3\n        /* \"#utility.yul\":17700:17714   */\n      add\n        /* \"#utility.yul\":17693:17751   */\n      mstore\n        /* \"#utility.yul\":17576:17758   */\n      pop\n      jump\t// out\n        /* \"#utility.yul\":17764:18130   */\n    tag_502:\n        /* \"#utility.yul\":17906:17909   */\n      0x00\n        /* \"#utility.yul\":17927:17994   */\n      tag_692\n        /* \"#utility.yul\":17991:17993   */\n      0x20\n        /* \"#utility.yul\":17986:17989   */\n      dup4\n        /* \"#utility.yul\":17927:17994   */\n      tag_487\n      jump\t// in\n    tag_692:\n        /* \"#utility.yul\":17920:17994   */\n      swap2\n      pop\n        /* \"#utility.yul\":18003:18096   */\n      tag_693\n        /* \"#utility.yul\":18092:18095   */\n      dup3\n        /* \"#utility.yul\":18003:18096   */\n      tag_501\n      jump\t// in\n    tag_693:\n        /* \"#utility.yul\":18121:18123   */\n      0x20\n        /* \"#utility.yul\":18116:18119   */\n      dup3\n        /* \"#utility.yul\":18112:18124   */\n      add\n        /* \"#utility.yul\":18105:18124   */\n      swap1\n      pop\n        /* \"#utility.yul\":17764:18130   */\n      swap2\n      swap1\n      pop\n      jump\t// out\n        /* \"#utility.yul\":18136:18555   */\n    tag_182:\n        /* \"#utility.yul\":18302:18306   */\n      0x00\n        /* \"#utility.yul\":18340:18342   */\n      0x20\n        /* \"#utility.yul\":18329:18338   */\n      dup3\n        /* \"#utility.yul\":18325:18343   */\n      add\n        /* \"#utility.yul\":18317:18343   */\n      swap1\n      pop\n        /* \"#utility.yul\":18389:18398   */\n      dup2\n        /* \"#utility.yul\":18383:18387   */\n      dup2\n        /* \"#utility.yul\":18379:18399   */\n      sub\n        /* \"#utility.yul\":18375:18376   */\n      0x00\n        /* \"#utility.yul\":18364:18373   */\n      dup4\n        /* \"#utility.yul\":18360:18377   */\n      add\n        /* \"#utility.yul\":18353:18400   */\n      mstore\n        /* \"#utility.yul\":18417:18548   */\n      tag_695\n        /* \"#utility.yul\":18543:18547   */\n      dup2\n        /* \"#utility.yul\":18417:18548   */\n      tag_502\n      jump\t// in\n    tag_695:\n        /* \"#utility.yul\":18409:18548   */\n      swap1\n      pop\n        /* \"#utility.yul\":18136:18555   */\n      swap2\n      swap1\n      pop\n      jump\t// out\n        /* \"#utility.yul\":18561:18704   */\n    tag_503:\n        /* \"#utility.yul\":18618:18623   */\n      0x00\n        /* \"#utility.yul\":18649:18655   */\n      dup2\n        /* \"#utility.yul\":18643:18656   */\n      mload\n        /* \"#utility.yul\":18634:18656   */\n      swap1\n      pop\n        /* \"#utility.yul\":18665:18698   */\n      tag_697\n        /* \"#utility.yul\":18692:18697   */\n      dup2\n        /* \"#utility.yul\":18665:18698   */\n      tag_455\n      jump\t// in\n    tag_697:\n        /* \"#utility.yul\":18561:18704   */\n      swap3\n      swap2\n      pop\n      pop\n      jump\t// out\n        /* \"#utility.yul\":18710:19061   */\n    tag_188:\n        /* \"#utility.yul\":18780:18786   */\n      0x00\n        /* \"#utility.yul\":18829:18831   */\n      0x20\n        /* \"#utility.yul\":18817:18826   */\n      dup3\n        /* \"#utility.yul\":18808:18815   */\n      dup5\n        /* \"#utility.yul\":18804:18827   */\n      sub\n        /* \"#utility.yul\":18800:18832   */\n      slt\n        /* \"#utility.yul\":18797:18916   */\n      iszero\n      tag_699\n      jumpi\n        /* \"#utility.yul\":18835:18914   */\n      tag_700\n      tag_452\n      jump\t// in\n    tag_700:\n        /* \"#utility.yul\":18797:18916   */\n    tag_699:\n        /* \"#utility.yul\":18955:18956   */\n      0x00\n        /* \"#utility.yul\":18980:19044   */\n      tag_701\n        /* \"#utility.yul\":19036:19043   */\n      dup5\n        /* \"#utility.yul\":19027:19033   */\n      dup3\n        /* \"#utility.yul\":19016:19025   */\n      dup6\n        /* \"#utility.yul\":19012:19034   */\n      add\n        /* \"#utility.yul\":18980:19044   */\n      tag_503\n      jump\t// in\n    tag_701:\n        /* \"#utility.yul\":18970:19044   */\n      swap2\n      pop\n        /* \"#utility.yul\":18926:19054   */\n      pop\n        /* \"#utility.yul\":18710:19061   */\n      swap3\n      swap2\n      pop\n      pop\n      jump\t// out\n        /* \"#utility.yul\":19067:19620   */\n    tag_222:\n        /* \"#utility.yul\":19244:19248   */\n      0x00\n        /* \"#utility.yul\":19282:19285   */\n      0x80\n        /* \"#utility.yul\":19271:19280   */\n      dup3\n        /* \"#utility.yul\":19267:19286   */\n      add\n        /* \"#utility.yul\":19259:19286   */\n      swap1\n      pop\n        /* \"#utility.yul\":19296:19367   */\n      tag_703\n        /* \"#utility.yul\":19364:19365   */\n      0x00\n        /* \"#utility.yul\":19353:19362   */\n      dup4\n        /* \"#utility.yul\":19349:19366   */\n      add\n        /* \"#utility.yul\":19340:19346   */\n      dup8\n        /* \"#utility.yul\":19296:19367   */\n      tag_472\n      jump\t// in\n    tag_703:\n        /* \"#utility.yul\":19377:19449   */\n      tag_704\n        /* \"#utility.yul\":19445:19447   */\n      0x20\n        /* \"#utility.yul\":19434:19443   */\n      dup4\n        /* \"#utility.yul\":19430:19448   */\n      add\n        /* \"#utility.yul\":19421:19427   */\n      dup7\n        /* \"#utility.yul\":19377:19449   */\n      tag_472\n      jump\t// in\n    tag_704:\n        /* \"#utility.yul\":19459:19531   */\n      tag_705\n        /* \"#utility.yul\":19527:19529   */\n      0x40\n        /* \"#utility.yul\":19516:19525   */\n      dup4\n        /* \"#utility.yul\":19512:19530   */\n      add\n        /* \"#utility.yul\":19503:19509   */\n      dup6\n        /* \"#utility.yul\":19459:19531   */\n      tag_457\n      jump\t// in\n    tag_705:\n        /* \"#utility.yul\":19541:19613   */\n      tag_706\n        /* \"#utility.yul\":19609:19611   */\n      0x60\n        /* \"#utility.yul\":19598:19607   */\n      dup4\n        /* \"#utility.yul\":19594:19612   */\n      add\n        /* \"#utility.yul\":19585:19591   */\n      dup5\n        /* \"#utility.yul\":19541:19613   */\n      tag_457\n      jump\t// in\n    tag_706:\n        /* \"#utility.yul\":19067:19620   */\n      swap6\n      swap5\n      pop\n      pop\n      pop\n      pop\n      pop\n      jump\t// out\n        /* \"#utility.yul\":19626:19799   */\n    tag_504:\n        /* \"#utility.yul\":19766:19791   */\n      0x537943726f774261727465723a20464f5242494444454e000000000000000000\n        /* \"#utility.yul\":19762:19763   */\n      0x00\n        /* \"#utility.yul\":19754:19760   */\n      dup3\n        /* \"#utility.yul\":19750:19764   */\n      add\n        /* \"#utility.yul\":19743:19792   */\n      mstore\n        /* \"#utility.yul\":19626:19799   */\n      pop\n      jump\t// out\n        /* \"#utility.yul\":19805:20171   */\n    tag_505:\n        /* \"#utility.yul\":19947:19950   */\n      0x00\n        /* \"#utility.yul\":19968:20035   */\n      tag_709\n        /* \"#utility.yul\":20032:20034   */\n      0x17\n        /* \"#utility.yul\":20027:20030   */\n      dup4\n        /* \"#utility.yul\":19968:20035   */\n      tag_487\n      jump\t// in\n    tag_709:\n        /* \"#utility.yul\":19961:20035   */\n      swap2\n      pop\n        /* \"#utility.yul\":20044:20137   */\n      tag_710\n        /* \"#utility.yul\":20133:20136   */\n      dup3\n        /* \"#utility.yul\":20044:20137   */\n      tag_504\n      jump\t// in\n    tag_710:\n        /* \"#utility.yul\":20162:20164   */\n      0x20\n        /* \"#utility.yul\":20157:20160   */\n      dup3\n        /* \"#utility.yul\":20153:20165   */\n      add\n        /* \"#utility.yul\":20146:20165   */\n      swap1\n      pop\n        /* \"#utility.yul\":19805:20171   */\n      swap2\n      swap1\n      pop\n      jump\t// out\n        /* \"#utility.yul\":20177:20596   */\n    tag_259:\n        /* \"#utility.yul\":20343:20347   */\n      0x00\n        /* \"#utility.yul\":20381:20383   */\n      0x20\n        /* \"#utility.yul\":20370:20379   */\n      dup3\n        /* \"#utility.yul\":20366:20384   */\n      add\n        /* \"#utility.yul\":20358:20384   */\n      swap1\n      pop\n        /* \"#utility.yul\":20430:20439   */\n      dup2\n        /* \"#utility.yul\":20424:20428   */\n      dup2\n        /* \"#utility.yul\":20420:20440   */\n      sub\n        /* \"#utility.yul\":20416:20417   */\n      0x00\n        /* \"#utility.yul\":20405:20414   */\n      dup4\n        /* \"#utility.yul\":20401:20418   */\n      add\n        /* \"#utility.yul\":20394:20441   */\n      mstore\n        /* \"#utility.yul\":20458:20589   */\n      tag_712\n        /* \"#utility.yul\":20584:20588   */\n      dup2\n        /* \"#utility.yul\":20458:20589   */\n      tag_505\n      jump\t// in\n    tag_712:\n        /* \"#utility.yul\":20450:20589   */\n      swap1\n      pop\n        /* \"#utility.yul\":20177:20596   */\n      swap2\n      swap1\n      pop\n      jump\t// out\n        /* \"#utility.yul\":20602:20822   */\n    tag_506:\n        /* \"#utility.yul\":20742:20776   */\n      0x537943726f774261727465723a20414c52454144595f494e495449414c495a45\n        /* \"#utility.yul\":20738:20739   */\n      0x00\n        /* \"#utility.yul\":20730:20736   */\n      dup3\n        /* \"#utility.yul\":20726:20740   */\n      add\n        /* \"#utility.yul\":20719:20777   */\n      mstore\n        /* \"#utility.yul\":20811:20814   */\n      0x4400000000000000000000000000000000000000000000000000000000000000\n        /* \"#utility.yul\":20806:20808   */\n      0x20\n        /* \"#utility.yul\":20798:20804   */\n      dup3\n        /* \"#utility.yul\":20794:20809   */\n      add\n        /* \"#utility.yul\":20787:20815   */\n      mstore\n        /* \"#utility.yul\":20602:20822   */\n      pop\n      jump\t// out\n        /* \"#utility.yul\":20828:21194   */\n    tag_507:\n        /* \"#utility.yul\":20970:20973   */\n      0x00\n        /* \"#utility.yul\":20991:21058   */\n      tag_715\n        /* \"#utility.yul\":21055:21057   */\n      0x21\n        /* \"#utility.yul\":21050:21053   */\n      dup4\n        /* \"#utility.yul\":20991:21058   */\n      tag_487\n      jump\t// in\n    tag_715:\n        /* \"#utility.yul\":20984:21058   */\n      swap2\n      pop\n        /* \"#utility.yul\":21067:21160   */\n      tag_716\n        /* \"#utility.yul\":21156:21159   */\n      dup3\n        /* \"#utility.yul\":21067:21160   */\n      tag_506\n      jump\t// in\n    tag_716:\n        /* \"#utility.yul\":21185:21187   */\n      0x40\n        /* \"#utility.yul\":21180:21183   */\n      dup3\n        /* \"#utility.yul\":21176:21188   */\n      add\n        /* \"#utility.yul\":21169:21188   */\n      swap1\n      pop\n        /* \"#utility.yul\":20828:21194   */\n      swap2\n      swap1\n      pop\n      jump\t// out\n        /* \"#utility.yul\":21200:21619   */\n    tag_262:\n        /* \"#utility.yul\":21366:21370   */\n      0x00\n        /* \"#utility.yul\":21404:21406   */\n      0x20\n        /* \"#utility.yul\":21393:21402   */\n      dup3\n        /* \"#utility.yul\":21389:21407   */\n      add\n        /* \"#utility.yul\":21381:21407   */\n      swap1\n      pop\n        /* \"#utility.yul\":21453:21462   */\n      dup2\n        /* \"#utility.yul\":21447:21451   */\n      dup2\n        /* \"#utility.yul\":21443:21463   */\n      sub\n        /* \"#utility.yul\":21439:21440   */\n      0x00\n        /* \"#utility.yul\":21428:21437   */\n      dup4\n        /* \"#utility.yul\":21424:21441   */\n      add\n        /* \"#utility.yul\":21417:21464   */\n      mstore\n        /* \"#utility.yul\":21481:21612   */\n      tag_718\n        /* \"#utility.yul\":21607:21611   */\n      dup2\n        /* \"#utility.yul\":21481:21612   */\n      tag_507\n      jump\t// in\n    tag_718:\n        /* \"#utility.yul\":21473:21612   */\n      swap1\n      pop\n        /* \"#utility.yul\":21200:21619   */\n      swap2\n      swap1\n      pop\n      jump\t// out\n        /* \"#utility.yul\":21625:21802   */\n    tag_508:\n        /* \"#utility.yul\":21765:21794   */\n      0x537943726f774261727465723a20504153545f444541444c494e450000000000\n        /* \"#utility.yul\":21761:21762   */\n      0x00\n        /* \"#utility.yul\":21753:21759   */\n      dup3\n        /* \"#utility.yul\":21749:21763   */\n      add\n        /* \"#utility.yul\":21742:21795   */\n      mstore\n        /* \"#utility.yul\":21625:21802   */\n      pop\n      jump\t// out\n        /* \"#utility.yul\":21808:22174   */\n    tag_509:\n        /* \"#utility.yul\":21950:21953   */\n      0x00\n        /* \"#utility.yul\":21971:22038   */\n      tag_721\n        /* \"#utility.yul\":22035:22037   */\n      0x1b\n        /* \"#utility.yul\":22030:22033   */\n      dup4\n        /* \"#utility.yul\":21971:22038   */\n      tag_487\n      jump\t// in\n    tag_721:\n        /* \"#utility.yul\":21964:22038   */\n      swap2\n      pop\n        /* \"#utility.yul\":22047:22140   */\n      tag_722\n        /* \"#utility.yul\":22136:22139   */\n      dup3\n        /* \"#utility.yul\":22047:22140   */\n      tag_508\n      jump\t// in\n    tag_722:\n        /* \"#utility.yul\":22165:22167   */\n      0x20\n        /* \"#utility.yul\":22160:22163   */\n      dup3\n        /* \"#utility.yul\":22156:22168   */\n      add\n        /* \"#utility.yul\":22149:22168   */\n      swap1\n      pop\n        /* \"#utility.yul\":21808:22174   */\n      swap2\n      swap1\n      pop\n      jump\t// out\n        /* \"#utility.yul\":22180:22599   */\n    tag_265:\n        /* \"#utility.yul\":22346:22350   */\n      0x00\n        /* \"#utility.yul\":22384:22386   */\n      0x20\n        /* \"#utility.yul\":22373:22382   */\n      dup3\n        /* \"#utility.yul\":22369:22387   */\n      add\n        /* \"#utility.yul\":22361:22387   */\n      swap1\n      pop\n        /* \"#utility.yul\":22433:22442   */\n      dup2\n        /* \"#utility.yul\":22427:22431   */\n      dup2\n        /* \"#utility.yul\":22423:22443   */\n      sub\n        /* \"#utility.yul\":22419:22420   */\n      0x00\n        /* \"#utility.yul\":22408:22417   */\n      dup4\n        /* \"#utility.yul\":22404:22421   */\n      add\n        /* \"#utility.yul\":22397:22444   */\n      mstore\n        /* \"#utility.yul\":22461:22592   */\n      tag_724\n        /* \"#utility.yul\":22587:22591   */\n      dup2\n        /* \"#utility.yul\":22461:22592   */\n      tag_509\n      jump\t// in\n    tag_724:\n        /* \"#utility.yul\":22453:22592   */\n      swap1\n      pop\n        /* \"#utility.yul\":22180:22599   */\n      swap2\n      swap1\n      pop\n      jump\t// out\n        /* \"#utility.yul\":22605:22826   */\n    tag_510:\n        /* \"#utility.yul\":22745:22779   */\n      0x537943726f774261727465723a20494e53554646494349454e545f4445504f53\n        /* \"#utility.yul\":22741:22742   */\n      0x00\n        /* \"#utility.yul\":22733:22739   */\n      dup3\n        /* \"#utility.yul\":22729:22743   */\n      add\n        /* \"#utility.yul\":22722:22780   */\n      mstore\n        /* \"#utility.yul\":22814:22818   */\n      0x4954000000000000000000000000000000000000000000000000000000000000\n        /* \"#utility.yul\":22809:22811   */\n      0x20\n        /* \"#utility.yul\":22801:22807   */\n      dup3\n        /* \"#utility.yul\":22797:22812   */\n      add\n        /* \"#utility.yul\":22790:22819   */\n      mstore\n        /* \"#utility.yul\":22605:22826   */\n      pop\n      jump\t// out\n        /* \"#utility.yul\":22832:23198   */\n    tag_511:\n        /* \"#utility.yul\":22974:22977   */\n      0x00\n        /* \"#utility.yul\":22995:23062   */\n      tag_727\n        /* \"#utility.yul\":23059:23061   */\n      0x22\n        /* \"#utility.yul\":23054:23057   */\n      dup4\n        /* \"#utility.yul\":22995:23062   */\n      tag_487\n      jump\t// in\n    tag_727:\n        /* \"#utility.yul\":22988:23062   */\n      swap2\n      pop\n        /* \"#utility.yul\":23071:23164   */\n      tag_728\n        /* \"#utility.yul\":23160:23163   */\n      dup3\n        /* \"#utility.yul\":23071:23164   */\n      tag_510\n      jump\t// in\n    tag_728:\n        /* \"#utility.yul\":23189:23191   */\n      0x40\n        /* \"#utility.yul\":23184:23187   */\n      dup3\n        /* \"#utility.yul\":23180:23192   */\n      add\n        /* \"#utility.yul\":23173:23192   */\n      swap1\n      pop\n        /* \"#utility.yul\":22832:23198   */\n      swap2\n      swap1\n      pop\n      jump\t// out\n        /* \"#utility.yul\":23204:23623   */\n    tag_272:\n        /* \"#utility.yul\":23370:23374   */\n      0x00\n        /* \"#utility.yul\":23408:23410   */\n      0x20\n        /* \"#utility.yul\":23397:23406   */\n      dup3\n        /* \"#utility.yul\":23393:23411   */\n      add\n        /* \"#utility.yul\":23385:23411   */\n      swap1\n      pop\n        /* \"#utility.yul\":23457:23466   */\n      dup2\n        /* \"#utility.yul\":23451:23455   */\n      dup2\n        /* \"#utility.yul\":23447:23467   */\n      sub\n        /* \"#utility.yul\":23443:23444   */\n      0x00\n        /* \"#utility.yul\":23432:23441   */\n      dup4\n        /* \"#utility.yul\":23428:23445   */\n      add\n        /* \"#utility.yul\":23421:23468   */\n      mstore\n        /* \"#utility.yul\":23485:23616   */\n      tag_730\n        /* \"#utility.yul\":23611:23615   */\n      dup2\n        /* \"#utility.yul\":23485:23616   */\n      tag_511\n      jump\t// in\n    tag_730:\n        /* \"#utility.yul\":23477:23616   */\n      swap1\n      pop\n        /* \"#utility.yul\":23204:23623   */\n      swap2\n      swap1\n      pop\n      jump\t// out\n        /* \"#utility.yul\":23629:23809   */\n    tag_512:\n        /* \"#utility.yul\":23677:23754   */\n      0x4e487b7100000000000000000000000000000000000000000000000000000000\n        /* \"#utility.yul\":23674:23675   */\n      0x00\n        /* \"#utility.yul\":23667:23755   */\n      mstore\n        /* \"#utility.yul\":23774:23778   */\n      0x11\n        /* \"#utility.yul\":23771:23772   */\n      0x04\n        /* \"#utility.yul\":23764:23779   */\n      mstore\n        /* \"#utility.yul\":23798:23802   */\n      0x24\n        /* \"#utility.yul\":23795:23796   */\n      0x00\n        /* \"#utility.yul\":23788:23803   */\n      revert\n        /* \"#utility.yul\":23815:24163   */\n    tag_290:\n        /* \"#utility.yul\":23855:23862   */\n      0x00\n        /* \"#utility.yul\":23878:23898   */\n      tag_733\n        /* \"#utility.yul\":23896:23897   */\n      dup3\n        /* \"#utility.yul\":23878:23898   */\n      tag_454\n      jump\t// in\n    tag_733:\n        /* \"#utility.yul\":23873:23898   */\n      swap2\n      pop\n        /* \"#utility.yul\":23912:23932   */\n      tag_734\n        /* \"#utility.yul\":23930:23931   */\n      dup4\n        /* \"#utility.yul\":23912:23932   */\n      tag_454\n      jump\t// in\n    tag_734:\n        /* \"#utility.yul\":23907:23932   */\n      swap3\n      pop\n        /* \"#utility.yul\":24100:24101   */\n      dup2\n        /* \"#utility.yul\":24032:24098   */\n      0xffffffffffffffffffffffffffffffffffffffffffffffffffffffffffffffff\n        /* \"#utility.yul\":24028:24102   */\n      div\n        /* \"#utility.yul\":24025:24026   */\n      dup4\n        /* \"#utility.yul\":24022:24103   */\n      gt\n        /* \"#utility.yul\":24017:24018   */\n      dup3\n        /* \"#utility.yul\":24010:24019   */\n      iszero\n        /* \"#utility.yul\":24003:24020   */\n      iszero\n        /* \"#utility.yul\":23999:24104   */\n      and\n        /* \"#utility.yul\":23996:24127   */\n      iszero\n      tag_735\n      jumpi\n        /* \"#utility.yul\":24107:24125   */\n      tag_736\n      tag_512\n      jump\t// in\n    tag_736:\n        /* \"#utility.yul\":23996:24127   */\n    tag_735:\n        /* \"#utility.yul\":24155:24156   */\n      dup3\n        /* \"#utility.yul\":24152:24153   */\n      dup3\n        /* \"#utility.yul\":24148:24157   */\n      mul\n        /* \"#utility.yul\":24137:24157   */\n      swap1\n      pop\n        /* \"#utility.yul\":23815:24163   */\n      swap3\n      swap2\n      pop\n      pop\n      jump\t// out\n        /* \"#utility.yul\":24169:24349   */\n    tag_513:\n        /* \"#utility.yul\":24217:24294   */\n      0x4e487b7100000000000000000000000000000000000000000000000000000000\n        /* \"#utility.yul\":24214:24215   */\n      0x00\n        /* \"#utility.yul\":24207:24295   */\n      mstore\n        /* \"#utility.yul\":24314:24318   */\n      0x12\n        /* \"#utility.yul\":24311:24312   */\n      0x04\n        /* \"#utility.yul\":24304:24319   */\n      mstore\n        /* \"#utility.yul\":24338:24342   */\n      0x24\n        /* \"#utility.yul\":24335:24336   */\n      0x00\n        /* \"#utility.yul\":24328:24343   */\n      revert\n        /* \"#utility.yul\":24355:24540   */\n    tag_292:\n        /* \"#utility.yul\":24395:24396   */\n      0x00\n        /* \"#utility.yul\":24412:24432   */\n      tag_739\n        /* \"#utility.yul\":24430:24431   */\n      dup3\n        /* \"#utility.yul\":24412:24432   */\n      tag_454\n      jump\t// in\n    tag_739:\n        /* \"#utility.yul\":24407:24432   */\n      swap2\n      pop\n        /* \"#utility.yul\":24446:24466   */\n      tag_740\n        /* \"#utility.yul\":24464:24465   */\n      dup4\n        /* \"#utility.yul\":24446:24466   */\n      tag_454\n      jump\t// in\n    tag_740:\n        /* \"#utility.yul\":24441:24466   */\n      swap3\n      pop\n        /* \"#utility.yul\":24485:24486   */\n      dup3\n        /* \"#utility.yul\":24475:24510   */\n      tag_741\n      jumpi\n        /* \"#utility.yul\":24490:24508   */\n      tag_742\n      tag_513\n      jump\t// in\n    tag_742:\n        /* \"#utility.yul\":24475:24510   */\n    tag_741:\n        /* \"#utility.yul\":24532:24533   */\n      dup3\n        /* \"#utility.yul\":24529:24530   */\n      dup3\n        /* \"#utility.yul\":24525:24534   */\n      div\n        /* \"#utility.yul\":24520:24534   */\n      swap1\n      pop\n        /* \"#utility.yul\":24355:24540   */\n      swap3\n      swap2\n      pop\n      pop\n      jump\t// out\n        /* \"#utility.yul\":24546:24726   */\n    tag_299:\n        /* \"#utility.yul\":24594:24671   */\n      0x4e487b7100000000000000000000000000000000000000000000000000000000\n        /* \"#utility.yul\":24591:24592   */\n      0x00\n        /* \"#utility.yul\":24584:24672   */\n      mstore\n        /* \"#utility.yul\":24691:24695   */\n      0x41\n        /* \"#utility.yul\":24688:24689   */\n      0x04\n        /* \"#utility.yul\":24681:24696   */\n      mstore\n        /* \"#utility.yul\":24715:24719   */\n      0x24\n        /* \"#utility.yul\":24712:24713   */\n      0x00\n        /* \"#utility.yul\":24705:24720   */\n      revert\n        /* \"#utility.yul\":24732:24912   */\n    tag_312:\n        /* \"#utility.yul\":24780:24857   */\n      0x4e487b7100000000000000000000000000000000000000000000000000000000\n        /* \"#utility.yul\":24777:24778   */\n      0x00\n        /* \"#utility.yul\":24770:24858   */\n      mstore\n        /* \"#utility.yul\":24877:24881   */\n      0x32\n        /* \"#utility.yul\":24874:24875   */\n      0x04\n        /* \"#utility.yul\":24867:24882   */\n      mstore\n        /* \"#utility.yul\":24901:24905   */\n      0x24\n        /* \"#utility.yul\":24898:24899   */\n      0x00\n        /* \"#utility.yul\":24891:24906   */\n      revert\n        /* \"#utility.yul\":24918:25151   */\n    tag_327:\n        /* \"#utility.yul\":24957:24960   */\n      0x00\n        /* \"#utility.yul\":24980:25004   */\n      tag_746\n        /* \"#utility.yul\":24998:25003   */\n      dup3\n        /* \"#utility.yul\":24980:25004   */\n      tag_454\n      jump\t// in\n    tag_746:\n        /* \"#utility.yul\":24971:25004   */\n      swap2\n      pop\n        /* \"#utility.yul\":25026:25092   */\n      0xffffffffffffffffffffffffffffffffffffffffffffffffffffffffffffffff\n        /* \"#utility.yul\":25019:25024   */\n      dup3\n        /* \"#utility.yul\":25016:25093   */\n      sub\n        /* \"#utility.yul\":25013:25116   */\n      tag_747\n      jumpi\n        /* \"#utility.yul\":25096:25114   */\n      tag_748\n      tag_512\n      jump\t// in\n    tag_748:\n        /* \"#utility.yul\":25013:25116   */\n    tag_747:\n        /* \"#utility.yul\":25143:25144   */\n      0x01\n        /* \"#utility.yul\":25136:25141   */\n      dup3\n        /* \"#utility.yul\":25132:25145   */\n      add\n        /* \"#utility.yul\":25125:25145   */\n      swap1\n      pop\n        /* \"#utility.yul\":24918:25151   */\n      swap2\n      swap1\n      pop\n      jump\t// out\n        /* \"#utility.yul\":25157:25382   */\n    tag_514:\n        /* \"#utility.yul\":25297:25331   */\n      0x4f776e61626c653a206e6577206f776e657220697320746865207a65726f2061\n        /* \"#utility.yul\":25293:25294   */\n      0x00\n        /* \"#utility.yul\":25285:25291   */\n      dup3\n        /* \"#utility.yul\":25281:25295   */\n      add\n        /* \"#utility.yul\":25274:25332   */\n      mstore\n        /* \"#utility.yul\":25366:25374   */\n      0x6464726573730000000000000000000000000000000000000000000000000000\n        /* \"#utility.yul\":25361:25363   */\n      0x20\n        /* \"#utility.yul\":25353:25359   */\n      dup3\n        /* \"#utility.yul\":25349:25364   */\n      add\n        /* \"#utility.yul\":25342:25375   */\n      mstore\n        /* \"#utility.yul\":25157:25382   */\n      pop\n      jump\t// out\n        /* \"#utility.yul\":25388:25754   */\n    tag_515:\n        /* \"#utility.yul\":25530:25533   */\n      0x00\n        /* \"#utility.yul\":25551:25618   */\n      tag_751\n        /* \"#utility.yul\":25615:25617   */\n      0x26\n        /* \"#utility.yul\":25610:25613   */\n      dup4\n        /* \"#utility.yul\":25551:25618   */\n      tag_487\n      jump\t// in\n    tag_751:\n        /* \"#utility.yul\":25544:25618   */\n      swap2\n      pop\n        /* \"#utility.yul\":25627:25720   */\n      tag_752\n        /* \"#utility.yul\":25716:25719   */\n      dup3\n        /* \"#utility.yul\":25627:25720   */\n      tag_514\n      jump\t// in\n    tag_752:\n        /* \"#utility.yul\":25745:25747   */\n      0x40\n        /* \"#utility.yul\":25740:25743   */\n      dup3\n        /* \"#utility.yul\":25736:25748   */\n      add\n        /* \"#utility.yul\":25729:25748   */\n      swap1\n      pop\n        /* \"#utility.yul\":25388:25754   */\n      swap2\n      swap1\n      pop\n      jump\t// out\n        /* \"#utility.yul\":25760:26179   */\n    tag_336:\n        /* \"#utility.yul\":25926:25930   */\n      0x00\n        /* \"#utility.yul\":25964:25966   */\n      0x20\n        /* \"#utility.yul\":25953:25962   */\n      dup3\n        /* \"#utility.yul\":25949:25967   */\n      add\n        /* \"#utility.yul\":25941:25967   */\n      swap1\n      pop\n        /* \"#utility.yul\":26013:26022   */\n      dup2\n        /* \"#utility.yul\":26007:26011   */\n      dup2\n        /* \"#utility.yul\":26003:26023   */\n      sub\n        /* \"#utility.yul\":25999:26000   */\n      0x00\n        /* \"#utility.yul\":25988:25997   */\n      dup4\n        /* \"#utility.yul\":25984:26001   */\n      add\n        /* \"#utility.yul\":25977:26024   */\n      mstore\n        /* \"#utility.yul\":26041:26172   */\n      tag_754\n        /* \"#utility.yul\":26167:26171   */\n      dup2\n        /* \"#utility.yul\":26041:26172   */\n      tag_515\n      jump\t// in\n    tag_754:\n        /* \"#utility.yul\":26033:26172   */\n      swap1\n      pop\n        /* \"#utility.yul\":25760:26179   */\n      swap2\n      swap1\n      pop\n      jump\t// out\n        /* \"#utility.yul\":26185:26406   */\n    tag_516:\n        /* \"#utility.yul\":26325:26359   */\n      0x537943726f774261727465723a20494e53554646494349454e545f42414c414e\n        /* \"#utility.yul\":26321:26322   */\n      0x00\n        /* \"#utility.yul\":26313:26319   */\n      dup3\n        /* \"#utility.yul\":26309:26323   */\n      add\n        /* \"#utility.yul\":26302:26360   */\n      mstore\n        /* \"#utility.yul\":26394:26398   */\n      0x4345000000000000000000000000000000000000000000000000000000000000\n        /* \"#utility.yul\":26389:26391   */\n      0x20\n        /* \"#utility.yul\":26381:26387   */\n      dup3\n        /* \"#utility.yul\":26377:26392   */\n      add\n        /* \"#utility.yul\":26370:26399   */\n      mstore\n        /* \"#utility.yul\":26185:26406   */\n      pop\n      jump\t// out\n        /* \"#utility.yul\":26412:26778   */\n    tag_517:\n        /* \"#utility.yul\":26554:26557   */\n      0x00\n        /* \"#utility.yul\":26575:26642   */\n      tag_757\n        /* \"#utility.yul\":26639:26641   */\n      0x22\n        /* \"#utility.yul\":26634:26637   */\n      dup4\n        /* \"#utility.yul\":26575:26642   */\n      tag_487\n      jump\t// in\n    tag_757:\n        /* \"#utility.yul\":26568:26642   */\n      swap2\n      pop\n        /* \"#utility.yul\":26651:26744   */\n      tag_758\n        /* \"#utility.yul\":26740:26743   */\n      dup3\n        /* \"#utility.yul\":26651:26744   */\n      tag_516\n      jump\t// in\n    tag_758:\n        /* \"#utility.yul\":26769:26771   */\n      0x40\n        /* \"#utility.yul\":26764:26767   */\n      dup3\n        /* \"#utility.yul\":26760:26772   */\n      add\n        /* \"#utility.yul\":26753:26772   */\n      swap1\n      pop\n        /* \"#utility.yul\":26412:26778   */\n      swap2\n      swap1\n      pop\n      jump\t// out\n        /* \"#utility.yul\":26784:27203   */\n    tag_345:\n        /* \"#utility.yul\":26950:26954   */\n      0x00\n        /* \"#utility.yul\":26988:26990   */\n      0x20\n        /* \"#utility.yul\":26977:26986   */\n      dup3\n        /* \"#utility.yul\":26973:26991   */\n      add\n        /* \"#utility.yul\":26965:26991   */\n      swap1\n      pop\n        /* \"#utility.yul\":27037:27046   */\n      dup2\n        /* \"#utility.yul\":27031:27035   */\n      dup2\n        /* \"#utility.yul\":27027:27047   */\n      sub\n        /* \"#utility.yul\":27023:27024   */\n      0x00\n        /* \"#utility.yul\":27012:27021   */\n      dup4\n        /* \"#utility.yul\":27008:27025   */\n      add\n        /* \"#utility.yul\":27001:27048   */\n      mstore\n        /* \"#utility.yul\":27065:27196   */\n      tag_760\n        /* \"#utility.yul\":27191:27195   */\n      dup2\n        /* \"#utility.yul\":27065:27196   */\n      tag_517\n      jump\t// in\n    tag_760:\n        /* \"#utility.yul\":27057:27196   */\n      swap1\n      pop\n        /* \"#utility.yul\":26784:27203   */\n      swap2\n      swap1\n      pop\n      jump\t// out\n        /* \"#utility.yul\":27209:27439   */\n    tag_518:\n        /* \"#utility.yul\":27349:27383   */\n      0x537943726f774261727465723a20494e53554646494349454e545f434f4e5452\n        /* \"#utility.yul\":27345:27346   */\n      0x00\n        /* \"#utility.yul\":27337:27343   */\n      dup3\n        /* \"#utility.yul\":27333:27347   */\n      add\n        /* \"#utility.yul\":27326:27384   */\n      mstore\n        /* \"#utility.yul\":27418:27431   */\n      0x4143545f42414c414e4345000000000000000000000000000000000000000000\n        /* \"#utility.yul\":27413:27415   */\n      0x20\n        /* \"#utility.yul\":27405:27411   */\n      dup3\n        /* \"#utility.yul\":27401:27416   */\n      add\n        /* \"#utility.yul\":27394:27432   */\n      mstore\n        /* \"#utility.yul\":27209:27439   */\n      pop\n      jump\t// out\n        /* \"#utility.yul\":27445:27811   */\n    tag_519:\n        /* \"#utility.yul\":27587:27590   */\n      0x00\n        /* \"#utility.yul\":27608:27675   */\n      tag_763\n        /* \"#utility.yul\":27672:27674   */\n      0x2b\n        /* \"#utility.yul\":27667:27670   */\n      dup4\n        /* \"#utility.yul\":27608:27675   */\n      tag_487\n      jump\t// in\n    tag_763:\n        /* \"#utility.yul\":27601:27675   */\n      swap2\n      pop\n        /* \"#utility.yul\":27684:27777   */\n      tag_764\n        /* \"#utility.yul\":27773:27776   */\n      dup3\n        /* \"#utility.yul\":27684:27777   */\n      tag_518\n      jump\t// in\n    tag_764:\n        /* \"#utility.yul\":27802:27804   */\n      0x40\n        /* \"#utility.yul\":27797:27800   */\n      dup3\n        /* \"#utility.yul\":27793:27805   */\n      add\n        /* \"#utility.yul\":27786:27805   */\n      swap1\n      pop\n        /* \"#utility.yul\":27445:27811   */\n      swap2\n      swap1\n      pop\n      jump\t// out\n        /* \"#utility.yul\":27817:28236   */\n    tag_353:\n        /* \"#utility.yul\":27983:27987   */\n      0x00\n        /* \"#utility.yul\":28021:28023   */\n      0x20\n        /* \"#utility.yul\":28010:28019   */\n      dup3\n        /* \"#utility.yul\":28006:28024   */\n      add\n        /* \"#utility.yul\":27998:28024   */\n      swap1\n      pop\n        /* \"#utility.yul\":28070:28079   */\n      dup2\n        /* \"#utility.yul\":28064:28068   */\n      dup2\n        /* \"#utility.yul\":28060:28080   */\n      sub\n        /* \"#utility.yul\":28056:28057   */\n      0x00\n        /* \"#utility.yul\":28045:28054   */\n      dup4\n        /* \"#utility.yul\":28041:28058   */\n      add\n        /* \"#utility.yul\":28034:28081   */\n      mstore\n        /* \"#utility.yul\":28098:28229   */\n      tag_766\n        /* \"#utility.yul\":28224:28228   */\n      dup2\n        /* \"#utility.yul\":28098:28229   */\n      tag_519\n      jump\t// in\n    tag_766:\n        /* \"#utility.yul\":28090:28229   */\n      swap1\n      pop\n        /* \"#utility.yul\":27817:28236   */\n      swap2\n      swap1\n      pop\n      jump\t// out\n        /* \"#utility.yul\":28242:28547   */\n    tag_363:\n        /* \"#utility.yul\":28282:28285   */\n      0x00\n        /* \"#utility.yul\":28301:28321   */\n      tag_768\n        /* \"#utility.yul\":28319:28320   */\n      dup3\n        /* \"#utility.yul\":28301:28321   */\n      tag_454\n      jump\t// in\n    tag_768:\n        /* \"#utility.yul\":28296:28321   */\n      swap2\n      pop\n        /* \"#utility.yul\":28335:28355   */\n      tag_769\n        /* \"#utility.yul\":28353:28354   */\n      dup4\n        /* \"#utility.yul\":28335:28355   */\n      tag_454\n      jump\t// in\n    tag_769:\n        /* \"#utility.yul\":28330:28355   */\n      swap3\n      pop\n        /* \"#utility.yul\":28489:28490   */\n      dup3\n        /* \"#utility.yul\":28421:28487   */\n      0xffffffffffffffffffffffffffffffffffffffffffffffffffffffffffffffff\n        /* \"#utility.yul\":28417:28491   */\n      sub\n        /* \"#utility.yul\":28414:28415   */\n      dup3\n        /* \"#utility.yul\":28411:28492   */\n      gt\n        /* \"#utility.yul\":28408:28515   */\n      iszero\n      tag_770\n      jumpi\n        /* \"#utility.yul\":28495:28513   */\n      tag_771\n      tag_512\n      jump\t// in\n    tag_771:\n        /* \"#utility.yul\":28408:28515   */\n    tag_770:\n        /* \"#utility.yul\":28539:28540   */\n      dup3\n        /* \"#utility.yul\":28536:28537   */\n      dup3\n        /* \"#utility.yul\":28532:28541   */\n      add\n        /* \"#utility.yul\":28525:28541   */\n      swap1\n      pop\n        /* \"#utility.yul\":28242:28547   */\n      swap3\n      swap2\n      pop\n      pop\n      jump\t// out\n        /* \"#utility.yul\":28553:28651   */\n    tag_520:\n        /* \"#utility.yul\":28604:28610   */\n      0x00\n        /* \"#utility.yul\":28638:28643   */\n      dup2\n        /* \"#utility.yul\":28632:28644   */\n      mload\n        /* \"#utility.yul\":28622:28644   */\n      swap1\n      pop\n        /* \"#utility.yul\":28553:28651   */\n      swap2\n      swap1\n      pop\n      jump\t// out\n        /* \"#utility.yul\":28657:28804   */\n    tag_521:\n        /* \"#utility.yul\":28758:28769   */\n      0x00\n        /* \"#utility.yul\":28795:28798   */\n      dup2\n        /* \"#utility.yul\":28780:28798   */\n      swap1\n      pop\n        /* \"#utility.yul\":28657:28804   */\n      swap3\n      swap2\n      pop\n      pop\n      jump\t// out\n        /* \"#utility.yul\":28810:29117   */\n    tag_522:\n        /* \"#utility.yul\":28878:28879   */\n      0x00\n        /* \"#utility.yul\":28888:29001   */\n    tag_775:\n        /* \"#utility.yul\":28902:28908   */\n      dup4\n        /* \"#utility.yul\":28899:28900   */\n      dup2\n        /* \"#utility.yul\":28896:28909   */\n      lt\n        /* \"#utility.yul\":28888:29001   */\n      iszero\n      tag_777\n      jumpi\n        /* \"#utility.yul\":28987:28988   */\n      dup1\n        /* \"#utility.yul\":28982:28985   */\n      dup3\n        /* \"#utility.yul\":28978:28989   */\n      add\n        /* \"#utility.yul\":28972:28990   */\n      mload\n        /* \"#utility.yul\":28968:28969   */\n      dup2\n        /* \"#utility.yul\":28963:28966   */\n      dup5\n        /* \"#utility.yul\":28959:28970   */\n      add\n        /* \"#utility.yul\":28952:28991   */\n      mstore\n        /* \"#utility.yul\":28924:28926   */\n      0x20\n        /* \"#utility.yul\":28921:28922   */\n      dup2\n        /* \"#utility.yul\":28917:28927   */\n      add\n        /* \"#utility.yul\":28912:28927   */\n      swap1\n      pop\n        /* \"#utility.yul\":28888:29001   */\n      jump(tag_775)\n    tag_777:\n        /* \"#utility.yul\":29019:29025   */\n      dup4\n        /* \"#utility.yul\":29016:29017   */\n      dup2\n        /* \"#utility.yul\":29013:29026   */\n      gt\n        /* \"#utility.yul\":29010:29111   */\n      iszero\n      tag_778\n      jumpi\n        /* \"#utility.yul\":29099:29100   */\n      0x00\n        /* \"#utility.yul\":29090:29096   */\n      dup5\n        /* \"#utility.yul\":29085:29088   */\n      dup5\n        /* \"#utility.yul\":29081:29097   */\n      add\n        /* \"#utility.yul\":29074:29101   */\n      mstore\n        /* \"#utility.yul\":29010:29111   */\n    tag_778:\n        /* \"#utility.yul\":28859:29117   */\n      pop\n        /* \"#utility.yul\":28810:29117   */\n      pop\n      pop\n      pop\n      jump\t// out\n        /* \"#utility.yul\":29123:29496   */\n    tag_523:\n        /* \"#utility.yul\":29227:29230   */\n      0x00\n        /* \"#utility.yul\":29255:29293   */\n      tag_780\n        /* \"#utility.yul\":29287:29292   */\n      dup3\n        /* \"#utility.yul\":29255:29293   */\n      tag_520\n      jump\t// in\n    tag_780:\n        /* \"#utility.yul\":29309:29397   */\n      tag_781\n        /* \"#utility.yul\":29390:29396   */\n      dup2\n        /* \"#utility.yul\":29385:29388   */\n      dup6\n        /* \"#utility.yul\":29309:29397   */\n      tag_521\n      jump\t// in\n    tag_781:\n        /* \"#utility.yul\":29302:29397   */\n      swap4\n      pop\n        /* \"#utility.yul\":29406:29458   */\n      tag_782\n        /* \"#utility.yul\":29451:29457   */\n      dup2\n        /* \"#utility.yul\":29446:29449   */\n      dup6\n        /* \"#utility.yul\":29439:29443   */\n      0x20\n        /* \"#utility.yul\":29432:29437   */\n      dup7\n        /* \"#utility.yul\":29428:29444   */\n      add\n        /* \"#utility.yul\":29406:29458   */\n      tag_522\n      jump\t// in\n    tag_782:\n        /* \"#utility.yul\":29483:29489   */\n      dup1\n        /* \"#utility.yul\":29478:29481   */\n      dup5\n        /* \"#utility.yul\":29474:29490   */\n      add\n        /* \"#utility.yul\":29467:29490   */\n      swap2\n      pop\n        /* \"#utility.yul\":29231:29496   */\n      pop\n        /* \"#utility.yul\":29123:29496   */\n      swap3\n      swap2\n      pop\n      pop\n      jump\t// out\n        /* \"#utility.yul\":29502:29773   */\n    tag_396:\n        /* \"#utility.yul\":29632:29635   */\n      0x00\n        /* \"#utility.yul\":29654:29747   */\n      tag_784\n        /* \"#utility.yul\":29743:29746   */\n      dup3\n        /* \"#utility.yul\":29734:29740   */\n      dup5\n        /* \"#utility.yul\":29654:29747   */\n      tag_523\n      jump\t// in\n    tag_784:\n        /* \"#utility.yul\":29647:29747   */\n      swap2\n      pop\n        /* \"#utility.yul\":29764:29767   */\n      dup2\n        /* \"#utility.yul\":29757:29767   */\n      swap1\n      pop\n        /* \"#utility.yul\":29502:29773   */\n      swap3\n      swap2\n      pop\n      pop\n      jump\t// out\n        /* \"#utility.yul\":29779:30001   */\n    tag_524:\n        /* \"#utility.yul\":29919:29953   */\n      0x5472616e7366657248656c7065723a204554485f5452414e534645525f464149\n        /* \"#utility.yul\":29915:29916   */\n      0x00\n        /* \"#utility.yul\":29907:29913   */\n      dup3\n        /* \"#utility.yul\":29903:29917   */\n      add\n        /* \"#utility.yul\":29896:29954   */\n      mstore\n        /* \"#utility.yul\":29988:29993   */\n      0x4c45440000000000000000000000000000000000000000000000000000000000\n        /* \"#utility.yul\":29983:29985   */\n      0x20\n        /* \"#utility.yul\":29975:29981   */\n      dup3\n        /* \"#utility.yul\":29971:29986   */\n      add\n        /* \"#utility.yul\":29964:29994   */\n      mstore\n        /* \"#utility.yul\":29779:30001   */\n      pop\n      jump\t// out\n        /* \"#utility.yul\":30007:30373   */\n    tag_525:\n        /* \"#utility.yul\":30149:30152   */\n      0x00\n        /* \"#utility.yul\":30170:30237   */\n      tag_787\n        /* \"#utility.yul\":30234:30236   */\n      0x23\n        /* \"#utility.yul\":30229:30232   */\n      dup4\n        /* \"#utility.yul\":30170:30237   */\n      tag_487\n      jump\t// in\n    tag_787:\n        /* \"#utility.yul\":30163:30237   */\n      swap2\n      pop\n        /* \"#utility.yul\":30246:30339   */\n      tag_788\n        /* \"#utility.yul\":30335:30338   */\n      dup3\n        /* \"#utility.yul\":30246:30339   */\n      tag_524\n      jump\t// in\n    tag_788:\n        /* \"#utility.yul\":30364:30366   */\n      0x40\n        /* \"#utility.yul\":30359:30362   */\n      dup3\n        /* \"#utility.yul\":30355:30367   */\n      add\n        /* \"#utility.yul\":30348:30367   */\n      swap1\n      pop\n        /* \"#utility.yul\":30007:30373   */\n      swap2\n      swap1\n      pop\n      jump\t// out\n        /* \"#utility.yul\":30379:30798   */\n    tag_402:\n        /* \"#utility.yul\":30545:30549   */\n      0x00\n        /* \"#utility.yul\":30583:30585   */\n      0x20\n        /* \"#utility.yul\":30572:30581   */\n      dup3\n        /* \"#utility.yul\":30568:30586   */\n      add\n        /* \"#utility.yul\":30560:30586   */\n      swap1\n      pop\n        /* \"#utility.yul\":30632:30641   */\n      dup2\n        /* \"#utility.yul\":30626:30630   */\n      dup2\n        /* \"#utility.yul\":30622:30642   */\n      sub\n        /* \"#utility.yul\":30618:30619   */\n      0x00\n        /* \"#utility.yul\":30607:30616   */\n      dup4\n        /* \"#utility.yul\":30603:30620   */\n      add\n        /* \"#utility.yul\":30596:30643   */\n      mstore\n        /* \"#utility.yul\":30660:30791   */\n      tag_790\n        /* \"#utility.yul\":30786:30790   */\n      dup2\n        /* \"#utility.yul\":30660:30791   */\n      tag_525\n      jump\t// in\n    tag_790:\n        /* \"#utility.yul\":30652:30791   */\n      swap1\n      pop\n        /* \"#utility.yul\":30379:30798   */\n      swap2\n      swap1\n      pop\n      jump\t// out\n        /* \"#utility.yul\":30804:31136   */\n    tag_405:\n        /* \"#utility.yul\":30925:30929   */\n      0x00\n        /* \"#utility.yul\":30963:30965   */\n      0x40\n        /* \"#utility.yul\":30952:30961   */\n      dup3\n        /* \"#utility.yul\":30948:30966   */\n      add\n        /* \"#utility.yul\":30940:30966   */\n      swap1\n      pop\n        /* \"#utility.yul\":30976:31047   */\n      tag_792\n        /* \"#utility.yul\":31044:31045   */\n      0x00\n        /* \"#utility.yul\":31033:31042   */\n      dup4\n        /* \"#utility.yul\":31029:31046   */\n      add\n        /* \"#utility.yul\":31020:31026   */\n      dup6\n        /* \"#utility.yul\":30976:31047   */\n      tag_472\n      jump\t// in\n    tag_792:\n        /* \"#utility.yul\":31057:31129   */\n      tag_793\n        /* \"#utility.yul\":31125:31127   */\n      0x20\n        /* \"#utility.yul\":31114:31123   */\n      dup4\n        /* \"#utility.yul\":31110:31128   */\n      add\n        /* \"#utility.yul\":31101:31107   */\n      dup5\n        /* \"#utility.yul\":31057:31129   */\n      tag_457\n      jump\t// in\n    tag_793:\n        /* \"#utility.yul\":30804:31136   */\n      swap4\n      swap3\n      pop\n      pop\n      pop\n      jump\t// out\n        /* \"#utility.yul\":31142:31323   */\n    tag_526:\n        /* \"#utility.yul\":31282:31315   */\n      0x5472616e7366657248656c7065723a205452414e534645525f4641494c454400\n        /* \"#utility.yul\":31278:31279   */\n      0x00\n        /* \"#utility.yul\":31270:31276   */\n      dup3\n        /* \"#utility.yul\":31266:31280   */\n      add\n        /* \"#utility.yul\":31259:31316   */\n      mstore\n        /* \"#utility.yul\":31142:31323   */\n      pop\n      jump\t// out\n        /* \"#utility.yul\":31329:31695   */\n    tag_527:\n        /* \"#utility.yul\":31471:31474   */\n      0x00\n        /* \"#utility.yul\":31492:31559   */\n      tag_796\n        /* \"#utility.yul\":31556:31558   */\n      0x1f\n        /* \"#utility.yul\":31551:31554   */\n      dup4\n        /* \"#utility.yul\":31492:31559   */\n      tag_487\n      jump\t// in\n    tag_796:\n        /* \"#utility.yul\":31485:31559   */\n      swap2\n      pop\n        /* \"#utility.yul\":31568:31661   */\n      tag_797\n        /* \"#utility.yul\":31657:31660   */\n      dup3\n        /* \"#utility.yul\":31568:31661   */\n      tag_526\n      jump\t// in\n    tag_797:\n        /* \"#utility.yul\":31686:31688   */\n      0x20\n        /* \"#utility.yul\":31681:31684   */\n      dup3\n        /* \"#utility.yul\":31677:31689   */\n      add\n        /* \"#utility.yul\":31670:31689   */\n      swap1\n      pop\n        /* \"#utility.yul\":31329:31695   */\n      swap2\n      swap1\n      pop\n      jump\t// out\n        /* \"#utility.yul\":31701:32120   */\n    tag_415:\n        /* \"#utility.yul\":31867:31871   */\n      0x00\n        /* \"#utility.yul\":31905:31907   */\n      0x20\n        /* \"#utility.yul\":31894:31903   */\n      dup3\n        /* \"#utility.yul\":31890:31908   */\n      add\n        /* \"#utility.yul\":31882:31908   */\n      swap1\n      pop\n        /* \"#utility.yul\":31954:31963   */\n      dup2\n        /* \"#utility.yul\":31948:31952   */\n      dup2\n        /* \"#utility.yul\":31944:31964   */\n      sub\n        /* \"#utility.yul\":31940:31941   */\n      0x00\n        /* \"#utility.yul\":31929:31938   */\n      dup4\n        /* \"#utility.yul\":31925:31942   */\n      add\n        /* \"#utility.yul\":31918:31965   */\n      mstore\n        /* \"#utility.yul\":31982:32113   */\n      tag_799\n        /* \"#utility.yul\":32108:32112   */\n      dup2\n        /* \"#utility.yul\":31982:32113   */\n      tag_527\n      jump\t// in\n    tag_799:\n        /* \"#utility.yul\":31974:32113   */\n      swap1\n      pop\n        /* \"#utility.yul\":31701:32120   */\n      swap2\n      swap1\n      pop\n      jump\t// out\n        /* \"#utility.yul\":32126:32350   */\n    tag_528:\n        /* \"#utility.yul\":32266:32300   */\n      0x537943726f774261727465723a204d554c54495f54524144455f4e4f545f454e\n        /* \"#utility.yul\":32262:32263   */\n      0x00\n        /* \"#utility.yul\":32254:32260   */\n      dup3\n        /* \"#utility.yul\":32250:32264   */\n      add\n        /* \"#utility.yul\":32243:32301   */\n      mstore\n        /* \"#utility.yul\":32335:32342   */\n      0x41424c4544000000000000000000000000000000000000000000000000000000\n        /* \"#utility.yul\":32330:32332   */\n      0x20\n        /* \"#utility.yul\":32322:32328   */\n      dup3\n        /* \"#utility.yul\":32318:32333   */\n      add\n        /* \"#utility.yul\":32311:32343   */\n      mstore\n        /* \"#utility.yul\":32126:32350   */\n      pop\n      jump\t// out\n        /* \"#utility.yul\":32356:32722   */\n    tag_529:\n        /* \"#utility.yul\":32498:32501   */\n      0x00\n        /* \"#utility.yul\":32519:32586   */\n      tag_802\n        /* \"#utility.yul\":32583:32585   */\n      0x25\n        /* \"#utility.yul\":32578:32581   */\n      dup4\n        /* \"#utility.yul\":32519:32586   */\n      tag_487\n      jump\t// in\n    tag_802:\n        /* \"#utility.yul\":32512:32586   */\n      swap2\n      pop\n        /* \"#utility.yul\":32595:32688   */\n      tag_803\n        /* \"#utility.yul\":32684:32687   */\n      dup3\n        /* \"#utility.yul\":32595:32688   */\n      tag_528\n      jump\t// in\n    tag_803:\n        /* \"#utility.yul\":32713:32715   */\n      0x40\n        /* \"#utility.yul\":32708:32711   */\n      dup3\n        /* \"#utility.yul\":32704:32716   */\n      add\n        /* \"#utility.yul\":32697:32716   */\n      swap1\n      pop\n        /* \"#utility.yul\":32356:32722   */\n      swap2\n      swap1\n      pop\n      jump\t// out\n        /* \"#utility.yul\":32728:33147   */\n    tag_419:\n        /* \"#utility.yul\":32894:32898   */\n      0x00\n        /* \"#utility.yul\":32932:32934   */\n      0x20\n        /* \"#utility.yul\":32921:32930   */\n      dup3\n        /* \"#utility.yul\":32917:32935   */\n      add\n        /* \"#utility.yul\":32909:32935   */\n      swap1\n      pop\n        /* \"#utility.yul\":32981:32990   */\n      dup2\n        /* \"#utility.yul\":32975:32979   */\n      dup2\n        /* \"#utility.yul\":32971:32991   */\n      sub\n        /* \"#utility.yul\":32967:32968   */\n      0x00\n        /* \"#utility.yul\":32956:32965   */\n      dup4\n        /* \"#utility.yul\":32952:32969   */\n      add\n        /* \"#utility.yul\":32945:32992   */\n      mstore\n        /* \"#utility.yul\":33009:33140   */\n      tag_805\n        /* \"#utility.yul\":33135:33139   */\n      dup2\n        /* \"#utility.yul\":33009:33140   */\n      tag_529\n      jump\t// in\n    tag_805:\n        /* \"#utility.yul\":33001:33140   */\n      swap1\n      pop\n        /* \"#utility.yul\":32728:33147   */\n      swap2\n      swap1\n      pop\n      jump\t// out\n        /* \"#utility.yul\":33153:33595   */\n    tag_440:\n        /* \"#utility.yul\":33302:33306   */\n      0x00\n        /* \"#utility.yul\":33340:33342   */\n      0x60\n        /* \"#utility.yul\":33329:33338   */\n      dup3\n        /* \"#utility.yul\":33325:33343   */\n      add\n        /* \"#utility.yul\":33317:33343   */\n      swap1\n      pop\n        /* \"#utility.yul\":33353:33424   */\n      tag_807\n        /* \"#utility.yul\":33421:33422   */\n      0x00\n        /* \"#utility.yul\":33410:33419   */\n      dup4\n        /* \"#utility.yul\":33406:33423   */\n      add\n        /* \"#utility.yul\":33397:33403   */\n      dup7\n        /* \"#utility.yul\":33353:33424   */\n      tag_472\n      jump\t// in\n    tag_807:\n        /* \"#utility.yul\":33434:33506   */\n      tag_808\n        /* \"#utility.yul\":33502:33504   */\n      0x20\n        /* \"#utility.yul\":33491:33500   */\n      dup4\n        /* \"#utility.yul\":33487:33505   */\n      add\n        /* \"#utility.yul\":33478:33484   */\n      dup6\n        /* \"#utility.yul\":33434:33506   */\n      tag_472\n      jump\t// in\n    tag_808:\n        /* \"#utility.yul\":33516:33588   */\n      tag_809\n        /* \"#utility.yul\":33584:33586   */\n      0x40\n        /* \"#utility.yul\":33573:33582   */\n      dup4\n        /* \"#utility.yul\":33569:33587   */\n      add\n        /* \"#utility.yul\":33560:33566   */\n      dup5\n        /* \"#utility.yul\":33516:33588   */\n      tag_457\n      jump\t// in\n    tag_809:\n        /* \"#utility.yul\":33153:33595   */\n      swap5\n      swap4\n      pop\n      pop\n      pop\n      pop\n      jump\t// out\n        /* \"#utility.yul\":33601:33824   */\n    tag_530:\n        /* \"#utility.yul\":33741:33775   */\n      0x5472616e7366657248656c7065723a205452414e534645525f46524f4d5f4641\n        /* \"#utility.yul\":33737:33738   */\n      0x00\n        /* \"#utility.yul\":33729:33735   */\n      dup3\n        /* \"#utility.yul\":33725:33739   */\n      add\n        /* \"#utility.yul\":33718:33776   */\n      mstore\n        /* \"#utility.yul\":33810:33816   */\n      0x494c454400000000000000000000000000000000000000000000000000000000\n        /* \"#utility.yul\":33805:33807   */\n      0x20\n        /* \"#utility.yul\":33797:33803   */\n      dup3\n        /* \"#utility.yul\":33793:33808   */\n      add\n        /* \"#utility.yul\":33786:33817   */\n      mstore\n        /* \"#utility.yul\":33601:33824   */\n      pop\n      jump\t// out\n        /* \"#utility.yul\":33830:34196   */\n    tag_531:\n        /* \"#utility.yul\":33972:33975   */\n      0x00\n        /* \"#utility.yul\":33993:34060   */\n      tag_812\n        /* \"#utility.yul\":34057:34059   */\n      0x24\n        /* \"#utility.yul\":34052:34055   */\n      dup4\n        /* \"#utility.yul\":33993:34060   */\n      tag_487\n      jump\t// in\n    tag_812:\n        /* \"#utility.yul\":33986:34060   */\n      swap2\n      pop\n        /* \"#utility.yul\":34069:34162   */\n      tag_813\n        /* \"#utility.yul\":34158:34161   */\n      dup3\n        /* \"#utility.yul\":34069:34162   */\n      tag_530\n      jump\t// in\n    tag_813:\n        /* \"#utility.yul\":34187:34189   */\n      0x40\n        /* \"#utility.yul\":34182:34185   */\n      dup3\n        /* \"#utility.yul\":34178:34190   */\n      add\n        /* \"#utility.yul\":34171:34190   */\n      swap1\n      pop\n        /* \"#utility.yul\":33830:34196   */\n      swap2\n      swap1\n      pop\n      jump\t// out\n        /* \"#utility.yul\":34202:34621   */\n    tag_450:\n        /* \"#utility.yul\":34368:34372   */\n      0x00\n        /* \"#utility.yul\":34406:34408   */\n      0x20\n        /* \"#utility.yul\":34395:34404   */\n      dup3\n        /* \"#utility.yul\":34391:34409   */\n      add\n        /* \"#utility.yul\":34383:34409   */\n      swap1\n      pop\n        /* \"#utility.yul\":34455:34464   */\n      dup2\n        /* \"#utility.yul\":34449:34453   */\n      dup2\n        /* \"#utility.yul\":34445:34465   */\n      sub\n        /* \"#utility.yul\":34441:34442   */\n      0x00\n        /* \"#utility.yul\":34430:34439   */\n      dup4\n        /* \"#utility.yul\":34426:34443   */\n      add\n        /* \"#utility.yul\":34419:34466   */\n      mstore\n        /* \"#utility.yul\":34483:34614   */\n      tag_815\n        /* \"#utility.yul\":34609:34613   */\n      dup2\n        /* \"#utility.yul\":34483:34614   */\n      tag_531\n      jump\t// in\n    tag_815:\n        /* \"#utility.yul\":34475:34614   */\n      swap1\n      pop\n        /* \"#utility.yul\":34202:34621   */\n      swap2\n      swap1\n      pop\n      jump\t// out\n\n    auxdata: 0xa2646970667358221220c1ab9afa0adf9d90a511a995486a80c06aa6be28f97246f8a6121ddb1525ceb064736f6c634300080d0033\n}\n",
				"bytecode": {
					"linkReferences": {},
					"object": "60a06040526000600460156101000a81548160ff0219169083151502179055503480156200002c57600080fd5b506200004d620000416200008760201b60201c565b6200008f60201b60201c565b3373ffffffffffffffffffffffffffffffffffffffff1660808173ffffffffffffffffffffffffffffffffffffffff168152505062000153565b600033905090565b60008060009054906101000a900473ffffffffffffffffffffffffffffffffffffffff169050816000806101000a81548173ffffffffffffffffffffffffffffffffffffffff021916908373ffffffffffffffffffffffffffffffffffffffff1602179055508173ffffffffffffffffffffffffffffffffffffffff168173ffffffffffffffffffffffffffffffffffffffff167f8be0079c531659141344cd1fd0a4f28419497f9722a3daafe3b4186f6b6457e060405160405180910390a35050565b608051613aad620001a7600039600081816104ae0152818161070a01528181610d7801528181610f20015281816110d30152818161156901528181611cb90152818161204601526125c90152613aad6000f3fe60806040526004361061010d5760003560e01c8063715018a611610095578063c45a015511610064578063c45a01551461031e578063c6ea703814610349578063dab5a8df14610374578063e43372e9146103b1578063f2fde38b146103de57610114565b8063715018a614610285578063895237421461029c5780638da5cb5b146102c7578063aa6ca808146102f257610114565b80633ccfd60b116100dc5780633ccfd60b146101be5780633d370b4e146101d557806340a6f1ab146102015780634341f9201461022c5780635f5780e51461024857610114565b80630d1826051461011657806329dcb0cf1461013f5780632ffc68871461016a5780633072cf601461019357610114565b3661011457005b005b34801561012257600080fd5b5061013d60048036038101906101389190612898565b610407565b005b34801561014b57600080fd5b5061015461065d565b60405161016191906128d4565b60405180910390f35b34801561017657600080fd5b50610191600480360381019061018c9190612898565b610663565b005b34801561019f57600080fd5b506101a86108b9565b6040516101b5919061290a565b60405180910390f35b3480156101ca57600080fd5b506101d36108cc565b005b3480156101e157600080fd5b506101ea610e13565b6040516101f8929190612925565b60405180910390f35b34801561020d57600080fd5b50610216610e73565b60405161022391906128d4565b60405180910390f35b61024660048036038101906102419190612898565b610e79565b005b34801561025457600080fd5b5061026f600480360381019061026a91906129fd565b6110cf565b60405161027c919061290a565b60405180910390f35b34801561029157600080fd5b5061029a611403565b005b3480156102a857600080fd5b506102b161148b565b6040516102be9190612b2a565b60405180910390f35b3480156102d357600080fd5b506102dc61149e565b6040516102e99190612b54565b60405180910390f35b3480156102fe57600080fd5b506103076114c7565b604051610315929190612b6f565b60405180910390f35b34801561032a57600080fd5b50610333611567565b6040516103409190612b54565b60405180910390f35b34801561035557600080fd5b5061035e61158b565b60405161036b919061290a565b60405180910390f35b34801561038057600080fd5b5061039b60048036038101906103969190612898565b61159e565b6040516103a891906128d4565b60405180910390f35b3480156103bd57600080fd5b506103c66115c2565b6040516103d593929190612d14565b60405180910390f35b3480156103ea57600080fd5b5061040560048036038101906104009190612d60565b61185e565b005b426003541015801561041c5750600854600154105b61045b576040517f08c379a000000000000000000000000000000000000000000000000000000000815260040161045290612dea565b60405180910390fd5b600460159054906101000a900460ff166104aa576040517f08c379a00000000000000000000000000000000000000000000000000000000081526004016104a190612e56565b60405180910390fd5b60007f000000000000000000000000000000000000000000000000000000000000000090508073ffffffffffffffffffffffffffffffffffffffff1663b187bd266040518163ffffffff1660e01b8152600401602060405180830381865afa15801561051a573d6000803e3d6000fd5b505050506040513d601f19601f8201168201806040525081019061053e9190612e8b565b1561057e576040517f08c379a000000000000000000000000000000000000000000000000000000000815260040161057590612f2a565b60405180910390fd5b6000600460009054906101000a900460ff1660028111156105a2576105a1612ab3565b5b8160028111156105b5576105b4612ab3565b5b146105f5576040517f08c379a00000000000000000000000000000000000000000000000000000000081526004016105ec90612fbc565b60405180910390fd5b600260009054906101000a900460ff1661064f5760085483101561064e576040517f08c379a00000000000000000000000000000000000000000000000000000000081526004016106459061304e565b60405180910390fd5b5b61065883611955565b505050565b60035481565b42600354101580156106785750600854600154105b6106b7576040517f08c379a00000000000000000000000000000000000000000000000000000000081526004016106ae90612dea565b60405180910390fd5b600460159054906101000a900460ff16610706576040517f08c379a00000000000000000000000000000000000000000000000000000000081526004016106fd90612e56565b60405180910390fd5b60007f000000000000000000000000000000000000000000000000000000000000000090508073ffffffffffffffffffffffffffffffffffffffff1663b187bd266040518163ffffffff1660e01b8152600401602060405180830381865afa158015610776573d6000803e3d6000fd5b505050506040513d601f19601f8201168201806040525081019061079a9190612e8b565b156107da576040517f08c379a00000000000000000000000000000000000000000000000000000000081526004016107d190612f2a565b60405180910390fd5b6002600460009054906101000a900460ff1660028111156107fe576107fd612ab3565b5b81600281111561081157610810612ab3565b5b14610851576040517f08c379a000000000000000000000000000000000000000000000000000000000815260040161084890612fbc565b60405180910390fd5b600260009054906101000a900460ff166108ab576008548310156108aa576040517f08c379a00000000000000000000000000000000000000000000000000000000081526004016108a19061304e565b60405180910390fd5b5b6108b483611d51565b505050565b600460159054906101000a900460ff1681565b4260035410806108e0575060085460015410155b61091f576040517f08c379a0000000000000000000000000000000000000000000000000000000008152600401610916906130ba565b60405180910390fd5b600460159054906101000a900460ff1661096e576040517f08c379a000000000000000000000000000000000000000000000000000000000815260040161096590612e56565b60405180910390fd5b6109766120dd565b73ffffffffffffffffffffffffffffffffffffffff1661099461149e565b73ffffffffffffffffffffffffffffffffffffffff16146109ea576040517f08c379a00000000000000000000000000000000000000000000000000000000081526004016109e190613126565b60405180910390fd5b6000600460019054906101000a900473ffffffffffffffffffffffffffffffffffffffff16905060008173ffffffffffffffffffffffffffffffffffffffff166370a08231306040518263ffffffff1660e01b8152600401610a4c9190612b54565b602060405180830381865afa158015610a69573d6000803e3d6000fd5b505050506040513d601f19601f82011682018060405250810190610a8d919061315b565b90506000811115610b3057600460019054906101000a900473ffffffffffffffffffffffffffffffffffffffff1673ffffffffffffffffffffffffffffffffffffffff16632e1a7d4d826040518263ffffffff1660e01b8152600401610af391906128d4565b600060405180830381600087803b158015610b0d57600080fd5b505af1158015610b21573d6000803e3d6000fd5b50505050610b2f33826120e5565b5b6000600660009054906101000a900473ffffffffffffffffffffffffffffffffffffffff1673ffffffffffffffffffffffffffffffffffffffff166370a08231306040518263ffffffff1660e01b8152600401610b8d9190612b54565b602060405180830381865afa158015610baa573d6000803e3d6000fd5b505050506040513d601f19601f82011682018060405250810190610bce919061315b565b90506000811115610c0757610c06600660009054906101000a900473ffffffffffffffffffffffffffffffffffffffff1633836121e5565b5b6000600560009054906101000a900473ffffffffffffffffffffffffffffffffffffffff1673ffffffffffffffffffffffffffffffffffffffff166370a08231306040518263ffffffff1660e01b8152600401610c649190612b54565b602060405180830381865afa158015610c81573d6000803e3d6000fd5b505050506040513d601f19601f82011682018060405250810190610ca5919061315b565b90506000811115610cde57610cdd600560009054906101000a900473ffffffffffffffffffffffffffffffffffffffff1633836121e5565b5b60008060006002811115610cf557610cf4612ab3565b5b600460009054906101000a900460ff166002811115610d1757610d16612ab3565b5b03610d2757849150839050610d74565b600280811115610d3a57610d39612ab3565b5b600460009054906101000a900460ff166002811115610d5c57610d5b612ab3565b5b03610d6c57829150839050610d73565b8291508490505b5b60007f000000000000000000000000000000000000000000000000000000000000000090508073ffffffffffffffffffffffffffffffffffffffff166333796a0e303386866040518563ffffffff1660e01b8152600401610dd89493929190613188565b600060405180830381600087803b158015610df257600080fd5b505af1158015610e06573d6000803e3d6000fd5b5050505050505050505050565b600080600460159054906101000a900460ff16610e65576040517f08c379a0000000000000000000000000000000000000000000000000000000008152600401610e5c90612e56565b60405180910390fd5b600754600854915091509091565b60015481565b4260035410158015610e8e5750600854600154105b610ecd576040517f08c379a0000000000000000000000000000000000000000000000000000000008152600401610ec490612dea565b60405180910390fd5b600460159054906101000a900460ff16610f1c576040517f08c379a0000000000000000000000000000000000000000000000000000000008152600401610f1390612e56565b60405180910390fd5b60007f000000000000000000000000000000000000000000000000000000000000000090508073ffffffffffffffffffffffffffffffffffffffff1663b187bd266040518163ffffffff1660e01b8152600401602060405180830381865afa158015610f8c573d6000803e3d6000fd5b505050506040513d601f19601f82011682018060405250810190610fb09190612e8b565b15610ff0576040517f08c379a0000000000000000000000000000000000000000000000000000000008152600401610fe790612f2a565b60405180910390fd5b6001600460009054906101000a900460ff16600281111561101457611013612ab3565b5b81600281111561102757611026612ab3565b5b14611067576040517f08c379a000000000000000000000000000000000000000000000000000000000815260040161105e90612fbc565b60405180910390fd5b600260009054906101000a900460ff166110c1576008543410156110c0576040517f08c379a00000000000000000000000000000000000000000000000000000000081526004016110b79061304e565b60405180910390fd5b5b6110ca8361231b565b505050565b60007f000000000000000000000000000000000000000000000000000000000000000073ffffffffffffffffffffffffffffffffffffffff163373ffffffffffffffffffffffffffffffffffffffff161461115f576040517f08c379a000000000000000000000000000000000000000000000000000000000815260040161115690613219565b60405180910390fd5b600460159054906101000a900460ff16156111af576040517f08c379a00000000000000000000000000000000000000000000000000000000081526004016111a6906132ab565b60405180910390fd5b428410156111f2576040517f08c379a00000000000000000000000000000000000000000000000000000000081526004016111e990613317565b60405180910390fd5b858873ffffffffffffffffffffffffffffffffffffffff166370a08231306040518263ffffffff1660e01b815260040161122c9190612b54565b602060405180830381865afa158015611249573d6000803e3d6000fd5b505050506040513d601f19601f8201168201806040525081019061126d919061315b565b10156112ae576040517f08c379a00000000000000000000000000000000000000000000000000000000081526004016112a5906133a9565b60405180910390fd5b8360038190555087600560006101000a81548173ffffffffffffffffffffffffffffffffffffffff021916908373ffffffffffffffffffffffffffffffffffffffff16021790555086600660006101000a81548173ffffffffffffffffffffffffffffffffffffffff021916908373ffffffffffffffffffffffffffffffffffffffff160217905550856007819055508460088190555088600460006101000a81548160ff0219169083600281111561136a57611369612ab3565b5b021790555082600260006101000a81548160ff02191690831515021790555081600460016101000a81548173ffffffffffffffffffffffffffffffffffffffff021916908373ffffffffffffffffffffffffffffffffffffffff1602179055506001600460156101000a81548160ff021916908315150217905550600460159054906101000a900460ff16905098975050505050505050565b61140b6120dd565b73ffffffffffffffffffffffffffffffffffffffff1661142961149e565b73ffffffffffffffffffffffffffffffffffffffff161461147f576040517f08c379a000000000000000000000000000000000000000000000000000000000815260040161147690613126565b60405180910390fd5b6114896000612660565b565b600460009054906101000a900460ff1681565b60008060009054906101000a900473ffffffffffffffffffffffffffffffffffffffff16905090565b600080600460159054906101000a900460ff16611519576040517f08c379a000000000000000000000000000000000000000000000000000000000815260040161151090612e56565b60405180910390fd5b600560009054906101000a900473ffffffffffffffffffffffffffffffffffffffff16600660009054906101000a900473ffffffffffffffffffffffffffffffffffffffff16915091509091565b7f000000000000000000000000000000000000000000000000000000000000000081565b600260009054906101000a900460ff1681565b6000600854600754836115b191906133f8565b6115bb9190613481565b9050919050565b6060806060600460159054906101000a900460ff16611616576040517f08c379a000000000000000000000000000000000000000000000000000000000815260040161160d90612e56565b60405180910390fd5b600060098054905067ffffffffffffffff811115611637576116366134b2565b5b6040519080825280602002602001820160405280156116655781602001602082028036833780820191505090505b509050600060098054905067ffffffffffffffff811115611689576116886134b2565b5b6040519080825280602002602001820160405280156116b75781602001602082028036833780820191505090505b509050600060098054905067ffffffffffffffff8111156116db576116da6134b2565b5b6040519080825280602002602001820160405280156117095781602001602082028036833780820191505090505b50905060005b60098054905081101561184c57600981815481106117305761172f6134e1565b5b906000526020600020906003020160000160009054906101000a900473ffffffffffffffffffffffffffffffffffffffff16848281518110611775576117746134e1565b5b602002602001019073ffffffffffffffffffffffffffffffffffffffff16908173ffffffffffffffffffffffffffffffffffffffff1681525050600981815481106117c3576117c26134e1565b5b9060005260206000209060030201600101548382815181106117e8576117e76134e1565b5b60200260200101818152505060098181548110611808576118076134e1565b5b90600052602060002090600302016002015482828151811061182d5761182c6134e1565b5b602002602001018181525050808061184490613510565b91505061170f565b50828282955095509550505050909192565b6118666120dd565b73ffffffffffffffffffffffffffffffffffffffff1661188461149e565b73ffffffffffffffffffffffffffffffffffffffff16146118da576040517f08c379a00000000000000000000000000000000000000000000000000000000081526004016118d190613126565b60405180910390fd5b600073ffffffffffffffffffffffffffffffffffffffff168173ffffffffffffffffffffffffffffffffffffffff1603611949576040517f08c379a0000000000000000000000000000000000000000000000000000000008152600401611940906135ca565b60405180910390fd5b61195281612660565b50565b80600660009054906101000a900473ffffffffffffffffffffffffffffffffffffffff1673ffffffffffffffffffffffffffffffffffffffff166370a08231336040518263ffffffff1660e01b81526004016119b19190612b54565b602060405180830381865afa1580156119ce573d6000803e3d6000fd5b505050506040513d601f19601f820116820180604052508101906119f2919061315b565b1015611a33576040517f08c379a0000000000000000000000000000000000000000000000000000000008152600401611a2a9061365c565b60405180910390fd5b6000611a3e8261159e565b90506000600460019054906101000a900473ffffffffffffffffffffffffffffffffffffffff169050818173ffffffffffffffffffffffffffffffffffffffff166370a08231306040518263ffffffff1660e01b8152600401611aa19190612b54565b602060405180830381865afa158015611abe573d6000803e3d6000fd5b505050506040513d601f19601f82011682018060405250810190611ae2919061315b565b1015611b23576040517f08c379a0000000000000000000000000000000000000000000000000000000008152600401611b1a906136ee565b60405180910390fd5b611b51600660009054906101000a900473ffffffffffffffffffffffffffffffffffffffff16333086612724565b600460019054906101000a900473ffffffffffffffffffffffffffffffffffffffff1673ffffffffffffffffffffffffffffffffffffffff16632e1a7d4d836040518263ffffffff1660e01b8152600401611bac91906128d4565b600060405180830381600087803b158015611bc657600080fd5b505af1158015611bda573d6000803e3d6000fd5b50505050611be833836120e5565b600960405180606001604052803373ffffffffffffffffffffffffffffffffffffffff16815260200185815260200184815250908060018154018082558091505060019003906000526020600020906003020160009091909190915060008201518160000160006101000a81548173ffffffffffffffffffffffffffffffffffffffff021916908373ffffffffffffffffffffffffffffffffffffffff1602179055506020820151816001015560408201518160020155505082600154611caf919061370e565b60018190555060007f000000000000000000000000000000000000000000000000000000000000000090508073ffffffffffffffffffffffffffffffffffffffff1663f52701b7303387876040518563ffffffff1660e01b8152600401611d199493929190613188565b600060405180830381600087803b158015611d3357600080fd5b505af1158015611d47573d6000803e3d6000fd5b5050505050505050565b80600660009054906101000a900473ffffffffffffffffffffffffffffffffffffffff1673ffffffffffffffffffffffffffffffffffffffff166370a08231336040518263ffffffff1660e01b8152600401611dad9190612b54565b602060405180830381865afa158015611dca573d6000803e3d6000fd5b505050506040513d601f19601f82011682018060405250810190611dee919061315b565b1015611e2f576040517f08c379a0000000000000000000000000000000000000000000000000000000008152600401611e269061365c565b60405180910390fd5b6000611e3a8261159e565b905080600560009054906101000a900473ffffffffffffffffffffffffffffffffffffffff1673ffffffffffffffffffffffffffffffffffffffff166370a08231306040518263ffffffff1660e01b8152600401611e989190612b54565b602060405180830381865afa158015611eb5573d6000803e3d6000fd5b505050506040513d601f19601f82011682018060405250810190611ed9919061315b565b1015611f1a576040517f08c379a0000000000000000000000000000000000000000000000000000000008152600401611f11906136ee565b60405180910390fd5b611f48600660009054906101000a900473ffffffffffffffffffffffffffffffffffffffff16333085612724565b611f75600560009054906101000a900473ffffffffffffffffffffffffffffffffffffffff1633836121e5565b600960405180606001604052803373ffffffffffffffffffffffffffffffffffffffff16815260200184815260200183815250908060018154018082558091505060019003906000526020600020906003020160009091909190915060008201518160000160006101000a81548173ffffffffffffffffffffffffffffffffffffffff021916908373ffffffffffffffffffffffffffffffffffffffff160217905550602082015181600101556040820151816002015550508160015461203c919061370e565b60018190555060007f000000000000000000000000000000000000000000000000000000000000000090508073ffffffffffffffffffffffffffffffffffffffff1663f52701b7303386866040518563ffffffff1660e01b81526004016120a69493929190613188565b600060405180830381600087803b1580156120c057600080fd5b505af11580156120d4573d6000803e3d6000fd5b50505050505050565b600033905090565b60008273ffffffffffffffffffffffffffffffffffffffff1682600067ffffffffffffffff81111561211a576121196134b2565b5b6040519080825280601f01601f19166020018201604052801561214c5781602001600182028036833780820191505090505b5060405161215a91906137de565b60006040518083038185875af1925050503d8060008114612197576040519150601f19603f3d011682016040523d82523d6000602084013e61219c565b606091505b50509050806121e0576040517f08c379a00000000000000000000000000000000000000000000000000000000081526004016121d790613867565b60405180910390fd5b505050565b6000808473ffffffffffffffffffffffffffffffffffffffff1663a9059cbb8585604051602401612217929190613887565b6040516020818303038152906040529060e01b6020820180517bffffffffffffffffffffffffffffffffffffffffffffffffffffffff838183161783525050505060405161226591906137de565b6000604051808303816000865af19150503d80600081146122a2576040519150601f19603f3d011682016040523d82523d6000602084013e6122a7565b606091505b50915091508180156122d557506000815114806122d45750808060200190518101906122d39190612e8b565b5b5b612314576040517f08c379a000000000000000000000000000000000000000000000000000000000815260040161230b906138fc565b60405180910390fd5b5050505050565b34811461235d576040517f08c379a00000000000000000000000000000000000000000000000000000000081526004016123549061398e565b60405180910390fd5b60006123688261159e565b905080600560009054906101000a900473ffffffffffffffffffffffffffffffffffffffff1673ffffffffffffffffffffffffffffffffffffffff166370a08231306040518263ffffffff1660e01b81526004016123c69190612b54565b602060405180830381865afa1580156123e3573d6000803e3d6000fd5b505050506040513d601f19601f82011682018060405250810190612407919061315b565b1015612448576040517f08c379a000000000000000000000000000000000000000000000000000000000815260040161243f906136ee565b60405180910390fd5b600460019054906101000a900473ffffffffffffffffffffffffffffffffffffffff1673ffffffffffffffffffffffffffffffffffffffff1663d0e30db0836040518263ffffffff1660e01b81526004016000604051808303818588803b1580156124b257600080fd5b505af11580156124c6573d6000803e3d6000fd5b50505050506124f8600560009054906101000a900473ffffffffffffffffffffffffffffffffffffffff1633836121e5565b600960405180606001604052803373ffffffffffffffffffffffffffffffffffffffff16815260200184815260200183815250908060018154018082558091505060019003906000526020600020906003020160009091909190915060008201518160000160006101000a81548173ffffffffffffffffffffffffffffffffffffffff021916908373ffffffffffffffffffffffffffffffffffffffff16021790555060208201518160010155604082015181600201555050816001546125bf919061370e565b60018190555060007f000000000000000000000000000000000000000000000000000000000000000090508073ffffffffffffffffffffffffffffffffffffffff1663f52701b7303386866040518563ffffffff1660e01b81526004016126299493929190613188565b600060405180830381600087803b15801561264357600080fd5b505af1158015612657573d6000803e3d6000fd5b50505050505050565b60008060009054906101000a900473ffffffffffffffffffffffffffffffffffffffff169050816000806101000a81548173ffffffffffffffffffffffffffffffffffffffff021916908373ffffffffffffffffffffffffffffffffffffffff1602179055508173ffffffffffffffffffffffffffffffffffffffff168173ffffffffffffffffffffffffffffffffffffffff167f8be0079c531659141344cd1fd0a4f28419497f9722a3daafe3b4186f6b6457e060405160405180910390a35050565b6000808573ffffffffffffffffffffffffffffffffffffffff166323b872dd868686604051602401612758939291906139ae565b6040516020818303038152906040529060e01b6020820180517bffffffffffffffffffffffffffffffffffffffffffffffffffffffff83818316178352505050506040516127a691906137de565b6000604051808303816000865af19150503d80600081146127e3576040519150601f19603f3d011682016040523d82523d6000602084013e6127e8565b606091505b509150915081801561281657506000815114806128155750808060200190518101906128149190612e8b565b5b5b612855576040517f08c379a000000000000000000000000000000000000000000000000000000000815260040161284c90613a57565b60405180910390fd5b505050505050565b600080fd5b6000819050919050565b61287581612862565b811461288057600080fd5b50565b6000813590506128928161286c565b92915050565b6000602082840312156128ae576128ad61285d565b5b60006128bc84828501612883565b91505092915050565b6128ce81612862565b82525050565b60006020820190506128e960008301846128c5565b92915050565b60008115159050919050565b612904816128ef565b82525050565b600060208201905061291f60008301846128fb565b92915050565b600060408201905061293a60008301856128c5565b61294760208301846128c5565b9392505050565b6003811061295b57600080fd5b50565b60008135905061296d8161294e565b92915050565b600073ffffffffffffffffffffffffffffffffffffffff82169050919050565b600061299e82612973565b9050919050565b6129ae81612993565b81146129b957600080fd5b50565b6000813590506129cb816129a5565b92915050565b6129da816128ef565b81146129e557600080fd5b50565b6000813590506129f7816129d1565b92915050565b600080600080600080600080610100898b031215612a1e57612a1d61285d565b5b6000612a2c8b828c0161295e565b9850506020612a3d8b828c016129bc565b9750506040612a4e8b828c016129bc565b9650506060612a5f8b828c01612883565b9550506080612a708b828c01612883565b94505060a0612a818b828c01612883565b93505060c0612a928b828c016129e8565b92505060e0612aa38b828c016129bc565b9150509295985092959890939650565b7f4e487b7100000000000000000000000000000000000000000000000000000000600052602160045260246000fd5b60038110612af357612af2612ab3565b5b50565b6000819050612b0482612ae2565b919050565b6000612b1482612af6565b9050919050565b612b2481612b09565b82525050565b6000602082019050612b3f6000830184612b1b565b92915050565b612b4e81612993565b82525050565b6000602082019050612b696000830184612b45565b92915050565b6000604082019050612b846000830185612b45565b612b916020830184612b45565b9392505050565b600081519050919050565b600082825260208201905092915050565b6000819050602082019050919050565b612bcd81612993565b82525050565b6000612bdf8383612bc4565b60208301905092915050565b6000602082019050919050565b6000612c0382612b98565b612c0d8185612ba3565b9350612c1883612bb4565b8060005b83811015612c49578151612c308882612bd3565b9750612c3b83612beb565b925050600181019050612c1c565b5085935050505092915050565b600081519050919050565b600082825260208201905092915050565b6000819050602082019050919050565b612c8b81612862565b82525050565b6000612c9d8383612c82565b60208301905092915050565b6000602082019050919050565b6000612cc182612c56565b612ccb8185612c61565b9350612cd683612c72565b8060005b83811015612d07578151612cee8882612c91565b9750612cf983612ca9565b925050600181019050612cda565b5085935050505092915050565b60006060820190508181036000830152612d2e8186612bf8565b90508181036020830152612d428185612cb6565b90508181036040830152612d568184612cb6565b9050949350505050565b600060208284031215612d7657612d7561285d565b5b6000612d84848285016129bc565b91505092915050565b600082825260208201905092915050565b7f537943726f774261727465723a20494e41435449564500000000000000000000600082015250565b6000612dd4601683612d8d565b9150612ddf82612d9e565b602082019050919050565b60006020820190508181036000830152612e0381612dc7565b9050919050565b7f537943726f774261727465723a204e4f545f494e495449414c495a4544000000600082015250565b6000612e40601d83612d8d565b9150612e4b82612e0a565b602082019050919050565b60006020820190508181036000830152612e6f81612e33565b9050919050565b600081519050612e85816129d1565b92915050565b600060208284031215612ea157612ea061285d565b5b6000612eaf84828501612e76565b91505092915050565b7f537943726f774261727465723a204261736520436f6e7472616374205061757360008201527f6564000000000000000000000000000000000000000000000000000000000000602082015250565b6000612f14602283612d8d565b9150612f1f82612eb8565b604082019050919050565b60006020820190508181036000830152612f4381612f07565b9050919050565b7f537943726f774261727465723a20494e56414c49445f4241525445525f54595060008201527f4500000000000000000000000000000000000000000000000000000000000000602082015250565b6000612fa6602183612d8d565b9150612fb182612f4a565b604082019050919050565b60006020820190508181036000830152612fd581612f99565b9050919050565b7f537943726f774261727465723a20414d4f554e545f4c4f5745525f5448414e5f60008201527f5245515552495245440000000000000000000000000000000000000000000000602082015250565b6000613038602983612d8d565b915061304382612fdc565b604082019050919050565b600060208201905081810360008301526130678161302b565b9050919050565b7f537943726f774261727465723a20414354495645000000000000000000000000600082015250565b60006130a4601483612d8d565b91506130af8261306e565b602082019050919050565b600060208201905081810360008301526130d381613097565b9050919050565b7f4f776e61626c653a2063616c6c6572206973206e6f7420746865206f776e6572600082015250565b6000613110602083612d8d565b915061311b826130da565b602082019050919050565b6000602082019050818103600083015261313f81613103565b9050919050565b6000815190506131558161286c565b92915050565b6000602082840312156131715761317061285d565b5b600061317f84828501613146565b91505092915050565b600060808201905061319d6000830187612b45565b6131aa6020830186612b45565b6131b760408301856128c5565b6131c460608301846128c5565b95945050505050565b7f537943726f774261727465723a20464f5242494444454e000000000000000000600082015250565b6000613203601783612d8d565b915061320e826131cd565b602082019050919050565b60006020820190508181036000830152613232816131f6565b9050919050565b7f537943726f774261727465723a20414c52454144595f494e495449414c495a4560008201527f4400000000000000000000000000000000000000000000000000000000000000602082015250565b6000613295602183612d8d565b91506132a082613239565b604082019050919050565b600060208201905081810360008301526132c481613288565b9050919050565b7f537943726f774261727465723a20504153545f444541444c494e450000000000600082015250565b6000613301601b83612d8d565b915061330c826132cb565b602082019050919050565b60006020820190508181036000830152613330816132f4565b9050919050565b7f537943726f774261727465723a20494e53554646494349454e545f4445504f5360008201527f4954000000000000000000000000000000000000000000000000000000000000602082015250565b6000613393602283612d8d565b915061339e82613337565b604082019050919050565b600060208201905081810360008301526133c281613386565b9050919050565b7f4e487b7100000000000000000000000000000000000000000000000000000000600052601160045260246000fd5b600061340382612862565b915061340e83612862565b9250817fffffffffffffffffffffffffffffffffffffffffffffffffffffffffffffffff0483118215151615613447576134466133c9565b5b828202905092915050565b7f4e487b7100000000000000000000000000000000000000000000000000000000600052601260045260246000fd5b600061348c82612862565b915061349783612862565b9250826134a7576134a6613452565b5b828204905092915050565b7f4e487b7100000000000000000000000000000000000000000000000000000000600052604160045260246000fd5b7f4e487b7100000000000000000000000000000000000000000000000000000000600052603260045260246000fd5b600061351b82612862565b91507fffffffffffffffffffffffffffffffffffffffffffffffffffffffffffffffff820361354d5761354c6133c9565b5b600182019050919050565b7f4f776e61626c653a206e6577206f776e657220697320746865207a65726f206160008201527f6464726573730000000000000000000000000000000000000000000000000000602082015250565b60006135b4602683612d8d565b91506135bf82613558565b604082019050919050565b600060208201905081810360008301526135e3816135a7565b9050919050565b7f537943726f774261727465723a20494e53554646494349454e545f42414c414e60008201527f4345000000000000000000000000000000000000000000000000000000000000602082015250565b6000613646602283612d8d565b9150613651826135ea565b604082019050919050565b6000602082019050818103600083015261367581613639565b9050919050565b7f537943726f774261727465723a20494e53554646494349454e545f434f4e545260008201527f4143545f42414c414e4345000000000000000000000000000000000000000000602082015250565b60006136d8602b83612d8d565b91506136e38261367c565b604082019050919050565b60006020820190508181036000830152613707816136cb565b9050919050565b600061371982612862565b915061372483612862565b9250827fffffffffffffffffffffffffffffffffffffffffffffffffffffffffffffffff03821115613759576137586133c9565b5b828201905092915050565b600081519050919050565b600081905092915050565b60005b8381101561379857808201518184015260208101905061377d565b838111156137a7576000848401525b50505050565b60006137b882613764565b6137c2818561376f565b93506137d281856020860161377a565b80840191505092915050565b60006137ea82846137ad565b915081905092915050565b7f5472616e7366657248656c7065723a204554485f5452414e534645525f46414960008201527f4c45440000000000000000000000000000000000000000000000000000000000602082015250565b6000613851602383612d8d565b915061385c826137f5565b604082019050919050565b6000602082019050818103600083015261388081613844565b9050919050565b600060408201905061389c6000830185612b45565b6138a960208301846128c5565b9392505050565b7f5472616e7366657248656c7065723a205452414e534645525f4641494c454400600082015250565b60006138e6601f83612d8d565b91506138f1826138b0565b602082019050919050565b60006020820190508181036000830152613915816138d9565b9050919050565b7f537943726f774261727465723a204d554c54495f54524144455f4e4f545f454e60008201527f41424c4544000000000000000000000000000000000000000000000000000000602082015250565b6000613978602583612d8d565b91506139838261391c565b604082019050919050565b600060208201905081810360008301526139a78161396b565b9050919050565b60006060820190506139c36000830186612b45565b6139d06020830185612b45565b6139dd60408301846128c5565b949350505050565b7f5472616e7366657248656c7065723a205452414e534645525f46524f4d5f464160008201527f494c454400000000000000000000000000000000000000000000000000000000602082015250565b6000613a41602483612d8d565b9150613a4c826139e5565b604082019050919050565b60006020820190508181036000830152613a7081613a34565b905091905056fea2646970667358221220c1ab9afa0adf9d90a511a995486a80c06aa6be28f97246f8a6121ddb1525ceb064736f6c634300080d0033",
					"opcodes": "PUSH1 0xA0 PUSH1 0x40 MSTORE PUSH1 0x0 PUSH1 0x4 PUSH1 0x15 PUSH2 0x100 EXP DUP2 SLOAD DUP2 PUSH1 0xFF MUL NOT AND SWAP1 DUP4 ISZERO ISZERO MUL OR SWAP1 SSTORE POP CALLVALUE DUP1 ISZERO PUSH3 0x2C JUMPI PUSH1 0x0 DUP1 REVERT JUMPDEST POP PUSH3 0x4D PUSH3 0x41 PUSH3 0x87 PUSH1 0x20 SHL PUSH1 0x20 SHR JUMP JUMPDEST PUSH3 0x8F PUSH1 0x20 SHL PUSH1 0x20 SHR JUMP JUMPDEST CALLER PUSH20 0xFFFFFFFFFFFFFFFFFFFFFFFFFFFFFFFFFFFFFFFF AND PUSH1 0x80 DUP2 PUSH20 0xFFFFFFFFFFFFFFFFFFFFFFFFFFFFFFFFFFFFFFFF AND DUP2 MSTORE POP POP PUSH3 0x153 JUMP JUMPDEST PUSH1 0x0 CALLER SWAP1 POP SWAP1 JUMP JUMPDEST PUSH1 0x0 DUP1 PUSH1 0x0 SWAP1 SLOAD SWAP1 PUSH2 0x100 EXP SWAP1 DIV PUSH20 0xFFFFFFFFFFFFFFFFFFFFFFFFFFFFFFFFFFFFFFFF AND SWAP1 POP DUP2 PUSH1 0x0 DUP1 PUSH2 0x100 EXP DUP2 SLOAD DUP2 PUSH20 0xFFFFFFFFFFFFFFFFFFFFFFFFFFFFFFFFFFFFFFFF MUL NOT AND SWAP1 DUP4 PUSH20 0xFFFFFFFFFFFFFFFFFFFFFFFFFFFFFFFFFFFFFFFF AND MUL OR SWAP1 SSTORE POP DUP2 PUSH20 0xFFFFFFFFFFFFFFFFFFFFFFFFFFFFFFFFFFFFFFFF AND DUP2 PUSH20 0xFFFFFFFFFFFFFFFFFFFFFFFFFFFFFFFFFFFFFFFF AND PUSH32 0x8BE0079C531659141344CD1FD0A4F28419497F9722A3DAAFE3B4186F6B6457E0 PUSH1 0x40 MLOAD PUSH1 0x40 MLOAD DUP1 SWAP2 SUB SWAP1 LOG3 POP POP JUMP JUMPDEST PUSH1 0x80 MLOAD PUSH2 0x3AAD PUSH3 0x1A7 PUSH1 0x0 CODECOPY PUSH1 0x0 DUP2 DUP2 PUSH2 0x4AE ADD MSTORE DUP2 DUP2 PUSH2 0x70A ADD MSTORE DUP2 DUP2 PUSH2 0xD78 ADD MSTORE DUP2 DUP2 PUSH2 0xF20 ADD MSTORE DUP2 DUP2 PUSH2 0x10D3 ADD MSTORE DUP2 DUP2 PUSH2 0x1569 ADD MSTORE DUP2 DUP2 PUSH2 0x1CB9 ADD MSTORE DUP2 DUP2 PUSH2 0x2046 ADD MSTORE PUSH2 0x25C9 ADD MSTORE PUSH2 0x3AAD PUSH1 0x0 RETURN INVALID PUSH1 0x80 PUSH1 0x40 MSTORE PUSH1 0x4 CALLDATASIZE LT PUSH2 0x10D JUMPI PUSH1 0x0 CALLDATALOAD PUSH1 0xE0 SHR DUP1 PUSH4 0x715018A6 GT PUSH2 0x95 JUMPI DUP1 PUSH4 0xC45A0155 GT PUSH2 0x64 JUMPI DUP1 PUSH4 0xC45A0155 EQ PUSH2 0x31E JUMPI DUP1 PUSH4 0xC6EA7038 EQ PUSH2 0x349 JUMPI DUP1 PUSH4 0xDAB5A8DF EQ PUSH2 0x374 JUMPI DUP1 PUSH4 0xE43372E9 EQ PUSH2 0x3B1 JUMPI DUP1 PUSH4 0xF2FDE38B EQ PUSH2 0x3DE JUMPI PUSH2 0x114 JUMP JUMPDEST DUP1 PUSH4 0x715018A6 EQ PUSH2 0x285 JUMPI DUP1 PUSH4 0x89523742 EQ PUSH2 0x29C JUMPI DUP1 PUSH4 0x8DA5CB5B EQ PUSH2 0x2C7 JUMPI DUP1 PUSH4 0xAA6CA808 EQ PUSH2 0x2F2 JUMPI PUSH2 0x114 JUMP JUMPDEST DUP1 PUSH4 0x3CCFD60B GT PUSH2 0xDC JUMPI DUP1 PUSH4 0x3CCFD60B EQ PUSH2 0x1BE JUMPI DUP1 PUSH4 0x3D370B4E EQ PUSH2 0x1D5 JUMPI DUP1 PUSH4 0x40A6F1AB EQ PUSH2 0x201 JUMPI DUP1 PUSH4 0x4341F920 EQ PUSH2 0x22C JUMPI DUP1 PUSH4 0x5F5780E5 EQ PUSH2 0x248 JUMPI PUSH2 0x114 JUMP JUMPDEST DUP1 PUSH4 0xD182605 EQ PUSH2 0x116 JUMPI DUP1 PUSH4 0x29DCB0CF EQ PUSH2 0x13F JUMPI DUP1 PUSH4 0x2FFC6887 EQ PUSH2 0x16A JUMPI DUP1 PUSH4 0x3072CF60 EQ PUSH2 0x193 JUMPI PUSH2 0x114 JUMP JUMPDEST CALLDATASIZE PUSH2 0x114 JUMPI STOP JUMPDEST STOP JUMPDEST CALLVALUE DUP1 ISZERO PUSH2 0x122 JUMPI PUSH1 0x0 DUP1 REVERT JUMPDEST POP PUSH2 0x13D PUSH1 0x4 DUP1 CALLDATASIZE SUB DUP2 ADD SWAP1 PUSH2 0x138 SWAP2 SWAP1 PUSH2 0x2898 JUMP JUMPDEST PUSH2 0x407 JUMP JUMPDEST STOP JUMPDEST CALLVALUE DUP1 ISZERO PUSH2 0x14B JUMPI PUSH1 0x0 DUP1 REVERT JUMPDEST POP PUSH2 0x154 PUSH2 0x65D JUMP JUMPDEST PUSH1 0x40 MLOAD PUSH2 0x161 SWAP2 SWAP1 PUSH2 0x28D4 JUMP JUMPDEST PUSH1 0x40 MLOAD DUP1 SWAP2 SUB SWAP1 RETURN JUMPDEST CALLVALUE DUP1 ISZERO PUSH2 0x176 JUMPI PUSH1 0x0 DUP1 REVERT JUMPDEST POP PUSH2 0x191 PUSH1 0x4 DUP1 CALLDATASIZE SUB DUP2 ADD SWAP1 PUSH2 0x18C SWAP2 SWAP1 PUSH2 0x2898 JUMP JUMPDEST PUSH2 0x663 JUMP JUMPDEST STOP JUMPDEST CALLVALUE DUP1 ISZERO PUSH2 0x19F JUMPI PUSH1 0x0 DUP1 REVERT JUMPDEST POP PUSH2 0x1A8 PUSH2 0x8B9 JUMP JUMPDEST PUSH1 0x40 MLOAD PUSH2 0x1B5 SWAP2 SWAP1 PUSH2 0x290A JUMP JUMPDEST PUSH1 0x40 MLOAD DUP1 SWAP2 SUB SWAP1 RETURN JUMPDEST CALLVALUE DUP1 ISZERO PUSH2 0x1CA JUMPI PUSH1 0x0 DUP1 REVERT JUMPDEST POP PUSH2 0x1D3 PUSH2 0x8CC JUMP JUMPDEST STOP JUMPDEST CALLVALUE DUP1 ISZERO PUSH2 0x1E1 JUMPI PUSH1 0x0 DUP1 REVERT JUMPDEST POP PUSH2 0x1EA PUSH2 0xE13 JUMP JUMPDEST PUSH1 0x40 MLOAD PUSH2 0x1F8 SWAP3 SWAP2 SWAP1 PUSH2 0x2925 JUMP JUMPDEST PUSH1 0x40 MLOAD DUP1 SWAP2 SUB SWAP1 RETURN JUMPDEST CALLVALUE DUP1 ISZERO PUSH2 0x20D JUMPI PUSH1 0x0 DUP1 REVERT JUMPDEST POP PUSH2 0x216 PUSH2 0xE73 JUMP JUMPDEST PUSH1 0x40 MLOAD PUSH2 0x223 SWAP2 SWAP1 PUSH2 0x28D4 JUMP JUMPDEST PUSH1 0x40 MLOAD DUP1 SWAP2 SUB SWAP1 RETURN JUMPDEST PUSH2 0x246 PUSH1 0x4 DUP1 CALLDATASIZE SUB DUP2 ADD SWAP1 PUSH2 0x241 SWAP2 SWAP1 PUSH2 0x2898 JUMP JUMPDEST PUSH2 0xE79 JUMP JUMPDEST STOP JUMPDEST CALLVALUE DUP1 ISZERO PUSH2 0x254 JUMPI PUSH1 0x0 DUP1 REVERT JUMPDEST POP PUSH2 0x26F PUSH1 0x4 DUP1 CALLDATASIZE SUB DUP2 ADD SWAP1 PUSH2 0x26A SWAP2 SWAP1 PUSH2 0x29FD JUMP JUMPDEST PUSH2 0x10CF JUMP JUMPDEST PUSH1 0x40 MLOAD PUSH2 0x27C SWAP2 SWAP1 PUSH2 0x290A JUMP JUMPDEST PUSH1 0x40 MLOAD DUP1 SWAP2 SUB SWAP1 RETURN JUMPDEST CALLVALUE DUP1 ISZERO PUSH2 0x291 JUMPI PUSH1 0x0 DUP1 REVERT JUMPDEST POP PUSH2 0x29A PUSH2 0x1403 JUMP JUMPDEST STOP JUMPDEST CALLVALUE DUP1 ISZERO PUSH2 0x2A8 JUMPI PUSH1 0x0 DUP1 REVERT JUMPDEST POP PUSH2 0x2B1 PUSH2 0x148B JUMP JUMPDEST PUSH1 0x40 MLOAD PUSH2 0x2BE SWAP2 SWAP1 PUSH2 0x2B2A JUMP JUMPDEST PUSH1 0x40 MLOAD DUP1 SWAP2 SUB SWAP1 RETURN JUMPDEST CALLVALUE DUP1 ISZERO PUSH2 0x2D3 JUMPI PUSH1 0x0 DUP1 REVERT JUMPDEST POP PUSH2 0x2DC PUSH2 0x149E JUMP JUMPDEST PUSH1 0x40 MLOAD PUSH2 0x2E9 SWAP2 SWAP1 PUSH2 0x2B54 JUMP JUMPDEST PUSH1 0x40 MLOAD DUP1 SWAP2 SUB SWAP1 RETURN JUMPDEST CALLVALUE DUP1 ISZERO PUSH2 0x2FE JUMPI PUSH1 0x0 DUP1 REVERT JUMPDEST POP PUSH2 0x307 PUSH2 0x14C7 JUMP JUMPDEST PUSH1 0x40 MLOAD PUSH2 0x315 SWAP3 SWAP2 SWAP1 PUSH2 0x2B6F JUMP JUMPDEST PUSH1 0x40 MLOAD DUP1 SWAP2 SUB SWAP1 RETURN JUMPDEST CALLVALUE DUP1 ISZERO PUSH2 0x32A JUMPI PUSH1 0x0 DUP1 REVERT JUMPDEST POP PUSH2 0x333 PUSH2 0x1567 JUMP JUMPDEST PUSH1 0x40 MLOAD PUSH2 0x340 SWAP2 SWAP1 PUSH2 0x2B54 JUMP JUMPDEST PUSH1 0x40 MLOAD DUP1 SWAP2 SUB SWAP1 RETURN JUMPDEST CALLVALUE DUP1 ISZERO PUSH2 0x355 JUMPI PUSH1 0x0 DUP1 REVERT JUMPDEST POP PUSH2 0x35E PUSH2 0x158B JUMP JUMPDEST PUSH1 0x40 MLOAD PUSH2 0x36B SWAP2 SWAP1 PUSH2 0x290A JUMP JUMPDEST PUSH1 0x40 MLOAD DUP1 SWAP2 SUB SWAP1 RETURN JUMPDEST CALLVALUE DUP1 ISZERO PUSH2 0x380 JUMPI PUSH1 0x0 DUP1 REVERT JUMPDEST POP PUSH2 0x39B PUSH1 0x4 DUP1 CALLDATASIZE SUB DUP2 ADD SWAP1 PUSH2 0x396 SWAP2 SWAP1 PUSH2 0x2898 JUMP JUMPDEST PUSH2 0x159E JUMP JUMPDEST PUSH1 0x40 MLOAD PUSH2 0x3A8 SWAP2 SWAP1 PUSH2 0x28D4 JUMP JUMPDEST PUSH1 0x40 MLOAD DUP1 SWAP2 SUB SWAP1 RETURN JUMPDEST CALLVALUE DUP1 ISZERO PUSH2 0x3BD JUMPI PUSH1 0x0 DUP1 REVERT JUMPDEST POP PUSH2 0x3C6 PUSH2 0x15C2 JUMP JUMPDEST PUSH1 0x40 MLOAD PUSH2 0x3D5 SWAP4 SWAP3 SWAP2 SWAP1 PUSH2 0x2D14 JUMP JUMPDEST PUSH1 0x40 MLOAD DUP1 SWAP2 SUB SWAP1 RETURN JUMPDEST CALLVALUE DUP1 ISZERO PUSH2 0x3EA JUMPI PUSH1 0x0 DUP1 REVERT JUMPDEST POP PUSH2 0x405 PUSH1 0x4 DUP1 CALLDATASIZE SUB DUP2 ADD SWAP1 PUSH2 0x400 SWAP2 SWAP1 PUSH2 0x2D60 JUMP JUMPDEST PUSH2 0x185E JUMP JUMPDEST STOP JUMPDEST TIMESTAMP PUSH1 0x3 SLOAD LT ISZERO DUP1 ISZERO PUSH2 0x41C JUMPI POP PUSH1 0x8 SLOAD PUSH1 0x1 SLOAD LT JUMPDEST PUSH2 0x45B JUMPI PUSH1 0x40 MLOAD PUSH32 0x8C379A000000000000000000000000000000000000000000000000000000000 DUP2 MSTORE PUSH1 0x4 ADD PUSH2 0x452 SWAP1 PUSH2 0x2DEA JUMP JUMPDEST PUSH1 0x40 MLOAD DUP1 SWAP2 SUB SWAP1 REVERT JUMPDEST PUSH1 0x4 PUSH1 0x15 SWAP1 SLOAD SWAP1 PUSH2 0x100 EXP SWAP1 DIV PUSH1 0xFF AND PUSH2 0x4AA JUMPI PUSH1 0x40 MLOAD PUSH32 0x8C379A000000000000000000000000000000000000000000000000000000000 DUP2 MSTORE PUSH1 0x4 ADD PUSH2 0x4A1 SWAP1 PUSH2 0x2E56 JUMP JUMPDEST PUSH1 0x40 MLOAD DUP1 SWAP2 SUB SWAP1 REVERT JUMPDEST PUSH1 0x0 PUSH32 0x0 SWAP1 POP DUP1 PUSH20 0xFFFFFFFFFFFFFFFFFFFFFFFFFFFFFFFFFFFFFFFF AND PUSH4 0xB187BD26 PUSH1 0x40 MLOAD DUP2 PUSH4 0xFFFFFFFF AND PUSH1 0xE0 SHL DUP2 MSTORE PUSH1 0x4 ADD PUSH1 0x20 PUSH1 0x40 MLOAD DUP1 DUP4 SUB DUP2 DUP7 GAS STATICCALL ISZERO DUP1 ISZERO PUSH2 0x51A JUMPI RETURNDATASIZE PUSH1 0x0 DUP1 RETURNDATACOPY RETURNDATASIZE PUSH1 0x0 REVERT JUMPDEST POP POP POP POP PUSH1 0x40 MLOAD RETURNDATASIZE PUSH1 0x1F NOT PUSH1 0x1F DUP3 ADD AND DUP3 ADD DUP1 PUSH1 0x40 MSTORE POP DUP2 ADD SWAP1 PUSH2 0x53E SWAP2 SWAP1 PUSH2 0x2E8B JUMP JUMPDEST ISZERO PUSH2 0x57E JUMPI PUSH1 0x40 MLOAD PUSH32 0x8C379A000000000000000000000000000000000000000000000000000000000 DUP2 MSTORE PUSH1 0x4 ADD PUSH2 0x575 SWAP1 PUSH2 0x2F2A JUMP JUMPDEST PUSH1 0x40 MLOAD DUP1 SWAP2 SUB SWAP1 REVERT JUMPDEST PUSH1 0x0 PUSH1 0x4 PUSH1 0x0 SWAP1 SLOAD SWAP1 PUSH2 0x100 EXP SWAP1 DIV PUSH1 0xFF AND PUSH1 0x2 DUP2 GT ISZERO PUSH2 0x5A2 JUMPI PUSH2 0x5A1 PUSH2 0x2AB3 JUMP JUMPDEST JUMPDEST DUP2 PUSH1 0x2 DUP2 GT ISZERO PUSH2 0x5B5 JUMPI PUSH2 0x5B4 PUSH2 0x2AB3 JUMP JUMPDEST JUMPDEST EQ PUSH2 0x5F5 JUMPI PUSH1 0x40 MLOAD PUSH32 0x8C379A000000000000000000000000000000000000000000000000000000000 DUP2 MSTORE PUSH1 0x4 ADD PUSH2 0x5EC SWAP1 PUSH2 0x2FBC JUMP JUMPDEST PUSH1 0x40 MLOAD DUP1 SWAP2 SUB SWAP1 REVERT JUMPDEST PUSH1 0x2 PUSH1 0x0 SWAP1 SLOAD SWAP1 PUSH2 0x100 EXP SWAP1 DIV PUSH1 0xFF AND PUSH2 0x64F JUMPI PUSH1 0x8 SLOAD DUP4 LT ISZERO PUSH2 0x64E JUMPI PUSH1 0x40 MLOAD PUSH32 0x8C379A000000000000000000000000000000000000000000000000000000000 DUP2 MSTORE PUSH1 0x4 ADD PUSH2 0x645 SWAP1 PUSH2 0x304E JUMP JUMPDEST PUSH1 0x40 MLOAD DUP1 SWAP2 SUB SWAP1 REVERT JUMPDEST JUMPDEST PUSH2 0x658 DUP4 PUSH2 0x1955 JUMP JUMPDEST POP POP POP JUMP JUMPDEST PUSH1 0x3 SLOAD DUP2 JUMP JUMPDEST TIMESTAMP PUSH1 0x3 SLOAD LT ISZERO DUP1 ISZERO PUSH2 0x678 JUMPI POP PUSH1 0x8 SLOAD PUSH1 0x1 SLOAD LT JUMPDEST PUSH2 0x6B7 JUMPI PUSH1 0x40 MLOAD PUSH32 0x8C379A000000000000000000000000000000000000000000000000000000000 DUP2 MSTORE PUSH1 0x4 ADD PUSH2 0x6AE SWAP1 PUSH2 0x2DEA JUMP JUMPDEST PUSH1 0x40 MLOAD DUP1 SWAP2 SUB SWAP1 REVERT JUMPDEST PUSH1 0x4 PUSH1 0x15 SWAP1 SLOAD SWAP1 PUSH2 0x100 EXP SWAP1 DIV PUSH1 0xFF AND PUSH2 0x706 JUMPI PUSH1 0x40 MLOAD PUSH32 0x8C379A000000000000000000000000000000000000000000000000000000000 DUP2 MSTORE PUSH1 0x4 ADD PUSH2 0x6FD SWAP1 PUSH2 0x2E56 JUMP JUMPDEST PUSH1 0x40 MLOAD DUP1 SWAP2 SUB SWAP1 REVERT JUMPDEST PUSH1 0x0 PUSH32 0x0 SWAP1 POP DUP1 PUSH20 0xFFFFFFFFFFFFFFFFFFFFFFFFFFFFFFFFFFFFFFFF AND PUSH4 0xB187BD26 PUSH1 0x40 MLOAD DUP2 PUSH4 0xFFFFFFFF AND PUSH1 0xE0 SHL DUP2 MSTORE PUSH1 0x4 ADD PUSH1 0x20 PUSH1 0x40 MLOAD DUP1 DUP4 SUB DUP2 DUP7 GAS STATICCALL ISZERO DUP1 ISZERO PUSH2 0x776 JUMPI RETURNDATASIZE PUSH1 0x0 DUP1 RETURNDATACOPY RETURNDATASIZE PUSH1 0x0 REVERT JUMPDEST POP POP POP POP PUSH1 0x40 MLOAD RETURNDATASIZE PUSH1 0x1F NOT PUSH1 0x1F DUP3 ADD AND DUP3 ADD DUP1 PUSH1 0x40 MSTORE POP DUP2 ADD SWAP1 PUSH2 0x79A SWAP2 SWAP1 PUSH2 0x2E8B JUMP JUMPDEST ISZERO PUSH2 0x7DA JUMPI PUSH1 0x40 MLOAD PUSH32 0x8C379A000000000000000000000000000000000000000000000000000000000 DUP2 MSTORE PUSH1 0x4 ADD PUSH2 0x7D1 SWAP1 PUSH2 0x2F2A JUMP JUMPDEST PUSH1 0x40 MLOAD DUP1 SWAP2 SUB SWAP1 REVERT JUMPDEST PUSH1 0x2 PUSH1 0x4 PUSH1 0x0 SWAP1 SLOAD SWAP1 PUSH2 0x100 EXP SWAP1 DIV PUSH1 0xFF AND PUSH1 0x2 DUP2 GT ISZERO PUSH2 0x7FE JUMPI PUSH2 0x7FD PUSH2 0x2AB3 JUMP JUMPDEST JUMPDEST DUP2 PUSH1 0x2 DUP2 GT ISZERO PUSH2 0x811 JUMPI PUSH2 0x810 PUSH2 0x2AB3 JUMP JUMPDEST JUMPDEST EQ PUSH2 0x851 JUMPI PUSH1 0x40 MLOAD PUSH32 0x8C379A000000000000000000000000000000000000000000000000000000000 DUP2 MSTORE PUSH1 0x4 ADD PUSH2 0x848 SWAP1 PUSH2 0x2FBC JUMP JUMPDEST PUSH1 0x40 MLOAD DUP1 SWAP2 SUB SWAP1 REVERT JUMPDEST PUSH1 0x2 PUSH1 0x0 SWAP1 SLOAD SWAP1 PUSH2 0x100 EXP SWAP1 DIV PUSH1 0xFF AND PUSH2 0x8AB JUMPI PUSH1 0x8 SLOAD DUP4 LT ISZERO PUSH2 0x8AA JUMPI PUSH1 0x40 MLOAD PUSH32 0x8C379A000000000000000000000000000000000000000000000000000000000 DUP2 MSTORE PUSH1 0x4 ADD PUSH2 0x8A1 SWAP1 PUSH2 0x304E JUMP JUMPDEST PUSH1 0x40 MLOAD DUP1 SWAP2 SUB SWAP1 REVERT JUMPDEST JUMPDEST PUSH2 0x8B4 DUP4 PUSH2 0x1D51 JUMP JUMPDEST POP POP POP JUMP JUMPDEST PUSH1 0x4 PUSH1 0x15 SWAP1 SLOAD SWAP1 PUSH2 0x100 EXP SWAP1 DIV PUSH1 0xFF AND DUP2 JUMP JUMPDEST TIMESTAMP PUSH1 0x3 SLOAD LT DUP1 PUSH2 0x8E0 JUMPI POP PUSH1 0x8 SLOAD PUSH1 0x1 SLOAD LT ISZERO JUMPDEST PUSH2 0x91F JUMPI PUSH1 0x40 MLOAD PUSH32 0x8C379A000000000000000000000000000000000000000000000000000000000 DUP2 MSTORE PUSH1 0x4 ADD PUSH2 0x916 SWAP1 PUSH2 0x30BA JUMP JUMPDEST PUSH1 0x40 MLOAD DUP1 SWAP2 SUB SWAP1 REVERT JUMPDEST PUSH1 0x4 PUSH1 0x15 SWAP1 SLOAD SWAP1 PUSH2 0x100 EXP SWAP1 DIV PUSH1 0xFF AND PUSH2 0x96E JUMPI PUSH1 0x40 MLOAD PUSH32 0x8C379A000000000000000000000000000000000000000000000000000000000 DUP2 MSTORE PUSH1 0x4 ADD PUSH2 0x965 SWAP1 PUSH2 0x2E56 JUMP JUMPDEST PUSH1 0x40 MLOAD DUP1 SWAP2 SUB SWAP1 REVERT JUMPDEST PUSH2 0x976 PUSH2 0x20DD JUMP JUMPDEST PUSH20 0xFFFFFFFFFFFFFFFFFFFFFFFFFFFFFFFFFFFFFFFF AND PUSH2 0x994 PUSH2 0x149E JUMP JUMPDEST PUSH20 0xFFFFFFFFFFFFFFFFFFFFFFFFFFFFFFFFFFFFFFFF AND EQ PUSH2 0x9EA JUMPI PUSH1 0x40 MLOAD PUSH32 0x8C379A000000000000000000000000000000000000000000000000000000000 DUP2 MSTORE PUSH1 0x4 ADD PUSH2 0x9E1 SWAP1 PUSH2 0x3126 JUMP JUMPDEST PUSH1 0x40 MLOAD DUP1 SWAP2 SUB SWAP1 REVERT JUMPDEST PUSH1 0x0 PUSH1 0x4 PUSH1 0x1 SWAP1 SLOAD SWAP1 PUSH2 0x100 EXP SWAP1 DIV PUSH20 0xFFFFFFFFFFFFFFFFFFFFFFFFFFFFFFFFFFFFFFFF AND SWAP1 POP PUSH1 0x0 DUP2 PUSH20 0xFFFFFFFFFFFFFFFFFFFFFFFFFFFFFFFFFFFFFFFF AND PUSH4 0x70A08231 ADDRESS PUSH1 0x40 MLOAD DUP3 PUSH4 0xFFFFFFFF AND PUSH1 0xE0 SHL DUP2 MSTORE PUSH1 0x4 ADD PUSH2 0xA4C SWAP2 SWAP1 PUSH2 0x2B54 JUMP JUMPDEST PUSH1 0x20 PUSH1 0x40 MLOAD DUP1 DUP4 SUB DUP2 DUP7 GAS STATICCALL ISZERO DUP1 ISZERO PUSH2 0xA69 JUMPI RETURNDATASIZE PUSH1 0x0 DUP1 RETURNDATACOPY RETURNDATASIZE PUSH1 0x0 REVERT JUMPDEST POP POP POP POP PUSH1 0x40 MLOAD RETURNDATASIZE PUSH1 0x1F NOT PUSH1 0x1F DUP3 ADD AND DUP3 ADD DUP1 PUSH1 0x40 MSTORE POP DUP2 ADD SWAP1 PUSH2 0xA8D SWAP2 SWAP1 PUSH2 0x315B JUMP JUMPDEST SWAP1 POP PUSH1 0x0 DUP2 GT ISZERO PUSH2 0xB30 JUMPI PUSH1 0x4 PUSH1 0x1 SWAP1 SLOAD SWAP1 PUSH2 0x100 EXP SWAP1 DIV PUSH20 0xFFFFFFFFFFFFFFFFFFFFFFFFFFFFFFFFFFFFFFFF AND PUSH20 0xFFFFFFFFFFFFFFFFFFFFFFFFFFFFFFFFFFFFFFFF AND PUSH4 0x2E1A7D4D DUP3 PUSH1 0x40 MLOAD DUP3 PUSH4 0xFFFFFFFF AND PUSH1 0xE0 SHL DUP2 MSTORE PUSH1 0x4 ADD PUSH2 0xAF3 SWAP2 SWAP1 PUSH2 0x28D4 JUMP JUMPDEST PUSH1 0x0 PUSH1 0x40 MLOAD DUP1 DUP4 SUB DUP2 PUSH1 0x0 DUP8 DUP1 EXTCODESIZE ISZERO DUP1 ISZERO PUSH2 0xB0D JUMPI PUSH1 0x0 DUP1 REVERT JUMPDEST POP GAS CALL ISZERO DUP1 ISZERO PUSH2 0xB21 JUMPI RETURNDATASIZE PUSH1 0x0 DUP1 RETURNDATACOPY RETURNDATASIZE PUSH1 0x0 REVERT JUMPDEST POP POP POP POP PUSH2 0xB2F CALLER DUP3 PUSH2 0x20E5 JUMP JUMPDEST JUMPDEST PUSH1 0x0 PUSH1 0x6 PUSH1 0x0 SWAP1 SLOAD SWAP1 PUSH2 0x100 EXP SWAP1 DIV PUSH20 0xFFFFFFFFFFFFFFFFFFFFFFFFFFFFFFFFFFFFFFFF AND PUSH20 0xFFFFFFFFFFFFFFFFFFFFFFFFFFFFFFFFFFFFFFFF AND PUSH4 0x70A08231 ADDRESS PUSH1 0x40 MLOAD DUP3 PUSH4 0xFFFFFFFF AND PUSH1 0xE0 SHL DUP2 MSTORE PUSH1 0x4 ADD PUSH2 0xB8D SWAP2 SWAP1 PUSH2 0x2B54 JUMP JUMPDEST PUSH1 0x20 PUSH1 0x40 MLOAD DUP1 DUP4 SUB DUP2 DUP7 GAS STATICCALL ISZERO DUP1 ISZERO PUSH2 0xBAA JUMPI RETURNDATASIZE PUSH1 0x0 DUP1 RETURNDATACOPY RETURNDATASIZE PUSH1 0x0 REVERT JUMPDEST POP POP POP POP PUSH1 0x40 MLOAD RETURNDATASIZE PUSH1 0x1F NOT PUSH1 0x1F DUP3 ADD AND DUP3 ADD DUP1 PUSH1 0x40 MSTORE POP DUP2 ADD SWAP1 PUSH2 0xBCE SWAP2 SWAP1 PUSH2 0x315B JUMP JUMPDEST SWAP1 POP PUSH1 0x0 DUP2 GT ISZERO PUSH2 0xC07 JUMPI PUSH2 0xC06 PUSH1 0x6 PUSH1 0x0 SWAP1 SLOAD SWAP1 PUSH2 0x100 EXP SWAP1 DIV PUSH20 0xFFFFFFFFFFFFFFFFFFFFFFFFFFFFFFFFFFFFFFFF AND CALLER DUP4 PUSH2 0x21E5 JUMP JUMPDEST JUMPDEST PUSH1 0x0 PUSH1 0x5 PUSH1 0x0 SWAP1 SLOAD SWAP1 PUSH2 0x100 EXP SWAP1 DIV PUSH20 0xFFFFFFFFFFFFFFFFFFFFFFFFFFFFFFFFFFFFFFFF AND PUSH20 0xFFFFFFFFFFFFFFFFFFFFFFFFFFFFFFFFFFFFFFFF AND PUSH4 0x70A08231 ADDRESS PUSH1 0x40 MLOAD DUP3 PUSH4 0xFFFFFFFF AND PUSH1 0xE0 SHL DUP2 MSTORE PUSH1 0x4 ADD PUSH2 0xC64 SWAP2 SWAP1 PUSH2 0x2B54 JUMP JUMPDEST PUSH1 0x20 PUSH1 0x40 MLOAD DUP1 DUP4 SUB DUP2 DUP7 GAS STATICCALL ISZERO DUP1 ISZERO PUSH2 0xC81 JUMPI RETURNDATASIZE PUSH1 0x0 DUP1 RETURNDATACOPY RETURNDATASIZE PUSH1 0x0 REVERT JUMPDEST POP POP POP POP PUSH1 0x40 MLOAD RETURNDATASIZE PUSH1 0x1F NOT PUSH1 0x1F DUP3 ADD AND DUP3 ADD DUP1 PUSH1 0x40 MSTORE POP DUP2 ADD SWAP1 PUSH2 0xCA5 SWAP2 SWAP1 PUSH2 0x315B JUMP JUMPDEST SWAP1 POP PUSH1 0x0 DUP2 GT ISZERO PUSH2 0xCDE JUMPI PUSH2 0xCDD PUSH1 0x5 PUSH1 0x0 SWAP1 SLOAD SWAP1 PUSH2 0x100 EXP SWAP1 DIV PUSH20 0xFFFFFFFFFFFFFFFFFFFFFFFFFFFFFFFFFFFFFFFF AND CALLER DUP4 PUSH2 0x21E5 JUMP JUMPDEST JUMPDEST PUSH1 0x0 DUP1 PUSH1 0x0 PUSH1 0x2 DUP2 GT ISZERO PUSH2 0xCF5 JUMPI PUSH2 0xCF4 PUSH2 0x2AB3 JUMP JUMPDEST JUMPDEST PUSH1 0x4 PUSH1 0x0 SWAP1 SLOAD SWAP1 PUSH2 0x100 EXP SWAP1 DIV PUSH1 0xFF AND PUSH1 0x2 DUP2 GT ISZERO PUSH2 0xD17 JUMPI PUSH2 0xD16 PUSH2 0x2AB3 JUMP JUMPDEST JUMPDEST SUB PUSH2 0xD27 JUMPI DUP5 SWAP2 POP DUP4 SWAP1 POP PUSH2 0xD74 JUMP JUMPDEST PUSH1 0x2 DUP1 DUP2 GT ISZERO PUSH2 0xD3A JUMPI PUSH2 0xD39 PUSH2 0x2AB3 JUMP JUMPDEST JUMPDEST PUSH1 0x4 PUSH1 0x0 SWAP1 SLOAD SWAP1 PUSH2 0x100 EXP SWAP1 DIV PUSH1 0xFF AND PUSH1 0x2 DUP2 GT ISZERO PUSH2 0xD5C JUMPI PUSH2 0xD5B PUSH2 0x2AB3 JUMP JUMPDEST JUMPDEST SUB PUSH2 0xD6C JUMPI DUP3 SWAP2 POP DUP4 SWAP1 POP PUSH2 0xD73 JUMP JUMPDEST DUP3 SWAP2 POP DUP5 SWAP1 POP JUMPDEST JUMPDEST PUSH1 0x0 PUSH32 0x0 SWAP1 POP DUP1 PUSH20 0xFFFFFFFFFFFFFFFFFFFFFFFFFFFFFFFFFFFFFFFF AND PUSH4 0x33796A0E ADDRESS CALLER DUP7 DUP7 PUSH1 0x40 MLOAD DUP6 PUSH4 0xFFFFFFFF AND PUSH1 0xE0 SHL DUP2 MSTORE PUSH1 0x4 ADD PUSH2 0xDD8 SWAP5 SWAP4 SWAP3 SWAP2 SWAP1 PUSH2 0x3188 JUMP JUMPDEST PUSH1 0x0 PUSH1 0x40 MLOAD DUP1 DUP4 SUB DUP2 PUSH1 0x0 DUP8 DUP1 EXTCODESIZE ISZERO DUP1 ISZERO PUSH2 0xDF2 JUMPI PUSH1 0x0 DUP1 REVERT JUMPDEST POP GAS CALL ISZERO DUP1 ISZERO PUSH2 0xE06 JUMPI RETURNDATASIZE PUSH1 0x0 DUP1 RETURNDATACOPY RETURNDATASIZE PUSH1 0x0 REVERT JUMPDEST POP POP POP POP POP POP POP POP POP POP POP JUMP JUMPDEST PUSH1 0x0 DUP1 PUSH1 0x4 PUSH1 0x15 SWAP1 SLOAD SWAP1 PUSH2 0x100 EXP SWAP1 DIV PUSH1 0xFF AND PUSH2 0xE65 JUMPI PUSH1 0x40 MLOAD PUSH32 0x8C379A000000000000000000000000000000000000000000000000000000000 DUP2 MSTORE PUSH1 0x4 ADD PUSH2 0xE5C SWAP1 PUSH2 0x2E56 JUMP JUMPDEST PUSH1 0x40 MLOAD DUP1 SWAP2 SUB SWAP1 REVERT JUMPDEST PUSH1 0x7 SLOAD PUSH1 0x8 SLOAD SWAP2 POP SWAP2 POP SWAP1 SWAP2 JUMP JUMPDEST PUSH1 0x1 SLOAD DUP2 JUMP JUMPDEST TIMESTAMP PUSH1 0x3 SLOAD LT ISZERO DUP1 ISZERO PUSH2 0xE8E JUMPI POP PUSH1 0x8 SLOAD PUSH1 0x1 SLOAD LT JUMPDEST PUSH2 0xECD JUMPI PUSH1 0x40 MLOAD PUSH32 0x8C379A000000000000000000000000000000000000000000000000000000000 DUP2 MSTORE PUSH1 0x4 ADD PUSH2 0xEC4 SWAP1 PUSH2 0x2DEA JUMP JUMPDEST PUSH1 0x40 MLOAD DUP1 SWAP2 SUB SWAP1 REVERT JUMPDEST PUSH1 0x4 PUSH1 0x15 SWAP1 SLOAD SWAP1 PUSH2 0x100 EXP SWAP1 DIV PUSH1 0xFF AND PUSH2 0xF1C JUMPI PUSH1 0x40 MLOAD PUSH32 0x8C379A000000000000000000000000000000000000000000000000000000000 DUP2 MSTORE PUSH1 0x4 ADD PUSH2 0xF13 SWAP1 PUSH2 0x2E56 JUMP JUMPDEST PUSH1 0x40 MLOAD DUP1 SWAP2 SUB SWAP1 REVERT JUMPDEST PUSH1 0x0 PUSH32 0x0 SWAP1 POP DUP1 PUSH20 0xFFFFFFFFFFFFFFFFFFFFFFFFFFFFFFFFFFFFFFFF AND PUSH4 0xB187BD26 PUSH1 0x40 MLOAD DUP2 PUSH4 0xFFFFFFFF AND PUSH1 0xE0 SHL DUP2 MSTORE PUSH1 0x4 ADD PUSH1 0x20 PUSH1 0x40 MLOAD DUP1 DUP4 SUB DUP2 DUP7 GAS STATICCALL ISZERO DUP1 ISZERO PUSH2 0xF8C JUMPI RETURNDATASIZE PUSH1 0x0 DUP1 RETURNDATACOPY RETURNDATASIZE PUSH1 0x0 REVERT JUMPDEST POP POP POP POP PUSH1 0x40 MLOAD RETURNDATASIZE PUSH1 0x1F NOT PUSH1 0x1F DUP3 ADD AND DUP3 ADD DUP1 PUSH1 0x40 MSTORE POP DUP2 ADD SWAP1 PUSH2 0xFB0 SWAP2 SWAP1 PUSH2 0x2E8B JUMP JUMPDEST ISZERO PUSH2 0xFF0 JUMPI PUSH1 0x40 MLOAD PUSH32 0x8C379A000000000000000000000000000000000000000000000000000000000 DUP2 MSTORE PUSH1 0x4 ADD PUSH2 0xFE7 SWAP1 PUSH2 0x2F2A JUMP JUMPDEST PUSH1 0x40 MLOAD DUP1 SWAP2 SUB SWAP1 REVERT JUMPDEST PUSH1 0x1 PUSH1 0x4 PUSH1 0x0 SWAP1 SLOAD SWAP1 PUSH2 0x100 EXP SWAP1 DIV PUSH1 0xFF AND PUSH1 0x2 DUP2 GT ISZERO PUSH2 0x1014 JUMPI PUSH2 0x1013 PUSH2 0x2AB3 JUMP JUMPDEST JUMPDEST DUP2 PUSH1 0x2 DUP2 GT ISZERO PUSH2 0x1027 JUMPI PUSH2 0x1026 PUSH2 0x2AB3 JUMP JUMPDEST JUMPDEST EQ PUSH2 0x1067 JUMPI PUSH1 0x40 MLOAD PUSH32 0x8C379A000000000000000000000000000000000000000000000000000000000 DUP2 MSTORE PUSH1 0x4 ADD PUSH2 0x105E SWAP1 PUSH2 0x2FBC JUMP JUMPDEST PUSH1 0x40 MLOAD DUP1 SWAP2 SUB SWAP1 REVERT JUMPDEST PUSH1 0x2 PUSH1 0x0 SWAP1 SLOAD SWAP1 PUSH2 0x100 EXP SWAP1 DIV PUSH1 0xFF AND PUSH2 0x10C1 JUMPI PUSH1 0x8 SLOAD CALLVALUE LT ISZERO PUSH2 0x10C0 JUMPI PUSH1 0x40 MLOAD PUSH32 0x8C379A000000000000000000000000000000000000000000000000000000000 DUP2 MSTORE PUSH1 0x4 ADD PUSH2 0x10B7 SWAP1 PUSH2 0x304E JUMP JUMPDEST PUSH1 0x40 MLOAD DUP1 SWAP2 SUB SWAP1 REVERT JUMPDEST JUMPDEST PUSH2 0x10CA DUP4 PUSH2 0x231B JUMP JUMPDEST POP POP POP JUMP JUMPDEST PUSH1 0x0 PUSH32 0x0 PUSH20 0xFFFFFFFFFFFFFFFFFFFFFFFFFFFFFFFFFFFFFFFF AND CALLER PUSH20 0xFFFFFFFFFFFFFFFFFFFFFFFFFFFFFFFFFFFFFFFF AND EQ PUSH2 0x115F JUMPI PUSH1 0x40 MLOAD PUSH32 0x8C379A000000000000000000000000000000000000000000000000000000000 DUP2 MSTORE PUSH1 0x4 ADD PUSH2 0x1156 SWAP1 PUSH2 0x3219 JUMP JUMPDEST PUSH1 0x40 MLOAD DUP1 SWAP2 SUB SWAP1 REVERT JUMPDEST PUSH1 0x4 PUSH1 0x15 SWAP1 SLOAD SWAP1 PUSH2 0x100 EXP SWAP1 DIV PUSH1 0xFF AND ISZERO PUSH2 0x11AF JUMPI PUSH1 0x40 MLOAD PUSH32 0x8C379A000000000000000000000000000000000000000000000000000000000 DUP2 MSTORE PUSH1 0x4 ADD PUSH2 0x11A6 SWAP1 PUSH2 0x32AB JUMP JUMPDEST PUSH1 0x40 MLOAD DUP1 SWAP2 SUB SWAP1 REVERT JUMPDEST TIMESTAMP DUP5 LT ISZERO PUSH2 0x11F2 JUMPI PUSH1 0x40 MLOAD PUSH32 0x8C379A000000000000000000000000000000000000000000000000000000000 DUP2 MSTORE PUSH1 0x4 ADD PUSH2 0x11E9 SWAP1 PUSH2 0x3317 JUMP JUMPDEST PUSH1 0x40 MLOAD DUP1 SWAP2 SUB SWAP1 REVERT JUMPDEST DUP6 DUP9 PUSH20 0xFFFFFFFFFFFFFFFFFFFFFFFFFFFFFFFFFFFFFFFF AND PUSH4 0x70A08231 ADDRESS PUSH1 0x40 MLOAD DUP3 PUSH4 0xFFFFFFFF AND PUSH1 0xE0 SHL DUP2 MSTORE PUSH1 0x4 ADD PUSH2 0x122C SWAP2 SWAP1 PUSH2 0x2B54 JUMP JUMPDEST PUSH1 0x20 PUSH1 0x40 MLOAD DUP1 DUP4 SUB DUP2 DUP7 GAS STATICCALL ISZERO DUP1 ISZERO PUSH2 0x1249 JUMPI RETURNDATASIZE PUSH1 0x0 DUP1 RETURNDATACOPY RETURNDATASIZE PUSH1 0x0 REVERT JUMPDEST POP POP POP POP PUSH1 0x40 MLOAD RETURNDATASIZE PUSH1 0x1F NOT PUSH1 0x1F DUP3 ADD AND DUP3 ADD DUP1 PUSH1 0x40 MSTORE POP DUP2 ADD SWAP1 PUSH2 0x126D SWAP2 SWAP1 PUSH2 0x315B JUMP JUMPDEST LT ISZERO PUSH2 0x12AE JUMPI PUSH1 0x40 MLOAD PUSH32 0x8C379A000000000000000000000000000000000000000000000000000000000 DUP2 MSTORE PUSH1 0x4 ADD PUSH2 0x12A5 SWAP1 PUSH2 0x33A9 JUMP JUMPDEST PUSH1 0x40 MLOAD DUP1 SWAP2 SUB SWAP1 REVERT JUMPDEST DUP4 PUSH1 0x3 DUP2 SWAP1 SSTORE POP DUP8 PUSH1 0x5 PUSH1 0x0 PUSH2 0x100 EXP DUP2 SLOAD DUP2 PUSH20 0xFFFFFFFFFFFFFFFFFFFFFFFFFFFFFFFFFFFFFFFF MUL NOT AND SWAP1 DUP4 PUSH20 0xFFFFFFFFFFFFFFFFFFFFFFFFFFFFFFFFFFFFFFFF AND MUL OR SWAP1 SSTORE POP DUP7 PUSH1 0x6 PUSH1 0x0 PUSH2 0x100 EXP DUP2 SLOAD DUP2 PUSH20 0xFFFFFFFFFFFFFFFFFFFFFFFFFFFFFFFFFFFFFFFF MUL NOT AND SWAP1 DUP4 PUSH20 0xFFFFFFFFFFFFFFFFFFFFFFFFFFFFFFFFFFFFFFFF AND MUL OR SWAP1 SSTORE POP DUP6 PUSH1 0x7 DUP2 SWAP1 SSTORE POP DUP5 PUSH1 0x8 DUP2 SWAP1 SSTORE POP DUP9 PUSH1 0x4 PUSH1 0x0 PUSH2 0x100 EXP DUP2 SLOAD DUP2 PUSH1 0xFF MUL NOT AND SWAP1 DUP4 PUSH1 0x2 DUP2 GT ISZERO PUSH2 0x136A JUMPI PUSH2 0x1369 PUSH2 0x2AB3 JUMP JUMPDEST JUMPDEST MUL OR SWAP1 SSTORE POP DUP3 PUSH1 0x2 PUSH1 0x0 PUSH2 0x100 EXP DUP2 SLOAD DUP2 PUSH1 0xFF MUL NOT AND SWAP1 DUP4 ISZERO ISZERO MUL OR SWAP1 SSTORE POP DUP2 PUSH1 0x4 PUSH1 0x1 PUSH2 0x100 EXP DUP2 SLOAD DUP2 PUSH20 0xFFFFFFFFFFFFFFFFFFFFFFFFFFFFFFFFFFFFFFFF MUL NOT AND SWAP1 DUP4 PUSH20 0xFFFFFFFFFFFFFFFFFFFFFFFFFFFFFFFFFFFFFFFF AND MUL OR SWAP1 SSTORE POP PUSH1 0x1 PUSH1 0x4 PUSH1 0x15 PUSH2 0x100 EXP DUP2 SLOAD DUP2 PUSH1 0xFF MUL NOT AND SWAP1 DUP4 ISZERO ISZERO MUL OR SWAP1 SSTORE POP PUSH1 0x4 PUSH1 0x15 SWAP1 SLOAD SWAP1 PUSH2 0x100 EXP SWAP1 DIV PUSH1 0xFF AND SWAP1 POP SWAP9 SWAP8 POP POP POP POP POP POP POP POP JUMP JUMPDEST PUSH2 0x140B PUSH2 0x20DD JUMP JUMPDEST PUSH20 0xFFFFFFFFFFFFFFFFFFFFFFFFFFFFFFFFFFFFFFFF AND PUSH2 0x1429 PUSH2 0x149E JUMP JUMPDEST PUSH20 0xFFFFFFFFFFFFFFFFFFFFFFFFFFFFFFFFFFFFFFFF AND EQ PUSH2 0x147F JUMPI PUSH1 0x40 MLOAD PUSH32 0x8C379A000000000000000000000000000000000000000000000000000000000 DUP2 MSTORE PUSH1 0x4 ADD PUSH2 0x1476 SWAP1 PUSH2 0x3126 JUMP JUMPDEST PUSH1 0x40 MLOAD DUP1 SWAP2 SUB SWAP1 REVERT JUMPDEST PUSH2 0x1489 PUSH1 0x0 PUSH2 0x2660 JUMP JUMPDEST JUMP JUMPDEST PUSH1 0x4 PUSH1 0x0 SWAP1 SLOAD SWAP1 PUSH2 0x100 EXP SWAP1 DIV PUSH1 0xFF AND DUP2 JUMP JUMPDEST PUSH1 0x0 DUP1 PUSH1 0x0 SWAP1 SLOAD SWAP1 PUSH2 0x100 EXP SWAP1 DIV PUSH20 0xFFFFFFFFFFFFFFFFFFFFFFFFFFFFFFFFFFFFFFFF AND SWAP1 POP SWAP1 JUMP JUMPDEST PUSH1 0x0 DUP1 PUSH1 0x4 PUSH1 0x15 SWAP1 SLOAD SWAP1 PUSH2 0x100 EXP SWAP1 DIV PUSH1 0xFF AND PUSH2 0x1519 JUMPI PUSH1 0x40 MLOAD PUSH32 0x8C379A000000000000000000000000000000000000000000000000000000000 DUP2 MSTORE PUSH1 0x4 ADD PUSH2 0x1510 SWAP1 PUSH2 0x2E56 JUMP JUMPDEST PUSH1 0x40 MLOAD DUP1 SWAP2 SUB SWAP1 REVERT JUMPDEST PUSH1 0x5 PUSH1 0x0 SWAP1 SLOAD SWAP1 PUSH2 0x100 EXP SWAP1 DIV PUSH20 0xFFFFFFFFFFFFFFFFFFFFFFFFFFFFFFFFFFFFFFFF AND PUSH1 0x6 PUSH1 0x0 SWAP1 SLOAD SWAP1 PUSH2 0x100 EXP SWAP1 DIV PUSH20 0xFFFFFFFFFFFFFFFFFFFFFFFFFFFFFFFFFFFFFFFF AND SWAP2 POP SWAP2 POP SWAP1 SWAP2 JUMP JUMPDEST PUSH32 0x0 DUP2 JUMP JUMPDEST PUSH1 0x2 PUSH1 0x0 SWAP1 SLOAD SWAP1 PUSH2 0x100 EXP SWAP1 DIV PUSH1 0xFF AND DUP2 JUMP JUMPDEST PUSH1 0x0 PUSH1 0x8 SLOAD PUSH1 0x7 SLOAD DUP4 PUSH2 0x15B1 SWAP2 SWAP1 PUSH2 0x33F8 JUMP JUMPDEST PUSH2 0x15BB SWAP2 SWAP1 PUSH2 0x3481 JUMP JUMPDEST SWAP1 POP SWAP2 SWAP1 POP JUMP JUMPDEST PUSH1 0x60 DUP1 PUSH1 0x60 PUSH1 0x4 PUSH1 0x15 SWAP1 SLOAD SWAP1 PUSH2 0x100 EXP SWAP1 DIV PUSH1 0xFF AND PUSH2 0x1616 JUMPI PUSH1 0x40 MLOAD PUSH32 0x8C379A000000000000000000000000000000000000000000000000000000000 DUP2 MSTORE PUSH1 0x4 ADD PUSH2 0x160D SWAP1 PUSH2 0x2E56 JUMP JUMPDEST PUSH1 0x40 MLOAD DUP1 SWAP2 SUB SWAP1 REVERT JUMPDEST PUSH1 0x0 PUSH1 0x9 DUP1 SLOAD SWAP1 POP PUSH8 0xFFFFFFFFFFFFFFFF DUP2 GT ISZERO PUSH2 0x1637 JUMPI PUSH2 0x1636 PUSH2 0x34B2 JUMP JUMPDEST JUMPDEST PUSH1 0x40 MLOAD SWAP1 DUP1 DUP3 MSTORE DUP1 PUSH1 0x20 MUL PUSH1 0x20 ADD DUP3 ADD PUSH1 0x40 MSTORE DUP1 ISZERO PUSH2 0x1665 JUMPI DUP2 PUSH1 0x20 ADD PUSH1 0x20 DUP3 MUL DUP1 CALLDATASIZE DUP4 CALLDATACOPY DUP1 DUP3 ADD SWAP2 POP POP SWAP1 POP JUMPDEST POP SWAP1 POP PUSH1 0x0 PUSH1 0x9 DUP1 SLOAD SWAP1 POP PUSH8 0xFFFFFFFFFFFFFFFF DUP2 GT ISZERO PUSH2 0x1689 JUMPI PUSH2 0x1688 PUSH2 0x34B2 JUMP JUMPDEST JUMPDEST PUSH1 0x40 MLOAD SWAP1 DUP1 DUP3 MSTORE DUP1 PUSH1 0x20 MUL PUSH1 0x20 ADD DUP3 ADD PUSH1 0x40 MSTORE DUP1 ISZERO PUSH2 0x16B7 JUMPI DUP2 PUSH1 0x20 ADD PUSH1 0x20 DUP3 MUL DUP1 CALLDATASIZE DUP4 CALLDATACOPY DUP1 DUP3 ADD SWAP2 POP POP SWAP1 POP JUMPDEST POP SWAP1 POP PUSH1 0x0 PUSH1 0x9 DUP1 SLOAD SWAP1 POP PUSH8 0xFFFFFFFFFFFFFFFF DUP2 GT ISZERO PUSH2 0x16DB JUMPI PUSH2 0x16DA PUSH2 0x34B2 JUMP JUMPDEST JUMPDEST PUSH1 0x40 MLOAD SWAP1 DUP1 DUP3 MSTORE DUP1 PUSH1 0x20 MUL PUSH1 0x20 ADD DUP3 ADD PUSH1 0x40 MSTORE DUP1 ISZERO PUSH2 0x1709 JUMPI DUP2 PUSH1 0x20 ADD PUSH1 0x20 DUP3 MUL DUP1 CALLDATASIZE DUP4 CALLDATACOPY DUP1 DUP3 ADD SWAP2 POP POP SWAP1 POP JUMPDEST POP SWAP1 POP PUSH1 0x0 JUMPDEST PUSH1 0x9 DUP1 SLOAD SWAP1 POP DUP2 LT ISZERO PUSH2 0x184C JUMPI PUSH1 0x9 DUP2 DUP2 SLOAD DUP2 LT PUSH2 0x1730 JUMPI PUSH2 0x172F PUSH2 0x34E1 JUMP JUMPDEST JUMPDEST SWAP1 PUSH1 0x0 MSTORE PUSH1 0x20 PUSH1 0x0 KECCAK256 SWAP1 PUSH1 0x3 MUL ADD PUSH1 0x0 ADD PUSH1 0x0 SWAP1 SLOAD SWAP1 PUSH2 0x100 EXP SWAP1 DIV PUSH20 0xFFFFFFFFFFFFFFFFFFFFFFFFFFFFFFFFFFFFFFFF AND DUP5 DUP3 DUP2 MLOAD DUP2 LT PUSH2 0x1775 JUMPI PUSH2 0x1774 PUSH2 0x34E1 JUMP JUMPDEST JUMPDEST PUSH1 0x20 MUL PUSH1 0x20 ADD ADD SWAP1 PUSH20 0xFFFFFFFFFFFFFFFFFFFFFFFFFFFFFFFFFFFFFFFF AND SWAP1 DUP2 PUSH20 0xFFFFFFFFFFFFFFFFFFFFFFFFFFFFFFFFFFFFFFFF AND DUP2 MSTORE POP POP PUSH1 0x9 DUP2 DUP2 SLOAD DUP2 LT PUSH2 0x17C3 JUMPI PUSH2 0x17C2 PUSH2 0x34E1 JUMP JUMPDEST JUMPDEST SWAP1 PUSH1 0x0 MSTORE PUSH1 0x20 PUSH1 0x0 KECCAK256 SWAP1 PUSH1 0x3 MUL ADD PUSH1 0x1 ADD SLOAD DUP4 DUP3 DUP2 MLOAD DUP2 LT PUSH2 0x17E8 JUMPI PUSH2 0x17E7 PUSH2 0x34E1 JUMP JUMPDEST JUMPDEST PUSH1 0x20 MUL PUSH1 0x20 ADD ADD DUP2 DUP2 MSTORE POP POP PUSH1 0x9 DUP2 DUP2 SLOAD DUP2 LT PUSH2 0x1808 JUMPI PUSH2 0x1807 PUSH2 0x34E1 JUMP JUMPDEST JUMPDEST SWAP1 PUSH1 0x0 MSTORE PUSH1 0x20 PUSH1 0x0 KECCAK256 SWAP1 PUSH1 0x3 MUL ADD PUSH1 0x2 ADD SLOAD DUP3 DUP3 DUP2 MLOAD DUP2 LT PUSH2 0x182D JUMPI PUSH2 0x182C PUSH2 0x34E1 JUMP JUMPDEST JUMPDEST PUSH1 0x20 MUL PUSH1 0x20 ADD ADD DUP2 DUP2 MSTORE POP POP DUP1 DUP1 PUSH2 0x1844 SWAP1 PUSH2 0x3510 JUMP JUMPDEST SWAP2 POP POP PUSH2 0x170F JUMP JUMPDEST POP DUP3 DUP3 DUP3 SWAP6 POP SWAP6 POP SWAP6 POP POP POP POP SWAP1 SWAP2 SWAP3 JUMP JUMPDEST PUSH2 0x1866 PUSH2 0x20DD JUMP JUMPDEST PUSH20 0xFFFFFFFFFFFFFFFFFFFFFFFFFFFFFFFFFFFFFFFF AND PUSH2 0x1884 PUSH2 0x149E JUMP JUMPDEST PUSH20 0xFFFFFFFFFFFFFFFFFFFFFFFFFFFFFFFFFFFFFFFF AND EQ PUSH2 0x18DA JUMPI PUSH1 0x40 MLOAD PUSH32 0x8C379A000000000000000000000000000000000000000000000000000000000 DUP2 MSTORE PUSH1 0x4 ADD PUSH2 0x18D1 SWAP1 PUSH2 0x3126 JUMP JUMPDEST PUSH1 0x40 MLOAD DUP1 SWAP2 SUB SWAP1 REVERT JUMPDEST PUSH1 0x0 PUSH20 0xFFFFFFFFFFFFFFFFFFFFFFFFFFFFFFFFFFFFFFFF AND DUP2 PUSH20 0xFFFFFFFFFFFFFFFFFFFFFFFFFFFFFFFFFFFFFFFF AND SUB PUSH2 0x1949 JUMPI PUSH1 0x40 MLOAD PUSH32 0x8C379A000000000000000000000000000000000000000000000000000000000 DUP2 MSTORE PUSH1 0x4 ADD PUSH2 0x1940 SWAP1 PUSH2 0x35CA JUMP JUMPDEST PUSH1 0x40 MLOAD DUP1 SWAP2 SUB SWAP1 REVERT JUMPDEST PUSH2 0x1952 DUP2 PUSH2 0x2660 JUMP JUMPDEST POP JUMP JUMPDEST DUP1 PUSH1 0x6 PUSH1 0x0 SWAP1 SLOAD SWAP1 PUSH2 0x100 EXP SWAP1 DIV PUSH20 0xFFFFFFFFFFFFFFFFFFFFFFFFFFFFFFFFFFFFFFFF AND PUSH20 0xFFFFFFFFFFFFFFFFFFFFFFFFFFFFFFFFFFFFFFFF AND PUSH4 0x70A08231 CALLER PUSH1 0x40 MLOAD DUP3 PUSH4 0xFFFFFFFF AND PUSH1 0xE0 SHL DUP2 MSTORE PUSH1 0x4 ADD PUSH2 0x19B1 SWAP2 SWAP1 PUSH2 0x2B54 JUMP JUMPDEST PUSH1 0x20 PUSH1 0x40 MLOAD DUP1 DUP4 SUB DUP2 DUP7 GAS STATICCALL ISZERO DUP1 ISZERO PUSH2 0x19CE JUMPI RETURNDATASIZE PUSH1 0x0 DUP1 RETURNDATACOPY RETURNDATASIZE PUSH1 0x0 REVERT JUMPDEST POP POP POP POP PUSH1 0x40 MLOAD RETURNDATASIZE PUSH1 0x1F NOT PUSH1 0x1F DUP3 ADD AND DUP3 ADD DUP1 PUSH1 0x40 MSTORE POP DUP2 ADD SWAP1 PUSH2 0x19F2 SWAP2 SWAP1 PUSH2 0x315B JUMP JUMPDEST LT ISZERO PUSH2 0x1A33 JUMPI PUSH1 0x40 MLOAD PUSH32 0x8C379A000000000000000000000000000000000000000000000000000000000 DUP2 MSTORE PUSH1 0x4 ADD PUSH2 0x1A2A SWAP1 PUSH2 0x365C JUMP JUMPDEST PUSH1 0x40 MLOAD DUP1 SWAP2 SUB SWAP1 REVERT JUMPDEST PUSH1 0x0 PUSH2 0x1A3E DUP3 PUSH2 0x159E JUMP JUMPDEST SWAP1 POP PUSH1 0x0 PUSH1 0x4 PUSH1 0x1 SWAP1 SLOAD SWAP1 PUSH2 0x100 EXP SWAP1 DIV PUSH20 0xFFFFFFFFFFFFFFFFFFFFFFFFFFFFFFFFFFFFFFFF AND SWAP1 POP DUP2 DUP2 PUSH20 0xFFFFFFFFFFFFFFFFFFFFFFFFFFFFFFFFFFFFFFFF AND PUSH4 0x70A08231 ADDRESS PUSH1 0x40 MLOAD DUP3 PUSH4 0xFFFFFFFF AND PUSH1 0xE0 SHL DUP2 MSTORE PUSH1 0x4 ADD PUSH2 0x1AA1 SWAP2 SWAP1 PUSH2 0x2B54 JUMP JUMPDEST PUSH1 0x20 PUSH1 0x40 MLOAD DUP1 DUP4 SUB DUP2 DUP7 GAS STATICCALL ISZERO DUP1 ISZERO PUSH2 0x1ABE JUMPI RETURNDATASIZE PUSH1 0x0 DUP1 RETURNDATACOPY RETURNDATASIZE PUSH1 0x0 REVERT JUMPDEST POP POP POP POP PUSH1 0x40 MLOAD RETURNDATASIZE PUSH1 0x1F NOT PUSH1 0x1F DUP3 ADD AND DUP3 ADD DUP1 PUSH1 0x40 MSTORE POP DUP2 ADD SWAP1 PUSH2 0x1AE2 SWAP2 SWAP1 PUSH2 0x315B JUMP JUMPDEST LT ISZERO PUSH2 0x1B23 JUMPI PUSH1 0x40 MLOAD PUSH32 0x8C379A000000000000000000000000000000000000000000000000000000000 DUP2 MSTORE PUSH1 0x4 ADD PUSH2 0x1B1A SWAP1 PUSH2 0x36EE JUMP JUMPDEST PUSH1 0x40 MLOAD DUP1 SWAP2 SUB SWAP1 REVERT JUMPDEST PUSH2 0x1B51 PUSH1 0x6 PUSH1 0x0 SWAP1 SLOAD SWAP1 PUSH2 0x100 EXP SWAP1 DIV PUSH20 0xFFFFFFFFFFFFFFFFFFFFFFFFFFFFFFFFFFFFFFFF AND CALLER ADDRESS DUP7 PUSH2 0x2724 JUMP JUMPDEST PUSH1 0x4 PUSH1 0x1 SWAP1 SLOAD SWAP1 PUSH2 0x100 EXP SWAP1 DIV PUSH20 0xFFFFFFFFFFFFFFFFFFFFFFFFFFFFFFFFFFFFFFFF AND PUSH20 0xFFFFFFFFFFFFFFFFFFFFFFFFFFFFFFFFFFFFFFFF AND PUSH4 0x2E1A7D4D DUP4 PUSH1 0x40 MLOAD DUP3 PUSH4 0xFFFFFFFF AND PUSH1 0xE0 SHL DUP2 MSTORE PUSH1 0x4 ADD PUSH2 0x1BAC SWAP2 SWAP1 PUSH2 0x28D4 JUMP JUMPDEST PUSH1 0x0 PUSH1 0x40 MLOAD DUP1 DUP4 SUB DUP2 PUSH1 0x0 DUP8 DUP1 EXTCODESIZE ISZERO DUP1 ISZERO PUSH2 0x1BC6 JUMPI PUSH1 0x0 DUP1 REVERT JUMPDEST POP GAS CALL ISZERO DUP1 ISZERO PUSH2 0x1BDA JUMPI RETURNDATASIZE PUSH1 0x0 DUP1 RETURNDATACOPY RETURNDATASIZE PUSH1 0x0 REVERT JUMPDEST POP POP POP POP PUSH2 0x1BE8 CALLER DUP4 PUSH2 0x20E5 JUMP JUMPDEST PUSH1 0x9 PUSH1 0x40 MLOAD DUP1 PUSH1 0x60 ADD PUSH1 0x40 MSTORE DUP1 CALLER PUSH20 0xFFFFFFFFFFFFFFFFFFFFFFFFFFFFFFFFFFFFFFFF AND DUP2 MSTORE PUSH1 0x20 ADD DUP6 DUP2 MSTORE PUSH1 0x20 ADD DUP5 DUP2 MSTORE POP SWAP1 DUP1 PUSH1 0x1 DUP2 SLOAD ADD DUP1 DUP3 SSTORE DUP1 SWAP2 POP POP PUSH1 0x1 SWAP1 SUB SWAP1 PUSH1 0x0 MSTORE PUSH1 0x20 PUSH1 0x0 KECCAK256 SWAP1 PUSH1 0x3 MUL ADD PUSH1 0x0 SWAP1 SWAP2 SWAP1 SWAP2 SWAP1 SWAP2 POP PUSH1 0x0 DUP3 ADD MLOAD DUP2 PUSH1 0x0 ADD PUSH1 0x0 PUSH2 0x100 EXP DUP2 SLOAD DUP2 PUSH20 0xFFFFFFFFFFFFFFFFFFFFFFFFFFFFFFFFFFFFFFFF MUL NOT AND SWAP1 DUP4 PUSH20 0xFFFFFFFFFFFFFFFFFFFFFFFFFFFFFFFFFFFFFFFF AND MUL OR SWAP1 SSTORE POP PUSH1 0x20 DUP3 ADD MLOAD DUP2 PUSH1 0x1 ADD SSTORE PUSH1 0x40 DUP3 ADD MLOAD DUP2 PUSH1 0x2 ADD SSTORE POP POP DUP3 PUSH1 0x1 SLOAD PUSH2 0x1CAF SWAP2 SWAP1 PUSH2 0x370E JUMP JUMPDEST PUSH1 0x1 DUP2 SWAP1 SSTORE POP PUSH1 0x0 PUSH32 0x0 SWAP1 POP DUP1 PUSH20 0xFFFFFFFFFFFFFFFFFFFFFFFFFFFFFFFFFFFFFFFF AND PUSH4 0xF52701B7 ADDRESS CALLER DUP8 DUP8 PUSH1 0x40 MLOAD DUP6 PUSH4 0xFFFFFFFF AND PUSH1 0xE0 SHL DUP2 MSTORE PUSH1 0x4 ADD PUSH2 0x1D19 SWAP5 SWAP4 SWAP3 SWAP2 SWAP1 PUSH2 0x3188 JUMP JUMPDEST PUSH1 0x0 PUSH1 0x40 MLOAD DUP1 DUP4 SUB DUP2 PUSH1 0x0 DUP8 DUP1 EXTCODESIZE ISZERO DUP1 ISZERO PUSH2 0x1D33 JUMPI PUSH1 0x0 DUP1 REVERT JUMPDEST POP GAS CALL ISZERO DUP1 ISZERO PUSH2 0x1D47 JUMPI RETURNDATASIZE PUSH1 0x0 DUP1 RETURNDATACOPY RETURNDATASIZE PUSH1 0x0 REVERT JUMPDEST POP POP POP POP POP POP POP POP JUMP JUMPDEST DUP1 PUSH1 0x6 PUSH1 0x0 SWAP1 SLOAD SWAP1 PUSH2 0x100 EXP SWAP1 DIV PUSH20 0xFFFFFFFFFFFFFFFFFFFFFFFFFFFFFFFFFFFFFFFF AND PUSH20 0xFFFFFFFFFFFFFFFFFFFFFFFFFFFFFFFFFFFFFFFF AND PUSH4 0x70A08231 CALLER PUSH1 0x40 MLOAD DUP3 PUSH4 0xFFFFFFFF AND PUSH1 0xE0 SHL DUP2 MSTORE PUSH1 0x4 ADD PUSH2 0x1DAD SWAP2 SWAP1 PUSH2 0x2B54 JUMP JUMPDEST PUSH1 0x20 PUSH1 0x40 MLOAD DUP1 DUP4 SUB DUP2 DUP7 GAS STATICCALL ISZERO DUP1 ISZERO PUSH2 0x1DCA JUMPI RETURNDATASIZE PUSH1 0x0 DUP1 RETURNDATACOPY RETURNDATASIZE PUSH1 0x0 REVERT JUMPDEST POP POP POP POP PUSH1 0x40 MLOAD RETURNDATASIZE PUSH1 0x1F NOT PUSH1 0x1F DUP3 ADD AND DUP3 ADD DUP1 PUSH1 0x40 MSTORE POP DUP2 ADD SWAP1 PUSH2 0x1DEE SWAP2 SWAP1 PUSH2 0x315B JUMP JUMPDEST LT ISZERO PUSH2 0x1E2F JUMPI PUSH1 0x40 MLOAD PUSH32 0x8C379A000000000000000000000000000000000000000000000000000000000 DUP2 MSTORE PUSH1 0x4 ADD PUSH2 0x1E26 SWAP1 PUSH2 0x365C JUMP JUMPDEST PUSH1 0x40 MLOAD DUP1 SWAP2 SUB SWAP1 REVERT JUMPDEST PUSH1 0x0 PUSH2 0x1E3A DUP3 PUSH2 0x159E JUMP JUMPDEST SWAP1 POP DUP1 PUSH1 0x5 PUSH1 0x0 SWAP1 SLOAD SWAP1 PUSH2 0x100 EXP SWAP1 DIV PUSH20 0xFFFFFFFFFFFFFFFFFFFFFFFFFFFFFFFFFFFFFFFF AND PUSH20 0xFFFFFFFFFFFFFFFFFFFFFFFFFFFFFFFFFFFFFFFF AND PUSH4 0x70A08231 ADDRESS PUSH1 0x40 MLOAD DUP3 PUSH4 0xFFFFFFFF AND PUSH1 0xE0 SHL DUP2 MSTORE PUSH1 0x4 ADD PUSH2 0x1E98 SWAP2 SWAP1 PUSH2 0x2B54 JUMP JUMPDEST PUSH1 0x20 PUSH1 0x40 MLOAD DUP1 DUP4 SUB DUP2 DUP7 GAS STATICCALL ISZERO DUP1 ISZERO PUSH2 0x1EB5 JUMPI RETURNDATASIZE PUSH1 0x0 DUP1 RETURNDATACOPY RETURNDATASIZE PUSH1 0x0 REVERT JUMPDEST POP POP POP POP PUSH1 0x40 MLOAD RETURNDATASIZE PUSH1 0x1F NOT PUSH1 0x1F DUP3 ADD AND DUP3 ADD DUP1 PUSH1 0x40 MSTORE POP DUP2 ADD SWAP1 PUSH2 0x1ED9 SWAP2 SWAP1 PUSH2 0x315B JUMP JUMPDEST LT ISZERO PUSH2 0x1F1A JUMPI PUSH1 0x40 MLOAD PUSH32 0x8C379A000000000000000000000000000000000000000000000000000000000 DUP2 MSTORE PUSH1 0x4 ADD PUSH2 0x1F11 SWAP1 PUSH2 0x36EE JUMP JUMPDEST PUSH1 0x40 MLOAD DUP1 SWAP2 SUB SWAP1 REVERT JUMPDEST PUSH2 0x1F48 PUSH1 0x6 PUSH1 0x0 SWAP1 SLOAD SWAP1 PUSH2 0x100 EXP SWAP1 DIV PUSH20 0xFFFFFFFFFFFFFFFFFFFFFFFFFFFFFFFFFFFFFFFF AND CALLER ADDRESS DUP6 PUSH2 0x2724 JUMP JUMPDEST PUSH2 0x1F75 PUSH1 0x5 PUSH1 0x0 SWAP1 SLOAD SWAP1 PUSH2 0x100 EXP SWAP1 DIV PUSH20 0xFFFFFFFFFFFFFFFFFFFFFFFFFFFFFFFFFFFFFFFF AND CALLER DUP4 PUSH2 0x21E5 JUMP JUMPDEST PUSH1 0x9 PUSH1 0x40 MLOAD DUP1 PUSH1 0x60 ADD PUSH1 0x40 MSTORE DUP1 CALLER PUSH20 0xFFFFFFFFFFFFFFFFFFFFFFFFFFFFFFFFFFFFFFFF AND DUP2 MSTORE PUSH1 0x20 ADD DUP5 DUP2 MSTORE PUSH1 0x20 ADD DUP4 DUP2 MSTORE POP SWAP1 DUP1 PUSH1 0x1 DUP2 SLOAD ADD DUP1 DUP3 SSTORE DUP1 SWAP2 POP POP PUSH1 0x1 SWAP1 SUB SWAP1 PUSH1 0x0 MSTORE PUSH1 0x20 PUSH1 0x0 KECCAK256 SWAP1 PUSH1 0x3 MUL ADD PUSH1 0x0 SWAP1 SWAP2 SWAP1 SWAP2 SWAP1 SWAP2 POP PUSH1 0x0 DUP3 ADD MLOAD DUP2 PUSH1 0x0 ADD PUSH1 0x0 PUSH2 0x100 EXP DUP2 SLOAD DUP2 PUSH20 0xFFFFFFFFFFFFFFFFFFFFFFFFFFFFFFFFFFFFFFFF MUL NOT AND SWAP1 DUP4 PUSH20 0xFFFFFFFFFFFFFFFFFFFFFFFFFFFFFFFFFFFFFFFF AND MUL OR SWAP1 SSTORE POP PUSH1 0x20 DUP3 ADD MLOAD DUP2 PUSH1 0x1 ADD SSTORE PUSH1 0x40 DUP3 ADD MLOAD DUP2 PUSH1 0x2 ADD SSTORE POP POP DUP2 PUSH1 0x1 SLOAD PUSH2 0x203C SWAP2 SWAP1 PUSH2 0x370E JUMP JUMPDEST PUSH1 0x1 DUP2 SWAP1 SSTORE POP PUSH1 0x0 PUSH32 0x0 SWAP1 POP DUP1 PUSH20 0xFFFFFFFFFFFFFFFFFFFFFFFFFFFFFFFFFFFFFFFF AND PUSH4 0xF52701B7 ADDRESS CALLER DUP7 DUP7 PUSH1 0x40 MLOAD DUP6 PUSH4 0xFFFFFFFF AND PUSH1 0xE0 SHL DUP2 MSTORE PUSH1 0x4 ADD PUSH2 0x20A6 SWAP5 SWAP4 SWAP3 SWAP2 SWAP1 PUSH2 0x3188 JUMP JUMPDEST PUSH1 0x0 PUSH1 0x40 MLOAD DUP1 DUP4 SUB DUP2 PUSH1 0x0 DUP8 DUP1 EXTCODESIZE ISZERO DUP1 ISZERO PUSH2 0x20C0 JUMPI PUSH1 0x0 DUP1 REVERT JUMPDEST POP GAS CALL ISZERO DUP1 ISZERO PUSH2 0x20D4 JUMPI RETURNDATASIZE PUSH1 0x0 DUP1 RETURNDATACOPY RETURNDATASIZE PUSH1 0x0 REVERT JUMPDEST POP POP POP POP POP POP POP JUMP JUMPDEST PUSH1 0x0 CALLER SWAP1 POP SWAP1 JUMP JUMPDEST PUSH1 0x0 DUP3 PUSH20 0xFFFFFFFFFFFFFFFFFFFFFFFFFFFFFFFFFFFFFFFF AND DUP3 PUSH1 0x0 PUSH8 0xFFFFFFFFFFFFFFFF DUP2 GT ISZERO PUSH2 0x211A JUMPI PUSH2 0x2119 PUSH2 0x34B2 JUMP JUMPDEST JUMPDEST PUSH1 0x40 MLOAD SWAP1 DUP1 DUP3 MSTORE DUP1 PUSH1 0x1F ADD PUSH1 0x1F NOT AND PUSH1 0x20 ADD DUP3 ADD PUSH1 0x40 MSTORE DUP1 ISZERO PUSH2 0x214C JUMPI DUP2 PUSH1 0x20 ADD PUSH1 0x1 DUP3 MUL DUP1 CALLDATASIZE DUP4 CALLDATACOPY DUP1 DUP3 ADD SWAP2 POP POP SWAP1 POP JUMPDEST POP PUSH1 0x40 MLOAD PUSH2 0x215A SWAP2 SWAP1 PUSH2 0x37DE JUMP JUMPDEST PUSH1 0x0 PUSH1 0x40 MLOAD DUP1 DUP4 SUB DUP2 DUP6 DUP8 GAS CALL SWAP3 POP POP POP RETURNDATASIZE DUP1 PUSH1 0x0 DUP2 EQ PUSH2 0x2197 JUMPI PUSH1 0x40 MLOAD SWAP2 POP PUSH1 0x1F NOT PUSH1 0x3F RETURNDATASIZE ADD AND DUP3 ADD PUSH1 0x40 MSTORE RETURNDATASIZE DUP3 MSTORE RETURNDATASIZE PUSH1 0x0 PUSH1 0x20 DUP5 ADD RETURNDATACOPY PUSH2 0x219C JUMP JUMPDEST PUSH1 0x60 SWAP2 POP JUMPDEST POP POP SWAP1 POP DUP1 PUSH2 0x21E0 JUMPI PUSH1 0x40 MLOAD PUSH32 0x8C379A000000000000000000000000000000000000000000000000000000000 DUP2 MSTORE PUSH1 0x4 ADD PUSH2 0x21D7 SWAP1 PUSH2 0x3867 JUMP JUMPDEST PUSH1 0x40 MLOAD DUP1 SWAP2 SUB SWAP1 REVERT JUMPDEST POP POP POP JUMP JUMPDEST PUSH1 0x0 DUP1 DUP5 PUSH20 0xFFFFFFFFFFFFFFFFFFFFFFFFFFFFFFFFFFFFFFFF AND PUSH4 0xA9059CBB DUP6 DUP6 PUSH1 0x40 MLOAD PUSH1 0x24 ADD PUSH2 0x2217 SWAP3 SWAP2 SWAP1 PUSH2 0x3887 JUMP JUMPDEST PUSH1 0x40 MLOAD PUSH1 0x20 DUP2 DUP4 SUB SUB DUP2 MSTORE SWAP1 PUSH1 0x40 MSTORE SWAP1 PUSH1 0xE0 SHL PUSH1 0x20 DUP3 ADD DUP1 MLOAD PUSH28 0xFFFFFFFFFFFFFFFFFFFFFFFFFFFFFFFFFFFFFFFFFFFFFFFFFFFFFFFF DUP4 DUP2 DUP4 AND OR DUP4 MSTORE POP POP POP POP PUSH1 0x40 MLOAD PUSH2 0x2265 SWAP2 SWAP1 PUSH2 0x37DE JUMP JUMPDEST PUSH1 0x0 PUSH1 0x40 MLOAD DUP1 DUP4 SUB DUP2 PUSH1 0x0 DUP7 GAS CALL SWAP2 POP POP RETURNDATASIZE DUP1 PUSH1 0x0 DUP2 EQ PUSH2 0x22A2 JUMPI PUSH1 0x40 MLOAD SWAP2 POP PUSH1 0x1F NOT PUSH1 0x3F RETURNDATASIZE ADD AND DUP3 ADD PUSH1 0x40 MSTORE RETURNDATASIZE DUP3 MSTORE RETURNDATASIZE PUSH1 0x0 PUSH1 0x20 DUP5 ADD RETURNDATACOPY PUSH2 0x22A7 JUMP JUMPDEST PUSH1 0x60 SWAP2 POP JUMPDEST POP SWAP2 POP SWAP2 POP DUP2 DUP1 ISZERO PUSH2 0x22D5 JUMPI POP PUSH1 0x0 DUP2 MLOAD EQ DUP1 PUSH2 0x22D4 JUMPI POP DUP1 DUP1 PUSH1 0x20 ADD SWAP1 MLOAD DUP2 ADD SWAP1 PUSH2 0x22D3 SWAP2 SWAP1 PUSH2 0x2E8B JUMP JUMPDEST JUMPDEST JUMPDEST PUSH2 0x2314 JUMPI PUSH1 0x40 MLOAD PUSH32 0x8C379A000000000000000000000000000000000000000000000000000000000 DUP2 MSTORE PUSH1 0x4 ADD PUSH2 0x230B SWAP1 PUSH2 0x38FC JUMP JUMPDEST PUSH1 0x40 MLOAD DUP1 SWAP2 SUB SWAP1 REVERT JUMPDEST POP POP POP POP POP JUMP JUMPDEST CALLVALUE DUP2 EQ PUSH2 0x235D JUMPI PUSH1 0x40 MLOAD PUSH32 0x8C379A000000000000000000000000000000000000000000000000000000000 DUP2 MSTORE PUSH1 0x4 ADD PUSH2 0x2354 SWAP1 PUSH2 0x398E JUMP JUMPDEST PUSH1 0x40 MLOAD DUP1 SWAP2 SUB SWAP1 REVERT JUMPDEST PUSH1 0x0 PUSH2 0x2368 DUP3 PUSH2 0x159E JUMP JUMPDEST SWAP1 POP DUP1 PUSH1 0x5 PUSH1 0x0 SWAP1 SLOAD SWAP1 PUSH2 0x100 EXP SWAP1 DIV PUSH20 0xFFFFFFFFFFFFFFFFFFFFFFFFFFFFFFFFFFFFFFFF AND PUSH20 0xFFFFFFFFFFFFFFFFFFFFFFFFFFFFFFFFFFFFFFFF AND PUSH4 0x70A08231 ADDRESS PUSH1 0x40 MLOAD DUP3 PUSH4 0xFFFFFFFF AND PUSH1 0xE0 SHL DUP2 MSTORE PUSH1 0x4 ADD PUSH2 0x23C6 SWAP2 SWAP1 PUSH2 0x2B54 JUMP JUMPDEST PUSH1 0x20 PUSH1 0x40 MLOAD DUP1 DUP4 SUB DUP2 DUP7 GAS STATICCALL ISZERO DUP1 ISZERO PUSH2 0x23E3 JUMPI RETURNDATASIZE PUSH1 0x0 DUP1 RETURNDATACOPY RETURNDATASIZE PUSH1 0x0 REVERT JUMPDEST POP POP POP POP PUSH1 0x40 MLOAD RETURNDATASIZE PUSH1 0x1F NOT PUSH1 0x1F DUP3 ADD AND DUP3 ADD DUP1 PUSH1 0x40 MSTORE POP DUP2 ADD SWAP1 PUSH2 0x2407 SWAP2 SWAP1 PUSH2 0x315B JUMP JUMPDEST LT ISZERO PUSH2 0x2448 JUMPI PUSH1 0x40 MLOAD PUSH32 0x8C379A000000000000000000000000000000000000000000000000000000000 DUP2 MSTORE PUSH1 0x4 ADD PUSH2 0x243F SWAP1 PUSH2 0x36EE JUMP JUMPDEST PUSH1 0x40 MLOAD DUP1 SWAP2 SUB SWAP1 REVERT JUMPDEST PUSH1 0x4 PUSH1 0x1 SWAP1 SLOAD SWAP1 PUSH2 0x100 EXP SWAP1 DIV PUSH20 0xFFFFFFFFFFFFFFFFFFFFFFFFFFFFFFFFFFFFFFFF AND PUSH20 0xFFFFFFFFFFFFFFFFFFFFFFFFFFFFFFFFFFFFFFFF AND PUSH4 0xD0E30DB0 DUP4 PUSH1 0x40 MLOAD DUP3 PUSH4 0xFFFFFFFF AND PUSH1 0xE0 SHL DUP2 MSTORE PUSH1 0x4 ADD PUSH1 0x0 PUSH1 0x40 MLOAD DUP1 DUP4 SUB DUP2 DUP6 DUP9 DUP1 EXTCODESIZE ISZERO DUP1 ISZERO PUSH2 0x24B2 JUMPI PUSH1 0x0 DUP1 REVERT JUMPDEST POP GAS CALL ISZERO DUP1 ISZERO PUSH2 0x24C6 JUMPI RETURNDATASIZE PUSH1 0x0 DUP1 RETURNDATACOPY RETURNDATASIZE PUSH1 0x0 REVERT JUMPDEST POP POP POP POP POP PUSH2 0x24F8 PUSH1 0x5 PUSH1 0x0 SWAP1 SLOAD SWAP1 PUSH2 0x100 EXP SWAP1 DIV PUSH20 0xFFFFFFFFFFFFFFFFFFFFFFFFFFFFFFFFFFFFFFFF AND CALLER DUP4 PUSH2 0x21E5 JUMP JUMPDEST PUSH1 0x9 PUSH1 0x40 MLOAD DUP1 PUSH1 0x60 ADD PUSH1 0x40 MSTORE DUP1 CALLER PUSH20 0xFFFFFFFFFFFFFFFFFFFFFFFFFFFFFFFFFFFFFFFF AND DUP2 MSTORE PUSH1 0x20 ADD DUP5 DUP2 MSTORE PUSH1 0x20 ADD DUP4 DUP2 MSTORE POP SWAP1 DUP1 PUSH1 0x1 DUP2 SLOAD ADD DUP1 DUP3 SSTORE DUP1 SWAP2 POP POP PUSH1 0x1 SWAP1 SUB SWAP1 PUSH1 0x0 MSTORE PUSH1 0x20 PUSH1 0x0 KECCAK256 SWAP1 PUSH1 0x3 MUL ADD PUSH1 0x0 SWAP1 SWAP2 SWAP1 SWAP2 SWAP1 SWAP2 POP PUSH1 0x0 DUP3 ADD MLOAD DUP2 PUSH1 0x0 ADD PUSH1 0x0 PUSH2 0x100 EXP DUP2 SLOAD DUP2 PUSH20 0xFFFFFFFFFFFFFFFFFFFFFFFFFFFFFFFFFFFFFFFF MUL NOT AND SWAP1 DUP4 PUSH20 0xFFFFFFFFFFFFFFFFFFFFFFFFFFFFFFFFFFFFFFFF AND MUL OR SWAP1 SSTORE POP PUSH1 0x20 DUP3 ADD MLOAD DUP2 PUSH1 0x1 ADD SSTORE PUSH1 0x40 DUP3 ADD MLOAD DUP2 PUSH1 0x2 ADD SSTORE POP POP DUP2 PUSH1 0x1 SLOAD PUSH2 0x25BF SWAP2 SWAP1 PUSH2 0x370E JUMP JUMPDEST PUSH1 0x1 DUP2 SWAP1 SSTORE POP PUSH1 0x0 PUSH32 0x0 SWAP1 POP DUP1 PUSH20 0xFFFFFFFFFFFFFFFFFFFFFFFFFFFFFFFFFFFFFFFF AND PUSH4 0xF52701B7 ADDRESS CALLER DUP7 DUP7 PUSH1 0x40 MLOAD DUP6 PUSH4 0xFFFFFFFF AND PUSH1 0xE0 SHL DUP2 MSTORE PUSH1 0x4 ADD PUSH2 0x2629 SWAP5 SWAP4 SWAP3 SWAP2 SWAP1 PUSH2 0x3188 JUMP JUMPDEST PUSH1 0x0 PUSH1 0x40 MLOAD DUP1 DUP4 SUB DUP2 PUSH1 0x0 DUP8 DUP1 EXTCODESIZE ISZERO DUP1 ISZERO PUSH2 0x2643 JUMPI PUSH1 0x0 DUP1 REVERT JUMPDEST POP GAS CALL ISZERO DUP1 ISZERO PUSH2 0x2657 JUMPI RETURNDATASIZE PUSH1 0x0 DUP1 RETURNDATACOPY RETURNDATASIZE PUSH1 0x0 REVERT JUMPDEST POP POP POP POP POP POP POP JUMP JUMPDEST PUSH1 0x0 DUP1 PUSH1 0x0 SWAP1 SLOAD SWAP1 PUSH2 0x100 EXP SWAP1 DIV PUSH20 0xFFFFFFFFFFFFFFFFFFFFFFFFFFFFFFFFFFFFFFFF AND SWAP1 POP DUP2 PUSH1 0x0 DUP1 PUSH2 0x100 EXP DUP2 SLOAD DUP2 PUSH20 0xFFFFFFFFFFFFFFFFFFFFFFFFFFFFFFFFFFFFFFFF MUL NOT AND SWAP1 DUP4 PUSH20 0xFFFFFFFFFFFFFFFFFFFFFFFFFFFFFFFFFFFFFFFF AND MUL OR SWAP1 SSTORE POP DUP2 PUSH20 0xFFFFFFFFFFFFFFFFFFFFFFFFFFFFFFFFFFFFFFFF AND DUP2 PUSH20 0xFFFFFFFFFFFFFFFFFFFFFFFFFFFFFFFFFFFFFFFF AND PUSH32 0x8BE0079C531659141344CD1FD0A4F28419497F9722A3DAAFE3B4186F6B6457E0 PUSH1 0x40 MLOAD PUSH1 0x40 MLOAD DUP1 SWAP2 SUB SWAP1 LOG3 POP POP JUMP JUMPDEST PUSH1 0x0 DUP1 DUP6 PUSH20 0xFFFFFFFFFFFFFFFFFFFFFFFFFFFFFFFFFFFFFFFF AND PUSH4 0x23B872DD DUP7 DUP7 DUP7 PUSH1 0x40 MLOAD PUSH1 0x24 ADD PUSH2 0x2758 SWAP4 SWAP3 SWAP2 SWAP1 PUSH2 0x39AE JUMP JUMPDEST PUSH1 0x40 MLOAD PUSH1 0x20 DUP2 DUP4 SUB SUB DUP2 MSTORE SWAP1 PUSH1 0x40 MSTORE SWAP1 PUSH1 0xE0 SHL PUSH1 0x20 DUP3 ADD DUP1 MLOAD PUSH28 0xFFFFFFFFFFFFFFFFFFFFFFFFFFFFFFFFFFFFFFFFFFFFFFFFFFFFFFFF DUP4 DUP2 DUP4 AND OR DUP4 MSTORE POP POP POP POP PUSH1 0x40 MLOAD PUSH2 0x27A6 SWAP2 SWAP1 PUSH2 0x37DE JUMP JUMPDEST PUSH1 0x0 PUSH1 0x40 MLOAD DUP1 DUP4 SUB DUP2 PUSH1 0x0 DUP7 GAS CALL SWAP2 POP POP RETURNDATASIZE DUP1 PUSH1 0x0 DUP2 EQ PUSH2 0x27E3 JUMPI PUSH1 0x40 MLOAD SWAP2 POP PUSH1 0x1F NOT PUSH1 0x3F RETURNDATASIZE ADD AND DUP3 ADD PUSH1 0x40 MSTORE RETURNDATASIZE DUP3 MSTORE RETURNDATASIZE PUSH1 0x0 PUSH1 0x20 DUP5 ADD RETURNDATACOPY PUSH2 0x27E8 JUMP JUMPDEST PUSH1 0x60 SWAP2 POP JUMPDEST POP SWAP2 POP SWAP2 POP DUP2 DUP1 ISZERO PUSH2 0x2816 JUMPI POP PUSH1 0x0 DUP2 MLOAD EQ DUP1 PUSH2 0x2815 JUMPI POP DUP1 DUP1 PUSH1 0x20 ADD SWAP1 MLOAD DUP2 ADD SWAP1 PUSH2 0x2814 SWAP2 SWAP1 PUSH2 0x2E8B JUMP JUMPDEST JUMPDEST JUMPDEST PUSH2 0x2855 JUMPI PUSH1 0x40 MLOAD PUSH32 0x8C379A000000000000000000000000000000000000000000000000000000000 DUP2 MSTORE PUSH1 0x4 ADD PUSH2 0x284C SWAP1 PUSH2 0x3A57 JUMP JUMPDEST PUSH1 0x40 MLOAD DUP1 SWAP2 SUB SWAP1 REVERT JUMPDEST POP POP POP POP POP POP JUMP JUMPDEST PUSH1 0x0 DUP1 REVERT JUMPDEST PUSH1 0x0 DUP2 SWAP1 POP SWAP2 SWAP1 POP JUMP JUMPDEST PUSH2 0x2875 DUP2 PUSH2 0x2862 JUMP JUMPDEST DUP2 EQ PUSH2 0x2880 JUMPI PUSH1 0x0 DUP1 REVERT JUMPDEST POP JUMP JUMPDEST PUSH1 0x0 DUP2 CALLDATALOAD SWAP1 POP PUSH2 0x2892 DUP2 PUSH2 0x286C JUMP JUMPDEST SWAP3 SWAP2 POP POP JUMP JUMPDEST PUSH1 0x0 PUSH1 0x20 DUP3 DUP5 SUB SLT ISZERO PUSH2 0x28AE JUMPI PUSH2 0x28AD PUSH2 0x285D JUMP JUMPDEST JUMPDEST PUSH1 0x0 PUSH2 0x28BC DUP5 DUP3 DUP6 ADD PUSH2 0x2883 JUMP JUMPDEST SWAP2 POP POP SWAP3 SWAP2 POP POP JUMP JUMPDEST PUSH2 0x28CE DUP2 PUSH2 0x2862 JUMP JUMPDEST DUP3 MSTORE POP POP JUMP JUMPDEST PUSH1 0x0 PUSH1 0x20 DUP3 ADD SWAP1 POP PUSH2 0x28E9 PUSH1 0x0 DUP4 ADD DUP5 PUSH2 0x28C5 JUMP JUMPDEST SWAP3 SWAP2 POP POP JUMP JUMPDEST PUSH1 0x0 DUP2 ISZERO ISZERO SWAP1 POP SWAP2 SWAP1 POP JUMP JUMPDEST PUSH2 0x2904 DUP2 PUSH2 0x28EF JUMP JUMPDEST DUP3 MSTORE POP POP JUMP JUMPDEST PUSH1 0x0 PUSH1 0x20 DUP3 ADD SWAP1 POP PUSH2 0x291F PUSH1 0x0 DUP4 ADD DUP5 PUSH2 0x28FB JUMP JUMPDEST SWAP3 SWAP2 POP POP JUMP JUMPDEST PUSH1 0x0 PUSH1 0x40 DUP3 ADD SWAP1 POP PUSH2 0x293A PUSH1 0x0 DUP4 ADD DUP6 PUSH2 0x28C5 JUMP JUMPDEST PUSH2 0x2947 PUSH1 0x20 DUP4 ADD DUP5 PUSH2 0x28C5 JUMP JUMPDEST SWAP4 SWAP3 POP POP POP JUMP JUMPDEST PUSH1 0x3 DUP2 LT PUSH2 0x295B JUMPI PUSH1 0x0 DUP1 REVERT JUMPDEST POP JUMP JUMPDEST PUSH1 0x0 DUP2 CALLDATALOAD SWAP1 POP PUSH2 0x296D DUP2 PUSH2 0x294E JUMP JUMPDEST SWAP3 SWAP2 POP POP JUMP JUMPDEST PUSH1 0x0 PUSH20 0xFFFFFFFFFFFFFFFFFFFFFFFFFFFFFFFFFFFFFFFF DUP3 AND SWAP1 POP SWAP2 SWAP1 POP JUMP JUMPDEST PUSH1 0x0 PUSH2 0x299E DUP3 PUSH2 0x2973 JUMP JUMPDEST SWAP1 POP SWAP2 SWAP1 POP JUMP JUMPDEST PUSH2 0x29AE DUP2 PUSH2 0x2993 JUMP JUMPDEST DUP2 EQ PUSH2 0x29B9 JUMPI PUSH1 0x0 DUP1 REVERT JUMPDEST POP JUMP JUMPDEST PUSH1 0x0 DUP2 CALLDATALOAD SWAP1 POP PUSH2 0x29CB DUP2 PUSH2 0x29A5 JUMP JUMPDEST SWAP3 SWAP2 POP POP JUMP JUMPDEST PUSH2 0x29DA DUP2 PUSH2 0x28EF JUMP JUMPDEST DUP2 EQ PUSH2 0x29E5 JUMPI PUSH1 0x0 DUP1 REVERT JUMPDEST POP JUMP JUMPDEST PUSH1 0x0 DUP2 CALLDATALOAD SWAP1 POP PUSH2 0x29F7 DUP2 PUSH2 0x29D1 JUMP JUMPDEST SWAP3 SWAP2 POP POP JUMP JUMPDEST PUSH1 0x0 DUP1 PUSH1 0x0 DUP1 PUSH1 0x0 DUP1 PUSH1 0x0 DUP1 PUSH2 0x100 DUP10 DUP12 SUB SLT ISZERO PUSH2 0x2A1E JUMPI PUSH2 0x2A1D PUSH2 0x285D JUMP JUMPDEST JUMPDEST PUSH1 0x0 PUSH2 0x2A2C DUP12 DUP3 DUP13 ADD PUSH2 0x295E JUMP JUMPDEST SWAP9 POP POP PUSH1 0x20 PUSH2 0x2A3D DUP12 DUP3 DUP13 ADD PUSH2 0x29BC JUMP JUMPDEST SWAP8 POP POP PUSH1 0x40 PUSH2 0x2A4E DUP12 DUP3 DUP13 ADD PUSH2 0x29BC JUMP JUMPDEST SWAP7 POP POP PUSH1 0x60 PUSH2 0x2A5F DUP12 DUP3 DUP13 ADD PUSH2 0x2883 JUMP JUMPDEST SWAP6 POP POP PUSH1 0x80 PUSH2 0x2A70 DUP12 DUP3 DUP13 ADD PUSH2 0x2883 JUMP JUMPDEST SWAP5 POP POP PUSH1 0xA0 PUSH2 0x2A81 DUP12 DUP3 DUP13 ADD PUSH2 0x2883 JUMP JUMPDEST SWAP4 POP POP PUSH1 0xC0 PUSH2 0x2A92 DUP12 DUP3 DUP13 ADD PUSH2 0x29E8 JUMP JUMPDEST SWAP3 POP POP PUSH1 0xE0 PUSH2 0x2AA3 DUP12 DUP3 DUP13 ADD PUSH2 0x29BC JUMP JUMPDEST SWAP2 POP POP SWAP3 SWAP6 SWAP9 POP SWAP3 SWAP6 SWAP9 SWAP1 SWAP4 SWAP7 POP JUMP JUMPDEST PUSH32 0x4E487B7100000000000000000000000000000000000000000000000000000000 PUSH1 0x0 MSTORE PUSH1 0x21 PUSH1 0x4 MSTORE PUSH1 0x24 PUSH1 0x0 REVERT JUMPDEST PUSH1 0x3 DUP2 LT PUSH2 0x2AF3 JUMPI PUSH2 0x2AF2 PUSH2 0x2AB3 JUMP JUMPDEST JUMPDEST POP JUMP JUMPDEST PUSH1 0x0 DUP2 SWAP1 POP PUSH2 0x2B04 DUP3 PUSH2 0x2AE2 JUMP JUMPDEST SWAP2 SWAP1 POP JUMP JUMPDEST PUSH1 0x0 PUSH2 0x2B14 DUP3 PUSH2 0x2AF6 JUMP JUMPDEST SWAP1 POP SWAP2 SWAP1 POP JUMP JUMPDEST PUSH2 0x2B24 DUP2 PUSH2 0x2B09 JUMP JUMPDEST DUP3 MSTORE POP POP JUMP JUMPDEST PUSH1 0x0 PUSH1 0x20 DUP3 ADD SWAP1 POP PUSH2 0x2B3F PUSH1 0x0 DUP4 ADD DUP5 PUSH2 0x2B1B JUMP JUMPDEST SWAP3 SWAP2 POP POP JUMP JUMPDEST PUSH2 0x2B4E DUP2 PUSH2 0x2993 JUMP JUMPDEST DUP3 MSTORE POP POP JUMP JUMPDEST PUSH1 0x0 PUSH1 0x20 DUP3 ADD SWAP1 POP PUSH2 0x2B69 PUSH1 0x0 DUP4 ADD DUP5 PUSH2 0x2B45 JUMP JUMPDEST SWAP3 SWAP2 POP POP JUMP JUMPDEST PUSH1 0x0 PUSH1 0x40 DUP3 ADD SWAP1 POP PUSH2 0x2B84 PUSH1 0x0 DUP4 ADD DUP6 PUSH2 0x2B45 JUMP JUMPDEST PUSH2 0x2B91 PUSH1 0x20 DUP4 ADD DUP5 PUSH2 0x2B45 JUMP JUMPDEST SWAP4 SWAP3 POP POP POP JUMP JUMPDEST PUSH1 0x0 DUP2 MLOAD SWAP1 POP SWAP2 SWAP1 POP JUMP JUMPDEST PUSH1 0x0 DUP3 DUP3 MSTORE PUSH1 0x20 DUP3 ADD SWAP1 POP SWAP3 SWAP2 POP POP JUMP JUMPDEST PUSH1 0x0 DUP2 SWAP1 POP PUSH1 0x20 DUP3 ADD SWAP1 POP SWAP2 SWAP1 POP JUMP JUMPDEST PUSH2 0x2BCD DUP2 PUSH2 0x2993 JUMP JUMPDEST DUP3 MSTORE POP POP JUMP JUMPDEST PUSH1 0x0 PUSH2 0x2BDF DUP4 DUP4 PUSH2 0x2BC4 JUMP JUMPDEST PUSH1 0x20 DUP4 ADD SWAP1 POP SWAP3 SWAP2 POP POP JUMP JUMPDEST PUSH1 0x0 PUSH1 0x20 DUP3 ADD SWAP1 POP SWAP2 SWAP1 POP JUMP JUMPDEST PUSH1 0x0 PUSH2 0x2C03 DUP3 PUSH2 0x2B98 JUMP JUMPDEST PUSH2 0x2C0D DUP2 DUP6 PUSH2 0x2BA3 JUMP JUMPDEST SWAP4 POP PUSH2 0x2C18 DUP4 PUSH2 0x2BB4 JUMP JUMPDEST DUP1 PUSH1 0x0 JUMPDEST DUP4 DUP2 LT ISZERO PUSH2 0x2C49 JUMPI DUP2 MLOAD PUSH2 0x2C30 DUP9 DUP3 PUSH2 0x2BD3 JUMP JUMPDEST SWAP8 POP PUSH2 0x2C3B DUP4 PUSH2 0x2BEB JUMP JUMPDEST SWAP3 POP POP PUSH1 0x1 DUP2 ADD SWAP1 POP PUSH2 0x2C1C JUMP JUMPDEST POP DUP6 SWAP4 POP POP POP POP SWAP3 SWAP2 POP POP JUMP JUMPDEST PUSH1 0x0 DUP2 MLOAD SWAP1 POP SWAP2 SWAP1 POP JUMP JUMPDEST PUSH1 0x0 DUP3 DUP3 MSTORE PUSH1 0x20 DUP3 ADD SWAP1 POP SWAP3 SWAP2 POP POP JUMP JUMPDEST PUSH1 0x0 DUP2 SWAP1 POP PUSH1 0x20 DUP3 ADD SWAP1 POP SWAP2 SWAP1 POP JUMP JUMPDEST PUSH2 0x2C8B DUP2 PUSH2 0x2862 JUMP JUMPDEST DUP3 MSTORE POP POP JUMP JUMPDEST PUSH1 0x0 PUSH2 0x2C9D DUP4 DUP4 PUSH2 0x2C82 JUMP JUMPDEST PUSH1 0x20 DUP4 ADD SWAP1 POP SWAP3 SWAP2 POP POP JUMP JUMPDEST PUSH1 0x0 PUSH1 0x20 DUP3 ADD SWAP1 POP SWAP2 SWAP1 POP JUMP JUMPDEST PUSH1 0x0 PUSH2 0x2CC1 DUP3 PUSH2 0x2C56 JUMP JUMPDEST PUSH2 0x2CCB DUP2 DUP6 PUSH2 0x2C61 JUMP JUMPDEST SWAP4 POP PUSH2 0x2CD6 DUP4 PUSH2 0x2C72 JUMP JUMPDEST DUP1 PUSH1 0x0 JUMPDEST DUP4 DUP2 LT ISZERO PUSH2 0x2D07 JUMPI DUP2 MLOAD PUSH2 0x2CEE DUP9 DUP3 PUSH2 0x2C91 JUMP JUMPDEST SWAP8 POP PUSH2 0x2CF9 DUP4 PUSH2 0x2CA9 JUMP JUMPDEST SWAP3 POP POP PUSH1 0x1 DUP2 ADD SWAP1 POP PUSH2 0x2CDA JUMP JUMPDEST POP DUP6 SWAP4 POP POP POP POP SWAP3 SWAP2 POP POP JUMP JUMPDEST PUSH1 0x0 PUSH1 0x60 DUP3 ADD SWAP1 POP DUP2 DUP2 SUB PUSH1 0x0 DUP4 ADD MSTORE PUSH2 0x2D2E DUP2 DUP7 PUSH2 0x2BF8 JUMP JUMPDEST SWAP1 POP DUP2 DUP2 SUB PUSH1 0x20 DUP4 ADD MSTORE PUSH2 0x2D42 DUP2 DUP6 PUSH2 0x2CB6 JUMP JUMPDEST SWAP1 POP DUP2 DUP2 SUB PUSH1 0x40 DUP4 ADD MSTORE PUSH2 0x2D56 DUP2 DUP5 PUSH2 0x2CB6 JUMP JUMPDEST SWAP1 POP SWAP5 SWAP4 POP POP POP POP JUMP JUMPDEST PUSH1 0x0 PUSH1 0x20 DUP3 DUP5 SUB SLT ISZERO PUSH2 0x2D76 JUMPI PUSH2 0x2D75 PUSH2 0x285D JUMP JUMPDEST JUMPDEST PUSH1 0x0 PUSH2 0x2D84 DUP5 DUP3 DUP6 ADD PUSH2 0x29BC JUMP JUMPDEST SWAP2 POP POP SWAP3 SWAP2 POP POP JUMP JUMPDEST PUSH1 0x0 DUP3 DUP3 MSTORE PUSH1 0x20 DUP3 ADD SWAP1 POP SWAP3 SWAP2 POP POP JUMP JUMPDEST PUSH32 0x537943726F774261727465723A20494E41435449564500000000000000000000 PUSH1 0x0 DUP3 ADD MSTORE POP JUMP JUMPDEST PUSH1 0x0 PUSH2 0x2DD4 PUSH1 0x16 DUP4 PUSH2 0x2D8D JUMP JUMPDEST SWAP2 POP PUSH2 0x2DDF DUP3 PUSH2 0x2D9E JUMP JUMPDEST PUSH1 0x20 DUP3 ADD SWAP1 POP SWAP2 SWAP1 POP JUMP JUMPDEST PUSH1 0x0 PUSH1 0x20 DUP3 ADD SWAP1 POP DUP2 DUP2 SUB PUSH1 0x0 DUP4 ADD MSTORE PUSH2 0x2E03 DUP2 PUSH2 0x2DC7 JUMP JUMPDEST SWAP1 POP SWAP2 SWAP1 POP JUMP JUMPDEST PUSH32 0x537943726F774261727465723A204E4F545F494E495449414C495A4544000000 PUSH1 0x0 DUP3 ADD MSTORE POP JUMP JUMPDEST PUSH1 0x0 PUSH2 0x2E40 PUSH1 0x1D DUP4 PUSH2 0x2D8D JUMP JUMPDEST SWAP2 POP PUSH2 0x2E4B DUP3 PUSH2 0x2E0A JUMP JUMPDEST PUSH1 0x20 DUP3 ADD SWAP1 POP SWAP2 SWAP1 POP JUMP JUMPDEST PUSH1 0x0 PUSH1 0x20 DUP3 ADD SWAP1 POP DUP2 DUP2 SUB PUSH1 0x0 DUP4 ADD MSTORE PUSH2 0x2E6F DUP2 PUSH2 0x2E33 JUMP JUMPDEST SWAP1 POP SWAP2 SWAP1 POP JUMP JUMPDEST PUSH1 0x0 DUP2 MLOAD SWAP1 POP PUSH2 0x2E85 DUP2 PUSH2 0x29D1 JUMP JUMPDEST SWAP3 SWAP2 POP POP JUMP JUMPDEST PUSH1 0x0 PUSH1 0x20 DUP3 DUP5 SUB SLT ISZERO PUSH2 0x2EA1 JUMPI PUSH2 0x2EA0 PUSH2 0x285D JUMP JUMPDEST JUMPDEST PUSH1 0x0 PUSH2 0x2EAF DUP5 DUP3 DUP6 ADD PUSH2 0x2E76 JUMP JUMPDEST SWAP2 POP POP SWAP3 SWAP2 POP POP JUMP JUMPDEST PUSH32 0x537943726F774261727465723A204261736520436F6E74726163742050617573 PUSH1 0x0 DUP3 ADD MSTORE PUSH32 0x6564000000000000000000000000000000000000000000000000000000000000 PUSH1 0x20 DUP3 ADD MSTORE POP JUMP JUMPDEST PUSH1 0x0 PUSH2 0x2F14 PUSH1 0x22 DUP4 PUSH2 0x2D8D JUMP JUMPDEST SWAP2 POP PUSH2 0x2F1F DUP3 PUSH2 0x2EB8 JUMP JUMPDEST PUSH1 0x40 DUP3 ADD SWAP1 POP SWAP2 SWAP1 POP JUMP JUMPDEST PUSH1 0x0 PUSH1 0x20 DUP3 ADD SWAP1 POP DUP2 DUP2 SUB PUSH1 0x0 DUP4 ADD MSTORE PUSH2 0x2F43 DUP2 PUSH2 0x2F07 JUMP JUMPDEST SWAP1 POP SWAP2 SWAP1 POP JUMP JUMPDEST PUSH32 0x537943726F774261727465723A20494E56414C49445F4241525445525F545950 PUSH1 0x0 DUP3 ADD MSTORE PUSH32 0x4500000000000000000000000000000000000000000000000000000000000000 PUSH1 0x20 DUP3 ADD MSTORE POP JUMP JUMPDEST PUSH1 0x0 PUSH2 0x2FA6 PUSH1 0x21 DUP4 PUSH2 0x2D8D JUMP JUMPDEST SWAP2 POP PUSH2 0x2FB1 DUP3 PUSH2 0x2F4A JUMP JUMPDEST PUSH1 0x40 DUP3 ADD SWAP1 POP SWAP2 SWAP1 POP JUMP JUMPDEST PUSH1 0x0 PUSH1 0x20 DUP3 ADD SWAP1 POP DUP2 DUP2 SUB PUSH1 0x0 DUP4 ADD MSTORE PUSH2 0x2FD5 DUP2 PUSH2 0x2F99 JUMP JUMPDEST SWAP1 POP SWAP2 SWAP1 POP JUMP JUMPDEST PUSH32 0x537943726F774261727465723A20414D4F554E545F4C4F5745525F5448414E5F PUSH1 0x0 DUP3 ADD MSTORE PUSH32 0x5245515552495245440000000000000000000000000000000000000000000000 PUSH1 0x20 DUP3 ADD MSTORE POP JUMP JUMPDEST PUSH1 0x0 PUSH2 0x3038 PUSH1 0x29 DUP4 PUSH2 0x2D8D JUMP JUMPDEST SWAP2 POP PUSH2 0x3043 DUP3 PUSH2 0x2FDC JUMP JUMPDEST PUSH1 0x40 DUP3 ADD SWAP1 POP SWAP2 SWAP1 POP JUMP JUMPDEST PUSH1 0x0 PUSH1 0x20 DUP3 ADD SWAP1 POP DUP2 DUP2 SUB PUSH1 0x0 DUP4 ADD MSTORE PUSH2 0x3067 DUP2 PUSH2 0x302B JUMP JUMPDEST SWAP1 POP SWAP2 SWAP1 POP JUMP JUMPDEST PUSH32 0x537943726F774261727465723A20414354495645000000000000000000000000 PUSH1 0x0 DUP3 ADD MSTORE POP JUMP JUMPDEST PUSH1 0x0 PUSH2 0x30A4 PUSH1 0x14 DUP4 PUSH2 0x2D8D JUMP JUMPDEST SWAP2 POP PUSH2 0x30AF DUP3 PUSH2 0x306E JUMP JUMPDEST PUSH1 0x20 DUP3 ADD SWAP1 POP SWAP2 SWAP1 POP JUMP JUMPDEST PUSH1 0x0 PUSH1 0x20 DUP3 ADD SWAP1 POP DUP2 DUP2 SUB PUSH1 0x0 DUP4 ADD MSTORE PUSH2 0x30D3 DUP2 PUSH2 0x3097 JUMP JUMPDEST SWAP1 POP SWAP2 SWAP1 POP JUMP JUMPDEST PUSH32 0x4F776E61626C653A2063616C6C6572206973206E6F7420746865206F776E6572 PUSH1 0x0 DUP3 ADD MSTORE POP JUMP JUMPDEST PUSH1 0x0 PUSH2 0x3110 PUSH1 0x20 DUP4 PUSH2 0x2D8D JUMP JUMPDEST SWAP2 POP PUSH2 0x311B DUP3 PUSH2 0x30DA JUMP JUMPDEST PUSH1 0x20 DUP3 ADD SWAP1 POP SWAP2 SWAP1 POP JUMP JUMPDEST PUSH1 0x0 PUSH1 0x20 DUP3 ADD SWAP1 POP DUP2 DUP2 SUB PUSH1 0x0 DUP4 ADD MSTORE PUSH2 0x313F DUP2 PUSH2 0x3103 JUMP JUMPDEST SWAP1 POP SWAP2 SWAP1 POP JUMP JUMPDEST PUSH1 0x0 DUP2 MLOAD SWAP1 POP PUSH2 0x3155 DUP2 PUSH2 0x286C JUMP JUMPDEST SWAP3 SWAP2 POP POP JUMP JUMPDEST PUSH1 0x0 PUSH1 0x20 DUP3 DUP5 SUB SLT ISZERO PUSH2 0x3171 JUMPI PUSH2 0x3170 PUSH2 0x285D JUMP JUMPDEST JUMPDEST PUSH1 0x0 PUSH2 0x317F DUP5 DUP3 DUP6 ADD PUSH2 0x3146 JUMP JUMPDEST SWAP2 POP POP SWAP3 SWAP2 POP POP JUMP JUMPDEST PUSH1 0x0 PUSH1 0x80 DUP3 ADD SWAP1 POP PUSH2 0x319D PUSH1 0x0 DUP4 ADD DUP8 PUSH2 0x2B45 JUMP JUMPDEST PUSH2 0x31AA PUSH1 0x20 DUP4 ADD DUP7 PUSH2 0x2B45 JUMP JUMPDEST PUSH2 0x31B7 PUSH1 0x40 DUP4 ADD DUP6 PUSH2 0x28C5 JUMP JUMPDEST PUSH2 0x31C4 PUSH1 0x60 DUP4 ADD DUP5 PUSH2 0x28C5 JUMP JUMPDEST SWAP6 SWAP5 POP POP POP POP POP JUMP JUMPDEST PUSH32 0x537943726F774261727465723A20464F5242494444454E000000000000000000 PUSH1 0x0 DUP3 ADD MSTORE POP JUMP JUMPDEST PUSH1 0x0 PUSH2 0x3203 PUSH1 0x17 DUP4 PUSH2 0x2D8D JUMP JUMPDEST SWAP2 POP PUSH2 0x320E DUP3 PUSH2 0x31CD JUMP JUMPDEST PUSH1 0x20 DUP3 ADD SWAP1 POP SWAP2 SWAP1 POP JUMP JUMPDEST PUSH1 0x0 PUSH1 0x20 DUP3 ADD SWAP1 POP DUP2 DUP2 SUB PUSH1 0x0 DUP4 ADD MSTORE PUSH2 0x3232 DUP2 PUSH2 0x31F6 JUMP JUMPDEST SWAP1 POP SWAP2 SWAP1 POP JUMP JUMPDEST PUSH32 0x537943726F774261727465723A20414C52454144595F494E495449414C495A45 PUSH1 0x0 DUP3 ADD MSTORE PUSH32 0x4400000000000000000000000000000000000000000000000000000000000000 PUSH1 0x20 DUP3 ADD MSTORE POP JUMP JUMPDEST PUSH1 0x0 PUSH2 0x3295 PUSH1 0x21 DUP4 PUSH2 0x2D8D JUMP JUMPDEST SWAP2 POP PUSH2 0x32A0 DUP3 PUSH2 0x3239 JUMP JUMPDEST PUSH1 0x40 DUP3 ADD SWAP1 POP SWAP2 SWAP1 POP JUMP JUMPDEST PUSH1 0x0 PUSH1 0x20 DUP3 ADD SWAP1 POP DUP2 DUP2 SUB PUSH1 0x0 DUP4 ADD MSTORE PUSH2 0x32C4 DUP2 PUSH2 0x3288 JUMP JUMPDEST SWAP1 POP SWAP2 SWAP1 POP JUMP JUMPDEST PUSH32 0x537943726F774261727465723A20504153545F444541444C494E450000000000 PUSH1 0x0 DUP3 ADD MSTORE POP JUMP JUMPDEST PUSH1 0x0 PUSH2 0x3301 PUSH1 0x1B DUP4 PUSH2 0x2D8D JUMP JUMPDEST SWAP2 POP PUSH2 0x330C DUP3 PUSH2 0x32CB JUMP JUMPDEST PUSH1 0x20 DUP3 ADD SWAP1 POP SWAP2 SWAP1 POP JUMP JUMPDEST PUSH1 0x0 PUSH1 0x20 DUP3 ADD SWAP1 POP DUP2 DUP2 SUB PUSH1 0x0 DUP4 ADD MSTORE PUSH2 0x3330 DUP2 PUSH2 0x32F4 JUMP JUMPDEST SWAP1 POP SWAP2 SWAP1 POP JUMP JUMPDEST PUSH32 0x537943726F774261727465723A20494E53554646494349454E545F4445504F53 PUSH1 0x0 DUP3 ADD MSTORE PUSH32 0x4954000000000000000000000000000000000000000000000000000000000000 PUSH1 0x20 DUP3 ADD MSTORE POP JUMP JUMPDEST PUSH1 0x0 PUSH2 0x3393 PUSH1 0x22 DUP4 PUSH2 0x2D8D JUMP JUMPDEST SWAP2 POP PUSH2 0x339E DUP3 PUSH2 0x3337 JUMP JUMPDEST PUSH1 0x40 DUP3 ADD SWAP1 POP SWAP2 SWAP1 POP JUMP JUMPDEST PUSH1 0x0 PUSH1 0x20 DUP3 ADD SWAP1 POP DUP2 DUP2 SUB PUSH1 0x0 DUP4 ADD MSTORE PUSH2 0x33C2 DUP2 PUSH2 0x3386 JUMP JUMPDEST SWAP1 POP SWAP2 SWAP1 POP JUMP JUMPDEST PUSH32 0x4E487B7100000000000000000000000000000000000000000000000000000000 PUSH1 0x0 MSTORE PUSH1 0x11 PUSH1 0x4 MSTORE PUSH1 0x24 PUSH1 0x0 REVERT JUMPDEST PUSH1 0x0 PUSH2 0x3403 DUP3 PUSH2 0x2862 JUMP JUMPDEST SWAP2 POP PUSH2 0x340E DUP4 PUSH2 0x2862 JUMP JUMPDEST SWAP3 POP DUP2 PUSH32 0xFFFFFFFFFFFFFFFFFFFFFFFFFFFFFFFFFFFFFFFFFFFFFFFFFFFFFFFFFFFFFFFF DIV DUP4 GT DUP3 ISZERO ISZERO AND ISZERO PUSH2 0x3447 JUMPI PUSH2 0x3446 PUSH2 0x33C9 JUMP JUMPDEST JUMPDEST DUP3 DUP3 MUL SWAP1 POP SWAP3 SWAP2 POP POP JUMP JUMPDEST PUSH32 0x4E487B7100000000000000000000000000000000000000000000000000000000 PUSH1 0x0 MSTORE PUSH1 0x12 PUSH1 0x4 MSTORE PUSH1 0x24 PUSH1 0x0 REVERT JUMPDEST PUSH1 0x0 PUSH2 0x348C DUP3 PUSH2 0x2862 JUMP JUMPDEST SWAP2 POP PUSH2 0x3497 DUP4 PUSH2 0x2862 JUMP JUMPDEST SWAP3 POP DUP3 PUSH2 0x34A7 JUMPI PUSH2 0x34A6 PUSH2 0x3452 JUMP JUMPDEST JUMPDEST DUP3 DUP3 DIV SWAP1 POP SWAP3 SWAP2 POP POP JUMP JUMPDEST PUSH32 0x4E487B7100000000000000000000000000000000000000000000000000000000 PUSH1 0x0 MSTORE PUSH1 0x41 PUSH1 0x4 MSTORE PUSH1 0x24 PUSH1 0x0 REVERT JUMPDEST PUSH32 0x4E487B7100000000000000000000000000000000000000000000000000000000 PUSH1 0x0 MSTORE PUSH1 0x32 PUSH1 0x4 MSTORE PUSH1 0x24 PUSH1 0x0 REVERT JUMPDEST PUSH1 0x0 PUSH2 0x351B DUP3 PUSH2 0x2862 JUMP JUMPDEST SWAP2 POP PUSH32 0xFFFFFFFFFFFFFFFFFFFFFFFFFFFFFFFFFFFFFFFFFFFFFFFFFFFFFFFFFFFFFFFF DUP3 SUB PUSH2 0x354D JUMPI PUSH2 0x354C PUSH2 0x33C9 JUMP JUMPDEST JUMPDEST PUSH1 0x1 DUP3 ADD SWAP1 POP SWAP2 SWAP1 POP JUMP JUMPDEST PUSH32 0x4F776E61626C653A206E6577206F776E657220697320746865207A65726F2061 PUSH1 0x0 DUP3 ADD MSTORE PUSH32 0x6464726573730000000000000000000000000000000000000000000000000000 PUSH1 0x20 DUP3 ADD MSTORE POP JUMP JUMPDEST PUSH1 0x0 PUSH2 0x35B4 PUSH1 0x26 DUP4 PUSH2 0x2D8D JUMP JUMPDEST SWAP2 POP PUSH2 0x35BF DUP3 PUSH2 0x3558 JUMP JUMPDEST PUSH1 0x40 DUP3 ADD SWAP1 POP SWAP2 SWAP1 POP JUMP JUMPDEST PUSH1 0x0 PUSH1 0x20 DUP3 ADD SWAP1 POP DUP2 DUP2 SUB PUSH1 0x0 DUP4 ADD MSTORE PUSH2 0x35E3 DUP2 PUSH2 0x35A7 JUMP JUMPDEST SWAP1 POP SWAP2 SWAP1 POP JUMP JUMPDEST PUSH32 0x537943726F774261727465723A20494E53554646494349454E545F42414C414E PUSH1 0x0 DUP3 ADD MSTORE PUSH32 0x4345000000000000000000000000000000000000000000000000000000000000 PUSH1 0x20 DUP3 ADD MSTORE POP JUMP JUMPDEST PUSH1 0x0 PUSH2 0x3646 PUSH1 0x22 DUP4 PUSH2 0x2D8D JUMP JUMPDEST SWAP2 POP PUSH2 0x3651 DUP3 PUSH2 0x35EA JUMP JUMPDEST PUSH1 0x40 DUP3 ADD SWAP1 POP SWAP2 SWAP1 POP JUMP JUMPDEST PUSH1 0x0 PUSH1 0x20 DUP3 ADD SWAP1 POP DUP2 DUP2 SUB PUSH1 0x0 DUP4 ADD MSTORE PUSH2 0x3675 DUP2 PUSH2 0x3639 JUMP JUMPDEST SWAP1 POP SWAP2 SWAP1 POP JUMP JUMPDEST PUSH32 0x537943726F774261727465723A20494E53554646494349454E545F434F4E5452 PUSH1 0x0 DUP3 ADD MSTORE PUSH32 0x4143545F42414C414E4345000000000000000000000000000000000000000000 PUSH1 0x20 DUP3 ADD MSTORE POP JUMP JUMPDEST PUSH1 0x0 PUSH2 0x36D8 PUSH1 0x2B DUP4 PUSH2 0x2D8D JUMP JUMPDEST SWAP2 POP PUSH2 0x36E3 DUP3 PUSH2 0x367C JUMP JUMPDEST PUSH1 0x40 DUP3 ADD SWAP1 POP SWAP2 SWAP1 POP JUMP JUMPDEST PUSH1 0x0 PUSH1 0x20 DUP3 ADD SWAP1 POP DUP2 DUP2 SUB PUSH1 0x0 DUP4 ADD MSTORE PUSH2 0x3707 DUP2 PUSH2 0x36CB JUMP JUMPDEST SWAP1 POP SWAP2 SWAP1 POP JUMP JUMPDEST PUSH1 0x0 PUSH2 0x3719 DUP3 PUSH2 0x2862 JUMP JUMPDEST SWAP2 POP PUSH2 0x3724 DUP4 PUSH2 0x2862 JUMP JUMPDEST SWAP3 POP DUP3 PUSH32 0xFFFFFFFFFFFFFFFFFFFFFFFFFFFFFFFFFFFFFFFFFFFFFFFFFFFFFFFFFFFFFFFF SUB DUP3 GT ISZERO PUSH2 0x3759 JUMPI PUSH2 0x3758 PUSH2 0x33C9 JUMP JUMPDEST JUMPDEST DUP3 DUP3 ADD SWAP1 POP SWAP3 SWAP2 POP POP JUMP JUMPDEST PUSH1 0x0 DUP2 MLOAD SWAP1 POP SWAP2 SWAP1 POP JUMP JUMPDEST PUSH1 0x0 DUP2 SWAP1 POP SWAP3 SWAP2 POP POP JUMP JUMPDEST PUSH1 0x0 JUMPDEST DUP4 DUP2 LT ISZERO PUSH2 0x3798 JUMPI DUP1 DUP3 ADD MLOAD DUP2 DUP5 ADD MSTORE PUSH1 0x20 DUP2 ADD SWAP1 POP PUSH2 0x377D JUMP JUMPDEST DUP4 DUP2 GT ISZERO PUSH2 0x37A7 JUMPI PUSH1 0x0 DUP5 DUP5 ADD MSTORE JUMPDEST POP POP POP POP JUMP JUMPDEST PUSH1 0x0 PUSH2 0x37B8 DUP3 PUSH2 0x3764 JUMP JUMPDEST PUSH2 0x37C2 DUP2 DUP6 PUSH2 0x376F JUMP JUMPDEST SWAP4 POP PUSH2 0x37D2 DUP2 DUP6 PUSH1 0x20 DUP7 ADD PUSH2 0x377A JUMP JUMPDEST DUP1 DUP5 ADD SWAP2 POP POP SWAP3 SWAP2 POP POP JUMP JUMPDEST PUSH1 0x0 PUSH2 0x37EA DUP3 DUP5 PUSH2 0x37AD JUMP JUMPDEST SWAP2 POP DUP2 SWAP1 POP SWAP3 SWAP2 POP POP JUMP JUMPDEST PUSH32 0x5472616E7366657248656C7065723A204554485F5452414E534645525F464149 PUSH1 0x0 DUP3 ADD MSTORE PUSH32 0x4C45440000000000000000000000000000000000000000000000000000000000 PUSH1 0x20 DUP3 ADD MSTORE POP JUMP JUMPDEST PUSH1 0x0 PUSH2 0x3851 PUSH1 0x23 DUP4 PUSH2 0x2D8D JUMP JUMPDEST SWAP2 POP PUSH2 0x385C DUP3 PUSH2 0x37F5 JUMP JUMPDEST PUSH1 0x40 DUP3 ADD SWAP1 POP SWAP2 SWAP1 POP JUMP JUMPDEST PUSH1 0x0 PUSH1 0x20 DUP3 ADD SWAP1 POP DUP2 DUP2 SUB PUSH1 0x0 DUP4 ADD MSTORE PUSH2 0x3880 DUP2 PUSH2 0x3844 JUMP JUMPDEST SWAP1 POP SWAP2 SWAP1 POP JUMP JUMPDEST PUSH1 0x0 PUSH1 0x40 DUP3 ADD SWAP1 POP PUSH2 0x389C PUSH1 0x0 DUP4 ADD DUP6 PUSH2 0x2B45 JUMP JUMPDEST PUSH2 0x38A9 PUSH1 0x20 DUP4 ADD DUP5 PUSH2 0x28C5 JUMP JUMPDEST SWAP4 SWAP3 POP POP POP JUMP JUMPDEST PUSH32 0x5472616E7366657248656C7065723A205452414E534645525F4641494C454400 PUSH1 0x0 DUP3 ADD MSTORE POP JUMP JUMPDEST PUSH1 0x0 PUSH2 0x38E6 PUSH1 0x1F DUP4 PUSH2 0x2D8D JUMP JUMPDEST SWAP2 POP PUSH2 0x38F1 DUP3 PUSH2 0x38B0 JUMP JUMPDEST PUSH1 0x20 DUP3 ADD SWAP1 POP SWAP2 SWAP1 POP JUMP JUMPDEST PUSH1 0x0 PUSH1 0x20 DUP3 ADD SWAP1 POP DUP2 DUP2 SUB PUSH1 0x0 DUP4 ADD MSTORE PUSH2 0x3915 DUP2 PUSH2 0x38D9 JUMP JUMPDEST SWAP1 POP SWAP2 SWAP1 POP JUMP JUMPDEST PUSH32 0x537943726F774261727465723A204D554C54495F54524144455F4E4F545F454E PUSH1 0x0 DUP3 ADD MSTORE PUSH32 0x41424C4544000000000000000000000000000000000000000000000000000000 PUSH1 0x20 DUP3 ADD MSTORE POP JUMP JUMPDEST PUSH1 0x0 PUSH2 0x3978 PUSH1 0x25 DUP4 PUSH2 0x2D8D JUMP JUMPDEST SWAP2 POP PUSH2 0x3983 DUP3 PUSH2 0x391C JUMP JUMPDEST PUSH1 0x40 DUP3 ADD SWAP1 POP SWAP2 SWAP1 POP JUMP JUMPDEST PUSH1 0x0 PUSH1 0x20 DUP3 ADD SWAP1 POP DUP2 DUP2 SUB PUSH1 0x0 DUP4 ADD MSTORE PUSH2 0x39A7 DUP2 PUSH2 0x396B JUMP JUMPDEST SWAP1 POP SWAP2 SWAP1 POP JUMP JUMPDEST PUSH1 0x0 PUSH1 0x60 DUP3 ADD SWAP1 POP PUSH2 0x39C3 PUSH1 0x0 DUP4 ADD DUP7 PUSH2 0x2B45 JUMP JUMPDEST PUSH2 0x39D0 PUSH1 0x20 DUP4 ADD DUP6 PUSH2 0x2B45 JUMP JUMPDEST PUSH2 0x39DD PUSH1 0x40 DUP4 ADD DUP5 PUSH2 0x28C5 JUMP JUMPDEST SWAP5 SWAP4 POP POP POP POP JUMP JUMPDEST PUSH32 0x5472616E7366657248656C7065723A205452414E534645525F46524F4D5F4641 PUSH1 0x0 DUP3 ADD MSTORE PUSH32 0x494C454400000000000000000000000000000000000000000000000000000000 PUSH1 0x20 DUP3 ADD MSTORE POP JUMP JUMPDEST PUSH1 0x0 PUSH2 0x3A41 PUSH1 0x24 DUP4 PUSH2 0x2D8D JUMP JUMPDEST SWAP2 POP PUSH2 0x3A4C DUP3 PUSH2 0x39E5 JUMP JUMPDEST PUSH1 0x40 DUP3 ADD SWAP1 POP SWAP2 SWAP1 POP JUMP JUMPDEST PUSH1 0x0 PUSH1 0x20 DUP3 ADD SWAP1 POP DUP2 DUP2 SUB PUSH1 0x0 DUP4 ADD MSTORE PUSH2 0x3A70 DUP2 PUSH2 0x3A34 JUMP JUMPDEST SWAP1 POP SWAP2 SWAP1 POP JUMP INVALID LOG2 PUSH5 0x6970667358 0x22 SLT KECCAK256 0xC1 0xAB SWAP11 STATICCALL EXP 0xDF SWAP14 SWAP1 0xA5 GT 0xA9 SWAP6 BASEFEE PUSH11 0x80C06AA6BE28F97246F8A6 SLT SAR 0xDB ISZERO 0x25 0xCE 0xB0 PUSH5 0x736F6C6343 STOP ADDMOD 0xD STOP CALLER "
				},
				"gasEstimates": {
					"creation": {
						"codeDepositCost": "3004200",
						"executionCost": "infinite",
						"totalCost": "infinite"
					},
					"external": {
						"": "197",
						"_initialized()": "2611",
						"allowMultiBarter()": "2515",
						"barterType()": "2605",
						"deadline()": "2475",
						"factory()": "infinite",
						"getAmounts()": "infinite",
						"getTokens()": "infinite",
						"getTradeOutAmount(uint256)": "infinite",
						"getTrades()": "infinite",
						"initialize(uint8,address,address,uint256,uint256,uint256,bool,address)": "infinite",
						"owner()": "2589",
						"renounceOwnership()": "30397",
						"totalTradeAmount()": "2496",
						"tradeEthForToken(uint256)": "infinite",
						"tradeTokenForEth(uint256)": "infinite",
						"tradeTokenForToken(uint256)": "infinite",
						"transferOwnership(address)": "30830",
						"withdraw()": "infinite"
					},
					"internal": {
						"_tradeEthForToken(uint256)": "infinite",
						"_tradeTokenForEth(uint256)": "infinite",
						"_tradeTokenForToken(uint256)": "infinite"
					}
				},
				"methodIdentifiers": {
					"_initialized()": "3072cf60",
					"allowMultiBarter()": "c6ea7038",
					"barterType()": "89523742",
					"deadline()": "29dcb0cf",
					"factory()": "c45a0155",
					"getAmounts()": "3d370b4e",
					"getTokens()": "aa6ca808",
					"getTradeOutAmount(uint256)": "dab5a8df",
					"getTrades()": "e43372e9",
					"initialize(uint8,address,address,uint256,uint256,uint256,bool,address)": "5f5780e5",
					"owner()": "8da5cb5b",
					"renounceOwnership()": "715018a6",
					"totalTradeAmount()": "40a6f1ab",
					"tradeEthForToken(uint256)": "4341f920",
					"tradeTokenForEth(uint256)": "0d182605",
					"tradeTokenForToken(uint256)": "2ffc6887",
					"transferOwnership(address)": "f2fde38b",
					"withdraw()": "3ccfd60b"
				}
			},
			"storageLayout": {
				"storage": [
					{
						"astId": 7,
						"contract": "contracts/SycrowBarter.sol:SyCrowBarter",
						"label": "_owner",
						"offset": 0,
						"slot": "0",
						"type": "t_address"
					},
					{
						"astId": 142,
						"contract": "contracts/SycrowBarter.sol:SyCrowBarter",
						"label": "totalTradeAmount",
						"offset": 0,
						"slot": "1",
						"type": "t_uint256"
					},
					{
						"astId": 144,
						"contract": "contracts/SycrowBarter.sol:SyCrowBarter",
						"label": "allowMultiBarter",
						"offset": 0,
						"slot": "2",
						"type": "t_bool"
					},
					{
						"astId": 146,
						"contract": "contracts/SycrowBarter.sol:SyCrowBarter",
						"label": "deadline",
						"offset": 0,
						"slot": "3",
						"type": "t_uint256"
					},
					{
						"astId": 149,
						"contract": "contracts/SycrowBarter.sol:SyCrowBarter",
						"label": "barterType",
						"offset": 0,
						"slot": "4",
						"type": "t_enum(ISyCrowBarterType)1081"
					},
					{
						"astId": 151,
						"contract": "contracts/SycrowBarter.sol:SyCrowBarter",
						"label": "WETH",
						"offset": 1,
						"slot": "4",
						"type": "t_address"
					},
					{
						"astId": 154,
						"contract": "contracts/SycrowBarter.sol:SyCrowBarter",
						"label": "_initialized",
						"offset": 21,
						"slot": "4",
						"type": "t_bool"
					},
					{
						"astId": 156,
						"contract": "contracts/SycrowBarter.sol:SyCrowBarter",
						"label": "_depositedTokenAddress",
						"offset": 0,
						"slot": "5",
						"type": "t_address"
					},
					{
						"astId": 158,
						"contract": "contracts/SycrowBarter.sol:SyCrowBarter",
						"label": "_expectedTokenAddress",
						"offset": 0,
						"slot": "6",
						"type": "t_address"
					},
					{
						"astId": 160,
						"contract": "contracts/SycrowBarter.sol:SyCrowBarter",
						"label": "_depositedAmount",
						"offset": 0,
						"slot": "7",
						"type": "t_uint256"
					},
					{
						"astId": 162,
						"contract": "contracts/SycrowBarter.sol:SyCrowBarter",
						"label": "_expectedAmount",
						"offset": 0,
						"slot": "8",
						"type": "t_uint256"
					},
					{
						"astId": 166,
						"contract": "contracts/SycrowBarter.sol:SyCrowBarter",
						"label": "_trades",
						"offset": 0,
						"slot": "9",
						"type": "t_array(t_struct(BaterTrade)173_storage)dyn_storage"
					}
				],
				"types": {
					"t_address": {
						"encoding": "inplace",
						"label": "address",
						"numberOfBytes": "20"
					},
					"t_array(t_struct(BaterTrade)173_storage)dyn_storage": {
						"base": "t_struct(BaterTrade)173_storage",
						"encoding": "dynamic_array",
						"label": "struct SyCrowBarter.BaterTrade[]",
						"numberOfBytes": "32"
					},
					"t_bool": {
						"encoding": "inplace",
						"label": "bool",
						"numberOfBytes": "1"
					},
					"t_enum(ISyCrowBarterType)1081": {
						"encoding": "inplace",
						"label": "enum ISyCrowBarterType",
						"numberOfBytes": "1"
					},
					"t_struct(BaterTrade)173_storage": {
						"encoding": "inplace",
						"label": "struct SyCrowBarter.BaterTrade",
						"members": [
							{
								"astId": 168,
								"contract": "contracts/SycrowBarter.sol:SyCrowBarter",
								"label": "_trader",
								"offset": 0,
								"slot": "0",
								"type": "t_address"
							},
							{
								"astId": 170,
								"contract": "contracts/SycrowBarter.sol:SyCrowBarter",
								"label": "_amountIn",
								"offset": 0,
								"slot": "1",
								"type": "t_uint256"
							},
							{
								"astId": 172,
								"contract": "contracts/SycrowBarter.sol:SyCrowBarter",
								"label": "_amountOut",
								"offset": 0,
								"slot": "2",
								"type": "t_uint256"
							}
						],
						"numberOfBytes": "96"
					},
					"t_uint256": {
						"encoding": "inplace",
						"label": "uint256",
						"numberOfBytes": "32"
					}
				}
			},
			"userdoc": {
				"kind": "user",
				"methods": {},
				"version": 1
			}
		}
	}
}