{
	"contracts/SyCrowBarter.sol": {
		"SyCrowBarter": {
			"abi": [
				{
					"inputs": [],
					"stateMutability": "nonpayable",
					"type": "constructor"
				},
				{
					"anonymous": false,
					"inputs": [
						{
							"indexed": true,
							"internalType": "address",
							"name": "previousOwner",
							"type": "address"
						},
						{
							"indexed": true,
							"internalType": "address",
							"name": "newOwner",
							"type": "address"
						}
					],
					"name": "OwnershipTransferred",
					"type": "event"
				},
				{
					"inputs": [],
					"name": "_initialized",
					"outputs": [
						{
							"internalType": "bool",
							"name": "",
							"type": "bool"
						}
					],
					"stateMutability": "view",
					"type": "function"
				},
				{
					"inputs": [],
					"name": "barterType",
					"outputs": [
						{
							"internalType": "enum ISyCrowBarterType",
							"name": "",
							"type": "uint8"
						}
					],
					"stateMutability": "view",
					"type": "function"
				},
				{
					"inputs": [],
					"name": "factory",
					"outputs": [
						{
							"internalType": "address",
							"name": "",
							"type": "address"
						}
					],
					"stateMutability": "view",
					"type": "function"
				},
				{
					"inputs": [],
					"name": "getAmounts",
					"outputs": [
						{
							"internalType": "uint256",
							"name": "",
							"type": "uint256"
						},
						{
							"internalType": "uint256",
							"name": "",
							"type": "uint256"
						}
					],
					"stateMutability": "view",
					"type": "function"
				},
				{
					"inputs": [],
					"name": "getTokens",
					"outputs": [
						{
							"internalType": "address",
							"name": "",
							"type": "address"
						},
						{
							"internalType": "address",
							"name": "",
							"type": "address"
						}
					],
					"stateMutability": "view",
					"type": "function"
				},
				{
					"inputs": [
						{
							"internalType": "uint256",
							"name": "amount",
							"type": "uint256"
						}
					],
					"name": "getTradeOutAmount",
					"outputs": [
						{
							"internalType": "uint256",
							"name": "",
							"type": "uint256"
						}
					],
					"stateMutability": "view",
					"type": "function"
				},
				{
					"inputs": [],
					"name": "getTrades",
					"outputs": [
						{
							"internalType": "address[]",
							"name": "",
							"type": "address[]"
						},
						{
							"internalType": "uint256[]",
							"name": "",
							"type": "uint256[]"
						},
						{
							"internalType": "uint256[]",
							"name": "",
							"type": "uint256[]"
						}
					],
					"stateMutability": "view",
					"type": "function"
				},
				{
					"inputs": [
						{
							"internalType": "enum ISyCrowBarterType",
							"name": "_barterType",
							"type": "uint8"
						},
						{
							"internalType": "address",
							"name": "inToken",
							"type": "address"
						},
						{
							"internalType": "address",
							"name": "outToken",
							"type": "address"
						},
						{
							"internalType": "uint256",
							"name": "amountDeposited",
							"type": "uint256"
						},
						{
							"internalType": "uint256",
							"name": "amountExpected",
							"type": "uint256"
						},
						{
							"internalType": "uint256",
							"name": "deadline",
							"type": "uint256"
						},
						{
							"internalType": "bool",
							"name": "allowMultiBarter",
							"type": "bool"
						},
						{
							"internalType": "address",
							"name": "_WETH",
							"type": "address"
						}
					],
					"name": "initialize",
					"outputs": [
						{
							"internalType": "bool",
							"name": "",
							"type": "bool"
						}
					],
					"stateMutability": "nonpayable",
					"type": "function"
				},
				{
					"inputs": [],
					"name": "owner",
					"outputs": [
						{
							"internalType": "address",
							"name": "",
							"type": "address"
						}
					],
					"stateMutability": "view",
					"type": "function"
				},
				{
					"inputs": [],
					"name": "renounceOwnership",
					"outputs": [],
					"stateMutability": "nonpayable",
					"type": "function"
				},
				{
					"inputs": [],
					"name": "totalTradeAmount",
					"outputs": [
						{
							"internalType": "uint256",
							"name": "",
							"type": "uint256"
						}
					],
					"stateMutability": "view",
					"type": "function"
				},
				{
					"inputs": [
						{
							"internalType": "uint256",
							"name": "inAmount",
							"type": "uint256"
						}
					],
					"name": "tradeEthForToken",
					"outputs": [],
					"stateMutability": "payable",
					"type": "function"
				},
				{
					"inputs": [],
					"name": "tradeEthForToken",
					"outputs": [],
					"stateMutability": "payable",
					"type": "function"
				},
				{
					"inputs": [
						{
							"internalType": "uint256",
							"name": "inAmount",
							"type": "uint256"
						}
					],
					"name": "tradeTokenForEth",
					"outputs": [],
					"stateMutability": "nonpayable",
					"type": "function"
				},
				{
					"inputs": [],
					"name": "tradeTokenForEth",
					"outputs": [],
					"stateMutability": "nonpayable",
					"type": "function"
				},
				{
					"inputs": [
						{
							"internalType": "uint256",
							"name": "inAmount",
							"type": "uint256"
						}
					],
					"name": "tradeTokenForToken",
					"outputs": [],
					"stateMutability": "nonpayable",
					"type": "function"
				},
				{
					"inputs": [],
					"name": "tradeTokenForToken",
					"outputs": [],
					"stateMutability": "nonpayable",
					"type": "function"
				},
				{
					"inputs": [
						{
							"internalType": "address",
							"name": "newOwner",
							"type": "address"
						}
					],
					"name": "transferOwnership",
					"outputs": [],
					"stateMutability": "nonpayable",
					"type": "function"
				},
				{
					"inputs": [],
					"name": "withdraw",
					"outputs": [],
					"stateMutability": "nonpayable",
					"type": "function"
				}
			],
			"devdoc": {
				"kind": "dev",
				"methods": {
					"owner()": {
						"details": "Returns the address of the current owner."
					},
					"renounceOwnership()": {
						"details": "Leaves the contract without owner. It will not be possible to call `onlyOwner` functions anymore. Can only be called by the current owner. NOTE: Renouncing ownership will leave the contract without an owner, thereby removing any functionality that is only available to the owner."
					},
					"transferOwnership(address)": {
						"details": "Transfers ownership of the contract to a new account (`newOwner`). Can only be called by the current owner."
					}
				},
				"version": 1
			},
			"evm": {
				"assembly": "    /* \"contracts/SyCrowBarter.sol\":269:10479  contract SyCrowBarter is ISyCrowBarter, Ownable {... */\n  mstore(0x40, 0xa0)\n    /* \"contracts/SyCrowBarter.sol\":536:541  false */\n  0x00\n    /* \"contracts/SyCrowBarter.sol\":509:541  bool public _initialized = false */\n  0x04\n  exp(0x0100, 0x00)\n  dup2\n  sload\n  dup2\n  0xff\n  mul\n  not\n  and\n  swap1\n  dup4\n  iszero\n  iszero\n  mul\n  or\n  swap1\n  sstore\n  pop\n    /* \"contracts/SyCrowBarter.sol\":1891:1942  constructor() {... */\n  callvalue\n  dup1\n  iszero\n  tag_1\n  jumpi\n  0x00\n  dup1\n  revert\ntag_1:\n  pop\n    /* \"@openzeppelin/contracts/access/Ownable.sol\":921:953  _transferOwnership(_msgSender()) */\n  tag_5\n    /* \"@openzeppelin/contracts/access/Ownable.sol\":940:952  _msgSender() */\n  tag_6\n    /* \"@openzeppelin/contracts/access/Ownable.sol\":940:950  _msgSender */\n  shl(0x20, tag_7)\n    /* \"@openzeppelin/contracts/access/Ownable.sol\":940:952  _msgSender() */\n  0x20\n  shr\n  jump\t// in\ntag_6:\n    /* \"@openzeppelin/contracts/access/Ownable.sol\":921:939  _transferOwnership */\n  shl(0x20, tag_8)\n    /* \"@openzeppelin/contracts/access/Ownable.sol\":921:953  _transferOwnership(_msgSender()) */\n  0x20\n  shr\n  jump\t// in\ntag_5:\n    /* \"contracts/SyCrowBarter.sol\":1925:1935  msg.sender */\n  caller\n    /* \"contracts/SyCrowBarter.sol\":1915:1935  factory = msg.sender */\n  0xffffffffffffffffffffffffffffffffffffffff\n  and\n  0x80\n  dup2\n  0xffffffffffffffffffffffffffffffffffffffff\n  and\n  dup2\n  mstore\n  pop\n  pop\n    /* \"contracts/SyCrowBarter.sol\":269:10479  contract SyCrowBarter is ISyCrowBarter, Ownable {... */\n  jump(tag_10)\n    /* \"@openzeppelin/contracts/utils/Context.sol\":640:736  function _msgSender() internal view virtual returns (address) {... */\ntag_7:\n    /* \"@openzeppelin/contracts/utils/Context.sol\":693:700  address */\n  0x00\n    /* \"@openzeppelin/contracts/utils/Context.sol\":719:729  msg.sender */\n  caller\n    /* \"@openzeppelin/contracts/utils/Context.sol\":712:729  return msg.sender */\n  swap1\n  pop\n    /* \"@openzeppelin/contracts/utils/Context.sol\":640:736  function _msgSender() internal view virtual returns (address) {... */\n  swap1\n  jump\t// out\n    /* \"@openzeppelin/contracts/access/Ownable.sol\":2270:2457  function _transferOwnership(address newOwner) internal virtual {... */\ntag_8:\n    /* \"@openzeppelin/contracts/access/Ownable.sol\":2343:2359  address oldOwner */\n  0x00\n    /* \"@openzeppelin/contracts/access/Ownable.sol\":2362:2368  _owner */\n  dup1\n  0x00\n  swap1\n  sload\n  swap1\n  0x0100\n  exp\n  swap1\n  div\n  0xffffffffffffffffffffffffffffffffffffffff\n  and\n    /* \"@openzeppelin/contracts/access/Ownable.sol\":2343:2368  address oldOwner = _owner */\n  swap1\n  pop\n    /* \"@openzeppelin/contracts/access/Ownable.sol\":2387:2395  newOwner */\n  dup2\n    /* \"@openzeppelin/contracts/access/Ownable.sol\":2378:2384  _owner */\n  0x00\n  dup1\n    /* \"@openzeppelin/contracts/access/Ownable.sol\":2378:2395  _owner = newOwner */\n  0x0100\n  exp\n  dup2\n  sload\n  dup2\n  0xffffffffffffffffffffffffffffffffffffffff\n  mul\n  not\n  and\n  swap1\n  dup4\n  0xffffffffffffffffffffffffffffffffffffffff\n  and\n  mul\n  or\n  swap1\n  sstore\n  pop\n    /* \"@openzeppelin/contracts/access/Ownable.sol\":2441:2449  newOwner */\n  dup2\n    /* \"@openzeppelin/contracts/access/Ownable.sol\":2410:2450  OwnershipTransferred(oldOwner, newOwner) */\n  0xffffffffffffffffffffffffffffffffffffffff\n  and\n    /* \"@openzeppelin/contracts/access/Ownable.sol\":2431:2439  oldOwner */\n  dup2\n    /* \"@openzeppelin/contracts/access/Ownable.sol\":2410:2450  OwnershipTransferred(oldOwner, newOwner) */\n  0xffffffffffffffffffffffffffffffffffffffff\n  and\n  0x8be0079c531659141344cd1fd0a4f28419497f9722a3daafe3b4186f6b6457e0\n  mload(0x40)\n  mload(0x40)\n  dup1\n  swap2\n  sub\n  swap1\n  log3\n    /* \"@openzeppelin/contracts/access/Ownable.sol\":2333:2457  {... */\n  pop\n    /* \"@openzeppelin/contracts/access/Ownable.sol\":2270:2457  function _transferOwnership(address newOwner) internal virtual {... */\n  pop\n  jump\t// out\n    /* \"contracts/SyCrowBarter.sol\":269:10479  contract SyCrowBarter is ISyCrowBarter, Ownable {... */\ntag_10:\n  mload(0x80)\n  codecopy(0x00, dataOffset(sub_0), dataSize(sub_0))\n  0x00\n  assignImmutable(\"0x26a975632f70533c9512e57b565b8ce8e2befee6b08dfbc27c4a897a20e2c1d6\")\n  return(0x00, dataSize(sub_0))\nstop\n\nsub_0: assembly {\n        /* \"contracts/SyCrowBarter.sol\":269:10479  contract SyCrowBarter is ISyCrowBarter, Ownable {... */\n      mstore(0x40, 0x80)\n      jumpi(tag_1, lt(calldatasize, 0x04))\n      shr(0xe0, calldataload(0x00))\n      dup1\n      0x89523742\n      gt\n      tag_21\n      jumpi\n      dup1\n      0xc45a0155\n      gt\n      tag_22\n      jumpi\n      dup1\n      0xc45a0155\n      eq\n      tag_16\n      jumpi\n      dup1\n      0xd7bdfc75\n      eq\n      tag_17\n      jumpi\n      dup1\n      0xdab5a8df\n      eq\n      tag_18\n      jumpi\n      dup1\n      0xe43372e9\n      eq\n      tag_19\n      jumpi\n      dup1\n      0xf2fde38b\n      eq\n      tag_20\n      jumpi\n      jump(tag_1)\n    tag_22:\n      dup1\n      0x89523742\n      eq\n      tag_11\n      jumpi\n      dup1\n      0x8da5cb5b\n      eq\n      tag_12\n      jumpi\n      dup1\n      0xa09702b1\n      eq\n      tag_13\n      jumpi\n      dup1\n      0xaa6ca808\n      eq\n      tag_14\n      jumpi\n      dup1\n      0xabd050ea\n      eq\n      tag_15\n      jumpi\n      jump(tag_1)\n    tag_21:\n      dup1\n      0x3d370b4e\n      gt\n      tag_23\n      jumpi\n      dup1\n      0x3d370b4e\n      eq\n      tag_6\n      jumpi\n      dup1\n      0x40a6f1ab\n      eq\n      tag_7\n      jumpi\n      dup1\n      0x4341f920\n      eq\n      tag_8\n      jumpi\n      dup1\n      0x5f5780e5\n      eq\n      tag_9\n      jumpi\n      dup1\n      0x715018a6\n      eq\n      tag_10\n      jumpi\n      jump(tag_1)\n    tag_23:\n      dup1\n      0x0d182605\n      eq\n      tag_2\n      jumpi\n      dup1\n      0x2ffc6887\n      eq\n      tag_3\n      jumpi\n      dup1\n      0x3072cf60\n      eq\n      tag_4\n      jumpi\n      dup1\n      0x3ccfd60b\n      eq\n      tag_5\n      jumpi\n    tag_1:\n      0x00\n      dup1\n      revert\n        /* \"contracts/SyCrowBarter.sol\":4355:4624  function tradeTokenForEth(uint256 inAmount)... */\n    tag_2:\n      callvalue\n      dup1\n      iszero\n      tag_24\n      jumpi\n      0x00\n      dup1\n      revert\n    tag_24:\n      pop\n      tag_25\n      0x04\n      dup1\n      calldatasize\n      sub\n      dup2\n      add\n      swap1\n      tag_26\n      swap2\n      swap1\n      tag_27\n      jump\t// in\n    tag_26:\n      tag_28\n      jump\t// in\n    tag_25:\n      stop\n        /* \"contracts/SyCrowBarter.sol\":4074:4349  function tradeTokenForToken(uint256 inAmount)... */\n    tag_3:\n      callvalue\n      dup1\n      iszero\n      tag_29\n      jumpi\n      0x00\n      dup1\n      revert\n    tag_29:\n      pop\n      tag_30\n      0x04\n      dup1\n      calldatasize\n      sub\n      dup2\n      add\n      swap1\n      tag_31\n      swap2\n      swap1\n      tag_27\n      jump\t// in\n    tag_31:\n      tag_32\n      jump\t// in\n    tag_30:\n      stop\n        /* \"contracts/SyCrowBarter.sol\":509:541  bool public _initialized = false */\n    tag_4:\n      callvalue\n      dup1\n      iszero\n      tag_33\n      jumpi\n      0x00\n      dup1\n      revert\n    tag_33:\n      pop\n      tag_34\n      tag_35\n      jump\t// in\n    tag_34:\n      mload(0x40)\n      tag_36\n      swap2\n      swap1\n      tag_37\n      jump\t// in\n    tag_36:\n      mload(0x40)\n      dup1\n      swap2\n      sub\n      swap1\n      return\n        /* \"contracts/SyCrowBarter.sol\":8584:10301  function withdraw() external override checkInActive initialized onlyOwner {... */\n    tag_5:\n      callvalue\n      dup1\n      iszero\n      tag_38\n      jumpi\n      0x00\n      dup1\n      revert\n    tag_38:\n      pop\n      tag_39\n      tag_40\n      jump\t// in\n    tag_39:\n      stop\n        /* \"contracts/SyCrowBarter.sol\":2985:3172  function getAmounts()... */\n    tag_6:\n      callvalue\n      dup1\n      iszero\n      tag_41\n      jumpi\n      0x00\n      dup1\n      revert\n    tag_41:\n      pop\n      tag_42\n      tag_43\n      jump\t// in\n    tag_42:\n      mload(0x40)\n      tag_44\n      swap3\n      swap2\n      swap1\n      tag_45\n      jump\t// in\n    tag_44:\n      mload(0x40)\n      dup1\n      swap2\n      sub\n      swap1\n      return\n        /* \"contracts/SyCrowBarter.sol\":370:401  uint256 public totalTradeAmount */\n    tag_7:\n      callvalue\n      dup1\n      iszero\n      tag_46\n      jumpi\n      0x00\n      dup1\n      revert\n    tag_46:\n      pop\n      tag_47\n      tag_48\n      jump\t// in\n    tag_47:\n      mload(0x40)\n      tag_49\n      swap2\n      swap1\n      tag_50\n      jump\t// in\n    tag_49:\n      mload(0x40)\n      dup1\n      swap2\n      sub\n      swap1\n      return\n        /* \"contracts/SyCrowBarter.sol\":4630:4915  function tradeEthForToken(uint256 inAmount)... */\n    tag_8:\n      tag_51\n      0x04\n      dup1\n      calldatasize\n      sub\n      dup2\n      add\n      swap1\n      tag_52\n      swap2\n      swap1\n      tag_27\n      jump\t// in\n    tag_52:\n      tag_53\n      jump\t// in\n    tag_51:\n      stop\n        /* \"contracts/SyCrowBarter.sol\":1948:2979  function initialize(... */\n    tag_9:\n      callvalue\n      dup1\n      iszero\n      tag_54\n      jumpi\n      0x00\n      dup1\n      revert\n    tag_54:\n      pop\n      tag_55\n      0x04\n      dup1\n      calldatasize\n      sub\n      dup2\n      add\n      swap1\n      tag_56\n      swap2\n      swap1\n      tag_57\n      jump\t// in\n    tag_56:\n      tag_58\n      jump\t// in\n    tag_55:\n      mload(0x40)\n      tag_59\n      swap2\n      swap1\n      tag_37\n      jump\t// in\n    tag_59:\n      mload(0x40)\n      dup1\n      swap2\n      sub\n      swap1\n      return\n        /* \"@openzeppelin/contracts/access/Ownable.sol\":1668:1769  function renounceOwnership() public virtual onlyOwner {... */\n    tag_10:\n      callvalue\n      dup1\n      iszero\n      tag_60\n      jumpi\n      0x00\n      dup1\n      revert\n    tag_60:\n      pop\n      tag_61\n      tag_62\n      jump\t// in\n    tag_61:\n      stop\n        /* \"contracts/SyCrowBarter.sol\":407:442  ISyCrowBarterType public barterType */\n    tag_11:\n      callvalue\n      dup1\n      iszero\n      tag_63\n      jumpi\n      0x00\n      dup1\n      revert\n    tag_63:\n      pop\n      tag_64\n      tag_65\n      jump\t// in\n    tag_64:\n      mload(0x40)\n      tag_66\n      swap2\n      swap1\n      tag_67\n      jump\t// in\n    tag_66:\n      mload(0x40)\n      dup1\n      swap2\n      sub\n      swap1\n      return\n        /* \"@openzeppelin/contracts/access/Ownable.sol\":1036:1121  function owner() public view virtual returns (address) {... */\n    tag_12:\n      callvalue\n      dup1\n      iszero\n      tag_68\n      jumpi\n      0x00\n      dup1\n      revert\n    tag_68:\n      pop\n      tag_69\n      tag_70\n      jump\t// in\n    tag_69:\n      mload(0x40)\n      tag_71\n      swap2\n      swap1\n      tag_72\n      jump\t// in\n    tag_71:\n      mload(0x40)\n      dup1\n      swap2\n      sub\n      swap1\n      return\n        /* \"contracts/SyCrowBarter.sol\":5167:5401  function tradeTokenForEth()... */\n    tag_13:\n      callvalue\n      dup1\n      iszero\n      tag_73\n      jumpi\n      0x00\n      dup1\n      revert\n    tag_73:\n      pop\n      tag_74\n      tag_75\n      jump\t// in\n    tag_74:\n      stop\n        /* \"contracts/SyCrowBarter.sol\":3178:3376  function getTokens()... */\n    tag_14:\n      callvalue\n      dup1\n      iszero\n      tag_76\n      jumpi\n      0x00\n      dup1\n      revert\n    tag_76:\n      pop\n      tag_77\n      tag_78\n      jump\t// in\n    tag_77:\n      mload(0x40)\n      tag_79\n      swap3\n      swap2\n      swap1\n      tag_80\n      jump\t// in\n    tag_79:\n      mload(0x40)\n      dup1\n      swap2\n      sub\n      swap1\n      return\n        /* \"contracts/SyCrowBarter.sol\":4921:5161  function tradeTokenForToken()... */\n    tag_15:\n      callvalue\n      dup1\n      iszero\n      tag_81\n      jumpi\n      0x00\n      dup1\n      revert\n    tag_81:\n      pop\n      tag_82\n      tag_83\n      jump\t// in\n    tag_82:\n      stop\n        /* \"contracts/SyCrowBarter.sol\":323:364  address public immutable override factory */\n    tag_16:\n      callvalue\n      dup1\n      iszero\n      tag_84\n      jumpi\n      0x00\n      dup1\n      revert\n    tag_84:\n      pop\n      tag_85\n      tag_86\n      jump\t// in\n    tag_85:\n      mload(0x40)\n      tag_87\n      swap2\n      swap1\n      tag_72\n      jump\t// in\n    tag_87:\n      mload(0x40)\n      dup1\n      swap2\n      sub\n      swap1\n      return\n        /* \"contracts/SyCrowBarter.sol\":5407:5657  function tradeEthForToken()... */\n    tag_17:\n      tag_88\n      tag_89\n      jump\t// in\n    tag_88:\n      stop\n        /* \"contracts/SyCrowBarter.sol\":10307:10477  function getTradeOutAmount(uint256 amount)... */\n    tag_18:\n      callvalue\n      dup1\n      iszero\n      tag_90\n      jumpi\n      0x00\n      dup1\n      revert\n    tag_90:\n      pop\n      tag_91\n      0x04\n      dup1\n      calldatasize\n      sub\n      dup2\n      add\n      swap1\n      tag_92\n      swap2\n      swap1\n      tag_27\n      jump\t// in\n    tag_92:\n      tag_93\n      jump\t// in\n    tag_91:\n      mload(0x40)\n      tag_94\n      swap2\n      swap1\n      tag_50\n      jump\t// in\n    tag_94:\n      mload(0x40)\n      dup1\n      swap2\n      sub\n      swap1\n      return\n        /* \"contracts/SyCrowBarter.sol\":3382:4068  function getTrades()... */\n    tag_19:\n      callvalue\n      dup1\n      iszero\n      tag_95\n      jumpi\n      0x00\n      dup1\n      revert\n    tag_95:\n      pop\n      tag_96\n      tag_97\n      jump\t// in\n    tag_96:\n      mload(0x40)\n      tag_98\n      swap4\n      swap3\n      swap2\n      swap1\n      tag_99\n      jump\t// in\n    tag_98:\n      mload(0x40)\n      dup1\n      swap2\n      sub\n      swap1\n      return\n        /* \"@openzeppelin/contracts/access/Ownable.sol\":1918:2116  function transferOwnership(address newOwner) public virtual onlyOwner {... */\n    tag_20:\n      callvalue\n      dup1\n      iszero\n      tag_100\n      jumpi\n      0x00\n      dup1\n      revert\n    tag_100:\n      pop\n      tag_101\n      0x04\n      dup1\n      calldatasize\n      sub\n      dup2\n      add\n      swap1\n      tag_102\n      swap2\n      swap1\n      tag_103\n      jump\t// in\n    tag_102:\n      tag_104\n      jump\t// in\n    tag_101:\n      stop\n        /* \"contracts/SyCrowBarter.sol\":4355:4624  function tradeTokenForEth(uint256 inAmount)... */\n    tag_28:\n        /* \"contracts/SyCrowBarter.sol\":969:984  block.timestamp */\n      timestamp\n        /* \"contracts/SyCrowBarter.sol\":956:965  _deadline */\n      sload(0x03)\n        /* \"contracts/SyCrowBarter.sol\":956:984  _deadline >= block.timestamp */\n      lt\n      iszero\n        /* \"contracts/SyCrowBarter.sol\":956:1022  _deadline >= block.timestamp && totalTradeAmount < _expectedAmount */\n      dup1\n      iszero\n      tag_106\n      jumpi\n      pop\n        /* \"contracts/SyCrowBarter.sol\":1007:1022  _expectedAmount */\n      sload(0x07)\n        /* \"contracts/SyCrowBarter.sol\":988:1004  totalTradeAmount */\n      sload(0x01)\n        /* \"contracts/SyCrowBarter.sol\":988:1022  totalTradeAmount < _expectedAmount */\n      lt\n        /* \"contracts/SyCrowBarter.sol\":956:1022  _deadline >= block.timestamp && totalTradeAmount < _expectedAmount */\n    tag_106:\n        /* \"contracts/SyCrowBarter.sol\":935:1070  require(... */\n      tag_107\n      jumpi\n      mload(0x40)\n      0x08c379a000000000000000000000000000000000000000000000000000000000\n      dup2\n      mstore\n      0x04\n      add\n      tag_108\n      swap1\n      tag_109\n      jump\t// in\n    tag_108:\n      mload(0x40)\n      dup1\n      swap2\n      sub\n      swap1\n      revert\n    tag_107:\n        /* \"contracts/SyCrowBarter.sol\":1488:1500  _initialized */\n      0x04\n      0x00\n      swap1\n      sload\n      swap1\n      0x0100\n      exp\n      swap1\n      div\n      0xff\n      and\n        /* \"contracts/SyCrowBarter.sol\":1480:1534  require(_initialized, \"SyCrowBarter: NOT_INITIALIZED\") */\n      tag_111\n      jumpi\n      mload(0x40)\n      0x08c379a000000000000000000000000000000000000000000000000000000000\n      dup2\n      mstore\n      0x04\n      add\n      tag_112\n      swap1\n      tag_113\n      jump\t// in\n    tag_112:\n      mload(0x40)\n      dup1\n      swap2\n      sub\n      swap1\n      revert\n    tag_111:\n        /* \"contracts/SyCrowBarter.sol\":1721:1754  ISyCrowBarterFactory isycrFactory */\n      0x00\n        /* \"contracts/SyCrowBarter.sol\":1778:1785  factory */\n      immutable(\"0x26a975632f70533c9512e57b565b8ce8e2befee6b08dfbc27c4a897a20e2c1d6\")\n        /* \"contracts/SyCrowBarter.sol\":1721:1786  ISyCrowBarterFactory isycrFactory = ISyCrowBarterFactory(factory) */\n      swap1\n      pop\n        /* \"contracts/SyCrowBarter.sol\":1805:1817  isycrFactory */\n      dup1\n        /* \"contracts/SyCrowBarter.sol\":1805:1826  isycrFactory.isPaused */\n      0xffffffffffffffffffffffffffffffffffffffff\n      and\n      0xb187bd26\n        /* \"contracts/SyCrowBarter.sol\":1805:1828  isycrFactory.isPaused() */\n      mload(0x40)\n      dup2\n      0xffffffff\n      and\n      0xe0\n      shl\n      dup2\n      mstore\n      0x04\n      add\n      0x20\n      mload(0x40)\n      dup1\n      dup4\n      sub\n      dup2\n      dup7\n      gas\n      staticcall\n      iszero\n      dup1\n      iszero\n      tag_116\n      jumpi\n      returndatasize\n      0x00\n      dup1\n      returndatacopy\n      revert(0x00, returndatasize)\n    tag_116:\n      pop\n      pop\n      pop\n      pop\n      mload(0x40)\n      returndatasize\n      not(0x1f)\n      0x1f\n      dup3\n      add\n      and\n      dup3\n      add\n      dup1\n      0x40\n      mstore\n      pop\n      dup2\n      add\n      swap1\n      tag_117\n      swap2\n      swap1\n      tag_118\n      jump\t// in\n    tag_117:\n        /* \"contracts/SyCrowBarter.sol\":1804:1828  !isycrFactory.isPaused() */\n      iszero\n        /* \"contracts/SyCrowBarter.sol\":1796:1867  require(!isycrFactory.isPaused(), \"SyCrowBarter: Base Contract Paused\") */\n      tag_119\n      jumpi\n      mload(0x40)\n      0x08c379a000000000000000000000000000000000000000000000000000000000\n      dup2\n      mstore\n      0x04\n      add\n      tag_120\n      swap1\n      tag_121\n      jump\t// in\n    tag_120:\n      mload(0x40)\n      dup1\n      swap2\n      sub\n      swap1\n      revert\n    tag_119:\n        /* \"contracts/SyCrowBarter.sol\":1605:1622  _allowMultiBarter */\n      0x08\n      0x00\n      swap1\n      sload\n      swap1\n      0x0100\n      exp\n      swap1\n      div\n      0xff\n      and\n        /* \"contracts/SyCrowBarter.sol\":1597:1664  require(_allowMultiBarter, \"SyCrowBarter: MULTI_TRADE_NOT_ENABLED\") */\n      tag_123\n      jumpi\n      mload(0x40)\n      0x08c379a000000000000000000000000000000000000000000000000000000000\n      dup2\n      mstore\n      0x04\n      add\n      tag_124\n      swap1\n      tag_125\n      jump\t// in\n    tag_124:\n      mload(0x40)\n      dup1\n      swap2\n      sub\n      swap1\n      revert\n    tag_123:\n        /* \"contracts/SyCrowBarter.sol\":4543:4574  ISyCrowBarterType.ETH_FOR_TOKEN */\n      0x00\n        /* \"contracts/SyCrowBarter.sol\":1183:1193  barterType */\n      0x02\n      0x00\n      swap1\n      sload\n      swap1\n      0x0100\n      exp\n      swap1\n      div\n      0xff\n      and\n        /* \"contracts/SyCrowBarter.sol\":1168:1193  _barterType == barterType */\n      0x02\n      dup2\n      gt\n      iszero\n      tag_127\n      jumpi\n      tag_128\n      tag_129\n      jump\t// in\n    tag_128:\n    tag_127:\n        /* \"contracts/SyCrowBarter.sol\":1168:1179  _barterType */\n      dup2\n        /* \"contracts/SyCrowBarter.sol\":1168:1193  _barterType == barterType */\n      0x02\n      dup2\n      gt\n      iszero\n      tag_130\n      jumpi\n      tag_131\n      tag_129\n      jump\t// in\n    tag_131:\n    tag_130:\n      eq\n        /* \"contracts/SyCrowBarter.sol\":1160:1231  require(_barterType == barterType, \"SyCrowBarter: INVALID_BARTER_TYPE\") */\n      tag_132\n      jumpi\n      mload(0x40)\n      0x08c379a000000000000000000000000000000000000000000000000000000000\n      dup2\n      mstore\n      0x04\n      add\n      tag_133\n      swap1\n      tag_134\n      jump\t// in\n    tag_133:\n      mload(0x40)\n      dup1\n      swap2\n      sub\n      swap1\n      revert\n    tag_132:\n        /* \"contracts/SyCrowBarter.sol\":4590:4617  _tradeTokenForEth(inAmount) */\n      tag_136\n        /* \"contracts/SyCrowBarter.sol\":4608:4616  inAmount */\n      dup4\n        /* \"contracts/SyCrowBarter.sol\":4590:4607  _tradeTokenForEth */\n      tag_137\n        /* \"contracts/SyCrowBarter.sol\":4590:4617  _tradeTokenForEth(inAmount) */\n      jump\t// in\n    tag_136:\n        /* \"contracts/SyCrowBarter.sol\":1674:1675  _ */\n      pop\n        /* \"contracts/SyCrowBarter.sol\":1711:1885  {... */\n      pop\n        /* \"contracts/SyCrowBarter.sol\":4355:4624  function tradeTokenForEth(uint256 inAmount)... */\n      pop\n      jump\t// out\n        /* \"contracts/SyCrowBarter.sol\":4074:4349  function tradeTokenForToken(uint256 inAmount)... */\n    tag_32:\n        /* \"contracts/SyCrowBarter.sol\":969:984  block.timestamp */\n      timestamp\n        /* \"contracts/SyCrowBarter.sol\":956:965  _deadline */\n      sload(0x03)\n        /* \"contracts/SyCrowBarter.sol\":956:984  _deadline >= block.timestamp */\n      lt\n      iszero\n        /* \"contracts/SyCrowBarter.sol\":956:1022  _deadline >= block.timestamp && totalTradeAmount < _expectedAmount */\n      dup1\n      iszero\n      tag_139\n      jumpi\n      pop\n        /* \"contracts/SyCrowBarter.sol\":1007:1022  _expectedAmount */\n      sload(0x07)\n        /* \"contracts/SyCrowBarter.sol\":988:1004  totalTradeAmount */\n      sload(0x01)\n        /* \"contracts/SyCrowBarter.sol\":988:1022  totalTradeAmount < _expectedAmount */\n      lt\n        /* \"contracts/SyCrowBarter.sol\":956:1022  _deadline >= block.timestamp && totalTradeAmount < _expectedAmount */\n    tag_139:\n        /* \"contracts/SyCrowBarter.sol\":935:1070  require(... */\n      tag_140\n      jumpi\n      mload(0x40)\n      0x08c379a000000000000000000000000000000000000000000000000000000000\n      dup2\n      mstore\n      0x04\n      add\n      tag_141\n      swap1\n      tag_109\n      jump\t// in\n    tag_141:\n      mload(0x40)\n      dup1\n      swap2\n      sub\n      swap1\n      revert\n    tag_140:\n        /* \"contracts/SyCrowBarter.sol\":1488:1500  _initialized */\n      0x04\n      0x00\n      swap1\n      sload\n      swap1\n      0x0100\n      exp\n      swap1\n      div\n      0xff\n      and\n        /* \"contracts/SyCrowBarter.sol\":1480:1534  require(_initialized, \"SyCrowBarter: NOT_INITIALIZED\") */\n      tag_143\n      jumpi\n      mload(0x40)\n      0x08c379a000000000000000000000000000000000000000000000000000000000\n      dup2\n      mstore\n      0x04\n      add\n      tag_144\n      swap1\n      tag_113\n      jump\t// in\n    tag_144:\n      mload(0x40)\n      dup1\n      swap2\n      sub\n      swap1\n      revert\n    tag_143:\n        /* \"contracts/SyCrowBarter.sol\":1721:1754  ISyCrowBarterFactory isycrFactory */\n      0x00\n        /* \"contracts/SyCrowBarter.sol\":1778:1785  factory */\n      immutable(\"0x26a975632f70533c9512e57b565b8ce8e2befee6b08dfbc27c4a897a20e2c1d6\")\n        /* \"contracts/SyCrowBarter.sol\":1721:1786  ISyCrowBarterFactory isycrFactory = ISyCrowBarterFactory(factory) */\n      swap1\n      pop\n        /* \"contracts/SyCrowBarter.sol\":1805:1817  isycrFactory */\n      dup1\n        /* \"contracts/SyCrowBarter.sol\":1805:1826  isycrFactory.isPaused */\n      0xffffffffffffffffffffffffffffffffffffffff\n      and\n      0xb187bd26\n        /* \"contracts/SyCrowBarter.sol\":1805:1828  isycrFactory.isPaused() */\n      mload(0x40)\n      dup2\n      0xffffffff\n      and\n      0xe0\n      shl\n      dup2\n      mstore\n      0x04\n      add\n      0x20\n      mload(0x40)\n      dup1\n      dup4\n      sub\n      dup2\n      dup7\n      gas\n      staticcall\n      iszero\n      dup1\n      iszero\n      tag_147\n      jumpi\n      returndatasize\n      0x00\n      dup1\n      returndatacopy\n      revert(0x00, returndatasize)\n    tag_147:\n      pop\n      pop\n      pop\n      pop\n      mload(0x40)\n      returndatasize\n      not(0x1f)\n      0x1f\n      dup3\n      add\n      and\n      dup3\n      add\n      dup1\n      0x40\n      mstore\n      pop\n      dup2\n      add\n      swap1\n      tag_148\n      swap2\n      swap1\n      tag_118\n      jump\t// in\n    tag_148:\n        /* \"contracts/SyCrowBarter.sol\":1804:1828  !isycrFactory.isPaused() */\n      iszero\n        /* \"contracts/SyCrowBarter.sol\":1796:1867  require(!isycrFactory.isPaused(), \"SyCrowBarter: Base Contract Paused\") */\n      tag_149\n      jumpi\n      mload(0x40)\n      0x08c379a000000000000000000000000000000000000000000000000000000000\n      dup2\n      mstore\n      0x04\n      add\n      tag_150\n      swap1\n      tag_121\n      jump\t// in\n    tag_150:\n      mload(0x40)\n      dup1\n      swap2\n      sub\n      swap1\n      revert\n    tag_149:\n        /* \"contracts/SyCrowBarter.sol\":1605:1622  _allowMultiBarter */\n      0x08\n      0x00\n      swap1\n      sload\n      swap1\n      0x0100\n      exp\n      swap1\n      div\n      0xff\n      and\n        /* \"contracts/SyCrowBarter.sol\":1597:1664  require(_allowMultiBarter, \"SyCrowBarter: MULTI_TRADE_NOT_ENABLED\") */\n      tag_152\n      jumpi\n      mload(0x40)\n      0x08c379a000000000000000000000000000000000000000000000000000000000\n      dup2\n      mstore\n      0x04\n      add\n      tag_153\n      swap1\n      tag_125\n      jump\t// in\n    tag_153:\n      mload(0x40)\n      dup1\n      swap2\n      sub\n      swap1\n      revert\n    tag_152:\n        /* \"contracts/SyCrowBarter.sol\":4264:4297  ISyCrowBarterType.TOKEN_FOR_TOKEN */\n      0x02\n        /* \"contracts/SyCrowBarter.sol\":1183:1193  barterType */\n      dup1\n      0x00\n      swap1\n      sload\n      swap1\n      0x0100\n      exp\n      swap1\n      div\n      0xff\n      and\n        /* \"contracts/SyCrowBarter.sol\":1168:1193  _barterType == barterType */\n      0x02\n      dup2\n      gt\n      iszero\n      tag_155\n      jumpi\n      tag_156\n      tag_129\n      jump\t// in\n    tag_156:\n    tag_155:\n        /* \"contracts/SyCrowBarter.sol\":1168:1179  _barterType */\n      dup2\n        /* \"contracts/SyCrowBarter.sol\":1168:1193  _barterType == barterType */\n      0x02\n      dup2\n      gt\n      iszero\n      tag_157\n      jumpi\n      tag_158\n      tag_129\n      jump\t// in\n    tag_158:\n    tag_157:\n      eq\n        /* \"contracts/SyCrowBarter.sol\":1160:1231  require(_barterType == barterType, \"SyCrowBarter: INVALID_BARTER_TYPE\") */\n      tag_159\n      jumpi\n      mload(0x40)\n      0x08c379a000000000000000000000000000000000000000000000000000000000\n      dup2\n      mstore\n      0x04\n      add\n      tag_160\n      swap1\n      tag_134\n      jump\t// in\n    tag_160:\n      mload(0x40)\n      dup1\n      swap2\n      sub\n      swap1\n      revert\n    tag_159:\n        /* \"contracts/SyCrowBarter.sol\":4313:4342  _tradeTokenForToken(inAmount) */\n      tag_162\n        /* \"contracts/SyCrowBarter.sol\":4333:4341  inAmount */\n      dup4\n        /* \"contracts/SyCrowBarter.sol\":4313:4332  _tradeTokenForToken */\n      tag_163\n        /* \"contracts/SyCrowBarter.sol\":4313:4342  _tradeTokenForToken(inAmount) */\n      jump\t// in\n    tag_162:\n        /* \"contracts/SyCrowBarter.sol\":1674:1675  _ */\n      pop\n        /* \"contracts/SyCrowBarter.sol\":1711:1885  {... */\n      pop\n        /* \"contracts/SyCrowBarter.sol\":4074:4349  function tradeTokenForToken(uint256 inAmount)... */\n      pop\n      jump\t// out\n        /* \"contracts/SyCrowBarter.sol\":509:541  bool public _initialized = false */\n    tag_35:\n      0x04\n      0x00\n      swap1\n      sload\n      swap1\n      0x0100\n      exp\n      swap1\n      div\n      0xff\n      and\n      dup2\n      jump\t// out\n        /* \"contracts/SyCrowBarter.sol\":8584:10301  function withdraw() external override checkInActive initialized onlyOwner {... */\n    tag_40:\n        /* \"contracts/SyCrowBarter.sol\":1323:1338  block.timestamp */\n      timestamp\n        /* \"contracts/SyCrowBarter.sol\":1311:1320  _deadline */\n      sload(0x03)\n        /* \"contracts/SyCrowBarter.sol\":1311:1338  _deadline < block.timestamp */\n      lt\n        /* \"contracts/SyCrowBarter.sol\":1311:1377  _deadline < block.timestamp || totalTradeAmount >= _expectedAmount */\n      dup1\n      tag_165\n      jumpi\n      pop\n        /* \"contracts/SyCrowBarter.sol\":1362:1377  _expectedAmount */\n      sload(0x07)\n        /* \"contracts/SyCrowBarter.sol\":1342:1358  totalTradeAmount */\n      sload(0x01)\n        /* \"contracts/SyCrowBarter.sol\":1342:1377  totalTradeAmount >= _expectedAmount */\n      lt\n      iszero\n        /* \"contracts/SyCrowBarter.sol\":1311:1377  _deadline < block.timestamp || totalTradeAmount >= _expectedAmount */\n    tag_165:\n        /* \"contracts/SyCrowBarter.sol\":1290:1423  require(... */\n      tag_166\n      jumpi\n      mload(0x40)\n      0x08c379a000000000000000000000000000000000000000000000000000000000\n      dup2\n      mstore\n      0x04\n      add\n      tag_167\n      swap1\n      tag_168\n      jump\t// in\n    tag_167:\n      mload(0x40)\n      dup1\n      swap2\n      sub\n      swap1\n      revert\n    tag_166:\n        /* \"contracts/SyCrowBarter.sol\":1488:1500  _initialized */\n      0x04\n      0x00\n      swap1\n      sload\n      swap1\n      0x0100\n      exp\n      swap1\n      div\n      0xff\n      and\n        /* \"contracts/SyCrowBarter.sol\":1480:1534  require(_initialized, \"SyCrowBarter: NOT_INITIALIZED\") */\n      tag_170\n      jumpi\n      mload(0x40)\n      0x08c379a000000000000000000000000000000000000000000000000000000000\n      dup2\n      mstore\n      0x04\n      add\n      tag_171\n      swap1\n      tag_113\n      jump\t// in\n    tag_171:\n      mload(0x40)\n      dup1\n      swap2\n      sub\n      swap1\n      revert\n    tag_170:\n        /* \"@openzeppelin/contracts/access/Ownable.sol\":1259:1271  _msgSender() */\n      tag_173\n        /* \"@openzeppelin/contracts/access/Ownable.sol\":1259:1269  _msgSender */\n      tag_174\n        /* \"@openzeppelin/contracts/access/Ownable.sol\":1259:1271  _msgSender() */\n      jump\t// in\n    tag_173:\n        /* \"@openzeppelin/contracts/access/Ownable.sol\":1248:1271  owner() == _msgSender() */\n      0xffffffffffffffffffffffffffffffffffffffff\n      and\n        /* \"@openzeppelin/contracts/access/Ownable.sol\":1248:1255  owner() */\n      tag_175\n        /* \"@openzeppelin/contracts/access/Ownable.sol\":1248:1253  owner */\n      tag_70\n        /* \"@openzeppelin/contracts/access/Ownable.sol\":1248:1255  owner() */\n      jump\t// in\n    tag_175:\n        /* \"@openzeppelin/contracts/access/Ownable.sol\":1248:1271  owner() == _msgSender() */\n      0xffffffffffffffffffffffffffffffffffffffff\n      and\n      eq\n        /* \"@openzeppelin/contracts/access/Ownable.sol\":1240:1308  require(owner() == _msgSender(), \"Ownable: caller is not the owner\") */\n      tag_176\n      jumpi\n      mload(0x40)\n      0x08c379a000000000000000000000000000000000000000000000000000000000\n      dup2\n      mstore\n      0x04\n      add\n      tag_177\n      swap1\n      tag_178\n      jump\t// in\n    tag_177:\n      mload(0x40)\n      dup1\n      swap2\n      sub\n      swap1\n      revert\n    tag_176:\n        /* \"contracts/SyCrowBarter.sol\":8668:8679  IWETH _weth */\n      0x00\n        /* \"contracts/SyCrowBarter.sol\":8688:8692  WETH */\n      0x02\n      0x01\n      swap1\n      sload\n      swap1\n      0x0100\n      exp\n      swap1\n      div\n      0xffffffffffffffffffffffffffffffffffffffff\n      and\n        /* \"contracts/SyCrowBarter.sol\":8668:8693  IWETH _weth = IWETH(WETH) */\n      swap1\n      pop\n        /* \"contracts/SyCrowBarter.sol\":8704:8722  uint256 ethBalance */\n      0x00\n        /* \"contracts/SyCrowBarter.sol\":8725:8730  _weth */\n      dup2\n        /* \"contracts/SyCrowBarter.sol\":8725:8740  _weth.balanceOf */\n      0xffffffffffffffffffffffffffffffffffffffff\n      and\n      0x70a08231\n        /* \"contracts/SyCrowBarter.sol\":8749:8753  this */\n      address\n        /* \"contracts/SyCrowBarter.sol\":8725:8755  _weth.balanceOf(address(this)) */\n      mload(0x40)\n      dup3\n      0xffffffff\n      and\n      0xe0\n      shl\n      dup2\n      mstore\n      0x04\n      add\n      tag_180\n      swap2\n      swap1\n      tag_72\n      jump\t// in\n    tag_180:\n      0x20\n      mload(0x40)\n      dup1\n      dup4\n      sub\n      dup2\n      dup7\n      gas\n      staticcall\n      iszero\n      dup1\n      iszero\n      tag_182\n      jumpi\n      returndatasize\n      0x00\n      dup1\n      returndatacopy\n      revert(0x00, returndatasize)\n    tag_182:\n      pop\n      pop\n      pop\n      pop\n      mload(0x40)\n      returndatasize\n      not(0x1f)\n      0x1f\n      dup3\n      add\n      and\n      dup3\n      add\n      dup1\n      0x40\n      mstore\n      pop\n      dup2\n      add\n      swap1\n      tag_183\n      swap2\n      swap1\n      tag_184\n      jump\t// in\n    tag_183:\n        /* \"contracts/SyCrowBarter.sol\":8704:8755  uint256 ethBalance = _weth.balanceOf(address(this)) */\n      swap1\n      pop\n        /* \"contracts/SyCrowBarter.sol\":8783:8784  0 */\n      0x00\n        /* \"contracts/SyCrowBarter.sol\":8770:8780  ethBalance */\n      dup2\n        /* \"contracts/SyCrowBarter.sol\":8770:8784  ethBalance > 0 */\n      gt\n        /* \"contracts/SyCrowBarter.sol\":8766:8911  if (ethBalance > 0) {... */\n      iszero\n      tag_185\n      jumpi\n        /* \"contracts/SyCrowBarter.sol\":8806:8810  WETH */\n      0x02\n      0x01\n      swap1\n      sload\n      swap1\n      0x0100\n      exp\n      swap1\n      div\n      0xffffffffffffffffffffffffffffffffffffffff\n      and\n        /* \"contracts/SyCrowBarter.sol\":8800:8820  IWETH(WETH).withdraw */\n      0xffffffffffffffffffffffffffffffffffffffff\n      and\n      0x2e1a7d4d\n        /* \"contracts/SyCrowBarter.sol\":8821:8831  ethBalance */\n      dup3\n        /* \"contracts/SyCrowBarter.sol\":8800:8832  IWETH(WETH).withdraw(ethBalance) */\n      mload(0x40)\n      dup3\n      0xffffffff\n      and\n      0xe0\n      shl\n      dup2\n      mstore\n      0x04\n      add\n      tag_186\n      swap2\n      swap1\n      tag_50\n      jump\t// in\n    tag_186:\n      0x00\n      mload(0x40)\n      dup1\n      dup4\n      sub\n      dup2\n      0x00\n      dup8\n      dup1\n      extcodesize\n      iszero\n      dup1\n      iszero\n      tag_187\n      jumpi\n      0x00\n      dup1\n      revert\n    tag_187:\n      pop\n      gas\n      call\n      iszero\n      dup1\n      iszero\n      tag_189\n      jumpi\n      returndatasize\n      0x00\n      dup1\n      returndatacopy\n      revert(0x00, returndatasize)\n    tag_189:\n      pop\n      pop\n      pop\n      pop\n        /* \"contracts/SyCrowBarter.sol\":8846:8900  TransferHelper.safeTransferETH(msg.sender, ethBalance) */\n      tag_190\n        /* \"contracts/SyCrowBarter.sol\":8877:8887  msg.sender */\n      caller\n        /* \"contracts/SyCrowBarter.sol\":8889:8899  ethBalance */\n      dup3\n        /* \"contracts/SyCrowBarter.sol\":8846:8876  TransferHelper.safeTransferETH */\n      tag_191\n        /* \"contracts/SyCrowBarter.sol\":8846:8900  TransferHelper.safeTransferETH(msg.sender, ethBalance) */\n      jump\t// in\n    tag_190:\n        /* \"contracts/SyCrowBarter.sol\":8766:8911  if (ethBalance > 0) {... */\n    tag_185:\n        /* \"contracts/SyCrowBarter.sol\":8921:8949  uint256 expectedTokenBalance */\n      0x00\n        /* \"contracts/SyCrowBarter.sol\":8959:8980  _expectedTokenAddress */\n      0x05\n      0x00\n      swap1\n      sload\n      swap1\n      0x0100\n      exp\n      swap1\n      div\n      0xffffffffffffffffffffffffffffffffffffffff\n      and\n        /* \"contracts/SyCrowBarter.sol\":8952:8991  IERC20(_expectedTokenAddress).balanceOf */\n      0xffffffffffffffffffffffffffffffffffffffff\n      and\n      0x70a08231\n        /* \"contracts/SyCrowBarter.sol\":9013:9017  this */\n      address\n        /* \"contracts/SyCrowBarter.sol\":8952:9028  IERC20(_expectedTokenAddress).balanceOf(... */\n      mload(0x40)\n      dup3\n      0xffffffff\n      and\n      0xe0\n      shl\n      dup2\n      mstore\n      0x04\n      add\n      tag_192\n      swap2\n      swap1\n      tag_72\n      jump\t// in\n    tag_192:\n      0x20\n      mload(0x40)\n      dup1\n      dup4\n      sub\n      dup2\n      dup7\n      gas\n      staticcall\n      iszero\n      dup1\n      iszero\n      tag_194\n      jumpi\n      returndatasize\n      0x00\n      dup1\n      returndatacopy\n      revert(0x00, returndatasize)\n    tag_194:\n      pop\n      pop\n      pop\n      pop\n      mload(0x40)\n      returndatasize\n      not(0x1f)\n      0x1f\n      dup3\n      add\n      and\n      dup3\n      add\n      dup1\n      0x40\n      mstore\n      pop\n      dup2\n      add\n      swap1\n      tag_195\n      swap2\n      swap1\n      tag_184\n      jump\t// in\n    tag_195:\n        /* \"contracts/SyCrowBarter.sol\":8921:9028  uint256 expectedTokenBalance = IERC20(_expectedTokenAddress).balanceOf(... */\n      swap1\n      pop\n        /* \"contracts/SyCrowBarter.sol\":9066:9067  0 */\n      0x00\n        /* \"contracts/SyCrowBarter.sol\":9043:9063  expectedTokenBalance */\n      dup2\n        /* \"contracts/SyCrowBarter.sol\":9043:9067  expectedTokenBalance > 0 */\n      gt\n        /* \"contracts/SyCrowBarter.sol\":9039:9240  if (expectedTokenBalance > 0) {... */\n      iszero\n      tag_196\n      jumpi\n        /* \"contracts/SyCrowBarter.sol\":9083:9229  TransferHelper.safeTransfer(... */\n      tag_197\n        /* \"contracts/SyCrowBarter.sol\":9128:9149  _expectedTokenAddress */\n      0x05\n      0x00\n      swap1\n      sload\n      swap1\n      0x0100\n      exp\n      swap1\n      div\n      0xffffffffffffffffffffffffffffffffffffffff\n      and\n        /* \"contracts/SyCrowBarter.sol\":9167:9177  msg.sender */\n      caller\n        /* \"contracts/SyCrowBarter.sol\":9195:9215  expectedTokenBalance */\n      dup4\n        /* \"contracts/SyCrowBarter.sol\":9083:9110  TransferHelper.safeTransfer */\n      tag_198\n        /* \"contracts/SyCrowBarter.sol\":9083:9229  TransferHelper.safeTransfer(... */\n      jump\t// in\n    tag_197:\n        /* \"contracts/SyCrowBarter.sol\":9039:9240  if (expectedTokenBalance > 0) {... */\n    tag_196:\n        /* \"contracts/SyCrowBarter.sol\":9250:9279  uint256 depositedTokenBalance */\n      0x00\n        /* \"contracts/SyCrowBarter.sol\":9289:9311  _depositedTokenAddress */\n      0x04\n      0x01\n      swap1\n      sload\n      swap1\n      0x0100\n      exp\n      swap1\n      div\n      0xffffffffffffffffffffffffffffffffffffffff\n      and\n        /* \"contracts/SyCrowBarter.sol\":9282:9335  IERC20(_depositedTokenAddress)... */\n      0xffffffffffffffffffffffffffffffffffffffff\n      and\n      0x70a08231\n        /* \"contracts/SyCrowBarter.sol\":9344:9348  this */\n      address\n        /* \"contracts/SyCrowBarter.sol\":9282:9350  IERC20(_depositedTokenAddress)... */\n      mload(0x40)\n      dup3\n      0xffffffff\n      and\n      0xe0\n      shl\n      dup2\n      mstore\n      0x04\n      add\n      tag_199\n      swap2\n      swap1\n      tag_72\n      jump\t// in\n    tag_199:\n      0x20\n      mload(0x40)\n      dup1\n      dup4\n      sub\n      dup2\n      dup7\n      gas\n      staticcall\n      iszero\n      dup1\n      iszero\n      tag_201\n      jumpi\n      returndatasize\n      0x00\n      dup1\n      returndatacopy\n      revert(0x00, returndatasize)\n    tag_201:\n      pop\n      pop\n      pop\n      pop\n      mload(0x40)\n      returndatasize\n      not(0x1f)\n      0x1f\n      dup3\n      add\n      and\n      dup3\n      add\n      dup1\n      0x40\n      mstore\n      pop\n      dup2\n      add\n      swap1\n      tag_202\n      swap2\n      swap1\n      tag_184\n      jump\t// in\n    tag_202:\n        /* \"contracts/SyCrowBarter.sol\":9250:9350  uint256 depositedTokenBalance = IERC20(_depositedTokenAddress)... */\n      swap1\n      pop\n        /* \"contracts/SyCrowBarter.sol\":9389:9390  0 */\n      0x00\n        /* \"contracts/SyCrowBarter.sol\":9365:9386  depositedTokenBalance */\n      dup2\n        /* \"contracts/SyCrowBarter.sol\":9365:9390  depositedTokenBalance > 0 */\n      gt\n        /* \"contracts/SyCrowBarter.sol\":9361:9565  if (depositedTokenBalance > 0) {... */\n      iszero\n      tag_203\n      jumpi\n        /* \"contracts/SyCrowBarter.sol\":9406:9554  TransferHelper.safeTransfer(... */\n      tag_204\n        /* \"contracts/SyCrowBarter.sol\":9451:9473  _depositedTokenAddress */\n      0x04\n      0x01\n      swap1\n      sload\n      swap1\n      0x0100\n      exp\n      swap1\n      div\n      0xffffffffffffffffffffffffffffffffffffffff\n      and\n        /* \"contracts/SyCrowBarter.sol\":9491:9501  msg.sender */\n      caller\n        /* \"contracts/SyCrowBarter.sol\":9519:9540  depositedTokenBalance */\n      dup4\n        /* \"contracts/SyCrowBarter.sol\":9406:9433  TransferHelper.safeTransfer */\n      tag_198\n        /* \"contracts/SyCrowBarter.sol\":9406:9554  TransferHelper.safeTransfer(... */\n      jump\t// in\n    tag_204:\n        /* \"contracts/SyCrowBarter.sol\":9361:9565  if (depositedTokenBalance > 0) {... */\n    tag_203:\n        /* \"contracts/SyCrowBarter.sol\":9574:9588  uint256 value1 */\n      0x00\n        /* \"contracts/SyCrowBarter.sol\":9602:9616  uint256 value2 */\n      dup1\n        /* \"contracts/SyCrowBarter.sol\":9649:9680  ISyCrowBarterType.ETH_FOR_TOKEN */\n      0x00\n        /* \"contracts/SyCrowBarter.sol\":9635:9680  barterType == ISyCrowBarterType.ETH_FOR_TOKEN */\n      0x02\n      dup2\n      gt\n      iszero\n      tag_205\n      jumpi\n      tag_206\n      tag_129\n      jump\t// in\n    tag_206:\n    tag_205:\n        /* \"contracts/SyCrowBarter.sol\":9635:9645  barterType */\n      0x02\n      0x00\n      swap1\n      sload\n      swap1\n      0x0100\n      exp\n      swap1\n      div\n      0xff\n      and\n        /* \"contracts/SyCrowBarter.sol\":9635:9680  barterType == ISyCrowBarterType.ETH_FOR_TOKEN */\n      0x02\n      dup2\n      gt\n      iszero\n      tag_207\n      jumpi\n      tag_208\n      tag_129\n      jump\t// in\n    tag_208:\n    tag_207:\n      sub\n        /* \"contracts/SyCrowBarter.sol\":9631:10020  if (barterType == ISyCrowBarterType.ETH_FOR_TOKEN) {... */\n      tag_209\n      jumpi\n        /* \"contracts/SyCrowBarter.sol\":9705:9715  ethBalance */\n      dup5\n        /* \"contracts/SyCrowBarter.sol\":9696:9715  value1 = ethBalance */\n      swap2\n      pop\n        /* \"contracts/SyCrowBarter.sol\":9738:9758  expectedTokenBalance */\n      dup4\n        /* \"contracts/SyCrowBarter.sol\":9729:9758  value2 = expectedTokenBalance */\n      swap1\n      pop\n        /* \"contracts/SyCrowBarter.sol\":9631:10020  if (barterType == ISyCrowBarterType.ETH_FOR_TOKEN) {... */\n      jump(tag_210)\n    tag_209:\n        /* \"contracts/SyCrowBarter.sol\":9793:9826  ISyCrowBarterType.TOKEN_FOR_TOKEN */\n      0x02\n        /* \"contracts/SyCrowBarter.sol\":9779:9826  barterType == ISyCrowBarterType.TOKEN_FOR_TOKEN */\n      dup1\n      dup2\n      gt\n      iszero\n      tag_211\n      jumpi\n      tag_212\n      tag_129\n      jump\t// in\n    tag_212:\n    tag_211:\n        /* \"contracts/SyCrowBarter.sol\":9779:9789  barterType */\n      0x02\n      0x00\n      swap1\n      sload\n      swap1\n      0x0100\n      exp\n      swap1\n      div\n      0xff\n      and\n        /* \"contracts/SyCrowBarter.sol\":9779:9826  barterType == ISyCrowBarterType.TOKEN_FOR_TOKEN */\n      0x02\n      dup2\n      gt\n      iszero\n      tag_213\n      jumpi\n      tag_214\n      tag_129\n      jump\t// in\n    tag_214:\n    tag_213:\n      sub\n        /* \"contracts/SyCrowBarter.sol\":9775:10020  if (barterType == ISyCrowBarterType.TOKEN_FOR_TOKEN) {... */\n      tag_215\n      jumpi\n        /* \"contracts/SyCrowBarter.sol\":9851:9872  depositedTokenBalance */\n      dup3\n        /* \"contracts/SyCrowBarter.sol\":9842:9872  value1 = depositedTokenBalance */\n      swap2\n      pop\n        /* \"contracts/SyCrowBarter.sol\":9895:9915  expectedTokenBalance */\n      dup4\n        /* \"contracts/SyCrowBarter.sol\":9886:9915  value2 = expectedTokenBalance */\n      swap1\n      pop\n        /* \"contracts/SyCrowBarter.sol\":9775:10020  if (barterType == ISyCrowBarterType.TOKEN_FOR_TOKEN) {... */\n      jump(tag_216)\n    tag_215:\n        /* \"contracts/SyCrowBarter.sol\":9955:9976  depositedTokenBalance */\n      dup3\n        /* \"contracts/SyCrowBarter.sol\":9946:9976  value1 = depositedTokenBalance */\n      swap2\n      pop\n        /* \"contracts/SyCrowBarter.sol\":9999:10009  ethBalance */\n      dup5\n        /* \"contracts/SyCrowBarter.sol\":9990:10009  value2 = ethBalance */\n      swap1\n      pop\n        /* \"contracts/SyCrowBarter.sol\":9775:10020  if (barterType == ISyCrowBarterType.TOKEN_FOR_TOKEN) {... */\n    tag_216:\n        /* \"contracts/SyCrowBarter.sol\":9631:10020  if (barterType == ISyCrowBarterType.ETH_FOR_TOKEN) {... */\n    tag_210:\n        /* \"contracts/SyCrowBarter.sol\":10030:10062  ISyCrowBarterFactory sycrFactory */\n      0x00\n        /* \"contracts/SyCrowBarter.sol\":10086:10093  factory */\n      immutable(\"0x26a975632f70533c9512e57b565b8ce8e2befee6b08dfbc27c4a897a20e2c1d6\")\n        /* \"contracts/SyCrowBarter.sol\":10030:10094  ISyCrowBarterFactory sycrFactory = ISyCrowBarterFactory(factory) */\n      swap1\n      pop\n        /* \"contracts/SyCrowBarter.sol\":10113:10124  sycrFactory */\n      dup1\n        /* \"contracts/SyCrowBarter.sol\":10113:10149  sycrFactory.notifyWithdrawFromBarter */\n      0xffffffffffffffffffffffffffffffffffffffff\n      and\n      0x33796a0e\n        /* \"contracts/SyCrowBarter.sol\":10171:10175  this */\n      address\n        /* \"contracts/SyCrowBarter.sol\":10190:10200  msg.sender */\n      caller\n        /* \"contracts/SyCrowBarter.sol\":10214:10220  value1 */\n      dup7\n        /* \"contracts/SyCrowBarter.sol\":10234:10240  value2 */\n      dup7\n        /* \"contracts/SyCrowBarter.sol\":10113:10250  sycrFactory.notifyWithdrawFromBarter(... */\n      mload(0x40)\n      dup6\n      0xffffffff\n      and\n      0xe0\n      shl\n      dup2\n      mstore\n      0x04\n      add\n      tag_217\n      swap5\n      swap4\n      swap3\n      swap2\n      swap1\n      tag_218\n      jump\t// in\n    tag_217:\n      0x00\n      mload(0x40)\n      dup1\n      dup4\n      sub\n      dup2\n      0x00\n      dup8\n      dup1\n      extcodesize\n      iszero\n      dup1\n      iszero\n      tag_219\n      jumpi\n      0x00\n      dup1\n      revert\n    tag_219:\n      pop\n      gas\n      call\n      iszero\n      dup1\n      iszero\n      tag_221\n      jumpi\n      returndatasize\n      0x00\n      dup1\n      returndatacopy\n      revert(0x00, returndatasize)\n    tag_221:\n      pop\n      pop\n      pop\n      pop\n        /* \"contracts/SyCrowBarter.sol\":10282:10292  msg.sender */\n      caller\n        /* \"contracts/SyCrowBarter.sol\":10261:10294  selfdestruct(payable(msg.sender)) */\n      0xffffffffffffffffffffffffffffffffffffffff\n      and\n      selfdestruct\n        /* \"contracts/SyCrowBarter.sol\":2985:3172  function getAmounts()... */\n    tag_43:\n        /* \"contracts/SyCrowBarter.sol\":3091:3098  uint256 */\n      0x00\n        /* \"contracts/SyCrowBarter.sol\":3100:3107  uint256 */\n      dup1\n        /* \"contracts/SyCrowBarter.sol\":1488:1500  _initialized */\n      0x04\n      0x00\n      swap1\n      sload\n      swap1\n      0x0100\n      exp\n      swap1\n      div\n      0xff\n      and\n        /* \"contracts/SyCrowBarter.sol\":1480:1534  require(_initialized, \"SyCrowBarter: NOT_INITIALIZED\") */\n      tag_223\n      jumpi\n      mload(0x40)\n      0x08c379a000000000000000000000000000000000000000000000000000000000\n      dup2\n      mstore\n      0x04\n      add\n      tag_224\n      swap1\n      tag_113\n      jump\t// in\n    tag_224:\n      mload(0x40)\n      dup1\n      swap2\n      sub\n      swap1\n      revert\n    tag_223:\n        /* \"contracts/SyCrowBarter.sol\":3131:3147  _depositedAmount */\n      sload(0x06)\n        /* \"contracts/SyCrowBarter.sol\":3149:3164  _expectedAmount */\n      sload(0x07)\n        /* \"contracts/SyCrowBarter.sol\":3123:3165  return (_depositedAmount, _expectedAmount) */\n      swap2\n      pop\n      swap2\n      pop\n        /* \"contracts/SyCrowBarter.sol\":2985:3172  function getAmounts()... */\n      swap1\n      swap2\n      jump\t// out\n        /* \"contracts/SyCrowBarter.sol\":370:401  uint256 public totalTradeAmount */\n    tag_48:\n      sload(0x01)\n      dup2\n      jump\t// out\n        /* \"contracts/SyCrowBarter.sol\":4630:4915  function tradeEthForToken(uint256 inAmount)... */\n    tag_53:\n        /* \"contracts/SyCrowBarter.sol\":969:984  block.timestamp */\n      timestamp\n        /* \"contracts/SyCrowBarter.sol\":956:965  _deadline */\n      sload(0x03)\n        /* \"contracts/SyCrowBarter.sol\":956:984  _deadline >= block.timestamp */\n      lt\n      iszero\n        /* \"contracts/SyCrowBarter.sol\":956:1022  _deadline >= block.timestamp && totalTradeAmount < _expectedAmount */\n      dup1\n      iszero\n      tag_227\n      jumpi\n      pop\n        /* \"contracts/SyCrowBarter.sol\":1007:1022  _expectedAmount */\n      sload(0x07)\n        /* \"contracts/SyCrowBarter.sol\":988:1004  totalTradeAmount */\n      sload(0x01)\n        /* \"contracts/SyCrowBarter.sol\":988:1022  totalTradeAmount < _expectedAmount */\n      lt\n        /* \"contracts/SyCrowBarter.sol\":956:1022  _deadline >= block.timestamp && totalTradeAmount < _expectedAmount */\n    tag_227:\n        /* \"contracts/SyCrowBarter.sol\":935:1070  require(... */\n      tag_228\n      jumpi\n      mload(0x40)\n      0x08c379a000000000000000000000000000000000000000000000000000000000\n      dup2\n      mstore\n      0x04\n      add\n      tag_229\n      swap1\n      tag_109\n      jump\t// in\n    tag_229:\n      mload(0x40)\n      dup1\n      swap2\n      sub\n      swap1\n      revert\n    tag_228:\n        /* \"contracts/SyCrowBarter.sol\":1488:1500  _initialized */\n      0x04\n      0x00\n      swap1\n      sload\n      swap1\n      0x0100\n      exp\n      swap1\n      div\n      0xff\n      and\n        /* \"contracts/SyCrowBarter.sol\":1480:1534  require(_initialized, \"SyCrowBarter: NOT_INITIALIZED\") */\n      tag_231\n      jumpi\n      mload(0x40)\n      0x08c379a000000000000000000000000000000000000000000000000000000000\n      dup2\n      mstore\n      0x04\n      add\n      tag_232\n      swap1\n      tag_113\n      jump\t// in\n    tag_232:\n      mload(0x40)\n      dup1\n      swap2\n      sub\n      swap1\n      revert\n    tag_231:\n        /* \"contracts/SyCrowBarter.sol\":1721:1754  ISyCrowBarterFactory isycrFactory */\n      0x00\n        /* \"contracts/SyCrowBarter.sol\":1778:1785  factory */\n      immutable(\"0x26a975632f70533c9512e57b565b8ce8e2befee6b08dfbc27c4a897a20e2c1d6\")\n        /* \"contracts/SyCrowBarter.sol\":1721:1786  ISyCrowBarterFactory isycrFactory = ISyCrowBarterFactory(factory) */\n      swap1\n      pop\n        /* \"contracts/SyCrowBarter.sol\":1805:1817  isycrFactory */\n      dup1\n        /* \"contracts/SyCrowBarter.sol\":1805:1826  isycrFactory.isPaused */\n      0xffffffffffffffffffffffffffffffffffffffff\n      and\n      0xb187bd26\n        /* \"contracts/SyCrowBarter.sol\":1805:1828  isycrFactory.isPaused() */\n      mload(0x40)\n      dup2\n      0xffffffff\n      and\n      0xe0\n      shl\n      dup2\n      mstore\n      0x04\n      add\n      0x20\n      mload(0x40)\n      dup1\n      dup4\n      sub\n      dup2\n      dup7\n      gas\n      staticcall\n      iszero\n      dup1\n      iszero\n      tag_235\n      jumpi\n      returndatasize\n      0x00\n      dup1\n      returndatacopy\n      revert(0x00, returndatasize)\n    tag_235:\n      pop\n      pop\n      pop\n      pop\n      mload(0x40)\n      returndatasize\n      not(0x1f)\n      0x1f\n      dup3\n      add\n      and\n      dup3\n      add\n      dup1\n      0x40\n      mstore\n      pop\n      dup2\n      add\n      swap1\n      tag_236\n      swap2\n      swap1\n      tag_118\n      jump\t// in\n    tag_236:\n        /* \"contracts/SyCrowBarter.sol\":1804:1828  !isycrFactory.isPaused() */\n      iszero\n        /* \"contracts/SyCrowBarter.sol\":1796:1867  require(!isycrFactory.isPaused(), \"SyCrowBarter: Base Contract Paused\") */\n      tag_237\n      jumpi\n      mload(0x40)\n      0x08c379a000000000000000000000000000000000000000000000000000000000\n      dup2\n      mstore\n      0x04\n      add\n      tag_238\n      swap1\n      tag_121\n      jump\t// in\n    tag_238:\n      mload(0x40)\n      dup1\n      swap2\n      sub\n      swap1\n      revert\n    tag_237:\n        /* \"contracts/SyCrowBarter.sol\":1605:1622  _allowMultiBarter */\n      0x08\n      0x00\n      swap1\n      sload\n      swap1\n      0x0100\n      exp\n      swap1\n      div\n      0xff\n      and\n        /* \"contracts/SyCrowBarter.sol\":1597:1664  require(_allowMultiBarter, \"SyCrowBarter: MULTI_TRADE_NOT_ENABLED\") */\n      tag_240\n      jumpi\n      mload(0x40)\n      0x08c379a000000000000000000000000000000000000000000000000000000000\n      dup2\n      mstore\n      0x04\n      add\n      tag_241\n      swap1\n      tag_125\n      jump\t// in\n    tag_241:\n      mload(0x40)\n      dup1\n      swap2\n      sub\n      swap1\n      revert\n    tag_240:\n        /* \"contracts/SyCrowBarter.sol\":4834:4865  ISyCrowBarterType.TOKEN_FOR_ETH */\n      0x01\n        /* \"contracts/SyCrowBarter.sol\":1183:1193  barterType */\n      0x02\n      0x00\n      swap1\n      sload\n      swap1\n      0x0100\n      exp\n      swap1\n      div\n      0xff\n      and\n        /* \"contracts/SyCrowBarter.sol\":1168:1193  _barterType == barterType */\n      0x02\n      dup2\n      gt\n      iszero\n      tag_243\n      jumpi\n      tag_244\n      tag_129\n      jump\t// in\n    tag_244:\n    tag_243:\n        /* \"contracts/SyCrowBarter.sol\":1168:1179  _barterType */\n      dup2\n        /* \"contracts/SyCrowBarter.sol\":1168:1193  _barterType == barterType */\n      0x02\n      dup2\n      gt\n      iszero\n      tag_245\n      jumpi\n      tag_246\n      tag_129\n      jump\t// in\n    tag_246:\n    tag_245:\n      eq\n        /* \"contracts/SyCrowBarter.sol\":1160:1231  require(_barterType == barterType, \"SyCrowBarter: INVALID_BARTER_TYPE\") */\n      tag_247\n      jumpi\n      mload(0x40)\n      0x08c379a000000000000000000000000000000000000000000000000000000000\n      dup2\n      mstore\n      0x04\n      add\n      tag_248\n      swap1\n      tag_134\n      jump\t// in\n    tag_248:\n      mload(0x40)\n      dup1\n      swap2\n      sub\n      swap1\n      revert\n    tag_247:\n        /* \"contracts/SyCrowBarter.sol\":4881:4908  _tradeEthForToken(inAmount) */\n      tag_250\n        /* \"contracts/SyCrowBarter.sol\":4899:4907  inAmount */\n      dup4\n        /* \"contracts/SyCrowBarter.sol\":4881:4898  _tradeEthForToken */\n      tag_251\n        /* \"contracts/SyCrowBarter.sol\":4881:4908  _tradeEthForToken(inAmount) */\n      jump\t// in\n    tag_250:\n        /* \"contracts/SyCrowBarter.sol\":1674:1675  _ */\n      pop\n        /* \"contracts/SyCrowBarter.sol\":1711:1885  {... */\n      pop\n        /* \"contracts/SyCrowBarter.sol\":4630:4915  function tradeEthForToken(uint256 inAmount)... */\n      pop\n      jump\t// out\n        /* \"contracts/SyCrowBarter.sol\":1948:2979  function initialize(... */\n    tag_58:\n        /* \"contracts/SyCrowBarter.sol\":2227:2231  bool */\n      0x00\n        /* \"contracts/SyCrowBarter.sol\":2265:2272  factory */\n      immutable(\"0x26a975632f70533c9512e57b565b8ce8e2befee6b08dfbc27c4a897a20e2c1d6\")\n        /* \"contracts/SyCrowBarter.sol\":2251:2272  msg.sender == factory */\n      0xffffffffffffffffffffffffffffffffffffffff\n      and\n        /* \"contracts/SyCrowBarter.sol\":2251:2261  msg.sender */\n      caller\n        /* \"contracts/SyCrowBarter.sol\":2251:2272  msg.sender == factory */\n      0xffffffffffffffffffffffffffffffffffffffff\n      and\n      eq\n        /* \"contracts/SyCrowBarter.sol\":2243:2300  require(msg.sender == factory, \"SyCrowBarter: FORBIDDEN\") */\n      tag_253\n      jumpi\n      mload(0x40)\n      0x08c379a000000000000000000000000000000000000000000000000000000000\n      dup2\n      mstore\n      0x04\n      add\n      tag_254\n      swap1\n      tag_255\n      jump\t// in\n    tag_254:\n      mload(0x40)\n      dup1\n      swap2\n      sub\n      swap1\n      revert\n    tag_253:\n        /* \"contracts/SyCrowBarter.sol\":2320:2332  _initialized */\n      0x04\n      0x00\n      swap1\n      sload\n      swap1\n      0x0100\n      exp\n      swap1\n      div\n      0xff\n      and\n        /* \"contracts/SyCrowBarter.sol\":2319:2332  !_initialized */\n      iszero\n        /* \"contracts/SyCrowBarter.sol\":2311:2370  require(!_initialized, \"SyCrowBarter: ALREADY_INITIALIZED\") */\n      tag_256\n      jumpi\n      mload(0x40)\n      0x08c379a000000000000000000000000000000000000000000000000000000000\n      dup2\n      mstore\n      0x04\n      add\n      tag_257\n      swap1\n      tag_258\n      jump\t// in\n    tag_257:\n      mload(0x40)\n      dup1\n      swap2\n      sub\n      swap1\n      revert\n    tag_256:\n        /* \"contracts/SyCrowBarter.sol\":2399:2414  block.timestamp */\n      timestamp\n        /* \"contracts/SyCrowBarter.sol\":2388:2396  deadline */\n      dup5\n        /* \"contracts/SyCrowBarter.sol\":2388:2414  deadline < block.timestamp */\n      lt\n        /* \"contracts/SyCrowBarter.sol\":2380:2446  require(deadline < block.timestamp, \"SyCrowBarter: PAST_DEADLINE\") */\n      tag_259\n      jumpi\n      mload(0x40)\n      0x08c379a000000000000000000000000000000000000000000000000000000000\n      dup2\n      mstore\n      0x04\n      add\n      tag_260\n      swap1\n      tag_261\n      jump\t// in\n    tag_260:\n      mload(0x40)\n      dup1\n      swap2\n      sub\n      swap1\n      revert\n    tag_259:\n        /* \"contracts/SyCrowBarter.sol\":2522:2537  amountDeposited */\n      dup6\n        /* \"contracts/SyCrowBarter.sol\":2485:2492  inToken */\n      dup9\n        /* \"contracts/SyCrowBarter.sol\":2478:2503  IERC20(inToken).balanceOf */\n      0xffffffffffffffffffffffffffffffffffffffff\n      and\n      0x70a08231\n        /* \"contracts/SyCrowBarter.sol\":2512:2516  this */\n      address\n        /* \"contracts/SyCrowBarter.sol\":2478:2518  IERC20(inToken).balanceOf(address(this)) */\n      mload(0x40)\n      dup3\n      0xffffffff\n      and\n      0xe0\n      shl\n      dup2\n      mstore\n      0x04\n      add\n      tag_262\n      swap2\n      swap1\n      tag_72\n      jump\t// in\n    tag_262:\n      0x20\n      mload(0x40)\n      dup1\n      dup4\n      sub\n      dup2\n      dup7\n      gas\n      staticcall\n      iszero\n      dup1\n      iszero\n      tag_264\n      jumpi\n      returndatasize\n      0x00\n      dup1\n      returndatacopy\n      revert(0x00, returndatasize)\n    tag_264:\n      pop\n      pop\n      pop\n      pop\n      mload(0x40)\n      returndatasize\n      not(0x1f)\n      0x1f\n      dup3\n      add\n      and\n      dup3\n      add\n      dup1\n      0x40\n      mstore\n      pop\n      dup2\n      add\n      swap1\n      tag_265\n      swap2\n      swap1\n      tag_184\n      jump\t// in\n    tag_265:\n        /* \"contracts/SyCrowBarter.sol\":2478:2537  IERC20(inToken).balanceOf(address(this)) >= amountDeposited */\n      lt\n      iszero\n        /* \"contracts/SyCrowBarter.sol\":2457:2597  require(... */\n      tag_266\n      jumpi\n      mload(0x40)\n      0x08c379a000000000000000000000000000000000000000000000000000000000\n      dup2\n      mstore\n      0x04\n      add\n      tag_267\n      swap1\n      tag_268\n      jump\t// in\n    tag_267:\n      mload(0x40)\n      dup1\n      swap2\n      sub\n      swap1\n      revert\n    tag_266:\n        /* \"contracts/SyCrowBarter.sol\":2620:2628  deadline */\n      dup4\n        /* \"contracts/SyCrowBarter.sol\":2608:2617  _deadline */\n      0x03\n        /* \"contracts/SyCrowBarter.sol\":2608:2628  _deadline = deadline */\n      dup2\n      swap1\n      sstore\n      pop\n        /* \"contracts/SyCrowBarter.sol\":2664:2671  inToken */\n      dup8\n        /* \"contracts/SyCrowBarter.sol\":2639:2661  _depositedTokenAddress */\n      0x04\n      0x01\n        /* \"contracts/SyCrowBarter.sol\":2639:2671  _depositedTokenAddress = inToken */\n      0x0100\n      exp\n      dup2\n      sload\n      dup2\n      0xffffffffffffffffffffffffffffffffffffffff\n      mul\n      not\n      and\n      swap1\n      dup4\n      0xffffffffffffffffffffffffffffffffffffffff\n      and\n      mul\n      or\n      swap1\n      sstore\n      pop\n        /* \"contracts/SyCrowBarter.sol\":2705:2713  outToken */\n      dup7\n        /* \"contracts/SyCrowBarter.sol\":2681:2702  _expectedTokenAddress */\n      0x05\n      0x00\n        /* \"contracts/SyCrowBarter.sol\":2681:2713  _expectedTokenAddress = outToken */\n      0x0100\n      exp\n      dup2\n      sload\n      dup2\n      0xffffffffffffffffffffffffffffffffffffffff\n      mul\n      not\n      and\n      swap1\n      dup4\n      0xffffffffffffffffffffffffffffffffffffffff\n      and\n      mul\n      or\n      swap1\n      sstore\n      pop\n        /* \"contracts/SyCrowBarter.sol\":2743:2758  amountDeposited */\n      dup6\n        /* \"contracts/SyCrowBarter.sol\":2724:2740  _depositedAmount */\n      0x06\n        /* \"contracts/SyCrowBarter.sol\":2724:2758  _depositedAmount = amountDeposited */\n      dup2\n      swap1\n      sstore\n      pop\n        /* \"contracts/SyCrowBarter.sol\":2786:2800  amountExpected */\n      dup5\n        /* \"contracts/SyCrowBarter.sol\":2768:2783  _expectedAmount */\n      0x07\n        /* \"contracts/SyCrowBarter.sol\":2768:2800  _expectedAmount = amountExpected */\n      dup2\n      swap1\n      sstore\n      pop\n        /* \"contracts/SyCrowBarter.sol\":2824:2835  _barterType */\n      dup9\n        /* \"contracts/SyCrowBarter.sol\":2811:2821  barterType */\n      0x02\n      0x00\n        /* \"contracts/SyCrowBarter.sol\":2811:2835  barterType = _barterType */\n      0x0100\n      exp\n      dup2\n      sload\n      dup2\n      0xff\n      mul\n      not\n      and\n      swap1\n      dup4\n      0x02\n      dup2\n      gt\n      iszero\n      tag_269\n      jumpi\n      tag_270\n      tag_129\n      jump\t// in\n    tag_270:\n    tag_269:\n      mul\n      or\n      swap1\n      sstore\n      pop\n        /* \"contracts/SyCrowBarter.sol\":2866:2882  allowMultiBarter */\n      dup3\n        /* \"contracts/SyCrowBarter.sol\":2846:2863  _allowMultiBarter */\n      0x08\n      0x00\n        /* \"contracts/SyCrowBarter.sol\":2846:2882  _allowMultiBarter = allowMultiBarter */\n      0x0100\n      exp\n      dup2\n      sload\n      dup2\n      0xff\n      mul\n      not\n      and\n      swap1\n      dup4\n      iszero\n      iszero\n      mul\n      or\n      swap1\n      sstore\n      pop\n        /* \"contracts/SyCrowBarter.sol\":2908:2913  _WETH */\n      dup2\n        /* \"contracts/SyCrowBarter.sol\":2901:2905  WETH */\n      0x02\n      0x01\n        /* \"contracts/SyCrowBarter.sol\":2901:2913  WETH = _WETH */\n      0x0100\n      exp\n      dup2\n      sload\n      dup2\n      0xffffffffffffffffffffffffffffffffffffffff\n      mul\n      not\n      and\n      swap1\n      dup4\n      0xffffffffffffffffffffffffffffffffffffffff\n      and\n      mul\n      or\n      swap1\n      sstore\n      pop\n        /* \"contracts/SyCrowBarter.sol\":2938:2942  true */\n      0x01\n        /* \"contracts/SyCrowBarter.sol\":2923:2935  _initialized */\n      0x04\n      0x00\n        /* \"contracts/SyCrowBarter.sol\":2923:2942  _initialized = true */\n      0x0100\n      exp\n      dup2\n      sload\n      dup2\n      0xff\n      mul\n      not\n      and\n      swap1\n      dup4\n      iszero\n      iszero\n      mul\n      or\n      swap1\n      sstore\n      pop\n        /* \"contracts/SyCrowBarter.sol\":2960:2972  _initialized */\n      0x04\n      0x00\n      swap1\n      sload\n      swap1\n      0x0100\n      exp\n      swap1\n      div\n      0xff\n      and\n        /* \"contracts/SyCrowBarter.sol\":2953:2972  return _initialized */\n      swap1\n      pop\n        /* \"contracts/SyCrowBarter.sol\":1948:2979  function initialize(... */\n      swap9\n      swap8\n      pop\n      pop\n      pop\n      pop\n      pop\n      pop\n      pop\n      pop\n      jump\t// out\n        /* \"@openzeppelin/contracts/access/Ownable.sol\":1668:1769  function renounceOwnership() public virtual onlyOwner {... */\n    tag_62:\n        /* \"@openzeppelin/contracts/access/Ownable.sol\":1259:1271  _msgSender() */\n      tag_272\n        /* \"@openzeppelin/contracts/access/Ownable.sol\":1259:1269  _msgSender */\n      tag_174\n        /* \"@openzeppelin/contracts/access/Ownable.sol\":1259:1271  _msgSender() */\n      jump\t// in\n    tag_272:\n        /* \"@openzeppelin/contracts/access/Ownable.sol\":1248:1271  owner() == _msgSender() */\n      0xffffffffffffffffffffffffffffffffffffffff\n      and\n        /* \"@openzeppelin/contracts/access/Ownable.sol\":1248:1255  owner() */\n      tag_273\n        /* \"@openzeppelin/contracts/access/Ownable.sol\":1248:1253  owner */\n      tag_70\n        /* \"@openzeppelin/contracts/access/Ownable.sol\":1248:1255  owner() */\n      jump\t// in\n    tag_273:\n        /* \"@openzeppelin/contracts/access/Ownable.sol\":1248:1271  owner() == _msgSender() */\n      0xffffffffffffffffffffffffffffffffffffffff\n      and\n      eq\n        /* \"@openzeppelin/contracts/access/Ownable.sol\":1240:1308  require(owner() == _msgSender(), \"Ownable: caller is not the owner\") */\n      tag_274\n      jumpi\n      mload(0x40)\n      0x08c379a000000000000000000000000000000000000000000000000000000000\n      dup2\n      mstore\n      0x04\n      add\n      tag_275\n      swap1\n      tag_178\n      jump\t// in\n    tag_275:\n      mload(0x40)\n      dup1\n      swap2\n      sub\n      swap1\n      revert\n    tag_274:\n        /* \"@openzeppelin/contracts/access/Ownable.sol\":1732:1762  _transferOwnership(address(0)) */\n      tag_277\n        /* \"@openzeppelin/contracts/access/Ownable.sol\":1759:1760  0 */\n      0x00\n        /* \"@openzeppelin/contracts/access/Ownable.sol\":1732:1750  _transferOwnership */\n      tag_278\n        /* \"@openzeppelin/contracts/access/Ownable.sol\":1732:1762  _transferOwnership(address(0)) */\n      jump\t// in\n    tag_277:\n        /* \"@openzeppelin/contracts/access/Ownable.sol\":1668:1769  function renounceOwnership() public virtual onlyOwner {... */\n      jump\t// out\n        /* \"contracts/SyCrowBarter.sol\":407:442  ISyCrowBarterType public barterType */\n    tag_65:\n      0x02\n      0x00\n      swap1\n      sload\n      swap1\n      0x0100\n      exp\n      swap1\n      div\n      0xff\n      and\n      dup2\n      jump\t// out\n        /* \"@openzeppelin/contracts/access/Ownable.sol\":1036:1121  function owner() public view virtual returns (address) {... */\n    tag_70:\n        /* \"@openzeppelin/contracts/access/Ownable.sol\":1082:1089  address */\n      0x00\n        /* \"@openzeppelin/contracts/access/Ownable.sol\":1108:1114  _owner */\n      dup1\n      0x00\n      swap1\n      sload\n      swap1\n      0x0100\n      exp\n      swap1\n      div\n      0xffffffffffffffffffffffffffffffffffffffff\n      and\n        /* \"@openzeppelin/contracts/access/Ownable.sol\":1101:1114  return _owner */\n      swap1\n      pop\n        /* \"@openzeppelin/contracts/access/Ownable.sol\":1036:1121  function owner() public view virtual returns (address) {... */\n      swap1\n      jump\t// out\n        /* \"contracts/SyCrowBarter.sol\":5167:5401  function tradeTokenForEth()... */\n    tag_75:\n        /* \"contracts/SyCrowBarter.sol\":969:984  block.timestamp */\n      timestamp\n        /* \"contracts/SyCrowBarter.sol\":956:965  _deadline */\n      sload(0x03)\n        /* \"contracts/SyCrowBarter.sol\":956:984  _deadline >= block.timestamp */\n      lt\n      iszero\n        /* \"contracts/SyCrowBarter.sol\":956:1022  _deadline >= block.timestamp && totalTradeAmount < _expectedAmount */\n      dup1\n      iszero\n      tag_281\n      jumpi\n      pop\n        /* \"contracts/SyCrowBarter.sol\":1007:1022  _expectedAmount */\n      sload(0x07)\n        /* \"contracts/SyCrowBarter.sol\":988:1004  totalTradeAmount */\n      sload(0x01)\n        /* \"contracts/SyCrowBarter.sol\":988:1022  totalTradeAmount < _expectedAmount */\n      lt\n        /* \"contracts/SyCrowBarter.sol\":956:1022  _deadline >= block.timestamp && totalTradeAmount < _expectedAmount */\n    tag_281:\n        /* \"contracts/SyCrowBarter.sol\":935:1070  require(... */\n      tag_282\n      jumpi\n      mload(0x40)\n      0x08c379a000000000000000000000000000000000000000000000000000000000\n      dup2\n      mstore\n      0x04\n      add\n      tag_283\n      swap1\n      tag_109\n      jump\t// in\n    tag_283:\n      mload(0x40)\n      dup1\n      swap2\n      sub\n      swap1\n      revert\n    tag_282:\n        /* \"contracts/SyCrowBarter.sol\":1488:1500  _initialized */\n      0x04\n      0x00\n      swap1\n      sload\n      swap1\n      0x0100\n      exp\n      swap1\n      div\n      0xff\n      and\n        /* \"contracts/SyCrowBarter.sol\":1480:1534  require(_initialized, \"SyCrowBarter: NOT_INITIALIZED\") */\n      tag_285\n      jumpi\n      mload(0x40)\n      0x08c379a000000000000000000000000000000000000000000000000000000000\n      dup2\n      mstore\n      0x04\n      add\n      tag_286\n      swap1\n      tag_113\n      jump\t// in\n    tag_286:\n      mload(0x40)\n      dup1\n      swap2\n      sub\n      swap1\n      revert\n    tag_285:\n        /* \"contracts/SyCrowBarter.sol\":1721:1754  ISyCrowBarterFactory isycrFactory */\n      0x00\n        /* \"contracts/SyCrowBarter.sol\":1778:1785  factory */\n      immutable(\"0x26a975632f70533c9512e57b565b8ce8e2befee6b08dfbc27c4a897a20e2c1d6\")\n        /* \"contracts/SyCrowBarter.sol\":1721:1786  ISyCrowBarterFactory isycrFactory = ISyCrowBarterFactory(factory) */\n      swap1\n      pop\n        /* \"contracts/SyCrowBarter.sol\":1805:1817  isycrFactory */\n      dup1\n        /* \"contracts/SyCrowBarter.sol\":1805:1826  isycrFactory.isPaused */\n      0xffffffffffffffffffffffffffffffffffffffff\n      and\n      0xb187bd26\n        /* \"contracts/SyCrowBarter.sol\":1805:1828  isycrFactory.isPaused() */\n      mload(0x40)\n      dup2\n      0xffffffff\n      and\n      0xe0\n      shl\n      dup2\n      mstore\n      0x04\n      add\n      0x20\n      mload(0x40)\n      dup1\n      dup4\n      sub\n      dup2\n      dup7\n      gas\n      staticcall\n      iszero\n      dup1\n      iszero\n      tag_289\n      jumpi\n      returndatasize\n      0x00\n      dup1\n      returndatacopy\n      revert(0x00, returndatasize)\n    tag_289:\n      pop\n      pop\n      pop\n      pop\n      mload(0x40)\n      returndatasize\n      not(0x1f)\n      0x1f\n      dup3\n      add\n      and\n      dup3\n      add\n      dup1\n      0x40\n      mstore\n      pop\n      dup2\n      add\n      swap1\n      tag_290\n      swap2\n      swap1\n      tag_118\n      jump\t// in\n    tag_290:\n        /* \"contracts/SyCrowBarter.sol\":1804:1828  !isycrFactory.isPaused() */\n      iszero\n        /* \"contracts/SyCrowBarter.sol\":1796:1867  require(!isycrFactory.isPaused(), \"SyCrowBarter: Base Contract Paused\") */\n      tag_291\n      jumpi\n      mload(0x40)\n      0x08c379a000000000000000000000000000000000000000000000000000000000\n      dup2\n      mstore\n      0x04\n      add\n      tag_292\n      swap1\n      tag_121\n      jump\t// in\n    tag_292:\n      mload(0x40)\n      dup1\n      swap2\n      sub\n      swap1\n      revert\n    tag_291:\n        /* \"contracts/SyCrowBarter.sol\":5313:5344  ISyCrowBarterType.ETH_FOR_TOKEN */\n      0x00\n        /* \"contracts/SyCrowBarter.sol\":1183:1193  barterType */\n      0x02\n      0x00\n      swap1\n      sload\n      swap1\n      0x0100\n      exp\n      swap1\n      div\n      0xff\n      and\n        /* \"contracts/SyCrowBarter.sol\":1168:1193  _barterType == barterType */\n      0x02\n      dup2\n      gt\n      iszero\n      tag_294\n      jumpi\n      tag_295\n      tag_129\n      jump\t// in\n    tag_295:\n    tag_294:\n        /* \"contracts/SyCrowBarter.sol\":1168:1179  _barterType */\n      dup2\n        /* \"contracts/SyCrowBarter.sol\":1168:1193  _barterType == barterType */\n      0x02\n      dup2\n      gt\n      iszero\n      tag_296\n      jumpi\n      tag_297\n      tag_129\n      jump\t// in\n    tag_297:\n    tag_296:\n      eq\n        /* \"contracts/SyCrowBarter.sol\":1160:1231  require(_barterType == barterType, \"SyCrowBarter: INVALID_BARTER_TYPE\") */\n      tag_298\n      jumpi\n      mload(0x40)\n      0x08c379a000000000000000000000000000000000000000000000000000000000\n      dup2\n      mstore\n      0x04\n      add\n      tag_299\n      swap1\n      tag_134\n      jump\t// in\n    tag_299:\n      mload(0x40)\n      dup1\n      swap2\n      sub\n      swap1\n      revert\n    tag_298:\n        /* \"contracts/SyCrowBarter.sol\":5360:5394  _tradeTokenForEth(_expectedAmount) */\n      tag_301\n        /* \"contracts/SyCrowBarter.sol\":5378:5393  _expectedAmount */\n      sload(0x07)\n        /* \"contracts/SyCrowBarter.sol\":5360:5377  _tradeTokenForEth */\n      tag_137\n        /* \"contracts/SyCrowBarter.sol\":5360:5394  _tradeTokenForEth(_expectedAmount) */\n      jump\t// in\n    tag_301:\n        /* \"contracts/SyCrowBarter.sol\":1877:1878  _ */\n      pop\n        /* \"contracts/SyCrowBarter.sol\":1711:1885  {... */\n      pop\n        /* \"contracts/SyCrowBarter.sol\":5167:5401  function tradeTokenForEth()... */\n      jump\t// out\n        /* \"contracts/SyCrowBarter.sol\":3178:3376  function getTokens()... */\n    tag_78:\n        /* \"contracts/SyCrowBarter.sol\":3283:3290  address */\n      0x00\n        /* \"contracts/SyCrowBarter.sol\":3292:3299  address */\n      dup1\n        /* \"contracts/SyCrowBarter.sol\":1488:1500  _initialized */\n      0x04\n      0x00\n      swap1\n      sload\n      swap1\n      0x0100\n      exp\n      swap1\n      div\n      0xff\n      and\n        /* \"contracts/SyCrowBarter.sol\":1480:1534  require(_initialized, \"SyCrowBarter: NOT_INITIALIZED\") */\n      tag_303\n      jumpi\n      mload(0x40)\n      0x08c379a000000000000000000000000000000000000000000000000000000000\n      dup2\n      mstore\n      0x04\n      add\n      tag_304\n      swap1\n      tag_113\n      jump\t// in\n    tag_304:\n      mload(0x40)\n      dup1\n      swap2\n      sub\n      swap1\n      revert\n    tag_303:\n        /* \"contracts/SyCrowBarter.sol\":3323:3345  _depositedTokenAddress */\n      0x04\n      0x01\n      swap1\n      sload\n      swap1\n      0x0100\n      exp\n      swap1\n      div\n      0xffffffffffffffffffffffffffffffffffffffff\n      and\n        /* \"contracts/SyCrowBarter.sol\":3347:3368  _expectedTokenAddress */\n      0x05\n      0x00\n      swap1\n      sload\n      swap1\n      0x0100\n      exp\n      swap1\n      div\n      0xffffffffffffffffffffffffffffffffffffffff\n      and\n        /* \"contracts/SyCrowBarter.sol\":3315:3369  return (_depositedTokenAddress, _expectedTokenAddress) */\n      swap2\n      pop\n      swap2\n      pop\n        /* \"contracts/SyCrowBarter.sol\":3178:3376  function getTokens()... */\n      swap1\n      swap2\n      jump\t// out\n        /* \"contracts/SyCrowBarter.sol\":4921:5161  function tradeTokenForToken()... */\n    tag_83:\n        /* \"contracts/SyCrowBarter.sol\":969:984  block.timestamp */\n      timestamp\n        /* \"contracts/SyCrowBarter.sol\":956:965  _deadline */\n      sload(0x03)\n        /* \"contracts/SyCrowBarter.sol\":956:984  _deadline >= block.timestamp */\n      lt\n      iszero\n        /* \"contracts/SyCrowBarter.sol\":956:1022  _deadline >= block.timestamp && totalTradeAmount < _expectedAmount */\n      dup1\n      iszero\n      tag_307\n      jumpi\n      pop\n        /* \"contracts/SyCrowBarter.sol\":1007:1022  _expectedAmount */\n      sload(0x07)\n        /* \"contracts/SyCrowBarter.sol\":988:1004  totalTradeAmount */\n      sload(0x01)\n        /* \"contracts/SyCrowBarter.sol\":988:1022  totalTradeAmount < _expectedAmount */\n      lt\n        /* \"contracts/SyCrowBarter.sol\":956:1022  _deadline >= block.timestamp && totalTradeAmount < _expectedAmount */\n    tag_307:\n        /* \"contracts/SyCrowBarter.sol\":935:1070  require(... */\n      tag_308\n      jumpi\n      mload(0x40)\n      0x08c379a000000000000000000000000000000000000000000000000000000000\n      dup2\n      mstore\n      0x04\n      add\n      tag_309\n      swap1\n      tag_109\n      jump\t// in\n    tag_309:\n      mload(0x40)\n      dup1\n      swap2\n      sub\n      swap1\n      revert\n    tag_308:\n        /* \"contracts/SyCrowBarter.sol\":1488:1500  _initialized */\n      0x04\n      0x00\n      swap1\n      sload\n      swap1\n      0x0100\n      exp\n      swap1\n      div\n      0xff\n      and\n        /* \"contracts/SyCrowBarter.sol\":1480:1534  require(_initialized, \"SyCrowBarter: NOT_INITIALIZED\") */\n      tag_311\n      jumpi\n      mload(0x40)\n      0x08c379a000000000000000000000000000000000000000000000000000000000\n      dup2\n      mstore\n      0x04\n      add\n      tag_312\n      swap1\n      tag_113\n      jump\t// in\n    tag_312:\n      mload(0x40)\n      dup1\n      swap2\n      sub\n      swap1\n      revert\n    tag_311:\n        /* \"contracts/SyCrowBarter.sol\":1721:1754  ISyCrowBarterFactory isycrFactory */\n      0x00\n        /* \"contracts/SyCrowBarter.sol\":1778:1785  factory */\n      immutable(\"0x26a975632f70533c9512e57b565b8ce8e2befee6b08dfbc27c4a897a20e2c1d6\")\n        /* \"contracts/SyCrowBarter.sol\":1721:1786  ISyCrowBarterFactory isycrFactory = ISyCrowBarterFactory(factory) */\n      swap1\n      pop\n        /* \"contracts/SyCrowBarter.sol\":1805:1817  isycrFactory */\n      dup1\n        /* \"contracts/SyCrowBarter.sol\":1805:1826  isycrFactory.isPaused */\n      0xffffffffffffffffffffffffffffffffffffffff\n      and\n      0xb187bd26\n        /* \"contracts/SyCrowBarter.sol\":1805:1828  isycrFactory.isPaused() */\n      mload(0x40)\n      dup2\n      0xffffffff\n      and\n      0xe0\n      shl\n      dup2\n      mstore\n      0x04\n      add\n      0x20\n      mload(0x40)\n      dup1\n      dup4\n      sub\n      dup2\n      dup7\n      gas\n      staticcall\n      iszero\n      dup1\n      iszero\n      tag_315\n      jumpi\n      returndatasize\n      0x00\n      dup1\n      returndatacopy\n      revert(0x00, returndatasize)\n    tag_315:\n      pop\n      pop\n      pop\n      pop\n      mload(0x40)\n      returndatasize\n      not(0x1f)\n      0x1f\n      dup3\n      add\n      and\n      dup3\n      add\n      dup1\n      0x40\n      mstore\n      pop\n      dup2\n      add\n      swap1\n      tag_316\n      swap2\n      swap1\n      tag_118\n      jump\t// in\n    tag_316:\n        /* \"contracts/SyCrowBarter.sol\":1804:1828  !isycrFactory.isPaused() */\n      iszero\n        /* \"contracts/SyCrowBarter.sol\":1796:1867  require(!isycrFactory.isPaused(), \"SyCrowBarter: Base Contract Paused\") */\n      tag_317\n      jumpi\n      mload(0x40)\n      0x08c379a000000000000000000000000000000000000000000000000000000000\n      dup2\n      mstore\n      0x04\n      add\n      tag_318\n      swap1\n      tag_121\n      jump\t// in\n    tag_318:\n      mload(0x40)\n      dup1\n      swap2\n      sub\n      swap1\n      revert\n    tag_317:\n        /* \"contracts/SyCrowBarter.sol\":5069:5102  ISyCrowBarterType.TOKEN_FOR_TOKEN */\n      0x02\n        /* \"contracts/SyCrowBarter.sol\":1183:1193  barterType */\n      dup1\n      0x00\n      swap1\n      sload\n      swap1\n      0x0100\n      exp\n      swap1\n      div\n      0xff\n      and\n        /* \"contracts/SyCrowBarter.sol\":1168:1193  _barterType == barterType */\n      0x02\n      dup2\n      gt\n      iszero\n      tag_320\n      jumpi\n      tag_321\n      tag_129\n      jump\t// in\n    tag_321:\n    tag_320:\n        /* \"contracts/SyCrowBarter.sol\":1168:1179  _barterType */\n      dup2\n        /* \"contracts/SyCrowBarter.sol\":1168:1193  _barterType == barterType */\n      0x02\n      dup2\n      gt\n      iszero\n      tag_322\n      jumpi\n      tag_323\n      tag_129\n      jump\t// in\n    tag_323:\n    tag_322:\n      eq\n        /* \"contracts/SyCrowBarter.sol\":1160:1231  require(_barterType == barterType, \"SyCrowBarter: INVALID_BARTER_TYPE\") */\n      tag_324\n      jumpi\n      mload(0x40)\n      0x08c379a000000000000000000000000000000000000000000000000000000000\n      dup2\n      mstore\n      0x04\n      add\n      tag_325\n      swap1\n      tag_134\n      jump\t// in\n    tag_325:\n      mload(0x40)\n      dup1\n      swap2\n      sub\n      swap1\n      revert\n    tag_324:\n        /* \"contracts/SyCrowBarter.sol\":5118:5154  _tradeTokenForToken(_expectedAmount) */\n      tag_327\n        /* \"contracts/SyCrowBarter.sol\":5138:5153  _expectedAmount */\n      sload(0x07)\n        /* \"contracts/SyCrowBarter.sol\":5118:5137  _tradeTokenForToken */\n      tag_163\n        /* \"contracts/SyCrowBarter.sol\":5118:5154  _tradeTokenForToken(_expectedAmount) */\n      jump\t// in\n    tag_327:\n        /* \"contracts/SyCrowBarter.sol\":1877:1878  _ */\n      pop\n        /* \"contracts/SyCrowBarter.sol\":1711:1885  {... */\n      pop\n        /* \"contracts/SyCrowBarter.sol\":4921:5161  function tradeTokenForToken()... */\n      jump\t// out\n        /* \"contracts/SyCrowBarter.sol\":323:364  address public immutable override factory */\n    tag_86:\n      immutable(\"0x26a975632f70533c9512e57b565b8ce8e2befee6b08dfbc27c4a897a20e2c1d6\")\n      dup2\n      jump\t// out\n        /* \"contracts/SyCrowBarter.sol\":5407:5657  function tradeEthForToken()... */\n    tag_89:\n        /* \"contracts/SyCrowBarter.sol\":969:984  block.timestamp */\n      timestamp\n        /* \"contracts/SyCrowBarter.sol\":956:965  _deadline */\n      sload(0x03)\n        /* \"contracts/SyCrowBarter.sol\":956:984  _deadline >= block.timestamp */\n      lt\n      iszero\n        /* \"contracts/SyCrowBarter.sol\":956:1022  _deadline >= block.timestamp && totalTradeAmount < _expectedAmount */\n      dup1\n      iszero\n      tag_329\n      jumpi\n      pop\n        /* \"contracts/SyCrowBarter.sol\":1007:1022  _expectedAmount */\n      sload(0x07)\n        /* \"contracts/SyCrowBarter.sol\":988:1004  totalTradeAmount */\n      sload(0x01)\n        /* \"contracts/SyCrowBarter.sol\":988:1022  totalTradeAmount < _expectedAmount */\n      lt\n        /* \"contracts/SyCrowBarter.sol\":956:1022  _deadline >= block.timestamp && totalTradeAmount < _expectedAmount */\n    tag_329:\n        /* \"contracts/SyCrowBarter.sol\":935:1070  require(... */\n      tag_330\n      jumpi\n      mload(0x40)\n      0x08c379a000000000000000000000000000000000000000000000000000000000\n      dup2\n      mstore\n      0x04\n      add\n      tag_331\n      swap1\n      tag_109\n      jump\t// in\n    tag_331:\n      mload(0x40)\n      dup1\n      swap2\n      sub\n      swap1\n      revert\n    tag_330:\n        /* \"contracts/SyCrowBarter.sol\":1488:1500  _initialized */\n      0x04\n      0x00\n      swap1\n      sload\n      swap1\n      0x0100\n      exp\n      swap1\n      div\n      0xff\n      and\n        /* \"contracts/SyCrowBarter.sol\":1480:1534  require(_initialized, \"SyCrowBarter: NOT_INITIALIZED\") */\n      tag_333\n      jumpi\n      mload(0x40)\n      0x08c379a000000000000000000000000000000000000000000000000000000000\n      dup2\n      mstore\n      0x04\n      add\n      tag_334\n      swap1\n      tag_113\n      jump\t// in\n    tag_334:\n      mload(0x40)\n      dup1\n      swap2\n      sub\n      swap1\n      revert\n    tag_333:\n        /* \"contracts/SyCrowBarter.sol\":1721:1754  ISyCrowBarterFactory isycrFactory */\n      0x00\n        /* \"contracts/SyCrowBarter.sol\":1778:1785  factory */\n      immutable(\"0x26a975632f70533c9512e57b565b8ce8e2befee6b08dfbc27c4a897a20e2c1d6\")\n        /* \"contracts/SyCrowBarter.sol\":1721:1786  ISyCrowBarterFactory isycrFactory = ISyCrowBarterFactory(factory) */\n      swap1\n      pop\n        /* \"contracts/SyCrowBarter.sol\":1805:1817  isycrFactory */\n      dup1\n        /* \"contracts/SyCrowBarter.sol\":1805:1826  isycrFactory.isPaused */\n      0xffffffffffffffffffffffffffffffffffffffff\n      and\n      0xb187bd26\n        /* \"contracts/SyCrowBarter.sol\":1805:1828  isycrFactory.isPaused() */\n      mload(0x40)\n      dup2\n      0xffffffff\n      and\n      0xe0\n      shl\n      dup2\n      mstore\n      0x04\n      add\n      0x20\n      mload(0x40)\n      dup1\n      dup4\n      sub\n      dup2\n      dup7\n      gas\n      staticcall\n      iszero\n      dup1\n      iszero\n      tag_337\n      jumpi\n      returndatasize\n      0x00\n      dup1\n      returndatacopy\n      revert(0x00, returndatasize)\n    tag_337:\n      pop\n      pop\n      pop\n      pop\n      mload(0x40)\n      returndatasize\n      not(0x1f)\n      0x1f\n      dup3\n      add\n      and\n      dup3\n      add\n      dup1\n      0x40\n      mstore\n      pop\n      dup2\n      add\n      swap1\n      tag_338\n      swap2\n      swap1\n      tag_118\n      jump\t// in\n    tag_338:\n        /* \"contracts/SyCrowBarter.sol\":1804:1828  !isycrFactory.isPaused() */\n      iszero\n        /* \"contracts/SyCrowBarter.sol\":1796:1867  require(!isycrFactory.isPaused(), \"SyCrowBarter: Base Contract Paused\") */\n      tag_339\n      jumpi\n      mload(0x40)\n      0x08c379a000000000000000000000000000000000000000000000000000000000\n      dup2\n      mstore\n      0x04\n      add\n      tag_340\n      swap1\n      tag_121\n      jump\t// in\n    tag_340:\n      mload(0x40)\n      dup1\n      swap2\n      sub\n      swap1\n      revert\n    tag_339:\n        /* \"contracts/SyCrowBarter.sol\":5569:5600  ISyCrowBarterType.TOKEN_FOR_ETH */\n      0x01\n        /* \"contracts/SyCrowBarter.sol\":1183:1193  barterType */\n      0x02\n      0x00\n      swap1\n      sload\n      swap1\n      0x0100\n      exp\n      swap1\n      div\n      0xff\n      and\n        /* \"contracts/SyCrowBarter.sol\":1168:1193  _barterType == barterType */\n      0x02\n      dup2\n      gt\n      iszero\n      tag_342\n      jumpi\n      tag_343\n      tag_129\n      jump\t// in\n    tag_343:\n    tag_342:\n        /* \"contracts/SyCrowBarter.sol\":1168:1179  _barterType */\n      dup2\n        /* \"contracts/SyCrowBarter.sol\":1168:1193  _barterType == barterType */\n      0x02\n      dup2\n      gt\n      iszero\n      tag_344\n      jumpi\n      tag_345\n      tag_129\n      jump\t// in\n    tag_345:\n    tag_344:\n      eq\n        /* \"contracts/SyCrowBarter.sol\":1160:1231  require(_barterType == barterType, \"SyCrowBarter: INVALID_BARTER_TYPE\") */\n      tag_346\n      jumpi\n      mload(0x40)\n      0x08c379a000000000000000000000000000000000000000000000000000000000\n      dup2\n      mstore\n      0x04\n      add\n      tag_347\n      swap1\n      tag_134\n      jump\t// in\n    tag_347:\n      mload(0x40)\n      dup1\n      swap2\n      sub\n      swap1\n      revert\n    tag_346:\n        /* \"contracts/SyCrowBarter.sol\":5616:5650  _tradeEthForToken(_expectedAmount) */\n      tag_349\n        /* \"contracts/SyCrowBarter.sol\":5634:5649  _expectedAmount */\n      sload(0x07)\n        /* \"contracts/SyCrowBarter.sol\":5616:5633  _tradeEthForToken */\n      tag_251\n        /* \"contracts/SyCrowBarter.sol\":5616:5650  _tradeEthForToken(_expectedAmount) */\n      jump\t// in\n    tag_349:\n        /* \"contracts/SyCrowBarter.sol\":1877:1878  _ */\n      pop\n        /* \"contracts/SyCrowBarter.sol\":1711:1885  {... */\n      pop\n        /* \"contracts/SyCrowBarter.sol\":5407:5657  function tradeEthForToken()... */\n      jump\t// out\n        /* \"contracts/SyCrowBarter.sol\":10307:10477  function getTradeOutAmount(uint256 amount)... */\n    tag_93:\n        /* \"contracts/SyCrowBarter.sol\":10395:10402  uint256 */\n      0x00\n        /* \"contracts/SyCrowBarter.sol\":10455:10470  _expectedAmount */\n      sload(0x07)\n        /* \"contracts/SyCrowBarter.sol\":10435:10451  _depositedAmount */\n      sload(0x06)\n        /* \"contracts/SyCrowBarter.sol\":10426:10432  amount */\n      dup4\n        /* \"contracts/SyCrowBarter.sol\":10426:10451  amount * _depositedAmount */\n      tag_351\n      swap2\n      swap1\n      tag_352\n      jump\t// in\n    tag_351:\n        /* \"contracts/SyCrowBarter.sol\":10425:10470  (amount * _depositedAmount) / _expectedAmount */\n      tag_353\n      swap2\n      swap1\n      tag_354\n      jump\t// in\n    tag_353:\n        /* \"contracts/SyCrowBarter.sol\":10418:10470  return (amount * _depositedAmount) / _expectedAmount */\n      swap1\n      pop\n        /* \"contracts/SyCrowBarter.sol\":10307:10477  function getTradeOutAmount(uint256 amount)... */\n      swap2\n      swap1\n      pop\n      jump\t// out\n        /* \"contracts/SyCrowBarter.sol\":3382:4068  function getTrades()... */\n    tag_97:\n        /* \"contracts/SyCrowBarter.sol\":3500:3516  address[] memory */\n      0x60\n        /* \"contracts/SyCrowBarter.sol\":3530:3546  uint256[] memory */\n      dup1\n        /* \"contracts/SyCrowBarter.sol\":3560:3576  uint256[] memory */\n      0x60\n        /* \"contracts/SyCrowBarter.sol\":1488:1500  _initialized */\n      0x04\n      0x00\n      swap1\n      sload\n      swap1\n      0x0100\n      exp\n      swap1\n      div\n      0xff\n      and\n        /* \"contracts/SyCrowBarter.sol\":1480:1534  require(_initialized, \"SyCrowBarter: NOT_INITIALIZED\") */\n      tag_356\n      jumpi\n      mload(0x40)\n      0x08c379a000000000000000000000000000000000000000000000000000000000\n      dup2\n      mstore\n      0x04\n      add\n      tag_357\n      swap1\n      tag_113\n      jump\t// in\n    tag_357:\n      mload(0x40)\n      dup1\n      swap2\n      sub\n      swap1\n      revert\n    tag_356:\n        /* \"contracts/SyCrowBarter.sol\":3601:3627  address[] memory addresses */\n      0x00\n        /* \"contracts/SyCrowBarter.sol\":3644:3651  _trades */\n      0x09\n        /* \"contracts/SyCrowBarter.sol\":3644:3658  _trades.length */\n      dup1\n      sload\n      swap1\n      pop\n        /* \"contracts/SyCrowBarter.sol\":3630:3659  new address[](_trades.length) */\n      0xffffffffffffffff\n      dup2\n      gt\n      iszero\n      tag_359\n      jumpi\n      tag_360\n      tag_361\n      jump\t// in\n    tag_360:\n    tag_359:\n      mload(0x40)\n      swap1\n      dup1\n      dup3\n      mstore\n      dup1\n      0x20\n      mul\n      0x20\n      add\n      dup3\n      add\n      0x40\n      mstore\n      dup1\n      iszero\n      tag_362\n      jumpi\n      dup2\n      0x20\n      add\n      0x20\n      dup3\n      mul\n      dup1\n      calldatasize\n      dup4\n      calldatacopy\n      dup1\n      dup3\n      add\n      swap2\n      pop\n      pop\n      swap1\n      pop\n    tag_362:\n      pop\n        /* \"contracts/SyCrowBarter.sol\":3601:3659  address[] memory addresses = new address[](_trades.length) */\n      swap1\n      pop\n        /* \"contracts/SyCrowBarter.sol\":3669:3695  uint256[] memory amountsIn */\n      0x00\n        /* \"contracts/SyCrowBarter.sol\":3712:3719  _trades */\n      0x09\n        /* \"contracts/SyCrowBarter.sol\":3712:3726  _trades.length */\n      dup1\n      sload\n      swap1\n      pop\n        /* \"contracts/SyCrowBarter.sol\":3698:3727  new uint256[](_trades.length) */\n      0xffffffffffffffff\n      dup2\n      gt\n      iszero\n      tag_363\n      jumpi\n      tag_364\n      tag_361\n      jump\t// in\n    tag_364:\n    tag_363:\n      mload(0x40)\n      swap1\n      dup1\n      dup3\n      mstore\n      dup1\n      0x20\n      mul\n      0x20\n      add\n      dup3\n      add\n      0x40\n      mstore\n      dup1\n      iszero\n      tag_365\n      jumpi\n      dup2\n      0x20\n      add\n      0x20\n      dup3\n      mul\n      dup1\n      calldatasize\n      dup4\n      calldatacopy\n      dup1\n      dup3\n      add\n      swap2\n      pop\n      pop\n      swap1\n      pop\n    tag_365:\n      pop\n        /* \"contracts/SyCrowBarter.sol\":3669:3727  uint256[] memory amountsIn = new uint256[](_trades.length) */\n      swap1\n      pop\n        /* \"contracts/SyCrowBarter.sol\":3737:3764  uint256[] memory amountsOut */\n      0x00\n        /* \"contracts/SyCrowBarter.sol\":3781:3788  _trades */\n      0x09\n        /* \"contracts/SyCrowBarter.sol\":3781:3795  _trades.length */\n      dup1\n      sload\n      swap1\n      pop\n        /* \"contracts/SyCrowBarter.sol\":3767:3796  new uint256[](_trades.length) */\n      0xffffffffffffffff\n      dup2\n      gt\n      iszero\n      tag_366\n      jumpi\n      tag_367\n      tag_361\n      jump\t// in\n    tag_367:\n    tag_366:\n      mload(0x40)\n      swap1\n      dup1\n      dup3\n      mstore\n      dup1\n      0x20\n      mul\n      0x20\n      add\n      dup3\n      add\n      0x40\n      mstore\n      dup1\n      iszero\n      tag_368\n      jumpi\n      dup2\n      0x20\n      add\n      0x20\n      dup3\n      mul\n      dup1\n      calldatasize\n      dup4\n      calldatacopy\n      dup1\n      dup3\n      add\n      swap2\n      pop\n      pop\n      swap1\n      pop\n    tag_368:\n      pop\n        /* \"contracts/SyCrowBarter.sol\":3737:3796  uint256[] memory amountsOut = new uint256[](_trades.length) */\n      swap1\n      pop\n        /* \"contracts/SyCrowBarter.sol\":3812:3821  uint256 i */\n      0x00\n        /* \"contracts/SyCrowBarter.sol\":3807:4010  for (uint256 i = 0; i < _trades.length; i++) {... */\n    tag_369:\n        /* \"contracts/SyCrowBarter.sol\":3831:3838  _trades */\n      0x09\n        /* \"contracts/SyCrowBarter.sol\":3831:3845  _trades.length */\n      dup1\n      sload\n      swap1\n      pop\n        /* \"contracts/SyCrowBarter.sol\":3827:3828  i */\n      dup2\n        /* \"contracts/SyCrowBarter.sol\":3827:3845  i < _trades.length */\n      lt\n        /* \"contracts/SyCrowBarter.sol\":3807:4010  for (uint256 i = 0; i < _trades.length; i++) {... */\n      iszero\n      tag_370\n      jumpi\n        /* \"contracts/SyCrowBarter.sol\":3881:3888  _trades */\n      0x09\n        /* \"contracts/SyCrowBarter.sol\":3889:3890  i */\n      dup2\n        /* \"contracts/SyCrowBarter.sol\":3881:3891  _trades[i] */\n      dup2\n      sload\n      dup2\n      lt\n      tag_372\n      jumpi\n      tag_373\n      tag_374\n      jump\t// in\n    tag_373:\n    tag_372:\n      swap1\n      0x00\n      mstore\n      keccak256(0x00, 0x20)\n      swap1\n      0x03\n      mul\n      add\n        /* \"contracts/SyCrowBarter.sol\":3881:3899  _trades[i]._trader */\n      0x00\n      add\n      0x00\n      swap1\n      sload\n      swap1\n      0x0100\n      exp\n      swap1\n      div\n      0xffffffffffffffffffffffffffffffffffffffff\n      and\n        /* \"contracts/SyCrowBarter.sol\":3866:3875  addresses */\n      dup5\n        /* \"contracts/SyCrowBarter.sol\":3876:3877  i */\n      dup3\n        /* \"contracts/SyCrowBarter.sol\":3866:3878  addresses[i] */\n      dup2\n      mload\n      dup2\n      lt\n      tag_376\n      jumpi\n      tag_377\n      tag_374\n      jump\t// in\n    tag_377:\n    tag_376:\n      0x20\n      mul\n      0x20\n      add\n      add\n        /* \"contracts/SyCrowBarter.sol\":3866:3899  addresses[i] = _trades[i]._trader */\n      swap1\n      0xffffffffffffffffffffffffffffffffffffffff\n      and\n      swap1\n      dup2\n      0xffffffffffffffffffffffffffffffffffffffff\n      and\n      dup2\n      mstore\n      pop\n      pop\n        /* \"contracts/SyCrowBarter.sol\":3928:3935  _trades */\n      0x09\n        /* \"contracts/SyCrowBarter.sol\":3936:3937  i */\n      dup2\n        /* \"contracts/SyCrowBarter.sol\":3928:3938  _trades[i] */\n      dup2\n      sload\n      dup2\n      lt\n      tag_378\n      jumpi\n      tag_379\n      tag_374\n      jump\t// in\n    tag_379:\n    tag_378:\n      swap1\n      0x00\n      mstore\n      keccak256(0x00, 0x20)\n      swap1\n      0x03\n      mul\n      add\n        /* \"contracts/SyCrowBarter.sol\":3928:3948  _trades[i]._amountIn */\n      0x01\n      add\n      sload\n        /* \"contracts/SyCrowBarter.sol\":3913:3922  amountsIn */\n      dup4\n        /* \"contracts/SyCrowBarter.sol\":3923:3924  i */\n      dup3\n        /* \"contracts/SyCrowBarter.sol\":3913:3925  amountsIn[i] */\n      dup2\n      mload\n      dup2\n      lt\n      tag_381\n      jumpi\n      tag_382\n      tag_374\n      jump\t// in\n    tag_382:\n    tag_381:\n      0x20\n      mul\n      0x20\n      add\n      add\n        /* \"contracts/SyCrowBarter.sol\":3913:3948  amountsIn[i] = _trades[i]._amountIn */\n      dup2\n      dup2\n      mstore\n      pop\n      pop\n        /* \"contracts/SyCrowBarter.sol\":3978:3985  _trades */\n      0x09\n        /* \"contracts/SyCrowBarter.sol\":3986:3987  i */\n      dup2\n        /* \"contracts/SyCrowBarter.sol\":3978:3988  _trades[i] */\n      dup2\n      sload\n      dup2\n      lt\n      tag_383\n      jumpi\n      tag_384\n      tag_374\n      jump\t// in\n    tag_384:\n    tag_383:\n      swap1\n      0x00\n      mstore\n      keccak256(0x00, 0x20)\n      swap1\n      0x03\n      mul\n      add\n        /* \"contracts/SyCrowBarter.sol\":3978:3999  _trades[i]._amountOut */\n      0x02\n      add\n      sload\n        /* \"contracts/SyCrowBarter.sol\":3962:3972  amountsOut */\n      dup3\n        /* \"contracts/SyCrowBarter.sol\":3973:3974  i */\n      dup3\n        /* \"contracts/SyCrowBarter.sol\":3962:3975  amountsOut[i] */\n      dup2\n      mload\n      dup2\n      lt\n      tag_386\n      jumpi\n      tag_387\n      tag_374\n      jump\t// in\n    tag_387:\n    tag_386:\n      0x20\n      mul\n      0x20\n      add\n      add\n        /* \"contracts/SyCrowBarter.sol\":3962:3999  amountsOut[i] = _trades[i]._amountOut */\n      dup2\n      dup2\n      mstore\n      pop\n      pop\n        /* \"contracts/SyCrowBarter.sol\":3847:3850  i++ */\n      dup1\n      dup1\n      tag_388\n      swap1\n      tag_389\n      jump\t// in\n    tag_388:\n      swap2\n      pop\n      pop\n        /* \"contracts/SyCrowBarter.sol\":3807:4010  for (uint256 i = 0; i < _trades.length; i++) {... */\n      jump(tag_369)\n    tag_370:\n      pop\n        /* \"contracts/SyCrowBarter.sol\":4028:4037  addresses */\n      dup3\n        /* \"contracts/SyCrowBarter.sol\":4039:4048  amountsIn */\n      dup3\n        /* \"contracts/SyCrowBarter.sol\":4050:4060  amountsOut */\n      dup3\n        /* \"contracts/SyCrowBarter.sol\":4020:4061  return (addresses, amountsIn, amountsOut) */\n      swap6\n      pop\n      swap6\n      pop\n      swap6\n      pop\n      pop\n      pop\n      pop\n        /* \"contracts/SyCrowBarter.sol\":3382:4068  function getTrades()... */\n      swap1\n      swap2\n      swap3\n      jump\t// out\n        /* \"@openzeppelin/contracts/access/Ownable.sol\":1918:2116  function transferOwnership(address newOwner) public virtual onlyOwner {... */\n    tag_104:\n        /* \"@openzeppelin/contracts/access/Ownable.sol\":1259:1271  _msgSender() */\n      tag_391\n        /* \"@openzeppelin/contracts/access/Ownable.sol\":1259:1269  _msgSender */\n      tag_174\n        /* \"@openzeppelin/contracts/access/Ownable.sol\":1259:1271  _msgSender() */\n      jump\t// in\n    tag_391:\n        /* \"@openzeppelin/contracts/access/Ownable.sol\":1248:1271  owner() == _msgSender() */\n      0xffffffffffffffffffffffffffffffffffffffff\n      and\n        /* \"@openzeppelin/contracts/access/Ownable.sol\":1248:1255  owner() */\n      tag_392\n        /* \"@openzeppelin/contracts/access/Ownable.sol\":1248:1253  owner */\n      tag_70\n        /* \"@openzeppelin/contracts/access/Ownable.sol\":1248:1255  owner() */\n      jump\t// in\n    tag_392:\n        /* \"@openzeppelin/contracts/access/Ownable.sol\":1248:1271  owner() == _msgSender() */\n      0xffffffffffffffffffffffffffffffffffffffff\n      and\n      eq\n        /* \"@openzeppelin/contracts/access/Ownable.sol\":1240:1308  require(owner() == _msgSender(), \"Ownable: caller is not the owner\") */\n      tag_393\n      jumpi\n      mload(0x40)\n      0x08c379a000000000000000000000000000000000000000000000000000000000\n      dup2\n      mstore\n      0x04\n      add\n      tag_394\n      swap1\n      tag_178\n      jump\t// in\n    tag_394:\n      mload(0x40)\n      dup1\n      swap2\n      sub\n      swap1\n      revert\n    tag_393:\n        /* \"@openzeppelin/contracts/access/Ownable.sol\":2026:2027  0 */\n      0x00\n        /* \"@openzeppelin/contracts/access/Ownable.sol\":2006:2028  newOwner != address(0) */\n      0xffffffffffffffffffffffffffffffffffffffff\n      and\n        /* \"@openzeppelin/contracts/access/Ownable.sol\":2006:2014  newOwner */\n      dup2\n        /* \"@openzeppelin/contracts/access/Ownable.sol\":2006:2028  newOwner != address(0) */\n      0xffffffffffffffffffffffffffffffffffffffff\n      and\n      sub\n        /* \"@openzeppelin/contracts/access/Ownable.sol\":1998:2071  require(newOwner != address(0), \"Ownable: new owner is the zero address\") */\n      tag_396\n      jumpi\n      mload(0x40)\n      0x08c379a000000000000000000000000000000000000000000000000000000000\n      dup2\n      mstore\n      0x04\n      add\n      tag_397\n      swap1\n      tag_398\n      jump\t// in\n    tag_397:\n      mload(0x40)\n      dup1\n      swap2\n      sub\n      swap1\n      revert\n    tag_396:\n        /* \"@openzeppelin/contracts/access/Ownable.sol\":2081:2109  _transferOwnership(newOwner) */\n      tag_399\n        /* \"@openzeppelin/contracts/access/Ownable.sol\":2100:2108  newOwner */\n      dup2\n        /* \"@openzeppelin/contracts/access/Ownable.sol\":2081:2099  _transferOwnership */\n      tag_278\n        /* \"@openzeppelin/contracts/access/Ownable.sol\":2081:2109  _transferOwnership(newOwner) */\n      jump\t// in\n    tag_399:\n        /* \"@openzeppelin/contracts/access/Ownable.sol\":1918:2116  function transferOwnership(address newOwner) public virtual onlyOwner {... */\n      pop\n      jump\t// out\n        /* \"contracts/SyCrowBarter.sol\":6709:7717  function _tradeTokenForEth(uint256 inAmount) internal {... */\n    tag_137:\n        /* \"contracts/SyCrowBarter.sol\":6849:6857  inAmount */\n      dup1\n        /* \"contracts/SyCrowBarter.sol\":6801:6822  _expectedTokenAddress */\n      0x05\n      0x00\n      swap1\n      sload\n      swap1\n      0x0100\n      exp\n      swap1\n      div\n      0xffffffffffffffffffffffffffffffffffffffff\n      and\n        /* \"contracts/SyCrowBarter.sol\":6794:6833  IERC20(_expectedTokenAddress).balanceOf */\n      0xffffffffffffffffffffffffffffffffffffffff\n      and\n      0x70a08231\n        /* \"contracts/SyCrowBarter.sol\":6834:6844  msg.sender */\n      caller\n        /* \"contracts/SyCrowBarter.sol\":6794:6845  IERC20(_expectedTokenAddress).balanceOf(msg.sender) */\n      mload(0x40)\n      dup3\n      0xffffffff\n      and\n      0xe0\n      shl\n      dup2\n      mstore\n      0x04\n      add\n      tag_401\n      swap2\n      swap1\n      tag_72\n      jump\t// in\n    tag_401:\n      0x20\n      mload(0x40)\n      dup1\n      dup4\n      sub\n      dup2\n      dup7\n      gas\n      staticcall\n      iszero\n      dup1\n      iszero\n      tag_403\n      jumpi\n      returndatasize\n      0x00\n      dup1\n      returndatacopy\n      revert(0x00, returndatasize)\n    tag_403:\n      pop\n      pop\n      pop\n      pop\n      mload(0x40)\n      returndatasize\n      not(0x1f)\n      0x1f\n      dup3\n      add\n      and\n      dup3\n      add\n      dup1\n      0x40\n      mstore\n      pop\n      dup2\n      add\n      swap1\n      tag_404\n      swap2\n      swap1\n      tag_184\n      jump\t// in\n    tag_404:\n        /* \"contracts/SyCrowBarter.sol\":6794:6857  IERC20(_expectedTokenAddress).balanceOf(msg.sender) >= inAmount */\n      lt\n      iszero\n        /* \"contracts/SyCrowBarter.sol\":6773:6917  require(... */\n      tag_405\n      jumpi\n      mload(0x40)\n      0x08c379a000000000000000000000000000000000000000000000000000000000\n      dup2\n      mstore\n      0x04\n      add\n      tag_406\n      swap1\n      tag_407\n      jump\t// in\n    tag_406:\n      mload(0x40)\n      dup1\n      swap2\n      sub\n      swap1\n      revert\n    tag_405:\n        /* \"contracts/SyCrowBarter.sol\":6928:6945  uint256 outAmount */\n      0x00\n        /* \"contracts/SyCrowBarter.sol\":6948:6975  getTradeOutAmount(inAmount) */\n      tag_408\n        /* \"contracts/SyCrowBarter.sol\":6966:6974  inAmount */\n      dup3\n        /* \"contracts/SyCrowBarter.sol\":6948:6965  getTradeOutAmount */\n      tag_93\n        /* \"contracts/SyCrowBarter.sol\":6948:6975  getTradeOutAmount(inAmount) */\n      jump\t// in\n    tag_408:\n        /* \"contracts/SyCrowBarter.sol\":6928:6975  uint256 outAmount = getTradeOutAmount(inAmount) */\n      swap1\n      pop\n        /* \"contracts/SyCrowBarter.sol\":6986:6997  IWETH _weth */\n      0x00\n        /* \"contracts/SyCrowBarter.sol\":7006:7010  WETH */\n      0x02\n      0x01\n      swap1\n      sload\n      swap1\n      0x0100\n      exp\n      swap1\n      div\n      0xffffffffffffffffffffffffffffffffffffffff\n      and\n        /* \"contracts/SyCrowBarter.sol\":6986:7011  IWETH _weth = IWETH(WETH) */\n      swap1\n      pop\n        /* \"contracts/SyCrowBarter.sol\":7077:7086  outAmount */\n      dup2\n        /* \"contracts/SyCrowBarter.sol\":7043:7048  _weth */\n      dup2\n        /* \"contracts/SyCrowBarter.sol\":7043:7058  _weth.balanceOf */\n      0xffffffffffffffffffffffffffffffffffffffff\n      and\n      0x70a08231\n        /* \"contracts/SyCrowBarter.sol\":7067:7071  this */\n      address\n        /* \"contracts/SyCrowBarter.sol\":7043:7073  _weth.balanceOf(address(this)) */\n      mload(0x40)\n      dup3\n      0xffffffff\n      and\n      0xe0\n      shl\n      dup2\n      mstore\n      0x04\n      add\n      tag_409\n      swap2\n      swap1\n      tag_72\n      jump\t// in\n    tag_409:\n      0x20\n      mload(0x40)\n      dup1\n      dup4\n      sub\n      dup2\n      dup7\n      gas\n      staticcall\n      iszero\n      dup1\n      iszero\n      tag_411\n      jumpi\n      returndatasize\n      0x00\n      dup1\n      returndatacopy\n      revert(0x00, returndatasize)\n    tag_411:\n      pop\n      pop\n      pop\n      pop\n      mload(0x40)\n      returndatasize\n      not(0x1f)\n      0x1f\n      dup3\n      add\n      and\n      dup3\n      add\n      dup1\n      0x40\n      mstore\n      pop\n      dup2\n      add\n      swap1\n      tag_412\n      swap2\n      swap1\n      tag_184\n      jump\t// in\n    tag_412:\n        /* \"contracts/SyCrowBarter.sol\":7043:7086  _weth.balanceOf(address(this)) >= outAmount */\n      lt\n      iszero\n        /* \"contracts/SyCrowBarter.sol\":7022:7155  require(... */\n      tag_413\n      jumpi\n      mload(0x40)\n      0x08c379a000000000000000000000000000000000000000000000000000000000\n      dup2\n      mstore\n      0x04\n      add\n      tag_414\n      swap1\n      tag_415\n      jump\t// in\n    tag_414:\n      mload(0x40)\n      dup1\n      swap2\n      sub\n      swap1\n      revert\n    tag_413:\n        /* \"contracts/SyCrowBarter.sol\":7172:7176  WETH */\n      0x02\n      0x01\n      swap1\n      sload\n      swap1\n      0x0100\n      exp\n      swap1\n      div\n      0xffffffffffffffffffffffffffffffffffffffff\n      and\n        /* \"contracts/SyCrowBarter.sol\":7166:7186  IWETH(WETH).withdraw */\n      0xffffffffffffffffffffffffffffffffffffffff\n      and\n      0x2e1a7d4d\n        /* \"contracts/SyCrowBarter.sol\":7187:7196  outAmount */\n      dup4\n        /* \"contracts/SyCrowBarter.sol\":7166:7197  IWETH(WETH).withdraw(outAmount) */\n      mload(0x40)\n      dup3\n      0xffffffff\n      and\n      0xe0\n      shl\n      dup2\n      mstore\n      0x04\n      add\n      tag_416\n      swap2\n      swap1\n      tag_50\n      jump\t// in\n    tag_416:\n      0x00\n      mload(0x40)\n      dup1\n      dup4\n      sub\n      dup2\n      0x00\n      dup8\n      dup1\n      extcodesize\n      iszero\n      dup1\n      iszero\n      tag_417\n      jumpi\n      0x00\n      dup1\n      revert\n    tag_417:\n      pop\n      gas\n      call\n      iszero\n      dup1\n      iszero\n      tag_419\n      jumpi\n      returndatasize\n      0x00\n      dup1\n      returndatacopy\n      revert(0x00, returndatasize)\n    tag_419:\n      pop\n      pop\n      pop\n      pop\n        /* \"contracts/SyCrowBarter.sol\":7208:7357  TransferHelper.safeTransferFrom(... */\n      tag_420\n        /* \"contracts/SyCrowBarter.sol\":7253:7274  _expectedTokenAddress */\n      0x05\n      0x00\n      swap1\n      sload\n      swap1\n      0x0100\n      exp\n      swap1\n      div\n      0xffffffffffffffffffffffffffffffffffffffff\n      and\n        /* \"contracts/SyCrowBarter.sol\":7288:7298  msg.sender */\n      caller\n        /* \"contracts/SyCrowBarter.sol\":7320:7324  this */\n      address\n        /* \"contracts/SyCrowBarter.sol\":7339:7347  inAmount */\n      dup7\n        /* \"contracts/SyCrowBarter.sol\":7208:7239  TransferHelper.safeTransferFrom */\n      tag_421\n        /* \"contracts/SyCrowBarter.sol\":7208:7357  TransferHelper.safeTransferFrom(... */\n      jump\t// in\n    tag_420:\n        /* \"contracts/SyCrowBarter.sol\":7367:7420  TransferHelper.safeTransferETH(msg.sender, outAmount) */\n      tag_422\n        /* \"contracts/SyCrowBarter.sol\":7398:7408  msg.sender */\n      caller\n        /* \"contracts/SyCrowBarter.sol\":7410:7419  outAmount */\n      dup4\n        /* \"contracts/SyCrowBarter.sol\":7367:7397  TransferHelper.safeTransferETH */\n      tag_191\n        /* \"contracts/SyCrowBarter.sol\":7367:7420  TransferHelper.safeTransferETH(msg.sender, outAmount) */\n      jump\t// in\n    tag_422:\n        /* \"contracts/SyCrowBarter.sol\":7431:7438  _trades */\n      0x09\n        /* \"contracts/SyCrowBarter.sol\":7444:7487  BaterTrade(msg.sender, inAmount, outAmount) */\n      mload(0x40)\n      dup1\n      0x60\n      add\n      0x40\n      mstore\n      dup1\n        /* \"contracts/SyCrowBarter.sol\":7455:7465  msg.sender */\n      caller\n        /* \"contracts/SyCrowBarter.sol\":7444:7487  BaterTrade(msg.sender, inAmount, outAmount) */\n      0xffffffffffffffffffffffffffffffffffffffff\n      and\n      dup2\n      mstore\n      0x20\n      add\n        /* \"contracts/SyCrowBarter.sol\":7467:7475  inAmount */\n      dup6\n        /* \"contracts/SyCrowBarter.sol\":7444:7487  BaterTrade(msg.sender, inAmount, outAmount) */\n      dup2\n      mstore\n      0x20\n      add\n        /* \"contracts/SyCrowBarter.sol\":7477:7486  outAmount */\n      dup5\n        /* \"contracts/SyCrowBarter.sol\":7444:7487  BaterTrade(msg.sender, inAmount, outAmount) */\n      dup2\n      mstore\n      pop\n        /* \"contracts/SyCrowBarter.sol\":7431:7488  _trades.push(BaterTrade(msg.sender, inAmount, outAmount)) */\n      swap1\n      dup1\n      0x01\n      dup2\n      sload\n      add\n      dup1\n      dup3\n      sstore\n      dup1\n      swap2\n      pop\n      pop\n      0x01\n      swap1\n      sub\n      swap1\n      0x00\n      mstore\n      keccak256(0x00, 0x20)\n      swap1\n      0x03\n      mul\n      add\n      0x00\n      swap1\n      swap2\n      swap1\n      swap2\n      swap1\n      swap2\n      pop\n      0x00\n      dup3\n      add\n      mload\n      dup2\n      0x00\n      add\n      exp(0x0100, 0x00)\n      dup2\n      sload\n      dup2\n      0xffffffffffffffffffffffffffffffffffffffff\n      mul\n      not\n      and\n      swap1\n      dup4\n      0xffffffffffffffffffffffffffffffffffffffff\n      and\n      mul\n      or\n      swap1\n      sstore\n      pop\n      0x20\n      dup3\n      add\n      mload\n      dup2\n      0x01\n      add\n      sstore\n      0x40\n      dup3\n      add\n      mload\n      dup2\n      0x02\n      add\n      sstore\n      pop\n      pop\n        /* \"contracts/SyCrowBarter.sol\":7499:7531  ISyCrowBarterFactory sycrFactory */\n      0x00\n        /* \"contracts/SyCrowBarter.sol\":7555:7562  factory */\n      immutable(\"0x26a975632f70533c9512e57b565b8ce8e2befee6b08dfbc27c4a897a20e2c1d6\")\n        /* \"contracts/SyCrowBarter.sol\":7499:7563  ISyCrowBarterFactory sycrFactory = ISyCrowBarterFactory(factory) */\n      swap1\n      pop\n        /* \"contracts/SyCrowBarter.sol\":7573:7584  sycrFactory */\n      dup1\n        /* \"contracts/SyCrowBarter.sol\":7573:7604  sycrFactory.notifyTradeByBarter */\n      0xffffffffffffffffffffffffffffffffffffffff\n      and\n      0xf52701b7\n        /* \"contracts/SyCrowBarter.sol\":7626:7630  this */\n      address\n        /* \"contracts/SyCrowBarter.sol\":7645:7655  msg.sender */\n      caller\n        /* \"contracts/SyCrowBarter.sol\":7669:7677  inAmount */\n      dup8\n        /* \"contracts/SyCrowBarter.sol\":7691:7700  outAmount */\n      dup8\n        /* \"contracts/SyCrowBarter.sol\":7573:7710  sycrFactory.notifyTradeByBarter(... */\n      mload(0x40)\n      dup6\n      0xffffffff\n      and\n      0xe0\n      shl\n      dup2\n      mstore\n      0x04\n      add\n      tag_424\n      swap5\n      swap4\n      swap3\n      swap2\n      swap1\n      tag_218\n      jump\t// in\n    tag_424:\n      0x00\n      mload(0x40)\n      dup1\n      dup4\n      sub\n      dup2\n      0x00\n      dup8\n      dup1\n      extcodesize\n      iszero\n      dup1\n      iszero\n      tag_425\n      jumpi\n      0x00\n      dup1\n      revert\n    tag_425:\n      pop\n      gas\n      call\n      iszero\n      dup1\n      iszero\n      tag_427\n      jumpi\n      returndatasize\n      0x00\n      dup1\n      returndatacopy\n      revert(0x00, returndatasize)\n    tag_427:\n      pop\n      pop\n      pop\n      pop\n        /* \"contracts/SyCrowBarter.sol\":6763:7717  {... */\n      pop\n      pop\n      pop\n        /* \"contracts/SyCrowBarter.sol\":6709:7717  function _tradeTokenForEth(uint256 inAmount) internal {... */\n      pop\n      jump\t// out\n        /* \"contracts/SyCrowBarter.sol\":5663:6703  function _tradeTokenForToken(uint256 inAmount) internal {... */\n    tag_163:\n        /* \"contracts/SyCrowBarter.sol\":5805:5813  inAmount */\n      dup1\n        /* \"contracts/SyCrowBarter.sol\":5757:5778  _expectedTokenAddress */\n      0x05\n      0x00\n      swap1\n      sload\n      swap1\n      0x0100\n      exp\n      swap1\n      div\n      0xffffffffffffffffffffffffffffffffffffffff\n      and\n        /* \"contracts/SyCrowBarter.sol\":5750:5789  IERC20(_expectedTokenAddress).balanceOf */\n      0xffffffffffffffffffffffffffffffffffffffff\n      and\n      0x70a08231\n        /* \"contracts/SyCrowBarter.sol\":5790:5800  msg.sender */\n      caller\n        /* \"contracts/SyCrowBarter.sol\":5750:5801  IERC20(_expectedTokenAddress).balanceOf(msg.sender) */\n      mload(0x40)\n      dup3\n      0xffffffff\n      and\n      0xe0\n      shl\n      dup2\n      mstore\n      0x04\n      add\n      tag_429\n      swap2\n      swap1\n      tag_72\n      jump\t// in\n    tag_429:\n      0x20\n      mload(0x40)\n      dup1\n      dup4\n      sub\n      dup2\n      dup7\n      gas\n      staticcall\n      iszero\n      dup1\n      iszero\n      tag_431\n      jumpi\n      returndatasize\n      0x00\n      dup1\n      returndatacopy\n      revert(0x00, returndatasize)\n    tag_431:\n      pop\n      pop\n      pop\n      pop\n      mload(0x40)\n      returndatasize\n      not(0x1f)\n      0x1f\n      dup3\n      add\n      and\n      dup3\n      add\n      dup1\n      0x40\n      mstore\n      pop\n      dup2\n      add\n      swap1\n      tag_432\n      swap2\n      swap1\n      tag_184\n      jump\t// in\n    tag_432:\n        /* \"contracts/SyCrowBarter.sol\":5750:5813  IERC20(_expectedTokenAddress).balanceOf(msg.sender) >= inAmount */\n      lt\n      iszero\n        /* \"contracts/SyCrowBarter.sol\":5729:5873  require(... */\n      tag_433\n      jumpi\n      mload(0x40)\n      0x08c379a000000000000000000000000000000000000000000000000000000000\n      dup2\n      mstore\n      0x04\n      add\n      tag_434\n      swap1\n      tag_407\n      jump\t// in\n    tag_434:\n      mload(0x40)\n      dup1\n      swap2\n      sub\n      swap1\n      revert\n    tag_433:\n        /* \"contracts/SyCrowBarter.sol\":5884:5901  uint256 outAmount */\n      0x00\n        /* \"contracts/SyCrowBarter.sol\":5904:5931  getTradeOutAmount(inAmount) */\n      tag_435\n        /* \"contracts/SyCrowBarter.sol\":5922:5930  inAmount */\n      dup3\n        /* \"contracts/SyCrowBarter.sol\":5904:5921  getTradeOutAmount */\n      tag_93\n        /* \"contracts/SyCrowBarter.sol\":5904:5931  getTradeOutAmount(inAmount) */\n      jump\t// in\n    tag_435:\n        /* \"contracts/SyCrowBarter.sol\":5884:5931  uint256 outAmount = getTradeOutAmount(inAmount) */\n      swap1\n      pop\n        /* \"contracts/SyCrowBarter.sol\":6038:6047  outAmount */\n      dup1\n        /* \"contracts/SyCrowBarter.sol\":5970:5992  _depositedTokenAddress */\n      0x04\n      0x01\n      swap1\n      sload\n      swap1\n      0x0100\n      exp\n      swap1\n      div\n      0xffffffffffffffffffffffffffffffffffffffff\n      and\n        /* \"contracts/SyCrowBarter.sol\":5963:6003  IERC20(_depositedTokenAddress).balanceOf */\n      0xffffffffffffffffffffffffffffffffffffffff\n      and\n      0x70a08231\n        /* \"contracts/SyCrowBarter.sol\":6012:6016  this */\n      address\n        /* \"contracts/SyCrowBarter.sol\":5963:6018  IERC20(_depositedTokenAddress).balanceOf(address(this)) */\n      mload(0x40)\n      dup3\n      0xffffffff\n      and\n      0xe0\n      shl\n      dup2\n      mstore\n      0x04\n      add\n      tag_436\n      swap2\n      swap1\n      tag_72\n      jump\t// in\n    tag_436:\n      0x20\n      mload(0x40)\n      dup1\n      dup4\n      sub\n      dup2\n      dup7\n      gas\n      staticcall\n      iszero\n      dup1\n      iszero\n      tag_438\n      jumpi\n      returndatasize\n      0x00\n      dup1\n      returndatacopy\n      revert(0x00, returndatasize)\n    tag_438:\n      pop\n      pop\n      pop\n      pop\n      mload(0x40)\n      returndatasize\n      not(0x1f)\n      0x1f\n      dup3\n      add\n      and\n      dup3\n      add\n      dup1\n      0x40\n      mstore\n      pop\n      dup2\n      add\n      swap1\n      tag_439\n      swap2\n      swap1\n      tag_184\n      jump\t// in\n    tag_439:\n        /* \"contracts/SyCrowBarter.sol\":5963:6047  IERC20(_depositedTokenAddress).balanceOf(address(this)) >=... */\n      lt\n      iszero\n        /* \"contracts/SyCrowBarter.sol\":5942:6116  require(... */\n      tag_440\n      jumpi\n      mload(0x40)\n      0x08c379a000000000000000000000000000000000000000000000000000000000\n      dup2\n      mstore\n      0x04\n      add\n      tag_441\n      swap1\n      tag_415\n      jump\t// in\n    tag_441:\n      mload(0x40)\n      dup1\n      swap2\n      sub\n      swap1\n      revert\n    tag_440:\n        /* \"contracts/SyCrowBarter.sol\":6127:6276  TransferHelper.safeTransferFrom(... */\n      tag_442\n        /* \"contracts/SyCrowBarter.sol\":6172:6193  _expectedTokenAddress */\n      0x05\n      0x00\n      swap1\n      sload\n      swap1\n      0x0100\n      exp\n      swap1\n      div\n      0xffffffffffffffffffffffffffffffffffffffff\n      and\n        /* \"contracts/SyCrowBarter.sol\":6207:6217  msg.sender */\n      caller\n        /* \"contracts/SyCrowBarter.sol\":6239:6243  this */\n      address\n        /* \"contracts/SyCrowBarter.sol\":6258:6266  inAmount */\n      dup6\n        /* \"contracts/SyCrowBarter.sol\":6127:6158  TransferHelper.safeTransferFrom */\n      tag_421\n        /* \"contracts/SyCrowBarter.sol\":6127:6276  TransferHelper.safeTransferFrom(... */\n      jump\t// in\n    tag_442:\n        /* \"contracts/SyCrowBarter.sol\":6286:6406  TransferHelper.safeTransfer(... */\n      tag_443\n        /* \"contracts/SyCrowBarter.sol\":6327:6349  _depositedTokenAddress */\n      0x04\n      0x01\n      swap1\n      sload\n      swap1\n      0x0100\n      exp\n      swap1\n      div\n      0xffffffffffffffffffffffffffffffffffffffff\n      and\n        /* \"contracts/SyCrowBarter.sol\":6363:6373  msg.sender */\n      caller\n        /* \"contracts/SyCrowBarter.sol\":6387:6396  outAmount */\n      dup4\n        /* \"contracts/SyCrowBarter.sol\":6286:6313  TransferHelper.safeTransfer */\n      tag_198\n        /* \"contracts/SyCrowBarter.sol\":6286:6406  TransferHelper.safeTransfer(... */\n      jump\t// in\n    tag_443:\n        /* \"contracts/SyCrowBarter.sol\":6417:6424  _trades */\n      0x09\n        /* \"contracts/SyCrowBarter.sol\":6430:6473  BaterTrade(msg.sender, inAmount, outAmount) */\n      mload(0x40)\n      dup1\n      0x60\n      add\n      0x40\n      mstore\n      dup1\n        /* \"contracts/SyCrowBarter.sol\":6441:6451  msg.sender */\n      caller\n        /* \"contracts/SyCrowBarter.sol\":6430:6473  BaterTrade(msg.sender, inAmount, outAmount) */\n      0xffffffffffffffffffffffffffffffffffffffff\n      and\n      dup2\n      mstore\n      0x20\n      add\n        /* \"contracts/SyCrowBarter.sol\":6453:6461  inAmount */\n      dup5\n        /* \"contracts/SyCrowBarter.sol\":6430:6473  BaterTrade(msg.sender, inAmount, outAmount) */\n      dup2\n      mstore\n      0x20\n      add\n        /* \"contracts/SyCrowBarter.sol\":6463:6472  outAmount */\n      dup4\n        /* \"contracts/SyCrowBarter.sol\":6430:6473  BaterTrade(msg.sender, inAmount, outAmount) */\n      dup2\n      mstore\n      pop\n        /* \"contracts/SyCrowBarter.sol\":6417:6474  _trades.push(BaterTrade(msg.sender, inAmount, outAmount)) */\n      swap1\n      dup1\n      0x01\n      dup2\n      sload\n      add\n      dup1\n      dup3\n      sstore\n      dup1\n      swap2\n      pop\n      pop\n      0x01\n      swap1\n      sub\n      swap1\n      0x00\n      mstore\n      keccak256(0x00, 0x20)\n      swap1\n      0x03\n      mul\n      add\n      0x00\n      swap1\n      swap2\n      swap1\n      swap2\n      swap1\n      swap2\n      pop\n      0x00\n      dup3\n      add\n      mload\n      dup2\n      0x00\n      add\n      exp(0x0100, 0x00)\n      dup2\n      sload\n      dup2\n      0xffffffffffffffffffffffffffffffffffffffff\n      mul\n      not\n      and\n      swap1\n      dup4\n      0xffffffffffffffffffffffffffffffffffffffff\n      and\n      mul\n      or\n      swap1\n      sstore\n      pop\n      0x20\n      dup3\n      add\n      mload\n      dup2\n      0x01\n      add\n      sstore\n      0x40\n      dup3\n      add\n      mload\n      dup2\n      0x02\n      add\n      sstore\n      pop\n      pop\n        /* \"contracts/SyCrowBarter.sol\":6485:6517  ISyCrowBarterFactory sycrFactory */\n      0x00\n        /* \"contracts/SyCrowBarter.sol\":6541:6548  factory */\n      immutable(\"0x26a975632f70533c9512e57b565b8ce8e2befee6b08dfbc27c4a897a20e2c1d6\")\n        /* \"contracts/SyCrowBarter.sol\":6485:6549  ISyCrowBarterFactory sycrFactory = ISyCrowBarterFactory(factory) */\n      swap1\n      pop\n        /* \"contracts/SyCrowBarter.sol\":6559:6570  sycrFactory */\n      dup1\n        /* \"contracts/SyCrowBarter.sol\":6559:6590  sycrFactory.notifyTradeByBarter */\n      0xffffffffffffffffffffffffffffffffffffffff\n      and\n      0xf52701b7\n        /* \"contracts/SyCrowBarter.sol\":6612:6616  this */\n      address\n        /* \"contracts/SyCrowBarter.sol\":6631:6641  msg.sender */\n      caller\n        /* \"contracts/SyCrowBarter.sol\":6655:6663  inAmount */\n      dup7\n        /* \"contracts/SyCrowBarter.sol\":6677:6686  outAmount */\n      dup7\n        /* \"contracts/SyCrowBarter.sol\":6559:6696  sycrFactory.notifyTradeByBarter(... */\n      mload(0x40)\n      dup6\n      0xffffffff\n      and\n      0xe0\n      shl\n      dup2\n      mstore\n      0x04\n      add\n      tag_445\n      swap5\n      swap4\n      swap3\n      swap2\n      swap1\n      tag_218\n      jump\t// in\n    tag_445:\n      0x00\n      mload(0x40)\n      dup1\n      dup4\n      sub\n      dup2\n      0x00\n      dup8\n      dup1\n      extcodesize\n      iszero\n      dup1\n      iszero\n      tag_446\n      jumpi\n      0x00\n      dup1\n      revert\n    tag_446:\n      pop\n      gas\n      call\n      iszero\n      dup1\n      iszero\n      tag_448\n      jumpi\n      returndatasize\n      0x00\n      dup1\n      returndatacopy\n      revert(0x00, returndatasize)\n    tag_448:\n      pop\n      pop\n      pop\n      pop\n        /* \"contracts/SyCrowBarter.sol\":5719:6703  {... */\n      pop\n      pop\n        /* \"contracts/SyCrowBarter.sol\":5663:6703  function _tradeTokenForToken(uint256 inAmount) internal {... */\n      pop\n      jump\t// out\n        /* \"@openzeppelin/contracts/utils/Context.sol\":640:736  function _msgSender() internal view virtual returns (address) {... */\n    tag_174:\n        /* \"@openzeppelin/contracts/utils/Context.sol\":693:700  address */\n      0x00\n        /* \"@openzeppelin/contracts/utils/Context.sol\":719:729  msg.sender */\n      caller\n        /* \"@openzeppelin/contracts/utils/Context.sol\":712:729  return msg.sender */\n      swap1\n      pop\n        /* \"@openzeppelin/contracts/utils/Context.sol\":640:736  function _msgSender() internal view virtual returns (address) {... */\n      swap1\n      jump\t// out\n        /* \"contracts/libraries/TransferHelper.sol\":1333:1525  function safeTransferETH(address to, uint value) internal {... */\n    tag_191:\n        /* \"contracts/libraries/TransferHelper.sol\":1402:1414  bool success */\n      0x00\n        /* \"contracts/libraries/TransferHelper.sol\":1419:1421  to */\n      dup3\n        /* \"contracts/libraries/TransferHelper.sol\":1419:1426  to.call */\n      0xffffffffffffffffffffffffffffffffffffffff\n      and\n        /* \"contracts/libraries/TransferHelper.sol\":1433:1438  value */\n      dup3\n        /* \"contracts/libraries/TransferHelper.sol\":1450:1451  0 */\n      0x00\n        /* \"contracts/libraries/TransferHelper.sol\":1440:1452  new bytes(0) */\n      0xffffffffffffffff\n      dup2\n      gt\n      iszero\n      tag_451\n      jumpi\n      tag_452\n      tag_361\n      jump\t// in\n    tag_452:\n    tag_451:\n      mload(0x40)\n      swap1\n      dup1\n      dup3\n      mstore\n      dup1\n      0x1f\n      add\n      not(0x1f)\n      and\n      0x20\n      add\n      dup3\n      add\n      0x40\n      mstore\n      dup1\n      iszero\n      tag_453\n      jumpi\n      dup2\n      0x20\n      add\n      0x01\n      dup3\n      mul\n      dup1\n      calldatasize\n      dup4\n      calldatacopy\n      dup1\n      dup3\n      add\n      swap2\n      pop\n      pop\n      swap1\n      pop\n    tag_453:\n      pop\n        /* \"contracts/libraries/TransferHelper.sol\":1419:1453  to.call{value:value}(new bytes(0)) */\n      mload(0x40)\n      tag_454\n      swap2\n      swap1\n      tag_455\n      jump\t// in\n    tag_454:\n      0x00\n      mload(0x40)\n      dup1\n      dup4\n      sub\n      dup2\n      dup6\n      dup8\n      gas\n      call\n      swap3\n      pop\n      pop\n      pop\n      returndatasize\n      dup1\n      0x00\n      dup2\n      eq\n      tag_458\n      jumpi\n      mload(0x40)\n      swap2\n      pop\n      and(add(returndatasize, 0x3f), not(0x1f))\n      dup3\n      add\n      0x40\n      mstore\n      returndatasize\n      dup3\n      mstore\n      returndatasize\n      0x00\n      0x20\n      dup5\n      add\n      returndatacopy\n      jump(tag_457)\n    tag_458:\n      0x60\n      swap2\n      pop\n    tag_457:\n      pop\n        /* \"contracts/libraries/TransferHelper.sol\":1401:1453  (bool success,) = to.call{value:value}(new bytes(0)) */\n      pop\n      swap1\n      pop\n        /* \"contracts/libraries/TransferHelper.sol\":1471:1478  success */\n      dup1\n        /* \"contracts/libraries/TransferHelper.sol\":1463:1518  require(success, 'TransferHelper: ETH_TRANSFER_FAILED') */\n      tag_459\n      jumpi\n      mload(0x40)\n      0x08c379a000000000000000000000000000000000000000000000000000000000\n      dup2\n      mstore\n      0x04\n      add\n      tag_460\n      swap1\n      tag_461\n      jump\t// in\n    tag_460:\n      mload(0x40)\n      dup1\n      swap2\n      sub\n      swap1\n      revert\n    tag_459:\n        /* \"contracts/libraries/TransferHelper.sol\":1391:1525  {... */\n      pop\n        /* \"contracts/libraries/TransferHelper.sol\":1333:1525  function safeTransferETH(address to, uint value) internal {... */\n      pop\n      pop\n      jump\t// out\n        /* \"contracts/libraries/TransferHelper.sol\":566:923  function safeTransfer(address token, address to, uint value) internal {... */\n    tag_198:\n        /* \"contracts/libraries/TransferHelper.sol\":713:725  bool success */\n      0x00\n        /* \"contracts/libraries/TransferHelper.sol\":727:744  bytes memory data */\n      dup1\n        /* \"contracts/libraries/TransferHelper.sol\":748:753  token */\n      dup5\n        /* \"contracts/libraries/TransferHelper.sol\":748:758  token.call */\n      0xffffffffffffffffffffffffffffffffffffffff\n      and\n        /* \"contracts/libraries/TransferHelper.sol\":782:792  0xa9059cbb */\n      0xa9059cbb\n        /* \"contracts/libraries/TransferHelper.sol\":794:796  to */\n      dup6\n        /* \"contracts/libraries/TransferHelper.sol\":798:803  value */\n      dup6\n        /* \"contracts/libraries/TransferHelper.sol\":759:804  abi.encodeWithSelector(0xa9059cbb, to, value) */\n      add(0x24, mload(0x40))\n      tag_463\n      swap3\n      swap2\n      swap1\n      tag_464\n      jump\t// in\n    tag_463:\n      mload(0x40)\n      0x20\n      dup2\n      dup4\n      sub\n      sub\n      dup2\n      mstore\n      swap1\n      0x40\n      mstore\n      swap1\n      0xe0\n      shl\n      0x20\n      dup3\n      add\n      dup1\n      mload\n      0xffffffffffffffffffffffffffffffffffffffffffffffffffffffff\n      dup4\n      dup2\n      dup4\n      and\n      or\n      dup4\n      mstore\n      pop\n      pop\n      pop\n      pop\n        /* \"contracts/libraries/TransferHelper.sol\":748:805  token.call(abi.encodeWithSelector(0xa9059cbb, to, value)) */\n      mload(0x40)\n      tag_465\n      swap2\n      swap1\n      tag_455\n      jump\t// in\n    tag_465:\n      0x00\n      mload(0x40)\n      dup1\n      dup4\n      sub\n      dup2\n      0x00\n      dup7\n      gas\n      call\n      swap2\n      pop\n      pop\n      returndatasize\n      dup1\n      0x00\n      dup2\n      eq\n      tag_468\n      jumpi\n      mload(0x40)\n      swap2\n      pop\n      and(add(returndatasize, 0x3f), not(0x1f))\n      dup3\n      add\n      0x40\n      mstore\n      returndatasize\n      dup3\n      mstore\n      returndatasize\n      0x00\n      0x20\n      dup5\n      add\n      returndatacopy\n      jump(tag_467)\n    tag_468:\n      0x60\n      swap2\n      pop\n    tag_467:\n      pop\n        /* \"contracts/libraries/TransferHelper.sol\":712:805  (bool success, bytes memory data) = token.call(abi.encodeWithSelector(0xa9059cbb, to, value)) */\n      swap2\n      pop\n      swap2\n      pop\n        /* \"contracts/libraries/TransferHelper.sol\":823:830  success */\n      dup2\n        /* \"contracts/libraries/TransferHelper.sol\":823:880  success && (data.length == 0 || abi.decode(data, (bool))) */\n      dup1\n      iszero\n      tag_469\n      jumpi\n      pop\n        /* \"contracts/libraries/TransferHelper.sol\":850:851  0 */\n      0x00\n        /* \"contracts/libraries/TransferHelper.sol\":835:839  data */\n      dup2\n        /* \"contracts/libraries/TransferHelper.sol\":835:846  data.length */\n      mload\n        /* \"contracts/libraries/TransferHelper.sol\":835:851  data.length == 0 */\n      eq\n        /* \"contracts/libraries/TransferHelper.sol\":835:879  data.length == 0 || abi.decode(data, (bool)) */\n      dup1\n      tag_470\n      jumpi\n      pop\n        /* \"contracts/libraries/TransferHelper.sol\":866:870  data */\n      dup1\n        /* \"contracts/libraries/TransferHelper.sol\":855:879  abi.decode(data, (bool)) */\n      dup1\n      0x20\n      add\n      swap1\n      mload\n      dup2\n      add\n      swap1\n      tag_471\n      swap2\n      swap1\n      tag_118\n      jump\t// in\n    tag_471:\n        /* \"contracts/libraries/TransferHelper.sol\":835:879  data.length == 0 || abi.decode(data, (bool)) */\n    tag_470:\n        /* \"contracts/libraries/TransferHelper.sol\":823:880  success && (data.length == 0 || abi.decode(data, (bool))) */\n    tag_469:\n        /* \"contracts/libraries/TransferHelper.sol\":815:916  require(success && (data.length == 0 || abi.decode(data, (bool))), 'TransferHelper: TRANSFER_FAILED') */\n      tag_472\n      jumpi\n      mload(0x40)\n      0x08c379a000000000000000000000000000000000000000000000000000000000\n      dup2\n      mstore\n      0x04\n      add\n      tag_473\n      swap1\n      tag_474\n      jump\t// in\n    tag_473:\n      mload(0x40)\n      dup1\n      swap2\n      sub\n      swap1\n      revert\n    tag_472:\n        /* \"contracts/libraries/TransferHelper.sol\":636:923  {... */\n      pop\n      pop\n        /* \"contracts/libraries/TransferHelper.sol\":566:923  function safeTransfer(address token, address to, uint value) internal {... */\n      pop\n      pop\n      pop\n      jump\t// out\n        /* \"contracts/SyCrowBarter.sol\":7723:8578  function _tradeEthForToken(uint256 inAmount) internal {... */\n    tag_251:\n        /* \"contracts/SyCrowBarter.sol\":7807:7816  msg.value */\n      callvalue\n        /* \"contracts/SyCrowBarter.sol\":7795:7803  inAmount */\n      dup2\n        /* \"contracts/SyCrowBarter.sol\":7795:7816  inAmount == msg.value */\n      eq\n        /* \"contracts/SyCrowBarter.sol\":7787:7858  require(inAmount == msg.value, \"SyCrowBarter: MULTI_TRADE_NOT_ENABLED\") */\n      tag_476\n      jumpi\n      mload(0x40)\n      0x08c379a000000000000000000000000000000000000000000000000000000000\n      dup2\n      mstore\n      0x04\n      add\n      tag_477\n      swap1\n      tag_125\n      jump\t// in\n    tag_477:\n      mload(0x40)\n      dup1\n      swap2\n      sub\n      swap1\n      revert\n    tag_476:\n        /* \"contracts/SyCrowBarter.sol\":7869:7886  uint256 outAmount */\n      0x00\n        /* \"contracts/SyCrowBarter.sol\":7889:7916  getTradeOutAmount(inAmount) */\n      tag_478\n        /* \"contracts/SyCrowBarter.sol\":7907:7915  inAmount */\n      dup3\n        /* \"contracts/SyCrowBarter.sol\":7889:7906  getTradeOutAmount */\n      tag_93\n        /* \"contracts/SyCrowBarter.sol\":7889:7916  getTradeOutAmount(inAmount) */\n      jump\t// in\n    tag_478:\n        /* \"contracts/SyCrowBarter.sol\":7869:7916  uint256 outAmount = getTradeOutAmount(inAmount) */\n      swap1\n      pop\n        /* \"contracts/SyCrowBarter.sol\":8023:8032  outAmount */\n      dup1\n        /* \"contracts/SyCrowBarter.sol\":7955:7977  _depositedTokenAddress */\n      0x04\n      0x01\n      swap1\n      sload\n      swap1\n      0x0100\n      exp\n      swap1\n      div\n      0xffffffffffffffffffffffffffffffffffffffff\n      and\n        /* \"contracts/SyCrowBarter.sol\":7948:7988  IERC20(_depositedTokenAddress).balanceOf */\n      0xffffffffffffffffffffffffffffffffffffffff\n      and\n      0x70a08231\n        /* \"contracts/SyCrowBarter.sol\":7997:8001  this */\n      address\n        /* \"contracts/SyCrowBarter.sol\":7948:8003  IERC20(_depositedTokenAddress).balanceOf(address(this)) */\n      mload(0x40)\n      dup3\n      0xffffffff\n      and\n      0xe0\n      shl\n      dup2\n      mstore\n      0x04\n      add\n      tag_479\n      swap2\n      swap1\n      tag_72\n      jump\t// in\n    tag_479:\n      0x20\n      mload(0x40)\n      dup1\n      dup4\n      sub\n      dup2\n      dup7\n      gas\n      staticcall\n      iszero\n      dup1\n      iszero\n      tag_481\n      jumpi\n      returndatasize\n      0x00\n      dup1\n      returndatacopy\n      revert(0x00, returndatasize)\n    tag_481:\n      pop\n      pop\n      pop\n      pop\n      mload(0x40)\n      returndatasize\n      not(0x1f)\n      0x1f\n      dup3\n      add\n      and\n      dup3\n      add\n      dup1\n      0x40\n      mstore\n      pop\n      dup2\n      add\n      swap1\n      tag_482\n      swap2\n      swap1\n      tag_184\n      jump\t// in\n    tag_482:\n        /* \"contracts/SyCrowBarter.sol\":7948:8032  IERC20(_depositedTokenAddress).balanceOf(address(this)) >=... */\n      lt\n      iszero\n        /* \"contracts/SyCrowBarter.sol\":7927:8101  require(... */\n      tag_483\n      jumpi\n      mload(0x40)\n      0x08c379a000000000000000000000000000000000000000000000000000000000\n      dup2\n      mstore\n      0x04\n      add\n      tag_484\n      swap1\n      tag_415\n      jump\t// in\n    tag_484:\n      mload(0x40)\n      dup1\n      swap2\n      sub\n      swap1\n      revert\n    tag_483:\n        /* \"contracts/SyCrowBarter.sol\":8118:8122  WETH */\n      0x02\n      0x01\n      swap1\n      sload\n      swap1\n      0x0100\n      exp\n      swap1\n      div\n      0xffffffffffffffffffffffffffffffffffffffff\n      and\n        /* \"contracts/SyCrowBarter.sol\":8112:8131  IWETH(WETH).deposit */\n      0xffffffffffffffffffffffffffffffffffffffff\n      and\n      0xd0e30db0\n        /* \"contracts/SyCrowBarter.sol\":8139:8147  inAmount */\n      dup4\n        /* \"contracts/SyCrowBarter.sol\":8112:8150  IWETH(WETH).deposit{value: inAmount}() */\n      mload(0x40)\n      dup3\n      0xffffffff\n      and\n      0xe0\n      shl\n      dup2\n      mstore\n      0x04\n      add\n      0x00\n      mload(0x40)\n      dup1\n      dup4\n      sub\n      dup2\n      dup6\n      dup9\n      dup1\n      extcodesize\n      iszero\n      dup1\n      iszero\n      tag_485\n      jumpi\n      0x00\n      dup1\n      revert\n    tag_485:\n      pop\n      gas\n      call\n      iszero\n      dup1\n      iszero\n      tag_487\n      jumpi\n      returndatasize\n      0x00\n      dup1\n      returndatacopy\n      revert(0x00, returndatasize)\n    tag_487:\n      pop\n      pop\n      pop\n      pop\n      pop\n        /* \"contracts/SyCrowBarter.sol\":8161:8281  TransferHelper.safeTransfer(... */\n      tag_488\n        /* \"contracts/SyCrowBarter.sol\":8202:8224  _depositedTokenAddress */\n      0x04\n      0x01\n      swap1\n      sload\n      swap1\n      0x0100\n      exp\n      swap1\n      div\n      0xffffffffffffffffffffffffffffffffffffffff\n      and\n        /* \"contracts/SyCrowBarter.sol\":8238:8248  msg.sender */\n      caller\n        /* \"contracts/SyCrowBarter.sol\":8262:8271  outAmount */\n      dup4\n        /* \"contracts/SyCrowBarter.sol\":8161:8188  TransferHelper.safeTransfer */\n      tag_198\n        /* \"contracts/SyCrowBarter.sol\":8161:8281  TransferHelper.safeTransfer(... */\n      jump\t// in\n    tag_488:\n        /* \"contracts/SyCrowBarter.sol\":8292:8299  _trades */\n      0x09\n        /* \"contracts/SyCrowBarter.sol\":8305:8348  BaterTrade(msg.sender, inAmount, outAmount) */\n      mload(0x40)\n      dup1\n      0x60\n      add\n      0x40\n      mstore\n      dup1\n        /* \"contracts/SyCrowBarter.sol\":8316:8326  msg.sender */\n      caller\n        /* \"contracts/SyCrowBarter.sol\":8305:8348  BaterTrade(msg.sender, inAmount, outAmount) */\n      0xffffffffffffffffffffffffffffffffffffffff\n      and\n      dup2\n      mstore\n      0x20\n      add\n        /* \"contracts/SyCrowBarter.sol\":8328:8336  inAmount */\n      dup5\n        /* \"contracts/SyCrowBarter.sol\":8305:8348  BaterTrade(msg.sender, inAmount, outAmount) */\n      dup2\n      mstore\n      0x20\n      add\n        /* \"contracts/SyCrowBarter.sol\":8338:8347  outAmount */\n      dup4\n        /* \"contracts/SyCrowBarter.sol\":8305:8348  BaterTrade(msg.sender, inAmount, outAmount) */\n      dup2\n      mstore\n      pop\n        /* \"contracts/SyCrowBarter.sol\":8292:8349  _trades.push(BaterTrade(msg.sender, inAmount, outAmount)) */\n      swap1\n      dup1\n      0x01\n      dup2\n      sload\n      add\n      dup1\n      dup3\n      sstore\n      dup1\n      swap2\n      pop\n      pop\n      0x01\n      swap1\n      sub\n      swap1\n      0x00\n      mstore\n      keccak256(0x00, 0x20)\n      swap1\n      0x03\n      mul\n      add\n      0x00\n      swap1\n      swap2\n      swap1\n      swap2\n      swap1\n      swap2\n      pop\n      0x00\n      dup3\n      add\n      mload\n      dup2\n      0x00\n      add\n      exp(0x0100, 0x00)\n      dup2\n      sload\n      dup2\n      0xffffffffffffffffffffffffffffffffffffffff\n      mul\n      not\n      and\n      swap1\n      dup4\n      0xffffffffffffffffffffffffffffffffffffffff\n      and\n      mul\n      or\n      swap1\n      sstore\n      pop\n      0x20\n      dup3\n      add\n      mload\n      dup2\n      0x01\n      add\n      sstore\n      0x40\n      dup3\n      add\n      mload\n      dup2\n      0x02\n      add\n      sstore\n      pop\n      pop\n        /* \"contracts/SyCrowBarter.sol\":8360:8392  ISyCrowBarterFactory sycrFactory */\n      0x00\n        /* \"contracts/SyCrowBarter.sol\":8416:8423  factory */\n      immutable(\"0x26a975632f70533c9512e57b565b8ce8e2befee6b08dfbc27c4a897a20e2c1d6\")\n        /* \"contracts/SyCrowBarter.sol\":8360:8424  ISyCrowBarterFactory sycrFactory = ISyCrowBarterFactory(factory) */\n      swap1\n      pop\n        /* \"contracts/SyCrowBarter.sol\":8434:8445  sycrFactory */\n      dup1\n        /* \"contracts/SyCrowBarter.sol\":8434:8465  sycrFactory.notifyTradeByBarter */\n      0xffffffffffffffffffffffffffffffffffffffff\n      and\n      0xf52701b7\n        /* \"contracts/SyCrowBarter.sol\":8487:8491  this */\n      address\n        /* \"contracts/SyCrowBarter.sol\":8506:8516  msg.sender */\n      caller\n        /* \"contracts/SyCrowBarter.sol\":8530:8538  inAmount */\n      dup7\n        /* \"contracts/SyCrowBarter.sol\":8552:8561  outAmount */\n      dup7\n        /* \"contracts/SyCrowBarter.sol\":8434:8571  sycrFactory.notifyTradeByBarter(... */\n      mload(0x40)\n      dup6\n      0xffffffff\n      and\n      0xe0\n      shl\n      dup2\n      mstore\n      0x04\n      add\n      tag_490\n      swap5\n      swap4\n      swap3\n      swap2\n      swap1\n      tag_218\n      jump\t// in\n    tag_490:\n      0x00\n      mload(0x40)\n      dup1\n      dup4\n      sub\n      dup2\n      0x00\n      dup8\n      dup1\n      extcodesize\n      iszero\n      dup1\n      iszero\n      tag_491\n      jumpi\n      0x00\n      dup1\n      revert\n    tag_491:\n      pop\n      gas\n      call\n      iszero\n      dup1\n      iszero\n      tag_493\n      jumpi\n      returndatasize\n      0x00\n      dup1\n      returndatacopy\n      revert(0x00, returndatasize)\n    tag_493:\n      pop\n      pop\n      pop\n      pop\n        /* \"contracts/SyCrowBarter.sol\":7777:8578  {... */\n      pop\n      pop\n        /* \"contracts/SyCrowBarter.sol\":7723:8578  function _tradeEthForToken(uint256 inAmount) internal {... */\n      pop\n      jump\t// out\n        /* \"@openzeppelin/contracts/access/Ownable.sol\":2270:2457  function _transferOwnership(address newOwner) internal virtual {... */\n    tag_278:\n        /* \"@openzeppelin/contracts/access/Ownable.sol\":2343:2359  address oldOwner */\n      0x00\n        /* \"@openzeppelin/contracts/access/Ownable.sol\":2362:2368  _owner */\n      dup1\n      0x00\n      swap1\n      sload\n      swap1\n      0x0100\n      exp\n      swap1\n      div\n      0xffffffffffffffffffffffffffffffffffffffff\n      and\n        /* \"@openzeppelin/contracts/access/Ownable.sol\":2343:2368  address oldOwner = _owner */\n      swap1\n      pop\n        /* \"@openzeppelin/contracts/access/Ownable.sol\":2387:2395  newOwner */\n      dup2\n        /* \"@openzeppelin/contracts/access/Ownable.sol\":2378:2384  _owner */\n      0x00\n      dup1\n        /* \"@openzeppelin/contracts/access/Ownable.sol\":2378:2395  _owner = newOwner */\n      0x0100\n      exp\n      dup2\n      sload\n      dup2\n      0xffffffffffffffffffffffffffffffffffffffff\n      mul\n      not\n      and\n      swap1\n      dup4\n      0xffffffffffffffffffffffffffffffffffffffff\n      and\n      mul\n      or\n      swap1\n      sstore\n      pop\n        /* \"@openzeppelin/contracts/access/Ownable.sol\":2441:2449  newOwner */\n      dup2\n        /* \"@openzeppelin/contracts/access/Ownable.sol\":2410:2450  OwnershipTransferred(oldOwner, newOwner) */\n      0xffffffffffffffffffffffffffffffffffffffff\n      and\n        /* \"@openzeppelin/contracts/access/Ownable.sol\":2431:2439  oldOwner */\n      dup2\n        /* \"@openzeppelin/contracts/access/Ownable.sol\":2410:2450  OwnershipTransferred(oldOwner, newOwner) */\n      0xffffffffffffffffffffffffffffffffffffffff\n      and\n      0x8be0079c531659141344cd1fd0a4f28419497f9722a3daafe3b4186f6b6457e0\n      mload(0x40)\n      mload(0x40)\n      dup1\n      swap2\n      sub\n      swap1\n      log3\n        /* \"@openzeppelin/contracts/access/Ownable.sol\":2333:2457  {... */\n      pop\n        /* \"@openzeppelin/contracts/access/Ownable.sol\":2270:2457  function _transferOwnership(address newOwner) internal virtual {... */\n      pop\n      jump\t// out\n        /* \"contracts/libraries/TransferHelper.sol\":929:1327  function safeTransferFrom(address token, address from, address to, uint value) internal {... */\n    tag_421:\n        /* \"contracts/libraries/TransferHelper.sol\":1106:1118  bool success */\n      0x00\n        /* \"contracts/libraries/TransferHelper.sol\":1120:1137  bytes memory data */\n      dup1\n        /* \"contracts/libraries/TransferHelper.sol\":1141:1146  token */\n      dup6\n        /* \"contracts/libraries/TransferHelper.sol\":1141:1151  token.call */\n      0xffffffffffffffffffffffffffffffffffffffff\n      and\n        /* \"contracts/libraries/TransferHelper.sol\":1175:1185  0x23b872dd */\n      0x23b872dd\n        /* \"contracts/libraries/TransferHelper.sol\":1187:1191  from */\n      dup7\n        /* \"contracts/libraries/TransferHelper.sol\":1193:1195  to */\n      dup7\n        /* \"contracts/libraries/TransferHelper.sol\":1197:1202  value */\n      dup7\n        /* \"contracts/libraries/TransferHelper.sol\":1152:1203  abi.encodeWithSelector(0x23b872dd, from, to, value) */\n      add(0x24, mload(0x40))\n      tag_496\n      swap4\n      swap3\n      swap2\n      swap1\n      tag_497\n      jump\t// in\n    tag_496:\n      mload(0x40)\n      0x20\n      dup2\n      dup4\n      sub\n      sub\n      dup2\n      mstore\n      swap1\n      0x40\n      mstore\n      swap1\n      0xe0\n      shl\n      0x20\n      dup3\n      add\n      dup1\n      mload\n      0xffffffffffffffffffffffffffffffffffffffffffffffffffffffff\n      dup4\n      dup2\n      dup4\n      and\n      or\n      dup4\n      mstore\n      pop\n      pop\n      pop\n      pop\n        /* \"contracts/libraries/TransferHelper.sol\":1141:1204  token.call(abi.encodeWithSelector(0x23b872dd, from, to, value)) */\n      mload(0x40)\n      tag_498\n      swap2\n      swap1\n      tag_455\n      jump\t// in\n    tag_498:\n      0x00\n      mload(0x40)\n      dup1\n      dup4\n      sub\n      dup2\n      0x00\n      dup7\n      gas\n      call\n      swap2\n      pop\n      pop\n      returndatasize\n      dup1\n      0x00\n      dup2\n      eq\n      tag_501\n      jumpi\n      mload(0x40)\n      swap2\n      pop\n      and(add(returndatasize, 0x3f), not(0x1f))\n      dup3\n      add\n      0x40\n      mstore\n      returndatasize\n      dup3\n      mstore\n      returndatasize\n      0x00\n      0x20\n      dup5\n      add\n      returndatacopy\n      jump(tag_500)\n    tag_501:\n      0x60\n      swap2\n      pop\n    tag_500:\n      pop\n        /* \"contracts/libraries/TransferHelper.sol\":1105:1204  (bool success, bytes memory data) = token.call(abi.encodeWithSelector(0x23b872dd, from, to, value)) */\n      swap2\n      pop\n      swap2\n      pop\n        /* \"contracts/libraries/TransferHelper.sol\":1222:1229  success */\n      dup2\n        /* \"contracts/libraries/TransferHelper.sol\":1222:1279  success && (data.length == 0 || abi.decode(data, (bool))) */\n      dup1\n      iszero\n      tag_502\n      jumpi\n      pop\n        /* \"contracts/libraries/TransferHelper.sol\":1249:1250  0 */\n      0x00\n        /* \"contracts/libraries/TransferHelper.sol\":1234:1238  data */\n      dup2\n        /* \"contracts/libraries/TransferHelper.sol\":1234:1245  data.length */\n      mload\n        /* \"contracts/libraries/TransferHelper.sol\":1234:1250  data.length == 0 */\n      eq\n        /* \"contracts/libraries/TransferHelper.sol\":1234:1278  data.length == 0 || abi.decode(data, (bool)) */\n      dup1\n      tag_503\n      jumpi\n      pop\n        /* \"contracts/libraries/TransferHelper.sol\":1265:1269  data */\n      dup1\n        /* \"contracts/libraries/TransferHelper.sol\":1254:1278  abi.decode(data, (bool)) */\n      dup1\n      0x20\n      add\n      swap1\n      mload\n      dup2\n      add\n      swap1\n      tag_504\n      swap2\n      swap1\n      tag_118\n      jump\t// in\n    tag_504:\n        /* \"contracts/libraries/TransferHelper.sol\":1234:1278  data.length == 0 || abi.decode(data, (bool)) */\n    tag_503:\n        /* \"contracts/libraries/TransferHelper.sol\":1222:1279  success && (data.length == 0 || abi.decode(data, (bool))) */\n    tag_502:\n        /* \"contracts/libraries/TransferHelper.sol\":1214:1320  require(success && (data.length == 0 || abi.decode(data, (bool))), 'TransferHelper: TRANSFER_FROM_FAILED') */\n      tag_505\n      jumpi\n      mload(0x40)\n      0x08c379a000000000000000000000000000000000000000000000000000000000\n      dup2\n      mstore\n      0x04\n      add\n      tag_506\n      swap1\n      tag_507\n      jump\t// in\n    tag_506:\n      mload(0x40)\n      dup1\n      swap2\n      sub\n      swap1\n      revert\n    tag_505:\n        /* \"contracts/libraries/TransferHelper.sol\":1017:1327  {... */\n      pop\n      pop\n        /* \"contracts/libraries/TransferHelper.sol\":929:1327  function safeTransferFrom(address token, address from, address to, uint value) internal {... */\n      pop\n      pop\n      pop\n      pop\n      jump\t// out\n        /* \"#utility.yul\":88:205   */\n    tag_509:\n        /* \"#utility.yul\":197:198   */\n      0x00\n        /* \"#utility.yul\":194:195   */\n      dup1\n        /* \"#utility.yul\":187:199   */\n      revert\n        /* \"#utility.yul\":334:411   */\n    tag_511:\n        /* \"#utility.yul\":371:378   */\n      0x00\n        /* \"#utility.yul\":400:405   */\n      dup2\n        /* \"#utility.yul\":389:405   */\n      swap1\n      pop\n        /* \"#utility.yul\":334:411   */\n      swap2\n      swap1\n      pop\n      jump\t// out\n        /* \"#utility.yul\":417:539   */\n    tag_512:\n        /* \"#utility.yul\":490:514   */\n      tag_593\n        /* \"#utility.yul\":508:513   */\n      dup2\n        /* \"#utility.yul\":490:514   */\n      tag_511\n      jump\t// in\n    tag_593:\n        /* \"#utility.yul\":483:488   */\n      dup2\n        /* \"#utility.yul\":480:515   */\n      eq\n        /* \"#utility.yul\":470:533   */\n      tag_594\n      jumpi\n        /* \"#utility.yul\":529:530   */\n      0x00\n        /* \"#utility.yul\":526:527   */\n      dup1\n        /* \"#utility.yul\":519:531   */\n      revert\n        /* \"#utility.yul\":470:533   */\n    tag_594:\n        /* \"#utility.yul\":417:539   */\n      pop\n      jump\t// out\n        /* \"#utility.yul\":545:684   */\n    tag_513:\n        /* \"#utility.yul\":591:596   */\n      0x00\n        /* \"#utility.yul\":629:635   */\n      dup2\n        /* \"#utility.yul\":616:636   */\n      calldataload\n        /* \"#utility.yul\":607:636   */\n      swap1\n      pop\n        /* \"#utility.yul\":645:678   */\n      tag_596\n        /* \"#utility.yul\":672:677   */\n      dup2\n        /* \"#utility.yul\":645:678   */\n      tag_512\n      jump\t// in\n    tag_596:\n        /* \"#utility.yul\":545:684   */\n      swap3\n      swap2\n      pop\n      pop\n      jump\t// out\n        /* \"#utility.yul\":690:1019   */\n    tag_27:\n        /* \"#utility.yul\":749:755   */\n      0x00\n        /* \"#utility.yul\":798:800   */\n      0x20\n        /* \"#utility.yul\":786:795   */\n      dup3\n        /* \"#utility.yul\":777:784   */\n      dup5\n        /* \"#utility.yul\":773:796   */\n      sub\n        /* \"#utility.yul\":769:801   */\n      slt\n        /* \"#utility.yul\":766:885   */\n      iszero\n      tag_598\n      jumpi\n        /* \"#utility.yul\":804:883   */\n      tag_599\n      tag_509\n      jump\t// in\n    tag_599:\n        /* \"#utility.yul\":766:885   */\n    tag_598:\n        /* \"#utility.yul\":924:925   */\n      0x00\n        /* \"#utility.yul\":949:1002   */\n      tag_600\n        /* \"#utility.yul\":994:1001   */\n      dup5\n        /* \"#utility.yul\":985:991   */\n      dup3\n        /* \"#utility.yul\":974:983   */\n      dup6\n        /* \"#utility.yul\":970:992   */\n      add\n        /* \"#utility.yul\":949:1002   */\n      tag_513\n      jump\t// in\n    tag_600:\n        /* \"#utility.yul\":939:1002   */\n      swap2\n      pop\n        /* \"#utility.yul\":895:1012   */\n      pop\n        /* \"#utility.yul\":690:1019   */\n      swap3\n      swap2\n      pop\n      pop\n      jump\t// out\n        /* \"#utility.yul\":1025:1115   */\n    tag_514:\n        /* \"#utility.yul\":1059:1066   */\n      0x00\n        /* \"#utility.yul\":1102:1107   */\n      dup2\n        /* \"#utility.yul\":1095:1108   */\n      iszero\n        /* \"#utility.yul\":1088:1109   */\n      iszero\n        /* \"#utility.yul\":1077:1109   */\n      swap1\n      pop\n        /* \"#utility.yul\":1025:1115   */\n      swap2\n      swap1\n      pop\n      jump\t// out\n        /* \"#utility.yul\":1121:1230   */\n    tag_515:\n        /* \"#utility.yul\":1202:1223   */\n      tag_603\n        /* \"#utility.yul\":1217:1222   */\n      dup2\n        /* \"#utility.yul\":1202:1223   */\n      tag_514\n      jump\t// in\n    tag_603:\n        /* \"#utility.yul\":1197:1200   */\n      dup3\n        /* \"#utility.yul\":1190:1224   */\n      mstore\n        /* \"#utility.yul\":1121:1230   */\n      pop\n      pop\n      jump\t// out\n        /* \"#utility.yul\":1236:1446   */\n    tag_37:\n        /* \"#utility.yul\":1323:1327   */\n      0x00\n        /* \"#utility.yul\":1361:1363   */\n      0x20\n        /* \"#utility.yul\":1350:1359   */\n      dup3\n        /* \"#utility.yul\":1346:1364   */\n      add\n        /* \"#utility.yul\":1338:1364   */\n      swap1\n      pop\n        /* \"#utility.yul\":1374:1439   */\n      tag_605\n        /* \"#utility.yul\":1436:1437   */\n      0x00\n        /* \"#utility.yul\":1425:1434   */\n      dup4\n        /* \"#utility.yul\":1421:1438   */\n      add\n        /* \"#utility.yul\":1412:1418   */\n      dup5\n        /* \"#utility.yul\":1374:1439   */\n      tag_515\n      jump\t// in\n    tag_605:\n        /* \"#utility.yul\":1236:1446   */\n      swap3\n      swap2\n      pop\n      pop\n      jump\t// out\n        /* \"#utility.yul\":1452:1570   */\n    tag_516:\n        /* \"#utility.yul\":1539:1563   */\n      tag_607\n        /* \"#utility.yul\":1557:1562   */\n      dup2\n        /* \"#utility.yul\":1539:1563   */\n      tag_511\n      jump\t// in\n    tag_607:\n        /* \"#utility.yul\":1534:1537   */\n      dup3\n        /* \"#utility.yul\":1527:1564   */\n      mstore\n        /* \"#utility.yul\":1452:1570   */\n      pop\n      pop\n      jump\t// out\n        /* \"#utility.yul\":1576:1908   */\n    tag_45:\n        /* \"#utility.yul\":1697:1701   */\n      0x00\n        /* \"#utility.yul\":1735:1737   */\n      0x40\n        /* \"#utility.yul\":1724:1733   */\n      dup3\n        /* \"#utility.yul\":1720:1738   */\n      add\n        /* \"#utility.yul\":1712:1738   */\n      swap1\n      pop\n        /* \"#utility.yul\":1748:1819   */\n      tag_609\n        /* \"#utility.yul\":1816:1817   */\n      0x00\n        /* \"#utility.yul\":1805:1814   */\n      dup4\n        /* \"#utility.yul\":1801:1818   */\n      add\n        /* \"#utility.yul\":1792:1798   */\n      dup6\n        /* \"#utility.yul\":1748:1819   */\n      tag_516\n      jump\t// in\n    tag_609:\n        /* \"#utility.yul\":1829:1901   */\n      tag_610\n        /* \"#utility.yul\":1897:1899   */\n      0x20\n        /* \"#utility.yul\":1886:1895   */\n      dup4\n        /* \"#utility.yul\":1882:1900   */\n      add\n        /* \"#utility.yul\":1873:1879   */\n      dup5\n        /* \"#utility.yul\":1829:1901   */\n      tag_516\n      jump\t// in\n    tag_610:\n        /* \"#utility.yul\":1576:1908   */\n      swap4\n      swap3\n      pop\n      pop\n      pop\n      jump\t// out\n        /* \"#utility.yul\":1914:2136   */\n    tag_50:\n        /* \"#utility.yul\":2007:2011   */\n      0x00\n        /* \"#utility.yul\":2045:2047   */\n      0x20\n        /* \"#utility.yul\":2034:2043   */\n      dup3\n        /* \"#utility.yul\":2030:2048   */\n      add\n        /* \"#utility.yul\":2022:2048   */\n      swap1\n      pop\n        /* \"#utility.yul\":2058:2129   */\n      tag_612\n        /* \"#utility.yul\":2126:2127   */\n      0x00\n        /* \"#utility.yul\":2115:2124   */\n      dup4\n        /* \"#utility.yul\":2111:2128   */\n      add\n        /* \"#utility.yul\":2102:2108   */\n      dup5\n        /* \"#utility.yul\":2058:2129   */\n      tag_516\n      jump\t// in\n    tag_612:\n        /* \"#utility.yul\":1914:2136   */\n      swap3\n      swap2\n      pop\n      pop\n      jump\t// out\n        /* \"#utility.yul\":2142:2263   */\n    tag_517:\n        /* \"#utility.yul\":2237:2238   */\n      0x03\n        /* \"#utility.yul\":2230:2235   */\n      dup2\n        /* \"#utility.yul\":2227:2239   */\n      lt\n        /* \"#utility.yul\":2217:2257   */\n      tag_614\n      jumpi\n        /* \"#utility.yul\":2253:2254   */\n      0x00\n        /* \"#utility.yul\":2250:2251   */\n      dup1\n        /* \"#utility.yul\":2243:2255   */\n      revert\n        /* \"#utility.yul\":2217:2257   */\n    tag_614:\n        /* \"#utility.yul\":2142:2263   */\n      pop\n      jump\t// out\n        /* \"#utility.yul\":2269:2452   */\n    tag_518:\n        /* \"#utility.yul\":2337:2342   */\n      0x00\n        /* \"#utility.yul\":2375:2381   */\n      dup2\n        /* \"#utility.yul\":2362:2382   */\n      calldataload\n        /* \"#utility.yul\":2353:2382   */\n      swap1\n      pop\n        /* \"#utility.yul\":2391:2446   */\n      tag_616\n        /* \"#utility.yul\":2440:2445   */\n      dup2\n        /* \"#utility.yul\":2391:2446   */\n      tag_517\n      jump\t// in\n    tag_616:\n        /* \"#utility.yul\":2269:2452   */\n      swap3\n      swap2\n      pop\n      pop\n      jump\t// out\n        /* \"#utility.yul\":2458:2584   */\n    tag_519:\n        /* \"#utility.yul\":2495:2502   */\n      0x00\n        /* \"#utility.yul\":2535:2577   */\n      0xffffffffffffffffffffffffffffffffffffffff\n        /* \"#utility.yul\":2528:2533   */\n      dup3\n        /* \"#utility.yul\":2524:2578   */\n      and\n        /* \"#utility.yul\":2513:2578   */\n      swap1\n      pop\n        /* \"#utility.yul\":2458:2584   */\n      swap2\n      swap1\n      pop\n      jump\t// out\n        /* \"#utility.yul\":2590:2686   */\n    tag_520:\n        /* \"#utility.yul\":2627:2634   */\n      0x00\n        /* \"#utility.yul\":2656:2680   */\n      tag_619\n        /* \"#utility.yul\":2674:2679   */\n      dup3\n        /* \"#utility.yul\":2656:2680   */\n      tag_519\n      jump\t// in\n    tag_619:\n        /* \"#utility.yul\":2645:2680   */\n      swap1\n      pop\n        /* \"#utility.yul\":2590:2686   */\n      swap2\n      swap1\n      pop\n      jump\t// out\n        /* \"#utility.yul\":2692:2814   */\n    tag_521:\n        /* \"#utility.yul\":2765:2789   */\n      tag_621\n        /* \"#utility.yul\":2783:2788   */\n      dup2\n        /* \"#utility.yul\":2765:2789   */\n      tag_520\n      jump\t// in\n    tag_621:\n        /* \"#utility.yul\":2758:2763   */\n      dup2\n        /* \"#utility.yul\":2755:2790   */\n      eq\n        /* \"#utility.yul\":2745:2808   */\n      tag_622\n      jumpi\n        /* \"#utility.yul\":2804:2805   */\n      0x00\n        /* \"#utility.yul\":2801:2802   */\n      dup1\n        /* \"#utility.yul\":2794:2806   */\n      revert\n        /* \"#utility.yul\":2745:2808   */\n    tag_622:\n        /* \"#utility.yul\":2692:2814   */\n      pop\n      jump\t// out\n        /* \"#utility.yul\":2820:2959   */\n    tag_522:\n        /* \"#utility.yul\":2866:2871   */\n      0x00\n        /* \"#utility.yul\":2904:2910   */\n      dup2\n        /* \"#utility.yul\":2891:2911   */\n      calldataload\n        /* \"#utility.yul\":2882:2911   */\n      swap1\n      pop\n        /* \"#utility.yul\":2920:2953   */\n      tag_624\n        /* \"#utility.yul\":2947:2952   */\n      dup2\n        /* \"#utility.yul\":2920:2953   */\n      tag_521\n      jump\t// in\n    tag_624:\n        /* \"#utility.yul\":2820:2959   */\n      swap3\n      swap2\n      pop\n      pop\n      jump\t// out\n        /* \"#utility.yul\":2965:3081   */\n    tag_523:\n        /* \"#utility.yul\":3035:3056   */\n      tag_626\n        /* \"#utility.yul\":3050:3055   */\n      dup2\n        /* \"#utility.yul\":3035:3056   */\n      tag_514\n      jump\t// in\n    tag_626:\n        /* \"#utility.yul\":3028:3033   */\n      dup2\n        /* \"#utility.yul\":3025:3057   */\n      eq\n        /* \"#utility.yul\":3015:3075   */\n      tag_627\n      jumpi\n        /* \"#utility.yul\":3071:3072   */\n      0x00\n        /* \"#utility.yul\":3068:3069   */\n      dup1\n        /* \"#utility.yul\":3061:3073   */\n      revert\n        /* \"#utility.yul\":3015:3075   */\n    tag_627:\n        /* \"#utility.yul\":2965:3081   */\n      pop\n      jump\t// out\n        /* \"#utility.yul\":3087:3220   */\n    tag_524:\n        /* \"#utility.yul\":3130:3135   */\n      0x00\n        /* \"#utility.yul\":3168:3174   */\n      dup2\n        /* \"#utility.yul\":3155:3175   */\n      calldataload\n        /* \"#utility.yul\":3146:3175   */\n      swap1\n      pop\n        /* \"#utility.yul\":3184:3214   */\n      tag_629\n        /* \"#utility.yul\":3208:3213   */\n      dup2\n        /* \"#utility.yul\":3184:3214   */\n      tag_523\n      jump\t// in\n    tag_629:\n        /* \"#utility.yul\":3087:3220   */\n      swap3\n      swap2\n      pop\n      pop\n      jump\t// out\n        /* \"#utility.yul\":3226:4613   */\n    tag_57:\n        /* \"#utility.yul\":3367:3373   */\n      0x00\n        /* \"#utility.yul\":3375:3381   */\n      dup1\n        /* \"#utility.yul\":3383:3389   */\n      0x00\n        /* \"#utility.yul\":3391:3397   */\n      dup1\n        /* \"#utility.yul\":3399:3405   */\n      0x00\n        /* \"#utility.yul\":3407:3413   */\n      dup1\n        /* \"#utility.yul\":3415:3421   */\n      0x00\n        /* \"#utility.yul\":3423:3429   */\n      dup1\n        /* \"#utility.yul\":3472:3475   */\n      0x0100\n        /* \"#utility.yul\":3460:3469   */\n      dup10\n        /* \"#utility.yul\":3451:3458   */\n      dup12\n        /* \"#utility.yul\":3447:3470   */\n      sub\n        /* \"#utility.yul\":3443:3476   */\n      slt\n        /* \"#utility.yul\":3440:3560   */\n      iszero\n      tag_631\n      jumpi\n        /* \"#utility.yul\":3479:3558   */\n      tag_632\n      tag_509\n      jump\t// in\n    tag_632:\n        /* \"#utility.yul\":3440:3560   */\n    tag_631:\n        /* \"#utility.yul\":3599:3600   */\n      0x00\n        /* \"#utility.yul\":3624:3699   */\n      tag_633\n        /* \"#utility.yul\":3691:3698   */\n      dup12\n        /* \"#utility.yul\":3682:3688   */\n      dup3\n        /* \"#utility.yul\":3671:3680   */\n      dup13\n        /* \"#utility.yul\":3667:3689   */\n      add\n        /* \"#utility.yul\":3624:3699   */\n      tag_518\n      jump\t// in\n    tag_633:\n        /* \"#utility.yul\":3614:3699   */\n      swap9\n      pop\n        /* \"#utility.yul\":3570:3709   */\n      pop\n        /* \"#utility.yul\":3748:3750   */\n      0x20\n        /* \"#utility.yul\":3774:3827   */\n      tag_634\n        /* \"#utility.yul\":3819:3826   */\n      dup12\n        /* \"#utility.yul\":3810:3816   */\n      dup3\n        /* \"#utility.yul\":3799:3808   */\n      dup13\n        /* \"#utility.yul\":3795:3817   */\n      add\n        /* \"#utility.yul\":3774:3827   */\n      tag_522\n      jump\t// in\n    tag_634:\n        /* \"#utility.yul\":3764:3827   */\n      swap8\n      pop\n        /* \"#utility.yul\":3719:3837   */\n      pop\n        /* \"#utility.yul\":3876:3878   */\n      0x40\n        /* \"#utility.yul\":3902:3955   */\n      tag_635\n        /* \"#utility.yul\":3947:3954   */\n      dup12\n        /* \"#utility.yul\":3938:3944   */\n      dup3\n        /* \"#utility.yul\":3927:3936   */\n      dup13\n        /* \"#utility.yul\":3923:3945   */\n      add\n        /* \"#utility.yul\":3902:3955   */\n      tag_522\n      jump\t// in\n    tag_635:\n        /* \"#utility.yul\":3892:3955   */\n      swap7\n      pop\n        /* \"#utility.yul\":3847:3965   */\n      pop\n        /* \"#utility.yul\":4004:4006   */\n      0x60\n        /* \"#utility.yul\":4030:4083   */\n      tag_636\n        /* \"#utility.yul\":4075:4082   */\n      dup12\n        /* \"#utility.yul\":4066:4072   */\n      dup3\n        /* \"#utility.yul\":4055:4064   */\n      dup13\n        /* \"#utility.yul\":4051:4073   */\n      add\n        /* \"#utility.yul\":4030:4083   */\n      tag_513\n      jump\t// in\n    tag_636:\n        /* \"#utility.yul\":4020:4083   */\n      swap6\n      pop\n        /* \"#utility.yul\":3975:4093   */\n      pop\n        /* \"#utility.yul\":4132:4135   */\n      0x80\n        /* \"#utility.yul\":4159:4212   */\n      tag_637\n        /* \"#utility.yul\":4204:4211   */\n      dup12\n        /* \"#utility.yul\":4195:4201   */\n      dup3\n        /* \"#utility.yul\":4184:4193   */\n      dup13\n        /* \"#utility.yul\":4180:4202   */\n      add\n        /* \"#utility.yul\":4159:4212   */\n      tag_513\n      jump\t// in\n    tag_637:\n        /* \"#utility.yul\":4149:4212   */\n      swap5\n      pop\n        /* \"#utility.yul\":4103:4222   */\n      pop\n        /* \"#utility.yul\":4261:4264   */\n      0xa0\n        /* \"#utility.yul\":4288:4341   */\n      tag_638\n        /* \"#utility.yul\":4333:4340   */\n      dup12\n        /* \"#utility.yul\":4324:4330   */\n      dup3\n        /* \"#utility.yul\":4313:4322   */\n      dup13\n        /* \"#utility.yul\":4309:4331   */\n      add\n        /* \"#utility.yul\":4288:4341   */\n      tag_513\n      jump\t// in\n    tag_638:\n        /* \"#utility.yul\":4278:4341   */\n      swap4\n      pop\n        /* \"#utility.yul\":4232:4351   */\n      pop\n        /* \"#utility.yul\":4390:4393   */\n      0xc0\n        /* \"#utility.yul\":4417:4467   */\n      tag_639\n        /* \"#utility.yul\":4459:4466   */\n      dup12\n        /* \"#utility.yul\":4450:4456   */\n      dup3\n        /* \"#utility.yul\":4439:4448   */\n      dup13\n        /* \"#utility.yul\":4435:4457   */\n      add\n        /* \"#utility.yul\":4417:4467   */\n      tag_524\n      jump\t// in\n    tag_639:\n        /* \"#utility.yul\":4407:4467   */\n      swap3\n      pop\n        /* \"#utility.yul\":4361:4477   */\n      pop\n        /* \"#utility.yul\":4516:4519   */\n      0xe0\n        /* \"#utility.yul\":4543:4596   */\n      tag_640\n        /* \"#utility.yul\":4588:4595   */\n      dup12\n        /* \"#utility.yul\":4579:4585   */\n      dup3\n        /* \"#utility.yul\":4568:4577   */\n      dup13\n        /* \"#utility.yul\":4564:4586   */\n      add\n        /* \"#utility.yul\":4543:4596   */\n      tag_522\n      jump\t// in\n    tag_640:\n        /* \"#utility.yul\":4533:4596   */\n      swap2\n      pop\n        /* \"#utility.yul\":4487:4606   */\n      pop\n        /* \"#utility.yul\":3226:4613   */\n      swap3\n      swap6\n      swap9\n      pop\n      swap3\n      swap6\n      swap9\n      swap1\n      swap4\n      swap7\n      pop\n      jump\t// out\n        /* \"#utility.yul\":4619:4799   */\n    tag_129:\n        /* \"#utility.yul\":4667:4744   */\n      0x4e487b7100000000000000000000000000000000000000000000000000000000\n        /* \"#utility.yul\":4664:4665   */\n      0x00\n        /* \"#utility.yul\":4657:4745   */\n      mstore\n        /* \"#utility.yul\":4764:4768   */\n      0x21\n        /* \"#utility.yul\":4761:4762   */\n      0x04\n        /* \"#utility.yul\":4754:4769   */\n      mstore\n        /* \"#utility.yul\":4788:4792   */\n      0x24\n        /* \"#utility.yul\":4785:4786   */\n      0x00\n        /* \"#utility.yul\":4778:4793   */\n      revert\n        /* \"#utility.yul\":4805:4932   */\n    tag_525:\n        /* \"#utility.yul\":4900:4901   */\n      0x03\n        /* \"#utility.yul\":4893:4898   */\n      dup2\n        /* \"#utility.yul\":4890:4902   */\n      lt\n        /* \"#utility.yul\":4880:4926   */\n      tag_643\n      jumpi\n        /* \"#utility.yul\":4906:4924   */\n      tag_644\n      tag_129\n      jump\t// in\n    tag_644:\n        /* \"#utility.yul\":4880:4926   */\n    tag_643:\n        /* \"#utility.yul\":4805:4932   */\n      pop\n      jump\t// out\n        /* \"#utility.yul\":4938:5093   */\n    tag_526:\n        /* \"#utility.yul\":4997:5004   */\n      0x00\n        /* \"#utility.yul\":5026:5031   */\n      dup2\n        /* \"#utility.yul\":5015:5031   */\n      swap1\n      pop\n        /* \"#utility.yul\":5032:5087   */\n      tag_646\n        /* \"#utility.yul\":5081:5086   */\n      dup3\n        /* \"#utility.yul\":5032:5087   */\n      tag_525\n      jump\t// in\n    tag_646:\n        /* \"#utility.yul\":4938:5093   */\n      swap2\n      swap1\n      pop\n      jump\t// out\n        /* \"#utility.yul\":5099:5254   */\n    tag_527:\n        /* \"#utility.yul\":5169:5178   */\n      0x00\n        /* \"#utility.yul\":5202:5248   */\n      tag_648\n        /* \"#utility.yul\":5242:5247   */\n      dup3\n        /* \"#utility.yul\":5202:5248   */\n      tag_526\n      jump\t// in\n    tag_648:\n        /* \"#utility.yul\":5189:5248   */\n      swap1\n      pop\n        /* \"#utility.yul\":5099:5254   */\n      swap2\n      swap1\n      pop\n      jump\t// out\n        /* \"#utility.yul\":5260:5431   */\n    tag_528:\n        /* \"#utility.yul\":5367:5424   */\n      tag_650\n        /* \"#utility.yul\":5418:5423   */\n      dup2\n        /* \"#utility.yul\":5367:5424   */\n      tag_527\n      jump\t// in\n    tag_650:\n        /* \"#utility.yul\":5362:5365   */\n      dup3\n        /* \"#utility.yul\":5355:5425   */\n      mstore\n        /* \"#utility.yul\":5260:5431   */\n      pop\n      pop\n      jump\t// out\n        /* \"#utility.yul\":5437:5699   */\n    tag_67:\n        /* \"#utility.yul\":5550:5554   */\n      0x00\n        /* \"#utility.yul\":5588:5590   */\n      0x20\n        /* \"#utility.yul\":5577:5586   */\n      dup3\n        /* \"#utility.yul\":5573:5591   */\n      add\n        /* \"#utility.yul\":5565:5591   */\n      swap1\n      pop\n        /* \"#utility.yul\":5601:5692   */\n      tag_652\n        /* \"#utility.yul\":5689:5690   */\n      0x00\n        /* \"#utility.yul\":5678:5687   */\n      dup4\n        /* \"#utility.yul\":5674:5691   */\n      add\n        /* \"#utility.yul\":5665:5671   */\n      dup5\n        /* \"#utility.yul\":5601:5692   */\n      tag_528\n      jump\t// in\n    tag_652:\n        /* \"#utility.yul\":5437:5699   */\n      swap3\n      swap2\n      pop\n      pop\n      jump\t// out\n        /* \"#utility.yul\":5705:5823   */\n    tag_529:\n        /* \"#utility.yul\":5792:5816   */\n      tag_654\n        /* \"#utility.yul\":5810:5815   */\n      dup2\n        /* \"#utility.yul\":5792:5816   */\n      tag_520\n      jump\t// in\n    tag_654:\n        /* \"#utility.yul\":5787:5790   */\n      dup3\n        /* \"#utility.yul\":5780:5817   */\n      mstore\n        /* \"#utility.yul\":5705:5823   */\n      pop\n      pop\n      jump\t// out\n        /* \"#utility.yul\":5829:6051   */\n    tag_72:\n        /* \"#utility.yul\":5922:5926   */\n      0x00\n        /* \"#utility.yul\":5960:5962   */\n      0x20\n        /* \"#utility.yul\":5949:5958   */\n      dup3\n        /* \"#utility.yul\":5945:5963   */\n      add\n        /* \"#utility.yul\":5937:5963   */\n      swap1\n      pop\n        /* \"#utility.yul\":5973:6044   */\n      tag_656\n        /* \"#utility.yul\":6041:6042   */\n      0x00\n        /* \"#utility.yul\":6030:6039   */\n      dup4\n        /* \"#utility.yul\":6026:6043   */\n      add\n        /* \"#utility.yul\":6017:6023   */\n      dup5\n        /* \"#utility.yul\":5973:6044   */\n      tag_529\n      jump\t// in\n    tag_656:\n        /* \"#utility.yul\":5829:6051   */\n      swap3\n      swap2\n      pop\n      pop\n      jump\t// out\n        /* \"#utility.yul\":6057:6389   */\n    tag_80:\n        /* \"#utility.yul\":6178:6182   */\n      0x00\n        /* \"#utility.yul\":6216:6218   */\n      0x40\n        /* \"#utility.yul\":6205:6214   */\n      dup3\n        /* \"#utility.yul\":6201:6219   */\n      add\n        /* \"#utility.yul\":6193:6219   */\n      swap1\n      pop\n        /* \"#utility.yul\":6229:6300   */\n      tag_658\n        /* \"#utility.yul\":6297:6298   */\n      0x00\n        /* \"#utility.yul\":6286:6295   */\n      dup4\n        /* \"#utility.yul\":6282:6299   */\n      add\n        /* \"#utility.yul\":6273:6279   */\n      dup6\n        /* \"#utility.yul\":6229:6300   */\n      tag_529\n      jump\t// in\n    tag_658:\n        /* \"#utility.yul\":6310:6382   */\n      tag_659\n        /* \"#utility.yul\":6378:6380   */\n      0x20\n        /* \"#utility.yul\":6367:6376   */\n      dup4\n        /* \"#utility.yul\":6363:6381   */\n      add\n        /* \"#utility.yul\":6354:6360   */\n      dup5\n        /* \"#utility.yul\":6310:6382   */\n      tag_529\n      jump\t// in\n    tag_659:\n        /* \"#utility.yul\":6057:6389   */\n      swap4\n      swap3\n      pop\n      pop\n      pop\n      jump\t// out\n        /* \"#utility.yul\":6395:6509   */\n    tag_530:\n        /* \"#utility.yul\":6462:6468   */\n      0x00\n        /* \"#utility.yul\":6496:6501   */\n      dup2\n        /* \"#utility.yul\":6490:6502   */\n      mload\n        /* \"#utility.yul\":6480:6502   */\n      swap1\n      pop\n        /* \"#utility.yul\":6395:6509   */\n      swap2\n      swap1\n      pop\n      jump\t// out\n        /* \"#utility.yul\":6515:6699   */\n    tag_531:\n        /* \"#utility.yul\":6614:6625   */\n      0x00\n        /* \"#utility.yul\":6648:6654   */\n      dup3\n        /* \"#utility.yul\":6643:6646   */\n      dup3\n        /* \"#utility.yul\":6636:6655   */\n      mstore\n        /* \"#utility.yul\":6688:6692   */\n      0x20\n        /* \"#utility.yul\":6683:6686   */\n      dup3\n        /* \"#utility.yul\":6679:6693   */\n      add\n        /* \"#utility.yul\":6664:6693   */\n      swap1\n      pop\n        /* \"#utility.yul\":6515:6699   */\n      swap3\n      swap2\n      pop\n      pop\n      jump\t// out\n        /* \"#utility.yul\":6705:6837   */\n    tag_532:\n        /* \"#utility.yul\":6772:6776   */\n      0x00\n        /* \"#utility.yul\":6795:6798   */\n      dup2\n        /* \"#utility.yul\":6787:6798   */\n      swap1\n      pop\n        /* \"#utility.yul\":6825:6829   */\n      0x20\n        /* \"#utility.yul\":6820:6823   */\n      dup3\n        /* \"#utility.yul\":6816:6830   */\n      add\n        /* \"#utility.yul\":6808:6830   */\n      swap1\n      pop\n        /* \"#utility.yul\":6705:6837   */\n      swap2\n      swap1\n      pop\n      jump\t// out\n        /* \"#utility.yul\":6843:6951   */\n    tag_533:\n        /* \"#utility.yul\":6920:6944   */\n      tag_664\n        /* \"#utility.yul\":6938:6943   */\n      dup2\n        /* \"#utility.yul\":6920:6944   */\n      tag_520\n      jump\t// in\n    tag_664:\n        /* \"#utility.yul\":6915:6918   */\n      dup3\n        /* \"#utility.yul\":6908:6945   */\n      mstore\n        /* \"#utility.yul\":6843:6951   */\n      pop\n      pop\n      jump\t// out\n        /* \"#utility.yul\":6957:7136   */\n    tag_534:\n        /* \"#utility.yul\":7026:7036   */\n      0x00\n        /* \"#utility.yul\":7047:7093   */\n      tag_666\n        /* \"#utility.yul\":7089:7092   */\n      dup4\n        /* \"#utility.yul\":7081:7087   */\n      dup4\n        /* \"#utility.yul\":7047:7093   */\n      tag_533\n      jump\t// in\n    tag_666:\n        /* \"#utility.yul\":7125:7129   */\n      0x20\n        /* \"#utility.yul\":7120:7123   */\n      dup4\n        /* \"#utility.yul\":7116:7130   */\n      add\n        /* \"#utility.yul\":7102:7130   */\n      swap1\n      pop\n        /* \"#utility.yul\":6957:7136   */\n      swap3\n      swap2\n      pop\n      pop\n      jump\t// out\n        /* \"#utility.yul\":7142:7255   */\n    tag_535:\n        /* \"#utility.yul\":7212:7216   */\n      0x00\n        /* \"#utility.yul\":7244:7248   */\n      0x20\n        /* \"#utility.yul\":7239:7242   */\n      dup3\n        /* \"#utility.yul\":7235:7249   */\n      add\n        /* \"#utility.yul\":7227:7249   */\n      swap1\n      pop\n        /* \"#utility.yul\":7142:7255   */\n      swap2\n      swap1\n      pop\n      jump\t// out\n        /* \"#utility.yul\":7291:8023   */\n    tag_536:\n        /* \"#utility.yul\":7410:7413   */\n      0x00\n        /* \"#utility.yul\":7439:7493   */\n      tag_669\n        /* \"#utility.yul\":7487:7492   */\n      dup3\n        /* \"#utility.yul\":7439:7493   */\n      tag_530\n      jump\t// in\n    tag_669:\n        /* \"#utility.yul\":7509:7595   */\n      tag_670\n        /* \"#utility.yul\":7588:7594   */\n      dup2\n        /* \"#utility.yul\":7583:7586   */\n      dup6\n        /* \"#utility.yul\":7509:7595   */\n      tag_531\n      jump\t// in\n    tag_670:\n        /* \"#utility.yul\":7502:7595   */\n      swap4\n      pop\n        /* \"#utility.yul\":7619:7675   */\n      tag_671\n        /* \"#utility.yul\":7669:7674   */\n      dup4\n        /* \"#utility.yul\":7619:7675   */\n      tag_532\n      jump\t// in\n    tag_671:\n        /* \"#utility.yul\":7698:7705   */\n      dup1\n        /* \"#utility.yul\":7729:7730   */\n      0x00\n        /* \"#utility.yul\":7714:7998   */\n    tag_672:\n        /* \"#utility.yul\":7739:7745   */\n      dup4\n        /* \"#utility.yul\":7736:7737   */\n      dup2\n        /* \"#utility.yul\":7733:7746   */\n      lt\n        /* \"#utility.yul\":7714:7998   */\n      iszero\n      tag_674\n      jumpi\n        /* \"#utility.yul\":7815:7821   */\n      dup2\n        /* \"#utility.yul\":7809:7822   */\n      mload\n        /* \"#utility.yul\":7842:7905   */\n      tag_675\n        /* \"#utility.yul\":7901:7904   */\n      dup9\n        /* \"#utility.yul\":7886:7899   */\n      dup3\n        /* \"#utility.yul\":7842:7905   */\n      tag_534\n      jump\t// in\n    tag_675:\n        /* \"#utility.yul\":7835:7905   */\n      swap8\n      pop\n        /* \"#utility.yul\":7928:7988   */\n      tag_676\n        /* \"#utility.yul\":7981:7987   */\n      dup4\n        /* \"#utility.yul\":7928:7988   */\n      tag_535\n      jump\t// in\n    tag_676:\n        /* \"#utility.yul\":7918:7988   */\n      swap3\n      pop\n        /* \"#utility.yul\":7774:7998   */\n      pop\n        /* \"#utility.yul\":7761:7762   */\n      0x01\n        /* \"#utility.yul\":7758:7759   */\n      dup2\n        /* \"#utility.yul\":7754:7763   */\n      add\n        /* \"#utility.yul\":7749:7763   */\n      swap1\n      pop\n        /* \"#utility.yul\":7714:7998   */\n      jump(tag_672)\n    tag_674:\n        /* \"#utility.yul\":7718:7732   */\n      pop\n        /* \"#utility.yul\":8014:8017   */\n      dup6\n        /* \"#utility.yul\":8007:8017   */\n      swap4\n      pop\n        /* \"#utility.yul\":7415:8023   */\n      pop\n      pop\n      pop\n        /* \"#utility.yul\":7291:8023   */\n      swap3\n      swap2\n      pop\n      pop\n      jump\t// out\n        /* \"#utility.yul\":8029:8143   */\n    tag_537:\n        /* \"#utility.yul\":8096:8102   */\n      0x00\n        /* \"#utility.yul\":8130:8135   */\n      dup2\n        /* \"#utility.yul\":8124:8136   */\n      mload\n        /* \"#utility.yul\":8114:8136   */\n      swap1\n      pop\n        /* \"#utility.yul\":8029:8143   */\n      swap2\n      swap1\n      pop\n      jump\t// out\n        /* \"#utility.yul\":8149:8333   */\n    tag_538:\n        /* \"#utility.yul\":8248:8259   */\n      0x00\n        /* \"#utility.yul\":8282:8288   */\n      dup3\n        /* \"#utility.yul\":8277:8280   */\n      dup3\n        /* \"#utility.yul\":8270:8289   */\n      mstore\n        /* \"#utility.yul\":8322:8326   */\n      0x20\n        /* \"#utility.yul\":8317:8320   */\n      dup3\n        /* \"#utility.yul\":8313:8327   */\n      add\n        /* \"#utility.yul\":8298:8327   */\n      swap1\n      pop\n        /* \"#utility.yul\":8149:8333   */\n      swap3\n      swap2\n      pop\n      pop\n      jump\t// out\n        /* \"#utility.yul\":8339:8471   */\n    tag_539:\n        /* \"#utility.yul\":8406:8410   */\n      0x00\n        /* \"#utility.yul\":8429:8432   */\n      dup2\n        /* \"#utility.yul\":8421:8432   */\n      swap1\n      pop\n        /* \"#utility.yul\":8459:8463   */\n      0x20\n        /* \"#utility.yul\":8454:8457   */\n      dup3\n        /* \"#utility.yul\":8450:8464   */\n      add\n        /* \"#utility.yul\":8442:8464   */\n      swap1\n      pop\n        /* \"#utility.yul\":8339:8471   */\n      swap2\n      swap1\n      pop\n      jump\t// out\n        /* \"#utility.yul\":8477:8585   */\n    tag_540:\n        /* \"#utility.yul\":8554:8578   */\n      tag_681\n        /* \"#utility.yul\":8572:8577   */\n      dup2\n        /* \"#utility.yul\":8554:8578   */\n      tag_511\n      jump\t// in\n    tag_681:\n        /* \"#utility.yul\":8549:8552   */\n      dup3\n        /* \"#utility.yul\":8542:8579   */\n      mstore\n        /* \"#utility.yul\":8477:8585   */\n      pop\n      pop\n      jump\t// out\n        /* \"#utility.yul\":8591:8770   */\n    tag_541:\n        /* \"#utility.yul\":8660:8670   */\n      0x00\n        /* \"#utility.yul\":8681:8727   */\n      tag_683\n        /* \"#utility.yul\":8723:8726   */\n      dup4\n        /* \"#utility.yul\":8715:8721   */\n      dup4\n        /* \"#utility.yul\":8681:8727   */\n      tag_540\n      jump\t// in\n    tag_683:\n        /* \"#utility.yul\":8759:8763   */\n      0x20\n        /* \"#utility.yul\":8754:8757   */\n      dup4\n        /* \"#utility.yul\":8750:8764   */\n      add\n        /* \"#utility.yul\":8736:8764   */\n      swap1\n      pop\n        /* \"#utility.yul\":8591:8770   */\n      swap3\n      swap2\n      pop\n      pop\n      jump\t// out\n        /* \"#utility.yul\":8776:8889   */\n    tag_542:\n        /* \"#utility.yul\":8846:8850   */\n      0x00\n        /* \"#utility.yul\":8878:8882   */\n      0x20\n        /* \"#utility.yul\":8873:8876   */\n      dup3\n        /* \"#utility.yul\":8869:8883   */\n      add\n        /* \"#utility.yul\":8861:8883   */\n      swap1\n      pop\n        /* \"#utility.yul\":8776:8889   */\n      swap2\n      swap1\n      pop\n      jump\t// out\n        /* \"#utility.yul\":8925:9657   */\n    tag_543:\n        /* \"#utility.yul\":9044:9047   */\n      0x00\n        /* \"#utility.yul\":9073:9127   */\n      tag_686\n        /* \"#utility.yul\":9121:9126   */\n      dup3\n        /* \"#utility.yul\":9073:9127   */\n      tag_537\n      jump\t// in\n    tag_686:\n        /* \"#utility.yul\":9143:9229   */\n      tag_687\n        /* \"#utility.yul\":9222:9228   */\n      dup2\n        /* \"#utility.yul\":9217:9220   */\n      dup6\n        /* \"#utility.yul\":9143:9229   */\n      tag_538\n      jump\t// in\n    tag_687:\n        /* \"#utility.yul\":9136:9229   */\n      swap4\n      pop\n        /* \"#utility.yul\":9253:9309   */\n      tag_688\n        /* \"#utility.yul\":9303:9308   */\n      dup4\n        /* \"#utility.yul\":9253:9309   */\n      tag_539\n      jump\t// in\n    tag_688:\n        /* \"#utility.yul\":9332:9339   */\n      dup1\n        /* \"#utility.yul\":9363:9364   */\n      0x00\n        /* \"#utility.yul\":9348:9632   */\n    tag_689:\n        /* \"#utility.yul\":9373:9379   */\n      dup4\n        /* \"#utility.yul\":9370:9371   */\n      dup2\n        /* \"#utility.yul\":9367:9380   */\n      lt\n        /* \"#utility.yul\":9348:9632   */\n      iszero\n      tag_691\n      jumpi\n        /* \"#utility.yul\":9449:9455   */\n      dup2\n        /* \"#utility.yul\":9443:9456   */\n      mload\n        /* \"#utility.yul\":9476:9539   */\n      tag_692\n        /* \"#utility.yul\":9535:9538   */\n      dup9\n        /* \"#utility.yul\":9520:9533   */\n      dup3\n        /* \"#utility.yul\":9476:9539   */\n      tag_541\n      jump\t// in\n    tag_692:\n        /* \"#utility.yul\":9469:9539   */\n      swap8\n      pop\n        /* \"#utility.yul\":9562:9622   */\n      tag_693\n        /* \"#utility.yul\":9615:9621   */\n      dup4\n        /* \"#utility.yul\":9562:9622   */\n      tag_542\n      jump\t// in\n    tag_693:\n        /* \"#utility.yul\":9552:9622   */\n      swap3\n      pop\n        /* \"#utility.yul\":9408:9632   */\n      pop\n        /* \"#utility.yul\":9395:9396   */\n      0x01\n        /* \"#utility.yul\":9392:9393   */\n      dup2\n        /* \"#utility.yul\":9388:9397   */\n      add\n        /* \"#utility.yul\":9383:9397   */\n      swap1\n      pop\n        /* \"#utility.yul\":9348:9632   */\n      jump(tag_689)\n    tag_691:\n        /* \"#utility.yul\":9352:9366   */\n      pop\n        /* \"#utility.yul\":9648:9651   */\n      dup6\n        /* \"#utility.yul\":9641:9651   */\n      swap4\n      pop\n        /* \"#utility.yul\":9049:9657   */\n      pop\n      pop\n      pop\n        /* \"#utility.yul\":8925:9657   */\n      swap3\n      swap2\n      pop\n      pop\n      jump\t// out\n        /* \"#utility.yul\":9663:10558   */\n    tag_99:\n        /* \"#utility.yul\":9962:9966   */\n      0x00\n        /* \"#utility.yul\":10000:10002   */\n      0x60\n        /* \"#utility.yul\":9989:9998   */\n      dup3\n        /* \"#utility.yul\":9985:10003   */\n      add\n        /* \"#utility.yul\":9977:10003   */\n      swap1\n      pop\n        /* \"#utility.yul\":10049:10058   */\n      dup2\n        /* \"#utility.yul\":10043:10047   */\n      dup2\n        /* \"#utility.yul\":10039:10059   */\n      sub\n        /* \"#utility.yul\":10035:10036   */\n      0x00\n        /* \"#utility.yul\":10024:10033   */\n      dup4\n        /* \"#utility.yul\":10020:10037   */\n      add\n        /* \"#utility.yul\":10013:10060   */\n      mstore\n        /* \"#utility.yul\":10077:10185   */\n      tag_695\n        /* \"#utility.yul\":10180:10184   */\n      dup2\n        /* \"#utility.yul\":10171:10177   */\n      dup7\n        /* \"#utility.yul\":10077:10185   */\n      tag_536\n      jump\t// in\n    tag_695:\n        /* \"#utility.yul\":10069:10185   */\n      swap1\n      pop\n        /* \"#utility.yul\":10232:10241   */\n      dup2\n        /* \"#utility.yul\":10226:10230   */\n      dup2\n        /* \"#utility.yul\":10222:10242   */\n      sub\n        /* \"#utility.yul\":10217:10219   */\n      0x20\n        /* \"#utility.yul\":10206:10215   */\n      dup4\n        /* \"#utility.yul\":10202:10220   */\n      add\n        /* \"#utility.yul\":10195:10243   */\n      mstore\n        /* \"#utility.yul\":10260:10368   */\n      tag_696\n        /* \"#utility.yul\":10363:10367   */\n      dup2\n        /* \"#utility.yul\":10354:10360   */\n      dup6\n        /* \"#utility.yul\":10260:10368   */\n      tag_543\n      jump\t// in\n    tag_696:\n        /* \"#utility.yul\":10252:10368   */\n      swap1\n      pop\n        /* \"#utility.yul\":10415:10424   */\n      dup2\n        /* \"#utility.yul\":10409:10413   */\n      dup2\n        /* \"#utility.yul\":10405:10425   */\n      sub\n        /* \"#utility.yul\":10400:10402   */\n      0x40\n        /* \"#utility.yul\":10389:10398   */\n      dup4\n        /* \"#utility.yul\":10385:10403   */\n      add\n        /* \"#utility.yul\":10378:10426   */\n      mstore\n        /* \"#utility.yul\":10443:10551   */\n      tag_697\n        /* \"#utility.yul\":10546:10550   */\n      dup2\n        /* \"#utility.yul\":10537:10543   */\n      dup5\n        /* \"#utility.yul\":10443:10551   */\n      tag_543\n      jump\t// in\n    tag_697:\n        /* \"#utility.yul\":10435:10551   */\n      swap1\n      pop\n        /* \"#utility.yul\":9663:10558   */\n      swap5\n      swap4\n      pop\n      pop\n      pop\n      pop\n      jump\t// out\n        /* \"#utility.yul\":10564:10893   */\n    tag_103:\n        /* \"#utility.yul\":10623:10629   */\n      0x00\n        /* \"#utility.yul\":10672:10674   */\n      0x20\n        /* \"#utility.yul\":10660:10669   */\n      dup3\n        /* \"#utility.yul\":10651:10658   */\n      dup5\n        /* \"#utility.yul\":10647:10670   */\n      sub\n        /* \"#utility.yul\":10643:10675   */\n      slt\n        /* \"#utility.yul\":10640:10759   */\n      iszero\n      tag_699\n      jumpi\n        /* \"#utility.yul\":10678:10757   */\n      tag_700\n      tag_509\n      jump\t// in\n    tag_700:\n        /* \"#utility.yul\":10640:10759   */\n    tag_699:\n        /* \"#utility.yul\":10798:10799   */\n      0x00\n        /* \"#utility.yul\":10823:10876   */\n      tag_701\n        /* \"#utility.yul\":10868:10875   */\n      dup5\n        /* \"#utility.yul\":10859:10865   */\n      dup3\n        /* \"#utility.yul\":10848:10857   */\n      dup6\n        /* \"#utility.yul\":10844:10866   */\n      add\n        /* \"#utility.yul\":10823:10876   */\n      tag_522\n      jump\t// in\n    tag_701:\n        /* \"#utility.yul\":10813:10876   */\n      swap2\n      pop\n        /* \"#utility.yul\":10769:10886   */\n      pop\n        /* \"#utility.yul\":10564:10893   */\n      swap3\n      swap2\n      pop\n      pop\n      jump\t// out\n        /* \"#utility.yul\":10899:11068   */\n    tag_544:\n        /* \"#utility.yul\":10983:10994   */\n      0x00\n        /* \"#utility.yul\":11017:11023   */\n      dup3\n        /* \"#utility.yul\":11012:11015   */\n      dup3\n        /* \"#utility.yul\":11005:11024   */\n      mstore\n        /* \"#utility.yul\":11057:11061   */\n      0x20\n        /* \"#utility.yul\":11052:11055   */\n      dup3\n        /* \"#utility.yul\":11048:11062   */\n      add\n        /* \"#utility.yul\":11033:11062   */\n      swap1\n      pop\n        /* \"#utility.yul\":10899:11068   */\n      swap3\n      swap2\n      pop\n      pop\n      jump\t// out\n        /* \"#utility.yul\":11074:11246   */\n    tag_545:\n        /* \"#utility.yul\":11214:11238   */\n      0x537943726f774261727465723a20494e41435449564500000000000000000000\n        /* \"#utility.yul\":11210:11211   */\n      0x00\n        /* \"#utility.yul\":11202:11208   */\n      dup3\n        /* \"#utility.yul\":11198:11212   */\n      add\n        /* \"#utility.yul\":11191:11239   */\n      mstore\n        /* \"#utility.yul\":11074:11246   */\n      pop\n      jump\t// out\n        /* \"#utility.yul\":11252:11618   */\n    tag_546:\n        /* \"#utility.yul\":11394:11397   */\n      0x00\n        /* \"#utility.yul\":11415:11482   */\n      tag_705\n        /* \"#utility.yul\":11479:11481   */\n      0x16\n        /* \"#utility.yul\":11474:11477   */\n      dup4\n        /* \"#utility.yul\":11415:11482   */\n      tag_544\n      jump\t// in\n    tag_705:\n        /* \"#utility.yul\":11408:11482   */\n      swap2\n      pop\n        /* \"#utility.yul\":11491:11584   */\n      tag_706\n        /* \"#utility.yul\":11580:11583   */\n      dup3\n        /* \"#utility.yul\":11491:11584   */\n      tag_545\n      jump\t// in\n    tag_706:\n        /* \"#utility.yul\":11609:11611   */\n      0x20\n        /* \"#utility.yul\":11604:11607   */\n      dup3\n        /* \"#utility.yul\":11600:11612   */\n      add\n        /* \"#utility.yul\":11593:11612   */\n      swap1\n      pop\n        /* \"#utility.yul\":11252:11618   */\n      swap2\n      swap1\n      pop\n      jump\t// out\n        /* \"#utility.yul\":11624:12043   */\n    tag_109:\n        /* \"#utility.yul\":11790:11794   */\n      0x00\n        /* \"#utility.yul\":11828:11830   */\n      0x20\n        /* \"#utility.yul\":11817:11826   */\n      dup3\n        /* \"#utility.yul\":11813:11831   */\n      add\n        /* \"#utility.yul\":11805:11831   */\n      swap1\n      pop\n        /* \"#utility.yul\":11877:11886   */\n      dup2\n        /* \"#utility.yul\":11871:11875   */\n      dup2\n        /* \"#utility.yul\":11867:11887   */\n      sub\n        /* \"#utility.yul\":11863:11864   */\n      0x00\n        /* \"#utility.yul\":11852:11861   */\n      dup4\n        /* \"#utility.yul\":11848:11865   */\n      add\n        /* \"#utility.yul\":11841:11888   */\n      mstore\n        /* \"#utility.yul\":11905:12036   */\n      tag_708\n        /* \"#utility.yul\":12031:12035   */\n      dup2\n        /* \"#utility.yul\":11905:12036   */\n      tag_546\n      jump\t// in\n    tag_708:\n        /* \"#utility.yul\":11897:12036   */\n      swap1\n      pop\n        /* \"#utility.yul\":11624:12043   */\n      swap2\n      swap1\n      pop\n      jump\t// out\n        /* \"#utility.yul\":12049:12228   */\n    tag_547:\n        /* \"#utility.yul\":12189:12220   */\n      0x537943726f774261727465723a204e4f545f494e495449414c495a4544000000\n        /* \"#utility.yul\":12185:12186   */\n      0x00\n        /* \"#utility.yul\":12177:12183   */\n      dup3\n        /* \"#utility.yul\":12173:12187   */\n      add\n        /* \"#utility.yul\":12166:12221   */\n      mstore\n        /* \"#utility.yul\":12049:12228   */\n      pop\n      jump\t// out\n        /* \"#utility.yul\":12234:12600   */\n    tag_548:\n        /* \"#utility.yul\":12376:12379   */\n      0x00\n        /* \"#utility.yul\":12397:12464   */\n      tag_711\n        /* \"#utility.yul\":12461:12463   */\n      0x1d\n        /* \"#utility.yul\":12456:12459   */\n      dup4\n        /* \"#utility.yul\":12397:12464   */\n      tag_544\n      jump\t// in\n    tag_711:\n        /* \"#utility.yul\":12390:12464   */\n      swap2\n      pop\n        /* \"#utility.yul\":12473:12566   */\n      tag_712\n        /* \"#utility.yul\":12562:12565   */\n      dup3\n        /* \"#utility.yul\":12473:12566   */\n      tag_547\n      jump\t// in\n    tag_712:\n        /* \"#utility.yul\":12591:12593   */\n      0x20\n        /* \"#utility.yul\":12586:12589   */\n      dup3\n        /* \"#utility.yul\":12582:12594   */\n      add\n        /* \"#utility.yul\":12575:12594   */\n      swap1\n      pop\n        /* \"#utility.yul\":12234:12600   */\n      swap2\n      swap1\n      pop\n      jump\t// out\n        /* \"#utility.yul\":12606:13025   */\n    tag_113:\n        /* \"#utility.yul\":12772:12776   */\n      0x00\n        /* \"#utility.yul\":12810:12812   */\n      0x20\n        /* \"#utility.yul\":12799:12808   */\n      dup3\n        /* \"#utility.yul\":12795:12813   */\n      add\n        /* \"#utility.yul\":12787:12813   */\n      swap1\n      pop\n        /* \"#utility.yul\":12859:12868   */\n      dup2\n        /* \"#utility.yul\":12853:12857   */\n      dup2\n        /* \"#utility.yul\":12849:12869   */\n      sub\n        /* \"#utility.yul\":12845:12846   */\n      0x00\n        /* \"#utility.yul\":12834:12843   */\n      dup4\n        /* \"#utility.yul\":12830:12847   */\n      add\n        /* \"#utility.yul\":12823:12870   */\n      mstore\n        /* \"#utility.yul\":12887:13018   */\n      tag_714\n        /* \"#utility.yul\":13013:13017   */\n      dup2\n        /* \"#utility.yul\":12887:13018   */\n      tag_548\n      jump\t// in\n    tag_714:\n        /* \"#utility.yul\":12879:13018   */\n      swap1\n      pop\n        /* \"#utility.yul\":12606:13025   */\n      swap2\n      swap1\n      pop\n      jump\t// out\n        /* \"#utility.yul\":13031:13168   */\n    tag_549:\n        /* \"#utility.yul\":13085:13090   */\n      0x00\n        /* \"#utility.yul\":13116:13122   */\n      dup2\n        /* \"#utility.yul\":13110:13123   */\n      mload\n        /* \"#utility.yul\":13101:13123   */\n      swap1\n      pop\n        /* \"#utility.yul\":13132:13162   */\n      tag_716\n        /* \"#utility.yul\":13156:13161   */\n      dup2\n        /* \"#utility.yul\":13132:13162   */\n      tag_523\n      jump\t// in\n    tag_716:\n        /* \"#utility.yul\":13031:13168   */\n      swap3\n      swap2\n      pop\n      pop\n      jump\t// out\n        /* \"#utility.yul\":13174:13519   */\n    tag_118:\n        /* \"#utility.yul\":13241:13247   */\n      0x00\n        /* \"#utility.yul\":13290:13292   */\n      0x20\n        /* \"#utility.yul\":13278:13287   */\n      dup3\n        /* \"#utility.yul\":13269:13276   */\n      dup5\n        /* \"#utility.yul\":13265:13288   */\n      sub\n        /* \"#utility.yul\":13261:13293   */\n      slt\n        /* \"#utility.yul\":13258:13377   */\n      iszero\n      tag_718\n      jumpi\n        /* \"#utility.yul\":13296:13375   */\n      tag_719\n      tag_509\n      jump\t// in\n    tag_719:\n        /* \"#utility.yul\":13258:13377   */\n    tag_718:\n        /* \"#utility.yul\":13416:13417   */\n      0x00\n        /* \"#utility.yul\":13441:13502   */\n      tag_720\n        /* \"#utility.yul\":13494:13501   */\n      dup5\n        /* \"#utility.yul\":13485:13491   */\n      dup3\n        /* \"#utility.yul\":13474:13483   */\n      dup6\n        /* \"#utility.yul\":13470:13492   */\n      add\n        /* \"#utility.yul\":13441:13502   */\n      tag_549\n      jump\t// in\n    tag_720:\n        /* \"#utility.yul\":13431:13502   */\n      swap2\n      pop\n        /* \"#utility.yul\":13387:13512   */\n      pop\n        /* \"#utility.yul\":13174:13519   */\n      swap3\n      swap2\n      pop\n      pop\n      jump\t// out\n        /* \"#utility.yul\":13525:13746   */\n    tag_550:\n        /* \"#utility.yul\":13665:13699   */\n      0x537943726f774261727465723a204261736520436f6e74726163742050617573\n        /* \"#utility.yul\":13661:13662   */\n      0x00\n        /* \"#utility.yul\":13653:13659   */\n      dup3\n        /* \"#utility.yul\":13649:13663   */\n      add\n        /* \"#utility.yul\":13642:13700   */\n      mstore\n        /* \"#utility.yul\":13734:13738   */\n      0x6564000000000000000000000000000000000000000000000000000000000000\n        /* \"#utility.yul\":13729:13731   */\n      0x20\n        /* \"#utility.yul\":13721:13727   */\n      dup3\n        /* \"#utility.yul\":13717:13732   */\n      add\n        /* \"#utility.yul\":13710:13739   */\n      mstore\n        /* \"#utility.yul\":13525:13746   */\n      pop\n      jump\t// out\n        /* \"#utility.yul\":13752:14118   */\n    tag_551:\n        /* \"#utility.yul\":13894:13897   */\n      0x00\n        /* \"#utility.yul\":13915:13982   */\n      tag_723\n        /* \"#utility.yul\":13979:13981   */\n      0x22\n        /* \"#utility.yul\":13974:13977   */\n      dup4\n        /* \"#utility.yul\":13915:13982   */\n      tag_544\n      jump\t// in\n    tag_723:\n        /* \"#utility.yul\":13908:13982   */\n      swap2\n      pop\n        /* \"#utility.yul\":13991:14084   */\n      tag_724\n        /* \"#utility.yul\":14080:14083   */\n      dup3\n        /* \"#utility.yul\":13991:14084   */\n      tag_550\n      jump\t// in\n    tag_724:\n        /* \"#utility.yul\":14109:14111   */\n      0x40\n        /* \"#utility.yul\":14104:14107   */\n      dup3\n        /* \"#utility.yul\":14100:14112   */\n      add\n        /* \"#utility.yul\":14093:14112   */\n      swap1\n      pop\n        /* \"#utility.yul\":13752:14118   */\n      swap2\n      swap1\n      pop\n      jump\t// out\n        /* \"#utility.yul\":14124:14543   */\n    tag_121:\n        /* \"#utility.yul\":14290:14294   */\n      0x00\n        /* \"#utility.yul\":14328:14330   */\n      0x20\n        /* \"#utility.yul\":14317:14326   */\n      dup3\n        /* \"#utility.yul\":14313:14331   */\n      add\n        /* \"#utility.yul\":14305:14331   */\n      swap1\n      pop\n        /* \"#utility.yul\":14377:14386   */\n      dup2\n        /* \"#utility.yul\":14371:14375   */\n      dup2\n        /* \"#utility.yul\":14367:14387   */\n      sub\n        /* \"#utility.yul\":14363:14364   */\n      0x00\n        /* \"#utility.yul\":14352:14361   */\n      dup4\n        /* \"#utility.yul\":14348:14365   */\n      add\n        /* \"#utility.yul\":14341:14388   */\n      mstore\n        /* \"#utility.yul\":14405:14536   */\n      tag_726\n        /* \"#utility.yul\":14531:14535   */\n      dup2\n        /* \"#utility.yul\":14405:14536   */\n      tag_551\n      jump\t// in\n    tag_726:\n        /* \"#utility.yul\":14397:14536   */\n      swap1\n      pop\n        /* \"#utility.yul\":14124:14543   */\n      swap2\n      swap1\n      pop\n      jump\t// out\n        /* \"#utility.yul\":14549:14773   */\n    tag_552:\n        /* \"#utility.yul\":14689:14723   */\n      0x537943726f774261727465723a204d554c54495f54524144455f4e4f545f454e\n        /* \"#utility.yul\":14685:14686   */\n      0x00\n        /* \"#utility.yul\":14677:14683   */\n      dup3\n        /* \"#utility.yul\":14673:14687   */\n      add\n        /* \"#utility.yul\":14666:14724   */\n      mstore\n        /* \"#utility.yul\":14758:14765   */\n      0x41424c4544000000000000000000000000000000000000000000000000000000\n        /* \"#utility.yul\":14753:14755   */\n      0x20\n        /* \"#utility.yul\":14745:14751   */\n      dup3\n        /* \"#utility.yul\":14741:14756   */\n      add\n        /* \"#utility.yul\":14734:14766   */\n      mstore\n        /* \"#utility.yul\":14549:14773   */\n      pop\n      jump\t// out\n        /* \"#utility.yul\":14779:15145   */\n    tag_553:\n        /* \"#utility.yul\":14921:14924   */\n      0x00\n        /* \"#utility.yul\":14942:15009   */\n      tag_729\n        /* \"#utility.yul\":15006:15008   */\n      0x25\n        /* \"#utility.yul\":15001:15004   */\n      dup4\n        /* \"#utility.yul\":14942:15009   */\n      tag_544\n      jump\t// in\n    tag_729:\n        /* \"#utility.yul\":14935:15009   */\n      swap2\n      pop\n        /* \"#utility.yul\":15018:15111   */\n      tag_730\n        /* \"#utility.yul\":15107:15110   */\n      dup3\n        /* \"#utility.yul\":15018:15111   */\n      tag_552\n      jump\t// in\n    tag_730:\n        /* \"#utility.yul\":15136:15138   */\n      0x40\n        /* \"#utility.yul\":15131:15134   */\n      dup3\n        /* \"#utility.yul\":15127:15139   */\n      add\n        /* \"#utility.yul\":15120:15139   */\n      swap1\n      pop\n        /* \"#utility.yul\":14779:15145   */\n      swap2\n      swap1\n      pop\n      jump\t// out\n        /* \"#utility.yul\":15151:15570   */\n    tag_125:\n        /* \"#utility.yul\":15317:15321   */\n      0x00\n        /* \"#utility.yul\":15355:15357   */\n      0x20\n        /* \"#utility.yul\":15344:15353   */\n      dup3\n        /* \"#utility.yul\":15340:15358   */\n      add\n        /* \"#utility.yul\":15332:15358   */\n      swap1\n      pop\n        /* \"#utility.yul\":15404:15413   */\n      dup2\n        /* \"#utility.yul\":15398:15402   */\n      dup2\n        /* \"#utility.yul\":15394:15414   */\n      sub\n        /* \"#utility.yul\":15390:15391   */\n      0x00\n        /* \"#utility.yul\":15379:15388   */\n      dup4\n        /* \"#utility.yul\":15375:15392   */\n      add\n        /* \"#utility.yul\":15368:15415   */\n      mstore\n        /* \"#utility.yul\":15432:15563   */\n      tag_732\n        /* \"#utility.yul\":15558:15562   */\n      dup2\n        /* \"#utility.yul\":15432:15563   */\n      tag_553\n      jump\t// in\n    tag_732:\n        /* \"#utility.yul\":15424:15563   */\n      swap1\n      pop\n        /* \"#utility.yul\":15151:15570   */\n      swap2\n      swap1\n      pop\n      jump\t// out\n        /* \"#utility.yul\":15576:15796   */\n    tag_554:\n        /* \"#utility.yul\":15716:15750   */\n      0x537943726f774261727465723a20494e56414c49445f4241525445525f545950\n        /* \"#utility.yul\":15712:15713   */\n      0x00\n        /* \"#utility.yul\":15704:15710   */\n      dup3\n        /* \"#utility.yul\":15700:15714   */\n      add\n        /* \"#utility.yul\":15693:15751   */\n      mstore\n        /* \"#utility.yul\":15785:15788   */\n      0x4500000000000000000000000000000000000000000000000000000000000000\n        /* \"#utility.yul\":15780:15782   */\n      0x20\n        /* \"#utility.yul\":15772:15778   */\n      dup3\n        /* \"#utility.yul\":15768:15783   */\n      add\n        /* \"#utility.yul\":15761:15789   */\n      mstore\n        /* \"#utility.yul\":15576:15796   */\n      pop\n      jump\t// out\n        /* \"#utility.yul\":15802:16168   */\n    tag_555:\n        /* \"#utility.yul\":15944:15947   */\n      0x00\n        /* \"#utility.yul\":15965:16032   */\n      tag_735\n        /* \"#utility.yul\":16029:16031   */\n      0x21\n        /* \"#utility.yul\":16024:16027   */\n      dup4\n        /* \"#utility.yul\":15965:16032   */\n      tag_544\n      jump\t// in\n    tag_735:\n        /* \"#utility.yul\":15958:16032   */\n      swap2\n      pop\n        /* \"#utility.yul\":16041:16134   */\n      tag_736\n        /* \"#utility.yul\":16130:16133   */\n      dup3\n        /* \"#utility.yul\":16041:16134   */\n      tag_554\n      jump\t// in\n    tag_736:\n        /* \"#utility.yul\":16159:16161   */\n      0x40\n        /* \"#utility.yul\":16154:16157   */\n      dup3\n        /* \"#utility.yul\":16150:16162   */\n      add\n        /* \"#utility.yul\":16143:16162   */\n      swap1\n      pop\n        /* \"#utility.yul\":15802:16168   */\n      swap2\n      swap1\n      pop\n      jump\t// out\n        /* \"#utility.yul\":16174:16593   */\n    tag_134:\n        /* \"#utility.yul\":16340:16344   */\n      0x00\n        /* \"#utility.yul\":16378:16380   */\n      0x20\n        /* \"#utility.yul\":16367:16376   */\n      dup3\n        /* \"#utility.yul\":16363:16381   */\n      add\n        /* \"#utility.yul\":16355:16381   */\n      swap1\n      pop\n        /* \"#utility.yul\":16427:16436   */\n      dup2\n        /* \"#utility.yul\":16421:16425   */\n      dup2\n        /* \"#utility.yul\":16417:16437   */\n      sub\n        /* \"#utility.yul\":16413:16414   */\n      0x00\n        /* \"#utility.yul\":16402:16411   */\n      dup4\n        /* \"#utility.yul\":16398:16415   */\n      add\n        /* \"#utility.yul\":16391:16438   */\n      mstore\n        /* \"#utility.yul\":16455:16586   */\n      tag_738\n        /* \"#utility.yul\":16581:16585   */\n      dup2\n        /* \"#utility.yul\":16455:16586   */\n      tag_555\n      jump\t// in\n    tag_738:\n        /* \"#utility.yul\":16447:16586   */\n      swap1\n      pop\n        /* \"#utility.yul\":16174:16593   */\n      swap2\n      swap1\n      pop\n      jump\t// out\n        /* \"#utility.yul\":16599:16769   */\n    tag_556:\n        /* \"#utility.yul\":16739:16761   */\n      0x537943726f774261727465723a20414354495645000000000000000000000000\n        /* \"#utility.yul\":16735:16736   */\n      0x00\n        /* \"#utility.yul\":16727:16733   */\n      dup3\n        /* \"#utility.yul\":16723:16737   */\n      add\n        /* \"#utility.yul\":16716:16762   */\n      mstore\n        /* \"#utility.yul\":16599:16769   */\n      pop\n      jump\t// out\n        /* \"#utility.yul\":16775:17141   */\n    tag_557:\n        /* \"#utility.yul\":16917:16920   */\n      0x00\n        /* \"#utility.yul\":16938:17005   */\n      tag_741\n        /* \"#utility.yul\":17002:17004   */\n      0x14\n        /* \"#utility.yul\":16997:17000   */\n      dup4\n        /* \"#utility.yul\":16938:17005   */\n      tag_544\n      jump\t// in\n    tag_741:\n        /* \"#utility.yul\":16931:17005   */\n      swap2\n      pop\n        /* \"#utility.yul\":17014:17107   */\n      tag_742\n        /* \"#utility.yul\":17103:17106   */\n      dup3\n        /* \"#utility.yul\":17014:17107   */\n      tag_556\n      jump\t// in\n    tag_742:\n        /* \"#utility.yul\":17132:17134   */\n      0x20\n        /* \"#utility.yul\":17127:17130   */\n      dup3\n        /* \"#utility.yul\":17123:17135   */\n      add\n        /* \"#utility.yul\":17116:17135   */\n      swap1\n      pop\n        /* \"#utility.yul\":16775:17141   */\n      swap2\n      swap1\n      pop\n      jump\t// out\n        /* \"#utility.yul\":17147:17566   */\n    tag_168:\n        /* \"#utility.yul\":17313:17317   */\n      0x00\n        /* \"#utility.yul\":17351:17353   */\n      0x20\n        /* \"#utility.yul\":17340:17349   */\n      dup3\n        /* \"#utility.yul\":17336:17354   */\n      add\n        /* \"#utility.yul\":17328:17354   */\n      swap1\n      pop\n        /* \"#utility.yul\":17400:17409   */\n      dup2\n        /* \"#utility.yul\":17394:17398   */\n      dup2\n        /* \"#utility.yul\":17390:17410   */\n      sub\n        /* \"#utility.yul\":17386:17387   */\n      0x00\n        /* \"#utility.yul\":17375:17384   */\n      dup4\n        /* \"#utility.yul\":17371:17388   */\n      add\n        /* \"#utility.yul\":17364:17411   */\n      mstore\n        /* \"#utility.yul\":17428:17559   */\n      tag_744\n        /* \"#utility.yul\":17554:17558   */\n      dup2\n        /* \"#utility.yul\":17428:17559   */\n      tag_557\n      jump\t// in\n    tag_744:\n        /* \"#utility.yul\":17420:17559   */\n      swap1\n      pop\n        /* \"#utility.yul\":17147:17566   */\n      swap2\n      swap1\n      pop\n      jump\t// out\n        /* \"#utility.yul\":17572:17754   */\n    tag_558:\n        /* \"#utility.yul\":17712:17746   */\n      0x4f776e61626c653a2063616c6c6572206973206e6f7420746865206f776e6572\n        /* \"#utility.yul\":17708:17709   */\n      0x00\n        /* \"#utility.yul\":17700:17706   */\n      dup3\n        /* \"#utility.yul\":17696:17710   */\n      add\n        /* \"#utility.yul\":17689:17747   */\n      mstore\n        /* \"#utility.yul\":17572:17754   */\n      pop\n      jump\t// out\n        /* \"#utility.yul\":17760:18126   */\n    tag_559:\n        /* \"#utility.yul\":17902:17905   */\n      0x00\n        /* \"#utility.yul\":17923:17990   */\n      tag_747\n        /* \"#utility.yul\":17987:17989   */\n      0x20\n        /* \"#utility.yul\":17982:17985   */\n      dup4\n        /* \"#utility.yul\":17923:17990   */\n      tag_544\n      jump\t// in\n    tag_747:\n        /* \"#utility.yul\":17916:17990   */\n      swap2\n      pop\n        /* \"#utility.yul\":17999:18092   */\n      tag_748\n        /* \"#utility.yul\":18088:18091   */\n      dup3\n        /* \"#utility.yul\":17999:18092   */\n      tag_558\n      jump\t// in\n    tag_748:\n        /* \"#utility.yul\":18117:18119   */\n      0x20\n        /* \"#utility.yul\":18112:18115   */\n      dup3\n        /* \"#utility.yul\":18108:18120   */\n      add\n        /* \"#utility.yul\":18101:18120   */\n      swap1\n      pop\n        /* \"#utility.yul\":17760:18126   */\n      swap2\n      swap1\n      pop\n      jump\t// out\n        /* \"#utility.yul\":18132:18551   */\n    tag_178:\n        /* \"#utility.yul\":18298:18302   */\n      0x00\n        /* \"#utility.yul\":18336:18338   */\n      0x20\n        /* \"#utility.yul\":18325:18334   */\n      dup3\n        /* \"#utility.yul\":18321:18339   */\n      add\n        /* \"#utility.yul\":18313:18339   */\n      swap1\n      pop\n        /* \"#utility.yul\":18385:18394   */\n      dup2\n        /* \"#utility.yul\":18379:18383   */\n      dup2\n        /* \"#utility.yul\":18375:18395   */\n      sub\n        /* \"#utility.yul\":18371:18372   */\n      0x00\n        /* \"#utility.yul\":18360:18369   */\n      dup4\n        /* \"#utility.yul\":18356:18373   */\n      add\n        /* \"#utility.yul\":18349:18396   */\n      mstore\n        /* \"#utility.yul\":18413:18544   */\n      tag_750\n        /* \"#utility.yul\":18539:18543   */\n      dup2\n        /* \"#utility.yul\":18413:18544   */\n      tag_559\n      jump\t// in\n    tag_750:\n        /* \"#utility.yul\":18405:18544   */\n      swap1\n      pop\n        /* \"#utility.yul\":18132:18551   */\n      swap2\n      swap1\n      pop\n      jump\t// out\n        /* \"#utility.yul\":18557:18700   */\n    tag_560:\n        /* \"#utility.yul\":18614:18619   */\n      0x00\n        /* \"#utility.yul\":18645:18651   */\n      dup2\n        /* \"#utility.yul\":18639:18652   */\n      mload\n        /* \"#utility.yul\":18630:18652   */\n      swap1\n      pop\n        /* \"#utility.yul\":18661:18694   */\n      tag_752\n        /* \"#utility.yul\":18688:18693   */\n      dup2\n        /* \"#utility.yul\":18661:18694   */\n      tag_512\n      jump\t// in\n    tag_752:\n        /* \"#utility.yul\":18557:18700   */\n      swap3\n      swap2\n      pop\n      pop\n      jump\t// out\n        /* \"#utility.yul\":18706:19057   */\n    tag_184:\n        /* \"#utility.yul\":18776:18782   */\n      0x00\n        /* \"#utility.yul\":18825:18827   */\n      0x20\n        /* \"#utility.yul\":18813:18822   */\n      dup3\n        /* \"#utility.yul\":18804:18811   */\n      dup5\n        /* \"#utility.yul\":18800:18823   */\n      sub\n        /* \"#utility.yul\":18796:18828   */\n      slt\n        /* \"#utility.yul\":18793:18912   */\n      iszero\n      tag_754\n      jumpi\n        /* \"#utility.yul\":18831:18910   */\n      tag_755\n      tag_509\n      jump\t// in\n    tag_755:\n        /* \"#utility.yul\":18793:18912   */\n    tag_754:\n        /* \"#utility.yul\":18951:18952   */\n      0x00\n        /* \"#utility.yul\":18976:19040   */\n      tag_756\n        /* \"#utility.yul\":19032:19039   */\n      dup5\n        /* \"#utility.yul\":19023:19029   */\n      dup3\n        /* \"#utility.yul\":19012:19021   */\n      dup6\n        /* \"#utility.yul\":19008:19030   */\n      add\n        /* \"#utility.yul\":18976:19040   */\n      tag_560\n      jump\t// in\n    tag_756:\n        /* \"#utility.yul\":18966:19040   */\n      swap2\n      pop\n        /* \"#utility.yul\":18922:19050   */\n      pop\n        /* \"#utility.yul\":18706:19057   */\n      swap3\n      swap2\n      pop\n      pop\n      jump\t// out\n        /* \"#utility.yul\":19063:19616   */\n    tag_218:\n        /* \"#utility.yul\":19240:19244   */\n      0x00\n        /* \"#utility.yul\":19278:19281   */\n      0x80\n        /* \"#utility.yul\":19267:19276   */\n      dup3\n        /* \"#utility.yul\":19263:19282   */\n      add\n        /* \"#utility.yul\":19255:19282   */\n      swap1\n      pop\n        /* \"#utility.yul\":19292:19363   */\n      tag_758\n        /* \"#utility.yul\":19360:19361   */\n      0x00\n        /* \"#utility.yul\":19349:19358   */\n      dup4\n        /* \"#utility.yul\":19345:19362   */\n      add\n        /* \"#utility.yul\":19336:19342   */\n      dup8\n        /* \"#utility.yul\":19292:19363   */\n      tag_529\n      jump\t// in\n    tag_758:\n        /* \"#utility.yul\":19373:19445   */\n      tag_759\n        /* \"#utility.yul\":19441:19443   */\n      0x20\n        /* \"#utility.yul\":19430:19439   */\n      dup4\n        /* \"#utility.yul\":19426:19444   */\n      add\n        /* \"#utility.yul\":19417:19423   */\n      dup7\n        /* \"#utility.yul\":19373:19445   */\n      tag_529\n      jump\t// in\n    tag_759:\n        /* \"#utility.yul\":19455:19527   */\n      tag_760\n        /* \"#utility.yul\":19523:19525   */\n      0x40\n        /* \"#utility.yul\":19512:19521   */\n      dup4\n        /* \"#utility.yul\":19508:19526   */\n      add\n        /* \"#utility.yul\":19499:19505   */\n      dup6\n        /* \"#utility.yul\":19455:19527   */\n      tag_516\n      jump\t// in\n    tag_760:\n        /* \"#utility.yul\":19537:19609   */\n      tag_761\n        /* \"#utility.yul\":19605:19607   */\n      0x60\n        /* \"#utility.yul\":19594:19603   */\n      dup4\n        /* \"#utility.yul\":19590:19608   */\n      add\n        /* \"#utility.yul\":19581:19587   */\n      dup5\n        /* \"#utility.yul\":19537:19609   */\n      tag_516\n      jump\t// in\n    tag_761:\n        /* \"#utility.yul\":19063:19616   */\n      swap6\n      swap5\n      pop\n      pop\n      pop\n      pop\n      pop\n      jump\t// out\n        /* \"#utility.yul\":19622:19795   */\n    tag_561:\n        /* \"#utility.yul\":19762:19787   */\n      0x537943726f774261727465723a20464f5242494444454e000000000000000000\n        /* \"#utility.yul\":19758:19759   */\n      0x00\n        /* \"#utility.yul\":19750:19756   */\n      dup3\n        /* \"#utility.yul\":19746:19760   */\n      add\n        /* \"#utility.yul\":19739:19788   */\n      mstore\n        /* \"#utility.yul\":19622:19795   */\n      pop\n      jump\t// out\n        /* \"#utility.yul\":19801:20167   */\n    tag_562:\n        /* \"#utility.yul\":19943:19946   */\n      0x00\n        /* \"#utility.yul\":19964:20031   */\n      tag_764\n        /* \"#utility.yul\":20028:20030   */\n      0x17\n        /* \"#utility.yul\":20023:20026   */\n      dup4\n        /* \"#utility.yul\":19964:20031   */\n      tag_544\n      jump\t// in\n    tag_764:\n        /* \"#utility.yul\":19957:20031   */\n      swap2\n      pop\n        /* \"#utility.yul\":20040:20133   */\n      tag_765\n        /* \"#utility.yul\":20129:20132   */\n      dup3\n        /* \"#utility.yul\":20040:20133   */\n      tag_561\n      jump\t// in\n    tag_765:\n        /* \"#utility.yul\":20158:20160   */\n      0x20\n        /* \"#utility.yul\":20153:20156   */\n      dup3\n        /* \"#utility.yul\":20149:20161   */\n      add\n        /* \"#utility.yul\":20142:20161   */\n      swap1\n      pop\n        /* \"#utility.yul\":19801:20167   */\n      swap2\n      swap1\n      pop\n      jump\t// out\n        /* \"#utility.yul\":20173:20592   */\n    tag_255:\n        /* \"#utility.yul\":20339:20343   */\n      0x00\n        /* \"#utility.yul\":20377:20379   */\n      0x20\n        /* \"#utility.yul\":20366:20375   */\n      dup3\n        /* \"#utility.yul\":20362:20380   */\n      add\n        /* \"#utility.yul\":20354:20380   */\n      swap1\n      pop\n        /* \"#utility.yul\":20426:20435   */\n      dup2\n        /* \"#utility.yul\":20420:20424   */\n      dup2\n        /* \"#utility.yul\":20416:20436   */\n      sub\n        /* \"#utility.yul\":20412:20413   */\n      0x00\n        /* \"#utility.yul\":20401:20410   */\n      dup4\n        /* \"#utility.yul\":20397:20414   */\n      add\n        /* \"#utility.yul\":20390:20437   */\n      mstore\n        /* \"#utility.yul\":20454:20585   */\n      tag_767\n        /* \"#utility.yul\":20580:20584   */\n      dup2\n        /* \"#utility.yul\":20454:20585   */\n      tag_562\n      jump\t// in\n    tag_767:\n        /* \"#utility.yul\":20446:20585   */\n      swap1\n      pop\n        /* \"#utility.yul\":20173:20592   */\n      swap2\n      swap1\n      pop\n      jump\t// out\n        /* \"#utility.yul\":20598:20818   */\n    tag_563:\n        /* \"#utility.yul\":20738:20772   */\n      0x537943726f774261727465723a20414c52454144595f494e495449414c495a45\n        /* \"#utility.yul\":20734:20735   */\n      0x00\n        /* \"#utility.yul\":20726:20732   */\n      dup3\n        /* \"#utility.yul\":20722:20736   */\n      add\n        /* \"#utility.yul\":20715:20773   */\n      mstore\n        /* \"#utility.yul\":20807:20810   */\n      0x4400000000000000000000000000000000000000000000000000000000000000\n        /* \"#utility.yul\":20802:20804   */\n      0x20\n        /* \"#utility.yul\":20794:20800   */\n      dup3\n        /* \"#utility.yul\":20790:20805   */\n      add\n        /* \"#utility.yul\":20783:20811   */\n      mstore\n        /* \"#utility.yul\":20598:20818   */\n      pop\n      jump\t// out\n        /* \"#utility.yul\":20824:21190   */\n    tag_564:\n        /* \"#utility.yul\":20966:20969   */\n      0x00\n        /* \"#utility.yul\":20987:21054   */\n      tag_770\n        /* \"#utility.yul\":21051:21053   */\n      0x21\n        /* \"#utility.yul\":21046:21049   */\n      dup4\n        /* \"#utility.yul\":20987:21054   */\n      tag_544\n      jump\t// in\n    tag_770:\n        /* \"#utility.yul\":20980:21054   */\n      swap2\n      pop\n        /* \"#utility.yul\":21063:21156   */\n      tag_771\n        /* \"#utility.yul\":21152:21155   */\n      dup3\n        /* \"#utility.yul\":21063:21156   */\n      tag_563\n      jump\t// in\n    tag_771:\n        /* \"#utility.yul\":21181:21183   */\n      0x40\n        /* \"#utility.yul\":21176:21179   */\n      dup3\n        /* \"#utility.yul\":21172:21184   */\n      add\n        /* \"#utility.yul\":21165:21184   */\n      swap1\n      pop\n        /* \"#utility.yul\":20824:21190   */\n      swap2\n      swap1\n      pop\n      jump\t// out\n        /* \"#utility.yul\":21196:21615   */\n    tag_258:\n        /* \"#utility.yul\":21362:21366   */\n      0x00\n        /* \"#utility.yul\":21400:21402   */\n      0x20\n        /* \"#utility.yul\":21389:21398   */\n      dup3\n        /* \"#utility.yul\":21385:21403   */\n      add\n        /* \"#utility.yul\":21377:21403   */\n      swap1\n      pop\n        /* \"#utility.yul\":21449:21458   */\n      dup2\n        /* \"#utility.yul\":21443:21447   */\n      dup2\n        /* \"#utility.yul\":21439:21459   */\n      sub\n        /* \"#utility.yul\":21435:21436   */\n      0x00\n        /* \"#utility.yul\":21424:21433   */\n      dup4\n        /* \"#utility.yul\":21420:21437   */\n      add\n        /* \"#utility.yul\":21413:21460   */\n      mstore\n        /* \"#utility.yul\":21477:21608   */\n      tag_773\n        /* \"#utility.yul\":21603:21607   */\n      dup2\n        /* \"#utility.yul\":21477:21608   */\n      tag_564\n      jump\t// in\n    tag_773:\n        /* \"#utility.yul\":21469:21608   */\n      swap1\n      pop\n        /* \"#utility.yul\":21196:21615   */\n      swap2\n      swap1\n      pop\n      jump\t// out\n        /* \"#utility.yul\":21621:21798   */\n    tag_565:\n        /* \"#utility.yul\":21761:21790   */\n      0x537943726f774261727465723a20504153545f444541444c494e450000000000\n        /* \"#utility.yul\":21757:21758   */\n      0x00\n        /* \"#utility.yul\":21749:21755   */\n      dup3\n        /* \"#utility.yul\":21745:21759   */\n      add\n        /* \"#utility.yul\":21738:21791   */\n      mstore\n        /* \"#utility.yul\":21621:21798   */\n      pop\n      jump\t// out\n        /* \"#utility.yul\":21804:22170   */\n    tag_566:\n        /* \"#utility.yul\":21946:21949   */\n      0x00\n        /* \"#utility.yul\":21967:22034   */\n      tag_776\n        /* \"#utility.yul\":22031:22033   */\n      0x1b\n        /* \"#utility.yul\":22026:22029   */\n      dup4\n        /* \"#utility.yul\":21967:22034   */\n      tag_544\n      jump\t// in\n    tag_776:\n        /* \"#utility.yul\":21960:22034   */\n      swap2\n      pop\n        /* \"#utility.yul\":22043:22136   */\n      tag_777\n        /* \"#utility.yul\":22132:22135   */\n      dup3\n        /* \"#utility.yul\":22043:22136   */\n      tag_565\n      jump\t// in\n    tag_777:\n        /* \"#utility.yul\":22161:22163   */\n      0x20\n        /* \"#utility.yul\":22156:22159   */\n      dup3\n        /* \"#utility.yul\":22152:22164   */\n      add\n        /* \"#utility.yul\":22145:22164   */\n      swap1\n      pop\n        /* \"#utility.yul\":21804:22170   */\n      swap2\n      swap1\n      pop\n      jump\t// out\n        /* \"#utility.yul\":22176:22595   */\n    tag_261:\n        /* \"#utility.yul\":22342:22346   */\n      0x00\n        /* \"#utility.yul\":22380:22382   */\n      0x20\n        /* \"#utility.yul\":22369:22378   */\n      dup3\n        /* \"#utility.yul\":22365:22383   */\n      add\n        /* \"#utility.yul\":22357:22383   */\n      swap1\n      pop\n        /* \"#utility.yul\":22429:22438   */\n      dup2\n        /* \"#utility.yul\":22423:22427   */\n      dup2\n        /* \"#utility.yul\":22419:22439   */\n      sub\n        /* \"#utility.yul\":22415:22416   */\n      0x00\n        /* \"#utility.yul\":22404:22413   */\n      dup4\n        /* \"#utility.yul\":22400:22417   */\n      add\n        /* \"#utility.yul\":22393:22440   */\n      mstore\n        /* \"#utility.yul\":22457:22588   */\n      tag_779\n        /* \"#utility.yul\":22583:22587   */\n      dup2\n        /* \"#utility.yul\":22457:22588   */\n      tag_566\n      jump\t// in\n    tag_779:\n        /* \"#utility.yul\":22449:22588   */\n      swap1\n      pop\n        /* \"#utility.yul\":22176:22595   */\n      swap2\n      swap1\n      pop\n      jump\t// out\n        /* \"#utility.yul\":22601:22822   */\n    tag_567:\n        /* \"#utility.yul\":22741:22775   */\n      0x537943726f774261727465723a20494e53554646494349454e545f4445504f53\n        /* \"#utility.yul\":22737:22738   */\n      0x00\n        /* \"#utility.yul\":22729:22735   */\n      dup3\n        /* \"#utility.yul\":22725:22739   */\n      add\n        /* \"#utility.yul\":22718:22776   */\n      mstore\n        /* \"#utility.yul\":22810:22814   */\n      0x4954000000000000000000000000000000000000000000000000000000000000\n        /* \"#utility.yul\":22805:22807   */\n      0x20\n        /* \"#utility.yul\":22797:22803   */\n      dup3\n        /* \"#utility.yul\":22793:22808   */\n      add\n        /* \"#utility.yul\":22786:22815   */\n      mstore\n        /* \"#utility.yul\":22601:22822   */\n      pop\n      jump\t// out\n        /* \"#utility.yul\":22828:23194   */\n    tag_568:\n        /* \"#utility.yul\":22970:22973   */\n      0x00\n        /* \"#utility.yul\":22991:23058   */\n      tag_782\n        /* \"#utility.yul\":23055:23057   */\n      0x22\n        /* \"#utility.yul\":23050:23053   */\n      dup4\n        /* \"#utility.yul\":22991:23058   */\n      tag_544\n      jump\t// in\n    tag_782:\n        /* \"#utility.yul\":22984:23058   */\n      swap2\n      pop\n        /* \"#utility.yul\":23067:23160   */\n      tag_783\n        /* \"#utility.yul\":23156:23159   */\n      dup3\n        /* \"#utility.yul\":23067:23160   */\n      tag_567\n      jump\t// in\n    tag_783:\n        /* \"#utility.yul\":23185:23187   */\n      0x40\n        /* \"#utility.yul\":23180:23183   */\n      dup3\n        /* \"#utility.yul\":23176:23188   */\n      add\n        /* \"#utility.yul\":23169:23188   */\n      swap1\n      pop\n        /* \"#utility.yul\":22828:23194   */\n      swap2\n      swap1\n      pop\n      jump\t// out\n        /* \"#utility.yul\":23200:23619   */\n    tag_268:\n        /* \"#utility.yul\":23366:23370   */\n      0x00\n        /* \"#utility.yul\":23404:23406   */\n      0x20\n        /* \"#utility.yul\":23393:23402   */\n      dup3\n        /* \"#utility.yul\":23389:23407   */\n      add\n        /* \"#utility.yul\":23381:23407   */\n      swap1\n      pop\n        /* \"#utility.yul\":23453:23462   */\n      dup2\n        /* \"#utility.yul\":23447:23451   */\n      dup2\n        /* \"#utility.yul\":23443:23463   */\n      sub\n        /* \"#utility.yul\":23439:23440   */\n      0x00\n        /* \"#utility.yul\":23428:23437   */\n      dup4\n        /* \"#utility.yul\":23424:23441   */\n      add\n        /* \"#utility.yul\":23417:23464   */\n      mstore\n        /* \"#utility.yul\":23481:23612   */\n      tag_785\n        /* \"#utility.yul\":23607:23611   */\n      dup2\n        /* \"#utility.yul\":23481:23612   */\n      tag_568\n      jump\t// in\n    tag_785:\n        /* \"#utility.yul\":23473:23612   */\n      swap1\n      pop\n        /* \"#utility.yul\":23200:23619   */\n      swap2\n      swap1\n      pop\n      jump\t// out\n        /* \"#utility.yul\":23625:23805   */\n    tag_569:\n        /* \"#utility.yul\":23673:23750   */\n      0x4e487b7100000000000000000000000000000000000000000000000000000000\n        /* \"#utility.yul\":23670:23671   */\n      0x00\n        /* \"#utility.yul\":23663:23751   */\n      mstore\n        /* \"#utility.yul\":23770:23774   */\n      0x11\n        /* \"#utility.yul\":23767:23768   */\n      0x04\n        /* \"#utility.yul\":23760:23775   */\n      mstore\n        /* \"#utility.yul\":23794:23798   */\n      0x24\n        /* \"#utility.yul\":23791:23792   */\n      0x00\n        /* \"#utility.yul\":23784:23799   */\n      revert\n        /* \"#utility.yul\":23811:24159   */\n    tag_352:\n        /* \"#utility.yul\":23851:23858   */\n      0x00\n        /* \"#utility.yul\":23874:23894   */\n      tag_788\n        /* \"#utility.yul\":23892:23893   */\n      dup3\n        /* \"#utility.yul\":23874:23894   */\n      tag_511\n      jump\t// in\n    tag_788:\n        /* \"#utility.yul\":23869:23894   */\n      swap2\n      pop\n        /* \"#utility.yul\":23908:23928   */\n      tag_789\n        /* \"#utility.yul\":23926:23927   */\n      dup4\n        /* \"#utility.yul\":23908:23928   */\n      tag_511\n      jump\t// in\n    tag_789:\n        /* \"#utility.yul\":23903:23928   */\n      swap3\n      pop\n        /* \"#utility.yul\":24096:24097   */\n      dup2\n        /* \"#utility.yul\":24028:24094   */\n      0xffffffffffffffffffffffffffffffffffffffffffffffffffffffffffffffff\n        /* \"#utility.yul\":24024:24098   */\n      div\n        /* \"#utility.yul\":24021:24022   */\n      dup4\n        /* \"#utility.yul\":24018:24099   */\n      gt\n        /* \"#utility.yul\":24013:24014   */\n      dup3\n        /* \"#utility.yul\":24006:24015   */\n      iszero\n        /* \"#utility.yul\":23999:24016   */\n      iszero\n        /* \"#utility.yul\":23995:24100   */\n      and\n        /* \"#utility.yul\":23992:24123   */\n      iszero\n      tag_790\n      jumpi\n        /* \"#utility.yul\":24103:24121   */\n      tag_791\n      tag_569\n      jump\t// in\n    tag_791:\n        /* \"#utility.yul\":23992:24123   */\n    tag_790:\n        /* \"#utility.yul\":24151:24152   */\n      dup3\n        /* \"#utility.yul\":24148:24149   */\n      dup3\n        /* \"#utility.yul\":24144:24153   */\n      mul\n        /* \"#utility.yul\":24133:24153   */\n      swap1\n      pop\n        /* \"#utility.yul\":23811:24159   */\n      swap3\n      swap2\n      pop\n      pop\n      jump\t// out\n        /* \"#utility.yul\":24165:24345   */\n    tag_570:\n        /* \"#utility.yul\":24213:24290   */\n      0x4e487b7100000000000000000000000000000000000000000000000000000000\n        /* \"#utility.yul\":24210:24211   */\n      0x00\n        /* \"#utility.yul\":24203:24291   */\n      mstore\n        /* \"#utility.yul\":24310:24314   */\n      0x12\n        /* \"#utility.yul\":24307:24308   */\n      0x04\n        /* \"#utility.yul\":24300:24315   */\n      mstore\n        /* \"#utility.yul\":24334:24338   */\n      0x24\n        /* \"#utility.yul\":24331:24332   */\n      0x00\n        /* \"#utility.yul\":24324:24339   */\n      revert\n        /* \"#utility.yul\":24351:24536   */\n    tag_354:\n        /* \"#utility.yul\":24391:24392   */\n      0x00\n        /* \"#utility.yul\":24408:24428   */\n      tag_794\n        /* \"#utility.yul\":24426:24427   */\n      dup3\n        /* \"#utility.yul\":24408:24428   */\n      tag_511\n      jump\t// in\n    tag_794:\n        /* \"#utility.yul\":24403:24428   */\n      swap2\n      pop\n        /* \"#utility.yul\":24442:24462   */\n      tag_795\n        /* \"#utility.yul\":24460:24461   */\n      dup4\n        /* \"#utility.yul\":24442:24462   */\n      tag_511\n      jump\t// in\n    tag_795:\n        /* \"#utility.yul\":24437:24462   */\n      swap3\n      pop\n        /* \"#utility.yul\":24481:24482   */\n      dup3\n        /* \"#utility.yul\":24471:24506   */\n      tag_796\n      jumpi\n        /* \"#utility.yul\":24486:24504   */\n      tag_797\n      tag_570\n      jump\t// in\n    tag_797:\n        /* \"#utility.yul\":24471:24506   */\n    tag_796:\n        /* \"#utility.yul\":24528:24529   */\n      dup3\n        /* \"#utility.yul\":24525:24526   */\n      dup3\n        /* \"#utility.yul\":24521:24530   */\n      div\n        /* \"#utility.yul\":24516:24530   */\n      swap1\n      pop\n        /* \"#utility.yul\":24351:24536   */\n      swap3\n      swap2\n      pop\n      pop\n      jump\t// out\n        /* \"#utility.yul\":24542:24722   */\n    tag_361:\n        /* \"#utility.yul\":24590:24667   */\n      0x4e487b7100000000000000000000000000000000000000000000000000000000\n        /* \"#utility.yul\":24587:24588   */\n      0x00\n        /* \"#utility.yul\":24580:24668   */\n      mstore\n        /* \"#utility.yul\":24687:24691   */\n      0x41\n        /* \"#utility.yul\":24684:24685   */\n      0x04\n        /* \"#utility.yul\":24677:24692   */\n      mstore\n        /* \"#utility.yul\":24711:24715   */\n      0x24\n        /* \"#utility.yul\":24708:24709   */\n      0x00\n        /* \"#utility.yul\":24701:24716   */\n      revert\n        /* \"#utility.yul\":24728:24908   */\n    tag_374:\n        /* \"#utility.yul\":24776:24853   */\n      0x4e487b7100000000000000000000000000000000000000000000000000000000\n        /* \"#utility.yul\":24773:24774   */\n      0x00\n        /* \"#utility.yul\":24766:24854   */\n      mstore\n        /* \"#utility.yul\":24873:24877   */\n      0x32\n        /* \"#utility.yul\":24870:24871   */\n      0x04\n        /* \"#utility.yul\":24863:24878   */\n      mstore\n        /* \"#utility.yul\":24897:24901   */\n      0x24\n        /* \"#utility.yul\":24894:24895   */\n      0x00\n        /* \"#utility.yul\":24887:24902   */\n      revert\n        /* \"#utility.yul\":24914:25147   */\n    tag_389:\n        /* \"#utility.yul\":24953:24956   */\n      0x00\n        /* \"#utility.yul\":24976:25000   */\n      tag_801\n        /* \"#utility.yul\":24994:24999   */\n      dup3\n        /* \"#utility.yul\":24976:25000   */\n      tag_511\n      jump\t// in\n    tag_801:\n        /* \"#utility.yul\":24967:25000   */\n      swap2\n      pop\n        /* \"#utility.yul\":25022:25088   */\n      0xffffffffffffffffffffffffffffffffffffffffffffffffffffffffffffffff\n        /* \"#utility.yul\":25015:25020   */\n      dup3\n        /* \"#utility.yul\":25012:25089   */\n      sub\n        /* \"#utility.yul\":25009:25112   */\n      tag_802\n      jumpi\n        /* \"#utility.yul\":25092:25110   */\n      tag_803\n      tag_569\n      jump\t// in\n    tag_803:\n        /* \"#utility.yul\":25009:25112   */\n    tag_802:\n        /* \"#utility.yul\":25139:25140   */\n      0x01\n        /* \"#utility.yul\":25132:25137   */\n      dup3\n        /* \"#utility.yul\":25128:25141   */\n      add\n        /* \"#utility.yul\":25121:25141   */\n      swap1\n      pop\n        /* \"#utility.yul\":24914:25147   */\n      swap2\n      swap1\n      pop\n      jump\t// out\n        /* \"#utility.yul\":25153:25378   */\n    tag_571:\n        /* \"#utility.yul\":25293:25327   */\n      0x4f776e61626c653a206e6577206f776e657220697320746865207a65726f2061\n        /* \"#utility.yul\":25289:25290   */\n      0x00\n        /* \"#utility.yul\":25281:25287   */\n      dup3\n        /* \"#utility.yul\":25277:25291   */\n      add\n        /* \"#utility.yul\":25270:25328   */\n      mstore\n        /* \"#utility.yul\":25362:25370   */\n      0x6464726573730000000000000000000000000000000000000000000000000000\n        /* \"#utility.yul\":25357:25359   */\n      0x20\n        /* \"#utility.yul\":25349:25355   */\n      dup3\n        /* \"#utility.yul\":25345:25360   */\n      add\n        /* \"#utility.yul\":25338:25371   */\n      mstore\n        /* \"#utility.yul\":25153:25378   */\n      pop\n      jump\t// out\n        /* \"#utility.yul\":25384:25750   */\n    tag_572:\n        /* \"#utility.yul\":25526:25529   */\n      0x00\n        /* \"#utility.yul\":25547:25614   */\n      tag_806\n        /* \"#utility.yul\":25611:25613   */\n      0x26\n        /* \"#utility.yul\":25606:25609   */\n      dup4\n        /* \"#utility.yul\":25547:25614   */\n      tag_544\n      jump\t// in\n    tag_806:\n        /* \"#utility.yul\":25540:25614   */\n      swap2\n      pop\n        /* \"#utility.yul\":25623:25716   */\n      tag_807\n        /* \"#utility.yul\":25712:25715   */\n      dup3\n        /* \"#utility.yul\":25623:25716   */\n      tag_571\n      jump\t// in\n    tag_807:\n        /* \"#utility.yul\":25741:25743   */\n      0x40\n        /* \"#utility.yul\":25736:25739   */\n      dup3\n        /* \"#utility.yul\":25732:25744   */\n      add\n        /* \"#utility.yul\":25725:25744   */\n      swap1\n      pop\n        /* \"#utility.yul\":25384:25750   */\n      swap2\n      swap1\n      pop\n      jump\t// out\n        /* \"#utility.yul\":25756:26175   */\n    tag_398:\n        /* \"#utility.yul\":25922:25926   */\n      0x00\n        /* \"#utility.yul\":25960:25962   */\n      0x20\n        /* \"#utility.yul\":25949:25958   */\n      dup3\n        /* \"#utility.yul\":25945:25963   */\n      add\n        /* \"#utility.yul\":25937:25963   */\n      swap1\n      pop\n        /* \"#utility.yul\":26009:26018   */\n      dup2\n        /* \"#utility.yul\":26003:26007   */\n      dup2\n        /* \"#utility.yul\":25999:26019   */\n      sub\n        /* \"#utility.yul\":25995:25996   */\n      0x00\n        /* \"#utility.yul\":25984:25993   */\n      dup4\n        /* \"#utility.yul\":25980:25997   */\n      add\n        /* \"#utility.yul\":25973:26020   */\n      mstore\n        /* \"#utility.yul\":26037:26168   */\n      tag_809\n        /* \"#utility.yul\":26163:26167   */\n      dup2\n        /* \"#utility.yul\":26037:26168   */\n      tag_572\n      jump\t// in\n    tag_809:\n        /* \"#utility.yul\":26029:26168   */\n      swap1\n      pop\n        /* \"#utility.yul\":25756:26175   */\n      swap2\n      swap1\n      pop\n      jump\t// out\n        /* \"#utility.yul\":26181:26402   */\n    tag_573:\n        /* \"#utility.yul\":26321:26355   */\n      0x537943726f774261727465723a20494e53554646494349454e545f42414c414e\n        /* \"#utility.yul\":26317:26318   */\n      0x00\n        /* \"#utility.yul\":26309:26315   */\n      dup3\n        /* \"#utility.yul\":26305:26319   */\n      add\n        /* \"#utility.yul\":26298:26356   */\n      mstore\n        /* \"#utility.yul\":26390:26394   */\n      0x4345000000000000000000000000000000000000000000000000000000000000\n        /* \"#utility.yul\":26385:26387   */\n      0x20\n        /* \"#utility.yul\":26377:26383   */\n      dup3\n        /* \"#utility.yul\":26373:26388   */\n      add\n        /* \"#utility.yul\":26366:26395   */\n      mstore\n        /* \"#utility.yul\":26181:26402   */\n      pop\n      jump\t// out\n        /* \"#utility.yul\":26408:26774   */\n    tag_574:\n        /* \"#utility.yul\":26550:26553   */\n      0x00\n        /* \"#utility.yul\":26571:26638   */\n      tag_812\n        /* \"#utility.yul\":26635:26637   */\n      0x22\n        /* \"#utility.yul\":26630:26633   */\n      dup4\n        /* \"#utility.yul\":26571:26638   */\n      tag_544\n      jump\t// in\n    tag_812:\n        /* \"#utility.yul\":26564:26638   */\n      swap2\n      pop\n        /* \"#utility.yul\":26647:26740   */\n      tag_813\n        /* \"#utility.yul\":26736:26739   */\n      dup3\n        /* \"#utility.yul\":26647:26740   */\n      tag_573\n      jump\t// in\n    tag_813:\n        /* \"#utility.yul\":26765:26767   */\n      0x40\n        /* \"#utility.yul\":26760:26763   */\n      dup3\n        /* \"#utility.yul\":26756:26768   */\n      add\n        /* \"#utility.yul\":26749:26768   */\n      swap1\n      pop\n        /* \"#utility.yul\":26408:26774   */\n      swap2\n      swap1\n      pop\n      jump\t// out\n        /* \"#utility.yul\":26780:27199   */\n    tag_407:\n        /* \"#utility.yul\":26946:26950   */\n      0x00\n        /* \"#utility.yul\":26984:26986   */\n      0x20\n        /* \"#utility.yul\":26973:26982   */\n      dup3\n        /* \"#utility.yul\":26969:26987   */\n      add\n        /* \"#utility.yul\":26961:26987   */\n      swap1\n      pop\n        /* \"#utility.yul\":27033:27042   */\n      dup2\n        /* \"#utility.yul\":27027:27031   */\n      dup2\n        /* \"#utility.yul\":27023:27043   */\n      sub\n        /* \"#utility.yul\":27019:27020   */\n      0x00\n        /* \"#utility.yul\":27008:27017   */\n      dup4\n        /* \"#utility.yul\":27004:27021   */\n      add\n        /* \"#utility.yul\":26997:27044   */\n      mstore\n        /* \"#utility.yul\":27061:27192   */\n      tag_815\n        /* \"#utility.yul\":27187:27191   */\n      dup2\n        /* \"#utility.yul\":27061:27192   */\n      tag_574\n      jump\t// in\n    tag_815:\n        /* \"#utility.yul\":27053:27192   */\n      swap1\n      pop\n        /* \"#utility.yul\":26780:27199   */\n      swap2\n      swap1\n      pop\n      jump\t// out\n        /* \"#utility.yul\":27205:27435   */\n    tag_575:\n        /* \"#utility.yul\":27345:27379   */\n      0x537943726f774261727465723a20494e53554646494349454e545f434f4e5452\n        /* \"#utility.yul\":27341:27342   */\n      0x00\n        /* \"#utility.yul\":27333:27339   */\n      dup3\n        /* \"#utility.yul\":27329:27343   */\n      add\n        /* \"#utility.yul\":27322:27380   */\n      mstore\n        /* \"#utility.yul\":27414:27427   */\n      0x4143545f42414c414e4345000000000000000000000000000000000000000000\n        /* \"#utility.yul\":27409:27411   */\n      0x20\n        /* \"#utility.yul\":27401:27407   */\n      dup3\n        /* \"#utility.yul\":27397:27412   */\n      add\n        /* \"#utility.yul\":27390:27428   */\n      mstore\n        /* \"#utility.yul\":27205:27435   */\n      pop\n      jump\t// out\n        /* \"#utility.yul\":27441:27807   */\n    tag_576:\n        /* \"#utility.yul\":27583:27586   */\n      0x00\n        /* \"#utility.yul\":27604:27671   */\n      tag_818\n        /* \"#utility.yul\":27668:27670   */\n      0x2b\n        /* \"#utility.yul\":27663:27666   */\n      dup4\n        /* \"#utility.yul\":27604:27671   */\n      tag_544\n      jump\t// in\n    tag_818:\n        /* \"#utility.yul\":27597:27671   */\n      swap2\n      pop\n        /* \"#utility.yul\":27680:27773   */\n      tag_819\n        /* \"#utility.yul\":27769:27772   */\n      dup3\n        /* \"#utility.yul\":27680:27773   */\n      tag_575\n      jump\t// in\n    tag_819:\n        /* \"#utility.yul\":27798:27800   */\n      0x40\n        /* \"#utility.yul\":27793:27796   */\n      dup3\n        /* \"#utility.yul\":27789:27801   */\n      add\n        /* \"#utility.yul\":27782:27801   */\n      swap1\n      pop\n        /* \"#utility.yul\":27441:27807   */\n      swap2\n      swap1\n      pop\n      jump\t// out\n        /* \"#utility.yul\":27813:28232   */\n    tag_415:\n        /* \"#utility.yul\":27979:27983   */\n      0x00\n        /* \"#utility.yul\":28017:28019   */\n      0x20\n        /* \"#utility.yul\":28006:28015   */\n      dup3\n        /* \"#utility.yul\":28002:28020   */\n      add\n        /* \"#utility.yul\":27994:28020   */\n      swap1\n      pop\n        /* \"#utility.yul\":28066:28075   */\n      dup2\n        /* \"#utility.yul\":28060:28064   */\n      dup2\n        /* \"#utility.yul\":28056:28076   */\n      sub\n        /* \"#utility.yul\":28052:28053   */\n      0x00\n        /* \"#utility.yul\":28041:28050   */\n      dup4\n        /* \"#utility.yul\":28037:28054   */\n      add\n        /* \"#utility.yul\":28030:28077   */\n      mstore\n        /* \"#utility.yul\":28094:28225   */\n      tag_821\n        /* \"#utility.yul\":28220:28224   */\n      dup2\n        /* \"#utility.yul\":28094:28225   */\n      tag_576\n      jump\t// in\n    tag_821:\n        /* \"#utility.yul\":28086:28225   */\n      swap1\n      pop\n        /* \"#utility.yul\":27813:28232   */\n      swap2\n      swap1\n      pop\n      jump\t// out\n        /* \"#utility.yul\":28238:28336   */\n    tag_577:\n        /* \"#utility.yul\":28289:28295   */\n      0x00\n        /* \"#utility.yul\":28323:28328   */\n      dup2\n        /* \"#utility.yul\":28317:28329   */\n      mload\n        /* \"#utility.yul\":28307:28329   */\n      swap1\n      pop\n        /* \"#utility.yul\":28238:28336   */\n      swap2\n      swap1\n      pop\n      jump\t// out\n        /* \"#utility.yul\":28342:28489   */\n    tag_578:\n        /* \"#utility.yul\":28443:28454   */\n      0x00\n        /* \"#utility.yul\":28480:28483   */\n      dup2\n        /* \"#utility.yul\":28465:28483   */\n      swap1\n      pop\n        /* \"#utility.yul\":28342:28489   */\n      swap3\n      swap2\n      pop\n      pop\n      jump\t// out\n        /* \"#utility.yul\":28495:28802   */\n    tag_579:\n        /* \"#utility.yul\":28563:28564   */\n      0x00\n        /* \"#utility.yul\":28573:28686   */\n    tag_825:\n        /* \"#utility.yul\":28587:28593   */\n      dup4\n        /* \"#utility.yul\":28584:28585   */\n      dup2\n        /* \"#utility.yul\":28581:28594   */\n      lt\n        /* \"#utility.yul\":28573:28686   */\n      iszero\n      tag_827\n      jumpi\n        /* \"#utility.yul\":28672:28673   */\n      dup1\n        /* \"#utility.yul\":28667:28670   */\n      dup3\n        /* \"#utility.yul\":28663:28674   */\n      add\n        /* \"#utility.yul\":28657:28675   */\n      mload\n        /* \"#utility.yul\":28653:28654   */\n      dup2\n        /* \"#utility.yul\":28648:28651   */\n      dup5\n        /* \"#utility.yul\":28644:28655   */\n      add\n        /* \"#utility.yul\":28637:28676   */\n      mstore\n        /* \"#utility.yul\":28609:28611   */\n      0x20\n        /* \"#utility.yul\":28606:28607   */\n      dup2\n        /* \"#utility.yul\":28602:28612   */\n      add\n        /* \"#utility.yul\":28597:28612   */\n      swap1\n      pop\n        /* \"#utility.yul\":28573:28686   */\n      jump(tag_825)\n    tag_827:\n        /* \"#utility.yul\":28704:28710   */\n      dup4\n        /* \"#utility.yul\":28701:28702   */\n      dup2\n        /* \"#utility.yul\":28698:28711   */\n      gt\n        /* \"#utility.yul\":28695:28796   */\n      iszero\n      tag_828\n      jumpi\n        /* \"#utility.yul\":28784:28785   */\n      0x00\n        /* \"#utility.yul\":28775:28781   */\n      dup5\n        /* \"#utility.yul\":28770:28773   */\n      dup5\n        /* \"#utility.yul\":28766:28782   */\n      add\n        /* \"#utility.yul\":28759:28786   */\n      mstore\n        /* \"#utility.yul\":28695:28796   */\n    tag_828:\n        /* \"#utility.yul\":28544:28802   */\n      pop\n        /* \"#utility.yul\":28495:28802   */\n      pop\n      pop\n      pop\n      jump\t// out\n        /* \"#utility.yul\":28808:29181   */\n    tag_580:\n        /* \"#utility.yul\":28912:28915   */\n      0x00\n        /* \"#utility.yul\":28940:28978   */\n      tag_830\n        /* \"#utility.yul\":28972:28977   */\n      dup3\n        /* \"#utility.yul\":28940:28978   */\n      tag_577\n      jump\t// in\n    tag_830:\n        /* \"#utility.yul\":28994:29082   */\n      tag_831\n        /* \"#utility.yul\":29075:29081   */\n      dup2\n        /* \"#utility.yul\":29070:29073   */\n      dup6\n        /* \"#utility.yul\":28994:29082   */\n      tag_578\n      jump\t// in\n    tag_831:\n        /* \"#utility.yul\":28987:29082   */\n      swap4\n      pop\n        /* \"#utility.yul\":29091:29143   */\n      tag_832\n        /* \"#utility.yul\":29136:29142   */\n      dup2\n        /* \"#utility.yul\":29131:29134   */\n      dup6\n        /* \"#utility.yul\":29124:29128   */\n      0x20\n        /* \"#utility.yul\":29117:29122   */\n      dup7\n        /* \"#utility.yul\":29113:29129   */\n      add\n        /* \"#utility.yul\":29091:29143   */\n      tag_579\n      jump\t// in\n    tag_832:\n        /* \"#utility.yul\":29168:29174   */\n      dup1\n        /* \"#utility.yul\":29163:29166   */\n      dup5\n        /* \"#utility.yul\":29159:29175   */\n      add\n        /* \"#utility.yul\":29152:29175   */\n      swap2\n      pop\n        /* \"#utility.yul\":28916:29181   */\n      pop\n        /* \"#utility.yul\":28808:29181   */\n      swap3\n      swap2\n      pop\n      pop\n      jump\t// out\n        /* \"#utility.yul\":29187:29458   */\n    tag_455:\n        /* \"#utility.yul\":29317:29320   */\n      0x00\n        /* \"#utility.yul\":29339:29432   */\n      tag_834\n        /* \"#utility.yul\":29428:29431   */\n      dup3\n        /* \"#utility.yul\":29419:29425   */\n      dup5\n        /* \"#utility.yul\":29339:29432   */\n      tag_580\n      jump\t// in\n    tag_834:\n        /* \"#utility.yul\":29332:29432   */\n      swap2\n      pop\n        /* \"#utility.yul\":29449:29452   */\n      dup2\n        /* \"#utility.yul\":29442:29452   */\n      swap1\n      pop\n        /* \"#utility.yul\":29187:29458   */\n      swap3\n      swap2\n      pop\n      pop\n      jump\t// out\n        /* \"#utility.yul\":29464:29686   */\n    tag_581:\n        /* \"#utility.yul\":29604:29638   */\n      0x5472616e7366657248656c7065723a204554485f5452414e534645525f464149\n        /* \"#utility.yul\":29600:29601   */\n      0x00\n        /* \"#utility.yul\":29592:29598   */\n      dup3\n        /* \"#utility.yul\":29588:29602   */\n      add\n        /* \"#utility.yul\":29581:29639   */\n      mstore\n        /* \"#utility.yul\":29673:29678   */\n      0x4c45440000000000000000000000000000000000000000000000000000000000\n        /* \"#utility.yul\":29668:29670   */\n      0x20\n        /* \"#utility.yul\":29660:29666   */\n      dup3\n        /* \"#utility.yul\":29656:29671   */\n      add\n        /* \"#utility.yul\":29649:29679   */\n      mstore\n        /* \"#utility.yul\":29464:29686   */\n      pop\n      jump\t// out\n        /* \"#utility.yul\":29692:30058   */\n    tag_582:\n        /* \"#utility.yul\":29834:29837   */\n      0x00\n        /* \"#utility.yul\":29855:29922   */\n      tag_837\n        /* \"#utility.yul\":29919:29921   */\n      0x23\n        /* \"#utility.yul\":29914:29917   */\n      dup4\n        /* \"#utility.yul\":29855:29922   */\n      tag_544\n      jump\t// in\n    tag_837:\n        /* \"#utility.yul\":29848:29922   */\n      swap2\n      pop\n        /* \"#utility.yul\":29931:30024   */\n      tag_838\n        /* \"#utility.yul\":30020:30023   */\n      dup3\n        /* \"#utility.yul\":29931:30024   */\n      tag_581\n      jump\t// in\n    tag_838:\n        /* \"#utility.yul\":30049:30051   */\n      0x40\n        /* \"#utility.yul\":30044:30047   */\n      dup3\n        /* \"#utility.yul\":30040:30052   */\n      add\n        /* \"#utility.yul\":30033:30052   */\n      swap1\n      pop\n        /* \"#utility.yul\":29692:30058   */\n      swap2\n      swap1\n      pop\n      jump\t// out\n        /* \"#utility.yul\":30064:30483   */\n    tag_461:\n        /* \"#utility.yul\":30230:30234   */\n      0x00\n        /* \"#utility.yul\":30268:30270   */\n      0x20\n        /* \"#utility.yul\":30257:30266   */\n      dup3\n        /* \"#utility.yul\":30253:30271   */\n      add\n        /* \"#utility.yul\":30245:30271   */\n      swap1\n      pop\n        /* \"#utility.yul\":30317:30326   */\n      dup2\n        /* \"#utility.yul\":30311:30315   */\n      dup2\n        /* \"#utility.yul\":30307:30327   */\n      sub\n        /* \"#utility.yul\":30303:30304   */\n      0x00\n        /* \"#utility.yul\":30292:30301   */\n      dup4\n        /* \"#utility.yul\":30288:30305   */\n      add\n        /* \"#utility.yul\":30281:30328   */\n      mstore\n        /* \"#utility.yul\":30345:30476   */\n      tag_840\n        /* \"#utility.yul\":30471:30475   */\n      dup2\n        /* \"#utility.yul\":30345:30476   */\n      tag_582\n      jump\t// in\n    tag_840:\n        /* \"#utility.yul\":30337:30476   */\n      swap1\n      pop\n        /* \"#utility.yul\":30064:30483   */\n      swap2\n      swap1\n      pop\n      jump\t// out\n        /* \"#utility.yul\":30489:30821   */\n    tag_464:\n        /* \"#utility.yul\":30610:30614   */\n      0x00\n        /* \"#utility.yul\":30648:30650   */\n      0x40\n        /* \"#utility.yul\":30637:30646   */\n      dup3\n        /* \"#utility.yul\":30633:30651   */\n      add\n        /* \"#utility.yul\":30625:30651   */\n      swap1\n      pop\n        /* \"#utility.yul\":30661:30732   */\n      tag_842\n        /* \"#utility.yul\":30729:30730   */\n      0x00\n        /* \"#utility.yul\":30718:30727   */\n      dup4\n        /* \"#utility.yul\":30714:30731   */\n      add\n        /* \"#utility.yul\":30705:30711   */\n      dup6\n        /* \"#utility.yul\":30661:30732   */\n      tag_529\n      jump\t// in\n    tag_842:\n        /* \"#utility.yul\":30742:30814   */\n      tag_843\n        /* \"#utility.yul\":30810:30812   */\n      0x20\n        /* \"#utility.yul\":30799:30808   */\n      dup4\n        /* \"#utility.yul\":30795:30813   */\n      add\n        /* \"#utility.yul\":30786:30792   */\n      dup5\n        /* \"#utility.yul\":30742:30814   */\n      tag_516\n      jump\t// in\n    tag_843:\n        /* \"#utility.yul\":30489:30821   */\n      swap4\n      swap3\n      pop\n      pop\n      pop\n      jump\t// out\n        /* \"#utility.yul\":30827:31008   */\n    tag_583:\n        /* \"#utility.yul\":30967:31000   */\n      0x5472616e7366657248656c7065723a205452414e534645525f4641494c454400\n        /* \"#utility.yul\":30963:30964   */\n      0x00\n        /* \"#utility.yul\":30955:30961   */\n      dup3\n        /* \"#utility.yul\":30951:30965   */\n      add\n        /* \"#utility.yul\":30944:31001   */\n      mstore\n        /* \"#utility.yul\":30827:31008   */\n      pop\n      jump\t// out\n        /* \"#utility.yul\":31014:31380   */\n    tag_584:\n        /* \"#utility.yul\":31156:31159   */\n      0x00\n        /* \"#utility.yul\":31177:31244   */\n      tag_846\n        /* \"#utility.yul\":31241:31243   */\n      0x1f\n        /* \"#utility.yul\":31236:31239   */\n      dup4\n        /* \"#utility.yul\":31177:31244   */\n      tag_544\n      jump\t// in\n    tag_846:\n        /* \"#utility.yul\":31170:31244   */\n      swap2\n      pop\n        /* \"#utility.yul\":31253:31346   */\n      tag_847\n        /* \"#utility.yul\":31342:31345   */\n      dup3\n        /* \"#utility.yul\":31253:31346   */\n      tag_583\n      jump\t// in\n    tag_847:\n        /* \"#utility.yul\":31371:31373   */\n      0x20\n        /* \"#utility.yul\":31366:31369   */\n      dup3\n        /* \"#utility.yul\":31362:31374   */\n      add\n        /* \"#utility.yul\":31355:31374   */\n      swap1\n      pop\n        /* \"#utility.yul\":31014:31380   */\n      swap2\n      swap1\n      pop\n      jump\t// out\n        /* \"#utility.yul\":31386:31805   */\n    tag_474:\n        /* \"#utility.yul\":31552:31556   */\n      0x00\n        /* \"#utility.yul\":31590:31592   */\n      0x20\n        /* \"#utility.yul\":31579:31588   */\n      dup3\n        /* \"#utility.yul\":31575:31593   */\n      add\n        /* \"#utility.yul\":31567:31593   */\n      swap1\n      pop\n        /* \"#utility.yul\":31639:31648   */\n      dup2\n        /* \"#utility.yul\":31633:31637   */\n      dup2\n        /* \"#utility.yul\":31629:31649   */\n      sub\n        /* \"#utility.yul\":31625:31626   */\n      0x00\n        /* \"#utility.yul\":31614:31623   */\n      dup4\n        /* \"#utility.yul\":31610:31627   */\n      add\n        /* \"#utility.yul\":31603:31650   */\n      mstore\n        /* \"#utility.yul\":31667:31798   */\n      tag_849\n        /* \"#utility.yul\":31793:31797   */\n      dup2\n        /* \"#utility.yul\":31667:31798   */\n      tag_584\n      jump\t// in\n    tag_849:\n        /* \"#utility.yul\":31659:31798   */\n      swap1\n      pop\n        /* \"#utility.yul\":31386:31805   */\n      swap2\n      swap1\n      pop\n      jump\t// out\n        /* \"#utility.yul\":31811:32253   */\n    tag_497:\n        /* \"#utility.yul\":31960:31964   */\n      0x00\n        /* \"#utility.yul\":31998:32000   */\n      0x60\n        /* \"#utility.yul\":31987:31996   */\n      dup3\n        /* \"#utility.yul\":31983:32001   */\n      add\n        /* \"#utility.yul\":31975:32001   */\n      swap1\n      pop\n        /* \"#utility.yul\":32011:32082   */\n      tag_851\n        /* \"#utility.yul\":32079:32080   */\n      0x00\n        /* \"#utility.yul\":32068:32077   */\n      dup4\n        /* \"#utility.yul\":32064:32081   */\n      add\n        /* \"#utility.yul\":32055:32061   */\n      dup7\n        /* \"#utility.yul\":32011:32082   */\n      tag_529\n      jump\t// in\n    tag_851:\n        /* \"#utility.yul\":32092:32164   */\n      tag_852\n        /* \"#utility.yul\":32160:32162   */\n      0x20\n        /* \"#utility.yul\":32149:32158   */\n      dup4\n        /* \"#utility.yul\":32145:32163   */\n      add\n        /* \"#utility.yul\":32136:32142   */\n      dup6\n        /* \"#utility.yul\":32092:32164   */\n      tag_529\n      jump\t// in\n    tag_852:\n        /* \"#utility.yul\":32174:32246   */\n      tag_853\n        /* \"#utility.yul\":32242:32244   */\n      0x40\n        /* \"#utility.yul\":32231:32240   */\n      dup4\n        /* \"#utility.yul\":32227:32245   */\n      add\n        /* \"#utility.yul\":32218:32224   */\n      dup5\n        /* \"#utility.yul\":32174:32246   */\n      tag_516\n      jump\t// in\n    tag_853:\n        /* \"#utility.yul\":31811:32253   */\n      swap5\n      swap4\n      pop\n      pop\n      pop\n      pop\n      jump\t// out\n        /* \"#utility.yul\":32259:32482   */\n    tag_585:\n        /* \"#utility.yul\":32399:32433   */\n      0x5472616e7366657248656c7065723a205452414e534645525f46524f4d5f4641\n        /* \"#utility.yul\":32395:32396   */\n      0x00\n        /* \"#utility.yul\":32387:32393   */\n      dup3\n        /* \"#utility.yul\":32383:32397   */\n      add\n        /* \"#utility.yul\":32376:32434   */\n      mstore\n        /* \"#utility.yul\":32468:32474   */\n      0x494c454400000000000000000000000000000000000000000000000000000000\n        /* \"#utility.yul\":32463:32465   */\n      0x20\n        /* \"#utility.yul\":32455:32461   */\n      dup3\n        /* \"#utility.yul\":32451:32466   */\n      add\n        /* \"#utility.yul\":32444:32475   */\n      mstore\n        /* \"#utility.yul\":32259:32482   */\n      pop\n      jump\t// out\n        /* \"#utility.yul\":32488:32854   */\n    tag_586:\n        /* \"#utility.yul\":32630:32633   */\n      0x00\n        /* \"#utility.yul\":32651:32718   */\n      tag_856\n        /* \"#utility.yul\":32715:32717   */\n      0x24\n        /* \"#utility.yul\":32710:32713   */\n      dup4\n        /* \"#utility.yul\":32651:32718   */\n      tag_544\n      jump\t// in\n    tag_856:\n        /* \"#utility.yul\":32644:32718   */\n      swap2\n      pop\n        /* \"#utility.yul\":32727:32820   */\n      tag_857\n        /* \"#utility.yul\":32816:32819   */\n      dup3\n        /* \"#utility.yul\":32727:32820   */\n      tag_585\n      jump\t// in\n    tag_857:\n        /* \"#utility.yul\":32845:32847   */\n      0x40\n        /* \"#utility.yul\":32840:32843   */\n      dup3\n        /* \"#utility.yul\":32836:32848   */\n      add\n        /* \"#utility.yul\":32829:32848   */\n      swap1\n      pop\n        /* \"#utility.yul\":32488:32854   */\n      swap2\n      swap1\n      pop\n      jump\t// out\n        /* \"#utility.yul\":32860:33279   */\n    tag_507:\n        /* \"#utility.yul\":33026:33030   */\n      0x00\n        /* \"#utility.yul\":33064:33066   */\n      0x20\n        /* \"#utility.yul\":33053:33062   */\n      dup3\n        /* \"#utility.yul\":33049:33067   */\n      add\n        /* \"#utility.yul\":33041:33067   */\n      swap1\n      pop\n        /* \"#utility.yul\":33113:33122   */\n      dup2\n        /* \"#utility.yul\":33107:33111   */\n      dup2\n        /* \"#utility.yul\":33103:33123   */\n      sub\n        /* \"#utility.yul\":33099:33100   */\n      0x00\n        /* \"#utility.yul\":33088:33097   */\n      dup4\n        /* \"#utility.yul\":33084:33101   */\n      add\n        /* \"#utility.yul\":33077:33124   */\n      mstore\n        /* \"#utility.yul\":33141:33272   */\n      tag_859\n        /* \"#utility.yul\":33267:33271   */\n      dup2\n        /* \"#utility.yul\":33141:33272   */\n      tag_586\n      jump\t// in\n    tag_859:\n        /* \"#utility.yul\":33133:33272   */\n      swap1\n      pop\n        /* \"#utility.yul\":32860:33279   */\n      swap2\n      swap1\n      pop\n      jump\t// out\n\n    auxdata: 0xa26469706673582212201edb8d1405a477d2790376bd7dd7f532ba9f038632f6aa394c7fbf51e61ded0564736f6c634300080d0033\n}\n",
				"bytecode": {
					"linkReferences": {},
					"object": "60a06040526000600460006101000a81548160ff0219169083151502179055503480156200002c57600080fd5b506200004d620000416200008760201b60201c565b6200008f60201b60201c565b3373ffffffffffffffffffffffffffffffffffffffff1660808173ffffffffffffffffffffffffffffffffffffffff168152505062000153565b600033905090565b60008060009054906101000a900473ffffffffffffffffffffffffffffffffffffffff169050816000806101000a81548173ffffffffffffffffffffffffffffffffffffffff021916908373ffffffffffffffffffffffffffffffffffffffff1602179055508173ffffffffffffffffffffffffffffffffffffffff168173ffffffffffffffffffffffffffffffffffffffff167f8be0079c531659141344cd1fd0a4f28419497f9722a3daafe3b4186f6b6457e060405160405180910390a35050565b608051613f38620001bc60003960008181610493015281816106de01528181610d4001528181610ef8015281816110a00152818161153a015281816117d70152818161192e015281816119f701528181612254015281816125cd0152612b3c0152613f386000f3fe6080604052600436106101145760003560e01c806389523742116100a0578063c45a015511610064578063c45a015514610324578063d7bdfc751461034f578063dab5a8df14610359578063e43372e914610396578063f2fde38b146103c357610114565b806389523742146102745780638da5cb5b1461029f578063a09702b1146102ca578063aa6ca808146102e1578063abd050ea1461030d57610114565b80633d370b4e116100e75780633d370b4e146101ad57806340a6f1ab146101d95780634341f920146102045780635f5780e514610220578063715018a61461025d57610114565b80630d182605146101195780632ffc6887146101425780633072cf601461016b5780633ccfd60b14610196575b600080fd5b34801561012557600080fd5b50610140600480360381019061013b9190612e0b565b6103ec565b005b34801561014e57600080fd5b5061016960048036038101906101649190612e0b565b610637565b005b34801561017757600080fd5b50610180610881565b60405161018d9190612e53565b60405180910390f35b3480156101a257600080fd5b506101ab610894565b005b3480156101b957600080fd5b506101c2610deb565b6040516101d0929190612e7d565b60405180910390f35b3480156101e557600080fd5b506101ee610e4b565b6040516101fb9190612ea6565b60405180910390f35b61021e60048036038101906102199190612e0b565b610e51565b005b34801561022c57600080fd5b5061024760048036038101906102429190612f70565b61109c565b6040516102549190612e53565b60405180910390f35b34801561026957600080fd5b506102726113cf565b005b34801561028057600080fd5b50610289611457565b604051610296919061309d565b60405180910390f35b3480156102ab57600080fd5b506102b461146a565b6040516102c191906130c7565b60405180910390f35b3480156102d657600080fd5b506102df611493565b005b3480156102ed57600080fd5b506102f6611690565b6040516103049291906130e2565b60405180910390f35b34801561031957600080fd5b50610322611730565b005b34801561033057600080fd5b5061033961192c565b60405161034691906130c7565b60405180910390f35b610357611950565b005b34801561036557600080fd5b50610380600480360381019061037b9190612e0b565b611b4d565b60405161038d9190612ea6565b60405180910390f35b3480156103a257600080fd5b506103ab611b71565b6040516103ba93929190613287565b60405180910390f35b3480156103cf57600080fd5b506103ea60048036038101906103e591906132d3565b611e0d565b005b42600354101580156104015750600754600154105b610440576040517f08c379a00000000000000000000000000000000000000000000000000000000081526004016104379061335d565b60405180910390fd5b600460009054906101000a900460ff1661048f576040517f08c379a0000000000000000000000000000000000000000000000000000000008152600401610486906133c9565b60405180910390fd5b60007f000000000000000000000000000000000000000000000000000000000000000090508073ffffffffffffffffffffffffffffffffffffffff1663b187bd266040518163ffffffff1660e01b8152600401602060405180830381865afa1580156104ff573d6000803e3d6000fd5b505050506040513d601f19601f8201168201806040525081019061052391906133fe565b15610563576040517f08c379a000000000000000000000000000000000000000000000000000000000815260040161055a9061349d565b60405180910390fd5b600860009054906101000a900460ff166105b2576040517f08c379a00000000000000000000000000000000000000000000000000000000081526004016105a99061352f565b60405180910390fd5b6000600260009054906101000a900460ff1660028111156105d6576105d5613026565b5b8160028111156105e9576105e8613026565b5b14610629576040517f08c379a0000000000000000000000000000000000000000000000000000000008152600401610620906135c1565b60405180910390fd5b61063283611f04565b505050565b426003541015801561064c5750600754600154105b61068b576040517f08c379a00000000000000000000000000000000000000000000000000000000081526004016106829061335d565b60405180910390fd5b600460009054906101000a900460ff166106da576040517f08c379a00000000000000000000000000000000000000000000000000000000081526004016106d1906133c9565b60405180910390fd5b60007f000000000000000000000000000000000000000000000000000000000000000090508073ffffffffffffffffffffffffffffffffffffffff1663b187bd266040518163ffffffff1660e01b8152600401602060405180830381865afa15801561074a573d6000803e3d6000fd5b505050506040513d601f19601f8201168201806040525081019061076e91906133fe565b156107ae576040517f08c379a00000000000000000000000000000000000000000000000000000000081526004016107a59061349d565b60405180910390fd5b600860009054906101000a900460ff166107fd576040517f08c379a00000000000000000000000000000000000000000000000000000000081526004016107f49061352f565b60405180910390fd5b60028060009054906101000a900460ff1660028111156108205761081f613026565b5b81600281111561083357610832613026565b5b14610873576040517f08c379a000000000000000000000000000000000000000000000000000000000815260040161086a906135c1565b60405180910390fd5b61087c836122ec565b505050565b600460009054906101000a900460ff1681565b4260035410806108a8575060075460015410155b6108e7576040517f08c379a00000000000000000000000000000000000000000000000000000000081526004016108de9061362d565b60405180910390fd5b600460009054906101000a900460ff16610936576040517f08c379a000000000000000000000000000000000000000000000000000000000815260040161092d906133c9565b60405180910390fd5b61093e612664565b73ffffffffffffffffffffffffffffffffffffffff1661095c61146a565b73ffffffffffffffffffffffffffffffffffffffff16146109b2576040517f08c379a00000000000000000000000000000000000000000000000000000000081526004016109a990613699565b60405180910390fd5b6000600260019054906101000a900473ffffffffffffffffffffffffffffffffffffffff16905060008173ffffffffffffffffffffffffffffffffffffffff166370a08231306040518263ffffffff1660e01b8152600401610a1491906130c7565b602060405180830381865afa158015610a31573d6000803e3d6000fd5b505050506040513d601f19601f82011682018060405250810190610a5591906136ce565b90506000811115610af857600260019054906101000a900473ffffffffffffffffffffffffffffffffffffffff1673ffffffffffffffffffffffffffffffffffffffff16632e1a7d4d826040518263ffffffff1660e01b8152600401610abb9190612ea6565b600060405180830381600087803b158015610ad557600080fd5b505af1158015610ae9573d6000803e3d6000fd5b50505050610af7338261266c565b5b6000600560009054906101000a900473ffffffffffffffffffffffffffffffffffffffff1673ffffffffffffffffffffffffffffffffffffffff166370a08231306040518263ffffffff1660e01b8152600401610b5591906130c7565b602060405180830381865afa158015610b72573d6000803e3d6000fd5b505050506040513d601f19601f82011682018060405250810190610b9691906136ce565b90506000811115610bcf57610bce600560009054906101000a900473ffffffffffffffffffffffffffffffffffffffff16338361276c565b5b6000600460019054906101000a900473ffffffffffffffffffffffffffffffffffffffff1673ffffffffffffffffffffffffffffffffffffffff166370a08231306040518263ffffffff1660e01b8152600401610c2c91906130c7565b602060405180830381865afa158015610c49573d6000803e3d6000fd5b505050506040513d601f19601f82011682018060405250810190610c6d91906136ce565b90506000811115610ca657610ca5600460019054906101000a900473ffffffffffffffffffffffffffffffffffffffff16338361276c565b5b60008060006002811115610cbd57610cbc613026565b5b600260009054906101000a900460ff166002811115610cdf57610cde613026565b5b03610cef57849150839050610d3c565b600280811115610d0257610d01613026565b5b600260009054906101000a900460ff166002811115610d2457610d23613026565b5b03610d3457829150839050610d3b565b8291508490505b5b60007f000000000000000000000000000000000000000000000000000000000000000090508073ffffffffffffffffffffffffffffffffffffffff166333796a0e303386866040518563ffffffff1660e01b8152600401610da094939291906136fb565b600060405180830381600087803b158015610dba57600080fd5b505af1158015610dce573d6000803e3d6000fd5b505050503373ffffffffffffffffffffffffffffffffffffffff16ff5b600080600460009054906101000a900460ff16610e3d576040517f08c379a0000000000000000000000000000000000000000000000000000000008152600401610e34906133c9565b60405180910390fd5b600654600754915091509091565b60015481565b4260035410158015610e665750600754600154105b610ea5576040517f08c379a0000000000000000000000000000000000000000000000000000000008152600401610e9c9061335d565b60405180910390fd5b600460009054906101000a900460ff16610ef4576040517f08c379a0000000000000000000000000000000000000000000000000000000008152600401610eeb906133c9565b60405180910390fd5b60007f000000000000000000000000000000000000000000000000000000000000000090508073ffffffffffffffffffffffffffffffffffffffff1663b187bd266040518163ffffffff1660e01b8152600401602060405180830381865afa158015610f64573d6000803e3d6000fd5b505050506040513d601f19601f82011682018060405250810190610f8891906133fe565b15610fc8576040517f08c379a0000000000000000000000000000000000000000000000000000000008152600401610fbf9061349d565b60405180910390fd5b600860009054906101000a900460ff16611017576040517f08c379a000000000000000000000000000000000000000000000000000000000815260040161100e9061352f565b60405180910390fd5b6001600260009054906101000a900460ff16600281111561103b5761103a613026565b5b81600281111561104e5761104d613026565b5b1461108e576040517f08c379a0000000000000000000000000000000000000000000000000000000008152600401611085906135c1565b60405180910390fd5b611097836128a2565b505050565b60007f000000000000000000000000000000000000000000000000000000000000000073ffffffffffffffffffffffffffffffffffffffff163373ffffffffffffffffffffffffffffffffffffffff161461112c576040517f08c379a00000000000000000000000000000000000000000000000000000000081526004016111239061378c565b60405180910390fd5b600460009054906101000a900460ff161561117c576040517f08c379a00000000000000000000000000000000000000000000000000000000081526004016111739061381e565b60405180910390fd5b4284106111be576040517f08c379a00000000000000000000000000000000000000000000000000000000081526004016111b59061388a565b60405180910390fd5b858873ffffffffffffffffffffffffffffffffffffffff166370a08231306040518263ffffffff1660e01b81526004016111f891906130c7565b602060405180830381865afa158015611215573d6000803e3d6000fd5b505050506040513d601f19601f8201168201806040525081019061123991906136ce565b101561127a576040517f08c379a00000000000000000000000000000000000000000000000000000000081526004016112719061391c565b60405180910390fd5b8360038190555087600460016101000a81548173ffffffffffffffffffffffffffffffffffffffff021916908373ffffffffffffffffffffffffffffffffffffffff16021790555086600560006101000a81548173ffffffffffffffffffffffffffffffffffffffff021916908373ffffffffffffffffffffffffffffffffffffffff160217905550856006819055508460078190555088600260006101000a81548160ff0219169083600281111561133657611335613026565b5b021790555082600860006101000a81548160ff02191690831515021790555081600260016101000a81548173ffffffffffffffffffffffffffffffffffffffff021916908373ffffffffffffffffffffffffffffffffffffffff1602179055506001600460006101000a81548160ff021916908315150217905550600460009054906101000a900460ff16905098975050505050505050565b6113d7612664565b73ffffffffffffffffffffffffffffffffffffffff166113f561146a565b73ffffffffffffffffffffffffffffffffffffffff161461144b576040517f08c379a000000000000000000000000000000000000000000000000000000000815260040161144290613699565b60405180910390fd5b6114556000612bd3565b565b600260009054906101000a900460ff1681565b60008060009054906101000a900473ffffffffffffffffffffffffffffffffffffffff16905090565b42600354101580156114a85750600754600154105b6114e7576040517f08c379a00000000000000000000000000000000000000000000000000000000081526004016114de9061335d565b60405180910390fd5b600460009054906101000a900460ff16611536576040517f08c379a000000000000000000000000000000000000000000000000000000000815260040161152d906133c9565b60405180910390fd5b60007f000000000000000000000000000000000000000000000000000000000000000090508073ffffffffffffffffffffffffffffffffffffffff1663b187bd266040518163ffffffff1660e01b8152600401602060405180830381865afa1580156115a6573d6000803e3d6000fd5b505050506040513d601f19601f820116820180604052508101906115ca91906133fe565b1561160a576040517f08c379a00000000000000000000000000000000000000000000000000000000081526004016116019061349d565b60405180910390fd5b6000600260009054906101000a900460ff16600281111561162e5761162d613026565b5b81600281111561164157611640613026565b5b14611681576040517f08c379a0000000000000000000000000000000000000000000000000000000008152600401611678906135c1565b60405180910390fd5b61168c600754611f04565b5050565b600080600460009054906101000a900460ff166116e2576040517f08c379a00000000000000000000000000000000000000000000000000000000081526004016116d9906133c9565b60405180910390fd5b600460019054906101000a900473ffffffffffffffffffffffffffffffffffffffff16600560009054906101000a900473ffffffffffffffffffffffffffffffffffffffff16915091509091565b42600354101580156117455750600754600154105b611784576040517f08c379a000000000000000000000000000000000000000000000000000000000815260040161177b9061335d565b60405180910390fd5b600460009054906101000a900460ff166117d3576040517f08c379a00000000000000000000000000000000000000000000000000000000081526004016117ca906133c9565b60405180910390fd5b60007f000000000000000000000000000000000000000000000000000000000000000090508073ffffffffffffffffffffffffffffffffffffffff1663b187bd266040518163ffffffff1660e01b8152600401602060405180830381865afa158015611843573d6000803e3d6000fd5b505050506040513d601f19601f8201168201806040525081019061186791906133fe565b156118a7576040517f08c379a000000000000000000000000000000000000000000000000000000000815260040161189e9061349d565b60405180910390fd5b60028060009054906101000a900460ff1660028111156118ca576118c9613026565b5b8160028111156118dd576118dc613026565b5b1461191d576040517f08c379a0000000000000000000000000000000000000000000000000000000008152600401611914906135c1565b60405180910390fd5b6119286007546122ec565b5050565b7f000000000000000000000000000000000000000000000000000000000000000081565b42600354101580156119655750600754600154105b6119a4576040517f08c379a000000000000000000000000000000000000000000000000000000000815260040161199b9061335d565b60405180910390fd5b600460009054906101000a900460ff166119f3576040517f08c379a00000000000000000000000000000000000000000000000000000000081526004016119ea906133c9565b60405180910390fd5b60007f000000000000000000000000000000000000000000000000000000000000000090508073ffffffffffffffffffffffffffffffffffffffff1663b187bd266040518163ffffffff1660e01b8152600401602060405180830381865afa158015611a63573d6000803e3d6000fd5b505050506040513d601f19601f82011682018060405250810190611a8791906133fe565b15611ac7576040517f08c379a0000000000000000000000000000000000000000000000000000000008152600401611abe9061349d565b60405180910390fd5b6001600260009054906101000a900460ff166002811115611aeb57611aea613026565b5b816002811115611afe57611afd613026565b5b14611b3e576040517f08c379a0000000000000000000000000000000000000000000000000000000008152600401611b35906135c1565b60405180910390fd5b611b496007546128a2565b5050565b600060075460065483611b60919061396b565b611b6a91906139f4565b9050919050565b6060806060600460009054906101000a900460ff16611bc5576040517f08c379a0000000000000000000000000000000000000000000000000000000008152600401611bbc906133c9565b60405180910390fd5b600060098054905067ffffffffffffffff811115611be657611be5613a25565b5b604051908082528060200260200182016040528015611c145781602001602082028036833780820191505090505b509050600060098054905067ffffffffffffffff811115611c3857611c37613a25565b5b604051908082528060200260200182016040528015611c665781602001602082028036833780820191505090505b509050600060098054905067ffffffffffffffff811115611c8a57611c89613a25565b5b604051908082528060200260200182016040528015611cb85781602001602082028036833780820191505090505b50905060005b600980549050811015611dfb5760098181548110611cdf57611cde613a54565b5b906000526020600020906003020160000160009054906101000a900473ffffffffffffffffffffffffffffffffffffffff16848281518110611d2457611d23613a54565b5b602002602001019073ffffffffffffffffffffffffffffffffffffffff16908173ffffffffffffffffffffffffffffffffffffffff168152505060098181548110611d7257611d71613a54565b5b906000526020600020906003020160010154838281518110611d9757611d96613a54565b5b60200260200101818152505060098181548110611db757611db6613a54565b5b906000526020600020906003020160020154828281518110611ddc57611ddb613a54565b5b6020026020010181815250508080611df390613a83565b915050611cbe565b50828282955095509550505050909192565b611e15612664565b73ffffffffffffffffffffffffffffffffffffffff16611e3361146a565b73ffffffffffffffffffffffffffffffffffffffff1614611e89576040517f08c379a0000000000000000000000000000000000000000000000000000000008152600401611e8090613699565b60405180910390fd5b600073ffffffffffffffffffffffffffffffffffffffff168173ffffffffffffffffffffffffffffffffffffffff1603611ef8576040517f08c379a0000000000000000000000000000000000000000000000000000000008152600401611eef90613b3d565b60405180910390fd5b611f0181612bd3565b50565b80600560009054906101000a900473ffffffffffffffffffffffffffffffffffffffff1673ffffffffffffffffffffffffffffffffffffffff166370a08231336040518263ffffffff1660e01b8152600401611f6091906130c7565b602060405180830381865afa158015611f7d573d6000803e3d6000fd5b505050506040513d601f19601f82011682018060405250810190611fa191906136ce565b1015611fe2576040517f08c379a0000000000000000000000000000000000000000000000000000000008152600401611fd990613bcf565b60405180910390fd5b6000611fed82611b4d565b90506000600260019054906101000a900473ffffffffffffffffffffffffffffffffffffffff169050818173ffffffffffffffffffffffffffffffffffffffff166370a08231306040518263ffffffff1660e01b815260040161205091906130c7565b602060405180830381865afa15801561206d573d6000803e3d6000fd5b505050506040513d601f19601f8201168201806040525081019061209191906136ce565b10156120d2576040517f08c379a00000000000000000000000000000000000000000000000000000000081526004016120c990613c61565b60405180910390fd5b600260019054906101000a900473ffffffffffffffffffffffffffffffffffffffff1673ffffffffffffffffffffffffffffffffffffffff16632e1a7d4d836040518263ffffffff1660e01b815260040161212d9190612ea6565b600060405180830381600087803b15801561214757600080fd5b505af115801561215b573d6000803e3d6000fd5b5050505061218d600560009054906101000a900473ffffffffffffffffffffffffffffffffffffffff16333086612c97565b612197338361266c565b600960405180606001604052803373ffffffffffffffffffffffffffffffffffffffff16815260200185815260200184815250908060018154018082558091505060019003906000526020600020906003020160009091909190915060008201518160000160006101000a81548173ffffffffffffffffffffffffffffffffffffffff021916908373ffffffffffffffffffffffffffffffffffffffff1602179055506020820151816001015560408201518160020155505060007f000000000000000000000000000000000000000000000000000000000000000090508073ffffffffffffffffffffffffffffffffffffffff1663f52701b7303387876040518563ffffffff1660e01b81526004016122b494939291906136fb565b600060405180830381600087803b1580156122ce57600080fd5b505af11580156122e2573d6000803e3d6000fd5b5050505050505050565b80600560009054906101000a900473ffffffffffffffffffffffffffffffffffffffff1673ffffffffffffffffffffffffffffffffffffffff166370a08231336040518263ffffffff1660e01b815260040161234891906130c7565b602060405180830381865afa158015612365573d6000803e3d6000fd5b505050506040513d601f19601f8201168201806040525081019061238991906136ce565b10156123ca576040517f08c379a00000000000000000000000000000000000000000000000000000000081526004016123c190613bcf565b60405180910390fd5b60006123d582611b4d565b905080600460019054906101000a900473ffffffffffffffffffffffffffffffffffffffff1673ffffffffffffffffffffffffffffffffffffffff166370a08231306040518263ffffffff1660e01b815260040161243391906130c7565b602060405180830381865afa158015612450573d6000803e3d6000fd5b505050506040513d601f19601f8201168201806040525081019061247491906136ce565b10156124b5576040517f08c379a00000000000000000000000000000000000000000000000000000000081526004016124ac90613c61565b60405180910390fd5b6124e3600560009054906101000a900473ffffffffffffffffffffffffffffffffffffffff16333085612c97565b612510600460019054906101000a900473ffffffffffffffffffffffffffffffffffffffff16338361276c565b600960405180606001604052803373ffffffffffffffffffffffffffffffffffffffff16815260200184815260200183815250908060018154018082558091505060019003906000526020600020906003020160009091909190915060008201518160000160006101000a81548173ffffffffffffffffffffffffffffffffffffffff021916908373ffffffffffffffffffffffffffffffffffffffff1602179055506020820151816001015560408201518160020155505060007f000000000000000000000000000000000000000000000000000000000000000090508073ffffffffffffffffffffffffffffffffffffffff1663f52701b7303386866040518563ffffffff1660e01b815260040161262d94939291906136fb565b600060405180830381600087803b15801561264757600080fd5b505af115801561265b573d6000803e3d6000fd5b50505050505050565b600033905090565b60008273ffffffffffffffffffffffffffffffffffffffff1682600067ffffffffffffffff8111156126a1576126a0613a25565b5b6040519080825280601f01601f1916602001820160405280156126d35781602001600182028036833780820191505090505b506040516126e19190613cfb565b60006040518083038185875af1925050503d806000811461271e576040519150601f19603f3d011682016040523d82523d6000602084013e612723565b606091505b5050905080612767576040517f08c379a000000000000000000000000000000000000000000000000000000000815260040161275e90613d84565b60405180910390fd5b505050565b6000808473ffffffffffffffffffffffffffffffffffffffff1663a9059cbb858560405160240161279e929190613da4565b6040516020818303038152906040529060e01b6020820180517bffffffffffffffffffffffffffffffffffffffffffffffffffffffff83818316178352505050506040516127ec9190613cfb565b6000604051808303816000865af19150503d8060008114612829576040519150601f19603f3d011682016040523d82523d6000602084013e61282e565b606091505b509150915081801561285c575060008151148061285b57508080602001905181019061285a91906133fe565b5b5b61289b576040517f08c379a000000000000000000000000000000000000000000000000000000000815260040161289290613e19565b60405180910390fd5b5050505050565b3481146128e4576040517f08c379a00000000000000000000000000000000000000000000000000000000081526004016128db9061352f565b60405180910390fd5b60006128ef82611b4d565b905080600460019054906101000a900473ffffffffffffffffffffffffffffffffffffffff1673ffffffffffffffffffffffffffffffffffffffff166370a08231306040518263ffffffff1660e01b815260040161294d91906130c7565b602060405180830381865afa15801561296a573d6000803e3d6000fd5b505050506040513d601f19601f8201168201806040525081019061298e91906136ce565b10156129cf576040517f08c379a00000000000000000000000000000000000000000000000000000000081526004016129c690613c61565b60405180910390fd5b600260019054906101000a900473ffffffffffffffffffffffffffffffffffffffff1673ffffffffffffffffffffffffffffffffffffffff1663d0e30db0836040518263ffffffff1660e01b81526004016000604051808303818588803b158015612a3957600080fd5b505af1158015612a4d573d6000803e3d6000fd5b5050505050612a7f600460019054906101000a900473ffffffffffffffffffffffffffffffffffffffff16338361276c565b600960405180606001604052803373ffffffffffffffffffffffffffffffffffffffff16815260200184815260200183815250908060018154018082558091505060019003906000526020600020906003020160009091909190915060008201518160000160006101000a81548173ffffffffffffffffffffffffffffffffffffffff021916908373ffffffffffffffffffffffffffffffffffffffff1602179055506020820151816001015560408201518160020155505060007f000000000000000000000000000000000000000000000000000000000000000090508073ffffffffffffffffffffffffffffffffffffffff1663f52701b7303386866040518563ffffffff1660e01b8152600401612b9c94939291906136fb565b600060405180830381600087803b158015612bb657600080fd5b505af1158015612bca573d6000803e3d6000fd5b50505050505050565b60008060009054906101000a900473ffffffffffffffffffffffffffffffffffffffff169050816000806101000a81548173ffffffffffffffffffffffffffffffffffffffff021916908373ffffffffffffffffffffffffffffffffffffffff1602179055508173ffffffffffffffffffffffffffffffffffffffff168173ffffffffffffffffffffffffffffffffffffffff167f8be0079c531659141344cd1fd0a4f28419497f9722a3daafe3b4186f6b6457e060405160405180910390a35050565b6000808573ffffffffffffffffffffffffffffffffffffffff166323b872dd868686604051602401612ccb93929190613e39565b6040516020818303038152906040529060e01b6020820180517bffffffffffffffffffffffffffffffffffffffffffffffffffffffff8381831617835250505050604051612d199190613cfb565b6000604051808303816000865af19150503d8060008114612d56576040519150601f19603f3d011682016040523d82523d6000602084013e612d5b565b606091505b5091509150818015612d895750600081511480612d88575080806020019051810190612d8791906133fe565b5b5b612dc8576040517f08c379a0000000000000000000000000000000000000000000000000000000008152600401612dbf90613ee2565b60405180910390fd5b505050505050565b600080fd5b6000819050919050565b612de881612dd5565b8114612df357600080fd5b50565b600081359050612e0581612ddf565b92915050565b600060208284031215612e2157612e20612dd0565b5b6000612e2f84828501612df6565b91505092915050565b60008115159050919050565b612e4d81612e38565b82525050565b6000602082019050612e686000830184612e44565b92915050565b612e7781612dd5565b82525050565b6000604082019050612e926000830185612e6e565b612e9f6020830184612e6e565b9392505050565b6000602082019050612ebb6000830184612e6e565b92915050565b60038110612ece57600080fd5b50565b600081359050612ee081612ec1565b92915050565b600073ffffffffffffffffffffffffffffffffffffffff82169050919050565b6000612f1182612ee6565b9050919050565b612f2181612f06565b8114612f2c57600080fd5b50565b600081359050612f3e81612f18565b92915050565b612f4d81612e38565b8114612f5857600080fd5b50565b600081359050612f6a81612f44565b92915050565b600080600080600080600080610100898b031215612f9157612f90612dd0565b5b6000612f9f8b828c01612ed1565b9850506020612fb08b828c01612f2f565b9750506040612fc18b828c01612f2f565b9650506060612fd28b828c01612df6565b9550506080612fe38b828c01612df6565b94505060a0612ff48b828c01612df6565b93505060c06130058b828c01612f5b565b92505060e06130168b828c01612f2f565b9150509295985092959890939650565b7f4e487b7100000000000000000000000000000000000000000000000000000000600052602160045260246000fd5b6003811061306657613065613026565b5b50565b600081905061307782613055565b919050565b600061308782613069565b9050919050565b6130978161307c565b82525050565b60006020820190506130b2600083018461308e565b92915050565b6130c181612f06565b82525050565b60006020820190506130dc60008301846130b8565b92915050565b60006040820190506130f760008301856130b8565b61310460208301846130b8565b9392505050565b600081519050919050565b600082825260208201905092915050565b6000819050602082019050919050565b61314081612f06565b82525050565b60006131528383613137565b60208301905092915050565b6000602082019050919050565b60006131768261310b565b6131808185613116565b935061318b83613127565b8060005b838110156131bc5781516131a38882613146565b97506131ae8361315e565b92505060018101905061318f565b5085935050505092915050565b600081519050919050565b600082825260208201905092915050565b6000819050602082019050919050565b6131fe81612dd5565b82525050565b600061321083836131f5565b60208301905092915050565b6000602082019050919050565b6000613234826131c9565b61323e81856131d4565b9350613249836131e5565b8060005b8381101561327a5781516132618882613204565b975061326c8361321c565b92505060018101905061324d565b5085935050505092915050565b600060608201905081810360008301526132a1818661316b565b905081810360208301526132b58185613229565b905081810360408301526132c98184613229565b9050949350505050565b6000602082840312156132e9576132e8612dd0565b5b60006132f784828501612f2f565b91505092915050565b600082825260208201905092915050565b7f537943726f774261727465723a20494e41435449564500000000000000000000600082015250565b6000613347601683613300565b915061335282613311565b602082019050919050565b600060208201905081810360008301526133768161333a565b9050919050565b7f537943726f774261727465723a204e4f545f494e495449414c495a4544000000600082015250565b60006133b3601d83613300565b91506133be8261337d565b602082019050919050565b600060208201905081810360008301526133e2816133a6565b9050919050565b6000815190506133f881612f44565b92915050565b60006020828403121561341457613413612dd0565b5b6000613422848285016133e9565b91505092915050565b7f537943726f774261727465723a204261736520436f6e7472616374205061757360008201527f6564000000000000000000000000000000000000000000000000000000000000602082015250565b6000613487602283613300565b91506134928261342b565b604082019050919050565b600060208201905081810360008301526134b68161347a565b9050919050565b7f537943726f774261727465723a204d554c54495f54524144455f4e4f545f454e60008201527f41424c4544000000000000000000000000000000000000000000000000000000602082015250565b6000613519602583613300565b9150613524826134bd565b604082019050919050565b600060208201905081810360008301526135488161350c565b9050919050565b7f537943726f774261727465723a20494e56414c49445f4241525445525f54595060008201527f4500000000000000000000000000000000000000000000000000000000000000602082015250565b60006135ab602183613300565b91506135b68261354f565b604082019050919050565b600060208201905081810360008301526135da8161359e565b9050919050565b7f537943726f774261727465723a20414354495645000000000000000000000000600082015250565b6000613617601483613300565b9150613622826135e1565b602082019050919050565b600060208201905081810360008301526136468161360a565b9050919050565b7f4f776e61626c653a2063616c6c6572206973206e6f7420746865206f776e6572600082015250565b6000613683602083613300565b915061368e8261364d565b602082019050919050565b600060208201905081810360008301526136b281613676565b9050919050565b6000815190506136c881612ddf565b92915050565b6000602082840312156136e4576136e3612dd0565b5b60006136f2848285016136b9565b91505092915050565b600060808201905061371060008301876130b8565b61371d60208301866130b8565b61372a6040830185612e6e565b6137376060830184612e6e565b95945050505050565b7f537943726f774261727465723a20464f5242494444454e000000000000000000600082015250565b6000613776601783613300565b915061378182613740565b602082019050919050565b600060208201905081810360008301526137a581613769565b9050919050565b7f537943726f774261727465723a20414c52454144595f494e495449414c495a4560008201527f4400000000000000000000000000000000000000000000000000000000000000602082015250565b6000613808602183613300565b9150613813826137ac565b604082019050919050565b60006020820190508181036000830152613837816137fb565b9050919050565b7f537943726f774261727465723a20504153545f444541444c494e450000000000600082015250565b6000613874601b83613300565b915061387f8261383e565b602082019050919050565b600060208201905081810360008301526138a381613867565b9050919050565b7f537943726f774261727465723a20494e53554646494349454e545f4445504f5360008201527f4954000000000000000000000000000000000000000000000000000000000000602082015250565b6000613906602283613300565b9150613911826138aa565b604082019050919050565b60006020820190508181036000830152613935816138f9565b9050919050565b7f4e487b7100000000000000000000000000000000000000000000000000000000600052601160045260246000fd5b600061397682612dd5565b915061398183612dd5565b9250817fffffffffffffffffffffffffffffffffffffffffffffffffffffffffffffffff04831182151516156139ba576139b961393c565b5b828202905092915050565b7f4e487b7100000000000000000000000000000000000000000000000000000000600052601260045260246000fd5b60006139ff82612dd5565b9150613a0a83612dd5565b925082613a1a57613a196139c5565b5b828204905092915050565b7f4e487b7100000000000000000000000000000000000000000000000000000000600052604160045260246000fd5b7f4e487b7100000000000000000000000000000000000000000000000000000000600052603260045260246000fd5b6000613a8e82612dd5565b91507fffffffffffffffffffffffffffffffffffffffffffffffffffffffffffffffff8203613ac057613abf61393c565b5b600182019050919050565b7f4f776e61626c653a206e6577206f776e657220697320746865207a65726f206160008201527f6464726573730000000000000000000000000000000000000000000000000000602082015250565b6000613b27602683613300565b9150613b3282613acb565b604082019050919050565b60006020820190508181036000830152613b5681613b1a565b9050919050565b7f537943726f774261727465723a20494e53554646494349454e545f42414c414e60008201527f4345000000000000000000000000000000000000000000000000000000000000602082015250565b6000613bb9602283613300565b9150613bc482613b5d565b604082019050919050565b60006020820190508181036000830152613be881613bac565b9050919050565b7f537943726f774261727465723a20494e53554646494349454e545f434f4e545260008201527f4143545f42414c414e4345000000000000000000000000000000000000000000602082015250565b6000613c4b602b83613300565b9150613c5682613bef565b604082019050919050565b60006020820190508181036000830152613c7a81613c3e565b9050919050565b600081519050919050565b600081905092915050565b60005b83811015613cb5578082015181840152602081019050613c9a565b83811115613cc4576000848401525b50505050565b6000613cd582613c81565b613cdf8185613c8c565b9350613cef818560208601613c97565b80840191505092915050565b6000613d078284613cca565b915081905092915050565b7f5472616e7366657248656c7065723a204554485f5452414e534645525f46414960008201527f4c45440000000000000000000000000000000000000000000000000000000000602082015250565b6000613d6e602383613300565b9150613d7982613d12565b604082019050919050565b60006020820190508181036000830152613d9d81613d61565b9050919050565b6000604082019050613db960008301856130b8565b613dc66020830184612e6e565b9392505050565b7f5472616e7366657248656c7065723a205452414e534645525f4641494c454400600082015250565b6000613e03601f83613300565b9150613e0e82613dcd565b602082019050919050565b60006020820190508181036000830152613e3281613df6565b9050919050565b6000606082019050613e4e60008301866130b8565b613e5b60208301856130b8565b613e686040830184612e6e565b949350505050565b7f5472616e7366657248656c7065723a205452414e534645525f46524f4d5f464160008201527f494c454400000000000000000000000000000000000000000000000000000000602082015250565b6000613ecc602483613300565b9150613ed782613e70565b604082019050919050565b60006020820190508181036000830152613efb81613ebf565b905091905056fea26469706673582212201edb8d1405a477d2790376bd7dd7f532ba9f038632f6aa394c7fbf51e61ded0564736f6c634300080d0033",
					"opcodes": "PUSH1 0xA0 PUSH1 0x40 MSTORE PUSH1 0x0 PUSH1 0x4 PUSH1 0x0 PUSH2 0x100 EXP DUP2 SLOAD DUP2 PUSH1 0xFF MUL NOT AND SWAP1 DUP4 ISZERO ISZERO MUL OR SWAP1 SSTORE POP CALLVALUE DUP1 ISZERO PUSH3 0x2C JUMPI PUSH1 0x0 DUP1 REVERT JUMPDEST POP PUSH3 0x4D PUSH3 0x41 PUSH3 0x87 PUSH1 0x20 SHL PUSH1 0x20 SHR JUMP JUMPDEST PUSH3 0x8F PUSH1 0x20 SHL PUSH1 0x20 SHR JUMP JUMPDEST CALLER PUSH20 0xFFFFFFFFFFFFFFFFFFFFFFFFFFFFFFFFFFFFFFFF AND PUSH1 0x80 DUP2 PUSH20 0xFFFFFFFFFFFFFFFFFFFFFFFFFFFFFFFFFFFFFFFF AND DUP2 MSTORE POP POP PUSH3 0x153 JUMP JUMPDEST PUSH1 0x0 CALLER SWAP1 POP SWAP1 JUMP JUMPDEST PUSH1 0x0 DUP1 PUSH1 0x0 SWAP1 SLOAD SWAP1 PUSH2 0x100 EXP SWAP1 DIV PUSH20 0xFFFFFFFFFFFFFFFFFFFFFFFFFFFFFFFFFFFFFFFF AND SWAP1 POP DUP2 PUSH1 0x0 DUP1 PUSH2 0x100 EXP DUP2 SLOAD DUP2 PUSH20 0xFFFFFFFFFFFFFFFFFFFFFFFFFFFFFFFFFFFFFFFF MUL NOT AND SWAP1 DUP4 PUSH20 0xFFFFFFFFFFFFFFFFFFFFFFFFFFFFFFFFFFFFFFFF AND MUL OR SWAP1 SSTORE POP DUP2 PUSH20 0xFFFFFFFFFFFFFFFFFFFFFFFFFFFFFFFFFFFFFFFF AND DUP2 PUSH20 0xFFFFFFFFFFFFFFFFFFFFFFFFFFFFFFFFFFFFFFFF AND PUSH32 0x8BE0079C531659141344CD1FD0A4F28419497F9722A3DAAFE3B4186F6B6457E0 PUSH1 0x40 MLOAD PUSH1 0x40 MLOAD DUP1 SWAP2 SUB SWAP1 LOG3 POP POP JUMP JUMPDEST PUSH1 0x80 MLOAD PUSH2 0x3F38 PUSH3 0x1BC PUSH1 0x0 CODECOPY PUSH1 0x0 DUP2 DUP2 PUSH2 0x493 ADD MSTORE DUP2 DUP2 PUSH2 0x6DE ADD MSTORE DUP2 DUP2 PUSH2 0xD40 ADD MSTORE DUP2 DUP2 PUSH2 0xEF8 ADD MSTORE DUP2 DUP2 PUSH2 0x10A0 ADD MSTORE DUP2 DUP2 PUSH2 0x153A ADD MSTORE DUP2 DUP2 PUSH2 0x17D7 ADD MSTORE DUP2 DUP2 PUSH2 0x192E ADD MSTORE DUP2 DUP2 PUSH2 0x19F7 ADD MSTORE DUP2 DUP2 PUSH2 0x2254 ADD MSTORE DUP2 DUP2 PUSH2 0x25CD ADD MSTORE PUSH2 0x2B3C ADD MSTORE PUSH2 0x3F38 PUSH1 0x0 RETURN INVALID PUSH1 0x80 PUSH1 0x40 MSTORE PUSH1 0x4 CALLDATASIZE LT PUSH2 0x114 JUMPI PUSH1 0x0 CALLDATALOAD PUSH1 0xE0 SHR DUP1 PUSH4 0x89523742 GT PUSH2 0xA0 JUMPI DUP1 PUSH4 0xC45A0155 GT PUSH2 0x64 JUMPI DUP1 PUSH4 0xC45A0155 EQ PUSH2 0x324 JUMPI DUP1 PUSH4 0xD7BDFC75 EQ PUSH2 0x34F JUMPI DUP1 PUSH4 0xDAB5A8DF EQ PUSH2 0x359 JUMPI DUP1 PUSH4 0xE43372E9 EQ PUSH2 0x396 JUMPI DUP1 PUSH4 0xF2FDE38B EQ PUSH2 0x3C3 JUMPI PUSH2 0x114 JUMP JUMPDEST DUP1 PUSH4 0x89523742 EQ PUSH2 0x274 JUMPI DUP1 PUSH4 0x8DA5CB5B EQ PUSH2 0x29F JUMPI DUP1 PUSH4 0xA09702B1 EQ PUSH2 0x2CA JUMPI DUP1 PUSH4 0xAA6CA808 EQ PUSH2 0x2E1 JUMPI DUP1 PUSH4 0xABD050EA EQ PUSH2 0x30D JUMPI PUSH2 0x114 JUMP JUMPDEST DUP1 PUSH4 0x3D370B4E GT PUSH2 0xE7 JUMPI DUP1 PUSH4 0x3D370B4E EQ PUSH2 0x1AD JUMPI DUP1 PUSH4 0x40A6F1AB EQ PUSH2 0x1D9 JUMPI DUP1 PUSH4 0x4341F920 EQ PUSH2 0x204 JUMPI DUP1 PUSH4 0x5F5780E5 EQ PUSH2 0x220 JUMPI DUP1 PUSH4 0x715018A6 EQ PUSH2 0x25D JUMPI PUSH2 0x114 JUMP JUMPDEST DUP1 PUSH4 0xD182605 EQ PUSH2 0x119 JUMPI DUP1 PUSH4 0x2FFC6887 EQ PUSH2 0x142 JUMPI DUP1 PUSH4 0x3072CF60 EQ PUSH2 0x16B JUMPI DUP1 PUSH4 0x3CCFD60B EQ PUSH2 0x196 JUMPI JUMPDEST PUSH1 0x0 DUP1 REVERT JUMPDEST CALLVALUE DUP1 ISZERO PUSH2 0x125 JUMPI PUSH1 0x0 DUP1 REVERT JUMPDEST POP PUSH2 0x140 PUSH1 0x4 DUP1 CALLDATASIZE SUB DUP2 ADD SWAP1 PUSH2 0x13B SWAP2 SWAP1 PUSH2 0x2E0B JUMP JUMPDEST PUSH2 0x3EC JUMP JUMPDEST STOP JUMPDEST CALLVALUE DUP1 ISZERO PUSH2 0x14E JUMPI PUSH1 0x0 DUP1 REVERT JUMPDEST POP PUSH2 0x169 PUSH1 0x4 DUP1 CALLDATASIZE SUB DUP2 ADD SWAP1 PUSH2 0x164 SWAP2 SWAP1 PUSH2 0x2E0B JUMP JUMPDEST PUSH2 0x637 JUMP JUMPDEST STOP JUMPDEST CALLVALUE DUP1 ISZERO PUSH2 0x177 JUMPI PUSH1 0x0 DUP1 REVERT JUMPDEST POP PUSH2 0x180 PUSH2 0x881 JUMP JUMPDEST PUSH1 0x40 MLOAD PUSH2 0x18D SWAP2 SWAP1 PUSH2 0x2E53 JUMP JUMPDEST PUSH1 0x40 MLOAD DUP1 SWAP2 SUB SWAP1 RETURN JUMPDEST CALLVALUE DUP1 ISZERO PUSH2 0x1A2 JUMPI PUSH1 0x0 DUP1 REVERT JUMPDEST POP PUSH2 0x1AB PUSH2 0x894 JUMP JUMPDEST STOP JUMPDEST CALLVALUE DUP1 ISZERO PUSH2 0x1B9 JUMPI PUSH1 0x0 DUP1 REVERT JUMPDEST POP PUSH2 0x1C2 PUSH2 0xDEB JUMP JUMPDEST PUSH1 0x40 MLOAD PUSH2 0x1D0 SWAP3 SWAP2 SWAP1 PUSH2 0x2E7D JUMP JUMPDEST PUSH1 0x40 MLOAD DUP1 SWAP2 SUB SWAP1 RETURN JUMPDEST CALLVALUE DUP1 ISZERO PUSH2 0x1E5 JUMPI PUSH1 0x0 DUP1 REVERT JUMPDEST POP PUSH2 0x1EE PUSH2 0xE4B JUMP JUMPDEST PUSH1 0x40 MLOAD PUSH2 0x1FB SWAP2 SWAP1 PUSH2 0x2EA6 JUMP JUMPDEST PUSH1 0x40 MLOAD DUP1 SWAP2 SUB SWAP1 RETURN JUMPDEST PUSH2 0x21E PUSH1 0x4 DUP1 CALLDATASIZE SUB DUP2 ADD SWAP1 PUSH2 0x219 SWAP2 SWAP1 PUSH2 0x2E0B JUMP JUMPDEST PUSH2 0xE51 JUMP JUMPDEST STOP JUMPDEST CALLVALUE DUP1 ISZERO PUSH2 0x22C JUMPI PUSH1 0x0 DUP1 REVERT JUMPDEST POP PUSH2 0x247 PUSH1 0x4 DUP1 CALLDATASIZE SUB DUP2 ADD SWAP1 PUSH2 0x242 SWAP2 SWAP1 PUSH2 0x2F70 JUMP JUMPDEST PUSH2 0x109C JUMP JUMPDEST PUSH1 0x40 MLOAD PUSH2 0x254 SWAP2 SWAP1 PUSH2 0x2E53 JUMP JUMPDEST PUSH1 0x40 MLOAD DUP1 SWAP2 SUB SWAP1 RETURN JUMPDEST CALLVALUE DUP1 ISZERO PUSH2 0x269 JUMPI PUSH1 0x0 DUP1 REVERT JUMPDEST POP PUSH2 0x272 PUSH2 0x13CF JUMP JUMPDEST STOP JUMPDEST CALLVALUE DUP1 ISZERO PUSH2 0x280 JUMPI PUSH1 0x0 DUP1 REVERT JUMPDEST POP PUSH2 0x289 PUSH2 0x1457 JUMP JUMPDEST PUSH1 0x40 MLOAD PUSH2 0x296 SWAP2 SWAP1 PUSH2 0x309D JUMP JUMPDEST PUSH1 0x40 MLOAD DUP1 SWAP2 SUB SWAP1 RETURN JUMPDEST CALLVALUE DUP1 ISZERO PUSH2 0x2AB JUMPI PUSH1 0x0 DUP1 REVERT JUMPDEST POP PUSH2 0x2B4 PUSH2 0x146A JUMP JUMPDEST PUSH1 0x40 MLOAD PUSH2 0x2C1 SWAP2 SWAP1 PUSH2 0x30C7 JUMP JUMPDEST PUSH1 0x40 MLOAD DUP1 SWAP2 SUB SWAP1 RETURN JUMPDEST CALLVALUE DUP1 ISZERO PUSH2 0x2D6 JUMPI PUSH1 0x0 DUP1 REVERT JUMPDEST POP PUSH2 0x2DF PUSH2 0x1493 JUMP JUMPDEST STOP JUMPDEST CALLVALUE DUP1 ISZERO PUSH2 0x2ED JUMPI PUSH1 0x0 DUP1 REVERT JUMPDEST POP PUSH2 0x2F6 PUSH2 0x1690 JUMP JUMPDEST PUSH1 0x40 MLOAD PUSH2 0x304 SWAP3 SWAP2 SWAP1 PUSH2 0x30E2 JUMP JUMPDEST PUSH1 0x40 MLOAD DUP1 SWAP2 SUB SWAP1 RETURN JUMPDEST CALLVALUE DUP1 ISZERO PUSH2 0x319 JUMPI PUSH1 0x0 DUP1 REVERT JUMPDEST POP PUSH2 0x322 PUSH2 0x1730 JUMP JUMPDEST STOP JUMPDEST CALLVALUE DUP1 ISZERO PUSH2 0x330 JUMPI PUSH1 0x0 DUP1 REVERT JUMPDEST POP PUSH2 0x339 PUSH2 0x192C JUMP JUMPDEST PUSH1 0x40 MLOAD PUSH2 0x346 SWAP2 SWAP1 PUSH2 0x30C7 JUMP JUMPDEST PUSH1 0x40 MLOAD DUP1 SWAP2 SUB SWAP1 RETURN JUMPDEST PUSH2 0x357 PUSH2 0x1950 JUMP JUMPDEST STOP JUMPDEST CALLVALUE DUP1 ISZERO PUSH2 0x365 JUMPI PUSH1 0x0 DUP1 REVERT JUMPDEST POP PUSH2 0x380 PUSH1 0x4 DUP1 CALLDATASIZE SUB DUP2 ADD SWAP1 PUSH2 0x37B SWAP2 SWAP1 PUSH2 0x2E0B JUMP JUMPDEST PUSH2 0x1B4D JUMP JUMPDEST PUSH1 0x40 MLOAD PUSH2 0x38D SWAP2 SWAP1 PUSH2 0x2EA6 JUMP JUMPDEST PUSH1 0x40 MLOAD DUP1 SWAP2 SUB SWAP1 RETURN JUMPDEST CALLVALUE DUP1 ISZERO PUSH2 0x3A2 JUMPI PUSH1 0x0 DUP1 REVERT JUMPDEST POP PUSH2 0x3AB PUSH2 0x1B71 JUMP JUMPDEST PUSH1 0x40 MLOAD PUSH2 0x3BA SWAP4 SWAP3 SWAP2 SWAP1 PUSH2 0x3287 JUMP JUMPDEST PUSH1 0x40 MLOAD DUP1 SWAP2 SUB SWAP1 RETURN JUMPDEST CALLVALUE DUP1 ISZERO PUSH2 0x3CF JUMPI PUSH1 0x0 DUP1 REVERT JUMPDEST POP PUSH2 0x3EA PUSH1 0x4 DUP1 CALLDATASIZE SUB DUP2 ADD SWAP1 PUSH2 0x3E5 SWAP2 SWAP1 PUSH2 0x32D3 JUMP JUMPDEST PUSH2 0x1E0D JUMP JUMPDEST STOP JUMPDEST TIMESTAMP PUSH1 0x3 SLOAD LT ISZERO DUP1 ISZERO PUSH2 0x401 JUMPI POP PUSH1 0x7 SLOAD PUSH1 0x1 SLOAD LT JUMPDEST PUSH2 0x440 JUMPI PUSH1 0x40 MLOAD PUSH32 0x8C379A000000000000000000000000000000000000000000000000000000000 DUP2 MSTORE PUSH1 0x4 ADD PUSH2 0x437 SWAP1 PUSH2 0x335D JUMP JUMPDEST PUSH1 0x40 MLOAD DUP1 SWAP2 SUB SWAP1 REVERT JUMPDEST PUSH1 0x4 PUSH1 0x0 SWAP1 SLOAD SWAP1 PUSH2 0x100 EXP SWAP1 DIV PUSH1 0xFF AND PUSH2 0x48F JUMPI PUSH1 0x40 MLOAD PUSH32 0x8C379A000000000000000000000000000000000000000000000000000000000 DUP2 MSTORE PUSH1 0x4 ADD PUSH2 0x486 SWAP1 PUSH2 0x33C9 JUMP JUMPDEST PUSH1 0x40 MLOAD DUP1 SWAP2 SUB SWAP1 REVERT JUMPDEST PUSH1 0x0 PUSH32 0x0 SWAP1 POP DUP1 PUSH20 0xFFFFFFFFFFFFFFFFFFFFFFFFFFFFFFFFFFFFFFFF AND PUSH4 0xB187BD26 PUSH1 0x40 MLOAD DUP2 PUSH4 0xFFFFFFFF AND PUSH1 0xE0 SHL DUP2 MSTORE PUSH1 0x4 ADD PUSH1 0x20 PUSH1 0x40 MLOAD DUP1 DUP4 SUB DUP2 DUP7 GAS STATICCALL ISZERO DUP1 ISZERO PUSH2 0x4FF JUMPI RETURNDATASIZE PUSH1 0x0 DUP1 RETURNDATACOPY RETURNDATASIZE PUSH1 0x0 REVERT JUMPDEST POP POP POP POP PUSH1 0x40 MLOAD RETURNDATASIZE PUSH1 0x1F NOT PUSH1 0x1F DUP3 ADD AND DUP3 ADD DUP1 PUSH1 0x40 MSTORE POP DUP2 ADD SWAP1 PUSH2 0x523 SWAP2 SWAP1 PUSH2 0x33FE JUMP JUMPDEST ISZERO PUSH2 0x563 JUMPI PUSH1 0x40 MLOAD PUSH32 0x8C379A000000000000000000000000000000000000000000000000000000000 DUP2 MSTORE PUSH1 0x4 ADD PUSH2 0x55A SWAP1 PUSH2 0x349D JUMP JUMPDEST PUSH1 0x40 MLOAD DUP1 SWAP2 SUB SWAP1 REVERT JUMPDEST PUSH1 0x8 PUSH1 0x0 SWAP1 SLOAD SWAP1 PUSH2 0x100 EXP SWAP1 DIV PUSH1 0xFF AND PUSH2 0x5B2 JUMPI PUSH1 0x40 MLOAD PUSH32 0x8C379A000000000000000000000000000000000000000000000000000000000 DUP2 MSTORE PUSH1 0x4 ADD PUSH2 0x5A9 SWAP1 PUSH2 0x352F JUMP JUMPDEST PUSH1 0x40 MLOAD DUP1 SWAP2 SUB SWAP1 REVERT JUMPDEST PUSH1 0x0 PUSH1 0x2 PUSH1 0x0 SWAP1 SLOAD SWAP1 PUSH2 0x100 EXP SWAP1 DIV PUSH1 0xFF AND PUSH1 0x2 DUP2 GT ISZERO PUSH2 0x5D6 JUMPI PUSH2 0x5D5 PUSH2 0x3026 JUMP JUMPDEST JUMPDEST DUP2 PUSH1 0x2 DUP2 GT ISZERO PUSH2 0x5E9 JUMPI PUSH2 0x5E8 PUSH2 0x3026 JUMP JUMPDEST JUMPDEST EQ PUSH2 0x629 JUMPI PUSH1 0x40 MLOAD PUSH32 0x8C379A000000000000000000000000000000000000000000000000000000000 DUP2 MSTORE PUSH1 0x4 ADD PUSH2 0x620 SWAP1 PUSH2 0x35C1 JUMP JUMPDEST PUSH1 0x40 MLOAD DUP1 SWAP2 SUB SWAP1 REVERT JUMPDEST PUSH2 0x632 DUP4 PUSH2 0x1F04 JUMP JUMPDEST POP POP POP JUMP JUMPDEST TIMESTAMP PUSH1 0x3 SLOAD LT ISZERO DUP1 ISZERO PUSH2 0x64C JUMPI POP PUSH1 0x7 SLOAD PUSH1 0x1 SLOAD LT JUMPDEST PUSH2 0x68B JUMPI PUSH1 0x40 MLOAD PUSH32 0x8C379A000000000000000000000000000000000000000000000000000000000 DUP2 MSTORE PUSH1 0x4 ADD PUSH2 0x682 SWAP1 PUSH2 0x335D JUMP JUMPDEST PUSH1 0x40 MLOAD DUP1 SWAP2 SUB SWAP1 REVERT JUMPDEST PUSH1 0x4 PUSH1 0x0 SWAP1 SLOAD SWAP1 PUSH2 0x100 EXP SWAP1 DIV PUSH1 0xFF AND PUSH2 0x6DA JUMPI PUSH1 0x40 MLOAD PUSH32 0x8C379A000000000000000000000000000000000000000000000000000000000 DUP2 MSTORE PUSH1 0x4 ADD PUSH2 0x6D1 SWAP1 PUSH2 0x33C9 JUMP JUMPDEST PUSH1 0x40 MLOAD DUP1 SWAP2 SUB SWAP1 REVERT JUMPDEST PUSH1 0x0 PUSH32 0x0 SWAP1 POP DUP1 PUSH20 0xFFFFFFFFFFFFFFFFFFFFFFFFFFFFFFFFFFFFFFFF AND PUSH4 0xB187BD26 PUSH1 0x40 MLOAD DUP2 PUSH4 0xFFFFFFFF AND PUSH1 0xE0 SHL DUP2 MSTORE PUSH1 0x4 ADD PUSH1 0x20 PUSH1 0x40 MLOAD DUP1 DUP4 SUB DUP2 DUP7 GAS STATICCALL ISZERO DUP1 ISZERO PUSH2 0x74A JUMPI RETURNDATASIZE PUSH1 0x0 DUP1 RETURNDATACOPY RETURNDATASIZE PUSH1 0x0 REVERT JUMPDEST POP POP POP POP PUSH1 0x40 MLOAD RETURNDATASIZE PUSH1 0x1F NOT PUSH1 0x1F DUP3 ADD AND DUP3 ADD DUP1 PUSH1 0x40 MSTORE POP DUP2 ADD SWAP1 PUSH2 0x76E SWAP2 SWAP1 PUSH2 0x33FE JUMP JUMPDEST ISZERO PUSH2 0x7AE JUMPI PUSH1 0x40 MLOAD PUSH32 0x8C379A000000000000000000000000000000000000000000000000000000000 DUP2 MSTORE PUSH1 0x4 ADD PUSH2 0x7A5 SWAP1 PUSH2 0x349D JUMP JUMPDEST PUSH1 0x40 MLOAD DUP1 SWAP2 SUB SWAP1 REVERT JUMPDEST PUSH1 0x8 PUSH1 0x0 SWAP1 SLOAD SWAP1 PUSH2 0x100 EXP SWAP1 DIV PUSH1 0xFF AND PUSH2 0x7FD JUMPI PUSH1 0x40 MLOAD PUSH32 0x8C379A000000000000000000000000000000000000000000000000000000000 DUP2 MSTORE PUSH1 0x4 ADD PUSH2 0x7F4 SWAP1 PUSH2 0x352F JUMP JUMPDEST PUSH1 0x40 MLOAD DUP1 SWAP2 SUB SWAP1 REVERT JUMPDEST PUSH1 0x2 DUP1 PUSH1 0x0 SWAP1 SLOAD SWAP1 PUSH2 0x100 EXP SWAP1 DIV PUSH1 0xFF AND PUSH1 0x2 DUP2 GT ISZERO PUSH2 0x820 JUMPI PUSH2 0x81F PUSH2 0x3026 JUMP JUMPDEST JUMPDEST DUP2 PUSH1 0x2 DUP2 GT ISZERO PUSH2 0x833 JUMPI PUSH2 0x832 PUSH2 0x3026 JUMP JUMPDEST JUMPDEST EQ PUSH2 0x873 JUMPI PUSH1 0x40 MLOAD PUSH32 0x8C379A000000000000000000000000000000000000000000000000000000000 DUP2 MSTORE PUSH1 0x4 ADD PUSH2 0x86A SWAP1 PUSH2 0x35C1 JUMP JUMPDEST PUSH1 0x40 MLOAD DUP1 SWAP2 SUB SWAP1 REVERT JUMPDEST PUSH2 0x87C DUP4 PUSH2 0x22EC JUMP JUMPDEST POP POP POP JUMP JUMPDEST PUSH1 0x4 PUSH1 0x0 SWAP1 SLOAD SWAP1 PUSH2 0x100 EXP SWAP1 DIV PUSH1 0xFF AND DUP2 JUMP JUMPDEST TIMESTAMP PUSH1 0x3 SLOAD LT DUP1 PUSH2 0x8A8 JUMPI POP PUSH1 0x7 SLOAD PUSH1 0x1 SLOAD LT ISZERO JUMPDEST PUSH2 0x8E7 JUMPI PUSH1 0x40 MLOAD PUSH32 0x8C379A000000000000000000000000000000000000000000000000000000000 DUP2 MSTORE PUSH1 0x4 ADD PUSH2 0x8DE SWAP1 PUSH2 0x362D JUMP JUMPDEST PUSH1 0x40 MLOAD DUP1 SWAP2 SUB SWAP1 REVERT JUMPDEST PUSH1 0x4 PUSH1 0x0 SWAP1 SLOAD SWAP1 PUSH2 0x100 EXP SWAP1 DIV PUSH1 0xFF AND PUSH2 0x936 JUMPI PUSH1 0x40 MLOAD PUSH32 0x8C379A000000000000000000000000000000000000000000000000000000000 DUP2 MSTORE PUSH1 0x4 ADD PUSH2 0x92D SWAP1 PUSH2 0x33C9 JUMP JUMPDEST PUSH1 0x40 MLOAD DUP1 SWAP2 SUB SWAP1 REVERT JUMPDEST PUSH2 0x93E PUSH2 0x2664 JUMP JUMPDEST PUSH20 0xFFFFFFFFFFFFFFFFFFFFFFFFFFFFFFFFFFFFFFFF AND PUSH2 0x95C PUSH2 0x146A JUMP JUMPDEST PUSH20 0xFFFFFFFFFFFFFFFFFFFFFFFFFFFFFFFFFFFFFFFF AND EQ PUSH2 0x9B2 JUMPI PUSH1 0x40 MLOAD PUSH32 0x8C379A000000000000000000000000000000000000000000000000000000000 DUP2 MSTORE PUSH1 0x4 ADD PUSH2 0x9A9 SWAP1 PUSH2 0x3699 JUMP JUMPDEST PUSH1 0x40 MLOAD DUP1 SWAP2 SUB SWAP1 REVERT JUMPDEST PUSH1 0x0 PUSH1 0x2 PUSH1 0x1 SWAP1 SLOAD SWAP1 PUSH2 0x100 EXP SWAP1 DIV PUSH20 0xFFFFFFFFFFFFFFFFFFFFFFFFFFFFFFFFFFFFFFFF AND SWAP1 POP PUSH1 0x0 DUP2 PUSH20 0xFFFFFFFFFFFFFFFFFFFFFFFFFFFFFFFFFFFFFFFF AND PUSH4 0x70A08231 ADDRESS PUSH1 0x40 MLOAD DUP3 PUSH4 0xFFFFFFFF AND PUSH1 0xE0 SHL DUP2 MSTORE PUSH1 0x4 ADD PUSH2 0xA14 SWAP2 SWAP1 PUSH2 0x30C7 JUMP JUMPDEST PUSH1 0x20 PUSH1 0x40 MLOAD DUP1 DUP4 SUB DUP2 DUP7 GAS STATICCALL ISZERO DUP1 ISZERO PUSH2 0xA31 JUMPI RETURNDATASIZE PUSH1 0x0 DUP1 RETURNDATACOPY RETURNDATASIZE PUSH1 0x0 REVERT JUMPDEST POP POP POP POP PUSH1 0x40 MLOAD RETURNDATASIZE PUSH1 0x1F NOT PUSH1 0x1F DUP3 ADD AND DUP3 ADD DUP1 PUSH1 0x40 MSTORE POP DUP2 ADD SWAP1 PUSH2 0xA55 SWAP2 SWAP1 PUSH2 0x36CE JUMP JUMPDEST SWAP1 POP PUSH1 0x0 DUP2 GT ISZERO PUSH2 0xAF8 JUMPI PUSH1 0x2 PUSH1 0x1 SWAP1 SLOAD SWAP1 PUSH2 0x100 EXP SWAP1 DIV PUSH20 0xFFFFFFFFFFFFFFFFFFFFFFFFFFFFFFFFFFFFFFFF AND PUSH20 0xFFFFFFFFFFFFFFFFFFFFFFFFFFFFFFFFFFFFFFFF AND PUSH4 0x2E1A7D4D DUP3 PUSH1 0x40 MLOAD DUP3 PUSH4 0xFFFFFFFF AND PUSH1 0xE0 SHL DUP2 MSTORE PUSH1 0x4 ADD PUSH2 0xABB SWAP2 SWAP1 PUSH2 0x2EA6 JUMP JUMPDEST PUSH1 0x0 PUSH1 0x40 MLOAD DUP1 DUP4 SUB DUP2 PUSH1 0x0 DUP8 DUP1 EXTCODESIZE ISZERO DUP1 ISZERO PUSH2 0xAD5 JUMPI PUSH1 0x0 DUP1 REVERT JUMPDEST POP GAS CALL ISZERO DUP1 ISZERO PUSH2 0xAE9 JUMPI RETURNDATASIZE PUSH1 0x0 DUP1 RETURNDATACOPY RETURNDATASIZE PUSH1 0x0 REVERT JUMPDEST POP POP POP POP PUSH2 0xAF7 CALLER DUP3 PUSH2 0x266C JUMP JUMPDEST JUMPDEST PUSH1 0x0 PUSH1 0x5 PUSH1 0x0 SWAP1 SLOAD SWAP1 PUSH2 0x100 EXP SWAP1 DIV PUSH20 0xFFFFFFFFFFFFFFFFFFFFFFFFFFFFFFFFFFFFFFFF AND PUSH20 0xFFFFFFFFFFFFFFFFFFFFFFFFFFFFFFFFFFFFFFFF AND PUSH4 0x70A08231 ADDRESS PUSH1 0x40 MLOAD DUP3 PUSH4 0xFFFFFFFF AND PUSH1 0xE0 SHL DUP2 MSTORE PUSH1 0x4 ADD PUSH2 0xB55 SWAP2 SWAP1 PUSH2 0x30C7 JUMP JUMPDEST PUSH1 0x20 PUSH1 0x40 MLOAD DUP1 DUP4 SUB DUP2 DUP7 GAS STATICCALL ISZERO DUP1 ISZERO PUSH2 0xB72 JUMPI RETURNDATASIZE PUSH1 0x0 DUP1 RETURNDATACOPY RETURNDATASIZE PUSH1 0x0 REVERT JUMPDEST POP POP POP POP PUSH1 0x40 MLOAD RETURNDATASIZE PUSH1 0x1F NOT PUSH1 0x1F DUP3 ADD AND DUP3 ADD DUP1 PUSH1 0x40 MSTORE POP DUP2 ADD SWAP1 PUSH2 0xB96 SWAP2 SWAP1 PUSH2 0x36CE JUMP JUMPDEST SWAP1 POP PUSH1 0x0 DUP2 GT ISZERO PUSH2 0xBCF JUMPI PUSH2 0xBCE PUSH1 0x5 PUSH1 0x0 SWAP1 SLOAD SWAP1 PUSH2 0x100 EXP SWAP1 DIV PUSH20 0xFFFFFFFFFFFFFFFFFFFFFFFFFFFFFFFFFFFFFFFF AND CALLER DUP4 PUSH2 0x276C JUMP JUMPDEST JUMPDEST PUSH1 0x0 PUSH1 0x4 PUSH1 0x1 SWAP1 SLOAD SWAP1 PUSH2 0x100 EXP SWAP1 DIV PUSH20 0xFFFFFFFFFFFFFFFFFFFFFFFFFFFFFFFFFFFFFFFF AND PUSH20 0xFFFFFFFFFFFFFFFFFFFFFFFFFFFFFFFFFFFFFFFF AND PUSH4 0x70A08231 ADDRESS PUSH1 0x40 MLOAD DUP3 PUSH4 0xFFFFFFFF AND PUSH1 0xE0 SHL DUP2 MSTORE PUSH1 0x4 ADD PUSH2 0xC2C SWAP2 SWAP1 PUSH2 0x30C7 JUMP JUMPDEST PUSH1 0x20 PUSH1 0x40 MLOAD DUP1 DUP4 SUB DUP2 DUP7 GAS STATICCALL ISZERO DUP1 ISZERO PUSH2 0xC49 JUMPI RETURNDATASIZE PUSH1 0x0 DUP1 RETURNDATACOPY RETURNDATASIZE PUSH1 0x0 REVERT JUMPDEST POP POP POP POP PUSH1 0x40 MLOAD RETURNDATASIZE PUSH1 0x1F NOT PUSH1 0x1F DUP3 ADD AND DUP3 ADD DUP1 PUSH1 0x40 MSTORE POP DUP2 ADD SWAP1 PUSH2 0xC6D SWAP2 SWAP1 PUSH2 0x36CE JUMP JUMPDEST SWAP1 POP PUSH1 0x0 DUP2 GT ISZERO PUSH2 0xCA6 JUMPI PUSH2 0xCA5 PUSH1 0x4 PUSH1 0x1 SWAP1 SLOAD SWAP1 PUSH2 0x100 EXP SWAP1 DIV PUSH20 0xFFFFFFFFFFFFFFFFFFFFFFFFFFFFFFFFFFFFFFFF AND CALLER DUP4 PUSH2 0x276C JUMP JUMPDEST JUMPDEST PUSH1 0x0 DUP1 PUSH1 0x0 PUSH1 0x2 DUP2 GT ISZERO PUSH2 0xCBD JUMPI PUSH2 0xCBC PUSH2 0x3026 JUMP JUMPDEST JUMPDEST PUSH1 0x2 PUSH1 0x0 SWAP1 SLOAD SWAP1 PUSH2 0x100 EXP SWAP1 DIV PUSH1 0xFF AND PUSH1 0x2 DUP2 GT ISZERO PUSH2 0xCDF JUMPI PUSH2 0xCDE PUSH2 0x3026 JUMP JUMPDEST JUMPDEST SUB PUSH2 0xCEF JUMPI DUP5 SWAP2 POP DUP4 SWAP1 POP PUSH2 0xD3C JUMP JUMPDEST PUSH1 0x2 DUP1 DUP2 GT ISZERO PUSH2 0xD02 JUMPI PUSH2 0xD01 PUSH2 0x3026 JUMP JUMPDEST JUMPDEST PUSH1 0x2 PUSH1 0x0 SWAP1 SLOAD SWAP1 PUSH2 0x100 EXP SWAP1 DIV PUSH1 0xFF AND PUSH1 0x2 DUP2 GT ISZERO PUSH2 0xD24 JUMPI PUSH2 0xD23 PUSH2 0x3026 JUMP JUMPDEST JUMPDEST SUB PUSH2 0xD34 JUMPI DUP3 SWAP2 POP DUP4 SWAP1 POP PUSH2 0xD3B JUMP JUMPDEST DUP3 SWAP2 POP DUP5 SWAP1 POP JUMPDEST JUMPDEST PUSH1 0x0 PUSH32 0x0 SWAP1 POP DUP1 PUSH20 0xFFFFFFFFFFFFFFFFFFFFFFFFFFFFFFFFFFFFFFFF AND PUSH4 0x33796A0E ADDRESS CALLER DUP7 DUP7 PUSH1 0x40 MLOAD DUP6 PUSH4 0xFFFFFFFF AND PUSH1 0xE0 SHL DUP2 MSTORE PUSH1 0x4 ADD PUSH2 0xDA0 SWAP5 SWAP4 SWAP3 SWAP2 SWAP1 PUSH2 0x36FB JUMP JUMPDEST PUSH1 0x0 PUSH1 0x40 MLOAD DUP1 DUP4 SUB DUP2 PUSH1 0x0 DUP8 DUP1 EXTCODESIZE ISZERO DUP1 ISZERO PUSH2 0xDBA JUMPI PUSH1 0x0 DUP1 REVERT JUMPDEST POP GAS CALL ISZERO DUP1 ISZERO PUSH2 0xDCE JUMPI RETURNDATASIZE PUSH1 0x0 DUP1 RETURNDATACOPY RETURNDATASIZE PUSH1 0x0 REVERT JUMPDEST POP POP POP POP CALLER PUSH20 0xFFFFFFFFFFFFFFFFFFFFFFFFFFFFFFFFFFFFFFFF AND SELFDESTRUCT JUMPDEST PUSH1 0x0 DUP1 PUSH1 0x4 PUSH1 0x0 SWAP1 SLOAD SWAP1 PUSH2 0x100 EXP SWAP1 DIV PUSH1 0xFF AND PUSH2 0xE3D JUMPI PUSH1 0x40 MLOAD PUSH32 0x8C379A000000000000000000000000000000000000000000000000000000000 DUP2 MSTORE PUSH1 0x4 ADD PUSH2 0xE34 SWAP1 PUSH2 0x33C9 JUMP JUMPDEST PUSH1 0x40 MLOAD DUP1 SWAP2 SUB SWAP1 REVERT JUMPDEST PUSH1 0x6 SLOAD PUSH1 0x7 SLOAD SWAP2 POP SWAP2 POP SWAP1 SWAP2 JUMP JUMPDEST PUSH1 0x1 SLOAD DUP2 JUMP JUMPDEST TIMESTAMP PUSH1 0x3 SLOAD LT ISZERO DUP1 ISZERO PUSH2 0xE66 JUMPI POP PUSH1 0x7 SLOAD PUSH1 0x1 SLOAD LT JUMPDEST PUSH2 0xEA5 JUMPI PUSH1 0x40 MLOAD PUSH32 0x8C379A000000000000000000000000000000000000000000000000000000000 DUP2 MSTORE PUSH1 0x4 ADD PUSH2 0xE9C SWAP1 PUSH2 0x335D JUMP JUMPDEST PUSH1 0x40 MLOAD DUP1 SWAP2 SUB SWAP1 REVERT JUMPDEST PUSH1 0x4 PUSH1 0x0 SWAP1 SLOAD SWAP1 PUSH2 0x100 EXP SWAP1 DIV PUSH1 0xFF AND PUSH2 0xEF4 JUMPI PUSH1 0x40 MLOAD PUSH32 0x8C379A000000000000000000000000000000000000000000000000000000000 DUP2 MSTORE PUSH1 0x4 ADD PUSH2 0xEEB SWAP1 PUSH2 0x33C9 JUMP JUMPDEST PUSH1 0x40 MLOAD DUP1 SWAP2 SUB SWAP1 REVERT JUMPDEST PUSH1 0x0 PUSH32 0x0 SWAP1 POP DUP1 PUSH20 0xFFFFFFFFFFFFFFFFFFFFFFFFFFFFFFFFFFFFFFFF AND PUSH4 0xB187BD26 PUSH1 0x40 MLOAD DUP2 PUSH4 0xFFFFFFFF AND PUSH1 0xE0 SHL DUP2 MSTORE PUSH1 0x4 ADD PUSH1 0x20 PUSH1 0x40 MLOAD DUP1 DUP4 SUB DUP2 DUP7 GAS STATICCALL ISZERO DUP1 ISZERO PUSH2 0xF64 JUMPI RETURNDATASIZE PUSH1 0x0 DUP1 RETURNDATACOPY RETURNDATASIZE PUSH1 0x0 REVERT JUMPDEST POP POP POP POP PUSH1 0x40 MLOAD RETURNDATASIZE PUSH1 0x1F NOT PUSH1 0x1F DUP3 ADD AND DUP3 ADD DUP1 PUSH1 0x40 MSTORE POP DUP2 ADD SWAP1 PUSH2 0xF88 SWAP2 SWAP1 PUSH2 0x33FE JUMP JUMPDEST ISZERO PUSH2 0xFC8 JUMPI PUSH1 0x40 MLOAD PUSH32 0x8C379A000000000000000000000000000000000000000000000000000000000 DUP2 MSTORE PUSH1 0x4 ADD PUSH2 0xFBF SWAP1 PUSH2 0x349D JUMP JUMPDEST PUSH1 0x40 MLOAD DUP1 SWAP2 SUB SWAP1 REVERT JUMPDEST PUSH1 0x8 PUSH1 0x0 SWAP1 SLOAD SWAP1 PUSH2 0x100 EXP SWAP1 DIV PUSH1 0xFF AND PUSH2 0x1017 JUMPI PUSH1 0x40 MLOAD PUSH32 0x8C379A000000000000000000000000000000000000000000000000000000000 DUP2 MSTORE PUSH1 0x4 ADD PUSH2 0x100E SWAP1 PUSH2 0x352F JUMP JUMPDEST PUSH1 0x40 MLOAD DUP1 SWAP2 SUB SWAP1 REVERT JUMPDEST PUSH1 0x1 PUSH1 0x2 PUSH1 0x0 SWAP1 SLOAD SWAP1 PUSH2 0x100 EXP SWAP1 DIV PUSH1 0xFF AND PUSH1 0x2 DUP2 GT ISZERO PUSH2 0x103B JUMPI PUSH2 0x103A PUSH2 0x3026 JUMP JUMPDEST JUMPDEST DUP2 PUSH1 0x2 DUP2 GT ISZERO PUSH2 0x104E JUMPI PUSH2 0x104D PUSH2 0x3026 JUMP JUMPDEST JUMPDEST EQ PUSH2 0x108E JUMPI PUSH1 0x40 MLOAD PUSH32 0x8C379A000000000000000000000000000000000000000000000000000000000 DUP2 MSTORE PUSH1 0x4 ADD PUSH2 0x1085 SWAP1 PUSH2 0x35C1 JUMP JUMPDEST PUSH1 0x40 MLOAD DUP1 SWAP2 SUB SWAP1 REVERT JUMPDEST PUSH2 0x1097 DUP4 PUSH2 0x28A2 JUMP JUMPDEST POP POP POP JUMP JUMPDEST PUSH1 0x0 PUSH32 0x0 PUSH20 0xFFFFFFFFFFFFFFFFFFFFFFFFFFFFFFFFFFFFFFFF AND CALLER PUSH20 0xFFFFFFFFFFFFFFFFFFFFFFFFFFFFFFFFFFFFFFFF AND EQ PUSH2 0x112C JUMPI PUSH1 0x40 MLOAD PUSH32 0x8C379A000000000000000000000000000000000000000000000000000000000 DUP2 MSTORE PUSH1 0x4 ADD PUSH2 0x1123 SWAP1 PUSH2 0x378C JUMP JUMPDEST PUSH1 0x40 MLOAD DUP1 SWAP2 SUB SWAP1 REVERT JUMPDEST PUSH1 0x4 PUSH1 0x0 SWAP1 SLOAD SWAP1 PUSH2 0x100 EXP SWAP1 DIV PUSH1 0xFF AND ISZERO PUSH2 0x117C JUMPI PUSH1 0x40 MLOAD PUSH32 0x8C379A000000000000000000000000000000000000000000000000000000000 DUP2 MSTORE PUSH1 0x4 ADD PUSH2 0x1173 SWAP1 PUSH2 0x381E JUMP JUMPDEST PUSH1 0x40 MLOAD DUP1 SWAP2 SUB SWAP1 REVERT JUMPDEST TIMESTAMP DUP5 LT PUSH2 0x11BE JUMPI PUSH1 0x40 MLOAD PUSH32 0x8C379A000000000000000000000000000000000000000000000000000000000 DUP2 MSTORE PUSH1 0x4 ADD PUSH2 0x11B5 SWAP1 PUSH2 0x388A JUMP JUMPDEST PUSH1 0x40 MLOAD DUP1 SWAP2 SUB SWAP1 REVERT JUMPDEST DUP6 DUP9 PUSH20 0xFFFFFFFFFFFFFFFFFFFFFFFFFFFFFFFFFFFFFFFF AND PUSH4 0x70A08231 ADDRESS PUSH1 0x40 MLOAD DUP3 PUSH4 0xFFFFFFFF AND PUSH1 0xE0 SHL DUP2 MSTORE PUSH1 0x4 ADD PUSH2 0x11F8 SWAP2 SWAP1 PUSH2 0x30C7 JUMP JUMPDEST PUSH1 0x20 PUSH1 0x40 MLOAD DUP1 DUP4 SUB DUP2 DUP7 GAS STATICCALL ISZERO DUP1 ISZERO PUSH2 0x1215 JUMPI RETURNDATASIZE PUSH1 0x0 DUP1 RETURNDATACOPY RETURNDATASIZE PUSH1 0x0 REVERT JUMPDEST POP POP POP POP PUSH1 0x40 MLOAD RETURNDATASIZE PUSH1 0x1F NOT PUSH1 0x1F DUP3 ADD AND DUP3 ADD DUP1 PUSH1 0x40 MSTORE POP DUP2 ADD SWAP1 PUSH2 0x1239 SWAP2 SWAP1 PUSH2 0x36CE JUMP JUMPDEST LT ISZERO PUSH2 0x127A JUMPI PUSH1 0x40 MLOAD PUSH32 0x8C379A000000000000000000000000000000000000000000000000000000000 DUP2 MSTORE PUSH1 0x4 ADD PUSH2 0x1271 SWAP1 PUSH2 0x391C JUMP JUMPDEST PUSH1 0x40 MLOAD DUP1 SWAP2 SUB SWAP1 REVERT JUMPDEST DUP4 PUSH1 0x3 DUP2 SWAP1 SSTORE POP DUP8 PUSH1 0x4 PUSH1 0x1 PUSH2 0x100 EXP DUP2 SLOAD DUP2 PUSH20 0xFFFFFFFFFFFFFFFFFFFFFFFFFFFFFFFFFFFFFFFF MUL NOT AND SWAP1 DUP4 PUSH20 0xFFFFFFFFFFFFFFFFFFFFFFFFFFFFFFFFFFFFFFFF AND MUL OR SWAP1 SSTORE POP DUP7 PUSH1 0x5 PUSH1 0x0 PUSH2 0x100 EXP DUP2 SLOAD DUP2 PUSH20 0xFFFFFFFFFFFFFFFFFFFFFFFFFFFFFFFFFFFFFFFF MUL NOT AND SWAP1 DUP4 PUSH20 0xFFFFFFFFFFFFFFFFFFFFFFFFFFFFFFFFFFFFFFFF AND MUL OR SWAP1 SSTORE POP DUP6 PUSH1 0x6 DUP2 SWAP1 SSTORE POP DUP5 PUSH1 0x7 DUP2 SWAP1 SSTORE POP DUP9 PUSH1 0x2 PUSH1 0x0 PUSH2 0x100 EXP DUP2 SLOAD DUP2 PUSH1 0xFF MUL NOT AND SWAP1 DUP4 PUSH1 0x2 DUP2 GT ISZERO PUSH2 0x1336 JUMPI PUSH2 0x1335 PUSH2 0x3026 JUMP JUMPDEST JUMPDEST MUL OR SWAP1 SSTORE POP DUP3 PUSH1 0x8 PUSH1 0x0 PUSH2 0x100 EXP DUP2 SLOAD DUP2 PUSH1 0xFF MUL NOT AND SWAP1 DUP4 ISZERO ISZERO MUL OR SWAP1 SSTORE POP DUP2 PUSH1 0x2 PUSH1 0x1 PUSH2 0x100 EXP DUP2 SLOAD DUP2 PUSH20 0xFFFFFFFFFFFFFFFFFFFFFFFFFFFFFFFFFFFFFFFF MUL NOT AND SWAP1 DUP4 PUSH20 0xFFFFFFFFFFFFFFFFFFFFFFFFFFFFFFFFFFFFFFFF AND MUL OR SWAP1 SSTORE POP PUSH1 0x1 PUSH1 0x4 PUSH1 0x0 PUSH2 0x100 EXP DUP2 SLOAD DUP2 PUSH1 0xFF MUL NOT AND SWAP1 DUP4 ISZERO ISZERO MUL OR SWAP1 SSTORE POP PUSH1 0x4 PUSH1 0x0 SWAP1 SLOAD SWAP1 PUSH2 0x100 EXP SWAP1 DIV PUSH1 0xFF AND SWAP1 POP SWAP9 SWAP8 POP POP POP POP POP POP POP POP JUMP JUMPDEST PUSH2 0x13D7 PUSH2 0x2664 JUMP JUMPDEST PUSH20 0xFFFFFFFFFFFFFFFFFFFFFFFFFFFFFFFFFFFFFFFF AND PUSH2 0x13F5 PUSH2 0x146A JUMP JUMPDEST PUSH20 0xFFFFFFFFFFFFFFFFFFFFFFFFFFFFFFFFFFFFFFFF AND EQ PUSH2 0x144B JUMPI PUSH1 0x40 MLOAD PUSH32 0x8C379A000000000000000000000000000000000000000000000000000000000 DUP2 MSTORE PUSH1 0x4 ADD PUSH2 0x1442 SWAP1 PUSH2 0x3699 JUMP JUMPDEST PUSH1 0x40 MLOAD DUP1 SWAP2 SUB SWAP1 REVERT JUMPDEST PUSH2 0x1455 PUSH1 0x0 PUSH2 0x2BD3 JUMP JUMPDEST JUMP JUMPDEST PUSH1 0x2 PUSH1 0x0 SWAP1 SLOAD SWAP1 PUSH2 0x100 EXP SWAP1 DIV PUSH1 0xFF AND DUP2 JUMP JUMPDEST PUSH1 0x0 DUP1 PUSH1 0x0 SWAP1 SLOAD SWAP1 PUSH2 0x100 EXP SWAP1 DIV PUSH20 0xFFFFFFFFFFFFFFFFFFFFFFFFFFFFFFFFFFFFFFFF AND SWAP1 POP SWAP1 JUMP JUMPDEST TIMESTAMP PUSH1 0x3 SLOAD LT ISZERO DUP1 ISZERO PUSH2 0x14A8 JUMPI POP PUSH1 0x7 SLOAD PUSH1 0x1 SLOAD LT JUMPDEST PUSH2 0x14E7 JUMPI PUSH1 0x40 MLOAD PUSH32 0x8C379A000000000000000000000000000000000000000000000000000000000 DUP2 MSTORE PUSH1 0x4 ADD PUSH2 0x14DE SWAP1 PUSH2 0x335D JUMP JUMPDEST PUSH1 0x40 MLOAD DUP1 SWAP2 SUB SWAP1 REVERT JUMPDEST PUSH1 0x4 PUSH1 0x0 SWAP1 SLOAD SWAP1 PUSH2 0x100 EXP SWAP1 DIV PUSH1 0xFF AND PUSH2 0x1536 JUMPI PUSH1 0x40 MLOAD PUSH32 0x8C379A000000000000000000000000000000000000000000000000000000000 DUP2 MSTORE PUSH1 0x4 ADD PUSH2 0x152D SWAP1 PUSH2 0x33C9 JUMP JUMPDEST PUSH1 0x40 MLOAD DUP1 SWAP2 SUB SWAP1 REVERT JUMPDEST PUSH1 0x0 PUSH32 0x0 SWAP1 POP DUP1 PUSH20 0xFFFFFFFFFFFFFFFFFFFFFFFFFFFFFFFFFFFFFFFF AND PUSH4 0xB187BD26 PUSH1 0x40 MLOAD DUP2 PUSH4 0xFFFFFFFF AND PUSH1 0xE0 SHL DUP2 MSTORE PUSH1 0x4 ADD PUSH1 0x20 PUSH1 0x40 MLOAD DUP1 DUP4 SUB DUP2 DUP7 GAS STATICCALL ISZERO DUP1 ISZERO PUSH2 0x15A6 JUMPI RETURNDATASIZE PUSH1 0x0 DUP1 RETURNDATACOPY RETURNDATASIZE PUSH1 0x0 REVERT JUMPDEST POP POP POP POP PUSH1 0x40 MLOAD RETURNDATASIZE PUSH1 0x1F NOT PUSH1 0x1F DUP3 ADD AND DUP3 ADD DUP1 PUSH1 0x40 MSTORE POP DUP2 ADD SWAP1 PUSH2 0x15CA SWAP2 SWAP1 PUSH2 0x33FE JUMP JUMPDEST ISZERO PUSH2 0x160A JUMPI PUSH1 0x40 MLOAD PUSH32 0x8C379A000000000000000000000000000000000000000000000000000000000 DUP2 MSTORE PUSH1 0x4 ADD PUSH2 0x1601 SWAP1 PUSH2 0x349D JUMP JUMPDEST PUSH1 0x40 MLOAD DUP1 SWAP2 SUB SWAP1 REVERT JUMPDEST PUSH1 0x0 PUSH1 0x2 PUSH1 0x0 SWAP1 SLOAD SWAP1 PUSH2 0x100 EXP SWAP1 DIV PUSH1 0xFF AND PUSH1 0x2 DUP2 GT ISZERO PUSH2 0x162E JUMPI PUSH2 0x162D PUSH2 0x3026 JUMP JUMPDEST JUMPDEST DUP2 PUSH1 0x2 DUP2 GT ISZERO PUSH2 0x1641 JUMPI PUSH2 0x1640 PUSH2 0x3026 JUMP JUMPDEST JUMPDEST EQ PUSH2 0x1681 JUMPI PUSH1 0x40 MLOAD PUSH32 0x8C379A000000000000000000000000000000000000000000000000000000000 DUP2 MSTORE PUSH1 0x4 ADD PUSH2 0x1678 SWAP1 PUSH2 0x35C1 JUMP JUMPDEST PUSH1 0x40 MLOAD DUP1 SWAP2 SUB SWAP1 REVERT JUMPDEST PUSH2 0x168C PUSH1 0x7 SLOAD PUSH2 0x1F04 JUMP JUMPDEST POP POP JUMP JUMPDEST PUSH1 0x0 DUP1 PUSH1 0x4 PUSH1 0x0 SWAP1 SLOAD SWAP1 PUSH2 0x100 EXP SWAP1 DIV PUSH1 0xFF AND PUSH2 0x16E2 JUMPI PUSH1 0x40 MLOAD PUSH32 0x8C379A000000000000000000000000000000000000000000000000000000000 DUP2 MSTORE PUSH1 0x4 ADD PUSH2 0x16D9 SWAP1 PUSH2 0x33C9 JUMP JUMPDEST PUSH1 0x40 MLOAD DUP1 SWAP2 SUB SWAP1 REVERT JUMPDEST PUSH1 0x4 PUSH1 0x1 SWAP1 SLOAD SWAP1 PUSH2 0x100 EXP SWAP1 DIV PUSH20 0xFFFFFFFFFFFFFFFFFFFFFFFFFFFFFFFFFFFFFFFF AND PUSH1 0x5 PUSH1 0x0 SWAP1 SLOAD SWAP1 PUSH2 0x100 EXP SWAP1 DIV PUSH20 0xFFFFFFFFFFFFFFFFFFFFFFFFFFFFFFFFFFFFFFFF AND SWAP2 POP SWAP2 POP SWAP1 SWAP2 JUMP JUMPDEST TIMESTAMP PUSH1 0x3 SLOAD LT ISZERO DUP1 ISZERO PUSH2 0x1745 JUMPI POP PUSH1 0x7 SLOAD PUSH1 0x1 SLOAD LT JUMPDEST PUSH2 0x1784 JUMPI PUSH1 0x40 MLOAD PUSH32 0x8C379A000000000000000000000000000000000000000000000000000000000 DUP2 MSTORE PUSH1 0x4 ADD PUSH2 0x177B SWAP1 PUSH2 0x335D JUMP JUMPDEST PUSH1 0x40 MLOAD DUP1 SWAP2 SUB SWAP1 REVERT JUMPDEST PUSH1 0x4 PUSH1 0x0 SWAP1 SLOAD SWAP1 PUSH2 0x100 EXP SWAP1 DIV PUSH1 0xFF AND PUSH2 0x17D3 JUMPI PUSH1 0x40 MLOAD PUSH32 0x8C379A000000000000000000000000000000000000000000000000000000000 DUP2 MSTORE PUSH1 0x4 ADD PUSH2 0x17CA SWAP1 PUSH2 0x33C9 JUMP JUMPDEST PUSH1 0x40 MLOAD DUP1 SWAP2 SUB SWAP1 REVERT JUMPDEST PUSH1 0x0 PUSH32 0x0 SWAP1 POP DUP1 PUSH20 0xFFFFFFFFFFFFFFFFFFFFFFFFFFFFFFFFFFFFFFFF AND PUSH4 0xB187BD26 PUSH1 0x40 MLOAD DUP2 PUSH4 0xFFFFFFFF AND PUSH1 0xE0 SHL DUP2 MSTORE PUSH1 0x4 ADD PUSH1 0x20 PUSH1 0x40 MLOAD DUP1 DUP4 SUB DUP2 DUP7 GAS STATICCALL ISZERO DUP1 ISZERO PUSH2 0x1843 JUMPI RETURNDATASIZE PUSH1 0x0 DUP1 RETURNDATACOPY RETURNDATASIZE PUSH1 0x0 REVERT JUMPDEST POP POP POP POP PUSH1 0x40 MLOAD RETURNDATASIZE PUSH1 0x1F NOT PUSH1 0x1F DUP3 ADD AND DUP3 ADD DUP1 PUSH1 0x40 MSTORE POP DUP2 ADD SWAP1 PUSH2 0x1867 SWAP2 SWAP1 PUSH2 0x33FE JUMP JUMPDEST ISZERO PUSH2 0x18A7 JUMPI PUSH1 0x40 MLOAD PUSH32 0x8C379A000000000000000000000000000000000000000000000000000000000 DUP2 MSTORE PUSH1 0x4 ADD PUSH2 0x189E SWAP1 PUSH2 0x349D JUMP JUMPDEST PUSH1 0x40 MLOAD DUP1 SWAP2 SUB SWAP1 REVERT JUMPDEST PUSH1 0x2 DUP1 PUSH1 0x0 SWAP1 SLOAD SWAP1 PUSH2 0x100 EXP SWAP1 DIV PUSH1 0xFF AND PUSH1 0x2 DUP2 GT ISZERO PUSH2 0x18CA JUMPI PUSH2 0x18C9 PUSH2 0x3026 JUMP JUMPDEST JUMPDEST DUP2 PUSH1 0x2 DUP2 GT ISZERO PUSH2 0x18DD JUMPI PUSH2 0x18DC PUSH2 0x3026 JUMP JUMPDEST JUMPDEST EQ PUSH2 0x191D JUMPI PUSH1 0x40 MLOAD PUSH32 0x8C379A000000000000000000000000000000000000000000000000000000000 DUP2 MSTORE PUSH1 0x4 ADD PUSH2 0x1914 SWAP1 PUSH2 0x35C1 JUMP JUMPDEST PUSH1 0x40 MLOAD DUP1 SWAP2 SUB SWAP1 REVERT JUMPDEST PUSH2 0x1928 PUSH1 0x7 SLOAD PUSH2 0x22EC JUMP JUMPDEST POP POP JUMP JUMPDEST PUSH32 0x0 DUP2 JUMP JUMPDEST TIMESTAMP PUSH1 0x3 SLOAD LT ISZERO DUP1 ISZERO PUSH2 0x1965 JUMPI POP PUSH1 0x7 SLOAD PUSH1 0x1 SLOAD LT JUMPDEST PUSH2 0x19A4 JUMPI PUSH1 0x40 MLOAD PUSH32 0x8C379A000000000000000000000000000000000000000000000000000000000 DUP2 MSTORE PUSH1 0x4 ADD PUSH2 0x199B SWAP1 PUSH2 0x335D JUMP JUMPDEST PUSH1 0x40 MLOAD DUP1 SWAP2 SUB SWAP1 REVERT JUMPDEST PUSH1 0x4 PUSH1 0x0 SWAP1 SLOAD SWAP1 PUSH2 0x100 EXP SWAP1 DIV PUSH1 0xFF AND PUSH2 0x19F3 JUMPI PUSH1 0x40 MLOAD PUSH32 0x8C379A000000000000000000000000000000000000000000000000000000000 DUP2 MSTORE PUSH1 0x4 ADD PUSH2 0x19EA SWAP1 PUSH2 0x33C9 JUMP JUMPDEST PUSH1 0x40 MLOAD DUP1 SWAP2 SUB SWAP1 REVERT JUMPDEST PUSH1 0x0 PUSH32 0x0 SWAP1 POP DUP1 PUSH20 0xFFFFFFFFFFFFFFFFFFFFFFFFFFFFFFFFFFFFFFFF AND PUSH4 0xB187BD26 PUSH1 0x40 MLOAD DUP2 PUSH4 0xFFFFFFFF AND PUSH1 0xE0 SHL DUP2 MSTORE PUSH1 0x4 ADD PUSH1 0x20 PUSH1 0x40 MLOAD DUP1 DUP4 SUB DUP2 DUP7 GAS STATICCALL ISZERO DUP1 ISZERO PUSH2 0x1A63 JUMPI RETURNDATASIZE PUSH1 0x0 DUP1 RETURNDATACOPY RETURNDATASIZE PUSH1 0x0 REVERT JUMPDEST POP POP POP POP PUSH1 0x40 MLOAD RETURNDATASIZE PUSH1 0x1F NOT PUSH1 0x1F DUP3 ADD AND DUP3 ADD DUP1 PUSH1 0x40 MSTORE POP DUP2 ADD SWAP1 PUSH2 0x1A87 SWAP2 SWAP1 PUSH2 0x33FE JUMP JUMPDEST ISZERO PUSH2 0x1AC7 JUMPI PUSH1 0x40 MLOAD PUSH32 0x8C379A000000000000000000000000000000000000000000000000000000000 DUP2 MSTORE PUSH1 0x4 ADD PUSH2 0x1ABE SWAP1 PUSH2 0x349D JUMP JUMPDEST PUSH1 0x40 MLOAD DUP1 SWAP2 SUB SWAP1 REVERT JUMPDEST PUSH1 0x1 PUSH1 0x2 PUSH1 0x0 SWAP1 SLOAD SWAP1 PUSH2 0x100 EXP SWAP1 DIV PUSH1 0xFF AND PUSH1 0x2 DUP2 GT ISZERO PUSH2 0x1AEB JUMPI PUSH2 0x1AEA PUSH2 0x3026 JUMP JUMPDEST JUMPDEST DUP2 PUSH1 0x2 DUP2 GT ISZERO PUSH2 0x1AFE JUMPI PUSH2 0x1AFD PUSH2 0x3026 JUMP JUMPDEST JUMPDEST EQ PUSH2 0x1B3E JUMPI PUSH1 0x40 MLOAD PUSH32 0x8C379A000000000000000000000000000000000000000000000000000000000 DUP2 MSTORE PUSH1 0x4 ADD PUSH2 0x1B35 SWAP1 PUSH2 0x35C1 JUMP JUMPDEST PUSH1 0x40 MLOAD DUP1 SWAP2 SUB SWAP1 REVERT JUMPDEST PUSH2 0x1B49 PUSH1 0x7 SLOAD PUSH2 0x28A2 JUMP JUMPDEST POP POP JUMP JUMPDEST PUSH1 0x0 PUSH1 0x7 SLOAD PUSH1 0x6 SLOAD DUP4 PUSH2 0x1B60 SWAP2 SWAP1 PUSH2 0x396B JUMP JUMPDEST PUSH2 0x1B6A SWAP2 SWAP1 PUSH2 0x39F4 JUMP JUMPDEST SWAP1 POP SWAP2 SWAP1 POP JUMP JUMPDEST PUSH1 0x60 DUP1 PUSH1 0x60 PUSH1 0x4 PUSH1 0x0 SWAP1 SLOAD SWAP1 PUSH2 0x100 EXP SWAP1 DIV PUSH1 0xFF AND PUSH2 0x1BC5 JUMPI PUSH1 0x40 MLOAD PUSH32 0x8C379A000000000000000000000000000000000000000000000000000000000 DUP2 MSTORE PUSH1 0x4 ADD PUSH2 0x1BBC SWAP1 PUSH2 0x33C9 JUMP JUMPDEST PUSH1 0x40 MLOAD DUP1 SWAP2 SUB SWAP1 REVERT JUMPDEST PUSH1 0x0 PUSH1 0x9 DUP1 SLOAD SWAP1 POP PUSH8 0xFFFFFFFFFFFFFFFF DUP2 GT ISZERO PUSH2 0x1BE6 JUMPI PUSH2 0x1BE5 PUSH2 0x3A25 JUMP JUMPDEST JUMPDEST PUSH1 0x40 MLOAD SWAP1 DUP1 DUP3 MSTORE DUP1 PUSH1 0x20 MUL PUSH1 0x20 ADD DUP3 ADD PUSH1 0x40 MSTORE DUP1 ISZERO PUSH2 0x1C14 JUMPI DUP2 PUSH1 0x20 ADD PUSH1 0x20 DUP3 MUL DUP1 CALLDATASIZE DUP4 CALLDATACOPY DUP1 DUP3 ADD SWAP2 POP POP SWAP1 POP JUMPDEST POP SWAP1 POP PUSH1 0x0 PUSH1 0x9 DUP1 SLOAD SWAP1 POP PUSH8 0xFFFFFFFFFFFFFFFF DUP2 GT ISZERO PUSH2 0x1C38 JUMPI PUSH2 0x1C37 PUSH2 0x3A25 JUMP JUMPDEST JUMPDEST PUSH1 0x40 MLOAD SWAP1 DUP1 DUP3 MSTORE DUP1 PUSH1 0x20 MUL PUSH1 0x20 ADD DUP3 ADD PUSH1 0x40 MSTORE DUP1 ISZERO PUSH2 0x1C66 JUMPI DUP2 PUSH1 0x20 ADD PUSH1 0x20 DUP3 MUL DUP1 CALLDATASIZE DUP4 CALLDATACOPY DUP1 DUP3 ADD SWAP2 POP POP SWAP1 POP JUMPDEST POP SWAP1 POP PUSH1 0x0 PUSH1 0x9 DUP1 SLOAD SWAP1 POP PUSH8 0xFFFFFFFFFFFFFFFF DUP2 GT ISZERO PUSH2 0x1C8A JUMPI PUSH2 0x1C89 PUSH2 0x3A25 JUMP JUMPDEST JUMPDEST PUSH1 0x40 MLOAD SWAP1 DUP1 DUP3 MSTORE DUP1 PUSH1 0x20 MUL PUSH1 0x20 ADD DUP3 ADD PUSH1 0x40 MSTORE DUP1 ISZERO PUSH2 0x1CB8 JUMPI DUP2 PUSH1 0x20 ADD PUSH1 0x20 DUP3 MUL DUP1 CALLDATASIZE DUP4 CALLDATACOPY DUP1 DUP3 ADD SWAP2 POP POP SWAP1 POP JUMPDEST POP SWAP1 POP PUSH1 0x0 JUMPDEST PUSH1 0x9 DUP1 SLOAD SWAP1 POP DUP2 LT ISZERO PUSH2 0x1DFB JUMPI PUSH1 0x9 DUP2 DUP2 SLOAD DUP2 LT PUSH2 0x1CDF JUMPI PUSH2 0x1CDE PUSH2 0x3A54 JUMP JUMPDEST JUMPDEST SWAP1 PUSH1 0x0 MSTORE PUSH1 0x20 PUSH1 0x0 KECCAK256 SWAP1 PUSH1 0x3 MUL ADD PUSH1 0x0 ADD PUSH1 0x0 SWAP1 SLOAD SWAP1 PUSH2 0x100 EXP SWAP1 DIV PUSH20 0xFFFFFFFFFFFFFFFFFFFFFFFFFFFFFFFFFFFFFFFF AND DUP5 DUP3 DUP2 MLOAD DUP2 LT PUSH2 0x1D24 JUMPI PUSH2 0x1D23 PUSH2 0x3A54 JUMP JUMPDEST JUMPDEST PUSH1 0x20 MUL PUSH1 0x20 ADD ADD SWAP1 PUSH20 0xFFFFFFFFFFFFFFFFFFFFFFFFFFFFFFFFFFFFFFFF AND SWAP1 DUP2 PUSH20 0xFFFFFFFFFFFFFFFFFFFFFFFFFFFFFFFFFFFFFFFF AND DUP2 MSTORE POP POP PUSH1 0x9 DUP2 DUP2 SLOAD DUP2 LT PUSH2 0x1D72 JUMPI PUSH2 0x1D71 PUSH2 0x3A54 JUMP JUMPDEST JUMPDEST SWAP1 PUSH1 0x0 MSTORE PUSH1 0x20 PUSH1 0x0 KECCAK256 SWAP1 PUSH1 0x3 MUL ADD PUSH1 0x1 ADD SLOAD DUP4 DUP3 DUP2 MLOAD DUP2 LT PUSH2 0x1D97 JUMPI PUSH2 0x1D96 PUSH2 0x3A54 JUMP JUMPDEST JUMPDEST PUSH1 0x20 MUL PUSH1 0x20 ADD ADD DUP2 DUP2 MSTORE POP POP PUSH1 0x9 DUP2 DUP2 SLOAD DUP2 LT PUSH2 0x1DB7 JUMPI PUSH2 0x1DB6 PUSH2 0x3A54 JUMP JUMPDEST JUMPDEST SWAP1 PUSH1 0x0 MSTORE PUSH1 0x20 PUSH1 0x0 KECCAK256 SWAP1 PUSH1 0x3 MUL ADD PUSH1 0x2 ADD SLOAD DUP3 DUP3 DUP2 MLOAD DUP2 LT PUSH2 0x1DDC JUMPI PUSH2 0x1DDB PUSH2 0x3A54 JUMP JUMPDEST JUMPDEST PUSH1 0x20 MUL PUSH1 0x20 ADD ADD DUP2 DUP2 MSTORE POP POP DUP1 DUP1 PUSH2 0x1DF3 SWAP1 PUSH2 0x3A83 JUMP JUMPDEST SWAP2 POP POP PUSH2 0x1CBE JUMP JUMPDEST POP DUP3 DUP3 DUP3 SWAP6 POP SWAP6 POP SWAP6 POP POP POP POP SWAP1 SWAP2 SWAP3 JUMP JUMPDEST PUSH2 0x1E15 PUSH2 0x2664 JUMP JUMPDEST PUSH20 0xFFFFFFFFFFFFFFFFFFFFFFFFFFFFFFFFFFFFFFFF AND PUSH2 0x1E33 PUSH2 0x146A JUMP JUMPDEST PUSH20 0xFFFFFFFFFFFFFFFFFFFFFFFFFFFFFFFFFFFFFFFF AND EQ PUSH2 0x1E89 JUMPI PUSH1 0x40 MLOAD PUSH32 0x8C379A000000000000000000000000000000000000000000000000000000000 DUP2 MSTORE PUSH1 0x4 ADD PUSH2 0x1E80 SWAP1 PUSH2 0x3699 JUMP JUMPDEST PUSH1 0x40 MLOAD DUP1 SWAP2 SUB SWAP1 REVERT JUMPDEST PUSH1 0x0 PUSH20 0xFFFFFFFFFFFFFFFFFFFFFFFFFFFFFFFFFFFFFFFF AND DUP2 PUSH20 0xFFFFFFFFFFFFFFFFFFFFFFFFFFFFFFFFFFFFFFFF AND SUB PUSH2 0x1EF8 JUMPI PUSH1 0x40 MLOAD PUSH32 0x8C379A000000000000000000000000000000000000000000000000000000000 DUP2 MSTORE PUSH1 0x4 ADD PUSH2 0x1EEF SWAP1 PUSH2 0x3B3D JUMP JUMPDEST PUSH1 0x40 MLOAD DUP1 SWAP2 SUB SWAP1 REVERT JUMPDEST PUSH2 0x1F01 DUP2 PUSH2 0x2BD3 JUMP JUMPDEST POP JUMP JUMPDEST DUP1 PUSH1 0x5 PUSH1 0x0 SWAP1 SLOAD SWAP1 PUSH2 0x100 EXP SWAP1 DIV PUSH20 0xFFFFFFFFFFFFFFFFFFFFFFFFFFFFFFFFFFFFFFFF AND PUSH20 0xFFFFFFFFFFFFFFFFFFFFFFFFFFFFFFFFFFFFFFFF AND PUSH4 0x70A08231 CALLER PUSH1 0x40 MLOAD DUP3 PUSH4 0xFFFFFFFF AND PUSH1 0xE0 SHL DUP2 MSTORE PUSH1 0x4 ADD PUSH2 0x1F60 SWAP2 SWAP1 PUSH2 0x30C7 JUMP JUMPDEST PUSH1 0x20 PUSH1 0x40 MLOAD DUP1 DUP4 SUB DUP2 DUP7 GAS STATICCALL ISZERO DUP1 ISZERO PUSH2 0x1F7D JUMPI RETURNDATASIZE PUSH1 0x0 DUP1 RETURNDATACOPY RETURNDATASIZE PUSH1 0x0 REVERT JUMPDEST POP POP POP POP PUSH1 0x40 MLOAD RETURNDATASIZE PUSH1 0x1F NOT PUSH1 0x1F DUP3 ADD AND DUP3 ADD DUP1 PUSH1 0x40 MSTORE POP DUP2 ADD SWAP1 PUSH2 0x1FA1 SWAP2 SWAP1 PUSH2 0x36CE JUMP JUMPDEST LT ISZERO PUSH2 0x1FE2 JUMPI PUSH1 0x40 MLOAD PUSH32 0x8C379A000000000000000000000000000000000000000000000000000000000 DUP2 MSTORE PUSH1 0x4 ADD PUSH2 0x1FD9 SWAP1 PUSH2 0x3BCF JUMP JUMPDEST PUSH1 0x40 MLOAD DUP1 SWAP2 SUB SWAP1 REVERT JUMPDEST PUSH1 0x0 PUSH2 0x1FED DUP3 PUSH2 0x1B4D JUMP JUMPDEST SWAP1 POP PUSH1 0x0 PUSH1 0x2 PUSH1 0x1 SWAP1 SLOAD SWAP1 PUSH2 0x100 EXP SWAP1 DIV PUSH20 0xFFFFFFFFFFFFFFFFFFFFFFFFFFFFFFFFFFFFFFFF AND SWAP1 POP DUP2 DUP2 PUSH20 0xFFFFFFFFFFFFFFFFFFFFFFFFFFFFFFFFFFFFFFFF AND PUSH4 0x70A08231 ADDRESS PUSH1 0x40 MLOAD DUP3 PUSH4 0xFFFFFFFF AND PUSH1 0xE0 SHL DUP2 MSTORE PUSH1 0x4 ADD PUSH2 0x2050 SWAP2 SWAP1 PUSH2 0x30C7 JUMP JUMPDEST PUSH1 0x20 PUSH1 0x40 MLOAD DUP1 DUP4 SUB DUP2 DUP7 GAS STATICCALL ISZERO DUP1 ISZERO PUSH2 0x206D JUMPI RETURNDATASIZE PUSH1 0x0 DUP1 RETURNDATACOPY RETURNDATASIZE PUSH1 0x0 REVERT JUMPDEST POP POP POP POP PUSH1 0x40 MLOAD RETURNDATASIZE PUSH1 0x1F NOT PUSH1 0x1F DUP3 ADD AND DUP3 ADD DUP1 PUSH1 0x40 MSTORE POP DUP2 ADD SWAP1 PUSH2 0x2091 SWAP2 SWAP1 PUSH2 0x36CE JUMP JUMPDEST LT ISZERO PUSH2 0x20D2 JUMPI PUSH1 0x40 MLOAD PUSH32 0x8C379A000000000000000000000000000000000000000000000000000000000 DUP2 MSTORE PUSH1 0x4 ADD PUSH2 0x20C9 SWAP1 PUSH2 0x3C61 JUMP JUMPDEST PUSH1 0x40 MLOAD DUP1 SWAP2 SUB SWAP1 REVERT JUMPDEST PUSH1 0x2 PUSH1 0x1 SWAP1 SLOAD SWAP1 PUSH2 0x100 EXP SWAP1 DIV PUSH20 0xFFFFFFFFFFFFFFFFFFFFFFFFFFFFFFFFFFFFFFFF AND PUSH20 0xFFFFFFFFFFFFFFFFFFFFFFFFFFFFFFFFFFFFFFFF AND PUSH4 0x2E1A7D4D DUP4 PUSH1 0x40 MLOAD DUP3 PUSH4 0xFFFFFFFF AND PUSH1 0xE0 SHL DUP2 MSTORE PUSH1 0x4 ADD PUSH2 0x212D SWAP2 SWAP1 PUSH2 0x2EA6 JUMP JUMPDEST PUSH1 0x0 PUSH1 0x40 MLOAD DUP1 DUP4 SUB DUP2 PUSH1 0x0 DUP8 DUP1 EXTCODESIZE ISZERO DUP1 ISZERO PUSH2 0x2147 JUMPI PUSH1 0x0 DUP1 REVERT JUMPDEST POP GAS CALL ISZERO DUP1 ISZERO PUSH2 0x215B JUMPI RETURNDATASIZE PUSH1 0x0 DUP1 RETURNDATACOPY RETURNDATASIZE PUSH1 0x0 REVERT JUMPDEST POP POP POP POP PUSH2 0x218D PUSH1 0x5 PUSH1 0x0 SWAP1 SLOAD SWAP1 PUSH2 0x100 EXP SWAP1 DIV PUSH20 0xFFFFFFFFFFFFFFFFFFFFFFFFFFFFFFFFFFFFFFFF AND CALLER ADDRESS DUP7 PUSH2 0x2C97 JUMP JUMPDEST PUSH2 0x2197 CALLER DUP4 PUSH2 0x266C JUMP JUMPDEST PUSH1 0x9 PUSH1 0x40 MLOAD DUP1 PUSH1 0x60 ADD PUSH1 0x40 MSTORE DUP1 CALLER PUSH20 0xFFFFFFFFFFFFFFFFFFFFFFFFFFFFFFFFFFFFFFFF AND DUP2 MSTORE PUSH1 0x20 ADD DUP6 DUP2 MSTORE PUSH1 0x20 ADD DUP5 DUP2 MSTORE POP SWAP1 DUP1 PUSH1 0x1 DUP2 SLOAD ADD DUP1 DUP3 SSTORE DUP1 SWAP2 POP POP PUSH1 0x1 SWAP1 SUB SWAP1 PUSH1 0x0 MSTORE PUSH1 0x20 PUSH1 0x0 KECCAK256 SWAP1 PUSH1 0x3 MUL ADD PUSH1 0x0 SWAP1 SWAP2 SWAP1 SWAP2 SWAP1 SWAP2 POP PUSH1 0x0 DUP3 ADD MLOAD DUP2 PUSH1 0x0 ADD PUSH1 0x0 PUSH2 0x100 EXP DUP2 SLOAD DUP2 PUSH20 0xFFFFFFFFFFFFFFFFFFFFFFFFFFFFFFFFFFFFFFFF MUL NOT AND SWAP1 DUP4 PUSH20 0xFFFFFFFFFFFFFFFFFFFFFFFFFFFFFFFFFFFFFFFF AND MUL OR SWAP1 SSTORE POP PUSH1 0x20 DUP3 ADD MLOAD DUP2 PUSH1 0x1 ADD SSTORE PUSH1 0x40 DUP3 ADD MLOAD DUP2 PUSH1 0x2 ADD SSTORE POP POP PUSH1 0x0 PUSH32 0x0 SWAP1 POP DUP1 PUSH20 0xFFFFFFFFFFFFFFFFFFFFFFFFFFFFFFFFFFFFFFFF AND PUSH4 0xF52701B7 ADDRESS CALLER DUP8 DUP8 PUSH1 0x40 MLOAD DUP6 PUSH4 0xFFFFFFFF AND PUSH1 0xE0 SHL DUP2 MSTORE PUSH1 0x4 ADD PUSH2 0x22B4 SWAP5 SWAP4 SWAP3 SWAP2 SWAP1 PUSH2 0x36FB JUMP JUMPDEST PUSH1 0x0 PUSH1 0x40 MLOAD DUP1 DUP4 SUB DUP2 PUSH1 0x0 DUP8 DUP1 EXTCODESIZE ISZERO DUP1 ISZERO PUSH2 0x22CE JUMPI PUSH1 0x0 DUP1 REVERT JUMPDEST POP GAS CALL ISZERO DUP1 ISZERO PUSH2 0x22E2 JUMPI RETURNDATASIZE PUSH1 0x0 DUP1 RETURNDATACOPY RETURNDATASIZE PUSH1 0x0 REVERT JUMPDEST POP POP POP POP POP POP POP POP JUMP JUMPDEST DUP1 PUSH1 0x5 PUSH1 0x0 SWAP1 SLOAD SWAP1 PUSH2 0x100 EXP SWAP1 DIV PUSH20 0xFFFFFFFFFFFFFFFFFFFFFFFFFFFFFFFFFFFFFFFF AND PUSH20 0xFFFFFFFFFFFFFFFFFFFFFFFFFFFFFFFFFFFFFFFF AND PUSH4 0x70A08231 CALLER PUSH1 0x40 MLOAD DUP3 PUSH4 0xFFFFFFFF AND PUSH1 0xE0 SHL DUP2 MSTORE PUSH1 0x4 ADD PUSH2 0x2348 SWAP2 SWAP1 PUSH2 0x30C7 JUMP JUMPDEST PUSH1 0x20 PUSH1 0x40 MLOAD DUP1 DUP4 SUB DUP2 DUP7 GAS STATICCALL ISZERO DUP1 ISZERO PUSH2 0x2365 JUMPI RETURNDATASIZE PUSH1 0x0 DUP1 RETURNDATACOPY RETURNDATASIZE PUSH1 0x0 REVERT JUMPDEST POP POP POP POP PUSH1 0x40 MLOAD RETURNDATASIZE PUSH1 0x1F NOT PUSH1 0x1F DUP3 ADD AND DUP3 ADD DUP1 PUSH1 0x40 MSTORE POP DUP2 ADD SWAP1 PUSH2 0x2389 SWAP2 SWAP1 PUSH2 0x36CE JUMP JUMPDEST LT ISZERO PUSH2 0x23CA JUMPI PUSH1 0x40 MLOAD PUSH32 0x8C379A000000000000000000000000000000000000000000000000000000000 DUP2 MSTORE PUSH1 0x4 ADD PUSH2 0x23C1 SWAP1 PUSH2 0x3BCF JUMP JUMPDEST PUSH1 0x40 MLOAD DUP1 SWAP2 SUB SWAP1 REVERT JUMPDEST PUSH1 0x0 PUSH2 0x23D5 DUP3 PUSH2 0x1B4D JUMP JUMPDEST SWAP1 POP DUP1 PUSH1 0x4 PUSH1 0x1 SWAP1 SLOAD SWAP1 PUSH2 0x100 EXP SWAP1 DIV PUSH20 0xFFFFFFFFFFFFFFFFFFFFFFFFFFFFFFFFFFFFFFFF AND PUSH20 0xFFFFFFFFFFFFFFFFFFFFFFFFFFFFFFFFFFFFFFFF AND PUSH4 0x70A08231 ADDRESS PUSH1 0x40 MLOAD DUP3 PUSH4 0xFFFFFFFF AND PUSH1 0xE0 SHL DUP2 MSTORE PUSH1 0x4 ADD PUSH2 0x2433 SWAP2 SWAP1 PUSH2 0x30C7 JUMP JUMPDEST PUSH1 0x20 PUSH1 0x40 MLOAD DUP1 DUP4 SUB DUP2 DUP7 GAS STATICCALL ISZERO DUP1 ISZERO PUSH2 0x2450 JUMPI RETURNDATASIZE PUSH1 0x0 DUP1 RETURNDATACOPY RETURNDATASIZE PUSH1 0x0 REVERT JUMPDEST POP POP POP POP PUSH1 0x40 MLOAD RETURNDATASIZE PUSH1 0x1F NOT PUSH1 0x1F DUP3 ADD AND DUP3 ADD DUP1 PUSH1 0x40 MSTORE POP DUP2 ADD SWAP1 PUSH2 0x2474 SWAP2 SWAP1 PUSH2 0x36CE JUMP JUMPDEST LT ISZERO PUSH2 0x24B5 JUMPI PUSH1 0x40 MLOAD PUSH32 0x8C379A000000000000000000000000000000000000000000000000000000000 DUP2 MSTORE PUSH1 0x4 ADD PUSH2 0x24AC SWAP1 PUSH2 0x3C61 JUMP JUMPDEST PUSH1 0x40 MLOAD DUP1 SWAP2 SUB SWAP1 REVERT JUMPDEST PUSH2 0x24E3 PUSH1 0x5 PUSH1 0x0 SWAP1 SLOAD SWAP1 PUSH2 0x100 EXP SWAP1 DIV PUSH20 0xFFFFFFFFFFFFFFFFFFFFFFFFFFFFFFFFFFFFFFFF AND CALLER ADDRESS DUP6 PUSH2 0x2C97 JUMP JUMPDEST PUSH2 0x2510 PUSH1 0x4 PUSH1 0x1 SWAP1 SLOAD SWAP1 PUSH2 0x100 EXP SWAP1 DIV PUSH20 0xFFFFFFFFFFFFFFFFFFFFFFFFFFFFFFFFFFFFFFFF AND CALLER DUP4 PUSH2 0x276C JUMP JUMPDEST PUSH1 0x9 PUSH1 0x40 MLOAD DUP1 PUSH1 0x60 ADD PUSH1 0x40 MSTORE DUP1 CALLER PUSH20 0xFFFFFFFFFFFFFFFFFFFFFFFFFFFFFFFFFFFFFFFF AND DUP2 MSTORE PUSH1 0x20 ADD DUP5 DUP2 MSTORE PUSH1 0x20 ADD DUP4 DUP2 MSTORE POP SWAP1 DUP1 PUSH1 0x1 DUP2 SLOAD ADD DUP1 DUP3 SSTORE DUP1 SWAP2 POP POP PUSH1 0x1 SWAP1 SUB SWAP1 PUSH1 0x0 MSTORE PUSH1 0x20 PUSH1 0x0 KECCAK256 SWAP1 PUSH1 0x3 MUL ADD PUSH1 0x0 SWAP1 SWAP2 SWAP1 SWAP2 SWAP1 SWAP2 POP PUSH1 0x0 DUP3 ADD MLOAD DUP2 PUSH1 0x0 ADD PUSH1 0x0 PUSH2 0x100 EXP DUP2 SLOAD DUP2 PUSH20 0xFFFFFFFFFFFFFFFFFFFFFFFFFFFFFFFFFFFFFFFF MUL NOT AND SWAP1 DUP4 PUSH20 0xFFFFFFFFFFFFFFFFFFFFFFFFFFFFFFFFFFFFFFFF AND MUL OR SWAP1 SSTORE POP PUSH1 0x20 DUP3 ADD MLOAD DUP2 PUSH1 0x1 ADD SSTORE PUSH1 0x40 DUP3 ADD MLOAD DUP2 PUSH1 0x2 ADD SSTORE POP POP PUSH1 0x0 PUSH32 0x0 SWAP1 POP DUP1 PUSH20 0xFFFFFFFFFFFFFFFFFFFFFFFFFFFFFFFFFFFFFFFF AND PUSH4 0xF52701B7 ADDRESS CALLER DUP7 DUP7 PUSH1 0x40 MLOAD DUP6 PUSH4 0xFFFFFFFF AND PUSH1 0xE0 SHL DUP2 MSTORE PUSH1 0x4 ADD PUSH2 0x262D SWAP5 SWAP4 SWAP3 SWAP2 SWAP1 PUSH2 0x36FB JUMP JUMPDEST PUSH1 0x0 PUSH1 0x40 MLOAD DUP1 DUP4 SUB DUP2 PUSH1 0x0 DUP8 DUP1 EXTCODESIZE ISZERO DUP1 ISZERO PUSH2 0x2647 JUMPI PUSH1 0x0 DUP1 REVERT JUMPDEST POP GAS CALL ISZERO DUP1 ISZERO PUSH2 0x265B JUMPI RETURNDATASIZE PUSH1 0x0 DUP1 RETURNDATACOPY RETURNDATASIZE PUSH1 0x0 REVERT JUMPDEST POP POP POP POP POP POP POP JUMP JUMPDEST PUSH1 0x0 CALLER SWAP1 POP SWAP1 JUMP JUMPDEST PUSH1 0x0 DUP3 PUSH20 0xFFFFFFFFFFFFFFFFFFFFFFFFFFFFFFFFFFFFFFFF AND DUP3 PUSH1 0x0 PUSH8 0xFFFFFFFFFFFFFFFF DUP2 GT ISZERO PUSH2 0x26A1 JUMPI PUSH2 0x26A0 PUSH2 0x3A25 JUMP JUMPDEST JUMPDEST PUSH1 0x40 MLOAD SWAP1 DUP1 DUP3 MSTORE DUP1 PUSH1 0x1F ADD PUSH1 0x1F NOT AND PUSH1 0x20 ADD DUP3 ADD PUSH1 0x40 MSTORE DUP1 ISZERO PUSH2 0x26D3 JUMPI DUP2 PUSH1 0x20 ADD PUSH1 0x1 DUP3 MUL DUP1 CALLDATASIZE DUP4 CALLDATACOPY DUP1 DUP3 ADD SWAP2 POP POP SWAP1 POP JUMPDEST POP PUSH1 0x40 MLOAD PUSH2 0x26E1 SWAP2 SWAP1 PUSH2 0x3CFB JUMP JUMPDEST PUSH1 0x0 PUSH1 0x40 MLOAD DUP1 DUP4 SUB DUP2 DUP6 DUP8 GAS CALL SWAP3 POP POP POP RETURNDATASIZE DUP1 PUSH1 0x0 DUP2 EQ PUSH2 0x271E JUMPI PUSH1 0x40 MLOAD SWAP2 POP PUSH1 0x1F NOT PUSH1 0x3F RETURNDATASIZE ADD AND DUP3 ADD PUSH1 0x40 MSTORE RETURNDATASIZE DUP3 MSTORE RETURNDATASIZE PUSH1 0x0 PUSH1 0x20 DUP5 ADD RETURNDATACOPY PUSH2 0x2723 JUMP JUMPDEST PUSH1 0x60 SWAP2 POP JUMPDEST POP POP SWAP1 POP DUP1 PUSH2 0x2767 JUMPI PUSH1 0x40 MLOAD PUSH32 0x8C379A000000000000000000000000000000000000000000000000000000000 DUP2 MSTORE PUSH1 0x4 ADD PUSH2 0x275E SWAP1 PUSH2 0x3D84 JUMP JUMPDEST PUSH1 0x40 MLOAD DUP1 SWAP2 SUB SWAP1 REVERT JUMPDEST POP POP POP JUMP JUMPDEST PUSH1 0x0 DUP1 DUP5 PUSH20 0xFFFFFFFFFFFFFFFFFFFFFFFFFFFFFFFFFFFFFFFF AND PUSH4 0xA9059CBB DUP6 DUP6 PUSH1 0x40 MLOAD PUSH1 0x24 ADD PUSH2 0x279E SWAP3 SWAP2 SWAP1 PUSH2 0x3DA4 JUMP JUMPDEST PUSH1 0x40 MLOAD PUSH1 0x20 DUP2 DUP4 SUB SUB DUP2 MSTORE SWAP1 PUSH1 0x40 MSTORE SWAP1 PUSH1 0xE0 SHL PUSH1 0x20 DUP3 ADD DUP1 MLOAD PUSH28 0xFFFFFFFFFFFFFFFFFFFFFFFFFFFFFFFFFFFFFFFFFFFFFFFFFFFFFFFF DUP4 DUP2 DUP4 AND OR DUP4 MSTORE POP POP POP POP PUSH1 0x40 MLOAD PUSH2 0x27EC SWAP2 SWAP1 PUSH2 0x3CFB JUMP JUMPDEST PUSH1 0x0 PUSH1 0x40 MLOAD DUP1 DUP4 SUB DUP2 PUSH1 0x0 DUP7 GAS CALL SWAP2 POP POP RETURNDATASIZE DUP1 PUSH1 0x0 DUP2 EQ PUSH2 0x2829 JUMPI PUSH1 0x40 MLOAD SWAP2 POP PUSH1 0x1F NOT PUSH1 0x3F RETURNDATASIZE ADD AND DUP3 ADD PUSH1 0x40 MSTORE RETURNDATASIZE DUP3 MSTORE RETURNDATASIZE PUSH1 0x0 PUSH1 0x20 DUP5 ADD RETURNDATACOPY PUSH2 0x282E JUMP JUMPDEST PUSH1 0x60 SWAP2 POP JUMPDEST POP SWAP2 POP SWAP2 POP DUP2 DUP1 ISZERO PUSH2 0x285C JUMPI POP PUSH1 0x0 DUP2 MLOAD EQ DUP1 PUSH2 0x285B JUMPI POP DUP1 DUP1 PUSH1 0x20 ADD SWAP1 MLOAD DUP2 ADD SWAP1 PUSH2 0x285A SWAP2 SWAP1 PUSH2 0x33FE JUMP JUMPDEST JUMPDEST JUMPDEST PUSH2 0x289B JUMPI PUSH1 0x40 MLOAD PUSH32 0x8C379A000000000000000000000000000000000000000000000000000000000 DUP2 MSTORE PUSH1 0x4 ADD PUSH2 0x2892 SWAP1 PUSH2 0x3E19 JUMP JUMPDEST PUSH1 0x40 MLOAD DUP1 SWAP2 SUB SWAP1 REVERT JUMPDEST POP POP POP POP POP JUMP JUMPDEST CALLVALUE DUP2 EQ PUSH2 0x28E4 JUMPI PUSH1 0x40 MLOAD PUSH32 0x8C379A000000000000000000000000000000000000000000000000000000000 DUP2 MSTORE PUSH1 0x4 ADD PUSH2 0x28DB SWAP1 PUSH2 0x352F JUMP JUMPDEST PUSH1 0x40 MLOAD DUP1 SWAP2 SUB SWAP1 REVERT JUMPDEST PUSH1 0x0 PUSH2 0x28EF DUP3 PUSH2 0x1B4D JUMP JUMPDEST SWAP1 POP DUP1 PUSH1 0x4 PUSH1 0x1 SWAP1 SLOAD SWAP1 PUSH2 0x100 EXP SWAP1 DIV PUSH20 0xFFFFFFFFFFFFFFFFFFFFFFFFFFFFFFFFFFFFFFFF AND PUSH20 0xFFFFFFFFFFFFFFFFFFFFFFFFFFFFFFFFFFFFFFFF AND PUSH4 0x70A08231 ADDRESS PUSH1 0x40 MLOAD DUP3 PUSH4 0xFFFFFFFF AND PUSH1 0xE0 SHL DUP2 MSTORE PUSH1 0x4 ADD PUSH2 0x294D SWAP2 SWAP1 PUSH2 0x30C7 JUMP JUMPDEST PUSH1 0x20 PUSH1 0x40 MLOAD DUP1 DUP4 SUB DUP2 DUP7 GAS STATICCALL ISZERO DUP1 ISZERO PUSH2 0x296A JUMPI RETURNDATASIZE PUSH1 0x0 DUP1 RETURNDATACOPY RETURNDATASIZE PUSH1 0x0 REVERT JUMPDEST POP POP POP POP PUSH1 0x40 MLOAD RETURNDATASIZE PUSH1 0x1F NOT PUSH1 0x1F DUP3 ADD AND DUP3 ADD DUP1 PUSH1 0x40 MSTORE POP DUP2 ADD SWAP1 PUSH2 0x298E SWAP2 SWAP1 PUSH2 0x36CE JUMP JUMPDEST LT ISZERO PUSH2 0x29CF JUMPI PUSH1 0x40 MLOAD PUSH32 0x8C379A000000000000000000000000000000000000000000000000000000000 DUP2 MSTORE PUSH1 0x4 ADD PUSH2 0x29C6 SWAP1 PUSH2 0x3C61 JUMP JUMPDEST PUSH1 0x40 MLOAD DUP1 SWAP2 SUB SWAP1 REVERT JUMPDEST PUSH1 0x2 PUSH1 0x1 SWAP1 SLOAD SWAP1 PUSH2 0x100 EXP SWAP1 DIV PUSH20 0xFFFFFFFFFFFFFFFFFFFFFFFFFFFFFFFFFFFFFFFF AND PUSH20 0xFFFFFFFFFFFFFFFFFFFFFFFFFFFFFFFFFFFFFFFF AND PUSH4 0xD0E30DB0 DUP4 PUSH1 0x40 MLOAD DUP3 PUSH4 0xFFFFFFFF AND PUSH1 0xE0 SHL DUP2 MSTORE PUSH1 0x4 ADD PUSH1 0x0 PUSH1 0x40 MLOAD DUP1 DUP4 SUB DUP2 DUP6 DUP9 DUP1 EXTCODESIZE ISZERO DUP1 ISZERO PUSH2 0x2A39 JUMPI PUSH1 0x0 DUP1 REVERT JUMPDEST POP GAS CALL ISZERO DUP1 ISZERO PUSH2 0x2A4D JUMPI RETURNDATASIZE PUSH1 0x0 DUP1 RETURNDATACOPY RETURNDATASIZE PUSH1 0x0 REVERT JUMPDEST POP POP POP POP POP PUSH2 0x2A7F PUSH1 0x4 PUSH1 0x1 SWAP1 SLOAD SWAP1 PUSH2 0x100 EXP SWAP1 DIV PUSH20 0xFFFFFFFFFFFFFFFFFFFFFFFFFFFFFFFFFFFFFFFF AND CALLER DUP4 PUSH2 0x276C JUMP JUMPDEST PUSH1 0x9 PUSH1 0x40 MLOAD DUP1 PUSH1 0x60 ADD PUSH1 0x40 MSTORE DUP1 CALLER PUSH20 0xFFFFFFFFFFFFFFFFFFFFFFFFFFFFFFFFFFFFFFFF AND DUP2 MSTORE PUSH1 0x20 ADD DUP5 DUP2 MSTORE PUSH1 0x20 ADD DUP4 DUP2 MSTORE POP SWAP1 DUP1 PUSH1 0x1 DUP2 SLOAD ADD DUP1 DUP3 SSTORE DUP1 SWAP2 POP POP PUSH1 0x1 SWAP1 SUB SWAP1 PUSH1 0x0 MSTORE PUSH1 0x20 PUSH1 0x0 KECCAK256 SWAP1 PUSH1 0x3 MUL ADD PUSH1 0x0 SWAP1 SWAP2 SWAP1 SWAP2 SWAP1 SWAP2 POP PUSH1 0x0 DUP3 ADD MLOAD DUP2 PUSH1 0x0 ADD PUSH1 0x0 PUSH2 0x100 EXP DUP2 SLOAD DUP2 PUSH20 0xFFFFFFFFFFFFFFFFFFFFFFFFFFFFFFFFFFFFFFFF MUL NOT AND SWAP1 DUP4 PUSH20 0xFFFFFFFFFFFFFFFFFFFFFFFFFFFFFFFFFFFFFFFF AND MUL OR SWAP1 SSTORE POP PUSH1 0x20 DUP3 ADD MLOAD DUP2 PUSH1 0x1 ADD SSTORE PUSH1 0x40 DUP3 ADD MLOAD DUP2 PUSH1 0x2 ADD SSTORE POP POP PUSH1 0x0 PUSH32 0x0 SWAP1 POP DUP1 PUSH20 0xFFFFFFFFFFFFFFFFFFFFFFFFFFFFFFFFFFFFFFFF AND PUSH4 0xF52701B7 ADDRESS CALLER DUP7 DUP7 PUSH1 0x40 MLOAD DUP6 PUSH4 0xFFFFFFFF AND PUSH1 0xE0 SHL DUP2 MSTORE PUSH1 0x4 ADD PUSH2 0x2B9C SWAP5 SWAP4 SWAP3 SWAP2 SWAP1 PUSH2 0x36FB JUMP JUMPDEST PUSH1 0x0 PUSH1 0x40 MLOAD DUP1 DUP4 SUB DUP2 PUSH1 0x0 DUP8 DUP1 EXTCODESIZE ISZERO DUP1 ISZERO PUSH2 0x2BB6 JUMPI PUSH1 0x0 DUP1 REVERT JUMPDEST POP GAS CALL ISZERO DUP1 ISZERO PUSH2 0x2BCA JUMPI RETURNDATASIZE PUSH1 0x0 DUP1 RETURNDATACOPY RETURNDATASIZE PUSH1 0x0 REVERT JUMPDEST POP POP POP POP POP POP POP JUMP JUMPDEST PUSH1 0x0 DUP1 PUSH1 0x0 SWAP1 SLOAD SWAP1 PUSH2 0x100 EXP SWAP1 DIV PUSH20 0xFFFFFFFFFFFFFFFFFFFFFFFFFFFFFFFFFFFFFFFF AND SWAP1 POP DUP2 PUSH1 0x0 DUP1 PUSH2 0x100 EXP DUP2 SLOAD DUP2 PUSH20 0xFFFFFFFFFFFFFFFFFFFFFFFFFFFFFFFFFFFFFFFF MUL NOT AND SWAP1 DUP4 PUSH20 0xFFFFFFFFFFFFFFFFFFFFFFFFFFFFFFFFFFFFFFFF AND MUL OR SWAP1 SSTORE POP DUP2 PUSH20 0xFFFFFFFFFFFFFFFFFFFFFFFFFFFFFFFFFFFFFFFF AND DUP2 PUSH20 0xFFFFFFFFFFFFFFFFFFFFFFFFFFFFFFFFFFFFFFFF AND PUSH32 0x8BE0079C531659141344CD1FD0A4F28419497F9722A3DAAFE3B4186F6B6457E0 PUSH1 0x40 MLOAD PUSH1 0x40 MLOAD DUP1 SWAP2 SUB SWAP1 LOG3 POP POP JUMP JUMPDEST PUSH1 0x0 DUP1 DUP6 PUSH20 0xFFFFFFFFFFFFFFFFFFFFFFFFFFFFFFFFFFFFFFFF AND PUSH4 0x23B872DD DUP7 DUP7 DUP7 PUSH1 0x40 MLOAD PUSH1 0x24 ADD PUSH2 0x2CCB SWAP4 SWAP3 SWAP2 SWAP1 PUSH2 0x3E39 JUMP JUMPDEST PUSH1 0x40 MLOAD PUSH1 0x20 DUP2 DUP4 SUB SUB DUP2 MSTORE SWAP1 PUSH1 0x40 MSTORE SWAP1 PUSH1 0xE0 SHL PUSH1 0x20 DUP3 ADD DUP1 MLOAD PUSH28 0xFFFFFFFFFFFFFFFFFFFFFFFFFFFFFFFFFFFFFFFFFFFFFFFFFFFFFFFF DUP4 DUP2 DUP4 AND OR DUP4 MSTORE POP POP POP POP PUSH1 0x40 MLOAD PUSH2 0x2D19 SWAP2 SWAP1 PUSH2 0x3CFB JUMP JUMPDEST PUSH1 0x0 PUSH1 0x40 MLOAD DUP1 DUP4 SUB DUP2 PUSH1 0x0 DUP7 GAS CALL SWAP2 POP POP RETURNDATASIZE DUP1 PUSH1 0x0 DUP2 EQ PUSH2 0x2D56 JUMPI PUSH1 0x40 MLOAD SWAP2 POP PUSH1 0x1F NOT PUSH1 0x3F RETURNDATASIZE ADD AND DUP3 ADD PUSH1 0x40 MSTORE RETURNDATASIZE DUP3 MSTORE RETURNDATASIZE PUSH1 0x0 PUSH1 0x20 DUP5 ADD RETURNDATACOPY PUSH2 0x2D5B JUMP JUMPDEST PUSH1 0x60 SWAP2 POP JUMPDEST POP SWAP2 POP SWAP2 POP DUP2 DUP1 ISZERO PUSH2 0x2D89 JUMPI POP PUSH1 0x0 DUP2 MLOAD EQ DUP1 PUSH2 0x2D88 JUMPI POP DUP1 DUP1 PUSH1 0x20 ADD SWAP1 MLOAD DUP2 ADD SWAP1 PUSH2 0x2D87 SWAP2 SWAP1 PUSH2 0x33FE JUMP JUMPDEST JUMPDEST JUMPDEST PUSH2 0x2DC8 JUMPI PUSH1 0x40 MLOAD PUSH32 0x8C379A000000000000000000000000000000000000000000000000000000000 DUP2 MSTORE PUSH1 0x4 ADD PUSH2 0x2DBF SWAP1 PUSH2 0x3EE2 JUMP JUMPDEST PUSH1 0x40 MLOAD DUP1 SWAP2 SUB SWAP1 REVERT JUMPDEST POP POP POP POP POP POP JUMP JUMPDEST PUSH1 0x0 DUP1 REVERT JUMPDEST PUSH1 0x0 DUP2 SWAP1 POP SWAP2 SWAP1 POP JUMP JUMPDEST PUSH2 0x2DE8 DUP2 PUSH2 0x2DD5 JUMP JUMPDEST DUP2 EQ PUSH2 0x2DF3 JUMPI PUSH1 0x0 DUP1 REVERT JUMPDEST POP JUMP JUMPDEST PUSH1 0x0 DUP2 CALLDATALOAD SWAP1 POP PUSH2 0x2E05 DUP2 PUSH2 0x2DDF JUMP JUMPDEST SWAP3 SWAP2 POP POP JUMP JUMPDEST PUSH1 0x0 PUSH1 0x20 DUP3 DUP5 SUB SLT ISZERO PUSH2 0x2E21 JUMPI PUSH2 0x2E20 PUSH2 0x2DD0 JUMP JUMPDEST JUMPDEST PUSH1 0x0 PUSH2 0x2E2F DUP5 DUP3 DUP6 ADD PUSH2 0x2DF6 JUMP JUMPDEST SWAP2 POP POP SWAP3 SWAP2 POP POP JUMP JUMPDEST PUSH1 0x0 DUP2 ISZERO ISZERO SWAP1 POP SWAP2 SWAP1 POP JUMP JUMPDEST PUSH2 0x2E4D DUP2 PUSH2 0x2E38 JUMP JUMPDEST DUP3 MSTORE POP POP JUMP JUMPDEST PUSH1 0x0 PUSH1 0x20 DUP3 ADD SWAP1 POP PUSH2 0x2E68 PUSH1 0x0 DUP4 ADD DUP5 PUSH2 0x2E44 JUMP JUMPDEST SWAP3 SWAP2 POP POP JUMP JUMPDEST PUSH2 0x2E77 DUP2 PUSH2 0x2DD5 JUMP JUMPDEST DUP3 MSTORE POP POP JUMP JUMPDEST PUSH1 0x0 PUSH1 0x40 DUP3 ADD SWAP1 POP PUSH2 0x2E92 PUSH1 0x0 DUP4 ADD DUP6 PUSH2 0x2E6E JUMP JUMPDEST PUSH2 0x2E9F PUSH1 0x20 DUP4 ADD DUP5 PUSH2 0x2E6E JUMP JUMPDEST SWAP4 SWAP3 POP POP POP JUMP JUMPDEST PUSH1 0x0 PUSH1 0x20 DUP3 ADD SWAP1 POP PUSH2 0x2EBB PUSH1 0x0 DUP4 ADD DUP5 PUSH2 0x2E6E JUMP JUMPDEST SWAP3 SWAP2 POP POP JUMP JUMPDEST PUSH1 0x3 DUP2 LT PUSH2 0x2ECE JUMPI PUSH1 0x0 DUP1 REVERT JUMPDEST POP JUMP JUMPDEST PUSH1 0x0 DUP2 CALLDATALOAD SWAP1 POP PUSH2 0x2EE0 DUP2 PUSH2 0x2EC1 JUMP JUMPDEST SWAP3 SWAP2 POP POP JUMP JUMPDEST PUSH1 0x0 PUSH20 0xFFFFFFFFFFFFFFFFFFFFFFFFFFFFFFFFFFFFFFFF DUP3 AND SWAP1 POP SWAP2 SWAP1 POP JUMP JUMPDEST PUSH1 0x0 PUSH2 0x2F11 DUP3 PUSH2 0x2EE6 JUMP JUMPDEST SWAP1 POP SWAP2 SWAP1 POP JUMP JUMPDEST PUSH2 0x2F21 DUP2 PUSH2 0x2F06 JUMP JUMPDEST DUP2 EQ PUSH2 0x2F2C JUMPI PUSH1 0x0 DUP1 REVERT JUMPDEST POP JUMP JUMPDEST PUSH1 0x0 DUP2 CALLDATALOAD SWAP1 POP PUSH2 0x2F3E DUP2 PUSH2 0x2F18 JUMP JUMPDEST SWAP3 SWAP2 POP POP JUMP JUMPDEST PUSH2 0x2F4D DUP2 PUSH2 0x2E38 JUMP JUMPDEST DUP2 EQ PUSH2 0x2F58 JUMPI PUSH1 0x0 DUP1 REVERT JUMPDEST POP JUMP JUMPDEST PUSH1 0x0 DUP2 CALLDATALOAD SWAP1 POP PUSH2 0x2F6A DUP2 PUSH2 0x2F44 JUMP JUMPDEST SWAP3 SWAP2 POP POP JUMP JUMPDEST PUSH1 0x0 DUP1 PUSH1 0x0 DUP1 PUSH1 0x0 DUP1 PUSH1 0x0 DUP1 PUSH2 0x100 DUP10 DUP12 SUB SLT ISZERO PUSH2 0x2F91 JUMPI PUSH2 0x2F90 PUSH2 0x2DD0 JUMP JUMPDEST JUMPDEST PUSH1 0x0 PUSH2 0x2F9F DUP12 DUP3 DUP13 ADD PUSH2 0x2ED1 JUMP JUMPDEST SWAP9 POP POP PUSH1 0x20 PUSH2 0x2FB0 DUP12 DUP3 DUP13 ADD PUSH2 0x2F2F JUMP JUMPDEST SWAP8 POP POP PUSH1 0x40 PUSH2 0x2FC1 DUP12 DUP3 DUP13 ADD PUSH2 0x2F2F JUMP JUMPDEST SWAP7 POP POP PUSH1 0x60 PUSH2 0x2FD2 DUP12 DUP3 DUP13 ADD PUSH2 0x2DF6 JUMP JUMPDEST SWAP6 POP POP PUSH1 0x80 PUSH2 0x2FE3 DUP12 DUP3 DUP13 ADD PUSH2 0x2DF6 JUMP JUMPDEST SWAP5 POP POP PUSH1 0xA0 PUSH2 0x2FF4 DUP12 DUP3 DUP13 ADD PUSH2 0x2DF6 JUMP JUMPDEST SWAP4 POP POP PUSH1 0xC0 PUSH2 0x3005 DUP12 DUP3 DUP13 ADD PUSH2 0x2F5B JUMP JUMPDEST SWAP3 POP POP PUSH1 0xE0 PUSH2 0x3016 DUP12 DUP3 DUP13 ADD PUSH2 0x2F2F JUMP JUMPDEST SWAP2 POP POP SWAP3 SWAP6 SWAP9 POP SWAP3 SWAP6 SWAP9 SWAP1 SWAP4 SWAP7 POP JUMP JUMPDEST PUSH32 0x4E487B7100000000000000000000000000000000000000000000000000000000 PUSH1 0x0 MSTORE PUSH1 0x21 PUSH1 0x4 MSTORE PUSH1 0x24 PUSH1 0x0 REVERT JUMPDEST PUSH1 0x3 DUP2 LT PUSH2 0x3066 JUMPI PUSH2 0x3065 PUSH2 0x3026 JUMP JUMPDEST JUMPDEST POP JUMP JUMPDEST PUSH1 0x0 DUP2 SWAP1 POP PUSH2 0x3077 DUP3 PUSH2 0x3055 JUMP JUMPDEST SWAP2 SWAP1 POP JUMP JUMPDEST PUSH1 0x0 PUSH2 0x3087 DUP3 PUSH2 0x3069 JUMP JUMPDEST SWAP1 POP SWAP2 SWAP1 POP JUMP JUMPDEST PUSH2 0x3097 DUP2 PUSH2 0x307C JUMP JUMPDEST DUP3 MSTORE POP POP JUMP JUMPDEST PUSH1 0x0 PUSH1 0x20 DUP3 ADD SWAP1 POP PUSH2 0x30B2 PUSH1 0x0 DUP4 ADD DUP5 PUSH2 0x308E JUMP JUMPDEST SWAP3 SWAP2 POP POP JUMP JUMPDEST PUSH2 0x30C1 DUP2 PUSH2 0x2F06 JUMP JUMPDEST DUP3 MSTORE POP POP JUMP JUMPDEST PUSH1 0x0 PUSH1 0x20 DUP3 ADD SWAP1 POP PUSH2 0x30DC PUSH1 0x0 DUP4 ADD DUP5 PUSH2 0x30B8 JUMP JUMPDEST SWAP3 SWAP2 POP POP JUMP JUMPDEST PUSH1 0x0 PUSH1 0x40 DUP3 ADD SWAP1 POP PUSH2 0x30F7 PUSH1 0x0 DUP4 ADD DUP6 PUSH2 0x30B8 JUMP JUMPDEST PUSH2 0x3104 PUSH1 0x20 DUP4 ADD DUP5 PUSH2 0x30B8 JUMP JUMPDEST SWAP4 SWAP3 POP POP POP JUMP JUMPDEST PUSH1 0x0 DUP2 MLOAD SWAP1 POP SWAP2 SWAP1 POP JUMP JUMPDEST PUSH1 0x0 DUP3 DUP3 MSTORE PUSH1 0x20 DUP3 ADD SWAP1 POP SWAP3 SWAP2 POP POP JUMP JUMPDEST PUSH1 0x0 DUP2 SWAP1 POP PUSH1 0x20 DUP3 ADD SWAP1 POP SWAP2 SWAP1 POP JUMP JUMPDEST PUSH2 0x3140 DUP2 PUSH2 0x2F06 JUMP JUMPDEST DUP3 MSTORE POP POP JUMP JUMPDEST PUSH1 0x0 PUSH2 0x3152 DUP4 DUP4 PUSH2 0x3137 JUMP JUMPDEST PUSH1 0x20 DUP4 ADD SWAP1 POP SWAP3 SWAP2 POP POP JUMP JUMPDEST PUSH1 0x0 PUSH1 0x20 DUP3 ADD SWAP1 POP SWAP2 SWAP1 POP JUMP JUMPDEST PUSH1 0x0 PUSH2 0x3176 DUP3 PUSH2 0x310B JUMP JUMPDEST PUSH2 0x3180 DUP2 DUP6 PUSH2 0x3116 JUMP JUMPDEST SWAP4 POP PUSH2 0x318B DUP4 PUSH2 0x3127 JUMP JUMPDEST DUP1 PUSH1 0x0 JUMPDEST DUP4 DUP2 LT ISZERO PUSH2 0x31BC JUMPI DUP2 MLOAD PUSH2 0x31A3 DUP9 DUP3 PUSH2 0x3146 JUMP JUMPDEST SWAP8 POP PUSH2 0x31AE DUP4 PUSH2 0x315E JUMP JUMPDEST SWAP3 POP POP PUSH1 0x1 DUP2 ADD SWAP1 POP PUSH2 0x318F JUMP JUMPDEST POP DUP6 SWAP4 POP POP POP POP SWAP3 SWAP2 POP POP JUMP JUMPDEST PUSH1 0x0 DUP2 MLOAD SWAP1 POP SWAP2 SWAP1 POP JUMP JUMPDEST PUSH1 0x0 DUP3 DUP3 MSTORE PUSH1 0x20 DUP3 ADD SWAP1 POP SWAP3 SWAP2 POP POP JUMP JUMPDEST PUSH1 0x0 DUP2 SWAP1 POP PUSH1 0x20 DUP3 ADD SWAP1 POP SWAP2 SWAP1 POP JUMP JUMPDEST PUSH2 0x31FE DUP2 PUSH2 0x2DD5 JUMP JUMPDEST DUP3 MSTORE POP POP JUMP JUMPDEST PUSH1 0x0 PUSH2 0x3210 DUP4 DUP4 PUSH2 0x31F5 JUMP JUMPDEST PUSH1 0x20 DUP4 ADD SWAP1 POP SWAP3 SWAP2 POP POP JUMP JUMPDEST PUSH1 0x0 PUSH1 0x20 DUP3 ADD SWAP1 POP SWAP2 SWAP1 POP JUMP JUMPDEST PUSH1 0x0 PUSH2 0x3234 DUP3 PUSH2 0x31C9 JUMP JUMPDEST PUSH2 0x323E DUP2 DUP6 PUSH2 0x31D4 JUMP JUMPDEST SWAP4 POP PUSH2 0x3249 DUP4 PUSH2 0x31E5 JUMP JUMPDEST DUP1 PUSH1 0x0 JUMPDEST DUP4 DUP2 LT ISZERO PUSH2 0x327A JUMPI DUP2 MLOAD PUSH2 0x3261 DUP9 DUP3 PUSH2 0x3204 JUMP JUMPDEST SWAP8 POP PUSH2 0x326C DUP4 PUSH2 0x321C JUMP JUMPDEST SWAP3 POP POP PUSH1 0x1 DUP2 ADD SWAP1 POP PUSH2 0x324D JUMP JUMPDEST POP DUP6 SWAP4 POP POP POP POP SWAP3 SWAP2 POP POP JUMP JUMPDEST PUSH1 0x0 PUSH1 0x60 DUP3 ADD SWAP1 POP DUP2 DUP2 SUB PUSH1 0x0 DUP4 ADD MSTORE PUSH2 0x32A1 DUP2 DUP7 PUSH2 0x316B JUMP JUMPDEST SWAP1 POP DUP2 DUP2 SUB PUSH1 0x20 DUP4 ADD MSTORE PUSH2 0x32B5 DUP2 DUP6 PUSH2 0x3229 JUMP JUMPDEST SWAP1 POP DUP2 DUP2 SUB PUSH1 0x40 DUP4 ADD MSTORE PUSH2 0x32C9 DUP2 DUP5 PUSH2 0x3229 JUMP JUMPDEST SWAP1 POP SWAP5 SWAP4 POP POP POP POP JUMP JUMPDEST PUSH1 0x0 PUSH1 0x20 DUP3 DUP5 SUB SLT ISZERO PUSH2 0x32E9 JUMPI PUSH2 0x32E8 PUSH2 0x2DD0 JUMP JUMPDEST JUMPDEST PUSH1 0x0 PUSH2 0x32F7 DUP5 DUP3 DUP6 ADD PUSH2 0x2F2F JUMP JUMPDEST SWAP2 POP POP SWAP3 SWAP2 POP POP JUMP JUMPDEST PUSH1 0x0 DUP3 DUP3 MSTORE PUSH1 0x20 DUP3 ADD SWAP1 POP SWAP3 SWAP2 POP POP JUMP JUMPDEST PUSH32 0x537943726F774261727465723A20494E41435449564500000000000000000000 PUSH1 0x0 DUP3 ADD MSTORE POP JUMP JUMPDEST PUSH1 0x0 PUSH2 0x3347 PUSH1 0x16 DUP4 PUSH2 0x3300 JUMP JUMPDEST SWAP2 POP PUSH2 0x3352 DUP3 PUSH2 0x3311 JUMP JUMPDEST PUSH1 0x20 DUP3 ADD SWAP1 POP SWAP2 SWAP1 POP JUMP JUMPDEST PUSH1 0x0 PUSH1 0x20 DUP3 ADD SWAP1 POP DUP2 DUP2 SUB PUSH1 0x0 DUP4 ADD MSTORE PUSH2 0x3376 DUP2 PUSH2 0x333A JUMP JUMPDEST SWAP1 POP SWAP2 SWAP1 POP JUMP JUMPDEST PUSH32 0x537943726F774261727465723A204E4F545F494E495449414C495A4544000000 PUSH1 0x0 DUP3 ADD MSTORE POP JUMP JUMPDEST PUSH1 0x0 PUSH2 0x33B3 PUSH1 0x1D DUP4 PUSH2 0x3300 JUMP JUMPDEST SWAP2 POP PUSH2 0x33BE DUP3 PUSH2 0x337D JUMP JUMPDEST PUSH1 0x20 DUP3 ADD SWAP1 POP SWAP2 SWAP1 POP JUMP JUMPDEST PUSH1 0x0 PUSH1 0x20 DUP3 ADD SWAP1 POP DUP2 DUP2 SUB PUSH1 0x0 DUP4 ADD MSTORE PUSH2 0x33E2 DUP2 PUSH2 0x33A6 JUMP JUMPDEST SWAP1 POP SWAP2 SWAP1 POP JUMP JUMPDEST PUSH1 0x0 DUP2 MLOAD SWAP1 POP PUSH2 0x33F8 DUP2 PUSH2 0x2F44 JUMP JUMPDEST SWAP3 SWAP2 POP POP JUMP JUMPDEST PUSH1 0x0 PUSH1 0x20 DUP3 DUP5 SUB SLT ISZERO PUSH2 0x3414 JUMPI PUSH2 0x3413 PUSH2 0x2DD0 JUMP JUMPDEST JUMPDEST PUSH1 0x0 PUSH2 0x3422 DUP5 DUP3 DUP6 ADD PUSH2 0x33E9 JUMP JUMPDEST SWAP2 POP POP SWAP3 SWAP2 POP POP JUMP JUMPDEST PUSH32 0x537943726F774261727465723A204261736520436F6E74726163742050617573 PUSH1 0x0 DUP3 ADD MSTORE PUSH32 0x6564000000000000000000000000000000000000000000000000000000000000 PUSH1 0x20 DUP3 ADD MSTORE POP JUMP JUMPDEST PUSH1 0x0 PUSH2 0x3487 PUSH1 0x22 DUP4 PUSH2 0x3300 JUMP JUMPDEST SWAP2 POP PUSH2 0x3492 DUP3 PUSH2 0x342B JUMP JUMPDEST PUSH1 0x40 DUP3 ADD SWAP1 POP SWAP2 SWAP1 POP JUMP JUMPDEST PUSH1 0x0 PUSH1 0x20 DUP3 ADD SWAP1 POP DUP2 DUP2 SUB PUSH1 0x0 DUP4 ADD MSTORE PUSH2 0x34B6 DUP2 PUSH2 0x347A JUMP JUMPDEST SWAP1 POP SWAP2 SWAP1 POP JUMP JUMPDEST PUSH32 0x537943726F774261727465723A204D554C54495F54524144455F4E4F545F454E PUSH1 0x0 DUP3 ADD MSTORE PUSH32 0x41424C4544000000000000000000000000000000000000000000000000000000 PUSH1 0x20 DUP3 ADD MSTORE POP JUMP JUMPDEST PUSH1 0x0 PUSH2 0x3519 PUSH1 0x25 DUP4 PUSH2 0x3300 JUMP JUMPDEST SWAP2 POP PUSH2 0x3524 DUP3 PUSH2 0x34BD JUMP JUMPDEST PUSH1 0x40 DUP3 ADD SWAP1 POP SWAP2 SWAP1 POP JUMP JUMPDEST PUSH1 0x0 PUSH1 0x20 DUP3 ADD SWAP1 POP DUP2 DUP2 SUB PUSH1 0x0 DUP4 ADD MSTORE PUSH2 0x3548 DUP2 PUSH2 0x350C JUMP JUMPDEST SWAP1 POP SWAP2 SWAP1 POP JUMP JUMPDEST PUSH32 0x537943726F774261727465723A20494E56414C49445F4241525445525F545950 PUSH1 0x0 DUP3 ADD MSTORE PUSH32 0x4500000000000000000000000000000000000000000000000000000000000000 PUSH1 0x20 DUP3 ADD MSTORE POP JUMP JUMPDEST PUSH1 0x0 PUSH2 0x35AB PUSH1 0x21 DUP4 PUSH2 0x3300 JUMP JUMPDEST SWAP2 POP PUSH2 0x35B6 DUP3 PUSH2 0x354F JUMP JUMPDEST PUSH1 0x40 DUP3 ADD SWAP1 POP SWAP2 SWAP1 POP JUMP JUMPDEST PUSH1 0x0 PUSH1 0x20 DUP3 ADD SWAP1 POP DUP2 DUP2 SUB PUSH1 0x0 DUP4 ADD MSTORE PUSH2 0x35DA DUP2 PUSH2 0x359E JUMP JUMPDEST SWAP1 POP SWAP2 SWAP1 POP JUMP JUMPDEST PUSH32 0x537943726F774261727465723A20414354495645000000000000000000000000 PUSH1 0x0 DUP3 ADD MSTORE POP JUMP JUMPDEST PUSH1 0x0 PUSH2 0x3617 PUSH1 0x14 DUP4 PUSH2 0x3300 JUMP JUMPDEST SWAP2 POP PUSH2 0x3622 DUP3 PUSH2 0x35E1 JUMP JUMPDEST PUSH1 0x20 DUP3 ADD SWAP1 POP SWAP2 SWAP1 POP JUMP JUMPDEST PUSH1 0x0 PUSH1 0x20 DUP3 ADD SWAP1 POP DUP2 DUP2 SUB PUSH1 0x0 DUP4 ADD MSTORE PUSH2 0x3646 DUP2 PUSH2 0x360A JUMP JUMPDEST SWAP1 POP SWAP2 SWAP1 POP JUMP JUMPDEST PUSH32 0x4F776E61626C653A2063616C6C6572206973206E6F7420746865206F776E6572 PUSH1 0x0 DUP3 ADD MSTORE POP JUMP JUMPDEST PUSH1 0x0 PUSH2 0x3683 PUSH1 0x20 DUP4 PUSH2 0x3300 JUMP JUMPDEST SWAP2 POP PUSH2 0x368E DUP3 PUSH2 0x364D JUMP JUMPDEST PUSH1 0x20 DUP3 ADD SWAP1 POP SWAP2 SWAP1 POP JUMP JUMPDEST PUSH1 0x0 PUSH1 0x20 DUP3 ADD SWAP1 POP DUP2 DUP2 SUB PUSH1 0x0 DUP4 ADD MSTORE PUSH2 0x36B2 DUP2 PUSH2 0x3676 JUMP JUMPDEST SWAP1 POP SWAP2 SWAP1 POP JUMP JUMPDEST PUSH1 0x0 DUP2 MLOAD SWAP1 POP PUSH2 0x36C8 DUP2 PUSH2 0x2DDF JUMP JUMPDEST SWAP3 SWAP2 POP POP JUMP JUMPDEST PUSH1 0x0 PUSH1 0x20 DUP3 DUP5 SUB SLT ISZERO PUSH2 0x36E4 JUMPI PUSH2 0x36E3 PUSH2 0x2DD0 JUMP JUMPDEST JUMPDEST PUSH1 0x0 PUSH2 0x36F2 DUP5 DUP3 DUP6 ADD PUSH2 0x36B9 JUMP JUMPDEST SWAP2 POP POP SWAP3 SWAP2 POP POP JUMP JUMPDEST PUSH1 0x0 PUSH1 0x80 DUP3 ADD SWAP1 POP PUSH2 0x3710 PUSH1 0x0 DUP4 ADD DUP8 PUSH2 0x30B8 JUMP JUMPDEST PUSH2 0x371D PUSH1 0x20 DUP4 ADD DUP7 PUSH2 0x30B8 JUMP JUMPDEST PUSH2 0x372A PUSH1 0x40 DUP4 ADD DUP6 PUSH2 0x2E6E JUMP JUMPDEST PUSH2 0x3737 PUSH1 0x60 DUP4 ADD DUP5 PUSH2 0x2E6E JUMP JUMPDEST SWAP6 SWAP5 POP POP POP POP POP JUMP JUMPDEST PUSH32 0x537943726F774261727465723A20464F5242494444454E000000000000000000 PUSH1 0x0 DUP3 ADD MSTORE POP JUMP JUMPDEST PUSH1 0x0 PUSH2 0x3776 PUSH1 0x17 DUP4 PUSH2 0x3300 JUMP JUMPDEST SWAP2 POP PUSH2 0x3781 DUP3 PUSH2 0x3740 JUMP JUMPDEST PUSH1 0x20 DUP3 ADD SWAP1 POP SWAP2 SWAP1 POP JUMP JUMPDEST PUSH1 0x0 PUSH1 0x20 DUP3 ADD SWAP1 POP DUP2 DUP2 SUB PUSH1 0x0 DUP4 ADD MSTORE PUSH2 0x37A5 DUP2 PUSH2 0x3769 JUMP JUMPDEST SWAP1 POP SWAP2 SWAP1 POP JUMP JUMPDEST PUSH32 0x537943726F774261727465723A20414C52454144595F494E495449414C495A45 PUSH1 0x0 DUP3 ADD MSTORE PUSH32 0x4400000000000000000000000000000000000000000000000000000000000000 PUSH1 0x20 DUP3 ADD MSTORE POP JUMP JUMPDEST PUSH1 0x0 PUSH2 0x3808 PUSH1 0x21 DUP4 PUSH2 0x3300 JUMP JUMPDEST SWAP2 POP PUSH2 0x3813 DUP3 PUSH2 0x37AC JUMP JUMPDEST PUSH1 0x40 DUP3 ADD SWAP1 POP SWAP2 SWAP1 POP JUMP JUMPDEST PUSH1 0x0 PUSH1 0x20 DUP3 ADD SWAP1 POP DUP2 DUP2 SUB PUSH1 0x0 DUP4 ADD MSTORE PUSH2 0x3837 DUP2 PUSH2 0x37FB JUMP JUMPDEST SWAP1 POP SWAP2 SWAP1 POP JUMP JUMPDEST PUSH32 0x537943726F774261727465723A20504153545F444541444C494E450000000000 PUSH1 0x0 DUP3 ADD MSTORE POP JUMP JUMPDEST PUSH1 0x0 PUSH2 0x3874 PUSH1 0x1B DUP4 PUSH2 0x3300 JUMP JUMPDEST SWAP2 POP PUSH2 0x387F DUP3 PUSH2 0x383E JUMP JUMPDEST PUSH1 0x20 DUP3 ADD SWAP1 POP SWAP2 SWAP1 POP JUMP JUMPDEST PUSH1 0x0 PUSH1 0x20 DUP3 ADD SWAP1 POP DUP2 DUP2 SUB PUSH1 0x0 DUP4 ADD MSTORE PUSH2 0x38A3 DUP2 PUSH2 0x3867 JUMP JUMPDEST SWAP1 POP SWAP2 SWAP1 POP JUMP JUMPDEST PUSH32 0x537943726F774261727465723A20494E53554646494349454E545F4445504F53 PUSH1 0x0 DUP3 ADD MSTORE PUSH32 0x4954000000000000000000000000000000000000000000000000000000000000 PUSH1 0x20 DUP3 ADD MSTORE POP JUMP JUMPDEST PUSH1 0x0 PUSH2 0x3906 PUSH1 0x22 DUP4 PUSH2 0x3300 JUMP JUMPDEST SWAP2 POP PUSH2 0x3911 DUP3 PUSH2 0x38AA JUMP JUMPDEST PUSH1 0x40 DUP3 ADD SWAP1 POP SWAP2 SWAP1 POP JUMP JUMPDEST PUSH1 0x0 PUSH1 0x20 DUP3 ADD SWAP1 POP DUP2 DUP2 SUB PUSH1 0x0 DUP4 ADD MSTORE PUSH2 0x3935 DUP2 PUSH2 0x38F9 JUMP JUMPDEST SWAP1 POP SWAP2 SWAP1 POP JUMP JUMPDEST PUSH32 0x4E487B7100000000000000000000000000000000000000000000000000000000 PUSH1 0x0 MSTORE PUSH1 0x11 PUSH1 0x4 MSTORE PUSH1 0x24 PUSH1 0x0 REVERT JUMPDEST PUSH1 0x0 PUSH2 0x3976 DUP3 PUSH2 0x2DD5 JUMP JUMPDEST SWAP2 POP PUSH2 0x3981 DUP4 PUSH2 0x2DD5 JUMP JUMPDEST SWAP3 POP DUP2 PUSH32 0xFFFFFFFFFFFFFFFFFFFFFFFFFFFFFFFFFFFFFFFFFFFFFFFFFFFFFFFFFFFFFFFF DIV DUP4 GT DUP3 ISZERO ISZERO AND ISZERO PUSH2 0x39BA JUMPI PUSH2 0x39B9 PUSH2 0x393C JUMP JUMPDEST JUMPDEST DUP3 DUP3 MUL SWAP1 POP SWAP3 SWAP2 POP POP JUMP JUMPDEST PUSH32 0x4E487B7100000000000000000000000000000000000000000000000000000000 PUSH1 0x0 MSTORE PUSH1 0x12 PUSH1 0x4 MSTORE PUSH1 0x24 PUSH1 0x0 REVERT JUMPDEST PUSH1 0x0 PUSH2 0x39FF DUP3 PUSH2 0x2DD5 JUMP JUMPDEST SWAP2 POP PUSH2 0x3A0A DUP4 PUSH2 0x2DD5 JUMP JUMPDEST SWAP3 POP DUP3 PUSH2 0x3A1A JUMPI PUSH2 0x3A19 PUSH2 0x39C5 JUMP JUMPDEST JUMPDEST DUP3 DUP3 DIV SWAP1 POP SWAP3 SWAP2 POP POP JUMP JUMPDEST PUSH32 0x4E487B7100000000000000000000000000000000000000000000000000000000 PUSH1 0x0 MSTORE PUSH1 0x41 PUSH1 0x4 MSTORE PUSH1 0x24 PUSH1 0x0 REVERT JUMPDEST PUSH32 0x4E487B7100000000000000000000000000000000000000000000000000000000 PUSH1 0x0 MSTORE PUSH1 0x32 PUSH1 0x4 MSTORE PUSH1 0x24 PUSH1 0x0 REVERT JUMPDEST PUSH1 0x0 PUSH2 0x3A8E DUP3 PUSH2 0x2DD5 JUMP JUMPDEST SWAP2 POP PUSH32 0xFFFFFFFFFFFFFFFFFFFFFFFFFFFFFFFFFFFFFFFFFFFFFFFFFFFFFFFFFFFFFFFF DUP3 SUB PUSH2 0x3AC0 JUMPI PUSH2 0x3ABF PUSH2 0x393C JUMP JUMPDEST JUMPDEST PUSH1 0x1 DUP3 ADD SWAP1 POP SWAP2 SWAP1 POP JUMP JUMPDEST PUSH32 0x4F776E61626C653A206E6577206F776E657220697320746865207A65726F2061 PUSH1 0x0 DUP3 ADD MSTORE PUSH32 0x6464726573730000000000000000000000000000000000000000000000000000 PUSH1 0x20 DUP3 ADD MSTORE POP JUMP JUMPDEST PUSH1 0x0 PUSH2 0x3B27 PUSH1 0x26 DUP4 PUSH2 0x3300 JUMP JUMPDEST SWAP2 POP PUSH2 0x3B32 DUP3 PUSH2 0x3ACB JUMP JUMPDEST PUSH1 0x40 DUP3 ADD SWAP1 POP SWAP2 SWAP1 POP JUMP JUMPDEST PUSH1 0x0 PUSH1 0x20 DUP3 ADD SWAP1 POP DUP2 DUP2 SUB PUSH1 0x0 DUP4 ADD MSTORE PUSH2 0x3B56 DUP2 PUSH2 0x3B1A JUMP JUMPDEST SWAP1 POP SWAP2 SWAP1 POP JUMP JUMPDEST PUSH32 0x537943726F774261727465723A20494E53554646494349454E545F42414C414E PUSH1 0x0 DUP3 ADD MSTORE PUSH32 0x4345000000000000000000000000000000000000000000000000000000000000 PUSH1 0x20 DUP3 ADD MSTORE POP JUMP JUMPDEST PUSH1 0x0 PUSH2 0x3BB9 PUSH1 0x22 DUP4 PUSH2 0x3300 JUMP JUMPDEST SWAP2 POP PUSH2 0x3BC4 DUP3 PUSH2 0x3B5D JUMP JUMPDEST PUSH1 0x40 DUP3 ADD SWAP1 POP SWAP2 SWAP1 POP JUMP JUMPDEST PUSH1 0x0 PUSH1 0x20 DUP3 ADD SWAP1 POP DUP2 DUP2 SUB PUSH1 0x0 DUP4 ADD MSTORE PUSH2 0x3BE8 DUP2 PUSH2 0x3BAC JUMP JUMPDEST SWAP1 POP SWAP2 SWAP1 POP JUMP JUMPDEST PUSH32 0x537943726F774261727465723A20494E53554646494349454E545F434F4E5452 PUSH1 0x0 DUP3 ADD MSTORE PUSH32 0x4143545F42414C414E4345000000000000000000000000000000000000000000 PUSH1 0x20 DUP3 ADD MSTORE POP JUMP JUMPDEST PUSH1 0x0 PUSH2 0x3C4B PUSH1 0x2B DUP4 PUSH2 0x3300 JUMP JUMPDEST SWAP2 POP PUSH2 0x3C56 DUP3 PUSH2 0x3BEF JUMP JUMPDEST PUSH1 0x40 DUP3 ADD SWAP1 POP SWAP2 SWAP1 POP JUMP JUMPDEST PUSH1 0x0 PUSH1 0x20 DUP3 ADD SWAP1 POP DUP2 DUP2 SUB PUSH1 0x0 DUP4 ADD MSTORE PUSH2 0x3C7A DUP2 PUSH2 0x3C3E JUMP JUMPDEST SWAP1 POP SWAP2 SWAP1 POP JUMP JUMPDEST PUSH1 0x0 DUP2 MLOAD SWAP1 POP SWAP2 SWAP1 POP JUMP JUMPDEST PUSH1 0x0 DUP2 SWAP1 POP SWAP3 SWAP2 POP POP JUMP JUMPDEST PUSH1 0x0 JUMPDEST DUP4 DUP2 LT ISZERO PUSH2 0x3CB5 JUMPI DUP1 DUP3 ADD MLOAD DUP2 DUP5 ADD MSTORE PUSH1 0x20 DUP2 ADD SWAP1 POP PUSH2 0x3C9A JUMP JUMPDEST DUP4 DUP2 GT ISZERO PUSH2 0x3CC4 JUMPI PUSH1 0x0 DUP5 DUP5 ADD MSTORE JUMPDEST POP POP POP POP JUMP JUMPDEST PUSH1 0x0 PUSH2 0x3CD5 DUP3 PUSH2 0x3C81 JUMP JUMPDEST PUSH2 0x3CDF DUP2 DUP6 PUSH2 0x3C8C JUMP JUMPDEST SWAP4 POP PUSH2 0x3CEF DUP2 DUP6 PUSH1 0x20 DUP7 ADD PUSH2 0x3C97 JUMP JUMPDEST DUP1 DUP5 ADD SWAP2 POP POP SWAP3 SWAP2 POP POP JUMP JUMPDEST PUSH1 0x0 PUSH2 0x3D07 DUP3 DUP5 PUSH2 0x3CCA JUMP JUMPDEST SWAP2 POP DUP2 SWAP1 POP SWAP3 SWAP2 POP POP JUMP JUMPDEST PUSH32 0x5472616E7366657248656C7065723A204554485F5452414E534645525F464149 PUSH1 0x0 DUP3 ADD MSTORE PUSH32 0x4C45440000000000000000000000000000000000000000000000000000000000 PUSH1 0x20 DUP3 ADD MSTORE POP JUMP JUMPDEST PUSH1 0x0 PUSH2 0x3D6E PUSH1 0x23 DUP4 PUSH2 0x3300 JUMP JUMPDEST SWAP2 POP PUSH2 0x3D79 DUP3 PUSH2 0x3D12 JUMP JUMPDEST PUSH1 0x40 DUP3 ADD SWAP1 POP SWAP2 SWAP1 POP JUMP JUMPDEST PUSH1 0x0 PUSH1 0x20 DUP3 ADD SWAP1 POP DUP2 DUP2 SUB PUSH1 0x0 DUP4 ADD MSTORE PUSH2 0x3D9D DUP2 PUSH2 0x3D61 JUMP JUMPDEST SWAP1 POP SWAP2 SWAP1 POP JUMP JUMPDEST PUSH1 0x0 PUSH1 0x40 DUP3 ADD SWAP1 POP PUSH2 0x3DB9 PUSH1 0x0 DUP4 ADD DUP6 PUSH2 0x30B8 JUMP JUMPDEST PUSH2 0x3DC6 PUSH1 0x20 DUP4 ADD DUP5 PUSH2 0x2E6E JUMP JUMPDEST SWAP4 SWAP3 POP POP POP JUMP JUMPDEST PUSH32 0x5472616E7366657248656C7065723A205452414E534645525F4641494C454400 PUSH1 0x0 DUP3 ADD MSTORE POP JUMP JUMPDEST PUSH1 0x0 PUSH2 0x3E03 PUSH1 0x1F DUP4 PUSH2 0x3300 JUMP JUMPDEST SWAP2 POP PUSH2 0x3E0E DUP3 PUSH2 0x3DCD JUMP JUMPDEST PUSH1 0x20 DUP3 ADD SWAP1 POP SWAP2 SWAP1 POP JUMP JUMPDEST PUSH1 0x0 PUSH1 0x20 DUP3 ADD SWAP1 POP DUP2 DUP2 SUB PUSH1 0x0 DUP4 ADD MSTORE PUSH2 0x3E32 DUP2 PUSH2 0x3DF6 JUMP JUMPDEST SWAP1 POP SWAP2 SWAP1 POP JUMP JUMPDEST PUSH1 0x0 PUSH1 0x60 DUP3 ADD SWAP1 POP PUSH2 0x3E4E PUSH1 0x0 DUP4 ADD DUP7 PUSH2 0x30B8 JUMP JUMPDEST PUSH2 0x3E5B PUSH1 0x20 DUP4 ADD DUP6 PUSH2 0x30B8 JUMP JUMPDEST PUSH2 0x3E68 PUSH1 0x40 DUP4 ADD DUP5 PUSH2 0x2E6E JUMP JUMPDEST SWAP5 SWAP4 POP POP POP POP JUMP JUMPDEST PUSH32 0x5472616E7366657248656C7065723A205452414E534645525F46524F4D5F4641 PUSH1 0x0 DUP3 ADD MSTORE PUSH32 0x494C454400000000000000000000000000000000000000000000000000000000 PUSH1 0x20 DUP3 ADD MSTORE POP JUMP JUMPDEST PUSH1 0x0 PUSH2 0x3ECC PUSH1 0x24 DUP4 PUSH2 0x3300 JUMP JUMPDEST SWAP2 POP PUSH2 0x3ED7 DUP3 PUSH2 0x3E70 JUMP JUMPDEST PUSH1 0x40 DUP3 ADD SWAP1 POP SWAP2 SWAP1 POP JUMP JUMPDEST PUSH1 0x0 PUSH1 0x20 DUP3 ADD SWAP1 POP DUP2 DUP2 SUB PUSH1 0x0 DUP4 ADD MSTORE PUSH2 0x3EFB DUP2 PUSH2 0x3EBF JUMP JUMPDEST SWAP1 POP SWAP2 SWAP1 POP JUMP INVALID LOG2 PUSH5 0x6970667358 0x22 SLT KECCAK256 0x1E 0xDB DUP14 EQ SDIV LOG4 PUSH24 0xD2790376BD7DD7F532BA9F038632F6AA394C7FBF51E61DED SDIV PUSH5 0x736F6C6343 STOP ADDMOD 0xD STOP CALLER "
				},
				"gasEstimates": {
					"creation": {
						"codeDepositCost": "3236800",
						"executionCost": "infinite",
						"totalCost": "infinite"
					},
					"external": {
						"_initialized()": "2539",
						"barterType()": "2583",
						"factory()": "infinite",
						"getAmounts()": "infinite",
						"getTokens()": "infinite",
						"getTradeOutAmount(uint256)": "infinite",
						"getTrades()": "infinite",
						"initialize(uint8,address,address,uint256,uint256,uint256,bool,address)": "infinite",
						"owner()": "2567",
						"renounceOwnership()": "30485",
						"totalTradeAmount()": "2474",
						"tradeEthForToken()": "infinite",
						"tradeEthForToken(uint256)": "infinite",
						"tradeTokenForEth()": "infinite",
						"tradeTokenForEth(uint256)": "infinite",
						"tradeTokenForToken()": "infinite",
						"tradeTokenForToken(uint256)": "infinite",
						"transferOwnership(address)": "30830",
						"withdraw()": "infinite"
					},
					"internal": {
						"_tradeEthForToken(uint256)": "infinite",
						"_tradeTokenForEth(uint256)": "infinite",
						"_tradeTokenForToken(uint256)": "infinite"
					}
				},
				"methodIdentifiers": {
					"_initialized()": "3072cf60",
					"barterType()": "89523742",
					"factory()": "c45a0155",
					"getAmounts()": "3d370b4e",
					"getTokens()": "aa6ca808",
					"getTradeOutAmount(uint256)": "dab5a8df",
					"getTrades()": "e43372e9",
					"initialize(uint8,address,address,uint256,uint256,uint256,bool,address)": "5f5780e5",
					"owner()": "8da5cb5b",
					"renounceOwnership()": "715018a6",
					"totalTradeAmount()": "40a6f1ab",
					"tradeEthForToken()": "d7bdfc75",
					"tradeEthForToken(uint256)": "4341f920",
					"tradeTokenForEth()": "a09702b1",
					"tradeTokenForEth(uint256)": "0d182605",
					"tradeTokenForToken()": "abd050ea",
					"tradeTokenForToken(uint256)": "2ffc6887",
					"transferOwnership(address)": "f2fde38b",
					"withdraw()": "3ccfd60b"
				}
			},
			"storageLayout": {
				"storage": [
					{
						"astId": 7,
						"contract": "contracts/SyCrowBarter.sol:SyCrowBarter",
						"label": "_owner",
						"offset": 0,
						"slot": "0",
						"type": "t_address"
					},
					{
						"astId": 142,
						"contract": "contracts/SyCrowBarter.sol:SyCrowBarter",
						"label": "totalTradeAmount",
						"offset": 0,
						"slot": "1",
						"type": "t_uint256"
					},
					{
						"astId": 145,
						"contract": "contracts/SyCrowBarter.sol:SyCrowBarter",
						"label": "barterType",
						"offset": 0,
						"slot": "2",
						"type": "t_enum(ISyCrowBarterType)1175"
					},
					{
						"astId": 147,
						"contract": "contracts/SyCrowBarter.sol:SyCrowBarter",
						"label": "WETH",
						"offset": 1,
						"slot": "2",
						"type": "t_address"
					},
					{
						"astId": 149,
						"contract": "contracts/SyCrowBarter.sol:SyCrowBarter",
						"label": "_deadline",
						"offset": 0,
						"slot": "3",
						"type": "t_uint256"
					},
					{
						"astId": 152,
						"contract": "contracts/SyCrowBarter.sol:SyCrowBarter",
						"label": "_initialized",
						"offset": 0,
						"slot": "4",
						"type": "t_bool"
					},
					{
						"astId": 154,
						"contract": "contracts/SyCrowBarter.sol:SyCrowBarter",
						"label": "_depositedTokenAddress",
						"offset": 1,
						"slot": "4",
						"type": "t_address"
					},
					{
						"astId": 156,
						"contract": "contracts/SyCrowBarter.sol:SyCrowBarter",
						"label": "_expectedTokenAddress",
						"offset": 0,
						"slot": "5",
						"type": "t_address"
					},
					{
						"astId": 158,
						"contract": "contracts/SyCrowBarter.sol:SyCrowBarter",
						"label": "_depositedAmount",
						"offset": 0,
						"slot": "6",
						"type": "t_uint256"
					},
					{
						"astId": 160,
						"contract": "contracts/SyCrowBarter.sol:SyCrowBarter",
						"label": "_expectedAmount",
						"offset": 0,
						"slot": "7",
						"type": "t_uint256"
					},
					{
						"astId": 162,
						"contract": "contracts/SyCrowBarter.sol:SyCrowBarter",
						"label": "_allowMultiBarter",
						"offset": 0,
						"slot": "8",
						"type": "t_bool"
					},
					{
						"astId": 166,
						"contract": "contracts/SyCrowBarter.sol:SyCrowBarter",
						"label": "_trades",
						"offset": 0,
						"slot": "9",
						"type": "t_array(t_struct(BaterTrade)173_storage)dyn_storage"
					}
				],
				"types": {
					"t_address": {
						"encoding": "inplace",
						"label": "address",
						"numberOfBytes": "20"
					},
					"t_array(t_struct(BaterTrade)173_storage)dyn_storage": {
						"base": "t_struct(BaterTrade)173_storage",
						"encoding": "dynamic_array",
						"label": "struct SyCrowBarter.BaterTrade[]",
						"numberOfBytes": "32"
					},
					"t_bool": {
						"encoding": "inplace",
						"label": "bool",
						"numberOfBytes": "1"
					},
					"t_enum(ISyCrowBarterType)1175": {
						"encoding": "inplace",
						"label": "enum ISyCrowBarterType",
						"numberOfBytes": "1"
					},
					"t_struct(BaterTrade)173_storage": {
						"encoding": "inplace",
						"label": "struct SyCrowBarter.BaterTrade",
						"members": [
							{
								"astId": 168,
								"contract": "contracts/SyCrowBarter.sol:SyCrowBarter",
								"label": "_trader",
								"offset": 0,
								"slot": "0",
								"type": "t_address"
							},
							{
								"astId": 170,
								"contract": "contracts/SyCrowBarter.sol:SyCrowBarter",
								"label": "_amountIn",
								"offset": 0,
								"slot": "1",
								"type": "t_uint256"
							},
							{
								"astId": 172,
								"contract": "contracts/SyCrowBarter.sol:SyCrowBarter",
								"label": "_amountOut",
								"offset": 0,
								"slot": "2",
								"type": "t_uint256"
							}
						],
						"numberOfBytes": "96"
					},
					"t_uint256": {
						"encoding": "inplace",
						"label": "uint256",
						"numberOfBytes": "32"
					}
				}
			},
			"userdoc": {
				"kind": "user",
				"methods": {},
				"version": 1
			}
		}
	}
}