{
	"contracts/SycrowBarter.sol": {
		"SyCrowBarter": {
			"abi": [
				{
					"inputs": [],
					"stateMutability": "nonpayable",
					"type": "constructor"
				},
				{
					"anonymous": false,
					"inputs": [
						{
							"indexed": true,
							"internalType": "address",
							"name": "previousOwner",
							"type": "address"
						},
						{
							"indexed": true,
							"internalType": "address",
							"name": "newOwner",
							"type": "address"
						}
					],
					"name": "OwnershipTransferred",
					"type": "event"
				},
				{
					"inputs": [],
					"name": "_initialized",
					"outputs": [
						{
							"internalType": "bool",
							"name": "",
							"type": "bool"
						}
					],
					"stateMutability": "view",
					"type": "function"
				},
				{
					"inputs": [],
					"name": "barterType",
					"outputs": [
						{
							"internalType": "enum ISyCrowBarterType",
							"name": "",
							"type": "uint8"
						}
					],
					"stateMutability": "view",
					"type": "function"
				},
				{
					"inputs": [],
					"name": "deadline",
					"outputs": [
						{
							"internalType": "uint256",
							"name": "",
							"type": "uint256"
						}
					],
					"stateMutability": "view",
					"type": "function"
				},
				{
					"inputs": [],
					"name": "factory",
					"outputs": [
						{
							"internalType": "address",
							"name": "",
							"type": "address"
						}
					],
					"stateMutability": "view",
					"type": "function"
				},
				{
					"inputs": [],
					"name": "getAmounts",
					"outputs": [
						{
							"internalType": "uint256",
							"name": "",
							"type": "uint256"
						},
						{
							"internalType": "uint256",
							"name": "",
							"type": "uint256"
						}
					],
					"stateMutability": "view",
					"type": "function"
				},
				{
					"inputs": [],
					"name": "getTokens",
					"outputs": [
						{
							"internalType": "address",
							"name": "",
							"type": "address"
						},
						{
							"internalType": "address",
							"name": "",
							"type": "address"
						}
					],
					"stateMutability": "view",
					"type": "function"
				},
				{
					"inputs": [
						{
							"internalType": "uint256",
							"name": "amount",
							"type": "uint256"
						}
					],
					"name": "getTradeOutAmount",
					"outputs": [
						{
							"internalType": "uint256",
							"name": "",
							"type": "uint256"
						}
					],
					"stateMutability": "view",
					"type": "function"
				},
				{
					"inputs": [],
					"name": "getTrades",
					"outputs": [
						{
							"internalType": "address[]",
							"name": "",
							"type": "address[]"
						},
						{
							"internalType": "uint256[]",
							"name": "",
							"type": "uint256[]"
						},
						{
							"internalType": "uint256[]",
							"name": "",
							"type": "uint256[]"
						}
					],
					"stateMutability": "view",
					"type": "function"
				},
				{
					"inputs": [
						{
							"internalType": "enum ISyCrowBarterType",
							"name": "_barterType",
							"type": "uint8"
						},
						{
							"internalType": "address",
							"name": "inToken",
							"type": "address"
						},
						{
							"internalType": "address",
							"name": "outToken",
							"type": "address"
						},
						{
							"internalType": "uint256",
							"name": "amountDeposited",
							"type": "uint256"
						},
						{
							"internalType": "uint256",
							"name": "amountExpected",
							"type": "uint256"
						},
						{
							"internalType": "uint256",
							"name": "_deadline",
							"type": "uint256"
						},
						{
							"internalType": "bool",
							"name": "allowMultiBarter",
							"type": "bool"
						},
						{
							"internalType": "address",
							"name": "_WETH",
							"type": "address"
						}
					],
					"name": "initialize",
					"outputs": [
						{
							"internalType": "bool",
							"name": "",
							"type": "bool"
						}
					],
					"stateMutability": "nonpayable",
					"type": "function"
				},
				{
					"inputs": [],
					"name": "owner",
					"outputs": [
						{
							"internalType": "address",
							"name": "",
							"type": "address"
						}
					],
					"stateMutability": "view",
					"type": "function"
				},
				{
					"inputs": [],
					"name": "renounceOwnership",
					"outputs": [],
					"stateMutability": "nonpayable",
					"type": "function"
				},
				{
					"inputs": [],
					"name": "totalTradeAmount",
					"outputs": [
						{
							"internalType": "uint256",
							"name": "",
							"type": "uint256"
						}
					],
					"stateMutability": "view",
					"type": "function"
				},
				{
					"inputs": [
						{
							"internalType": "uint256",
							"name": "inAmount",
							"type": "uint256"
						}
					],
					"name": "tradeEthForToken",
					"outputs": [],
					"stateMutability": "payable",
					"type": "function"
				},
				{
					"inputs": [
						{
							"internalType": "uint256",
							"name": "inAmount",
							"type": "uint256"
						}
					],
					"name": "tradeTokenForEth",
					"outputs": [],
					"stateMutability": "nonpayable",
					"type": "function"
				},
				{
					"inputs": [
						{
							"internalType": "uint256",
							"name": "inAmount",
							"type": "uint256"
						}
					],
					"name": "tradeTokenForToken",
					"outputs": [],
					"stateMutability": "nonpayable",
					"type": "function"
				},
				{
					"inputs": [
						{
							"internalType": "address",
							"name": "newOwner",
							"type": "address"
						}
					],
					"name": "transferOwnership",
					"outputs": [],
					"stateMutability": "nonpayable",
					"type": "function"
				},
				{
					"inputs": [],
					"name": "withdraw",
					"outputs": [],
					"stateMutability": "nonpayable",
					"type": "function"
				}
			],
			"devdoc": {
				"kind": "dev",
				"methods": {
					"owner()": {
						"details": "Returns the address of the current owner."
					},
					"renounceOwnership()": {
						"details": "Leaves the contract without owner. It will not be possible to call `onlyOwner` functions anymore. Can only be called by the current owner. NOTE: Renouncing ownership will leave the contract without an owner, thereby removing any functionality that is only available to the owner."
					},
					"transferOwnership(address)": {
						"details": "Transfers ownership of the contract to a new account (`newOwner`). Can only be called by the current owner."
					}
				},
				"version": 1
			},
			"evm": {
				"assembly": "    /* \"contracts/SycrowBarter.sol\":269:9919  contract SyCrowBarter is ISyCrowBarter, Ownable {... */\n  mstore(0x40, 0xa0)\n    /* \"contracts/SycrowBarter.sol\":510:542  bool public _initialized = false */\n  0x03\n  dup1\n  sload\n  not(shl(0xa8, 0xff))\n  and\n  swap1\n  sstore\n    /* \"contracts/SycrowBarter.sol\":1754:1805  constructor() {... */\n  callvalue\n  dup1\n  iszero\n  tag_1\n  jumpi\n  0x00\n  dup1\n  revert\ntag_1:\n  pop\n    /* \"@openzeppelin/contracts/access/Ownable.sol\":921:953  _transferOwnership(_msgSender()) */\n  tag_5\n    /* \"@openzeppelin/contracts/utils/Context.sol\":719:729  msg.sender */\n  caller\n    /* \"@openzeppelin/contracts/access/Ownable.sol\":921:939  _transferOwnership */\n  tag_8\n    /* \"@openzeppelin/contracts/access/Ownable.sol\":921:953  _transferOwnership(_msgSender()) */\n  jump\t// in\ntag_5:\n    /* \"contracts/SycrowBarter.sol\":1788:1798  msg.sender */\n  caller\n    /* \"contracts/SycrowBarter.sol\":1778:1798  factory = msg.sender */\n  0x80\n  mstore\n    /* \"contracts/SycrowBarter.sol\":269:9919  contract SyCrowBarter is ISyCrowBarter, Ownable {... */\n  jump(tag_10)\n    /* \"@openzeppelin/contracts/access/Ownable.sol\":2270:2457  function _transferOwnership(address newOwner) internal virtual {... */\ntag_8:\n    /* \"@openzeppelin/contracts/access/Ownable.sol\":2343:2359  address oldOwner */\n  0x00\n    /* \"@openzeppelin/contracts/access/Ownable.sol\":2362:2368  _owner */\n  dup1\n  sload\n  sub(shl(0xa0, 0x01), 0x01)\n    /* \"@openzeppelin/contracts/access/Ownable.sol\":2378:2395  _owner = newOwner */\n  dup4\n  dup2\n  and\n  not(sub(shl(0xa0, 0x01), 0x01))\n  dup4\n  and\n  dup2\n  or\n  dup5\n  sstore\n    /* \"@openzeppelin/contracts/access/Ownable.sol\":2410:2450  OwnershipTransferred(oldOwner, newOwner) */\n  mload(0x40)\n    /* \"@openzeppelin/contracts/access/Ownable.sol\":2362:2368  _owner */\n  swap2\n  swap1\n  swap3\n  and\n  swap3\n  dup4\n  swap2\n    /* \"@openzeppelin/contracts/access/Ownable.sol\":2410:2450  OwnershipTransferred(oldOwner, newOwner) */\n  0x8be0079c531659141344cd1fd0a4f28419497f9722a3daafe3b4186f6b6457e0\n  swap2\n    /* \"@openzeppelin/contracts/access/Ownable.sol\":2343:2359  address oldOwner */\n  swap1\n    /* \"@openzeppelin/contracts/access/Ownable.sol\":2410:2450  OwnershipTransferred(oldOwner, newOwner) */\n  log3\n    /* \"@openzeppelin/contracts/access/Ownable.sol\":2333:2457  {... */\n  pop\n    /* \"@openzeppelin/contracts/access/Ownable.sol\":2270:2457  function _transferOwnership(address newOwner) internal virtual {... */\n  pop\n  jump\t// out\n    /* \"contracts/SycrowBarter.sol\":269:9919  contract SyCrowBarter is ISyCrowBarter, Ownable {... */\ntag_10:\n  mload(0x80)\n  codecopy(0x00, dataOffset(sub_0), dataSize(sub_0))\n  0x00\n  assignImmutable(\"0x26a975632f70533c9512e57b565b8ce8e2befee6b08dfbc27c4a897a20e2c1d6\")\n  return(0x00, dataSize(sub_0))\nstop\n\nsub_0: assembly {\n        /* \"contracts/SycrowBarter.sol\":269:9919  contract SyCrowBarter is ISyCrowBarter, Ownable {... */\n      mstore(0x40, 0x80)\n      jumpi(tag_1, lt(calldatasize, 0x04))\n      shr(0xe0, calldataload(0x00))\n      dup1\n      0x5f5780e5\n      gt\n      tag_19\n      jumpi\n      dup1\n      0xaa6ca808\n      gt\n      tag_20\n      jumpi\n      dup1\n      0xaa6ca808\n      eq\n      tag_14\n      jumpi\n      dup1\n      0xc45a0155\n      eq\n      tag_15\n      jumpi\n      dup1\n      0xdab5a8df\n      eq\n      tag_16\n      jumpi\n      dup1\n      0xe43372e9\n      eq\n      tag_17\n      jumpi\n      dup1\n      0xf2fde38b\n      eq\n      tag_18\n      jumpi\n      0x00\n      dup1\n      revert\n    tag_20:\n      dup1\n      0x5f5780e5\n      eq\n      tag_10\n      jumpi\n      dup1\n      0x715018a6\n      eq\n      tag_11\n      jumpi\n      dup1\n      0x89523742\n      eq\n      tag_12\n      jumpi\n      dup1\n      0x8da5cb5b\n      eq\n      tag_13\n      jumpi\n      0x00\n      dup1\n      revert\n    tag_19:\n      dup1\n      0x3ccfd60b\n      gt\n      tag_21\n      jumpi\n      dup1\n      0x3ccfd60b\n      eq\n      tag_6\n      jumpi\n      dup1\n      0x3d370b4e\n      eq\n      tag_7\n      jumpi\n      dup1\n      0x40a6f1ab\n      eq\n      tag_8\n      jumpi\n      dup1\n      0x4341f920\n      eq\n      tag_9\n      jumpi\n      0x00\n      dup1\n      revert\n    tag_21:\n      dup1\n      0x0d182605\n      eq\n      tag_2\n      jumpi\n      dup1\n      0x29dcb0cf\n      eq\n      tag_3\n      jumpi\n      dup1\n      0x2ffc6887\n      eq\n      tag_4\n      jumpi\n      dup1\n      0x3072cf60\n      eq\n      tag_5\n      jumpi\n    tag_1:\n      0x00\n      dup1\n      revert\n        /* \"contracts/SycrowBarter.sol\":4333:4714  function tradeTokenForEth(uint256 inAmount)... */\n    tag_2:\n      callvalue\n      dup1\n      iszero\n      tag_22\n      jumpi\n      0x00\n      dup1\n      revert\n    tag_22:\n      pop\n      tag_23\n      tag_24\n      calldatasize\n      0x04\n      tag_25\n      jump\t// in\n    tag_24:\n      tag_26\n      jump\t// in\n    tag_23:\n      stop\n        /* \"contracts/SycrowBarter.sol\":407:430  uint256 public deadline */\n    tag_3:\n      callvalue\n      dup1\n      iszero\n      tag_27\n      jumpi\n      0x00\n      dup1\n      revert\n    tag_27:\n      pop\n      tag_28\n      sload(0x02)\n      dup2\n      jump\n    tag_28:\n      mload(0x40)\n        /* \"#utility.yul\":345:370   */\n      swap1\n      dup2\n      mstore\n        /* \"#utility.yul\":333:335   */\n      0x20\n        /* \"#utility.yul\":318:336   */\n      add\n        /* \"contracts/SycrowBarter.sol\":407:430  uint256 public deadline */\n    tag_30:\n      mload(0x40)\n      dup1\n      swap2\n      sub\n      swap1\n      return\n        /* \"contracts/SycrowBarter.sol\":3941:4327  function tradeTokenForToken(uint256 inAmount)... */\n    tag_4:\n      callvalue\n      dup1\n      iszero\n      tag_32\n      jumpi\n      0x00\n      dup1\n      revert\n    tag_32:\n      pop\n      tag_23\n      tag_34\n      calldatasize\n      0x04\n      tag_25\n      jump\t// in\n    tag_34:\n      tag_35\n      jump\t// in\n        /* \"contracts/SycrowBarter.sol\":510:542  bool public _initialized = false */\n    tag_5:\n      callvalue\n      dup1\n      iszero\n      tag_36\n      jumpi\n      0x00\n      dup1\n      revert\n    tag_36:\n      pop\n      sload(0x03)\n      tag_37\n      swap1\n      shl(0xa8, 0x01)\n      swap1\n      div\n      0xff\n      and\n      dup2\n      jump\n    tag_37:\n      mload(0x40)\n        /* \"#utility.yul\":546:560   */\n      swap1\n      iszero\n        /* \"#utility.yul\":539:561   */\n      iszero\n        /* \"#utility.yul\":521:562   */\n      dup2\n      mstore\n        /* \"#utility.yul\":509:511   */\n      0x20\n        /* \"#utility.yul\":494:512   */\n      add\n        /* \"contracts/SycrowBarter.sol\":510:542  bool public _initialized = false */\n      tag_30\n        /* \"#utility.yul\":381:568   */\n      jump\n        /* \"contracts/SycrowBarter.sol\":8056:9741  function withdraw() external override checkInActive initialized onlyOwner {... */\n    tag_6:\n      callvalue\n      dup1\n      iszero\n      tag_41\n      jumpi\n      0x00\n      dup1\n      revert\n    tag_41:\n      pop\n      tag_23\n      tag_43\n      jump\t// in\n        /* \"contracts/SycrowBarter.sol\":2852:3039  function getAmounts()... */\n    tag_7:\n      callvalue\n      dup1\n      iszero\n      tag_44\n      jumpi\n      0x00\n      dup1\n      revert\n    tag_44:\n      pop\n      tag_45\n      tag_46\n      jump\t// in\n    tag_45:\n      0x40\n      dup1\n      mload\n        /* \"#utility.yul\":747:772   */\n      swap3\n      dup4\n      mstore\n        /* \"#utility.yul\":803:805   */\n      0x20\n        /* \"#utility.yul\":788:806   */\n      dup4\n      add\n        /* \"#utility.yul\":781:815   */\n      swap2\n      swap1\n      swap2\n      mstore\n        /* \"#utility.yul\":720:738   */\n      add\n        /* \"contracts/SycrowBarter.sol\":2852:3039  function getAmounts()... */\n      tag_30\n        /* \"#utility.yul\":573:821   */\n      jump\n        /* \"contracts/SycrowBarter.sol\":370:401  uint256 public totalTradeAmount */\n    tag_8:\n      callvalue\n      dup1\n      iszero\n      tag_49\n      jumpi\n      0x00\n      dup1\n      revert\n    tag_49:\n      pop\n      tag_28\n      sload(0x01)\n      dup2\n      jump\n        /* \"contracts/SycrowBarter.sol\":4720:5117  function tradeEthForToken(uint256 inAmount)... */\n    tag_9:\n      tag_23\n      tag_54\n      calldatasize\n      0x04\n      tag_25\n      jump\t// in\n    tag_54:\n      tag_55\n      jump\t// in\n        /* \"contracts/SycrowBarter.sol\":1811:2846  function initialize(... */\n    tag_10:\n      callvalue\n      dup1\n      iszero\n      tag_56\n      jumpi\n      0x00\n      dup1\n      revert\n    tag_56:\n      pop\n      tag_37\n      tag_58\n      calldatasize\n      0x04\n      tag_59\n      jump\t// in\n    tag_58:\n      tag_60\n      jump\t// in\n        /* \"@openzeppelin/contracts/access/Ownable.sol\":1668:1769  function renounceOwnership() public virtual onlyOwner {... */\n    tag_11:\n      callvalue\n      dup1\n      iszero\n      tag_62\n      jumpi\n      0x00\n      dup1\n      revert\n    tag_62:\n      pop\n      tag_23\n      tag_64\n      jump\t// in\n        /* \"contracts/SycrowBarter.sol\":437:472  ISyCrowBarterType public barterType */\n    tag_12:\n      callvalue\n      dup1\n      iszero\n      tag_65\n      jumpi\n      0x00\n      dup1\n      revert\n    tag_65:\n      pop\n      sload(0x03)\n      tag_66\n      swap1\n      0xff\n      and\n      dup2\n      jump\n    tag_66:\n      mload(0x40)\n      tag_30\n      swap2\n      swap1\n      tag_69\n      jump\t// in\n        /* \"@openzeppelin/contracts/access/Ownable.sol\":1036:1121  function owner() public view virtual returns (address) {... */\n    tag_13:\n      callvalue\n      dup1\n      iszero\n      tag_70\n      jumpi\n      0x00\n      dup1\n      revert\n    tag_70:\n      pop\n        /* \"@openzeppelin/contracts/access/Ownable.sol\":1082:1089  address */\n      0x00\n        /* \"@openzeppelin/contracts/access/Ownable.sol\":1108:1114  _owner */\n      sload\n      sub(shl(0xa0, 0x01), 0x01)\n      and\n        /* \"@openzeppelin/contracts/access/Ownable.sol\":1036:1121  function owner() public view virtual returns (address) {... */\n    tag_71:\n      mload(0x40)\n      sub(shl(0xa0, 0x01), 0x01)\n        /* \"#utility.yul\":2627:2659   */\n      swap1\n      swap2\n      and\n        /* \"#utility.yul\":2609:2660   */\n      dup2\n      mstore\n        /* \"#utility.yul\":2597:2599   */\n      0x20\n        /* \"#utility.yul\":2582:2600   */\n      add\n        /* \"@openzeppelin/contracts/access/Ownable.sol\":1036:1121  function owner() public view virtual returns (address) {... */\n      tag_30\n        /* \"#utility.yul\":2463:2666   */\n      jump\n        /* \"contracts/SycrowBarter.sol\":3045:3243  function getTokens()... */\n    tag_14:\n      callvalue\n      dup1\n      iszero\n      tag_75\n      jumpi\n      0x00\n      dup1\n      revert\n    tag_75:\n      pop\n      tag_76\n      tag_77\n      jump\t// in\n    tag_76:\n      0x40\n      dup1\n      mload\n      sub(shl(0xa0, 0x01), 0x01)\n        /* \"#utility.yul\":2901:2916   */\n      swap4\n      dup5\n      and\n        /* \"#utility.yul\":2883:2917   */\n      dup2\n      mstore\n        /* \"#utility.yul\":2953:2968   */\n      swap3\n      swap1\n      swap2\n      and\n        /* \"#utility.yul\":2948:2950   */\n      0x20\n        /* \"#utility.yul\":2933:2951   */\n      dup4\n      add\n        /* \"#utility.yul\":2926:2969   */\n      mstore\n        /* \"#utility.yul\":2818:2836   */\n      add\n        /* \"contracts/SycrowBarter.sol\":3045:3243  function getTokens()... */\n      tag_30\n        /* \"#utility.yul\":2671:2975   */\n      jump\n        /* \"contracts/SycrowBarter.sol\":323:364  address public immutable override factory */\n    tag_15:\n      callvalue\n      dup1\n      iszero\n      tag_80\n      jumpi\n      0x00\n      dup1\n      revert\n    tag_80:\n      pop\n      tag_71\n      immutable(\"0x26a975632f70533c9512e57b565b8ce8e2befee6b08dfbc27c4a897a20e2c1d6\")\n      dup2\n      jump\n        /* \"contracts/SycrowBarter.sol\":9747:9917  function getTradeOutAmount(uint256 amount)... */\n    tag_16:\n      callvalue\n      dup1\n      iszero\n      tag_84\n      jumpi\n      0x00\n      dup1\n      revert\n    tag_84:\n      pop\n      tag_28\n      tag_86\n      calldatasize\n      0x04\n      tag_25\n      jump\t// in\n    tag_86:\n      tag_87\n      jump\t// in\n        /* \"contracts/SycrowBarter.sol\":3249:3935  function getTrades()... */\n    tag_17:\n      callvalue\n      dup1\n      iszero\n      tag_89\n      jumpi\n      0x00\n      dup1\n      revert\n    tag_89:\n      pop\n      tag_90\n      tag_91\n      jump\t// in\n    tag_90:\n      mload(0x40)\n      tag_30\n      swap4\n      swap3\n      swap2\n      swap1\n      tag_93\n      jump\t// in\n        /* \"@openzeppelin/contracts/access/Ownable.sol\":1918:2116  function transferOwnership(address newOwner) public virtual onlyOwner {... */\n    tag_18:\n      callvalue\n      dup1\n      iszero\n      tag_94\n      jumpi\n      0x00\n      dup1\n      revert\n    tag_94:\n      pop\n      tag_23\n      tag_96\n      calldatasize\n      0x04\n      tag_97\n      jump\t// in\n    tag_96:\n      tag_98\n      jump\t// in\n        /* \"contracts/SycrowBarter.sol\":4333:4714  function tradeTokenForEth(uint256 inAmount)... */\n    tag_26:\n        /* \"contracts/SycrowBarter.sol\":963:978  block.timestamp */\n      timestamp\n        /* \"contracts/SycrowBarter.sol\":951:959  deadline */\n      sload(0x02)\n        /* \"contracts/SycrowBarter.sol\":951:978  deadline >= block.timestamp */\n      lt\n      iszero\n        /* \"contracts/SycrowBarter.sol\":951:1016  deadline >= block.timestamp && totalTradeAmount < _expectedAmount */\n      dup1\n      iszero\n      tag_100\n      jumpi\n      pop\n        /* \"contracts/SycrowBarter.sol\":1001:1016  _expectedAmount */\n      sload(0x07)\n        /* \"contracts/SycrowBarter.sol\":982:998  totalTradeAmount */\n      sload(0x01)\n        /* \"contracts/SycrowBarter.sol\":982:1016  totalTradeAmount < _expectedAmount */\n      lt\n        /* \"contracts/SycrowBarter.sol\":951:1016  deadline >= block.timestamp && totalTradeAmount < _expectedAmount */\n    tag_100:\n        /* \"contracts/SycrowBarter.sol\":930:1064  require(... */\n      tag_101\n      jumpi\n      mload(0x40)\n      shl(0xe5, 0x461bcd)\n      dup2\n      mstore\n      0x04\n      add\n      tag_102\n      swap1\n      tag_103\n      jump\t// in\n    tag_102:\n      mload(0x40)\n      dup1\n      swap2\n      sub\n      swap1\n      revert\n    tag_101:\n        /* \"contracts/SycrowBarter.sol\":1481:1493  _initialized */\n      sload(0x03)\n      shl(0xa8, 0x01)\n      swap1\n      div\n      0xff\n      and\n        /* \"contracts/SycrowBarter.sol\":1473:1527  require(_initialized, \"SyCrowBarter: NOT_INITIALIZED\") */\n      tag_105\n      jumpi\n      mload(0x40)\n      shl(0xe5, 0x461bcd)\n      dup2\n      mstore\n      0x04\n      add\n      tag_102\n      swap1\n      tag_107\n      jump\t// in\n    tag_105:\n        /* \"contracts/SycrowBarter.sol\":1584:1617  ISyCrowBarterFactory isycrFactory */\n      0x00\n        /* \"contracts/SycrowBarter.sol\":1641:1648  factory */\n      immutable(\"0x26a975632f70533c9512e57b565b8ce8e2befee6b08dfbc27c4a897a20e2c1d6\")\n        /* \"contracts/SycrowBarter.sol\":1584:1649  ISyCrowBarterFactory isycrFactory = ISyCrowBarterFactory(factory) */\n      swap1\n      pop\n        /* \"contracts/SycrowBarter.sol\":1668:1680  isycrFactory */\n      dup1\n      sub(shl(0xa0, 0x01), 0x01)\n        /* \"contracts/SycrowBarter.sol\":1668:1689  isycrFactory.isPaused */\n      and\n      0xb187bd26\n        /* \"contracts/SycrowBarter.sol\":1668:1691  isycrFactory.isPaused() */\n      mload(0x40)\n      dup2\n      0xffffffff\n      and\n      0xe0\n      shl\n      dup2\n      mstore\n      0x04\n      add\n      0x20\n      mload(0x40)\n      dup1\n      dup4\n      sub\n      dup2\n      dup7\n      gas\n      staticcall\n      iszero\n      dup1\n      iszero\n      tag_110\n      jumpi\n      returndatasize\n      0x00\n      dup1\n      returndatacopy\n      revert(0x00, returndatasize)\n    tag_110:\n      pop\n      pop\n      pop\n      pop\n      mload(0x40)\n      returndatasize\n      not(0x1f)\n      0x1f\n      dup3\n      add\n      and\n      dup3\n      add\n      dup1\n      0x40\n      mstore\n      pop\n      dup2\n      add\n      swap1\n      tag_111\n      swap2\n      swap1\n      tag_112\n      jump\t// in\n    tag_111:\n        /* \"contracts/SycrowBarter.sol\":1667:1691  !isycrFactory.isPaused() */\n      iszero\n        /* \"contracts/SycrowBarter.sol\":1659:1730  require(!isycrFactory.isPaused(), \"SyCrowBarter: Base Contract Paused\") */\n      tag_113\n      jumpi\n      mload(0x40)\n      shl(0xe5, 0x461bcd)\n      dup2\n      mstore\n      0x04\n      add\n      tag_102\n      swap1\n      tag_115\n      jump\t// in\n    tag_113:\n        /* \"contracts/SycrowBarter.sol\":1177:1187  barterType */\n      sload(0x03)\n        /* \"contracts/SycrowBarter.sol\":4495:4526  ISyCrowBarterType.ETH_FOR_TOKEN */\n      0x00\n      swap1\n        /* \"contracts/SycrowBarter.sol\":1177:1187  barterType */\n      0xff\n      and\n        /* \"contracts/SycrowBarter.sol\":1162:1187  _barterType == barterType */\n      0x02\n      dup2\n      gt\n      iszero\n      tag_118\n      jumpi\n      tag_118\n      tag_119\n      jump\t// in\n    tag_118:\n        /* \"contracts/SycrowBarter.sol\":1162:1173  _barterType */\n      dup2\n        /* \"contracts/SycrowBarter.sol\":1162:1187  _barterType == barterType */\n      0x02\n      dup2\n      gt\n      iszero\n      tag_121\n      jumpi\n      tag_121\n      tag_119\n      jump\t// in\n    tag_121:\n      eq\n        /* \"contracts/SycrowBarter.sol\":1154:1225  require(_barterType == barterType, \"SyCrowBarter: INVALID_BARTER_TYPE\") */\n      tag_122\n      jumpi\n      mload(0x40)\n      shl(0xe5, 0x461bcd)\n      dup2\n      mstore\n      0x04\n      add\n      tag_102\n      swap1\n      tag_124\n      jump\t// in\n    tag_122:\n        /* \"contracts/SycrowBarter.sol\":4547:4564  _allowMultiBarter */\n      and(0xff, sload(0x08))\n        /* \"contracts/SycrowBarter.sol\":4542:4671  if (!_allowMultiBarter){... */\n      tag_127\n      jumpi\n        /* \"contracts/SycrowBarter.sol\":4599:4614  _expectedAmount */\n      sload(0x07)\n        /* \"contracts/SycrowBarter.sol\":4587:4595  inAmount */\n      dup4\n        /* \"contracts/SycrowBarter.sol\":4587:4614  inAmount >= _expectedAmount */\n      lt\n      iszero\n        /* \"contracts/SycrowBarter.sol\":4579:4660  require(inAmount >= _expectedAmount, \"SyCrowBarter: AMOUNT_LOWER_THAN_REQURIRED\") */\n      tag_127\n      jumpi\n      mload(0x40)\n      shl(0xe5, 0x461bcd)\n      dup2\n      mstore\n      0x04\n      add\n      tag_102\n      swap1\n      tag_129\n      jump\t// in\n    tag_127:\n        /* \"contracts/SycrowBarter.sol\":4680:4707  _tradeTokenForEth(inAmount) */\n      tag_130\n        /* \"contracts/SycrowBarter.sol\":4698:4706  inAmount */\n      dup4\n        /* \"contracts/SycrowBarter.sol\":4680:4697  _tradeTokenForEth */\n      tag_131\n        /* \"contracts/SycrowBarter.sol\":4680:4707  _tradeTokenForEth(inAmount) */\n      jump\t// in\n    tag_130:\n        /* \"contracts/SycrowBarter.sol\":1740:1741  _ */\n      pop\n        /* \"contracts/SycrowBarter.sol\":1574:1748  {... */\n      pop\n        /* \"contracts/SycrowBarter.sol\":4333:4714  function tradeTokenForEth(uint256 inAmount)... */\n      pop\n      jump\t// out\n        /* \"contracts/SycrowBarter.sol\":3941:4327  function tradeTokenForToken(uint256 inAmount)... */\n    tag_35:\n        /* \"contracts/SycrowBarter.sol\":963:978  block.timestamp */\n      timestamp\n        /* \"contracts/SycrowBarter.sol\":951:959  deadline */\n      sload(0x02)\n        /* \"contracts/SycrowBarter.sol\":951:978  deadline >= block.timestamp */\n      lt\n      iszero\n        /* \"contracts/SycrowBarter.sol\":951:1016  deadline >= block.timestamp && totalTradeAmount < _expectedAmount */\n      dup1\n      iszero\n      tag_133\n      jumpi\n      pop\n        /* \"contracts/SycrowBarter.sol\":1001:1016  _expectedAmount */\n      sload(0x07)\n        /* \"contracts/SycrowBarter.sol\":982:998  totalTradeAmount */\n      sload(0x01)\n        /* \"contracts/SycrowBarter.sol\":982:1016  totalTradeAmount < _expectedAmount */\n      lt\n        /* \"contracts/SycrowBarter.sol\":951:1016  deadline >= block.timestamp && totalTradeAmount < _expectedAmount */\n    tag_133:\n        /* \"contracts/SycrowBarter.sol\":930:1064  require(... */\n      tag_134\n      jumpi\n      mload(0x40)\n      shl(0xe5, 0x461bcd)\n      dup2\n      mstore\n      0x04\n      add\n      tag_102\n      swap1\n      tag_103\n      jump\t// in\n    tag_134:\n        /* \"contracts/SycrowBarter.sol\":1481:1493  _initialized */\n      sload(0x03)\n      shl(0xa8, 0x01)\n      swap1\n      div\n      0xff\n      and\n        /* \"contracts/SycrowBarter.sol\":1473:1527  require(_initialized, \"SyCrowBarter: NOT_INITIALIZED\") */\n      tag_137\n      jumpi\n      mload(0x40)\n      shl(0xe5, 0x461bcd)\n      dup2\n      mstore\n      0x04\n      add\n      tag_102\n      swap1\n      tag_107\n      jump\t// in\n    tag_137:\n        /* \"contracts/SycrowBarter.sol\":1584:1617  ISyCrowBarterFactory isycrFactory */\n      0x00\n        /* \"contracts/SycrowBarter.sol\":1641:1648  factory */\n      immutable(\"0x26a975632f70533c9512e57b565b8ce8e2befee6b08dfbc27c4a897a20e2c1d6\")\n        /* \"contracts/SycrowBarter.sol\":1584:1649  ISyCrowBarterFactory isycrFactory = ISyCrowBarterFactory(factory) */\n      swap1\n      pop\n        /* \"contracts/SycrowBarter.sol\":1668:1680  isycrFactory */\n      dup1\n      sub(shl(0xa0, 0x01), 0x01)\n        /* \"contracts/SycrowBarter.sol\":1668:1689  isycrFactory.isPaused */\n      and\n      0xb187bd26\n        /* \"contracts/SycrowBarter.sol\":1668:1691  isycrFactory.isPaused() */\n      mload(0x40)\n      dup2\n      0xffffffff\n      and\n      0xe0\n      shl\n      dup2\n      mstore\n      0x04\n      add\n      0x20\n      mload(0x40)\n      dup1\n      dup4\n      sub\n      dup2\n      dup7\n      gas\n      staticcall\n      iszero\n      dup1\n      iszero\n      tag_141\n      jumpi\n      returndatasize\n      0x00\n      dup1\n      returndatacopy\n      revert(0x00, returndatasize)\n    tag_141:\n      pop\n      pop\n      pop\n      pop\n      mload(0x40)\n      returndatasize\n      not(0x1f)\n      0x1f\n      dup3\n      add\n      and\n      dup3\n      add\n      dup1\n      0x40\n      mstore\n      pop\n      dup2\n      add\n      swap1\n      tag_142\n      swap2\n      swap1\n      tag_112\n      jump\t// in\n    tag_142:\n        /* \"contracts/SycrowBarter.sol\":1667:1691  !isycrFactory.isPaused() */\n      iszero\n        /* \"contracts/SycrowBarter.sol\":1659:1730  require(!isycrFactory.isPaused(), \"SyCrowBarter: Base Contract Paused\") */\n      tag_143\n      jumpi\n      mload(0x40)\n      shl(0xe5, 0x461bcd)\n      dup2\n      mstore\n      0x04\n      add\n      tag_102\n      swap1\n      tag_115\n      jump\t// in\n    tag_143:\n        /* \"contracts/SycrowBarter.sol\":1177:1187  barterType */\n      sload(0x03)\n        /* \"contracts/SycrowBarter.sol\":4105:4138  ISyCrowBarterType.TOKEN_FOR_TOKEN */\n      0x02\n      swap1\n        /* \"contracts/SycrowBarter.sol\":1177:1187  barterType */\n      0xff\n      and\n        /* \"contracts/SycrowBarter.sol\":1162:1187  _barterType == barterType */\n      dup2\n      dup2\n      gt\n      iszero\n      tag_147\n      jumpi\n      tag_147\n      tag_119\n      jump\t// in\n    tag_147:\n        /* \"contracts/SycrowBarter.sol\":1162:1173  _barterType */\n      dup2\n        /* \"contracts/SycrowBarter.sol\":1162:1187  _barterType == barterType */\n      0x02\n      dup2\n      gt\n      iszero\n      tag_149\n      jumpi\n      tag_149\n      tag_119\n      jump\t// in\n    tag_149:\n      eq\n        /* \"contracts/SycrowBarter.sol\":1154:1225  require(_barterType == barterType, \"SyCrowBarter: INVALID_BARTER_TYPE\") */\n      tag_150\n      jumpi\n      mload(0x40)\n      shl(0xe5, 0x461bcd)\n      dup2\n      mstore\n      0x04\n      add\n      tag_102\n      swap1\n      tag_124\n      jump\t// in\n    tag_150:\n        /* \"contracts/SycrowBarter.sol\":4158:4175  _allowMultiBarter */\n      and(0xff, sload(0x08))\n        /* \"contracts/SycrowBarter.sol\":4154:4282  if(!_allowMultiBarter){... */\n      tag_154\n      jumpi\n        /* \"contracts/SycrowBarter.sol\":4210:4225  _expectedAmount */\n      sload(0x07)\n        /* \"contracts/SycrowBarter.sol\":4198:4206  inAmount */\n      dup4\n        /* \"contracts/SycrowBarter.sol\":4198:4225  inAmount >= _expectedAmount */\n      lt\n      iszero\n        /* \"contracts/SycrowBarter.sol\":4190:4271  require(inAmount >= _expectedAmount, \"SyCrowBarter: AMOUNT_LOWER_THAN_REQURIRED\") */\n      tag_154\n      jumpi\n      mload(0x40)\n      shl(0xe5, 0x461bcd)\n      dup2\n      mstore\n      0x04\n      add\n      tag_102\n      swap1\n      tag_129\n      jump\t// in\n    tag_154:\n        /* \"contracts/SycrowBarter.sol\":4291:4320  _tradeTokenForToken(inAmount) */\n      tag_130\n        /* \"contracts/SycrowBarter.sol\":4311:4319  inAmount */\n      dup4\n        /* \"contracts/SycrowBarter.sol\":4291:4310  _tradeTokenForToken */\n      tag_157\n        /* \"contracts/SycrowBarter.sol\":4291:4320  _tradeTokenForToken(inAmount) */\n      jump\t// in\n        /* \"contracts/SycrowBarter.sol\":8056:9741  function withdraw() external override checkInActive initialized onlyOwner {... */\n    tag_43:\n        /* \"contracts/SycrowBarter.sol\":1316:1331  block.timestamp */\n      timestamp\n        /* \"contracts/SycrowBarter.sol\":1305:1313  deadline */\n      sload(0x02)\n        /* \"contracts/SycrowBarter.sol\":1305:1331  deadline < block.timestamp */\n      lt\n        /* \"contracts/SycrowBarter.sol\":1305:1370  deadline < block.timestamp || totalTradeAmount >= _expectedAmount */\n      dup1\n      tag_159\n      jumpi\n      pop\n        /* \"contracts/SycrowBarter.sol\":1355:1370  _expectedAmount */\n      sload(0x07)\n        /* \"contracts/SycrowBarter.sol\":1335:1351  totalTradeAmount */\n      sload(0x01)\n        /* \"contracts/SycrowBarter.sol\":1335:1370  totalTradeAmount >= _expectedAmount */\n      lt\n      iszero\n        /* \"contracts/SycrowBarter.sol\":1305:1370  deadline < block.timestamp || totalTradeAmount >= _expectedAmount */\n    tag_159:\n        /* \"contracts/SycrowBarter.sol\":1284:1416  require(... */\n      tag_160\n      jumpi\n      mload(0x40)\n      shl(0xe5, 0x461bcd)\n      dup2\n      mstore\n        /* \"#utility.yul\":7029:7031   */\n      0x20\n        /* \"contracts/SycrowBarter.sol\":1284:1416  require(... */\n      0x04\n      dup3\n      add\n        /* \"#utility.yul\":7011:7032   */\n      mstore\n        /* \"#utility.yul\":7068:7070   */\n      0x14\n        /* \"#utility.yul\":7048:7066   */\n      0x24\n      dup3\n      add\n        /* \"#utility.yul\":7041:7071   */\n      mstore\n      shl(0x60, 0x537943726f774261727465723a20414354495645)\n        /* \"#utility.yul\":7087:7105   */\n      0x44\n      dup3\n      add\n        /* \"#utility.yul\":7080:7130   */\n      mstore\n        /* \"#utility.yul\":7147:7165   */\n      0x64\n      add\n        /* \"contracts/SycrowBarter.sol\":1284:1416  require(... */\n      tag_102\n        /* \"#utility.yul\":6827:7171   */\n      jump\n        /* \"contracts/SycrowBarter.sol\":1284:1416  require(... */\n    tag_160:\n        /* \"contracts/SycrowBarter.sol\":1481:1493  _initialized */\n      sload(0x03)\n      shl(0xa8, 0x01)\n      swap1\n      div\n      0xff\n      and\n        /* \"contracts/SycrowBarter.sol\":1473:1527  require(_initialized, \"SyCrowBarter: NOT_INITIALIZED\") */\n      tag_164\n      jumpi\n      mload(0x40)\n      shl(0xe5, 0x461bcd)\n      dup2\n      mstore\n      0x04\n      add\n      tag_102\n      swap1\n      tag_107\n      jump\t// in\n    tag_164:\n        /* \"@openzeppelin/contracts/access/Ownable.sol\":1082:1089  address */\n      0x00\n        /* \"@openzeppelin/contracts/access/Ownable.sol\":1108:1114  _owner */\n      sload\n      sub(shl(0xa0, 0x01), 0x01)\n      and\n        /* \"@openzeppelin/contracts/utils/Context.sol\":719:729  msg.sender */\n      caller\n        /* \"@openzeppelin/contracts/access/Ownable.sol\":1248:1271  owner() == _msgSender() */\n      eq\n        /* \"@openzeppelin/contracts/access/Ownable.sol\":1240:1308  require(owner() == _msgSender(), \"Ownable: caller is not the owner\") */\n      tag_170\n      jumpi\n      mload(0x40)\n      shl(0xe5, 0x461bcd)\n      dup2\n      mstore\n      0x04\n      add\n      tag_102\n      swap1\n      tag_172\n      jump\t// in\n    tag_170:\n        /* \"contracts/SycrowBarter.sol\":8167:8171  WETH */\n      sload(0x03)\n        /* \"contracts/SycrowBarter.sol\":8204:8239  _wethErc20.balanceOf(address(this)) */\n      mload(0x40)\n      shl(0xe0, 0x70a08231)\n      dup2\n      mstore\n        /* \"contracts/SycrowBarter.sol\":8233:8237  this */\n      address\n        /* \"contracts/SycrowBarter.sol\":8204:8239  _wethErc20.balanceOf(address(this)) */\n      0x04\n      dup3\n      add\n        /* \"#utility.yul\":2609:2660   */\n      mstore\n        /* \"contracts/SycrowBarter.sol\":8167:8171  WETH */\n      0x0100\n      swap1\n      swap2\n      div\n      sub(shl(0xa0, 0x01), 0x01)\n      and\n      swap1\n        /* \"contracts/SycrowBarter.sol\":8140:8157  IERC20 _wethErc20 */\n      0x00\n      swap1\n        /* \"contracts/SycrowBarter.sol\":8167:8171  WETH */\n      dup3\n      swap1\n        /* \"contracts/SycrowBarter.sol\":8204:8224  _wethErc20.balanceOf */\n      0x70a08231\n      swap1\n        /* \"#utility.yul\":2582:2600   */\n      0x24\n      add\n        /* \"contracts/SycrowBarter.sol\":8204:8239  _wethErc20.balanceOf(address(this)) */\n      0x20\n      mload(0x40)\n      dup1\n      dup4\n      sub\n      dup2\n      dup7\n      gas\n      staticcall\n      iszero\n      dup1\n      iszero\n      tag_176\n      jumpi\n      returndatasize\n      0x00\n      dup1\n      returndatacopy\n      revert(0x00, returndatasize)\n    tag_176:\n      pop\n      pop\n      pop\n      pop\n      mload(0x40)\n      returndatasize\n      not(0x1f)\n      0x1f\n      dup3\n      add\n      and\n      dup3\n      add\n      dup1\n      0x40\n      mstore\n      pop\n      dup2\n      add\n      swap1\n      tag_177\n      swap2\n      swap1\n      tag_178\n      jump\t// in\n    tag_177:\n        /* \"contracts/SycrowBarter.sol\":8183:8239  uint256 ethBalance = _wethErc20.balanceOf(address(this)) */\n      swap1\n      pop\n        /* \"contracts/SycrowBarter.sol\":8254:8268  ethBalance > 0 */\n      dup1\n      iszero\n        /* \"contracts/SycrowBarter.sol\":8250:8395  if (ethBalance > 0) {... */\n      tag_184\n      jumpi\n        /* \"contracts/SycrowBarter.sol\":8290:8294  WETH */\n      sload(0x03)\n        /* \"contracts/SycrowBarter.sol\":8284:8316  IWETH(WETH).withdraw(ethBalance) */\n      mload(0x40)\n      shl(0xe0, 0x2e1a7d4d)\n      dup2\n      mstore\n      0x04\n      dup2\n      add\n        /* \"#utility.yul\":345:370   */\n      dup4\n      swap1\n      mstore\n        /* \"contracts/SycrowBarter.sol\":8290:8294  WETH */\n      0x0100\n      swap1\n      swap2\n      div\n      sub(shl(0xa0, 0x01), 0x01)\n      and\n      swap1\n        /* \"contracts/SycrowBarter.sol\":8284:8304  IWETH(WETH).withdraw */\n      0x2e1a7d4d\n      swap1\n        /* \"#utility.yul\":318:336   */\n      0x24\n      add\n        /* \"contracts/SycrowBarter.sol\":8284:8316  IWETH(WETH).withdraw(ethBalance) */\n      0x00\n      mload(0x40)\n      dup1\n      dup4\n      sub\n      dup2\n      0x00\n      dup8\n      dup1\n      extcodesize\n      iszero\n      dup1\n      iszero\n      tag_181\n      jumpi\n      0x00\n      dup1\n      revert\n    tag_181:\n      pop\n      gas\n      call\n      iszero\n      dup1\n      iszero\n      tag_183\n      jumpi\n      returndatasize\n      0x00\n      dup1\n      returndatacopy\n      revert(0x00, returndatasize)\n    tag_183:\n      pop\n      pop\n      pop\n      pop\n        /* \"contracts/SycrowBarter.sol\":8330:8384  TransferHelper.safeTransferETH(msg.sender, ethBalance) */\n      tag_184\n        /* \"contracts/SycrowBarter.sol\":8361:8371  msg.sender */\n      caller\n        /* \"contracts/SycrowBarter.sol\":8373:8383  ethBalance */\n      dup3\n        /* \"contracts/SycrowBarter.sol\":8330:8360  TransferHelper.safeTransferETH */\n      tag_185\n        /* \"contracts/SycrowBarter.sol\":8330:8384  TransferHelper.safeTransferETH(msg.sender, ethBalance) */\n      jump\t// in\n    tag_184:\n        /* \"contracts/SycrowBarter.sol\":8443:8464  _expectedTokenAddress */\n      sload(0x05)\n        /* \"contracts/SycrowBarter.sol\":8436:8512  IERC20(_expectedTokenAddress).balanceOf(... */\n      mload(0x40)\n      shl(0xe0, 0x70a08231)\n      dup2\n      mstore\n        /* \"contracts/SycrowBarter.sol\":8497:8501  this */\n      address\n        /* \"contracts/SycrowBarter.sol\":8436:8512  IERC20(_expectedTokenAddress).balanceOf(... */\n      0x04\n      dup3\n      add\n        /* \"#utility.yul\":2609:2660   */\n      mstore\n        /* \"contracts/SycrowBarter.sol\":8405:8433  uint256 expectedTokenBalance */\n      0x00\n      swap2\n      sub(shl(0xa0, 0x01), 0x01)\n        /* \"contracts/SycrowBarter.sol\":8443:8464  _expectedTokenAddress */\n      and\n      swap1\n        /* \"contracts/SycrowBarter.sol\":8436:8475  IERC20(_expectedTokenAddress).balanceOf */\n      0x70a08231\n      swap1\n        /* \"#utility.yul\":2582:2600   */\n      0x24\n      add\n        /* \"contracts/SycrowBarter.sol\":8436:8512  IERC20(_expectedTokenAddress).balanceOf(... */\n      0x20\n      mload(0x40)\n      dup1\n      dup4\n      sub\n      dup2\n      dup7\n      gas\n      staticcall\n      iszero\n      dup1\n      iszero\n      tag_188\n      jumpi\n      returndatasize\n      0x00\n      dup1\n      returndatacopy\n      revert(0x00, returndatasize)\n    tag_188:\n      pop\n      pop\n      pop\n      pop\n      mload(0x40)\n      returndatasize\n      not(0x1f)\n      0x1f\n      dup3\n      add\n      and\n      dup3\n      add\n      dup1\n      0x40\n      mstore\n      pop\n      dup2\n      add\n      swap1\n      tag_189\n      swap2\n      swap1\n      tag_178\n      jump\t// in\n    tag_189:\n        /* \"contracts/SycrowBarter.sol\":8405:8512  uint256 expectedTokenBalance = IERC20(_expectedTokenAddress).balanceOf(... */\n      swap1\n      pop\n        /* \"contracts/SycrowBarter.sol\":8527:8551  expectedTokenBalance > 0 */\n      dup1\n      iszero\n        /* \"contracts/SycrowBarter.sol\":8523:8724  if (expectedTokenBalance > 0) {... */\n      tag_191\n      jumpi\n        /* \"contracts/SycrowBarter.sol\":8612:8633  _expectedTokenAddress */\n      sload(0x05)\n        /* \"contracts/SycrowBarter.sol\":8567:8713  TransferHelper.safeTransfer(... */\n      tag_191\n      swap1\n      sub(shl(0xa0, 0x01), 0x01)\n        /* \"contracts/SycrowBarter.sol\":8612:8633  _expectedTokenAddress */\n      and\n        /* \"contracts/SycrowBarter.sol\":8651:8661  msg.sender */\n      caller\n        /* \"contracts/SycrowBarter.sol\":8679:8699  expectedTokenBalance */\n      dup4\n        /* \"contracts/SycrowBarter.sol\":8567:8594  TransferHelper.safeTransfer */\n      tag_192\n        /* \"contracts/SycrowBarter.sol\":8567:8713  TransferHelper.safeTransfer(... */\n      jump\t// in\n    tag_191:\n        /* \"contracts/SycrowBarter.sol\":8773:8795  _depositedTokenAddress */\n      0x04\n      dup1\n      sload\n        /* \"contracts/SycrowBarter.sol\":8766:8834  IERC20(_depositedTokenAddress)... */\n      mload(0x40)\n      shl(0xe0, 0x70a08231)\n      dup2\n      mstore\n        /* \"contracts/SycrowBarter.sol\":8828:8832  this */\n      address\n        /* \"contracts/SycrowBarter.sol\":8766:8834  IERC20(_depositedTokenAddress)... */\n      swap3\n      dup2\n      add\n        /* \"#utility.yul\":2609:2660   */\n      swap3\n      swap1\n      swap3\n      mstore\n        /* \"contracts/SycrowBarter.sol\":8734:8763  uint256 depositedTokenBalance */\n      0x00\n      swap2\n      sub(shl(0xa0, 0x01), 0x01)\n        /* \"contracts/SycrowBarter.sol\":8773:8795  _depositedTokenAddress */\n      swap1\n      swap2\n      and\n      swap1\n        /* \"contracts/SycrowBarter.sol\":8766:8819  IERC20(_depositedTokenAddress)... */\n      0x70a08231\n      swap1\n        /* \"#utility.yul\":2582:2600   */\n      0x24\n      add\n        /* \"contracts/SycrowBarter.sol\":8766:8834  IERC20(_depositedTokenAddress)... */\n      0x20\n      mload(0x40)\n      dup1\n      dup4\n      sub\n      dup2\n      dup7\n      gas\n      staticcall\n      iszero\n      dup1\n      iszero\n      tag_195\n      jumpi\n      returndatasize\n      0x00\n      dup1\n      returndatacopy\n      revert(0x00, returndatasize)\n    tag_195:\n      pop\n      pop\n      pop\n      pop\n      mload(0x40)\n      returndatasize\n      not(0x1f)\n      0x1f\n      dup3\n      add\n      and\n      dup3\n      add\n      dup1\n      0x40\n      mstore\n      pop\n      dup2\n      add\n      swap1\n      tag_196\n      swap2\n      swap1\n      tag_178\n      jump\t// in\n    tag_196:\n        /* \"contracts/SycrowBarter.sol\":8734:8834  uint256 depositedTokenBalance = IERC20(_depositedTokenAddress)... */\n      swap1\n      pop\n        /* \"contracts/SycrowBarter.sol\":8849:8874  depositedTokenBalance > 0 */\n      dup1\n      iszero\n        /* \"contracts/SycrowBarter.sol\":8845:9049  if (depositedTokenBalance > 0) {... */\n      tag_198\n      jumpi\n        /* \"contracts/SycrowBarter.sol\":8935:8957  _depositedTokenAddress */\n      sload(0x04)\n        /* \"contracts/SycrowBarter.sol\":8890:9038  TransferHelper.safeTransfer(... */\n      tag_198\n      swap1\n      sub(shl(0xa0, 0x01), 0x01)\n        /* \"contracts/SycrowBarter.sol\":8935:8957  _depositedTokenAddress */\n      and\n        /* \"contracts/SycrowBarter.sol\":8975:8985  msg.sender */\n      caller\n        /* \"contracts/SycrowBarter.sol\":9003:9024  depositedTokenBalance */\n      dup4\n        /* \"contracts/SycrowBarter.sol\":8890:8917  TransferHelper.safeTransfer */\n      tag_192\n        /* \"contracts/SycrowBarter.sol\":8890:9038  TransferHelper.safeTransfer(... */\n      jump\t// in\n    tag_198:\n        /* \"contracts/SycrowBarter.sol\":9058:9072  uint256 value1 */\n      0x00\n      dup1\n      dup1\n        /* \"contracts/SycrowBarter.sol\":9119:9129  barterType */\n      and(0xff, sload(0x03))\n        /* \"contracts/SycrowBarter.sol\":9119:9164  barterType == ISyCrowBarterType.ETH_FOR_TOKEN */\n      0x02\n      dup2\n      gt\n      iszero\n      tag_202\n      jumpi\n      tag_202\n      tag_119\n      jump\t// in\n    tag_202:\n      sub\n        /* \"contracts/SycrowBarter.sol\":9115:9504  if (barterType == ISyCrowBarterType.ETH_FOR_TOKEN) {... */\n      tag_203\n      jumpi\n      pop\n        /* \"contracts/SycrowBarter.sol\":9189:9199  ethBalance */\n      dup4\n      swap1\n      pop\n        /* \"contracts/SycrowBarter.sol\":9222:9242  expectedTokenBalance */\n      dup3\n        /* \"contracts/SycrowBarter.sol\":9115:9504  if (barterType == ISyCrowBarterType.ETH_FOR_TOKEN) {... */\n      jump(tag_210)\n    tag_203:\n        /* \"contracts/SycrowBarter.sol\":9277:9310  ISyCrowBarterType.TOKEN_FOR_TOKEN */\n      0x02\n        /* \"contracts/SycrowBarter.sol\":9263:9273  barterType */\n      and(0xff, sload(0x03))\n        /* \"contracts/SycrowBarter.sol\":9263:9310  barterType == ISyCrowBarterType.TOKEN_FOR_TOKEN */\n      0x02\n      dup2\n      gt\n      iszero\n      tag_208\n      jumpi\n      tag_208\n      tag_119\n      jump\t// in\n    tag_208:\n      sub\n        /* \"contracts/SycrowBarter.sol\":9259:9504  if (barterType == ISyCrowBarterType.TOKEN_FOR_TOKEN) {... */\n      tag_209\n      jumpi\n      pop\n        /* \"contracts/SycrowBarter.sol\":9335:9356  depositedTokenBalance */\n      dup2\n      swap1\n      pop\n        /* \"contracts/SycrowBarter.sol\":9379:9399  expectedTokenBalance */\n      dup3\n        /* \"contracts/SycrowBarter.sol\":9259:9504  if (barterType == ISyCrowBarterType.TOKEN_FOR_TOKEN) {... */\n      jump(tag_210)\n    tag_209:\n      pop\n        /* \"contracts/SycrowBarter.sol\":9439:9460  depositedTokenBalance */\n      dup2\n      swap1\n      pop\n        /* \"contracts/SycrowBarter.sol\":9483:9493  ethBalance */\n      dup4\n        /* \"contracts/SycrowBarter.sol\":9259:9504  if (barterType == ISyCrowBarterType.TOKEN_FOR_TOKEN) {... */\n    tag_210:\n        /* \"contracts/SycrowBarter.sol\":9597:9734  sycrFactory.notifyWithdrawFromBarter(... */\n      mload(0x40)\n      shl(0xe1, 0x19bcb507)\n      dup2\n      mstore\n        /* \"contracts/SycrowBarter.sol\":9570:9577  factory */\n      immutable(\"0x26a975632f70533c9512e57b565b8ce8e2befee6b08dfbc27c4a897a20e2c1d6\")\n      swap1\n      sub(shl(0xa0, 0x01), 0x01)\n        /* \"contracts/SycrowBarter.sol\":9597:9633  sycrFactory.notifyWithdrawFromBarter */\n      dup3\n      and\n      swap1\n      0x33796a0e\n      swap1\n        /* \"contracts/SycrowBarter.sol\":9597:9734  sycrFactory.notifyWithdrawFromBarter(... */\n      tag_211\n      swap1\n        /* \"contracts/SycrowBarter.sol\":9655:9659  this */\n      address\n      swap1\n        /* \"contracts/SycrowBarter.sol\":9674:9684  msg.sender */\n      caller\n      swap1\n        /* \"contracts/SycrowBarter.sol\":9698:9704  value1 */\n      dup9\n      swap1\n        /* \"contracts/SycrowBarter.sol\":9718:9724  value2 */\n      dup9\n      swap1\n        /* \"contracts/SycrowBarter.sol\":9597:9734  sycrFactory.notifyWithdrawFromBarter(... */\n      0x04\n      add\n      tag_212\n      jump\t// in\n    tag_211:\n      0x00\n      mload(0x40)\n      dup1\n      dup4\n      sub\n      dup2\n      0x00\n      dup8\n      dup1\n      extcodesize\n      iszero\n      dup1\n      iszero\n      tag_213\n      jumpi\n      0x00\n      dup1\n      revert\n    tag_213:\n      pop\n      gas\n      call\n      iszero\n      dup1\n      iszero\n      tag_215\n      jumpi\n      returndatasize\n      0x00\n      dup1\n      returndatacopy\n      revert(0x00, returndatasize)\n    tag_215:\n      pop\n      pop\n      pop\n      pop\n        /* \"contracts/SycrowBarter.sol\":8130:9741  {... */\n      pop\n      pop\n      pop\n      pop\n      pop\n      pop\n      pop\n        /* \"contracts/SycrowBarter.sol\":8056:9741  function withdraw() external override checkInActive initialized onlyOwner {... */\n      jump\t// out\n        /* \"contracts/SycrowBarter.sol\":2852:3039  function getAmounts()... */\n    tag_46:\n        /* \"contracts/SycrowBarter.sol\":1481:1493  _initialized */\n      sload(0x03)\n        /* \"contracts/SycrowBarter.sol\":2958:2965  uint256 */\n      0x00\n      swap1\n      dup2\n      swap1\n      shl(0xa8, 0x01)\n        /* \"contracts/SycrowBarter.sol\":1481:1493  _initialized */\n      swap1\n      div\n      0xff\n      and\n        /* \"contracts/SycrowBarter.sol\":1473:1527  require(_initialized, \"SyCrowBarter: NOT_INITIALIZED\") */\n      tag_217\n      jumpi\n      mload(0x40)\n      shl(0xe5, 0x461bcd)\n      dup2\n      mstore\n      0x04\n      add\n      tag_102\n      swap1\n      tag_107\n      jump\t// in\n    tag_217:\n      pop\n      pop\n        /* \"contracts/SycrowBarter.sol\":2998:3014  _depositedAmount */\n      sload(0x06)\n        /* \"contracts/SycrowBarter.sol\":3016:3031  _expectedAmount */\n      sload(0x07)\n        /* \"contracts/SycrowBarter.sol\":2852:3039  function getAmounts()... */\n      swap1\n      swap2\n      jump\t// out\n        /* \"contracts/SycrowBarter.sol\":4720:5117  function tradeEthForToken(uint256 inAmount)... */\n    tag_55:\n        /* \"contracts/SycrowBarter.sol\":963:978  block.timestamp */\n      timestamp\n        /* \"contracts/SycrowBarter.sol\":951:959  deadline */\n      sload(0x02)\n        /* \"contracts/SycrowBarter.sol\":951:978  deadline >= block.timestamp */\n      lt\n      iszero\n        /* \"contracts/SycrowBarter.sol\":951:1016  deadline >= block.timestamp && totalTradeAmount < _expectedAmount */\n      dup1\n      iszero\n      tag_221\n      jumpi\n      pop\n        /* \"contracts/SycrowBarter.sol\":1001:1016  _expectedAmount */\n      sload(0x07)\n        /* \"contracts/SycrowBarter.sol\":982:998  totalTradeAmount */\n      sload(0x01)\n        /* \"contracts/SycrowBarter.sol\":982:1016  totalTradeAmount < _expectedAmount */\n      lt\n        /* \"contracts/SycrowBarter.sol\":951:1016  deadline >= block.timestamp && totalTradeAmount < _expectedAmount */\n    tag_221:\n        /* \"contracts/SycrowBarter.sol\":930:1064  require(... */\n      tag_222\n      jumpi\n      mload(0x40)\n      shl(0xe5, 0x461bcd)\n      dup2\n      mstore\n      0x04\n      add\n      tag_102\n      swap1\n      tag_103\n      jump\t// in\n    tag_222:\n        /* \"contracts/SycrowBarter.sol\":1481:1493  _initialized */\n      sload(0x03)\n      shl(0xa8, 0x01)\n      swap1\n      div\n      0xff\n      and\n        /* \"contracts/SycrowBarter.sol\":1473:1527  require(_initialized, \"SyCrowBarter: NOT_INITIALIZED\") */\n      tag_225\n      jumpi\n      mload(0x40)\n      shl(0xe5, 0x461bcd)\n      dup2\n      mstore\n      0x04\n      add\n      tag_102\n      swap1\n      tag_107\n      jump\t// in\n    tag_225:\n        /* \"contracts/SycrowBarter.sol\":1584:1617  ISyCrowBarterFactory isycrFactory */\n      0x00\n        /* \"contracts/SycrowBarter.sol\":1641:1648  factory */\n      immutable(\"0x26a975632f70533c9512e57b565b8ce8e2befee6b08dfbc27c4a897a20e2c1d6\")\n        /* \"contracts/SycrowBarter.sol\":1584:1649  ISyCrowBarterFactory isycrFactory = ISyCrowBarterFactory(factory) */\n      swap1\n      pop\n        /* \"contracts/SycrowBarter.sol\":1668:1680  isycrFactory */\n      dup1\n      sub(shl(0xa0, 0x01), 0x01)\n        /* \"contracts/SycrowBarter.sol\":1668:1689  isycrFactory.isPaused */\n      and\n      0xb187bd26\n        /* \"contracts/SycrowBarter.sol\":1668:1691  isycrFactory.isPaused() */\n      mload(0x40)\n      dup2\n      0xffffffff\n      and\n      0xe0\n      shl\n      dup2\n      mstore\n      0x04\n      add\n      0x20\n      mload(0x40)\n      dup1\n      dup4\n      sub\n      dup2\n      dup7\n      gas\n      staticcall\n      iszero\n      dup1\n      iszero\n      tag_229\n      jumpi\n      returndatasize\n      0x00\n      dup1\n      returndatacopy\n      revert(0x00, returndatasize)\n    tag_229:\n      pop\n      pop\n      pop\n      pop\n      mload(0x40)\n      returndatasize\n      not(0x1f)\n      0x1f\n      dup3\n      add\n      and\n      dup3\n      add\n      dup1\n      0x40\n      mstore\n      pop\n      dup2\n      add\n      swap1\n      tag_230\n      swap2\n      swap1\n      tag_112\n      jump\t// in\n    tag_230:\n        /* \"contracts/SycrowBarter.sol\":1667:1691  !isycrFactory.isPaused() */\n      iszero\n        /* \"contracts/SycrowBarter.sol\":1659:1730  require(!isycrFactory.isPaused(), \"SyCrowBarter: Base Contract Paused\") */\n      tag_231\n      jumpi\n      mload(0x40)\n      shl(0xe5, 0x461bcd)\n      dup2\n      mstore\n      0x04\n      add\n      tag_102\n      swap1\n      tag_115\n      jump\t// in\n    tag_231:\n        /* \"contracts/SycrowBarter.sol\":1177:1187  barterType */\n      sload(0x03)\n        /* \"contracts/SycrowBarter.sol\":4898:4929  ISyCrowBarterType.TOKEN_FOR_ETH */\n      0x01\n      swap1\n        /* \"contracts/SycrowBarter.sol\":1177:1187  barterType */\n      0xff\n      and\n        /* \"contracts/SycrowBarter.sol\":1162:1187  _barterType == barterType */\n      0x02\n      dup2\n      gt\n      iszero\n      tag_235\n      jumpi\n      tag_235\n      tag_119\n      jump\t// in\n    tag_235:\n        /* \"contracts/SycrowBarter.sol\":1162:1173  _barterType */\n      dup2\n        /* \"contracts/SycrowBarter.sol\":1162:1187  _barterType == barterType */\n      0x02\n      dup2\n      gt\n      iszero\n      tag_237\n      jumpi\n      tag_237\n      tag_119\n      jump\t// in\n    tag_237:\n      eq\n        /* \"contracts/SycrowBarter.sol\":1154:1225  require(_barterType == barterType, \"SyCrowBarter: INVALID_BARTER_TYPE\") */\n      tag_238\n      jumpi\n      mload(0x40)\n      shl(0xe5, 0x461bcd)\n      dup2\n      mstore\n      0x04\n      add\n      tag_102\n      swap1\n      tag_124\n      jump\t// in\n    tag_238:\n        /* \"contracts/SycrowBarter.sol\":4949:4966  _allowMultiBarter */\n      and(0xff, sload(0x08))\n        /* \"contracts/SycrowBarter.sol\":4945:5074  if(!_allowMultiBarter){... */\n      tag_242\n      jumpi\n        /* \"contracts/SycrowBarter.sol\":5002:5017  _expectedAmount */\n      sload(0x07)\n        /* \"contracts/SycrowBarter.sol\":4989:4998  msg.value */\n      callvalue\n        /* \"contracts/SycrowBarter.sol\":4989:5017  msg.value >= _expectedAmount */\n      lt\n      iszero\n        /* \"contracts/SycrowBarter.sol\":4981:5063  require(msg.value >= _expectedAmount, \"SyCrowBarter: AMOUNT_LOWER_THAN_REQURIRED\") */\n      tag_242\n      jumpi\n      mload(0x40)\n      shl(0xe5, 0x461bcd)\n      dup2\n      mstore\n      0x04\n      add\n      tag_102\n      swap1\n      tag_129\n      jump\t// in\n    tag_242:\n        /* \"contracts/SycrowBarter.sol\":5083:5110  _tradeEthForToken(inAmount) */\n      tag_130\n        /* \"contracts/SycrowBarter.sol\":5101:5109  inAmount */\n      dup4\n        /* \"contracts/SycrowBarter.sol\":5083:5100  _tradeEthForToken */\n      tag_245\n        /* \"contracts/SycrowBarter.sol\":5083:5110  _tradeEthForToken(inAmount) */\n      jump\t// in\n        /* \"contracts/SycrowBarter.sol\":1811:2846  function initialize(... */\n    tag_60:\n        /* \"contracts/SycrowBarter.sol\":2091:2095  bool */\n      0x00\n        /* \"contracts/SycrowBarter.sol\":2115:2125  msg.sender */\n      caller\n      sub(shl(0xa0, 0x01), 0x01)\n        /* \"contracts/SycrowBarter.sol\":2129:2136  factory */\n      immutable(\"0x26a975632f70533c9512e57b565b8ce8e2befee6b08dfbc27c4a897a20e2c1d6\")\n        /* \"contracts/SycrowBarter.sol\":2115:2136  msg.sender == factory */\n      and\n      eq\n        /* \"contracts/SycrowBarter.sol\":2107:2164  require(msg.sender == factory, \"SyCrowBarter: FORBIDDEN\") */\n      tag_247\n      jumpi\n      mload(0x40)\n      shl(0xe5, 0x461bcd)\n      dup2\n      mstore\n        /* \"#utility.yul\":8380:8382   */\n      0x20\n        /* \"contracts/SycrowBarter.sol\":2107:2164  require(msg.sender == factory, \"SyCrowBarter: FORBIDDEN\") */\n      0x04\n      dup3\n      add\n        /* \"#utility.yul\":8362:8383   */\n      mstore\n        /* \"#utility.yul\":8419:8421   */\n      0x17\n        /* \"#utility.yul\":8399:8417   */\n      0x24\n      dup3\n      add\n        /* \"#utility.yul\":8392:8422   */\n      mstore\n        /* \"#utility.yul\":8458:8483   */\n      0x537943726f774261727465723a20464f5242494444454e000000000000000000\n        /* \"#utility.yul\":8438:8456   */\n      0x44\n      dup3\n      add\n        /* \"#utility.yul\":8431:8484   */\n      mstore\n        /* \"#utility.yul\":8501:8519   */\n      0x64\n      add\n        /* \"contracts/SycrowBarter.sol\":2107:2164  require(msg.sender == factory, \"SyCrowBarter: FORBIDDEN\") */\n      tag_102\n        /* \"#utility.yul\":8178:8525   */\n      jump\n        /* \"contracts/SycrowBarter.sol\":2107:2164  require(msg.sender == factory, \"SyCrowBarter: FORBIDDEN\") */\n    tag_247:\n        /* \"contracts/SycrowBarter.sol\":2184:2196  _initialized */\n      sload(0x03)\n      shl(0xa8, 0x01)\n      swap1\n      div\n      0xff\n      and\n        /* \"contracts/SycrowBarter.sol\":2183:2196  !_initialized */\n      iszero\n        /* \"contracts/SycrowBarter.sol\":2175:2234  require(!_initialized, \"SyCrowBarter: ALREADY_INITIALIZED\") */\n      tag_250\n      jumpi\n      mload(0x40)\n      shl(0xe5, 0x461bcd)\n      dup2\n      mstore\n        /* \"#utility.yul\":8732:8734   */\n      0x20\n        /* \"contracts/SycrowBarter.sol\":2175:2234  require(!_initialized, \"SyCrowBarter: ALREADY_INITIALIZED\") */\n      0x04\n      dup3\n      add\n        /* \"#utility.yul\":8714:8735   */\n      mstore\n        /* \"#utility.yul\":8771:8773   */\n      0x21\n        /* \"#utility.yul\":8751:8769   */\n      0x24\n      dup3\n      add\n        /* \"#utility.yul\":8744:8774   */\n      mstore\n        /* \"#utility.yul\":8810:8844   */\n      0x537943726f774261727465723a20414c52454144595f494e495449414c495a45\n        /* \"#utility.yul\":8790:8808   */\n      0x44\n      dup3\n      add\n        /* \"#utility.yul\":8783:8845   */\n      mstore\n      shl(0xfa, 0x11)\n        /* \"#utility.yul\":8861:8879   */\n      0x64\n      dup3\n      add\n        /* \"#utility.yul\":8854:8885   */\n      mstore\n        /* \"#utility.yul\":8902:8921   */\n      0x84\n      add\n        /* \"contracts/SycrowBarter.sol\":2175:2234  require(!_initialized, \"SyCrowBarter: ALREADY_INITIALIZED\") */\n      tag_102\n        /* \"#utility.yul\":8530:8927   */\n      jump\n        /* \"contracts/SycrowBarter.sol\":2175:2234  require(!_initialized, \"SyCrowBarter: ALREADY_INITIALIZED\") */\n    tag_250:\n        /* \"contracts/SycrowBarter.sol\":2265:2280  block.timestamp */\n      timestamp\n        /* \"contracts/SycrowBarter.sol\":2252:2261  _deadline */\n      dup5\n        /* \"contracts/SycrowBarter.sol\":2252:2280  _deadline >= block.timestamp */\n      lt\n      iszero\n        /* \"contracts/SycrowBarter.sol\":2244:2312  require(_deadline >= block.timestamp, \"SyCrowBarter: PAST_DEADLINE\") */\n      tag_253\n      jumpi\n      mload(0x40)\n      shl(0xe5, 0x461bcd)\n      dup2\n      mstore\n        /* \"#utility.yul\":9134:9136   */\n      0x20\n        /* \"contracts/SycrowBarter.sol\":2244:2312  require(_deadline >= block.timestamp, \"SyCrowBarter: PAST_DEADLINE\") */\n      0x04\n      dup3\n      add\n        /* \"#utility.yul\":9116:9137   */\n      mstore\n        /* \"#utility.yul\":9173:9175   */\n      0x1b\n        /* \"#utility.yul\":9153:9171   */\n      0x24\n      dup3\n      add\n        /* \"#utility.yul\":9146:9176   */\n      mstore\n        /* \"#utility.yul\":9212:9241   */\n      0x537943726f774261727465723a20504153545f444541444c494e450000000000\n        /* \"#utility.yul\":9192:9210   */\n      0x44\n      dup3\n      add\n        /* \"#utility.yul\":9185:9242   */\n      mstore\n        /* \"#utility.yul\":9259:9277   */\n      0x64\n      add\n        /* \"contracts/SycrowBarter.sol\":2244:2312  require(_deadline >= block.timestamp, \"SyCrowBarter: PAST_DEADLINE\") */\n      tag_102\n        /* \"#utility.yul\":8932:9283   */\n      jump\n        /* \"contracts/SycrowBarter.sol\":2244:2312  require(_deadline >= block.timestamp, \"SyCrowBarter: PAST_DEADLINE\") */\n    tag_253:\n        /* \"contracts/SycrowBarter.sol\":2344:2384  IERC20(inToken).balanceOf(address(this)) */\n      mload(0x40)\n      shl(0xe0, 0x70a08231)\n      dup2\n      mstore\n        /* \"contracts/SycrowBarter.sol\":2378:2382  this */\n      address\n        /* \"contracts/SycrowBarter.sol\":2344:2384  IERC20(inToken).balanceOf(address(this)) */\n      0x04\n      dup3\n      add\n        /* \"#utility.yul\":2609:2660   */\n      mstore\n        /* \"contracts/SycrowBarter.sol\":2388:2403  amountDeposited */\n      dup7\n      swap1\n      sub(shl(0xa0, 0x01), 0x01)\n        /* \"contracts/SycrowBarter.sol\":2344:2369  IERC20(inToken).balanceOf */\n      dup11\n      and\n      swap1\n      0x70a08231\n      swap1\n        /* \"#utility.yul\":2582:2600   */\n      0x24\n      add\n        /* \"contracts/SycrowBarter.sol\":2344:2384  IERC20(inToken).balanceOf(address(this)) */\n      0x20\n      mload(0x40)\n      dup1\n      dup4\n      sub\n      dup2\n      dup7\n      gas\n      staticcall\n      iszero\n      dup1\n      iszero\n      tag_258\n      jumpi\n      returndatasize\n      0x00\n      dup1\n      returndatacopy\n      revert(0x00, returndatasize)\n    tag_258:\n      pop\n      pop\n      pop\n      pop\n      mload(0x40)\n      returndatasize\n      not(0x1f)\n      0x1f\n      dup3\n      add\n      and\n      dup3\n      add\n      dup1\n      0x40\n      mstore\n      pop\n      dup2\n      add\n      swap1\n      tag_259\n      swap2\n      swap1\n      tag_178\n      jump\t// in\n    tag_259:\n        /* \"contracts/SycrowBarter.sol\":2344:2403  IERC20(inToken).balanceOf(address(this)) >= amountDeposited */\n      lt\n      iszero\n        /* \"contracts/SycrowBarter.sol\":2323:2463  require(... */\n      tag_260\n      jumpi\n      mload(0x40)\n      shl(0xe5, 0x461bcd)\n      dup2\n      mstore\n        /* \"#utility.yul\":9490:9492   */\n      0x20\n        /* \"contracts/SycrowBarter.sol\":2323:2463  require(... */\n      0x04\n      dup3\n      add\n        /* \"#utility.yul\":9472:9493   */\n      mstore\n        /* \"#utility.yul\":9529:9531   */\n      0x22\n        /* \"#utility.yul\":9509:9527   */\n      0x24\n      dup3\n      add\n        /* \"#utility.yul\":9502:9532   */\n      mstore\n        /* \"#utility.yul\":9568:9602   */\n      0x537943726f774261727465723a20494e53554646494349454e545f4445504f53\n        /* \"#utility.yul\":9548:9566   */\n      0x44\n      dup3\n      add\n        /* \"#utility.yul\":9541:9603   */\n      mstore\n      shl(0xf2, 0x1255)\n        /* \"#utility.yul\":9619:9637   */\n      0x64\n      dup3\n      add\n        /* \"#utility.yul\":9612:9644   */\n      mstore\n        /* \"#utility.yul\":9661:9680   */\n      0x84\n      add\n        /* \"contracts/SycrowBarter.sol\":2323:2463  require(... */\n      tag_102\n        /* \"#utility.yul\":9288:9686   */\n      jump\n        /* \"contracts/SycrowBarter.sol\":2323:2463  require(... */\n    tag_260:\n        /* \"contracts/SycrowBarter.sol\":2474:2482  deadline */\n      0x02\n        /* \"contracts/SycrowBarter.sol\":2474:2494  deadline = _deadline */\n      dup5\n      dup2\n      sstore\n        /* \"contracts/SycrowBarter.sol\":2505:2527  _depositedTokenAddress */\n      0x04\n        /* \"contracts/SycrowBarter.sol\":2505:2537  _depositedTokenAddress = inToken */\n      dup1\n      sload\n      sub(shl(0xa0, 0x01), 0x01)\n      dup1\n      dup13\n      and\n      not(sub(shl(0xa0, 0x01), 0x01))\n      swap3\n      dup4\n      and\n      or\n      swap1\n      swap3\n      sstore\n        /* \"contracts/SycrowBarter.sol\":2547:2568  _expectedTokenAddress */\n      0x05\n        /* \"contracts/SycrowBarter.sol\":2547:2579  _expectedTokenAddress = outToken */\n      dup1\n      sload\n      swap3\n      dup12\n      and\n      swap3\n      swap1\n      swap2\n      and\n      swap2\n      swap1\n      swap2\n      or\n      swap1\n      sstore\n        /* \"contracts/SycrowBarter.sol\":2590:2606  _depositedAmount */\n      0x06\n        /* \"contracts/SycrowBarter.sol\":2590:2624  _depositedAmount = amountDeposited */\n      dup8\n      swap1\n      sstore\n        /* \"contracts/SycrowBarter.sol\":2634:2649  _expectedAmount */\n      0x07\n        /* \"contracts/SycrowBarter.sol\":2634:2666  _expectedAmount = amountExpected */\n      dup7\n      swap1\n      sstore\n        /* \"contracts/SycrowBarter.sol\":2677:2687  barterType */\n      0x03\n        /* \"contracts/SycrowBarter.sol\":2677:2701  barterType = _barterType */\n      dup1\n      sload\n        /* \"contracts/SycrowBarter.sol\":2690:2701  _barterType */\n      dup12\n      swap3\n      not(0xff)\n        /* \"contracts/SycrowBarter.sol\":2677:2701  barterType = _barterType */\n      swap1\n      swap2\n      and\n      swap1\n        /* \"contracts/SycrowBarter.sol\":2505:2537  _depositedTokenAddress = inToken */\n      0x01\n      swap1\n        /* \"contracts/SycrowBarter.sol\":2690:2701  _barterType */\n      dup5\n      swap1\n        /* \"contracts/SycrowBarter.sol\":2677:2701  barterType = _barterType */\n      dup2\n      gt\n      iszero\n      tag_264\n      jumpi\n      tag_264\n      tag_119\n      jump\t// in\n    tag_264:\n      mul\n      or\n      swap1\n      sstore\n      pop\n      pop\n        /* \"contracts/SycrowBarter.sol\":2712:2729  _allowMultiBarter */\n      0x08\n        /* \"contracts/SycrowBarter.sol\":2712:2748  _allowMultiBarter = allowMultiBarter */\n      dup1\n      sload\n      dup4\n      iszero\n      iszero\n      not(0xff)\n      swap1\n      swap2\n      and\n      or\n      swap1\n      sstore\n        /* \"contracts/SycrowBarter.sol\":2767:2771  WETH */\n      0x03\n        /* \"contracts/SycrowBarter.sol\":2767:2779  WETH = _WETH */\n      dup1\n      sload\n      not(shl(0xa8, 0xff))\n      sub(shl(0xa0, 0x01), 0x01)\n      dup5\n      and\n        /* \"contracts/SycrowBarter.sol\":2712:2748  _allowMultiBarter = allowMultiBarter */\n      0x0100\n        /* \"contracts/SycrowBarter.sol\":2767:2779  WETH = _WETH */\n      mul\n        /* \"contracts/SycrowBarter.sol\":2790:2809  _initialized = true */\n      and\n      not(sub(shl(0xb0, 0x01), 0x0100))\n      swap1\n      swap2\n      and\n      or\n      shl(0xa8, 0x01)\n      swap1\n      dup2\n      or\n      swap2\n      dup3\n      swap1\n      sstore\n        /* \"contracts/SycrowBarter.sol\":2827:2839  _initialized */\n      swap1\n      div\n        /* \"contracts/SycrowBarter.sol\":2712:2748  _allowMultiBarter = allowMultiBarter */\n      0xff\n        /* \"contracts/SycrowBarter.sol\":2827:2839  _initialized */\n      and\n        /* \"contracts/SycrowBarter.sol\":1811:2846  function initialize(... */\n      swap9\n      swap8\n      pop\n      pop\n      pop\n      pop\n      pop\n      pop\n      pop\n      pop\n      jump\t// out\n        /* \"@openzeppelin/contracts/access/Ownable.sol\":1668:1769  function renounceOwnership() public virtual onlyOwner {... */\n    tag_64:\n        /* \"@openzeppelin/contracts/access/Ownable.sol\":1082:1089  address */\n      0x00\n        /* \"@openzeppelin/contracts/access/Ownable.sol\":1108:1114  _owner */\n      sload\n      sub(shl(0xa0, 0x01), 0x01)\n      and\n        /* \"@openzeppelin/contracts/utils/Context.sol\":719:729  msg.sender */\n      caller\n        /* \"@openzeppelin/contracts/access/Ownable.sol\":1248:1271  owner() == _msgSender() */\n      eq\n        /* \"@openzeppelin/contracts/access/Ownable.sol\":1240:1308  require(owner() == _msgSender(), \"Ownable: caller is not the owner\") */\n      tag_268\n      jumpi\n      mload(0x40)\n      shl(0xe5, 0x461bcd)\n      dup2\n      mstore\n      0x04\n      add\n      tag_102\n      swap1\n      tag_172\n      jump\t// in\n    tag_268:\n        /* \"@openzeppelin/contracts/access/Ownable.sol\":1732:1762  _transferOwnership(address(0)) */\n      tag_271\n        /* \"@openzeppelin/contracts/access/Ownable.sol\":1759:1760  0 */\n      0x00\n        /* \"@openzeppelin/contracts/access/Ownable.sol\":1732:1750  _transferOwnership */\n      tag_272\n        /* \"@openzeppelin/contracts/access/Ownable.sol\":1732:1762  _transferOwnership(address(0)) */\n      jump\t// in\n    tag_271:\n        /* \"@openzeppelin/contracts/access/Ownable.sol\":1668:1769  function renounceOwnership() public virtual onlyOwner {... */\n      jump\t// out\n        /* \"contracts/SycrowBarter.sol\":3045:3243  function getTokens()... */\n    tag_77:\n        /* \"contracts/SycrowBarter.sol\":1481:1493  _initialized */\n      sload(0x03)\n        /* \"contracts/SycrowBarter.sol\":3150:3157  address */\n      0x00\n      swap1\n      dup2\n      swap1\n      shl(0xa8, 0x01)\n        /* \"contracts/SycrowBarter.sol\":1481:1493  _initialized */\n      swap1\n      div\n      0xff\n      and\n        /* \"contracts/SycrowBarter.sol\":1473:1527  require(_initialized, \"SyCrowBarter: NOT_INITIALIZED\") */\n      tag_275\n      jumpi\n      mload(0x40)\n      shl(0xe5, 0x461bcd)\n      dup2\n      mstore\n      0x04\n      add\n      tag_102\n      swap1\n      tag_107\n      jump\t// in\n    tag_275:\n      pop\n      pop\n        /* \"contracts/SycrowBarter.sol\":3190:3212  _depositedTokenAddress */\n      sload(0x04)\n        /* \"contracts/SycrowBarter.sol\":3214:3235  _expectedTokenAddress */\n      sload(0x05)\n      sub(shl(0xa0, 0x01), 0x01)\n        /* \"contracts/SycrowBarter.sol\":3190:3212  _depositedTokenAddress */\n      swap2\n      dup3\n      and\n      swap2\n        /* \"contracts/SycrowBarter.sol\":3214:3235  _expectedTokenAddress */\n      and\n        /* \"contracts/SycrowBarter.sol\":3045:3243  function getTokens()... */\n      swap1\n      swap2\n      jump\t// out\n        /* \"contracts/SycrowBarter.sol\":9747:9917  function getTradeOutAmount(uint256 amount)... */\n    tag_87:\n        /* \"contracts/SycrowBarter.sol\":9835:9842  uint256 */\n      0x00\n        /* \"contracts/SycrowBarter.sol\":9895:9910  _expectedAmount */\n      sload(0x07)\n        /* \"contracts/SycrowBarter.sol\":9875:9891  _depositedAmount */\n      sload(0x06)\n        /* \"contracts/SycrowBarter.sol\":9866:9872  amount */\n      dup4\n        /* \"contracts/SycrowBarter.sol\":9866:9891  amount * _depositedAmount */\n      tag_279\n      swap2\n      swap1\n      tag_280\n      jump\t// in\n    tag_279:\n        /* \"contracts/SycrowBarter.sol\":9865:9910  (amount * _depositedAmount) / _expectedAmount */\n      tag_281\n      swap2\n      swap1\n      tag_282\n      jump\t// in\n    tag_281:\n        /* \"contracts/SycrowBarter.sol\":9858:9910  return (amount * _depositedAmount) / _expectedAmount */\n      swap3\n        /* \"contracts/SycrowBarter.sol\":9747:9917  function getTradeOutAmount(uint256 amount)... */\n      swap2\n      pop\n      pop\n      jump\t// out\n        /* \"contracts/SycrowBarter.sol\":3249:3935  function getTrades()... */\n    tag_91:\n        /* \"contracts/SycrowBarter.sol\":3367:3383  address[] memory */\n      0x60\n        /* \"contracts/SycrowBarter.sol\":3397:3413  uint256[] memory */\n      dup1\n        /* \"contracts/SycrowBarter.sol\":3427:3443  uint256[] memory */\n      0x60\n        /* \"contracts/SycrowBarter.sol\":1481:1493  _initialized */\n      0x03\n      0x15\n      swap1\n      sload\n      swap1\n      0x0100\n      exp\n      swap1\n      div\n      0xff\n      and\n        /* \"contracts/SycrowBarter.sol\":1473:1527  require(_initialized, \"SyCrowBarter: NOT_INITIALIZED\") */\n      tag_284\n      jumpi\n      mload(0x40)\n      shl(0xe5, 0x461bcd)\n      dup2\n      mstore\n      0x04\n      add\n      tag_102\n      swap1\n      tag_107\n      jump\t// in\n    tag_284:\n        /* \"contracts/SycrowBarter.sol\":3511:3518  _trades */\n      0x09\n        /* \"contracts/SycrowBarter.sol\":3511:3525  _trades.length */\n      sload\n        /* \"contracts/SycrowBarter.sol\":3468:3494  address[] memory addresses */\n      0x00\n      swap1\n        /* \"contracts/SycrowBarter.sol\":3497:3526  new address[](_trades.length) */\n      0xffffffffffffffff\n      dup2\n      gt\n      iszero\n      tag_288\n      jumpi\n      tag_288\n      tag_289\n      jump\t// in\n    tag_288:\n      mload(0x40)\n      swap1\n      dup1\n      dup3\n      mstore\n      dup1\n      0x20\n      mul\n      0x20\n      add\n      dup3\n      add\n      0x40\n      mstore\n      dup1\n      iszero\n      tag_290\n      jumpi\n      dup2\n      0x20\n      add\n      0x20\n      dup3\n      mul\n      dup1\n      calldatasize\n      dup4\n      calldatacopy\n      add\n      swap1\n      pop\n    tag_290:\n      pop\n        /* \"contracts/SycrowBarter.sol\":3579:3586  _trades */\n      0x09\n        /* \"contracts/SycrowBarter.sol\":3579:3593  _trades.length */\n      sload\n        /* \"contracts/SycrowBarter.sol\":3468:3526  address[] memory addresses = new address[](_trades.length) */\n      swap1\n      swap2\n      pop\n        /* \"contracts/SycrowBarter.sol\":3536:3562  uint256[] memory amountsIn */\n      0x00\n      swap1\n        /* \"contracts/SycrowBarter.sol\":3565:3594  new uint256[](_trades.length) */\n      0xffffffffffffffff\n      dup2\n      gt\n      iszero\n      tag_292\n      jumpi\n      tag_292\n      tag_289\n      jump\t// in\n    tag_292:\n      mload(0x40)\n      swap1\n      dup1\n      dup3\n      mstore\n      dup1\n      0x20\n      mul\n      0x20\n      add\n      dup3\n      add\n      0x40\n      mstore\n      dup1\n      iszero\n      tag_293\n      jumpi\n      dup2\n      0x20\n      add\n      0x20\n      dup3\n      mul\n      dup1\n      calldatasize\n      dup4\n      calldatacopy\n      add\n      swap1\n      pop\n    tag_293:\n      pop\n        /* \"contracts/SycrowBarter.sol\":3648:3655  _trades */\n      0x09\n        /* \"contracts/SycrowBarter.sol\":3648:3662  _trades.length */\n      sload\n        /* \"contracts/SycrowBarter.sol\":3536:3594  uint256[] memory amountsIn = new uint256[](_trades.length) */\n      swap1\n      swap2\n      pop\n        /* \"contracts/SycrowBarter.sol\":3604:3631  uint256[] memory amountsOut */\n      0x00\n      swap1\n        /* \"contracts/SycrowBarter.sol\":3634:3663  new uint256[](_trades.length) */\n      0xffffffffffffffff\n      dup2\n      gt\n      iszero\n      tag_295\n      jumpi\n      tag_295\n      tag_289\n      jump\t// in\n    tag_295:\n      mload(0x40)\n      swap1\n      dup1\n      dup3\n      mstore\n      dup1\n      0x20\n      mul\n      0x20\n      add\n      dup3\n      add\n      0x40\n      mstore\n      dup1\n      iszero\n      tag_296\n      jumpi\n      dup2\n      0x20\n      add\n      0x20\n      dup3\n      mul\n      dup1\n      calldatasize\n      dup4\n      calldatacopy\n      add\n      swap1\n      pop\n    tag_296:\n      pop\n        /* \"contracts/SycrowBarter.sol\":3604:3663  uint256[] memory amountsOut = new uint256[](_trades.length) */\n      swap1\n      pop\n        /* \"contracts/SycrowBarter.sol\":3679:3688  uint256 i */\n      0x00\n        /* \"contracts/SycrowBarter.sol\":3674:3877  for (uint256 i = 0; i < _trades.length; i++) {... */\n    tag_297:\n        /* \"contracts/SycrowBarter.sol\":3698:3705  _trades */\n      0x09\n        /* \"contracts/SycrowBarter.sol\":3698:3712  _trades.length */\n      sload\n        /* \"contracts/SycrowBarter.sol\":3694:3712  i < _trades.length */\n      dup2\n      lt\n        /* \"contracts/SycrowBarter.sol\":3674:3877  for (uint256 i = 0; i < _trades.length; i++) {... */\n      iszero\n      tag_298\n      jumpi\n        /* \"contracts/SycrowBarter.sol\":3748:3755  _trades */\n      0x09\n        /* \"contracts/SycrowBarter.sol\":3756:3757  i */\n      dup2\n        /* \"contracts/SycrowBarter.sol\":3748:3758  _trades[i] */\n      dup2\n      sload\n      dup2\n      lt\n      tag_301\n      jumpi\n      tag_301\n      tag_302\n      jump\t// in\n    tag_301:\n      0x00\n      swap2\n      dup3\n      mstore\n      0x20\n      swap1\n      swap2\n      keccak256\n      0x03\n      swap1\n      swap2\n      mul\n      add\n        /* \"contracts/SycrowBarter.sol\":3748:3766  _trades[i]._trader */\n      sload\n        /* \"contracts/SycrowBarter.sol\":3733:3745  addresses[i] */\n      dup5\n      mload\n      sub(shl(0xa0, 0x01), 0x01)\n        /* \"contracts/SycrowBarter.sol\":3748:3766  _trades[i]._trader */\n      swap1\n      swap2\n      and\n      swap1\n        /* \"contracts/SycrowBarter.sol\":3733:3742  addresses */\n      dup6\n      swap1\n        /* \"contracts/SycrowBarter.sol\":3743:3744  i */\n      dup4\n      swap1\n        /* \"contracts/SycrowBarter.sol\":3733:3745  addresses[i] */\n      dup2\n      lt\n      tag_305\n      jumpi\n      tag_305\n      tag_302\n      jump\t// in\n    tag_305:\n      0x20\n      mul\n      0x20\n      add\n      add\n        /* \"contracts/SycrowBarter.sol\":3733:3766  addresses[i] = _trades[i]._trader */\n      swap1\n      sub(shl(0xa0, 0x01), 0x01)\n      and\n      swap1\n      dup2\n      sub(shl(0xa0, 0x01), 0x01)\n      and\n      dup2\n      mstore\n      pop\n      pop\n        /* \"contracts/SycrowBarter.sol\":3795:3802  _trades */\n      0x09\n        /* \"contracts/SycrowBarter.sol\":3803:3804  i */\n      dup2\n        /* \"contracts/SycrowBarter.sol\":3795:3805  _trades[i] */\n      dup2\n      sload\n      dup2\n      lt\n      tag_307\n      jumpi\n      tag_307\n      tag_302\n      jump\t// in\n    tag_307:\n      swap1\n      0x00\n      mstore\n      keccak256(0x00, 0x20)\n      swap1\n      0x03\n      mul\n      add\n        /* \"contracts/SycrowBarter.sol\":3795:3815  _trades[i]._amountIn */\n      0x01\n      add\n      sload\n        /* \"contracts/SycrowBarter.sol\":3780:3789  amountsIn */\n      dup4\n        /* \"contracts/SycrowBarter.sol\":3790:3791  i */\n      dup3\n        /* \"contracts/SycrowBarter.sol\":3780:3792  amountsIn[i] */\n      dup2\n      mload\n      dup2\n      lt\n      tag_310\n      jumpi\n      tag_310\n      tag_302\n      jump\t// in\n    tag_310:\n      0x20\n      mul\n      0x20\n      add\n      add\n        /* \"contracts/SycrowBarter.sol\":3780:3815  amountsIn[i] = _trades[i]._amountIn */\n      dup2\n      dup2\n      mstore\n      pop\n      pop\n        /* \"contracts/SycrowBarter.sol\":3845:3852  _trades */\n      0x09\n        /* \"contracts/SycrowBarter.sol\":3853:3854  i */\n      dup2\n        /* \"contracts/SycrowBarter.sol\":3845:3855  _trades[i] */\n      dup2\n      sload\n      dup2\n      lt\n      tag_312\n      jumpi\n      tag_312\n      tag_302\n      jump\t// in\n    tag_312:\n      swap1\n      0x00\n      mstore\n      keccak256(0x00, 0x20)\n      swap1\n      0x03\n      mul\n      add\n        /* \"contracts/SycrowBarter.sol\":3845:3866  _trades[i]._amountOut */\n      0x02\n      add\n      sload\n        /* \"contracts/SycrowBarter.sol\":3829:3839  amountsOut */\n      dup3\n        /* \"contracts/SycrowBarter.sol\":3840:3841  i */\n      dup3\n        /* \"contracts/SycrowBarter.sol\":3829:3842  amountsOut[i] */\n      dup2\n      mload\n      dup2\n      lt\n      tag_315\n      jumpi\n      tag_315\n      tag_302\n      jump\t// in\n    tag_315:\n      0x20\n      swap1\n      dup2\n      mul\n      swap2\n      swap1\n      swap2\n      add\n      add\n        /* \"contracts/SycrowBarter.sol\":3829:3866  amountsOut[i] = _trades[i]._amountOut */\n      mstore\n        /* \"contracts/SycrowBarter.sol\":3714:3717  i++ */\n      dup1\n      tag_316\n      dup2\n      tag_317\n      jump\t// in\n    tag_316:\n      swap2\n      pop\n      pop\n        /* \"contracts/SycrowBarter.sol\":3674:3877  for (uint256 i = 0; i < _trades.length; i++) {... */\n      jump(tag_297)\n    tag_298:\n      pop\n        /* \"contracts/SycrowBarter.sol\":3895:3904  addresses */\n      swap2\n      swap5\n      pop\n        /* \"contracts/SycrowBarter.sol\":3906:3915  amountsIn */\n      swap3\n      pop\n        /* \"contracts/SycrowBarter.sol\":3917:3927  amountsOut */\n      swap1\n      pop\n        /* \"contracts/SycrowBarter.sol\":3249:3935  function getTrades()... */\n      swap1\n      swap2\n      swap3\n      jump\t// out\n        /* \"@openzeppelin/contracts/access/Ownable.sol\":1918:2116  function transferOwnership(address newOwner) public virtual onlyOwner {... */\n    tag_98:\n        /* \"@openzeppelin/contracts/access/Ownable.sol\":1082:1089  address */\n      0x00\n        /* \"@openzeppelin/contracts/access/Ownable.sol\":1108:1114  _owner */\n      sload\n      sub(shl(0xa0, 0x01), 0x01)\n      and\n        /* \"@openzeppelin/contracts/utils/Context.sol\":719:729  msg.sender */\n      caller\n        /* \"@openzeppelin/contracts/access/Ownable.sol\":1248:1271  owner() == _msgSender() */\n      eq\n        /* \"@openzeppelin/contracts/access/Ownable.sol\":1240:1308  require(owner() == _msgSender(), \"Ownable: caller is not the owner\") */\n      tag_321\n      jumpi\n      mload(0x40)\n      shl(0xe5, 0x461bcd)\n      dup2\n      mstore\n      0x04\n      add\n      tag_102\n      swap1\n      tag_172\n      jump\t// in\n    tag_321:\n      sub(shl(0xa0, 0x01), 0x01)\n        /* \"@openzeppelin/contracts/access/Ownable.sol\":2006:2028  newOwner != address(0) */\n      dup2\n      and\n        /* \"@openzeppelin/contracts/access/Ownable.sol\":1998:2071  require(newOwner != address(0), \"Ownable: new owner is the zero address\") */\n      tag_324\n      jumpi\n      mload(0x40)\n      shl(0xe5, 0x461bcd)\n      dup2\n      mstore\n        /* \"#utility.yul\":10824:10826   */\n      0x20\n        /* \"@openzeppelin/contracts/access/Ownable.sol\":1998:2071  require(newOwner != address(0), \"Ownable: new owner is the zero address\") */\n      0x04\n      dup3\n      add\n        /* \"#utility.yul\":10806:10827   */\n      mstore\n        /* \"#utility.yul\":10863:10865   */\n      0x26\n        /* \"#utility.yul\":10843:10861   */\n      0x24\n      dup3\n      add\n        /* \"#utility.yul\":10836:10866   */\n      mstore\n        /* \"#utility.yul\":10902:10936   */\n      0x4f776e61626c653a206e6577206f776e657220697320746865207a65726f2061\n        /* \"#utility.yul\":10882:10900   */\n      0x44\n      dup3\n      add\n        /* \"#utility.yul\":10875:10937   */\n      mstore\n      shl(0xd0, 0x646472657373)\n        /* \"#utility.yul\":10953:10971   */\n      0x64\n      dup3\n      add\n        /* \"#utility.yul\":10946:10982   */\n      mstore\n        /* \"#utility.yul\":10999:11018   */\n      0x84\n      add\n        /* \"@openzeppelin/contracts/access/Ownable.sol\":1998:2071  require(newOwner != address(0), \"Ownable: new owner is the zero address\") */\n      tag_102\n        /* \"#utility.yul\":10622:11024   */\n      jump\n        /* \"@openzeppelin/contracts/access/Ownable.sol\":1998:2071  require(newOwner != address(0), \"Ownable: new owner is the zero address\") */\n    tag_324:\n        /* \"@openzeppelin/contracts/access/Ownable.sol\":2081:2109  _transferOwnership(newOwner) */\n      tag_327\n        /* \"@openzeppelin/contracts/access/Ownable.sol\":2100:2108  newOwner */\n      dup2\n        /* \"@openzeppelin/contracts/access/Ownable.sol\":2081:2099  _transferOwnership */\n      tag_272\n        /* \"@openzeppelin/contracts/access/Ownable.sol\":2081:2109  _transferOwnership(newOwner) */\n      jump\t// in\n    tag_327:\n        /* \"@openzeppelin/contracts/access/Ownable.sol\":1918:2116  function transferOwnership(address newOwner) public virtual onlyOwner {... */\n      pop\n      jump\t// out\n        /* \"contracts/SycrowBarter.sol\":6169:7189  function _tradeTokenForEth(uint256 inAmount) internal {... */\n    tag_131:\n        /* \"contracts/SycrowBarter.sol\":6261:6282  _expectedTokenAddress */\n      sload(0x05)\n        /* \"contracts/SycrowBarter.sol\":6254:6305  IERC20(_expectedTokenAddress).balanceOf(msg.sender) */\n      mload(0x40)\n      shl(0xe0, 0x70a08231)\n      dup2\n      mstore\n        /* \"contracts/SycrowBarter.sol\":6294:6304  msg.sender */\n      caller\n        /* \"contracts/SycrowBarter.sol\":6254:6305  IERC20(_expectedTokenAddress).balanceOf(msg.sender) */\n      0x04\n      dup3\n      add\n        /* \"#utility.yul\":2609:2660   */\n      mstore\n        /* \"contracts/SycrowBarter.sol\":6309:6317  inAmount */\n      dup3\n      swap2\n      sub(shl(0xa0, 0x01), 0x01)\n        /* \"contracts/SycrowBarter.sol\":6261:6282  _expectedTokenAddress */\n      and\n      swap1\n        /* \"contracts/SycrowBarter.sol\":6254:6293  IERC20(_expectedTokenAddress).balanceOf */\n      0x70a08231\n      swap1\n        /* \"#utility.yul\":2582:2600   */\n      0x24\n      add\n        /* \"contracts/SycrowBarter.sol\":6254:6305  IERC20(_expectedTokenAddress).balanceOf(msg.sender) */\n      0x20\n      mload(0x40)\n      dup1\n      dup4\n      sub\n      dup2\n      dup7\n      gas\n      staticcall\n      iszero\n      dup1\n      iszero\n      tag_331\n      jumpi\n      returndatasize\n      0x00\n      dup1\n      returndatacopy\n      revert(0x00, returndatasize)\n    tag_331:\n      pop\n      pop\n      pop\n      pop\n      mload(0x40)\n      returndatasize\n      not(0x1f)\n      0x1f\n      dup3\n      add\n      and\n      dup3\n      add\n      dup1\n      0x40\n      mstore\n      pop\n      dup2\n      add\n      swap1\n      tag_332\n      swap2\n      swap1\n      tag_178\n      jump\t// in\n    tag_332:\n        /* \"contracts/SycrowBarter.sol\":6254:6317  IERC20(_expectedTokenAddress).balanceOf(msg.sender) >= inAmount */\n      lt\n      iszero\n        /* \"contracts/SycrowBarter.sol\":6233:6377  require(... */\n      tag_333\n      jumpi\n      mload(0x40)\n      shl(0xe5, 0x461bcd)\n      dup2\n      mstore\n      0x04\n      add\n      tag_102\n      swap1\n      tag_335\n      jump\t// in\n    tag_333:\n        /* \"contracts/SycrowBarter.sol\":6388:6405  uint256 outAmount */\n      0x00\n        /* \"contracts/SycrowBarter.sol\":6408:6435  getTradeOutAmount(inAmount) */\n      tag_336\n        /* \"contracts/SycrowBarter.sol\":6426:6434  inAmount */\n      dup3\n        /* \"contracts/SycrowBarter.sol\":6408:6425  getTradeOutAmount */\n      tag_87\n        /* \"contracts/SycrowBarter.sol\":6408:6435  getTradeOutAmount(inAmount) */\n      jump\t// in\n    tag_336:\n        /* \"contracts/SycrowBarter.sol\":6473:6477  WETH */\n      sload(0x03)\n        /* \"contracts/SycrowBarter.sol\":6510:6545  _wethErc20.balanceOf(address(this)) */\n      mload(0x40)\n      shl(0xe0, 0x70a08231)\n      dup2\n      mstore\n        /* \"contracts/SycrowBarter.sol\":6539:6543  this */\n      address\n        /* \"contracts/SycrowBarter.sol\":6510:6545  _wethErc20.balanceOf(address(this)) */\n      0x04\n      dup3\n      add\n        /* \"#utility.yul\":2609:2660   */\n      mstore\n        /* \"contracts/SycrowBarter.sol\":6388:6435  uint256 outAmount = getTradeOutAmount(inAmount) */\n      swap2\n      swap3\n      pop\n        /* \"contracts/SycrowBarter.sol\":6473:6477  WETH */\n      0x0100\n      swap1\n      div\n      sub(shl(0xa0, 0x01), 0x01)\n      and\n      swap1\n        /* \"contracts/SycrowBarter.sol\":6388:6435  uint256 outAmount = getTradeOutAmount(inAmount) */\n      dup3\n      swap1\n        /* \"contracts/SycrowBarter.sol\":6473:6477  WETH */\n      dup3\n      swap1\n        /* \"contracts/SycrowBarter.sol\":6510:6530  _wethErc20.balanceOf */\n      0x70a08231\n      swap1\n        /* \"#utility.yul\":2582:2600   */\n      0x24\n      add\n        /* \"contracts/SycrowBarter.sol\":6510:6545  _wethErc20.balanceOf(address(this)) */\n      0x20\n      mload(0x40)\n      dup1\n      dup4\n      sub\n      dup2\n      dup7\n      gas\n      staticcall\n      iszero\n      dup1\n      iszero\n      tag_339\n      jumpi\n      returndatasize\n      0x00\n      dup1\n      returndatacopy\n      revert(0x00, returndatasize)\n    tag_339:\n      pop\n      pop\n      pop\n      pop\n      mload(0x40)\n      returndatasize\n      not(0x1f)\n      0x1f\n      dup3\n      add\n      and\n      dup3\n      add\n      dup1\n      0x40\n      mstore\n      pop\n      dup2\n      add\n      swap1\n      tag_340\n      swap2\n      swap1\n      tag_178\n      jump\t// in\n    tag_340:\n        /* \"contracts/SycrowBarter.sol\":6510:6558  _wethErc20.balanceOf(address(this)) >= outAmount */\n      lt\n      iszero\n        /* \"contracts/SycrowBarter.sol\":6489:6627  require(... */\n      tag_341\n      jumpi\n      mload(0x40)\n      shl(0xe5, 0x461bcd)\n      dup2\n      mstore\n      0x04\n      add\n      tag_102\n      swap1\n      tag_343\n      jump\t// in\n    tag_341:\n        /* \"contracts/SycrowBarter.sol\":6644:6648  WETH */\n      sload(0x03)\n        /* \"contracts/SycrowBarter.sol\":6638:6669  IWETH(WETH).withdraw(outAmount) */\n      mload(0x40)\n      shl(0xe0, 0x2e1a7d4d)\n      dup2\n      mstore\n      0x04\n      dup2\n      add\n        /* \"#utility.yul\":345:370   */\n      dup5\n      swap1\n      mstore\n        /* \"contracts/SycrowBarter.sol\":6644:6648  WETH */\n      0x0100\n      swap1\n      swap2\n      div\n      sub(shl(0xa0, 0x01), 0x01)\n      and\n      swap1\n        /* \"contracts/SycrowBarter.sol\":6638:6658  IWETH(WETH).withdraw */\n      0x2e1a7d4d\n      swap1\n        /* \"#utility.yul\":318:336   */\n      0x24\n      add\n        /* \"contracts/SycrowBarter.sol\":6638:6669  IWETH(WETH).withdraw(outAmount) */\n      0x00\n      mload(0x40)\n      dup1\n      dup4\n      sub\n      dup2\n      0x00\n      dup8\n      dup1\n      extcodesize\n      iszero\n      dup1\n      iszero\n      tag_345\n      jumpi\n      0x00\n      dup1\n      revert\n    tag_345:\n      pop\n      gas\n      call\n      iszero\n      dup1\n      iszero\n      tag_347\n      jumpi\n      returndatasize\n      0x00\n      dup1\n      returndatacopy\n      revert(0x00, returndatasize)\n    tag_347:\n      pop\n      pop\n        /* \"contracts/SycrowBarter.sol\":6725:6746  _expectedTokenAddress */\n      sload(0x05)\n        /* \"contracts/SycrowBarter.sol\":6680:6829  TransferHelper.safeTransferFrom(... */\n      tag_348\n      swap3\n      pop\n      sub(shl(0xa0, 0x01), 0x01)\n        /* \"contracts/SycrowBarter.sol\":6725:6746  _expectedTokenAddress */\n      and\n      swap1\n      pop\n        /* \"contracts/SycrowBarter.sol\":6760:6770  msg.sender */\n      caller\n        /* \"contracts/SycrowBarter.sol\":6792:6796  this */\n      address\n        /* \"contracts/SycrowBarter.sol\":6811:6819  inAmount */\n      dup7\n        /* \"contracts/SycrowBarter.sol\":6680:6711  TransferHelper.safeTransferFrom */\n      tag_349\n        /* \"contracts/SycrowBarter.sol\":6680:6829  TransferHelper.safeTransferFrom(... */\n      jump\t// in\n    tag_348:\n        /* \"contracts/SycrowBarter.sol\":6839:6892  TransferHelper.safeTransferETH(msg.sender, outAmount) */\n      tag_350\n        /* \"contracts/SycrowBarter.sol\":6870:6880  msg.sender */\n      caller\n        /* \"contracts/SycrowBarter.sol\":6882:6891  outAmount */\n      dup4\n        /* \"contracts/SycrowBarter.sol\":6839:6869  TransferHelper.safeTransferETH */\n      tag_185\n        /* \"contracts/SycrowBarter.sol\":6839:6892  TransferHelper.safeTransferETH(msg.sender, outAmount) */\n      jump\t// in\n    tag_350:\n        /* \"contracts/SycrowBarter.sol\":6916:6959  BaterTrade(msg.sender, inAmount, outAmount) */\n      0x40\n      dup1\n      mload\n      0x60\n      dup2\n      add\n      dup3\n      mstore\n        /* \"contracts/SycrowBarter.sol\":6927:6937  msg.sender */\n      caller\n        /* \"contracts/SycrowBarter.sol\":6916:6959  BaterTrade(msg.sender, inAmount, outAmount) */\n      dup1\n      dup3\n      mstore\n      0x20\n      dup3\n      add\n      dup7\n      dup2\n      mstore\n      dup3\n      dup5\n      add\n      dup7\n      dup2\n      mstore\n        /* \"contracts/SycrowBarter.sol\":6903:6910  _trades */\n      0x09\n        /* \"contracts/SycrowBarter.sol\":6903:6960  _trades.push(BaterTrade(msg.sender, inAmount, outAmount)) */\n      dup1\n      sload\n      0x01\n      dup2\n      add\n      dup3\n      sstore\n      0x00\n      swap2\n      swap1\n      swap2\n      mstore\n      swap4\n      mload\n      0x03\n      swap1\n      swap5\n      mul\n      0x6e1540171b6c0c960b71a7020d9f60077f6af931a8bbf590da0223dacf75c7af\n      dup2\n      add\n      dup1\n      sload\n      sub(shl(0xa0, 0x01), 0x01)\n      swap7\n      dup8\n      and\n      not(sub(shl(0xa0, 0x01), 0x01))\n      swap1\n      swap2\n      and\n      or\n      swap1\n      sstore\n      swap2\n      mload\n      0x6e1540171b6c0c960b71a7020d9f60077f6af931a8bbf590da0223dacf75c7b0\n      dup4\n      add\n      sstore\n      mload\n      0x6e1540171b6c0c960b71a7020d9f60077f6af931a8bbf590da0223dacf75c7b1\n      swap1\n      swap2\n      add\n      sstore\n        /* \"contracts/SycrowBarter.sol\":7045:7182  sycrFactory.notifyTradeByBarter(... */\n      swap2\n      mload\n      shl(0xe0, 0xf52701b7)\n      dup2\n      mstore\n        /* \"contracts/SycrowBarter.sol\":7027:7034  factory */\n      immutable(\"0x26a975632f70533c9512e57b565b8ce8e2befee6b08dfbc27c4a897a20e2c1d6\")\n      swap3\n        /* \"contracts/SycrowBarter.sol\":7045:7076  sycrFactory.notifyTradeByBarter */\n      swap2\n      dup4\n      and\n      swap2\n      0xf52701b7\n      swap2\n        /* \"contracts/SycrowBarter.sol\":7045:7182  sycrFactory.notifyTradeByBarter(... */\n      tag_352\n      swap2\n        /* \"contracts/SycrowBarter.sol\":7098:7102  this */\n      address\n      swap2\n        /* \"contracts/SycrowBarter.sol\":6939:6947  inAmount */\n      dup10\n      swap1\n        /* \"contracts/SycrowBarter.sol\":6949:6958  outAmount */\n      dup10\n      swap1\n        /* \"contracts/SycrowBarter.sol\":7045:7182  sycrFactory.notifyTradeByBarter(... */\n      0x04\n      add\n      tag_212\n      jump\t// in\n    tag_352:\n      0x00\n      mload(0x40)\n      dup1\n      dup4\n      sub\n      dup2\n      0x00\n      dup8\n      dup1\n      extcodesize\n      iszero\n      dup1\n      iszero\n      tag_353\n      jumpi\n      0x00\n      dup1\n      revert\n    tag_353:\n      pop\n      gas\n      call\n      iszero\n      dup1\n      iszero\n      tag_355\n      jumpi\n      returndatasize\n      0x00\n      dup1\n      returndatacopy\n      revert(0x00, returndatasize)\n    tag_355:\n      pop\n      pop\n      pop\n      pop\n        /* \"contracts/SycrowBarter.sol\":6223:7189  {... */\n      pop\n      pop\n      pop\n        /* \"contracts/SycrowBarter.sol\":6169:7189  function _tradeTokenForEth(uint256 inAmount) internal {... */\n      pop\n      jump\t// out\n        /* \"contracts/SycrowBarter.sol\":5123:6163  function _tradeTokenForToken(uint256 inAmount) internal {... */\n    tag_157:\n        /* \"contracts/SycrowBarter.sol\":5217:5238  _expectedTokenAddress */\n      sload(0x05)\n        /* \"contracts/SycrowBarter.sol\":5210:5261  IERC20(_expectedTokenAddress).balanceOf(msg.sender) */\n      mload(0x40)\n      shl(0xe0, 0x70a08231)\n      dup2\n      mstore\n        /* \"contracts/SycrowBarter.sol\":5250:5260  msg.sender */\n      caller\n        /* \"contracts/SycrowBarter.sol\":5210:5261  IERC20(_expectedTokenAddress).balanceOf(msg.sender) */\n      0x04\n      dup3\n      add\n        /* \"#utility.yul\":2609:2660   */\n      mstore\n        /* \"contracts/SycrowBarter.sol\":5265:5273  inAmount */\n      dup3\n      swap2\n      sub(shl(0xa0, 0x01), 0x01)\n        /* \"contracts/SycrowBarter.sol\":5217:5238  _expectedTokenAddress */\n      and\n      swap1\n        /* \"contracts/SycrowBarter.sol\":5210:5249  IERC20(_expectedTokenAddress).balanceOf */\n      0x70a08231\n      swap1\n        /* \"#utility.yul\":2582:2600   */\n      0x24\n      add\n        /* \"contracts/SycrowBarter.sol\":5210:5261  IERC20(_expectedTokenAddress).balanceOf(msg.sender) */\n      0x20\n      mload(0x40)\n      dup1\n      dup4\n      sub\n      dup2\n      dup7\n      gas\n      staticcall\n      iszero\n      dup1\n      iszero\n      tag_359\n      jumpi\n      returndatasize\n      0x00\n      dup1\n      returndatacopy\n      revert(0x00, returndatasize)\n    tag_359:\n      pop\n      pop\n      pop\n      pop\n      mload(0x40)\n      returndatasize\n      not(0x1f)\n      0x1f\n      dup3\n      add\n      and\n      dup3\n      add\n      dup1\n      0x40\n      mstore\n      pop\n      dup2\n      add\n      swap1\n      tag_360\n      swap2\n      swap1\n      tag_178\n      jump\t// in\n    tag_360:\n        /* \"contracts/SycrowBarter.sol\":5210:5273  IERC20(_expectedTokenAddress).balanceOf(msg.sender) >= inAmount */\n      lt\n      iszero\n        /* \"contracts/SycrowBarter.sol\":5189:5333  require(... */\n      tag_361\n      jumpi\n      mload(0x40)\n      shl(0xe5, 0x461bcd)\n      dup2\n      mstore\n      0x04\n      add\n      tag_102\n      swap1\n      tag_335\n      jump\t// in\n    tag_361:\n        /* \"contracts/SycrowBarter.sol\":5344:5361  uint256 outAmount */\n      0x00\n        /* \"contracts/SycrowBarter.sol\":5364:5391  getTradeOutAmount(inAmount) */\n      tag_363\n        /* \"contracts/SycrowBarter.sol\":5382:5390  inAmount */\n      dup3\n        /* \"contracts/SycrowBarter.sol\":5364:5381  getTradeOutAmount */\n      tag_87\n        /* \"contracts/SycrowBarter.sol\":5364:5391  getTradeOutAmount(inAmount) */\n      jump\t// in\n    tag_363:\n        /* \"contracts/SycrowBarter.sol\":5430:5452  _depositedTokenAddress */\n      0x04\n      dup1\n      sload\n        /* \"contracts/SycrowBarter.sol\":5423:5478  IERC20(_depositedTokenAddress).balanceOf(address(this)) */\n      mload(0x40)\n      shl(0xe0, 0x70a08231)\n      dup2\n      mstore\n        /* \"contracts/SycrowBarter.sol\":5472:5476  this */\n      address\n        /* \"contracts/SycrowBarter.sol\":5423:5478  IERC20(_depositedTokenAddress).balanceOf(address(this)) */\n      swap3\n      dup2\n      add\n        /* \"#utility.yul\":2609:2660   */\n      swap3\n      swap1\n      swap3\n      mstore\n        /* \"contracts/SycrowBarter.sol\":5344:5391  uint256 outAmount = getTradeOutAmount(inAmount) */\n      swap2\n      swap3\n      pop\n      dup3\n      swap2\n      sub(shl(0xa0, 0x01), 0x01)\n        /* \"contracts/SycrowBarter.sol\":5430:5452  _depositedTokenAddress */\n      and\n      swap1\n        /* \"contracts/SycrowBarter.sol\":5423:5463  IERC20(_depositedTokenAddress).balanceOf */\n      0x70a08231\n      swap1\n        /* \"#utility.yul\":2582:2600   */\n      0x24\n      add\n        /* \"contracts/SycrowBarter.sol\":5423:5478  IERC20(_depositedTokenAddress).balanceOf(address(this)) */\n      0x20\n      mload(0x40)\n      dup1\n      dup4\n      sub\n      dup2\n      dup7\n      gas\n      staticcall\n      iszero\n      dup1\n      iszero\n      tag_366\n      jumpi\n      returndatasize\n      0x00\n      dup1\n      returndatacopy\n      revert(0x00, returndatasize)\n    tag_366:\n      pop\n      pop\n      pop\n      pop\n      mload(0x40)\n      returndatasize\n      not(0x1f)\n      0x1f\n      dup3\n      add\n      and\n      dup3\n      add\n      dup1\n      0x40\n      mstore\n      pop\n      dup2\n      add\n      swap1\n      tag_367\n      swap2\n      swap1\n      tag_178\n      jump\t// in\n    tag_367:\n        /* \"contracts/SycrowBarter.sol\":5423:5507  IERC20(_depositedTokenAddress).balanceOf(address(this)) >=... */\n      lt\n      iszero\n        /* \"contracts/SycrowBarter.sol\":5402:5576  require(... */\n      tag_368\n      jumpi\n      mload(0x40)\n      shl(0xe5, 0x461bcd)\n      dup2\n      mstore\n      0x04\n      add\n      tag_102\n      swap1\n      tag_343\n      jump\t// in\n    tag_368:\n        /* \"contracts/SycrowBarter.sol\":5632:5653  _expectedTokenAddress */\n      sload(0x05)\n        /* \"contracts/SycrowBarter.sol\":5587:5736  TransferHelper.safeTransferFrom(... */\n      tag_370\n      swap1\n      sub(shl(0xa0, 0x01), 0x01)\n        /* \"contracts/SycrowBarter.sol\":5632:5653  _expectedTokenAddress */\n      and\n        /* \"contracts/SycrowBarter.sol\":5667:5677  msg.sender */\n      caller\n        /* \"contracts/SycrowBarter.sol\":5699:5703  this */\n      address\n        /* \"contracts/SycrowBarter.sol\":5718:5726  inAmount */\n      dup6\n        /* \"contracts/SycrowBarter.sol\":5587:5618  TransferHelper.safeTransferFrom */\n      tag_349\n        /* \"contracts/SycrowBarter.sol\":5587:5736  TransferHelper.safeTransferFrom(... */\n      jump\t// in\n    tag_370:\n        /* \"contracts/SycrowBarter.sol\":5787:5809  _depositedTokenAddress */\n      sload(0x04)\n        /* \"contracts/SycrowBarter.sol\":5746:5866  TransferHelper.safeTransfer(... */\n      tag_371\n      swap1\n      sub(shl(0xa0, 0x01), 0x01)\n        /* \"contracts/SycrowBarter.sol\":5787:5809  _depositedTokenAddress */\n      and\n        /* \"contracts/SycrowBarter.sol\":5823:5833  msg.sender */\n      caller\n        /* \"contracts/SycrowBarter.sol\":5847:5856  outAmount */\n      dup4\n        /* \"contracts/SycrowBarter.sol\":5746:5773  TransferHelper.safeTransfer */\n      tag_192\n        /* \"contracts/SycrowBarter.sol\":5746:5866  TransferHelper.safeTransfer(... */\n      jump\t// in\n    tag_371:\n        /* \"contracts/SycrowBarter.sol\":5890:5933  BaterTrade(msg.sender, inAmount, outAmount) */\n      0x40\n      dup1\n      mload\n      0x60\n      dup2\n      add\n      dup3\n      mstore\n        /* \"contracts/SycrowBarter.sol\":5901:5911  msg.sender */\n      caller\n        /* \"contracts/SycrowBarter.sol\":5890:5933  BaterTrade(msg.sender, inAmount, outAmount) */\n      dup1\n      dup3\n      mstore\n      0x20\n      dup3\n      add\n      dup6\n      dup2\n      mstore\n      dup3\n      dup5\n      add\n      dup6\n      dup2\n      mstore\n        /* \"contracts/SycrowBarter.sol\":5877:5884  _trades */\n      0x09\n        /* \"contracts/SycrowBarter.sol\":5877:5934  _trades.push(BaterTrade(msg.sender, inAmount, outAmount)) */\n      dup1\n      sload\n      0x01\n      dup2\n      add\n      dup3\n      sstore\n      0x00\n      swap2\n      swap1\n      swap2\n      mstore\n      swap4\n      mload\n      0x03\n      swap1\n      swap5\n      mul\n      0x6e1540171b6c0c960b71a7020d9f60077f6af931a8bbf590da0223dacf75c7af\n      dup2\n      add\n      dup1\n      sload\n      sub(shl(0xa0, 0x01), 0x01)\n      swap7\n      dup8\n      and\n      not(sub(shl(0xa0, 0x01), 0x01))\n      swap1\n      swap2\n      and\n      or\n      swap1\n      sstore\n      swap2\n      mload\n      0x6e1540171b6c0c960b71a7020d9f60077f6af931a8bbf590da0223dacf75c7b0\n      dup4\n      add\n      sstore\n      mload\n      0x6e1540171b6c0c960b71a7020d9f60077f6af931a8bbf590da0223dacf75c7b1\n      swap1\n      swap2\n      add\n      sstore\n        /* \"contracts/SycrowBarter.sol\":6019:6156  sycrFactory.notifyTradeByBarter(... */\n      swap2\n      mload\n      shl(0xe0, 0xf52701b7)\n      dup2\n      mstore\n        /* \"contracts/SycrowBarter.sol\":6001:6008  factory */\n      immutable(\"0x26a975632f70533c9512e57b565b8ce8e2befee6b08dfbc27c4a897a20e2c1d6\")\n      swap3\n        /* \"contracts/SycrowBarter.sol\":6019:6050  sycrFactory.notifyTradeByBarter */\n      swap2\n      dup4\n      and\n      swap2\n      0xf52701b7\n      swap2\n        /* \"contracts/SycrowBarter.sol\":6019:6156  sycrFactory.notifyTradeByBarter(... */\n      tag_373\n      swap2\n        /* \"contracts/SycrowBarter.sol\":6072:6076  this */\n      address\n      swap2\n        /* \"contracts/SycrowBarter.sol\":5913:5921  inAmount */\n      dup9\n      swap1\n        /* \"contracts/SycrowBarter.sol\":5923:5932  outAmount */\n      dup9\n      swap1\n        /* \"contracts/SycrowBarter.sol\":6019:6156  sycrFactory.notifyTradeByBarter(... */\n      0x04\n      add\n      tag_212\n      jump\t// in\n    tag_373:\n      0x00\n      mload(0x40)\n      dup1\n      dup4\n      sub\n      dup2\n      0x00\n      dup8\n      dup1\n      extcodesize\n      iszero\n      dup1\n      iszero\n      tag_374\n      jumpi\n      0x00\n      dup1\n      revert\n    tag_374:\n      pop\n      gas\n      call\n      iszero\n      dup1\n      iszero\n      tag_376\n      jumpi\n      returndatasize\n      0x00\n      dup1\n      returndatacopy\n      revert(0x00, returndatasize)\n    tag_376:\n      pop\n      pop\n      pop\n      pop\n        /* \"contracts/SycrowBarter.sol\":5179:6163  {... */\n      pop\n      pop\n        /* \"contracts/SycrowBarter.sol\":5123:6163  function _tradeTokenForToken(uint256 inAmount) internal {... */\n      pop\n      jump\t// out\n        /* \"contracts/libraries/TransferHelper.sol\":1333:1525  function safeTransferETH(address to, uint value) internal {... */\n    tag_185:\n        /* \"contracts/libraries/TransferHelper.sol\":1440:1452  new bytes(0) */\n      0x40\n      dup1\n      mload\n        /* \"contracts/libraries/TransferHelper.sol\":1402:1414  bool success */\n      0x00\n        /* \"contracts/libraries/TransferHelper.sol\":1440:1452  new bytes(0) */\n      dup1\n      dup3\n      mstore\n      0x20\n      dup3\n      add\n      swap1\n      swap3\n      mstore\n      sub(shl(0xa0, 0x01), 0x01)\n        /* \"contracts/libraries/TransferHelper.sol\":1419:1426  to.call */\n      dup5\n      and\n      swap1\n        /* \"contracts/libraries/TransferHelper.sol\":1433:1438  value */\n      dup4\n      swap1\n        /* \"contracts/libraries/TransferHelper.sol\":1419:1453  to.call{value:value}(new bytes(0)) */\n      mload(0x40)\n      tag_382\n      swap2\n      swap1\n      tag_383\n      jump\t// in\n    tag_382:\n      0x00\n      mload(0x40)\n      dup1\n      dup4\n      sub\n      dup2\n      dup6\n      dup8\n      gas\n      call\n      swap3\n      pop\n      pop\n      pop\n      returndatasize\n      dup1\n      0x00\n      dup2\n      eq\n      tag_386\n      jumpi\n      mload(0x40)\n      swap2\n      pop\n      and(add(returndatasize, 0x3f), not(0x1f))\n      dup3\n      add\n      0x40\n      mstore\n      returndatasize\n      dup3\n      mstore\n      returndatasize\n      0x00\n      0x20\n      dup5\n      add\n      returndatacopy\n      jump(tag_385)\n    tag_386:\n      0x60\n      swap2\n      pop\n    tag_385:\n      pop\n        /* \"contracts/libraries/TransferHelper.sol\":1401:1453  (bool success,) = to.call{value:value}(new bytes(0)) */\n      pop\n      swap1\n      pop\n        /* \"contracts/libraries/TransferHelper.sol\":1471:1478  success */\n      dup1\n        /* \"contracts/libraries/TransferHelper.sol\":1463:1518  require(success, 'TransferHelper: ETH_TRANSFER_FAILED') */\n      tag_130\n      jumpi\n      mload(0x40)\n      shl(0xe5, 0x461bcd)\n      dup2\n      mstore\n        /* \"#utility.yul\":12477:12479   */\n      0x20\n        /* \"contracts/libraries/TransferHelper.sol\":1463:1518  require(success, 'TransferHelper: ETH_TRANSFER_FAILED') */\n      0x04\n      dup3\n      add\n        /* \"#utility.yul\":12459:12480   */\n      mstore\n        /* \"#utility.yul\":12516:12518   */\n      0x23\n        /* \"#utility.yul\":12496:12514   */\n      0x24\n      dup3\n      add\n        /* \"#utility.yul\":12489:12519   */\n      mstore\n        /* \"#utility.yul\":12555:12589   */\n      0x5472616e7366657248656c7065723a204554485f5452414e534645525f464149\n        /* \"#utility.yul\":12535:12553   */\n      0x44\n      dup3\n      add\n        /* \"#utility.yul\":12528:12590   */\n      mstore\n      shl(0xea, 0x131151)\n        /* \"#utility.yul\":12606:12624   */\n      0x64\n      dup3\n      add\n        /* \"#utility.yul\":12599:12632   */\n      mstore\n        /* \"#utility.yul\":12649:12668   */\n      0x84\n      add\n        /* \"contracts/libraries/TransferHelper.sol\":1463:1518  require(success, 'TransferHelper: ETH_TRANSFER_FAILED') */\n      tag_102\n        /* \"#utility.yul\":12275:12674   */\n      jump\n        /* \"contracts/libraries/TransferHelper.sol\":566:923  function safeTransfer(address token, address to, uint value) internal {... */\n    tag_192:\n        /* \"contracts/libraries/TransferHelper.sol\":759:804  abi.encodeWithSelector(0xa9059cbb, to, value) */\n      0x40\n      dup1\n      mload\n      sub(shl(0xa0, 0x01), 0x01)\n        /* \"#utility.yul\":12871:12903   */\n      dup5\n      dup2\n      and\n        /* \"contracts/libraries/TransferHelper.sol\":759:804  abi.encodeWithSelector(0xa9059cbb, to, value) */\n      0x24\n      dup4\n      add\n        /* \"#utility.yul\":12853:12904   */\n      mstore\n        /* \"#utility.yul\":12920:12938   */\n      0x44\n      dup1\n      dup4\n      add\n        /* \"#utility.yul\":12913:12947   */\n      dup6\n      swap1\n      mstore\n        /* \"contracts/libraries/TransferHelper.sol\":759:804  abi.encodeWithSelector(0xa9059cbb, to, value) */\n      dup4\n      mload\n      dup1\n      dup5\n      sub\n      swap1\n      swap2\n      add\n      dup2\n      mstore\n        /* \"#utility.yul\":12826:12844   */\n      0x64\n      swap1\n      swap3\n      add\n        /* \"contracts/libraries/TransferHelper.sol\":759:804  abi.encodeWithSelector(0xa9059cbb, to, value) */\n      dup4\n      mstore\n      0x20\n      dup3\n      add\n      dup1\n      mload\n      sub(shl(0xe0, 0x01), 0x01)\n      and\n      shl(0xe0, 0xa9059cbb)\n      or\n      swap1\n      mstore\n        /* \"contracts/libraries/TransferHelper.sol\":748:805  token.call(abi.encodeWithSelector(0xa9059cbb, to, value)) */\n      swap2\n      mload\n      0x00\n      swap3\n      dup4\n      swap3\n        /* \"contracts/libraries/TransferHelper.sol\":748:758  token.call */\n      swap1\n      dup8\n      and\n      swap2\n        /* \"contracts/libraries/TransferHelper.sol\":748:805  token.call(abi.encodeWithSelector(0xa9059cbb, to, value)) */\n      tag_393\n      swap2\n        /* \"contracts/libraries/TransferHelper.sol\":759:804  abi.encodeWithSelector(0xa9059cbb, to, value) */\n      swap1\n        /* \"contracts/libraries/TransferHelper.sol\":748:805  token.call(abi.encodeWithSelector(0xa9059cbb, to, value)) */\n      tag_383\n      jump\t// in\n    tag_393:\n      0x00\n      mload(0x40)\n      dup1\n      dup4\n      sub\n      dup2\n      0x00\n      dup7\n      gas\n      call\n      swap2\n      pop\n      pop\n      returndatasize\n      dup1\n      0x00\n      dup2\n      eq\n      tag_396\n      jumpi\n      mload(0x40)\n      swap2\n      pop\n      and(add(returndatasize, 0x3f), not(0x1f))\n      dup3\n      add\n      0x40\n      mstore\n      returndatasize\n      dup3\n      mstore\n      returndatasize\n      0x00\n      0x20\n      dup5\n      add\n      returndatacopy\n      jump(tag_395)\n    tag_396:\n      0x60\n      swap2\n      pop\n    tag_395:\n      pop\n        /* \"contracts/libraries/TransferHelper.sol\":712:805  (bool success, bytes memory data) = token.call(abi.encodeWithSelector(0xa9059cbb, to, value)) */\n      swap2\n      pop\n      swap2\n      pop\n        /* \"contracts/libraries/TransferHelper.sol\":823:830  success */\n      dup2\n        /* \"contracts/libraries/TransferHelper.sol\":823:880  success && (data.length == 0 || abi.decode(data, (bool))) */\n      dup1\n      iszero\n      tag_399\n      jumpi\n      pop\n        /* \"contracts/libraries/TransferHelper.sol\":835:846  data.length */\n      dup1\n      mload\n        /* \"contracts/libraries/TransferHelper.sol\":835:851  data.length == 0 */\n      iszero\n      dup1\n        /* \"contracts/libraries/TransferHelper.sol\":835:879  data.length == 0 || abi.decode(data, (bool)) */\n      tag_399\n      jumpi\n      pop\n        /* \"contracts/libraries/TransferHelper.sol\":866:870  data */\n      dup1\n        /* \"contracts/libraries/TransferHelper.sol\":855:879  abi.decode(data, (bool)) */\n      dup1\n      0x20\n      add\n      swap1\n      mload\n      dup2\n      add\n      swap1\n      tag_399\n      swap2\n      swap1\n      tag_112\n      jump\t// in\n    tag_399:\n        /* \"contracts/libraries/TransferHelper.sol\":815:916  require(success && (data.length == 0 || abi.decode(data, (bool))), 'TransferHelper: TRANSFER_FAILED') */\n      tag_400\n      jumpi\n      mload(0x40)\n      shl(0xe5, 0x461bcd)\n      dup2\n      mstore\n        /* \"#utility.yul\":13160:13162   */\n      0x20\n        /* \"contracts/libraries/TransferHelper.sol\":815:916  require(success && (data.length == 0 || abi.decode(data, (bool))), 'TransferHelper: TRANSFER_FAILED') */\n      0x04\n      dup3\n      add\n        /* \"#utility.yul\":13142:13163   */\n      mstore\n        /* \"#utility.yul\":13199:13201   */\n      0x1f\n        /* \"#utility.yul\":13179:13197   */\n      0x24\n      dup3\n      add\n        /* \"#utility.yul\":13172:13202   */\n      mstore\n        /* \"#utility.yul\":13238:13271   */\n      0x5472616e7366657248656c7065723a205452414e534645525f4641494c454400\n        /* \"#utility.yul\":13218:13236   */\n      0x44\n      dup3\n      add\n        /* \"#utility.yul\":13211:13272   */\n      mstore\n        /* \"#utility.yul\":13289:13307   */\n      0x64\n      add\n        /* \"contracts/libraries/TransferHelper.sol\":815:916  require(success && (data.length == 0 || abi.decode(data, (bool))), 'TransferHelper: TRANSFER_FAILED') */\n      tag_102\n        /* \"#utility.yul\":12958:13313   */\n      jump\n        /* \"contracts/libraries/TransferHelper.sol\":815:916  require(success && (data.length == 0 || abi.decode(data, (bool))), 'TransferHelper: TRANSFER_FAILED') */\n    tag_400:\n        /* \"contracts/libraries/TransferHelper.sol\":636:923  {... */\n      pop\n      pop\n        /* \"contracts/libraries/TransferHelper.sol\":566:923  function safeTransfer(address token, address to, uint value) internal {... */\n      pop\n      pop\n      pop\n      jump\t// out\n        /* \"contracts/SycrowBarter.sol\":7195:8050  function _tradeEthForToken(uint256 inAmount) internal {... */\n    tag_245:\n        /* \"contracts/SycrowBarter.sol\":7279:7288  msg.value */\n      callvalue\n        /* \"contracts/SycrowBarter.sol\":7267:7275  inAmount */\n      dup2\n        /* \"contracts/SycrowBarter.sol\":7267:7288  inAmount == msg.value */\n      eq\n        /* \"contracts/SycrowBarter.sol\":7259:7330  require(inAmount == msg.value, \"SyCrowBarter: MULTI_TRADE_NOT_ENABLED\") */\n      tag_404\n      jumpi\n      mload(0x40)\n      shl(0xe5, 0x461bcd)\n      dup2\n      mstore\n        /* \"#utility.yul\":13520:13522   */\n      0x20\n        /* \"contracts/SycrowBarter.sol\":7259:7330  require(inAmount == msg.value, \"SyCrowBarter: MULTI_TRADE_NOT_ENABLED\") */\n      0x04\n      dup3\n      add\n        /* \"#utility.yul\":13502:13523   */\n      mstore\n        /* \"#utility.yul\":13559:13561   */\n      0x25\n        /* \"#utility.yul\":13539:13557   */\n      0x24\n      dup3\n      add\n        /* \"#utility.yul\":13532:13562   */\n      mstore\n        /* \"#utility.yul\":13598:13632   */\n      0x537943726f774261727465723a204d554c54495f54524144455f4e4f545f454e\n        /* \"#utility.yul\":13578:13596   */\n      0x44\n      dup3\n      add\n        /* \"#utility.yul\":13571:13633   */\n      mstore\n      shl(0xda, 0x1050931151)\n        /* \"#utility.yul\":13649:13667   */\n      0x64\n      dup3\n      add\n        /* \"#utility.yul\":13642:13677   */\n      mstore\n        /* \"#utility.yul\":13694:13713   */\n      0x84\n      add\n        /* \"contracts/SycrowBarter.sol\":7259:7330  require(inAmount == msg.value, \"SyCrowBarter: MULTI_TRADE_NOT_ENABLED\") */\n      tag_102\n        /* \"#utility.yul\":13318:13719   */\n      jump\n        /* \"contracts/SycrowBarter.sol\":7259:7330  require(inAmount == msg.value, \"SyCrowBarter: MULTI_TRADE_NOT_ENABLED\") */\n    tag_404:\n        /* \"contracts/SycrowBarter.sol\":7341:7358  uint256 outAmount */\n      0x00\n        /* \"contracts/SycrowBarter.sol\":7361:7388  getTradeOutAmount(inAmount) */\n      tag_407\n        /* \"contracts/SycrowBarter.sol\":7379:7387  inAmount */\n      dup3\n        /* \"contracts/SycrowBarter.sol\":7361:7378  getTradeOutAmount */\n      tag_87\n        /* \"contracts/SycrowBarter.sol\":7361:7388  getTradeOutAmount(inAmount) */\n      jump\t// in\n    tag_407:\n        /* \"contracts/SycrowBarter.sol\":7427:7449  _depositedTokenAddress */\n      0x04\n      dup1\n      sload\n        /* \"contracts/SycrowBarter.sol\":7420:7475  IERC20(_depositedTokenAddress).balanceOf(address(this)) */\n      mload(0x40)\n      shl(0xe0, 0x70a08231)\n      dup2\n      mstore\n        /* \"contracts/SycrowBarter.sol\":7469:7473  this */\n      address\n        /* \"contracts/SycrowBarter.sol\":7420:7475  IERC20(_depositedTokenAddress).balanceOf(address(this)) */\n      swap3\n      dup2\n      add\n        /* \"#utility.yul\":2609:2660   */\n      swap3\n      swap1\n      swap3\n      mstore\n        /* \"contracts/SycrowBarter.sol\":7341:7388  uint256 outAmount = getTradeOutAmount(inAmount) */\n      swap2\n      swap3\n      pop\n      dup3\n      swap2\n      sub(shl(0xa0, 0x01), 0x01)\n        /* \"contracts/SycrowBarter.sol\":7427:7449  _depositedTokenAddress */\n      and\n      swap1\n        /* \"contracts/SycrowBarter.sol\":7420:7460  IERC20(_depositedTokenAddress).balanceOf */\n      0x70a08231\n      swap1\n        /* \"#utility.yul\":2582:2600   */\n      0x24\n      add\n        /* \"contracts/SycrowBarter.sol\":7420:7475  IERC20(_depositedTokenAddress).balanceOf(address(this)) */\n      0x20\n      mload(0x40)\n      dup1\n      dup4\n      sub\n      dup2\n      dup7\n      gas\n      staticcall\n      iszero\n      dup1\n      iszero\n      tag_410\n      jumpi\n      returndatasize\n      0x00\n      dup1\n      returndatacopy\n      revert(0x00, returndatasize)\n    tag_410:\n      pop\n      pop\n      pop\n      pop\n      mload(0x40)\n      returndatasize\n      not(0x1f)\n      0x1f\n      dup3\n      add\n      and\n      dup3\n      add\n      dup1\n      0x40\n      mstore\n      pop\n      dup2\n      add\n      swap1\n      tag_411\n      swap2\n      swap1\n      tag_178\n      jump\t// in\n    tag_411:\n        /* \"contracts/SycrowBarter.sol\":7420:7504  IERC20(_depositedTokenAddress).balanceOf(address(this)) >=... */\n      lt\n      iszero\n        /* \"contracts/SycrowBarter.sol\":7399:7573  require(... */\n      tag_412\n      jumpi\n      mload(0x40)\n      shl(0xe5, 0x461bcd)\n      dup2\n      mstore\n      0x04\n      add\n      tag_102\n      swap1\n      tag_343\n      jump\t// in\n    tag_412:\n        /* \"contracts/SycrowBarter.sol\":7590:7594  WETH */\n      0x03\n      0x01\n      swap1\n      sload\n      swap1\n      0x0100\n      exp\n      swap1\n      div\n      sub(shl(0xa0, 0x01), 0x01)\n      and\n      sub(shl(0xa0, 0x01), 0x01)\n        /* \"contracts/SycrowBarter.sol\":7584:7603  IWETH(WETH).deposit */\n      and\n      0xd0e30db0\n        /* \"contracts/SycrowBarter.sol\":7611:7619  inAmount */\n      dup4\n        /* \"contracts/SycrowBarter.sol\":7584:7622  IWETH(WETH).deposit{value: inAmount}() */\n      mload(0x40)\n      dup3\n      0xffffffff\n      and\n      0xe0\n      shl\n      dup2\n      mstore\n      0x04\n      add\n      0x00\n      mload(0x40)\n      dup1\n      dup4\n      sub\n      dup2\n      dup6\n      dup9\n      dup1\n      extcodesize\n      iszero\n      dup1\n      iszero\n      tag_414\n      jumpi\n      0x00\n      dup1\n      revert\n    tag_414:\n      pop\n      gas\n      call\n      iszero\n      dup1\n      iszero\n      tag_416\n      jumpi\n      returndatasize\n      0x00\n      dup1\n      returndatacopy\n      revert(0x00, returndatasize)\n    tag_416:\n      pop\n      pop\n        /* \"contracts/SycrowBarter.sol\":7674:7696  _depositedTokenAddress */\n      sload(0x04)\n        /* \"contracts/SycrowBarter.sol\":7633:7753  TransferHelper.safeTransfer(... */\n      tag_371\n      swap4\n      pop\n      sub(shl(0xa0, 0x01), 0x01)\n        /* \"contracts/SycrowBarter.sol\":7674:7696  _depositedTokenAddress */\n      and\n      swap2\n      pop\n        /* \"contracts/SycrowBarter.sol\":7710:7720  msg.sender */\n      caller\n      swap1\n      pop\n        /* \"contracts/SycrowBarter.sol\":7734:7743  outAmount */\n      dup4\n        /* \"contracts/SycrowBarter.sol\":7633:7660  TransferHelper.safeTransfer */\n      tag_192\n        /* \"contracts/SycrowBarter.sol\":7633:7753  TransferHelper.safeTransfer(... */\n      jump\t// in\n        /* \"@openzeppelin/contracts/access/Ownable.sol\":2270:2457  function _transferOwnership(address newOwner) internal virtual {... */\n    tag_272:\n        /* \"@openzeppelin/contracts/access/Ownable.sol\":2343:2359  address oldOwner */\n      0x00\n        /* \"@openzeppelin/contracts/access/Ownable.sol\":2362:2368  _owner */\n      dup1\n      sload\n      sub(shl(0xa0, 0x01), 0x01)\n        /* \"@openzeppelin/contracts/access/Ownable.sol\":2378:2395  _owner = newOwner */\n      dup4\n      dup2\n      and\n      not(sub(shl(0xa0, 0x01), 0x01))\n      dup4\n      and\n      dup2\n      or\n      dup5\n      sstore\n        /* \"@openzeppelin/contracts/access/Ownable.sol\":2410:2450  OwnershipTransferred(oldOwner, newOwner) */\n      mload(0x40)\n        /* \"@openzeppelin/contracts/access/Ownable.sol\":2362:2368  _owner */\n      swap2\n      swap1\n      swap3\n      and\n      swap3\n      dup4\n      swap2\n        /* \"@openzeppelin/contracts/access/Ownable.sol\":2410:2450  OwnershipTransferred(oldOwner, newOwner) */\n      0x8be0079c531659141344cd1fd0a4f28419497f9722a3daafe3b4186f6b6457e0\n      swap2\n        /* \"@openzeppelin/contracts/access/Ownable.sol\":2343:2359  address oldOwner */\n      swap1\n        /* \"@openzeppelin/contracts/access/Ownable.sol\":2410:2450  OwnershipTransferred(oldOwner, newOwner) */\n      log3\n        /* \"@openzeppelin/contracts/access/Ownable.sol\":2333:2457  {... */\n      pop\n        /* \"@openzeppelin/contracts/access/Ownable.sol\":2270:2457  function _transferOwnership(address newOwner) internal virtual {... */\n      pop\n      jump\t// out\n        /* \"contracts/libraries/TransferHelper.sol\":929:1327  function safeTransferFrom(address token, address from, address to, uint value) internal {... */\n    tag_349:\n        /* \"contracts/libraries/TransferHelper.sol\":1152:1203  abi.encodeWithSelector(0x23b872dd, from, to, value) */\n      0x40\n      dup1\n      mload\n      sub(shl(0xa0, 0x01), 0x01)\n        /* \"#utility.yul\":13982:13997   */\n      dup6\n      dup2\n      and\n        /* \"contracts/libraries/TransferHelper.sol\":1152:1203  abi.encodeWithSelector(0x23b872dd, from, to, value) */\n      0x24\n      dup4\n      add\n        /* \"#utility.yul\":13964:13998   */\n      mstore\n        /* \"#utility.yul\":14034:14049   */\n      dup5\n      dup2\n      and\n        /* \"#utility.yul\":14014:14032   */\n      0x44\n      dup4\n      add\n        /* \"#utility.yul\":14007:14050   */\n      mstore\n        /* \"#utility.yul\":14066:14084   */\n      0x64\n      dup1\n      dup4\n      add\n        /* \"#utility.yul\":14059:14093   */\n      dup6\n      swap1\n      mstore\n        /* \"contracts/libraries/TransferHelper.sol\":1152:1203  abi.encodeWithSelector(0x23b872dd, from, to, value) */\n      dup4\n      mload\n      dup1\n      dup5\n      sub\n      swap1\n      swap2\n      add\n      dup2\n      mstore\n        /* \"#utility.yul\":13899:13917   */\n      0x84\n      swap1\n      swap3\n      add\n        /* \"contracts/libraries/TransferHelper.sol\":1152:1203  abi.encodeWithSelector(0x23b872dd, from, to, value) */\n      dup4\n      mstore\n      0x20\n      dup3\n      add\n      dup1\n      mload\n      sub(shl(0xe0, 0x01), 0x01)\n      and\n      shl(0xe0, 0x23b872dd)\n      or\n      swap1\n      mstore\n        /* \"contracts/libraries/TransferHelper.sol\":1141:1204  token.call(abi.encodeWithSelector(0x23b872dd, from, to, value)) */\n      swap2\n      mload\n      0x00\n      swap3\n      dup4\n      swap3\n        /* \"contracts/libraries/TransferHelper.sol\":1141:1151  token.call */\n      swap1\n      dup9\n      and\n      swap2\n        /* \"contracts/libraries/TransferHelper.sol\":1141:1204  token.call(abi.encodeWithSelector(0x23b872dd, from, to, value)) */\n      tag_427\n      swap2\n        /* \"contracts/libraries/TransferHelper.sol\":1152:1203  abi.encodeWithSelector(0x23b872dd, from, to, value) */\n      swap1\n        /* \"contracts/libraries/TransferHelper.sol\":1141:1204  token.call(abi.encodeWithSelector(0x23b872dd, from, to, value)) */\n      tag_383\n      jump\t// in\n    tag_427:\n      0x00\n      mload(0x40)\n      dup1\n      dup4\n      sub\n      dup2\n      0x00\n      dup7\n      gas\n      call\n      swap2\n      pop\n      pop\n      returndatasize\n      dup1\n      0x00\n      dup2\n      eq\n      tag_430\n      jumpi\n      mload(0x40)\n      swap2\n      pop\n      and(add(returndatasize, 0x3f), not(0x1f))\n      dup3\n      add\n      0x40\n      mstore\n      returndatasize\n      dup3\n      mstore\n      returndatasize\n      0x00\n      0x20\n      dup5\n      add\n      returndatacopy\n      jump(tag_429)\n    tag_430:\n      0x60\n      swap2\n      pop\n    tag_429:\n      pop\n        /* \"contracts/libraries/TransferHelper.sol\":1105:1204  (bool success, bytes memory data) = token.call(abi.encodeWithSelector(0x23b872dd, from, to, value)) */\n      swap2\n      pop\n      swap2\n      pop\n        /* \"contracts/libraries/TransferHelper.sol\":1222:1229  success */\n      dup2\n        /* \"contracts/libraries/TransferHelper.sol\":1222:1279  success && (data.length == 0 || abi.decode(data, (bool))) */\n      dup1\n      iszero\n      tag_433\n      jumpi\n      pop\n        /* \"contracts/libraries/TransferHelper.sol\":1234:1245  data.length */\n      dup1\n      mload\n        /* \"contracts/libraries/TransferHelper.sol\":1234:1250  data.length == 0 */\n      iszero\n      dup1\n        /* \"contracts/libraries/TransferHelper.sol\":1234:1278  data.length == 0 || abi.decode(data, (bool)) */\n      tag_433\n      jumpi\n      pop\n        /* \"contracts/libraries/TransferHelper.sol\":1265:1269  data */\n      dup1\n        /* \"contracts/libraries/TransferHelper.sol\":1254:1278  abi.decode(data, (bool)) */\n      dup1\n      0x20\n      add\n      swap1\n      mload\n      dup2\n      add\n      swap1\n      tag_433\n      swap2\n      swap1\n      tag_112\n      jump\t// in\n    tag_433:\n        /* \"contracts/libraries/TransferHelper.sol\":1214:1320  require(success && (data.length == 0 || abi.decode(data, (bool))), 'TransferHelper: TRANSFER_FROM_FAILED') */\n      tag_434\n      jumpi\n      mload(0x40)\n      shl(0xe5, 0x461bcd)\n      dup2\n      mstore\n        /* \"#utility.yul\":14306:14308   */\n      0x20\n        /* \"contracts/libraries/TransferHelper.sol\":1214:1320  require(success && (data.length == 0 || abi.decode(data, (bool))), 'TransferHelper: TRANSFER_FROM_FAILED') */\n      0x04\n      dup3\n      add\n        /* \"#utility.yul\":14288:14309   */\n      mstore\n        /* \"#utility.yul\":14345:14347   */\n      0x24\n        /* \"#utility.yul\":14325:14343   */\n      dup1\n      dup3\n      add\n        /* \"#utility.yul\":14318:14348   */\n      mstore\n        /* \"#utility.yul\":14384:14418   */\n      0x5472616e7366657248656c7065723a205452414e534645525f46524f4d5f4641\n        /* \"#utility.yul\":14364:14382   */\n      0x44\n      dup3\n      add\n        /* \"#utility.yul\":14357:14419   */\n      mstore\n      shl(0xe2, 0x12531151)\n        /* \"#utility.yul\":14435:14453   */\n      0x64\n      dup3\n      add\n        /* \"#utility.yul\":14428:14462   */\n      mstore\n        /* \"#utility.yul\":14479:14498   */\n      0x84\n      add\n        /* \"contracts/libraries/TransferHelper.sol\":1214:1320  require(success && (data.length == 0 || abi.decode(data, (bool))), 'TransferHelper: TRANSFER_FROM_FAILED') */\n      tag_102\n        /* \"#utility.yul\":14104:14504   */\n      jump\n        /* \"contracts/libraries/TransferHelper.sol\":1214:1320  require(success && (data.length == 0 || abi.decode(data, (bool))), 'TransferHelper: TRANSFER_FROM_FAILED') */\n    tag_434:\n        /* \"contracts/libraries/TransferHelper.sol\":1017:1327  {... */\n      pop\n      pop\n        /* \"contracts/libraries/TransferHelper.sol\":929:1327  function safeTransferFrom(address token, address from, address to, uint value) internal {... */\n      pop\n      pop\n      pop\n      pop\n      jump\t// out\n        /* \"#utility.yul\":14:194   */\n    tag_25:\n        /* \"#utility.yul\":73:79   */\n      0x00\n        /* \"#utility.yul\":126:128   */\n      0x20\n        /* \"#utility.yul\":114:123   */\n      dup3\n        /* \"#utility.yul\":105:112   */\n      dup5\n        /* \"#utility.yul\":101:124   */\n      sub\n        /* \"#utility.yul\":97:129   */\n      slt\n        /* \"#utility.yul\":94:146   */\n      iszero\n      tag_443\n      jumpi\n        /* \"#utility.yul\":142:143   */\n      0x00\n        /* \"#utility.yul\":139:140   */\n      dup1\n        /* \"#utility.yul\":132:144   */\n      revert\n        /* \"#utility.yul\":94:146   */\n    tag_443:\n      pop\n        /* \"#utility.yul\":165:188   */\n      calldataload\n      swap2\n        /* \"#utility.yul\":14:194   */\n      swap1\n      pop\n      jump\t// out\n        /* \"#utility.yul\":826:999   */\n    tag_437:\n        /* \"#utility.yul\":894:914   */\n      dup1\n      calldataload\n      sub(shl(0xa0, 0x01), 0x01)\n        /* \"#utility.yul\":943:974   */\n      dup2\n      and\n        /* \"#utility.yul\":933:975   */\n      dup2\n      eq\n        /* \"#utility.yul\":923:993   */\n      tag_448\n      jumpi\n        /* \"#utility.yul\":989:990   */\n      0x00\n        /* \"#utility.yul\":986:987   */\n      dup1\n        /* \"#utility.yul\":979:991   */\n      revert\n        /* \"#utility.yul\":923:993   */\n    tag_448:\n        /* \"#utility.yul\":826:999   */\n      swap2\n      swap1\n      pop\n      jump\t// out\n        /* \"#utility.yul\":1004:1122   */\n    tag_438:\n        /* \"#utility.yul\":1090:1095   */\n      dup1\n        /* \"#utility.yul\":1083:1096   */\n      iszero\n        /* \"#utility.yul\":1076:1097   */\n      iszero\n        /* \"#utility.yul\":1069:1074   */\n      dup2\n        /* \"#utility.yul\":1066:1098   */\n      eq\n        /* \"#utility.yul\":1056:1116   */\n      tag_327\n      jumpi\n        /* \"#utility.yul\":1112:1113   */\n      0x00\n        /* \"#utility.yul\":1109:1110   */\n      dup1\n        /* \"#utility.yul\":1102:1114   */\n      revert\n        /* \"#utility.yul\":1127:1971   */\n    tag_59:\n        /* \"#utility.yul\":1268:1274   */\n      0x00\n        /* \"#utility.yul\":1276:1282   */\n      dup1\n        /* \"#utility.yul\":1284:1290   */\n      0x00\n        /* \"#utility.yul\":1292:1298   */\n      dup1\n        /* \"#utility.yul\":1300:1306   */\n      0x00\n        /* \"#utility.yul\":1308:1314   */\n      dup1\n        /* \"#utility.yul\":1316:1322   */\n      0x00\n        /* \"#utility.yul\":1324:1330   */\n      dup1\n        /* \"#utility.yul\":1377:1380   */\n      0x0100\n        /* \"#utility.yul\":1365:1374   */\n      dup10\n        /* \"#utility.yul\":1356:1363   */\n      dup12\n        /* \"#utility.yul\":1352:1375   */\n      sub\n        /* \"#utility.yul\":1348:1381   */\n      slt\n        /* \"#utility.yul\":1345:1398   */\n      iszero\n      tag_452\n      jumpi\n        /* \"#utility.yul\":1394:1395   */\n      0x00\n        /* \"#utility.yul\":1391:1392   */\n      dup1\n        /* \"#utility.yul\":1384:1396   */\n      revert\n        /* \"#utility.yul\":1345:1398   */\n    tag_452:\n        /* \"#utility.yul\":1433:1442   */\n      dup9\n        /* \"#utility.yul\":1420:1443   */\n      calldataload\n        /* \"#utility.yul\":1472:1473   */\n      0x03\n        /* \"#utility.yul\":1465:1470   */\n      dup2\n        /* \"#utility.yul\":1462:1474   */\n      lt\n        /* \"#utility.yul\":1452:1492   */\n      tag_453\n      jumpi\n        /* \"#utility.yul\":1488:1489   */\n      0x00\n        /* \"#utility.yul\":1485:1486   */\n      dup1\n        /* \"#utility.yul\":1478:1490   */\n      revert\n        /* \"#utility.yul\":1452:1492   */\n    tag_453:\n        /* \"#utility.yul\":1511:1516   */\n      swap8\n      pop\n        /* \"#utility.yul\":1535:1573   */\n      tag_454\n        /* \"#utility.yul\":1569:1571   */\n      0x20\n        /* \"#utility.yul\":1554:1572   */\n      dup11\n      add\n        /* \"#utility.yul\":1535:1573   */\n      tag_437\n      jump\t// in\n    tag_454:\n        /* \"#utility.yul\":1525:1573   */\n      swap7\n      pop\n        /* \"#utility.yul\":1592:1630   */\n      tag_455\n        /* \"#utility.yul\":1626:1628   */\n      0x40\n        /* \"#utility.yul\":1615:1624   */\n      dup11\n        /* \"#utility.yul\":1611:1629   */\n      add\n        /* \"#utility.yul\":1592:1630   */\n      tag_437\n      jump\t// in\n    tag_455:\n        /* \"#utility.yul\":1582:1630   */\n      swap6\n      pop\n        /* \"#utility.yul\":1677:1679   */\n      0x60\n        /* \"#utility.yul\":1666:1675   */\n      dup10\n        /* \"#utility.yul\":1662:1680   */\n      add\n        /* \"#utility.yul\":1649:1681   */\n      calldataload\n        /* \"#utility.yul\":1639:1681   */\n      swap5\n      pop\n        /* \"#utility.yul\":1728:1731   */\n      0x80\n        /* \"#utility.yul\":1717:1726   */\n      dup10\n        /* \"#utility.yul\":1713:1732   */\n      add\n        /* \"#utility.yul\":1700:1733   */\n      calldataload\n        /* \"#utility.yul\":1690:1733   */\n      swap4\n      pop\n        /* \"#utility.yul\":1780:1783   */\n      0xa0\n        /* \"#utility.yul\":1769:1778   */\n      dup10\n        /* \"#utility.yul\":1765:1784   */\n      add\n        /* \"#utility.yul\":1752:1785   */\n      calldataload\n        /* \"#utility.yul\":1742:1785   */\n      swap3\n      pop\n        /* \"#utility.yul\":1837:1840   */\n      0xc0\n        /* \"#utility.yul\":1826:1835   */\n      dup10\n        /* \"#utility.yul\":1822:1841   */\n      add\n        /* \"#utility.yul\":1809:1842   */\n      calldataload\n        /* \"#utility.yul\":1851:1881   */\n      tag_456\n        /* \"#utility.yul\":1873:1880   */\n      dup2\n        /* \"#utility.yul\":1851:1881   */\n      tag_438\n      jump\t// in\n    tag_456:\n        /* \"#utility.yul\":1900:1907   */\n      swap2\n      pop\n        /* \"#utility.yul\":1926:1965   */\n      tag_457\n        /* \"#utility.yul\":1960:1963   */\n      0xe0\n        /* \"#utility.yul\":1945:1964   */\n      dup11\n      add\n        /* \"#utility.yul\":1926:1965   */\n      tag_437\n      jump\t// in\n    tag_457:\n        /* \"#utility.yul\":1916:1965   */\n      swap1\n      pop\n        /* \"#utility.yul\":1127:1971   */\n      swap3\n      swap6\n      swap9\n      pop\n      swap3\n      swap6\n      swap9\n      swap1\n      swap4\n      swap7\n      pop\n      jump\t// out\n        /* \"#utility.yul\":1976:2103   */\n    tag_119:\n        /* \"#utility.yul\":2037:2047   */\n      0x4e487b71\n        /* \"#utility.yul\":2032:2035   */\n      0xe0\n        /* \"#utility.yul\":2028:2048   */\n      shl\n        /* \"#utility.yul\":2025:2026   */\n      0x00\n        /* \"#utility.yul\":2018:2049   */\n      mstore\n        /* \"#utility.yul\":2068:2072   */\n      0x21\n        /* \"#utility.yul\":2065:2066   */\n      0x04\n        /* \"#utility.yul\":2058:2073   */\n      mstore\n        /* \"#utility.yul\":2092:2096   */\n      0x24\n        /* \"#utility.yul\":2089:2090   */\n      0x00\n        /* \"#utility.yul\":2082:2097   */\n      revert\n        /* \"#utility.yul\":2108:2458   */\n    tag_69:\n        /* \"#utility.yul\":2262:2264   */\n      0x20\n        /* \"#utility.yul\":2247:2265   */\n      dup2\n      add\n        /* \"#utility.yul\":2295:2296   */\n      0x03\n        /* \"#utility.yul\":2284:2297   */\n      dup4\n      lt\n        /* \"#utility.yul\":2274:2418   */\n      tag_460\n      jumpi\n        /* \"#utility.yul\":2340:2350   */\n      0x4e487b71\n        /* \"#utility.yul\":2335:2338   */\n      0xe0\n        /* \"#utility.yul\":2331:2351   */\n      shl\n        /* \"#utility.yul\":2328:2329   */\n      0x00\n        /* \"#utility.yul\":2321:2352   */\n      mstore\n        /* \"#utility.yul\":2375:2379   */\n      0x21\n        /* \"#utility.yul\":2372:2373   */\n      0x04\n        /* \"#utility.yul\":2365:2380   */\n      mstore\n        /* \"#utility.yul\":2403:2407   */\n      0x24\n        /* \"#utility.yul\":2400:2401   */\n      0x00\n        /* \"#utility.yul\":2393:2408   */\n      revert\n        /* \"#utility.yul\":2274:2418   */\n    tag_460:\n        /* \"#utility.yul\":2427:2452   */\n      swap2\n      swap1\n      mstore\n        /* \"#utility.yul\":2108:2458   */\n      swap1\n      jump\t// out\n        /* \"#utility.yul\":2980:3415   */\n    tag_439:\n        /* \"#utility.yul\":3033:3036   */\n      0x00\n        /* \"#utility.yul\":3071:3076   */\n      dup2\n        /* \"#utility.yul\":3065:3077   */\n      mload\n        /* \"#utility.yul\":3098:3104   */\n      dup1\n        /* \"#utility.yul\":3093:3096   */\n      dup5\n        /* \"#utility.yul\":3086:3105   */\n      mstore\n        /* \"#utility.yul\":3124:3128   */\n      0x20\n        /* \"#utility.yul\":3153:3155   */\n      dup1\n        /* \"#utility.yul\":3148:3151   */\n      dup6\n        /* \"#utility.yul\":3144:3156   */\n      add\n        /* \"#utility.yul\":3137:3156   */\n      swap5\n      pop\n        /* \"#utility.yul\":3190:3192   */\n      dup1\n        /* \"#utility.yul\":3183:3188   */\n      dup5\n        /* \"#utility.yul\":3179:3193   */\n      add\n        /* \"#utility.yul\":3211:3212   */\n      0x00\n        /* \"#utility.yul\":3221:3390   */\n    tag_464:\n        /* \"#utility.yul\":3235:3241   */\n      dup4\n        /* \"#utility.yul\":3232:3233   */\n      dup2\n        /* \"#utility.yul\":3229:3242   */\n      lt\n        /* \"#utility.yul\":3221:3390   */\n      iszero\n      tag_466\n      jumpi\n        /* \"#utility.yul\":3296:3309   */\n      dup2\n      mload\n        /* \"#utility.yul\":3284:3310   */\n      dup8\n      mstore\n        /* \"#utility.yul\":3330:3342   */\n      swap6\n      dup3\n      add\n      swap6\n        /* \"#utility.yul\":3365:3380   */\n      swap1\n      dup3\n      add\n      swap1\n        /* \"#utility.yul\":3257:3258   */\n      0x01\n        /* \"#utility.yul\":3250:3259   */\n      add\n        /* \"#utility.yul\":3221:3390   */\n      jump(tag_464)\n    tag_466:\n      pop\n        /* \"#utility.yul\":3406:3409   */\n      swap5\n      swap6\n        /* \"#utility.yul\":2980:3415   */\n      swap5\n      pop\n      pop\n      pop\n      pop\n      pop\n      jump\t// out\n        /* \"#utility.yul\":3420:4457   */\n    tag_93:\n        /* \"#utility.yul\":3766:3768   */\n      0x60\n        /* \"#utility.yul\":3778:3799   */\n      dup1\n      dup3\n      mstore\n        /* \"#utility.yul\":3848:3861   */\n      dup5\n      mload\n        /* \"#utility.yul\":3751:3769   */\n      swap1\n      dup3\n      add\n        /* \"#utility.yul\":3870:3892   */\n      dup2\n      swap1\n      mstore\n        /* \"#utility.yul\":3718:3722   */\n      0x00\n      swap1\n        /* \"#utility.yul\":3946:3950   */\n      0x20\n      swap1\n        /* \"#utility.yul\":3923:3926   */\n      0x80\n        /* \"#utility.yul\":3908:3927   */\n      dup5\n      add\n      swap1\n        /* \"#utility.yul\":3973:3988   */\n      dup3\n      dup9\n      add\n        /* \"#utility.yul\":3718:3722   */\n      dup5\n        /* \"#utility.yul\":4016:4211   */\n    tag_468:\n        /* \"#utility.yul\":4030:4036   */\n      dup3\n        /* \"#utility.yul\":4027:4028   */\n      dup2\n        /* \"#utility.yul\":4024:4037   */\n      lt\n        /* \"#utility.yul\":4016:4211   */\n      iszero\n      tag_470\n      jumpi\n        /* \"#utility.yul\":4095:4108   */\n      dup2\n      mload\n      sub(shl(0xa0, 0x01), 0x01)\n        /* \"#utility.yul\":4091:4130   */\n      and\n        /* \"#utility.yul\":4079:4131   */\n      dup5\n      mstore\n        /* \"#utility.yul\":4151:4163   */\n      swap3\n      dup5\n      add\n      swap3\n        /* \"#utility.yul\":4186:4201   */\n      swap1\n      dup5\n      add\n      swap1\n        /* \"#utility.yul\":4127:4128   */\n      0x01\n        /* \"#utility.yul\":4045:4054   */\n      add\n        /* \"#utility.yul\":4016:4211   */\n      jump(tag_468)\n    tag_470:\n        /* \"#utility.yul\":4020:4023   */\n      pop\n      pop\n      pop\n        /* \"#utility.yul\":4256:4265   */\n      dup4\n        /* \"#utility.yul\":4251:4254   */\n      dup2\n        /* \"#utility.yul\":4247:4266   */\n      sub\n        /* \"#utility.yul\":4242:4244   */\n      dup3\n        /* \"#utility.yul\":4231:4240   */\n      dup6\n        /* \"#utility.yul\":4227:4245   */\n      add\n        /* \"#utility.yul\":4220:4267   */\n      mstore\n        /* \"#utility.yul\":4290:4331   */\n      tag_471\n        /* \"#utility.yul\":4327:4330   */\n      dup2\n        /* \"#utility.yul\":4319:4325   */\n      dup8\n        /* \"#utility.yul\":4290:4331   */\n      tag_439\n      jump\t// in\n    tag_471:\n        /* \"#utility.yul\":4276:4331   */\n      swap2\n      pop\n      pop\n        /* \"#utility.yul\":4379:4388   */\n      dup3\n        /* \"#utility.yul\":4371:4377   */\n      dup2\n        /* \"#utility.yul\":4367:4389   */\n      sub\n        /* \"#utility.yul\":4362:4364   */\n      0x40\n        /* \"#utility.yul\":4351:4360   */\n      dup5\n        /* \"#utility.yul\":4347:4365   */\n      add\n        /* \"#utility.yul\":4340:4390   */\n      mstore\n        /* \"#utility.yul\":4407:4451   */\n      tag_472\n        /* \"#utility.yul\":4444:4450   */\n      dup2\n        /* \"#utility.yul\":4436:4442   */\n      dup6\n        /* \"#utility.yul\":4407:4451   */\n      tag_439\n      jump\t// in\n    tag_472:\n        /* \"#utility.yul\":4399:4451   */\n      swap7\n        /* \"#utility.yul\":3420:4457   */\n      swap6\n      pop\n      pop\n      pop\n      pop\n      pop\n      pop\n      jump\t// out\n        /* \"#utility.yul\":4462:4648   */\n    tag_97:\n        /* \"#utility.yul\":4521:4527   */\n      0x00\n        /* \"#utility.yul\":4574:4576   */\n      0x20\n        /* \"#utility.yul\":4562:4571   */\n      dup3\n        /* \"#utility.yul\":4553:4560   */\n      dup5\n        /* \"#utility.yul\":4549:4572   */\n      sub\n        /* \"#utility.yul\":4545:4577   */\n      slt\n        /* \"#utility.yul\":4542:4594   */\n      iszero\n      tag_474\n      jumpi\n        /* \"#utility.yul\":4590:4591   */\n      0x00\n        /* \"#utility.yul\":4587:4588   */\n      dup1\n        /* \"#utility.yul\":4580:4592   */\n      revert\n        /* \"#utility.yul\":4542:4594   */\n    tag_474:\n        /* \"#utility.yul\":4613:4642   */\n      tag_475\n        /* \"#utility.yul\":4632:4641   */\n      dup3\n        /* \"#utility.yul\":4613:4642   */\n      tag_437\n      jump\t// in\n    tag_475:\n        /* \"#utility.yul\":4603:4642   */\n      swap4\n        /* \"#utility.yul\":4462:4648   */\n      swap3\n      pop\n      pop\n      pop\n      jump\t// out\n        /* \"#utility.yul\":4653:4999   */\n    tag_103:\n        /* \"#utility.yul\":4855:4857   */\n      0x20\n        /* \"#utility.yul\":4837:4858   */\n      dup1\n      dup3\n      mstore\n        /* \"#utility.yul\":4894:4896   */\n      0x16\n        /* \"#utility.yul\":4874:4892   */\n      swap1\n      dup3\n      add\n        /* \"#utility.yul\":4867:4897   */\n      mstore\n      shl(0x50, 0x537943726f774261727465723a20494e414354495645)\n        /* \"#utility.yul\":4928:4930   */\n      0x40\n        /* \"#utility.yul\":4913:4931   */\n      dup3\n      add\n        /* \"#utility.yul\":4906:4958   */\n      mstore\n        /* \"#utility.yul\":4990:4992   */\n      0x60\n        /* \"#utility.yul\":4975:4993   */\n      add\n      swap1\n        /* \"#utility.yul\":4653:4999   */\n      jump\t// out\n        /* \"#utility.yul\":5004:5357   */\n    tag_107:\n        /* \"#utility.yul\":5206:5208   */\n      0x20\n        /* \"#utility.yul\":5188:5209   */\n      dup1\n      dup3\n      mstore\n        /* \"#utility.yul\":5245:5247   */\n      0x1d\n        /* \"#utility.yul\":5225:5243   */\n      swap1\n      dup3\n      add\n        /* \"#utility.yul\":5218:5248   */\n      mstore\n        /* \"#utility.yul\":5284:5315   */\n      0x537943726f774261727465723a204e4f545f494e495449414c495a4544000000\n        /* \"#utility.yul\":5279:5281   */\n      0x40\n        /* \"#utility.yul\":5264:5282   */\n      dup3\n      add\n        /* \"#utility.yul\":5257:5316   */\n      mstore\n        /* \"#utility.yul\":5348:5350   */\n      0x60\n        /* \"#utility.yul\":5333:5351   */\n      add\n      swap1\n        /* \"#utility.yul\":5004:5357   */\n      jump\t// out\n        /* \"#utility.yul\":5362:5607   */\n    tag_112:\n        /* \"#utility.yul\":5429:5435   */\n      0x00\n        /* \"#utility.yul\":5482:5484   */\n      0x20\n        /* \"#utility.yul\":5470:5479   */\n      dup3\n        /* \"#utility.yul\":5461:5468   */\n      dup5\n        /* \"#utility.yul\":5457:5480   */\n      sub\n        /* \"#utility.yul\":5453:5485   */\n      slt\n        /* \"#utility.yul\":5450:5502   */\n      iszero\n      tag_479\n      jumpi\n        /* \"#utility.yul\":5498:5499   */\n      0x00\n        /* \"#utility.yul\":5495:5496   */\n      dup1\n        /* \"#utility.yul\":5488:5500   */\n      revert\n        /* \"#utility.yul\":5450:5502   */\n    tag_479:\n        /* \"#utility.yul\":5530:5539   */\n      dup2\n        /* \"#utility.yul\":5524:5540   */\n      mload\n        /* \"#utility.yul\":5549:5577   */\n      tag_475\n        /* \"#utility.yul\":5571:5576   */\n      dup2\n        /* \"#utility.yul\":5549:5577   */\n      tag_438\n      jump\t// in\n        /* \"#utility.yul\":5612:6010   */\n    tag_115:\n        /* \"#utility.yul\":5814:5816   */\n      0x20\n        /* \"#utility.yul\":5796:5817   */\n      dup1\n      dup3\n      mstore\n        /* \"#utility.yul\":5853:5855   */\n      0x22\n        /* \"#utility.yul\":5833:5851   */\n      swap1\n      dup3\n      add\n        /* \"#utility.yul\":5826:5856   */\n      mstore\n        /* \"#utility.yul\":5892:5926   */\n      0x537943726f774261727465723a204261736520436f6e74726163742050617573\n        /* \"#utility.yul\":5887:5889   */\n      0x40\n        /* \"#utility.yul\":5872:5890   */\n      dup3\n      add\n        /* \"#utility.yul\":5865:5927   */\n      mstore\n      shl(0xf2, 0x1959)\n        /* \"#utility.yul\":5958:5960   */\n      0x60\n        /* \"#utility.yul\":5943:5961   */\n      dup3\n      add\n        /* \"#utility.yul\":5936:5968   */\n      mstore\n        /* \"#utility.yul\":6000:6003   */\n      0x80\n        /* \"#utility.yul\":5985:6004   */\n      add\n      swap1\n        /* \"#utility.yul\":5612:6010   */\n      jump\t// out\n        /* \"#utility.yul\":6015:6412   */\n    tag_124:\n        /* \"#utility.yul\":6217:6219   */\n      0x20\n        /* \"#utility.yul\":6199:6220   */\n      dup1\n      dup3\n      mstore\n        /* \"#utility.yul\":6256:6258   */\n      0x21\n        /* \"#utility.yul\":6236:6254   */\n      swap1\n      dup3\n      add\n        /* \"#utility.yul\":6229:6259   */\n      mstore\n        /* \"#utility.yul\":6295:6329   */\n      0x537943726f774261727465723a20494e56414c49445f4241525445525f545950\n        /* \"#utility.yul\":6290:6292   */\n      0x40\n        /* \"#utility.yul\":6275:6293   */\n      dup3\n      add\n        /* \"#utility.yul\":6268:6330   */\n      mstore\n      shl(0xf8, 0x45)\n        /* \"#utility.yul\":6361:6363   */\n      0x60\n        /* \"#utility.yul\":6346:6364   */\n      dup3\n      add\n        /* \"#utility.yul\":6339:6370   */\n      mstore\n        /* \"#utility.yul\":6402:6405   */\n      0x80\n        /* \"#utility.yul\":6387:6406   */\n      add\n      swap1\n        /* \"#utility.yul\":6015:6412   */\n      jump\t// out\n        /* \"#utility.yul\":6417:6822   */\n    tag_129:\n        /* \"#utility.yul\":6619:6621   */\n      0x20\n        /* \"#utility.yul\":6601:6622   */\n      dup1\n      dup3\n      mstore\n        /* \"#utility.yul\":6658:6660   */\n      0x29\n        /* \"#utility.yul\":6638:6656   */\n      swap1\n      dup3\n      add\n        /* \"#utility.yul\":6631:6661   */\n      mstore\n        /* \"#utility.yul\":6697:6731   */\n      0x537943726f774261727465723a20414d4f554e545f4c4f5745525f5448414e5f\n        /* \"#utility.yul\":6692:6694   */\n      0x40\n        /* \"#utility.yul\":6677:6695   */\n      dup3\n      add\n        /* \"#utility.yul\":6670:6732   */\n      mstore\n      shl(0xba, 0x149154555492549151)\n        /* \"#utility.yul\":6763:6765   */\n      0x60\n        /* \"#utility.yul\":6748:6766   */\n      dup3\n      add\n        /* \"#utility.yul\":6741:6780   */\n      mstore\n        /* \"#utility.yul\":6812:6815   */\n      0x80\n        /* \"#utility.yul\":6797:6816   */\n      add\n      swap1\n        /* \"#utility.yul\":6417:6822   */\n      jump\t// out\n        /* \"#utility.yul\":7176:7532   */\n    tag_172:\n        /* \"#utility.yul\":7378:7380   */\n      0x20\n        /* \"#utility.yul\":7360:7381   */\n      dup1\n      dup3\n      mstore\n        /* \"#utility.yul\":7397:7415   */\n      dup2\n      dup2\n      add\n        /* \"#utility.yul\":7390:7420   */\n      mstore\n        /* \"#utility.yul\":7456:7490   */\n      0x4f776e61626c653a2063616c6c6572206973206e6f7420746865206f776e6572\n        /* \"#utility.yul\":7451:7453   */\n      0x40\n        /* \"#utility.yul\":7436:7454   */\n      dup3\n      add\n        /* \"#utility.yul\":7429:7491   */\n      mstore\n        /* \"#utility.yul\":7523:7525   */\n      0x60\n        /* \"#utility.yul\":7508:7526   */\n      add\n      swap1\n        /* \"#utility.yul\":7176:7532   */\n      jump\t// out\n        /* \"#utility.yul\":7537:7721   */\n    tag_178:\n        /* \"#utility.yul\":7607:7613   */\n      0x00\n        /* \"#utility.yul\":7660:7662   */\n      0x20\n        /* \"#utility.yul\":7648:7657   */\n      dup3\n        /* \"#utility.yul\":7639:7646   */\n      dup5\n        /* \"#utility.yul\":7635:7658   */\n      sub\n        /* \"#utility.yul\":7631:7663   */\n      slt\n        /* \"#utility.yul\":7628:7680   */\n      iszero\n      tag_487\n      jumpi\n        /* \"#utility.yul\":7676:7677   */\n      0x00\n        /* \"#utility.yul\":7673:7674   */\n      dup1\n        /* \"#utility.yul\":7666:7678   */\n      revert\n        /* \"#utility.yul\":7628:7680   */\n    tag_487:\n      pop\n        /* \"#utility.yul\":7699:7715   */\n      mload\n      swap2\n        /* \"#utility.yul\":7537:7721   */\n      swap1\n      pop\n      jump\t// out\n        /* \"#utility.yul\":7726:8173   */\n    tag_212:\n      sub(shl(0xa0, 0x01), 0x01)\n        /* \"#utility.yul\":8013:8028   */\n      swap5\n      dup6\n      and\n        /* \"#utility.yul\":7995:8029   */\n      dup2\n      mstore\n        /* \"#utility.yul\":8065:8080   */\n      swap3\n      swap1\n      swap4\n      and\n        /* \"#utility.yul\":8060:8062   */\n      0x20\n        /* \"#utility.yul\":8045:8063   */\n      dup4\n      add\n        /* \"#utility.yul\":8038:8081   */\n      mstore\n        /* \"#utility.yul\":8112:8114   */\n      0x40\n        /* \"#utility.yul\":8097:8115   */\n      dup3\n      add\n        /* \"#utility.yul\":8090:8124   */\n      mstore\n        /* \"#utility.yul\":8155:8157   */\n      0x60\n        /* \"#utility.yul\":8140:8158   */\n      dup2\n      add\n        /* \"#utility.yul\":8133:8167   */\n      swap2\n      swap1\n      swap2\n      mstore\n        /* \"#utility.yul\":7944:7947   */\n      0x80\n        /* \"#utility.yul\":7929:7948   */\n      add\n      swap1\n        /* \"#utility.yul\":7726:8173   */\n      jump\t// out\n        /* \"#utility.yul\":9691:9818   */\n    tag_440:\n        /* \"#utility.yul\":9752:9762   */\n      0x4e487b71\n        /* \"#utility.yul\":9747:9750   */\n      0xe0\n        /* \"#utility.yul\":9743:9763   */\n      shl\n        /* \"#utility.yul\":9740:9741   */\n      0x00\n        /* \"#utility.yul\":9733:9764   */\n      mstore\n        /* \"#utility.yul\":9783:9787   */\n      0x11\n        /* \"#utility.yul\":9780:9781   */\n      0x04\n        /* \"#utility.yul\":9773:9788   */\n      mstore\n        /* \"#utility.yul\":9807:9811   */\n      0x24\n        /* \"#utility.yul\":9804:9805   */\n      0x00\n        /* \"#utility.yul\":9797:9812   */\n      revert\n        /* \"#utility.yul\":9823:9991   */\n    tag_280:\n        /* \"#utility.yul\":9863:9870   */\n      0x00\n        /* \"#utility.yul\":9929:9930   */\n      dup2\n        /* \"#utility.yul\":9925:9926   */\n      0x00\n        /* \"#utility.yul\":9921:9927   */\n      not\n        /* \"#utility.yul\":9917:9931   */\n      div\n        /* \"#utility.yul\":9914:9915   */\n      dup4\n        /* \"#utility.yul\":9911:9932   */\n      gt\n        /* \"#utility.yul\":9906:9907   */\n      dup3\n        /* \"#utility.yul\":9899:9908   */\n      iszero\n        /* \"#utility.yul\":9892:9909   */\n      iszero\n        /* \"#utility.yul\":9888:9933   */\n      and\n        /* \"#utility.yul\":9885:9956   */\n      iszero\n      tag_496\n      jumpi\n        /* \"#utility.yul\":9936:9954   */\n      tag_496\n      tag_440\n      jump\t// in\n    tag_496:\n      pop\n        /* \"#utility.yul\":9976:9985   */\n      mul\n      swap1\n        /* \"#utility.yul\":9823:9991   */\n      jump\t// out\n        /* \"#utility.yul\":9996:10213   */\n    tag_282:\n        /* \"#utility.yul\":10036:10037   */\n      0x00\n        /* \"#utility.yul\":10062:10063   */\n      dup3\n        /* \"#utility.yul\":10052:10184   */\n      tag_498\n      jumpi\n        /* \"#utility.yul\":10106:10116   */\n      0x4e487b71\n        /* \"#utility.yul\":10101:10104   */\n      0xe0\n        /* \"#utility.yul\":10097:10117   */\n      shl\n        /* \"#utility.yul\":10094:10095   */\n      0x00\n        /* \"#utility.yul\":10087:10118   */\n      mstore\n        /* \"#utility.yul\":10141:10145   */\n      0x12\n        /* \"#utility.yul\":10138:10139   */\n      0x04\n        /* \"#utility.yul\":10131:10146   */\n      mstore\n        /* \"#utility.yul\":10169:10173   */\n      0x24\n        /* \"#utility.yul\":10166:10167   */\n      0x00\n        /* \"#utility.yul\":10159:10174   */\n      revert\n        /* \"#utility.yul\":10052:10184   */\n    tag_498:\n      pop\n        /* \"#utility.yul\":10198:10207   */\n      div\n      swap1\n        /* \"#utility.yul\":9996:10213   */\n      jump\t// out\n        /* \"#utility.yul\":10218:10345   */\n    tag_289:\n        /* \"#utility.yul\":10279:10289   */\n      0x4e487b71\n        /* \"#utility.yul\":10274:10277   */\n      0xe0\n        /* \"#utility.yul\":10270:10290   */\n      shl\n        /* \"#utility.yul\":10267:10268   */\n      0x00\n        /* \"#utility.yul\":10260:10291   */\n      mstore\n        /* \"#utility.yul\":10310:10314   */\n      0x41\n        /* \"#utility.yul\":10307:10308   */\n      0x04\n        /* \"#utility.yul\":10300:10315   */\n      mstore\n        /* \"#utility.yul\":10334:10338   */\n      0x24\n        /* \"#utility.yul\":10331:10332   */\n      0x00\n        /* \"#utility.yul\":10324:10339   */\n      revert\n        /* \"#utility.yul\":10350:10477   */\n    tag_302:\n        /* \"#utility.yul\":10411:10421   */\n      0x4e487b71\n        /* \"#utility.yul\":10406:10409   */\n      0xe0\n        /* \"#utility.yul\":10402:10422   */\n      shl\n        /* \"#utility.yul\":10399:10400   */\n      0x00\n        /* \"#utility.yul\":10392:10423   */\n      mstore\n        /* \"#utility.yul\":10442:10446   */\n      0x32\n        /* \"#utility.yul\":10439:10440   */\n      0x04\n        /* \"#utility.yul\":10432:10447   */\n      mstore\n        /* \"#utility.yul\":10466:10470   */\n      0x24\n        /* \"#utility.yul\":10463:10464   */\n      0x00\n        /* \"#utility.yul\":10456:10471   */\n      revert\n        /* \"#utility.yul\":10482:10617   */\n    tag_317:\n        /* \"#utility.yul\":10521:10524   */\n      0x00\n        /* \"#utility.yul\":10542:10559   */\n      0x01\n      dup3\n      add\n        /* \"#utility.yul\":10539:10582   */\n      tag_503\n      jumpi\n        /* \"#utility.yul\":10562:10580   */\n      tag_503\n      tag_440\n      jump\t// in\n    tag_503:\n      pop\n        /* \"#utility.yul\":10609:10610   */\n      0x01\n        /* \"#utility.yul\":10598:10611   */\n      add\n      swap1\n        /* \"#utility.yul\":10482:10617   */\n      jump\t// out\n        /* \"#utility.yul\":11029:11427   */\n    tag_335:\n        /* \"#utility.yul\":11231:11233   */\n      0x20\n        /* \"#utility.yul\":11213:11234   */\n      dup1\n      dup3\n      mstore\n        /* \"#utility.yul\":11270:11272   */\n      0x22\n        /* \"#utility.yul\":11250:11268   */\n      swap1\n      dup3\n      add\n        /* \"#utility.yul\":11243:11273   */\n      mstore\n        /* \"#utility.yul\":11309:11343   */\n      0x537943726f774261727465723a20494e53554646494349454e545f42414c414e\n        /* \"#utility.yul\":11304:11306   */\n      0x40\n        /* \"#utility.yul\":11289:11307   */\n      dup3\n      add\n        /* \"#utility.yul\":11282:11344   */\n      mstore\n      shl(0xf0, 0x4345)\n        /* \"#utility.yul\":11375:11377   */\n      0x60\n        /* \"#utility.yul\":11360:11378   */\n      dup3\n      add\n        /* \"#utility.yul\":11353:11385   */\n      mstore\n        /* \"#utility.yul\":11417:11420   */\n      0x80\n        /* \"#utility.yul\":11402:11421   */\n      add\n      swap1\n        /* \"#utility.yul\":11029:11427   */\n      jump\t// out\n        /* \"#utility.yul\":11432:11839   */\n    tag_343:\n        /* \"#utility.yul\":11634:11636   */\n      0x20\n        /* \"#utility.yul\":11616:11637   */\n      dup1\n      dup3\n      mstore\n        /* \"#utility.yul\":11673:11675   */\n      0x2b\n        /* \"#utility.yul\":11653:11671   */\n      swap1\n      dup3\n      add\n        /* \"#utility.yul\":11646:11676   */\n      mstore\n        /* \"#utility.yul\":11712:11746   */\n      0x537943726f774261727465723a20494e53554646494349454e545f434f4e5452\n        /* \"#utility.yul\":11707:11709   */\n      0x40\n        /* \"#utility.yul\":11692:11710   */\n      dup3\n      add\n        /* \"#utility.yul\":11685:11747   */\n      mstore\n      shl(0xa8, 0x4143545f42414c414e4345)\n        /* \"#utility.yul\":11778:11780   */\n      0x60\n        /* \"#utility.yul\":11763:11781   */\n      dup3\n      add\n        /* \"#utility.yul\":11756:11797   */\n      mstore\n        /* \"#utility.yul\":11829:11832   */\n      0x80\n        /* \"#utility.yul\":11814:11833   */\n      add\n      swap1\n        /* \"#utility.yul\":11432:11839   */\n      jump\t// out\n        /* \"#utility.yul\":11844:12270   */\n    tag_383:\n        /* \"#utility.yul\":11973:11976   */\n      0x00\n        /* \"#utility.yul\":12011:12017   */\n      dup3\n        /* \"#utility.yul\":12005:12018   */\n      mload\n        /* \"#utility.yul\":12036:12037   */\n      0x00\n        /* \"#utility.yul\":12046:12175   */\n    tag_508:\n        /* \"#utility.yul\":12060:12066   */\n      dup2\n        /* \"#utility.yul\":12057:12058   */\n      dup2\n        /* \"#utility.yul\":12054:12067   */\n      lt\n        /* \"#utility.yul\":12046:12175   */\n      iszero\n      tag_510\n      jumpi\n        /* \"#utility.yul\":12158:12162   */\n      0x20\n        /* \"#utility.yul\":12142:12156   */\n      dup2\n      dup7\n      add\n        /* \"#utility.yul\":12138:12163   */\n      dup2\n      add\n        /* \"#utility.yul\":12132:12164   */\n      mload\n        /* \"#utility.yul\":12119:12130   */\n      dup6\n      dup4\n      add\n        /* \"#utility.yul\":12112:12165   */\n      mstore\n        /* \"#utility.yul\":12075:12087   */\n      add\n        /* \"#utility.yul\":12046:12175   */\n      jump(tag_508)\n    tag_510:\n        /* \"#utility.yul\":12193:12199   */\n      dup2\n        /* \"#utility.yul\":12190:12191   */\n      dup2\n        /* \"#utility.yul\":12187:12200   */\n      gt\n        /* \"#utility.yul\":12184:12232   */\n      iszero\n      tag_511\n      jumpi\n        /* \"#utility.yul\":12228:12229   */\n      0x00\n        /* \"#utility.yul\":12219:12225   */\n      dup3\n        /* \"#utility.yul\":12214:12217   */\n      dup6\n        /* \"#utility.yul\":12210:12226   */\n      add\n        /* \"#utility.yul\":12203:12230   */\n      mstore\n        /* \"#utility.yul\":12184:12232   */\n    tag_511:\n      pop\n        /* \"#utility.yul\":12248:12264   */\n      swap2\n      swap1\n      swap2\n      add\n      swap3\n        /* \"#utility.yul\":11844:12270   */\n      swap2\n      pop\n      pop\n      jump\t// out\n\n    auxdata: 0xa264697066735822122080f52dea6bc2020772ec88fb4868bf49442e928882a7174b33a2a86561588ffe64736f6c634300080d0033\n}\n",
				"bytecode": {
					"linkReferences": {},
					"object": "60a06040526003805460ff60a81b1916905534801561001d57600080fd5b5061002733610030565b33608052610080565b600080546001600160a01b038381166001600160a01b0319831681178455604051919092169283917f8be0079c531659141344cd1fd0a4f28419497f9722a3daafe3b4186f6b6457e09190a35050565b60805161215b6100cc600039600081816102dc015281816103c90152818161054a0152818161097e01528181610a9601528181610bc10152818161143901526116cc015261215b6000f3fe6080604052600436106100fe5760003560e01c80635f5780e511610095578063aa6ca80811610064578063aa6ca80814610295578063c45a0155146102ca578063dab5a8df146102fe578063e43372e91461031e578063f2fde38b1461034257600080fd5b80635f5780e514610207578063715018a614610227578063895237421461023c5780638da5cb5b1461026357600080fd5b80633ccfd60b116100d15780633ccfd60b1461019f5780633d370b4e146101b457806340a6f1ab146101de5780634341f920146101f457600080fd5b80630d1826051461010357806329dcb0cf146101255780632ffc68871461014e5780633072cf601461016e575b600080fd5b34801561010f57600080fd5b5061012361011e366004611c1d565b610362565b005b34801561013157600080fd5b5061013b60025481565b6040519081526020015b60405180910390f35b34801561015a57600080fd5b50610123610169366004611c1d565b6104ec565b34801561017a57600080fd5b5060035461018f90600160a81b900460ff1681565b6040519015158152602001610145565b3480156101ab57600080fd5b50610123610667565b3480156101c057600080fd5b506101c96109fe565b60408051928352602083019190915201610145565b3480156101ea57600080fd5b5061013b60015481565b610123610202366004611c1d565b610a38565b34801561021357600080fd5b5061018f610222366004611c60565b610bb4565b34801561023357600080fd5b50610123610e5f565b34801561024857600080fd5b506003546102569060ff1681565b6040516101459190611d00565b34801561026f57600080fd5b506000546001600160a01b03165b6040516001600160a01b039091168152602001610145565b3480156102a157600080fd5b506102aa610e95565b604080516001600160a01b03938416815292909116602083015201610145565b3480156102d657600080fd5b5061027d7f000000000000000000000000000000000000000000000000000000000000000081565b34801561030a57600080fd5b5061013b610319366004611c1d565b610edc565b34801561032a57600080fd5b50610333610eff565b60405161014593929190611d63565b34801561034e57600080fd5b5061012361035d366004611dd8565b611125565b42600254101580156103775750600754600154105b61039c5760405162461bcd60e51b815260040161039390611dfa565b60405180910390fd5b600354600160a81b900460ff166103c55760405162461bcd60e51b815260040161039390611e2a565b60007f00000000000000000000000000000000000000000000000000000000000000009050806001600160a01b031663b187bd266040518163ffffffff1660e01b8152600401602060405180830381865afa158015610428573d6000803e3d6000fd5b505050506040513d601f19601f8201168201806040525081019061044c9190611e61565b156104695760405162461bcd60e51b815260040161039390611e7e565b60035460009060ff16600281111561048357610483611cea565b81600281111561049557610495611cea565b146104b25760405162461bcd60e51b815260040161039390611ec0565b60085460ff166104de576007548310156104de5760405162461bcd60e51b815260040161039390611f01565b6104e7836111c0565b505050565b42600254101580156105015750600754600154105b61051d5760405162461bcd60e51b815260040161039390611dfa565b600354600160a81b900460ff166105465760405162461bcd60e51b815260040161039390611e2a565b60007f00000000000000000000000000000000000000000000000000000000000000009050806001600160a01b031663b187bd266040518163ffffffff1660e01b8152600401602060405180830381865afa1580156105a9573d6000803e3d6000fd5b505050506040513d601f19601f820116820180604052508101906105cd9190611e61565b156105ea5760405162461bcd60e51b815260040161039390611e7e565b60035460029060ff168181111561060357610603611cea565b81600281111561061557610615611cea565b146106325760405162461bcd60e51b815260040161039390611ec0565b60085460ff1661065e5760075483101561065e5760405162461bcd60e51b815260040161039390611f01565b6104e7836114ad565b42600254108061067b575060075460015410155b6106be5760405162461bcd60e51b8152602060048201526014602482015273537943726f774261727465723a2041435449564560601b6044820152606401610393565b600354600160a81b900460ff166106e75760405162461bcd60e51b815260040161039390611e2a565b6000546001600160a01b031633146107115760405162461bcd60e51b815260040161039390611f4a565b6003546040516370a0823160e01b81523060048201526101009091046001600160a01b03169060009082906370a0823190602401602060405180830381865afa158015610762573d6000803e3d6000fd5b505050506040513d601f19601f820116820180604052508101906107869190611f7f565b905080156107fa57600354604051632e1a7d4d60e01b8152600481018390526101009091046001600160a01b031690632e1a7d4d90602401600060405180830381600087803b1580156107d857600080fd5b505af11580156107ec573d6000803e3d6000fd5b505050506107fa338261173f565b6005546040516370a0823160e01b81523060048201526000916001600160a01b0316906370a0823190602401602060405180830381865afa158015610843573d6000803e3d6000fd5b505050506040513d601f19601f820116820180604052508101906108679190611f7f565b9050801561088657600554610886906001600160a01b03163383611808565b600480546040516370a0823160e01b815230928101929092526000916001600160a01b03909116906370a0823190602401602060405180830381865afa1580156108d4573d6000803e3d6000fd5b505050506040513d601f19601f820116820180604052508101906108f89190611f7f565b9050801561091757600454610917906001600160a01b03163383611808565b6000808060035460ff16600281111561093257610932611cea565b0361094157508390508261096f565b600260035460ff16600281111561095a5761095a611cea565b0361096957508190508261096f565b50819050835b6040516319bcb50760e11b81527f0000000000000000000000000000000000000000000000000000000000000000906001600160a01b038216906333796a0e906109c3903090339088908890600401611f98565b600060405180830381600087803b1580156109dd57600080fd5b505af11580156109f1573d6000803e3d6000fd5b5050505050505050505050565b6003546000908190600160a81b900460ff16610a2c5760405162461bcd60e51b815260040161039390611e2a565b50506006546007549091565b4260025410158015610a4d5750600754600154105b610a695760405162461bcd60e51b815260040161039390611dfa565b600354600160a81b900460ff16610a925760405162461bcd60e51b815260040161039390611e2a565b60007f00000000000000000000000000000000000000000000000000000000000000009050806001600160a01b031663b187bd266040518163ffffffff1660e01b8152600401602060405180830381865afa158015610af5573d6000803e3d6000fd5b505050506040513d601f19601f82011682018060405250810190610b199190611e61565b15610b365760405162461bcd60e51b815260040161039390611e7e565b60035460019060ff166002811115610b5057610b50611cea565b816002811115610b6257610b62611cea565b14610b7f5760405162461bcd60e51b815260040161039390611ec0565b60085460ff16610bab57600754341015610bab5760405162461bcd60e51b815260040161039390611f01565b6104e783611923565b6000336001600160a01b037f00000000000000000000000000000000000000000000000000000000000000001614610c2e5760405162461bcd60e51b815260206004820152601760248201527f537943726f774261727465723a20464f5242494444454e0000000000000000006044820152606401610393565b600354600160a81b900460ff1615610c925760405162461bcd60e51b815260206004820152602160248201527f537943726f774261727465723a20414c52454144595f494e495449414c495a456044820152601160fa1b6064820152608401610393565b42841015610ce25760405162461bcd60e51b815260206004820152601b60248201527f537943726f774261727465723a20504153545f444541444c494e4500000000006044820152606401610393565b6040516370a0823160e01b815230600482015286906001600160a01b038a16906370a0823190602401602060405180830381865afa158015610d28573d6000803e3d6000fd5b505050506040513d601f19601f82011682018060405250810190610d4c9190611f7f565b1015610da55760405162461bcd60e51b815260206004820152602260248201527f537943726f774261727465723a20494e53554646494349454e545f4445504f53604482015261125560f21b6064820152608401610393565b6002848155600480546001600160a01b03808c166001600160a01b03199283161790925560058054928b169290911691909117905560068790556007869055600380548b9260ff19909116906001908490811115610e0557610e05611cea565b0217905550506008805483151560ff199091161790556003805460ff60a81b196001600160a01b0384166101000216610100600160b01b031990911617600160a81b90811791829055900460ff1698975050505050505050565b6000546001600160a01b03163314610e895760405162461bcd60e51b815260040161039390611f4a565b610e936000611a9d565b565b6003546000908190600160a81b900460ff16610ec35760405162461bcd60e51b815260040161039390611e2a565b50506004546005546001600160a01b0391821691169091565b600060075460065483610eef9190611fd7565b610ef99190611ff6565b92915050565b6060806060600360159054906101000a900460ff16610f305760405162461bcd60e51b815260040161039390611e2a565b60095460009067ffffffffffffffff811115610f4e57610f4e612018565b604051908082528060200260200182016040528015610f77578160200160208202803683370190505b5060095490915060009067ffffffffffffffff811115610f9957610f99612018565b604051908082528060200260200182016040528015610fc2578160200160208202803683370190505b5060095490915060009067ffffffffffffffff811115610fe457610fe4612018565b60405190808252806020026020018201604052801561100d578160200160208202803683370190505b50905060005b60095481101561111857600981815481106110305761103061202e565b600091825260209091206003909102015484516001600160a01b03909116908590839081106110615761106161202e565b60200260200101906001600160a01b031690816001600160a01b031681525050600981815481106110945761109461202e565b9060005260206000209060030201600101548382815181106110b8576110b861202e565b602002602001018181525050600981815481106110d7576110d761202e565b9060005260206000209060030201600201548282815181106110fb576110fb61202e565b60209081029190910101528061111081612044565b915050611013565b5091945092509050909192565b6000546001600160a01b0316331461114f5760405162461bcd60e51b815260040161039390611f4a565b6001600160a01b0381166111b45760405162461bcd60e51b815260206004820152602660248201527f4f776e61626c653a206e6577206f776e657220697320746865207a65726f206160448201526564647265737360d01b6064820152608401610393565b6111bd81611a9d565b50565b6005546040516370a0823160e01b815233600482015282916001600160a01b0316906370a0823190602401602060405180830381865afa158015611208573d6000803e3d6000fd5b505050506040513d601f19601f8201168201806040525081019061122c9190611f7f565b101561124a5760405162461bcd60e51b81526004016103939061205d565b600061125582610edc565b6003546040516370a0823160e01b815230600482015291925061010090046001600160a01b031690829082906370a0823190602401602060405180830381865afa1580156112a7573d6000803e3d6000fd5b505050506040513d601f19601f820116820180604052508101906112cb9190611f7f565b10156112e95760405162461bcd60e51b81526004016103939061209f565b600354604051632e1a7d4d60e01b8152600481018490526101009091046001600160a01b031690632e1a7d4d90602401600060405180830381600087803b15801561133357600080fd5b505af1158015611347573d6000803e3d6000fd5b505060055461136492506001600160a01b03169050333086611aed565b61136e338361173f565b60408051606081018252338082526020820186815282840186815260098054600181018255600091909152935160039094027f6e1540171b6c0c960b71a7020d9f60077f6af931a8bbf590da0223dacf75c7af810180546001600160a01b039687166001600160a01b031990911617905591517f6e1540171b6c0c960b71a7020d9f60077f6af931a8bbf590da0223dacf75c7b0830155517f6e1540171b6c0c960b71a7020d9f60077f6af931a8bbf590da0223dacf75c7b190910155915163f52701b760e01b81527f0000000000000000000000000000000000000000000000000000000000000000929183169163f52701b79161147591309189908990600401611f98565b600060405180830381600087803b15801561148f57600080fd5b505af11580156114a3573d6000803e3d6000fd5b5050505050505050565b6005546040516370a0823160e01b815233600482015282916001600160a01b0316906370a0823190602401602060405180830381865afa1580156114f5573d6000803e3d6000fd5b505050506040513d601f19601f820116820180604052508101906115199190611f7f565b10156115375760405162461bcd60e51b81526004016103939061205d565b600061154282610edc565b600480546040516370a0823160e01b8152309281019290925291925082916001600160a01b0316906370a0823190602401602060405180830381865afa158015611590573d6000803e3d6000fd5b505050506040513d601f19601f820116820180604052508101906115b49190611f7f565b10156115d25760405162461bcd60e51b81526004016103939061209f565b6005546115ea906001600160a01b0316333085611aed565b600454611601906001600160a01b03163383611808565b60408051606081018252338082526020820185815282840185815260098054600181018255600091909152935160039094027f6e1540171b6c0c960b71a7020d9f60077f6af931a8bbf590da0223dacf75c7af810180546001600160a01b039687166001600160a01b031990911617905591517f6e1540171b6c0c960b71a7020d9f60077f6af931a8bbf590da0223dacf75c7b0830155517f6e1540171b6c0c960b71a7020d9f60077f6af931a8bbf590da0223dacf75c7b190910155915163f52701b760e01b81527f0000000000000000000000000000000000000000000000000000000000000000929183169163f52701b79161170891309188908890600401611f98565b600060405180830381600087803b15801561172257600080fd5b505af1158015611736573d6000803e3d6000fd5b50505050505050565b604080516000808252602082019092526001600160a01b03841690839060405161176991906120ea565b60006040518083038185875af1925050503d80600081146117a6576040519150601f19603f3d011682016040523d82523d6000602084013e6117ab565b606091505b50509050806104e75760405162461bcd60e51b815260206004820152602360248201527f5472616e7366657248656c7065723a204554485f5452414e534645525f46414960448201526213115160ea1b6064820152608401610393565b604080516001600160a01b038481166024830152604480830185905283518084039091018152606490920183526020820180516001600160e01b031663a9059cbb60e01b179052915160009283929087169161186491906120ea565b6000604051808303816000865af19150503d80600081146118a1576040519150601f19603f3d011682016040523d82523d6000602084013e6118a6565b606091505b50915091508180156118d05750805115806118d05750808060200190518101906118d09190611e61565b61191c5760405162461bcd60e51b815260206004820152601f60248201527f5472616e7366657248656c7065723a205452414e534645525f4641494c4544006044820152606401610393565b5050505050565b3481146119805760405162461bcd60e51b815260206004820152602560248201527f537943726f774261727465723a204d554c54495f54524144455f4e4f545f454e604482015264105093115160da1b6064820152608401610393565b600061198b82610edc565b600480546040516370a0823160e01b8152309281019290925291925082916001600160a01b0316906370a0823190602401602060405180830381865afa1580156119d9573d6000803e3d6000fd5b505050506040513d601f19601f820116820180604052508101906119fd9190611f7f565b1015611a1b5760405162461bcd60e51b81526004016103939061209f565b600360019054906101000a90046001600160a01b03166001600160a01b031663d0e30db0836040518263ffffffff1660e01b81526004016000604051808303818588803b158015611a6b57600080fd5b505af1158015611a7f573d6000803e3d6000fd5b505060045461160193506001600160a01b0316915033905083611808565b600080546001600160a01b038381166001600160a01b0319831681178455604051919092169283917f8be0079c531659141344cd1fd0a4f28419497f9722a3daafe3b4186f6b6457e09190a35050565b604080516001600160a01b0385811660248301528481166044830152606480830185905283518084039091018152608490920183526020820180516001600160e01b03166323b872dd60e01b1790529151600092839290881691611b5191906120ea565b6000604051808303816000865af19150503d8060008114611b8e576040519150601f19603f3d011682016040523d82523d6000602084013e611b93565b606091505b5091509150818015611bbd575080511580611bbd575080806020019051810190611bbd9190611e61565b611c155760405162461bcd60e51b8152602060048201526024808201527f5472616e7366657248656c7065723a205452414e534645525f46524f4d5f46416044820152631253115160e21b6064820152608401610393565b505050505050565b600060208284031215611c2f57600080fd5b5035919050565b80356001600160a01b0381168114611c4d57600080fd5b919050565b80151581146111bd57600080fd5b600080600080600080600080610100898b031215611c7d57600080fd5b883560038110611c8c57600080fd5b9750611c9a60208a01611c36565b9650611ca860408a01611c36565b9550606089013594506080890135935060a0890135925060c0890135611ccd81611c52565b9150611cdb60e08a01611c36565b90509295985092959890939650565b634e487b7160e01b600052602160045260246000fd5b6020810160038310611d2257634e487b7160e01b600052602160045260246000fd5b91905290565b600081518084526020808501945080840160005b83811015611d5857815187529582019590820190600101611d3c565b509495945050505050565b606080825284519082018190526000906020906080840190828801845b82811015611da55781516001600160a01b031684529284019290840190600101611d80565b50505083810382850152611db98187611d28565b9150508281036040840152611dce8185611d28565b9695505050505050565b600060208284031215611dea57600080fd5b611df382611c36565b9392505050565b602080825260169082015275537943726f774261727465723a20494e41435449564560501b604082015260600190565b6020808252601d908201527f537943726f774261727465723a204e4f545f494e495449414c495a4544000000604082015260600190565b600060208284031215611e7357600080fd5b8151611df381611c52565b60208082526022908201527f537943726f774261727465723a204261736520436f6e74726163742050617573604082015261195960f21b606082015260800190565b60208082526021908201527f537943726f774261727465723a20494e56414c49445f4241525445525f5459506040820152604560f81b606082015260800190565b60208082526029908201527f537943726f774261727465723a20414d4f554e545f4c4f5745525f5448414e5f60408201526814915455549254915160ba1b606082015260800190565b6020808252818101527f4f776e61626c653a2063616c6c6572206973206e6f7420746865206f776e6572604082015260600190565b600060208284031215611f9157600080fd5b5051919050565b6001600160a01b0394851681529290931660208301526040820152606081019190915260800190565b634e487b7160e01b600052601160045260246000fd5b6000816000190483118215151615611ff157611ff1611fc1565b500290565b60008261201357634e487b7160e01b600052601260045260246000fd5b500490565b634e487b7160e01b600052604160045260246000fd5b634e487b7160e01b600052603260045260246000fd5b60006001820161205657612056611fc1565b5060010190565b60208082526022908201527f537943726f774261727465723a20494e53554646494349454e545f42414c414e604082015261434560f01b606082015260800190565b6020808252602b908201527f537943726f774261727465723a20494e53554646494349454e545f434f4e545260408201526a4143545f42414c414e434560a81b606082015260800190565b6000825160005b8181101561210b57602081860181015185830152016120f1565b8181111561211a576000828501525b50919091019291505056fea264697066735822122080f52dea6bc2020772ec88fb4868bf49442e928882a7174b33a2a86561588ffe64736f6c634300080d0033",
					"opcodes": "PUSH1 0xA0 PUSH1 0x40 MSTORE PUSH1 0x3 DUP1 SLOAD PUSH1 0xFF PUSH1 0xA8 SHL NOT AND SWAP1 SSTORE CALLVALUE DUP1 ISZERO PUSH2 0x1D JUMPI PUSH1 0x0 DUP1 REVERT JUMPDEST POP PUSH2 0x27 CALLER PUSH2 0x30 JUMP JUMPDEST CALLER PUSH1 0x80 MSTORE PUSH2 0x80 JUMP JUMPDEST PUSH1 0x0 DUP1 SLOAD PUSH1 0x1 PUSH1 0x1 PUSH1 0xA0 SHL SUB DUP4 DUP2 AND PUSH1 0x1 PUSH1 0x1 PUSH1 0xA0 SHL SUB NOT DUP4 AND DUP2 OR DUP5 SSTORE PUSH1 0x40 MLOAD SWAP2 SWAP1 SWAP3 AND SWAP3 DUP4 SWAP2 PUSH32 0x8BE0079C531659141344CD1FD0A4F28419497F9722A3DAAFE3B4186F6B6457E0 SWAP2 SWAP1 LOG3 POP POP JUMP JUMPDEST PUSH1 0x80 MLOAD PUSH2 0x215B PUSH2 0xCC PUSH1 0x0 CODECOPY PUSH1 0x0 DUP2 DUP2 PUSH2 0x2DC ADD MSTORE DUP2 DUP2 PUSH2 0x3C9 ADD MSTORE DUP2 DUP2 PUSH2 0x54A ADD MSTORE DUP2 DUP2 PUSH2 0x97E ADD MSTORE DUP2 DUP2 PUSH2 0xA96 ADD MSTORE DUP2 DUP2 PUSH2 0xBC1 ADD MSTORE DUP2 DUP2 PUSH2 0x1439 ADD MSTORE PUSH2 0x16CC ADD MSTORE PUSH2 0x215B PUSH1 0x0 RETURN INVALID PUSH1 0x80 PUSH1 0x40 MSTORE PUSH1 0x4 CALLDATASIZE LT PUSH2 0xFE JUMPI PUSH1 0x0 CALLDATALOAD PUSH1 0xE0 SHR DUP1 PUSH4 0x5F5780E5 GT PUSH2 0x95 JUMPI DUP1 PUSH4 0xAA6CA808 GT PUSH2 0x64 JUMPI DUP1 PUSH4 0xAA6CA808 EQ PUSH2 0x295 JUMPI DUP1 PUSH4 0xC45A0155 EQ PUSH2 0x2CA JUMPI DUP1 PUSH4 0xDAB5A8DF EQ PUSH2 0x2FE JUMPI DUP1 PUSH4 0xE43372E9 EQ PUSH2 0x31E JUMPI DUP1 PUSH4 0xF2FDE38B EQ PUSH2 0x342 JUMPI PUSH1 0x0 DUP1 REVERT JUMPDEST DUP1 PUSH4 0x5F5780E5 EQ PUSH2 0x207 JUMPI DUP1 PUSH4 0x715018A6 EQ PUSH2 0x227 JUMPI DUP1 PUSH4 0x89523742 EQ PUSH2 0x23C JUMPI DUP1 PUSH4 0x8DA5CB5B EQ PUSH2 0x263 JUMPI PUSH1 0x0 DUP1 REVERT JUMPDEST DUP1 PUSH4 0x3CCFD60B GT PUSH2 0xD1 JUMPI DUP1 PUSH4 0x3CCFD60B EQ PUSH2 0x19F JUMPI DUP1 PUSH4 0x3D370B4E EQ PUSH2 0x1B4 JUMPI DUP1 PUSH4 0x40A6F1AB EQ PUSH2 0x1DE JUMPI DUP1 PUSH4 0x4341F920 EQ PUSH2 0x1F4 JUMPI PUSH1 0x0 DUP1 REVERT JUMPDEST DUP1 PUSH4 0xD182605 EQ PUSH2 0x103 JUMPI DUP1 PUSH4 0x29DCB0CF EQ PUSH2 0x125 JUMPI DUP1 PUSH4 0x2FFC6887 EQ PUSH2 0x14E JUMPI DUP1 PUSH4 0x3072CF60 EQ PUSH2 0x16E JUMPI JUMPDEST PUSH1 0x0 DUP1 REVERT JUMPDEST CALLVALUE DUP1 ISZERO PUSH2 0x10F JUMPI PUSH1 0x0 DUP1 REVERT JUMPDEST POP PUSH2 0x123 PUSH2 0x11E CALLDATASIZE PUSH1 0x4 PUSH2 0x1C1D JUMP JUMPDEST PUSH2 0x362 JUMP JUMPDEST STOP JUMPDEST CALLVALUE DUP1 ISZERO PUSH2 0x131 JUMPI PUSH1 0x0 DUP1 REVERT JUMPDEST POP PUSH2 0x13B PUSH1 0x2 SLOAD DUP2 JUMP JUMPDEST PUSH1 0x40 MLOAD SWAP1 DUP2 MSTORE PUSH1 0x20 ADD JUMPDEST PUSH1 0x40 MLOAD DUP1 SWAP2 SUB SWAP1 RETURN JUMPDEST CALLVALUE DUP1 ISZERO PUSH2 0x15A JUMPI PUSH1 0x0 DUP1 REVERT JUMPDEST POP PUSH2 0x123 PUSH2 0x169 CALLDATASIZE PUSH1 0x4 PUSH2 0x1C1D JUMP JUMPDEST PUSH2 0x4EC JUMP JUMPDEST CALLVALUE DUP1 ISZERO PUSH2 0x17A JUMPI PUSH1 0x0 DUP1 REVERT JUMPDEST POP PUSH1 0x3 SLOAD PUSH2 0x18F SWAP1 PUSH1 0x1 PUSH1 0xA8 SHL SWAP1 DIV PUSH1 0xFF AND DUP2 JUMP JUMPDEST PUSH1 0x40 MLOAD SWAP1 ISZERO ISZERO DUP2 MSTORE PUSH1 0x20 ADD PUSH2 0x145 JUMP JUMPDEST CALLVALUE DUP1 ISZERO PUSH2 0x1AB JUMPI PUSH1 0x0 DUP1 REVERT JUMPDEST POP PUSH2 0x123 PUSH2 0x667 JUMP JUMPDEST CALLVALUE DUP1 ISZERO PUSH2 0x1C0 JUMPI PUSH1 0x0 DUP1 REVERT JUMPDEST POP PUSH2 0x1C9 PUSH2 0x9FE JUMP JUMPDEST PUSH1 0x40 DUP1 MLOAD SWAP3 DUP4 MSTORE PUSH1 0x20 DUP4 ADD SWAP2 SWAP1 SWAP2 MSTORE ADD PUSH2 0x145 JUMP JUMPDEST CALLVALUE DUP1 ISZERO PUSH2 0x1EA JUMPI PUSH1 0x0 DUP1 REVERT JUMPDEST POP PUSH2 0x13B PUSH1 0x1 SLOAD DUP2 JUMP JUMPDEST PUSH2 0x123 PUSH2 0x202 CALLDATASIZE PUSH1 0x4 PUSH2 0x1C1D JUMP JUMPDEST PUSH2 0xA38 JUMP JUMPDEST CALLVALUE DUP1 ISZERO PUSH2 0x213 JUMPI PUSH1 0x0 DUP1 REVERT JUMPDEST POP PUSH2 0x18F PUSH2 0x222 CALLDATASIZE PUSH1 0x4 PUSH2 0x1C60 JUMP JUMPDEST PUSH2 0xBB4 JUMP JUMPDEST CALLVALUE DUP1 ISZERO PUSH2 0x233 JUMPI PUSH1 0x0 DUP1 REVERT JUMPDEST POP PUSH2 0x123 PUSH2 0xE5F JUMP JUMPDEST CALLVALUE DUP1 ISZERO PUSH2 0x248 JUMPI PUSH1 0x0 DUP1 REVERT JUMPDEST POP PUSH1 0x3 SLOAD PUSH2 0x256 SWAP1 PUSH1 0xFF AND DUP2 JUMP JUMPDEST PUSH1 0x40 MLOAD PUSH2 0x145 SWAP2 SWAP1 PUSH2 0x1D00 JUMP JUMPDEST CALLVALUE DUP1 ISZERO PUSH2 0x26F JUMPI PUSH1 0x0 DUP1 REVERT JUMPDEST POP PUSH1 0x0 SLOAD PUSH1 0x1 PUSH1 0x1 PUSH1 0xA0 SHL SUB AND JUMPDEST PUSH1 0x40 MLOAD PUSH1 0x1 PUSH1 0x1 PUSH1 0xA0 SHL SUB SWAP1 SWAP2 AND DUP2 MSTORE PUSH1 0x20 ADD PUSH2 0x145 JUMP JUMPDEST CALLVALUE DUP1 ISZERO PUSH2 0x2A1 JUMPI PUSH1 0x0 DUP1 REVERT JUMPDEST POP PUSH2 0x2AA PUSH2 0xE95 JUMP JUMPDEST PUSH1 0x40 DUP1 MLOAD PUSH1 0x1 PUSH1 0x1 PUSH1 0xA0 SHL SUB SWAP4 DUP5 AND DUP2 MSTORE SWAP3 SWAP1 SWAP2 AND PUSH1 0x20 DUP4 ADD MSTORE ADD PUSH2 0x145 JUMP JUMPDEST CALLVALUE DUP1 ISZERO PUSH2 0x2D6 JUMPI PUSH1 0x0 DUP1 REVERT JUMPDEST POP PUSH2 0x27D PUSH32 0x0 DUP2 JUMP JUMPDEST CALLVALUE DUP1 ISZERO PUSH2 0x30A JUMPI PUSH1 0x0 DUP1 REVERT JUMPDEST POP PUSH2 0x13B PUSH2 0x319 CALLDATASIZE PUSH1 0x4 PUSH2 0x1C1D JUMP JUMPDEST PUSH2 0xEDC JUMP JUMPDEST CALLVALUE DUP1 ISZERO PUSH2 0x32A JUMPI PUSH1 0x0 DUP1 REVERT JUMPDEST POP PUSH2 0x333 PUSH2 0xEFF JUMP JUMPDEST PUSH1 0x40 MLOAD PUSH2 0x145 SWAP4 SWAP3 SWAP2 SWAP1 PUSH2 0x1D63 JUMP JUMPDEST CALLVALUE DUP1 ISZERO PUSH2 0x34E JUMPI PUSH1 0x0 DUP1 REVERT JUMPDEST POP PUSH2 0x123 PUSH2 0x35D CALLDATASIZE PUSH1 0x4 PUSH2 0x1DD8 JUMP JUMPDEST PUSH2 0x1125 JUMP JUMPDEST TIMESTAMP PUSH1 0x2 SLOAD LT ISZERO DUP1 ISZERO PUSH2 0x377 JUMPI POP PUSH1 0x7 SLOAD PUSH1 0x1 SLOAD LT JUMPDEST PUSH2 0x39C JUMPI PUSH1 0x40 MLOAD PUSH3 0x461BCD PUSH1 0xE5 SHL DUP2 MSTORE PUSH1 0x4 ADD PUSH2 0x393 SWAP1 PUSH2 0x1DFA JUMP JUMPDEST PUSH1 0x40 MLOAD DUP1 SWAP2 SUB SWAP1 REVERT JUMPDEST PUSH1 0x3 SLOAD PUSH1 0x1 PUSH1 0xA8 SHL SWAP1 DIV PUSH1 0xFF AND PUSH2 0x3C5 JUMPI PUSH1 0x40 MLOAD PUSH3 0x461BCD PUSH1 0xE5 SHL DUP2 MSTORE PUSH1 0x4 ADD PUSH2 0x393 SWAP1 PUSH2 0x1E2A JUMP JUMPDEST PUSH1 0x0 PUSH32 0x0 SWAP1 POP DUP1 PUSH1 0x1 PUSH1 0x1 PUSH1 0xA0 SHL SUB AND PUSH4 0xB187BD26 PUSH1 0x40 MLOAD DUP2 PUSH4 0xFFFFFFFF AND PUSH1 0xE0 SHL DUP2 MSTORE PUSH1 0x4 ADD PUSH1 0x20 PUSH1 0x40 MLOAD DUP1 DUP4 SUB DUP2 DUP7 GAS STATICCALL ISZERO DUP1 ISZERO PUSH2 0x428 JUMPI RETURNDATASIZE PUSH1 0x0 DUP1 RETURNDATACOPY RETURNDATASIZE PUSH1 0x0 REVERT JUMPDEST POP POP POP POP PUSH1 0x40 MLOAD RETURNDATASIZE PUSH1 0x1F NOT PUSH1 0x1F DUP3 ADD AND DUP3 ADD DUP1 PUSH1 0x40 MSTORE POP DUP2 ADD SWAP1 PUSH2 0x44C SWAP2 SWAP1 PUSH2 0x1E61 JUMP JUMPDEST ISZERO PUSH2 0x469 JUMPI PUSH1 0x40 MLOAD PUSH3 0x461BCD PUSH1 0xE5 SHL DUP2 MSTORE PUSH1 0x4 ADD PUSH2 0x393 SWAP1 PUSH2 0x1E7E JUMP JUMPDEST PUSH1 0x3 SLOAD PUSH1 0x0 SWAP1 PUSH1 0xFF AND PUSH1 0x2 DUP2 GT ISZERO PUSH2 0x483 JUMPI PUSH2 0x483 PUSH2 0x1CEA JUMP JUMPDEST DUP2 PUSH1 0x2 DUP2 GT ISZERO PUSH2 0x495 JUMPI PUSH2 0x495 PUSH2 0x1CEA JUMP JUMPDEST EQ PUSH2 0x4B2 JUMPI PUSH1 0x40 MLOAD PUSH3 0x461BCD PUSH1 0xE5 SHL DUP2 MSTORE PUSH1 0x4 ADD PUSH2 0x393 SWAP1 PUSH2 0x1EC0 JUMP JUMPDEST PUSH1 0x8 SLOAD PUSH1 0xFF AND PUSH2 0x4DE JUMPI PUSH1 0x7 SLOAD DUP4 LT ISZERO PUSH2 0x4DE JUMPI PUSH1 0x40 MLOAD PUSH3 0x461BCD PUSH1 0xE5 SHL DUP2 MSTORE PUSH1 0x4 ADD PUSH2 0x393 SWAP1 PUSH2 0x1F01 JUMP JUMPDEST PUSH2 0x4E7 DUP4 PUSH2 0x11C0 JUMP JUMPDEST POP POP POP JUMP JUMPDEST TIMESTAMP PUSH1 0x2 SLOAD LT ISZERO DUP1 ISZERO PUSH2 0x501 JUMPI POP PUSH1 0x7 SLOAD PUSH1 0x1 SLOAD LT JUMPDEST PUSH2 0x51D JUMPI PUSH1 0x40 MLOAD PUSH3 0x461BCD PUSH1 0xE5 SHL DUP2 MSTORE PUSH1 0x4 ADD PUSH2 0x393 SWAP1 PUSH2 0x1DFA JUMP JUMPDEST PUSH1 0x3 SLOAD PUSH1 0x1 PUSH1 0xA8 SHL SWAP1 DIV PUSH1 0xFF AND PUSH2 0x546 JUMPI PUSH1 0x40 MLOAD PUSH3 0x461BCD PUSH1 0xE5 SHL DUP2 MSTORE PUSH1 0x4 ADD PUSH2 0x393 SWAP1 PUSH2 0x1E2A JUMP JUMPDEST PUSH1 0x0 PUSH32 0x0 SWAP1 POP DUP1 PUSH1 0x1 PUSH1 0x1 PUSH1 0xA0 SHL SUB AND PUSH4 0xB187BD26 PUSH1 0x40 MLOAD DUP2 PUSH4 0xFFFFFFFF AND PUSH1 0xE0 SHL DUP2 MSTORE PUSH1 0x4 ADD PUSH1 0x20 PUSH1 0x40 MLOAD DUP1 DUP4 SUB DUP2 DUP7 GAS STATICCALL ISZERO DUP1 ISZERO PUSH2 0x5A9 JUMPI RETURNDATASIZE PUSH1 0x0 DUP1 RETURNDATACOPY RETURNDATASIZE PUSH1 0x0 REVERT JUMPDEST POP POP POP POP PUSH1 0x40 MLOAD RETURNDATASIZE PUSH1 0x1F NOT PUSH1 0x1F DUP3 ADD AND DUP3 ADD DUP1 PUSH1 0x40 MSTORE POP DUP2 ADD SWAP1 PUSH2 0x5CD SWAP2 SWAP1 PUSH2 0x1E61 JUMP JUMPDEST ISZERO PUSH2 0x5EA JUMPI PUSH1 0x40 MLOAD PUSH3 0x461BCD PUSH1 0xE5 SHL DUP2 MSTORE PUSH1 0x4 ADD PUSH2 0x393 SWAP1 PUSH2 0x1E7E JUMP JUMPDEST PUSH1 0x3 SLOAD PUSH1 0x2 SWAP1 PUSH1 0xFF AND DUP2 DUP2 GT ISZERO PUSH2 0x603 JUMPI PUSH2 0x603 PUSH2 0x1CEA JUMP JUMPDEST DUP2 PUSH1 0x2 DUP2 GT ISZERO PUSH2 0x615 JUMPI PUSH2 0x615 PUSH2 0x1CEA JUMP JUMPDEST EQ PUSH2 0x632 JUMPI PUSH1 0x40 MLOAD PUSH3 0x461BCD PUSH1 0xE5 SHL DUP2 MSTORE PUSH1 0x4 ADD PUSH2 0x393 SWAP1 PUSH2 0x1EC0 JUMP JUMPDEST PUSH1 0x8 SLOAD PUSH1 0xFF AND PUSH2 0x65E JUMPI PUSH1 0x7 SLOAD DUP4 LT ISZERO PUSH2 0x65E JUMPI PUSH1 0x40 MLOAD PUSH3 0x461BCD PUSH1 0xE5 SHL DUP2 MSTORE PUSH1 0x4 ADD PUSH2 0x393 SWAP1 PUSH2 0x1F01 JUMP JUMPDEST PUSH2 0x4E7 DUP4 PUSH2 0x14AD JUMP JUMPDEST TIMESTAMP PUSH1 0x2 SLOAD LT DUP1 PUSH2 0x67B JUMPI POP PUSH1 0x7 SLOAD PUSH1 0x1 SLOAD LT ISZERO JUMPDEST PUSH2 0x6BE JUMPI PUSH1 0x40 MLOAD PUSH3 0x461BCD PUSH1 0xE5 SHL DUP2 MSTORE PUSH1 0x20 PUSH1 0x4 DUP3 ADD MSTORE PUSH1 0x14 PUSH1 0x24 DUP3 ADD MSTORE PUSH20 0x537943726F774261727465723A20414354495645 PUSH1 0x60 SHL PUSH1 0x44 DUP3 ADD MSTORE PUSH1 0x64 ADD PUSH2 0x393 JUMP JUMPDEST PUSH1 0x3 SLOAD PUSH1 0x1 PUSH1 0xA8 SHL SWAP1 DIV PUSH1 0xFF AND PUSH2 0x6E7 JUMPI PUSH1 0x40 MLOAD PUSH3 0x461BCD PUSH1 0xE5 SHL DUP2 MSTORE PUSH1 0x4 ADD PUSH2 0x393 SWAP1 PUSH2 0x1E2A JUMP JUMPDEST PUSH1 0x0 SLOAD PUSH1 0x1 PUSH1 0x1 PUSH1 0xA0 SHL SUB AND CALLER EQ PUSH2 0x711 JUMPI PUSH1 0x40 MLOAD PUSH3 0x461BCD PUSH1 0xE5 SHL DUP2 MSTORE PUSH1 0x4 ADD PUSH2 0x393 SWAP1 PUSH2 0x1F4A JUMP JUMPDEST PUSH1 0x3 SLOAD PUSH1 0x40 MLOAD PUSH4 0x70A08231 PUSH1 0xE0 SHL DUP2 MSTORE ADDRESS PUSH1 0x4 DUP3 ADD MSTORE PUSH2 0x100 SWAP1 SWAP2 DIV PUSH1 0x1 PUSH1 0x1 PUSH1 0xA0 SHL SUB AND SWAP1 PUSH1 0x0 SWAP1 DUP3 SWAP1 PUSH4 0x70A08231 SWAP1 PUSH1 0x24 ADD PUSH1 0x20 PUSH1 0x40 MLOAD DUP1 DUP4 SUB DUP2 DUP7 GAS STATICCALL ISZERO DUP1 ISZERO PUSH2 0x762 JUMPI RETURNDATASIZE PUSH1 0x0 DUP1 RETURNDATACOPY RETURNDATASIZE PUSH1 0x0 REVERT JUMPDEST POP POP POP POP PUSH1 0x40 MLOAD RETURNDATASIZE PUSH1 0x1F NOT PUSH1 0x1F DUP3 ADD AND DUP3 ADD DUP1 PUSH1 0x40 MSTORE POP DUP2 ADD SWAP1 PUSH2 0x786 SWAP2 SWAP1 PUSH2 0x1F7F JUMP JUMPDEST SWAP1 POP DUP1 ISZERO PUSH2 0x7FA JUMPI PUSH1 0x3 SLOAD PUSH1 0x40 MLOAD PUSH4 0x2E1A7D4D PUSH1 0xE0 SHL DUP2 MSTORE PUSH1 0x4 DUP2 ADD DUP4 SWAP1 MSTORE PUSH2 0x100 SWAP1 SWAP2 DIV PUSH1 0x1 PUSH1 0x1 PUSH1 0xA0 SHL SUB AND SWAP1 PUSH4 0x2E1A7D4D SWAP1 PUSH1 0x24 ADD PUSH1 0x0 PUSH1 0x40 MLOAD DUP1 DUP4 SUB DUP2 PUSH1 0x0 DUP8 DUP1 EXTCODESIZE ISZERO DUP1 ISZERO PUSH2 0x7D8 JUMPI PUSH1 0x0 DUP1 REVERT JUMPDEST POP GAS CALL ISZERO DUP1 ISZERO PUSH2 0x7EC JUMPI RETURNDATASIZE PUSH1 0x0 DUP1 RETURNDATACOPY RETURNDATASIZE PUSH1 0x0 REVERT JUMPDEST POP POP POP POP PUSH2 0x7FA CALLER DUP3 PUSH2 0x173F JUMP JUMPDEST PUSH1 0x5 SLOAD PUSH1 0x40 MLOAD PUSH4 0x70A08231 PUSH1 0xE0 SHL DUP2 MSTORE ADDRESS PUSH1 0x4 DUP3 ADD MSTORE PUSH1 0x0 SWAP2 PUSH1 0x1 PUSH1 0x1 PUSH1 0xA0 SHL SUB AND SWAP1 PUSH4 0x70A08231 SWAP1 PUSH1 0x24 ADD PUSH1 0x20 PUSH1 0x40 MLOAD DUP1 DUP4 SUB DUP2 DUP7 GAS STATICCALL ISZERO DUP1 ISZERO PUSH2 0x843 JUMPI RETURNDATASIZE PUSH1 0x0 DUP1 RETURNDATACOPY RETURNDATASIZE PUSH1 0x0 REVERT JUMPDEST POP POP POP POP PUSH1 0x40 MLOAD RETURNDATASIZE PUSH1 0x1F NOT PUSH1 0x1F DUP3 ADD AND DUP3 ADD DUP1 PUSH1 0x40 MSTORE POP DUP2 ADD SWAP1 PUSH2 0x867 SWAP2 SWAP1 PUSH2 0x1F7F JUMP JUMPDEST SWAP1 POP DUP1 ISZERO PUSH2 0x886 JUMPI PUSH1 0x5 SLOAD PUSH2 0x886 SWAP1 PUSH1 0x1 PUSH1 0x1 PUSH1 0xA0 SHL SUB AND CALLER DUP4 PUSH2 0x1808 JUMP JUMPDEST PUSH1 0x4 DUP1 SLOAD PUSH1 0x40 MLOAD PUSH4 0x70A08231 PUSH1 0xE0 SHL DUP2 MSTORE ADDRESS SWAP3 DUP2 ADD SWAP3 SWAP1 SWAP3 MSTORE PUSH1 0x0 SWAP2 PUSH1 0x1 PUSH1 0x1 PUSH1 0xA0 SHL SUB SWAP1 SWAP2 AND SWAP1 PUSH4 0x70A08231 SWAP1 PUSH1 0x24 ADD PUSH1 0x20 PUSH1 0x40 MLOAD DUP1 DUP4 SUB DUP2 DUP7 GAS STATICCALL ISZERO DUP1 ISZERO PUSH2 0x8D4 JUMPI RETURNDATASIZE PUSH1 0x0 DUP1 RETURNDATACOPY RETURNDATASIZE PUSH1 0x0 REVERT JUMPDEST POP POP POP POP PUSH1 0x40 MLOAD RETURNDATASIZE PUSH1 0x1F NOT PUSH1 0x1F DUP3 ADD AND DUP3 ADD DUP1 PUSH1 0x40 MSTORE POP DUP2 ADD SWAP1 PUSH2 0x8F8 SWAP2 SWAP1 PUSH2 0x1F7F JUMP JUMPDEST SWAP1 POP DUP1 ISZERO PUSH2 0x917 JUMPI PUSH1 0x4 SLOAD PUSH2 0x917 SWAP1 PUSH1 0x1 PUSH1 0x1 PUSH1 0xA0 SHL SUB AND CALLER DUP4 PUSH2 0x1808 JUMP JUMPDEST PUSH1 0x0 DUP1 DUP1 PUSH1 0x3 SLOAD PUSH1 0xFF AND PUSH1 0x2 DUP2 GT ISZERO PUSH2 0x932 JUMPI PUSH2 0x932 PUSH2 0x1CEA JUMP JUMPDEST SUB PUSH2 0x941 JUMPI POP DUP4 SWAP1 POP DUP3 PUSH2 0x96F JUMP JUMPDEST PUSH1 0x2 PUSH1 0x3 SLOAD PUSH1 0xFF AND PUSH1 0x2 DUP2 GT ISZERO PUSH2 0x95A JUMPI PUSH2 0x95A PUSH2 0x1CEA JUMP JUMPDEST SUB PUSH2 0x969 JUMPI POP DUP2 SWAP1 POP DUP3 PUSH2 0x96F JUMP JUMPDEST POP DUP2 SWAP1 POP DUP4 JUMPDEST PUSH1 0x40 MLOAD PUSH4 0x19BCB507 PUSH1 0xE1 SHL DUP2 MSTORE PUSH32 0x0 SWAP1 PUSH1 0x1 PUSH1 0x1 PUSH1 0xA0 SHL SUB DUP3 AND SWAP1 PUSH4 0x33796A0E SWAP1 PUSH2 0x9C3 SWAP1 ADDRESS SWAP1 CALLER SWAP1 DUP9 SWAP1 DUP9 SWAP1 PUSH1 0x4 ADD PUSH2 0x1F98 JUMP JUMPDEST PUSH1 0x0 PUSH1 0x40 MLOAD DUP1 DUP4 SUB DUP2 PUSH1 0x0 DUP8 DUP1 EXTCODESIZE ISZERO DUP1 ISZERO PUSH2 0x9DD JUMPI PUSH1 0x0 DUP1 REVERT JUMPDEST POP GAS CALL ISZERO DUP1 ISZERO PUSH2 0x9F1 JUMPI RETURNDATASIZE PUSH1 0x0 DUP1 RETURNDATACOPY RETURNDATASIZE PUSH1 0x0 REVERT JUMPDEST POP POP POP POP POP POP POP POP POP POP POP JUMP JUMPDEST PUSH1 0x3 SLOAD PUSH1 0x0 SWAP1 DUP2 SWAP1 PUSH1 0x1 PUSH1 0xA8 SHL SWAP1 DIV PUSH1 0xFF AND PUSH2 0xA2C JUMPI PUSH1 0x40 MLOAD PUSH3 0x461BCD PUSH1 0xE5 SHL DUP2 MSTORE PUSH1 0x4 ADD PUSH2 0x393 SWAP1 PUSH2 0x1E2A JUMP JUMPDEST POP POP PUSH1 0x6 SLOAD PUSH1 0x7 SLOAD SWAP1 SWAP2 JUMP JUMPDEST TIMESTAMP PUSH1 0x2 SLOAD LT ISZERO DUP1 ISZERO PUSH2 0xA4D JUMPI POP PUSH1 0x7 SLOAD PUSH1 0x1 SLOAD LT JUMPDEST PUSH2 0xA69 JUMPI PUSH1 0x40 MLOAD PUSH3 0x461BCD PUSH1 0xE5 SHL DUP2 MSTORE PUSH1 0x4 ADD PUSH2 0x393 SWAP1 PUSH2 0x1DFA JUMP JUMPDEST PUSH1 0x3 SLOAD PUSH1 0x1 PUSH1 0xA8 SHL SWAP1 DIV PUSH1 0xFF AND PUSH2 0xA92 JUMPI PUSH1 0x40 MLOAD PUSH3 0x461BCD PUSH1 0xE5 SHL DUP2 MSTORE PUSH1 0x4 ADD PUSH2 0x393 SWAP1 PUSH2 0x1E2A JUMP JUMPDEST PUSH1 0x0 PUSH32 0x0 SWAP1 POP DUP1 PUSH1 0x1 PUSH1 0x1 PUSH1 0xA0 SHL SUB AND PUSH4 0xB187BD26 PUSH1 0x40 MLOAD DUP2 PUSH4 0xFFFFFFFF AND PUSH1 0xE0 SHL DUP2 MSTORE PUSH1 0x4 ADD PUSH1 0x20 PUSH1 0x40 MLOAD DUP1 DUP4 SUB DUP2 DUP7 GAS STATICCALL ISZERO DUP1 ISZERO PUSH2 0xAF5 JUMPI RETURNDATASIZE PUSH1 0x0 DUP1 RETURNDATACOPY RETURNDATASIZE PUSH1 0x0 REVERT JUMPDEST POP POP POP POP PUSH1 0x40 MLOAD RETURNDATASIZE PUSH1 0x1F NOT PUSH1 0x1F DUP3 ADD AND DUP3 ADD DUP1 PUSH1 0x40 MSTORE POP DUP2 ADD SWAP1 PUSH2 0xB19 SWAP2 SWAP1 PUSH2 0x1E61 JUMP JUMPDEST ISZERO PUSH2 0xB36 JUMPI PUSH1 0x40 MLOAD PUSH3 0x461BCD PUSH1 0xE5 SHL DUP2 MSTORE PUSH1 0x4 ADD PUSH2 0x393 SWAP1 PUSH2 0x1E7E JUMP JUMPDEST PUSH1 0x3 SLOAD PUSH1 0x1 SWAP1 PUSH1 0xFF AND PUSH1 0x2 DUP2 GT ISZERO PUSH2 0xB50 JUMPI PUSH2 0xB50 PUSH2 0x1CEA JUMP JUMPDEST DUP2 PUSH1 0x2 DUP2 GT ISZERO PUSH2 0xB62 JUMPI PUSH2 0xB62 PUSH2 0x1CEA JUMP JUMPDEST EQ PUSH2 0xB7F JUMPI PUSH1 0x40 MLOAD PUSH3 0x461BCD PUSH1 0xE5 SHL DUP2 MSTORE PUSH1 0x4 ADD PUSH2 0x393 SWAP1 PUSH2 0x1EC0 JUMP JUMPDEST PUSH1 0x8 SLOAD PUSH1 0xFF AND PUSH2 0xBAB JUMPI PUSH1 0x7 SLOAD CALLVALUE LT ISZERO PUSH2 0xBAB JUMPI PUSH1 0x40 MLOAD PUSH3 0x461BCD PUSH1 0xE5 SHL DUP2 MSTORE PUSH1 0x4 ADD PUSH2 0x393 SWAP1 PUSH2 0x1F01 JUMP JUMPDEST PUSH2 0x4E7 DUP4 PUSH2 0x1923 JUMP JUMPDEST PUSH1 0x0 CALLER PUSH1 0x1 PUSH1 0x1 PUSH1 0xA0 SHL SUB PUSH32 0x0 AND EQ PUSH2 0xC2E JUMPI PUSH1 0x40 MLOAD PUSH3 0x461BCD PUSH1 0xE5 SHL DUP2 MSTORE PUSH1 0x20 PUSH1 0x4 DUP3 ADD MSTORE PUSH1 0x17 PUSH1 0x24 DUP3 ADD MSTORE PUSH32 0x537943726F774261727465723A20464F5242494444454E000000000000000000 PUSH1 0x44 DUP3 ADD MSTORE PUSH1 0x64 ADD PUSH2 0x393 JUMP JUMPDEST PUSH1 0x3 SLOAD PUSH1 0x1 PUSH1 0xA8 SHL SWAP1 DIV PUSH1 0xFF AND ISZERO PUSH2 0xC92 JUMPI PUSH1 0x40 MLOAD PUSH3 0x461BCD PUSH1 0xE5 SHL DUP2 MSTORE PUSH1 0x20 PUSH1 0x4 DUP3 ADD MSTORE PUSH1 0x21 PUSH1 0x24 DUP3 ADD MSTORE PUSH32 0x537943726F774261727465723A20414C52454144595F494E495449414C495A45 PUSH1 0x44 DUP3 ADD MSTORE PUSH1 0x11 PUSH1 0xFA SHL PUSH1 0x64 DUP3 ADD MSTORE PUSH1 0x84 ADD PUSH2 0x393 JUMP JUMPDEST TIMESTAMP DUP5 LT ISZERO PUSH2 0xCE2 JUMPI PUSH1 0x40 MLOAD PUSH3 0x461BCD PUSH1 0xE5 SHL DUP2 MSTORE PUSH1 0x20 PUSH1 0x4 DUP3 ADD MSTORE PUSH1 0x1B PUSH1 0x24 DUP3 ADD MSTORE PUSH32 0x537943726F774261727465723A20504153545F444541444C494E450000000000 PUSH1 0x44 DUP3 ADD MSTORE PUSH1 0x64 ADD PUSH2 0x393 JUMP JUMPDEST PUSH1 0x40 MLOAD PUSH4 0x70A08231 PUSH1 0xE0 SHL DUP2 MSTORE ADDRESS PUSH1 0x4 DUP3 ADD MSTORE DUP7 SWAP1 PUSH1 0x1 PUSH1 0x1 PUSH1 0xA0 SHL SUB DUP11 AND SWAP1 PUSH4 0x70A08231 SWAP1 PUSH1 0x24 ADD PUSH1 0x20 PUSH1 0x40 MLOAD DUP1 DUP4 SUB DUP2 DUP7 GAS STATICCALL ISZERO DUP1 ISZERO PUSH2 0xD28 JUMPI RETURNDATASIZE PUSH1 0x0 DUP1 RETURNDATACOPY RETURNDATASIZE PUSH1 0x0 REVERT JUMPDEST POP POP POP POP PUSH1 0x40 MLOAD RETURNDATASIZE PUSH1 0x1F NOT PUSH1 0x1F DUP3 ADD AND DUP3 ADD DUP1 PUSH1 0x40 MSTORE POP DUP2 ADD SWAP1 PUSH2 0xD4C SWAP2 SWAP1 PUSH2 0x1F7F JUMP JUMPDEST LT ISZERO PUSH2 0xDA5 JUMPI PUSH1 0x40 MLOAD PUSH3 0x461BCD PUSH1 0xE5 SHL DUP2 MSTORE PUSH1 0x20 PUSH1 0x4 DUP3 ADD MSTORE PUSH1 0x22 PUSH1 0x24 DUP3 ADD MSTORE PUSH32 0x537943726F774261727465723A20494E53554646494349454E545F4445504F53 PUSH1 0x44 DUP3 ADD MSTORE PUSH2 0x1255 PUSH1 0xF2 SHL PUSH1 0x64 DUP3 ADD MSTORE PUSH1 0x84 ADD PUSH2 0x393 JUMP JUMPDEST PUSH1 0x2 DUP5 DUP2 SSTORE PUSH1 0x4 DUP1 SLOAD PUSH1 0x1 PUSH1 0x1 PUSH1 0xA0 SHL SUB DUP1 DUP13 AND PUSH1 0x1 PUSH1 0x1 PUSH1 0xA0 SHL SUB NOT SWAP3 DUP4 AND OR SWAP1 SWAP3 SSTORE PUSH1 0x5 DUP1 SLOAD SWAP3 DUP12 AND SWAP3 SWAP1 SWAP2 AND SWAP2 SWAP1 SWAP2 OR SWAP1 SSTORE PUSH1 0x6 DUP8 SWAP1 SSTORE PUSH1 0x7 DUP7 SWAP1 SSTORE PUSH1 0x3 DUP1 SLOAD DUP12 SWAP3 PUSH1 0xFF NOT SWAP1 SWAP2 AND SWAP1 PUSH1 0x1 SWAP1 DUP5 SWAP1 DUP2 GT ISZERO PUSH2 0xE05 JUMPI PUSH2 0xE05 PUSH2 0x1CEA JUMP JUMPDEST MUL OR SWAP1 SSTORE POP POP PUSH1 0x8 DUP1 SLOAD DUP4 ISZERO ISZERO PUSH1 0xFF NOT SWAP1 SWAP2 AND OR SWAP1 SSTORE PUSH1 0x3 DUP1 SLOAD PUSH1 0xFF PUSH1 0xA8 SHL NOT PUSH1 0x1 PUSH1 0x1 PUSH1 0xA0 SHL SUB DUP5 AND PUSH2 0x100 MUL AND PUSH2 0x100 PUSH1 0x1 PUSH1 0xB0 SHL SUB NOT SWAP1 SWAP2 AND OR PUSH1 0x1 PUSH1 0xA8 SHL SWAP1 DUP2 OR SWAP2 DUP3 SWAP1 SSTORE SWAP1 DIV PUSH1 0xFF AND SWAP9 SWAP8 POP POP POP POP POP POP POP POP JUMP JUMPDEST PUSH1 0x0 SLOAD PUSH1 0x1 PUSH1 0x1 PUSH1 0xA0 SHL SUB AND CALLER EQ PUSH2 0xE89 JUMPI PUSH1 0x40 MLOAD PUSH3 0x461BCD PUSH1 0xE5 SHL DUP2 MSTORE PUSH1 0x4 ADD PUSH2 0x393 SWAP1 PUSH2 0x1F4A JUMP JUMPDEST PUSH2 0xE93 PUSH1 0x0 PUSH2 0x1A9D JUMP JUMPDEST JUMP JUMPDEST PUSH1 0x3 SLOAD PUSH1 0x0 SWAP1 DUP2 SWAP1 PUSH1 0x1 PUSH1 0xA8 SHL SWAP1 DIV PUSH1 0xFF AND PUSH2 0xEC3 JUMPI PUSH1 0x40 MLOAD PUSH3 0x461BCD PUSH1 0xE5 SHL DUP2 MSTORE PUSH1 0x4 ADD PUSH2 0x393 SWAP1 PUSH2 0x1E2A JUMP JUMPDEST POP POP PUSH1 0x4 SLOAD PUSH1 0x5 SLOAD PUSH1 0x1 PUSH1 0x1 PUSH1 0xA0 SHL SUB SWAP2 DUP3 AND SWAP2 AND SWAP1 SWAP2 JUMP JUMPDEST PUSH1 0x0 PUSH1 0x7 SLOAD PUSH1 0x6 SLOAD DUP4 PUSH2 0xEEF SWAP2 SWAP1 PUSH2 0x1FD7 JUMP JUMPDEST PUSH2 0xEF9 SWAP2 SWAP1 PUSH2 0x1FF6 JUMP JUMPDEST SWAP3 SWAP2 POP POP JUMP JUMPDEST PUSH1 0x60 DUP1 PUSH1 0x60 PUSH1 0x3 PUSH1 0x15 SWAP1 SLOAD SWAP1 PUSH2 0x100 EXP SWAP1 DIV PUSH1 0xFF AND PUSH2 0xF30 JUMPI PUSH1 0x40 MLOAD PUSH3 0x461BCD PUSH1 0xE5 SHL DUP2 MSTORE PUSH1 0x4 ADD PUSH2 0x393 SWAP1 PUSH2 0x1E2A JUMP JUMPDEST PUSH1 0x9 SLOAD PUSH1 0x0 SWAP1 PUSH8 0xFFFFFFFFFFFFFFFF DUP2 GT ISZERO PUSH2 0xF4E JUMPI PUSH2 0xF4E PUSH2 0x2018 JUMP JUMPDEST PUSH1 0x40 MLOAD SWAP1 DUP1 DUP3 MSTORE DUP1 PUSH1 0x20 MUL PUSH1 0x20 ADD DUP3 ADD PUSH1 0x40 MSTORE DUP1 ISZERO PUSH2 0xF77 JUMPI DUP2 PUSH1 0x20 ADD PUSH1 0x20 DUP3 MUL DUP1 CALLDATASIZE DUP4 CALLDATACOPY ADD SWAP1 POP JUMPDEST POP PUSH1 0x9 SLOAD SWAP1 SWAP2 POP PUSH1 0x0 SWAP1 PUSH8 0xFFFFFFFFFFFFFFFF DUP2 GT ISZERO PUSH2 0xF99 JUMPI PUSH2 0xF99 PUSH2 0x2018 JUMP JUMPDEST PUSH1 0x40 MLOAD SWAP1 DUP1 DUP3 MSTORE DUP1 PUSH1 0x20 MUL PUSH1 0x20 ADD DUP3 ADD PUSH1 0x40 MSTORE DUP1 ISZERO PUSH2 0xFC2 JUMPI DUP2 PUSH1 0x20 ADD PUSH1 0x20 DUP3 MUL DUP1 CALLDATASIZE DUP4 CALLDATACOPY ADD SWAP1 POP JUMPDEST POP PUSH1 0x9 SLOAD SWAP1 SWAP2 POP PUSH1 0x0 SWAP1 PUSH8 0xFFFFFFFFFFFFFFFF DUP2 GT ISZERO PUSH2 0xFE4 JUMPI PUSH2 0xFE4 PUSH2 0x2018 JUMP JUMPDEST PUSH1 0x40 MLOAD SWAP1 DUP1 DUP3 MSTORE DUP1 PUSH1 0x20 MUL PUSH1 0x20 ADD DUP3 ADD PUSH1 0x40 MSTORE DUP1 ISZERO PUSH2 0x100D JUMPI DUP2 PUSH1 0x20 ADD PUSH1 0x20 DUP3 MUL DUP1 CALLDATASIZE DUP4 CALLDATACOPY ADD SWAP1 POP JUMPDEST POP SWAP1 POP PUSH1 0x0 JUMPDEST PUSH1 0x9 SLOAD DUP2 LT ISZERO PUSH2 0x1118 JUMPI PUSH1 0x9 DUP2 DUP2 SLOAD DUP2 LT PUSH2 0x1030 JUMPI PUSH2 0x1030 PUSH2 0x202E JUMP JUMPDEST PUSH1 0x0 SWAP2 DUP3 MSTORE PUSH1 0x20 SWAP1 SWAP2 KECCAK256 PUSH1 0x3 SWAP1 SWAP2 MUL ADD SLOAD DUP5 MLOAD PUSH1 0x1 PUSH1 0x1 PUSH1 0xA0 SHL SUB SWAP1 SWAP2 AND SWAP1 DUP6 SWAP1 DUP4 SWAP1 DUP2 LT PUSH2 0x1061 JUMPI PUSH2 0x1061 PUSH2 0x202E JUMP JUMPDEST PUSH1 0x20 MUL PUSH1 0x20 ADD ADD SWAP1 PUSH1 0x1 PUSH1 0x1 PUSH1 0xA0 SHL SUB AND SWAP1 DUP2 PUSH1 0x1 PUSH1 0x1 PUSH1 0xA0 SHL SUB AND DUP2 MSTORE POP POP PUSH1 0x9 DUP2 DUP2 SLOAD DUP2 LT PUSH2 0x1094 JUMPI PUSH2 0x1094 PUSH2 0x202E JUMP JUMPDEST SWAP1 PUSH1 0x0 MSTORE PUSH1 0x20 PUSH1 0x0 KECCAK256 SWAP1 PUSH1 0x3 MUL ADD PUSH1 0x1 ADD SLOAD DUP4 DUP3 DUP2 MLOAD DUP2 LT PUSH2 0x10B8 JUMPI PUSH2 0x10B8 PUSH2 0x202E JUMP JUMPDEST PUSH1 0x20 MUL PUSH1 0x20 ADD ADD DUP2 DUP2 MSTORE POP POP PUSH1 0x9 DUP2 DUP2 SLOAD DUP2 LT PUSH2 0x10D7 JUMPI PUSH2 0x10D7 PUSH2 0x202E JUMP JUMPDEST SWAP1 PUSH1 0x0 MSTORE PUSH1 0x20 PUSH1 0x0 KECCAK256 SWAP1 PUSH1 0x3 MUL ADD PUSH1 0x2 ADD SLOAD DUP3 DUP3 DUP2 MLOAD DUP2 LT PUSH2 0x10FB JUMPI PUSH2 0x10FB PUSH2 0x202E JUMP JUMPDEST PUSH1 0x20 SWAP1 DUP2 MUL SWAP2 SWAP1 SWAP2 ADD ADD MSTORE DUP1 PUSH2 0x1110 DUP2 PUSH2 0x2044 JUMP JUMPDEST SWAP2 POP POP PUSH2 0x1013 JUMP JUMPDEST POP SWAP2 SWAP5 POP SWAP3 POP SWAP1 POP SWAP1 SWAP2 SWAP3 JUMP JUMPDEST PUSH1 0x0 SLOAD PUSH1 0x1 PUSH1 0x1 PUSH1 0xA0 SHL SUB AND CALLER EQ PUSH2 0x114F JUMPI PUSH1 0x40 MLOAD PUSH3 0x461BCD PUSH1 0xE5 SHL DUP2 MSTORE PUSH1 0x4 ADD PUSH2 0x393 SWAP1 PUSH2 0x1F4A JUMP JUMPDEST PUSH1 0x1 PUSH1 0x1 PUSH1 0xA0 SHL SUB DUP2 AND PUSH2 0x11B4 JUMPI PUSH1 0x40 MLOAD PUSH3 0x461BCD PUSH1 0xE5 SHL DUP2 MSTORE PUSH1 0x20 PUSH1 0x4 DUP3 ADD MSTORE PUSH1 0x26 PUSH1 0x24 DUP3 ADD MSTORE PUSH32 0x4F776E61626C653A206E6577206F776E657220697320746865207A65726F2061 PUSH1 0x44 DUP3 ADD MSTORE PUSH6 0x646472657373 PUSH1 0xD0 SHL PUSH1 0x64 DUP3 ADD MSTORE PUSH1 0x84 ADD PUSH2 0x393 JUMP JUMPDEST PUSH2 0x11BD DUP2 PUSH2 0x1A9D JUMP JUMPDEST POP JUMP JUMPDEST PUSH1 0x5 SLOAD PUSH1 0x40 MLOAD PUSH4 0x70A08231 PUSH1 0xE0 SHL DUP2 MSTORE CALLER PUSH1 0x4 DUP3 ADD MSTORE DUP3 SWAP2 PUSH1 0x1 PUSH1 0x1 PUSH1 0xA0 SHL SUB AND SWAP1 PUSH4 0x70A08231 SWAP1 PUSH1 0x24 ADD PUSH1 0x20 PUSH1 0x40 MLOAD DUP1 DUP4 SUB DUP2 DUP7 GAS STATICCALL ISZERO DUP1 ISZERO PUSH2 0x1208 JUMPI RETURNDATASIZE PUSH1 0x0 DUP1 RETURNDATACOPY RETURNDATASIZE PUSH1 0x0 REVERT JUMPDEST POP POP POP POP PUSH1 0x40 MLOAD RETURNDATASIZE PUSH1 0x1F NOT PUSH1 0x1F DUP3 ADD AND DUP3 ADD DUP1 PUSH1 0x40 MSTORE POP DUP2 ADD SWAP1 PUSH2 0x122C SWAP2 SWAP1 PUSH2 0x1F7F JUMP JUMPDEST LT ISZERO PUSH2 0x124A JUMPI PUSH1 0x40 MLOAD PUSH3 0x461BCD PUSH1 0xE5 SHL DUP2 MSTORE PUSH1 0x4 ADD PUSH2 0x393 SWAP1 PUSH2 0x205D JUMP JUMPDEST PUSH1 0x0 PUSH2 0x1255 DUP3 PUSH2 0xEDC JUMP JUMPDEST PUSH1 0x3 SLOAD PUSH1 0x40 MLOAD PUSH4 0x70A08231 PUSH1 0xE0 SHL DUP2 MSTORE ADDRESS PUSH1 0x4 DUP3 ADD MSTORE SWAP2 SWAP3 POP PUSH2 0x100 SWAP1 DIV PUSH1 0x1 PUSH1 0x1 PUSH1 0xA0 SHL SUB AND SWAP1 DUP3 SWAP1 DUP3 SWAP1 PUSH4 0x70A08231 SWAP1 PUSH1 0x24 ADD PUSH1 0x20 PUSH1 0x40 MLOAD DUP1 DUP4 SUB DUP2 DUP7 GAS STATICCALL ISZERO DUP1 ISZERO PUSH2 0x12A7 JUMPI RETURNDATASIZE PUSH1 0x0 DUP1 RETURNDATACOPY RETURNDATASIZE PUSH1 0x0 REVERT JUMPDEST POP POP POP POP PUSH1 0x40 MLOAD RETURNDATASIZE PUSH1 0x1F NOT PUSH1 0x1F DUP3 ADD AND DUP3 ADD DUP1 PUSH1 0x40 MSTORE POP DUP2 ADD SWAP1 PUSH2 0x12CB SWAP2 SWAP1 PUSH2 0x1F7F JUMP JUMPDEST LT ISZERO PUSH2 0x12E9 JUMPI PUSH1 0x40 MLOAD PUSH3 0x461BCD PUSH1 0xE5 SHL DUP2 MSTORE PUSH1 0x4 ADD PUSH2 0x393 SWAP1 PUSH2 0x209F JUMP JUMPDEST PUSH1 0x3 SLOAD PUSH1 0x40 MLOAD PUSH4 0x2E1A7D4D PUSH1 0xE0 SHL DUP2 MSTORE PUSH1 0x4 DUP2 ADD DUP5 SWAP1 MSTORE PUSH2 0x100 SWAP1 SWAP2 DIV PUSH1 0x1 PUSH1 0x1 PUSH1 0xA0 SHL SUB AND SWAP1 PUSH4 0x2E1A7D4D SWAP1 PUSH1 0x24 ADD PUSH1 0x0 PUSH1 0x40 MLOAD DUP1 DUP4 SUB DUP2 PUSH1 0x0 DUP8 DUP1 EXTCODESIZE ISZERO DUP1 ISZERO PUSH2 0x1333 JUMPI PUSH1 0x0 DUP1 REVERT JUMPDEST POP GAS CALL ISZERO DUP1 ISZERO PUSH2 0x1347 JUMPI RETURNDATASIZE PUSH1 0x0 DUP1 RETURNDATACOPY RETURNDATASIZE PUSH1 0x0 REVERT JUMPDEST POP POP PUSH1 0x5 SLOAD PUSH2 0x1364 SWAP3 POP PUSH1 0x1 PUSH1 0x1 PUSH1 0xA0 SHL SUB AND SWAP1 POP CALLER ADDRESS DUP7 PUSH2 0x1AED JUMP JUMPDEST PUSH2 0x136E CALLER DUP4 PUSH2 0x173F JUMP JUMPDEST PUSH1 0x40 DUP1 MLOAD PUSH1 0x60 DUP2 ADD DUP3 MSTORE CALLER DUP1 DUP3 MSTORE PUSH1 0x20 DUP3 ADD DUP7 DUP2 MSTORE DUP3 DUP5 ADD DUP7 DUP2 MSTORE PUSH1 0x9 DUP1 SLOAD PUSH1 0x1 DUP2 ADD DUP3 SSTORE PUSH1 0x0 SWAP2 SWAP1 SWAP2 MSTORE SWAP4 MLOAD PUSH1 0x3 SWAP1 SWAP5 MUL PUSH32 0x6E1540171B6C0C960B71A7020D9F60077F6AF931A8BBF590DA0223DACF75C7AF DUP2 ADD DUP1 SLOAD PUSH1 0x1 PUSH1 0x1 PUSH1 0xA0 SHL SUB SWAP7 DUP8 AND PUSH1 0x1 PUSH1 0x1 PUSH1 0xA0 SHL SUB NOT SWAP1 SWAP2 AND OR SWAP1 SSTORE SWAP2 MLOAD PUSH32 0x6E1540171B6C0C960B71A7020D9F60077F6AF931A8BBF590DA0223DACF75C7B0 DUP4 ADD SSTORE MLOAD PUSH32 0x6E1540171B6C0C960B71A7020D9F60077F6AF931A8BBF590DA0223DACF75C7B1 SWAP1 SWAP2 ADD SSTORE SWAP2 MLOAD PUSH4 0xF52701B7 PUSH1 0xE0 SHL DUP2 MSTORE PUSH32 0x0 SWAP3 SWAP2 DUP4 AND SWAP2 PUSH4 0xF52701B7 SWAP2 PUSH2 0x1475 SWAP2 ADDRESS SWAP2 DUP10 SWAP1 DUP10 SWAP1 PUSH1 0x4 ADD PUSH2 0x1F98 JUMP JUMPDEST PUSH1 0x0 PUSH1 0x40 MLOAD DUP1 DUP4 SUB DUP2 PUSH1 0x0 DUP8 DUP1 EXTCODESIZE ISZERO DUP1 ISZERO PUSH2 0x148F JUMPI PUSH1 0x0 DUP1 REVERT JUMPDEST POP GAS CALL ISZERO DUP1 ISZERO PUSH2 0x14A3 JUMPI RETURNDATASIZE PUSH1 0x0 DUP1 RETURNDATACOPY RETURNDATASIZE PUSH1 0x0 REVERT JUMPDEST POP POP POP POP POP POP POP POP JUMP JUMPDEST PUSH1 0x5 SLOAD PUSH1 0x40 MLOAD PUSH4 0x70A08231 PUSH1 0xE0 SHL DUP2 MSTORE CALLER PUSH1 0x4 DUP3 ADD MSTORE DUP3 SWAP2 PUSH1 0x1 PUSH1 0x1 PUSH1 0xA0 SHL SUB AND SWAP1 PUSH4 0x70A08231 SWAP1 PUSH1 0x24 ADD PUSH1 0x20 PUSH1 0x40 MLOAD DUP1 DUP4 SUB DUP2 DUP7 GAS STATICCALL ISZERO DUP1 ISZERO PUSH2 0x14F5 JUMPI RETURNDATASIZE PUSH1 0x0 DUP1 RETURNDATACOPY RETURNDATASIZE PUSH1 0x0 REVERT JUMPDEST POP POP POP POP PUSH1 0x40 MLOAD RETURNDATASIZE PUSH1 0x1F NOT PUSH1 0x1F DUP3 ADD AND DUP3 ADD DUP1 PUSH1 0x40 MSTORE POP DUP2 ADD SWAP1 PUSH2 0x1519 SWAP2 SWAP1 PUSH2 0x1F7F JUMP JUMPDEST LT ISZERO PUSH2 0x1537 JUMPI PUSH1 0x40 MLOAD PUSH3 0x461BCD PUSH1 0xE5 SHL DUP2 MSTORE PUSH1 0x4 ADD PUSH2 0x393 SWAP1 PUSH2 0x205D JUMP JUMPDEST PUSH1 0x0 PUSH2 0x1542 DUP3 PUSH2 0xEDC JUMP JUMPDEST PUSH1 0x4 DUP1 SLOAD PUSH1 0x40 MLOAD PUSH4 0x70A08231 PUSH1 0xE0 SHL DUP2 MSTORE ADDRESS SWAP3 DUP2 ADD SWAP3 SWAP1 SWAP3 MSTORE SWAP2 SWAP3 POP DUP3 SWAP2 PUSH1 0x1 PUSH1 0x1 PUSH1 0xA0 SHL SUB AND SWAP1 PUSH4 0x70A08231 SWAP1 PUSH1 0x24 ADD PUSH1 0x20 PUSH1 0x40 MLOAD DUP1 DUP4 SUB DUP2 DUP7 GAS STATICCALL ISZERO DUP1 ISZERO PUSH2 0x1590 JUMPI RETURNDATASIZE PUSH1 0x0 DUP1 RETURNDATACOPY RETURNDATASIZE PUSH1 0x0 REVERT JUMPDEST POP POP POP POP PUSH1 0x40 MLOAD RETURNDATASIZE PUSH1 0x1F NOT PUSH1 0x1F DUP3 ADD AND DUP3 ADD DUP1 PUSH1 0x40 MSTORE POP DUP2 ADD SWAP1 PUSH2 0x15B4 SWAP2 SWAP1 PUSH2 0x1F7F JUMP JUMPDEST LT ISZERO PUSH2 0x15D2 JUMPI PUSH1 0x40 MLOAD PUSH3 0x461BCD PUSH1 0xE5 SHL DUP2 MSTORE PUSH1 0x4 ADD PUSH2 0x393 SWAP1 PUSH2 0x209F JUMP JUMPDEST PUSH1 0x5 SLOAD PUSH2 0x15EA SWAP1 PUSH1 0x1 PUSH1 0x1 PUSH1 0xA0 SHL SUB AND CALLER ADDRESS DUP6 PUSH2 0x1AED JUMP JUMPDEST PUSH1 0x4 SLOAD PUSH2 0x1601 SWAP1 PUSH1 0x1 PUSH1 0x1 PUSH1 0xA0 SHL SUB AND CALLER DUP4 PUSH2 0x1808 JUMP JUMPDEST PUSH1 0x40 DUP1 MLOAD PUSH1 0x60 DUP2 ADD DUP3 MSTORE CALLER DUP1 DUP3 MSTORE PUSH1 0x20 DUP3 ADD DUP6 DUP2 MSTORE DUP3 DUP5 ADD DUP6 DUP2 MSTORE PUSH1 0x9 DUP1 SLOAD PUSH1 0x1 DUP2 ADD DUP3 SSTORE PUSH1 0x0 SWAP2 SWAP1 SWAP2 MSTORE SWAP4 MLOAD PUSH1 0x3 SWAP1 SWAP5 MUL PUSH32 0x6E1540171B6C0C960B71A7020D9F60077F6AF931A8BBF590DA0223DACF75C7AF DUP2 ADD DUP1 SLOAD PUSH1 0x1 PUSH1 0x1 PUSH1 0xA0 SHL SUB SWAP7 DUP8 AND PUSH1 0x1 PUSH1 0x1 PUSH1 0xA0 SHL SUB NOT SWAP1 SWAP2 AND OR SWAP1 SSTORE SWAP2 MLOAD PUSH32 0x6E1540171B6C0C960B71A7020D9F60077F6AF931A8BBF590DA0223DACF75C7B0 DUP4 ADD SSTORE MLOAD PUSH32 0x6E1540171B6C0C960B71A7020D9F60077F6AF931A8BBF590DA0223DACF75C7B1 SWAP1 SWAP2 ADD SSTORE SWAP2 MLOAD PUSH4 0xF52701B7 PUSH1 0xE0 SHL DUP2 MSTORE PUSH32 0x0 SWAP3 SWAP2 DUP4 AND SWAP2 PUSH4 0xF52701B7 SWAP2 PUSH2 0x1708 SWAP2 ADDRESS SWAP2 DUP9 SWAP1 DUP9 SWAP1 PUSH1 0x4 ADD PUSH2 0x1F98 JUMP JUMPDEST PUSH1 0x0 PUSH1 0x40 MLOAD DUP1 DUP4 SUB DUP2 PUSH1 0x0 DUP8 DUP1 EXTCODESIZE ISZERO DUP1 ISZERO PUSH2 0x1722 JUMPI PUSH1 0x0 DUP1 REVERT JUMPDEST POP GAS CALL ISZERO DUP1 ISZERO PUSH2 0x1736 JUMPI RETURNDATASIZE PUSH1 0x0 DUP1 RETURNDATACOPY RETURNDATASIZE PUSH1 0x0 REVERT JUMPDEST POP POP POP POP POP POP POP JUMP JUMPDEST PUSH1 0x40 DUP1 MLOAD PUSH1 0x0 DUP1 DUP3 MSTORE PUSH1 0x20 DUP3 ADD SWAP1 SWAP3 MSTORE PUSH1 0x1 PUSH1 0x1 PUSH1 0xA0 SHL SUB DUP5 AND SWAP1 DUP4 SWAP1 PUSH1 0x40 MLOAD PUSH2 0x1769 SWAP2 SWAP1 PUSH2 0x20EA JUMP JUMPDEST PUSH1 0x0 PUSH1 0x40 MLOAD DUP1 DUP4 SUB DUP2 DUP6 DUP8 GAS CALL SWAP3 POP POP POP RETURNDATASIZE DUP1 PUSH1 0x0 DUP2 EQ PUSH2 0x17A6 JUMPI PUSH1 0x40 MLOAD SWAP2 POP PUSH1 0x1F NOT PUSH1 0x3F RETURNDATASIZE ADD AND DUP3 ADD PUSH1 0x40 MSTORE RETURNDATASIZE DUP3 MSTORE RETURNDATASIZE PUSH1 0x0 PUSH1 0x20 DUP5 ADD RETURNDATACOPY PUSH2 0x17AB JUMP JUMPDEST PUSH1 0x60 SWAP2 POP JUMPDEST POP POP SWAP1 POP DUP1 PUSH2 0x4E7 JUMPI PUSH1 0x40 MLOAD PUSH3 0x461BCD PUSH1 0xE5 SHL DUP2 MSTORE PUSH1 0x20 PUSH1 0x4 DUP3 ADD MSTORE PUSH1 0x23 PUSH1 0x24 DUP3 ADD MSTORE PUSH32 0x5472616E7366657248656C7065723A204554485F5452414E534645525F464149 PUSH1 0x44 DUP3 ADD MSTORE PUSH3 0x131151 PUSH1 0xEA SHL PUSH1 0x64 DUP3 ADD MSTORE PUSH1 0x84 ADD PUSH2 0x393 JUMP JUMPDEST PUSH1 0x40 DUP1 MLOAD PUSH1 0x1 PUSH1 0x1 PUSH1 0xA0 SHL SUB DUP5 DUP2 AND PUSH1 0x24 DUP4 ADD MSTORE PUSH1 0x44 DUP1 DUP4 ADD DUP6 SWAP1 MSTORE DUP4 MLOAD DUP1 DUP5 SUB SWAP1 SWAP2 ADD DUP2 MSTORE PUSH1 0x64 SWAP1 SWAP3 ADD DUP4 MSTORE PUSH1 0x20 DUP3 ADD DUP1 MLOAD PUSH1 0x1 PUSH1 0x1 PUSH1 0xE0 SHL SUB AND PUSH4 0xA9059CBB PUSH1 0xE0 SHL OR SWAP1 MSTORE SWAP2 MLOAD PUSH1 0x0 SWAP3 DUP4 SWAP3 SWAP1 DUP8 AND SWAP2 PUSH2 0x1864 SWAP2 SWAP1 PUSH2 0x20EA JUMP JUMPDEST PUSH1 0x0 PUSH1 0x40 MLOAD DUP1 DUP4 SUB DUP2 PUSH1 0x0 DUP7 GAS CALL SWAP2 POP POP RETURNDATASIZE DUP1 PUSH1 0x0 DUP2 EQ PUSH2 0x18A1 JUMPI PUSH1 0x40 MLOAD SWAP2 POP PUSH1 0x1F NOT PUSH1 0x3F RETURNDATASIZE ADD AND DUP3 ADD PUSH1 0x40 MSTORE RETURNDATASIZE DUP3 MSTORE RETURNDATASIZE PUSH1 0x0 PUSH1 0x20 DUP5 ADD RETURNDATACOPY PUSH2 0x18A6 JUMP JUMPDEST PUSH1 0x60 SWAP2 POP JUMPDEST POP SWAP2 POP SWAP2 POP DUP2 DUP1 ISZERO PUSH2 0x18D0 JUMPI POP DUP1 MLOAD ISZERO DUP1 PUSH2 0x18D0 JUMPI POP DUP1 DUP1 PUSH1 0x20 ADD SWAP1 MLOAD DUP2 ADD SWAP1 PUSH2 0x18D0 SWAP2 SWAP1 PUSH2 0x1E61 JUMP JUMPDEST PUSH2 0x191C JUMPI PUSH1 0x40 MLOAD PUSH3 0x461BCD PUSH1 0xE5 SHL DUP2 MSTORE PUSH1 0x20 PUSH1 0x4 DUP3 ADD MSTORE PUSH1 0x1F PUSH1 0x24 DUP3 ADD MSTORE PUSH32 0x5472616E7366657248656C7065723A205452414E534645525F4641494C454400 PUSH1 0x44 DUP3 ADD MSTORE PUSH1 0x64 ADD PUSH2 0x393 JUMP JUMPDEST POP POP POP POP POP JUMP JUMPDEST CALLVALUE DUP2 EQ PUSH2 0x1980 JUMPI PUSH1 0x40 MLOAD PUSH3 0x461BCD PUSH1 0xE5 SHL DUP2 MSTORE PUSH1 0x20 PUSH1 0x4 DUP3 ADD MSTORE PUSH1 0x25 PUSH1 0x24 DUP3 ADD MSTORE PUSH32 0x537943726F774261727465723A204D554C54495F54524144455F4E4F545F454E PUSH1 0x44 DUP3 ADD MSTORE PUSH5 0x1050931151 PUSH1 0xDA SHL PUSH1 0x64 DUP3 ADD MSTORE PUSH1 0x84 ADD PUSH2 0x393 JUMP JUMPDEST PUSH1 0x0 PUSH2 0x198B DUP3 PUSH2 0xEDC JUMP JUMPDEST PUSH1 0x4 DUP1 SLOAD PUSH1 0x40 MLOAD PUSH4 0x70A08231 PUSH1 0xE0 SHL DUP2 MSTORE ADDRESS SWAP3 DUP2 ADD SWAP3 SWAP1 SWAP3 MSTORE SWAP2 SWAP3 POP DUP3 SWAP2 PUSH1 0x1 PUSH1 0x1 PUSH1 0xA0 SHL SUB AND SWAP1 PUSH4 0x70A08231 SWAP1 PUSH1 0x24 ADD PUSH1 0x20 PUSH1 0x40 MLOAD DUP1 DUP4 SUB DUP2 DUP7 GAS STATICCALL ISZERO DUP1 ISZERO PUSH2 0x19D9 JUMPI RETURNDATASIZE PUSH1 0x0 DUP1 RETURNDATACOPY RETURNDATASIZE PUSH1 0x0 REVERT JUMPDEST POP POP POP POP PUSH1 0x40 MLOAD RETURNDATASIZE PUSH1 0x1F NOT PUSH1 0x1F DUP3 ADD AND DUP3 ADD DUP1 PUSH1 0x40 MSTORE POP DUP2 ADD SWAP1 PUSH2 0x19FD SWAP2 SWAP1 PUSH2 0x1F7F JUMP JUMPDEST LT ISZERO PUSH2 0x1A1B JUMPI PUSH1 0x40 MLOAD PUSH3 0x461BCD PUSH1 0xE5 SHL DUP2 MSTORE PUSH1 0x4 ADD PUSH2 0x393 SWAP1 PUSH2 0x209F JUMP JUMPDEST PUSH1 0x3 PUSH1 0x1 SWAP1 SLOAD SWAP1 PUSH2 0x100 EXP SWAP1 DIV PUSH1 0x1 PUSH1 0x1 PUSH1 0xA0 SHL SUB AND PUSH1 0x1 PUSH1 0x1 PUSH1 0xA0 SHL SUB AND PUSH4 0xD0E30DB0 DUP4 PUSH1 0x40 MLOAD DUP3 PUSH4 0xFFFFFFFF AND PUSH1 0xE0 SHL DUP2 MSTORE PUSH1 0x4 ADD PUSH1 0x0 PUSH1 0x40 MLOAD DUP1 DUP4 SUB DUP2 DUP6 DUP9 DUP1 EXTCODESIZE ISZERO DUP1 ISZERO PUSH2 0x1A6B JUMPI PUSH1 0x0 DUP1 REVERT JUMPDEST POP GAS CALL ISZERO DUP1 ISZERO PUSH2 0x1A7F JUMPI RETURNDATASIZE PUSH1 0x0 DUP1 RETURNDATACOPY RETURNDATASIZE PUSH1 0x0 REVERT JUMPDEST POP POP PUSH1 0x4 SLOAD PUSH2 0x1601 SWAP4 POP PUSH1 0x1 PUSH1 0x1 PUSH1 0xA0 SHL SUB AND SWAP2 POP CALLER SWAP1 POP DUP4 PUSH2 0x1808 JUMP JUMPDEST PUSH1 0x0 DUP1 SLOAD PUSH1 0x1 PUSH1 0x1 PUSH1 0xA0 SHL SUB DUP4 DUP2 AND PUSH1 0x1 PUSH1 0x1 PUSH1 0xA0 SHL SUB NOT DUP4 AND DUP2 OR DUP5 SSTORE PUSH1 0x40 MLOAD SWAP2 SWAP1 SWAP3 AND SWAP3 DUP4 SWAP2 PUSH32 0x8BE0079C531659141344CD1FD0A4F28419497F9722A3DAAFE3B4186F6B6457E0 SWAP2 SWAP1 LOG3 POP POP JUMP JUMPDEST PUSH1 0x40 DUP1 MLOAD PUSH1 0x1 PUSH1 0x1 PUSH1 0xA0 SHL SUB DUP6 DUP2 AND PUSH1 0x24 DUP4 ADD MSTORE DUP5 DUP2 AND PUSH1 0x44 DUP4 ADD MSTORE PUSH1 0x64 DUP1 DUP4 ADD DUP6 SWAP1 MSTORE DUP4 MLOAD DUP1 DUP5 SUB SWAP1 SWAP2 ADD DUP2 MSTORE PUSH1 0x84 SWAP1 SWAP3 ADD DUP4 MSTORE PUSH1 0x20 DUP3 ADD DUP1 MLOAD PUSH1 0x1 PUSH1 0x1 PUSH1 0xE0 SHL SUB AND PUSH4 0x23B872DD PUSH1 0xE0 SHL OR SWAP1 MSTORE SWAP2 MLOAD PUSH1 0x0 SWAP3 DUP4 SWAP3 SWAP1 DUP9 AND SWAP2 PUSH2 0x1B51 SWAP2 SWAP1 PUSH2 0x20EA JUMP JUMPDEST PUSH1 0x0 PUSH1 0x40 MLOAD DUP1 DUP4 SUB DUP2 PUSH1 0x0 DUP7 GAS CALL SWAP2 POP POP RETURNDATASIZE DUP1 PUSH1 0x0 DUP2 EQ PUSH2 0x1B8E JUMPI PUSH1 0x40 MLOAD SWAP2 POP PUSH1 0x1F NOT PUSH1 0x3F RETURNDATASIZE ADD AND DUP3 ADD PUSH1 0x40 MSTORE RETURNDATASIZE DUP3 MSTORE RETURNDATASIZE PUSH1 0x0 PUSH1 0x20 DUP5 ADD RETURNDATACOPY PUSH2 0x1B93 JUMP JUMPDEST PUSH1 0x60 SWAP2 POP JUMPDEST POP SWAP2 POP SWAP2 POP DUP2 DUP1 ISZERO PUSH2 0x1BBD JUMPI POP DUP1 MLOAD ISZERO DUP1 PUSH2 0x1BBD JUMPI POP DUP1 DUP1 PUSH1 0x20 ADD SWAP1 MLOAD DUP2 ADD SWAP1 PUSH2 0x1BBD SWAP2 SWAP1 PUSH2 0x1E61 JUMP JUMPDEST PUSH2 0x1C15 JUMPI PUSH1 0x40 MLOAD PUSH3 0x461BCD PUSH1 0xE5 SHL DUP2 MSTORE PUSH1 0x20 PUSH1 0x4 DUP3 ADD MSTORE PUSH1 0x24 DUP1 DUP3 ADD MSTORE PUSH32 0x5472616E7366657248656C7065723A205452414E534645525F46524F4D5F4641 PUSH1 0x44 DUP3 ADD MSTORE PUSH4 0x12531151 PUSH1 0xE2 SHL PUSH1 0x64 DUP3 ADD MSTORE PUSH1 0x84 ADD PUSH2 0x393 JUMP JUMPDEST POP POP POP POP POP POP JUMP JUMPDEST PUSH1 0x0 PUSH1 0x20 DUP3 DUP5 SUB SLT ISZERO PUSH2 0x1C2F JUMPI PUSH1 0x0 DUP1 REVERT JUMPDEST POP CALLDATALOAD SWAP2 SWAP1 POP JUMP JUMPDEST DUP1 CALLDATALOAD PUSH1 0x1 PUSH1 0x1 PUSH1 0xA0 SHL SUB DUP2 AND DUP2 EQ PUSH2 0x1C4D JUMPI PUSH1 0x0 DUP1 REVERT JUMPDEST SWAP2 SWAP1 POP JUMP JUMPDEST DUP1 ISZERO ISZERO DUP2 EQ PUSH2 0x11BD JUMPI PUSH1 0x0 DUP1 REVERT JUMPDEST PUSH1 0x0 DUP1 PUSH1 0x0 DUP1 PUSH1 0x0 DUP1 PUSH1 0x0 DUP1 PUSH2 0x100 DUP10 DUP12 SUB SLT ISZERO PUSH2 0x1C7D JUMPI PUSH1 0x0 DUP1 REVERT JUMPDEST DUP9 CALLDATALOAD PUSH1 0x3 DUP2 LT PUSH2 0x1C8C JUMPI PUSH1 0x0 DUP1 REVERT JUMPDEST SWAP8 POP PUSH2 0x1C9A PUSH1 0x20 DUP11 ADD PUSH2 0x1C36 JUMP JUMPDEST SWAP7 POP PUSH2 0x1CA8 PUSH1 0x40 DUP11 ADD PUSH2 0x1C36 JUMP JUMPDEST SWAP6 POP PUSH1 0x60 DUP10 ADD CALLDATALOAD SWAP5 POP PUSH1 0x80 DUP10 ADD CALLDATALOAD SWAP4 POP PUSH1 0xA0 DUP10 ADD CALLDATALOAD SWAP3 POP PUSH1 0xC0 DUP10 ADD CALLDATALOAD PUSH2 0x1CCD DUP2 PUSH2 0x1C52 JUMP JUMPDEST SWAP2 POP PUSH2 0x1CDB PUSH1 0xE0 DUP11 ADD PUSH2 0x1C36 JUMP JUMPDEST SWAP1 POP SWAP3 SWAP6 SWAP9 POP SWAP3 SWAP6 SWAP9 SWAP1 SWAP4 SWAP7 POP JUMP JUMPDEST PUSH4 0x4E487B71 PUSH1 0xE0 SHL PUSH1 0x0 MSTORE PUSH1 0x21 PUSH1 0x4 MSTORE PUSH1 0x24 PUSH1 0x0 REVERT JUMPDEST PUSH1 0x20 DUP2 ADD PUSH1 0x3 DUP4 LT PUSH2 0x1D22 JUMPI PUSH4 0x4E487B71 PUSH1 0xE0 SHL PUSH1 0x0 MSTORE PUSH1 0x21 PUSH1 0x4 MSTORE PUSH1 0x24 PUSH1 0x0 REVERT JUMPDEST SWAP2 SWAP1 MSTORE SWAP1 JUMP JUMPDEST PUSH1 0x0 DUP2 MLOAD DUP1 DUP5 MSTORE PUSH1 0x20 DUP1 DUP6 ADD SWAP5 POP DUP1 DUP5 ADD PUSH1 0x0 JUMPDEST DUP4 DUP2 LT ISZERO PUSH2 0x1D58 JUMPI DUP2 MLOAD DUP8 MSTORE SWAP6 DUP3 ADD SWAP6 SWAP1 DUP3 ADD SWAP1 PUSH1 0x1 ADD PUSH2 0x1D3C JUMP JUMPDEST POP SWAP5 SWAP6 SWAP5 POP POP POP POP POP JUMP JUMPDEST PUSH1 0x60 DUP1 DUP3 MSTORE DUP5 MLOAD SWAP1 DUP3 ADD DUP2 SWAP1 MSTORE PUSH1 0x0 SWAP1 PUSH1 0x20 SWAP1 PUSH1 0x80 DUP5 ADD SWAP1 DUP3 DUP9 ADD DUP5 JUMPDEST DUP3 DUP2 LT ISZERO PUSH2 0x1DA5 JUMPI DUP2 MLOAD PUSH1 0x1 PUSH1 0x1 PUSH1 0xA0 SHL SUB AND DUP5 MSTORE SWAP3 DUP5 ADD SWAP3 SWAP1 DUP5 ADD SWAP1 PUSH1 0x1 ADD PUSH2 0x1D80 JUMP JUMPDEST POP POP POP DUP4 DUP2 SUB DUP3 DUP6 ADD MSTORE PUSH2 0x1DB9 DUP2 DUP8 PUSH2 0x1D28 JUMP JUMPDEST SWAP2 POP POP DUP3 DUP2 SUB PUSH1 0x40 DUP5 ADD MSTORE PUSH2 0x1DCE DUP2 DUP6 PUSH2 0x1D28 JUMP JUMPDEST SWAP7 SWAP6 POP POP POP POP POP POP JUMP JUMPDEST PUSH1 0x0 PUSH1 0x20 DUP3 DUP5 SUB SLT ISZERO PUSH2 0x1DEA JUMPI PUSH1 0x0 DUP1 REVERT JUMPDEST PUSH2 0x1DF3 DUP3 PUSH2 0x1C36 JUMP JUMPDEST SWAP4 SWAP3 POP POP POP JUMP JUMPDEST PUSH1 0x20 DUP1 DUP3 MSTORE PUSH1 0x16 SWAP1 DUP3 ADD MSTORE PUSH22 0x537943726F774261727465723A20494E414354495645 PUSH1 0x50 SHL PUSH1 0x40 DUP3 ADD MSTORE PUSH1 0x60 ADD SWAP1 JUMP JUMPDEST PUSH1 0x20 DUP1 DUP3 MSTORE PUSH1 0x1D SWAP1 DUP3 ADD MSTORE PUSH32 0x537943726F774261727465723A204E4F545F494E495449414C495A4544000000 PUSH1 0x40 DUP3 ADD MSTORE PUSH1 0x60 ADD SWAP1 JUMP JUMPDEST PUSH1 0x0 PUSH1 0x20 DUP3 DUP5 SUB SLT ISZERO PUSH2 0x1E73 JUMPI PUSH1 0x0 DUP1 REVERT JUMPDEST DUP2 MLOAD PUSH2 0x1DF3 DUP2 PUSH2 0x1C52 JUMP JUMPDEST PUSH1 0x20 DUP1 DUP3 MSTORE PUSH1 0x22 SWAP1 DUP3 ADD MSTORE PUSH32 0x537943726F774261727465723A204261736520436F6E74726163742050617573 PUSH1 0x40 DUP3 ADD MSTORE PUSH2 0x1959 PUSH1 0xF2 SHL PUSH1 0x60 DUP3 ADD MSTORE PUSH1 0x80 ADD SWAP1 JUMP JUMPDEST PUSH1 0x20 DUP1 DUP3 MSTORE PUSH1 0x21 SWAP1 DUP3 ADD MSTORE PUSH32 0x537943726F774261727465723A20494E56414C49445F4241525445525F545950 PUSH1 0x40 DUP3 ADD MSTORE PUSH1 0x45 PUSH1 0xF8 SHL PUSH1 0x60 DUP3 ADD MSTORE PUSH1 0x80 ADD SWAP1 JUMP JUMPDEST PUSH1 0x20 DUP1 DUP3 MSTORE PUSH1 0x29 SWAP1 DUP3 ADD MSTORE PUSH32 0x537943726F774261727465723A20414D4F554E545F4C4F5745525F5448414E5F PUSH1 0x40 DUP3 ADD MSTORE PUSH9 0x149154555492549151 PUSH1 0xBA SHL PUSH1 0x60 DUP3 ADD MSTORE PUSH1 0x80 ADD SWAP1 JUMP JUMPDEST PUSH1 0x20 DUP1 DUP3 MSTORE DUP2 DUP2 ADD MSTORE PUSH32 0x4F776E61626C653A2063616C6C6572206973206E6F7420746865206F776E6572 PUSH1 0x40 DUP3 ADD MSTORE PUSH1 0x60 ADD SWAP1 JUMP JUMPDEST PUSH1 0x0 PUSH1 0x20 DUP3 DUP5 SUB SLT ISZERO PUSH2 0x1F91 JUMPI PUSH1 0x0 DUP1 REVERT JUMPDEST POP MLOAD SWAP2 SWAP1 POP JUMP JUMPDEST PUSH1 0x1 PUSH1 0x1 PUSH1 0xA0 SHL SUB SWAP5 DUP6 AND DUP2 MSTORE SWAP3 SWAP1 SWAP4 AND PUSH1 0x20 DUP4 ADD MSTORE PUSH1 0x40 DUP3 ADD MSTORE PUSH1 0x60 DUP2 ADD SWAP2 SWAP1 SWAP2 MSTORE PUSH1 0x80 ADD SWAP1 JUMP JUMPDEST PUSH4 0x4E487B71 PUSH1 0xE0 SHL PUSH1 0x0 MSTORE PUSH1 0x11 PUSH1 0x4 MSTORE PUSH1 0x24 PUSH1 0x0 REVERT JUMPDEST PUSH1 0x0 DUP2 PUSH1 0x0 NOT DIV DUP4 GT DUP3 ISZERO ISZERO AND ISZERO PUSH2 0x1FF1 JUMPI PUSH2 0x1FF1 PUSH2 0x1FC1 JUMP JUMPDEST POP MUL SWAP1 JUMP JUMPDEST PUSH1 0x0 DUP3 PUSH2 0x2013 JUMPI PUSH4 0x4E487B71 PUSH1 0xE0 SHL PUSH1 0x0 MSTORE PUSH1 0x12 PUSH1 0x4 MSTORE PUSH1 0x24 PUSH1 0x0 REVERT JUMPDEST POP DIV SWAP1 JUMP JUMPDEST PUSH4 0x4E487B71 PUSH1 0xE0 SHL PUSH1 0x0 MSTORE PUSH1 0x41 PUSH1 0x4 MSTORE PUSH1 0x24 PUSH1 0x0 REVERT JUMPDEST PUSH4 0x4E487B71 PUSH1 0xE0 SHL PUSH1 0x0 MSTORE PUSH1 0x32 PUSH1 0x4 MSTORE PUSH1 0x24 PUSH1 0x0 REVERT JUMPDEST PUSH1 0x0 PUSH1 0x1 DUP3 ADD PUSH2 0x2056 JUMPI PUSH2 0x2056 PUSH2 0x1FC1 JUMP JUMPDEST POP PUSH1 0x1 ADD SWAP1 JUMP JUMPDEST PUSH1 0x20 DUP1 DUP3 MSTORE PUSH1 0x22 SWAP1 DUP3 ADD MSTORE PUSH32 0x537943726F774261727465723A20494E53554646494349454E545F42414C414E PUSH1 0x40 DUP3 ADD MSTORE PUSH2 0x4345 PUSH1 0xF0 SHL PUSH1 0x60 DUP3 ADD MSTORE PUSH1 0x80 ADD SWAP1 JUMP JUMPDEST PUSH1 0x20 DUP1 DUP3 MSTORE PUSH1 0x2B SWAP1 DUP3 ADD MSTORE PUSH32 0x537943726F774261727465723A20494E53554646494349454E545F434F4E5452 PUSH1 0x40 DUP3 ADD MSTORE PUSH11 0x4143545F42414C414E4345 PUSH1 0xA8 SHL PUSH1 0x60 DUP3 ADD MSTORE PUSH1 0x80 ADD SWAP1 JUMP JUMPDEST PUSH1 0x0 DUP3 MLOAD PUSH1 0x0 JUMPDEST DUP2 DUP2 LT ISZERO PUSH2 0x210B JUMPI PUSH1 0x20 DUP2 DUP7 ADD DUP2 ADD MLOAD DUP6 DUP4 ADD MSTORE ADD PUSH2 0x20F1 JUMP JUMPDEST DUP2 DUP2 GT ISZERO PUSH2 0x211A JUMPI PUSH1 0x0 DUP3 DUP6 ADD MSTORE JUMPDEST POP SWAP2 SWAP1 SWAP2 ADD SWAP3 SWAP2 POP POP JUMP INVALID LOG2 PUSH5 0x6970667358 0x22 SLT KECCAK256 DUP1 CREATE2 0x2D 0xEA PUSH12 0xC2020772EC88FB4868BF4944 0x2E SWAP3 DUP9 DUP3 0xA7 OR 0x4B CALLER LOG2 0xA8 PUSH6 0x61588FFE6473 PUSH16 0x6C634300080D00330000000000000000 "
				},
				"gasEstimates": {
					"creation": {
						"codeDepositCost": "1707800",
						"executionCost": "infinite",
						"totalCost": "infinite"
					},
					"external": {
						"_initialized()": "2417",
						"barterType()": "2418",
						"deadline()": "2330",
						"factory()": "infinite",
						"getAmounts()": "6638",
						"getTokens()": "6669",
						"getTradeOutAmount(uint256)": "4707",
						"getTrades()": "infinite",
						"initialize(uint8,address,address,uint256,uint256,uint256,bool,address)": "infinite",
						"owner()": "2409",
						"renounceOwnership()": "28159",
						"totalTradeAmount()": "2351",
						"tradeEthForToken(uint256)": "infinite",
						"tradeTokenForEth(uint256)": "infinite",
						"tradeTokenForToken(uint256)": "infinite",
						"transferOwnership(address)": "28419",
						"withdraw()": "infinite"
					},
					"internal": {
						"_tradeEthForToken(uint256)": "infinite",
						"_tradeTokenForEth(uint256)": "infinite",
						"_tradeTokenForToken(uint256)": "infinite"
					}
				},
				"methodIdentifiers": {
					"_initialized()": "3072cf60",
					"barterType()": "89523742",
					"deadline()": "29dcb0cf",
					"factory()": "c45a0155",
					"getAmounts()": "3d370b4e",
					"getTokens()": "aa6ca808",
					"getTradeOutAmount(uint256)": "dab5a8df",
					"getTrades()": "e43372e9",
					"initialize(uint8,address,address,uint256,uint256,uint256,bool,address)": "5f5780e5",
					"owner()": "8da5cb5b",
					"renounceOwnership()": "715018a6",
					"totalTradeAmount()": "40a6f1ab",
					"tradeEthForToken(uint256)": "4341f920",
					"tradeTokenForEth(uint256)": "0d182605",
					"tradeTokenForToken(uint256)": "2ffc6887",
					"transferOwnership(address)": "f2fde38b",
					"withdraw()": "3ccfd60b"
				}
			},
			"storageLayout": {
				"storage": [
					{
						"astId": 7,
						"contract": "contracts/SycrowBarter.sol:SyCrowBarter",
						"label": "_owner",
						"offset": 0,
						"slot": "0",
						"type": "t_address"
					},
					{
						"astId": 142,
						"contract": "contracts/SycrowBarter.sol:SyCrowBarter",
						"label": "totalTradeAmount",
						"offset": 0,
						"slot": "1",
						"type": "t_uint256"
					},
					{
						"astId": 144,
						"contract": "contracts/SycrowBarter.sol:SyCrowBarter",
						"label": "deadline",
						"offset": 0,
						"slot": "2",
						"type": "t_uint256"
					},
					{
						"astId": 147,
						"contract": "contracts/SycrowBarter.sol:SyCrowBarter",
						"label": "barterType",
						"offset": 0,
						"slot": "3",
						"type": "t_enum(ISyCrowBarterType)1055"
					},
					{
						"astId": 149,
						"contract": "contracts/SycrowBarter.sol:SyCrowBarter",
						"label": "WETH",
						"offset": 1,
						"slot": "3",
						"type": "t_address"
					},
					{
						"astId": 152,
						"contract": "contracts/SycrowBarter.sol:SyCrowBarter",
						"label": "_initialized",
						"offset": 21,
						"slot": "3",
						"type": "t_bool"
					},
					{
						"astId": 154,
						"contract": "contracts/SycrowBarter.sol:SyCrowBarter",
						"label": "_depositedTokenAddress",
						"offset": 0,
						"slot": "4",
						"type": "t_address"
					},
					{
						"astId": 156,
						"contract": "contracts/SycrowBarter.sol:SyCrowBarter",
						"label": "_expectedTokenAddress",
						"offset": 0,
						"slot": "5",
						"type": "t_address"
					},
					{
						"astId": 158,
						"contract": "contracts/SycrowBarter.sol:SyCrowBarter",
						"label": "_depositedAmount",
						"offset": 0,
						"slot": "6",
						"type": "t_uint256"
					},
					{
						"astId": 160,
						"contract": "contracts/SycrowBarter.sol:SyCrowBarter",
						"label": "_expectedAmount",
						"offset": 0,
						"slot": "7",
						"type": "t_uint256"
					},
					{
						"astId": 162,
						"contract": "contracts/SycrowBarter.sol:SyCrowBarter",
						"label": "_allowMultiBarter",
						"offset": 0,
						"slot": "8",
						"type": "t_bool"
					},
					{
						"astId": 166,
						"contract": "contracts/SycrowBarter.sol:SyCrowBarter",
						"label": "_trades",
						"offset": 0,
						"slot": "9",
						"type": "t_array(t_struct(BaterTrade)173_storage)dyn_storage"
					}
				],
				"types": {
					"t_address": {
						"encoding": "inplace",
						"label": "address",
						"numberOfBytes": "20"
					},
					"t_array(t_struct(BaterTrade)173_storage)dyn_storage": {
						"base": "t_struct(BaterTrade)173_storage",
						"encoding": "dynamic_array",
						"label": "struct SyCrowBarter.BaterTrade[]",
						"numberOfBytes": "32"
					},
					"t_bool": {
						"encoding": "inplace",
						"label": "bool",
						"numberOfBytes": "1"
					},
					"t_enum(ISyCrowBarterType)1055": {
						"encoding": "inplace",
						"label": "enum ISyCrowBarterType",
						"numberOfBytes": "1"
					},
					"t_struct(BaterTrade)173_storage": {
						"encoding": "inplace",
						"label": "struct SyCrowBarter.BaterTrade",
						"members": [
							{
								"astId": 168,
								"contract": "contracts/SycrowBarter.sol:SyCrowBarter",
								"label": "_trader",
								"offset": 0,
								"slot": "0",
								"type": "t_address"
							},
							{
								"astId": 170,
								"contract": "contracts/SycrowBarter.sol:SyCrowBarter",
								"label": "_amountIn",
								"offset": 0,
								"slot": "1",
								"type": "t_uint256"
							},
							{
								"astId": 172,
								"contract": "contracts/SycrowBarter.sol:SyCrowBarter",
								"label": "_amountOut",
								"offset": 0,
								"slot": "2",
								"type": "t_uint256"
							}
						],
						"numberOfBytes": "96"
					},
					"t_uint256": {
						"encoding": "inplace",
						"label": "uint256",
						"numberOfBytes": "32"
					}
				}
			},
			"userdoc": {
				"kind": "user",
				"methods": {},
				"version": 1
			}
		}
	}
}