{
	"data": {
		"bytecode": {
			"linkReferences": {},
			"object": "60a06040526003805461ff00191690556005805460ff60a81b1916905534801561002857600080fd5b506100323361003f565b600180553360805261008f565b600080546001600160a01b038381166001600160a01b0319831681178455604051919092169283917f8be0079c531659141344cd1fd0a4f28419497f9722a3daafe3b4186f6b6457e09190a35050565b6080516122c46100db6000396000818161030b01528181610412015281816105be01528181610a1401528181610b2c01528181610c7e0152818161150701526117d901526122c46000f3fe60806040526004361061010c5760003560e01c8063715018a61161009a578063c45a015511610061578063c45a0155146102f9578063c6ea70381461032d578063dab5a8df14610347578063e43372e914610367578063f2fde38b1461038b57005b8063715018a614610237578063895237421461024c5780638da5cb5b146102735780639d9a7fe9146102a5578063aa6ca808146102c457005b80633ccfd60b116100de5780633ccfd60b146101af5780633d370b4e146101c457806340a6f1ab146101ee5780634341f920146102045780635f5780e51461021757005b80630d1826051461011557806329dcb0cf146101355780632ffc68871461015e5780633072cf601461017e57005b3661011357005b005b34801561012157600080fd5b50610113610130366004611d37565b6103ab565b34801561014157600080fd5b5061014b60045481565b6040519081526020015b60405180910390f35b34801561016a57600080fd5b50610113610179366004611d37565b610560565b34801561018a57600080fd5b5060055461019f90600160a81b900460ff1681565b6040519015158152602001610155565b3480156101bb57600080fd5b50610113610702565b3480156101d057600080fd5b506101d9610a94565b60408051928352602083019190915201610155565b3480156101fa57600080fd5b5061014b60025481565b610113610212366004611d37565b610ace565b34801561022357600080fd5b5061019f610232366004611d7a565b610c71565b34801561024357600080fd5b50610113610f1a565b34801561025857600080fd5b506005546102669060ff1681565b6040516101559190611e1a565b34801561027f57600080fd5b506000546001600160a01b03165b6040516001600160a01b039091168152602001610155565b3480156102b157600080fd5b5060035461019f90610100900460ff1681565b3480156102d057600080fd5b506102d9610f50565b604080516001600160a01b03938416815292909116602083015201610155565b34801561030557600080fd5b5061028d7f000000000000000000000000000000000000000000000000000000000000000081565b34801561033957600080fd5b5060035461019f9060ff1681565b34801561035357600080fd5b5061014b610362366004611d37565b610f97565b34801561037357600080fd5b5061037c610fba565b60405161015593929190611e7d565b34801561039757600080fd5b506101136103a6366004611ef2565b6111e0565b42600454101580156103c05750600954600254105b6103e55760405162461bcd60e51b81526004016103dc90611f14565b60405180910390fd5b600554600160a81b900460ff1661040e5760405162461bcd60e51b81526004016103dc90611f44565b60007f00000000000000000000000000000000000000000000000000000000000000009050806001600160a01b031663b187bd266040518163ffffffff1660e01b8152600401602060405180830381865afa158015610471573d6000803e3d6000fd5b505050506040513d601f19601f820116820180604052508101906104959190611f7b565b156104b25760405162461bcd60e51b81526004016103dc90611f98565b60055460009060ff1660028111156104cc576104cc611e04565b8160028111156104de576104de611e04565b146104fb5760405162461bcd60e51b81526004016103dc90611fda565b60026001540361051d5760405162461bcd60e51b81526004016103dc9061201b565b600260015560035460ff1661054e5760095483101561054e5760405162461bcd60e51b81526004016103dc90612052565b6105578361127b565b50506001805550565b42600454101580156105755750600954600254105b6105915760405162461bcd60e51b81526004016103dc90611f14565b600554600160a81b900460ff166105ba5760405162461bcd60e51b81526004016103dc90611f44565b60007f00000000000000000000000000000000000000000000000000000000000000009050806001600160a01b031663b187bd266040518163ffffffff1660e01b8152600401602060405180830381865afa15801561061d573d6000803e3d6000fd5b505050506040513d601f19601f820116820180604052508101906106419190611f7b565b1561065e5760405162461bcd60e51b81526004016103dc90611f98565b60055460029060ff168181111561067757610677611e04565b81600281111561068957610689611e04565b146106a65760405162461bcd60e51b81526004016103dc90611fda565b6002600154036106c85760405162461bcd60e51b81526004016103dc9061201b565b600260015560035460ff166106f9576009548310156106f95760405162461bcd60e51b81526004016103dc90612052565b610557836115a7565b426004541080610716575060095460025410155b6107595760405162461bcd60e51b8152602060048201526014602482015273537943726f774261727465723a2041435449564560601b60448201526064016103dc565b600554600160a81b900460ff166107825760405162461bcd60e51b81526004016103dc90611f44565b6000546001600160a01b031633146107ac5760405162461bcd60e51b81526004016103dc9061209b565b6005546040516370a0823160e01b81523060048201526101009091046001600160a01b03169060009082906370a0823190602401602060405180830381865afa1580156107fd573d6000803e3d6000fd5b505050506040513d601f19601f8201168201806040525081019061082191906120d0565b9050801561089557600554604051632e1a7d4d60e01b8152600481018390526101009091046001600160a01b031690632e1a7d4d90602401600060405180830381600087803b15801561087357600080fd5b505af1158015610887573d6000803e3d6000fd5b505050506108953382611855565b6007546040516370a0823160e01b81523060048201526000916001600160a01b0316906370a0823190602401602060405180830381865afa1580156108de573d6000803e3d6000fd5b505050506040513d601f19601f8201168201806040525081019061090291906120d0565b9050801561092157600754610921906001600160a01b03163383611923565b6006546040516370a0823160e01b81523060048201526000916001600160a01b0316906370a0823190602401602060405180830381865afa15801561096a573d6000803e3d6000fd5b505050506040513d601f19601f8201168201806040525081019061098e91906120d0565b905080156109ad576006546109ad906001600160a01b03163383611923565b6000808060055460ff1660028111156109c8576109c8611e04565b036109d7575083905082610a05565b600260055460ff1660028111156109f0576109f0611e04565b036109ff575081905082610a05565b50819050835b6040516319bcb50760e11b81527f0000000000000000000000000000000000000000000000000000000000000000906001600160a01b038216906333796a0e90610a599030903390889088906004016120e9565b600060405180830381600087803b158015610a7357600080fd5b505af1158015610a87573d6000803e3d6000fd5b5050505050505050505050565b6005546000908190600160a81b900460ff16610ac25760405162461bcd60e51b81526004016103dc90611f44565b50506008546009549091565b4260045410158015610ae35750600954600254105b610aff5760405162461bcd60e51b81526004016103dc90611f14565b600554600160a81b900460ff16610b285760405162461bcd60e51b81526004016103dc90611f44565b60007f00000000000000000000000000000000000000000000000000000000000000009050806001600160a01b031663b187bd266040518163ffffffff1660e01b8152600401602060405180830381865afa158015610b8b573d6000803e3d6000fd5b505050506040513d601f19601f82011682018060405250810190610baf9190611f7b565b15610bcc5760405162461bcd60e51b81526004016103dc90611f98565b60055460019060ff166002811115610be657610be6611e04565b816002811115610bf857610bf8611e04565b14610c155760405162461bcd60e51b81526004016103dc90611fda565b600260015403610c375760405162461bcd60e51b81526004016103dc9061201b565b600260015560035460ff16610c6857600954341015610c685760405162461bcd60e51b81526004016103dc90612052565b61055783611a3e565b6000336001600160a01b037f00000000000000000000000000000000000000000000000000000000000000001614610ceb5760405162461bcd60e51b815260206004820152601760248201527f537943726f774261727465723a20464f5242494444454e00000000000000000060448201526064016103dc565b600554600160a81b900460ff1615610d4f5760405162461bcd60e51b815260206004820152602160248201527f537943726f774261727465723a20414c52454144595f494e495449414c495a456044820152601160fa1b60648201526084016103dc565b42841015610d9f5760405162461bcd60e51b815260206004820152601b60248201527f537943726f774261727465723a20504153545f444541444c494e45000000000060448201526064016103dc565b6040516370a0823160e01b815230600482015286906001600160a01b038a16906370a0823190602401602060405180830381865afa158015610de5573d6000803e3d6000fd5b505050506040513d601f19601f82011682018060405250810190610e0991906120d0565b1015610e625760405162461bcd60e51b815260206004820152602260248201527f537943726f774261727465723a20494e53554646494349454e545f4445504f53604482015261125560f21b60648201526084016103dc565b6004849055600680546001600160a01b03808b166001600160a01b03199283161790925560078054928a169290911691909117905560088690556009859055600580548a919060ff19166001836002811115610ec057610ec0611e04565b0217905550506003805483151560ff199091161790556005805460ff60a81b196001600160a01b0384166101000216610100600160b01b031990911617600160a81b90811791829055900460ff1698975050505050505050565b6000546001600160a01b03163314610f445760405162461bcd60e51b81526004016103dc9061209b565b610f4e6000611bb7565b565b6005546000908190600160a81b900460ff16610f7e5760405162461bcd60e51b81526004016103dc90611f44565b50506006546007546001600160a01b0391821691169091565b600060095460085483610faa9190612128565b610fb49190612147565b92915050565b6060806060600560159054906101000a900460ff16610feb5760405162461bcd60e51b81526004016103dc90611f44565b600a5460009067ffffffffffffffff81111561100957611009612169565b604051908082528060200260200182016040528015611032578160200160208202803683370190505b50600a5490915060009067ffffffffffffffff81111561105457611054612169565b60405190808252806020026020018201604052801561107d578160200160208202803683370190505b50600a5490915060009067ffffffffffffffff81111561109f5761109f612169565b6040519080825280602002602001820160405280156110c8578160200160208202803683370190505b50905060005b600a548110156111d357600a81815481106110eb576110eb61217f565b600091825260209091206003909102015484516001600160a01b039091169085908390811061111c5761111c61217f565b60200260200101906001600160a01b031690816001600160a01b031681525050600a818154811061114f5761114f61217f565b9060005260206000209060030201600101548382815181106111735761117361217f565b602002602001018181525050600a81815481106111925761119261217f565b9060005260206000209060030201600201548282815181106111b6576111b661217f565b6020908102919091010152806111cb81612195565b9150506110ce565b5091945092509050909192565b6000546001600160a01b0316331461120a5760405162461bcd60e51b81526004016103dc9061209b565b6001600160a01b03811661126f5760405162461bcd60e51b815260206004820152602660248201527f4f776e61626c653a206e6577206f776e657220697320746865207a65726f206160448201526564647265737360d01b60648201526084016103dc565b61127881611bb7565b50565b6007546040516370a0823160e01b815233600482015282916001600160a01b0316906370a0823190602401602060405180830381865afa1580156112c3573d6000803e3d6000fd5b505050506040513d601f19601f820116820180604052508101906112e791906120d0565b10156113055760405162461bcd60e51b81526004016103dc906121ae565b600061131082610f97565b6005546040516370a0823160e01b815230600482015291925061010090046001600160a01b031690829082906370a0823190602401602060405180830381865afa158015611362573d6000803e3d6000fd5b505050506040513d601f19601f8201168201806040525081019061138691906120d0565b10156113a45760405162461bcd60e51b81526004016103dc906121f0565b6007546113bc906001600160a01b0316333086611c07565b600554604051632e1a7d4d60e01b8152600481018490526101009091046001600160a01b031690632e1a7d4d90602401600060405180830381600087803b15801561140657600080fd5b505af115801561141a573d6000803e3d6000fd5b505050506114283383611855565b6040805160608101825233815260208101858152918101848152600a805460018101825560009190915291517fc65a7bb8d6351c1cf70c95a316cc6a92839c986682d98bc35f958f4883f9d2a8600390930292830180546001600160a01b0319166001600160a01b0390921691909117905591517fc65a7bb8d6351c1cf70c95a316cc6a92839c986682d98bc35f958f4883f9d2a982015590517fc65a7bb8d6351c1cf70c95a316cc6a92839c986682d98bc35f958f4883f9d2aa909101556002546114f590849061223b565b60025560405163f52701b760e01b81527f0000000000000000000000000000000000000000000000000000000000000000906001600160a01b0382169063f52701b79061154c9030903390899089906004016120e9565b600060405180830381600087803b15801561156657600080fd5b505af115801561157a573d6000803e3d6000fd5b50506003805461ff00191661010090811791829055900460ff1691506115a1905057600080fd5b50505050565b6007546040516370a0823160e01b815233600482015282916001600160a01b0316906370a0823190602401602060405180830381865afa1580156115ef573d6000803e3d6000fd5b505050506040513d601f19601f8201168201806040525081019061161391906120d0565b10156116315760405162461bcd60e51b81526004016103dc906121ae565b600061163c82610f97565b6006546040516370a0823160e01b815230600482015291925082916001600160a01b03909116906370a0823190602401602060405180830381865afa158015611689573d6000803e3d6000fd5b505050506040513d601f19601f820116820180604052508101906116ad91906120d0565b10156116cb5760405162461bcd60e51b81526004016103dc906121f0565b6007546116e3906001600160a01b0316333085611c07565b6006546116fa906001600160a01b03163383611923565b6040805160608101825233815260208101848152918101838152600a805460018101825560009190915291517fc65a7bb8d6351c1cf70c95a316cc6a92839c986682d98bc35f958f4883f9d2a8600390930292830180546001600160a01b0319166001600160a01b0390921691909117905591517fc65a7bb8d6351c1cf70c95a316cc6a92839c986682d98bc35f958f4883f9d2a982015590517fc65a7bb8d6351c1cf70c95a316cc6a92839c986682d98bc35f958f4883f9d2aa909101556002546117c790839061223b565b60025560405163f52701b760e01b81527f0000000000000000000000000000000000000000000000000000000000000000906001600160a01b0382169063f52701b79061181e9030903390889088906004016120e9565b600060405180830381600087803b15801561183857600080fd5b505af115801561184c573d6000803e3d6000fd5b50505050505050565b604080516000808252602082019092526001600160a01b03841690839060405161187f9190612253565b60006040518083038185875af1925050503d80600081146118bc576040519150601f19603f3d011682016040523d82523d6000602084013e6118c1565b606091505b505090508061191e5760405162461bcd60e51b815260206004820152602360248201527f5472616e7366657248656c7065723a204554485f5452414e534645525f46414960448201526213115160ea1b60648201526084016103dc565b505050565b604080516001600160a01b038481166024830152604480830185905283518084039091018152606490920183526020820180516001600160e01b031663a9059cbb60e01b179052915160009283929087169161197f9190612253565b6000604051808303816000865af19150503d80600081146119bc576040519150601f19603f3d011682016040523d82523d6000602084013e6119c1565b606091505b50915091508180156119eb5750805115806119eb5750808060200190518101906119eb9190611f7b565b611a375760405162461bcd60e51b815260206004820152601f60248201527f5472616e7366657248656c7065723a205452414e534645525f4641494c45440060448201526064016103dc565b5050505050565b348114611a9b5760405162461bcd60e51b815260206004820152602560248201527f537943726f774261727465723a204d554c54495f54524144455f4e4f545f454e604482015264105093115160da1b60648201526084016103dc565b6000611aa682610f97565b6006546040516370a0823160e01b815230600482015291925082916001600160a01b03909116906370a0823190602401602060405180830381865afa158015611af3573d6000803e3d6000fd5b505050506040513d601f19601f82011682018060405250810190611b1791906120d0565b1015611b355760405162461bcd60e51b81526004016103dc906121f0565b600560019054906101000a90046001600160a01b03166001600160a01b031663d0e30db0836040518263ffffffff1660e01b81526004016000604051808303818588803b158015611b8557600080fd5b505af1158015611b99573d6000803e3d6000fd5b50506006546116fa93506001600160a01b0316915033905083611923565b600080546001600160a01b038381166001600160a01b0319831681178455604051919092169283917f8be0079c531659141344cd1fd0a4f28419497f9722a3daafe3b4186f6b6457e09190a35050565b604080516001600160a01b0385811660248301528481166044830152606480830185905283518084039091018152608490920183526020820180516001600160e01b03166323b872dd60e01b1790529151600092839290881691611c6b9190612253565b6000604051808303816000865af19150503d8060008114611ca8576040519150601f19603f3d011682016040523d82523d6000602084013e611cad565b606091505b5091509150818015611cd7575080511580611cd7575080806020019051810190611cd79190611f7b565b611d2f5760405162461bcd60e51b8152602060048201526024808201527f5472616e7366657248656c7065723a205452414e534645525f46524f4d5f46416044820152631253115160e21b60648201526084016103dc565b505050505050565b600060208284031215611d4957600080fd5b5035919050565b80356001600160a01b0381168114611d6757600080fd5b919050565b801515811461127857600080fd5b600080600080600080600080610100898b031215611d9757600080fd5b883560038110611da657600080fd5b9750611db460208a01611d50565b9650611dc260408a01611d50565b9550606089013594506080890135935060a0890135925060c0890135611de781611d6c565b9150611df560e08a01611d50565b90509295985092959890939650565b634e487b7160e01b600052602160045260246000fd5b6020810160038310611e3c57634e487b7160e01b600052602160045260246000fd5b91905290565b600081518084526020808501945080840160005b83811015611e7257815187529582019590820190600101611e56565b509495945050505050565b606080825284519082018190526000906020906080840190828801845b82811015611ebf5781516001600160a01b031684529284019290840190600101611e9a565b50505083810382850152611ed38187611e42565b9150508281036040840152611ee88185611e42565b9695505050505050565b600060208284031215611f0457600080fd5b611f0d82611d50565b9392505050565b602080825260169082015275537943726f774261727465723a20494e41435449564560501b604082015260600190565b6020808252601d908201527f537943726f774261727465723a204e4f545f494e495449414c495a4544000000604082015260600190565b600060208284031215611f8d57600080fd5b8151611f0d81611d6c565b60208082526022908201527f537943726f774261727465723a204261736520436f6e74726163742050617573604082015261195960f21b606082015260800190565b60208082526021908201527f537943726f774261727465723a20494e56414c49445f4241525445525f5459506040820152604560f81b606082015260800190565b6020808252601f908201527f5265656e7472616e637947756172643a207265656e7472616e742063616c6c00604082015260600190565b60208082526029908201527f537943726f774261727465723a20414d4f554e545f4c4f5745525f5448414e5f60408201526814915455549254915160ba1b606082015260800190565b6020808252818101527f4f776e61626c653a2063616c6c6572206973206e6f7420746865206f776e6572604082015260600190565b6000602082840312156120e257600080fd5b5051919050565b6001600160a01b0394851681529290931660208301526040820152606081019190915260800190565b634e487b7160e01b600052601160045260246000fd5b600081600019048311821515161561214257612142612112565b500290565b60008261216457634e487b7160e01b600052601260045260246000fd5b500490565b634e487b7160e01b600052604160045260246000fd5b634e487b7160e01b600052603260045260246000fd5b6000600182016121a7576121a7612112565b5060010190565b60208082526022908201527f537943726f774261727465723a20494e53554646494349454e545f42414c414e604082015261434560f01b606082015260800190565b6020808252602b908201527f537943726f774261727465723a20494e53554646494349454e545f434f4e545260408201526a4143545f42414c414e434560a81b606082015260800190565b6000821982111561224e5761224e612112565b500190565b6000825160005b81811015612274576020818601810151858301520161225a565b81811115612283576000828501525b50919091019291505056fea264697066735822122086694b80db17f43d13186284abaeda454e2985c9c62c790695ec6dde24b87fb964736f6c634300080d0033",
			"opcodes": "PUSH1 0xA0 PUSH1 0x40 MSTORE PUSH1 0x3 DUP1 SLOAD PUSH2 0xFF00 NOT AND SWAP1 SSTORE PUSH1 0x5 DUP1 SLOAD PUSH1 0xFF PUSH1 0xA8 SHL NOT AND SWAP1 SSTORE CALLVALUE DUP1 ISZERO PUSH2 0x28 JUMPI PUSH1 0x0 DUP1 REVERT JUMPDEST POP PUSH2 0x32 CALLER PUSH2 0x3F JUMP JUMPDEST PUSH1 0x1 DUP1 SSTORE CALLER PUSH1 0x80 MSTORE PUSH2 0x8F JUMP JUMPDEST PUSH1 0x0 DUP1 SLOAD PUSH1 0x1 PUSH1 0x1 PUSH1 0xA0 SHL SUB DUP4 DUP2 AND PUSH1 0x1 PUSH1 0x1 PUSH1 0xA0 SHL SUB NOT DUP4 AND DUP2 OR DUP5 SSTORE PUSH1 0x40 MLOAD SWAP2 SWAP1 SWAP3 AND SWAP3 DUP4 SWAP2 PUSH32 0x8BE0079C531659141344CD1FD0A4F28419497F9722A3DAAFE3B4186F6B6457E0 SWAP2 SWAP1 LOG3 POP POP JUMP JUMPDEST PUSH1 0x80 MLOAD PUSH2 0x22C4 PUSH2 0xDB PUSH1 0x0 CODECOPY PUSH1 0x0 DUP2 DUP2 PUSH2 0x30B ADD MSTORE DUP2 DUP2 PUSH2 0x412 ADD MSTORE DUP2 DUP2 PUSH2 0x5BE ADD MSTORE DUP2 DUP2 PUSH2 0xA14 ADD MSTORE DUP2 DUP2 PUSH2 0xB2C ADD MSTORE DUP2 DUP2 PUSH2 0xC7E ADD MSTORE DUP2 DUP2 PUSH2 0x1507 ADD MSTORE PUSH2 0x17D9 ADD MSTORE PUSH2 0x22C4 PUSH1 0x0 RETURN INVALID PUSH1 0x80 PUSH1 0x40 MSTORE PUSH1 0x4 CALLDATASIZE LT PUSH2 0x10C JUMPI PUSH1 0x0 CALLDATALOAD PUSH1 0xE0 SHR DUP1 PUSH4 0x715018A6 GT PUSH2 0x9A JUMPI DUP1 PUSH4 0xC45A0155 GT PUSH2 0x61 JUMPI DUP1 PUSH4 0xC45A0155 EQ PUSH2 0x2F9 JUMPI DUP1 PUSH4 0xC6EA7038 EQ PUSH2 0x32D JUMPI DUP1 PUSH4 0xDAB5A8DF EQ PUSH2 0x347 JUMPI DUP1 PUSH4 0xE43372E9 EQ PUSH2 0x367 JUMPI DUP1 PUSH4 0xF2FDE38B EQ PUSH2 0x38B JUMPI STOP JUMPDEST DUP1 PUSH4 0x715018A6 EQ PUSH2 0x237 JUMPI DUP1 PUSH4 0x89523742 EQ PUSH2 0x24C JUMPI DUP1 PUSH4 0x8DA5CB5B EQ PUSH2 0x273 JUMPI DUP1 PUSH4 0x9D9A7FE9 EQ PUSH2 0x2A5 JUMPI DUP1 PUSH4 0xAA6CA808 EQ PUSH2 0x2C4 JUMPI STOP JUMPDEST DUP1 PUSH4 0x3CCFD60B GT PUSH2 0xDE JUMPI DUP1 PUSH4 0x3CCFD60B EQ PUSH2 0x1AF JUMPI DUP1 PUSH4 0x3D370B4E EQ PUSH2 0x1C4 JUMPI DUP1 PUSH4 0x40A6F1AB EQ PUSH2 0x1EE JUMPI DUP1 PUSH4 0x4341F920 EQ PUSH2 0x204 JUMPI DUP1 PUSH4 0x5F5780E5 EQ PUSH2 0x217 JUMPI STOP JUMPDEST DUP1 PUSH4 0xD182605 EQ PUSH2 0x115 JUMPI DUP1 PUSH4 0x29DCB0CF EQ PUSH2 0x135 JUMPI DUP1 PUSH4 0x2FFC6887 EQ PUSH2 0x15E JUMPI DUP1 PUSH4 0x3072CF60 EQ PUSH2 0x17E JUMPI STOP JUMPDEST CALLDATASIZE PUSH2 0x113 JUMPI STOP JUMPDEST STOP JUMPDEST CALLVALUE DUP1 ISZERO PUSH2 0x121 JUMPI PUSH1 0x0 DUP1 REVERT JUMPDEST POP PUSH2 0x113 PUSH2 0x130 CALLDATASIZE PUSH1 0x4 PUSH2 0x1D37 JUMP JUMPDEST PUSH2 0x3AB JUMP JUMPDEST CALLVALUE DUP1 ISZERO PUSH2 0x141 JUMPI PUSH1 0x0 DUP1 REVERT JUMPDEST POP PUSH2 0x14B PUSH1 0x4 SLOAD DUP2 JUMP JUMPDEST PUSH1 0x40 MLOAD SWAP1 DUP2 MSTORE PUSH1 0x20 ADD JUMPDEST PUSH1 0x40 MLOAD DUP1 SWAP2 SUB SWAP1 RETURN JUMPDEST CALLVALUE DUP1 ISZERO PUSH2 0x16A JUMPI PUSH1 0x0 DUP1 REVERT JUMPDEST POP PUSH2 0x113 PUSH2 0x179 CALLDATASIZE PUSH1 0x4 PUSH2 0x1D37 JUMP JUMPDEST PUSH2 0x560 JUMP JUMPDEST CALLVALUE DUP1 ISZERO PUSH2 0x18A JUMPI PUSH1 0x0 DUP1 REVERT JUMPDEST POP PUSH1 0x5 SLOAD PUSH2 0x19F SWAP1 PUSH1 0x1 PUSH1 0xA8 SHL SWAP1 DIV PUSH1 0xFF AND DUP2 JUMP JUMPDEST PUSH1 0x40 MLOAD SWAP1 ISZERO ISZERO DUP2 MSTORE PUSH1 0x20 ADD PUSH2 0x155 JUMP JUMPDEST CALLVALUE DUP1 ISZERO PUSH2 0x1BB JUMPI PUSH1 0x0 DUP1 REVERT JUMPDEST POP PUSH2 0x113 PUSH2 0x702 JUMP JUMPDEST CALLVALUE DUP1 ISZERO PUSH2 0x1D0 JUMPI PUSH1 0x0 DUP1 REVERT JUMPDEST POP PUSH2 0x1D9 PUSH2 0xA94 JUMP JUMPDEST PUSH1 0x40 DUP1 MLOAD SWAP3 DUP4 MSTORE PUSH1 0x20 DUP4 ADD SWAP2 SWAP1 SWAP2 MSTORE ADD PUSH2 0x155 JUMP JUMPDEST CALLVALUE DUP1 ISZERO PUSH2 0x1FA JUMPI PUSH1 0x0 DUP1 REVERT JUMPDEST POP PUSH2 0x14B PUSH1 0x2 SLOAD DUP2 JUMP JUMPDEST PUSH2 0x113 PUSH2 0x212 CALLDATASIZE PUSH1 0x4 PUSH2 0x1D37 JUMP JUMPDEST PUSH2 0xACE JUMP JUMPDEST CALLVALUE DUP1 ISZERO PUSH2 0x223 JUMPI PUSH1 0x0 DUP1 REVERT JUMPDEST POP PUSH2 0x19F PUSH2 0x232 CALLDATASIZE PUSH1 0x4 PUSH2 0x1D7A JUMP JUMPDEST PUSH2 0xC71 JUMP JUMPDEST CALLVALUE DUP1 ISZERO PUSH2 0x243 JUMPI PUSH1 0x0 DUP1 REVERT JUMPDEST POP PUSH2 0x113 PUSH2 0xF1A JUMP JUMPDEST CALLVALUE DUP1 ISZERO PUSH2 0x258 JUMPI PUSH1 0x0 DUP1 REVERT JUMPDEST POP PUSH1 0x5 SLOAD PUSH2 0x266 SWAP1 PUSH1 0xFF AND DUP2 JUMP JUMPDEST PUSH1 0x40 MLOAD PUSH2 0x155 SWAP2 SWAP1 PUSH2 0x1E1A JUMP JUMPDEST CALLVALUE DUP1 ISZERO PUSH2 0x27F JUMPI PUSH1 0x0 DUP1 REVERT JUMPDEST POP PUSH1 0x0 SLOAD PUSH1 0x1 PUSH1 0x1 PUSH1 0xA0 SHL SUB AND JUMPDEST PUSH1 0x40 MLOAD PUSH1 0x1 PUSH1 0x1 PUSH1 0xA0 SHL SUB SWAP1 SWAP2 AND DUP2 MSTORE PUSH1 0x20 ADD PUSH2 0x155 JUMP JUMPDEST CALLVALUE DUP1 ISZERO PUSH2 0x2B1 JUMPI PUSH1 0x0 DUP1 REVERT JUMPDEST POP PUSH1 0x3 SLOAD PUSH2 0x19F SWAP1 PUSH2 0x100 SWAP1 DIV PUSH1 0xFF AND DUP2 JUMP JUMPDEST CALLVALUE DUP1 ISZERO PUSH2 0x2D0 JUMPI PUSH1 0x0 DUP1 REVERT JUMPDEST POP PUSH2 0x2D9 PUSH2 0xF50 JUMP JUMPDEST PUSH1 0x40 DUP1 MLOAD PUSH1 0x1 PUSH1 0x1 PUSH1 0xA0 SHL SUB SWAP4 DUP5 AND DUP2 MSTORE SWAP3 SWAP1 SWAP2 AND PUSH1 0x20 DUP4 ADD MSTORE ADD PUSH2 0x155 JUMP JUMPDEST CALLVALUE DUP1 ISZERO PUSH2 0x305 JUMPI PUSH1 0x0 DUP1 REVERT JUMPDEST POP PUSH2 0x28D PUSH32 0x0 DUP2 JUMP JUMPDEST CALLVALUE DUP1 ISZERO PUSH2 0x339 JUMPI PUSH1 0x0 DUP1 REVERT JUMPDEST POP PUSH1 0x3 SLOAD PUSH2 0x19F SWAP1 PUSH1 0xFF AND DUP2 JUMP JUMPDEST CALLVALUE DUP1 ISZERO PUSH2 0x353 JUMPI PUSH1 0x0 DUP1 REVERT JUMPDEST POP PUSH2 0x14B PUSH2 0x362 CALLDATASIZE PUSH1 0x4 PUSH2 0x1D37 JUMP JUMPDEST PUSH2 0xF97 JUMP JUMPDEST CALLVALUE DUP1 ISZERO PUSH2 0x373 JUMPI PUSH1 0x0 DUP1 REVERT JUMPDEST POP PUSH2 0x37C PUSH2 0xFBA JUMP JUMPDEST PUSH1 0x40 MLOAD PUSH2 0x155 SWAP4 SWAP3 SWAP2 SWAP1 PUSH2 0x1E7D JUMP JUMPDEST CALLVALUE DUP1 ISZERO PUSH2 0x397 JUMPI PUSH1 0x0 DUP1 REVERT JUMPDEST POP PUSH2 0x113 PUSH2 0x3A6 CALLDATASIZE PUSH1 0x4 PUSH2 0x1EF2 JUMP JUMPDEST PUSH2 0x11E0 JUMP JUMPDEST TIMESTAMP PUSH1 0x4 SLOAD LT ISZERO DUP1 ISZERO PUSH2 0x3C0 JUMPI POP PUSH1 0x9 SLOAD PUSH1 0x2 SLOAD LT JUMPDEST PUSH2 0x3E5 JUMPI PUSH1 0x40 MLOAD PUSH3 0x461BCD PUSH1 0xE5 SHL DUP2 MSTORE PUSH1 0x4 ADD PUSH2 0x3DC SWAP1 PUSH2 0x1F14 JUMP JUMPDEST PUSH1 0x40 MLOAD DUP1 SWAP2 SUB SWAP1 REVERT JUMPDEST PUSH1 0x5 SLOAD PUSH1 0x1 PUSH1 0xA8 SHL SWAP1 DIV PUSH1 0xFF AND PUSH2 0x40E JUMPI PUSH1 0x40 MLOAD PUSH3 0x461BCD PUSH1 0xE5 SHL DUP2 MSTORE PUSH1 0x4 ADD PUSH2 0x3DC SWAP1 PUSH2 0x1F44 JUMP JUMPDEST PUSH1 0x0 PUSH32 0x0 SWAP1 POP DUP1 PUSH1 0x1 PUSH1 0x1 PUSH1 0xA0 SHL SUB AND PUSH4 0xB187BD26 PUSH1 0x40 MLOAD DUP2 PUSH4 0xFFFFFFFF AND PUSH1 0xE0 SHL DUP2 MSTORE PUSH1 0x4 ADD PUSH1 0x20 PUSH1 0x40 MLOAD DUP1 DUP4 SUB DUP2 DUP7 GAS STATICCALL ISZERO DUP1 ISZERO PUSH2 0x471 JUMPI RETURNDATASIZE PUSH1 0x0 DUP1 RETURNDATACOPY RETURNDATASIZE PUSH1 0x0 REVERT JUMPDEST POP POP POP POP PUSH1 0x40 MLOAD RETURNDATASIZE PUSH1 0x1F NOT PUSH1 0x1F DUP3 ADD AND DUP3 ADD DUP1 PUSH1 0x40 MSTORE POP DUP2 ADD SWAP1 PUSH2 0x495 SWAP2 SWAP1 PUSH2 0x1F7B JUMP JUMPDEST ISZERO PUSH2 0x4B2 JUMPI PUSH1 0x40 MLOAD PUSH3 0x461BCD PUSH1 0xE5 SHL DUP2 MSTORE PUSH1 0x4 ADD PUSH2 0x3DC SWAP1 PUSH2 0x1F98 JUMP JUMPDEST PUSH1 0x5 SLOAD PUSH1 0x0 SWAP1 PUSH1 0xFF AND PUSH1 0x2 DUP2 GT ISZERO PUSH2 0x4CC JUMPI PUSH2 0x4CC PUSH2 0x1E04 JUMP JUMPDEST DUP2 PUSH1 0x2 DUP2 GT ISZERO PUSH2 0x4DE JUMPI PUSH2 0x4DE PUSH2 0x1E04 JUMP JUMPDEST EQ PUSH2 0x4FB JUMPI PUSH1 0x40 MLOAD PUSH3 0x461BCD PUSH1 0xE5 SHL DUP2 MSTORE PUSH1 0x4 ADD PUSH2 0x3DC SWAP1 PUSH2 0x1FDA JUMP JUMPDEST PUSH1 0x2 PUSH1 0x1 SLOAD SUB PUSH2 0x51D JUMPI PUSH1 0x40 MLOAD PUSH3 0x461BCD PUSH1 0xE5 SHL DUP2 MSTORE PUSH1 0x4 ADD PUSH2 0x3DC SWAP1 PUSH2 0x201B JUMP JUMPDEST PUSH1 0x2 PUSH1 0x1 SSTORE PUSH1 0x3 SLOAD PUSH1 0xFF AND PUSH2 0x54E JUMPI PUSH1 0x9 SLOAD DUP4 LT ISZERO PUSH2 0x54E JUMPI PUSH1 0x40 MLOAD PUSH3 0x461BCD PUSH1 0xE5 SHL DUP2 MSTORE PUSH1 0x4 ADD PUSH2 0x3DC SWAP1 PUSH2 0x2052 JUMP JUMPDEST PUSH2 0x557 DUP4 PUSH2 0x127B JUMP JUMPDEST POP POP PUSH1 0x1 DUP1 SSTORE POP JUMP JUMPDEST TIMESTAMP PUSH1 0x4 SLOAD LT ISZERO DUP1 ISZERO PUSH2 0x575 JUMPI POP PUSH1 0x9 SLOAD PUSH1 0x2 SLOAD LT JUMPDEST PUSH2 0x591 JUMPI PUSH1 0x40 MLOAD PUSH3 0x461BCD PUSH1 0xE5 SHL DUP2 MSTORE PUSH1 0x4 ADD PUSH2 0x3DC SWAP1 PUSH2 0x1F14 JUMP JUMPDEST PUSH1 0x5 SLOAD PUSH1 0x1 PUSH1 0xA8 SHL SWAP1 DIV PUSH1 0xFF AND PUSH2 0x5BA JUMPI PUSH1 0x40 MLOAD PUSH3 0x461BCD PUSH1 0xE5 SHL DUP2 MSTORE PUSH1 0x4 ADD PUSH2 0x3DC SWAP1 PUSH2 0x1F44 JUMP JUMPDEST PUSH1 0x0 PUSH32 0x0 SWAP1 POP DUP1 PUSH1 0x1 PUSH1 0x1 PUSH1 0xA0 SHL SUB AND PUSH4 0xB187BD26 PUSH1 0x40 MLOAD DUP2 PUSH4 0xFFFFFFFF AND PUSH1 0xE0 SHL DUP2 MSTORE PUSH1 0x4 ADD PUSH1 0x20 PUSH1 0x40 MLOAD DUP1 DUP4 SUB DUP2 DUP7 GAS STATICCALL ISZERO DUP1 ISZERO PUSH2 0x61D JUMPI RETURNDATASIZE PUSH1 0x0 DUP1 RETURNDATACOPY RETURNDATASIZE PUSH1 0x0 REVERT JUMPDEST POP POP POP POP PUSH1 0x40 MLOAD RETURNDATASIZE PUSH1 0x1F NOT PUSH1 0x1F DUP3 ADD AND DUP3 ADD DUP1 PUSH1 0x40 MSTORE POP DUP2 ADD SWAP1 PUSH2 0x641 SWAP2 SWAP1 PUSH2 0x1F7B JUMP JUMPDEST ISZERO PUSH2 0x65E JUMPI PUSH1 0x40 MLOAD PUSH3 0x461BCD PUSH1 0xE5 SHL DUP2 MSTORE PUSH1 0x4 ADD PUSH2 0x3DC SWAP1 PUSH2 0x1F98 JUMP JUMPDEST PUSH1 0x5 SLOAD PUSH1 0x2 SWAP1 PUSH1 0xFF AND DUP2 DUP2 GT ISZERO PUSH2 0x677 JUMPI PUSH2 0x677 PUSH2 0x1E04 JUMP JUMPDEST DUP2 PUSH1 0x2 DUP2 GT ISZERO PUSH2 0x689 JUMPI PUSH2 0x689 PUSH2 0x1E04 JUMP JUMPDEST EQ PUSH2 0x6A6 JUMPI PUSH1 0x40 MLOAD PUSH3 0x461BCD PUSH1 0xE5 SHL DUP2 MSTORE PUSH1 0x4 ADD PUSH2 0x3DC SWAP1 PUSH2 0x1FDA JUMP JUMPDEST PUSH1 0x2 PUSH1 0x1 SLOAD SUB PUSH2 0x6C8 JUMPI PUSH1 0x40 MLOAD PUSH3 0x461BCD PUSH1 0xE5 SHL DUP2 MSTORE PUSH1 0x4 ADD PUSH2 0x3DC SWAP1 PUSH2 0x201B JUMP JUMPDEST PUSH1 0x2 PUSH1 0x1 SSTORE PUSH1 0x3 SLOAD PUSH1 0xFF AND PUSH2 0x6F9 JUMPI PUSH1 0x9 SLOAD DUP4 LT ISZERO PUSH2 0x6F9 JUMPI PUSH1 0x40 MLOAD PUSH3 0x461BCD PUSH1 0xE5 SHL DUP2 MSTORE PUSH1 0x4 ADD PUSH2 0x3DC SWAP1 PUSH2 0x2052 JUMP JUMPDEST PUSH2 0x557 DUP4 PUSH2 0x15A7 JUMP JUMPDEST TIMESTAMP PUSH1 0x4 SLOAD LT DUP1 PUSH2 0x716 JUMPI POP PUSH1 0x9 SLOAD PUSH1 0x2 SLOAD LT ISZERO JUMPDEST PUSH2 0x759 JUMPI PUSH1 0x40 MLOAD PUSH3 0x461BCD PUSH1 0xE5 SHL DUP2 MSTORE PUSH1 0x20 PUSH1 0x4 DUP3 ADD MSTORE PUSH1 0x14 PUSH1 0x24 DUP3 ADD MSTORE PUSH20 0x537943726F774261727465723A20414354495645 PUSH1 0x60 SHL PUSH1 0x44 DUP3 ADD MSTORE PUSH1 0x64 ADD PUSH2 0x3DC JUMP JUMPDEST PUSH1 0x5 SLOAD PUSH1 0x1 PUSH1 0xA8 SHL SWAP1 DIV PUSH1 0xFF AND PUSH2 0x782 JUMPI PUSH1 0x40 MLOAD PUSH3 0x461BCD PUSH1 0xE5 SHL DUP2 MSTORE PUSH1 0x4 ADD PUSH2 0x3DC SWAP1 PUSH2 0x1F44 JUMP JUMPDEST PUSH1 0x0 SLOAD PUSH1 0x1 PUSH1 0x1 PUSH1 0xA0 SHL SUB AND CALLER EQ PUSH2 0x7AC JUMPI PUSH1 0x40 MLOAD PUSH3 0x461BCD PUSH1 0xE5 SHL DUP2 MSTORE PUSH1 0x4 ADD PUSH2 0x3DC SWAP1 PUSH2 0x209B JUMP JUMPDEST PUSH1 0x5 SLOAD PUSH1 0x40 MLOAD PUSH4 0x70A08231 PUSH1 0xE0 SHL DUP2 MSTORE ADDRESS PUSH1 0x4 DUP3 ADD MSTORE PUSH2 0x100 SWAP1 SWAP2 DIV PUSH1 0x1 PUSH1 0x1 PUSH1 0xA0 SHL SUB AND SWAP1 PUSH1 0x0 SWAP1 DUP3 SWAP1 PUSH4 0x70A08231 SWAP1 PUSH1 0x24 ADD PUSH1 0x20 PUSH1 0x40 MLOAD DUP1 DUP4 SUB DUP2 DUP7 GAS STATICCALL ISZERO DUP1 ISZERO PUSH2 0x7FD JUMPI RETURNDATASIZE PUSH1 0x0 DUP1 RETURNDATACOPY RETURNDATASIZE PUSH1 0x0 REVERT JUMPDEST POP POP POP POP PUSH1 0x40 MLOAD RETURNDATASIZE PUSH1 0x1F NOT PUSH1 0x1F DUP3 ADD AND DUP3 ADD DUP1 PUSH1 0x40 MSTORE POP DUP2 ADD SWAP1 PUSH2 0x821 SWAP2 SWAP1 PUSH2 0x20D0 JUMP JUMPDEST SWAP1 POP DUP1 ISZERO PUSH2 0x895 JUMPI PUSH1 0x5 SLOAD PUSH1 0x40 MLOAD PUSH4 0x2E1A7D4D PUSH1 0xE0 SHL DUP2 MSTORE PUSH1 0x4 DUP2 ADD DUP4 SWAP1 MSTORE PUSH2 0x100 SWAP1 SWAP2 DIV PUSH1 0x1 PUSH1 0x1 PUSH1 0xA0 SHL SUB AND SWAP1 PUSH4 0x2E1A7D4D SWAP1 PUSH1 0x24 ADD PUSH1 0x0 PUSH1 0x40 MLOAD DUP1 DUP4 SUB DUP2 PUSH1 0x0 DUP8 DUP1 EXTCODESIZE ISZERO DUP1 ISZERO PUSH2 0x873 JUMPI PUSH1 0x0 DUP1 REVERT JUMPDEST POP GAS CALL ISZERO DUP1 ISZERO PUSH2 0x887 JUMPI RETURNDATASIZE PUSH1 0x0 DUP1 RETURNDATACOPY RETURNDATASIZE PUSH1 0x0 REVERT JUMPDEST POP POP POP POP PUSH2 0x895 CALLER DUP3 PUSH2 0x1855 JUMP JUMPDEST PUSH1 0x7 SLOAD PUSH1 0x40 MLOAD PUSH4 0x70A08231 PUSH1 0xE0 SHL DUP2 MSTORE ADDRESS PUSH1 0x4 DUP3 ADD MSTORE PUSH1 0x0 SWAP2 PUSH1 0x1 PUSH1 0x1 PUSH1 0xA0 SHL SUB AND SWAP1 PUSH4 0x70A08231 SWAP1 PUSH1 0x24 ADD PUSH1 0x20 PUSH1 0x40 MLOAD DUP1 DUP4 SUB DUP2 DUP7 GAS STATICCALL ISZERO DUP1 ISZERO PUSH2 0x8DE JUMPI RETURNDATASIZE PUSH1 0x0 DUP1 RETURNDATACOPY RETURNDATASIZE PUSH1 0x0 REVERT JUMPDEST POP POP POP POP PUSH1 0x40 MLOAD RETURNDATASIZE PUSH1 0x1F NOT PUSH1 0x1F DUP3 ADD AND DUP3 ADD DUP1 PUSH1 0x40 MSTORE POP DUP2 ADD SWAP1 PUSH2 0x902 SWAP2 SWAP1 PUSH2 0x20D0 JUMP JUMPDEST SWAP1 POP DUP1 ISZERO PUSH2 0x921 JUMPI PUSH1 0x7 SLOAD PUSH2 0x921 SWAP1 PUSH1 0x1 PUSH1 0x1 PUSH1 0xA0 SHL SUB AND CALLER DUP4 PUSH2 0x1923 JUMP JUMPDEST PUSH1 0x6 SLOAD PUSH1 0x40 MLOAD PUSH4 0x70A08231 PUSH1 0xE0 SHL DUP2 MSTORE ADDRESS PUSH1 0x4 DUP3 ADD MSTORE PUSH1 0x0 SWAP2 PUSH1 0x1 PUSH1 0x1 PUSH1 0xA0 SHL SUB AND SWAP1 PUSH4 0x70A08231 SWAP1 PUSH1 0x24 ADD PUSH1 0x20 PUSH1 0x40 MLOAD DUP1 DUP4 SUB DUP2 DUP7 GAS STATICCALL ISZERO DUP1 ISZERO PUSH2 0x96A JUMPI RETURNDATASIZE PUSH1 0x0 DUP1 RETURNDATACOPY RETURNDATASIZE PUSH1 0x0 REVERT JUMPDEST POP POP POP POP PUSH1 0x40 MLOAD RETURNDATASIZE PUSH1 0x1F NOT PUSH1 0x1F DUP3 ADD AND DUP3 ADD DUP1 PUSH1 0x40 MSTORE POP DUP2 ADD SWAP1 PUSH2 0x98E SWAP2 SWAP1 PUSH2 0x20D0 JUMP JUMPDEST SWAP1 POP DUP1 ISZERO PUSH2 0x9AD JUMPI PUSH1 0x6 SLOAD PUSH2 0x9AD SWAP1 PUSH1 0x1 PUSH1 0x1 PUSH1 0xA0 SHL SUB AND CALLER DUP4 PUSH2 0x1923 JUMP JUMPDEST PUSH1 0x0 DUP1 DUP1 PUSH1 0x5 SLOAD PUSH1 0xFF AND PUSH1 0x2 DUP2 GT ISZERO PUSH2 0x9C8 JUMPI PUSH2 0x9C8 PUSH2 0x1E04 JUMP JUMPDEST SUB PUSH2 0x9D7 JUMPI POP DUP4 SWAP1 POP DUP3 PUSH2 0xA05 JUMP JUMPDEST PUSH1 0x2 PUSH1 0x5 SLOAD PUSH1 0xFF AND PUSH1 0x2 DUP2 GT ISZERO PUSH2 0x9F0 JUMPI PUSH2 0x9F0 PUSH2 0x1E04 JUMP JUMPDEST SUB PUSH2 0x9FF JUMPI POP DUP2 SWAP1 POP DUP3 PUSH2 0xA05 JUMP JUMPDEST POP DUP2 SWAP1 POP DUP4 JUMPDEST PUSH1 0x40 MLOAD PUSH4 0x19BCB507 PUSH1 0xE1 SHL DUP2 MSTORE PUSH32 0x0 SWAP1 PUSH1 0x1 PUSH1 0x1 PUSH1 0xA0 SHL SUB DUP3 AND SWAP1 PUSH4 0x33796A0E SWAP1 PUSH2 0xA59 SWAP1 ADDRESS SWAP1 CALLER SWAP1 DUP9 SWAP1 DUP9 SWAP1 PUSH1 0x4 ADD PUSH2 0x20E9 JUMP JUMPDEST PUSH1 0x0 PUSH1 0x40 MLOAD DUP1 DUP4 SUB DUP2 PUSH1 0x0 DUP8 DUP1 EXTCODESIZE ISZERO DUP1 ISZERO PUSH2 0xA73 JUMPI PUSH1 0x0 DUP1 REVERT JUMPDEST POP GAS CALL ISZERO DUP1 ISZERO PUSH2 0xA87 JUMPI RETURNDATASIZE PUSH1 0x0 DUP1 RETURNDATACOPY RETURNDATASIZE PUSH1 0x0 REVERT JUMPDEST POP POP POP POP POP POP POP POP POP POP POP JUMP JUMPDEST PUSH1 0x5 SLOAD PUSH1 0x0 SWAP1 DUP2 SWAP1 PUSH1 0x1 PUSH1 0xA8 SHL SWAP1 DIV PUSH1 0xFF AND PUSH2 0xAC2 JUMPI PUSH1 0x40 MLOAD PUSH3 0x461BCD PUSH1 0xE5 SHL DUP2 MSTORE PUSH1 0x4 ADD PUSH2 0x3DC SWAP1 PUSH2 0x1F44 JUMP JUMPDEST POP POP PUSH1 0x8 SLOAD PUSH1 0x9 SLOAD SWAP1 SWAP2 JUMP JUMPDEST TIMESTAMP PUSH1 0x4 SLOAD LT ISZERO DUP1 ISZERO PUSH2 0xAE3 JUMPI POP PUSH1 0x9 SLOAD PUSH1 0x2 SLOAD LT JUMPDEST PUSH2 0xAFF JUMPI PUSH1 0x40 MLOAD PUSH3 0x461BCD PUSH1 0xE5 SHL DUP2 MSTORE PUSH1 0x4 ADD PUSH2 0x3DC SWAP1 PUSH2 0x1F14 JUMP JUMPDEST PUSH1 0x5 SLOAD PUSH1 0x1 PUSH1 0xA8 SHL SWAP1 DIV PUSH1 0xFF AND PUSH2 0xB28 JUMPI PUSH1 0x40 MLOAD PUSH3 0x461BCD PUSH1 0xE5 SHL DUP2 MSTORE PUSH1 0x4 ADD PUSH2 0x3DC SWAP1 PUSH2 0x1F44 JUMP JUMPDEST PUSH1 0x0 PUSH32 0x0 SWAP1 POP DUP1 PUSH1 0x1 PUSH1 0x1 PUSH1 0xA0 SHL SUB AND PUSH4 0xB187BD26 PUSH1 0x40 MLOAD DUP2 PUSH4 0xFFFFFFFF AND PUSH1 0xE0 SHL DUP2 MSTORE PUSH1 0x4 ADD PUSH1 0x20 PUSH1 0x40 MLOAD DUP1 DUP4 SUB DUP2 DUP7 GAS STATICCALL ISZERO DUP1 ISZERO PUSH2 0xB8B JUMPI RETURNDATASIZE PUSH1 0x0 DUP1 RETURNDATACOPY RETURNDATASIZE PUSH1 0x0 REVERT JUMPDEST POP POP POP POP PUSH1 0x40 MLOAD RETURNDATASIZE PUSH1 0x1F NOT PUSH1 0x1F DUP3 ADD AND DUP3 ADD DUP1 PUSH1 0x40 MSTORE POP DUP2 ADD SWAP1 PUSH2 0xBAF SWAP2 SWAP1 PUSH2 0x1F7B JUMP JUMPDEST ISZERO PUSH2 0xBCC JUMPI PUSH1 0x40 MLOAD PUSH3 0x461BCD PUSH1 0xE5 SHL DUP2 MSTORE PUSH1 0x4 ADD PUSH2 0x3DC SWAP1 PUSH2 0x1F98 JUMP JUMPDEST PUSH1 0x5 SLOAD PUSH1 0x1 SWAP1 PUSH1 0xFF AND PUSH1 0x2 DUP2 GT ISZERO PUSH2 0xBE6 JUMPI PUSH2 0xBE6 PUSH2 0x1E04 JUMP JUMPDEST DUP2 PUSH1 0x2 DUP2 GT ISZERO PUSH2 0xBF8 JUMPI PUSH2 0xBF8 PUSH2 0x1E04 JUMP JUMPDEST EQ PUSH2 0xC15 JUMPI PUSH1 0x40 MLOAD PUSH3 0x461BCD PUSH1 0xE5 SHL DUP2 MSTORE PUSH1 0x4 ADD PUSH2 0x3DC SWAP1 PUSH2 0x1FDA JUMP JUMPDEST PUSH1 0x2 PUSH1 0x1 SLOAD SUB PUSH2 0xC37 JUMPI PUSH1 0x40 MLOAD PUSH3 0x461BCD PUSH1 0xE5 SHL DUP2 MSTORE PUSH1 0x4 ADD PUSH2 0x3DC SWAP1 PUSH2 0x201B JUMP JUMPDEST PUSH1 0x2 PUSH1 0x1 SSTORE PUSH1 0x3 SLOAD PUSH1 0xFF AND PUSH2 0xC68 JUMPI PUSH1 0x9 SLOAD CALLVALUE LT ISZERO PUSH2 0xC68 JUMPI PUSH1 0x40 MLOAD PUSH3 0x461BCD PUSH1 0xE5 SHL DUP2 MSTORE PUSH1 0x4 ADD PUSH2 0x3DC SWAP1 PUSH2 0x2052 JUMP JUMPDEST PUSH2 0x557 DUP4 PUSH2 0x1A3E JUMP JUMPDEST PUSH1 0x0 CALLER PUSH1 0x1 PUSH1 0x1 PUSH1 0xA0 SHL SUB PUSH32 0x0 AND EQ PUSH2 0xCEB JUMPI PUSH1 0x40 MLOAD PUSH3 0x461BCD PUSH1 0xE5 SHL DUP2 MSTORE PUSH1 0x20 PUSH1 0x4 DUP3 ADD MSTORE PUSH1 0x17 PUSH1 0x24 DUP3 ADD MSTORE PUSH32 0x537943726F774261727465723A20464F5242494444454E000000000000000000 PUSH1 0x44 DUP3 ADD MSTORE PUSH1 0x64 ADD PUSH2 0x3DC JUMP JUMPDEST PUSH1 0x5 SLOAD PUSH1 0x1 PUSH1 0xA8 SHL SWAP1 DIV PUSH1 0xFF AND ISZERO PUSH2 0xD4F JUMPI PUSH1 0x40 MLOAD PUSH3 0x461BCD PUSH1 0xE5 SHL DUP2 MSTORE PUSH1 0x20 PUSH1 0x4 DUP3 ADD MSTORE PUSH1 0x21 PUSH1 0x24 DUP3 ADD MSTORE PUSH32 0x537943726F774261727465723A20414C52454144595F494E495449414C495A45 PUSH1 0x44 DUP3 ADD MSTORE PUSH1 0x11 PUSH1 0xFA SHL PUSH1 0x64 DUP3 ADD MSTORE PUSH1 0x84 ADD PUSH2 0x3DC JUMP JUMPDEST TIMESTAMP DUP5 LT ISZERO PUSH2 0xD9F JUMPI PUSH1 0x40 MLOAD PUSH3 0x461BCD PUSH1 0xE5 SHL DUP2 MSTORE PUSH1 0x20 PUSH1 0x4 DUP3 ADD MSTORE PUSH1 0x1B PUSH1 0x24 DUP3 ADD MSTORE PUSH32 0x537943726F774261727465723A20504153545F444541444C494E450000000000 PUSH1 0x44 DUP3 ADD MSTORE PUSH1 0x64 ADD PUSH2 0x3DC JUMP JUMPDEST PUSH1 0x40 MLOAD PUSH4 0x70A08231 PUSH1 0xE0 SHL DUP2 MSTORE ADDRESS PUSH1 0x4 DUP3 ADD MSTORE DUP7 SWAP1 PUSH1 0x1 PUSH1 0x1 PUSH1 0xA0 SHL SUB DUP11 AND SWAP1 PUSH4 0x70A08231 SWAP1 PUSH1 0x24 ADD PUSH1 0x20 PUSH1 0x40 MLOAD DUP1 DUP4 SUB DUP2 DUP7 GAS STATICCALL ISZERO DUP1 ISZERO PUSH2 0xDE5 JUMPI RETURNDATASIZE PUSH1 0x0 DUP1 RETURNDATACOPY RETURNDATASIZE PUSH1 0x0 REVERT JUMPDEST POP POP POP POP PUSH1 0x40 MLOAD RETURNDATASIZE PUSH1 0x1F NOT PUSH1 0x1F DUP3 ADD AND DUP3 ADD DUP1 PUSH1 0x40 MSTORE POP DUP2 ADD SWAP1 PUSH2 0xE09 SWAP2 SWAP1 PUSH2 0x20D0 JUMP JUMPDEST LT ISZERO PUSH2 0xE62 JUMPI PUSH1 0x40 MLOAD PUSH3 0x461BCD PUSH1 0xE5 SHL DUP2 MSTORE PUSH1 0x20 PUSH1 0x4 DUP3 ADD MSTORE PUSH1 0x22 PUSH1 0x24 DUP3 ADD MSTORE PUSH32 0x537943726F774261727465723A20494E53554646494349454E545F4445504F53 PUSH1 0x44 DUP3 ADD MSTORE PUSH2 0x1255 PUSH1 0xF2 SHL PUSH1 0x64 DUP3 ADD MSTORE PUSH1 0x84 ADD PUSH2 0x3DC JUMP JUMPDEST PUSH1 0x4 DUP5 SWAP1 SSTORE PUSH1 0x6 DUP1 SLOAD PUSH1 0x1 PUSH1 0x1 PUSH1 0xA0 SHL SUB DUP1 DUP12 AND PUSH1 0x1 PUSH1 0x1 PUSH1 0xA0 SHL SUB NOT SWAP3 DUP4 AND OR SWAP1 SWAP3 SSTORE PUSH1 0x7 DUP1 SLOAD SWAP3 DUP11 AND SWAP3 SWAP1 SWAP2 AND SWAP2 SWAP1 SWAP2 OR SWAP1 SSTORE PUSH1 0x8 DUP7 SWAP1 SSTORE PUSH1 0x9 DUP6 SWAP1 SSTORE PUSH1 0x5 DUP1 SLOAD DUP11 SWAP2 SWAP1 PUSH1 0xFF NOT AND PUSH1 0x1 DUP4 PUSH1 0x2 DUP2 GT ISZERO PUSH2 0xEC0 JUMPI PUSH2 0xEC0 PUSH2 0x1E04 JUMP JUMPDEST MUL OR SWAP1 SSTORE POP POP PUSH1 0x3 DUP1 SLOAD DUP4 ISZERO ISZERO PUSH1 0xFF NOT SWAP1 SWAP2 AND OR SWAP1 SSTORE PUSH1 0x5 DUP1 SLOAD PUSH1 0xFF PUSH1 0xA8 SHL NOT PUSH1 0x1 PUSH1 0x1 PUSH1 0xA0 SHL SUB DUP5 AND PUSH2 0x100 MUL AND PUSH2 0x100 PUSH1 0x1 PUSH1 0xB0 SHL SUB NOT SWAP1 SWAP2 AND OR PUSH1 0x1 PUSH1 0xA8 SHL SWAP1 DUP2 OR SWAP2 DUP3 SWAP1 SSTORE SWAP1 DIV PUSH1 0xFF AND SWAP9 SWAP8 POP POP POP POP POP POP POP POP JUMP JUMPDEST PUSH1 0x0 SLOAD PUSH1 0x1 PUSH1 0x1 PUSH1 0xA0 SHL SUB AND CALLER EQ PUSH2 0xF44 JUMPI PUSH1 0x40 MLOAD PUSH3 0x461BCD PUSH1 0xE5 SHL DUP2 MSTORE PUSH1 0x4 ADD PUSH2 0x3DC SWAP1 PUSH2 0x209B JUMP JUMPDEST PUSH2 0xF4E PUSH1 0x0 PUSH2 0x1BB7 JUMP JUMPDEST JUMP JUMPDEST PUSH1 0x5 SLOAD PUSH1 0x0 SWAP1 DUP2 SWAP1 PUSH1 0x1 PUSH1 0xA8 SHL SWAP1 DIV PUSH1 0xFF AND PUSH2 0xF7E JUMPI PUSH1 0x40 MLOAD PUSH3 0x461BCD PUSH1 0xE5 SHL DUP2 MSTORE PUSH1 0x4 ADD PUSH2 0x3DC SWAP1 PUSH2 0x1F44 JUMP JUMPDEST POP POP PUSH1 0x6 SLOAD PUSH1 0x7 SLOAD PUSH1 0x1 PUSH1 0x1 PUSH1 0xA0 SHL SUB SWAP2 DUP3 AND SWAP2 AND SWAP1 SWAP2 JUMP JUMPDEST PUSH1 0x0 PUSH1 0x9 SLOAD PUSH1 0x8 SLOAD DUP4 PUSH2 0xFAA SWAP2 SWAP1 PUSH2 0x2128 JUMP JUMPDEST PUSH2 0xFB4 SWAP2 SWAP1 PUSH2 0x2147 JUMP JUMPDEST SWAP3 SWAP2 POP POP JUMP JUMPDEST PUSH1 0x60 DUP1 PUSH1 0x60 PUSH1 0x5 PUSH1 0x15 SWAP1 SLOAD SWAP1 PUSH2 0x100 EXP SWAP1 DIV PUSH1 0xFF AND PUSH2 0xFEB JUMPI PUSH1 0x40 MLOAD PUSH3 0x461BCD PUSH1 0xE5 SHL DUP2 MSTORE PUSH1 0x4 ADD PUSH2 0x3DC SWAP1 PUSH2 0x1F44 JUMP JUMPDEST PUSH1 0xA SLOAD PUSH1 0x0 SWAP1 PUSH8 0xFFFFFFFFFFFFFFFF DUP2 GT ISZERO PUSH2 0x1009 JUMPI PUSH2 0x1009 PUSH2 0x2169 JUMP JUMPDEST PUSH1 0x40 MLOAD SWAP1 DUP1 DUP3 MSTORE DUP1 PUSH1 0x20 MUL PUSH1 0x20 ADD DUP3 ADD PUSH1 0x40 MSTORE DUP1 ISZERO PUSH2 0x1032 JUMPI DUP2 PUSH1 0x20 ADD PUSH1 0x20 DUP3 MUL DUP1 CALLDATASIZE DUP4 CALLDATACOPY ADD SWAP1 POP JUMPDEST POP PUSH1 0xA SLOAD SWAP1 SWAP2 POP PUSH1 0x0 SWAP1 PUSH8 0xFFFFFFFFFFFFFFFF DUP2 GT ISZERO PUSH2 0x1054 JUMPI PUSH2 0x1054 PUSH2 0x2169 JUMP JUMPDEST PUSH1 0x40 MLOAD SWAP1 DUP1 DUP3 MSTORE DUP1 PUSH1 0x20 MUL PUSH1 0x20 ADD DUP3 ADD PUSH1 0x40 MSTORE DUP1 ISZERO PUSH2 0x107D JUMPI DUP2 PUSH1 0x20 ADD PUSH1 0x20 DUP3 MUL DUP1 CALLDATASIZE DUP4 CALLDATACOPY ADD SWAP1 POP JUMPDEST POP PUSH1 0xA SLOAD SWAP1 SWAP2 POP PUSH1 0x0 SWAP1 PUSH8 0xFFFFFFFFFFFFFFFF DUP2 GT ISZERO PUSH2 0x109F JUMPI PUSH2 0x109F PUSH2 0x2169 JUMP JUMPDEST PUSH1 0x40 MLOAD SWAP1 DUP1 DUP3 MSTORE DUP1 PUSH1 0x20 MUL PUSH1 0x20 ADD DUP3 ADD PUSH1 0x40 MSTORE DUP1 ISZERO PUSH2 0x10C8 JUMPI DUP2 PUSH1 0x20 ADD PUSH1 0x20 DUP3 MUL DUP1 CALLDATASIZE DUP4 CALLDATACOPY ADD SWAP1 POP JUMPDEST POP SWAP1 POP PUSH1 0x0 JUMPDEST PUSH1 0xA SLOAD DUP2 LT ISZERO PUSH2 0x11D3 JUMPI PUSH1 0xA DUP2 DUP2 SLOAD DUP2 LT PUSH2 0x10EB JUMPI PUSH2 0x10EB PUSH2 0x217F JUMP JUMPDEST PUSH1 0x0 SWAP2 DUP3 MSTORE PUSH1 0x20 SWAP1 SWAP2 KECCAK256 PUSH1 0x3 SWAP1 SWAP2 MUL ADD SLOAD DUP5 MLOAD PUSH1 0x1 PUSH1 0x1 PUSH1 0xA0 SHL SUB SWAP1 SWAP2 AND SWAP1 DUP6 SWAP1 DUP4 SWAP1 DUP2 LT PUSH2 0x111C JUMPI PUSH2 0x111C PUSH2 0x217F JUMP JUMPDEST PUSH1 0x20 MUL PUSH1 0x20 ADD ADD SWAP1 PUSH1 0x1 PUSH1 0x1 PUSH1 0xA0 SHL SUB AND SWAP1 DUP2 PUSH1 0x1 PUSH1 0x1 PUSH1 0xA0 SHL SUB AND DUP2 MSTORE POP POP PUSH1 0xA DUP2 DUP2 SLOAD DUP2 LT PUSH2 0x114F JUMPI PUSH2 0x114F PUSH2 0x217F JUMP JUMPDEST SWAP1 PUSH1 0x0 MSTORE PUSH1 0x20 PUSH1 0x0 KECCAK256 SWAP1 PUSH1 0x3 MUL ADD PUSH1 0x1 ADD SLOAD DUP4 DUP3 DUP2 MLOAD DUP2 LT PUSH2 0x1173 JUMPI PUSH2 0x1173 PUSH2 0x217F JUMP JUMPDEST PUSH1 0x20 MUL PUSH1 0x20 ADD ADD DUP2 DUP2 MSTORE POP POP PUSH1 0xA DUP2 DUP2 SLOAD DUP2 LT PUSH2 0x1192 JUMPI PUSH2 0x1192 PUSH2 0x217F JUMP JUMPDEST SWAP1 PUSH1 0x0 MSTORE PUSH1 0x20 PUSH1 0x0 KECCAK256 SWAP1 PUSH1 0x3 MUL ADD PUSH1 0x2 ADD SLOAD DUP3 DUP3 DUP2 MLOAD DUP2 LT PUSH2 0x11B6 JUMPI PUSH2 0x11B6 PUSH2 0x217F JUMP JUMPDEST PUSH1 0x20 SWAP1 DUP2 MUL SWAP2 SWAP1 SWAP2 ADD ADD MSTORE DUP1 PUSH2 0x11CB DUP2 PUSH2 0x2195 JUMP JUMPDEST SWAP2 POP POP PUSH2 0x10CE JUMP JUMPDEST POP SWAP2 SWAP5 POP SWAP3 POP SWAP1 POP SWAP1 SWAP2 SWAP3 JUMP JUMPDEST PUSH1 0x0 SLOAD PUSH1 0x1 PUSH1 0x1 PUSH1 0xA0 SHL SUB AND CALLER EQ PUSH2 0x120A JUMPI PUSH1 0x40 MLOAD PUSH3 0x461BCD PUSH1 0xE5 SHL DUP2 MSTORE PUSH1 0x4 ADD PUSH2 0x3DC SWAP1 PUSH2 0x209B JUMP JUMPDEST PUSH1 0x1 PUSH1 0x1 PUSH1 0xA0 SHL SUB DUP2 AND PUSH2 0x126F JUMPI PUSH1 0x40 MLOAD PUSH3 0x461BCD PUSH1 0xE5 SHL DUP2 MSTORE PUSH1 0x20 PUSH1 0x4 DUP3 ADD MSTORE PUSH1 0x26 PUSH1 0x24 DUP3 ADD MSTORE PUSH32 0x4F776E61626C653A206E6577206F776E657220697320746865207A65726F2061 PUSH1 0x44 DUP3 ADD MSTORE PUSH6 0x646472657373 PUSH1 0xD0 SHL PUSH1 0x64 DUP3 ADD MSTORE PUSH1 0x84 ADD PUSH2 0x3DC JUMP JUMPDEST PUSH2 0x1278 DUP2 PUSH2 0x1BB7 JUMP JUMPDEST POP JUMP JUMPDEST PUSH1 0x7 SLOAD PUSH1 0x40 MLOAD PUSH4 0x70A08231 PUSH1 0xE0 SHL DUP2 MSTORE CALLER PUSH1 0x4 DUP3 ADD MSTORE DUP3 SWAP2 PUSH1 0x1 PUSH1 0x1 PUSH1 0xA0 SHL SUB AND SWAP1 PUSH4 0x70A08231 SWAP1 PUSH1 0x24 ADD PUSH1 0x20 PUSH1 0x40 MLOAD DUP1 DUP4 SUB DUP2 DUP7 GAS STATICCALL ISZERO DUP1 ISZERO PUSH2 0x12C3 JUMPI RETURNDATASIZE PUSH1 0x0 DUP1 RETURNDATACOPY RETURNDATASIZE PUSH1 0x0 REVERT JUMPDEST POP POP POP POP PUSH1 0x40 MLOAD RETURNDATASIZE PUSH1 0x1F NOT PUSH1 0x1F DUP3 ADD AND DUP3 ADD DUP1 PUSH1 0x40 MSTORE POP DUP2 ADD SWAP1 PUSH2 0x12E7 SWAP2 SWAP1 PUSH2 0x20D0 JUMP JUMPDEST LT ISZERO PUSH2 0x1305 JUMPI PUSH1 0x40 MLOAD PUSH3 0x461BCD PUSH1 0xE5 SHL DUP2 MSTORE PUSH1 0x4 ADD PUSH2 0x3DC SWAP1 PUSH2 0x21AE JUMP JUMPDEST PUSH1 0x0 PUSH2 0x1310 DUP3 PUSH2 0xF97 JUMP JUMPDEST PUSH1 0x5 SLOAD PUSH1 0x40 MLOAD PUSH4 0x70A08231 PUSH1 0xE0 SHL DUP2 MSTORE ADDRESS PUSH1 0x4 DUP3 ADD MSTORE SWAP2 SWAP3 POP PUSH2 0x100 SWAP1 DIV PUSH1 0x1 PUSH1 0x1 PUSH1 0xA0 SHL SUB AND SWAP1 DUP3 SWAP1 DUP3 SWAP1 PUSH4 0x70A08231 SWAP1 PUSH1 0x24 ADD PUSH1 0x20 PUSH1 0x40 MLOAD DUP1 DUP4 SUB DUP2 DUP7 GAS STATICCALL ISZERO DUP1 ISZERO PUSH2 0x1362 JUMPI RETURNDATASIZE PUSH1 0x0 DUP1 RETURNDATACOPY RETURNDATASIZE PUSH1 0x0 REVERT JUMPDEST POP POP POP POP PUSH1 0x40 MLOAD RETURNDATASIZE PUSH1 0x1F NOT PUSH1 0x1F DUP3 ADD AND DUP3 ADD DUP1 PUSH1 0x40 MSTORE POP DUP2 ADD SWAP1 PUSH2 0x1386 SWAP2 SWAP1 PUSH2 0x20D0 JUMP JUMPDEST LT ISZERO PUSH2 0x13A4 JUMPI PUSH1 0x40 MLOAD PUSH3 0x461BCD PUSH1 0xE5 SHL DUP2 MSTORE PUSH1 0x4 ADD PUSH2 0x3DC SWAP1 PUSH2 0x21F0 JUMP JUMPDEST PUSH1 0x7 SLOAD PUSH2 0x13BC SWAP1 PUSH1 0x1 PUSH1 0x1 PUSH1 0xA0 SHL SUB AND CALLER ADDRESS DUP7 PUSH2 0x1C07 JUMP JUMPDEST PUSH1 0x5 SLOAD PUSH1 0x40 MLOAD PUSH4 0x2E1A7D4D PUSH1 0xE0 SHL DUP2 MSTORE PUSH1 0x4 DUP2 ADD DUP5 SWAP1 MSTORE PUSH2 0x100 SWAP1 SWAP2 DIV PUSH1 0x1 PUSH1 0x1 PUSH1 0xA0 SHL SUB AND SWAP1 PUSH4 0x2E1A7D4D SWAP1 PUSH1 0x24 ADD PUSH1 0x0 PUSH1 0x40 MLOAD DUP1 DUP4 SUB DUP2 PUSH1 0x0 DUP8 DUP1 EXTCODESIZE ISZERO DUP1 ISZERO PUSH2 0x1406 JUMPI PUSH1 0x0 DUP1 REVERT JUMPDEST POP GAS CALL ISZERO DUP1 ISZERO PUSH2 0x141A JUMPI RETURNDATASIZE PUSH1 0x0 DUP1 RETURNDATACOPY RETURNDATASIZE PUSH1 0x0 REVERT JUMPDEST POP POP POP POP PUSH2 0x1428 CALLER DUP4 PUSH2 0x1855 JUMP JUMPDEST PUSH1 0x40 DUP1 MLOAD PUSH1 0x60 DUP2 ADD DUP3 MSTORE CALLER DUP2 MSTORE PUSH1 0x20 DUP2 ADD DUP6 DUP2 MSTORE SWAP2 DUP2 ADD DUP5 DUP2 MSTORE PUSH1 0xA DUP1 SLOAD PUSH1 0x1 DUP2 ADD DUP3 SSTORE PUSH1 0x0 SWAP2 SWAP1 SWAP2 MSTORE SWAP2 MLOAD PUSH32 0xC65A7BB8D6351C1CF70C95A316CC6A92839C986682D98BC35F958F4883F9D2A8 PUSH1 0x3 SWAP1 SWAP4 MUL SWAP3 DUP4 ADD DUP1 SLOAD PUSH1 0x1 PUSH1 0x1 PUSH1 0xA0 SHL SUB NOT AND PUSH1 0x1 PUSH1 0x1 PUSH1 0xA0 SHL SUB SWAP1 SWAP3 AND SWAP2 SWAP1 SWAP2 OR SWAP1 SSTORE SWAP2 MLOAD PUSH32 0xC65A7BB8D6351C1CF70C95A316CC6A92839C986682D98BC35F958F4883F9D2A9 DUP3 ADD SSTORE SWAP1 MLOAD PUSH32 0xC65A7BB8D6351C1CF70C95A316CC6A92839C986682D98BC35F958F4883F9D2AA SWAP1 SWAP2 ADD SSTORE PUSH1 0x2 SLOAD PUSH2 0x14F5 SWAP1 DUP5 SWAP1 PUSH2 0x223B JUMP JUMPDEST PUSH1 0x2 SSTORE PUSH1 0x40 MLOAD PUSH4 0xF52701B7 PUSH1 0xE0 SHL DUP2 MSTORE PUSH32 0x0 SWAP1 PUSH1 0x1 PUSH1 0x1 PUSH1 0xA0 SHL SUB DUP3 AND SWAP1 PUSH4 0xF52701B7 SWAP1 PUSH2 0x154C SWAP1 ADDRESS SWAP1 CALLER SWAP1 DUP10 SWAP1 DUP10 SWAP1 PUSH1 0x4 ADD PUSH2 0x20E9 JUMP JUMPDEST PUSH1 0x0 PUSH1 0x40 MLOAD DUP1 DUP4 SUB DUP2 PUSH1 0x0 DUP8 DUP1 EXTCODESIZE ISZERO DUP1 ISZERO PUSH2 0x1566 JUMPI PUSH1 0x0 DUP1 REVERT JUMPDEST POP GAS CALL ISZERO DUP1 ISZERO PUSH2 0x157A JUMPI RETURNDATASIZE PUSH1 0x0 DUP1 RETURNDATACOPY RETURNDATASIZE PUSH1 0x0 REVERT JUMPDEST POP POP PUSH1 0x3 DUP1 SLOAD PUSH2 0xFF00 NOT AND PUSH2 0x100 SWAP1 DUP2 OR SWAP2 DUP3 SWAP1 SSTORE SWAP1 DIV PUSH1 0xFF AND SWAP2 POP PUSH2 0x15A1 SWAP1 POP JUMPI PUSH1 0x0 DUP1 REVERT JUMPDEST POP POP POP POP JUMP JUMPDEST PUSH1 0x7 SLOAD PUSH1 0x40 MLOAD PUSH4 0x70A08231 PUSH1 0xE0 SHL DUP2 MSTORE CALLER PUSH1 0x4 DUP3 ADD MSTORE DUP3 SWAP2 PUSH1 0x1 PUSH1 0x1 PUSH1 0xA0 SHL SUB AND SWAP1 PUSH4 0x70A08231 SWAP1 PUSH1 0x24 ADD PUSH1 0x20 PUSH1 0x40 MLOAD DUP1 DUP4 SUB DUP2 DUP7 GAS STATICCALL ISZERO DUP1 ISZERO PUSH2 0x15EF JUMPI RETURNDATASIZE PUSH1 0x0 DUP1 RETURNDATACOPY RETURNDATASIZE PUSH1 0x0 REVERT JUMPDEST POP POP POP POP PUSH1 0x40 MLOAD RETURNDATASIZE PUSH1 0x1F NOT PUSH1 0x1F DUP3 ADD AND DUP3 ADD DUP1 PUSH1 0x40 MSTORE POP DUP2 ADD SWAP1 PUSH2 0x1613 SWAP2 SWAP1 PUSH2 0x20D0 JUMP JUMPDEST LT ISZERO PUSH2 0x1631 JUMPI PUSH1 0x40 MLOAD PUSH3 0x461BCD PUSH1 0xE5 SHL DUP2 MSTORE PUSH1 0x4 ADD PUSH2 0x3DC SWAP1 PUSH2 0x21AE JUMP JUMPDEST PUSH1 0x0 PUSH2 0x163C DUP3 PUSH2 0xF97 JUMP JUMPDEST PUSH1 0x6 SLOAD PUSH1 0x40 MLOAD PUSH4 0x70A08231 PUSH1 0xE0 SHL DUP2 MSTORE ADDRESS PUSH1 0x4 DUP3 ADD MSTORE SWAP2 SWAP3 POP DUP3 SWAP2 PUSH1 0x1 PUSH1 0x1 PUSH1 0xA0 SHL SUB SWAP1 SWAP2 AND SWAP1 PUSH4 0x70A08231 SWAP1 PUSH1 0x24 ADD PUSH1 0x20 PUSH1 0x40 MLOAD DUP1 DUP4 SUB DUP2 DUP7 GAS STATICCALL ISZERO DUP1 ISZERO PUSH2 0x1689 JUMPI RETURNDATASIZE PUSH1 0x0 DUP1 RETURNDATACOPY RETURNDATASIZE PUSH1 0x0 REVERT JUMPDEST POP POP POP POP PUSH1 0x40 MLOAD RETURNDATASIZE PUSH1 0x1F NOT PUSH1 0x1F DUP3 ADD AND DUP3 ADD DUP1 PUSH1 0x40 MSTORE POP DUP2 ADD SWAP1 PUSH2 0x16AD SWAP2 SWAP1 PUSH2 0x20D0 JUMP JUMPDEST LT ISZERO PUSH2 0x16CB JUMPI PUSH1 0x40 MLOAD PUSH3 0x461BCD PUSH1 0xE5 SHL DUP2 MSTORE PUSH1 0x4 ADD PUSH2 0x3DC SWAP1 PUSH2 0x21F0 JUMP JUMPDEST PUSH1 0x7 SLOAD PUSH2 0x16E3 SWAP1 PUSH1 0x1 PUSH1 0x1 PUSH1 0xA0 SHL SUB AND CALLER ADDRESS DUP6 PUSH2 0x1C07 JUMP JUMPDEST PUSH1 0x6 SLOAD PUSH2 0x16FA SWAP1 PUSH1 0x1 PUSH1 0x1 PUSH1 0xA0 SHL SUB AND CALLER DUP4 PUSH2 0x1923 JUMP JUMPDEST PUSH1 0x40 DUP1 MLOAD PUSH1 0x60 DUP2 ADD DUP3 MSTORE CALLER DUP2 MSTORE PUSH1 0x20 DUP2 ADD DUP5 DUP2 MSTORE SWAP2 DUP2 ADD DUP4 DUP2 MSTORE PUSH1 0xA DUP1 SLOAD PUSH1 0x1 DUP2 ADD DUP3 SSTORE PUSH1 0x0 SWAP2 SWAP1 SWAP2 MSTORE SWAP2 MLOAD PUSH32 0xC65A7BB8D6351C1CF70C95A316CC6A92839C986682D98BC35F958F4883F9D2A8 PUSH1 0x3 SWAP1 SWAP4 MUL SWAP3 DUP4 ADD DUP1 SLOAD PUSH1 0x1 PUSH1 0x1 PUSH1 0xA0 SHL SUB NOT AND PUSH1 0x1 PUSH1 0x1 PUSH1 0xA0 SHL SUB SWAP1 SWAP3 AND SWAP2 SWAP1 SWAP2 OR SWAP1 SSTORE SWAP2 MLOAD PUSH32 0xC65A7BB8D6351C1CF70C95A316CC6A92839C986682D98BC35F958F4883F9D2A9 DUP3 ADD SSTORE SWAP1 MLOAD PUSH32 0xC65A7BB8D6351C1CF70C95A316CC6A92839C986682D98BC35F958F4883F9D2AA SWAP1 SWAP2 ADD SSTORE PUSH1 0x2 SLOAD PUSH2 0x17C7 SWAP1 DUP4 SWAP1 PUSH2 0x223B JUMP JUMPDEST PUSH1 0x2 SSTORE PUSH1 0x40 MLOAD PUSH4 0xF52701B7 PUSH1 0xE0 SHL DUP2 MSTORE PUSH32 0x0 SWAP1 PUSH1 0x1 PUSH1 0x1 PUSH1 0xA0 SHL SUB DUP3 AND SWAP1 PUSH4 0xF52701B7 SWAP1 PUSH2 0x181E SWAP1 ADDRESS SWAP1 CALLER SWAP1 DUP9 SWAP1 DUP9 SWAP1 PUSH1 0x4 ADD PUSH2 0x20E9 JUMP JUMPDEST PUSH1 0x0 PUSH1 0x40 MLOAD DUP1 DUP4 SUB DUP2 PUSH1 0x0 DUP8 DUP1 EXTCODESIZE ISZERO DUP1 ISZERO PUSH2 0x1838 JUMPI PUSH1 0x0 DUP1 REVERT JUMPDEST POP GAS CALL ISZERO DUP1 ISZERO PUSH2 0x184C JUMPI RETURNDATASIZE PUSH1 0x0 DUP1 RETURNDATACOPY RETURNDATASIZE PUSH1 0x0 REVERT JUMPDEST POP POP POP POP POP POP POP JUMP JUMPDEST PUSH1 0x40 DUP1 MLOAD PUSH1 0x0 DUP1 DUP3 MSTORE PUSH1 0x20 DUP3 ADD SWAP1 SWAP3 MSTORE PUSH1 0x1 PUSH1 0x1 PUSH1 0xA0 SHL SUB DUP5 AND SWAP1 DUP4 SWAP1 PUSH1 0x40 MLOAD PUSH2 0x187F SWAP2 SWAP1 PUSH2 0x2253 JUMP JUMPDEST PUSH1 0x0 PUSH1 0x40 MLOAD DUP1 DUP4 SUB DUP2 DUP6 DUP8 GAS CALL SWAP3 POP POP POP RETURNDATASIZE DUP1 PUSH1 0x0 DUP2 EQ PUSH2 0x18BC JUMPI PUSH1 0x40 MLOAD SWAP2 POP PUSH1 0x1F NOT PUSH1 0x3F RETURNDATASIZE ADD AND DUP3 ADD PUSH1 0x40 MSTORE RETURNDATASIZE DUP3 MSTORE RETURNDATASIZE PUSH1 0x0 PUSH1 0x20 DUP5 ADD RETURNDATACOPY PUSH2 0x18C1 JUMP JUMPDEST PUSH1 0x60 SWAP2 POP JUMPDEST POP POP SWAP1 POP DUP1 PUSH2 0x191E JUMPI PUSH1 0x40 MLOAD PUSH3 0x461BCD PUSH1 0xE5 SHL DUP2 MSTORE PUSH1 0x20 PUSH1 0x4 DUP3 ADD MSTORE PUSH1 0x23 PUSH1 0x24 DUP3 ADD MSTORE PUSH32 0x5472616E7366657248656C7065723A204554485F5452414E534645525F464149 PUSH1 0x44 DUP3 ADD MSTORE PUSH3 0x131151 PUSH1 0xEA SHL PUSH1 0x64 DUP3 ADD MSTORE PUSH1 0x84 ADD PUSH2 0x3DC JUMP JUMPDEST POP POP POP JUMP JUMPDEST PUSH1 0x40 DUP1 MLOAD PUSH1 0x1 PUSH1 0x1 PUSH1 0xA0 SHL SUB DUP5 DUP2 AND PUSH1 0x24 DUP4 ADD MSTORE PUSH1 0x44 DUP1 DUP4 ADD DUP6 SWAP1 MSTORE DUP4 MLOAD DUP1 DUP5 SUB SWAP1 SWAP2 ADD DUP2 MSTORE PUSH1 0x64 SWAP1 SWAP3 ADD DUP4 MSTORE PUSH1 0x20 DUP3 ADD DUP1 MLOAD PUSH1 0x1 PUSH1 0x1 PUSH1 0xE0 SHL SUB AND PUSH4 0xA9059CBB PUSH1 0xE0 SHL OR SWAP1 MSTORE SWAP2 MLOAD PUSH1 0x0 SWAP3 DUP4 SWAP3 SWAP1 DUP8 AND SWAP2 PUSH2 0x197F SWAP2 SWAP1 PUSH2 0x2253 JUMP JUMPDEST PUSH1 0x0 PUSH1 0x40 MLOAD DUP1 DUP4 SUB DUP2 PUSH1 0x0 DUP7 GAS CALL SWAP2 POP POP RETURNDATASIZE DUP1 PUSH1 0x0 DUP2 EQ PUSH2 0x19BC JUMPI PUSH1 0x40 MLOAD SWAP2 POP PUSH1 0x1F NOT PUSH1 0x3F RETURNDATASIZE ADD AND DUP3 ADD PUSH1 0x40 MSTORE RETURNDATASIZE DUP3 MSTORE RETURNDATASIZE PUSH1 0x0 PUSH1 0x20 DUP5 ADD RETURNDATACOPY PUSH2 0x19C1 JUMP JUMPDEST PUSH1 0x60 SWAP2 POP JUMPDEST POP SWAP2 POP SWAP2 POP DUP2 DUP1 ISZERO PUSH2 0x19EB JUMPI POP DUP1 MLOAD ISZERO DUP1 PUSH2 0x19EB JUMPI POP DUP1 DUP1 PUSH1 0x20 ADD SWAP1 MLOAD DUP2 ADD SWAP1 PUSH2 0x19EB SWAP2 SWAP1 PUSH2 0x1F7B JUMP JUMPDEST PUSH2 0x1A37 JUMPI PUSH1 0x40 MLOAD PUSH3 0x461BCD PUSH1 0xE5 SHL DUP2 MSTORE PUSH1 0x20 PUSH1 0x4 DUP3 ADD MSTORE PUSH1 0x1F PUSH1 0x24 DUP3 ADD MSTORE PUSH32 0x5472616E7366657248656C7065723A205452414E534645525F4641494C454400 PUSH1 0x44 DUP3 ADD MSTORE PUSH1 0x64 ADD PUSH2 0x3DC JUMP JUMPDEST POP POP POP POP POP JUMP JUMPDEST CALLVALUE DUP2 EQ PUSH2 0x1A9B JUMPI PUSH1 0x40 MLOAD PUSH3 0x461BCD PUSH1 0xE5 SHL DUP2 MSTORE PUSH1 0x20 PUSH1 0x4 DUP3 ADD MSTORE PUSH1 0x25 PUSH1 0x24 DUP3 ADD MSTORE PUSH32 0x537943726F774261727465723A204D554C54495F54524144455F4E4F545F454E PUSH1 0x44 DUP3 ADD MSTORE PUSH5 0x1050931151 PUSH1 0xDA SHL PUSH1 0x64 DUP3 ADD MSTORE PUSH1 0x84 ADD PUSH2 0x3DC JUMP JUMPDEST PUSH1 0x0 PUSH2 0x1AA6 DUP3 PUSH2 0xF97 JUMP JUMPDEST PUSH1 0x6 SLOAD PUSH1 0x40 MLOAD PUSH4 0x70A08231 PUSH1 0xE0 SHL DUP2 MSTORE ADDRESS PUSH1 0x4 DUP3 ADD MSTORE SWAP2 SWAP3 POP DUP3 SWAP2 PUSH1 0x1 PUSH1 0x1 PUSH1 0xA0 SHL SUB SWAP1 SWAP2 AND SWAP1 PUSH4 0x70A08231 SWAP1 PUSH1 0x24 ADD PUSH1 0x20 PUSH1 0x40 MLOAD DUP1 DUP4 SUB DUP2 DUP7 GAS STATICCALL ISZERO DUP1 ISZERO PUSH2 0x1AF3 JUMPI RETURNDATASIZE PUSH1 0x0 DUP1 RETURNDATACOPY RETURNDATASIZE PUSH1 0x0 REVERT JUMPDEST POP POP POP POP PUSH1 0x40 MLOAD RETURNDATASIZE PUSH1 0x1F NOT PUSH1 0x1F DUP3 ADD AND DUP3 ADD DUP1 PUSH1 0x40 MSTORE POP DUP2 ADD SWAP1 PUSH2 0x1B17 SWAP2 SWAP1 PUSH2 0x20D0 JUMP JUMPDEST LT ISZERO PUSH2 0x1B35 JUMPI PUSH1 0x40 MLOAD PUSH3 0x461BCD PUSH1 0xE5 SHL DUP2 MSTORE PUSH1 0x4 ADD PUSH2 0x3DC SWAP1 PUSH2 0x21F0 JUMP JUMPDEST PUSH1 0x5 PUSH1 0x1 SWAP1 SLOAD SWAP1 PUSH2 0x100 EXP SWAP1 DIV PUSH1 0x1 PUSH1 0x1 PUSH1 0xA0 SHL SUB AND PUSH1 0x1 PUSH1 0x1 PUSH1 0xA0 SHL SUB AND PUSH4 0xD0E30DB0 DUP4 PUSH1 0x40 MLOAD DUP3 PUSH4 0xFFFFFFFF AND PUSH1 0xE0 SHL DUP2 MSTORE PUSH1 0x4 ADD PUSH1 0x0 PUSH1 0x40 MLOAD DUP1 DUP4 SUB DUP2 DUP6 DUP9 DUP1 EXTCODESIZE ISZERO DUP1 ISZERO PUSH2 0x1B85 JUMPI PUSH1 0x0 DUP1 REVERT JUMPDEST POP GAS CALL ISZERO DUP1 ISZERO PUSH2 0x1B99 JUMPI RETURNDATASIZE PUSH1 0x0 DUP1 RETURNDATACOPY RETURNDATASIZE PUSH1 0x0 REVERT JUMPDEST POP POP PUSH1 0x6 SLOAD PUSH2 0x16FA SWAP4 POP PUSH1 0x1 PUSH1 0x1 PUSH1 0xA0 SHL SUB AND SWAP2 POP CALLER SWAP1 POP DUP4 PUSH2 0x1923 JUMP JUMPDEST PUSH1 0x0 DUP1 SLOAD PUSH1 0x1 PUSH1 0x1 PUSH1 0xA0 SHL SUB DUP4 DUP2 AND PUSH1 0x1 PUSH1 0x1 PUSH1 0xA0 SHL SUB NOT DUP4 AND DUP2 OR DUP5 SSTORE PUSH1 0x40 MLOAD SWAP2 SWAP1 SWAP3 AND SWAP3 DUP4 SWAP2 PUSH32 0x8BE0079C531659141344CD1FD0A4F28419497F9722A3DAAFE3B4186F6B6457E0 SWAP2 SWAP1 LOG3 POP POP JUMP JUMPDEST PUSH1 0x40 DUP1 MLOAD PUSH1 0x1 PUSH1 0x1 PUSH1 0xA0 SHL SUB DUP6 DUP2 AND PUSH1 0x24 DUP4 ADD MSTORE DUP5 DUP2 AND PUSH1 0x44 DUP4 ADD MSTORE PUSH1 0x64 DUP1 DUP4 ADD DUP6 SWAP1 MSTORE DUP4 MLOAD DUP1 DUP5 SUB SWAP1 SWAP2 ADD DUP2 MSTORE PUSH1 0x84 SWAP1 SWAP3 ADD DUP4 MSTORE PUSH1 0x20 DUP3 ADD DUP1 MLOAD PUSH1 0x1 PUSH1 0x1 PUSH1 0xE0 SHL SUB AND PUSH4 0x23B872DD PUSH1 0xE0 SHL OR SWAP1 MSTORE SWAP2 MLOAD PUSH1 0x0 SWAP3 DUP4 SWAP3 SWAP1 DUP9 AND SWAP2 PUSH2 0x1C6B SWAP2 SWAP1 PUSH2 0x2253 JUMP JUMPDEST PUSH1 0x0 PUSH1 0x40 MLOAD DUP1 DUP4 SUB DUP2 PUSH1 0x0 DUP7 GAS CALL SWAP2 POP POP RETURNDATASIZE DUP1 PUSH1 0x0 DUP2 EQ PUSH2 0x1CA8 JUMPI PUSH1 0x40 MLOAD SWAP2 POP PUSH1 0x1F NOT PUSH1 0x3F RETURNDATASIZE ADD AND DUP3 ADD PUSH1 0x40 MSTORE RETURNDATASIZE DUP3 MSTORE RETURNDATASIZE PUSH1 0x0 PUSH1 0x20 DUP5 ADD RETURNDATACOPY PUSH2 0x1CAD JUMP JUMPDEST PUSH1 0x60 SWAP2 POP JUMPDEST POP SWAP2 POP SWAP2 POP DUP2 DUP1 ISZERO PUSH2 0x1CD7 JUMPI POP DUP1 MLOAD ISZERO DUP1 PUSH2 0x1CD7 JUMPI POP DUP1 DUP1 PUSH1 0x20 ADD SWAP1 MLOAD DUP2 ADD SWAP1 PUSH2 0x1CD7 SWAP2 SWAP1 PUSH2 0x1F7B JUMP JUMPDEST PUSH2 0x1D2F JUMPI PUSH1 0x40 MLOAD PUSH3 0x461BCD PUSH1 0xE5 SHL DUP2 MSTORE PUSH1 0x20 PUSH1 0x4 DUP3 ADD MSTORE PUSH1 0x24 DUP1 DUP3 ADD MSTORE PUSH32 0x5472616E7366657248656C7065723A205452414E534645525F46524F4D5F4641 PUSH1 0x44 DUP3 ADD MSTORE PUSH4 0x12531151 PUSH1 0xE2 SHL PUSH1 0x64 DUP3 ADD MSTORE PUSH1 0x84 ADD PUSH2 0x3DC JUMP JUMPDEST POP POP POP POP POP POP JUMP JUMPDEST PUSH1 0x0 PUSH1 0x20 DUP3 DUP5 SUB SLT ISZERO PUSH2 0x1D49 JUMPI PUSH1 0x0 DUP1 REVERT JUMPDEST POP CALLDATALOAD SWAP2 SWAP1 POP JUMP JUMPDEST DUP1 CALLDATALOAD PUSH1 0x1 PUSH1 0x1 PUSH1 0xA0 SHL SUB DUP2 AND DUP2 EQ PUSH2 0x1D67 JUMPI PUSH1 0x0 DUP1 REVERT JUMPDEST SWAP2 SWAP1 POP JUMP JUMPDEST DUP1 ISZERO ISZERO DUP2 EQ PUSH2 0x1278 JUMPI PUSH1 0x0 DUP1 REVERT JUMPDEST PUSH1 0x0 DUP1 PUSH1 0x0 DUP1 PUSH1 0x0 DUP1 PUSH1 0x0 DUP1 PUSH2 0x100 DUP10 DUP12 SUB SLT ISZERO PUSH2 0x1D97 JUMPI PUSH1 0x0 DUP1 REVERT JUMPDEST DUP9 CALLDATALOAD PUSH1 0x3 DUP2 LT PUSH2 0x1DA6 JUMPI PUSH1 0x0 DUP1 REVERT JUMPDEST SWAP8 POP PUSH2 0x1DB4 PUSH1 0x20 DUP11 ADD PUSH2 0x1D50 JUMP JUMPDEST SWAP7 POP PUSH2 0x1DC2 PUSH1 0x40 DUP11 ADD PUSH2 0x1D50 JUMP JUMPDEST SWAP6 POP PUSH1 0x60 DUP10 ADD CALLDATALOAD SWAP5 POP PUSH1 0x80 DUP10 ADD CALLDATALOAD SWAP4 POP PUSH1 0xA0 DUP10 ADD CALLDATALOAD SWAP3 POP PUSH1 0xC0 DUP10 ADD CALLDATALOAD PUSH2 0x1DE7 DUP2 PUSH2 0x1D6C JUMP JUMPDEST SWAP2 POP PUSH2 0x1DF5 PUSH1 0xE0 DUP11 ADD PUSH2 0x1D50 JUMP JUMPDEST SWAP1 POP SWAP3 SWAP6 SWAP9 POP SWAP3 SWAP6 SWAP9 SWAP1 SWAP4 SWAP7 POP JUMP JUMPDEST PUSH4 0x4E487B71 PUSH1 0xE0 SHL PUSH1 0x0 MSTORE PUSH1 0x21 PUSH1 0x4 MSTORE PUSH1 0x24 PUSH1 0x0 REVERT JUMPDEST PUSH1 0x20 DUP2 ADD PUSH1 0x3 DUP4 LT PUSH2 0x1E3C JUMPI PUSH4 0x4E487B71 PUSH1 0xE0 SHL PUSH1 0x0 MSTORE PUSH1 0x21 PUSH1 0x4 MSTORE PUSH1 0x24 PUSH1 0x0 REVERT JUMPDEST SWAP2 SWAP1 MSTORE SWAP1 JUMP JUMPDEST PUSH1 0x0 DUP2 MLOAD DUP1 DUP5 MSTORE PUSH1 0x20 DUP1 DUP6 ADD SWAP5 POP DUP1 DUP5 ADD PUSH1 0x0 JUMPDEST DUP4 DUP2 LT ISZERO PUSH2 0x1E72 JUMPI DUP2 MLOAD DUP8 MSTORE SWAP6 DUP3 ADD SWAP6 SWAP1 DUP3 ADD SWAP1 PUSH1 0x1 ADD PUSH2 0x1E56 JUMP JUMPDEST POP SWAP5 SWAP6 SWAP5 POP POP POP POP POP JUMP JUMPDEST PUSH1 0x60 DUP1 DUP3 MSTORE DUP5 MLOAD SWAP1 DUP3 ADD DUP2 SWAP1 MSTORE PUSH1 0x0 SWAP1 PUSH1 0x20 SWAP1 PUSH1 0x80 DUP5 ADD SWAP1 DUP3 DUP9 ADD DUP5 JUMPDEST DUP3 DUP2 LT ISZERO PUSH2 0x1EBF JUMPI DUP2 MLOAD PUSH1 0x1 PUSH1 0x1 PUSH1 0xA0 SHL SUB AND DUP5 MSTORE SWAP3 DUP5 ADD SWAP3 SWAP1 DUP5 ADD SWAP1 PUSH1 0x1 ADD PUSH2 0x1E9A JUMP JUMPDEST POP POP POP DUP4 DUP2 SUB DUP3 DUP6 ADD MSTORE PUSH2 0x1ED3 DUP2 DUP8 PUSH2 0x1E42 JUMP JUMPDEST SWAP2 POP POP DUP3 DUP2 SUB PUSH1 0x40 DUP5 ADD MSTORE PUSH2 0x1EE8 DUP2 DUP6 PUSH2 0x1E42 JUMP JUMPDEST SWAP7 SWAP6 POP POP POP POP POP POP JUMP JUMPDEST PUSH1 0x0 PUSH1 0x20 DUP3 DUP5 SUB SLT ISZERO PUSH2 0x1F04 JUMPI PUSH1 0x0 DUP1 REVERT JUMPDEST PUSH2 0x1F0D DUP3 PUSH2 0x1D50 JUMP JUMPDEST SWAP4 SWAP3 POP POP POP JUMP JUMPDEST PUSH1 0x20 DUP1 DUP3 MSTORE PUSH1 0x16 SWAP1 DUP3 ADD MSTORE PUSH22 0x537943726F774261727465723A20494E414354495645 PUSH1 0x50 SHL PUSH1 0x40 DUP3 ADD MSTORE PUSH1 0x60 ADD SWAP1 JUMP JUMPDEST PUSH1 0x20 DUP1 DUP3 MSTORE PUSH1 0x1D SWAP1 DUP3 ADD MSTORE PUSH32 0x537943726F774261727465723A204E4F545F494E495449414C495A4544000000 PUSH1 0x40 DUP3 ADD MSTORE PUSH1 0x60 ADD SWAP1 JUMP JUMPDEST PUSH1 0x0 PUSH1 0x20 DUP3 DUP5 SUB SLT ISZERO PUSH2 0x1F8D JUMPI PUSH1 0x0 DUP1 REVERT JUMPDEST DUP2 MLOAD PUSH2 0x1F0D DUP2 PUSH2 0x1D6C JUMP JUMPDEST PUSH1 0x20 DUP1 DUP3 MSTORE PUSH1 0x22 SWAP1 DUP3 ADD MSTORE PUSH32 0x537943726F774261727465723A204261736520436F6E74726163742050617573 PUSH1 0x40 DUP3 ADD MSTORE PUSH2 0x1959 PUSH1 0xF2 SHL PUSH1 0x60 DUP3 ADD MSTORE PUSH1 0x80 ADD SWAP1 JUMP JUMPDEST PUSH1 0x20 DUP1 DUP3 MSTORE PUSH1 0x21 SWAP1 DUP3 ADD MSTORE PUSH32 0x537943726F774261727465723A20494E56414C49445F4241525445525F545950 PUSH1 0x40 DUP3 ADD MSTORE PUSH1 0x45 PUSH1 0xF8 SHL PUSH1 0x60 DUP3 ADD MSTORE PUSH1 0x80 ADD SWAP1 JUMP JUMPDEST PUSH1 0x20 DUP1 DUP3 MSTORE PUSH1 0x1F SWAP1 DUP3 ADD MSTORE PUSH32 0x5265656E7472616E637947756172643A207265656E7472616E742063616C6C00 PUSH1 0x40 DUP3 ADD MSTORE PUSH1 0x60 ADD SWAP1 JUMP JUMPDEST PUSH1 0x20 DUP1 DUP3 MSTORE PUSH1 0x29 SWAP1 DUP3 ADD MSTORE PUSH32 0x537943726F774261727465723A20414D4F554E545F4C4F5745525F5448414E5F PUSH1 0x40 DUP3 ADD MSTORE PUSH9 0x149154555492549151 PUSH1 0xBA SHL PUSH1 0x60 DUP3 ADD MSTORE PUSH1 0x80 ADD SWAP1 JUMP JUMPDEST PUSH1 0x20 DUP1 DUP3 MSTORE DUP2 DUP2 ADD MSTORE PUSH32 0x4F776E61626C653A2063616C6C6572206973206E6F7420746865206F776E6572 PUSH1 0x40 DUP3 ADD MSTORE PUSH1 0x60 ADD SWAP1 JUMP JUMPDEST PUSH1 0x0 PUSH1 0x20 DUP3 DUP5 SUB SLT ISZERO PUSH2 0x20E2 JUMPI PUSH1 0x0 DUP1 REVERT JUMPDEST POP MLOAD SWAP2 SWAP1 POP JUMP JUMPDEST PUSH1 0x1 PUSH1 0x1 PUSH1 0xA0 SHL SUB SWAP5 DUP6 AND DUP2 MSTORE SWAP3 SWAP1 SWAP4 AND PUSH1 0x20 DUP4 ADD MSTORE PUSH1 0x40 DUP3 ADD MSTORE PUSH1 0x60 DUP2 ADD SWAP2 SWAP1 SWAP2 MSTORE PUSH1 0x80 ADD SWAP1 JUMP JUMPDEST PUSH4 0x4E487B71 PUSH1 0xE0 SHL PUSH1 0x0 MSTORE PUSH1 0x11 PUSH1 0x4 MSTORE PUSH1 0x24 PUSH1 0x0 REVERT JUMPDEST PUSH1 0x0 DUP2 PUSH1 0x0 NOT DIV DUP4 GT DUP3 ISZERO ISZERO AND ISZERO PUSH2 0x2142 JUMPI PUSH2 0x2142 PUSH2 0x2112 JUMP JUMPDEST POP MUL SWAP1 JUMP JUMPDEST PUSH1 0x0 DUP3 PUSH2 0x2164 JUMPI PUSH4 0x4E487B71 PUSH1 0xE0 SHL PUSH1 0x0 MSTORE PUSH1 0x12 PUSH1 0x4 MSTORE PUSH1 0x24 PUSH1 0x0 REVERT JUMPDEST POP DIV SWAP1 JUMP JUMPDEST PUSH4 0x4E487B71 PUSH1 0xE0 SHL PUSH1 0x0 MSTORE PUSH1 0x41 PUSH1 0x4 MSTORE PUSH1 0x24 PUSH1 0x0 REVERT JUMPDEST PUSH4 0x4E487B71 PUSH1 0xE0 SHL PUSH1 0x0 MSTORE PUSH1 0x32 PUSH1 0x4 MSTORE PUSH1 0x24 PUSH1 0x0 REVERT JUMPDEST PUSH1 0x0 PUSH1 0x1 DUP3 ADD PUSH2 0x21A7 JUMPI PUSH2 0x21A7 PUSH2 0x2112 JUMP JUMPDEST POP PUSH1 0x1 ADD SWAP1 JUMP JUMPDEST PUSH1 0x20 DUP1 DUP3 MSTORE PUSH1 0x22 SWAP1 DUP3 ADD MSTORE PUSH32 0x537943726F774261727465723A20494E53554646494349454E545F42414C414E PUSH1 0x40 DUP3 ADD MSTORE PUSH2 0x4345 PUSH1 0xF0 SHL PUSH1 0x60 DUP3 ADD MSTORE PUSH1 0x80 ADD SWAP1 JUMP JUMPDEST PUSH1 0x20 DUP1 DUP3 MSTORE PUSH1 0x2B SWAP1 DUP3 ADD MSTORE PUSH32 0x537943726F774261727465723A20494E53554646494349454E545F434F4E5452 PUSH1 0x40 DUP3 ADD MSTORE PUSH11 0x4143545F42414C414E4345 PUSH1 0xA8 SHL PUSH1 0x60 DUP3 ADD MSTORE PUSH1 0x80 ADD SWAP1 JUMP JUMPDEST PUSH1 0x0 DUP3 NOT DUP3 GT ISZERO PUSH2 0x224E JUMPI PUSH2 0x224E PUSH2 0x2112 JUMP JUMPDEST POP ADD SWAP1 JUMP JUMPDEST PUSH1 0x0 DUP3 MLOAD PUSH1 0x0 JUMPDEST DUP2 DUP2 LT ISZERO PUSH2 0x2274 JUMPI PUSH1 0x20 DUP2 DUP7 ADD DUP2 ADD MLOAD DUP6 DUP4 ADD MSTORE ADD PUSH2 0x225A JUMP JUMPDEST DUP2 DUP2 GT ISZERO PUSH2 0x2283 JUMPI PUSH1 0x0 DUP3 DUP6 ADD MSTORE JUMPDEST POP SWAP2 SWAP1 SWAP2 ADD SWAP3 SWAP2 POP POP JUMP INVALID LOG2 PUSH5 0x6970667358 0x22 SLT KECCAK256 DUP7 PUSH10 0x4B80DB17F43D13186284 0xAB 0xAE 0xDA GASLIMIT 0x4E 0x29 DUP6 0xC9 0xC6 0x2C PUSH26 0x695EC6DDE24B87FB964736F6C634300080D0033000000000000 "
		},
		"gasEstimates": {
			"creation": {
				"codeDepositCost": "1780000",
				"executionCost": "infinite",
				"totalCost": "infinite"
			},
			"external": {
				"": "185",
				"_initialized()": "2417",
				"allowMultiBarter()": "2354",
				"barterType()": "2396",
				"completed()": "2410",
				"deadline()": "2330",
				"factory()": "infinite",
				"getAmounts()": "6638",
				"getTokens()": "6758",
				"getTradeOutAmount(uint256)": "4707",
				"getTrades()": "infinite",
				"initialize(uint8,address,address,uint256,uint256,uint256,bool,address)": "infinite",
				"owner()": "2387",
				"renounceOwnership()": "28137",
				"totalTradeAmount()": "2351",
				"tradeEthForToken(uint256)": "infinite",
				"tradeTokenForEth(uint256)": "infinite",
				"tradeTokenForToken(uint256)": "infinite",
				"transferOwnership(address)": "28419",
				"withdraw()": "infinite"
			},
			"internal": {
				"_tradeEthForToken(uint256)": "infinite",
				"_tradeTokenForEth(uint256)": "infinite",
				"_tradeTokenForToken(uint256)": "infinite"
			}
		},
		"methodIdentifiers": {
			"_initialized()": "3072cf60",
			"allowMultiBarter()": "c6ea7038",
			"barterType()": "89523742",
			"completed()": "9d9a7fe9",
			"deadline()": "29dcb0cf",
			"factory()": "c45a0155",
			"getAmounts()": "3d370b4e",
			"getTokens()": "aa6ca808",
			"getTradeOutAmount(uint256)": "dab5a8df",
			"getTrades()": "e43372e9",
			"initialize(uint8,address,address,uint256,uint256,uint256,bool,address)": "5f5780e5",
			"owner()": "8da5cb5b",
			"renounceOwnership()": "715018a6",
			"totalTradeAmount()": "40a6f1ab",
			"tradeEthForToken(uint256)": "4341f920",
			"tradeTokenForEth(uint256)": "0d182605",
			"tradeTokenForToken(uint256)": "2ffc6887",
			"transferOwnership(address)": "f2fde38b",
			"withdraw()": "3ccfd60b"
		}
	},
	"abi": [
		{
			"inputs": [],
			"stateMutability": "nonpayable",
			"type": "constructor"
		},
		{
			"anonymous": false,
			"inputs": [
				{
					"indexed": true,
					"internalType": "address",
					"name": "previousOwner",
					"type": "address"
				},
				{
					"indexed": true,
					"internalType": "address",
					"name": "newOwner",
					"type": "address"
				}
			],
			"name": "OwnershipTransferred",
			"type": "event"
		},
		{
			"stateMutability": "payable",
			"type": "fallback"
		},
		{
			"inputs": [],
			"name": "_initialized",
			"outputs": [
				{
					"internalType": "bool",
					"name": "",
					"type": "bool"
				}
			],
			"stateMutability": "view",
			"type": "function"
		},
		{
			"inputs": [],
			"name": "allowMultiBarter",
			"outputs": [
				{
					"internalType": "bool",
					"name": "",
					"type": "bool"
				}
			],
			"stateMutability": "view",
			"type": "function"
		},
		{
			"inputs": [],
			"name": "barterType",
			"outputs": [
				{
					"internalType": "enum ISyCrowBarterType",
					"name": "",
					"type": "uint8"
				}
			],
			"stateMutability": "view",
			"type": "function"
		},
		{
			"inputs": [],
			"name": "completed",
			"outputs": [
				{
					"internalType": "bool",
					"name": "",
					"type": "bool"
				}
			],
			"stateMutability": "view",
			"type": "function"
		},
		{
			"inputs": [],
			"name": "deadline",
			"outputs": [
				{
					"internalType": "uint256",
					"name": "",
					"type": "uint256"
				}
			],
			"stateMutability": "view",
			"type": "function"
		},
		{
			"inputs": [],
			"name": "factory",
			"outputs": [
				{
					"internalType": "address",
					"name": "",
					"type": "address"
				}
			],
			"stateMutability": "view",
			"type": "function"
		},
		{
			"inputs": [],
			"name": "getAmounts",
			"outputs": [
				{
					"internalType": "uint256",
					"name": "",
					"type": "uint256"
				},
				{
					"internalType": "uint256",
					"name": "",
					"type": "uint256"
				}
			],
			"stateMutability": "view",
			"type": "function"
		},
		{
			"inputs": [],
			"name": "getTokens",
			"outputs": [
				{
					"internalType": "address",
					"name": "",
					"type": "address"
				},
				{
					"internalType": "address",
					"name": "",
					"type": "address"
				}
			],
			"stateMutability": "view",
			"type": "function"
		},
		{
			"inputs": [
				{
					"internalType": "uint256",
					"name": "amount",
					"type": "uint256"
				}
			],
			"name": "getTradeOutAmount",
			"outputs": [
				{
					"internalType": "uint256",
					"name": "",
					"type": "uint256"
				}
			],
			"stateMutability": "view",
			"type": "function"
		},
		{
			"inputs": [],
			"name": "getTrades",
			"outputs": [
				{
					"internalType": "address[]",
					"name": "",
					"type": "address[]"
				},
				{
					"internalType": "uint256[]",
					"name": "",
					"type": "uint256[]"
				},
				{
					"internalType": "uint256[]",
					"name": "",
					"type": "uint256[]"
				}
			],
			"stateMutability": "view",
			"type": "function"
		},
		{
			"inputs": [
				{
					"internalType": "enum ISyCrowBarterType",
					"name": "_barterType",
					"type": "uint8"
				},
				{
					"internalType": "address",
					"name": "inToken",
					"type": "address"
				},
				{
					"internalType": "address",
					"name": "outToken",
					"type": "address"
				},
				{
					"internalType": "uint256",
					"name": "amountDeposited",
					"type": "uint256"
				},
				{
					"internalType": "uint256",
					"name": "amountExpected",
					"type": "uint256"
				},
				{
					"internalType": "uint256",
					"name": "_deadline",
					"type": "uint256"
				},
				{
					"internalType": "bool",
					"name": "_allowMultiBarter",
					"type": "bool"
				},
				{
					"internalType": "address",
					"name": "_WETH",
					"type": "address"
				}
			],
			"name": "initialize",
			"outputs": [
				{
					"internalType": "bool",
					"name": "",
					"type": "bool"
				}
			],
			"stateMutability": "nonpayable",
			"type": "function"
		},
		{
			"inputs": [],
			"name": "owner",
			"outputs": [
				{
					"internalType": "address",
					"name": "",
					"type": "address"
				}
			],
			"stateMutability": "view",
			"type": "function"
		},
		{
			"inputs": [],
			"name": "renounceOwnership",
			"outputs": [],
			"stateMutability": "nonpayable",
			"type": "function"
		},
		{
			"inputs": [],
			"name": "totalTradeAmount",
			"outputs": [
				{
					"internalType": "uint256",
					"name": "",
					"type": "uint256"
				}
			],
			"stateMutability": "view",
			"type": "function"
		},
		{
			"inputs": [
				{
					"internalType": "uint256",
					"name": "inAmount",
					"type": "uint256"
				}
			],
			"name": "tradeEthForToken",
			"outputs": [],
			"stateMutability": "payable",
			"type": "function"
		},
		{
			"inputs": [
				{
					"internalType": "uint256",
					"name": "inAmount",
					"type": "uint256"
				}
			],
			"name": "tradeTokenForEth",
			"outputs": [],
			"stateMutability": "nonpayable",
			"type": "function"
		},
		{
			"inputs": [
				{
					"internalType": "uint256",
					"name": "inAmount",
					"type": "uint256"
				}
			],
			"name": "tradeTokenForToken",
			"outputs": [],
			"stateMutability": "nonpayable",
			"type": "function"
		},
		{
			"inputs": [
				{
					"internalType": "address",
					"name": "newOwner",
					"type": "address"
				}
			],
			"name": "transferOwnership",
			"outputs": [],
			"stateMutability": "nonpayable",
			"type": "function"
		},
		{
			"inputs": [],
			"name": "withdraw",
			"outputs": [],
			"stateMutability": "nonpayable",
			"type": "function"
		},
		{
			"stateMutability": "payable",
			"type": "receive"
		}
	]
}