{
	"test/TokenA.sol": {
		"SafeMath": {
			"abi": [
				{
					"constant": true,
					"inputs": [
						{
							"name": "a",
							"type": "uint256"
						},
						{
							"name": "b",
							"type": "uint256"
						}
					],
					"name": "safeSub",
					"outputs": [
						{
							"name": "c",
							"type": "uint256"
						}
					],
					"payable": false,
					"stateMutability": "view",
					"type": "function"
				},
				{
					"constant": true,
					"inputs": [
						{
							"name": "a",
							"type": "uint256"
						},
						{
							"name": "b",
							"type": "uint256"
						}
					],
					"name": "safeDiv",
					"outputs": [
						{
							"name": "c",
							"type": "uint256"
						}
					],
					"payable": false,
					"stateMutability": "view",
					"type": "function"
				},
				{
					"constant": true,
					"inputs": [
						{
							"name": "a",
							"type": "uint256"
						},
						{
							"name": "b",
							"type": "uint256"
						}
					],
					"name": "safeMul",
					"outputs": [
						{
							"name": "c",
							"type": "uint256"
						}
					],
					"payable": false,
					"stateMutability": "view",
					"type": "function"
				},
				{
					"constant": true,
					"inputs": [
						{
							"name": "a",
							"type": "uint256"
						},
						{
							"name": "b",
							"type": "uint256"
						}
					],
					"name": "safeAdd",
					"outputs": [
						{
							"name": "c",
							"type": "uint256"
						}
					],
					"payable": false,
					"stateMutability": "view",
					"type": "function"
				}
			],
			"devdoc": {
				"methods": {}
			},
			"evm": {
				"assembly": "    /* \"test/TokenA.sol\":576:1086  contract SafeMath {... */\n  mstore(0x40, 0x80)\n  callvalue\n    /* \"--CODEGEN--\":8:17   */\n  dup1\n    /* \"--CODEGEN--\":5:7   */\n  iszero\n  tag_1\n  jumpi\n    /* \"--CODEGEN--\":30:31   */\n  0x0\n    /* \"--CODEGEN--\":27:28   */\n  dup1\n    /* \"--CODEGEN--\":20:32   */\n  revert\n    /* \"--CODEGEN--\":5:7   */\ntag_1:\n    /* \"test/TokenA.sol\":576:1086  contract SafeMath {... */\n  pop\n  dataSize(sub_0)\n  dup1\n  dataOffset(sub_0)\n  0x0\n  codecopy\n  0x0\n  return\nstop\n\nsub_0: assembly {\n        /* \"test/TokenA.sol\":576:1086  contract SafeMath {... */\n      mstore(0x40, 0x80)\n      jumpi(tag_1, lt(calldatasize, 0x4))\n      and(div(calldataload(0x0), 0x100000000000000000000000000000000000000000000000000000000), 0xffffffff)\n      0xa293d1e8\n      dup2\n      eq\n      tag_2\n      jumpi\n      dup1\n      0xb5931f7c\n      eq\n      tag_3\n      jumpi\n      dup1\n      0xd05c78da\n      eq\n      tag_4\n      jumpi\n      dup1\n      0xe6cb9013\n      eq\n      tag_5\n      jumpi\n    tag_1:\n      0x0\n      dup1\n      revert\n        /* \"test/TokenA.sol\":720:833  function safeSub(uint a, uint b) public pure returns (uint c) {... */\n    tag_2:\n      callvalue\n        /* \"--CODEGEN--\":8:17   */\n      dup1\n        /* \"--CODEGEN--\":5:7   */\n      iszero\n      tag_6\n      jumpi\n        /* \"--CODEGEN--\":30:31   */\n      0x0\n        /* \"--CODEGEN--\":27:28   */\n      dup1\n        /* \"--CODEGEN--\":20:32   */\n      revert\n        /* \"--CODEGEN--\":5:7   */\n    tag_6:\n      pop\n        /* \"test/TokenA.sol\":720:833  function safeSub(uint a, uint b) public pure returns (uint c) {... */\n      tag_7\n      calldataload(0x4)\n      calldataload(0x24)\n      jump(tag_8)\n    tag_7:\n      0x40\n      dup1\n      mload\n      swap2\n      dup3\n      mstore\n      mload\n      swap1\n      dup2\n      swap1\n      sub\n      0x20\n      add\n      swap1\n      return\n        /* \"test/TokenA.sol\":972:1084  function safeDiv(uint a, uint b) public pure returns (uint c) {... */\n    tag_3:\n      callvalue\n        /* \"--CODEGEN--\":8:17   */\n      dup1\n        /* \"--CODEGEN--\":5:7   */\n      iszero\n      tag_9\n      jumpi\n        /* \"--CODEGEN--\":30:31   */\n      0x0\n        /* \"--CODEGEN--\":27:28   */\n      dup1\n        /* \"--CODEGEN--\":20:32   */\n      revert\n        /* \"--CODEGEN--\":5:7   */\n    tag_9:\n      pop\n        /* \"test/TokenA.sol\":972:1084  function safeDiv(uint a, uint b) public pure returns (uint c) {... */\n      tag_7\n      calldataload(0x4)\n      calldataload(0x24)\n      jump(tag_11)\n        /* \"test/TokenA.sol\":839:966  function safeMul(uint a, uint b) public pure returns (uint c) {... */\n    tag_4:\n      callvalue\n        /* \"--CODEGEN--\":8:17   */\n      dup1\n        /* \"--CODEGEN--\":5:7   */\n      iszero\n      tag_12\n      jumpi\n        /* \"--CODEGEN--\":30:31   */\n      0x0\n        /* \"--CODEGEN--\":27:28   */\n      dup1\n        /* \"--CODEGEN--\":20:32   */\n      revert\n        /* \"--CODEGEN--\":5:7   */\n    tag_12:\n      pop\n        /* \"test/TokenA.sol\":839:966  function safeMul(uint a, uint b) public pure returns (uint c) {... */\n      tag_7\n      calldataload(0x4)\n      calldataload(0x24)\n      jump(tag_14)\n        /* \"test/TokenA.sol\":601:714  function safeAdd(uint a, uint b) public pure returns (uint c) {... */\n    tag_5:\n      callvalue\n        /* \"--CODEGEN--\":8:17   */\n      dup1\n        /* \"--CODEGEN--\":5:7   */\n      iszero\n      tag_15\n      jumpi\n        /* \"--CODEGEN--\":30:31   */\n      0x0\n        /* \"--CODEGEN--\":27:28   */\n      dup1\n        /* \"--CODEGEN--\":20:32   */\n      revert\n        /* \"--CODEGEN--\":5:7   */\n    tag_15:\n      pop\n        /* \"test/TokenA.sol\":601:714  function safeAdd(uint a, uint b) public pure returns (uint c) {... */\n      tag_7\n      calldataload(0x4)\n      calldataload(0x24)\n      jump(tag_17)\n        /* \"test/TokenA.sol\":720:833  function safeSub(uint a, uint b) public pure returns (uint c) {... */\n    tag_8:\n        /* \"test/TokenA.sol\":774:780  uint c */\n      0x0\n        /* \"test/TokenA.sol\":800:806  b <= a */\n      dup3\n      dup3\n      gt\n      iszero\n        /* \"test/TokenA.sol\":792:807  require(b <= a) */\n      tag_19\n      jumpi\n      0x0\n      dup1\n      revert\n    tag_19:\n      pop\n        /* \"test/TokenA.sol\":821:826  a - b */\n      swap1\n      sub\n      swap1\n        /* \"test/TokenA.sol\":720:833  function safeSub(uint a, uint b) public pure returns (uint c) {... */\n      jump\t// out\n        /* \"test/TokenA.sol\":972:1084  function safeDiv(uint a, uint b) public pure returns (uint c) {... */\n    tag_11:\n        /* \"test/TokenA.sol\":1026:1032  uint c */\n      0x0\n        /* \"test/TokenA.sol\":1052:1057  b > 0 */\n      dup1\n      dup3\n      gt\n        /* \"test/TokenA.sol\":1044:1058  require(b > 0) */\n      tag_21\n      jumpi\n      0x0\n      dup1\n      revert\n    tag_21:\n        /* \"test/TokenA.sol\":1076:1077  b */\n      dup2\n        /* \"test/TokenA.sol\":1072:1073  a */\n      dup4\n        /* \"test/TokenA.sol\":1072:1077  a / b */\n      dup2\n      iszero\n      iszero\n      tag_22\n      jumpi\n      invalid\n    tag_22:\n      div\n      swap4\n        /* \"test/TokenA.sol\":972:1084  function safeDiv(uint a, uint b) public pure returns (uint c) {... */\n      swap3\n      pop\n      pop\n      pop\n      jump\t// out\n        /* \"test/TokenA.sol\":839:966  function safeMul(uint a, uint b) public pure returns (uint c) {... */\n    tag_14:\n        /* \"test/TokenA.sol\":915:920  a * b */\n      dup2\n      dup2\n      mul\n        /* \"test/TokenA.sol\":938:944  a == 0 */\n      dup3\n      iszero\n      dup1\n        /* \"test/TokenA.sol\":938:958  a == 0 || c / a == b */\n      tag_24\n      jumpi\n      pop\n        /* \"test/TokenA.sol\":957:958  b */\n      dup2\n        /* \"test/TokenA.sol\":952:953  a */\n      dup4\n        /* \"test/TokenA.sol\":948:949  c */\n      dup3\n        /* \"test/TokenA.sol\":948:953  c / a */\n      dup2\n      iszero\n      iszero\n      tag_25\n      jumpi\n      invalid\n    tag_25:\n      div\n        /* \"test/TokenA.sol\":948:958  c / a == b */\n      eq\n        /* \"test/TokenA.sol\":938:958  a == 0 || c / a == b */\n    tag_24:\n        /* \"test/TokenA.sol\":930:959  require(a == 0 || c / a == b) */\n      iszero\n      iszero\n      tag_26\n      jumpi\n      0x0\n      dup1\n      revert\n    tag_26:\n        /* \"test/TokenA.sol\":839:966  function safeMul(uint a, uint b) public pure returns (uint c) {... */\n      swap3\n      swap2\n      pop\n      pop\n      jump\t// out\n        /* \"test/TokenA.sol\":601:714  function safeAdd(uint a, uint b) public pure returns (uint c) {... */\n    tag_17:\n        /* \"test/TokenA.sol\":677:682  a + b */\n      dup2\n      dup2\n      add\n        /* \"test/TokenA.sol\":700:706  c >= a */\n      dup3\n      dup2\n      lt\n      iszero\n        /* \"test/TokenA.sol\":692:707  require(c >= a) */\n      tag_26\n      jumpi\n      0x0\n      dup1\n      revert\n\n    auxdata: 0xa165627a7a7230582060e5e80899f066b830741954da67b152f7184d02342e49487ad317b2709a75380029\n}\n",
				"bytecode": {
					"linkReferences": {},
					"object": "608060405234801561001057600080fd5b50610181806100206000396000f3006080604052600436106100615763ffffffff7c0100000000000000000000000000000000000000000000000000000000600035041663a293d1e88114610066578063b5931f7c14610093578063d05c78da146100ae578063e6cb9013146100c9575b600080fd5b34801561007257600080fd5b506100816004356024356100e4565b60408051918252519081900360200190f35b34801561009f57600080fd5b506100816004356024356100f9565b3480156100ba57600080fd5b5061008160043560243561011a565b3480156100d557600080fd5b50610081600435602435610145565b6000828211156100f357600080fd5b50900390565b600080821161010757600080fd5b818381151561011257fe5b049392505050565b818102821580610134575081838281151561013157fe5b04145b151561013f57600080fd5b92915050565b8181018281101561013f57600080fd00a165627a7a7230582060e5e80899f066b830741954da67b152f7184d02342e49487ad317b2709a75380029",
					"opcodes": "PUSH1 0x80 PUSH1 0x40 MSTORE CALLVALUE DUP1 ISZERO PUSH2 0x10 JUMPI PUSH1 0x0 DUP1 REVERT JUMPDEST POP PUSH2 0x181 DUP1 PUSH2 0x20 PUSH1 0x0 CODECOPY PUSH1 0x0 RETURN STOP PUSH1 0x80 PUSH1 0x40 MSTORE PUSH1 0x4 CALLDATASIZE LT PUSH2 0x61 JUMPI PUSH4 0xFFFFFFFF PUSH29 0x100000000000000000000000000000000000000000000000000000000 PUSH1 0x0 CALLDATALOAD DIV AND PUSH4 0xA293D1E8 DUP2 EQ PUSH2 0x66 JUMPI DUP1 PUSH4 0xB5931F7C EQ PUSH2 0x93 JUMPI DUP1 PUSH4 0xD05C78DA EQ PUSH2 0xAE JUMPI DUP1 PUSH4 0xE6CB9013 EQ PUSH2 0xC9 JUMPI JUMPDEST PUSH1 0x0 DUP1 REVERT JUMPDEST CALLVALUE DUP1 ISZERO PUSH2 0x72 JUMPI PUSH1 0x0 DUP1 REVERT JUMPDEST POP PUSH2 0x81 PUSH1 0x4 CALLDATALOAD PUSH1 0x24 CALLDATALOAD PUSH2 0xE4 JUMP JUMPDEST PUSH1 0x40 DUP1 MLOAD SWAP2 DUP3 MSTORE MLOAD SWAP1 DUP2 SWAP1 SUB PUSH1 0x20 ADD SWAP1 RETURN JUMPDEST CALLVALUE DUP1 ISZERO PUSH2 0x9F JUMPI PUSH1 0x0 DUP1 REVERT JUMPDEST POP PUSH2 0x81 PUSH1 0x4 CALLDATALOAD PUSH1 0x24 CALLDATALOAD PUSH2 0xF9 JUMP JUMPDEST CALLVALUE DUP1 ISZERO PUSH2 0xBA JUMPI PUSH1 0x0 DUP1 REVERT JUMPDEST POP PUSH2 0x81 PUSH1 0x4 CALLDATALOAD PUSH1 0x24 CALLDATALOAD PUSH2 0x11A JUMP JUMPDEST CALLVALUE DUP1 ISZERO PUSH2 0xD5 JUMPI PUSH1 0x0 DUP1 REVERT JUMPDEST POP PUSH2 0x81 PUSH1 0x4 CALLDATALOAD PUSH1 0x24 CALLDATALOAD PUSH2 0x145 JUMP JUMPDEST PUSH1 0x0 DUP3 DUP3 GT ISZERO PUSH2 0xF3 JUMPI PUSH1 0x0 DUP1 REVERT JUMPDEST POP SWAP1 SUB SWAP1 JUMP JUMPDEST PUSH1 0x0 DUP1 DUP3 GT PUSH2 0x107 JUMPI PUSH1 0x0 DUP1 REVERT JUMPDEST DUP2 DUP4 DUP2 ISZERO ISZERO PUSH2 0x112 JUMPI INVALID JUMPDEST DIV SWAP4 SWAP3 POP POP POP JUMP JUMPDEST DUP2 DUP2 MUL DUP3 ISZERO DUP1 PUSH2 0x134 JUMPI POP DUP2 DUP4 DUP3 DUP2 ISZERO ISZERO PUSH2 0x131 JUMPI INVALID JUMPDEST DIV EQ JUMPDEST ISZERO ISZERO PUSH2 0x13F JUMPI PUSH1 0x0 DUP1 REVERT JUMPDEST SWAP3 SWAP2 POP POP JUMP JUMPDEST DUP2 DUP2 ADD DUP3 DUP2 LT ISZERO PUSH2 0x13F JUMPI PUSH1 0x0 DUP1 REVERT STOP LOG1 PUSH6 0x627A7A723058 KECCAK256 PUSH1 0xE5 0xe8 ADDMOD SWAP10 CREATE PUSH7 0xB830741954DA67 0xb1 MSTORE 0xf7 XOR 0x4d MUL CALLVALUE 0x2e 0x49 0x48 PUSH27 0xD317B2709A75380029000000000000000000000000000000000000 "
				},
				"gasEstimates": {
					"creation": {
						"codeDepositCost": "77000",
						"executionCost": "129",
						"totalCost": "77129"
					},
					"external": {
						"safeAdd(uint256,uint256)": "301",
						"safeDiv(uint256,uint256)": "284",
						"safeMul(uint256,uint256)": "340",
						"safeSub(uint256,uint256)": "230"
					}
				},
				"methodIdentifiers": {
					"safeAdd(uint256,uint256)": "e6cb9013",
					"safeDiv(uint256,uint256)": "b5931f7c",
					"safeMul(uint256,uint256)": "d05c78da",
					"safeSub(uint256,uint256)": "a293d1e8"
				}
			},
			"userdoc": {
				"methods": {}
			}
		}
	}
}