{
	"test/TokenB.sol": {
		"TokenA": {
			"abi": [
				{
					"constant": true,
					"inputs": [],
					"name": "name",
					"outputs": [
						{
							"name": "",
							"type": "string"
						}
					],
					"payable": false,
					"stateMutability": "view",
					"type": "function"
				},
				{
					"constant": false,
					"inputs": [
						{
							"name": "spender",
							"type": "address"
						},
						{
							"name": "tokens",
							"type": "uint256"
						}
					],
					"name": "approve",
					"outputs": [
						{
							"name": "success",
							"type": "bool"
						}
					],
					"payable": false,
					"stateMutability": "nonpayable",
					"type": "function"
				},
				{
					"constant": true,
					"inputs": [],
					"name": "totalSupply",
					"outputs": [
						{
							"name": "",
							"type": "uint256"
						}
					],
					"payable": false,
					"stateMutability": "view",
					"type": "function"
				},
				{
					"constant": false,
					"inputs": [
						{
							"name": "from",
							"type": "address"
						},
						{
							"name": "to",
							"type": "address"
						},
						{
							"name": "tokens",
							"type": "uint256"
						}
					],
					"name": "transferFrom",
					"outputs": [
						{
							"name": "success",
							"type": "bool"
						}
					],
					"payable": false,
					"stateMutability": "nonpayable",
					"type": "function"
				},
				{
					"constant": true,
					"inputs": [],
					"name": "decimals",
					"outputs": [
						{
							"name": "",
							"type": "uint8"
						}
					],
					"payable": false,
					"stateMutability": "view",
					"type": "function"
				},
				{
					"constant": true,
					"inputs": [],
					"name": "_totalSupply",
					"outputs": [
						{
							"name": "",
							"type": "uint256"
						}
					],
					"payable": false,
					"stateMutability": "view",
					"type": "function"
				},
				{
					"constant": true,
					"inputs": [
						{
							"name": "tokenOwner",
							"type": "address"
						}
					],
					"name": "balanceOf",
					"outputs": [
						{
							"name": "balance",
							"type": "uint256"
						}
					],
					"payable": false,
					"stateMutability": "view",
					"type": "function"
				},
				{
					"constant": true,
					"inputs": [],
					"name": "symbol",
					"outputs": [
						{
							"name": "",
							"type": "string"
						}
					],
					"payable": false,
					"stateMutability": "view",
					"type": "function"
				},
				{
					"constant": true,
					"inputs": [
						{
							"name": "a",
							"type": "uint256"
						},
						{
							"name": "b",
							"type": "uint256"
						}
					],
					"name": "safeSub",
					"outputs": [
						{
							"name": "c",
							"type": "uint256"
						}
					],
					"payable": false,
					"stateMutability": "view",
					"type": "function"
				},
				{
					"constant": false,
					"inputs": [
						{
							"name": "to",
							"type": "address"
						},
						{
							"name": "tokens",
							"type": "uint256"
						}
					],
					"name": "transfer",
					"outputs": [
						{
							"name": "success",
							"type": "bool"
						}
					],
					"payable": false,
					"stateMutability": "nonpayable",
					"type": "function"
				},
				{
					"constant": true,
					"inputs": [
						{
							"name": "a",
							"type": "uint256"
						},
						{
							"name": "b",
							"type": "uint256"
						}
					],
					"name": "safeDiv",
					"outputs": [
						{
							"name": "c",
							"type": "uint256"
						}
					],
					"payable": false,
					"stateMutability": "view",
					"type": "function"
				},
				{
					"constant": false,
					"inputs": [
						{
							"name": "spender",
							"type": "address"
						},
						{
							"name": "tokens",
							"type": "uint256"
						},
						{
							"name": "data",
							"type": "bytes"
						}
					],
					"name": "approveAndCall",
					"outputs": [
						{
							"name": "success",
							"type": "bool"
						}
					],
					"payable": false,
					"stateMutability": "nonpayable",
					"type": "function"
				},
				{
					"constant": true,
					"inputs": [
						{
							"name": "a",
							"type": "uint256"
						},
						{
							"name": "b",
							"type": "uint256"
						}
					],
					"name": "safeMul",
					"outputs": [
						{
							"name": "c",
							"type": "uint256"
						}
					],
					"payable": false,
					"stateMutability": "view",
					"type": "function"
				},
				{
					"constant": true,
					"inputs": [
						{
							"name": "tokenOwner",
							"type": "address"
						},
						{
							"name": "spender",
							"type": "address"
						}
					],
					"name": "allowance",
					"outputs": [
						{
							"name": "remaining",
							"type": "uint256"
						}
					],
					"payable": false,
					"stateMutability": "view",
					"type": "function"
				},
				{
					"constant": true,
					"inputs": [
						{
							"name": "a",
							"type": "uint256"
						},
						{
							"name": "b",
							"type": "uint256"
						}
					],
					"name": "safeAdd",
					"outputs": [
						{
							"name": "c",
							"type": "uint256"
						}
					],
					"payable": false,
					"stateMutability": "view",
					"type": "function"
				},
				{
					"inputs": [],
					"payable": false,
					"stateMutability": "nonpayable",
					"type": "constructor"
				},
				{
					"payable": true,
					"stateMutability": "payable",
					"type": "fallback"
				},
				{
					"anonymous": false,
					"inputs": [
						{
							"indexed": true,
							"name": "from",
							"type": "address"
						},
						{
							"indexed": true,
							"name": "to",
							"type": "address"
						},
						{
							"indexed": false,
							"name": "tokens",
							"type": "uint256"
						}
					],
					"name": "Transfer",
					"type": "event"
				},
				{
					"anonymous": false,
					"inputs": [
						{
							"indexed": true,
							"name": "tokenOwner",
							"type": "address"
						},
						{
							"indexed": true,
							"name": "spender",
							"type": "address"
						},
						{
							"indexed": false,
							"name": "tokens",
							"type": "uint256"
						}
					],
					"name": "Approval",
					"type": "event"
				}
			],
			"devdoc": {
				"methods": {}
			},
			"evm": {
				"assembly": "    /* \"test/TokenB.sol\":2227:7096  contract TokenA is ERC20Interface, SafeMath {... */\n  mstore(0x40, 0x80)\n    /* \"test/TokenB.sol\":2664:2920  constructor() public {... */\n  callvalue\n    /* \"--CODEGEN--\":8:17   */\n  dup1\n    /* \"--CODEGEN--\":5:7   */\n  iszero\n  tag_1\n  jumpi\n    /* \"--CODEGEN--\":30:31   */\n  0x0\n    /* \"--CODEGEN--\":27:28   */\n  dup1\n    /* \"--CODEGEN--\":20:32   */\n  revert\n    /* \"--CODEGEN--\":5:7   */\ntag_1:\n  pop\n    /* \"test/TokenB.sol\":2695:2710  symbol = \"TOKA\" */\n  0x40\n  dup1\n  mload\n  dup1\n  dup3\n  add\n  swap1\n  swap2\n  mstore\n  0x4\n  dup1\n  dup3\n  mstore\n  0x544f4b4100000000000000000000000000000000000000000000000000000000\n  0x20\n  swap1\n  swap3\n  add\n  swap2\n  dup3\n  mstore\n  tag_4\n  swap2\n  0x0\n  swap2\n  jump\t// in(tag_5)\ntag_4:\n  pop\n    /* \"test/TokenB.sol\":2720:2736  name = \"Token B\" */\n  0x40\n  dup1\n  mload\n  dup1\n  dup3\n  add\n  swap1\n  swap2\n  mstore\n  0x7\n  dup1\n  dup3\n  mstore\n  0x546f6b656e204200000000000000000000000000000000000000000000000000\n  0x20\n  swap1\n  swap3\n  add\n  swap2\n  dup3\n  mstore\n  tag_6\n  swap2\n    /* \"test/TokenB.sol\":2720:2724  name */\n  0x1\n  swap2\n    /* \"test/TokenB.sol\":2720:2736  name = \"Token B\" */\n  jump\t// in(tag_5)\ntag_6:\n  pop\n    /* \"test/TokenB.sol\":2746:2754  decimals */\n  0x2\n    /* \"test/TokenB.sol\":2746:2759  decimals = 18 */\n  dup1\n  sload\n  not(0xff)\n  and\n    /* \"test/TokenB.sol\":2757:2759  18 */\n  0x12\n    /* \"test/TokenB.sol\":2746:2759  decimals = 18 */\n  or\n  swap1\n  sstore\n    /* \"test/TokenB.sol\":2784:2807  10000000000000000000000 */\n  0x21e19e0c9bab2400000\n    /* \"test/TokenB.sol\":2769:2781  _totalSupply */\n  0x3\n    /* \"test/TokenB.sol\":2769:2807  _totalSupply = 10000000000000000000000 */\n  dup2\n  swap1\n  sstore\n    /* \"test/TokenB.sol\":2826:2836  msg.sender */\n  caller\n    /* \"test/TokenB.sol\":2746:2754  decimals */\n  0x0\n    /* \"test/TokenB.sol\":2817:2837  balances[msg.sender] */\n  dup2\n  dup2\n  mstore\n    /* \"test/TokenB.sol\":2817:2825  balances */\n  0x4\n    /* \"test/TokenB.sol\":2817:2837  balances[msg.sender] */\n  0x20\n  swap1\n  dup2\n  mstore\n  0x40\n  dup1\n  dup4\n  keccak256\n    /* \"test/TokenB.sol\":2817:2852  balances[msg.sender] = _totalSupply */\n  dup6\n  swap1\n  sstore\n    /* \"test/TokenB.sol\":2867:2913  Transfer(address(0), msg.sender, _totalSupply) */\n  dup1\n  mload\n  swap5\n  dup6\n  mstore\n  mload\n    /* \"test/TokenB.sol\":2826:2836  msg.sender */\n  swap3\n  swap4\n    /* \"test/TokenB.sol\":2746:2754  decimals */\n  swap2\n  swap3\n    /* \"test/TokenB.sol\":2867:2913  Transfer(address(0), msg.sender, _totalSupply) */\n  0xddf252ad1be2c89b69c2b068fc378daa952ba7f163c4a11628f55a4df523b3ef\n  swap3\n  dup2\n  swap1\n  sub\n  swap1\n  swap2\n  add\n  swap1\n  log3\n    /* \"test/TokenB.sol\":2227:7096  contract TokenA is ERC20Interface, SafeMath {... */\n  jump(tag_7)\ntag_5:\n  dup3\n  dup1\n  sload\n  0x1\n  dup2\n  0x1\n  and\n  iszero\n  0x100\n  mul\n  sub\n  and\n  0x2\n  swap1\n  div\n  swap1\n  0x0\n  mstore\n  keccak256(0x0, 0x20)\n  swap1\n  0x1f\n  add\n  0x20\n  swap1\n  div\n  dup2\n  add\n  swap3\n  dup3\n  0x1f\n  lt\n  tag_9\n  jumpi\n  dup1\n  mload\n  not(0xff)\n  and\n  dup4\n  dup1\n  add\n  or\n  dup6\n  sstore\n  jump(tag_11)\ntag_9:\n  dup3\n  dup1\n  add\n  0x1\n  add\n  dup6\n  sstore\n  dup3\n  iszero\n  tag_11\n  jumpi\n  swap2\n  dup3\n  add\ntag_10:\n  dup3\n  dup2\n  gt\n  iszero\n  tag_11\n  jumpi\n  dup3\n  mload\n  dup3\n  sstore\n  swap2\n  0x20\n  add\n  swap2\n  swap1\n  0x1\n  add\n  swap1\n  jump(tag_10)\ntag_11:\n  pop\n  tag_12\n  swap3\n  swap2\n  pop\n  jump\t// in(tag_13)\ntag_12:\n  pop\n  swap1\n  jump\t// out\ntag_13:\n  tag_14\n  swap2\n  swap1\ntag_15:\n  dup1\n  dup3\n  gt\n  iszero\n  tag_12\n  jumpi\n  0x0\n  dup2\n  sstore\n  0x1\n  add\n  jump(tag_15)\ntag_14:\n  swap1\n  jump\t// out\ntag_7:\n  dataSize(sub_0)\n  dup1\n  dataOffset(sub_0)\n  0x0\n  codecopy\n  0x0\n  return\nstop\n\nsub_0: assembly {\n        /* \"test/TokenB.sol\":2227:7096  contract TokenA is ERC20Interface, SafeMath {... */\n      mstore(0x40, 0x80)\n      jumpi(tag_1, lt(calldatasize, 0x4))\n      and(div(calldataload(0x0), 0x100000000000000000000000000000000000000000000000000000000), 0xffffffff)\n      0x6fdde03\n      dup2\n      eq\n      tag_2\n      jumpi\n      dup1\n      0x95ea7b3\n      eq\n      tag_3\n      jumpi\n      dup1\n      0x18160ddd\n      eq\n      tag_4\n      jumpi\n      dup1\n      0x23b872dd\n      eq\n      tag_5\n      jumpi\n      dup1\n      0x313ce567\n      eq\n      tag_6\n      jumpi\n      dup1\n      0x3eaaf86b\n      eq\n      tag_7\n      jumpi\n      dup1\n      0x70a08231\n      eq\n      tag_8\n      jumpi\n      dup1\n      0x95d89b41\n      eq\n      tag_9\n      jumpi\n      dup1\n      0xa293d1e8\n      eq\n      tag_10\n      jumpi\n      dup1\n      0xa9059cbb\n      eq\n      tag_11\n      jumpi\n      dup1\n      0xb5931f7c\n      eq\n      tag_12\n      jumpi\n      dup1\n      0xcae9ca51\n      eq\n      tag_13\n      jumpi\n      dup1\n      0xd05c78da\n      eq\n      tag_14\n      jumpi\n      dup1\n      0xdd62ed3e\n      eq\n      tag_15\n      jumpi\n      dup1\n      0xe6cb9013\n      eq\n      tag_16\n      jumpi\n    tag_1:\n        /* \"test/TokenB.sol\":7079:7087  revert() */\n      0x0\n      dup1\n      revert\n        /* \"test/TokenB.sol\":2303:2322  string public  name */\n    tag_2:\n      callvalue\n        /* \"--CODEGEN--\":8:17   */\n      dup1\n        /* \"--CODEGEN--\":5:7   */\n      iszero\n      tag_19\n      jumpi\n        /* \"--CODEGEN--\":30:31   */\n      0x0\n        /* \"--CODEGEN--\":27:28   */\n      dup1\n        /* \"--CODEGEN--\":20:32   */\n      revert\n        /* \"--CODEGEN--\":5:7   */\n    tag_19:\n        /* \"test/TokenB.sol\":2303:2322  string public  name */\n      pop\n      tag_20\n      jump(tag_21)\n    tag_20:\n      0x40\n      dup1\n      mload\n      0x20\n      dup1\n      dup3\n      mstore\n      dup4\n      mload\n      dup2\n      dup4\n      add\n      mstore\n      dup4\n      mload\n      swap2\n      swap3\n      dup4\n      swap3\n      swap1\n      dup4\n      add\n      swap2\n      dup6\n      add\n      swap1\n      dup1\n      dup4\n      dup4\n      0x0\n        /* \"--CODEGEN--\":8:108   */\n    tag_22:\n        /* \"--CODEGEN--\":33:36   */\n      dup4\n        /* \"--CODEGEN--\":30:31   */\n      dup2\n        /* \"--CODEGEN--\":27:37   */\n      lt\n        /* \"--CODEGEN--\":8:108   */\n      iszero\n      tag_23\n      jumpi\n        /* \"--CODEGEN--\":90:101   */\n      dup2\n      dup2\n      add\n        /* \"--CODEGEN--\":84:102   */\n      mload\n        /* \"--CODEGEN--\":71:82   */\n      dup4\n      dup3\n      add\n        /* \"--CODEGEN--\":64:103   */\n      mstore\n        /* \"--CODEGEN--\":52:54   */\n      0x20\n        /* \"--CODEGEN--\":45:55   */\n      add\n        /* \"--CODEGEN--\":8:108   */\n      jump(tag_22)\n    tag_23:\n        /* \"--CODEGEN--\":12:26   */\n      pop\n        /* \"test/TokenB.sol\":2303:2322  string public  name */\n      pop\n      pop\n      pop\n      swap1\n      pop\n      swap1\n      dup2\n      add\n      swap1\n      0x1f\n      and\n      dup1\n      iszero\n      tag_25\n      jumpi\n      dup1\n      dup3\n      sub\n      dup1\n      mload\n      0x1\n      dup4\n      0x20\n      sub\n      0x100\n      exp\n      sub\n      not\n      and\n      dup2\n      mstore\n      0x20\n      add\n      swap2\n      pop\n    tag_25:\n      pop\n      swap3\n      pop\n      pop\n      pop\n      mload(0x40)\n      dup1\n      swap2\n      sub\n      swap1\n      return\n        /* \"test/TokenB.sol\":4677:4881  function approve(address spender, uint tokens) public returns (bool success) {... */\n    tag_3:\n      callvalue\n        /* \"--CODEGEN--\":8:17   */\n      dup1\n        /* \"--CODEGEN--\":5:7   */\n      iszero\n      tag_26\n      jumpi\n        /* \"--CODEGEN--\":30:31   */\n      0x0\n        /* \"--CODEGEN--\":27:28   */\n      dup1\n        /* \"--CODEGEN--\":20:32   */\n      revert\n        /* \"--CODEGEN--\":5:7   */\n    tag_26:\n      pop\n        /* \"test/TokenB.sol\":4677:4881  function approve(address spender, uint tokens) public returns (bool success) {... */\n      tag_27\n      and(calldataload(0x4), sub(exp(0x2, 0xa0), 0x1))\n      calldataload(0x24)\n      jump(tag_28)\n    tag_27:\n      0x40\n      dup1\n      mload\n      swap2\n      iszero\n      iszero\n      dup3\n      mstore\n      mload\n      swap1\n      dup2\n      swap1\n      sub\n      0x20\n      add\n      swap1\n      return\n        /* \"test/TokenB.sol\":3107:3221  function totalSupply() public constant returns (uint) {... */\n    tag_4:\n      callvalue\n        /* \"--CODEGEN--\":8:17   */\n      dup1\n        /* \"--CODEGEN--\":5:7   */\n      iszero\n      tag_29\n      jumpi\n        /* \"--CODEGEN--\":30:31   */\n      0x0\n        /* \"--CODEGEN--\":27:28   */\n      dup1\n        /* \"--CODEGEN--\":20:32   */\n      revert\n        /* \"--CODEGEN--\":5:7   */\n    tag_29:\n        /* \"test/TokenB.sol\":3107:3221  function totalSupply() public constant returns (uint) {... */\n      pop\n      tag_30\n      jump(tag_31)\n    tag_30:\n      0x40\n      dup1\n      mload\n      swap2\n      dup3\n      mstore\n      mload\n      swap1\n      dup2\n      swap1\n      sub\n      0x20\n      add\n      swap1\n      return\n        /* \"test/TokenB.sol\":5405:5757  function transferFrom(address from, address to, uint tokens) public returns (bool success) {... */\n    tag_5:\n      callvalue\n        /* \"--CODEGEN--\":8:17   */\n      dup1\n        /* \"--CODEGEN--\":5:7   */\n      iszero\n      tag_32\n      jumpi\n        /* \"--CODEGEN--\":30:31   */\n      0x0\n        /* \"--CODEGEN--\":27:28   */\n      dup1\n        /* \"--CODEGEN--\":20:32   */\n      revert\n        /* \"--CODEGEN--\":5:7   */\n    tag_32:\n      pop\n        /* \"test/TokenB.sol\":5405:5757  function transferFrom(address from, address to, uint tokens) public returns (bool success) {... */\n      tag_27\n      sub(exp(0x2, 0xa0), 0x1)\n      calldataload(0x4)\n      dup2\n      and\n      swap1\n      calldataload(0x24)\n      and\n      calldataload(0x44)\n      jump(tag_34)\n        /* \"test/TokenB.sol\":2328:2349  uint8 public decimals */\n    tag_6:\n      callvalue\n        /* \"--CODEGEN--\":8:17   */\n      dup1\n        /* \"--CODEGEN--\":5:7   */\n      iszero\n      tag_35\n      jumpi\n        /* \"--CODEGEN--\":30:31   */\n      0x0\n        /* \"--CODEGEN--\":27:28   */\n      dup1\n        /* \"--CODEGEN--\":20:32   */\n      revert\n        /* \"--CODEGEN--\":5:7   */\n    tag_35:\n        /* \"test/TokenB.sol\":2328:2349  uint8 public decimals */\n      pop\n      tag_36\n      jump(tag_37)\n    tag_36:\n      0x40\n      dup1\n      mload\n      0xff\n      swap1\n      swap3\n      and\n      dup3\n      mstore\n      mload\n      swap1\n      dup2\n      swap1\n      sub\n      0x20\n      add\n      swap1\n      return\n        /* \"test/TokenB.sol\":2355:2379  uint public _totalSupply */\n    tag_7:\n      callvalue\n        /* \"--CODEGEN--\":8:17   */\n      dup1\n        /* \"--CODEGEN--\":5:7   */\n      iszero\n      tag_38\n      jumpi\n        /* \"--CODEGEN--\":30:31   */\n      0x0\n        /* \"--CODEGEN--\":27:28   */\n      dup1\n        /* \"--CODEGEN--\":20:32   */\n      revert\n        /* \"--CODEGEN--\":5:7   */\n    tag_38:\n        /* \"test/TokenB.sol\":2355:2379  uint public _totalSupply */\n      pop\n      tag_30\n      jump(tag_40)\n        /* \"test/TokenB.sol\":3440:3562  function balanceOf(address tokenOwner) public constant returns (uint balance) {... */\n    tag_8:\n      callvalue\n        /* \"--CODEGEN--\":8:17   */\n      dup1\n        /* \"--CODEGEN--\":5:7   */\n      iszero\n      tag_41\n      jumpi\n        /* \"--CODEGEN--\":30:31   */\n      0x0\n        /* \"--CODEGEN--\":27:28   */\n      dup1\n        /* \"--CODEGEN--\":20:32   */\n      revert\n        /* \"--CODEGEN--\":5:7   */\n    tag_41:\n      pop\n        /* \"test/TokenB.sol\":3440:3562  function balanceOf(address tokenOwner) public constant returns (uint balance) {... */\n      tag_30\n      and(calldataload(0x4), sub(exp(0x2, 0xa0), 0x1))\n      jump(tag_43)\n        /* \"test/TokenB.sol\":2277:2297  string public symbol */\n    tag_9:\n      callvalue\n        /* \"--CODEGEN--\":8:17   */\n      dup1\n        /* \"--CODEGEN--\":5:7   */\n      iszero\n      tag_44\n      jumpi\n        /* \"--CODEGEN--\":30:31   */\n      0x0\n        /* \"--CODEGEN--\":27:28   */\n      dup1\n        /* \"--CODEGEN--\":20:32   */\n      revert\n        /* \"--CODEGEN--\":5:7   */\n    tag_44:\n        /* \"test/TokenB.sol\":2277:2297  string public symbol */\n      pop\n      tag_20\n      jump(tag_46)\n        /* \"test/TokenB.sol\":720:833  function safeSub(uint a, uint b) public pure returns (uint c) {... */\n    tag_10:\n      callvalue\n        /* \"--CODEGEN--\":8:17   */\n      dup1\n        /* \"--CODEGEN--\":5:7   */\n      iszero\n      tag_51\n      jumpi\n        /* \"--CODEGEN--\":30:31   */\n      0x0\n        /* \"--CODEGEN--\":27:28   */\n      dup1\n        /* \"--CODEGEN--\":20:32   */\n      revert\n        /* \"--CODEGEN--\":5:7   */\n    tag_51:\n      pop\n        /* \"test/TokenB.sol\":720:833  function safeSub(uint a, uint b) public pure returns (uint c) {... */\n      tag_30\n      calldataload(0x4)\n      calldataload(0x24)\n      jump(tag_53)\n        /* \"test/TokenB.sol\":3903:4175  function transfer(address to, uint tokens) public returns (bool success) {... */\n    tag_11:\n      callvalue\n        /* \"--CODEGEN--\":8:17   */\n      dup1\n        /* \"--CODEGEN--\":5:7   */\n      iszero\n      tag_54\n      jumpi\n        /* \"--CODEGEN--\":30:31   */\n      0x0\n        /* \"--CODEGEN--\":27:28   */\n      dup1\n        /* \"--CODEGEN--\":20:32   */\n      revert\n        /* \"--CODEGEN--\":5:7   */\n    tag_54:\n      pop\n        /* \"test/TokenB.sol\":3903:4175  function transfer(address to, uint tokens) public returns (bool success) {... */\n      tag_27\n      and(calldataload(0x4), sub(exp(0x2, 0xa0), 0x1))\n      calldataload(0x24)\n      jump(tag_56)\n        /* \"test/TokenB.sol\":972:1084  function safeDiv(uint a, uint b) public pure returns (uint c) {... */\n    tag_12:\n      callvalue\n        /* \"--CODEGEN--\":8:17   */\n      dup1\n        /* \"--CODEGEN--\":5:7   */\n      iszero\n      tag_57\n      jumpi\n        /* \"--CODEGEN--\":30:31   */\n      0x0\n        /* \"--CODEGEN--\":27:28   */\n      dup1\n        /* \"--CODEGEN--\":20:32   */\n      revert\n        /* \"--CODEGEN--\":5:7   */\n    tag_57:\n      pop\n        /* \"test/TokenB.sol\":972:1084  function safeDiv(uint a, uint b) public pure returns (uint c) {... */\n      tag_30\n      calldataload(0x4)\n      calldataload(0x24)\n      jump(tag_59)\n        /* \"test/TokenB.sol\":6539:6851  function approveAndCall(address spender, uint tokens, bytes data) public returns (bool success) {... */\n    tag_13:\n      callvalue\n        /* \"--CODEGEN--\":8:17   */\n      dup1\n        /* \"--CODEGEN--\":5:7   */\n      iszero\n      tag_60\n      jumpi\n        /* \"--CODEGEN--\":30:31   */\n      0x0\n        /* \"--CODEGEN--\":27:28   */\n      dup1\n        /* \"--CODEGEN--\":20:32   */\n      revert\n        /* \"--CODEGEN--\":5:7   */\n    tag_60:\n      pop\n        /* \"test/TokenB.sol\":6539:6851  function approveAndCall(address spender, uint tokens, bytes data) public returns (bool success) {... */\n      0x40\n      dup1\n      mload\n      0x20\n      0x4\n      calldataload(0x44)\n      dup2\n      dup2\n      add\n      calldataload\n      0x1f\n      dup2\n      add\n      dup5\n      swap1\n      div\n      dup5\n      mul\n      dup6\n      add\n      dup5\n      add\n      swap1\n      swap6\n      mstore\n      dup5\n      dup5\n      mstore\n      tag_27\n      swap5\n      dup3\n      calldataload\n      sub(exp(0x2, 0xa0), 0x1)\n      and\n      swap5\n      0x24\n      dup1\n      calldataload\n      swap6\n      calldatasize\n      swap6\n      swap5\n      0x64\n      swap5\n      swap3\n      add\n      swap2\n      swap1\n      dup2\n      swap1\n      dup5\n      add\n      dup4\n      dup3\n      dup1\n      dup3\n      dup5\n      calldatacopy\n      pop\n      swap5\n      swap8\n      pop\n      tag_62\n      swap7\n      pop\n      pop\n      pop\n      pop\n      pop\n      pop\n      pop\n      jump\n        /* \"test/TokenB.sol\":839:966  function safeMul(uint a, uint b) public pure returns (uint c) {... */\n    tag_14:\n      callvalue\n        /* \"--CODEGEN--\":8:17   */\n      dup1\n        /* \"--CODEGEN--\":5:7   */\n      iszero\n      tag_63\n      jumpi\n        /* \"--CODEGEN--\":30:31   */\n      0x0\n        /* \"--CODEGEN--\":27:28   */\n      dup1\n        /* \"--CODEGEN--\":20:32   */\n      revert\n        /* \"--CODEGEN--\":5:7   */\n    tag_63:\n      pop\n        /* \"test/TokenB.sol\":839:966  function safeMul(uint a, uint b) public pure returns (uint c) {... */\n      tag_30\n      calldataload(0x4)\n      calldataload(0x24)\n      jump(tag_65)\n        /* \"test/TokenB.sol\":6038:6187  function allowance(address tokenOwner, address spender) public constant returns (uint remaining) {... */\n    tag_15:\n      callvalue\n        /* \"--CODEGEN--\":8:17   */\n      dup1\n        /* \"--CODEGEN--\":5:7   */\n      iszero\n      tag_66\n      jumpi\n        /* \"--CODEGEN--\":30:31   */\n      0x0\n        /* \"--CODEGEN--\":27:28   */\n      dup1\n        /* \"--CODEGEN--\":20:32   */\n      revert\n        /* \"--CODEGEN--\":5:7   */\n    tag_66:\n      pop\n        /* \"test/TokenB.sol\":6038:6187  function allowance(address tokenOwner, address spender) public constant returns (uint remaining) {... */\n      tag_30\n      sub(exp(0x2, 0xa0), 0x1)\n      calldataload(0x4)\n      dup2\n      and\n      swap1\n      calldataload(0x24)\n      and\n      jump(tag_68)\n        /* \"test/TokenB.sol\":601:714  function safeAdd(uint a, uint b) public pure returns (uint c) {... */\n    tag_16:\n      callvalue\n        /* \"--CODEGEN--\":8:17   */\n      dup1\n        /* \"--CODEGEN--\":5:7   */\n      iszero\n      tag_69\n      jumpi\n        /* \"--CODEGEN--\":30:31   */\n      0x0\n        /* \"--CODEGEN--\":27:28   */\n      dup1\n        /* \"--CODEGEN--\":20:32   */\n      revert\n        /* \"--CODEGEN--\":5:7   */\n    tag_69:\n      pop\n        /* \"test/TokenB.sol\":601:714  function safeAdd(uint a, uint b) public pure returns (uint c) {... */\n      tag_30\n      calldataload(0x4)\n      calldataload(0x24)\n      jump(tag_71)\n        /* \"test/TokenB.sol\":2303:2322  string public  name */\n    tag_21:\n      0x1\n      dup1\n      sload\n      0x40\n      dup1\n      mload\n      0x20\n      0x2\n      dup5\n      dup7\n      and\n      iszero\n      0x100\n      mul\n      not(0x0)\n      add\n      swap1\n      swap5\n      and\n      swap4\n      swap1\n      swap4\n      div\n      0x1f\n      dup2\n      add\n      dup5\n      swap1\n      div\n      dup5\n      mul\n      dup3\n      add\n      dup5\n      add\n      swap1\n      swap3\n      mstore\n      dup2\n      dup2\n      mstore\n      swap3\n      swap2\n      dup4\n      add\n      dup3\n      dup3\n      dup1\n      iszero\n      tag_72\n      jumpi\n      dup1\n      0x1f\n      lt\n      tag_73\n      jumpi\n      0x100\n      dup1\n      dup4\n      sload\n      div\n      mul\n      dup4\n      mstore\n      swap2\n      0x20\n      add\n      swap2\n      jump(tag_72)\n    tag_73:\n      dup3\n      add\n      swap2\n      swap1\n      0x0\n      mstore\n      keccak256(0x0, 0x20)\n      swap1\n    tag_74:\n      dup2\n      sload\n      dup2\n      mstore\n      swap1\n      0x1\n      add\n      swap1\n      0x20\n      add\n      dup1\n      dup4\n      gt\n      tag_74\n      jumpi\n      dup3\n      swap1\n      sub\n      0x1f\n      and\n      dup3\n      add\n      swap2\n    tag_72:\n      pop\n      pop\n      pop\n      pop\n      pop\n      dup2\n      jump\t// out\n        /* \"test/TokenB.sol\":4677:4881  function approve(address spender, uint tokens) public returns (bool success) {... */\n    tag_28:\n        /* \"test/TokenB.sol\":4772:4782  msg.sender */\n      caller\n        /* \"test/TokenB.sol\":4740:4752  bool success */\n      0x0\n        /* \"test/TokenB.sol\":4764:4783  allowed[msg.sender] */\n      dup2\n      dup2\n      mstore\n        /* \"test/TokenB.sol\":4764:4771  allowed */\n      0x5\n        /* \"test/TokenB.sol\":4764:4783  allowed[msg.sender] */\n      0x20\n      swap1\n      dup2\n      mstore\n      0x40\n      dup1\n      dup4\n      keccak256\n      sub(exp(0x2, 0xa0), 0x1)\n        /* \"test/TokenB.sol\":4764:4792  allowed[msg.sender][spender] */\n      dup8\n      and\n      dup1\n      dup6\n      mstore\n      swap1\n      dup4\n      mstore\n      dup2\n      dup5\n      keccak256\n        /* \"test/TokenB.sol\":4764:4801  allowed[msg.sender][spender] = tokens */\n      dup7\n      swap1\n      sstore\n        /* \"test/TokenB.sol\":4816:4853  Approval(msg.sender, spender, tokens) */\n      dup2\n      mload\n      dup7\n      dup2\n      mstore\n      swap2\n      mload\n        /* \"test/TokenB.sol\":4740:4752  bool success */\n      swap4\n      swap5\n        /* \"test/TokenB.sol\":4764:4792  allowed[msg.sender][spender] */\n      swap1\n      swap4\n        /* \"test/TokenB.sol\":4772:4782  msg.sender */\n      swap1\n      swap3\n        /* \"test/TokenB.sol\":4816:4853  Approval(msg.sender, spender, tokens) */\n      0x8c5be1e5ebec7d5bd14f71427d1e84f3dd0314c0f7b2291e5b200ac8c7c3b925\n      swap3\n      dup3\n      swap1\n      sub\n      add\n      swap1\n      log3\n      pop\n        /* \"test/TokenB.sol\":4870:4874  true */\n      0x1\n        /* \"test/TokenB.sol\":4677:4881  function approve(address spender, uint tokens) public returns (bool success) {... */\n    tag_75:\n      swap3\n      swap2\n      pop\n      pop\n      jump\t// out\n        /* \"test/TokenB.sol\":3107:3221  function totalSupply() public constant returns (uint) {... */\n    tag_31:\n        /* \"test/TokenB.sol\":3155:3159  uint */\n      0x0\n        /* \"test/TokenB.sol\":3194:3214  balances[address(0)] */\n      dup1\n      mstore\n        /* \"test/TokenB.sol\":3194:3202  balances */\n      0x4\n        /* \"test/TokenB.sol\":3194:3214  balances[address(0)] */\n      0x20\n      mstore\n      sload(0x17ef568e3e12ab5b9c7254a8d58478811de00f9e6eb34345acd53bf8fd09d3ec)\n        /* \"test/TokenB.sol\":3178:3190  _totalSupply */\n      sload(0x3)\n        /* \"test/TokenB.sol\":3178:3214  _totalSupply  - balances[address(0)] */\n      sub\n        /* \"test/TokenB.sol\":3107:3221  function totalSupply() public constant returns (uint) {... */\n      swap1\n      jump\t// out\n        /* \"test/TokenB.sol\":5405:5757  function transferFrom(address from, address to, uint tokens) public returns (bool success) {... */\n    tag_34:\n      sub(exp(0x2, 0xa0), 0x1)\n        /* \"test/TokenB.sol\":5531:5545  balances[from] */\n      dup4\n      and\n        /* \"test/TokenB.sol\":5482:5494  bool success */\n      0x0\n        /* \"test/TokenB.sol\":5531:5545  balances[from] */\n      swap1\n      dup2\n      mstore\n        /* \"test/TokenB.sol\":5531:5539  balances */\n      0x4\n        /* \"test/TokenB.sol\":5531:5545  balances[from] */\n      0x20\n      mstore\n      0x40\n      dup2\n      keccak256\n      sload\n        /* \"test/TokenB.sol\":5523:5554  safeSub(balances[from], tokens) */\n      tag_78\n      swap1\n        /* \"test/TokenB.sol\":5547:5553  tokens */\n      dup4\n        /* \"test/TokenB.sol\":5523:5530  safeSub */\n      tag_53\n        /* \"test/TokenB.sol\":5523:5554  safeSub(balances[from], tokens) */\n      jump\t// in\n    tag_78:\n      sub(exp(0x2, 0xa0), 0x1)\n        /* \"test/TokenB.sol\":5506:5520  balances[from] */\n      dup6\n      and\n      0x0\n      swap1\n      dup2\n      mstore\n        /* \"test/TokenB.sol\":5506:5514  balances */\n      0x4\n        /* \"test/TokenB.sol\":5506:5520  balances[from] */\n      0x20\n      swap1\n      dup2\n      mstore\n      0x40\n      dup1\n      dup4\n      keccak256\n        /* \"test/TokenB.sol\":5506:5554  balances[from] = safeSub(balances[from], tokens) */\n      swap4\n      swap1\n      swap4\n      sstore\n        /* \"test/TokenB.sol\":5600:5607  allowed */\n      0x5\n        /* \"test/TokenB.sol\":5600:5613  allowed[from] */\n      dup2\n      mstore\n      dup3\n      dup3\n      keccak256\n        /* \"test/TokenB.sol\":5614:5624  msg.sender */\n      caller\n        /* \"test/TokenB.sol\":5600:5625  allowed[from][msg.sender] */\n      dup4\n      mstore\n      swap1\n      mstore\n      keccak256\n      sload\n        /* \"test/TokenB.sol\":5592:5634  safeSub(allowed[from][msg.sender], tokens) */\n      tag_79\n      swap1\n        /* \"test/TokenB.sol\":5627:5633  tokens */\n      dup4\n        /* \"test/TokenB.sol\":5592:5599  safeSub */\n      tag_53\n        /* \"test/TokenB.sol\":5592:5634  safeSub(allowed[from][msg.sender], tokens) */\n      jump\t// in\n    tag_79:\n      sub(exp(0x2, 0xa0), 0x1)\n        /* \"test/TokenB.sol\":5564:5577  allowed[from] */\n      dup1\n      dup7\n      and\n      0x0\n      swap1\n      dup2\n      mstore\n        /* \"test/TokenB.sol\":5564:5571  allowed */\n      0x5\n        /* \"test/TokenB.sol\":5564:5577  allowed[from] */\n      0x20\n      swap1\n      dup2\n      mstore\n      0x40\n      dup1\n      dup4\n      keccak256\n        /* \"test/TokenB.sol\":5578:5588  msg.sender */\n      caller\n        /* \"test/TokenB.sol\":5564:5589  allowed[from][msg.sender] */\n      dup5\n      mstore\n      dup3\n      mstore\n      dup1\n      dup4\n      keccak256\n        /* \"test/TokenB.sol\":5564:5634  allowed[from][msg.sender] = safeSub(allowed[from][msg.sender], tokens) */\n      swap5\n      swap1\n      swap5\n      sstore\n        /* \"test/TokenB.sol\":5667:5679  balances[to] */\n      swap2\n      dup7\n      and\n      dup2\n      mstore\n        /* \"test/TokenB.sol\":5667:5675  balances */\n      0x4\n        /* \"test/TokenB.sol\":5667:5679  balances[to] */\n      swap1\n      swap2\n      mstore\n      keccak256\n      sload\n        /* \"test/TokenB.sol\":5659:5688  safeAdd(balances[to], tokens) */\n      tag_80\n      swap1\n        /* \"test/TokenB.sol\":5681:5687  tokens */\n      dup4\n        /* \"test/TokenB.sol\":5659:5666  safeAdd */\n      tag_71\n        /* \"test/TokenB.sol\":5659:5688  safeAdd(balances[to], tokens) */\n      jump\t// in\n    tag_80:\n      sub(exp(0x2, 0xa0), 0x1)\n        /* \"test/TokenB.sol\":5644:5656  balances[to] */\n      dup1\n      dup6\n      and\n      0x0\n      dup2\n      dup2\n      mstore\n        /* \"test/TokenB.sol\":5644:5652  balances */\n      0x4\n        /* \"test/TokenB.sol\":5644:5656  balances[to] */\n      0x20\n      swap1\n      dup2\n      mstore\n      0x40\n      swap2\n      dup3\n      swap1\n      keccak256\n        /* \"test/TokenB.sol\":5644:5688  balances[to] = safeAdd(balances[to], tokens) */\n      swap5\n      swap1\n      swap5\n      sstore\n        /* \"test/TokenB.sol\":5703:5729  Transfer(from, to, tokens) */\n      dup1\n      mload\n      dup7\n      dup2\n      mstore\n      swap1\n      mload\n        /* \"test/TokenB.sol\":5644:5656  balances[to] */\n      swap2\n      swap4\n        /* \"test/TokenB.sol\":5703:5729  Transfer(from, to, tokens) */\n      swap3\n      dup9\n      and\n      swap3\n      0xddf252ad1be2c89b69c2b068fc378daa952ba7f163c4a11628f55a4df523b3ef\n      swap3\n      swap2\n      dup3\n      swap1\n      sub\n      add\n      swap1\n      log3\n      pop\n        /* \"test/TokenB.sol\":5746:5750  true */\n      0x1\n        /* \"test/TokenB.sol\":5405:5757  function transferFrom(address from, address to, uint tokens) public returns (bool success) {... */\n      swap4\n      swap3\n      pop\n      pop\n      pop\n      jump\t// out\n        /* \"test/TokenB.sol\":2328:2349  uint8 public decimals */\n    tag_37:\n      and(0xff, sload(0x2))\n      dup2\n      jump\t// out\n        /* \"test/TokenB.sol\":2355:2379  uint public _totalSupply */\n    tag_40:\n      sload(0x3)\n      dup2\n      jump\t// out\n        /* \"test/TokenB.sol\":3440:3562  function balanceOf(address tokenOwner) public constant returns (uint balance) {... */\n    tag_43:\n      sub(exp(0x2, 0xa0), 0x1)\n        /* \"test/TokenB.sol\":3535:3555  balances[tokenOwner] */\n      and\n        /* \"test/TokenB.sol\":3504:3516  uint balance */\n      0x0\n        /* \"test/TokenB.sol\":3535:3555  balances[tokenOwner] */\n      swap1\n      dup2\n      mstore\n        /* \"test/TokenB.sol\":3535:3543  balances */\n      0x4\n        /* \"test/TokenB.sol\":3535:3555  balances[tokenOwner] */\n      0x20\n      mstore\n      0x40\n      swap1\n      keccak256\n      sload\n      swap1\n        /* \"test/TokenB.sol\":3440:3562  function balanceOf(address tokenOwner) public constant returns (uint balance) {... */\n      jump\t// out\n        /* \"test/TokenB.sol\":2277:2297  string public symbol */\n    tag_46:\n      0x0\n      dup1\n      sload\n      0x40\n      dup1\n      mload\n      0x20\n      0x2\n      0x1\n      dup6\n      and\n      iszero\n      0x100\n      mul\n      not(0x0)\n      add\n      swap1\n      swap5\n      and\n      swap4\n      swap1\n      swap4\n      div\n      0x1f\n      dup2\n      add\n      dup5\n      swap1\n      div\n      dup5\n      mul\n      dup3\n      add\n      dup5\n      add\n      swap1\n      swap3\n      mstore\n      dup2\n      dup2\n      mstore\n      swap3\n      swap2\n      dup4\n      add\n      dup3\n      dup3\n      dup1\n      iszero\n      tag_72\n      jumpi\n      dup1\n      0x1f\n      lt\n      tag_73\n      jumpi\n      0x100\n      dup1\n      dup4\n      sload\n      div\n      mul\n      dup4\n      mstore\n      swap2\n      0x20\n      add\n      swap2\n      jump(tag_72)\n        /* \"test/TokenB.sol\":720:833  function safeSub(uint a, uint b) public pure returns (uint c) {... */\n    tag_53:\n        /* \"test/TokenB.sol\":774:780  uint c */\n      0x0\n        /* \"test/TokenB.sol\":800:806  b <= a */\n      dup3\n      dup3\n      gt\n      iszero\n        /* \"test/TokenB.sol\":792:807  require(b <= a) */\n      tag_86\n      jumpi\n      0x0\n      dup1\n      revert\n    tag_86:\n      pop\n        /* \"test/TokenB.sol\":821:826  a - b */\n      swap1\n      sub\n      swap1\n        /* \"test/TokenB.sol\":720:833  function safeSub(uint a, uint b) public pure returns (uint c) {... */\n      jump\t// out\n        /* \"test/TokenB.sol\":3903:4175  function transfer(address to, uint tokens) public returns (bool success) {... */\n    tag_56:\n        /* \"test/TokenB.sol\":4026:4036  msg.sender */\n      caller\n        /* \"test/TokenB.sol\":3962:3974  bool success */\n      0x0\n        /* \"test/TokenB.sol\":4017:4037  balances[msg.sender] */\n      swap1\n      dup2\n      mstore\n        /* \"test/TokenB.sol\":4017:4025  balances */\n      0x4\n        /* \"test/TokenB.sol\":4017:4037  balances[msg.sender] */\n      0x20\n      mstore\n      0x40\n      dup2\n      keccak256\n      sload\n        /* \"test/TokenB.sol\":4009:4046  safeSub(balances[msg.sender], tokens) */\n      tag_88\n      swap1\n        /* \"test/TokenB.sol\":4039:4045  tokens */\n      dup4\n        /* \"test/TokenB.sol\":4009:4016  safeSub */\n      tag_53\n        /* \"test/TokenB.sol\":4009:4046  safeSub(balances[msg.sender], tokens) */\n      jump\t// in\n    tag_88:\n        /* \"test/TokenB.sol\":3995:4005  msg.sender */\n      caller\n        /* \"test/TokenB.sol\":3986:4006  balances[msg.sender] */\n      0x0\n      swap1\n      dup2\n      mstore\n        /* \"test/TokenB.sol\":3986:3994  balances */\n      0x4\n        /* \"test/TokenB.sol\":3986:4006  balances[msg.sender] */\n      0x20\n      mstore\n      0x40\n      dup1\n      dup3\n      keccak256\n        /* \"test/TokenB.sol\":3986:4046  balances[msg.sender] = safeSub(balances[msg.sender], tokens) */\n      swap3\n      swap1\n      swap3\n      sstore\n      sub(exp(0x2, 0xa0), 0x1)\n        /* \"test/TokenB.sol\":4079:4091  balances[to] */\n      dup6\n      and\n      dup2\n      mstore\n      keccak256\n      sload\n        /* \"test/TokenB.sol\":4071:4100  safeAdd(balances[to], tokens) */\n      tag_89\n      swap1\n        /* \"test/TokenB.sol\":4093:4099  tokens */\n      dup4\n        /* \"test/TokenB.sol\":4071:4078  safeAdd */\n      tag_71\n        /* \"test/TokenB.sol\":4071:4100  safeAdd(balances[to], tokens) */\n      jump\t// in\n    tag_89:\n      sub(exp(0x2, 0xa0), 0x1)\n        /* \"test/TokenB.sol\":4056:4068  balances[to] */\n      dup5\n      and\n      0x0\n      dup2\n      dup2\n      mstore\n        /* \"test/TokenB.sol\":4056:4064  balances */\n      0x4\n        /* \"test/TokenB.sol\":4056:4068  balances[to] */\n      0x20\n      swap1\n      dup2\n      mstore\n      0x40\n      swap2\n      dup3\n      swap1\n      keccak256\n        /* \"test/TokenB.sol\":4056:4100  balances[to] = safeAdd(balances[to], tokens) */\n      swap4\n      swap1\n      swap4\n      sstore\n        /* \"test/TokenB.sol\":4115:4147  Transfer(msg.sender, to, tokens) */\n      dup1\n      mload\n      dup6\n      dup2\n      mstore\n      swap1\n      mload\n        /* \"test/TokenB.sol\":4056:4068  balances[to] */\n      swap2\n      swap3\n        /* \"test/TokenB.sol\":4124:4134  msg.sender */\n      caller\n      swap3\n        /* \"test/TokenB.sol\":4115:4147  Transfer(msg.sender, to, tokens) */\n      0xddf252ad1be2c89b69c2b068fc378daa952ba7f163c4a11628f55a4df523b3ef\n      swap3\n      dup2\n      swap1\n      sub\n      swap1\n      swap2\n      add\n      swap1\n      log3\n      pop\n        /* \"test/TokenB.sol\":4164:4168  true */\n      0x1\n        /* \"test/TokenB.sol\":3903:4175  function transfer(address to, uint tokens) public returns (bool success) {... */\n      swap3\n      swap2\n      pop\n      pop\n      jump\t// out\n        /* \"test/TokenB.sol\":972:1084  function safeDiv(uint a, uint b) public pure returns (uint c) {... */\n    tag_59:\n        /* \"test/TokenB.sol\":1026:1032  uint c */\n      0x0\n        /* \"test/TokenB.sol\":1052:1057  b > 0 */\n      dup1\n      dup3\n      gt\n        /* \"test/TokenB.sol\":1044:1058  require(b > 0) */\n      tag_91\n      jumpi\n      0x0\n      dup1\n      revert\n    tag_91:\n        /* \"test/TokenB.sol\":1076:1077  b */\n      dup2\n        /* \"test/TokenB.sol\":1072:1073  a */\n      dup4\n        /* \"test/TokenB.sol\":1072:1077  a / b */\n      dup2\n      iszero\n      iszero\n      tag_92\n      jumpi\n      invalid\n    tag_92:\n      div\n      swap4\n        /* \"test/TokenB.sol\":972:1084  function safeDiv(uint a, uint b) public pure returns (uint c) {... */\n      swap3\n      pop\n      pop\n      pop\n      jump\t// out\n        /* \"test/TokenB.sol\":6539:6851  function approveAndCall(address spender, uint tokens, bytes data) public returns (bool success) {... */\n    tag_62:\n        /* \"test/TokenB.sol\":6653:6663  msg.sender */\n      caller\n        /* \"test/TokenB.sol\":6621:6633  bool success */\n      0x0\n        /* \"test/TokenB.sol\":6645:6664  allowed[msg.sender] */\n      dup2\n      dup2\n      mstore\n        /* \"test/TokenB.sol\":6645:6652  allowed */\n      0x5\n        /* \"test/TokenB.sol\":6645:6664  allowed[msg.sender] */\n      0x20\n      swap1\n      dup2\n      mstore\n      0x40\n      dup1\n      dup4\n      keccak256\n      sub(exp(0x2, 0xa0), 0x1)\n        /* \"test/TokenB.sol\":6645:6673  allowed[msg.sender][spender] */\n      dup9\n      and\n      dup1\n      dup6\n      mstore\n      swap1\n      dup4\n      mstore\n      dup2\n      dup5\n      keccak256\n        /* \"test/TokenB.sol\":6645:6682  allowed[msg.sender][spender] = tokens */\n      dup8\n      swap1\n      sstore\n        /* \"test/TokenB.sol\":6697:6734  Approval(msg.sender, spender, tokens) */\n      dup2\n      mload\n      dup8\n      dup2\n      mstore\n      swap2\n      mload\n        /* \"test/TokenB.sol\":6621:6633  bool success */\n      swap4\n      swap5\n        /* \"test/TokenB.sol\":6645:6673  allowed[msg.sender][spender] */\n      swap1\n      swap4\n        /* \"test/TokenB.sol\":6653:6663  msg.sender */\n      swap1\n      swap3\n        /* \"test/TokenB.sol\":6697:6734  Approval(msg.sender, spender, tokens) */\n      0x8c5be1e5ebec7d5bd14f71427d1e84f3dd0314c0f7b2291e5b200ac8c7c3b925\n      swap3\n      dup3\n      swap1\n      sub\n      add\n      swap1\n      log3\n        /* \"test/TokenB.sol\":6744:6823  ApproveAndCallFallBack(spender).receiveApproval(msg.sender, tokens, this, data) */\n      mload(0x40)\n      0x8f4ffcb100000000000000000000000000000000000000000000000000000000\n      dup2\n      mstore\n        /* \"test/TokenB.sol\":6792:6802  msg.sender */\n      caller\n        /* \"test/TokenB.sol\":6744:6823  ApproveAndCallFallBack(spender).receiveApproval(msg.sender, tokens, this, data) */\n      0x4\n      dup3\n      add\n      dup2\n      dup2\n      mstore\n      0x24\n      dup4\n      add\n      dup7\n      swap1\n      mstore\n        /* \"test/TokenB.sol\":6812:6816  this */\n      address\n        /* \"test/TokenB.sol\":6744:6823  ApproveAndCallFallBack(spender).receiveApproval(msg.sender, tokens, this, data) */\n      0x44\n      dup5\n      add\n      dup2\n      swap1\n      mstore\n      0x80\n      0x64\n      dup6\n      add\n      swap1\n      dup2\n      mstore\n      dup7\n      mload\n      0x84\n      dup7\n      add\n      mstore\n      dup7\n      mload\n      sub(exp(0x2, 0xa0), 0x1)\n        /* \"test/TokenB.sol\":6744:6791  ApproveAndCallFallBack(spender).receiveApproval */\n      dup11\n      and\n      swap6\n      0x8f4ffcb1\n      swap6\n        /* \"test/TokenB.sol\":6792:6802  msg.sender */\n      swap5\n        /* \"test/TokenB.sol\":6804:6810  tokens */\n      dup11\n      swap5\n        /* \"test/TokenB.sol\":6812:6816  this */\n      swap4\n        /* \"test/TokenB.sol\":6818:6822  data */\n      dup11\n      swap4\n        /* \"test/TokenB.sol\":6744:6823  ApproveAndCallFallBack(spender).receiveApproval(msg.sender, tokens, this, data) */\n      swap2\n      swap3\n      swap1\n      swap2\n      0xa4\n      swap1\n      swap2\n      add\n      swap1\n      0x20\n      dup6\n      add\n      swap1\n      dup1\n      dup4\n      dup4\n      0x0\n        /* \"--CODEGEN--\":8:108   */\n    tag_94:\n        /* \"--CODEGEN--\":33:36   */\n      dup4\n        /* \"--CODEGEN--\":30:31   */\n      dup2\n        /* \"--CODEGEN--\":27:37   */\n      lt\n        /* \"--CODEGEN--\":8:108   */\n      iszero\n      tag_95\n      jumpi\n        /* \"--CODEGEN--\":90:101   */\n      dup2\n      dup2\n      add\n        /* \"--CODEGEN--\":84:102   */\n      mload\n        /* \"--CODEGEN--\":71:82   */\n      dup4\n      dup3\n      add\n        /* \"--CODEGEN--\":64:103   */\n      mstore\n        /* \"--CODEGEN--\":52:54   */\n      0x20\n        /* \"--CODEGEN--\":45:55   */\n      add\n        /* \"--CODEGEN--\":8:108   */\n      jump(tag_94)\n    tag_95:\n        /* \"--CODEGEN--\":12:26   */\n      pop\n        /* \"test/TokenB.sol\":6744:6823  ApproveAndCallFallBack(spender).receiveApproval(msg.sender, tokens, this, data) */\n      pop\n      pop\n      pop\n      swap1\n      pop\n      swap1\n      dup2\n      add\n      swap1\n      0x1f\n      and\n      dup1\n      iszero\n      tag_97\n      jumpi\n      dup1\n      dup3\n      sub\n      dup1\n      mload\n      0x1\n      dup4\n      0x20\n      sub\n      0x100\n      exp\n      sub\n      not\n      and\n      dup2\n      mstore\n      0x20\n      add\n      swap2\n      pop\n    tag_97:\n      pop\n      swap6\n      pop\n      pop\n      pop\n      pop\n      pop\n      pop\n      0x0\n      mload(0x40)\n      dup1\n      dup4\n      sub\n      dup2\n      0x0\n      dup8\n      dup1\n      extcodesize\n      iszero\n        /* \"--CODEGEN--\":8:17   */\n      dup1\n        /* \"--CODEGEN--\":5:7   */\n      iszero\n      tag_98\n      jumpi\n        /* \"--CODEGEN--\":30:31   */\n      0x0\n        /* \"--CODEGEN--\":27:28   */\n      dup1\n        /* \"--CODEGEN--\":20:32   */\n      revert\n        /* \"--CODEGEN--\":5:7   */\n    tag_98:\n        /* \"test/TokenB.sol\":6744:6823  ApproveAndCallFallBack(spender).receiveApproval(msg.sender, tokens, this, data) */\n      pop\n      gas\n      call\n      iszero\n        /* \"--CODEGEN--\":8:17   */\n      dup1\n        /* \"--CODEGEN--\":5:7   */\n      iszero\n      tag_99\n      jumpi\n        /* \"--CODEGEN--\":45:61   */\n      returndatasize\n        /* \"--CODEGEN--\":42:43   */\n      0x0\n        /* \"--CODEGEN--\":39:40   */\n      dup1\n        /* \"--CODEGEN--\":24:62   */\n      returndatacopy\n        /* \"--CODEGEN--\":77:93   */\n      returndatasize\n        /* \"--CODEGEN--\":74:75   */\n      0x0\n        /* \"--CODEGEN--\":67:94   */\n      revert\n        /* \"--CODEGEN--\":5:7   */\n    tag_99:\n      pop\n        /* \"test/TokenB.sol\":6840:6844  true */\n      0x1\n      swap8\n        /* \"test/TokenB.sol\":6539:6851  function approveAndCall(address spender, uint tokens, bytes data) public returns (bool success) {... */\n      swap7\n      pop\n      pop\n      pop\n      pop\n      pop\n      pop\n      pop\n      jump\t// out\n        /* \"test/TokenB.sol\":839:966  function safeMul(uint a, uint b) public pure returns (uint c) {... */\n    tag_65:\n        /* \"test/TokenB.sol\":915:920  a * b */\n      dup2\n      dup2\n      mul\n        /* \"test/TokenB.sol\":938:944  a == 0 */\n      dup3\n      iszero\n      dup1\n        /* \"test/TokenB.sol\":938:958  a == 0 || c / a == b */\n      tag_101\n      jumpi\n      pop\n        /* \"test/TokenB.sol\":957:958  b */\n      dup2\n        /* \"test/TokenB.sol\":952:953  a */\n      dup4\n        /* \"test/TokenB.sol\":948:949  c */\n      dup3\n        /* \"test/TokenB.sol\":948:953  c / a */\n      dup2\n      iszero\n      iszero\n      tag_102\n      jumpi\n      invalid\n    tag_102:\n      div\n        /* \"test/TokenB.sol\":948:958  c / a == b */\n      eq\n        /* \"test/TokenB.sol\":938:958  a == 0 || c / a == b */\n    tag_101:\n        /* \"test/TokenB.sol\":930:959  require(a == 0 || c / a == b) */\n      iszero\n      iszero\n      tag_75\n      jumpi\n      0x0\n      dup1\n      revert\n        /* \"test/TokenB.sol\":6038:6187  function allowance(address tokenOwner, address spender) public constant returns (uint remaining) {... */\n    tag_68:\n      sub(exp(0x2, 0xa0), 0x1)\n        /* \"test/TokenB.sol\":6152:6171  allowed[tokenOwner] */\n      swap2\n      dup3\n      and\n        /* \"test/TokenB.sol\":6119:6133  uint remaining */\n      0x0\n        /* \"test/TokenB.sol\":6152:6171  allowed[tokenOwner] */\n      swap1\n      dup2\n      mstore\n        /* \"test/TokenB.sol\":6152:6159  allowed */\n      0x5\n        /* \"test/TokenB.sol\":6152:6171  allowed[tokenOwner] */\n      0x20\n      swap1\n      dup2\n      mstore\n      0x40\n      dup1\n      dup4\n      keccak256\n        /* \"test/TokenB.sol\":6152:6180  allowed[tokenOwner][spender] */\n      swap4\n      swap1\n      swap5\n      and\n      dup3\n      mstore\n      swap2\n      swap1\n      swap2\n      mstore\n      keccak256\n      sload\n      swap1\n        /* \"test/TokenB.sol\":6038:6187  function allowance(address tokenOwner, address spender) public constant returns (uint remaining) {... */\n      jump\t// out\n        /* \"test/TokenB.sol\":601:714  function safeAdd(uint a, uint b) public pure returns (uint c) {... */\n    tag_71:\n        /* \"test/TokenB.sol\":677:682  a + b */\n      dup2\n      dup2\n      add\n        /* \"test/TokenB.sol\":700:706  c >= a */\n      dup3\n      dup2\n      lt\n      iszero\n        /* \"test/TokenB.sol\":692:707  require(c >= a) */\n      tag_75\n      jumpi\n      0x0\n      dup1\n      revert\n\n    auxdata: 0xa165627a7a7230582050b6b3563e5601c50be327b3bfabb4cb771e5e5718fa34b7e95b6e0e585bf3360029\n}\n",
				"bytecode": {
					"linkReferences": {},
					"object": "608060405234801561001057600080fd5b506040805180820190915260048082527f544f4b4100000000000000000000000000000000000000000000000000000000602090920191825261005591600091610106565b506040805180820190915260078082527f546f6b656e204200000000000000000000000000000000000000000000000000602090920191825261009a91600191610106565b506002805460ff1916601217905569021e19e0c9bab24000006003819055336000818152600460209081526040808320859055805194855251929391927fddf252ad1be2c89b69c2b068fc378daa952ba7f163c4a11628f55a4df523b3ef9281900390910190a36101a1565b828054600181600116156101000203166002900490600052602060002090601f016020900481019282601f1061014757805160ff1916838001178555610174565b82800160010185558215610174579182015b82811115610174578251825591602001919060010190610159565b50610180929150610184565b5090565b61019e91905b80821115610180576000815560010161018a565b90565b6108f3806101b06000396000f3006080604052600436106100da5763ffffffff7c010000000000000000000000000000000000000000000000000000000060003504166306fdde0381146100df578063095ea7b31461016957806318160ddd146101a157806323b872dd146101c8578063313ce567146101f25780633eaaf86b1461021d57806370a082311461023257806395d89b4114610253578063a293d1e814610268578063a9059cbb14610283578063b5931f7c146102a7578063cae9ca51146102c2578063d05c78da1461032b578063dd62ed3e14610346578063e6cb90131461036d575b600080fd5b3480156100eb57600080fd5b506100f4610388565b6040805160208082528351818301528351919283929083019185019080838360005b8381101561012e578181015183820152602001610116565b50505050905090810190601f16801561015b5780820380516001836020036101000a031916815260200191505b509250505060405180910390f35b34801561017557600080fd5b5061018d600160a060020a0360043516602435610415565b604080519115158252519081900360200190f35b3480156101ad57600080fd5b506101b661047c565b60408051918252519081900360200190f35b3480156101d457600080fd5b5061018d600160a060020a03600435811690602435166044356104ae565b3480156101fe57600080fd5b506102076105a7565b6040805160ff9092168252519081900360200190f35b34801561022957600080fd5b506101b66105b0565b34801561023e57600080fd5b506101b6600160a060020a03600435166105b6565b34801561025f57600080fd5b506100f46105d1565b34801561027457600080fd5b506101b660043560243561062c565b34801561028f57600080fd5b5061018d600160a060020a0360043516602435610641565b3480156102b357600080fd5b506101b66004356024356106e5565b3480156102ce57600080fd5b50604080516020600460443581810135601f810184900484028501840190955284845261018d948235600160a060020a03169460248035953695946064949201919081908401838280828437509497506107069650505050505050565b34801561033757600080fd5b506101b6600435602435610867565b34801561035257600080fd5b506101b6600160a060020a036004358116906024351661088c565b34801561037957600080fd5b506101b66004356024356108b7565b60018054604080516020600284861615610100026000190190941693909304601f8101849004840282018401909252818152929183018282801561040d5780601f106103e25761010080835404028352916020019161040d565b820191906000526020600020905b8154815290600101906020018083116103f057829003601f168201915b505050505081565b336000818152600560209081526040808320600160a060020a038716808552908352818420869055815186815291519394909390927f8c5be1e5ebec7d5bd14f71427d1e84f3dd0314c0f7b2291e5b200ac8c7c3b925928290030190a35060015b92915050565b6000805260046020527f17ef568e3e12ab5b9c7254a8d58478811de00f9e6eb34345acd53bf8fd09d3ec546003540390565b600160a060020a0383166000908152600460205260408120546104d1908361062c565b600160a060020a0385166000908152600460209081526040808320939093556005815282822033835290522054610508908361062c565b600160a060020a03808616600090815260056020908152604080832033845282528083209490945591861681526004909152205461054690836108b7565b600160a060020a0380851660008181526004602090815260409182902094909455805186815290519193928816927fddf252ad1be2c89b69c2b068fc378daa952ba7f163c4a11628f55a4df523b3ef92918290030190a35060019392505050565b60025460ff1681565b60035481565b600160a060020a031660009081526004602052604090205490565b6000805460408051602060026001851615610100026000190190941693909304601f8101849004840282018401909252818152929183018282801561040d5780601f106103e25761010080835404028352916020019161040d565b60008282111561063b57600080fd5b50900390565b3360009081526004602052604081205461065b908361062c565b3360009081526004602052604080822092909255600160a060020a0385168152205461068790836108b7565b600160a060020a0384166000818152600460209081526040918290209390935580518581529051919233927fddf252ad1be2c89b69c2b068fc378daa952ba7f163c4a11628f55a4df523b3ef9281900390910190a350600192915050565b60008082116106f357600080fd5b81838115156106fe57fe5b049392505050565b336000818152600560209081526040808320600160a060020a038816808552908352818420879055815187815291519394909390927f8c5be1e5ebec7d5bd14f71427d1e84f3dd0314c0f7b2291e5b200ac8c7c3b925928290030190a36040517f8f4ffcb10000000000000000000000000000000000000000000000000000000081523360048201818152602483018690523060448401819052608060648501908152865160848601528651600160a060020a038a1695638f4ffcb195948a94938a939192909160a490910190602085019080838360005b838110156107f65781810151838201526020016107de565b50505050905090810190601f1680156108235780820380516001836020036101000a031916815260200191505b5095505050505050600060405180830381600087803b15801561084557600080fd5b505af1158015610859573d6000803e3d6000fd5b506001979650505050505050565b818102821580610881575081838281151561087e57fe5b04145b151561047657600080fd5b600160a060020a03918216600090815260056020908152604080832093909416825291909152205490565b8181018281101561047657600080fd00a165627a7a7230582050b6b3563e5601c50be327b3bfabb4cb771e5e5718fa34b7e95b6e0e585bf3360029",
					"opcodes": "PUSH1 0x80 PUSH1 0x40 MSTORE CALLVALUE DUP1 ISZERO PUSH2 0x10 JUMPI PUSH1 0x0 DUP1 REVERT JUMPDEST POP PUSH1 0x40 DUP1 MLOAD DUP1 DUP3 ADD SWAP1 SWAP2 MSTORE PUSH1 0x4 DUP1 DUP3 MSTORE PUSH32 0x544F4B4100000000000000000000000000000000000000000000000000000000 PUSH1 0x20 SWAP1 SWAP3 ADD SWAP2 DUP3 MSTORE PUSH2 0x55 SWAP2 PUSH1 0x0 SWAP2 PUSH2 0x106 JUMP JUMPDEST POP PUSH1 0x40 DUP1 MLOAD DUP1 DUP3 ADD SWAP1 SWAP2 MSTORE PUSH1 0x7 DUP1 DUP3 MSTORE PUSH32 0x546F6B656E204200000000000000000000000000000000000000000000000000 PUSH1 0x20 SWAP1 SWAP3 ADD SWAP2 DUP3 MSTORE PUSH2 0x9A SWAP2 PUSH1 0x1 SWAP2 PUSH2 0x106 JUMP JUMPDEST POP PUSH1 0x2 DUP1 SLOAD PUSH1 0xFF NOT AND PUSH1 0x12 OR SWAP1 SSTORE PUSH10 0x21E19E0C9BAB2400000 PUSH1 0x3 DUP2 SWAP1 SSTORE CALLER PUSH1 0x0 DUP2 DUP2 MSTORE PUSH1 0x4 PUSH1 0x20 SWAP1 DUP2 MSTORE PUSH1 0x40 DUP1 DUP4 KECCAK256 DUP6 SWAP1 SSTORE DUP1 MLOAD SWAP5 DUP6 MSTORE MLOAD SWAP3 SWAP4 SWAP2 SWAP3 PUSH32 0xDDF252AD1BE2C89B69C2B068FC378DAA952BA7F163C4A11628F55A4DF523B3EF SWAP3 DUP2 SWAP1 SUB SWAP1 SWAP2 ADD SWAP1 LOG3 PUSH2 0x1A1 JUMP JUMPDEST DUP3 DUP1 SLOAD PUSH1 0x1 DUP2 PUSH1 0x1 AND ISZERO PUSH2 0x100 MUL SUB AND PUSH1 0x2 SWAP1 DIV SWAP1 PUSH1 0x0 MSTORE PUSH1 0x20 PUSH1 0x0 KECCAK256 SWAP1 PUSH1 0x1F ADD PUSH1 0x20 SWAP1 DIV DUP2 ADD SWAP3 DUP3 PUSH1 0x1F LT PUSH2 0x147 JUMPI DUP1 MLOAD PUSH1 0xFF NOT AND DUP4 DUP1 ADD OR DUP6 SSTORE PUSH2 0x174 JUMP JUMPDEST DUP3 DUP1 ADD PUSH1 0x1 ADD DUP6 SSTORE DUP3 ISZERO PUSH2 0x174 JUMPI SWAP2 DUP3 ADD JUMPDEST DUP3 DUP2 GT ISZERO PUSH2 0x174 JUMPI DUP3 MLOAD DUP3 SSTORE SWAP2 PUSH1 0x20 ADD SWAP2 SWAP1 PUSH1 0x1 ADD SWAP1 PUSH2 0x159 JUMP JUMPDEST POP PUSH2 0x180 SWAP3 SWAP2 POP PUSH2 0x184 JUMP JUMPDEST POP SWAP1 JUMP JUMPDEST PUSH2 0x19E SWAP2 SWAP1 JUMPDEST DUP1 DUP3 GT ISZERO PUSH2 0x180 JUMPI PUSH1 0x0 DUP2 SSTORE PUSH1 0x1 ADD PUSH2 0x18A JUMP JUMPDEST SWAP1 JUMP JUMPDEST PUSH2 0x8F3 DUP1 PUSH2 0x1B0 PUSH1 0x0 CODECOPY PUSH1 0x0 RETURN STOP PUSH1 0x80 PUSH1 0x40 MSTORE PUSH1 0x4 CALLDATASIZE LT PUSH2 0xDA JUMPI PUSH4 0xFFFFFFFF PUSH29 0x100000000000000000000000000000000000000000000000000000000 PUSH1 0x0 CALLDATALOAD DIV AND PUSH4 0x6FDDE03 DUP2 EQ PUSH2 0xDF JUMPI DUP1 PUSH4 0x95EA7B3 EQ PUSH2 0x169 JUMPI DUP1 PUSH4 0x18160DDD EQ PUSH2 0x1A1 JUMPI DUP1 PUSH4 0x23B872DD EQ PUSH2 0x1C8 JUMPI DUP1 PUSH4 0x313CE567 EQ PUSH2 0x1F2 JUMPI DUP1 PUSH4 0x3EAAF86B EQ PUSH2 0x21D JUMPI DUP1 PUSH4 0x70A08231 EQ PUSH2 0x232 JUMPI DUP1 PUSH4 0x95D89B41 EQ PUSH2 0x253 JUMPI DUP1 PUSH4 0xA293D1E8 EQ PUSH2 0x268 JUMPI DUP1 PUSH4 0xA9059CBB EQ PUSH2 0x283 JUMPI DUP1 PUSH4 0xB5931F7C EQ PUSH2 0x2A7 JUMPI DUP1 PUSH4 0xCAE9CA51 EQ PUSH2 0x2C2 JUMPI DUP1 PUSH4 0xD05C78DA EQ PUSH2 0x32B JUMPI DUP1 PUSH4 0xDD62ED3E EQ PUSH2 0x346 JUMPI DUP1 PUSH4 0xE6CB9013 EQ PUSH2 0x36D JUMPI JUMPDEST PUSH1 0x0 DUP1 REVERT JUMPDEST CALLVALUE DUP1 ISZERO PUSH2 0xEB JUMPI PUSH1 0x0 DUP1 REVERT JUMPDEST POP PUSH2 0xF4 PUSH2 0x388 JUMP JUMPDEST PUSH1 0x40 DUP1 MLOAD PUSH1 0x20 DUP1 DUP3 MSTORE DUP4 MLOAD DUP2 DUP4 ADD MSTORE DUP4 MLOAD SWAP2 SWAP3 DUP4 SWAP3 SWAP1 DUP4 ADD SWAP2 DUP6 ADD SWAP1 DUP1 DUP4 DUP4 PUSH1 0x0 JUMPDEST DUP4 DUP2 LT ISZERO PUSH2 0x12E JUMPI DUP2 DUP2 ADD MLOAD DUP4 DUP3 ADD MSTORE PUSH1 0x20 ADD PUSH2 0x116 JUMP JUMPDEST POP POP POP POP SWAP1 POP SWAP1 DUP2 ADD SWAP1 PUSH1 0x1F AND DUP1 ISZERO PUSH2 0x15B JUMPI DUP1 DUP3 SUB DUP1 MLOAD PUSH1 0x1 DUP4 PUSH1 0x20 SUB PUSH2 0x100 EXP SUB NOT AND DUP2 MSTORE PUSH1 0x20 ADD SWAP2 POP JUMPDEST POP SWAP3 POP POP POP PUSH1 0x40 MLOAD DUP1 SWAP2 SUB SWAP1 RETURN JUMPDEST CALLVALUE DUP1 ISZERO PUSH2 0x175 JUMPI PUSH1 0x0 DUP1 REVERT JUMPDEST POP PUSH2 0x18D PUSH1 0x1 PUSH1 0xA0 PUSH1 0x2 EXP SUB PUSH1 0x4 CALLDATALOAD AND PUSH1 0x24 CALLDATALOAD PUSH2 0x415 JUMP JUMPDEST PUSH1 0x40 DUP1 MLOAD SWAP2 ISZERO ISZERO DUP3 MSTORE MLOAD SWAP1 DUP2 SWAP1 SUB PUSH1 0x20 ADD SWAP1 RETURN JUMPDEST CALLVALUE DUP1 ISZERO PUSH2 0x1AD JUMPI PUSH1 0x0 DUP1 REVERT JUMPDEST POP PUSH2 0x1B6 PUSH2 0x47C JUMP JUMPDEST PUSH1 0x40 DUP1 MLOAD SWAP2 DUP3 MSTORE MLOAD SWAP1 DUP2 SWAP1 SUB PUSH1 0x20 ADD SWAP1 RETURN JUMPDEST CALLVALUE DUP1 ISZERO PUSH2 0x1D4 JUMPI PUSH1 0x0 DUP1 REVERT JUMPDEST POP PUSH2 0x18D PUSH1 0x1 PUSH1 0xA0 PUSH1 0x2 EXP SUB PUSH1 0x4 CALLDATALOAD DUP2 AND SWAP1 PUSH1 0x24 CALLDATALOAD AND PUSH1 0x44 CALLDATALOAD PUSH2 0x4AE JUMP JUMPDEST CALLVALUE DUP1 ISZERO PUSH2 0x1FE JUMPI PUSH1 0x0 DUP1 REVERT JUMPDEST POP PUSH2 0x207 PUSH2 0x5A7 JUMP JUMPDEST PUSH1 0x40 DUP1 MLOAD PUSH1 0xFF SWAP1 SWAP3 AND DUP3 MSTORE MLOAD SWAP1 DUP2 SWAP1 SUB PUSH1 0x20 ADD SWAP1 RETURN JUMPDEST CALLVALUE DUP1 ISZERO PUSH2 0x229 JUMPI PUSH1 0x0 DUP1 REVERT JUMPDEST POP PUSH2 0x1B6 PUSH2 0x5B0 JUMP JUMPDEST CALLVALUE DUP1 ISZERO PUSH2 0x23E JUMPI PUSH1 0x0 DUP1 REVERT JUMPDEST POP PUSH2 0x1B6 PUSH1 0x1 PUSH1 0xA0 PUSH1 0x2 EXP SUB PUSH1 0x4 CALLDATALOAD AND PUSH2 0x5B6 JUMP JUMPDEST CALLVALUE DUP1 ISZERO PUSH2 0x25F JUMPI PUSH1 0x0 DUP1 REVERT JUMPDEST POP PUSH2 0xF4 PUSH2 0x5D1 JUMP JUMPDEST CALLVALUE DUP1 ISZERO PUSH2 0x274 JUMPI PUSH1 0x0 DUP1 REVERT JUMPDEST POP PUSH2 0x1B6 PUSH1 0x4 CALLDATALOAD PUSH1 0x24 CALLDATALOAD PUSH2 0x62C JUMP JUMPDEST CALLVALUE DUP1 ISZERO PUSH2 0x28F JUMPI PUSH1 0x0 DUP1 REVERT JUMPDEST POP PUSH2 0x18D PUSH1 0x1 PUSH1 0xA0 PUSH1 0x2 EXP SUB PUSH1 0x4 CALLDATALOAD AND PUSH1 0x24 CALLDATALOAD PUSH2 0x641 JUMP JUMPDEST CALLVALUE DUP1 ISZERO PUSH2 0x2B3 JUMPI PUSH1 0x0 DUP1 REVERT JUMPDEST POP PUSH2 0x1B6 PUSH1 0x4 CALLDATALOAD PUSH1 0x24 CALLDATALOAD PUSH2 0x6E5 JUMP JUMPDEST CALLVALUE DUP1 ISZERO PUSH2 0x2CE JUMPI PUSH1 0x0 DUP1 REVERT JUMPDEST POP PUSH1 0x40 DUP1 MLOAD PUSH1 0x20 PUSH1 0x4 PUSH1 0x44 CALLDATALOAD DUP2 DUP2 ADD CALLDATALOAD PUSH1 0x1F DUP2 ADD DUP5 SWAP1 DIV DUP5 MUL DUP6 ADD DUP5 ADD SWAP1 SWAP6 MSTORE DUP5 DUP5 MSTORE PUSH2 0x18D SWAP5 DUP3 CALLDATALOAD PUSH1 0x1 PUSH1 0xA0 PUSH1 0x2 EXP SUB AND SWAP5 PUSH1 0x24 DUP1 CALLDATALOAD SWAP6 CALLDATASIZE SWAP6 SWAP5 PUSH1 0x64 SWAP5 SWAP3 ADD SWAP2 SWAP1 DUP2 SWAP1 DUP5 ADD DUP4 DUP3 DUP1 DUP3 DUP5 CALLDATACOPY POP SWAP5 SWAP8 POP PUSH2 0x706 SWAP7 POP POP POP POP POP POP POP JUMP JUMPDEST CALLVALUE DUP1 ISZERO PUSH2 0x337 JUMPI PUSH1 0x0 DUP1 REVERT JUMPDEST POP PUSH2 0x1B6 PUSH1 0x4 CALLDATALOAD PUSH1 0x24 CALLDATALOAD PUSH2 0x867 JUMP JUMPDEST CALLVALUE DUP1 ISZERO PUSH2 0x352 JUMPI PUSH1 0x0 DUP1 REVERT JUMPDEST POP PUSH2 0x1B6 PUSH1 0x1 PUSH1 0xA0 PUSH1 0x2 EXP SUB PUSH1 0x4 CALLDATALOAD DUP2 AND SWAP1 PUSH1 0x24 CALLDATALOAD AND PUSH2 0x88C JUMP JUMPDEST CALLVALUE DUP1 ISZERO PUSH2 0x379 JUMPI PUSH1 0x0 DUP1 REVERT JUMPDEST POP PUSH2 0x1B6 PUSH1 0x4 CALLDATALOAD PUSH1 0x24 CALLDATALOAD PUSH2 0x8B7 JUMP JUMPDEST PUSH1 0x1 DUP1 SLOAD PUSH1 0x40 DUP1 MLOAD PUSH1 0x20 PUSH1 0x2 DUP5 DUP7 AND ISZERO PUSH2 0x100 MUL PUSH1 0x0 NOT ADD SWAP1 SWAP5 AND SWAP4 SWAP1 SWAP4 DIV PUSH1 0x1F DUP2 ADD DUP5 SWAP1 DIV DUP5 MUL DUP3 ADD DUP5 ADD SWAP1 SWAP3 MSTORE DUP2 DUP2 MSTORE SWAP3 SWAP2 DUP4 ADD DUP3 DUP3 DUP1 ISZERO PUSH2 0x40D JUMPI DUP1 PUSH1 0x1F LT PUSH2 0x3E2 JUMPI PUSH2 0x100 DUP1 DUP4 SLOAD DIV MUL DUP4 MSTORE SWAP2 PUSH1 0x20 ADD SWAP2 PUSH2 0x40D JUMP JUMPDEST DUP3 ADD SWAP2 SWAP1 PUSH1 0x0 MSTORE PUSH1 0x20 PUSH1 0x0 KECCAK256 SWAP1 JUMPDEST DUP2 SLOAD DUP2 MSTORE SWAP1 PUSH1 0x1 ADD SWAP1 PUSH1 0x20 ADD DUP1 DUP4 GT PUSH2 0x3F0 JUMPI DUP3 SWAP1 SUB PUSH1 0x1F AND DUP3 ADD SWAP2 JUMPDEST POP POP POP POP POP DUP2 JUMP JUMPDEST CALLER PUSH1 0x0 DUP2 DUP2 MSTORE PUSH1 0x5 PUSH1 0x20 SWAP1 DUP2 MSTORE PUSH1 0x40 DUP1 DUP4 KECCAK256 PUSH1 0x1 PUSH1 0xA0 PUSH1 0x2 EXP SUB DUP8 AND DUP1 DUP6 MSTORE SWAP1 DUP4 MSTORE DUP2 DUP5 KECCAK256 DUP7 SWAP1 SSTORE DUP2 MLOAD DUP7 DUP2 MSTORE SWAP2 MLOAD SWAP4 SWAP5 SWAP1 SWAP4 SWAP1 SWAP3 PUSH32 0x8C5BE1E5EBEC7D5BD14F71427D1E84F3DD0314C0F7B2291E5B200AC8C7C3B925 SWAP3 DUP3 SWAP1 SUB ADD SWAP1 LOG3 POP PUSH1 0x1 JUMPDEST SWAP3 SWAP2 POP POP JUMP JUMPDEST PUSH1 0x0 DUP1 MSTORE PUSH1 0x4 PUSH1 0x20 MSTORE PUSH32 0x17EF568E3E12AB5B9C7254A8D58478811DE00F9E6EB34345ACD53BF8FD09D3EC SLOAD PUSH1 0x3 SLOAD SUB SWAP1 JUMP JUMPDEST PUSH1 0x1 PUSH1 0xA0 PUSH1 0x2 EXP SUB DUP4 AND PUSH1 0x0 SWAP1 DUP2 MSTORE PUSH1 0x4 PUSH1 0x20 MSTORE PUSH1 0x40 DUP2 KECCAK256 SLOAD PUSH2 0x4D1 SWAP1 DUP4 PUSH2 0x62C JUMP JUMPDEST PUSH1 0x1 PUSH1 0xA0 PUSH1 0x2 EXP SUB DUP6 AND PUSH1 0x0 SWAP1 DUP2 MSTORE PUSH1 0x4 PUSH1 0x20 SWAP1 DUP2 MSTORE PUSH1 0x40 DUP1 DUP4 KECCAK256 SWAP4 SWAP1 SWAP4 SSTORE PUSH1 0x5 DUP2 MSTORE DUP3 DUP3 KECCAK256 CALLER DUP4 MSTORE SWAP1 MSTORE KECCAK256 SLOAD PUSH2 0x508 SWAP1 DUP4 PUSH2 0x62C JUMP JUMPDEST PUSH1 0x1 PUSH1 0xA0 PUSH1 0x2 EXP SUB DUP1 DUP7 AND PUSH1 0x0 SWAP1 DUP2 MSTORE PUSH1 0x5 PUSH1 0x20 SWAP1 DUP2 MSTORE PUSH1 0x40 DUP1 DUP4 KECCAK256 CALLER DUP5 MSTORE DUP3 MSTORE DUP1 DUP4 KECCAK256 SWAP5 SWAP1 SWAP5 SSTORE SWAP2 DUP7 AND DUP2 MSTORE PUSH1 0x4 SWAP1 SWAP2 MSTORE KECCAK256 SLOAD PUSH2 0x546 SWAP1 DUP4 PUSH2 0x8B7 JUMP JUMPDEST PUSH1 0x1 PUSH1 0xA0 PUSH1 0x2 EXP SUB DUP1 DUP6 AND PUSH1 0x0 DUP2 DUP2 MSTORE PUSH1 0x4 PUSH1 0x20 SWAP1 DUP2 MSTORE PUSH1 0x40 SWAP2 DUP3 SWAP1 KECCAK256 SWAP5 SWAP1 SWAP5 SSTORE DUP1 MLOAD DUP7 DUP2 MSTORE SWAP1 MLOAD SWAP2 SWAP4 SWAP3 DUP9 AND SWAP3 PUSH32 0xDDF252AD1BE2C89B69C2B068FC378DAA952BA7F163C4A11628F55A4DF523B3EF SWAP3 SWAP2 DUP3 SWAP1 SUB ADD SWAP1 LOG3 POP PUSH1 0x1 SWAP4 SWAP3 POP POP POP JUMP JUMPDEST PUSH1 0x2 SLOAD PUSH1 0xFF AND DUP2 JUMP JUMPDEST PUSH1 0x3 SLOAD DUP2 JUMP JUMPDEST PUSH1 0x1 PUSH1 0xA0 PUSH1 0x2 EXP SUB AND PUSH1 0x0 SWAP1 DUP2 MSTORE PUSH1 0x4 PUSH1 0x20 MSTORE PUSH1 0x40 SWAP1 KECCAK256 SLOAD SWAP1 JUMP JUMPDEST PUSH1 0x0 DUP1 SLOAD PUSH1 0x40 DUP1 MLOAD PUSH1 0x20 PUSH1 0x2 PUSH1 0x1 DUP6 AND ISZERO PUSH2 0x100 MUL PUSH1 0x0 NOT ADD SWAP1 SWAP5 AND SWAP4 SWAP1 SWAP4 DIV PUSH1 0x1F DUP2 ADD DUP5 SWAP1 DIV DUP5 MUL DUP3 ADD DUP5 ADD SWAP1 SWAP3 MSTORE DUP2 DUP2 MSTORE SWAP3 SWAP2 DUP4 ADD DUP3 DUP3 DUP1 ISZERO PUSH2 0x40D JUMPI DUP1 PUSH1 0x1F LT PUSH2 0x3E2 JUMPI PUSH2 0x100 DUP1 DUP4 SLOAD DIV MUL DUP4 MSTORE SWAP2 PUSH1 0x20 ADD SWAP2 PUSH2 0x40D JUMP JUMPDEST PUSH1 0x0 DUP3 DUP3 GT ISZERO PUSH2 0x63B JUMPI PUSH1 0x0 DUP1 REVERT JUMPDEST POP SWAP1 SUB SWAP1 JUMP JUMPDEST CALLER PUSH1 0x0 SWAP1 DUP2 MSTORE PUSH1 0x4 PUSH1 0x20 MSTORE PUSH1 0x40 DUP2 KECCAK256 SLOAD PUSH2 0x65B SWAP1 DUP4 PUSH2 0x62C JUMP JUMPDEST CALLER PUSH1 0x0 SWAP1 DUP2 MSTORE PUSH1 0x4 PUSH1 0x20 MSTORE PUSH1 0x40 DUP1 DUP3 KECCAK256 SWAP3 SWAP1 SWAP3 SSTORE PUSH1 0x1 PUSH1 0xA0 PUSH1 0x2 EXP SUB DUP6 AND DUP2 MSTORE KECCAK256 SLOAD PUSH2 0x687 SWAP1 DUP4 PUSH2 0x8B7 JUMP JUMPDEST PUSH1 0x1 PUSH1 0xA0 PUSH1 0x2 EXP SUB DUP5 AND PUSH1 0x0 DUP2 DUP2 MSTORE PUSH1 0x4 PUSH1 0x20 SWAP1 DUP2 MSTORE PUSH1 0x40 SWAP2 DUP3 SWAP1 KECCAK256 SWAP4 SWAP1 SWAP4 SSTORE DUP1 MLOAD DUP6 DUP2 MSTORE SWAP1 MLOAD SWAP2 SWAP3 CALLER SWAP3 PUSH32 0xDDF252AD1BE2C89B69C2B068FC378DAA952BA7F163C4A11628F55A4DF523B3EF SWAP3 DUP2 SWAP1 SUB SWAP1 SWAP2 ADD SWAP1 LOG3 POP PUSH1 0x1 SWAP3 SWAP2 POP POP JUMP JUMPDEST PUSH1 0x0 DUP1 DUP3 GT PUSH2 0x6F3 JUMPI PUSH1 0x0 DUP1 REVERT JUMPDEST DUP2 DUP4 DUP2 ISZERO ISZERO PUSH2 0x6FE JUMPI INVALID JUMPDEST DIV SWAP4 SWAP3 POP POP POP JUMP JUMPDEST CALLER PUSH1 0x0 DUP2 DUP2 MSTORE PUSH1 0x5 PUSH1 0x20 SWAP1 DUP2 MSTORE PUSH1 0x40 DUP1 DUP4 KECCAK256 PUSH1 0x1 PUSH1 0xA0 PUSH1 0x2 EXP SUB DUP9 AND DUP1 DUP6 MSTORE SWAP1 DUP4 MSTORE DUP2 DUP5 KECCAK256 DUP8 SWAP1 SSTORE DUP2 MLOAD DUP8 DUP2 MSTORE SWAP2 MLOAD SWAP4 SWAP5 SWAP1 SWAP4 SWAP1 SWAP3 PUSH32 0x8C5BE1E5EBEC7D5BD14F71427D1E84F3DD0314C0F7B2291E5B200AC8C7C3B925 SWAP3 DUP3 SWAP1 SUB ADD SWAP1 LOG3 PUSH1 0x40 MLOAD PUSH32 0x8F4FFCB100000000000000000000000000000000000000000000000000000000 DUP2 MSTORE CALLER PUSH1 0x4 DUP3 ADD DUP2 DUP2 MSTORE PUSH1 0x24 DUP4 ADD DUP7 SWAP1 MSTORE ADDRESS PUSH1 0x44 DUP5 ADD DUP2 SWAP1 MSTORE PUSH1 0x80 PUSH1 0x64 DUP6 ADD SWAP1 DUP2 MSTORE DUP7 MLOAD PUSH1 0x84 DUP7 ADD MSTORE DUP7 MLOAD PUSH1 0x1 PUSH1 0xA0 PUSH1 0x2 EXP SUB DUP11 AND SWAP6 PUSH4 0x8F4FFCB1 SWAP6 SWAP5 DUP11 SWAP5 SWAP4 DUP11 SWAP4 SWAP2 SWAP3 SWAP1 SWAP2 PUSH1 0xA4 SWAP1 SWAP2 ADD SWAP1 PUSH1 0x20 DUP6 ADD SWAP1 DUP1 DUP4 DUP4 PUSH1 0x0 JUMPDEST DUP4 DUP2 LT ISZERO PUSH2 0x7F6 JUMPI DUP2 DUP2 ADD MLOAD DUP4 DUP3 ADD MSTORE PUSH1 0x20 ADD PUSH2 0x7DE JUMP JUMPDEST POP POP POP POP SWAP1 POP SWAP1 DUP2 ADD SWAP1 PUSH1 0x1F AND DUP1 ISZERO PUSH2 0x823 JUMPI DUP1 DUP3 SUB DUP1 MLOAD PUSH1 0x1 DUP4 PUSH1 0x20 SUB PUSH2 0x100 EXP SUB NOT AND DUP2 MSTORE PUSH1 0x20 ADD SWAP2 POP JUMPDEST POP SWAP6 POP POP POP POP POP POP PUSH1 0x0 PUSH1 0x40 MLOAD DUP1 DUP4 SUB DUP2 PUSH1 0x0 DUP8 DUP1 EXTCODESIZE ISZERO DUP1 ISZERO PUSH2 0x845 JUMPI PUSH1 0x0 DUP1 REVERT JUMPDEST POP GAS CALL ISZERO DUP1 ISZERO PUSH2 0x859 JUMPI RETURNDATASIZE PUSH1 0x0 DUP1 RETURNDATACOPY RETURNDATASIZE PUSH1 0x0 REVERT JUMPDEST POP PUSH1 0x1 SWAP8 SWAP7 POP POP POP POP POP POP POP JUMP JUMPDEST DUP2 DUP2 MUL DUP3 ISZERO DUP1 PUSH2 0x881 JUMPI POP DUP2 DUP4 DUP3 DUP2 ISZERO ISZERO PUSH2 0x87E JUMPI INVALID JUMPDEST DIV EQ JUMPDEST ISZERO ISZERO PUSH2 0x476 JUMPI PUSH1 0x0 DUP1 REVERT JUMPDEST PUSH1 0x1 PUSH1 0xA0 PUSH1 0x2 EXP SUB SWAP2 DUP3 AND PUSH1 0x0 SWAP1 DUP2 MSTORE PUSH1 0x5 PUSH1 0x20 SWAP1 DUP2 MSTORE PUSH1 0x40 DUP1 DUP4 KECCAK256 SWAP4 SWAP1 SWAP5 AND DUP3 MSTORE SWAP2 SWAP1 SWAP2 MSTORE KECCAK256 SLOAD SWAP1 JUMP JUMPDEST DUP2 DUP2 ADD DUP3 DUP2 LT ISZERO PUSH2 0x476 JUMPI PUSH1 0x0 DUP1 REVERT STOP LOG1 PUSH6 0x627A7A723058 KECCAK256 POP 0xb6 0xb3 JUMP RETURNDATACOPY JUMP ADD 0xc5 SIGNEXTEND 0xe3 0x27 0xb3 0xbf 0xab 0xb4 0xcb PUSH24 0x1E5E5718FA34B7E95B6E0E585BF336002900000000000000 "
				},
				"gasEstimates": {
					"creation": {
						"codeDepositCost": "458200",
						"executionCost": "infinite",
						"totalCost": "infinite"
					},
					"external": {
						"": "396",
						"_totalSupply()": "494",
						"allowance(address,address)": "994",
						"approve(address,uint256)": "22355",
						"approveAndCall(address,uint256,bytes)": "infinite",
						"balanceOf(address)": "738",
						"decimals()": "487",
						"name()": "infinite",
						"safeAdd(uint256,uint256)": "543",
						"safeDiv(uint256,uint256)": "482",
						"safeMul(uint256,uint256)": "560",
						"safeSub(uint256,uint256)": "406",
						"symbol()": "infinite",
						"totalSupply()": "652",
						"transfer(address,uint256)": "43292",
						"transferFrom(address,address,uint256)": "infinite"
					}
				},
				"methodIdentifiers": {
					"_totalSupply()": "3eaaf86b",
					"allowance(address,address)": "dd62ed3e",
					"approve(address,uint256)": "095ea7b3",
					"approveAndCall(address,uint256,bytes)": "cae9ca51",
					"balanceOf(address)": "70a08231",
					"decimals()": "313ce567",
					"name()": "06fdde03",
					"safeAdd(uint256,uint256)": "e6cb9013",
					"safeDiv(uint256,uint256)": "b5931f7c",
					"safeMul(uint256,uint256)": "d05c78da",
					"safeSub(uint256,uint256)": "a293d1e8",
					"symbol()": "95d89b41",
					"totalSupply()": "18160ddd",
					"transfer(address,uint256)": "a9059cbb",
					"transferFrom(address,address,uint256)": "23b872dd"
				}
			},
			"userdoc": {
				"methods": {}
			}
		}
	}
}